{
	"main.sol": {
		"LAN": {
			"abi": [
				{
					"anonymous": false,
					"inputs": [
						{
							"indexed": false,
							"internalType": "uint256",
							"name": "Id",
							"type": "uint256"
						}
					],
					"name": "loanCancelled",
					"type": "event"
				},
				{
					"anonymous": false,
					"inputs": [
						{
							"indexed": true,
							"internalType": "uint256",
							"name": "poolId",
							"type": "uint256"
						},
						{
							"indexed": false,
							"internalType": "address",
							"name": "collectionAddress",
							"type": "address"
						},
						{
							"indexed": false,
							"internalType": "uint256",
							"name": "nftId",
							"type": "uint256"
						}
					],
					"name": "newPool",
					"type": "event"
				},
				{
					"inputs": [
						{
							"internalType": "uint256",
							"name": "_poolId",
							"type": "uint256"
						},
						{
							"internalType": "uint256",
							"name": "_amount",
							"type": "uint256"
						}
					],
					"name": "bid",
					"outputs": [],
					"stateMutability": "nonpayable",
					"type": "function"
				},
				{
					"inputs": [
						{
							"internalType": "uint256",
							"name": "",
							"type": "uint256"
						},
						{
							"internalType": "uint256",
							"name": "",
							"type": "uint256"
						}
					],
					"name": "bids",
					"outputs": [
						{
							"internalType": "uint256",
							"name": "bidTime",
							"type": "uint256"
						},
						{
							"internalType": "uint256",
							"name": "bidAmount",
							"type": "uint256"
						},
						{
							"internalType": "address",
							"name": "user",
							"type": "address"
						}
					],
					"stateMutability": "view",
					"type": "function"
				},
				{
					"inputs": [
						{
							"internalType": "uint256",
							"name": "_poolId",
							"type": "uint256"
						}
					],
					"name": "cancel",
					"outputs": [],
					"stateMutability": "nonpayable",
					"type": "function"
				},
				{
					"inputs": [],
					"name": "count",
					"outputs": [
						{
							"internalType": "uint256",
							"name": "",
							"type": "uint256"
						}
					],
					"stateMutability": "view",
					"type": "function"
				},
				{
					"inputs": [
						{
							"internalType": "uint256",
							"name": "_poolId",
							"type": "uint256"
						}
					],
					"name": "endLoan",
					"outputs": [],
					"stateMutability": "nonpayable",
					"type": "function"
				},
				{
					"inputs": [
						{
							"internalType": "address",
							"name": "_token",
							"type": "address"
						},
						{
							"internalType": "address",
							"name": "_collectionAddress",
							"type": "address"
						},
						{
							"internalType": "uint256",
							"name": "_nftId",
							"type": "uint256"
						},
						{
							"internalType": "uint256",
							"name": "_startTime",
							"type": "uint256"
						},
						{
							"internalType": "uint256",
							"name": "_endTime",
							"type": "uint256"
						},
						{
							"internalType": "uint256",
							"name": "_apr",
							"type": "uint256"
						}
					],
					"name": "launch",
					"outputs": [],
					"stateMutability": "nonpayable",
					"type": "function"
				},
				{
					"inputs": [
						{
							"internalType": "uint256",
							"name": "_poolId",
							"type": "uint256"
						}
					],
					"name": "liquidate",
					"outputs": [],
					"stateMutability": "nonpayable",
					"type": "function"
				},
				{
					"inputs": [
						{
							"internalType": "uint256",
							"name": "_poolId",
							"type": "uint256"
						}
					],
					"name": "liquidateEarly",
					"outputs": [],
					"stateMutability": "nonpayable",
					"type": "function"
				},
				{
					"inputs": [
						{
							"internalType": "uint256",
							"name": "",
							"type": "uint256"
						}
					],
					"name": "loans",
					"outputs": [
						{
							"internalType": "address",
							"name": "owner",
							"type": "address"
						},
						{
							"internalType": "address",
							"name": "token",
							"type": "address"
						},
						{
							"internalType": "address",
							"name": "collectionAddress",
							"type": "address"
						},
						{
							"internalType": "uint256",
							"name": "nftId",
							"type": "uint256"
						},
						{
							"internalType": "uint256",
							"name": "startTime",
							"type": "uint256"
						},
						{
							"internalType": "uint256",
							"name": "endTime",
							"type": "uint256"
						},
						{
							"internalType": "uint256",
							"name": "apr",
							"type": "uint256"
						},
						{
							"internalType": "uint256",
							"name": "numBids",
							"type": "uint256"
						}
					],
					"stateMutability": "view",
					"type": "function"
				},
				{
					"inputs": [
						{
							"internalType": "uint256",
							"name": "_poolId",
							"type": "uint256"
						},
						{
							"internalType": "address",
							"name": "_newAddress",
							"type": "address"
						}
					],
					"name": "setNewBidOwner",
					"outputs": [],
					"stateMutability": "nonpayable",
					"type": "function"
				},
				{
					"inputs": [
						{
							"internalType": "uint256",
							"name": "",
							"type": "uint256"
						},
						{
							"internalType": "uint256",
							"name": "",
							"type": "uint256"
						}
					],
					"name": "whitelistedAddresses",
					"outputs": [
						{
							"internalType": "address",
							"name": "",
							"type": "address"
						}
					],
					"stateMutability": "view",
					"type": "function"
				}
			],
			"devdoc": {
				"kind": "dev",
				"methods": {},
				"version": 1
			},
			"evm": {
				"assembly": "    /* \"main.sol\":142:6183  contract LAN{... */\n  mstore(0x40, 0x80)\n  callvalue\n  dup1\n  iszero\n  tag_1\n  jumpi\n  0x00\n  dup1\n  revert\ntag_1:\n  pop\n  dataSize(sub_0)\n  dup1\n  dataOffset(sub_0)\n  0x00\n  codecopy\n  0x00\n  return\nstop\n\nsub_0: assembly {\n        /* \"main.sol\":142:6183  contract LAN{... */\n      mstore(0x40, 0x80)\n      callvalue\n      dup1\n      iszero\n      tag_1\n      jumpi\n      0x00\n      dup1\n      revert\n    tag_1:\n      pop\n      jumpi(tag_2, lt(calldatasize, 0x04))\n      shr(0xe0, calldataload(0x00))\n      dup1\n      0x7870860b\n      gt\n      tag_14\n      jumpi\n      dup1\n      0x7870860b\n      eq\n      tag_8\n      jumpi\n      dup1\n      0x7b3c4baa\n      eq\n      tag_9\n      jumpi\n      dup1\n      0x8f769f3a\n      eq\n      tag_10\n      jumpi\n      dup1\n      0x9bea77da\n      eq\n      tag_11\n      jumpi\n      dup1\n      0xe1ec3c68\n      eq\n      tag_12\n      jumpi\n      dup1\n      0xe7e4dfcd\n      eq\n      tag_13\n      jumpi\n      jump(tag_2)\n    tag_14:\n      dup1\n      0x06661abd\n      eq\n      tag_3\n      jumpi\n      dup1\n      0x18de4f9d\n      eq\n      tag_4\n      jumpi\n      dup1\n      0x40e58ee5\n      eq\n      tag_5\n      jumpi\n      dup1\n      0x415f1240\n      eq\n      tag_6\n      jumpi\n      dup1\n      0x598647f8\n      eq\n      tag_7\n      jumpi\n    tag_2:\n      0x00\n      dup1\n      revert\n        /* \"main.sol\":313:333  uint256 public count */\n    tag_3:\n      tag_15\n      tag_16\n      jump\t// in\n    tag_15:\n      mload(0x40)\n      tag_17\n      swap2\n      swap1\n      tag_18\n      jump\t// in\n    tag_17:\n      mload(0x40)\n      dup1\n      swap2\n      sub\n      swap1\n      return\n        /* \"main.sol\":4887:5348  function liquidateEarly(uint256 _poolId) external onlyOwner(_poolId) {... */\n    tag_4:\n      tag_19\n      0x04\n      dup1\n      calldatasize\n      sub\n      dup2\n      add\n      swap1\n      tag_20\n      swap2\n      swap1\n      tag_21\n      jump\t// in\n    tag_20:\n      tag_22\n      jump\t// in\n    tag_19:\n      stop\n        /* \"main.sol\":3464:3708  function cancel(uint256 _poolId) external onlyOwner(_poolId) {... */\n    tag_5:\n      tag_23\n      0x04\n      dup1\n      calldatasize\n      sub\n      dup2\n      add\n      swap1\n      tag_24\n      swap2\n      swap1\n      tag_21\n      jump\t// in\n    tag_24:\n      tag_25\n      jump\t// in\n    tag_23:\n      stop\n        /* \"main.sol\":4278:4711  function liquidate(uint256 _poolId) external {... */\n    tag_6:\n      tag_26\n      0x04\n      dup1\n      calldatasize\n      sub\n      dup2\n      add\n      swap1\n      tag_27\n      swap2\n      swap1\n      tag_21\n      jump\t// in\n    tag_27:\n      tag_28\n      jump\t// in\n    tag_26:\n      stop\n        /* \"main.sol\":1970:2866  function bid(uint256 _poolId, uint256 _amount) external {... */\n    tag_7:\n      tag_29\n      0x04\n      dup1\n      calldatasize\n      sub\n      dup2\n      add\n      swap1\n      tag_30\n      swap2\n      swap1\n      tag_31\n      jump\t// in\n    tag_30:\n      tag_32\n      jump\t// in\n    tag_29:\n      stop\n        /* \"main.sol\":3747:4224  function endLoan(uint256 _poolId) external onlyOwner(_poolId) {... */\n    tag_8:\n      tag_33\n      0x04\n      dup1\n      calldatasize\n      sub\n      dup2\n      add\n      swap1\n      tag_34\n      swap2\n      swap1\n      tag_21\n      jump\t// in\n    tag_34:\n      tag_35\n      jump\t// in\n    tag_33:\n      stop\n        /* \"main.sol\":872:927  mapping(uint256 => mapping(uint256 => Bid)) public bids */\n    tag_9:\n      tag_36\n      0x04\n      dup1\n      calldatasize\n      sub\n      dup2\n      add\n      swap1\n      tag_37\n      swap2\n      swap1\n      tag_31\n      jump\t// in\n    tag_37:\n      tag_38\n      jump\t// in\n    tag_36:\n      mload(0x40)\n      tag_39\n      swap4\n      swap3\n      swap2\n      swap1\n      tag_40\n      jump\t// in\n    tag_39:\n      mload(0x40)\n      dup1\n      swap2\n      sub\n      swap1\n      return\n        /* \"main.sol\":3007:3417  function setNewBidOwner(uint256 _poolId, address _newAddress) external{... */\n    tag_10:\n      tag_41\n      0x04\n      dup1\n      calldatasize\n      sub\n      dup2\n      add\n      swap1\n      tag_42\n      swap2\n      swap1\n      tag_43\n      jump\t// in\n    tag_42:\n      tag_44\n      jump\t// in\n    tag_41:\n      stop\n        /* \"main.sol\":1009:1066  mapping(uint256 => address[]) public whitelistedAddresses */\n    tag_11:\n      tag_45\n      0x04\n      dup1\n      calldatasize\n      sub\n      dup2\n      add\n      swap1\n      tag_46\n      swap2\n      swap1\n      tag_31\n      jump\t// in\n    tag_46:\n      tag_47\n      jump\t// in\n    tag_45:\n      mload(0x40)\n      tag_48\n      swap2\n      swap1\n      tag_49\n      jump\t// in\n    tag_48:\n      mload(0x40)\n      dup1\n      swap2\n      sub\n      swap1\n      return\n        /* \"main.sol\":711:748  mapping(uint256 => Loan) public loans */\n    tag_12:\n      tag_50\n      0x04\n      dup1\n      calldatasize\n      sub\n      dup2\n      add\n      swap1\n      tag_51\n      swap2\n      swap1\n      tag_21\n      jump\t// in\n    tag_51:\n      tag_52\n      jump\t// in\n    tag_50:\n      mload(0x40)\n      tag_53\n      swap9\n      swap8\n      swap7\n      swap6\n      swap5\n      swap4\n      swap3\n      swap2\n      swap1\n      tag_54\n      jump\t// in\n    tag_53:\n      mload(0x40)\n      dup1\n      swap2\n      sub\n      swap1\n      return\n        /* \"main.sol\":1269:1964  function launch(address _token, address _collectionAddress, uint256 _nftId, uint256 _startTime, uint256 _endTime, uint256 _apr) public {... */\n    tag_13:\n      tag_55\n      0x04\n      dup1\n      calldatasize\n      sub\n      dup2\n      add\n      swap1\n      tag_56\n      swap2\n      swap1\n      tag_57\n      jump\t// in\n    tag_56:\n      tag_58\n      jump\t// in\n    tag_55:\n      stop\n        /* \"main.sol\":313:333  uint256 public count */\n    tag_16:\n      sload(0x00)\n      dup2\n      jump\t// out\n        /* \"main.sol\":4887:5348  function liquidateEarly(uint256 _poolId) external onlyOwner(_poolId) {... */\n    tag_22:\n        /* \"main.sol\":4947:4954  _poolId */\n      dup1\n        /* \"main.sol\":1216:1226  msg.sender */\n      caller\n        /* \"main.sol\":1192:1226  loans[_poolId].owner == msg.sender */\n      0xffffffffffffffffffffffffffffffffffffffff\n      and\n        /* \"main.sol\":1192:1197  loans */\n      0x01\n        /* \"main.sol\":1192:1206  loans[_poolId] */\n      0x00\n        /* \"main.sol\":1198:1205  _poolId */\n      dup4\n        /* \"main.sol\":1192:1206  loans[_poolId] */\n      dup2\n      mstore\n      0x20\n      add\n      swap1\n      dup2\n      mstore\n      0x20\n      add\n      0x00\n      keccak256\n        /* \"main.sol\":1192:1212  loans[_poolId].owner */\n      0x00\n      add\n      0x00\n      swap1\n      sload\n      swap1\n      0x0100\n      exp\n      swap1\n      div\n      0xffffffffffffffffffffffffffffffffffffffff\n      and\n        /* \"main.sol\":1192:1226  loans[_poolId].owner == msg.sender */\n      0xffffffffffffffffffffffffffffffffffffffff\n      and\n      eq\n        /* \"main.sol\":1184:1245  require(loans[_poolId].owner == msg.sender, \"LAN: not owner\") */\n      tag_60\n      jumpi\n      mload(0x40)\n      0x08c379a000000000000000000000000000000000000000000000000000000000\n      dup2\n      mstore\n      0x04\n      add\n      tag_61\n      swap1\n      tag_62\n      jump\t// in\n    tag_61:\n      mload(0x40)\n      dup1\n      swap2\n      sub\n      swap1\n      revert\n    tag_60:\n        /* \"main.sol\":4966:4982  Loan memory loan */\n      0x00\n        /* \"main.sol\":4985:4990  loans */\n      0x01\n        /* \"main.sol\":4985:4999  loans[_poolId] */\n      0x00\n        /* \"main.sol\":4991:4998  _poolId */\n      dup5\n        /* \"main.sol\":4985:4999  loans[_poolId] */\n      dup2\n      mstore\n      0x20\n      add\n      swap1\n      dup2\n      mstore\n      0x20\n      add\n      0x00\n      keccak256\n        /* \"main.sol\":4966:4999  Loan memory loan = loans[_poolId] */\n      mload(0x40)\n      dup1\n      0x0100\n      add\n      0x40\n      mstore\n      swap1\n      dup2\n      0x00\n      dup3\n      add\n      0x00\n      swap1\n      sload\n      swap1\n      0x0100\n      exp\n      swap1\n      div\n      0xffffffffffffffffffffffffffffffffffffffff\n      and\n      0xffffffffffffffffffffffffffffffffffffffff\n      and\n      0xffffffffffffffffffffffffffffffffffffffff\n      and\n      dup2\n      mstore\n      0x20\n      add\n      0x01\n      dup3\n      add\n      0x00\n      swap1\n      sload\n      swap1\n      0x0100\n      exp\n      swap1\n      div\n      0xffffffffffffffffffffffffffffffffffffffff\n      and\n      0xffffffffffffffffffffffffffffffffffffffff\n      and\n      0xffffffffffffffffffffffffffffffffffffffff\n      and\n      dup2\n      mstore\n      0x20\n      add\n      0x02\n      dup3\n      add\n      0x00\n      swap1\n      sload\n      swap1\n      0x0100\n      exp\n      swap1\n      div\n      0xffffffffffffffffffffffffffffffffffffffff\n      and\n      0xffffffffffffffffffffffffffffffffffffffff\n      and\n      0xffffffffffffffffffffffffffffffffffffffff\n      and\n      dup2\n      mstore\n      0x20\n      add\n      0x03\n      dup3\n      add\n      sload\n      dup2\n      mstore\n      0x20\n      add\n      0x04\n      dup3\n      add\n      sload\n      dup2\n      mstore\n      0x20\n      add\n      0x05\n      dup3\n      add\n      sload\n      dup2\n      mstore\n      0x20\n      add\n      0x06\n      dup3\n      add\n      sload\n      dup2\n      mstore\n      0x20\n      add\n      0x07\n      dup3\n      add\n      sload\n      dup2\n      mstore\n      pop\n      pop\n      swap1\n      pop\n        /* \"main.sol\":5017:5032  _ended(_poolId) */\n      tag_64\n        /* \"main.sol\":5024:5031  _poolId */\n      dup4\n        /* \"main.sol\":5017:5023  _ended */\n      tag_65\n        /* \"main.sol\":5017:5032  _ended(_poolId) */\n      jump\t// in\n    tag_64:\n        /* \"main.sol\":5009:5056  require(_ended(_poolId), \"LAN: loan not ended\") */\n      tag_66\n      jumpi\n      mload(0x40)\n      0x08c379a000000000000000000000000000000000000000000000000000000000\n      dup2\n      mstore\n      0x04\n      add\n      tag_67\n      swap1\n      tag_68\n      jump\t// in\n    tag_67:\n      mload(0x40)\n      dup1\n      swap2\n      sub\n      swap1\n      revert\n    tag_66:\n        /* \"main.sol\":5066:5086  Bid memory latestBid */\n      0x00\n        /* \"main.sol\":5089:5093  bids */\n      0x02\n        /* \"main.sol\":5089:5102  bids[_poolId] */\n      0x00\n        /* \"main.sol\":5094:5101  _poolId */\n      dup6\n        /* \"main.sol\":5089:5102  bids[_poolId] */\n      dup2\n      mstore\n      0x20\n      add\n      swap1\n      dup2\n      mstore\n      0x20\n      add\n      0x00\n      keccak256\n        /* \"main.sol\":5089:5116  bids[_poolId][loan.numBids] */\n      0x00\n        /* \"main.sol\":5103:5107  loan */\n      dup4\n        /* \"main.sol\":5103:5115  loan.numBids */\n      0xe0\n      add\n      mload\n        /* \"main.sol\":5089:5116  bids[_poolId][loan.numBids] */\n      dup2\n      mstore\n      0x20\n      add\n      swap1\n      dup2\n      mstore\n      0x20\n      add\n      0x00\n      keccak256\n        /* \"main.sol\":5066:5116  Bid memory latestBid = bids[_poolId][loan.numBids] */\n      mload(0x40)\n      dup1\n      0x60\n      add\n      0x40\n      mstore\n      swap1\n      dup2\n      0x00\n      dup3\n      add\n      sload\n      dup2\n      mstore\n      0x20\n      add\n      0x01\n      dup3\n      add\n      sload\n      dup2\n      mstore\n      0x20\n      add\n      0x02\n      dup3\n      add\n      0x00\n      swap1\n      sload\n      swap1\n      0x0100\n      exp\n      swap1\n      div\n      0xffffffffffffffffffffffffffffffffffffffff\n      and\n      0xffffffffffffffffffffffffffffffffffffffff\n      and\n      0xffffffffffffffffffffffffffffffffffffffff\n      and\n      dup2\n      mstore\n      pop\n      pop\n      swap1\n      pop\n        /* \"main.sol\":5152:5162  msg.sender */\n      caller\n        /* \"main.sol\":5134:5162  latestBid.user == msg.sender */\n      0xffffffffffffffffffffffffffffffffffffffff\n      and\n        /* \"main.sol\":5134:5143  latestBid */\n      dup2\n        /* \"main.sol\":5134:5148  latestBid.user */\n      0x40\n      add\n      mload\n        /* \"main.sol\":5134:5162  latestBid.user == msg.sender */\n      0xffffffffffffffffffffffffffffffffffffffff\n      and\n      eq\n        /* \"main.sol\":5126:5189  require(latestBid.user == msg.sender, \"LAN: not latest bidder\") */\n      tag_69\n      jumpi\n      mload(0x40)\n      0x08c379a000000000000000000000000000000000000000000000000000000000\n      dup2\n      mstore\n      0x04\n      add\n      tag_70\n      swap1\n      tag_71\n      jump\t// in\n    tag_70:\n      mload(0x40)\n      dup1\n      swap2\n      sub\n      swap1\n      revert\n    tag_69:\n        /* \"main.sol\":5223:5234  IERC721 NFT */\n      0x00\n        /* \"main.sol\":5245:5249  loan */\n      dup3\n        /* \"main.sol\":5245:5267  loan.collectionAddress */\n      0x40\n      add\n      mload\n        /* \"main.sol\":5223:5268  IERC721 NFT = IERC721(loan.collectionAddress) */\n      swap1\n      pop\n        /* \"main.sol\":5278:5281  NFT */\n      dup1\n        /* \"main.sol\":5278:5298  NFT.safeTransferFrom */\n      0xffffffffffffffffffffffffffffffffffffffff\n      and\n      0x42842e0e\n        /* \"main.sol\":5307:5311  this */\n      address\n        /* \"main.sol\":5314:5323  latestBid */\n      dup5\n        /* \"main.sol\":5314:5328  latestBid.user */\n      0x40\n      add\n      mload\n        /* \"main.sol\":5330:5334  loan */\n      dup7\n        /* \"main.sol\":5330:5340  loan.nftId */\n      0x60\n      add\n      mload\n        /* \"main.sol\":5278:5341  NFT.safeTransferFrom(address(this), latestBid.user, loan.nftId) */\n      mload(0x40)\n      dup5\n      0xffffffff\n      and\n      0xe0\n      shl\n      dup2\n      mstore\n      0x04\n      add\n      tag_72\n      swap4\n      swap3\n      swap2\n      swap1\n      tag_73\n      jump\t// in\n    tag_72:\n      0x00\n      mload(0x40)\n      dup1\n      dup4\n      sub\n      dup2\n      0x00\n      dup8\n      dup1\n      extcodesize\n      iszero\n      dup1\n      iszero\n      tag_74\n      jumpi\n      0x00\n      dup1\n      revert\n    tag_74:\n      pop\n      gas\n      call\n      iszero\n      dup1\n      iszero\n      tag_76\n      jumpi\n      returndatasize\n      0x00\n      dup1\n      returndatacopy\n      revert(0x00, returndatasize)\n    tag_76:\n      pop\n      pop\n      pop\n      pop\n        /* \"main.sol\":4956:5348  {... */\n      pop\n      pop\n      pop\n        /* \"main.sol\":4887:5348  function liquidateEarly(uint256 _poolId) external onlyOwner(_poolId) {... */\n      pop\n      pop\n      jump\t// out\n        /* \"main.sol\":3464:3708  function cancel(uint256 _poolId) external onlyOwner(_poolId) {... */\n    tag_25:\n        /* \"main.sol\":3516:3523  _poolId */\n      dup1\n        /* \"main.sol\":1216:1226  msg.sender */\n      caller\n        /* \"main.sol\":1192:1226  loans[_poolId].owner == msg.sender */\n      0xffffffffffffffffffffffffffffffffffffffff\n      and\n        /* \"main.sol\":1192:1197  loans */\n      0x01\n        /* \"main.sol\":1192:1206  loans[_poolId] */\n      0x00\n        /* \"main.sol\":1198:1205  _poolId */\n      dup4\n        /* \"main.sol\":1192:1206  loans[_poolId] */\n      dup2\n      mstore\n      0x20\n      add\n      swap1\n      dup2\n      mstore\n      0x20\n      add\n      0x00\n      keccak256\n        /* \"main.sol\":1192:1212  loans[_poolId].owner */\n      0x00\n      add\n      0x00\n      swap1\n      sload\n      swap1\n      0x0100\n      exp\n      swap1\n      div\n      0xffffffffffffffffffffffffffffffffffffffff\n      and\n        /* \"main.sol\":1192:1226  loans[_poolId].owner == msg.sender */\n      0xffffffffffffffffffffffffffffffffffffffff\n      and\n      eq\n        /* \"main.sol\":1184:1245  require(loans[_poolId].owner == msg.sender, \"LAN: not owner\") */\n      tag_78\n      jumpi\n      mload(0x40)\n      0x08c379a000000000000000000000000000000000000000000000000000000000\n      dup2\n      mstore\n      0x04\n      add\n      tag_79\n      swap1\n      tag_62\n      jump\t// in\n    tag_79:\n      mload(0x40)\n      dup1\n      swap2\n      sub\n      swap1\n      revert\n    tag_78:\n        /* \"main.sol\":3535:3551  Loan memory loan */\n      0x00\n        /* \"main.sol\":3554:3559  loans */\n      0x01\n        /* \"main.sol\":3554:3568  loans[_poolId] */\n      0x00\n        /* \"main.sol\":3560:3567  _poolId */\n      dup5\n        /* \"main.sol\":3554:3568  loans[_poolId] */\n      dup2\n      mstore\n      0x20\n      add\n      swap1\n      dup2\n      mstore\n      0x20\n      add\n      0x00\n      keccak256\n        /* \"main.sol\":3535:3568  Loan memory loan = loans[_poolId] */\n      mload(0x40)\n      dup1\n      0x0100\n      add\n      0x40\n      mstore\n      swap1\n      dup2\n      0x00\n      dup3\n      add\n      0x00\n      swap1\n      sload\n      swap1\n      0x0100\n      exp\n      swap1\n      div\n      0xffffffffffffffffffffffffffffffffffffffff\n      and\n      0xffffffffffffffffffffffffffffffffffffffff\n      and\n      0xffffffffffffffffffffffffffffffffffffffff\n      and\n      dup2\n      mstore\n      0x20\n      add\n      0x01\n      dup3\n      add\n      0x00\n      swap1\n      sload\n      swap1\n      0x0100\n      exp\n      swap1\n      div\n      0xffffffffffffffffffffffffffffffffffffffff\n      and\n      0xffffffffffffffffffffffffffffffffffffffff\n      and\n      0xffffffffffffffffffffffffffffffffffffffff\n      and\n      dup2\n      mstore\n      0x20\n      add\n      0x02\n      dup3\n      add\n      0x00\n      swap1\n      sload\n      swap1\n      0x0100\n      exp\n      swap1\n      div\n      0xffffffffffffffffffffffffffffffffffffffff\n      and\n      0xffffffffffffffffffffffffffffffffffffffff\n      and\n      0xffffffffffffffffffffffffffffffffffffffff\n      and\n      dup2\n      mstore\n      0x20\n      add\n      0x03\n      dup3\n      add\n      sload\n      dup2\n      mstore\n      0x20\n      add\n      0x04\n      dup3\n      add\n      sload\n      dup2\n      mstore\n      0x20\n      add\n      0x05\n      dup3\n      add\n      sload\n      dup2\n      mstore\n      0x20\n      add\n      0x06\n      dup3\n      add\n      sload\n      dup2\n      mstore\n      0x20\n      add\n      0x07\n      dup3\n      add\n      sload\n      dup2\n      mstore\n      pop\n      pop\n      swap1\n      pop\n        /* \"main.sol\":3603:3618  block.timestamp */\n      timestamp\n        /* \"main.sol\":3586:3590  loan */\n      dup2\n        /* \"main.sol\":3586:3600  loan.startTime */\n      0x80\n      add\n      mload\n        /* \"main.sol\":3586:3618  loan.startTime > block.timestamp */\n      gt\n        /* \"main.sol\":3578:3643  require(loan.startTime > block.timestamp, \"LAN: already started\") */\n      tag_81\n      jumpi\n      mload(0x40)\n      0x08c379a000000000000000000000000000000000000000000000000000000000\n      dup2\n      mstore\n      0x04\n      add\n      tag_82\n      swap1\n      tag_83\n      jump\t// in\n    tag_82:\n      mload(0x40)\n      dup1\n      swap2\n      sub\n      swap1\n      revert\n    tag_81:\n        /* \"main.sol\":3653:3664  delete loan */\n      tag_84\n      tag_85\n      jump\t// in\n    tag_84:\n      swap1\n      pop\n        /* \"main.sol\":3679:3701  loanCancelled(_poolId) */\n      0xfe785ef891129b084b1c5a30e4d88eb97c97822c024cc25d5f9d806b897512e0\n        /* \"main.sol\":3693:3700  _poolId */\n      dup4\n        /* \"main.sol\":3679:3701  loanCancelled(_poolId) */\n      mload(0x40)\n      tag_86\n      swap2\n      swap1\n      tag_18\n      jump\t// in\n    tag_86:\n      mload(0x40)\n      dup1\n      swap2\n      sub\n      swap1\n      log1\n        /* \"main.sol\":3525:3708  {... */\n      pop\n        /* \"main.sol\":3464:3708  function cancel(uint256 _poolId) external onlyOwner(_poolId) {... */\n      pop\n      pop\n      jump\t// out\n        /* \"main.sol\":4278:4711  function liquidate(uint256 _poolId) external {... */\n    tag_28:\n        /* \"main.sol\":4333:4349  Loan memory loan */\n      0x00\n        /* \"main.sol\":4352:4357  loans */\n      0x01\n        /* \"main.sol\":4352:4366  loans[_poolId] */\n      0x00\n        /* \"main.sol\":4358:4365  _poolId */\n      dup4\n        /* \"main.sol\":4352:4366  loans[_poolId] */\n      dup2\n      mstore\n      0x20\n      add\n      swap1\n      dup2\n      mstore\n      0x20\n      add\n      0x00\n      keccak256\n        /* \"main.sol\":4333:4366  Loan memory loan = loans[_poolId] */\n      mload(0x40)\n      dup1\n      0x0100\n      add\n      0x40\n      mstore\n      swap1\n      dup2\n      0x00\n      dup3\n      add\n      0x00\n      swap1\n      sload\n      swap1\n      0x0100\n      exp\n      swap1\n      div\n      0xffffffffffffffffffffffffffffffffffffffff\n      and\n      0xffffffffffffffffffffffffffffffffffffffff\n      and\n      0xffffffffffffffffffffffffffffffffffffffff\n      and\n      dup2\n      mstore\n      0x20\n      add\n      0x01\n      dup3\n      add\n      0x00\n      swap1\n      sload\n      swap1\n      0x0100\n      exp\n      swap1\n      div\n      0xffffffffffffffffffffffffffffffffffffffff\n      and\n      0xffffffffffffffffffffffffffffffffffffffff\n      and\n      0xffffffffffffffffffffffffffffffffffffffff\n      and\n      dup2\n      mstore\n      0x20\n      add\n      0x02\n      dup3\n      add\n      0x00\n      swap1\n      sload\n      swap1\n      0x0100\n      exp\n      swap1\n      div\n      0xffffffffffffffffffffffffffffffffffffffff\n      and\n      0xffffffffffffffffffffffffffffffffffffffff\n      and\n      0xffffffffffffffffffffffffffffffffffffffff\n      and\n      dup2\n      mstore\n      0x20\n      add\n      0x03\n      dup3\n      add\n      sload\n      dup2\n      mstore\n      0x20\n      add\n      0x04\n      dup3\n      add\n      sload\n      dup2\n      mstore\n      0x20\n      add\n      0x05\n      dup3\n      add\n      sload\n      dup2\n      mstore\n      0x20\n      add\n      0x06\n      dup3\n      add\n      sload\n      dup2\n      mstore\n      0x20\n      add\n      0x07\n      dup3\n      add\n      sload\n      dup2\n      mstore\n      pop\n      pop\n      swap1\n      pop\n        /* \"main.sol\":4384:4399  _ended(_poolId) */\n      tag_88\n        /* \"main.sol\":4391:4398  _poolId */\n      dup3\n        /* \"main.sol\":4384:4390  _ended */\n      tag_65\n        /* \"main.sol\":4384:4399  _ended(_poolId) */\n      jump\t// in\n    tag_88:\n        /* \"main.sol\":4376:4423  require(_ended(_poolId), \"LAN: loan not ended\") */\n      tag_89\n      jumpi\n      mload(0x40)\n      0x08c379a000000000000000000000000000000000000000000000000000000000\n      dup2\n      mstore\n      0x04\n      add\n      tag_90\n      swap1\n      tag_68\n      jump\t// in\n    tag_90:\n      mload(0x40)\n      dup1\n      swap2\n      sub\n      swap1\n      revert\n    tag_89:\n        /* \"main.sol\":4433:4453  Bid memory latestBid */\n      0x00\n        /* \"main.sol\":4456:4460  bids */\n      0x02\n        /* \"main.sol\":4456:4469  bids[_poolId] */\n      0x00\n        /* \"main.sol\":4461:4468  _poolId */\n      dup5\n        /* \"main.sol\":4456:4469  bids[_poolId] */\n      dup2\n      mstore\n      0x20\n      add\n      swap1\n      dup2\n      mstore\n      0x20\n      add\n      0x00\n      keccak256\n        /* \"main.sol\":4456:4483  bids[_poolId][loan.numBids] */\n      0x00\n        /* \"main.sol\":4470:4474  loan */\n      dup4\n        /* \"main.sol\":4470:4482  loan.numBids */\n      0xe0\n      add\n      mload\n        /* \"main.sol\":4456:4483  bids[_poolId][loan.numBids] */\n      dup2\n      mstore\n      0x20\n      add\n      swap1\n      dup2\n      mstore\n      0x20\n      add\n      0x00\n      keccak256\n        /* \"main.sol\":4433:4483  Bid memory latestBid = bids[_poolId][loan.numBids] */\n      mload(0x40)\n      dup1\n      0x60\n      add\n      0x40\n      mstore\n      swap1\n      dup2\n      0x00\n      dup3\n      add\n      sload\n      dup2\n      mstore\n      0x20\n      add\n      0x01\n      dup3\n      add\n      sload\n      dup2\n      mstore\n      0x20\n      add\n      0x02\n      dup3\n      add\n      0x00\n      swap1\n      sload\n      swap1\n      0x0100\n      exp\n      swap1\n      div\n      0xffffffffffffffffffffffffffffffffffffffff\n      and\n      0xffffffffffffffffffffffffffffffffffffffff\n      and\n      0xffffffffffffffffffffffffffffffffffffffff\n      and\n      dup2\n      mstore\n      pop\n      pop\n      swap1\n      pop\n        /* \"main.sol\":4519:4529  msg.sender */\n      caller\n        /* \"main.sol\":4501:4529  latestBid.user == msg.sender */\n      0xffffffffffffffffffffffffffffffffffffffff\n      and\n        /* \"main.sol\":4501:4510  latestBid */\n      dup2\n        /* \"main.sol\":4501:4515  latestBid.user */\n      0x40\n      add\n      mload\n        /* \"main.sol\":4501:4529  latestBid.user == msg.sender */\n      0xffffffffffffffffffffffffffffffffffffffff\n      and\n      eq\n        /* \"main.sol\":4493:4556  require(latestBid.user == msg.sender, \"LAN: not latest bidder\") */\n      tag_91\n      jumpi\n      mload(0x40)\n      0x08c379a000000000000000000000000000000000000000000000000000000000\n      dup2\n      mstore\n      0x04\n      add\n      tag_92\n      swap1\n      tag_71\n      jump\t// in\n    tag_92:\n      mload(0x40)\n      dup1\n      swap2\n      sub\n      swap1\n      revert\n    tag_91:\n        /* \"main.sol\":4590:4601  IERC721 NFT */\n      0x00\n        /* \"main.sol\":4612:4616  loan */\n      dup3\n        /* \"main.sol\":4612:4634  loan.collectionAddress */\n      0x40\n      add\n      mload\n        /* \"main.sol\":4590:4635  IERC721 NFT = IERC721(loan.collectionAddress) */\n      swap1\n      pop\n        /* \"main.sol\":4645:4648  NFT */\n      dup1\n        /* \"main.sol\":4645:4665  NFT.safeTransferFrom */\n      0xffffffffffffffffffffffffffffffffffffffff\n      and\n      0x42842e0e\n        /* \"main.sol\":4674:4678  this */\n      address\n        /* \"main.sol\":4681:4691  msg.sender */\n      caller\n        /* \"main.sol\":4693:4697  loan */\n      dup7\n        /* \"main.sol\":4693:4703  loan.nftId */\n      0x60\n      add\n      mload\n        /* \"main.sol\":4645:4704  NFT.safeTransferFrom(address(this), msg.sender, loan.nftId) */\n      mload(0x40)\n      dup5\n      0xffffffff\n      and\n      0xe0\n      shl\n      dup2\n      mstore\n      0x04\n      add\n      tag_93\n      swap4\n      swap3\n      swap2\n      swap1\n      tag_73\n      jump\t// in\n    tag_93:\n      0x00\n      mload(0x40)\n      dup1\n      dup4\n      sub\n      dup2\n      0x00\n      dup8\n      dup1\n      extcodesize\n      iszero\n      dup1\n      iszero\n      tag_94\n      jumpi\n      0x00\n      dup1\n      revert\n    tag_94:\n      pop\n      gas\n      call\n      iszero\n      dup1\n      iszero\n      tag_96\n      jumpi\n      returndatasize\n      0x00\n      dup1\n      returndatacopy\n      revert(0x00, returndatasize)\n    tag_96:\n      pop\n      pop\n      pop\n      pop\n        /* \"main.sol\":4323:4711  {... */\n      pop\n      pop\n      pop\n        /* \"main.sol\":4278:4711  function liquidate(uint256 _poolId) external {... */\n      pop\n      jump\t// out\n        /* \"main.sol\":1970:2866  function bid(uint256 _poolId, uint256 _amount) external {... */\n    tag_32:\n        /* \"main.sol\":2044:2061  _started(_poolId) */\n      tag_98\n        /* \"main.sol\":2053:2060  _poolId */\n      dup3\n        /* \"main.sol\":2044:2052  _started */\n      tag_99\n        /* \"main.sol\":2044:2061  _started(_poolId) */\n      jump\t// in\n    tag_98:\n        /* \"main.sol\":2036:2082  require(_started(_poolId), \"LAN: not started\") */\n      tag_100\n      jumpi\n      mload(0x40)\n      0x08c379a000000000000000000000000000000000000000000000000000000000\n      dup2\n      mstore\n      0x04\n      add\n      tag_101\n      swap1\n      tag_102\n      jump\t// in\n    tag_101:\n      mload(0x40)\n      dup1\n      swap2\n      sub\n      swap1\n      revert\n    tag_100:\n        /* \"main.sol\":2101:2116  _ended(_poolId) */\n      tag_103\n        /* \"main.sol\":2108:2115  _poolId */\n      dup3\n        /* \"main.sol\":2101:2107  _ended */\n      tag_65\n        /* \"main.sol\":2101:2116  _ended(_poolId) */\n      jump\t// in\n    tag_103:\n        /* \"main.sol\":2100:2116  !_ended(_poolId) */\n      iszero\n        /* \"main.sol\":2092:2139  require(!_ended(_poolId), \"LAN: already ended\") */\n      tag_104\n      jumpi\n      mload(0x40)\n      0x08c379a000000000000000000000000000000000000000000000000000000000\n      dup2\n      mstore\n      0x04\n      add\n      tag_105\n      swap1\n      tag_106\n      jump\t// in\n    tag_105:\n      mload(0x40)\n      dup1\n      swap2\n      sub\n      swap1\n      revert\n    tag_104:\n        /* \"main.sol\":2149:2165  Loan memory loan */\n      0x00\n        /* \"main.sol\":2168:2173  loans */\n      0x01\n        /* \"main.sol\":2168:2182  loans[_poolId] */\n      0x00\n        /* \"main.sol\":2174:2181  _poolId */\n      dup5\n        /* \"main.sol\":2168:2182  loans[_poolId] */\n      dup2\n      mstore\n      0x20\n      add\n      swap1\n      dup2\n      mstore\n      0x20\n      add\n      0x00\n      keccak256\n        /* \"main.sol\":2149:2182  Loan memory loan = loans[_poolId] */\n      mload(0x40)\n      dup1\n      0x0100\n      add\n      0x40\n      mstore\n      swap1\n      dup2\n      0x00\n      dup3\n      add\n      0x00\n      swap1\n      sload\n      swap1\n      0x0100\n      exp\n      swap1\n      div\n      0xffffffffffffffffffffffffffffffffffffffff\n      and\n      0xffffffffffffffffffffffffffffffffffffffff\n      and\n      0xffffffffffffffffffffffffffffffffffffffff\n      and\n      dup2\n      mstore\n      0x20\n      add\n      0x01\n      dup3\n      add\n      0x00\n      swap1\n      sload\n      swap1\n      0x0100\n      exp\n      swap1\n      div\n      0xffffffffffffffffffffffffffffffffffffffff\n      and\n      0xffffffffffffffffffffffffffffffffffffffff\n      and\n      0xffffffffffffffffffffffffffffffffffffffff\n      and\n      dup2\n      mstore\n      0x20\n      add\n      0x02\n      dup3\n      add\n      0x00\n      swap1\n      sload\n      swap1\n      0x0100\n      exp\n      swap1\n      div\n      0xffffffffffffffffffffffffffffffffffffffff\n      and\n      0xffffffffffffffffffffffffffffffffffffffff\n      and\n      0xffffffffffffffffffffffffffffffffffffffff\n      and\n      dup2\n      mstore\n      0x20\n      add\n      0x03\n      dup3\n      add\n      sload\n      dup2\n      mstore\n      0x20\n      add\n      0x04\n      dup3\n      add\n      sload\n      dup2\n      mstore\n      0x20\n      add\n      0x05\n      dup3\n      add\n      sload\n      dup2\n      mstore\n      0x20\n      add\n      0x06\n      dup3\n      add\n      sload\n      dup2\n      mstore\n      0x20\n      add\n      0x07\n      dup3\n      add\n      sload\n      dup2\n      mstore\n      pop\n      pop\n      swap1\n      pop\n        /* \"main.sol\":2224:2239  uint256 numBids */\n      0x00\n        /* \"main.sol\":2257:2258  1 */\n      0x01\n        /* \"main.sol\":2242:2246  loan */\n      dup3\n        /* \"main.sol\":2242:2254  loan.numBids */\n      0xe0\n      add\n      mload\n        /* \"main.sol\":2242:2258  loan.numBids + 1 */\n      tag_107\n      swap2\n      swap1\n      tag_108\n      jump\t// in\n    tag_107:\n        /* \"main.sol\":2224:2258  uint256 numBids = loan.numBids + 1 */\n      swap1\n      pop\n        /* \"main.sol\":2284:2291  numBids */\n      dup1\n        /* \"main.sol\":2269:2273  loan */\n      dup3\n        /* \"main.sol\":2269:2281  loan.numBids */\n      0xe0\n      add\n        /* \"main.sol\":2269:2291  loan.numBids = numBids */\n      dup2\n      dup2\n      mstore\n      pop\n      pop\n        /* \"main.sol\":2301:2318  uint256 loanValue */\n      0x00\n        /* \"main.sol\":2321:2349  _calculateLoanValue(_poolId) */\n      tag_109\n        /* \"main.sol\":2341:2348  _poolId */\n      dup6\n        /* \"main.sol\":2321:2340  _calculateLoanValue */\n      tag_110\n        /* \"main.sol\":2321:2349  _calculateLoanValue(_poolId) */\n      jump\t// in\n    tag_109:\n        /* \"main.sol\":2301:2349  uint256 loanValue = _calculateLoanValue(_poolId) */\n      swap1\n      pop\n        /* \"main.sol\":2377:2386  loanValue */\n      dup1\n        /* \"main.sol\":2367:2374  _amount */\n      dup5\n        /* \"main.sol\":2367:2386  _amount > loanValue */\n      gt\n        /* \"main.sol\":2359:2410  require(_amount > loanValue, \"LAN: bid not higher\") */\n      tag_111\n      jumpi\n      mload(0x40)\n      0x08c379a000000000000000000000000000000000000000000000000000000000\n      dup2\n      mstore\n      0x04\n      add\n      tag_112\n      swap1\n      tag_113\n      jump\t// in\n    tag_112:\n      mload(0x40)\n      dup1\n      swap2\n      sub\n      swap1\n      revert\n    tag_111:\n        /* \"main.sol\":2469:2473  loan */\n      dup3\n        /* \"main.sol\":2469:2479  loan.token */\n      0x20\n      add\n      mload\n        /* \"main.sol\":2462:2493  IERC20(loan.token).transferFrom */\n      0xffffffffffffffffffffffffffffffffffffffff\n      and\n      0x23b872dd\n        /* \"main.sol\":2494:2504  msg.sender */\n      caller\n        /* \"main.sol\":2506:2510  bids */\n      0x02\n        /* \"main.sol\":2506:2519  bids[_poolId] */\n      0x00\n        /* \"main.sol\":2511:2518  _poolId */\n      dup10\n        /* \"main.sol\":2506:2519  bids[_poolId] */\n      dup2\n      mstore\n      0x20\n      add\n      swap1\n      dup2\n      mstore\n      0x20\n      add\n      0x00\n      keccak256\n        /* \"main.sol\":2506:2528  bids[_poolId][numBids] */\n      0x00\n        /* \"main.sol\":2520:2527  numBids */\n      dup7\n        /* \"main.sol\":2506:2528  bids[_poolId][numBids] */\n      dup2\n      mstore\n      0x20\n      add\n      swap1\n      dup2\n      mstore\n      0x20\n      add\n      0x00\n      keccak256\n        /* \"main.sol\":2506:2533  bids[_poolId][numBids].user */\n      0x02\n      add\n      0x00\n      swap1\n      sload\n      swap1\n      0x0100\n      exp\n      swap1\n      div\n      0xffffffffffffffffffffffffffffffffffffffff\n      and\n        /* \"main.sol\":2535:2544  loanValue */\n      dup5\n        /* \"main.sol\":2462:2545  IERC20(loan.token).transferFrom(msg.sender, bids[_poolId][numBids].user, loanValue) */\n      mload(0x40)\n      dup5\n      0xffffffff\n      and\n      0xe0\n      shl\n      dup2\n      mstore\n      0x04\n      add\n      tag_114\n      swap4\n      swap3\n      swap2\n      swap1\n      tag_73\n      jump\t// in\n    tag_114:\n      0x20\n      mload(0x40)\n      dup1\n      dup4\n      sub\n      dup2\n      0x00\n      dup8\n      gas\n      call\n      iszero\n      dup1\n      iszero\n      tag_116\n      jumpi\n      returndatasize\n      0x00\n      dup1\n      returndatacopy\n      revert(0x00, returndatasize)\n    tag_116:\n      pop\n      pop\n      pop\n      pop\n      mload(0x40)\n      returndatasize\n      not(0x1f)\n      0x1f\n      dup3\n      add\n      and\n      dup3\n      add\n      dup1\n      0x40\n      mstore\n      pop\n      dup2\n      add\n      swap1\n      tag_117\n      swap2\n      swap1\n      tag_118\n      jump\t// in\n    tag_117:\n      pop\n        /* \"main.sol\":2594:2598  loan */\n      dup3\n        /* \"main.sol\":2594:2604  loan.token */\n      0x20\n      add\n      mload\n        /* \"main.sol\":2587:2618  IERC20(loan.token).transferFrom */\n      0xffffffffffffffffffffffffffffffffffffffff\n      and\n      0x23b872dd\n        /* \"main.sol\":2619:2629  msg.sender */\n      caller\n        /* \"main.sol\":2631:2635  loan */\n      dup6\n        /* \"main.sol\":2631:2641  loan.owner */\n      0x00\n      add\n      mload\n        /* \"main.sol\":2653:2662  loanValue */\n      dup5\n        /* \"main.sol\":2643:2650  _amount */\n      dup9\n        /* \"main.sol\":2643:2662  _amount - loanValue */\n      tag_119\n      swap2\n      swap1\n      tag_120\n      jump\t// in\n    tag_119:\n        /* \"main.sol\":2587:2663  IERC20(loan.token).transferFrom(msg.sender, loan.owner, _amount - loanValue) */\n      mload(0x40)\n      dup5\n      0xffffffff\n      and\n      0xe0\n      shl\n      dup2\n      mstore\n      0x04\n      add\n      tag_121\n      swap4\n      swap3\n      swap2\n      swap1\n      tag_73\n      jump\t// in\n    tag_121:\n      0x20\n      mload(0x40)\n      dup1\n      dup4\n      sub\n      dup2\n      0x00\n      dup8\n      gas\n      call\n      iszero\n      dup1\n      iszero\n      tag_123\n      jumpi\n      returndatasize\n      0x00\n      dup1\n      returndatacopy\n      revert(0x00, returndatasize)\n    tag_123:\n      pop\n      pop\n      pop\n      pop\n      mload(0x40)\n      returndatasize\n      not(0x1f)\n      0x1f\n      dup3\n      add\n      and\n      dup3\n      add\n      dup1\n      0x40\n      mstore\n      pop\n      dup2\n      add\n      swap1\n      tag_124\n      swap2\n      swap1\n      tag_118\n      jump\t// in\n    tag_124:\n      pop\n        /* \"main.sol\":2721:2859  Bid({... */\n      mload(0x40)\n      dup1\n      0x60\n      add\n      0x40\n      mstore\n      dup1\n        /* \"main.sol\":2748:2763  block.timestamp */\n      timestamp\n        /* \"main.sol\":2721:2859  Bid({... */\n      dup2\n      mstore\n      0x20\n      add\n        /* \"main.sol\":2788:2795  _amount */\n      dup6\n        /* \"main.sol\":2721:2859  Bid({... */\n      dup2\n      mstore\n      0x20\n      add\n        /* \"main.sol\":2815:2825  msg.sender */\n      caller\n        /* \"main.sol\":2721:2859  Bid({... */\n      0xffffffffffffffffffffffffffffffffffffffff\n      and\n      dup2\n      mstore\n      pop\n        /* \"main.sol\":2696:2700  bids */\n      0x02\n        /* \"main.sol\":2696:2709  bids[_poolId] */\n      0x00\n        /* \"main.sol\":2701:2708  _poolId */\n      dup8\n        /* \"main.sol\":2696:2709  bids[_poolId] */\n      dup2\n      mstore\n      0x20\n      add\n      swap1\n      dup2\n      mstore\n      0x20\n      add\n      0x00\n      keccak256\n        /* \"main.sol\":2696:2718  bids[_poolId][numBids] */\n      0x00\n        /* \"main.sol\":2710:2717  numBids */\n      dup5\n        /* \"main.sol\":2696:2718  bids[_poolId][numBids] */\n      dup2\n      mstore\n      0x20\n      add\n      swap1\n      dup2\n      mstore\n      0x20\n      add\n      0x00\n      keccak256\n        /* \"main.sol\":2696:2859  bids[_poolId][numBids] = Bid({... */\n      0x00\n      dup3\n      add\n      mload\n      dup2\n      0x00\n      add\n      sstore\n      0x20\n      dup3\n      add\n      mload\n      dup2\n      0x01\n      add\n      sstore\n      0x40\n      dup3\n      add\n      mload\n      dup2\n      0x02\n      add\n      exp(0x0100, 0x00)\n      dup2\n      sload\n      dup2\n      0xffffffffffffffffffffffffffffffffffffffff\n      mul\n      not\n      and\n      swap1\n      dup4\n      0xffffffffffffffffffffffffffffffffffffffff\n      and\n      mul\n      or\n      swap1\n      sstore\n      pop\n      swap1\n      pop\n      pop\n        /* \"main.sol\":2026:2866  {... */\n      pop\n      pop\n      pop\n        /* \"main.sol\":1970:2866  function bid(uint256 _poolId, uint256 _amount) external {... */\n      pop\n      pop\n      jump\t// out\n        /* \"main.sol\":3747:4224  function endLoan(uint256 _poolId) external onlyOwner(_poolId) {... */\n    tag_35:\n        /* \"main.sol\":3800:3807  _poolId */\n      dup1\n        /* \"main.sol\":1216:1226  msg.sender */\n      caller\n        /* \"main.sol\":1192:1226  loans[_poolId].owner == msg.sender */\n      0xffffffffffffffffffffffffffffffffffffffff\n      and\n        /* \"main.sol\":1192:1197  loans */\n      0x01\n        /* \"main.sol\":1192:1206  loans[_poolId] */\n      0x00\n        /* \"main.sol\":1198:1205  _poolId */\n      dup4\n        /* \"main.sol\":1192:1206  loans[_poolId] */\n      dup2\n      mstore\n      0x20\n      add\n      swap1\n      dup2\n      mstore\n      0x20\n      add\n      0x00\n      keccak256\n        /* \"main.sol\":1192:1212  loans[_poolId].owner */\n      0x00\n      add\n      0x00\n      swap1\n      sload\n      swap1\n      0x0100\n      exp\n      swap1\n      div\n      0xffffffffffffffffffffffffffffffffffffffff\n      and\n        /* \"main.sol\":1192:1226  loans[_poolId].owner == msg.sender */\n      0xffffffffffffffffffffffffffffffffffffffff\n      and\n      eq\n        /* \"main.sol\":1184:1245  require(loans[_poolId].owner == msg.sender, \"LAN: not owner\") */\n      tag_126\n      jumpi\n      mload(0x40)\n      0x08c379a000000000000000000000000000000000000000000000000000000000\n      dup2\n      mstore\n      0x04\n      add\n      tag_127\n      swap1\n      tag_62\n      jump\t// in\n    tag_127:\n      mload(0x40)\n      dup1\n      swap2\n      sub\n      swap1\n      revert\n    tag_126:\n        /* \"main.sol\":3819:3835  Loan memory loan */\n      0x00\n        /* \"main.sol\":3838:3843  loans */\n      0x01\n        /* \"main.sol\":3838:3852  loans[_poolId] */\n      0x00\n        /* \"main.sol\":3844:3851  _poolId */\n      dup5\n        /* \"main.sol\":3838:3852  loans[_poolId] */\n      dup2\n      mstore\n      0x20\n      add\n      swap1\n      dup2\n      mstore\n      0x20\n      add\n      0x00\n      keccak256\n        /* \"main.sol\":3819:3852  Loan memory loan = loans[_poolId] */\n      mload(0x40)\n      dup1\n      0x0100\n      add\n      0x40\n      mstore\n      swap1\n      dup2\n      0x00\n      dup3\n      add\n      0x00\n      swap1\n      sload\n      swap1\n      0x0100\n      exp\n      swap1\n      div\n      0xffffffffffffffffffffffffffffffffffffffff\n      and\n      0xffffffffffffffffffffffffffffffffffffffff\n      and\n      0xffffffffffffffffffffffffffffffffffffffff\n      and\n      dup2\n      mstore\n      0x20\n      add\n      0x01\n      dup3\n      add\n      0x00\n      swap1\n      sload\n      swap1\n      0x0100\n      exp\n      swap1\n      div\n      0xffffffffffffffffffffffffffffffffffffffff\n      and\n      0xffffffffffffffffffffffffffffffffffffffff\n      and\n      0xffffffffffffffffffffffffffffffffffffffff\n      and\n      dup2\n      mstore\n      0x20\n      add\n      0x02\n      dup3\n      add\n      0x00\n      swap1\n      sload\n      swap1\n      0x0100\n      exp\n      swap1\n      div\n      0xffffffffffffffffffffffffffffffffffffffff\n      and\n      0xffffffffffffffffffffffffffffffffffffffff\n      and\n      0xffffffffffffffffffffffffffffffffffffffff\n      and\n      dup2\n      mstore\n      0x20\n      add\n      0x03\n      dup3\n      add\n      sload\n      dup2\n      mstore\n      0x20\n      add\n      0x04\n      dup3\n      add\n      sload\n      dup2\n      mstore\n      0x20\n      add\n      0x05\n      dup3\n      add\n      sload\n      dup2\n      mstore\n      0x20\n      add\n      0x06\n      dup3\n      add\n      sload\n      dup2\n      mstore\n      0x20\n      add\n      0x07\n      dup3\n      add\n      sload\n      dup2\n      mstore\n      pop\n      pop\n      swap1\n      pop\n        /* \"main.sol\":3862:3882  Bid memory latestBid */\n      0x00\n        /* \"main.sol\":3885:3889  bids */\n      0x02\n        /* \"main.sol\":3885:3898  bids[_poolId] */\n      0x00\n        /* \"main.sol\":3890:3897  _poolId */\n      dup6\n        /* \"main.sol\":3885:3898  bids[_poolId] */\n      dup2\n      mstore\n      0x20\n      add\n      swap1\n      dup2\n      mstore\n      0x20\n      add\n      0x00\n      keccak256\n        /* \"main.sol\":3885:3912  bids[_poolId][loan.numBids] */\n      0x00\n        /* \"main.sol\":3899:3903  loan */\n      dup4\n        /* \"main.sol\":3899:3911  loan.numBids */\n      0xe0\n      add\n      mload\n        /* \"main.sol\":3885:3912  bids[_poolId][loan.numBids] */\n      dup2\n      mstore\n      0x20\n      add\n      swap1\n      dup2\n      mstore\n      0x20\n      add\n      0x00\n      keccak256\n        /* \"main.sol\":3862:3912  Bid memory latestBid = bids[_poolId][loan.numBids] */\n      mload(0x40)\n      dup1\n      0x60\n      add\n      0x40\n      mstore\n      swap1\n      dup2\n      0x00\n      dup3\n      add\n      sload\n      dup2\n      mstore\n      0x20\n      add\n      0x01\n      dup3\n      add\n      sload\n      dup2\n      mstore\n      0x20\n      add\n      0x02\n      dup3\n      add\n      0x00\n      swap1\n      sload\n      swap1\n      0x0100\n      exp\n      swap1\n      div\n      0xffffffffffffffffffffffffffffffffffffffff\n      and\n      0xffffffffffffffffffffffffffffffffffffffff\n      and\n      0xffffffffffffffffffffffffffffffffffffffff\n      and\n      dup2\n      mstore\n      pop\n      pop\n      swap1\n      pop\n        /* \"main.sol\":3973:3977  loan */\n      dup2\n        /* \"main.sol\":3973:3983  loan.token */\n      0x20\n      add\n      mload\n        /* \"main.sol\":3966:3997  IERC20(loan.token).transferFrom */\n      0xffffffffffffffffffffffffffffffffffffffff\n      and\n      0x23b872dd\n        /* \"main.sol\":3998:4008  msg.sender */\n      caller\n        /* \"main.sol\":4010:4019  latestBid */\n      dup4\n        /* \"main.sol\":4010:4024  latestBid.user */\n      0x40\n      add\n      mload\n        /* \"main.sol\":4026:4054  _calculateLoanValue(_poolId) */\n      tag_129\n        /* \"main.sol\":4046:4053  _poolId */\n      dup9\n        /* \"main.sol\":4026:4045  _calculateLoanValue */\n      tag_110\n        /* \"main.sol\":4026:4054  _calculateLoanValue(_poolId) */\n      jump\t// in\n    tag_129:\n        /* \"main.sol\":3966:4055  IERC20(loan.token).transferFrom(msg.sender, latestBid.user, _calculateLoanValue(_poolId)) */\n      mload(0x40)\n      dup5\n      0xffffffff\n      and\n      0xe0\n      shl\n      dup2\n      mstore\n      0x04\n      add\n      tag_130\n      swap4\n      swap3\n      swap2\n      swap1\n      tag_73\n      jump\t// in\n    tag_130:\n      0x20\n      mload(0x40)\n      dup1\n      dup4\n      sub\n      dup2\n      0x00\n      dup8\n      gas\n      call\n      iszero\n      dup1\n      iszero\n      tag_132\n      jumpi\n      returndatasize\n      0x00\n      dup1\n      returndatacopy\n      revert(0x00, returndatasize)\n    tag_132:\n      pop\n      pop\n      pop\n      pop\n      mload(0x40)\n      returndatasize\n      not(0x1f)\n      0x1f\n      dup3\n      add\n      and\n      dup3\n      add\n      dup1\n      0x40\n      mstore\n      pop\n      dup2\n      add\n      swap1\n      tag_133\n      swap2\n      swap1\n      tag_118\n      jump\t// in\n    tag_133:\n      pop\n        /* \"main.sol\":4103:4114  IERC721 NFT */\n      0x00\n        /* \"main.sol\":4125:4129  loan */\n      dup3\n        /* \"main.sol\":4125:4147  loan.collectionAddress */\n      0x40\n      add\n      mload\n        /* \"main.sol\":4103:4148  IERC721 NFT = IERC721(loan.collectionAddress) */\n      swap1\n      pop\n        /* \"main.sol\":4158:4161  NFT */\n      dup1\n        /* \"main.sol\":4158:4178  NFT.safeTransferFrom */\n      0xffffffffffffffffffffffffffffffffffffffff\n      and\n      0x42842e0e\n        /* \"main.sol\":4187:4191  this */\n      address\n        /* \"main.sol\":4194:4204  msg.sender */\n      caller\n        /* \"main.sol\":4206:4210  loan */\n      dup7\n        /* \"main.sol\":4206:4216  loan.nftId */\n      0x60\n      add\n      mload\n        /* \"main.sol\":4158:4217  NFT.safeTransferFrom(address(this), msg.sender, loan.nftId) */\n      mload(0x40)\n      dup5\n      0xffffffff\n      and\n      0xe0\n      shl\n      dup2\n      mstore\n      0x04\n      add\n      tag_134\n      swap4\n      swap3\n      swap2\n      swap1\n      tag_73\n      jump\t// in\n    tag_134:\n      0x00\n      mload(0x40)\n      dup1\n      dup4\n      sub\n      dup2\n      0x00\n      dup8\n      dup1\n      extcodesize\n      iszero\n      dup1\n      iszero\n      tag_135\n      jumpi\n      0x00\n      dup1\n      revert\n    tag_135:\n      pop\n      gas\n      call\n      iszero\n      dup1\n      iszero\n      tag_137\n      jumpi\n      returndatasize\n      0x00\n      dup1\n      returndatacopy\n      revert(0x00, returndatasize)\n    tag_137:\n      pop\n      pop\n      pop\n      pop\n        /* \"main.sol\":3809:4224  {... */\n      pop\n      pop\n      pop\n        /* \"main.sol\":3747:4224  function endLoan(uint256 _poolId) external onlyOwner(_poolId) {... */\n      pop\n      pop\n      jump\t// out\n        /* \"main.sol\":872:927  mapping(uint256 => mapping(uint256 => Bid)) public bids */\n    tag_38:\n      mstore(0x20, 0x02)\n      dup2\n      0x00\n      mstore\n      mstore(0x20, keccak256(0x00, 0x40))\n      dup1\n      0x00\n      mstore\n      keccak256(0x00, 0x40)\n      0x00\n      swap2\n      pop\n      swap2\n      pop\n      pop\n      dup1\n      0x00\n      add\n      sload\n      swap1\n      dup1\n      0x01\n      add\n      sload\n      swap1\n      dup1\n      0x02\n      add\n      0x00\n      swap1\n      sload\n      swap1\n      0x0100\n      exp\n      swap1\n      div\n      0xffffffffffffffffffffffffffffffffffffffff\n      and\n      swap1\n      pop\n      dup4\n      jump\t// out\n        /* \"main.sol\":3007:3417  function setNewBidOwner(uint256 _poolId, address _newAddress) external{... */\n    tag_44:\n        /* \"main.sol\":3095:3112  _started(_poolId) */\n      tag_139\n        /* \"main.sol\":3104:3111  _poolId */\n      dup3\n        /* \"main.sol\":3095:3103  _started */\n      tag_99\n        /* \"main.sol\":3095:3112  _started(_poolId) */\n      jump\t// in\n    tag_139:\n        /* \"main.sol\":3087:3133  require(_started(_poolId), \"LAN: not started\") */\n      tag_140\n      jumpi\n      mload(0x40)\n      0x08c379a000000000000000000000000000000000000000000000000000000000\n      dup2\n      mstore\n      0x04\n      add\n      tag_141\n      swap1\n      tag_102\n      jump\t// in\n    tag_141:\n      mload(0x40)\n      dup1\n      swap2\n      sub\n      swap1\n      revert\n    tag_140:\n        /* \"main.sol\":3152:3167  _ended(_poolId) */\n      tag_142\n        /* \"main.sol\":3159:3166  _poolId */\n      dup3\n        /* \"main.sol\":3152:3158  _ended */\n      tag_65\n        /* \"main.sol\":3152:3167  _ended(_poolId) */\n      jump\t// in\n    tag_142:\n        /* \"main.sol\":3151:3167  !_ended(_poolId) */\n      iszero\n        /* \"main.sol\":3143:3190  require(!_ended(_poolId), \"LAN: already ended\") */\n      tag_143\n      jumpi\n      mload(0x40)\n      0x08c379a000000000000000000000000000000000000000000000000000000000\n      dup2\n      mstore\n      0x04\n      add\n      tag_144\n      swap1\n      tag_106\n      jump\t// in\n    tag_144:\n      mload(0x40)\n      dup1\n      swap2\n      sub\n      swap1\n      revert\n    tag_143:\n        /* \"main.sol\":3201:3217  Loan memory loan */\n      0x00\n        /* \"main.sol\":3220:3225  loans */\n      0x01\n        /* \"main.sol\":3220:3234  loans[_poolId] */\n      0x00\n        /* \"main.sol\":3226:3233  _poolId */\n      dup5\n        /* \"main.sol\":3220:3234  loans[_poolId] */\n      dup2\n      mstore\n      0x20\n      add\n      swap1\n      dup2\n      mstore\n      0x20\n      add\n      0x00\n      keccak256\n        /* \"main.sol\":3201:3234  Loan memory loan = loans[_poolId] */\n      mload(0x40)\n      dup1\n      0x0100\n      add\n      0x40\n      mstore\n      swap1\n      dup2\n      0x00\n      dup3\n      add\n      0x00\n      swap1\n      sload\n      swap1\n      0x0100\n      exp\n      swap1\n      div\n      0xffffffffffffffffffffffffffffffffffffffff\n      and\n      0xffffffffffffffffffffffffffffffffffffffff\n      and\n      0xffffffffffffffffffffffffffffffffffffffff\n      and\n      dup2\n      mstore\n      0x20\n      add\n      0x01\n      dup3\n      add\n      0x00\n      swap1\n      sload\n      swap1\n      0x0100\n      exp\n      swap1\n      div\n      0xffffffffffffffffffffffffffffffffffffffff\n      and\n      0xffffffffffffffffffffffffffffffffffffffff\n      and\n      0xffffffffffffffffffffffffffffffffffffffff\n      and\n      dup2\n      mstore\n      0x20\n      add\n      0x02\n      dup3\n      add\n      0x00\n      swap1\n      sload\n      swap1\n      0x0100\n      exp\n      swap1\n      div\n      0xffffffffffffffffffffffffffffffffffffffff\n      and\n      0xffffffffffffffffffffffffffffffffffffffff\n      and\n      0xffffffffffffffffffffffffffffffffffffffff\n      and\n      dup2\n      mstore\n      0x20\n      add\n      0x03\n      dup3\n      add\n      sload\n      dup2\n      mstore\n      0x20\n      add\n      0x04\n      dup3\n      add\n      sload\n      dup2\n      mstore\n      0x20\n      add\n      0x05\n      dup3\n      add\n      sload\n      dup2\n      mstore\n      0x20\n      add\n      0x06\n      dup3\n      add\n      sload\n      dup2\n      mstore\n      0x20\n      add\n      0x07\n      dup3\n      add\n      sload\n      dup2\n      mstore\n      pop\n      pop\n      swap1\n      pop\n        /* \"main.sol\":3244:3265  Bid storage latestBid */\n      0x00\n        /* \"main.sol\":3268:3272  bids */\n      0x02\n        /* \"main.sol\":3268:3281  bids[_poolId] */\n      0x00\n        /* \"main.sol\":3273:3280  _poolId */\n      dup6\n        /* \"main.sol\":3268:3281  bids[_poolId] */\n      dup2\n      mstore\n      0x20\n      add\n      swap1\n      dup2\n      mstore\n      0x20\n      add\n      0x00\n      keccak256\n        /* \"main.sol\":3268:3295  bids[_poolId][loan.numBids] */\n      0x00\n        /* \"main.sol\":3282:3286  loan */\n      dup4\n        /* \"main.sol\":3282:3294  loan.numBids */\n      0xe0\n      add\n      mload\n        /* \"main.sol\":3268:3295  bids[_poolId][loan.numBids] */\n      dup2\n      mstore\n      0x20\n      add\n      swap1\n      dup2\n      mstore\n      0x20\n      add\n      0x00\n      keccak256\n        /* \"main.sol\":3244:3295  Bid storage latestBid = bids[_poolId][loan.numBids] */\n      swap1\n      pop\n        /* \"main.sol\":3331:3341  msg.sender */\n      caller\n        /* \"main.sol\":3313:3341  latestBid.user == msg.sender */\n      0xffffffffffffffffffffffffffffffffffffffff\n      and\n        /* \"main.sol\":3313:3322  latestBid */\n      dup2\n        /* \"main.sol\":3313:3327  latestBid.user */\n      0x02\n      add\n      0x00\n      swap1\n      sload\n      swap1\n      0x0100\n      exp\n      swap1\n      div\n      0xffffffffffffffffffffffffffffffffffffffff\n      and\n        /* \"main.sol\":3313:3341  latestBid.user == msg.sender */\n      0xffffffffffffffffffffffffffffffffffffffff\n      and\n      eq\n        /* \"main.sol\":3305:3372  require(latestBid.user == msg.sender, \"LAN: Not the latest bidder\") */\n      tag_145\n      jumpi\n      mload(0x40)\n      0x08c379a000000000000000000000000000000000000000000000000000000000\n      dup2\n      mstore\n      0x04\n      add\n      tag_146\n      swap1\n      tag_147\n      jump\t// in\n    tag_146:\n      mload(0x40)\n      dup1\n      swap2\n      sub\n      swap1\n      revert\n    tag_145:\n        /* \"main.sol\":3399:3410  _newAddress */\n      dup3\n        /* \"main.sol\":3382:3391  latestBid */\n      dup2\n        /* \"main.sol\":3382:3396  latestBid.user */\n      0x02\n      add\n      0x00\n        /* \"main.sol\":3382:3410  latestBid.user = _newAddress */\n      0x0100\n      exp\n      dup2\n      sload\n      dup2\n      0xffffffffffffffffffffffffffffffffffffffff\n      mul\n      not\n      and\n      swap1\n      dup4\n      0xffffffffffffffffffffffffffffffffffffffff\n      and\n      mul\n      or\n      swap1\n      sstore\n      pop\n        /* \"main.sol\":3077:3417  {... */\n      pop\n      pop\n        /* \"main.sol\":3007:3417  function setNewBidOwner(uint256 _poolId, address _newAddress) external{... */\n      pop\n      pop\n      jump\t// out\n        /* \"main.sol\":1009:1066  mapping(uint256 => address[]) public whitelistedAddresses */\n    tag_47:\n      mstore(0x20, 0x03)\n      dup2\n      0x00\n      mstore\n      keccak256(0x00, 0x40)\n      dup2\n      dup2\n      sload\n      dup2\n      lt\n      tag_148\n      jumpi\n      0x00\n      dup1\n      revert\n    tag_148:\n      swap1\n      0x00\n      mstore\n      keccak256(0x00, 0x20)\n      add\n      0x00\n      swap2\n      pop\n      swap2\n      pop\n      swap1\n      sload\n      swap1\n      0x0100\n      exp\n      swap1\n      div\n      0xffffffffffffffffffffffffffffffffffffffff\n      and\n      dup2\n      jump\t// out\n        /* \"main.sol\":711:748  mapping(uint256 => Loan) public loans */\n    tag_52:\n      mstore(0x20, 0x01)\n      dup1\n      0x00\n      mstore\n      keccak256(0x00, 0x40)\n      0x00\n      swap2\n      pop\n      swap1\n      pop\n      dup1\n      0x00\n      add\n      0x00\n      swap1\n      sload\n      swap1\n      0x0100\n      exp\n      swap1\n      div\n      0xffffffffffffffffffffffffffffffffffffffff\n      and\n      swap1\n      dup1\n      0x01\n      add\n      0x00\n      swap1\n      sload\n      swap1\n      0x0100\n      exp\n      swap1\n      div\n      0xffffffffffffffffffffffffffffffffffffffff\n      and\n      swap1\n      dup1\n      0x02\n      add\n      0x00\n      swap1\n      sload\n      swap1\n      0x0100\n      exp\n      swap1\n      div\n      0xffffffffffffffffffffffffffffffffffffffff\n      and\n      swap1\n      dup1\n      0x03\n      add\n      sload\n      swap1\n      dup1\n      0x04\n      add\n      sload\n      swap1\n      dup1\n      0x05\n      add\n      sload\n      swap1\n      dup1\n      0x06\n      add\n      sload\n      swap1\n      dup1\n      0x07\n      add\n      sload\n      swap1\n      pop\n      dup9\n      jump\t// out\n        /* \"main.sol\":1269:1964  function launch(address _token, address _collectionAddress, uint256 _nftId, uint256 _startTime, uint256 _endTime, uint256 _apr) public {... */\n    tag_58:\n        /* \"main.sol\":1436:1451  block.timestamp */\n      timestamp\n        /* \"main.sol\":1422:1432  _startTime */\n      dup4\n        /* \"main.sol\":1422:1451  _startTime >= block.timestamp */\n      lt\n      iszero\n        /* \"main.sol\":1414:1479  require(_startTime >= block.timestamp, \"LAN: start time in past\") */\n      tag_151\n      jumpi\n      mload(0x40)\n      0x08c379a000000000000000000000000000000000000000000000000000000000\n      dup2\n      mstore\n      0x04\n      add\n      tag_152\n      swap1\n      tag_153\n      jump\t// in\n    tag_152:\n      mload(0x40)\n      dup1\n      swap2\n      sub\n      swap1\n      revert\n    tag_151:\n        /* \"main.sol\":1508:1518  _startTime */\n      dup3\n        /* \"main.sol\":1497:1505  _endTime */\n      dup3\n        /* \"main.sol\":1497:1518  _endTime > _startTime */\n      gt\n        /* \"main.sol\":1489:1543  require(_endTime > _startTime, \"LAN: start after end\") */\n      tag_154\n      jumpi\n      mload(0x40)\n      0x08c379a000000000000000000000000000000000000000000000000000000000\n      dup2\n      mstore\n      0x04\n      add\n      tag_155\n      swap1\n      tag_156\n      jump\t// in\n    tag_155:\n      mload(0x40)\n      dup1\n      swap2\n      sub\n      swap1\n      revert\n    tag_154:\n        /* \"main.sol\":1568:1833  Loan({... */\n      mload(0x40)\n      dup1\n      0x0100\n      add\n      0x40\n      mstore\n      dup1\n        /* \"main.sol\":1594:1604  msg.sender */\n      caller\n        /* \"main.sol\":1568:1833  Loan({... */\n      0xffffffffffffffffffffffffffffffffffffffff\n      and\n      dup2\n      mstore\n      0x20\n      add\n        /* \"main.sol\":1625:1631  _token */\n      dup8\n        /* \"main.sol\":1568:1833  Loan({... */\n      0xffffffffffffffffffffffffffffffffffffffff\n      and\n      dup2\n      mstore\n      0x20\n      add\n        /* \"main.sol\":1664:1682  _collectionAddress */\n      dup7\n        /* \"main.sol\":1568:1833  Loan({... */\n      0xffffffffffffffffffffffffffffffffffffffff\n      and\n      dup2\n      mstore\n      0x20\n      add\n        /* \"main.sol\":1703:1709  _nftId */\n      dup6\n        /* \"main.sol\":1568:1833  Loan({... */\n      dup2\n      mstore\n      0x20\n      add\n        /* \"main.sol\":1765:1775  _startTime */\n      dup5\n        /* \"main.sol\":1568:1833  Loan({... */\n      dup2\n      mstore\n      0x20\n      add\n        /* \"main.sol\":1732:1740  _endTime */\n      dup4\n        /* \"main.sol\":1568:1833  Loan({... */\n      dup2\n      mstore\n      0x20\n      add\n        /* \"main.sol\":1794:1798  _apr */\n      dup3\n        /* \"main.sol\":1568:1833  Loan({... */\n      dup2\n      mstore\n      0x20\n      add\n        /* \"main.sol\":1821:1822  0 */\n      0x00\n        /* \"main.sol\":1568:1833  Loan({... */\n      dup2\n      mstore\n      pop\n        /* \"main.sol\":1553:1558  loans */\n      0x01\n        /* \"main.sol\":1553:1565  loans[count] */\n      0x00\n        /* \"main.sol\":1559:1564  count */\n      dup1\n      sload\n        /* \"main.sol\":1553:1565  loans[count] */\n      dup2\n      mstore\n      0x20\n      add\n      swap1\n      dup2\n      mstore\n      0x20\n      add\n      0x00\n      keccak256\n        /* \"main.sol\":1553:1833  loans[count] = Loan({... */\n      0x00\n      dup3\n      add\n      mload\n      dup2\n      0x00\n      add\n      exp(0x0100, 0x00)\n      dup2\n      sload\n      dup2\n      0xffffffffffffffffffffffffffffffffffffffff\n      mul\n      not\n      and\n      swap1\n      dup4\n      0xffffffffffffffffffffffffffffffffffffffff\n      and\n      mul\n      or\n      swap1\n      sstore\n      pop\n      0x20\n      dup3\n      add\n      mload\n      dup2\n      0x01\n      add\n      exp(0x0100, 0x00)\n      dup2\n      sload\n      dup2\n      0xffffffffffffffffffffffffffffffffffffffff\n      mul\n      not\n      and\n      swap1\n      dup4\n      0xffffffffffffffffffffffffffffffffffffffff\n      and\n      mul\n      or\n      swap1\n      sstore\n      pop\n      0x40\n      dup3\n      add\n      mload\n      dup2\n      0x02\n      add\n      exp(0x0100, 0x00)\n      dup2\n      sload\n      dup2\n      0xffffffffffffffffffffffffffffffffffffffff\n      mul\n      not\n      and\n      swap1\n      dup4\n      0xffffffffffffffffffffffffffffffffffffffff\n      and\n      mul\n      or\n      swap1\n      sstore\n      pop\n      0x60\n      dup3\n      add\n      mload\n      dup2\n      0x03\n      add\n      sstore\n      0x80\n      dup3\n      add\n      mload\n      dup2\n      0x04\n      add\n      sstore\n      0xa0\n      dup3\n      add\n      mload\n      dup2\n      0x05\n      add\n      sstore\n      0xc0\n      dup3\n      add\n      mload\n      dup2\n      0x06\n      add\n      sstore\n      0xe0\n      dup3\n      add\n      mload\n      dup2\n      0x07\n      add\n      sstore\n      swap1\n      pop\n      pop\n        /* \"main.sol\":1868:1883  block.timestamp */\n      timestamp\n        /* \"main.sol\":1843:1847  bids */\n      0x02\n        /* \"main.sol\":1843:1854  bids[count] */\n      0x00\n        /* \"main.sol\":1848:1853  count */\n      dup1\n      sload\n        /* \"main.sol\":1843:1854  bids[count] */\n      dup2\n      mstore\n      0x20\n      add\n      swap1\n      dup2\n      mstore\n      0x20\n      add\n      0x00\n      keccak256\n        /* \"main.sol\":1843:1857  bids[count][0] */\n      0x00\n        /* \"main.sol\":1855:1856  0 */\n      dup1\n        /* \"main.sol\":1843:1857  bids[count][0] */\n      dup2\n      mstore\n      0x20\n      add\n      swap1\n      dup2\n      mstore\n      0x20\n      add\n      0x00\n      keccak256\n        /* \"main.sol\":1843:1865  bids[count][0].bidTime */\n      0x00\n      add\n        /* \"main.sol\":1843:1883  bids[count][0].bidTime = block.timestamp */\n      dup2\n      swap1\n      sstore\n      pop\n        /* \"main.sol\":1906:1911  count */\n      sload(0x00)\n        /* \"main.sol\":1898:1940  newPool(count, _collectionAddress, _nftId) */\n      0xef8b2952c43462575e82711d0cc91169720a4589a9fa533d173e022437f5405e\n        /* \"main.sol\":1913:1931  _collectionAddress */\n      dup7\n        /* \"main.sol\":1933:1939  _nftId */\n      dup7\n        /* \"main.sol\":1898:1940  newPool(count, _collectionAddress, _nftId) */\n      mload(0x40)\n      tag_157\n      swap3\n      swap2\n      swap1\n      tag_158\n      jump\t// in\n    tag_157:\n      mload(0x40)\n      dup1\n      swap2\n      sub\n      swap1\n      log2\n        /* \"main.sol\":1950:1955  count */\n      0x00\n      dup1\n        /* \"main.sol\":1950:1957  count++ */\n      dup2\n      sload\n      dup1\n      swap3\n      swap2\n      swap1\n      tag_159\n      swap1\n      tag_160\n      jump\t// in\n    tag_159:\n      swap2\n      swap1\n      pop\n      sstore\n      pop\n        /* \"main.sol\":1269:1964  function launch(address _token, address _collectionAddress, uint256 _nftId, uint256 _startTime, uint256 _endTime, uint256 _apr) public {... */\n      pop\n      pop\n      pop\n      pop\n      pop\n      pop\n      jump\t// out\n        /* \"main.sol\":5921:6047  function _ended(uint256 _poolId) internal view returns (bool){... */\n    tag_65:\n        /* \"main.sol\":5977:5981  bool */\n      0x00\n        /* \"main.sol\":6025:6040  block.timestamp */\n      timestamp\n        /* \"main.sol\":5999:6004  loans */\n      0x01\n        /* \"main.sol\":5999:6013  loans[_poolId] */\n      0x00\n        /* \"main.sol\":6005:6012  _poolId */\n      dup5\n        /* \"main.sol\":5999:6013  loans[_poolId] */\n      dup2\n      mstore\n      0x20\n      add\n      swap1\n      dup2\n      mstore\n      0x20\n      add\n      0x00\n      keccak256\n        /* \"main.sol\":5999:6021  loans[_poolId].endTime */\n      0x05\n      add\n      sload\n        /* \"main.sol\":5999:6040  loans[_poolId].endTime <= block.timestamp */\n      gt\n      iszero\n        /* \"main.sol\":5992:6040  return loans[_poolId].endTime <= block.timestamp */\n      swap1\n      pop\n        /* \"main.sol\":5921:6047  function _ended(uint256 _poolId) internal view returns (bool){... */\n      swap2\n      swap1\n      pop\n      jump\t// out\n        /* \"main.sol\":6052:6181  function _started(uint256 _poolId) internal view returns (bool){... */\n    tag_99:\n        /* \"main.sol\":6110:6114  bool */\n      0x00\n        /* \"main.sol\":6159:6174  block.timestamp */\n      timestamp\n        /* \"main.sol\":6132:6137  loans */\n      0x01\n        /* \"main.sol\":6132:6146  loans[_poolId] */\n      0x00\n        /* \"main.sol\":6138:6145  _poolId */\n      dup5\n        /* \"main.sol\":6132:6146  loans[_poolId] */\n      dup2\n      mstore\n      0x20\n      add\n      swap1\n      dup2\n      mstore\n      0x20\n      add\n      0x00\n      keccak256\n        /* \"main.sol\":6132:6156  loans[_poolId].startTime */\n      0x04\n      add\n      sload\n        /* \"main.sol\":6132:6174  loans[_poolId].startTime < block.timestamp */\n      lt\n        /* \"main.sol\":6125:6174  return loans[_poolId].startTime < block.timestamp */\n      swap1\n      pop\n        /* \"main.sol\":6052:6181  function _started(uint256 _poolId) internal view returns (bool){... */\n      swap2\n      swap1\n      pop\n      jump\t// out\n        /* \"main.sol\":5397:5910  function _calculateLoanValue(uint256 _poolId) internal view returns (uint256){... */\n    tag_110:\n        /* \"main.sol\":5466:5473  uint256 */\n      0x00\n        /* \"main.sol\":5484:5500  Loan memory loan */\n      dup1\n        /* \"main.sol\":5503:5508  loans */\n      0x01\n        /* \"main.sol\":5503:5517  loans[_poolId] */\n      0x00\n        /* \"main.sol\":5509:5516  _poolId */\n      dup5\n        /* \"main.sol\":5503:5517  loans[_poolId] */\n      dup2\n      mstore\n      0x20\n      add\n      swap1\n      dup2\n      mstore\n      0x20\n      add\n      0x00\n      keccak256\n        /* \"main.sol\":5484:5517  Loan memory loan = loans[_poolId] */\n      mload(0x40)\n      dup1\n      0x0100\n      add\n      0x40\n      mstore\n      swap1\n      dup2\n      0x00\n      dup3\n      add\n      0x00\n      swap1\n      sload\n      swap1\n      0x0100\n      exp\n      swap1\n      div\n      0xffffffffffffffffffffffffffffffffffffffff\n      and\n      0xffffffffffffffffffffffffffffffffffffffff\n      and\n      0xffffffffffffffffffffffffffffffffffffffff\n      and\n      dup2\n      mstore\n      0x20\n      add\n      0x01\n      dup3\n      add\n      0x00\n      swap1\n      sload\n      swap1\n      0x0100\n      exp\n      swap1\n      div\n      0xffffffffffffffffffffffffffffffffffffffff\n      and\n      0xffffffffffffffffffffffffffffffffffffffff\n      and\n      0xffffffffffffffffffffffffffffffffffffffff\n      and\n      dup2\n      mstore\n      0x20\n      add\n      0x02\n      dup3\n      add\n      0x00\n      swap1\n      sload\n      swap1\n      0x0100\n      exp\n      swap1\n      div\n      0xffffffffffffffffffffffffffffffffffffffff\n      and\n      0xffffffffffffffffffffffffffffffffffffffff\n      and\n      0xffffffffffffffffffffffffffffffffffffffff\n      and\n      dup2\n      mstore\n      0x20\n      add\n      0x03\n      dup3\n      add\n      sload\n      dup2\n      mstore\n      0x20\n      add\n      0x04\n      dup3\n      add\n      sload\n      dup2\n      mstore\n      0x20\n      add\n      0x05\n      dup3\n      add\n      sload\n      dup2\n      mstore\n      0x20\n      add\n      0x06\n      dup3\n      add\n      sload\n      dup2\n      mstore\n      0x20\n      add\n      0x07\n      dup3\n      add\n      sload\n      dup2\n      mstore\n      pop\n      pop\n      swap1\n      pop\n        /* \"main.sol\":5527:5547  Bid memory latestBid */\n      0x00\n        /* \"main.sol\":5550:5554  bids */\n      0x02\n        /* \"main.sol\":5550:5563  bids[_poolId] */\n      0x00\n        /* \"main.sol\":5555:5562  _poolId */\n      dup6\n        /* \"main.sol\":5550:5563  bids[_poolId] */\n      dup2\n      mstore\n      0x20\n      add\n      swap1\n      dup2\n      mstore\n      0x20\n      add\n      0x00\n      keccak256\n        /* \"main.sol\":5550:5577  bids[_poolId][loan.numBids] */\n      0x00\n        /* \"main.sol\":5564:5568  loan */\n      dup4\n        /* \"main.sol\":5564:5576  loan.numBids */\n      0xe0\n      add\n      mload\n        /* \"main.sol\":5550:5577  bids[_poolId][loan.numBids] */\n      dup2\n      mstore\n      0x20\n      add\n      swap1\n      dup2\n      mstore\n      0x20\n      add\n      0x00\n      keccak256\n        /* \"main.sol\":5527:5577  Bid memory latestBid = bids[_poolId][loan.numBids] */\n      mload(0x40)\n      dup1\n      0x60\n      add\n      0x40\n      mstore\n      swap1\n      dup2\n      0x00\n      dup3\n      add\n      sload\n      dup2\n      mstore\n      0x20\n      add\n      0x01\n      dup3\n      add\n      sload\n      dup2\n      mstore\n      0x20\n      add\n      0x02\n      dup3\n      add\n      0x00\n      swap1\n      sload\n      swap1\n      0x0100\n      exp\n      swap1\n      div\n      0xffffffffffffffffffffffffffffffffffffffff\n      and\n      0xffffffffffffffffffffffffffffffffffffffff\n      and\n      0xffffffffffffffffffffffffffffffffffffffff\n      and\n      dup2\n      mstore\n      pop\n      pop\n      swap1\n      pop\n        /* \"main.sol\":5587:5606  uint256 timeElapsed */\n      0x00\n        /* \"main.sol\":5619:5634  _ended(_poolId) */\n      tag_164\n        /* \"main.sol\":5626:5633  _poolId */\n      dup6\n        /* \"main.sol\":5619:5625  _ended */\n      tag_65\n        /* \"main.sol\":5619:5634  _ended(_poolId) */\n      jump\t// in\n    tag_164:\n        /* \"main.sol\":5616:5788  if(_ended(_poolId)){... */\n      iszero\n      tag_165\n      jumpi\n        /* \"main.sol\":5684:5688  loan */\n      dup3\n        /* \"main.sol\":5684:5696  loan.endTime */\n      0xa0\n      add\n      mload\n        /* \"main.sol\":5664:5673  latestBid */\n      dup3\n        /* \"main.sol\":5664:5681  latestBid.bidTime */\n      0x00\n      add\n      mload\n        /* \"main.sol\":5664:5696  latestBid.bidTime - loan.endTime */\n      tag_166\n      swap2\n      swap1\n      tag_120\n      jump\t// in\n    tag_166:\n        /* \"main.sol\":5649:5696  timeElapsed =  latestBid.bidTime - loan.endTime */\n      swap1\n      pop\n        /* \"main.sol\":5616:5788  if(_ended(_poolId)){... */\n      jump(tag_167)\n    tag_165:\n        /* \"main.sol\":5762:5777  block.timestamp */\n      timestamp\n        /* \"main.sol\":5742:5751  latestBid */\n      dup3\n        /* \"main.sol\":5742:5759  latestBid.bidTime */\n      0x00\n      add\n      mload\n        /* \"main.sol\":5742:5777  latestBid.bidTime - block.timestamp */\n      tag_168\n      swap2\n      swap1\n      tag_120\n      jump\t// in\n    tag_168:\n        /* \"main.sol\":5727:5777  timeElapsed =  latestBid.bidTime - block.timestamp */\n      swap1\n      pop\n        /* \"main.sol\":5616:5788  if(_ended(_poolId)){... */\n    tag_167:\n        /* \"main.sol\":1120:1132  60*60*24*365 */\n      0x01e13380\n        /* \"main.sol\":5870:5881  timeElapsed */\n      dup2\n        /* \"main.sol\":5859:5867  10 ** 18 */\n      0x0de0b6b3a7640000\n        /* \"main.sol\":5848:5852  loan */\n      dup6\n        /* \"main.sol\":5848:5856  loan.apr */\n      0xc0\n      add\n      mload\n        /* \"main.sol\":5826:5835  latestBid */\n      dup6\n        /* \"main.sol\":5826:5845  latestBid.bidAmount */\n      0x20\n      add\n      mload\n        /* \"main.sol\":5826:5856  latestBid.bidAmount * loan.apr */\n      tag_169\n      swap2\n      swap1\n      tag_170\n      jump\t// in\n    tag_169:\n        /* \"main.sol\":5826:5867  latestBid.bidAmount * loan.apr / 10 ** 18 */\n      tag_171\n      swap2\n      swap1\n      tag_172\n      jump\t// in\n    tag_171:\n        /* \"main.sol\":5826:5881  latestBid.bidAmount * loan.apr / 10 ** 18 * timeElapsed */\n      tag_173\n      swap2\n      swap1\n      tag_170\n      jump\t// in\n    tag_173:\n        /* \"main.sol\":5826:5903  latestBid.bidAmount * loan.apr / 10 ** 18 * timeElapsed / SECONDS_IN_ONE_YEAR */\n      tag_174\n      swap2\n      swap1\n      tag_172\n      jump\t// in\n    tag_174:\n        /* \"main.sol\":5804:5813  latestBid */\n      dup3\n        /* \"main.sol\":5804:5823  latestBid.bidAmount */\n      0x20\n      add\n      mload\n        /* \"main.sol\":5804:5903  latestBid.bidAmount + latestBid.bidAmount * loan.apr / 10 ** 18 * timeElapsed / SECONDS_IN_ONE_YEAR */\n      tag_175\n      swap2\n      swap1\n      tag_108\n      jump\t// in\n    tag_175:\n        /* \"main.sol\":5797:5903  return latestBid.bidAmount + latestBid.bidAmount * loan.apr / 10 ** 18 * timeElapsed / SECONDS_IN_ONE_YEAR */\n      swap4\n      pop\n      pop\n      pop\n      pop\n        /* \"main.sol\":5397:5910  function _calculateLoanValue(uint256 _poolId) internal view returns (uint256){... */\n      swap2\n      swap1\n      pop\n      jump\t// out\n    tag_85:\n      mload(0x40)\n      dup1\n      0x0100\n      add\n      0x40\n      mstore\n      dup1\n      and(0xffffffffffffffffffffffffffffffffffffffff, 0x00)\n      dup2\n      mstore\n      0x20\n      add\n      and(0xffffffffffffffffffffffffffffffffffffffff, 0x00)\n      dup2\n      mstore\n      0x20\n      add\n      and(0xffffffffffffffffffffffffffffffffffffffff, 0x00)\n      dup2\n      mstore\n      0x20\n      add\n      0x00\n      dup2\n      mstore\n      0x20\n      add\n      0x00\n      dup2\n      mstore\n      0x20\n      add\n      0x00\n      dup2\n      mstore\n      0x20\n      add\n      0x00\n      dup2\n      mstore\n      0x20\n      add\n      0x00\n      dup2\n      mstore\n      pop\n      swap1\n      jump\t// out\n        /* \"#utility.yul\":7:84   */\n    tag_176:\n        /* \"#utility.yul\":44:51   */\n      0x00\n        /* \"#utility.yul\":73:78   */\n      dup2\n        /* \"#utility.yul\":62:78   */\n      swap1\n      pop\n        /* \"#utility.yul\":7:84   */\n      swap2\n      swap1\n      pop\n      jump\t// out\n        /* \"#utility.yul\":90:208   */\n    tag_177:\n        /* \"#utility.yul\":177:201   */\n      tag_217\n        /* \"#utility.yul\":195:200   */\n      dup2\n        /* \"#utility.yul\":177:201   */\n      tag_176\n      jump\t// in\n    tag_217:\n        /* \"#utility.yul\":172:175   */\n      dup3\n        /* \"#utility.yul\":165:202   */\n      mstore\n        /* \"#utility.yul\":90:208   */\n      pop\n      pop\n      jump\t// out\n        /* \"#utility.yul\":214:436   */\n    tag_18:\n        /* \"#utility.yul\":307:311   */\n      0x00\n        /* \"#utility.yul\":345:347   */\n      0x20\n        /* \"#utility.yul\":334:343   */\n      dup3\n        /* \"#utility.yul\":330:348   */\n      add\n        /* \"#utility.yul\":322:348   */\n      swap1\n      pop\n        /* \"#utility.yul\":358:429   */\n      tag_219\n        /* \"#utility.yul\":426:427   */\n      0x00\n        /* \"#utility.yul\":415:424   */\n      dup4\n        /* \"#utility.yul\":411:428   */\n      add\n        /* \"#utility.yul\":402:408   */\n      dup5\n        /* \"#utility.yul\":358:429   */\n      tag_177\n      jump\t// in\n    tag_219:\n        /* \"#utility.yul\":214:436   */\n      swap3\n      swap2\n      pop\n      pop\n      jump\t// out\n        /* \"#utility.yul\":523:640   */\n    tag_179:\n        /* \"#utility.yul\":632:633   */\n      0x00\n        /* \"#utility.yul\":629:630   */\n      dup1\n        /* \"#utility.yul\":622:634   */\n      revert\n        /* \"#utility.yul\":769:891   */\n    tag_181:\n        /* \"#utility.yul\":842:866   */\n      tag_224\n        /* \"#utility.yul\":860:865   */\n      dup2\n        /* \"#utility.yul\":842:866   */\n      tag_176\n      jump\t// in\n    tag_224:\n        /* \"#utility.yul\":835:840   */\n      dup2\n        /* \"#utility.yul\":832:867   */\n      eq\n        /* \"#utility.yul\":822:885   */\n      tag_225\n      jumpi\n        /* \"#utility.yul\":881:882   */\n      0x00\n        /* \"#utility.yul\":878:879   */\n      dup1\n        /* \"#utility.yul\":871:883   */\n      revert\n        /* \"#utility.yul\":822:885   */\n    tag_225:\n        /* \"#utility.yul\":769:891   */\n      pop\n      jump\t// out\n        /* \"#utility.yul\":897:1036   */\n    tag_182:\n        /* \"#utility.yul\":943:948   */\n      0x00\n        /* \"#utility.yul\":981:987   */\n      dup2\n        /* \"#utility.yul\":968:988   */\n      calldataload\n        /* \"#utility.yul\":959:988   */\n      swap1\n      pop\n        /* \"#utility.yul\":997:1030   */\n      tag_227\n        /* \"#utility.yul\":1024:1029   */\n      dup2\n        /* \"#utility.yul\":997:1030   */\n      tag_181\n      jump\t// in\n    tag_227:\n        /* \"#utility.yul\":897:1036   */\n      swap3\n      swap2\n      pop\n      pop\n      jump\t// out\n        /* \"#utility.yul\":1042:1371   */\n    tag_21:\n        /* \"#utility.yul\":1101:1107   */\n      0x00\n        /* \"#utility.yul\":1150:1152   */\n      0x20\n        /* \"#utility.yul\":1138:1147   */\n      dup3\n        /* \"#utility.yul\":1129:1136   */\n      dup5\n        /* \"#utility.yul\":1125:1148   */\n      sub\n        /* \"#utility.yul\":1121:1153   */\n      slt\n        /* \"#utility.yul\":1118:1237   */\n      iszero\n      tag_229\n      jumpi\n        /* \"#utility.yul\":1156:1235   */\n      tag_230\n      tag_179\n      jump\t// in\n    tag_230:\n        /* \"#utility.yul\":1118:1237   */\n    tag_229:\n        /* \"#utility.yul\":1276:1277   */\n      0x00\n        /* \"#utility.yul\":1301:1354   */\n      tag_231\n        /* \"#utility.yul\":1346:1353   */\n      dup5\n        /* \"#utility.yul\":1337:1343   */\n      dup3\n        /* \"#utility.yul\":1326:1335   */\n      dup6\n        /* \"#utility.yul\":1322:1344   */\n      add\n        /* \"#utility.yul\":1301:1354   */\n      tag_182\n      jump\t// in\n    tag_231:\n        /* \"#utility.yul\":1291:1354   */\n      swap2\n      pop\n        /* \"#utility.yul\":1247:1364   */\n      pop\n        /* \"#utility.yul\":1042:1371   */\n      swap3\n      swap2\n      pop\n      pop\n      jump\t// out\n        /* \"#utility.yul\":1377:1851   */\n    tag_31:\n        /* \"#utility.yul\":1445:1451   */\n      0x00\n        /* \"#utility.yul\":1453:1459   */\n      dup1\n        /* \"#utility.yul\":1502:1504   */\n      0x40\n        /* \"#utility.yul\":1490:1499   */\n      dup4\n        /* \"#utility.yul\":1481:1488   */\n      dup6\n        /* \"#utility.yul\":1477:1500   */\n      sub\n        /* \"#utility.yul\":1473:1505   */\n      slt\n        /* \"#utility.yul\":1470:1589   */\n      iszero\n      tag_233\n      jumpi\n        /* \"#utility.yul\":1508:1587   */\n      tag_234\n      tag_179\n      jump\t// in\n    tag_234:\n        /* \"#utility.yul\":1470:1589   */\n    tag_233:\n        /* \"#utility.yul\":1628:1629   */\n      0x00\n        /* \"#utility.yul\":1653:1706   */\n      tag_235\n        /* \"#utility.yul\":1698:1705   */\n      dup6\n        /* \"#utility.yul\":1689:1695   */\n      dup3\n        /* \"#utility.yul\":1678:1687   */\n      dup7\n        /* \"#utility.yul\":1674:1696   */\n      add\n        /* \"#utility.yul\":1653:1706   */\n      tag_182\n      jump\t// in\n    tag_235:\n        /* \"#utility.yul\":1643:1706   */\n      swap3\n      pop\n        /* \"#utility.yul\":1599:1716   */\n      pop\n        /* \"#utility.yul\":1755:1757   */\n      0x20\n        /* \"#utility.yul\":1781:1834   */\n      tag_236\n        /* \"#utility.yul\":1826:1833   */\n      dup6\n        /* \"#utility.yul\":1817:1823   */\n      dup3\n        /* \"#utility.yul\":1806:1815   */\n      dup7\n        /* \"#utility.yul\":1802:1824   */\n      add\n        /* \"#utility.yul\":1781:1834   */\n      tag_182\n      jump\t// in\n    tag_236:\n        /* \"#utility.yul\":1771:1834   */\n      swap2\n      pop\n        /* \"#utility.yul\":1726:1844   */\n      pop\n        /* \"#utility.yul\":1377:1851   */\n      swap3\n      pop\n      swap3\n      swap1\n      pop\n      jump\t// out\n        /* \"#utility.yul\":1857:1983   */\n    tag_183:\n        /* \"#utility.yul\":1894:1901   */\n      0x00\n        /* \"#utility.yul\":1934:1976   */\n      0xffffffffffffffffffffffffffffffffffffffff\n        /* \"#utility.yul\":1927:1932   */\n      dup3\n        /* \"#utility.yul\":1923:1977   */\n      and\n        /* \"#utility.yul\":1912:1977   */\n      swap1\n      pop\n        /* \"#utility.yul\":1857:1983   */\n      swap2\n      swap1\n      pop\n      jump\t// out\n        /* \"#utility.yul\":1989:2085   */\n    tag_184:\n        /* \"#utility.yul\":2026:2033   */\n      0x00\n        /* \"#utility.yul\":2055:2079   */\n      tag_239\n        /* \"#utility.yul\":2073:2078   */\n      dup3\n        /* \"#utility.yul\":2055:2079   */\n      tag_183\n      jump\t// in\n    tag_239:\n        /* \"#utility.yul\":2044:2079   */\n      swap1\n      pop\n        /* \"#utility.yul\":1989:2085   */\n      swap2\n      swap1\n      pop\n      jump\t// out\n        /* \"#utility.yul\":2091:2209   */\n    tag_185:\n        /* \"#utility.yul\":2178:2202   */\n      tag_241\n        /* \"#utility.yul\":2196:2201   */\n      dup2\n        /* \"#utility.yul\":2178:2202   */\n      tag_184\n      jump\t// in\n    tag_241:\n        /* \"#utility.yul\":2173:2176   */\n      dup3\n        /* \"#utility.yul\":2166:2203   */\n      mstore\n        /* \"#utility.yul\":2091:2209   */\n      pop\n      pop\n      jump\t// out\n        /* \"#utility.yul\":2215:2657   */\n    tag_40:\n        /* \"#utility.yul\":2364:2368   */\n      0x00\n        /* \"#utility.yul\":2402:2404   */\n      0x60\n        /* \"#utility.yul\":2391:2400   */\n      dup3\n        /* \"#utility.yul\":2387:2405   */\n      add\n        /* \"#utility.yul\":2379:2405   */\n      swap1\n      pop\n        /* \"#utility.yul\":2415:2486   */\n      tag_243\n        /* \"#utility.yul\":2483:2484   */\n      0x00\n        /* \"#utility.yul\":2472:2481   */\n      dup4\n        /* \"#utility.yul\":2468:2485   */\n      add\n        /* \"#utility.yul\":2459:2465   */\n      dup7\n        /* \"#utility.yul\":2415:2486   */\n      tag_177\n      jump\t// in\n    tag_243:\n        /* \"#utility.yul\":2496:2568   */\n      tag_244\n        /* \"#utility.yul\":2564:2566   */\n      0x20\n        /* \"#utility.yul\":2553:2562   */\n      dup4\n        /* \"#utility.yul\":2549:2567   */\n      add\n        /* \"#utility.yul\":2540:2546   */\n      dup6\n        /* \"#utility.yul\":2496:2568   */\n      tag_177\n      jump\t// in\n    tag_244:\n        /* \"#utility.yul\":2578:2650   */\n      tag_245\n        /* \"#utility.yul\":2646:2648   */\n      0x40\n        /* \"#utility.yul\":2635:2644   */\n      dup4\n        /* \"#utility.yul\":2631:2649   */\n      add\n        /* \"#utility.yul\":2622:2628   */\n      dup5\n        /* \"#utility.yul\":2578:2650   */\n      tag_185\n      jump\t// in\n    tag_245:\n        /* \"#utility.yul\":2215:2657   */\n      swap5\n      swap4\n      pop\n      pop\n      pop\n      pop\n      jump\t// out\n        /* \"#utility.yul\":2663:2785   */\n    tag_186:\n        /* \"#utility.yul\":2736:2760   */\n      tag_247\n        /* \"#utility.yul\":2754:2759   */\n      dup2\n        /* \"#utility.yul\":2736:2760   */\n      tag_184\n      jump\t// in\n    tag_247:\n        /* \"#utility.yul\":2729:2734   */\n      dup2\n        /* \"#utility.yul\":2726:2761   */\n      eq\n        /* \"#utility.yul\":2716:2779   */\n      tag_248\n      jumpi\n        /* \"#utility.yul\":2775:2776   */\n      0x00\n        /* \"#utility.yul\":2772:2773   */\n      dup1\n        /* \"#utility.yul\":2765:2777   */\n      revert\n        /* \"#utility.yul\":2716:2779   */\n    tag_248:\n        /* \"#utility.yul\":2663:2785   */\n      pop\n      jump\t// out\n        /* \"#utility.yul\":2791:2930   */\n    tag_187:\n        /* \"#utility.yul\":2837:2842   */\n      0x00\n        /* \"#utility.yul\":2875:2881   */\n      dup2\n        /* \"#utility.yul\":2862:2882   */\n      calldataload\n        /* \"#utility.yul\":2853:2882   */\n      swap1\n      pop\n        /* \"#utility.yul\":2891:2924   */\n      tag_250\n        /* \"#utility.yul\":2918:2923   */\n      dup2\n        /* \"#utility.yul\":2891:2924   */\n      tag_186\n      jump\t// in\n    tag_250:\n        /* \"#utility.yul\":2791:2930   */\n      swap3\n      swap2\n      pop\n      pop\n      jump\t// out\n        /* \"#utility.yul\":2936:3410   */\n    tag_43:\n        /* \"#utility.yul\":3004:3010   */\n      0x00\n        /* \"#utility.yul\":3012:3018   */\n      dup1\n        /* \"#utility.yul\":3061:3063   */\n      0x40\n        /* \"#utility.yul\":3049:3058   */\n      dup4\n        /* \"#utility.yul\":3040:3047   */\n      dup6\n        /* \"#utility.yul\":3036:3059   */\n      sub\n        /* \"#utility.yul\":3032:3064   */\n      slt\n        /* \"#utility.yul\":3029:3148   */\n      iszero\n      tag_252\n      jumpi\n        /* \"#utility.yul\":3067:3146   */\n      tag_253\n      tag_179\n      jump\t// in\n    tag_253:\n        /* \"#utility.yul\":3029:3148   */\n    tag_252:\n        /* \"#utility.yul\":3187:3188   */\n      0x00\n        /* \"#utility.yul\":3212:3265   */\n      tag_254\n        /* \"#utility.yul\":3257:3264   */\n      dup6\n        /* \"#utility.yul\":3248:3254   */\n      dup3\n        /* \"#utility.yul\":3237:3246   */\n      dup7\n        /* \"#utility.yul\":3233:3255   */\n      add\n        /* \"#utility.yul\":3212:3265   */\n      tag_182\n      jump\t// in\n    tag_254:\n        /* \"#utility.yul\":3202:3265   */\n      swap3\n      pop\n        /* \"#utility.yul\":3158:3275   */\n      pop\n        /* \"#utility.yul\":3314:3316   */\n      0x20\n        /* \"#utility.yul\":3340:3393   */\n      tag_255\n        /* \"#utility.yul\":3385:3392   */\n      dup6\n        /* \"#utility.yul\":3376:3382   */\n      dup3\n        /* \"#utility.yul\":3365:3374   */\n      dup7\n        /* \"#utility.yul\":3361:3383   */\n      add\n        /* \"#utility.yul\":3340:3393   */\n      tag_187\n      jump\t// in\n    tag_255:\n        /* \"#utility.yul\":3330:3393   */\n      swap2\n      pop\n        /* \"#utility.yul\":3285:3403   */\n      pop\n        /* \"#utility.yul\":2936:3410   */\n      swap3\n      pop\n      swap3\n      swap1\n      pop\n      jump\t// out\n        /* \"#utility.yul\":3416:3638   */\n    tag_49:\n        /* \"#utility.yul\":3509:3513   */\n      0x00\n        /* \"#utility.yul\":3547:3549   */\n      0x20\n        /* \"#utility.yul\":3536:3545   */\n      dup3\n        /* \"#utility.yul\":3532:3550   */\n      add\n        /* \"#utility.yul\":3524:3550   */\n      swap1\n      pop\n        /* \"#utility.yul\":3560:3631   */\n      tag_257\n        /* \"#utility.yul\":3628:3629   */\n      0x00\n        /* \"#utility.yul\":3617:3626   */\n      dup4\n        /* \"#utility.yul\":3613:3630   */\n      add\n        /* \"#utility.yul\":3604:3610   */\n      dup5\n        /* \"#utility.yul\":3560:3631   */\n      tag_185\n      jump\t// in\n    tag_257:\n        /* \"#utility.yul\":3416:3638   */\n      swap3\n      swap2\n      pop\n      pop\n      jump\t// out\n        /* \"#utility.yul\":3644:4641   */\n    tag_54:\n        /* \"#utility.yul\":3933:3937   */\n      0x00\n        /* \"#utility.yul\":3971:3974   */\n      0x0100\n        /* \"#utility.yul\":3960:3969   */\n      dup3\n        /* \"#utility.yul\":3956:3975   */\n      add\n        /* \"#utility.yul\":3948:3975   */\n      swap1\n      pop\n        /* \"#utility.yul\":3985:4056   */\n      tag_259\n        /* \"#utility.yul\":4053:4054   */\n      0x00\n        /* \"#utility.yul\":4042:4051   */\n      dup4\n        /* \"#utility.yul\":4038:4055   */\n      add\n        /* \"#utility.yul\":4029:4035   */\n      dup12\n        /* \"#utility.yul\":3985:4056   */\n      tag_185\n      jump\t// in\n    tag_259:\n        /* \"#utility.yul\":4066:4138   */\n      tag_260\n        /* \"#utility.yul\":4134:4136   */\n      0x20\n        /* \"#utility.yul\":4123:4132   */\n      dup4\n        /* \"#utility.yul\":4119:4137   */\n      add\n        /* \"#utility.yul\":4110:4116   */\n      dup11\n        /* \"#utility.yul\":4066:4138   */\n      tag_185\n      jump\t// in\n    tag_260:\n        /* \"#utility.yul\":4148:4220   */\n      tag_261\n        /* \"#utility.yul\":4216:4218   */\n      0x40\n        /* \"#utility.yul\":4205:4214   */\n      dup4\n        /* \"#utility.yul\":4201:4219   */\n      add\n        /* \"#utility.yul\":4192:4198   */\n      dup10\n        /* \"#utility.yul\":4148:4220   */\n      tag_185\n      jump\t// in\n    tag_261:\n        /* \"#utility.yul\":4230:4302   */\n      tag_262\n        /* \"#utility.yul\":4298:4300   */\n      0x60\n        /* \"#utility.yul\":4287:4296   */\n      dup4\n        /* \"#utility.yul\":4283:4301   */\n      add\n        /* \"#utility.yul\":4274:4280   */\n      dup9\n        /* \"#utility.yul\":4230:4302   */\n      tag_177\n      jump\t// in\n    tag_262:\n        /* \"#utility.yul\":4312:4385   */\n      tag_263\n        /* \"#utility.yul\":4380:4383   */\n      0x80\n        /* \"#utility.yul\":4369:4378   */\n      dup4\n        /* \"#utility.yul\":4365:4384   */\n      add\n        /* \"#utility.yul\":4356:4362   */\n      dup8\n        /* \"#utility.yul\":4312:4385   */\n      tag_177\n      jump\t// in\n    tag_263:\n        /* \"#utility.yul\":4395:4468   */\n      tag_264\n        /* \"#utility.yul\":4463:4466   */\n      0xa0\n        /* \"#utility.yul\":4452:4461   */\n      dup4\n        /* \"#utility.yul\":4448:4467   */\n      add\n        /* \"#utility.yul\":4439:4445   */\n      dup7\n        /* \"#utility.yul\":4395:4468   */\n      tag_177\n      jump\t// in\n    tag_264:\n        /* \"#utility.yul\":4478:4551   */\n      tag_265\n        /* \"#utility.yul\":4546:4549   */\n      0xc0\n        /* \"#utility.yul\":4535:4544   */\n      dup4\n        /* \"#utility.yul\":4531:4550   */\n      add\n        /* \"#utility.yul\":4522:4528   */\n      dup6\n        /* \"#utility.yul\":4478:4551   */\n      tag_177\n      jump\t// in\n    tag_265:\n        /* \"#utility.yul\":4561:4634   */\n      tag_266\n        /* \"#utility.yul\":4629:4632   */\n      0xe0\n        /* \"#utility.yul\":4618:4627   */\n      dup4\n        /* \"#utility.yul\":4614:4633   */\n      add\n        /* \"#utility.yul\":4605:4611   */\n      dup5\n        /* \"#utility.yul\":4561:4634   */\n      tag_177\n      jump\t// in\n    tag_266:\n        /* \"#utility.yul\":3644:4641   */\n      swap10\n      swap9\n      pop\n      pop\n      pop\n      pop\n      pop\n      pop\n      pop\n      pop\n      pop\n      jump\t// out\n        /* \"#utility.yul\":4647:5704   */\n    tag_57:\n        /* \"#utility.yul\":4751:4757   */\n      0x00\n        /* \"#utility.yul\":4759:4765   */\n      dup1\n        /* \"#utility.yul\":4767:4773   */\n      0x00\n        /* \"#utility.yul\":4775:4781   */\n      dup1\n        /* \"#utility.yul\":4783:4789   */\n      0x00\n        /* \"#utility.yul\":4791:4797   */\n      dup1\n        /* \"#utility.yul\":4840:4843   */\n      0xc0\n        /* \"#utility.yul\":4828:4837   */\n      dup8\n        /* \"#utility.yul\":4819:4826   */\n      dup10\n        /* \"#utility.yul\":4815:4838   */\n      sub\n        /* \"#utility.yul\":4811:4844   */\n      slt\n        /* \"#utility.yul\":4808:4928   */\n      iszero\n      tag_268\n      jumpi\n        /* \"#utility.yul\":4847:4926   */\n      tag_269\n      tag_179\n      jump\t// in\n    tag_269:\n        /* \"#utility.yul\":4808:4928   */\n    tag_268:\n        /* \"#utility.yul\":4967:4968   */\n      0x00\n        /* \"#utility.yul\":4992:5045   */\n      tag_270\n        /* \"#utility.yul\":5037:5044   */\n      dup10\n        /* \"#utility.yul\":5028:5034   */\n      dup3\n        /* \"#utility.yul\":5017:5026   */\n      dup11\n        /* \"#utility.yul\":5013:5035   */\n      add\n        /* \"#utility.yul\":4992:5045   */\n      tag_187\n      jump\t// in\n    tag_270:\n        /* \"#utility.yul\":4982:5045   */\n      swap7\n      pop\n        /* \"#utility.yul\":4938:5055   */\n      pop\n        /* \"#utility.yul\":5094:5096   */\n      0x20\n        /* \"#utility.yul\":5120:5173   */\n      tag_271\n        /* \"#utility.yul\":5165:5172   */\n      dup10\n        /* \"#utility.yul\":5156:5162   */\n      dup3\n        /* \"#utility.yul\":5145:5154   */\n      dup11\n        /* \"#utility.yul\":5141:5163   */\n      add\n        /* \"#utility.yul\":5120:5173   */\n      tag_187\n      jump\t// in\n    tag_271:\n        /* \"#utility.yul\":5110:5173   */\n      swap6\n      pop\n        /* \"#utility.yul\":5065:5183   */\n      pop\n        /* \"#utility.yul\":5222:5224   */\n      0x40\n        /* \"#utility.yul\":5248:5301   */\n      tag_272\n        /* \"#utility.yul\":5293:5300   */\n      dup10\n        /* \"#utility.yul\":5284:5290   */\n      dup3\n        /* \"#utility.yul\":5273:5282   */\n      dup11\n        /* \"#utility.yul\":5269:5291   */\n      add\n        /* \"#utility.yul\":5248:5301   */\n      tag_182\n      jump\t// in\n    tag_272:\n        /* \"#utility.yul\":5238:5301   */\n      swap5\n      pop\n        /* \"#utility.yul\":5193:5311   */\n      pop\n        /* \"#utility.yul\":5350:5352   */\n      0x60\n        /* \"#utility.yul\":5376:5429   */\n      tag_273\n        /* \"#utility.yul\":5421:5428   */\n      dup10\n        /* \"#utility.yul\":5412:5418   */\n      dup3\n        /* \"#utility.yul\":5401:5410   */\n      dup11\n        /* \"#utility.yul\":5397:5419   */\n      add\n        /* \"#utility.yul\":5376:5429   */\n      tag_182\n      jump\t// in\n    tag_273:\n        /* \"#utility.yul\":5366:5429   */\n      swap4\n      pop\n        /* \"#utility.yul\":5321:5439   */\n      pop\n        /* \"#utility.yul\":5478:5481   */\n      0x80\n        /* \"#utility.yul\":5505:5558   */\n      tag_274\n        /* \"#utility.yul\":5550:5557   */\n      dup10\n        /* \"#utility.yul\":5541:5547   */\n      dup3\n        /* \"#utility.yul\":5530:5539   */\n      dup11\n        /* \"#utility.yul\":5526:5548   */\n      add\n        /* \"#utility.yul\":5505:5558   */\n      tag_182\n      jump\t// in\n    tag_274:\n        /* \"#utility.yul\":5495:5558   */\n      swap3\n      pop\n        /* \"#utility.yul\":5449:5568   */\n      pop\n        /* \"#utility.yul\":5607:5610   */\n      0xa0\n        /* \"#utility.yul\":5634:5687   */\n      tag_275\n        /* \"#utility.yul\":5679:5686   */\n      dup10\n        /* \"#utility.yul\":5670:5676   */\n      dup3\n        /* \"#utility.yul\":5659:5668   */\n      dup11\n        /* \"#utility.yul\":5655:5677   */\n      add\n        /* \"#utility.yul\":5634:5687   */\n      tag_182\n      jump\t// in\n    tag_275:\n        /* \"#utility.yul\":5624:5687   */\n      swap2\n      pop\n        /* \"#utility.yul\":5578:5697   */\n      pop\n        /* \"#utility.yul\":4647:5704   */\n      swap3\n      swap6\n      pop\n      swap3\n      swap6\n      pop\n      swap3\n      swap6\n      jump\t// out\n        /* \"#utility.yul\":5710:5879   */\n    tag_188:\n        /* \"#utility.yul\":5794:5805   */\n      0x00\n        /* \"#utility.yul\":5828:5834   */\n      dup3\n        /* \"#utility.yul\":5823:5826   */\n      dup3\n        /* \"#utility.yul\":5816:5835   */\n      mstore\n        /* \"#utility.yul\":5868:5872   */\n      0x20\n        /* \"#utility.yul\":5863:5866   */\n      dup3\n        /* \"#utility.yul\":5859:5873   */\n      add\n        /* \"#utility.yul\":5844:5873   */\n      swap1\n      pop\n        /* \"#utility.yul\":5710:5879   */\n      swap3\n      swap2\n      pop\n      pop\n      jump\t// out\n        /* \"#utility.yul\":5885:6049   */\n    tag_189:\n        /* \"#utility.yul\":6025:6041   */\n      0x4c414e3a206e6f74206f776e6572000000000000000000000000000000000000\n        /* \"#utility.yul\":6021:6022   */\n      0x00\n        /* \"#utility.yul\":6013:6019   */\n      dup3\n        /* \"#utility.yul\":6009:6023   */\n      add\n        /* \"#utility.yul\":6002:6042   */\n      mstore\n        /* \"#utility.yul\":5885:6049   */\n      pop\n      jump\t// out\n        /* \"#utility.yul\":6055:6421   */\n    tag_190:\n        /* \"#utility.yul\":6197:6200   */\n      0x00\n        /* \"#utility.yul\":6218:6285   */\n      tag_279\n        /* \"#utility.yul\":6282:6284   */\n      0x0e\n        /* \"#utility.yul\":6277:6280   */\n      dup4\n        /* \"#utility.yul\":6218:6285   */\n      tag_188\n      jump\t// in\n    tag_279:\n        /* \"#utility.yul\":6211:6285   */\n      swap2\n      pop\n        /* \"#utility.yul\":6294:6387   */\n      tag_280\n        /* \"#utility.yul\":6383:6386   */\n      dup3\n        /* \"#utility.yul\":6294:6387   */\n      tag_189\n      jump\t// in\n    tag_280:\n        /* \"#utility.yul\":6412:6414   */\n      0x20\n        /* \"#utility.yul\":6407:6410   */\n      dup3\n        /* \"#utility.yul\":6403:6415   */\n      add\n        /* \"#utility.yul\":6396:6415   */\n      swap1\n      pop\n        /* \"#utility.yul\":6055:6421   */\n      swap2\n      swap1\n      pop\n      jump\t// out\n        /* \"#utility.yul\":6427:6846   */\n    tag_62:\n        /* \"#utility.yul\":6593:6597   */\n      0x00\n        /* \"#utility.yul\":6631:6633   */\n      0x20\n        /* \"#utility.yul\":6620:6629   */\n      dup3\n        /* \"#utility.yul\":6616:6634   */\n      add\n        /* \"#utility.yul\":6608:6634   */\n      swap1\n      pop\n        /* \"#utility.yul\":6680:6689   */\n      dup2\n        /* \"#utility.yul\":6674:6678   */\n      dup2\n        /* \"#utility.yul\":6670:6690   */\n      sub\n        /* \"#utility.yul\":6666:6667   */\n      0x00\n        /* \"#utility.yul\":6655:6664   */\n      dup4\n        /* \"#utility.yul\":6651:6668   */\n      add\n        /* \"#utility.yul\":6644:6691   */\n      mstore\n        /* \"#utility.yul\":6708:6839   */\n      tag_282\n        /* \"#utility.yul\":6834:6838   */\n      dup2\n        /* \"#utility.yul\":6708:6839   */\n      tag_190\n      jump\t// in\n    tag_282:\n        /* \"#utility.yul\":6700:6839   */\n      swap1\n      pop\n        /* \"#utility.yul\":6427:6846   */\n      swap2\n      swap1\n      pop\n      jump\t// out\n        /* \"#utility.yul\":6852:7021   */\n    tag_191:\n        /* \"#utility.yul\":6992:7013   */\n      0x4c414e3a206c6f616e206e6f7420656e64656400000000000000000000000000\n        /* \"#utility.yul\":6988:6989   */\n      0x00\n        /* \"#utility.yul\":6980:6986   */\n      dup3\n        /* \"#utility.yul\":6976:6990   */\n      add\n        /* \"#utility.yul\":6969:7014   */\n      mstore\n        /* \"#utility.yul\":6852:7021   */\n      pop\n      jump\t// out\n        /* \"#utility.yul\":7027:7393   */\n    tag_192:\n        /* \"#utility.yul\":7169:7172   */\n      0x00\n        /* \"#utility.yul\":7190:7257   */\n      tag_285\n        /* \"#utility.yul\":7254:7256   */\n      0x13\n        /* \"#utility.yul\":7249:7252   */\n      dup4\n        /* \"#utility.yul\":7190:7257   */\n      tag_188\n      jump\t// in\n    tag_285:\n        /* \"#utility.yul\":7183:7257   */\n      swap2\n      pop\n        /* \"#utility.yul\":7266:7359   */\n      tag_286\n        /* \"#utility.yul\":7355:7358   */\n      dup3\n        /* \"#utility.yul\":7266:7359   */\n      tag_191\n      jump\t// in\n    tag_286:\n        /* \"#utility.yul\":7384:7386   */\n      0x20\n        /* \"#utility.yul\":7379:7382   */\n      dup3\n        /* \"#utility.yul\":7375:7387   */\n      add\n        /* \"#utility.yul\":7368:7387   */\n      swap1\n      pop\n        /* \"#utility.yul\":7027:7393   */\n      swap2\n      swap1\n      pop\n      jump\t// out\n        /* \"#utility.yul\":7399:7818   */\n    tag_68:\n        /* \"#utility.yul\":7565:7569   */\n      0x00\n        /* \"#utility.yul\":7603:7605   */\n      0x20\n        /* \"#utility.yul\":7592:7601   */\n      dup3\n        /* \"#utility.yul\":7588:7606   */\n      add\n        /* \"#utility.yul\":7580:7606   */\n      swap1\n      pop\n        /* \"#utility.yul\":7652:7661   */\n      dup2\n        /* \"#utility.yul\":7646:7650   */\n      dup2\n        /* \"#utility.yul\":7642:7662   */\n      sub\n        /* \"#utility.yul\":7638:7639   */\n      0x00\n        /* \"#utility.yul\":7627:7636   */\n      dup4\n        /* \"#utility.yul\":7623:7640   */\n      add\n        /* \"#utility.yul\":7616:7663   */\n      mstore\n        /* \"#utility.yul\":7680:7811   */\n      tag_288\n        /* \"#utility.yul\":7806:7810   */\n      dup2\n        /* \"#utility.yul\":7680:7811   */\n      tag_192\n      jump\t// in\n    tag_288:\n        /* \"#utility.yul\":7672:7811   */\n      swap1\n      pop\n        /* \"#utility.yul\":7399:7818   */\n      swap2\n      swap1\n      pop\n      jump\t// out\n        /* \"#utility.yul\":7824:7996   */\n    tag_193:\n        /* \"#utility.yul\":7964:7988   */\n      0x4c414e3a206e6f74206c61746573742062696464657200000000000000000000\n        /* \"#utility.yul\":7960:7961   */\n      0x00\n        /* \"#utility.yul\":7952:7958   */\n      dup3\n        /* \"#utility.yul\":7948:7962   */\n      add\n        /* \"#utility.yul\":7941:7989   */\n      mstore\n        /* \"#utility.yul\":7824:7996   */\n      pop\n      jump\t// out\n        /* \"#utility.yul\":8002:8368   */\n    tag_194:\n        /* \"#utility.yul\":8144:8147   */\n      0x00\n        /* \"#utility.yul\":8165:8232   */\n      tag_291\n        /* \"#utility.yul\":8229:8231   */\n      0x16\n        /* \"#utility.yul\":8224:8227   */\n      dup4\n        /* \"#utility.yul\":8165:8232   */\n      tag_188\n      jump\t// in\n    tag_291:\n        /* \"#utility.yul\":8158:8232   */\n      swap2\n      pop\n        /* \"#utility.yul\":8241:8334   */\n      tag_292\n        /* \"#utility.yul\":8330:8333   */\n      dup3\n        /* \"#utility.yul\":8241:8334   */\n      tag_193\n      jump\t// in\n    tag_292:\n        /* \"#utility.yul\":8359:8361   */\n      0x20\n        /* \"#utility.yul\":8354:8357   */\n      dup3\n        /* \"#utility.yul\":8350:8362   */\n      add\n        /* \"#utility.yul\":8343:8362   */\n      swap1\n      pop\n        /* \"#utility.yul\":8002:8368   */\n      swap2\n      swap1\n      pop\n      jump\t// out\n        /* \"#utility.yul\":8374:8793   */\n    tag_71:\n        /* \"#utility.yul\":8540:8544   */\n      0x00\n        /* \"#utility.yul\":8578:8580   */\n      0x20\n        /* \"#utility.yul\":8567:8576   */\n      dup3\n        /* \"#utility.yul\":8563:8581   */\n      add\n        /* \"#utility.yul\":8555:8581   */\n      swap1\n      pop\n        /* \"#utility.yul\":8627:8636   */\n      dup2\n        /* \"#utility.yul\":8621:8625   */\n      dup2\n        /* \"#utility.yul\":8617:8637   */\n      sub\n        /* \"#utility.yul\":8613:8614   */\n      0x00\n        /* \"#utility.yul\":8602:8611   */\n      dup4\n        /* \"#utility.yul\":8598:8615   */\n      add\n        /* \"#utility.yul\":8591:8638   */\n      mstore\n        /* \"#utility.yul\":8655:8786   */\n      tag_294\n        /* \"#utility.yul\":8781:8785   */\n      dup2\n        /* \"#utility.yul\":8655:8786   */\n      tag_194\n      jump\t// in\n    tag_294:\n        /* \"#utility.yul\":8647:8786   */\n      swap1\n      pop\n        /* \"#utility.yul\":8374:8793   */\n      swap2\n      swap1\n      pop\n      jump\t// out\n        /* \"#utility.yul\":8799:9241   */\n    tag_73:\n        /* \"#utility.yul\":8948:8952   */\n      0x00\n        /* \"#utility.yul\":8986:8988   */\n      0x60\n        /* \"#utility.yul\":8975:8984   */\n      dup3\n        /* \"#utility.yul\":8971:8989   */\n      add\n        /* \"#utility.yul\":8963:8989   */\n      swap1\n      pop\n        /* \"#utility.yul\":8999:9070   */\n      tag_296\n        /* \"#utility.yul\":9067:9068   */\n      0x00\n        /* \"#utility.yul\":9056:9065   */\n      dup4\n        /* \"#utility.yul\":9052:9069   */\n      add\n        /* \"#utility.yul\":9043:9049   */\n      dup7\n        /* \"#utility.yul\":8999:9070   */\n      tag_185\n      jump\t// in\n    tag_296:\n        /* \"#utility.yul\":9080:9152   */\n      tag_297\n        /* \"#utility.yul\":9148:9150   */\n      0x20\n        /* \"#utility.yul\":9137:9146   */\n      dup4\n        /* \"#utility.yul\":9133:9151   */\n      add\n        /* \"#utility.yul\":9124:9130   */\n      dup6\n        /* \"#utility.yul\":9080:9152   */\n      tag_185\n      jump\t// in\n    tag_297:\n        /* \"#utility.yul\":9162:9234   */\n      tag_298\n        /* \"#utility.yul\":9230:9232   */\n      0x40\n        /* \"#utility.yul\":9219:9228   */\n      dup4\n        /* \"#utility.yul\":9215:9233   */\n      add\n        /* \"#utility.yul\":9206:9212   */\n      dup5\n        /* \"#utility.yul\":9162:9234   */\n      tag_177\n      jump\t// in\n    tag_298:\n        /* \"#utility.yul\":8799:9241   */\n      swap5\n      swap4\n      pop\n      pop\n      pop\n      pop\n      jump\t// out\n        /* \"#utility.yul\":9247:9417   */\n    tag_195:\n        /* \"#utility.yul\":9387:9409   */\n      0x4c414e3a20616c72656164792073746172746564000000000000000000000000\n        /* \"#utility.yul\":9383:9384   */\n      0x00\n        /* \"#utility.yul\":9375:9381   */\n      dup3\n        /* \"#utility.yul\":9371:9385   */\n      add\n        /* \"#utility.yul\":9364:9410   */\n      mstore\n        /* \"#utility.yul\":9247:9417   */\n      pop\n      jump\t// out\n        /* \"#utility.yul\":9423:9789   */\n    tag_196:\n        /* \"#utility.yul\":9565:9568   */\n      0x00\n        /* \"#utility.yul\":9586:9653   */\n      tag_301\n        /* \"#utility.yul\":9650:9652   */\n      0x14\n        /* \"#utility.yul\":9645:9648   */\n      dup4\n        /* \"#utility.yul\":9586:9653   */\n      tag_188\n      jump\t// in\n    tag_301:\n        /* \"#utility.yul\":9579:9653   */\n      swap2\n      pop\n        /* \"#utility.yul\":9662:9755   */\n      tag_302\n        /* \"#utility.yul\":9751:9754   */\n      dup3\n        /* \"#utility.yul\":9662:9755   */\n      tag_195\n      jump\t// in\n    tag_302:\n        /* \"#utility.yul\":9780:9782   */\n      0x20\n        /* \"#utility.yul\":9775:9778   */\n      dup3\n        /* \"#utility.yul\":9771:9783   */\n      add\n        /* \"#utility.yul\":9764:9783   */\n      swap1\n      pop\n        /* \"#utility.yul\":9423:9789   */\n      swap2\n      swap1\n      pop\n      jump\t// out\n        /* \"#utility.yul\":9795:10214   */\n    tag_83:\n        /* \"#utility.yul\":9961:9965   */\n      0x00\n        /* \"#utility.yul\":9999:10001   */\n      0x20\n        /* \"#utility.yul\":9988:9997   */\n      dup3\n        /* \"#utility.yul\":9984:10002   */\n      add\n        /* \"#utility.yul\":9976:10002   */\n      swap1\n      pop\n        /* \"#utility.yul\":10048:10057   */\n      dup2\n        /* \"#utility.yul\":10042:10046   */\n      dup2\n        /* \"#utility.yul\":10038:10058   */\n      sub\n        /* \"#utility.yul\":10034:10035   */\n      0x00\n        /* \"#utility.yul\":10023:10032   */\n      dup4\n        /* \"#utility.yul\":10019:10036   */\n      add\n        /* \"#utility.yul\":10012:10059   */\n      mstore\n        /* \"#utility.yul\":10076:10207   */\n      tag_304\n        /* \"#utility.yul\":10202:10206   */\n      dup2\n        /* \"#utility.yul\":10076:10207   */\n      tag_196\n      jump\t// in\n    tag_304:\n        /* \"#utility.yul\":10068:10207   */\n      swap1\n      pop\n        /* \"#utility.yul\":9795:10214   */\n      swap2\n      swap1\n      pop\n      jump\t// out\n        /* \"#utility.yul\":10220:10386   */\n    tag_197:\n        /* \"#utility.yul\":10360:10378   */\n      0x4c414e3a206e6f74207374617274656400000000000000000000000000000000\n        /* \"#utility.yul\":10356:10357   */\n      0x00\n        /* \"#utility.yul\":10348:10354   */\n      dup3\n        /* \"#utility.yul\":10344:10358   */\n      add\n        /* \"#utility.yul\":10337:10379   */\n      mstore\n        /* \"#utility.yul\":10220:10386   */\n      pop\n      jump\t// out\n        /* \"#utility.yul\":10392:10758   */\n    tag_198:\n        /* \"#utility.yul\":10534:10537   */\n      0x00\n        /* \"#utility.yul\":10555:10622   */\n      tag_307\n        /* \"#utility.yul\":10619:10621   */\n      0x10\n        /* \"#utility.yul\":10614:10617   */\n      dup4\n        /* \"#utility.yul\":10555:10622   */\n      tag_188\n      jump\t// in\n    tag_307:\n        /* \"#utility.yul\":10548:10622   */\n      swap2\n      pop\n        /* \"#utility.yul\":10631:10724   */\n      tag_308\n        /* \"#utility.yul\":10720:10723   */\n      dup3\n        /* \"#utility.yul\":10631:10724   */\n      tag_197\n      jump\t// in\n    tag_308:\n        /* \"#utility.yul\":10749:10751   */\n      0x20\n        /* \"#utility.yul\":10744:10747   */\n      dup3\n        /* \"#utility.yul\":10740:10752   */\n      add\n        /* \"#utility.yul\":10733:10752   */\n      swap1\n      pop\n        /* \"#utility.yul\":10392:10758   */\n      swap2\n      swap1\n      pop\n      jump\t// out\n        /* \"#utility.yul\":10764:11183   */\n    tag_102:\n        /* \"#utility.yul\":10930:10934   */\n      0x00\n        /* \"#utility.yul\":10968:10970   */\n      0x20\n        /* \"#utility.yul\":10957:10966   */\n      dup3\n        /* \"#utility.yul\":10953:10971   */\n      add\n        /* \"#utility.yul\":10945:10971   */\n      swap1\n      pop\n        /* \"#utility.yul\":11017:11026   */\n      dup2\n        /* \"#utility.yul\":11011:11015   */\n      dup2\n        /* \"#utility.yul\":11007:11027   */\n      sub\n        /* \"#utility.yul\":11003:11004   */\n      0x00\n        /* \"#utility.yul\":10992:11001   */\n      dup4\n        /* \"#utility.yul\":10988:11005   */\n      add\n        /* \"#utility.yul\":10981:11028   */\n      mstore\n        /* \"#utility.yul\":11045:11176   */\n      tag_310\n        /* \"#utility.yul\":11171:11175   */\n      dup2\n        /* \"#utility.yul\":11045:11176   */\n      tag_198\n      jump\t// in\n    tag_310:\n        /* \"#utility.yul\":11037:11176   */\n      swap1\n      pop\n        /* \"#utility.yul\":10764:11183   */\n      swap2\n      swap1\n      pop\n      jump\t// out\n        /* \"#utility.yul\":11189:11357   */\n    tag_199:\n        /* \"#utility.yul\":11329:11349   */\n      0x4c414e3a20616c726561647920656e6465640000000000000000000000000000\n        /* \"#utility.yul\":11325:11326   */\n      0x00\n        /* \"#utility.yul\":11317:11323   */\n      dup3\n        /* \"#utility.yul\":11313:11327   */\n      add\n        /* \"#utility.yul\":11306:11350   */\n      mstore\n        /* \"#utility.yul\":11189:11357   */\n      pop\n      jump\t// out\n        /* \"#utility.yul\":11363:11729   */\n    tag_200:\n        /* \"#utility.yul\":11505:11508   */\n      0x00\n        /* \"#utility.yul\":11526:11593   */\n      tag_313\n        /* \"#utility.yul\":11590:11592   */\n      0x12\n        /* \"#utility.yul\":11585:11588   */\n      dup4\n        /* \"#utility.yul\":11526:11593   */\n      tag_188\n      jump\t// in\n    tag_313:\n        /* \"#utility.yul\":11519:11593   */\n      swap2\n      pop\n        /* \"#utility.yul\":11602:11695   */\n      tag_314\n        /* \"#utility.yul\":11691:11694   */\n      dup3\n        /* \"#utility.yul\":11602:11695   */\n      tag_199\n      jump\t// in\n    tag_314:\n        /* \"#utility.yul\":11720:11722   */\n      0x20\n        /* \"#utility.yul\":11715:11718   */\n      dup3\n        /* \"#utility.yul\":11711:11723   */\n      add\n        /* \"#utility.yul\":11704:11723   */\n      swap1\n      pop\n        /* \"#utility.yul\":11363:11729   */\n      swap2\n      swap1\n      pop\n      jump\t// out\n        /* \"#utility.yul\":11735:12154   */\n    tag_106:\n        /* \"#utility.yul\":11901:11905   */\n      0x00\n        /* \"#utility.yul\":11939:11941   */\n      0x20\n        /* \"#utility.yul\":11928:11937   */\n      dup3\n        /* \"#utility.yul\":11924:11942   */\n      add\n        /* \"#utility.yul\":11916:11942   */\n      swap1\n      pop\n        /* \"#utility.yul\":11988:11997   */\n      dup2\n        /* \"#utility.yul\":11982:11986   */\n      dup2\n        /* \"#utility.yul\":11978:11998   */\n      sub\n        /* \"#utility.yul\":11974:11975   */\n      0x00\n        /* \"#utility.yul\":11963:11972   */\n      dup4\n        /* \"#utility.yul\":11959:11976   */\n      add\n        /* \"#utility.yul\":11952:11999   */\n      mstore\n        /* \"#utility.yul\":12016:12147   */\n      tag_316\n        /* \"#utility.yul\":12142:12146   */\n      dup2\n        /* \"#utility.yul\":12016:12147   */\n      tag_200\n      jump\t// in\n    tag_316:\n        /* \"#utility.yul\":12008:12147   */\n      swap1\n      pop\n        /* \"#utility.yul\":11735:12154   */\n      swap2\n      swap1\n      pop\n      jump\t// out\n        /* \"#utility.yul\":12160:12340   */\n    tag_201:\n        /* \"#utility.yul\":12208:12285   */\n      0x4e487b7100000000000000000000000000000000000000000000000000000000\n        /* \"#utility.yul\":12205:12206   */\n      0x00\n        /* \"#utility.yul\":12198:12286   */\n      mstore\n        /* \"#utility.yul\":12305:12309   */\n      0x11\n        /* \"#utility.yul\":12302:12303   */\n      0x04\n        /* \"#utility.yul\":12295:12310   */\n      mstore\n        /* \"#utility.yul\":12329:12333   */\n      0x24\n        /* \"#utility.yul\":12326:12327   */\n      0x00\n        /* \"#utility.yul\":12319:12334   */\n      revert\n        /* \"#utility.yul\":12346:12537   */\n    tag_108:\n        /* \"#utility.yul\":12386:12389   */\n      0x00\n        /* \"#utility.yul\":12405:12425   */\n      tag_319\n        /* \"#utility.yul\":12423:12424   */\n      dup3\n        /* \"#utility.yul\":12405:12425   */\n      tag_176\n      jump\t// in\n    tag_319:\n        /* \"#utility.yul\":12400:12425   */\n      swap2\n      pop\n        /* \"#utility.yul\":12439:12459   */\n      tag_320\n        /* \"#utility.yul\":12457:12458   */\n      dup4\n        /* \"#utility.yul\":12439:12459   */\n      tag_176\n      jump\t// in\n    tag_320:\n        /* \"#utility.yul\":12434:12459   */\n      swap3\n      pop\n        /* \"#utility.yul\":12482:12483   */\n      dup3\n        /* \"#utility.yul\":12479:12480   */\n      dup3\n        /* \"#utility.yul\":12475:12484   */\n      add\n        /* \"#utility.yul\":12468:12484   */\n      swap1\n      pop\n        /* \"#utility.yul\":12503:12506   */\n      dup1\n        /* \"#utility.yul\":12500:12501   */\n      dup3\n        /* \"#utility.yul\":12497:12507   */\n      gt\n        /* \"#utility.yul\":12494:12530   */\n      iszero\n      tag_321\n      jumpi\n        /* \"#utility.yul\":12510:12528   */\n      tag_322\n      tag_201\n      jump\t// in\n    tag_322:\n        /* \"#utility.yul\":12494:12530   */\n    tag_321:\n        /* \"#utility.yul\":12346:12537   */\n      swap3\n      swap2\n      pop\n      pop\n      jump\t// out\n        /* \"#utility.yul\":12543:12712   */\n    tag_202:\n        /* \"#utility.yul\":12683:12704   */\n      0x4c414e3a20626964206e6f742068696768657200000000000000000000000000\n        /* \"#utility.yul\":12679:12680   */\n      0x00\n        /* \"#utility.yul\":12671:12677   */\n      dup3\n        /* \"#utility.yul\":12667:12681   */\n      add\n        /* \"#utility.yul\":12660:12705   */\n      mstore\n        /* \"#utility.yul\":12543:12712   */\n      pop\n      jump\t// out\n        /* \"#utility.yul\":12718:13084   */\n    tag_203:\n        /* \"#utility.yul\":12860:12863   */\n      0x00\n        /* \"#utility.yul\":12881:12948   */\n      tag_325\n        /* \"#utility.yul\":12945:12947   */\n      0x13\n        /* \"#utility.yul\":12940:12943   */\n      dup4\n        /* \"#utility.yul\":12881:12948   */\n      tag_188\n      jump\t// in\n    tag_325:\n        /* \"#utility.yul\":12874:12948   */\n      swap2\n      pop\n        /* \"#utility.yul\":12957:13050   */\n      tag_326\n        /* \"#utility.yul\":13046:13049   */\n      dup3\n        /* \"#utility.yul\":12957:13050   */\n      tag_202\n      jump\t// in\n    tag_326:\n        /* \"#utility.yul\":13075:13077   */\n      0x20\n        /* \"#utility.yul\":13070:13073   */\n      dup3\n        /* \"#utility.yul\":13066:13078   */\n      add\n        /* \"#utility.yul\":13059:13078   */\n      swap1\n      pop\n        /* \"#utility.yul\":12718:13084   */\n      swap2\n      swap1\n      pop\n      jump\t// out\n        /* \"#utility.yul\":13090:13509   */\n    tag_113:\n        /* \"#utility.yul\":13256:13260   */\n      0x00\n        /* \"#utility.yul\":13294:13296   */\n      0x20\n        /* \"#utility.yul\":13283:13292   */\n      dup3\n        /* \"#utility.yul\":13279:13297   */\n      add\n        /* \"#utility.yul\":13271:13297   */\n      swap1\n      pop\n        /* \"#utility.yul\":13343:13352   */\n      dup2\n        /* \"#utility.yul\":13337:13341   */\n      dup2\n        /* \"#utility.yul\":13333:13353   */\n      sub\n        /* \"#utility.yul\":13329:13330   */\n      0x00\n        /* \"#utility.yul\":13318:13327   */\n      dup4\n        /* \"#utility.yul\":13314:13331   */\n      add\n        /* \"#utility.yul\":13307:13354   */\n      mstore\n        /* \"#utility.yul\":13371:13502   */\n      tag_328\n        /* \"#utility.yul\":13497:13501   */\n      dup2\n        /* \"#utility.yul\":13371:13502   */\n      tag_203\n      jump\t// in\n    tag_328:\n        /* \"#utility.yul\":13363:13502   */\n      swap1\n      pop\n        /* \"#utility.yul\":13090:13509   */\n      swap2\n      swap1\n      pop\n      jump\t// out\n        /* \"#utility.yul\":13515:13605   */\n    tag_204:\n        /* \"#utility.yul\":13549:13556   */\n      0x00\n        /* \"#utility.yul\":13592:13597   */\n      dup2\n        /* \"#utility.yul\":13585:13598   */\n      iszero\n        /* \"#utility.yul\":13578:13599   */\n      iszero\n        /* \"#utility.yul\":13567:13599   */\n      swap1\n      pop\n        /* \"#utility.yul\":13515:13605   */\n      swap2\n      swap1\n      pop\n      jump\t// out\n        /* \"#utility.yul\":13611:13727   */\n    tag_205:\n        /* \"#utility.yul\":13681:13702   */\n      tag_331\n        /* \"#utility.yul\":13696:13701   */\n      dup2\n        /* \"#utility.yul\":13681:13702   */\n      tag_204\n      jump\t// in\n    tag_331:\n        /* \"#utility.yul\":13674:13679   */\n      dup2\n        /* \"#utility.yul\":13671:13703   */\n      eq\n        /* \"#utility.yul\":13661:13721   */\n      tag_332\n      jumpi\n        /* \"#utility.yul\":13717:13718   */\n      0x00\n        /* \"#utility.yul\":13714:13715   */\n      dup1\n        /* \"#utility.yul\":13707:13719   */\n      revert\n        /* \"#utility.yul\":13661:13721   */\n    tag_332:\n        /* \"#utility.yul\":13611:13727   */\n      pop\n      jump\t// out\n        /* \"#utility.yul\":13733:13870   */\n    tag_206:\n        /* \"#utility.yul\":13787:13792   */\n      0x00\n        /* \"#utility.yul\":13818:13824   */\n      dup2\n        /* \"#utility.yul\":13812:13825   */\n      mload\n        /* \"#utility.yul\":13803:13825   */\n      swap1\n      pop\n        /* \"#utility.yul\":13834:13864   */\n      tag_334\n        /* \"#utility.yul\":13858:13863   */\n      dup2\n        /* \"#utility.yul\":13834:13864   */\n      tag_205\n      jump\t// in\n    tag_334:\n        /* \"#utility.yul\":13733:13870   */\n      swap3\n      swap2\n      pop\n      pop\n      jump\t// out\n        /* \"#utility.yul\":13876:14221   */\n    tag_118:\n        /* \"#utility.yul\":13943:13949   */\n      0x00\n        /* \"#utility.yul\":13992:13994   */\n      0x20\n        /* \"#utility.yul\":13980:13989   */\n      dup3\n        /* \"#utility.yul\":13971:13978   */\n      dup5\n        /* \"#utility.yul\":13967:13990   */\n      sub\n        /* \"#utility.yul\":13963:13995   */\n      slt\n        /* \"#utility.yul\":13960:14079   */\n      iszero\n      tag_336\n      jumpi\n        /* \"#utility.yul\":13998:14077   */\n      tag_337\n      tag_179\n      jump\t// in\n    tag_337:\n        /* \"#utility.yul\":13960:14079   */\n    tag_336:\n        /* \"#utility.yul\":14118:14119   */\n      0x00\n        /* \"#utility.yul\":14143:14204   */\n      tag_338\n        /* \"#utility.yul\":14196:14203   */\n      dup5\n        /* \"#utility.yul\":14187:14193   */\n      dup3\n        /* \"#utility.yul\":14176:14185   */\n      dup6\n        /* \"#utility.yul\":14172:14194   */\n      add\n        /* \"#utility.yul\":14143:14204   */\n      tag_206\n      jump\t// in\n    tag_338:\n        /* \"#utility.yul\":14133:14204   */\n      swap2\n      pop\n        /* \"#utility.yul\":14089:14214   */\n      pop\n        /* \"#utility.yul\":13876:14221   */\n      swap3\n      swap2\n      pop\n      pop\n      jump\t// out\n        /* \"#utility.yul\":14227:14421   */\n    tag_120:\n        /* \"#utility.yul\":14267:14271   */\n      0x00\n        /* \"#utility.yul\":14287:14307   */\n      tag_340\n        /* \"#utility.yul\":14305:14306   */\n      dup3\n        /* \"#utility.yul\":14287:14307   */\n      tag_176\n      jump\t// in\n    tag_340:\n        /* \"#utility.yul\":14282:14307   */\n      swap2\n      pop\n        /* \"#utility.yul\":14321:14341   */\n      tag_341\n        /* \"#utility.yul\":14339:14340   */\n      dup4\n        /* \"#utility.yul\":14321:14341   */\n      tag_176\n      jump\t// in\n    tag_341:\n        /* \"#utility.yul\":14316:14341   */\n      swap3\n      pop\n        /* \"#utility.yul\":14365:14366   */\n      dup3\n        /* \"#utility.yul\":14362:14363   */\n      dup3\n        /* \"#utility.yul\":14358:14367   */\n      sub\n        /* \"#utility.yul\":14350:14367   */\n      swap1\n      pop\n        /* \"#utility.yul\":14389:14390   */\n      dup2\n        /* \"#utility.yul\":14383:14387   */\n      dup2\n        /* \"#utility.yul\":14380:14391   */\n      gt\n        /* \"#utility.yul\":14377:14414   */\n      iszero\n      tag_342\n      jumpi\n        /* \"#utility.yul\":14394:14412   */\n      tag_343\n      tag_201\n      jump\t// in\n    tag_343:\n        /* \"#utility.yul\":14377:14414   */\n    tag_342:\n        /* \"#utility.yul\":14227:14421   */\n      swap3\n      swap2\n      pop\n      pop\n      jump\t// out\n        /* \"#utility.yul\":14427:14603   */\n    tag_207:\n        /* \"#utility.yul\":14567:14595   */\n      0x4c414e3a204e6f7420746865206c617465737420626964646572000000000000\n        /* \"#utility.yul\":14563:14564   */\n      0x00\n        /* \"#utility.yul\":14555:14561   */\n      dup3\n        /* \"#utility.yul\":14551:14565   */\n      add\n        /* \"#utility.yul\":14544:14596   */\n      mstore\n        /* \"#utility.yul\":14427:14603   */\n      pop\n      jump\t// out\n        /* \"#utility.yul\":14609:14975   */\n    tag_208:\n        /* \"#utility.yul\":14751:14754   */\n      0x00\n        /* \"#utility.yul\":14772:14839   */\n      tag_346\n        /* \"#utility.yul\":14836:14838   */\n      0x1a\n        /* \"#utility.yul\":14831:14834   */\n      dup4\n        /* \"#utility.yul\":14772:14839   */\n      tag_188\n      jump\t// in\n    tag_346:\n        /* \"#utility.yul\":14765:14839   */\n      swap2\n      pop\n        /* \"#utility.yul\":14848:14941   */\n      tag_347\n        /* \"#utility.yul\":14937:14940   */\n      dup3\n        /* \"#utility.yul\":14848:14941   */\n      tag_207\n      jump\t// in\n    tag_347:\n        /* \"#utility.yul\":14966:14968   */\n      0x20\n        /* \"#utility.yul\":14961:14964   */\n      dup3\n        /* \"#utility.yul\":14957:14969   */\n      add\n        /* \"#utility.yul\":14950:14969   */\n      swap1\n      pop\n        /* \"#utility.yul\":14609:14975   */\n      swap2\n      swap1\n      pop\n      jump\t// out\n        /* \"#utility.yul\":14981:15400   */\n    tag_147:\n        /* \"#utility.yul\":15147:15151   */\n      0x00\n        /* \"#utility.yul\":15185:15187   */\n      0x20\n        /* \"#utility.yul\":15174:15183   */\n      dup3\n        /* \"#utility.yul\":15170:15188   */\n      add\n        /* \"#utility.yul\":15162:15188   */\n      swap1\n      pop\n        /* \"#utility.yul\":15234:15243   */\n      dup2\n        /* \"#utility.yul\":15228:15232   */\n      dup2\n        /* \"#utility.yul\":15224:15244   */\n      sub\n        /* \"#utility.yul\":15220:15221   */\n      0x00\n        /* \"#utility.yul\":15209:15218   */\n      dup4\n        /* \"#utility.yul\":15205:15222   */\n      add\n        /* \"#utility.yul\":15198:15245   */\n      mstore\n        /* \"#utility.yul\":15262:15393   */\n      tag_349\n        /* \"#utility.yul\":15388:15392   */\n      dup2\n        /* \"#utility.yul\":15262:15393   */\n      tag_208\n      jump\t// in\n    tag_349:\n        /* \"#utility.yul\":15254:15393   */\n      swap1\n      pop\n        /* \"#utility.yul\":14981:15400   */\n      swap2\n      swap1\n      pop\n      jump\t// out\n        /* \"#utility.yul\":15406:15579   */\n    tag_209:\n        /* \"#utility.yul\":15546:15571   */\n      0x4c414e3a2073746172742074696d6520696e2070617374000000000000000000\n        /* \"#utility.yul\":15542:15543   */\n      0x00\n        /* \"#utility.yul\":15534:15540   */\n      dup3\n        /* \"#utility.yul\":15530:15544   */\n      add\n        /* \"#utility.yul\":15523:15572   */\n      mstore\n        /* \"#utility.yul\":15406:15579   */\n      pop\n      jump\t// out\n        /* \"#utility.yul\":15585:15951   */\n    tag_210:\n        /* \"#utility.yul\":15727:15730   */\n      0x00\n        /* \"#utility.yul\":15748:15815   */\n      tag_352\n        /* \"#utility.yul\":15812:15814   */\n      0x17\n        /* \"#utility.yul\":15807:15810   */\n      dup4\n        /* \"#utility.yul\":15748:15815   */\n      tag_188\n      jump\t// in\n    tag_352:\n        /* \"#utility.yul\":15741:15815   */\n      swap2\n      pop\n        /* \"#utility.yul\":15824:15917   */\n      tag_353\n        /* \"#utility.yul\":15913:15916   */\n      dup3\n        /* \"#utility.yul\":15824:15917   */\n      tag_209\n      jump\t// in\n    tag_353:\n        /* \"#utility.yul\":15942:15944   */\n      0x20\n        /* \"#utility.yul\":15937:15940   */\n      dup3\n        /* \"#utility.yul\":15933:15945   */\n      add\n        /* \"#utility.yul\":15926:15945   */\n      swap1\n      pop\n        /* \"#utility.yul\":15585:15951   */\n      swap2\n      swap1\n      pop\n      jump\t// out\n        /* \"#utility.yul\":15957:16376   */\n    tag_153:\n        /* \"#utility.yul\":16123:16127   */\n      0x00\n        /* \"#utility.yul\":16161:16163   */\n      0x20\n        /* \"#utility.yul\":16150:16159   */\n      dup3\n        /* \"#utility.yul\":16146:16164   */\n      add\n        /* \"#utility.yul\":16138:16164   */\n      swap1\n      pop\n        /* \"#utility.yul\":16210:16219   */\n      dup2\n        /* \"#utility.yul\":16204:16208   */\n      dup2\n        /* \"#utility.yul\":16200:16220   */\n      sub\n        /* \"#utility.yul\":16196:16197   */\n      0x00\n        /* \"#utility.yul\":16185:16194   */\n      dup4\n        /* \"#utility.yul\":16181:16198   */\n      add\n        /* \"#utility.yul\":16174:16221   */\n      mstore\n        /* \"#utility.yul\":16238:16369   */\n      tag_355\n        /* \"#utility.yul\":16364:16368   */\n      dup2\n        /* \"#utility.yul\":16238:16369   */\n      tag_210\n      jump\t// in\n    tag_355:\n        /* \"#utility.yul\":16230:16369   */\n      swap1\n      pop\n        /* \"#utility.yul\":15957:16376   */\n      swap2\n      swap1\n      pop\n      jump\t// out\n        /* \"#utility.yul\":16382:16552   */\n    tag_211:\n        /* \"#utility.yul\":16522:16544   */\n      0x4c414e3a20737461727420616674657220656e64000000000000000000000000\n        /* \"#utility.yul\":16518:16519   */\n      0x00\n        /* \"#utility.yul\":16510:16516   */\n      dup3\n        /* \"#utility.yul\":16506:16520   */\n      add\n        /* \"#utility.yul\":16499:16545   */\n      mstore\n        /* \"#utility.yul\":16382:16552   */\n      pop\n      jump\t// out\n        /* \"#utility.yul\":16558:16924   */\n    tag_212:\n        /* \"#utility.yul\":16700:16703   */\n      0x00\n        /* \"#utility.yul\":16721:16788   */\n      tag_358\n        /* \"#utility.yul\":16785:16787   */\n      0x14\n        /* \"#utility.yul\":16780:16783   */\n      dup4\n        /* \"#utility.yul\":16721:16788   */\n      tag_188\n      jump\t// in\n    tag_358:\n        /* \"#utility.yul\":16714:16788   */\n      swap2\n      pop\n        /* \"#utility.yul\":16797:16890   */\n      tag_359\n        /* \"#utility.yul\":16886:16889   */\n      dup3\n        /* \"#utility.yul\":16797:16890   */\n      tag_211\n      jump\t// in\n    tag_359:\n        /* \"#utility.yul\":16915:16917   */\n      0x20\n        /* \"#utility.yul\":16910:16913   */\n      dup3\n        /* \"#utility.yul\":16906:16918   */\n      add\n        /* \"#utility.yul\":16899:16918   */\n      swap1\n      pop\n        /* \"#utility.yul\":16558:16924   */\n      swap2\n      swap1\n      pop\n      jump\t// out\n        /* \"#utility.yul\":16930:17349   */\n    tag_156:\n        /* \"#utility.yul\":17096:17100   */\n      0x00\n        /* \"#utility.yul\":17134:17136   */\n      0x20\n        /* \"#utility.yul\":17123:17132   */\n      dup3\n        /* \"#utility.yul\":17119:17137   */\n      add\n        /* \"#utility.yul\":17111:17137   */\n      swap1\n      pop\n        /* \"#utility.yul\":17183:17192   */\n      dup2\n        /* \"#utility.yul\":17177:17181   */\n      dup2\n        /* \"#utility.yul\":17173:17193   */\n      sub\n        /* \"#utility.yul\":17169:17170   */\n      0x00\n        /* \"#utility.yul\":17158:17167   */\n      dup4\n        /* \"#utility.yul\":17154:17171   */\n      add\n        /* \"#utility.yul\":17147:17194   */\n      mstore\n        /* \"#utility.yul\":17211:17342   */\n      tag_361\n        /* \"#utility.yul\":17337:17341   */\n      dup2\n        /* \"#utility.yul\":17211:17342   */\n      tag_212\n      jump\t// in\n    tag_361:\n        /* \"#utility.yul\":17203:17342   */\n      swap1\n      pop\n        /* \"#utility.yul\":16930:17349   */\n      swap2\n      swap1\n      pop\n      jump\t// out\n        /* \"#utility.yul\":17355:17687   */\n    tag_158:\n        /* \"#utility.yul\":17476:17480   */\n      0x00\n        /* \"#utility.yul\":17514:17516   */\n      0x40\n        /* \"#utility.yul\":17503:17512   */\n      dup3\n        /* \"#utility.yul\":17499:17517   */\n      add\n        /* \"#utility.yul\":17491:17517   */\n      swap1\n      pop\n        /* \"#utility.yul\":17527:17598   */\n      tag_363\n        /* \"#utility.yul\":17595:17596   */\n      0x00\n        /* \"#utility.yul\":17584:17593   */\n      dup4\n        /* \"#utility.yul\":17580:17597   */\n      add\n        /* \"#utility.yul\":17571:17577   */\n      dup6\n        /* \"#utility.yul\":17527:17598   */\n      tag_185\n      jump\t// in\n    tag_363:\n        /* \"#utility.yul\":17608:17680   */\n      tag_364\n        /* \"#utility.yul\":17676:17678   */\n      0x20\n        /* \"#utility.yul\":17665:17674   */\n      dup4\n        /* \"#utility.yul\":17661:17679   */\n      add\n        /* \"#utility.yul\":17652:17658   */\n      dup5\n        /* \"#utility.yul\":17608:17680   */\n      tag_177\n      jump\t// in\n    tag_364:\n        /* \"#utility.yul\":17355:17687   */\n      swap4\n      swap3\n      pop\n      pop\n      pop\n      jump\t// out\n        /* \"#utility.yul\":17693:17926   */\n    tag_160:\n        /* \"#utility.yul\":17732:17735   */\n      0x00\n        /* \"#utility.yul\":17755:17779   */\n      tag_366\n        /* \"#utility.yul\":17773:17778   */\n      dup3\n        /* \"#utility.yul\":17755:17779   */\n      tag_176\n      jump\t// in\n    tag_366:\n        /* \"#utility.yul\":17746:17779   */\n      swap2\n      pop\n        /* \"#utility.yul\":17801:17867   */\n      0xffffffffffffffffffffffffffffffffffffffffffffffffffffffffffffffff\n        /* \"#utility.yul\":17794:17799   */\n      dup3\n        /* \"#utility.yul\":17791:17868   */\n      sub\n        /* \"#utility.yul\":17788:17891   */\n      tag_367\n      jumpi\n        /* \"#utility.yul\":17871:17889   */\n      tag_368\n      tag_201\n      jump\t// in\n    tag_368:\n        /* \"#utility.yul\":17788:17891   */\n    tag_367:\n        /* \"#utility.yul\":17918:17919   */\n      0x01\n        /* \"#utility.yul\":17911:17916   */\n      dup3\n        /* \"#utility.yul\":17907:17920   */\n      add\n        /* \"#utility.yul\":17900:17920   */\n      swap1\n      pop\n        /* \"#utility.yul\":17693:17926   */\n      swap2\n      swap1\n      pop\n      jump\t// out\n        /* \"#utility.yul\":17932:18280   */\n    tag_170:\n        /* \"#utility.yul\":17972:17979   */\n      0x00\n        /* \"#utility.yul\":17995:18015   */\n      tag_370\n        /* \"#utility.yul\":18013:18014   */\n      dup3\n        /* \"#utility.yul\":17995:18015   */\n      tag_176\n      jump\t// in\n    tag_370:\n        /* \"#utility.yul\":17990:18015   */\n      swap2\n      pop\n        /* \"#utility.yul\":18029:18049   */\n      tag_371\n        /* \"#utility.yul\":18047:18048   */\n      dup4\n        /* \"#utility.yul\":18029:18049   */\n      tag_176\n      jump\t// in\n    tag_371:\n        /* \"#utility.yul\":18024:18049   */\n      swap3\n      pop\n        /* \"#utility.yul\":18217:18218   */\n      dup2\n        /* \"#utility.yul\":18149:18215   */\n      0xffffffffffffffffffffffffffffffffffffffffffffffffffffffffffffffff\n        /* \"#utility.yul\":18145:18219   */\n      div\n        /* \"#utility.yul\":18142:18143   */\n      dup4\n        /* \"#utility.yul\":18139:18220   */\n      gt\n        /* \"#utility.yul\":18134:18135   */\n      dup3\n        /* \"#utility.yul\":18127:18136   */\n      iszero\n        /* \"#utility.yul\":18120:18137   */\n      iszero\n        /* \"#utility.yul\":18116:18221   */\n      and\n        /* \"#utility.yul\":18113:18244   */\n      iszero\n      tag_372\n      jumpi\n        /* \"#utility.yul\":18224:18242   */\n      tag_373\n      tag_201\n      jump\t// in\n    tag_373:\n        /* \"#utility.yul\":18113:18244   */\n    tag_372:\n        /* \"#utility.yul\":18272:18273   */\n      dup3\n        /* \"#utility.yul\":18269:18270   */\n      dup3\n        /* \"#utility.yul\":18265:18274   */\n      mul\n        /* \"#utility.yul\":18254:18274   */\n      swap1\n      pop\n        /* \"#utility.yul\":17932:18280   */\n      swap3\n      swap2\n      pop\n      pop\n      jump\t// out\n        /* \"#utility.yul\":18286:18466   */\n    tag_213:\n        /* \"#utility.yul\":18334:18411   */\n      0x4e487b7100000000000000000000000000000000000000000000000000000000\n        /* \"#utility.yul\":18331:18332   */\n      0x00\n        /* \"#utility.yul\":18324:18412   */\n      mstore\n        /* \"#utility.yul\":18431:18435   */\n      0x12\n        /* \"#utility.yul\":18428:18429   */\n      0x04\n        /* \"#utility.yul\":18421:18436   */\n      mstore\n        /* \"#utility.yul\":18455:18459   */\n      0x24\n        /* \"#utility.yul\":18452:18453   */\n      0x00\n        /* \"#utility.yul\":18445:18460   */\n      revert\n        /* \"#utility.yul\":18472:18657   */\n    tag_172:\n        /* \"#utility.yul\":18512:18513   */\n      0x00\n        /* \"#utility.yul\":18529:18549   */\n      tag_376\n        /* \"#utility.yul\":18547:18548   */\n      dup3\n        /* \"#utility.yul\":18529:18549   */\n      tag_176\n      jump\t// in\n    tag_376:\n        /* \"#utility.yul\":18524:18549   */\n      swap2\n      pop\n        /* \"#utility.yul\":18563:18583   */\n      tag_377\n        /* \"#utility.yul\":18581:18582   */\n      dup4\n        /* \"#utility.yul\":18563:18583   */\n      tag_176\n      jump\t// in\n    tag_377:\n        /* \"#utility.yul\":18558:18583   */\n      swap3\n      pop\n        /* \"#utility.yul\":18602:18603   */\n      dup3\n        /* \"#utility.yul\":18592:18627   */\n      tag_378\n      jumpi\n        /* \"#utility.yul\":18607:18625   */\n      tag_379\n      tag_213\n      jump\t// in\n    tag_379:\n        /* \"#utility.yul\":18592:18627   */\n    tag_378:\n        /* \"#utility.yul\":18649:18650   */\n      dup3\n        /* \"#utility.yul\":18646:18647   */\n      dup3\n        /* \"#utility.yul\":18642:18651   */\n      div\n        /* \"#utility.yul\":18637:18651   */\n      swap1\n      pop\n        /* \"#utility.yul\":18472:18657   */\n      swap3\n      swap2\n      pop\n      pop\n      jump\t// out\n\n    auxdata: 0xa264697066735822122080097ec0c21444bded3760dd053e76607fd54b110576927feb2240b65a1f14ea64736f6c63430008100033\n}\n",
				"bytecode": {
					"linkReferences": {},
					"object": "608060405234801561001057600080fd5b506127e4806100206000396000f3fe608060405234801561001057600080fd5b50600436106100a95760003560e01c80637870860b116100715780637870860b1461013c5780637b3c4baa146101585780638f769f3a1461018a5780639bea77da146101a6578063e1ec3c68146101d6578063e7e4dfcd1461020d576100a9565b806306661abd146100ae57806318de4f9d146100cc57806340e58ee5146100e8578063415f124014610104578063598647f814610120575b600080fd5b6100b6610229565b6040516100c39190611e44565b60405180910390f35b6100e660048036038101906100e19190611e90565b61022f565b005b61010260048036038101906100fd9190611e90565b61060d565b005b61011e60048036038101906101199190611e90565b610895565b005b61013a60048036038101906101359190611ebd565b610bc9565b005b61015660048036038101906101519190611e90565b611039565b005b610172600480360381019061016d9190611ebd565b6113ea565b60405161018193929190611f3e565b60405180910390f35b6101a4600480360381019061019f9190611fa1565b611441565b005b6101c060048036038101906101bb9190611ebd565b611730565b6040516101cd9190611fe1565b60405180910390f35b6101f060048036038101906101eb9190611e90565b61177e565b604051610204989796959493929190611ffc565b60405180910390f35b6102276004803603810190610222919061207a565b611826565b005b60005481565b803373ffffffffffffffffffffffffffffffffffffffff166001600083815260200190815260200160002060000160009054906101000a900473ffffffffffffffffffffffffffffffffffffffff1673ffffffffffffffffffffffffffffffffffffffff16146102d4576040517f08c379a00000000000000000000000000000000000000000000000000000000081526004016102cb90612164565b60405180910390fd5b600060016000848152602001908152602001600020604051806101000160405290816000820160009054906101000a900473ffffffffffffffffffffffffffffffffffffffff1673ffffffffffffffffffffffffffffffffffffffff1673ffffffffffffffffffffffffffffffffffffffff1681526020016001820160009054906101000a900473ffffffffffffffffffffffffffffffffffffffff1673ffffffffffffffffffffffffffffffffffffffff1673ffffffffffffffffffffffffffffffffffffffff1681526020016002820160009054906101000a900473ffffffffffffffffffffffffffffffffffffffff1673ffffffffffffffffffffffffffffffffffffffff1673ffffffffffffffffffffffffffffffffffffffff16815260200160038201548152602001600482015481526020016005820154815260200160068201548152602001600782015481525050905061043483611ace565b610473576040517f08c379a000000000000000000000000000000000000000000000000000000000815260040161046a906121d0565b60405180910390fd5b60006002600085815260200190815260200160002060008360e00151815260200190815260200160002060405180606001604052908160008201548152602001600182015481526020016002820160009054906101000a900473ffffffffffffffffffffffffffffffffffffffff1673ffffffffffffffffffffffffffffffffffffffff1673ffffffffffffffffffffffffffffffffffffffff168152505090503373ffffffffffffffffffffffffffffffffffffffff16816040015173ffffffffffffffffffffffffffffffffffffffff1614610586576040517f08c379a000000000000000000000000000000000000000000000000000000000815260040161057d9061223c565b60405180910390fd5b6000826040015190508073ffffffffffffffffffffffffffffffffffffffff166342842e0e30846040015186606001516040518463ffffffff1660e01b81526004016105d49392919061225c565b600060405180830381600087803b1580156105ee57600080fd5b505af1158015610602573d6000803e3d6000fd5b505050505050505050565b803373ffffffffffffffffffffffffffffffffffffffff166001600083815260200190815260200160002060000160009054906101000a900473ffffffffffffffffffffffffffffffffffffffff1673ffffffffffffffffffffffffffffffffffffffff16146106b2576040517f08c379a00000000000000000000000000000000000000000000000000000000081526004016106a990612164565b60405180910390fd5b600060016000848152602001908152602001600020604051806101000160405290816000820160009054906101000a900473ffffffffffffffffffffffffffffffffffffffff1673ffffffffffffffffffffffffffffffffffffffff1673ffffffffffffffffffffffffffffffffffffffff1681526020016001820160009054906101000a900473ffffffffffffffffffffffffffffffffffffffff1673ffffffffffffffffffffffffffffffffffffffff1673ffffffffffffffffffffffffffffffffffffffff1681526020016002820160009054906101000a900473ffffffffffffffffffffffffffffffffffffffff1673ffffffffffffffffffffffffffffffffffffffff1673ffffffffffffffffffffffffffffffffffffffff1681526020016003820154815260200160048201548152602001600582015481526020016006820154815260200160078201548152505090504281608001511161084f576040517f08c379a0000000000000000000000000000000000000000000000000000000008152600401610846906122df565b60405180910390fd5b610857611da4565b90507ffe785ef891129b084b1c5a30e4d88eb97c97822c024cc25d5f9d806b897512e0836040516108889190611e44565b60405180910390a1505050565b600060016000838152602001908152602001600020604051806101000160405290816000820160009054906101000a900473ffffffffffffffffffffffffffffffffffffffff1673ffffffffffffffffffffffffffffffffffffffff1673ffffffffffffffffffffffffffffffffffffffff1681526020016001820160009054906101000a900473ffffffffffffffffffffffffffffffffffffffff1673ffffffffffffffffffffffffffffffffffffffff1673ffffffffffffffffffffffffffffffffffffffff1681526020016002820160009054906101000a900473ffffffffffffffffffffffffffffffffffffffff1673ffffffffffffffffffffffffffffffffffffffff1673ffffffffffffffffffffffffffffffffffffffff1681526020016003820154815260200160048201548152602001600582015481526020016006820154815260200160078201548152505090506109f582611ace565b610a34576040517f08c379a0000000000000000000000000000000000000000000000000000000008152600401610a2b906121d0565b60405180910390fd5b60006002600084815260200190815260200160002060008360e00151815260200190815260200160002060405180606001604052908160008201548152602001600182015481526020016002820160009054906101000a900473ffffffffffffffffffffffffffffffffffffffff1673ffffffffffffffffffffffffffffffffffffffff1673ffffffffffffffffffffffffffffffffffffffff168152505090503373ffffffffffffffffffffffffffffffffffffffff16816040015173ffffffffffffffffffffffffffffffffffffffff1614610b47576040517f08c379a0000000000000000000000000000000000000000000000000000000008152600401610b3e9061223c565b60405180910390fd5b6000826040015190508073ffffffffffffffffffffffffffffffffffffffff166342842e0e303386606001516040518463ffffffff1660e01b8152600401610b919392919061225c565b600060405180830381600087803b158015610bab57600080fd5b505af1158015610bbf573d6000803e3d6000fd5b5050505050505050565b610bd282611af1565b610c11576040517f08c379a0000000000000000000000000000000000000000000000000000000008152600401610c089061234b565b60405180910390fd5b610c1a82611ace565b15610c5a576040517f08c379a0000000000000000000000000000000000000000000000000000000008152600401610c51906123b7565b60405180910390fd5b600060016000848152602001908152602001600020604051806101000160405290816000820160009054906101000a900473ffffffffffffffffffffffffffffffffffffffff1673ffffffffffffffffffffffffffffffffffffffff1673ffffffffffffffffffffffffffffffffffffffff1681526020016001820160009054906101000a900473ffffffffffffffffffffffffffffffffffffffff1673ffffffffffffffffffffffffffffffffffffffff1673ffffffffffffffffffffffffffffffffffffffff1681526020016002820160009054906101000a900473ffffffffffffffffffffffffffffffffffffffff1673ffffffffffffffffffffffffffffffffffffffff1673ffffffffffffffffffffffffffffffffffffffff168152602001600382015481526020016004820154815260200160058201548152602001600682015481526020016007820154815250509050600060018260e00151610dc49190612406565b9050808260e00181815250506000610ddb85611b13565b9050808411610e1f576040517f08c379a0000000000000000000000000000000000000000000000000000000008152600401610e1690612486565b60405180910390fd5b826020015173ffffffffffffffffffffffffffffffffffffffff166323b872dd3360026000898152602001908152602001600020600086815260200190815260200160002060020160009054906101000a900473ffffffffffffffffffffffffffffffffffffffff16846040518463ffffffff1660e01b8152600401610ea79392919061225c565b6020604051808303816000875af1158015610ec6573d6000803e3d6000fd5b505050506040513d601f19601f82011682018060405250810190610eea91906124de565b50826020015173ffffffffffffffffffffffffffffffffffffffff166323b872dd3385600001518488610f1d919061250b565b6040518463ffffffff1660e01b8152600401610f3b9392919061225c565b6020604051808303816000875af1158015610f5a573d6000803e3d6000fd5b505050506040513d601f19601f82011682018060405250810190610f7e91906124de565b5060405180606001604052804281526020018581526020013373ffffffffffffffffffffffffffffffffffffffff16815250600260008781526020019081526020016000206000848152602001908152602001600020600082015181600001556020820151816001015560408201518160020160006101000a81548173ffffffffffffffffffffffffffffffffffffffff021916908373ffffffffffffffffffffffffffffffffffffffff1602179055509050505050505050565b803373ffffffffffffffffffffffffffffffffffffffff166001600083815260200190815260200160002060000160009054906101000a900473ffffffffffffffffffffffffffffffffffffffff1673ffffffffffffffffffffffffffffffffffffffff16146110de576040517f08c379a00000000000000000000000000000000000000000000000000000000081526004016110d590612164565b60405180910390fd5b600060016000848152602001908152602001600020604051806101000160405290816000820160009054906101000a900473ffffffffffffffffffffffffffffffffffffffff1673ffffffffffffffffffffffffffffffffffffffff1673ffffffffffffffffffffffffffffffffffffffff1681526020016001820160009054906101000a900473ffffffffffffffffffffffffffffffffffffffff1673ffffffffffffffffffffffffffffffffffffffff1673ffffffffffffffffffffffffffffffffffffffff1681526020016002820160009054906101000a900473ffffffffffffffffffffffffffffffffffffffff1673ffffffffffffffffffffffffffffffffffffffff1673ffffffffffffffffffffffffffffffffffffffff16815260200160038201548152602001600482015481526020016005820154815260200160068201548152602001600782015481525050905060006002600085815260200190815260200160002060008360e00151815260200190815260200160002060405180606001604052908160008201548152602001600182015481526020016002820160009054906101000a900473ffffffffffffffffffffffffffffffffffffffff1673ffffffffffffffffffffffffffffffffffffffff1673ffffffffffffffffffffffffffffffffffffffff16815250509050816020015173ffffffffffffffffffffffffffffffffffffffff166323b872dd33836040015161130588611b13565b6040518463ffffffff1660e01b81526004016113239392919061225c565b6020604051808303816000875af1158015611342573d6000803e3d6000fd5b505050506040513d601f19601f8201168201806040525081019061136691906124de565b506000826040015190508073ffffffffffffffffffffffffffffffffffffffff166342842e0e303386606001516040518463ffffffff1660e01b81526004016113b19392919061225c565b600060405180830381600087803b1580156113cb57600080fd5b505af11580156113df573d6000803e3d6000fd5b505050505050505050565b6002602052816000526040600020602052806000526040600020600091509150508060000154908060010154908060020160009054906101000a900473ffffffffffffffffffffffffffffffffffffffff16905083565b61144a82611af1565b611489576040517f08c379a00000000000000000000000000000000000000000000000000000000081526004016114809061234b565b60405180910390fd5b61149282611ace565b156114d2576040517f08c379a00000000000000000000000000000000000000000000000000000000081526004016114c9906123b7565b60405180910390fd5b600060016000848152602001908152602001600020604051806101000160405290816000820160009054906101000a900473ffffffffffffffffffffffffffffffffffffffff1673ffffffffffffffffffffffffffffffffffffffff1673ffffffffffffffffffffffffffffffffffffffff1681526020016001820160009054906101000a900473ffffffffffffffffffffffffffffffffffffffff1673ffffffffffffffffffffffffffffffffffffffff1673ffffffffffffffffffffffffffffffffffffffff1681526020016002820160009054906101000a900473ffffffffffffffffffffffffffffffffffffffff1673ffffffffffffffffffffffffffffffffffffffff1673ffffffffffffffffffffffffffffffffffffffff16815260200160038201548152602001600482015481526020016005820154815260200160068201548152602001600782015481525050905060006002600085815260200190815260200160002060008360e00151815260200190815260200160002090503373ffffffffffffffffffffffffffffffffffffffff168160020160009054906101000a900473ffffffffffffffffffffffffffffffffffffffff1673ffffffffffffffffffffffffffffffffffffffff16146116e7576040517f08c379a00000000000000000000000000000000000000000000000000000000081526004016116de9061258b565b60405180910390fd5b828160020160006101000a81548173ffffffffffffffffffffffffffffffffffffffff021916908373ffffffffffffffffffffffffffffffffffffffff16021790555050505050565b6003602052816000526040600020818154811061174c57600080fd5b906000526020600020016000915091509054906101000a900473ffffffffffffffffffffffffffffffffffffffff1681565b60016020528060005260406000206000915090508060000160009054906101000a900473ffffffffffffffffffffffffffffffffffffffff16908060010160009054906101000a900473ffffffffffffffffffffffffffffffffffffffff16908060020160009054906101000a900473ffffffffffffffffffffffffffffffffffffffff16908060030154908060040154908060050154908060060154908060070154905088565b42831015611869576040517f08c379a0000000000000000000000000000000000000000000000000000000008152600401611860906125f7565b60405180910390fd5b8282116118ab576040517f08c379a00000000000000000000000000000000000000000000000000000000081526004016118a290612663565b60405180910390fd5b6040518061010001604052803373ffffffffffffffffffffffffffffffffffffffff1681526020018773ffffffffffffffffffffffffffffffffffffffff1681526020018673ffffffffffffffffffffffffffffffffffffffff1681526020018581526020018481526020018381526020018281526020016000815250600160008054815260200190815260200160002060008201518160000160006101000a81548173ffffffffffffffffffffffffffffffffffffffff021916908373ffffffffffffffffffffffffffffffffffffffff16021790555060208201518160010160006101000a81548173ffffffffffffffffffffffffffffffffffffffff021916908373ffffffffffffffffffffffffffffffffffffffff16021790555060408201518160020160006101000a81548173ffffffffffffffffffffffffffffffffffffffff021916908373ffffffffffffffffffffffffffffffffffffffff160217905550606082015181600301556080820151816004015560a0820151816005015560c0820151816006015560e082015181600701559050504260026000805481526020019081526020016000206000808152602001908152602001600020600001819055506000547fef8b2952c43462575e82711d0cc91169720a4589a9fa533d173e022437f5405e8686604051611aa7929190612683565b60405180910390a2600080815480929190611ac1906126ac565b9190505550505050505050565b600042600160008481526020019081526020016000206005015411159050919050565b6000426001600084815260200190815260200160002060040154109050919050565b60008060016000848152602001908152602001600020604051806101000160405290816000820160009054906101000a900473ffffffffffffffffffffffffffffffffffffffff1673ffffffffffffffffffffffffffffffffffffffff1673ffffffffffffffffffffffffffffffffffffffff1681526020016001820160009054906101000a900473ffffffffffffffffffffffffffffffffffffffff1673ffffffffffffffffffffffffffffffffffffffff1673ffffffffffffffffffffffffffffffffffffffff1681526020016002820160009054906101000a900473ffffffffffffffffffffffffffffffffffffffff1673ffffffffffffffffffffffffffffffffffffffff1673ffffffffffffffffffffffffffffffffffffffff16815260200160038201548152602001600482015481526020016005820154815260200160068201548152602001600782015481525050905060006002600085815260200190815260200160002060008360e00151815260200190815260200160002060405180606001604052908160008201548152602001600182015481526020016002820160009054906101000a900473ffffffffffffffffffffffffffffffffffffffff1673ffffffffffffffffffffffffffffffffffffffff1673ffffffffffffffffffffffffffffffffffffffff168152505090506000611d1785611ace565b15611d37578260a001518260000151611d30919061250b565b9050611d4a565b428260000151611d47919061250b565b90505b6301e1338081670de0b6b3a76400008560c001518560200151611d6d91906126f4565b611d77919061277d565b611d8191906126f4565b611d8b919061277d565b8260200151611d9a9190612406565b9350505050919050565b604051806101000160405280600073ffffffffffffffffffffffffffffffffffffffff168152602001600073ffffffffffffffffffffffffffffffffffffffff168152602001600073ffffffffffffffffffffffffffffffffffffffff16815260200160008152602001600081526020016000815260200160008152602001600081525090565b6000819050919050565b611e3e81611e2b565b82525050565b6000602082019050611e596000830184611e35565b92915050565b600080fd5b611e6d81611e2b565b8114611e7857600080fd5b50565b600081359050611e8a81611e64565b92915050565b600060208284031215611ea657611ea5611e5f565b5b6000611eb484828501611e7b565b91505092915050565b60008060408385031215611ed457611ed3611e5f565b5b6000611ee285828601611e7b565b9250506020611ef385828601611e7b565b9150509250929050565b600073ffffffffffffffffffffffffffffffffffffffff82169050919050565b6000611f2882611efd565b9050919050565b611f3881611f1d565b82525050565b6000606082019050611f536000830186611e35565b611f606020830185611e35565b611f6d6040830184611f2f565b949350505050565b611f7e81611f1d565b8114611f8957600080fd5b50565b600081359050611f9b81611f75565b92915050565b60008060408385031215611fb857611fb7611e5f565b5b6000611fc685828601611e7b565b9250506020611fd785828601611f8c565b9150509250929050565b6000602082019050611ff66000830184611f2f565b92915050565b600061010082019050612012600083018b611f2f565b61201f602083018a611f2f565b61202c6040830189611f2f565b6120396060830188611e35565b6120466080830187611e35565b61205360a0830186611e35565b61206060c0830185611e35565b61206d60e0830184611e35565b9998505050505050505050565b60008060008060008060c0878903121561209757612096611e5f565b5b60006120a589828a01611f8c565b96505060206120b689828a01611f8c565b95505060406120c789828a01611e7b565b94505060606120d889828a01611e7b565b93505060806120e989828a01611e7b565b92505060a06120fa89828a01611e7b565b9150509295509295509295565b600082825260208201905092915050565b7f4c414e3a206e6f74206f776e6572000000000000000000000000000000000000600082015250565b600061214e600e83612107565b915061215982612118565b602082019050919050565b6000602082019050818103600083015261217d81612141565b9050919050565b7f4c414e3a206c6f616e206e6f7420656e64656400000000000000000000000000600082015250565b60006121ba601383612107565b91506121c582612184565b602082019050919050565b600060208201905081810360008301526121e9816121ad565b9050919050565b7f4c414e3a206e6f74206c61746573742062696464657200000000000000000000600082015250565b6000612226601683612107565b9150612231826121f0565b602082019050919050565b6000602082019050818103600083015261225581612219565b9050919050565b60006060820190506122716000830186611f2f565b61227e6020830185611f2f565b61228b6040830184611e35565b949350505050565b7f4c414e3a20616c72656164792073746172746564000000000000000000000000600082015250565b60006122c9601483612107565b91506122d482612293565b602082019050919050565b600060208201905081810360008301526122f8816122bc565b9050919050565b7f4c414e3a206e6f74207374617274656400000000000000000000000000000000600082015250565b6000612335601083612107565b9150612340826122ff565b602082019050919050565b6000602082019050818103600083015261236481612328565b9050919050565b7f4c414e3a20616c726561647920656e6465640000000000000000000000000000600082015250565b60006123a1601283612107565b91506123ac8261236b565b602082019050919050565b600060208201905081810360008301526123d081612394565b9050919050565b7f4e487b7100000000000000000000000000000000000000000000000000000000600052601160045260246000fd5b600061241182611e2b565b915061241c83611e2b565b9250828201905080821115612434576124336123d7565b5b92915050565b7f4c414e3a20626964206e6f742068696768657200000000000000000000000000600082015250565b6000612470601383612107565b915061247b8261243a565b602082019050919050565b6000602082019050818103600083015261249f81612463565b9050919050565b60008115159050919050565b6124bb816124a6565b81146124c657600080fd5b50565b6000815190506124d8816124b2565b92915050565b6000602082840312156124f4576124f3611e5f565b5b6000612502848285016124c9565b91505092915050565b600061251682611e2b565b915061252183611e2b565b9250828203905081811115612539576125386123d7565b5b92915050565b7f4c414e3a204e6f7420746865206c617465737420626964646572000000000000600082015250565b6000612575601a83612107565b91506125808261253f565b602082019050919050565b600060208201905081810360008301526125a481612568565b9050919050565b7f4c414e3a2073746172742074696d6520696e2070617374000000000000000000600082015250565b60006125e1601783612107565b91506125ec826125ab565b602082019050919050565b60006020820190508181036000830152612610816125d4565b9050919050565b7f4c414e3a20737461727420616674657220656e64000000000000000000000000600082015250565b600061264d601483612107565b915061265882612617565b602082019050919050565b6000602082019050818103600083015261267c81612640565b9050919050565b60006040820190506126986000830185611f2f565b6126a56020830184611e35565b9392505050565b60006126b782611e2b565b91507fffffffffffffffffffffffffffffffffffffffffffffffffffffffffffffffff82036126e9576126e86123d7565b5b600182019050919050565b60006126ff82611e2b565b915061270a83611e2b565b9250817fffffffffffffffffffffffffffffffffffffffffffffffffffffffffffffffff0483118215151615612743576127426123d7565b5b828202905092915050565b7f4e487b7100000000000000000000000000000000000000000000000000000000600052601260045260246000fd5b600061278882611e2b565b915061279383611e2b565b9250826127a3576127a261274e565b5b82820490509291505056fea264697066735822122080097ec0c21444bded3760dd053e76607fd54b110576927feb2240b65a1f14ea64736f6c63430008100033",
					"opcodes": "PUSH1 0x80 PUSH1 0x40 MSTORE CALLVALUE DUP1 ISZERO PUSH2 0x10 JUMPI PUSH1 0x0 DUP1 REVERT JUMPDEST POP PUSH2 0x27E4 DUP1 PUSH2 0x20 PUSH1 0x0 CODECOPY PUSH1 0x0 RETURN INVALID PUSH1 0x80 PUSH1 0x40 MSTORE CALLVALUE DUP1 ISZERO PUSH2 0x10 JUMPI PUSH1 0x0 DUP1 REVERT JUMPDEST POP PUSH1 0x4 CALLDATASIZE LT PUSH2 0xA9 JUMPI PUSH1 0x0 CALLDATALOAD PUSH1 0xE0 SHR DUP1 PUSH4 0x7870860B GT PUSH2 0x71 JUMPI DUP1 PUSH4 0x7870860B EQ PUSH2 0x13C JUMPI DUP1 PUSH4 0x7B3C4BAA EQ PUSH2 0x158 JUMPI DUP1 PUSH4 0x8F769F3A EQ PUSH2 0x18A JUMPI DUP1 PUSH4 0x9BEA77DA EQ PUSH2 0x1A6 JUMPI DUP1 PUSH4 0xE1EC3C68 EQ PUSH2 0x1D6 JUMPI DUP1 PUSH4 0xE7E4DFCD EQ PUSH2 0x20D JUMPI PUSH2 0xA9 JUMP JUMPDEST DUP1 PUSH4 0x6661ABD EQ PUSH2 0xAE JUMPI DUP1 PUSH4 0x18DE4F9D EQ PUSH2 0xCC JUMPI DUP1 PUSH4 0x40E58EE5 EQ PUSH2 0xE8 JUMPI DUP1 PUSH4 0x415F1240 EQ PUSH2 0x104 JUMPI DUP1 PUSH4 0x598647F8 EQ PUSH2 0x120 JUMPI JUMPDEST PUSH1 0x0 DUP1 REVERT JUMPDEST PUSH2 0xB6 PUSH2 0x229 JUMP JUMPDEST PUSH1 0x40 MLOAD PUSH2 0xC3 SWAP2 SWAP1 PUSH2 0x1E44 JUMP JUMPDEST PUSH1 0x40 MLOAD DUP1 SWAP2 SUB SWAP1 RETURN JUMPDEST PUSH2 0xE6 PUSH1 0x4 DUP1 CALLDATASIZE SUB DUP2 ADD SWAP1 PUSH2 0xE1 SWAP2 SWAP1 PUSH2 0x1E90 JUMP JUMPDEST PUSH2 0x22F JUMP JUMPDEST STOP JUMPDEST PUSH2 0x102 PUSH1 0x4 DUP1 CALLDATASIZE SUB DUP2 ADD SWAP1 PUSH2 0xFD SWAP2 SWAP1 PUSH2 0x1E90 JUMP JUMPDEST PUSH2 0x60D JUMP JUMPDEST STOP JUMPDEST PUSH2 0x11E PUSH1 0x4 DUP1 CALLDATASIZE SUB DUP2 ADD SWAP1 PUSH2 0x119 SWAP2 SWAP1 PUSH2 0x1E90 JUMP JUMPDEST PUSH2 0x895 JUMP JUMPDEST STOP JUMPDEST PUSH2 0x13A PUSH1 0x4 DUP1 CALLDATASIZE SUB DUP2 ADD SWAP1 PUSH2 0x135 SWAP2 SWAP1 PUSH2 0x1EBD JUMP JUMPDEST PUSH2 0xBC9 JUMP JUMPDEST STOP JUMPDEST PUSH2 0x156 PUSH1 0x4 DUP1 CALLDATASIZE SUB DUP2 ADD SWAP1 PUSH2 0x151 SWAP2 SWAP1 PUSH2 0x1E90 JUMP JUMPDEST PUSH2 0x1039 JUMP JUMPDEST STOP JUMPDEST PUSH2 0x172 PUSH1 0x4 DUP1 CALLDATASIZE SUB DUP2 ADD SWAP1 PUSH2 0x16D SWAP2 SWAP1 PUSH2 0x1EBD JUMP JUMPDEST PUSH2 0x13EA JUMP JUMPDEST PUSH1 0x40 MLOAD PUSH2 0x181 SWAP4 SWAP3 SWAP2 SWAP1 PUSH2 0x1F3E JUMP JUMPDEST PUSH1 0x40 MLOAD DUP1 SWAP2 SUB SWAP1 RETURN JUMPDEST PUSH2 0x1A4 PUSH1 0x4 DUP1 CALLDATASIZE SUB DUP2 ADD SWAP1 PUSH2 0x19F SWAP2 SWAP1 PUSH2 0x1FA1 JUMP JUMPDEST PUSH2 0x1441 JUMP JUMPDEST STOP JUMPDEST PUSH2 0x1C0 PUSH1 0x4 DUP1 CALLDATASIZE SUB DUP2 ADD SWAP1 PUSH2 0x1BB SWAP2 SWAP1 PUSH2 0x1EBD JUMP JUMPDEST PUSH2 0x1730 JUMP JUMPDEST PUSH1 0x40 MLOAD PUSH2 0x1CD SWAP2 SWAP1 PUSH2 0x1FE1 JUMP JUMPDEST PUSH1 0x40 MLOAD DUP1 SWAP2 SUB SWAP1 RETURN JUMPDEST PUSH2 0x1F0 PUSH1 0x4 DUP1 CALLDATASIZE SUB DUP2 ADD SWAP1 PUSH2 0x1EB SWAP2 SWAP1 PUSH2 0x1E90 JUMP JUMPDEST PUSH2 0x177E JUMP JUMPDEST PUSH1 0x40 MLOAD PUSH2 0x204 SWAP9 SWAP8 SWAP7 SWAP6 SWAP5 SWAP4 SWAP3 SWAP2 SWAP1 PUSH2 0x1FFC JUMP JUMPDEST PUSH1 0x40 MLOAD DUP1 SWAP2 SUB SWAP1 RETURN JUMPDEST PUSH2 0x227 PUSH1 0x4 DUP1 CALLDATASIZE SUB DUP2 ADD SWAP1 PUSH2 0x222 SWAP2 SWAP1 PUSH2 0x207A JUMP JUMPDEST PUSH2 0x1826 JUMP JUMPDEST STOP JUMPDEST PUSH1 0x0 SLOAD DUP2 JUMP JUMPDEST DUP1 CALLER PUSH20 0xFFFFFFFFFFFFFFFFFFFFFFFFFFFFFFFFFFFFFFFF AND PUSH1 0x1 PUSH1 0x0 DUP4 DUP2 MSTORE PUSH1 0x20 ADD SWAP1 DUP2 MSTORE PUSH1 0x20 ADD PUSH1 0x0 KECCAK256 PUSH1 0x0 ADD PUSH1 0x0 SWAP1 SLOAD SWAP1 PUSH2 0x100 EXP SWAP1 DIV PUSH20 0xFFFFFFFFFFFFFFFFFFFFFFFFFFFFFFFFFFFFFFFF AND PUSH20 0xFFFFFFFFFFFFFFFFFFFFFFFFFFFFFFFFFFFFFFFF AND EQ PUSH2 0x2D4 JUMPI PUSH1 0x40 MLOAD PUSH32 0x8C379A000000000000000000000000000000000000000000000000000000000 DUP2 MSTORE PUSH1 0x4 ADD PUSH2 0x2CB SWAP1 PUSH2 0x2164 JUMP JUMPDEST PUSH1 0x40 MLOAD DUP1 SWAP2 SUB SWAP1 REVERT JUMPDEST PUSH1 0x0 PUSH1 0x1 PUSH1 0x0 DUP5 DUP2 MSTORE PUSH1 0x20 ADD SWAP1 DUP2 MSTORE PUSH1 0x20 ADD PUSH1 0x0 KECCAK256 PUSH1 0x40 MLOAD DUP1 PUSH2 0x100 ADD PUSH1 0x40 MSTORE SWAP1 DUP2 PUSH1 0x0 DUP3 ADD PUSH1 0x0 SWAP1 SLOAD SWAP1 PUSH2 0x100 EXP SWAP1 DIV PUSH20 0xFFFFFFFFFFFFFFFFFFFFFFFFFFFFFFFFFFFFFFFF AND PUSH20 0xFFFFFFFFFFFFFFFFFFFFFFFFFFFFFFFFFFFFFFFF AND PUSH20 0xFFFFFFFFFFFFFFFFFFFFFFFFFFFFFFFFFFFFFFFF AND DUP2 MSTORE PUSH1 0x20 ADD PUSH1 0x1 DUP3 ADD PUSH1 0x0 SWAP1 SLOAD SWAP1 PUSH2 0x100 EXP SWAP1 DIV PUSH20 0xFFFFFFFFFFFFFFFFFFFFFFFFFFFFFFFFFFFFFFFF AND PUSH20 0xFFFFFFFFFFFFFFFFFFFFFFFFFFFFFFFFFFFFFFFF AND PUSH20 0xFFFFFFFFFFFFFFFFFFFFFFFFFFFFFFFFFFFFFFFF AND DUP2 MSTORE PUSH1 0x20 ADD PUSH1 0x2 DUP3 ADD PUSH1 0x0 SWAP1 SLOAD SWAP1 PUSH2 0x100 EXP SWAP1 DIV PUSH20 0xFFFFFFFFFFFFFFFFFFFFFFFFFFFFFFFFFFFFFFFF AND PUSH20 0xFFFFFFFFFFFFFFFFFFFFFFFFFFFFFFFFFFFFFFFF AND PUSH20 0xFFFFFFFFFFFFFFFFFFFFFFFFFFFFFFFFFFFFFFFF AND DUP2 MSTORE PUSH1 0x20 ADD PUSH1 0x3 DUP3 ADD SLOAD DUP2 MSTORE PUSH1 0x20 ADD PUSH1 0x4 DUP3 ADD SLOAD DUP2 MSTORE PUSH1 0x20 ADD PUSH1 0x5 DUP3 ADD SLOAD DUP2 MSTORE PUSH1 0x20 ADD PUSH1 0x6 DUP3 ADD SLOAD DUP2 MSTORE PUSH1 0x20 ADD PUSH1 0x7 DUP3 ADD SLOAD DUP2 MSTORE POP POP SWAP1 POP PUSH2 0x434 DUP4 PUSH2 0x1ACE JUMP JUMPDEST PUSH2 0x473 JUMPI PUSH1 0x40 MLOAD PUSH32 0x8C379A000000000000000000000000000000000000000000000000000000000 DUP2 MSTORE PUSH1 0x4 ADD PUSH2 0x46A SWAP1 PUSH2 0x21D0 JUMP JUMPDEST PUSH1 0x40 MLOAD DUP1 SWAP2 SUB SWAP1 REVERT JUMPDEST PUSH1 0x0 PUSH1 0x2 PUSH1 0x0 DUP6 DUP2 MSTORE PUSH1 0x20 ADD SWAP1 DUP2 MSTORE PUSH1 0x20 ADD PUSH1 0x0 KECCAK256 PUSH1 0x0 DUP4 PUSH1 0xE0 ADD MLOAD DUP2 MSTORE PUSH1 0x20 ADD SWAP1 DUP2 MSTORE PUSH1 0x20 ADD PUSH1 0x0 KECCAK256 PUSH1 0x40 MLOAD DUP1 PUSH1 0x60 ADD PUSH1 0x40 MSTORE SWAP1 DUP2 PUSH1 0x0 DUP3 ADD SLOAD DUP2 MSTORE PUSH1 0x20 ADD PUSH1 0x1 DUP3 ADD SLOAD DUP2 MSTORE PUSH1 0x20 ADD PUSH1 0x2 DUP3 ADD PUSH1 0x0 SWAP1 SLOAD SWAP1 PUSH2 0x100 EXP SWAP1 DIV PUSH20 0xFFFFFFFFFFFFFFFFFFFFFFFFFFFFFFFFFFFFFFFF AND PUSH20 0xFFFFFFFFFFFFFFFFFFFFFFFFFFFFFFFFFFFFFFFF AND PUSH20 0xFFFFFFFFFFFFFFFFFFFFFFFFFFFFFFFFFFFFFFFF AND DUP2 MSTORE POP POP SWAP1 POP CALLER PUSH20 0xFFFFFFFFFFFFFFFFFFFFFFFFFFFFFFFFFFFFFFFF AND DUP2 PUSH1 0x40 ADD MLOAD PUSH20 0xFFFFFFFFFFFFFFFFFFFFFFFFFFFFFFFFFFFFFFFF AND EQ PUSH2 0x586 JUMPI PUSH1 0x40 MLOAD PUSH32 0x8C379A000000000000000000000000000000000000000000000000000000000 DUP2 MSTORE PUSH1 0x4 ADD PUSH2 0x57D SWAP1 PUSH2 0x223C JUMP JUMPDEST PUSH1 0x40 MLOAD DUP1 SWAP2 SUB SWAP1 REVERT JUMPDEST PUSH1 0x0 DUP3 PUSH1 0x40 ADD MLOAD SWAP1 POP DUP1 PUSH20 0xFFFFFFFFFFFFFFFFFFFFFFFFFFFFFFFFFFFFFFFF AND PUSH4 0x42842E0E ADDRESS DUP5 PUSH1 0x40 ADD MLOAD DUP7 PUSH1 0x60 ADD MLOAD PUSH1 0x40 MLOAD DUP5 PUSH4 0xFFFFFFFF AND PUSH1 0xE0 SHL DUP2 MSTORE PUSH1 0x4 ADD PUSH2 0x5D4 SWAP4 SWAP3 SWAP2 SWAP1 PUSH2 0x225C JUMP JUMPDEST PUSH1 0x0 PUSH1 0x40 MLOAD DUP1 DUP4 SUB DUP2 PUSH1 0x0 DUP8 DUP1 EXTCODESIZE ISZERO DUP1 ISZERO PUSH2 0x5EE JUMPI PUSH1 0x0 DUP1 REVERT JUMPDEST POP GAS CALL ISZERO DUP1 ISZERO PUSH2 0x602 JUMPI RETURNDATASIZE PUSH1 0x0 DUP1 RETURNDATACOPY RETURNDATASIZE PUSH1 0x0 REVERT JUMPDEST POP POP POP POP POP POP POP POP POP JUMP JUMPDEST DUP1 CALLER PUSH20 0xFFFFFFFFFFFFFFFFFFFFFFFFFFFFFFFFFFFFFFFF AND PUSH1 0x1 PUSH1 0x0 DUP4 DUP2 MSTORE PUSH1 0x20 ADD SWAP1 DUP2 MSTORE PUSH1 0x20 ADD PUSH1 0x0 KECCAK256 PUSH1 0x0 ADD PUSH1 0x0 SWAP1 SLOAD SWAP1 PUSH2 0x100 EXP SWAP1 DIV PUSH20 0xFFFFFFFFFFFFFFFFFFFFFFFFFFFFFFFFFFFFFFFF AND PUSH20 0xFFFFFFFFFFFFFFFFFFFFFFFFFFFFFFFFFFFFFFFF AND EQ PUSH2 0x6B2 JUMPI PUSH1 0x40 MLOAD PUSH32 0x8C379A000000000000000000000000000000000000000000000000000000000 DUP2 MSTORE PUSH1 0x4 ADD PUSH2 0x6A9 SWAP1 PUSH2 0x2164 JUMP JUMPDEST PUSH1 0x40 MLOAD DUP1 SWAP2 SUB SWAP1 REVERT JUMPDEST PUSH1 0x0 PUSH1 0x1 PUSH1 0x0 DUP5 DUP2 MSTORE PUSH1 0x20 ADD SWAP1 DUP2 MSTORE PUSH1 0x20 ADD PUSH1 0x0 KECCAK256 PUSH1 0x40 MLOAD DUP1 PUSH2 0x100 ADD PUSH1 0x40 MSTORE SWAP1 DUP2 PUSH1 0x0 DUP3 ADD PUSH1 0x0 SWAP1 SLOAD SWAP1 PUSH2 0x100 EXP SWAP1 DIV PUSH20 0xFFFFFFFFFFFFFFFFFFFFFFFFFFFFFFFFFFFFFFFF AND PUSH20 0xFFFFFFFFFFFFFFFFFFFFFFFFFFFFFFFFFFFFFFFF AND PUSH20 0xFFFFFFFFFFFFFFFFFFFFFFFFFFFFFFFFFFFFFFFF AND DUP2 MSTORE PUSH1 0x20 ADD PUSH1 0x1 DUP3 ADD PUSH1 0x0 SWAP1 SLOAD SWAP1 PUSH2 0x100 EXP SWAP1 DIV PUSH20 0xFFFFFFFFFFFFFFFFFFFFFFFFFFFFFFFFFFFFFFFF AND PUSH20 0xFFFFFFFFFFFFFFFFFFFFFFFFFFFFFFFFFFFFFFFF AND PUSH20 0xFFFFFFFFFFFFFFFFFFFFFFFFFFFFFFFFFFFFFFFF AND DUP2 MSTORE PUSH1 0x20 ADD PUSH1 0x2 DUP3 ADD PUSH1 0x0 SWAP1 SLOAD SWAP1 PUSH2 0x100 EXP SWAP1 DIV PUSH20 0xFFFFFFFFFFFFFFFFFFFFFFFFFFFFFFFFFFFFFFFF AND PUSH20 0xFFFFFFFFFFFFFFFFFFFFFFFFFFFFFFFFFFFFFFFF AND PUSH20 0xFFFFFFFFFFFFFFFFFFFFFFFFFFFFFFFFFFFFFFFF AND DUP2 MSTORE PUSH1 0x20 ADD PUSH1 0x3 DUP3 ADD SLOAD DUP2 MSTORE PUSH1 0x20 ADD PUSH1 0x4 DUP3 ADD SLOAD DUP2 MSTORE PUSH1 0x20 ADD PUSH1 0x5 DUP3 ADD SLOAD DUP2 MSTORE PUSH1 0x20 ADD PUSH1 0x6 DUP3 ADD SLOAD DUP2 MSTORE PUSH1 0x20 ADD PUSH1 0x7 DUP3 ADD SLOAD DUP2 MSTORE POP POP SWAP1 POP TIMESTAMP DUP2 PUSH1 0x80 ADD MLOAD GT PUSH2 0x84F JUMPI PUSH1 0x40 MLOAD PUSH32 0x8C379A000000000000000000000000000000000000000000000000000000000 DUP2 MSTORE PUSH1 0x4 ADD PUSH2 0x846 SWAP1 PUSH2 0x22DF JUMP JUMPDEST PUSH1 0x40 MLOAD DUP1 SWAP2 SUB SWAP1 REVERT JUMPDEST PUSH2 0x857 PUSH2 0x1DA4 JUMP JUMPDEST SWAP1 POP PUSH32 0xFE785EF891129B084B1C5A30E4D88EB97C97822C024CC25D5F9D806B897512E0 DUP4 PUSH1 0x40 MLOAD PUSH2 0x888 SWAP2 SWAP1 PUSH2 0x1E44 JUMP JUMPDEST PUSH1 0x40 MLOAD DUP1 SWAP2 SUB SWAP1 LOG1 POP POP POP JUMP JUMPDEST PUSH1 0x0 PUSH1 0x1 PUSH1 0x0 DUP4 DUP2 MSTORE PUSH1 0x20 ADD SWAP1 DUP2 MSTORE PUSH1 0x20 ADD PUSH1 0x0 KECCAK256 PUSH1 0x40 MLOAD DUP1 PUSH2 0x100 ADD PUSH1 0x40 MSTORE SWAP1 DUP2 PUSH1 0x0 DUP3 ADD PUSH1 0x0 SWAP1 SLOAD SWAP1 PUSH2 0x100 EXP SWAP1 DIV PUSH20 0xFFFFFFFFFFFFFFFFFFFFFFFFFFFFFFFFFFFFFFFF AND PUSH20 0xFFFFFFFFFFFFFFFFFFFFFFFFFFFFFFFFFFFFFFFF AND PUSH20 0xFFFFFFFFFFFFFFFFFFFFFFFFFFFFFFFFFFFFFFFF AND DUP2 MSTORE PUSH1 0x20 ADD PUSH1 0x1 DUP3 ADD PUSH1 0x0 SWAP1 SLOAD SWAP1 PUSH2 0x100 EXP SWAP1 DIV PUSH20 0xFFFFFFFFFFFFFFFFFFFFFFFFFFFFFFFFFFFFFFFF AND PUSH20 0xFFFFFFFFFFFFFFFFFFFFFFFFFFFFFFFFFFFFFFFF AND PUSH20 0xFFFFFFFFFFFFFFFFFFFFFFFFFFFFFFFFFFFFFFFF AND DUP2 MSTORE PUSH1 0x20 ADD PUSH1 0x2 DUP3 ADD PUSH1 0x0 SWAP1 SLOAD SWAP1 PUSH2 0x100 EXP SWAP1 DIV PUSH20 0xFFFFFFFFFFFFFFFFFFFFFFFFFFFFFFFFFFFFFFFF AND PUSH20 0xFFFFFFFFFFFFFFFFFFFFFFFFFFFFFFFFFFFFFFFF AND PUSH20 0xFFFFFFFFFFFFFFFFFFFFFFFFFFFFFFFFFFFFFFFF AND DUP2 MSTORE PUSH1 0x20 ADD PUSH1 0x3 DUP3 ADD SLOAD DUP2 MSTORE PUSH1 0x20 ADD PUSH1 0x4 DUP3 ADD SLOAD DUP2 MSTORE PUSH1 0x20 ADD PUSH1 0x5 DUP3 ADD SLOAD DUP2 MSTORE PUSH1 0x20 ADD PUSH1 0x6 DUP3 ADD SLOAD DUP2 MSTORE PUSH1 0x20 ADD PUSH1 0x7 DUP3 ADD SLOAD DUP2 MSTORE POP POP SWAP1 POP PUSH2 0x9F5 DUP3 PUSH2 0x1ACE JUMP JUMPDEST PUSH2 0xA34 JUMPI PUSH1 0x40 MLOAD PUSH32 0x8C379A000000000000000000000000000000000000000000000000000000000 DUP2 MSTORE PUSH1 0x4 ADD PUSH2 0xA2B SWAP1 PUSH2 0x21D0 JUMP JUMPDEST PUSH1 0x40 MLOAD DUP1 SWAP2 SUB SWAP1 REVERT JUMPDEST PUSH1 0x0 PUSH1 0x2 PUSH1 0x0 DUP5 DUP2 MSTORE PUSH1 0x20 ADD SWAP1 DUP2 MSTORE PUSH1 0x20 ADD PUSH1 0x0 KECCAK256 PUSH1 0x0 DUP4 PUSH1 0xE0 ADD MLOAD DUP2 MSTORE PUSH1 0x20 ADD SWAP1 DUP2 MSTORE PUSH1 0x20 ADD PUSH1 0x0 KECCAK256 PUSH1 0x40 MLOAD DUP1 PUSH1 0x60 ADD PUSH1 0x40 MSTORE SWAP1 DUP2 PUSH1 0x0 DUP3 ADD SLOAD DUP2 MSTORE PUSH1 0x20 ADD PUSH1 0x1 DUP3 ADD SLOAD DUP2 MSTORE PUSH1 0x20 ADD PUSH1 0x2 DUP3 ADD PUSH1 0x0 SWAP1 SLOAD SWAP1 PUSH2 0x100 EXP SWAP1 DIV PUSH20 0xFFFFFFFFFFFFFFFFFFFFFFFFFFFFFFFFFFFFFFFF AND PUSH20 0xFFFFFFFFFFFFFFFFFFFFFFFFFFFFFFFFFFFFFFFF AND PUSH20 0xFFFFFFFFFFFFFFFFFFFFFFFFFFFFFFFFFFFFFFFF AND DUP2 MSTORE POP POP SWAP1 POP CALLER PUSH20 0xFFFFFFFFFFFFFFFFFFFFFFFFFFFFFFFFFFFFFFFF AND DUP2 PUSH1 0x40 ADD MLOAD PUSH20 0xFFFFFFFFFFFFFFFFFFFFFFFFFFFFFFFFFFFFFFFF AND EQ PUSH2 0xB47 JUMPI PUSH1 0x40 MLOAD PUSH32 0x8C379A000000000000000000000000000000000000000000000000000000000 DUP2 MSTORE PUSH1 0x4 ADD PUSH2 0xB3E SWAP1 PUSH2 0x223C JUMP JUMPDEST PUSH1 0x40 MLOAD DUP1 SWAP2 SUB SWAP1 REVERT JUMPDEST PUSH1 0x0 DUP3 PUSH1 0x40 ADD MLOAD SWAP1 POP DUP1 PUSH20 0xFFFFFFFFFFFFFFFFFFFFFFFFFFFFFFFFFFFFFFFF AND PUSH4 0x42842E0E ADDRESS CALLER DUP7 PUSH1 0x60 ADD MLOAD PUSH1 0x40 MLOAD DUP5 PUSH4 0xFFFFFFFF AND PUSH1 0xE0 SHL DUP2 MSTORE PUSH1 0x4 ADD PUSH2 0xB91 SWAP4 SWAP3 SWAP2 SWAP1 PUSH2 0x225C JUMP JUMPDEST PUSH1 0x0 PUSH1 0x40 MLOAD DUP1 DUP4 SUB DUP2 PUSH1 0x0 DUP8 DUP1 EXTCODESIZE ISZERO DUP1 ISZERO PUSH2 0xBAB JUMPI PUSH1 0x0 DUP1 REVERT JUMPDEST POP GAS CALL ISZERO DUP1 ISZERO PUSH2 0xBBF JUMPI RETURNDATASIZE PUSH1 0x0 DUP1 RETURNDATACOPY RETURNDATASIZE PUSH1 0x0 REVERT JUMPDEST POP POP POP POP POP POP POP POP JUMP JUMPDEST PUSH2 0xBD2 DUP3 PUSH2 0x1AF1 JUMP JUMPDEST PUSH2 0xC11 JUMPI PUSH1 0x40 MLOAD PUSH32 0x8C379A000000000000000000000000000000000000000000000000000000000 DUP2 MSTORE PUSH1 0x4 ADD PUSH2 0xC08 SWAP1 PUSH2 0x234B JUMP JUMPDEST PUSH1 0x40 MLOAD DUP1 SWAP2 SUB SWAP1 REVERT JUMPDEST PUSH2 0xC1A DUP3 PUSH2 0x1ACE JUMP JUMPDEST ISZERO PUSH2 0xC5A JUMPI PUSH1 0x40 MLOAD PUSH32 0x8C379A000000000000000000000000000000000000000000000000000000000 DUP2 MSTORE PUSH1 0x4 ADD PUSH2 0xC51 SWAP1 PUSH2 0x23B7 JUMP JUMPDEST PUSH1 0x40 MLOAD DUP1 SWAP2 SUB SWAP1 REVERT JUMPDEST PUSH1 0x0 PUSH1 0x1 PUSH1 0x0 DUP5 DUP2 MSTORE PUSH1 0x20 ADD SWAP1 DUP2 MSTORE PUSH1 0x20 ADD PUSH1 0x0 KECCAK256 PUSH1 0x40 MLOAD DUP1 PUSH2 0x100 ADD PUSH1 0x40 MSTORE SWAP1 DUP2 PUSH1 0x0 DUP3 ADD PUSH1 0x0 SWAP1 SLOAD SWAP1 PUSH2 0x100 EXP SWAP1 DIV PUSH20 0xFFFFFFFFFFFFFFFFFFFFFFFFFFFFFFFFFFFFFFFF AND PUSH20 0xFFFFFFFFFFFFFFFFFFFFFFFFFFFFFFFFFFFFFFFF AND PUSH20 0xFFFFFFFFFFFFFFFFFFFFFFFFFFFFFFFFFFFFFFFF AND DUP2 MSTORE PUSH1 0x20 ADD PUSH1 0x1 DUP3 ADD PUSH1 0x0 SWAP1 SLOAD SWAP1 PUSH2 0x100 EXP SWAP1 DIV PUSH20 0xFFFFFFFFFFFFFFFFFFFFFFFFFFFFFFFFFFFFFFFF AND PUSH20 0xFFFFFFFFFFFFFFFFFFFFFFFFFFFFFFFFFFFFFFFF AND PUSH20 0xFFFFFFFFFFFFFFFFFFFFFFFFFFFFFFFFFFFFFFFF AND DUP2 MSTORE PUSH1 0x20 ADD PUSH1 0x2 DUP3 ADD PUSH1 0x0 SWAP1 SLOAD SWAP1 PUSH2 0x100 EXP SWAP1 DIV PUSH20 0xFFFFFFFFFFFFFFFFFFFFFFFFFFFFFFFFFFFFFFFF AND PUSH20 0xFFFFFFFFFFFFFFFFFFFFFFFFFFFFFFFFFFFFFFFF AND PUSH20 0xFFFFFFFFFFFFFFFFFFFFFFFFFFFFFFFFFFFFFFFF AND DUP2 MSTORE PUSH1 0x20 ADD PUSH1 0x3 DUP3 ADD SLOAD DUP2 MSTORE PUSH1 0x20 ADD PUSH1 0x4 DUP3 ADD SLOAD DUP2 MSTORE PUSH1 0x20 ADD PUSH1 0x5 DUP3 ADD SLOAD DUP2 MSTORE PUSH1 0x20 ADD PUSH1 0x6 DUP3 ADD SLOAD DUP2 MSTORE PUSH1 0x20 ADD PUSH1 0x7 DUP3 ADD SLOAD DUP2 MSTORE POP POP SWAP1 POP PUSH1 0x0 PUSH1 0x1 DUP3 PUSH1 0xE0 ADD MLOAD PUSH2 0xDC4 SWAP2 SWAP1 PUSH2 0x2406 JUMP JUMPDEST SWAP1 POP DUP1 DUP3 PUSH1 0xE0 ADD DUP2 DUP2 MSTORE POP POP PUSH1 0x0 PUSH2 0xDDB DUP6 PUSH2 0x1B13 JUMP JUMPDEST SWAP1 POP DUP1 DUP5 GT PUSH2 0xE1F JUMPI PUSH1 0x40 MLOAD PUSH32 0x8C379A000000000000000000000000000000000000000000000000000000000 DUP2 MSTORE PUSH1 0x4 ADD PUSH2 0xE16 SWAP1 PUSH2 0x2486 JUMP JUMPDEST PUSH1 0x40 MLOAD DUP1 SWAP2 SUB SWAP1 REVERT JUMPDEST DUP3 PUSH1 0x20 ADD MLOAD PUSH20 0xFFFFFFFFFFFFFFFFFFFFFFFFFFFFFFFFFFFFFFFF AND PUSH4 0x23B872DD CALLER PUSH1 0x2 PUSH1 0x0 DUP10 DUP2 MSTORE PUSH1 0x20 ADD SWAP1 DUP2 MSTORE PUSH1 0x20 ADD PUSH1 0x0 KECCAK256 PUSH1 0x0 DUP7 DUP2 MSTORE PUSH1 0x20 ADD SWAP1 DUP2 MSTORE PUSH1 0x20 ADD PUSH1 0x0 KECCAK256 PUSH1 0x2 ADD PUSH1 0x0 SWAP1 SLOAD SWAP1 PUSH2 0x100 EXP SWAP1 DIV PUSH20 0xFFFFFFFFFFFFFFFFFFFFFFFFFFFFFFFFFFFFFFFF AND DUP5 PUSH1 0x40 MLOAD DUP5 PUSH4 0xFFFFFFFF AND PUSH1 0xE0 SHL DUP2 MSTORE PUSH1 0x4 ADD PUSH2 0xEA7 SWAP4 SWAP3 SWAP2 SWAP1 PUSH2 0x225C JUMP JUMPDEST PUSH1 0x20 PUSH1 0x40 MLOAD DUP1 DUP4 SUB DUP2 PUSH1 0x0 DUP8 GAS CALL ISZERO DUP1 ISZERO PUSH2 0xEC6 JUMPI RETURNDATASIZE PUSH1 0x0 DUP1 RETURNDATACOPY RETURNDATASIZE PUSH1 0x0 REVERT JUMPDEST POP POP POP POP PUSH1 0x40 MLOAD RETURNDATASIZE PUSH1 0x1F NOT PUSH1 0x1F DUP3 ADD AND DUP3 ADD DUP1 PUSH1 0x40 MSTORE POP DUP2 ADD SWAP1 PUSH2 0xEEA SWAP2 SWAP1 PUSH2 0x24DE JUMP JUMPDEST POP DUP3 PUSH1 0x20 ADD MLOAD PUSH20 0xFFFFFFFFFFFFFFFFFFFFFFFFFFFFFFFFFFFFFFFF AND PUSH4 0x23B872DD CALLER DUP6 PUSH1 0x0 ADD MLOAD DUP5 DUP9 PUSH2 0xF1D SWAP2 SWAP1 PUSH2 0x250B JUMP JUMPDEST PUSH1 0x40 MLOAD DUP5 PUSH4 0xFFFFFFFF AND PUSH1 0xE0 SHL DUP2 MSTORE PUSH1 0x4 ADD PUSH2 0xF3B SWAP4 SWAP3 SWAP2 SWAP1 PUSH2 0x225C JUMP JUMPDEST PUSH1 0x20 PUSH1 0x40 MLOAD DUP1 DUP4 SUB DUP2 PUSH1 0x0 DUP8 GAS CALL ISZERO DUP1 ISZERO PUSH2 0xF5A JUMPI RETURNDATASIZE PUSH1 0x0 DUP1 RETURNDATACOPY RETURNDATASIZE PUSH1 0x0 REVERT JUMPDEST POP POP POP POP PUSH1 0x40 MLOAD RETURNDATASIZE PUSH1 0x1F NOT PUSH1 0x1F DUP3 ADD AND DUP3 ADD DUP1 PUSH1 0x40 MSTORE POP DUP2 ADD SWAP1 PUSH2 0xF7E SWAP2 SWAP1 PUSH2 0x24DE JUMP JUMPDEST POP PUSH1 0x40 MLOAD DUP1 PUSH1 0x60 ADD PUSH1 0x40 MSTORE DUP1 TIMESTAMP DUP2 MSTORE PUSH1 0x20 ADD DUP6 DUP2 MSTORE PUSH1 0x20 ADD CALLER PUSH20 0xFFFFFFFFFFFFFFFFFFFFFFFFFFFFFFFFFFFFFFFF AND DUP2 MSTORE POP PUSH1 0x2 PUSH1 0x0 DUP8 DUP2 MSTORE PUSH1 0x20 ADD SWAP1 DUP2 MSTORE PUSH1 0x20 ADD PUSH1 0x0 KECCAK256 PUSH1 0x0 DUP5 DUP2 MSTORE PUSH1 0x20 ADD SWAP1 DUP2 MSTORE PUSH1 0x20 ADD PUSH1 0x0 KECCAK256 PUSH1 0x0 DUP3 ADD MLOAD DUP2 PUSH1 0x0 ADD SSTORE PUSH1 0x20 DUP3 ADD MLOAD DUP2 PUSH1 0x1 ADD SSTORE PUSH1 0x40 DUP3 ADD MLOAD DUP2 PUSH1 0x2 ADD PUSH1 0x0 PUSH2 0x100 EXP DUP2 SLOAD DUP2 PUSH20 0xFFFFFFFFFFFFFFFFFFFFFFFFFFFFFFFFFFFFFFFF MUL NOT AND SWAP1 DUP4 PUSH20 0xFFFFFFFFFFFFFFFFFFFFFFFFFFFFFFFFFFFFFFFF AND MUL OR SWAP1 SSTORE POP SWAP1 POP POP POP POP POP POP POP JUMP JUMPDEST DUP1 CALLER PUSH20 0xFFFFFFFFFFFFFFFFFFFFFFFFFFFFFFFFFFFFFFFF AND PUSH1 0x1 PUSH1 0x0 DUP4 DUP2 MSTORE PUSH1 0x20 ADD SWAP1 DUP2 MSTORE PUSH1 0x20 ADD PUSH1 0x0 KECCAK256 PUSH1 0x0 ADD PUSH1 0x0 SWAP1 SLOAD SWAP1 PUSH2 0x100 EXP SWAP1 DIV PUSH20 0xFFFFFFFFFFFFFFFFFFFFFFFFFFFFFFFFFFFFFFFF AND PUSH20 0xFFFFFFFFFFFFFFFFFFFFFFFFFFFFFFFFFFFFFFFF AND EQ PUSH2 0x10DE JUMPI PUSH1 0x40 MLOAD PUSH32 0x8C379A000000000000000000000000000000000000000000000000000000000 DUP2 MSTORE PUSH1 0x4 ADD PUSH2 0x10D5 SWAP1 PUSH2 0x2164 JUMP JUMPDEST PUSH1 0x40 MLOAD DUP1 SWAP2 SUB SWAP1 REVERT JUMPDEST PUSH1 0x0 PUSH1 0x1 PUSH1 0x0 DUP5 DUP2 MSTORE PUSH1 0x20 ADD SWAP1 DUP2 MSTORE PUSH1 0x20 ADD PUSH1 0x0 KECCAK256 PUSH1 0x40 MLOAD DUP1 PUSH2 0x100 ADD PUSH1 0x40 MSTORE SWAP1 DUP2 PUSH1 0x0 DUP3 ADD PUSH1 0x0 SWAP1 SLOAD SWAP1 PUSH2 0x100 EXP SWAP1 DIV PUSH20 0xFFFFFFFFFFFFFFFFFFFFFFFFFFFFFFFFFFFFFFFF AND PUSH20 0xFFFFFFFFFFFFFFFFFFFFFFFFFFFFFFFFFFFFFFFF AND PUSH20 0xFFFFFFFFFFFFFFFFFFFFFFFFFFFFFFFFFFFFFFFF AND DUP2 MSTORE PUSH1 0x20 ADD PUSH1 0x1 DUP3 ADD PUSH1 0x0 SWAP1 SLOAD SWAP1 PUSH2 0x100 EXP SWAP1 DIV PUSH20 0xFFFFFFFFFFFFFFFFFFFFFFFFFFFFFFFFFFFFFFFF AND PUSH20 0xFFFFFFFFFFFFFFFFFFFFFFFFFFFFFFFFFFFFFFFF AND PUSH20 0xFFFFFFFFFFFFFFFFFFFFFFFFFFFFFFFFFFFFFFFF AND DUP2 MSTORE PUSH1 0x20 ADD PUSH1 0x2 DUP3 ADD PUSH1 0x0 SWAP1 SLOAD SWAP1 PUSH2 0x100 EXP SWAP1 DIV PUSH20 0xFFFFFFFFFFFFFFFFFFFFFFFFFFFFFFFFFFFFFFFF AND PUSH20 0xFFFFFFFFFFFFFFFFFFFFFFFFFFFFFFFFFFFFFFFF AND PUSH20 0xFFFFFFFFFFFFFFFFFFFFFFFFFFFFFFFFFFFFFFFF AND DUP2 MSTORE PUSH1 0x20 ADD PUSH1 0x3 DUP3 ADD SLOAD DUP2 MSTORE PUSH1 0x20 ADD PUSH1 0x4 DUP3 ADD SLOAD DUP2 MSTORE PUSH1 0x20 ADD PUSH1 0x5 DUP3 ADD SLOAD DUP2 MSTORE PUSH1 0x20 ADD PUSH1 0x6 DUP3 ADD SLOAD DUP2 MSTORE PUSH1 0x20 ADD PUSH1 0x7 DUP3 ADD SLOAD DUP2 MSTORE POP POP SWAP1 POP PUSH1 0x0 PUSH1 0x2 PUSH1 0x0 DUP6 DUP2 MSTORE PUSH1 0x20 ADD SWAP1 DUP2 MSTORE PUSH1 0x20 ADD PUSH1 0x0 KECCAK256 PUSH1 0x0 DUP4 PUSH1 0xE0 ADD MLOAD DUP2 MSTORE PUSH1 0x20 ADD SWAP1 DUP2 MSTORE PUSH1 0x20 ADD PUSH1 0x0 KECCAK256 PUSH1 0x40 MLOAD DUP1 PUSH1 0x60 ADD PUSH1 0x40 MSTORE SWAP1 DUP2 PUSH1 0x0 DUP3 ADD SLOAD DUP2 MSTORE PUSH1 0x20 ADD PUSH1 0x1 DUP3 ADD SLOAD DUP2 MSTORE PUSH1 0x20 ADD PUSH1 0x2 DUP3 ADD PUSH1 0x0 SWAP1 SLOAD SWAP1 PUSH2 0x100 EXP SWAP1 DIV PUSH20 0xFFFFFFFFFFFFFFFFFFFFFFFFFFFFFFFFFFFFFFFF AND PUSH20 0xFFFFFFFFFFFFFFFFFFFFFFFFFFFFFFFFFFFFFFFF AND PUSH20 0xFFFFFFFFFFFFFFFFFFFFFFFFFFFFFFFFFFFFFFFF AND DUP2 MSTORE POP POP SWAP1 POP DUP2 PUSH1 0x20 ADD MLOAD PUSH20 0xFFFFFFFFFFFFFFFFFFFFFFFFFFFFFFFFFFFFFFFF AND PUSH4 0x23B872DD CALLER DUP4 PUSH1 0x40 ADD MLOAD PUSH2 0x1305 DUP9 PUSH2 0x1B13 JUMP JUMPDEST PUSH1 0x40 MLOAD DUP5 PUSH4 0xFFFFFFFF AND PUSH1 0xE0 SHL DUP2 MSTORE PUSH1 0x4 ADD PUSH2 0x1323 SWAP4 SWAP3 SWAP2 SWAP1 PUSH2 0x225C JUMP JUMPDEST PUSH1 0x20 PUSH1 0x40 MLOAD DUP1 DUP4 SUB DUP2 PUSH1 0x0 DUP8 GAS CALL ISZERO DUP1 ISZERO PUSH2 0x1342 JUMPI RETURNDATASIZE PUSH1 0x0 DUP1 RETURNDATACOPY RETURNDATASIZE PUSH1 0x0 REVERT JUMPDEST POP POP POP POP PUSH1 0x40 MLOAD RETURNDATASIZE PUSH1 0x1F NOT PUSH1 0x1F DUP3 ADD AND DUP3 ADD DUP1 PUSH1 0x40 MSTORE POP DUP2 ADD SWAP1 PUSH2 0x1366 SWAP2 SWAP1 PUSH2 0x24DE JUMP JUMPDEST POP PUSH1 0x0 DUP3 PUSH1 0x40 ADD MLOAD SWAP1 POP DUP1 PUSH20 0xFFFFFFFFFFFFFFFFFFFFFFFFFFFFFFFFFFFFFFFF AND PUSH4 0x42842E0E ADDRESS CALLER DUP7 PUSH1 0x60 ADD MLOAD PUSH1 0x40 MLOAD DUP5 PUSH4 0xFFFFFFFF AND PUSH1 0xE0 SHL DUP2 MSTORE PUSH1 0x4 ADD PUSH2 0x13B1 SWAP4 SWAP3 SWAP2 SWAP1 PUSH2 0x225C JUMP JUMPDEST PUSH1 0x0 PUSH1 0x40 MLOAD DUP1 DUP4 SUB DUP2 PUSH1 0x0 DUP8 DUP1 EXTCODESIZE ISZERO DUP1 ISZERO PUSH2 0x13CB JUMPI PUSH1 0x0 DUP1 REVERT JUMPDEST POP GAS CALL ISZERO DUP1 ISZERO PUSH2 0x13DF JUMPI RETURNDATASIZE PUSH1 0x0 DUP1 RETURNDATACOPY RETURNDATASIZE PUSH1 0x0 REVERT JUMPDEST POP POP POP POP POP POP POP POP POP JUMP JUMPDEST PUSH1 0x2 PUSH1 0x20 MSTORE DUP2 PUSH1 0x0 MSTORE PUSH1 0x40 PUSH1 0x0 KECCAK256 PUSH1 0x20 MSTORE DUP1 PUSH1 0x0 MSTORE PUSH1 0x40 PUSH1 0x0 KECCAK256 PUSH1 0x0 SWAP2 POP SWAP2 POP POP DUP1 PUSH1 0x0 ADD SLOAD SWAP1 DUP1 PUSH1 0x1 ADD SLOAD SWAP1 DUP1 PUSH1 0x2 ADD PUSH1 0x0 SWAP1 SLOAD SWAP1 PUSH2 0x100 EXP SWAP1 DIV PUSH20 0xFFFFFFFFFFFFFFFFFFFFFFFFFFFFFFFFFFFFFFFF AND SWAP1 POP DUP4 JUMP JUMPDEST PUSH2 0x144A DUP3 PUSH2 0x1AF1 JUMP JUMPDEST PUSH2 0x1489 JUMPI PUSH1 0x40 MLOAD PUSH32 0x8C379A000000000000000000000000000000000000000000000000000000000 DUP2 MSTORE PUSH1 0x4 ADD PUSH2 0x1480 SWAP1 PUSH2 0x234B JUMP JUMPDEST PUSH1 0x40 MLOAD DUP1 SWAP2 SUB SWAP1 REVERT JUMPDEST PUSH2 0x1492 DUP3 PUSH2 0x1ACE JUMP JUMPDEST ISZERO PUSH2 0x14D2 JUMPI PUSH1 0x40 MLOAD PUSH32 0x8C379A000000000000000000000000000000000000000000000000000000000 DUP2 MSTORE PUSH1 0x4 ADD PUSH2 0x14C9 SWAP1 PUSH2 0x23B7 JUMP JUMPDEST PUSH1 0x40 MLOAD DUP1 SWAP2 SUB SWAP1 REVERT JUMPDEST PUSH1 0x0 PUSH1 0x1 PUSH1 0x0 DUP5 DUP2 MSTORE PUSH1 0x20 ADD SWAP1 DUP2 MSTORE PUSH1 0x20 ADD PUSH1 0x0 KECCAK256 PUSH1 0x40 MLOAD DUP1 PUSH2 0x100 ADD PUSH1 0x40 MSTORE SWAP1 DUP2 PUSH1 0x0 DUP3 ADD PUSH1 0x0 SWAP1 SLOAD SWAP1 PUSH2 0x100 EXP SWAP1 DIV PUSH20 0xFFFFFFFFFFFFFFFFFFFFFFFFFFFFFFFFFFFFFFFF AND PUSH20 0xFFFFFFFFFFFFFFFFFFFFFFFFFFFFFFFFFFFFFFFF AND PUSH20 0xFFFFFFFFFFFFFFFFFFFFFFFFFFFFFFFFFFFFFFFF AND DUP2 MSTORE PUSH1 0x20 ADD PUSH1 0x1 DUP3 ADD PUSH1 0x0 SWAP1 SLOAD SWAP1 PUSH2 0x100 EXP SWAP1 DIV PUSH20 0xFFFFFFFFFFFFFFFFFFFFFFFFFFFFFFFFFFFFFFFF AND PUSH20 0xFFFFFFFFFFFFFFFFFFFFFFFFFFFFFFFFFFFFFFFF AND PUSH20 0xFFFFFFFFFFFFFFFFFFFFFFFFFFFFFFFFFFFFFFFF AND DUP2 MSTORE PUSH1 0x20 ADD PUSH1 0x2 DUP3 ADD PUSH1 0x0 SWAP1 SLOAD SWAP1 PUSH2 0x100 EXP SWAP1 DIV PUSH20 0xFFFFFFFFFFFFFFFFFFFFFFFFFFFFFFFFFFFFFFFF AND PUSH20 0xFFFFFFFFFFFFFFFFFFFFFFFFFFFFFFFFFFFFFFFF AND PUSH20 0xFFFFFFFFFFFFFFFFFFFFFFFFFFFFFFFFFFFFFFFF AND DUP2 MSTORE PUSH1 0x20 ADD PUSH1 0x3 DUP3 ADD SLOAD DUP2 MSTORE PUSH1 0x20 ADD PUSH1 0x4 DUP3 ADD SLOAD DUP2 MSTORE PUSH1 0x20 ADD PUSH1 0x5 DUP3 ADD SLOAD DUP2 MSTORE PUSH1 0x20 ADD PUSH1 0x6 DUP3 ADD SLOAD DUP2 MSTORE PUSH1 0x20 ADD PUSH1 0x7 DUP3 ADD SLOAD DUP2 MSTORE POP POP SWAP1 POP PUSH1 0x0 PUSH1 0x2 PUSH1 0x0 DUP6 DUP2 MSTORE PUSH1 0x20 ADD SWAP1 DUP2 MSTORE PUSH1 0x20 ADD PUSH1 0x0 KECCAK256 PUSH1 0x0 DUP4 PUSH1 0xE0 ADD MLOAD DUP2 MSTORE PUSH1 0x20 ADD SWAP1 DUP2 MSTORE PUSH1 0x20 ADD PUSH1 0x0 KECCAK256 SWAP1 POP CALLER PUSH20 0xFFFFFFFFFFFFFFFFFFFFFFFFFFFFFFFFFFFFFFFF AND DUP2 PUSH1 0x2 ADD PUSH1 0x0 SWAP1 SLOAD SWAP1 PUSH2 0x100 EXP SWAP1 DIV PUSH20 0xFFFFFFFFFFFFFFFFFFFFFFFFFFFFFFFFFFFFFFFF AND PUSH20 0xFFFFFFFFFFFFFFFFFFFFFFFFFFFFFFFFFFFFFFFF AND EQ PUSH2 0x16E7 JUMPI PUSH1 0x40 MLOAD PUSH32 0x8C379A000000000000000000000000000000000000000000000000000000000 DUP2 MSTORE PUSH1 0x4 ADD PUSH2 0x16DE SWAP1 PUSH2 0x258B JUMP JUMPDEST PUSH1 0x40 MLOAD DUP1 SWAP2 SUB SWAP1 REVERT JUMPDEST DUP3 DUP2 PUSH1 0x2 ADD PUSH1 0x0 PUSH2 0x100 EXP DUP2 SLOAD DUP2 PUSH20 0xFFFFFFFFFFFFFFFFFFFFFFFFFFFFFFFFFFFFFFFF MUL NOT AND SWAP1 DUP4 PUSH20 0xFFFFFFFFFFFFFFFFFFFFFFFFFFFFFFFFFFFFFFFF AND MUL OR SWAP1 SSTORE POP POP POP POP POP JUMP JUMPDEST PUSH1 0x3 PUSH1 0x20 MSTORE DUP2 PUSH1 0x0 MSTORE PUSH1 0x40 PUSH1 0x0 KECCAK256 DUP2 DUP2 SLOAD DUP2 LT PUSH2 0x174C JUMPI PUSH1 0x0 DUP1 REVERT JUMPDEST SWAP1 PUSH1 0x0 MSTORE PUSH1 0x20 PUSH1 0x0 KECCAK256 ADD PUSH1 0x0 SWAP2 POP SWAP2 POP SWAP1 SLOAD SWAP1 PUSH2 0x100 EXP SWAP1 DIV PUSH20 0xFFFFFFFFFFFFFFFFFFFFFFFFFFFFFFFFFFFFFFFF AND DUP2 JUMP JUMPDEST PUSH1 0x1 PUSH1 0x20 MSTORE DUP1 PUSH1 0x0 MSTORE PUSH1 0x40 PUSH1 0x0 KECCAK256 PUSH1 0x0 SWAP2 POP SWAP1 POP DUP1 PUSH1 0x0 ADD PUSH1 0x0 SWAP1 SLOAD SWAP1 PUSH2 0x100 EXP SWAP1 DIV PUSH20 0xFFFFFFFFFFFFFFFFFFFFFFFFFFFFFFFFFFFFFFFF AND SWAP1 DUP1 PUSH1 0x1 ADD PUSH1 0x0 SWAP1 SLOAD SWAP1 PUSH2 0x100 EXP SWAP1 DIV PUSH20 0xFFFFFFFFFFFFFFFFFFFFFFFFFFFFFFFFFFFFFFFF AND SWAP1 DUP1 PUSH1 0x2 ADD PUSH1 0x0 SWAP1 SLOAD SWAP1 PUSH2 0x100 EXP SWAP1 DIV PUSH20 0xFFFFFFFFFFFFFFFFFFFFFFFFFFFFFFFFFFFFFFFF AND SWAP1 DUP1 PUSH1 0x3 ADD SLOAD SWAP1 DUP1 PUSH1 0x4 ADD SLOAD SWAP1 DUP1 PUSH1 0x5 ADD SLOAD SWAP1 DUP1 PUSH1 0x6 ADD SLOAD SWAP1 DUP1 PUSH1 0x7 ADD SLOAD SWAP1 POP DUP9 JUMP JUMPDEST TIMESTAMP DUP4 LT ISZERO PUSH2 0x1869 JUMPI PUSH1 0x40 MLOAD PUSH32 0x8C379A000000000000000000000000000000000000000000000000000000000 DUP2 MSTORE PUSH1 0x4 ADD PUSH2 0x1860 SWAP1 PUSH2 0x25F7 JUMP JUMPDEST PUSH1 0x40 MLOAD DUP1 SWAP2 SUB SWAP1 REVERT JUMPDEST DUP3 DUP3 GT PUSH2 0x18AB JUMPI PUSH1 0x40 MLOAD PUSH32 0x8C379A000000000000000000000000000000000000000000000000000000000 DUP2 MSTORE PUSH1 0x4 ADD PUSH2 0x18A2 SWAP1 PUSH2 0x2663 JUMP JUMPDEST PUSH1 0x40 MLOAD DUP1 SWAP2 SUB SWAP1 REVERT JUMPDEST PUSH1 0x40 MLOAD DUP1 PUSH2 0x100 ADD PUSH1 0x40 MSTORE DUP1 CALLER PUSH20 0xFFFFFFFFFFFFFFFFFFFFFFFFFFFFFFFFFFFFFFFF AND DUP2 MSTORE PUSH1 0x20 ADD DUP8 PUSH20 0xFFFFFFFFFFFFFFFFFFFFFFFFFFFFFFFFFFFFFFFF AND DUP2 MSTORE PUSH1 0x20 ADD DUP7 PUSH20 0xFFFFFFFFFFFFFFFFFFFFFFFFFFFFFFFFFFFFFFFF AND DUP2 MSTORE PUSH1 0x20 ADD DUP6 DUP2 MSTORE PUSH1 0x20 ADD DUP5 DUP2 MSTORE PUSH1 0x20 ADD DUP4 DUP2 MSTORE PUSH1 0x20 ADD DUP3 DUP2 MSTORE PUSH1 0x20 ADD PUSH1 0x0 DUP2 MSTORE POP PUSH1 0x1 PUSH1 0x0 DUP1 SLOAD DUP2 MSTORE PUSH1 0x20 ADD SWAP1 DUP2 MSTORE PUSH1 0x20 ADD PUSH1 0x0 KECCAK256 PUSH1 0x0 DUP3 ADD MLOAD DUP2 PUSH1 0x0 ADD PUSH1 0x0 PUSH2 0x100 EXP DUP2 SLOAD DUP2 PUSH20 0xFFFFFFFFFFFFFFFFFFFFFFFFFFFFFFFFFFFFFFFF MUL NOT AND SWAP1 DUP4 PUSH20 0xFFFFFFFFFFFFFFFFFFFFFFFFFFFFFFFFFFFFFFFF AND MUL OR SWAP1 SSTORE POP PUSH1 0x20 DUP3 ADD MLOAD DUP2 PUSH1 0x1 ADD PUSH1 0x0 PUSH2 0x100 EXP DUP2 SLOAD DUP2 PUSH20 0xFFFFFFFFFFFFFFFFFFFFFFFFFFFFFFFFFFFFFFFF MUL NOT AND SWAP1 DUP4 PUSH20 0xFFFFFFFFFFFFFFFFFFFFFFFFFFFFFFFFFFFFFFFF AND MUL OR SWAP1 SSTORE POP PUSH1 0x40 DUP3 ADD MLOAD DUP2 PUSH1 0x2 ADD PUSH1 0x0 PUSH2 0x100 EXP DUP2 SLOAD DUP2 PUSH20 0xFFFFFFFFFFFFFFFFFFFFFFFFFFFFFFFFFFFFFFFF MUL NOT AND SWAP1 DUP4 PUSH20 0xFFFFFFFFFFFFFFFFFFFFFFFFFFFFFFFFFFFFFFFF AND MUL OR SWAP1 SSTORE POP PUSH1 0x60 DUP3 ADD MLOAD DUP2 PUSH1 0x3 ADD SSTORE PUSH1 0x80 DUP3 ADD MLOAD DUP2 PUSH1 0x4 ADD SSTORE PUSH1 0xA0 DUP3 ADD MLOAD DUP2 PUSH1 0x5 ADD SSTORE PUSH1 0xC0 DUP3 ADD MLOAD DUP2 PUSH1 0x6 ADD SSTORE PUSH1 0xE0 DUP3 ADD MLOAD DUP2 PUSH1 0x7 ADD SSTORE SWAP1 POP POP TIMESTAMP PUSH1 0x2 PUSH1 0x0 DUP1 SLOAD DUP2 MSTORE PUSH1 0x20 ADD SWAP1 DUP2 MSTORE PUSH1 0x20 ADD PUSH1 0x0 KECCAK256 PUSH1 0x0 DUP1 DUP2 MSTORE PUSH1 0x20 ADD SWAP1 DUP2 MSTORE PUSH1 0x20 ADD PUSH1 0x0 KECCAK256 PUSH1 0x0 ADD DUP2 SWAP1 SSTORE POP PUSH1 0x0 SLOAD PUSH32 0xEF8B2952C43462575E82711D0CC91169720A4589A9FA533D173E022437F5405E DUP7 DUP7 PUSH1 0x40 MLOAD PUSH2 0x1AA7 SWAP3 SWAP2 SWAP1 PUSH2 0x2683 JUMP JUMPDEST PUSH1 0x40 MLOAD DUP1 SWAP2 SUB SWAP1 LOG2 PUSH1 0x0 DUP1 DUP2 SLOAD DUP1 SWAP3 SWAP2 SWAP1 PUSH2 0x1AC1 SWAP1 PUSH2 0x26AC JUMP JUMPDEST SWAP2 SWAP1 POP SSTORE POP POP POP POP POP POP POP JUMP JUMPDEST PUSH1 0x0 TIMESTAMP PUSH1 0x1 PUSH1 0x0 DUP5 DUP2 MSTORE PUSH1 0x20 ADD SWAP1 DUP2 MSTORE PUSH1 0x20 ADD PUSH1 0x0 KECCAK256 PUSH1 0x5 ADD SLOAD GT ISZERO SWAP1 POP SWAP2 SWAP1 POP JUMP JUMPDEST PUSH1 0x0 TIMESTAMP PUSH1 0x1 PUSH1 0x0 DUP5 DUP2 MSTORE PUSH1 0x20 ADD SWAP1 DUP2 MSTORE PUSH1 0x20 ADD PUSH1 0x0 KECCAK256 PUSH1 0x4 ADD SLOAD LT SWAP1 POP SWAP2 SWAP1 POP JUMP JUMPDEST PUSH1 0x0 DUP1 PUSH1 0x1 PUSH1 0x0 DUP5 DUP2 MSTORE PUSH1 0x20 ADD SWAP1 DUP2 MSTORE PUSH1 0x20 ADD PUSH1 0x0 KECCAK256 PUSH1 0x40 MLOAD DUP1 PUSH2 0x100 ADD PUSH1 0x40 MSTORE SWAP1 DUP2 PUSH1 0x0 DUP3 ADD PUSH1 0x0 SWAP1 SLOAD SWAP1 PUSH2 0x100 EXP SWAP1 DIV PUSH20 0xFFFFFFFFFFFFFFFFFFFFFFFFFFFFFFFFFFFFFFFF AND PUSH20 0xFFFFFFFFFFFFFFFFFFFFFFFFFFFFFFFFFFFFFFFF AND PUSH20 0xFFFFFFFFFFFFFFFFFFFFFFFFFFFFFFFFFFFFFFFF AND DUP2 MSTORE PUSH1 0x20 ADD PUSH1 0x1 DUP3 ADD PUSH1 0x0 SWAP1 SLOAD SWAP1 PUSH2 0x100 EXP SWAP1 DIV PUSH20 0xFFFFFFFFFFFFFFFFFFFFFFFFFFFFFFFFFFFFFFFF AND PUSH20 0xFFFFFFFFFFFFFFFFFFFFFFFFFFFFFFFFFFFFFFFF AND PUSH20 0xFFFFFFFFFFFFFFFFFFFFFFFFFFFFFFFFFFFFFFFF AND DUP2 MSTORE PUSH1 0x20 ADD PUSH1 0x2 DUP3 ADD PUSH1 0x0 SWAP1 SLOAD SWAP1 PUSH2 0x100 EXP SWAP1 DIV PUSH20 0xFFFFFFFFFFFFFFFFFFFFFFFFFFFFFFFFFFFFFFFF AND PUSH20 0xFFFFFFFFFFFFFFFFFFFFFFFFFFFFFFFFFFFFFFFF AND PUSH20 0xFFFFFFFFFFFFFFFFFFFFFFFFFFFFFFFFFFFFFFFF AND DUP2 MSTORE PUSH1 0x20 ADD PUSH1 0x3 DUP3 ADD SLOAD DUP2 MSTORE PUSH1 0x20 ADD PUSH1 0x4 DUP3 ADD SLOAD DUP2 MSTORE PUSH1 0x20 ADD PUSH1 0x5 DUP3 ADD SLOAD DUP2 MSTORE PUSH1 0x20 ADD PUSH1 0x6 DUP3 ADD SLOAD DUP2 MSTORE PUSH1 0x20 ADD PUSH1 0x7 DUP3 ADD SLOAD DUP2 MSTORE POP POP SWAP1 POP PUSH1 0x0 PUSH1 0x2 PUSH1 0x0 DUP6 DUP2 MSTORE PUSH1 0x20 ADD SWAP1 DUP2 MSTORE PUSH1 0x20 ADD PUSH1 0x0 KECCAK256 PUSH1 0x0 DUP4 PUSH1 0xE0 ADD MLOAD DUP2 MSTORE PUSH1 0x20 ADD SWAP1 DUP2 MSTORE PUSH1 0x20 ADD PUSH1 0x0 KECCAK256 PUSH1 0x40 MLOAD DUP1 PUSH1 0x60 ADD PUSH1 0x40 MSTORE SWAP1 DUP2 PUSH1 0x0 DUP3 ADD SLOAD DUP2 MSTORE PUSH1 0x20 ADD PUSH1 0x1 DUP3 ADD SLOAD DUP2 MSTORE PUSH1 0x20 ADD PUSH1 0x2 DUP3 ADD PUSH1 0x0 SWAP1 SLOAD SWAP1 PUSH2 0x100 EXP SWAP1 DIV PUSH20 0xFFFFFFFFFFFFFFFFFFFFFFFFFFFFFFFFFFFFFFFF AND PUSH20 0xFFFFFFFFFFFFFFFFFFFFFFFFFFFFFFFFFFFFFFFF AND PUSH20 0xFFFFFFFFFFFFFFFFFFFFFFFFFFFFFFFFFFFFFFFF AND DUP2 MSTORE POP POP SWAP1 POP PUSH1 0x0 PUSH2 0x1D17 DUP6 PUSH2 0x1ACE JUMP JUMPDEST ISZERO PUSH2 0x1D37 JUMPI DUP3 PUSH1 0xA0 ADD MLOAD DUP3 PUSH1 0x0 ADD MLOAD PUSH2 0x1D30 SWAP2 SWAP1 PUSH2 0x250B JUMP JUMPDEST SWAP1 POP PUSH2 0x1D4A JUMP JUMPDEST TIMESTAMP DUP3 PUSH1 0x0 ADD MLOAD PUSH2 0x1D47 SWAP2 SWAP1 PUSH2 0x250B JUMP JUMPDEST SWAP1 POP JUMPDEST PUSH4 0x1E13380 DUP2 PUSH8 0xDE0B6B3A7640000 DUP6 PUSH1 0xC0 ADD MLOAD DUP6 PUSH1 0x20 ADD MLOAD PUSH2 0x1D6D SWAP2 SWAP1 PUSH2 0x26F4 JUMP JUMPDEST PUSH2 0x1D77 SWAP2 SWAP1 PUSH2 0x277D JUMP JUMPDEST PUSH2 0x1D81 SWAP2 SWAP1 PUSH2 0x26F4 JUMP JUMPDEST PUSH2 0x1D8B SWAP2 SWAP1 PUSH2 0x277D JUMP JUMPDEST DUP3 PUSH1 0x20 ADD MLOAD PUSH2 0x1D9A SWAP2 SWAP1 PUSH2 0x2406 JUMP JUMPDEST SWAP4 POP POP POP POP SWAP2 SWAP1 POP JUMP JUMPDEST PUSH1 0x40 MLOAD DUP1 PUSH2 0x100 ADD PUSH1 0x40 MSTORE DUP1 PUSH1 0x0 PUSH20 0xFFFFFFFFFFFFFFFFFFFFFFFFFFFFFFFFFFFFFFFF AND DUP2 MSTORE PUSH1 0x20 ADD PUSH1 0x0 PUSH20 0xFFFFFFFFFFFFFFFFFFFFFFFFFFFFFFFFFFFFFFFF AND DUP2 MSTORE PUSH1 0x20 ADD PUSH1 0x0 PUSH20 0xFFFFFFFFFFFFFFFFFFFFFFFFFFFFFFFFFFFFFFFF AND DUP2 MSTORE PUSH1 0x20 ADD PUSH1 0x0 DUP2 MSTORE PUSH1 0x20 ADD PUSH1 0x0 DUP2 MSTORE PUSH1 0x20 ADD PUSH1 0x0 DUP2 MSTORE PUSH1 0x20 ADD PUSH1 0x0 DUP2 MSTORE PUSH1 0x20 ADD PUSH1 0x0 DUP2 MSTORE POP SWAP1 JUMP JUMPDEST PUSH1 0x0 DUP2 SWAP1 POP SWAP2 SWAP1 POP JUMP JUMPDEST PUSH2 0x1E3E DUP2 PUSH2 0x1E2B JUMP JUMPDEST DUP3 MSTORE POP POP JUMP JUMPDEST PUSH1 0x0 PUSH1 0x20 DUP3 ADD SWAP1 POP PUSH2 0x1E59 PUSH1 0x0 DUP4 ADD DUP5 PUSH2 0x1E35 JUMP JUMPDEST SWAP3 SWAP2 POP POP JUMP JUMPDEST PUSH1 0x0 DUP1 REVERT JUMPDEST PUSH2 0x1E6D DUP2 PUSH2 0x1E2B JUMP JUMPDEST DUP2 EQ PUSH2 0x1E78 JUMPI PUSH1 0x0 DUP1 REVERT JUMPDEST POP JUMP JUMPDEST PUSH1 0x0 DUP2 CALLDATALOAD SWAP1 POP PUSH2 0x1E8A DUP2 PUSH2 0x1E64 JUMP JUMPDEST SWAP3 SWAP2 POP POP JUMP JUMPDEST PUSH1 0x0 PUSH1 0x20 DUP3 DUP5 SUB SLT ISZERO PUSH2 0x1EA6 JUMPI PUSH2 0x1EA5 PUSH2 0x1E5F JUMP JUMPDEST JUMPDEST PUSH1 0x0 PUSH2 0x1EB4 DUP5 DUP3 DUP6 ADD PUSH2 0x1E7B JUMP JUMPDEST SWAP2 POP POP SWAP3 SWAP2 POP POP JUMP JUMPDEST PUSH1 0x0 DUP1 PUSH1 0x40 DUP4 DUP6 SUB SLT ISZERO PUSH2 0x1ED4 JUMPI PUSH2 0x1ED3 PUSH2 0x1E5F JUMP JUMPDEST JUMPDEST PUSH1 0x0 PUSH2 0x1EE2 DUP6 DUP3 DUP7 ADD PUSH2 0x1E7B JUMP JUMPDEST SWAP3 POP POP PUSH1 0x20 PUSH2 0x1EF3 DUP6 DUP3 DUP7 ADD PUSH2 0x1E7B JUMP JUMPDEST SWAP2 POP POP SWAP3 POP SWAP3 SWAP1 POP JUMP JUMPDEST PUSH1 0x0 PUSH20 0xFFFFFFFFFFFFFFFFFFFFFFFFFFFFFFFFFFFFFFFF DUP3 AND SWAP1 POP SWAP2 SWAP1 POP JUMP JUMPDEST PUSH1 0x0 PUSH2 0x1F28 DUP3 PUSH2 0x1EFD JUMP JUMPDEST SWAP1 POP SWAP2 SWAP1 POP JUMP JUMPDEST PUSH2 0x1F38 DUP2 PUSH2 0x1F1D JUMP JUMPDEST DUP3 MSTORE POP POP JUMP JUMPDEST PUSH1 0x0 PUSH1 0x60 DUP3 ADD SWAP1 POP PUSH2 0x1F53 PUSH1 0x0 DUP4 ADD DUP7 PUSH2 0x1E35 JUMP JUMPDEST PUSH2 0x1F60 PUSH1 0x20 DUP4 ADD DUP6 PUSH2 0x1E35 JUMP JUMPDEST PUSH2 0x1F6D PUSH1 0x40 DUP4 ADD DUP5 PUSH2 0x1F2F JUMP JUMPDEST SWAP5 SWAP4 POP POP POP POP JUMP JUMPDEST PUSH2 0x1F7E DUP2 PUSH2 0x1F1D JUMP JUMPDEST DUP2 EQ PUSH2 0x1F89 JUMPI PUSH1 0x0 DUP1 REVERT JUMPDEST POP JUMP JUMPDEST PUSH1 0x0 DUP2 CALLDATALOAD SWAP1 POP PUSH2 0x1F9B DUP2 PUSH2 0x1F75 JUMP JUMPDEST SWAP3 SWAP2 POP POP JUMP JUMPDEST PUSH1 0x0 DUP1 PUSH1 0x40 DUP4 DUP6 SUB SLT ISZERO PUSH2 0x1FB8 JUMPI PUSH2 0x1FB7 PUSH2 0x1E5F JUMP JUMPDEST JUMPDEST PUSH1 0x0 PUSH2 0x1FC6 DUP6 DUP3 DUP7 ADD PUSH2 0x1E7B JUMP JUMPDEST SWAP3 POP POP PUSH1 0x20 PUSH2 0x1FD7 DUP6 DUP3 DUP7 ADD PUSH2 0x1F8C JUMP JUMPDEST SWAP2 POP POP SWAP3 POP SWAP3 SWAP1 POP JUMP JUMPDEST PUSH1 0x0 PUSH1 0x20 DUP3 ADD SWAP1 POP PUSH2 0x1FF6 PUSH1 0x0 DUP4 ADD DUP5 PUSH2 0x1F2F JUMP JUMPDEST SWAP3 SWAP2 POP POP JUMP JUMPDEST PUSH1 0x0 PUSH2 0x100 DUP3 ADD SWAP1 POP PUSH2 0x2012 PUSH1 0x0 DUP4 ADD DUP12 PUSH2 0x1F2F JUMP JUMPDEST PUSH2 0x201F PUSH1 0x20 DUP4 ADD DUP11 PUSH2 0x1F2F JUMP JUMPDEST PUSH2 0x202C PUSH1 0x40 DUP4 ADD DUP10 PUSH2 0x1F2F JUMP JUMPDEST PUSH2 0x2039 PUSH1 0x60 DUP4 ADD DUP9 PUSH2 0x1E35 JUMP JUMPDEST PUSH2 0x2046 PUSH1 0x80 DUP4 ADD DUP8 PUSH2 0x1E35 JUMP JUMPDEST PUSH2 0x2053 PUSH1 0xA0 DUP4 ADD DUP7 PUSH2 0x1E35 JUMP JUMPDEST PUSH2 0x2060 PUSH1 0xC0 DUP4 ADD DUP6 PUSH2 0x1E35 JUMP JUMPDEST PUSH2 0x206D PUSH1 0xE0 DUP4 ADD DUP5 PUSH2 0x1E35 JUMP JUMPDEST SWAP10 SWAP9 POP POP POP POP POP POP POP POP POP JUMP JUMPDEST PUSH1 0x0 DUP1 PUSH1 0x0 DUP1 PUSH1 0x0 DUP1 PUSH1 0xC0 DUP8 DUP10 SUB SLT ISZERO PUSH2 0x2097 JUMPI PUSH2 0x2096 PUSH2 0x1E5F JUMP JUMPDEST JUMPDEST PUSH1 0x0 PUSH2 0x20A5 DUP10 DUP3 DUP11 ADD PUSH2 0x1F8C JUMP JUMPDEST SWAP7 POP POP PUSH1 0x20 PUSH2 0x20B6 DUP10 DUP3 DUP11 ADD PUSH2 0x1F8C JUMP JUMPDEST SWAP6 POP POP PUSH1 0x40 PUSH2 0x20C7 DUP10 DUP3 DUP11 ADD PUSH2 0x1E7B JUMP JUMPDEST SWAP5 POP POP PUSH1 0x60 PUSH2 0x20D8 DUP10 DUP3 DUP11 ADD PUSH2 0x1E7B JUMP JUMPDEST SWAP4 POP POP PUSH1 0x80 PUSH2 0x20E9 DUP10 DUP3 DUP11 ADD PUSH2 0x1E7B JUMP JUMPDEST SWAP3 POP POP PUSH1 0xA0 PUSH2 0x20FA DUP10 DUP3 DUP11 ADD PUSH2 0x1E7B JUMP JUMPDEST SWAP2 POP POP SWAP3 SWAP6 POP SWAP3 SWAP6 POP SWAP3 SWAP6 JUMP JUMPDEST PUSH1 0x0 DUP3 DUP3 MSTORE PUSH1 0x20 DUP3 ADD SWAP1 POP SWAP3 SWAP2 POP POP JUMP JUMPDEST PUSH32 0x4C414E3A206E6F74206F776E6572000000000000000000000000000000000000 PUSH1 0x0 DUP3 ADD MSTORE POP JUMP JUMPDEST PUSH1 0x0 PUSH2 0x214E PUSH1 0xE DUP4 PUSH2 0x2107 JUMP JUMPDEST SWAP2 POP PUSH2 0x2159 DUP3 PUSH2 0x2118 JUMP JUMPDEST PUSH1 0x20 DUP3 ADD SWAP1 POP SWAP2 SWAP1 POP JUMP JUMPDEST PUSH1 0x0 PUSH1 0x20 DUP3 ADD SWAP1 POP DUP2 DUP2 SUB PUSH1 0x0 DUP4 ADD MSTORE PUSH2 0x217D DUP2 PUSH2 0x2141 JUMP JUMPDEST SWAP1 POP SWAP2 SWAP1 POP JUMP JUMPDEST PUSH32 0x4C414E3A206C6F616E206E6F7420656E64656400000000000000000000000000 PUSH1 0x0 DUP3 ADD MSTORE POP JUMP JUMPDEST PUSH1 0x0 PUSH2 0x21BA PUSH1 0x13 DUP4 PUSH2 0x2107 JUMP JUMPDEST SWAP2 POP PUSH2 0x21C5 DUP3 PUSH2 0x2184 JUMP JUMPDEST PUSH1 0x20 DUP3 ADD SWAP1 POP SWAP2 SWAP1 POP JUMP JUMPDEST PUSH1 0x0 PUSH1 0x20 DUP3 ADD SWAP1 POP DUP2 DUP2 SUB PUSH1 0x0 DUP4 ADD MSTORE PUSH2 0x21E9 DUP2 PUSH2 0x21AD JUMP JUMPDEST SWAP1 POP SWAP2 SWAP1 POP JUMP JUMPDEST PUSH32 0x4C414E3A206E6F74206C61746573742062696464657200000000000000000000 PUSH1 0x0 DUP3 ADD MSTORE POP JUMP JUMPDEST PUSH1 0x0 PUSH2 0x2226 PUSH1 0x16 DUP4 PUSH2 0x2107 JUMP JUMPDEST SWAP2 POP PUSH2 0x2231 DUP3 PUSH2 0x21F0 JUMP JUMPDEST PUSH1 0x20 DUP3 ADD SWAP1 POP SWAP2 SWAP1 POP JUMP JUMPDEST PUSH1 0x0 PUSH1 0x20 DUP3 ADD SWAP1 POP DUP2 DUP2 SUB PUSH1 0x0 DUP4 ADD MSTORE PUSH2 0x2255 DUP2 PUSH2 0x2219 JUMP JUMPDEST SWAP1 POP SWAP2 SWAP1 POP JUMP JUMPDEST PUSH1 0x0 PUSH1 0x60 DUP3 ADD SWAP1 POP PUSH2 0x2271 PUSH1 0x0 DUP4 ADD DUP7 PUSH2 0x1F2F JUMP JUMPDEST PUSH2 0x227E PUSH1 0x20 DUP4 ADD DUP6 PUSH2 0x1F2F JUMP JUMPDEST PUSH2 0x228B PUSH1 0x40 DUP4 ADD DUP5 PUSH2 0x1E35 JUMP JUMPDEST SWAP5 SWAP4 POP POP POP POP JUMP JUMPDEST PUSH32 0x4C414E3A20616C72656164792073746172746564000000000000000000000000 PUSH1 0x0 DUP3 ADD MSTORE POP JUMP JUMPDEST PUSH1 0x0 PUSH2 0x22C9 PUSH1 0x14 DUP4 PUSH2 0x2107 JUMP JUMPDEST SWAP2 POP PUSH2 0x22D4 DUP3 PUSH2 0x2293 JUMP JUMPDEST PUSH1 0x20 DUP3 ADD SWAP1 POP SWAP2 SWAP1 POP JUMP JUMPDEST PUSH1 0x0 PUSH1 0x20 DUP3 ADD SWAP1 POP DUP2 DUP2 SUB PUSH1 0x0 DUP4 ADD MSTORE PUSH2 0x22F8 DUP2 PUSH2 0x22BC JUMP JUMPDEST SWAP1 POP SWAP2 SWAP1 POP JUMP JUMPDEST PUSH32 0x4C414E3A206E6F74207374617274656400000000000000000000000000000000 PUSH1 0x0 DUP3 ADD MSTORE POP JUMP JUMPDEST PUSH1 0x0 PUSH2 0x2335 PUSH1 0x10 DUP4 PUSH2 0x2107 JUMP JUMPDEST SWAP2 POP PUSH2 0x2340 DUP3 PUSH2 0x22FF JUMP JUMPDEST PUSH1 0x20 DUP3 ADD SWAP1 POP SWAP2 SWAP1 POP JUMP JUMPDEST PUSH1 0x0 PUSH1 0x20 DUP3 ADD SWAP1 POP DUP2 DUP2 SUB PUSH1 0x0 DUP4 ADD MSTORE PUSH2 0x2364 DUP2 PUSH2 0x2328 JUMP JUMPDEST SWAP1 POP SWAP2 SWAP1 POP JUMP JUMPDEST PUSH32 0x4C414E3A20616C726561647920656E6465640000000000000000000000000000 PUSH1 0x0 DUP3 ADD MSTORE POP JUMP JUMPDEST PUSH1 0x0 PUSH2 0x23A1 PUSH1 0x12 DUP4 PUSH2 0x2107 JUMP JUMPDEST SWAP2 POP PUSH2 0x23AC DUP3 PUSH2 0x236B JUMP JUMPDEST PUSH1 0x20 DUP3 ADD SWAP1 POP SWAP2 SWAP1 POP JUMP JUMPDEST PUSH1 0x0 PUSH1 0x20 DUP3 ADD SWAP1 POP DUP2 DUP2 SUB PUSH1 0x0 DUP4 ADD MSTORE PUSH2 0x23D0 DUP2 PUSH2 0x2394 JUMP JUMPDEST SWAP1 POP SWAP2 SWAP1 POP JUMP JUMPDEST PUSH32 0x4E487B7100000000000000000000000000000000000000000000000000000000 PUSH1 0x0 MSTORE PUSH1 0x11 PUSH1 0x4 MSTORE PUSH1 0x24 PUSH1 0x0 REVERT JUMPDEST PUSH1 0x0 PUSH2 0x2411 DUP3 PUSH2 0x1E2B JUMP JUMPDEST SWAP2 POP PUSH2 0x241C DUP4 PUSH2 0x1E2B JUMP JUMPDEST SWAP3 POP DUP3 DUP3 ADD SWAP1 POP DUP1 DUP3 GT ISZERO PUSH2 0x2434 JUMPI PUSH2 0x2433 PUSH2 0x23D7 JUMP JUMPDEST JUMPDEST SWAP3 SWAP2 POP POP JUMP JUMPDEST PUSH32 0x4C414E3A20626964206E6F742068696768657200000000000000000000000000 PUSH1 0x0 DUP3 ADD MSTORE POP JUMP JUMPDEST PUSH1 0x0 PUSH2 0x2470 PUSH1 0x13 DUP4 PUSH2 0x2107 JUMP JUMPDEST SWAP2 POP PUSH2 0x247B DUP3 PUSH2 0x243A JUMP JUMPDEST PUSH1 0x20 DUP3 ADD SWAP1 POP SWAP2 SWAP1 POP JUMP JUMPDEST PUSH1 0x0 PUSH1 0x20 DUP3 ADD SWAP1 POP DUP2 DUP2 SUB PUSH1 0x0 DUP4 ADD MSTORE PUSH2 0x249F DUP2 PUSH2 0x2463 JUMP JUMPDEST SWAP1 POP SWAP2 SWAP1 POP JUMP JUMPDEST PUSH1 0x0 DUP2 ISZERO ISZERO SWAP1 POP SWAP2 SWAP1 POP JUMP JUMPDEST PUSH2 0x24BB DUP2 PUSH2 0x24A6 JUMP JUMPDEST DUP2 EQ PUSH2 0x24C6 JUMPI PUSH1 0x0 DUP1 REVERT JUMPDEST POP JUMP JUMPDEST PUSH1 0x0 DUP2 MLOAD SWAP1 POP PUSH2 0x24D8 DUP2 PUSH2 0x24B2 JUMP JUMPDEST SWAP3 SWAP2 POP POP JUMP JUMPDEST PUSH1 0x0 PUSH1 0x20 DUP3 DUP5 SUB SLT ISZERO PUSH2 0x24F4 JUMPI PUSH2 0x24F3 PUSH2 0x1E5F JUMP JUMPDEST JUMPDEST PUSH1 0x0 PUSH2 0x2502 DUP5 DUP3 DUP6 ADD PUSH2 0x24C9 JUMP JUMPDEST SWAP2 POP POP SWAP3 SWAP2 POP POP JUMP JUMPDEST PUSH1 0x0 PUSH2 0x2516 DUP3 PUSH2 0x1E2B JUMP JUMPDEST SWAP2 POP PUSH2 0x2521 DUP4 PUSH2 0x1E2B JUMP JUMPDEST SWAP3 POP DUP3 DUP3 SUB SWAP1 POP DUP2 DUP2 GT ISZERO PUSH2 0x2539 JUMPI PUSH2 0x2538 PUSH2 0x23D7 JUMP JUMPDEST JUMPDEST SWAP3 SWAP2 POP POP JUMP JUMPDEST PUSH32 0x4C414E3A204E6F7420746865206C617465737420626964646572000000000000 PUSH1 0x0 DUP3 ADD MSTORE POP JUMP JUMPDEST PUSH1 0x0 PUSH2 0x2575 PUSH1 0x1A DUP4 PUSH2 0x2107 JUMP JUMPDEST SWAP2 POP PUSH2 0x2580 DUP3 PUSH2 0x253F JUMP JUMPDEST PUSH1 0x20 DUP3 ADD SWAP1 POP SWAP2 SWAP1 POP JUMP JUMPDEST PUSH1 0x0 PUSH1 0x20 DUP3 ADD SWAP1 POP DUP2 DUP2 SUB PUSH1 0x0 DUP4 ADD MSTORE PUSH2 0x25A4 DUP2 PUSH2 0x2568 JUMP JUMPDEST SWAP1 POP SWAP2 SWAP1 POP JUMP JUMPDEST PUSH32 0x4C414E3A2073746172742074696D6520696E2070617374000000000000000000 PUSH1 0x0 DUP3 ADD MSTORE POP JUMP JUMPDEST PUSH1 0x0 PUSH2 0x25E1 PUSH1 0x17 DUP4 PUSH2 0x2107 JUMP JUMPDEST SWAP2 POP PUSH2 0x25EC DUP3 PUSH2 0x25AB JUMP JUMPDEST PUSH1 0x20 DUP3 ADD SWAP1 POP SWAP2 SWAP1 POP JUMP JUMPDEST PUSH1 0x0 PUSH1 0x20 DUP3 ADD SWAP1 POP DUP2 DUP2 SUB PUSH1 0x0 DUP4 ADD MSTORE PUSH2 0x2610 DUP2 PUSH2 0x25D4 JUMP JUMPDEST SWAP1 POP SWAP2 SWAP1 POP JUMP JUMPDEST PUSH32 0x4C414E3A20737461727420616674657220656E64000000000000000000000000 PUSH1 0x0 DUP3 ADD MSTORE POP JUMP JUMPDEST PUSH1 0x0 PUSH2 0x264D PUSH1 0x14 DUP4 PUSH2 0x2107 JUMP JUMPDEST SWAP2 POP PUSH2 0x2658 DUP3 PUSH2 0x2617 JUMP JUMPDEST PUSH1 0x20 DUP3 ADD SWAP1 POP SWAP2 SWAP1 POP JUMP JUMPDEST PUSH1 0x0 PUSH1 0x20 DUP3 ADD SWAP1 POP DUP2 DUP2 SUB PUSH1 0x0 DUP4 ADD MSTORE PUSH2 0x267C DUP2 PUSH2 0x2640 JUMP JUMPDEST SWAP1 POP SWAP2 SWAP1 POP JUMP JUMPDEST PUSH1 0x0 PUSH1 0x40 DUP3 ADD SWAP1 POP PUSH2 0x2698 PUSH1 0x0 DUP4 ADD DUP6 PUSH2 0x1F2F JUMP JUMPDEST PUSH2 0x26A5 PUSH1 0x20 DUP4 ADD DUP5 PUSH2 0x1E35 JUMP JUMPDEST SWAP4 SWAP3 POP POP POP JUMP JUMPDEST PUSH1 0x0 PUSH2 0x26B7 DUP3 PUSH2 0x1E2B JUMP JUMPDEST SWAP2 POP PUSH32 0xFFFFFFFFFFFFFFFFFFFFFFFFFFFFFFFFFFFFFFFFFFFFFFFFFFFFFFFFFFFFFFFF DUP3 SUB PUSH2 0x26E9 JUMPI PUSH2 0x26E8 PUSH2 0x23D7 JUMP JUMPDEST JUMPDEST PUSH1 0x1 DUP3 ADD SWAP1 POP SWAP2 SWAP1 POP JUMP JUMPDEST PUSH1 0x0 PUSH2 0x26FF DUP3 PUSH2 0x1E2B JUMP JUMPDEST SWAP2 POP PUSH2 0x270A DUP4 PUSH2 0x1E2B JUMP JUMPDEST SWAP3 POP DUP2 PUSH32 0xFFFFFFFFFFFFFFFFFFFFFFFFFFFFFFFFFFFFFFFFFFFFFFFFFFFFFFFFFFFFFFFF DIV DUP4 GT DUP3 ISZERO ISZERO AND ISZERO PUSH2 0x2743 JUMPI PUSH2 0x2742 PUSH2 0x23D7 JUMP JUMPDEST JUMPDEST DUP3 DUP3 MUL SWAP1 POP SWAP3 SWAP2 POP POP JUMP JUMPDEST PUSH32 0x4E487B7100000000000000000000000000000000000000000000000000000000 PUSH1 0x0 MSTORE PUSH1 0x12 PUSH1 0x4 MSTORE PUSH1 0x24 PUSH1 0x0 REVERT JUMPDEST PUSH1 0x0 PUSH2 0x2788 DUP3 PUSH2 0x1E2B JUMP JUMPDEST SWAP2 POP PUSH2 0x2793 DUP4 PUSH2 0x1E2B JUMP JUMPDEST SWAP3 POP DUP3 PUSH2 0x27A3 JUMPI PUSH2 0x27A2 PUSH2 0x274E JUMP JUMPDEST JUMPDEST DUP3 DUP3 DIV SWAP1 POP SWAP3 SWAP2 POP POP JUMP INVALID LOG2 PUSH5 0x6970667358 0x22 SLT KECCAK256 DUP1 MULMOD PUSH31 0xC0C21444BDED3760DD053E76607FD54B110576927FEB2240B65A1F14EA6473 PUSH16 0x6C634300081000330000000000000000 "
				},
				"gasEstimates": {
					"creation": {
						"codeDepositCost": "2042400",
						"executionCost": "2171",
						"totalCost": "2044571"
					},
					"external": {
						"bid(uint256,uint256)": "infinite",
						"bids(uint256,uint256)": "infinite",
						"cancel(uint256)": "infinite",
						"count()": "2430",
						"endLoan(uint256)": "infinite",
						"launch(address,address,uint256,uint256,uint256,uint256)": "infinite",
						"liquidate(uint256)": "infinite",
						"liquidateEarly(uint256)": "infinite",
						"loans(uint256)": "infinite",
						"setNewBidOwner(uint256,address)": "49058",
						"whitelistedAddresses(uint256,uint256)": "infinite"
					},
					"internal": {
						"_calculateLoanValue(uint256)": "infinite",
						"_ended(uint256)": "2226",
						"_started(uint256)": "2223"
					}
				},
				"methodIdentifiers": {
					"bid(uint256,uint256)": "598647f8",
					"bids(uint256,uint256)": "7b3c4baa",
					"cancel(uint256)": "40e58ee5",
					"count()": "06661abd",
					"endLoan(uint256)": "7870860b",
					"launch(address,address,uint256,uint256,uint256,uint256)": "e7e4dfcd",
					"liquidate(uint256)": "415f1240",
					"liquidateEarly(uint256)": "18de4f9d",
					"loans(uint256)": "e1ec3c68",
					"setNewBidOwner(uint256,address)": "8f769f3a",
					"whitelistedAddresses(uint256,uint256)": "9bea77da"
				}
			},
			"storageLayout": {
				"storage": [
					{
						"astId": 223,
						"contract": "main.sol:LAN",
						"label": "count",
						"offset": 0,
						"slot": "0",
						"type": "t_uint256"
					},
					{
						"astId": 245,
						"contract": "main.sol:LAN",
						"label": "loans",
						"offset": 0,
						"slot": "1",
						"type": "t_mapping(t_uint256,t_struct(Loan)240_storage)"
					},
					{
						"astId": 259,
						"contract": "main.sol:LAN",
						"label": "bids",
						"offset": 0,
						"slot": "2",
						"type": "t_mapping(t_uint256,t_mapping(t_uint256,t_struct(Bid)252_storage))"
					},
					{
						"astId": 264,
						"contract": "main.sol:LAN",
						"label": "whitelistedAddresses",
						"offset": 0,
						"slot": "3",
						"type": "t_mapping(t_uint256,t_array(t_address)dyn_storage)"
					}
				],
				"types": {
					"t_address": {
						"encoding": "inplace",
						"label": "address",
						"numberOfBytes": "20"
					},
					"t_array(t_address)dyn_storage": {
						"base": "t_address",
						"encoding": "dynamic_array",
						"label": "address[]",
						"numberOfBytes": "32"
					},
					"t_mapping(t_uint256,t_array(t_address)dyn_storage)": {
						"encoding": "mapping",
						"key": "t_uint256",
						"label": "mapping(uint256 => address[])",
						"numberOfBytes": "32",
						"value": "t_array(t_address)dyn_storage"
					},
					"t_mapping(t_uint256,t_mapping(t_uint256,t_struct(Bid)252_storage))": {
						"encoding": "mapping",
						"key": "t_uint256",
						"label": "mapping(uint256 => mapping(uint256 => struct LAN.Bid))",
						"numberOfBytes": "32",
						"value": "t_mapping(t_uint256,t_struct(Bid)252_storage)"
					},
					"t_mapping(t_uint256,t_struct(Bid)252_storage)": {
						"encoding": "mapping",
						"key": "t_uint256",
						"label": "mapping(uint256 => struct LAN.Bid)",
						"numberOfBytes": "32",
						"value": "t_struct(Bid)252_storage"
					},
					"t_mapping(t_uint256,t_struct(Loan)240_storage)": {
						"encoding": "mapping",
						"key": "t_uint256",
						"label": "mapping(uint256 => struct LAN.Loan)",
						"numberOfBytes": "32",
						"value": "t_struct(Loan)240_storage"
					},
					"t_struct(Bid)252_storage": {
						"encoding": "inplace",
						"label": "struct LAN.Bid",
						"members": [
							{
								"astId": 247,
								"contract": "main.sol:LAN",
								"label": "bidTime",
								"offset": 0,
								"slot": "0",
								"type": "t_uint256"
							},
							{
								"astId": 249,
								"contract": "main.sol:LAN",
								"label": "bidAmount",
								"offset": 0,
								"slot": "1",
								"type": "t_uint256"
							},
							{
								"astId": 251,
								"contract": "main.sol:LAN",
								"label": "user",
								"offset": 0,
								"slot": "2",
								"type": "t_address"
							}
						],
						"numberOfBytes": "96"
					},
					"t_struct(Loan)240_storage": {
						"encoding": "inplace",
						"label": "struct LAN.Loan",
						"members": [
							{
								"astId": 225,
								"contract": "main.sol:LAN",
								"label": "owner",
								"offset": 0,
								"slot": "0",
								"type": "t_address"
							},
							{
								"astId": 227,
								"contract": "main.sol:LAN",
								"label": "token",
								"offset": 0,
								"slot": "1",
								"type": "t_address"
							},
							{
								"astId": 229,
								"contract": "main.sol:LAN",
								"label": "collectionAddress",
								"offset": 0,
								"slot": "2",
								"type": "t_address"
							},
							{
								"astId": 231,
								"contract": "main.sol:LAN",
								"label": "nftId",
								"offset": 0,
								"slot": "3",
								"type": "t_uint256"
							},
							{
								"astId": 233,
								"contract": "main.sol:LAN",
								"label": "startTime",
								"offset": 0,
								"slot": "4",
								"type": "t_uint256"
							},
							{
								"astId": 235,
								"contract": "main.sol:LAN",
								"label": "endTime",
								"offset": 0,
								"slot": "5",
								"type": "t_uint256"
							},
							{
								"astId": 237,
								"contract": "main.sol:LAN",
								"label": "apr",
								"offset": 0,
								"slot": "6",
								"type": "t_uint256"
							},
							{
								"astId": 239,
								"contract": "main.sol:LAN",
								"label": "numBids",
								"offset": 0,
								"slot": "7",
								"type": "t_uint256"
							}
						],
						"numberOfBytes": "256"
					},
					"t_uint256": {
						"encoding": "inplace",
						"label": "uint256",
						"numberOfBytes": "32"
					}
				}
			},
			"userdoc": {
				"kind": "user",
				"methods": {},
				"version": 1
			}
		}
	}
}