{
	"main.sol": {
		"LAN": {
			"abi": [
				{
					"anonymous": false,
					"inputs": [
						{
							"indexed": false,
							"internalType": "uint256",
							"name": "Id",
							"type": "uint256"
						}
					],
					"name": "loanCancelled",
					"type": "event"
				},
				{
					"anonymous": false,
					"inputs": [
						{
							"indexed": true,
							"internalType": "uint256",
							"name": "poolId",
							"type": "uint256"
						},
						{
							"indexed": false,
							"internalType": "address",
							"name": "collectionAddress",
							"type": "address"
						},
						{
							"indexed": false,
							"internalType": "uint256",
							"name": "nftId",
							"type": "uint256"
						}
					],
					"name": "newPool",
					"type": "event"
				},
				{
					"inputs": [
						{
							"internalType": "uint256",
							"name": "_poolId",
							"type": "uint256"
						},
						{
							"internalType": "uint256",
							"name": "_amount",
							"type": "uint256"
						}
					],
					"name": "bid",
					"outputs": [],
					"stateMutability": "nonpayable",
					"type": "function"
				},
				{
					"inputs": [
						{
							"internalType": "uint256",
							"name": "",
							"type": "uint256"
						},
						{
							"internalType": "uint256",
							"name": "",
							"type": "uint256"
						}
					],
					"name": "bids",
					"outputs": [
						{
							"internalType": "uint256",
							"name": "bidTime",
							"type": "uint256"
						},
						{
							"internalType": "uint256",
							"name": "bidAmount",
							"type": "uint256"
						},
						{
							"internalType": "address",
							"name": "user",
							"type": "address"
						}
					],
					"stateMutability": "view",
					"type": "function"
				},
				{
					"inputs": [
						{
							"internalType": "uint256",
							"name": "_poolId",
							"type": "uint256"
						}
					],
					"name": "cancel",
					"outputs": [],
					"stateMutability": "nonpayable",
					"type": "function"
				},
				{
					"inputs": [],
					"name": "count",
					"outputs": [
						{
							"internalType": "uint256",
							"name": "",
							"type": "uint256"
						}
					],
					"stateMutability": "view",
					"type": "function"
				},
				{
					"inputs": [
						{
							"internalType": "uint256",
							"name": "_poolId",
							"type": "uint256"
						}
					],
					"name": "endLoan",
					"outputs": [],
					"stateMutability": "nonpayable",
					"type": "function"
				},
				{
					"inputs": [
						{
							"internalType": "address",
							"name": "_token",
							"type": "address"
						},
						{
							"internalType": "address",
							"name": "_collectionAddress",
							"type": "address"
						},
						{
							"internalType": "uint256",
							"name": "_nftId",
							"type": "uint256"
						},
						{
							"internalType": "uint256",
							"name": "_startTime",
							"type": "uint256"
						},
						{
							"internalType": "uint256",
							"name": "_endTime",
							"type": "uint256"
						},
						{
							"internalType": "uint256",
							"name": "_apr",
							"type": "uint256"
						}
					],
					"name": "launch",
					"outputs": [],
					"stateMutability": "nonpayable",
					"type": "function"
				},
				{
					"inputs": [
						{
							"internalType": "uint256",
							"name": "_poolId",
							"type": "uint256"
						}
					],
					"name": "liquidate",
					"outputs": [],
					"stateMutability": "nonpayable",
					"type": "function"
				},
				{
					"inputs": [
						{
							"internalType": "uint256",
							"name": "_poolId",
							"type": "uint256"
						}
					],
					"name": "liquidateEarly",
					"outputs": [],
					"stateMutability": "nonpayable",
					"type": "function"
				},
				{
					"inputs": [
						{
							"internalType": "uint256",
							"name": "",
							"type": "uint256"
						}
					],
					"name": "loans",
					"outputs": [
						{
							"internalType": "address",
							"name": "owner",
							"type": "address"
						},
						{
							"internalType": "address",
							"name": "token",
							"type": "address"
						},
						{
							"internalType": "address",
							"name": "collectionAddress",
							"type": "address"
						},
						{
							"internalType": "uint256",
							"name": "nftId",
							"type": "uint256"
						},
						{
							"internalType": "uint256",
							"name": "startTime",
							"type": "uint256"
						},
						{
							"internalType": "uint256",
							"name": "endTime",
							"type": "uint256"
						},
						{
							"internalType": "uint256",
							"name": "apr",
							"type": "uint256"
						},
						{
							"internalType": "uint256",
							"name": "numBids",
							"type": "uint256"
						},
						{
							"internalType": "bool",
							"name": "whitelisted",
							"type": "bool"
						}
					],
					"stateMutability": "view",
					"type": "function"
				},
				{
					"inputs": [
						{
							"internalType": "uint256",
							"name": "_poolId",
							"type": "uint256"
						},
						{
							"internalType": "address",
							"name": "_newAddress",
							"type": "address"
						}
					],
					"name": "setNewBidOwner",
					"outputs": [],
					"stateMutability": "nonpayable",
					"type": "function"
				},
				{
					"inputs": [
						{
							"internalType": "uint256",
							"name": "",
							"type": "uint256"
						},
						{
							"internalType": "uint256",
							"name": "",
							"type": "uint256"
						}
					],
					"name": "whitelistedAddresses",
					"outputs": [
						{
							"internalType": "address",
							"name": "",
							"type": "address"
						}
					],
					"stateMutability": "view",
					"type": "function"
				}
			],
			"devdoc": {
				"kind": "dev",
				"methods": {},
				"version": 1
			},
			"evm": {
				"assembly": "    /* \"main.sol\":142:6225  contract LAN{... */\n  mstore(0x40, 0x80)\n  callvalue\n  dup1\n  iszero\n  tag_1\n  jumpi\n  0x00\n  dup1\n  revert\ntag_1:\n  pop\n  dataSize(sub_0)\n  dup1\n  dataOffset(sub_0)\n  0x00\n  codecopy\n  0x00\n  return\nstop\n\nsub_0: assembly {\n        /* \"main.sol\":142:6225  contract LAN{... */\n      mstore(0x40, 0x80)\n      callvalue\n      dup1\n      iszero\n      tag_1\n      jumpi\n      0x00\n      dup1\n      revert\n    tag_1:\n      pop\n      jumpi(tag_2, lt(calldatasize, 0x04))\n      shr(0xe0, calldataload(0x00))\n      dup1\n      0x7870860b\n      gt\n      tag_14\n      jumpi\n      dup1\n      0x7870860b\n      eq\n      tag_8\n      jumpi\n      dup1\n      0x7b3c4baa\n      eq\n      tag_9\n      jumpi\n      dup1\n      0x8f769f3a\n      eq\n      tag_10\n      jumpi\n      dup1\n      0x9bea77da\n      eq\n      tag_11\n      jumpi\n      dup1\n      0xe1ec3c68\n      eq\n      tag_12\n      jumpi\n      dup1\n      0xe7e4dfcd\n      eq\n      tag_13\n      jumpi\n      jump(tag_2)\n    tag_14:\n      dup1\n      0x06661abd\n      eq\n      tag_3\n      jumpi\n      dup1\n      0x18de4f9d\n      eq\n      tag_4\n      jumpi\n      dup1\n      0x40e58ee5\n      eq\n      tag_5\n      jumpi\n      dup1\n      0x415f1240\n      eq\n      tag_6\n      jumpi\n      dup1\n      0x598647f8\n      eq\n      tag_7\n      jumpi\n    tag_2:\n      0x00\n      dup1\n      revert\n        /* \"main.sol\":313:333  uint256 public count */\n    tag_3:\n      tag_15\n      tag_16\n      jump\t// in\n    tag_15:\n      mload(0x40)\n      tag_17\n      swap2\n      swap1\n      tag_18\n      jump\t// in\n    tag_17:\n      mload(0x40)\n      dup1\n      swap2\n      sub\n      swap1\n      return\n        /* \"main.sol\":4929:5390  function liquidateEarly(uint256 _poolId) external onlyOwner(_poolId) {... */\n    tag_4:\n      tag_19\n      0x04\n      dup1\n      calldatasize\n      sub\n      dup2\n      add\n      swap1\n      tag_20\n      swap2\n      swap1\n      tag_21\n      jump\t// in\n    tag_20:\n      tag_22\n      jump\t// in\n    tag_19:\n      stop\n        /* \"main.sol\":3506:3750  function cancel(uint256 _poolId) external onlyOwner(_poolId) {... */\n    tag_5:\n      tag_23\n      0x04\n      dup1\n      calldatasize\n      sub\n      dup2\n      add\n      swap1\n      tag_24\n      swap2\n      swap1\n      tag_21\n      jump\t// in\n    tag_24:\n      tag_25\n      jump\t// in\n    tag_23:\n      stop\n        /* \"main.sol\":4320:4753  function liquidate(uint256 _poolId) external {... */\n    tag_6:\n      tag_26\n      0x04\n      dup1\n      calldatasize\n      sub\n      dup2\n      add\n      swap1\n      tag_27\n      swap2\n      swap1\n      tag_21\n      jump\t// in\n    tag_27:\n      tag_28\n      jump\t// in\n    tag_26:\n      stop\n        /* \"main.sol\":2002:2908  function bid(uint256 _poolId, uint256 _amount) external {... */\n    tag_7:\n      tag_29\n      0x04\n      dup1\n      calldatasize\n      sub\n      dup2\n      add\n      swap1\n      tag_30\n      swap2\n      swap1\n      tag_31\n      jump\t// in\n    tag_30:\n      tag_32\n      jump\t// in\n    tag_29:\n      stop\n        /* \"main.sol\":3789:4266  function endLoan(uint256 _poolId) external onlyOwner(_poolId) {... */\n    tag_8:\n      tag_33\n      0x04\n      dup1\n      calldatasize\n      sub\n      dup2\n      add\n      swap1\n      tag_34\n      swap2\n      swap1\n      tag_21\n      jump\t// in\n    tag_34:\n      tag_35\n      jump\t// in\n    tag_33:\n      stop\n        /* \"main.sol\":872:927  mapping(uint256 => mapping(uint256 => Bid)) public bids */\n    tag_9:\n      tag_36\n      0x04\n      dup1\n      calldatasize\n      sub\n      dup2\n      add\n      swap1\n      tag_37\n      swap2\n      swap1\n      tag_31\n      jump\t// in\n    tag_37:\n      tag_38\n      jump\t// in\n    tag_36:\n      mload(0x40)\n      tag_39\n      swap4\n      swap3\n      swap2\n      swap1\n      tag_40\n      jump\t// in\n    tag_39:\n      mload(0x40)\n      dup1\n      swap2\n      sub\n      swap1\n      return\n        /* \"main.sol\":3049:3459  function setNewBidOwner(uint256 _poolId, address _newAddress) external{... */\n    tag_10:\n      tag_41\n      0x04\n      dup1\n      calldatasize\n      sub\n      dup2\n      add\n      swap1\n      tag_42\n      swap2\n      swap1\n      tag_43\n      jump\t// in\n    tag_42:\n      tag_44\n      jump\t// in\n    tag_41:\n      stop\n        /* \"main.sol\":1009:1066  mapping(uint256 => address[]) public whitelistedAddresses */\n    tag_11:\n      tag_45\n      0x04\n      dup1\n      calldatasize\n      sub\n      dup2\n      add\n      swap1\n      tag_46\n      swap2\n      swap1\n      tag_31\n      jump\t// in\n    tag_46:\n      tag_47\n      jump\t// in\n    tag_45:\n      mload(0x40)\n      tag_48\n      swap2\n      swap1\n      tag_49\n      jump\t// in\n    tag_48:\n      mload(0x40)\n      dup1\n      swap2\n      sub\n      swap1\n      return\n        /* \"main.sol\":708:745  mapping(uint256 => Loan) public loans */\n    tag_12:\n      tag_50\n      0x04\n      dup1\n      calldatasize\n      sub\n      dup2\n      add\n      swap1\n      tag_51\n      swap2\n      swap1\n      tag_21\n      jump\t// in\n    tag_51:\n      tag_52\n      jump\t// in\n    tag_50:\n      mload(0x40)\n      tag_53\n      swap10\n      swap9\n      swap8\n      swap7\n      swap6\n      swap5\n      swap4\n      swap3\n      swap2\n      swap1\n      tag_54\n      jump\t// in\n    tag_53:\n      mload(0x40)\n      dup1\n      swap2\n      sub\n      swap1\n      return\n        /* \"main.sol\":1269:1996  function launch(address _token, address _collectionAddress, uint256 _nftId, uint256 _startTime, uint256 _endTime, uint256 _apr) public {... */\n    tag_13:\n      tag_55\n      0x04\n      dup1\n      calldatasize\n      sub\n      dup2\n      add\n      swap1\n      tag_56\n      swap2\n      swap1\n      tag_57\n      jump\t// in\n    tag_56:\n      tag_58\n      jump\t// in\n    tag_55:\n      stop\n        /* \"main.sol\":313:333  uint256 public count */\n    tag_16:\n      sload(0x00)\n      dup2\n      jump\t// out\n        /* \"main.sol\":4929:5390  function liquidateEarly(uint256 _poolId) external onlyOwner(_poolId) {... */\n    tag_22:\n        /* \"main.sol\":4989:4996  _poolId */\n      dup1\n        /* \"main.sol\":1216:1226  msg.sender */\n      caller\n        /* \"main.sol\":1192:1226  loans[_poolId].owner == msg.sender */\n      0xffffffffffffffffffffffffffffffffffffffff\n      and\n        /* \"main.sol\":1192:1197  loans */\n      0x01\n        /* \"main.sol\":1192:1206  loans[_poolId] */\n      0x00\n        /* \"main.sol\":1198:1205  _poolId */\n      dup4\n        /* \"main.sol\":1192:1206  loans[_poolId] */\n      dup2\n      mstore\n      0x20\n      add\n      swap1\n      dup2\n      mstore\n      0x20\n      add\n      0x00\n      keccak256\n        /* \"main.sol\":1192:1212  loans[_poolId].owner */\n      0x00\n      add\n      0x00\n      swap1\n      sload\n      swap1\n      0x0100\n      exp\n      swap1\n      div\n      0xffffffffffffffffffffffffffffffffffffffff\n      and\n        /* \"main.sol\":1192:1226  loans[_poolId].owner == msg.sender */\n      0xffffffffffffffffffffffffffffffffffffffff\n      and\n      eq\n        /* \"main.sol\":1184:1245  require(loans[_poolId].owner == msg.sender, \"LAN: not owner\") */\n      tag_60\n      jumpi\n      mload(0x40)\n      0x08c379a000000000000000000000000000000000000000000000000000000000\n      dup2\n      mstore\n      0x04\n      add\n      tag_61\n      swap1\n      tag_62\n      jump\t// in\n    tag_61:\n      mload(0x40)\n      dup1\n      swap2\n      sub\n      swap1\n      revert\n    tag_60:\n        /* \"main.sol\":5008:5024  Loan memory loan */\n      0x00\n        /* \"main.sol\":5027:5032  loans */\n      0x01\n        /* \"main.sol\":5027:5041  loans[_poolId] */\n      0x00\n        /* \"main.sol\":5033:5040  _poolId */\n      dup5\n        /* \"main.sol\":5027:5041  loans[_poolId] */\n      dup2\n      mstore\n      0x20\n      add\n      swap1\n      dup2\n      mstore\n      0x20\n      add\n      0x00\n      keccak256\n        /* \"main.sol\":5008:5041  Loan memory loan = loans[_poolId] */\n      mload(0x40)\n      dup1\n      0x0120\n      add\n      0x40\n      mstore\n      swap1\n      dup2\n      0x00\n      dup3\n      add\n      0x00\n      swap1\n      sload\n      swap1\n      0x0100\n      exp\n      swap1\n      div\n      0xffffffffffffffffffffffffffffffffffffffff\n      and\n      0xffffffffffffffffffffffffffffffffffffffff\n      and\n      0xffffffffffffffffffffffffffffffffffffffff\n      and\n      dup2\n      mstore\n      0x20\n      add\n      0x01\n      dup3\n      add\n      0x00\n      swap1\n      sload\n      swap1\n      0x0100\n      exp\n      swap1\n      div\n      0xffffffffffffffffffffffffffffffffffffffff\n      and\n      0xffffffffffffffffffffffffffffffffffffffff\n      and\n      0xffffffffffffffffffffffffffffffffffffffff\n      and\n      dup2\n      mstore\n      0x20\n      add\n      0x02\n      dup3\n      add\n      0x00\n      swap1\n      sload\n      swap1\n      0x0100\n      exp\n      swap1\n      div\n      0xffffffffffffffffffffffffffffffffffffffff\n      and\n      0xffffffffffffffffffffffffffffffffffffffff\n      and\n      0xffffffffffffffffffffffffffffffffffffffff\n      and\n      dup2\n      mstore\n      0x20\n      add\n      0x03\n      dup3\n      add\n      sload\n      dup2\n      mstore\n      0x20\n      add\n      0x04\n      dup3\n      add\n      sload\n      dup2\n      mstore\n      0x20\n      add\n      0x05\n      dup3\n      add\n      sload\n      dup2\n      mstore\n      0x20\n      add\n      0x06\n      dup3\n      add\n      sload\n      dup2\n      mstore\n      0x20\n      add\n      0x07\n      dup3\n      add\n      sload\n      dup2\n      mstore\n      0x20\n      add\n      0x08\n      dup3\n      add\n      0x00\n      swap1\n      sload\n      swap1\n      0x0100\n      exp\n      swap1\n      div\n      0xff\n      and\n      iszero\n      iszero\n      iszero\n      iszero\n      dup2\n      mstore\n      pop\n      pop\n      swap1\n      pop\n        /* \"main.sol\":5059:5074  _ended(_poolId) */\n      tag_64\n        /* \"main.sol\":5066:5073  _poolId */\n      dup4\n        /* \"main.sol\":5059:5065  _ended */\n      tag_65\n        /* \"main.sol\":5059:5074  _ended(_poolId) */\n      jump\t// in\n    tag_64:\n        /* \"main.sol\":5051:5098  require(_ended(_poolId), \"LAN: loan not ended\") */\n      tag_66\n      jumpi\n      mload(0x40)\n      0x08c379a000000000000000000000000000000000000000000000000000000000\n      dup2\n      mstore\n      0x04\n      add\n      tag_67\n      swap1\n      tag_68\n      jump\t// in\n    tag_67:\n      mload(0x40)\n      dup1\n      swap2\n      sub\n      swap1\n      revert\n    tag_66:\n        /* \"main.sol\":5108:5128  Bid memory latestBid */\n      0x00\n        /* \"main.sol\":5131:5135  bids */\n      0x02\n        /* \"main.sol\":5131:5144  bids[_poolId] */\n      0x00\n        /* \"main.sol\":5136:5143  _poolId */\n      dup6\n        /* \"main.sol\":5131:5144  bids[_poolId] */\n      dup2\n      mstore\n      0x20\n      add\n      swap1\n      dup2\n      mstore\n      0x20\n      add\n      0x00\n      keccak256\n        /* \"main.sol\":5131:5158  bids[_poolId][loan.numBids] */\n      0x00\n        /* \"main.sol\":5145:5149  loan */\n      dup4\n        /* \"main.sol\":5145:5157  loan.numBids */\n      0xe0\n      add\n      mload\n        /* \"main.sol\":5131:5158  bids[_poolId][loan.numBids] */\n      dup2\n      mstore\n      0x20\n      add\n      swap1\n      dup2\n      mstore\n      0x20\n      add\n      0x00\n      keccak256\n        /* \"main.sol\":5108:5158  Bid memory latestBid = bids[_poolId][loan.numBids] */\n      mload(0x40)\n      dup1\n      0x60\n      add\n      0x40\n      mstore\n      swap1\n      dup2\n      0x00\n      dup3\n      add\n      sload\n      dup2\n      mstore\n      0x20\n      add\n      0x01\n      dup3\n      add\n      sload\n      dup2\n      mstore\n      0x20\n      add\n      0x02\n      dup3\n      add\n      0x00\n      swap1\n      sload\n      swap1\n      0x0100\n      exp\n      swap1\n      div\n      0xffffffffffffffffffffffffffffffffffffffff\n      and\n      0xffffffffffffffffffffffffffffffffffffffff\n      and\n      0xffffffffffffffffffffffffffffffffffffffff\n      and\n      dup2\n      mstore\n      pop\n      pop\n      swap1\n      pop\n        /* \"main.sol\":5194:5204  msg.sender */\n      caller\n        /* \"main.sol\":5176:5204  latestBid.user == msg.sender */\n      0xffffffffffffffffffffffffffffffffffffffff\n      and\n        /* \"main.sol\":5176:5185  latestBid */\n      dup2\n        /* \"main.sol\":5176:5190  latestBid.user */\n      0x40\n      add\n      mload\n        /* \"main.sol\":5176:5204  latestBid.user == msg.sender */\n      0xffffffffffffffffffffffffffffffffffffffff\n      and\n      eq\n        /* \"main.sol\":5168:5231  require(latestBid.user == msg.sender, \"LAN: not latest bidder\") */\n      tag_69\n      jumpi\n      mload(0x40)\n      0x08c379a000000000000000000000000000000000000000000000000000000000\n      dup2\n      mstore\n      0x04\n      add\n      tag_70\n      swap1\n      tag_71\n      jump\t// in\n    tag_70:\n      mload(0x40)\n      dup1\n      swap2\n      sub\n      swap1\n      revert\n    tag_69:\n        /* \"main.sol\":5265:5276  IERC721 NFT */\n      0x00\n        /* \"main.sol\":5287:5291  loan */\n      dup3\n        /* \"main.sol\":5287:5309  loan.collectionAddress */\n      0x40\n      add\n      mload\n        /* \"main.sol\":5265:5310  IERC721 NFT = IERC721(loan.collectionAddress) */\n      swap1\n      pop\n        /* \"main.sol\":5320:5323  NFT */\n      dup1\n        /* \"main.sol\":5320:5340  NFT.safeTransferFrom */\n      0xffffffffffffffffffffffffffffffffffffffff\n      and\n      0x42842e0e\n        /* \"main.sol\":5349:5353  this */\n      address\n        /* \"main.sol\":5356:5365  latestBid */\n      dup5\n        /* \"main.sol\":5356:5370  latestBid.user */\n      0x40\n      add\n      mload\n        /* \"main.sol\":5372:5376  loan */\n      dup7\n        /* \"main.sol\":5372:5382  loan.nftId */\n      0x60\n      add\n      mload\n        /* \"main.sol\":5320:5383  NFT.safeTransferFrom(address(this), latestBid.user, loan.nftId) */\n      mload(0x40)\n      dup5\n      0xffffffff\n      and\n      0xe0\n      shl\n      dup2\n      mstore\n      0x04\n      add\n      tag_72\n      swap4\n      swap3\n      swap2\n      swap1\n      tag_73\n      jump\t// in\n    tag_72:\n      0x00\n      mload(0x40)\n      dup1\n      dup4\n      sub\n      dup2\n      0x00\n      dup8\n      dup1\n      extcodesize\n      iszero\n      dup1\n      iszero\n      tag_74\n      jumpi\n      0x00\n      dup1\n      revert\n    tag_74:\n      pop\n      gas\n      call\n      iszero\n      dup1\n      iszero\n      tag_76\n      jumpi\n      returndatasize\n      0x00\n      dup1\n      returndatacopy\n      revert(0x00, returndatasize)\n    tag_76:\n      pop\n      pop\n      pop\n      pop\n        /* \"main.sol\":4998:5390  {... */\n      pop\n      pop\n      pop\n        /* \"main.sol\":4929:5390  function liquidateEarly(uint256 _poolId) external onlyOwner(_poolId) {... */\n      pop\n      pop\n      jump\t// out\n        /* \"main.sol\":3506:3750  function cancel(uint256 _poolId) external onlyOwner(_poolId) {... */\n    tag_25:\n        /* \"main.sol\":3558:3565  _poolId */\n      dup1\n        /* \"main.sol\":1216:1226  msg.sender */\n      caller\n        /* \"main.sol\":1192:1226  loans[_poolId].owner == msg.sender */\n      0xffffffffffffffffffffffffffffffffffffffff\n      and\n        /* \"main.sol\":1192:1197  loans */\n      0x01\n        /* \"main.sol\":1192:1206  loans[_poolId] */\n      0x00\n        /* \"main.sol\":1198:1205  _poolId */\n      dup4\n        /* \"main.sol\":1192:1206  loans[_poolId] */\n      dup2\n      mstore\n      0x20\n      add\n      swap1\n      dup2\n      mstore\n      0x20\n      add\n      0x00\n      keccak256\n        /* \"main.sol\":1192:1212  loans[_poolId].owner */\n      0x00\n      add\n      0x00\n      swap1\n      sload\n      swap1\n      0x0100\n      exp\n      swap1\n      div\n      0xffffffffffffffffffffffffffffffffffffffff\n      and\n        /* \"main.sol\":1192:1226  loans[_poolId].owner == msg.sender */\n      0xffffffffffffffffffffffffffffffffffffffff\n      and\n      eq\n        /* \"main.sol\":1184:1245  require(loans[_poolId].owner == msg.sender, \"LAN: not owner\") */\n      tag_78\n      jumpi\n      mload(0x40)\n      0x08c379a000000000000000000000000000000000000000000000000000000000\n      dup2\n      mstore\n      0x04\n      add\n      tag_79\n      swap1\n      tag_62\n      jump\t// in\n    tag_79:\n      mload(0x40)\n      dup1\n      swap2\n      sub\n      swap1\n      revert\n    tag_78:\n        /* \"main.sol\":3577:3593  Loan memory loan */\n      0x00\n        /* \"main.sol\":3596:3601  loans */\n      0x01\n        /* \"main.sol\":3596:3610  loans[_poolId] */\n      0x00\n        /* \"main.sol\":3602:3609  _poolId */\n      dup5\n        /* \"main.sol\":3596:3610  loans[_poolId] */\n      dup2\n      mstore\n      0x20\n      add\n      swap1\n      dup2\n      mstore\n      0x20\n      add\n      0x00\n      keccak256\n        /* \"main.sol\":3577:3610  Loan memory loan = loans[_poolId] */\n      mload(0x40)\n      dup1\n      0x0120\n      add\n      0x40\n      mstore\n      swap1\n      dup2\n      0x00\n      dup3\n      add\n      0x00\n      swap1\n      sload\n      swap1\n      0x0100\n      exp\n      swap1\n      div\n      0xffffffffffffffffffffffffffffffffffffffff\n      and\n      0xffffffffffffffffffffffffffffffffffffffff\n      and\n      0xffffffffffffffffffffffffffffffffffffffff\n      and\n      dup2\n      mstore\n      0x20\n      add\n      0x01\n      dup3\n      add\n      0x00\n      swap1\n      sload\n      swap1\n      0x0100\n      exp\n      swap1\n      div\n      0xffffffffffffffffffffffffffffffffffffffff\n      and\n      0xffffffffffffffffffffffffffffffffffffffff\n      and\n      0xffffffffffffffffffffffffffffffffffffffff\n      and\n      dup2\n      mstore\n      0x20\n      add\n      0x02\n      dup3\n      add\n      0x00\n      swap1\n      sload\n      swap1\n      0x0100\n      exp\n      swap1\n      div\n      0xffffffffffffffffffffffffffffffffffffffff\n      and\n      0xffffffffffffffffffffffffffffffffffffffff\n      and\n      0xffffffffffffffffffffffffffffffffffffffff\n      and\n      dup2\n      mstore\n      0x20\n      add\n      0x03\n      dup3\n      add\n      sload\n      dup2\n      mstore\n      0x20\n      add\n      0x04\n      dup3\n      add\n      sload\n      dup2\n      mstore\n      0x20\n      add\n      0x05\n      dup3\n      add\n      sload\n      dup2\n      mstore\n      0x20\n      add\n      0x06\n      dup3\n      add\n      sload\n      dup2\n      mstore\n      0x20\n      add\n      0x07\n      dup3\n      add\n      sload\n      dup2\n      mstore\n      0x20\n      add\n      0x08\n      dup3\n      add\n      0x00\n      swap1\n      sload\n      swap1\n      0x0100\n      exp\n      swap1\n      div\n      0xff\n      and\n      iszero\n      iszero\n      iszero\n      iszero\n      dup2\n      mstore\n      pop\n      pop\n      swap1\n      pop\n        /* \"main.sol\":3645:3660  block.timestamp */\n      timestamp\n        /* \"main.sol\":3628:3632  loan */\n      dup2\n        /* \"main.sol\":3628:3642  loan.startTime */\n      0x80\n      add\n      mload\n        /* \"main.sol\":3628:3660  loan.startTime > block.timestamp */\n      gt\n        /* \"main.sol\":3620:3685  require(loan.startTime > block.timestamp, \"LAN: already started\") */\n      tag_81\n      jumpi\n      mload(0x40)\n      0x08c379a000000000000000000000000000000000000000000000000000000000\n      dup2\n      mstore\n      0x04\n      add\n      tag_82\n      swap1\n      tag_83\n      jump\t// in\n    tag_82:\n      mload(0x40)\n      dup1\n      swap2\n      sub\n      swap1\n      revert\n    tag_81:\n        /* \"main.sol\":3695:3706  delete loan */\n      tag_84\n      tag_85\n      jump\t// in\n    tag_84:\n      swap1\n      pop\n        /* \"main.sol\":3721:3743  loanCancelled(_poolId) */\n      0xfe785ef891129b084b1c5a30e4d88eb97c97822c024cc25d5f9d806b897512e0\n        /* \"main.sol\":3735:3742  _poolId */\n      dup4\n        /* \"main.sol\":3721:3743  loanCancelled(_poolId) */\n      mload(0x40)\n      tag_86\n      swap2\n      swap1\n      tag_18\n      jump\t// in\n    tag_86:\n      mload(0x40)\n      dup1\n      swap2\n      sub\n      swap1\n      log1\n        /* \"main.sol\":3567:3750  {... */\n      pop\n        /* \"main.sol\":3506:3750  function cancel(uint256 _poolId) external onlyOwner(_poolId) {... */\n      pop\n      pop\n      jump\t// out\n        /* \"main.sol\":4320:4753  function liquidate(uint256 _poolId) external {... */\n    tag_28:\n        /* \"main.sol\":4375:4391  Loan memory loan */\n      0x00\n        /* \"main.sol\":4394:4399  loans */\n      0x01\n        /* \"main.sol\":4394:4408  loans[_poolId] */\n      0x00\n        /* \"main.sol\":4400:4407  _poolId */\n      dup4\n        /* \"main.sol\":4394:4408  loans[_poolId] */\n      dup2\n      mstore\n      0x20\n      add\n      swap1\n      dup2\n      mstore\n      0x20\n      add\n      0x00\n      keccak256\n        /* \"main.sol\":4375:4408  Loan memory loan = loans[_poolId] */\n      mload(0x40)\n      dup1\n      0x0120\n      add\n      0x40\n      mstore\n      swap1\n      dup2\n      0x00\n      dup3\n      add\n      0x00\n      swap1\n      sload\n      swap1\n      0x0100\n      exp\n      swap1\n      div\n      0xffffffffffffffffffffffffffffffffffffffff\n      and\n      0xffffffffffffffffffffffffffffffffffffffff\n      and\n      0xffffffffffffffffffffffffffffffffffffffff\n      and\n      dup2\n      mstore\n      0x20\n      add\n      0x01\n      dup3\n      add\n      0x00\n      swap1\n      sload\n      swap1\n      0x0100\n      exp\n      swap1\n      div\n      0xffffffffffffffffffffffffffffffffffffffff\n      and\n      0xffffffffffffffffffffffffffffffffffffffff\n      and\n      0xffffffffffffffffffffffffffffffffffffffff\n      and\n      dup2\n      mstore\n      0x20\n      add\n      0x02\n      dup3\n      add\n      0x00\n      swap1\n      sload\n      swap1\n      0x0100\n      exp\n      swap1\n      div\n      0xffffffffffffffffffffffffffffffffffffffff\n      and\n      0xffffffffffffffffffffffffffffffffffffffff\n      and\n      0xffffffffffffffffffffffffffffffffffffffff\n      and\n      dup2\n      mstore\n      0x20\n      add\n      0x03\n      dup3\n      add\n      sload\n      dup2\n      mstore\n      0x20\n      add\n      0x04\n      dup3\n      add\n      sload\n      dup2\n      mstore\n      0x20\n      add\n      0x05\n      dup3\n      add\n      sload\n      dup2\n      mstore\n      0x20\n      add\n      0x06\n      dup3\n      add\n      sload\n      dup2\n      mstore\n      0x20\n      add\n      0x07\n      dup3\n      add\n      sload\n      dup2\n      mstore\n      0x20\n      add\n      0x08\n      dup3\n      add\n      0x00\n      swap1\n      sload\n      swap1\n      0x0100\n      exp\n      swap1\n      div\n      0xff\n      and\n      iszero\n      iszero\n      iszero\n      iszero\n      dup2\n      mstore\n      pop\n      pop\n      swap1\n      pop\n        /* \"main.sol\":4426:4441  _ended(_poolId) */\n      tag_88\n        /* \"main.sol\":4433:4440  _poolId */\n      dup3\n        /* \"main.sol\":4426:4432  _ended */\n      tag_65\n        /* \"main.sol\":4426:4441  _ended(_poolId) */\n      jump\t// in\n    tag_88:\n        /* \"main.sol\":4418:4465  require(_ended(_poolId), \"LAN: loan not ended\") */\n      tag_89\n      jumpi\n      mload(0x40)\n      0x08c379a000000000000000000000000000000000000000000000000000000000\n      dup2\n      mstore\n      0x04\n      add\n      tag_90\n      swap1\n      tag_68\n      jump\t// in\n    tag_90:\n      mload(0x40)\n      dup1\n      swap2\n      sub\n      swap1\n      revert\n    tag_89:\n        /* \"main.sol\":4475:4495  Bid memory latestBid */\n      0x00\n        /* \"main.sol\":4498:4502  bids */\n      0x02\n        /* \"main.sol\":4498:4511  bids[_poolId] */\n      0x00\n        /* \"main.sol\":4503:4510  _poolId */\n      dup5\n        /* \"main.sol\":4498:4511  bids[_poolId] */\n      dup2\n      mstore\n      0x20\n      add\n      swap1\n      dup2\n      mstore\n      0x20\n      add\n      0x00\n      keccak256\n        /* \"main.sol\":4498:4525  bids[_poolId][loan.numBids] */\n      0x00\n        /* \"main.sol\":4512:4516  loan */\n      dup4\n        /* \"main.sol\":4512:4524  loan.numBids */\n      0xe0\n      add\n      mload\n        /* \"main.sol\":4498:4525  bids[_poolId][loan.numBids] */\n      dup2\n      mstore\n      0x20\n      add\n      swap1\n      dup2\n      mstore\n      0x20\n      add\n      0x00\n      keccak256\n        /* \"main.sol\":4475:4525  Bid memory latestBid = bids[_poolId][loan.numBids] */\n      mload(0x40)\n      dup1\n      0x60\n      add\n      0x40\n      mstore\n      swap1\n      dup2\n      0x00\n      dup3\n      add\n      sload\n      dup2\n      mstore\n      0x20\n      add\n      0x01\n      dup3\n      add\n      sload\n      dup2\n      mstore\n      0x20\n      add\n      0x02\n      dup3\n      add\n      0x00\n      swap1\n      sload\n      swap1\n      0x0100\n      exp\n      swap1\n      div\n      0xffffffffffffffffffffffffffffffffffffffff\n      and\n      0xffffffffffffffffffffffffffffffffffffffff\n      and\n      0xffffffffffffffffffffffffffffffffffffffff\n      and\n      dup2\n      mstore\n      pop\n      pop\n      swap1\n      pop\n        /* \"main.sol\":4561:4571  msg.sender */\n      caller\n        /* \"main.sol\":4543:4571  latestBid.user == msg.sender */\n      0xffffffffffffffffffffffffffffffffffffffff\n      and\n        /* \"main.sol\":4543:4552  latestBid */\n      dup2\n        /* \"main.sol\":4543:4557  latestBid.user */\n      0x40\n      add\n      mload\n        /* \"main.sol\":4543:4571  latestBid.user == msg.sender */\n      0xffffffffffffffffffffffffffffffffffffffff\n      and\n      eq\n        /* \"main.sol\":4535:4598  require(latestBid.user == msg.sender, \"LAN: not latest bidder\") */\n      tag_91\n      jumpi\n      mload(0x40)\n      0x08c379a000000000000000000000000000000000000000000000000000000000\n      dup2\n      mstore\n      0x04\n      add\n      tag_92\n      swap1\n      tag_71\n      jump\t// in\n    tag_92:\n      mload(0x40)\n      dup1\n      swap2\n      sub\n      swap1\n      revert\n    tag_91:\n        /* \"main.sol\":4632:4643  IERC721 NFT */\n      0x00\n        /* \"main.sol\":4654:4658  loan */\n      dup3\n        /* \"main.sol\":4654:4676  loan.collectionAddress */\n      0x40\n      add\n      mload\n        /* \"main.sol\":4632:4677  IERC721 NFT = IERC721(loan.collectionAddress) */\n      swap1\n      pop\n        /* \"main.sol\":4687:4690  NFT */\n      dup1\n        /* \"main.sol\":4687:4707  NFT.safeTransferFrom */\n      0xffffffffffffffffffffffffffffffffffffffff\n      and\n      0x42842e0e\n        /* \"main.sol\":4716:4720  this */\n      address\n        /* \"main.sol\":4723:4733  msg.sender */\n      caller\n        /* \"main.sol\":4735:4739  loan */\n      dup7\n        /* \"main.sol\":4735:4745  loan.nftId */\n      0x60\n      add\n      mload\n        /* \"main.sol\":4687:4746  NFT.safeTransferFrom(address(this), msg.sender, loan.nftId) */\n      mload(0x40)\n      dup5\n      0xffffffff\n      and\n      0xe0\n      shl\n      dup2\n      mstore\n      0x04\n      add\n      tag_93\n      swap4\n      swap3\n      swap2\n      swap1\n      tag_73\n      jump\t// in\n    tag_93:\n      0x00\n      mload(0x40)\n      dup1\n      dup4\n      sub\n      dup2\n      0x00\n      dup8\n      dup1\n      extcodesize\n      iszero\n      dup1\n      iszero\n      tag_94\n      jumpi\n      0x00\n      dup1\n      revert\n    tag_94:\n      pop\n      gas\n      call\n      iszero\n      dup1\n      iszero\n      tag_96\n      jumpi\n      returndatasize\n      0x00\n      dup1\n      returndatacopy\n      revert(0x00, returndatasize)\n    tag_96:\n      pop\n      pop\n      pop\n      pop\n        /* \"main.sol\":4365:4753  {... */\n      pop\n      pop\n      pop\n        /* \"main.sol\":4320:4753  function liquidate(uint256 _poolId) external {... */\n      pop\n      jump\t// out\n        /* \"main.sol\":2002:2908  function bid(uint256 _poolId, uint256 _amount) external {... */\n    tag_32:\n        /* \"main.sol\":2076:2093  _started(_poolId) */\n      tag_98\n        /* \"main.sol\":2085:2092  _poolId */\n      dup3\n        /* \"main.sol\":2076:2084  _started */\n      tag_99\n        /* \"main.sol\":2076:2093  _started(_poolId) */\n      jump\t// in\n    tag_98:\n        /* \"main.sol\":2068:2114  require(_started(_poolId), \"LAN: not started\") */\n      tag_100\n      jumpi\n      mload(0x40)\n      0x08c379a000000000000000000000000000000000000000000000000000000000\n      dup2\n      mstore\n      0x04\n      add\n      tag_101\n      swap1\n      tag_102\n      jump\t// in\n    tag_101:\n      mload(0x40)\n      dup1\n      swap2\n      sub\n      swap1\n      revert\n    tag_100:\n        /* \"main.sol\":2133:2148  _ended(_poolId) */\n      tag_103\n        /* \"main.sol\":2140:2147  _poolId */\n      dup3\n        /* \"main.sol\":2133:2139  _ended */\n      tag_65\n        /* \"main.sol\":2133:2148  _ended(_poolId) */\n      jump\t// in\n    tag_103:\n        /* \"main.sol\":2132:2148  !_ended(_poolId) */\n      iszero\n        /* \"main.sol\":2124:2171  require(!_ended(_poolId), \"LAN: already ended\") */\n      tag_104\n      jumpi\n      mload(0x40)\n      0x08c379a000000000000000000000000000000000000000000000000000000000\n      dup2\n      mstore\n      0x04\n      add\n      tag_105\n      swap1\n      tag_106\n      jump\t// in\n    tag_105:\n      mload(0x40)\n      dup1\n      swap2\n      sub\n      swap1\n      revert\n    tag_104:\n        /* \"main.sol\":2181:2197  Loan memory loan */\n      0x00\n        /* \"main.sol\":2200:2205  loans */\n      0x01\n        /* \"main.sol\":2200:2214  loans[_poolId] */\n      0x00\n        /* \"main.sol\":2206:2213  _poolId */\n      dup5\n        /* \"main.sol\":2200:2214  loans[_poolId] */\n      dup2\n      mstore\n      0x20\n      add\n      swap1\n      dup2\n      mstore\n      0x20\n      add\n      0x00\n      keccak256\n        /* \"main.sol\":2181:2214  Loan memory loan = loans[_poolId] */\n      mload(0x40)\n      dup1\n      0x0120\n      add\n      0x40\n      mstore\n      swap1\n      dup2\n      0x00\n      dup3\n      add\n      0x00\n      swap1\n      sload\n      swap1\n      0x0100\n      exp\n      swap1\n      div\n      0xffffffffffffffffffffffffffffffffffffffff\n      and\n      0xffffffffffffffffffffffffffffffffffffffff\n      and\n      0xffffffffffffffffffffffffffffffffffffffff\n      and\n      dup2\n      mstore\n      0x20\n      add\n      0x01\n      dup3\n      add\n      0x00\n      swap1\n      sload\n      swap1\n      0x0100\n      exp\n      swap1\n      div\n      0xffffffffffffffffffffffffffffffffffffffff\n      and\n      0xffffffffffffffffffffffffffffffffffffffff\n      and\n      0xffffffffffffffffffffffffffffffffffffffff\n      and\n      dup2\n      mstore\n      0x20\n      add\n      0x02\n      dup3\n      add\n      0x00\n      swap1\n      sload\n      swap1\n      0x0100\n      exp\n      swap1\n      div\n      0xffffffffffffffffffffffffffffffffffffffff\n      and\n      0xffffffffffffffffffffffffffffffffffffffff\n      and\n      0xffffffffffffffffffffffffffffffffffffffff\n      and\n      dup2\n      mstore\n      0x20\n      add\n      0x03\n      dup3\n      add\n      sload\n      dup2\n      mstore\n      0x20\n      add\n      0x04\n      dup3\n      add\n      sload\n      dup2\n      mstore\n      0x20\n      add\n      0x05\n      dup3\n      add\n      sload\n      dup2\n      mstore\n      0x20\n      add\n      0x06\n      dup3\n      add\n      sload\n      dup2\n      mstore\n      0x20\n      add\n      0x07\n      dup3\n      add\n      sload\n      dup2\n      mstore\n      0x20\n      add\n      0x08\n      dup3\n      add\n      0x00\n      swap1\n      sload\n      swap1\n      0x0100\n      exp\n      swap1\n      div\n      0xff\n      and\n      iszero\n      iszero\n      iszero\n      iszero\n      dup2\n      mstore\n      pop\n      pop\n      swap1\n      pop\n        /* \"main.sol\":2256:2271  uint256 numBids */\n      0x00\n        /* \"main.sol\":2289:2290  1 */\n      0x01\n        /* \"main.sol\":2274:2278  loan */\n      dup3\n        /* \"main.sol\":2274:2286  loan.numBids */\n      0xe0\n      add\n      mload\n        /* \"main.sol\":2274:2290  loan.numBids + 1 */\n      tag_107\n      swap2\n      swap1\n      tag_108\n      jump\t// in\n    tag_107:\n        /* \"main.sol\":2256:2290  uint256 numBids = loan.numBids + 1 */\n      swap1\n      pop\n        /* \"main.sol\":2316:2323  numBids */\n      dup1\n        /* \"main.sol\":2301:2305  loan */\n      dup3\n        /* \"main.sol\":2301:2313  loan.numBids */\n      0xe0\n      add\n        /* \"main.sol\":2301:2323  loan.numBids = numBids */\n      dup2\n      dup2\n      mstore\n      pop\n      pop\n        /* \"main.sol\":2333:2350  uint256 loanValue */\n      0x00\n        /* \"main.sol\":2353:2381  _calculateLoanValue(_poolId) */\n      tag_109\n        /* \"main.sol\":2373:2380  _poolId */\n      dup6\n        /* \"main.sol\":2353:2372  _calculateLoanValue */\n      tag_110\n        /* \"main.sol\":2353:2381  _calculateLoanValue(_poolId) */\n      jump\t// in\n    tag_109:\n        /* \"main.sol\":2333:2381  uint256 loanValue = _calculateLoanValue(_poolId) */\n      swap1\n      pop\n        /* \"main.sol\":2409:2418  loanValue */\n      dup1\n        /* \"main.sol\":2399:2406  _amount */\n      dup5\n        /* \"main.sol\":2399:2418  _amount > loanValue */\n      gt\n        /* \"main.sol\":2391:2442  require(_amount > loanValue, \"LAN: bid not higher\") */\n      tag_111\n      jumpi\n      mload(0x40)\n      0x08c379a000000000000000000000000000000000000000000000000000000000\n      dup2\n      mstore\n      0x04\n      add\n      tag_112\n      swap1\n      tag_113\n      jump\t// in\n    tag_112:\n      mload(0x40)\n      dup1\n      swap2\n      sub\n      swap1\n      revert\n    tag_111:\n        /* \"main.sol\":2501:2505  loan */\n      dup3\n        /* \"main.sol\":2501:2511  loan.token */\n      0x20\n      add\n      mload\n        /* \"main.sol\":2494:2525  IERC20(loan.token).transferFrom */\n      0xffffffffffffffffffffffffffffffffffffffff\n      and\n      0x23b872dd\n        /* \"main.sol\":2526:2536  msg.sender */\n      caller\n        /* \"main.sol\":2538:2542  bids */\n      0x02\n        /* \"main.sol\":2538:2551  bids[_poolId] */\n      0x00\n        /* \"main.sol\":2543:2550  _poolId */\n      dup10\n        /* \"main.sol\":2538:2551  bids[_poolId] */\n      dup2\n      mstore\n      0x20\n      add\n      swap1\n      dup2\n      mstore\n      0x20\n      add\n      0x00\n      keccak256\n        /* \"main.sol\":2538:2560  bids[_poolId][numBids] */\n      0x00\n        /* \"main.sol\":2552:2559  numBids */\n      dup7\n        /* \"main.sol\":2538:2560  bids[_poolId][numBids] */\n      dup2\n      mstore\n      0x20\n      add\n      swap1\n      dup2\n      mstore\n      0x20\n      add\n      0x00\n      keccak256\n        /* \"main.sol\":2538:2565  bids[_poolId][numBids].user */\n      0x02\n      add\n      0x00\n      swap1\n      sload\n      swap1\n      0x0100\n      exp\n      swap1\n      div\n      0xffffffffffffffffffffffffffffffffffffffff\n      and\n        /* \"main.sol\":2567:2576  loanValue */\n      dup5\n        /* \"main.sol\":2494:2577  IERC20(loan.token).transferFrom(msg.sender, bids[_poolId][numBids].user, loanValue) */\n      mload(0x40)\n      dup5\n      0xffffffff\n      and\n      0xe0\n      shl\n      dup2\n      mstore\n      0x04\n      add\n      tag_114\n      swap4\n      swap3\n      swap2\n      swap1\n      tag_73\n      jump\t// in\n    tag_114:\n      0x20\n      mload(0x40)\n      dup1\n      dup4\n      sub\n      dup2\n      0x00\n      dup8\n      gas\n      call\n      iszero\n      dup1\n      iszero\n      tag_116\n      jumpi\n      returndatasize\n      0x00\n      dup1\n      returndatacopy\n      revert(0x00, returndatasize)\n    tag_116:\n      pop\n      pop\n      pop\n      pop\n      mload(0x40)\n      returndatasize\n      not(0x1f)\n      0x1f\n      dup3\n      add\n      and\n      dup3\n      add\n      dup1\n      0x40\n      mstore\n      pop\n      dup2\n      add\n      swap1\n      tag_117\n      swap2\n      swap1\n      tag_118\n      jump\t// in\n    tag_117:\n      pop\n        /* \"main.sol\":2626:2630  loan */\n      dup3\n        /* \"main.sol\":2626:2636  loan.token */\n      0x20\n      add\n      mload\n        /* \"main.sol\":2619:2650  IERC20(loan.token).transferFrom */\n      0xffffffffffffffffffffffffffffffffffffffff\n      and\n      0x23b872dd\n        /* \"main.sol\":2651:2661  msg.sender */\n      caller\n        /* \"main.sol\":2663:2667  loan */\n      dup6\n        /* \"main.sol\":2663:2673  loan.owner */\n      0x00\n      add\n      mload\n        /* \"main.sol\":2685:2694  loanValue */\n      dup5\n        /* \"main.sol\":2675:2682  _amount */\n      dup9\n        /* \"main.sol\":2675:2694  _amount - loanValue */\n      tag_119\n      swap2\n      swap1\n      tag_120\n      jump\t// in\n    tag_119:\n        /* \"main.sol\":2619:2695  IERC20(loan.token).transferFrom(msg.sender, loan.owner, _amount - loanValue) */\n      mload(0x40)\n      dup5\n      0xffffffff\n      and\n      0xe0\n      shl\n      dup2\n      mstore\n      0x04\n      add\n      tag_121\n      swap4\n      swap3\n      swap2\n      swap1\n      tag_73\n      jump\t// in\n    tag_121:\n      0x20\n      mload(0x40)\n      dup1\n      dup4\n      sub\n      dup2\n      0x00\n      dup8\n      gas\n      call\n      iszero\n      dup1\n      iszero\n      tag_123\n      jumpi\n      returndatasize\n      0x00\n      dup1\n      returndatacopy\n      revert(0x00, returndatasize)\n    tag_123:\n      pop\n      pop\n      pop\n      pop\n      mload(0x40)\n      returndatasize\n      not(0x1f)\n      0x1f\n      dup3\n      add\n      and\n      dup3\n      add\n      dup1\n      0x40\n      mstore\n      pop\n      dup2\n      add\n      swap1\n      tag_124\n      swap2\n      swap1\n      tag_118\n      jump\t// in\n    tag_124:\n      pop\n        /* \"main.sol\":2763:2901  Bid({... */\n      mload(0x40)\n      dup1\n      0x60\n      add\n      0x40\n      mstore\n      dup1\n        /* \"main.sol\":2790:2805  block.timestamp */\n      timestamp\n        /* \"main.sol\":2763:2901  Bid({... */\n      dup2\n      mstore\n      0x20\n      add\n        /* \"main.sol\":2830:2837  _amount */\n      dup6\n        /* \"main.sol\":2763:2901  Bid({... */\n      dup2\n      mstore\n      0x20\n      add\n        /* \"main.sol\":2857:2867  msg.sender */\n      caller\n        /* \"main.sol\":2763:2901  Bid({... */\n      0xffffffffffffffffffffffffffffffffffffffff\n      and\n      dup2\n      mstore\n      pop\n        /* \"main.sol\":2738:2742  bids */\n      0x02\n        /* \"main.sol\":2738:2751  bids[_poolId] */\n      0x00\n        /* \"main.sol\":2743:2750  _poolId */\n      dup8\n        /* \"main.sol\":2738:2751  bids[_poolId] */\n      dup2\n      mstore\n      0x20\n      add\n      swap1\n      dup2\n      mstore\n      0x20\n      add\n      0x00\n      keccak256\n        /* \"main.sol\":2738:2760  bids[_poolId][numBids] */\n      0x00\n        /* \"main.sol\":2752:2759  numBids */\n      dup5\n        /* \"main.sol\":2738:2760  bids[_poolId][numBids] */\n      dup2\n      mstore\n      0x20\n      add\n      swap1\n      dup2\n      mstore\n      0x20\n      add\n      0x00\n      keccak256\n        /* \"main.sol\":2738:2901  bids[_poolId][numBids] = Bid({... */\n      0x00\n      dup3\n      add\n      mload\n      dup2\n      0x00\n      add\n      sstore\n      0x20\n      dup3\n      add\n      mload\n      dup2\n      0x01\n      add\n      sstore\n      0x40\n      dup3\n      add\n      mload\n      dup2\n      0x02\n      add\n      exp(0x0100, 0x00)\n      dup2\n      sload\n      dup2\n      0xffffffffffffffffffffffffffffffffffffffff\n      mul\n      not\n      and\n      swap1\n      dup4\n      0xffffffffffffffffffffffffffffffffffffffff\n      and\n      mul\n      or\n      swap1\n      sstore\n      pop\n      swap1\n      pop\n      pop\n        /* \"main.sol\":2058:2908  {... */\n      pop\n      pop\n      pop\n        /* \"main.sol\":2002:2908  function bid(uint256 _poolId, uint256 _amount) external {... */\n      pop\n      pop\n      jump\t// out\n        /* \"main.sol\":3789:4266  function endLoan(uint256 _poolId) external onlyOwner(_poolId) {... */\n    tag_35:\n        /* \"main.sol\":3842:3849  _poolId */\n      dup1\n        /* \"main.sol\":1216:1226  msg.sender */\n      caller\n        /* \"main.sol\":1192:1226  loans[_poolId].owner == msg.sender */\n      0xffffffffffffffffffffffffffffffffffffffff\n      and\n        /* \"main.sol\":1192:1197  loans */\n      0x01\n        /* \"main.sol\":1192:1206  loans[_poolId] */\n      0x00\n        /* \"main.sol\":1198:1205  _poolId */\n      dup4\n        /* \"main.sol\":1192:1206  loans[_poolId] */\n      dup2\n      mstore\n      0x20\n      add\n      swap1\n      dup2\n      mstore\n      0x20\n      add\n      0x00\n      keccak256\n        /* \"main.sol\":1192:1212  loans[_poolId].owner */\n      0x00\n      add\n      0x00\n      swap1\n      sload\n      swap1\n      0x0100\n      exp\n      swap1\n      div\n      0xffffffffffffffffffffffffffffffffffffffff\n      and\n        /* \"main.sol\":1192:1226  loans[_poolId].owner == msg.sender */\n      0xffffffffffffffffffffffffffffffffffffffff\n      and\n      eq\n        /* \"main.sol\":1184:1245  require(loans[_poolId].owner == msg.sender, \"LAN: not owner\") */\n      tag_126\n      jumpi\n      mload(0x40)\n      0x08c379a000000000000000000000000000000000000000000000000000000000\n      dup2\n      mstore\n      0x04\n      add\n      tag_127\n      swap1\n      tag_62\n      jump\t// in\n    tag_127:\n      mload(0x40)\n      dup1\n      swap2\n      sub\n      swap1\n      revert\n    tag_126:\n        /* \"main.sol\":3861:3877  Loan memory loan */\n      0x00\n        /* \"main.sol\":3880:3885  loans */\n      0x01\n        /* \"main.sol\":3880:3894  loans[_poolId] */\n      0x00\n        /* \"main.sol\":3886:3893  _poolId */\n      dup5\n        /* \"main.sol\":3880:3894  loans[_poolId] */\n      dup2\n      mstore\n      0x20\n      add\n      swap1\n      dup2\n      mstore\n      0x20\n      add\n      0x00\n      keccak256\n        /* \"main.sol\":3861:3894  Loan memory loan = loans[_poolId] */\n      mload(0x40)\n      dup1\n      0x0120\n      add\n      0x40\n      mstore\n      swap1\n      dup2\n      0x00\n      dup3\n      add\n      0x00\n      swap1\n      sload\n      swap1\n      0x0100\n      exp\n      swap1\n      div\n      0xffffffffffffffffffffffffffffffffffffffff\n      and\n      0xffffffffffffffffffffffffffffffffffffffff\n      and\n      0xffffffffffffffffffffffffffffffffffffffff\n      and\n      dup2\n      mstore\n      0x20\n      add\n      0x01\n      dup3\n      add\n      0x00\n      swap1\n      sload\n      swap1\n      0x0100\n      exp\n      swap1\n      div\n      0xffffffffffffffffffffffffffffffffffffffff\n      and\n      0xffffffffffffffffffffffffffffffffffffffff\n      and\n      0xffffffffffffffffffffffffffffffffffffffff\n      and\n      dup2\n      mstore\n      0x20\n      add\n      0x02\n      dup3\n      add\n      0x00\n      swap1\n      sload\n      swap1\n      0x0100\n      exp\n      swap1\n      div\n      0xffffffffffffffffffffffffffffffffffffffff\n      and\n      0xffffffffffffffffffffffffffffffffffffffff\n      and\n      0xffffffffffffffffffffffffffffffffffffffff\n      and\n      dup2\n      mstore\n      0x20\n      add\n      0x03\n      dup3\n      add\n      sload\n      dup2\n      mstore\n      0x20\n      add\n      0x04\n      dup3\n      add\n      sload\n      dup2\n      mstore\n      0x20\n      add\n      0x05\n      dup3\n      add\n      sload\n      dup2\n      mstore\n      0x20\n      add\n      0x06\n      dup3\n      add\n      sload\n      dup2\n      mstore\n      0x20\n      add\n      0x07\n      dup3\n      add\n      sload\n      dup2\n      mstore\n      0x20\n      add\n      0x08\n      dup3\n      add\n      0x00\n      swap1\n      sload\n      swap1\n      0x0100\n      exp\n      swap1\n      div\n      0xff\n      and\n      iszero\n      iszero\n      iszero\n      iszero\n      dup2\n      mstore\n      pop\n      pop\n      swap1\n      pop\n        /* \"main.sol\":3904:3924  Bid memory latestBid */\n      0x00\n        /* \"main.sol\":3927:3931  bids */\n      0x02\n        /* \"main.sol\":3927:3940  bids[_poolId] */\n      0x00\n        /* \"main.sol\":3932:3939  _poolId */\n      dup6\n        /* \"main.sol\":3927:3940  bids[_poolId] */\n      dup2\n      mstore\n      0x20\n      add\n      swap1\n      dup2\n      mstore\n      0x20\n      add\n      0x00\n      keccak256\n        /* \"main.sol\":3927:3954  bids[_poolId][loan.numBids] */\n      0x00\n        /* \"main.sol\":3941:3945  loan */\n      dup4\n        /* \"main.sol\":3941:3953  loan.numBids */\n      0xe0\n      add\n      mload\n        /* \"main.sol\":3927:3954  bids[_poolId][loan.numBids] */\n      dup2\n      mstore\n      0x20\n      add\n      swap1\n      dup2\n      mstore\n      0x20\n      add\n      0x00\n      keccak256\n        /* \"main.sol\":3904:3954  Bid memory latestBid = bids[_poolId][loan.numBids] */\n      mload(0x40)\n      dup1\n      0x60\n      add\n      0x40\n      mstore\n      swap1\n      dup2\n      0x00\n      dup3\n      add\n      sload\n      dup2\n      mstore\n      0x20\n      add\n      0x01\n      dup3\n      add\n      sload\n      dup2\n      mstore\n      0x20\n      add\n      0x02\n      dup3\n      add\n      0x00\n      swap1\n      sload\n      swap1\n      0x0100\n      exp\n      swap1\n      div\n      0xffffffffffffffffffffffffffffffffffffffff\n      and\n      0xffffffffffffffffffffffffffffffffffffffff\n      and\n      0xffffffffffffffffffffffffffffffffffffffff\n      and\n      dup2\n      mstore\n      pop\n      pop\n      swap1\n      pop\n        /* \"main.sol\":4015:4019  loan */\n      dup2\n        /* \"main.sol\":4015:4025  loan.token */\n      0x20\n      add\n      mload\n        /* \"main.sol\":4008:4039  IERC20(loan.token).transferFrom */\n      0xffffffffffffffffffffffffffffffffffffffff\n      and\n      0x23b872dd\n        /* \"main.sol\":4040:4050  msg.sender */\n      caller\n        /* \"main.sol\":4052:4061  latestBid */\n      dup4\n        /* \"main.sol\":4052:4066  latestBid.user */\n      0x40\n      add\n      mload\n        /* \"main.sol\":4068:4096  _calculateLoanValue(_poolId) */\n      tag_129\n        /* \"main.sol\":4088:4095  _poolId */\n      dup9\n        /* \"main.sol\":4068:4087  _calculateLoanValue */\n      tag_110\n        /* \"main.sol\":4068:4096  _calculateLoanValue(_poolId) */\n      jump\t// in\n    tag_129:\n        /* \"main.sol\":4008:4097  IERC20(loan.token).transferFrom(msg.sender, latestBid.user, _calculateLoanValue(_poolId)) */\n      mload(0x40)\n      dup5\n      0xffffffff\n      and\n      0xe0\n      shl\n      dup2\n      mstore\n      0x04\n      add\n      tag_130\n      swap4\n      swap3\n      swap2\n      swap1\n      tag_73\n      jump\t// in\n    tag_130:\n      0x20\n      mload(0x40)\n      dup1\n      dup4\n      sub\n      dup2\n      0x00\n      dup8\n      gas\n      call\n      iszero\n      dup1\n      iszero\n      tag_132\n      jumpi\n      returndatasize\n      0x00\n      dup1\n      returndatacopy\n      revert(0x00, returndatasize)\n    tag_132:\n      pop\n      pop\n      pop\n      pop\n      mload(0x40)\n      returndatasize\n      not(0x1f)\n      0x1f\n      dup3\n      add\n      and\n      dup3\n      add\n      dup1\n      0x40\n      mstore\n      pop\n      dup2\n      add\n      swap1\n      tag_133\n      swap2\n      swap1\n      tag_118\n      jump\t// in\n    tag_133:\n      pop\n        /* \"main.sol\":4145:4156  IERC721 NFT */\n      0x00\n        /* \"main.sol\":4167:4171  loan */\n      dup3\n        /* \"main.sol\":4167:4189  loan.collectionAddress */\n      0x40\n      add\n      mload\n        /* \"main.sol\":4145:4190  IERC721 NFT = IERC721(loan.collectionAddress) */\n      swap1\n      pop\n        /* \"main.sol\":4200:4203  NFT */\n      dup1\n        /* \"main.sol\":4200:4220  NFT.safeTransferFrom */\n      0xffffffffffffffffffffffffffffffffffffffff\n      and\n      0x42842e0e\n        /* \"main.sol\":4229:4233  this */\n      address\n        /* \"main.sol\":4236:4246  msg.sender */\n      caller\n        /* \"main.sol\":4248:4252  loan */\n      dup7\n        /* \"main.sol\":4248:4258  loan.nftId */\n      0x60\n      add\n      mload\n        /* \"main.sol\":4200:4259  NFT.safeTransferFrom(address(this), msg.sender, loan.nftId) */\n      mload(0x40)\n      dup5\n      0xffffffff\n      and\n      0xe0\n      shl\n      dup2\n      mstore\n      0x04\n      add\n      tag_134\n      swap4\n      swap3\n      swap2\n      swap1\n      tag_73\n      jump\t// in\n    tag_134:\n      0x00\n      mload(0x40)\n      dup1\n      dup4\n      sub\n      dup2\n      0x00\n      dup8\n      dup1\n      extcodesize\n      iszero\n      dup1\n      iszero\n      tag_135\n      jumpi\n      0x00\n      dup1\n      revert\n    tag_135:\n      pop\n      gas\n      call\n      iszero\n      dup1\n      iszero\n      tag_137\n      jumpi\n      returndatasize\n      0x00\n      dup1\n      returndatacopy\n      revert(0x00, returndatasize)\n    tag_137:\n      pop\n      pop\n      pop\n      pop\n        /* \"main.sol\":3851:4266  {... */\n      pop\n      pop\n      pop\n        /* \"main.sol\":3789:4266  function endLoan(uint256 _poolId) external onlyOwner(_poolId) {... */\n      pop\n      pop\n      jump\t// out\n        /* \"main.sol\":872:927  mapping(uint256 => mapping(uint256 => Bid)) public bids */\n    tag_38:\n      mstore(0x20, 0x02)\n      dup2\n      0x00\n      mstore\n      mstore(0x20, keccak256(0x00, 0x40))\n      dup1\n      0x00\n      mstore\n      keccak256(0x00, 0x40)\n      0x00\n      swap2\n      pop\n      swap2\n      pop\n      pop\n      dup1\n      0x00\n      add\n      sload\n      swap1\n      dup1\n      0x01\n      add\n      sload\n      swap1\n      dup1\n      0x02\n      add\n      0x00\n      swap1\n      sload\n      swap1\n      0x0100\n      exp\n      swap1\n      div\n      0xffffffffffffffffffffffffffffffffffffffff\n      and\n      swap1\n      pop\n      dup4\n      jump\t// out\n        /* \"main.sol\":3049:3459  function setNewBidOwner(uint256 _poolId, address _newAddress) external{... */\n    tag_44:\n        /* \"main.sol\":3137:3154  _started(_poolId) */\n      tag_139\n        /* \"main.sol\":3146:3153  _poolId */\n      dup3\n        /* \"main.sol\":3137:3145  _started */\n      tag_99\n        /* \"main.sol\":3137:3154  _started(_poolId) */\n      jump\t// in\n    tag_139:\n        /* \"main.sol\":3129:3175  require(_started(_poolId), \"LAN: not started\") */\n      tag_140\n      jumpi\n      mload(0x40)\n      0x08c379a000000000000000000000000000000000000000000000000000000000\n      dup2\n      mstore\n      0x04\n      add\n      tag_141\n      swap1\n      tag_102\n      jump\t// in\n    tag_141:\n      mload(0x40)\n      dup1\n      swap2\n      sub\n      swap1\n      revert\n    tag_140:\n        /* \"main.sol\":3194:3209  _ended(_poolId) */\n      tag_142\n        /* \"main.sol\":3201:3208  _poolId */\n      dup3\n        /* \"main.sol\":3194:3200  _ended */\n      tag_65\n        /* \"main.sol\":3194:3209  _ended(_poolId) */\n      jump\t// in\n    tag_142:\n        /* \"main.sol\":3193:3209  !_ended(_poolId) */\n      iszero\n        /* \"main.sol\":3185:3232  require(!_ended(_poolId), \"LAN: already ended\") */\n      tag_143\n      jumpi\n      mload(0x40)\n      0x08c379a000000000000000000000000000000000000000000000000000000000\n      dup2\n      mstore\n      0x04\n      add\n      tag_144\n      swap1\n      tag_106\n      jump\t// in\n    tag_144:\n      mload(0x40)\n      dup1\n      swap2\n      sub\n      swap1\n      revert\n    tag_143:\n        /* \"main.sol\":3243:3259  Loan memory loan */\n      0x00\n        /* \"main.sol\":3262:3267  loans */\n      0x01\n        /* \"main.sol\":3262:3276  loans[_poolId] */\n      0x00\n        /* \"main.sol\":3268:3275  _poolId */\n      dup5\n        /* \"main.sol\":3262:3276  loans[_poolId] */\n      dup2\n      mstore\n      0x20\n      add\n      swap1\n      dup2\n      mstore\n      0x20\n      add\n      0x00\n      keccak256\n        /* \"main.sol\":3243:3276  Loan memory loan = loans[_poolId] */\n      mload(0x40)\n      dup1\n      0x0120\n      add\n      0x40\n      mstore\n      swap1\n      dup2\n      0x00\n      dup3\n      add\n      0x00\n      swap1\n      sload\n      swap1\n      0x0100\n      exp\n      swap1\n      div\n      0xffffffffffffffffffffffffffffffffffffffff\n      and\n      0xffffffffffffffffffffffffffffffffffffffff\n      and\n      0xffffffffffffffffffffffffffffffffffffffff\n      and\n      dup2\n      mstore\n      0x20\n      add\n      0x01\n      dup3\n      add\n      0x00\n      swap1\n      sload\n      swap1\n      0x0100\n      exp\n      swap1\n      div\n      0xffffffffffffffffffffffffffffffffffffffff\n      and\n      0xffffffffffffffffffffffffffffffffffffffff\n      and\n      0xffffffffffffffffffffffffffffffffffffffff\n      and\n      dup2\n      mstore\n      0x20\n      add\n      0x02\n      dup3\n      add\n      0x00\n      swap1\n      sload\n      swap1\n      0x0100\n      exp\n      swap1\n      div\n      0xffffffffffffffffffffffffffffffffffffffff\n      and\n      0xffffffffffffffffffffffffffffffffffffffff\n      and\n      0xffffffffffffffffffffffffffffffffffffffff\n      and\n      dup2\n      mstore\n      0x20\n      add\n      0x03\n      dup3\n      add\n      sload\n      dup2\n      mstore\n      0x20\n      add\n      0x04\n      dup3\n      add\n      sload\n      dup2\n      mstore\n      0x20\n      add\n      0x05\n      dup3\n      add\n      sload\n      dup2\n      mstore\n      0x20\n      add\n      0x06\n      dup3\n      add\n      sload\n      dup2\n      mstore\n      0x20\n      add\n      0x07\n      dup3\n      add\n      sload\n      dup2\n      mstore\n      0x20\n      add\n      0x08\n      dup3\n      add\n      0x00\n      swap1\n      sload\n      swap1\n      0x0100\n      exp\n      swap1\n      div\n      0xff\n      and\n      iszero\n      iszero\n      iszero\n      iszero\n      dup2\n      mstore\n      pop\n      pop\n      swap1\n      pop\n        /* \"main.sol\":3286:3307  Bid storage latestBid */\n      0x00\n        /* \"main.sol\":3310:3314  bids */\n      0x02\n        /* \"main.sol\":3310:3323  bids[_poolId] */\n      0x00\n        /* \"main.sol\":3315:3322  _poolId */\n      dup6\n        /* \"main.sol\":3310:3323  bids[_poolId] */\n      dup2\n      mstore\n      0x20\n      add\n      swap1\n      dup2\n      mstore\n      0x20\n      add\n      0x00\n      keccak256\n        /* \"main.sol\":3310:3337  bids[_poolId][loan.numBids] */\n      0x00\n        /* \"main.sol\":3324:3328  loan */\n      dup4\n        /* \"main.sol\":3324:3336  loan.numBids */\n      0xe0\n      add\n      mload\n        /* \"main.sol\":3310:3337  bids[_poolId][loan.numBids] */\n      dup2\n      mstore\n      0x20\n      add\n      swap1\n      dup2\n      mstore\n      0x20\n      add\n      0x00\n      keccak256\n        /* \"main.sol\":3286:3337  Bid storage latestBid = bids[_poolId][loan.numBids] */\n      swap1\n      pop\n        /* \"main.sol\":3373:3383  msg.sender */\n      caller\n        /* \"main.sol\":3355:3383  latestBid.user == msg.sender */\n      0xffffffffffffffffffffffffffffffffffffffff\n      and\n        /* \"main.sol\":3355:3364  latestBid */\n      dup2\n        /* \"main.sol\":3355:3369  latestBid.user */\n      0x02\n      add\n      0x00\n      swap1\n      sload\n      swap1\n      0x0100\n      exp\n      swap1\n      div\n      0xffffffffffffffffffffffffffffffffffffffff\n      and\n        /* \"main.sol\":3355:3383  latestBid.user == msg.sender */\n      0xffffffffffffffffffffffffffffffffffffffff\n      and\n      eq\n        /* \"main.sol\":3347:3414  require(latestBid.user == msg.sender, \"LAN: Not the latest bidder\") */\n      tag_145\n      jumpi\n      mload(0x40)\n      0x08c379a000000000000000000000000000000000000000000000000000000000\n      dup2\n      mstore\n      0x04\n      add\n      tag_146\n      swap1\n      tag_147\n      jump\t// in\n    tag_146:\n      mload(0x40)\n      dup1\n      swap2\n      sub\n      swap1\n      revert\n    tag_145:\n        /* \"main.sol\":3441:3452  _newAddress */\n      dup3\n        /* \"main.sol\":3424:3433  latestBid */\n      dup2\n        /* \"main.sol\":3424:3438  latestBid.user */\n      0x02\n      add\n      0x00\n        /* \"main.sol\":3424:3452  latestBid.user = _newAddress */\n      0x0100\n      exp\n      dup2\n      sload\n      dup2\n      0xffffffffffffffffffffffffffffffffffffffff\n      mul\n      not\n      and\n      swap1\n      dup4\n      0xffffffffffffffffffffffffffffffffffffffff\n      and\n      mul\n      or\n      swap1\n      sstore\n      pop\n        /* \"main.sol\":3119:3459  {... */\n      pop\n      pop\n        /* \"main.sol\":3049:3459  function setNewBidOwner(uint256 _poolId, address _newAddress) external{... */\n      pop\n      pop\n      jump\t// out\n        /* \"main.sol\":1009:1066  mapping(uint256 => address[]) public whitelistedAddresses */\n    tag_47:\n      mstore(0x20, 0x03)\n      dup2\n      0x00\n      mstore\n      keccak256(0x00, 0x40)\n      dup2\n      dup2\n      sload\n      dup2\n      lt\n      tag_148\n      jumpi\n      0x00\n      dup1\n      revert\n    tag_148:\n      swap1\n      0x00\n      mstore\n      keccak256(0x00, 0x20)\n      add\n      0x00\n      swap2\n      pop\n      swap2\n      pop\n      swap1\n      sload\n      swap1\n      0x0100\n      exp\n      swap1\n      div\n      0xffffffffffffffffffffffffffffffffffffffff\n      and\n      dup2\n      jump\t// out\n        /* \"main.sol\":708:745  mapping(uint256 => Loan) public loans */\n    tag_52:\n      mstore(0x20, 0x01)\n      dup1\n      0x00\n      mstore\n      keccak256(0x00, 0x40)\n      0x00\n      swap2\n      pop\n      swap1\n      pop\n      dup1\n      0x00\n      add\n      0x00\n      swap1\n      sload\n      swap1\n      0x0100\n      exp\n      swap1\n      div\n      0xffffffffffffffffffffffffffffffffffffffff\n      and\n      swap1\n      dup1\n      0x01\n      add\n      0x00\n      swap1\n      sload\n      swap1\n      0x0100\n      exp\n      swap1\n      div\n      0xffffffffffffffffffffffffffffffffffffffff\n      and\n      swap1\n      dup1\n      0x02\n      add\n      0x00\n      swap1\n      sload\n      swap1\n      0x0100\n      exp\n      swap1\n      div\n      0xffffffffffffffffffffffffffffffffffffffff\n      and\n      swap1\n      dup1\n      0x03\n      add\n      sload\n      swap1\n      dup1\n      0x04\n      add\n      sload\n      swap1\n      dup1\n      0x05\n      add\n      sload\n      swap1\n      dup1\n      0x06\n      add\n      sload\n      swap1\n      dup1\n      0x07\n      add\n      sload\n      swap1\n      dup1\n      0x08\n      add\n      0x00\n      swap1\n      sload\n      swap1\n      0x0100\n      exp\n      swap1\n      div\n      0xff\n      and\n      swap1\n      pop\n      dup10\n      jump\t// out\n        /* \"main.sol\":1269:1996  function launch(address _token, address _collectionAddress, uint256 _nftId, uint256 _startTime, uint256 _endTime, uint256 _apr) public {... */\n    tag_58:\n        /* \"main.sol\":1436:1451  block.timestamp */\n      timestamp\n        /* \"main.sol\":1422:1432  _startTime */\n      dup4\n        /* \"main.sol\":1422:1451  _startTime >= block.timestamp */\n      lt\n      iszero\n        /* \"main.sol\":1414:1479  require(_startTime >= block.timestamp, \"LAN: start time in past\") */\n      tag_151\n      jumpi\n      mload(0x40)\n      0x08c379a000000000000000000000000000000000000000000000000000000000\n      dup2\n      mstore\n      0x04\n      add\n      tag_152\n      swap1\n      tag_153\n      jump\t// in\n    tag_152:\n      mload(0x40)\n      dup1\n      swap2\n      sub\n      swap1\n      revert\n    tag_151:\n        /* \"main.sol\":1508:1518  _startTime */\n      dup3\n        /* \"main.sol\":1497:1505  _endTime */\n      dup3\n        /* \"main.sol\":1497:1518  _endTime > _startTime */\n      gt\n        /* \"main.sol\":1489:1543  require(_endTime > _startTime, \"LAN: start after end\") */\n      tag_154\n      jumpi\n      mload(0x40)\n      0x08c379a000000000000000000000000000000000000000000000000000000000\n      dup2\n      mstore\n      0x04\n      add\n      tag_155\n      swap1\n      tag_156\n      jump\t// in\n    tag_155:\n      mload(0x40)\n      dup1\n      swap2\n      sub\n      swap1\n      revert\n    tag_154:\n        /* \"main.sol\":1568:1865  Loan({... */\n      mload(0x40)\n      dup1\n      0x0120\n      add\n      0x40\n      mstore\n      dup1\n        /* \"main.sol\":1594:1604  msg.sender */\n      caller\n        /* \"main.sol\":1568:1865  Loan({... */\n      0xffffffffffffffffffffffffffffffffffffffff\n      and\n      dup2\n      mstore\n      0x20\n      add\n        /* \"main.sol\":1625:1631  _token */\n      dup8\n        /* \"main.sol\":1568:1865  Loan({... */\n      0xffffffffffffffffffffffffffffffffffffffff\n      and\n      dup2\n      mstore\n      0x20\n      add\n        /* \"main.sol\":1664:1682  _collectionAddress */\n      dup7\n        /* \"main.sol\":1568:1865  Loan({... */\n      0xffffffffffffffffffffffffffffffffffffffff\n      and\n      dup2\n      mstore\n      0x20\n      add\n        /* \"main.sol\":1703:1709  _nftId */\n      dup6\n        /* \"main.sol\":1568:1865  Loan({... */\n      dup2\n      mstore\n      0x20\n      add\n        /* \"main.sol\":1765:1775  _startTime */\n      dup5\n        /* \"main.sol\":1568:1865  Loan({... */\n      dup2\n      mstore\n      0x20\n      add\n        /* \"main.sol\":1732:1740  _endTime */\n      dup4\n        /* \"main.sol\":1568:1865  Loan({... */\n      dup2\n      mstore\n      0x20\n      add\n        /* \"main.sol\":1794:1798  _apr */\n      dup3\n        /* \"main.sol\":1568:1865  Loan({... */\n      dup2\n      mstore\n      0x20\n      add\n        /* \"main.sol\":1821:1822  0 */\n      0x00\n        /* \"main.sol\":1568:1865  Loan({... */\n      dup2\n      mstore\n      0x20\n      add\n        /* \"main.sol\":1849:1854  false */\n      0x00\n        /* \"main.sol\":1568:1865  Loan({... */\n      iszero\n      iszero\n      dup2\n      mstore\n      pop\n        /* \"main.sol\":1553:1558  loans */\n      0x01\n        /* \"main.sol\":1553:1565  loans[count] */\n      0x00\n        /* \"main.sol\":1559:1564  count */\n      dup1\n      sload\n        /* \"main.sol\":1553:1565  loans[count] */\n      dup2\n      mstore\n      0x20\n      add\n      swap1\n      dup2\n      mstore\n      0x20\n      add\n      0x00\n      keccak256\n        /* \"main.sol\":1553:1865  loans[count] = Loan({... */\n      0x00\n      dup3\n      add\n      mload\n      dup2\n      0x00\n      add\n      exp(0x0100, 0x00)\n      dup2\n      sload\n      dup2\n      0xffffffffffffffffffffffffffffffffffffffff\n      mul\n      not\n      and\n      swap1\n      dup4\n      0xffffffffffffffffffffffffffffffffffffffff\n      and\n      mul\n      or\n      swap1\n      sstore\n      pop\n      0x20\n      dup3\n      add\n      mload\n      dup2\n      0x01\n      add\n      exp(0x0100, 0x00)\n      dup2\n      sload\n      dup2\n      0xffffffffffffffffffffffffffffffffffffffff\n      mul\n      not\n      and\n      swap1\n      dup4\n      0xffffffffffffffffffffffffffffffffffffffff\n      and\n      mul\n      or\n      swap1\n      sstore\n      pop\n      0x40\n      dup3\n      add\n      mload\n      dup2\n      0x02\n      add\n      exp(0x0100, 0x00)\n      dup2\n      sload\n      dup2\n      0xffffffffffffffffffffffffffffffffffffffff\n      mul\n      not\n      and\n      swap1\n      dup4\n      0xffffffffffffffffffffffffffffffffffffffff\n      and\n      mul\n      or\n      swap1\n      sstore\n      pop\n      0x60\n      dup3\n      add\n      mload\n      dup2\n      0x03\n      add\n      sstore\n      0x80\n      dup3\n      add\n      mload\n      dup2\n      0x04\n      add\n      sstore\n      0xa0\n      dup3\n      add\n      mload\n      dup2\n      0x05\n      add\n      sstore\n      0xc0\n      dup3\n      add\n      mload\n      dup2\n      0x06\n      add\n      sstore\n      0xe0\n      dup3\n      add\n      mload\n      dup2\n      0x07\n      add\n      sstore\n      0x0100\n      dup3\n      add\n      mload\n      dup2\n      0x08\n      add\n      exp(0x0100, 0x00)\n      dup2\n      sload\n      dup2\n      0xff\n      mul\n      not\n      and\n      swap1\n      dup4\n      iszero\n      iszero\n      mul\n      or\n      swap1\n      sstore\n      pop\n      swap1\n      pop\n      pop\n        /* \"main.sol\":1900:1915  block.timestamp */\n      timestamp\n        /* \"main.sol\":1875:1879  bids */\n      0x02\n        /* \"main.sol\":1875:1886  bids[count] */\n      0x00\n        /* \"main.sol\":1880:1885  count */\n      dup1\n      sload\n        /* \"main.sol\":1875:1886  bids[count] */\n      dup2\n      mstore\n      0x20\n      add\n      swap1\n      dup2\n      mstore\n      0x20\n      add\n      0x00\n      keccak256\n        /* \"main.sol\":1875:1889  bids[count][0] */\n      0x00\n        /* \"main.sol\":1887:1888  0 */\n      dup1\n        /* \"main.sol\":1875:1889  bids[count][0] */\n      dup2\n      mstore\n      0x20\n      add\n      swap1\n      dup2\n      mstore\n      0x20\n      add\n      0x00\n      keccak256\n        /* \"main.sol\":1875:1897  bids[count][0].bidTime */\n      0x00\n      add\n        /* \"main.sol\":1875:1915  bids[count][0].bidTime = block.timestamp */\n      dup2\n      swap1\n      sstore\n      pop\n        /* \"main.sol\":1938:1943  count */\n      sload(0x00)\n        /* \"main.sol\":1930:1972  newPool(count, _collectionAddress, _nftId) */\n      0xef8b2952c43462575e82711d0cc91169720a4589a9fa533d173e022437f5405e\n        /* \"main.sol\":1945:1963  _collectionAddress */\n      dup7\n        /* \"main.sol\":1965:1971  _nftId */\n      dup7\n        /* \"main.sol\":1930:1972  newPool(count, _collectionAddress, _nftId) */\n      mload(0x40)\n      tag_157\n      swap3\n      swap2\n      swap1\n      tag_158\n      jump\t// in\n    tag_157:\n      mload(0x40)\n      dup1\n      swap2\n      sub\n      swap1\n      log2\n        /* \"main.sol\":1982:1987  count */\n      0x00\n      dup1\n        /* \"main.sol\":1982:1989  count++ */\n      dup2\n      sload\n      dup1\n      swap3\n      swap2\n      swap1\n      tag_159\n      swap1\n      tag_160\n      jump\t// in\n    tag_159:\n      swap2\n      swap1\n      pop\n      sstore\n      pop\n        /* \"main.sol\":1269:1996  function launch(address _token, address _collectionAddress, uint256 _nftId, uint256 _startTime, uint256 _endTime, uint256 _apr) public {... */\n      pop\n      pop\n      pop\n      pop\n      pop\n      pop\n      jump\t// out\n        /* \"main.sol\":5963:6089  function _ended(uint256 _poolId) internal view returns (bool){... */\n    tag_65:\n        /* \"main.sol\":6019:6023  bool */\n      0x00\n        /* \"main.sol\":6067:6082  block.timestamp */\n      timestamp\n        /* \"main.sol\":6041:6046  loans */\n      0x01\n        /* \"main.sol\":6041:6055  loans[_poolId] */\n      0x00\n        /* \"main.sol\":6047:6054  _poolId */\n      dup5\n        /* \"main.sol\":6041:6055  loans[_poolId] */\n      dup2\n      mstore\n      0x20\n      add\n      swap1\n      dup2\n      mstore\n      0x20\n      add\n      0x00\n      keccak256\n        /* \"main.sol\":6041:6063  loans[_poolId].endTime */\n      0x05\n      add\n      sload\n        /* \"main.sol\":6041:6082  loans[_poolId].endTime <= block.timestamp */\n      gt\n      iszero\n        /* \"main.sol\":6034:6082  return loans[_poolId].endTime <= block.timestamp */\n      swap1\n      pop\n        /* \"main.sol\":5963:6089  function _ended(uint256 _poolId) internal view returns (bool){... */\n      swap2\n      swap1\n      pop\n      jump\t// out\n        /* \"main.sol\":6094:6223  function _started(uint256 _poolId) internal view returns (bool){... */\n    tag_99:\n        /* \"main.sol\":6152:6156  bool */\n      0x00\n        /* \"main.sol\":6201:6216  block.timestamp */\n      timestamp\n        /* \"main.sol\":6174:6179  loans */\n      0x01\n        /* \"main.sol\":6174:6188  loans[_poolId] */\n      0x00\n        /* \"main.sol\":6180:6187  _poolId */\n      dup5\n        /* \"main.sol\":6174:6188  loans[_poolId] */\n      dup2\n      mstore\n      0x20\n      add\n      swap1\n      dup2\n      mstore\n      0x20\n      add\n      0x00\n      keccak256\n        /* \"main.sol\":6174:6198  loans[_poolId].startTime */\n      0x04\n      add\n      sload\n        /* \"main.sol\":6174:6216  loans[_poolId].startTime < block.timestamp */\n      lt\n        /* \"main.sol\":6167:6216  return loans[_poolId].startTime < block.timestamp */\n      swap1\n      pop\n        /* \"main.sol\":6094:6223  function _started(uint256 _poolId) internal view returns (bool){... */\n      swap2\n      swap1\n      pop\n      jump\t// out\n        /* \"main.sol\":5439:5952  function _calculateLoanValue(uint256 _poolId) internal view returns (uint256){... */\n    tag_110:\n        /* \"main.sol\":5508:5515  uint256 */\n      0x00\n        /* \"main.sol\":5526:5542  Loan memory loan */\n      dup1\n        /* \"main.sol\":5545:5550  loans */\n      0x01\n        /* \"main.sol\":5545:5559  loans[_poolId] */\n      0x00\n        /* \"main.sol\":5551:5558  _poolId */\n      dup5\n        /* \"main.sol\":5545:5559  loans[_poolId] */\n      dup2\n      mstore\n      0x20\n      add\n      swap1\n      dup2\n      mstore\n      0x20\n      add\n      0x00\n      keccak256\n        /* \"main.sol\":5526:5559  Loan memory loan = loans[_poolId] */\n      mload(0x40)\n      dup1\n      0x0120\n      add\n      0x40\n      mstore\n      swap1\n      dup2\n      0x00\n      dup3\n      add\n      0x00\n      swap1\n      sload\n      swap1\n      0x0100\n      exp\n      swap1\n      div\n      0xffffffffffffffffffffffffffffffffffffffff\n      and\n      0xffffffffffffffffffffffffffffffffffffffff\n      and\n      0xffffffffffffffffffffffffffffffffffffffff\n      and\n      dup2\n      mstore\n      0x20\n      add\n      0x01\n      dup3\n      add\n      0x00\n      swap1\n      sload\n      swap1\n      0x0100\n      exp\n      swap1\n      div\n      0xffffffffffffffffffffffffffffffffffffffff\n      and\n      0xffffffffffffffffffffffffffffffffffffffff\n      and\n      0xffffffffffffffffffffffffffffffffffffffff\n      and\n      dup2\n      mstore\n      0x20\n      add\n      0x02\n      dup3\n      add\n      0x00\n      swap1\n      sload\n      swap1\n      0x0100\n      exp\n      swap1\n      div\n      0xffffffffffffffffffffffffffffffffffffffff\n      and\n      0xffffffffffffffffffffffffffffffffffffffff\n      and\n      0xffffffffffffffffffffffffffffffffffffffff\n      and\n      dup2\n      mstore\n      0x20\n      add\n      0x03\n      dup3\n      add\n      sload\n      dup2\n      mstore\n      0x20\n      add\n      0x04\n      dup3\n      add\n      sload\n      dup2\n      mstore\n      0x20\n      add\n      0x05\n      dup3\n      add\n      sload\n      dup2\n      mstore\n      0x20\n      add\n      0x06\n      dup3\n      add\n      sload\n      dup2\n      mstore\n      0x20\n      add\n      0x07\n      dup3\n      add\n      sload\n      dup2\n      mstore\n      0x20\n      add\n      0x08\n      dup3\n      add\n      0x00\n      swap1\n      sload\n      swap1\n      0x0100\n      exp\n      swap1\n      div\n      0xff\n      and\n      iszero\n      iszero\n      iszero\n      iszero\n      dup2\n      mstore\n      pop\n      pop\n      swap1\n      pop\n        /* \"main.sol\":5569:5589  Bid memory latestBid */\n      0x00\n        /* \"main.sol\":5592:5596  bids */\n      0x02\n        /* \"main.sol\":5592:5605  bids[_poolId] */\n      0x00\n        /* \"main.sol\":5597:5604  _poolId */\n      dup6\n        /* \"main.sol\":5592:5605  bids[_poolId] */\n      dup2\n      mstore\n      0x20\n      add\n      swap1\n      dup2\n      mstore\n      0x20\n      add\n      0x00\n      keccak256\n        /* \"main.sol\":5592:5619  bids[_poolId][loan.numBids] */\n      0x00\n        /* \"main.sol\":5606:5610  loan */\n      dup4\n        /* \"main.sol\":5606:5618  loan.numBids */\n      0xe0\n      add\n      mload\n        /* \"main.sol\":5592:5619  bids[_poolId][loan.numBids] */\n      dup2\n      mstore\n      0x20\n      add\n      swap1\n      dup2\n      mstore\n      0x20\n      add\n      0x00\n      keccak256\n        /* \"main.sol\":5569:5619  Bid memory latestBid = bids[_poolId][loan.numBids] */\n      mload(0x40)\n      dup1\n      0x60\n      add\n      0x40\n      mstore\n      swap1\n      dup2\n      0x00\n      dup3\n      add\n      sload\n      dup2\n      mstore\n      0x20\n      add\n      0x01\n      dup3\n      add\n      sload\n      dup2\n      mstore\n      0x20\n      add\n      0x02\n      dup3\n      add\n      0x00\n      swap1\n      sload\n      swap1\n      0x0100\n      exp\n      swap1\n      div\n      0xffffffffffffffffffffffffffffffffffffffff\n      and\n      0xffffffffffffffffffffffffffffffffffffffff\n      and\n      0xffffffffffffffffffffffffffffffffffffffff\n      and\n      dup2\n      mstore\n      pop\n      pop\n      swap1\n      pop\n        /* \"main.sol\":5629:5648  uint256 timeElapsed */\n      0x00\n        /* \"main.sol\":5661:5676  _ended(_poolId) */\n      tag_164\n        /* \"main.sol\":5668:5675  _poolId */\n      dup6\n        /* \"main.sol\":5661:5667  _ended */\n      tag_65\n        /* \"main.sol\":5661:5676  _ended(_poolId) */\n      jump\t// in\n    tag_164:\n        /* \"main.sol\":5658:5830  if(_ended(_poolId)){... */\n      iszero\n      tag_165\n      jumpi\n        /* \"main.sol\":5726:5730  loan */\n      dup3\n        /* \"main.sol\":5726:5738  loan.endTime */\n      0xa0\n      add\n      mload\n        /* \"main.sol\":5706:5715  latestBid */\n      dup3\n        /* \"main.sol\":5706:5723  latestBid.bidTime */\n      0x00\n      add\n      mload\n        /* \"main.sol\":5706:5738  latestBid.bidTime - loan.endTime */\n      tag_166\n      swap2\n      swap1\n      tag_120\n      jump\t// in\n    tag_166:\n        /* \"main.sol\":5691:5738  timeElapsed =  latestBid.bidTime - loan.endTime */\n      swap1\n      pop\n        /* \"main.sol\":5658:5830  if(_ended(_poolId)){... */\n      jump(tag_167)\n    tag_165:\n        /* \"main.sol\":5804:5819  block.timestamp */\n      timestamp\n        /* \"main.sol\":5784:5793  latestBid */\n      dup3\n        /* \"main.sol\":5784:5801  latestBid.bidTime */\n      0x00\n      add\n      mload\n        /* \"main.sol\":5784:5819  latestBid.bidTime - block.timestamp */\n      tag_168\n      swap2\n      swap1\n      tag_120\n      jump\t// in\n    tag_168:\n        /* \"main.sol\":5769:5819  timeElapsed =  latestBid.bidTime - block.timestamp */\n      swap1\n      pop\n        /* \"main.sol\":5658:5830  if(_ended(_poolId)){... */\n    tag_167:\n        /* \"main.sol\":1120:1132  60*60*24*365 */\n      0x01e13380\n        /* \"main.sol\":5912:5923  timeElapsed */\n      dup2\n        /* \"main.sol\":5901:5909  10 ** 18 */\n      0x0de0b6b3a7640000\n        /* \"main.sol\":5890:5894  loan */\n      dup6\n        /* \"main.sol\":5890:5898  loan.apr */\n      0xc0\n      add\n      mload\n        /* \"main.sol\":5868:5877  latestBid */\n      dup6\n        /* \"main.sol\":5868:5887  latestBid.bidAmount */\n      0x20\n      add\n      mload\n        /* \"main.sol\":5868:5898  latestBid.bidAmount * loan.apr */\n      tag_169\n      swap2\n      swap1\n      tag_170\n      jump\t// in\n    tag_169:\n        /* \"main.sol\":5868:5909  latestBid.bidAmount * loan.apr / 10 ** 18 */\n      tag_171\n      swap2\n      swap1\n      tag_172\n      jump\t// in\n    tag_171:\n        /* \"main.sol\":5868:5923  latestBid.bidAmount * loan.apr / 10 ** 18 * timeElapsed */\n      tag_173\n      swap2\n      swap1\n      tag_170\n      jump\t// in\n    tag_173:\n        /* \"main.sol\":5868:5945  latestBid.bidAmount * loan.apr / 10 ** 18 * timeElapsed / SECONDS_IN_ONE_YEAR */\n      tag_174\n      swap2\n      swap1\n      tag_172\n      jump\t// in\n    tag_174:\n        /* \"main.sol\":5846:5855  latestBid */\n      dup3\n        /* \"main.sol\":5846:5865  latestBid.bidAmount */\n      0x20\n      add\n      mload\n        /* \"main.sol\":5846:5945  latestBid.bidAmount + latestBid.bidAmount * loan.apr / 10 ** 18 * timeElapsed / SECONDS_IN_ONE_YEAR */\n      tag_175\n      swap2\n      swap1\n      tag_108\n      jump\t// in\n    tag_175:\n        /* \"main.sol\":5839:5945  return latestBid.bidAmount + latestBid.bidAmount * loan.apr / 10 ** 18 * timeElapsed / SECONDS_IN_ONE_YEAR */\n      swap4\n      pop\n      pop\n      pop\n      pop\n        /* \"main.sol\":5439:5952  function _calculateLoanValue(uint256 _poolId) internal view returns (uint256){... */\n      swap2\n      swap1\n      pop\n      jump\t// out\n    tag_85:\n      mload(0x40)\n      dup1\n      0x0120\n      add\n      0x40\n      mstore\n      dup1\n      and(0xffffffffffffffffffffffffffffffffffffffff, 0x00)\n      dup2\n      mstore\n      0x20\n      add\n      and(0xffffffffffffffffffffffffffffffffffffffff, 0x00)\n      dup2\n      mstore\n      0x20\n      add\n      and(0xffffffffffffffffffffffffffffffffffffffff, 0x00)\n      dup2\n      mstore\n      0x20\n      add\n      0x00\n      dup2\n      mstore\n      0x20\n      add\n      0x00\n      dup2\n      mstore\n      0x20\n      add\n      0x00\n      dup2\n      mstore\n      0x20\n      add\n      0x00\n      dup2\n      mstore\n      0x20\n      add\n      0x00\n      dup2\n      mstore\n      0x20\n      add\n      iszero(iszero(0x00))\n      dup2\n      mstore\n      pop\n      swap1\n      jump\t// out\n        /* \"#utility.yul\":7:84   */\n    tag_176:\n        /* \"#utility.yul\":44:51   */\n      0x00\n        /* \"#utility.yul\":73:78   */\n      dup2\n        /* \"#utility.yul\":62:78   */\n      swap1\n      pop\n        /* \"#utility.yul\":7:84   */\n      swap2\n      swap1\n      pop\n      jump\t// out\n        /* \"#utility.yul\":90:208   */\n    tag_177:\n        /* \"#utility.yul\":177:201   */\n      tag_218\n        /* \"#utility.yul\":195:200   */\n      dup2\n        /* \"#utility.yul\":177:201   */\n      tag_176\n      jump\t// in\n    tag_218:\n        /* \"#utility.yul\":172:175   */\n      dup3\n        /* \"#utility.yul\":165:202   */\n      mstore\n        /* \"#utility.yul\":90:208   */\n      pop\n      pop\n      jump\t// out\n        /* \"#utility.yul\":214:436   */\n    tag_18:\n        /* \"#utility.yul\":307:311   */\n      0x00\n        /* \"#utility.yul\":345:347   */\n      0x20\n        /* \"#utility.yul\":334:343   */\n      dup3\n        /* \"#utility.yul\":330:348   */\n      add\n        /* \"#utility.yul\":322:348   */\n      swap1\n      pop\n        /* \"#utility.yul\":358:429   */\n      tag_220\n        /* \"#utility.yul\":426:427   */\n      0x00\n        /* \"#utility.yul\":415:424   */\n      dup4\n        /* \"#utility.yul\":411:428   */\n      add\n        /* \"#utility.yul\":402:408   */\n      dup5\n        /* \"#utility.yul\":358:429   */\n      tag_177\n      jump\t// in\n    tag_220:\n        /* \"#utility.yul\":214:436   */\n      swap3\n      swap2\n      pop\n      pop\n      jump\t// out\n        /* \"#utility.yul\":523:640   */\n    tag_179:\n        /* \"#utility.yul\":632:633   */\n      0x00\n        /* \"#utility.yul\":629:630   */\n      dup1\n        /* \"#utility.yul\":622:634   */\n      revert\n        /* \"#utility.yul\":769:891   */\n    tag_181:\n        /* \"#utility.yul\":842:866   */\n      tag_225\n        /* \"#utility.yul\":860:865   */\n      dup2\n        /* \"#utility.yul\":842:866   */\n      tag_176\n      jump\t// in\n    tag_225:\n        /* \"#utility.yul\":835:840   */\n      dup2\n        /* \"#utility.yul\":832:867   */\n      eq\n        /* \"#utility.yul\":822:885   */\n      tag_226\n      jumpi\n        /* \"#utility.yul\":881:882   */\n      0x00\n        /* \"#utility.yul\":878:879   */\n      dup1\n        /* \"#utility.yul\":871:883   */\n      revert\n        /* \"#utility.yul\":822:885   */\n    tag_226:\n        /* \"#utility.yul\":769:891   */\n      pop\n      jump\t// out\n        /* \"#utility.yul\":897:1036   */\n    tag_182:\n        /* \"#utility.yul\":943:948   */\n      0x00\n        /* \"#utility.yul\":981:987   */\n      dup2\n        /* \"#utility.yul\":968:988   */\n      calldataload\n        /* \"#utility.yul\":959:988   */\n      swap1\n      pop\n        /* \"#utility.yul\":997:1030   */\n      tag_228\n        /* \"#utility.yul\":1024:1029   */\n      dup2\n        /* \"#utility.yul\":997:1030   */\n      tag_181\n      jump\t// in\n    tag_228:\n        /* \"#utility.yul\":897:1036   */\n      swap3\n      swap2\n      pop\n      pop\n      jump\t// out\n        /* \"#utility.yul\":1042:1371   */\n    tag_21:\n        /* \"#utility.yul\":1101:1107   */\n      0x00\n        /* \"#utility.yul\":1150:1152   */\n      0x20\n        /* \"#utility.yul\":1138:1147   */\n      dup3\n        /* \"#utility.yul\":1129:1136   */\n      dup5\n        /* \"#utility.yul\":1125:1148   */\n      sub\n        /* \"#utility.yul\":1121:1153   */\n      slt\n        /* \"#utility.yul\":1118:1237   */\n      iszero\n      tag_230\n      jumpi\n        /* \"#utility.yul\":1156:1235   */\n      tag_231\n      tag_179\n      jump\t// in\n    tag_231:\n        /* \"#utility.yul\":1118:1237   */\n    tag_230:\n        /* \"#utility.yul\":1276:1277   */\n      0x00\n        /* \"#utility.yul\":1301:1354   */\n      tag_232\n        /* \"#utility.yul\":1346:1353   */\n      dup5\n        /* \"#utility.yul\":1337:1343   */\n      dup3\n        /* \"#utility.yul\":1326:1335   */\n      dup6\n        /* \"#utility.yul\":1322:1344   */\n      add\n        /* \"#utility.yul\":1301:1354   */\n      tag_182\n      jump\t// in\n    tag_232:\n        /* \"#utility.yul\":1291:1354   */\n      swap2\n      pop\n        /* \"#utility.yul\":1247:1364   */\n      pop\n        /* \"#utility.yul\":1042:1371   */\n      swap3\n      swap2\n      pop\n      pop\n      jump\t// out\n        /* \"#utility.yul\":1377:1851   */\n    tag_31:\n        /* \"#utility.yul\":1445:1451   */\n      0x00\n        /* \"#utility.yul\":1453:1459   */\n      dup1\n        /* \"#utility.yul\":1502:1504   */\n      0x40\n        /* \"#utility.yul\":1490:1499   */\n      dup4\n        /* \"#utility.yul\":1481:1488   */\n      dup6\n        /* \"#utility.yul\":1477:1500   */\n      sub\n        /* \"#utility.yul\":1473:1505   */\n      slt\n        /* \"#utility.yul\":1470:1589   */\n      iszero\n      tag_234\n      jumpi\n        /* \"#utility.yul\":1508:1587   */\n      tag_235\n      tag_179\n      jump\t// in\n    tag_235:\n        /* \"#utility.yul\":1470:1589   */\n    tag_234:\n        /* \"#utility.yul\":1628:1629   */\n      0x00\n        /* \"#utility.yul\":1653:1706   */\n      tag_236\n        /* \"#utility.yul\":1698:1705   */\n      dup6\n        /* \"#utility.yul\":1689:1695   */\n      dup3\n        /* \"#utility.yul\":1678:1687   */\n      dup7\n        /* \"#utility.yul\":1674:1696   */\n      add\n        /* \"#utility.yul\":1653:1706   */\n      tag_182\n      jump\t// in\n    tag_236:\n        /* \"#utility.yul\":1643:1706   */\n      swap3\n      pop\n        /* \"#utility.yul\":1599:1716   */\n      pop\n        /* \"#utility.yul\":1755:1757   */\n      0x20\n        /* \"#utility.yul\":1781:1834   */\n      tag_237\n        /* \"#utility.yul\":1826:1833   */\n      dup6\n        /* \"#utility.yul\":1817:1823   */\n      dup3\n        /* \"#utility.yul\":1806:1815   */\n      dup7\n        /* \"#utility.yul\":1802:1824   */\n      add\n        /* \"#utility.yul\":1781:1834   */\n      tag_182\n      jump\t// in\n    tag_237:\n        /* \"#utility.yul\":1771:1834   */\n      swap2\n      pop\n        /* \"#utility.yul\":1726:1844   */\n      pop\n        /* \"#utility.yul\":1377:1851   */\n      swap3\n      pop\n      swap3\n      swap1\n      pop\n      jump\t// out\n        /* \"#utility.yul\":1857:1983   */\n    tag_183:\n        /* \"#utility.yul\":1894:1901   */\n      0x00\n        /* \"#utility.yul\":1934:1976   */\n      0xffffffffffffffffffffffffffffffffffffffff\n        /* \"#utility.yul\":1927:1932   */\n      dup3\n        /* \"#utility.yul\":1923:1977   */\n      and\n        /* \"#utility.yul\":1912:1977   */\n      swap1\n      pop\n        /* \"#utility.yul\":1857:1983   */\n      swap2\n      swap1\n      pop\n      jump\t// out\n        /* \"#utility.yul\":1989:2085   */\n    tag_184:\n        /* \"#utility.yul\":2026:2033   */\n      0x00\n        /* \"#utility.yul\":2055:2079   */\n      tag_240\n        /* \"#utility.yul\":2073:2078   */\n      dup3\n        /* \"#utility.yul\":2055:2079   */\n      tag_183\n      jump\t// in\n    tag_240:\n        /* \"#utility.yul\":2044:2079   */\n      swap1\n      pop\n        /* \"#utility.yul\":1989:2085   */\n      swap2\n      swap1\n      pop\n      jump\t// out\n        /* \"#utility.yul\":2091:2209   */\n    tag_185:\n        /* \"#utility.yul\":2178:2202   */\n      tag_242\n        /* \"#utility.yul\":2196:2201   */\n      dup2\n        /* \"#utility.yul\":2178:2202   */\n      tag_184\n      jump\t// in\n    tag_242:\n        /* \"#utility.yul\":2173:2176   */\n      dup3\n        /* \"#utility.yul\":2166:2203   */\n      mstore\n        /* \"#utility.yul\":2091:2209   */\n      pop\n      pop\n      jump\t// out\n        /* \"#utility.yul\":2215:2657   */\n    tag_40:\n        /* \"#utility.yul\":2364:2368   */\n      0x00\n        /* \"#utility.yul\":2402:2404   */\n      0x60\n        /* \"#utility.yul\":2391:2400   */\n      dup3\n        /* \"#utility.yul\":2387:2405   */\n      add\n        /* \"#utility.yul\":2379:2405   */\n      swap1\n      pop\n        /* \"#utility.yul\":2415:2486   */\n      tag_244\n        /* \"#utility.yul\":2483:2484   */\n      0x00\n        /* \"#utility.yul\":2472:2481   */\n      dup4\n        /* \"#utility.yul\":2468:2485   */\n      add\n        /* \"#utility.yul\":2459:2465   */\n      dup7\n        /* \"#utility.yul\":2415:2486   */\n      tag_177\n      jump\t// in\n    tag_244:\n        /* \"#utility.yul\":2496:2568   */\n      tag_245\n        /* \"#utility.yul\":2564:2566   */\n      0x20\n        /* \"#utility.yul\":2553:2562   */\n      dup4\n        /* \"#utility.yul\":2549:2567   */\n      add\n        /* \"#utility.yul\":2540:2546   */\n      dup6\n        /* \"#utility.yul\":2496:2568   */\n      tag_177\n      jump\t// in\n    tag_245:\n        /* \"#utility.yul\":2578:2650   */\n      tag_246\n        /* \"#utility.yul\":2646:2648   */\n      0x40\n        /* \"#utility.yul\":2635:2644   */\n      dup4\n        /* \"#utility.yul\":2631:2649   */\n      add\n        /* \"#utility.yul\":2622:2628   */\n      dup5\n        /* \"#utility.yul\":2578:2650   */\n      tag_185\n      jump\t// in\n    tag_246:\n        /* \"#utility.yul\":2215:2657   */\n      swap5\n      swap4\n      pop\n      pop\n      pop\n      pop\n      jump\t// out\n        /* \"#utility.yul\":2663:2785   */\n    tag_186:\n        /* \"#utility.yul\":2736:2760   */\n      tag_248\n        /* \"#utility.yul\":2754:2759   */\n      dup2\n        /* \"#utility.yul\":2736:2760   */\n      tag_184\n      jump\t// in\n    tag_248:\n        /* \"#utility.yul\":2729:2734   */\n      dup2\n        /* \"#utility.yul\":2726:2761   */\n      eq\n        /* \"#utility.yul\":2716:2779   */\n      tag_249\n      jumpi\n        /* \"#utility.yul\":2775:2776   */\n      0x00\n        /* \"#utility.yul\":2772:2773   */\n      dup1\n        /* \"#utility.yul\":2765:2777   */\n      revert\n        /* \"#utility.yul\":2716:2779   */\n    tag_249:\n        /* \"#utility.yul\":2663:2785   */\n      pop\n      jump\t// out\n        /* \"#utility.yul\":2791:2930   */\n    tag_187:\n        /* \"#utility.yul\":2837:2842   */\n      0x00\n        /* \"#utility.yul\":2875:2881   */\n      dup2\n        /* \"#utility.yul\":2862:2882   */\n      calldataload\n        /* \"#utility.yul\":2853:2882   */\n      swap1\n      pop\n        /* \"#utility.yul\":2891:2924   */\n      tag_251\n        /* \"#utility.yul\":2918:2923   */\n      dup2\n        /* \"#utility.yul\":2891:2924   */\n      tag_186\n      jump\t// in\n    tag_251:\n        /* \"#utility.yul\":2791:2930   */\n      swap3\n      swap2\n      pop\n      pop\n      jump\t// out\n        /* \"#utility.yul\":2936:3410   */\n    tag_43:\n        /* \"#utility.yul\":3004:3010   */\n      0x00\n        /* \"#utility.yul\":3012:3018   */\n      dup1\n        /* \"#utility.yul\":3061:3063   */\n      0x40\n        /* \"#utility.yul\":3049:3058   */\n      dup4\n        /* \"#utility.yul\":3040:3047   */\n      dup6\n        /* \"#utility.yul\":3036:3059   */\n      sub\n        /* \"#utility.yul\":3032:3064   */\n      slt\n        /* \"#utility.yul\":3029:3148   */\n      iszero\n      tag_253\n      jumpi\n        /* \"#utility.yul\":3067:3146   */\n      tag_254\n      tag_179\n      jump\t// in\n    tag_254:\n        /* \"#utility.yul\":3029:3148   */\n    tag_253:\n        /* \"#utility.yul\":3187:3188   */\n      0x00\n        /* \"#utility.yul\":3212:3265   */\n      tag_255\n        /* \"#utility.yul\":3257:3264   */\n      dup6\n        /* \"#utility.yul\":3248:3254   */\n      dup3\n        /* \"#utility.yul\":3237:3246   */\n      dup7\n        /* \"#utility.yul\":3233:3255   */\n      add\n        /* \"#utility.yul\":3212:3265   */\n      tag_182\n      jump\t// in\n    tag_255:\n        /* \"#utility.yul\":3202:3265   */\n      swap3\n      pop\n        /* \"#utility.yul\":3158:3275   */\n      pop\n        /* \"#utility.yul\":3314:3316   */\n      0x20\n        /* \"#utility.yul\":3340:3393   */\n      tag_256\n        /* \"#utility.yul\":3385:3392   */\n      dup6\n        /* \"#utility.yul\":3376:3382   */\n      dup3\n        /* \"#utility.yul\":3365:3374   */\n      dup7\n        /* \"#utility.yul\":3361:3383   */\n      add\n        /* \"#utility.yul\":3340:3393   */\n      tag_187\n      jump\t// in\n    tag_256:\n        /* \"#utility.yul\":3330:3393   */\n      swap2\n      pop\n        /* \"#utility.yul\":3285:3403   */\n      pop\n        /* \"#utility.yul\":2936:3410   */\n      swap3\n      pop\n      swap3\n      swap1\n      pop\n      jump\t// out\n        /* \"#utility.yul\":3416:3638   */\n    tag_49:\n        /* \"#utility.yul\":3509:3513   */\n      0x00\n        /* \"#utility.yul\":3547:3549   */\n      0x20\n        /* \"#utility.yul\":3536:3545   */\n      dup3\n        /* \"#utility.yul\":3532:3550   */\n      add\n        /* \"#utility.yul\":3524:3550   */\n      swap1\n      pop\n        /* \"#utility.yul\":3560:3631   */\n      tag_258\n        /* \"#utility.yul\":3628:3629   */\n      0x00\n        /* \"#utility.yul\":3617:3626   */\n      dup4\n        /* \"#utility.yul\":3613:3630   */\n      add\n        /* \"#utility.yul\":3604:3610   */\n      dup5\n        /* \"#utility.yul\":3560:3631   */\n      tag_185\n      jump\t// in\n    tag_258:\n        /* \"#utility.yul\":3416:3638   */\n      swap3\n      swap2\n      pop\n      pop\n      jump\t// out\n        /* \"#utility.yul\":3644:3734   */\n    tag_188:\n        /* \"#utility.yul\":3678:3685   */\n      0x00\n        /* \"#utility.yul\":3721:3726   */\n      dup2\n        /* \"#utility.yul\":3714:3727   */\n      iszero\n        /* \"#utility.yul\":3707:3728   */\n      iszero\n        /* \"#utility.yul\":3696:3728   */\n      swap1\n      pop\n        /* \"#utility.yul\":3644:3734   */\n      swap2\n      swap1\n      pop\n      jump\t// out\n        /* \"#utility.yul\":3740:3849   */\n    tag_189:\n        /* \"#utility.yul\":3821:3842   */\n      tag_261\n        /* \"#utility.yul\":3836:3841   */\n      dup2\n        /* \"#utility.yul\":3821:3842   */\n      tag_188\n      jump\t// in\n    tag_261:\n        /* \"#utility.yul\":3816:3819   */\n      dup3\n        /* \"#utility.yul\":3809:3843   */\n      mstore\n        /* \"#utility.yul\":3740:3849   */\n      pop\n      pop\n      jump\t// out\n        /* \"#utility.yul\":3855:4951   */\n    tag_54:\n        /* \"#utility.yul\":4166:4170   */\n      0x00\n        /* \"#utility.yul\":4204:4207   */\n      0x0120\n        /* \"#utility.yul\":4193:4202   */\n      dup3\n        /* \"#utility.yul\":4189:4208   */\n      add\n        /* \"#utility.yul\":4181:4208   */\n      swap1\n      pop\n        /* \"#utility.yul\":4218:4289   */\n      tag_263\n        /* \"#utility.yul\":4286:4287   */\n      0x00\n        /* \"#utility.yul\":4275:4284   */\n      dup4\n        /* \"#utility.yul\":4271:4288   */\n      add\n        /* \"#utility.yul\":4262:4268   */\n      dup13\n        /* \"#utility.yul\":4218:4289   */\n      tag_185\n      jump\t// in\n    tag_263:\n        /* \"#utility.yul\":4299:4371   */\n      tag_264\n        /* \"#utility.yul\":4367:4369   */\n      0x20\n        /* \"#utility.yul\":4356:4365   */\n      dup4\n        /* \"#utility.yul\":4352:4370   */\n      add\n        /* \"#utility.yul\":4343:4349   */\n      dup12\n        /* \"#utility.yul\":4299:4371   */\n      tag_185\n      jump\t// in\n    tag_264:\n        /* \"#utility.yul\":4381:4453   */\n      tag_265\n        /* \"#utility.yul\":4449:4451   */\n      0x40\n        /* \"#utility.yul\":4438:4447   */\n      dup4\n        /* \"#utility.yul\":4434:4452   */\n      add\n        /* \"#utility.yul\":4425:4431   */\n      dup11\n        /* \"#utility.yul\":4381:4453   */\n      tag_185\n      jump\t// in\n    tag_265:\n        /* \"#utility.yul\":4463:4535   */\n      tag_266\n        /* \"#utility.yul\":4531:4533   */\n      0x60\n        /* \"#utility.yul\":4520:4529   */\n      dup4\n        /* \"#utility.yul\":4516:4534   */\n      add\n        /* \"#utility.yul\":4507:4513   */\n      dup10\n        /* \"#utility.yul\":4463:4535   */\n      tag_177\n      jump\t// in\n    tag_266:\n        /* \"#utility.yul\":4545:4618   */\n      tag_267\n        /* \"#utility.yul\":4613:4616   */\n      0x80\n        /* \"#utility.yul\":4602:4611   */\n      dup4\n        /* \"#utility.yul\":4598:4617   */\n      add\n        /* \"#utility.yul\":4589:4595   */\n      dup9\n        /* \"#utility.yul\":4545:4618   */\n      tag_177\n      jump\t// in\n    tag_267:\n        /* \"#utility.yul\":4628:4701   */\n      tag_268\n        /* \"#utility.yul\":4696:4699   */\n      0xa0\n        /* \"#utility.yul\":4685:4694   */\n      dup4\n        /* \"#utility.yul\":4681:4700   */\n      add\n        /* \"#utility.yul\":4672:4678   */\n      dup8\n        /* \"#utility.yul\":4628:4701   */\n      tag_177\n      jump\t// in\n    tag_268:\n        /* \"#utility.yul\":4711:4784   */\n      tag_269\n        /* \"#utility.yul\":4779:4782   */\n      0xc0\n        /* \"#utility.yul\":4768:4777   */\n      dup4\n        /* \"#utility.yul\":4764:4783   */\n      add\n        /* \"#utility.yul\":4755:4761   */\n      dup7\n        /* \"#utility.yul\":4711:4784   */\n      tag_177\n      jump\t// in\n    tag_269:\n        /* \"#utility.yul\":4794:4867   */\n      tag_270\n        /* \"#utility.yul\":4862:4865   */\n      0xe0\n        /* \"#utility.yul\":4851:4860   */\n      dup4\n        /* \"#utility.yul\":4847:4866   */\n      add\n        /* \"#utility.yul\":4838:4844   */\n      dup6\n        /* \"#utility.yul\":4794:4867   */\n      tag_177\n      jump\t// in\n    tag_270:\n        /* \"#utility.yul\":4877:4944   */\n      tag_271\n        /* \"#utility.yul\":4939:4942   */\n      0x0100\n        /* \"#utility.yul\":4928:4937   */\n      dup4\n        /* \"#utility.yul\":4924:4943   */\n      add\n        /* \"#utility.yul\":4915:4921   */\n      dup5\n        /* \"#utility.yul\":4877:4944   */\n      tag_189\n      jump\t// in\n    tag_271:\n        /* \"#utility.yul\":3855:4951   */\n      swap11\n      swap10\n      pop\n      pop\n      pop\n      pop\n      pop\n      pop\n      pop\n      pop\n      pop\n      pop\n      jump\t// out\n        /* \"#utility.yul\":4957:6014   */\n    tag_57:\n        /* \"#utility.yul\":5061:5067   */\n      0x00\n        /* \"#utility.yul\":5069:5075   */\n      dup1\n        /* \"#utility.yul\":5077:5083   */\n      0x00\n        /* \"#utility.yul\":5085:5091   */\n      dup1\n        /* \"#utility.yul\":5093:5099   */\n      0x00\n        /* \"#utility.yul\":5101:5107   */\n      dup1\n        /* \"#utility.yul\":5150:5153   */\n      0xc0\n        /* \"#utility.yul\":5138:5147   */\n      dup8\n        /* \"#utility.yul\":5129:5136   */\n      dup10\n        /* \"#utility.yul\":5125:5148   */\n      sub\n        /* \"#utility.yul\":5121:5154   */\n      slt\n        /* \"#utility.yul\":5118:5238   */\n      iszero\n      tag_273\n      jumpi\n        /* \"#utility.yul\":5157:5236   */\n      tag_274\n      tag_179\n      jump\t// in\n    tag_274:\n        /* \"#utility.yul\":5118:5238   */\n    tag_273:\n        /* \"#utility.yul\":5277:5278   */\n      0x00\n        /* \"#utility.yul\":5302:5355   */\n      tag_275\n        /* \"#utility.yul\":5347:5354   */\n      dup10\n        /* \"#utility.yul\":5338:5344   */\n      dup3\n        /* \"#utility.yul\":5327:5336   */\n      dup11\n        /* \"#utility.yul\":5323:5345   */\n      add\n        /* \"#utility.yul\":5302:5355   */\n      tag_187\n      jump\t// in\n    tag_275:\n        /* \"#utility.yul\":5292:5355   */\n      swap7\n      pop\n        /* \"#utility.yul\":5248:5365   */\n      pop\n        /* \"#utility.yul\":5404:5406   */\n      0x20\n        /* \"#utility.yul\":5430:5483   */\n      tag_276\n        /* \"#utility.yul\":5475:5482   */\n      dup10\n        /* \"#utility.yul\":5466:5472   */\n      dup3\n        /* \"#utility.yul\":5455:5464   */\n      dup11\n        /* \"#utility.yul\":5451:5473   */\n      add\n        /* \"#utility.yul\":5430:5483   */\n      tag_187\n      jump\t// in\n    tag_276:\n        /* \"#utility.yul\":5420:5483   */\n      swap6\n      pop\n        /* \"#utility.yul\":5375:5493   */\n      pop\n        /* \"#utility.yul\":5532:5534   */\n      0x40\n        /* \"#utility.yul\":5558:5611   */\n      tag_277\n        /* \"#utility.yul\":5603:5610   */\n      dup10\n        /* \"#utility.yul\":5594:5600   */\n      dup3\n        /* \"#utility.yul\":5583:5592   */\n      dup11\n        /* \"#utility.yul\":5579:5601   */\n      add\n        /* \"#utility.yul\":5558:5611   */\n      tag_182\n      jump\t// in\n    tag_277:\n        /* \"#utility.yul\":5548:5611   */\n      swap5\n      pop\n        /* \"#utility.yul\":5503:5621   */\n      pop\n        /* \"#utility.yul\":5660:5662   */\n      0x60\n        /* \"#utility.yul\":5686:5739   */\n      tag_278\n        /* \"#utility.yul\":5731:5738   */\n      dup10\n        /* \"#utility.yul\":5722:5728   */\n      dup3\n        /* \"#utility.yul\":5711:5720   */\n      dup11\n        /* \"#utility.yul\":5707:5729   */\n      add\n        /* \"#utility.yul\":5686:5739   */\n      tag_182\n      jump\t// in\n    tag_278:\n        /* \"#utility.yul\":5676:5739   */\n      swap4\n      pop\n        /* \"#utility.yul\":5631:5749   */\n      pop\n        /* \"#utility.yul\":5788:5791   */\n      0x80\n        /* \"#utility.yul\":5815:5868   */\n      tag_279\n        /* \"#utility.yul\":5860:5867   */\n      dup10\n        /* \"#utility.yul\":5851:5857   */\n      dup3\n        /* \"#utility.yul\":5840:5849   */\n      dup11\n        /* \"#utility.yul\":5836:5858   */\n      add\n        /* \"#utility.yul\":5815:5868   */\n      tag_182\n      jump\t// in\n    tag_279:\n        /* \"#utility.yul\":5805:5868   */\n      swap3\n      pop\n        /* \"#utility.yul\":5759:5878   */\n      pop\n        /* \"#utility.yul\":5917:5920   */\n      0xa0\n        /* \"#utility.yul\":5944:5997   */\n      tag_280\n        /* \"#utility.yul\":5989:5996   */\n      dup10\n        /* \"#utility.yul\":5980:5986   */\n      dup3\n        /* \"#utility.yul\":5969:5978   */\n      dup11\n        /* \"#utility.yul\":5965:5987   */\n      add\n        /* \"#utility.yul\":5944:5997   */\n      tag_182\n      jump\t// in\n    tag_280:\n        /* \"#utility.yul\":5934:5997   */\n      swap2\n      pop\n        /* \"#utility.yul\":5888:6007   */\n      pop\n        /* \"#utility.yul\":4957:6014   */\n      swap3\n      swap6\n      pop\n      swap3\n      swap6\n      pop\n      swap3\n      swap6\n      jump\t// out\n        /* \"#utility.yul\":6020:6189   */\n    tag_190:\n        /* \"#utility.yul\":6104:6115   */\n      0x00\n        /* \"#utility.yul\":6138:6144   */\n      dup3\n        /* \"#utility.yul\":6133:6136   */\n      dup3\n        /* \"#utility.yul\":6126:6145   */\n      mstore\n        /* \"#utility.yul\":6178:6182   */\n      0x20\n        /* \"#utility.yul\":6173:6176   */\n      dup3\n        /* \"#utility.yul\":6169:6183   */\n      add\n        /* \"#utility.yul\":6154:6183   */\n      swap1\n      pop\n        /* \"#utility.yul\":6020:6189   */\n      swap3\n      swap2\n      pop\n      pop\n      jump\t// out\n        /* \"#utility.yul\":6195:6359   */\n    tag_191:\n        /* \"#utility.yul\":6335:6351   */\n      0x4c414e3a206e6f74206f776e6572000000000000000000000000000000000000\n        /* \"#utility.yul\":6331:6332   */\n      0x00\n        /* \"#utility.yul\":6323:6329   */\n      dup3\n        /* \"#utility.yul\":6319:6333   */\n      add\n        /* \"#utility.yul\":6312:6352   */\n      mstore\n        /* \"#utility.yul\":6195:6359   */\n      pop\n      jump\t// out\n        /* \"#utility.yul\":6365:6731   */\n    tag_192:\n        /* \"#utility.yul\":6507:6510   */\n      0x00\n        /* \"#utility.yul\":6528:6595   */\n      tag_284\n        /* \"#utility.yul\":6592:6594   */\n      0x0e\n        /* \"#utility.yul\":6587:6590   */\n      dup4\n        /* \"#utility.yul\":6528:6595   */\n      tag_190\n      jump\t// in\n    tag_284:\n        /* \"#utility.yul\":6521:6595   */\n      swap2\n      pop\n        /* \"#utility.yul\":6604:6697   */\n      tag_285\n        /* \"#utility.yul\":6693:6696   */\n      dup3\n        /* \"#utility.yul\":6604:6697   */\n      tag_191\n      jump\t// in\n    tag_285:\n        /* \"#utility.yul\":6722:6724   */\n      0x20\n        /* \"#utility.yul\":6717:6720   */\n      dup3\n        /* \"#utility.yul\":6713:6725   */\n      add\n        /* \"#utility.yul\":6706:6725   */\n      swap1\n      pop\n        /* \"#utility.yul\":6365:6731   */\n      swap2\n      swap1\n      pop\n      jump\t// out\n        /* \"#utility.yul\":6737:7156   */\n    tag_62:\n        /* \"#utility.yul\":6903:6907   */\n      0x00\n        /* \"#utility.yul\":6941:6943   */\n      0x20\n        /* \"#utility.yul\":6930:6939   */\n      dup3\n        /* \"#utility.yul\":6926:6944   */\n      add\n        /* \"#utility.yul\":6918:6944   */\n      swap1\n      pop\n        /* \"#utility.yul\":6990:6999   */\n      dup2\n        /* \"#utility.yul\":6984:6988   */\n      dup2\n        /* \"#utility.yul\":6980:7000   */\n      sub\n        /* \"#utility.yul\":6976:6977   */\n      0x00\n        /* \"#utility.yul\":6965:6974   */\n      dup4\n        /* \"#utility.yul\":6961:6978   */\n      add\n        /* \"#utility.yul\":6954:7001   */\n      mstore\n        /* \"#utility.yul\":7018:7149   */\n      tag_287\n        /* \"#utility.yul\":7144:7148   */\n      dup2\n        /* \"#utility.yul\":7018:7149   */\n      tag_192\n      jump\t// in\n    tag_287:\n        /* \"#utility.yul\":7010:7149   */\n      swap1\n      pop\n        /* \"#utility.yul\":6737:7156   */\n      swap2\n      swap1\n      pop\n      jump\t// out\n        /* \"#utility.yul\":7162:7331   */\n    tag_193:\n        /* \"#utility.yul\":7302:7323   */\n      0x4c414e3a206c6f616e206e6f7420656e64656400000000000000000000000000\n        /* \"#utility.yul\":7298:7299   */\n      0x00\n        /* \"#utility.yul\":7290:7296   */\n      dup3\n        /* \"#utility.yul\":7286:7300   */\n      add\n        /* \"#utility.yul\":7279:7324   */\n      mstore\n        /* \"#utility.yul\":7162:7331   */\n      pop\n      jump\t// out\n        /* \"#utility.yul\":7337:7703   */\n    tag_194:\n        /* \"#utility.yul\":7479:7482   */\n      0x00\n        /* \"#utility.yul\":7500:7567   */\n      tag_290\n        /* \"#utility.yul\":7564:7566   */\n      0x13\n        /* \"#utility.yul\":7559:7562   */\n      dup4\n        /* \"#utility.yul\":7500:7567   */\n      tag_190\n      jump\t// in\n    tag_290:\n        /* \"#utility.yul\":7493:7567   */\n      swap2\n      pop\n        /* \"#utility.yul\":7576:7669   */\n      tag_291\n        /* \"#utility.yul\":7665:7668   */\n      dup3\n        /* \"#utility.yul\":7576:7669   */\n      tag_193\n      jump\t// in\n    tag_291:\n        /* \"#utility.yul\":7694:7696   */\n      0x20\n        /* \"#utility.yul\":7689:7692   */\n      dup3\n        /* \"#utility.yul\":7685:7697   */\n      add\n        /* \"#utility.yul\":7678:7697   */\n      swap1\n      pop\n        /* \"#utility.yul\":7337:7703   */\n      swap2\n      swap1\n      pop\n      jump\t// out\n        /* \"#utility.yul\":7709:8128   */\n    tag_68:\n        /* \"#utility.yul\":7875:7879   */\n      0x00\n        /* \"#utility.yul\":7913:7915   */\n      0x20\n        /* \"#utility.yul\":7902:7911   */\n      dup3\n        /* \"#utility.yul\":7898:7916   */\n      add\n        /* \"#utility.yul\":7890:7916   */\n      swap1\n      pop\n        /* \"#utility.yul\":7962:7971   */\n      dup2\n        /* \"#utility.yul\":7956:7960   */\n      dup2\n        /* \"#utility.yul\":7952:7972   */\n      sub\n        /* \"#utility.yul\":7948:7949   */\n      0x00\n        /* \"#utility.yul\":7937:7946   */\n      dup4\n        /* \"#utility.yul\":7933:7950   */\n      add\n        /* \"#utility.yul\":7926:7973   */\n      mstore\n        /* \"#utility.yul\":7990:8121   */\n      tag_293\n        /* \"#utility.yul\":8116:8120   */\n      dup2\n        /* \"#utility.yul\":7990:8121   */\n      tag_194\n      jump\t// in\n    tag_293:\n        /* \"#utility.yul\":7982:8121   */\n      swap1\n      pop\n        /* \"#utility.yul\":7709:8128   */\n      swap2\n      swap1\n      pop\n      jump\t// out\n        /* \"#utility.yul\":8134:8306   */\n    tag_195:\n        /* \"#utility.yul\":8274:8298   */\n      0x4c414e3a206e6f74206c61746573742062696464657200000000000000000000\n        /* \"#utility.yul\":8270:8271   */\n      0x00\n        /* \"#utility.yul\":8262:8268   */\n      dup3\n        /* \"#utility.yul\":8258:8272   */\n      add\n        /* \"#utility.yul\":8251:8299   */\n      mstore\n        /* \"#utility.yul\":8134:8306   */\n      pop\n      jump\t// out\n        /* \"#utility.yul\":8312:8678   */\n    tag_196:\n        /* \"#utility.yul\":8454:8457   */\n      0x00\n        /* \"#utility.yul\":8475:8542   */\n      tag_296\n        /* \"#utility.yul\":8539:8541   */\n      0x16\n        /* \"#utility.yul\":8534:8537   */\n      dup4\n        /* \"#utility.yul\":8475:8542   */\n      tag_190\n      jump\t// in\n    tag_296:\n        /* \"#utility.yul\":8468:8542   */\n      swap2\n      pop\n        /* \"#utility.yul\":8551:8644   */\n      tag_297\n        /* \"#utility.yul\":8640:8643   */\n      dup3\n        /* \"#utility.yul\":8551:8644   */\n      tag_195\n      jump\t// in\n    tag_297:\n        /* \"#utility.yul\":8669:8671   */\n      0x20\n        /* \"#utility.yul\":8664:8667   */\n      dup3\n        /* \"#utility.yul\":8660:8672   */\n      add\n        /* \"#utility.yul\":8653:8672   */\n      swap1\n      pop\n        /* \"#utility.yul\":8312:8678   */\n      swap2\n      swap1\n      pop\n      jump\t// out\n        /* \"#utility.yul\":8684:9103   */\n    tag_71:\n        /* \"#utility.yul\":8850:8854   */\n      0x00\n        /* \"#utility.yul\":8888:8890   */\n      0x20\n        /* \"#utility.yul\":8877:8886   */\n      dup3\n        /* \"#utility.yul\":8873:8891   */\n      add\n        /* \"#utility.yul\":8865:8891   */\n      swap1\n      pop\n        /* \"#utility.yul\":8937:8946   */\n      dup2\n        /* \"#utility.yul\":8931:8935   */\n      dup2\n        /* \"#utility.yul\":8927:8947   */\n      sub\n        /* \"#utility.yul\":8923:8924   */\n      0x00\n        /* \"#utility.yul\":8912:8921   */\n      dup4\n        /* \"#utility.yul\":8908:8925   */\n      add\n        /* \"#utility.yul\":8901:8948   */\n      mstore\n        /* \"#utility.yul\":8965:9096   */\n      tag_299\n        /* \"#utility.yul\":9091:9095   */\n      dup2\n        /* \"#utility.yul\":8965:9096   */\n      tag_196\n      jump\t// in\n    tag_299:\n        /* \"#utility.yul\":8957:9096   */\n      swap1\n      pop\n        /* \"#utility.yul\":8684:9103   */\n      swap2\n      swap1\n      pop\n      jump\t// out\n        /* \"#utility.yul\":9109:9551   */\n    tag_73:\n        /* \"#utility.yul\":9258:9262   */\n      0x00\n        /* \"#utility.yul\":9296:9298   */\n      0x60\n        /* \"#utility.yul\":9285:9294   */\n      dup3\n        /* \"#utility.yul\":9281:9299   */\n      add\n        /* \"#utility.yul\":9273:9299   */\n      swap1\n      pop\n        /* \"#utility.yul\":9309:9380   */\n      tag_301\n        /* \"#utility.yul\":9377:9378   */\n      0x00\n        /* \"#utility.yul\":9366:9375   */\n      dup4\n        /* \"#utility.yul\":9362:9379   */\n      add\n        /* \"#utility.yul\":9353:9359   */\n      dup7\n        /* \"#utility.yul\":9309:9380   */\n      tag_185\n      jump\t// in\n    tag_301:\n        /* \"#utility.yul\":9390:9462   */\n      tag_302\n        /* \"#utility.yul\":9458:9460   */\n      0x20\n        /* \"#utility.yul\":9447:9456   */\n      dup4\n        /* \"#utility.yul\":9443:9461   */\n      add\n        /* \"#utility.yul\":9434:9440   */\n      dup6\n        /* \"#utility.yul\":9390:9462   */\n      tag_185\n      jump\t// in\n    tag_302:\n        /* \"#utility.yul\":9472:9544   */\n      tag_303\n        /* \"#utility.yul\":9540:9542   */\n      0x40\n        /* \"#utility.yul\":9529:9538   */\n      dup4\n        /* \"#utility.yul\":9525:9543   */\n      add\n        /* \"#utility.yul\":9516:9522   */\n      dup5\n        /* \"#utility.yul\":9472:9544   */\n      tag_177\n      jump\t// in\n    tag_303:\n        /* \"#utility.yul\":9109:9551   */\n      swap5\n      swap4\n      pop\n      pop\n      pop\n      pop\n      jump\t// out\n        /* \"#utility.yul\":9557:9727   */\n    tag_197:\n        /* \"#utility.yul\":9697:9719   */\n      0x4c414e3a20616c72656164792073746172746564000000000000000000000000\n        /* \"#utility.yul\":9693:9694   */\n      0x00\n        /* \"#utility.yul\":9685:9691   */\n      dup3\n        /* \"#utility.yul\":9681:9695   */\n      add\n        /* \"#utility.yul\":9674:9720   */\n      mstore\n        /* \"#utility.yul\":9557:9727   */\n      pop\n      jump\t// out\n        /* \"#utility.yul\":9733:10099   */\n    tag_198:\n        /* \"#utility.yul\":9875:9878   */\n      0x00\n        /* \"#utility.yul\":9896:9963   */\n      tag_306\n        /* \"#utility.yul\":9960:9962   */\n      0x14\n        /* \"#utility.yul\":9955:9958   */\n      dup4\n        /* \"#utility.yul\":9896:9963   */\n      tag_190\n      jump\t// in\n    tag_306:\n        /* \"#utility.yul\":9889:9963   */\n      swap2\n      pop\n        /* \"#utility.yul\":9972:10065   */\n      tag_307\n        /* \"#utility.yul\":10061:10064   */\n      dup3\n        /* \"#utility.yul\":9972:10065   */\n      tag_197\n      jump\t// in\n    tag_307:\n        /* \"#utility.yul\":10090:10092   */\n      0x20\n        /* \"#utility.yul\":10085:10088   */\n      dup3\n        /* \"#utility.yul\":10081:10093   */\n      add\n        /* \"#utility.yul\":10074:10093   */\n      swap1\n      pop\n        /* \"#utility.yul\":9733:10099   */\n      swap2\n      swap1\n      pop\n      jump\t// out\n        /* \"#utility.yul\":10105:10524   */\n    tag_83:\n        /* \"#utility.yul\":10271:10275   */\n      0x00\n        /* \"#utility.yul\":10309:10311   */\n      0x20\n        /* \"#utility.yul\":10298:10307   */\n      dup3\n        /* \"#utility.yul\":10294:10312   */\n      add\n        /* \"#utility.yul\":10286:10312   */\n      swap1\n      pop\n        /* \"#utility.yul\":10358:10367   */\n      dup2\n        /* \"#utility.yul\":10352:10356   */\n      dup2\n        /* \"#utility.yul\":10348:10368   */\n      sub\n        /* \"#utility.yul\":10344:10345   */\n      0x00\n        /* \"#utility.yul\":10333:10342   */\n      dup4\n        /* \"#utility.yul\":10329:10346   */\n      add\n        /* \"#utility.yul\":10322:10369   */\n      mstore\n        /* \"#utility.yul\":10386:10517   */\n      tag_309\n        /* \"#utility.yul\":10512:10516   */\n      dup2\n        /* \"#utility.yul\":10386:10517   */\n      tag_198\n      jump\t// in\n    tag_309:\n        /* \"#utility.yul\":10378:10517   */\n      swap1\n      pop\n        /* \"#utility.yul\":10105:10524   */\n      swap2\n      swap1\n      pop\n      jump\t// out\n        /* \"#utility.yul\":10530:10696   */\n    tag_199:\n        /* \"#utility.yul\":10670:10688   */\n      0x4c414e3a206e6f74207374617274656400000000000000000000000000000000\n        /* \"#utility.yul\":10666:10667   */\n      0x00\n        /* \"#utility.yul\":10658:10664   */\n      dup3\n        /* \"#utility.yul\":10654:10668   */\n      add\n        /* \"#utility.yul\":10647:10689   */\n      mstore\n        /* \"#utility.yul\":10530:10696   */\n      pop\n      jump\t// out\n        /* \"#utility.yul\":10702:11068   */\n    tag_200:\n        /* \"#utility.yul\":10844:10847   */\n      0x00\n        /* \"#utility.yul\":10865:10932   */\n      tag_312\n        /* \"#utility.yul\":10929:10931   */\n      0x10\n        /* \"#utility.yul\":10924:10927   */\n      dup4\n        /* \"#utility.yul\":10865:10932   */\n      tag_190\n      jump\t// in\n    tag_312:\n        /* \"#utility.yul\":10858:10932   */\n      swap2\n      pop\n        /* \"#utility.yul\":10941:11034   */\n      tag_313\n        /* \"#utility.yul\":11030:11033   */\n      dup3\n        /* \"#utility.yul\":10941:11034   */\n      tag_199\n      jump\t// in\n    tag_313:\n        /* \"#utility.yul\":11059:11061   */\n      0x20\n        /* \"#utility.yul\":11054:11057   */\n      dup3\n        /* \"#utility.yul\":11050:11062   */\n      add\n        /* \"#utility.yul\":11043:11062   */\n      swap1\n      pop\n        /* \"#utility.yul\":10702:11068   */\n      swap2\n      swap1\n      pop\n      jump\t// out\n        /* \"#utility.yul\":11074:11493   */\n    tag_102:\n        /* \"#utility.yul\":11240:11244   */\n      0x00\n        /* \"#utility.yul\":11278:11280   */\n      0x20\n        /* \"#utility.yul\":11267:11276   */\n      dup3\n        /* \"#utility.yul\":11263:11281   */\n      add\n        /* \"#utility.yul\":11255:11281   */\n      swap1\n      pop\n        /* \"#utility.yul\":11327:11336   */\n      dup2\n        /* \"#utility.yul\":11321:11325   */\n      dup2\n        /* \"#utility.yul\":11317:11337   */\n      sub\n        /* \"#utility.yul\":11313:11314   */\n      0x00\n        /* \"#utility.yul\":11302:11311   */\n      dup4\n        /* \"#utility.yul\":11298:11315   */\n      add\n        /* \"#utility.yul\":11291:11338   */\n      mstore\n        /* \"#utility.yul\":11355:11486   */\n      tag_315\n        /* \"#utility.yul\":11481:11485   */\n      dup2\n        /* \"#utility.yul\":11355:11486   */\n      tag_200\n      jump\t// in\n    tag_315:\n        /* \"#utility.yul\":11347:11486   */\n      swap1\n      pop\n        /* \"#utility.yul\":11074:11493   */\n      swap2\n      swap1\n      pop\n      jump\t// out\n        /* \"#utility.yul\":11499:11667   */\n    tag_201:\n        /* \"#utility.yul\":11639:11659   */\n      0x4c414e3a20616c726561647920656e6465640000000000000000000000000000\n        /* \"#utility.yul\":11635:11636   */\n      0x00\n        /* \"#utility.yul\":11627:11633   */\n      dup3\n        /* \"#utility.yul\":11623:11637   */\n      add\n        /* \"#utility.yul\":11616:11660   */\n      mstore\n        /* \"#utility.yul\":11499:11667   */\n      pop\n      jump\t// out\n        /* \"#utility.yul\":11673:12039   */\n    tag_202:\n        /* \"#utility.yul\":11815:11818   */\n      0x00\n        /* \"#utility.yul\":11836:11903   */\n      tag_318\n        /* \"#utility.yul\":11900:11902   */\n      0x12\n        /* \"#utility.yul\":11895:11898   */\n      dup4\n        /* \"#utility.yul\":11836:11903   */\n      tag_190\n      jump\t// in\n    tag_318:\n        /* \"#utility.yul\":11829:11903   */\n      swap2\n      pop\n        /* \"#utility.yul\":11912:12005   */\n      tag_319\n        /* \"#utility.yul\":12001:12004   */\n      dup3\n        /* \"#utility.yul\":11912:12005   */\n      tag_201\n      jump\t// in\n    tag_319:\n        /* \"#utility.yul\":12030:12032   */\n      0x20\n        /* \"#utility.yul\":12025:12028   */\n      dup3\n        /* \"#utility.yul\":12021:12033   */\n      add\n        /* \"#utility.yul\":12014:12033   */\n      swap1\n      pop\n        /* \"#utility.yul\":11673:12039   */\n      swap2\n      swap1\n      pop\n      jump\t// out\n        /* \"#utility.yul\":12045:12464   */\n    tag_106:\n        /* \"#utility.yul\":12211:12215   */\n      0x00\n        /* \"#utility.yul\":12249:12251   */\n      0x20\n        /* \"#utility.yul\":12238:12247   */\n      dup3\n        /* \"#utility.yul\":12234:12252   */\n      add\n        /* \"#utility.yul\":12226:12252   */\n      swap1\n      pop\n        /* \"#utility.yul\":12298:12307   */\n      dup2\n        /* \"#utility.yul\":12292:12296   */\n      dup2\n        /* \"#utility.yul\":12288:12308   */\n      sub\n        /* \"#utility.yul\":12284:12285   */\n      0x00\n        /* \"#utility.yul\":12273:12282   */\n      dup4\n        /* \"#utility.yul\":12269:12286   */\n      add\n        /* \"#utility.yul\":12262:12309   */\n      mstore\n        /* \"#utility.yul\":12326:12457   */\n      tag_321\n        /* \"#utility.yul\":12452:12456   */\n      dup2\n        /* \"#utility.yul\":12326:12457   */\n      tag_202\n      jump\t// in\n    tag_321:\n        /* \"#utility.yul\":12318:12457   */\n      swap1\n      pop\n        /* \"#utility.yul\":12045:12464   */\n      swap2\n      swap1\n      pop\n      jump\t// out\n        /* \"#utility.yul\":12470:12650   */\n    tag_203:\n        /* \"#utility.yul\":12518:12595   */\n      0x4e487b7100000000000000000000000000000000000000000000000000000000\n        /* \"#utility.yul\":12515:12516   */\n      0x00\n        /* \"#utility.yul\":12508:12596   */\n      mstore\n        /* \"#utility.yul\":12615:12619   */\n      0x11\n        /* \"#utility.yul\":12612:12613   */\n      0x04\n        /* \"#utility.yul\":12605:12620   */\n      mstore\n        /* \"#utility.yul\":12639:12643   */\n      0x24\n        /* \"#utility.yul\":12636:12637   */\n      0x00\n        /* \"#utility.yul\":12629:12644   */\n      revert\n        /* \"#utility.yul\":12656:12847   */\n    tag_108:\n        /* \"#utility.yul\":12696:12699   */\n      0x00\n        /* \"#utility.yul\":12715:12735   */\n      tag_324\n        /* \"#utility.yul\":12733:12734   */\n      dup3\n        /* \"#utility.yul\":12715:12735   */\n      tag_176\n      jump\t// in\n    tag_324:\n        /* \"#utility.yul\":12710:12735   */\n      swap2\n      pop\n        /* \"#utility.yul\":12749:12769   */\n      tag_325\n        /* \"#utility.yul\":12767:12768   */\n      dup4\n        /* \"#utility.yul\":12749:12769   */\n      tag_176\n      jump\t// in\n    tag_325:\n        /* \"#utility.yul\":12744:12769   */\n      swap3\n      pop\n        /* \"#utility.yul\":12792:12793   */\n      dup3\n        /* \"#utility.yul\":12789:12790   */\n      dup3\n        /* \"#utility.yul\":12785:12794   */\n      add\n        /* \"#utility.yul\":12778:12794   */\n      swap1\n      pop\n        /* \"#utility.yul\":12813:12816   */\n      dup1\n        /* \"#utility.yul\":12810:12811   */\n      dup3\n        /* \"#utility.yul\":12807:12817   */\n      gt\n        /* \"#utility.yul\":12804:12840   */\n      iszero\n      tag_326\n      jumpi\n        /* \"#utility.yul\":12820:12838   */\n      tag_327\n      tag_203\n      jump\t// in\n    tag_327:\n        /* \"#utility.yul\":12804:12840   */\n    tag_326:\n        /* \"#utility.yul\":12656:12847   */\n      swap3\n      swap2\n      pop\n      pop\n      jump\t// out\n        /* \"#utility.yul\":12853:13022   */\n    tag_204:\n        /* \"#utility.yul\":12993:13014   */\n      0x4c414e3a20626964206e6f742068696768657200000000000000000000000000\n        /* \"#utility.yul\":12989:12990   */\n      0x00\n        /* \"#utility.yul\":12981:12987   */\n      dup3\n        /* \"#utility.yul\":12977:12991   */\n      add\n        /* \"#utility.yul\":12970:13015   */\n      mstore\n        /* \"#utility.yul\":12853:13022   */\n      pop\n      jump\t// out\n        /* \"#utility.yul\":13028:13394   */\n    tag_205:\n        /* \"#utility.yul\":13170:13173   */\n      0x00\n        /* \"#utility.yul\":13191:13258   */\n      tag_330\n        /* \"#utility.yul\":13255:13257   */\n      0x13\n        /* \"#utility.yul\":13250:13253   */\n      dup4\n        /* \"#utility.yul\":13191:13258   */\n      tag_190\n      jump\t// in\n    tag_330:\n        /* \"#utility.yul\":13184:13258   */\n      swap2\n      pop\n        /* \"#utility.yul\":13267:13360   */\n      tag_331\n        /* \"#utility.yul\":13356:13359   */\n      dup3\n        /* \"#utility.yul\":13267:13360   */\n      tag_204\n      jump\t// in\n    tag_331:\n        /* \"#utility.yul\":13385:13387   */\n      0x20\n        /* \"#utility.yul\":13380:13383   */\n      dup3\n        /* \"#utility.yul\":13376:13388   */\n      add\n        /* \"#utility.yul\":13369:13388   */\n      swap1\n      pop\n        /* \"#utility.yul\":13028:13394   */\n      swap2\n      swap1\n      pop\n      jump\t// out\n        /* \"#utility.yul\":13400:13819   */\n    tag_113:\n        /* \"#utility.yul\":13566:13570   */\n      0x00\n        /* \"#utility.yul\":13604:13606   */\n      0x20\n        /* \"#utility.yul\":13593:13602   */\n      dup3\n        /* \"#utility.yul\":13589:13607   */\n      add\n        /* \"#utility.yul\":13581:13607   */\n      swap1\n      pop\n        /* \"#utility.yul\":13653:13662   */\n      dup2\n        /* \"#utility.yul\":13647:13651   */\n      dup2\n        /* \"#utility.yul\":13643:13663   */\n      sub\n        /* \"#utility.yul\":13639:13640   */\n      0x00\n        /* \"#utility.yul\":13628:13637   */\n      dup4\n        /* \"#utility.yul\":13624:13641   */\n      add\n        /* \"#utility.yul\":13617:13664   */\n      mstore\n        /* \"#utility.yul\":13681:13812   */\n      tag_333\n        /* \"#utility.yul\":13807:13811   */\n      dup2\n        /* \"#utility.yul\":13681:13812   */\n      tag_205\n      jump\t// in\n    tag_333:\n        /* \"#utility.yul\":13673:13812   */\n      swap1\n      pop\n        /* \"#utility.yul\":13400:13819   */\n      swap2\n      swap1\n      pop\n      jump\t// out\n        /* \"#utility.yul\":13825:13941   */\n    tag_206:\n        /* \"#utility.yul\":13895:13916   */\n      tag_335\n        /* \"#utility.yul\":13910:13915   */\n      dup2\n        /* \"#utility.yul\":13895:13916   */\n      tag_188\n      jump\t// in\n    tag_335:\n        /* \"#utility.yul\":13888:13893   */\n      dup2\n        /* \"#utility.yul\":13885:13917   */\n      eq\n        /* \"#utility.yul\":13875:13935   */\n      tag_336\n      jumpi\n        /* \"#utility.yul\":13931:13932   */\n      0x00\n        /* \"#utility.yul\":13928:13929   */\n      dup1\n        /* \"#utility.yul\":13921:13933   */\n      revert\n        /* \"#utility.yul\":13875:13935   */\n    tag_336:\n        /* \"#utility.yul\":13825:13941   */\n      pop\n      jump\t// out\n        /* \"#utility.yul\":13947:14084   */\n    tag_207:\n        /* \"#utility.yul\":14001:14006   */\n      0x00\n        /* \"#utility.yul\":14032:14038   */\n      dup2\n        /* \"#utility.yul\":14026:14039   */\n      mload\n        /* \"#utility.yul\":14017:14039   */\n      swap1\n      pop\n        /* \"#utility.yul\":14048:14078   */\n      tag_338\n        /* \"#utility.yul\":14072:14077   */\n      dup2\n        /* \"#utility.yul\":14048:14078   */\n      tag_206\n      jump\t// in\n    tag_338:\n        /* \"#utility.yul\":13947:14084   */\n      swap3\n      swap2\n      pop\n      pop\n      jump\t// out\n        /* \"#utility.yul\":14090:14435   */\n    tag_118:\n        /* \"#utility.yul\":14157:14163   */\n      0x00\n        /* \"#utility.yul\":14206:14208   */\n      0x20\n        /* \"#utility.yul\":14194:14203   */\n      dup3\n        /* \"#utility.yul\":14185:14192   */\n      dup5\n        /* \"#utility.yul\":14181:14204   */\n      sub\n        /* \"#utility.yul\":14177:14209   */\n      slt\n        /* \"#utility.yul\":14174:14293   */\n      iszero\n      tag_340\n      jumpi\n        /* \"#utility.yul\":14212:14291   */\n      tag_341\n      tag_179\n      jump\t// in\n    tag_341:\n        /* \"#utility.yul\":14174:14293   */\n    tag_340:\n        /* \"#utility.yul\":14332:14333   */\n      0x00\n        /* \"#utility.yul\":14357:14418   */\n      tag_342\n        /* \"#utility.yul\":14410:14417   */\n      dup5\n        /* \"#utility.yul\":14401:14407   */\n      dup3\n        /* \"#utility.yul\":14390:14399   */\n      dup6\n        /* \"#utility.yul\":14386:14408   */\n      add\n        /* \"#utility.yul\":14357:14418   */\n      tag_207\n      jump\t// in\n    tag_342:\n        /* \"#utility.yul\":14347:14418   */\n      swap2\n      pop\n        /* \"#utility.yul\":14303:14428   */\n      pop\n        /* \"#utility.yul\":14090:14435   */\n      swap3\n      swap2\n      pop\n      pop\n      jump\t// out\n        /* \"#utility.yul\":14441:14635   */\n    tag_120:\n        /* \"#utility.yul\":14481:14485   */\n      0x00\n        /* \"#utility.yul\":14501:14521   */\n      tag_344\n        /* \"#utility.yul\":14519:14520   */\n      dup3\n        /* \"#utility.yul\":14501:14521   */\n      tag_176\n      jump\t// in\n    tag_344:\n        /* \"#utility.yul\":14496:14521   */\n      swap2\n      pop\n        /* \"#utility.yul\":14535:14555   */\n      tag_345\n        /* \"#utility.yul\":14553:14554   */\n      dup4\n        /* \"#utility.yul\":14535:14555   */\n      tag_176\n      jump\t// in\n    tag_345:\n        /* \"#utility.yul\":14530:14555   */\n      swap3\n      pop\n        /* \"#utility.yul\":14579:14580   */\n      dup3\n        /* \"#utility.yul\":14576:14577   */\n      dup3\n        /* \"#utility.yul\":14572:14581   */\n      sub\n        /* \"#utility.yul\":14564:14581   */\n      swap1\n      pop\n        /* \"#utility.yul\":14603:14604   */\n      dup2\n        /* \"#utility.yul\":14597:14601   */\n      dup2\n        /* \"#utility.yul\":14594:14605   */\n      gt\n        /* \"#utility.yul\":14591:14628   */\n      iszero\n      tag_346\n      jumpi\n        /* \"#utility.yul\":14608:14626   */\n      tag_347\n      tag_203\n      jump\t// in\n    tag_347:\n        /* \"#utility.yul\":14591:14628   */\n    tag_346:\n        /* \"#utility.yul\":14441:14635   */\n      swap3\n      swap2\n      pop\n      pop\n      jump\t// out\n        /* \"#utility.yul\":14641:14817   */\n    tag_208:\n        /* \"#utility.yul\":14781:14809   */\n      0x4c414e3a204e6f7420746865206c617465737420626964646572000000000000\n        /* \"#utility.yul\":14777:14778   */\n      0x00\n        /* \"#utility.yul\":14769:14775   */\n      dup3\n        /* \"#utility.yul\":14765:14779   */\n      add\n        /* \"#utility.yul\":14758:14810   */\n      mstore\n        /* \"#utility.yul\":14641:14817   */\n      pop\n      jump\t// out\n        /* \"#utility.yul\":14823:15189   */\n    tag_209:\n        /* \"#utility.yul\":14965:14968   */\n      0x00\n        /* \"#utility.yul\":14986:15053   */\n      tag_350\n        /* \"#utility.yul\":15050:15052   */\n      0x1a\n        /* \"#utility.yul\":15045:15048   */\n      dup4\n        /* \"#utility.yul\":14986:15053   */\n      tag_190\n      jump\t// in\n    tag_350:\n        /* \"#utility.yul\":14979:15053   */\n      swap2\n      pop\n        /* \"#utility.yul\":15062:15155   */\n      tag_351\n        /* \"#utility.yul\":15151:15154   */\n      dup3\n        /* \"#utility.yul\":15062:15155   */\n      tag_208\n      jump\t// in\n    tag_351:\n        /* \"#utility.yul\":15180:15182   */\n      0x20\n        /* \"#utility.yul\":15175:15178   */\n      dup3\n        /* \"#utility.yul\":15171:15183   */\n      add\n        /* \"#utility.yul\":15164:15183   */\n      swap1\n      pop\n        /* \"#utility.yul\":14823:15189   */\n      swap2\n      swap1\n      pop\n      jump\t// out\n        /* \"#utility.yul\":15195:15614   */\n    tag_147:\n        /* \"#utility.yul\":15361:15365   */\n      0x00\n        /* \"#utility.yul\":15399:15401   */\n      0x20\n        /* \"#utility.yul\":15388:15397   */\n      dup3\n        /* \"#utility.yul\":15384:15402   */\n      add\n        /* \"#utility.yul\":15376:15402   */\n      swap1\n      pop\n        /* \"#utility.yul\":15448:15457   */\n      dup2\n        /* \"#utility.yul\":15442:15446   */\n      dup2\n        /* \"#utility.yul\":15438:15458   */\n      sub\n        /* \"#utility.yul\":15434:15435   */\n      0x00\n        /* \"#utility.yul\":15423:15432   */\n      dup4\n        /* \"#utility.yul\":15419:15436   */\n      add\n        /* \"#utility.yul\":15412:15459   */\n      mstore\n        /* \"#utility.yul\":15476:15607   */\n      tag_353\n        /* \"#utility.yul\":15602:15606   */\n      dup2\n        /* \"#utility.yul\":15476:15607   */\n      tag_209\n      jump\t// in\n    tag_353:\n        /* \"#utility.yul\":15468:15607   */\n      swap1\n      pop\n        /* \"#utility.yul\":15195:15614   */\n      swap2\n      swap1\n      pop\n      jump\t// out\n        /* \"#utility.yul\":15620:15793   */\n    tag_210:\n        /* \"#utility.yul\":15760:15785   */\n      0x4c414e3a2073746172742074696d6520696e2070617374000000000000000000\n        /* \"#utility.yul\":15756:15757   */\n      0x00\n        /* \"#utility.yul\":15748:15754   */\n      dup3\n        /* \"#utility.yul\":15744:15758   */\n      add\n        /* \"#utility.yul\":15737:15786   */\n      mstore\n        /* \"#utility.yul\":15620:15793   */\n      pop\n      jump\t// out\n        /* \"#utility.yul\":15799:16165   */\n    tag_211:\n        /* \"#utility.yul\":15941:15944   */\n      0x00\n        /* \"#utility.yul\":15962:16029   */\n      tag_356\n        /* \"#utility.yul\":16026:16028   */\n      0x17\n        /* \"#utility.yul\":16021:16024   */\n      dup4\n        /* \"#utility.yul\":15962:16029   */\n      tag_190\n      jump\t// in\n    tag_356:\n        /* \"#utility.yul\":15955:16029   */\n      swap2\n      pop\n        /* \"#utility.yul\":16038:16131   */\n      tag_357\n        /* \"#utility.yul\":16127:16130   */\n      dup3\n        /* \"#utility.yul\":16038:16131   */\n      tag_210\n      jump\t// in\n    tag_357:\n        /* \"#utility.yul\":16156:16158   */\n      0x20\n        /* \"#utility.yul\":16151:16154   */\n      dup3\n        /* \"#utility.yul\":16147:16159   */\n      add\n        /* \"#utility.yul\":16140:16159   */\n      swap1\n      pop\n        /* \"#utility.yul\":15799:16165   */\n      swap2\n      swap1\n      pop\n      jump\t// out\n        /* \"#utility.yul\":16171:16590   */\n    tag_153:\n        /* \"#utility.yul\":16337:16341   */\n      0x00\n        /* \"#utility.yul\":16375:16377   */\n      0x20\n        /* \"#utility.yul\":16364:16373   */\n      dup3\n        /* \"#utility.yul\":16360:16378   */\n      add\n        /* \"#utility.yul\":16352:16378   */\n      swap1\n      pop\n        /* \"#utility.yul\":16424:16433   */\n      dup2\n        /* \"#utility.yul\":16418:16422   */\n      dup2\n        /* \"#utility.yul\":16414:16434   */\n      sub\n        /* \"#utility.yul\":16410:16411   */\n      0x00\n        /* \"#utility.yul\":16399:16408   */\n      dup4\n        /* \"#utility.yul\":16395:16412   */\n      add\n        /* \"#utility.yul\":16388:16435   */\n      mstore\n        /* \"#utility.yul\":16452:16583   */\n      tag_359\n        /* \"#utility.yul\":16578:16582   */\n      dup2\n        /* \"#utility.yul\":16452:16583   */\n      tag_211\n      jump\t// in\n    tag_359:\n        /* \"#utility.yul\":16444:16583   */\n      swap1\n      pop\n        /* \"#utility.yul\":16171:16590   */\n      swap2\n      swap1\n      pop\n      jump\t// out\n        /* \"#utility.yul\":16596:16766   */\n    tag_212:\n        /* \"#utility.yul\":16736:16758   */\n      0x4c414e3a20737461727420616674657220656e64000000000000000000000000\n        /* \"#utility.yul\":16732:16733   */\n      0x00\n        /* \"#utility.yul\":16724:16730   */\n      dup3\n        /* \"#utility.yul\":16720:16734   */\n      add\n        /* \"#utility.yul\":16713:16759   */\n      mstore\n        /* \"#utility.yul\":16596:16766   */\n      pop\n      jump\t// out\n        /* \"#utility.yul\":16772:17138   */\n    tag_213:\n        /* \"#utility.yul\":16914:16917   */\n      0x00\n        /* \"#utility.yul\":16935:17002   */\n      tag_362\n        /* \"#utility.yul\":16999:17001   */\n      0x14\n        /* \"#utility.yul\":16994:16997   */\n      dup4\n        /* \"#utility.yul\":16935:17002   */\n      tag_190\n      jump\t// in\n    tag_362:\n        /* \"#utility.yul\":16928:17002   */\n      swap2\n      pop\n        /* \"#utility.yul\":17011:17104   */\n      tag_363\n        /* \"#utility.yul\":17100:17103   */\n      dup3\n        /* \"#utility.yul\":17011:17104   */\n      tag_212\n      jump\t// in\n    tag_363:\n        /* \"#utility.yul\":17129:17131   */\n      0x20\n        /* \"#utility.yul\":17124:17127   */\n      dup3\n        /* \"#utility.yul\":17120:17132   */\n      add\n        /* \"#utility.yul\":17113:17132   */\n      swap1\n      pop\n        /* \"#utility.yul\":16772:17138   */\n      swap2\n      swap1\n      pop\n      jump\t// out\n        /* \"#utility.yul\":17144:17563   */\n    tag_156:\n        /* \"#utility.yul\":17310:17314   */\n      0x00\n        /* \"#utility.yul\":17348:17350   */\n      0x20\n        /* \"#utility.yul\":17337:17346   */\n      dup3\n        /* \"#utility.yul\":17333:17351   */\n      add\n        /* \"#utility.yul\":17325:17351   */\n      swap1\n      pop\n        /* \"#utility.yul\":17397:17406   */\n      dup2\n        /* \"#utility.yul\":17391:17395   */\n      dup2\n        /* \"#utility.yul\":17387:17407   */\n      sub\n        /* \"#utility.yul\":17383:17384   */\n      0x00\n        /* \"#utility.yul\":17372:17381   */\n      dup4\n        /* \"#utility.yul\":17368:17385   */\n      add\n        /* \"#utility.yul\":17361:17408   */\n      mstore\n        /* \"#utility.yul\":17425:17556   */\n      tag_365\n        /* \"#utility.yul\":17551:17555   */\n      dup2\n        /* \"#utility.yul\":17425:17556   */\n      tag_213\n      jump\t// in\n    tag_365:\n        /* \"#utility.yul\":17417:17556   */\n      swap1\n      pop\n        /* \"#utility.yul\":17144:17563   */\n      swap2\n      swap1\n      pop\n      jump\t// out\n        /* \"#utility.yul\":17569:17901   */\n    tag_158:\n        /* \"#utility.yul\":17690:17694   */\n      0x00\n        /* \"#utility.yul\":17728:17730   */\n      0x40\n        /* \"#utility.yul\":17717:17726   */\n      dup3\n        /* \"#utility.yul\":17713:17731   */\n      add\n        /* \"#utility.yul\":17705:17731   */\n      swap1\n      pop\n        /* \"#utility.yul\":17741:17812   */\n      tag_367\n        /* \"#utility.yul\":17809:17810   */\n      0x00\n        /* \"#utility.yul\":17798:17807   */\n      dup4\n        /* \"#utility.yul\":17794:17811   */\n      add\n        /* \"#utility.yul\":17785:17791   */\n      dup6\n        /* \"#utility.yul\":17741:17812   */\n      tag_185\n      jump\t// in\n    tag_367:\n        /* \"#utility.yul\":17822:17894   */\n      tag_368\n        /* \"#utility.yul\":17890:17892   */\n      0x20\n        /* \"#utility.yul\":17879:17888   */\n      dup4\n        /* \"#utility.yul\":17875:17893   */\n      add\n        /* \"#utility.yul\":17866:17872   */\n      dup5\n        /* \"#utility.yul\":17822:17894   */\n      tag_177\n      jump\t// in\n    tag_368:\n        /* \"#utility.yul\":17569:17901   */\n      swap4\n      swap3\n      pop\n      pop\n      pop\n      jump\t// out\n        /* \"#utility.yul\":17907:18140   */\n    tag_160:\n        /* \"#utility.yul\":17946:17949   */\n      0x00\n        /* \"#utility.yul\":17969:17993   */\n      tag_370\n        /* \"#utility.yul\":17987:17992   */\n      dup3\n        /* \"#utility.yul\":17969:17993   */\n      tag_176\n      jump\t// in\n    tag_370:\n        /* \"#utility.yul\":17960:17993   */\n      swap2\n      pop\n        /* \"#utility.yul\":18015:18081   */\n      0xffffffffffffffffffffffffffffffffffffffffffffffffffffffffffffffff\n        /* \"#utility.yul\":18008:18013   */\n      dup3\n        /* \"#utility.yul\":18005:18082   */\n      sub\n        /* \"#utility.yul\":18002:18105   */\n      tag_371\n      jumpi\n        /* \"#utility.yul\":18085:18103   */\n      tag_372\n      tag_203\n      jump\t// in\n    tag_372:\n        /* \"#utility.yul\":18002:18105   */\n    tag_371:\n        /* \"#utility.yul\":18132:18133   */\n      0x01\n        /* \"#utility.yul\":18125:18130   */\n      dup3\n        /* \"#utility.yul\":18121:18134   */\n      add\n        /* \"#utility.yul\":18114:18134   */\n      swap1\n      pop\n        /* \"#utility.yul\":17907:18140   */\n      swap2\n      swap1\n      pop\n      jump\t// out\n        /* \"#utility.yul\":18146:18494   */\n    tag_170:\n        /* \"#utility.yul\":18186:18193   */\n      0x00\n        /* \"#utility.yul\":18209:18229   */\n      tag_374\n        /* \"#utility.yul\":18227:18228   */\n      dup3\n        /* \"#utility.yul\":18209:18229   */\n      tag_176\n      jump\t// in\n    tag_374:\n        /* \"#utility.yul\":18204:18229   */\n      swap2\n      pop\n        /* \"#utility.yul\":18243:18263   */\n      tag_375\n        /* \"#utility.yul\":18261:18262   */\n      dup4\n        /* \"#utility.yul\":18243:18263   */\n      tag_176\n      jump\t// in\n    tag_375:\n        /* \"#utility.yul\":18238:18263   */\n      swap3\n      pop\n        /* \"#utility.yul\":18431:18432   */\n      dup2\n        /* \"#utility.yul\":18363:18429   */\n      0xffffffffffffffffffffffffffffffffffffffffffffffffffffffffffffffff\n        /* \"#utility.yul\":18359:18433   */\n      div\n        /* \"#utility.yul\":18356:18357   */\n      dup4\n        /* \"#utility.yul\":18353:18434   */\n      gt\n        /* \"#utility.yul\":18348:18349   */\n      dup3\n        /* \"#utility.yul\":18341:18350   */\n      iszero\n        /* \"#utility.yul\":18334:18351   */\n      iszero\n        /* \"#utility.yul\":18330:18435   */\n      and\n        /* \"#utility.yul\":18327:18458   */\n      iszero\n      tag_376\n      jumpi\n        /* \"#utility.yul\":18438:18456   */\n      tag_377\n      tag_203\n      jump\t// in\n    tag_377:\n        /* \"#utility.yul\":18327:18458   */\n    tag_376:\n        /* \"#utility.yul\":18486:18487   */\n      dup3\n        /* \"#utility.yul\":18483:18484   */\n      dup3\n        /* \"#utility.yul\":18479:18488   */\n      mul\n        /* \"#utility.yul\":18468:18488   */\n      swap1\n      pop\n        /* \"#utility.yul\":18146:18494   */\n      swap3\n      swap2\n      pop\n      pop\n      jump\t// out\n        /* \"#utility.yul\":18500:18680   */\n    tag_214:\n        /* \"#utility.yul\":18548:18625   */\n      0x4e487b7100000000000000000000000000000000000000000000000000000000\n        /* \"#utility.yul\":18545:18546   */\n      0x00\n        /* \"#utility.yul\":18538:18626   */\n      mstore\n        /* \"#utility.yul\":18645:18649   */\n      0x12\n        /* \"#utility.yul\":18642:18643   */\n      0x04\n        /* \"#utility.yul\":18635:18650   */\n      mstore\n        /* \"#utility.yul\":18669:18673   */\n      0x24\n        /* \"#utility.yul\":18666:18667   */\n      0x00\n        /* \"#utility.yul\":18659:18674   */\n      revert\n        /* \"#utility.yul\":18686:18871   */\n    tag_172:\n        /* \"#utility.yul\":18726:18727   */\n      0x00\n        /* \"#utility.yul\":18743:18763   */\n      tag_380\n        /* \"#utility.yul\":18761:18762   */\n      dup3\n        /* \"#utility.yul\":18743:18763   */\n      tag_176\n      jump\t// in\n    tag_380:\n        /* \"#utility.yul\":18738:18763   */\n      swap2\n      pop\n        /* \"#utility.yul\":18777:18797   */\n      tag_381\n        /* \"#utility.yul\":18795:18796   */\n      dup4\n        /* \"#utility.yul\":18777:18797   */\n      tag_176\n      jump\t// in\n    tag_381:\n        /* \"#utility.yul\":18772:18797   */\n      swap3\n      pop\n        /* \"#utility.yul\":18816:18817   */\n      dup3\n        /* \"#utility.yul\":18806:18841   */\n      tag_382\n      jumpi\n        /* \"#utility.yul\":18821:18839   */\n      tag_383\n      tag_214\n      jump\t// in\n    tag_383:\n        /* \"#utility.yul\":18806:18841   */\n    tag_382:\n        /* \"#utility.yul\":18863:18864   */\n      dup3\n        /* \"#utility.yul\":18860:18861   */\n      dup3\n        /* \"#utility.yul\":18856:18865   */\n      div\n        /* \"#utility.yul\":18851:18865   */\n      swap1\n      pop\n        /* \"#utility.yul\":18686:18871   */\n      swap3\n      swap2\n      pop\n      pop\n      jump\t// out\n\n    auxdata: 0xa2646970667358221220896f6f32146698178165409c15b692c6d90ba56ba9d1020d2f2b9bdcf04ffa3264736f6c63430008100033\n}\n",
				"bytecode": {
					"linkReferences": {},
					"object": "608060405234801561001057600080fd5b50612906806100206000396000f3fe608060405234801561001057600080fd5b50600436106100a95760003560e01c80637870860b116100715780637870860b1461013c5780637b3c4baa146101585780638f769f3a1461018a5780639bea77da146101a6578063e1ec3c68146101d6578063e7e4dfcd1461020e576100a9565b806306661abd146100ae57806318de4f9d146100cc57806340e58ee5146100e8578063415f124014610104578063598647f814610120575b600080fd5b6100b661022a565b6040516100c39190611f48565b60405180910390f35b6100e660048036038101906100e19190611f94565b610230565b005b61010260048036038101906100fd9190611f94565b610629565b005b61011e60048036038101906101199190611f94565b6108cc565b005b61013a60048036038101906101359190611fc1565b610c1b565b005b61015660048036038101906101519190611f94565b6110a6565b005b610172600480360381019061016d9190611fc1565b611472565b60405161018193929190612042565b60405180910390f35b6101a4600480360381019061019f91906120a5565b6114c9565b005b6101c060048036038101906101bb9190611fc1565b6117d3565b6040516101cd91906120e5565b60405180910390f35b6101f060048036038101906101eb9190611f94565b611821565b6040516102059998979695949392919061211b565b60405180910390f35b610228600480360381019061022391906121a8565b6118dc565b005b60005481565b803373ffffffffffffffffffffffffffffffffffffffff166001600083815260200190815260200160002060000160009054906101000a900473ffffffffffffffffffffffffffffffffffffffff1673ffffffffffffffffffffffffffffffffffffffff16146102d5576040517f08c379a00000000000000000000000000000000000000000000000000000000081526004016102cc90612292565b60405180910390fd5b600060016000848152602001908152602001600020604051806101200160405290816000820160009054906101000a900473ffffffffffffffffffffffffffffffffffffffff1673ffffffffffffffffffffffffffffffffffffffff1673ffffffffffffffffffffffffffffffffffffffff1681526020016001820160009054906101000a900473ffffffffffffffffffffffffffffffffffffffff1673ffffffffffffffffffffffffffffffffffffffff1673ffffffffffffffffffffffffffffffffffffffff1681526020016002820160009054906101000a900473ffffffffffffffffffffffffffffffffffffffff1673ffffffffffffffffffffffffffffffffffffffff1673ffffffffffffffffffffffffffffffffffffffff16815260200160038201548152602001600482015481526020016005820154815260200160068201548152602001600782015481526020016008820160009054906101000a900460ff161515151581525050905061045083611bae565b61048f576040517f08c379a0000000000000000000000000000000000000000000000000000000008152600401610486906122fe565b60405180910390fd5b60006002600085815260200190815260200160002060008360e00151815260200190815260200160002060405180606001604052908160008201548152602001600182015481526020016002820160009054906101000a900473ffffffffffffffffffffffffffffffffffffffff1673ffffffffffffffffffffffffffffffffffffffff1673ffffffffffffffffffffffffffffffffffffffff168152505090503373ffffffffffffffffffffffffffffffffffffffff16816040015173ffffffffffffffffffffffffffffffffffffffff16146105a2576040517f08c379a00000000000000000000000000000000000000000000000000000000081526004016105999061236a565b60405180910390fd5b6000826040015190508073ffffffffffffffffffffffffffffffffffffffff166342842e0e30846040015186606001516040518463ffffffff1660e01b81526004016105f09392919061238a565b600060405180830381600087803b15801561060a57600080fd5b505af115801561061e573d6000803e3d6000fd5b505050505050505050565b803373ffffffffffffffffffffffffffffffffffffffff166001600083815260200190815260200160002060000160009054906101000a900473ffffffffffffffffffffffffffffffffffffffff1673ffffffffffffffffffffffffffffffffffffffff16146106ce576040517f08c379a00000000000000000000000000000000000000000000000000000000081526004016106c590612292565b60405180910390fd5b600060016000848152602001908152602001600020604051806101200160405290816000820160009054906101000a900473ffffffffffffffffffffffffffffffffffffffff1673ffffffffffffffffffffffffffffffffffffffff1673ffffffffffffffffffffffffffffffffffffffff1681526020016001820160009054906101000a900473ffffffffffffffffffffffffffffffffffffffff1673ffffffffffffffffffffffffffffffffffffffff1673ffffffffffffffffffffffffffffffffffffffff1681526020016002820160009054906101000a900473ffffffffffffffffffffffffffffffffffffffff1673ffffffffffffffffffffffffffffffffffffffff1673ffffffffffffffffffffffffffffffffffffffff16815260200160038201548152602001600482015481526020016005820154815260200160068201548152602001600782015481526020016008820160009054906101000a900460ff161515151581525050905042816080015111610886576040517f08c379a000000000000000000000000000000000000000000000000000000000815260040161087d9061240d565b60405180910390fd5b61088e611e9f565b90507ffe785ef891129b084b1c5a30e4d88eb97c97822c024cc25d5f9d806b897512e0836040516108bf9190611f48565b60405180910390a1505050565b600060016000838152602001908152602001600020604051806101200160405290816000820160009054906101000a900473ffffffffffffffffffffffffffffffffffffffff1673ffffffffffffffffffffffffffffffffffffffff1673ffffffffffffffffffffffffffffffffffffffff1681526020016001820160009054906101000a900473ffffffffffffffffffffffffffffffffffffffff1673ffffffffffffffffffffffffffffffffffffffff1673ffffffffffffffffffffffffffffffffffffffff1681526020016002820160009054906101000a900473ffffffffffffffffffffffffffffffffffffffff1673ffffffffffffffffffffffffffffffffffffffff1673ffffffffffffffffffffffffffffffffffffffff16815260200160038201548152602001600482015481526020016005820154815260200160068201548152602001600782015481526020016008820160009054906101000a900460ff1615151515815250509050610a4782611bae565b610a86576040517f08c379a0000000000000000000000000000000000000000000000000000000008152600401610a7d906122fe565b60405180910390fd5b60006002600084815260200190815260200160002060008360e00151815260200190815260200160002060405180606001604052908160008201548152602001600182015481526020016002820160009054906101000a900473ffffffffffffffffffffffffffffffffffffffff1673ffffffffffffffffffffffffffffffffffffffff1673ffffffffffffffffffffffffffffffffffffffff168152505090503373ffffffffffffffffffffffffffffffffffffffff16816040015173ffffffffffffffffffffffffffffffffffffffff1614610b99576040517f08c379a0000000000000000000000000000000000000000000000000000000008152600401610b909061236a565b60405180910390fd5b6000826040015190508073ffffffffffffffffffffffffffffffffffffffff166342842e0e303386606001516040518463ffffffff1660e01b8152600401610be39392919061238a565b600060405180830381600087803b158015610bfd57600080fd5b505af1158015610c11573d6000803e3d6000fd5b5050505050505050565b610c2482611bd1565b610c63576040517f08c379a0000000000000000000000000000000000000000000000000000000008152600401610c5a90612479565b60405180910390fd5b610c6c82611bae565b15610cac576040517f08c379a0000000000000000000000000000000000000000000000000000000008152600401610ca3906124e5565b60405180910390fd5b600060016000848152602001908152602001600020604051806101200160405290816000820160009054906101000a900473ffffffffffffffffffffffffffffffffffffffff1673ffffffffffffffffffffffffffffffffffffffff1673ffffffffffffffffffffffffffffffffffffffff1681526020016001820160009054906101000a900473ffffffffffffffffffffffffffffffffffffffff1673ffffffffffffffffffffffffffffffffffffffff1673ffffffffffffffffffffffffffffffffffffffff1681526020016002820160009054906101000a900473ffffffffffffffffffffffffffffffffffffffff1673ffffffffffffffffffffffffffffffffffffffff1673ffffffffffffffffffffffffffffffffffffffff16815260200160038201548152602001600482015481526020016005820154815260200160068201548152602001600782015481526020016008820160009054906101000a900460ff1615151515815250509050600060018260e00151610e319190612534565b9050808260e00181815250506000610e4885611bf3565b9050808411610e8c576040517f08c379a0000000000000000000000000000000000000000000000000000000008152600401610e83906125b4565b60405180910390fd5b826020015173ffffffffffffffffffffffffffffffffffffffff166323b872dd3360026000898152602001908152602001600020600086815260200190815260200160002060020160009054906101000a900473ffffffffffffffffffffffffffffffffffffffff16846040518463ffffffff1660e01b8152600401610f149392919061238a565b6020604051808303816000875af1158015610f33573d6000803e3d6000fd5b505050506040513d601f19601f82011682018060405250810190610f579190612600565b50826020015173ffffffffffffffffffffffffffffffffffffffff166323b872dd3385600001518488610f8a919061262d565b6040518463ffffffff1660e01b8152600401610fa89392919061238a565b6020604051808303816000875af1158015610fc7573d6000803e3d6000fd5b505050506040513d601f19601f82011682018060405250810190610feb9190612600565b5060405180606001604052804281526020018581526020013373ffffffffffffffffffffffffffffffffffffffff16815250600260008781526020019081526020016000206000848152602001908152602001600020600082015181600001556020820151816001015560408201518160020160006101000a81548173ffffffffffffffffffffffffffffffffffffffff021916908373ffffffffffffffffffffffffffffffffffffffff1602179055509050505050505050565b803373ffffffffffffffffffffffffffffffffffffffff166001600083815260200190815260200160002060000160009054906101000a900473ffffffffffffffffffffffffffffffffffffffff1673ffffffffffffffffffffffffffffffffffffffff161461114b576040517f08c379a000000000000000000000000000000000000000000000000000000000815260040161114290612292565b60405180910390fd5b600060016000848152602001908152602001600020604051806101200160405290816000820160009054906101000a900473ffffffffffffffffffffffffffffffffffffffff1673ffffffffffffffffffffffffffffffffffffffff1673ffffffffffffffffffffffffffffffffffffffff1681526020016001820160009054906101000a900473ffffffffffffffffffffffffffffffffffffffff1673ffffffffffffffffffffffffffffffffffffffff1673ffffffffffffffffffffffffffffffffffffffff1681526020016002820160009054906101000a900473ffffffffffffffffffffffffffffffffffffffff1673ffffffffffffffffffffffffffffffffffffffff1673ffffffffffffffffffffffffffffffffffffffff16815260200160038201548152602001600482015481526020016005820154815260200160068201548152602001600782015481526020016008820160009054906101000a900460ff161515151581525050905060006002600085815260200190815260200160002060008360e00151815260200190815260200160002060405180606001604052908160008201548152602001600182015481526020016002820160009054906101000a900473ffffffffffffffffffffffffffffffffffffffff1673ffffffffffffffffffffffffffffffffffffffff1673ffffffffffffffffffffffffffffffffffffffff16815250509050816020015173ffffffffffffffffffffffffffffffffffffffff166323b872dd33836040015161138d88611bf3565b6040518463ffffffff1660e01b81526004016113ab9392919061238a565b6020604051808303816000875af11580156113ca573d6000803e3d6000fd5b505050506040513d601f19601f820116820180604052508101906113ee9190612600565b506000826040015190508073ffffffffffffffffffffffffffffffffffffffff166342842e0e303386606001516040518463ffffffff1660e01b81526004016114399392919061238a565b600060405180830381600087803b15801561145357600080fd5b505af1158015611467573d6000803e3d6000fd5b505050505050505050565b6002602052816000526040600020602052806000526040600020600091509150508060000154908060010154908060020160009054906101000a900473ffffffffffffffffffffffffffffffffffffffff16905083565b6114d282611bd1565b611511576040517f08c379a000000000000000000000000000000000000000000000000000000000815260040161150890612479565b60405180910390fd5b61151a82611bae565b1561155a576040517f08c379a0000000000000000000000000000000000000000000000000000000008152600401611551906124e5565b60405180910390fd5b600060016000848152602001908152602001600020604051806101200160405290816000820160009054906101000a900473ffffffffffffffffffffffffffffffffffffffff1673ffffffffffffffffffffffffffffffffffffffff1673ffffffffffffffffffffffffffffffffffffffff1681526020016001820160009054906101000a900473ffffffffffffffffffffffffffffffffffffffff1673ffffffffffffffffffffffffffffffffffffffff1673ffffffffffffffffffffffffffffffffffffffff1681526020016002820160009054906101000a900473ffffffffffffffffffffffffffffffffffffffff1673ffffffffffffffffffffffffffffffffffffffff1673ffffffffffffffffffffffffffffffffffffffff16815260200160038201548152602001600482015481526020016005820154815260200160068201548152602001600782015481526020016008820160009054906101000a900460ff161515151581525050905060006002600085815260200190815260200160002060008360e00151815260200190815260200160002090503373ffffffffffffffffffffffffffffffffffffffff168160020160009054906101000a900473ffffffffffffffffffffffffffffffffffffffff1673ffffffffffffffffffffffffffffffffffffffff161461178a576040517f08c379a0000000000000000000000000000000000000000000000000000000008152600401611781906126ad565b60405180910390fd5b828160020160006101000a81548173ffffffffffffffffffffffffffffffffffffffff021916908373ffffffffffffffffffffffffffffffffffffffff16021790555050505050565b600360205281600052604060002081815481106117ef57600080fd5b906000526020600020016000915091509054906101000a900473ffffffffffffffffffffffffffffffffffffffff1681565b60016020528060005260406000206000915090508060000160009054906101000a900473ffffffffffffffffffffffffffffffffffffffff16908060010160009054906101000a900473ffffffffffffffffffffffffffffffffffffffff16908060020160009054906101000a900473ffffffffffffffffffffffffffffffffffffffff16908060030154908060040154908060050154908060060154908060070154908060080160009054906101000a900460ff16905089565b4283101561191f576040517f08c379a000000000000000000000000000000000000000000000000000000000815260040161191690612719565b60405180910390fd5b828211611961576040517f08c379a000000000000000000000000000000000000000000000000000000000815260040161195890612785565b60405180910390fd5b6040518061012001604052803373ffffffffffffffffffffffffffffffffffffffff1681526020018773ffffffffffffffffffffffffffffffffffffffff1681526020018673ffffffffffffffffffffffffffffffffffffffff1681526020018581526020018481526020018381526020018281526020016000815260200160001515815250600160008054815260200190815260200160002060008201518160000160006101000a81548173ffffffffffffffffffffffffffffffffffffffff021916908373ffffffffffffffffffffffffffffffffffffffff16021790555060208201518160010160006101000a81548173ffffffffffffffffffffffffffffffffffffffff021916908373ffffffffffffffffffffffffffffffffffffffff16021790555060408201518160020160006101000a81548173ffffffffffffffffffffffffffffffffffffffff021916908373ffffffffffffffffffffffffffffffffffffffff160217905550606082015181600301556080820151816004015560a0820151816005015560c0820151816006015560e082015181600701556101008201518160080160006101000a81548160ff0219169083151502179055509050504260026000805481526020019081526020016000206000808152602001908152602001600020600001819055506000547fef8b2952c43462575e82711d0cc91169720a4589a9fa533d173e022437f5405e8686604051611b879291906127a5565b60405180910390a2600080815480929190611ba1906127ce565b9190505550505050505050565b600042600160008481526020019081526020016000206005015411159050919050565b6000426001600084815260200190815260200160002060040154109050919050565b60008060016000848152602001908152602001600020604051806101200160405290816000820160009054906101000a900473ffffffffffffffffffffffffffffffffffffffff1673ffffffffffffffffffffffffffffffffffffffff1673ffffffffffffffffffffffffffffffffffffffff1681526020016001820160009054906101000a900473ffffffffffffffffffffffffffffffffffffffff1673ffffffffffffffffffffffffffffffffffffffff1673ffffffffffffffffffffffffffffffffffffffff1681526020016002820160009054906101000a900473ffffffffffffffffffffffffffffffffffffffff1673ffffffffffffffffffffffffffffffffffffffff1673ffffffffffffffffffffffffffffffffffffffff16815260200160038201548152602001600482015481526020016005820154815260200160068201548152602001600782015481526020016008820160009054906101000a900460ff161515151581525050905060006002600085815260200190815260200160002060008360e00151815260200190815260200160002060405180606001604052908160008201548152602001600182015481526020016002820160009054906101000a900473ffffffffffffffffffffffffffffffffffffffff1673ffffffffffffffffffffffffffffffffffffffff1673ffffffffffffffffffffffffffffffffffffffff168152505090506000611e1285611bae565b15611e32578260a001518260000151611e2b919061262d565b9050611e45565b428260000151611e42919061262d565b90505b6301e1338081670de0b6b3a76400008560c001518560200151611e689190612816565b611e72919061289f565b611e7c9190612816565b611e86919061289f565b8260200151611e959190612534565b9350505050919050565b604051806101200160405280600073ffffffffffffffffffffffffffffffffffffffff168152602001600073ffffffffffffffffffffffffffffffffffffffff168152602001600073ffffffffffffffffffffffffffffffffffffffff16815260200160008152602001600081526020016000815260200160008152602001600081526020016000151581525090565b6000819050919050565b611f4281611f2f565b82525050565b6000602082019050611f5d6000830184611f39565b92915050565b600080fd5b611f7181611f2f565b8114611f7c57600080fd5b50565b600081359050611f8e81611f68565b92915050565b600060208284031215611faa57611fa9611f63565b5b6000611fb884828501611f7f565b91505092915050565b60008060408385031215611fd857611fd7611f63565b5b6000611fe685828601611f7f565b9250506020611ff785828601611f7f565b9150509250929050565b600073ffffffffffffffffffffffffffffffffffffffff82169050919050565b600061202c82612001565b9050919050565b61203c81612021565b82525050565b60006060820190506120576000830186611f39565b6120646020830185611f39565b6120716040830184612033565b949350505050565b61208281612021565b811461208d57600080fd5b50565b60008135905061209f81612079565b92915050565b600080604083850312156120bc576120bb611f63565b5b60006120ca85828601611f7f565b92505060206120db85828601612090565b9150509250929050565b60006020820190506120fa6000830184612033565b92915050565b60008115159050919050565b61211581612100565b82525050565b600061012082019050612131600083018c612033565b61213e602083018b612033565b61214b604083018a612033565b6121586060830189611f39565b6121656080830188611f39565b61217260a0830187611f39565b61217f60c0830186611f39565b61218c60e0830185611f39565b61219a61010083018461210c565b9a9950505050505050505050565b60008060008060008060c087890312156121c5576121c4611f63565b5b60006121d389828a01612090565b96505060206121e489828a01612090565b95505060406121f589828a01611f7f565b945050606061220689828a01611f7f565b935050608061221789828a01611f7f565b92505060a061222889828a01611f7f565b9150509295509295509295565b600082825260208201905092915050565b7f4c414e3a206e6f74206f776e6572000000000000000000000000000000000000600082015250565b600061227c600e83612235565b915061228782612246565b602082019050919050565b600060208201905081810360008301526122ab8161226f565b9050919050565b7f4c414e3a206c6f616e206e6f7420656e64656400000000000000000000000000600082015250565b60006122e8601383612235565b91506122f3826122b2565b602082019050919050565b60006020820190508181036000830152612317816122db565b9050919050565b7f4c414e3a206e6f74206c61746573742062696464657200000000000000000000600082015250565b6000612354601683612235565b915061235f8261231e565b602082019050919050565b6000602082019050818103600083015261238381612347565b9050919050565b600060608201905061239f6000830186612033565b6123ac6020830185612033565b6123b96040830184611f39565b949350505050565b7f4c414e3a20616c72656164792073746172746564000000000000000000000000600082015250565b60006123f7601483612235565b9150612402826123c1565b602082019050919050565b60006020820190508181036000830152612426816123ea565b9050919050565b7f4c414e3a206e6f74207374617274656400000000000000000000000000000000600082015250565b6000612463601083612235565b915061246e8261242d565b602082019050919050565b6000602082019050818103600083015261249281612456565b9050919050565b7f4c414e3a20616c726561647920656e6465640000000000000000000000000000600082015250565b60006124cf601283612235565b91506124da82612499565b602082019050919050565b600060208201905081810360008301526124fe816124c2565b9050919050565b7f4e487b7100000000000000000000000000000000000000000000000000000000600052601160045260246000fd5b600061253f82611f2f565b915061254a83611f2f565b925082820190508082111561256257612561612505565b5b92915050565b7f4c414e3a20626964206e6f742068696768657200000000000000000000000000600082015250565b600061259e601383612235565b91506125a982612568565b602082019050919050565b600060208201905081810360008301526125cd81612591565b9050919050565b6125dd81612100565b81146125e857600080fd5b50565b6000815190506125fa816125d4565b92915050565b60006020828403121561261657612615611f63565b5b6000612624848285016125eb565b91505092915050565b600061263882611f2f565b915061264383611f2f565b925082820390508181111561265b5761265a612505565b5b92915050565b7f4c414e3a204e6f7420746865206c617465737420626964646572000000000000600082015250565b6000612697601a83612235565b91506126a282612661565b602082019050919050565b600060208201905081810360008301526126c68161268a565b9050919050565b7f4c414e3a2073746172742074696d6520696e2070617374000000000000000000600082015250565b6000612703601783612235565b915061270e826126cd565b602082019050919050565b60006020820190508181036000830152612732816126f6565b9050919050565b7f4c414e3a20737461727420616674657220656e64000000000000000000000000600082015250565b600061276f601483612235565b915061277a82612739565b602082019050919050565b6000602082019050818103600083015261279e81612762565b9050919050565b60006040820190506127ba6000830185612033565b6127c76020830184611f39565b9392505050565b60006127d982611f2f565b91507fffffffffffffffffffffffffffffffffffffffffffffffffffffffffffffffff820361280b5761280a612505565b5b600182019050919050565b600061282182611f2f565b915061282c83611f2f565b9250817fffffffffffffffffffffffffffffffffffffffffffffffffffffffffffffffff048311821515161561286557612864612505565b5b828202905092915050565b7f4e487b7100000000000000000000000000000000000000000000000000000000600052601260045260246000fd5b60006128aa82611f2f565b91506128b583611f2f565b9250826128c5576128c4612870565b5b82820490509291505056fea2646970667358221220896f6f32146698178165409c15b692c6d90ba56ba9d1020d2f2b9bdcf04ffa3264736f6c63430008100033",
					"opcodes": "PUSH1 0x80 PUSH1 0x40 MSTORE CALLVALUE DUP1 ISZERO PUSH2 0x10 JUMPI PUSH1 0x0 DUP1 REVERT JUMPDEST POP PUSH2 0x2906 DUP1 PUSH2 0x20 PUSH1 0x0 CODECOPY PUSH1 0x0 RETURN INVALID PUSH1 0x80 PUSH1 0x40 MSTORE CALLVALUE DUP1 ISZERO PUSH2 0x10 JUMPI PUSH1 0x0 DUP1 REVERT JUMPDEST POP PUSH1 0x4 CALLDATASIZE LT PUSH2 0xA9 JUMPI PUSH1 0x0 CALLDATALOAD PUSH1 0xE0 SHR DUP1 PUSH4 0x7870860B GT PUSH2 0x71 JUMPI DUP1 PUSH4 0x7870860B EQ PUSH2 0x13C JUMPI DUP1 PUSH4 0x7B3C4BAA EQ PUSH2 0x158 JUMPI DUP1 PUSH4 0x8F769F3A EQ PUSH2 0x18A JUMPI DUP1 PUSH4 0x9BEA77DA EQ PUSH2 0x1A6 JUMPI DUP1 PUSH4 0xE1EC3C68 EQ PUSH2 0x1D6 JUMPI DUP1 PUSH4 0xE7E4DFCD EQ PUSH2 0x20E JUMPI PUSH2 0xA9 JUMP JUMPDEST DUP1 PUSH4 0x6661ABD EQ PUSH2 0xAE JUMPI DUP1 PUSH4 0x18DE4F9D EQ PUSH2 0xCC JUMPI DUP1 PUSH4 0x40E58EE5 EQ PUSH2 0xE8 JUMPI DUP1 PUSH4 0x415F1240 EQ PUSH2 0x104 JUMPI DUP1 PUSH4 0x598647F8 EQ PUSH2 0x120 JUMPI JUMPDEST PUSH1 0x0 DUP1 REVERT JUMPDEST PUSH2 0xB6 PUSH2 0x22A JUMP JUMPDEST PUSH1 0x40 MLOAD PUSH2 0xC3 SWAP2 SWAP1 PUSH2 0x1F48 JUMP JUMPDEST PUSH1 0x40 MLOAD DUP1 SWAP2 SUB SWAP1 RETURN JUMPDEST PUSH2 0xE6 PUSH1 0x4 DUP1 CALLDATASIZE SUB DUP2 ADD SWAP1 PUSH2 0xE1 SWAP2 SWAP1 PUSH2 0x1F94 JUMP JUMPDEST PUSH2 0x230 JUMP JUMPDEST STOP JUMPDEST PUSH2 0x102 PUSH1 0x4 DUP1 CALLDATASIZE SUB DUP2 ADD SWAP1 PUSH2 0xFD SWAP2 SWAP1 PUSH2 0x1F94 JUMP JUMPDEST PUSH2 0x629 JUMP JUMPDEST STOP JUMPDEST PUSH2 0x11E PUSH1 0x4 DUP1 CALLDATASIZE SUB DUP2 ADD SWAP1 PUSH2 0x119 SWAP2 SWAP1 PUSH2 0x1F94 JUMP JUMPDEST PUSH2 0x8CC JUMP JUMPDEST STOP JUMPDEST PUSH2 0x13A PUSH1 0x4 DUP1 CALLDATASIZE SUB DUP2 ADD SWAP1 PUSH2 0x135 SWAP2 SWAP1 PUSH2 0x1FC1 JUMP JUMPDEST PUSH2 0xC1B JUMP JUMPDEST STOP JUMPDEST PUSH2 0x156 PUSH1 0x4 DUP1 CALLDATASIZE SUB DUP2 ADD SWAP1 PUSH2 0x151 SWAP2 SWAP1 PUSH2 0x1F94 JUMP JUMPDEST PUSH2 0x10A6 JUMP JUMPDEST STOP JUMPDEST PUSH2 0x172 PUSH1 0x4 DUP1 CALLDATASIZE SUB DUP2 ADD SWAP1 PUSH2 0x16D SWAP2 SWAP1 PUSH2 0x1FC1 JUMP JUMPDEST PUSH2 0x1472 JUMP JUMPDEST PUSH1 0x40 MLOAD PUSH2 0x181 SWAP4 SWAP3 SWAP2 SWAP1 PUSH2 0x2042 JUMP JUMPDEST PUSH1 0x40 MLOAD DUP1 SWAP2 SUB SWAP1 RETURN JUMPDEST PUSH2 0x1A4 PUSH1 0x4 DUP1 CALLDATASIZE SUB DUP2 ADD SWAP1 PUSH2 0x19F SWAP2 SWAP1 PUSH2 0x20A5 JUMP JUMPDEST PUSH2 0x14C9 JUMP JUMPDEST STOP JUMPDEST PUSH2 0x1C0 PUSH1 0x4 DUP1 CALLDATASIZE SUB DUP2 ADD SWAP1 PUSH2 0x1BB SWAP2 SWAP1 PUSH2 0x1FC1 JUMP JUMPDEST PUSH2 0x17D3 JUMP JUMPDEST PUSH1 0x40 MLOAD PUSH2 0x1CD SWAP2 SWAP1 PUSH2 0x20E5 JUMP JUMPDEST PUSH1 0x40 MLOAD DUP1 SWAP2 SUB SWAP1 RETURN JUMPDEST PUSH2 0x1F0 PUSH1 0x4 DUP1 CALLDATASIZE SUB DUP2 ADD SWAP1 PUSH2 0x1EB SWAP2 SWAP1 PUSH2 0x1F94 JUMP JUMPDEST PUSH2 0x1821 JUMP JUMPDEST PUSH1 0x40 MLOAD PUSH2 0x205 SWAP10 SWAP9 SWAP8 SWAP7 SWAP6 SWAP5 SWAP4 SWAP3 SWAP2 SWAP1 PUSH2 0x211B JUMP JUMPDEST PUSH1 0x40 MLOAD DUP1 SWAP2 SUB SWAP1 RETURN JUMPDEST PUSH2 0x228 PUSH1 0x4 DUP1 CALLDATASIZE SUB DUP2 ADD SWAP1 PUSH2 0x223 SWAP2 SWAP1 PUSH2 0x21A8 JUMP JUMPDEST PUSH2 0x18DC JUMP JUMPDEST STOP JUMPDEST PUSH1 0x0 SLOAD DUP2 JUMP JUMPDEST DUP1 CALLER PUSH20 0xFFFFFFFFFFFFFFFFFFFFFFFFFFFFFFFFFFFFFFFF AND PUSH1 0x1 PUSH1 0x0 DUP4 DUP2 MSTORE PUSH1 0x20 ADD SWAP1 DUP2 MSTORE PUSH1 0x20 ADD PUSH1 0x0 KECCAK256 PUSH1 0x0 ADD PUSH1 0x0 SWAP1 SLOAD SWAP1 PUSH2 0x100 EXP SWAP1 DIV PUSH20 0xFFFFFFFFFFFFFFFFFFFFFFFFFFFFFFFFFFFFFFFF AND PUSH20 0xFFFFFFFFFFFFFFFFFFFFFFFFFFFFFFFFFFFFFFFF AND EQ PUSH2 0x2D5 JUMPI PUSH1 0x40 MLOAD PUSH32 0x8C379A000000000000000000000000000000000000000000000000000000000 DUP2 MSTORE PUSH1 0x4 ADD PUSH2 0x2CC SWAP1 PUSH2 0x2292 JUMP JUMPDEST PUSH1 0x40 MLOAD DUP1 SWAP2 SUB SWAP1 REVERT JUMPDEST PUSH1 0x0 PUSH1 0x1 PUSH1 0x0 DUP5 DUP2 MSTORE PUSH1 0x20 ADD SWAP1 DUP2 MSTORE PUSH1 0x20 ADD PUSH1 0x0 KECCAK256 PUSH1 0x40 MLOAD DUP1 PUSH2 0x120 ADD PUSH1 0x40 MSTORE SWAP1 DUP2 PUSH1 0x0 DUP3 ADD PUSH1 0x0 SWAP1 SLOAD SWAP1 PUSH2 0x100 EXP SWAP1 DIV PUSH20 0xFFFFFFFFFFFFFFFFFFFFFFFFFFFFFFFFFFFFFFFF AND PUSH20 0xFFFFFFFFFFFFFFFFFFFFFFFFFFFFFFFFFFFFFFFF AND PUSH20 0xFFFFFFFFFFFFFFFFFFFFFFFFFFFFFFFFFFFFFFFF AND DUP2 MSTORE PUSH1 0x20 ADD PUSH1 0x1 DUP3 ADD PUSH1 0x0 SWAP1 SLOAD SWAP1 PUSH2 0x100 EXP SWAP1 DIV PUSH20 0xFFFFFFFFFFFFFFFFFFFFFFFFFFFFFFFFFFFFFFFF AND PUSH20 0xFFFFFFFFFFFFFFFFFFFFFFFFFFFFFFFFFFFFFFFF AND PUSH20 0xFFFFFFFFFFFFFFFFFFFFFFFFFFFFFFFFFFFFFFFF AND DUP2 MSTORE PUSH1 0x20 ADD PUSH1 0x2 DUP3 ADD PUSH1 0x0 SWAP1 SLOAD SWAP1 PUSH2 0x100 EXP SWAP1 DIV PUSH20 0xFFFFFFFFFFFFFFFFFFFFFFFFFFFFFFFFFFFFFFFF AND PUSH20 0xFFFFFFFFFFFFFFFFFFFFFFFFFFFFFFFFFFFFFFFF AND PUSH20 0xFFFFFFFFFFFFFFFFFFFFFFFFFFFFFFFFFFFFFFFF AND DUP2 MSTORE PUSH1 0x20 ADD PUSH1 0x3 DUP3 ADD SLOAD DUP2 MSTORE PUSH1 0x20 ADD PUSH1 0x4 DUP3 ADD SLOAD DUP2 MSTORE PUSH1 0x20 ADD PUSH1 0x5 DUP3 ADD SLOAD DUP2 MSTORE PUSH1 0x20 ADD PUSH1 0x6 DUP3 ADD SLOAD DUP2 MSTORE PUSH1 0x20 ADD PUSH1 0x7 DUP3 ADD SLOAD DUP2 MSTORE PUSH1 0x20 ADD PUSH1 0x8 DUP3 ADD PUSH1 0x0 SWAP1 SLOAD SWAP1 PUSH2 0x100 EXP SWAP1 DIV PUSH1 0xFF AND ISZERO ISZERO ISZERO ISZERO DUP2 MSTORE POP POP SWAP1 POP PUSH2 0x450 DUP4 PUSH2 0x1BAE JUMP JUMPDEST PUSH2 0x48F JUMPI PUSH1 0x40 MLOAD PUSH32 0x8C379A000000000000000000000000000000000000000000000000000000000 DUP2 MSTORE PUSH1 0x4 ADD PUSH2 0x486 SWAP1 PUSH2 0x22FE JUMP JUMPDEST PUSH1 0x40 MLOAD DUP1 SWAP2 SUB SWAP1 REVERT JUMPDEST PUSH1 0x0 PUSH1 0x2 PUSH1 0x0 DUP6 DUP2 MSTORE PUSH1 0x20 ADD SWAP1 DUP2 MSTORE PUSH1 0x20 ADD PUSH1 0x0 KECCAK256 PUSH1 0x0 DUP4 PUSH1 0xE0 ADD MLOAD DUP2 MSTORE PUSH1 0x20 ADD SWAP1 DUP2 MSTORE PUSH1 0x20 ADD PUSH1 0x0 KECCAK256 PUSH1 0x40 MLOAD DUP1 PUSH1 0x60 ADD PUSH1 0x40 MSTORE SWAP1 DUP2 PUSH1 0x0 DUP3 ADD SLOAD DUP2 MSTORE PUSH1 0x20 ADD PUSH1 0x1 DUP3 ADD SLOAD DUP2 MSTORE PUSH1 0x20 ADD PUSH1 0x2 DUP3 ADD PUSH1 0x0 SWAP1 SLOAD SWAP1 PUSH2 0x100 EXP SWAP1 DIV PUSH20 0xFFFFFFFFFFFFFFFFFFFFFFFFFFFFFFFFFFFFFFFF AND PUSH20 0xFFFFFFFFFFFFFFFFFFFFFFFFFFFFFFFFFFFFFFFF AND PUSH20 0xFFFFFFFFFFFFFFFFFFFFFFFFFFFFFFFFFFFFFFFF AND DUP2 MSTORE POP POP SWAP1 POP CALLER PUSH20 0xFFFFFFFFFFFFFFFFFFFFFFFFFFFFFFFFFFFFFFFF AND DUP2 PUSH1 0x40 ADD MLOAD PUSH20 0xFFFFFFFFFFFFFFFFFFFFFFFFFFFFFFFFFFFFFFFF AND EQ PUSH2 0x5A2 JUMPI PUSH1 0x40 MLOAD PUSH32 0x8C379A000000000000000000000000000000000000000000000000000000000 DUP2 MSTORE PUSH1 0x4 ADD PUSH2 0x599 SWAP1 PUSH2 0x236A JUMP JUMPDEST PUSH1 0x40 MLOAD DUP1 SWAP2 SUB SWAP1 REVERT JUMPDEST PUSH1 0x0 DUP3 PUSH1 0x40 ADD MLOAD SWAP1 POP DUP1 PUSH20 0xFFFFFFFFFFFFFFFFFFFFFFFFFFFFFFFFFFFFFFFF AND PUSH4 0x42842E0E ADDRESS DUP5 PUSH1 0x40 ADD MLOAD DUP7 PUSH1 0x60 ADD MLOAD PUSH1 0x40 MLOAD DUP5 PUSH4 0xFFFFFFFF AND PUSH1 0xE0 SHL DUP2 MSTORE PUSH1 0x4 ADD PUSH2 0x5F0 SWAP4 SWAP3 SWAP2 SWAP1 PUSH2 0x238A JUMP JUMPDEST PUSH1 0x0 PUSH1 0x40 MLOAD DUP1 DUP4 SUB DUP2 PUSH1 0x0 DUP8 DUP1 EXTCODESIZE ISZERO DUP1 ISZERO PUSH2 0x60A JUMPI PUSH1 0x0 DUP1 REVERT JUMPDEST POP GAS CALL ISZERO DUP1 ISZERO PUSH2 0x61E JUMPI RETURNDATASIZE PUSH1 0x0 DUP1 RETURNDATACOPY RETURNDATASIZE PUSH1 0x0 REVERT JUMPDEST POP POP POP POP POP POP POP POP POP JUMP JUMPDEST DUP1 CALLER PUSH20 0xFFFFFFFFFFFFFFFFFFFFFFFFFFFFFFFFFFFFFFFF AND PUSH1 0x1 PUSH1 0x0 DUP4 DUP2 MSTORE PUSH1 0x20 ADD SWAP1 DUP2 MSTORE PUSH1 0x20 ADD PUSH1 0x0 KECCAK256 PUSH1 0x0 ADD PUSH1 0x0 SWAP1 SLOAD SWAP1 PUSH2 0x100 EXP SWAP1 DIV PUSH20 0xFFFFFFFFFFFFFFFFFFFFFFFFFFFFFFFFFFFFFFFF AND PUSH20 0xFFFFFFFFFFFFFFFFFFFFFFFFFFFFFFFFFFFFFFFF AND EQ PUSH2 0x6CE JUMPI PUSH1 0x40 MLOAD PUSH32 0x8C379A000000000000000000000000000000000000000000000000000000000 DUP2 MSTORE PUSH1 0x4 ADD PUSH2 0x6C5 SWAP1 PUSH2 0x2292 JUMP JUMPDEST PUSH1 0x40 MLOAD DUP1 SWAP2 SUB SWAP1 REVERT JUMPDEST PUSH1 0x0 PUSH1 0x1 PUSH1 0x0 DUP5 DUP2 MSTORE PUSH1 0x20 ADD SWAP1 DUP2 MSTORE PUSH1 0x20 ADD PUSH1 0x0 KECCAK256 PUSH1 0x40 MLOAD DUP1 PUSH2 0x120 ADD PUSH1 0x40 MSTORE SWAP1 DUP2 PUSH1 0x0 DUP3 ADD PUSH1 0x0 SWAP1 SLOAD SWAP1 PUSH2 0x100 EXP SWAP1 DIV PUSH20 0xFFFFFFFFFFFFFFFFFFFFFFFFFFFFFFFFFFFFFFFF AND PUSH20 0xFFFFFFFFFFFFFFFFFFFFFFFFFFFFFFFFFFFFFFFF AND PUSH20 0xFFFFFFFFFFFFFFFFFFFFFFFFFFFFFFFFFFFFFFFF AND DUP2 MSTORE PUSH1 0x20 ADD PUSH1 0x1 DUP3 ADD PUSH1 0x0 SWAP1 SLOAD SWAP1 PUSH2 0x100 EXP SWAP1 DIV PUSH20 0xFFFFFFFFFFFFFFFFFFFFFFFFFFFFFFFFFFFFFFFF AND PUSH20 0xFFFFFFFFFFFFFFFFFFFFFFFFFFFFFFFFFFFFFFFF AND PUSH20 0xFFFFFFFFFFFFFFFFFFFFFFFFFFFFFFFFFFFFFFFF AND DUP2 MSTORE PUSH1 0x20 ADD PUSH1 0x2 DUP3 ADD PUSH1 0x0 SWAP1 SLOAD SWAP1 PUSH2 0x100 EXP SWAP1 DIV PUSH20 0xFFFFFFFFFFFFFFFFFFFFFFFFFFFFFFFFFFFFFFFF AND PUSH20 0xFFFFFFFFFFFFFFFFFFFFFFFFFFFFFFFFFFFFFFFF AND PUSH20 0xFFFFFFFFFFFFFFFFFFFFFFFFFFFFFFFFFFFFFFFF AND DUP2 MSTORE PUSH1 0x20 ADD PUSH1 0x3 DUP3 ADD SLOAD DUP2 MSTORE PUSH1 0x20 ADD PUSH1 0x4 DUP3 ADD SLOAD DUP2 MSTORE PUSH1 0x20 ADD PUSH1 0x5 DUP3 ADD SLOAD DUP2 MSTORE PUSH1 0x20 ADD PUSH1 0x6 DUP3 ADD SLOAD DUP2 MSTORE PUSH1 0x20 ADD PUSH1 0x7 DUP3 ADD SLOAD DUP2 MSTORE PUSH1 0x20 ADD PUSH1 0x8 DUP3 ADD PUSH1 0x0 SWAP1 SLOAD SWAP1 PUSH2 0x100 EXP SWAP1 DIV PUSH1 0xFF AND ISZERO ISZERO ISZERO ISZERO DUP2 MSTORE POP POP SWAP1 POP TIMESTAMP DUP2 PUSH1 0x80 ADD MLOAD GT PUSH2 0x886 JUMPI PUSH1 0x40 MLOAD PUSH32 0x8C379A000000000000000000000000000000000000000000000000000000000 DUP2 MSTORE PUSH1 0x4 ADD PUSH2 0x87D SWAP1 PUSH2 0x240D JUMP JUMPDEST PUSH1 0x40 MLOAD DUP1 SWAP2 SUB SWAP1 REVERT JUMPDEST PUSH2 0x88E PUSH2 0x1E9F JUMP JUMPDEST SWAP1 POP PUSH32 0xFE785EF891129B084B1C5A30E4D88EB97C97822C024CC25D5F9D806B897512E0 DUP4 PUSH1 0x40 MLOAD PUSH2 0x8BF SWAP2 SWAP1 PUSH2 0x1F48 JUMP JUMPDEST PUSH1 0x40 MLOAD DUP1 SWAP2 SUB SWAP1 LOG1 POP POP POP JUMP JUMPDEST PUSH1 0x0 PUSH1 0x1 PUSH1 0x0 DUP4 DUP2 MSTORE PUSH1 0x20 ADD SWAP1 DUP2 MSTORE PUSH1 0x20 ADD PUSH1 0x0 KECCAK256 PUSH1 0x40 MLOAD DUP1 PUSH2 0x120 ADD PUSH1 0x40 MSTORE SWAP1 DUP2 PUSH1 0x0 DUP3 ADD PUSH1 0x0 SWAP1 SLOAD SWAP1 PUSH2 0x100 EXP SWAP1 DIV PUSH20 0xFFFFFFFFFFFFFFFFFFFFFFFFFFFFFFFFFFFFFFFF AND PUSH20 0xFFFFFFFFFFFFFFFFFFFFFFFFFFFFFFFFFFFFFFFF AND PUSH20 0xFFFFFFFFFFFFFFFFFFFFFFFFFFFFFFFFFFFFFFFF AND DUP2 MSTORE PUSH1 0x20 ADD PUSH1 0x1 DUP3 ADD PUSH1 0x0 SWAP1 SLOAD SWAP1 PUSH2 0x100 EXP SWAP1 DIV PUSH20 0xFFFFFFFFFFFFFFFFFFFFFFFFFFFFFFFFFFFFFFFF AND PUSH20 0xFFFFFFFFFFFFFFFFFFFFFFFFFFFFFFFFFFFFFFFF AND PUSH20 0xFFFFFFFFFFFFFFFFFFFFFFFFFFFFFFFFFFFFFFFF AND DUP2 MSTORE PUSH1 0x20 ADD PUSH1 0x2 DUP3 ADD PUSH1 0x0 SWAP1 SLOAD SWAP1 PUSH2 0x100 EXP SWAP1 DIV PUSH20 0xFFFFFFFFFFFFFFFFFFFFFFFFFFFFFFFFFFFFFFFF AND PUSH20 0xFFFFFFFFFFFFFFFFFFFFFFFFFFFFFFFFFFFFFFFF AND PUSH20 0xFFFFFFFFFFFFFFFFFFFFFFFFFFFFFFFFFFFFFFFF AND DUP2 MSTORE PUSH1 0x20 ADD PUSH1 0x3 DUP3 ADD SLOAD DUP2 MSTORE PUSH1 0x20 ADD PUSH1 0x4 DUP3 ADD SLOAD DUP2 MSTORE PUSH1 0x20 ADD PUSH1 0x5 DUP3 ADD SLOAD DUP2 MSTORE PUSH1 0x20 ADD PUSH1 0x6 DUP3 ADD SLOAD DUP2 MSTORE PUSH1 0x20 ADD PUSH1 0x7 DUP3 ADD SLOAD DUP2 MSTORE PUSH1 0x20 ADD PUSH1 0x8 DUP3 ADD PUSH1 0x0 SWAP1 SLOAD SWAP1 PUSH2 0x100 EXP SWAP1 DIV PUSH1 0xFF AND ISZERO ISZERO ISZERO ISZERO DUP2 MSTORE POP POP SWAP1 POP PUSH2 0xA47 DUP3 PUSH2 0x1BAE JUMP JUMPDEST PUSH2 0xA86 JUMPI PUSH1 0x40 MLOAD PUSH32 0x8C379A000000000000000000000000000000000000000000000000000000000 DUP2 MSTORE PUSH1 0x4 ADD PUSH2 0xA7D SWAP1 PUSH2 0x22FE JUMP JUMPDEST PUSH1 0x40 MLOAD DUP1 SWAP2 SUB SWAP1 REVERT JUMPDEST PUSH1 0x0 PUSH1 0x2 PUSH1 0x0 DUP5 DUP2 MSTORE PUSH1 0x20 ADD SWAP1 DUP2 MSTORE PUSH1 0x20 ADD PUSH1 0x0 KECCAK256 PUSH1 0x0 DUP4 PUSH1 0xE0 ADD MLOAD DUP2 MSTORE PUSH1 0x20 ADD SWAP1 DUP2 MSTORE PUSH1 0x20 ADD PUSH1 0x0 KECCAK256 PUSH1 0x40 MLOAD DUP1 PUSH1 0x60 ADD PUSH1 0x40 MSTORE SWAP1 DUP2 PUSH1 0x0 DUP3 ADD SLOAD DUP2 MSTORE PUSH1 0x20 ADD PUSH1 0x1 DUP3 ADD SLOAD DUP2 MSTORE PUSH1 0x20 ADD PUSH1 0x2 DUP3 ADD PUSH1 0x0 SWAP1 SLOAD SWAP1 PUSH2 0x100 EXP SWAP1 DIV PUSH20 0xFFFFFFFFFFFFFFFFFFFFFFFFFFFFFFFFFFFFFFFF AND PUSH20 0xFFFFFFFFFFFFFFFFFFFFFFFFFFFFFFFFFFFFFFFF AND PUSH20 0xFFFFFFFFFFFFFFFFFFFFFFFFFFFFFFFFFFFFFFFF AND DUP2 MSTORE POP POP SWAP1 POP CALLER PUSH20 0xFFFFFFFFFFFFFFFFFFFFFFFFFFFFFFFFFFFFFFFF AND DUP2 PUSH1 0x40 ADD MLOAD PUSH20 0xFFFFFFFFFFFFFFFFFFFFFFFFFFFFFFFFFFFFFFFF AND EQ PUSH2 0xB99 JUMPI PUSH1 0x40 MLOAD PUSH32 0x8C379A000000000000000000000000000000000000000000000000000000000 DUP2 MSTORE PUSH1 0x4 ADD PUSH2 0xB90 SWAP1 PUSH2 0x236A JUMP JUMPDEST PUSH1 0x40 MLOAD DUP1 SWAP2 SUB SWAP1 REVERT JUMPDEST PUSH1 0x0 DUP3 PUSH1 0x40 ADD MLOAD SWAP1 POP DUP1 PUSH20 0xFFFFFFFFFFFFFFFFFFFFFFFFFFFFFFFFFFFFFFFF AND PUSH4 0x42842E0E ADDRESS CALLER DUP7 PUSH1 0x60 ADD MLOAD PUSH1 0x40 MLOAD DUP5 PUSH4 0xFFFFFFFF AND PUSH1 0xE0 SHL DUP2 MSTORE PUSH1 0x4 ADD PUSH2 0xBE3 SWAP4 SWAP3 SWAP2 SWAP1 PUSH2 0x238A JUMP JUMPDEST PUSH1 0x0 PUSH1 0x40 MLOAD DUP1 DUP4 SUB DUP2 PUSH1 0x0 DUP8 DUP1 EXTCODESIZE ISZERO DUP1 ISZERO PUSH2 0xBFD JUMPI PUSH1 0x0 DUP1 REVERT JUMPDEST POP GAS CALL ISZERO DUP1 ISZERO PUSH2 0xC11 JUMPI RETURNDATASIZE PUSH1 0x0 DUP1 RETURNDATACOPY RETURNDATASIZE PUSH1 0x0 REVERT JUMPDEST POP POP POP POP POP POP POP POP JUMP JUMPDEST PUSH2 0xC24 DUP3 PUSH2 0x1BD1 JUMP JUMPDEST PUSH2 0xC63 JUMPI PUSH1 0x40 MLOAD PUSH32 0x8C379A000000000000000000000000000000000000000000000000000000000 DUP2 MSTORE PUSH1 0x4 ADD PUSH2 0xC5A SWAP1 PUSH2 0x2479 JUMP JUMPDEST PUSH1 0x40 MLOAD DUP1 SWAP2 SUB SWAP1 REVERT JUMPDEST PUSH2 0xC6C DUP3 PUSH2 0x1BAE JUMP JUMPDEST ISZERO PUSH2 0xCAC JUMPI PUSH1 0x40 MLOAD PUSH32 0x8C379A000000000000000000000000000000000000000000000000000000000 DUP2 MSTORE PUSH1 0x4 ADD PUSH2 0xCA3 SWAP1 PUSH2 0x24E5 JUMP JUMPDEST PUSH1 0x40 MLOAD DUP1 SWAP2 SUB SWAP1 REVERT JUMPDEST PUSH1 0x0 PUSH1 0x1 PUSH1 0x0 DUP5 DUP2 MSTORE PUSH1 0x20 ADD SWAP1 DUP2 MSTORE PUSH1 0x20 ADD PUSH1 0x0 KECCAK256 PUSH1 0x40 MLOAD DUP1 PUSH2 0x120 ADD PUSH1 0x40 MSTORE SWAP1 DUP2 PUSH1 0x0 DUP3 ADD PUSH1 0x0 SWAP1 SLOAD SWAP1 PUSH2 0x100 EXP SWAP1 DIV PUSH20 0xFFFFFFFFFFFFFFFFFFFFFFFFFFFFFFFFFFFFFFFF AND PUSH20 0xFFFFFFFFFFFFFFFFFFFFFFFFFFFFFFFFFFFFFFFF AND PUSH20 0xFFFFFFFFFFFFFFFFFFFFFFFFFFFFFFFFFFFFFFFF AND DUP2 MSTORE PUSH1 0x20 ADD PUSH1 0x1 DUP3 ADD PUSH1 0x0 SWAP1 SLOAD SWAP1 PUSH2 0x100 EXP SWAP1 DIV PUSH20 0xFFFFFFFFFFFFFFFFFFFFFFFFFFFFFFFFFFFFFFFF AND PUSH20 0xFFFFFFFFFFFFFFFFFFFFFFFFFFFFFFFFFFFFFFFF AND PUSH20 0xFFFFFFFFFFFFFFFFFFFFFFFFFFFFFFFFFFFFFFFF AND DUP2 MSTORE PUSH1 0x20 ADD PUSH1 0x2 DUP3 ADD PUSH1 0x0 SWAP1 SLOAD SWAP1 PUSH2 0x100 EXP SWAP1 DIV PUSH20 0xFFFFFFFFFFFFFFFFFFFFFFFFFFFFFFFFFFFFFFFF AND PUSH20 0xFFFFFFFFFFFFFFFFFFFFFFFFFFFFFFFFFFFFFFFF AND PUSH20 0xFFFFFFFFFFFFFFFFFFFFFFFFFFFFFFFFFFFFFFFF AND DUP2 MSTORE PUSH1 0x20 ADD PUSH1 0x3 DUP3 ADD SLOAD DUP2 MSTORE PUSH1 0x20 ADD PUSH1 0x4 DUP3 ADD SLOAD DUP2 MSTORE PUSH1 0x20 ADD PUSH1 0x5 DUP3 ADD SLOAD DUP2 MSTORE PUSH1 0x20 ADD PUSH1 0x6 DUP3 ADD SLOAD DUP2 MSTORE PUSH1 0x20 ADD PUSH1 0x7 DUP3 ADD SLOAD DUP2 MSTORE PUSH1 0x20 ADD PUSH1 0x8 DUP3 ADD PUSH1 0x0 SWAP1 SLOAD SWAP1 PUSH2 0x100 EXP SWAP1 DIV PUSH1 0xFF AND ISZERO ISZERO ISZERO ISZERO DUP2 MSTORE POP POP SWAP1 POP PUSH1 0x0 PUSH1 0x1 DUP3 PUSH1 0xE0 ADD MLOAD PUSH2 0xE31 SWAP2 SWAP1 PUSH2 0x2534 JUMP JUMPDEST SWAP1 POP DUP1 DUP3 PUSH1 0xE0 ADD DUP2 DUP2 MSTORE POP POP PUSH1 0x0 PUSH2 0xE48 DUP6 PUSH2 0x1BF3 JUMP JUMPDEST SWAP1 POP DUP1 DUP5 GT PUSH2 0xE8C JUMPI PUSH1 0x40 MLOAD PUSH32 0x8C379A000000000000000000000000000000000000000000000000000000000 DUP2 MSTORE PUSH1 0x4 ADD PUSH2 0xE83 SWAP1 PUSH2 0x25B4 JUMP JUMPDEST PUSH1 0x40 MLOAD DUP1 SWAP2 SUB SWAP1 REVERT JUMPDEST DUP3 PUSH1 0x20 ADD MLOAD PUSH20 0xFFFFFFFFFFFFFFFFFFFFFFFFFFFFFFFFFFFFFFFF AND PUSH4 0x23B872DD CALLER PUSH1 0x2 PUSH1 0x0 DUP10 DUP2 MSTORE PUSH1 0x20 ADD SWAP1 DUP2 MSTORE PUSH1 0x20 ADD PUSH1 0x0 KECCAK256 PUSH1 0x0 DUP7 DUP2 MSTORE PUSH1 0x20 ADD SWAP1 DUP2 MSTORE PUSH1 0x20 ADD PUSH1 0x0 KECCAK256 PUSH1 0x2 ADD PUSH1 0x0 SWAP1 SLOAD SWAP1 PUSH2 0x100 EXP SWAP1 DIV PUSH20 0xFFFFFFFFFFFFFFFFFFFFFFFFFFFFFFFFFFFFFFFF AND DUP5 PUSH1 0x40 MLOAD DUP5 PUSH4 0xFFFFFFFF AND PUSH1 0xE0 SHL DUP2 MSTORE PUSH1 0x4 ADD PUSH2 0xF14 SWAP4 SWAP3 SWAP2 SWAP1 PUSH2 0x238A JUMP JUMPDEST PUSH1 0x20 PUSH1 0x40 MLOAD DUP1 DUP4 SUB DUP2 PUSH1 0x0 DUP8 GAS CALL ISZERO DUP1 ISZERO PUSH2 0xF33 JUMPI RETURNDATASIZE PUSH1 0x0 DUP1 RETURNDATACOPY RETURNDATASIZE PUSH1 0x0 REVERT JUMPDEST POP POP POP POP PUSH1 0x40 MLOAD RETURNDATASIZE PUSH1 0x1F NOT PUSH1 0x1F DUP3 ADD AND DUP3 ADD DUP1 PUSH1 0x40 MSTORE POP DUP2 ADD SWAP1 PUSH2 0xF57 SWAP2 SWAP1 PUSH2 0x2600 JUMP JUMPDEST POP DUP3 PUSH1 0x20 ADD MLOAD PUSH20 0xFFFFFFFFFFFFFFFFFFFFFFFFFFFFFFFFFFFFFFFF AND PUSH4 0x23B872DD CALLER DUP6 PUSH1 0x0 ADD MLOAD DUP5 DUP9 PUSH2 0xF8A SWAP2 SWAP1 PUSH2 0x262D JUMP JUMPDEST PUSH1 0x40 MLOAD DUP5 PUSH4 0xFFFFFFFF AND PUSH1 0xE0 SHL DUP2 MSTORE PUSH1 0x4 ADD PUSH2 0xFA8 SWAP4 SWAP3 SWAP2 SWAP1 PUSH2 0x238A JUMP JUMPDEST PUSH1 0x20 PUSH1 0x40 MLOAD DUP1 DUP4 SUB DUP2 PUSH1 0x0 DUP8 GAS CALL ISZERO DUP1 ISZERO PUSH2 0xFC7 JUMPI RETURNDATASIZE PUSH1 0x0 DUP1 RETURNDATACOPY RETURNDATASIZE PUSH1 0x0 REVERT JUMPDEST POP POP POP POP PUSH1 0x40 MLOAD RETURNDATASIZE PUSH1 0x1F NOT PUSH1 0x1F DUP3 ADD AND DUP3 ADD DUP1 PUSH1 0x40 MSTORE POP DUP2 ADD SWAP1 PUSH2 0xFEB SWAP2 SWAP1 PUSH2 0x2600 JUMP JUMPDEST POP PUSH1 0x40 MLOAD DUP1 PUSH1 0x60 ADD PUSH1 0x40 MSTORE DUP1 TIMESTAMP DUP2 MSTORE PUSH1 0x20 ADD DUP6 DUP2 MSTORE PUSH1 0x20 ADD CALLER PUSH20 0xFFFFFFFFFFFFFFFFFFFFFFFFFFFFFFFFFFFFFFFF AND DUP2 MSTORE POP PUSH1 0x2 PUSH1 0x0 DUP8 DUP2 MSTORE PUSH1 0x20 ADD SWAP1 DUP2 MSTORE PUSH1 0x20 ADD PUSH1 0x0 KECCAK256 PUSH1 0x0 DUP5 DUP2 MSTORE PUSH1 0x20 ADD SWAP1 DUP2 MSTORE PUSH1 0x20 ADD PUSH1 0x0 KECCAK256 PUSH1 0x0 DUP3 ADD MLOAD DUP2 PUSH1 0x0 ADD SSTORE PUSH1 0x20 DUP3 ADD MLOAD DUP2 PUSH1 0x1 ADD SSTORE PUSH1 0x40 DUP3 ADD MLOAD DUP2 PUSH1 0x2 ADD PUSH1 0x0 PUSH2 0x100 EXP DUP2 SLOAD DUP2 PUSH20 0xFFFFFFFFFFFFFFFFFFFFFFFFFFFFFFFFFFFFFFFF MUL NOT AND SWAP1 DUP4 PUSH20 0xFFFFFFFFFFFFFFFFFFFFFFFFFFFFFFFFFFFFFFFF AND MUL OR SWAP1 SSTORE POP SWAP1 POP POP POP POP POP POP POP JUMP JUMPDEST DUP1 CALLER PUSH20 0xFFFFFFFFFFFFFFFFFFFFFFFFFFFFFFFFFFFFFFFF AND PUSH1 0x1 PUSH1 0x0 DUP4 DUP2 MSTORE PUSH1 0x20 ADD SWAP1 DUP2 MSTORE PUSH1 0x20 ADD PUSH1 0x0 KECCAK256 PUSH1 0x0 ADD PUSH1 0x0 SWAP1 SLOAD SWAP1 PUSH2 0x100 EXP SWAP1 DIV PUSH20 0xFFFFFFFFFFFFFFFFFFFFFFFFFFFFFFFFFFFFFFFF AND PUSH20 0xFFFFFFFFFFFFFFFFFFFFFFFFFFFFFFFFFFFFFFFF AND EQ PUSH2 0x114B JUMPI PUSH1 0x40 MLOAD PUSH32 0x8C379A000000000000000000000000000000000000000000000000000000000 DUP2 MSTORE PUSH1 0x4 ADD PUSH2 0x1142 SWAP1 PUSH2 0x2292 JUMP JUMPDEST PUSH1 0x40 MLOAD DUP1 SWAP2 SUB SWAP1 REVERT JUMPDEST PUSH1 0x0 PUSH1 0x1 PUSH1 0x0 DUP5 DUP2 MSTORE PUSH1 0x20 ADD SWAP1 DUP2 MSTORE PUSH1 0x20 ADD PUSH1 0x0 KECCAK256 PUSH1 0x40 MLOAD DUP1 PUSH2 0x120 ADD PUSH1 0x40 MSTORE SWAP1 DUP2 PUSH1 0x0 DUP3 ADD PUSH1 0x0 SWAP1 SLOAD SWAP1 PUSH2 0x100 EXP SWAP1 DIV PUSH20 0xFFFFFFFFFFFFFFFFFFFFFFFFFFFFFFFFFFFFFFFF AND PUSH20 0xFFFFFFFFFFFFFFFFFFFFFFFFFFFFFFFFFFFFFFFF AND PUSH20 0xFFFFFFFFFFFFFFFFFFFFFFFFFFFFFFFFFFFFFFFF AND DUP2 MSTORE PUSH1 0x20 ADD PUSH1 0x1 DUP3 ADD PUSH1 0x0 SWAP1 SLOAD SWAP1 PUSH2 0x100 EXP SWAP1 DIV PUSH20 0xFFFFFFFFFFFFFFFFFFFFFFFFFFFFFFFFFFFFFFFF AND PUSH20 0xFFFFFFFFFFFFFFFFFFFFFFFFFFFFFFFFFFFFFFFF AND PUSH20 0xFFFFFFFFFFFFFFFFFFFFFFFFFFFFFFFFFFFFFFFF AND DUP2 MSTORE PUSH1 0x20 ADD PUSH1 0x2 DUP3 ADD PUSH1 0x0 SWAP1 SLOAD SWAP1 PUSH2 0x100 EXP SWAP1 DIV PUSH20 0xFFFFFFFFFFFFFFFFFFFFFFFFFFFFFFFFFFFFFFFF AND PUSH20 0xFFFFFFFFFFFFFFFFFFFFFFFFFFFFFFFFFFFFFFFF AND PUSH20 0xFFFFFFFFFFFFFFFFFFFFFFFFFFFFFFFFFFFFFFFF AND DUP2 MSTORE PUSH1 0x20 ADD PUSH1 0x3 DUP3 ADD SLOAD DUP2 MSTORE PUSH1 0x20 ADD PUSH1 0x4 DUP3 ADD SLOAD DUP2 MSTORE PUSH1 0x20 ADD PUSH1 0x5 DUP3 ADD SLOAD DUP2 MSTORE PUSH1 0x20 ADD PUSH1 0x6 DUP3 ADD SLOAD DUP2 MSTORE PUSH1 0x20 ADD PUSH1 0x7 DUP3 ADD SLOAD DUP2 MSTORE PUSH1 0x20 ADD PUSH1 0x8 DUP3 ADD PUSH1 0x0 SWAP1 SLOAD SWAP1 PUSH2 0x100 EXP SWAP1 DIV PUSH1 0xFF AND ISZERO ISZERO ISZERO ISZERO DUP2 MSTORE POP POP SWAP1 POP PUSH1 0x0 PUSH1 0x2 PUSH1 0x0 DUP6 DUP2 MSTORE PUSH1 0x20 ADD SWAP1 DUP2 MSTORE PUSH1 0x20 ADD PUSH1 0x0 KECCAK256 PUSH1 0x0 DUP4 PUSH1 0xE0 ADD MLOAD DUP2 MSTORE PUSH1 0x20 ADD SWAP1 DUP2 MSTORE PUSH1 0x20 ADD PUSH1 0x0 KECCAK256 PUSH1 0x40 MLOAD DUP1 PUSH1 0x60 ADD PUSH1 0x40 MSTORE SWAP1 DUP2 PUSH1 0x0 DUP3 ADD SLOAD DUP2 MSTORE PUSH1 0x20 ADD PUSH1 0x1 DUP3 ADD SLOAD DUP2 MSTORE PUSH1 0x20 ADD PUSH1 0x2 DUP3 ADD PUSH1 0x0 SWAP1 SLOAD SWAP1 PUSH2 0x100 EXP SWAP1 DIV PUSH20 0xFFFFFFFFFFFFFFFFFFFFFFFFFFFFFFFFFFFFFFFF AND PUSH20 0xFFFFFFFFFFFFFFFFFFFFFFFFFFFFFFFFFFFFFFFF AND PUSH20 0xFFFFFFFFFFFFFFFFFFFFFFFFFFFFFFFFFFFFFFFF AND DUP2 MSTORE POP POP SWAP1 POP DUP2 PUSH1 0x20 ADD MLOAD PUSH20 0xFFFFFFFFFFFFFFFFFFFFFFFFFFFFFFFFFFFFFFFF AND PUSH4 0x23B872DD CALLER DUP4 PUSH1 0x40 ADD MLOAD PUSH2 0x138D DUP9 PUSH2 0x1BF3 JUMP JUMPDEST PUSH1 0x40 MLOAD DUP5 PUSH4 0xFFFFFFFF AND PUSH1 0xE0 SHL DUP2 MSTORE PUSH1 0x4 ADD PUSH2 0x13AB SWAP4 SWAP3 SWAP2 SWAP1 PUSH2 0x238A JUMP JUMPDEST PUSH1 0x20 PUSH1 0x40 MLOAD DUP1 DUP4 SUB DUP2 PUSH1 0x0 DUP8 GAS CALL ISZERO DUP1 ISZERO PUSH2 0x13CA JUMPI RETURNDATASIZE PUSH1 0x0 DUP1 RETURNDATACOPY RETURNDATASIZE PUSH1 0x0 REVERT JUMPDEST POP POP POP POP PUSH1 0x40 MLOAD RETURNDATASIZE PUSH1 0x1F NOT PUSH1 0x1F DUP3 ADD AND DUP3 ADD DUP1 PUSH1 0x40 MSTORE POP DUP2 ADD SWAP1 PUSH2 0x13EE SWAP2 SWAP1 PUSH2 0x2600 JUMP JUMPDEST POP PUSH1 0x0 DUP3 PUSH1 0x40 ADD MLOAD SWAP1 POP DUP1 PUSH20 0xFFFFFFFFFFFFFFFFFFFFFFFFFFFFFFFFFFFFFFFF AND PUSH4 0x42842E0E ADDRESS CALLER DUP7 PUSH1 0x60 ADD MLOAD PUSH1 0x40 MLOAD DUP5 PUSH4 0xFFFFFFFF AND PUSH1 0xE0 SHL DUP2 MSTORE PUSH1 0x4 ADD PUSH2 0x1439 SWAP4 SWAP3 SWAP2 SWAP1 PUSH2 0x238A JUMP JUMPDEST PUSH1 0x0 PUSH1 0x40 MLOAD DUP1 DUP4 SUB DUP2 PUSH1 0x0 DUP8 DUP1 EXTCODESIZE ISZERO DUP1 ISZERO PUSH2 0x1453 JUMPI PUSH1 0x0 DUP1 REVERT JUMPDEST POP GAS CALL ISZERO DUP1 ISZERO PUSH2 0x1467 JUMPI RETURNDATASIZE PUSH1 0x0 DUP1 RETURNDATACOPY RETURNDATASIZE PUSH1 0x0 REVERT JUMPDEST POP POP POP POP POP POP POP POP POP JUMP JUMPDEST PUSH1 0x2 PUSH1 0x20 MSTORE DUP2 PUSH1 0x0 MSTORE PUSH1 0x40 PUSH1 0x0 KECCAK256 PUSH1 0x20 MSTORE DUP1 PUSH1 0x0 MSTORE PUSH1 0x40 PUSH1 0x0 KECCAK256 PUSH1 0x0 SWAP2 POP SWAP2 POP POP DUP1 PUSH1 0x0 ADD SLOAD SWAP1 DUP1 PUSH1 0x1 ADD SLOAD SWAP1 DUP1 PUSH1 0x2 ADD PUSH1 0x0 SWAP1 SLOAD SWAP1 PUSH2 0x100 EXP SWAP1 DIV PUSH20 0xFFFFFFFFFFFFFFFFFFFFFFFFFFFFFFFFFFFFFFFF AND SWAP1 POP DUP4 JUMP JUMPDEST PUSH2 0x14D2 DUP3 PUSH2 0x1BD1 JUMP JUMPDEST PUSH2 0x1511 JUMPI PUSH1 0x40 MLOAD PUSH32 0x8C379A000000000000000000000000000000000000000000000000000000000 DUP2 MSTORE PUSH1 0x4 ADD PUSH2 0x1508 SWAP1 PUSH2 0x2479 JUMP JUMPDEST PUSH1 0x40 MLOAD DUP1 SWAP2 SUB SWAP1 REVERT JUMPDEST PUSH2 0x151A DUP3 PUSH2 0x1BAE JUMP JUMPDEST ISZERO PUSH2 0x155A JUMPI PUSH1 0x40 MLOAD PUSH32 0x8C379A000000000000000000000000000000000000000000000000000000000 DUP2 MSTORE PUSH1 0x4 ADD PUSH2 0x1551 SWAP1 PUSH2 0x24E5 JUMP JUMPDEST PUSH1 0x40 MLOAD DUP1 SWAP2 SUB SWAP1 REVERT JUMPDEST PUSH1 0x0 PUSH1 0x1 PUSH1 0x0 DUP5 DUP2 MSTORE PUSH1 0x20 ADD SWAP1 DUP2 MSTORE PUSH1 0x20 ADD PUSH1 0x0 KECCAK256 PUSH1 0x40 MLOAD DUP1 PUSH2 0x120 ADD PUSH1 0x40 MSTORE SWAP1 DUP2 PUSH1 0x0 DUP3 ADD PUSH1 0x0 SWAP1 SLOAD SWAP1 PUSH2 0x100 EXP SWAP1 DIV PUSH20 0xFFFFFFFFFFFFFFFFFFFFFFFFFFFFFFFFFFFFFFFF AND PUSH20 0xFFFFFFFFFFFFFFFFFFFFFFFFFFFFFFFFFFFFFFFF AND PUSH20 0xFFFFFFFFFFFFFFFFFFFFFFFFFFFFFFFFFFFFFFFF AND DUP2 MSTORE PUSH1 0x20 ADD PUSH1 0x1 DUP3 ADD PUSH1 0x0 SWAP1 SLOAD SWAP1 PUSH2 0x100 EXP SWAP1 DIV PUSH20 0xFFFFFFFFFFFFFFFFFFFFFFFFFFFFFFFFFFFFFFFF AND PUSH20 0xFFFFFFFFFFFFFFFFFFFFFFFFFFFFFFFFFFFFFFFF AND PUSH20 0xFFFFFFFFFFFFFFFFFFFFFFFFFFFFFFFFFFFFFFFF AND DUP2 MSTORE PUSH1 0x20 ADD PUSH1 0x2 DUP3 ADD PUSH1 0x0 SWAP1 SLOAD SWAP1 PUSH2 0x100 EXP SWAP1 DIV PUSH20 0xFFFFFFFFFFFFFFFFFFFFFFFFFFFFFFFFFFFFFFFF AND PUSH20 0xFFFFFFFFFFFFFFFFFFFFFFFFFFFFFFFFFFFFFFFF AND PUSH20 0xFFFFFFFFFFFFFFFFFFFFFFFFFFFFFFFFFFFFFFFF AND DUP2 MSTORE PUSH1 0x20 ADD PUSH1 0x3 DUP3 ADD SLOAD DUP2 MSTORE PUSH1 0x20 ADD PUSH1 0x4 DUP3 ADD SLOAD DUP2 MSTORE PUSH1 0x20 ADD PUSH1 0x5 DUP3 ADD SLOAD DUP2 MSTORE PUSH1 0x20 ADD PUSH1 0x6 DUP3 ADD SLOAD DUP2 MSTORE PUSH1 0x20 ADD PUSH1 0x7 DUP3 ADD SLOAD DUP2 MSTORE PUSH1 0x20 ADD PUSH1 0x8 DUP3 ADD PUSH1 0x0 SWAP1 SLOAD SWAP1 PUSH2 0x100 EXP SWAP1 DIV PUSH1 0xFF AND ISZERO ISZERO ISZERO ISZERO DUP2 MSTORE POP POP SWAP1 POP PUSH1 0x0 PUSH1 0x2 PUSH1 0x0 DUP6 DUP2 MSTORE PUSH1 0x20 ADD SWAP1 DUP2 MSTORE PUSH1 0x20 ADD PUSH1 0x0 KECCAK256 PUSH1 0x0 DUP4 PUSH1 0xE0 ADD MLOAD DUP2 MSTORE PUSH1 0x20 ADD SWAP1 DUP2 MSTORE PUSH1 0x20 ADD PUSH1 0x0 KECCAK256 SWAP1 POP CALLER PUSH20 0xFFFFFFFFFFFFFFFFFFFFFFFFFFFFFFFFFFFFFFFF AND DUP2 PUSH1 0x2 ADD PUSH1 0x0 SWAP1 SLOAD SWAP1 PUSH2 0x100 EXP SWAP1 DIV PUSH20 0xFFFFFFFFFFFFFFFFFFFFFFFFFFFFFFFFFFFFFFFF AND PUSH20 0xFFFFFFFFFFFFFFFFFFFFFFFFFFFFFFFFFFFFFFFF AND EQ PUSH2 0x178A JUMPI PUSH1 0x40 MLOAD PUSH32 0x8C379A000000000000000000000000000000000000000000000000000000000 DUP2 MSTORE PUSH1 0x4 ADD PUSH2 0x1781 SWAP1 PUSH2 0x26AD JUMP JUMPDEST PUSH1 0x40 MLOAD DUP1 SWAP2 SUB SWAP1 REVERT JUMPDEST DUP3 DUP2 PUSH1 0x2 ADD PUSH1 0x0 PUSH2 0x100 EXP DUP2 SLOAD DUP2 PUSH20 0xFFFFFFFFFFFFFFFFFFFFFFFFFFFFFFFFFFFFFFFF MUL NOT AND SWAP1 DUP4 PUSH20 0xFFFFFFFFFFFFFFFFFFFFFFFFFFFFFFFFFFFFFFFF AND MUL OR SWAP1 SSTORE POP POP POP POP POP JUMP JUMPDEST PUSH1 0x3 PUSH1 0x20 MSTORE DUP2 PUSH1 0x0 MSTORE PUSH1 0x40 PUSH1 0x0 KECCAK256 DUP2 DUP2 SLOAD DUP2 LT PUSH2 0x17EF JUMPI PUSH1 0x0 DUP1 REVERT JUMPDEST SWAP1 PUSH1 0x0 MSTORE PUSH1 0x20 PUSH1 0x0 KECCAK256 ADD PUSH1 0x0 SWAP2 POP SWAP2 POP SWAP1 SLOAD SWAP1 PUSH2 0x100 EXP SWAP1 DIV PUSH20 0xFFFFFFFFFFFFFFFFFFFFFFFFFFFFFFFFFFFFFFFF AND DUP2 JUMP JUMPDEST PUSH1 0x1 PUSH1 0x20 MSTORE DUP1 PUSH1 0x0 MSTORE PUSH1 0x40 PUSH1 0x0 KECCAK256 PUSH1 0x0 SWAP2 POP SWAP1 POP DUP1 PUSH1 0x0 ADD PUSH1 0x0 SWAP1 SLOAD SWAP1 PUSH2 0x100 EXP SWAP1 DIV PUSH20 0xFFFFFFFFFFFFFFFFFFFFFFFFFFFFFFFFFFFFFFFF AND SWAP1 DUP1 PUSH1 0x1 ADD PUSH1 0x0 SWAP1 SLOAD SWAP1 PUSH2 0x100 EXP SWAP1 DIV PUSH20 0xFFFFFFFFFFFFFFFFFFFFFFFFFFFFFFFFFFFFFFFF AND SWAP1 DUP1 PUSH1 0x2 ADD PUSH1 0x0 SWAP1 SLOAD SWAP1 PUSH2 0x100 EXP SWAP1 DIV PUSH20 0xFFFFFFFFFFFFFFFFFFFFFFFFFFFFFFFFFFFFFFFF AND SWAP1 DUP1 PUSH1 0x3 ADD SLOAD SWAP1 DUP1 PUSH1 0x4 ADD SLOAD SWAP1 DUP1 PUSH1 0x5 ADD SLOAD SWAP1 DUP1 PUSH1 0x6 ADD SLOAD SWAP1 DUP1 PUSH1 0x7 ADD SLOAD SWAP1 DUP1 PUSH1 0x8 ADD PUSH1 0x0 SWAP1 SLOAD SWAP1 PUSH2 0x100 EXP SWAP1 DIV PUSH1 0xFF AND SWAP1 POP DUP10 JUMP JUMPDEST TIMESTAMP DUP4 LT ISZERO PUSH2 0x191F JUMPI PUSH1 0x40 MLOAD PUSH32 0x8C379A000000000000000000000000000000000000000000000000000000000 DUP2 MSTORE PUSH1 0x4 ADD PUSH2 0x1916 SWAP1 PUSH2 0x2719 JUMP JUMPDEST PUSH1 0x40 MLOAD DUP1 SWAP2 SUB SWAP1 REVERT JUMPDEST DUP3 DUP3 GT PUSH2 0x1961 JUMPI PUSH1 0x40 MLOAD PUSH32 0x8C379A000000000000000000000000000000000000000000000000000000000 DUP2 MSTORE PUSH1 0x4 ADD PUSH2 0x1958 SWAP1 PUSH2 0x2785 JUMP JUMPDEST PUSH1 0x40 MLOAD DUP1 SWAP2 SUB SWAP1 REVERT JUMPDEST PUSH1 0x40 MLOAD DUP1 PUSH2 0x120 ADD PUSH1 0x40 MSTORE DUP1 CALLER PUSH20 0xFFFFFFFFFFFFFFFFFFFFFFFFFFFFFFFFFFFFFFFF AND DUP2 MSTORE PUSH1 0x20 ADD DUP8 PUSH20 0xFFFFFFFFFFFFFFFFFFFFFFFFFFFFFFFFFFFFFFFF AND DUP2 MSTORE PUSH1 0x20 ADD DUP7 PUSH20 0xFFFFFFFFFFFFFFFFFFFFFFFFFFFFFFFFFFFFFFFF AND DUP2 MSTORE PUSH1 0x20 ADD DUP6 DUP2 MSTORE PUSH1 0x20 ADD DUP5 DUP2 MSTORE PUSH1 0x20 ADD DUP4 DUP2 MSTORE PUSH1 0x20 ADD DUP3 DUP2 MSTORE PUSH1 0x20 ADD PUSH1 0x0 DUP2 MSTORE PUSH1 0x20 ADD PUSH1 0x0 ISZERO ISZERO DUP2 MSTORE POP PUSH1 0x1 PUSH1 0x0 DUP1 SLOAD DUP2 MSTORE PUSH1 0x20 ADD SWAP1 DUP2 MSTORE PUSH1 0x20 ADD PUSH1 0x0 KECCAK256 PUSH1 0x0 DUP3 ADD MLOAD DUP2 PUSH1 0x0 ADD PUSH1 0x0 PUSH2 0x100 EXP DUP2 SLOAD DUP2 PUSH20 0xFFFFFFFFFFFFFFFFFFFFFFFFFFFFFFFFFFFFFFFF MUL NOT AND SWAP1 DUP4 PUSH20 0xFFFFFFFFFFFFFFFFFFFFFFFFFFFFFFFFFFFFFFFF AND MUL OR SWAP1 SSTORE POP PUSH1 0x20 DUP3 ADD MLOAD DUP2 PUSH1 0x1 ADD PUSH1 0x0 PUSH2 0x100 EXP DUP2 SLOAD DUP2 PUSH20 0xFFFFFFFFFFFFFFFFFFFFFFFFFFFFFFFFFFFFFFFF MUL NOT AND SWAP1 DUP4 PUSH20 0xFFFFFFFFFFFFFFFFFFFFFFFFFFFFFFFFFFFFFFFF AND MUL OR SWAP1 SSTORE POP PUSH1 0x40 DUP3 ADD MLOAD DUP2 PUSH1 0x2 ADD PUSH1 0x0 PUSH2 0x100 EXP DUP2 SLOAD DUP2 PUSH20 0xFFFFFFFFFFFFFFFFFFFFFFFFFFFFFFFFFFFFFFFF MUL NOT AND SWAP1 DUP4 PUSH20 0xFFFFFFFFFFFFFFFFFFFFFFFFFFFFFFFFFFFFFFFF AND MUL OR SWAP1 SSTORE POP PUSH1 0x60 DUP3 ADD MLOAD DUP2 PUSH1 0x3 ADD SSTORE PUSH1 0x80 DUP3 ADD MLOAD DUP2 PUSH1 0x4 ADD SSTORE PUSH1 0xA0 DUP3 ADD MLOAD DUP2 PUSH1 0x5 ADD SSTORE PUSH1 0xC0 DUP3 ADD MLOAD DUP2 PUSH1 0x6 ADD SSTORE PUSH1 0xE0 DUP3 ADD MLOAD DUP2 PUSH1 0x7 ADD SSTORE PUSH2 0x100 DUP3 ADD MLOAD DUP2 PUSH1 0x8 ADD PUSH1 0x0 PUSH2 0x100 EXP DUP2 SLOAD DUP2 PUSH1 0xFF MUL NOT AND SWAP1 DUP4 ISZERO ISZERO MUL OR SWAP1 SSTORE POP SWAP1 POP POP TIMESTAMP PUSH1 0x2 PUSH1 0x0 DUP1 SLOAD DUP2 MSTORE PUSH1 0x20 ADD SWAP1 DUP2 MSTORE PUSH1 0x20 ADD PUSH1 0x0 KECCAK256 PUSH1 0x0 DUP1 DUP2 MSTORE PUSH1 0x20 ADD SWAP1 DUP2 MSTORE PUSH1 0x20 ADD PUSH1 0x0 KECCAK256 PUSH1 0x0 ADD DUP2 SWAP1 SSTORE POP PUSH1 0x0 SLOAD PUSH32 0xEF8B2952C43462575E82711D0CC91169720A4589A9FA533D173E022437F5405E DUP7 DUP7 PUSH1 0x40 MLOAD PUSH2 0x1B87 SWAP3 SWAP2 SWAP1 PUSH2 0x27A5 JUMP JUMPDEST PUSH1 0x40 MLOAD DUP1 SWAP2 SUB SWAP1 LOG2 PUSH1 0x0 DUP1 DUP2 SLOAD DUP1 SWAP3 SWAP2 SWAP1 PUSH2 0x1BA1 SWAP1 PUSH2 0x27CE JUMP JUMPDEST SWAP2 SWAP1 POP SSTORE POP POP POP POP POP POP POP JUMP JUMPDEST PUSH1 0x0 TIMESTAMP PUSH1 0x1 PUSH1 0x0 DUP5 DUP2 MSTORE PUSH1 0x20 ADD SWAP1 DUP2 MSTORE PUSH1 0x20 ADD PUSH1 0x0 KECCAK256 PUSH1 0x5 ADD SLOAD GT ISZERO SWAP1 POP SWAP2 SWAP1 POP JUMP JUMPDEST PUSH1 0x0 TIMESTAMP PUSH1 0x1 PUSH1 0x0 DUP5 DUP2 MSTORE PUSH1 0x20 ADD SWAP1 DUP2 MSTORE PUSH1 0x20 ADD PUSH1 0x0 KECCAK256 PUSH1 0x4 ADD SLOAD LT SWAP1 POP SWAP2 SWAP1 POP JUMP JUMPDEST PUSH1 0x0 DUP1 PUSH1 0x1 PUSH1 0x0 DUP5 DUP2 MSTORE PUSH1 0x20 ADD SWAP1 DUP2 MSTORE PUSH1 0x20 ADD PUSH1 0x0 KECCAK256 PUSH1 0x40 MLOAD DUP1 PUSH2 0x120 ADD PUSH1 0x40 MSTORE SWAP1 DUP2 PUSH1 0x0 DUP3 ADD PUSH1 0x0 SWAP1 SLOAD SWAP1 PUSH2 0x100 EXP SWAP1 DIV PUSH20 0xFFFFFFFFFFFFFFFFFFFFFFFFFFFFFFFFFFFFFFFF AND PUSH20 0xFFFFFFFFFFFFFFFFFFFFFFFFFFFFFFFFFFFFFFFF AND PUSH20 0xFFFFFFFFFFFFFFFFFFFFFFFFFFFFFFFFFFFFFFFF AND DUP2 MSTORE PUSH1 0x20 ADD PUSH1 0x1 DUP3 ADD PUSH1 0x0 SWAP1 SLOAD SWAP1 PUSH2 0x100 EXP SWAP1 DIV PUSH20 0xFFFFFFFFFFFFFFFFFFFFFFFFFFFFFFFFFFFFFFFF AND PUSH20 0xFFFFFFFFFFFFFFFFFFFFFFFFFFFFFFFFFFFFFFFF AND PUSH20 0xFFFFFFFFFFFFFFFFFFFFFFFFFFFFFFFFFFFFFFFF AND DUP2 MSTORE PUSH1 0x20 ADD PUSH1 0x2 DUP3 ADD PUSH1 0x0 SWAP1 SLOAD SWAP1 PUSH2 0x100 EXP SWAP1 DIV PUSH20 0xFFFFFFFFFFFFFFFFFFFFFFFFFFFFFFFFFFFFFFFF AND PUSH20 0xFFFFFFFFFFFFFFFFFFFFFFFFFFFFFFFFFFFFFFFF AND PUSH20 0xFFFFFFFFFFFFFFFFFFFFFFFFFFFFFFFFFFFFFFFF AND DUP2 MSTORE PUSH1 0x20 ADD PUSH1 0x3 DUP3 ADD SLOAD DUP2 MSTORE PUSH1 0x20 ADD PUSH1 0x4 DUP3 ADD SLOAD DUP2 MSTORE PUSH1 0x20 ADD PUSH1 0x5 DUP3 ADD SLOAD DUP2 MSTORE PUSH1 0x20 ADD PUSH1 0x6 DUP3 ADD SLOAD DUP2 MSTORE PUSH1 0x20 ADD PUSH1 0x7 DUP3 ADD SLOAD DUP2 MSTORE PUSH1 0x20 ADD PUSH1 0x8 DUP3 ADD PUSH1 0x0 SWAP1 SLOAD SWAP1 PUSH2 0x100 EXP SWAP1 DIV PUSH1 0xFF AND ISZERO ISZERO ISZERO ISZERO DUP2 MSTORE POP POP SWAP1 POP PUSH1 0x0 PUSH1 0x2 PUSH1 0x0 DUP6 DUP2 MSTORE PUSH1 0x20 ADD SWAP1 DUP2 MSTORE PUSH1 0x20 ADD PUSH1 0x0 KECCAK256 PUSH1 0x0 DUP4 PUSH1 0xE0 ADD MLOAD DUP2 MSTORE PUSH1 0x20 ADD SWAP1 DUP2 MSTORE PUSH1 0x20 ADD PUSH1 0x0 KECCAK256 PUSH1 0x40 MLOAD DUP1 PUSH1 0x60 ADD PUSH1 0x40 MSTORE SWAP1 DUP2 PUSH1 0x0 DUP3 ADD SLOAD DUP2 MSTORE PUSH1 0x20 ADD PUSH1 0x1 DUP3 ADD SLOAD DUP2 MSTORE PUSH1 0x20 ADD PUSH1 0x2 DUP3 ADD PUSH1 0x0 SWAP1 SLOAD SWAP1 PUSH2 0x100 EXP SWAP1 DIV PUSH20 0xFFFFFFFFFFFFFFFFFFFFFFFFFFFFFFFFFFFFFFFF AND PUSH20 0xFFFFFFFFFFFFFFFFFFFFFFFFFFFFFFFFFFFFFFFF AND PUSH20 0xFFFFFFFFFFFFFFFFFFFFFFFFFFFFFFFFFFFFFFFF AND DUP2 MSTORE POP POP SWAP1 POP PUSH1 0x0 PUSH2 0x1E12 DUP6 PUSH2 0x1BAE JUMP JUMPDEST ISZERO PUSH2 0x1E32 JUMPI DUP3 PUSH1 0xA0 ADD MLOAD DUP3 PUSH1 0x0 ADD MLOAD PUSH2 0x1E2B SWAP2 SWAP1 PUSH2 0x262D JUMP JUMPDEST SWAP1 POP PUSH2 0x1E45 JUMP JUMPDEST TIMESTAMP DUP3 PUSH1 0x0 ADD MLOAD PUSH2 0x1E42 SWAP2 SWAP1 PUSH2 0x262D JUMP JUMPDEST SWAP1 POP JUMPDEST PUSH4 0x1E13380 DUP2 PUSH8 0xDE0B6B3A7640000 DUP6 PUSH1 0xC0 ADD MLOAD DUP6 PUSH1 0x20 ADD MLOAD PUSH2 0x1E68 SWAP2 SWAP1 PUSH2 0x2816 JUMP JUMPDEST PUSH2 0x1E72 SWAP2 SWAP1 PUSH2 0x289F JUMP JUMPDEST PUSH2 0x1E7C SWAP2 SWAP1 PUSH2 0x2816 JUMP JUMPDEST PUSH2 0x1E86 SWAP2 SWAP1 PUSH2 0x289F JUMP JUMPDEST DUP3 PUSH1 0x20 ADD MLOAD PUSH2 0x1E95 SWAP2 SWAP1 PUSH2 0x2534 JUMP JUMPDEST SWAP4 POP POP POP POP SWAP2 SWAP1 POP JUMP JUMPDEST PUSH1 0x40 MLOAD DUP1 PUSH2 0x120 ADD PUSH1 0x40 MSTORE DUP1 PUSH1 0x0 PUSH20 0xFFFFFFFFFFFFFFFFFFFFFFFFFFFFFFFFFFFFFFFF AND DUP2 MSTORE PUSH1 0x20 ADD PUSH1 0x0 PUSH20 0xFFFFFFFFFFFFFFFFFFFFFFFFFFFFFFFFFFFFFFFF AND DUP2 MSTORE PUSH1 0x20 ADD PUSH1 0x0 PUSH20 0xFFFFFFFFFFFFFFFFFFFFFFFFFFFFFFFFFFFFFFFF AND DUP2 MSTORE PUSH1 0x20 ADD PUSH1 0x0 DUP2 MSTORE PUSH1 0x20 ADD PUSH1 0x0 DUP2 MSTORE PUSH1 0x20 ADD PUSH1 0x0 DUP2 MSTORE PUSH1 0x20 ADD PUSH1 0x0 DUP2 MSTORE PUSH1 0x20 ADD PUSH1 0x0 DUP2 MSTORE PUSH1 0x20 ADD PUSH1 0x0 ISZERO ISZERO DUP2 MSTORE POP SWAP1 JUMP JUMPDEST PUSH1 0x0 DUP2 SWAP1 POP SWAP2 SWAP1 POP JUMP JUMPDEST PUSH2 0x1F42 DUP2 PUSH2 0x1F2F JUMP JUMPDEST DUP3 MSTORE POP POP JUMP JUMPDEST PUSH1 0x0 PUSH1 0x20 DUP3 ADD SWAP1 POP PUSH2 0x1F5D PUSH1 0x0 DUP4 ADD DUP5 PUSH2 0x1F39 JUMP JUMPDEST SWAP3 SWAP2 POP POP JUMP JUMPDEST PUSH1 0x0 DUP1 REVERT JUMPDEST PUSH2 0x1F71 DUP2 PUSH2 0x1F2F JUMP JUMPDEST DUP2 EQ PUSH2 0x1F7C JUMPI PUSH1 0x0 DUP1 REVERT JUMPDEST POP JUMP JUMPDEST PUSH1 0x0 DUP2 CALLDATALOAD SWAP1 POP PUSH2 0x1F8E DUP2 PUSH2 0x1F68 JUMP JUMPDEST SWAP3 SWAP2 POP POP JUMP JUMPDEST PUSH1 0x0 PUSH1 0x20 DUP3 DUP5 SUB SLT ISZERO PUSH2 0x1FAA JUMPI PUSH2 0x1FA9 PUSH2 0x1F63 JUMP JUMPDEST JUMPDEST PUSH1 0x0 PUSH2 0x1FB8 DUP5 DUP3 DUP6 ADD PUSH2 0x1F7F JUMP JUMPDEST SWAP2 POP POP SWAP3 SWAP2 POP POP JUMP JUMPDEST PUSH1 0x0 DUP1 PUSH1 0x40 DUP4 DUP6 SUB SLT ISZERO PUSH2 0x1FD8 JUMPI PUSH2 0x1FD7 PUSH2 0x1F63 JUMP JUMPDEST JUMPDEST PUSH1 0x0 PUSH2 0x1FE6 DUP6 DUP3 DUP7 ADD PUSH2 0x1F7F JUMP JUMPDEST SWAP3 POP POP PUSH1 0x20 PUSH2 0x1FF7 DUP6 DUP3 DUP7 ADD PUSH2 0x1F7F JUMP JUMPDEST SWAP2 POP POP SWAP3 POP SWAP3 SWAP1 POP JUMP JUMPDEST PUSH1 0x0 PUSH20 0xFFFFFFFFFFFFFFFFFFFFFFFFFFFFFFFFFFFFFFFF DUP3 AND SWAP1 POP SWAP2 SWAP1 POP JUMP JUMPDEST PUSH1 0x0 PUSH2 0x202C DUP3 PUSH2 0x2001 JUMP JUMPDEST SWAP1 POP SWAP2 SWAP1 POP JUMP JUMPDEST PUSH2 0x203C DUP2 PUSH2 0x2021 JUMP JUMPDEST DUP3 MSTORE POP POP JUMP JUMPDEST PUSH1 0x0 PUSH1 0x60 DUP3 ADD SWAP1 POP PUSH2 0x2057 PUSH1 0x0 DUP4 ADD DUP7 PUSH2 0x1F39 JUMP JUMPDEST PUSH2 0x2064 PUSH1 0x20 DUP4 ADD DUP6 PUSH2 0x1F39 JUMP JUMPDEST PUSH2 0x2071 PUSH1 0x40 DUP4 ADD DUP5 PUSH2 0x2033 JUMP JUMPDEST SWAP5 SWAP4 POP POP POP POP JUMP JUMPDEST PUSH2 0x2082 DUP2 PUSH2 0x2021 JUMP JUMPDEST DUP2 EQ PUSH2 0x208D JUMPI PUSH1 0x0 DUP1 REVERT JUMPDEST POP JUMP JUMPDEST PUSH1 0x0 DUP2 CALLDATALOAD SWAP1 POP PUSH2 0x209F DUP2 PUSH2 0x2079 JUMP JUMPDEST SWAP3 SWAP2 POP POP JUMP JUMPDEST PUSH1 0x0 DUP1 PUSH1 0x40 DUP4 DUP6 SUB SLT ISZERO PUSH2 0x20BC JUMPI PUSH2 0x20BB PUSH2 0x1F63 JUMP JUMPDEST JUMPDEST PUSH1 0x0 PUSH2 0x20CA DUP6 DUP3 DUP7 ADD PUSH2 0x1F7F JUMP JUMPDEST SWAP3 POP POP PUSH1 0x20 PUSH2 0x20DB DUP6 DUP3 DUP7 ADD PUSH2 0x2090 JUMP JUMPDEST SWAP2 POP POP SWAP3 POP SWAP3 SWAP1 POP JUMP JUMPDEST PUSH1 0x0 PUSH1 0x20 DUP3 ADD SWAP1 POP PUSH2 0x20FA PUSH1 0x0 DUP4 ADD DUP5 PUSH2 0x2033 JUMP JUMPDEST SWAP3 SWAP2 POP POP JUMP JUMPDEST PUSH1 0x0 DUP2 ISZERO ISZERO SWAP1 POP SWAP2 SWAP1 POP JUMP JUMPDEST PUSH2 0x2115 DUP2 PUSH2 0x2100 JUMP JUMPDEST DUP3 MSTORE POP POP JUMP JUMPDEST PUSH1 0x0 PUSH2 0x120 DUP3 ADD SWAP1 POP PUSH2 0x2131 PUSH1 0x0 DUP4 ADD DUP13 PUSH2 0x2033 JUMP JUMPDEST PUSH2 0x213E PUSH1 0x20 DUP4 ADD DUP12 PUSH2 0x2033 JUMP JUMPDEST PUSH2 0x214B PUSH1 0x40 DUP4 ADD DUP11 PUSH2 0x2033 JUMP JUMPDEST PUSH2 0x2158 PUSH1 0x60 DUP4 ADD DUP10 PUSH2 0x1F39 JUMP JUMPDEST PUSH2 0x2165 PUSH1 0x80 DUP4 ADD DUP9 PUSH2 0x1F39 JUMP JUMPDEST PUSH2 0x2172 PUSH1 0xA0 DUP4 ADD DUP8 PUSH2 0x1F39 JUMP JUMPDEST PUSH2 0x217F PUSH1 0xC0 DUP4 ADD DUP7 PUSH2 0x1F39 JUMP JUMPDEST PUSH2 0x218C PUSH1 0xE0 DUP4 ADD DUP6 PUSH2 0x1F39 JUMP JUMPDEST PUSH2 0x219A PUSH2 0x100 DUP4 ADD DUP5 PUSH2 0x210C JUMP JUMPDEST SWAP11 SWAP10 POP POP POP POP POP POP POP POP POP POP JUMP JUMPDEST PUSH1 0x0 DUP1 PUSH1 0x0 DUP1 PUSH1 0x0 DUP1 PUSH1 0xC0 DUP8 DUP10 SUB SLT ISZERO PUSH2 0x21C5 JUMPI PUSH2 0x21C4 PUSH2 0x1F63 JUMP JUMPDEST JUMPDEST PUSH1 0x0 PUSH2 0x21D3 DUP10 DUP3 DUP11 ADD PUSH2 0x2090 JUMP JUMPDEST SWAP7 POP POP PUSH1 0x20 PUSH2 0x21E4 DUP10 DUP3 DUP11 ADD PUSH2 0x2090 JUMP JUMPDEST SWAP6 POP POP PUSH1 0x40 PUSH2 0x21F5 DUP10 DUP3 DUP11 ADD PUSH2 0x1F7F JUMP JUMPDEST SWAP5 POP POP PUSH1 0x60 PUSH2 0x2206 DUP10 DUP3 DUP11 ADD PUSH2 0x1F7F JUMP JUMPDEST SWAP4 POP POP PUSH1 0x80 PUSH2 0x2217 DUP10 DUP3 DUP11 ADD PUSH2 0x1F7F JUMP JUMPDEST SWAP3 POP POP PUSH1 0xA0 PUSH2 0x2228 DUP10 DUP3 DUP11 ADD PUSH2 0x1F7F JUMP JUMPDEST SWAP2 POP POP SWAP3 SWAP6 POP SWAP3 SWAP6 POP SWAP3 SWAP6 JUMP JUMPDEST PUSH1 0x0 DUP3 DUP3 MSTORE PUSH1 0x20 DUP3 ADD SWAP1 POP SWAP3 SWAP2 POP POP JUMP JUMPDEST PUSH32 0x4C414E3A206E6F74206F776E6572000000000000000000000000000000000000 PUSH1 0x0 DUP3 ADD MSTORE POP JUMP JUMPDEST PUSH1 0x0 PUSH2 0x227C PUSH1 0xE DUP4 PUSH2 0x2235 JUMP JUMPDEST SWAP2 POP PUSH2 0x2287 DUP3 PUSH2 0x2246 JUMP JUMPDEST PUSH1 0x20 DUP3 ADD SWAP1 POP SWAP2 SWAP1 POP JUMP JUMPDEST PUSH1 0x0 PUSH1 0x20 DUP3 ADD SWAP1 POP DUP2 DUP2 SUB PUSH1 0x0 DUP4 ADD MSTORE PUSH2 0x22AB DUP2 PUSH2 0x226F JUMP JUMPDEST SWAP1 POP SWAP2 SWAP1 POP JUMP JUMPDEST PUSH32 0x4C414E3A206C6F616E206E6F7420656E64656400000000000000000000000000 PUSH1 0x0 DUP3 ADD MSTORE POP JUMP JUMPDEST PUSH1 0x0 PUSH2 0x22E8 PUSH1 0x13 DUP4 PUSH2 0x2235 JUMP JUMPDEST SWAP2 POP PUSH2 0x22F3 DUP3 PUSH2 0x22B2 JUMP JUMPDEST PUSH1 0x20 DUP3 ADD SWAP1 POP SWAP2 SWAP1 POP JUMP JUMPDEST PUSH1 0x0 PUSH1 0x20 DUP3 ADD SWAP1 POP DUP2 DUP2 SUB PUSH1 0x0 DUP4 ADD MSTORE PUSH2 0x2317 DUP2 PUSH2 0x22DB JUMP JUMPDEST SWAP1 POP SWAP2 SWAP1 POP JUMP JUMPDEST PUSH32 0x4C414E3A206E6F74206C61746573742062696464657200000000000000000000 PUSH1 0x0 DUP3 ADD MSTORE POP JUMP JUMPDEST PUSH1 0x0 PUSH2 0x2354 PUSH1 0x16 DUP4 PUSH2 0x2235 JUMP JUMPDEST SWAP2 POP PUSH2 0x235F DUP3 PUSH2 0x231E JUMP JUMPDEST PUSH1 0x20 DUP3 ADD SWAP1 POP SWAP2 SWAP1 POP JUMP JUMPDEST PUSH1 0x0 PUSH1 0x20 DUP3 ADD SWAP1 POP DUP2 DUP2 SUB PUSH1 0x0 DUP4 ADD MSTORE PUSH2 0x2383 DUP2 PUSH2 0x2347 JUMP JUMPDEST SWAP1 POP SWAP2 SWAP1 POP JUMP JUMPDEST PUSH1 0x0 PUSH1 0x60 DUP3 ADD SWAP1 POP PUSH2 0x239F PUSH1 0x0 DUP4 ADD DUP7 PUSH2 0x2033 JUMP JUMPDEST PUSH2 0x23AC PUSH1 0x20 DUP4 ADD DUP6 PUSH2 0x2033 JUMP JUMPDEST PUSH2 0x23B9 PUSH1 0x40 DUP4 ADD DUP5 PUSH2 0x1F39 JUMP JUMPDEST SWAP5 SWAP4 POP POP POP POP JUMP JUMPDEST PUSH32 0x4C414E3A20616C72656164792073746172746564000000000000000000000000 PUSH1 0x0 DUP3 ADD MSTORE POP JUMP JUMPDEST PUSH1 0x0 PUSH2 0x23F7 PUSH1 0x14 DUP4 PUSH2 0x2235 JUMP JUMPDEST SWAP2 POP PUSH2 0x2402 DUP3 PUSH2 0x23C1 JUMP JUMPDEST PUSH1 0x20 DUP3 ADD SWAP1 POP SWAP2 SWAP1 POP JUMP JUMPDEST PUSH1 0x0 PUSH1 0x20 DUP3 ADD SWAP1 POP DUP2 DUP2 SUB PUSH1 0x0 DUP4 ADD MSTORE PUSH2 0x2426 DUP2 PUSH2 0x23EA JUMP JUMPDEST SWAP1 POP SWAP2 SWAP1 POP JUMP JUMPDEST PUSH32 0x4C414E3A206E6F74207374617274656400000000000000000000000000000000 PUSH1 0x0 DUP3 ADD MSTORE POP JUMP JUMPDEST PUSH1 0x0 PUSH2 0x2463 PUSH1 0x10 DUP4 PUSH2 0x2235 JUMP JUMPDEST SWAP2 POP PUSH2 0x246E DUP3 PUSH2 0x242D JUMP JUMPDEST PUSH1 0x20 DUP3 ADD SWAP1 POP SWAP2 SWAP1 POP JUMP JUMPDEST PUSH1 0x0 PUSH1 0x20 DUP3 ADD SWAP1 POP DUP2 DUP2 SUB PUSH1 0x0 DUP4 ADD MSTORE PUSH2 0x2492 DUP2 PUSH2 0x2456 JUMP JUMPDEST SWAP1 POP SWAP2 SWAP1 POP JUMP JUMPDEST PUSH32 0x4C414E3A20616C726561647920656E6465640000000000000000000000000000 PUSH1 0x0 DUP3 ADD MSTORE POP JUMP JUMPDEST PUSH1 0x0 PUSH2 0x24CF PUSH1 0x12 DUP4 PUSH2 0x2235 JUMP JUMPDEST SWAP2 POP PUSH2 0x24DA DUP3 PUSH2 0x2499 JUMP JUMPDEST PUSH1 0x20 DUP3 ADD SWAP1 POP SWAP2 SWAP1 POP JUMP JUMPDEST PUSH1 0x0 PUSH1 0x20 DUP3 ADD SWAP1 POP DUP2 DUP2 SUB PUSH1 0x0 DUP4 ADD MSTORE PUSH2 0x24FE DUP2 PUSH2 0x24C2 JUMP JUMPDEST SWAP1 POP SWAP2 SWAP1 POP JUMP JUMPDEST PUSH32 0x4E487B7100000000000000000000000000000000000000000000000000000000 PUSH1 0x0 MSTORE PUSH1 0x11 PUSH1 0x4 MSTORE PUSH1 0x24 PUSH1 0x0 REVERT JUMPDEST PUSH1 0x0 PUSH2 0x253F DUP3 PUSH2 0x1F2F JUMP JUMPDEST SWAP2 POP PUSH2 0x254A DUP4 PUSH2 0x1F2F JUMP JUMPDEST SWAP3 POP DUP3 DUP3 ADD SWAP1 POP DUP1 DUP3 GT ISZERO PUSH2 0x2562 JUMPI PUSH2 0x2561 PUSH2 0x2505 JUMP JUMPDEST JUMPDEST SWAP3 SWAP2 POP POP JUMP JUMPDEST PUSH32 0x4C414E3A20626964206E6F742068696768657200000000000000000000000000 PUSH1 0x0 DUP3 ADD MSTORE POP JUMP JUMPDEST PUSH1 0x0 PUSH2 0x259E PUSH1 0x13 DUP4 PUSH2 0x2235 JUMP JUMPDEST SWAP2 POP PUSH2 0x25A9 DUP3 PUSH2 0x2568 JUMP JUMPDEST PUSH1 0x20 DUP3 ADD SWAP1 POP SWAP2 SWAP1 POP JUMP JUMPDEST PUSH1 0x0 PUSH1 0x20 DUP3 ADD SWAP1 POP DUP2 DUP2 SUB PUSH1 0x0 DUP4 ADD MSTORE PUSH2 0x25CD DUP2 PUSH2 0x2591 JUMP JUMPDEST SWAP1 POP SWAP2 SWAP1 POP JUMP JUMPDEST PUSH2 0x25DD DUP2 PUSH2 0x2100 JUMP JUMPDEST DUP2 EQ PUSH2 0x25E8 JUMPI PUSH1 0x0 DUP1 REVERT JUMPDEST POP JUMP JUMPDEST PUSH1 0x0 DUP2 MLOAD SWAP1 POP PUSH2 0x25FA DUP2 PUSH2 0x25D4 JUMP JUMPDEST SWAP3 SWAP2 POP POP JUMP JUMPDEST PUSH1 0x0 PUSH1 0x20 DUP3 DUP5 SUB SLT ISZERO PUSH2 0x2616 JUMPI PUSH2 0x2615 PUSH2 0x1F63 JUMP JUMPDEST JUMPDEST PUSH1 0x0 PUSH2 0x2624 DUP5 DUP3 DUP6 ADD PUSH2 0x25EB JUMP JUMPDEST SWAP2 POP POP SWAP3 SWAP2 POP POP JUMP JUMPDEST PUSH1 0x0 PUSH2 0x2638 DUP3 PUSH2 0x1F2F JUMP JUMPDEST SWAP2 POP PUSH2 0x2643 DUP4 PUSH2 0x1F2F JUMP JUMPDEST SWAP3 POP DUP3 DUP3 SUB SWAP1 POP DUP2 DUP2 GT ISZERO PUSH2 0x265B JUMPI PUSH2 0x265A PUSH2 0x2505 JUMP JUMPDEST JUMPDEST SWAP3 SWAP2 POP POP JUMP JUMPDEST PUSH32 0x4C414E3A204E6F7420746865206C617465737420626964646572000000000000 PUSH1 0x0 DUP3 ADD MSTORE POP JUMP JUMPDEST PUSH1 0x0 PUSH2 0x2697 PUSH1 0x1A DUP4 PUSH2 0x2235 JUMP JUMPDEST SWAP2 POP PUSH2 0x26A2 DUP3 PUSH2 0x2661 JUMP JUMPDEST PUSH1 0x20 DUP3 ADD SWAP1 POP SWAP2 SWAP1 POP JUMP JUMPDEST PUSH1 0x0 PUSH1 0x20 DUP3 ADD SWAP1 POP DUP2 DUP2 SUB PUSH1 0x0 DUP4 ADD MSTORE PUSH2 0x26C6 DUP2 PUSH2 0x268A JUMP JUMPDEST SWAP1 POP SWAP2 SWAP1 POP JUMP JUMPDEST PUSH32 0x4C414E3A2073746172742074696D6520696E2070617374000000000000000000 PUSH1 0x0 DUP3 ADD MSTORE POP JUMP JUMPDEST PUSH1 0x0 PUSH2 0x2703 PUSH1 0x17 DUP4 PUSH2 0x2235 JUMP JUMPDEST SWAP2 POP PUSH2 0x270E DUP3 PUSH2 0x26CD JUMP JUMPDEST PUSH1 0x20 DUP3 ADD SWAP1 POP SWAP2 SWAP1 POP JUMP JUMPDEST PUSH1 0x0 PUSH1 0x20 DUP3 ADD SWAP1 POP DUP2 DUP2 SUB PUSH1 0x0 DUP4 ADD MSTORE PUSH2 0x2732 DUP2 PUSH2 0x26F6 JUMP JUMPDEST SWAP1 POP SWAP2 SWAP1 POP JUMP JUMPDEST PUSH32 0x4C414E3A20737461727420616674657220656E64000000000000000000000000 PUSH1 0x0 DUP3 ADD MSTORE POP JUMP JUMPDEST PUSH1 0x0 PUSH2 0x276F PUSH1 0x14 DUP4 PUSH2 0x2235 JUMP JUMPDEST SWAP2 POP PUSH2 0x277A DUP3 PUSH2 0x2739 JUMP JUMPDEST PUSH1 0x20 DUP3 ADD SWAP1 POP SWAP2 SWAP1 POP JUMP JUMPDEST PUSH1 0x0 PUSH1 0x20 DUP3 ADD SWAP1 POP DUP2 DUP2 SUB PUSH1 0x0 DUP4 ADD MSTORE PUSH2 0x279E DUP2 PUSH2 0x2762 JUMP JUMPDEST SWAP1 POP SWAP2 SWAP1 POP JUMP JUMPDEST PUSH1 0x0 PUSH1 0x40 DUP3 ADD SWAP1 POP PUSH2 0x27BA PUSH1 0x0 DUP4 ADD DUP6 PUSH2 0x2033 JUMP JUMPDEST PUSH2 0x27C7 PUSH1 0x20 DUP4 ADD DUP5 PUSH2 0x1F39 JUMP JUMPDEST SWAP4 SWAP3 POP POP POP JUMP JUMPDEST PUSH1 0x0 PUSH2 0x27D9 DUP3 PUSH2 0x1F2F JUMP JUMPDEST SWAP2 POP PUSH32 0xFFFFFFFFFFFFFFFFFFFFFFFFFFFFFFFFFFFFFFFFFFFFFFFFFFFFFFFFFFFFFFFF DUP3 SUB PUSH2 0x280B JUMPI PUSH2 0x280A PUSH2 0x2505 JUMP JUMPDEST JUMPDEST PUSH1 0x1 DUP3 ADD SWAP1 POP SWAP2 SWAP1 POP JUMP JUMPDEST PUSH1 0x0 PUSH2 0x2821 DUP3 PUSH2 0x1F2F JUMP JUMPDEST SWAP2 POP PUSH2 0x282C DUP4 PUSH2 0x1F2F JUMP JUMPDEST SWAP3 POP DUP2 PUSH32 0xFFFFFFFFFFFFFFFFFFFFFFFFFFFFFFFFFFFFFFFFFFFFFFFFFFFFFFFFFFFFFFFF DIV DUP4 GT DUP3 ISZERO ISZERO AND ISZERO PUSH2 0x2865 JUMPI PUSH2 0x2864 PUSH2 0x2505 JUMP JUMPDEST JUMPDEST DUP3 DUP3 MUL SWAP1 POP SWAP3 SWAP2 POP POP JUMP JUMPDEST PUSH32 0x4E487B7100000000000000000000000000000000000000000000000000000000 PUSH1 0x0 MSTORE PUSH1 0x12 PUSH1 0x4 MSTORE PUSH1 0x24 PUSH1 0x0 REVERT JUMPDEST PUSH1 0x0 PUSH2 0x28AA DUP3 PUSH2 0x1F2F JUMP JUMPDEST SWAP2 POP PUSH2 0x28B5 DUP4 PUSH2 0x1F2F JUMP JUMPDEST SWAP3 POP DUP3 PUSH2 0x28C5 JUMPI PUSH2 0x28C4 PUSH2 0x2870 JUMP JUMPDEST JUMPDEST DUP3 DUP3 DIV SWAP1 POP SWAP3 SWAP2 POP POP JUMP INVALID LOG2 PUSH5 0x6970667358 0x22 SLT KECCAK256 DUP10 PUSH16 0x6F32146698178165409C15B692C6D90B 0xA5 PUSH12 0xA9D1020D2F2B9BDCF04FFA32 PUSH5 0x736F6C6343 STOP ADDMOD LT STOP CALLER "
				},
				"gasEstimates": {
					"creation": {
						"codeDepositCost": "2100400",
						"executionCost": "2236",
						"totalCost": "2102636"
					},
					"external": {
						"bid(uint256,uint256)": "infinite",
						"bids(uint256,uint256)": "infinite",
						"cancel(uint256)": "infinite",
						"count()": "2430",
						"endLoan(uint256)": "infinite",
						"launch(address,address,uint256,uint256,uint256,uint256)": "infinite",
						"liquidate(uint256)": "infinite",
						"liquidateEarly(uint256)": "infinite",
						"loans(uint256)": "infinite",
						"setNewBidOwner(uint256,address)": "51230",
						"whitelistedAddresses(uint256,uint256)": "infinite"
					},
					"internal": {
						"_calculateLoanValue(uint256)": "infinite",
						"_ended(uint256)": "2226",
						"_started(uint256)": "2223"
					}
				},
				"methodIdentifiers": {
					"bid(uint256,uint256)": "598647f8",
					"bids(uint256,uint256)": "7b3c4baa",
					"cancel(uint256)": "40e58ee5",
					"count()": "06661abd",
					"endLoan(uint256)": "7870860b",
					"launch(address,address,uint256,uint256,uint256,uint256)": "e7e4dfcd",
					"liquidate(uint256)": "415f1240",
					"liquidateEarly(uint256)": "18de4f9d",
					"loans(uint256)": "e1ec3c68",
					"setNewBidOwner(uint256,address)": "8f769f3a",
					"whitelistedAddresses(uint256,uint256)": "9bea77da"
				}
			},
			"storageLayout": {
				"storage": [
					{
						"astId": 223,
						"contract": "main.sol:LAN",
						"label": "count",
						"offset": 0,
						"slot": "0",
						"type": "t_uint256"
					},
					{
						"astId": 247,
						"contract": "main.sol:LAN",
						"label": "loans",
						"offset": 0,
						"slot": "1",
						"type": "t_mapping(t_uint256,t_struct(Loan)242_storage)"
					},
					{
						"astId": 261,
						"contract": "main.sol:LAN",
						"label": "bids",
						"offset": 0,
						"slot": "2",
						"type": "t_mapping(t_uint256,t_mapping(t_uint256,t_struct(Bid)254_storage))"
					},
					{
						"astId": 266,
						"contract": "main.sol:LAN",
						"label": "whitelistedAddresses",
						"offset": 0,
						"slot": "3",
						"type": "t_mapping(t_uint256,t_array(t_address)dyn_storage)"
					}
				],
				"types": {
					"t_address": {
						"encoding": "inplace",
						"label": "address",
						"numberOfBytes": "20"
					},
					"t_array(t_address)dyn_storage": {
						"base": "t_address",
						"encoding": "dynamic_array",
						"label": "address[]",
						"numberOfBytes": "32"
					},
					"t_bool": {
						"encoding": "inplace",
						"label": "bool",
						"numberOfBytes": "1"
					},
					"t_mapping(t_uint256,t_array(t_address)dyn_storage)": {
						"encoding": "mapping",
						"key": "t_uint256",
						"label": "mapping(uint256 => address[])",
						"numberOfBytes": "32",
						"value": "t_array(t_address)dyn_storage"
					},
					"t_mapping(t_uint256,t_mapping(t_uint256,t_struct(Bid)254_storage))": {
						"encoding": "mapping",
						"key": "t_uint256",
						"label": "mapping(uint256 => mapping(uint256 => struct LAN.Bid))",
						"numberOfBytes": "32",
						"value": "t_mapping(t_uint256,t_struct(Bid)254_storage)"
					},
					"t_mapping(t_uint256,t_struct(Bid)254_storage)": {
						"encoding": "mapping",
						"key": "t_uint256",
						"label": "mapping(uint256 => struct LAN.Bid)",
						"numberOfBytes": "32",
						"value": "t_struct(Bid)254_storage"
					},
					"t_mapping(t_uint256,t_struct(Loan)242_storage)": {
						"encoding": "mapping",
						"key": "t_uint256",
						"label": "mapping(uint256 => struct LAN.Loan)",
						"numberOfBytes": "32",
						"value": "t_struct(Loan)242_storage"
					},
					"t_struct(Bid)254_storage": {
						"encoding": "inplace",
						"label": "struct LAN.Bid",
						"members": [
							{
								"astId": 249,
								"contract": "main.sol:LAN",
								"label": "bidTime",
								"offset": 0,
								"slot": "0",
								"type": "t_uint256"
							},
							{
								"astId": 251,
								"contract": "main.sol:LAN",
								"label": "bidAmount",
								"offset": 0,
								"slot": "1",
								"type": "t_uint256"
							},
							{
								"astId": 253,
								"contract": "main.sol:LAN",
								"label": "user",
								"offset": 0,
								"slot": "2",
								"type": "t_address"
							}
						],
						"numberOfBytes": "96"
					},
					"t_struct(Loan)242_storage": {
						"encoding": "inplace",
						"label": "struct LAN.Loan",
						"members": [
							{
								"astId": 225,
								"contract": "main.sol:LAN",
								"label": "owner",
								"offset": 0,
								"slot": "0",
								"type": "t_address"
							},
							{
								"astId": 227,
								"contract": "main.sol:LAN",
								"label": "token",
								"offset": 0,
								"slot": "1",
								"type": "t_address"
							},
							{
								"astId": 229,
								"contract": "main.sol:LAN",
								"label": "collectionAddress",
								"offset": 0,
								"slot": "2",
								"type": "t_address"
							},
							{
								"astId": 231,
								"contract": "main.sol:LAN",
								"label": "nftId",
								"offset": 0,
								"slot": "3",
								"type": "t_uint256"
							},
							{
								"astId": 233,
								"contract": "main.sol:LAN",
								"label": "startTime",
								"offset": 0,
								"slot": "4",
								"type": "t_uint256"
							},
							{
								"astId": 235,
								"contract": "main.sol:LAN",
								"label": "endTime",
								"offset": 0,
								"slot": "5",
								"type": "t_uint256"
							},
							{
								"astId": 237,
								"contract": "main.sol:LAN",
								"label": "apr",
								"offset": 0,
								"slot": "6",
								"type": "t_uint256"
							},
							{
								"astId": 239,
								"contract": "main.sol:LAN",
								"label": "numBids",
								"offset": 0,
								"slot": "7",
								"type": "t_uint256"
							},
							{
								"astId": 241,
								"contract": "main.sol:LAN",
								"label": "whitelisted",
								"offset": 0,
								"slot": "8",
								"type": "t_bool"
							}
						],
						"numberOfBytes": "288"
					},
					"t_uint256": {
						"encoding": "inplace",
						"label": "uint256",
						"numberOfBytes": "32"
					}
				}
			},
			"userdoc": {
				"kind": "user",
				"methods": {},
				"version": 1
			}
		}
	}
}