{
	"main.sol": {
		"LAN": {
			"abi": [
				{
					"anonymous": false,
					"inputs": [
						{
							"indexed": false,
							"internalType": "uint256",
							"name": "Id",
							"type": "uint256"
						}
					],
					"name": "loanCancelled",
					"type": "event"
				},
				{
					"anonymous": false,
					"inputs": [
						{
							"indexed": true,
							"internalType": "uint256",
							"name": "poolId",
							"type": "uint256"
						},
						{
							"indexed": false,
							"internalType": "address",
							"name": "collectionAddress",
							"type": "address"
						},
						{
							"indexed": false,
							"internalType": "uint256",
							"name": "nftId",
							"type": "uint256"
						}
					],
					"name": "newPool",
					"type": "event"
				},
				{
					"inputs": [
						{
							"internalType": "uint256",
							"name": "_poolId",
							"type": "uint256"
						},
						{
							"internalType": "uint256",
							"name": "_amount",
							"type": "uint256"
						},
						{
							"internalType": "uint256",
							"name": "_apr",
							"type": "uint256"
						}
					],
					"name": "bid",
					"outputs": [],
					"stateMutability": "nonpayable",
					"type": "function"
				},
				{
					"inputs": [
						{
							"internalType": "uint256",
							"name": "",
							"type": "uint256"
						},
						{
							"internalType": "uint256",
							"name": "",
							"type": "uint256"
						}
					],
					"name": "bids",
					"outputs": [
						{
							"internalType": "uint256",
							"name": "bidTime",
							"type": "uint256"
						},
						{
							"internalType": "uint256",
							"name": "bidAmount",
							"type": "uint256"
						},
						{
							"internalType": "address",
							"name": "user",
							"type": "address"
						},
						{
							"internalType": "uint256",
							"name": "apr",
							"type": "uint256"
						}
					],
					"stateMutability": "view",
					"type": "function"
				},
				{
					"inputs": [
						{
							"internalType": "uint256",
							"name": "_poolId",
							"type": "uint256"
						}
					],
					"name": "cancel",
					"outputs": [],
					"stateMutability": "nonpayable",
					"type": "function"
				},
				{
					"inputs": [
						{
							"internalType": "uint256",
							"name": "_poolId",
							"type": "uint256"
						},
						{
							"internalType": "address",
							"name": "_newAddress",
							"type": "address"
						},
						{
							"internalType": "bool",
							"name": "_status",
							"type": "bool"
						}
					],
					"name": "changeWhitelist",
					"outputs": [],
					"stateMutability": "nonpayable",
					"type": "function"
				},
				{
					"inputs": [],
					"name": "count",
					"outputs": [
						{
							"internalType": "uint256",
							"name": "",
							"type": "uint256"
						}
					],
					"stateMutability": "view",
					"type": "function"
				},
				{
					"inputs": [
						{
							"internalType": "uint256",
							"name": "_poolId",
							"type": "uint256"
						}
					],
					"name": "endLoan",
					"outputs": [],
					"stateMutability": "nonpayable",
					"type": "function"
				},
				{
					"inputs": [
						{
							"internalType": "address",
							"name": "_operator",
							"type": "address"
						},
						{
							"internalType": "address",
							"name": "_token",
							"type": "address"
						},
						{
							"internalType": "address",
							"name": "_collectionAddress",
							"type": "address"
						},
						{
							"internalType": "uint256",
							"name": "_nftId",
							"type": "uint256"
						},
						{
							"internalType": "uint256",
							"name": "_startTime",
							"type": "uint256"
						},
						{
							"internalType": "uint256",
							"name": "_endTime",
							"type": "uint256"
						},
						{
							"internalType": "bool",
							"name": "_whitelisted",
							"type": "bool"
						}
					],
					"name": "launch",
					"outputs": [],
					"stateMutability": "nonpayable",
					"type": "function"
				},
				{
					"inputs": [
						{
							"internalType": "uint256",
							"name": "_poolId",
							"type": "uint256"
						}
					],
					"name": "liquidate",
					"outputs": [],
					"stateMutability": "nonpayable",
					"type": "function"
				},
				{
					"inputs": [
						{
							"internalType": "uint256",
							"name": "_poolId",
							"type": "uint256"
						}
					],
					"name": "liquidateEarly",
					"outputs": [],
					"stateMutability": "nonpayable",
					"type": "function"
				},
				{
					"inputs": [
						{
							"internalType": "uint256",
							"name": "",
							"type": "uint256"
						}
					],
					"name": "loans",
					"outputs": [
						{
							"internalType": "address",
							"name": "owner",
							"type": "address"
						},
						{
							"internalType": "address",
							"name": "token",
							"type": "address"
						},
						{
							"internalType": "address",
							"name": "operator",
							"type": "address"
						},
						{
							"internalType": "address",
							"name": "collectionAddress",
							"type": "address"
						},
						{
							"internalType": "uint256",
							"name": "nftId",
							"type": "uint256"
						},
						{
							"internalType": "uint256",
							"name": "startTime",
							"type": "uint256"
						},
						{
							"internalType": "uint256",
							"name": "endTime",
							"type": "uint256"
						},
						{
							"internalType": "uint256",
							"name": "apr",
							"type": "uint256"
						},
						{
							"internalType": "uint256",
							"name": "numBids",
							"type": "uint256"
						},
						{
							"internalType": "bool",
							"name": "whitelisted",
							"type": "bool"
						}
					],
					"stateMutability": "view",
					"type": "function"
				},
				{
					"inputs": [
						{
							"internalType": "uint256",
							"name": "_poolId",
							"type": "uint256"
						},
						{
							"internalType": "address",
							"name": "_newAddress",
							"type": "address"
						}
					],
					"name": "setNewBidOwner",
					"outputs": [],
					"stateMutability": "nonpayable",
					"type": "function"
				},
				{
					"inputs": [
						{
							"internalType": "uint256",
							"name": "",
							"type": "uint256"
						},
						{
							"internalType": "address",
							"name": "",
							"type": "address"
						}
					],
					"name": "whitelistedAddresses",
					"outputs": [
						{
							"internalType": "bool",
							"name": "",
							"type": "bool"
						}
					],
					"stateMutability": "view",
					"type": "function"
				}
			],
			"devdoc": {
				"kind": "dev",
				"methods": {},
				"version": 1
			},
			"evm": {
				"assembly": "    /* \"main.sol\":142:6521  contract LAN{... */\n  mstore(0x40, 0x80)\n  callvalue\n  dup1\n  iszero\n  tag_1\n  jumpi\n  0x00\n  dup1\n  revert\ntag_1:\n  pop\n  dataSize(sub_0)\n  dup1\n  dataOffset(sub_0)\n  0x00\n  codecopy\n  0x00\n  return\nstop\n\nsub_0: assembly {\n        /* \"main.sol\":142:6521  contract LAN{... */\n      mstore(0x40, 0x80)\n      callvalue\n      dup1\n      iszero\n      tag_1\n      jumpi\n      0x00\n      dup1\n      revert\n    tag_1:\n      pop\n      jumpi(tag_2, lt(calldatasize, 0x04))\n      shr(0xe0, calldataload(0x00))\n      dup1\n      0x7b3c4baa\n      gt\n      tag_15\n      jumpi\n      dup1\n      0x7b3c4baa\n      eq\n      tag_9\n      jumpi\n      dup1\n      0x8f769f3a\n      eq\n      tag_10\n      jumpi\n      dup1\n      0xa23b02bd\n      eq\n      tag_11\n      jumpi\n      dup1\n      0xe1267929\n      eq\n      tag_12\n      jumpi\n      dup1\n      0xe1ec3c68\n      eq\n      tag_13\n      jumpi\n      dup1\n      0xf724e48e\n      eq\n      tag_14\n      jumpi\n      jump(tag_2)\n    tag_15:\n      dup1\n      0x06661abd\n      eq\n      tag_3\n      jumpi\n      dup1\n      0x18de4f9d\n      eq\n      tag_4\n      jumpi\n      dup1\n      0x2ac9bf09\n      eq\n      tag_5\n      jumpi\n      dup1\n      0x40e58ee5\n      eq\n      tag_6\n      jumpi\n      dup1\n      0x415f1240\n      eq\n      tag_7\n      jumpi\n      dup1\n      0x7870860b\n      eq\n      tag_8\n      jumpi\n    tag_2:\n      0x00\n      dup1\n      revert\n        /* \"main.sol\":313:333  uint256 public count */\n    tag_3:\n      tag_16\n      tag_17\n      jump\t// in\n    tag_16:\n      mload(0x40)\n      tag_18\n      swap2\n      swap1\n      tag_19\n      jump\t// in\n    tag_18:\n      mload(0x40)\n      dup1\n      swap2\n      sub\n      swap1\n      return\n        /* \"main.sol\":5355:5686  function liquidateEarly(uint256 _poolId) external onlyOwner(_poolId) {... */\n    tag_4:\n      tag_20\n      0x04\n      dup1\n      calldatasize\n      sub\n      dup2\n      add\n      swap1\n      tag_21\n      swap2\n      swap1\n      tag_22\n      jump\t// in\n    tag_21:\n      tag_23\n      jump\t// in\n    tag_20:\n      stop\n        /* \"main.sol\":2251:3149  function bid(uint256 _poolId, uint256 _amount, uint256 _apr) external {... */\n    tag_5:\n      tag_24\n      0x04\n      dup1\n      calldatasize\n      sub\n      dup2\n      add\n      swap1\n      tag_25\n      swap2\n      swap1\n      tag_26\n      jump\t// in\n    tag_25:\n      tag_27\n      jump\t// in\n    tag_24:\n      stop\n        /* \"main.sol\":3937:4181  function cancel(uint256 _poolId) external onlyOwner(_poolId) {... */\n    tag_6:\n      tag_28\n      0x04\n      dup1\n      calldatasize\n      sub\n      dup2\n      add\n      swap1\n      tag_29\n      swap2\n      swap1\n      tag_22\n      jump\t// in\n    tag_29:\n      tag_30\n      jump\t// in\n    tag_28:\n      stop\n        /* \"main.sol\":4751:5184  function liquidate(uint256 _poolId) external {... */\n    tag_7:\n      tag_31\n      0x04\n      dup1\n      calldatasize\n      sub\n      dup2\n      add\n      swap1\n      tag_32\n      swap2\n      swap1\n      tag_22\n      jump\t// in\n    tag_32:\n      tag_33\n      jump\t// in\n    tag_31:\n      stop\n        /* \"main.sol\":4220:4697  function endLoan(uint256 _poolId) external onlyOwner(_poolId) {... */\n    tag_8:\n      tag_34\n      0x04\n      dup1\n      calldatasize\n      sub\n      dup2\n      add\n      swap1\n      tag_35\n      swap2\n      swap1\n      tag_22\n      jump\t// in\n    tag_35:\n      tag_36\n      jump\t// in\n    tag_34:\n      stop\n        /* \"main.sol\":865:920  mapping(uint256 => mapping(uint256 => Bid)) public bids */\n    tag_9:\n      tag_37\n      0x04\n      dup1\n      calldatasize\n      sub\n      dup2\n      add\n      swap1\n      tag_38\n      swap2\n      swap1\n      tag_39\n      jump\t// in\n    tag_38:\n      tag_40\n      jump\t// in\n    tag_37:\n      mload(0x40)\n      tag_41\n      swap5\n      swap4\n      swap3\n      swap2\n      swap1\n      tag_42\n      jump\t// in\n    tag_41:\n      mload(0x40)\n      dup1\n      swap2\n      sub\n      swap1\n      return\n        /* \"main.sol\":3290:3701  function setNewBidOwner(uint256 _poolId, address _newAddress) external {... */\n    tag_10:\n      tag_43\n      0x04\n      dup1\n      calldatasize\n      sub\n      dup2\n      add\n      swap1\n      tag_44\n      swap2\n      swap1\n      tag_45\n      jump\t// in\n    tag_44:\n      tag_46\n      jump\t// in\n    tag_43:\n      stop\n        /* \"main.sol\":1013:1085  mapping(uint256 => mapping(address => bool)) public whitelistedAddresses */\n    tag_11:\n      tag_47\n      0x04\n      dup1\n      calldatasize\n      sub\n      dup2\n      add\n      swap1\n      tag_48\n      swap2\n      swap1\n      tag_45\n      jump\t// in\n    tag_48:\n      tag_49\n      jump\t// in\n    tag_47:\n      mload(0x40)\n      tag_50\n      swap2\n      swap1\n      tag_51\n      jump\t// in\n    tag_50:\n      mload(0x40)\n      dup1\n      swap2\n      sub\n      swap1\n      return\n        /* \"main.sol\":1341:2245  function launch(address _operator, address _token, address _collectionAddress, uint256 _nftId, uint256 _startTime, uint256 _endTime, bool _whitelisted) public {... */\n    tag_12:\n      tag_52\n      0x04\n      dup1\n      calldatasize\n      sub\n      dup2\n      add\n      swap1\n      tag_53\n      swap2\n      swap1\n      tag_54\n      jump\t// in\n    tag_53:\n      tag_55\n      jump\t// in\n    tag_52:\n      stop\n        /* \"main.sol\":680:717  mapping(uint256 => Loan) public loans */\n    tag_13:\n      tag_56\n      0x04\n      dup1\n      calldatasize\n      sub\n      dup2\n      add\n      swap1\n      tag_57\n      swap2\n      swap1\n      tag_22\n      jump\t// in\n    tag_57:\n      tag_58\n      jump\t// in\n    tag_56:\n      mload(0x40)\n      tag_59\n      swap11\n      swap10\n      swap9\n      swap8\n      swap7\n      swap6\n      swap5\n      swap4\n      swap3\n      swap2\n      swap1\n      tag_60\n      jump\t// in\n    tag_59:\n      mload(0x40)\n      dup1\n      swap2\n      sub\n      swap1\n      return\n        /* \"main.sol\":3734:3889  function changeWhitelist(uint256 _poolId, address _newAddress, bool _status) external {... */\n    tag_14:\n      tag_61\n      0x04\n      dup1\n      calldatasize\n      sub\n      dup2\n      add\n      swap1\n      tag_62\n      swap2\n      swap1\n      tag_63\n      jump\t// in\n    tag_62:\n      tag_64\n      jump\t// in\n    tag_61:\n      stop\n        /* \"main.sol\":313:333  uint256 public count */\n    tag_17:\n      sload(0x00)\n      dup2\n      jump\t// out\n        /* \"main.sol\":5355:5686  function liquidateEarly(uint256 _poolId) external onlyOwner(_poolId) {... */\n    tag_23:\n        /* \"main.sol\":5415:5422  _poolId */\n      dup1\n        /* \"main.sol\":1236:1246  msg.sender */\n      caller\n        /* \"main.sol\":1212:1246  loans[_poolId].owner == msg.sender */\n      0xffffffffffffffffffffffffffffffffffffffff\n      and\n        /* \"main.sol\":1212:1217  loans */\n      0x01\n        /* \"main.sol\":1212:1226  loans[_poolId] */\n      0x00\n        /* \"main.sol\":1218:1225  _poolId */\n      dup4\n        /* \"main.sol\":1212:1226  loans[_poolId] */\n      dup2\n      mstore\n      0x20\n      add\n      swap1\n      dup2\n      mstore\n      0x20\n      add\n      0x00\n      keccak256\n        /* \"main.sol\":1212:1232  loans[_poolId].owner */\n      0x00\n      add\n      0x00\n      swap1\n      sload\n      swap1\n      0x0100\n      exp\n      swap1\n      div\n      0xffffffffffffffffffffffffffffffffffffffff\n      and\n        /* \"main.sol\":1212:1246  loans[_poolId].owner == msg.sender */\n      0xffffffffffffffffffffffffffffffffffffffff\n      and\n      eq\n        /* \"main.sol\":1211:1297  (loans[_poolId].owner == msg.sender)... */\n      dup1\n      tag_66\n      jumpi\n      pop\n        /* \"main.sol\":1286:1296  msg.sender */\n      caller\n        /* \"main.sol\":1259:1296  loans[_poolId].operator == msg.sender */\n      0xffffffffffffffffffffffffffffffffffffffff\n      and\n        /* \"main.sol\":1259:1264  loans */\n      0x01\n        /* \"main.sol\":1259:1273  loans[_poolId] */\n      0x00\n        /* \"main.sol\":1265:1272  _poolId */\n      dup4\n        /* \"main.sol\":1259:1273  loans[_poolId] */\n      dup2\n      mstore\n      0x20\n      add\n      swap1\n      dup2\n      mstore\n      0x20\n      add\n      0x00\n      keccak256\n        /* \"main.sol\":1259:1282  loans[_poolId].operator */\n      0x02\n      add\n      0x00\n      swap1\n      sload\n      swap1\n      0x0100\n      exp\n      swap1\n      div\n      0xffffffffffffffffffffffffffffffffffffffff\n      and\n        /* \"main.sol\":1259:1296  loans[_poolId].operator == msg.sender */\n      0xffffffffffffffffffffffffffffffffffffffff\n      and\n      eq\n        /* \"main.sol\":1211:1297  (loans[_poolId].owner == msg.sender)... */\n    tag_66:\n        /* \"main.sol\":1203:1316  require((loans[_poolId].owner == msg.sender)... */\n      tag_67\n      jumpi\n      mload(0x40)\n      0x08c379a000000000000000000000000000000000000000000000000000000000\n      dup2\n      mstore\n      0x04\n      add\n      tag_68\n      swap1\n      tag_69\n      jump\t// in\n    tag_68:\n      mload(0x40)\n      dup1\n      swap2\n      sub\n      swap1\n      revert\n    tag_67:\n        /* \"main.sol\":5434:5450  Loan memory loan */\n      0x00\n        /* \"main.sol\":5453:5458  loans */\n      0x01\n        /* \"main.sol\":5453:5467  loans[_poolId] */\n      0x00\n        /* \"main.sol\":5459:5466  _poolId */\n      dup5\n        /* \"main.sol\":5453:5467  loans[_poolId] */\n      dup2\n      mstore\n      0x20\n      add\n      swap1\n      dup2\n      mstore\n      0x20\n      add\n      0x00\n      keccak256\n        /* \"main.sol\":5434:5467  Loan memory loan = loans[_poolId] */\n      mload(0x40)\n      dup1\n      0x0140\n      add\n      0x40\n      mstore\n      swap1\n      dup2\n      0x00\n      dup3\n      add\n      0x00\n      swap1\n      sload\n      swap1\n      0x0100\n      exp\n      swap1\n      div\n      0xffffffffffffffffffffffffffffffffffffffff\n      and\n      0xffffffffffffffffffffffffffffffffffffffff\n      and\n      0xffffffffffffffffffffffffffffffffffffffff\n      and\n      dup2\n      mstore\n      0x20\n      add\n      0x01\n      dup3\n      add\n      0x00\n      swap1\n      sload\n      swap1\n      0x0100\n      exp\n      swap1\n      div\n      0xffffffffffffffffffffffffffffffffffffffff\n      and\n      0xffffffffffffffffffffffffffffffffffffffff\n      and\n      0xffffffffffffffffffffffffffffffffffffffff\n      and\n      dup2\n      mstore\n      0x20\n      add\n      0x02\n      dup3\n      add\n      0x00\n      swap1\n      sload\n      swap1\n      0x0100\n      exp\n      swap1\n      div\n      0xffffffffffffffffffffffffffffffffffffffff\n      and\n      0xffffffffffffffffffffffffffffffffffffffff\n      and\n      0xffffffffffffffffffffffffffffffffffffffff\n      and\n      dup2\n      mstore\n      0x20\n      add\n      0x03\n      dup3\n      add\n      0x00\n      swap1\n      sload\n      swap1\n      0x0100\n      exp\n      swap1\n      div\n      0xffffffffffffffffffffffffffffffffffffffff\n      and\n      0xffffffffffffffffffffffffffffffffffffffff\n      and\n      0xffffffffffffffffffffffffffffffffffffffff\n      and\n      dup2\n      mstore\n      0x20\n      add\n      0x04\n      dup3\n      add\n      sload\n      dup2\n      mstore\n      0x20\n      add\n      0x05\n      dup3\n      add\n      sload\n      dup2\n      mstore\n      0x20\n      add\n      0x06\n      dup3\n      add\n      sload\n      dup2\n      mstore\n      0x20\n      add\n      0x07\n      dup3\n      add\n      sload\n      dup2\n      mstore\n      0x20\n      add\n      0x08\n      dup3\n      add\n      sload\n      dup2\n      mstore\n      0x20\n      add\n      0x09\n      dup3\n      add\n      0x00\n      swap1\n      sload\n      swap1\n      0x0100\n      exp\n      swap1\n      div\n      0xff\n      and\n      iszero\n      iszero\n      iszero\n      iszero\n      dup2\n      mstore\n      pop\n      pop\n      swap1\n      pop\n        /* \"main.sol\":5477:5497  Bid memory latestBid */\n      0x00\n        /* \"main.sol\":5500:5504  bids */\n      0x02\n        /* \"main.sol\":5500:5513  bids[_poolId] */\n      0x00\n        /* \"main.sol\":5505:5512  _poolId */\n      dup6\n        /* \"main.sol\":5500:5513  bids[_poolId] */\n      dup2\n      mstore\n      0x20\n      add\n      swap1\n      dup2\n      mstore\n      0x20\n      add\n      0x00\n      keccak256\n        /* \"main.sol\":5500:5527  bids[_poolId][loan.numBids] */\n      0x00\n        /* \"main.sol\":5514:5518  loan */\n      dup4\n        /* \"main.sol\":5514:5526  loan.numBids */\n      0x0100\n      add\n      mload\n        /* \"main.sol\":5500:5527  bids[_poolId][loan.numBids] */\n      dup2\n      mstore\n      0x20\n      add\n      swap1\n      dup2\n      mstore\n      0x20\n      add\n      0x00\n      keccak256\n        /* \"main.sol\":5477:5527  Bid memory latestBid = bids[_poolId][loan.numBids] */\n      mload(0x40)\n      dup1\n      0x80\n      add\n      0x40\n      mstore\n      swap1\n      dup2\n      0x00\n      dup3\n      add\n      sload\n      dup2\n      mstore\n      0x20\n      add\n      0x01\n      dup3\n      add\n      sload\n      dup2\n      mstore\n      0x20\n      add\n      0x02\n      dup3\n      add\n      0x00\n      swap1\n      sload\n      swap1\n      0x0100\n      exp\n      swap1\n      div\n      0xffffffffffffffffffffffffffffffffffffffff\n      and\n      0xffffffffffffffffffffffffffffffffffffffff\n      and\n      0xffffffffffffffffffffffffffffffffffffffff\n      and\n      dup2\n      mstore\n      0x20\n      add\n      0x03\n      dup3\n      add\n      sload\n      dup2\n      mstore\n      pop\n      pop\n      swap1\n      pop\n        /* \"main.sol\":5561:5572  IERC721 NFT */\n      0x00\n        /* \"main.sol\":5583:5587  loan */\n      dup3\n        /* \"main.sol\":5583:5605  loan.collectionAddress */\n      0x60\n      add\n      mload\n        /* \"main.sol\":5561:5606  IERC721 NFT = IERC721(loan.collectionAddress) */\n      swap1\n      pop\n        /* \"main.sol\":5616:5619  NFT */\n      dup1\n        /* \"main.sol\":5616:5636  NFT.safeTransferFrom */\n      0xffffffffffffffffffffffffffffffffffffffff\n      and\n      0x42842e0e\n        /* \"main.sol\":5645:5649  this */\n      address\n        /* \"main.sol\":5652:5661  latestBid */\n      dup5\n        /* \"main.sol\":5652:5666  latestBid.user */\n      0x40\n      add\n      mload\n        /* \"main.sol\":5668:5672  loan */\n      dup7\n        /* \"main.sol\":5668:5678  loan.nftId */\n      0x80\n      add\n      mload\n        /* \"main.sol\":5616:5679  NFT.safeTransferFrom(address(this), latestBid.user, loan.nftId) */\n      mload(0x40)\n      dup5\n      0xffffffff\n      and\n      0xe0\n      shl\n      dup2\n      mstore\n      0x04\n      add\n      tag_71\n      swap4\n      swap3\n      swap2\n      swap1\n      tag_72\n      jump\t// in\n    tag_71:\n      0x00\n      mload(0x40)\n      dup1\n      dup4\n      sub\n      dup2\n      0x00\n      dup8\n      dup1\n      extcodesize\n      iszero\n      dup1\n      iszero\n      tag_73\n      jumpi\n      0x00\n      dup1\n      revert\n    tag_73:\n      pop\n      gas\n      call\n      iszero\n      dup1\n      iszero\n      tag_75\n      jumpi\n      returndatasize\n      0x00\n      dup1\n      returndatacopy\n      revert(0x00, returndatasize)\n    tag_75:\n      pop\n      pop\n      pop\n      pop\n        /* \"main.sol\":5424:5686  {... */\n      pop\n      pop\n      pop\n        /* \"main.sol\":5355:5686  function liquidateEarly(uint256 _poolId) external onlyOwner(_poolId) {... */\n      pop\n      pop\n      jump\t// out\n        /* \"main.sol\":2251:3149  function bid(uint256 _poolId, uint256 _amount, uint256 _apr) external {... */\n    tag_27:\n        /* \"main.sol\":2339:2356  _started(_poolId) */\n      tag_77\n        /* \"main.sol\":2348:2355  _poolId */\n      dup4\n        /* \"main.sol\":2339:2347  _started */\n      tag_78\n        /* \"main.sol\":2339:2356  _started(_poolId) */\n      jump\t// in\n    tag_77:\n        /* \"main.sol\":2331:2377  require(_started(_poolId), \"LAN: not started\") */\n      tag_79\n      jumpi\n      mload(0x40)\n      0x08c379a000000000000000000000000000000000000000000000000000000000\n      dup2\n      mstore\n      0x04\n      add\n      tag_80\n      swap1\n      tag_81\n      jump\t// in\n    tag_80:\n      mload(0x40)\n      dup1\n      swap2\n      sub\n      swap1\n      revert\n    tag_79:\n        /* \"main.sol\":2396:2411  _ended(_poolId) */\n      tag_82\n        /* \"main.sol\":2403:2410  _poolId */\n      dup4\n        /* \"main.sol\":2396:2402  _ended */\n      tag_83\n        /* \"main.sol\":2396:2411  _ended(_poolId) */\n      jump\t// in\n    tag_82:\n        /* \"main.sol\":2395:2411  !_ended(_poolId) */\n      iszero\n        /* \"main.sol\":2387:2434  require(!_ended(_poolId), \"LAN: already ended\") */\n      tag_84\n      jumpi\n      mload(0x40)\n      0x08c379a000000000000000000000000000000000000000000000000000000000\n      dup2\n      mstore\n      0x04\n      add\n      tag_85\n      swap1\n      tag_86\n      jump\t// in\n    tag_85:\n      mload(0x40)\n      dup1\n      swap2\n      sub\n      swap1\n      revert\n    tag_84:\n        /* \"main.sol\":2444:2461  Loan storage loan */\n      0x00\n        /* \"main.sol\":2464:2469  loans */\n      0x01\n        /* \"main.sol\":2464:2478  loans[_poolId] */\n      0x00\n        /* \"main.sol\":2470:2477  _poolId */\n      dup6\n        /* \"main.sol\":2464:2478  loans[_poolId] */\n      dup2\n      mstore\n      0x20\n      add\n      swap1\n      dup2\n      mstore\n      0x20\n      add\n      0x00\n      keccak256\n        /* \"main.sol\":2444:2478  Loan storage loan = loans[_poolId] */\n      swap1\n      pop\n        /* \"main.sol\":2497:2501  loan */\n      dup1\n        /* \"main.sol\":2497:2513  loan.whitelisted */\n      0x09\n      add\n      0x00\n      swap1\n      sload\n      swap1\n      0x0100\n      exp\n      swap1\n      div\n      0xff\n      and\n        /* \"main.sol\":2496:2561  (loan.whitelisted) && (whitelistedAddresses[_poolId][msg.sender]) */\n      dup1\n      iszero\n      tag_87\n      jumpi\n      pop\n        /* \"main.sol\":2519:2539  whitelistedAddresses */\n      0x03\n        /* \"main.sol\":2519:2548  whitelistedAddresses[_poolId] */\n      0x00\n        /* \"main.sol\":2540:2547  _poolId */\n      dup6\n        /* \"main.sol\":2519:2548  whitelistedAddresses[_poolId] */\n      dup2\n      mstore\n      0x20\n      add\n      swap1\n      dup2\n      mstore\n      0x20\n      add\n      0x00\n      keccak256\n        /* \"main.sol\":2519:2560  whitelistedAddresses[_poolId][msg.sender] */\n      0x00\n        /* \"main.sol\":2549:2559  msg.sender */\n      caller\n        /* \"main.sol\":2519:2560  whitelistedAddresses[_poolId][msg.sender] */\n      0xffffffffffffffffffffffffffffffffffffffff\n      and\n      0xffffffffffffffffffffffffffffffffffffffff\n      and\n      dup2\n      mstore\n      0x20\n      add\n      swap1\n      dup2\n      mstore\n      0x20\n      add\n      0x00\n      keccak256\n      0x00\n      swap1\n      sload\n      swap1\n      0x0100\n      exp\n      swap1\n      div\n      0xff\n      and\n        /* \"main.sol\":2496:2561  (loan.whitelisted) && (whitelistedAddresses[_poolId][msg.sender]) */\n    tag_87:\n        /* \"main.sol\":2496:2601  (loan.whitelisted) && (whitelistedAddresses[_poolId][msg.sender])... */\n      dup1\n      tag_88\n      jumpi\n      pop\n        /* \"main.sol\":2595:2600  false */\n      0x00\n        /* \"main.sol\":2575:2600  loan.whitelisted == false */\n      iszero\n      iszero\n        /* \"main.sol\":2575:2579  loan */\n      dup2\n        /* \"main.sol\":2575:2591  loan.whitelisted */\n      0x09\n      add\n      0x00\n      swap1\n      sload\n      swap1\n      0x0100\n      exp\n      swap1\n      div\n      0xff\n      and\n        /* \"main.sol\":2575:2600  loan.whitelisted == false */\n      iszero\n      iszero\n      eq\n        /* \"main.sol\":2496:2601  (loan.whitelisted) && (whitelistedAddresses[_poolId][msg.sender])... */\n    tag_88:\n        /* \"main.sol\":2488:2626  require((loan.whitelisted) && (whitelistedAddresses[_poolId][msg.sender])... */\n      tag_89\n      jumpi\n      mload(0x40)\n      0x08c379a000000000000000000000000000000000000000000000000000000000\n      dup2\n      mstore\n      0x04\n      add\n      tag_90\n      swap1\n      tag_91\n      jump\t// in\n    tag_90:\n      mload(0x40)\n      dup1\n      swap2\n      sub\n      swap1\n      revert\n    tag_89:\n        /* \"main.sol\":2645:2662  uint256 loanValue */\n      0x00\n        /* \"main.sol\":2665:2693  _calculateLoanValue(_poolId) */\n      tag_92\n        /* \"main.sol\":2685:2692  _poolId */\n      dup6\n        /* \"main.sol\":2665:2684  _calculateLoanValue */\n      tag_93\n        /* \"main.sol\":2665:2693  _calculateLoanValue(_poolId) */\n      jump\t// in\n    tag_92:\n        /* \"main.sol\":2645:2693  uint256 loanValue = _calculateLoanValue(_poolId) */\n      swap1\n      pop\n        /* \"main.sol\":2740:2749  loanValue */\n      dup1\n        /* \"main.sol\":2730:2737  _amount */\n      dup5\n        /* \"main.sol\":2730:2749  _amount > loanValue */\n      gt\n        /* \"main.sol\":2722:2773  require(_amount > loanValue, \"LAN: bid not higher\") */\n      tag_94\n      jumpi\n      mload(0x40)\n      0x08c379a000000000000000000000000000000000000000000000000000000000\n      dup2\n      mstore\n      0x04\n      add\n      tag_95\n      swap1\n      tag_96\n      jump\t// in\n    tag_95:\n      mload(0x40)\n      dup1\n      swap2\n      sub\n      swap1\n      revert\n    tag_94:\n        /* \"main.sol\":2834:2838  _apr */\n      dup3\n        /* \"main.sol\":2823:2827  loan */\n      dup3\n        /* \"main.sol\":2823:2831  loan.apr */\n      0x07\n      add\n        /* \"main.sol\":2823:2838  loan.apr = _apr */\n      dup2\n      swap1\n      sstore\n      pop\n        /* \"main.sol\":2879:2894  uint256 numBids */\n      0x00\n        /* \"main.sol\":2912:2913  1 */\n      0x01\n        /* \"main.sol\":2897:2901  loan */\n      dup4\n        /* \"main.sol\":2897:2909  loan.numBids */\n      0x08\n      add\n      sload\n        /* \"main.sol\":2897:2913  loan.numBids + 1 */\n      tag_97\n      swap2\n      swap1\n      tag_98\n      jump\t// in\n    tag_97:\n        /* \"main.sol\":2879:2913  uint256 numBids = loan.numBids + 1 */\n      swap1\n      pop\n        /* \"main.sol\":2939:2946  numBids */\n      dup1\n        /* \"main.sol\":2924:2928  loan */\n      dup4\n        /* \"main.sol\":2924:2936  loan.numBids */\n      0x08\n      add\n        /* \"main.sol\":2924:2946  loan.numBids = numBids */\n      dup2\n      swap1\n      sstore\n      pop\n        /* \"main.sol\":2981:3142  Bid({... */\n      mload(0x40)\n      dup1\n      0x80\n      add\n      0x40\n      mstore\n      dup1\n        /* \"main.sol\":3008:3023  block.timestamp */\n      timestamp\n        /* \"main.sol\":2981:3142  Bid({... */\n      dup2\n      mstore\n      0x20\n      add\n        /* \"main.sol\":3048:3055  _amount */\n      dup7\n        /* \"main.sol\":2981:3142  Bid({... */\n      dup2\n      mstore\n      0x20\n      add\n        /* \"main.sol\":3075:3085  msg.sender */\n      caller\n        /* \"main.sol\":2981:3142  Bid({... */\n      0xffffffffffffffffffffffffffffffffffffffff\n      and\n      dup2\n      mstore\n      0x20\n      add\n        /* \"main.sol\":3104:3108  _apr */\n      dup6\n        /* \"main.sol\":2981:3142  Bid({... */\n      dup2\n      mstore\n      pop\n        /* \"main.sol\":2956:2960  bids */\n      0x02\n        /* \"main.sol\":2956:2969  bids[_poolId] */\n      0x00\n        /* \"main.sol\":2961:2968  _poolId */\n      dup9\n        /* \"main.sol\":2956:2969  bids[_poolId] */\n      dup2\n      mstore\n      0x20\n      add\n      swap1\n      dup2\n      mstore\n      0x20\n      add\n      0x00\n      keccak256\n        /* \"main.sol\":2956:2978  bids[_poolId][numBids] */\n      0x00\n        /* \"main.sol\":2970:2977  numBids */\n      dup4\n        /* \"main.sol\":2956:2978  bids[_poolId][numBids] */\n      dup2\n      mstore\n      0x20\n      add\n      swap1\n      dup2\n      mstore\n      0x20\n      add\n      0x00\n      keccak256\n        /* \"main.sol\":2956:3142  bids[_poolId][numBids] = Bid({... */\n      0x00\n      dup3\n      add\n      mload\n      dup2\n      0x00\n      add\n      sstore\n      0x20\n      dup3\n      add\n      mload\n      dup2\n      0x01\n      add\n      sstore\n      0x40\n      dup3\n      add\n      mload\n      dup2\n      0x02\n      add\n      exp(0x0100, 0x00)\n      dup2\n      sload\n      dup2\n      0xffffffffffffffffffffffffffffffffffffffff\n      mul\n      not\n      and\n      swap1\n      dup4\n      0xffffffffffffffffffffffffffffffffffffffff\n      and\n      mul\n      or\n      swap1\n      sstore\n      pop\n      0x60\n      dup3\n      add\n      mload\n      dup2\n      0x03\n      add\n      sstore\n      swap1\n      pop\n      pop\n        /* \"main.sol\":2321:3149  {... */\n      pop\n      pop\n      pop\n        /* \"main.sol\":2251:3149  function bid(uint256 _poolId, uint256 _amount, uint256 _apr) external {... */\n      pop\n      pop\n      pop\n      jump\t// out\n        /* \"main.sol\":3937:4181  function cancel(uint256 _poolId) external onlyOwner(_poolId) {... */\n    tag_30:\n        /* \"main.sol\":3989:3996  _poolId */\n      dup1\n        /* \"main.sol\":1236:1246  msg.sender */\n      caller\n        /* \"main.sol\":1212:1246  loans[_poolId].owner == msg.sender */\n      0xffffffffffffffffffffffffffffffffffffffff\n      and\n        /* \"main.sol\":1212:1217  loans */\n      0x01\n        /* \"main.sol\":1212:1226  loans[_poolId] */\n      0x00\n        /* \"main.sol\":1218:1225  _poolId */\n      dup4\n        /* \"main.sol\":1212:1226  loans[_poolId] */\n      dup2\n      mstore\n      0x20\n      add\n      swap1\n      dup2\n      mstore\n      0x20\n      add\n      0x00\n      keccak256\n        /* \"main.sol\":1212:1232  loans[_poolId].owner */\n      0x00\n      add\n      0x00\n      swap1\n      sload\n      swap1\n      0x0100\n      exp\n      swap1\n      div\n      0xffffffffffffffffffffffffffffffffffffffff\n      and\n        /* \"main.sol\":1212:1246  loans[_poolId].owner == msg.sender */\n      0xffffffffffffffffffffffffffffffffffffffff\n      and\n      eq\n        /* \"main.sol\":1211:1297  (loans[_poolId].owner == msg.sender)... */\n      dup1\n      tag_100\n      jumpi\n      pop\n        /* \"main.sol\":1286:1296  msg.sender */\n      caller\n        /* \"main.sol\":1259:1296  loans[_poolId].operator == msg.sender */\n      0xffffffffffffffffffffffffffffffffffffffff\n      and\n        /* \"main.sol\":1259:1264  loans */\n      0x01\n        /* \"main.sol\":1259:1273  loans[_poolId] */\n      0x00\n        /* \"main.sol\":1265:1272  _poolId */\n      dup4\n        /* \"main.sol\":1259:1273  loans[_poolId] */\n      dup2\n      mstore\n      0x20\n      add\n      swap1\n      dup2\n      mstore\n      0x20\n      add\n      0x00\n      keccak256\n        /* \"main.sol\":1259:1282  loans[_poolId].operator */\n      0x02\n      add\n      0x00\n      swap1\n      sload\n      swap1\n      0x0100\n      exp\n      swap1\n      div\n      0xffffffffffffffffffffffffffffffffffffffff\n      and\n        /* \"main.sol\":1259:1296  loans[_poolId].operator == msg.sender */\n      0xffffffffffffffffffffffffffffffffffffffff\n      and\n      eq\n        /* \"main.sol\":1211:1297  (loans[_poolId].owner == msg.sender)... */\n    tag_100:\n        /* \"main.sol\":1203:1316  require((loans[_poolId].owner == msg.sender)... */\n      tag_101\n      jumpi\n      mload(0x40)\n      0x08c379a000000000000000000000000000000000000000000000000000000000\n      dup2\n      mstore\n      0x04\n      add\n      tag_102\n      swap1\n      tag_69\n      jump\t// in\n    tag_102:\n      mload(0x40)\n      dup1\n      swap2\n      sub\n      swap1\n      revert\n    tag_101:\n        /* \"main.sol\":4008:4024  Loan memory loan */\n      0x00\n        /* \"main.sol\":4027:4032  loans */\n      0x01\n        /* \"main.sol\":4027:4041  loans[_poolId] */\n      0x00\n        /* \"main.sol\":4033:4040  _poolId */\n      dup5\n        /* \"main.sol\":4027:4041  loans[_poolId] */\n      dup2\n      mstore\n      0x20\n      add\n      swap1\n      dup2\n      mstore\n      0x20\n      add\n      0x00\n      keccak256\n        /* \"main.sol\":4008:4041  Loan memory loan = loans[_poolId] */\n      mload(0x40)\n      dup1\n      0x0140\n      add\n      0x40\n      mstore\n      swap1\n      dup2\n      0x00\n      dup3\n      add\n      0x00\n      swap1\n      sload\n      swap1\n      0x0100\n      exp\n      swap1\n      div\n      0xffffffffffffffffffffffffffffffffffffffff\n      and\n      0xffffffffffffffffffffffffffffffffffffffff\n      and\n      0xffffffffffffffffffffffffffffffffffffffff\n      and\n      dup2\n      mstore\n      0x20\n      add\n      0x01\n      dup3\n      add\n      0x00\n      swap1\n      sload\n      swap1\n      0x0100\n      exp\n      swap1\n      div\n      0xffffffffffffffffffffffffffffffffffffffff\n      and\n      0xffffffffffffffffffffffffffffffffffffffff\n      and\n      0xffffffffffffffffffffffffffffffffffffffff\n      and\n      dup2\n      mstore\n      0x20\n      add\n      0x02\n      dup3\n      add\n      0x00\n      swap1\n      sload\n      swap1\n      0x0100\n      exp\n      swap1\n      div\n      0xffffffffffffffffffffffffffffffffffffffff\n      and\n      0xffffffffffffffffffffffffffffffffffffffff\n      and\n      0xffffffffffffffffffffffffffffffffffffffff\n      and\n      dup2\n      mstore\n      0x20\n      add\n      0x03\n      dup3\n      add\n      0x00\n      swap1\n      sload\n      swap1\n      0x0100\n      exp\n      swap1\n      div\n      0xffffffffffffffffffffffffffffffffffffffff\n      and\n      0xffffffffffffffffffffffffffffffffffffffff\n      and\n      0xffffffffffffffffffffffffffffffffffffffff\n      and\n      dup2\n      mstore\n      0x20\n      add\n      0x04\n      dup3\n      add\n      sload\n      dup2\n      mstore\n      0x20\n      add\n      0x05\n      dup3\n      add\n      sload\n      dup2\n      mstore\n      0x20\n      add\n      0x06\n      dup3\n      add\n      sload\n      dup2\n      mstore\n      0x20\n      add\n      0x07\n      dup3\n      add\n      sload\n      dup2\n      mstore\n      0x20\n      add\n      0x08\n      dup3\n      add\n      sload\n      dup2\n      mstore\n      0x20\n      add\n      0x09\n      dup3\n      add\n      0x00\n      swap1\n      sload\n      swap1\n      0x0100\n      exp\n      swap1\n      div\n      0xff\n      and\n      iszero\n      iszero\n      iszero\n      iszero\n      dup2\n      mstore\n      pop\n      pop\n      swap1\n      pop\n        /* \"main.sol\":4076:4091  block.timestamp */\n      timestamp\n        /* \"main.sol\":4059:4063  loan */\n      dup2\n        /* \"main.sol\":4059:4073  loan.startTime */\n      0xa0\n      add\n      mload\n        /* \"main.sol\":4059:4091  loan.startTime > block.timestamp */\n      gt\n        /* \"main.sol\":4051:4116  require(loan.startTime > block.timestamp, \"LAN: already started\") */\n      tag_104\n      jumpi\n      mload(0x40)\n      0x08c379a000000000000000000000000000000000000000000000000000000000\n      dup2\n      mstore\n      0x04\n      add\n      tag_105\n      swap1\n      tag_106\n      jump\t// in\n    tag_105:\n      mload(0x40)\n      dup1\n      swap2\n      sub\n      swap1\n      revert\n    tag_104:\n        /* \"main.sol\":4126:4137  delete loan */\n      tag_107\n      tag_108\n      jump\t// in\n    tag_107:\n      swap1\n      pop\n        /* \"main.sol\":4152:4174  loanCancelled(_poolId) */\n      0xfe785ef891129b084b1c5a30e4d88eb97c97822c024cc25d5f9d806b897512e0\n        /* \"main.sol\":4166:4173  _poolId */\n      dup4\n        /* \"main.sol\":4152:4174  loanCancelled(_poolId) */\n      mload(0x40)\n      tag_109\n      swap2\n      swap1\n      tag_19\n      jump\t// in\n    tag_109:\n      mload(0x40)\n      dup1\n      swap2\n      sub\n      swap1\n      log1\n        /* \"main.sol\":3998:4181  {... */\n      pop\n        /* \"main.sol\":3937:4181  function cancel(uint256 _poolId) external onlyOwner(_poolId) {... */\n      pop\n      pop\n      jump\t// out\n        /* \"main.sol\":4751:5184  function liquidate(uint256 _poolId) external {... */\n    tag_33:\n        /* \"main.sol\":4806:4822  Loan memory loan */\n      0x00\n        /* \"main.sol\":4825:4830  loans */\n      0x01\n        /* \"main.sol\":4825:4839  loans[_poolId] */\n      0x00\n        /* \"main.sol\":4831:4838  _poolId */\n      dup4\n        /* \"main.sol\":4825:4839  loans[_poolId] */\n      dup2\n      mstore\n      0x20\n      add\n      swap1\n      dup2\n      mstore\n      0x20\n      add\n      0x00\n      keccak256\n        /* \"main.sol\":4806:4839  Loan memory loan = loans[_poolId] */\n      mload(0x40)\n      dup1\n      0x0140\n      add\n      0x40\n      mstore\n      swap1\n      dup2\n      0x00\n      dup3\n      add\n      0x00\n      swap1\n      sload\n      swap1\n      0x0100\n      exp\n      swap1\n      div\n      0xffffffffffffffffffffffffffffffffffffffff\n      and\n      0xffffffffffffffffffffffffffffffffffffffff\n      and\n      0xffffffffffffffffffffffffffffffffffffffff\n      and\n      dup2\n      mstore\n      0x20\n      add\n      0x01\n      dup3\n      add\n      0x00\n      swap1\n      sload\n      swap1\n      0x0100\n      exp\n      swap1\n      div\n      0xffffffffffffffffffffffffffffffffffffffff\n      and\n      0xffffffffffffffffffffffffffffffffffffffff\n      and\n      0xffffffffffffffffffffffffffffffffffffffff\n      and\n      dup2\n      mstore\n      0x20\n      add\n      0x02\n      dup3\n      add\n      0x00\n      swap1\n      sload\n      swap1\n      0x0100\n      exp\n      swap1\n      div\n      0xffffffffffffffffffffffffffffffffffffffff\n      and\n      0xffffffffffffffffffffffffffffffffffffffff\n      and\n      0xffffffffffffffffffffffffffffffffffffffff\n      and\n      dup2\n      mstore\n      0x20\n      add\n      0x03\n      dup3\n      add\n      0x00\n      swap1\n      sload\n      swap1\n      0x0100\n      exp\n      swap1\n      div\n      0xffffffffffffffffffffffffffffffffffffffff\n      and\n      0xffffffffffffffffffffffffffffffffffffffff\n      and\n      0xffffffffffffffffffffffffffffffffffffffff\n      and\n      dup2\n      mstore\n      0x20\n      add\n      0x04\n      dup3\n      add\n      sload\n      dup2\n      mstore\n      0x20\n      add\n      0x05\n      dup3\n      add\n      sload\n      dup2\n      mstore\n      0x20\n      add\n      0x06\n      dup3\n      add\n      sload\n      dup2\n      mstore\n      0x20\n      add\n      0x07\n      dup3\n      add\n      sload\n      dup2\n      mstore\n      0x20\n      add\n      0x08\n      dup3\n      add\n      sload\n      dup2\n      mstore\n      0x20\n      add\n      0x09\n      dup3\n      add\n      0x00\n      swap1\n      sload\n      swap1\n      0x0100\n      exp\n      swap1\n      div\n      0xff\n      and\n      iszero\n      iszero\n      iszero\n      iszero\n      dup2\n      mstore\n      pop\n      pop\n      swap1\n      pop\n        /* \"main.sol\":4857:4872  _ended(_poolId) */\n      tag_111\n        /* \"main.sol\":4864:4871  _poolId */\n      dup3\n        /* \"main.sol\":4857:4863  _ended */\n      tag_83\n        /* \"main.sol\":4857:4872  _ended(_poolId) */\n      jump\t// in\n    tag_111:\n        /* \"main.sol\":4849:4896  require(_ended(_poolId), \"LAN: loan not ended\") */\n      tag_112\n      jumpi\n      mload(0x40)\n      0x08c379a000000000000000000000000000000000000000000000000000000000\n      dup2\n      mstore\n      0x04\n      add\n      tag_113\n      swap1\n      tag_114\n      jump\t// in\n    tag_113:\n      mload(0x40)\n      dup1\n      swap2\n      sub\n      swap1\n      revert\n    tag_112:\n        /* \"main.sol\":4906:4926  Bid memory latestBid */\n      0x00\n        /* \"main.sol\":4929:4933  bids */\n      0x02\n        /* \"main.sol\":4929:4942  bids[_poolId] */\n      0x00\n        /* \"main.sol\":4934:4941  _poolId */\n      dup5\n        /* \"main.sol\":4929:4942  bids[_poolId] */\n      dup2\n      mstore\n      0x20\n      add\n      swap1\n      dup2\n      mstore\n      0x20\n      add\n      0x00\n      keccak256\n        /* \"main.sol\":4929:4956  bids[_poolId][loan.numBids] */\n      0x00\n        /* \"main.sol\":4943:4947  loan */\n      dup4\n        /* \"main.sol\":4943:4955  loan.numBids */\n      0x0100\n      add\n      mload\n        /* \"main.sol\":4929:4956  bids[_poolId][loan.numBids] */\n      dup2\n      mstore\n      0x20\n      add\n      swap1\n      dup2\n      mstore\n      0x20\n      add\n      0x00\n      keccak256\n        /* \"main.sol\":4906:4956  Bid memory latestBid = bids[_poolId][loan.numBids] */\n      mload(0x40)\n      dup1\n      0x80\n      add\n      0x40\n      mstore\n      swap1\n      dup2\n      0x00\n      dup3\n      add\n      sload\n      dup2\n      mstore\n      0x20\n      add\n      0x01\n      dup3\n      add\n      sload\n      dup2\n      mstore\n      0x20\n      add\n      0x02\n      dup3\n      add\n      0x00\n      swap1\n      sload\n      swap1\n      0x0100\n      exp\n      swap1\n      div\n      0xffffffffffffffffffffffffffffffffffffffff\n      and\n      0xffffffffffffffffffffffffffffffffffffffff\n      and\n      0xffffffffffffffffffffffffffffffffffffffff\n      and\n      dup2\n      mstore\n      0x20\n      add\n      0x03\n      dup3\n      add\n      sload\n      dup2\n      mstore\n      pop\n      pop\n      swap1\n      pop\n        /* \"main.sol\":4992:5002  msg.sender */\n      caller\n        /* \"main.sol\":4974:5002  latestBid.user == msg.sender */\n      0xffffffffffffffffffffffffffffffffffffffff\n      and\n        /* \"main.sol\":4974:4983  latestBid */\n      dup2\n        /* \"main.sol\":4974:4988  latestBid.user */\n      0x40\n      add\n      mload\n        /* \"main.sol\":4974:5002  latestBid.user == msg.sender */\n      0xffffffffffffffffffffffffffffffffffffffff\n      and\n      eq\n        /* \"main.sol\":4966:5029  require(latestBid.user == msg.sender, \"LAN: not latest bidder\") */\n      tag_115\n      jumpi\n      mload(0x40)\n      0x08c379a000000000000000000000000000000000000000000000000000000000\n      dup2\n      mstore\n      0x04\n      add\n      tag_116\n      swap1\n      tag_117\n      jump\t// in\n    tag_116:\n      mload(0x40)\n      dup1\n      swap2\n      sub\n      swap1\n      revert\n    tag_115:\n        /* \"main.sol\":5063:5074  IERC721 NFT */\n      0x00\n        /* \"main.sol\":5085:5089  loan */\n      dup3\n        /* \"main.sol\":5085:5107  loan.collectionAddress */\n      0x60\n      add\n      mload\n        /* \"main.sol\":5063:5108  IERC721 NFT = IERC721(loan.collectionAddress) */\n      swap1\n      pop\n        /* \"main.sol\":5118:5121  NFT */\n      dup1\n        /* \"main.sol\":5118:5138  NFT.safeTransferFrom */\n      0xffffffffffffffffffffffffffffffffffffffff\n      and\n      0x42842e0e\n        /* \"main.sol\":5147:5151  this */\n      address\n        /* \"main.sol\":5154:5164  msg.sender */\n      caller\n        /* \"main.sol\":5166:5170  loan */\n      dup7\n        /* \"main.sol\":5166:5176  loan.nftId */\n      0x80\n      add\n      mload\n        /* \"main.sol\":5118:5177  NFT.safeTransferFrom(address(this), msg.sender, loan.nftId) */\n      mload(0x40)\n      dup5\n      0xffffffff\n      and\n      0xe0\n      shl\n      dup2\n      mstore\n      0x04\n      add\n      tag_118\n      swap4\n      swap3\n      swap2\n      swap1\n      tag_72\n      jump\t// in\n    tag_118:\n      0x00\n      mload(0x40)\n      dup1\n      dup4\n      sub\n      dup2\n      0x00\n      dup8\n      dup1\n      extcodesize\n      iszero\n      dup1\n      iszero\n      tag_119\n      jumpi\n      0x00\n      dup1\n      revert\n    tag_119:\n      pop\n      gas\n      call\n      iszero\n      dup1\n      iszero\n      tag_121\n      jumpi\n      returndatasize\n      0x00\n      dup1\n      returndatacopy\n      revert(0x00, returndatasize)\n    tag_121:\n      pop\n      pop\n      pop\n      pop\n        /* \"main.sol\":4796:5184  {... */\n      pop\n      pop\n      pop\n        /* \"main.sol\":4751:5184  function liquidate(uint256 _poolId) external {... */\n      pop\n      jump\t// out\n        /* \"main.sol\":4220:4697  function endLoan(uint256 _poolId) external onlyOwner(_poolId) {... */\n    tag_36:\n        /* \"main.sol\":4273:4280  _poolId */\n      dup1\n        /* \"main.sol\":1236:1246  msg.sender */\n      caller\n        /* \"main.sol\":1212:1246  loans[_poolId].owner == msg.sender */\n      0xffffffffffffffffffffffffffffffffffffffff\n      and\n        /* \"main.sol\":1212:1217  loans */\n      0x01\n        /* \"main.sol\":1212:1226  loans[_poolId] */\n      0x00\n        /* \"main.sol\":1218:1225  _poolId */\n      dup4\n        /* \"main.sol\":1212:1226  loans[_poolId] */\n      dup2\n      mstore\n      0x20\n      add\n      swap1\n      dup2\n      mstore\n      0x20\n      add\n      0x00\n      keccak256\n        /* \"main.sol\":1212:1232  loans[_poolId].owner */\n      0x00\n      add\n      0x00\n      swap1\n      sload\n      swap1\n      0x0100\n      exp\n      swap1\n      div\n      0xffffffffffffffffffffffffffffffffffffffff\n      and\n        /* \"main.sol\":1212:1246  loans[_poolId].owner == msg.sender */\n      0xffffffffffffffffffffffffffffffffffffffff\n      and\n      eq\n        /* \"main.sol\":1211:1297  (loans[_poolId].owner == msg.sender)... */\n      dup1\n      tag_123\n      jumpi\n      pop\n        /* \"main.sol\":1286:1296  msg.sender */\n      caller\n        /* \"main.sol\":1259:1296  loans[_poolId].operator == msg.sender */\n      0xffffffffffffffffffffffffffffffffffffffff\n      and\n        /* \"main.sol\":1259:1264  loans */\n      0x01\n        /* \"main.sol\":1259:1273  loans[_poolId] */\n      0x00\n        /* \"main.sol\":1265:1272  _poolId */\n      dup4\n        /* \"main.sol\":1259:1273  loans[_poolId] */\n      dup2\n      mstore\n      0x20\n      add\n      swap1\n      dup2\n      mstore\n      0x20\n      add\n      0x00\n      keccak256\n        /* \"main.sol\":1259:1282  loans[_poolId].operator */\n      0x02\n      add\n      0x00\n      swap1\n      sload\n      swap1\n      0x0100\n      exp\n      swap1\n      div\n      0xffffffffffffffffffffffffffffffffffffffff\n      and\n        /* \"main.sol\":1259:1296  loans[_poolId].operator == msg.sender */\n      0xffffffffffffffffffffffffffffffffffffffff\n      and\n      eq\n        /* \"main.sol\":1211:1297  (loans[_poolId].owner == msg.sender)... */\n    tag_123:\n        /* \"main.sol\":1203:1316  require((loans[_poolId].owner == msg.sender)... */\n      tag_124\n      jumpi\n      mload(0x40)\n      0x08c379a000000000000000000000000000000000000000000000000000000000\n      dup2\n      mstore\n      0x04\n      add\n      tag_125\n      swap1\n      tag_69\n      jump\t// in\n    tag_125:\n      mload(0x40)\n      dup1\n      swap2\n      sub\n      swap1\n      revert\n    tag_124:\n        /* \"main.sol\":4292:4308  Loan memory loan */\n      0x00\n        /* \"main.sol\":4311:4316  loans */\n      0x01\n        /* \"main.sol\":4311:4325  loans[_poolId] */\n      0x00\n        /* \"main.sol\":4317:4324  _poolId */\n      dup5\n        /* \"main.sol\":4311:4325  loans[_poolId] */\n      dup2\n      mstore\n      0x20\n      add\n      swap1\n      dup2\n      mstore\n      0x20\n      add\n      0x00\n      keccak256\n        /* \"main.sol\":4292:4325  Loan memory loan = loans[_poolId] */\n      mload(0x40)\n      dup1\n      0x0140\n      add\n      0x40\n      mstore\n      swap1\n      dup2\n      0x00\n      dup3\n      add\n      0x00\n      swap1\n      sload\n      swap1\n      0x0100\n      exp\n      swap1\n      div\n      0xffffffffffffffffffffffffffffffffffffffff\n      and\n      0xffffffffffffffffffffffffffffffffffffffff\n      and\n      0xffffffffffffffffffffffffffffffffffffffff\n      and\n      dup2\n      mstore\n      0x20\n      add\n      0x01\n      dup3\n      add\n      0x00\n      swap1\n      sload\n      swap1\n      0x0100\n      exp\n      swap1\n      div\n      0xffffffffffffffffffffffffffffffffffffffff\n      and\n      0xffffffffffffffffffffffffffffffffffffffff\n      and\n      0xffffffffffffffffffffffffffffffffffffffff\n      and\n      dup2\n      mstore\n      0x20\n      add\n      0x02\n      dup3\n      add\n      0x00\n      swap1\n      sload\n      swap1\n      0x0100\n      exp\n      swap1\n      div\n      0xffffffffffffffffffffffffffffffffffffffff\n      and\n      0xffffffffffffffffffffffffffffffffffffffff\n      and\n      0xffffffffffffffffffffffffffffffffffffffff\n      and\n      dup2\n      mstore\n      0x20\n      add\n      0x03\n      dup3\n      add\n      0x00\n      swap1\n      sload\n      swap1\n      0x0100\n      exp\n      swap1\n      div\n      0xffffffffffffffffffffffffffffffffffffffff\n      and\n      0xffffffffffffffffffffffffffffffffffffffff\n      and\n      0xffffffffffffffffffffffffffffffffffffffff\n      and\n      dup2\n      mstore\n      0x20\n      add\n      0x04\n      dup3\n      add\n      sload\n      dup2\n      mstore\n      0x20\n      add\n      0x05\n      dup3\n      add\n      sload\n      dup2\n      mstore\n      0x20\n      add\n      0x06\n      dup3\n      add\n      sload\n      dup2\n      mstore\n      0x20\n      add\n      0x07\n      dup3\n      add\n      sload\n      dup2\n      mstore\n      0x20\n      add\n      0x08\n      dup3\n      add\n      sload\n      dup2\n      mstore\n      0x20\n      add\n      0x09\n      dup3\n      add\n      0x00\n      swap1\n      sload\n      swap1\n      0x0100\n      exp\n      swap1\n      div\n      0xff\n      and\n      iszero\n      iszero\n      iszero\n      iszero\n      dup2\n      mstore\n      pop\n      pop\n      swap1\n      pop\n        /* \"main.sol\":4335:4355  Bid memory latestBid */\n      0x00\n        /* \"main.sol\":4358:4362  bids */\n      0x02\n        /* \"main.sol\":4358:4371  bids[_poolId] */\n      0x00\n        /* \"main.sol\":4363:4370  _poolId */\n      dup6\n        /* \"main.sol\":4358:4371  bids[_poolId] */\n      dup2\n      mstore\n      0x20\n      add\n      swap1\n      dup2\n      mstore\n      0x20\n      add\n      0x00\n      keccak256\n        /* \"main.sol\":4358:4385  bids[_poolId][loan.numBids] */\n      0x00\n        /* \"main.sol\":4372:4376  loan */\n      dup4\n        /* \"main.sol\":4372:4384  loan.numBids */\n      0x0100\n      add\n      mload\n        /* \"main.sol\":4358:4385  bids[_poolId][loan.numBids] */\n      dup2\n      mstore\n      0x20\n      add\n      swap1\n      dup2\n      mstore\n      0x20\n      add\n      0x00\n      keccak256\n        /* \"main.sol\":4335:4385  Bid memory latestBid = bids[_poolId][loan.numBids] */\n      mload(0x40)\n      dup1\n      0x80\n      add\n      0x40\n      mstore\n      swap1\n      dup2\n      0x00\n      dup3\n      add\n      sload\n      dup2\n      mstore\n      0x20\n      add\n      0x01\n      dup3\n      add\n      sload\n      dup2\n      mstore\n      0x20\n      add\n      0x02\n      dup3\n      add\n      0x00\n      swap1\n      sload\n      swap1\n      0x0100\n      exp\n      swap1\n      div\n      0xffffffffffffffffffffffffffffffffffffffff\n      and\n      0xffffffffffffffffffffffffffffffffffffffff\n      and\n      0xffffffffffffffffffffffffffffffffffffffff\n      and\n      dup2\n      mstore\n      0x20\n      add\n      0x03\n      dup3\n      add\n      sload\n      dup2\n      mstore\n      pop\n      pop\n      swap1\n      pop\n        /* \"main.sol\":4446:4450  loan */\n      dup2\n        /* \"main.sol\":4446:4456  loan.token */\n      0x20\n      add\n      mload\n        /* \"main.sol\":4439:4470  IERC20(loan.token).transferFrom */\n      0xffffffffffffffffffffffffffffffffffffffff\n      and\n      0x23b872dd\n        /* \"main.sol\":4471:4481  msg.sender */\n      caller\n        /* \"main.sol\":4483:4492  latestBid */\n      dup4\n        /* \"main.sol\":4483:4497  latestBid.user */\n      0x40\n      add\n      mload\n        /* \"main.sol\":4499:4527  _calculateLoanValue(_poolId) */\n      tag_127\n        /* \"main.sol\":4519:4526  _poolId */\n      dup9\n        /* \"main.sol\":4499:4518  _calculateLoanValue */\n      tag_93\n        /* \"main.sol\":4499:4527  _calculateLoanValue(_poolId) */\n      jump\t// in\n    tag_127:\n        /* \"main.sol\":4439:4528  IERC20(loan.token).transferFrom(msg.sender, latestBid.user, _calculateLoanValue(_poolId)) */\n      mload(0x40)\n      dup5\n      0xffffffff\n      and\n      0xe0\n      shl\n      dup2\n      mstore\n      0x04\n      add\n      tag_128\n      swap4\n      swap3\n      swap2\n      swap1\n      tag_72\n      jump\t// in\n    tag_128:\n      0x20\n      mload(0x40)\n      dup1\n      dup4\n      sub\n      dup2\n      0x00\n      dup8\n      gas\n      call\n      iszero\n      dup1\n      iszero\n      tag_130\n      jumpi\n      returndatasize\n      0x00\n      dup1\n      returndatacopy\n      revert(0x00, returndatasize)\n    tag_130:\n      pop\n      pop\n      pop\n      pop\n      mload(0x40)\n      returndatasize\n      not(0x1f)\n      0x1f\n      dup3\n      add\n      and\n      dup3\n      add\n      dup1\n      0x40\n      mstore\n      pop\n      dup2\n      add\n      swap1\n      tag_131\n      swap2\n      swap1\n      tag_132\n      jump\t// in\n    tag_131:\n      pop\n        /* \"main.sol\":4576:4587  IERC721 NFT */\n      0x00\n        /* \"main.sol\":4598:4602  loan */\n      dup3\n        /* \"main.sol\":4598:4620  loan.collectionAddress */\n      0x60\n      add\n      mload\n        /* \"main.sol\":4576:4621  IERC721 NFT = IERC721(loan.collectionAddress) */\n      swap1\n      pop\n        /* \"main.sol\":4631:4634  NFT */\n      dup1\n        /* \"main.sol\":4631:4651  NFT.safeTransferFrom */\n      0xffffffffffffffffffffffffffffffffffffffff\n      and\n      0x42842e0e\n        /* \"main.sol\":4660:4664  this */\n      address\n        /* \"main.sol\":4667:4677  msg.sender */\n      caller\n        /* \"main.sol\":4679:4683  loan */\n      dup7\n        /* \"main.sol\":4679:4689  loan.nftId */\n      0x80\n      add\n      mload\n        /* \"main.sol\":4631:4690  NFT.safeTransferFrom(address(this), msg.sender, loan.nftId) */\n      mload(0x40)\n      dup5\n      0xffffffff\n      and\n      0xe0\n      shl\n      dup2\n      mstore\n      0x04\n      add\n      tag_133\n      swap4\n      swap3\n      swap2\n      swap1\n      tag_72\n      jump\t// in\n    tag_133:\n      0x00\n      mload(0x40)\n      dup1\n      dup4\n      sub\n      dup2\n      0x00\n      dup8\n      dup1\n      extcodesize\n      iszero\n      dup1\n      iszero\n      tag_134\n      jumpi\n      0x00\n      dup1\n      revert\n    tag_134:\n      pop\n      gas\n      call\n      iszero\n      dup1\n      iszero\n      tag_136\n      jumpi\n      returndatasize\n      0x00\n      dup1\n      returndatacopy\n      revert(0x00, returndatasize)\n    tag_136:\n      pop\n      pop\n      pop\n      pop\n        /* \"main.sol\":4282:4697  {... */\n      pop\n      pop\n      pop\n        /* \"main.sol\":4220:4697  function endLoan(uint256 _poolId) external onlyOwner(_poolId) {... */\n      pop\n      pop\n      jump\t// out\n        /* \"main.sol\":865:920  mapping(uint256 => mapping(uint256 => Bid)) public bids */\n    tag_40:\n      mstore(0x20, 0x02)\n      dup2\n      0x00\n      mstore\n      mstore(0x20, keccak256(0x00, 0x40))\n      dup1\n      0x00\n      mstore\n      keccak256(0x00, 0x40)\n      0x00\n      swap2\n      pop\n      swap2\n      pop\n      pop\n      dup1\n      0x00\n      add\n      sload\n      swap1\n      dup1\n      0x01\n      add\n      sload\n      swap1\n      dup1\n      0x02\n      add\n      0x00\n      swap1\n      sload\n      swap1\n      0x0100\n      exp\n      swap1\n      div\n      0xffffffffffffffffffffffffffffffffffffffff\n      and\n      swap1\n      dup1\n      0x03\n      add\n      sload\n      swap1\n      pop\n      dup5\n      jump\t// out\n        /* \"main.sol\":3290:3701  function setNewBidOwner(uint256 _poolId, address _newAddress) external {... */\n    tag_46:\n        /* \"main.sol\":3379:3396  _started(_poolId) */\n      tag_138\n        /* \"main.sol\":3388:3395  _poolId */\n      dup3\n        /* \"main.sol\":3379:3387  _started */\n      tag_78\n        /* \"main.sol\":3379:3396  _started(_poolId) */\n      jump\t// in\n    tag_138:\n        /* \"main.sol\":3371:3417  require(_started(_poolId), \"LAN: not started\") */\n      tag_139\n      jumpi\n      mload(0x40)\n      0x08c379a000000000000000000000000000000000000000000000000000000000\n      dup2\n      mstore\n      0x04\n      add\n      tag_140\n      swap1\n      tag_81\n      jump\t// in\n    tag_140:\n      mload(0x40)\n      dup1\n      swap2\n      sub\n      swap1\n      revert\n    tag_139:\n        /* \"main.sol\":3436:3451  _ended(_poolId) */\n      tag_141\n        /* \"main.sol\":3443:3450  _poolId */\n      dup3\n        /* \"main.sol\":3436:3442  _ended */\n      tag_83\n        /* \"main.sol\":3436:3451  _ended(_poolId) */\n      jump\t// in\n    tag_141:\n        /* \"main.sol\":3435:3451  !_ended(_poolId) */\n      iszero\n        /* \"main.sol\":3427:3474  require(!_ended(_poolId), \"LAN: already ended\") */\n      tag_142\n      jumpi\n      mload(0x40)\n      0x08c379a000000000000000000000000000000000000000000000000000000000\n      dup2\n      mstore\n      0x04\n      add\n      tag_143\n      swap1\n      tag_86\n      jump\t// in\n    tag_143:\n      mload(0x40)\n      dup1\n      swap2\n      sub\n      swap1\n      revert\n    tag_142:\n        /* \"main.sol\":3485:3501  Loan memory loan */\n      0x00\n        /* \"main.sol\":3504:3509  loans */\n      0x01\n        /* \"main.sol\":3504:3518  loans[_poolId] */\n      0x00\n        /* \"main.sol\":3510:3517  _poolId */\n      dup5\n        /* \"main.sol\":3504:3518  loans[_poolId] */\n      dup2\n      mstore\n      0x20\n      add\n      swap1\n      dup2\n      mstore\n      0x20\n      add\n      0x00\n      keccak256\n        /* \"main.sol\":3485:3518  Loan memory loan = loans[_poolId] */\n      mload(0x40)\n      dup1\n      0x0140\n      add\n      0x40\n      mstore\n      swap1\n      dup2\n      0x00\n      dup3\n      add\n      0x00\n      swap1\n      sload\n      swap1\n      0x0100\n      exp\n      swap1\n      div\n      0xffffffffffffffffffffffffffffffffffffffff\n      and\n      0xffffffffffffffffffffffffffffffffffffffff\n      and\n      0xffffffffffffffffffffffffffffffffffffffff\n      and\n      dup2\n      mstore\n      0x20\n      add\n      0x01\n      dup3\n      add\n      0x00\n      swap1\n      sload\n      swap1\n      0x0100\n      exp\n      swap1\n      div\n      0xffffffffffffffffffffffffffffffffffffffff\n      and\n      0xffffffffffffffffffffffffffffffffffffffff\n      and\n      0xffffffffffffffffffffffffffffffffffffffff\n      and\n      dup2\n      mstore\n      0x20\n      add\n      0x02\n      dup3\n      add\n      0x00\n      swap1\n      sload\n      swap1\n      0x0100\n      exp\n      swap1\n      div\n      0xffffffffffffffffffffffffffffffffffffffff\n      and\n      0xffffffffffffffffffffffffffffffffffffffff\n      and\n      0xffffffffffffffffffffffffffffffffffffffff\n      and\n      dup2\n      mstore\n      0x20\n      add\n      0x03\n      dup3\n      add\n      0x00\n      swap1\n      sload\n      swap1\n      0x0100\n      exp\n      swap1\n      div\n      0xffffffffffffffffffffffffffffffffffffffff\n      and\n      0xffffffffffffffffffffffffffffffffffffffff\n      and\n      0xffffffffffffffffffffffffffffffffffffffff\n      and\n      dup2\n      mstore\n      0x20\n      add\n      0x04\n      dup3\n      add\n      sload\n      dup2\n      mstore\n      0x20\n      add\n      0x05\n      dup3\n      add\n      sload\n      dup2\n      mstore\n      0x20\n      add\n      0x06\n      dup3\n      add\n      sload\n      dup2\n      mstore\n      0x20\n      add\n      0x07\n      dup3\n      add\n      sload\n      dup2\n      mstore\n      0x20\n      add\n      0x08\n      dup3\n      add\n      sload\n      dup2\n      mstore\n      0x20\n      add\n      0x09\n      dup3\n      add\n      0x00\n      swap1\n      sload\n      swap1\n      0x0100\n      exp\n      swap1\n      div\n      0xff\n      and\n      iszero\n      iszero\n      iszero\n      iszero\n      dup2\n      mstore\n      pop\n      pop\n      swap1\n      pop\n        /* \"main.sol\":3528:3549  Bid storage latestBid */\n      0x00\n        /* \"main.sol\":3552:3556  bids */\n      0x02\n        /* \"main.sol\":3552:3565  bids[_poolId] */\n      0x00\n        /* \"main.sol\":3557:3564  _poolId */\n      dup6\n        /* \"main.sol\":3552:3565  bids[_poolId] */\n      dup2\n      mstore\n      0x20\n      add\n      swap1\n      dup2\n      mstore\n      0x20\n      add\n      0x00\n      keccak256\n        /* \"main.sol\":3552:3579  bids[_poolId][loan.numBids] */\n      0x00\n        /* \"main.sol\":3566:3570  loan */\n      dup4\n        /* \"main.sol\":3566:3578  loan.numBids */\n      0x0100\n      add\n      mload\n        /* \"main.sol\":3552:3579  bids[_poolId][loan.numBids] */\n      dup2\n      mstore\n      0x20\n      add\n      swap1\n      dup2\n      mstore\n      0x20\n      add\n      0x00\n      keccak256\n        /* \"main.sol\":3528:3579  Bid storage latestBid = bids[_poolId][loan.numBids] */\n      swap1\n      pop\n        /* \"main.sol\":3615:3625  msg.sender */\n      caller\n        /* \"main.sol\":3597:3625  latestBid.user == msg.sender */\n      0xffffffffffffffffffffffffffffffffffffffff\n      and\n        /* \"main.sol\":3597:3606  latestBid */\n      dup2\n        /* \"main.sol\":3597:3611  latestBid.user */\n      0x02\n      add\n      0x00\n      swap1\n      sload\n      swap1\n      0x0100\n      exp\n      swap1\n      div\n      0xffffffffffffffffffffffffffffffffffffffff\n      and\n        /* \"main.sol\":3597:3625  latestBid.user == msg.sender */\n      0xffffffffffffffffffffffffffffffffffffffff\n      and\n      eq\n        /* \"main.sol\":3589:3656  require(latestBid.user == msg.sender, \"LAN: Not the latest bidder\") */\n      tag_144\n      jumpi\n      mload(0x40)\n      0x08c379a000000000000000000000000000000000000000000000000000000000\n      dup2\n      mstore\n      0x04\n      add\n      tag_145\n      swap1\n      tag_146\n      jump\t// in\n    tag_145:\n      mload(0x40)\n      dup1\n      swap2\n      sub\n      swap1\n      revert\n    tag_144:\n        /* \"main.sol\":3683:3694  _newAddress */\n      dup3\n        /* \"main.sol\":3666:3675  latestBid */\n      dup2\n        /* \"main.sol\":3666:3680  latestBid.user */\n      0x02\n      add\n      0x00\n        /* \"main.sol\":3666:3694  latestBid.user = _newAddress */\n      0x0100\n      exp\n      dup2\n      sload\n      dup2\n      0xffffffffffffffffffffffffffffffffffffffff\n      mul\n      not\n      and\n      swap1\n      dup4\n      0xffffffffffffffffffffffffffffffffffffffff\n      and\n      mul\n      or\n      swap1\n      sstore\n      pop\n        /* \"main.sol\":3361:3701  {... */\n      pop\n      pop\n        /* \"main.sol\":3290:3701  function setNewBidOwner(uint256 _poolId, address _newAddress) external {... */\n      pop\n      pop\n      jump\t// out\n        /* \"main.sol\":1013:1085  mapping(uint256 => mapping(address => bool)) public whitelistedAddresses */\n    tag_49:\n      mstore(0x20, 0x03)\n      dup2\n      0x00\n      mstore\n      mstore(0x20, keccak256(0x00, 0x40))\n      dup1\n      0x00\n      mstore\n      keccak256(0x00, 0x40)\n      0x00\n      swap2\n      pop\n      swap2\n      pop\n      swap1\n      sload\n      swap1\n      0x0100\n      exp\n      swap1\n      div\n      0xff\n      and\n      dup2\n      jump\t// out\n        /* \"main.sol\":1341:2245  function launch(address _operator, address _token, address _collectionAddress, uint256 _nftId, uint256 _startTime, uint256 _endTime, bool _whitelisted) public {... */\n    tag_55:\n        /* \"main.sol\":1532:1547  block.timestamp */\n      timestamp\n        /* \"main.sol\":1518:1528  _startTime */\n      dup4\n        /* \"main.sol\":1518:1547  _startTime >= block.timestamp */\n      lt\n      iszero\n        /* \"main.sol\":1510:1575  require(_startTime >= block.timestamp, \"LAN: start time in past\") */\n      tag_148\n      jumpi\n      mload(0x40)\n      0x08c379a000000000000000000000000000000000000000000000000000000000\n      dup2\n      mstore\n      0x04\n      add\n      tag_149\n      swap1\n      tag_150\n      jump\t// in\n    tag_149:\n      mload(0x40)\n      dup1\n      swap2\n      sub\n      swap1\n      revert\n    tag_148:\n        /* \"main.sol\":1604:1614  _startTime */\n      dup3\n        /* \"main.sol\":1593:1601  _endTime */\n      dup3\n        /* \"main.sol\":1593:1614  _endTime > _startTime */\n      gt\n        /* \"main.sol\":1585:1639  require(_endTime > _startTime, \"LAN: start after end\") */\n      tag_151\n      jumpi\n      mload(0x40)\n      0x08c379a000000000000000000000000000000000000000000000000000000000\n      dup2\n      mstore\n      0x04\n      add\n      tag_152\n      swap1\n      tag_153\n      jump\t// in\n    tag_152:\n      mload(0x40)\n      dup1\n      swap2\n      sub\n      swap1\n      revert\n    tag_151:\n        /* \"main.sol\":1664:2114  Loan({... */\n      mload(0x40)\n      dup1\n      0x0140\n      add\n      0x40\n      mstore\n      dup1\n        /* \"main.sol\":1698:1716  _collectionAddress */\n      dup7\n        /* \"main.sol\":1690:1725  IERC721(_collectionAddress).ownerOf */\n      0xffffffffffffffffffffffffffffffffffffffff\n      and\n      0x6352211e\n        /* \"main.sol\":1726:1732  _nftId */\n      dup8\n        /* \"main.sol\":1690:1733  IERC721(_collectionAddress).ownerOf(_nftId) */\n      mload(0x40)\n      dup3\n      0xffffffff\n      and\n      0xe0\n      shl\n      dup2\n      mstore\n      0x04\n      add\n      tag_154\n      swap2\n      swap1\n      tag_19\n      jump\t// in\n    tag_154:\n      0x20\n      mload(0x40)\n      dup1\n      dup4\n      sub\n      dup2\n      dup7\n      gas\n      staticcall\n      iszero\n      dup1\n      iszero\n      tag_156\n      jumpi\n      returndatasize\n      0x00\n      dup1\n      returndatacopy\n      revert(0x00, returndatasize)\n    tag_156:\n      pop\n      pop\n      pop\n      pop\n      mload(0x40)\n      returndatasize\n      not(0x1f)\n      0x1f\n      dup3\n      add\n      and\n      dup3\n      add\n      dup1\n      0x40\n      mstore\n      pop\n      dup2\n      add\n      swap1\n      tag_157\n      swap2\n      swap1\n      tag_158\n      jump\t// in\n    tag_157:\n        /* \"main.sol\":1664:2114  Loan({... */\n      0xffffffffffffffffffffffffffffffffffffffff\n      and\n      dup2\n      mstore\n      0x20\n      add\n        /* \"main.sol\":1870:1876  _token */\n      dup8\n        /* \"main.sol\":1664:2114  Loan({... */\n      0xffffffffffffffffffffffffffffffffffffffff\n      and\n      dup2\n      mstore\n      0x20\n      add\n        /* \"main.sol\":1757:1766  _operator */\n      dup9\n        /* \"main.sol\":1664:2114  Loan({... */\n      0xffffffffffffffffffffffffffffffffffffffff\n      and\n      dup2\n      mstore\n      0x20\n      add\n        /* \"main.sol\":1909:1927  _collectionAddress */\n      dup7\n        /* \"main.sol\":1664:2114  Loan({... */\n      0xffffffffffffffffffffffffffffffffffffffff\n      and\n      dup2\n      mstore\n      0x20\n      add\n        /* \"main.sol\":1948:1954  _nftId */\n      dup6\n        /* \"main.sol\":1664:2114  Loan({... */\n      dup2\n      mstore\n      0x20\n      add\n        /* \"main.sol\":1979:1989  _startTime */\n      dup5\n        /* \"main.sol\":1664:2114  Loan({... */\n      dup2\n      mstore\n      0x20\n      add\n        /* \"main.sol\":2012:2020  _endTime */\n      dup4\n        /* \"main.sol\":1664:2114  Loan({... */\n      dup2\n      mstore\n      0x20\n      add\n        /* \"main.sol\":2039:2040  0 */\n      0x00\n        /* \"main.sol\":1664:2114  Loan({... */\n      dup2\n      mstore\n      0x20\n      add\n        /* \"main.sol\":2063:2064  0 */\n      0x00\n        /* \"main.sol\":1664:2114  Loan({... */\n      dup2\n      mstore\n      0x20\n      add\n        /* \"main.sol\":2091:2103  _whitelisted */\n      dup3\n        /* \"main.sol\":1664:2114  Loan({... */\n      iszero\n      iszero\n      dup2\n      mstore\n      pop\n        /* \"main.sol\":1649:1654  loans */\n      0x01\n        /* \"main.sol\":1649:1661  loans[count] */\n      0x00\n        /* \"main.sol\":1655:1660  count */\n      dup1\n      sload\n        /* \"main.sol\":1649:1661  loans[count] */\n      dup2\n      mstore\n      0x20\n      add\n      swap1\n      dup2\n      mstore\n      0x20\n      add\n      0x00\n      keccak256\n        /* \"main.sol\":1649:2114  loans[count] = Loan({... */\n      0x00\n      dup3\n      add\n      mload\n      dup2\n      0x00\n      add\n      exp(0x0100, 0x00)\n      dup2\n      sload\n      dup2\n      0xffffffffffffffffffffffffffffffffffffffff\n      mul\n      not\n      and\n      swap1\n      dup4\n      0xffffffffffffffffffffffffffffffffffffffff\n      and\n      mul\n      or\n      swap1\n      sstore\n      pop\n      0x20\n      dup3\n      add\n      mload\n      dup2\n      0x01\n      add\n      exp(0x0100, 0x00)\n      dup2\n      sload\n      dup2\n      0xffffffffffffffffffffffffffffffffffffffff\n      mul\n      not\n      and\n      swap1\n      dup4\n      0xffffffffffffffffffffffffffffffffffffffff\n      and\n      mul\n      or\n      swap1\n      sstore\n      pop\n      0x40\n      dup3\n      add\n      mload\n      dup2\n      0x02\n      add\n      exp(0x0100, 0x00)\n      dup2\n      sload\n      dup2\n      0xffffffffffffffffffffffffffffffffffffffff\n      mul\n      not\n      and\n      swap1\n      dup4\n      0xffffffffffffffffffffffffffffffffffffffff\n      and\n      mul\n      or\n      swap1\n      sstore\n      pop\n      0x60\n      dup3\n      add\n      mload\n      dup2\n      0x03\n      add\n      exp(0x0100, 0x00)\n      dup2\n      sload\n      dup2\n      0xffffffffffffffffffffffffffffffffffffffff\n      mul\n      not\n      and\n      swap1\n      dup4\n      0xffffffffffffffffffffffffffffffffffffffff\n      and\n      mul\n      or\n      swap1\n      sstore\n      pop\n      0x80\n      dup3\n      add\n      mload\n      dup2\n      0x04\n      add\n      sstore\n      0xa0\n      dup3\n      add\n      mload\n      dup2\n      0x05\n      add\n      sstore\n      0xc0\n      dup3\n      add\n      mload\n      dup2\n      0x06\n      add\n      sstore\n      0xe0\n      dup3\n      add\n      mload\n      dup2\n      0x07\n      add\n      sstore\n      0x0100\n      dup3\n      add\n      mload\n      dup2\n      0x08\n      add\n      sstore\n      0x0120\n      dup3\n      add\n      mload\n      dup2\n      0x09\n      add\n      exp(0x0100, 0x00)\n      dup2\n      sload\n      dup2\n      0xff\n      mul\n      not\n      and\n      swap1\n      dup4\n      iszero\n      iszero\n      mul\n      or\n      swap1\n      sstore\n      pop\n      swap1\n      pop\n      pop\n        /* \"main.sol\":2149:2164  block.timestamp */\n      timestamp\n        /* \"main.sol\":2124:2128  bids */\n      0x02\n        /* \"main.sol\":2124:2135  bids[count] */\n      0x00\n        /* \"main.sol\":2129:2134  count */\n      dup1\n      sload\n        /* \"main.sol\":2124:2135  bids[count] */\n      dup2\n      mstore\n      0x20\n      add\n      swap1\n      dup2\n      mstore\n      0x20\n      add\n      0x00\n      keccak256\n        /* \"main.sol\":2124:2138  bids[count][0] */\n      0x00\n        /* \"main.sol\":2136:2137  0 */\n      dup1\n        /* \"main.sol\":2124:2138  bids[count][0] */\n      dup2\n      mstore\n      0x20\n      add\n      swap1\n      dup2\n      mstore\n      0x20\n      add\n      0x00\n      keccak256\n        /* \"main.sol\":2124:2146  bids[count][0].bidTime */\n      0x00\n      add\n        /* \"main.sol\":2124:2164  bids[count][0].bidTime = block.timestamp */\n      dup2\n      swap1\n      sstore\n      pop\n        /* \"main.sol\":2187:2192  count */\n      sload(0x00)\n        /* \"main.sol\":2179:2221  newPool(count, _collectionAddress, _nftId) */\n      0xef8b2952c43462575e82711d0cc91169720a4589a9fa533d173e022437f5405e\n        /* \"main.sol\":2194:2212  _collectionAddress */\n      dup7\n        /* \"main.sol\":2214:2220  _nftId */\n      dup7\n        /* \"main.sol\":2179:2221  newPool(count, _collectionAddress, _nftId) */\n      mload(0x40)\n      tag_159\n      swap3\n      swap2\n      swap1\n      tag_160\n      jump\t// in\n    tag_159:\n      mload(0x40)\n      dup1\n      swap2\n      sub\n      swap1\n      log2\n        /* \"main.sol\":2231:2236  count */\n      0x00\n      dup1\n        /* \"main.sol\":2231:2238  count++ */\n      dup2\n      sload\n      dup1\n      swap3\n      swap2\n      swap1\n      tag_161\n      swap1\n      tag_162\n      jump\t// in\n    tag_161:\n      swap2\n      swap1\n      pop\n      sstore\n      pop\n        /* \"main.sol\":1341:2245  function launch(address _operator, address _token, address _collectionAddress, uint256 _nftId, uint256 _startTime, uint256 _endTime, bool _whitelisted) public {... */\n      pop\n      pop\n      pop\n      pop\n      pop\n      pop\n      pop\n      jump\t// out\n        /* \"main.sol\":680:717  mapping(uint256 => Loan) public loans */\n    tag_58:\n      mstore(0x20, 0x01)\n      dup1\n      0x00\n      mstore\n      keccak256(0x00, 0x40)\n      0x00\n      swap2\n      pop\n      swap1\n      pop\n      dup1\n      0x00\n      add\n      0x00\n      swap1\n      sload\n      swap1\n      0x0100\n      exp\n      swap1\n      div\n      0xffffffffffffffffffffffffffffffffffffffff\n      and\n      swap1\n      dup1\n      0x01\n      add\n      0x00\n      swap1\n      sload\n      swap1\n      0x0100\n      exp\n      swap1\n      div\n      0xffffffffffffffffffffffffffffffffffffffff\n      and\n      swap1\n      dup1\n      0x02\n      add\n      0x00\n      swap1\n      sload\n      swap1\n      0x0100\n      exp\n      swap1\n      div\n      0xffffffffffffffffffffffffffffffffffffffff\n      and\n      swap1\n      dup1\n      0x03\n      add\n      0x00\n      swap1\n      sload\n      swap1\n      0x0100\n      exp\n      swap1\n      div\n      0xffffffffffffffffffffffffffffffffffffffff\n      and\n      swap1\n      dup1\n      0x04\n      add\n      sload\n      swap1\n      dup1\n      0x05\n      add\n      sload\n      swap1\n      dup1\n      0x06\n      add\n      sload\n      swap1\n      dup1\n      0x07\n      add\n      sload\n      swap1\n      dup1\n      0x08\n      add\n      sload\n      swap1\n      dup1\n      0x09\n      add\n      0x00\n      swap1\n      sload\n      swap1\n      0x0100\n      exp\n      swap1\n      div\n      0xff\n      and\n      swap1\n      pop\n      dup11\n      jump\t// out\n        /* \"main.sol\":3734:3889  function changeWhitelist(uint256 _poolId, address _newAddress, bool _status) external {... */\n    tag_64:\n        /* \"main.sol\":3875:3882  _status */\n      dup1\n        /* \"main.sol\":3830:3850  whitelistedAddresses */\n      0x03\n        /* \"main.sol\":3830:3859  whitelistedAddresses[_poolId] */\n      0x00\n        /* \"main.sol\":3851:3858  _poolId */\n      dup6\n        /* \"main.sol\":3830:3859  whitelistedAddresses[_poolId] */\n      dup2\n      mstore\n      0x20\n      add\n      swap1\n      dup2\n      mstore\n      0x20\n      add\n      0x00\n      keccak256\n        /* \"main.sol\":3830:3872  whitelistedAddresses[_poolId][_newAddress] */\n      0x00\n        /* \"main.sol\":3860:3871  _newAddress */\n      dup5\n        /* \"main.sol\":3830:3872  whitelistedAddresses[_poolId][_newAddress] */\n      0xffffffffffffffffffffffffffffffffffffffff\n      and\n      0xffffffffffffffffffffffffffffffffffffffff\n      and\n      dup2\n      mstore\n      0x20\n      add\n      swap1\n      dup2\n      mstore\n      0x20\n      add\n      0x00\n      keccak256\n      0x00\n        /* \"main.sol\":3830:3882  whitelistedAddresses[_poolId][_newAddress] = _status */\n      0x0100\n      exp\n      dup2\n      sload\n      dup2\n      0xff\n      mul\n      not\n      and\n      swap1\n      dup4\n      iszero\n      iszero\n      mul\n      or\n      swap1\n      sstore\n      pop\n        /* \"main.sol\":3734:3889  function changeWhitelist(uint256 _poolId, address _newAddress, bool _status) external {... */\n      pop\n      pop\n      pop\n      jump\t// out\n        /* \"main.sol\":6390:6519  function _started(uint256 _poolId) internal view returns (bool){... */\n    tag_78:\n        /* \"main.sol\":6448:6452  bool */\n      0x00\n        /* \"main.sol\":6497:6512  block.timestamp */\n      timestamp\n        /* \"main.sol\":6470:6475  loans */\n      0x01\n        /* \"main.sol\":6470:6484  loans[_poolId] */\n      0x00\n        /* \"main.sol\":6476:6483  _poolId */\n      dup5\n        /* \"main.sol\":6470:6484  loans[_poolId] */\n      dup2\n      mstore\n      0x20\n      add\n      swap1\n      dup2\n      mstore\n      0x20\n      add\n      0x00\n      keccak256\n        /* \"main.sol\":6470:6494  loans[_poolId].startTime */\n      0x05\n      add\n      sload\n        /* \"main.sol\":6470:6512  loans[_poolId].startTime < block.timestamp */\n      lt\n        /* \"main.sol\":6463:6512  return loans[_poolId].startTime < block.timestamp */\n      swap1\n      pop\n        /* \"main.sol\":6390:6519  function _started(uint256 _poolId) internal view returns (bool){... */\n      swap2\n      swap1\n      pop\n      jump\t// out\n        /* \"main.sol\":6259:6385  function _ended(uint256 _poolId) internal view returns (bool){... */\n    tag_83:\n        /* \"main.sol\":6315:6319  bool */\n      0x00\n        /* \"main.sol\":6363:6378  block.timestamp */\n      timestamp\n        /* \"main.sol\":6337:6342  loans */\n      0x01\n        /* \"main.sol\":6337:6351  loans[_poolId] */\n      0x00\n        /* \"main.sol\":6343:6350  _poolId */\n      dup5\n        /* \"main.sol\":6337:6351  loans[_poolId] */\n      dup2\n      mstore\n      0x20\n      add\n      swap1\n      dup2\n      mstore\n      0x20\n      add\n      0x00\n      keccak256\n        /* \"main.sol\":6337:6359  loans[_poolId].endTime */\n      0x06\n      add\n      sload\n        /* \"main.sol\":6337:6378  loans[_poolId].endTime <= block.timestamp */\n      gt\n      iszero\n        /* \"main.sol\":6330:6378  return loans[_poolId].endTime <= block.timestamp */\n      swap1\n      pop\n        /* \"main.sol\":6259:6385  function _ended(uint256 _poolId) internal view returns (bool){... */\n      swap2\n      swap1\n      pop\n      jump\t// out\n        /* \"main.sol\":5735:6248  function _calculateLoanValue(uint256 _poolId) internal view returns (uint256){... */\n    tag_93:\n        /* \"main.sol\":5804:5811  uint256 */\n      0x00\n        /* \"main.sol\":5822:5838  Loan memory loan */\n      dup1\n        /* \"main.sol\":5841:5846  loans */\n      0x01\n        /* \"main.sol\":5841:5855  loans[_poolId] */\n      0x00\n        /* \"main.sol\":5847:5854  _poolId */\n      dup5\n        /* \"main.sol\":5841:5855  loans[_poolId] */\n      dup2\n      mstore\n      0x20\n      add\n      swap1\n      dup2\n      mstore\n      0x20\n      add\n      0x00\n      keccak256\n        /* \"main.sol\":5822:5855  Loan memory loan = loans[_poolId] */\n      mload(0x40)\n      dup1\n      0x0140\n      add\n      0x40\n      mstore\n      swap1\n      dup2\n      0x00\n      dup3\n      add\n      0x00\n      swap1\n      sload\n      swap1\n      0x0100\n      exp\n      swap1\n      div\n      0xffffffffffffffffffffffffffffffffffffffff\n      and\n      0xffffffffffffffffffffffffffffffffffffffff\n      and\n      0xffffffffffffffffffffffffffffffffffffffff\n      and\n      dup2\n      mstore\n      0x20\n      add\n      0x01\n      dup3\n      add\n      0x00\n      swap1\n      sload\n      swap1\n      0x0100\n      exp\n      swap1\n      div\n      0xffffffffffffffffffffffffffffffffffffffff\n      and\n      0xffffffffffffffffffffffffffffffffffffffff\n      and\n      0xffffffffffffffffffffffffffffffffffffffff\n      and\n      dup2\n      mstore\n      0x20\n      add\n      0x02\n      dup3\n      add\n      0x00\n      swap1\n      sload\n      swap1\n      0x0100\n      exp\n      swap1\n      div\n      0xffffffffffffffffffffffffffffffffffffffff\n      and\n      0xffffffffffffffffffffffffffffffffffffffff\n      and\n      0xffffffffffffffffffffffffffffffffffffffff\n      and\n      dup2\n      mstore\n      0x20\n      add\n      0x03\n      dup3\n      add\n      0x00\n      swap1\n      sload\n      swap1\n      0x0100\n      exp\n      swap1\n      div\n      0xffffffffffffffffffffffffffffffffffffffff\n      and\n      0xffffffffffffffffffffffffffffffffffffffff\n      and\n      0xffffffffffffffffffffffffffffffffffffffff\n      and\n      dup2\n      mstore\n      0x20\n      add\n      0x04\n      dup3\n      add\n      sload\n      dup2\n      mstore\n      0x20\n      add\n      0x05\n      dup3\n      add\n      sload\n      dup2\n      mstore\n      0x20\n      add\n      0x06\n      dup3\n      add\n      sload\n      dup2\n      mstore\n      0x20\n      add\n      0x07\n      dup3\n      add\n      sload\n      dup2\n      mstore\n      0x20\n      add\n      0x08\n      dup3\n      add\n      sload\n      dup2\n      mstore\n      0x20\n      add\n      0x09\n      dup3\n      add\n      0x00\n      swap1\n      sload\n      swap1\n      0x0100\n      exp\n      swap1\n      div\n      0xff\n      and\n      iszero\n      iszero\n      iszero\n      iszero\n      dup2\n      mstore\n      pop\n      pop\n      swap1\n      pop\n        /* \"main.sol\":5865:5885  Bid memory latestBid */\n      0x00\n        /* \"main.sol\":5888:5892  bids */\n      0x02\n        /* \"main.sol\":5888:5901  bids[_poolId] */\n      0x00\n        /* \"main.sol\":5893:5900  _poolId */\n      dup6\n        /* \"main.sol\":5888:5901  bids[_poolId] */\n      dup2\n      mstore\n      0x20\n      add\n      swap1\n      dup2\n      mstore\n      0x20\n      add\n      0x00\n      keccak256\n        /* \"main.sol\":5888:5915  bids[_poolId][loan.numBids] */\n      0x00\n        /* \"main.sol\":5902:5906  loan */\n      dup4\n        /* \"main.sol\":5902:5914  loan.numBids */\n      0x0100\n      add\n      mload\n        /* \"main.sol\":5888:5915  bids[_poolId][loan.numBids] */\n      dup2\n      mstore\n      0x20\n      add\n      swap1\n      dup2\n      mstore\n      0x20\n      add\n      0x00\n      keccak256\n        /* \"main.sol\":5865:5915  Bid memory latestBid = bids[_poolId][loan.numBids] */\n      mload(0x40)\n      dup1\n      0x80\n      add\n      0x40\n      mstore\n      swap1\n      dup2\n      0x00\n      dup3\n      add\n      sload\n      dup2\n      mstore\n      0x20\n      add\n      0x01\n      dup3\n      add\n      sload\n      dup2\n      mstore\n      0x20\n      add\n      0x02\n      dup3\n      add\n      0x00\n      swap1\n      sload\n      swap1\n      0x0100\n      exp\n      swap1\n      div\n      0xffffffffffffffffffffffffffffffffffffffff\n      and\n      0xffffffffffffffffffffffffffffffffffffffff\n      and\n      0xffffffffffffffffffffffffffffffffffffffff\n      and\n      dup2\n      mstore\n      0x20\n      add\n      0x03\n      dup3\n      add\n      sload\n      dup2\n      mstore\n      pop\n      pop\n      swap1\n      pop\n        /* \"main.sol\":5925:5944  uint256 timeElapsed */\n      0x00\n        /* \"main.sol\":5957:5972  _ended(_poolId) */\n      tag_167\n        /* \"main.sol\":5964:5971  _poolId */\n      dup6\n        /* \"main.sol\":5957:5963  _ended */\n      tag_83\n        /* \"main.sol\":5957:5972  _ended(_poolId) */\n      jump\t// in\n    tag_167:\n        /* \"main.sol\":5954:6126  if(_ended(_poolId)){... */\n      iszero\n      tag_168\n      jumpi\n        /* \"main.sol\":6022:6026  loan */\n      dup3\n        /* \"main.sol\":6022:6034  loan.endTime */\n      0xc0\n      add\n      mload\n        /* \"main.sol\":6002:6011  latestBid */\n      dup3\n        /* \"main.sol\":6002:6019  latestBid.bidTime */\n      0x00\n      add\n      mload\n        /* \"main.sol\":6002:6034  latestBid.bidTime - loan.endTime */\n      tag_169\n      swap2\n      swap1\n      tag_170\n      jump\t// in\n    tag_169:\n        /* \"main.sol\":5987:6034  timeElapsed =  latestBid.bidTime - loan.endTime */\n      swap1\n      pop\n        /* \"main.sol\":5954:6126  if(_ended(_poolId)){... */\n      jump(tag_171)\n    tag_168:\n        /* \"main.sol\":6100:6115  block.timestamp */\n      timestamp\n        /* \"main.sol\":6080:6089  latestBid */\n      dup3\n        /* \"main.sol\":6080:6097  latestBid.bidTime */\n      0x00\n      add\n      mload\n        /* \"main.sol\":6080:6115  latestBid.bidTime - block.timestamp */\n      tag_172\n      swap2\n      swap1\n      tag_170\n      jump\t// in\n    tag_172:\n        /* \"main.sol\":6065:6115  timeElapsed =  latestBid.bidTime - block.timestamp */\n      swap1\n      pop\n        /* \"main.sol\":5954:6126  if(_ended(_poolId)){... */\n    tag_171:\n        /* \"main.sol\":1139:1151  60*60*24*365 */\n      0x01e13380\n        /* \"main.sol\":6208:6219  timeElapsed */\n      dup2\n        /* \"main.sol\":6197:6205  10 ** 18 */\n      0x0de0b6b3a7640000\n        /* \"main.sol\":6186:6190  loan */\n      dup6\n        /* \"main.sol\":6186:6194  loan.apr */\n      0xe0\n      add\n      mload\n        /* \"main.sol\":6164:6173  latestBid */\n      dup6\n        /* \"main.sol\":6164:6183  latestBid.bidAmount */\n      0x20\n      add\n      mload\n        /* \"main.sol\":6164:6194  latestBid.bidAmount * loan.apr */\n      tag_173\n      swap2\n      swap1\n      tag_174\n      jump\t// in\n    tag_173:\n        /* \"main.sol\":6164:6205  latestBid.bidAmount * loan.apr / 10 ** 18 */\n      tag_175\n      swap2\n      swap1\n      tag_176\n      jump\t// in\n    tag_175:\n        /* \"main.sol\":6164:6219  latestBid.bidAmount * loan.apr / 10 ** 18 * timeElapsed */\n      tag_177\n      swap2\n      swap1\n      tag_174\n      jump\t// in\n    tag_177:\n        /* \"main.sol\":6164:6241  latestBid.bidAmount * loan.apr / 10 ** 18 * timeElapsed / SECONDS_IN_ONE_YEAR */\n      tag_178\n      swap2\n      swap1\n      tag_176\n      jump\t// in\n    tag_178:\n        /* \"main.sol\":6142:6151  latestBid */\n      dup3\n        /* \"main.sol\":6142:6161  latestBid.bidAmount */\n      0x20\n      add\n      mload\n        /* \"main.sol\":6142:6241  latestBid.bidAmount + latestBid.bidAmount * loan.apr / 10 ** 18 * timeElapsed / SECONDS_IN_ONE_YEAR */\n      tag_179\n      swap2\n      swap1\n      tag_98\n      jump\t// in\n    tag_179:\n        /* \"main.sol\":6135:6241  return latestBid.bidAmount + latestBid.bidAmount * loan.apr / 10 ** 18 * timeElapsed / SECONDS_IN_ONE_YEAR */\n      swap4\n      pop\n      pop\n      pop\n      pop\n        /* \"main.sol\":5735:6248  function _calculateLoanValue(uint256 _poolId) internal view returns (uint256){... */\n      swap2\n      swap1\n      pop\n      jump\t// out\n    tag_108:\n      mload(0x40)\n      dup1\n      0x0140\n      add\n      0x40\n      mstore\n      dup1\n      and(0xffffffffffffffffffffffffffffffffffffffff, 0x00)\n      dup2\n      mstore\n      0x20\n      add\n      and(0xffffffffffffffffffffffffffffffffffffffff, 0x00)\n      dup2\n      mstore\n      0x20\n      add\n      and(0xffffffffffffffffffffffffffffffffffffffff, 0x00)\n      dup2\n      mstore\n      0x20\n      add\n      and(0xffffffffffffffffffffffffffffffffffffffff, 0x00)\n      dup2\n      mstore\n      0x20\n      add\n      0x00\n      dup2\n      mstore\n      0x20\n      add\n      0x00\n      dup2\n      mstore\n      0x20\n      add\n      0x00\n      dup2\n      mstore\n      0x20\n      add\n      0x00\n      dup2\n      mstore\n      0x20\n      add\n      0x00\n      dup2\n      mstore\n      0x20\n      add\n      iszero(iszero(0x00))\n      dup2\n      mstore\n      pop\n      swap1\n      jump\t// out\n        /* \"#utility.yul\":7:84   */\n    tag_180:\n        /* \"#utility.yul\":44:51   */\n      0x00\n        /* \"#utility.yul\":73:78   */\n      dup2\n        /* \"#utility.yul\":62:78   */\n      swap1\n      pop\n        /* \"#utility.yul\":7:84   */\n      swap2\n      swap1\n      pop\n      jump\t// out\n        /* \"#utility.yul\":90:208   */\n    tag_181:\n        /* \"#utility.yul\":177:201   */\n      tag_226\n        /* \"#utility.yul\":195:200   */\n      dup2\n        /* \"#utility.yul\":177:201   */\n      tag_180\n      jump\t// in\n    tag_226:\n        /* \"#utility.yul\":172:175   */\n      dup3\n        /* \"#utility.yul\":165:202   */\n      mstore\n        /* \"#utility.yul\":90:208   */\n      pop\n      pop\n      jump\t// out\n        /* \"#utility.yul\":214:436   */\n    tag_19:\n        /* \"#utility.yul\":307:311   */\n      0x00\n        /* \"#utility.yul\":345:347   */\n      0x20\n        /* \"#utility.yul\":334:343   */\n      dup3\n        /* \"#utility.yul\":330:348   */\n      add\n        /* \"#utility.yul\":322:348   */\n      swap1\n      pop\n        /* \"#utility.yul\":358:429   */\n      tag_228\n        /* \"#utility.yul\":426:427   */\n      0x00\n        /* \"#utility.yul\":415:424   */\n      dup4\n        /* \"#utility.yul\":411:428   */\n      add\n        /* \"#utility.yul\":402:408   */\n      dup5\n        /* \"#utility.yul\":358:429   */\n      tag_181\n      jump\t// in\n    tag_228:\n        /* \"#utility.yul\":214:436   */\n      swap3\n      swap2\n      pop\n      pop\n      jump\t// out\n        /* \"#utility.yul\":523:640   */\n    tag_183:\n        /* \"#utility.yul\":632:633   */\n      0x00\n        /* \"#utility.yul\":629:630   */\n      dup1\n        /* \"#utility.yul\":622:634   */\n      revert\n        /* \"#utility.yul\":769:891   */\n    tag_185:\n        /* \"#utility.yul\":842:866   */\n      tag_233\n        /* \"#utility.yul\":860:865   */\n      dup2\n        /* \"#utility.yul\":842:866   */\n      tag_180\n      jump\t// in\n    tag_233:\n        /* \"#utility.yul\":835:840   */\n      dup2\n        /* \"#utility.yul\":832:867   */\n      eq\n        /* \"#utility.yul\":822:885   */\n      tag_234\n      jumpi\n        /* \"#utility.yul\":881:882   */\n      0x00\n        /* \"#utility.yul\":878:879   */\n      dup1\n        /* \"#utility.yul\":871:883   */\n      revert\n        /* \"#utility.yul\":822:885   */\n    tag_234:\n        /* \"#utility.yul\":769:891   */\n      pop\n      jump\t// out\n        /* \"#utility.yul\":897:1036   */\n    tag_186:\n        /* \"#utility.yul\":943:948   */\n      0x00\n        /* \"#utility.yul\":981:987   */\n      dup2\n        /* \"#utility.yul\":968:988   */\n      calldataload\n        /* \"#utility.yul\":959:988   */\n      swap1\n      pop\n        /* \"#utility.yul\":997:1030   */\n      tag_236\n        /* \"#utility.yul\":1024:1029   */\n      dup2\n        /* \"#utility.yul\":997:1030   */\n      tag_185\n      jump\t// in\n    tag_236:\n        /* \"#utility.yul\":897:1036   */\n      swap3\n      swap2\n      pop\n      pop\n      jump\t// out\n        /* \"#utility.yul\":1042:1371   */\n    tag_22:\n        /* \"#utility.yul\":1101:1107   */\n      0x00\n        /* \"#utility.yul\":1150:1152   */\n      0x20\n        /* \"#utility.yul\":1138:1147   */\n      dup3\n        /* \"#utility.yul\":1129:1136   */\n      dup5\n        /* \"#utility.yul\":1125:1148   */\n      sub\n        /* \"#utility.yul\":1121:1153   */\n      slt\n        /* \"#utility.yul\":1118:1237   */\n      iszero\n      tag_238\n      jumpi\n        /* \"#utility.yul\":1156:1235   */\n      tag_239\n      tag_183\n      jump\t// in\n    tag_239:\n        /* \"#utility.yul\":1118:1237   */\n    tag_238:\n        /* \"#utility.yul\":1276:1277   */\n      0x00\n        /* \"#utility.yul\":1301:1354   */\n      tag_240\n        /* \"#utility.yul\":1346:1353   */\n      dup5\n        /* \"#utility.yul\":1337:1343   */\n      dup3\n        /* \"#utility.yul\":1326:1335   */\n      dup6\n        /* \"#utility.yul\":1322:1344   */\n      add\n        /* \"#utility.yul\":1301:1354   */\n      tag_186\n      jump\t// in\n    tag_240:\n        /* \"#utility.yul\":1291:1354   */\n      swap2\n      pop\n        /* \"#utility.yul\":1247:1364   */\n      pop\n        /* \"#utility.yul\":1042:1371   */\n      swap3\n      swap2\n      pop\n      pop\n      jump\t// out\n        /* \"#utility.yul\":1377:1996   */\n    tag_26:\n        /* \"#utility.yul\":1454:1460   */\n      0x00\n        /* \"#utility.yul\":1462:1468   */\n      dup1\n        /* \"#utility.yul\":1470:1476   */\n      0x00\n        /* \"#utility.yul\":1519:1521   */\n      0x60\n        /* \"#utility.yul\":1507:1516   */\n      dup5\n        /* \"#utility.yul\":1498:1505   */\n      dup7\n        /* \"#utility.yul\":1494:1517   */\n      sub\n        /* \"#utility.yul\":1490:1522   */\n      slt\n        /* \"#utility.yul\":1487:1606   */\n      iszero\n      tag_242\n      jumpi\n        /* \"#utility.yul\":1525:1604   */\n      tag_243\n      tag_183\n      jump\t// in\n    tag_243:\n        /* \"#utility.yul\":1487:1606   */\n    tag_242:\n        /* \"#utility.yul\":1645:1646   */\n      0x00\n        /* \"#utility.yul\":1670:1723   */\n      tag_244\n        /* \"#utility.yul\":1715:1722   */\n      dup7\n        /* \"#utility.yul\":1706:1712   */\n      dup3\n        /* \"#utility.yul\":1695:1704   */\n      dup8\n        /* \"#utility.yul\":1691:1713   */\n      add\n        /* \"#utility.yul\":1670:1723   */\n      tag_186\n      jump\t// in\n    tag_244:\n        /* \"#utility.yul\":1660:1723   */\n      swap4\n      pop\n        /* \"#utility.yul\":1616:1733   */\n      pop\n        /* \"#utility.yul\":1772:1774   */\n      0x20\n        /* \"#utility.yul\":1798:1851   */\n      tag_245\n        /* \"#utility.yul\":1843:1850   */\n      dup7\n        /* \"#utility.yul\":1834:1840   */\n      dup3\n        /* \"#utility.yul\":1823:1832   */\n      dup8\n        /* \"#utility.yul\":1819:1841   */\n      add\n        /* \"#utility.yul\":1798:1851   */\n      tag_186\n      jump\t// in\n    tag_245:\n        /* \"#utility.yul\":1788:1851   */\n      swap3\n      pop\n        /* \"#utility.yul\":1743:1861   */\n      pop\n        /* \"#utility.yul\":1900:1902   */\n      0x40\n        /* \"#utility.yul\":1926:1979   */\n      tag_246\n        /* \"#utility.yul\":1971:1978   */\n      dup7\n        /* \"#utility.yul\":1962:1968   */\n      dup3\n        /* \"#utility.yul\":1951:1960   */\n      dup8\n        /* \"#utility.yul\":1947:1969   */\n      add\n        /* \"#utility.yul\":1926:1979   */\n      tag_186\n      jump\t// in\n    tag_246:\n        /* \"#utility.yul\":1916:1979   */\n      swap2\n      pop\n        /* \"#utility.yul\":1871:1989   */\n      pop\n        /* \"#utility.yul\":1377:1996   */\n      swap3\n      pop\n      swap3\n      pop\n      swap3\n      jump\t// out\n        /* \"#utility.yul\":2002:2476   */\n    tag_39:\n        /* \"#utility.yul\":2070:2076   */\n      0x00\n        /* \"#utility.yul\":2078:2084   */\n      dup1\n        /* \"#utility.yul\":2127:2129   */\n      0x40\n        /* \"#utility.yul\":2115:2124   */\n      dup4\n        /* \"#utility.yul\":2106:2113   */\n      dup6\n        /* \"#utility.yul\":2102:2125   */\n      sub\n        /* \"#utility.yul\":2098:2130   */\n      slt\n        /* \"#utility.yul\":2095:2214   */\n      iszero\n      tag_248\n      jumpi\n        /* \"#utility.yul\":2133:2212   */\n      tag_249\n      tag_183\n      jump\t// in\n    tag_249:\n        /* \"#utility.yul\":2095:2214   */\n    tag_248:\n        /* \"#utility.yul\":2253:2254   */\n      0x00\n        /* \"#utility.yul\":2278:2331   */\n      tag_250\n        /* \"#utility.yul\":2323:2330   */\n      dup6\n        /* \"#utility.yul\":2314:2320   */\n      dup3\n        /* \"#utility.yul\":2303:2312   */\n      dup7\n        /* \"#utility.yul\":2299:2321   */\n      add\n        /* \"#utility.yul\":2278:2331   */\n      tag_186\n      jump\t// in\n    tag_250:\n        /* \"#utility.yul\":2268:2331   */\n      swap3\n      pop\n        /* \"#utility.yul\":2224:2341   */\n      pop\n        /* \"#utility.yul\":2380:2382   */\n      0x20\n        /* \"#utility.yul\":2406:2459   */\n      tag_251\n        /* \"#utility.yul\":2451:2458   */\n      dup6\n        /* \"#utility.yul\":2442:2448   */\n      dup3\n        /* \"#utility.yul\":2431:2440   */\n      dup7\n        /* \"#utility.yul\":2427:2449   */\n      add\n        /* \"#utility.yul\":2406:2459   */\n      tag_186\n      jump\t// in\n    tag_251:\n        /* \"#utility.yul\":2396:2459   */\n      swap2\n      pop\n        /* \"#utility.yul\":2351:2469   */\n      pop\n        /* \"#utility.yul\":2002:2476   */\n      swap3\n      pop\n      swap3\n      swap1\n      pop\n      jump\t// out\n        /* \"#utility.yul\":2482:2608   */\n    tag_187:\n        /* \"#utility.yul\":2519:2526   */\n      0x00\n        /* \"#utility.yul\":2559:2601   */\n      0xffffffffffffffffffffffffffffffffffffffff\n        /* \"#utility.yul\":2552:2557   */\n      dup3\n        /* \"#utility.yul\":2548:2602   */\n      and\n        /* \"#utility.yul\":2537:2602   */\n      swap1\n      pop\n        /* \"#utility.yul\":2482:2608   */\n      swap2\n      swap1\n      pop\n      jump\t// out\n        /* \"#utility.yul\":2614:2710   */\n    tag_188:\n        /* \"#utility.yul\":2651:2658   */\n      0x00\n        /* \"#utility.yul\":2680:2704   */\n      tag_254\n        /* \"#utility.yul\":2698:2703   */\n      dup3\n        /* \"#utility.yul\":2680:2704   */\n      tag_187\n      jump\t// in\n    tag_254:\n        /* \"#utility.yul\":2669:2704   */\n      swap1\n      pop\n        /* \"#utility.yul\":2614:2710   */\n      swap2\n      swap1\n      pop\n      jump\t// out\n        /* \"#utility.yul\":2716:2834   */\n    tag_189:\n        /* \"#utility.yul\":2803:2827   */\n      tag_256\n        /* \"#utility.yul\":2821:2826   */\n      dup2\n        /* \"#utility.yul\":2803:2827   */\n      tag_188\n      jump\t// in\n    tag_256:\n        /* \"#utility.yul\":2798:2801   */\n      dup3\n        /* \"#utility.yul\":2791:2828   */\n      mstore\n        /* \"#utility.yul\":2716:2834   */\n      pop\n      pop\n      jump\t// out\n        /* \"#utility.yul\":2840:3393   */\n    tag_42:\n        /* \"#utility.yul\":3017:3021   */\n      0x00\n        /* \"#utility.yul\":3055:3058   */\n      0x80\n        /* \"#utility.yul\":3044:3053   */\n      dup3\n        /* \"#utility.yul\":3040:3059   */\n      add\n        /* \"#utility.yul\":3032:3059   */\n      swap1\n      pop\n        /* \"#utility.yul\":3069:3140   */\n      tag_258\n        /* \"#utility.yul\":3137:3138   */\n      0x00\n        /* \"#utility.yul\":3126:3135   */\n      dup4\n        /* \"#utility.yul\":3122:3139   */\n      add\n        /* \"#utility.yul\":3113:3119   */\n      dup8\n        /* \"#utility.yul\":3069:3140   */\n      tag_181\n      jump\t// in\n    tag_258:\n        /* \"#utility.yul\":3150:3222   */\n      tag_259\n        /* \"#utility.yul\":3218:3220   */\n      0x20\n        /* \"#utility.yul\":3207:3216   */\n      dup4\n        /* \"#utility.yul\":3203:3221   */\n      add\n        /* \"#utility.yul\":3194:3200   */\n      dup7\n        /* \"#utility.yul\":3150:3222   */\n      tag_181\n      jump\t// in\n    tag_259:\n        /* \"#utility.yul\":3232:3304   */\n      tag_260\n        /* \"#utility.yul\":3300:3302   */\n      0x40\n        /* \"#utility.yul\":3289:3298   */\n      dup4\n        /* \"#utility.yul\":3285:3303   */\n      add\n        /* \"#utility.yul\":3276:3282   */\n      dup6\n        /* \"#utility.yul\":3232:3304   */\n      tag_189\n      jump\t// in\n    tag_260:\n        /* \"#utility.yul\":3314:3386   */\n      tag_261\n        /* \"#utility.yul\":3382:3384   */\n      0x60\n        /* \"#utility.yul\":3371:3380   */\n      dup4\n        /* \"#utility.yul\":3367:3385   */\n      add\n        /* \"#utility.yul\":3358:3364   */\n      dup5\n        /* \"#utility.yul\":3314:3386   */\n      tag_181\n      jump\t// in\n    tag_261:\n        /* \"#utility.yul\":2840:3393   */\n      swap6\n      swap5\n      pop\n      pop\n      pop\n      pop\n      pop\n      jump\t// out\n        /* \"#utility.yul\":3399:3521   */\n    tag_190:\n        /* \"#utility.yul\":3472:3496   */\n      tag_263\n        /* \"#utility.yul\":3490:3495   */\n      dup2\n        /* \"#utility.yul\":3472:3496   */\n      tag_188\n      jump\t// in\n    tag_263:\n        /* \"#utility.yul\":3465:3470   */\n      dup2\n        /* \"#utility.yul\":3462:3497   */\n      eq\n        /* \"#utility.yul\":3452:3515   */\n      tag_264\n      jumpi\n        /* \"#utility.yul\":3511:3512   */\n      0x00\n        /* \"#utility.yul\":3508:3509   */\n      dup1\n        /* \"#utility.yul\":3501:3513   */\n      revert\n        /* \"#utility.yul\":3452:3515   */\n    tag_264:\n        /* \"#utility.yul\":3399:3521   */\n      pop\n      jump\t// out\n        /* \"#utility.yul\":3527:3666   */\n    tag_191:\n        /* \"#utility.yul\":3573:3578   */\n      0x00\n        /* \"#utility.yul\":3611:3617   */\n      dup2\n        /* \"#utility.yul\":3598:3618   */\n      calldataload\n        /* \"#utility.yul\":3589:3618   */\n      swap1\n      pop\n        /* \"#utility.yul\":3627:3660   */\n      tag_266\n        /* \"#utility.yul\":3654:3659   */\n      dup2\n        /* \"#utility.yul\":3627:3660   */\n      tag_190\n      jump\t// in\n    tag_266:\n        /* \"#utility.yul\":3527:3666   */\n      swap3\n      swap2\n      pop\n      pop\n      jump\t// out\n        /* \"#utility.yul\":3672:4146   */\n    tag_45:\n        /* \"#utility.yul\":3740:3746   */\n      0x00\n        /* \"#utility.yul\":3748:3754   */\n      dup1\n        /* \"#utility.yul\":3797:3799   */\n      0x40\n        /* \"#utility.yul\":3785:3794   */\n      dup4\n        /* \"#utility.yul\":3776:3783   */\n      dup6\n        /* \"#utility.yul\":3772:3795   */\n      sub\n        /* \"#utility.yul\":3768:3800   */\n      slt\n        /* \"#utility.yul\":3765:3884   */\n      iszero\n      tag_268\n      jumpi\n        /* \"#utility.yul\":3803:3882   */\n      tag_269\n      tag_183\n      jump\t// in\n    tag_269:\n        /* \"#utility.yul\":3765:3884   */\n    tag_268:\n        /* \"#utility.yul\":3923:3924   */\n      0x00\n        /* \"#utility.yul\":3948:4001   */\n      tag_270\n        /* \"#utility.yul\":3993:4000   */\n      dup6\n        /* \"#utility.yul\":3984:3990   */\n      dup3\n        /* \"#utility.yul\":3973:3982   */\n      dup7\n        /* \"#utility.yul\":3969:3991   */\n      add\n        /* \"#utility.yul\":3948:4001   */\n      tag_186\n      jump\t// in\n    tag_270:\n        /* \"#utility.yul\":3938:4001   */\n      swap3\n      pop\n        /* \"#utility.yul\":3894:4011   */\n      pop\n        /* \"#utility.yul\":4050:4052   */\n      0x20\n        /* \"#utility.yul\":4076:4129   */\n      tag_271\n        /* \"#utility.yul\":4121:4128   */\n      dup6\n        /* \"#utility.yul\":4112:4118   */\n      dup3\n        /* \"#utility.yul\":4101:4110   */\n      dup7\n        /* \"#utility.yul\":4097:4119   */\n      add\n        /* \"#utility.yul\":4076:4129   */\n      tag_191\n      jump\t// in\n    tag_271:\n        /* \"#utility.yul\":4066:4129   */\n      swap2\n      pop\n        /* \"#utility.yul\":4021:4139   */\n      pop\n        /* \"#utility.yul\":3672:4146   */\n      swap3\n      pop\n      swap3\n      swap1\n      pop\n      jump\t// out\n        /* \"#utility.yul\":4152:4242   */\n    tag_192:\n        /* \"#utility.yul\":4186:4193   */\n      0x00\n        /* \"#utility.yul\":4229:4234   */\n      dup2\n        /* \"#utility.yul\":4222:4235   */\n      iszero\n        /* \"#utility.yul\":4215:4236   */\n      iszero\n        /* \"#utility.yul\":4204:4236   */\n      swap1\n      pop\n        /* \"#utility.yul\":4152:4242   */\n      swap2\n      swap1\n      pop\n      jump\t// out\n        /* \"#utility.yul\":4248:4357   */\n    tag_193:\n        /* \"#utility.yul\":4329:4350   */\n      tag_274\n        /* \"#utility.yul\":4344:4349   */\n      dup2\n        /* \"#utility.yul\":4329:4350   */\n      tag_192\n      jump\t// in\n    tag_274:\n        /* \"#utility.yul\":4324:4327   */\n      dup3\n        /* \"#utility.yul\":4317:4351   */\n      mstore\n        /* \"#utility.yul\":4248:4357   */\n      pop\n      pop\n      jump\t// out\n        /* \"#utility.yul\":4363:4573   */\n    tag_51:\n        /* \"#utility.yul\":4450:4454   */\n      0x00\n        /* \"#utility.yul\":4488:4490   */\n      0x20\n        /* \"#utility.yul\":4477:4486   */\n      dup3\n        /* \"#utility.yul\":4473:4491   */\n      add\n        /* \"#utility.yul\":4465:4491   */\n      swap1\n      pop\n        /* \"#utility.yul\":4501:4566   */\n      tag_276\n        /* \"#utility.yul\":4563:4564   */\n      0x00\n        /* \"#utility.yul\":4552:4561   */\n      dup4\n        /* \"#utility.yul\":4548:4565   */\n      add\n        /* \"#utility.yul\":4539:4545   */\n      dup5\n        /* \"#utility.yul\":4501:4566   */\n      tag_193\n      jump\t// in\n    tag_276:\n        /* \"#utility.yul\":4363:4573   */\n      swap3\n      swap2\n      pop\n      pop\n      jump\t// out\n        /* \"#utility.yul\":4579:4695   */\n    tag_194:\n        /* \"#utility.yul\":4649:4670   */\n      tag_278\n        /* \"#utility.yul\":4664:4669   */\n      dup2\n        /* \"#utility.yul\":4649:4670   */\n      tag_192\n      jump\t// in\n    tag_278:\n        /* \"#utility.yul\":4642:4647   */\n      dup2\n        /* \"#utility.yul\":4639:4671   */\n      eq\n        /* \"#utility.yul\":4629:4689   */\n      tag_279\n      jumpi\n        /* \"#utility.yul\":4685:4686   */\n      0x00\n        /* \"#utility.yul\":4682:4683   */\n      dup1\n        /* \"#utility.yul\":4675:4687   */\n      revert\n        /* \"#utility.yul\":4629:4689   */\n    tag_279:\n        /* \"#utility.yul\":4579:4695   */\n      pop\n      jump\t// out\n        /* \"#utility.yul\":4701:4834   */\n    tag_195:\n        /* \"#utility.yul\":4744:4749   */\n      0x00\n        /* \"#utility.yul\":4782:4788   */\n      dup2\n        /* \"#utility.yul\":4769:4789   */\n      calldataload\n        /* \"#utility.yul\":4760:4789   */\n      swap1\n      pop\n        /* \"#utility.yul\":4798:4828   */\n      tag_281\n        /* \"#utility.yul\":4822:4827   */\n      dup2\n        /* \"#utility.yul\":4798:4828   */\n      tag_194\n      jump\t// in\n    tag_281:\n        /* \"#utility.yul\":4701:4834   */\n      swap3\n      swap2\n      pop\n      pop\n      jump\t// out\n        /* \"#utility.yul\":4840:6037   */\n    tag_54:\n        /* \"#utility.yul\":4950:4956   */\n      0x00\n        /* \"#utility.yul\":4958:4964   */\n      dup1\n        /* \"#utility.yul\":4966:4972   */\n      0x00\n        /* \"#utility.yul\":4974:4980   */\n      dup1\n        /* \"#utility.yul\":4982:4988   */\n      0x00\n        /* \"#utility.yul\":4990:4996   */\n      dup1\n        /* \"#utility.yul\":4998:5004   */\n      0x00\n        /* \"#utility.yul\":5047:5050   */\n      0xe0\n        /* \"#utility.yul\":5035:5044   */\n      dup9\n        /* \"#utility.yul\":5026:5033   */\n      dup11\n        /* \"#utility.yul\":5022:5045   */\n      sub\n        /* \"#utility.yul\":5018:5051   */\n      slt\n        /* \"#utility.yul\":5015:5135   */\n      iszero\n      tag_283\n      jumpi\n        /* \"#utility.yul\":5054:5133   */\n      tag_284\n      tag_183\n      jump\t// in\n    tag_284:\n        /* \"#utility.yul\":5015:5135   */\n    tag_283:\n        /* \"#utility.yul\":5174:5175   */\n      0x00\n        /* \"#utility.yul\":5199:5252   */\n      tag_285\n        /* \"#utility.yul\":5244:5251   */\n      dup11\n        /* \"#utility.yul\":5235:5241   */\n      dup3\n        /* \"#utility.yul\":5224:5233   */\n      dup12\n        /* \"#utility.yul\":5220:5242   */\n      add\n        /* \"#utility.yul\":5199:5252   */\n      tag_191\n      jump\t// in\n    tag_285:\n        /* \"#utility.yul\":5189:5252   */\n      swap8\n      pop\n        /* \"#utility.yul\":5145:5262   */\n      pop\n        /* \"#utility.yul\":5301:5303   */\n      0x20\n        /* \"#utility.yul\":5327:5380   */\n      tag_286\n        /* \"#utility.yul\":5372:5379   */\n      dup11\n        /* \"#utility.yul\":5363:5369   */\n      dup3\n        /* \"#utility.yul\":5352:5361   */\n      dup12\n        /* \"#utility.yul\":5348:5370   */\n      add\n        /* \"#utility.yul\":5327:5380   */\n      tag_191\n      jump\t// in\n    tag_286:\n        /* \"#utility.yul\":5317:5380   */\n      swap7\n      pop\n        /* \"#utility.yul\":5272:5390   */\n      pop\n        /* \"#utility.yul\":5429:5431   */\n      0x40\n        /* \"#utility.yul\":5455:5508   */\n      tag_287\n        /* \"#utility.yul\":5500:5507   */\n      dup11\n        /* \"#utility.yul\":5491:5497   */\n      dup3\n        /* \"#utility.yul\":5480:5489   */\n      dup12\n        /* \"#utility.yul\":5476:5498   */\n      add\n        /* \"#utility.yul\":5455:5508   */\n      tag_191\n      jump\t// in\n    tag_287:\n        /* \"#utility.yul\":5445:5508   */\n      swap6\n      pop\n        /* \"#utility.yul\":5400:5518   */\n      pop\n        /* \"#utility.yul\":5557:5559   */\n      0x60\n        /* \"#utility.yul\":5583:5636   */\n      tag_288\n        /* \"#utility.yul\":5628:5635   */\n      dup11\n        /* \"#utility.yul\":5619:5625   */\n      dup3\n        /* \"#utility.yul\":5608:5617   */\n      dup12\n        /* \"#utility.yul\":5604:5626   */\n      add\n        /* \"#utility.yul\":5583:5636   */\n      tag_186\n      jump\t// in\n    tag_288:\n        /* \"#utility.yul\":5573:5636   */\n      swap5\n      pop\n        /* \"#utility.yul\":5528:5646   */\n      pop\n        /* \"#utility.yul\":5685:5688   */\n      0x80\n        /* \"#utility.yul\":5712:5765   */\n      tag_289\n        /* \"#utility.yul\":5757:5764   */\n      dup11\n        /* \"#utility.yul\":5748:5754   */\n      dup3\n        /* \"#utility.yul\":5737:5746   */\n      dup12\n        /* \"#utility.yul\":5733:5755   */\n      add\n        /* \"#utility.yul\":5712:5765   */\n      tag_186\n      jump\t// in\n    tag_289:\n        /* \"#utility.yul\":5702:5765   */\n      swap4\n      pop\n        /* \"#utility.yul\":5656:5775   */\n      pop\n        /* \"#utility.yul\":5814:5817   */\n      0xa0\n        /* \"#utility.yul\":5841:5894   */\n      tag_290\n        /* \"#utility.yul\":5886:5893   */\n      dup11\n        /* \"#utility.yul\":5877:5883   */\n      dup3\n        /* \"#utility.yul\":5866:5875   */\n      dup12\n        /* \"#utility.yul\":5862:5884   */\n      add\n        /* \"#utility.yul\":5841:5894   */\n      tag_186\n      jump\t// in\n    tag_290:\n        /* \"#utility.yul\":5831:5894   */\n      swap3\n      pop\n        /* \"#utility.yul\":5785:5904   */\n      pop\n        /* \"#utility.yul\":5943:5946   */\n      0xc0\n        /* \"#utility.yul\":5970:6020   */\n      tag_291\n        /* \"#utility.yul\":6012:6019   */\n      dup11\n        /* \"#utility.yul\":6003:6009   */\n      dup3\n        /* \"#utility.yul\":5992:6001   */\n      dup12\n        /* \"#utility.yul\":5988:6010   */\n      add\n        /* \"#utility.yul\":5970:6020   */\n      tag_195\n      jump\t// in\n    tag_291:\n        /* \"#utility.yul\":5960:6020   */\n      swap2\n      pop\n        /* \"#utility.yul\":5914:6030   */\n      pop\n        /* \"#utility.yul\":4840:6037   */\n      swap3\n      swap6\n      swap9\n      swap2\n      swap5\n      swap8\n      pop\n      swap3\n      swap6\n      pop\n      jump\t// out\n        /* \"#utility.yul\":6043:7250   */\n    tag_60:\n        /* \"#utility.yul\":6382:6386   */\n      0x00\n        /* \"#utility.yul\":6420:6423   */\n      0x0140\n        /* \"#utility.yul\":6409:6418   */\n      dup3\n        /* \"#utility.yul\":6405:6424   */\n      add\n        /* \"#utility.yul\":6397:6424   */\n      swap1\n      pop\n        /* \"#utility.yul\":6434:6505   */\n      tag_293\n        /* \"#utility.yul\":6502:6503   */\n      0x00\n        /* \"#utility.yul\":6491:6500   */\n      dup4\n        /* \"#utility.yul\":6487:6504   */\n      add\n        /* \"#utility.yul\":6478:6484   */\n      dup14\n        /* \"#utility.yul\":6434:6505   */\n      tag_189\n      jump\t// in\n    tag_293:\n        /* \"#utility.yul\":6515:6587   */\n      tag_294\n        /* \"#utility.yul\":6583:6585   */\n      0x20\n        /* \"#utility.yul\":6572:6581   */\n      dup4\n        /* \"#utility.yul\":6568:6586   */\n      add\n        /* \"#utility.yul\":6559:6565   */\n      dup13\n        /* \"#utility.yul\":6515:6587   */\n      tag_189\n      jump\t// in\n    tag_294:\n        /* \"#utility.yul\":6597:6669   */\n      tag_295\n        /* \"#utility.yul\":6665:6667   */\n      0x40\n        /* \"#utility.yul\":6654:6663   */\n      dup4\n        /* \"#utility.yul\":6650:6668   */\n      add\n        /* \"#utility.yul\":6641:6647   */\n      dup12\n        /* \"#utility.yul\":6597:6669   */\n      tag_189\n      jump\t// in\n    tag_295:\n        /* \"#utility.yul\":6679:6751   */\n      tag_296\n        /* \"#utility.yul\":6747:6749   */\n      0x60\n        /* \"#utility.yul\":6736:6745   */\n      dup4\n        /* \"#utility.yul\":6732:6750   */\n      add\n        /* \"#utility.yul\":6723:6729   */\n      dup11\n        /* \"#utility.yul\":6679:6751   */\n      tag_189\n      jump\t// in\n    tag_296:\n        /* \"#utility.yul\":6761:6834   */\n      tag_297\n        /* \"#utility.yul\":6829:6832   */\n      0x80\n        /* \"#utility.yul\":6818:6827   */\n      dup4\n        /* \"#utility.yul\":6814:6833   */\n      add\n        /* \"#utility.yul\":6805:6811   */\n      dup10\n        /* \"#utility.yul\":6761:6834   */\n      tag_181\n      jump\t// in\n    tag_297:\n        /* \"#utility.yul\":6844:6917   */\n      tag_298\n        /* \"#utility.yul\":6912:6915   */\n      0xa0\n        /* \"#utility.yul\":6901:6910   */\n      dup4\n        /* \"#utility.yul\":6897:6916   */\n      add\n        /* \"#utility.yul\":6888:6894   */\n      dup9\n        /* \"#utility.yul\":6844:6917   */\n      tag_181\n      jump\t// in\n    tag_298:\n        /* \"#utility.yul\":6927:7000   */\n      tag_299\n        /* \"#utility.yul\":6995:6998   */\n      0xc0\n        /* \"#utility.yul\":6984:6993   */\n      dup4\n        /* \"#utility.yul\":6980:6999   */\n      add\n        /* \"#utility.yul\":6971:6977   */\n      dup8\n        /* \"#utility.yul\":6927:7000   */\n      tag_181\n      jump\t// in\n    tag_299:\n        /* \"#utility.yul\":7010:7083   */\n      tag_300\n        /* \"#utility.yul\":7078:7081   */\n      0xe0\n        /* \"#utility.yul\":7067:7076   */\n      dup4\n        /* \"#utility.yul\":7063:7082   */\n      add\n        /* \"#utility.yul\":7054:7060   */\n      dup7\n        /* \"#utility.yul\":7010:7083   */\n      tag_181\n      jump\t// in\n    tag_300:\n        /* \"#utility.yul\":7093:7166   */\n      tag_301\n        /* \"#utility.yul\":7161:7164   */\n      0x0100\n        /* \"#utility.yul\":7150:7159   */\n      dup4\n        /* \"#utility.yul\":7146:7165   */\n      add\n        /* \"#utility.yul\":7137:7143   */\n      dup6\n        /* \"#utility.yul\":7093:7166   */\n      tag_181\n      jump\t// in\n    tag_301:\n        /* \"#utility.yul\":7176:7243   */\n      tag_302\n        /* \"#utility.yul\":7238:7241   */\n      0x0120\n        /* \"#utility.yul\":7227:7236   */\n      dup4\n        /* \"#utility.yul\":7223:7242   */\n      add\n        /* \"#utility.yul\":7214:7220   */\n      dup5\n        /* \"#utility.yul\":7176:7243   */\n      tag_193\n      jump\t// in\n    tag_302:\n        /* \"#utility.yul\":6043:7250   */\n      swap12\n      swap11\n      pop\n      pop\n      pop\n      pop\n      pop\n      pop\n      pop\n      pop\n      pop\n      pop\n      pop\n      jump\t// out\n        /* \"#utility.yul\":7256:7869   */\n    tag_63:\n        /* \"#utility.yul\":7330:7336   */\n      0x00\n        /* \"#utility.yul\":7338:7344   */\n      dup1\n        /* \"#utility.yul\":7346:7352   */\n      0x00\n        /* \"#utility.yul\":7395:7397   */\n      0x60\n        /* \"#utility.yul\":7383:7392   */\n      dup5\n        /* \"#utility.yul\":7374:7381   */\n      dup7\n        /* \"#utility.yul\":7370:7393   */\n      sub\n        /* \"#utility.yul\":7366:7398   */\n      slt\n        /* \"#utility.yul\":7363:7482   */\n      iszero\n      tag_304\n      jumpi\n        /* \"#utility.yul\":7401:7480   */\n      tag_305\n      tag_183\n      jump\t// in\n    tag_305:\n        /* \"#utility.yul\":7363:7482   */\n    tag_304:\n        /* \"#utility.yul\":7521:7522   */\n      0x00\n        /* \"#utility.yul\":7546:7599   */\n      tag_306\n        /* \"#utility.yul\":7591:7598   */\n      dup7\n        /* \"#utility.yul\":7582:7588   */\n      dup3\n        /* \"#utility.yul\":7571:7580   */\n      dup8\n        /* \"#utility.yul\":7567:7589   */\n      add\n        /* \"#utility.yul\":7546:7599   */\n      tag_186\n      jump\t// in\n    tag_306:\n        /* \"#utility.yul\":7536:7599   */\n      swap4\n      pop\n        /* \"#utility.yul\":7492:7609   */\n      pop\n        /* \"#utility.yul\":7648:7650   */\n      0x20\n        /* \"#utility.yul\":7674:7727   */\n      tag_307\n        /* \"#utility.yul\":7719:7726   */\n      dup7\n        /* \"#utility.yul\":7710:7716   */\n      dup3\n        /* \"#utility.yul\":7699:7708   */\n      dup8\n        /* \"#utility.yul\":7695:7717   */\n      add\n        /* \"#utility.yul\":7674:7727   */\n      tag_191\n      jump\t// in\n    tag_307:\n        /* \"#utility.yul\":7664:7727   */\n      swap3\n      pop\n        /* \"#utility.yul\":7619:7737   */\n      pop\n        /* \"#utility.yul\":7776:7778   */\n      0x40\n        /* \"#utility.yul\":7802:7852   */\n      tag_308\n        /* \"#utility.yul\":7844:7851   */\n      dup7\n        /* \"#utility.yul\":7835:7841   */\n      dup3\n        /* \"#utility.yul\":7824:7833   */\n      dup8\n        /* \"#utility.yul\":7820:7842   */\n      add\n        /* \"#utility.yul\":7802:7852   */\n      tag_195\n      jump\t// in\n    tag_308:\n        /* \"#utility.yul\":7792:7852   */\n      swap2\n      pop\n        /* \"#utility.yul\":7747:7862   */\n      pop\n        /* \"#utility.yul\":7256:7869   */\n      swap3\n      pop\n      swap3\n      pop\n      swap3\n      jump\t// out\n        /* \"#utility.yul\":7875:8044   */\n    tag_196:\n        /* \"#utility.yul\":7959:7970   */\n      0x00\n        /* \"#utility.yul\":7993:7999   */\n      dup3\n        /* \"#utility.yul\":7988:7991   */\n      dup3\n        /* \"#utility.yul\":7981:8000   */\n      mstore\n        /* \"#utility.yul\":8033:8037   */\n      0x20\n        /* \"#utility.yul\":8028:8031   */\n      dup3\n        /* \"#utility.yul\":8024:8038   */\n      add\n        /* \"#utility.yul\":8009:8038   */\n      swap1\n      pop\n        /* \"#utility.yul\":7875:8044   */\n      swap3\n      swap2\n      pop\n      pop\n      jump\t// out\n        /* \"#utility.yul\":8050:8214   */\n    tag_197:\n        /* \"#utility.yul\":8190:8206   */\n      0x4c414e3a206e6f74206f776e6572000000000000000000000000000000000000\n        /* \"#utility.yul\":8186:8187   */\n      0x00\n        /* \"#utility.yul\":8178:8184   */\n      dup3\n        /* \"#utility.yul\":8174:8188   */\n      add\n        /* \"#utility.yul\":8167:8207   */\n      mstore\n        /* \"#utility.yul\":8050:8214   */\n      pop\n      jump\t// out\n        /* \"#utility.yul\":8220:8586   */\n    tag_198:\n        /* \"#utility.yul\":8362:8365   */\n      0x00\n        /* \"#utility.yul\":8383:8450   */\n      tag_312\n        /* \"#utility.yul\":8447:8449   */\n      0x0e\n        /* \"#utility.yul\":8442:8445   */\n      dup4\n        /* \"#utility.yul\":8383:8450   */\n      tag_196\n      jump\t// in\n    tag_312:\n        /* \"#utility.yul\":8376:8450   */\n      swap2\n      pop\n        /* \"#utility.yul\":8459:8552   */\n      tag_313\n        /* \"#utility.yul\":8548:8551   */\n      dup3\n        /* \"#utility.yul\":8459:8552   */\n      tag_197\n      jump\t// in\n    tag_313:\n        /* \"#utility.yul\":8577:8579   */\n      0x20\n        /* \"#utility.yul\":8572:8575   */\n      dup3\n        /* \"#utility.yul\":8568:8580   */\n      add\n        /* \"#utility.yul\":8561:8580   */\n      swap1\n      pop\n        /* \"#utility.yul\":8220:8586   */\n      swap2\n      swap1\n      pop\n      jump\t// out\n        /* \"#utility.yul\":8592:9011   */\n    tag_69:\n        /* \"#utility.yul\":8758:8762   */\n      0x00\n        /* \"#utility.yul\":8796:8798   */\n      0x20\n        /* \"#utility.yul\":8785:8794   */\n      dup3\n        /* \"#utility.yul\":8781:8799   */\n      add\n        /* \"#utility.yul\":8773:8799   */\n      swap1\n      pop\n        /* \"#utility.yul\":8845:8854   */\n      dup2\n        /* \"#utility.yul\":8839:8843   */\n      dup2\n        /* \"#utility.yul\":8835:8855   */\n      sub\n        /* \"#utility.yul\":8831:8832   */\n      0x00\n        /* \"#utility.yul\":8820:8829   */\n      dup4\n        /* \"#utility.yul\":8816:8833   */\n      add\n        /* \"#utility.yul\":8809:8856   */\n      mstore\n        /* \"#utility.yul\":8873:9004   */\n      tag_315\n        /* \"#utility.yul\":8999:9003   */\n      dup2\n        /* \"#utility.yul\":8873:9004   */\n      tag_198\n      jump\t// in\n    tag_315:\n        /* \"#utility.yul\":8865:9004   */\n      swap1\n      pop\n        /* \"#utility.yul\":8592:9011   */\n      swap2\n      swap1\n      pop\n      jump\t// out\n        /* \"#utility.yul\":9017:9459   */\n    tag_72:\n        /* \"#utility.yul\":9166:9170   */\n      0x00\n        /* \"#utility.yul\":9204:9206   */\n      0x60\n        /* \"#utility.yul\":9193:9202   */\n      dup3\n        /* \"#utility.yul\":9189:9207   */\n      add\n        /* \"#utility.yul\":9181:9207   */\n      swap1\n      pop\n        /* \"#utility.yul\":9217:9288   */\n      tag_317\n        /* \"#utility.yul\":9285:9286   */\n      0x00\n        /* \"#utility.yul\":9274:9283   */\n      dup4\n        /* \"#utility.yul\":9270:9287   */\n      add\n        /* \"#utility.yul\":9261:9267   */\n      dup7\n        /* \"#utility.yul\":9217:9288   */\n      tag_189\n      jump\t// in\n    tag_317:\n        /* \"#utility.yul\":9298:9370   */\n      tag_318\n        /* \"#utility.yul\":9366:9368   */\n      0x20\n        /* \"#utility.yul\":9355:9364   */\n      dup4\n        /* \"#utility.yul\":9351:9369   */\n      add\n        /* \"#utility.yul\":9342:9348   */\n      dup6\n        /* \"#utility.yul\":9298:9370   */\n      tag_189\n      jump\t// in\n    tag_318:\n        /* \"#utility.yul\":9380:9452   */\n      tag_319\n        /* \"#utility.yul\":9448:9450   */\n      0x40\n        /* \"#utility.yul\":9437:9446   */\n      dup4\n        /* \"#utility.yul\":9433:9451   */\n      add\n        /* \"#utility.yul\":9424:9430   */\n      dup5\n        /* \"#utility.yul\":9380:9452   */\n      tag_181\n      jump\t// in\n    tag_319:\n        /* \"#utility.yul\":9017:9459   */\n      swap5\n      swap4\n      pop\n      pop\n      pop\n      pop\n      jump\t// out\n        /* \"#utility.yul\":9465:9631   */\n    tag_199:\n        /* \"#utility.yul\":9605:9623   */\n      0x4c414e3a206e6f74207374617274656400000000000000000000000000000000\n        /* \"#utility.yul\":9601:9602   */\n      0x00\n        /* \"#utility.yul\":9593:9599   */\n      dup3\n        /* \"#utility.yul\":9589:9603   */\n      add\n        /* \"#utility.yul\":9582:9624   */\n      mstore\n        /* \"#utility.yul\":9465:9631   */\n      pop\n      jump\t// out\n        /* \"#utility.yul\":9637:10003   */\n    tag_200:\n        /* \"#utility.yul\":9779:9782   */\n      0x00\n        /* \"#utility.yul\":9800:9867   */\n      tag_322\n        /* \"#utility.yul\":9864:9866   */\n      0x10\n        /* \"#utility.yul\":9859:9862   */\n      dup4\n        /* \"#utility.yul\":9800:9867   */\n      tag_196\n      jump\t// in\n    tag_322:\n        /* \"#utility.yul\":9793:9867   */\n      swap2\n      pop\n        /* \"#utility.yul\":9876:9969   */\n      tag_323\n        /* \"#utility.yul\":9965:9968   */\n      dup3\n        /* \"#utility.yul\":9876:9969   */\n      tag_199\n      jump\t// in\n    tag_323:\n        /* \"#utility.yul\":9994:9996   */\n      0x20\n        /* \"#utility.yul\":9989:9992   */\n      dup3\n        /* \"#utility.yul\":9985:9997   */\n      add\n        /* \"#utility.yul\":9978:9997   */\n      swap1\n      pop\n        /* \"#utility.yul\":9637:10003   */\n      swap2\n      swap1\n      pop\n      jump\t// out\n        /* \"#utility.yul\":10009:10428   */\n    tag_81:\n        /* \"#utility.yul\":10175:10179   */\n      0x00\n        /* \"#utility.yul\":10213:10215   */\n      0x20\n        /* \"#utility.yul\":10202:10211   */\n      dup3\n        /* \"#utility.yul\":10198:10216   */\n      add\n        /* \"#utility.yul\":10190:10216   */\n      swap1\n      pop\n        /* \"#utility.yul\":10262:10271   */\n      dup2\n        /* \"#utility.yul\":10256:10260   */\n      dup2\n        /* \"#utility.yul\":10252:10272   */\n      sub\n        /* \"#utility.yul\":10248:10249   */\n      0x00\n        /* \"#utility.yul\":10237:10246   */\n      dup4\n        /* \"#utility.yul\":10233:10250   */\n      add\n        /* \"#utility.yul\":10226:10273   */\n      mstore\n        /* \"#utility.yul\":10290:10421   */\n      tag_325\n        /* \"#utility.yul\":10416:10420   */\n      dup2\n        /* \"#utility.yul\":10290:10421   */\n      tag_200\n      jump\t// in\n    tag_325:\n        /* \"#utility.yul\":10282:10421   */\n      swap1\n      pop\n        /* \"#utility.yul\":10009:10428   */\n      swap2\n      swap1\n      pop\n      jump\t// out\n        /* \"#utility.yul\":10434:10602   */\n    tag_201:\n        /* \"#utility.yul\":10574:10594   */\n      0x4c414e3a20616c726561647920656e6465640000000000000000000000000000\n        /* \"#utility.yul\":10570:10571   */\n      0x00\n        /* \"#utility.yul\":10562:10568   */\n      dup3\n        /* \"#utility.yul\":10558:10572   */\n      add\n        /* \"#utility.yul\":10551:10595   */\n      mstore\n        /* \"#utility.yul\":10434:10602   */\n      pop\n      jump\t// out\n        /* \"#utility.yul\":10608:10974   */\n    tag_202:\n        /* \"#utility.yul\":10750:10753   */\n      0x00\n        /* \"#utility.yul\":10771:10838   */\n      tag_328\n        /* \"#utility.yul\":10835:10837   */\n      0x12\n        /* \"#utility.yul\":10830:10833   */\n      dup4\n        /* \"#utility.yul\":10771:10838   */\n      tag_196\n      jump\t// in\n    tag_328:\n        /* \"#utility.yul\":10764:10838   */\n      swap2\n      pop\n        /* \"#utility.yul\":10847:10940   */\n      tag_329\n        /* \"#utility.yul\":10936:10939   */\n      dup3\n        /* \"#utility.yul\":10847:10940   */\n      tag_201\n      jump\t// in\n    tag_329:\n        /* \"#utility.yul\":10965:10967   */\n      0x20\n        /* \"#utility.yul\":10960:10963   */\n      dup3\n        /* \"#utility.yul\":10956:10968   */\n      add\n        /* \"#utility.yul\":10949:10968   */\n      swap1\n      pop\n        /* \"#utility.yul\":10608:10974   */\n      swap2\n      swap1\n      pop\n      jump\t// out\n        /* \"#utility.yul\":10980:11399   */\n    tag_86:\n        /* \"#utility.yul\":11146:11150   */\n      0x00\n        /* \"#utility.yul\":11184:11186   */\n      0x20\n        /* \"#utility.yul\":11173:11182   */\n      dup3\n        /* \"#utility.yul\":11169:11187   */\n      add\n        /* \"#utility.yul\":11161:11187   */\n      swap1\n      pop\n        /* \"#utility.yul\":11233:11242   */\n      dup2\n        /* \"#utility.yul\":11227:11231   */\n      dup2\n        /* \"#utility.yul\":11223:11243   */\n      sub\n        /* \"#utility.yul\":11219:11220   */\n      0x00\n        /* \"#utility.yul\":11208:11217   */\n      dup4\n        /* \"#utility.yul\":11204:11221   */\n      add\n        /* \"#utility.yul\":11197:11244   */\n      mstore\n        /* \"#utility.yul\":11261:11392   */\n      tag_331\n        /* \"#utility.yul\":11387:11391   */\n      dup2\n        /* \"#utility.yul\":11261:11392   */\n      tag_202\n      jump\t// in\n    tag_331:\n        /* \"#utility.yul\":11253:11392   */\n      swap1\n      pop\n        /* \"#utility.yul\":10980:11399   */\n      swap2\n      swap1\n      pop\n      jump\t// out\n        /* \"#utility.yul\":11405:11575   */\n    tag_203:\n        /* \"#utility.yul\":11545:11567   */\n      0x4c414e3a204e6f742057686974656c6973746564000000000000000000000000\n        /* \"#utility.yul\":11541:11542   */\n      0x00\n        /* \"#utility.yul\":11533:11539   */\n      dup3\n        /* \"#utility.yul\":11529:11543   */\n      add\n        /* \"#utility.yul\":11522:11568   */\n      mstore\n        /* \"#utility.yul\":11405:11575   */\n      pop\n      jump\t// out\n        /* \"#utility.yul\":11581:11947   */\n    tag_204:\n        /* \"#utility.yul\":11723:11726   */\n      0x00\n        /* \"#utility.yul\":11744:11811   */\n      tag_334\n        /* \"#utility.yul\":11808:11810   */\n      0x14\n        /* \"#utility.yul\":11803:11806   */\n      dup4\n        /* \"#utility.yul\":11744:11811   */\n      tag_196\n      jump\t// in\n    tag_334:\n        /* \"#utility.yul\":11737:11811   */\n      swap2\n      pop\n        /* \"#utility.yul\":11820:11913   */\n      tag_335\n        /* \"#utility.yul\":11909:11912   */\n      dup3\n        /* \"#utility.yul\":11820:11913   */\n      tag_203\n      jump\t// in\n    tag_335:\n        /* \"#utility.yul\":11938:11940   */\n      0x20\n        /* \"#utility.yul\":11933:11936   */\n      dup3\n        /* \"#utility.yul\":11929:11941   */\n      add\n        /* \"#utility.yul\":11922:11941   */\n      swap1\n      pop\n        /* \"#utility.yul\":11581:11947   */\n      swap2\n      swap1\n      pop\n      jump\t// out\n        /* \"#utility.yul\":11953:12372   */\n    tag_91:\n        /* \"#utility.yul\":12119:12123   */\n      0x00\n        /* \"#utility.yul\":12157:12159   */\n      0x20\n        /* \"#utility.yul\":12146:12155   */\n      dup3\n        /* \"#utility.yul\":12142:12160   */\n      add\n        /* \"#utility.yul\":12134:12160   */\n      swap1\n      pop\n        /* \"#utility.yul\":12206:12215   */\n      dup2\n        /* \"#utility.yul\":12200:12204   */\n      dup2\n        /* \"#utility.yul\":12196:12216   */\n      sub\n        /* \"#utility.yul\":12192:12193   */\n      0x00\n        /* \"#utility.yul\":12181:12190   */\n      dup4\n        /* \"#utility.yul\":12177:12194   */\n      add\n        /* \"#utility.yul\":12170:12217   */\n      mstore\n        /* \"#utility.yul\":12234:12365   */\n      tag_337\n        /* \"#utility.yul\":12360:12364   */\n      dup2\n        /* \"#utility.yul\":12234:12365   */\n      tag_204\n      jump\t// in\n    tag_337:\n        /* \"#utility.yul\":12226:12365   */\n      swap1\n      pop\n        /* \"#utility.yul\":11953:12372   */\n      swap2\n      swap1\n      pop\n      jump\t// out\n        /* \"#utility.yul\":12378:12547   */\n    tag_205:\n        /* \"#utility.yul\":12518:12539   */\n      0x4c414e3a20626964206e6f742068696768657200000000000000000000000000\n        /* \"#utility.yul\":12514:12515   */\n      0x00\n        /* \"#utility.yul\":12506:12512   */\n      dup3\n        /* \"#utility.yul\":12502:12516   */\n      add\n        /* \"#utility.yul\":12495:12540   */\n      mstore\n        /* \"#utility.yul\":12378:12547   */\n      pop\n      jump\t// out\n        /* \"#utility.yul\":12553:12919   */\n    tag_206:\n        /* \"#utility.yul\":12695:12698   */\n      0x00\n        /* \"#utility.yul\":12716:12783   */\n      tag_340\n        /* \"#utility.yul\":12780:12782   */\n      0x13\n        /* \"#utility.yul\":12775:12778   */\n      dup4\n        /* \"#utility.yul\":12716:12783   */\n      tag_196\n      jump\t// in\n    tag_340:\n        /* \"#utility.yul\":12709:12783   */\n      swap2\n      pop\n        /* \"#utility.yul\":12792:12885   */\n      tag_341\n        /* \"#utility.yul\":12881:12884   */\n      dup3\n        /* \"#utility.yul\":12792:12885   */\n      tag_205\n      jump\t// in\n    tag_341:\n        /* \"#utility.yul\":12910:12912   */\n      0x20\n        /* \"#utility.yul\":12905:12908   */\n      dup3\n        /* \"#utility.yul\":12901:12913   */\n      add\n        /* \"#utility.yul\":12894:12913   */\n      swap1\n      pop\n        /* \"#utility.yul\":12553:12919   */\n      swap2\n      swap1\n      pop\n      jump\t// out\n        /* \"#utility.yul\":12925:13344   */\n    tag_96:\n        /* \"#utility.yul\":13091:13095   */\n      0x00\n        /* \"#utility.yul\":13129:13131   */\n      0x20\n        /* \"#utility.yul\":13118:13127   */\n      dup3\n        /* \"#utility.yul\":13114:13132   */\n      add\n        /* \"#utility.yul\":13106:13132   */\n      swap1\n      pop\n        /* \"#utility.yul\":13178:13187   */\n      dup2\n        /* \"#utility.yul\":13172:13176   */\n      dup2\n        /* \"#utility.yul\":13168:13188   */\n      sub\n        /* \"#utility.yul\":13164:13165   */\n      0x00\n        /* \"#utility.yul\":13153:13162   */\n      dup4\n        /* \"#utility.yul\":13149:13166   */\n      add\n        /* \"#utility.yul\":13142:13189   */\n      mstore\n        /* \"#utility.yul\":13206:13337   */\n      tag_343\n        /* \"#utility.yul\":13332:13336   */\n      dup2\n        /* \"#utility.yul\":13206:13337   */\n      tag_206\n      jump\t// in\n    tag_343:\n        /* \"#utility.yul\":13198:13337   */\n      swap1\n      pop\n        /* \"#utility.yul\":12925:13344   */\n      swap2\n      swap1\n      pop\n      jump\t// out\n        /* \"#utility.yul\":13350:13530   */\n    tag_207:\n        /* \"#utility.yul\":13398:13475   */\n      0x4e487b7100000000000000000000000000000000000000000000000000000000\n        /* \"#utility.yul\":13395:13396   */\n      0x00\n        /* \"#utility.yul\":13388:13476   */\n      mstore\n        /* \"#utility.yul\":13495:13499   */\n      0x11\n        /* \"#utility.yul\":13492:13493   */\n      0x04\n        /* \"#utility.yul\":13485:13500   */\n      mstore\n        /* \"#utility.yul\":13519:13523   */\n      0x24\n        /* \"#utility.yul\":13516:13517   */\n      0x00\n        /* \"#utility.yul\":13509:13524   */\n      revert\n        /* \"#utility.yul\":13536:13727   */\n    tag_98:\n        /* \"#utility.yul\":13576:13579   */\n      0x00\n        /* \"#utility.yul\":13595:13615   */\n      tag_346\n        /* \"#utility.yul\":13613:13614   */\n      dup3\n        /* \"#utility.yul\":13595:13615   */\n      tag_180\n      jump\t// in\n    tag_346:\n        /* \"#utility.yul\":13590:13615   */\n      swap2\n      pop\n        /* \"#utility.yul\":13629:13649   */\n      tag_347\n        /* \"#utility.yul\":13647:13648   */\n      dup4\n        /* \"#utility.yul\":13629:13649   */\n      tag_180\n      jump\t// in\n    tag_347:\n        /* \"#utility.yul\":13624:13649   */\n      swap3\n      pop\n        /* \"#utility.yul\":13672:13673   */\n      dup3\n        /* \"#utility.yul\":13669:13670   */\n      dup3\n        /* \"#utility.yul\":13665:13674   */\n      add\n        /* \"#utility.yul\":13658:13674   */\n      swap1\n      pop\n        /* \"#utility.yul\":13693:13696   */\n      dup1\n        /* \"#utility.yul\":13690:13691   */\n      dup3\n        /* \"#utility.yul\":13687:13697   */\n      gt\n        /* \"#utility.yul\":13684:13720   */\n      iszero\n      tag_348\n      jumpi\n        /* \"#utility.yul\":13700:13718   */\n      tag_349\n      tag_207\n      jump\t// in\n    tag_349:\n        /* \"#utility.yul\":13684:13720   */\n    tag_348:\n        /* \"#utility.yul\":13536:13727   */\n      swap3\n      swap2\n      pop\n      pop\n      jump\t// out\n        /* \"#utility.yul\":13733:13903   */\n    tag_208:\n        /* \"#utility.yul\":13873:13895   */\n      0x4c414e3a20616c72656164792073746172746564000000000000000000000000\n        /* \"#utility.yul\":13869:13870   */\n      0x00\n        /* \"#utility.yul\":13861:13867   */\n      dup3\n        /* \"#utility.yul\":13857:13871   */\n      add\n        /* \"#utility.yul\":13850:13896   */\n      mstore\n        /* \"#utility.yul\":13733:13903   */\n      pop\n      jump\t// out\n        /* \"#utility.yul\":13909:14275   */\n    tag_209:\n        /* \"#utility.yul\":14051:14054   */\n      0x00\n        /* \"#utility.yul\":14072:14139   */\n      tag_352\n        /* \"#utility.yul\":14136:14138   */\n      0x14\n        /* \"#utility.yul\":14131:14134   */\n      dup4\n        /* \"#utility.yul\":14072:14139   */\n      tag_196\n      jump\t// in\n    tag_352:\n        /* \"#utility.yul\":14065:14139   */\n      swap2\n      pop\n        /* \"#utility.yul\":14148:14241   */\n      tag_353\n        /* \"#utility.yul\":14237:14240   */\n      dup3\n        /* \"#utility.yul\":14148:14241   */\n      tag_208\n      jump\t// in\n    tag_353:\n        /* \"#utility.yul\":14266:14268   */\n      0x20\n        /* \"#utility.yul\":14261:14264   */\n      dup3\n        /* \"#utility.yul\":14257:14269   */\n      add\n        /* \"#utility.yul\":14250:14269   */\n      swap1\n      pop\n        /* \"#utility.yul\":13909:14275   */\n      swap2\n      swap1\n      pop\n      jump\t// out\n        /* \"#utility.yul\":14281:14700   */\n    tag_106:\n        /* \"#utility.yul\":14447:14451   */\n      0x00\n        /* \"#utility.yul\":14485:14487   */\n      0x20\n        /* \"#utility.yul\":14474:14483   */\n      dup3\n        /* \"#utility.yul\":14470:14488   */\n      add\n        /* \"#utility.yul\":14462:14488   */\n      swap1\n      pop\n        /* \"#utility.yul\":14534:14543   */\n      dup2\n        /* \"#utility.yul\":14528:14532   */\n      dup2\n        /* \"#utility.yul\":14524:14544   */\n      sub\n        /* \"#utility.yul\":14520:14521   */\n      0x00\n        /* \"#utility.yul\":14509:14518   */\n      dup4\n        /* \"#utility.yul\":14505:14522   */\n      add\n        /* \"#utility.yul\":14498:14545   */\n      mstore\n        /* \"#utility.yul\":14562:14693   */\n      tag_355\n        /* \"#utility.yul\":14688:14692   */\n      dup2\n        /* \"#utility.yul\":14562:14693   */\n      tag_209\n      jump\t// in\n    tag_355:\n        /* \"#utility.yul\":14554:14693   */\n      swap1\n      pop\n        /* \"#utility.yul\":14281:14700   */\n      swap2\n      swap1\n      pop\n      jump\t// out\n        /* \"#utility.yul\":14706:14875   */\n    tag_210:\n        /* \"#utility.yul\":14846:14867   */\n      0x4c414e3a206c6f616e206e6f7420656e64656400000000000000000000000000\n        /* \"#utility.yul\":14842:14843   */\n      0x00\n        /* \"#utility.yul\":14834:14840   */\n      dup3\n        /* \"#utility.yul\":14830:14844   */\n      add\n        /* \"#utility.yul\":14823:14868   */\n      mstore\n        /* \"#utility.yul\":14706:14875   */\n      pop\n      jump\t// out\n        /* \"#utility.yul\":14881:15247   */\n    tag_211:\n        /* \"#utility.yul\":15023:15026   */\n      0x00\n        /* \"#utility.yul\":15044:15111   */\n      tag_358\n        /* \"#utility.yul\":15108:15110   */\n      0x13\n        /* \"#utility.yul\":15103:15106   */\n      dup4\n        /* \"#utility.yul\":15044:15111   */\n      tag_196\n      jump\t// in\n    tag_358:\n        /* \"#utility.yul\":15037:15111   */\n      swap2\n      pop\n        /* \"#utility.yul\":15120:15213   */\n      tag_359\n        /* \"#utility.yul\":15209:15212   */\n      dup3\n        /* \"#utility.yul\":15120:15213   */\n      tag_210\n      jump\t// in\n    tag_359:\n        /* \"#utility.yul\":15238:15240   */\n      0x20\n        /* \"#utility.yul\":15233:15236   */\n      dup3\n        /* \"#utility.yul\":15229:15241   */\n      add\n        /* \"#utility.yul\":15222:15241   */\n      swap1\n      pop\n        /* \"#utility.yul\":14881:15247   */\n      swap2\n      swap1\n      pop\n      jump\t// out\n        /* \"#utility.yul\":15253:15672   */\n    tag_114:\n        /* \"#utility.yul\":15419:15423   */\n      0x00\n        /* \"#utility.yul\":15457:15459   */\n      0x20\n        /* \"#utility.yul\":15446:15455   */\n      dup3\n        /* \"#utility.yul\":15442:15460   */\n      add\n        /* \"#utility.yul\":15434:15460   */\n      swap1\n      pop\n        /* \"#utility.yul\":15506:15515   */\n      dup2\n        /* \"#utility.yul\":15500:15504   */\n      dup2\n        /* \"#utility.yul\":15496:15516   */\n      sub\n        /* \"#utility.yul\":15492:15493   */\n      0x00\n        /* \"#utility.yul\":15481:15490   */\n      dup4\n        /* \"#utility.yul\":15477:15494   */\n      add\n        /* \"#utility.yul\":15470:15517   */\n      mstore\n        /* \"#utility.yul\":15534:15665   */\n      tag_361\n        /* \"#utility.yul\":15660:15664   */\n      dup2\n        /* \"#utility.yul\":15534:15665   */\n      tag_211\n      jump\t// in\n    tag_361:\n        /* \"#utility.yul\":15526:15665   */\n      swap1\n      pop\n        /* \"#utility.yul\":15253:15672   */\n      swap2\n      swap1\n      pop\n      jump\t// out\n        /* \"#utility.yul\":15678:15850   */\n    tag_212:\n        /* \"#utility.yul\":15818:15842   */\n      0x4c414e3a206e6f74206c61746573742062696464657200000000000000000000\n        /* \"#utility.yul\":15814:15815   */\n      0x00\n        /* \"#utility.yul\":15806:15812   */\n      dup3\n        /* \"#utility.yul\":15802:15816   */\n      add\n        /* \"#utility.yul\":15795:15843   */\n      mstore\n        /* \"#utility.yul\":15678:15850   */\n      pop\n      jump\t// out\n        /* \"#utility.yul\":15856:16222   */\n    tag_213:\n        /* \"#utility.yul\":15998:16001   */\n      0x00\n        /* \"#utility.yul\":16019:16086   */\n      tag_364\n        /* \"#utility.yul\":16083:16085   */\n      0x16\n        /* \"#utility.yul\":16078:16081   */\n      dup4\n        /* \"#utility.yul\":16019:16086   */\n      tag_196\n      jump\t// in\n    tag_364:\n        /* \"#utility.yul\":16012:16086   */\n      swap2\n      pop\n        /* \"#utility.yul\":16095:16188   */\n      tag_365\n        /* \"#utility.yul\":16184:16187   */\n      dup3\n        /* \"#utility.yul\":16095:16188   */\n      tag_212\n      jump\t// in\n    tag_365:\n        /* \"#utility.yul\":16213:16215   */\n      0x20\n        /* \"#utility.yul\":16208:16211   */\n      dup3\n        /* \"#utility.yul\":16204:16216   */\n      add\n        /* \"#utility.yul\":16197:16216   */\n      swap1\n      pop\n        /* \"#utility.yul\":15856:16222   */\n      swap2\n      swap1\n      pop\n      jump\t// out\n        /* \"#utility.yul\":16228:16647   */\n    tag_117:\n        /* \"#utility.yul\":16394:16398   */\n      0x00\n        /* \"#utility.yul\":16432:16434   */\n      0x20\n        /* \"#utility.yul\":16421:16430   */\n      dup3\n        /* \"#utility.yul\":16417:16435   */\n      add\n        /* \"#utility.yul\":16409:16435   */\n      swap1\n      pop\n        /* \"#utility.yul\":16481:16490   */\n      dup2\n        /* \"#utility.yul\":16475:16479   */\n      dup2\n        /* \"#utility.yul\":16471:16491   */\n      sub\n        /* \"#utility.yul\":16467:16468   */\n      0x00\n        /* \"#utility.yul\":16456:16465   */\n      dup4\n        /* \"#utility.yul\":16452:16469   */\n      add\n        /* \"#utility.yul\":16445:16492   */\n      mstore\n        /* \"#utility.yul\":16509:16640   */\n      tag_367\n        /* \"#utility.yul\":16635:16639   */\n      dup2\n        /* \"#utility.yul\":16509:16640   */\n      tag_213\n      jump\t// in\n    tag_367:\n        /* \"#utility.yul\":16501:16640   */\n      swap1\n      pop\n        /* \"#utility.yul\":16228:16647   */\n      swap2\n      swap1\n      pop\n      jump\t// out\n        /* \"#utility.yul\":16653:16790   */\n    tag_214:\n        /* \"#utility.yul\":16707:16712   */\n      0x00\n        /* \"#utility.yul\":16738:16744   */\n      dup2\n        /* \"#utility.yul\":16732:16745   */\n      mload\n        /* \"#utility.yul\":16723:16745   */\n      swap1\n      pop\n        /* \"#utility.yul\":16754:16784   */\n      tag_369\n        /* \"#utility.yul\":16778:16783   */\n      dup2\n        /* \"#utility.yul\":16754:16784   */\n      tag_194\n      jump\t// in\n    tag_369:\n        /* \"#utility.yul\":16653:16790   */\n      swap3\n      swap2\n      pop\n      pop\n      jump\t// out\n        /* \"#utility.yul\":16796:17141   */\n    tag_132:\n        /* \"#utility.yul\":16863:16869   */\n      0x00\n        /* \"#utility.yul\":16912:16914   */\n      0x20\n        /* \"#utility.yul\":16900:16909   */\n      dup3\n        /* \"#utility.yul\":16891:16898   */\n      dup5\n        /* \"#utility.yul\":16887:16910   */\n      sub\n        /* \"#utility.yul\":16883:16915   */\n      slt\n        /* \"#utility.yul\":16880:16999   */\n      iszero\n      tag_371\n      jumpi\n        /* \"#utility.yul\":16918:16997   */\n      tag_372\n      tag_183\n      jump\t// in\n    tag_372:\n        /* \"#utility.yul\":16880:16999   */\n    tag_371:\n        /* \"#utility.yul\":17038:17039   */\n      0x00\n        /* \"#utility.yul\":17063:17124   */\n      tag_373\n        /* \"#utility.yul\":17116:17123   */\n      dup5\n        /* \"#utility.yul\":17107:17113   */\n      dup3\n        /* \"#utility.yul\":17096:17105   */\n      dup6\n        /* \"#utility.yul\":17092:17114   */\n      add\n        /* \"#utility.yul\":17063:17124   */\n      tag_214\n      jump\t// in\n    tag_373:\n        /* \"#utility.yul\":17053:17124   */\n      swap2\n      pop\n        /* \"#utility.yul\":17009:17134   */\n      pop\n        /* \"#utility.yul\":16796:17141   */\n      swap3\n      swap2\n      pop\n      pop\n      jump\t// out\n        /* \"#utility.yul\":17147:17323   */\n    tag_215:\n        /* \"#utility.yul\":17287:17315   */\n      0x4c414e3a204e6f7420746865206c617465737420626964646572000000000000\n        /* \"#utility.yul\":17283:17284   */\n      0x00\n        /* \"#utility.yul\":17275:17281   */\n      dup3\n        /* \"#utility.yul\":17271:17285   */\n      add\n        /* \"#utility.yul\":17264:17316   */\n      mstore\n        /* \"#utility.yul\":17147:17323   */\n      pop\n      jump\t// out\n        /* \"#utility.yul\":17329:17695   */\n    tag_216:\n        /* \"#utility.yul\":17471:17474   */\n      0x00\n        /* \"#utility.yul\":17492:17559   */\n      tag_376\n        /* \"#utility.yul\":17556:17558   */\n      0x1a\n        /* \"#utility.yul\":17551:17554   */\n      dup4\n        /* \"#utility.yul\":17492:17559   */\n      tag_196\n      jump\t// in\n    tag_376:\n        /* \"#utility.yul\":17485:17559   */\n      swap2\n      pop\n        /* \"#utility.yul\":17568:17661   */\n      tag_377\n        /* \"#utility.yul\":17657:17660   */\n      dup3\n        /* \"#utility.yul\":17568:17661   */\n      tag_215\n      jump\t// in\n    tag_377:\n        /* \"#utility.yul\":17686:17688   */\n      0x20\n        /* \"#utility.yul\":17681:17684   */\n      dup3\n        /* \"#utility.yul\":17677:17689   */\n      add\n        /* \"#utility.yul\":17670:17689   */\n      swap1\n      pop\n        /* \"#utility.yul\":17329:17695   */\n      swap2\n      swap1\n      pop\n      jump\t// out\n        /* \"#utility.yul\":17701:18120   */\n    tag_146:\n        /* \"#utility.yul\":17867:17871   */\n      0x00\n        /* \"#utility.yul\":17905:17907   */\n      0x20\n        /* \"#utility.yul\":17894:17903   */\n      dup3\n        /* \"#utility.yul\":17890:17908   */\n      add\n        /* \"#utility.yul\":17882:17908   */\n      swap1\n      pop\n        /* \"#utility.yul\":17954:17963   */\n      dup2\n        /* \"#utility.yul\":17948:17952   */\n      dup2\n        /* \"#utility.yul\":17944:17964   */\n      sub\n        /* \"#utility.yul\":17940:17941   */\n      0x00\n        /* \"#utility.yul\":17929:17938   */\n      dup4\n        /* \"#utility.yul\":17925:17942   */\n      add\n        /* \"#utility.yul\":17918:17965   */\n      mstore\n        /* \"#utility.yul\":17982:18113   */\n      tag_379\n        /* \"#utility.yul\":18108:18112   */\n      dup2\n        /* \"#utility.yul\":17982:18113   */\n      tag_216\n      jump\t// in\n    tag_379:\n        /* \"#utility.yul\":17974:18113   */\n      swap1\n      pop\n        /* \"#utility.yul\":17701:18120   */\n      swap2\n      swap1\n      pop\n      jump\t// out\n        /* \"#utility.yul\":18126:18299   */\n    tag_217:\n        /* \"#utility.yul\":18266:18291   */\n      0x4c414e3a2073746172742074696d6520696e2070617374000000000000000000\n        /* \"#utility.yul\":18262:18263   */\n      0x00\n        /* \"#utility.yul\":18254:18260   */\n      dup3\n        /* \"#utility.yul\":18250:18264   */\n      add\n        /* \"#utility.yul\":18243:18292   */\n      mstore\n        /* \"#utility.yul\":18126:18299   */\n      pop\n      jump\t// out\n        /* \"#utility.yul\":18305:18671   */\n    tag_218:\n        /* \"#utility.yul\":18447:18450   */\n      0x00\n        /* \"#utility.yul\":18468:18535   */\n      tag_382\n        /* \"#utility.yul\":18532:18534   */\n      0x17\n        /* \"#utility.yul\":18527:18530   */\n      dup4\n        /* \"#utility.yul\":18468:18535   */\n      tag_196\n      jump\t// in\n    tag_382:\n        /* \"#utility.yul\":18461:18535   */\n      swap2\n      pop\n        /* \"#utility.yul\":18544:18637   */\n      tag_383\n        /* \"#utility.yul\":18633:18636   */\n      dup3\n        /* \"#utility.yul\":18544:18637   */\n      tag_217\n      jump\t// in\n    tag_383:\n        /* \"#utility.yul\":18662:18664   */\n      0x20\n        /* \"#utility.yul\":18657:18660   */\n      dup3\n        /* \"#utility.yul\":18653:18665   */\n      add\n        /* \"#utility.yul\":18646:18665   */\n      swap1\n      pop\n        /* \"#utility.yul\":18305:18671   */\n      swap2\n      swap1\n      pop\n      jump\t// out\n        /* \"#utility.yul\":18677:19096   */\n    tag_150:\n        /* \"#utility.yul\":18843:18847   */\n      0x00\n        /* \"#utility.yul\":18881:18883   */\n      0x20\n        /* \"#utility.yul\":18870:18879   */\n      dup3\n        /* \"#utility.yul\":18866:18884   */\n      add\n        /* \"#utility.yul\":18858:18884   */\n      swap1\n      pop\n        /* \"#utility.yul\":18930:18939   */\n      dup2\n        /* \"#utility.yul\":18924:18928   */\n      dup2\n        /* \"#utility.yul\":18920:18940   */\n      sub\n        /* \"#utility.yul\":18916:18917   */\n      0x00\n        /* \"#utility.yul\":18905:18914   */\n      dup4\n        /* \"#utility.yul\":18901:18918   */\n      add\n        /* \"#utility.yul\":18894:18941   */\n      mstore\n        /* \"#utility.yul\":18958:19089   */\n      tag_385\n        /* \"#utility.yul\":19084:19088   */\n      dup2\n        /* \"#utility.yul\":18958:19089   */\n      tag_218\n      jump\t// in\n    tag_385:\n        /* \"#utility.yul\":18950:19089   */\n      swap1\n      pop\n        /* \"#utility.yul\":18677:19096   */\n      swap2\n      swap1\n      pop\n      jump\t// out\n        /* \"#utility.yul\":19102:19272   */\n    tag_219:\n        /* \"#utility.yul\":19242:19264   */\n      0x4c414e3a20737461727420616674657220656e64000000000000000000000000\n        /* \"#utility.yul\":19238:19239   */\n      0x00\n        /* \"#utility.yul\":19230:19236   */\n      dup3\n        /* \"#utility.yul\":19226:19240   */\n      add\n        /* \"#utility.yul\":19219:19265   */\n      mstore\n        /* \"#utility.yul\":19102:19272   */\n      pop\n      jump\t// out\n        /* \"#utility.yul\":19278:19644   */\n    tag_220:\n        /* \"#utility.yul\":19420:19423   */\n      0x00\n        /* \"#utility.yul\":19441:19508   */\n      tag_388\n        /* \"#utility.yul\":19505:19507   */\n      0x14\n        /* \"#utility.yul\":19500:19503   */\n      dup4\n        /* \"#utility.yul\":19441:19508   */\n      tag_196\n      jump\t// in\n    tag_388:\n        /* \"#utility.yul\":19434:19508   */\n      swap2\n      pop\n        /* \"#utility.yul\":19517:19610   */\n      tag_389\n        /* \"#utility.yul\":19606:19609   */\n      dup3\n        /* \"#utility.yul\":19517:19610   */\n      tag_219\n      jump\t// in\n    tag_389:\n        /* \"#utility.yul\":19635:19637   */\n      0x20\n        /* \"#utility.yul\":19630:19633   */\n      dup3\n        /* \"#utility.yul\":19626:19638   */\n      add\n        /* \"#utility.yul\":19619:19638   */\n      swap1\n      pop\n        /* \"#utility.yul\":19278:19644   */\n      swap2\n      swap1\n      pop\n      jump\t// out\n        /* \"#utility.yul\":19650:20069   */\n    tag_153:\n        /* \"#utility.yul\":19816:19820   */\n      0x00\n        /* \"#utility.yul\":19854:19856   */\n      0x20\n        /* \"#utility.yul\":19843:19852   */\n      dup3\n        /* \"#utility.yul\":19839:19857   */\n      add\n        /* \"#utility.yul\":19831:19857   */\n      swap1\n      pop\n        /* \"#utility.yul\":19903:19912   */\n      dup2\n        /* \"#utility.yul\":19897:19901   */\n      dup2\n        /* \"#utility.yul\":19893:19913   */\n      sub\n        /* \"#utility.yul\":19889:19890   */\n      0x00\n        /* \"#utility.yul\":19878:19887   */\n      dup4\n        /* \"#utility.yul\":19874:19891   */\n      add\n        /* \"#utility.yul\":19867:19914   */\n      mstore\n        /* \"#utility.yul\":19931:20062   */\n      tag_391\n        /* \"#utility.yul\":20057:20061   */\n      dup2\n        /* \"#utility.yul\":19931:20062   */\n      tag_220\n      jump\t// in\n    tag_391:\n        /* \"#utility.yul\":19923:20062   */\n      swap1\n      pop\n        /* \"#utility.yul\":19650:20069   */\n      swap2\n      swap1\n      pop\n      jump\t// out\n        /* \"#utility.yul\":20075:20218   */\n    tag_221:\n        /* \"#utility.yul\":20132:20137   */\n      0x00\n        /* \"#utility.yul\":20163:20169   */\n      dup2\n        /* \"#utility.yul\":20157:20170   */\n      mload\n        /* \"#utility.yul\":20148:20170   */\n      swap1\n      pop\n        /* \"#utility.yul\":20179:20212   */\n      tag_393\n        /* \"#utility.yul\":20206:20211   */\n      dup2\n        /* \"#utility.yul\":20179:20212   */\n      tag_190\n      jump\t// in\n    tag_393:\n        /* \"#utility.yul\":20075:20218   */\n      swap3\n      swap2\n      pop\n      pop\n      jump\t// out\n        /* \"#utility.yul\":20224:20575   */\n    tag_158:\n        /* \"#utility.yul\":20294:20300   */\n      0x00\n        /* \"#utility.yul\":20343:20345   */\n      0x20\n        /* \"#utility.yul\":20331:20340   */\n      dup3\n        /* \"#utility.yul\":20322:20329   */\n      dup5\n        /* \"#utility.yul\":20318:20341   */\n      sub\n        /* \"#utility.yul\":20314:20346   */\n      slt\n        /* \"#utility.yul\":20311:20430   */\n      iszero\n      tag_395\n      jumpi\n        /* \"#utility.yul\":20349:20428   */\n      tag_396\n      tag_183\n      jump\t// in\n    tag_396:\n        /* \"#utility.yul\":20311:20430   */\n    tag_395:\n        /* \"#utility.yul\":20469:20470   */\n      0x00\n        /* \"#utility.yul\":20494:20558   */\n      tag_397\n        /* \"#utility.yul\":20550:20557   */\n      dup5\n        /* \"#utility.yul\":20541:20547   */\n      dup3\n        /* \"#utility.yul\":20530:20539   */\n      dup6\n        /* \"#utility.yul\":20526:20548   */\n      add\n        /* \"#utility.yul\":20494:20558   */\n      tag_221\n      jump\t// in\n    tag_397:\n        /* \"#utility.yul\":20484:20558   */\n      swap2\n      pop\n        /* \"#utility.yul\":20440:20568   */\n      pop\n        /* \"#utility.yul\":20224:20575   */\n      swap3\n      swap2\n      pop\n      pop\n      jump\t// out\n        /* \"#utility.yul\":20581:20913   */\n    tag_160:\n        /* \"#utility.yul\":20702:20706   */\n      0x00\n        /* \"#utility.yul\":20740:20742   */\n      0x40\n        /* \"#utility.yul\":20729:20738   */\n      dup3\n        /* \"#utility.yul\":20725:20743   */\n      add\n        /* \"#utility.yul\":20717:20743   */\n      swap1\n      pop\n        /* \"#utility.yul\":20753:20824   */\n      tag_399\n        /* \"#utility.yul\":20821:20822   */\n      0x00\n        /* \"#utility.yul\":20810:20819   */\n      dup4\n        /* \"#utility.yul\":20806:20823   */\n      add\n        /* \"#utility.yul\":20797:20803   */\n      dup6\n        /* \"#utility.yul\":20753:20824   */\n      tag_189\n      jump\t// in\n    tag_399:\n        /* \"#utility.yul\":20834:20906   */\n      tag_400\n        /* \"#utility.yul\":20902:20904   */\n      0x20\n        /* \"#utility.yul\":20891:20900   */\n      dup4\n        /* \"#utility.yul\":20887:20905   */\n      add\n        /* \"#utility.yul\":20878:20884   */\n      dup5\n        /* \"#utility.yul\":20834:20906   */\n      tag_181\n      jump\t// in\n    tag_400:\n        /* \"#utility.yul\":20581:20913   */\n      swap4\n      swap3\n      pop\n      pop\n      pop\n      jump\t// out\n        /* \"#utility.yul\":20919:21152   */\n    tag_162:\n        /* \"#utility.yul\":20958:20961   */\n      0x00\n        /* \"#utility.yul\":20981:21005   */\n      tag_402\n        /* \"#utility.yul\":20999:21004   */\n      dup3\n        /* \"#utility.yul\":20981:21005   */\n      tag_180\n      jump\t// in\n    tag_402:\n        /* \"#utility.yul\":20972:21005   */\n      swap2\n      pop\n        /* \"#utility.yul\":21027:21093   */\n      0xffffffffffffffffffffffffffffffffffffffffffffffffffffffffffffffff\n        /* \"#utility.yul\":21020:21025   */\n      dup3\n        /* \"#utility.yul\":21017:21094   */\n      sub\n        /* \"#utility.yul\":21014:21117   */\n      tag_403\n      jumpi\n        /* \"#utility.yul\":21097:21115   */\n      tag_404\n      tag_207\n      jump\t// in\n    tag_404:\n        /* \"#utility.yul\":21014:21117   */\n    tag_403:\n        /* \"#utility.yul\":21144:21145   */\n      0x01\n        /* \"#utility.yul\":21137:21142   */\n      dup3\n        /* \"#utility.yul\":21133:21146   */\n      add\n        /* \"#utility.yul\":21126:21146   */\n      swap1\n      pop\n        /* \"#utility.yul\":20919:21152   */\n      swap2\n      swap1\n      pop\n      jump\t// out\n        /* \"#utility.yul\":21158:21352   */\n    tag_170:\n        /* \"#utility.yul\":21198:21202   */\n      0x00\n        /* \"#utility.yul\":21218:21238   */\n      tag_406\n        /* \"#utility.yul\":21236:21237   */\n      dup3\n        /* \"#utility.yul\":21218:21238   */\n      tag_180\n      jump\t// in\n    tag_406:\n        /* \"#utility.yul\":21213:21238   */\n      swap2\n      pop\n        /* \"#utility.yul\":21252:21272   */\n      tag_407\n        /* \"#utility.yul\":21270:21271   */\n      dup4\n        /* \"#utility.yul\":21252:21272   */\n      tag_180\n      jump\t// in\n    tag_407:\n        /* \"#utility.yul\":21247:21272   */\n      swap3\n      pop\n        /* \"#utility.yul\":21296:21297   */\n      dup3\n        /* \"#utility.yul\":21293:21294   */\n      dup3\n        /* \"#utility.yul\":21289:21298   */\n      sub\n        /* \"#utility.yul\":21281:21298   */\n      swap1\n      pop\n        /* \"#utility.yul\":21320:21321   */\n      dup2\n        /* \"#utility.yul\":21314:21318   */\n      dup2\n        /* \"#utility.yul\":21311:21322   */\n      gt\n        /* \"#utility.yul\":21308:21345   */\n      iszero\n      tag_408\n      jumpi\n        /* \"#utility.yul\":21325:21343   */\n      tag_409\n      tag_207\n      jump\t// in\n    tag_409:\n        /* \"#utility.yul\":21308:21345   */\n    tag_408:\n        /* \"#utility.yul\":21158:21352   */\n      swap3\n      swap2\n      pop\n      pop\n      jump\t// out\n        /* \"#utility.yul\":21358:21706   */\n    tag_174:\n        /* \"#utility.yul\":21398:21405   */\n      0x00\n        /* \"#utility.yul\":21421:21441   */\n      tag_411\n        /* \"#utility.yul\":21439:21440   */\n      dup3\n        /* \"#utility.yul\":21421:21441   */\n      tag_180\n      jump\t// in\n    tag_411:\n        /* \"#utility.yul\":21416:21441   */\n      swap2\n      pop\n        /* \"#utility.yul\":21455:21475   */\n      tag_412\n        /* \"#utility.yul\":21473:21474   */\n      dup4\n        /* \"#utility.yul\":21455:21475   */\n      tag_180\n      jump\t// in\n    tag_412:\n        /* \"#utility.yul\":21450:21475   */\n      swap3\n      pop\n        /* \"#utility.yul\":21643:21644   */\n      dup2\n        /* \"#utility.yul\":21575:21641   */\n      0xffffffffffffffffffffffffffffffffffffffffffffffffffffffffffffffff\n        /* \"#utility.yul\":21571:21645   */\n      div\n        /* \"#utility.yul\":21568:21569   */\n      dup4\n        /* \"#utility.yul\":21565:21646   */\n      gt\n        /* \"#utility.yul\":21560:21561   */\n      dup3\n        /* \"#utility.yul\":21553:21562   */\n      iszero\n        /* \"#utility.yul\":21546:21563   */\n      iszero\n        /* \"#utility.yul\":21542:21647   */\n      and\n        /* \"#utility.yul\":21539:21670   */\n      iszero\n      tag_413\n      jumpi\n        /* \"#utility.yul\":21650:21668   */\n      tag_414\n      tag_207\n      jump\t// in\n    tag_414:\n        /* \"#utility.yul\":21539:21670   */\n    tag_413:\n        /* \"#utility.yul\":21698:21699   */\n      dup3\n        /* \"#utility.yul\":21695:21696   */\n      dup3\n        /* \"#utility.yul\":21691:21700   */\n      mul\n        /* \"#utility.yul\":21680:21700   */\n      swap1\n      pop\n        /* \"#utility.yul\":21358:21706   */\n      swap3\n      swap2\n      pop\n      pop\n      jump\t// out\n        /* \"#utility.yul\":21712:21892   */\n    tag_222:\n        /* \"#utility.yul\":21760:21837   */\n      0x4e487b7100000000000000000000000000000000000000000000000000000000\n        /* \"#utility.yul\":21757:21758   */\n      0x00\n        /* \"#utility.yul\":21750:21838   */\n      mstore\n        /* \"#utility.yul\":21857:21861   */\n      0x12\n        /* \"#utility.yul\":21854:21855   */\n      0x04\n        /* \"#utility.yul\":21847:21862   */\n      mstore\n        /* \"#utility.yul\":21881:21885   */\n      0x24\n        /* \"#utility.yul\":21878:21879   */\n      0x00\n        /* \"#utility.yul\":21871:21886   */\n      revert\n        /* \"#utility.yul\":21898:22083   */\n    tag_176:\n        /* \"#utility.yul\":21938:21939   */\n      0x00\n        /* \"#utility.yul\":21955:21975   */\n      tag_417\n        /* \"#utility.yul\":21973:21974   */\n      dup3\n        /* \"#utility.yul\":21955:21975   */\n      tag_180\n      jump\t// in\n    tag_417:\n        /* \"#utility.yul\":21950:21975   */\n      swap2\n      pop\n        /* \"#utility.yul\":21989:22009   */\n      tag_418\n        /* \"#utility.yul\":22007:22008   */\n      dup4\n        /* \"#utility.yul\":21989:22009   */\n      tag_180\n      jump\t// in\n    tag_418:\n        /* \"#utility.yul\":21984:22009   */\n      swap3\n      pop\n        /* \"#utility.yul\":22028:22029   */\n      dup3\n        /* \"#utility.yul\":22018:22053   */\n      tag_419\n      jumpi\n        /* \"#utility.yul\":22033:22051   */\n      tag_420\n      tag_222\n      jump\t// in\n    tag_420:\n        /* \"#utility.yul\":22018:22053   */\n    tag_419:\n        /* \"#utility.yul\":22075:22076   */\n      dup3\n        /* \"#utility.yul\":22072:22073   */\n      dup3\n        /* \"#utility.yul\":22068:22077   */\n      div\n        /* \"#utility.yul\":22063:22077   */\n      swap1\n      pop\n        /* \"#utility.yul\":21898:22083   */\n      swap3\n      swap2\n      pop\n      pop\n      jump\t// out\n\n    auxdata: 0xa2646970667358221220f8f753fde2d0717569166de36d073f548e4a4098404db3549bc306ac0d176b4864736f6c63430008100033\n}\n",
				"bytecode": {
					"linkReferences": {},
					"object": "608060405234801561001057600080fd5b50612d2f806100206000396000f3fe608060405234801561001057600080fd5b50600436106100b45760003560e01c80637b3c4baa116100715780637b3c4baa146101635780638f769f3a14610196578063a23b02bd146101b2578063e1267929146101e2578063e1ec3c68146101fe578063f724e48e14610237576100b4565b806306661abd146100b957806318de4f9d146100d75780632ac9bf09146100f357806340e58ee51461010f578063415f12401461012b5780637870860b14610147575b600080fd5b6100c1610253565b6040516100ce91906121d6565b60405180910390f35b6100f160048036038101906100ec9190612222565b610259565b005b61010d6004803603810190610108919061224f565b610665565b005b61012960048036038101906101249190612222565b610925565b005b61014560048036038101906101409190612222565b610c8a565b005b610161600480360381019061015c9190612222565b61103a565b005b61017d600480360381019061017891906122a2565b6114d3565b60405161018d9493929190612323565b60405180910390f35b6101b060048036038101906101ab9190612394565b611530565b005b6101cc60048036038101906101c79190612394565b611891565b6040516101d991906123ef565b60405180910390f35b6101fc60048036038101906101f79190612436565b6118c0565b005b61021860048036038101906102139190612222565b611c70565b60405161022e9a999897969594939291906124d8565b60405180910390f35b610251600480360381019061024c9190612574565b611d51565b005b60005481565b803373ffffffffffffffffffffffffffffffffffffffff166001600083815260200190815260200160002060000160009054906101000a900473ffffffffffffffffffffffffffffffffffffffff1673ffffffffffffffffffffffffffffffffffffffff16148061032b57503373ffffffffffffffffffffffffffffffffffffffff166001600083815260200190815260200160002060020160009054906101000a900473ffffffffffffffffffffffffffffffffffffffff1673ffffffffffffffffffffffffffffffffffffffff16145b61036a576040517f08c379a000000000000000000000000000000000000000000000000000000000815260040161036190612624565b60405180910390fd5b600060016000848152602001908152602001600020604051806101400160405290816000820160009054906101000a900473ffffffffffffffffffffffffffffffffffffffff1673ffffffffffffffffffffffffffffffffffffffff1673ffffffffffffffffffffffffffffffffffffffff1681526020016001820160009054906101000a900473ffffffffffffffffffffffffffffffffffffffff1673ffffffffffffffffffffffffffffffffffffffff1673ffffffffffffffffffffffffffffffffffffffff1681526020016002820160009054906101000a900473ffffffffffffffffffffffffffffffffffffffff1673ffffffffffffffffffffffffffffffffffffffff1673ffffffffffffffffffffffffffffffffffffffff1681526020016003820160009054906101000a900473ffffffffffffffffffffffffffffffffffffffff1673ffffffffffffffffffffffffffffffffffffffff1673ffffffffffffffffffffffffffffffffffffffff16815260200160048201548152602001600582015481526020016006820154815260200160078201548152602001600882015481526020016009820160009054906101000a900460ff16151515158152505090506000600260008581526020019081526020016000206000836101000151815260200190815260200160002060405180608001604052908160008201548152602001600182015481526020016002820160009054906101000a900473ffffffffffffffffffffffffffffffffffffffff1673ffffffffffffffffffffffffffffffffffffffff1673ffffffffffffffffffffffffffffffffffffffff16815260200160038201548152505090506000826060015190508073ffffffffffffffffffffffffffffffffffffffff166342842e0e30846040015186608001516040518463ffffffff1660e01b815260040161062c93929190612644565b600060405180830381600087803b15801561064657600080fd5b505af115801561065a573d6000803e3d6000fd5b505050505050505050565b61066e83611dbe565b6106ad576040517f08c379a00000000000000000000000000000000000000000000000000000000081526004016106a4906126c7565b60405180910390fd5b6106b683611de0565b156106f6576040517f08c379a00000000000000000000000000000000000000000000000000000000081526004016106ed90612733565b60405180910390fd5b60006001600085815260200190815260200160002090508060090160009054906101000a900460ff16801561078557506003600085815260200190815260200160002060003373ffffffffffffffffffffffffffffffffffffffff1673ffffffffffffffffffffffffffffffffffffffff16815260200190815260200160002060009054906101000a900460ff165b806107a55750600015158160090160009054906101000a900460ff161515145b6107e4576040517f08c379a00000000000000000000000000000000000000000000000000000000081526004016107db9061279f565b60405180910390fd5b60006107ef85611e03565b9050808411610833576040517f08c379a000000000000000000000000000000000000000000000000000000000815260040161082a9061280b565b60405180910390fd5b82826007018190555060006001836008015461084f919061285a565b905080836008018190555060405180608001604052804281526020018681526020013373ffffffffffffffffffffffffffffffffffffffff16815260200185815250600260008881526020019081526020016000206000838152602001908152602001600020600082015181600001556020820151816001015560408201518160020160006101000a81548173ffffffffffffffffffffffffffffffffffffffff021916908373ffffffffffffffffffffffffffffffffffffffff16021790555060608201518160030155905050505050505050565b803373ffffffffffffffffffffffffffffffffffffffff166001600083815260200190815260200160002060000160009054906101000a900473ffffffffffffffffffffffffffffffffffffffff1673ffffffffffffffffffffffffffffffffffffffff1614806109f757503373ffffffffffffffffffffffffffffffffffffffff166001600083815260200190815260200160002060020160009054906101000a900473ffffffffffffffffffffffffffffffffffffffff1673ffffffffffffffffffffffffffffffffffffffff16145b610a36576040517f08c379a0000000000000000000000000000000000000000000000000000000008152600401610a2d90612624565b60405180910390fd5b600060016000848152602001908152602001600020604051806101400160405290816000820160009054906101000a900473ffffffffffffffffffffffffffffffffffffffff1673ffffffffffffffffffffffffffffffffffffffff1673ffffffffffffffffffffffffffffffffffffffff1681526020016001820160009054906101000a900473ffffffffffffffffffffffffffffffffffffffff1673ffffffffffffffffffffffffffffffffffffffff1673ffffffffffffffffffffffffffffffffffffffff1681526020016002820160009054906101000a900473ffffffffffffffffffffffffffffffffffffffff1673ffffffffffffffffffffffffffffffffffffffff1673ffffffffffffffffffffffffffffffffffffffff1681526020016003820160009054906101000a900473ffffffffffffffffffffffffffffffffffffffff1673ffffffffffffffffffffffffffffffffffffffff1673ffffffffffffffffffffffffffffffffffffffff16815260200160048201548152602001600582015481526020016006820154815260200160078201548152602001600882015481526020016009820160009054906101000a900460ff1615151515815250509050428160a0015111610c44576040517f08c379a0000000000000000000000000000000000000000000000000000000008152600401610c3b906128da565b60405180910390fd5b610c4c612110565b90507ffe785ef891129b084b1c5a30e4d88eb97c97822c024cc25d5f9d806b897512e083604051610c7d91906121d6565b60405180910390a1505050565b600060016000838152602001908152602001600020604051806101400160405290816000820160009054906101000a900473ffffffffffffffffffffffffffffffffffffffff1673ffffffffffffffffffffffffffffffffffffffff1673ffffffffffffffffffffffffffffffffffffffff1681526020016001820160009054906101000a900473ffffffffffffffffffffffffffffffffffffffff1673ffffffffffffffffffffffffffffffffffffffff1673ffffffffffffffffffffffffffffffffffffffff1681526020016002820160009054906101000a900473ffffffffffffffffffffffffffffffffffffffff1673ffffffffffffffffffffffffffffffffffffffff1673ffffffffffffffffffffffffffffffffffffffff1681526020016003820160009054906101000a900473ffffffffffffffffffffffffffffffffffffffff1673ffffffffffffffffffffffffffffffffffffffff1673ffffffffffffffffffffffffffffffffffffffff16815260200160048201548152602001600582015481526020016006820154815260200160078201548152602001600882015481526020016009820160009054906101000a900460ff1615151515815250509050610e5b82611de0565b610e9a576040517f08c379a0000000000000000000000000000000000000000000000000000000008152600401610e9190612946565b60405180910390fd5b6000600260008481526020019081526020016000206000836101000151815260200190815260200160002060405180608001604052908160008201548152602001600182015481526020016002820160009054906101000a900473ffffffffffffffffffffffffffffffffffffffff1673ffffffffffffffffffffffffffffffffffffffff1673ffffffffffffffffffffffffffffffffffffffff16815260200160038201548152505090503373ffffffffffffffffffffffffffffffffffffffff16816040015173ffffffffffffffffffffffffffffffffffffffff1614610fb8576040517f08c379a0000000000000000000000000000000000000000000000000000000008152600401610faf906129b2565b60405180910390fd5b6000826060015190508073ffffffffffffffffffffffffffffffffffffffff166342842e0e303386608001516040518463ffffffff1660e01b815260040161100293929190612644565b600060405180830381600087803b15801561101c57600080fd5b505af1158015611030573d6000803e3d6000fd5b5050505050505050565b803373ffffffffffffffffffffffffffffffffffffffff166001600083815260200190815260200160002060000160009054906101000a900473ffffffffffffffffffffffffffffffffffffffff1673ffffffffffffffffffffffffffffffffffffffff16148061110c57503373ffffffffffffffffffffffffffffffffffffffff166001600083815260200190815260200160002060020160009054906101000a900473ffffffffffffffffffffffffffffffffffffffff1673ffffffffffffffffffffffffffffffffffffffff16145b61114b576040517f08c379a000000000000000000000000000000000000000000000000000000000815260040161114290612624565b60405180910390fd5b600060016000848152602001908152602001600020604051806101400160405290816000820160009054906101000a900473ffffffffffffffffffffffffffffffffffffffff1673ffffffffffffffffffffffffffffffffffffffff1673ffffffffffffffffffffffffffffffffffffffff1681526020016001820160009054906101000a900473ffffffffffffffffffffffffffffffffffffffff1673ffffffffffffffffffffffffffffffffffffffff1673ffffffffffffffffffffffffffffffffffffffff1681526020016002820160009054906101000a900473ffffffffffffffffffffffffffffffffffffffff1673ffffffffffffffffffffffffffffffffffffffff1673ffffffffffffffffffffffffffffffffffffffff1681526020016003820160009054906101000a900473ffffffffffffffffffffffffffffffffffffffff1673ffffffffffffffffffffffffffffffffffffffff1673ffffffffffffffffffffffffffffffffffffffff16815260200160048201548152602001600582015481526020016006820154815260200160078201548152602001600882015481526020016009820160009054906101000a900460ff16151515158152505090506000600260008581526020019081526020016000206000836101000151815260200190815260200160002060405180608001604052908160008201548152602001600182015481526020016002820160009054906101000a900473ffffffffffffffffffffffffffffffffffffffff1673ffffffffffffffffffffffffffffffffffffffff1673ffffffffffffffffffffffffffffffffffffffff1681526020016003820154815250509050816020015173ffffffffffffffffffffffffffffffffffffffff166323b872dd3383604001516113ee88611e03565b6040518463ffffffff1660e01b815260040161140c93929190612644565b6020604051808303816000875af115801561142b573d6000803e3d6000fd5b505050506040513d601f19601f8201168201806040525081019061144f91906129e7565b506000826060015190508073ffffffffffffffffffffffffffffffffffffffff166342842e0e303386608001516040518463ffffffff1660e01b815260040161149a93929190612644565b600060405180830381600087803b1580156114b457600080fd5b505af11580156114c8573d6000803e3d6000fd5b505050505050505050565b6002602052816000526040600020602052806000526040600020600091509150508060000154908060010154908060020160009054906101000a900473ffffffffffffffffffffffffffffffffffffffff16908060030154905084565b61153982611dbe565b611578576040517f08c379a000000000000000000000000000000000000000000000000000000000815260040161156f906126c7565b60405180910390fd5b61158182611de0565b156115c1576040517f08c379a00000000000000000000000000000000000000000000000000000000081526004016115b890612733565b60405180910390fd5b600060016000848152602001908152602001600020604051806101400160405290816000820160009054906101000a900473ffffffffffffffffffffffffffffffffffffffff1673ffffffffffffffffffffffffffffffffffffffff1673ffffffffffffffffffffffffffffffffffffffff1681526020016001820160009054906101000a900473ffffffffffffffffffffffffffffffffffffffff1673ffffffffffffffffffffffffffffffffffffffff1673ffffffffffffffffffffffffffffffffffffffff1681526020016002820160009054906101000a900473ffffffffffffffffffffffffffffffffffffffff1673ffffffffffffffffffffffffffffffffffffffff1673ffffffffffffffffffffffffffffffffffffffff1681526020016003820160009054906101000a900473ffffffffffffffffffffffffffffffffffffffff1673ffffffffffffffffffffffffffffffffffffffff1673ffffffffffffffffffffffffffffffffffffffff16815260200160048201548152602001600582015481526020016006820154815260200160078201548152602001600882015481526020016009820160009054906101000a900460ff16151515158152505090506000600260008581526020019081526020016000206000836101000151815260200190815260200160002090503373ffffffffffffffffffffffffffffffffffffffff168160020160009054906101000a900473ffffffffffffffffffffffffffffffffffffffff1673ffffffffffffffffffffffffffffffffffffffff1614611848576040517f08c379a000000000000000000000000000000000000000000000000000000000815260040161183f90612a60565b60405180910390fd5b828160020160006101000a81548173ffffffffffffffffffffffffffffffffffffffff021916908373ffffffffffffffffffffffffffffffffffffffff16021790555050505050565b60036020528160005260406000206020528060005260406000206000915091509054906101000a900460ff1681565b42831015611903576040517f08c379a00000000000000000000000000000000000000000000000000000000081526004016118fa90612acc565b60405180910390fd5b828211611945576040517f08c379a000000000000000000000000000000000000000000000000000000000815260040161193c90612b38565b60405180910390fd5b6040518061014001604052808673ffffffffffffffffffffffffffffffffffffffff16636352211e876040518263ffffffff1660e01b815260040161198a91906121d6565b602060405180830381865afa1580156119a7573d6000803e3d6000fd5b505050506040513d601f19601f820116820180604052508101906119cb9190612b6d565b73ffffffffffffffffffffffffffffffffffffffff1681526020018773ffffffffffffffffffffffffffffffffffffffff1681526020018873ffffffffffffffffffffffffffffffffffffffff1681526020018673ffffffffffffffffffffffffffffffffffffffff1681526020018581526020018481526020018381526020016000815260200160008152602001821515815250600160008054815260200190815260200160002060008201518160000160006101000a81548173ffffffffffffffffffffffffffffffffffffffff021916908373ffffffffffffffffffffffffffffffffffffffff16021790555060208201518160010160006101000a81548173ffffffffffffffffffffffffffffffffffffffff021916908373ffffffffffffffffffffffffffffffffffffffff16021790555060408201518160020160006101000a81548173ffffffffffffffffffffffffffffffffffffffff021916908373ffffffffffffffffffffffffffffffffffffffff16021790555060608201518160030160006101000a81548173ffffffffffffffffffffffffffffffffffffffff021916908373ffffffffffffffffffffffffffffffffffffffff1602179055506080820151816004015560a0820151816005015560c0820151816006015560e0820151816007015561010082015181600801556101208201518160090160006101000a81548160ff0219169083151502179055509050504260026000805481526020019081526020016000206000808152602001908152602001600020600001819055506000547fef8b2952c43462575e82711d0cc91169720a4589a9fa533d173e022437f5405e8686604051611c48929190612b9a565b60405180910390a2600080815480929190611c6290612bc3565b919050555050505050505050565b60016020528060005260406000206000915090508060000160009054906101000a900473ffffffffffffffffffffffffffffffffffffffff16908060010160009054906101000a900473ffffffffffffffffffffffffffffffffffffffff16908060020160009054906101000a900473ffffffffffffffffffffffffffffffffffffffff16908060030160009054906101000a900473ffffffffffffffffffffffffffffffffffffffff16908060040154908060050154908060060154908060070154908060080154908060090160009054906101000a900460ff1690508a565b806003600085815260200190815260200160002060008473ffffffffffffffffffffffffffffffffffffffff1673ffffffffffffffffffffffffffffffffffffffff16815260200190815260200160002060006101000a81548160ff021916908315150217905550505050565b6000426001600084815260200190815260200160002060050154109050919050565b600042600160008481526020019081526020016000206006015411159050919050565b60008060016000848152602001908152602001600020604051806101400160405290816000820160009054906101000a900473ffffffffffffffffffffffffffffffffffffffff1673ffffffffffffffffffffffffffffffffffffffff1673ffffffffffffffffffffffffffffffffffffffff1681526020016001820160009054906101000a900473ffffffffffffffffffffffffffffffffffffffff1673ffffffffffffffffffffffffffffffffffffffff1673ffffffffffffffffffffffffffffffffffffffff1681526020016002820160009054906101000a900473ffffffffffffffffffffffffffffffffffffffff1673ffffffffffffffffffffffffffffffffffffffff1673ffffffffffffffffffffffffffffffffffffffff1681526020016003820160009054906101000a900473ffffffffffffffffffffffffffffffffffffffff1673ffffffffffffffffffffffffffffffffffffffff1673ffffffffffffffffffffffffffffffffffffffff16815260200160048201548152602001600582015481526020016006820154815260200160078201548152602001600882015481526020016009820160009054906101000a900460ff16151515158152505090506000600260008581526020019081526020016000206000836101000151815260200190815260200160002060405180608001604052908160008201548152602001600182015481526020016002820160009054906101000a900473ffffffffffffffffffffffffffffffffffffffff1673ffffffffffffffffffffffffffffffffffffffff1673ffffffffffffffffffffffffffffffffffffffff1681526020016003820154815250509050600061208385611de0565b156120a3578260c00151826000015161209c9190612c0b565b90506120b6565b4282600001516120b39190612c0b565b90505b6301e1338081670de0b6b3a76400008560e0015185602001516120d99190612c3f565b6120e39190612cc8565b6120ed9190612c3f565b6120f79190612cc8565b8260200151612106919061285a565b9350505050919050565b604051806101400160405280600073ffffffffffffffffffffffffffffffffffffffff168152602001600073ffffffffffffffffffffffffffffffffffffffff168152602001600073ffffffffffffffffffffffffffffffffffffffff168152602001600073ffffffffffffffffffffffffffffffffffffffff16815260200160008152602001600081526020016000815260200160008152602001600081526020016000151581525090565b6000819050919050565b6121d0816121bd565b82525050565b60006020820190506121eb60008301846121c7565b92915050565b600080fd5b6121ff816121bd565b811461220a57600080fd5b50565b60008135905061221c816121f6565b92915050565b600060208284031215612238576122376121f1565b5b60006122468482850161220d565b91505092915050565b600080600060608486031215612268576122676121f1565b5b60006122768682870161220d565b93505060206122878682870161220d565b92505060406122988682870161220d565b9150509250925092565b600080604083850312156122b9576122b86121f1565b5b60006122c78582860161220d565b92505060206122d88582860161220d565b9150509250929050565b600073ffffffffffffffffffffffffffffffffffffffff82169050919050565b600061230d826122e2565b9050919050565b61231d81612302565b82525050565b600060808201905061233860008301876121c7565b61234560208301866121c7565b6123526040830185612314565b61235f60608301846121c7565b95945050505050565b61237181612302565b811461237c57600080fd5b50565b60008135905061238e81612368565b92915050565b600080604083850312156123ab576123aa6121f1565b5b60006123b98582860161220d565b92505060206123ca8582860161237f565b9150509250929050565b60008115159050919050565b6123e9816123d4565b82525050565b600060208201905061240460008301846123e0565b92915050565b612413816123d4565b811461241e57600080fd5b50565b6000813590506124308161240a565b92915050565b600080600080600080600060e0888a031215612455576124546121f1565b5b60006124638a828b0161237f565b97505060206124748a828b0161237f565b96505060406124858a828b0161237f565b95505060606124968a828b0161220d565b94505060806124a78a828b0161220d565b93505060a06124b88a828b0161220d565b92505060c06124c98a828b01612421565b91505092959891949750929550565b6000610140820190506124ee600083018d612314565b6124fb602083018c612314565b612508604083018b612314565b612515606083018a612314565b61252260808301896121c7565b61252f60a08301886121c7565b61253c60c08301876121c7565b61254960e08301866121c7565b6125576101008301856121c7565b6125656101208301846123e0565b9b9a5050505050505050505050565b60008060006060848603121561258d5761258c6121f1565b5b600061259b8682870161220d565b93505060206125ac8682870161237f565b92505060406125bd86828701612421565b9150509250925092565b600082825260208201905092915050565b7f4c414e3a206e6f74206f776e6572000000000000000000000000000000000000600082015250565b600061260e600e836125c7565b9150612619826125d8565b602082019050919050565b6000602082019050818103600083015261263d81612601565b9050919050565b60006060820190506126596000830186612314565b6126666020830185612314565b61267360408301846121c7565b949350505050565b7f4c414e3a206e6f74207374617274656400000000000000000000000000000000600082015250565b60006126b16010836125c7565b91506126bc8261267b565b602082019050919050565b600060208201905081810360008301526126e0816126a4565b9050919050565b7f4c414e3a20616c726561647920656e6465640000000000000000000000000000600082015250565b600061271d6012836125c7565b9150612728826126e7565b602082019050919050565b6000602082019050818103600083015261274c81612710565b9050919050565b7f4c414e3a204e6f742057686974656c6973746564000000000000000000000000600082015250565b60006127896014836125c7565b915061279482612753565b602082019050919050565b600060208201905081810360008301526127b88161277c565b9050919050565b7f4c414e3a20626964206e6f742068696768657200000000000000000000000000600082015250565b60006127f56013836125c7565b9150612800826127bf565b602082019050919050565b60006020820190508181036000830152612824816127e8565b9050919050565b7f4e487b7100000000000000000000000000000000000000000000000000000000600052601160045260246000fd5b6000612865826121bd565b9150612870836121bd565b92508282019050808211156128885761288761282b565b5b92915050565b7f4c414e3a20616c72656164792073746172746564000000000000000000000000600082015250565b60006128c46014836125c7565b91506128cf8261288e565b602082019050919050565b600060208201905081810360008301526128f3816128b7565b9050919050565b7f4c414e3a206c6f616e206e6f7420656e64656400000000000000000000000000600082015250565b60006129306013836125c7565b915061293b826128fa565b602082019050919050565b6000602082019050818103600083015261295f81612923565b9050919050565b7f4c414e3a206e6f74206c61746573742062696464657200000000000000000000600082015250565b600061299c6016836125c7565b91506129a782612966565b602082019050919050565b600060208201905081810360008301526129cb8161298f565b9050919050565b6000815190506129e18161240a565b92915050565b6000602082840312156129fd576129fc6121f1565b5b6000612a0b848285016129d2565b91505092915050565b7f4c414e3a204e6f7420746865206c617465737420626964646572000000000000600082015250565b6000612a4a601a836125c7565b9150612a5582612a14565b602082019050919050565b60006020820190508181036000830152612a7981612a3d565b9050919050565b7f4c414e3a2073746172742074696d6520696e2070617374000000000000000000600082015250565b6000612ab66017836125c7565b9150612ac182612a80565b602082019050919050565b60006020820190508181036000830152612ae581612aa9565b9050919050565b7f4c414e3a20737461727420616674657220656e64000000000000000000000000600082015250565b6000612b226014836125c7565b9150612b2d82612aec565b602082019050919050565b60006020820190508181036000830152612b5181612b15565b9050919050565b600081519050612b6781612368565b92915050565b600060208284031215612b8357612b826121f1565b5b6000612b9184828501612b58565b91505092915050565b6000604082019050612baf6000830185612314565b612bbc60208301846121c7565b9392505050565b6000612bce826121bd565b91507fffffffffffffffffffffffffffffffffffffffffffffffffffffffffffffffff8203612c0057612bff61282b565b5b600182019050919050565b6000612c16826121bd565b9150612c21836121bd565b9250828203905081811115612c3957612c3861282b565b5b92915050565b6000612c4a826121bd565b9150612c55836121bd565b9250817fffffffffffffffffffffffffffffffffffffffffffffffffffffffffffffffff0483118215151615612c8e57612c8d61282b565b5b828202905092915050565b7f4e487b7100000000000000000000000000000000000000000000000000000000600052601260045260246000fd5b6000612cd3826121bd565b9150612cde836121bd565b925082612cee57612ced612c99565b5b82820490509291505056fea2646970667358221220f8f753fde2d0717569166de36d073f548e4a4098404db3549bc306ac0d176b4864736f6c63430008100033",
					"opcodes": "PUSH1 0x80 PUSH1 0x40 MSTORE CALLVALUE DUP1 ISZERO PUSH2 0x10 JUMPI PUSH1 0x0 DUP1 REVERT JUMPDEST POP PUSH2 0x2D2F DUP1 PUSH2 0x20 PUSH1 0x0 CODECOPY PUSH1 0x0 RETURN INVALID PUSH1 0x80 PUSH1 0x40 MSTORE CALLVALUE DUP1 ISZERO PUSH2 0x10 JUMPI PUSH1 0x0 DUP1 REVERT JUMPDEST POP PUSH1 0x4 CALLDATASIZE LT PUSH2 0xB4 JUMPI PUSH1 0x0 CALLDATALOAD PUSH1 0xE0 SHR DUP1 PUSH4 0x7B3C4BAA GT PUSH2 0x71 JUMPI DUP1 PUSH4 0x7B3C4BAA EQ PUSH2 0x163 JUMPI DUP1 PUSH4 0x8F769F3A EQ PUSH2 0x196 JUMPI DUP1 PUSH4 0xA23B02BD EQ PUSH2 0x1B2 JUMPI DUP1 PUSH4 0xE1267929 EQ PUSH2 0x1E2 JUMPI DUP1 PUSH4 0xE1EC3C68 EQ PUSH2 0x1FE JUMPI DUP1 PUSH4 0xF724E48E EQ PUSH2 0x237 JUMPI PUSH2 0xB4 JUMP JUMPDEST DUP1 PUSH4 0x6661ABD EQ PUSH2 0xB9 JUMPI DUP1 PUSH4 0x18DE4F9D EQ PUSH2 0xD7 JUMPI DUP1 PUSH4 0x2AC9BF09 EQ PUSH2 0xF3 JUMPI DUP1 PUSH4 0x40E58EE5 EQ PUSH2 0x10F JUMPI DUP1 PUSH4 0x415F1240 EQ PUSH2 0x12B JUMPI DUP1 PUSH4 0x7870860B EQ PUSH2 0x147 JUMPI JUMPDEST PUSH1 0x0 DUP1 REVERT JUMPDEST PUSH2 0xC1 PUSH2 0x253 JUMP JUMPDEST PUSH1 0x40 MLOAD PUSH2 0xCE SWAP2 SWAP1 PUSH2 0x21D6 JUMP JUMPDEST PUSH1 0x40 MLOAD DUP1 SWAP2 SUB SWAP1 RETURN JUMPDEST PUSH2 0xF1 PUSH1 0x4 DUP1 CALLDATASIZE SUB DUP2 ADD SWAP1 PUSH2 0xEC SWAP2 SWAP1 PUSH2 0x2222 JUMP JUMPDEST PUSH2 0x259 JUMP JUMPDEST STOP JUMPDEST PUSH2 0x10D PUSH1 0x4 DUP1 CALLDATASIZE SUB DUP2 ADD SWAP1 PUSH2 0x108 SWAP2 SWAP1 PUSH2 0x224F JUMP JUMPDEST PUSH2 0x665 JUMP JUMPDEST STOP JUMPDEST PUSH2 0x129 PUSH1 0x4 DUP1 CALLDATASIZE SUB DUP2 ADD SWAP1 PUSH2 0x124 SWAP2 SWAP1 PUSH2 0x2222 JUMP JUMPDEST PUSH2 0x925 JUMP JUMPDEST STOP JUMPDEST PUSH2 0x145 PUSH1 0x4 DUP1 CALLDATASIZE SUB DUP2 ADD SWAP1 PUSH2 0x140 SWAP2 SWAP1 PUSH2 0x2222 JUMP JUMPDEST PUSH2 0xC8A JUMP JUMPDEST STOP JUMPDEST PUSH2 0x161 PUSH1 0x4 DUP1 CALLDATASIZE SUB DUP2 ADD SWAP1 PUSH2 0x15C SWAP2 SWAP1 PUSH2 0x2222 JUMP JUMPDEST PUSH2 0x103A JUMP JUMPDEST STOP JUMPDEST PUSH2 0x17D PUSH1 0x4 DUP1 CALLDATASIZE SUB DUP2 ADD SWAP1 PUSH2 0x178 SWAP2 SWAP1 PUSH2 0x22A2 JUMP JUMPDEST PUSH2 0x14D3 JUMP JUMPDEST PUSH1 0x40 MLOAD PUSH2 0x18D SWAP5 SWAP4 SWAP3 SWAP2 SWAP1 PUSH2 0x2323 JUMP JUMPDEST PUSH1 0x40 MLOAD DUP1 SWAP2 SUB SWAP1 RETURN JUMPDEST PUSH2 0x1B0 PUSH1 0x4 DUP1 CALLDATASIZE SUB DUP2 ADD SWAP1 PUSH2 0x1AB SWAP2 SWAP1 PUSH2 0x2394 JUMP JUMPDEST PUSH2 0x1530 JUMP JUMPDEST STOP JUMPDEST PUSH2 0x1CC PUSH1 0x4 DUP1 CALLDATASIZE SUB DUP2 ADD SWAP1 PUSH2 0x1C7 SWAP2 SWAP1 PUSH2 0x2394 JUMP JUMPDEST PUSH2 0x1891 JUMP JUMPDEST PUSH1 0x40 MLOAD PUSH2 0x1D9 SWAP2 SWAP1 PUSH2 0x23EF JUMP JUMPDEST PUSH1 0x40 MLOAD DUP1 SWAP2 SUB SWAP1 RETURN JUMPDEST PUSH2 0x1FC PUSH1 0x4 DUP1 CALLDATASIZE SUB DUP2 ADD SWAP1 PUSH2 0x1F7 SWAP2 SWAP1 PUSH2 0x2436 JUMP JUMPDEST PUSH2 0x18C0 JUMP JUMPDEST STOP JUMPDEST PUSH2 0x218 PUSH1 0x4 DUP1 CALLDATASIZE SUB DUP2 ADD SWAP1 PUSH2 0x213 SWAP2 SWAP1 PUSH2 0x2222 JUMP JUMPDEST PUSH2 0x1C70 JUMP JUMPDEST PUSH1 0x40 MLOAD PUSH2 0x22E SWAP11 SWAP10 SWAP9 SWAP8 SWAP7 SWAP6 SWAP5 SWAP4 SWAP3 SWAP2 SWAP1 PUSH2 0x24D8 JUMP JUMPDEST PUSH1 0x40 MLOAD DUP1 SWAP2 SUB SWAP1 RETURN JUMPDEST PUSH2 0x251 PUSH1 0x4 DUP1 CALLDATASIZE SUB DUP2 ADD SWAP1 PUSH2 0x24C SWAP2 SWAP1 PUSH2 0x2574 JUMP JUMPDEST PUSH2 0x1D51 JUMP JUMPDEST STOP JUMPDEST PUSH1 0x0 SLOAD DUP2 JUMP JUMPDEST DUP1 CALLER PUSH20 0xFFFFFFFFFFFFFFFFFFFFFFFFFFFFFFFFFFFFFFFF AND PUSH1 0x1 PUSH1 0x0 DUP4 DUP2 MSTORE PUSH1 0x20 ADD SWAP1 DUP2 MSTORE PUSH1 0x20 ADD PUSH1 0x0 KECCAK256 PUSH1 0x0 ADD PUSH1 0x0 SWAP1 SLOAD SWAP1 PUSH2 0x100 EXP SWAP1 DIV PUSH20 0xFFFFFFFFFFFFFFFFFFFFFFFFFFFFFFFFFFFFFFFF AND PUSH20 0xFFFFFFFFFFFFFFFFFFFFFFFFFFFFFFFFFFFFFFFF AND EQ DUP1 PUSH2 0x32B JUMPI POP CALLER PUSH20 0xFFFFFFFFFFFFFFFFFFFFFFFFFFFFFFFFFFFFFFFF AND PUSH1 0x1 PUSH1 0x0 DUP4 DUP2 MSTORE PUSH1 0x20 ADD SWAP1 DUP2 MSTORE PUSH1 0x20 ADD PUSH1 0x0 KECCAK256 PUSH1 0x2 ADD PUSH1 0x0 SWAP1 SLOAD SWAP1 PUSH2 0x100 EXP SWAP1 DIV PUSH20 0xFFFFFFFFFFFFFFFFFFFFFFFFFFFFFFFFFFFFFFFF AND PUSH20 0xFFFFFFFFFFFFFFFFFFFFFFFFFFFFFFFFFFFFFFFF AND EQ JUMPDEST PUSH2 0x36A JUMPI PUSH1 0x40 MLOAD PUSH32 0x8C379A000000000000000000000000000000000000000000000000000000000 DUP2 MSTORE PUSH1 0x4 ADD PUSH2 0x361 SWAP1 PUSH2 0x2624 JUMP JUMPDEST PUSH1 0x40 MLOAD DUP1 SWAP2 SUB SWAP1 REVERT JUMPDEST PUSH1 0x0 PUSH1 0x1 PUSH1 0x0 DUP5 DUP2 MSTORE PUSH1 0x20 ADD SWAP1 DUP2 MSTORE PUSH1 0x20 ADD PUSH1 0x0 KECCAK256 PUSH1 0x40 MLOAD DUP1 PUSH2 0x140 ADD PUSH1 0x40 MSTORE SWAP1 DUP2 PUSH1 0x0 DUP3 ADD PUSH1 0x0 SWAP1 SLOAD SWAP1 PUSH2 0x100 EXP SWAP1 DIV PUSH20 0xFFFFFFFFFFFFFFFFFFFFFFFFFFFFFFFFFFFFFFFF AND PUSH20 0xFFFFFFFFFFFFFFFFFFFFFFFFFFFFFFFFFFFFFFFF AND PUSH20 0xFFFFFFFFFFFFFFFFFFFFFFFFFFFFFFFFFFFFFFFF AND DUP2 MSTORE PUSH1 0x20 ADD PUSH1 0x1 DUP3 ADD PUSH1 0x0 SWAP1 SLOAD SWAP1 PUSH2 0x100 EXP SWAP1 DIV PUSH20 0xFFFFFFFFFFFFFFFFFFFFFFFFFFFFFFFFFFFFFFFF AND PUSH20 0xFFFFFFFFFFFFFFFFFFFFFFFFFFFFFFFFFFFFFFFF AND PUSH20 0xFFFFFFFFFFFFFFFFFFFFFFFFFFFFFFFFFFFFFFFF AND DUP2 MSTORE PUSH1 0x20 ADD PUSH1 0x2 DUP3 ADD PUSH1 0x0 SWAP1 SLOAD SWAP1 PUSH2 0x100 EXP SWAP1 DIV PUSH20 0xFFFFFFFFFFFFFFFFFFFFFFFFFFFFFFFFFFFFFFFF AND PUSH20 0xFFFFFFFFFFFFFFFFFFFFFFFFFFFFFFFFFFFFFFFF AND PUSH20 0xFFFFFFFFFFFFFFFFFFFFFFFFFFFFFFFFFFFFFFFF AND DUP2 MSTORE PUSH1 0x20 ADD PUSH1 0x3 DUP3 ADD PUSH1 0x0 SWAP1 SLOAD SWAP1 PUSH2 0x100 EXP SWAP1 DIV PUSH20 0xFFFFFFFFFFFFFFFFFFFFFFFFFFFFFFFFFFFFFFFF AND PUSH20 0xFFFFFFFFFFFFFFFFFFFFFFFFFFFFFFFFFFFFFFFF AND PUSH20 0xFFFFFFFFFFFFFFFFFFFFFFFFFFFFFFFFFFFFFFFF AND DUP2 MSTORE PUSH1 0x20 ADD PUSH1 0x4 DUP3 ADD SLOAD DUP2 MSTORE PUSH1 0x20 ADD PUSH1 0x5 DUP3 ADD SLOAD DUP2 MSTORE PUSH1 0x20 ADD PUSH1 0x6 DUP3 ADD SLOAD DUP2 MSTORE PUSH1 0x20 ADD PUSH1 0x7 DUP3 ADD SLOAD DUP2 MSTORE PUSH1 0x20 ADD PUSH1 0x8 DUP3 ADD SLOAD DUP2 MSTORE PUSH1 0x20 ADD PUSH1 0x9 DUP3 ADD PUSH1 0x0 SWAP1 SLOAD SWAP1 PUSH2 0x100 EXP SWAP1 DIV PUSH1 0xFF AND ISZERO ISZERO ISZERO ISZERO DUP2 MSTORE POP POP SWAP1 POP PUSH1 0x0 PUSH1 0x2 PUSH1 0x0 DUP6 DUP2 MSTORE PUSH1 0x20 ADD SWAP1 DUP2 MSTORE PUSH1 0x20 ADD PUSH1 0x0 KECCAK256 PUSH1 0x0 DUP4 PUSH2 0x100 ADD MLOAD DUP2 MSTORE PUSH1 0x20 ADD SWAP1 DUP2 MSTORE PUSH1 0x20 ADD PUSH1 0x0 KECCAK256 PUSH1 0x40 MLOAD DUP1 PUSH1 0x80 ADD PUSH1 0x40 MSTORE SWAP1 DUP2 PUSH1 0x0 DUP3 ADD SLOAD DUP2 MSTORE PUSH1 0x20 ADD PUSH1 0x1 DUP3 ADD SLOAD DUP2 MSTORE PUSH1 0x20 ADD PUSH1 0x2 DUP3 ADD PUSH1 0x0 SWAP1 SLOAD SWAP1 PUSH2 0x100 EXP SWAP1 DIV PUSH20 0xFFFFFFFFFFFFFFFFFFFFFFFFFFFFFFFFFFFFFFFF AND PUSH20 0xFFFFFFFFFFFFFFFFFFFFFFFFFFFFFFFFFFFFFFFF AND PUSH20 0xFFFFFFFFFFFFFFFFFFFFFFFFFFFFFFFFFFFFFFFF AND DUP2 MSTORE PUSH1 0x20 ADD PUSH1 0x3 DUP3 ADD SLOAD DUP2 MSTORE POP POP SWAP1 POP PUSH1 0x0 DUP3 PUSH1 0x60 ADD MLOAD SWAP1 POP DUP1 PUSH20 0xFFFFFFFFFFFFFFFFFFFFFFFFFFFFFFFFFFFFFFFF AND PUSH4 0x42842E0E ADDRESS DUP5 PUSH1 0x40 ADD MLOAD DUP7 PUSH1 0x80 ADD MLOAD PUSH1 0x40 MLOAD DUP5 PUSH4 0xFFFFFFFF AND PUSH1 0xE0 SHL DUP2 MSTORE PUSH1 0x4 ADD PUSH2 0x62C SWAP4 SWAP3 SWAP2 SWAP1 PUSH2 0x2644 JUMP JUMPDEST PUSH1 0x0 PUSH1 0x40 MLOAD DUP1 DUP4 SUB DUP2 PUSH1 0x0 DUP8 DUP1 EXTCODESIZE ISZERO DUP1 ISZERO PUSH2 0x646 JUMPI PUSH1 0x0 DUP1 REVERT JUMPDEST POP GAS CALL ISZERO DUP1 ISZERO PUSH2 0x65A JUMPI RETURNDATASIZE PUSH1 0x0 DUP1 RETURNDATACOPY RETURNDATASIZE PUSH1 0x0 REVERT JUMPDEST POP POP POP POP POP POP POP POP POP JUMP JUMPDEST PUSH2 0x66E DUP4 PUSH2 0x1DBE JUMP JUMPDEST PUSH2 0x6AD JUMPI PUSH1 0x40 MLOAD PUSH32 0x8C379A000000000000000000000000000000000000000000000000000000000 DUP2 MSTORE PUSH1 0x4 ADD PUSH2 0x6A4 SWAP1 PUSH2 0x26C7 JUMP JUMPDEST PUSH1 0x40 MLOAD DUP1 SWAP2 SUB SWAP1 REVERT JUMPDEST PUSH2 0x6B6 DUP4 PUSH2 0x1DE0 JUMP JUMPDEST ISZERO PUSH2 0x6F6 JUMPI PUSH1 0x40 MLOAD PUSH32 0x8C379A000000000000000000000000000000000000000000000000000000000 DUP2 MSTORE PUSH1 0x4 ADD PUSH2 0x6ED SWAP1 PUSH2 0x2733 JUMP JUMPDEST PUSH1 0x40 MLOAD DUP1 SWAP2 SUB SWAP1 REVERT JUMPDEST PUSH1 0x0 PUSH1 0x1 PUSH1 0x0 DUP6 DUP2 MSTORE PUSH1 0x20 ADD SWAP1 DUP2 MSTORE PUSH1 0x20 ADD PUSH1 0x0 KECCAK256 SWAP1 POP DUP1 PUSH1 0x9 ADD PUSH1 0x0 SWAP1 SLOAD SWAP1 PUSH2 0x100 EXP SWAP1 DIV PUSH1 0xFF AND DUP1 ISZERO PUSH2 0x785 JUMPI POP PUSH1 0x3 PUSH1 0x0 DUP6 DUP2 MSTORE PUSH1 0x20 ADD SWAP1 DUP2 MSTORE PUSH1 0x20 ADD PUSH1 0x0 KECCAK256 PUSH1 0x0 CALLER PUSH20 0xFFFFFFFFFFFFFFFFFFFFFFFFFFFFFFFFFFFFFFFF AND PUSH20 0xFFFFFFFFFFFFFFFFFFFFFFFFFFFFFFFFFFFFFFFF AND DUP2 MSTORE PUSH1 0x20 ADD SWAP1 DUP2 MSTORE PUSH1 0x20 ADD PUSH1 0x0 KECCAK256 PUSH1 0x0 SWAP1 SLOAD SWAP1 PUSH2 0x100 EXP SWAP1 DIV PUSH1 0xFF AND JUMPDEST DUP1 PUSH2 0x7A5 JUMPI POP PUSH1 0x0 ISZERO ISZERO DUP2 PUSH1 0x9 ADD PUSH1 0x0 SWAP1 SLOAD SWAP1 PUSH2 0x100 EXP SWAP1 DIV PUSH1 0xFF AND ISZERO ISZERO EQ JUMPDEST PUSH2 0x7E4 JUMPI PUSH1 0x40 MLOAD PUSH32 0x8C379A000000000000000000000000000000000000000000000000000000000 DUP2 MSTORE PUSH1 0x4 ADD PUSH2 0x7DB SWAP1 PUSH2 0x279F JUMP JUMPDEST PUSH1 0x40 MLOAD DUP1 SWAP2 SUB SWAP1 REVERT JUMPDEST PUSH1 0x0 PUSH2 0x7EF DUP6 PUSH2 0x1E03 JUMP JUMPDEST SWAP1 POP DUP1 DUP5 GT PUSH2 0x833 JUMPI PUSH1 0x40 MLOAD PUSH32 0x8C379A000000000000000000000000000000000000000000000000000000000 DUP2 MSTORE PUSH1 0x4 ADD PUSH2 0x82A SWAP1 PUSH2 0x280B JUMP JUMPDEST PUSH1 0x40 MLOAD DUP1 SWAP2 SUB SWAP1 REVERT JUMPDEST DUP3 DUP3 PUSH1 0x7 ADD DUP2 SWAP1 SSTORE POP PUSH1 0x0 PUSH1 0x1 DUP4 PUSH1 0x8 ADD SLOAD PUSH2 0x84F SWAP2 SWAP1 PUSH2 0x285A JUMP JUMPDEST SWAP1 POP DUP1 DUP4 PUSH1 0x8 ADD DUP2 SWAP1 SSTORE POP PUSH1 0x40 MLOAD DUP1 PUSH1 0x80 ADD PUSH1 0x40 MSTORE DUP1 TIMESTAMP DUP2 MSTORE PUSH1 0x20 ADD DUP7 DUP2 MSTORE PUSH1 0x20 ADD CALLER PUSH20 0xFFFFFFFFFFFFFFFFFFFFFFFFFFFFFFFFFFFFFFFF AND DUP2 MSTORE PUSH1 0x20 ADD DUP6 DUP2 MSTORE POP PUSH1 0x2 PUSH1 0x0 DUP9 DUP2 MSTORE PUSH1 0x20 ADD SWAP1 DUP2 MSTORE PUSH1 0x20 ADD PUSH1 0x0 KECCAK256 PUSH1 0x0 DUP4 DUP2 MSTORE PUSH1 0x20 ADD SWAP1 DUP2 MSTORE PUSH1 0x20 ADD PUSH1 0x0 KECCAK256 PUSH1 0x0 DUP3 ADD MLOAD DUP2 PUSH1 0x0 ADD SSTORE PUSH1 0x20 DUP3 ADD MLOAD DUP2 PUSH1 0x1 ADD SSTORE PUSH1 0x40 DUP3 ADD MLOAD DUP2 PUSH1 0x2 ADD PUSH1 0x0 PUSH2 0x100 EXP DUP2 SLOAD DUP2 PUSH20 0xFFFFFFFFFFFFFFFFFFFFFFFFFFFFFFFFFFFFFFFF MUL NOT AND SWAP1 DUP4 PUSH20 0xFFFFFFFFFFFFFFFFFFFFFFFFFFFFFFFFFFFFFFFF AND MUL OR SWAP1 SSTORE POP PUSH1 0x60 DUP3 ADD MLOAD DUP2 PUSH1 0x3 ADD SSTORE SWAP1 POP POP POP POP POP POP POP POP JUMP JUMPDEST DUP1 CALLER PUSH20 0xFFFFFFFFFFFFFFFFFFFFFFFFFFFFFFFFFFFFFFFF AND PUSH1 0x1 PUSH1 0x0 DUP4 DUP2 MSTORE PUSH1 0x20 ADD SWAP1 DUP2 MSTORE PUSH1 0x20 ADD PUSH1 0x0 KECCAK256 PUSH1 0x0 ADD PUSH1 0x0 SWAP1 SLOAD SWAP1 PUSH2 0x100 EXP SWAP1 DIV PUSH20 0xFFFFFFFFFFFFFFFFFFFFFFFFFFFFFFFFFFFFFFFF AND PUSH20 0xFFFFFFFFFFFFFFFFFFFFFFFFFFFFFFFFFFFFFFFF AND EQ DUP1 PUSH2 0x9F7 JUMPI POP CALLER PUSH20 0xFFFFFFFFFFFFFFFFFFFFFFFFFFFFFFFFFFFFFFFF AND PUSH1 0x1 PUSH1 0x0 DUP4 DUP2 MSTORE PUSH1 0x20 ADD SWAP1 DUP2 MSTORE PUSH1 0x20 ADD PUSH1 0x0 KECCAK256 PUSH1 0x2 ADD PUSH1 0x0 SWAP1 SLOAD SWAP1 PUSH2 0x100 EXP SWAP1 DIV PUSH20 0xFFFFFFFFFFFFFFFFFFFFFFFFFFFFFFFFFFFFFFFF AND PUSH20 0xFFFFFFFFFFFFFFFFFFFFFFFFFFFFFFFFFFFFFFFF AND EQ JUMPDEST PUSH2 0xA36 JUMPI PUSH1 0x40 MLOAD PUSH32 0x8C379A000000000000000000000000000000000000000000000000000000000 DUP2 MSTORE PUSH1 0x4 ADD PUSH2 0xA2D SWAP1 PUSH2 0x2624 JUMP JUMPDEST PUSH1 0x40 MLOAD DUP1 SWAP2 SUB SWAP1 REVERT JUMPDEST PUSH1 0x0 PUSH1 0x1 PUSH1 0x0 DUP5 DUP2 MSTORE PUSH1 0x20 ADD SWAP1 DUP2 MSTORE PUSH1 0x20 ADD PUSH1 0x0 KECCAK256 PUSH1 0x40 MLOAD DUP1 PUSH2 0x140 ADD PUSH1 0x40 MSTORE SWAP1 DUP2 PUSH1 0x0 DUP3 ADD PUSH1 0x0 SWAP1 SLOAD SWAP1 PUSH2 0x100 EXP SWAP1 DIV PUSH20 0xFFFFFFFFFFFFFFFFFFFFFFFFFFFFFFFFFFFFFFFF AND PUSH20 0xFFFFFFFFFFFFFFFFFFFFFFFFFFFFFFFFFFFFFFFF AND PUSH20 0xFFFFFFFFFFFFFFFFFFFFFFFFFFFFFFFFFFFFFFFF AND DUP2 MSTORE PUSH1 0x20 ADD PUSH1 0x1 DUP3 ADD PUSH1 0x0 SWAP1 SLOAD SWAP1 PUSH2 0x100 EXP SWAP1 DIV PUSH20 0xFFFFFFFFFFFFFFFFFFFFFFFFFFFFFFFFFFFFFFFF AND PUSH20 0xFFFFFFFFFFFFFFFFFFFFFFFFFFFFFFFFFFFFFFFF AND PUSH20 0xFFFFFFFFFFFFFFFFFFFFFFFFFFFFFFFFFFFFFFFF AND DUP2 MSTORE PUSH1 0x20 ADD PUSH1 0x2 DUP3 ADD PUSH1 0x0 SWAP1 SLOAD SWAP1 PUSH2 0x100 EXP SWAP1 DIV PUSH20 0xFFFFFFFFFFFFFFFFFFFFFFFFFFFFFFFFFFFFFFFF AND PUSH20 0xFFFFFFFFFFFFFFFFFFFFFFFFFFFFFFFFFFFFFFFF AND PUSH20 0xFFFFFFFFFFFFFFFFFFFFFFFFFFFFFFFFFFFFFFFF AND DUP2 MSTORE PUSH1 0x20 ADD PUSH1 0x3 DUP3 ADD PUSH1 0x0 SWAP1 SLOAD SWAP1 PUSH2 0x100 EXP SWAP1 DIV PUSH20 0xFFFFFFFFFFFFFFFFFFFFFFFFFFFFFFFFFFFFFFFF AND PUSH20 0xFFFFFFFFFFFFFFFFFFFFFFFFFFFFFFFFFFFFFFFF AND PUSH20 0xFFFFFFFFFFFFFFFFFFFFFFFFFFFFFFFFFFFFFFFF AND DUP2 MSTORE PUSH1 0x20 ADD PUSH1 0x4 DUP3 ADD SLOAD DUP2 MSTORE PUSH1 0x20 ADD PUSH1 0x5 DUP3 ADD SLOAD DUP2 MSTORE PUSH1 0x20 ADD PUSH1 0x6 DUP3 ADD SLOAD DUP2 MSTORE PUSH1 0x20 ADD PUSH1 0x7 DUP3 ADD SLOAD DUP2 MSTORE PUSH1 0x20 ADD PUSH1 0x8 DUP3 ADD SLOAD DUP2 MSTORE PUSH1 0x20 ADD PUSH1 0x9 DUP3 ADD PUSH1 0x0 SWAP1 SLOAD SWAP1 PUSH2 0x100 EXP SWAP1 DIV PUSH1 0xFF AND ISZERO ISZERO ISZERO ISZERO DUP2 MSTORE POP POP SWAP1 POP TIMESTAMP DUP2 PUSH1 0xA0 ADD MLOAD GT PUSH2 0xC44 JUMPI PUSH1 0x40 MLOAD PUSH32 0x8C379A000000000000000000000000000000000000000000000000000000000 DUP2 MSTORE PUSH1 0x4 ADD PUSH2 0xC3B SWAP1 PUSH2 0x28DA JUMP JUMPDEST PUSH1 0x40 MLOAD DUP1 SWAP2 SUB SWAP1 REVERT JUMPDEST PUSH2 0xC4C PUSH2 0x2110 JUMP JUMPDEST SWAP1 POP PUSH32 0xFE785EF891129B084B1C5A30E4D88EB97C97822C024CC25D5F9D806B897512E0 DUP4 PUSH1 0x40 MLOAD PUSH2 0xC7D SWAP2 SWAP1 PUSH2 0x21D6 JUMP JUMPDEST PUSH1 0x40 MLOAD DUP1 SWAP2 SUB SWAP1 LOG1 POP POP POP JUMP JUMPDEST PUSH1 0x0 PUSH1 0x1 PUSH1 0x0 DUP4 DUP2 MSTORE PUSH1 0x20 ADD SWAP1 DUP2 MSTORE PUSH1 0x20 ADD PUSH1 0x0 KECCAK256 PUSH1 0x40 MLOAD DUP1 PUSH2 0x140 ADD PUSH1 0x40 MSTORE SWAP1 DUP2 PUSH1 0x0 DUP3 ADD PUSH1 0x0 SWAP1 SLOAD SWAP1 PUSH2 0x100 EXP SWAP1 DIV PUSH20 0xFFFFFFFFFFFFFFFFFFFFFFFFFFFFFFFFFFFFFFFF AND PUSH20 0xFFFFFFFFFFFFFFFFFFFFFFFFFFFFFFFFFFFFFFFF AND PUSH20 0xFFFFFFFFFFFFFFFFFFFFFFFFFFFFFFFFFFFFFFFF AND DUP2 MSTORE PUSH1 0x20 ADD PUSH1 0x1 DUP3 ADD PUSH1 0x0 SWAP1 SLOAD SWAP1 PUSH2 0x100 EXP SWAP1 DIV PUSH20 0xFFFFFFFFFFFFFFFFFFFFFFFFFFFFFFFFFFFFFFFF AND PUSH20 0xFFFFFFFFFFFFFFFFFFFFFFFFFFFFFFFFFFFFFFFF AND PUSH20 0xFFFFFFFFFFFFFFFFFFFFFFFFFFFFFFFFFFFFFFFF AND DUP2 MSTORE PUSH1 0x20 ADD PUSH1 0x2 DUP3 ADD PUSH1 0x0 SWAP1 SLOAD SWAP1 PUSH2 0x100 EXP SWAP1 DIV PUSH20 0xFFFFFFFFFFFFFFFFFFFFFFFFFFFFFFFFFFFFFFFF AND PUSH20 0xFFFFFFFFFFFFFFFFFFFFFFFFFFFFFFFFFFFFFFFF AND PUSH20 0xFFFFFFFFFFFFFFFFFFFFFFFFFFFFFFFFFFFFFFFF AND DUP2 MSTORE PUSH1 0x20 ADD PUSH1 0x3 DUP3 ADD PUSH1 0x0 SWAP1 SLOAD SWAP1 PUSH2 0x100 EXP SWAP1 DIV PUSH20 0xFFFFFFFFFFFFFFFFFFFFFFFFFFFFFFFFFFFFFFFF AND PUSH20 0xFFFFFFFFFFFFFFFFFFFFFFFFFFFFFFFFFFFFFFFF AND PUSH20 0xFFFFFFFFFFFFFFFFFFFFFFFFFFFFFFFFFFFFFFFF AND DUP2 MSTORE PUSH1 0x20 ADD PUSH1 0x4 DUP3 ADD SLOAD DUP2 MSTORE PUSH1 0x20 ADD PUSH1 0x5 DUP3 ADD SLOAD DUP2 MSTORE PUSH1 0x20 ADD PUSH1 0x6 DUP3 ADD SLOAD DUP2 MSTORE PUSH1 0x20 ADD PUSH1 0x7 DUP3 ADD SLOAD DUP2 MSTORE PUSH1 0x20 ADD PUSH1 0x8 DUP3 ADD SLOAD DUP2 MSTORE PUSH1 0x20 ADD PUSH1 0x9 DUP3 ADD PUSH1 0x0 SWAP1 SLOAD SWAP1 PUSH2 0x100 EXP SWAP1 DIV PUSH1 0xFF AND ISZERO ISZERO ISZERO ISZERO DUP2 MSTORE POP POP SWAP1 POP PUSH2 0xE5B DUP3 PUSH2 0x1DE0 JUMP JUMPDEST PUSH2 0xE9A JUMPI PUSH1 0x40 MLOAD PUSH32 0x8C379A000000000000000000000000000000000000000000000000000000000 DUP2 MSTORE PUSH1 0x4 ADD PUSH2 0xE91 SWAP1 PUSH2 0x2946 JUMP JUMPDEST PUSH1 0x40 MLOAD DUP1 SWAP2 SUB SWAP1 REVERT JUMPDEST PUSH1 0x0 PUSH1 0x2 PUSH1 0x0 DUP5 DUP2 MSTORE PUSH1 0x20 ADD SWAP1 DUP2 MSTORE PUSH1 0x20 ADD PUSH1 0x0 KECCAK256 PUSH1 0x0 DUP4 PUSH2 0x100 ADD MLOAD DUP2 MSTORE PUSH1 0x20 ADD SWAP1 DUP2 MSTORE PUSH1 0x20 ADD PUSH1 0x0 KECCAK256 PUSH1 0x40 MLOAD DUP1 PUSH1 0x80 ADD PUSH1 0x40 MSTORE SWAP1 DUP2 PUSH1 0x0 DUP3 ADD SLOAD DUP2 MSTORE PUSH1 0x20 ADD PUSH1 0x1 DUP3 ADD SLOAD DUP2 MSTORE PUSH1 0x20 ADD PUSH1 0x2 DUP3 ADD PUSH1 0x0 SWAP1 SLOAD SWAP1 PUSH2 0x100 EXP SWAP1 DIV PUSH20 0xFFFFFFFFFFFFFFFFFFFFFFFFFFFFFFFFFFFFFFFF AND PUSH20 0xFFFFFFFFFFFFFFFFFFFFFFFFFFFFFFFFFFFFFFFF AND PUSH20 0xFFFFFFFFFFFFFFFFFFFFFFFFFFFFFFFFFFFFFFFF AND DUP2 MSTORE PUSH1 0x20 ADD PUSH1 0x3 DUP3 ADD SLOAD DUP2 MSTORE POP POP SWAP1 POP CALLER PUSH20 0xFFFFFFFFFFFFFFFFFFFFFFFFFFFFFFFFFFFFFFFF AND DUP2 PUSH1 0x40 ADD MLOAD PUSH20 0xFFFFFFFFFFFFFFFFFFFFFFFFFFFFFFFFFFFFFFFF AND EQ PUSH2 0xFB8 JUMPI PUSH1 0x40 MLOAD PUSH32 0x8C379A000000000000000000000000000000000000000000000000000000000 DUP2 MSTORE PUSH1 0x4 ADD PUSH2 0xFAF SWAP1 PUSH2 0x29B2 JUMP JUMPDEST PUSH1 0x40 MLOAD DUP1 SWAP2 SUB SWAP1 REVERT JUMPDEST PUSH1 0x0 DUP3 PUSH1 0x60 ADD MLOAD SWAP1 POP DUP1 PUSH20 0xFFFFFFFFFFFFFFFFFFFFFFFFFFFFFFFFFFFFFFFF AND PUSH4 0x42842E0E ADDRESS CALLER DUP7 PUSH1 0x80 ADD MLOAD PUSH1 0x40 MLOAD DUP5 PUSH4 0xFFFFFFFF AND PUSH1 0xE0 SHL DUP2 MSTORE PUSH1 0x4 ADD PUSH2 0x1002 SWAP4 SWAP3 SWAP2 SWAP1 PUSH2 0x2644 JUMP JUMPDEST PUSH1 0x0 PUSH1 0x40 MLOAD DUP1 DUP4 SUB DUP2 PUSH1 0x0 DUP8 DUP1 EXTCODESIZE ISZERO DUP1 ISZERO PUSH2 0x101C JUMPI PUSH1 0x0 DUP1 REVERT JUMPDEST POP GAS CALL ISZERO DUP1 ISZERO PUSH2 0x1030 JUMPI RETURNDATASIZE PUSH1 0x0 DUP1 RETURNDATACOPY RETURNDATASIZE PUSH1 0x0 REVERT JUMPDEST POP POP POP POP POP POP POP POP JUMP JUMPDEST DUP1 CALLER PUSH20 0xFFFFFFFFFFFFFFFFFFFFFFFFFFFFFFFFFFFFFFFF AND PUSH1 0x1 PUSH1 0x0 DUP4 DUP2 MSTORE PUSH1 0x20 ADD SWAP1 DUP2 MSTORE PUSH1 0x20 ADD PUSH1 0x0 KECCAK256 PUSH1 0x0 ADD PUSH1 0x0 SWAP1 SLOAD SWAP1 PUSH2 0x100 EXP SWAP1 DIV PUSH20 0xFFFFFFFFFFFFFFFFFFFFFFFFFFFFFFFFFFFFFFFF AND PUSH20 0xFFFFFFFFFFFFFFFFFFFFFFFFFFFFFFFFFFFFFFFF AND EQ DUP1 PUSH2 0x110C JUMPI POP CALLER PUSH20 0xFFFFFFFFFFFFFFFFFFFFFFFFFFFFFFFFFFFFFFFF AND PUSH1 0x1 PUSH1 0x0 DUP4 DUP2 MSTORE PUSH1 0x20 ADD SWAP1 DUP2 MSTORE PUSH1 0x20 ADD PUSH1 0x0 KECCAK256 PUSH1 0x2 ADD PUSH1 0x0 SWAP1 SLOAD SWAP1 PUSH2 0x100 EXP SWAP1 DIV PUSH20 0xFFFFFFFFFFFFFFFFFFFFFFFFFFFFFFFFFFFFFFFF AND PUSH20 0xFFFFFFFFFFFFFFFFFFFFFFFFFFFFFFFFFFFFFFFF AND EQ JUMPDEST PUSH2 0x114B JUMPI PUSH1 0x40 MLOAD PUSH32 0x8C379A000000000000000000000000000000000000000000000000000000000 DUP2 MSTORE PUSH1 0x4 ADD PUSH2 0x1142 SWAP1 PUSH2 0x2624 JUMP JUMPDEST PUSH1 0x40 MLOAD DUP1 SWAP2 SUB SWAP1 REVERT JUMPDEST PUSH1 0x0 PUSH1 0x1 PUSH1 0x0 DUP5 DUP2 MSTORE PUSH1 0x20 ADD SWAP1 DUP2 MSTORE PUSH1 0x20 ADD PUSH1 0x0 KECCAK256 PUSH1 0x40 MLOAD DUP1 PUSH2 0x140 ADD PUSH1 0x40 MSTORE SWAP1 DUP2 PUSH1 0x0 DUP3 ADD PUSH1 0x0 SWAP1 SLOAD SWAP1 PUSH2 0x100 EXP SWAP1 DIV PUSH20 0xFFFFFFFFFFFFFFFFFFFFFFFFFFFFFFFFFFFFFFFF AND PUSH20 0xFFFFFFFFFFFFFFFFFFFFFFFFFFFFFFFFFFFFFFFF AND PUSH20 0xFFFFFFFFFFFFFFFFFFFFFFFFFFFFFFFFFFFFFFFF AND DUP2 MSTORE PUSH1 0x20 ADD PUSH1 0x1 DUP3 ADD PUSH1 0x0 SWAP1 SLOAD SWAP1 PUSH2 0x100 EXP SWAP1 DIV PUSH20 0xFFFFFFFFFFFFFFFFFFFFFFFFFFFFFFFFFFFFFFFF AND PUSH20 0xFFFFFFFFFFFFFFFFFFFFFFFFFFFFFFFFFFFFFFFF AND PUSH20 0xFFFFFFFFFFFFFFFFFFFFFFFFFFFFFFFFFFFFFFFF AND DUP2 MSTORE PUSH1 0x20 ADD PUSH1 0x2 DUP3 ADD PUSH1 0x0 SWAP1 SLOAD SWAP1 PUSH2 0x100 EXP SWAP1 DIV PUSH20 0xFFFFFFFFFFFFFFFFFFFFFFFFFFFFFFFFFFFFFFFF AND PUSH20 0xFFFFFFFFFFFFFFFFFFFFFFFFFFFFFFFFFFFFFFFF AND PUSH20 0xFFFFFFFFFFFFFFFFFFFFFFFFFFFFFFFFFFFFFFFF AND DUP2 MSTORE PUSH1 0x20 ADD PUSH1 0x3 DUP3 ADD PUSH1 0x0 SWAP1 SLOAD SWAP1 PUSH2 0x100 EXP SWAP1 DIV PUSH20 0xFFFFFFFFFFFFFFFFFFFFFFFFFFFFFFFFFFFFFFFF AND PUSH20 0xFFFFFFFFFFFFFFFFFFFFFFFFFFFFFFFFFFFFFFFF AND PUSH20 0xFFFFFFFFFFFFFFFFFFFFFFFFFFFFFFFFFFFFFFFF AND DUP2 MSTORE PUSH1 0x20 ADD PUSH1 0x4 DUP3 ADD SLOAD DUP2 MSTORE PUSH1 0x20 ADD PUSH1 0x5 DUP3 ADD SLOAD DUP2 MSTORE PUSH1 0x20 ADD PUSH1 0x6 DUP3 ADD SLOAD DUP2 MSTORE PUSH1 0x20 ADD PUSH1 0x7 DUP3 ADD SLOAD DUP2 MSTORE PUSH1 0x20 ADD PUSH1 0x8 DUP3 ADD SLOAD DUP2 MSTORE PUSH1 0x20 ADD PUSH1 0x9 DUP3 ADD PUSH1 0x0 SWAP1 SLOAD SWAP1 PUSH2 0x100 EXP SWAP1 DIV PUSH1 0xFF AND ISZERO ISZERO ISZERO ISZERO DUP2 MSTORE POP POP SWAP1 POP PUSH1 0x0 PUSH1 0x2 PUSH1 0x0 DUP6 DUP2 MSTORE PUSH1 0x20 ADD SWAP1 DUP2 MSTORE PUSH1 0x20 ADD PUSH1 0x0 KECCAK256 PUSH1 0x0 DUP4 PUSH2 0x100 ADD MLOAD DUP2 MSTORE PUSH1 0x20 ADD SWAP1 DUP2 MSTORE PUSH1 0x20 ADD PUSH1 0x0 KECCAK256 PUSH1 0x40 MLOAD DUP1 PUSH1 0x80 ADD PUSH1 0x40 MSTORE SWAP1 DUP2 PUSH1 0x0 DUP3 ADD SLOAD DUP2 MSTORE PUSH1 0x20 ADD PUSH1 0x1 DUP3 ADD SLOAD DUP2 MSTORE PUSH1 0x20 ADD PUSH1 0x2 DUP3 ADD PUSH1 0x0 SWAP1 SLOAD SWAP1 PUSH2 0x100 EXP SWAP1 DIV PUSH20 0xFFFFFFFFFFFFFFFFFFFFFFFFFFFFFFFFFFFFFFFF AND PUSH20 0xFFFFFFFFFFFFFFFFFFFFFFFFFFFFFFFFFFFFFFFF AND PUSH20 0xFFFFFFFFFFFFFFFFFFFFFFFFFFFFFFFFFFFFFFFF AND DUP2 MSTORE PUSH1 0x20 ADD PUSH1 0x3 DUP3 ADD SLOAD DUP2 MSTORE POP POP SWAP1 POP DUP2 PUSH1 0x20 ADD MLOAD PUSH20 0xFFFFFFFFFFFFFFFFFFFFFFFFFFFFFFFFFFFFFFFF AND PUSH4 0x23B872DD CALLER DUP4 PUSH1 0x40 ADD MLOAD PUSH2 0x13EE DUP9 PUSH2 0x1E03 JUMP JUMPDEST PUSH1 0x40 MLOAD DUP5 PUSH4 0xFFFFFFFF AND PUSH1 0xE0 SHL DUP2 MSTORE PUSH1 0x4 ADD PUSH2 0x140C SWAP4 SWAP3 SWAP2 SWAP1 PUSH2 0x2644 JUMP JUMPDEST PUSH1 0x20 PUSH1 0x40 MLOAD DUP1 DUP4 SUB DUP2 PUSH1 0x0 DUP8 GAS CALL ISZERO DUP1 ISZERO PUSH2 0x142B JUMPI RETURNDATASIZE PUSH1 0x0 DUP1 RETURNDATACOPY RETURNDATASIZE PUSH1 0x0 REVERT JUMPDEST POP POP POP POP PUSH1 0x40 MLOAD RETURNDATASIZE PUSH1 0x1F NOT PUSH1 0x1F DUP3 ADD AND DUP3 ADD DUP1 PUSH1 0x40 MSTORE POP DUP2 ADD SWAP1 PUSH2 0x144F SWAP2 SWAP1 PUSH2 0x29E7 JUMP JUMPDEST POP PUSH1 0x0 DUP3 PUSH1 0x60 ADD MLOAD SWAP1 POP DUP1 PUSH20 0xFFFFFFFFFFFFFFFFFFFFFFFFFFFFFFFFFFFFFFFF AND PUSH4 0x42842E0E ADDRESS CALLER DUP7 PUSH1 0x80 ADD MLOAD PUSH1 0x40 MLOAD DUP5 PUSH4 0xFFFFFFFF AND PUSH1 0xE0 SHL DUP2 MSTORE PUSH1 0x4 ADD PUSH2 0x149A SWAP4 SWAP3 SWAP2 SWAP1 PUSH2 0x2644 JUMP JUMPDEST PUSH1 0x0 PUSH1 0x40 MLOAD DUP1 DUP4 SUB DUP2 PUSH1 0x0 DUP8 DUP1 EXTCODESIZE ISZERO DUP1 ISZERO PUSH2 0x14B4 JUMPI PUSH1 0x0 DUP1 REVERT JUMPDEST POP GAS CALL ISZERO DUP1 ISZERO PUSH2 0x14C8 JUMPI RETURNDATASIZE PUSH1 0x0 DUP1 RETURNDATACOPY RETURNDATASIZE PUSH1 0x0 REVERT JUMPDEST POP POP POP POP POP POP POP POP POP JUMP JUMPDEST PUSH1 0x2 PUSH1 0x20 MSTORE DUP2 PUSH1 0x0 MSTORE PUSH1 0x40 PUSH1 0x0 KECCAK256 PUSH1 0x20 MSTORE DUP1 PUSH1 0x0 MSTORE PUSH1 0x40 PUSH1 0x0 KECCAK256 PUSH1 0x0 SWAP2 POP SWAP2 POP POP DUP1 PUSH1 0x0 ADD SLOAD SWAP1 DUP1 PUSH1 0x1 ADD SLOAD SWAP1 DUP1 PUSH1 0x2 ADD PUSH1 0x0 SWAP1 SLOAD SWAP1 PUSH2 0x100 EXP SWAP1 DIV PUSH20 0xFFFFFFFFFFFFFFFFFFFFFFFFFFFFFFFFFFFFFFFF AND SWAP1 DUP1 PUSH1 0x3 ADD SLOAD SWAP1 POP DUP5 JUMP JUMPDEST PUSH2 0x1539 DUP3 PUSH2 0x1DBE JUMP JUMPDEST PUSH2 0x1578 JUMPI PUSH1 0x40 MLOAD PUSH32 0x8C379A000000000000000000000000000000000000000000000000000000000 DUP2 MSTORE PUSH1 0x4 ADD PUSH2 0x156F SWAP1 PUSH2 0x26C7 JUMP JUMPDEST PUSH1 0x40 MLOAD DUP1 SWAP2 SUB SWAP1 REVERT JUMPDEST PUSH2 0x1581 DUP3 PUSH2 0x1DE0 JUMP JUMPDEST ISZERO PUSH2 0x15C1 JUMPI PUSH1 0x40 MLOAD PUSH32 0x8C379A000000000000000000000000000000000000000000000000000000000 DUP2 MSTORE PUSH1 0x4 ADD PUSH2 0x15B8 SWAP1 PUSH2 0x2733 JUMP JUMPDEST PUSH1 0x40 MLOAD DUP1 SWAP2 SUB SWAP1 REVERT JUMPDEST PUSH1 0x0 PUSH1 0x1 PUSH1 0x0 DUP5 DUP2 MSTORE PUSH1 0x20 ADD SWAP1 DUP2 MSTORE PUSH1 0x20 ADD PUSH1 0x0 KECCAK256 PUSH1 0x40 MLOAD DUP1 PUSH2 0x140 ADD PUSH1 0x40 MSTORE SWAP1 DUP2 PUSH1 0x0 DUP3 ADD PUSH1 0x0 SWAP1 SLOAD SWAP1 PUSH2 0x100 EXP SWAP1 DIV PUSH20 0xFFFFFFFFFFFFFFFFFFFFFFFFFFFFFFFFFFFFFFFF AND PUSH20 0xFFFFFFFFFFFFFFFFFFFFFFFFFFFFFFFFFFFFFFFF AND PUSH20 0xFFFFFFFFFFFFFFFFFFFFFFFFFFFFFFFFFFFFFFFF AND DUP2 MSTORE PUSH1 0x20 ADD PUSH1 0x1 DUP3 ADD PUSH1 0x0 SWAP1 SLOAD SWAP1 PUSH2 0x100 EXP SWAP1 DIV PUSH20 0xFFFFFFFFFFFFFFFFFFFFFFFFFFFFFFFFFFFFFFFF AND PUSH20 0xFFFFFFFFFFFFFFFFFFFFFFFFFFFFFFFFFFFFFFFF AND PUSH20 0xFFFFFFFFFFFFFFFFFFFFFFFFFFFFFFFFFFFFFFFF AND DUP2 MSTORE PUSH1 0x20 ADD PUSH1 0x2 DUP3 ADD PUSH1 0x0 SWAP1 SLOAD SWAP1 PUSH2 0x100 EXP SWAP1 DIV PUSH20 0xFFFFFFFFFFFFFFFFFFFFFFFFFFFFFFFFFFFFFFFF AND PUSH20 0xFFFFFFFFFFFFFFFFFFFFFFFFFFFFFFFFFFFFFFFF AND PUSH20 0xFFFFFFFFFFFFFFFFFFFFFFFFFFFFFFFFFFFFFFFF AND DUP2 MSTORE PUSH1 0x20 ADD PUSH1 0x3 DUP3 ADD PUSH1 0x0 SWAP1 SLOAD SWAP1 PUSH2 0x100 EXP SWAP1 DIV PUSH20 0xFFFFFFFFFFFFFFFFFFFFFFFFFFFFFFFFFFFFFFFF AND PUSH20 0xFFFFFFFFFFFFFFFFFFFFFFFFFFFFFFFFFFFFFFFF AND PUSH20 0xFFFFFFFFFFFFFFFFFFFFFFFFFFFFFFFFFFFFFFFF AND DUP2 MSTORE PUSH1 0x20 ADD PUSH1 0x4 DUP3 ADD SLOAD DUP2 MSTORE PUSH1 0x20 ADD PUSH1 0x5 DUP3 ADD SLOAD DUP2 MSTORE PUSH1 0x20 ADD PUSH1 0x6 DUP3 ADD SLOAD DUP2 MSTORE PUSH1 0x20 ADD PUSH1 0x7 DUP3 ADD SLOAD DUP2 MSTORE PUSH1 0x20 ADD PUSH1 0x8 DUP3 ADD SLOAD DUP2 MSTORE PUSH1 0x20 ADD PUSH1 0x9 DUP3 ADD PUSH1 0x0 SWAP1 SLOAD SWAP1 PUSH2 0x100 EXP SWAP1 DIV PUSH1 0xFF AND ISZERO ISZERO ISZERO ISZERO DUP2 MSTORE POP POP SWAP1 POP PUSH1 0x0 PUSH1 0x2 PUSH1 0x0 DUP6 DUP2 MSTORE PUSH1 0x20 ADD SWAP1 DUP2 MSTORE PUSH1 0x20 ADD PUSH1 0x0 KECCAK256 PUSH1 0x0 DUP4 PUSH2 0x100 ADD MLOAD DUP2 MSTORE PUSH1 0x20 ADD SWAP1 DUP2 MSTORE PUSH1 0x20 ADD PUSH1 0x0 KECCAK256 SWAP1 POP CALLER PUSH20 0xFFFFFFFFFFFFFFFFFFFFFFFFFFFFFFFFFFFFFFFF AND DUP2 PUSH1 0x2 ADD PUSH1 0x0 SWAP1 SLOAD SWAP1 PUSH2 0x100 EXP SWAP1 DIV PUSH20 0xFFFFFFFFFFFFFFFFFFFFFFFFFFFFFFFFFFFFFFFF AND PUSH20 0xFFFFFFFFFFFFFFFFFFFFFFFFFFFFFFFFFFFFFFFF AND EQ PUSH2 0x1848 JUMPI PUSH1 0x40 MLOAD PUSH32 0x8C379A000000000000000000000000000000000000000000000000000000000 DUP2 MSTORE PUSH1 0x4 ADD PUSH2 0x183F SWAP1 PUSH2 0x2A60 JUMP JUMPDEST PUSH1 0x40 MLOAD DUP1 SWAP2 SUB SWAP1 REVERT JUMPDEST DUP3 DUP2 PUSH1 0x2 ADD PUSH1 0x0 PUSH2 0x100 EXP DUP2 SLOAD DUP2 PUSH20 0xFFFFFFFFFFFFFFFFFFFFFFFFFFFFFFFFFFFFFFFF MUL NOT AND SWAP1 DUP4 PUSH20 0xFFFFFFFFFFFFFFFFFFFFFFFFFFFFFFFFFFFFFFFF AND MUL OR SWAP1 SSTORE POP POP POP POP POP JUMP JUMPDEST PUSH1 0x3 PUSH1 0x20 MSTORE DUP2 PUSH1 0x0 MSTORE PUSH1 0x40 PUSH1 0x0 KECCAK256 PUSH1 0x20 MSTORE DUP1 PUSH1 0x0 MSTORE PUSH1 0x40 PUSH1 0x0 KECCAK256 PUSH1 0x0 SWAP2 POP SWAP2 POP SWAP1 SLOAD SWAP1 PUSH2 0x100 EXP SWAP1 DIV PUSH1 0xFF AND DUP2 JUMP JUMPDEST TIMESTAMP DUP4 LT ISZERO PUSH2 0x1903 JUMPI PUSH1 0x40 MLOAD PUSH32 0x8C379A000000000000000000000000000000000000000000000000000000000 DUP2 MSTORE PUSH1 0x4 ADD PUSH2 0x18FA SWAP1 PUSH2 0x2ACC JUMP JUMPDEST PUSH1 0x40 MLOAD DUP1 SWAP2 SUB SWAP1 REVERT JUMPDEST DUP3 DUP3 GT PUSH2 0x1945 JUMPI PUSH1 0x40 MLOAD PUSH32 0x8C379A000000000000000000000000000000000000000000000000000000000 DUP2 MSTORE PUSH1 0x4 ADD PUSH2 0x193C SWAP1 PUSH2 0x2B38 JUMP JUMPDEST PUSH1 0x40 MLOAD DUP1 SWAP2 SUB SWAP1 REVERT JUMPDEST PUSH1 0x40 MLOAD DUP1 PUSH2 0x140 ADD PUSH1 0x40 MSTORE DUP1 DUP7 PUSH20 0xFFFFFFFFFFFFFFFFFFFFFFFFFFFFFFFFFFFFFFFF AND PUSH4 0x6352211E DUP8 PUSH1 0x40 MLOAD DUP3 PUSH4 0xFFFFFFFF AND PUSH1 0xE0 SHL DUP2 MSTORE PUSH1 0x4 ADD PUSH2 0x198A SWAP2 SWAP1 PUSH2 0x21D6 JUMP JUMPDEST PUSH1 0x20 PUSH1 0x40 MLOAD DUP1 DUP4 SUB DUP2 DUP7 GAS STATICCALL ISZERO DUP1 ISZERO PUSH2 0x19A7 JUMPI RETURNDATASIZE PUSH1 0x0 DUP1 RETURNDATACOPY RETURNDATASIZE PUSH1 0x0 REVERT JUMPDEST POP POP POP POP PUSH1 0x40 MLOAD RETURNDATASIZE PUSH1 0x1F NOT PUSH1 0x1F DUP3 ADD AND DUP3 ADD DUP1 PUSH1 0x40 MSTORE POP DUP2 ADD SWAP1 PUSH2 0x19CB SWAP2 SWAP1 PUSH2 0x2B6D JUMP JUMPDEST PUSH20 0xFFFFFFFFFFFFFFFFFFFFFFFFFFFFFFFFFFFFFFFF AND DUP2 MSTORE PUSH1 0x20 ADD DUP8 PUSH20 0xFFFFFFFFFFFFFFFFFFFFFFFFFFFFFFFFFFFFFFFF AND DUP2 MSTORE PUSH1 0x20 ADD DUP9 PUSH20 0xFFFFFFFFFFFFFFFFFFFFFFFFFFFFFFFFFFFFFFFF AND DUP2 MSTORE PUSH1 0x20 ADD DUP7 PUSH20 0xFFFFFFFFFFFFFFFFFFFFFFFFFFFFFFFFFFFFFFFF AND DUP2 MSTORE PUSH1 0x20 ADD DUP6 DUP2 MSTORE PUSH1 0x20 ADD DUP5 DUP2 MSTORE PUSH1 0x20 ADD DUP4 DUP2 MSTORE PUSH1 0x20 ADD PUSH1 0x0 DUP2 MSTORE PUSH1 0x20 ADD PUSH1 0x0 DUP2 MSTORE PUSH1 0x20 ADD DUP3 ISZERO ISZERO DUP2 MSTORE POP PUSH1 0x1 PUSH1 0x0 DUP1 SLOAD DUP2 MSTORE PUSH1 0x20 ADD SWAP1 DUP2 MSTORE PUSH1 0x20 ADD PUSH1 0x0 KECCAK256 PUSH1 0x0 DUP3 ADD MLOAD DUP2 PUSH1 0x0 ADD PUSH1 0x0 PUSH2 0x100 EXP DUP2 SLOAD DUP2 PUSH20 0xFFFFFFFFFFFFFFFFFFFFFFFFFFFFFFFFFFFFFFFF MUL NOT AND SWAP1 DUP4 PUSH20 0xFFFFFFFFFFFFFFFFFFFFFFFFFFFFFFFFFFFFFFFF AND MUL OR SWAP1 SSTORE POP PUSH1 0x20 DUP3 ADD MLOAD DUP2 PUSH1 0x1 ADD PUSH1 0x0 PUSH2 0x100 EXP DUP2 SLOAD DUP2 PUSH20 0xFFFFFFFFFFFFFFFFFFFFFFFFFFFFFFFFFFFFFFFF MUL NOT AND SWAP1 DUP4 PUSH20 0xFFFFFFFFFFFFFFFFFFFFFFFFFFFFFFFFFFFFFFFF AND MUL OR SWAP1 SSTORE POP PUSH1 0x40 DUP3 ADD MLOAD DUP2 PUSH1 0x2 ADD PUSH1 0x0 PUSH2 0x100 EXP DUP2 SLOAD DUP2 PUSH20 0xFFFFFFFFFFFFFFFFFFFFFFFFFFFFFFFFFFFFFFFF MUL NOT AND SWAP1 DUP4 PUSH20 0xFFFFFFFFFFFFFFFFFFFFFFFFFFFFFFFFFFFFFFFF AND MUL OR SWAP1 SSTORE POP PUSH1 0x60 DUP3 ADD MLOAD DUP2 PUSH1 0x3 ADD PUSH1 0x0 PUSH2 0x100 EXP DUP2 SLOAD DUP2 PUSH20 0xFFFFFFFFFFFFFFFFFFFFFFFFFFFFFFFFFFFFFFFF MUL NOT AND SWAP1 DUP4 PUSH20 0xFFFFFFFFFFFFFFFFFFFFFFFFFFFFFFFFFFFFFFFF AND MUL OR SWAP1 SSTORE POP PUSH1 0x80 DUP3 ADD MLOAD DUP2 PUSH1 0x4 ADD SSTORE PUSH1 0xA0 DUP3 ADD MLOAD DUP2 PUSH1 0x5 ADD SSTORE PUSH1 0xC0 DUP3 ADD MLOAD DUP2 PUSH1 0x6 ADD SSTORE PUSH1 0xE0 DUP3 ADD MLOAD DUP2 PUSH1 0x7 ADD SSTORE PUSH2 0x100 DUP3 ADD MLOAD DUP2 PUSH1 0x8 ADD SSTORE PUSH2 0x120 DUP3 ADD MLOAD DUP2 PUSH1 0x9 ADD PUSH1 0x0 PUSH2 0x100 EXP DUP2 SLOAD DUP2 PUSH1 0xFF MUL NOT AND SWAP1 DUP4 ISZERO ISZERO MUL OR SWAP1 SSTORE POP SWAP1 POP POP TIMESTAMP PUSH1 0x2 PUSH1 0x0 DUP1 SLOAD DUP2 MSTORE PUSH1 0x20 ADD SWAP1 DUP2 MSTORE PUSH1 0x20 ADD PUSH1 0x0 KECCAK256 PUSH1 0x0 DUP1 DUP2 MSTORE PUSH1 0x20 ADD SWAP1 DUP2 MSTORE PUSH1 0x20 ADD PUSH1 0x0 KECCAK256 PUSH1 0x0 ADD DUP2 SWAP1 SSTORE POP PUSH1 0x0 SLOAD PUSH32 0xEF8B2952C43462575E82711D0CC91169720A4589A9FA533D173E022437F5405E DUP7 DUP7 PUSH1 0x40 MLOAD PUSH2 0x1C48 SWAP3 SWAP2 SWAP1 PUSH2 0x2B9A JUMP JUMPDEST PUSH1 0x40 MLOAD DUP1 SWAP2 SUB SWAP1 LOG2 PUSH1 0x0 DUP1 DUP2 SLOAD DUP1 SWAP3 SWAP2 SWAP1 PUSH2 0x1C62 SWAP1 PUSH2 0x2BC3 JUMP JUMPDEST SWAP2 SWAP1 POP SSTORE POP POP POP POP POP POP POP POP JUMP JUMPDEST PUSH1 0x1 PUSH1 0x20 MSTORE DUP1 PUSH1 0x0 MSTORE PUSH1 0x40 PUSH1 0x0 KECCAK256 PUSH1 0x0 SWAP2 POP SWAP1 POP DUP1 PUSH1 0x0 ADD PUSH1 0x0 SWAP1 SLOAD SWAP1 PUSH2 0x100 EXP SWAP1 DIV PUSH20 0xFFFFFFFFFFFFFFFFFFFFFFFFFFFFFFFFFFFFFFFF AND SWAP1 DUP1 PUSH1 0x1 ADD PUSH1 0x0 SWAP1 SLOAD SWAP1 PUSH2 0x100 EXP SWAP1 DIV PUSH20 0xFFFFFFFFFFFFFFFFFFFFFFFFFFFFFFFFFFFFFFFF AND SWAP1 DUP1 PUSH1 0x2 ADD PUSH1 0x0 SWAP1 SLOAD SWAP1 PUSH2 0x100 EXP SWAP1 DIV PUSH20 0xFFFFFFFFFFFFFFFFFFFFFFFFFFFFFFFFFFFFFFFF AND SWAP1 DUP1 PUSH1 0x3 ADD PUSH1 0x0 SWAP1 SLOAD SWAP1 PUSH2 0x100 EXP SWAP1 DIV PUSH20 0xFFFFFFFFFFFFFFFFFFFFFFFFFFFFFFFFFFFFFFFF AND SWAP1 DUP1 PUSH1 0x4 ADD SLOAD SWAP1 DUP1 PUSH1 0x5 ADD SLOAD SWAP1 DUP1 PUSH1 0x6 ADD SLOAD SWAP1 DUP1 PUSH1 0x7 ADD SLOAD SWAP1 DUP1 PUSH1 0x8 ADD SLOAD SWAP1 DUP1 PUSH1 0x9 ADD PUSH1 0x0 SWAP1 SLOAD SWAP1 PUSH2 0x100 EXP SWAP1 DIV PUSH1 0xFF AND SWAP1 POP DUP11 JUMP JUMPDEST DUP1 PUSH1 0x3 PUSH1 0x0 DUP6 DUP2 MSTORE PUSH1 0x20 ADD SWAP1 DUP2 MSTORE PUSH1 0x20 ADD PUSH1 0x0 KECCAK256 PUSH1 0x0 DUP5 PUSH20 0xFFFFFFFFFFFFFFFFFFFFFFFFFFFFFFFFFFFFFFFF AND PUSH20 0xFFFFFFFFFFFFFFFFFFFFFFFFFFFFFFFFFFFFFFFF AND DUP2 MSTORE PUSH1 0x20 ADD SWAP1 DUP2 MSTORE PUSH1 0x20 ADD PUSH1 0x0 KECCAK256 PUSH1 0x0 PUSH2 0x100 EXP DUP2 SLOAD DUP2 PUSH1 0xFF MUL NOT AND SWAP1 DUP4 ISZERO ISZERO MUL OR SWAP1 SSTORE POP POP POP POP JUMP JUMPDEST PUSH1 0x0 TIMESTAMP PUSH1 0x1 PUSH1 0x0 DUP5 DUP2 MSTORE PUSH1 0x20 ADD SWAP1 DUP2 MSTORE PUSH1 0x20 ADD PUSH1 0x0 KECCAK256 PUSH1 0x5 ADD SLOAD LT SWAP1 POP SWAP2 SWAP1 POP JUMP JUMPDEST PUSH1 0x0 TIMESTAMP PUSH1 0x1 PUSH1 0x0 DUP5 DUP2 MSTORE PUSH1 0x20 ADD SWAP1 DUP2 MSTORE PUSH1 0x20 ADD PUSH1 0x0 KECCAK256 PUSH1 0x6 ADD SLOAD GT ISZERO SWAP1 POP SWAP2 SWAP1 POP JUMP JUMPDEST PUSH1 0x0 DUP1 PUSH1 0x1 PUSH1 0x0 DUP5 DUP2 MSTORE PUSH1 0x20 ADD SWAP1 DUP2 MSTORE PUSH1 0x20 ADD PUSH1 0x0 KECCAK256 PUSH1 0x40 MLOAD DUP1 PUSH2 0x140 ADD PUSH1 0x40 MSTORE SWAP1 DUP2 PUSH1 0x0 DUP3 ADD PUSH1 0x0 SWAP1 SLOAD SWAP1 PUSH2 0x100 EXP SWAP1 DIV PUSH20 0xFFFFFFFFFFFFFFFFFFFFFFFFFFFFFFFFFFFFFFFF AND PUSH20 0xFFFFFFFFFFFFFFFFFFFFFFFFFFFFFFFFFFFFFFFF AND PUSH20 0xFFFFFFFFFFFFFFFFFFFFFFFFFFFFFFFFFFFFFFFF AND DUP2 MSTORE PUSH1 0x20 ADD PUSH1 0x1 DUP3 ADD PUSH1 0x0 SWAP1 SLOAD SWAP1 PUSH2 0x100 EXP SWAP1 DIV PUSH20 0xFFFFFFFFFFFFFFFFFFFFFFFFFFFFFFFFFFFFFFFF AND PUSH20 0xFFFFFFFFFFFFFFFFFFFFFFFFFFFFFFFFFFFFFFFF AND PUSH20 0xFFFFFFFFFFFFFFFFFFFFFFFFFFFFFFFFFFFFFFFF AND DUP2 MSTORE PUSH1 0x20 ADD PUSH1 0x2 DUP3 ADD PUSH1 0x0 SWAP1 SLOAD SWAP1 PUSH2 0x100 EXP SWAP1 DIV PUSH20 0xFFFFFFFFFFFFFFFFFFFFFFFFFFFFFFFFFFFFFFFF AND PUSH20 0xFFFFFFFFFFFFFFFFFFFFFFFFFFFFFFFFFFFFFFFF AND PUSH20 0xFFFFFFFFFFFFFFFFFFFFFFFFFFFFFFFFFFFFFFFF AND DUP2 MSTORE PUSH1 0x20 ADD PUSH1 0x3 DUP3 ADD PUSH1 0x0 SWAP1 SLOAD SWAP1 PUSH2 0x100 EXP SWAP1 DIV PUSH20 0xFFFFFFFFFFFFFFFFFFFFFFFFFFFFFFFFFFFFFFFF AND PUSH20 0xFFFFFFFFFFFFFFFFFFFFFFFFFFFFFFFFFFFFFFFF AND PUSH20 0xFFFFFFFFFFFFFFFFFFFFFFFFFFFFFFFFFFFFFFFF AND DUP2 MSTORE PUSH1 0x20 ADD PUSH1 0x4 DUP3 ADD SLOAD DUP2 MSTORE PUSH1 0x20 ADD PUSH1 0x5 DUP3 ADD SLOAD DUP2 MSTORE PUSH1 0x20 ADD PUSH1 0x6 DUP3 ADD SLOAD DUP2 MSTORE PUSH1 0x20 ADD PUSH1 0x7 DUP3 ADD SLOAD DUP2 MSTORE PUSH1 0x20 ADD PUSH1 0x8 DUP3 ADD SLOAD DUP2 MSTORE PUSH1 0x20 ADD PUSH1 0x9 DUP3 ADD PUSH1 0x0 SWAP1 SLOAD SWAP1 PUSH2 0x100 EXP SWAP1 DIV PUSH1 0xFF AND ISZERO ISZERO ISZERO ISZERO DUP2 MSTORE POP POP SWAP1 POP PUSH1 0x0 PUSH1 0x2 PUSH1 0x0 DUP6 DUP2 MSTORE PUSH1 0x20 ADD SWAP1 DUP2 MSTORE PUSH1 0x20 ADD PUSH1 0x0 KECCAK256 PUSH1 0x0 DUP4 PUSH2 0x100 ADD MLOAD DUP2 MSTORE PUSH1 0x20 ADD SWAP1 DUP2 MSTORE PUSH1 0x20 ADD PUSH1 0x0 KECCAK256 PUSH1 0x40 MLOAD DUP1 PUSH1 0x80 ADD PUSH1 0x40 MSTORE SWAP1 DUP2 PUSH1 0x0 DUP3 ADD SLOAD DUP2 MSTORE PUSH1 0x20 ADD PUSH1 0x1 DUP3 ADD SLOAD DUP2 MSTORE PUSH1 0x20 ADD PUSH1 0x2 DUP3 ADD PUSH1 0x0 SWAP1 SLOAD SWAP1 PUSH2 0x100 EXP SWAP1 DIV PUSH20 0xFFFFFFFFFFFFFFFFFFFFFFFFFFFFFFFFFFFFFFFF AND PUSH20 0xFFFFFFFFFFFFFFFFFFFFFFFFFFFFFFFFFFFFFFFF AND PUSH20 0xFFFFFFFFFFFFFFFFFFFFFFFFFFFFFFFFFFFFFFFF AND DUP2 MSTORE PUSH1 0x20 ADD PUSH1 0x3 DUP3 ADD SLOAD DUP2 MSTORE POP POP SWAP1 POP PUSH1 0x0 PUSH2 0x2083 DUP6 PUSH2 0x1DE0 JUMP JUMPDEST ISZERO PUSH2 0x20A3 JUMPI DUP3 PUSH1 0xC0 ADD MLOAD DUP3 PUSH1 0x0 ADD MLOAD PUSH2 0x209C SWAP2 SWAP1 PUSH2 0x2C0B JUMP JUMPDEST SWAP1 POP PUSH2 0x20B6 JUMP JUMPDEST TIMESTAMP DUP3 PUSH1 0x0 ADD MLOAD PUSH2 0x20B3 SWAP2 SWAP1 PUSH2 0x2C0B JUMP JUMPDEST SWAP1 POP JUMPDEST PUSH4 0x1E13380 DUP2 PUSH8 0xDE0B6B3A7640000 DUP6 PUSH1 0xE0 ADD MLOAD DUP6 PUSH1 0x20 ADD MLOAD PUSH2 0x20D9 SWAP2 SWAP1 PUSH2 0x2C3F JUMP JUMPDEST PUSH2 0x20E3 SWAP2 SWAP1 PUSH2 0x2CC8 JUMP JUMPDEST PUSH2 0x20ED SWAP2 SWAP1 PUSH2 0x2C3F JUMP JUMPDEST PUSH2 0x20F7 SWAP2 SWAP1 PUSH2 0x2CC8 JUMP JUMPDEST DUP3 PUSH1 0x20 ADD MLOAD PUSH2 0x2106 SWAP2 SWAP1 PUSH2 0x285A JUMP JUMPDEST SWAP4 POP POP POP POP SWAP2 SWAP1 POP JUMP JUMPDEST PUSH1 0x40 MLOAD DUP1 PUSH2 0x140 ADD PUSH1 0x40 MSTORE DUP1 PUSH1 0x0 PUSH20 0xFFFFFFFFFFFFFFFFFFFFFFFFFFFFFFFFFFFFFFFF AND DUP2 MSTORE PUSH1 0x20 ADD PUSH1 0x0 PUSH20 0xFFFFFFFFFFFFFFFFFFFFFFFFFFFFFFFFFFFFFFFF AND DUP2 MSTORE PUSH1 0x20 ADD PUSH1 0x0 PUSH20 0xFFFFFFFFFFFFFFFFFFFFFFFFFFFFFFFFFFFFFFFF AND DUP2 MSTORE PUSH1 0x20 ADD PUSH1 0x0 PUSH20 0xFFFFFFFFFFFFFFFFFFFFFFFFFFFFFFFFFFFFFFFF AND DUP2 MSTORE PUSH1 0x20 ADD PUSH1 0x0 DUP2 MSTORE PUSH1 0x20 ADD PUSH1 0x0 DUP2 MSTORE PUSH1 0x20 ADD PUSH1 0x0 DUP2 MSTORE PUSH1 0x20 ADD PUSH1 0x0 DUP2 MSTORE PUSH1 0x20 ADD PUSH1 0x0 DUP2 MSTORE PUSH1 0x20 ADD PUSH1 0x0 ISZERO ISZERO DUP2 MSTORE POP SWAP1 JUMP JUMPDEST PUSH1 0x0 DUP2 SWAP1 POP SWAP2 SWAP1 POP JUMP JUMPDEST PUSH2 0x21D0 DUP2 PUSH2 0x21BD JUMP JUMPDEST DUP3 MSTORE POP POP JUMP JUMPDEST PUSH1 0x0 PUSH1 0x20 DUP3 ADD SWAP1 POP PUSH2 0x21EB PUSH1 0x0 DUP4 ADD DUP5 PUSH2 0x21C7 JUMP JUMPDEST SWAP3 SWAP2 POP POP JUMP JUMPDEST PUSH1 0x0 DUP1 REVERT JUMPDEST PUSH2 0x21FF DUP2 PUSH2 0x21BD JUMP JUMPDEST DUP2 EQ PUSH2 0x220A JUMPI PUSH1 0x0 DUP1 REVERT JUMPDEST POP JUMP JUMPDEST PUSH1 0x0 DUP2 CALLDATALOAD SWAP1 POP PUSH2 0x221C DUP2 PUSH2 0x21F6 JUMP JUMPDEST SWAP3 SWAP2 POP POP JUMP JUMPDEST PUSH1 0x0 PUSH1 0x20 DUP3 DUP5 SUB SLT ISZERO PUSH2 0x2238 JUMPI PUSH2 0x2237 PUSH2 0x21F1 JUMP JUMPDEST JUMPDEST PUSH1 0x0 PUSH2 0x2246 DUP5 DUP3 DUP6 ADD PUSH2 0x220D JUMP JUMPDEST SWAP2 POP POP SWAP3 SWAP2 POP POP JUMP JUMPDEST PUSH1 0x0 DUP1 PUSH1 0x0 PUSH1 0x60 DUP5 DUP7 SUB SLT ISZERO PUSH2 0x2268 JUMPI PUSH2 0x2267 PUSH2 0x21F1 JUMP JUMPDEST JUMPDEST PUSH1 0x0 PUSH2 0x2276 DUP7 DUP3 DUP8 ADD PUSH2 0x220D JUMP JUMPDEST SWAP4 POP POP PUSH1 0x20 PUSH2 0x2287 DUP7 DUP3 DUP8 ADD PUSH2 0x220D JUMP JUMPDEST SWAP3 POP POP PUSH1 0x40 PUSH2 0x2298 DUP7 DUP3 DUP8 ADD PUSH2 0x220D JUMP JUMPDEST SWAP2 POP POP SWAP3 POP SWAP3 POP SWAP3 JUMP JUMPDEST PUSH1 0x0 DUP1 PUSH1 0x40 DUP4 DUP6 SUB SLT ISZERO PUSH2 0x22B9 JUMPI PUSH2 0x22B8 PUSH2 0x21F1 JUMP JUMPDEST JUMPDEST PUSH1 0x0 PUSH2 0x22C7 DUP6 DUP3 DUP7 ADD PUSH2 0x220D JUMP JUMPDEST SWAP3 POP POP PUSH1 0x20 PUSH2 0x22D8 DUP6 DUP3 DUP7 ADD PUSH2 0x220D JUMP JUMPDEST SWAP2 POP POP SWAP3 POP SWAP3 SWAP1 POP JUMP JUMPDEST PUSH1 0x0 PUSH20 0xFFFFFFFFFFFFFFFFFFFFFFFFFFFFFFFFFFFFFFFF DUP3 AND SWAP1 POP SWAP2 SWAP1 POP JUMP JUMPDEST PUSH1 0x0 PUSH2 0x230D DUP3 PUSH2 0x22E2 JUMP JUMPDEST SWAP1 POP SWAP2 SWAP1 POP JUMP JUMPDEST PUSH2 0x231D DUP2 PUSH2 0x2302 JUMP JUMPDEST DUP3 MSTORE POP POP JUMP JUMPDEST PUSH1 0x0 PUSH1 0x80 DUP3 ADD SWAP1 POP PUSH2 0x2338 PUSH1 0x0 DUP4 ADD DUP8 PUSH2 0x21C7 JUMP JUMPDEST PUSH2 0x2345 PUSH1 0x20 DUP4 ADD DUP7 PUSH2 0x21C7 JUMP JUMPDEST PUSH2 0x2352 PUSH1 0x40 DUP4 ADD DUP6 PUSH2 0x2314 JUMP JUMPDEST PUSH2 0x235F PUSH1 0x60 DUP4 ADD DUP5 PUSH2 0x21C7 JUMP JUMPDEST SWAP6 SWAP5 POP POP POP POP POP JUMP JUMPDEST PUSH2 0x2371 DUP2 PUSH2 0x2302 JUMP JUMPDEST DUP2 EQ PUSH2 0x237C JUMPI PUSH1 0x0 DUP1 REVERT JUMPDEST POP JUMP JUMPDEST PUSH1 0x0 DUP2 CALLDATALOAD SWAP1 POP PUSH2 0x238E DUP2 PUSH2 0x2368 JUMP JUMPDEST SWAP3 SWAP2 POP POP JUMP JUMPDEST PUSH1 0x0 DUP1 PUSH1 0x40 DUP4 DUP6 SUB SLT ISZERO PUSH2 0x23AB JUMPI PUSH2 0x23AA PUSH2 0x21F1 JUMP JUMPDEST JUMPDEST PUSH1 0x0 PUSH2 0x23B9 DUP6 DUP3 DUP7 ADD PUSH2 0x220D JUMP JUMPDEST SWAP3 POP POP PUSH1 0x20 PUSH2 0x23CA DUP6 DUP3 DUP7 ADD PUSH2 0x237F JUMP JUMPDEST SWAP2 POP POP SWAP3 POP SWAP3 SWAP1 POP JUMP JUMPDEST PUSH1 0x0 DUP2 ISZERO ISZERO SWAP1 POP SWAP2 SWAP1 POP JUMP JUMPDEST PUSH2 0x23E9 DUP2 PUSH2 0x23D4 JUMP JUMPDEST DUP3 MSTORE POP POP JUMP JUMPDEST PUSH1 0x0 PUSH1 0x20 DUP3 ADD SWAP1 POP PUSH2 0x2404 PUSH1 0x0 DUP4 ADD DUP5 PUSH2 0x23E0 JUMP JUMPDEST SWAP3 SWAP2 POP POP JUMP JUMPDEST PUSH2 0x2413 DUP2 PUSH2 0x23D4 JUMP JUMPDEST DUP2 EQ PUSH2 0x241E JUMPI PUSH1 0x0 DUP1 REVERT JUMPDEST POP JUMP JUMPDEST PUSH1 0x0 DUP2 CALLDATALOAD SWAP1 POP PUSH2 0x2430 DUP2 PUSH2 0x240A JUMP JUMPDEST SWAP3 SWAP2 POP POP JUMP JUMPDEST PUSH1 0x0 DUP1 PUSH1 0x0 DUP1 PUSH1 0x0 DUP1 PUSH1 0x0 PUSH1 0xE0 DUP9 DUP11 SUB SLT ISZERO PUSH2 0x2455 JUMPI PUSH2 0x2454 PUSH2 0x21F1 JUMP JUMPDEST JUMPDEST PUSH1 0x0 PUSH2 0x2463 DUP11 DUP3 DUP12 ADD PUSH2 0x237F JUMP JUMPDEST SWAP8 POP POP PUSH1 0x20 PUSH2 0x2474 DUP11 DUP3 DUP12 ADD PUSH2 0x237F JUMP JUMPDEST SWAP7 POP POP PUSH1 0x40 PUSH2 0x2485 DUP11 DUP3 DUP12 ADD PUSH2 0x237F JUMP JUMPDEST SWAP6 POP POP PUSH1 0x60 PUSH2 0x2496 DUP11 DUP3 DUP12 ADD PUSH2 0x220D JUMP JUMPDEST SWAP5 POP POP PUSH1 0x80 PUSH2 0x24A7 DUP11 DUP3 DUP12 ADD PUSH2 0x220D JUMP JUMPDEST SWAP4 POP POP PUSH1 0xA0 PUSH2 0x24B8 DUP11 DUP3 DUP12 ADD PUSH2 0x220D JUMP JUMPDEST SWAP3 POP POP PUSH1 0xC0 PUSH2 0x24C9 DUP11 DUP3 DUP12 ADD PUSH2 0x2421 JUMP JUMPDEST SWAP2 POP POP SWAP3 SWAP6 SWAP9 SWAP2 SWAP5 SWAP8 POP SWAP3 SWAP6 POP JUMP JUMPDEST PUSH1 0x0 PUSH2 0x140 DUP3 ADD SWAP1 POP PUSH2 0x24EE PUSH1 0x0 DUP4 ADD DUP14 PUSH2 0x2314 JUMP JUMPDEST PUSH2 0x24FB PUSH1 0x20 DUP4 ADD DUP13 PUSH2 0x2314 JUMP JUMPDEST PUSH2 0x2508 PUSH1 0x40 DUP4 ADD DUP12 PUSH2 0x2314 JUMP JUMPDEST PUSH2 0x2515 PUSH1 0x60 DUP4 ADD DUP11 PUSH2 0x2314 JUMP JUMPDEST PUSH2 0x2522 PUSH1 0x80 DUP4 ADD DUP10 PUSH2 0x21C7 JUMP JUMPDEST PUSH2 0x252F PUSH1 0xA0 DUP4 ADD DUP9 PUSH2 0x21C7 JUMP JUMPDEST PUSH2 0x253C PUSH1 0xC0 DUP4 ADD DUP8 PUSH2 0x21C7 JUMP JUMPDEST PUSH2 0x2549 PUSH1 0xE0 DUP4 ADD DUP7 PUSH2 0x21C7 JUMP JUMPDEST PUSH2 0x2557 PUSH2 0x100 DUP4 ADD DUP6 PUSH2 0x21C7 JUMP JUMPDEST PUSH2 0x2565 PUSH2 0x120 DUP4 ADD DUP5 PUSH2 0x23E0 JUMP JUMPDEST SWAP12 SWAP11 POP POP POP POP POP POP POP POP POP POP POP JUMP JUMPDEST PUSH1 0x0 DUP1 PUSH1 0x0 PUSH1 0x60 DUP5 DUP7 SUB SLT ISZERO PUSH2 0x258D JUMPI PUSH2 0x258C PUSH2 0x21F1 JUMP JUMPDEST JUMPDEST PUSH1 0x0 PUSH2 0x259B DUP7 DUP3 DUP8 ADD PUSH2 0x220D JUMP JUMPDEST SWAP4 POP POP PUSH1 0x20 PUSH2 0x25AC DUP7 DUP3 DUP8 ADD PUSH2 0x237F JUMP JUMPDEST SWAP3 POP POP PUSH1 0x40 PUSH2 0x25BD DUP7 DUP3 DUP8 ADD PUSH2 0x2421 JUMP JUMPDEST SWAP2 POP POP SWAP3 POP SWAP3 POP SWAP3 JUMP JUMPDEST PUSH1 0x0 DUP3 DUP3 MSTORE PUSH1 0x20 DUP3 ADD SWAP1 POP SWAP3 SWAP2 POP POP JUMP JUMPDEST PUSH32 0x4C414E3A206E6F74206F776E6572000000000000000000000000000000000000 PUSH1 0x0 DUP3 ADD MSTORE POP JUMP JUMPDEST PUSH1 0x0 PUSH2 0x260E PUSH1 0xE DUP4 PUSH2 0x25C7 JUMP JUMPDEST SWAP2 POP PUSH2 0x2619 DUP3 PUSH2 0x25D8 JUMP JUMPDEST PUSH1 0x20 DUP3 ADD SWAP1 POP SWAP2 SWAP1 POP JUMP JUMPDEST PUSH1 0x0 PUSH1 0x20 DUP3 ADD SWAP1 POP DUP2 DUP2 SUB PUSH1 0x0 DUP4 ADD MSTORE PUSH2 0x263D DUP2 PUSH2 0x2601 JUMP JUMPDEST SWAP1 POP SWAP2 SWAP1 POP JUMP JUMPDEST PUSH1 0x0 PUSH1 0x60 DUP3 ADD SWAP1 POP PUSH2 0x2659 PUSH1 0x0 DUP4 ADD DUP7 PUSH2 0x2314 JUMP JUMPDEST PUSH2 0x2666 PUSH1 0x20 DUP4 ADD DUP6 PUSH2 0x2314 JUMP JUMPDEST PUSH2 0x2673 PUSH1 0x40 DUP4 ADD DUP5 PUSH2 0x21C7 JUMP JUMPDEST SWAP5 SWAP4 POP POP POP POP JUMP JUMPDEST PUSH32 0x4C414E3A206E6F74207374617274656400000000000000000000000000000000 PUSH1 0x0 DUP3 ADD MSTORE POP JUMP JUMPDEST PUSH1 0x0 PUSH2 0x26B1 PUSH1 0x10 DUP4 PUSH2 0x25C7 JUMP JUMPDEST SWAP2 POP PUSH2 0x26BC DUP3 PUSH2 0x267B JUMP JUMPDEST PUSH1 0x20 DUP3 ADD SWAP1 POP SWAP2 SWAP1 POP JUMP JUMPDEST PUSH1 0x0 PUSH1 0x20 DUP3 ADD SWAP1 POP DUP2 DUP2 SUB PUSH1 0x0 DUP4 ADD MSTORE PUSH2 0x26E0 DUP2 PUSH2 0x26A4 JUMP JUMPDEST SWAP1 POP SWAP2 SWAP1 POP JUMP JUMPDEST PUSH32 0x4C414E3A20616C726561647920656E6465640000000000000000000000000000 PUSH1 0x0 DUP3 ADD MSTORE POP JUMP JUMPDEST PUSH1 0x0 PUSH2 0x271D PUSH1 0x12 DUP4 PUSH2 0x25C7 JUMP JUMPDEST SWAP2 POP PUSH2 0x2728 DUP3 PUSH2 0x26E7 JUMP JUMPDEST PUSH1 0x20 DUP3 ADD SWAP1 POP SWAP2 SWAP1 POP JUMP JUMPDEST PUSH1 0x0 PUSH1 0x20 DUP3 ADD SWAP1 POP DUP2 DUP2 SUB PUSH1 0x0 DUP4 ADD MSTORE PUSH2 0x274C DUP2 PUSH2 0x2710 JUMP JUMPDEST SWAP1 POP SWAP2 SWAP1 POP JUMP JUMPDEST PUSH32 0x4C414E3A204E6F742057686974656C6973746564000000000000000000000000 PUSH1 0x0 DUP3 ADD MSTORE POP JUMP JUMPDEST PUSH1 0x0 PUSH2 0x2789 PUSH1 0x14 DUP4 PUSH2 0x25C7 JUMP JUMPDEST SWAP2 POP PUSH2 0x2794 DUP3 PUSH2 0x2753 JUMP JUMPDEST PUSH1 0x20 DUP3 ADD SWAP1 POP SWAP2 SWAP1 POP JUMP JUMPDEST PUSH1 0x0 PUSH1 0x20 DUP3 ADD SWAP1 POP DUP2 DUP2 SUB PUSH1 0x0 DUP4 ADD MSTORE PUSH2 0x27B8 DUP2 PUSH2 0x277C JUMP JUMPDEST SWAP1 POP SWAP2 SWAP1 POP JUMP JUMPDEST PUSH32 0x4C414E3A20626964206E6F742068696768657200000000000000000000000000 PUSH1 0x0 DUP3 ADD MSTORE POP JUMP JUMPDEST PUSH1 0x0 PUSH2 0x27F5 PUSH1 0x13 DUP4 PUSH2 0x25C7 JUMP JUMPDEST SWAP2 POP PUSH2 0x2800 DUP3 PUSH2 0x27BF JUMP JUMPDEST PUSH1 0x20 DUP3 ADD SWAP1 POP SWAP2 SWAP1 POP JUMP JUMPDEST PUSH1 0x0 PUSH1 0x20 DUP3 ADD SWAP1 POP DUP2 DUP2 SUB PUSH1 0x0 DUP4 ADD MSTORE PUSH2 0x2824 DUP2 PUSH2 0x27E8 JUMP JUMPDEST SWAP1 POP SWAP2 SWAP1 POP JUMP JUMPDEST PUSH32 0x4E487B7100000000000000000000000000000000000000000000000000000000 PUSH1 0x0 MSTORE PUSH1 0x11 PUSH1 0x4 MSTORE PUSH1 0x24 PUSH1 0x0 REVERT JUMPDEST PUSH1 0x0 PUSH2 0x2865 DUP3 PUSH2 0x21BD JUMP JUMPDEST SWAP2 POP PUSH2 0x2870 DUP4 PUSH2 0x21BD JUMP JUMPDEST SWAP3 POP DUP3 DUP3 ADD SWAP1 POP DUP1 DUP3 GT ISZERO PUSH2 0x2888 JUMPI PUSH2 0x2887 PUSH2 0x282B JUMP JUMPDEST JUMPDEST SWAP3 SWAP2 POP POP JUMP JUMPDEST PUSH32 0x4C414E3A20616C72656164792073746172746564000000000000000000000000 PUSH1 0x0 DUP3 ADD MSTORE POP JUMP JUMPDEST PUSH1 0x0 PUSH2 0x28C4 PUSH1 0x14 DUP4 PUSH2 0x25C7 JUMP JUMPDEST SWAP2 POP PUSH2 0x28CF DUP3 PUSH2 0x288E JUMP JUMPDEST PUSH1 0x20 DUP3 ADD SWAP1 POP SWAP2 SWAP1 POP JUMP JUMPDEST PUSH1 0x0 PUSH1 0x20 DUP3 ADD SWAP1 POP DUP2 DUP2 SUB PUSH1 0x0 DUP4 ADD MSTORE PUSH2 0x28F3 DUP2 PUSH2 0x28B7 JUMP JUMPDEST SWAP1 POP SWAP2 SWAP1 POP JUMP JUMPDEST PUSH32 0x4C414E3A206C6F616E206E6F7420656E64656400000000000000000000000000 PUSH1 0x0 DUP3 ADD MSTORE POP JUMP JUMPDEST PUSH1 0x0 PUSH2 0x2930 PUSH1 0x13 DUP4 PUSH2 0x25C7 JUMP JUMPDEST SWAP2 POP PUSH2 0x293B DUP3 PUSH2 0x28FA JUMP JUMPDEST PUSH1 0x20 DUP3 ADD SWAP1 POP SWAP2 SWAP1 POP JUMP JUMPDEST PUSH1 0x0 PUSH1 0x20 DUP3 ADD SWAP1 POP DUP2 DUP2 SUB PUSH1 0x0 DUP4 ADD MSTORE PUSH2 0x295F DUP2 PUSH2 0x2923 JUMP JUMPDEST SWAP1 POP SWAP2 SWAP1 POP JUMP JUMPDEST PUSH32 0x4C414E3A206E6F74206C61746573742062696464657200000000000000000000 PUSH1 0x0 DUP3 ADD MSTORE POP JUMP JUMPDEST PUSH1 0x0 PUSH2 0x299C PUSH1 0x16 DUP4 PUSH2 0x25C7 JUMP JUMPDEST SWAP2 POP PUSH2 0x29A7 DUP3 PUSH2 0x2966 JUMP JUMPDEST PUSH1 0x20 DUP3 ADD SWAP1 POP SWAP2 SWAP1 POP JUMP JUMPDEST PUSH1 0x0 PUSH1 0x20 DUP3 ADD SWAP1 POP DUP2 DUP2 SUB PUSH1 0x0 DUP4 ADD MSTORE PUSH2 0x29CB DUP2 PUSH2 0x298F JUMP JUMPDEST SWAP1 POP SWAP2 SWAP1 POP JUMP JUMPDEST PUSH1 0x0 DUP2 MLOAD SWAP1 POP PUSH2 0x29E1 DUP2 PUSH2 0x240A JUMP JUMPDEST SWAP3 SWAP2 POP POP JUMP JUMPDEST PUSH1 0x0 PUSH1 0x20 DUP3 DUP5 SUB SLT ISZERO PUSH2 0x29FD JUMPI PUSH2 0x29FC PUSH2 0x21F1 JUMP JUMPDEST JUMPDEST PUSH1 0x0 PUSH2 0x2A0B DUP5 DUP3 DUP6 ADD PUSH2 0x29D2 JUMP JUMPDEST SWAP2 POP POP SWAP3 SWAP2 POP POP JUMP JUMPDEST PUSH32 0x4C414E3A204E6F7420746865206C617465737420626964646572000000000000 PUSH1 0x0 DUP3 ADD MSTORE POP JUMP JUMPDEST PUSH1 0x0 PUSH2 0x2A4A PUSH1 0x1A DUP4 PUSH2 0x25C7 JUMP JUMPDEST SWAP2 POP PUSH2 0x2A55 DUP3 PUSH2 0x2A14 JUMP JUMPDEST PUSH1 0x20 DUP3 ADD SWAP1 POP SWAP2 SWAP1 POP JUMP JUMPDEST PUSH1 0x0 PUSH1 0x20 DUP3 ADD SWAP1 POP DUP2 DUP2 SUB PUSH1 0x0 DUP4 ADD MSTORE PUSH2 0x2A79 DUP2 PUSH2 0x2A3D JUMP JUMPDEST SWAP1 POP SWAP2 SWAP1 POP JUMP JUMPDEST PUSH32 0x4C414E3A2073746172742074696D6520696E2070617374000000000000000000 PUSH1 0x0 DUP3 ADD MSTORE POP JUMP JUMPDEST PUSH1 0x0 PUSH2 0x2AB6 PUSH1 0x17 DUP4 PUSH2 0x25C7 JUMP JUMPDEST SWAP2 POP PUSH2 0x2AC1 DUP3 PUSH2 0x2A80 JUMP JUMPDEST PUSH1 0x20 DUP3 ADD SWAP1 POP SWAP2 SWAP1 POP JUMP JUMPDEST PUSH1 0x0 PUSH1 0x20 DUP3 ADD SWAP1 POP DUP2 DUP2 SUB PUSH1 0x0 DUP4 ADD MSTORE PUSH2 0x2AE5 DUP2 PUSH2 0x2AA9 JUMP JUMPDEST SWAP1 POP SWAP2 SWAP1 POP JUMP JUMPDEST PUSH32 0x4C414E3A20737461727420616674657220656E64000000000000000000000000 PUSH1 0x0 DUP3 ADD MSTORE POP JUMP JUMPDEST PUSH1 0x0 PUSH2 0x2B22 PUSH1 0x14 DUP4 PUSH2 0x25C7 JUMP JUMPDEST SWAP2 POP PUSH2 0x2B2D DUP3 PUSH2 0x2AEC JUMP JUMPDEST PUSH1 0x20 DUP3 ADD SWAP1 POP SWAP2 SWAP1 POP JUMP JUMPDEST PUSH1 0x0 PUSH1 0x20 DUP3 ADD SWAP1 POP DUP2 DUP2 SUB PUSH1 0x0 DUP4 ADD MSTORE PUSH2 0x2B51 DUP2 PUSH2 0x2B15 JUMP JUMPDEST SWAP1 POP SWAP2 SWAP1 POP JUMP JUMPDEST PUSH1 0x0 DUP2 MLOAD SWAP1 POP PUSH2 0x2B67 DUP2 PUSH2 0x2368 JUMP JUMPDEST SWAP3 SWAP2 POP POP JUMP JUMPDEST PUSH1 0x0 PUSH1 0x20 DUP3 DUP5 SUB SLT ISZERO PUSH2 0x2B83 JUMPI PUSH2 0x2B82 PUSH2 0x21F1 JUMP JUMPDEST JUMPDEST PUSH1 0x0 PUSH2 0x2B91 DUP5 DUP3 DUP6 ADD PUSH2 0x2B58 JUMP JUMPDEST SWAP2 POP POP SWAP3 SWAP2 POP POP JUMP JUMPDEST PUSH1 0x0 PUSH1 0x40 DUP3 ADD SWAP1 POP PUSH2 0x2BAF PUSH1 0x0 DUP4 ADD DUP6 PUSH2 0x2314 JUMP JUMPDEST PUSH2 0x2BBC PUSH1 0x20 DUP4 ADD DUP5 PUSH2 0x21C7 JUMP JUMPDEST SWAP4 SWAP3 POP POP POP JUMP JUMPDEST PUSH1 0x0 PUSH2 0x2BCE DUP3 PUSH2 0x21BD JUMP JUMPDEST SWAP2 POP PUSH32 0xFFFFFFFFFFFFFFFFFFFFFFFFFFFFFFFFFFFFFFFFFFFFFFFFFFFFFFFFFFFFFFFF DUP3 SUB PUSH2 0x2C00 JUMPI PUSH2 0x2BFF PUSH2 0x282B JUMP JUMPDEST JUMPDEST PUSH1 0x1 DUP3 ADD SWAP1 POP SWAP2 SWAP1 POP JUMP JUMPDEST PUSH1 0x0 PUSH2 0x2C16 DUP3 PUSH2 0x21BD JUMP JUMPDEST SWAP2 POP PUSH2 0x2C21 DUP4 PUSH2 0x21BD JUMP JUMPDEST SWAP3 POP DUP3 DUP3 SUB SWAP1 POP DUP2 DUP2 GT ISZERO PUSH2 0x2C39 JUMPI PUSH2 0x2C38 PUSH2 0x282B JUMP JUMPDEST JUMPDEST SWAP3 SWAP2 POP POP JUMP JUMPDEST PUSH1 0x0 PUSH2 0x2C4A DUP3 PUSH2 0x21BD JUMP JUMPDEST SWAP2 POP PUSH2 0x2C55 DUP4 PUSH2 0x21BD JUMP JUMPDEST SWAP3 POP DUP2 PUSH32 0xFFFFFFFFFFFFFFFFFFFFFFFFFFFFFFFFFFFFFFFFFFFFFFFFFFFFFFFFFFFFFFFF DIV DUP4 GT DUP3 ISZERO ISZERO AND ISZERO PUSH2 0x2C8E JUMPI PUSH2 0x2C8D PUSH2 0x282B JUMP JUMPDEST JUMPDEST DUP3 DUP3 MUL SWAP1 POP SWAP3 SWAP2 POP POP JUMP JUMPDEST PUSH32 0x4E487B7100000000000000000000000000000000000000000000000000000000 PUSH1 0x0 MSTORE PUSH1 0x12 PUSH1 0x4 MSTORE PUSH1 0x24 PUSH1 0x0 REVERT JUMPDEST PUSH1 0x0 PUSH2 0x2CD3 DUP3 PUSH2 0x21BD JUMP JUMPDEST SWAP2 POP PUSH2 0x2CDE DUP4 PUSH2 0x21BD JUMP JUMPDEST SWAP3 POP DUP3 PUSH2 0x2CEE JUMPI PUSH2 0x2CED PUSH2 0x2C99 JUMP JUMPDEST JUMPDEST DUP3 DUP3 DIV SWAP1 POP SWAP3 SWAP2 POP POP JUMP INVALID LOG2 PUSH5 0x6970667358 0x22 SLT KECCAK256 0xF8 0xF7 MSTORE8 REVERT 0xE2 0xD0 PUSH18 0x7569166DE36D073F548E4A4098404DB3549B 0xC3 MOD 0xAC 0xD OR PUSH12 0x4864736F6C63430008100033 "
				},
				"gasEstimates": {
					"creation": {
						"codeDepositCost": "2313400",
						"executionCost": "2478",
						"totalCost": "2315878"
					},
					"external": {
						"bid(uint256,uint256,uint256)": "infinite",
						"bids(uint256,uint256)": "infinite",
						"cancel(uint256)": "infinite",
						"changeWhitelist(uint256,address,bool)": "25349",
						"count()": "2430",
						"endLoan(uint256)": "infinite",
						"launch(address,address,address,uint256,uint256,uint256,bool)": "infinite",
						"liquidate(uint256)": "infinite",
						"liquidateEarly(uint256)": "infinite",
						"loans(uint256)": "infinite",
						"setNewBidOwner(uint256,address)": "53380",
						"whitelistedAddresses(uint256,address)": "3131"
					},
					"internal": {
						"_calculateLoanValue(uint256)": "infinite",
						"_ended(uint256)": "2226",
						"_started(uint256)": "2223"
					}
				},
				"methodIdentifiers": {
					"bid(uint256,uint256,uint256)": "2ac9bf09",
					"bids(uint256,uint256)": "7b3c4baa",
					"cancel(uint256)": "40e58ee5",
					"changeWhitelist(uint256,address,bool)": "f724e48e",
					"count()": "06661abd",
					"endLoan(uint256)": "7870860b",
					"launch(address,address,address,uint256,uint256,uint256,bool)": "e1267929",
					"liquidate(uint256)": "415f1240",
					"liquidateEarly(uint256)": "18de4f9d",
					"loans(uint256)": "e1ec3c68",
					"setNewBidOwner(uint256,address)": "8f769f3a",
					"whitelistedAddresses(uint256,address)": "a23b02bd"
				}
			},
			"storageLayout": {
				"storage": [
					{
						"astId": 223,
						"contract": "main.sol:LAN",
						"label": "count",
						"offset": 0,
						"slot": "0",
						"type": "t_uint256"
					},
					{
						"astId": 249,
						"contract": "main.sol:LAN",
						"label": "loans",
						"offset": 0,
						"slot": "1",
						"type": "t_mapping(t_uint256,t_struct(Loan)244_storage)"
					},
					{
						"astId": 265,
						"contract": "main.sol:LAN",
						"label": "bids",
						"offset": 0,
						"slot": "2",
						"type": "t_mapping(t_uint256,t_mapping(t_uint256,t_struct(Bid)258_storage))"
					},
					{
						"astId": 271,
						"contract": "main.sol:LAN",
						"label": "whitelistedAddresses",
						"offset": 0,
						"slot": "3",
						"type": "t_mapping(t_uint256,t_mapping(t_address,t_bool))"
					}
				],
				"types": {
					"t_address": {
						"encoding": "inplace",
						"label": "address",
						"numberOfBytes": "20"
					},
					"t_bool": {
						"encoding": "inplace",
						"label": "bool",
						"numberOfBytes": "1"
					},
					"t_mapping(t_address,t_bool)": {
						"encoding": "mapping",
						"key": "t_address",
						"label": "mapping(address => bool)",
						"numberOfBytes": "32",
						"value": "t_bool"
					},
					"t_mapping(t_uint256,t_mapping(t_address,t_bool))": {
						"encoding": "mapping",
						"key": "t_uint256",
						"label": "mapping(uint256 => mapping(address => bool))",
						"numberOfBytes": "32",
						"value": "t_mapping(t_address,t_bool)"
					},
					"t_mapping(t_uint256,t_mapping(t_uint256,t_struct(Bid)258_storage))": {
						"encoding": "mapping",
						"key": "t_uint256",
						"label": "mapping(uint256 => mapping(uint256 => struct LAN.Bid))",
						"numberOfBytes": "32",
						"value": "t_mapping(t_uint256,t_struct(Bid)258_storage)"
					},
					"t_mapping(t_uint256,t_struct(Bid)258_storage)": {
						"encoding": "mapping",
						"key": "t_uint256",
						"label": "mapping(uint256 => struct LAN.Bid)",
						"numberOfBytes": "32",
						"value": "t_struct(Bid)258_storage"
					},
					"t_mapping(t_uint256,t_struct(Loan)244_storage)": {
						"encoding": "mapping",
						"key": "t_uint256",
						"label": "mapping(uint256 => struct LAN.Loan)",
						"numberOfBytes": "32",
						"value": "t_struct(Loan)244_storage"
					},
					"t_struct(Bid)258_storage": {
						"encoding": "inplace",
						"label": "struct LAN.Bid",
						"members": [
							{
								"astId": 251,
								"contract": "main.sol:LAN",
								"label": "bidTime",
								"offset": 0,
								"slot": "0",
								"type": "t_uint256"
							},
							{
								"astId": 253,
								"contract": "main.sol:LAN",
								"label": "bidAmount",
								"offset": 0,
								"slot": "1",
								"type": "t_uint256"
							},
							{
								"astId": 255,
								"contract": "main.sol:LAN",
								"label": "user",
								"offset": 0,
								"slot": "2",
								"type": "t_address"
							},
							{
								"astId": 257,
								"contract": "main.sol:LAN",
								"label": "apr",
								"offset": 0,
								"slot": "3",
								"type": "t_uint256"
							}
						],
						"numberOfBytes": "128"
					},
					"t_struct(Loan)244_storage": {
						"encoding": "inplace",
						"label": "struct LAN.Loan",
						"members": [
							{
								"astId": 225,
								"contract": "main.sol:LAN",
								"label": "owner",
								"offset": 0,
								"slot": "0",
								"type": "t_address"
							},
							{
								"astId": 227,
								"contract": "main.sol:LAN",
								"label": "token",
								"offset": 0,
								"slot": "1",
								"type": "t_address"
							},
							{
								"astId": 229,
								"contract": "main.sol:LAN",
								"label": "operator",
								"offset": 0,
								"slot": "2",
								"type": "t_address"
							},
							{
								"astId": 231,
								"contract": "main.sol:LAN",
								"label": "collectionAddress",
								"offset": 0,
								"slot": "3",
								"type": "t_address"
							},
							{
								"astId": 233,
								"contract": "main.sol:LAN",
								"label": "nftId",
								"offset": 0,
								"slot": "4",
								"type": "t_uint256"
							},
							{
								"astId": 235,
								"contract": "main.sol:LAN",
								"label": "startTime",
								"offset": 0,
								"slot": "5",
								"type": "t_uint256"
							},
							{
								"astId": 237,
								"contract": "main.sol:LAN",
								"label": "endTime",
								"offset": 0,
								"slot": "6",
								"type": "t_uint256"
							},
							{
								"astId": 239,
								"contract": "main.sol:LAN",
								"label": "apr",
								"offset": 0,
								"slot": "7",
								"type": "t_uint256"
							},
							{
								"astId": 241,
								"contract": "main.sol:LAN",
								"label": "numBids",
								"offset": 0,
								"slot": "8",
								"type": "t_uint256"
							},
							{
								"astId": 243,
								"contract": "main.sol:LAN",
								"label": "whitelisted",
								"offset": 0,
								"slot": "9",
								"type": "t_bool"
							}
						],
						"numberOfBytes": "320"
					},
					"t_uint256": {
						"encoding": "inplace",
						"label": "uint256",
						"numberOfBytes": "32"
					}
				}
			},
			"userdoc": {
				"kind": "user",
				"methods": {},
				"version": 1
			}
		}
	}
}