{
	"main.sol": {
		"LAN": {
			"abi": [
				{
					"anonymous": false,
					"inputs": [
						{
							"indexed": false,
							"internalType": "uint256",
							"name": "Id",
							"type": "uint256"
						}
					],
					"name": "loanCancelled",
					"type": "event"
				},
				{
					"anonymous": false,
					"inputs": [
						{
							"indexed": true,
							"internalType": "uint256",
							"name": "poolId",
							"type": "uint256"
						},
						{
							"indexed": false,
							"internalType": "address",
							"name": "collectionAddress",
							"type": "address"
						},
						{
							"indexed": false,
							"internalType": "uint256",
							"name": "nftId",
							"type": "uint256"
						}
					],
					"name": "newPool",
					"type": "event"
				},
				{
					"inputs": [
						{
							"internalType": "uint256",
							"name": "_poolId",
							"type": "uint256"
						},
						{
							"internalType": "uint256",
							"name": "_amount",
							"type": "uint256"
						}
					],
					"name": "bid",
					"outputs": [],
					"stateMutability": "nonpayable",
					"type": "function"
				},
				{
					"inputs": [
						{
							"internalType": "uint256",
							"name": "",
							"type": "uint256"
						},
						{
							"internalType": "uint256",
							"name": "",
							"type": "uint256"
						}
					],
					"name": "bids",
					"outputs": [
						{
							"internalType": "uint256",
							"name": "bidTime",
							"type": "uint256"
						},
						{
							"internalType": "uint256",
							"name": "bidAmount",
							"type": "uint256"
						},
						{
							"internalType": "address",
							"name": "user",
							"type": "address"
						}
					],
					"stateMutability": "view",
					"type": "function"
				},
				{
					"inputs": [
						{
							"internalType": "uint256",
							"name": "_poolId",
							"type": "uint256"
						}
					],
					"name": "cancel",
					"outputs": [],
					"stateMutability": "nonpayable",
					"type": "function"
				},
				{
					"inputs": [],
					"name": "count",
					"outputs": [
						{
							"internalType": "uint256",
							"name": "",
							"type": "uint256"
						}
					],
					"stateMutability": "view",
					"type": "function"
				},
				{
					"inputs": [
						{
							"internalType": "uint256",
							"name": "_poolId",
							"type": "uint256"
						}
					],
					"name": "endLoan",
					"outputs": [],
					"stateMutability": "nonpayable",
					"type": "function"
				},
				{
					"inputs": [
						{
							"internalType": "address",
							"name": "_token",
							"type": "address"
						},
						{
							"internalType": "address",
							"name": "_collectionAddress",
							"type": "address"
						},
						{
							"internalType": "uint256",
							"name": "_nftId",
							"type": "uint256"
						},
						{
							"internalType": "uint256",
							"name": "_startTime",
							"type": "uint256"
						},
						{
							"internalType": "uint256",
							"name": "_endTime",
							"type": "uint256"
						},
						{
							"internalType": "uint256",
							"name": "_apr",
							"type": "uint256"
						}
					],
					"name": "launch",
					"outputs": [],
					"stateMutability": "nonpayable",
					"type": "function"
				},
				{
					"inputs": [
						{
							"internalType": "uint256",
							"name": "_poolId",
							"type": "uint256"
						}
					],
					"name": "liquidate",
					"outputs": [],
					"stateMutability": "nonpayable",
					"type": "function"
				},
				{
					"inputs": [
						{
							"internalType": "uint256",
							"name": "",
							"type": "uint256"
						}
					],
					"name": "loans",
					"outputs": [
						{
							"internalType": "address",
							"name": "owner",
							"type": "address"
						},
						{
							"internalType": "address",
							"name": "token",
							"type": "address"
						},
						{
							"internalType": "address",
							"name": "collectionAddress",
							"type": "address"
						},
						{
							"internalType": "uint256",
							"name": "nftId",
							"type": "uint256"
						},
						{
							"internalType": "uint256",
							"name": "startTime",
							"type": "uint256"
						},
						{
							"internalType": "uint256",
							"name": "endTime",
							"type": "uint256"
						},
						{
							"internalType": "uint256",
							"name": "apr",
							"type": "uint256"
						},
						{
							"internalType": "uint256",
							"name": "numBids",
							"type": "uint256"
						}
					],
					"stateMutability": "view",
					"type": "function"
				},
				{
					"inputs": [
						{
							"internalType": "uint256",
							"name": "",
							"type": "uint256"
						},
						{
							"internalType": "uint256",
							"name": "",
							"type": "uint256"
						}
					],
					"name": "whitelistedAddresses",
					"outputs": [
						{
							"internalType": "address",
							"name": "",
							"type": "address"
						}
					],
					"stateMutability": "view",
					"type": "function"
				}
			],
			"devdoc": {
				"kind": "dev",
				"methods": {},
				"version": 1
			},
			"evm": {
				"assembly": "    /* \"main.sol\":142:4813  contract LAN{... */\n  mstore(0x40, 0x80)\n  callvalue\n  dup1\n  iszero\n  tag_1\n  jumpi\n  0x00\n  dup1\n  revert\ntag_1:\n  pop\n  dataSize(sub_0)\n  dup1\n  dataOffset(sub_0)\n  0x00\n  codecopy\n  0x00\n  return\nstop\n\nsub_0: assembly {\n        /* \"main.sol\":142:4813  contract LAN{... */\n      mstore(0x40, 0x80)\n      callvalue\n      dup1\n      iszero\n      tag_1\n      jumpi\n      0x00\n      dup1\n      revert\n    tag_1:\n      pop\n      jumpi(tag_2, lt(calldatasize, 0x04))\n      shr(0xe0, calldataload(0x00))\n      dup1\n      0x7870860b\n      gt\n      tag_12\n      jumpi\n      dup1\n      0x7870860b\n      eq\n      tag_7\n      jumpi\n      dup1\n      0x7b3c4baa\n      eq\n      tag_8\n      jumpi\n      dup1\n      0x9bea77da\n      eq\n      tag_9\n      jumpi\n      dup1\n      0xe1ec3c68\n      eq\n      tag_10\n      jumpi\n      dup1\n      0xe7e4dfcd\n      eq\n      tag_11\n      jumpi\n      jump(tag_2)\n    tag_12:\n      dup1\n      0x06661abd\n      eq\n      tag_3\n      jumpi\n      dup1\n      0x40e58ee5\n      eq\n      tag_4\n      jumpi\n      dup1\n      0x415f1240\n      eq\n      tag_5\n      jumpi\n      dup1\n      0x598647f8\n      eq\n      tag_6\n      jumpi\n    tag_2:\n      0x00\n      dup1\n      revert\n        /* \"main.sol\":313:333  uint256 public count */\n    tag_3:\n      tag_13\n      tag_14\n      jump\t// in\n    tag_13:\n      mload(0x40)\n      tag_15\n      swap2\n      swap1\n      tag_16\n      jump\t// in\n    tag_15:\n      mload(0x40)\n      dup1\n      swap2\n      sub\n      swap1\n      return\n        /* \"main.sol\":2730:2974  function cancel(uint256 _poolId) external onlyOwner(_poolId) {... */\n    tag_4:\n      tag_17\n      0x04\n      dup1\n      calldatasize\n      sub\n      dup2\n      add\n      swap1\n      tag_18\n      swap2\n      swap1\n      tag_19\n      jump\t// in\n    tag_18:\n      tag_20\n      jump\t// in\n    tag_17:\n      stop\n        /* \"main.sol\":3544:3977  function liquidate(uint256 _poolId) external {... */\n    tag_5:\n      tag_21\n      0x04\n      dup1\n      calldatasize\n      sub\n      dup2\n      add\n      swap1\n      tag_22\n      swap2\n      swap1\n      tag_19\n      jump\t// in\n    tag_22:\n      tag_23\n      jump\t// in\n    tag_21:\n      stop\n        /* \"main.sol\":1810:2683  function bid(uint256 _poolId, uint256 _amount) external {... */\n    tag_6:\n      tag_24\n      0x04\n      dup1\n      calldatasize\n      sub\n      dup2\n      add\n      swap1\n      tag_25\n      swap2\n      swap1\n      tag_26\n      jump\t// in\n    tag_25:\n      tag_27\n      jump\t// in\n    tag_24:\n      stop\n        /* \"main.sol\":3013:3490  function endLoan(uint256 _poolId) external onlyOwner(_poolId) {... */\n    tag_7:\n      tag_28\n      0x04\n      dup1\n      calldatasize\n      sub\n      dup2\n      add\n      swap1\n      tag_29\n      swap2\n      swap1\n      tag_19\n      jump\t// in\n    tag_29:\n      tag_30\n      jump\t// in\n    tag_28:\n      stop\n        /* \"main.sol\":706:761  mapping(uint256 => mapping(uint256 => Bid)) public bids */\n    tag_8:\n      tag_31\n      0x04\n      dup1\n      calldatasize\n      sub\n      dup2\n      add\n      swap1\n      tag_32\n      swap2\n      swap1\n      tag_26\n      jump\t// in\n    tag_32:\n      tag_33\n      jump\t// in\n    tag_31:\n      mload(0x40)\n      tag_34\n      swap4\n      swap3\n      swap2\n      swap1\n      tag_35\n      jump\t// in\n    tag_34:\n      mload(0x40)\n      dup1\n      swap2\n      sub\n      swap1\n      return\n        /* \"main.sol\":843:900  mapping(uint256 => address[]) public whitelistedAddresses */\n    tag_9:\n      tag_36\n      0x04\n      dup1\n      calldatasize\n      sub\n      dup2\n      add\n      swap1\n      tag_37\n      swap2\n      swap1\n      tag_26\n      jump\t// in\n    tag_37:\n      tag_38\n      jump\t// in\n    tag_36:\n      mload(0x40)\n      tag_39\n      swap2\n      swap1\n      tag_40\n      jump\t// in\n    tag_39:\n      mload(0x40)\n      dup1\n      swap2\n      sub\n      swap1\n      return\n        /* \"main.sol\":565:602  mapping(uint256 => Loan) public loans */\n    tag_10:\n      tag_41\n      0x04\n      dup1\n      calldatasize\n      sub\n      dup2\n      add\n      swap1\n      tag_42\n      swap2\n      swap1\n      tag_19\n      jump\t// in\n    tag_42:\n      tag_43\n      jump\t// in\n    tag_41:\n      mload(0x40)\n      tag_44\n      swap9\n      swap8\n      swap7\n      swap6\n      swap5\n      swap4\n      swap3\n      swap2\n      swap1\n      tag_45\n      jump\t// in\n    tag_44:\n      mload(0x40)\n      dup1\n      swap2\n      sub\n      swap1\n      return\n        /* \"main.sol\":1109:1804  function launch(address _token, address _collectionAddress, uint256 _nftId, uint256 _startTime, uint256 _endTime, uint256 _apr) public {... */\n    tag_11:\n      tag_46\n      0x04\n      dup1\n      calldatasize\n      sub\n      dup2\n      add\n      swap1\n      tag_47\n      swap2\n      swap1\n      tag_48\n      jump\t// in\n    tag_47:\n      tag_49\n      jump\t// in\n    tag_46:\n      stop\n        /* \"main.sol\":313:333  uint256 public count */\n    tag_14:\n      sload(0x00)\n      dup2\n      jump\t// out\n        /* \"main.sol\":2730:2974  function cancel(uint256 _poolId) external onlyOwner(_poolId) {... */\n    tag_20:\n        /* \"main.sol\":2782:2789  _poolId */\n      dup1\n        /* \"main.sol\":1056:1066  msg.sender */\n      caller\n        /* \"main.sol\":1032:1066  loans[_poolId].owner == msg.sender */\n      0xffffffffffffffffffffffffffffffffffffffff\n      and\n        /* \"main.sol\":1032:1037  loans */\n      0x01\n        /* \"main.sol\":1032:1046  loans[_poolId] */\n      0x00\n        /* \"main.sol\":1038:1045  _poolId */\n      dup4\n        /* \"main.sol\":1032:1046  loans[_poolId] */\n      dup2\n      mstore\n      0x20\n      add\n      swap1\n      dup2\n      mstore\n      0x20\n      add\n      0x00\n      keccak256\n        /* \"main.sol\":1032:1052  loans[_poolId].owner */\n      0x00\n      add\n      0x00\n      swap1\n      sload\n      swap1\n      0x0100\n      exp\n      swap1\n      div\n      0xffffffffffffffffffffffffffffffffffffffff\n      and\n        /* \"main.sol\":1032:1066  loans[_poolId].owner == msg.sender */\n      0xffffffffffffffffffffffffffffffffffffffff\n      and\n      eq\n        /* \"main.sol\":1024:1085  require(loans[_poolId].owner == msg.sender, \"LAN: not owner\") */\n      tag_51\n      jumpi\n      mload(0x40)\n      0x08c379a000000000000000000000000000000000000000000000000000000000\n      dup2\n      mstore\n      0x04\n      add\n      tag_52\n      swap1\n      tag_53\n      jump\t// in\n    tag_52:\n      mload(0x40)\n      dup1\n      swap2\n      sub\n      swap1\n      revert\n    tag_51:\n        /* \"main.sol\":2801:2817  Loan memory loan */\n      0x00\n        /* \"main.sol\":2820:2825  loans */\n      0x01\n        /* \"main.sol\":2820:2834  loans[_poolId] */\n      0x00\n        /* \"main.sol\":2826:2833  _poolId */\n      dup5\n        /* \"main.sol\":2820:2834  loans[_poolId] */\n      dup2\n      mstore\n      0x20\n      add\n      swap1\n      dup2\n      mstore\n      0x20\n      add\n      0x00\n      keccak256\n        /* \"main.sol\":2801:2834  Loan memory loan = loans[_poolId] */\n      mload(0x40)\n      dup1\n      0x0100\n      add\n      0x40\n      mstore\n      swap1\n      dup2\n      0x00\n      dup3\n      add\n      0x00\n      swap1\n      sload\n      swap1\n      0x0100\n      exp\n      swap1\n      div\n      0xffffffffffffffffffffffffffffffffffffffff\n      and\n      0xffffffffffffffffffffffffffffffffffffffff\n      and\n      0xffffffffffffffffffffffffffffffffffffffff\n      and\n      dup2\n      mstore\n      0x20\n      add\n      0x01\n      dup3\n      add\n      0x00\n      swap1\n      sload\n      swap1\n      0x0100\n      exp\n      swap1\n      div\n      0xffffffffffffffffffffffffffffffffffffffff\n      and\n      0xffffffffffffffffffffffffffffffffffffffff\n      and\n      0xffffffffffffffffffffffffffffffffffffffff\n      and\n      dup2\n      mstore\n      0x20\n      add\n      0x02\n      dup3\n      add\n      0x00\n      swap1\n      sload\n      swap1\n      0x0100\n      exp\n      swap1\n      div\n      0xffffffffffffffffffffffffffffffffffffffff\n      and\n      0xffffffffffffffffffffffffffffffffffffffff\n      and\n      0xffffffffffffffffffffffffffffffffffffffff\n      and\n      dup2\n      mstore\n      0x20\n      add\n      0x03\n      dup3\n      add\n      sload\n      dup2\n      mstore\n      0x20\n      add\n      0x04\n      dup3\n      add\n      sload\n      dup2\n      mstore\n      0x20\n      add\n      0x05\n      dup3\n      add\n      sload\n      dup2\n      mstore\n      0x20\n      add\n      0x06\n      dup3\n      add\n      sload\n      dup2\n      mstore\n      0x20\n      add\n      0x07\n      dup3\n      add\n      sload\n      dup2\n      mstore\n      pop\n      pop\n      swap1\n      pop\n        /* \"main.sol\":2869:2884  block.timestamp */\n      timestamp\n        /* \"main.sol\":2852:2856  loan */\n      dup2\n        /* \"main.sol\":2852:2866  loan.startTime */\n      0x80\n      add\n      mload\n        /* \"main.sol\":2852:2884  loan.startTime > block.timestamp */\n      gt\n        /* \"main.sol\":2844:2909  require(loan.startTime > block.timestamp, \"LAN: already started\") */\n      tag_55\n      jumpi\n      mload(0x40)\n      0x08c379a000000000000000000000000000000000000000000000000000000000\n      dup2\n      mstore\n      0x04\n      add\n      tag_56\n      swap1\n      tag_57\n      jump\t// in\n    tag_56:\n      mload(0x40)\n      dup1\n      swap2\n      sub\n      swap1\n      revert\n    tag_55:\n        /* \"main.sol\":2919:2930  delete loan */\n      tag_58\n      tag_59\n      jump\t// in\n    tag_58:\n      swap1\n      pop\n        /* \"main.sol\":2945:2967  loanCancelled(_poolId) */\n      0xfe785ef891129b084b1c5a30e4d88eb97c97822c024cc25d5f9d806b897512e0\n        /* \"main.sol\":2959:2966  _poolId */\n      dup4\n        /* \"main.sol\":2945:2967  loanCancelled(_poolId) */\n      mload(0x40)\n      tag_60\n      swap2\n      swap1\n      tag_16\n      jump\t// in\n    tag_60:\n      mload(0x40)\n      dup1\n      swap2\n      sub\n      swap1\n      log1\n        /* \"main.sol\":2791:2974  {... */\n      pop\n        /* \"main.sol\":2730:2974  function cancel(uint256 _poolId) external onlyOwner(_poolId) {... */\n      pop\n      pop\n      jump\t// out\n        /* \"main.sol\":3544:3977  function liquidate(uint256 _poolId) external {... */\n    tag_23:\n        /* \"main.sol\":3599:3615  Loan memory loan */\n      0x00\n        /* \"main.sol\":3618:3623  loans */\n      0x01\n        /* \"main.sol\":3618:3632  loans[_poolId] */\n      0x00\n        /* \"main.sol\":3624:3631  _poolId */\n      dup4\n        /* \"main.sol\":3618:3632  loans[_poolId] */\n      dup2\n      mstore\n      0x20\n      add\n      swap1\n      dup2\n      mstore\n      0x20\n      add\n      0x00\n      keccak256\n        /* \"main.sol\":3599:3632  Loan memory loan = loans[_poolId] */\n      mload(0x40)\n      dup1\n      0x0100\n      add\n      0x40\n      mstore\n      swap1\n      dup2\n      0x00\n      dup3\n      add\n      0x00\n      swap1\n      sload\n      swap1\n      0x0100\n      exp\n      swap1\n      div\n      0xffffffffffffffffffffffffffffffffffffffff\n      and\n      0xffffffffffffffffffffffffffffffffffffffff\n      and\n      0xffffffffffffffffffffffffffffffffffffffff\n      and\n      dup2\n      mstore\n      0x20\n      add\n      0x01\n      dup3\n      add\n      0x00\n      swap1\n      sload\n      swap1\n      0x0100\n      exp\n      swap1\n      div\n      0xffffffffffffffffffffffffffffffffffffffff\n      and\n      0xffffffffffffffffffffffffffffffffffffffff\n      and\n      0xffffffffffffffffffffffffffffffffffffffff\n      and\n      dup2\n      mstore\n      0x20\n      add\n      0x02\n      dup3\n      add\n      0x00\n      swap1\n      sload\n      swap1\n      0x0100\n      exp\n      swap1\n      div\n      0xffffffffffffffffffffffffffffffffffffffff\n      and\n      0xffffffffffffffffffffffffffffffffffffffff\n      and\n      0xffffffffffffffffffffffffffffffffffffffff\n      and\n      dup2\n      mstore\n      0x20\n      add\n      0x03\n      dup3\n      add\n      sload\n      dup2\n      mstore\n      0x20\n      add\n      0x04\n      dup3\n      add\n      sload\n      dup2\n      mstore\n      0x20\n      add\n      0x05\n      dup3\n      add\n      sload\n      dup2\n      mstore\n      0x20\n      add\n      0x06\n      dup3\n      add\n      sload\n      dup2\n      mstore\n      0x20\n      add\n      0x07\n      dup3\n      add\n      sload\n      dup2\n      mstore\n      pop\n      pop\n      swap1\n      pop\n        /* \"main.sol\":3650:3665  _ended(_poolId) */\n      tag_62\n        /* \"main.sol\":3657:3664  _poolId */\n      dup3\n        /* \"main.sol\":3650:3656  _ended */\n      tag_63\n        /* \"main.sol\":3650:3665  _ended(_poolId) */\n      jump\t// in\n    tag_62:\n        /* \"main.sol\":3642:3689  require(_ended(_poolId), \"LAN: loan not ended\") */\n      tag_64\n      jumpi\n      mload(0x40)\n      0x08c379a000000000000000000000000000000000000000000000000000000000\n      dup2\n      mstore\n      0x04\n      add\n      tag_65\n      swap1\n      tag_66\n      jump\t// in\n    tag_65:\n      mload(0x40)\n      dup1\n      swap2\n      sub\n      swap1\n      revert\n    tag_64:\n        /* \"main.sol\":3699:3719  Bid memory latestBid */\n      0x00\n        /* \"main.sol\":3722:3726  bids */\n      0x02\n        /* \"main.sol\":3722:3735  bids[_poolId] */\n      0x00\n        /* \"main.sol\":3727:3734  _poolId */\n      dup5\n        /* \"main.sol\":3722:3735  bids[_poolId] */\n      dup2\n      mstore\n      0x20\n      add\n      swap1\n      dup2\n      mstore\n      0x20\n      add\n      0x00\n      keccak256\n        /* \"main.sol\":3722:3749  bids[_poolId][loan.numBids] */\n      0x00\n        /* \"main.sol\":3736:3740  loan */\n      dup4\n        /* \"main.sol\":3736:3748  loan.numBids */\n      0xe0\n      add\n      mload\n        /* \"main.sol\":3722:3749  bids[_poolId][loan.numBids] */\n      dup2\n      mstore\n      0x20\n      add\n      swap1\n      dup2\n      mstore\n      0x20\n      add\n      0x00\n      keccak256\n        /* \"main.sol\":3699:3749  Bid memory latestBid = bids[_poolId][loan.numBids] */\n      mload(0x40)\n      dup1\n      0x60\n      add\n      0x40\n      mstore\n      swap1\n      dup2\n      0x00\n      dup3\n      add\n      sload\n      dup2\n      mstore\n      0x20\n      add\n      0x01\n      dup3\n      add\n      sload\n      dup2\n      mstore\n      0x20\n      add\n      0x02\n      dup3\n      add\n      0x00\n      swap1\n      sload\n      swap1\n      0x0100\n      exp\n      swap1\n      div\n      0xffffffffffffffffffffffffffffffffffffffff\n      and\n      0xffffffffffffffffffffffffffffffffffffffff\n      and\n      0xffffffffffffffffffffffffffffffffffffffff\n      and\n      dup2\n      mstore\n      pop\n      pop\n      swap1\n      pop\n        /* \"main.sol\":3785:3795  msg.sender */\n      caller\n        /* \"main.sol\":3767:3795  latestBid.user == msg.sender */\n      0xffffffffffffffffffffffffffffffffffffffff\n      and\n        /* \"main.sol\":3767:3776  latestBid */\n      dup2\n        /* \"main.sol\":3767:3781  latestBid.user */\n      0x40\n      add\n      mload\n        /* \"main.sol\":3767:3795  latestBid.user == msg.sender */\n      0xffffffffffffffffffffffffffffffffffffffff\n      and\n      eq\n        /* \"main.sol\":3759:3822  require(latestBid.user == msg.sender, \"LAN: not latest bidder\") */\n      tag_67\n      jumpi\n      mload(0x40)\n      0x08c379a000000000000000000000000000000000000000000000000000000000\n      dup2\n      mstore\n      0x04\n      add\n      tag_68\n      swap1\n      tag_69\n      jump\t// in\n    tag_68:\n      mload(0x40)\n      dup1\n      swap2\n      sub\n      swap1\n      revert\n    tag_67:\n        /* \"main.sol\":3856:3867  IERC721 NFT */\n      0x00\n        /* \"main.sol\":3878:3882  loan */\n      dup3\n        /* \"main.sol\":3878:3900  loan.collectionAddress */\n      0x40\n      add\n      mload\n        /* \"main.sol\":3856:3901  IERC721 NFT = IERC721(loan.collectionAddress) */\n      swap1\n      pop\n        /* \"main.sol\":3911:3914  NFT */\n      dup1\n        /* \"main.sol\":3911:3931  NFT.safeTransferFrom */\n      0xffffffffffffffffffffffffffffffffffffffff\n      and\n      0x42842e0e\n        /* \"main.sol\":3940:3944  this */\n      address\n        /* \"main.sol\":3947:3957  msg.sender */\n      caller\n        /* \"main.sol\":3959:3963  loan */\n      dup7\n        /* \"main.sol\":3959:3969  loan.nftId */\n      0x60\n      add\n      mload\n        /* \"main.sol\":3911:3970  NFT.safeTransferFrom(address(this), msg.sender, loan.nftId) */\n      mload(0x40)\n      dup5\n      0xffffffff\n      and\n      0xe0\n      shl\n      dup2\n      mstore\n      0x04\n      add\n      tag_70\n      swap4\n      swap3\n      swap2\n      swap1\n      tag_71\n      jump\t// in\n    tag_70:\n      0x00\n      mload(0x40)\n      dup1\n      dup4\n      sub\n      dup2\n      0x00\n      dup8\n      dup1\n      extcodesize\n      iszero\n      dup1\n      iszero\n      tag_72\n      jumpi\n      0x00\n      dup1\n      revert\n    tag_72:\n      pop\n      gas\n      call\n      iszero\n      dup1\n      iszero\n      tag_74\n      jumpi\n      returndatasize\n      0x00\n      dup1\n      returndatacopy\n      revert(0x00, returndatasize)\n    tag_74:\n      pop\n      pop\n      pop\n      pop\n        /* \"main.sol\":3589:3977  {... */\n      pop\n      pop\n      pop\n        /* \"main.sol\":3544:3977  function liquidate(uint256 _poolId) external {... */\n      pop\n      jump\t// out\n        /* \"main.sol\":1810:2683  function bid(uint256 _poolId, uint256 _amount) external {... */\n    tag_27:\n        /* \"main.sol\":1884:1901  _started(_poolId) */\n      tag_76\n        /* \"main.sol\":1893:1900  _poolId */\n      dup3\n        /* \"main.sol\":1884:1892  _started */\n      tag_77\n        /* \"main.sol\":1884:1901  _started(_poolId) */\n      jump\t// in\n    tag_76:\n        /* \"main.sol\":1876:1922  require(_started(_poolId), \"LAN: not started\") */\n      tag_78\n      jumpi\n      mload(0x40)\n      0x08c379a000000000000000000000000000000000000000000000000000000000\n      dup2\n      mstore\n      0x04\n      add\n      tag_79\n      swap1\n      tag_80\n      jump\t// in\n    tag_79:\n      mload(0x40)\n      dup1\n      swap2\n      sub\n      swap1\n      revert\n    tag_78:\n        /* \"main.sol\":1941:1956  _ended(_poolId) */\n      tag_81\n        /* \"main.sol\":1948:1955  _poolId */\n      dup3\n        /* \"main.sol\":1941:1947  _ended */\n      tag_63\n        /* \"main.sol\":1941:1956  _ended(_poolId) */\n      jump\t// in\n    tag_81:\n        /* \"main.sol\":1940:1956  !_ended(_poolId) */\n      iszero\n        /* \"main.sol\":1932:1979  require(!_ended(_poolId), \"LAN: already ended\") */\n      tag_82\n      jumpi\n      mload(0x40)\n      0x08c379a000000000000000000000000000000000000000000000000000000000\n      dup2\n      mstore\n      0x04\n      add\n      tag_83\n      swap1\n      tag_84\n      jump\t// in\n    tag_83:\n      mload(0x40)\n      dup1\n      swap2\n      sub\n      swap1\n      revert\n    tag_82:\n        /* \"main.sol\":1989:2005  Loan memory loan */\n      0x00\n        /* \"main.sol\":2008:2013  loans */\n      0x01\n        /* \"main.sol\":2008:2022  loans[_poolId] */\n      0x00\n        /* \"main.sol\":2014:2021  _poolId */\n      dup5\n        /* \"main.sol\":2008:2022  loans[_poolId] */\n      dup2\n      mstore\n      0x20\n      add\n      swap1\n      dup2\n      mstore\n      0x20\n      add\n      0x00\n      keccak256\n        /* \"main.sol\":1989:2022  Loan memory loan = loans[_poolId] */\n      mload(0x40)\n      dup1\n      0x0100\n      add\n      0x40\n      mstore\n      swap1\n      dup2\n      0x00\n      dup3\n      add\n      0x00\n      swap1\n      sload\n      swap1\n      0x0100\n      exp\n      swap1\n      div\n      0xffffffffffffffffffffffffffffffffffffffff\n      and\n      0xffffffffffffffffffffffffffffffffffffffff\n      and\n      0xffffffffffffffffffffffffffffffffffffffff\n      and\n      dup2\n      mstore\n      0x20\n      add\n      0x01\n      dup3\n      add\n      0x00\n      swap1\n      sload\n      swap1\n      0x0100\n      exp\n      swap1\n      div\n      0xffffffffffffffffffffffffffffffffffffffff\n      and\n      0xffffffffffffffffffffffffffffffffffffffff\n      and\n      0xffffffffffffffffffffffffffffffffffffffff\n      and\n      dup2\n      mstore\n      0x20\n      add\n      0x02\n      dup3\n      add\n      0x00\n      swap1\n      sload\n      swap1\n      0x0100\n      exp\n      swap1\n      div\n      0xffffffffffffffffffffffffffffffffffffffff\n      and\n      0xffffffffffffffffffffffffffffffffffffffff\n      and\n      0xffffffffffffffffffffffffffffffffffffffff\n      and\n      dup2\n      mstore\n      0x20\n      add\n      0x03\n      dup3\n      add\n      sload\n      dup2\n      mstore\n      0x20\n      add\n      0x04\n      dup3\n      add\n      sload\n      dup2\n      mstore\n      0x20\n      add\n      0x05\n      dup3\n      add\n      sload\n      dup2\n      mstore\n      0x20\n      add\n      0x06\n      dup3\n      add\n      sload\n      dup2\n      mstore\n      0x20\n      add\n      0x07\n      dup3\n      add\n      sload\n      dup2\n      mstore\n      pop\n      pop\n      swap1\n      pop\n        /* \"main.sol\":2064:2079  uint256 numBids */\n      0x00\n        /* \"main.sol\":2097:2098  1 */\n      0x01\n        /* \"main.sol\":2082:2086  loan */\n      dup3\n        /* \"main.sol\":2082:2094  loan.numBids */\n      0xe0\n      add\n      mload\n        /* \"main.sol\":2082:2098  loan.numBids + 1 */\n      tag_85\n      swap2\n      swap1\n      tag_86\n      jump\t// in\n    tag_85:\n        /* \"main.sol\":2064:2098  uint256 numBids = loan.numBids + 1 */\n      swap1\n      pop\n        /* \"main.sol\":2124:2131  numBids */\n      dup1\n        /* \"main.sol\":2109:2113  loan */\n      dup3\n        /* \"main.sol\":2109:2121  loan.numBids */\n      0xe0\n      add\n        /* \"main.sol\":2109:2131  loan.numBids = numBids */\n      dup2\n      dup2\n      mstore\n      pop\n      pop\n        /* \"main.sol\":2141:2158  uint256 loanValue */\n      0x00\n        /* \"main.sol\":2161:2189  _calculateLoanValue(_poolId) */\n      tag_87\n        /* \"main.sol\":2181:2188  _poolId */\n      dup6\n        /* \"main.sol\":2161:2180  _calculateLoanValue */\n      tag_88\n        /* \"main.sol\":2161:2189  _calculateLoanValue(_poolId) */\n      jump\t// in\n    tag_87:\n        /* \"main.sol\":2141:2189  uint256 loanValue = _calculateLoanValue(_poolId) */\n      swap1\n      pop\n        /* \"main.sol\":2217:2226  loanValue */\n      dup1\n        /* \"main.sol\":2207:2214  _amount */\n      dup5\n        /* \"main.sol\":2207:2226  _amount > loanValue */\n      gt\n        /* \"main.sol\":2199:2250  require(_amount > loanValue, \"LAN: bid not higher\") */\n      tag_89\n      jumpi\n      mload(0x40)\n      0x08c379a000000000000000000000000000000000000000000000000000000000\n      dup2\n      mstore\n      0x04\n      add\n      tag_90\n      swap1\n      tag_91\n      jump\t// in\n    tag_90:\n      mload(0x40)\n      dup1\n      swap2\n      sub\n      swap1\n      revert\n    tag_89:\n        /* \"main.sol\":2309:2313  loan */\n      dup3\n        /* \"main.sol\":2309:2319  loan.token */\n      0x20\n      add\n      mload\n        /* \"main.sol\":2302:2333  IERC20(loan.token).transferFrom */\n      0xffffffffffffffffffffffffffffffffffffffff\n      and\n      0x23b872dd\n        /* \"main.sol\":2334:2344  msg.sender */\n      caller\n        /* \"main.sol\":2346:2350  bids */\n      0x02\n        /* \"main.sol\":2346:2359  bids[_poolId] */\n      0x00\n        /* \"main.sol\":2351:2358  _poolId */\n      dup10\n        /* \"main.sol\":2346:2359  bids[_poolId] */\n      dup2\n      mstore\n      0x20\n      add\n      swap1\n      dup2\n      mstore\n      0x20\n      add\n      0x00\n      keccak256\n        /* \"main.sol\":2346:2368  bids[_poolId][numBids] */\n      0x00\n        /* \"main.sol\":2360:2367  numBids */\n      dup7\n        /* \"main.sol\":2346:2368  bids[_poolId][numBids] */\n      dup2\n      mstore\n      0x20\n      add\n      swap1\n      dup2\n      mstore\n      0x20\n      add\n      0x00\n      keccak256\n        /* \"main.sol\":2346:2373  bids[_poolId][numBids].user */\n      0x02\n      add\n      0x00\n      swap1\n      sload\n      swap1\n      0x0100\n      exp\n      swap1\n      div\n      0xffffffffffffffffffffffffffffffffffffffff\n      and\n        /* \"main.sol\":2375:2384  loanValue */\n      dup5\n        /* \"main.sol\":2302:2385  IERC20(loan.token).transferFrom(msg.sender, bids[_poolId][numBids].user, loanValue) */\n      mload(0x40)\n      dup5\n      0xffffffff\n      and\n      0xe0\n      shl\n      dup2\n      mstore\n      0x04\n      add\n      tag_92\n      swap4\n      swap3\n      swap2\n      swap1\n      tag_71\n      jump\t// in\n    tag_92:\n      0x20\n      mload(0x40)\n      dup1\n      dup4\n      sub\n      dup2\n      0x00\n      dup8\n      gas\n      call\n      iszero\n      dup1\n      iszero\n      tag_94\n      jumpi\n      returndatasize\n      0x00\n      dup1\n      returndatacopy\n      revert(0x00, returndatasize)\n    tag_94:\n      pop\n      pop\n      pop\n      pop\n      mload(0x40)\n      returndatasize\n      not(0x1f)\n      0x1f\n      dup3\n      add\n      and\n      dup3\n      add\n      dup1\n      0x40\n      mstore\n      pop\n      dup2\n      add\n      swap1\n      tag_95\n      swap2\n      swap1\n      tag_96\n      jump\t// in\n    tag_95:\n      pop\n        /* \"main.sol\":2434:2438  loan */\n      dup3\n        /* \"main.sol\":2434:2444  loan.token */\n      0x20\n      add\n      mload\n        /* \"main.sol\":2427:2458  IERC20(loan.token).transferFrom */\n      0xffffffffffffffffffffffffffffffffffffffff\n      and\n      0x23b872dd\n        /* \"main.sol\":2459:2469  msg.sender */\n      caller\n        /* \"main.sol\":2471:2475  loan */\n      dup6\n        /* \"main.sol\":2471:2481  loan.owner */\n      0x00\n      add\n      mload\n        /* \"main.sol\":2493:2502  loanValue */\n      dup5\n        /* \"main.sol\":2483:2490  _amount */\n      dup9\n        /* \"main.sol\":2483:2502  _amount - loanValue */\n      tag_97\n      swap2\n      swap1\n      tag_98\n      jump\t// in\n    tag_97:\n        /* \"main.sol\":2427:2503  IERC20(loan.token).transferFrom(msg.sender, loan.owner, _amount - loanValue) */\n      mload(0x40)\n      dup5\n      0xffffffff\n      and\n      0xe0\n      shl\n      dup2\n      mstore\n      0x04\n      add\n      tag_99\n      swap4\n      swap3\n      swap2\n      swap1\n      tag_71\n      jump\t// in\n    tag_99:\n      0x20\n      mload(0x40)\n      dup1\n      dup4\n      sub\n      dup2\n      0x00\n      dup8\n      gas\n      call\n      iszero\n      dup1\n      iszero\n      tag_101\n      jumpi\n      returndatasize\n      0x00\n      dup1\n      returndatacopy\n      revert(0x00, returndatasize)\n    tag_101:\n      pop\n      pop\n      pop\n      pop\n      mload(0x40)\n      returndatasize\n      not(0x1f)\n      0x1f\n      dup3\n      add\n      and\n      dup3\n      add\n      dup1\n      0x40\n      mstore\n      pop\n      dup2\n      add\n      swap1\n      tag_102\n      swap2\n      swap1\n      tag_96\n      jump\t// in\n    tag_102:\n      pop\n        /* \"main.sol\":2561:2676  Bid({... */\n      mload(0x40)\n      dup1\n      0x60\n      add\n      0x40\n      mstore\n      dup1\n        /* \"main.sol\":2588:2603  block.timestamp */\n      timestamp\n        /* \"main.sol\":2561:2676  Bid({... */\n      dup2\n      mstore\n      0x20\n      add\n        /* \"main.sol\":2628:2635  _amount */\n      dup6\n        /* \"main.sol\":2561:2676  Bid({... */\n      dup2\n      mstore\n      0x20\n      add\n        /* \"main.sol\":2655:2665  msg.sender */\n      caller\n        /* \"main.sol\":2561:2676  Bid({... */\n      0xffffffffffffffffffffffffffffffffffffffff\n      and\n      dup2\n      mstore\n      pop\n        /* \"main.sol\":2536:2540  bids */\n      0x02\n        /* \"main.sol\":2536:2549  bids[_poolId] */\n      0x00\n        /* \"main.sol\":2541:2548  _poolId */\n      dup8\n        /* \"main.sol\":2536:2549  bids[_poolId] */\n      dup2\n      mstore\n      0x20\n      add\n      swap1\n      dup2\n      mstore\n      0x20\n      add\n      0x00\n      keccak256\n        /* \"main.sol\":2536:2558  bids[_poolId][numBids] */\n      0x00\n        /* \"main.sol\":2550:2557  numBids */\n      dup5\n        /* \"main.sol\":2536:2558  bids[_poolId][numBids] */\n      dup2\n      mstore\n      0x20\n      add\n      swap1\n      dup2\n      mstore\n      0x20\n      add\n      0x00\n      keccak256\n        /* \"main.sol\":2536:2676  bids[_poolId][numBids] = Bid({... */\n      0x00\n      dup3\n      add\n      mload\n      dup2\n      0x00\n      add\n      sstore\n      0x20\n      dup3\n      add\n      mload\n      dup2\n      0x01\n      add\n      sstore\n      0x40\n      dup3\n      add\n      mload\n      dup2\n      0x02\n      add\n      exp(0x0100, 0x00)\n      dup2\n      sload\n      dup2\n      0xffffffffffffffffffffffffffffffffffffffff\n      mul\n      not\n      and\n      swap1\n      dup4\n      0xffffffffffffffffffffffffffffffffffffffff\n      and\n      mul\n      or\n      swap1\n      sstore\n      pop\n      swap1\n      pop\n      pop\n        /* \"main.sol\":1866:2683  {... */\n      pop\n      pop\n      pop\n        /* \"main.sol\":1810:2683  function bid(uint256 _poolId, uint256 _amount) external {... */\n      pop\n      pop\n      jump\t// out\n        /* \"main.sol\":3013:3490  function endLoan(uint256 _poolId) external onlyOwner(_poolId) {... */\n    tag_30:\n        /* \"main.sol\":3066:3073  _poolId */\n      dup1\n        /* \"main.sol\":1056:1066  msg.sender */\n      caller\n        /* \"main.sol\":1032:1066  loans[_poolId].owner == msg.sender */\n      0xffffffffffffffffffffffffffffffffffffffff\n      and\n        /* \"main.sol\":1032:1037  loans */\n      0x01\n        /* \"main.sol\":1032:1046  loans[_poolId] */\n      0x00\n        /* \"main.sol\":1038:1045  _poolId */\n      dup4\n        /* \"main.sol\":1032:1046  loans[_poolId] */\n      dup2\n      mstore\n      0x20\n      add\n      swap1\n      dup2\n      mstore\n      0x20\n      add\n      0x00\n      keccak256\n        /* \"main.sol\":1032:1052  loans[_poolId].owner */\n      0x00\n      add\n      0x00\n      swap1\n      sload\n      swap1\n      0x0100\n      exp\n      swap1\n      div\n      0xffffffffffffffffffffffffffffffffffffffff\n      and\n        /* \"main.sol\":1032:1066  loans[_poolId].owner == msg.sender */\n      0xffffffffffffffffffffffffffffffffffffffff\n      and\n      eq\n        /* \"main.sol\":1024:1085  require(loans[_poolId].owner == msg.sender, \"LAN: not owner\") */\n      tag_104\n      jumpi\n      mload(0x40)\n      0x08c379a000000000000000000000000000000000000000000000000000000000\n      dup2\n      mstore\n      0x04\n      add\n      tag_105\n      swap1\n      tag_53\n      jump\t// in\n    tag_105:\n      mload(0x40)\n      dup1\n      swap2\n      sub\n      swap1\n      revert\n    tag_104:\n        /* \"main.sol\":3085:3101  Loan memory loan */\n      0x00\n        /* \"main.sol\":3104:3109  loans */\n      0x01\n        /* \"main.sol\":3104:3118  loans[_poolId] */\n      0x00\n        /* \"main.sol\":3110:3117  _poolId */\n      dup5\n        /* \"main.sol\":3104:3118  loans[_poolId] */\n      dup2\n      mstore\n      0x20\n      add\n      swap1\n      dup2\n      mstore\n      0x20\n      add\n      0x00\n      keccak256\n        /* \"main.sol\":3085:3118  Loan memory loan = loans[_poolId] */\n      mload(0x40)\n      dup1\n      0x0100\n      add\n      0x40\n      mstore\n      swap1\n      dup2\n      0x00\n      dup3\n      add\n      0x00\n      swap1\n      sload\n      swap1\n      0x0100\n      exp\n      swap1\n      div\n      0xffffffffffffffffffffffffffffffffffffffff\n      and\n      0xffffffffffffffffffffffffffffffffffffffff\n      and\n      0xffffffffffffffffffffffffffffffffffffffff\n      and\n      dup2\n      mstore\n      0x20\n      add\n      0x01\n      dup3\n      add\n      0x00\n      swap1\n      sload\n      swap1\n      0x0100\n      exp\n      swap1\n      div\n      0xffffffffffffffffffffffffffffffffffffffff\n      and\n      0xffffffffffffffffffffffffffffffffffffffff\n      and\n      0xffffffffffffffffffffffffffffffffffffffff\n      and\n      dup2\n      mstore\n      0x20\n      add\n      0x02\n      dup3\n      add\n      0x00\n      swap1\n      sload\n      swap1\n      0x0100\n      exp\n      swap1\n      div\n      0xffffffffffffffffffffffffffffffffffffffff\n      and\n      0xffffffffffffffffffffffffffffffffffffffff\n      and\n      0xffffffffffffffffffffffffffffffffffffffff\n      and\n      dup2\n      mstore\n      0x20\n      add\n      0x03\n      dup3\n      add\n      sload\n      dup2\n      mstore\n      0x20\n      add\n      0x04\n      dup3\n      add\n      sload\n      dup2\n      mstore\n      0x20\n      add\n      0x05\n      dup3\n      add\n      sload\n      dup2\n      mstore\n      0x20\n      add\n      0x06\n      dup3\n      add\n      sload\n      dup2\n      mstore\n      0x20\n      add\n      0x07\n      dup3\n      add\n      sload\n      dup2\n      mstore\n      pop\n      pop\n      swap1\n      pop\n        /* \"main.sol\":3128:3148  Bid memory latestBid */\n      0x00\n        /* \"main.sol\":3151:3155  bids */\n      0x02\n        /* \"main.sol\":3151:3164  bids[_poolId] */\n      0x00\n        /* \"main.sol\":3156:3163  _poolId */\n      dup6\n        /* \"main.sol\":3151:3164  bids[_poolId] */\n      dup2\n      mstore\n      0x20\n      add\n      swap1\n      dup2\n      mstore\n      0x20\n      add\n      0x00\n      keccak256\n        /* \"main.sol\":3151:3178  bids[_poolId][loan.numBids] */\n      0x00\n        /* \"main.sol\":3165:3169  loan */\n      dup4\n        /* \"main.sol\":3165:3177  loan.numBids */\n      0xe0\n      add\n      mload\n        /* \"main.sol\":3151:3178  bids[_poolId][loan.numBids] */\n      dup2\n      mstore\n      0x20\n      add\n      swap1\n      dup2\n      mstore\n      0x20\n      add\n      0x00\n      keccak256\n        /* \"main.sol\":3128:3178  Bid memory latestBid = bids[_poolId][loan.numBids] */\n      mload(0x40)\n      dup1\n      0x60\n      add\n      0x40\n      mstore\n      swap1\n      dup2\n      0x00\n      dup3\n      add\n      sload\n      dup2\n      mstore\n      0x20\n      add\n      0x01\n      dup3\n      add\n      sload\n      dup2\n      mstore\n      0x20\n      add\n      0x02\n      dup3\n      add\n      0x00\n      swap1\n      sload\n      swap1\n      0x0100\n      exp\n      swap1\n      div\n      0xffffffffffffffffffffffffffffffffffffffff\n      and\n      0xffffffffffffffffffffffffffffffffffffffff\n      and\n      0xffffffffffffffffffffffffffffffffffffffff\n      and\n      dup2\n      mstore\n      pop\n      pop\n      swap1\n      pop\n        /* \"main.sol\":3239:3243  loan */\n      dup2\n        /* \"main.sol\":3239:3249  loan.token */\n      0x20\n      add\n      mload\n        /* \"main.sol\":3232:3263  IERC20(loan.token).transferFrom */\n      0xffffffffffffffffffffffffffffffffffffffff\n      and\n      0x23b872dd\n        /* \"main.sol\":3264:3274  msg.sender */\n      caller\n        /* \"main.sol\":3276:3285  latestBid */\n      dup4\n        /* \"main.sol\":3276:3290  latestBid.user */\n      0x40\n      add\n      mload\n        /* \"main.sol\":3292:3320  _calculateLoanValue(_poolId) */\n      tag_107\n        /* \"main.sol\":3312:3319  _poolId */\n      dup9\n        /* \"main.sol\":3292:3311  _calculateLoanValue */\n      tag_88\n        /* \"main.sol\":3292:3320  _calculateLoanValue(_poolId) */\n      jump\t// in\n    tag_107:\n        /* \"main.sol\":3232:3321  IERC20(loan.token).transferFrom(msg.sender, latestBid.user, _calculateLoanValue(_poolId)) */\n      mload(0x40)\n      dup5\n      0xffffffff\n      and\n      0xe0\n      shl\n      dup2\n      mstore\n      0x04\n      add\n      tag_108\n      swap4\n      swap3\n      swap2\n      swap1\n      tag_71\n      jump\t// in\n    tag_108:\n      0x20\n      mload(0x40)\n      dup1\n      dup4\n      sub\n      dup2\n      0x00\n      dup8\n      gas\n      call\n      iszero\n      dup1\n      iszero\n      tag_110\n      jumpi\n      returndatasize\n      0x00\n      dup1\n      returndatacopy\n      revert(0x00, returndatasize)\n    tag_110:\n      pop\n      pop\n      pop\n      pop\n      mload(0x40)\n      returndatasize\n      not(0x1f)\n      0x1f\n      dup3\n      add\n      and\n      dup3\n      add\n      dup1\n      0x40\n      mstore\n      pop\n      dup2\n      add\n      swap1\n      tag_111\n      swap2\n      swap1\n      tag_96\n      jump\t// in\n    tag_111:\n      pop\n        /* \"main.sol\":3369:3380  IERC721 NFT */\n      0x00\n        /* \"main.sol\":3391:3395  loan */\n      dup3\n        /* \"main.sol\":3391:3413  loan.collectionAddress */\n      0x40\n      add\n      mload\n        /* \"main.sol\":3369:3414  IERC721 NFT = IERC721(loan.collectionAddress) */\n      swap1\n      pop\n        /* \"main.sol\":3424:3427  NFT */\n      dup1\n        /* \"main.sol\":3424:3444  NFT.safeTransferFrom */\n      0xffffffffffffffffffffffffffffffffffffffff\n      and\n      0x42842e0e\n        /* \"main.sol\":3453:3457  this */\n      address\n        /* \"main.sol\":3460:3470  msg.sender */\n      caller\n        /* \"main.sol\":3472:3476  loan */\n      dup7\n        /* \"main.sol\":3472:3482  loan.nftId */\n      0x60\n      add\n      mload\n        /* \"main.sol\":3424:3483  NFT.safeTransferFrom(address(this), msg.sender, loan.nftId) */\n      mload(0x40)\n      dup5\n      0xffffffff\n      and\n      0xe0\n      shl\n      dup2\n      mstore\n      0x04\n      add\n      tag_112\n      swap4\n      swap3\n      swap2\n      swap1\n      tag_71\n      jump\t// in\n    tag_112:\n      0x00\n      mload(0x40)\n      dup1\n      dup4\n      sub\n      dup2\n      0x00\n      dup8\n      dup1\n      extcodesize\n      iszero\n      dup1\n      iszero\n      tag_113\n      jumpi\n      0x00\n      dup1\n      revert\n    tag_113:\n      pop\n      gas\n      call\n      iszero\n      dup1\n      iszero\n      tag_115\n      jumpi\n      returndatasize\n      0x00\n      dup1\n      returndatacopy\n      revert(0x00, returndatasize)\n    tag_115:\n      pop\n      pop\n      pop\n      pop\n        /* \"main.sol\":3075:3490  {... */\n      pop\n      pop\n      pop\n        /* \"main.sol\":3013:3490  function endLoan(uint256 _poolId) external onlyOwner(_poolId) {... */\n      pop\n      pop\n      jump\t// out\n        /* \"main.sol\":706:761  mapping(uint256 => mapping(uint256 => Bid)) public bids */\n    tag_33:\n      mstore(0x20, 0x02)\n      dup2\n      0x00\n      mstore\n      mstore(0x20, keccak256(0x00, 0x40))\n      dup1\n      0x00\n      mstore\n      keccak256(0x00, 0x40)\n      0x00\n      swap2\n      pop\n      swap2\n      pop\n      pop\n      dup1\n      0x00\n      add\n      sload\n      swap1\n      dup1\n      0x01\n      add\n      sload\n      swap1\n      dup1\n      0x02\n      add\n      0x00\n      swap1\n      sload\n      swap1\n      0x0100\n      exp\n      swap1\n      div\n      0xffffffffffffffffffffffffffffffffffffffff\n      and\n      swap1\n      pop\n      dup4\n      jump\t// out\n        /* \"main.sol\":843:900  mapping(uint256 => address[]) public whitelistedAddresses */\n    tag_38:\n      mstore(0x20, 0x03)\n      dup2\n      0x00\n      mstore\n      keccak256(0x00, 0x40)\n      dup2\n      dup2\n      sload\n      dup2\n      lt\n      tag_116\n      jumpi\n      0x00\n      dup1\n      revert\n    tag_116:\n      swap1\n      0x00\n      mstore\n      keccak256(0x00, 0x20)\n      add\n      0x00\n      swap2\n      pop\n      swap2\n      pop\n      swap1\n      sload\n      swap1\n      0x0100\n      exp\n      swap1\n      div\n      0xffffffffffffffffffffffffffffffffffffffff\n      and\n      dup2\n      jump\t// out\n        /* \"main.sol\":565:602  mapping(uint256 => Loan) public loans */\n    tag_43:\n      mstore(0x20, 0x01)\n      dup1\n      0x00\n      mstore\n      keccak256(0x00, 0x40)\n      0x00\n      swap2\n      pop\n      swap1\n      pop\n      dup1\n      0x00\n      add\n      0x00\n      swap1\n      sload\n      swap1\n      0x0100\n      exp\n      swap1\n      div\n      0xffffffffffffffffffffffffffffffffffffffff\n      and\n      swap1\n      dup1\n      0x01\n      add\n      0x00\n      swap1\n      sload\n      swap1\n      0x0100\n      exp\n      swap1\n      div\n      0xffffffffffffffffffffffffffffffffffffffff\n      and\n      swap1\n      dup1\n      0x02\n      add\n      0x00\n      swap1\n      sload\n      swap1\n      0x0100\n      exp\n      swap1\n      div\n      0xffffffffffffffffffffffffffffffffffffffff\n      and\n      swap1\n      dup1\n      0x03\n      add\n      sload\n      swap1\n      dup1\n      0x04\n      add\n      sload\n      swap1\n      dup1\n      0x05\n      add\n      sload\n      swap1\n      dup1\n      0x06\n      add\n      sload\n      swap1\n      dup1\n      0x07\n      add\n      sload\n      swap1\n      pop\n      dup9\n      jump\t// out\n        /* \"main.sol\":1109:1804  function launch(address _token, address _collectionAddress, uint256 _nftId, uint256 _startTime, uint256 _endTime, uint256 _apr) public {... */\n    tag_49:\n        /* \"main.sol\":1276:1291  block.timestamp */\n      timestamp\n        /* \"main.sol\":1262:1272  _startTime */\n      dup4\n        /* \"main.sol\":1262:1291  _startTime >= block.timestamp */\n      lt\n      iszero\n        /* \"main.sol\":1254:1319  require(_startTime >= block.timestamp, \"LAN: start time in past\") */\n      tag_119\n      jumpi\n      mload(0x40)\n      0x08c379a000000000000000000000000000000000000000000000000000000000\n      dup2\n      mstore\n      0x04\n      add\n      tag_120\n      swap1\n      tag_121\n      jump\t// in\n    tag_120:\n      mload(0x40)\n      dup1\n      swap2\n      sub\n      swap1\n      revert\n    tag_119:\n        /* \"main.sol\":1348:1358  _startTime */\n      dup3\n        /* \"main.sol\":1337:1345  _endTime */\n      dup3\n        /* \"main.sol\":1337:1358  _endTime > _startTime */\n      gt\n        /* \"main.sol\":1329:1383  require(_endTime > _startTime, \"LAN: start after end\") */\n      tag_122\n      jumpi\n      mload(0x40)\n      0x08c379a000000000000000000000000000000000000000000000000000000000\n      dup2\n      mstore\n      0x04\n      add\n      tag_123\n      swap1\n      tag_124\n      jump\t// in\n    tag_123:\n      mload(0x40)\n      dup1\n      swap2\n      sub\n      swap1\n      revert\n    tag_122:\n        /* \"main.sol\":1408:1673  Loan({... */\n      mload(0x40)\n      dup1\n      0x0100\n      add\n      0x40\n      mstore\n      dup1\n        /* \"main.sol\":1434:1444  msg.sender */\n      caller\n        /* \"main.sol\":1408:1673  Loan({... */\n      0xffffffffffffffffffffffffffffffffffffffff\n      and\n      dup2\n      mstore\n      0x20\n      add\n        /* \"main.sol\":1465:1471  _token */\n      dup8\n        /* \"main.sol\":1408:1673  Loan({... */\n      0xffffffffffffffffffffffffffffffffffffffff\n      and\n      dup2\n      mstore\n      0x20\n      add\n        /* \"main.sol\":1504:1522  _collectionAddress */\n      dup7\n        /* \"main.sol\":1408:1673  Loan({... */\n      0xffffffffffffffffffffffffffffffffffffffff\n      and\n      dup2\n      mstore\n      0x20\n      add\n        /* \"main.sol\":1543:1549  _nftId */\n      dup6\n        /* \"main.sol\":1408:1673  Loan({... */\n      dup2\n      mstore\n      0x20\n      add\n        /* \"main.sol\":1605:1615  _startTime */\n      dup5\n        /* \"main.sol\":1408:1673  Loan({... */\n      dup2\n      mstore\n      0x20\n      add\n        /* \"main.sol\":1572:1580  _endTime */\n      dup4\n        /* \"main.sol\":1408:1673  Loan({... */\n      dup2\n      mstore\n      0x20\n      add\n        /* \"main.sol\":1634:1638  _apr */\n      dup3\n        /* \"main.sol\":1408:1673  Loan({... */\n      dup2\n      mstore\n      0x20\n      add\n        /* \"main.sol\":1661:1662  0 */\n      0x00\n        /* \"main.sol\":1408:1673  Loan({... */\n      dup2\n      mstore\n      pop\n        /* \"main.sol\":1393:1398  loans */\n      0x01\n        /* \"main.sol\":1393:1405  loans[count] */\n      0x00\n        /* \"main.sol\":1399:1404  count */\n      dup1\n      sload\n        /* \"main.sol\":1393:1405  loans[count] */\n      dup2\n      mstore\n      0x20\n      add\n      swap1\n      dup2\n      mstore\n      0x20\n      add\n      0x00\n      keccak256\n        /* \"main.sol\":1393:1673  loans[count] = Loan({... */\n      0x00\n      dup3\n      add\n      mload\n      dup2\n      0x00\n      add\n      exp(0x0100, 0x00)\n      dup2\n      sload\n      dup2\n      0xffffffffffffffffffffffffffffffffffffffff\n      mul\n      not\n      and\n      swap1\n      dup4\n      0xffffffffffffffffffffffffffffffffffffffff\n      and\n      mul\n      or\n      swap1\n      sstore\n      pop\n      0x20\n      dup3\n      add\n      mload\n      dup2\n      0x01\n      add\n      exp(0x0100, 0x00)\n      dup2\n      sload\n      dup2\n      0xffffffffffffffffffffffffffffffffffffffff\n      mul\n      not\n      and\n      swap1\n      dup4\n      0xffffffffffffffffffffffffffffffffffffffff\n      and\n      mul\n      or\n      swap1\n      sstore\n      pop\n      0x40\n      dup3\n      add\n      mload\n      dup2\n      0x02\n      add\n      exp(0x0100, 0x00)\n      dup2\n      sload\n      dup2\n      0xffffffffffffffffffffffffffffffffffffffff\n      mul\n      not\n      and\n      swap1\n      dup4\n      0xffffffffffffffffffffffffffffffffffffffff\n      and\n      mul\n      or\n      swap1\n      sstore\n      pop\n      0x60\n      dup3\n      add\n      mload\n      dup2\n      0x03\n      add\n      sstore\n      0x80\n      dup3\n      add\n      mload\n      dup2\n      0x04\n      add\n      sstore\n      0xa0\n      dup3\n      add\n      mload\n      dup2\n      0x05\n      add\n      sstore\n      0xc0\n      dup3\n      add\n      mload\n      dup2\n      0x06\n      add\n      sstore\n      0xe0\n      dup3\n      add\n      mload\n      dup2\n      0x07\n      add\n      sstore\n      swap1\n      pop\n      pop\n        /* \"main.sol\":1708:1723  block.timestamp */\n      timestamp\n        /* \"main.sol\":1683:1687  bids */\n      0x02\n        /* \"main.sol\":1683:1694  bids[count] */\n      0x00\n        /* \"main.sol\":1688:1693  count */\n      dup1\n      sload\n        /* \"main.sol\":1683:1694  bids[count] */\n      dup2\n      mstore\n      0x20\n      add\n      swap1\n      dup2\n      mstore\n      0x20\n      add\n      0x00\n      keccak256\n        /* \"main.sol\":1683:1697  bids[count][0] */\n      0x00\n        /* \"main.sol\":1695:1696  0 */\n      dup1\n        /* \"main.sol\":1683:1697  bids[count][0] */\n      dup2\n      mstore\n      0x20\n      add\n      swap1\n      dup2\n      mstore\n      0x20\n      add\n      0x00\n      keccak256\n        /* \"main.sol\":1683:1705  bids[count][0].bidTime */\n      0x00\n      add\n        /* \"main.sol\":1683:1723  bids[count][0].bidTime = block.timestamp */\n      dup2\n      swap1\n      sstore\n      pop\n        /* \"main.sol\":1746:1751  count */\n      sload(0x00)\n        /* \"main.sol\":1738:1780  newPool(count, _collectionAddress, _nftId) */\n      0xef8b2952c43462575e82711d0cc91169720a4589a9fa533d173e022437f5405e\n        /* \"main.sol\":1753:1771  _collectionAddress */\n      dup7\n        /* \"main.sol\":1773:1779  _nftId */\n      dup7\n        /* \"main.sol\":1738:1780  newPool(count, _collectionAddress, _nftId) */\n      mload(0x40)\n      tag_125\n      swap3\n      swap2\n      swap1\n      tag_126\n      jump\t// in\n    tag_125:\n      mload(0x40)\n      dup1\n      swap2\n      sub\n      swap1\n      log2\n        /* \"main.sol\":1790:1795  count */\n      0x00\n      dup1\n        /* \"main.sol\":1790:1797  count++ */\n      dup2\n      sload\n      dup1\n      swap3\n      swap2\n      swap1\n      tag_127\n      swap1\n      tag_128\n      jump\t// in\n    tag_127:\n      swap2\n      swap1\n      pop\n      sstore\n      pop\n        /* \"main.sol\":1109:1804  function launch(address _token, address _collectionAddress, uint256 _nftId, uint256 _startTime, uint256 _endTime, uint256 _apr) public {... */\n      pop\n      pop\n      pop\n      pop\n      pop\n      pop\n      jump\t// out\n        /* \"main.sol\":4551:4677  function _ended(uint256 _poolId) internal view returns (bool){... */\n    tag_63:\n        /* \"main.sol\":4607:4611  bool */\n      0x00\n        /* \"main.sol\":4655:4670  block.timestamp */\n      timestamp\n        /* \"main.sol\":4629:4634  loans */\n      0x01\n        /* \"main.sol\":4629:4643  loans[_poolId] */\n      0x00\n        /* \"main.sol\":4635:4642  _poolId */\n      dup5\n        /* \"main.sol\":4629:4643  loans[_poolId] */\n      dup2\n      mstore\n      0x20\n      add\n      swap1\n      dup2\n      mstore\n      0x20\n      add\n      0x00\n      keccak256\n        /* \"main.sol\":4629:4651  loans[_poolId].endTime */\n      0x05\n      add\n      sload\n        /* \"main.sol\":4629:4670  loans[_poolId].endTime <= block.timestamp */\n      gt\n      iszero\n        /* \"main.sol\":4622:4670  return loans[_poolId].endTime <= block.timestamp */\n      swap1\n      pop\n        /* \"main.sol\":4551:4677  function _ended(uint256 _poolId) internal view returns (bool){... */\n      swap2\n      swap1\n      pop\n      jump\t// out\n        /* \"main.sol\":4682:4811  function _started(uint256 _poolId) internal view returns (bool){... */\n    tag_77:\n        /* \"main.sol\":4740:4744  bool */\n      0x00\n        /* \"main.sol\":4789:4804  block.timestamp */\n      timestamp\n        /* \"main.sol\":4762:4767  loans */\n      0x01\n        /* \"main.sol\":4762:4776  loans[_poolId] */\n      0x00\n        /* \"main.sol\":4768:4775  _poolId */\n      dup5\n        /* \"main.sol\":4762:4776  loans[_poolId] */\n      dup2\n      mstore\n      0x20\n      add\n      swap1\n      dup2\n      mstore\n      0x20\n      add\n      0x00\n      keccak256\n        /* \"main.sol\":4762:4786  loans[_poolId].startTime */\n      0x04\n      add\n      sload\n        /* \"main.sol\":4762:4804  loans[_poolId].startTime < block.timestamp */\n      lt\n        /* \"main.sol\":4755:4804  return loans[_poolId].startTime < block.timestamp */\n      swap1\n      pop\n        /* \"main.sol\":4682:4811  function _started(uint256 _poolId) internal view returns (bool){... */\n      swap2\n      swap1\n      pop\n      jump\t// out\n        /* \"main.sol\":4032:4545  function _calculateLoanValue(uint256 _poolId) internal view returns (uint256){... */\n    tag_88:\n        /* \"main.sol\":4101:4108  uint256 */\n      0x00\n        /* \"main.sol\":4119:4135  Loan memory loan */\n      dup1\n        /* \"main.sol\":4138:4143  loans */\n      0x01\n        /* \"main.sol\":4138:4152  loans[_poolId] */\n      0x00\n        /* \"main.sol\":4144:4151  _poolId */\n      dup5\n        /* \"main.sol\":4138:4152  loans[_poolId] */\n      dup2\n      mstore\n      0x20\n      add\n      swap1\n      dup2\n      mstore\n      0x20\n      add\n      0x00\n      keccak256\n        /* \"main.sol\":4119:4152  Loan memory loan = loans[_poolId] */\n      mload(0x40)\n      dup1\n      0x0100\n      add\n      0x40\n      mstore\n      swap1\n      dup2\n      0x00\n      dup3\n      add\n      0x00\n      swap1\n      sload\n      swap1\n      0x0100\n      exp\n      swap1\n      div\n      0xffffffffffffffffffffffffffffffffffffffff\n      and\n      0xffffffffffffffffffffffffffffffffffffffff\n      and\n      0xffffffffffffffffffffffffffffffffffffffff\n      and\n      dup2\n      mstore\n      0x20\n      add\n      0x01\n      dup3\n      add\n      0x00\n      swap1\n      sload\n      swap1\n      0x0100\n      exp\n      swap1\n      div\n      0xffffffffffffffffffffffffffffffffffffffff\n      and\n      0xffffffffffffffffffffffffffffffffffffffff\n      and\n      0xffffffffffffffffffffffffffffffffffffffff\n      and\n      dup2\n      mstore\n      0x20\n      add\n      0x02\n      dup3\n      add\n      0x00\n      swap1\n      sload\n      swap1\n      0x0100\n      exp\n      swap1\n      div\n      0xffffffffffffffffffffffffffffffffffffffff\n      and\n      0xffffffffffffffffffffffffffffffffffffffff\n      and\n      0xffffffffffffffffffffffffffffffffffffffff\n      and\n      dup2\n      mstore\n      0x20\n      add\n      0x03\n      dup3\n      add\n      sload\n      dup2\n      mstore\n      0x20\n      add\n      0x04\n      dup3\n      add\n      sload\n      dup2\n      mstore\n      0x20\n      add\n      0x05\n      dup3\n      add\n      sload\n      dup2\n      mstore\n      0x20\n      add\n      0x06\n      dup3\n      add\n      sload\n      dup2\n      mstore\n      0x20\n      add\n      0x07\n      dup3\n      add\n      sload\n      dup2\n      mstore\n      pop\n      pop\n      swap1\n      pop\n        /* \"main.sol\":4162:4182  Bid memory latestBid */\n      0x00\n        /* \"main.sol\":4185:4189  bids */\n      0x02\n        /* \"main.sol\":4185:4198  bids[_poolId] */\n      0x00\n        /* \"main.sol\":4190:4197  _poolId */\n      dup6\n        /* \"main.sol\":4185:4198  bids[_poolId] */\n      dup2\n      mstore\n      0x20\n      add\n      swap1\n      dup2\n      mstore\n      0x20\n      add\n      0x00\n      keccak256\n        /* \"main.sol\":4185:4212  bids[_poolId][loan.numBids] */\n      0x00\n        /* \"main.sol\":4199:4203  loan */\n      dup4\n        /* \"main.sol\":4199:4211  loan.numBids */\n      0xe0\n      add\n      mload\n        /* \"main.sol\":4185:4212  bids[_poolId][loan.numBids] */\n      dup2\n      mstore\n      0x20\n      add\n      swap1\n      dup2\n      mstore\n      0x20\n      add\n      0x00\n      keccak256\n        /* \"main.sol\":4162:4212  Bid memory latestBid = bids[_poolId][loan.numBids] */\n      mload(0x40)\n      dup1\n      0x60\n      add\n      0x40\n      mstore\n      swap1\n      dup2\n      0x00\n      dup3\n      add\n      sload\n      dup2\n      mstore\n      0x20\n      add\n      0x01\n      dup3\n      add\n      sload\n      dup2\n      mstore\n      0x20\n      add\n      0x02\n      dup3\n      add\n      0x00\n      swap1\n      sload\n      swap1\n      0x0100\n      exp\n      swap1\n      div\n      0xffffffffffffffffffffffffffffffffffffffff\n      and\n      0xffffffffffffffffffffffffffffffffffffffff\n      and\n      0xffffffffffffffffffffffffffffffffffffffff\n      and\n      dup2\n      mstore\n      pop\n      pop\n      swap1\n      pop\n        /* \"main.sol\":4222:4241  uint256 timeElapsed */\n      0x00\n        /* \"main.sol\":4254:4269  _ended(_poolId) */\n      tag_132\n        /* \"main.sol\":4261:4268  _poolId */\n      dup6\n        /* \"main.sol\":4254:4260  _ended */\n      tag_63\n        /* \"main.sol\":4254:4269  _ended(_poolId) */\n      jump\t// in\n    tag_132:\n        /* \"main.sol\":4251:4423  if(_ended(_poolId)){... */\n      iszero\n      tag_133\n      jumpi\n        /* \"main.sol\":4319:4323  loan */\n      dup3\n        /* \"main.sol\":4319:4331  loan.endTime */\n      0xa0\n      add\n      mload\n        /* \"main.sol\":4299:4308  latestBid */\n      dup3\n        /* \"main.sol\":4299:4316  latestBid.bidTime */\n      0x00\n      add\n      mload\n        /* \"main.sol\":4299:4331  latestBid.bidTime - loan.endTime */\n      tag_134\n      swap2\n      swap1\n      tag_98\n      jump\t// in\n    tag_134:\n        /* \"main.sol\":4284:4331  timeElapsed =  latestBid.bidTime - loan.endTime */\n      swap1\n      pop\n        /* \"main.sol\":4251:4423  if(_ended(_poolId)){... */\n      jump(tag_135)\n    tag_133:\n        /* \"main.sol\":4397:4412  block.timestamp */\n      timestamp\n        /* \"main.sol\":4377:4386  latestBid */\n      dup3\n        /* \"main.sol\":4377:4394  latestBid.bidTime */\n      0x00\n      add\n      mload\n        /* \"main.sol\":4377:4412  latestBid.bidTime - block.timestamp */\n      tag_136\n      swap2\n      swap1\n      tag_98\n      jump\t// in\n    tag_136:\n        /* \"main.sol\":4362:4412  timeElapsed =  latestBid.bidTime - block.timestamp */\n      swap1\n      pop\n        /* \"main.sol\":4251:4423  if(_ended(_poolId)){... */\n    tag_135:\n        /* \"main.sol\":960:972  60*60*24*365 */\n      0x01e13380\n        /* \"main.sol\":4505:4516  timeElapsed */\n      dup2\n        /* \"main.sol\":4494:4502  10 ** 18 */\n      0x0de0b6b3a7640000\n        /* \"main.sol\":4483:4487  loan */\n      dup6\n        /* \"main.sol\":4483:4491  loan.apr */\n      0xc0\n      add\n      mload\n        /* \"main.sol\":4461:4470  latestBid */\n      dup6\n        /* \"main.sol\":4461:4480  latestBid.bidAmount */\n      0x20\n      add\n      mload\n        /* \"main.sol\":4461:4491  latestBid.bidAmount * loan.apr */\n      tag_137\n      swap2\n      swap1\n      tag_138\n      jump\t// in\n    tag_137:\n        /* \"main.sol\":4461:4502  latestBid.bidAmount * loan.apr / 10 ** 18 */\n      tag_139\n      swap2\n      swap1\n      tag_140\n      jump\t// in\n    tag_139:\n        /* \"main.sol\":4461:4516  latestBid.bidAmount * loan.apr / 10 ** 18 * timeElapsed */\n      tag_141\n      swap2\n      swap1\n      tag_138\n      jump\t// in\n    tag_141:\n        /* \"main.sol\":4461:4538  latestBid.bidAmount * loan.apr / 10 ** 18 * timeElapsed / SECONDS_IN_ONE_YEAR */\n      tag_142\n      swap2\n      swap1\n      tag_140\n      jump\t// in\n    tag_142:\n        /* \"main.sol\":4439:4448  latestBid */\n      dup3\n        /* \"main.sol\":4439:4458  latestBid.bidAmount */\n      0x20\n      add\n      mload\n        /* \"main.sol\":4439:4538  latestBid.bidAmount + latestBid.bidAmount * loan.apr / 10 ** 18 * timeElapsed / SECONDS_IN_ONE_YEAR */\n      tag_143\n      swap2\n      swap1\n      tag_86\n      jump\t// in\n    tag_143:\n        /* \"main.sol\":4432:4538  return latestBid.bidAmount + latestBid.bidAmount * loan.apr / 10 ** 18 * timeElapsed / SECONDS_IN_ONE_YEAR */\n      swap4\n      pop\n      pop\n      pop\n      pop\n        /* \"main.sol\":4032:4545  function _calculateLoanValue(uint256 _poolId) internal view returns (uint256){... */\n      swap2\n      swap1\n      pop\n      jump\t// out\n    tag_59:\n      mload(0x40)\n      dup1\n      0x0100\n      add\n      0x40\n      mstore\n      dup1\n      and(0xffffffffffffffffffffffffffffffffffffffff, 0x00)\n      dup2\n      mstore\n      0x20\n      add\n      and(0xffffffffffffffffffffffffffffffffffffffff, 0x00)\n      dup2\n      mstore\n      0x20\n      add\n      and(0xffffffffffffffffffffffffffffffffffffffff, 0x00)\n      dup2\n      mstore\n      0x20\n      add\n      0x00\n      dup2\n      mstore\n      0x20\n      add\n      0x00\n      dup2\n      mstore\n      0x20\n      add\n      0x00\n      dup2\n      mstore\n      0x20\n      add\n      0x00\n      dup2\n      mstore\n      0x20\n      add\n      0x00\n      dup2\n      mstore\n      pop\n      swap1\n      jump\t// out\n        /* \"#utility.yul\":7:84   */\n    tag_144:\n        /* \"#utility.yul\":44:51   */\n      0x00\n        /* \"#utility.yul\":73:78   */\n      dup2\n        /* \"#utility.yul\":62:78   */\n      swap1\n      pop\n        /* \"#utility.yul\":7:84   */\n      swap2\n      swap1\n      pop\n      jump\t// out\n        /* \"#utility.yul\":90:208   */\n    tag_145:\n        /* \"#utility.yul\":177:201   */\n      tag_183\n        /* \"#utility.yul\":195:200   */\n      dup2\n        /* \"#utility.yul\":177:201   */\n      tag_144\n      jump\t// in\n    tag_183:\n        /* \"#utility.yul\":172:175   */\n      dup3\n        /* \"#utility.yul\":165:202   */\n      mstore\n        /* \"#utility.yul\":90:208   */\n      pop\n      pop\n      jump\t// out\n        /* \"#utility.yul\":214:436   */\n    tag_16:\n        /* \"#utility.yul\":307:311   */\n      0x00\n        /* \"#utility.yul\":345:347   */\n      0x20\n        /* \"#utility.yul\":334:343   */\n      dup3\n        /* \"#utility.yul\":330:348   */\n      add\n        /* \"#utility.yul\":322:348   */\n      swap1\n      pop\n        /* \"#utility.yul\":358:429   */\n      tag_185\n        /* \"#utility.yul\":426:427   */\n      0x00\n        /* \"#utility.yul\":415:424   */\n      dup4\n        /* \"#utility.yul\":411:428   */\n      add\n        /* \"#utility.yul\":402:408   */\n      dup5\n        /* \"#utility.yul\":358:429   */\n      tag_145\n      jump\t// in\n    tag_185:\n        /* \"#utility.yul\":214:436   */\n      swap3\n      swap2\n      pop\n      pop\n      jump\t// out\n        /* \"#utility.yul\":523:640   */\n    tag_147:\n        /* \"#utility.yul\":632:633   */\n      0x00\n        /* \"#utility.yul\":629:630   */\n      dup1\n        /* \"#utility.yul\":622:634   */\n      revert\n        /* \"#utility.yul\":769:891   */\n    tag_149:\n        /* \"#utility.yul\":842:866   */\n      tag_190\n        /* \"#utility.yul\":860:865   */\n      dup2\n        /* \"#utility.yul\":842:866   */\n      tag_144\n      jump\t// in\n    tag_190:\n        /* \"#utility.yul\":835:840   */\n      dup2\n        /* \"#utility.yul\":832:867   */\n      eq\n        /* \"#utility.yul\":822:885   */\n      tag_191\n      jumpi\n        /* \"#utility.yul\":881:882   */\n      0x00\n        /* \"#utility.yul\":878:879   */\n      dup1\n        /* \"#utility.yul\":871:883   */\n      revert\n        /* \"#utility.yul\":822:885   */\n    tag_191:\n        /* \"#utility.yul\":769:891   */\n      pop\n      jump\t// out\n        /* \"#utility.yul\":897:1036   */\n    tag_150:\n        /* \"#utility.yul\":943:948   */\n      0x00\n        /* \"#utility.yul\":981:987   */\n      dup2\n        /* \"#utility.yul\":968:988   */\n      calldataload\n        /* \"#utility.yul\":959:988   */\n      swap1\n      pop\n        /* \"#utility.yul\":997:1030   */\n      tag_193\n        /* \"#utility.yul\":1024:1029   */\n      dup2\n        /* \"#utility.yul\":997:1030   */\n      tag_149\n      jump\t// in\n    tag_193:\n        /* \"#utility.yul\":897:1036   */\n      swap3\n      swap2\n      pop\n      pop\n      jump\t// out\n        /* \"#utility.yul\":1042:1371   */\n    tag_19:\n        /* \"#utility.yul\":1101:1107   */\n      0x00\n        /* \"#utility.yul\":1150:1152   */\n      0x20\n        /* \"#utility.yul\":1138:1147   */\n      dup3\n        /* \"#utility.yul\":1129:1136   */\n      dup5\n        /* \"#utility.yul\":1125:1148   */\n      sub\n        /* \"#utility.yul\":1121:1153   */\n      slt\n        /* \"#utility.yul\":1118:1237   */\n      iszero\n      tag_195\n      jumpi\n        /* \"#utility.yul\":1156:1235   */\n      tag_196\n      tag_147\n      jump\t// in\n    tag_196:\n        /* \"#utility.yul\":1118:1237   */\n    tag_195:\n        /* \"#utility.yul\":1276:1277   */\n      0x00\n        /* \"#utility.yul\":1301:1354   */\n      tag_197\n        /* \"#utility.yul\":1346:1353   */\n      dup5\n        /* \"#utility.yul\":1337:1343   */\n      dup3\n        /* \"#utility.yul\":1326:1335   */\n      dup6\n        /* \"#utility.yul\":1322:1344   */\n      add\n        /* \"#utility.yul\":1301:1354   */\n      tag_150\n      jump\t// in\n    tag_197:\n        /* \"#utility.yul\":1291:1354   */\n      swap2\n      pop\n        /* \"#utility.yul\":1247:1364   */\n      pop\n        /* \"#utility.yul\":1042:1371   */\n      swap3\n      swap2\n      pop\n      pop\n      jump\t// out\n        /* \"#utility.yul\":1377:1851   */\n    tag_26:\n        /* \"#utility.yul\":1445:1451   */\n      0x00\n        /* \"#utility.yul\":1453:1459   */\n      dup1\n        /* \"#utility.yul\":1502:1504   */\n      0x40\n        /* \"#utility.yul\":1490:1499   */\n      dup4\n        /* \"#utility.yul\":1481:1488   */\n      dup6\n        /* \"#utility.yul\":1477:1500   */\n      sub\n        /* \"#utility.yul\":1473:1505   */\n      slt\n        /* \"#utility.yul\":1470:1589   */\n      iszero\n      tag_199\n      jumpi\n        /* \"#utility.yul\":1508:1587   */\n      tag_200\n      tag_147\n      jump\t// in\n    tag_200:\n        /* \"#utility.yul\":1470:1589   */\n    tag_199:\n        /* \"#utility.yul\":1628:1629   */\n      0x00\n        /* \"#utility.yul\":1653:1706   */\n      tag_201\n        /* \"#utility.yul\":1698:1705   */\n      dup6\n        /* \"#utility.yul\":1689:1695   */\n      dup3\n        /* \"#utility.yul\":1678:1687   */\n      dup7\n        /* \"#utility.yul\":1674:1696   */\n      add\n        /* \"#utility.yul\":1653:1706   */\n      tag_150\n      jump\t// in\n    tag_201:\n        /* \"#utility.yul\":1643:1706   */\n      swap3\n      pop\n        /* \"#utility.yul\":1599:1716   */\n      pop\n        /* \"#utility.yul\":1755:1757   */\n      0x20\n        /* \"#utility.yul\":1781:1834   */\n      tag_202\n        /* \"#utility.yul\":1826:1833   */\n      dup6\n        /* \"#utility.yul\":1817:1823   */\n      dup3\n        /* \"#utility.yul\":1806:1815   */\n      dup7\n        /* \"#utility.yul\":1802:1824   */\n      add\n        /* \"#utility.yul\":1781:1834   */\n      tag_150\n      jump\t// in\n    tag_202:\n        /* \"#utility.yul\":1771:1834   */\n      swap2\n      pop\n        /* \"#utility.yul\":1726:1844   */\n      pop\n        /* \"#utility.yul\":1377:1851   */\n      swap3\n      pop\n      swap3\n      swap1\n      pop\n      jump\t// out\n        /* \"#utility.yul\":1857:1983   */\n    tag_151:\n        /* \"#utility.yul\":1894:1901   */\n      0x00\n        /* \"#utility.yul\":1934:1976   */\n      0xffffffffffffffffffffffffffffffffffffffff\n        /* \"#utility.yul\":1927:1932   */\n      dup3\n        /* \"#utility.yul\":1923:1977   */\n      and\n        /* \"#utility.yul\":1912:1977   */\n      swap1\n      pop\n        /* \"#utility.yul\":1857:1983   */\n      swap2\n      swap1\n      pop\n      jump\t// out\n        /* \"#utility.yul\":1989:2085   */\n    tag_152:\n        /* \"#utility.yul\":2026:2033   */\n      0x00\n        /* \"#utility.yul\":2055:2079   */\n      tag_205\n        /* \"#utility.yul\":2073:2078   */\n      dup3\n        /* \"#utility.yul\":2055:2079   */\n      tag_151\n      jump\t// in\n    tag_205:\n        /* \"#utility.yul\":2044:2079   */\n      swap1\n      pop\n        /* \"#utility.yul\":1989:2085   */\n      swap2\n      swap1\n      pop\n      jump\t// out\n        /* \"#utility.yul\":2091:2209   */\n    tag_153:\n        /* \"#utility.yul\":2178:2202   */\n      tag_207\n        /* \"#utility.yul\":2196:2201   */\n      dup2\n        /* \"#utility.yul\":2178:2202   */\n      tag_152\n      jump\t// in\n    tag_207:\n        /* \"#utility.yul\":2173:2176   */\n      dup3\n        /* \"#utility.yul\":2166:2203   */\n      mstore\n        /* \"#utility.yul\":2091:2209   */\n      pop\n      pop\n      jump\t// out\n        /* \"#utility.yul\":2215:2657   */\n    tag_35:\n        /* \"#utility.yul\":2364:2368   */\n      0x00\n        /* \"#utility.yul\":2402:2404   */\n      0x60\n        /* \"#utility.yul\":2391:2400   */\n      dup3\n        /* \"#utility.yul\":2387:2405   */\n      add\n        /* \"#utility.yul\":2379:2405   */\n      swap1\n      pop\n        /* \"#utility.yul\":2415:2486   */\n      tag_209\n        /* \"#utility.yul\":2483:2484   */\n      0x00\n        /* \"#utility.yul\":2472:2481   */\n      dup4\n        /* \"#utility.yul\":2468:2485   */\n      add\n        /* \"#utility.yul\":2459:2465   */\n      dup7\n        /* \"#utility.yul\":2415:2486   */\n      tag_145\n      jump\t// in\n    tag_209:\n        /* \"#utility.yul\":2496:2568   */\n      tag_210\n        /* \"#utility.yul\":2564:2566   */\n      0x20\n        /* \"#utility.yul\":2553:2562   */\n      dup4\n        /* \"#utility.yul\":2549:2567   */\n      add\n        /* \"#utility.yul\":2540:2546   */\n      dup6\n        /* \"#utility.yul\":2496:2568   */\n      tag_145\n      jump\t// in\n    tag_210:\n        /* \"#utility.yul\":2578:2650   */\n      tag_211\n        /* \"#utility.yul\":2646:2648   */\n      0x40\n        /* \"#utility.yul\":2635:2644   */\n      dup4\n        /* \"#utility.yul\":2631:2649   */\n      add\n        /* \"#utility.yul\":2622:2628   */\n      dup5\n        /* \"#utility.yul\":2578:2650   */\n      tag_153\n      jump\t// in\n    tag_211:\n        /* \"#utility.yul\":2215:2657   */\n      swap5\n      swap4\n      pop\n      pop\n      pop\n      pop\n      jump\t// out\n        /* \"#utility.yul\":2663:2885   */\n    tag_40:\n        /* \"#utility.yul\":2756:2760   */\n      0x00\n        /* \"#utility.yul\":2794:2796   */\n      0x20\n        /* \"#utility.yul\":2783:2792   */\n      dup3\n        /* \"#utility.yul\":2779:2797   */\n      add\n        /* \"#utility.yul\":2771:2797   */\n      swap1\n      pop\n        /* \"#utility.yul\":2807:2878   */\n      tag_213\n        /* \"#utility.yul\":2875:2876   */\n      0x00\n        /* \"#utility.yul\":2864:2873   */\n      dup4\n        /* \"#utility.yul\":2860:2877   */\n      add\n        /* \"#utility.yul\":2851:2857   */\n      dup5\n        /* \"#utility.yul\":2807:2878   */\n      tag_153\n      jump\t// in\n    tag_213:\n        /* \"#utility.yul\":2663:2885   */\n      swap3\n      swap2\n      pop\n      pop\n      jump\t// out\n        /* \"#utility.yul\":2891:3888   */\n    tag_45:\n        /* \"#utility.yul\":3180:3184   */\n      0x00\n        /* \"#utility.yul\":3218:3221   */\n      0x0100\n        /* \"#utility.yul\":3207:3216   */\n      dup3\n        /* \"#utility.yul\":3203:3222   */\n      add\n        /* \"#utility.yul\":3195:3222   */\n      swap1\n      pop\n        /* \"#utility.yul\":3232:3303   */\n      tag_215\n        /* \"#utility.yul\":3300:3301   */\n      0x00\n        /* \"#utility.yul\":3289:3298   */\n      dup4\n        /* \"#utility.yul\":3285:3302   */\n      add\n        /* \"#utility.yul\":3276:3282   */\n      dup12\n        /* \"#utility.yul\":3232:3303   */\n      tag_153\n      jump\t// in\n    tag_215:\n        /* \"#utility.yul\":3313:3385   */\n      tag_216\n        /* \"#utility.yul\":3381:3383   */\n      0x20\n        /* \"#utility.yul\":3370:3379   */\n      dup4\n        /* \"#utility.yul\":3366:3384   */\n      add\n        /* \"#utility.yul\":3357:3363   */\n      dup11\n        /* \"#utility.yul\":3313:3385   */\n      tag_153\n      jump\t// in\n    tag_216:\n        /* \"#utility.yul\":3395:3467   */\n      tag_217\n        /* \"#utility.yul\":3463:3465   */\n      0x40\n        /* \"#utility.yul\":3452:3461   */\n      dup4\n        /* \"#utility.yul\":3448:3466   */\n      add\n        /* \"#utility.yul\":3439:3445   */\n      dup10\n        /* \"#utility.yul\":3395:3467   */\n      tag_153\n      jump\t// in\n    tag_217:\n        /* \"#utility.yul\":3477:3549   */\n      tag_218\n        /* \"#utility.yul\":3545:3547   */\n      0x60\n        /* \"#utility.yul\":3534:3543   */\n      dup4\n        /* \"#utility.yul\":3530:3548   */\n      add\n        /* \"#utility.yul\":3521:3527   */\n      dup9\n        /* \"#utility.yul\":3477:3549   */\n      tag_145\n      jump\t// in\n    tag_218:\n        /* \"#utility.yul\":3559:3632   */\n      tag_219\n        /* \"#utility.yul\":3627:3630   */\n      0x80\n        /* \"#utility.yul\":3616:3625   */\n      dup4\n        /* \"#utility.yul\":3612:3631   */\n      add\n        /* \"#utility.yul\":3603:3609   */\n      dup8\n        /* \"#utility.yul\":3559:3632   */\n      tag_145\n      jump\t// in\n    tag_219:\n        /* \"#utility.yul\":3642:3715   */\n      tag_220\n        /* \"#utility.yul\":3710:3713   */\n      0xa0\n        /* \"#utility.yul\":3699:3708   */\n      dup4\n        /* \"#utility.yul\":3695:3714   */\n      add\n        /* \"#utility.yul\":3686:3692   */\n      dup7\n        /* \"#utility.yul\":3642:3715   */\n      tag_145\n      jump\t// in\n    tag_220:\n        /* \"#utility.yul\":3725:3798   */\n      tag_221\n        /* \"#utility.yul\":3793:3796   */\n      0xc0\n        /* \"#utility.yul\":3782:3791   */\n      dup4\n        /* \"#utility.yul\":3778:3797   */\n      add\n        /* \"#utility.yul\":3769:3775   */\n      dup6\n        /* \"#utility.yul\":3725:3798   */\n      tag_145\n      jump\t// in\n    tag_221:\n        /* \"#utility.yul\":3808:3881   */\n      tag_222\n        /* \"#utility.yul\":3876:3879   */\n      0xe0\n        /* \"#utility.yul\":3865:3874   */\n      dup4\n        /* \"#utility.yul\":3861:3880   */\n      add\n        /* \"#utility.yul\":3852:3858   */\n      dup5\n        /* \"#utility.yul\":3808:3881   */\n      tag_145\n      jump\t// in\n    tag_222:\n        /* \"#utility.yul\":2891:3888   */\n      swap10\n      swap9\n      pop\n      pop\n      pop\n      pop\n      pop\n      pop\n      pop\n      pop\n      pop\n      jump\t// out\n        /* \"#utility.yul\":3894:4016   */\n    tag_154:\n        /* \"#utility.yul\":3967:3991   */\n      tag_224\n        /* \"#utility.yul\":3985:3990   */\n      dup2\n        /* \"#utility.yul\":3967:3991   */\n      tag_152\n      jump\t// in\n    tag_224:\n        /* \"#utility.yul\":3960:3965   */\n      dup2\n        /* \"#utility.yul\":3957:3992   */\n      eq\n        /* \"#utility.yul\":3947:4010   */\n      tag_225\n      jumpi\n        /* \"#utility.yul\":4006:4007   */\n      0x00\n        /* \"#utility.yul\":4003:4004   */\n      dup1\n        /* \"#utility.yul\":3996:4008   */\n      revert\n        /* \"#utility.yul\":3947:4010   */\n    tag_225:\n        /* \"#utility.yul\":3894:4016   */\n      pop\n      jump\t// out\n        /* \"#utility.yul\":4022:4161   */\n    tag_155:\n        /* \"#utility.yul\":4068:4073   */\n      0x00\n        /* \"#utility.yul\":4106:4112   */\n      dup2\n        /* \"#utility.yul\":4093:4113   */\n      calldataload\n        /* \"#utility.yul\":4084:4113   */\n      swap1\n      pop\n        /* \"#utility.yul\":4122:4155   */\n      tag_227\n        /* \"#utility.yul\":4149:4154   */\n      dup2\n        /* \"#utility.yul\":4122:4155   */\n      tag_154\n      jump\t// in\n    tag_227:\n        /* \"#utility.yul\":4022:4161   */\n      swap3\n      swap2\n      pop\n      pop\n      jump\t// out\n        /* \"#utility.yul\":4167:5224   */\n    tag_48:\n        /* \"#utility.yul\":4271:4277   */\n      0x00\n        /* \"#utility.yul\":4279:4285   */\n      dup1\n        /* \"#utility.yul\":4287:4293   */\n      0x00\n        /* \"#utility.yul\":4295:4301   */\n      dup1\n        /* \"#utility.yul\":4303:4309   */\n      0x00\n        /* \"#utility.yul\":4311:4317   */\n      dup1\n        /* \"#utility.yul\":4360:4363   */\n      0xc0\n        /* \"#utility.yul\":4348:4357   */\n      dup8\n        /* \"#utility.yul\":4339:4346   */\n      dup10\n        /* \"#utility.yul\":4335:4358   */\n      sub\n        /* \"#utility.yul\":4331:4364   */\n      slt\n        /* \"#utility.yul\":4328:4448   */\n      iszero\n      tag_229\n      jumpi\n        /* \"#utility.yul\":4367:4446   */\n      tag_230\n      tag_147\n      jump\t// in\n    tag_230:\n        /* \"#utility.yul\":4328:4448   */\n    tag_229:\n        /* \"#utility.yul\":4487:4488   */\n      0x00\n        /* \"#utility.yul\":4512:4565   */\n      tag_231\n        /* \"#utility.yul\":4557:4564   */\n      dup10\n        /* \"#utility.yul\":4548:4554   */\n      dup3\n        /* \"#utility.yul\":4537:4546   */\n      dup11\n        /* \"#utility.yul\":4533:4555   */\n      add\n        /* \"#utility.yul\":4512:4565   */\n      tag_155\n      jump\t// in\n    tag_231:\n        /* \"#utility.yul\":4502:4565   */\n      swap7\n      pop\n        /* \"#utility.yul\":4458:4575   */\n      pop\n        /* \"#utility.yul\":4614:4616   */\n      0x20\n        /* \"#utility.yul\":4640:4693   */\n      tag_232\n        /* \"#utility.yul\":4685:4692   */\n      dup10\n        /* \"#utility.yul\":4676:4682   */\n      dup3\n        /* \"#utility.yul\":4665:4674   */\n      dup11\n        /* \"#utility.yul\":4661:4683   */\n      add\n        /* \"#utility.yul\":4640:4693   */\n      tag_155\n      jump\t// in\n    tag_232:\n        /* \"#utility.yul\":4630:4693   */\n      swap6\n      pop\n        /* \"#utility.yul\":4585:4703   */\n      pop\n        /* \"#utility.yul\":4742:4744   */\n      0x40\n        /* \"#utility.yul\":4768:4821   */\n      tag_233\n        /* \"#utility.yul\":4813:4820   */\n      dup10\n        /* \"#utility.yul\":4804:4810   */\n      dup3\n        /* \"#utility.yul\":4793:4802   */\n      dup11\n        /* \"#utility.yul\":4789:4811   */\n      add\n        /* \"#utility.yul\":4768:4821   */\n      tag_150\n      jump\t// in\n    tag_233:\n        /* \"#utility.yul\":4758:4821   */\n      swap5\n      pop\n        /* \"#utility.yul\":4713:4831   */\n      pop\n        /* \"#utility.yul\":4870:4872   */\n      0x60\n        /* \"#utility.yul\":4896:4949   */\n      tag_234\n        /* \"#utility.yul\":4941:4948   */\n      dup10\n        /* \"#utility.yul\":4932:4938   */\n      dup3\n        /* \"#utility.yul\":4921:4930   */\n      dup11\n        /* \"#utility.yul\":4917:4939   */\n      add\n        /* \"#utility.yul\":4896:4949   */\n      tag_150\n      jump\t// in\n    tag_234:\n        /* \"#utility.yul\":4886:4949   */\n      swap4\n      pop\n        /* \"#utility.yul\":4841:4959   */\n      pop\n        /* \"#utility.yul\":4998:5001   */\n      0x80\n        /* \"#utility.yul\":5025:5078   */\n      tag_235\n        /* \"#utility.yul\":5070:5077   */\n      dup10\n        /* \"#utility.yul\":5061:5067   */\n      dup3\n        /* \"#utility.yul\":5050:5059   */\n      dup11\n        /* \"#utility.yul\":5046:5068   */\n      add\n        /* \"#utility.yul\":5025:5078   */\n      tag_150\n      jump\t// in\n    tag_235:\n        /* \"#utility.yul\":5015:5078   */\n      swap3\n      pop\n        /* \"#utility.yul\":4969:5088   */\n      pop\n        /* \"#utility.yul\":5127:5130   */\n      0xa0\n        /* \"#utility.yul\":5154:5207   */\n      tag_236\n        /* \"#utility.yul\":5199:5206   */\n      dup10\n        /* \"#utility.yul\":5190:5196   */\n      dup3\n        /* \"#utility.yul\":5179:5188   */\n      dup11\n        /* \"#utility.yul\":5175:5197   */\n      add\n        /* \"#utility.yul\":5154:5207   */\n      tag_150\n      jump\t// in\n    tag_236:\n        /* \"#utility.yul\":5144:5207   */\n      swap2\n      pop\n        /* \"#utility.yul\":5098:5217   */\n      pop\n        /* \"#utility.yul\":4167:5224   */\n      swap3\n      swap6\n      pop\n      swap3\n      swap6\n      pop\n      swap3\n      swap6\n      jump\t// out\n        /* \"#utility.yul\":5230:5399   */\n    tag_156:\n        /* \"#utility.yul\":5314:5325   */\n      0x00\n        /* \"#utility.yul\":5348:5354   */\n      dup3\n        /* \"#utility.yul\":5343:5346   */\n      dup3\n        /* \"#utility.yul\":5336:5355   */\n      mstore\n        /* \"#utility.yul\":5388:5392   */\n      0x20\n        /* \"#utility.yul\":5383:5386   */\n      dup3\n        /* \"#utility.yul\":5379:5393   */\n      add\n        /* \"#utility.yul\":5364:5393   */\n      swap1\n      pop\n        /* \"#utility.yul\":5230:5399   */\n      swap3\n      swap2\n      pop\n      pop\n      jump\t// out\n        /* \"#utility.yul\":5405:5569   */\n    tag_157:\n        /* \"#utility.yul\":5545:5561   */\n      0x4c414e3a206e6f74206f776e6572000000000000000000000000000000000000\n        /* \"#utility.yul\":5541:5542   */\n      0x00\n        /* \"#utility.yul\":5533:5539   */\n      dup3\n        /* \"#utility.yul\":5529:5543   */\n      add\n        /* \"#utility.yul\":5522:5562   */\n      mstore\n        /* \"#utility.yul\":5405:5569   */\n      pop\n      jump\t// out\n        /* \"#utility.yul\":5575:5941   */\n    tag_158:\n        /* \"#utility.yul\":5717:5720   */\n      0x00\n        /* \"#utility.yul\":5738:5805   */\n      tag_240\n        /* \"#utility.yul\":5802:5804   */\n      0x0e\n        /* \"#utility.yul\":5797:5800   */\n      dup4\n        /* \"#utility.yul\":5738:5805   */\n      tag_156\n      jump\t// in\n    tag_240:\n        /* \"#utility.yul\":5731:5805   */\n      swap2\n      pop\n        /* \"#utility.yul\":5814:5907   */\n      tag_241\n        /* \"#utility.yul\":5903:5906   */\n      dup3\n        /* \"#utility.yul\":5814:5907   */\n      tag_157\n      jump\t// in\n    tag_241:\n        /* \"#utility.yul\":5932:5934   */\n      0x20\n        /* \"#utility.yul\":5927:5930   */\n      dup3\n        /* \"#utility.yul\":5923:5935   */\n      add\n        /* \"#utility.yul\":5916:5935   */\n      swap1\n      pop\n        /* \"#utility.yul\":5575:5941   */\n      swap2\n      swap1\n      pop\n      jump\t// out\n        /* \"#utility.yul\":5947:6366   */\n    tag_53:\n        /* \"#utility.yul\":6113:6117   */\n      0x00\n        /* \"#utility.yul\":6151:6153   */\n      0x20\n        /* \"#utility.yul\":6140:6149   */\n      dup3\n        /* \"#utility.yul\":6136:6154   */\n      add\n        /* \"#utility.yul\":6128:6154   */\n      swap1\n      pop\n        /* \"#utility.yul\":6200:6209   */\n      dup2\n        /* \"#utility.yul\":6194:6198   */\n      dup2\n        /* \"#utility.yul\":6190:6210   */\n      sub\n        /* \"#utility.yul\":6186:6187   */\n      0x00\n        /* \"#utility.yul\":6175:6184   */\n      dup4\n        /* \"#utility.yul\":6171:6188   */\n      add\n        /* \"#utility.yul\":6164:6211   */\n      mstore\n        /* \"#utility.yul\":6228:6359   */\n      tag_243\n        /* \"#utility.yul\":6354:6358   */\n      dup2\n        /* \"#utility.yul\":6228:6359   */\n      tag_158\n      jump\t// in\n    tag_243:\n        /* \"#utility.yul\":6220:6359   */\n      swap1\n      pop\n        /* \"#utility.yul\":5947:6366   */\n      swap2\n      swap1\n      pop\n      jump\t// out\n        /* \"#utility.yul\":6372:6542   */\n    tag_159:\n        /* \"#utility.yul\":6512:6534   */\n      0x4c414e3a20616c72656164792073746172746564000000000000000000000000\n        /* \"#utility.yul\":6508:6509   */\n      0x00\n        /* \"#utility.yul\":6500:6506   */\n      dup3\n        /* \"#utility.yul\":6496:6510   */\n      add\n        /* \"#utility.yul\":6489:6535   */\n      mstore\n        /* \"#utility.yul\":6372:6542   */\n      pop\n      jump\t// out\n        /* \"#utility.yul\":6548:6914   */\n    tag_160:\n        /* \"#utility.yul\":6690:6693   */\n      0x00\n        /* \"#utility.yul\":6711:6778   */\n      tag_246\n        /* \"#utility.yul\":6775:6777   */\n      0x14\n        /* \"#utility.yul\":6770:6773   */\n      dup4\n        /* \"#utility.yul\":6711:6778   */\n      tag_156\n      jump\t// in\n    tag_246:\n        /* \"#utility.yul\":6704:6778   */\n      swap2\n      pop\n        /* \"#utility.yul\":6787:6880   */\n      tag_247\n        /* \"#utility.yul\":6876:6879   */\n      dup3\n        /* \"#utility.yul\":6787:6880   */\n      tag_159\n      jump\t// in\n    tag_247:\n        /* \"#utility.yul\":6905:6907   */\n      0x20\n        /* \"#utility.yul\":6900:6903   */\n      dup3\n        /* \"#utility.yul\":6896:6908   */\n      add\n        /* \"#utility.yul\":6889:6908   */\n      swap1\n      pop\n        /* \"#utility.yul\":6548:6914   */\n      swap2\n      swap1\n      pop\n      jump\t// out\n        /* \"#utility.yul\":6920:7339   */\n    tag_57:\n        /* \"#utility.yul\":7086:7090   */\n      0x00\n        /* \"#utility.yul\":7124:7126   */\n      0x20\n        /* \"#utility.yul\":7113:7122   */\n      dup3\n        /* \"#utility.yul\":7109:7127   */\n      add\n        /* \"#utility.yul\":7101:7127   */\n      swap1\n      pop\n        /* \"#utility.yul\":7173:7182   */\n      dup2\n        /* \"#utility.yul\":7167:7171   */\n      dup2\n        /* \"#utility.yul\":7163:7183   */\n      sub\n        /* \"#utility.yul\":7159:7160   */\n      0x00\n        /* \"#utility.yul\":7148:7157   */\n      dup4\n        /* \"#utility.yul\":7144:7161   */\n      add\n        /* \"#utility.yul\":7137:7184   */\n      mstore\n        /* \"#utility.yul\":7201:7332   */\n      tag_249\n        /* \"#utility.yul\":7327:7331   */\n      dup2\n        /* \"#utility.yul\":7201:7332   */\n      tag_160\n      jump\t// in\n    tag_249:\n        /* \"#utility.yul\":7193:7332   */\n      swap1\n      pop\n        /* \"#utility.yul\":6920:7339   */\n      swap2\n      swap1\n      pop\n      jump\t// out\n        /* \"#utility.yul\":7345:7514   */\n    tag_161:\n        /* \"#utility.yul\":7485:7506   */\n      0x4c414e3a206c6f616e206e6f7420656e64656400000000000000000000000000\n        /* \"#utility.yul\":7481:7482   */\n      0x00\n        /* \"#utility.yul\":7473:7479   */\n      dup3\n        /* \"#utility.yul\":7469:7483   */\n      add\n        /* \"#utility.yul\":7462:7507   */\n      mstore\n        /* \"#utility.yul\":7345:7514   */\n      pop\n      jump\t// out\n        /* \"#utility.yul\":7520:7886   */\n    tag_162:\n        /* \"#utility.yul\":7662:7665   */\n      0x00\n        /* \"#utility.yul\":7683:7750   */\n      tag_252\n        /* \"#utility.yul\":7747:7749   */\n      0x13\n        /* \"#utility.yul\":7742:7745   */\n      dup4\n        /* \"#utility.yul\":7683:7750   */\n      tag_156\n      jump\t// in\n    tag_252:\n        /* \"#utility.yul\":7676:7750   */\n      swap2\n      pop\n        /* \"#utility.yul\":7759:7852   */\n      tag_253\n        /* \"#utility.yul\":7848:7851   */\n      dup3\n        /* \"#utility.yul\":7759:7852   */\n      tag_161\n      jump\t// in\n    tag_253:\n        /* \"#utility.yul\":7877:7879   */\n      0x20\n        /* \"#utility.yul\":7872:7875   */\n      dup3\n        /* \"#utility.yul\":7868:7880   */\n      add\n        /* \"#utility.yul\":7861:7880   */\n      swap1\n      pop\n        /* \"#utility.yul\":7520:7886   */\n      swap2\n      swap1\n      pop\n      jump\t// out\n        /* \"#utility.yul\":7892:8311   */\n    tag_66:\n        /* \"#utility.yul\":8058:8062   */\n      0x00\n        /* \"#utility.yul\":8096:8098   */\n      0x20\n        /* \"#utility.yul\":8085:8094   */\n      dup3\n        /* \"#utility.yul\":8081:8099   */\n      add\n        /* \"#utility.yul\":8073:8099   */\n      swap1\n      pop\n        /* \"#utility.yul\":8145:8154   */\n      dup2\n        /* \"#utility.yul\":8139:8143   */\n      dup2\n        /* \"#utility.yul\":8135:8155   */\n      sub\n        /* \"#utility.yul\":8131:8132   */\n      0x00\n        /* \"#utility.yul\":8120:8129   */\n      dup4\n        /* \"#utility.yul\":8116:8133   */\n      add\n        /* \"#utility.yul\":8109:8156   */\n      mstore\n        /* \"#utility.yul\":8173:8304   */\n      tag_255\n        /* \"#utility.yul\":8299:8303   */\n      dup2\n        /* \"#utility.yul\":8173:8304   */\n      tag_162\n      jump\t// in\n    tag_255:\n        /* \"#utility.yul\":8165:8304   */\n      swap1\n      pop\n        /* \"#utility.yul\":7892:8311   */\n      swap2\n      swap1\n      pop\n      jump\t// out\n        /* \"#utility.yul\":8317:8489   */\n    tag_163:\n        /* \"#utility.yul\":8457:8481   */\n      0x4c414e3a206e6f74206c61746573742062696464657200000000000000000000\n        /* \"#utility.yul\":8453:8454   */\n      0x00\n        /* \"#utility.yul\":8445:8451   */\n      dup3\n        /* \"#utility.yul\":8441:8455   */\n      add\n        /* \"#utility.yul\":8434:8482   */\n      mstore\n        /* \"#utility.yul\":8317:8489   */\n      pop\n      jump\t// out\n        /* \"#utility.yul\":8495:8861   */\n    tag_164:\n        /* \"#utility.yul\":8637:8640   */\n      0x00\n        /* \"#utility.yul\":8658:8725   */\n      tag_258\n        /* \"#utility.yul\":8722:8724   */\n      0x16\n        /* \"#utility.yul\":8717:8720   */\n      dup4\n        /* \"#utility.yul\":8658:8725   */\n      tag_156\n      jump\t// in\n    tag_258:\n        /* \"#utility.yul\":8651:8725   */\n      swap2\n      pop\n        /* \"#utility.yul\":8734:8827   */\n      tag_259\n        /* \"#utility.yul\":8823:8826   */\n      dup3\n        /* \"#utility.yul\":8734:8827   */\n      tag_163\n      jump\t// in\n    tag_259:\n        /* \"#utility.yul\":8852:8854   */\n      0x20\n        /* \"#utility.yul\":8847:8850   */\n      dup3\n        /* \"#utility.yul\":8843:8855   */\n      add\n        /* \"#utility.yul\":8836:8855   */\n      swap1\n      pop\n        /* \"#utility.yul\":8495:8861   */\n      swap2\n      swap1\n      pop\n      jump\t// out\n        /* \"#utility.yul\":8867:9286   */\n    tag_69:\n        /* \"#utility.yul\":9033:9037   */\n      0x00\n        /* \"#utility.yul\":9071:9073   */\n      0x20\n        /* \"#utility.yul\":9060:9069   */\n      dup3\n        /* \"#utility.yul\":9056:9074   */\n      add\n        /* \"#utility.yul\":9048:9074   */\n      swap1\n      pop\n        /* \"#utility.yul\":9120:9129   */\n      dup2\n        /* \"#utility.yul\":9114:9118   */\n      dup2\n        /* \"#utility.yul\":9110:9130   */\n      sub\n        /* \"#utility.yul\":9106:9107   */\n      0x00\n        /* \"#utility.yul\":9095:9104   */\n      dup4\n        /* \"#utility.yul\":9091:9108   */\n      add\n        /* \"#utility.yul\":9084:9131   */\n      mstore\n        /* \"#utility.yul\":9148:9279   */\n      tag_261\n        /* \"#utility.yul\":9274:9278   */\n      dup2\n        /* \"#utility.yul\":9148:9279   */\n      tag_164\n      jump\t// in\n    tag_261:\n        /* \"#utility.yul\":9140:9279   */\n      swap1\n      pop\n        /* \"#utility.yul\":8867:9286   */\n      swap2\n      swap1\n      pop\n      jump\t// out\n        /* \"#utility.yul\":9292:9734   */\n    tag_71:\n        /* \"#utility.yul\":9441:9445   */\n      0x00\n        /* \"#utility.yul\":9479:9481   */\n      0x60\n        /* \"#utility.yul\":9468:9477   */\n      dup3\n        /* \"#utility.yul\":9464:9482   */\n      add\n        /* \"#utility.yul\":9456:9482   */\n      swap1\n      pop\n        /* \"#utility.yul\":9492:9563   */\n      tag_263\n        /* \"#utility.yul\":9560:9561   */\n      0x00\n        /* \"#utility.yul\":9549:9558   */\n      dup4\n        /* \"#utility.yul\":9545:9562   */\n      add\n        /* \"#utility.yul\":9536:9542   */\n      dup7\n        /* \"#utility.yul\":9492:9563   */\n      tag_153\n      jump\t// in\n    tag_263:\n        /* \"#utility.yul\":9573:9645   */\n      tag_264\n        /* \"#utility.yul\":9641:9643   */\n      0x20\n        /* \"#utility.yul\":9630:9639   */\n      dup4\n        /* \"#utility.yul\":9626:9644   */\n      add\n        /* \"#utility.yul\":9617:9623   */\n      dup6\n        /* \"#utility.yul\":9573:9645   */\n      tag_153\n      jump\t// in\n    tag_264:\n        /* \"#utility.yul\":9655:9727   */\n      tag_265\n        /* \"#utility.yul\":9723:9725   */\n      0x40\n        /* \"#utility.yul\":9712:9721   */\n      dup4\n        /* \"#utility.yul\":9708:9726   */\n      add\n        /* \"#utility.yul\":9699:9705   */\n      dup5\n        /* \"#utility.yul\":9655:9727   */\n      tag_145\n      jump\t// in\n    tag_265:\n        /* \"#utility.yul\":9292:9734   */\n      swap5\n      swap4\n      pop\n      pop\n      pop\n      pop\n      jump\t// out\n        /* \"#utility.yul\":9740:9906   */\n    tag_165:\n        /* \"#utility.yul\":9880:9898   */\n      0x4c414e3a206e6f74207374617274656400000000000000000000000000000000\n        /* \"#utility.yul\":9876:9877   */\n      0x00\n        /* \"#utility.yul\":9868:9874   */\n      dup3\n        /* \"#utility.yul\":9864:9878   */\n      add\n        /* \"#utility.yul\":9857:9899   */\n      mstore\n        /* \"#utility.yul\":9740:9906   */\n      pop\n      jump\t// out\n        /* \"#utility.yul\":9912:10278   */\n    tag_166:\n        /* \"#utility.yul\":10054:10057   */\n      0x00\n        /* \"#utility.yul\":10075:10142   */\n      tag_268\n        /* \"#utility.yul\":10139:10141   */\n      0x10\n        /* \"#utility.yul\":10134:10137   */\n      dup4\n        /* \"#utility.yul\":10075:10142   */\n      tag_156\n      jump\t// in\n    tag_268:\n        /* \"#utility.yul\":10068:10142   */\n      swap2\n      pop\n        /* \"#utility.yul\":10151:10244   */\n      tag_269\n        /* \"#utility.yul\":10240:10243   */\n      dup3\n        /* \"#utility.yul\":10151:10244   */\n      tag_165\n      jump\t// in\n    tag_269:\n        /* \"#utility.yul\":10269:10271   */\n      0x20\n        /* \"#utility.yul\":10264:10267   */\n      dup3\n        /* \"#utility.yul\":10260:10272   */\n      add\n        /* \"#utility.yul\":10253:10272   */\n      swap1\n      pop\n        /* \"#utility.yul\":9912:10278   */\n      swap2\n      swap1\n      pop\n      jump\t// out\n        /* \"#utility.yul\":10284:10703   */\n    tag_80:\n        /* \"#utility.yul\":10450:10454   */\n      0x00\n        /* \"#utility.yul\":10488:10490   */\n      0x20\n        /* \"#utility.yul\":10477:10486   */\n      dup3\n        /* \"#utility.yul\":10473:10491   */\n      add\n        /* \"#utility.yul\":10465:10491   */\n      swap1\n      pop\n        /* \"#utility.yul\":10537:10546   */\n      dup2\n        /* \"#utility.yul\":10531:10535   */\n      dup2\n        /* \"#utility.yul\":10527:10547   */\n      sub\n        /* \"#utility.yul\":10523:10524   */\n      0x00\n        /* \"#utility.yul\":10512:10521   */\n      dup4\n        /* \"#utility.yul\":10508:10525   */\n      add\n        /* \"#utility.yul\":10501:10548   */\n      mstore\n        /* \"#utility.yul\":10565:10696   */\n      tag_271\n        /* \"#utility.yul\":10691:10695   */\n      dup2\n        /* \"#utility.yul\":10565:10696   */\n      tag_166\n      jump\t// in\n    tag_271:\n        /* \"#utility.yul\":10557:10696   */\n      swap1\n      pop\n        /* \"#utility.yul\":10284:10703   */\n      swap2\n      swap1\n      pop\n      jump\t// out\n        /* \"#utility.yul\":10709:10877   */\n    tag_167:\n        /* \"#utility.yul\":10849:10869   */\n      0x4c414e3a20616c726561647920656e6465640000000000000000000000000000\n        /* \"#utility.yul\":10845:10846   */\n      0x00\n        /* \"#utility.yul\":10837:10843   */\n      dup3\n        /* \"#utility.yul\":10833:10847   */\n      add\n        /* \"#utility.yul\":10826:10870   */\n      mstore\n        /* \"#utility.yul\":10709:10877   */\n      pop\n      jump\t// out\n        /* \"#utility.yul\":10883:11249   */\n    tag_168:\n        /* \"#utility.yul\":11025:11028   */\n      0x00\n        /* \"#utility.yul\":11046:11113   */\n      tag_274\n        /* \"#utility.yul\":11110:11112   */\n      0x12\n        /* \"#utility.yul\":11105:11108   */\n      dup4\n        /* \"#utility.yul\":11046:11113   */\n      tag_156\n      jump\t// in\n    tag_274:\n        /* \"#utility.yul\":11039:11113   */\n      swap2\n      pop\n        /* \"#utility.yul\":11122:11215   */\n      tag_275\n        /* \"#utility.yul\":11211:11214   */\n      dup3\n        /* \"#utility.yul\":11122:11215   */\n      tag_167\n      jump\t// in\n    tag_275:\n        /* \"#utility.yul\":11240:11242   */\n      0x20\n        /* \"#utility.yul\":11235:11238   */\n      dup3\n        /* \"#utility.yul\":11231:11243   */\n      add\n        /* \"#utility.yul\":11224:11243   */\n      swap1\n      pop\n        /* \"#utility.yul\":10883:11249   */\n      swap2\n      swap1\n      pop\n      jump\t// out\n        /* \"#utility.yul\":11255:11674   */\n    tag_84:\n        /* \"#utility.yul\":11421:11425   */\n      0x00\n        /* \"#utility.yul\":11459:11461   */\n      0x20\n        /* \"#utility.yul\":11448:11457   */\n      dup3\n        /* \"#utility.yul\":11444:11462   */\n      add\n        /* \"#utility.yul\":11436:11462   */\n      swap1\n      pop\n        /* \"#utility.yul\":11508:11517   */\n      dup2\n        /* \"#utility.yul\":11502:11506   */\n      dup2\n        /* \"#utility.yul\":11498:11518   */\n      sub\n        /* \"#utility.yul\":11494:11495   */\n      0x00\n        /* \"#utility.yul\":11483:11492   */\n      dup4\n        /* \"#utility.yul\":11479:11496   */\n      add\n        /* \"#utility.yul\":11472:11519   */\n      mstore\n        /* \"#utility.yul\":11536:11667   */\n      tag_277\n        /* \"#utility.yul\":11662:11666   */\n      dup2\n        /* \"#utility.yul\":11536:11667   */\n      tag_168\n      jump\t// in\n    tag_277:\n        /* \"#utility.yul\":11528:11667   */\n      swap1\n      pop\n        /* \"#utility.yul\":11255:11674   */\n      swap2\n      swap1\n      pop\n      jump\t// out\n        /* \"#utility.yul\":11680:11860   */\n    tag_169:\n        /* \"#utility.yul\":11728:11805   */\n      0x4e487b7100000000000000000000000000000000000000000000000000000000\n        /* \"#utility.yul\":11725:11726   */\n      0x00\n        /* \"#utility.yul\":11718:11806   */\n      mstore\n        /* \"#utility.yul\":11825:11829   */\n      0x11\n        /* \"#utility.yul\":11822:11823   */\n      0x04\n        /* \"#utility.yul\":11815:11830   */\n      mstore\n        /* \"#utility.yul\":11849:11853   */\n      0x24\n        /* \"#utility.yul\":11846:11847   */\n      0x00\n        /* \"#utility.yul\":11839:11854   */\n      revert\n        /* \"#utility.yul\":11866:12057   */\n    tag_86:\n        /* \"#utility.yul\":11906:11909   */\n      0x00\n        /* \"#utility.yul\":11925:11945   */\n      tag_280\n        /* \"#utility.yul\":11943:11944   */\n      dup3\n        /* \"#utility.yul\":11925:11945   */\n      tag_144\n      jump\t// in\n    tag_280:\n        /* \"#utility.yul\":11920:11945   */\n      swap2\n      pop\n        /* \"#utility.yul\":11959:11979   */\n      tag_281\n        /* \"#utility.yul\":11977:11978   */\n      dup4\n        /* \"#utility.yul\":11959:11979   */\n      tag_144\n      jump\t// in\n    tag_281:\n        /* \"#utility.yul\":11954:11979   */\n      swap3\n      pop\n        /* \"#utility.yul\":12002:12003   */\n      dup3\n        /* \"#utility.yul\":11999:12000   */\n      dup3\n        /* \"#utility.yul\":11995:12004   */\n      add\n        /* \"#utility.yul\":11988:12004   */\n      swap1\n      pop\n        /* \"#utility.yul\":12023:12026   */\n      dup1\n        /* \"#utility.yul\":12020:12021   */\n      dup3\n        /* \"#utility.yul\":12017:12027   */\n      gt\n        /* \"#utility.yul\":12014:12050   */\n      iszero\n      tag_282\n      jumpi\n        /* \"#utility.yul\":12030:12048   */\n      tag_283\n      tag_169\n      jump\t// in\n    tag_283:\n        /* \"#utility.yul\":12014:12050   */\n    tag_282:\n        /* \"#utility.yul\":11866:12057   */\n      swap3\n      swap2\n      pop\n      pop\n      jump\t// out\n        /* \"#utility.yul\":12063:12232   */\n    tag_170:\n        /* \"#utility.yul\":12203:12224   */\n      0x4c414e3a20626964206e6f742068696768657200000000000000000000000000\n        /* \"#utility.yul\":12199:12200   */\n      0x00\n        /* \"#utility.yul\":12191:12197   */\n      dup3\n        /* \"#utility.yul\":12187:12201   */\n      add\n        /* \"#utility.yul\":12180:12225   */\n      mstore\n        /* \"#utility.yul\":12063:12232   */\n      pop\n      jump\t// out\n        /* \"#utility.yul\":12238:12604   */\n    tag_171:\n        /* \"#utility.yul\":12380:12383   */\n      0x00\n        /* \"#utility.yul\":12401:12468   */\n      tag_286\n        /* \"#utility.yul\":12465:12467   */\n      0x13\n        /* \"#utility.yul\":12460:12463   */\n      dup4\n        /* \"#utility.yul\":12401:12468   */\n      tag_156\n      jump\t// in\n    tag_286:\n        /* \"#utility.yul\":12394:12468   */\n      swap2\n      pop\n        /* \"#utility.yul\":12477:12570   */\n      tag_287\n        /* \"#utility.yul\":12566:12569   */\n      dup3\n        /* \"#utility.yul\":12477:12570   */\n      tag_170\n      jump\t// in\n    tag_287:\n        /* \"#utility.yul\":12595:12597   */\n      0x20\n        /* \"#utility.yul\":12590:12593   */\n      dup3\n        /* \"#utility.yul\":12586:12598   */\n      add\n        /* \"#utility.yul\":12579:12598   */\n      swap1\n      pop\n        /* \"#utility.yul\":12238:12604   */\n      swap2\n      swap1\n      pop\n      jump\t// out\n        /* \"#utility.yul\":12610:13029   */\n    tag_91:\n        /* \"#utility.yul\":12776:12780   */\n      0x00\n        /* \"#utility.yul\":12814:12816   */\n      0x20\n        /* \"#utility.yul\":12803:12812   */\n      dup3\n        /* \"#utility.yul\":12799:12817   */\n      add\n        /* \"#utility.yul\":12791:12817   */\n      swap1\n      pop\n        /* \"#utility.yul\":12863:12872   */\n      dup2\n        /* \"#utility.yul\":12857:12861   */\n      dup2\n        /* \"#utility.yul\":12853:12873   */\n      sub\n        /* \"#utility.yul\":12849:12850   */\n      0x00\n        /* \"#utility.yul\":12838:12847   */\n      dup4\n        /* \"#utility.yul\":12834:12851   */\n      add\n        /* \"#utility.yul\":12827:12874   */\n      mstore\n        /* \"#utility.yul\":12891:13022   */\n      tag_289\n        /* \"#utility.yul\":13017:13021   */\n      dup2\n        /* \"#utility.yul\":12891:13022   */\n      tag_171\n      jump\t// in\n    tag_289:\n        /* \"#utility.yul\":12883:13022   */\n      swap1\n      pop\n        /* \"#utility.yul\":12610:13029   */\n      swap2\n      swap1\n      pop\n      jump\t// out\n        /* \"#utility.yul\":13035:13125   */\n    tag_172:\n        /* \"#utility.yul\":13069:13076   */\n      0x00\n        /* \"#utility.yul\":13112:13117   */\n      dup2\n        /* \"#utility.yul\":13105:13118   */\n      iszero\n        /* \"#utility.yul\":13098:13119   */\n      iszero\n        /* \"#utility.yul\":13087:13119   */\n      swap1\n      pop\n        /* \"#utility.yul\":13035:13125   */\n      swap2\n      swap1\n      pop\n      jump\t// out\n        /* \"#utility.yul\":13131:13247   */\n    tag_173:\n        /* \"#utility.yul\":13201:13222   */\n      tag_292\n        /* \"#utility.yul\":13216:13221   */\n      dup2\n        /* \"#utility.yul\":13201:13222   */\n      tag_172\n      jump\t// in\n    tag_292:\n        /* \"#utility.yul\":13194:13199   */\n      dup2\n        /* \"#utility.yul\":13191:13223   */\n      eq\n        /* \"#utility.yul\":13181:13241   */\n      tag_293\n      jumpi\n        /* \"#utility.yul\":13237:13238   */\n      0x00\n        /* \"#utility.yul\":13234:13235   */\n      dup1\n        /* \"#utility.yul\":13227:13239   */\n      revert\n        /* \"#utility.yul\":13181:13241   */\n    tag_293:\n        /* \"#utility.yul\":13131:13247   */\n      pop\n      jump\t// out\n        /* \"#utility.yul\":13253:13390   */\n    tag_174:\n        /* \"#utility.yul\":13307:13312   */\n      0x00\n        /* \"#utility.yul\":13338:13344   */\n      dup2\n        /* \"#utility.yul\":13332:13345   */\n      mload\n        /* \"#utility.yul\":13323:13345   */\n      swap1\n      pop\n        /* \"#utility.yul\":13354:13384   */\n      tag_295\n        /* \"#utility.yul\":13378:13383   */\n      dup2\n        /* \"#utility.yul\":13354:13384   */\n      tag_173\n      jump\t// in\n    tag_295:\n        /* \"#utility.yul\":13253:13390   */\n      swap3\n      swap2\n      pop\n      pop\n      jump\t// out\n        /* \"#utility.yul\":13396:13741   */\n    tag_96:\n        /* \"#utility.yul\":13463:13469   */\n      0x00\n        /* \"#utility.yul\":13512:13514   */\n      0x20\n        /* \"#utility.yul\":13500:13509   */\n      dup3\n        /* \"#utility.yul\":13491:13498   */\n      dup5\n        /* \"#utility.yul\":13487:13510   */\n      sub\n        /* \"#utility.yul\":13483:13515   */\n      slt\n        /* \"#utility.yul\":13480:13599   */\n      iszero\n      tag_297\n      jumpi\n        /* \"#utility.yul\":13518:13597   */\n      tag_298\n      tag_147\n      jump\t// in\n    tag_298:\n        /* \"#utility.yul\":13480:13599   */\n    tag_297:\n        /* \"#utility.yul\":13638:13639   */\n      0x00\n        /* \"#utility.yul\":13663:13724   */\n      tag_299\n        /* \"#utility.yul\":13716:13723   */\n      dup5\n        /* \"#utility.yul\":13707:13713   */\n      dup3\n        /* \"#utility.yul\":13696:13705   */\n      dup6\n        /* \"#utility.yul\":13692:13714   */\n      add\n        /* \"#utility.yul\":13663:13724   */\n      tag_174\n      jump\t// in\n    tag_299:\n        /* \"#utility.yul\":13653:13724   */\n      swap2\n      pop\n        /* \"#utility.yul\":13609:13734   */\n      pop\n        /* \"#utility.yul\":13396:13741   */\n      swap3\n      swap2\n      pop\n      pop\n      jump\t// out\n        /* \"#utility.yul\":13747:13941   */\n    tag_98:\n        /* \"#utility.yul\":13787:13791   */\n      0x00\n        /* \"#utility.yul\":13807:13827   */\n      tag_301\n        /* \"#utility.yul\":13825:13826   */\n      dup3\n        /* \"#utility.yul\":13807:13827   */\n      tag_144\n      jump\t// in\n    tag_301:\n        /* \"#utility.yul\":13802:13827   */\n      swap2\n      pop\n        /* \"#utility.yul\":13841:13861   */\n      tag_302\n        /* \"#utility.yul\":13859:13860   */\n      dup4\n        /* \"#utility.yul\":13841:13861   */\n      tag_144\n      jump\t// in\n    tag_302:\n        /* \"#utility.yul\":13836:13861   */\n      swap3\n      pop\n        /* \"#utility.yul\":13885:13886   */\n      dup3\n        /* \"#utility.yul\":13882:13883   */\n      dup3\n        /* \"#utility.yul\":13878:13887   */\n      sub\n        /* \"#utility.yul\":13870:13887   */\n      swap1\n      pop\n        /* \"#utility.yul\":13909:13910   */\n      dup2\n        /* \"#utility.yul\":13903:13907   */\n      dup2\n        /* \"#utility.yul\":13900:13911   */\n      gt\n        /* \"#utility.yul\":13897:13934   */\n      iszero\n      tag_303\n      jumpi\n        /* \"#utility.yul\":13914:13932   */\n      tag_304\n      tag_169\n      jump\t// in\n    tag_304:\n        /* \"#utility.yul\":13897:13934   */\n    tag_303:\n        /* \"#utility.yul\":13747:13941   */\n      swap3\n      swap2\n      pop\n      pop\n      jump\t// out\n        /* \"#utility.yul\":13947:14120   */\n    tag_175:\n        /* \"#utility.yul\":14087:14112   */\n      0x4c414e3a2073746172742074696d6520696e2070617374000000000000000000\n        /* \"#utility.yul\":14083:14084   */\n      0x00\n        /* \"#utility.yul\":14075:14081   */\n      dup3\n        /* \"#utility.yul\":14071:14085   */\n      add\n        /* \"#utility.yul\":14064:14113   */\n      mstore\n        /* \"#utility.yul\":13947:14120   */\n      pop\n      jump\t// out\n        /* \"#utility.yul\":14126:14492   */\n    tag_176:\n        /* \"#utility.yul\":14268:14271   */\n      0x00\n        /* \"#utility.yul\":14289:14356   */\n      tag_307\n        /* \"#utility.yul\":14353:14355   */\n      0x17\n        /* \"#utility.yul\":14348:14351   */\n      dup4\n        /* \"#utility.yul\":14289:14356   */\n      tag_156\n      jump\t// in\n    tag_307:\n        /* \"#utility.yul\":14282:14356   */\n      swap2\n      pop\n        /* \"#utility.yul\":14365:14458   */\n      tag_308\n        /* \"#utility.yul\":14454:14457   */\n      dup3\n        /* \"#utility.yul\":14365:14458   */\n      tag_175\n      jump\t// in\n    tag_308:\n        /* \"#utility.yul\":14483:14485   */\n      0x20\n        /* \"#utility.yul\":14478:14481   */\n      dup3\n        /* \"#utility.yul\":14474:14486   */\n      add\n        /* \"#utility.yul\":14467:14486   */\n      swap1\n      pop\n        /* \"#utility.yul\":14126:14492   */\n      swap2\n      swap1\n      pop\n      jump\t// out\n        /* \"#utility.yul\":14498:14917   */\n    tag_121:\n        /* \"#utility.yul\":14664:14668   */\n      0x00\n        /* \"#utility.yul\":14702:14704   */\n      0x20\n        /* \"#utility.yul\":14691:14700   */\n      dup3\n        /* \"#utility.yul\":14687:14705   */\n      add\n        /* \"#utility.yul\":14679:14705   */\n      swap1\n      pop\n        /* \"#utility.yul\":14751:14760   */\n      dup2\n        /* \"#utility.yul\":14745:14749   */\n      dup2\n        /* \"#utility.yul\":14741:14761   */\n      sub\n        /* \"#utility.yul\":14737:14738   */\n      0x00\n        /* \"#utility.yul\":14726:14735   */\n      dup4\n        /* \"#utility.yul\":14722:14739   */\n      add\n        /* \"#utility.yul\":14715:14762   */\n      mstore\n        /* \"#utility.yul\":14779:14910   */\n      tag_310\n        /* \"#utility.yul\":14905:14909   */\n      dup2\n        /* \"#utility.yul\":14779:14910   */\n      tag_176\n      jump\t// in\n    tag_310:\n        /* \"#utility.yul\":14771:14910   */\n      swap1\n      pop\n        /* \"#utility.yul\":14498:14917   */\n      swap2\n      swap1\n      pop\n      jump\t// out\n        /* \"#utility.yul\":14923:15093   */\n    tag_177:\n        /* \"#utility.yul\":15063:15085   */\n      0x4c414e3a20737461727420616674657220656e64000000000000000000000000\n        /* \"#utility.yul\":15059:15060   */\n      0x00\n        /* \"#utility.yul\":15051:15057   */\n      dup3\n        /* \"#utility.yul\":15047:15061   */\n      add\n        /* \"#utility.yul\":15040:15086   */\n      mstore\n        /* \"#utility.yul\":14923:15093   */\n      pop\n      jump\t// out\n        /* \"#utility.yul\":15099:15465   */\n    tag_178:\n        /* \"#utility.yul\":15241:15244   */\n      0x00\n        /* \"#utility.yul\":15262:15329   */\n      tag_313\n        /* \"#utility.yul\":15326:15328   */\n      0x14\n        /* \"#utility.yul\":15321:15324   */\n      dup4\n        /* \"#utility.yul\":15262:15329   */\n      tag_156\n      jump\t// in\n    tag_313:\n        /* \"#utility.yul\":15255:15329   */\n      swap2\n      pop\n        /* \"#utility.yul\":15338:15431   */\n      tag_314\n        /* \"#utility.yul\":15427:15430   */\n      dup3\n        /* \"#utility.yul\":15338:15431   */\n      tag_177\n      jump\t// in\n    tag_314:\n        /* \"#utility.yul\":15456:15458   */\n      0x20\n        /* \"#utility.yul\":15451:15454   */\n      dup3\n        /* \"#utility.yul\":15447:15459   */\n      add\n        /* \"#utility.yul\":15440:15459   */\n      swap1\n      pop\n        /* \"#utility.yul\":15099:15465   */\n      swap2\n      swap1\n      pop\n      jump\t// out\n        /* \"#utility.yul\":15471:15890   */\n    tag_124:\n        /* \"#utility.yul\":15637:15641   */\n      0x00\n        /* \"#utility.yul\":15675:15677   */\n      0x20\n        /* \"#utility.yul\":15664:15673   */\n      dup3\n        /* \"#utility.yul\":15660:15678   */\n      add\n        /* \"#utility.yul\":15652:15678   */\n      swap1\n      pop\n        /* \"#utility.yul\":15724:15733   */\n      dup2\n        /* \"#utility.yul\":15718:15722   */\n      dup2\n        /* \"#utility.yul\":15714:15734   */\n      sub\n        /* \"#utility.yul\":15710:15711   */\n      0x00\n        /* \"#utility.yul\":15699:15708   */\n      dup4\n        /* \"#utility.yul\":15695:15712   */\n      add\n        /* \"#utility.yul\":15688:15735   */\n      mstore\n        /* \"#utility.yul\":15752:15883   */\n      tag_316\n        /* \"#utility.yul\":15878:15882   */\n      dup2\n        /* \"#utility.yul\":15752:15883   */\n      tag_178\n      jump\t// in\n    tag_316:\n        /* \"#utility.yul\":15744:15883   */\n      swap1\n      pop\n        /* \"#utility.yul\":15471:15890   */\n      swap2\n      swap1\n      pop\n      jump\t// out\n        /* \"#utility.yul\":15896:16228   */\n    tag_126:\n        /* \"#utility.yul\":16017:16021   */\n      0x00\n        /* \"#utility.yul\":16055:16057   */\n      0x40\n        /* \"#utility.yul\":16044:16053   */\n      dup3\n        /* \"#utility.yul\":16040:16058   */\n      add\n        /* \"#utility.yul\":16032:16058   */\n      swap1\n      pop\n        /* \"#utility.yul\":16068:16139   */\n      tag_318\n        /* \"#utility.yul\":16136:16137   */\n      0x00\n        /* \"#utility.yul\":16125:16134   */\n      dup4\n        /* \"#utility.yul\":16121:16138   */\n      add\n        /* \"#utility.yul\":16112:16118   */\n      dup6\n        /* \"#utility.yul\":16068:16139   */\n      tag_153\n      jump\t// in\n    tag_318:\n        /* \"#utility.yul\":16149:16221   */\n      tag_319\n        /* \"#utility.yul\":16217:16219   */\n      0x20\n        /* \"#utility.yul\":16206:16215   */\n      dup4\n        /* \"#utility.yul\":16202:16220   */\n      add\n        /* \"#utility.yul\":16193:16199   */\n      dup5\n        /* \"#utility.yul\":16149:16221   */\n      tag_145\n      jump\t// in\n    tag_319:\n        /* \"#utility.yul\":15896:16228   */\n      swap4\n      swap3\n      pop\n      pop\n      pop\n      jump\t// out\n        /* \"#utility.yul\":16234:16467   */\n    tag_128:\n        /* \"#utility.yul\":16273:16276   */\n      0x00\n        /* \"#utility.yul\":16296:16320   */\n      tag_321\n        /* \"#utility.yul\":16314:16319   */\n      dup3\n        /* \"#utility.yul\":16296:16320   */\n      tag_144\n      jump\t// in\n    tag_321:\n        /* \"#utility.yul\":16287:16320   */\n      swap2\n      pop\n        /* \"#utility.yul\":16342:16408   */\n      0xffffffffffffffffffffffffffffffffffffffffffffffffffffffffffffffff\n        /* \"#utility.yul\":16335:16340   */\n      dup3\n        /* \"#utility.yul\":16332:16409   */\n      sub\n        /* \"#utility.yul\":16329:16432   */\n      tag_322\n      jumpi\n        /* \"#utility.yul\":16412:16430   */\n      tag_323\n      tag_169\n      jump\t// in\n    tag_323:\n        /* \"#utility.yul\":16329:16432   */\n    tag_322:\n        /* \"#utility.yul\":16459:16460   */\n      0x01\n        /* \"#utility.yul\":16452:16457   */\n      dup3\n        /* \"#utility.yul\":16448:16461   */\n      add\n        /* \"#utility.yul\":16441:16461   */\n      swap1\n      pop\n        /* \"#utility.yul\":16234:16467   */\n      swap2\n      swap1\n      pop\n      jump\t// out\n        /* \"#utility.yul\":16473:16821   */\n    tag_138:\n        /* \"#utility.yul\":16513:16520   */\n      0x00\n        /* \"#utility.yul\":16536:16556   */\n      tag_325\n        /* \"#utility.yul\":16554:16555   */\n      dup3\n        /* \"#utility.yul\":16536:16556   */\n      tag_144\n      jump\t// in\n    tag_325:\n        /* \"#utility.yul\":16531:16556   */\n      swap2\n      pop\n        /* \"#utility.yul\":16570:16590   */\n      tag_326\n        /* \"#utility.yul\":16588:16589   */\n      dup4\n        /* \"#utility.yul\":16570:16590   */\n      tag_144\n      jump\t// in\n    tag_326:\n        /* \"#utility.yul\":16565:16590   */\n      swap3\n      pop\n        /* \"#utility.yul\":16758:16759   */\n      dup2\n        /* \"#utility.yul\":16690:16756   */\n      0xffffffffffffffffffffffffffffffffffffffffffffffffffffffffffffffff\n        /* \"#utility.yul\":16686:16760   */\n      div\n        /* \"#utility.yul\":16683:16684   */\n      dup4\n        /* \"#utility.yul\":16680:16761   */\n      gt\n        /* \"#utility.yul\":16675:16676   */\n      dup3\n        /* \"#utility.yul\":16668:16677   */\n      iszero\n        /* \"#utility.yul\":16661:16678   */\n      iszero\n        /* \"#utility.yul\":16657:16762   */\n      and\n        /* \"#utility.yul\":16654:16785   */\n      iszero\n      tag_327\n      jumpi\n        /* \"#utility.yul\":16765:16783   */\n      tag_328\n      tag_169\n      jump\t// in\n    tag_328:\n        /* \"#utility.yul\":16654:16785   */\n    tag_327:\n        /* \"#utility.yul\":16813:16814   */\n      dup3\n        /* \"#utility.yul\":16810:16811   */\n      dup3\n        /* \"#utility.yul\":16806:16815   */\n      mul\n        /* \"#utility.yul\":16795:16815   */\n      swap1\n      pop\n        /* \"#utility.yul\":16473:16821   */\n      swap3\n      swap2\n      pop\n      pop\n      jump\t// out\n        /* \"#utility.yul\":16827:17007   */\n    tag_179:\n        /* \"#utility.yul\":16875:16952   */\n      0x4e487b7100000000000000000000000000000000000000000000000000000000\n        /* \"#utility.yul\":16872:16873   */\n      0x00\n        /* \"#utility.yul\":16865:16953   */\n      mstore\n        /* \"#utility.yul\":16972:16976   */\n      0x12\n        /* \"#utility.yul\":16969:16970   */\n      0x04\n        /* \"#utility.yul\":16962:16977   */\n      mstore\n        /* \"#utility.yul\":16996:17000   */\n      0x24\n        /* \"#utility.yul\":16993:16994   */\n      0x00\n        /* \"#utility.yul\":16986:17001   */\n      revert\n        /* \"#utility.yul\":17013:17198   */\n    tag_140:\n        /* \"#utility.yul\":17053:17054   */\n      0x00\n        /* \"#utility.yul\":17070:17090   */\n      tag_331\n        /* \"#utility.yul\":17088:17089   */\n      dup3\n        /* \"#utility.yul\":17070:17090   */\n      tag_144\n      jump\t// in\n    tag_331:\n        /* \"#utility.yul\":17065:17090   */\n      swap2\n      pop\n        /* \"#utility.yul\":17104:17124   */\n      tag_332\n        /* \"#utility.yul\":17122:17123   */\n      dup4\n        /* \"#utility.yul\":17104:17124   */\n      tag_144\n      jump\t// in\n    tag_332:\n        /* \"#utility.yul\":17099:17124   */\n      swap3\n      pop\n        /* \"#utility.yul\":17143:17144   */\n      dup3\n        /* \"#utility.yul\":17133:17168   */\n      tag_333\n      jumpi\n        /* \"#utility.yul\":17148:17166   */\n      tag_334\n      tag_179\n      jump\t// in\n    tag_334:\n        /* \"#utility.yul\":17133:17168   */\n    tag_333:\n        /* \"#utility.yul\":17190:17191   */\n      dup3\n        /* \"#utility.yul\":17187:17188   */\n      dup3\n        /* \"#utility.yul\":17183:17192   */\n      div\n        /* \"#utility.yul\":17178:17192   */\n      swap1\n      pop\n        /* \"#utility.yul\":17013:17198   */\n      swap3\n      swap2\n      pop\n      pop\n      jump\t// out\n\n    auxdata: 0xa2646970667358221220b012ece8c1f57c231fead0d809ae6ef81516ee3a23e4e1e10859826f19f7c59e64736f6c63430008100033\n}\n",
				"bytecode": {
					"linkReferences": {},
					"object": "608060405234801561001057600080fd5b5061201d806100206000396000f3fe608060405234801561001057600080fd5b50600436106100935760003560e01c80637870860b116100665780637870860b1461010a5780637b3c4baa146101265780639bea77da14610158578063e1ec3c6814610188578063e7e4dfcd146101bf57610093565b806306661abd1461009857806340e58ee5146100b6578063415f1240146100d2578063598647f8146100ee575b600080fd5b6100a06101db565b6040516100ad9190611729565b60405180910390f35b6100d060048036038101906100cb9190611775565b6101e1565b005b6100ec60048036038101906100e79190611775565b610469565b005b610108600480360381019061010391906117a2565b61079d565b005b610124600480360381019061011f9190611775565b610c0d565b005b610140600480360381019061013b91906117a2565b610fbe565b60405161014f93929190611823565b60405180910390f35b610172600480360381019061016d91906117a2565b611015565b60405161017f919061185a565b60405180910390f35b6101a2600480360381019061019d9190611775565b611063565b6040516101b6989796959493929190611875565b60405180910390f35b6101d960048036038101906101d4919061191f565b61110b565b005b60005481565b803373ffffffffffffffffffffffffffffffffffffffff166001600083815260200190815260200160002060000160009054906101000a900473ffffffffffffffffffffffffffffffffffffffff1673ffffffffffffffffffffffffffffffffffffffff1614610286576040517f08c379a000000000000000000000000000000000000000000000000000000000815260040161027d90611a09565b60405180910390fd5b600060016000848152602001908152602001600020604051806101000160405290816000820160009054906101000a900473ffffffffffffffffffffffffffffffffffffffff1673ffffffffffffffffffffffffffffffffffffffff1673ffffffffffffffffffffffffffffffffffffffff1681526020016001820160009054906101000a900473ffffffffffffffffffffffffffffffffffffffff1673ffffffffffffffffffffffffffffffffffffffff1673ffffffffffffffffffffffffffffffffffffffff1681526020016002820160009054906101000a900473ffffffffffffffffffffffffffffffffffffffff1673ffffffffffffffffffffffffffffffffffffffff1673ffffffffffffffffffffffffffffffffffffffff16815260200160038201548152602001600482015481526020016005820154815260200160068201548152602001600782015481525050905042816080015111610423576040517f08c379a000000000000000000000000000000000000000000000000000000000815260040161041a90611a75565b60405180910390fd5b61042b611689565b90507ffe785ef891129b084b1c5a30e4d88eb97c97822c024cc25d5f9d806b897512e08360405161045c9190611729565b60405180910390a1505050565b600060016000838152602001908152602001600020604051806101000160405290816000820160009054906101000a900473ffffffffffffffffffffffffffffffffffffffff1673ffffffffffffffffffffffffffffffffffffffff1673ffffffffffffffffffffffffffffffffffffffff1681526020016001820160009054906101000a900473ffffffffffffffffffffffffffffffffffffffff1673ffffffffffffffffffffffffffffffffffffffff1673ffffffffffffffffffffffffffffffffffffffff1681526020016002820160009054906101000a900473ffffffffffffffffffffffffffffffffffffffff1673ffffffffffffffffffffffffffffffffffffffff1673ffffffffffffffffffffffffffffffffffffffff1681526020016003820154815260200160048201548152602001600582015481526020016006820154815260200160078201548152505090506105c9826113b3565b610608576040517f08c379a00000000000000000000000000000000000000000000000000000000081526004016105ff90611ae1565b60405180910390fd5b60006002600084815260200190815260200160002060008360e00151815260200190815260200160002060405180606001604052908160008201548152602001600182015481526020016002820160009054906101000a900473ffffffffffffffffffffffffffffffffffffffff1673ffffffffffffffffffffffffffffffffffffffff1673ffffffffffffffffffffffffffffffffffffffff168152505090503373ffffffffffffffffffffffffffffffffffffffff16816040015173ffffffffffffffffffffffffffffffffffffffff161461071b576040517f08c379a000000000000000000000000000000000000000000000000000000000815260040161071290611b4d565b60405180910390fd5b6000826040015190508073ffffffffffffffffffffffffffffffffffffffff166342842e0e303386606001516040518463ffffffff1660e01b815260040161076593929190611b6d565b600060405180830381600087803b15801561077f57600080fd5b505af1158015610793573d6000803e3d6000fd5b5050505050505050565b6107a6826113d6565b6107e5576040517f08c379a00000000000000000000000000000000000000000000000000000000081526004016107dc90611bf0565b60405180910390fd5b6107ee826113b3565b1561082e576040517f08c379a000000000000000000000000000000000000000000000000000000000815260040161082590611c5c565b60405180910390fd5b600060016000848152602001908152602001600020604051806101000160405290816000820160009054906101000a900473ffffffffffffffffffffffffffffffffffffffff1673ffffffffffffffffffffffffffffffffffffffff1673ffffffffffffffffffffffffffffffffffffffff1681526020016001820160009054906101000a900473ffffffffffffffffffffffffffffffffffffffff1673ffffffffffffffffffffffffffffffffffffffff1673ffffffffffffffffffffffffffffffffffffffff1681526020016002820160009054906101000a900473ffffffffffffffffffffffffffffffffffffffff1673ffffffffffffffffffffffffffffffffffffffff1673ffffffffffffffffffffffffffffffffffffffff168152602001600382015481526020016004820154815260200160058201548152602001600682015481526020016007820154815250509050600060018260e001516109989190611cab565b9050808260e001818152505060006109af856113f8565b90508084116109f3576040517f08c379a00000000000000000000000000000000000000000000000000000000081526004016109ea90611d2b565b60405180910390fd5b826020015173ffffffffffffffffffffffffffffffffffffffff166323b872dd3360026000898152602001908152602001600020600086815260200190815260200160002060020160009054906101000a900473ffffffffffffffffffffffffffffffffffffffff16846040518463ffffffff1660e01b8152600401610a7b93929190611b6d565b6020604051808303816000875af1158015610a9a573d6000803e3d6000fd5b505050506040513d601f19601f82011682018060405250810190610abe9190611d83565b50826020015173ffffffffffffffffffffffffffffffffffffffff166323b872dd3385600001518488610af19190611db0565b6040518463ffffffff1660e01b8152600401610b0f93929190611b6d565b6020604051808303816000875af1158015610b2e573d6000803e3d6000fd5b505050506040513d601f19601f82011682018060405250810190610b529190611d83565b5060405180606001604052804281526020018581526020013373ffffffffffffffffffffffffffffffffffffffff16815250600260008781526020019081526020016000206000848152602001908152602001600020600082015181600001556020820151816001015560408201518160020160006101000a81548173ffffffffffffffffffffffffffffffffffffffff021916908373ffffffffffffffffffffffffffffffffffffffff1602179055509050505050505050565b803373ffffffffffffffffffffffffffffffffffffffff166001600083815260200190815260200160002060000160009054906101000a900473ffffffffffffffffffffffffffffffffffffffff1673ffffffffffffffffffffffffffffffffffffffff1614610cb2576040517f08c379a0000000000000000000000000000000000000000000000000000000008152600401610ca990611a09565b60405180910390fd5b600060016000848152602001908152602001600020604051806101000160405290816000820160009054906101000a900473ffffffffffffffffffffffffffffffffffffffff1673ffffffffffffffffffffffffffffffffffffffff1673ffffffffffffffffffffffffffffffffffffffff1681526020016001820160009054906101000a900473ffffffffffffffffffffffffffffffffffffffff1673ffffffffffffffffffffffffffffffffffffffff1673ffffffffffffffffffffffffffffffffffffffff1681526020016002820160009054906101000a900473ffffffffffffffffffffffffffffffffffffffff1673ffffffffffffffffffffffffffffffffffffffff1673ffffffffffffffffffffffffffffffffffffffff16815260200160038201548152602001600482015481526020016005820154815260200160068201548152602001600782015481525050905060006002600085815260200190815260200160002060008360e00151815260200190815260200160002060405180606001604052908160008201548152602001600182015481526020016002820160009054906101000a900473ffffffffffffffffffffffffffffffffffffffff1673ffffffffffffffffffffffffffffffffffffffff1673ffffffffffffffffffffffffffffffffffffffff16815250509050816020015173ffffffffffffffffffffffffffffffffffffffff166323b872dd338360400151610ed9886113f8565b6040518463ffffffff1660e01b8152600401610ef793929190611b6d565b6020604051808303816000875af1158015610f16573d6000803e3d6000fd5b505050506040513d601f19601f82011682018060405250810190610f3a9190611d83565b506000826040015190508073ffffffffffffffffffffffffffffffffffffffff166342842e0e303386606001516040518463ffffffff1660e01b8152600401610f8593929190611b6d565b600060405180830381600087803b158015610f9f57600080fd5b505af1158015610fb3573d6000803e3d6000fd5b505050505050505050565b6002602052816000526040600020602052806000526040600020600091509150508060000154908060010154908060020160009054906101000a900473ffffffffffffffffffffffffffffffffffffffff16905083565b6003602052816000526040600020818154811061103157600080fd5b906000526020600020016000915091509054906101000a900473ffffffffffffffffffffffffffffffffffffffff1681565b60016020528060005260406000206000915090508060000160009054906101000a900473ffffffffffffffffffffffffffffffffffffffff16908060010160009054906101000a900473ffffffffffffffffffffffffffffffffffffffff16908060020160009054906101000a900473ffffffffffffffffffffffffffffffffffffffff16908060030154908060040154908060050154908060060154908060070154905088565b4283101561114e576040517f08c379a000000000000000000000000000000000000000000000000000000000815260040161114590611e30565b60405180910390fd5b828211611190576040517f08c379a000000000000000000000000000000000000000000000000000000000815260040161118790611e9c565b60405180910390fd5b6040518061010001604052803373ffffffffffffffffffffffffffffffffffffffff1681526020018773ffffffffffffffffffffffffffffffffffffffff1681526020018673ffffffffffffffffffffffffffffffffffffffff1681526020018581526020018481526020018381526020018281526020016000815250600160008054815260200190815260200160002060008201518160000160006101000a81548173ffffffffffffffffffffffffffffffffffffffff021916908373ffffffffffffffffffffffffffffffffffffffff16021790555060208201518160010160006101000a81548173ffffffffffffffffffffffffffffffffffffffff021916908373ffffffffffffffffffffffffffffffffffffffff16021790555060408201518160020160006101000a81548173ffffffffffffffffffffffffffffffffffffffff021916908373ffffffffffffffffffffffffffffffffffffffff160217905550606082015181600301556080820151816004015560a0820151816005015560c0820151816006015560e082015181600701559050504260026000805481526020019081526020016000206000808152602001908152602001600020600001819055506000547fef8b2952c43462575e82711d0cc91169720a4589a9fa533d173e022437f5405e868660405161138c929190611ebc565b60405180910390a26000808154809291906113a690611ee5565b9190505550505050505050565b600042600160008481526020019081526020016000206005015411159050919050565b6000426001600084815260200190815260200160002060040154109050919050565b60008060016000848152602001908152602001600020604051806101000160405290816000820160009054906101000a900473ffffffffffffffffffffffffffffffffffffffff1673ffffffffffffffffffffffffffffffffffffffff1673ffffffffffffffffffffffffffffffffffffffff1681526020016001820160009054906101000a900473ffffffffffffffffffffffffffffffffffffffff1673ffffffffffffffffffffffffffffffffffffffff1673ffffffffffffffffffffffffffffffffffffffff1681526020016002820160009054906101000a900473ffffffffffffffffffffffffffffffffffffffff1673ffffffffffffffffffffffffffffffffffffffff1673ffffffffffffffffffffffffffffffffffffffff16815260200160038201548152602001600482015481526020016005820154815260200160068201548152602001600782015481525050905060006002600085815260200190815260200160002060008360e00151815260200190815260200160002060405180606001604052908160008201548152602001600182015481526020016002820160009054906101000a900473ffffffffffffffffffffffffffffffffffffffff1673ffffffffffffffffffffffffffffffffffffffff1673ffffffffffffffffffffffffffffffffffffffff1681525050905060006115fc856113b3565b1561161c578260a0015182600001516116159190611db0565b905061162f565b42826000015161162c9190611db0565b90505b6301e1338081670de0b6b3a76400008560c0015185602001516116529190611f2d565b61165c9190611fb6565b6116669190611f2d565b6116709190611fb6565b826020015161167f9190611cab565b9350505050919050565b604051806101000160405280600073ffffffffffffffffffffffffffffffffffffffff168152602001600073ffffffffffffffffffffffffffffffffffffffff168152602001600073ffffffffffffffffffffffffffffffffffffffff16815260200160008152602001600081526020016000815260200160008152602001600081525090565b6000819050919050565b61172381611710565b82525050565b600060208201905061173e600083018461171a565b92915050565b600080fd5b61175281611710565b811461175d57600080fd5b50565b60008135905061176f81611749565b92915050565b60006020828403121561178b5761178a611744565b5b600061179984828501611760565b91505092915050565b600080604083850312156117b9576117b8611744565b5b60006117c785828601611760565b92505060206117d885828601611760565b9150509250929050565b600073ffffffffffffffffffffffffffffffffffffffff82169050919050565b600061180d826117e2565b9050919050565b61181d81611802565b82525050565b6000606082019050611838600083018661171a565b611845602083018561171a565b6118526040830184611814565b949350505050565b600060208201905061186f6000830184611814565b92915050565b60006101008201905061188b600083018b611814565b611898602083018a611814565b6118a56040830189611814565b6118b2606083018861171a565b6118bf608083018761171a565b6118cc60a083018661171a565b6118d960c083018561171a565b6118e660e083018461171a565b9998505050505050505050565b6118fc81611802565b811461190757600080fd5b50565b600081359050611919816118f3565b92915050565b60008060008060008060c0878903121561193c5761193b611744565b5b600061194a89828a0161190a565b965050602061195b89828a0161190a565b955050604061196c89828a01611760565b945050606061197d89828a01611760565b935050608061198e89828a01611760565b92505060a061199f89828a01611760565b9150509295509295509295565b600082825260208201905092915050565b7f4c414e3a206e6f74206f776e6572000000000000000000000000000000000000600082015250565b60006119f3600e836119ac565b91506119fe826119bd565b602082019050919050565b60006020820190508181036000830152611a22816119e6565b9050919050565b7f4c414e3a20616c72656164792073746172746564000000000000000000000000600082015250565b6000611a5f6014836119ac565b9150611a6a82611a29565b602082019050919050565b60006020820190508181036000830152611a8e81611a52565b9050919050565b7f4c414e3a206c6f616e206e6f7420656e64656400000000000000000000000000600082015250565b6000611acb6013836119ac565b9150611ad682611a95565b602082019050919050565b60006020820190508181036000830152611afa81611abe565b9050919050565b7f4c414e3a206e6f74206c61746573742062696464657200000000000000000000600082015250565b6000611b376016836119ac565b9150611b4282611b01565b602082019050919050565b60006020820190508181036000830152611b6681611b2a565b9050919050565b6000606082019050611b826000830186611814565b611b8f6020830185611814565b611b9c604083018461171a565b949350505050565b7f4c414e3a206e6f74207374617274656400000000000000000000000000000000600082015250565b6000611bda6010836119ac565b9150611be582611ba4565b602082019050919050565b60006020820190508181036000830152611c0981611bcd565b9050919050565b7f4c414e3a20616c726561647920656e6465640000000000000000000000000000600082015250565b6000611c466012836119ac565b9150611c5182611c10565b602082019050919050565b60006020820190508181036000830152611c7581611c39565b9050919050565b7f4e487b7100000000000000000000000000000000000000000000000000000000600052601160045260246000fd5b6000611cb682611710565b9150611cc183611710565b9250828201905080821115611cd957611cd8611c7c565b5b92915050565b7f4c414e3a20626964206e6f742068696768657200000000000000000000000000600082015250565b6000611d156013836119ac565b9150611d2082611cdf565b602082019050919050565b60006020820190508181036000830152611d4481611d08565b9050919050565b60008115159050919050565b611d6081611d4b565b8114611d6b57600080fd5b50565b600081519050611d7d81611d57565b92915050565b600060208284031215611d9957611d98611744565b5b6000611da784828501611d6e565b91505092915050565b6000611dbb82611710565b9150611dc683611710565b9250828203905081811115611dde57611ddd611c7c565b5b92915050565b7f4c414e3a2073746172742074696d6520696e2070617374000000000000000000600082015250565b6000611e1a6017836119ac565b9150611e2582611de4565b602082019050919050565b60006020820190508181036000830152611e4981611e0d565b9050919050565b7f4c414e3a20737461727420616674657220656e64000000000000000000000000600082015250565b6000611e866014836119ac565b9150611e9182611e50565b602082019050919050565b60006020820190508181036000830152611eb581611e79565b9050919050565b6000604082019050611ed16000830185611814565b611ede602083018461171a565b9392505050565b6000611ef082611710565b91507fffffffffffffffffffffffffffffffffffffffffffffffffffffffffffffffff8203611f2257611f21611c7c565b5b600182019050919050565b6000611f3882611710565b9150611f4383611710565b9250817fffffffffffffffffffffffffffffffffffffffffffffffffffffffffffffffff0483118215151615611f7c57611f7b611c7c565b5b828202905092915050565b7f4e487b7100000000000000000000000000000000000000000000000000000000600052601260045260246000fd5b6000611fc182611710565b9150611fcc83611710565b925082611fdc57611fdb611f87565b5b82820490509291505056fea2646970667358221220b012ece8c1f57c231fead0d809ae6ef81516ee3a23e4e1e10859826f19f7c59e64736f6c63430008100033",
					"opcodes": "PUSH1 0x80 PUSH1 0x40 MSTORE CALLVALUE DUP1 ISZERO PUSH2 0x10 JUMPI PUSH1 0x0 DUP1 REVERT JUMPDEST POP PUSH2 0x201D DUP1 PUSH2 0x20 PUSH1 0x0 CODECOPY PUSH1 0x0 RETURN INVALID PUSH1 0x80 PUSH1 0x40 MSTORE CALLVALUE DUP1 ISZERO PUSH2 0x10 JUMPI PUSH1 0x0 DUP1 REVERT JUMPDEST POP PUSH1 0x4 CALLDATASIZE LT PUSH2 0x93 JUMPI PUSH1 0x0 CALLDATALOAD PUSH1 0xE0 SHR DUP1 PUSH4 0x7870860B GT PUSH2 0x66 JUMPI DUP1 PUSH4 0x7870860B EQ PUSH2 0x10A JUMPI DUP1 PUSH4 0x7B3C4BAA EQ PUSH2 0x126 JUMPI DUP1 PUSH4 0x9BEA77DA EQ PUSH2 0x158 JUMPI DUP1 PUSH4 0xE1EC3C68 EQ PUSH2 0x188 JUMPI DUP1 PUSH4 0xE7E4DFCD EQ PUSH2 0x1BF JUMPI PUSH2 0x93 JUMP JUMPDEST DUP1 PUSH4 0x6661ABD EQ PUSH2 0x98 JUMPI DUP1 PUSH4 0x40E58EE5 EQ PUSH2 0xB6 JUMPI DUP1 PUSH4 0x415F1240 EQ PUSH2 0xD2 JUMPI DUP1 PUSH4 0x598647F8 EQ PUSH2 0xEE JUMPI JUMPDEST PUSH1 0x0 DUP1 REVERT JUMPDEST PUSH2 0xA0 PUSH2 0x1DB JUMP JUMPDEST PUSH1 0x40 MLOAD PUSH2 0xAD SWAP2 SWAP1 PUSH2 0x1729 JUMP JUMPDEST PUSH1 0x40 MLOAD DUP1 SWAP2 SUB SWAP1 RETURN JUMPDEST PUSH2 0xD0 PUSH1 0x4 DUP1 CALLDATASIZE SUB DUP2 ADD SWAP1 PUSH2 0xCB SWAP2 SWAP1 PUSH2 0x1775 JUMP JUMPDEST PUSH2 0x1E1 JUMP JUMPDEST STOP JUMPDEST PUSH2 0xEC PUSH1 0x4 DUP1 CALLDATASIZE SUB DUP2 ADD SWAP1 PUSH2 0xE7 SWAP2 SWAP1 PUSH2 0x1775 JUMP JUMPDEST PUSH2 0x469 JUMP JUMPDEST STOP JUMPDEST PUSH2 0x108 PUSH1 0x4 DUP1 CALLDATASIZE SUB DUP2 ADD SWAP1 PUSH2 0x103 SWAP2 SWAP1 PUSH2 0x17A2 JUMP JUMPDEST PUSH2 0x79D JUMP JUMPDEST STOP JUMPDEST PUSH2 0x124 PUSH1 0x4 DUP1 CALLDATASIZE SUB DUP2 ADD SWAP1 PUSH2 0x11F SWAP2 SWAP1 PUSH2 0x1775 JUMP JUMPDEST PUSH2 0xC0D JUMP JUMPDEST STOP JUMPDEST PUSH2 0x140 PUSH1 0x4 DUP1 CALLDATASIZE SUB DUP2 ADD SWAP1 PUSH2 0x13B SWAP2 SWAP1 PUSH2 0x17A2 JUMP JUMPDEST PUSH2 0xFBE JUMP JUMPDEST PUSH1 0x40 MLOAD PUSH2 0x14F SWAP4 SWAP3 SWAP2 SWAP1 PUSH2 0x1823 JUMP JUMPDEST PUSH1 0x40 MLOAD DUP1 SWAP2 SUB SWAP1 RETURN JUMPDEST PUSH2 0x172 PUSH1 0x4 DUP1 CALLDATASIZE SUB DUP2 ADD SWAP1 PUSH2 0x16D SWAP2 SWAP1 PUSH2 0x17A2 JUMP JUMPDEST PUSH2 0x1015 JUMP JUMPDEST PUSH1 0x40 MLOAD PUSH2 0x17F SWAP2 SWAP1 PUSH2 0x185A JUMP JUMPDEST PUSH1 0x40 MLOAD DUP1 SWAP2 SUB SWAP1 RETURN JUMPDEST PUSH2 0x1A2 PUSH1 0x4 DUP1 CALLDATASIZE SUB DUP2 ADD SWAP1 PUSH2 0x19D SWAP2 SWAP1 PUSH2 0x1775 JUMP JUMPDEST PUSH2 0x1063 JUMP JUMPDEST PUSH1 0x40 MLOAD PUSH2 0x1B6 SWAP9 SWAP8 SWAP7 SWAP6 SWAP5 SWAP4 SWAP3 SWAP2 SWAP1 PUSH2 0x1875 JUMP JUMPDEST PUSH1 0x40 MLOAD DUP1 SWAP2 SUB SWAP1 RETURN JUMPDEST PUSH2 0x1D9 PUSH1 0x4 DUP1 CALLDATASIZE SUB DUP2 ADD SWAP1 PUSH2 0x1D4 SWAP2 SWAP1 PUSH2 0x191F JUMP JUMPDEST PUSH2 0x110B JUMP JUMPDEST STOP JUMPDEST PUSH1 0x0 SLOAD DUP2 JUMP JUMPDEST DUP1 CALLER PUSH20 0xFFFFFFFFFFFFFFFFFFFFFFFFFFFFFFFFFFFFFFFF AND PUSH1 0x1 PUSH1 0x0 DUP4 DUP2 MSTORE PUSH1 0x20 ADD SWAP1 DUP2 MSTORE PUSH1 0x20 ADD PUSH1 0x0 KECCAK256 PUSH1 0x0 ADD PUSH1 0x0 SWAP1 SLOAD SWAP1 PUSH2 0x100 EXP SWAP1 DIV PUSH20 0xFFFFFFFFFFFFFFFFFFFFFFFFFFFFFFFFFFFFFFFF AND PUSH20 0xFFFFFFFFFFFFFFFFFFFFFFFFFFFFFFFFFFFFFFFF AND EQ PUSH2 0x286 JUMPI PUSH1 0x40 MLOAD PUSH32 0x8C379A000000000000000000000000000000000000000000000000000000000 DUP2 MSTORE PUSH1 0x4 ADD PUSH2 0x27D SWAP1 PUSH2 0x1A09 JUMP JUMPDEST PUSH1 0x40 MLOAD DUP1 SWAP2 SUB SWAP1 REVERT JUMPDEST PUSH1 0x0 PUSH1 0x1 PUSH1 0x0 DUP5 DUP2 MSTORE PUSH1 0x20 ADD SWAP1 DUP2 MSTORE PUSH1 0x20 ADD PUSH1 0x0 KECCAK256 PUSH1 0x40 MLOAD DUP1 PUSH2 0x100 ADD PUSH1 0x40 MSTORE SWAP1 DUP2 PUSH1 0x0 DUP3 ADD PUSH1 0x0 SWAP1 SLOAD SWAP1 PUSH2 0x100 EXP SWAP1 DIV PUSH20 0xFFFFFFFFFFFFFFFFFFFFFFFFFFFFFFFFFFFFFFFF AND PUSH20 0xFFFFFFFFFFFFFFFFFFFFFFFFFFFFFFFFFFFFFFFF AND PUSH20 0xFFFFFFFFFFFFFFFFFFFFFFFFFFFFFFFFFFFFFFFF AND DUP2 MSTORE PUSH1 0x20 ADD PUSH1 0x1 DUP3 ADD PUSH1 0x0 SWAP1 SLOAD SWAP1 PUSH2 0x100 EXP SWAP1 DIV PUSH20 0xFFFFFFFFFFFFFFFFFFFFFFFFFFFFFFFFFFFFFFFF AND PUSH20 0xFFFFFFFFFFFFFFFFFFFFFFFFFFFFFFFFFFFFFFFF AND PUSH20 0xFFFFFFFFFFFFFFFFFFFFFFFFFFFFFFFFFFFFFFFF AND DUP2 MSTORE PUSH1 0x20 ADD PUSH1 0x2 DUP3 ADD PUSH1 0x0 SWAP1 SLOAD SWAP1 PUSH2 0x100 EXP SWAP1 DIV PUSH20 0xFFFFFFFFFFFFFFFFFFFFFFFFFFFFFFFFFFFFFFFF AND PUSH20 0xFFFFFFFFFFFFFFFFFFFFFFFFFFFFFFFFFFFFFFFF AND PUSH20 0xFFFFFFFFFFFFFFFFFFFFFFFFFFFFFFFFFFFFFFFF AND DUP2 MSTORE PUSH1 0x20 ADD PUSH1 0x3 DUP3 ADD SLOAD DUP2 MSTORE PUSH1 0x20 ADD PUSH1 0x4 DUP3 ADD SLOAD DUP2 MSTORE PUSH1 0x20 ADD PUSH1 0x5 DUP3 ADD SLOAD DUP2 MSTORE PUSH1 0x20 ADD PUSH1 0x6 DUP3 ADD SLOAD DUP2 MSTORE PUSH1 0x20 ADD PUSH1 0x7 DUP3 ADD SLOAD DUP2 MSTORE POP POP SWAP1 POP TIMESTAMP DUP2 PUSH1 0x80 ADD MLOAD GT PUSH2 0x423 JUMPI PUSH1 0x40 MLOAD PUSH32 0x8C379A000000000000000000000000000000000000000000000000000000000 DUP2 MSTORE PUSH1 0x4 ADD PUSH2 0x41A SWAP1 PUSH2 0x1A75 JUMP JUMPDEST PUSH1 0x40 MLOAD DUP1 SWAP2 SUB SWAP1 REVERT JUMPDEST PUSH2 0x42B PUSH2 0x1689 JUMP JUMPDEST SWAP1 POP PUSH32 0xFE785EF891129B084B1C5A30E4D88EB97C97822C024CC25D5F9D806B897512E0 DUP4 PUSH1 0x40 MLOAD PUSH2 0x45C SWAP2 SWAP1 PUSH2 0x1729 JUMP JUMPDEST PUSH1 0x40 MLOAD DUP1 SWAP2 SUB SWAP1 LOG1 POP POP POP JUMP JUMPDEST PUSH1 0x0 PUSH1 0x1 PUSH1 0x0 DUP4 DUP2 MSTORE PUSH1 0x20 ADD SWAP1 DUP2 MSTORE PUSH1 0x20 ADD PUSH1 0x0 KECCAK256 PUSH1 0x40 MLOAD DUP1 PUSH2 0x100 ADD PUSH1 0x40 MSTORE SWAP1 DUP2 PUSH1 0x0 DUP3 ADD PUSH1 0x0 SWAP1 SLOAD SWAP1 PUSH2 0x100 EXP SWAP1 DIV PUSH20 0xFFFFFFFFFFFFFFFFFFFFFFFFFFFFFFFFFFFFFFFF AND PUSH20 0xFFFFFFFFFFFFFFFFFFFFFFFFFFFFFFFFFFFFFFFF AND PUSH20 0xFFFFFFFFFFFFFFFFFFFFFFFFFFFFFFFFFFFFFFFF AND DUP2 MSTORE PUSH1 0x20 ADD PUSH1 0x1 DUP3 ADD PUSH1 0x0 SWAP1 SLOAD SWAP1 PUSH2 0x100 EXP SWAP1 DIV PUSH20 0xFFFFFFFFFFFFFFFFFFFFFFFFFFFFFFFFFFFFFFFF AND PUSH20 0xFFFFFFFFFFFFFFFFFFFFFFFFFFFFFFFFFFFFFFFF AND PUSH20 0xFFFFFFFFFFFFFFFFFFFFFFFFFFFFFFFFFFFFFFFF AND DUP2 MSTORE PUSH1 0x20 ADD PUSH1 0x2 DUP3 ADD PUSH1 0x0 SWAP1 SLOAD SWAP1 PUSH2 0x100 EXP SWAP1 DIV PUSH20 0xFFFFFFFFFFFFFFFFFFFFFFFFFFFFFFFFFFFFFFFF AND PUSH20 0xFFFFFFFFFFFFFFFFFFFFFFFFFFFFFFFFFFFFFFFF AND PUSH20 0xFFFFFFFFFFFFFFFFFFFFFFFFFFFFFFFFFFFFFFFF AND DUP2 MSTORE PUSH1 0x20 ADD PUSH1 0x3 DUP3 ADD SLOAD DUP2 MSTORE PUSH1 0x20 ADD PUSH1 0x4 DUP3 ADD SLOAD DUP2 MSTORE PUSH1 0x20 ADD PUSH1 0x5 DUP3 ADD SLOAD DUP2 MSTORE PUSH1 0x20 ADD PUSH1 0x6 DUP3 ADD SLOAD DUP2 MSTORE PUSH1 0x20 ADD PUSH1 0x7 DUP3 ADD SLOAD DUP2 MSTORE POP POP SWAP1 POP PUSH2 0x5C9 DUP3 PUSH2 0x13B3 JUMP JUMPDEST PUSH2 0x608 JUMPI PUSH1 0x40 MLOAD PUSH32 0x8C379A000000000000000000000000000000000000000000000000000000000 DUP2 MSTORE PUSH1 0x4 ADD PUSH2 0x5FF SWAP1 PUSH2 0x1AE1 JUMP JUMPDEST PUSH1 0x40 MLOAD DUP1 SWAP2 SUB SWAP1 REVERT JUMPDEST PUSH1 0x0 PUSH1 0x2 PUSH1 0x0 DUP5 DUP2 MSTORE PUSH1 0x20 ADD SWAP1 DUP2 MSTORE PUSH1 0x20 ADD PUSH1 0x0 KECCAK256 PUSH1 0x0 DUP4 PUSH1 0xE0 ADD MLOAD DUP2 MSTORE PUSH1 0x20 ADD SWAP1 DUP2 MSTORE PUSH1 0x20 ADD PUSH1 0x0 KECCAK256 PUSH1 0x40 MLOAD DUP1 PUSH1 0x60 ADD PUSH1 0x40 MSTORE SWAP1 DUP2 PUSH1 0x0 DUP3 ADD SLOAD DUP2 MSTORE PUSH1 0x20 ADD PUSH1 0x1 DUP3 ADD SLOAD DUP2 MSTORE PUSH1 0x20 ADD PUSH1 0x2 DUP3 ADD PUSH1 0x0 SWAP1 SLOAD SWAP1 PUSH2 0x100 EXP SWAP1 DIV PUSH20 0xFFFFFFFFFFFFFFFFFFFFFFFFFFFFFFFFFFFFFFFF AND PUSH20 0xFFFFFFFFFFFFFFFFFFFFFFFFFFFFFFFFFFFFFFFF AND PUSH20 0xFFFFFFFFFFFFFFFFFFFFFFFFFFFFFFFFFFFFFFFF AND DUP2 MSTORE POP POP SWAP1 POP CALLER PUSH20 0xFFFFFFFFFFFFFFFFFFFFFFFFFFFFFFFFFFFFFFFF AND DUP2 PUSH1 0x40 ADD MLOAD PUSH20 0xFFFFFFFFFFFFFFFFFFFFFFFFFFFFFFFFFFFFFFFF AND EQ PUSH2 0x71B JUMPI PUSH1 0x40 MLOAD PUSH32 0x8C379A000000000000000000000000000000000000000000000000000000000 DUP2 MSTORE PUSH1 0x4 ADD PUSH2 0x712 SWAP1 PUSH2 0x1B4D JUMP JUMPDEST PUSH1 0x40 MLOAD DUP1 SWAP2 SUB SWAP1 REVERT JUMPDEST PUSH1 0x0 DUP3 PUSH1 0x40 ADD MLOAD SWAP1 POP DUP1 PUSH20 0xFFFFFFFFFFFFFFFFFFFFFFFFFFFFFFFFFFFFFFFF AND PUSH4 0x42842E0E ADDRESS CALLER DUP7 PUSH1 0x60 ADD MLOAD PUSH1 0x40 MLOAD DUP5 PUSH4 0xFFFFFFFF AND PUSH1 0xE0 SHL DUP2 MSTORE PUSH1 0x4 ADD PUSH2 0x765 SWAP4 SWAP3 SWAP2 SWAP1 PUSH2 0x1B6D JUMP JUMPDEST PUSH1 0x0 PUSH1 0x40 MLOAD DUP1 DUP4 SUB DUP2 PUSH1 0x0 DUP8 DUP1 EXTCODESIZE ISZERO DUP1 ISZERO PUSH2 0x77F JUMPI PUSH1 0x0 DUP1 REVERT JUMPDEST POP GAS CALL ISZERO DUP1 ISZERO PUSH2 0x793 JUMPI RETURNDATASIZE PUSH1 0x0 DUP1 RETURNDATACOPY RETURNDATASIZE PUSH1 0x0 REVERT JUMPDEST POP POP POP POP POP POP POP POP JUMP JUMPDEST PUSH2 0x7A6 DUP3 PUSH2 0x13D6 JUMP JUMPDEST PUSH2 0x7E5 JUMPI PUSH1 0x40 MLOAD PUSH32 0x8C379A000000000000000000000000000000000000000000000000000000000 DUP2 MSTORE PUSH1 0x4 ADD PUSH2 0x7DC SWAP1 PUSH2 0x1BF0 JUMP JUMPDEST PUSH1 0x40 MLOAD DUP1 SWAP2 SUB SWAP1 REVERT JUMPDEST PUSH2 0x7EE DUP3 PUSH2 0x13B3 JUMP JUMPDEST ISZERO PUSH2 0x82E JUMPI PUSH1 0x40 MLOAD PUSH32 0x8C379A000000000000000000000000000000000000000000000000000000000 DUP2 MSTORE PUSH1 0x4 ADD PUSH2 0x825 SWAP1 PUSH2 0x1C5C JUMP JUMPDEST PUSH1 0x40 MLOAD DUP1 SWAP2 SUB SWAP1 REVERT JUMPDEST PUSH1 0x0 PUSH1 0x1 PUSH1 0x0 DUP5 DUP2 MSTORE PUSH1 0x20 ADD SWAP1 DUP2 MSTORE PUSH1 0x20 ADD PUSH1 0x0 KECCAK256 PUSH1 0x40 MLOAD DUP1 PUSH2 0x100 ADD PUSH1 0x40 MSTORE SWAP1 DUP2 PUSH1 0x0 DUP3 ADD PUSH1 0x0 SWAP1 SLOAD SWAP1 PUSH2 0x100 EXP SWAP1 DIV PUSH20 0xFFFFFFFFFFFFFFFFFFFFFFFFFFFFFFFFFFFFFFFF AND PUSH20 0xFFFFFFFFFFFFFFFFFFFFFFFFFFFFFFFFFFFFFFFF AND PUSH20 0xFFFFFFFFFFFFFFFFFFFFFFFFFFFFFFFFFFFFFFFF AND DUP2 MSTORE PUSH1 0x20 ADD PUSH1 0x1 DUP3 ADD PUSH1 0x0 SWAP1 SLOAD SWAP1 PUSH2 0x100 EXP SWAP1 DIV PUSH20 0xFFFFFFFFFFFFFFFFFFFFFFFFFFFFFFFFFFFFFFFF AND PUSH20 0xFFFFFFFFFFFFFFFFFFFFFFFFFFFFFFFFFFFFFFFF AND PUSH20 0xFFFFFFFFFFFFFFFFFFFFFFFFFFFFFFFFFFFFFFFF AND DUP2 MSTORE PUSH1 0x20 ADD PUSH1 0x2 DUP3 ADD PUSH1 0x0 SWAP1 SLOAD SWAP1 PUSH2 0x100 EXP SWAP1 DIV PUSH20 0xFFFFFFFFFFFFFFFFFFFFFFFFFFFFFFFFFFFFFFFF AND PUSH20 0xFFFFFFFFFFFFFFFFFFFFFFFFFFFFFFFFFFFFFFFF AND PUSH20 0xFFFFFFFFFFFFFFFFFFFFFFFFFFFFFFFFFFFFFFFF AND DUP2 MSTORE PUSH1 0x20 ADD PUSH1 0x3 DUP3 ADD SLOAD DUP2 MSTORE PUSH1 0x20 ADD PUSH1 0x4 DUP3 ADD SLOAD DUP2 MSTORE PUSH1 0x20 ADD PUSH1 0x5 DUP3 ADD SLOAD DUP2 MSTORE PUSH1 0x20 ADD PUSH1 0x6 DUP3 ADD SLOAD DUP2 MSTORE PUSH1 0x20 ADD PUSH1 0x7 DUP3 ADD SLOAD DUP2 MSTORE POP POP SWAP1 POP PUSH1 0x0 PUSH1 0x1 DUP3 PUSH1 0xE0 ADD MLOAD PUSH2 0x998 SWAP2 SWAP1 PUSH2 0x1CAB JUMP JUMPDEST SWAP1 POP DUP1 DUP3 PUSH1 0xE0 ADD DUP2 DUP2 MSTORE POP POP PUSH1 0x0 PUSH2 0x9AF DUP6 PUSH2 0x13F8 JUMP JUMPDEST SWAP1 POP DUP1 DUP5 GT PUSH2 0x9F3 JUMPI PUSH1 0x40 MLOAD PUSH32 0x8C379A000000000000000000000000000000000000000000000000000000000 DUP2 MSTORE PUSH1 0x4 ADD PUSH2 0x9EA SWAP1 PUSH2 0x1D2B JUMP JUMPDEST PUSH1 0x40 MLOAD DUP1 SWAP2 SUB SWAP1 REVERT JUMPDEST DUP3 PUSH1 0x20 ADD MLOAD PUSH20 0xFFFFFFFFFFFFFFFFFFFFFFFFFFFFFFFFFFFFFFFF AND PUSH4 0x23B872DD CALLER PUSH1 0x2 PUSH1 0x0 DUP10 DUP2 MSTORE PUSH1 0x20 ADD SWAP1 DUP2 MSTORE PUSH1 0x20 ADD PUSH1 0x0 KECCAK256 PUSH1 0x0 DUP7 DUP2 MSTORE PUSH1 0x20 ADD SWAP1 DUP2 MSTORE PUSH1 0x20 ADD PUSH1 0x0 KECCAK256 PUSH1 0x2 ADD PUSH1 0x0 SWAP1 SLOAD SWAP1 PUSH2 0x100 EXP SWAP1 DIV PUSH20 0xFFFFFFFFFFFFFFFFFFFFFFFFFFFFFFFFFFFFFFFF AND DUP5 PUSH1 0x40 MLOAD DUP5 PUSH4 0xFFFFFFFF AND PUSH1 0xE0 SHL DUP2 MSTORE PUSH1 0x4 ADD PUSH2 0xA7B SWAP4 SWAP3 SWAP2 SWAP1 PUSH2 0x1B6D JUMP JUMPDEST PUSH1 0x20 PUSH1 0x40 MLOAD DUP1 DUP4 SUB DUP2 PUSH1 0x0 DUP8 GAS CALL ISZERO DUP1 ISZERO PUSH2 0xA9A JUMPI RETURNDATASIZE PUSH1 0x0 DUP1 RETURNDATACOPY RETURNDATASIZE PUSH1 0x0 REVERT JUMPDEST POP POP POP POP PUSH1 0x40 MLOAD RETURNDATASIZE PUSH1 0x1F NOT PUSH1 0x1F DUP3 ADD AND DUP3 ADD DUP1 PUSH1 0x40 MSTORE POP DUP2 ADD SWAP1 PUSH2 0xABE SWAP2 SWAP1 PUSH2 0x1D83 JUMP JUMPDEST POP DUP3 PUSH1 0x20 ADD MLOAD PUSH20 0xFFFFFFFFFFFFFFFFFFFFFFFFFFFFFFFFFFFFFFFF AND PUSH4 0x23B872DD CALLER DUP6 PUSH1 0x0 ADD MLOAD DUP5 DUP9 PUSH2 0xAF1 SWAP2 SWAP1 PUSH2 0x1DB0 JUMP JUMPDEST PUSH1 0x40 MLOAD DUP5 PUSH4 0xFFFFFFFF AND PUSH1 0xE0 SHL DUP2 MSTORE PUSH1 0x4 ADD PUSH2 0xB0F SWAP4 SWAP3 SWAP2 SWAP1 PUSH2 0x1B6D JUMP JUMPDEST PUSH1 0x20 PUSH1 0x40 MLOAD DUP1 DUP4 SUB DUP2 PUSH1 0x0 DUP8 GAS CALL ISZERO DUP1 ISZERO PUSH2 0xB2E JUMPI RETURNDATASIZE PUSH1 0x0 DUP1 RETURNDATACOPY RETURNDATASIZE PUSH1 0x0 REVERT JUMPDEST POP POP POP POP PUSH1 0x40 MLOAD RETURNDATASIZE PUSH1 0x1F NOT PUSH1 0x1F DUP3 ADD AND DUP3 ADD DUP1 PUSH1 0x40 MSTORE POP DUP2 ADD SWAP1 PUSH2 0xB52 SWAP2 SWAP1 PUSH2 0x1D83 JUMP JUMPDEST POP PUSH1 0x40 MLOAD DUP1 PUSH1 0x60 ADD PUSH1 0x40 MSTORE DUP1 TIMESTAMP DUP2 MSTORE PUSH1 0x20 ADD DUP6 DUP2 MSTORE PUSH1 0x20 ADD CALLER PUSH20 0xFFFFFFFFFFFFFFFFFFFFFFFFFFFFFFFFFFFFFFFF AND DUP2 MSTORE POP PUSH1 0x2 PUSH1 0x0 DUP8 DUP2 MSTORE PUSH1 0x20 ADD SWAP1 DUP2 MSTORE PUSH1 0x20 ADD PUSH1 0x0 KECCAK256 PUSH1 0x0 DUP5 DUP2 MSTORE PUSH1 0x20 ADD SWAP1 DUP2 MSTORE PUSH1 0x20 ADD PUSH1 0x0 KECCAK256 PUSH1 0x0 DUP3 ADD MLOAD DUP2 PUSH1 0x0 ADD SSTORE PUSH1 0x20 DUP3 ADD MLOAD DUP2 PUSH1 0x1 ADD SSTORE PUSH1 0x40 DUP3 ADD MLOAD DUP2 PUSH1 0x2 ADD PUSH1 0x0 PUSH2 0x100 EXP DUP2 SLOAD DUP2 PUSH20 0xFFFFFFFFFFFFFFFFFFFFFFFFFFFFFFFFFFFFFFFF MUL NOT AND SWAP1 DUP4 PUSH20 0xFFFFFFFFFFFFFFFFFFFFFFFFFFFFFFFFFFFFFFFF AND MUL OR SWAP1 SSTORE POP SWAP1 POP POP POP POP POP POP POP JUMP JUMPDEST DUP1 CALLER PUSH20 0xFFFFFFFFFFFFFFFFFFFFFFFFFFFFFFFFFFFFFFFF AND PUSH1 0x1 PUSH1 0x0 DUP4 DUP2 MSTORE PUSH1 0x20 ADD SWAP1 DUP2 MSTORE PUSH1 0x20 ADD PUSH1 0x0 KECCAK256 PUSH1 0x0 ADD PUSH1 0x0 SWAP1 SLOAD SWAP1 PUSH2 0x100 EXP SWAP1 DIV PUSH20 0xFFFFFFFFFFFFFFFFFFFFFFFFFFFFFFFFFFFFFFFF AND PUSH20 0xFFFFFFFFFFFFFFFFFFFFFFFFFFFFFFFFFFFFFFFF AND EQ PUSH2 0xCB2 JUMPI PUSH1 0x40 MLOAD PUSH32 0x8C379A000000000000000000000000000000000000000000000000000000000 DUP2 MSTORE PUSH1 0x4 ADD PUSH2 0xCA9 SWAP1 PUSH2 0x1A09 JUMP JUMPDEST PUSH1 0x40 MLOAD DUP1 SWAP2 SUB SWAP1 REVERT JUMPDEST PUSH1 0x0 PUSH1 0x1 PUSH1 0x0 DUP5 DUP2 MSTORE PUSH1 0x20 ADD SWAP1 DUP2 MSTORE PUSH1 0x20 ADD PUSH1 0x0 KECCAK256 PUSH1 0x40 MLOAD DUP1 PUSH2 0x100 ADD PUSH1 0x40 MSTORE SWAP1 DUP2 PUSH1 0x0 DUP3 ADD PUSH1 0x0 SWAP1 SLOAD SWAP1 PUSH2 0x100 EXP SWAP1 DIV PUSH20 0xFFFFFFFFFFFFFFFFFFFFFFFFFFFFFFFFFFFFFFFF AND PUSH20 0xFFFFFFFFFFFFFFFFFFFFFFFFFFFFFFFFFFFFFFFF AND PUSH20 0xFFFFFFFFFFFFFFFFFFFFFFFFFFFFFFFFFFFFFFFF AND DUP2 MSTORE PUSH1 0x20 ADD PUSH1 0x1 DUP3 ADD PUSH1 0x0 SWAP1 SLOAD SWAP1 PUSH2 0x100 EXP SWAP1 DIV PUSH20 0xFFFFFFFFFFFFFFFFFFFFFFFFFFFFFFFFFFFFFFFF AND PUSH20 0xFFFFFFFFFFFFFFFFFFFFFFFFFFFFFFFFFFFFFFFF AND PUSH20 0xFFFFFFFFFFFFFFFFFFFFFFFFFFFFFFFFFFFFFFFF AND DUP2 MSTORE PUSH1 0x20 ADD PUSH1 0x2 DUP3 ADD PUSH1 0x0 SWAP1 SLOAD SWAP1 PUSH2 0x100 EXP SWAP1 DIV PUSH20 0xFFFFFFFFFFFFFFFFFFFFFFFFFFFFFFFFFFFFFFFF AND PUSH20 0xFFFFFFFFFFFFFFFFFFFFFFFFFFFFFFFFFFFFFFFF AND PUSH20 0xFFFFFFFFFFFFFFFFFFFFFFFFFFFFFFFFFFFFFFFF AND DUP2 MSTORE PUSH1 0x20 ADD PUSH1 0x3 DUP3 ADD SLOAD DUP2 MSTORE PUSH1 0x20 ADD PUSH1 0x4 DUP3 ADD SLOAD DUP2 MSTORE PUSH1 0x20 ADD PUSH1 0x5 DUP3 ADD SLOAD DUP2 MSTORE PUSH1 0x20 ADD PUSH1 0x6 DUP3 ADD SLOAD DUP2 MSTORE PUSH1 0x20 ADD PUSH1 0x7 DUP3 ADD SLOAD DUP2 MSTORE POP POP SWAP1 POP PUSH1 0x0 PUSH1 0x2 PUSH1 0x0 DUP6 DUP2 MSTORE PUSH1 0x20 ADD SWAP1 DUP2 MSTORE PUSH1 0x20 ADD PUSH1 0x0 KECCAK256 PUSH1 0x0 DUP4 PUSH1 0xE0 ADD MLOAD DUP2 MSTORE PUSH1 0x20 ADD SWAP1 DUP2 MSTORE PUSH1 0x20 ADD PUSH1 0x0 KECCAK256 PUSH1 0x40 MLOAD DUP1 PUSH1 0x60 ADD PUSH1 0x40 MSTORE SWAP1 DUP2 PUSH1 0x0 DUP3 ADD SLOAD DUP2 MSTORE PUSH1 0x20 ADD PUSH1 0x1 DUP3 ADD SLOAD DUP2 MSTORE PUSH1 0x20 ADD PUSH1 0x2 DUP3 ADD PUSH1 0x0 SWAP1 SLOAD SWAP1 PUSH2 0x100 EXP SWAP1 DIV PUSH20 0xFFFFFFFFFFFFFFFFFFFFFFFFFFFFFFFFFFFFFFFF AND PUSH20 0xFFFFFFFFFFFFFFFFFFFFFFFFFFFFFFFFFFFFFFFF AND PUSH20 0xFFFFFFFFFFFFFFFFFFFFFFFFFFFFFFFFFFFFFFFF AND DUP2 MSTORE POP POP SWAP1 POP DUP2 PUSH1 0x20 ADD MLOAD PUSH20 0xFFFFFFFFFFFFFFFFFFFFFFFFFFFFFFFFFFFFFFFF AND PUSH4 0x23B872DD CALLER DUP4 PUSH1 0x40 ADD MLOAD PUSH2 0xED9 DUP9 PUSH2 0x13F8 JUMP JUMPDEST PUSH1 0x40 MLOAD DUP5 PUSH4 0xFFFFFFFF AND PUSH1 0xE0 SHL DUP2 MSTORE PUSH1 0x4 ADD PUSH2 0xEF7 SWAP4 SWAP3 SWAP2 SWAP1 PUSH2 0x1B6D JUMP JUMPDEST PUSH1 0x20 PUSH1 0x40 MLOAD DUP1 DUP4 SUB DUP2 PUSH1 0x0 DUP8 GAS CALL ISZERO DUP1 ISZERO PUSH2 0xF16 JUMPI RETURNDATASIZE PUSH1 0x0 DUP1 RETURNDATACOPY RETURNDATASIZE PUSH1 0x0 REVERT JUMPDEST POP POP POP POP PUSH1 0x40 MLOAD RETURNDATASIZE PUSH1 0x1F NOT PUSH1 0x1F DUP3 ADD AND DUP3 ADD DUP1 PUSH1 0x40 MSTORE POP DUP2 ADD SWAP1 PUSH2 0xF3A SWAP2 SWAP1 PUSH2 0x1D83 JUMP JUMPDEST POP PUSH1 0x0 DUP3 PUSH1 0x40 ADD MLOAD SWAP1 POP DUP1 PUSH20 0xFFFFFFFFFFFFFFFFFFFFFFFFFFFFFFFFFFFFFFFF AND PUSH4 0x42842E0E ADDRESS CALLER DUP7 PUSH1 0x60 ADD MLOAD PUSH1 0x40 MLOAD DUP5 PUSH4 0xFFFFFFFF AND PUSH1 0xE0 SHL DUP2 MSTORE PUSH1 0x4 ADD PUSH2 0xF85 SWAP4 SWAP3 SWAP2 SWAP1 PUSH2 0x1B6D JUMP JUMPDEST PUSH1 0x0 PUSH1 0x40 MLOAD DUP1 DUP4 SUB DUP2 PUSH1 0x0 DUP8 DUP1 EXTCODESIZE ISZERO DUP1 ISZERO PUSH2 0xF9F JUMPI PUSH1 0x0 DUP1 REVERT JUMPDEST POP GAS CALL ISZERO DUP1 ISZERO PUSH2 0xFB3 JUMPI RETURNDATASIZE PUSH1 0x0 DUP1 RETURNDATACOPY RETURNDATASIZE PUSH1 0x0 REVERT JUMPDEST POP POP POP POP POP POP POP POP POP JUMP JUMPDEST PUSH1 0x2 PUSH1 0x20 MSTORE DUP2 PUSH1 0x0 MSTORE PUSH1 0x40 PUSH1 0x0 KECCAK256 PUSH1 0x20 MSTORE DUP1 PUSH1 0x0 MSTORE PUSH1 0x40 PUSH1 0x0 KECCAK256 PUSH1 0x0 SWAP2 POP SWAP2 POP POP DUP1 PUSH1 0x0 ADD SLOAD SWAP1 DUP1 PUSH1 0x1 ADD SLOAD SWAP1 DUP1 PUSH1 0x2 ADD PUSH1 0x0 SWAP1 SLOAD SWAP1 PUSH2 0x100 EXP SWAP1 DIV PUSH20 0xFFFFFFFFFFFFFFFFFFFFFFFFFFFFFFFFFFFFFFFF AND SWAP1 POP DUP4 JUMP JUMPDEST PUSH1 0x3 PUSH1 0x20 MSTORE DUP2 PUSH1 0x0 MSTORE PUSH1 0x40 PUSH1 0x0 KECCAK256 DUP2 DUP2 SLOAD DUP2 LT PUSH2 0x1031 JUMPI PUSH1 0x0 DUP1 REVERT JUMPDEST SWAP1 PUSH1 0x0 MSTORE PUSH1 0x20 PUSH1 0x0 KECCAK256 ADD PUSH1 0x0 SWAP2 POP SWAP2 POP SWAP1 SLOAD SWAP1 PUSH2 0x100 EXP SWAP1 DIV PUSH20 0xFFFFFFFFFFFFFFFFFFFFFFFFFFFFFFFFFFFFFFFF AND DUP2 JUMP JUMPDEST PUSH1 0x1 PUSH1 0x20 MSTORE DUP1 PUSH1 0x0 MSTORE PUSH1 0x40 PUSH1 0x0 KECCAK256 PUSH1 0x0 SWAP2 POP SWAP1 POP DUP1 PUSH1 0x0 ADD PUSH1 0x0 SWAP1 SLOAD SWAP1 PUSH2 0x100 EXP SWAP1 DIV PUSH20 0xFFFFFFFFFFFFFFFFFFFFFFFFFFFFFFFFFFFFFFFF AND SWAP1 DUP1 PUSH1 0x1 ADD PUSH1 0x0 SWAP1 SLOAD SWAP1 PUSH2 0x100 EXP SWAP1 DIV PUSH20 0xFFFFFFFFFFFFFFFFFFFFFFFFFFFFFFFFFFFFFFFF AND SWAP1 DUP1 PUSH1 0x2 ADD PUSH1 0x0 SWAP1 SLOAD SWAP1 PUSH2 0x100 EXP SWAP1 DIV PUSH20 0xFFFFFFFFFFFFFFFFFFFFFFFFFFFFFFFFFFFFFFFF AND SWAP1 DUP1 PUSH1 0x3 ADD SLOAD SWAP1 DUP1 PUSH1 0x4 ADD SLOAD SWAP1 DUP1 PUSH1 0x5 ADD SLOAD SWAP1 DUP1 PUSH1 0x6 ADD SLOAD SWAP1 DUP1 PUSH1 0x7 ADD SLOAD SWAP1 POP DUP9 JUMP JUMPDEST TIMESTAMP DUP4 LT ISZERO PUSH2 0x114E JUMPI PUSH1 0x40 MLOAD PUSH32 0x8C379A000000000000000000000000000000000000000000000000000000000 DUP2 MSTORE PUSH1 0x4 ADD PUSH2 0x1145 SWAP1 PUSH2 0x1E30 JUMP JUMPDEST PUSH1 0x40 MLOAD DUP1 SWAP2 SUB SWAP1 REVERT JUMPDEST DUP3 DUP3 GT PUSH2 0x1190 JUMPI PUSH1 0x40 MLOAD PUSH32 0x8C379A000000000000000000000000000000000000000000000000000000000 DUP2 MSTORE PUSH1 0x4 ADD PUSH2 0x1187 SWAP1 PUSH2 0x1E9C JUMP JUMPDEST PUSH1 0x40 MLOAD DUP1 SWAP2 SUB SWAP1 REVERT JUMPDEST PUSH1 0x40 MLOAD DUP1 PUSH2 0x100 ADD PUSH1 0x40 MSTORE DUP1 CALLER PUSH20 0xFFFFFFFFFFFFFFFFFFFFFFFFFFFFFFFFFFFFFFFF AND DUP2 MSTORE PUSH1 0x20 ADD DUP8 PUSH20 0xFFFFFFFFFFFFFFFFFFFFFFFFFFFFFFFFFFFFFFFF AND DUP2 MSTORE PUSH1 0x20 ADD DUP7 PUSH20 0xFFFFFFFFFFFFFFFFFFFFFFFFFFFFFFFFFFFFFFFF AND DUP2 MSTORE PUSH1 0x20 ADD DUP6 DUP2 MSTORE PUSH1 0x20 ADD DUP5 DUP2 MSTORE PUSH1 0x20 ADD DUP4 DUP2 MSTORE PUSH1 0x20 ADD DUP3 DUP2 MSTORE PUSH1 0x20 ADD PUSH1 0x0 DUP2 MSTORE POP PUSH1 0x1 PUSH1 0x0 DUP1 SLOAD DUP2 MSTORE PUSH1 0x20 ADD SWAP1 DUP2 MSTORE PUSH1 0x20 ADD PUSH1 0x0 KECCAK256 PUSH1 0x0 DUP3 ADD MLOAD DUP2 PUSH1 0x0 ADD PUSH1 0x0 PUSH2 0x100 EXP DUP2 SLOAD DUP2 PUSH20 0xFFFFFFFFFFFFFFFFFFFFFFFFFFFFFFFFFFFFFFFF MUL NOT AND SWAP1 DUP4 PUSH20 0xFFFFFFFFFFFFFFFFFFFFFFFFFFFFFFFFFFFFFFFF AND MUL OR SWAP1 SSTORE POP PUSH1 0x20 DUP3 ADD MLOAD DUP2 PUSH1 0x1 ADD PUSH1 0x0 PUSH2 0x100 EXP DUP2 SLOAD DUP2 PUSH20 0xFFFFFFFFFFFFFFFFFFFFFFFFFFFFFFFFFFFFFFFF MUL NOT AND SWAP1 DUP4 PUSH20 0xFFFFFFFFFFFFFFFFFFFFFFFFFFFFFFFFFFFFFFFF AND MUL OR SWAP1 SSTORE POP PUSH1 0x40 DUP3 ADD MLOAD DUP2 PUSH1 0x2 ADD PUSH1 0x0 PUSH2 0x100 EXP DUP2 SLOAD DUP2 PUSH20 0xFFFFFFFFFFFFFFFFFFFFFFFFFFFFFFFFFFFFFFFF MUL NOT AND SWAP1 DUP4 PUSH20 0xFFFFFFFFFFFFFFFFFFFFFFFFFFFFFFFFFFFFFFFF AND MUL OR SWAP1 SSTORE POP PUSH1 0x60 DUP3 ADD MLOAD DUP2 PUSH1 0x3 ADD SSTORE PUSH1 0x80 DUP3 ADD MLOAD DUP2 PUSH1 0x4 ADD SSTORE PUSH1 0xA0 DUP3 ADD MLOAD DUP2 PUSH1 0x5 ADD SSTORE PUSH1 0xC0 DUP3 ADD MLOAD DUP2 PUSH1 0x6 ADD SSTORE PUSH1 0xE0 DUP3 ADD MLOAD DUP2 PUSH1 0x7 ADD SSTORE SWAP1 POP POP TIMESTAMP PUSH1 0x2 PUSH1 0x0 DUP1 SLOAD DUP2 MSTORE PUSH1 0x20 ADD SWAP1 DUP2 MSTORE PUSH1 0x20 ADD PUSH1 0x0 KECCAK256 PUSH1 0x0 DUP1 DUP2 MSTORE PUSH1 0x20 ADD SWAP1 DUP2 MSTORE PUSH1 0x20 ADD PUSH1 0x0 KECCAK256 PUSH1 0x0 ADD DUP2 SWAP1 SSTORE POP PUSH1 0x0 SLOAD PUSH32 0xEF8B2952C43462575E82711D0CC91169720A4589A9FA533D173E022437F5405E DUP7 DUP7 PUSH1 0x40 MLOAD PUSH2 0x138C SWAP3 SWAP2 SWAP1 PUSH2 0x1EBC JUMP JUMPDEST PUSH1 0x40 MLOAD DUP1 SWAP2 SUB SWAP1 LOG2 PUSH1 0x0 DUP1 DUP2 SLOAD DUP1 SWAP3 SWAP2 SWAP1 PUSH2 0x13A6 SWAP1 PUSH2 0x1EE5 JUMP JUMPDEST SWAP2 SWAP1 POP SSTORE POP POP POP POP POP POP POP JUMP JUMPDEST PUSH1 0x0 TIMESTAMP PUSH1 0x1 PUSH1 0x0 DUP5 DUP2 MSTORE PUSH1 0x20 ADD SWAP1 DUP2 MSTORE PUSH1 0x20 ADD PUSH1 0x0 KECCAK256 PUSH1 0x5 ADD SLOAD GT ISZERO SWAP1 POP SWAP2 SWAP1 POP JUMP JUMPDEST PUSH1 0x0 TIMESTAMP PUSH1 0x1 PUSH1 0x0 DUP5 DUP2 MSTORE PUSH1 0x20 ADD SWAP1 DUP2 MSTORE PUSH1 0x20 ADD PUSH1 0x0 KECCAK256 PUSH1 0x4 ADD SLOAD LT SWAP1 POP SWAP2 SWAP1 POP JUMP JUMPDEST PUSH1 0x0 DUP1 PUSH1 0x1 PUSH1 0x0 DUP5 DUP2 MSTORE PUSH1 0x20 ADD SWAP1 DUP2 MSTORE PUSH1 0x20 ADD PUSH1 0x0 KECCAK256 PUSH1 0x40 MLOAD DUP1 PUSH2 0x100 ADD PUSH1 0x40 MSTORE SWAP1 DUP2 PUSH1 0x0 DUP3 ADD PUSH1 0x0 SWAP1 SLOAD SWAP1 PUSH2 0x100 EXP SWAP1 DIV PUSH20 0xFFFFFFFFFFFFFFFFFFFFFFFFFFFFFFFFFFFFFFFF AND PUSH20 0xFFFFFFFFFFFFFFFFFFFFFFFFFFFFFFFFFFFFFFFF AND PUSH20 0xFFFFFFFFFFFFFFFFFFFFFFFFFFFFFFFFFFFFFFFF AND DUP2 MSTORE PUSH1 0x20 ADD PUSH1 0x1 DUP3 ADD PUSH1 0x0 SWAP1 SLOAD SWAP1 PUSH2 0x100 EXP SWAP1 DIV PUSH20 0xFFFFFFFFFFFFFFFFFFFFFFFFFFFFFFFFFFFFFFFF AND PUSH20 0xFFFFFFFFFFFFFFFFFFFFFFFFFFFFFFFFFFFFFFFF AND PUSH20 0xFFFFFFFFFFFFFFFFFFFFFFFFFFFFFFFFFFFFFFFF AND DUP2 MSTORE PUSH1 0x20 ADD PUSH1 0x2 DUP3 ADD PUSH1 0x0 SWAP1 SLOAD SWAP1 PUSH2 0x100 EXP SWAP1 DIV PUSH20 0xFFFFFFFFFFFFFFFFFFFFFFFFFFFFFFFFFFFFFFFF AND PUSH20 0xFFFFFFFFFFFFFFFFFFFFFFFFFFFFFFFFFFFFFFFF AND PUSH20 0xFFFFFFFFFFFFFFFFFFFFFFFFFFFFFFFFFFFFFFFF AND DUP2 MSTORE PUSH1 0x20 ADD PUSH1 0x3 DUP3 ADD SLOAD DUP2 MSTORE PUSH1 0x20 ADD PUSH1 0x4 DUP3 ADD SLOAD DUP2 MSTORE PUSH1 0x20 ADD PUSH1 0x5 DUP3 ADD SLOAD DUP2 MSTORE PUSH1 0x20 ADD PUSH1 0x6 DUP3 ADD SLOAD DUP2 MSTORE PUSH1 0x20 ADD PUSH1 0x7 DUP3 ADD SLOAD DUP2 MSTORE POP POP SWAP1 POP PUSH1 0x0 PUSH1 0x2 PUSH1 0x0 DUP6 DUP2 MSTORE PUSH1 0x20 ADD SWAP1 DUP2 MSTORE PUSH1 0x20 ADD PUSH1 0x0 KECCAK256 PUSH1 0x0 DUP4 PUSH1 0xE0 ADD MLOAD DUP2 MSTORE PUSH1 0x20 ADD SWAP1 DUP2 MSTORE PUSH1 0x20 ADD PUSH1 0x0 KECCAK256 PUSH1 0x40 MLOAD DUP1 PUSH1 0x60 ADD PUSH1 0x40 MSTORE SWAP1 DUP2 PUSH1 0x0 DUP3 ADD SLOAD DUP2 MSTORE PUSH1 0x20 ADD PUSH1 0x1 DUP3 ADD SLOAD DUP2 MSTORE PUSH1 0x20 ADD PUSH1 0x2 DUP3 ADD PUSH1 0x0 SWAP1 SLOAD SWAP1 PUSH2 0x100 EXP SWAP1 DIV PUSH20 0xFFFFFFFFFFFFFFFFFFFFFFFFFFFFFFFFFFFFFFFF AND PUSH20 0xFFFFFFFFFFFFFFFFFFFFFFFFFFFFFFFFFFFFFFFF AND PUSH20 0xFFFFFFFFFFFFFFFFFFFFFFFFFFFFFFFFFFFFFFFF AND DUP2 MSTORE POP POP SWAP1 POP PUSH1 0x0 PUSH2 0x15FC DUP6 PUSH2 0x13B3 JUMP JUMPDEST ISZERO PUSH2 0x161C JUMPI DUP3 PUSH1 0xA0 ADD MLOAD DUP3 PUSH1 0x0 ADD MLOAD PUSH2 0x1615 SWAP2 SWAP1 PUSH2 0x1DB0 JUMP JUMPDEST SWAP1 POP PUSH2 0x162F JUMP JUMPDEST TIMESTAMP DUP3 PUSH1 0x0 ADD MLOAD PUSH2 0x162C SWAP2 SWAP1 PUSH2 0x1DB0 JUMP JUMPDEST SWAP1 POP JUMPDEST PUSH4 0x1E13380 DUP2 PUSH8 0xDE0B6B3A7640000 DUP6 PUSH1 0xC0 ADD MLOAD DUP6 PUSH1 0x20 ADD MLOAD PUSH2 0x1652 SWAP2 SWAP1 PUSH2 0x1F2D JUMP JUMPDEST PUSH2 0x165C SWAP2 SWAP1 PUSH2 0x1FB6 JUMP JUMPDEST PUSH2 0x1666 SWAP2 SWAP1 PUSH2 0x1F2D JUMP JUMPDEST PUSH2 0x1670 SWAP2 SWAP1 PUSH2 0x1FB6 JUMP JUMPDEST DUP3 PUSH1 0x20 ADD MLOAD PUSH2 0x167F SWAP2 SWAP1 PUSH2 0x1CAB JUMP JUMPDEST SWAP4 POP POP POP POP SWAP2 SWAP1 POP JUMP JUMPDEST PUSH1 0x40 MLOAD DUP1 PUSH2 0x100 ADD PUSH1 0x40 MSTORE DUP1 PUSH1 0x0 PUSH20 0xFFFFFFFFFFFFFFFFFFFFFFFFFFFFFFFFFFFFFFFF AND DUP2 MSTORE PUSH1 0x20 ADD PUSH1 0x0 PUSH20 0xFFFFFFFFFFFFFFFFFFFFFFFFFFFFFFFFFFFFFFFF AND DUP2 MSTORE PUSH1 0x20 ADD PUSH1 0x0 PUSH20 0xFFFFFFFFFFFFFFFFFFFFFFFFFFFFFFFFFFFFFFFF AND DUP2 MSTORE PUSH1 0x20 ADD PUSH1 0x0 DUP2 MSTORE PUSH1 0x20 ADD PUSH1 0x0 DUP2 MSTORE PUSH1 0x20 ADD PUSH1 0x0 DUP2 MSTORE PUSH1 0x20 ADD PUSH1 0x0 DUP2 MSTORE PUSH1 0x20 ADD PUSH1 0x0 DUP2 MSTORE POP SWAP1 JUMP JUMPDEST PUSH1 0x0 DUP2 SWAP1 POP SWAP2 SWAP1 POP JUMP JUMPDEST PUSH2 0x1723 DUP2 PUSH2 0x1710 JUMP JUMPDEST DUP3 MSTORE POP POP JUMP JUMPDEST PUSH1 0x0 PUSH1 0x20 DUP3 ADD SWAP1 POP PUSH2 0x173E PUSH1 0x0 DUP4 ADD DUP5 PUSH2 0x171A JUMP JUMPDEST SWAP3 SWAP2 POP POP JUMP JUMPDEST PUSH1 0x0 DUP1 REVERT JUMPDEST PUSH2 0x1752 DUP2 PUSH2 0x1710 JUMP JUMPDEST DUP2 EQ PUSH2 0x175D JUMPI PUSH1 0x0 DUP1 REVERT JUMPDEST POP JUMP JUMPDEST PUSH1 0x0 DUP2 CALLDATALOAD SWAP1 POP PUSH2 0x176F DUP2 PUSH2 0x1749 JUMP JUMPDEST SWAP3 SWAP2 POP POP JUMP JUMPDEST PUSH1 0x0 PUSH1 0x20 DUP3 DUP5 SUB SLT ISZERO PUSH2 0x178B JUMPI PUSH2 0x178A PUSH2 0x1744 JUMP JUMPDEST JUMPDEST PUSH1 0x0 PUSH2 0x1799 DUP5 DUP3 DUP6 ADD PUSH2 0x1760 JUMP JUMPDEST SWAP2 POP POP SWAP3 SWAP2 POP POP JUMP JUMPDEST PUSH1 0x0 DUP1 PUSH1 0x40 DUP4 DUP6 SUB SLT ISZERO PUSH2 0x17B9 JUMPI PUSH2 0x17B8 PUSH2 0x1744 JUMP JUMPDEST JUMPDEST PUSH1 0x0 PUSH2 0x17C7 DUP6 DUP3 DUP7 ADD PUSH2 0x1760 JUMP JUMPDEST SWAP3 POP POP PUSH1 0x20 PUSH2 0x17D8 DUP6 DUP3 DUP7 ADD PUSH2 0x1760 JUMP JUMPDEST SWAP2 POP POP SWAP3 POP SWAP3 SWAP1 POP JUMP JUMPDEST PUSH1 0x0 PUSH20 0xFFFFFFFFFFFFFFFFFFFFFFFFFFFFFFFFFFFFFFFF DUP3 AND SWAP1 POP SWAP2 SWAP1 POP JUMP JUMPDEST PUSH1 0x0 PUSH2 0x180D DUP3 PUSH2 0x17E2 JUMP JUMPDEST SWAP1 POP SWAP2 SWAP1 POP JUMP JUMPDEST PUSH2 0x181D DUP2 PUSH2 0x1802 JUMP JUMPDEST DUP3 MSTORE POP POP JUMP JUMPDEST PUSH1 0x0 PUSH1 0x60 DUP3 ADD SWAP1 POP PUSH2 0x1838 PUSH1 0x0 DUP4 ADD DUP7 PUSH2 0x171A JUMP JUMPDEST PUSH2 0x1845 PUSH1 0x20 DUP4 ADD DUP6 PUSH2 0x171A JUMP JUMPDEST PUSH2 0x1852 PUSH1 0x40 DUP4 ADD DUP5 PUSH2 0x1814 JUMP JUMPDEST SWAP5 SWAP4 POP POP POP POP JUMP JUMPDEST PUSH1 0x0 PUSH1 0x20 DUP3 ADD SWAP1 POP PUSH2 0x186F PUSH1 0x0 DUP4 ADD DUP5 PUSH2 0x1814 JUMP JUMPDEST SWAP3 SWAP2 POP POP JUMP JUMPDEST PUSH1 0x0 PUSH2 0x100 DUP3 ADD SWAP1 POP PUSH2 0x188B PUSH1 0x0 DUP4 ADD DUP12 PUSH2 0x1814 JUMP JUMPDEST PUSH2 0x1898 PUSH1 0x20 DUP4 ADD DUP11 PUSH2 0x1814 JUMP JUMPDEST PUSH2 0x18A5 PUSH1 0x40 DUP4 ADD DUP10 PUSH2 0x1814 JUMP JUMPDEST PUSH2 0x18B2 PUSH1 0x60 DUP4 ADD DUP9 PUSH2 0x171A JUMP JUMPDEST PUSH2 0x18BF PUSH1 0x80 DUP4 ADD DUP8 PUSH2 0x171A JUMP JUMPDEST PUSH2 0x18CC PUSH1 0xA0 DUP4 ADD DUP7 PUSH2 0x171A JUMP JUMPDEST PUSH2 0x18D9 PUSH1 0xC0 DUP4 ADD DUP6 PUSH2 0x171A JUMP JUMPDEST PUSH2 0x18E6 PUSH1 0xE0 DUP4 ADD DUP5 PUSH2 0x171A JUMP JUMPDEST SWAP10 SWAP9 POP POP POP POP POP POP POP POP POP JUMP JUMPDEST PUSH2 0x18FC DUP2 PUSH2 0x1802 JUMP JUMPDEST DUP2 EQ PUSH2 0x1907 JUMPI PUSH1 0x0 DUP1 REVERT JUMPDEST POP JUMP JUMPDEST PUSH1 0x0 DUP2 CALLDATALOAD SWAP1 POP PUSH2 0x1919 DUP2 PUSH2 0x18F3 JUMP JUMPDEST SWAP3 SWAP2 POP POP JUMP JUMPDEST PUSH1 0x0 DUP1 PUSH1 0x0 DUP1 PUSH1 0x0 DUP1 PUSH1 0xC0 DUP8 DUP10 SUB SLT ISZERO PUSH2 0x193C JUMPI PUSH2 0x193B PUSH2 0x1744 JUMP JUMPDEST JUMPDEST PUSH1 0x0 PUSH2 0x194A DUP10 DUP3 DUP11 ADD PUSH2 0x190A JUMP JUMPDEST SWAP7 POP POP PUSH1 0x20 PUSH2 0x195B DUP10 DUP3 DUP11 ADD PUSH2 0x190A JUMP JUMPDEST SWAP6 POP POP PUSH1 0x40 PUSH2 0x196C DUP10 DUP3 DUP11 ADD PUSH2 0x1760 JUMP JUMPDEST SWAP5 POP POP PUSH1 0x60 PUSH2 0x197D DUP10 DUP3 DUP11 ADD PUSH2 0x1760 JUMP JUMPDEST SWAP4 POP POP PUSH1 0x80 PUSH2 0x198E DUP10 DUP3 DUP11 ADD PUSH2 0x1760 JUMP JUMPDEST SWAP3 POP POP PUSH1 0xA0 PUSH2 0x199F DUP10 DUP3 DUP11 ADD PUSH2 0x1760 JUMP JUMPDEST SWAP2 POP POP SWAP3 SWAP6 POP SWAP3 SWAP6 POP SWAP3 SWAP6 JUMP JUMPDEST PUSH1 0x0 DUP3 DUP3 MSTORE PUSH1 0x20 DUP3 ADD SWAP1 POP SWAP3 SWAP2 POP POP JUMP JUMPDEST PUSH32 0x4C414E3A206E6F74206F776E6572000000000000000000000000000000000000 PUSH1 0x0 DUP3 ADD MSTORE POP JUMP JUMPDEST PUSH1 0x0 PUSH2 0x19F3 PUSH1 0xE DUP4 PUSH2 0x19AC JUMP JUMPDEST SWAP2 POP PUSH2 0x19FE DUP3 PUSH2 0x19BD JUMP JUMPDEST PUSH1 0x20 DUP3 ADD SWAP1 POP SWAP2 SWAP1 POP JUMP JUMPDEST PUSH1 0x0 PUSH1 0x20 DUP3 ADD SWAP1 POP DUP2 DUP2 SUB PUSH1 0x0 DUP4 ADD MSTORE PUSH2 0x1A22 DUP2 PUSH2 0x19E6 JUMP JUMPDEST SWAP1 POP SWAP2 SWAP1 POP JUMP JUMPDEST PUSH32 0x4C414E3A20616C72656164792073746172746564000000000000000000000000 PUSH1 0x0 DUP3 ADD MSTORE POP JUMP JUMPDEST PUSH1 0x0 PUSH2 0x1A5F PUSH1 0x14 DUP4 PUSH2 0x19AC JUMP JUMPDEST SWAP2 POP PUSH2 0x1A6A DUP3 PUSH2 0x1A29 JUMP JUMPDEST PUSH1 0x20 DUP3 ADD SWAP1 POP SWAP2 SWAP1 POP JUMP JUMPDEST PUSH1 0x0 PUSH1 0x20 DUP3 ADD SWAP1 POP DUP2 DUP2 SUB PUSH1 0x0 DUP4 ADD MSTORE PUSH2 0x1A8E DUP2 PUSH2 0x1A52 JUMP JUMPDEST SWAP1 POP SWAP2 SWAP1 POP JUMP JUMPDEST PUSH32 0x4C414E3A206C6F616E206E6F7420656E64656400000000000000000000000000 PUSH1 0x0 DUP3 ADD MSTORE POP JUMP JUMPDEST PUSH1 0x0 PUSH2 0x1ACB PUSH1 0x13 DUP4 PUSH2 0x19AC JUMP JUMPDEST SWAP2 POP PUSH2 0x1AD6 DUP3 PUSH2 0x1A95 JUMP JUMPDEST PUSH1 0x20 DUP3 ADD SWAP1 POP SWAP2 SWAP1 POP JUMP JUMPDEST PUSH1 0x0 PUSH1 0x20 DUP3 ADD SWAP1 POP DUP2 DUP2 SUB PUSH1 0x0 DUP4 ADD MSTORE PUSH2 0x1AFA DUP2 PUSH2 0x1ABE JUMP JUMPDEST SWAP1 POP SWAP2 SWAP1 POP JUMP JUMPDEST PUSH32 0x4C414E3A206E6F74206C61746573742062696464657200000000000000000000 PUSH1 0x0 DUP3 ADD MSTORE POP JUMP JUMPDEST PUSH1 0x0 PUSH2 0x1B37 PUSH1 0x16 DUP4 PUSH2 0x19AC JUMP JUMPDEST SWAP2 POP PUSH2 0x1B42 DUP3 PUSH2 0x1B01 JUMP JUMPDEST PUSH1 0x20 DUP3 ADD SWAP1 POP SWAP2 SWAP1 POP JUMP JUMPDEST PUSH1 0x0 PUSH1 0x20 DUP3 ADD SWAP1 POP DUP2 DUP2 SUB PUSH1 0x0 DUP4 ADD MSTORE PUSH2 0x1B66 DUP2 PUSH2 0x1B2A JUMP JUMPDEST SWAP1 POP SWAP2 SWAP1 POP JUMP JUMPDEST PUSH1 0x0 PUSH1 0x60 DUP3 ADD SWAP1 POP PUSH2 0x1B82 PUSH1 0x0 DUP4 ADD DUP7 PUSH2 0x1814 JUMP JUMPDEST PUSH2 0x1B8F PUSH1 0x20 DUP4 ADD DUP6 PUSH2 0x1814 JUMP JUMPDEST PUSH2 0x1B9C PUSH1 0x40 DUP4 ADD DUP5 PUSH2 0x171A JUMP JUMPDEST SWAP5 SWAP4 POP POP POP POP JUMP JUMPDEST PUSH32 0x4C414E3A206E6F74207374617274656400000000000000000000000000000000 PUSH1 0x0 DUP3 ADD MSTORE POP JUMP JUMPDEST PUSH1 0x0 PUSH2 0x1BDA PUSH1 0x10 DUP4 PUSH2 0x19AC JUMP JUMPDEST SWAP2 POP PUSH2 0x1BE5 DUP3 PUSH2 0x1BA4 JUMP JUMPDEST PUSH1 0x20 DUP3 ADD SWAP1 POP SWAP2 SWAP1 POP JUMP JUMPDEST PUSH1 0x0 PUSH1 0x20 DUP3 ADD SWAP1 POP DUP2 DUP2 SUB PUSH1 0x0 DUP4 ADD MSTORE PUSH2 0x1C09 DUP2 PUSH2 0x1BCD JUMP JUMPDEST SWAP1 POP SWAP2 SWAP1 POP JUMP JUMPDEST PUSH32 0x4C414E3A20616C726561647920656E6465640000000000000000000000000000 PUSH1 0x0 DUP3 ADD MSTORE POP JUMP JUMPDEST PUSH1 0x0 PUSH2 0x1C46 PUSH1 0x12 DUP4 PUSH2 0x19AC JUMP JUMPDEST SWAP2 POP PUSH2 0x1C51 DUP3 PUSH2 0x1C10 JUMP JUMPDEST PUSH1 0x20 DUP3 ADD SWAP1 POP SWAP2 SWAP1 POP JUMP JUMPDEST PUSH1 0x0 PUSH1 0x20 DUP3 ADD SWAP1 POP DUP2 DUP2 SUB PUSH1 0x0 DUP4 ADD MSTORE PUSH2 0x1C75 DUP2 PUSH2 0x1C39 JUMP JUMPDEST SWAP1 POP SWAP2 SWAP1 POP JUMP JUMPDEST PUSH32 0x4E487B7100000000000000000000000000000000000000000000000000000000 PUSH1 0x0 MSTORE PUSH1 0x11 PUSH1 0x4 MSTORE PUSH1 0x24 PUSH1 0x0 REVERT JUMPDEST PUSH1 0x0 PUSH2 0x1CB6 DUP3 PUSH2 0x1710 JUMP JUMPDEST SWAP2 POP PUSH2 0x1CC1 DUP4 PUSH2 0x1710 JUMP JUMPDEST SWAP3 POP DUP3 DUP3 ADD SWAP1 POP DUP1 DUP3 GT ISZERO PUSH2 0x1CD9 JUMPI PUSH2 0x1CD8 PUSH2 0x1C7C JUMP JUMPDEST JUMPDEST SWAP3 SWAP2 POP POP JUMP JUMPDEST PUSH32 0x4C414E3A20626964206E6F742068696768657200000000000000000000000000 PUSH1 0x0 DUP3 ADD MSTORE POP JUMP JUMPDEST PUSH1 0x0 PUSH2 0x1D15 PUSH1 0x13 DUP4 PUSH2 0x19AC JUMP JUMPDEST SWAP2 POP PUSH2 0x1D20 DUP3 PUSH2 0x1CDF JUMP JUMPDEST PUSH1 0x20 DUP3 ADD SWAP1 POP SWAP2 SWAP1 POP JUMP JUMPDEST PUSH1 0x0 PUSH1 0x20 DUP3 ADD SWAP1 POP DUP2 DUP2 SUB PUSH1 0x0 DUP4 ADD MSTORE PUSH2 0x1D44 DUP2 PUSH2 0x1D08 JUMP JUMPDEST SWAP1 POP SWAP2 SWAP1 POP JUMP JUMPDEST PUSH1 0x0 DUP2 ISZERO ISZERO SWAP1 POP SWAP2 SWAP1 POP JUMP JUMPDEST PUSH2 0x1D60 DUP2 PUSH2 0x1D4B JUMP JUMPDEST DUP2 EQ PUSH2 0x1D6B JUMPI PUSH1 0x0 DUP1 REVERT JUMPDEST POP JUMP JUMPDEST PUSH1 0x0 DUP2 MLOAD SWAP1 POP PUSH2 0x1D7D DUP2 PUSH2 0x1D57 JUMP JUMPDEST SWAP3 SWAP2 POP POP JUMP JUMPDEST PUSH1 0x0 PUSH1 0x20 DUP3 DUP5 SUB SLT ISZERO PUSH2 0x1D99 JUMPI PUSH2 0x1D98 PUSH2 0x1744 JUMP JUMPDEST JUMPDEST PUSH1 0x0 PUSH2 0x1DA7 DUP5 DUP3 DUP6 ADD PUSH2 0x1D6E JUMP JUMPDEST SWAP2 POP POP SWAP3 SWAP2 POP POP JUMP JUMPDEST PUSH1 0x0 PUSH2 0x1DBB DUP3 PUSH2 0x1710 JUMP JUMPDEST SWAP2 POP PUSH2 0x1DC6 DUP4 PUSH2 0x1710 JUMP JUMPDEST SWAP3 POP DUP3 DUP3 SUB SWAP1 POP DUP2 DUP2 GT ISZERO PUSH2 0x1DDE JUMPI PUSH2 0x1DDD PUSH2 0x1C7C JUMP JUMPDEST JUMPDEST SWAP3 SWAP2 POP POP JUMP JUMPDEST PUSH32 0x4C414E3A2073746172742074696D6520696E2070617374000000000000000000 PUSH1 0x0 DUP3 ADD MSTORE POP JUMP JUMPDEST PUSH1 0x0 PUSH2 0x1E1A PUSH1 0x17 DUP4 PUSH2 0x19AC JUMP JUMPDEST SWAP2 POP PUSH2 0x1E25 DUP3 PUSH2 0x1DE4 JUMP JUMPDEST PUSH1 0x20 DUP3 ADD SWAP1 POP SWAP2 SWAP1 POP JUMP JUMPDEST PUSH1 0x0 PUSH1 0x20 DUP3 ADD SWAP1 POP DUP2 DUP2 SUB PUSH1 0x0 DUP4 ADD MSTORE PUSH2 0x1E49 DUP2 PUSH2 0x1E0D JUMP JUMPDEST SWAP1 POP SWAP2 SWAP1 POP JUMP JUMPDEST PUSH32 0x4C414E3A20737461727420616674657220656E64000000000000000000000000 PUSH1 0x0 DUP3 ADD MSTORE POP JUMP JUMPDEST PUSH1 0x0 PUSH2 0x1E86 PUSH1 0x14 DUP4 PUSH2 0x19AC JUMP JUMPDEST SWAP2 POP PUSH2 0x1E91 DUP3 PUSH2 0x1E50 JUMP JUMPDEST PUSH1 0x20 DUP3 ADD SWAP1 POP SWAP2 SWAP1 POP JUMP JUMPDEST PUSH1 0x0 PUSH1 0x20 DUP3 ADD SWAP1 POP DUP2 DUP2 SUB PUSH1 0x0 DUP4 ADD MSTORE PUSH2 0x1EB5 DUP2 PUSH2 0x1E79 JUMP JUMPDEST SWAP1 POP SWAP2 SWAP1 POP JUMP JUMPDEST PUSH1 0x0 PUSH1 0x40 DUP3 ADD SWAP1 POP PUSH2 0x1ED1 PUSH1 0x0 DUP4 ADD DUP6 PUSH2 0x1814 JUMP JUMPDEST PUSH2 0x1EDE PUSH1 0x20 DUP4 ADD DUP5 PUSH2 0x171A JUMP JUMPDEST SWAP4 SWAP3 POP POP POP JUMP JUMPDEST PUSH1 0x0 PUSH2 0x1EF0 DUP3 PUSH2 0x1710 JUMP JUMPDEST SWAP2 POP PUSH32 0xFFFFFFFFFFFFFFFFFFFFFFFFFFFFFFFFFFFFFFFFFFFFFFFFFFFFFFFFFFFFFFFF DUP3 SUB PUSH2 0x1F22 JUMPI PUSH2 0x1F21 PUSH2 0x1C7C JUMP JUMPDEST JUMPDEST PUSH1 0x1 DUP3 ADD SWAP1 POP SWAP2 SWAP1 POP JUMP JUMPDEST PUSH1 0x0 PUSH2 0x1F38 DUP3 PUSH2 0x1710 JUMP JUMPDEST SWAP2 POP PUSH2 0x1F43 DUP4 PUSH2 0x1710 JUMP JUMPDEST SWAP3 POP DUP2 PUSH32 0xFFFFFFFFFFFFFFFFFFFFFFFFFFFFFFFFFFFFFFFFFFFFFFFFFFFFFFFFFFFFFFFF DIV DUP4 GT DUP3 ISZERO ISZERO AND ISZERO PUSH2 0x1F7C JUMPI PUSH2 0x1F7B PUSH2 0x1C7C JUMP JUMPDEST JUMPDEST DUP3 DUP3 MUL SWAP1 POP SWAP3 SWAP2 POP POP JUMP JUMPDEST PUSH32 0x4E487B7100000000000000000000000000000000000000000000000000000000 PUSH1 0x0 MSTORE PUSH1 0x12 PUSH1 0x4 MSTORE PUSH1 0x24 PUSH1 0x0 REVERT JUMPDEST PUSH1 0x0 PUSH2 0x1FC1 DUP3 PUSH2 0x1710 JUMP JUMPDEST SWAP2 POP PUSH2 0x1FCC DUP4 PUSH2 0x1710 JUMP JUMPDEST SWAP3 POP DUP3 PUSH2 0x1FDC JUMPI PUSH2 0x1FDB PUSH2 0x1F87 JUMP JUMPDEST JUMPDEST DUP3 DUP3 DIV SWAP1 POP SWAP3 SWAP2 POP POP JUMP INVALID LOG2 PUSH5 0x6970667358 0x22 SLT KECCAK256 0xB0 SLT 0xEC 0xE8 0xC1 CREATE2 PUSH29 0x231FEAD0D809AE6EF81516EE3A23E4E1E10859826F19F7C59E64736F6C PUSH4 0x43000810 STOP CALLER "
				},
				"gasEstimates": {
					"creation": {
						"codeDepositCost": "1644200",
						"executionCost": "1722",
						"totalCost": "1645922"
					},
					"external": {
						"bid(uint256,uint256)": "infinite",
						"bids(uint256,uint256)": "infinite",
						"cancel(uint256)": "infinite",
						"count()": "2430",
						"endLoan(uint256)": "infinite",
						"launch(address,address,uint256,uint256,uint256,uint256)": "infinite",
						"liquidate(uint256)": "infinite",
						"loans(uint256)": "infinite",
						"whitelistedAddresses(uint256,uint256)": "infinite"
					},
					"internal": {
						"_calculateLoanValue(uint256)": "infinite",
						"_ended(uint256)": "2226",
						"_started(uint256)": "2223"
					}
				},
				"methodIdentifiers": {
					"bid(uint256,uint256)": "598647f8",
					"bids(uint256,uint256)": "7b3c4baa",
					"cancel(uint256)": "40e58ee5",
					"count()": "06661abd",
					"endLoan(uint256)": "7870860b",
					"launch(address,address,uint256,uint256,uint256,uint256)": "e7e4dfcd",
					"liquidate(uint256)": "415f1240",
					"loans(uint256)": "e1ec3c68",
					"whitelistedAddresses(uint256,uint256)": "9bea77da"
				}
			},
			"storageLayout": {
				"storage": [
					{
						"astId": 223,
						"contract": "main.sol:LAN",
						"label": "count",
						"offset": 0,
						"slot": "0",
						"type": "t_uint256"
					},
					{
						"astId": 245,
						"contract": "main.sol:LAN",
						"label": "loans",
						"offset": 0,
						"slot": "1",
						"type": "t_mapping(t_uint256,t_struct(Loan)240_storage)"
					},
					{
						"astId": 259,
						"contract": "main.sol:LAN",
						"label": "bids",
						"offset": 0,
						"slot": "2",
						"type": "t_mapping(t_uint256,t_mapping(t_uint256,t_struct(Bid)252_storage))"
					},
					{
						"astId": 264,
						"contract": "main.sol:LAN",
						"label": "whitelistedAddresses",
						"offset": 0,
						"slot": "3",
						"type": "t_mapping(t_uint256,t_array(t_address)dyn_storage)"
					}
				],
				"types": {
					"t_address": {
						"encoding": "inplace",
						"label": "address",
						"numberOfBytes": "20"
					},
					"t_array(t_address)dyn_storage": {
						"base": "t_address",
						"encoding": "dynamic_array",
						"label": "address[]",
						"numberOfBytes": "32"
					},
					"t_mapping(t_uint256,t_array(t_address)dyn_storage)": {
						"encoding": "mapping",
						"key": "t_uint256",
						"label": "mapping(uint256 => address[])",
						"numberOfBytes": "32",
						"value": "t_array(t_address)dyn_storage"
					},
					"t_mapping(t_uint256,t_mapping(t_uint256,t_struct(Bid)252_storage))": {
						"encoding": "mapping",
						"key": "t_uint256",
						"label": "mapping(uint256 => mapping(uint256 => struct LAN.Bid))",
						"numberOfBytes": "32",
						"value": "t_mapping(t_uint256,t_struct(Bid)252_storage)"
					},
					"t_mapping(t_uint256,t_struct(Bid)252_storage)": {
						"encoding": "mapping",
						"key": "t_uint256",
						"label": "mapping(uint256 => struct LAN.Bid)",
						"numberOfBytes": "32",
						"value": "t_struct(Bid)252_storage"
					},
					"t_mapping(t_uint256,t_struct(Loan)240_storage)": {
						"encoding": "mapping",
						"key": "t_uint256",
						"label": "mapping(uint256 => struct LAN.Loan)",
						"numberOfBytes": "32",
						"value": "t_struct(Loan)240_storage"
					},
					"t_struct(Bid)252_storage": {
						"encoding": "inplace",
						"label": "struct LAN.Bid",
						"members": [
							{
								"astId": 247,
								"contract": "main.sol:LAN",
								"label": "bidTime",
								"offset": 0,
								"slot": "0",
								"type": "t_uint256"
							},
							{
								"astId": 249,
								"contract": "main.sol:LAN",
								"label": "bidAmount",
								"offset": 0,
								"slot": "1",
								"type": "t_uint256"
							},
							{
								"astId": 251,
								"contract": "main.sol:LAN",
								"label": "user",
								"offset": 0,
								"slot": "2",
								"type": "t_address"
							}
						],
						"numberOfBytes": "96"
					},
					"t_struct(Loan)240_storage": {
						"encoding": "inplace",
						"label": "struct LAN.Loan",
						"members": [
							{
								"astId": 225,
								"contract": "main.sol:LAN",
								"label": "owner",
								"offset": 0,
								"slot": "0",
								"type": "t_address"
							},
							{
								"astId": 227,
								"contract": "main.sol:LAN",
								"label": "token",
								"offset": 0,
								"slot": "1",
								"type": "t_address"
							},
							{
								"astId": 229,
								"contract": "main.sol:LAN",
								"label": "collectionAddress",
								"offset": 0,
								"slot": "2",
								"type": "t_address"
							},
							{
								"astId": 231,
								"contract": "main.sol:LAN",
								"label": "nftId",
								"offset": 0,
								"slot": "3",
								"type": "t_uint256"
							},
							{
								"astId": 233,
								"contract": "main.sol:LAN",
								"label": "startTime",
								"offset": 0,
								"slot": "4",
								"type": "t_uint256"
							},
							{
								"astId": 235,
								"contract": "main.sol:LAN",
								"label": "endTime",
								"offset": 0,
								"slot": "5",
								"type": "t_uint256"
							},
							{
								"astId": 237,
								"contract": "main.sol:LAN",
								"label": "apr",
								"offset": 0,
								"slot": "6",
								"type": "t_uint256"
							},
							{
								"astId": 239,
								"contract": "main.sol:LAN",
								"label": "numBids",
								"offset": 0,
								"slot": "7",
								"type": "t_uint256"
							}
						],
						"numberOfBytes": "256"
					},
					"t_uint256": {
						"encoding": "inplace",
						"label": "uint256",
						"numberOfBytes": "32"
					}
				}
			},
			"userdoc": {
				"kind": "user",
				"methods": {},
				"version": 1
			}
		}
	}
}