{
	"main.sol": {
		"LAN": {
			"abi": [
				{
					"anonymous": false,
					"inputs": [
						{
							"indexed": false,
							"internalType": "uint256",
							"name": "Id",
							"type": "uint256"
						}
					],
					"name": "loanCancelled",
					"type": "event"
				},
				{
					"anonymous": false,
					"inputs": [
						{
							"indexed": true,
							"internalType": "uint256",
							"name": "poolId",
							"type": "uint256"
						},
						{
							"indexed": false,
							"internalType": "address",
							"name": "collectionAddress",
							"type": "address"
						},
						{
							"indexed": false,
							"internalType": "uint256",
							"name": "nftId",
							"type": "uint256"
						}
					],
					"name": "newPool",
					"type": "event"
				},
				{
					"inputs": [
						{
							"internalType": "uint256",
							"name": "_poolId",
							"type": "uint256"
						},
						{
							"internalType": "uint256",
							"name": "_amount",
							"type": "uint256"
						}
					],
					"name": "bid",
					"outputs": [],
					"stateMutability": "nonpayable",
					"type": "function"
				},
				{
					"inputs": [
						{
							"internalType": "uint256",
							"name": "",
							"type": "uint256"
						},
						{
							"internalType": "uint256",
							"name": "",
							"type": "uint256"
						}
					],
					"name": "bids",
					"outputs": [
						{
							"internalType": "uint256",
							"name": "bidTime",
							"type": "uint256"
						},
						{
							"internalType": "uint256",
							"name": "bidAmount",
							"type": "uint256"
						},
						{
							"internalType": "address",
							"name": "user",
							"type": "address"
						}
					],
					"stateMutability": "view",
					"type": "function"
				},
				{
					"inputs": [
						{
							"internalType": "uint256",
							"name": "_poolId",
							"type": "uint256"
						}
					],
					"name": "cancel",
					"outputs": [],
					"stateMutability": "nonpayable",
					"type": "function"
				},
				{
					"inputs": [],
					"name": "count",
					"outputs": [
						{
							"internalType": "uint256",
							"name": "",
							"type": "uint256"
						}
					],
					"stateMutability": "view",
					"type": "function"
				},
				{
					"inputs": [
						{
							"internalType": "uint256",
							"name": "_poolId",
							"type": "uint256"
						}
					],
					"name": "endLoan",
					"outputs": [],
					"stateMutability": "nonpayable",
					"type": "function"
				},
				{
					"inputs": [
						{
							"internalType": "address",
							"name": "_token",
							"type": "address"
						},
						{
							"internalType": "address",
							"name": "_collectionAddress",
							"type": "address"
						},
						{
							"internalType": "uint256",
							"name": "_nftId",
							"type": "uint256"
						},
						{
							"internalType": "uint256",
							"name": "_startTime",
							"type": "uint256"
						},
						{
							"internalType": "uint256",
							"name": "_endTime",
							"type": "uint256"
						},
						{
							"internalType": "uint256",
							"name": "_apr",
							"type": "uint256"
						},
						{
							"internalType": "bool",
							"name": "_whitelisted",
							"type": "bool"
						}
					],
					"name": "launch",
					"outputs": [],
					"stateMutability": "nonpayable",
					"type": "function"
				},
				{
					"inputs": [
						{
							"internalType": "uint256",
							"name": "_poolId",
							"type": "uint256"
						}
					],
					"name": "liquidate",
					"outputs": [],
					"stateMutability": "nonpayable",
					"type": "function"
				},
				{
					"inputs": [
						{
							"internalType": "uint256",
							"name": "_poolId",
							"type": "uint256"
						}
					],
					"name": "liquidateEarly",
					"outputs": [],
					"stateMutability": "nonpayable",
					"type": "function"
				},
				{
					"inputs": [
						{
							"internalType": "uint256",
							"name": "",
							"type": "uint256"
						}
					],
					"name": "loans",
					"outputs": [
						{
							"internalType": "address",
							"name": "owner",
							"type": "address"
						},
						{
							"internalType": "address",
							"name": "token",
							"type": "address"
						},
						{
							"internalType": "address",
							"name": "collectionAddress",
							"type": "address"
						},
						{
							"internalType": "uint256",
							"name": "nftId",
							"type": "uint256"
						},
						{
							"internalType": "uint256",
							"name": "startTime",
							"type": "uint256"
						},
						{
							"internalType": "uint256",
							"name": "endTime",
							"type": "uint256"
						},
						{
							"internalType": "uint256",
							"name": "apr",
							"type": "uint256"
						},
						{
							"internalType": "uint256",
							"name": "numBids",
							"type": "uint256"
						},
						{
							"internalType": "bool",
							"name": "whitelisted",
							"type": "bool"
						}
					],
					"stateMutability": "view",
					"type": "function"
				},
				{
					"inputs": [
						{
							"internalType": "uint256",
							"name": "_poolId",
							"type": "uint256"
						},
						{
							"internalType": "address",
							"name": "_newAddress",
							"type": "address"
						}
					],
					"name": "setNewBidOwner",
					"outputs": [],
					"stateMutability": "nonpayable",
					"type": "function"
				},
				{
					"inputs": [
						{
							"internalType": "uint256",
							"name": "",
							"type": "uint256"
						},
						{
							"internalType": "uint256",
							"name": "",
							"type": "uint256"
						}
					],
					"name": "whitelistedAddresses",
					"outputs": [
						{
							"internalType": "address",
							"name": "",
							"type": "address"
						}
					],
					"stateMutability": "view",
					"type": "function"
				}
			],
			"devdoc": {
				"kind": "dev",
				"methods": {},
				"version": 1
			},
			"evm": {
				"assembly": "    /* \"main.sol\":142:6251  contract LAN{... */\n  mstore(0x40, 0x80)\n  callvalue\n  dup1\n  iszero\n  tag_1\n  jumpi\n  0x00\n  dup1\n  revert\ntag_1:\n  pop\n  dataSize(sub_0)\n  dup1\n  dataOffset(sub_0)\n  0x00\n  codecopy\n  0x00\n  return\nstop\n\nsub_0: assembly {\n        /* \"main.sol\":142:6251  contract LAN{... */\n      mstore(0x40, 0x80)\n      callvalue\n      dup1\n      iszero\n      tag_1\n      jumpi\n      0x00\n      dup1\n      revert\n    tag_1:\n      pop\n      jumpi(tag_2, lt(calldatasize, 0x04))\n      shr(0xe0, calldataload(0x00))\n      dup1\n      0x598647f8\n      gt\n      tag_14\n      jumpi\n      dup1\n      0x598647f8\n      eq\n      tag_8\n      jumpi\n      dup1\n      0x7870860b\n      eq\n      tag_9\n      jumpi\n      dup1\n      0x7b3c4baa\n      eq\n      tag_10\n      jumpi\n      dup1\n      0x8f769f3a\n      eq\n      tag_11\n      jumpi\n      dup1\n      0x9bea77da\n      eq\n      tag_12\n      jumpi\n      dup1\n      0xe1ec3c68\n      eq\n      tag_13\n      jumpi\n      jump(tag_2)\n    tag_14:\n      dup1\n      0x06661abd\n      eq\n      tag_3\n      jumpi\n      dup1\n      0x18de4f9d\n      eq\n      tag_4\n      jumpi\n      dup1\n      0x2613c5d6\n      eq\n      tag_5\n      jumpi\n      dup1\n      0x40e58ee5\n      eq\n      tag_6\n      jumpi\n      dup1\n      0x415f1240\n      eq\n      tag_7\n      jumpi\n    tag_2:\n      0x00\n      dup1\n      revert\n        /* \"main.sol\":313:333  uint256 public count */\n    tag_3:\n      tag_15\n      tag_16\n      jump\t// in\n    tag_15:\n      mload(0x40)\n      tag_17\n      swap2\n      swap1\n      tag_18\n      jump\t// in\n    tag_17:\n      mload(0x40)\n      dup1\n      swap2\n      sub\n      swap1\n      return\n        /* \"main.sol\":4955:5416  function liquidateEarly(uint256 _poolId) external onlyOwner(_poolId) {... */\n    tag_4:\n      tag_19\n      0x04\n      dup1\n      calldatasize\n      sub\n      dup2\n      add\n      swap1\n      tag_20\n      swap2\n      swap1\n      tag_21\n      jump\t// in\n    tag_20:\n      tag_22\n      jump\t// in\n    tag_19:\n      stop\n        /* \"main.sol\":1269:2022  function launch(address _token, address _collectionAddress, uint256 _nftId, uint256 _startTime, uint256 _endTime, uint256 _apr, bool _whitelisted) public {... */\n    tag_5:\n      tag_23\n      0x04\n      dup1\n      calldatasize\n      sub\n      dup2\n      add\n      swap1\n      tag_24\n      swap2\n      swap1\n      tag_25\n      jump\t// in\n    tag_24:\n      tag_26\n      jump\t// in\n    tag_23:\n      stop\n        /* \"main.sol\":3532:3776  function cancel(uint256 _poolId) external onlyOwner(_poolId) {... */\n    tag_6:\n      tag_27\n      0x04\n      dup1\n      calldatasize\n      sub\n      dup2\n      add\n      swap1\n      tag_28\n      swap2\n      swap1\n      tag_21\n      jump\t// in\n    tag_28:\n      tag_29\n      jump\t// in\n    tag_27:\n      stop\n        /* \"main.sol\":4346:4779  function liquidate(uint256 _poolId) external {... */\n    tag_7:\n      tag_30\n      0x04\n      dup1\n      calldatasize\n      sub\n      dup2\n      add\n      swap1\n      tag_31\n      swap2\n      swap1\n      tag_21\n      jump\t// in\n    tag_31:\n      tag_32\n      jump\t// in\n    tag_30:\n      stop\n        /* \"main.sol\":2028:2934  function bid(uint256 _poolId, uint256 _amount) external {... */\n    tag_8:\n      tag_33\n      0x04\n      dup1\n      calldatasize\n      sub\n      dup2\n      add\n      swap1\n      tag_34\n      swap2\n      swap1\n      tag_35\n      jump\t// in\n    tag_34:\n      tag_36\n      jump\t// in\n    tag_33:\n      stop\n        /* \"main.sol\":3815:4292  function endLoan(uint256 _poolId) external onlyOwner(_poolId) {... */\n    tag_9:\n      tag_37\n      0x04\n      dup1\n      calldatasize\n      sub\n      dup2\n      add\n      swap1\n      tag_38\n      swap2\n      swap1\n      tag_21\n      jump\t// in\n    tag_38:\n      tag_39\n      jump\t// in\n    tag_37:\n      stop\n        /* \"main.sol\":872:927  mapping(uint256 => mapping(uint256 => Bid)) public bids */\n    tag_10:\n      tag_40\n      0x04\n      dup1\n      calldatasize\n      sub\n      dup2\n      add\n      swap1\n      tag_41\n      swap2\n      swap1\n      tag_35\n      jump\t// in\n    tag_41:\n      tag_42\n      jump\t// in\n    tag_40:\n      mload(0x40)\n      tag_43\n      swap4\n      swap3\n      swap2\n      swap1\n      tag_44\n      jump\t// in\n    tag_43:\n      mload(0x40)\n      dup1\n      swap2\n      sub\n      swap1\n      return\n        /* \"main.sol\":3075:3485  function setNewBidOwner(uint256 _poolId, address _newAddress) external{... */\n    tag_11:\n      tag_45\n      0x04\n      dup1\n      calldatasize\n      sub\n      dup2\n      add\n      swap1\n      tag_46\n      swap2\n      swap1\n      tag_47\n      jump\t// in\n    tag_46:\n      tag_48\n      jump\t// in\n    tag_45:\n      stop\n        /* \"main.sol\":1009:1066  mapping(uint256 => address[]) public whitelistedAddresses */\n    tag_12:\n      tag_49\n      0x04\n      dup1\n      calldatasize\n      sub\n      dup2\n      add\n      swap1\n      tag_50\n      swap2\n      swap1\n      tag_35\n      jump\t// in\n    tag_50:\n      tag_51\n      jump\t// in\n    tag_49:\n      mload(0x40)\n      tag_52\n      swap2\n      swap1\n      tag_53\n      jump\t// in\n    tag_52:\n      mload(0x40)\n      dup1\n      swap2\n      sub\n      swap1\n      return\n        /* \"main.sol\":708:745  mapping(uint256 => Loan) public loans */\n    tag_13:\n      tag_54\n      0x04\n      dup1\n      calldatasize\n      sub\n      dup2\n      add\n      swap1\n      tag_55\n      swap2\n      swap1\n      tag_21\n      jump\t// in\n    tag_55:\n      tag_56\n      jump\t// in\n    tag_54:\n      mload(0x40)\n      tag_57\n      swap10\n      swap9\n      swap8\n      swap7\n      swap6\n      swap5\n      swap4\n      swap3\n      swap2\n      swap1\n      tag_58\n      jump\t// in\n    tag_57:\n      mload(0x40)\n      dup1\n      swap2\n      sub\n      swap1\n      return\n        /* \"main.sol\":313:333  uint256 public count */\n    tag_16:\n      sload(0x00)\n      dup2\n      jump\t// out\n        /* \"main.sol\":4955:5416  function liquidateEarly(uint256 _poolId) external onlyOwner(_poolId) {... */\n    tag_22:\n        /* \"main.sol\":5015:5022  _poolId */\n      dup1\n        /* \"main.sol\":1216:1226  msg.sender */\n      caller\n        /* \"main.sol\":1192:1226  loans[_poolId].owner == msg.sender */\n      0xffffffffffffffffffffffffffffffffffffffff\n      and\n        /* \"main.sol\":1192:1197  loans */\n      0x01\n        /* \"main.sol\":1192:1206  loans[_poolId] */\n      0x00\n        /* \"main.sol\":1198:1205  _poolId */\n      dup4\n        /* \"main.sol\":1192:1206  loans[_poolId] */\n      dup2\n      mstore\n      0x20\n      add\n      swap1\n      dup2\n      mstore\n      0x20\n      add\n      0x00\n      keccak256\n        /* \"main.sol\":1192:1212  loans[_poolId].owner */\n      0x00\n      add\n      0x00\n      swap1\n      sload\n      swap1\n      0x0100\n      exp\n      swap1\n      div\n      0xffffffffffffffffffffffffffffffffffffffff\n      and\n        /* \"main.sol\":1192:1226  loans[_poolId].owner == msg.sender */\n      0xffffffffffffffffffffffffffffffffffffffff\n      and\n      eq\n        /* \"main.sol\":1184:1245  require(loans[_poolId].owner == msg.sender, \"LAN: not owner\") */\n      tag_60\n      jumpi\n      mload(0x40)\n      0x08c379a000000000000000000000000000000000000000000000000000000000\n      dup2\n      mstore\n      0x04\n      add\n      tag_61\n      swap1\n      tag_62\n      jump\t// in\n    tag_61:\n      mload(0x40)\n      dup1\n      swap2\n      sub\n      swap1\n      revert\n    tag_60:\n        /* \"main.sol\":5034:5050  Loan memory loan */\n      0x00\n        /* \"main.sol\":5053:5058  loans */\n      0x01\n        /* \"main.sol\":5053:5067  loans[_poolId] */\n      0x00\n        /* \"main.sol\":5059:5066  _poolId */\n      dup5\n        /* \"main.sol\":5053:5067  loans[_poolId] */\n      dup2\n      mstore\n      0x20\n      add\n      swap1\n      dup2\n      mstore\n      0x20\n      add\n      0x00\n      keccak256\n        /* \"main.sol\":5034:5067  Loan memory loan = loans[_poolId] */\n      mload(0x40)\n      dup1\n      0x0120\n      add\n      0x40\n      mstore\n      swap1\n      dup2\n      0x00\n      dup3\n      add\n      0x00\n      swap1\n      sload\n      swap1\n      0x0100\n      exp\n      swap1\n      div\n      0xffffffffffffffffffffffffffffffffffffffff\n      and\n      0xffffffffffffffffffffffffffffffffffffffff\n      and\n      0xffffffffffffffffffffffffffffffffffffffff\n      and\n      dup2\n      mstore\n      0x20\n      add\n      0x01\n      dup3\n      add\n      0x00\n      swap1\n      sload\n      swap1\n      0x0100\n      exp\n      swap1\n      div\n      0xffffffffffffffffffffffffffffffffffffffff\n      and\n      0xffffffffffffffffffffffffffffffffffffffff\n      and\n      0xffffffffffffffffffffffffffffffffffffffff\n      and\n      dup2\n      mstore\n      0x20\n      add\n      0x02\n      dup3\n      add\n      0x00\n      swap1\n      sload\n      swap1\n      0x0100\n      exp\n      swap1\n      div\n      0xffffffffffffffffffffffffffffffffffffffff\n      and\n      0xffffffffffffffffffffffffffffffffffffffff\n      and\n      0xffffffffffffffffffffffffffffffffffffffff\n      and\n      dup2\n      mstore\n      0x20\n      add\n      0x03\n      dup3\n      add\n      sload\n      dup2\n      mstore\n      0x20\n      add\n      0x04\n      dup3\n      add\n      sload\n      dup2\n      mstore\n      0x20\n      add\n      0x05\n      dup3\n      add\n      sload\n      dup2\n      mstore\n      0x20\n      add\n      0x06\n      dup3\n      add\n      sload\n      dup2\n      mstore\n      0x20\n      add\n      0x07\n      dup3\n      add\n      sload\n      dup2\n      mstore\n      0x20\n      add\n      0x08\n      dup3\n      add\n      0x00\n      swap1\n      sload\n      swap1\n      0x0100\n      exp\n      swap1\n      div\n      0xff\n      and\n      iszero\n      iszero\n      iszero\n      iszero\n      dup2\n      mstore\n      pop\n      pop\n      swap1\n      pop\n        /* \"main.sol\":5085:5100  _ended(_poolId) */\n      tag_64\n        /* \"main.sol\":5092:5099  _poolId */\n      dup4\n        /* \"main.sol\":5085:5091  _ended */\n      tag_65\n        /* \"main.sol\":5085:5100  _ended(_poolId) */\n      jump\t// in\n    tag_64:\n        /* \"main.sol\":5077:5124  require(_ended(_poolId), \"LAN: loan not ended\") */\n      tag_66\n      jumpi\n      mload(0x40)\n      0x08c379a000000000000000000000000000000000000000000000000000000000\n      dup2\n      mstore\n      0x04\n      add\n      tag_67\n      swap1\n      tag_68\n      jump\t// in\n    tag_67:\n      mload(0x40)\n      dup1\n      swap2\n      sub\n      swap1\n      revert\n    tag_66:\n        /* \"main.sol\":5134:5154  Bid memory latestBid */\n      0x00\n        /* \"main.sol\":5157:5161  bids */\n      0x02\n        /* \"main.sol\":5157:5170  bids[_poolId] */\n      0x00\n        /* \"main.sol\":5162:5169  _poolId */\n      dup6\n        /* \"main.sol\":5157:5170  bids[_poolId] */\n      dup2\n      mstore\n      0x20\n      add\n      swap1\n      dup2\n      mstore\n      0x20\n      add\n      0x00\n      keccak256\n        /* \"main.sol\":5157:5184  bids[_poolId][loan.numBids] */\n      0x00\n        /* \"main.sol\":5171:5175  loan */\n      dup4\n        /* \"main.sol\":5171:5183  loan.numBids */\n      0xe0\n      add\n      mload\n        /* \"main.sol\":5157:5184  bids[_poolId][loan.numBids] */\n      dup2\n      mstore\n      0x20\n      add\n      swap1\n      dup2\n      mstore\n      0x20\n      add\n      0x00\n      keccak256\n        /* \"main.sol\":5134:5184  Bid memory latestBid = bids[_poolId][loan.numBids] */\n      mload(0x40)\n      dup1\n      0x60\n      add\n      0x40\n      mstore\n      swap1\n      dup2\n      0x00\n      dup3\n      add\n      sload\n      dup2\n      mstore\n      0x20\n      add\n      0x01\n      dup3\n      add\n      sload\n      dup2\n      mstore\n      0x20\n      add\n      0x02\n      dup3\n      add\n      0x00\n      swap1\n      sload\n      swap1\n      0x0100\n      exp\n      swap1\n      div\n      0xffffffffffffffffffffffffffffffffffffffff\n      and\n      0xffffffffffffffffffffffffffffffffffffffff\n      and\n      0xffffffffffffffffffffffffffffffffffffffff\n      and\n      dup2\n      mstore\n      pop\n      pop\n      swap1\n      pop\n        /* \"main.sol\":5220:5230  msg.sender */\n      caller\n        /* \"main.sol\":5202:5230  latestBid.user == msg.sender */\n      0xffffffffffffffffffffffffffffffffffffffff\n      and\n        /* \"main.sol\":5202:5211  latestBid */\n      dup2\n        /* \"main.sol\":5202:5216  latestBid.user */\n      0x40\n      add\n      mload\n        /* \"main.sol\":5202:5230  latestBid.user == msg.sender */\n      0xffffffffffffffffffffffffffffffffffffffff\n      and\n      eq\n        /* \"main.sol\":5194:5257  require(latestBid.user == msg.sender, \"LAN: not latest bidder\") */\n      tag_69\n      jumpi\n      mload(0x40)\n      0x08c379a000000000000000000000000000000000000000000000000000000000\n      dup2\n      mstore\n      0x04\n      add\n      tag_70\n      swap1\n      tag_71\n      jump\t// in\n    tag_70:\n      mload(0x40)\n      dup1\n      swap2\n      sub\n      swap1\n      revert\n    tag_69:\n        /* \"main.sol\":5291:5302  IERC721 NFT */\n      0x00\n        /* \"main.sol\":5313:5317  loan */\n      dup3\n        /* \"main.sol\":5313:5335  loan.collectionAddress */\n      0x40\n      add\n      mload\n        /* \"main.sol\":5291:5336  IERC721 NFT = IERC721(loan.collectionAddress) */\n      swap1\n      pop\n        /* \"main.sol\":5346:5349  NFT */\n      dup1\n        /* \"main.sol\":5346:5366  NFT.safeTransferFrom */\n      0xffffffffffffffffffffffffffffffffffffffff\n      and\n      0x42842e0e\n        /* \"main.sol\":5375:5379  this */\n      address\n        /* \"main.sol\":5382:5391  latestBid */\n      dup5\n        /* \"main.sol\":5382:5396  latestBid.user */\n      0x40\n      add\n      mload\n        /* \"main.sol\":5398:5402  loan */\n      dup7\n        /* \"main.sol\":5398:5408  loan.nftId */\n      0x60\n      add\n      mload\n        /* \"main.sol\":5346:5409  NFT.safeTransferFrom(address(this), latestBid.user, loan.nftId) */\n      mload(0x40)\n      dup5\n      0xffffffff\n      and\n      0xe0\n      shl\n      dup2\n      mstore\n      0x04\n      add\n      tag_72\n      swap4\n      swap3\n      swap2\n      swap1\n      tag_73\n      jump\t// in\n    tag_72:\n      0x00\n      mload(0x40)\n      dup1\n      dup4\n      sub\n      dup2\n      0x00\n      dup8\n      dup1\n      extcodesize\n      iszero\n      dup1\n      iszero\n      tag_74\n      jumpi\n      0x00\n      dup1\n      revert\n    tag_74:\n      pop\n      gas\n      call\n      iszero\n      dup1\n      iszero\n      tag_76\n      jumpi\n      returndatasize\n      0x00\n      dup1\n      returndatacopy\n      revert(0x00, returndatasize)\n    tag_76:\n      pop\n      pop\n      pop\n      pop\n        /* \"main.sol\":5024:5416  {... */\n      pop\n      pop\n      pop\n        /* \"main.sol\":4955:5416  function liquidateEarly(uint256 _poolId) external onlyOwner(_poolId) {... */\n      pop\n      pop\n      jump\t// out\n        /* \"main.sol\":1269:2022  function launch(address _token, address _collectionAddress, uint256 _nftId, uint256 _startTime, uint256 _endTime, uint256 _apr, bool _whitelisted) public {... */\n    tag_26:\n        /* \"main.sol\":1455:1470  block.timestamp */\n      timestamp\n        /* \"main.sol\":1441:1451  _startTime */\n      dup5\n        /* \"main.sol\":1441:1470  _startTime >= block.timestamp */\n      lt\n      iszero\n        /* \"main.sol\":1433:1498  require(_startTime >= block.timestamp, \"LAN: start time in past\") */\n      tag_78\n      jumpi\n      mload(0x40)\n      0x08c379a000000000000000000000000000000000000000000000000000000000\n      dup2\n      mstore\n      0x04\n      add\n      tag_79\n      swap1\n      tag_80\n      jump\t// in\n    tag_79:\n      mload(0x40)\n      dup1\n      swap2\n      sub\n      swap1\n      revert\n    tag_78:\n        /* \"main.sol\":1527:1537  _startTime */\n      dup4\n        /* \"main.sol\":1516:1524  _endTime */\n      dup4\n        /* \"main.sol\":1516:1537  _endTime > _startTime */\n      gt\n        /* \"main.sol\":1508:1562  require(_endTime > _startTime, \"LAN: start after end\") */\n      tag_81\n      jumpi\n      mload(0x40)\n      0x08c379a000000000000000000000000000000000000000000000000000000000\n      dup2\n      mstore\n      0x04\n      add\n      tag_82\n      swap1\n      tag_83\n      jump\t// in\n    tag_82:\n      mload(0x40)\n      dup1\n      swap2\n      sub\n      swap1\n      revert\n    tag_81:\n        /* \"main.sol\":1587:1891  Loan({... */\n      mload(0x40)\n      dup1\n      0x0120\n      add\n      0x40\n      mstore\n      dup1\n        /* \"main.sol\":1613:1623  msg.sender */\n      caller\n        /* \"main.sol\":1587:1891  Loan({... */\n      0xffffffffffffffffffffffffffffffffffffffff\n      and\n      dup2\n      mstore\n      0x20\n      add\n        /* \"main.sol\":1644:1650  _token */\n      dup9\n        /* \"main.sol\":1587:1891  Loan({... */\n      0xffffffffffffffffffffffffffffffffffffffff\n      and\n      dup2\n      mstore\n      0x20\n      add\n        /* \"main.sol\":1683:1701  _collectionAddress */\n      dup8\n        /* \"main.sol\":1587:1891  Loan({... */\n      0xffffffffffffffffffffffffffffffffffffffff\n      and\n      dup2\n      mstore\n      0x20\n      add\n        /* \"main.sol\":1722:1728  _nftId */\n      dup7\n        /* \"main.sol\":1587:1891  Loan({... */\n      dup2\n      mstore\n      0x20\n      add\n        /* \"main.sol\":1784:1794  _startTime */\n      dup6\n        /* \"main.sol\":1587:1891  Loan({... */\n      dup2\n      mstore\n      0x20\n      add\n        /* \"main.sol\":1751:1759  _endTime */\n      dup5\n        /* \"main.sol\":1587:1891  Loan({... */\n      dup2\n      mstore\n      0x20\n      add\n        /* \"main.sol\":1813:1817  _apr */\n      dup4\n        /* \"main.sol\":1587:1891  Loan({... */\n      dup2\n      mstore\n      0x20\n      add\n        /* \"main.sol\":1840:1841  0 */\n      0x00\n        /* \"main.sol\":1587:1891  Loan({... */\n      dup2\n      mstore\n      0x20\n      add\n        /* \"main.sol\":1868:1880  _whitelisted */\n      dup3\n        /* \"main.sol\":1587:1891  Loan({... */\n      iszero\n      iszero\n      dup2\n      mstore\n      pop\n        /* \"main.sol\":1572:1577  loans */\n      0x01\n        /* \"main.sol\":1572:1584  loans[count] */\n      0x00\n        /* \"main.sol\":1578:1583  count */\n      dup1\n      sload\n        /* \"main.sol\":1572:1584  loans[count] */\n      dup2\n      mstore\n      0x20\n      add\n      swap1\n      dup2\n      mstore\n      0x20\n      add\n      0x00\n      keccak256\n        /* \"main.sol\":1572:1891  loans[count] = Loan({... */\n      0x00\n      dup3\n      add\n      mload\n      dup2\n      0x00\n      add\n      exp(0x0100, 0x00)\n      dup2\n      sload\n      dup2\n      0xffffffffffffffffffffffffffffffffffffffff\n      mul\n      not\n      and\n      swap1\n      dup4\n      0xffffffffffffffffffffffffffffffffffffffff\n      and\n      mul\n      or\n      swap1\n      sstore\n      pop\n      0x20\n      dup3\n      add\n      mload\n      dup2\n      0x01\n      add\n      exp(0x0100, 0x00)\n      dup2\n      sload\n      dup2\n      0xffffffffffffffffffffffffffffffffffffffff\n      mul\n      not\n      and\n      swap1\n      dup4\n      0xffffffffffffffffffffffffffffffffffffffff\n      and\n      mul\n      or\n      swap1\n      sstore\n      pop\n      0x40\n      dup3\n      add\n      mload\n      dup2\n      0x02\n      add\n      exp(0x0100, 0x00)\n      dup2\n      sload\n      dup2\n      0xffffffffffffffffffffffffffffffffffffffff\n      mul\n      not\n      and\n      swap1\n      dup4\n      0xffffffffffffffffffffffffffffffffffffffff\n      and\n      mul\n      or\n      swap1\n      sstore\n      pop\n      0x60\n      dup3\n      add\n      mload\n      dup2\n      0x03\n      add\n      sstore\n      0x80\n      dup3\n      add\n      mload\n      dup2\n      0x04\n      add\n      sstore\n      0xa0\n      dup3\n      add\n      mload\n      dup2\n      0x05\n      add\n      sstore\n      0xc0\n      dup3\n      add\n      mload\n      dup2\n      0x06\n      add\n      sstore\n      0xe0\n      dup3\n      add\n      mload\n      dup2\n      0x07\n      add\n      sstore\n      0x0100\n      dup3\n      add\n      mload\n      dup2\n      0x08\n      add\n      exp(0x0100, 0x00)\n      dup2\n      sload\n      dup2\n      0xff\n      mul\n      not\n      and\n      swap1\n      dup4\n      iszero\n      iszero\n      mul\n      or\n      swap1\n      sstore\n      pop\n      swap1\n      pop\n      pop\n        /* \"main.sol\":1926:1941  block.timestamp */\n      timestamp\n        /* \"main.sol\":1901:1905  bids */\n      0x02\n        /* \"main.sol\":1901:1912  bids[count] */\n      0x00\n        /* \"main.sol\":1906:1911  count */\n      dup1\n      sload\n        /* \"main.sol\":1901:1912  bids[count] */\n      dup2\n      mstore\n      0x20\n      add\n      swap1\n      dup2\n      mstore\n      0x20\n      add\n      0x00\n      keccak256\n        /* \"main.sol\":1901:1915  bids[count][0] */\n      0x00\n        /* \"main.sol\":1913:1914  0 */\n      dup1\n        /* \"main.sol\":1901:1915  bids[count][0] */\n      dup2\n      mstore\n      0x20\n      add\n      swap1\n      dup2\n      mstore\n      0x20\n      add\n      0x00\n      keccak256\n        /* \"main.sol\":1901:1923  bids[count][0].bidTime */\n      0x00\n      add\n        /* \"main.sol\":1901:1941  bids[count][0].bidTime = block.timestamp */\n      dup2\n      swap1\n      sstore\n      pop\n        /* \"main.sol\":1964:1969  count */\n      sload(0x00)\n        /* \"main.sol\":1956:1998  newPool(count, _collectionAddress, _nftId) */\n      0xef8b2952c43462575e82711d0cc91169720a4589a9fa533d173e022437f5405e\n        /* \"main.sol\":1971:1989  _collectionAddress */\n      dup8\n        /* \"main.sol\":1991:1997  _nftId */\n      dup8\n        /* \"main.sol\":1956:1998  newPool(count, _collectionAddress, _nftId) */\n      mload(0x40)\n      tag_84\n      swap3\n      swap2\n      swap1\n      tag_85\n      jump\t// in\n    tag_84:\n      mload(0x40)\n      dup1\n      swap2\n      sub\n      swap1\n      log2\n        /* \"main.sol\":2008:2013  count */\n      0x00\n      dup1\n        /* \"main.sol\":2008:2015  count++ */\n      dup2\n      sload\n      dup1\n      swap3\n      swap2\n      swap1\n      tag_86\n      swap1\n      tag_87\n      jump\t// in\n    tag_86:\n      swap2\n      swap1\n      pop\n      sstore\n      pop\n        /* \"main.sol\":1269:2022  function launch(address _token, address _collectionAddress, uint256 _nftId, uint256 _startTime, uint256 _endTime, uint256 _apr, bool _whitelisted) public {... */\n      pop\n      pop\n      pop\n      pop\n      pop\n      pop\n      pop\n      jump\t// out\n        /* \"main.sol\":3532:3776  function cancel(uint256 _poolId) external onlyOwner(_poolId) {... */\n    tag_29:\n        /* \"main.sol\":3584:3591  _poolId */\n      dup1\n        /* \"main.sol\":1216:1226  msg.sender */\n      caller\n        /* \"main.sol\":1192:1226  loans[_poolId].owner == msg.sender */\n      0xffffffffffffffffffffffffffffffffffffffff\n      and\n        /* \"main.sol\":1192:1197  loans */\n      0x01\n        /* \"main.sol\":1192:1206  loans[_poolId] */\n      0x00\n        /* \"main.sol\":1198:1205  _poolId */\n      dup4\n        /* \"main.sol\":1192:1206  loans[_poolId] */\n      dup2\n      mstore\n      0x20\n      add\n      swap1\n      dup2\n      mstore\n      0x20\n      add\n      0x00\n      keccak256\n        /* \"main.sol\":1192:1212  loans[_poolId].owner */\n      0x00\n      add\n      0x00\n      swap1\n      sload\n      swap1\n      0x0100\n      exp\n      swap1\n      div\n      0xffffffffffffffffffffffffffffffffffffffff\n      and\n        /* \"main.sol\":1192:1226  loans[_poolId].owner == msg.sender */\n      0xffffffffffffffffffffffffffffffffffffffff\n      and\n      eq\n        /* \"main.sol\":1184:1245  require(loans[_poolId].owner == msg.sender, \"LAN: not owner\") */\n      tag_89\n      jumpi\n      mload(0x40)\n      0x08c379a000000000000000000000000000000000000000000000000000000000\n      dup2\n      mstore\n      0x04\n      add\n      tag_90\n      swap1\n      tag_62\n      jump\t// in\n    tag_90:\n      mload(0x40)\n      dup1\n      swap2\n      sub\n      swap1\n      revert\n    tag_89:\n        /* \"main.sol\":3603:3619  Loan memory loan */\n      0x00\n        /* \"main.sol\":3622:3627  loans */\n      0x01\n        /* \"main.sol\":3622:3636  loans[_poolId] */\n      0x00\n        /* \"main.sol\":3628:3635  _poolId */\n      dup5\n        /* \"main.sol\":3622:3636  loans[_poolId] */\n      dup2\n      mstore\n      0x20\n      add\n      swap1\n      dup2\n      mstore\n      0x20\n      add\n      0x00\n      keccak256\n        /* \"main.sol\":3603:3636  Loan memory loan = loans[_poolId] */\n      mload(0x40)\n      dup1\n      0x0120\n      add\n      0x40\n      mstore\n      swap1\n      dup2\n      0x00\n      dup3\n      add\n      0x00\n      swap1\n      sload\n      swap1\n      0x0100\n      exp\n      swap1\n      div\n      0xffffffffffffffffffffffffffffffffffffffff\n      and\n      0xffffffffffffffffffffffffffffffffffffffff\n      and\n      0xffffffffffffffffffffffffffffffffffffffff\n      and\n      dup2\n      mstore\n      0x20\n      add\n      0x01\n      dup3\n      add\n      0x00\n      swap1\n      sload\n      swap1\n      0x0100\n      exp\n      swap1\n      div\n      0xffffffffffffffffffffffffffffffffffffffff\n      and\n      0xffffffffffffffffffffffffffffffffffffffff\n      and\n      0xffffffffffffffffffffffffffffffffffffffff\n      and\n      dup2\n      mstore\n      0x20\n      add\n      0x02\n      dup3\n      add\n      0x00\n      swap1\n      sload\n      swap1\n      0x0100\n      exp\n      swap1\n      div\n      0xffffffffffffffffffffffffffffffffffffffff\n      and\n      0xffffffffffffffffffffffffffffffffffffffff\n      and\n      0xffffffffffffffffffffffffffffffffffffffff\n      and\n      dup2\n      mstore\n      0x20\n      add\n      0x03\n      dup3\n      add\n      sload\n      dup2\n      mstore\n      0x20\n      add\n      0x04\n      dup3\n      add\n      sload\n      dup2\n      mstore\n      0x20\n      add\n      0x05\n      dup3\n      add\n      sload\n      dup2\n      mstore\n      0x20\n      add\n      0x06\n      dup3\n      add\n      sload\n      dup2\n      mstore\n      0x20\n      add\n      0x07\n      dup3\n      add\n      sload\n      dup2\n      mstore\n      0x20\n      add\n      0x08\n      dup3\n      add\n      0x00\n      swap1\n      sload\n      swap1\n      0x0100\n      exp\n      swap1\n      div\n      0xff\n      and\n      iszero\n      iszero\n      iszero\n      iszero\n      dup2\n      mstore\n      pop\n      pop\n      swap1\n      pop\n        /* \"main.sol\":3671:3686  block.timestamp */\n      timestamp\n        /* \"main.sol\":3654:3658  loan */\n      dup2\n        /* \"main.sol\":3654:3668  loan.startTime */\n      0x80\n      add\n      mload\n        /* \"main.sol\":3654:3686  loan.startTime > block.timestamp */\n      gt\n        /* \"main.sol\":3646:3711  require(loan.startTime > block.timestamp, \"LAN: already started\") */\n      tag_92\n      jumpi\n      mload(0x40)\n      0x08c379a000000000000000000000000000000000000000000000000000000000\n      dup2\n      mstore\n      0x04\n      add\n      tag_93\n      swap1\n      tag_94\n      jump\t// in\n    tag_93:\n      mload(0x40)\n      dup1\n      swap2\n      sub\n      swap1\n      revert\n    tag_92:\n        /* \"main.sol\":3721:3732  delete loan */\n      tag_95\n      tag_96\n      jump\t// in\n    tag_95:\n      swap1\n      pop\n        /* \"main.sol\":3747:3769  loanCancelled(_poolId) */\n      0xfe785ef891129b084b1c5a30e4d88eb97c97822c024cc25d5f9d806b897512e0\n        /* \"main.sol\":3761:3768  _poolId */\n      dup4\n        /* \"main.sol\":3747:3769  loanCancelled(_poolId) */\n      mload(0x40)\n      tag_97\n      swap2\n      swap1\n      tag_18\n      jump\t// in\n    tag_97:\n      mload(0x40)\n      dup1\n      swap2\n      sub\n      swap1\n      log1\n        /* \"main.sol\":3593:3776  {... */\n      pop\n        /* \"main.sol\":3532:3776  function cancel(uint256 _poolId) external onlyOwner(_poolId) {... */\n      pop\n      pop\n      jump\t// out\n        /* \"main.sol\":4346:4779  function liquidate(uint256 _poolId) external {... */\n    tag_32:\n        /* \"main.sol\":4401:4417  Loan memory loan */\n      0x00\n        /* \"main.sol\":4420:4425  loans */\n      0x01\n        /* \"main.sol\":4420:4434  loans[_poolId] */\n      0x00\n        /* \"main.sol\":4426:4433  _poolId */\n      dup4\n        /* \"main.sol\":4420:4434  loans[_poolId] */\n      dup2\n      mstore\n      0x20\n      add\n      swap1\n      dup2\n      mstore\n      0x20\n      add\n      0x00\n      keccak256\n        /* \"main.sol\":4401:4434  Loan memory loan = loans[_poolId] */\n      mload(0x40)\n      dup1\n      0x0120\n      add\n      0x40\n      mstore\n      swap1\n      dup2\n      0x00\n      dup3\n      add\n      0x00\n      swap1\n      sload\n      swap1\n      0x0100\n      exp\n      swap1\n      div\n      0xffffffffffffffffffffffffffffffffffffffff\n      and\n      0xffffffffffffffffffffffffffffffffffffffff\n      and\n      0xffffffffffffffffffffffffffffffffffffffff\n      and\n      dup2\n      mstore\n      0x20\n      add\n      0x01\n      dup3\n      add\n      0x00\n      swap1\n      sload\n      swap1\n      0x0100\n      exp\n      swap1\n      div\n      0xffffffffffffffffffffffffffffffffffffffff\n      and\n      0xffffffffffffffffffffffffffffffffffffffff\n      and\n      0xffffffffffffffffffffffffffffffffffffffff\n      and\n      dup2\n      mstore\n      0x20\n      add\n      0x02\n      dup3\n      add\n      0x00\n      swap1\n      sload\n      swap1\n      0x0100\n      exp\n      swap1\n      div\n      0xffffffffffffffffffffffffffffffffffffffff\n      and\n      0xffffffffffffffffffffffffffffffffffffffff\n      and\n      0xffffffffffffffffffffffffffffffffffffffff\n      and\n      dup2\n      mstore\n      0x20\n      add\n      0x03\n      dup3\n      add\n      sload\n      dup2\n      mstore\n      0x20\n      add\n      0x04\n      dup3\n      add\n      sload\n      dup2\n      mstore\n      0x20\n      add\n      0x05\n      dup3\n      add\n      sload\n      dup2\n      mstore\n      0x20\n      add\n      0x06\n      dup3\n      add\n      sload\n      dup2\n      mstore\n      0x20\n      add\n      0x07\n      dup3\n      add\n      sload\n      dup2\n      mstore\n      0x20\n      add\n      0x08\n      dup3\n      add\n      0x00\n      swap1\n      sload\n      swap1\n      0x0100\n      exp\n      swap1\n      div\n      0xff\n      and\n      iszero\n      iszero\n      iszero\n      iszero\n      dup2\n      mstore\n      pop\n      pop\n      swap1\n      pop\n        /* \"main.sol\":4452:4467  _ended(_poolId) */\n      tag_99\n        /* \"main.sol\":4459:4466  _poolId */\n      dup3\n        /* \"main.sol\":4452:4458  _ended */\n      tag_65\n        /* \"main.sol\":4452:4467  _ended(_poolId) */\n      jump\t// in\n    tag_99:\n        /* \"main.sol\":4444:4491  require(_ended(_poolId), \"LAN: loan not ended\") */\n      tag_100\n      jumpi\n      mload(0x40)\n      0x08c379a000000000000000000000000000000000000000000000000000000000\n      dup2\n      mstore\n      0x04\n      add\n      tag_101\n      swap1\n      tag_68\n      jump\t// in\n    tag_101:\n      mload(0x40)\n      dup1\n      swap2\n      sub\n      swap1\n      revert\n    tag_100:\n        /* \"main.sol\":4501:4521  Bid memory latestBid */\n      0x00\n        /* \"main.sol\":4524:4528  bids */\n      0x02\n        /* \"main.sol\":4524:4537  bids[_poolId] */\n      0x00\n        /* \"main.sol\":4529:4536  _poolId */\n      dup5\n        /* \"main.sol\":4524:4537  bids[_poolId] */\n      dup2\n      mstore\n      0x20\n      add\n      swap1\n      dup2\n      mstore\n      0x20\n      add\n      0x00\n      keccak256\n        /* \"main.sol\":4524:4551  bids[_poolId][loan.numBids] */\n      0x00\n        /* \"main.sol\":4538:4542  loan */\n      dup4\n        /* \"main.sol\":4538:4550  loan.numBids */\n      0xe0\n      add\n      mload\n        /* \"main.sol\":4524:4551  bids[_poolId][loan.numBids] */\n      dup2\n      mstore\n      0x20\n      add\n      swap1\n      dup2\n      mstore\n      0x20\n      add\n      0x00\n      keccak256\n        /* \"main.sol\":4501:4551  Bid memory latestBid = bids[_poolId][loan.numBids] */\n      mload(0x40)\n      dup1\n      0x60\n      add\n      0x40\n      mstore\n      swap1\n      dup2\n      0x00\n      dup3\n      add\n      sload\n      dup2\n      mstore\n      0x20\n      add\n      0x01\n      dup3\n      add\n      sload\n      dup2\n      mstore\n      0x20\n      add\n      0x02\n      dup3\n      add\n      0x00\n      swap1\n      sload\n      swap1\n      0x0100\n      exp\n      swap1\n      div\n      0xffffffffffffffffffffffffffffffffffffffff\n      and\n      0xffffffffffffffffffffffffffffffffffffffff\n      and\n      0xffffffffffffffffffffffffffffffffffffffff\n      and\n      dup2\n      mstore\n      pop\n      pop\n      swap1\n      pop\n        /* \"main.sol\":4587:4597  msg.sender */\n      caller\n        /* \"main.sol\":4569:4597  latestBid.user == msg.sender */\n      0xffffffffffffffffffffffffffffffffffffffff\n      and\n        /* \"main.sol\":4569:4578  latestBid */\n      dup2\n        /* \"main.sol\":4569:4583  latestBid.user */\n      0x40\n      add\n      mload\n        /* \"main.sol\":4569:4597  latestBid.user == msg.sender */\n      0xffffffffffffffffffffffffffffffffffffffff\n      and\n      eq\n        /* \"main.sol\":4561:4624  require(latestBid.user == msg.sender, \"LAN: not latest bidder\") */\n      tag_102\n      jumpi\n      mload(0x40)\n      0x08c379a000000000000000000000000000000000000000000000000000000000\n      dup2\n      mstore\n      0x04\n      add\n      tag_103\n      swap1\n      tag_71\n      jump\t// in\n    tag_103:\n      mload(0x40)\n      dup1\n      swap2\n      sub\n      swap1\n      revert\n    tag_102:\n        /* \"main.sol\":4658:4669  IERC721 NFT */\n      0x00\n        /* \"main.sol\":4680:4684  loan */\n      dup3\n        /* \"main.sol\":4680:4702  loan.collectionAddress */\n      0x40\n      add\n      mload\n        /* \"main.sol\":4658:4703  IERC721 NFT = IERC721(loan.collectionAddress) */\n      swap1\n      pop\n        /* \"main.sol\":4713:4716  NFT */\n      dup1\n        /* \"main.sol\":4713:4733  NFT.safeTransferFrom */\n      0xffffffffffffffffffffffffffffffffffffffff\n      and\n      0x42842e0e\n        /* \"main.sol\":4742:4746  this */\n      address\n        /* \"main.sol\":4749:4759  msg.sender */\n      caller\n        /* \"main.sol\":4761:4765  loan */\n      dup7\n        /* \"main.sol\":4761:4771  loan.nftId */\n      0x60\n      add\n      mload\n        /* \"main.sol\":4713:4772  NFT.safeTransferFrom(address(this), msg.sender, loan.nftId) */\n      mload(0x40)\n      dup5\n      0xffffffff\n      and\n      0xe0\n      shl\n      dup2\n      mstore\n      0x04\n      add\n      tag_104\n      swap4\n      swap3\n      swap2\n      swap1\n      tag_73\n      jump\t// in\n    tag_104:\n      0x00\n      mload(0x40)\n      dup1\n      dup4\n      sub\n      dup2\n      0x00\n      dup8\n      dup1\n      extcodesize\n      iszero\n      dup1\n      iszero\n      tag_105\n      jumpi\n      0x00\n      dup1\n      revert\n    tag_105:\n      pop\n      gas\n      call\n      iszero\n      dup1\n      iszero\n      tag_107\n      jumpi\n      returndatasize\n      0x00\n      dup1\n      returndatacopy\n      revert(0x00, returndatasize)\n    tag_107:\n      pop\n      pop\n      pop\n      pop\n        /* \"main.sol\":4391:4779  {... */\n      pop\n      pop\n      pop\n        /* \"main.sol\":4346:4779  function liquidate(uint256 _poolId) external {... */\n      pop\n      jump\t// out\n        /* \"main.sol\":2028:2934  function bid(uint256 _poolId, uint256 _amount) external {... */\n    tag_36:\n        /* \"main.sol\":2102:2119  _started(_poolId) */\n      tag_109\n        /* \"main.sol\":2111:2118  _poolId */\n      dup3\n        /* \"main.sol\":2102:2110  _started */\n      tag_110\n        /* \"main.sol\":2102:2119  _started(_poolId) */\n      jump\t// in\n    tag_109:\n        /* \"main.sol\":2094:2140  require(_started(_poolId), \"LAN: not started\") */\n      tag_111\n      jumpi\n      mload(0x40)\n      0x08c379a000000000000000000000000000000000000000000000000000000000\n      dup2\n      mstore\n      0x04\n      add\n      tag_112\n      swap1\n      tag_113\n      jump\t// in\n    tag_112:\n      mload(0x40)\n      dup1\n      swap2\n      sub\n      swap1\n      revert\n    tag_111:\n        /* \"main.sol\":2159:2174  _ended(_poolId) */\n      tag_114\n        /* \"main.sol\":2166:2173  _poolId */\n      dup3\n        /* \"main.sol\":2159:2165  _ended */\n      tag_65\n        /* \"main.sol\":2159:2174  _ended(_poolId) */\n      jump\t// in\n    tag_114:\n        /* \"main.sol\":2158:2174  !_ended(_poolId) */\n      iszero\n        /* \"main.sol\":2150:2197  require(!_ended(_poolId), \"LAN: already ended\") */\n      tag_115\n      jumpi\n      mload(0x40)\n      0x08c379a000000000000000000000000000000000000000000000000000000000\n      dup2\n      mstore\n      0x04\n      add\n      tag_116\n      swap1\n      tag_117\n      jump\t// in\n    tag_116:\n      mload(0x40)\n      dup1\n      swap2\n      sub\n      swap1\n      revert\n    tag_115:\n        /* \"main.sol\":2207:2223  Loan memory loan */\n      0x00\n        /* \"main.sol\":2226:2231  loans */\n      0x01\n        /* \"main.sol\":2226:2240  loans[_poolId] */\n      0x00\n        /* \"main.sol\":2232:2239  _poolId */\n      dup5\n        /* \"main.sol\":2226:2240  loans[_poolId] */\n      dup2\n      mstore\n      0x20\n      add\n      swap1\n      dup2\n      mstore\n      0x20\n      add\n      0x00\n      keccak256\n        /* \"main.sol\":2207:2240  Loan memory loan = loans[_poolId] */\n      mload(0x40)\n      dup1\n      0x0120\n      add\n      0x40\n      mstore\n      swap1\n      dup2\n      0x00\n      dup3\n      add\n      0x00\n      swap1\n      sload\n      swap1\n      0x0100\n      exp\n      swap1\n      div\n      0xffffffffffffffffffffffffffffffffffffffff\n      and\n      0xffffffffffffffffffffffffffffffffffffffff\n      and\n      0xffffffffffffffffffffffffffffffffffffffff\n      and\n      dup2\n      mstore\n      0x20\n      add\n      0x01\n      dup3\n      add\n      0x00\n      swap1\n      sload\n      swap1\n      0x0100\n      exp\n      swap1\n      div\n      0xffffffffffffffffffffffffffffffffffffffff\n      and\n      0xffffffffffffffffffffffffffffffffffffffff\n      and\n      0xffffffffffffffffffffffffffffffffffffffff\n      and\n      dup2\n      mstore\n      0x20\n      add\n      0x02\n      dup3\n      add\n      0x00\n      swap1\n      sload\n      swap1\n      0x0100\n      exp\n      swap1\n      div\n      0xffffffffffffffffffffffffffffffffffffffff\n      and\n      0xffffffffffffffffffffffffffffffffffffffff\n      and\n      0xffffffffffffffffffffffffffffffffffffffff\n      and\n      dup2\n      mstore\n      0x20\n      add\n      0x03\n      dup3\n      add\n      sload\n      dup2\n      mstore\n      0x20\n      add\n      0x04\n      dup3\n      add\n      sload\n      dup2\n      mstore\n      0x20\n      add\n      0x05\n      dup3\n      add\n      sload\n      dup2\n      mstore\n      0x20\n      add\n      0x06\n      dup3\n      add\n      sload\n      dup2\n      mstore\n      0x20\n      add\n      0x07\n      dup3\n      add\n      sload\n      dup2\n      mstore\n      0x20\n      add\n      0x08\n      dup3\n      add\n      0x00\n      swap1\n      sload\n      swap1\n      0x0100\n      exp\n      swap1\n      div\n      0xff\n      and\n      iszero\n      iszero\n      iszero\n      iszero\n      dup2\n      mstore\n      pop\n      pop\n      swap1\n      pop\n        /* \"main.sol\":2282:2297  uint256 numBids */\n      0x00\n        /* \"main.sol\":2315:2316  1 */\n      0x01\n        /* \"main.sol\":2300:2304  loan */\n      dup3\n        /* \"main.sol\":2300:2312  loan.numBids */\n      0xe0\n      add\n      mload\n        /* \"main.sol\":2300:2316  loan.numBids + 1 */\n      tag_118\n      swap2\n      swap1\n      tag_119\n      jump\t// in\n    tag_118:\n        /* \"main.sol\":2282:2316  uint256 numBids = loan.numBids + 1 */\n      swap1\n      pop\n        /* \"main.sol\":2342:2349  numBids */\n      dup1\n        /* \"main.sol\":2327:2331  loan */\n      dup3\n        /* \"main.sol\":2327:2339  loan.numBids */\n      0xe0\n      add\n        /* \"main.sol\":2327:2349  loan.numBids = numBids */\n      dup2\n      dup2\n      mstore\n      pop\n      pop\n        /* \"main.sol\":2359:2376  uint256 loanValue */\n      0x00\n        /* \"main.sol\":2379:2407  _calculateLoanValue(_poolId) */\n      tag_120\n        /* \"main.sol\":2399:2406  _poolId */\n      dup6\n        /* \"main.sol\":2379:2398  _calculateLoanValue */\n      tag_121\n        /* \"main.sol\":2379:2407  _calculateLoanValue(_poolId) */\n      jump\t// in\n    tag_120:\n        /* \"main.sol\":2359:2407  uint256 loanValue = _calculateLoanValue(_poolId) */\n      swap1\n      pop\n        /* \"main.sol\":2435:2444  loanValue */\n      dup1\n        /* \"main.sol\":2425:2432  _amount */\n      dup5\n        /* \"main.sol\":2425:2444  _amount > loanValue */\n      gt\n        /* \"main.sol\":2417:2468  require(_amount > loanValue, \"LAN: bid not higher\") */\n      tag_122\n      jumpi\n      mload(0x40)\n      0x08c379a000000000000000000000000000000000000000000000000000000000\n      dup2\n      mstore\n      0x04\n      add\n      tag_123\n      swap1\n      tag_124\n      jump\t// in\n    tag_123:\n      mload(0x40)\n      dup1\n      swap2\n      sub\n      swap1\n      revert\n    tag_122:\n        /* \"main.sol\":2527:2531  loan */\n      dup3\n        /* \"main.sol\":2527:2537  loan.token */\n      0x20\n      add\n      mload\n        /* \"main.sol\":2520:2551  IERC20(loan.token).transferFrom */\n      0xffffffffffffffffffffffffffffffffffffffff\n      and\n      0x23b872dd\n        /* \"main.sol\":2552:2562  msg.sender */\n      caller\n        /* \"main.sol\":2564:2568  bids */\n      0x02\n        /* \"main.sol\":2564:2577  bids[_poolId] */\n      0x00\n        /* \"main.sol\":2569:2576  _poolId */\n      dup10\n        /* \"main.sol\":2564:2577  bids[_poolId] */\n      dup2\n      mstore\n      0x20\n      add\n      swap1\n      dup2\n      mstore\n      0x20\n      add\n      0x00\n      keccak256\n        /* \"main.sol\":2564:2586  bids[_poolId][numBids] */\n      0x00\n        /* \"main.sol\":2578:2585  numBids */\n      dup7\n        /* \"main.sol\":2564:2586  bids[_poolId][numBids] */\n      dup2\n      mstore\n      0x20\n      add\n      swap1\n      dup2\n      mstore\n      0x20\n      add\n      0x00\n      keccak256\n        /* \"main.sol\":2564:2591  bids[_poolId][numBids].user */\n      0x02\n      add\n      0x00\n      swap1\n      sload\n      swap1\n      0x0100\n      exp\n      swap1\n      div\n      0xffffffffffffffffffffffffffffffffffffffff\n      and\n        /* \"main.sol\":2593:2602  loanValue */\n      dup5\n        /* \"main.sol\":2520:2603  IERC20(loan.token).transferFrom(msg.sender, bids[_poolId][numBids].user, loanValue) */\n      mload(0x40)\n      dup5\n      0xffffffff\n      and\n      0xe0\n      shl\n      dup2\n      mstore\n      0x04\n      add\n      tag_125\n      swap4\n      swap3\n      swap2\n      swap1\n      tag_73\n      jump\t// in\n    tag_125:\n      0x20\n      mload(0x40)\n      dup1\n      dup4\n      sub\n      dup2\n      0x00\n      dup8\n      gas\n      call\n      iszero\n      dup1\n      iszero\n      tag_127\n      jumpi\n      returndatasize\n      0x00\n      dup1\n      returndatacopy\n      revert(0x00, returndatasize)\n    tag_127:\n      pop\n      pop\n      pop\n      pop\n      mload(0x40)\n      returndatasize\n      not(0x1f)\n      0x1f\n      dup3\n      add\n      and\n      dup3\n      add\n      dup1\n      0x40\n      mstore\n      pop\n      dup2\n      add\n      swap1\n      tag_128\n      swap2\n      swap1\n      tag_129\n      jump\t// in\n    tag_128:\n      pop\n        /* \"main.sol\":2652:2656  loan */\n      dup3\n        /* \"main.sol\":2652:2662  loan.token */\n      0x20\n      add\n      mload\n        /* \"main.sol\":2645:2676  IERC20(loan.token).transferFrom */\n      0xffffffffffffffffffffffffffffffffffffffff\n      and\n      0x23b872dd\n        /* \"main.sol\":2677:2687  msg.sender */\n      caller\n        /* \"main.sol\":2689:2693  loan */\n      dup6\n        /* \"main.sol\":2689:2699  loan.owner */\n      0x00\n      add\n      mload\n        /* \"main.sol\":2711:2720  loanValue */\n      dup5\n        /* \"main.sol\":2701:2708  _amount */\n      dup9\n        /* \"main.sol\":2701:2720  _amount - loanValue */\n      tag_130\n      swap2\n      swap1\n      tag_131\n      jump\t// in\n    tag_130:\n        /* \"main.sol\":2645:2721  IERC20(loan.token).transferFrom(msg.sender, loan.owner, _amount - loanValue) */\n      mload(0x40)\n      dup5\n      0xffffffff\n      and\n      0xe0\n      shl\n      dup2\n      mstore\n      0x04\n      add\n      tag_132\n      swap4\n      swap3\n      swap2\n      swap1\n      tag_73\n      jump\t// in\n    tag_132:\n      0x20\n      mload(0x40)\n      dup1\n      dup4\n      sub\n      dup2\n      0x00\n      dup8\n      gas\n      call\n      iszero\n      dup1\n      iszero\n      tag_134\n      jumpi\n      returndatasize\n      0x00\n      dup1\n      returndatacopy\n      revert(0x00, returndatasize)\n    tag_134:\n      pop\n      pop\n      pop\n      pop\n      mload(0x40)\n      returndatasize\n      not(0x1f)\n      0x1f\n      dup3\n      add\n      and\n      dup3\n      add\n      dup1\n      0x40\n      mstore\n      pop\n      dup2\n      add\n      swap1\n      tag_135\n      swap2\n      swap1\n      tag_129\n      jump\t// in\n    tag_135:\n      pop\n        /* \"main.sol\":2789:2927  Bid({... */\n      mload(0x40)\n      dup1\n      0x60\n      add\n      0x40\n      mstore\n      dup1\n        /* \"main.sol\":2816:2831  block.timestamp */\n      timestamp\n        /* \"main.sol\":2789:2927  Bid({... */\n      dup2\n      mstore\n      0x20\n      add\n        /* \"main.sol\":2856:2863  _amount */\n      dup6\n        /* \"main.sol\":2789:2927  Bid({... */\n      dup2\n      mstore\n      0x20\n      add\n        /* \"main.sol\":2883:2893  msg.sender */\n      caller\n        /* \"main.sol\":2789:2927  Bid({... */\n      0xffffffffffffffffffffffffffffffffffffffff\n      and\n      dup2\n      mstore\n      pop\n        /* \"main.sol\":2764:2768  bids */\n      0x02\n        /* \"main.sol\":2764:2777  bids[_poolId] */\n      0x00\n        /* \"main.sol\":2769:2776  _poolId */\n      dup8\n        /* \"main.sol\":2764:2777  bids[_poolId] */\n      dup2\n      mstore\n      0x20\n      add\n      swap1\n      dup2\n      mstore\n      0x20\n      add\n      0x00\n      keccak256\n        /* \"main.sol\":2764:2786  bids[_poolId][numBids] */\n      0x00\n        /* \"main.sol\":2778:2785  numBids */\n      dup5\n        /* \"main.sol\":2764:2786  bids[_poolId][numBids] */\n      dup2\n      mstore\n      0x20\n      add\n      swap1\n      dup2\n      mstore\n      0x20\n      add\n      0x00\n      keccak256\n        /* \"main.sol\":2764:2927  bids[_poolId][numBids] = Bid({... */\n      0x00\n      dup3\n      add\n      mload\n      dup2\n      0x00\n      add\n      sstore\n      0x20\n      dup3\n      add\n      mload\n      dup2\n      0x01\n      add\n      sstore\n      0x40\n      dup3\n      add\n      mload\n      dup2\n      0x02\n      add\n      exp(0x0100, 0x00)\n      dup2\n      sload\n      dup2\n      0xffffffffffffffffffffffffffffffffffffffff\n      mul\n      not\n      and\n      swap1\n      dup4\n      0xffffffffffffffffffffffffffffffffffffffff\n      and\n      mul\n      or\n      swap1\n      sstore\n      pop\n      swap1\n      pop\n      pop\n        /* \"main.sol\":2084:2934  {... */\n      pop\n      pop\n      pop\n        /* \"main.sol\":2028:2934  function bid(uint256 _poolId, uint256 _amount) external {... */\n      pop\n      pop\n      jump\t// out\n        /* \"main.sol\":3815:4292  function endLoan(uint256 _poolId) external onlyOwner(_poolId) {... */\n    tag_39:\n        /* \"main.sol\":3868:3875  _poolId */\n      dup1\n        /* \"main.sol\":1216:1226  msg.sender */\n      caller\n        /* \"main.sol\":1192:1226  loans[_poolId].owner == msg.sender */\n      0xffffffffffffffffffffffffffffffffffffffff\n      and\n        /* \"main.sol\":1192:1197  loans */\n      0x01\n        /* \"main.sol\":1192:1206  loans[_poolId] */\n      0x00\n        /* \"main.sol\":1198:1205  _poolId */\n      dup4\n        /* \"main.sol\":1192:1206  loans[_poolId] */\n      dup2\n      mstore\n      0x20\n      add\n      swap1\n      dup2\n      mstore\n      0x20\n      add\n      0x00\n      keccak256\n        /* \"main.sol\":1192:1212  loans[_poolId].owner */\n      0x00\n      add\n      0x00\n      swap1\n      sload\n      swap1\n      0x0100\n      exp\n      swap1\n      div\n      0xffffffffffffffffffffffffffffffffffffffff\n      and\n        /* \"main.sol\":1192:1226  loans[_poolId].owner == msg.sender */\n      0xffffffffffffffffffffffffffffffffffffffff\n      and\n      eq\n        /* \"main.sol\":1184:1245  require(loans[_poolId].owner == msg.sender, \"LAN: not owner\") */\n      tag_137\n      jumpi\n      mload(0x40)\n      0x08c379a000000000000000000000000000000000000000000000000000000000\n      dup2\n      mstore\n      0x04\n      add\n      tag_138\n      swap1\n      tag_62\n      jump\t// in\n    tag_138:\n      mload(0x40)\n      dup1\n      swap2\n      sub\n      swap1\n      revert\n    tag_137:\n        /* \"main.sol\":3887:3903  Loan memory loan */\n      0x00\n        /* \"main.sol\":3906:3911  loans */\n      0x01\n        /* \"main.sol\":3906:3920  loans[_poolId] */\n      0x00\n        /* \"main.sol\":3912:3919  _poolId */\n      dup5\n        /* \"main.sol\":3906:3920  loans[_poolId] */\n      dup2\n      mstore\n      0x20\n      add\n      swap1\n      dup2\n      mstore\n      0x20\n      add\n      0x00\n      keccak256\n        /* \"main.sol\":3887:3920  Loan memory loan = loans[_poolId] */\n      mload(0x40)\n      dup1\n      0x0120\n      add\n      0x40\n      mstore\n      swap1\n      dup2\n      0x00\n      dup3\n      add\n      0x00\n      swap1\n      sload\n      swap1\n      0x0100\n      exp\n      swap1\n      div\n      0xffffffffffffffffffffffffffffffffffffffff\n      and\n      0xffffffffffffffffffffffffffffffffffffffff\n      and\n      0xffffffffffffffffffffffffffffffffffffffff\n      and\n      dup2\n      mstore\n      0x20\n      add\n      0x01\n      dup3\n      add\n      0x00\n      swap1\n      sload\n      swap1\n      0x0100\n      exp\n      swap1\n      div\n      0xffffffffffffffffffffffffffffffffffffffff\n      and\n      0xffffffffffffffffffffffffffffffffffffffff\n      and\n      0xffffffffffffffffffffffffffffffffffffffff\n      and\n      dup2\n      mstore\n      0x20\n      add\n      0x02\n      dup3\n      add\n      0x00\n      swap1\n      sload\n      swap1\n      0x0100\n      exp\n      swap1\n      div\n      0xffffffffffffffffffffffffffffffffffffffff\n      and\n      0xffffffffffffffffffffffffffffffffffffffff\n      and\n      0xffffffffffffffffffffffffffffffffffffffff\n      and\n      dup2\n      mstore\n      0x20\n      add\n      0x03\n      dup3\n      add\n      sload\n      dup2\n      mstore\n      0x20\n      add\n      0x04\n      dup3\n      add\n      sload\n      dup2\n      mstore\n      0x20\n      add\n      0x05\n      dup3\n      add\n      sload\n      dup2\n      mstore\n      0x20\n      add\n      0x06\n      dup3\n      add\n      sload\n      dup2\n      mstore\n      0x20\n      add\n      0x07\n      dup3\n      add\n      sload\n      dup2\n      mstore\n      0x20\n      add\n      0x08\n      dup3\n      add\n      0x00\n      swap1\n      sload\n      swap1\n      0x0100\n      exp\n      swap1\n      div\n      0xff\n      and\n      iszero\n      iszero\n      iszero\n      iszero\n      dup2\n      mstore\n      pop\n      pop\n      swap1\n      pop\n        /* \"main.sol\":3930:3950  Bid memory latestBid */\n      0x00\n        /* \"main.sol\":3953:3957  bids */\n      0x02\n        /* \"main.sol\":3953:3966  bids[_poolId] */\n      0x00\n        /* \"main.sol\":3958:3965  _poolId */\n      dup6\n        /* \"main.sol\":3953:3966  bids[_poolId] */\n      dup2\n      mstore\n      0x20\n      add\n      swap1\n      dup2\n      mstore\n      0x20\n      add\n      0x00\n      keccak256\n        /* \"main.sol\":3953:3980  bids[_poolId][loan.numBids] */\n      0x00\n        /* \"main.sol\":3967:3971  loan */\n      dup4\n        /* \"main.sol\":3967:3979  loan.numBids */\n      0xe0\n      add\n      mload\n        /* \"main.sol\":3953:3980  bids[_poolId][loan.numBids] */\n      dup2\n      mstore\n      0x20\n      add\n      swap1\n      dup2\n      mstore\n      0x20\n      add\n      0x00\n      keccak256\n        /* \"main.sol\":3930:3980  Bid memory latestBid = bids[_poolId][loan.numBids] */\n      mload(0x40)\n      dup1\n      0x60\n      add\n      0x40\n      mstore\n      swap1\n      dup2\n      0x00\n      dup3\n      add\n      sload\n      dup2\n      mstore\n      0x20\n      add\n      0x01\n      dup3\n      add\n      sload\n      dup2\n      mstore\n      0x20\n      add\n      0x02\n      dup3\n      add\n      0x00\n      swap1\n      sload\n      swap1\n      0x0100\n      exp\n      swap1\n      div\n      0xffffffffffffffffffffffffffffffffffffffff\n      and\n      0xffffffffffffffffffffffffffffffffffffffff\n      and\n      0xffffffffffffffffffffffffffffffffffffffff\n      and\n      dup2\n      mstore\n      pop\n      pop\n      swap1\n      pop\n        /* \"main.sol\":4041:4045  loan */\n      dup2\n        /* \"main.sol\":4041:4051  loan.token */\n      0x20\n      add\n      mload\n        /* \"main.sol\":4034:4065  IERC20(loan.token).transferFrom */\n      0xffffffffffffffffffffffffffffffffffffffff\n      and\n      0x23b872dd\n        /* \"main.sol\":4066:4076  msg.sender */\n      caller\n        /* \"main.sol\":4078:4087  latestBid */\n      dup4\n        /* \"main.sol\":4078:4092  latestBid.user */\n      0x40\n      add\n      mload\n        /* \"main.sol\":4094:4122  _calculateLoanValue(_poolId) */\n      tag_140\n        /* \"main.sol\":4114:4121  _poolId */\n      dup9\n        /* \"main.sol\":4094:4113  _calculateLoanValue */\n      tag_121\n        /* \"main.sol\":4094:4122  _calculateLoanValue(_poolId) */\n      jump\t// in\n    tag_140:\n        /* \"main.sol\":4034:4123  IERC20(loan.token).transferFrom(msg.sender, latestBid.user, _calculateLoanValue(_poolId)) */\n      mload(0x40)\n      dup5\n      0xffffffff\n      and\n      0xe0\n      shl\n      dup2\n      mstore\n      0x04\n      add\n      tag_141\n      swap4\n      swap3\n      swap2\n      swap1\n      tag_73\n      jump\t// in\n    tag_141:\n      0x20\n      mload(0x40)\n      dup1\n      dup4\n      sub\n      dup2\n      0x00\n      dup8\n      gas\n      call\n      iszero\n      dup1\n      iszero\n      tag_143\n      jumpi\n      returndatasize\n      0x00\n      dup1\n      returndatacopy\n      revert(0x00, returndatasize)\n    tag_143:\n      pop\n      pop\n      pop\n      pop\n      mload(0x40)\n      returndatasize\n      not(0x1f)\n      0x1f\n      dup3\n      add\n      and\n      dup3\n      add\n      dup1\n      0x40\n      mstore\n      pop\n      dup2\n      add\n      swap1\n      tag_144\n      swap2\n      swap1\n      tag_129\n      jump\t// in\n    tag_144:\n      pop\n        /* \"main.sol\":4171:4182  IERC721 NFT */\n      0x00\n        /* \"main.sol\":4193:4197  loan */\n      dup3\n        /* \"main.sol\":4193:4215  loan.collectionAddress */\n      0x40\n      add\n      mload\n        /* \"main.sol\":4171:4216  IERC721 NFT = IERC721(loan.collectionAddress) */\n      swap1\n      pop\n        /* \"main.sol\":4226:4229  NFT */\n      dup1\n        /* \"main.sol\":4226:4246  NFT.safeTransferFrom */\n      0xffffffffffffffffffffffffffffffffffffffff\n      and\n      0x42842e0e\n        /* \"main.sol\":4255:4259  this */\n      address\n        /* \"main.sol\":4262:4272  msg.sender */\n      caller\n        /* \"main.sol\":4274:4278  loan */\n      dup7\n        /* \"main.sol\":4274:4284  loan.nftId */\n      0x60\n      add\n      mload\n        /* \"main.sol\":4226:4285  NFT.safeTransferFrom(address(this), msg.sender, loan.nftId) */\n      mload(0x40)\n      dup5\n      0xffffffff\n      and\n      0xe0\n      shl\n      dup2\n      mstore\n      0x04\n      add\n      tag_145\n      swap4\n      swap3\n      swap2\n      swap1\n      tag_73\n      jump\t// in\n    tag_145:\n      0x00\n      mload(0x40)\n      dup1\n      dup4\n      sub\n      dup2\n      0x00\n      dup8\n      dup1\n      extcodesize\n      iszero\n      dup1\n      iszero\n      tag_146\n      jumpi\n      0x00\n      dup1\n      revert\n    tag_146:\n      pop\n      gas\n      call\n      iszero\n      dup1\n      iszero\n      tag_148\n      jumpi\n      returndatasize\n      0x00\n      dup1\n      returndatacopy\n      revert(0x00, returndatasize)\n    tag_148:\n      pop\n      pop\n      pop\n      pop\n        /* \"main.sol\":3877:4292  {... */\n      pop\n      pop\n      pop\n        /* \"main.sol\":3815:4292  function endLoan(uint256 _poolId) external onlyOwner(_poolId) {... */\n      pop\n      pop\n      jump\t// out\n        /* \"main.sol\":872:927  mapping(uint256 => mapping(uint256 => Bid)) public bids */\n    tag_42:\n      mstore(0x20, 0x02)\n      dup2\n      0x00\n      mstore\n      mstore(0x20, keccak256(0x00, 0x40))\n      dup1\n      0x00\n      mstore\n      keccak256(0x00, 0x40)\n      0x00\n      swap2\n      pop\n      swap2\n      pop\n      pop\n      dup1\n      0x00\n      add\n      sload\n      swap1\n      dup1\n      0x01\n      add\n      sload\n      swap1\n      dup1\n      0x02\n      add\n      0x00\n      swap1\n      sload\n      swap1\n      0x0100\n      exp\n      swap1\n      div\n      0xffffffffffffffffffffffffffffffffffffffff\n      and\n      swap1\n      pop\n      dup4\n      jump\t// out\n        /* \"main.sol\":3075:3485  function setNewBidOwner(uint256 _poolId, address _newAddress) external{... */\n    tag_48:\n        /* \"main.sol\":3163:3180  _started(_poolId) */\n      tag_150\n        /* \"main.sol\":3172:3179  _poolId */\n      dup3\n        /* \"main.sol\":3163:3171  _started */\n      tag_110\n        /* \"main.sol\":3163:3180  _started(_poolId) */\n      jump\t// in\n    tag_150:\n        /* \"main.sol\":3155:3201  require(_started(_poolId), \"LAN: not started\") */\n      tag_151\n      jumpi\n      mload(0x40)\n      0x08c379a000000000000000000000000000000000000000000000000000000000\n      dup2\n      mstore\n      0x04\n      add\n      tag_152\n      swap1\n      tag_113\n      jump\t// in\n    tag_152:\n      mload(0x40)\n      dup1\n      swap2\n      sub\n      swap1\n      revert\n    tag_151:\n        /* \"main.sol\":3220:3235  _ended(_poolId) */\n      tag_153\n        /* \"main.sol\":3227:3234  _poolId */\n      dup3\n        /* \"main.sol\":3220:3226  _ended */\n      tag_65\n        /* \"main.sol\":3220:3235  _ended(_poolId) */\n      jump\t// in\n    tag_153:\n        /* \"main.sol\":3219:3235  !_ended(_poolId) */\n      iszero\n        /* \"main.sol\":3211:3258  require(!_ended(_poolId), \"LAN: already ended\") */\n      tag_154\n      jumpi\n      mload(0x40)\n      0x08c379a000000000000000000000000000000000000000000000000000000000\n      dup2\n      mstore\n      0x04\n      add\n      tag_155\n      swap1\n      tag_117\n      jump\t// in\n    tag_155:\n      mload(0x40)\n      dup1\n      swap2\n      sub\n      swap1\n      revert\n    tag_154:\n        /* \"main.sol\":3269:3285  Loan memory loan */\n      0x00\n        /* \"main.sol\":3288:3293  loans */\n      0x01\n        /* \"main.sol\":3288:3302  loans[_poolId] */\n      0x00\n        /* \"main.sol\":3294:3301  _poolId */\n      dup5\n        /* \"main.sol\":3288:3302  loans[_poolId] */\n      dup2\n      mstore\n      0x20\n      add\n      swap1\n      dup2\n      mstore\n      0x20\n      add\n      0x00\n      keccak256\n        /* \"main.sol\":3269:3302  Loan memory loan = loans[_poolId] */\n      mload(0x40)\n      dup1\n      0x0120\n      add\n      0x40\n      mstore\n      swap1\n      dup2\n      0x00\n      dup3\n      add\n      0x00\n      swap1\n      sload\n      swap1\n      0x0100\n      exp\n      swap1\n      div\n      0xffffffffffffffffffffffffffffffffffffffff\n      and\n      0xffffffffffffffffffffffffffffffffffffffff\n      and\n      0xffffffffffffffffffffffffffffffffffffffff\n      and\n      dup2\n      mstore\n      0x20\n      add\n      0x01\n      dup3\n      add\n      0x00\n      swap1\n      sload\n      swap1\n      0x0100\n      exp\n      swap1\n      div\n      0xffffffffffffffffffffffffffffffffffffffff\n      and\n      0xffffffffffffffffffffffffffffffffffffffff\n      and\n      0xffffffffffffffffffffffffffffffffffffffff\n      and\n      dup2\n      mstore\n      0x20\n      add\n      0x02\n      dup3\n      add\n      0x00\n      swap1\n      sload\n      swap1\n      0x0100\n      exp\n      swap1\n      div\n      0xffffffffffffffffffffffffffffffffffffffff\n      and\n      0xffffffffffffffffffffffffffffffffffffffff\n      and\n      0xffffffffffffffffffffffffffffffffffffffff\n      and\n      dup2\n      mstore\n      0x20\n      add\n      0x03\n      dup3\n      add\n      sload\n      dup2\n      mstore\n      0x20\n      add\n      0x04\n      dup3\n      add\n      sload\n      dup2\n      mstore\n      0x20\n      add\n      0x05\n      dup3\n      add\n      sload\n      dup2\n      mstore\n      0x20\n      add\n      0x06\n      dup3\n      add\n      sload\n      dup2\n      mstore\n      0x20\n      add\n      0x07\n      dup3\n      add\n      sload\n      dup2\n      mstore\n      0x20\n      add\n      0x08\n      dup3\n      add\n      0x00\n      swap1\n      sload\n      swap1\n      0x0100\n      exp\n      swap1\n      div\n      0xff\n      and\n      iszero\n      iszero\n      iszero\n      iszero\n      dup2\n      mstore\n      pop\n      pop\n      swap1\n      pop\n        /* \"main.sol\":3312:3333  Bid storage latestBid */\n      0x00\n        /* \"main.sol\":3336:3340  bids */\n      0x02\n        /* \"main.sol\":3336:3349  bids[_poolId] */\n      0x00\n        /* \"main.sol\":3341:3348  _poolId */\n      dup6\n        /* \"main.sol\":3336:3349  bids[_poolId] */\n      dup2\n      mstore\n      0x20\n      add\n      swap1\n      dup2\n      mstore\n      0x20\n      add\n      0x00\n      keccak256\n        /* \"main.sol\":3336:3363  bids[_poolId][loan.numBids] */\n      0x00\n        /* \"main.sol\":3350:3354  loan */\n      dup4\n        /* \"main.sol\":3350:3362  loan.numBids */\n      0xe0\n      add\n      mload\n        /* \"main.sol\":3336:3363  bids[_poolId][loan.numBids] */\n      dup2\n      mstore\n      0x20\n      add\n      swap1\n      dup2\n      mstore\n      0x20\n      add\n      0x00\n      keccak256\n        /* \"main.sol\":3312:3363  Bid storage latestBid = bids[_poolId][loan.numBids] */\n      swap1\n      pop\n        /* \"main.sol\":3399:3409  msg.sender */\n      caller\n        /* \"main.sol\":3381:3409  latestBid.user == msg.sender */\n      0xffffffffffffffffffffffffffffffffffffffff\n      and\n        /* \"main.sol\":3381:3390  latestBid */\n      dup2\n        /* \"main.sol\":3381:3395  latestBid.user */\n      0x02\n      add\n      0x00\n      swap1\n      sload\n      swap1\n      0x0100\n      exp\n      swap1\n      div\n      0xffffffffffffffffffffffffffffffffffffffff\n      and\n        /* \"main.sol\":3381:3409  latestBid.user == msg.sender */\n      0xffffffffffffffffffffffffffffffffffffffff\n      and\n      eq\n        /* \"main.sol\":3373:3440  require(latestBid.user == msg.sender, \"LAN: Not the latest bidder\") */\n      tag_156\n      jumpi\n      mload(0x40)\n      0x08c379a000000000000000000000000000000000000000000000000000000000\n      dup2\n      mstore\n      0x04\n      add\n      tag_157\n      swap1\n      tag_158\n      jump\t// in\n    tag_157:\n      mload(0x40)\n      dup1\n      swap2\n      sub\n      swap1\n      revert\n    tag_156:\n        /* \"main.sol\":3467:3478  _newAddress */\n      dup3\n        /* \"main.sol\":3450:3459  latestBid */\n      dup2\n        /* \"main.sol\":3450:3464  latestBid.user */\n      0x02\n      add\n      0x00\n        /* \"main.sol\":3450:3478  latestBid.user = _newAddress */\n      0x0100\n      exp\n      dup2\n      sload\n      dup2\n      0xffffffffffffffffffffffffffffffffffffffff\n      mul\n      not\n      and\n      swap1\n      dup4\n      0xffffffffffffffffffffffffffffffffffffffff\n      and\n      mul\n      or\n      swap1\n      sstore\n      pop\n        /* \"main.sol\":3145:3485  {... */\n      pop\n      pop\n        /* \"main.sol\":3075:3485  function setNewBidOwner(uint256 _poolId, address _newAddress) external{... */\n      pop\n      pop\n      jump\t// out\n        /* \"main.sol\":1009:1066  mapping(uint256 => address[]) public whitelistedAddresses */\n    tag_51:\n      mstore(0x20, 0x03)\n      dup2\n      0x00\n      mstore\n      keccak256(0x00, 0x40)\n      dup2\n      dup2\n      sload\n      dup2\n      lt\n      tag_159\n      jumpi\n      0x00\n      dup1\n      revert\n    tag_159:\n      swap1\n      0x00\n      mstore\n      keccak256(0x00, 0x20)\n      add\n      0x00\n      swap2\n      pop\n      swap2\n      pop\n      swap1\n      sload\n      swap1\n      0x0100\n      exp\n      swap1\n      div\n      0xffffffffffffffffffffffffffffffffffffffff\n      and\n      dup2\n      jump\t// out\n        /* \"main.sol\":708:745  mapping(uint256 => Loan) public loans */\n    tag_56:\n      mstore(0x20, 0x01)\n      dup1\n      0x00\n      mstore\n      keccak256(0x00, 0x40)\n      0x00\n      swap2\n      pop\n      swap1\n      pop\n      dup1\n      0x00\n      add\n      0x00\n      swap1\n      sload\n      swap1\n      0x0100\n      exp\n      swap1\n      div\n      0xffffffffffffffffffffffffffffffffffffffff\n      and\n      swap1\n      dup1\n      0x01\n      add\n      0x00\n      swap1\n      sload\n      swap1\n      0x0100\n      exp\n      swap1\n      div\n      0xffffffffffffffffffffffffffffffffffffffff\n      and\n      swap1\n      dup1\n      0x02\n      add\n      0x00\n      swap1\n      sload\n      swap1\n      0x0100\n      exp\n      swap1\n      div\n      0xffffffffffffffffffffffffffffffffffffffff\n      and\n      swap1\n      dup1\n      0x03\n      add\n      sload\n      swap1\n      dup1\n      0x04\n      add\n      sload\n      swap1\n      dup1\n      0x05\n      add\n      sload\n      swap1\n      dup1\n      0x06\n      add\n      sload\n      swap1\n      dup1\n      0x07\n      add\n      sload\n      swap1\n      dup1\n      0x08\n      add\n      0x00\n      swap1\n      sload\n      swap1\n      0x0100\n      exp\n      swap1\n      div\n      0xff\n      and\n      swap1\n      pop\n      dup10\n      jump\t// out\n        /* \"main.sol\":5989:6115  function _ended(uint256 _poolId) internal view returns (bool){... */\n    tag_65:\n        /* \"main.sol\":6045:6049  bool */\n      0x00\n        /* \"main.sol\":6093:6108  block.timestamp */\n      timestamp\n        /* \"main.sol\":6067:6072  loans */\n      0x01\n        /* \"main.sol\":6067:6081  loans[_poolId] */\n      0x00\n        /* \"main.sol\":6073:6080  _poolId */\n      dup5\n        /* \"main.sol\":6067:6081  loans[_poolId] */\n      dup2\n      mstore\n      0x20\n      add\n      swap1\n      dup2\n      mstore\n      0x20\n      add\n      0x00\n      keccak256\n        /* \"main.sol\":6067:6089  loans[_poolId].endTime */\n      0x05\n      add\n      sload\n        /* \"main.sol\":6067:6108  loans[_poolId].endTime <= block.timestamp */\n      gt\n      iszero\n        /* \"main.sol\":6060:6108  return loans[_poolId].endTime <= block.timestamp */\n      swap1\n      pop\n        /* \"main.sol\":5989:6115  function _ended(uint256 _poolId) internal view returns (bool){... */\n      swap2\n      swap1\n      pop\n      jump\t// out\n        /* \"main.sol\":6120:6249  function _started(uint256 _poolId) internal view returns (bool){... */\n    tag_110:\n        /* \"main.sol\":6178:6182  bool */\n      0x00\n        /* \"main.sol\":6227:6242  block.timestamp */\n      timestamp\n        /* \"main.sol\":6200:6205  loans */\n      0x01\n        /* \"main.sol\":6200:6214  loans[_poolId] */\n      0x00\n        /* \"main.sol\":6206:6213  _poolId */\n      dup5\n        /* \"main.sol\":6200:6214  loans[_poolId] */\n      dup2\n      mstore\n      0x20\n      add\n      swap1\n      dup2\n      mstore\n      0x20\n      add\n      0x00\n      keccak256\n        /* \"main.sol\":6200:6224  loans[_poolId].startTime */\n      0x04\n      add\n      sload\n        /* \"main.sol\":6200:6242  loans[_poolId].startTime < block.timestamp */\n      lt\n        /* \"main.sol\":6193:6242  return loans[_poolId].startTime < block.timestamp */\n      swap1\n      pop\n        /* \"main.sol\":6120:6249  function _started(uint256 _poolId) internal view returns (bool){... */\n      swap2\n      swap1\n      pop\n      jump\t// out\n        /* \"main.sol\":5465:5978  function _calculateLoanValue(uint256 _poolId) internal view returns (uint256){... */\n    tag_121:\n        /* \"main.sol\":5534:5541  uint256 */\n      0x00\n        /* \"main.sol\":5552:5568  Loan memory loan */\n      dup1\n        /* \"main.sol\":5571:5576  loans */\n      0x01\n        /* \"main.sol\":5571:5585  loans[_poolId] */\n      0x00\n        /* \"main.sol\":5577:5584  _poolId */\n      dup5\n        /* \"main.sol\":5571:5585  loans[_poolId] */\n      dup2\n      mstore\n      0x20\n      add\n      swap1\n      dup2\n      mstore\n      0x20\n      add\n      0x00\n      keccak256\n        /* \"main.sol\":5552:5585  Loan memory loan = loans[_poolId] */\n      mload(0x40)\n      dup1\n      0x0120\n      add\n      0x40\n      mstore\n      swap1\n      dup2\n      0x00\n      dup3\n      add\n      0x00\n      swap1\n      sload\n      swap1\n      0x0100\n      exp\n      swap1\n      div\n      0xffffffffffffffffffffffffffffffffffffffff\n      and\n      0xffffffffffffffffffffffffffffffffffffffff\n      and\n      0xffffffffffffffffffffffffffffffffffffffff\n      and\n      dup2\n      mstore\n      0x20\n      add\n      0x01\n      dup3\n      add\n      0x00\n      swap1\n      sload\n      swap1\n      0x0100\n      exp\n      swap1\n      div\n      0xffffffffffffffffffffffffffffffffffffffff\n      and\n      0xffffffffffffffffffffffffffffffffffffffff\n      and\n      0xffffffffffffffffffffffffffffffffffffffff\n      and\n      dup2\n      mstore\n      0x20\n      add\n      0x02\n      dup3\n      add\n      0x00\n      swap1\n      sload\n      swap1\n      0x0100\n      exp\n      swap1\n      div\n      0xffffffffffffffffffffffffffffffffffffffff\n      and\n      0xffffffffffffffffffffffffffffffffffffffff\n      and\n      0xffffffffffffffffffffffffffffffffffffffff\n      and\n      dup2\n      mstore\n      0x20\n      add\n      0x03\n      dup3\n      add\n      sload\n      dup2\n      mstore\n      0x20\n      add\n      0x04\n      dup3\n      add\n      sload\n      dup2\n      mstore\n      0x20\n      add\n      0x05\n      dup3\n      add\n      sload\n      dup2\n      mstore\n      0x20\n      add\n      0x06\n      dup3\n      add\n      sload\n      dup2\n      mstore\n      0x20\n      add\n      0x07\n      dup3\n      add\n      sload\n      dup2\n      mstore\n      0x20\n      add\n      0x08\n      dup3\n      add\n      0x00\n      swap1\n      sload\n      swap1\n      0x0100\n      exp\n      swap1\n      div\n      0xff\n      and\n      iszero\n      iszero\n      iszero\n      iszero\n      dup2\n      mstore\n      pop\n      pop\n      swap1\n      pop\n        /* \"main.sol\":5595:5615  Bid memory latestBid */\n      0x00\n        /* \"main.sol\":5618:5622  bids */\n      0x02\n        /* \"main.sol\":5618:5631  bids[_poolId] */\n      0x00\n        /* \"main.sol\":5623:5630  _poolId */\n      dup6\n        /* \"main.sol\":5618:5631  bids[_poolId] */\n      dup2\n      mstore\n      0x20\n      add\n      swap1\n      dup2\n      mstore\n      0x20\n      add\n      0x00\n      keccak256\n        /* \"main.sol\":5618:5645  bids[_poolId][loan.numBids] */\n      0x00\n        /* \"main.sol\":5632:5636  loan */\n      dup4\n        /* \"main.sol\":5632:5644  loan.numBids */\n      0xe0\n      add\n      mload\n        /* \"main.sol\":5618:5645  bids[_poolId][loan.numBids] */\n      dup2\n      mstore\n      0x20\n      add\n      swap1\n      dup2\n      mstore\n      0x20\n      add\n      0x00\n      keccak256\n        /* \"main.sol\":5595:5645  Bid memory latestBid = bids[_poolId][loan.numBids] */\n      mload(0x40)\n      dup1\n      0x60\n      add\n      0x40\n      mstore\n      swap1\n      dup2\n      0x00\n      dup3\n      add\n      sload\n      dup2\n      mstore\n      0x20\n      add\n      0x01\n      dup3\n      add\n      sload\n      dup2\n      mstore\n      0x20\n      add\n      0x02\n      dup3\n      add\n      0x00\n      swap1\n      sload\n      swap1\n      0x0100\n      exp\n      swap1\n      div\n      0xffffffffffffffffffffffffffffffffffffffff\n      and\n      0xffffffffffffffffffffffffffffffffffffffff\n      and\n      0xffffffffffffffffffffffffffffffffffffffff\n      and\n      dup2\n      mstore\n      pop\n      pop\n      swap1\n      pop\n        /* \"main.sol\":5655:5674  uint256 timeElapsed */\n      0x00\n        /* \"main.sol\":5687:5702  _ended(_poolId) */\n      tag_164\n        /* \"main.sol\":5694:5701  _poolId */\n      dup6\n        /* \"main.sol\":5687:5693  _ended */\n      tag_65\n        /* \"main.sol\":5687:5702  _ended(_poolId) */\n      jump\t// in\n    tag_164:\n        /* \"main.sol\":5684:5856  if(_ended(_poolId)){... */\n      iszero\n      tag_165\n      jumpi\n        /* \"main.sol\":5752:5756  loan */\n      dup3\n        /* \"main.sol\":5752:5764  loan.endTime */\n      0xa0\n      add\n      mload\n        /* \"main.sol\":5732:5741  latestBid */\n      dup3\n        /* \"main.sol\":5732:5749  latestBid.bidTime */\n      0x00\n      add\n      mload\n        /* \"main.sol\":5732:5764  latestBid.bidTime - loan.endTime */\n      tag_166\n      swap2\n      swap1\n      tag_131\n      jump\t// in\n    tag_166:\n        /* \"main.sol\":5717:5764  timeElapsed =  latestBid.bidTime - loan.endTime */\n      swap1\n      pop\n        /* \"main.sol\":5684:5856  if(_ended(_poolId)){... */\n      jump(tag_167)\n    tag_165:\n        /* \"main.sol\":5830:5845  block.timestamp */\n      timestamp\n        /* \"main.sol\":5810:5819  latestBid */\n      dup3\n        /* \"main.sol\":5810:5827  latestBid.bidTime */\n      0x00\n      add\n      mload\n        /* \"main.sol\":5810:5845  latestBid.bidTime - block.timestamp */\n      tag_168\n      swap2\n      swap1\n      tag_131\n      jump\t// in\n    tag_168:\n        /* \"main.sol\":5795:5845  timeElapsed =  latestBid.bidTime - block.timestamp */\n      swap1\n      pop\n        /* \"main.sol\":5684:5856  if(_ended(_poolId)){... */\n    tag_167:\n        /* \"main.sol\":1120:1132  60*60*24*365 */\n      0x01e13380\n        /* \"main.sol\":5938:5949  timeElapsed */\n      dup2\n        /* \"main.sol\":5927:5935  10 ** 18 */\n      0x0de0b6b3a7640000\n        /* \"main.sol\":5916:5920  loan */\n      dup6\n        /* \"main.sol\":5916:5924  loan.apr */\n      0xc0\n      add\n      mload\n        /* \"main.sol\":5894:5903  latestBid */\n      dup6\n        /* \"main.sol\":5894:5913  latestBid.bidAmount */\n      0x20\n      add\n      mload\n        /* \"main.sol\":5894:5924  latestBid.bidAmount * loan.apr */\n      tag_169\n      swap2\n      swap1\n      tag_170\n      jump\t// in\n    tag_169:\n        /* \"main.sol\":5894:5935  latestBid.bidAmount * loan.apr / 10 ** 18 */\n      tag_171\n      swap2\n      swap1\n      tag_172\n      jump\t// in\n    tag_171:\n        /* \"main.sol\":5894:5949  latestBid.bidAmount * loan.apr / 10 ** 18 * timeElapsed */\n      tag_173\n      swap2\n      swap1\n      tag_170\n      jump\t// in\n    tag_173:\n        /* \"main.sol\":5894:5971  latestBid.bidAmount * loan.apr / 10 ** 18 * timeElapsed / SECONDS_IN_ONE_YEAR */\n      tag_174\n      swap2\n      swap1\n      tag_172\n      jump\t// in\n    tag_174:\n        /* \"main.sol\":5872:5881  latestBid */\n      dup3\n        /* \"main.sol\":5872:5891  latestBid.bidAmount */\n      0x20\n      add\n      mload\n        /* \"main.sol\":5872:5971  latestBid.bidAmount + latestBid.bidAmount * loan.apr / 10 ** 18 * timeElapsed / SECONDS_IN_ONE_YEAR */\n      tag_175\n      swap2\n      swap1\n      tag_119\n      jump\t// in\n    tag_175:\n        /* \"main.sol\":5865:5971  return latestBid.bidAmount + latestBid.bidAmount * loan.apr / 10 ** 18 * timeElapsed / SECONDS_IN_ONE_YEAR */\n      swap4\n      pop\n      pop\n      pop\n      pop\n        /* \"main.sol\":5465:5978  function _calculateLoanValue(uint256 _poolId) internal view returns (uint256){... */\n      swap2\n      swap1\n      pop\n      jump\t// out\n    tag_96:\n      mload(0x40)\n      dup1\n      0x0120\n      add\n      0x40\n      mstore\n      dup1\n      and(0xffffffffffffffffffffffffffffffffffffffff, 0x00)\n      dup2\n      mstore\n      0x20\n      add\n      and(0xffffffffffffffffffffffffffffffffffffffff, 0x00)\n      dup2\n      mstore\n      0x20\n      add\n      and(0xffffffffffffffffffffffffffffffffffffffff, 0x00)\n      dup2\n      mstore\n      0x20\n      add\n      0x00\n      dup2\n      mstore\n      0x20\n      add\n      0x00\n      dup2\n      mstore\n      0x20\n      add\n      0x00\n      dup2\n      mstore\n      0x20\n      add\n      0x00\n      dup2\n      mstore\n      0x20\n      add\n      0x00\n      dup2\n      mstore\n      0x20\n      add\n      iszero(iszero(0x00))\n      dup2\n      mstore\n      pop\n      swap1\n      jump\t// out\n        /* \"#utility.yul\":7:84   */\n    tag_176:\n        /* \"#utility.yul\":44:51   */\n      0x00\n        /* \"#utility.yul\":73:78   */\n      dup2\n        /* \"#utility.yul\":62:78   */\n      swap1\n      pop\n        /* \"#utility.yul\":7:84   */\n      swap2\n      swap1\n      pop\n      jump\t// out\n        /* \"#utility.yul\":90:208   */\n    tag_177:\n        /* \"#utility.yul\":177:201   */\n      tag_219\n        /* \"#utility.yul\":195:200   */\n      dup2\n        /* \"#utility.yul\":177:201   */\n      tag_176\n      jump\t// in\n    tag_219:\n        /* \"#utility.yul\":172:175   */\n      dup3\n        /* \"#utility.yul\":165:202   */\n      mstore\n        /* \"#utility.yul\":90:208   */\n      pop\n      pop\n      jump\t// out\n        /* \"#utility.yul\":214:436   */\n    tag_18:\n        /* \"#utility.yul\":307:311   */\n      0x00\n        /* \"#utility.yul\":345:347   */\n      0x20\n        /* \"#utility.yul\":334:343   */\n      dup3\n        /* \"#utility.yul\":330:348   */\n      add\n        /* \"#utility.yul\":322:348   */\n      swap1\n      pop\n        /* \"#utility.yul\":358:429   */\n      tag_221\n        /* \"#utility.yul\":426:427   */\n      0x00\n        /* \"#utility.yul\":415:424   */\n      dup4\n        /* \"#utility.yul\":411:428   */\n      add\n        /* \"#utility.yul\":402:408   */\n      dup5\n        /* \"#utility.yul\":358:429   */\n      tag_177\n      jump\t// in\n    tag_221:\n        /* \"#utility.yul\":214:436   */\n      swap3\n      swap2\n      pop\n      pop\n      jump\t// out\n        /* \"#utility.yul\":523:640   */\n    tag_179:\n        /* \"#utility.yul\":632:633   */\n      0x00\n        /* \"#utility.yul\":629:630   */\n      dup1\n        /* \"#utility.yul\":622:634   */\n      revert\n        /* \"#utility.yul\":769:891   */\n    tag_181:\n        /* \"#utility.yul\":842:866   */\n      tag_226\n        /* \"#utility.yul\":860:865   */\n      dup2\n        /* \"#utility.yul\":842:866   */\n      tag_176\n      jump\t// in\n    tag_226:\n        /* \"#utility.yul\":835:840   */\n      dup2\n        /* \"#utility.yul\":832:867   */\n      eq\n        /* \"#utility.yul\":822:885   */\n      tag_227\n      jumpi\n        /* \"#utility.yul\":881:882   */\n      0x00\n        /* \"#utility.yul\":878:879   */\n      dup1\n        /* \"#utility.yul\":871:883   */\n      revert\n        /* \"#utility.yul\":822:885   */\n    tag_227:\n        /* \"#utility.yul\":769:891   */\n      pop\n      jump\t// out\n        /* \"#utility.yul\":897:1036   */\n    tag_182:\n        /* \"#utility.yul\":943:948   */\n      0x00\n        /* \"#utility.yul\":981:987   */\n      dup2\n        /* \"#utility.yul\":968:988   */\n      calldataload\n        /* \"#utility.yul\":959:988   */\n      swap1\n      pop\n        /* \"#utility.yul\":997:1030   */\n      tag_229\n        /* \"#utility.yul\":1024:1029   */\n      dup2\n        /* \"#utility.yul\":997:1030   */\n      tag_181\n      jump\t// in\n    tag_229:\n        /* \"#utility.yul\":897:1036   */\n      swap3\n      swap2\n      pop\n      pop\n      jump\t// out\n        /* \"#utility.yul\":1042:1371   */\n    tag_21:\n        /* \"#utility.yul\":1101:1107   */\n      0x00\n        /* \"#utility.yul\":1150:1152   */\n      0x20\n        /* \"#utility.yul\":1138:1147   */\n      dup3\n        /* \"#utility.yul\":1129:1136   */\n      dup5\n        /* \"#utility.yul\":1125:1148   */\n      sub\n        /* \"#utility.yul\":1121:1153   */\n      slt\n        /* \"#utility.yul\":1118:1237   */\n      iszero\n      tag_231\n      jumpi\n        /* \"#utility.yul\":1156:1235   */\n      tag_232\n      tag_179\n      jump\t// in\n    tag_232:\n        /* \"#utility.yul\":1118:1237   */\n    tag_231:\n        /* \"#utility.yul\":1276:1277   */\n      0x00\n        /* \"#utility.yul\":1301:1354   */\n      tag_233\n        /* \"#utility.yul\":1346:1353   */\n      dup5\n        /* \"#utility.yul\":1337:1343   */\n      dup3\n        /* \"#utility.yul\":1326:1335   */\n      dup6\n        /* \"#utility.yul\":1322:1344   */\n      add\n        /* \"#utility.yul\":1301:1354   */\n      tag_182\n      jump\t// in\n    tag_233:\n        /* \"#utility.yul\":1291:1354   */\n      swap2\n      pop\n        /* \"#utility.yul\":1247:1364   */\n      pop\n        /* \"#utility.yul\":1042:1371   */\n      swap3\n      swap2\n      pop\n      pop\n      jump\t// out\n        /* \"#utility.yul\":1377:1503   */\n    tag_183:\n        /* \"#utility.yul\":1414:1421   */\n      0x00\n        /* \"#utility.yul\":1454:1496   */\n      0xffffffffffffffffffffffffffffffffffffffff\n        /* \"#utility.yul\":1447:1452   */\n      dup3\n        /* \"#utility.yul\":1443:1497   */\n      and\n        /* \"#utility.yul\":1432:1497   */\n      swap1\n      pop\n        /* \"#utility.yul\":1377:1503   */\n      swap2\n      swap1\n      pop\n      jump\t// out\n        /* \"#utility.yul\":1509:1605   */\n    tag_184:\n        /* \"#utility.yul\":1546:1553   */\n      0x00\n        /* \"#utility.yul\":1575:1599   */\n      tag_236\n        /* \"#utility.yul\":1593:1598   */\n      dup3\n        /* \"#utility.yul\":1575:1599   */\n      tag_183\n      jump\t// in\n    tag_236:\n        /* \"#utility.yul\":1564:1599   */\n      swap1\n      pop\n        /* \"#utility.yul\":1509:1605   */\n      swap2\n      swap1\n      pop\n      jump\t// out\n        /* \"#utility.yul\":1611:1733   */\n    tag_185:\n        /* \"#utility.yul\":1684:1708   */\n      tag_238\n        /* \"#utility.yul\":1702:1707   */\n      dup2\n        /* \"#utility.yul\":1684:1708   */\n      tag_184\n      jump\t// in\n    tag_238:\n        /* \"#utility.yul\":1677:1682   */\n      dup2\n        /* \"#utility.yul\":1674:1709   */\n      eq\n        /* \"#utility.yul\":1664:1727   */\n      tag_239\n      jumpi\n        /* \"#utility.yul\":1723:1724   */\n      0x00\n        /* \"#utility.yul\":1720:1721   */\n      dup1\n        /* \"#utility.yul\":1713:1725   */\n      revert\n        /* \"#utility.yul\":1664:1727   */\n    tag_239:\n        /* \"#utility.yul\":1611:1733   */\n      pop\n      jump\t// out\n        /* \"#utility.yul\":1739:1878   */\n    tag_186:\n        /* \"#utility.yul\":1785:1790   */\n      0x00\n        /* \"#utility.yul\":1823:1829   */\n      dup2\n        /* \"#utility.yul\":1810:1830   */\n      calldataload\n        /* \"#utility.yul\":1801:1830   */\n      swap1\n      pop\n        /* \"#utility.yul\":1839:1872   */\n      tag_241\n        /* \"#utility.yul\":1866:1871   */\n      dup2\n        /* \"#utility.yul\":1839:1872   */\n      tag_185\n      jump\t// in\n    tag_241:\n        /* \"#utility.yul\":1739:1878   */\n      swap3\n      swap2\n      pop\n      pop\n      jump\t// out\n        /* \"#utility.yul\":1884:1974   */\n    tag_187:\n        /* \"#utility.yul\":1918:1925   */\n      0x00\n        /* \"#utility.yul\":1961:1966   */\n      dup2\n        /* \"#utility.yul\":1954:1967   */\n      iszero\n        /* \"#utility.yul\":1947:1968   */\n      iszero\n        /* \"#utility.yul\":1936:1968   */\n      swap1\n      pop\n        /* \"#utility.yul\":1884:1974   */\n      swap2\n      swap1\n      pop\n      jump\t// out\n        /* \"#utility.yul\":1980:2096   */\n    tag_188:\n        /* \"#utility.yul\":2050:2071   */\n      tag_244\n        /* \"#utility.yul\":2065:2070   */\n      dup2\n        /* \"#utility.yul\":2050:2071   */\n      tag_187\n      jump\t// in\n    tag_244:\n        /* \"#utility.yul\":2043:2048   */\n      dup2\n        /* \"#utility.yul\":2040:2072   */\n      eq\n        /* \"#utility.yul\":2030:2090   */\n      tag_245\n      jumpi\n        /* \"#utility.yul\":2086:2087   */\n      0x00\n        /* \"#utility.yul\":2083:2084   */\n      dup1\n        /* \"#utility.yul\":2076:2088   */\n      revert\n        /* \"#utility.yul\":2030:2090   */\n    tag_245:\n        /* \"#utility.yul\":1980:2096   */\n      pop\n      jump\t// out\n        /* \"#utility.yul\":2102:2235   */\n    tag_189:\n        /* \"#utility.yul\":2145:2150   */\n      0x00\n        /* \"#utility.yul\":2183:2189   */\n      dup2\n        /* \"#utility.yul\":2170:2190   */\n      calldataload\n        /* \"#utility.yul\":2161:2190   */\n      swap1\n      pop\n        /* \"#utility.yul\":2199:2229   */\n      tag_247\n        /* \"#utility.yul\":2223:2228   */\n      dup2\n        /* \"#utility.yul\":2199:2229   */\n      tag_188\n      jump\t// in\n    tag_247:\n        /* \"#utility.yul\":2102:2235   */\n      swap3\n      swap2\n      pop\n      pop\n      jump\t// out\n        /* \"#utility.yul\":2241:3438   */\n    tag_25:\n        /* \"#utility.yul\":2351:2357   */\n      0x00\n        /* \"#utility.yul\":2359:2365   */\n      dup1\n        /* \"#utility.yul\":2367:2373   */\n      0x00\n        /* \"#utility.yul\":2375:2381   */\n      dup1\n        /* \"#utility.yul\":2383:2389   */\n      0x00\n        /* \"#utility.yul\":2391:2397   */\n      dup1\n        /* \"#utility.yul\":2399:2405   */\n      0x00\n        /* \"#utility.yul\":2448:2451   */\n      0xe0\n        /* \"#utility.yul\":2436:2445   */\n      dup9\n        /* \"#utility.yul\":2427:2434   */\n      dup11\n        /* \"#utility.yul\":2423:2446   */\n      sub\n        /* \"#utility.yul\":2419:2452   */\n      slt\n        /* \"#utility.yul\":2416:2536   */\n      iszero\n      tag_249\n      jumpi\n        /* \"#utility.yul\":2455:2534   */\n      tag_250\n      tag_179\n      jump\t// in\n    tag_250:\n        /* \"#utility.yul\":2416:2536   */\n    tag_249:\n        /* \"#utility.yul\":2575:2576   */\n      0x00\n        /* \"#utility.yul\":2600:2653   */\n      tag_251\n        /* \"#utility.yul\":2645:2652   */\n      dup11\n        /* \"#utility.yul\":2636:2642   */\n      dup3\n        /* \"#utility.yul\":2625:2634   */\n      dup12\n        /* \"#utility.yul\":2621:2643   */\n      add\n        /* \"#utility.yul\":2600:2653   */\n      tag_186\n      jump\t// in\n    tag_251:\n        /* \"#utility.yul\":2590:2653   */\n      swap8\n      pop\n        /* \"#utility.yul\":2546:2663   */\n      pop\n        /* \"#utility.yul\":2702:2704   */\n      0x20\n        /* \"#utility.yul\":2728:2781   */\n      tag_252\n        /* \"#utility.yul\":2773:2780   */\n      dup11\n        /* \"#utility.yul\":2764:2770   */\n      dup3\n        /* \"#utility.yul\":2753:2762   */\n      dup12\n        /* \"#utility.yul\":2749:2771   */\n      add\n        /* \"#utility.yul\":2728:2781   */\n      tag_186\n      jump\t// in\n    tag_252:\n        /* \"#utility.yul\":2718:2781   */\n      swap7\n      pop\n        /* \"#utility.yul\":2673:2791   */\n      pop\n        /* \"#utility.yul\":2830:2832   */\n      0x40\n        /* \"#utility.yul\":2856:2909   */\n      tag_253\n        /* \"#utility.yul\":2901:2908   */\n      dup11\n        /* \"#utility.yul\":2892:2898   */\n      dup3\n        /* \"#utility.yul\":2881:2890   */\n      dup12\n        /* \"#utility.yul\":2877:2899   */\n      add\n        /* \"#utility.yul\":2856:2909   */\n      tag_182\n      jump\t// in\n    tag_253:\n        /* \"#utility.yul\":2846:2909   */\n      swap6\n      pop\n        /* \"#utility.yul\":2801:2919   */\n      pop\n        /* \"#utility.yul\":2958:2960   */\n      0x60\n        /* \"#utility.yul\":2984:3037   */\n      tag_254\n        /* \"#utility.yul\":3029:3036   */\n      dup11\n        /* \"#utility.yul\":3020:3026   */\n      dup3\n        /* \"#utility.yul\":3009:3018   */\n      dup12\n        /* \"#utility.yul\":3005:3027   */\n      add\n        /* \"#utility.yul\":2984:3037   */\n      tag_182\n      jump\t// in\n    tag_254:\n        /* \"#utility.yul\":2974:3037   */\n      swap5\n      pop\n        /* \"#utility.yul\":2929:3047   */\n      pop\n        /* \"#utility.yul\":3086:3089   */\n      0x80\n        /* \"#utility.yul\":3113:3166   */\n      tag_255\n        /* \"#utility.yul\":3158:3165   */\n      dup11\n        /* \"#utility.yul\":3149:3155   */\n      dup3\n        /* \"#utility.yul\":3138:3147   */\n      dup12\n        /* \"#utility.yul\":3134:3156   */\n      add\n        /* \"#utility.yul\":3113:3166   */\n      tag_182\n      jump\t// in\n    tag_255:\n        /* \"#utility.yul\":3103:3166   */\n      swap4\n      pop\n        /* \"#utility.yul\":3057:3176   */\n      pop\n        /* \"#utility.yul\":3215:3218   */\n      0xa0\n        /* \"#utility.yul\":3242:3295   */\n      tag_256\n        /* \"#utility.yul\":3287:3294   */\n      dup11\n        /* \"#utility.yul\":3278:3284   */\n      dup3\n        /* \"#utility.yul\":3267:3276   */\n      dup12\n        /* \"#utility.yul\":3263:3285   */\n      add\n        /* \"#utility.yul\":3242:3295   */\n      tag_182\n      jump\t// in\n    tag_256:\n        /* \"#utility.yul\":3232:3295   */\n      swap3\n      pop\n        /* \"#utility.yul\":3186:3305   */\n      pop\n        /* \"#utility.yul\":3344:3347   */\n      0xc0\n        /* \"#utility.yul\":3371:3421   */\n      tag_257\n        /* \"#utility.yul\":3413:3420   */\n      dup11\n        /* \"#utility.yul\":3404:3410   */\n      dup3\n        /* \"#utility.yul\":3393:3402   */\n      dup12\n        /* \"#utility.yul\":3389:3411   */\n      add\n        /* \"#utility.yul\":3371:3421   */\n      tag_189\n      jump\t// in\n    tag_257:\n        /* \"#utility.yul\":3361:3421   */\n      swap2\n      pop\n        /* \"#utility.yul\":3315:3431   */\n      pop\n        /* \"#utility.yul\":2241:3438   */\n      swap3\n      swap6\n      swap9\n      swap2\n      swap5\n      swap8\n      pop\n      swap3\n      swap6\n      pop\n      jump\t// out\n        /* \"#utility.yul\":3444:3918   */\n    tag_35:\n        /* \"#utility.yul\":3512:3518   */\n      0x00\n        /* \"#utility.yul\":3520:3526   */\n      dup1\n        /* \"#utility.yul\":3569:3571   */\n      0x40\n        /* \"#utility.yul\":3557:3566   */\n      dup4\n        /* \"#utility.yul\":3548:3555   */\n      dup6\n        /* \"#utility.yul\":3544:3567   */\n      sub\n        /* \"#utility.yul\":3540:3572   */\n      slt\n        /* \"#utility.yul\":3537:3656   */\n      iszero\n      tag_259\n      jumpi\n        /* \"#utility.yul\":3575:3654   */\n      tag_260\n      tag_179\n      jump\t// in\n    tag_260:\n        /* \"#utility.yul\":3537:3656   */\n    tag_259:\n        /* \"#utility.yul\":3695:3696   */\n      0x00\n        /* \"#utility.yul\":3720:3773   */\n      tag_261\n        /* \"#utility.yul\":3765:3772   */\n      dup6\n        /* \"#utility.yul\":3756:3762   */\n      dup3\n        /* \"#utility.yul\":3745:3754   */\n      dup7\n        /* \"#utility.yul\":3741:3763   */\n      add\n        /* \"#utility.yul\":3720:3773   */\n      tag_182\n      jump\t// in\n    tag_261:\n        /* \"#utility.yul\":3710:3773   */\n      swap3\n      pop\n        /* \"#utility.yul\":3666:3783   */\n      pop\n        /* \"#utility.yul\":3822:3824   */\n      0x20\n        /* \"#utility.yul\":3848:3901   */\n      tag_262\n        /* \"#utility.yul\":3893:3900   */\n      dup6\n        /* \"#utility.yul\":3884:3890   */\n      dup3\n        /* \"#utility.yul\":3873:3882   */\n      dup7\n        /* \"#utility.yul\":3869:3891   */\n      add\n        /* \"#utility.yul\":3848:3901   */\n      tag_182\n      jump\t// in\n    tag_262:\n        /* \"#utility.yul\":3838:3901   */\n      swap2\n      pop\n        /* \"#utility.yul\":3793:3911   */\n      pop\n        /* \"#utility.yul\":3444:3918   */\n      swap3\n      pop\n      swap3\n      swap1\n      pop\n      jump\t// out\n        /* \"#utility.yul\":3924:4042   */\n    tag_190:\n        /* \"#utility.yul\":4011:4035   */\n      tag_264\n        /* \"#utility.yul\":4029:4034   */\n      dup2\n        /* \"#utility.yul\":4011:4035   */\n      tag_184\n      jump\t// in\n    tag_264:\n        /* \"#utility.yul\":4006:4009   */\n      dup3\n        /* \"#utility.yul\":3999:4036   */\n      mstore\n        /* \"#utility.yul\":3924:4042   */\n      pop\n      pop\n      jump\t// out\n        /* \"#utility.yul\":4048:4490   */\n    tag_44:\n        /* \"#utility.yul\":4197:4201   */\n      0x00\n        /* \"#utility.yul\":4235:4237   */\n      0x60\n        /* \"#utility.yul\":4224:4233   */\n      dup3\n        /* \"#utility.yul\":4220:4238   */\n      add\n        /* \"#utility.yul\":4212:4238   */\n      swap1\n      pop\n        /* \"#utility.yul\":4248:4319   */\n      tag_266\n        /* \"#utility.yul\":4316:4317   */\n      0x00\n        /* \"#utility.yul\":4305:4314   */\n      dup4\n        /* \"#utility.yul\":4301:4318   */\n      add\n        /* \"#utility.yul\":4292:4298   */\n      dup7\n        /* \"#utility.yul\":4248:4319   */\n      tag_177\n      jump\t// in\n    tag_266:\n        /* \"#utility.yul\":4329:4401   */\n      tag_267\n        /* \"#utility.yul\":4397:4399   */\n      0x20\n        /* \"#utility.yul\":4386:4395   */\n      dup4\n        /* \"#utility.yul\":4382:4400   */\n      add\n        /* \"#utility.yul\":4373:4379   */\n      dup6\n        /* \"#utility.yul\":4329:4401   */\n      tag_177\n      jump\t// in\n    tag_267:\n        /* \"#utility.yul\":4411:4483   */\n      tag_268\n        /* \"#utility.yul\":4479:4481   */\n      0x40\n        /* \"#utility.yul\":4468:4477   */\n      dup4\n        /* \"#utility.yul\":4464:4482   */\n      add\n        /* \"#utility.yul\":4455:4461   */\n      dup5\n        /* \"#utility.yul\":4411:4483   */\n      tag_190\n      jump\t// in\n    tag_268:\n        /* \"#utility.yul\":4048:4490   */\n      swap5\n      swap4\n      pop\n      pop\n      pop\n      pop\n      jump\t// out\n        /* \"#utility.yul\":4496:4970   */\n    tag_47:\n        /* \"#utility.yul\":4564:4570   */\n      0x00\n        /* \"#utility.yul\":4572:4578   */\n      dup1\n        /* \"#utility.yul\":4621:4623   */\n      0x40\n        /* \"#utility.yul\":4609:4618   */\n      dup4\n        /* \"#utility.yul\":4600:4607   */\n      dup6\n        /* \"#utility.yul\":4596:4619   */\n      sub\n        /* \"#utility.yul\":4592:4624   */\n      slt\n        /* \"#utility.yul\":4589:4708   */\n      iszero\n      tag_270\n      jumpi\n        /* \"#utility.yul\":4627:4706   */\n      tag_271\n      tag_179\n      jump\t// in\n    tag_271:\n        /* \"#utility.yul\":4589:4708   */\n    tag_270:\n        /* \"#utility.yul\":4747:4748   */\n      0x00\n        /* \"#utility.yul\":4772:4825   */\n      tag_272\n        /* \"#utility.yul\":4817:4824   */\n      dup6\n        /* \"#utility.yul\":4808:4814   */\n      dup3\n        /* \"#utility.yul\":4797:4806   */\n      dup7\n        /* \"#utility.yul\":4793:4815   */\n      add\n        /* \"#utility.yul\":4772:4825   */\n      tag_182\n      jump\t// in\n    tag_272:\n        /* \"#utility.yul\":4762:4825   */\n      swap3\n      pop\n        /* \"#utility.yul\":4718:4835   */\n      pop\n        /* \"#utility.yul\":4874:4876   */\n      0x20\n        /* \"#utility.yul\":4900:4953   */\n      tag_273\n        /* \"#utility.yul\":4945:4952   */\n      dup6\n        /* \"#utility.yul\":4936:4942   */\n      dup3\n        /* \"#utility.yul\":4925:4934   */\n      dup7\n        /* \"#utility.yul\":4921:4943   */\n      add\n        /* \"#utility.yul\":4900:4953   */\n      tag_186\n      jump\t// in\n    tag_273:\n        /* \"#utility.yul\":4890:4953   */\n      swap2\n      pop\n        /* \"#utility.yul\":4845:4963   */\n      pop\n        /* \"#utility.yul\":4496:4970   */\n      swap3\n      pop\n      swap3\n      swap1\n      pop\n      jump\t// out\n        /* \"#utility.yul\":4976:5198   */\n    tag_53:\n        /* \"#utility.yul\":5069:5073   */\n      0x00\n        /* \"#utility.yul\":5107:5109   */\n      0x20\n        /* \"#utility.yul\":5096:5105   */\n      dup3\n        /* \"#utility.yul\":5092:5110   */\n      add\n        /* \"#utility.yul\":5084:5110   */\n      swap1\n      pop\n        /* \"#utility.yul\":5120:5191   */\n      tag_275\n        /* \"#utility.yul\":5188:5189   */\n      0x00\n        /* \"#utility.yul\":5177:5186   */\n      dup4\n        /* \"#utility.yul\":5173:5190   */\n      add\n        /* \"#utility.yul\":5164:5170   */\n      dup5\n        /* \"#utility.yul\":5120:5191   */\n      tag_190\n      jump\t// in\n    tag_275:\n        /* \"#utility.yul\":4976:5198   */\n      swap3\n      swap2\n      pop\n      pop\n      jump\t// out\n        /* \"#utility.yul\":5204:5313   */\n    tag_191:\n        /* \"#utility.yul\":5285:5306   */\n      tag_277\n        /* \"#utility.yul\":5300:5305   */\n      dup2\n        /* \"#utility.yul\":5285:5306   */\n      tag_187\n      jump\t// in\n    tag_277:\n        /* \"#utility.yul\":5280:5283   */\n      dup3\n        /* \"#utility.yul\":5273:5307   */\n      mstore\n        /* \"#utility.yul\":5204:5313   */\n      pop\n      pop\n      jump\t// out\n        /* \"#utility.yul\":5319:6415   */\n    tag_58:\n        /* \"#utility.yul\":5630:5634   */\n      0x00\n        /* \"#utility.yul\":5668:5671   */\n      0x0120\n        /* \"#utility.yul\":5657:5666   */\n      dup3\n        /* \"#utility.yul\":5653:5672   */\n      add\n        /* \"#utility.yul\":5645:5672   */\n      swap1\n      pop\n        /* \"#utility.yul\":5682:5753   */\n      tag_279\n        /* \"#utility.yul\":5750:5751   */\n      0x00\n        /* \"#utility.yul\":5739:5748   */\n      dup4\n        /* \"#utility.yul\":5735:5752   */\n      add\n        /* \"#utility.yul\":5726:5732   */\n      dup13\n        /* \"#utility.yul\":5682:5753   */\n      tag_190\n      jump\t// in\n    tag_279:\n        /* \"#utility.yul\":5763:5835   */\n      tag_280\n        /* \"#utility.yul\":5831:5833   */\n      0x20\n        /* \"#utility.yul\":5820:5829   */\n      dup4\n        /* \"#utility.yul\":5816:5834   */\n      add\n        /* \"#utility.yul\":5807:5813   */\n      dup12\n        /* \"#utility.yul\":5763:5835   */\n      tag_190\n      jump\t// in\n    tag_280:\n        /* \"#utility.yul\":5845:5917   */\n      tag_281\n        /* \"#utility.yul\":5913:5915   */\n      0x40\n        /* \"#utility.yul\":5902:5911   */\n      dup4\n        /* \"#utility.yul\":5898:5916   */\n      add\n        /* \"#utility.yul\":5889:5895   */\n      dup11\n        /* \"#utility.yul\":5845:5917   */\n      tag_190\n      jump\t// in\n    tag_281:\n        /* \"#utility.yul\":5927:5999   */\n      tag_282\n        /* \"#utility.yul\":5995:5997   */\n      0x60\n        /* \"#utility.yul\":5984:5993   */\n      dup4\n        /* \"#utility.yul\":5980:5998   */\n      add\n        /* \"#utility.yul\":5971:5977   */\n      dup10\n        /* \"#utility.yul\":5927:5999   */\n      tag_177\n      jump\t// in\n    tag_282:\n        /* \"#utility.yul\":6009:6082   */\n      tag_283\n        /* \"#utility.yul\":6077:6080   */\n      0x80\n        /* \"#utility.yul\":6066:6075   */\n      dup4\n        /* \"#utility.yul\":6062:6081   */\n      add\n        /* \"#utility.yul\":6053:6059   */\n      dup9\n        /* \"#utility.yul\":6009:6082   */\n      tag_177\n      jump\t// in\n    tag_283:\n        /* \"#utility.yul\":6092:6165   */\n      tag_284\n        /* \"#utility.yul\":6160:6163   */\n      0xa0\n        /* \"#utility.yul\":6149:6158   */\n      dup4\n        /* \"#utility.yul\":6145:6164   */\n      add\n        /* \"#utility.yul\":6136:6142   */\n      dup8\n        /* \"#utility.yul\":6092:6165   */\n      tag_177\n      jump\t// in\n    tag_284:\n        /* \"#utility.yul\":6175:6248   */\n      tag_285\n        /* \"#utility.yul\":6243:6246   */\n      0xc0\n        /* \"#utility.yul\":6232:6241   */\n      dup4\n        /* \"#utility.yul\":6228:6247   */\n      add\n        /* \"#utility.yul\":6219:6225   */\n      dup7\n        /* \"#utility.yul\":6175:6248   */\n      tag_177\n      jump\t// in\n    tag_285:\n        /* \"#utility.yul\":6258:6331   */\n      tag_286\n        /* \"#utility.yul\":6326:6329   */\n      0xe0\n        /* \"#utility.yul\":6315:6324   */\n      dup4\n        /* \"#utility.yul\":6311:6330   */\n      add\n        /* \"#utility.yul\":6302:6308   */\n      dup6\n        /* \"#utility.yul\":6258:6331   */\n      tag_177\n      jump\t// in\n    tag_286:\n        /* \"#utility.yul\":6341:6408   */\n      tag_287\n        /* \"#utility.yul\":6403:6406   */\n      0x0100\n        /* \"#utility.yul\":6392:6401   */\n      dup4\n        /* \"#utility.yul\":6388:6407   */\n      add\n        /* \"#utility.yul\":6379:6385   */\n      dup5\n        /* \"#utility.yul\":6341:6408   */\n      tag_191\n      jump\t// in\n    tag_287:\n        /* \"#utility.yul\":5319:6415   */\n      swap11\n      swap10\n      pop\n      pop\n      pop\n      pop\n      pop\n      pop\n      pop\n      pop\n      pop\n      pop\n      jump\t// out\n        /* \"#utility.yul\":6421:6590   */\n    tag_192:\n        /* \"#utility.yul\":6505:6516   */\n      0x00\n        /* \"#utility.yul\":6539:6545   */\n      dup3\n        /* \"#utility.yul\":6534:6537   */\n      dup3\n        /* \"#utility.yul\":6527:6546   */\n      mstore\n        /* \"#utility.yul\":6579:6583   */\n      0x20\n        /* \"#utility.yul\":6574:6577   */\n      dup3\n        /* \"#utility.yul\":6570:6584   */\n      add\n        /* \"#utility.yul\":6555:6584   */\n      swap1\n      pop\n        /* \"#utility.yul\":6421:6590   */\n      swap3\n      swap2\n      pop\n      pop\n      jump\t// out\n        /* \"#utility.yul\":6596:6760   */\n    tag_193:\n        /* \"#utility.yul\":6736:6752   */\n      0x4c414e3a206e6f74206f776e6572000000000000000000000000000000000000\n        /* \"#utility.yul\":6732:6733   */\n      0x00\n        /* \"#utility.yul\":6724:6730   */\n      dup3\n        /* \"#utility.yul\":6720:6734   */\n      add\n        /* \"#utility.yul\":6713:6753   */\n      mstore\n        /* \"#utility.yul\":6596:6760   */\n      pop\n      jump\t// out\n        /* \"#utility.yul\":6766:7132   */\n    tag_194:\n        /* \"#utility.yul\":6908:6911   */\n      0x00\n        /* \"#utility.yul\":6929:6996   */\n      tag_291\n        /* \"#utility.yul\":6993:6995   */\n      0x0e\n        /* \"#utility.yul\":6988:6991   */\n      dup4\n        /* \"#utility.yul\":6929:6996   */\n      tag_192\n      jump\t// in\n    tag_291:\n        /* \"#utility.yul\":6922:6996   */\n      swap2\n      pop\n        /* \"#utility.yul\":7005:7098   */\n      tag_292\n        /* \"#utility.yul\":7094:7097   */\n      dup3\n        /* \"#utility.yul\":7005:7098   */\n      tag_193\n      jump\t// in\n    tag_292:\n        /* \"#utility.yul\":7123:7125   */\n      0x20\n        /* \"#utility.yul\":7118:7121   */\n      dup3\n        /* \"#utility.yul\":7114:7126   */\n      add\n        /* \"#utility.yul\":7107:7126   */\n      swap1\n      pop\n        /* \"#utility.yul\":6766:7132   */\n      swap2\n      swap1\n      pop\n      jump\t// out\n        /* \"#utility.yul\":7138:7557   */\n    tag_62:\n        /* \"#utility.yul\":7304:7308   */\n      0x00\n        /* \"#utility.yul\":7342:7344   */\n      0x20\n        /* \"#utility.yul\":7331:7340   */\n      dup3\n        /* \"#utility.yul\":7327:7345   */\n      add\n        /* \"#utility.yul\":7319:7345   */\n      swap1\n      pop\n        /* \"#utility.yul\":7391:7400   */\n      dup2\n        /* \"#utility.yul\":7385:7389   */\n      dup2\n        /* \"#utility.yul\":7381:7401   */\n      sub\n        /* \"#utility.yul\":7377:7378   */\n      0x00\n        /* \"#utility.yul\":7366:7375   */\n      dup4\n        /* \"#utility.yul\":7362:7379   */\n      add\n        /* \"#utility.yul\":7355:7402   */\n      mstore\n        /* \"#utility.yul\":7419:7550   */\n      tag_294\n        /* \"#utility.yul\":7545:7549   */\n      dup2\n        /* \"#utility.yul\":7419:7550   */\n      tag_194\n      jump\t// in\n    tag_294:\n        /* \"#utility.yul\":7411:7550   */\n      swap1\n      pop\n        /* \"#utility.yul\":7138:7557   */\n      swap2\n      swap1\n      pop\n      jump\t// out\n        /* \"#utility.yul\":7563:7732   */\n    tag_195:\n        /* \"#utility.yul\":7703:7724   */\n      0x4c414e3a206c6f616e206e6f7420656e64656400000000000000000000000000\n        /* \"#utility.yul\":7699:7700   */\n      0x00\n        /* \"#utility.yul\":7691:7697   */\n      dup3\n        /* \"#utility.yul\":7687:7701   */\n      add\n        /* \"#utility.yul\":7680:7725   */\n      mstore\n        /* \"#utility.yul\":7563:7732   */\n      pop\n      jump\t// out\n        /* \"#utility.yul\":7738:8104   */\n    tag_196:\n        /* \"#utility.yul\":7880:7883   */\n      0x00\n        /* \"#utility.yul\":7901:7968   */\n      tag_297\n        /* \"#utility.yul\":7965:7967   */\n      0x13\n        /* \"#utility.yul\":7960:7963   */\n      dup4\n        /* \"#utility.yul\":7901:7968   */\n      tag_192\n      jump\t// in\n    tag_297:\n        /* \"#utility.yul\":7894:7968   */\n      swap2\n      pop\n        /* \"#utility.yul\":7977:8070   */\n      tag_298\n        /* \"#utility.yul\":8066:8069   */\n      dup3\n        /* \"#utility.yul\":7977:8070   */\n      tag_195\n      jump\t// in\n    tag_298:\n        /* \"#utility.yul\":8095:8097   */\n      0x20\n        /* \"#utility.yul\":8090:8093   */\n      dup3\n        /* \"#utility.yul\":8086:8098   */\n      add\n        /* \"#utility.yul\":8079:8098   */\n      swap1\n      pop\n        /* \"#utility.yul\":7738:8104   */\n      swap2\n      swap1\n      pop\n      jump\t// out\n        /* \"#utility.yul\":8110:8529   */\n    tag_68:\n        /* \"#utility.yul\":8276:8280   */\n      0x00\n        /* \"#utility.yul\":8314:8316   */\n      0x20\n        /* \"#utility.yul\":8303:8312   */\n      dup3\n        /* \"#utility.yul\":8299:8317   */\n      add\n        /* \"#utility.yul\":8291:8317   */\n      swap1\n      pop\n        /* \"#utility.yul\":8363:8372   */\n      dup2\n        /* \"#utility.yul\":8357:8361   */\n      dup2\n        /* \"#utility.yul\":8353:8373   */\n      sub\n        /* \"#utility.yul\":8349:8350   */\n      0x00\n        /* \"#utility.yul\":8338:8347   */\n      dup4\n        /* \"#utility.yul\":8334:8351   */\n      add\n        /* \"#utility.yul\":8327:8374   */\n      mstore\n        /* \"#utility.yul\":8391:8522   */\n      tag_300\n        /* \"#utility.yul\":8517:8521   */\n      dup2\n        /* \"#utility.yul\":8391:8522   */\n      tag_196\n      jump\t// in\n    tag_300:\n        /* \"#utility.yul\":8383:8522   */\n      swap1\n      pop\n        /* \"#utility.yul\":8110:8529   */\n      swap2\n      swap1\n      pop\n      jump\t// out\n        /* \"#utility.yul\":8535:8707   */\n    tag_197:\n        /* \"#utility.yul\":8675:8699   */\n      0x4c414e3a206e6f74206c61746573742062696464657200000000000000000000\n        /* \"#utility.yul\":8671:8672   */\n      0x00\n        /* \"#utility.yul\":8663:8669   */\n      dup3\n        /* \"#utility.yul\":8659:8673   */\n      add\n        /* \"#utility.yul\":8652:8700   */\n      mstore\n        /* \"#utility.yul\":8535:8707   */\n      pop\n      jump\t// out\n        /* \"#utility.yul\":8713:9079   */\n    tag_198:\n        /* \"#utility.yul\":8855:8858   */\n      0x00\n        /* \"#utility.yul\":8876:8943   */\n      tag_303\n        /* \"#utility.yul\":8940:8942   */\n      0x16\n        /* \"#utility.yul\":8935:8938   */\n      dup4\n        /* \"#utility.yul\":8876:8943   */\n      tag_192\n      jump\t// in\n    tag_303:\n        /* \"#utility.yul\":8869:8943   */\n      swap2\n      pop\n        /* \"#utility.yul\":8952:9045   */\n      tag_304\n        /* \"#utility.yul\":9041:9044   */\n      dup3\n        /* \"#utility.yul\":8952:9045   */\n      tag_197\n      jump\t// in\n    tag_304:\n        /* \"#utility.yul\":9070:9072   */\n      0x20\n        /* \"#utility.yul\":9065:9068   */\n      dup3\n        /* \"#utility.yul\":9061:9073   */\n      add\n        /* \"#utility.yul\":9054:9073   */\n      swap1\n      pop\n        /* \"#utility.yul\":8713:9079   */\n      swap2\n      swap1\n      pop\n      jump\t// out\n        /* \"#utility.yul\":9085:9504   */\n    tag_71:\n        /* \"#utility.yul\":9251:9255   */\n      0x00\n        /* \"#utility.yul\":9289:9291   */\n      0x20\n        /* \"#utility.yul\":9278:9287   */\n      dup3\n        /* \"#utility.yul\":9274:9292   */\n      add\n        /* \"#utility.yul\":9266:9292   */\n      swap1\n      pop\n        /* \"#utility.yul\":9338:9347   */\n      dup2\n        /* \"#utility.yul\":9332:9336   */\n      dup2\n        /* \"#utility.yul\":9328:9348   */\n      sub\n        /* \"#utility.yul\":9324:9325   */\n      0x00\n        /* \"#utility.yul\":9313:9322   */\n      dup4\n        /* \"#utility.yul\":9309:9326   */\n      add\n        /* \"#utility.yul\":9302:9349   */\n      mstore\n        /* \"#utility.yul\":9366:9497   */\n      tag_306\n        /* \"#utility.yul\":9492:9496   */\n      dup2\n        /* \"#utility.yul\":9366:9497   */\n      tag_198\n      jump\t// in\n    tag_306:\n        /* \"#utility.yul\":9358:9497   */\n      swap1\n      pop\n        /* \"#utility.yul\":9085:9504   */\n      swap2\n      swap1\n      pop\n      jump\t// out\n        /* \"#utility.yul\":9510:9952   */\n    tag_73:\n        /* \"#utility.yul\":9659:9663   */\n      0x00\n        /* \"#utility.yul\":9697:9699   */\n      0x60\n        /* \"#utility.yul\":9686:9695   */\n      dup3\n        /* \"#utility.yul\":9682:9700   */\n      add\n        /* \"#utility.yul\":9674:9700   */\n      swap1\n      pop\n        /* \"#utility.yul\":9710:9781   */\n      tag_308\n        /* \"#utility.yul\":9778:9779   */\n      0x00\n        /* \"#utility.yul\":9767:9776   */\n      dup4\n        /* \"#utility.yul\":9763:9780   */\n      add\n        /* \"#utility.yul\":9754:9760   */\n      dup7\n        /* \"#utility.yul\":9710:9781   */\n      tag_190\n      jump\t// in\n    tag_308:\n        /* \"#utility.yul\":9791:9863   */\n      tag_309\n        /* \"#utility.yul\":9859:9861   */\n      0x20\n        /* \"#utility.yul\":9848:9857   */\n      dup4\n        /* \"#utility.yul\":9844:9862   */\n      add\n        /* \"#utility.yul\":9835:9841   */\n      dup6\n        /* \"#utility.yul\":9791:9863   */\n      tag_190\n      jump\t// in\n    tag_309:\n        /* \"#utility.yul\":9873:9945   */\n      tag_310\n        /* \"#utility.yul\":9941:9943   */\n      0x40\n        /* \"#utility.yul\":9930:9939   */\n      dup4\n        /* \"#utility.yul\":9926:9944   */\n      add\n        /* \"#utility.yul\":9917:9923   */\n      dup5\n        /* \"#utility.yul\":9873:9945   */\n      tag_177\n      jump\t// in\n    tag_310:\n        /* \"#utility.yul\":9510:9952   */\n      swap5\n      swap4\n      pop\n      pop\n      pop\n      pop\n      jump\t// out\n        /* \"#utility.yul\":9958:10131   */\n    tag_199:\n        /* \"#utility.yul\":10098:10123   */\n      0x4c414e3a2073746172742074696d6520696e2070617374000000000000000000\n        /* \"#utility.yul\":10094:10095   */\n      0x00\n        /* \"#utility.yul\":10086:10092   */\n      dup3\n        /* \"#utility.yul\":10082:10096   */\n      add\n        /* \"#utility.yul\":10075:10124   */\n      mstore\n        /* \"#utility.yul\":9958:10131   */\n      pop\n      jump\t// out\n        /* \"#utility.yul\":10137:10503   */\n    tag_200:\n        /* \"#utility.yul\":10279:10282   */\n      0x00\n        /* \"#utility.yul\":10300:10367   */\n      tag_313\n        /* \"#utility.yul\":10364:10366   */\n      0x17\n        /* \"#utility.yul\":10359:10362   */\n      dup4\n        /* \"#utility.yul\":10300:10367   */\n      tag_192\n      jump\t// in\n    tag_313:\n        /* \"#utility.yul\":10293:10367   */\n      swap2\n      pop\n        /* \"#utility.yul\":10376:10469   */\n      tag_314\n        /* \"#utility.yul\":10465:10468   */\n      dup3\n        /* \"#utility.yul\":10376:10469   */\n      tag_199\n      jump\t// in\n    tag_314:\n        /* \"#utility.yul\":10494:10496   */\n      0x20\n        /* \"#utility.yul\":10489:10492   */\n      dup3\n        /* \"#utility.yul\":10485:10497   */\n      add\n        /* \"#utility.yul\":10478:10497   */\n      swap1\n      pop\n        /* \"#utility.yul\":10137:10503   */\n      swap2\n      swap1\n      pop\n      jump\t// out\n        /* \"#utility.yul\":10509:10928   */\n    tag_80:\n        /* \"#utility.yul\":10675:10679   */\n      0x00\n        /* \"#utility.yul\":10713:10715   */\n      0x20\n        /* \"#utility.yul\":10702:10711   */\n      dup3\n        /* \"#utility.yul\":10698:10716   */\n      add\n        /* \"#utility.yul\":10690:10716   */\n      swap1\n      pop\n        /* \"#utility.yul\":10762:10771   */\n      dup2\n        /* \"#utility.yul\":10756:10760   */\n      dup2\n        /* \"#utility.yul\":10752:10772   */\n      sub\n        /* \"#utility.yul\":10748:10749   */\n      0x00\n        /* \"#utility.yul\":10737:10746   */\n      dup4\n        /* \"#utility.yul\":10733:10750   */\n      add\n        /* \"#utility.yul\":10726:10773   */\n      mstore\n        /* \"#utility.yul\":10790:10921   */\n      tag_316\n        /* \"#utility.yul\":10916:10920   */\n      dup2\n        /* \"#utility.yul\":10790:10921   */\n      tag_200\n      jump\t// in\n    tag_316:\n        /* \"#utility.yul\":10782:10921   */\n      swap1\n      pop\n        /* \"#utility.yul\":10509:10928   */\n      swap2\n      swap1\n      pop\n      jump\t// out\n        /* \"#utility.yul\":10934:11104   */\n    tag_201:\n        /* \"#utility.yul\":11074:11096   */\n      0x4c414e3a20737461727420616674657220656e64000000000000000000000000\n        /* \"#utility.yul\":11070:11071   */\n      0x00\n        /* \"#utility.yul\":11062:11068   */\n      dup3\n        /* \"#utility.yul\":11058:11072   */\n      add\n        /* \"#utility.yul\":11051:11097   */\n      mstore\n        /* \"#utility.yul\":10934:11104   */\n      pop\n      jump\t// out\n        /* \"#utility.yul\":11110:11476   */\n    tag_202:\n        /* \"#utility.yul\":11252:11255   */\n      0x00\n        /* \"#utility.yul\":11273:11340   */\n      tag_319\n        /* \"#utility.yul\":11337:11339   */\n      0x14\n        /* \"#utility.yul\":11332:11335   */\n      dup4\n        /* \"#utility.yul\":11273:11340   */\n      tag_192\n      jump\t// in\n    tag_319:\n        /* \"#utility.yul\":11266:11340   */\n      swap2\n      pop\n        /* \"#utility.yul\":11349:11442   */\n      tag_320\n        /* \"#utility.yul\":11438:11441   */\n      dup3\n        /* \"#utility.yul\":11349:11442   */\n      tag_201\n      jump\t// in\n    tag_320:\n        /* \"#utility.yul\":11467:11469   */\n      0x20\n        /* \"#utility.yul\":11462:11465   */\n      dup3\n        /* \"#utility.yul\":11458:11470   */\n      add\n        /* \"#utility.yul\":11451:11470   */\n      swap1\n      pop\n        /* \"#utility.yul\":11110:11476   */\n      swap2\n      swap1\n      pop\n      jump\t// out\n        /* \"#utility.yul\":11482:11901   */\n    tag_83:\n        /* \"#utility.yul\":11648:11652   */\n      0x00\n        /* \"#utility.yul\":11686:11688   */\n      0x20\n        /* \"#utility.yul\":11675:11684   */\n      dup3\n        /* \"#utility.yul\":11671:11689   */\n      add\n        /* \"#utility.yul\":11663:11689   */\n      swap1\n      pop\n        /* \"#utility.yul\":11735:11744   */\n      dup2\n        /* \"#utility.yul\":11729:11733   */\n      dup2\n        /* \"#utility.yul\":11725:11745   */\n      sub\n        /* \"#utility.yul\":11721:11722   */\n      0x00\n        /* \"#utility.yul\":11710:11719   */\n      dup4\n        /* \"#utility.yul\":11706:11723   */\n      add\n        /* \"#utility.yul\":11699:11746   */\n      mstore\n        /* \"#utility.yul\":11763:11894   */\n      tag_322\n        /* \"#utility.yul\":11889:11893   */\n      dup2\n        /* \"#utility.yul\":11763:11894   */\n      tag_202\n      jump\t// in\n    tag_322:\n        /* \"#utility.yul\":11755:11894   */\n      swap1\n      pop\n        /* \"#utility.yul\":11482:11901   */\n      swap2\n      swap1\n      pop\n      jump\t// out\n        /* \"#utility.yul\":11907:12239   */\n    tag_85:\n        /* \"#utility.yul\":12028:12032   */\n      0x00\n        /* \"#utility.yul\":12066:12068   */\n      0x40\n        /* \"#utility.yul\":12055:12064   */\n      dup3\n        /* \"#utility.yul\":12051:12069   */\n      add\n        /* \"#utility.yul\":12043:12069   */\n      swap1\n      pop\n        /* \"#utility.yul\":12079:12150   */\n      tag_324\n        /* \"#utility.yul\":12147:12148   */\n      0x00\n        /* \"#utility.yul\":12136:12145   */\n      dup4\n        /* \"#utility.yul\":12132:12149   */\n      add\n        /* \"#utility.yul\":12123:12129   */\n      dup6\n        /* \"#utility.yul\":12079:12150   */\n      tag_190\n      jump\t// in\n    tag_324:\n        /* \"#utility.yul\":12160:12232   */\n      tag_325\n        /* \"#utility.yul\":12228:12230   */\n      0x20\n        /* \"#utility.yul\":12217:12226   */\n      dup4\n        /* \"#utility.yul\":12213:12231   */\n      add\n        /* \"#utility.yul\":12204:12210   */\n      dup5\n        /* \"#utility.yul\":12160:12232   */\n      tag_177\n      jump\t// in\n    tag_325:\n        /* \"#utility.yul\":11907:12239   */\n      swap4\n      swap3\n      pop\n      pop\n      pop\n      jump\t// out\n        /* \"#utility.yul\":12245:12425   */\n    tag_203:\n        /* \"#utility.yul\":12293:12370   */\n      0x4e487b7100000000000000000000000000000000000000000000000000000000\n        /* \"#utility.yul\":12290:12291   */\n      0x00\n        /* \"#utility.yul\":12283:12371   */\n      mstore\n        /* \"#utility.yul\":12390:12394   */\n      0x11\n        /* \"#utility.yul\":12387:12388   */\n      0x04\n        /* \"#utility.yul\":12380:12395   */\n      mstore\n        /* \"#utility.yul\":12414:12418   */\n      0x24\n        /* \"#utility.yul\":12411:12412   */\n      0x00\n        /* \"#utility.yul\":12404:12419   */\n      revert\n        /* \"#utility.yul\":12431:12664   */\n    tag_87:\n        /* \"#utility.yul\":12470:12473   */\n      0x00\n        /* \"#utility.yul\":12493:12517   */\n      tag_328\n        /* \"#utility.yul\":12511:12516   */\n      dup3\n        /* \"#utility.yul\":12493:12517   */\n      tag_176\n      jump\t// in\n    tag_328:\n        /* \"#utility.yul\":12484:12517   */\n      swap2\n      pop\n        /* \"#utility.yul\":12539:12605   */\n      0xffffffffffffffffffffffffffffffffffffffffffffffffffffffffffffffff\n        /* \"#utility.yul\":12532:12537   */\n      dup3\n        /* \"#utility.yul\":12529:12606   */\n      sub\n        /* \"#utility.yul\":12526:12629   */\n      tag_329\n      jumpi\n        /* \"#utility.yul\":12609:12627   */\n      tag_330\n      tag_203\n      jump\t// in\n    tag_330:\n        /* \"#utility.yul\":12526:12629   */\n    tag_329:\n        /* \"#utility.yul\":12656:12657   */\n      0x01\n        /* \"#utility.yul\":12649:12654   */\n      dup3\n        /* \"#utility.yul\":12645:12658   */\n      add\n        /* \"#utility.yul\":12638:12658   */\n      swap1\n      pop\n        /* \"#utility.yul\":12431:12664   */\n      swap2\n      swap1\n      pop\n      jump\t// out\n        /* \"#utility.yul\":12670:12840   */\n    tag_204:\n        /* \"#utility.yul\":12810:12832   */\n      0x4c414e3a20616c72656164792073746172746564000000000000000000000000\n        /* \"#utility.yul\":12806:12807   */\n      0x00\n        /* \"#utility.yul\":12798:12804   */\n      dup3\n        /* \"#utility.yul\":12794:12808   */\n      add\n        /* \"#utility.yul\":12787:12833   */\n      mstore\n        /* \"#utility.yul\":12670:12840   */\n      pop\n      jump\t// out\n        /* \"#utility.yul\":12846:13212   */\n    tag_205:\n        /* \"#utility.yul\":12988:12991   */\n      0x00\n        /* \"#utility.yul\":13009:13076   */\n      tag_333\n        /* \"#utility.yul\":13073:13075   */\n      0x14\n        /* \"#utility.yul\":13068:13071   */\n      dup4\n        /* \"#utility.yul\":13009:13076   */\n      tag_192\n      jump\t// in\n    tag_333:\n        /* \"#utility.yul\":13002:13076   */\n      swap2\n      pop\n        /* \"#utility.yul\":13085:13178   */\n      tag_334\n        /* \"#utility.yul\":13174:13177   */\n      dup3\n        /* \"#utility.yul\":13085:13178   */\n      tag_204\n      jump\t// in\n    tag_334:\n        /* \"#utility.yul\":13203:13205   */\n      0x20\n        /* \"#utility.yul\":13198:13201   */\n      dup3\n        /* \"#utility.yul\":13194:13206   */\n      add\n        /* \"#utility.yul\":13187:13206   */\n      swap1\n      pop\n        /* \"#utility.yul\":12846:13212   */\n      swap2\n      swap1\n      pop\n      jump\t// out\n        /* \"#utility.yul\":13218:13637   */\n    tag_94:\n        /* \"#utility.yul\":13384:13388   */\n      0x00\n        /* \"#utility.yul\":13422:13424   */\n      0x20\n        /* \"#utility.yul\":13411:13420   */\n      dup3\n        /* \"#utility.yul\":13407:13425   */\n      add\n        /* \"#utility.yul\":13399:13425   */\n      swap1\n      pop\n        /* \"#utility.yul\":13471:13480   */\n      dup2\n        /* \"#utility.yul\":13465:13469   */\n      dup2\n        /* \"#utility.yul\":13461:13481   */\n      sub\n        /* \"#utility.yul\":13457:13458   */\n      0x00\n        /* \"#utility.yul\":13446:13455   */\n      dup4\n        /* \"#utility.yul\":13442:13459   */\n      add\n        /* \"#utility.yul\":13435:13482   */\n      mstore\n        /* \"#utility.yul\":13499:13630   */\n      tag_336\n        /* \"#utility.yul\":13625:13629   */\n      dup2\n        /* \"#utility.yul\":13499:13630   */\n      tag_205\n      jump\t// in\n    tag_336:\n        /* \"#utility.yul\":13491:13630   */\n      swap1\n      pop\n        /* \"#utility.yul\":13218:13637   */\n      swap2\n      swap1\n      pop\n      jump\t// out\n        /* \"#utility.yul\":13643:13809   */\n    tag_206:\n        /* \"#utility.yul\":13783:13801   */\n      0x4c414e3a206e6f74207374617274656400000000000000000000000000000000\n        /* \"#utility.yul\":13779:13780   */\n      0x00\n        /* \"#utility.yul\":13771:13777   */\n      dup3\n        /* \"#utility.yul\":13767:13781   */\n      add\n        /* \"#utility.yul\":13760:13802   */\n      mstore\n        /* \"#utility.yul\":13643:13809   */\n      pop\n      jump\t// out\n        /* \"#utility.yul\":13815:14181   */\n    tag_207:\n        /* \"#utility.yul\":13957:13960   */\n      0x00\n        /* \"#utility.yul\":13978:14045   */\n      tag_339\n        /* \"#utility.yul\":14042:14044   */\n      0x10\n        /* \"#utility.yul\":14037:14040   */\n      dup4\n        /* \"#utility.yul\":13978:14045   */\n      tag_192\n      jump\t// in\n    tag_339:\n        /* \"#utility.yul\":13971:14045   */\n      swap2\n      pop\n        /* \"#utility.yul\":14054:14147   */\n      tag_340\n        /* \"#utility.yul\":14143:14146   */\n      dup3\n        /* \"#utility.yul\":14054:14147   */\n      tag_206\n      jump\t// in\n    tag_340:\n        /* \"#utility.yul\":14172:14174   */\n      0x20\n        /* \"#utility.yul\":14167:14170   */\n      dup3\n        /* \"#utility.yul\":14163:14175   */\n      add\n        /* \"#utility.yul\":14156:14175   */\n      swap1\n      pop\n        /* \"#utility.yul\":13815:14181   */\n      swap2\n      swap1\n      pop\n      jump\t// out\n        /* \"#utility.yul\":14187:14606   */\n    tag_113:\n        /* \"#utility.yul\":14353:14357   */\n      0x00\n        /* \"#utility.yul\":14391:14393   */\n      0x20\n        /* \"#utility.yul\":14380:14389   */\n      dup3\n        /* \"#utility.yul\":14376:14394   */\n      add\n        /* \"#utility.yul\":14368:14394   */\n      swap1\n      pop\n        /* \"#utility.yul\":14440:14449   */\n      dup2\n        /* \"#utility.yul\":14434:14438   */\n      dup2\n        /* \"#utility.yul\":14430:14450   */\n      sub\n        /* \"#utility.yul\":14426:14427   */\n      0x00\n        /* \"#utility.yul\":14415:14424   */\n      dup4\n        /* \"#utility.yul\":14411:14428   */\n      add\n        /* \"#utility.yul\":14404:14451   */\n      mstore\n        /* \"#utility.yul\":14468:14599   */\n      tag_342\n        /* \"#utility.yul\":14594:14598   */\n      dup2\n        /* \"#utility.yul\":14468:14599   */\n      tag_207\n      jump\t// in\n    tag_342:\n        /* \"#utility.yul\":14460:14599   */\n      swap1\n      pop\n        /* \"#utility.yul\":14187:14606   */\n      swap2\n      swap1\n      pop\n      jump\t// out\n        /* \"#utility.yul\":14612:14780   */\n    tag_208:\n        /* \"#utility.yul\":14752:14772   */\n      0x4c414e3a20616c726561647920656e6465640000000000000000000000000000\n        /* \"#utility.yul\":14748:14749   */\n      0x00\n        /* \"#utility.yul\":14740:14746   */\n      dup3\n        /* \"#utility.yul\":14736:14750   */\n      add\n        /* \"#utility.yul\":14729:14773   */\n      mstore\n        /* \"#utility.yul\":14612:14780   */\n      pop\n      jump\t// out\n        /* \"#utility.yul\":14786:15152   */\n    tag_209:\n        /* \"#utility.yul\":14928:14931   */\n      0x00\n        /* \"#utility.yul\":14949:15016   */\n      tag_345\n        /* \"#utility.yul\":15013:15015   */\n      0x12\n        /* \"#utility.yul\":15008:15011   */\n      dup4\n        /* \"#utility.yul\":14949:15016   */\n      tag_192\n      jump\t// in\n    tag_345:\n        /* \"#utility.yul\":14942:15016   */\n      swap2\n      pop\n        /* \"#utility.yul\":15025:15118   */\n      tag_346\n        /* \"#utility.yul\":15114:15117   */\n      dup3\n        /* \"#utility.yul\":15025:15118   */\n      tag_208\n      jump\t// in\n    tag_346:\n        /* \"#utility.yul\":15143:15145   */\n      0x20\n        /* \"#utility.yul\":15138:15141   */\n      dup3\n        /* \"#utility.yul\":15134:15146   */\n      add\n        /* \"#utility.yul\":15127:15146   */\n      swap1\n      pop\n        /* \"#utility.yul\":14786:15152   */\n      swap2\n      swap1\n      pop\n      jump\t// out\n        /* \"#utility.yul\":15158:15577   */\n    tag_117:\n        /* \"#utility.yul\":15324:15328   */\n      0x00\n        /* \"#utility.yul\":15362:15364   */\n      0x20\n        /* \"#utility.yul\":15351:15360   */\n      dup3\n        /* \"#utility.yul\":15347:15365   */\n      add\n        /* \"#utility.yul\":15339:15365   */\n      swap1\n      pop\n        /* \"#utility.yul\":15411:15420   */\n      dup2\n        /* \"#utility.yul\":15405:15409   */\n      dup2\n        /* \"#utility.yul\":15401:15421   */\n      sub\n        /* \"#utility.yul\":15397:15398   */\n      0x00\n        /* \"#utility.yul\":15386:15395   */\n      dup4\n        /* \"#utility.yul\":15382:15399   */\n      add\n        /* \"#utility.yul\":15375:15422   */\n      mstore\n        /* \"#utility.yul\":15439:15570   */\n      tag_348\n        /* \"#utility.yul\":15565:15569   */\n      dup2\n        /* \"#utility.yul\":15439:15570   */\n      tag_209\n      jump\t// in\n    tag_348:\n        /* \"#utility.yul\":15431:15570   */\n      swap1\n      pop\n        /* \"#utility.yul\":15158:15577   */\n      swap2\n      swap1\n      pop\n      jump\t// out\n        /* \"#utility.yul\":15583:15774   */\n    tag_119:\n        /* \"#utility.yul\":15623:15626   */\n      0x00\n        /* \"#utility.yul\":15642:15662   */\n      tag_350\n        /* \"#utility.yul\":15660:15661   */\n      dup3\n        /* \"#utility.yul\":15642:15662   */\n      tag_176\n      jump\t// in\n    tag_350:\n        /* \"#utility.yul\":15637:15662   */\n      swap2\n      pop\n        /* \"#utility.yul\":15676:15696   */\n      tag_351\n        /* \"#utility.yul\":15694:15695   */\n      dup4\n        /* \"#utility.yul\":15676:15696   */\n      tag_176\n      jump\t// in\n    tag_351:\n        /* \"#utility.yul\":15671:15696   */\n      swap3\n      pop\n        /* \"#utility.yul\":15719:15720   */\n      dup3\n        /* \"#utility.yul\":15716:15717   */\n      dup3\n        /* \"#utility.yul\":15712:15721   */\n      add\n        /* \"#utility.yul\":15705:15721   */\n      swap1\n      pop\n        /* \"#utility.yul\":15740:15743   */\n      dup1\n        /* \"#utility.yul\":15737:15738   */\n      dup3\n        /* \"#utility.yul\":15734:15744   */\n      gt\n        /* \"#utility.yul\":15731:15767   */\n      iszero\n      tag_352\n      jumpi\n        /* \"#utility.yul\":15747:15765   */\n      tag_353\n      tag_203\n      jump\t// in\n    tag_353:\n        /* \"#utility.yul\":15731:15767   */\n    tag_352:\n        /* \"#utility.yul\":15583:15774   */\n      swap3\n      swap2\n      pop\n      pop\n      jump\t// out\n        /* \"#utility.yul\":15780:15949   */\n    tag_210:\n        /* \"#utility.yul\":15920:15941   */\n      0x4c414e3a20626964206e6f742068696768657200000000000000000000000000\n        /* \"#utility.yul\":15916:15917   */\n      0x00\n        /* \"#utility.yul\":15908:15914   */\n      dup3\n        /* \"#utility.yul\":15904:15918   */\n      add\n        /* \"#utility.yul\":15897:15942   */\n      mstore\n        /* \"#utility.yul\":15780:15949   */\n      pop\n      jump\t// out\n        /* \"#utility.yul\":15955:16321   */\n    tag_211:\n        /* \"#utility.yul\":16097:16100   */\n      0x00\n        /* \"#utility.yul\":16118:16185   */\n      tag_356\n        /* \"#utility.yul\":16182:16184   */\n      0x13\n        /* \"#utility.yul\":16177:16180   */\n      dup4\n        /* \"#utility.yul\":16118:16185   */\n      tag_192\n      jump\t// in\n    tag_356:\n        /* \"#utility.yul\":16111:16185   */\n      swap2\n      pop\n        /* \"#utility.yul\":16194:16287   */\n      tag_357\n        /* \"#utility.yul\":16283:16286   */\n      dup3\n        /* \"#utility.yul\":16194:16287   */\n      tag_210\n      jump\t// in\n    tag_357:\n        /* \"#utility.yul\":16312:16314   */\n      0x20\n        /* \"#utility.yul\":16307:16310   */\n      dup3\n        /* \"#utility.yul\":16303:16315   */\n      add\n        /* \"#utility.yul\":16296:16315   */\n      swap1\n      pop\n        /* \"#utility.yul\":15955:16321   */\n      swap2\n      swap1\n      pop\n      jump\t// out\n        /* \"#utility.yul\":16327:16746   */\n    tag_124:\n        /* \"#utility.yul\":16493:16497   */\n      0x00\n        /* \"#utility.yul\":16531:16533   */\n      0x20\n        /* \"#utility.yul\":16520:16529   */\n      dup3\n        /* \"#utility.yul\":16516:16534   */\n      add\n        /* \"#utility.yul\":16508:16534   */\n      swap1\n      pop\n        /* \"#utility.yul\":16580:16589   */\n      dup2\n        /* \"#utility.yul\":16574:16578   */\n      dup2\n        /* \"#utility.yul\":16570:16590   */\n      sub\n        /* \"#utility.yul\":16566:16567   */\n      0x00\n        /* \"#utility.yul\":16555:16564   */\n      dup4\n        /* \"#utility.yul\":16551:16568   */\n      add\n        /* \"#utility.yul\":16544:16591   */\n      mstore\n        /* \"#utility.yul\":16608:16739   */\n      tag_359\n        /* \"#utility.yul\":16734:16738   */\n      dup2\n        /* \"#utility.yul\":16608:16739   */\n      tag_211\n      jump\t// in\n    tag_359:\n        /* \"#utility.yul\":16600:16739   */\n      swap1\n      pop\n        /* \"#utility.yul\":16327:16746   */\n      swap2\n      swap1\n      pop\n      jump\t// out\n        /* \"#utility.yul\":16752:16889   */\n    tag_212:\n        /* \"#utility.yul\":16806:16811   */\n      0x00\n        /* \"#utility.yul\":16837:16843   */\n      dup2\n        /* \"#utility.yul\":16831:16844   */\n      mload\n        /* \"#utility.yul\":16822:16844   */\n      swap1\n      pop\n        /* \"#utility.yul\":16853:16883   */\n      tag_361\n        /* \"#utility.yul\":16877:16882   */\n      dup2\n        /* \"#utility.yul\":16853:16883   */\n      tag_188\n      jump\t// in\n    tag_361:\n        /* \"#utility.yul\":16752:16889   */\n      swap3\n      swap2\n      pop\n      pop\n      jump\t// out\n        /* \"#utility.yul\":16895:17240   */\n    tag_129:\n        /* \"#utility.yul\":16962:16968   */\n      0x00\n        /* \"#utility.yul\":17011:17013   */\n      0x20\n        /* \"#utility.yul\":16999:17008   */\n      dup3\n        /* \"#utility.yul\":16990:16997   */\n      dup5\n        /* \"#utility.yul\":16986:17009   */\n      sub\n        /* \"#utility.yul\":16982:17014   */\n      slt\n        /* \"#utility.yul\":16979:17098   */\n      iszero\n      tag_363\n      jumpi\n        /* \"#utility.yul\":17017:17096   */\n      tag_364\n      tag_179\n      jump\t// in\n    tag_364:\n        /* \"#utility.yul\":16979:17098   */\n    tag_363:\n        /* \"#utility.yul\":17137:17138   */\n      0x00\n        /* \"#utility.yul\":17162:17223   */\n      tag_365\n        /* \"#utility.yul\":17215:17222   */\n      dup5\n        /* \"#utility.yul\":17206:17212   */\n      dup3\n        /* \"#utility.yul\":17195:17204   */\n      dup6\n        /* \"#utility.yul\":17191:17213   */\n      add\n        /* \"#utility.yul\":17162:17223   */\n      tag_212\n      jump\t// in\n    tag_365:\n        /* \"#utility.yul\":17152:17223   */\n      swap2\n      pop\n        /* \"#utility.yul\":17108:17233   */\n      pop\n        /* \"#utility.yul\":16895:17240   */\n      swap3\n      swap2\n      pop\n      pop\n      jump\t// out\n        /* \"#utility.yul\":17246:17440   */\n    tag_131:\n        /* \"#utility.yul\":17286:17290   */\n      0x00\n        /* \"#utility.yul\":17306:17326   */\n      tag_367\n        /* \"#utility.yul\":17324:17325   */\n      dup3\n        /* \"#utility.yul\":17306:17326   */\n      tag_176\n      jump\t// in\n    tag_367:\n        /* \"#utility.yul\":17301:17326   */\n      swap2\n      pop\n        /* \"#utility.yul\":17340:17360   */\n      tag_368\n        /* \"#utility.yul\":17358:17359   */\n      dup4\n        /* \"#utility.yul\":17340:17360   */\n      tag_176\n      jump\t// in\n    tag_368:\n        /* \"#utility.yul\":17335:17360   */\n      swap3\n      pop\n        /* \"#utility.yul\":17384:17385   */\n      dup3\n        /* \"#utility.yul\":17381:17382   */\n      dup3\n        /* \"#utility.yul\":17377:17386   */\n      sub\n        /* \"#utility.yul\":17369:17386   */\n      swap1\n      pop\n        /* \"#utility.yul\":17408:17409   */\n      dup2\n        /* \"#utility.yul\":17402:17406   */\n      dup2\n        /* \"#utility.yul\":17399:17410   */\n      gt\n        /* \"#utility.yul\":17396:17433   */\n      iszero\n      tag_369\n      jumpi\n        /* \"#utility.yul\":17413:17431   */\n      tag_370\n      tag_203\n      jump\t// in\n    tag_370:\n        /* \"#utility.yul\":17396:17433   */\n    tag_369:\n        /* \"#utility.yul\":17246:17440   */\n      swap3\n      swap2\n      pop\n      pop\n      jump\t// out\n        /* \"#utility.yul\":17446:17622   */\n    tag_213:\n        /* \"#utility.yul\":17586:17614   */\n      0x4c414e3a204e6f7420746865206c617465737420626964646572000000000000\n        /* \"#utility.yul\":17582:17583   */\n      0x00\n        /* \"#utility.yul\":17574:17580   */\n      dup3\n        /* \"#utility.yul\":17570:17584   */\n      add\n        /* \"#utility.yul\":17563:17615   */\n      mstore\n        /* \"#utility.yul\":17446:17622   */\n      pop\n      jump\t// out\n        /* \"#utility.yul\":17628:17994   */\n    tag_214:\n        /* \"#utility.yul\":17770:17773   */\n      0x00\n        /* \"#utility.yul\":17791:17858   */\n      tag_373\n        /* \"#utility.yul\":17855:17857   */\n      0x1a\n        /* \"#utility.yul\":17850:17853   */\n      dup4\n        /* \"#utility.yul\":17791:17858   */\n      tag_192\n      jump\t// in\n    tag_373:\n        /* \"#utility.yul\":17784:17858   */\n      swap2\n      pop\n        /* \"#utility.yul\":17867:17960   */\n      tag_374\n        /* \"#utility.yul\":17956:17959   */\n      dup3\n        /* \"#utility.yul\":17867:17960   */\n      tag_213\n      jump\t// in\n    tag_374:\n        /* \"#utility.yul\":17985:17987   */\n      0x20\n        /* \"#utility.yul\":17980:17983   */\n      dup3\n        /* \"#utility.yul\":17976:17988   */\n      add\n        /* \"#utility.yul\":17969:17988   */\n      swap1\n      pop\n        /* \"#utility.yul\":17628:17994   */\n      swap2\n      swap1\n      pop\n      jump\t// out\n        /* \"#utility.yul\":18000:18419   */\n    tag_158:\n        /* \"#utility.yul\":18166:18170   */\n      0x00\n        /* \"#utility.yul\":18204:18206   */\n      0x20\n        /* \"#utility.yul\":18193:18202   */\n      dup3\n        /* \"#utility.yul\":18189:18207   */\n      add\n        /* \"#utility.yul\":18181:18207   */\n      swap1\n      pop\n        /* \"#utility.yul\":18253:18262   */\n      dup2\n        /* \"#utility.yul\":18247:18251   */\n      dup2\n        /* \"#utility.yul\":18243:18263   */\n      sub\n        /* \"#utility.yul\":18239:18240   */\n      0x00\n        /* \"#utility.yul\":18228:18237   */\n      dup4\n        /* \"#utility.yul\":18224:18241   */\n      add\n        /* \"#utility.yul\":18217:18264   */\n      mstore\n        /* \"#utility.yul\":18281:18412   */\n      tag_376\n        /* \"#utility.yul\":18407:18411   */\n      dup2\n        /* \"#utility.yul\":18281:18412   */\n      tag_214\n      jump\t// in\n    tag_376:\n        /* \"#utility.yul\":18273:18412   */\n      swap1\n      pop\n        /* \"#utility.yul\":18000:18419   */\n      swap2\n      swap1\n      pop\n      jump\t// out\n        /* \"#utility.yul\":18425:18773   */\n    tag_170:\n        /* \"#utility.yul\":18465:18472   */\n      0x00\n        /* \"#utility.yul\":18488:18508   */\n      tag_378\n        /* \"#utility.yul\":18506:18507   */\n      dup3\n        /* \"#utility.yul\":18488:18508   */\n      tag_176\n      jump\t// in\n    tag_378:\n        /* \"#utility.yul\":18483:18508   */\n      swap2\n      pop\n        /* \"#utility.yul\":18522:18542   */\n      tag_379\n        /* \"#utility.yul\":18540:18541   */\n      dup4\n        /* \"#utility.yul\":18522:18542   */\n      tag_176\n      jump\t// in\n    tag_379:\n        /* \"#utility.yul\":18517:18542   */\n      swap3\n      pop\n        /* \"#utility.yul\":18710:18711   */\n      dup2\n        /* \"#utility.yul\":18642:18708   */\n      0xffffffffffffffffffffffffffffffffffffffffffffffffffffffffffffffff\n        /* \"#utility.yul\":18638:18712   */\n      div\n        /* \"#utility.yul\":18635:18636   */\n      dup4\n        /* \"#utility.yul\":18632:18713   */\n      gt\n        /* \"#utility.yul\":18627:18628   */\n      dup3\n        /* \"#utility.yul\":18620:18629   */\n      iszero\n        /* \"#utility.yul\":18613:18630   */\n      iszero\n        /* \"#utility.yul\":18609:18714   */\n      and\n        /* \"#utility.yul\":18606:18737   */\n      iszero\n      tag_380\n      jumpi\n        /* \"#utility.yul\":18717:18735   */\n      tag_381\n      tag_203\n      jump\t// in\n    tag_381:\n        /* \"#utility.yul\":18606:18737   */\n    tag_380:\n        /* \"#utility.yul\":18765:18766   */\n      dup3\n        /* \"#utility.yul\":18762:18763   */\n      dup3\n        /* \"#utility.yul\":18758:18767   */\n      mul\n        /* \"#utility.yul\":18747:18767   */\n      swap1\n      pop\n        /* \"#utility.yul\":18425:18773   */\n      swap3\n      swap2\n      pop\n      pop\n      jump\t// out\n        /* \"#utility.yul\":18779:18959   */\n    tag_215:\n        /* \"#utility.yul\":18827:18904   */\n      0x4e487b7100000000000000000000000000000000000000000000000000000000\n        /* \"#utility.yul\":18824:18825   */\n      0x00\n        /* \"#utility.yul\":18817:18905   */\n      mstore\n        /* \"#utility.yul\":18924:18928   */\n      0x12\n        /* \"#utility.yul\":18921:18922   */\n      0x04\n        /* \"#utility.yul\":18914:18929   */\n      mstore\n        /* \"#utility.yul\":18948:18952   */\n      0x24\n        /* \"#utility.yul\":18945:18946   */\n      0x00\n        /* \"#utility.yul\":18938:18953   */\n      revert\n        /* \"#utility.yul\":18965:19150   */\n    tag_172:\n        /* \"#utility.yul\":19005:19006   */\n      0x00\n        /* \"#utility.yul\":19022:19042   */\n      tag_384\n        /* \"#utility.yul\":19040:19041   */\n      dup3\n        /* \"#utility.yul\":19022:19042   */\n      tag_176\n      jump\t// in\n    tag_384:\n        /* \"#utility.yul\":19017:19042   */\n      swap2\n      pop\n        /* \"#utility.yul\":19056:19076   */\n      tag_385\n        /* \"#utility.yul\":19074:19075   */\n      dup4\n        /* \"#utility.yul\":19056:19076   */\n      tag_176\n      jump\t// in\n    tag_385:\n        /* \"#utility.yul\":19051:19076   */\n      swap3\n      pop\n        /* \"#utility.yul\":19095:19096   */\n      dup3\n        /* \"#utility.yul\":19085:19120   */\n      tag_386\n      jumpi\n        /* \"#utility.yul\":19100:19118   */\n      tag_387\n      tag_215\n      jump\t// in\n    tag_387:\n        /* \"#utility.yul\":19085:19120   */\n    tag_386:\n        /* \"#utility.yul\":19142:19143   */\n      dup3\n        /* \"#utility.yul\":19139:19140   */\n      dup3\n        /* \"#utility.yul\":19135:19144   */\n      div\n        /* \"#utility.yul\":19130:19144   */\n      swap1\n      pop\n        /* \"#utility.yul\":18965:19150   */\n      swap3\n      swap2\n      pop\n      pop\n      jump\t// out\n\n    auxdata: 0xa2646970667358221220417c2ecc4748e98339ba0a68d7dcfbec9e0694c07385659f8feafa26c9611df064736f6c63430008100033\n}\n",
				"bytecode": {
					"linkReferences": {},
					"object": "608060405234801561001057600080fd5b50612930806100206000396000f3fe608060405234801561001057600080fd5b50600436106100a95760003560e01c8063598647f811610071578063598647f81461013c5780637870860b146101585780637b3c4baa146101745780638f769f3a146101a65780639bea77da146101c2578063e1ec3c68146101f2576100a9565b806306661abd146100ae57806318de4f9d146100cc5780632613c5d6146100e857806340e58ee514610104578063415f124014610120575b600080fd5b6100b661022a565b6040516100c39190611f48565b60405180910390f35b6100e660048036038101906100e19190611f94565b610230565b005b61010260048036038101906100fd9190612057565b610629565b005b61011e60048036038101906101199190611f94565b6108fb565b005b61013a60048036038101906101359190611f94565b610b9e565b005b610156600480360381019061015191906120f9565b610eed565b005b610172600480360381019061016d9190611f94565b611378565b005b61018e600480360381019061018991906120f9565b611744565b60405161019d93929190612148565b60405180910390f35b6101c060048036038101906101bb919061217f565b61179b565b005b6101dc60048036038101906101d791906120f9565b611aa5565b6040516101e991906121bf565b60405180910390f35b61020c60048036038101906102079190611f94565b611af3565b604051610221999897969594939291906121e9565b60405180910390f35b60005481565b803373ffffffffffffffffffffffffffffffffffffffff166001600083815260200190815260200160002060000160009054906101000a900473ffffffffffffffffffffffffffffffffffffffff1673ffffffffffffffffffffffffffffffffffffffff16146102d5576040517f08c379a00000000000000000000000000000000000000000000000000000000081526004016102cc906122d3565b60405180910390fd5b600060016000848152602001908152602001600020604051806101200160405290816000820160009054906101000a900473ffffffffffffffffffffffffffffffffffffffff1673ffffffffffffffffffffffffffffffffffffffff1673ffffffffffffffffffffffffffffffffffffffff1681526020016001820160009054906101000a900473ffffffffffffffffffffffffffffffffffffffff1673ffffffffffffffffffffffffffffffffffffffff1673ffffffffffffffffffffffffffffffffffffffff1681526020016002820160009054906101000a900473ffffffffffffffffffffffffffffffffffffffff1673ffffffffffffffffffffffffffffffffffffffff1673ffffffffffffffffffffffffffffffffffffffff16815260200160038201548152602001600482015481526020016005820154815260200160068201548152602001600782015481526020016008820160009054906101000a900460ff161515151581525050905061045083611bae565b61048f576040517f08c379a00000000000000000000000000000000000000000000000000000000081526004016104869061233f565b60405180910390fd5b60006002600085815260200190815260200160002060008360e00151815260200190815260200160002060405180606001604052908160008201548152602001600182015481526020016002820160009054906101000a900473ffffffffffffffffffffffffffffffffffffffff1673ffffffffffffffffffffffffffffffffffffffff1673ffffffffffffffffffffffffffffffffffffffff168152505090503373ffffffffffffffffffffffffffffffffffffffff16816040015173ffffffffffffffffffffffffffffffffffffffff16146105a2576040517f08c379a0000000000000000000000000000000000000000000000000000000008152600401610599906123ab565b60405180910390fd5b6000826040015190508073ffffffffffffffffffffffffffffffffffffffff166342842e0e30846040015186606001516040518463ffffffff1660e01b81526004016105f0939291906123cb565b600060405180830381600087803b15801561060a57600080fd5b505af115801561061e573d6000803e3d6000fd5b505050505050505050565b4284101561066c576040517f08c379a00000000000000000000000000000000000000000000000000000000081526004016106639061244e565b60405180910390fd5b8383116106ae576040517f08c379a00000000000000000000000000000000000000000000000000000000081526004016106a5906124ba565b60405180910390fd5b6040518061012001604052803373ffffffffffffffffffffffffffffffffffffffff1681526020018873ffffffffffffffffffffffffffffffffffffffff1681526020018773ffffffffffffffffffffffffffffffffffffffff16815260200186815260200185815260200184815260200183815260200160008152602001821515815250600160008054815260200190815260200160002060008201518160000160006101000a81548173ffffffffffffffffffffffffffffffffffffffff021916908373ffffffffffffffffffffffffffffffffffffffff16021790555060208201518160010160006101000a81548173ffffffffffffffffffffffffffffffffffffffff021916908373ffffffffffffffffffffffffffffffffffffffff16021790555060408201518160020160006101000a81548173ffffffffffffffffffffffffffffffffffffffff021916908373ffffffffffffffffffffffffffffffffffffffff160217905550606082015181600301556080820151816004015560a0820151816005015560c0820151816006015560e082015181600701556101008201518160080160006101000a81548160ff0219169083151502179055509050504260026000805481526020019081526020016000206000808152602001908152602001600020600001819055506000547fef8b2952c43462575e82711d0cc91169720a4589a9fa533d173e022437f5405e87876040516108d39291906124da565b60405180910390a26000808154809291906108ed90612532565b919050555050505050505050565b803373ffffffffffffffffffffffffffffffffffffffff166001600083815260200190815260200160002060000160009054906101000a900473ffffffffffffffffffffffffffffffffffffffff1673ffffffffffffffffffffffffffffffffffffffff16146109a0576040517f08c379a0000000000000000000000000000000000000000000000000000000008152600401610997906122d3565b60405180910390fd5b600060016000848152602001908152602001600020604051806101200160405290816000820160009054906101000a900473ffffffffffffffffffffffffffffffffffffffff1673ffffffffffffffffffffffffffffffffffffffff1673ffffffffffffffffffffffffffffffffffffffff1681526020016001820160009054906101000a900473ffffffffffffffffffffffffffffffffffffffff1673ffffffffffffffffffffffffffffffffffffffff1673ffffffffffffffffffffffffffffffffffffffff1681526020016002820160009054906101000a900473ffffffffffffffffffffffffffffffffffffffff1673ffffffffffffffffffffffffffffffffffffffff1673ffffffffffffffffffffffffffffffffffffffff16815260200160038201548152602001600482015481526020016005820154815260200160068201548152602001600782015481526020016008820160009054906101000a900460ff161515151581525050905042816080015111610b58576040517f08c379a0000000000000000000000000000000000000000000000000000000008152600401610b4f906125c6565b60405180910390fd5b610b60611e9f565b90507ffe785ef891129b084b1c5a30e4d88eb97c97822c024cc25d5f9d806b897512e083604051610b919190611f48565b60405180910390a1505050565b600060016000838152602001908152602001600020604051806101200160405290816000820160009054906101000a900473ffffffffffffffffffffffffffffffffffffffff1673ffffffffffffffffffffffffffffffffffffffff1673ffffffffffffffffffffffffffffffffffffffff1681526020016001820160009054906101000a900473ffffffffffffffffffffffffffffffffffffffff1673ffffffffffffffffffffffffffffffffffffffff1673ffffffffffffffffffffffffffffffffffffffff1681526020016002820160009054906101000a900473ffffffffffffffffffffffffffffffffffffffff1673ffffffffffffffffffffffffffffffffffffffff1673ffffffffffffffffffffffffffffffffffffffff16815260200160038201548152602001600482015481526020016005820154815260200160068201548152602001600782015481526020016008820160009054906101000a900460ff1615151515815250509050610d1982611bae565b610d58576040517f08c379a0000000000000000000000000000000000000000000000000000000008152600401610d4f9061233f565b60405180910390fd5b60006002600084815260200190815260200160002060008360e00151815260200190815260200160002060405180606001604052908160008201548152602001600182015481526020016002820160009054906101000a900473ffffffffffffffffffffffffffffffffffffffff1673ffffffffffffffffffffffffffffffffffffffff1673ffffffffffffffffffffffffffffffffffffffff168152505090503373ffffffffffffffffffffffffffffffffffffffff16816040015173ffffffffffffffffffffffffffffffffffffffff1614610e6b576040517f08c379a0000000000000000000000000000000000000000000000000000000008152600401610e62906123ab565b60405180910390fd5b6000826040015190508073ffffffffffffffffffffffffffffffffffffffff166342842e0e303386606001516040518463ffffffff1660e01b8152600401610eb5939291906123cb565b600060405180830381600087803b158015610ecf57600080fd5b505af1158015610ee3573d6000803e3d6000fd5b5050505050505050565b610ef682611bd1565b610f35576040517f08c379a0000000000000000000000000000000000000000000000000000000008152600401610f2c90612632565b60405180910390fd5b610f3e82611bae565b15610f7e576040517f08c379a0000000000000000000000000000000000000000000000000000000008152600401610f759061269e565b60405180910390fd5b600060016000848152602001908152602001600020604051806101200160405290816000820160009054906101000a900473ffffffffffffffffffffffffffffffffffffffff1673ffffffffffffffffffffffffffffffffffffffff1673ffffffffffffffffffffffffffffffffffffffff1681526020016001820160009054906101000a900473ffffffffffffffffffffffffffffffffffffffff1673ffffffffffffffffffffffffffffffffffffffff1673ffffffffffffffffffffffffffffffffffffffff1681526020016002820160009054906101000a900473ffffffffffffffffffffffffffffffffffffffff1673ffffffffffffffffffffffffffffffffffffffff1673ffffffffffffffffffffffffffffffffffffffff16815260200160038201548152602001600482015481526020016005820154815260200160068201548152602001600782015481526020016008820160009054906101000a900460ff1615151515815250509050600060018260e0015161110391906126be565b9050808260e0018181525050600061111a85611bf3565b905080841161115e576040517f08c379a00000000000000000000000000000000000000000000000000000000081526004016111559061273e565b60405180910390fd5b826020015173ffffffffffffffffffffffffffffffffffffffff166323b872dd3360026000898152602001908152602001600020600086815260200190815260200160002060020160009054906101000a900473ffffffffffffffffffffffffffffffffffffffff16846040518463ffffffff1660e01b81526004016111e6939291906123cb565b6020604051808303816000875af1158015611205573d6000803e3d6000fd5b505050506040513d601f19601f820116820180604052508101906112299190612773565b50826020015173ffffffffffffffffffffffffffffffffffffffff166323b872dd338560000151848861125c91906127a0565b6040518463ffffffff1660e01b815260040161127a939291906123cb565b6020604051808303816000875af1158015611299573d6000803e3d6000fd5b505050506040513d601f19601f820116820180604052508101906112bd9190612773565b5060405180606001604052804281526020018581526020013373ffffffffffffffffffffffffffffffffffffffff16815250600260008781526020019081526020016000206000848152602001908152602001600020600082015181600001556020820151816001015560408201518160020160006101000a81548173ffffffffffffffffffffffffffffffffffffffff021916908373ffffffffffffffffffffffffffffffffffffffff1602179055509050505050505050565b803373ffffffffffffffffffffffffffffffffffffffff166001600083815260200190815260200160002060000160009054906101000a900473ffffffffffffffffffffffffffffffffffffffff1673ffffffffffffffffffffffffffffffffffffffff161461141d576040517f08c379a0000000000000000000000000000000000000000000000000000000008152600401611414906122d3565b60405180910390fd5b600060016000848152602001908152602001600020604051806101200160405290816000820160009054906101000a900473ffffffffffffffffffffffffffffffffffffffff1673ffffffffffffffffffffffffffffffffffffffff1673ffffffffffffffffffffffffffffffffffffffff1681526020016001820160009054906101000a900473ffffffffffffffffffffffffffffffffffffffff1673ffffffffffffffffffffffffffffffffffffffff1673ffffffffffffffffffffffffffffffffffffffff1681526020016002820160009054906101000a900473ffffffffffffffffffffffffffffffffffffffff1673ffffffffffffffffffffffffffffffffffffffff1673ffffffffffffffffffffffffffffffffffffffff16815260200160038201548152602001600482015481526020016005820154815260200160068201548152602001600782015481526020016008820160009054906101000a900460ff161515151581525050905060006002600085815260200190815260200160002060008360e00151815260200190815260200160002060405180606001604052908160008201548152602001600182015481526020016002820160009054906101000a900473ffffffffffffffffffffffffffffffffffffffff1673ffffffffffffffffffffffffffffffffffffffff1673ffffffffffffffffffffffffffffffffffffffff16815250509050816020015173ffffffffffffffffffffffffffffffffffffffff166323b872dd33836040015161165f88611bf3565b6040518463ffffffff1660e01b815260040161167d939291906123cb565b6020604051808303816000875af115801561169c573d6000803e3d6000fd5b505050506040513d601f19601f820116820180604052508101906116c09190612773565b506000826040015190508073ffffffffffffffffffffffffffffffffffffffff166342842e0e303386606001516040518463ffffffff1660e01b815260040161170b939291906123cb565b600060405180830381600087803b15801561172557600080fd5b505af1158015611739573d6000803e3d6000fd5b505050505050505050565b6002602052816000526040600020602052806000526040600020600091509150508060000154908060010154908060020160009054906101000a900473ffffffffffffffffffffffffffffffffffffffff16905083565b6117a482611bd1565b6117e3576040517f08c379a00000000000000000000000000000000000000000000000000000000081526004016117da90612632565b60405180910390fd5b6117ec82611bae565b1561182c576040517f08c379a00000000000000000000000000000000000000000000000000000000081526004016118239061269e565b60405180910390fd5b600060016000848152602001908152602001600020604051806101200160405290816000820160009054906101000a900473ffffffffffffffffffffffffffffffffffffffff1673ffffffffffffffffffffffffffffffffffffffff1673ffffffffffffffffffffffffffffffffffffffff1681526020016001820160009054906101000a900473ffffffffffffffffffffffffffffffffffffffff1673ffffffffffffffffffffffffffffffffffffffff1673ffffffffffffffffffffffffffffffffffffffff1681526020016002820160009054906101000a900473ffffffffffffffffffffffffffffffffffffffff1673ffffffffffffffffffffffffffffffffffffffff1673ffffffffffffffffffffffffffffffffffffffff16815260200160038201548152602001600482015481526020016005820154815260200160068201548152602001600782015481526020016008820160009054906101000a900460ff161515151581525050905060006002600085815260200190815260200160002060008360e00151815260200190815260200160002090503373ffffffffffffffffffffffffffffffffffffffff168160020160009054906101000a900473ffffffffffffffffffffffffffffffffffffffff1673ffffffffffffffffffffffffffffffffffffffff1614611a5c576040517f08c379a0000000000000000000000000000000000000000000000000000000008152600401611a5390612820565b60405180910390fd5b828160020160006101000a81548173ffffffffffffffffffffffffffffffffffffffff021916908373ffffffffffffffffffffffffffffffffffffffff16021790555050505050565b60036020528160005260406000208181548110611ac157600080fd5b906000526020600020016000915091509054906101000a900473ffffffffffffffffffffffffffffffffffffffff1681565b60016020528060005260406000206000915090508060000160009054906101000a900473ffffffffffffffffffffffffffffffffffffffff16908060010160009054906101000a900473ffffffffffffffffffffffffffffffffffffffff16908060020160009054906101000a900473ffffffffffffffffffffffffffffffffffffffff16908060030154908060040154908060050154908060060154908060070154908060080160009054906101000a900460ff16905089565b600042600160008481526020019081526020016000206005015411159050919050565b6000426001600084815260200190815260200160002060040154109050919050565b60008060016000848152602001908152602001600020604051806101200160405290816000820160009054906101000a900473ffffffffffffffffffffffffffffffffffffffff1673ffffffffffffffffffffffffffffffffffffffff1673ffffffffffffffffffffffffffffffffffffffff1681526020016001820160009054906101000a900473ffffffffffffffffffffffffffffffffffffffff1673ffffffffffffffffffffffffffffffffffffffff1673ffffffffffffffffffffffffffffffffffffffff1681526020016002820160009054906101000a900473ffffffffffffffffffffffffffffffffffffffff1673ffffffffffffffffffffffffffffffffffffffff1673ffffffffffffffffffffffffffffffffffffffff16815260200160038201548152602001600482015481526020016005820154815260200160068201548152602001600782015481526020016008820160009054906101000a900460ff161515151581525050905060006002600085815260200190815260200160002060008360e00151815260200190815260200160002060405180606001604052908160008201548152602001600182015481526020016002820160009054906101000a900473ffffffffffffffffffffffffffffffffffffffff1673ffffffffffffffffffffffffffffffffffffffff1673ffffffffffffffffffffffffffffffffffffffff168152505090506000611e1285611bae565b15611e32578260a001518260000151611e2b91906127a0565b9050611e45565b428260000151611e4291906127a0565b90505b6301e1338081670de0b6b3a76400008560c001518560200151611e689190612840565b611e7291906128c9565b611e7c9190612840565b611e8691906128c9565b8260200151611e9591906126be565b9350505050919050565b604051806101200160405280600073ffffffffffffffffffffffffffffffffffffffff168152602001600073ffffffffffffffffffffffffffffffffffffffff168152602001600073ffffffffffffffffffffffffffffffffffffffff16815260200160008152602001600081526020016000815260200160008152602001600081526020016000151581525090565b6000819050919050565b611f4281611f2f565b82525050565b6000602082019050611f5d6000830184611f39565b92915050565b600080fd5b611f7181611f2f565b8114611f7c57600080fd5b50565b600081359050611f8e81611f68565b92915050565b600060208284031215611faa57611fa9611f63565b5b6000611fb884828501611f7f565b91505092915050565b600073ffffffffffffffffffffffffffffffffffffffff82169050919050565b6000611fec82611fc1565b9050919050565b611ffc81611fe1565b811461200757600080fd5b50565b60008135905061201981611ff3565b92915050565b60008115159050919050565b6120348161201f565b811461203f57600080fd5b50565b6000813590506120518161202b565b92915050565b600080600080600080600060e0888a03121561207657612075611f63565b5b60006120848a828b0161200a565b97505060206120958a828b0161200a565b96505060406120a68a828b01611f7f565b95505060606120b78a828b01611f7f565b94505060806120c88a828b01611f7f565b93505060a06120d98a828b01611f7f565b92505060c06120ea8a828b01612042565b91505092959891949750929550565b600080604083850312156121105761210f611f63565b5b600061211e85828601611f7f565b925050602061212f85828601611f7f565b9150509250929050565b61214281611fe1565b82525050565b600060608201905061215d6000830186611f39565b61216a6020830185611f39565b6121776040830184612139565b949350505050565b6000806040838503121561219657612195611f63565b5b60006121a485828601611f7f565b92505060206121b58582860161200a565b9150509250929050565b60006020820190506121d46000830184612139565b92915050565b6121e38161201f565b82525050565b6000610120820190506121ff600083018c612139565b61220c602083018b612139565b612219604083018a612139565b6122266060830189611f39565b6122336080830188611f39565b61224060a0830187611f39565b61224d60c0830186611f39565b61225a60e0830185611f39565b6122686101008301846121da565b9a9950505050505050505050565b600082825260208201905092915050565b7f4c414e3a206e6f74206f776e6572000000000000000000000000000000000000600082015250565b60006122bd600e83612276565b91506122c882612287565b602082019050919050565b600060208201905081810360008301526122ec816122b0565b9050919050565b7f4c414e3a206c6f616e206e6f7420656e64656400000000000000000000000000600082015250565b6000612329601383612276565b9150612334826122f3565b602082019050919050565b600060208201905081810360008301526123588161231c565b9050919050565b7f4c414e3a206e6f74206c61746573742062696464657200000000000000000000600082015250565b6000612395601683612276565b91506123a08261235f565b602082019050919050565b600060208201905081810360008301526123c481612388565b9050919050565b60006060820190506123e06000830186612139565b6123ed6020830185612139565b6123fa6040830184611f39565b949350505050565b7f4c414e3a2073746172742074696d6520696e2070617374000000000000000000600082015250565b6000612438601783612276565b915061244382612402565b602082019050919050565b600060208201905081810360008301526124678161242b565b9050919050565b7f4c414e3a20737461727420616674657220656e64000000000000000000000000600082015250565b60006124a4601483612276565b91506124af8261246e565b602082019050919050565b600060208201905081810360008301526124d381612497565b9050919050565b60006040820190506124ef6000830185612139565b6124fc6020830184611f39565b9392505050565b7f4e487b7100000000000000000000000000000000000000000000000000000000600052601160045260246000fd5b600061253d82611f2f565b91507fffffffffffffffffffffffffffffffffffffffffffffffffffffffffffffffff820361256f5761256e612503565b5b600182019050919050565b7f4c414e3a20616c72656164792073746172746564000000000000000000000000600082015250565b60006125b0601483612276565b91506125bb8261257a565b602082019050919050565b600060208201905081810360008301526125df816125a3565b9050919050565b7f4c414e3a206e6f74207374617274656400000000000000000000000000000000600082015250565b600061261c601083612276565b9150612627826125e6565b602082019050919050565b6000602082019050818103600083015261264b8161260f565b9050919050565b7f4c414e3a20616c726561647920656e6465640000000000000000000000000000600082015250565b6000612688601283612276565b915061269382612652565b602082019050919050565b600060208201905081810360008301526126b78161267b565b9050919050565b60006126c982611f2f565b91506126d483611f2f565b92508282019050808211156126ec576126eb612503565b5b92915050565b7f4c414e3a20626964206e6f742068696768657200000000000000000000000000600082015250565b6000612728601383612276565b9150612733826126f2565b602082019050919050565b600060208201905081810360008301526127578161271b565b9050919050565b60008151905061276d8161202b565b92915050565b60006020828403121561278957612788611f63565b5b60006127978482850161275e565b91505092915050565b60006127ab82611f2f565b91506127b683611f2f565b92508282039050818111156127ce576127cd612503565b5b92915050565b7f4c414e3a204e6f7420746865206c617465737420626964646572000000000000600082015250565b600061280a601a83612276565b9150612815826127d4565b602082019050919050565b60006020820190508181036000830152612839816127fd565b9050919050565b600061284b82611f2f565b915061285683611f2f565b9250817fffffffffffffffffffffffffffffffffffffffffffffffffffffffffffffffff048311821515161561288f5761288e612503565b5b828202905092915050565b7f4e487b7100000000000000000000000000000000000000000000000000000000600052601260045260246000fd5b60006128d482611f2f565b91506128df83611f2f565b9250826128ef576128ee61289a565b5b82820490509291505056fea2646970667358221220417c2ecc4748e98339ba0a68d7dcfbec9e0694c07385659f8feafa26c9611df064736f6c63430008100033",
					"opcodes": "PUSH1 0x80 PUSH1 0x40 MSTORE CALLVALUE DUP1 ISZERO PUSH2 0x10 JUMPI PUSH1 0x0 DUP1 REVERT JUMPDEST POP PUSH2 0x2930 DUP1 PUSH2 0x20 PUSH1 0x0 CODECOPY PUSH1 0x0 RETURN INVALID PUSH1 0x80 PUSH1 0x40 MSTORE CALLVALUE DUP1 ISZERO PUSH2 0x10 JUMPI PUSH1 0x0 DUP1 REVERT JUMPDEST POP PUSH1 0x4 CALLDATASIZE LT PUSH2 0xA9 JUMPI PUSH1 0x0 CALLDATALOAD PUSH1 0xE0 SHR DUP1 PUSH4 0x598647F8 GT PUSH2 0x71 JUMPI DUP1 PUSH4 0x598647F8 EQ PUSH2 0x13C JUMPI DUP1 PUSH4 0x7870860B EQ PUSH2 0x158 JUMPI DUP1 PUSH4 0x7B3C4BAA EQ PUSH2 0x174 JUMPI DUP1 PUSH4 0x8F769F3A EQ PUSH2 0x1A6 JUMPI DUP1 PUSH4 0x9BEA77DA EQ PUSH2 0x1C2 JUMPI DUP1 PUSH4 0xE1EC3C68 EQ PUSH2 0x1F2 JUMPI PUSH2 0xA9 JUMP JUMPDEST DUP1 PUSH4 0x6661ABD EQ PUSH2 0xAE JUMPI DUP1 PUSH4 0x18DE4F9D EQ PUSH2 0xCC JUMPI DUP1 PUSH4 0x2613C5D6 EQ PUSH2 0xE8 JUMPI DUP1 PUSH4 0x40E58EE5 EQ PUSH2 0x104 JUMPI DUP1 PUSH4 0x415F1240 EQ PUSH2 0x120 JUMPI JUMPDEST PUSH1 0x0 DUP1 REVERT JUMPDEST PUSH2 0xB6 PUSH2 0x22A JUMP JUMPDEST PUSH1 0x40 MLOAD PUSH2 0xC3 SWAP2 SWAP1 PUSH2 0x1F48 JUMP JUMPDEST PUSH1 0x40 MLOAD DUP1 SWAP2 SUB SWAP1 RETURN JUMPDEST PUSH2 0xE6 PUSH1 0x4 DUP1 CALLDATASIZE SUB DUP2 ADD SWAP1 PUSH2 0xE1 SWAP2 SWAP1 PUSH2 0x1F94 JUMP JUMPDEST PUSH2 0x230 JUMP JUMPDEST STOP JUMPDEST PUSH2 0x102 PUSH1 0x4 DUP1 CALLDATASIZE SUB DUP2 ADD SWAP1 PUSH2 0xFD SWAP2 SWAP1 PUSH2 0x2057 JUMP JUMPDEST PUSH2 0x629 JUMP JUMPDEST STOP JUMPDEST PUSH2 0x11E PUSH1 0x4 DUP1 CALLDATASIZE SUB DUP2 ADD SWAP1 PUSH2 0x119 SWAP2 SWAP1 PUSH2 0x1F94 JUMP JUMPDEST PUSH2 0x8FB JUMP JUMPDEST STOP JUMPDEST PUSH2 0x13A PUSH1 0x4 DUP1 CALLDATASIZE SUB DUP2 ADD SWAP1 PUSH2 0x135 SWAP2 SWAP1 PUSH2 0x1F94 JUMP JUMPDEST PUSH2 0xB9E JUMP JUMPDEST STOP JUMPDEST PUSH2 0x156 PUSH1 0x4 DUP1 CALLDATASIZE SUB DUP2 ADD SWAP1 PUSH2 0x151 SWAP2 SWAP1 PUSH2 0x20F9 JUMP JUMPDEST PUSH2 0xEED JUMP JUMPDEST STOP JUMPDEST PUSH2 0x172 PUSH1 0x4 DUP1 CALLDATASIZE SUB DUP2 ADD SWAP1 PUSH2 0x16D SWAP2 SWAP1 PUSH2 0x1F94 JUMP JUMPDEST PUSH2 0x1378 JUMP JUMPDEST STOP JUMPDEST PUSH2 0x18E PUSH1 0x4 DUP1 CALLDATASIZE SUB DUP2 ADD SWAP1 PUSH2 0x189 SWAP2 SWAP1 PUSH2 0x20F9 JUMP JUMPDEST PUSH2 0x1744 JUMP JUMPDEST PUSH1 0x40 MLOAD PUSH2 0x19D SWAP4 SWAP3 SWAP2 SWAP1 PUSH2 0x2148 JUMP JUMPDEST PUSH1 0x40 MLOAD DUP1 SWAP2 SUB SWAP1 RETURN JUMPDEST PUSH2 0x1C0 PUSH1 0x4 DUP1 CALLDATASIZE SUB DUP2 ADD SWAP1 PUSH2 0x1BB SWAP2 SWAP1 PUSH2 0x217F JUMP JUMPDEST PUSH2 0x179B JUMP JUMPDEST STOP JUMPDEST PUSH2 0x1DC PUSH1 0x4 DUP1 CALLDATASIZE SUB DUP2 ADD SWAP1 PUSH2 0x1D7 SWAP2 SWAP1 PUSH2 0x20F9 JUMP JUMPDEST PUSH2 0x1AA5 JUMP JUMPDEST PUSH1 0x40 MLOAD PUSH2 0x1E9 SWAP2 SWAP1 PUSH2 0x21BF JUMP JUMPDEST PUSH1 0x40 MLOAD DUP1 SWAP2 SUB SWAP1 RETURN JUMPDEST PUSH2 0x20C PUSH1 0x4 DUP1 CALLDATASIZE SUB DUP2 ADD SWAP1 PUSH2 0x207 SWAP2 SWAP1 PUSH2 0x1F94 JUMP JUMPDEST PUSH2 0x1AF3 JUMP JUMPDEST PUSH1 0x40 MLOAD PUSH2 0x221 SWAP10 SWAP9 SWAP8 SWAP7 SWAP6 SWAP5 SWAP4 SWAP3 SWAP2 SWAP1 PUSH2 0x21E9 JUMP JUMPDEST PUSH1 0x40 MLOAD DUP1 SWAP2 SUB SWAP1 RETURN JUMPDEST PUSH1 0x0 SLOAD DUP2 JUMP JUMPDEST DUP1 CALLER PUSH20 0xFFFFFFFFFFFFFFFFFFFFFFFFFFFFFFFFFFFFFFFF AND PUSH1 0x1 PUSH1 0x0 DUP4 DUP2 MSTORE PUSH1 0x20 ADD SWAP1 DUP2 MSTORE PUSH1 0x20 ADD PUSH1 0x0 KECCAK256 PUSH1 0x0 ADD PUSH1 0x0 SWAP1 SLOAD SWAP1 PUSH2 0x100 EXP SWAP1 DIV PUSH20 0xFFFFFFFFFFFFFFFFFFFFFFFFFFFFFFFFFFFFFFFF AND PUSH20 0xFFFFFFFFFFFFFFFFFFFFFFFFFFFFFFFFFFFFFFFF AND EQ PUSH2 0x2D5 JUMPI PUSH1 0x40 MLOAD PUSH32 0x8C379A000000000000000000000000000000000000000000000000000000000 DUP2 MSTORE PUSH1 0x4 ADD PUSH2 0x2CC SWAP1 PUSH2 0x22D3 JUMP JUMPDEST PUSH1 0x40 MLOAD DUP1 SWAP2 SUB SWAP1 REVERT JUMPDEST PUSH1 0x0 PUSH1 0x1 PUSH1 0x0 DUP5 DUP2 MSTORE PUSH1 0x20 ADD SWAP1 DUP2 MSTORE PUSH1 0x20 ADD PUSH1 0x0 KECCAK256 PUSH1 0x40 MLOAD DUP1 PUSH2 0x120 ADD PUSH1 0x40 MSTORE SWAP1 DUP2 PUSH1 0x0 DUP3 ADD PUSH1 0x0 SWAP1 SLOAD SWAP1 PUSH2 0x100 EXP SWAP1 DIV PUSH20 0xFFFFFFFFFFFFFFFFFFFFFFFFFFFFFFFFFFFFFFFF AND PUSH20 0xFFFFFFFFFFFFFFFFFFFFFFFFFFFFFFFFFFFFFFFF AND PUSH20 0xFFFFFFFFFFFFFFFFFFFFFFFFFFFFFFFFFFFFFFFF AND DUP2 MSTORE PUSH1 0x20 ADD PUSH1 0x1 DUP3 ADD PUSH1 0x0 SWAP1 SLOAD SWAP1 PUSH2 0x100 EXP SWAP1 DIV PUSH20 0xFFFFFFFFFFFFFFFFFFFFFFFFFFFFFFFFFFFFFFFF AND PUSH20 0xFFFFFFFFFFFFFFFFFFFFFFFFFFFFFFFFFFFFFFFF AND PUSH20 0xFFFFFFFFFFFFFFFFFFFFFFFFFFFFFFFFFFFFFFFF AND DUP2 MSTORE PUSH1 0x20 ADD PUSH1 0x2 DUP3 ADD PUSH1 0x0 SWAP1 SLOAD SWAP1 PUSH2 0x100 EXP SWAP1 DIV PUSH20 0xFFFFFFFFFFFFFFFFFFFFFFFFFFFFFFFFFFFFFFFF AND PUSH20 0xFFFFFFFFFFFFFFFFFFFFFFFFFFFFFFFFFFFFFFFF AND PUSH20 0xFFFFFFFFFFFFFFFFFFFFFFFFFFFFFFFFFFFFFFFF AND DUP2 MSTORE PUSH1 0x20 ADD PUSH1 0x3 DUP3 ADD SLOAD DUP2 MSTORE PUSH1 0x20 ADD PUSH1 0x4 DUP3 ADD SLOAD DUP2 MSTORE PUSH1 0x20 ADD PUSH1 0x5 DUP3 ADD SLOAD DUP2 MSTORE PUSH1 0x20 ADD PUSH1 0x6 DUP3 ADD SLOAD DUP2 MSTORE PUSH1 0x20 ADD PUSH1 0x7 DUP3 ADD SLOAD DUP2 MSTORE PUSH1 0x20 ADD PUSH1 0x8 DUP3 ADD PUSH1 0x0 SWAP1 SLOAD SWAP1 PUSH2 0x100 EXP SWAP1 DIV PUSH1 0xFF AND ISZERO ISZERO ISZERO ISZERO DUP2 MSTORE POP POP SWAP1 POP PUSH2 0x450 DUP4 PUSH2 0x1BAE JUMP JUMPDEST PUSH2 0x48F JUMPI PUSH1 0x40 MLOAD PUSH32 0x8C379A000000000000000000000000000000000000000000000000000000000 DUP2 MSTORE PUSH1 0x4 ADD PUSH2 0x486 SWAP1 PUSH2 0x233F JUMP JUMPDEST PUSH1 0x40 MLOAD DUP1 SWAP2 SUB SWAP1 REVERT JUMPDEST PUSH1 0x0 PUSH1 0x2 PUSH1 0x0 DUP6 DUP2 MSTORE PUSH1 0x20 ADD SWAP1 DUP2 MSTORE PUSH1 0x20 ADD PUSH1 0x0 KECCAK256 PUSH1 0x0 DUP4 PUSH1 0xE0 ADD MLOAD DUP2 MSTORE PUSH1 0x20 ADD SWAP1 DUP2 MSTORE PUSH1 0x20 ADD PUSH1 0x0 KECCAK256 PUSH1 0x40 MLOAD DUP1 PUSH1 0x60 ADD PUSH1 0x40 MSTORE SWAP1 DUP2 PUSH1 0x0 DUP3 ADD SLOAD DUP2 MSTORE PUSH1 0x20 ADD PUSH1 0x1 DUP3 ADD SLOAD DUP2 MSTORE PUSH1 0x20 ADD PUSH1 0x2 DUP3 ADD PUSH1 0x0 SWAP1 SLOAD SWAP1 PUSH2 0x100 EXP SWAP1 DIV PUSH20 0xFFFFFFFFFFFFFFFFFFFFFFFFFFFFFFFFFFFFFFFF AND PUSH20 0xFFFFFFFFFFFFFFFFFFFFFFFFFFFFFFFFFFFFFFFF AND PUSH20 0xFFFFFFFFFFFFFFFFFFFFFFFFFFFFFFFFFFFFFFFF AND DUP2 MSTORE POP POP SWAP1 POP CALLER PUSH20 0xFFFFFFFFFFFFFFFFFFFFFFFFFFFFFFFFFFFFFFFF AND DUP2 PUSH1 0x40 ADD MLOAD PUSH20 0xFFFFFFFFFFFFFFFFFFFFFFFFFFFFFFFFFFFFFFFF AND EQ PUSH2 0x5A2 JUMPI PUSH1 0x40 MLOAD PUSH32 0x8C379A000000000000000000000000000000000000000000000000000000000 DUP2 MSTORE PUSH1 0x4 ADD PUSH2 0x599 SWAP1 PUSH2 0x23AB JUMP JUMPDEST PUSH1 0x40 MLOAD DUP1 SWAP2 SUB SWAP1 REVERT JUMPDEST PUSH1 0x0 DUP3 PUSH1 0x40 ADD MLOAD SWAP1 POP DUP1 PUSH20 0xFFFFFFFFFFFFFFFFFFFFFFFFFFFFFFFFFFFFFFFF AND PUSH4 0x42842E0E ADDRESS DUP5 PUSH1 0x40 ADD MLOAD DUP7 PUSH1 0x60 ADD MLOAD PUSH1 0x40 MLOAD DUP5 PUSH4 0xFFFFFFFF AND PUSH1 0xE0 SHL DUP2 MSTORE PUSH1 0x4 ADD PUSH2 0x5F0 SWAP4 SWAP3 SWAP2 SWAP1 PUSH2 0x23CB JUMP JUMPDEST PUSH1 0x0 PUSH1 0x40 MLOAD DUP1 DUP4 SUB DUP2 PUSH1 0x0 DUP8 DUP1 EXTCODESIZE ISZERO DUP1 ISZERO PUSH2 0x60A JUMPI PUSH1 0x0 DUP1 REVERT JUMPDEST POP GAS CALL ISZERO DUP1 ISZERO PUSH2 0x61E JUMPI RETURNDATASIZE PUSH1 0x0 DUP1 RETURNDATACOPY RETURNDATASIZE PUSH1 0x0 REVERT JUMPDEST POP POP POP POP POP POP POP POP POP JUMP JUMPDEST TIMESTAMP DUP5 LT ISZERO PUSH2 0x66C JUMPI PUSH1 0x40 MLOAD PUSH32 0x8C379A000000000000000000000000000000000000000000000000000000000 DUP2 MSTORE PUSH1 0x4 ADD PUSH2 0x663 SWAP1 PUSH2 0x244E JUMP JUMPDEST PUSH1 0x40 MLOAD DUP1 SWAP2 SUB SWAP1 REVERT JUMPDEST DUP4 DUP4 GT PUSH2 0x6AE JUMPI PUSH1 0x40 MLOAD PUSH32 0x8C379A000000000000000000000000000000000000000000000000000000000 DUP2 MSTORE PUSH1 0x4 ADD PUSH2 0x6A5 SWAP1 PUSH2 0x24BA JUMP JUMPDEST PUSH1 0x40 MLOAD DUP1 SWAP2 SUB SWAP1 REVERT JUMPDEST PUSH1 0x40 MLOAD DUP1 PUSH2 0x120 ADD PUSH1 0x40 MSTORE DUP1 CALLER PUSH20 0xFFFFFFFFFFFFFFFFFFFFFFFFFFFFFFFFFFFFFFFF AND DUP2 MSTORE PUSH1 0x20 ADD DUP9 PUSH20 0xFFFFFFFFFFFFFFFFFFFFFFFFFFFFFFFFFFFFFFFF AND DUP2 MSTORE PUSH1 0x20 ADD DUP8 PUSH20 0xFFFFFFFFFFFFFFFFFFFFFFFFFFFFFFFFFFFFFFFF AND DUP2 MSTORE PUSH1 0x20 ADD DUP7 DUP2 MSTORE PUSH1 0x20 ADD DUP6 DUP2 MSTORE PUSH1 0x20 ADD DUP5 DUP2 MSTORE PUSH1 0x20 ADD DUP4 DUP2 MSTORE PUSH1 0x20 ADD PUSH1 0x0 DUP2 MSTORE PUSH1 0x20 ADD DUP3 ISZERO ISZERO DUP2 MSTORE POP PUSH1 0x1 PUSH1 0x0 DUP1 SLOAD DUP2 MSTORE PUSH1 0x20 ADD SWAP1 DUP2 MSTORE PUSH1 0x20 ADD PUSH1 0x0 KECCAK256 PUSH1 0x0 DUP3 ADD MLOAD DUP2 PUSH1 0x0 ADD PUSH1 0x0 PUSH2 0x100 EXP DUP2 SLOAD DUP2 PUSH20 0xFFFFFFFFFFFFFFFFFFFFFFFFFFFFFFFFFFFFFFFF MUL NOT AND SWAP1 DUP4 PUSH20 0xFFFFFFFFFFFFFFFFFFFFFFFFFFFFFFFFFFFFFFFF AND MUL OR SWAP1 SSTORE POP PUSH1 0x20 DUP3 ADD MLOAD DUP2 PUSH1 0x1 ADD PUSH1 0x0 PUSH2 0x100 EXP DUP2 SLOAD DUP2 PUSH20 0xFFFFFFFFFFFFFFFFFFFFFFFFFFFFFFFFFFFFFFFF MUL NOT AND SWAP1 DUP4 PUSH20 0xFFFFFFFFFFFFFFFFFFFFFFFFFFFFFFFFFFFFFFFF AND MUL OR SWAP1 SSTORE POP PUSH1 0x40 DUP3 ADD MLOAD DUP2 PUSH1 0x2 ADD PUSH1 0x0 PUSH2 0x100 EXP DUP2 SLOAD DUP2 PUSH20 0xFFFFFFFFFFFFFFFFFFFFFFFFFFFFFFFFFFFFFFFF MUL NOT AND SWAP1 DUP4 PUSH20 0xFFFFFFFFFFFFFFFFFFFFFFFFFFFFFFFFFFFFFFFF AND MUL OR SWAP1 SSTORE POP PUSH1 0x60 DUP3 ADD MLOAD DUP2 PUSH1 0x3 ADD SSTORE PUSH1 0x80 DUP3 ADD MLOAD DUP2 PUSH1 0x4 ADD SSTORE PUSH1 0xA0 DUP3 ADD MLOAD DUP2 PUSH1 0x5 ADD SSTORE PUSH1 0xC0 DUP3 ADD MLOAD DUP2 PUSH1 0x6 ADD SSTORE PUSH1 0xE0 DUP3 ADD MLOAD DUP2 PUSH1 0x7 ADD SSTORE PUSH2 0x100 DUP3 ADD MLOAD DUP2 PUSH1 0x8 ADD PUSH1 0x0 PUSH2 0x100 EXP DUP2 SLOAD DUP2 PUSH1 0xFF MUL NOT AND SWAP1 DUP4 ISZERO ISZERO MUL OR SWAP1 SSTORE POP SWAP1 POP POP TIMESTAMP PUSH1 0x2 PUSH1 0x0 DUP1 SLOAD DUP2 MSTORE PUSH1 0x20 ADD SWAP1 DUP2 MSTORE PUSH1 0x20 ADD PUSH1 0x0 KECCAK256 PUSH1 0x0 DUP1 DUP2 MSTORE PUSH1 0x20 ADD SWAP1 DUP2 MSTORE PUSH1 0x20 ADD PUSH1 0x0 KECCAK256 PUSH1 0x0 ADD DUP2 SWAP1 SSTORE POP PUSH1 0x0 SLOAD PUSH32 0xEF8B2952C43462575E82711D0CC91169720A4589A9FA533D173E022437F5405E DUP8 DUP8 PUSH1 0x40 MLOAD PUSH2 0x8D3 SWAP3 SWAP2 SWAP1 PUSH2 0x24DA JUMP JUMPDEST PUSH1 0x40 MLOAD DUP1 SWAP2 SUB SWAP1 LOG2 PUSH1 0x0 DUP1 DUP2 SLOAD DUP1 SWAP3 SWAP2 SWAP1 PUSH2 0x8ED SWAP1 PUSH2 0x2532 JUMP JUMPDEST SWAP2 SWAP1 POP SSTORE POP POP POP POP POP POP POP POP JUMP JUMPDEST DUP1 CALLER PUSH20 0xFFFFFFFFFFFFFFFFFFFFFFFFFFFFFFFFFFFFFFFF AND PUSH1 0x1 PUSH1 0x0 DUP4 DUP2 MSTORE PUSH1 0x20 ADD SWAP1 DUP2 MSTORE PUSH1 0x20 ADD PUSH1 0x0 KECCAK256 PUSH1 0x0 ADD PUSH1 0x0 SWAP1 SLOAD SWAP1 PUSH2 0x100 EXP SWAP1 DIV PUSH20 0xFFFFFFFFFFFFFFFFFFFFFFFFFFFFFFFFFFFFFFFF AND PUSH20 0xFFFFFFFFFFFFFFFFFFFFFFFFFFFFFFFFFFFFFFFF AND EQ PUSH2 0x9A0 JUMPI PUSH1 0x40 MLOAD PUSH32 0x8C379A000000000000000000000000000000000000000000000000000000000 DUP2 MSTORE PUSH1 0x4 ADD PUSH2 0x997 SWAP1 PUSH2 0x22D3 JUMP JUMPDEST PUSH1 0x40 MLOAD DUP1 SWAP2 SUB SWAP1 REVERT JUMPDEST PUSH1 0x0 PUSH1 0x1 PUSH1 0x0 DUP5 DUP2 MSTORE PUSH1 0x20 ADD SWAP1 DUP2 MSTORE PUSH1 0x20 ADD PUSH1 0x0 KECCAK256 PUSH1 0x40 MLOAD DUP1 PUSH2 0x120 ADD PUSH1 0x40 MSTORE SWAP1 DUP2 PUSH1 0x0 DUP3 ADD PUSH1 0x0 SWAP1 SLOAD SWAP1 PUSH2 0x100 EXP SWAP1 DIV PUSH20 0xFFFFFFFFFFFFFFFFFFFFFFFFFFFFFFFFFFFFFFFF AND PUSH20 0xFFFFFFFFFFFFFFFFFFFFFFFFFFFFFFFFFFFFFFFF AND PUSH20 0xFFFFFFFFFFFFFFFFFFFFFFFFFFFFFFFFFFFFFFFF AND DUP2 MSTORE PUSH1 0x20 ADD PUSH1 0x1 DUP3 ADD PUSH1 0x0 SWAP1 SLOAD SWAP1 PUSH2 0x100 EXP SWAP1 DIV PUSH20 0xFFFFFFFFFFFFFFFFFFFFFFFFFFFFFFFFFFFFFFFF AND PUSH20 0xFFFFFFFFFFFFFFFFFFFFFFFFFFFFFFFFFFFFFFFF AND PUSH20 0xFFFFFFFFFFFFFFFFFFFFFFFFFFFFFFFFFFFFFFFF AND DUP2 MSTORE PUSH1 0x20 ADD PUSH1 0x2 DUP3 ADD PUSH1 0x0 SWAP1 SLOAD SWAP1 PUSH2 0x100 EXP SWAP1 DIV PUSH20 0xFFFFFFFFFFFFFFFFFFFFFFFFFFFFFFFFFFFFFFFF AND PUSH20 0xFFFFFFFFFFFFFFFFFFFFFFFFFFFFFFFFFFFFFFFF AND PUSH20 0xFFFFFFFFFFFFFFFFFFFFFFFFFFFFFFFFFFFFFFFF AND DUP2 MSTORE PUSH1 0x20 ADD PUSH1 0x3 DUP3 ADD SLOAD DUP2 MSTORE PUSH1 0x20 ADD PUSH1 0x4 DUP3 ADD SLOAD DUP2 MSTORE PUSH1 0x20 ADD PUSH1 0x5 DUP3 ADD SLOAD DUP2 MSTORE PUSH1 0x20 ADD PUSH1 0x6 DUP3 ADD SLOAD DUP2 MSTORE PUSH1 0x20 ADD PUSH1 0x7 DUP3 ADD SLOAD DUP2 MSTORE PUSH1 0x20 ADD PUSH1 0x8 DUP3 ADD PUSH1 0x0 SWAP1 SLOAD SWAP1 PUSH2 0x100 EXP SWAP1 DIV PUSH1 0xFF AND ISZERO ISZERO ISZERO ISZERO DUP2 MSTORE POP POP SWAP1 POP TIMESTAMP DUP2 PUSH1 0x80 ADD MLOAD GT PUSH2 0xB58 JUMPI PUSH1 0x40 MLOAD PUSH32 0x8C379A000000000000000000000000000000000000000000000000000000000 DUP2 MSTORE PUSH1 0x4 ADD PUSH2 0xB4F SWAP1 PUSH2 0x25C6 JUMP JUMPDEST PUSH1 0x40 MLOAD DUP1 SWAP2 SUB SWAP1 REVERT JUMPDEST PUSH2 0xB60 PUSH2 0x1E9F JUMP JUMPDEST SWAP1 POP PUSH32 0xFE785EF891129B084B1C5A30E4D88EB97C97822C024CC25D5F9D806B897512E0 DUP4 PUSH1 0x40 MLOAD PUSH2 0xB91 SWAP2 SWAP1 PUSH2 0x1F48 JUMP JUMPDEST PUSH1 0x40 MLOAD DUP1 SWAP2 SUB SWAP1 LOG1 POP POP POP JUMP JUMPDEST PUSH1 0x0 PUSH1 0x1 PUSH1 0x0 DUP4 DUP2 MSTORE PUSH1 0x20 ADD SWAP1 DUP2 MSTORE PUSH1 0x20 ADD PUSH1 0x0 KECCAK256 PUSH1 0x40 MLOAD DUP1 PUSH2 0x120 ADD PUSH1 0x40 MSTORE SWAP1 DUP2 PUSH1 0x0 DUP3 ADD PUSH1 0x0 SWAP1 SLOAD SWAP1 PUSH2 0x100 EXP SWAP1 DIV PUSH20 0xFFFFFFFFFFFFFFFFFFFFFFFFFFFFFFFFFFFFFFFF AND PUSH20 0xFFFFFFFFFFFFFFFFFFFFFFFFFFFFFFFFFFFFFFFF AND PUSH20 0xFFFFFFFFFFFFFFFFFFFFFFFFFFFFFFFFFFFFFFFF AND DUP2 MSTORE PUSH1 0x20 ADD PUSH1 0x1 DUP3 ADD PUSH1 0x0 SWAP1 SLOAD SWAP1 PUSH2 0x100 EXP SWAP1 DIV PUSH20 0xFFFFFFFFFFFFFFFFFFFFFFFFFFFFFFFFFFFFFFFF AND PUSH20 0xFFFFFFFFFFFFFFFFFFFFFFFFFFFFFFFFFFFFFFFF AND PUSH20 0xFFFFFFFFFFFFFFFFFFFFFFFFFFFFFFFFFFFFFFFF AND DUP2 MSTORE PUSH1 0x20 ADD PUSH1 0x2 DUP3 ADD PUSH1 0x0 SWAP1 SLOAD SWAP1 PUSH2 0x100 EXP SWAP1 DIV PUSH20 0xFFFFFFFFFFFFFFFFFFFFFFFFFFFFFFFFFFFFFFFF AND PUSH20 0xFFFFFFFFFFFFFFFFFFFFFFFFFFFFFFFFFFFFFFFF AND PUSH20 0xFFFFFFFFFFFFFFFFFFFFFFFFFFFFFFFFFFFFFFFF AND DUP2 MSTORE PUSH1 0x20 ADD PUSH1 0x3 DUP3 ADD SLOAD DUP2 MSTORE PUSH1 0x20 ADD PUSH1 0x4 DUP3 ADD SLOAD DUP2 MSTORE PUSH1 0x20 ADD PUSH1 0x5 DUP3 ADD SLOAD DUP2 MSTORE PUSH1 0x20 ADD PUSH1 0x6 DUP3 ADD SLOAD DUP2 MSTORE PUSH1 0x20 ADD PUSH1 0x7 DUP3 ADD SLOAD DUP2 MSTORE PUSH1 0x20 ADD PUSH1 0x8 DUP3 ADD PUSH1 0x0 SWAP1 SLOAD SWAP1 PUSH2 0x100 EXP SWAP1 DIV PUSH1 0xFF AND ISZERO ISZERO ISZERO ISZERO DUP2 MSTORE POP POP SWAP1 POP PUSH2 0xD19 DUP3 PUSH2 0x1BAE JUMP JUMPDEST PUSH2 0xD58 JUMPI PUSH1 0x40 MLOAD PUSH32 0x8C379A000000000000000000000000000000000000000000000000000000000 DUP2 MSTORE PUSH1 0x4 ADD PUSH2 0xD4F SWAP1 PUSH2 0x233F JUMP JUMPDEST PUSH1 0x40 MLOAD DUP1 SWAP2 SUB SWAP1 REVERT JUMPDEST PUSH1 0x0 PUSH1 0x2 PUSH1 0x0 DUP5 DUP2 MSTORE PUSH1 0x20 ADD SWAP1 DUP2 MSTORE PUSH1 0x20 ADD PUSH1 0x0 KECCAK256 PUSH1 0x0 DUP4 PUSH1 0xE0 ADD MLOAD DUP2 MSTORE PUSH1 0x20 ADD SWAP1 DUP2 MSTORE PUSH1 0x20 ADD PUSH1 0x0 KECCAK256 PUSH1 0x40 MLOAD DUP1 PUSH1 0x60 ADD PUSH1 0x40 MSTORE SWAP1 DUP2 PUSH1 0x0 DUP3 ADD SLOAD DUP2 MSTORE PUSH1 0x20 ADD PUSH1 0x1 DUP3 ADD SLOAD DUP2 MSTORE PUSH1 0x20 ADD PUSH1 0x2 DUP3 ADD PUSH1 0x0 SWAP1 SLOAD SWAP1 PUSH2 0x100 EXP SWAP1 DIV PUSH20 0xFFFFFFFFFFFFFFFFFFFFFFFFFFFFFFFFFFFFFFFF AND PUSH20 0xFFFFFFFFFFFFFFFFFFFFFFFFFFFFFFFFFFFFFFFF AND PUSH20 0xFFFFFFFFFFFFFFFFFFFFFFFFFFFFFFFFFFFFFFFF AND DUP2 MSTORE POP POP SWAP1 POP CALLER PUSH20 0xFFFFFFFFFFFFFFFFFFFFFFFFFFFFFFFFFFFFFFFF AND DUP2 PUSH1 0x40 ADD MLOAD PUSH20 0xFFFFFFFFFFFFFFFFFFFFFFFFFFFFFFFFFFFFFFFF AND EQ PUSH2 0xE6B JUMPI PUSH1 0x40 MLOAD PUSH32 0x8C379A000000000000000000000000000000000000000000000000000000000 DUP2 MSTORE PUSH1 0x4 ADD PUSH2 0xE62 SWAP1 PUSH2 0x23AB JUMP JUMPDEST PUSH1 0x40 MLOAD DUP1 SWAP2 SUB SWAP1 REVERT JUMPDEST PUSH1 0x0 DUP3 PUSH1 0x40 ADD MLOAD SWAP1 POP DUP1 PUSH20 0xFFFFFFFFFFFFFFFFFFFFFFFFFFFFFFFFFFFFFFFF AND PUSH4 0x42842E0E ADDRESS CALLER DUP7 PUSH1 0x60 ADD MLOAD PUSH1 0x40 MLOAD DUP5 PUSH4 0xFFFFFFFF AND PUSH1 0xE0 SHL DUP2 MSTORE PUSH1 0x4 ADD PUSH2 0xEB5 SWAP4 SWAP3 SWAP2 SWAP1 PUSH2 0x23CB JUMP JUMPDEST PUSH1 0x0 PUSH1 0x40 MLOAD DUP1 DUP4 SUB DUP2 PUSH1 0x0 DUP8 DUP1 EXTCODESIZE ISZERO DUP1 ISZERO PUSH2 0xECF JUMPI PUSH1 0x0 DUP1 REVERT JUMPDEST POP GAS CALL ISZERO DUP1 ISZERO PUSH2 0xEE3 JUMPI RETURNDATASIZE PUSH1 0x0 DUP1 RETURNDATACOPY RETURNDATASIZE PUSH1 0x0 REVERT JUMPDEST POP POP POP POP POP POP POP POP JUMP JUMPDEST PUSH2 0xEF6 DUP3 PUSH2 0x1BD1 JUMP JUMPDEST PUSH2 0xF35 JUMPI PUSH1 0x40 MLOAD PUSH32 0x8C379A000000000000000000000000000000000000000000000000000000000 DUP2 MSTORE PUSH1 0x4 ADD PUSH2 0xF2C SWAP1 PUSH2 0x2632 JUMP JUMPDEST PUSH1 0x40 MLOAD DUP1 SWAP2 SUB SWAP1 REVERT JUMPDEST PUSH2 0xF3E DUP3 PUSH2 0x1BAE JUMP JUMPDEST ISZERO PUSH2 0xF7E JUMPI PUSH1 0x40 MLOAD PUSH32 0x8C379A000000000000000000000000000000000000000000000000000000000 DUP2 MSTORE PUSH1 0x4 ADD PUSH2 0xF75 SWAP1 PUSH2 0x269E JUMP JUMPDEST PUSH1 0x40 MLOAD DUP1 SWAP2 SUB SWAP1 REVERT JUMPDEST PUSH1 0x0 PUSH1 0x1 PUSH1 0x0 DUP5 DUP2 MSTORE PUSH1 0x20 ADD SWAP1 DUP2 MSTORE PUSH1 0x20 ADD PUSH1 0x0 KECCAK256 PUSH1 0x40 MLOAD DUP1 PUSH2 0x120 ADD PUSH1 0x40 MSTORE SWAP1 DUP2 PUSH1 0x0 DUP3 ADD PUSH1 0x0 SWAP1 SLOAD SWAP1 PUSH2 0x100 EXP SWAP1 DIV PUSH20 0xFFFFFFFFFFFFFFFFFFFFFFFFFFFFFFFFFFFFFFFF AND PUSH20 0xFFFFFFFFFFFFFFFFFFFFFFFFFFFFFFFFFFFFFFFF AND PUSH20 0xFFFFFFFFFFFFFFFFFFFFFFFFFFFFFFFFFFFFFFFF AND DUP2 MSTORE PUSH1 0x20 ADD PUSH1 0x1 DUP3 ADD PUSH1 0x0 SWAP1 SLOAD SWAP1 PUSH2 0x100 EXP SWAP1 DIV PUSH20 0xFFFFFFFFFFFFFFFFFFFFFFFFFFFFFFFFFFFFFFFF AND PUSH20 0xFFFFFFFFFFFFFFFFFFFFFFFFFFFFFFFFFFFFFFFF AND PUSH20 0xFFFFFFFFFFFFFFFFFFFFFFFFFFFFFFFFFFFFFFFF AND DUP2 MSTORE PUSH1 0x20 ADD PUSH1 0x2 DUP3 ADD PUSH1 0x0 SWAP1 SLOAD SWAP1 PUSH2 0x100 EXP SWAP1 DIV PUSH20 0xFFFFFFFFFFFFFFFFFFFFFFFFFFFFFFFFFFFFFFFF AND PUSH20 0xFFFFFFFFFFFFFFFFFFFFFFFFFFFFFFFFFFFFFFFF AND PUSH20 0xFFFFFFFFFFFFFFFFFFFFFFFFFFFFFFFFFFFFFFFF AND DUP2 MSTORE PUSH1 0x20 ADD PUSH1 0x3 DUP3 ADD SLOAD DUP2 MSTORE PUSH1 0x20 ADD PUSH1 0x4 DUP3 ADD SLOAD DUP2 MSTORE PUSH1 0x20 ADD PUSH1 0x5 DUP3 ADD SLOAD DUP2 MSTORE PUSH1 0x20 ADD PUSH1 0x6 DUP3 ADD SLOAD DUP2 MSTORE PUSH1 0x20 ADD PUSH1 0x7 DUP3 ADD SLOAD DUP2 MSTORE PUSH1 0x20 ADD PUSH1 0x8 DUP3 ADD PUSH1 0x0 SWAP1 SLOAD SWAP1 PUSH2 0x100 EXP SWAP1 DIV PUSH1 0xFF AND ISZERO ISZERO ISZERO ISZERO DUP2 MSTORE POP POP SWAP1 POP PUSH1 0x0 PUSH1 0x1 DUP3 PUSH1 0xE0 ADD MLOAD PUSH2 0x1103 SWAP2 SWAP1 PUSH2 0x26BE JUMP JUMPDEST SWAP1 POP DUP1 DUP3 PUSH1 0xE0 ADD DUP2 DUP2 MSTORE POP POP PUSH1 0x0 PUSH2 0x111A DUP6 PUSH2 0x1BF3 JUMP JUMPDEST SWAP1 POP DUP1 DUP5 GT PUSH2 0x115E JUMPI PUSH1 0x40 MLOAD PUSH32 0x8C379A000000000000000000000000000000000000000000000000000000000 DUP2 MSTORE PUSH1 0x4 ADD PUSH2 0x1155 SWAP1 PUSH2 0x273E JUMP JUMPDEST PUSH1 0x40 MLOAD DUP1 SWAP2 SUB SWAP1 REVERT JUMPDEST DUP3 PUSH1 0x20 ADD MLOAD PUSH20 0xFFFFFFFFFFFFFFFFFFFFFFFFFFFFFFFFFFFFFFFF AND PUSH4 0x23B872DD CALLER PUSH1 0x2 PUSH1 0x0 DUP10 DUP2 MSTORE PUSH1 0x20 ADD SWAP1 DUP2 MSTORE PUSH1 0x20 ADD PUSH1 0x0 KECCAK256 PUSH1 0x0 DUP7 DUP2 MSTORE PUSH1 0x20 ADD SWAP1 DUP2 MSTORE PUSH1 0x20 ADD PUSH1 0x0 KECCAK256 PUSH1 0x2 ADD PUSH1 0x0 SWAP1 SLOAD SWAP1 PUSH2 0x100 EXP SWAP1 DIV PUSH20 0xFFFFFFFFFFFFFFFFFFFFFFFFFFFFFFFFFFFFFFFF AND DUP5 PUSH1 0x40 MLOAD DUP5 PUSH4 0xFFFFFFFF AND PUSH1 0xE0 SHL DUP2 MSTORE PUSH1 0x4 ADD PUSH2 0x11E6 SWAP4 SWAP3 SWAP2 SWAP1 PUSH2 0x23CB JUMP JUMPDEST PUSH1 0x20 PUSH1 0x40 MLOAD DUP1 DUP4 SUB DUP2 PUSH1 0x0 DUP8 GAS CALL ISZERO DUP1 ISZERO PUSH2 0x1205 JUMPI RETURNDATASIZE PUSH1 0x0 DUP1 RETURNDATACOPY RETURNDATASIZE PUSH1 0x0 REVERT JUMPDEST POP POP POP POP PUSH1 0x40 MLOAD RETURNDATASIZE PUSH1 0x1F NOT PUSH1 0x1F DUP3 ADD AND DUP3 ADD DUP1 PUSH1 0x40 MSTORE POP DUP2 ADD SWAP1 PUSH2 0x1229 SWAP2 SWAP1 PUSH2 0x2773 JUMP JUMPDEST POP DUP3 PUSH1 0x20 ADD MLOAD PUSH20 0xFFFFFFFFFFFFFFFFFFFFFFFFFFFFFFFFFFFFFFFF AND PUSH4 0x23B872DD CALLER DUP6 PUSH1 0x0 ADD MLOAD DUP5 DUP9 PUSH2 0x125C SWAP2 SWAP1 PUSH2 0x27A0 JUMP JUMPDEST PUSH1 0x40 MLOAD DUP5 PUSH4 0xFFFFFFFF AND PUSH1 0xE0 SHL DUP2 MSTORE PUSH1 0x4 ADD PUSH2 0x127A SWAP4 SWAP3 SWAP2 SWAP1 PUSH2 0x23CB JUMP JUMPDEST PUSH1 0x20 PUSH1 0x40 MLOAD DUP1 DUP4 SUB DUP2 PUSH1 0x0 DUP8 GAS CALL ISZERO DUP1 ISZERO PUSH2 0x1299 JUMPI RETURNDATASIZE PUSH1 0x0 DUP1 RETURNDATACOPY RETURNDATASIZE PUSH1 0x0 REVERT JUMPDEST POP POP POP POP PUSH1 0x40 MLOAD RETURNDATASIZE PUSH1 0x1F NOT PUSH1 0x1F DUP3 ADD AND DUP3 ADD DUP1 PUSH1 0x40 MSTORE POP DUP2 ADD SWAP1 PUSH2 0x12BD SWAP2 SWAP1 PUSH2 0x2773 JUMP JUMPDEST POP PUSH1 0x40 MLOAD DUP1 PUSH1 0x60 ADD PUSH1 0x40 MSTORE DUP1 TIMESTAMP DUP2 MSTORE PUSH1 0x20 ADD DUP6 DUP2 MSTORE PUSH1 0x20 ADD CALLER PUSH20 0xFFFFFFFFFFFFFFFFFFFFFFFFFFFFFFFFFFFFFFFF AND DUP2 MSTORE POP PUSH1 0x2 PUSH1 0x0 DUP8 DUP2 MSTORE PUSH1 0x20 ADD SWAP1 DUP2 MSTORE PUSH1 0x20 ADD PUSH1 0x0 KECCAK256 PUSH1 0x0 DUP5 DUP2 MSTORE PUSH1 0x20 ADD SWAP1 DUP2 MSTORE PUSH1 0x20 ADD PUSH1 0x0 KECCAK256 PUSH1 0x0 DUP3 ADD MLOAD DUP2 PUSH1 0x0 ADD SSTORE PUSH1 0x20 DUP3 ADD MLOAD DUP2 PUSH1 0x1 ADD SSTORE PUSH1 0x40 DUP3 ADD MLOAD DUP2 PUSH1 0x2 ADD PUSH1 0x0 PUSH2 0x100 EXP DUP2 SLOAD DUP2 PUSH20 0xFFFFFFFFFFFFFFFFFFFFFFFFFFFFFFFFFFFFFFFF MUL NOT AND SWAP1 DUP4 PUSH20 0xFFFFFFFFFFFFFFFFFFFFFFFFFFFFFFFFFFFFFFFF AND MUL OR SWAP1 SSTORE POP SWAP1 POP POP POP POP POP POP POP JUMP JUMPDEST DUP1 CALLER PUSH20 0xFFFFFFFFFFFFFFFFFFFFFFFFFFFFFFFFFFFFFFFF AND PUSH1 0x1 PUSH1 0x0 DUP4 DUP2 MSTORE PUSH1 0x20 ADD SWAP1 DUP2 MSTORE PUSH1 0x20 ADD PUSH1 0x0 KECCAK256 PUSH1 0x0 ADD PUSH1 0x0 SWAP1 SLOAD SWAP1 PUSH2 0x100 EXP SWAP1 DIV PUSH20 0xFFFFFFFFFFFFFFFFFFFFFFFFFFFFFFFFFFFFFFFF AND PUSH20 0xFFFFFFFFFFFFFFFFFFFFFFFFFFFFFFFFFFFFFFFF AND EQ PUSH2 0x141D JUMPI PUSH1 0x40 MLOAD PUSH32 0x8C379A000000000000000000000000000000000000000000000000000000000 DUP2 MSTORE PUSH1 0x4 ADD PUSH2 0x1414 SWAP1 PUSH2 0x22D3 JUMP JUMPDEST PUSH1 0x40 MLOAD DUP1 SWAP2 SUB SWAP1 REVERT JUMPDEST PUSH1 0x0 PUSH1 0x1 PUSH1 0x0 DUP5 DUP2 MSTORE PUSH1 0x20 ADD SWAP1 DUP2 MSTORE PUSH1 0x20 ADD PUSH1 0x0 KECCAK256 PUSH1 0x40 MLOAD DUP1 PUSH2 0x120 ADD PUSH1 0x40 MSTORE SWAP1 DUP2 PUSH1 0x0 DUP3 ADD PUSH1 0x0 SWAP1 SLOAD SWAP1 PUSH2 0x100 EXP SWAP1 DIV PUSH20 0xFFFFFFFFFFFFFFFFFFFFFFFFFFFFFFFFFFFFFFFF AND PUSH20 0xFFFFFFFFFFFFFFFFFFFFFFFFFFFFFFFFFFFFFFFF AND PUSH20 0xFFFFFFFFFFFFFFFFFFFFFFFFFFFFFFFFFFFFFFFF AND DUP2 MSTORE PUSH1 0x20 ADD PUSH1 0x1 DUP3 ADD PUSH1 0x0 SWAP1 SLOAD SWAP1 PUSH2 0x100 EXP SWAP1 DIV PUSH20 0xFFFFFFFFFFFFFFFFFFFFFFFFFFFFFFFFFFFFFFFF AND PUSH20 0xFFFFFFFFFFFFFFFFFFFFFFFFFFFFFFFFFFFFFFFF AND PUSH20 0xFFFFFFFFFFFFFFFFFFFFFFFFFFFFFFFFFFFFFFFF AND DUP2 MSTORE PUSH1 0x20 ADD PUSH1 0x2 DUP3 ADD PUSH1 0x0 SWAP1 SLOAD SWAP1 PUSH2 0x100 EXP SWAP1 DIV PUSH20 0xFFFFFFFFFFFFFFFFFFFFFFFFFFFFFFFFFFFFFFFF AND PUSH20 0xFFFFFFFFFFFFFFFFFFFFFFFFFFFFFFFFFFFFFFFF AND PUSH20 0xFFFFFFFFFFFFFFFFFFFFFFFFFFFFFFFFFFFFFFFF AND DUP2 MSTORE PUSH1 0x20 ADD PUSH1 0x3 DUP3 ADD SLOAD DUP2 MSTORE PUSH1 0x20 ADD PUSH1 0x4 DUP3 ADD SLOAD DUP2 MSTORE PUSH1 0x20 ADD PUSH1 0x5 DUP3 ADD SLOAD DUP2 MSTORE PUSH1 0x20 ADD PUSH1 0x6 DUP3 ADD SLOAD DUP2 MSTORE PUSH1 0x20 ADD PUSH1 0x7 DUP3 ADD SLOAD DUP2 MSTORE PUSH1 0x20 ADD PUSH1 0x8 DUP3 ADD PUSH1 0x0 SWAP1 SLOAD SWAP1 PUSH2 0x100 EXP SWAP1 DIV PUSH1 0xFF AND ISZERO ISZERO ISZERO ISZERO DUP2 MSTORE POP POP SWAP1 POP PUSH1 0x0 PUSH1 0x2 PUSH1 0x0 DUP6 DUP2 MSTORE PUSH1 0x20 ADD SWAP1 DUP2 MSTORE PUSH1 0x20 ADD PUSH1 0x0 KECCAK256 PUSH1 0x0 DUP4 PUSH1 0xE0 ADD MLOAD DUP2 MSTORE PUSH1 0x20 ADD SWAP1 DUP2 MSTORE PUSH1 0x20 ADD PUSH1 0x0 KECCAK256 PUSH1 0x40 MLOAD DUP1 PUSH1 0x60 ADD PUSH1 0x40 MSTORE SWAP1 DUP2 PUSH1 0x0 DUP3 ADD SLOAD DUP2 MSTORE PUSH1 0x20 ADD PUSH1 0x1 DUP3 ADD SLOAD DUP2 MSTORE PUSH1 0x20 ADD PUSH1 0x2 DUP3 ADD PUSH1 0x0 SWAP1 SLOAD SWAP1 PUSH2 0x100 EXP SWAP1 DIV PUSH20 0xFFFFFFFFFFFFFFFFFFFFFFFFFFFFFFFFFFFFFFFF AND PUSH20 0xFFFFFFFFFFFFFFFFFFFFFFFFFFFFFFFFFFFFFFFF AND PUSH20 0xFFFFFFFFFFFFFFFFFFFFFFFFFFFFFFFFFFFFFFFF AND DUP2 MSTORE POP POP SWAP1 POP DUP2 PUSH1 0x20 ADD MLOAD PUSH20 0xFFFFFFFFFFFFFFFFFFFFFFFFFFFFFFFFFFFFFFFF AND PUSH4 0x23B872DD CALLER DUP4 PUSH1 0x40 ADD MLOAD PUSH2 0x165F DUP9 PUSH2 0x1BF3 JUMP JUMPDEST PUSH1 0x40 MLOAD DUP5 PUSH4 0xFFFFFFFF AND PUSH1 0xE0 SHL DUP2 MSTORE PUSH1 0x4 ADD PUSH2 0x167D SWAP4 SWAP3 SWAP2 SWAP1 PUSH2 0x23CB JUMP JUMPDEST PUSH1 0x20 PUSH1 0x40 MLOAD DUP1 DUP4 SUB DUP2 PUSH1 0x0 DUP8 GAS CALL ISZERO DUP1 ISZERO PUSH2 0x169C JUMPI RETURNDATASIZE PUSH1 0x0 DUP1 RETURNDATACOPY RETURNDATASIZE PUSH1 0x0 REVERT JUMPDEST POP POP POP POP PUSH1 0x40 MLOAD RETURNDATASIZE PUSH1 0x1F NOT PUSH1 0x1F DUP3 ADD AND DUP3 ADD DUP1 PUSH1 0x40 MSTORE POP DUP2 ADD SWAP1 PUSH2 0x16C0 SWAP2 SWAP1 PUSH2 0x2773 JUMP JUMPDEST POP PUSH1 0x0 DUP3 PUSH1 0x40 ADD MLOAD SWAP1 POP DUP1 PUSH20 0xFFFFFFFFFFFFFFFFFFFFFFFFFFFFFFFFFFFFFFFF AND PUSH4 0x42842E0E ADDRESS CALLER DUP7 PUSH1 0x60 ADD MLOAD PUSH1 0x40 MLOAD DUP5 PUSH4 0xFFFFFFFF AND PUSH1 0xE0 SHL DUP2 MSTORE PUSH1 0x4 ADD PUSH2 0x170B SWAP4 SWAP3 SWAP2 SWAP1 PUSH2 0x23CB JUMP JUMPDEST PUSH1 0x0 PUSH1 0x40 MLOAD DUP1 DUP4 SUB DUP2 PUSH1 0x0 DUP8 DUP1 EXTCODESIZE ISZERO DUP1 ISZERO PUSH2 0x1725 JUMPI PUSH1 0x0 DUP1 REVERT JUMPDEST POP GAS CALL ISZERO DUP1 ISZERO PUSH2 0x1739 JUMPI RETURNDATASIZE PUSH1 0x0 DUP1 RETURNDATACOPY RETURNDATASIZE PUSH1 0x0 REVERT JUMPDEST POP POP POP POP POP POP POP POP POP JUMP JUMPDEST PUSH1 0x2 PUSH1 0x20 MSTORE DUP2 PUSH1 0x0 MSTORE PUSH1 0x40 PUSH1 0x0 KECCAK256 PUSH1 0x20 MSTORE DUP1 PUSH1 0x0 MSTORE PUSH1 0x40 PUSH1 0x0 KECCAK256 PUSH1 0x0 SWAP2 POP SWAP2 POP POP DUP1 PUSH1 0x0 ADD SLOAD SWAP1 DUP1 PUSH1 0x1 ADD SLOAD SWAP1 DUP1 PUSH1 0x2 ADD PUSH1 0x0 SWAP1 SLOAD SWAP1 PUSH2 0x100 EXP SWAP1 DIV PUSH20 0xFFFFFFFFFFFFFFFFFFFFFFFFFFFFFFFFFFFFFFFF AND SWAP1 POP DUP4 JUMP JUMPDEST PUSH2 0x17A4 DUP3 PUSH2 0x1BD1 JUMP JUMPDEST PUSH2 0x17E3 JUMPI PUSH1 0x40 MLOAD PUSH32 0x8C379A000000000000000000000000000000000000000000000000000000000 DUP2 MSTORE PUSH1 0x4 ADD PUSH2 0x17DA SWAP1 PUSH2 0x2632 JUMP JUMPDEST PUSH1 0x40 MLOAD DUP1 SWAP2 SUB SWAP1 REVERT JUMPDEST PUSH2 0x17EC DUP3 PUSH2 0x1BAE JUMP JUMPDEST ISZERO PUSH2 0x182C JUMPI PUSH1 0x40 MLOAD PUSH32 0x8C379A000000000000000000000000000000000000000000000000000000000 DUP2 MSTORE PUSH1 0x4 ADD PUSH2 0x1823 SWAP1 PUSH2 0x269E JUMP JUMPDEST PUSH1 0x40 MLOAD DUP1 SWAP2 SUB SWAP1 REVERT JUMPDEST PUSH1 0x0 PUSH1 0x1 PUSH1 0x0 DUP5 DUP2 MSTORE PUSH1 0x20 ADD SWAP1 DUP2 MSTORE PUSH1 0x20 ADD PUSH1 0x0 KECCAK256 PUSH1 0x40 MLOAD DUP1 PUSH2 0x120 ADD PUSH1 0x40 MSTORE SWAP1 DUP2 PUSH1 0x0 DUP3 ADD PUSH1 0x0 SWAP1 SLOAD SWAP1 PUSH2 0x100 EXP SWAP1 DIV PUSH20 0xFFFFFFFFFFFFFFFFFFFFFFFFFFFFFFFFFFFFFFFF AND PUSH20 0xFFFFFFFFFFFFFFFFFFFFFFFFFFFFFFFFFFFFFFFF AND PUSH20 0xFFFFFFFFFFFFFFFFFFFFFFFFFFFFFFFFFFFFFFFF AND DUP2 MSTORE PUSH1 0x20 ADD PUSH1 0x1 DUP3 ADD PUSH1 0x0 SWAP1 SLOAD SWAP1 PUSH2 0x100 EXP SWAP1 DIV PUSH20 0xFFFFFFFFFFFFFFFFFFFFFFFFFFFFFFFFFFFFFFFF AND PUSH20 0xFFFFFFFFFFFFFFFFFFFFFFFFFFFFFFFFFFFFFFFF AND PUSH20 0xFFFFFFFFFFFFFFFFFFFFFFFFFFFFFFFFFFFFFFFF AND DUP2 MSTORE PUSH1 0x20 ADD PUSH1 0x2 DUP3 ADD PUSH1 0x0 SWAP1 SLOAD SWAP1 PUSH2 0x100 EXP SWAP1 DIV PUSH20 0xFFFFFFFFFFFFFFFFFFFFFFFFFFFFFFFFFFFFFFFF AND PUSH20 0xFFFFFFFFFFFFFFFFFFFFFFFFFFFFFFFFFFFFFFFF AND PUSH20 0xFFFFFFFFFFFFFFFFFFFFFFFFFFFFFFFFFFFFFFFF AND DUP2 MSTORE PUSH1 0x20 ADD PUSH1 0x3 DUP3 ADD SLOAD DUP2 MSTORE PUSH1 0x20 ADD PUSH1 0x4 DUP3 ADD SLOAD DUP2 MSTORE PUSH1 0x20 ADD PUSH1 0x5 DUP3 ADD SLOAD DUP2 MSTORE PUSH1 0x20 ADD PUSH1 0x6 DUP3 ADD SLOAD DUP2 MSTORE PUSH1 0x20 ADD PUSH1 0x7 DUP3 ADD SLOAD DUP2 MSTORE PUSH1 0x20 ADD PUSH1 0x8 DUP3 ADD PUSH1 0x0 SWAP1 SLOAD SWAP1 PUSH2 0x100 EXP SWAP1 DIV PUSH1 0xFF AND ISZERO ISZERO ISZERO ISZERO DUP2 MSTORE POP POP SWAP1 POP PUSH1 0x0 PUSH1 0x2 PUSH1 0x0 DUP6 DUP2 MSTORE PUSH1 0x20 ADD SWAP1 DUP2 MSTORE PUSH1 0x20 ADD PUSH1 0x0 KECCAK256 PUSH1 0x0 DUP4 PUSH1 0xE0 ADD MLOAD DUP2 MSTORE PUSH1 0x20 ADD SWAP1 DUP2 MSTORE PUSH1 0x20 ADD PUSH1 0x0 KECCAK256 SWAP1 POP CALLER PUSH20 0xFFFFFFFFFFFFFFFFFFFFFFFFFFFFFFFFFFFFFFFF AND DUP2 PUSH1 0x2 ADD PUSH1 0x0 SWAP1 SLOAD SWAP1 PUSH2 0x100 EXP SWAP1 DIV PUSH20 0xFFFFFFFFFFFFFFFFFFFFFFFFFFFFFFFFFFFFFFFF AND PUSH20 0xFFFFFFFFFFFFFFFFFFFFFFFFFFFFFFFFFFFFFFFF AND EQ PUSH2 0x1A5C JUMPI PUSH1 0x40 MLOAD PUSH32 0x8C379A000000000000000000000000000000000000000000000000000000000 DUP2 MSTORE PUSH1 0x4 ADD PUSH2 0x1A53 SWAP1 PUSH2 0x2820 JUMP JUMPDEST PUSH1 0x40 MLOAD DUP1 SWAP2 SUB SWAP1 REVERT JUMPDEST DUP3 DUP2 PUSH1 0x2 ADD PUSH1 0x0 PUSH2 0x100 EXP DUP2 SLOAD DUP2 PUSH20 0xFFFFFFFFFFFFFFFFFFFFFFFFFFFFFFFFFFFFFFFF MUL NOT AND SWAP1 DUP4 PUSH20 0xFFFFFFFFFFFFFFFFFFFFFFFFFFFFFFFFFFFFFFFF AND MUL OR SWAP1 SSTORE POP POP POP POP POP JUMP JUMPDEST PUSH1 0x3 PUSH1 0x20 MSTORE DUP2 PUSH1 0x0 MSTORE PUSH1 0x40 PUSH1 0x0 KECCAK256 DUP2 DUP2 SLOAD DUP2 LT PUSH2 0x1AC1 JUMPI PUSH1 0x0 DUP1 REVERT JUMPDEST SWAP1 PUSH1 0x0 MSTORE PUSH1 0x20 PUSH1 0x0 KECCAK256 ADD PUSH1 0x0 SWAP2 POP SWAP2 POP SWAP1 SLOAD SWAP1 PUSH2 0x100 EXP SWAP1 DIV PUSH20 0xFFFFFFFFFFFFFFFFFFFFFFFFFFFFFFFFFFFFFFFF AND DUP2 JUMP JUMPDEST PUSH1 0x1 PUSH1 0x20 MSTORE DUP1 PUSH1 0x0 MSTORE PUSH1 0x40 PUSH1 0x0 KECCAK256 PUSH1 0x0 SWAP2 POP SWAP1 POP DUP1 PUSH1 0x0 ADD PUSH1 0x0 SWAP1 SLOAD SWAP1 PUSH2 0x100 EXP SWAP1 DIV PUSH20 0xFFFFFFFFFFFFFFFFFFFFFFFFFFFFFFFFFFFFFFFF AND SWAP1 DUP1 PUSH1 0x1 ADD PUSH1 0x0 SWAP1 SLOAD SWAP1 PUSH2 0x100 EXP SWAP1 DIV PUSH20 0xFFFFFFFFFFFFFFFFFFFFFFFFFFFFFFFFFFFFFFFF AND SWAP1 DUP1 PUSH1 0x2 ADD PUSH1 0x0 SWAP1 SLOAD SWAP1 PUSH2 0x100 EXP SWAP1 DIV PUSH20 0xFFFFFFFFFFFFFFFFFFFFFFFFFFFFFFFFFFFFFFFF AND SWAP1 DUP1 PUSH1 0x3 ADD SLOAD SWAP1 DUP1 PUSH1 0x4 ADD SLOAD SWAP1 DUP1 PUSH1 0x5 ADD SLOAD SWAP1 DUP1 PUSH1 0x6 ADD SLOAD SWAP1 DUP1 PUSH1 0x7 ADD SLOAD SWAP1 DUP1 PUSH1 0x8 ADD PUSH1 0x0 SWAP1 SLOAD SWAP1 PUSH2 0x100 EXP SWAP1 DIV PUSH1 0xFF AND SWAP1 POP DUP10 JUMP JUMPDEST PUSH1 0x0 TIMESTAMP PUSH1 0x1 PUSH1 0x0 DUP5 DUP2 MSTORE PUSH1 0x20 ADD SWAP1 DUP2 MSTORE PUSH1 0x20 ADD PUSH1 0x0 KECCAK256 PUSH1 0x5 ADD SLOAD GT ISZERO SWAP1 POP SWAP2 SWAP1 POP JUMP JUMPDEST PUSH1 0x0 TIMESTAMP PUSH1 0x1 PUSH1 0x0 DUP5 DUP2 MSTORE PUSH1 0x20 ADD SWAP1 DUP2 MSTORE PUSH1 0x20 ADD PUSH1 0x0 KECCAK256 PUSH1 0x4 ADD SLOAD LT SWAP1 POP SWAP2 SWAP1 POP JUMP JUMPDEST PUSH1 0x0 DUP1 PUSH1 0x1 PUSH1 0x0 DUP5 DUP2 MSTORE PUSH1 0x20 ADD SWAP1 DUP2 MSTORE PUSH1 0x20 ADD PUSH1 0x0 KECCAK256 PUSH1 0x40 MLOAD DUP1 PUSH2 0x120 ADD PUSH1 0x40 MSTORE SWAP1 DUP2 PUSH1 0x0 DUP3 ADD PUSH1 0x0 SWAP1 SLOAD SWAP1 PUSH2 0x100 EXP SWAP1 DIV PUSH20 0xFFFFFFFFFFFFFFFFFFFFFFFFFFFFFFFFFFFFFFFF AND PUSH20 0xFFFFFFFFFFFFFFFFFFFFFFFFFFFFFFFFFFFFFFFF AND PUSH20 0xFFFFFFFFFFFFFFFFFFFFFFFFFFFFFFFFFFFFFFFF AND DUP2 MSTORE PUSH1 0x20 ADD PUSH1 0x1 DUP3 ADD PUSH1 0x0 SWAP1 SLOAD SWAP1 PUSH2 0x100 EXP SWAP1 DIV PUSH20 0xFFFFFFFFFFFFFFFFFFFFFFFFFFFFFFFFFFFFFFFF AND PUSH20 0xFFFFFFFFFFFFFFFFFFFFFFFFFFFFFFFFFFFFFFFF AND PUSH20 0xFFFFFFFFFFFFFFFFFFFFFFFFFFFFFFFFFFFFFFFF AND DUP2 MSTORE PUSH1 0x20 ADD PUSH1 0x2 DUP3 ADD PUSH1 0x0 SWAP1 SLOAD SWAP1 PUSH2 0x100 EXP SWAP1 DIV PUSH20 0xFFFFFFFFFFFFFFFFFFFFFFFFFFFFFFFFFFFFFFFF AND PUSH20 0xFFFFFFFFFFFFFFFFFFFFFFFFFFFFFFFFFFFFFFFF AND PUSH20 0xFFFFFFFFFFFFFFFFFFFFFFFFFFFFFFFFFFFFFFFF AND DUP2 MSTORE PUSH1 0x20 ADD PUSH1 0x3 DUP3 ADD SLOAD DUP2 MSTORE PUSH1 0x20 ADD PUSH1 0x4 DUP3 ADD SLOAD DUP2 MSTORE PUSH1 0x20 ADD PUSH1 0x5 DUP3 ADD SLOAD DUP2 MSTORE PUSH1 0x20 ADD PUSH1 0x6 DUP3 ADD SLOAD DUP2 MSTORE PUSH1 0x20 ADD PUSH1 0x7 DUP3 ADD SLOAD DUP2 MSTORE PUSH1 0x20 ADD PUSH1 0x8 DUP3 ADD PUSH1 0x0 SWAP1 SLOAD SWAP1 PUSH2 0x100 EXP SWAP1 DIV PUSH1 0xFF AND ISZERO ISZERO ISZERO ISZERO DUP2 MSTORE POP POP SWAP1 POP PUSH1 0x0 PUSH1 0x2 PUSH1 0x0 DUP6 DUP2 MSTORE PUSH1 0x20 ADD SWAP1 DUP2 MSTORE PUSH1 0x20 ADD PUSH1 0x0 KECCAK256 PUSH1 0x0 DUP4 PUSH1 0xE0 ADD MLOAD DUP2 MSTORE PUSH1 0x20 ADD SWAP1 DUP2 MSTORE PUSH1 0x20 ADD PUSH1 0x0 KECCAK256 PUSH1 0x40 MLOAD DUP1 PUSH1 0x60 ADD PUSH1 0x40 MSTORE SWAP1 DUP2 PUSH1 0x0 DUP3 ADD SLOAD DUP2 MSTORE PUSH1 0x20 ADD PUSH1 0x1 DUP3 ADD SLOAD DUP2 MSTORE PUSH1 0x20 ADD PUSH1 0x2 DUP3 ADD PUSH1 0x0 SWAP1 SLOAD SWAP1 PUSH2 0x100 EXP SWAP1 DIV PUSH20 0xFFFFFFFFFFFFFFFFFFFFFFFFFFFFFFFFFFFFFFFF AND PUSH20 0xFFFFFFFFFFFFFFFFFFFFFFFFFFFFFFFFFFFFFFFF AND PUSH20 0xFFFFFFFFFFFFFFFFFFFFFFFFFFFFFFFFFFFFFFFF AND DUP2 MSTORE POP POP SWAP1 POP PUSH1 0x0 PUSH2 0x1E12 DUP6 PUSH2 0x1BAE JUMP JUMPDEST ISZERO PUSH2 0x1E32 JUMPI DUP3 PUSH1 0xA0 ADD MLOAD DUP3 PUSH1 0x0 ADD MLOAD PUSH2 0x1E2B SWAP2 SWAP1 PUSH2 0x27A0 JUMP JUMPDEST SWAP1 POP PUSH2 0x1E45 JUMP JUMPDEST TIMESTAMP DUP3 PUSH1 0x0 ADD MLOAD PUSH2 0x1E42 SWAP2 SWAP1 PUSH2 0x27A0 JUMP JUMPDEST SWAP1 POP JUMPDEST PUSH4 0x1E13380 DUP2 PUSH8 0xDE0B6B3A7640000 DUP6 PUSH1 0xC0 ADD MLOAD DUP6 PUSH1 0x20 ADD MLOAD PUSH2 0x1E68 SWAP2 SWAP1 PUSH2 0x2840 JUMP JUMPDEST PUSH2 0x1E72 SWAP2 SWAP1 PUSH2 0x28C9 JUMP JUMPDEST PUSH2 0x1E7C SWAP2 SWAP1 PUSH2 0x2840 JUMP JUMPDEST PUSH2 0x1E86 SWAP2 SWAP1 PUSH2 0x28C9 JUMP JUMPDEST DUP3 PUSH1 0x20 ADD MLOAD PUSH2 0x1E95 SWAP2 SWAP1 PUSH2 0x26BE JUMP JUMPDEST SWAP4 POP POP POP POP SWAP2 SWAP1 POP JUMP JUMPDEST PUSH1 0x40 MLOAD DUP1 PUSH2 0x120 ADD PUSH1 0x40 MSTORE DUP1 PUSH1 0x0 PUSH20 0xFFFFFFFFFFFFFFFFFFFFFFFFFFFFFFFFFFFFFFFF AND DUP2 MSTORE PUSH1 0x20 ADD PUSH1 0x0 PUSH20 0xFFFFFFFFFFFFFFFFFFFFFFFFFFFFFFFFFFFFFFFF AND DUP2 MSTORE PUSH1 0x20 ADD PUSH1 0x0 PUSH20 0xFFFFFFFFFFFFFFFFFFFFFFFFFFFFFFFFFFFFFFFF AND DUP2 MSTORE PUSH1 0x20 ADD PUSH1 0x0 DUP2 MSTORE PUSH1 0x20 ADD PUSH1 0x0 DUP2 MSTORE PUSH1 0x20 ADD PUSH1 0x0 DUP2 MSTORE PUSH1 0x20 ADD PUSH1 0x0 DUP2 MSTORE PUSH1 0x20 ADD PUSH1 0x0 DUP2 MSTORE PUSH1 0x20 ADD PUSH1 0x0 ISZERO ISZERO DUP2 MSTORE POP SWAP1 JUMP JUMPDEST PUSH1 0x0 DUP2 SWAP1 POP SWAP2 SWAP1 POP JUMP JUMPDEST PUSH2 0x1F42 DUP2 PUSH2 0x1F2F JUMP JUMPDEST DUP3 MSTORE POP POP JUMP JUMPDEST PUSH1 0x0 PUSH1 0x20 DUP3 ADD SWAP1 POP PUSH2 0x1F5D PUSH1 0x0 DUP4 ADD DUP5 PUSH2 0x1F39 JUMP JUMPDEST SWAP3 SWAP2 POP POP JUMP JUMPDEST PUSH1 0x0 DUP1 REVERT JUMPDEST PUSH2 0x1F71 DUP2 PUSH2 0x1F2F JUMP JUMPDEST DUP2 EQ PUSH2 0x1F7C JUMPI PUSH1 0x0 DUP1 REVERT JUMPDEST POP JUMP JUMPDEST PUSH1 0x0 DUP2 CALLDATALOAD SWAP1 POP PUSH2 0x1F8E DUP2 PUSH2 0x1F68 JUMP JUMPDEST SWAP3 SWAP2 POP POP JUMP JUMPDEST PUSH1 0x0 PUSH1 0x20 DUP3 DUP5 SUB SLT ISZERO PUSH2 0x1FAA JUMPI PUSH2 0x1FA9 PUSH2 0x1F63 JUMP JUMPDEST JUMPDEST PUSH1 0x0 PUSH2 0x1FB8 DUP5 DUP3 DUP6 ADD PUSH2 0x1F7F JUMP JUMPDEST SWAP2 POP POP SWAP3 SWAP2 POP POP JUMP JUMPDEST PUSH1 0x0 PUSH20 0xFFFFFFFFFFFFFFFFFFFFFFFFFFFFFFFFFFFFFFFF DUP3 AND SWAP1 POP SWAP2 SWAP1 POP JUMP JUMPDEST PUSH1 0x0 PUSH2 0x1FEC DUP3 PUSH2 0x1FC1 JUMP JUMPDEST SWAP1 POP SWAP2 SWAP1 POP JUMP JUMPDEST PUSH2 0x1FFC DUP2 PUSH2 0x1FE1 JUMP JUMPDEST DUP2 EQ PUSH2 0x2007 JUMPI PUSH1 0x0 DUP1 REVERT JUMPDEST POP JUMP JUMPDEST PUSH1 0x0 DUP2 CALLDATALOAD SWAP1 POP PUSH2 0x2019 DUP2 PUSH2 0x1FF3 JUMP JUMPDEST SWAP3 SWAP2 POP POP JUMP JUMPDEST PUSH1 0x0 DUP2 ISZERO ISZERO SWAP1 POP SWAP2 SWAP1 POP JUMP JUMPDEST PUSH2 0x2034 DUP2 PUSH2 0x201F JUMP JUMPDEST DUP2 EQ PUSH2 0x203F JUMPI PUSH1 0x0 DUP1 REVERT JUMPDEST POP JUMP JUMPDEST PUSH1 0x0 DUP2 CALLDATALOAD SWAP1 POP PUSH2 0x2051 DUP2 PUSH2 0x202B JUMP JUMPDEST SWAP3 SWAP2 POP POP JUMP JUMPDEST PUSH1 0x0 DUP1 PUSH1 0x0 DUP1 PUSH1 0x0 DUP1 PUSH1 0x0 PUSH1 0xE0 DUP9 DUP11 SUB SLT ISZERO PUSH2 0x2076 JUMPI PUSH2 0x2075 PUSH2 0x1F63 JUMP JUMPDEST JUMPDEST PUSH1 0x0 PUSH2 0x2084 DUP11 DUP3 DUP12 ADD PUSH2 0x200A JUMP JUMPDEST SWAP8 POP POP PUSH1 0x20 PUSH2 0x2095 DUP11 DUP3 DUP12 ADD PUSH2 0x200A JUMP JUMPDEST SWAP7 POP POP PUSH1 0x40 PUSH2 0x20A6 DUP11 DUP3 DUP12 ADD PUSH2 0x1F7F JUMP JUMPDEST SWAP6 POP POP PUSH1 0x60 PUSH2 0x20B7 DUP11 DUP3 DUP12 ADD PUSH2 0x1F7F JUMP JUMPDEST SWAP5 POP POP PUSH1 0x80 PUSH2 0x20C8 DUP11 DUP3 DUP12 ADD PUSH2 0x1F7F JUMP JUMPDEST SWAP4 POP POP PUSH1 0xA0 PUSH2 0x20D9 DUP11 DUP3 DUP12 ADD PUSH2 0x1F7F JUMP JUMPDEST SWAP3 POP POP PUSH1 0xC0 PUSH2 0x20EA DUP11 DUP3 DUP12 ADD PUSH2 0x2042 JUMP JUMPDEST SWAP2 POP POP SWAP3 SWAP6 SWAP9 SWAP2 SWAP5 SWAP8 POP SWAP3 SWAP6 POP JUMP JUMPDEST PUSH1 0x0 DUP1 PUSH1 0x40 DUP4 DUP6 SUB SLT ISZERO PUSH2 0x2110 JUMPI PUSH2 0x210F PUSH2 0x1F63 JUMP JUMPDEST JUMPDEST PUSH1 0x0 PUSH2 0x211E DUP6 DUP3 DUP7 ADD PUSH2 0x1F7F JUMP JUMPDEST SWAP3 POP POP PUSH1 0x20 PUSH2 0x212F DUP6 DUP3 DUP7 ADD PUSH2 0x1F7F JUMP JUMPDEST SWAP2 POP POP SWAP3 POP SWAP3 SWAP1 POP JUMP JUMPDEST PUSH2 0x2142 DUP2 PUSH2 0x1FE1 JUMP JUMPDEST DUP3 MSTORE POP POP JUMP JUMPDEST PUSH1 0x0 PUSH1 0x60 DUP3 ADD SWAP1 POP PUSH2 0x215D PUSH1 0x0 DUP4 ADD DUP7 PUSH2 0x1F39 JUMP JUMPDEST PUSH2 0x216A PUSH1 0x20 DUP4 ADD DUP6 PUSH2 0x1F39 JUMP JUMPDEST PUSH2 0x2177 PUSH1 0x40 DUP4 ADD DUP5 PUSH2 0x2139 JUMP JUMPDEST SWAP5 SWAP4 POP POP POP POP JUMP JUMPDEST PUSH1 0x0 DUP1 PUSH1 0x40 DUP4 DUP6 SUB SLT ISZERO PUSH2 0x2196 JUMPI PUSH2 0x2195 PUSH2 0x1F63 JUMP JUMPDEST JUMPDEST PUSH1 0x0 PUSH2 0x21A4 DUP6 DUP3 DUP7 ADD PUSH2 0x1F7F JUMP JUMPDEST SWAP3 POP POP PUSH1 0x20 PUSH2 0x21B5 DUP6 DUP3 DUP7 ADD PUSH2 0x200A JUMP JUMPDEST SWAP2 POP POP SWAP3 POP SWAP3 SWAP1 POP JUMP JUMPDEST PUSH1 0x0 PUSH1 0x20 DUP3 ADD SWAP1 POP PUSH2 0x21D4 PUSH1 0x0 DUP4 ADD DUP5 PUSH2 0x2139 JUMP JUMPDEST SWAP3 SWAP2 POP POP JUMP JUMPDEST PUSH2 0x21E3 DUP2 PUSH2 0x201F JUMP JUMPDEST DUP3 MSTORE POP POP JUMP JUMPDEST PUSH1 0x0 PUSH2 0x120 DUP3 ADD SWAP1 POP PUSH2 0x21FF PUSH1 0x0 DUP4 ADD DUP13 PUSH2 0x2139 JUMP JUMPDEST PUSH2 0x220C PUSH1 0x20 DUP4 ADD DUP12 PUSH2 0x2139 JUMP JUMPDEST PUSH2 0x2219 PUSH1 0x40 DUP4 ADD DUP11 PUSH2 0x2139 JUMP JUMPDEST PUSH2 0x2226 PUSH1 0x60 DUP4 ADD DUP10 PUSH2 0x1F39 JUMP JUMPDEST PUSH2 0x2233 PUSH1 0x80 DUP4 ADD DUP9 PUSH2 0x1F39 JUMP JUMPDEST PUSH2 0x2240 PUSH1 0xA0 DUP4 ADD DUP8 PUSH2 0x1F39 JUMP JUMPDEST PUSH2 0x224D PUSH1 0xC0 DUP4 ADD DUP7 PUSH2 0x1F39 JUMP JUMPDEST PUSH2 0x225A PUSH1 0xE0 DUP4 ADD DUP6 PUSH2 0x1F39 JUMP JUMPDEST PUSH2 0x2268 PUSH2 0x100 DUP4 ADD DUP5 PUSH2 0x21DA JUMP JUMPDEST SWAP11 SWAP10 POP POP POP POP POP POP POP POP POP POP JUMP JUMPDEST PUSH1 0x0 DUP3 DUP3 MSTORE PUSH1 0x20 DUP3 ADD SWAP1 POP SWAP3 SWAP2 POP POP JUMP JUMPDEST PUSH32 0x4C414E3A206E6F74206F776E6572000000000000000000000000000000000000 PUSH1 0x0 DUP3 ADD MSTORE POP JUMP JUMPDEST PUSH1 0x0 PUSH2 0x22BD PUSH1 0xE DUP4 PUSH2 0x2276 JUMP JUMPDEST SWAP2 POP PUSH2 0x22C8 DUP3 PUSH2 0x2287 JUMP JUMPDEST PUSH1 0x20 DUP3 ADD SWAP1 POP SWAP2 SWAP1 POP JUMP JUMPDEST PUSH1 0x0 PUSH1 0x20 DUP3 ADD SWAP1 POP DUP2 DUP2 SUB PUSH1 0x0 DUP4 ADD MSTORE PUSH2 0x22EC DUP2 PUSH2 0x22B0 JUMP JUMPDEST SWAP1 POP SWAP2 SWAP1 POP JUMP JUMPDEST PUSH32 0x4C414E3A206C6F616E206E6F7420656E64656400000000000000000000000000 PUSH1 0x0 DUP3 ADD MSTORE POP JUMP JUMPDEST PUSH1 0x0 PUSH2 0x2329 PUSH1 0x13 DUP4 PUSH2 0x2276 JUMP JUMPDEST SWAP2 POP PUSH2 0x2334 DUP3 PUSH2 0x22F3 JUMP JUMPDEST PUSH1 0x20 DUP3 ADD SWAP1 POP SWAP2 SWAP1 POP JUMP JUMPDEST PUSH1 0x0 PUSH1 0x20 DUP3 ADD SWAP1 POP DUP2 DUP2 SUB PUSH1 0x0 DUP4 ADD MSTORE PUSH2 0x2358 DUP2 PUSH2 0x231C JUMP JUMPDEST SWAP1 POP SWAP2 SWAP1 POP JUMP JUMPDEST PUSH32 0x4C414E3A206E6F74206C61746573742062696464657200000000000000000000 PUSH1 0x0 DUP3 ADD MSTORE POP JUMP JUMPDEST PUSH1 0x0 PUSH2 0x2395 PUSH1 0x16 DUP4 PUSH2 0x2276 JUMP JUMPDEST SWAP2 POP PUSH2 0x23A0 DUP3 PUSH2 0x235F JUMP JUMPDEST PUSH1 0x20 DUP3 ADD SWAP1 POP SWAP2 SWAP1 POP JUMP JUMPDEST PUSH1 0x0 PUSH1 0x20 DUP3 ADD SWAP1 POP DUP2 DUP2 SUB PUSH1 0x0 DUP4 ADD MSTORE PUSH2 0x23C4 DUP2 PUSH2 0x2388 JUMP JUMPDEST SWAP1 POP SWAP2 SWAP1 POP JUMP JUMPDEST PUSH1 0x0 PUSH1 0x60 DUP3 ADD SWAP1 POP PUSH2 0x23E0 PUSH1 0x0 DUP4 ADD DUP7 PUSH2 0x2139 JUMP JUMPDEST PUSH2 0x23ED PUSH1 0x20 DUP4 ADD DUP6 PUSH2 0x2139 JUMP JUMPDEST PUSH2 0x23FA PUSH1 0x40 DUP4 ADD DUP5 PUSH2 0x1F39 JUMP JUMPDEST SWAP5 SWAP4 POP POP POP POP JUMP JUMPDEST PUSH32 0x4C414E3A2073746172742074696D6520696E2070617374000000000000000000 PUSH1 0x0 DUP3 ADD MSTORE POP JUMP JUMPDEST PUSH1 0x0 PUSH2 0x2438 PUSH1 0x17 DUP4 PUSH2 0x2276 JUMP JUMPDEST SWAP2 POP PUSH2 0x2443 DUP3 PUSH2 0x2402 JUMP JUMPDEST PUSH1 0x20 DUP3 ADD SWAP1 POP SWAP2 SWAP1 POP JUMP JUMPDEST PUSH1 0x0 PUSH1 0x20 DUP3 ADD SWAP1 POP DUP2 DUP2 SUB PUSH1 0x0 DUP4 ADD MSTORE PUSH2 0x2467 DUP2 PUSH2 0x242B JUMP JUMPDEST SWAP1 POP SWAP2 SWAP1 POP JUMP JUMPDEST PUSH32 0x4C414E3A20737461727420616674657220656E64000000000000000000000000 PUSH1 0x0 DUP3 ADD MSTORE POP JUMP JUMPDEST PUSH1 0x0 PUSH2 0x24A4 PUSH1 0x14 DUP4 PUSH2 0x2276 JUMP JUMPDEST SWAP2 POP PUSH2 0x24AF DUP3 PUSH2 0x246E JUMP JUMPDEST PUSH1 0x20 DUP3 ADD SWAP1 POP SWAP2 SWAP1 POP JUMP JUMPDEST PUSH1 0x0 PUSH1 0x20 DUP3 ADD SWAP1 POP DUP2 DUP2 SUB PUSH1 0x0 DUP4 ADD MSTORE PUSH2 0x24D3 DUP2 PUSH2 0x2497 JUMP JUMPDEST SWAP1 POP SWAP2 SWAP1 POP JUMP JUMPDEST PUSH1 0x0 PUSH1 0x40 DUP3 ADD SWAP1 POP PUSH2 0x24EF PUSH1 0x0 DUP4 ADD DUP6 PUSH2 0x2139 JUMP JUMPDEST PUSH2 0x24FC PUSH1 0x20 DUP4 ADD DUP5 PUSH2 0x1F39 JUMP JUMPDEST SWAP4 SWAP3 POP POP POP JUMP JUMPDEST PUSH32 0x4E487B7100000000000000000000000000000000000000000000000000000000 PUSH1 0x0 MSTORE PUSH1 0x11 PUSH1 0x4 MSTORE PUSH1 0x24 PUSH1 0x0 REVERT JUMPDEST PUSH1 0x0 PUSH2 0x253D DUP3 PUSH2 0x1F2F JUMP JUMPDEST SWAP2 POP PUSH32 0xFFFFFFFFFFFFFFFFFFFFFFFFFFFFFFFFFFFFFFFFFFFFFFFFFFFFFFFFFFFFFFFF DUP3 SUB PUSH2 0x256F JUMPI PUSH2 0x256E PUSH2 0x2503 JUMP JUMPDEST JUMPDEST PUSH1 0x1 DUP3 ADD SWAP1 POP SWAP2 SWAP1 POP JUMP JUMPDEST PUSH32 0x4C414E3A20616C72656164792073746172746564000000000000000000000000 PUSH1 0x0 DUP3 ADD MSTORE POP JUMP JUMPDEST PUSH1 0x0 PUSH2 0x25B0 PUSH1 0x14 DUP4 PUSH2 0x2276 JUMP JUMPDEST SWAP2 POP PUSH2 0x25BB DUP3 PUSH2 0x257A JUMP JUMPDEST PUSH1 0x20 DUP3 ADD SWAP1 POP SWAP2 SWAP1 POP JUMP JUMPDEST PUSH1 0x0 PUSH1 0x20 DUP3 ADD SWAP1 POP DUP2 DUP2 SUB PUSH1 0x0 DUP4 ADD MSTORE PUSH2 0x25DF DUP2 PUSH2 0x25A3 JUMP JUMPDEST SWAP1 POP SWAP2 SWAP1 POP JUMP JUMPDEST PUSH32 0x4C414E3A206E6F74207374617274656400000000000000000000000000000000 PUSH1 0x0 DUP3 ADD MSTORE POP JUMP JUMPDEST PUSH1 0x0 PUSH2 0x261C PUSH1 0x10 DUP4 PUSH2 0x2276 JUMP JUMPDEST SWAP2 POP PUSH2 0x2627 DUP3 PUSH2 0x25E6 JUMP JUMPDEST PUSH1 0x20 DUP3 ADD SWAP1 POP SWAP2 SWAP1 POP JUMP JUMPDEST PUSH1 0x0 PUSH1 0x20 DUP3 ADD SWAP1 POP DUP2 DUP2 SUB PUSH1 0x0 DUP4 ADD MSTORE PUSH2 0x264B DUP2 PUSH2 0x260F JUMP JUMPDEST SWAP1 POP SWAP2 SWAP1 POP JUMP JUMPDEST PUSH32 0x4C414E3A20616C726561647920656E6465640000000000000000000000000000 PUSH1 0x0 DUP3 ADD MSTORE POP JUMP JUMPDEST PUSH1 0x0 PUSH2 0x2688 PUSH1 0x12 DUP4 PUSH2 0x2276 JUMP JUMPDEST SWAP2 POP PUSH2 0x2693 DUP3 PUSH2 0x2652 JUMP JUMPDEST PUSH1 0x20 DUP3 ADD SWAP1 POP SWAP2 SWAP1 POP JUMP JUMPDEST PUSH1 0x0 PUSH1 0x20 DUP3 ADD SWAP1 POP DUP2 DUP2 SUB PUSH1 0x0 DUP4 ADD MSTORE PUSH2 0x26B7 DUP2 PUSH2 0x267B JUMP JUMPDEST SWAP1 POP SWAP2 SWAP1 POP JUMP JUMPDEST PUSH1 0x0 PUSH2 0x26C9 DUP3 PUSH2 0x1F2F JUMP JUMPDEST SWAP2 POP PUSH2 0x26D4 DUP4 PUSH2 0x1F2F JUMP JUMPDEST SWAP3 POP DUP3 DUP3 ADD SWAP1 POP DUP1 DUP3 GT ISZERO PUSH2 0x26EC JUMPI PUSH2 0x26EB PUSH2 0x2503 JUMP JUMPDEST JUMPDEST SWAP3 SWAP2 POP POP JUMP JUMPDEST PUSH32 0x4C414E3A20626964206E6F742068696768657200000000000000000000000000 PUSH1 0x0 DUP3 ADD MSTORE POP JUMP JUMPDEST PUSH1 0x0 PUSH2 0x2728 PUSH1 0x13 DUP4 PUSH2 0x2276 JUMP JUMPDEST SWAP2 POP PUSH2 0x2733 DUP3 PUSH2 0x26F2 JUMP JUMPDEST PUSH1 0x20 DUP3 ADD SWAP1 POP SWAP2 SWAP1 POP JUMP JUMPDEST PUSH1 0x0 PUSH1 0x20 DUP3 ADD SWAP1 POP DUP2 DUP2 SUB PUSH1 0x0 DUP4 ADD MSTORE PUSH2 0x2757 DUP2 PUSH2 0x271B JUMP JUMPDEST SWAP1 POP SWAP2 SWAP1 POP JUMP JUMPDEST PUSH1 0x0 DUP2 MLOAD SWAP1 POP PUSH2 0x276D DUP2 PUSH2 0x202B JUMP JUMPDEST SWAP3 SWAP2 POP POP JUMP JUMPDEST PUSH1 0x0 PUSH1 0x20 DUP3 DUP5 SUB SLT ISZERO PUSH2 0x2789 JUMPI PUSH2 0x2788 PUSH2 0x1F63 JUMP JUMPDEST JUMPDEST PUSH1 0x0 PUSH2 0x2797 DUP5 DUP3 DUP6 ADD PUSH2 0x275E JUMP JUMPDEST SWAP2 POP POP SWAP3 SWAP2 POP POP JUMP JUMPDEST PUSH1 0x0 PUSH2 0x27AB DUP3 PUSH2 0x1F2F JUMP JUMPDEST SWAP2 POP PUSH2 0x27B6 DUP4 PUSH2 0x1F2F JUMP JUMPDEST SWAP3 POP DUP3 DUP3 SUB SWAP1 POP DUP2 DUP2 GT ISZERO PUSH2 0x27CE JUMPI PUSH2 0x27CD PUSH2 0x2503 JUMP JUMPDEST JUMPDEST SWAP3 SWAP2 POP POP JUMP JUMPDEST PUSH32 0x4C414E3A204E6F7420746865206C617465737420626964646572000000000000 PUSH1 0x0 DUP3 ADD MSTORE POP JUMP JUMPDEST PUSH1 0x0 PUSH2 0x280A PUSH1 0x1A DUP4 PUSH2 0x2276 JUMP JUMPDEST SWAP2 POP PUSH2 0x2815 DUP3 PUSH2 0x27D4 JUMP JUMPDEST PUSH1 0x20 DUP3 ADD SWAP1 POP SWAP2 SWAP1 POP JUMP JUMPDEST PUSH1 0x0 PUSH1 0x20 DUP3 ADD SWAP1 POP DUP2 DUP2 SUB PUSH1 0x0 DUP4 ADD MSTORE PUSH2 0x2839 DUP2 PUSH2 0x27FD JUMP JUMPDEST SWAP1 POP SWAP2 SWAP1 POP JUMP JUMPDEST PUSH1 0x0 PUSH2 0x284B DUP3 PUSH2 0x1F2F JUMP JUMPDEST SWAP2 POP PUSH2 0x2856 DUP4 PUSH2 0x1F2F JUMP JUMPDEST SWAP3 POP DUP2 PUSH32 0xFFFFFFFFFFFFFFFFFFFFFFFFFFFFFFFFFFFFFFFFFFFFFFFFFFFFFFFFFFFFFFFF DIV DUP4 GT DUP3 ISZERO ISZERO AND ISZERO PUSH2 0x288F JUMPI PUSH2 0x288E PUSH2 0x2503 JUMP JUMPDEST JUMPDEST DUP3 DUP3 MUL SWAP1 POP SWAP3 SWAP2 POP POP JUMP JUMPDEST PUSH32 0x4E487B7100000000000000000000000000000000000000000000000000000000 PUSH1 0x0 MSTORE PUSH1 0x12 PUSH1 0x4 MSTORE PUSH1 0x24 PUSH1 0x0 REVERT JUMPDEST PUSH1 0x0 PUSH2 0x28D4 DUP3 PUSH2 0x1F2F JUMP JUMPDEST SWAP2 POP PUSH2 0x28DF DUP4 PUSH2 0x1F2F JUMP JUMPDEST SWAP3 POP DUP3 PUSH2 0x28EF JUMPI PUSH2 0x28EE PUSH2 0x289A JUMP JUMPDEST JUMPDEST DUP3 DUP3 DIV SWAP1 POP SWAP3 SWAP2 POP POP JUMP INVALID LOG2 PUSH5 0x6970667358 0x22 SLT KECCAK256 COINBASE PUSH29 0x2ECC4748E98339BA0A68D7DCFBEC9E0694C07385659F8FEAFA26C9611D CREATE PUSH5 0x736F6C6343 STOP ADDMOD LT STOP CALLER "
				},
				"gasEstimates": {
					"creation": {
						"codeDepositCost": "2108800",
						"executionCost": "2243",
						"totalCost": "2111043"
					},
					"external": {
						"bid(uint256,uint256)": "infinite",
						"bids(uint256,uint256)": "infinite",
						"cancel(uint256)": "infinite",
						"count()": "2430",
						"endLoan(uint256)": "infinite",
						"launch(address,address,uint256,uint256,uint256,uint256,bool)": "infinite",
						"liquidate(uint256)": "infinite",
						"liquidateEarly(uint256)": "infinite",
						"loans(uint256)": "infinite",
						"setNewBidOwner(uint256,address)": "51252",
						"whitelistedAddresses(uint256,uint256)": "infinite"
					},
					"internal": {
						"_calculateLoanValue(uint256)": "infinite",
						"_ended(uint256)": "2226",
						"_started(uint256)": "2223"
					}
				},
				"methodIdentifiers": {
					"bid(uint256,uint256)": "598647f8",
					"bids(uint256,uint256)": "7b3c4baa",
					"cancel(uint256)": "40e58ee5",
					"count()": "06661abd",
					"endLoan(uint256)": "7870860b",
					"launch(address,address,uint256,uint256,uint256,uint256,bool)": "2613c5d6",
					"liquidate(uint256)": "415f1240",
					"liquidateEarly(uint256)": "18de4f9d",
					"loans(uint256)": "e1ec3c68",
					"setNewBidOwner(uint256,address)": "8f769f3a",
					"whitelistedAddresses(uint256,uint256)": "9bea77da"
				}
			},
			"storageLayout": {
				"storage": [
					{
						"astId": 223,
						"contract": "main.sol:LAN",
						"label": "count",
						"offset": 0,
						"slot": "0",
						"type": "t_uint256"
					},
					{
						"astId": 247,
						"contract": "main.sol:LAN",
						"label": "loans",
						"offset": 0,
						"slot": "1",
						"type": "t_mapping(t_uint256,t_struct(Loan)242_storage)"
					},
					{
						"astId": 261,
						"contract": "main.sol:LAN",
						"label": "bids",
						"offset": 0,
						"slot": "2",
						"type": "t_mapping(t_uint256,t_mapping(t_uint256,t_struct(Bid)254_storage))"
					},
					{
						"astId": 266,
						"contract": "main.sol:LAN",
						"label": "whitelistedAddresses",
						"offset": 0,
						"slot": "3",
						"type": "t_mapping(t_uint256,t_array(t_address)dyn_storage)"
					}
				],
				"types": {
					"t_address": {
						"encoding": "inplace",
						"label": "address",
						"numberOfBytes": "20"
					},
					"t_array(t_address)dyn_storage": {
						"base": "t_address",
						"encoding": "dynamic_array",
						"label": "address[]",
						"numberOfBytes": "32"
					},
					"t_bool": {
						"encoding": "inplace",
						"label": "bool",
						"numberOfBytes": "1"
					},
					"t_mapping(t_uint256,t_array(t_address)dyn_storage)": {
						"encoding": "mapping",
						"key": "t_uint256",
						"label": "mapping(uint256 => address[])",
						"numberOfBytes": "32",
						"value": "t_array(t_address)dyn_storage"
					},
					"t_mapping(t_uint256,t_mapping(t_uint256,t_struct(Bid)254_storage))": {
						"encoding": "mapping",
						"key": "t_uint256",
						"label": "mapping(uint256 => mapping(uint256 => struct LAN.Bid))",
						"numberOfBytes": "32",
						"value": "t_mapping(t_uint256,t_struct(Bid)254_storage)"
					},
					"t_mapping(t_uint256,t_struct(Bid)254_storage)": {
						"encoding": "mapping",
						"key": "t_uint256",
						"label": "mapping(uint256 => struct LAN.Bid)",
						"numberOfBytes": "32",
						"value": "t_struct(Bid)254_storage"
					},
					"t_mapping(t_uint256,t_struct(Loan)242_storage)": {
						"encoding": "mapping",
						"key": "t_uint256",
						"label": "mapping(uint256 => struct LAN.Loan)",
						"numberOfBytes": "32",
						"value": "t_struct(Loan)242_storage"
					},
					"t_struct(Bid)254_storage": {
						"encoding": "inplace",
						"label": "struct LAN.Bid",
						"members": [
							{
								"astId": 249,
								"contract": "main.sol:LAN",
								"label": "bidTime",
								"offset": 0,
								"slot": "0",
								"type": "t_uint256"
							},
							{
								"astId": 251,
								"contract": "main.sol:LAN",
								"label": "bidAmount",
								"offset": 0,
								"slot": "1",
								"type": "t_uint256"
							},
							{
								"astId": 253,
								"contract": "main.sol:LAN",
								"label": "user",
								"offset": 0,
								"slot": "2",
								"type": "t_address"
							}
						],
						"numberOfBytes": "96"
					},
					"t_struct(Loan)242_storage": {
						"encoding": "inplace",
						"label": "struct LAN.Loan",
						"members": [
							{
								"astId": 225,
								"contract": "main.sol:LAN",
								"label": "owner",
								"offset": 0,
								"slot": "0",
								"type": "t_address"
							},
							{
								"astId": 227,
								"contract": "main.sol:LAN",
								"label": "token",
								"offset": 0,
								"slot": "1",
								"type": "t_address"
							},
							{
								"astId": 229,
								"contract": "main.sol:LAN",
								"label": "collectionAddress",
								"offset": 0,
								"slot": "2",
								"type": "t_address"
							},
							{
								"astId": 231,
								"contract": "main.sol:LAN",
								"label": "nftId",
								"offset": 0,
								"slot": "3",
								"type": "t_uint256"
							},
							{
								"astId": 233,
								"contract": "main.sol:LAN",
								"label": "startTime",
								"offset": 0,
								"slot": "4",
								"type": "t_uint256"
							},
							{
								"astId": 235,
								"contract": "main.sol:LAN",
								"label": "endTime",
								"offset": 0,
								"slot": "5",
								"type": "t_uint256"
							},
							{
								"astId": 237,
								"contract": "main.sol:LAN",
								"label": "apr",
								"offset": 0,
								"slot": "6",
								"type": "t_uint256"
							},
							{
								"astId": 239,
								"contract": "main.sol:LAN",
								"label": "numBids",
								"offset": 0,
								"slot": "7",
								"type": "t_uint256"
							},
							{
								"astId": 241,
								"contract": "main.sol:LAN",
								"label": "whitelisted",
								"offset": 0,
								"slot": "8",
								"type": "t_bool"
							}
						],
						"numberOfBytes": "288"
					},
					"t_uint256": {
						"encoding": "inplace",
						"label": "uint256",
						"numberOfBytes": "32"
					}
				}
			},
			"userdoc": {
				"kind": "user",
				"methods": {},
				"version": 1
			}
		}
	}
}