{
	"main.sol": {
		"LAN": {
			"abi": [
				{
					"anonymous": false,
					"inputs": [
						{
							"indexed": false,
							"internalType": "uint256",
							"name": "Id",
							"type": "uint256"
						}
					],
					"name": "loanCancelled",
					"type": "event"
				},
				{
					"anonymous": false,
					"inputs": [
						{
							"indexed": true,
							"internalType": "uint256",
							"name": "poolId",
							"type": "uint256"
						},
						{
							"indexed": false,
							"internalType": "address",
							"name": "collectionAddress",
							"type": "address"
						},
						{
							"indexed": false,
							"internalType": "uint256",
							"name": "nftId",
							"type": "uint256"
						}
					],
					"name": "newPool",
					"type": "event"
				},
				{
					"inputs": [
						{
							"internalType": "uint256",
							"name": "_poolId",
							"type": "uint256"
						},
						{
							"internalType": "uint256",
							"name": "_amount",
							"type": "uint256"
						}
					],
					"name": "bid",
					"outputs": [],
					"stateMutability": "nonpayable",
					"type": "function"
				},
				{
					"inputs": [
						{
							"internalType": "uint256",
							"name": "",
							"type": "uint256"
						},
						{
							"internalType": "uint256",
							"name": "",
							"type": "uint256"
						}
					],
					"name": "bids",
					"outputs": [
						{
							"internalType": "uint256",
							"name": "bidTime",
							"type": "uint256"
						},
						{
							"internalType": "uint256",
							"name": "bidAmount",
							"type": "uint256"
						},
						{
							"internalType": "address",
							"name": "user",
							"type": "address"
						}
					],
					"stateMutability": "view",
					"type": "function"
				},
				{
					"inputs": [
						{
							"internalType": "uint256",
							"name": "_poolId",
							"type": "uint256"
						}
					],
					"name": "cancel",
					"outputs": [],
					"stateMutability": "nonpayable",
					"type": "function"
				},
				{
					"inputs": [],
					"name": "count",
					"outputs": [
						{
							"internalType": "uint256",
							"name": "",
							"type": "uint256"
						}
					],
					"stateMutability": "view",
					"type": "function"
				},
				{
					"inputs": [
						{
							"internalType": "uint256",
							"name": "_poolId",
							"type": "uint256"
						}
					],
					"name": "endLoan",
					"outputs": [],
					"stateMutability": "nonpayable",
					"type": "function"
				},
				{
					"inputs": [
						{
							"internalType": "address",
							"name": "_token",
							"type": "address"
						},
						{
							"internalType": "address",
							"name": "_collectionAddress",
							"type": "address"
						},
						{
							"internalType": "uint256",
							"name": "_nftId",
							"type": "uint256"
						},
						{
							"internalType": "uint256",
							"name": "_startTime",
							"type": "uint256"
						},
						{
							"internalType": "uint256",
							"name": "_endTime",
							"type": "uint256"
						},
						{
							"internalType": "uint256",
							"name": "_apr",
							"type": "uint256"
						},
						{
							"internalType": "bool",
							"name": "",
							"type": "bool"
						}
					],
					"name": "launch",
					"outputs": [],
					"stateMutability": "nonpayable",
					"type": "function"
				},
				{
					"inputs": [
						{
							"internalType": "uint256",
							"name": "_poolId",
							"type": "uint256"
						}
					],
					"name": "liquidate",
					"outputs": [],
					"stateMutability": "nonpayable",
					"type": "function"
				},
				{
					"inputs": [
						{
							"internalType": "uint256",
							"name": "_poolId",
							"type": "uint256"
						}
					],
					"name": "liquidateEarly",
					"outputs": [],
					"stateMutability": "nonpayable",
					"type": "function"
				},
				{
					"inputs": [
						{
							"internalType": "uint256",
							"name": "",
							"type": "uint256"
						}
					],
					"name": "loans",
					"outputs": [
						{
							"internalType": "address",
							"name": "owner",
							"type": "address"
						},
						{
							"internalType": "address",
							"name": "token",
							"type": "address"
						},
						{
							"internalType": "address",
							"name": "collectionAddress",
							"type": "address"
						},
						{
							"internalType": "uint256",
							"name": "nftId",
							"type": "uint256"
						},
						{
							"internalType": "uint256",
							"name": "startTime",
							"type": "uint256"
						},
						{
							"internalType": "uint256",
							"name": "endTime",
							"type": "uint256"
						},
						{
							"internalType": "uint256",
							"name": "apr",
							"type": "uint256"
						},
						{
							"internalType": "uint256",
							"name": "numBids",
							"type": "uint256"
						},
						{
							"internalType": "bool",
							"name": "whitelisted",
							"type": "bool"
						}
					],
					"stateMutability": "view",
					"type": "function"
				},
				{
					"inputs": [
						{
							"internalType": "uint256",
							"name": "_poolId",
							"type": "uint256"
						},
						{
							"internalType": "address",
							"name": "_newAddress",
							"type": "address"
						}
					],
					"name": "setNewBidOwner",
					"outputs": [],
					"stateMutability": "nonpayable",
					"type": "function"
				},
				{
					"inputs": [
						{
							"internalType": "uint256",
							"name": "",
							"type": "uint256"
						},
						{
							"internalType": "uint256",
							"name": "",
							"type": "uint256"
						}
					],
					"name": "whitelistedAddresses",
					"outputs": [
						{
							"internalType": "address",
							"name": "",
							"type": "address"
						}
					],
					"stateMutability": "view",
					"type": "function"
				}
			],
			"devdoc": {
				"kind": "dev",
				"methods": {},
				"version": 1
			},
			"evm": {
				"assembly": "    /* \"main.sol\":142:6232  contract LAN{... */\n  mstore(0x40, 0x80)\n  callvalue\n  dup1\n  iszero\n  tag_1\n  jumpi\n  0x00\n  dup1\n  revert\ntag_1:\n  pop\n  dataSize(sub_0)\n  dup1\n  dataOffset(sub_0)\n  0x00\n  codecopy\n  0x00\n  return\nstop\n\nsub_0: assembly {\n        /* \"main.sol\":142:6232  contract LAN{... */\n      mstore(0x40, 0x80)\n      callvalue\n      dup1\n      iszero\n      tag_1\n      jumpi\n      0x00\n      dup1\n      revert\n    tag_1:\n      pop\n      jumpi(tag_2, lt(calldatasize, 0x04))\n      shr(0xe0, calldataload(0x00))\n      dup1\n      0x598647f8\n      gt\n      tag_14\n      jumpi\n      dup1\n      0x598647f8\n      eq\n      tag_8\n      jumpi\n      dup1\n      0x7870860b\n      eq\n      tag_9\n      jumpi\n      dup1\n      0x7b3c4baa\n      eq\n      tag_10\n      jumpi\n      dup1\n      0x8f769f3a\n      eq\n      tag_11\n      jumpi\n      dup1\n      0x9bea77da\n      eq\n      tag_12\n      jumpi\n      dup1\n      0xe1ec3c68\n      eq\n      tag_13\n      jumpi\n      jump(tag_2)\n    tag_14:\n      dup1\n      0x06661abd\n      eq\n      tag_3\n      jumpi\n      dup1\n      0x18de4f9d\n      eq\n      tag_4\n      jumpi\n      dup1\n      0x2613c5d6\n      eq\n      tag_5\n      jumpi\n      dup1\n      0x40e58ee5\n      eq\n      tag_6\n      jumpi\n      dup1\n      0x415f1240\n      eq\n      tag_7\n      jumpi\n    tag_2:\n      0x00\n      dup1\n      revert\n        /* \"main.sol\":313:333  uint256 public count */\n    tag_3:\n      tag_15\n      tag_16\n      jump\t// in\n    tag_15:\n      mload(0x40)\n      tag_17\n      swap2\n      swap1\n      tag_18\n      jump\t// in\n    tag_17:\n      mload(0x40)\n      dup1\n      swap2\n      sub\n      swap1\n      return\n        /* \"main.sol\":4936:5397  function liquidateEarly(uint256 _poolId) external onlyOwner(_poolId) {... */\n    tag_4:\n      tag_19\n      0x04\n      dup1\n      calldatasize\n      sub\n      dup2\n      add\n      swap1\n      tag_20\n      swap2\n      swap1\n      tag_21\n      jump\t// in\n    tag_20:\n      tag_22\n      jump\t// in\n    tag_19:\n      stop\n        /* \"main.sol\":1269:2003  function launch(address _token, address _collectionAddress, uint256 _nftId, uint256 _startTime, uint256 _endTime, uint256 _apr, bool ) public {... */\n    tag_5:\n      tag_23\n      0x04\n      dup1\n      calldatasize\n      sub\n      dup2\n      add\n      swap1\n      tag_24\n      swap2\n      swap1\n      tag_25\n      jump\t// in\n    tag_24:\n      tag_26\n      jump\t// in\n    tag_23:\n      stop\n        /* \"main.sol\":3513:3757  function cancel(uint256 _poolId) external onlyOwner(_poolId) {... */\n    tag_6:\n      tag_27\n      0x04\n      dup1\n      calldatasize\n      sub\n      dup2\n      add\n      swap1\n      tag_28\n      swap2\n      swap1\n      tag_21\n      jump\t// in\n    tag_28:\n      tag_29\n      jump\t// in\n    tag_27:\n      stop\n        /* \"main.sol\":4327:4760  function liquidate(uint256 _poolId) external {... */\n    tag_7:\n      tag_30\n      0x04\n      dup1\n      calldatasize\n      sub\n      dup2\n      add\n      swap1\n      tag_31\n      swap2\n      swap1\n      tag_21\n      jump\t// in\n    tag_31:\n      tag_32\n      jump\t// in\n    tag_30:\n      stop\n        /* \"main.sol\":2009:2915  function bid(uint256 _poolId, uint256 _amount) external {... */\n    tag_8:\n      tag_33\n      0x04\n      dup1\n      calldatasize\n      sub\n      dup2\n      add\n      swap1\n      tag_34\n      swap2\n      swap1\n      tag_35\n      jump\t// in\n    tag_34:\n      tag_36\n      jump\t// in\n    tag_33:\n      stop\n        /* \"main.sol\":3796:4273  function endLoan(uint256 _poolId) external onlyOwner(_poolId) {... */\n    tag_9:\n      tag_37\n      0x04\n      dup1\n      calldatasize\n      sub\n      dup2\n      add\n      swap1\n      tag_38\n      swap2\n      swap1\n      tag_21\n      jump\t// in\n    tag_38:\n      tag_39\n      jump\t// in\n    tag_37:\n      stop\n        /* \"main.sol\":872:927  mapping(uint256 => mapping(uint256 => Bid)) public bids */\n    tag_10:\n      tag_40\n      0x04\n      dup1\n      calldatasize\n      sub\n      dup2\n      add\n      swap1\n      tag_41\n      swap2\n      swap1\n      tag_35\n      jump\t// in\n    tag_41:\n      tag_42\n      jump\t// in\n    tag_40:\n      mload(0x40)\n      tag_43\n      swap4\n      swap3\n      swap2\n      swap1\n      tag_44\n      jump\t// in\n    tag_43:\n      mload(0x40)\n      dup1\n      swap2\n      sub\n      swap1\n      return\n        /* \"main.sol\":3056:3466  function setNewBidOwner(uint256 _poolId, address _newAddress) external{... */\n    tag_11:\n      tag_45\n      0x04\n      dup1\n      calldatasize\n      sub\n      dup2\n      add\n      swap1\n      tag_46\n      swap2\n      swap1\n      tag_47\n      jump\t// in\n    tag_46:\n      tag_48\n      jump\t// in\n    tag_45:\n      stop\n        /* \"main.sol\":1009:1066  mapping(uint256 => address[]) public whitelistedAddresses */\n    tag_12:\n      tag_49\n      0x04\n      dup1\n      calldatasize\n      sub\n      dup2\n      add\n      swap1\n      tag_50\n      swap2\n      swap1\n      tag_35\n      jump\t// in\n    tag_50:\n      tag_51\n      jump\t// in\n    tag_49:\n      mload(0x40)\n      tag_52\n      swap2\n      swap1\n      tag_53\n      jump\t// in\n    tag_52:\n      mload(0x40)\n      dup1\n      swap2\n      sub\n      swap1\n      return\n        /* \"main.sol\":708:745  mapping(uint256 => Loan) public loans */\n    tag_13:\n      tag_54\n      0x04\n      dup1\n      calldatasize\n      sub\n      dup2\n      add\n      swap1\n      tag_55\n      swap2\n      swap1\n      tag_21\n      jump\t// in\n    tag_55:\n      tag_56\n      jump\t// in\n    tag_54:\n      mload(0x40)\n      tag_57\n      swap10\n      swap9\n      swap8\n      swap7\n      swap6\n      swap5\n      swap4\n      swap3\n      swap2\n      swap1\n      tag_58\n      jump\t// in\n    tag_57:\n      mload(0x40)\n      dup1\n      swap2\n      sub\n      swap1\n      return\n        /* \"main.sol\":313:333  uint256 public count */\n    tag_16:\n      sload(0x00)\n      dup2\n      jump\t// out\n        /* \"main.sol\":4936:5397  function liquidateEarly(uint256 _poolId) external onlyOwner(_poolId) {... */\n    tag_22:\n        /* \"main.sol\":4996:5003  _poolId */\n      dup1\n        /* \"main.sol\":1216:1226  msg.sender */\n      caller\n        /* \"main.sol\":1192:1226  loans[_poolId].owner == msg.sender */\n      0xffffffffffffffffffffffffffffffffffffffff\n      and\n        /* \"main.sol\":1192:1197  loans */\n      0x01\n        /* \"main.sol\":1192:1206  loans[_poolId] */\n      0x00\n        /* \"main.sol\":1198:1205  _poolId */\n      dup4\n        /* \"main.sol\":1192:1206  loans[_poolId] */\n      dup2\n      mstore\n      0x20\n      add\n      swap1\n      dup2\n      mstore\n      0x20\n      add\n      0x00\n      keccak256\n        /* \"main.sol\":1192:1212  loans[_poolId].owner */\n      0x00\n      add\n      0x00\n      swap1\n      sload\n      swap1\n      0x0100\n      exp\n      swap1\n      div\n      0xffffffffffffffffffffffffffffffffffffffff\n      and\n        /* \"main.sol\":1192:1226  loans[_poolId].owner == msg.sender */\n      0xffffffffffffffffffffffffffffffffffffffff\n      and\n      eq\n        /* \"main.sol\":1184:1245  require(loans[_poolId].owner == msg.sender, \"LAN: not owner\") */\n      tag_60\n      jumpi\n      mload(0x40)\n      0x08c379a000000000000000000000000000000000000000000000000000000000\n      dup2\n      mstore\n      0x04\n      add\n      tag_61\n      swap1\n      tag_62\n      jump\t// in\n    tag_61:\n      mload(0x40)\n      dup1\n      swap2\n      sub\n      swap1\n      revert\n    tag_60:\n        /* \"main.sol\":5015:5031  Loan memory loan */\n      0x00\n        /* \"main.sol\":5034:5039  loans */\n      0x01\n        /* \"main.sol\":5034:5048  loans[_poolId] */\n      0x00\n        /* \"main.sol\":5040:5047  _poolId */\n      dup5\n        /* \"main.sol\":5034:5048  loans[_poolId] */\n      dup2\n      mstore\n      0x20\n      add\n      swap1\n      dup2\n      mstore\n      0x20\n      add\n      0x00\n      keccak256\n        /* \"main.sol\":5015:5048  Loan memory loan = loans[_poolId] */\n      mload(0x40)\n      dup1\n      0x0120\n      add\n      0x40\n      mstore\n      swap1\n      dup2\n      0x00\n      dup3\n      add\n      0x00\n      swap1\n      sload\n      swap1\n      0x0100\n      exp\n      swap1\n      div\n      0xffffffffffffffffffffffffffffffffffffffff\n      and\n      0xffffffffffffffffffffffffffffffffffffffff\n      and\n      0xffffffffffffffffffffffffffffffffffffffff\n      and\n      dup2\n      mstore\n      0x20\n      add\n      0x01\n      dup3\n      add\n      0x00\n      swap1\n      sload\n      swap1\n      0x0100\n      exp\n      swap1\n      div\n      0xffffffffffffffffffffffffffffffffffffffff\n      and\n      0xffffffffffffffffffffffffffffffffffffffff\n      and\n      0xffffffffffffffffffffffffffffffffffffffff\n      and\n      dup2\n      mstore\n      0x20\n      add\n      0x02\n      dup3\n      add\n      0x00\n      swap1\n      sload\n      swap1\n      0x0100\n      exp\n      swap1\n      div\n      0xffffffffffffffffffffffffffffffffffffffff\n      and\n      0xffffffffffffffffffffffffffffffffffffffff\n      and\n      0xffffffffffffffffffffffffffffffffffffffff\n      and\n      dup2\n      mstore\n      0x20\n      add\n      0x03\n      dup3\n      add\n      sload\n      dup2\n      mstore\n      0x20\n      add\n      0x04\n      dup3\n      add\n      sload\n      dup2\n      mstore\n      0x20\n      add\n      0x05\n      dup3\n      add\n      sload\n      dup2\n      mstore\n      0x20\n      add\n      0x06\n      dup3\n      add\n      sload\n      dup2\n      mstore\n      0x20\n      add\n      0x07\n      dup3\n      add\n      sload\n      dup2\n      mstore\n      0x20\n      add\n      0x08\n      dup3\n      add\n      0x00\n      swap1\n      sload\n      swap1\n      0x0100\n      exp\n      swap1\n      div\n      0xff\n      and\n      iszero\n      iszero\n      iszero\n      iszero\n      dup2\n      mstore\n      pop\n      pop\n      swap1\n      pop\n        /* \"main.sol\":5066:5081  _ended(_poolId) */\n      tag_64\n        /* \"main.sol\":5073:5080  _poolId */\n      dup4\n        /* \"main.sol\":5066:5072  _ended */\n      tag_65\n        /* \"main.sol\":5066:5081  _ended(_poolId) */\n      jump\t// in\n    tag_64:\n        /* \"main.sol\":5058:5105  require(_ended(_poolId), \"LAN: loan not ended\") */\n      tag_66\n      jumpi\n      mload(0x40)\n      0x08c379a000000000000000000000000000000000000000000000000000000000\n      dup2\n      mstore\n      0x04\n      add\n      tag_67\n      swap1\n      tag_68\n      jump\t// in\n    tag_67:\n      mload(0x40)\n      dup1\n      swap2\n      sub\n      swap1\n      revert\n    tag_66:\n        /* \"main.sol\":5115:5135  Bid memory latestBid */\n      0x00\n        /* \"main.sol\":5138:5142  bids */\n      0x02\n        /* \"main.sol\":5138:5151  bids[_poolId] */\n      0x00\n        /* \"main.sol\":5143:5150  _poolId */\n      dup6\n        /* \"main.sol\":5138:5151  bids[_poolId] */\n      dup2\n      mstore\n      0x20\n      add\n      swap1\n      dup2\n      mstore\n      0x20\n      add\n      0x00\n      keccak256\n        /* \"main.sol\":5138:5165  bids[_poolId][loan.numBids] */\n      0x00\n        /* \"main.sol\":5152:5156  loan */\n      dup4\n        /* \"main.sol\":5152:5164  loan.numBids */\n      0xe0\n      add\n      mload\n        /* \"main.sol\":5138:5165  bids[_poolId][loan.numBids] */\n      dup2\n      mstore\n      0x20\n      add\n      swap1\n      dup2\n      mstore\n      0x20\n      add\n      0x00\n      keccak256\n        /* \"main.sol\":5115:5165  Bid memory latestBid = bids[_poolId][loan.numBids] */\n      mload(0x40)\n      dup1\n      0x60\n      add\n      0x40\n      mstore\n      swap1\n      dup2\n      0x00\n      dup3\n      add\n      sload\n      dup2\n      mstore\n      0x20\n      add\n      0x01\n      dup3\n      add\n      sload\n      dup2\n      mstore\n      0x20\n      add\n      0x02\n      dup3\n      add\n      0x00\n      swap1\n      sload\n      swap1\n      0x0100\n      exp\n      swap1\n      div\n      0xffffffffffffffffffffffffffffffffffffffff\n      and\n      0xffffffffffffffffffffffffffffffffffffffff\n      and\n      0xffffffffffffffffffffffffffffffffffffffff\n      and\n      dup2\n      mstore\n      pop\n      pop\n      swap1\n      pop\n        /* \"main.sol\":5201:5211  msg.sender */\n      caller\n        /* \"main.sol\":5183:5211  latestBid.user == msg.sender */\n      0xffffffffffffffffffffffffffffffffffffffff\n      and\n        /* \"main.sol\":5183:5192  latestBid */\n      dup2\n        /* \"main.sol\":5183:5197  latestBid.user */\n      0x40\n      add\n      mload\n        /* \"main.sol\":5183:5211  latestBid.user == msg.sender */\n      0xffffffffffffffffffffffffffffffffffffffff\n      and\n      eq\n        /* \"main.sol\":5175:5238  require(latestBid.user == msg.sender, \"LAN: not latest bidder\") */\n      tag_69\n      jumpi\n      mload(0x40)\n      0x08c379a000000000000000000000000000000000000000000000000000000000\n      dup2\n      mstore\n      0x04\n      add\n      tag_70\n      swap1\n      tag_71\n      jump\t// in\n    tag_70:\n      mload(0x40)\n      dup1\n      swap2\n      sub\n      swap1\n      revert\n    tag_69:\n        /* \"main.sol\":5272:5283  IERC721 NFT */\n      0x00\n        /* \"main.sol\":5294:5298  loan */\n      dup3\n        /* \"main.sol\":5294:5316  loan.collectionAddress */\n      0x40\n      add\n      mload\n        /* \"main.sol\":5272:5317  IERC721 NFT = IERC721(loan.collectionAddress) */\n      swap1\n      pop\n        /* \"main.sol\":5327:5330  NFT */\n      dup1\n        /* \"main.sol\":5327:5347  NFT.safeTransferFrom */\n      0xffffffffffffffffffffffffffffffffffffffff\n      and\n      0x42842e0e\n        /* \"main.sol\":5356:5360  this */\n      address\n        /* \"main.sol\":5363:5372  latestBid */\n      dup5\n        /* \"main.sol\":5363:5377  latestBid.user */\n      0x40\n      add\n      mload\n        /* \"main.sol\":5379:5383  loan */\n      dup7\n        /* \"main.sol\":5379:5389  loan.nftId */\n      0x60\n      add\n      mload\n        /* \"main.sol\":5327:5390  NFT.safeTransferFrom(address(this), latestBid.user, loan.nftId) */\n      mload(0x40)\n      dup5\n      0xffffffff\n      and\n      0xe0\n      shl\n      dup2\n      mstore\n      0x04\n      add\n      tag_72\n      swap4\n      swap3\n      swap2\n      swap1\n      tag_73\n      jump\t// in\n    tag_72:\n      0x00\n      mload(0x40)\n      dup1\n      dup4\n      sub\n      dup2\n      0x00\n      dup8\n      dup1\n      extcodesize\n      iszero\n      dup1\n      iszero\n      tag_74\n      jumpi\n      0x00\n      dup1\n      revert\n    tag_74:\n      pop\n      gas\n      call\n      iszero\n      dup1\n      iszero\n      tag_76\n      jumpi\n      returndatasize\n      0x00\n      dup1\n      returndatacopy\n      revert(0x00, returndatasize)\n    tag_76:\n      pop\n      pop\n      pop\n      pop\n        /* \"main.sol\":5005:5397  {... */\n      pop\n      pop\n      pop\n        /* \"main.sol\":4936:5397  function liquidateEarly(uint256 _poolId) external onlyOwner(_poolId) {... */\n      pop\n      pop\n      jump\t// out\n        /* \"main.sol\":1269:2003  function launch(address _token, address _collectionAddress, uint256 _nftId, uint256 _startTime, uint256 _endTime, uint256 _apr, bool ) public {... */\n    tag_26:\n        /* \"main.sol\":1443:1458  block.timestamp */\n      timestamp\n        /* \"main.sol\":1429:1439  _startTime */\n      dup5\n        /* \"main.sol\":1429:1458  _startTime >= block.timestamp */\n      lt\n      iszero\n        /* \"main.sol\":1421:1486  require(_startTime >= block.timestamp, \"LAN: start time in past\") */\n      tag_78\n      jumpi\n      mload(0x40)\n      0x08c379a000000000000000000000000000000000000000000000000000000000\n      dup2\n      mstore\n      0x04\n      add\n      tag_79\n      swap1\n      tag_80\n      jump\t// in\n    tag_79:\n      mload(0x40)\n      dup1\n      swap2\n      sub\n      swap1\n      revert\n    tag_78:\n        /* \"main.sol\":1515:1525  _startTime */\n      dup4\n        /* \"main.sol\":1504:1512  _endTime */\n      dup4\n        /* \"main.sol\":1504:1525  _endTime > _startTime */\n      gt\n        /* \"main.sol\":1496:1550  require(_endTime > _startTime, \"LAN: start after end\") */\n      tag_81\n      jumpi\n      mload(0x40)\n      0x08c379a000000000000000000000000000000000000000000000000000000000\n      dup2\n      mstore\n      0x04\n      add\n      tag_82\n      swap1\n      tag_83\n      jump\t// in\n    tag_82:\n      mload(0x40)\n      dup1\n      swap2\n      sub\n      swap1\n      revert\n    tag_81:\n        /* \"main.sol\":1575:1872  Loan({... */\n      mload(0x40)\n      dup1\n      0x0120\n      add\n      0x40\n      mstore\n      dup1\n        /* \"main.sol\":1601:1611  msg.sender */\n      caller\n        /* \"main.sol\":1575:1872  Loan({... */\n      0xffffffffffffffffffffffffffffffffffffffff\n      and\n      dup2\n      mstore\n      0x20\n      add\n        /* \"main.sol\":1632:1638  _token */\n      dup9\n        /* \"main.sol\":1575:1872  Loan({... */\n      0xffffffffffffffffffffffffffffffffffffffff\n      and\n      dup2\n      mstore\n      0x20\n      add\n        /* \"main.sol\":1671:1689  _collectionAddress */\n      dup8\n        /* \"main.sol\":1575:1872  Loan({... */\n      0xffffffffffffffffffffffffffffffffffffffff\n      and\n      dup2\n      mstore\n      0x20\n      add\n        /* \"main.sol\":1710:1716  _nftId */\n      dup7\n        /* \"main.sol\":1575:1872  Loan({... */\n      dup2\n      mstore\n      0x20\n      add\n        /* \"main.sol\":1772:1782  _startTime */\n      dup6\n        /* \"main.sol\":1575:1872  Loan({... */\n      dup2\n      mstore\n      0x20\n      add\n        /* \"main.sol\":1739:1747  _endTime */\n      dup5\n        /* \"main.sol\":1575:1872  Loan({... */\n      dup2\n      mstore\n      0x20\n      add\n        /* \"main.sol\":1801:1805  _apr */\n      dup4\n        /* \"main.sol\":1575:1872  Loan({... */\n      dup2\n      mstore\n      0x20\n      add\n        /* \"main.sol\":1828:1829  0 */\n      0x00\n        /* \"main.sol\":1575:1872  Loan({... */\n      dup2\n      mstore\n      0x20\n      add\n        /* \"main.sol\":1856:1861  false */\n      0x00\n        /* \"main.sol\":1575:1872  Loan({... */\n      iszero\n      iszero\n      dup2\n      mstore\n      pop\n        /* \"main.sol\":1560:1565  loans */\n      0x01\n        /* \"main.sol\":1560:1572  loans[count] */\n      0x00\n        /* \"main.sol\":1566:1571  count */\n      dup1\n      sload\n        /* \"main.sol\":1560:1572  loans[count] */\n      dup2\n      mstore\n      0x20\n      add\n      swap1\n      dup2\n      mstore\n      0x20\n      add\n      0x00\n      keccak256\n        /* \"main.sol\":1560:1872  loans[count] = Loan({... */\n      0x00\n      dup3\n      add\n      mload\n      dup2\n      0x00\n      add\n      exp(0x0100, 0x00)\n      dup2\n      sload\n      dup2\n      0xffffffffffffffffffffffffffffffffffffffff\n      mul\n      not\n      and\n      swap1\n      dup4\n      0xffffffffffffffffffffffffffffffffffffffff\n      and\n      mul\n      or\n      swap1\n      sstore\n      pop\n      0x20\n      dup3\n      add\n      mload\n      dup2\n      0x01\n      add\n      exp(0x0100, 0x00)\n      dup2\n      sload\n      dup2\n      0xffffffffffffffffffffffffffffffffffffffff\n      mul\n      not\n      and\n      swap1\n      dup4\n      0xffffffffffffffffffffffffffffffffffffffff\n      and\n      mul\n      or\n      swap1\n      sstore\n      pop\n      0x40\n      dup3\n      add\n      mload\n      dup2\n      0x02\n      add\n      exp(0x0100, 0x00)\n      dup2\n      sload\n      dup2\n      0xffffffffffffffffffffffffffffffffffffffff\n      mul\n      not\n      and\n      swap1\n      dup4\n      0xffffffffffffffffffffffffffffffffffffffff\n      and\n      mul\n      or\n      swap1\n      sstore\n      pop\n      0x60\n      dup3\n      add\n      mload\n      dup2\n      0x03\n      add\n      sstore\n      0x80\n      dup3\n      add\n      mload\n      dup2\n      0x04\n      add\n      sstore\n      0xa0\n      dup3\n      add\n      mload\n      dup2\n      0x05\n      add\n      sstore\n      0xc0\n      dup3\n      add\n      mload\n      dup2\n      0x06\n      add\n      sstore\n      0xe0\n      dup3\n      add\n      mload\n      dup2\n      0x07\n      add\n      sstore\n      0x0100\n      dup3\n      add\n      mload\n      dup2\n      0x08\n      add\n      exp(0x0100, 0x00)\n      dup2\n      sload\n      dup2\n      0xff\n      mul\n      not\n      and\n      swap1\n      dup4\n      iszero\n      iszero\n      mul\n      or\n      swap1\n      sstore\n      pop\n      swap1\n      pop\n      pop\n        /* \"main.sol\":1907:1922  block.timestamp */\n      timestamp\n        /* \"main.sol\":1882:1886  bids */\n      0x02\n        /* \"main.sol\":1882:1893  bids[count] */\n      0x00\n        /* \"main.sol\":1887:1892  count */\n      dup1\n      sload\n        /* \"main.sol\":1882:1893  bids[count] */\n      dup2\n      mstore\n      0x20\n      add\n      swap1\n      dup2\n      mstore\n      0x20\n      add\n      0x00\n      keccak256\n        /* \"main.sol\":1882:1896  bids[count][0] */\n      0x00\n        /* \"main.sol\":1894:1895  0 */\n      dup1\n        /* \"main.sol\":1882:1896  bids[count][0] */\n      dup2\n      mstore\n      0x20\n      add\n      swap1\n      dup2\n      mstore\n      0x20\n      add\n      0x00\n      keccak256\n        /* \"main.sol\":1882:1904  bids[count][0].bidTime */\n      0x00\n      add\n        /* \"main.sol\":1882:1922  bids[count][0].bidTime = block.timestamp */\n      dup2\n      swap1\n      sstore\n      pop\n        /* \"main.sol\":1945:1950  count */\n      sload(0x00)\n        /* \"main.sol\":1937:1979  newPool(count, _collectionAddress, _nftId) */\n      0xef8b2952c43462575e82711d0cc91169720a4589a9fa533d173e022437f5405e\n        /* \"main.sol\":1952:1970  _collectionAddress */\n      dup8\n        /* \"main.sol\":1972:1978  _nftId */\n      dup8\n        /* \"main.sol\":1937:1979  newPool(count, _collectionAddress, _nftId) */\n      mload(0x40)\n      tag_84\n      swap3\n      swap2\n      swap1\n      tag_85\n      jump\t// in\n    tag_84:\n      mload(0x40)\n      dup1\n      swap2\n      sub\n      swap1\n      log2\n        /* \"main.sol\":1989:1994  count */\n      0x00\n      dup1\n        /* \"main.sol\":1989:1996  count++ */\n      dup2\n      sload\n      dup1\n      swap3\n      swap2\n      swap1\n      tag_86\n      swap1\n      tag_87\n      jump\t// in\n    tag_86:\n      swap2\n      swap1\n      pop\n      sstore\n      pop\n        /* \"main.sol\":1269:2003  function launch(address _token, address _collectionAddress, uint256 _nftId, uint256 _startTime, uint256 _endTime, uint256 _apr, bool ) public {... */\n      pop\n      pop\n      pop\n      pop\n      pop\n      pop\n      pop\n      jump\t// out\n        /* \"main.sol\":3513:3757  function cancel(uint256 _poolId) external onlyOwner(_poolId) {... */\n    tag_29:\n        /* \"main.sol\":3565:3572  _poolId */\n      dup1\n        /* \"main.sol\":1216:1226  msg.sender */\n      caller\n        /* \"main.sol\":1192:1226  loans[_poolId].owner == msg.sender */\n      0xffffffffffffffffffffffffffffffffffffffff\n      and\n        /* \"main.sol\":1192:1197  loans */\n      0x01\n        /* \"main.sol\":1192:1206  loans[_poolId] */\n      0x00\n        /* \"main.sol\":1198:1205  _poolId */\n      dup4\n        /* \"main.sol\":1192:1206  loans[_poolId] */\n      dup2\n      mstore\n      0x20\n      add\n      swap1\n      dup2\n      mstore\n      0x20\n      add\n      0x00\n      keccak256\n        /* \"main.sol\":1192:1212  loans[_poolId].owner */\n      0x00\n      add\n      0x00\n      swap1\n      sload\n      swap1\n      0x0100\n      exp\n      swap1\n      div\n      0xffffffffffffffffffffffffffffffffffffffff\n      and\n        /* \"main.sol\":1192:1226  loans[_poolId].owner == msg.sender */\n      0xffffffffffffffffffffffffffffffffffffffff\n      and\n      eq\n        /* \"main.sol\":1184:1245  require(loans[_poolId].owner == msg.sender, \"LAN: not owner\") */\n      tag_89\n      jumpi\n      mload(0x40)\n      0x08c379a000000000000000000000000000000000000000000000000000000000\n      dup2\n      mstore\n      0x04\n      add\n      tag_90\n      swap1\n      tag_62\n      jump\t// in\n    tag_90:\n      mload(0x40)\n      dup1\n      swap2\n      sub\n      swap1\n      revert\n    tag_89:\n        /* \"main.sol\":3584:3600  Loan memory loan */\n      0x00\n        /* \"main.sol\":3603:3608  loans */\n      0x01\n        /* \"main.sol\":3603:3617  loans[_poolId] */\n      0x00\n        /* \"main.sol\":3609:3616  _poolId */\n      dup5\n        /* \"main.sol\":3603:3617  loans[_poolId] */\n      dup2\n      mstore\n      0x20\n      add\n      swap1\n      dup2\n      mstore\n      0x20\n      add\n      0x00\n      keccak256\n        /* \"main.sol\":3584:3617  Loan memory loan = loans[_poolId] */\n      mload(0x40)\n      dup1\n      0x0120\n      add\n      0x40\n      mstore\n      swap1\n      dup2\n      0x00\n      dup3\n      add\n      0x00\n      swap1\n      sload\n      swap1\n      0x0100\n      exp\n      swap1\n      div\n      0xffffffffffffffffffffffffffffffffffffffff\n      and\n      0xffffffffffffffffffffffffffffffffffffffff\n      and\n      0xffffffffffffffffffffffffffffffffffffffff\n      and\n      dup2\n      mstore\n      0x20\n      add\n      0x01\n      dup3\n      add\n      0x00\n      swap1\n      sload\n      swap1\n      0x0100\n      exp\n      swap1\n      div\n      0xffffffffffffffffffffffffffffffffffffffff\n      and\n      0xffffffffffffffffffffffffffffffffffffffff\n      and\n      0xffffffffffffffffffffffffffffffffffffffff\n      and\n      dup2\n      mstore\n      0x20\n      add\n      0x02\n      dup3\n      add\n      0x00\n      swap1\n      sload\n      swap1\n      0x0100\n      exp\n      swap1\n      div\n      0xffffffffffffffffffffffffffffffffffffffff\n      and\n      0xffffffffffffffffffffffffffffffffffffffff\n      and\n      0xffffffffffffffffffffffffffffffffffffffff\n      and\n      dup2\n      mstore\n      0x20\n      add\n      0x03\n      dup3\n      add\n      sload\n      dup2\n      mstore\n      0x20\n      add\n      0x04\n      dup3\n      add\n      sload\n      dup2\n      mstore\n      0x20\n      add\n      0x05\n      dup3\n      add\n      sload\n      dup2\n      mstore\n      0x20\n      add\n      0x06\n      dup3\n      add\n      sload\n      dup2\n      mstore\n      0x20\n      add\n      0x07\n      dup3\n      add\n      sload\n      dup2\n      mstore\n      0x20\n      add\n      0x08\n      dup3\n      add\n      0x00\n      swap1\n      sload\n      swap1\n      0x0100\n      exp\n      swap1\n      div\n      0xff\n      and\n      iszero\n      iszero\n      iszero\n      iszero\n      dup2\n      mstore\n      pop\n      pop\n      swap1\n      pop\n        /* \"main.sol\":3652:3667  block.timestamp */\n      timestamp\n        /* \"main.sol\":3635:3639  loan */\n      dup2\n        /* \"main.sol\":3635:3649  loan.startTime */\n      0x80\n      add\n      mload\n        /* \"main.sol\":3635:3667  loan.startTime > block.timestamp */\n      gt\n        /* \"main.sol\":3627:3692  require(loan.startTime > block.timestamp, \"LAN: already started\") */\n      tag_92\n      jumpi\n      mload(0x40)\n      0x08c379a000000000000000000000000000000000000000000000000000000000\n      dup2\n      mstore\n      0x04\n      add\n      tag_93\n      swap1\n      tag_94\n      jump\t// in\n    tag_93:\n      mload(0x40)\n      dup1\n      swap2\n      sub\n      swap1\n      revert\n    tag_92:\n        /* \"main.sol\":3702:3713  delete loan */\n      tag_95\n      tag_96\n      jump\t// in\n    tag_95:\n      swap1\n      pop\n        /* \"main.sol\":3728:3750  loanCancelled(_poolId) */\n      0xfe785ef891129b084b1c5a30e4d88eb97c97822c024cc25d5f9d806b897512e0\n        /* \"main.sol\":3742:3749  _poolId */\n      dup4\n        /* \"main.sol\":3728:3750  loanCancelled(_poolId) */\n      mload(0x40)\n      tag_97\n      swap2\n      swap1\n      tag_18\n      jump\t// in\n    tag_97:\n      mload(0x40)\n      dup1\n      swap2\n      sub\n      swap1\n      log1\n        /* \"main.sol\":3574:3757  {... */\n      pop\n        /* \"main.sol\":3513:3757  function cancel(uint256 _poolId) external onlyOwner(_poolId) {... */\n      pop\n      pop\n      jump\t// out\n        /* \"main.sol\":4327:4760  function liquidate(uint256 _poolId) external {... */\n    tag_32:\n        /* \"main.sol\":4382:4398  Loan memory loan */\n      0x00\n        /* \"main.sol\":4401:4406  loans */\n      0x01\n        /* \"main.sol\":4401:4415  loans[_poolId] */\n      0x00\n        /* \"main.sol\":4407:4414  _poolId */\n      dup4\n        /* \"main.sol\":4401:4415  loans[_poolId] */\n      dup2\n      mstore\n      0x20\n      add\n      swap1\n      dup2\n      mstore\n      0x20\n      add\n      0x00\n      keccak256\n        /* \"main.sol\":4382:4415  Loan memory loan = loans[_poolId] */\n      mload(0x40)\n      dup1\n      0x0120\n      add\n      0x40\n      mstore\n      swap1\n      dup2\n      0x00\n      dup3\n      add\n      0x00\n      swap1\n      sload\n      swap1\n      0x0100\n      exp\n      swap1\n      div\n      0xffffffffffffffffffffffffffffffffffffffff\n      and\n      0xffffffffffffffffffffffffffffffffffffffff\n      and\n      0xffffffffffffffffffffffffffffffffffffffff\n      and\n      dup2\n      mstore\n      0x20\n      add\n      0x01\n      dup3\n      add\n      0x00\n      swap1\n      sload\n      swap1\n      0x0100\n      exp\n      swap1\n      div\n      0xffffffffffffffffffffffffffffffffffffffff\n      and\n      0xffffffffffffffffffffffffffffffffffffffff\n      and\n      0xffffffffffffffffffffffffffffffffffffffff\n      and\n      dup2\n      mstore\n      0x20\n      add\n      0x02\n      dup3\n      add\n      0x00\n      swap1\n      sload\n      swap1\n      0x0100\n      exp\n      swap1\n      div\n      0xffffffffffffffffffffffffffffffffffffffff\n      and\n      0xffffffffffffffffffffffffffffffffffffffff\n      and\n      0xffffffffffffffffffffffffffffffffffffffff\n      and\n      dup2\n      mstore\n      0x20\n      add\n      0x03\n      dup3\n      add\n      sload\n      dup2\n      mstore\n      0x20\n      add\n      0x04\n      dup3\n      add\n      sload\n      dup2\n      mstore\n      0x20\n      add\n      0x05\n      dup3\n      add\n      sload\n      dup2\n      mstore\n      0x20\n      add\n      0x06\n      dup3\n      add\n      sload\n      dup2\n      mstore\n      0x20\n      add\n      0x07\n      dup3\n      add\n      sload\n      dup2\n      mstore\n      0x20\n      add\n      0x08\n      dup3\n      add\n      0x00\n      swap1\n      sload\n      swap1\n      0x0100\n      exp\n      swap1\n      div\n      0xff\n      and\n      iszero\n      iszero\n      iszero\n      iszero\n      dup2\n      mstore\n      pop\n      pop\n      swap1\n      pop\n        /* \"main.sol\":4433:4448  _ended(_poolId) */\n      tag_99\n        /* \"main.sol\":4440:4447  _poolId */\n      dup3\n        /* \"main.sol\":4433:4439  _ended */\n      tag_65\n        /* \"main.sol\":4433:4448  _ended(_poolId) */\n      jump\t// in\n    tag_99:\n        /* \"main.sol\":4425:4472  require(_ended(_poolId), \"LAN: loan not ended\") */\n      tag_100\n      jumpi\n      mload(0x40)\n      0x08c379a000000000000000000000000000000000000000000000000000000000\n      dup2\n      mstore\n      0x04\n      add\n      tag_101\n      swap1\n      tag_68\n      jump\t// in\n    tag_101:\n      mload(0x40)\n      dup1\n      swap2\n      sub\n      swap1\n      revert\n    tag_100:\n        /* \"main.sol\":4482:4502  Bid memory latestBid */\n      0x00\n        /* \"main.sol\":4505:4509  bids */\n      0x02\n        /* \"main.sol\":4505:4518  bids[_poolId] */\n      0x00\n        /* \"main.sol\":4510:4517  _poolId */\n      dup5\n        /* \"main.sol\":4505:4518  bids[_poolId] */\n      dup2\n      mstore\n      0x20\n      add\n      swap1\n      dup2\n      mstore\n      0x20\n      add\n      0x00\n      keccak256\n        /* \"main.sol\":4505:4532  bids[_poolId][loan.numBids] */\n      0x00\n        /* \"main.sol\":4519:4523  loan */\n      dup4\n        /* \"main.sol\":4519:4531  loan.numBids */\n      0xe0\n      add\n      mload\n        /* \"main.sol\":4505:4532  bids[_poolId][loan.numBids] */\n      dup2\n      mstore\n      0x20\n      add\n      swap1\n      dup2\n      mstore\n      0x20\n      add\n      0x00\n      keccak256\n        /* \"main.sol\":4482:4532  Bid memory latestBid = bids[_poolId][loan.numBids] */\n      mload(0x40)\n      dup1\n      0x60\n      add\n      0x40\n      mstore\n      swap1\n      dup2\n      0x00\n      dup3\n      add\n      sload\n      dup2\n      mstore\n      0x20\n      add\n      0x01\n      dup3\n      add\n      sload\n      dup2\n      mstore\n      0x20\n      add\n      0x02\n      dup3\n      add\n      0x00\n      swap1\n      sload\n      swap1\n      0x0100\n      exp\n      swap1\n      div\n      0xffffffffffffffffffffffffffffffffffffffff\n      and\n      0xffffffffffffffffffffffffffffffffffffffff\n      and\n      0xffffffffffffffffffffffffffffffffffffffff\n      and\n      dup2\n      mstore\n      pop\n      pop\n      swap1\n      pop\n        /* \"main.sol\":4568:4578  msg.sender */\n      caller\n        /* \"main.sol\":4550:4578  latestBid.user == msg.sender */\n      0xffffffffffffffffffffffffffffffffffffffff\n      and\n        /* \"main.sol\":4550:4559  latestBid */\n      dup2\n        /* \"main.sol\":4550:4564  latestBid.user */\n      0x40\n      add\n      mload\n        /* \"main.sol\":4550:4578  latestBid.user == msg.sender */\n      0xffffffffffffffffffffffffffffffffffffffff\n      and\n      eq\n        /* \"main.sol\":4542:4605  require(latestBid.user == msg.sender, \"LAN: not latest bidder\") */\n      tag_102\n      jumpi\n      mload(0x40)\n      0x08c379a000000000000000000000000000000000000000000000000000000000\n      dup2\n      mstore\n      0x04\n      add\n      tag_103\n      swap1\n      tag_71\n      jump\t// in\n    tag_103:\n      mload(0x40)\n      dup1\n      swap2\n      sub\n      swap1\n      revert\n    tag_102:\n        /* \"main.sol\":4639:4650  IERC721 NFT */\n      0x00\n        /* \"main.sol\":4661:4665  loan */\n      dup3\n        /* \"main.sol\":4661:4683  loan.collectionAddress */\n      0x40\n      add\n      mload\n        /* \"main.sol\":4639:4684  IERC721 NFT = IERC721(loan.collectionAddress) */\n      swap1\n      pop\n        /* \"main.sol\":4694:4697  NFT */\n      dup1\n        /* \"main.sol\":4694:4714  NFT.safeTransferFrom */\n      0xffffffffffffffffffffffffffffffffffffffff\n      and\n      0x42842e0e\n        /* \"main.sol\":4723:4727  this */\n      address\n        /* \"main.sol\":4730:4740  msg.sender */\n      caller\n        /* \"main.sol\":4742:4746  loan */\n      dup7\n        /* \"main.sol\":4742:4752  loan.nftId */\n      0x60\n      add\n      mload\n        /* \"main.sol\":4694:4753  NFT.safeTransferFrom(address(this), msg.sender, loan.nftId) */\n      mload(0x40)\n      dup5\n      0xffffffff\n      and\n      0xe0\n      shl\n      dup2\n      mstore\n      0x04\n      add\n      tag_104\n      swap4\n      swap3\n      swap2\n      swap1\n      tag_73\n      jump\t// in\n    tag_104:\n      0x00\n      mload(0x40)\n      dup1\n      dup4\n      sub\n      dup2\n      0x00\n      dup8\n      dup1\n      extcodesize\n      iszero\n      dup1\n      iszero\n      tag_105\n      jumpi\n      0x00\n      dup1\n      revert\n    tag_105:\n      pop\n      gas\n      call\n      iszero\n      dup1\n      iszero\n      tag_107\n      jumpi\n      returndatasize\n      0x00\n      dup1\n      returndatacopy\n      revert(0x00, returndatasize)\n    tag_107:\n      pop\n      pop\n      pop\n      pop\n        /* \"main.sol\":4372:4760  {... */\n      pop\n      pop\n      pop\n        /* \"main.sol\":4327:4760  function liquidate(uint256 _poolId) external {... */\n      pop\n      jump\t// out\n        /* \"main.sol\":2009:2915  function bid(uint256 _poolId, uint256 _amount) external {... */\n    tag_36:\n        /* \"main.sol\":2083:2100  _started(_poolId) */\n      tag_109\n        /* \"main.sol\":2092:2099  _poolId */\n      dup3\n        /* \"main.sol\":2083:2091  _started */\n      tag_110\n        /* \"main.sol\":2083:2100  _started(_poolId) */\n      jump\t// in\n    tag_109:\n        /* \"main.sol\":2075:2121  require(_started(_poolId), \"LAN: not started\") */\n      tag_111\n      jumpi\n      mload(0x40)\n      0x08c379a000000000000000000000000000000000000000000000000000000000\n      dup2\n      mstore\n      0x04\n      add\n      tag_112\n      swap1\n      tag_113\n      jump\t// in\n    tag_112:\n      mload(0x40)\n      dup1\n      swap2\n      sub\n      swap1\n      revert\n    tag_111:\n        /* \"main.sol\":2140:2155  _ended(_poolId) */\n      tag_114\n        /* \"main.sol\":2147:2154  _poolId */\n      dup3\n        /* \"main.sol\":2140:2146  _ended */\n      tag_65\n        /* \"main.sol\":2140:2155  _ended(_poolId) */\n      jump\t// in\n    tag_114:\n        /* \"main.sol\":2139:2155  !_ended(_poolId) */\n      iszero\n        /* \"main.sol\":2131:2178  require(!_ended(_poolId), \"LAN: already ended\") */\n      tag_115\n      jumpi\n      mload(0x40)\n      0x08c379a000000000000000000000000000000000000000000000000000000000\n      dup2\n      mstore\n      0x04\n      add\n      tag_116\n      swap1\n      tag_117\n      jump\t// in\n    tag_116:\n      mload(0x40)\n      dup1\n      swap2\n      sub\n      swap1\n      revert\n    tag_115:\n        /* \"main.sol\":2188:2204  Loan memory loan */\n      0x00\n        /* \"main.sol\":2207:2212  loans */\n      0x01\n        /* \"main.sol\":2207:2221  loans[_poolId] */\n      0x00\n        /* \"main.sol\":2213:2220  _poolId */\n      dup5\n        /* \"main.sol\":2207:2221  loans[_poolId] */\n      dup2\n      mstore\n      0x20\n      add\n      swap1\n      dup2\n      mstore\n      0x20\n      add\n      0x00\n      keccak256\n        /* \"main.sol\":2188:2221  Loan memory loan = loans[_poolId] */\n      mload(0x40)\n      dup1\n      0x0120\n      add\n      0x40\n      mstore\n      swap1\n      dup2\n      0x00\n      dup3\n      add\n      0x00\n      swap1\n      sload\n      swap1\n      0x0100\n      exp\n      swap1\n      div\n      0xffffffffffffffffffffffffffffffffffffffff\n      and\n      0xffffffffffffffffffffffffffffffffffffffff\n      and\n      0xffffffffffffffffffffffffffffffffffffffff\n      and\n      dup2\n      mstore\n      0x20\n      add\n      0x01\n      dup3\n      add\n      0x00\n      swap1\n      sload\n      swap1\n      0x0100\n      exp\n      swap1\n      div\n      0xffffffffffffffffffffffffffffffffffffffff\n      and\n      0xffffffffffffffffffffffffffffffffffffffff\n      and\n      0xffffffffffffffffffffffffffffffffffffffff\n      and\n      dup2\n      mstore\n      0x20\n      add\n      0x02\n      dup3\n      add\n      0x00\n      swap1\n      sload\n      swap1\n      0x0100\n      exp\n      swap1\n      div\n      0xffffffffffffffffffffffffffffffffffffffff\n      and\n      0xffffffffffffffffffffffffffffffffffffffff\n      and\n      0xffffffffffffffffffffffffffffffffffffffff\n      and\n      dup2\n      mstore\n      0x20\n      add\n      0x03\n      dup3\n      add\n      sload\n      dup2\n      mstore\n      0x20\n      add\n      0x04\n      dup3\n      add\n      sload\n      dup2\n      mstore\n      0x20\n      add\n      0x05\n      dup3\n      add\n      sload\n      dup2\n      mstore\n      0x20\n      add\n      0x06\n      dup3\n      add\n      sload\n      dup2\n      mstore\n      0x20\n      add\n      0x07\n      dup3\n      add\n      sload\n      dup2\n      mstore\n      0x20\n      add\n      0x08\n      dup3\n      add\n      0x00\n      swap1\n      sload\n      swap1\n      0x0100\n      exp\n      swap1\n      div\n      0xff\n      and\n      iszero\n      iszero\n      iszero\n      iszero\n      dup2\n      mstore\n      pop\n      pop\n      swap1\n      pop\n        /* \"main.sol\":2263:2278  uint256 numBids */\n      0x00\n        /* \"main.sol\":2296:2297  1 */\n      0x01\n        /* \"main.sol\":2281:2285  loan */\n      dup3\n        /* \"main.sol\":2281:2293  loan.numBids */\n      0xe0\n      add\n      mload\n        /* \"main.sol\":2281:2297  loan.numBids + 1 */\n      tag_118\n      swap2\n      swap1\n      tag_119\n      jump\t// in\n    tag_118:\n        /* \"main.sol\":2263:2297  uint256 numBids = loan.numBids + 1 */\n      swap1\n      pop\n        /* \"main.sol\":2323:2330  numBids */\n      dup1\n        /* \"main.sol\":2308:2312  loan */\n      dup3\n        /* \"main.sol\":2308:2320  loan.numBids */\n      0xe0\n      add\n        /* \"main.sol\":2308:2330  loan.numBids = numBids */\n      dup2\n      dup2\n      mstore\n      pop\n      pop\n        /* \"main.sol\":2340:2357  uint256 loanValue */\n      0x00\n        /* \"main.sol\":2360:2388  _calculateLoanValue(_poolId) */\n      tag_120\n        /* \"main.sol\":2380:2387  _poolId */\n      dup6\n        /* \"main.sol\":2360:2379  _calculateLoanValue */\n      tag_121\n        /* \"main.sol\":2360:2388  _calculateLoanValue(_poolId) */\n      jump\t// in\n    tag_120:\n        /* \"main.sol\":2340:2388  uint256 loanValue = _calculateLoanValue(_poolId) */\n      swap1\n      pop\n        /* \"main.sol\":2416:2425  loanValue */\n      dup1\n        /* \"main.sol\":2406:2413  _amount */\n      dup5\n        /* \"main.sol\":2406:2425  _amount > loanValue */\n      gt\n        /* \"main.sol\":2398:2449  require(_amount > loanValue, \"LAN: bid not higher\") */\n      tag_122\n      jumpi\n      mload(0x40)\n      0x08c379a000000000000000000000000000000000000000000000000000000000\n      dup2\n      mstore\n      0x04\n      add\n      tag_123\n      swap1\n      tag_124\n      jump\t// in\n    tag_123:\n      mload(0x40)\n      dup1\n      swap2\n      sub\n      swap1\n      revert\n    tag_122:\n        /* \"main.sol\":2508:2512  loan */\n      dup3\n        /* \"main.sol\":2508:2518  loan.token */\n      0x20\n      add\n      mload\n        /* \"main.sol\":2501:2532  IERC20(loan.token).transferFrom */\n      0xffffffffffffffffffffffffffffffffffffffff\n      and\n      0x23b872dd\n        /* \"main.sol\":2533:2543  msg.sender */\n      caller\n        /* \"main.sol\":2545:2549  bids */\n      0x02\n        /* \"main.sol\":2545:2558  bids[_poolId] */\n      0x00\n        /* \"main.sol\":2550:2557  _poolId */\n      dup10\n        /* \"main.sol\":2545:2558  bids[_poolId] */\n      dup2\n      mstore\n      0x20\n      add\n      swap1\n      dup2\n      mstore\n      0x20\n      add\n      0x00\n      keccak256\n        /* \"main.sol\":2545:2567  bids[_poolId][numBids] */\n      0x00\n        /* \"main.sol\":2559:2566  numBids */\n      dup7\n        /* \"main.sol\":2545:2567  bids[_poolId][numBids] */\n      dup2\n      mstore\n      0x20\n      add\n      swap1\n      dup2\n      mstore\n      0x20\n      add\n      0x00\n      keccak256\n        /* \"main.sol\":2545:2572  bids[_poolId][numBids].user */\n      0x02\n      add\n      0x00\n      swap1\n      sload\n      swap1\n      0x0100\n      exp\n      swap1\n      div\n      0xffffffffffffffffffffffffffffffffffffffff\n      and\n        /* \"main.sol\":2574:2583  loanValue */\n      dup5\n        /* \"main.sol\":2501:2584  IERC20(loan.token).transferFrom(msg.sender, bids[_poolId][numBids].user, loanValue) */\n      mload(0x40)\n      dup5\n      0xffffffff\n      and\n      0xe0\n      shl\n      dup2\n      mstore\n      0x04\n      add\n      tag_125\n      swap4\n      swap3\n      swap2\n      swap1\n      tag_73\n      jump\t// in\n    tag_125:\n      0x20\n      mload(0x40)\n      dup1\n      dup4\n      sub\n      dup2\n      0x00\n      dup8\n      gas\n      call\n      iszero\n      dup1\n      iszero\n      tag_127\n      jumpi\n      returndatasize\n      0x00\n      dup1\n      returndatacopy\n      revert(0x00, returndatasize)\n    tag_127:\n      pop\n      pop\n      pop\n      pop\n      mload(0x40)\n      returndatasize\n      not(0x1f)\n      0x1f\n      dup3\n      add\n      and\n      dup3\n      add\n      dup1\n      0x40\n      mstore\n      pop\n      dup2\n      add\n      swap1\n      tag_128\n      swap2\n      swap1\n      tag_129\n      jump\t// in\n    tag_128:\n      pop\n        /* \"main.sol\":2633:2637  loan */\n      dup3\n        /* \"main.sol\":2633:2643  loan.token */\n      0x20\n      add\n      mload\n        /* \"main.sol\":2626:2657  IERC20(loan.token).transferFrom */\n      0xffffffffffffffffffffffffffffffffffffffff\n      and\n      0x23b872dd\n        /* \"main.sol\":2658:2668  msg.sender */\n      caller\n        /* \"main.sol\":2670:2674  loan */\n      dup6\n        /* \"main.sol\":2670:2680  loan.owner */\n      0x00\n      add\n      mload\n        /* \"main.sol\":2692:2701  loanValue */\n      dup5\n        /* \"main.sol\":2682:2689  _amount */\n      dup9\n        /* \"main.sol\":2682:2701  _amount - loanValue */\n      tag_130\n      swap2\n      swap1\n      tag_131\n      jump\t// in\n    tag_130:\n        /* \"main.sol\":2626:2702  IERC20(loan.token).transferFrom(msg.sender, loan.owner, _amount - loanValue) */\n      mload(0x40)\n      dup5\n      0xffffffff\n      and\n      0xe0\n      shl\n      dup2\n      mstore\n      0x04\n      add\n      tag_132\n      swap4\n      swap3\n      swap2\n      swap1\n      tag_73\n      jump\t// in\n    tag_132:\n      0x20\n      mload(0x40)\n      dup1\n      dup4\n      sub\n      dup2\n      0x00\n      dup8\n      gas\n      call\n      iszero\n      dup1\n      iszero\n      tag_134\n      jumpi\n      returndatasize\n      0x00\n      dup1\n      returndatacopy\n      revert(0x00, returndatasize)\n    tag_134:\n      pop\n      pop\n      pop\n      pop\n      mload(0x40)\n      returndatasize\n      not(0x1f)\n      0x1f\n      dup3\n      add\n      and\n      dup3\n      add\n      dup1\n      0x40\n      mstore\n      pop\n      dup2\n      add\n      swap1\n      tag_135\n      swap2\n      swap1\n      tag_129\n      jump\t// in\n    tag_135:\n      pop\n        /* \"main.sol\":2770:2908  Bid({... */\n      mload(0x40)\n      dup1\n      0x60\n      add\n      0x40\n      mstore\n      dup1\n        /* \"main.sol\":2797:2812  block.timestamp */\n      timestamp\n        /* \"main.sol\":2770:2908  Bid({... */\n      dup2\n      mstore\n      0x20\n      add\n        /* \"main.sol\":2837:2844  _amount */\n      dup6\n        /* \"main.sol\":2770:2908  Bid({... */\n      dup2\n      mstore\n      0x20\n      add\n        /* \"main.sol\":2864:2874  msg.sender */\n      caller\n        /* \"main.sol\":2770:2908  Bid({... */\n      0xffffffffffffffffffffffffffffffffffffffff\n      and\n      dup2\n      mstore\n      pop\n        /* \"main.sol\":2745:2749  bids */\n      0x02\n        /* \"main.sol\":2745:2758  bids[_poolId] */\n      0x00\n        /* \"main.sol\":2750:2757  _poolId */\n      dup8\n        /* \"main.sol\":2745:2758  bids[_poolId] */\n      dup2\n      mstore\n      0x20\n      add\n      swap1\n      dup2\n      mstore\n      0x20\n      add\n      0x00\n      keccak256\n        /* \"main.sol\":2745:2767  bids[_poolId][numBids] */\n      0x00\n        /* \"main.sol\":2759:2766  numBids */\n      dup5\n        /* \"main.sol\":2745:2767  bids[_poolId][numBids] */\n      dup2\n      mstore\n      0x20\n      add\n      swap1\n      dup2\n      mstore\n      0x20\n      add\n      0x00\n      keccak256\n        /* \"main.sol\":2745:2908  bids[_poolId][numBids] = Bid({... */\n      0x00\n      dup3\n      add\n      mload\n      dup2\n      0x00\n      add\n      sstore\n      0x20\n      dup3\n      add\n      mload\n      dup2\n      0x01\n      add\n      sstore\n      0x40\n      dup3\n      add\n      mload\n      dup2\n      0x02\n      add\n      exp(0x0100, 0x00)\n      dup2\n      sload\n      dup2\n      0xffffffffffffffffffffffffffffffffffffffff\n      mul\n      not\n      and\n      swap1\n      dup4\n      0xffffffffffffffffffffffffffffffffffffffff\n      and\n      mul\n      or\n      swap1\n      sstore\n      pop\n      swap1\n      pop\n      pop\n        /* \"main.sol\":2065:2915  {... */\n      pop\n      pop\n      pop\n        /* \"main.sol\":2009:2915  function bid(uint256 _poolId, uint256 _amount) external {... */\n      pop\n      pop\n      jump\t// out\n        /* \"main.sol\":3796:4273  function endLoan(uint256 _poolId) external onlyOwner(_poolId) {... */\n    tag_39:\n        /* \"main.sol\":3849:3856  _poolId */\n      dup1\n        /* \"main.sol\":1216:1226  msg.sender */\n      caller\n        /* \"main.sol\":1192:1226  loans[_poolId].owner == msg.sender */\n      0xffffffffffffffffffffffffffffffffffffffff\n      and\n        /* \"main.sol\":1192:1197  loans */\n      0x01\n        /* \"main.sol\":1192:1206  loans[_poolId] */\n      0x00\n        /* \"main.sol\":1198:1205  _poolId */\n      dup4\n        /* \"main.sol\":1192:1206  loans[_poolId] */\n      dup2\n      mstore\n      0x20\n      add\n      swap1\n      dup2\n      mstore\n      0x20\n      add\n      0x00\n      keccak256\n        /* \"main.sol\":1192:1212  loans[_poolId].owner */\n      0x00\n      add\n      0x00\n      swap1\n      sload\n      swap1\n      0x0100\n      exp\n      swap1\n      div\n      0xffffffffffffffffffffffffffffffffffffffff\n      and\n        /* \"main.sol\":1192:1226  loans[_poolId].owner == msg.sender */\n      0xffffffffffffffffffffffffffffffffffffffff\n      and\n      eq\n        /* \"main.sol\":1184:1245  require(loans[_poolId].owner == msg.sender, \"LAN: not owner\") */\n      tag_137\n      jumpi\n      mload(0x40)\n      0x08c379a000000000000000000000000000000000000000000000000000000000\n      dup2\n      mstore\n      0x04\n      add\n      tag_138\n      swap1\n      tag_62\n      jump\t// in\n    tag_138:\n      mload(0x40)\n      dup1\n      swap2\n      sub\n      swap1\n      revert\n    tag_137:\n        /* \"main.sol\":3868:3884  Loan memory loan */\n      0x00\n        /* \"main.sol\":3887:3892  loans */\n      0x01\n        /* \"main.sol\":3887:3901  loans[_poolId] */\n      0x00\n        /* \"main.sol\":3893:3900  _poolId */\n      dup5\n        /* \"main.sol\":3887:3901  loans[_poolId] */\n      dup2\n      mstore\n      0x20\n      add\n      swap1\n      dup2\n      mstore\n      0x20\n      add\n      0x00\n      keccak256\n        /* \"main.sol\":3868:3901  Loan memory loan = loans[_poolId] */\n      mload(0x40)\n      dup1\n      0x0120\n      add\n      0x40\n      mstore\n      swap1\n      dup2\n      0x00\n      dup3\n      add\n      0x00\n      swap1\n      sload\n      swap1\n      0x0100\n      exp\n      swap1\n      div\n      0xffffffffffffffffffffffffffffffffffffffff\n      and\n      0xffffffffffffffffffffffffffffffffffffffff\n      and\n      0xffffffffffffffffffffffffffffffffffffffff\n      and\n      dup2\n      mstore\n      0x20\n      add\n      0x01\n      dup3\n      add\n      0x00\n      swap1\n      sload\n      swap1\n      0x0100\n      exp\n      swap1\n      div\n      0xffffffffffffffffffffffffffffffffffffffff\n      and\n      0xffffffffffffffffffffffffffffffffffffffff\n      and\n      0xffffffffffffffffffffffffffffffffffffffff\n      and\n      dup2\n      mstore\n      0x20\n      add\n      0x02\n      dup3\n      add\n      0x00\n      swap1\n      sload\n      swap1\n      0x0100\n      exp\n      swap1\n      div\n      0xffffffffffffffffffffffffffffffffffffffff\n      and\n      0xffffffffffffffffffffffffffffffffffffffff\n      and\n      0xffffffffffffffffffffffffffffffffffffffff\n      and\n      dup2\n      mstore\n      0x20\n      add\n      0x03\n      dup3\n      add\n      sload\n      dup2\n      mstore\n      0x20\n      add\n      0x04\n      dup3\n      add\n      sload\n      dup2\n      mstore\n      0x20\n      add\n      0x05\n      dup3\n      add\n      sload\n      dup2\n      mstore\n      0x20\n      add\n      0x06\n      dup3\n      add\n      sload\n      dup2\n      mstore\n      0x20\n      add\n      0x07\n      dup3\n      add\n      sload\n      dup2\n      mstore\n      0x20\n      add\n      0x08\n      dup3\n      add\n      0x00\n      swap1\n      sload\n      swap1\n      0x0100\n      exp\n      swap1\n      div\n      0xff\n      and\n      iszero\n      iszero\n      iszero\n      iszero\n      dup2\n      mstore\n      pop\n      pop\n      swap1\n      pop\n        /* \"main.sol\":3911:3931  Bid memory latestBid */\n      0x00\n        /* \"main.sol\":3934:3938  bids */\n      0x02\n        /* \"main.sol\":3934:3947  bids[_poolId] */\n      0x00\n        /* \"main.sol\":3939:3946  _poolId */\n      dup6\n        /* \"main.sol\":3934:3947  bids[_poolId] */\n      dup2\n      mstore\n      0x20\n      add\n      swap1\n      dup2\n      mstore\n      0x20\n      add\n      0x00\n      keccak256\n        /* \"main.sol\":3934:3961  bids[_poolId][loan.numBids] */\n      0x00\n        /* \"main.sol\":3948:3952  loan */\n      dup4\n        /* \"main.sol\":3948:3960  loan.numBids */\n      0xe0\n      add\n      mload\n        /* \"main.sol\":3934:3961  bids[_poolId][loan.numBids] */\n      dup2\n      mstore\n      0x20\n      add\n      swap1\n      dup2\n      mstore\n      0x20\n      add\n      0x00\n      keccak256\n        /* \"main.sol\":3911:3961  Bid memory latestBid = bids[_poolId][loan.numBids] */\n      mload(0x40)\n      dup1\n      0x60\n      add\n      0x40\n      mstore\n      swap1\n      dup2\n      0x00\n      dup3\n      add\n      sload\n      dup2\n      mstore\n      0x20\n      add\n      0x01\n      dup3\n      add\n      sload\n      dup2\n      mstore\n      0x20\n      add\n      0x02\n      dup3\n      add\n      0x00\n      swap1\n      sload\n      swap1\n      0x0100\n      exp\n      swap1\n      div\n      0xffffffffffffffffffffffffffffffffffffffff\n      and\n      0xffffffffffffffffffffffffffffffffffffffff\n      and\n      0xffffffffffffffffffffffffffffffffffffffff\n      and\n      dup2\n      mstore\n      pop\n      pop\n      swap1\n      pop\n        /* \"main.sol\":4022:4026  loan */\n      dup2\n        /* \"main.sol\":4022:4032  loan.token */\n      0x20\n      add\n      mload\n        /* \"main.sol\":4015:4046  IERC20(loan.token).transferFrom */\n      0xffffffffffffffffffffffffffffffffffffffff\n      and\n      0x23b872dd\n        /* \"main.sol\":4047:4057  msg.sender */\n      caller\n        /* \"main.sol\":4059:4068  latestBid */\n      dup4\n        /* \"main.sol\":4059:4073  latestBid.user */\n      0x40\n      add\n      mload\n        /* \"main.sol\":4075:4103  _calculateLoanValue(_poolId) */\n      tag_140\n        /* \"main.sol\":4095:4102  _poolId */\n      dup9\n        /* \"main.sol\":4075:4094  _calculateLoanValue */\n      tag_121\n        /* \"main.sol\":4075:4103  _calculateLoanValue(_poolId) */\n      jump\t// in\n    tag_140:\n        /* \"main.sol\":4015:4104  IERC20(loan.token).transferFrom(msg.sender, latestBid.user, _calculateLoanValue(_poolId)) */\n      mload(0x40)\n      dup5\n      0xffffffff\n      and\n      0xe0\n      shl\n      dup2\n      mstore\n      0x04\n      add\n      tag_141\n      swap4\n      swap3\n      swap2\n      swap1\n      tag_73\n      jump\t// in\n    tag_141:\n      0x20\n      mload(0x40)\n      dup1\n      dup4\n      sub\n      dup2\n      0x00\n      dup8\n      gas\n      call\n      iszero\n      dup1\n      iszero\n      tag_143\n      jumpi\n      returndatasize\n      0x00\n      dup1\n      returndatacopy\n      revert(0x00, returndatasize)\n    tag_143:\n      pop\n      pop\n      pop\n      pop\n      mload(0x40)\n      returndatasize\n      not(0x1f)\n      0x1f\n      dup3\n      add\n      and\n      dup3\n      add\n      dup1\n      0x40\n      mstore\n      pop\n      dup2\n      add\n      swap1\n      tag_144\n      swap2\n      swap1\n      tag_129\n      jump\t// in\n    tag_144:\n      pop\n        /* \"main.sol\":4152:4163  IERC721 NFT */\n      0x00\n        /* \"main.sol\":4174:4178  loan */\n      dup3\n        /* \"main.sol\":4174:4196  loan.collectionAddress */\n      0x40\n      add\n      mload\n        /* \"main.sol\":4152:4197  IERC721 NFT = IERC721(loan.collectionAddress) */\n      swap1\n      pop\n        /* \"main.sol\":4207:4210  NFT */\n      dup1\n        /* \"main.sol\":4207:4227  NFT.safeTransferFrom */\n      0xffffffffffffffffffffffffffffffffffffffff\n      and\n      0x42842e0e\n        /* \"main.sol\":4236:4240  this */\n      address\n        /* \"main.sol\":4243:4253  msg.sender */\n      caller\n        /* \"main.sol\":4255:4259  loan */\n      dup7\n        /* \"main.sol\":4255:4265  loan.nftId */\n      0x60\n      add\n      mload\n        /* \"main.sol\":4207:4266  NFT.safeTransferFrom(address(this), msg.sender, loan.nftId) */\n      mload(0x40)\n      dup5\n      0xffffffff\n      and\n      0xe0\n      shl\n      dup2\n      mstore\n      0x04\n      add\n      tag_145\n      swap4\n      swap3\n      swap2\n      swap1\n      tag_73\n      jump\t// in\n    tag_145:\n      0x00\n      mload(0x40)\n      dup1\n      dup4\n      sub\n      dup2\n      0x00\n      dup8\n      dup1\n      extcodesize\n      iszero\n      dup1\n      iszero\n      tag_146\n      jumpi\n      0x00\n      dup1\n      revert\n    tag_146:\n      pop\n      gas\n      call\n      iszero\n      dup1\n      iszero\n      tag_148\n      jumpi\n      returndatasize\n      0x00\n      dup1\n      returndatacopy\n      revert(0x00, returndatasize)\n    tag_148:\n      pop\n      pop\n      pop\n      pop\n        /* \"main.sol\":3858:4273  {... */\n      pop\n      pop\n      pop\n        /* \"main.sol\":3796:4273  function endLoan(uint256 _poolId) external onlyOwner(_poolId) {... */\n      pop\n      pop\n      jump\t// out\n        /* \"main.sol\":872:927  mapping(uint256 => mapping(uint256 => Bid)) public bids */\n    tag_42:\n      mstore(0x20, 0x02)\n      dup2\n      0x00\n      mstore\n      mstore(0x20, keccak256(0x00, 0x40))\n      dup1\n      0x00\n      mstore\n      keccak256(0x00, 0x40)\n      0x00\n      swap2\n      pop\n      swap2\n      pop\n      pop\n      dup1\n      0x00\n      add\n      sload\n      swap1\n      dup1\n      0x01\n      add\n      sload\n      swap1\n      dup1\n      0x02\n      add\n      0x00\n      swap1\n      sload\n      swap1\n      0x0100\n      exp\n      swap1\n      div\n      0xffffffffffffffffffffffffffffffffffffffff\n      and\n      swap1\n      pop\n      dup4\n      jump\t// out\n        /* \"main.sol\":3056:3466  function setNewBidOwner(uint256 _poolId, address _newAddress) external{... */\n    tag_48:\n        /* \"main.sol\":3144:3161  _started(_poolId) */\n      tag_150\n        /* \"main.sol\":3153:3160  _poolId */\n      dup3\n        /* \"main.sol\":3144:3152  _started */\n      tag_110\n        /* \"main.sol\":3144:3161  _started(_poolId) */\n      jump\t// in\n    tag_150:\n        /* \"main.sol\":3136:3182  require(_started(_poolId), \"LAN: not started\") */\n      tag_151\n      jumpi\n      mload(0x40)\n      0x08c379a000000000000000000000000000000000000000000000000000000000\n      dup2\n      mstore\n      0x04\n      add\n      tag_152\n      swap1\n      tag_113\n      jump\t// in\n    tag_152:\n      mload(0x40)\n      dup1\n      swap2\n      sub\n      swap1\n      revert\n    tag_151:\n        /* \"main.sol\":3201:3216  _ended(_poolId) */\n      tag_153\n        /* \"main.sol\":3208:3215  _poolId */\n      dup3\n        /* \"main.sol\":3201:3207  _ended */\n      tag_65\n        /* \"main.sol\":3201:3216  _ended(_poolId) */\n      jump\t// in\n    tag_153:\n        /* \"main.sol\":3200:3216  !_ended(_poolId) */\n      iszero\n        /* \"main.sol\":3192:3239  require(!_ended(_poolId), \"LAN: already ended\") */\n      tag_154\n      jumpi\n      mload(0x40)\n      0x08c379a000000000000000000000000000000000000000000000000000000000\n      dup2\n      mstore\n      0x04\n      add\n      tag_155\n      swap1\n      tag_117\n      jump\t// in\n    tag_155:\n      mload(0x40)\n      dup1\n      swap2\n      sub\n      swap1\n      revert\n    tag_154:\n        /* \"main.sol\":3250:3266  Loan memory loan */\n      0x00\n        /* \"main.sol\":3269:3274  loans */\n      0x01\n        /* \"main.sol\":3269:3283  loans[_poolId] */\n      0x00\n        /* \"main.sol\":3275:3282  _poolId */\n      dup5\n        /* \"main.sol\":3269:3283  loans[_poolId] */\n      dup2\n      mstore\n      0x20\n      add\n      swap1\n      dup2\n      mstore\n      0x20\n      add\n      0x00\n      keccak256\n        /* \"main.sol\":3250:3283  Loan memory loan = loans[_poolId] */\n      mload(0x40)\n      dup1\n      0x0120\n      add\n      0x40\n      mstore\n      swap1\n      dup2\n      0x00\n      dup3\n      add\n      0x00\n      swap1\n      sload\n      swap1\n      0x0100\n      exp\n      swap1\n      div\n      0xffffffffffffffffffffffffffffffffffffffff\n      and\n      0xffffffffffffffffffffffffffffffffffffffff\n      and\n      0xffffffffffffffffffffffffffffffffffffffff\n      and\n      dup2\n      mstore\n      0x20\n      add\n      0x01\n      dup3\n      add\n      0x00\n      swap1\n      sload\n      swap1\n      0x0100\n      exp\n      swap1\n      div\n      0xffffffffffffffffffffffffffffffffffffffff\n      and\n      0xffffffffffffffffffffffffffffffffffffffff\n      and\n      0xffffffffffffffffffffffffffffffffffffffff\n      and\n      dup2\n      mstore\n      0x20\n      add\n      0x02\n      dup3\n      add\n      0x00\n      swap1\n      sload\n      swap1\n      0x0100\n      exp\n      swap1\n      div\n      0xffffffffffffffffffffffffffffffffffffffff\n      and\n      0xffffffffffffffffffffffffffffffffffffffff\n      and\n      0xffffffffffffffffffffffffffffffffffffffff\n      and\n      dup2\n      mstore\n      0x20\n      add\n      0x03\n      dup3\n      add\n      sload\n      dup2\n      mstore\n      0x20\n      add\n      0x04\n      dup3\n      add\n      sload\n      dup2\n      mstore\n      0x20\n      add\n      0x05\n      dup3\n      add\n      sload\n      dup2\n      mstore\n      0x20\n      add\n      0x06\n      dup3\n      add\n      sload\n      dup2\n      mstore\n      0x20\n      add\n      0x07\n      dup3\n      add\n      sload\n      dup2\n      mstore\n      0x20\n      add\n      0x08\n      dup3\n      add\n      0x00\n      swap1\n      sload\n      swap1\n      0x0100\n      exp\n      swap1\n      div\n      0xff\n      and\n      iszero\n      iszero\n      iszero\n      iszero\n      dup2\n      mstore\n      pop\n      pop\n      swap1\n      pop\n        /* \"main.sol\":3293:3314  Bid storage latestBid */\n      0x00\n        /* \"main.sol\":3317:3321  bids */\n      0x02\n        /* \"main.sol\":3317:3330  bids[_poolId] */\n      0x00\n        /* \"main.sol\":3322:3329  _poolId */\n      dup6\n        /* \"main.sol\":3317:3330  bids[_poolId] */\n      dup2\n      mstore\n      0x20\n      add\n      swap1\n      dup2\n      mstore\n      0x20\n      add\n      0x00\n      keccak256\n        /* \"main.sol\":3317:3344  bids[_poolId][loan.numBids] */\n      0x00\n        /* \"main.sol\":3331:3335  loan */\n      dup4\n        /* \"main.sol\":3331:3343  loan.numBids */\n      0xe0\n      add\n      mload\n        /* \"main.sol\":3317:3344  bids[_poolId][loan.numBids] */\n      dup2\n      mstore\n      0x20\n      add\n      swap1\n      dup2\n      mstore\n      0x20\n      add\n      0x00\n      keccak256\n        /* \"main.sol\":3293:3344  Bid storage latestBid = bids[_poolId][loan.numBids] */\n      swap1\n      pop\n        /* \"main.sol\":3380:3390  msg.sender */\n      caller\n        /* \"main.sol\":3362:3390  latestBid.user == msg.sender */\n      0xffffffffffffffffffffffffffffffffffffffff\n      and\n        /* \"main.sol\":3362:3371  latestBid */\n      dup2\n        /* \"main.sol\":3362:3376  latestBid.user */\n      0x02\n      add\n      0x00\n      swap1\n      sload\n      swap1\n      0x0100\n      exp\n      swap1\n      div\n      0xffffffffffffffffffffffffffffffffffffffff\n      and\n        /* \"main.sol\":3362:3390  latestBid.user == msg.sender */\n      0xffffffffffffffffffffffffffffffffffffffff\n      and\n      eq\n        /* \"main.sol\":3354:3421  require(latestBid.user == msg.sender, \"LAN: Not the latest bidder\") */\n      tag_156\n      jumpi\n      mload(0x40)\n      0x08c379a000000000000000000000000000000000000000000000000000000000\n      dup2\n      mstore\n      0x04\n      add\n      tag_157\n      swap1\n      tag_158\n      jump\t// in\n    tag_157:\n      mload(0x40)\n      dup1\n      swap2\n      sub\n      swap1\n      revert\n    tag_156:\n        /* \"main.sol\":3448:3459  _newAddress */\n      dup3\n        /* \"main.sol\":3431:3440  latestBid */\n      dup2\n        /* \"main.sol\":3431:3445  latestBid.user */\n      0x02\n      add\n      0x00\n        /* \"main.sol\":3431:3459  latestBid.user = _newAddress */\n      0x0100\n      exp\n      dup2\n      sload\n      dup2\n      0xffffffffffffffffffffffffffffffffffffffff\n      mul\n      not\n      and\n      swap1\n      dup4\n      0xffffffffffffffffffffffffffffffffffffffff\n      and\n      mul\n      or\n      swap1\n      sstore\n      pop\n        /* \"main.sol\":3126:3466  {... */\n      pop\n      pop\n        /* \"main.sol\":3056:3466  function setNewBidOwner(uint256 _poolId, address _newAddress) external{... */\n      pop\n      pop\n      jump\t// out\n        /* \"main.sol\":1009:1066  mapping(uint256 => address[]) public whitelistedAddresses */\n    tag_51:\n      mstore(0x20, 0x03)\n      dup2\n      0x00\n      mstore\n      keccak256(0x00, 0x40)\n      dup2\n      dup2\n      sload\n      dup2\n      lt\n      tag_159\n      jumpi\n      0x00\n      dup1\n      revert\n    tag_159:\n      swap1\n      0x00\n      mstore\n      keccak256(0x00, 0x20)\n      add\n      0x00\n      swap2\n      pop\n      swap2\n      pop\n      swap1\n      sload\n      swap1\n      0x0100\n      exp\n      swap1\n      div\n      0xffffffffffffffffffffffffffffffffffffffff\n      and\n      dup2\n      jump\t// out\n        /* \"main.sol\":708:745  mapping(uint256 => Loan) public loans */\n    tag_56:\n      mstore(0x20, 0x01)\n      dup1\n      0x00\n      mstore\n      keccak256(0x00, 0x40)\n      0x00\n      swap2\n      pop\n      swap1\n      pop\n      dup1\n      0x00\n      add\n      0x00\n      swap1\n      sload\n      swap1\n      0x0100\n      exp\n      swap1\n      div\n      0xffffffffffffffffffffffffffffffffffffffff\n      and\n      swap1\n      dup1\n      0x01\n      add\n      0x00\n      swap1\n      sload\n      swap1\n      0x0100\n      exp\n      swap1\n      div\n      0xffffffffffffffffffffffffffffffffffffffff\n      and\n      swap1\n      dup1\n      0x02\n      add\n      0x00\n      swap1\n      sload\n      swap1\n      0x0100\n      exp\n      swap1\n      div\n      0xffffffffffffffffffffffffffffffffffffffff\n      and\n      swap1\n      dup1\n      0x03\n      add\n      sload\n      swap1\n      dup1\n      0x04\n      add\n      sload\n      swap1\n      dup1\n      0x05\n      add\n      sload\n      swap1\n      dup1\n      0x06\n      add\n      sload\n      swap1\n      dup1\n      0x07\n      add\n      sload\n      swap1\n      dup1\n      0x08\n      add\n      0x00\n      swap1\n      sload\n      swap1\n      0x0100\n      exp\n      swap1\n      div\n      0xff\n      and\n      swap1\n      pop\n      dup10\n      jump\t// out\n        /* \"main.sol\":5970:6096  function _ended(uint256 _poolId) internal view returns (bool){... */\n    tag_65:\n        /* \"main.sol\":6026:6030  bool */\n      0x00\n        /* \"main.sol\":6074:6089  block.timestamp */\n      timestamp\n        /* \"main.sol\":6048:6053  loans */\n      0x01\n        /* \"main.sol\":6048:6062  loans[_poolId] */\n      0x00\n        /* \"main.sol\":6054:6061  _poolId */\n      dup5\n        /* \"main.sol\":6048:6062  loans[_poolId] */\n      dup2\n      mstore\n      0x20\n      add\n      swap1\n      dup2\n      mstore\n      0x20\n      add\n      0x00\n      keccak256\n        /* \"main.sol\":6048:6070  loans[_poolId].endTime */\n      0x05\n      add\n      sload\n        /* \"main.sol\":6048:6089  loans[_poolId].endTime <= block.timestamp */\n      gt\n      iszero\n        /* \"main.sol\":6041:6089  return loans[_poolId].endTime <= block.timestamp */\n      swap1\n      pop\n        /* \"main.sol\":5970:6096  function _ended(uint256 _poolId) internal view returns (bool){... */\n      swap2\n      swap1\n      pop\n      jump\t// out\n        /* \"main.sol\":6101:6230  function _started(uint256 _poolId) internal view returns (bool){... */\n    tag_110:\n        /* \"main.sol\":6159:6163  bool */\n      0x00\n        /* \"main.sol\":6208:6223  block.timestamp */\n      timestamp\n        /* \"main.sol\":6181:6186  loans */\n      0x01\n        /* \"main.sol\":6181:6195  loans[_poolId] */\n      0x00\n        /* \"main.sol\":6187:6194  _poolId */\n      dup5\n        /* \"main.sol\":6181:6195  loans[_poolId] */\n      dup2\n      mstore\n      0x20\n      add\n      swap1\n      dup2\n      mstore\n      0x20\n      add\n      0x00\n      keccak256\n        /* \"main.sol\":6181:6205  loans[_poolId].startTime */\n      0x04\n      add\n      sload\n        /* \"main.sol\":6181:6223  loans[_poolId].startTime < block.timestamp */\n      lt\n        /* \"main.sol\":6174:6223  return loans[_poolId].startTime < block.timestamp */\n      swap1\n      pop\n        /* \"main.sol\":6101:6230  function _started(uint256 _poolId) internal view returns (bool){... */\n      swap2\n      swap1\n      pop\n      jump\t// out\n        /* \"main.sol\":5446:5959  function _calculateLoanValue(uint256 _poolId) internal view returns (uint256){... */\n    tag_121:\n        /* \"main.sol\":5515:5522  uint256 */\n      0x00\n        /* \"main.sol\":5533:5549  Loan memory loan */\n      dup1\n        /* \"main.sol\":5552:5557  loans */\n      0x01\n        /* \"main.sol\":5552:5566  loans[_poolId] */\n      0x00\n        /* \"main.sol\":5558:5565  _poolId */\n      dup5\n        /* \"main.sol\":5552:5566  loans[_poolId] */\n      dup2\n      mstore\n      0x20\n      add\n      swap1\n      dup2\n      mstore\n      0x20\n      add\n      0x00\n      keccak256\n        /* \"main.sol\":5533:5566  Loan memory loan = loans[_poolId] */\n      mload(0x40)\n      dup1\n      0x0120\n      add\n      0x40\n      mstore\n      swap1\n      dup2\n      0x00\n      dup3\n      add\n      0x00\n      swap1\n      sload\n      swap1\n      0x0100\n      exp\n      swap1\n      div\n      0xffffffffffffffffffffffffffffffffffffffff\n      and\n      0xffffffffffffffffffffffffffffffffffffffff\n      and\n      0xffffffffffffffffffffffffffffffffffffffff\n      and\n      dup2\n      mstore\n      0x20\n      add\n      0x01\n      dup3\n      add\n      0x00\n      swap1\n      sload\n      swap1\n      0x0100\n      exp\n      swap1\n      div\n      0xffffffffffffffffffffffffffffffffffffffff\n      and\n      0xffffffffffffffffffffffffffffffffffffffff\n      and\n      0xffffffffffffffffffffffffffffffffffffffff\n      and\n      dup2\n      mstore\n      0x20\n      add\n      0x02\n      dup3\n      add\n      0x00\n      swap1\n      sload\n      swap1\n      0x0100\n      exp\n      swap1\n      div\n      0xffffffffffffffffffffffffffffffffffffffff\n      and\n      0xffffffffffffffffffffffffffffffffffffffff\n      and\n      0xffffffffffffffffffffffffffffffffffffffff\n      and\n      dup2\n      mstore\n      0x20\n      add\n      0x03\n      dup3\n      add\n      sload\n      dup2\n      mstore\n      0x20\n      add\n      0x04\n      dup3\n      add\n      sload\n      dup2\n      mstore\n      0x20\n      add\n      0x05\n      dup3\n      add\n      sload\n      dup2\n      mstore\n      0x20\n      add\n      0x06\n      dup3\n      add\n      sload\n      dup2\n      mstore\n      0x20\n      add\n      0x07\n      dup3\n      add\n      sload\n      dup2\n      mstore\n      0x20\n      add\n      0x08\n      dup3\n      add\n      0x00\n      swap1\n      sload\n      swap1\n      0x0100\n      exp\n      swap1\n      div\n      0xff\n      and\n      iszero\n      iszero\n      iszero\n      iszero\n      dup2\n      mstore\n      pop\n      pop\n      swap1\n      pop\n        /* \"main.sol\":5576:5596  Bid memory latestBid */\n      0x00\n        /* \"main.sol\":5599:5603  bids */\n      0x02\n        /* \"main.sol\":5599:5612  bids[_poolId] */\n      0x00\n        /* \"main.sol\":5604:5611  _poolId */\n      dup6\n        /* \"main.sol\":5599:5612  bids[_poolId] */\n      dup2\n      mstore\n      0x20\n      add\n      swap1\n      dup2\n      mstore\n      0x20\n      add\n      0x00\n      keccak256\n        /* \"main.sol\":5599:5626  bids[_poolId][loan.numBids] */\n      0x00\n        /* \"main.sol\":5613:5617  loan */\n      dup4\n        /* \"main.sol\":5613:5625  loan.numBids */\n      0xe0\n      add\n      mload\n        /* \"main.sol\":5599:5626  bids[_poolId][loan.numBids] */\n      dup2\n      mstore\n      0x20\n      add\n      swap1\n      dup2\n      mstore\n      0x20\n      add\n      0x00\n      keccak256\n        /* \"main.sol\":5576:5626  Bid memory latestBid = bids[_poolId][loan.numBids] */\n      mload(0x40)\n      dup1\n      0x60\n      add\n      0x40\n      mstore\n      swap1\n      dup2\n      0x00\n      dup3\n      add\n      sload\n      dup2\n      mstore\n      0x20\n      add\n      0x01\n      dup3\n      add\n      sload\n      dup2\n      mstore\n      0x20\n      add\n      0x02\n      dup3\n      add\n      0x00\n      swap1\n      sload\n      swap1\n      0x0100\n      exp\n      swap1\n      div\n      0xffffffffffffffffffffffffffffffffffffffff\n      and\n      0xffffffffffffffffffffffffffffffffffffffff\n      and\n      0xffffffffffffffffffffffffffffffffffffffff\n      and\n      dup2\n      mstore\n      pop\n      pop\n      swap1\n      pop\n        /* \"main.sol\":5636:5655  uint256 timeElapsed */\n      0x00\n        /* \"main.sol\":5668:5683  _ended(_poolId) */\n      tag_164\n        /* \"main.sol\":5675:5682  _poolId */\n      dup6\n        /* \"main.sol\":5668:5674  _ended */\n      tag_65\n        /* \"main.sol\":5668:5683  _ended(_poolId) */\n      jump\t// in\n    tag_164:\n        /* \"main.sol\":5665:5837  if(_ended(_poolId)){... */\n      iszero\n      tag_165\n      jumpi\n        /* \"main.sol\":5733:5737  loan */\n      dup3\n        /* \"main.sol\":5733:5745  loan.endTime */\n      0xa0\n      add\n      mload\n        /* \"main.sol\":5713:5722  latestBid */\n      dup3\n        /* \"main.sol\":5713:5730  latestBid.bidTime */\n      0x00\n      add\n      mload\n        /* \"main.sol\":5713:5745  latestBid.bidTime - loan.endTime */\n      tag_166\n      swap2\n      swap1\n      tag_131\n      jump\t// in\n    tag_166:\n        /* \"main.sol\":5698:5745  timeElapsed =  latestBid.bidTime - loan.endTime */\n      swap1\n      pop\n        /* \"main.sol\":5665:5837  if(_ended(_poolId)){... */\n      jump(tag_167)\n    tag_165:\n        /* \"main.sol\":5811:5826  block.timestamp */\n      timestamp\n        /* \"main.sol\":5791:5800  latestBid */\n      dup3\n        /* \"main.sol\":5791:5808  latestBid.bidTime */\n      0x00\n      add\n      mload\n        /* \"main.sol\":5791:5826  latestBid.bidTime - block.timestamp */\n      tag_168\n      swap2\n      swap1\n      tag_131\n      jump\t// in\n    tag_168:\n        /* \"main.sol\":5776:5826  timeElapsed =  latestBid.bidTime - block.timestamp */\n      swap1\n      pop\n        /* \"main.sol\":5665:5837  if(_ended(_poolId)){... */\n    tag_167:\n        /* \"main.sol\":1120:1132  60*60*24*365 */\n      0x01e13380\n        /* \"main.sol\":5919:5930  timeElapsed */\n      dup2\n        /* \"main.sol\":5908:5916  10 ** 18 */\n      0x0de0b6b3a7640000\n        /* \"main.sol\":5897:5901  loan */\n      dup6\n        /* \"main.sol\":5897:5905  loan.apr */\n      0xc0\n      add\n      mload\n        /* \"main.sol\":5875:5884  latestBid */\n      dup6\n        /* \"main.sol\":5875:5894  latestBid.bidAmount */\n      0x20\n      add\n      mload\n        /* \"main.sol\":5875:5905  latestBid.bidAmount * loan.apr */\n      tag_169\n      swap2\n      swap1\n      tag_170\n      jump\t// in\n    tag_169:\n        /* \"main.sol\":5875:5916  latestBid.bidAmount * loan.apr / 10 ** 18 */\n      tag_171\n      swap2\n      swap1\n      tag_172\n      jump\t// in\n    tag_171:\n        /* \"main.sol\":5875:5930  latestBid.bidAmount * loan.apr / 10 ** 18 * timeElapsed */\n      tag_173\n      swap2\n      swap1\n      tag_170\n      jump\t// in\n    tag_173:\n        /* \"main.sol\":5875:5952  latestBid.bidAmount * loan.apr / 10 ** 18 * timeElapsed / SECONDS_IN_ONE_YEAR */\n      tag_174\n      swap2\n      swap1\n      tag_172\n      jump\t// in\n    tag_174:\n        /* \"main.sol\":5853:5862  latestBid */\n      dup3\n        /* \"main.sol\":5853:5872  latestBid.bidAmount */\n      0x20\n      add\n      mload\n        /* \"main.sol\":5853:5952  latestBid.bidAmount + latestBid.bidAmount * loan.apr / 10 ** 18 * timeElapsed / SECONDS_IN_ONE_YEAR */\n      tag_175\n      swap2\n      swap1\n      tag_119\n      jump\t// in\n    tag_175:\n        /* \"main.sol\":5846:5952  return latestBid.bidAmount + latestBid.bidAmount * loan.apr / 10 ** 18 * timeElapsed / SECONDS_IN_ONE_YEAR */\n      swap4\n      pop\n      pop\n      pop\n      pop\n        /* \"main.sol\":5446:5959  function _calculateLoanValue(uint256 _poolId) internal view returns (uint256){... */\n      swap2\n      swap1\n      pop\n      jump\t// out\n    tag_96:\n      mload(0x40)\n      dup1\n      0x0120\n      add\n      0x40\n      mstore\n      dup1\n      and(0xffffffffffffffffffffffffffffffffffffffff, 0x00)\n      dup2\n      mstore\n      0x20\n      add\n      and(0xffffffffffffffffffffffffffffffffffffffff, 0x00)\n      dup2\n      mstore\n      0x20\n      add\n      and(0xffffffffffffffffffffffffffffffffffffffff, 0x00)\n      dup2\n      mstore\n      0x20\n      add\n      0x00\n      dup2\n      mstore\n      0x20\n      add\n      0x00\n      dup2\n      mstore\n      0x20\n      add\n      0x00\n      dup2\n      mstore\n      0x20\n      add\n      0x00\n      dup2\n      mstore\n      0x20\n      add\n      0x00\n      dup2\n      mstore\n      0x20\n      add\n      iszero(iszero(0x00))\n      dup2\n      mstore\n      pop\n      swap1\n      jump\t// out\n        /* \"#utility.yul\":7:84   */\n    tag_176:\n        /* \"#utility.yul\":44:51   */\n      0x00\n        /* \"#utility.yul\":73:78   */\n      dup2\n        /* \"#utility.yul\":62:78   */\n      swap1\n      pop\n        /* \"#utility.yul\":7:84   */\n      swap2\n      swap1\n      pop\n      jump\t// out\n        /* \"#utility.yul\":90:208   */\n    tag_177:\n        /* \"#utility.yul\":177:201   */\n      tag_219\n        /* \"#utility.yul\":195:200   */\n      dup2\n        /* \"#utility.yul\":177:201   */\n      tag_176\n      jump\t// in\n    tag_219:\n        /* \"#utility.yul\":172:175   */\n      dup3\n        /* \"#utility.yul\":165:202   */\n      mstore\n        /* \"#utility.yul\":90:208   */\n      pop\n      pop\n      jump\t// out\n        /* \"#utility.yul\":214:436   */\n    tag_18:\n        /* \"#utility.yul\":307:311   */\n      0x00\n        /* \"#utility.yul\":345:347   */\n      0x20\n        /* \"#utility.yul\":334:343   */\n      dup3\n        /* \"#utility.yul\":330:348   */\n      add\n        /* \"#utility.yul\":322:348   */\n      swap1\n      pop\n        /* \"#utility.yul\":358:429   */\n      tag_221\n        /* \"#utility.yul\":426:427   */\n      0x00\n        /* \"#utility.yul\":415:424   */\n      dup4\n        /* \"#utility.yul\":411:428   */\n      add\n        /* \"#utility.yul\":402:408   */\n      dup5\n        /* \"#utility.yul\":358:429   */\n      tag_177\n      jump\t// in\n    tag_221:\n        /* \"#utility.yul\":214:436   */\n      swap3\n      swap2\n      pop\n      pop\n      jump\t// out\n        /* \"#utility.yul\":523:640   */\n    tag_179:\n        /* \"#utility.yul\":632:633   */\n      0x00\n        /* \"#utility.yul\":629:630   */\n      dup1\n        /* \"#utility.yul\":622:634   */\n      revert\n        /* \"#utility.yul\":769:891   */\n    tag_181:\n        /* \"#utility.yul\":842:866   */\n      tag_226\n        /* \"#utility.yul\":860:865   */\n      dup2\n        /* \"#utility.yul\":842:866   */\n      tag_176\n      jump\t// in\n    tag_226:\n        /* \"#utility.yul\":835:840   */\n      dup2\n        /* \"#utility.yul\":832:867   */\n      eq\n        /* \"#utility.yul\":822:885   */\n      tag_227\n      jumpi\n        /* \"#utility.yul\":881:882   */\n      0x00\n        /* \"#utility.yul\":878:879   */\n      dup1\n        /* \"#utility.yul\":871:883   */\n      revert\n        /* \"#utility.yul\":822:885   */\n    tag_227:\n        /* \"#utility.yul\":769:891   */\n      pop\n      jump\t// out\n        /* \"#utility.yul\":897:1036   */\n    tag_182:\n        /* \"#utility.yul\":943:948   */\n      0x00\n        /* \"#utility.yul\":981:987   */\n      dup2\n        /* \"#utility.yul\":968:988   */\n      calldataload\n        /* \"#utility.yul\":959:988   */\n      swap1\n      pop\n        /* \"#utility.yul\":997:1030   */\n      tag_229\n        /* \"#utility.yul\":1024:1029   */\n      dup2\n        /* \"#utility.yul\":997:1030   */\n      tag_181\n      jump\t// in\n    tag_229:\n        /* \"#utility.yul\":897:1036   */\n      swap3\n      swap2\n      pop\n      pop\n      jump\t// out\n        /* \"#utility.yul\":1042:1371   */\n    tag_21:\n        /* \"#utility.yul\":1101:1107   */\n      0x00\n        /* \"#utility.yul\":1150:1152   */\n      0x20\n        /* \"#utility.yul\":1138:1147   */\n      dup3\n        /* \"#utility.yul\":1129:1136   */\n      dup5\n        /* \"#utility.yul\":1125:1148   */\n      sub\n        /* \"#utility.yul\":1121:1153   */\n      slt\n        /* \"#utility.yul\":1118:1237   */\n      iszero\n      tag_231\n      jumpi\n        /* \"#utility.yul\":1156:1235   */\n      tag_232\n      tag_179\n      jump\t// in\n    tag_232:\n        /* \"#utility.yul\":1118:1237   */\n    tag_231:\n        /* \"#utility.yul\":1276:1277   */\n      0x00\n        /* \"#utility.yul\":1301:1354   */\n      tag_233\n        /* \"#utility.yul\":1346:1353   */\n      dup5\n        /* \"#utility.yul\":1337:1343   */\n      dup3\n        /* \"#utility.yul\":1326:1335   */\n      dup6\n        /* \"#utility.yul\":1322:1344   */\n      add\n        /* \"#utility.yul\":1301:1354   */\n      tag_182\n      jump\t// in\n    tag_233:\n        /* \"#utility.yul\":1291:1354   */\n      swap2\n      pop\n        /* \"#utility.yul\":1247:1364   */\n      pop\n        /* \"#utility.yul\":1042:1371   */\n      swap3\n      swap2\n      pop\n      pop\n      jump\t// out\n        /* \"#utility.yul\":1377:1503   */\n    tag_183:\n        /* \"#utility.yul\":1414:1421   */\n      0x00\n        /* \"#utility.yul\":1454:1496   */\n      0xffffffffffffffffffffffffffffffffffffffff\n        /* \"#utility.yul\":1447:1452   */\n      dup3\n        /* \"#utility.yul\":1443:1497   */\n      and\n        /* \"#utility.yul\":1432:1497   */\n      swap1\n      pop\n        /* \"#utility.yul\":1377:1503   */\n      swap2\n      swap1\n      pop\n      jump\t// out\n        /* \"#utility.yul\":1509:1605   */\n    tag_184:\n        /* \"#utility.yul\":1546:1553   */\n      0x00\n        /* \"#utility.yul\":1575:1599   */\n      tag_236\n        /* \"#utility.yul\":1593:1598   */\n      dup3\n        /* \"#utility.yul\":1575:1599   */\n      tag_183\n      jump\t// in\n    tag_236:\n        /* \"#utility.yul\":1564:1599   */\n      swap1\n      pop\n        /* \"#utility.yul\":1509:1605   */\n      swap2\n      swap1\n      pop\n      jump\t// out\n        /* \"#utility.yul\":1611:1733   */\n    tag_185:\n        /* \"#utility.yul\":1684:1708   */\n      tag_238\n        /* \"#utility.yul\":1702:1707   */\n      dup2\n        /* \"#utility.yul\":1684:1708   */\n      tag_184\n      jump\t// in\n    tag_238:\n        /* \"#utility.yul\":1677:1682   */\n      dup2\n        /* \"#utility.yul\":1674:1709   */\n      eq\n        /* \"#utility.yul\":1664:1727   */\n      tag_239\n      jumpi\n        /* \"#utility.yul\":1723:1724   */\n      0x00\n        /* \"#utility.yul\":1720:1721   */\n      dup1\n        /* \"#utility.yul\":1713:1725   */\n      revert\n        /* \"#utility.yul\":1664:1727   */\n    tag_239:\n        /* \"#utility.yul\":1611:1733   */\n      pop\n      jump\t// out\n        /* \"#utility.yul\":1739:1878   */\n    tag_186:\n        /* \"#utility.yul\":1785:1790   */\n      0x00\n        /* \"#utility.yul\":1823:1829   */\n      dup2\n        /* \"#utility.yul\":1810:1830   */\n      calldataload\n        /* \"#utility.yul\":1801:1830   */\n      swap1\n      pop\n        /* \"#utility.yul\":1839:1872   */\n      tag_241\n        /* \"#utility.yul\":1866:1871   */\n      dup2\n        /* \"#utility.yul\":1839:1872   */\n      tag_185\n      jump\t// in\n    tag_241:\n        /* \"#utility.yul\":1739:1878   */\n      swap3\n      swap2\n      pop\n      pop\n      jump\t// out\n        /* \"#utility.yul\":1884:1974   */\n    tag_187:\n        /* \"#utility.yul\":1918:1925   */\n      0x00\n        /* \"#utility.yul\":1961:1966   */\n      dup2\n        /* \"#utility.yul\":1954:1967   */\n      iszero\n        /* \"#utility.yul\":1947:1968   */\n      iszero\n        /* \"#utility.yul\":1936:1968   */\n      swap1\n      pop\n        /* \"#utility.yul\":1884:1974   */\n      swap2\n      swap1\n      pop\n      jump\t// out\n        /* \"#utility.yul\":1980:2096   */\n    tag_188:\n        /* \"#utility.yul\":2050:2071   */\n      tag_244\n        /* \"#utility.yul\":2065:2070   */\n      dup2\n        /* \"#utility.yul\":2050:2071   */\n      tag_187\n      jump\t// in\n    tag_244:\n        /* \"#utility.yul\":2043:2048   */\n      dup2\n        /* \"#utility.yul\":2040:2072   */\n      eq\n        /* \"#utility.yul\":2030:2090   */\n      tag_245\n      jumpi\n        /* \"#utility.yul\":2086:2087   */\n      0x00\n        /* \"#utility.yul\":2083:2084   */\n      dup1\n        /* \"#utility.yul\":2076:2088   */\n      revert\n        /* \"#utility.yul\":2030:2090   */\n    tag_245:\n        /* \"#utility.yul\":1980:2096   */\n      pop\n      jump\t// out\n        /* \"#utility.yul\":2102:2235   */\n    tag_189:\n        /* \"#utility.yul\":2145:2150   */\n      0x00\n        /* \"#utility.yul\":2183:2189   */\n      dup2\n        /* \"#utility.yul\":2170:2190   */\n      calldataload\n        /* \"#utility.yul\":2161:2190   */\n      swap1\n      pop\n        /* \"#utility.yul\":2199:2229   */\n      tag_247\n        /* \"#utility.yul\":2223:2228   */\n      dup2\n        /* \"#utility.yul\":2199:2229   */\n      tag_188\n      jump\t// in\n    tag_247:\n        /* \"#utility.yul\":2102:2235   */\n      swap3\n      swap2\n      pop\n      pop\n      jump\t// out\n        /* \"#utility.yul\":2241:3438   */\n    tag_25:\n        /* \"#utility.yul\":2351:2357   */\n      0x00\n        /* \"#utility.yul\":2359:2365   */\n      dup1\n        /* \"#utility.yul\":2367:2373   */\n      0x00\n        /* \"#utility.yul\":2375:2381   */\n      dup1\n        /* \"#utility.yul\":2383:2389   */\n      0x00\n        /* \"#utility.yul\":2391:2397   */\n      dup1\n        /* \"#utility.yul\":2399:2405   */\n      0x00\n        /* \"#utility.yul\":2448:2451   */\n      0xe0\n        /* \"#utility.yul\":2436:2445   */\n      dup9\n        /* \"#utility.yul\":2427:2434   */\n      dup11\n        /* \"#utility.yul\":2423:2446   */\n      sub\n        /* \"#utility.yul\":2419:2452   */\n      slt\n        /* \"#utility.yul\":2416:2536   */\n      iszero\n      tag_249\n      jumpi\n        /* \"#utility.yul\":2455:2534   */\n      tag_250\n      tag_179\n      jump\t// in\n    tag_250:\n        /* \"#utility.yul\":2416:2536   */\n    tag_249:\n        /* \"#utility.yul\":2575:2576   */\n      0x00\n        /* \"#utility.yul\":2600:2653   */\n      tag_251\n        /* \"#utility.yul\":2645:2652   */\n      dup11\n        /* \"#utility.yul\":2636:2642   */\n      dup3\n        /* \"#utility.yul\":2625:2634   */\n      dup12\n        /* \"#utility.yul\":2621:2643   */\n      add\n        /* \"#utility.yul\":2600:2653   */\n      tag_186\n      jump\t// in\n    tag_251:\n        /* \"#utility.yul\":2590:2653   */\n      swap8\n      pop\n        /* \"#utility.yul\":2546:2663   */\n      pop\n        /* \"#utility.yul\":2702:2704   */\n      0x20\n        /* \"#utility.yul\":2728:2781   */\n      tag_252\n        /* \"#utility.yul\":2773:2780   */\n      dup11\n        /* \"#utility.yul\":2764:2770   */\n      dup3\n        /* \"#utility.yul\":2753:2762   */\n      dup12\n        /* \"#utility.yul\":2749:2771   */\n      add\n        /* \"#utility.yul\":2728:2781   */\n      tag_186\n      jump\t// in\n    tag_252:\n        /* \"#utility.yul\":2718:2781   */\n      swap7\n      pop\n        /* \"#utility.yul\":2673:2791   */\n      pop\n        /* \"#utility.yul\":2830:2832   */\n      0x40\n        /* \"#utility.yul\":2856:2909   */\n      tag_253\n        /* \"#utility.yul\":2901:2908   */\n      dup11\n        /* \"#utility.yul\":2892:2898   */\n      dup3\n        /* \"#utility.yul\":2881:2890   */\n      dup12\n        /* \"#utility.yul\":2877:2899   */\n      add\n        /* \"#utility.yul\":2856:2909   */\n      tag_182\n      jump\t// in\n    tag_253:\n        /* \"#utility.yul\":2846:2909   */\n      swap6\n      pop\n        /* \"#utility.yul\":2801:2919   */\n      pop\n        /* \"#utility.yul\":2958:2960   */\n      0x60\n        /* \"#utility.yul\":2984:3037   */\n      tag_254\n        /* \"#utility.yul\":3029:3036   */\n      dup11\n        /* \"#utility.yul\":3020:3026   */\n      dup3\n        /* \"#utility.yul\":3009:3018   */\n      dup12\n        /* \"#utility.yul\":3005:3027   */\n      add\n        /* \"#utility.yul\":2984:3037   */\n      tag_182\n      jump\t// in\n    tag_254:\n        /* \"#utility.yul\":2974:3037   */\n      swap5\n      pop\n        /* \"#utility.yul\":2929:3047   */\n      pop\n        /* \"#utility.yul\":3086:3089   */\n      0x80\n        /* \"#utility.yul\":3113:3166   */\n      tag_255\n        /* \"#utility.yul\":3158:3165   */\n      dup11\n        /* \"#utility.yul\":3149:3155   */\n      dup3\n        /* \"#utility.yul\":3138:3147   */\n      dup12\n        /* \"#utility.yul\":3134:3156   */\n      add\n        /* \"#utility.yul\":3113:3166   */\n      tag_182\n      jump\t// in\n    tag_255:\n        /* \"#utility.yul\":3103:3166   */\n      swap4\n      pop\n        /* \"#utility.yul\":3057:3176   */\n      pop\n        /* \"#utility.yul\":3215:3218   */\n      0xa0\n        /* \"#utility.yul\":3242:3295   */\n      tag_256\n        /* \"#utility.yul\":3287:3294   */\n      dup11\n        /* \"#utility.yul\":3278:3284   */\n      dup3\n        /* \"#utility.yul\":3267:3276   */\n      dup12\n        /* \"#utility.yul\":3263:3285   */\n      add\n        /* \"#utility.yul\":3242:3295   */\n      tag_182\n      jump\t// in\n    tag_256:\n        /* \"#utility.yul\":3232:3295   */\n      swap3\n      pop\n        /* \"#utility.yul\":3186:3305   */\n      pop\n        /* \"#utility.yul\":3344:3347   */\n      0xc0\n        /* \"#utility.yul\":3371:3421   */\n      tag_257\n        /* \"#utility.yul\":3413:3420   */\n      dup11\n        /* \"#utility.yul\":3404:3410   */\n      dup3\n        /* \"#utility.yul\":3393:3402   */\n      dup12\n        /* \"#utility.yul\":3389:3411   */\n      add\n        /* \"#utility.yul\":3371:3421   */\n      tag_189\n      jump\t// in\n    tag_257:\n        /* \"#utility.yul\":3361:3421   */\n      swap2\n      pop\n        /* \"#utility.yul\":3315:3431   */\n      pop\n        /* \"#utility.yul\":2241:3438   */\n      swap3\n      swap6\n      swap9\n      swap2\n      swap5\n      swap8\n      pop\n      swap3\n      swap6\n      pop\n      jump\t// out\n        /* \"#utility.yul\":3444:3918   */\n    tag_35:\n        /* \"#utility.yul\":3512:3518   */\n      0x00\n        /* \"#utility.yul\":3520:3526   */\n      dup1\n        /* \"#utility.yul\":3569:3571   */\n      0x40\n        /* \"#utility.yul\":3557:3566   */\n      dup4\n        /* \"#utility.yul\":3548:3555   */\n      dup6\n        /* \"#utility.yul\":3544:3567   */\n      sub\n        /* \"#utility.yul\":3540:3572   */\n      slt\n        /* \"#utility.yul\":3537:3656   */\n      iszero\n      tag_259\n      jumpi\n        /* \"#utility.yul\":3575:3654   */\n      tag_260\n      tag_179\n      jump\t// in\n    tag_260:\n        /* \"#utility.yul\":3537:3656   */\n    tag_259:\n        /* \"#utility.yul\":3695:3696   */\n      0x00\n        /* \"#utility.yul\":3720:3773   */\n      tag_261\n        /* \"#utility.yul\":3765:3772   */\n      dup6\n        /* \"#utility.yul\":3756:3762   */\n      dup3\n        /* \"#utility.yul\":3745:3754   */\n      dup7\n        /* \"#utility.yul\":3741:3763   */\n      add\n        /* \"#utility.yul\":3720:3773   */\n      tag_182\n      jump\t// in\n    tag_261:\n        /* \"#utility.yul\":3710:3773   */\n      swap3\n      pop\n        /* \"#utility.yul\":3666:3783   */\n      pop\n        /* \"#utility.yul\":3822:3824   */\n      0x20\n        /* \"#utility.yul\":3848:3901   */\n      tag_262\n        /* \"#utility.yul\":3893:3900   */\n      dup6\n        /* \"#utility.yul\":3884:3890   */\n      dup3\n        /* \"#utility.yul\":3873:3882   */\n      dup7\n        /* \"#utility.yul\":3869:3891   */\n      add\n        /* \"#utility.yul\":3848:3901   */\n      tag_182\n      jump\t// in\n    tag_262:\n        /* \"#utility.yul\":3838:3901   */\n      swap2\n      pop\n        /* \"#utility.yul\":3793:3911   */\n      pop\n        /* \"#utility.yul\":3444:3918   */\n      swap3\n      pop\n      swap3\n      swap1\n      pop\n      jump\t// out\n        /* \"#utility.yul\":3924:4042   */\n    tag_190:\n        /* \"#utility.yul\":4011:4035   */\n      tag_264\n        /* \"#utility.yul\":4029:4034   */\n      dup2\n        /* \"#utility.yul\":4011:4035   */\n      tag_184\n      jump\t// in\n    tag_264:\n        /* \"#utility.yul\":4006:4009   */\n      dup3\n        /* \"#utility.yul\":3999:4036   */\n      mstore\n        /* \"#utility.yul\":3924:4042   */\n      pop\n      pop\n      jump\t// out\n        /* \"#utility.yul\":4048:4490   */\n    tag_44:\n        /* \"#utility.yul\":4197:4201   */\n      0x00\n        /* \"#utility.yul\":4235:4237   */\n      0x60\n        /* \"#utility.yul\":4224:4233   */\n      dup3\n        /* \"#utility.yul\":4220:4238   */\n      add\n        /* \"#utility.yul\":4212:4238   */\n      swap1\n      pop\n        /* \"#utility.yul\":4248:4319   */\n      tag_266\n        /* \"#utility.yul\":4316:4317   */\n      0x00\n        /* \"#utility.yul\":4305:4314   */\n      dup4\n        /* \"#utility.yul\":4301:4318   */\n      add\n        /* \"#utility.yul\":4292:4298   */\n      dup7\n        /* \"#utility.yul\":4248:4319   */\n      tag_177\n      jump\t// in\n    tag_266:\n        /* \"#utility.yul\":4329:4401   */\n      tag_267\n        /* \"#utility.yul\":4397:4399   */\n      0x20\n        /* \"#utility.yul\":4386:4395   */\n      dup4\n        /* \"#utility.yul\":4382:4400   */\n      add\n        /* \"#utility.yul\":4373:4379   */\n      dup6\n        /* \"#utility.yul\":4329:4401   */\n      tag_177\n      jump\t// in\n    tag_267:\n        /* \"#utility.yul\":4411:4483   */\n      tag_268\n        /* \"#utility.yul\":4479:4481   */\n      0x40\n        /* \"#utility.yul\":4468:4477   */\n      dup4\n        /* \"#utility.yul\":4464:4482   */\n      add\n        /* \"#utility.yul\":4455:4461   */\n      dup5\n        /* \"#utility.yul\":4411:4483   */\n      tag_190\n      jump\t// in\n    tag_268:\n        /* \"#utility.yul\":4048:4490   */\n      swap5\n      swap4\n      pop\n      pop\n      pop\n      pop\n      jump\t// out\n        /* \"#utility.yul\":4496:4970   */\n    tag_47:\n        /* \"#utility.yul\":4564:4570   */\n      0x00\n        /* \"#utility.yul\":4572:4578   */\n      dup1\n        /* \"#utility.yul\":4621:4623   */\n      0x40\n        /* \"#utility.yul\":4609:4618   */\n      dup4\n        /* \"#utility.yul\":4600:4607   */\n      dup6\n        /* \"#utility.yul\":4596:4619   */\n      sub\n        /* \"#utility.yul\":4592:4624   */\n      slt\n        /* \"#utility.yul\":4589:4708   */\n      iszero\n      tag_270\n      jumpi\n        /* \"#utility.yul\":4627:4706   */\n      tag_271\n      tag_179\n      jump\t// in\n    tag_271:\n        /* \"#utility.yul\":4589:4708   */\n    tag_270:\n        /* \"#utility.yul\":4747:4748   */\n      0x00\n        /* \"#utility.yul\":4772:4825   */\n      tag_272\n        /* \"#utility.yul\":4817:4824   */\n      dup6\n        /* \"#utility.yul\":4808:4814   */\n      dup3\n        /* \"#utility.yul\":4797:4806   */\n      dup7\n        /* \"#utility.yul\":4793:4815   */\n      add\n        /* \"#utility.yul\":4772:4825   */\n      tag_182\n      jump\t// in\n    tag_272:\n        /* \"#utility.yul\":4762:4825   */\n      swap3\n      pop\n        /* \"#utility.yul\":4718:4835   */\n      pop\n        /* \"#utility.yul\":4874:4876   */\n      0x20\n        /* \"#utility.yul\":4900:4953   */\n      tag_273\n        /* \"#utility.yul\":4945:4952   */\n      dup6\n        /* \"#utility.yul\":4936:4942   */\n      dup3\n        /* \"#utility.yul\":4925:4934   */\n      dup7\n        /* \"#utility.yul\":4921:4943   */\n      add\n        /* \"#utility.yul\":4900:4953   */\n      tag_186\n      jump\t// in\n    tag_273:\n        /* \"#utility.yul\":4890:4953   */\n      swap2\n      pop\n        /* \"#utility.yul\":4845:4963   */\n      pop\n        /* \"#utility.yul\":4496:4970   */\n      swap3\n      pop\n      swap3\n      swap1\n      pop\n      jump\t// out\n        /* \"#utility.yul\":4976:5198   */\n    tag_53:\n        /* \"#utility.yul\":5069:5073   */\n      0x00\n        /* \"#utility.yul\":5107:5109   */\n      0x20\n        /* \"#utility.yul\":5096:5105   */\n      dup3\n        /* \"#utility.yul\":5092:5110   */\n      add\n        /* \"#utility.yul\":5084:5110   */\n      swap1\n      pop\n        /* \"#utility.yul\":5120:5191   */\n      tag_275\n        /* \"#utility.yul\":5188:5189   */\n      0x00\n        /* \"#utility.yul\":5177:5186   */\n      dup4\n        /* \"#utility.yul\":5173:5190   */\n      add\n        /* \"#utility.yul\":5164:5170   */\n      dup5\n        /* \"#utility.yul\":5120:5191   */\n      tag_190\n      jump\t// in\n    tag_275:\n        /* \"#utility.yul\":4976:5198   */\n      swap3\n      swap2\n      pop\n      pop\n      jump\t// out\n        /* \"#utility.yul\":5204:5313   */\n    tag_191:\n        /* \"#utility.yul\":5285:5306   */\n      tag_277\n        /* \"#utility.yul\":5300:5305   */\n      dup2\n        /* \"#utility.yul\":5285:5306   */\n      tag_187\n      jump\t// in\n    tag_277:\n        /* \"#utility.yul\":5280:5283   */\n      dup3\n        /* \"#utility.yul\":5273:5307   */\n      mstore\n        /* \"#utility.yul\":5204:5313   */\n      pop\n      pop\n      jump\t// out\n        /* \"#utility.yul\":5319:6415   */\n    tag_58:\n        /* \"#utility.yul\":5630:5634   */\n      0x00\n        /* \"#utility.yul\":5668:5671   */\n      0x0120\n        /* \"#utility.yul\":5657:5666   */\n      dup3\n        /* \"#utility.yul\":5653:5672   */\n      add\n        /* \"#utility.yul\":5645:5672   */\n      swap1\n      pop\n        /* \"#utility.yul\":5682:5753   */\n      tag_279\n        /* \"#utility.yul\":5750:5751   */\n      0x00\n        /* \"#utility.yul\":5739:5748   */\n      dup4\n        /* \"#utility.yul\":5735:5752   */\n      add\n        /* \"#utility.yul\":5726:5732   */\n      dup13\n        /* \"#utility.yul\":5682:5753   */\n      tag_190\n      jump\t// in\n    tag_279:\n        /* \"#utility.yul\":5763:5835   */\n      tag_280\n        /* \"#utility.yul\":5831:5833   */\n      0x20\n        /* \"#utility.yul\":5820:5829   */\n      dup4\n        /* \"#utility.yul\":5816:5834   */\n      add\n        /* \"#utility.yul\":5807:5813   */\n      dup12\n        /* \"#utility.yul\":5763:5835   */\n      tag_190\n      jump\t// in\n    tag_280:\n        /* \"#utility.yul\":5845:5917   */\n      tag_281\n        /* \"#utility.yul\":5913:5915   */\n      0x40\n        /* \"#utility.yul\":5902:5911   */\n      dup4\n        /* \"#utility.yul\":5898:5916   */\n      add\n        /* \"#utility.yul\":5889:5895   */\n      dup11\n        /* \"#utility.yul\":5845:5917   */\n      tag_190\n      jump\t// in\n    tag_281:\n        /* \"#utility.yul\":5927:5999   */\n      tag_282\n        /* \"#utility.yul\":5995:5997   */\n      0x60\n        /* \"#utility.yul\":5984:5993   */\n      dup4\n        /* \"#utility.yul\":5980:5998   */\n      add\n        /* \"#utility.yul\":5971:5977   */\n      dup10\n        /* \"#utility.yul\":5927:5999   */\n      tag_177\n      jump\t// in\n    tag_282:\n        /* \"#utility.yul\":6009:6082   */\n      tag_283\n        /* \"#utility.yul\":6077:6080   */\n      0x80\n        /* \"#utility.yul\":6066:6075   */\n      dup4\n        /* \"#utility.yul\":6062:6081   */\n      add\n        /* \"#utility.yul\":6053:6059   */\n      dup9\n        /* \"#utility.yul\":6009:6082   */\n      tag_177\n      jump\t// in\n    tag_283:\n        /* \"#utility.yul\":6092:6165   */\n      tag_284\n        /* \"#utility.yul\":6160:6163   */\n      0xa0\n        /* \"#utility.yul\":6149:6158   */\n      dup4\n        /* \"#utility.yul\":6145:6164   */\n      add\n        /* \"#utility.yul\":6136:6142   */\n      dup8\n        /* \"#utility.yul\":6092:6165   */\n      tag_177\n      jump\t// in\n    tag_284:\n        /* \"#utility.yul\":6175:6248   */\n      tag_285\n        /* \"#utility.yul\":6243:6246   */\n      0xc0\n        /* \"#utility.yul\":6232:6241   */\n      dup4\n        /* \"#utility.yul\":6228:6247   */\n      add\n        /* \"#utility.yul\":6219:6225   */\n      dup7\n        /* \"#utility.yul\":6175:6248   */\n      tag_177\n      jump\t// in\n    tag_285:\n        /* \"#utility.yul\":6258:6331   */\n      tag_286\n        /* \"#utility.yul\":6326:6329   */\n      0xe0\n        /* \"#utility.yul\":6315:6324   */\n      dup4\n        /* \"#utility.yul\":6311:6330   */\n      add\n        /* \"#utility.yul\":6302:6308   */\n      dup6\n        /* \"#utility.yul\":6258:6331   */\n      tag_177\n      jump\t// in\n    tag_286:\n        /* \"#utility.yul\":6341:6408   */\n      tag_287\n        /* \"#utility.yul\":6403:6406   */\n      0x0100\n        /* \"#utility.yul\":6392:6401   */\n      dup4\n        /* \"#utility.yul\":6388:6407   */\n      add\n        /* \"#utility.yul\":6379:6385   */\n      dup5\n        /* \"#utility.yul\":6341:6408   */\n      tag_191\n      jump\t// in\n    tag_287:\n        /* \"#utility.yul\":5319:6415   */\n      swap11\n      swap10\n      pop\n      pop\n      pop\n      pop\n      pop\n      pop\n      pop\n      pop\n      pop\n      pop\n      jump\t// out\n        /* \"#utility.yul\":6421:6590   */\n    tag_192:\n        /* \"#utility.yul\":6505:6516   */\n      0x00\n        /* \"#utility.yul\":6539:6545   */\n      dup3\n        /* \"#utility.yul\":6534:6537   */\n      dup3\n        /* \"#utility.yul\":6527:6546   */\n      mstore\n        /* \"#utility.yul\":6579:6583   */\n      0x20\n        /* \"#utility.yul\":6574:6577   */\n      dup3\n        /* \"#utility.yul\":6570:6584   */\n      add\n        /* \"#utility.yul\":6555:6584   */\n      swap1\n      pop\n        /* \"#utility.yul\":6421:6590   */\n      swap3\n      swap2\n      pop\n      pop\n      jump\t// out\n        /* \"#utility.yul\":6596:6760   */\n    tag_193:\n        /* \"#utility.yul\":6736:6752   */\n      0x4c414e3a206e6f74206f776e6572000000000000000000000000000000000000\n        /* \"#utility.yul\":6732:6733   */\n      0x00\n        /* \"#utility.yul\":6724:6730   */\n      dup3\n        /* \"#utility.yul\":6720:6734   */\n      add\n        /* \"#utility.yul\":6713:6753   */\n      mstore\n        /* \"#utility.yul\":6596:6760   */\n      pop\n      jump\t// out\n        /* \"#utility.yul\":6766:7132   */\n    tag_194:\n        /* \"#utility.yul\":6908:6911   */\n      0x00\n        /* \"#utility.yul\":6929:6996   */\n      tag_291\n        /* \"#utility.yul\":6993:6995   */\n      0x0e\n        /* \"#utility.yul\":6988:6991   */\n      dup4\n        /* \"#utility.yul\":6929:6996   */\n      tag_192\n      jump\t// in\n    tag_291:\n        /* \"#utility.yul\":6922:6996   */\n      swap2\n      pop\n        /* \"#utility.yul\":7005:7098   */\n      tag_292\n        /* \"#utility.yul\":7094:7097   */\n      dup3\n        /* \"#utility.yul\":7005:7098   */\n      tag_193\n      jump\t// in\n    tag_292:\n        /* \"#utility.yul\":7123:7125   */\n      0x20\n        /* \"#utility.yul\":7118:7121   */\n      dup3\n        /* \"#utility.yul\":7114:7126   */\n      add\n        /* \"#utility.yul\":7107:7126   */\n      swap1\n      pop\n        /* \"#utility.yul\":6766:7132   */\n      swap2\n      swap1\n      pop\n      jump\t// out\n        /* \"#utility.yul\":7138:7557   */\n    tag_62:\n        /* \"#utility.yul\":7304:7308   */\n      0x00\n        /* \"#utility.yul\":7342:7344   */\n      0x20\n        /* \"#utility.yul\":7331:7340   */\n      dup3\n        /* \"#utility.yul\":7327:7345   */\n      add\n        /* \"#utility.yul\":7319:7345   */\n      swap1\n      pop\n        /* \"#utility.yul\":7391:7400   */\n      dup2\n        /* \"#utility.yul\":7385:7389   */\n      dup2\n        /* \"#utility.yul\":7381:7401   */\n      sub\n        /* \"#utility.yul\":7377:7378   */\n      0x00\n        /* \"#utility.yul\":7366:7375   */\n      dup4\n        /* \"#utility.yul\":7362:7379   */\n      add\n        /* \"#utility.yul\":7355:7402   */\n      mstore\n        /* \"#utility.yul\":7419:7550   */\n      tag_294\n        /* \"#utility.yul\":7545:7549   */\n      dup2\n        /* \"#utility.yul\":7419:7550   */\n      tag_194\n      jump\t// in\n    tag_294:\n        /* \"#utility.yul\":7411:7550   */\n      swap1\n      pop\n        /* \"#utility.yul\":7138:7557   */\n      swap2\n      swap1\n      pop\n      jump\t// out\n        /* \"#utility.yul\":7563:7732   */\n    tag_195:\n        /* \"#utility.yul\":7703:7724   */\n      0x4c414e3a206c6f616e206e6f7420656e64656400000000000000000000000000\n        /* \"#utility.yul\":7699:7700   */\n      0x00\n        /* \"#utility.yul\":7691:7697   */\n      dup3\n        /* \"#utility.yul\":7687:7701   */\n      add\n        /* \"#utility.yul\":7680:7725   */\n      mstore\n        /* \"#utility.yul\":7563:7732   */\n      pop\n      jump\t// out\n        /* \"#utility.yul\":7738:8104   */\n    tag_196:\n        /* \"#utility.yul\":7880:7883   */\n      0x00\n        /* \"#utility.yul\":7901:7968   */\n      tag_297\n        /* \"#utility.yul\":7965:7967   */\n      0x13\n        /* \"#utility.yul\":7960:7963   */\n      dup4\n        /* \"#utility.yul\":7901:7968   */\n      tag_192\n      jump\t// in\n    tag_297:\n        /* \"#utility.yul\":7894:7968   */\n      swap2\n      pop\n        /* \"#utility.yul\":7977:8070   */\n      tag_298\n        /* \"#utility.yul\":8066:8069   */\n      dup3\n        /* \"#utility.yul\":7977:8070   */\n      tag_195\n      jump\t// in\n    tag_298:\n        /* \"#utility.yul\":8095:8097   */\n      0x20\n        /* \"#utility.yul\":8090:8093   */\n      dup3\n        /* \"#utility.yul\":8086:8098   */\n      add\n        /* \"#utility.yul\":8079:8098   */\n      swap1\n      pop\n        /* \"#utility.yul\":7738:8104   */\n      swap2\n      swap1\n      pop\n      jump\t// out\n        /* \"#utility.yul\":8110:8529   */\n    tag_68:\n        /* \"#utility.yul\":8276:8280   */\n      0x00\n        /* \"#utility.yul\":8314:8316   */\n      0x20\n        /* \"#utility.yul\":8303:8312   */\n      dup3\n        /* \"#utility.yul\":8299:8317   */\n      add\n        /* \"#utility.yul\":8291:8317   */\n      swap1\n      pop\n        /* \"#utility.yul\":8363:8372   */\n      dup2\n        /* \"#utility.yul\":8357:8361   */\n      dup2\n        /* \"#utility.yul\":8353:8373   */\n      sub\n        /* \"#utility.yul\":8349:8350   */\n      0x00\n        /* \"#utility.yul\":8338:8347   */\n      dup4\n        /* \"#utility.yul\":8334:8351   */\n      add\n        /* \"#utility.yul\":8327:8374   */\n      mstore\n        /* \"#utility.yul\":8391:8522   */\n      tag_300\n        /* \"#utility.yul\":8517:8521   */\n      dup2\n        /* \"#utility.yul\":8391:8522   */\n      tag_196\n      jump\t// in\n    tag_300:\n        /* \"#utility.yul\":8383:8522   */\n      swap1\n      pop\n        /* \"#utility.yul\":8110:8529   */\n      swap2\n      swap1\n      pop\n      jump\t// out\n        /* \"#utility.yul\":8535:8707   */\n    tag_197:\n        /* \"#utility.yul\":8675:8699   */\n      0x4c414e3a206e6f74206c61746573742062696464657200000000000000000000\n        /* \"#utility.yul\":8671:8672   */\n      0x00\n        /* \"#utility.yul\":8663:8669   */\n      dup3\n        /* \"#utility.yul\":8659:8673   */\n      add\n        /* \"#utility.yul\":8652:8700   */\n      mstore\n        /* \"#utility.yul\":8535:8707   */\n      pop\n      jump\t// out\n        /* \"#utility.yul\":8713:9079   */\n    tag_198:\n        /* \"#utility.yul\":8855:8858   */\n      0x00\n        /* \"#utility.yul\":8876:8943   */\n      tag_303\n        /* \"#utility.yul\":8940:8942   */\n      0x16\n        /* \"#utility.yul\":8935:8938   */\n      dup4\n        /* \"#utility.yul\":8876:8943   */\n      tag_192\n      jump\t// in\n    tag_303:\n        /* \"#utility.yul\":8869:8943   */\n      swap2\n      pop\n        /* \"#utility.yul\":8952:9045   */\n      tag_304\n        /* \"#utility.yul\":9041:9044   */\n      dup3\n        /* \"#utility.yul\":8952:9045   */\n      tag_197\n      jump\t// in\n    tag_304:\n        /* \"#utility.yul\":9070:9072   */\n      0x20\n        /* \"#utility.yul\":9065:9068   */\n      dup3\n        /* \"#utility.yul\":9061:9073   */\n      add\n        /* \"#utility.yul\":9054:9073   */\n      swap1\n      pop\n        /* \"#utility.yul\":8713:9079   */\n      swap2\n      swap1\n      pop\n      jump\t// out\n        /* \"#utility.yul\":9085:9504   */\n    tag_71:\n        /* \"#utility.yul\":9251:9255   */\n      0x00\n        /* \"#utility.yul\":9289:9291   */\n      0x20\n        /* \"#utility.yul\":9278:9287   */\n      dup3\n        /* \"#utility.yul\":9274:9292   */\n      add\n        /* \"#utility.yul\":9266:9292   */\n      swap1\n      pop\n        /* \"#utility.yul\":9338:9347   */\n      dup2\n        /* \"#utility.yul\":9332:9336   */\n      dup2\n        /* \"#utility.yul\":9328:9348   */\n      sub\n        /* \"#utility.yul\":9324:9325   */\n      0x00\n        /* \"#utility.yul\":9313:9322   */\n      dup4\n        /* \"#utility.yul\":9309:9326   */\n      add\n        /* \"#utility.yul\":9302:9349   */\n      mstore\n        /* \"#utility.yul\":9366:9497   */\n      tag_306\n        /* \"#utility.yul\":9492:9496   */\n      dup2\n        /* \"#utility.yul\":9366:9497   */\n      tag_198\n      jump\t// in\n    tag_306:\n        /* \"#utility.yul\":9358:9497   */\n      swap1\n      pop\n        /* \"#utility.yul\":9085:9504   */\n      swap2\n      swap1\n      pop\n      jump\t// out\n        /* \"#utility.yul\":9510:9952   */\n    tag_73:\n        /* \"#utility.yul\":9659:9663   */\n      0x00\n        /* \"#utility.yul\":9697:9699   */\n      0x60\n        /* \"#utility.yul\":9686:9695   */\n      dup3\n        /* \"#utility.yul\":9682:9700   */\n      add\n        /* \"#utility.yul\":9674:9700   */\n      swap1\n      pop\n        /* \"#utility.yul\":9710:9781   */\n      tag_308\n        /* \"#utility.yul\":9778:9779   */\n      0x00\n        /* \"#utility.yul\":9767:9776   */\n      dup4\n        /* \"#utility.yul\":9763:9780   */\n      add\n        /* \"#utility.yul\":9754:9760   */\n      dup7\n        /* \"#utility.yul\":9710:9781   */\n      tag_190\n      jump\t// in\n    tag_308:\n        /* \"#utility.yul\":9791:9863   */\n      tag_309\n        /* \"#utility.yul\":9859:9861   */\n      0x20\n        /* \"#utility.yul\":9848:9857   */\n      dup4\n        /* \"#utility.yul\":9844:9862   */\n      add\n        /* \"#utility.yul\":9835:9841   */\n      dup6\n        /* \"#utility.yul\":9791:9863   */\n      tag_190\n      jump\t// in\n    tag_309:\n        /* \"#utility.yul\":9873:9945   */\n      tag_310\n        /* \"#utility.yul\":9941:9943   */\n      0x40\n        /* \"#utility.yul\":9930:9939   */\n      dup4\n        /* \"#utility.yul\":9926:9944   */\n      add\n        /* \"#utility.yul\":9917:9923   */\n      dup5\n        /* \"#utility.yul\":9873:9945   */\n      tag_177\n      jump\t// in\n    tag_310:\n        /* \"#utility.yul\":9510:9952   */\n      swap5\n      swap4\n      pop\n      pop\n      pop\n      pop\n      jump\t// out\n        /* \"#utility.yul\":9958:10131   */\n    tag_199:\n        /* \"#utility.yul\":10098:10123   */\n      0x4c414e3a2073746172742074696d6520696e2070617374000000000000000000\n        /* \"#utility.yul\":10094:10095   */\n      0x00\n        /* \"#utility.yul\":10086:10092   */\n      dup3\n        /* \"#utility.yul\":10082:10096   */\n      add\n        /* \"#utility.yul\":10075:10124   */\n      mstore\n        /* \"#utility.yul\":9958:10131   */\n      pop\n      jump\t// out\n        /* \"#utility.yul\":10137:10503   */\n    tag_200:\n        /* \"#utility.yul\":10279:10282   */\n      0x00\n        /* \"#utility.yul\":10300:10367   */\n      tag_313\n        /* \"#utility.yul\":10364:10366   */\n      0x17\n        /* \"#utility.yul\":10359:10362   */\n      dup4\n        /* \"#utility.yul\":10300:10367   */\n      tag_192\n      jump\t// in\n    tag_313:\n        /* \"#utility.yul\":10293:10367   */\n      swap2\n      pop\n        /* \"#utility.yul\":10376:10469   */\n      tag_314\n        /* \"#utility.yul\":10465:10468   */\n      dup3\n        /* \"#utility.yul\":10376:10469   */\n      tag_199\n      jump\t// in\n    tag_314:\n        /* \"#utility.yul\":10494:10496   */\n      0x20\n        /* \"#utility.yul\":10489:10492   */\n      dup3\n        /* \"#utility.yul\":10485:10497   */\n      add\n        /* \"#utility.yul\":10478:10497   */\n      swap1\n      pop\n        /* \"#utility.yul\":10137:10503   */\n      swap2\n      swap1\n      pop\n      jump\t// out\n        /* \"#utility.yul\":10509:10928   */\n    tag_80:\n        /* \"#utility.yul\":10675:10679   */\n      0x00\n        /* \"#utility.yul\":10713:10715   */\n      0x20\n        /* \"#utility.yul\":10702:10711   */\n      dup3\n        /* \"#utility.yul\":10698:10716   */\n      add\n        /* \"#utility.yul\":10690:10716   */\n      swap1\n      pop\n        /* \"#utility.yul\":10762:10771   */\n      dup2\n        /* \"#utility.yul\":10756:10760   */\n      dup2\n        /* \"#utility.yul\":10752:10772   */\n      sub\n        /* \"#utility.yul\":10748:10749   */\n      0x00\n        /* \"#utility.yul\":10737:10746   */\n      dup4\n        /* \"#utility.yul\":10733:10750   */\n      add\n        /* \"#utility.yul\":10726:10773   */\n      mstore\n        /* \"#utility.yul\":10790:10921   */\n      tag_316\n        /* \"#utility.yul\":10916:10920   */\n      dup2\n        /* \"#utility.yul\":10790:10921   */\n      tag_200\n      jump\t// in\n    tag_316:\n        /* \"#utility.yul\":10782:10921   */\n      swap1\n      pop\n        /* \"#utility.yul\":10509:10928   */\n      swap2\n      swap1\n      pop\n      jump\t// out\n        /* \"#utility.yul\":10934:11104   */\n    tag_201:\n        /* \"#utility.yul\":11074:11096   */\n      0x4c414e3a20737461727420616674657220656e64000000000000000000000000\n        /* \"#utility.yul\":11070:11071   */\n      0x00\n        /* \"#utility.yul\":11062:11068   */\n      dup3\n        /* \"#utility.yul\":11058:11072   */\n      add\n        /* \"#utility.yul\":11051:11097   */\n      mstore\n        /* \"#utility.yul\":10934:11104   */\n      pop\n      jump\t// out\n        /* \"#utility.yul\":11110:11476   */\n    tag_202:\n        /* \"#utility.yul\":11252:11255   */\n      0x00\n        /* \"#utility.yul\":11273:11340   */\n      tag_319\n        /* \"#utility.yul\":11337:11339   */\n      0x14\n        /* \"#utility.yul\":11332:11335   */\n      dup4\n        /* \"#utility.yul\":11273:11340   */\n      tag_192\n      jump\t// in\n    tag_319:\n        /* \"#utility.yul\":11266:11340   */\n      swap2\n      pop\n        /* \"#utility.yul\":11349:11442   */\n      tag_320\n        /* \"#utility.yul\":11438:11441   */\n      dup3\n        /* \"#utility.yul\":11349:11442   */\n      tag_201\n      jump\t// in\n    tag_320:\n        /* \"#utility.yul\":11467:11469   */\n      0x20\n        /* \"#utility.yul\":11462:11465   */\n      dup3\n        /* \"#utility.yul\":11458:11470   */\n      add\n        /* \"#utility.yul\":11451:11470   */\n      swap1\n      pop\n        /* \"#utility.yul\":11110:11476   */\n      swap2\n      swap1\n      pop\n      jump\t// out\n        /* \"#utility.yul\":11482:11901   */\n    tag_83:\n        /* \"#utility.yul\":11648:11652   */\n      0x00\n        /* \"#utility.yul\":11686:11688   */\n      0x20\n        /* \"#utility.yul\":11675:11684   */\n      dup3\n        /* \"#utility.yul\":11671:11689   */\n      add\n        /* \"#utility.yul\":11663:11689   */\n      swap1\n      pop\n        /* \"#utility.yul\":11735:11744   */\n      dup2\n        /* \"#utility.yul\":11729:11733   */\n      dup2\n        /* \"#utility.yul\":11725:11745   */\n      sub\n        /* \"#utility.yul\":11721:11722   */\n      0x00\n        /* \"#utility.yul\":11710:11719   */\n      dup4\n        /* \"#utility.yul\":11706:11723   */\n      add\n        /* \"#utility.yul\":11699:11746   */\n      mstore\n        /* \"#utility.yul\":11763:11894   */\n      tag_322\n        /* \"#utility.yul\":11889:11893   */\n      dup2\n        /* \"#utility.yul\":11763:11894   */\n      tag_202\n      jump\t// in\n    tag_322:\n        /* \"#utility.yul\":11755:11894   */\n      swap1\n      pop\n        /* \"#utility.yul\":11482:11901   */\n      swap2\n      swap1\n      pop\n      jump\t// out\n        /* \"#utility.yul\":11907:12239   */\n    tag_85:\n        /* \"#utility.yul\":12028:12032   */\n      0x00\n        /* \"#utility.yul\":12066:12068   */\n      0x40\n        /* \"#utility.yul\":12055:12064   */\n      dup3\n        /* \"#utility.yul\":12051:12069   */\n      add\n        /* \"#utility.yul\":12043:12069   */\n      swap1\n      pop\n        /* \"#utility.yul\":12079:12150   */\n      tag_324\n        /* \"#utility.yul\":12147:12148   */\n      0x00\n        /* \"#utility.yul\":12136:12145   */\n      dup4\n        /* \"#utility.yul\":12132:12149   */\n      add\n        /* \"#utility.yul\":12123:12129   */\n      dup6\n        /* \"#utility.yul\":12079:12150   */\n      tag_190\n      jump\t// in\n    tag_324:\n        /* \"#utility.yul\":12160:12232   */\n      tag_325\n        /* \"#utility.yul\":12228:12230   */\n      0x20\n        /* \"#utility.yul\":12217:12226   */\n      dup4\n        /* \"#utility.yul\":12213:12231   */\n      add\n        /* \"#utility.yul\":12204:12210   */\n      dup5\n        /* \"#utility.yul\":12160:12232   */\n      tag_177\n      jump\t// in\n    tag_325:\n        /* \"#utility.yul\":11907:12239   */\n      swap4\n      swap3\n      pop\n      pop\n      pop\n      jump\t// out\n        /* \"#utility.yul\":12245:12425   */\n    tag_203:\n        /* \"#utility.yul\":12293:12370   */\n      0x4e487b7100000000000000000000000000000000000000000000000000000000\n        /* \"#utility.yul\":12290:12291   */\n      0x00\n        /* \"#utility.yul\":12283:12371   */\n      mstore\n        /* \"#utility.yul\":12390:12394   */\n      0x11\n        /* \"#utility.yul\":12387:12388   */\n      0x04\n        /* \"#utility.yul\":12380:12395   */\n      mstore\n        /* \"#utility.yul\":12414:12418   */\n      0x24\n        /* \"#utility.yul\":12411:12412   */\n      0x00\n        /* \"#utility.yul\":12404:12419   */\n      revert\n        /* \"#utility.yul\":12431:12664   */\n    tag_87:\n        /* \"#utility.yul\":12470:12473   */\n      0x00\n        /* \"#utility.yul\":12493:12517   */\n      tag_328\n        /* \"#utility.yul\":12511:12516   */\n      dup3\n        /* \"#utility.yul\":12493:12517   */\n      tag_176\n      jump\t// in\n    tag_328:\n        /* \"#utility.yul\":12484:12517   */\n      swap2\n      pop\n        /* \"#utility.yul\":12539:12605   */\n      0xffffffffffffffffffffffffffffffffffffffffffffffffffffffffffffffff\n        /* \"#utility.yul\":12532:12537   */\n      dup3\n        /* \"#utility.yul\":12529:12606   */\n      sub\n        /* \"#utility.yul\":12526:12629   */\n      tag_329\n      jumpi\n        /* \"#utility.yul\":12609:12627   */\n      tag_330\n      tag_203\n      jump\t// in\n    tag_330:\n        /* \"#utility.yul\":12526:12629   */\n    tag_329:\n        /* \"#utility.yul\":12656:12657   */\n      0x01\n        /* \"#utility.yul\":12649:12654   */\n      dup3\n        /* \"#utility.yul\":12645:12658   */\n      add\n        /* \"#utility.yul\":12638:12658   */\n      swap1\n      pop\n        /* \"#utility.yul\":12431:12664   */\n      swap2\n      swap1\n      pop\n      jump\t// out\n        /* \"#utility.yul\":12670:12840   */\n    tag_204:\n        /* \"#utility.yul\":12810:12832   */\n      0x4c414e3a20616c72656164792073746172746564000000000000000000000000\n        /* \"#utility.yul\":12806:12807   */\n      0x00\n        /* \"#utility.yul\":12798:12804   */\n      dup3\n        /* \"#utility.yul\":12794:12808   */\n      add\n        /* \"#utility.yul\":12787:12833   */\n      mstore\n        /* \"#utility.yul\":12670:12840   */\n      pop\n      jump\t// out\n        /* \"#utility.yul\":12846:13212   */\n    tag_205:\n        /* \"#utility.yul\":12988:12991   */\n      0x00\n        /* \"#utility.yul\":13009:13076   */\n      tag_333\n        /* \"#utility.yul\":13073:13075   */\n      0x14\n        /* \"#utility.yul\":13068:13071   */\n      dup4\n        /* \"#utility.yul\":13009:13076   */\n      tag_192\n      jump\t// in\n    tag_333:\n        /* \"#utility.yul\":13002:13076   */\n      swap2\n      pop\n        /* \"#utility.yul\":13085:13178   */\n      tag_334\n        /* \"#utility.yul\":13174:13177   */\n      dup3\n        /* \"#utility.yul\":13085:13178   */\n      tag_204\n      jump\t// in\n    tag_334:\n        /* \"#utility.yul\":13203:13205   */\n      0x20\n        /* \"#utility.yul\":13198:13201   */\n      dup3\n        /* \"#utility.yul\":13194:13206   */\n      add\n        /* \"#utility.yul\":13187:13206   */\n      swap1\n      pop\n        /* \"#utility.yul\":12846:13212   */\n      swap2\n      swap1\n      pop\n      jump\t// out\n        /* \"#utility.yul\":13218:13637   */\n    tag_94:\n        /* \"#utility.yul\":13384:13388   */\n      0x00\n        /* \"#utility.yul\":13422:13424   */\n      0x20\n        /* \"#utility.yul\":13411:13420   */\n      dup3\n        /* \"#utility.yul\":13407:13425   */\n      add\n        /* \"#utility.yul\":13399:13425   */\n      swap1\n      pop\n        /* \"#utility.yul\":13471:13480   */\n      dup2\n        /* \"#utility.yul\":13465:13469   */\n      dup2\n        /* \"#utility.yul\":13461:13481   */\n      sub\n        /* \"#utility.yul\":13457:13458   */\n      0x00\n        /* \"#utility.yul\":13446:13455   */\n      dup4\n        /* \"#utility.yul\":13442:13459   */\n      add\n        /* \"#utility.yul\":13435:13482   */\n      mstore\n        /* \"#utility.yul\":13499:13630   */\n      tag_336\n        /* \"#utility.yul\":13625:13629   */\n      dup2\n        /* \"#utility.yul\":13499:13630   */\n      tag_205\n      jump\t// in\n    tag_336:\n        /* \"#utility.yul\":13491:13630   */\n      swap1\n      pop\n        /* \"#utility.yul\":13218:13637   */\n      swap2\n      swap1\n      pop\n      jump\t// out\n        /* \"#utility.yul\":13643:13809   */\n    tag_206:\n        /* \"#utility.yul\":13783:13801   */\n      0x4c414e3a206e6f74207374617274656400000000000000000000000000000000\n        /* \"#utility.yul\":13779:13780   */\n      0x00\n        /* \"#utility.yul\":13771:13777   */\n      dup3\n        /* \"#utility.yul\":13767:13781   */\n      add\n        /* \"#utility.yul\":13760:13802   */\n      mstore\n        /* \"#utility.yul\":13643:13809   */\n      pop\n      jump\t// out\n        /* \"#utility.yul\":13815:14181   */\n    tag_207:\n        /* \"#utility.yul\":13957:13960   */\n      0x00\n        /* \"#utility.yul\":13978:14045   */\n      tag_339\n        /* \"#utility.yul\":14042:14044   */\n      0x10\n        /* \"#utility.yul\":14037:14040   */\n      dup4\n        /* \"#utility.yul\":13978:14045   */\n      tag_192\n      jump\t// in\n    tag_339:\n        /* \"#utility.yul\":13971:14045   */\n      swap2\n      pop\n        /* \"#utility.yul\":14054:14147   */\n      tag_340\n        /* \"#utility.yul\":14143:14146   */\n      dup3\n        /* \"#utility.yul\":14054:14147   */\n      tag_206\n      jump\t// in\n    tag_340:\n        /* \"#utility.yul\":14172:14174   */\n      0x20\n        /* \"#utility.yul\":14167:14170   */\n      dup3\n        /* \"#utility.yul\":14163:14175   */\n      add\n        /* \"#utility.yul\":14156:14175   */\n      swap1\n      pop\n        /* \"#utility.yul\":13815:14181   */\n      swap2\n      swap1\n      pop\n      jump\t// out\n        /* \"#utility.yul\":14187:14606   */\n    tag_113:\n        /* \"#utility.yul\":14353:14357   */\n      0x00\n        /* \"#utility.yul\":14391:14393   */\n      0x20\n        /* \"#utility.yul\":14380:14389   */\n      dup3\n        /* \"#utility.yul\":14376:14394   */\n      add\n        /* \"#utility.yul\":14368:14394   */\n      swap1\n      pop\n        /* \"#utility.yul\":14440:14449   */\n      dup2\n        /* \"#utility.yul\":14434:14438   */\n      dup2\n        /* \"#utility.yul\":14430:14450   */\n      sub\n        /* \"#utility.yul\":14426:14427   */\n      0x00\n        /* \"#utility.yul\":14415:14424   */\n      dup4\n        /* \"#utility.yul\":14411:14428   */\n      add\n        /* \"#utility.yul\":14404:14451   */\n      mstore\n        /* \"#utility.yul\":14468:14599   */\n      tag_342\n        /* \"#utility.yul\":14594:14598   */\n      dup2\n        /* \"#utility.yul\":14468:14599   */\n      tag_207\n      jump\t// in\n    tag_342:\n        /* \"#utility.yul\":14460:14599   */\n      swap1\n      pop\n        /* \"#utility.yul\":14187:14606   */\n      swap2\n      swap1\n      pop\n      jump\t// out\n        /* \"#utility.yul\":14612:14780   */\n    tag_208:\n        /* \"#utility.yul\":14752:14772   */\n      0x4c414e3a20616c726561647920656e6465640000000000000000000000000000\n        /* \"#utility.yul\":14748:14749   */\n      0x00\n        /* \"#utility.yul\":14740:14746   */\n      dup3\n        /* \"#utility.yul\":14736:14750   */\n      add\n        /* \"#utility.yul\":14729:14773   */\n      mstore\n        /* \"#utility.yul\":14612:14780   */\n      pop\n      jump\t// out\n        /* \"#utility.yul\":14786:15152   */\n    tag_209:\n        /* \"#utility.yul\":14928:14931   */\n      0x00\n        /* \"#utility.yul\":14949:15016   */\n      tag_345\n        /* \"#utility.yul\":15013:15015   */\n      0x12\n        /* \"#utility.yul\":15008:15011   */\n      dup4\n        /* \"#utility.yul\":14949:15016   */\n      tag_192\n      jump\t// in\n    tag_345:\n        /* \"#utility.yul\":14942:15016   */\n      swap2\n      pop\n        /* \"#utility.yul\":15025:15118   */\n      tag_346\n        /* \"#utility.yul\":15114:15117   */\n      dup3\n        /* \"#utility.yul\":15025:15118   */\n      tag_208\n      jump\t// in\n    tag_346:\n        /* \"#utility.yul\":15143:15145   */\n      0x20\n        /* \"#utility.yul\":15138:15141   */\n      dup3\n        /* \"#utility.yul\":15134:15146   */\n      add\n        /* \"#utility.yul\":15127:15146   */\n      swap1\n      pop\n        /* \"#utility.yul\":14786:15152   */\n      swap2\n      swap1\n      pop\n      jump\t// out\n        /* \"#utility.yul\":15158:15577   */\n    tag_117:\n        /* \"#utility.yul\":15324:15328   */\n      0x00\n        /* \"#utility.yul\":15362:15364   */\n      0x20\n        /* \"#utility.yul\":15351:15360   */\n      dup3\n        /* \"#utility.yul\":15347:15365   */\n      add\n        /* \"#utility.yul\":15339:15365   */\n      swap1\n      pop\n        /* \"#utility.yul\":15411:15420   */\n      dup2\n        /* \"#utility.yul\":15405:15409   */\n      dup2\n        /* \"#utility.yul\":15401:15421   */\n      sub\n        /* \"#utility.yul\":15397:15398   */\n      0x00\n        /* \"#utility.yul\":15386:15395   */\n      dup4\n        /* \"#utility.yul\":15382:15399   */\n      add\n        /* \"#utility.yul\":15375:15422   */\n      mstore\n        /* \"#utility.yul\":15439:15570   */\n      tag_348\n        /* \"#utility.yul\":15565:15569   */\n      dup2\n        /* \"#utility.yul\":15439:15570   */\n      tag_209\n      jump\t// in\n    tag_348:\n        /* \"#utility.yul\":15431:15570   */\n      swap1\n      pop\n        /* \"#utility.yul\":15158:15577   */\n      swap2\n      swap1\n      pop\n      jump\t// out\n        /* \"#utility.yul\":15583:15774   */\n    tag_119:\n        /* \"#utility.yul\":15623:15626   */\n      0x00\n        /* \"#utility.yul\":15642:15662   */\n      tag_350\n        /* \"#utility.yul\":15660:15661   */\n      dup3\n        /* \"#utility.yul\":15642:15662   */\n      tag_176\n      jump\t// in\n    tag_350:\n        /* \"#utility.yul\":15637:15662   */\n      swap2\n      pop\n        /* \"#utility.yul\":15676:15696   */\n      tag_351\n        /* \"#utility.yul\":15694:15695   */\n      dup4\n        /* \"#utility.yul\":15676:15696   */\n      tag_176\n      jump\t// in\n    tag_351:\n        /* \"#utility.yul\":15671:15696   */\n      swap3\n      pop\n        /* \"#utility.yul\":15719:15720   */\n      dup3\n        /* \"#utility.yul\":15716:15717   */\n      dup3\n        /* \"#utility.yul\":15712:15721   */\n      add\n        /* \"#utility.yul\":15705:15721   */\n      swap1\n      pop\n        /* \"#utility.yul\":15740:15743   */\n      dup1\n        /* \"#utility.yul\":15737:15738   */\n      dup3\n        /* \"#utility.yul\":15734:15744   */\n      gt\n        /* \"#utility.yul\":15731:15767   */\n      iszero\n      tag_352\n      jumpi\n        /* \"#utility.yul\":15747:15765   */\n      tag_353\n      tag_203\n      jump\t// in\n    tag_353:\n        /* \"#utility.yul\":15731:15767   */\n    tag_352:\n        /* \"#utility.yul\":15583:15774   */\n      swap3\n      swap2\n      pop\n      pop\n      jump\t// out\n        /* \"#utility.yul\":15780:15949   */\n    tag_210:\n        /* \"#utility.yul\":15920:15941   */\n      0x4c414e3a20626964206e6f742068696768657200000000000000000000000000\n        /* \"#utility.yul\":15916:15917   */\n      0x00\n        /* \"#utility.yul\":15908:15914   */\n      dup3\n        /* \"#utility.yul\":15904:15918   */\n      add\n        /* \"#utility.yul\":15897:15942   */\n      mstore\n        /* \"#utility.yul\":15780:15949   */\n      pop\n      jump\t// out\n        /* \"#utility.yul\":15955:16321   */\n    tag_211:\n        /* \"#utility.yul\":16097:16100   */\n      0x00\n        /* \"#utility.yul\":16118:16185   */\n      tag_356\n        /* \"#utility.yul\":16182:16184   */\n      0x13\n        /* \"#utility.yul\":16177:16180   */\n      dup4\n        /* \"#utility.yul\":16118:16185   */\n      tag_192\n      jump\t// in\n    tag_356:\n        /* \"#utility.yul\":16111:16185   */\n      swap2\n      pop\n        /* \"#utility.yul\":16194:16287   */\n      tag_357\n        /* \"#utility.yul\":16283:16286   */\n      dup3\n        /* \"#utility.yul\":16194:16287   */\n      tag_210\n      jump\t// in\n    tag_357:\n        /* \"#utility.yul\":16312:16314   */\n      0x20\n        /* \"#utility.yul\":16307:16310   */\n      dup3\n        /* \"#utility.yul\":16303:16315   */\n      add\n        /* \"#utility.yul\":16296:16315   */\n      swap1\n      pop\n        /* \"#utility.yul\":15955:16321   */\n      swap2\n      swap1\n      pop\n      jump\t// out\n        /* \"#utility.yul\":16327:16746   */\n    tag_124:\n        /* \"#utility.yul\":16493:16497   */\n      0x00\n        /* \"#utility.yul\":16531:16533   */\n      0x20\n        /* \"#utility.yul\":16520:16529   */\n      dup3\n        /* \"#utility.yul\":16516:16534   */\n      add\n        /* \"#utility.yul\":16508:16534   */\n      swap1\n      pop\n        /* \"#utility.yul\":16580:16589   */\n      dup2\n        /* \"#utility.yul\":16574:16578   */\n      dup2\n        /* \"#utility.yul\":16570:16590   */\n      sub\n        /* \"#utility.yul\":16566:16567   */\n      0x00\n        /* \"#utility.yul\":16555:16564   */\n      dup4\n        /* \"#utility.yul\":16551:16568   */\n      add\n        /* \"#utility.yul\":16544:16591   */\n      mstore\n        /* \"#utility.yul\":16608:16739   */\n      tag_359\n        /* \"#utility.yul\":16734:16738   */\n      dup2\n        /* \"#utility.yul\":16608:16739   */\n      tag_211\n      jump\t// in\n    tag_359:\n        /* \"#utility.yul\":16600:16739   */\n      swap1\n      pop\n        /* \"#utility.yul\":16327:16746   */\n      swap2\n      swap1\n      pop\n      jump\t// out\n        /* \"#utility.yul\":16752:16889   */\n    tag_212:\n        /* \"#utility.yul\":16806:16811   */\n      0x00\n        /* \"#utility.yul\":16837:16843   */\n      dup2\n        /* \"#utility.yul\":16831:16844   */\n      mload\n        /* \"#utility.yul\":16822:16844   */\n      swap1\n      pop\n        /* \"#utility.yul\":16853:16883   */\n      tag_361\n        /* \"#utility.yul\":16877:16882   */\n      dup2\n        /* \"#utility.yul\":16853:16883   */\n      tag_188\n      jump\t// in\n    tag_361:\n        /* \"#utility.yul\":16752:16889   */\n      swap3\n      swap2\n      pop\n      pop\n      jump\t// out\n        /* \"#utility.yul\":16895:17240   */\n    tag_129:\n        /* \"#utility.yul\":16962:16968   */\n      0x00\n        /* \"#utility.yul\":17011:17013   */\n      0x20\n        /* \"#utility.yul\":16999:17008   */\n      dup3\n        /* \"#utility.yul\":16990:16997   */\n      dup5\n        /* \"#utility.yul\":16986:17009   */\n      sub\n        /* \"#utility.yul\":16982:17014   */\n      slt\n        /* \"#utility.yul\":16979:17098   */\n      iszero\n      tag_363\n      jumpi\n        /* \"#utility.yul\":17017:17096   */\n      tag_364\n      tag_179\n      jump\t// in\n    tag_364:\n        /* \"#utility.yul\":16979:17098   */\n    tag_363:\n        /* \"#utility.yul\":17137:17138   */\n      0x00\n        /* \"#utility.yul\":17162:17223   */\n      tag_365\n        /* \"#utility.yul\":17215:17222   */\n      dup5\n        /* \"#utility.yul\":17206:17212   */\n      dup3\n        /* \"#utility.yul\":17195:17204   */\n      dup6\n        /* \"#utility.yul\":17191:17213   */\n      add\n        /* \"#utility.yul\":17162:17223   */\n      tag_212\n      jump\t// in\n    tag_365:\n        /* \"#utility.yul\":17152:17223   */\n      swap2\n      pop\n        /* \"#utility.yul\":17108:17233   */\n      pop\n        /* \"#utility.yul\":16895:17240   */\n      swap3\n      swap2\n      pop\n      pop\n      jump\t// out\n        /* \"#utility.yul\":17246:17440   */\n    tag_131:\n        /* \"#utility.yul\":17286:17290   */\n      0x00\n        /* \"#utility.yul\":17306:17326   */\n      tag_367\n        /* \"#utility.yul\":17324:17325   */\n      dup3\n        /* \"#utility.yul\":17306:17326   */\n      tag_176\n      jump\t// in\n    tag_367:\n        /* \"#utility.yul\":17301:17326   */\n      swap2\n      pop\n        /* \"#utility.yul\":17340:17360   */\n      tag_368\n        /* \"#utility.yul\":17358:17359   */\n      dup4\n        /* \"#utility.yul\":17340:17360   */\n      tag_176\n      jump\t// in\n    tag_368:\n        /* \"#utility.yul\":17335:17360   */\n      swap3\n      pop\n        /* \"#utility.yul\":17384:17385   */\n      dup3\n        /* \"#utility.yul\":17381:17382   */\n      dup3\n        /* \"#utility.yul\":17377:17386   */\n      sub\n        /* \"#utility.yul\":17369:17386   */\n      swap1\n      pop\n        /* \"#utility.yul\":17408:17409   */\n      dup2\n        /* \"#utility.yul\":17402:17406   */\n      dup2\n        /* \"#utility.yul\":17399:17410   */\n      gt\n        /* \"#utility.yul\":17396:17433   */\n      iszero\n      tag_369\n      jumpi\n        /* \"#utility.yul\":17413:17431   */\n      tag_370\n      tag_203\n      jump\t// in\n    tag_370:\n        /* \"#utility.yul\":17396:17433   */\n    tag_369:\n        /* \"#utility.yul\":17246:17440   */\n      swap3\n      swap2\n      pop\n      pop\n      jump\t// out\n        /* \"#utility.yul\":17446:17622   */\n    tag_213:\n        /* \"#utility.yul\":17586:17614   */\n      0x4c414e3a204e6f7420746865206c617465737420626964646572000000000000\n        /* \"#utility.yul\":17582:17583   */\n      0x00\n        /* \"#utility.yul\":17574:17580   */\n      dup3\n        /* \"#utility.yul\":17570:17584   */\n      add\n        /* \"#utility.yul\":17563:17615   */\n      mstore\n        /* \"#utility.yul\":17446:17622   */\n      pop\n      jump\t// out\n        /* \"#utility.yul\":17628:17994   */\n    tag_214:\n        /* \"#utility.yul\":17770:17773   */\n      0x00\n        /* \"#utility.yul\":17791:17858   */\n      tag_373\n        /* \"#utility.yul\":17855:17857   */\n      0x1a\n        /* \"#utility.yul\":17850:17853   */\n      dup4\n        /* \"#utility.yul\":17791:17858   */\n      tag_192\n      jump\t// in\n    tag_373:\n        /* \"#utility.yul\":17784:17858   */\n      swap2\n      pop\n        /* \"#utility.yul\":17867:17960   */\n      tag_374\n        /* \"#utility.yul\":17956:17959   */\n      dup3\n        /* \"#utility.yul\":17867:17960   */\n      tag_213\n      jump\t// in\n    tag_374:\n        /* \"#utility.yul\":17985:17987   */\n      0x20\n        /* \"#utility.yul\":17980:17983   */\n      dup3\n        /* \"#utility.yul\":17976:17988   */\n      add\n        /* \"#utility.yul\":17969:17988   */\n      swap1\n      pop\n        /* \"#utility.yul\":17628:17994   */\n      swap2\n      swap1\n      pop\n      jump\t// out\n        /* \"#utility.yul\":18000:18419   */\n    tag_158:\n        /* \"#utility.yul\":18166:18170   */\n      0x00\n        /* \"#utility.yul\":18204:18206   */\n      0x20\n        /* \"#utility.yul\":18193:18202   */\n      dup3\n        /* \"#utility.yul\":18189:18207   */\n      add\n        /* \"#utility.yul\":18181:18207   */\n      swap1\n      pop\n        /* \"#utility.yul\":18253:18262   */\n      dup2\n        /* \"#utility.yul\":18247:18251   */\n      dup2\n        /* \"#utility.yul\":18243:18263   */\n      sub\n        /* \"#utility.yul\":18239:18240   */\n      0x00\n        /* \"#utility.yul\":18228:18237   */\n      dup4\n        /* \"#utility.yul\":18224:18241   */\n      add\n        /* \"#utility.yul\":18217:18264   */\n      mstore\n        /* \"#utility.yul\":18281:18412   */\n      tag_376\n        /* \"#utility.yul\":18407:18411   */\n      dup2\n        /* \"#utility.yul\":18281:18412   */\n      tag_214\n      jump\t// in\n    tag_376:\n        /* \"#utility.yul\":18273:18412   */\n      swap1\n      pop\n        /* \"#utility.yul\":18000:18419   */\n      swap2\n      swap1\n      pop\n      jump\t// out\n        /* \"#utility.yul\":18425:18773   */\n    tag_170:\n        /* \"#utility.yul\":18465:18472   */\n      0x00\n        /* \"#utility.yul\":18488:18508   */\n      tag_378\n        /* \"#utility.yul\":18506:18507   */\n      dup3\n        /* \"#utility.yul\":18488:18508   */\n      tag_176\n      jump\t// in\n    tag_378:\n        /* \"#utility.yul\":18483:18508   */\n      swap2\n      pop\n        /* \"#utility.yul\":18522:18542   */\n      tag_379\n        /* \"#utility.yul\":18540:18541   */\n      dup4\n        /* \"#utility.yul\":18522:18542   */\n      tag_176\n      jump\t// in\n    tag_379:\n        /* \"#utility.yul\":18517:18542   */\n      swap3\n      pop\n        /* \"#utility.yul\":18710:18711   */\n      dup2\n        /* \"#utility.yul\":18642:18708   */\n      0xffffffffffffffffffffffffffffffffffffffffffffffffffffffffffffffff\n        /* \"#utility.yul\":18638:18712   */\n      div\n        /* \"#utility.yul\":18635:18636   */\n      dup4\n        /* \"#utility.yul\":18632:18713   */\n      gt\n        /* \"#utility.yul\":18627:18628   */\n      dup3\n        /* \"#utility.yul\":18620:18629   */\n      iszero\n        /* \"#utility.yul\":18613:18630   */\n      iszero\n        /* \"#utility.yul\":18609:18714   */\n      and\n        /* \"#utility.yul\":18606:18737   */\n      iszero\n      tag_380\n      jumpi\n        /* \"#utility.yul\":18717:18735   */\n      tag_381\n      tag_203\n      jump\t// in\n    tag_381:\n        /* \"#utility.yul\":18606:18737   */\n    tag_380:\n        /* \"#utility.yul\":18765:18766   */\n      dup3\n        /* \"#utility.yul\":18762:18763   */\n      dup3\n        /* \"#utility.yul\":18758:18767   */\n      mul\n        /* \"#utility.yul\":18747:18767   */\n      swap1\n      pop\n        /* \"#utility.yul\":18425:18773   */\n      swap3\n      swap2\n      pop\n      pop\n      jump\t// out\n        /* \"#utility.yul\":18779:18959   */\n    tag_215:\n        /* \"#utility.yul\":18827:18904   */\n      0x4e487b7100000000000000000000000000000000000000000000000000000000\n        /* \"#utility.yul\":18824:18825   */\n      0x00\n        /* \"#utility.yul\":18817:18905   */\n      mstore\n        /* \"#utility.yul\":18924:18928   */\n      0x12\n        /* \"#utility.yul\":18921:18922   */\n      0x04\n        /* \"#utility.yul\":18914:18929   */\n      mstore\n        /* \"#utility.yul\":18948:18952   */\n      0x24\n        /* \"#utility.yul\":18945:18946   */\n      0x00\n        /* \"#utility.yul\":18938:18953   */\n      revert\n        /* \"#utility.yul\":18965:19150   */\n    tag_172:\n        /* \"#utility.yul\":19005:19006   */\n      0x00\n        /* \"#utility.yul\":19022:19042   */\n      tag_384\n        /* \"#utility.yul\":19040:19041   */\n      dup3\n        /* \"#utility.yul\":19022:19042   */\n      tag_176\n      jump\t// in\n    tag_384:\n        /* \"#utility.yul\":19017:19042   */\n      swap2\n      pop\n        /* \"#utility.yul\":19056:19076   */\n      tag_385\n        /* \"#utility.yul\":19074:19075   */\n      dup4\n        /* \"#utility.yul\":19056:19076   */\n      tag_176\n      jump\t// in\n    tag_385:\n        /* \"#utility.yul\":19051:19076   */\n      swap3\n      pop\n        /* \"#utility.yul\":19095:19096   */\n      dup3\n        /* \"#utility.yul\":19085:19120   */\n      tag_386\n      jumpi\n        /* \"#utility.yul\":19100:19118   */\n      tag_387\n      tag_215\n      jump\t// in\n    tag_387:\n        /* \"#utility.yul\":19085:19120   */\n    tag_386:\n        /* \"#utility.yul\":19142:19143   */\n      dup3\n        /* \"#utility.yul\":19139:19140   */\n      dup3\n        /* \"#utility.yul\":19135:19144   */\n      div\n        /* \"#utility.yul\":19130:19144   */\n      swap1\n      pop\n        /* \"#utility.yul\":18965:19150   */\n      swap3\n      swap2\n      pop\n      pop\n      jump\t// out\n\n    auxdata: 0xa2646970667358221220d85043aa60ba0640257f9edb68ccfad11564a39653311c11231b9059112c055a64736f6c63430008100033\n}\n",
				"bytecode": {
					"linkReferences": {},
					"object": "608060405234801561001057600080fd5b50612931806100206000396000f3fe608060405234801561001057600080fd5b50600436106100a95760003560e01c8063598647f811610071578063598647f81461013c5780637870860b146101585780637b3c4baa146101745780638f769f3a146101a65780639bea77da146101c2578063e1ec3c68146101f2576100a9565b806306661abd146100ae57806318de4f9d146100cc5780632613c5d6146100e857806340e58ee514610104578063415f124014610120575b600080fd5b6100b661022a565b6040516100c39190611f49565b60405180910390f35b6100e660048036038101906100e19190611f95565b610230565b005b61010260048036038101906100fd9190612058565b610629565b005b61011e60048036038101906101199190611f95565b6108fc565b005b61013a60048036038101906101359190611f95565b610b9f565b005b610156600480360381019061015191906120fa565b610eee565b005b610172600480360381019061016d9190611f95565b611379565b005b61018e600480360381019061018991906120fa565b611745565b60405161019d93929190612149565b60405180910390f35b6101c060048036038101906101bb9190612180565b61179c565b005b6101dc60048036038101906101d791906120fa565b611aa6565b6040516101e991906121c0565b60405180910390f35b61020c60048036038101906102079190611f95565b611af4565b604051610221999897969594939291906121ea565b60405180910390f35b60005481565b803373ffffffffffffffffffffffffffffffffffffffff166001600083815260200190815260200160002060000160009054906101000a900473ffffffffffffffffffffffffffffffffffffffff1673ffffffffffffffffffffffffffffffffffffffff16146102d5576040517f08c379a00000000000000000000000000000000000000000000000000000000081526004016102cc906122d4565b60405180910390fd5b600060016000848152602001908152602001600020604051806101200160405290816000820160009054906101000a900473ffffffffffffffffffffffffffffffffffffffff1673ffffffffffffffffffffffffffffffffffffffff1673ffffffffffffffffffffffffffffffffffffffff1681526020016001820160009054906101000a900473ffffffffffffffffffffffffffffffffffffffff1673ffffffffffffffffffffffffffffffffffffffff1673ffffffffffffffffffffffffffffffffffffffff1681526020016002820160009054906101000a900473ffffffffffffffffffffffffffffffffffffffff1673ffffffffffffffffffffffffffffffffffffffff1673ffffffffffffffffffffffffffffffffffffffff16815260200160038201548152602001600482015481526020016005820154815260200160068201548152602001600782015481526020016008820160009054906101000a900460ff161515151581525050905061045083611baf565b61048f576040517f08c379a000000000000000000000000000000000000000000000000000000000815260040161048690612340565b60405180910390fd5b60006002600085815260200190815260200160002060008360e00151815260200190815260200160002060405180606001604052908160008201548152602001600182015481526020016002820160009054906101000a900473ffffffffffffffffffffffffffffffffffffffff1673ffffffffffffffffffffffffffffffffffffffff1673ffffffffffffffffffffffffffffffffffffffff168152505090503373ffffffffffffffffffffffffffffffffffffffff16816040015173ffffffffffffffffffffffffffffffffffffffff16146105a2576040517f08c379a0000000000000000000000000000000000000000000000000000000008152600401610599906123ac565b60405180910390fd5b6000826040015190508073ffffffffffffffffffffffffffffffffffffffff166342842e0e30846040015186606001516040518463ffffffff1660e01b81526004016105f0939291906123cc565b600060405180830381600087803b15801561060a57600080fd5b505af115801561061e573d6000803e3d6000fd5b505050505050505050565b4284101561066c576040517f08c379a00000000000000000000000000000000000000000000000000000000081526004016106639061244f565b60405180910390fd5b8383116106ae576040517f08c379a00000000000000000000000000000000000000000000000000000000081526004016106a5906124bb565b60405180910390fd5b6040518061012001604052803373ffffffffffffffffffffffffffffffffffffffff1681526020018873ffffffffffffffffffffffffffffffffffffffff1681526020018773ffffffffffffffffffffffffffffffffffffffff1681526020018681526020018581526020018481526020018381526020016000815260200160001515815250600160008054815260200190815260200160002060008201518160000160006101000a81548173ffffffffffffffffffffffffffffffffffffffff021916908373ffffffffffffffffffffffffffffffffffffffff16021790555060208201518160010160006101000a81548173ffffffffffffffffffffffffffffffffffffffff021916908373ffffffffffffffffffffffffffffffffffffffff16021790555060408201518160020160006101000a81548173ffffffffffffffffffffffffffffffffffffffff021916908373ffffffffffffffffffffffffffffffffffffffff160217905550606082015181600301556080820151816004015560a0820151816005015560c0820151816006015560e082015181600701556101008201518160080160006101000a81548160ff0219169083151502179055509050504260026000805481526020019081526020016000206000808152602001908152602001600020600001819055506000547fef8b2952c43462575e82711d0cc91169720a4589a9fa533d173e022437f5405e87876040516108d49291906124db565b60405180910390a26000808154809291906108ee90612533565b919050555050505050505050565b803373ffffffffffffffffffffffffffffffffffffffff166001600083815260200190815260200160002060000160009054906101000a900473ffffffffffffffffffffffffffffffffffffffff1673ffffffffffffffffffffffffffffffffffffffff16146109a1576040517f08c379a0000000000000000000000000000000000000000000000000000000008152600401610998906122d4565b60405180910390fd5b600060016000848152602001908152602001600020604051806101200160405290816000820160009054906101000a900473ffffffffffffffffffffffffffffffffffffffff1673ffffffffffffffffffffffffffffffffffffffff1673ffffffffffffffffffffffffffffffffffffffff1681526020016001820160009054906101000a900473ffffffffffffffffffffffffffffffffffffffff1673ffffffffffffffffffffffffffffffffffffffff1673ffffffffffffffffffffffffffffffffffffffff1681526020016002820160009054906101000a900473ffffffffffffffffffffffffffffffffffffffff1673ffffffffffffffffffffffffffffffffffffffff1673ffffffffffffffffffffffffffffffffffffffff16815260200160038201548152602001600482015481526020016005820154815260200160068201548152602001600782015481526020016008820160009054906101000a900460ff161515151581525050905042816080015111610b59576040517f08c379a0000000000000000000000000000000000000000000000000000000008152600401610b50906125c7565b60405180910390fd5b610b61611ea0565b90507ffe785ef891129b084b1c5a30e4d88eb97c97822c024cc25d5f9d806b897512e083604051610b929190611f49565b60405180910390a1505050565b600060016000838152602001908152602001600020604051806101200160405290816000820160009054906101000a900473ffffffffffffffffffffffffffffffffffffffff1673ffffffffffffffffffffffffffffffffffffffff1673ffffffffffffffffffffffffffffffffffffffff1681526020016001820160009054906101000a900473ffffffffffffffffffffffffffffffffffffffff1673ffffffffffffffffffffffffffffffffffffffff1673ffffffffffffffffffffffffffffffffffffffff1681526020016002820160009054906101000a900473ffffffffffffffffffffffffffffffffffffffff1673ffffffffffffffffffffffffffffffffffffffff1673ffffffffffffffffffffffffffffffffffffffff16815260200160038201548152602001600482015481526020016005820154815260200160068201548152602001600782015481526020016008820160009054906101000a900460ff1615151515815250509050610d1a82611baf565b610d59576040517f08c379a0000000000000000000000000000000000000000000000000000000008152600401610d5090612340565b60405180910390fd5b60006002600084815260200190815260200160002060008360e00151815260200190815260200160002060405180606001604052908160008201548152602001600182015481526020016002820160009054906101000a900473ffffffffffffffffffffffffffffffffffffffff1673ffffffffffffffffffffffffffffffffffffffff1673ffffffffffffffffffffffffffffffffffffffff168152505090503373ffffffffffffffffffffffffffffffffffffffff16816040015173ffffffffffffffffffffffffffffffffffffffff1614610e6c576040517f08c379a0000000000000000000000000000000000000000000000000000000008152600401610e63906123ac565b60405180910390fd5b6000826040015190508073ffffffffffffffffffffffffffffffffffffffff166342842e0e303386606001516040518463ffffffff1660e01b8152600401610eb6939291906123cc565b600060405180830381600087803b158015610ed057600080fd5b505af1158015610ee4573d6000803e3d6000fd5b5050505050505050565b610ef782611bd2565b610f36576040517f08c379a0000000000000000000000000000000000000000000000000000000008152600401610f2d90612633565b60405180910390fd5b610f3f82611baf565b15610f7f576040517f08c379a0000000000000000000000000000000000000000000000000000000008152600401610f769061269f565b60405180910390fd5b600060016000848152602001908152602001600020604051806101200160405290816000820160009054906101000a900473ffffffffffffffffffffffffffffffffffffffff1673ffffffffffffffffffffffffffffffffffffffff1673ffffffffffffffffffffffffffffffffffffffff1681526020016001820160009054906101000a900473ffffffffffffffffffffffffffffffffffffffff1673ffffffffffffffffffffffffffffffffffffffff1673ffffffffffffffffffffffffffffffffffffffff1681526020016002820160009054906101000a900473ffffffffffffffffffffffffffffffffffffffff1673ffffffffffffffffffffffffffffffffffffffff1673ffffffffffffffffffffffffffffffffffffffff16815260200160038201548152602001600482015481526020016005820154815260200160068201548152602001600782015481526020016008820160009054906101000a900460ff1615151515815250509050600060018260e0015161110491906126bf565b9050808260e0018181525050600061111b85611bf4565b905080841161115f576040517f08c379a00000000000000000000000000000000000000000000000000000000081526004016111569061273f565b60405180910390fd5b826020015173ffffffffffffffffffffffffffffffffffffffff166323b872dd3360026000898152602001908152602001600020600086815260200190815260200160002060020160009054906101000a900473ffffffffffffffffffffffffffffffffffffffff16846040518463ffffffff1660e01b81526004016111e7939291906123cc565b6020604051808303816000875af1158015611206573d6000803e3d6000fd5b505050506040513d601f19601f8201168201806040525081019061122a9190612774565b50826020015173ffffffffffffffffffffffffffffffffffffffff166323b872dd338560000151848861125d91906127a1565b6040518463ffffffff1660e01b815260040161127b939291906123cc565b6020604051808303816000875af115801561129a573d6000803e3d6000fd5b505050506040513d601f19601f820116820180604052508101906112be9190612774565b5060405180606001604052804281526020018581526020013373ffffffffffffffffffffffffffffffffffffffff16815250600260008781526020019081526020016000206000848152602001908152602001600020600082015181600001556020820151816001015560408201518160020160006101000a81548173ffffffffffffffffffffffffffffffffffffffff021916908373ffffffffffffffffffffffffffffffffffffffff1602179055509050505050505050565b803373ffffffffffffffffffffffffffffffffffffffff166001600083815260200190815260200160002060000160009054906101000a900473ffffffffffffffffffffffffffffffffffffffff1673ffffffffffffffffffffffffffffffffffffffff161461141e576040517f08c379a0000000000000000000000000000000000000000000000000000000008152600401611415906122d4565b60405180910390fd5b600060016000848152602001908152602001600020604051806101200160405290816000820160009054906101000a900473ffffffffffffffffffffffffffffffffffffffff1673ffffffffffffffffffffffffffffffffffffffff1673ffffffffffffffffffffffffffffffffffffffff1681526020016001820160009054906101000a900473ffffffffffffffffffffffffffffffffffffffff1673ffffffffffffffffffffffffffffffffffffffff1673ffffffffffffffffffffffffffffffffffffffff1681526020016002820160009054906101000a900473ffffffffffffffffffffffffffffffffffffffff1673ffffffffffffffffffffffffffffffffffffffff1673ffffffffffffffffffffffffffffffffffffffff16815260200160038201548152602001600482015481526020016005820154815260200160068201548152602001600782015481526020016008820160009054906101000a900460ff161515151581525050905060006002600085815260200190815260200160002060008360e00151815260200190815260200160002060405180606001604052908160008201548152602001600182015481526020016002820160009054906101000a900473ffffffffffffffffffffffffffffffffffffffff1673ffffffffffffffffffffffffffffffffffffffff1673ffffffffffffffffffffffffffffffffffffffff16815250509050816020015173ffffffffffffffffffffffffffffffffffffffff166323b872dd33836040015161166088611bf4565b6040518463ffffffff1660e01b815260040161167e939291906123cc565b6020604051808303816000875af115801561169d573d6000803e3d6000fd5b505050506040513d601f19601f820116820180604052508101906116c19190612774565b506000826040015190508073ffffffffffffffffffffffffffffffffffffffff166342842e0e303386606001516040518463ffffffff1660e01b815260040161170c939291906123cc565b600060405180830381600087803b15801561172657600080fd5b505af115801561173a573d6000803e3d6000fd5b505050505050505050565b6002602052816000526040600020602052806000526040600020600091509150508060000154908060010154908060020160009054906101000a900473ffffffffffffffffffffffffffffffffffffffff16905083565b6117a582611bd2565b6117e4576040517f08c379a00000000000000000000000000000000000000000000000000000000081526004016117db90612633565b60405180910390fd5b6117ed82611baf565b1561182d576040517f08c379a00000000000000000000000000000000000000000000000000000000081526004016118249061269f565b60405180910390fd5b600060016000848152602001908152602001600020604051806101200160405290816000820160009054906101000a900473ffffffffffffffffffffffffffffffffffffffff1673ffffffffffffffffffffffffffffffffffffffff1673ffffffffffffffffffffffffffffffffffffffff1681526020016001820160009054906101000a900473ffffffffffffffffffffffffffffffffffffffff1673ffffffffffffffffffffffffffffffffffffffff1673ffffffffffffffffffffffffffffffffffffffff1681526020016002820160009054906101000a900473ffffffffffffffffffffffffffffffffffffffff1673ffffffffffffffffffffffffffffffffffffffff1673ffffffffffffffffffffffffffffffffffffffff16815260200160038201548152602001600482015481526020016005820154815260200160068201548152602001600782015481526020016008820160009054906101000a900460ff161515151581525050905060006002600085815260200190815260200160002060008360e00151815260200190815260200160002090503373ffffffffffffffffffffffffffffffffffffffff168160020160009054906101000a900473ffffffffffffffffffffffffffffffffffffffff1673ffffffffffffffffffffffffffffffffffffffff1614611a5d576040517f08c379a0000000000000000000000000000000000000000000000000000000008152600401611a5490612821565b60405180910390fd5b828160020160006101000a81548173ffffffffffffffffffffffffffffffffffffffff021916908373ffffffffffffffffffffffffffffffffffffffff16021790555050505050565b60036020528160005260406000208181548110611ac257600080fd5b906000526020600020016000915091509054906101000a900473ffffffffffffffffffffffffffffffffffffffff1681565b60016020528060005260406000206000915090508060000160009054906101000a900473ffffffffffffffffffffffffffffffffffffffff16908060010160009054906101000a900473ffffffffffffffffffffffffffffffffffffffff16908060020160009054906101000a900473ffffffffffffffffffffffffffffffffffffffff16908060030154908060040154908060050154908060060154908060070154908060080160009054906101000a900460ff16905089565b600042600160008481526020019081526020016000206005015411159050919050565b6000426001600084815260200190815260200160002060040154109050919050565b60008060016000848152602001908152602001600020604051806101200160405290816000820160009054906101000a900473ffffffffffffffffffffffffffffffffffffffff1673ffffffffffffffffffffffffffffffffffffffff1673ffffffffffffffffffffffffffffffffffffffff1681526020016001820160009054906101000a900473ffffffffffffffffffffffffffffffffffffffff1673ffffffffffffffffffffffffffffffffffffffff1673ffffffffffffffffffffffffffffffffffffffff1681526020016002820160009054906101000a900473ffffffffffffffffffffffffffffffffffffffff1673ffffffffffffffffffffffffffffffffffffffff1673ffffffffffffffffffffffffffffffffffffffff16815260200160038201548152602001600482015481526020016005820154815260200160068201548152602001600782015481526020016008820160009054906101000a900460ff161515151581525050905060006002600085815260200190815260200160002060008360e00151815260200190815260200160002060405180606001604052908160008201548152602001600182015481526020016002820160009054906101000a900473ffffffffffffffffffffffffffffffffffffffff1673ffffffffffffffffffffffffffffffffffffffff1673ffffffffffffffffffffffffffffffffffffffff168152505090506000611e1385611baf565b15611e33578260a001518260000151611e2c91906127a1565b9050611e46565b428260000151611e4391906127a1565b90505b6301e1338081670de0b6b3a76400008560c001518560200151611e699190612841565b611e7391906128ca565b611e7d9190612841565b611e8791906128ca565b8260200151611e9691906126bf565b9350505050919050565b604051806101200160405280600073ffffffffffffffffffffffffffffffffffffffff168152602001600073ffffffffffffffffffffffffffffffffffffffff168152602001600073ffffffffffffffffffffffffffffffffffffffff16815260200160008152602001600081526020016000815260200160008152602001600081526020016000151581525090565b6000819050919050565b611f4381611f30565b82525050565b6000602082019050611f5e6000830184611f3a565b92915050565b600080fd5b611f7281611f30565b8114611f7d57600080fd5b50565b600081359050611f8f81611f69565b92915050565b600060208284031215611fab57611faa611f64565b5b6000611fb984828501611f80565b91505092915050565b600073ffffffffffffffffffffffffffffffffffffffff82169050919050565b6000611fed82611fc2565b9050919050565b611ffd81611fe2565b811461200857600080fd5b50565b60008135905061201a81611ff4565b92915050565b60008115159050919050565b61203581612020565b811461204057600080fd5b50565b6000813590506120528161202c565b92915050565b600080600080600080600060e0888a03121561207757612076611f64565b5b60006120858a828b0161200b565b97505060206120968a828b0161200b565b96505060406120a78a828b01611f80565b95505060606120b88a828b01611f80565b94505060806120c98a828b01611f80565b93505060a06120da8a828b01611f80565b92505060c06120eb8a828b01612043565b91505092959891949750929550565b6000806040838503121561211157612110611f64565b5b600061211f85828601611f80565b925050602061213085828601611f80565b9150509250929050565b61214381611fe2565b82525050565b600060608201905061215e6000830186611f3a565b61216b6020830185611f3a565b612178604083018461213a565b949350505050565b6000806040838503121561219757612196611f64565b5b60006121a585828601611f80565b92505060206121b68582860161200b565b9150509250929050565b60006020820190506121d5600083018461213a565b92915050565b6121e481612020565b82525050565b600061012082019050612200600083018c61213a565b61220d602083018b61213a565b61221a604083018a61213a565b6122276060830189611f3a565b6122346080830188611f3a565b61224160a0830187611f3a565b61224e60c0830186611f3a565b61225b60e0830185611f3a565b6122696101008301846121db565b9a9950505050505050505050565b600082825260208201905092915050565b7f4c414e3a206e6f74206f776e6572000000000000000000000000000000000000600082015250565b60006122be600e83612277565b91506122c982612288565b602082019050919050565b600060208201905081810360008301526122ed816122b1565b9050919050565b7f4c414e3a206c6f616e206e6f7420656e64656400000000000000000000000000600082015250565b600061232a601383612277565b9150612335826122f4565b602082019050919050565b600060208201905081810360008301526123598161231d565b9050919050565b7f4c414e3a206e6f74206c61746573742062696464657200000000000000000000600082015250565b6000612396601683612277565b91506123a182612360565b602082019050919050565b600060208201905081810360008301526123c581612389565b9050919050565b60006060820190506123e1600083018661213a565b6123ee602083018561213a565b6123fb6040830184611f3a565b949350505050565b7f4c414e3a2073746172742074696d6520696e2070617374000000000000000000600082015250565b6000612439601783612277565b915061244482612403565b602082019050919050565b600060208201905081810360008301526124688161242c565b9050919050565b7f4c414e3a20737461727420616674657220656e64000000000000000000000000600082015250565b60006124a5601483612277565b91506124b08261246f565b602082019050919050565b600060208201905081810360008301526124d481612498565b9050919050565b60006040820190506124f0600083018561213a565b6124fd6020830184611f3a565b9392505050565b7f4e487b7100000000000000000000000000000000000000000000000000000000600052601160045260246000fd5b600061253e82611f30565b91507fffffffffffffffffffffffffffffffffffffffffffffffffffffffffffffffff82036125705761256f612504565b5b600182019050919050565b7f4c414e3a20616c72656164792073746172746564000000000000000000000000600082015250565b60006125b1601483612277565b91506125bc8261257b565b602082019050919050565b600060208201905081810360008301526125e0816125a4565b9050919050565b7f4c414e3a206e6f74207374617274656400000000000000000000000000000000600082015250565b600061261d601083612277565b9150612628826125e7565b602082019050919050565b6000602082019050818103600083015261264c81612610565b9050919050565b7f4c414e3a20616c726561647920656e6465640000000000000000000000000000600082015250565b6000612689601283612277565b915061269482612653565b602082019050919050565b600060208201905081810360008301526126b88161267c565b9050919050565b60006126ca82611f30565b91506126d583611f30565b92508282019050808211156126ed576126ec612504565b5b92915050565b7f4c414e3a20626964206e6f742068696768657200000000000000000000000000600082015250565b6000612729601383612277565b9150612734826126f3565b602082019050919050565b600060208201905081810360008301526127588161271c565b9050919050565b60008151905061276e8161202c565b92915050565b60006020828403121561278a57612789611f64565b5b60006127988482850161275f565b91505092915050565b60006127ac82611f30565b91506127b783611f30565b92508282039050818111156127cf576127ce612504565b5b92915050565b7f4c414e3a204e6f7420746865206c617465737420626964646572000000000000600082015250565b600061280b601a83612277565b9150612816826127d5565b602082019050919050565b6000602082019050818103600083015261283a816127fe565b9050919050565b600061284c82611f30565b915061285783611f30565b9250817fffffffffffffffffffffffffffffffffffffffffffffffffffffffffffffffff04831182151516156128905761288f612504565b5b828202905092915050565b7f4e487b7100000000000000000000000000000000000000000000000000000000600052601260045260246000fd5b60006128d582611f30565b91506128e083611f30565b9250826128f0576128ef61289b565b5b82820490509291505056fea2646970667358221220d85043aa60ba0640257f9edb68ccfad11564a39653311c11231b9059112c055a64736f6c63430008100033",
					"opcodes": "PUSH1 0x80 PUSH1 0x40 MSTORE CALLVALUE DUP1 ISZERO PUSH2 0x10 JUMPI PUSH1 0x0 DUP1 REVERT JUMPDEST POP PUSH2 0x2931 DUP1 PUSH2 0x20 PUSH1 0x0 CODECOPY PUSH1 0x0 RETURN INVALID PUSH1 0x80 PUSH1 0x40 MSTORE CALLVALUE DUP1 ISZERO PUSH2 0x10 JUMPI PUSH1 0x0 DUP1 REVERT JUMPDEST POP PUSH1 0x4 CALLDATASIZE LT PUSH2 0xA9 JUMPI PUSH1 0x0 CALLDATALOAD PUSH1 0xE0 SHR DUP1 PUSH4 0x598647F8 GT PUSH2 0x71 JUMPI DUP1 PUSH4 0x598647F8 EQ PUSH2 0x13C JUMPI DUP1 PUSH4 0x7870860B EQ PUSH2 0x158 JUMPI DUP1 PUSH4 0x7B3C4BAA EQ PUSH2 0x174 JUMPI DUP1 PUSH4 0x8F769F3A EQ PUSH2 0x1A6 JUMPI DUP1 PUSH4 0x9BEA77DA EQ PUSH2 0x1C2 JUMPI DUP1 PUSH4 0xE1EC3C68 EQ PUSH2 0x1F2 JUMPI PUSH2 0xA9 JUMP JUMPDEST DUP1 PUSH4 0x6661ABD EQ PUSH2 0xAE JUMPI DUP1 PUSH4 0x18DE4F9D EQ PUSH2 0xCC JUMPI DUP1 PUSH4 0x2613C5D6 EQ PUSH2 0xE8 JUMPI DUP1 PUSH4 0x40E58EE5 EQ PUSH2 0x104 JUMPI DUP1 PUSH4 0x415F1240 EQ PUSH2 0x120 JUMPI JUMPDEST PUSH1 0x0 DUP1 REVERT JUMPDEST PUSH2 0xB6 PUSH2 0x22A JUMP JUMPDEST PUSH1 0x40 MLOAD PUSH2 0xC3 SWAP2 SWAP1 PUSH2 0x1F49 JUMP JUMPDEST PUSH1 0x40 MLOAD DUP1 SWAP2 SUB SWAP1 RETURN JUMPDEST PUSH2 0xE6 PUSH1 0x4 DUP1 CALLDATASIZE SUB DUP2 ADD SWAP1 PUSH2 0xE1 SWAP2 SWAP1 PUSH2 0x1F95 JUMP JUMPDEST PUSH2 0x230 JUMP JUMPDEST STOP JUMPDEST PUSH2 0x102 PUSH1 0x4 DUP1 CALLDATASIZE SUB DUP2 ADD SWAP1 PUSH2 0xFD SWAP2 SWAP1 PUSH2 0x2058 JUMP JUMPDEST PUSH2 0x629 JUMP JUMPDEST STOP JUMPDEST PUSH2 0x11E PUSH1 0x4 DUP1 CALLDATASIZE SUB DUP2 ADD SWAP1 PUSH2 0x119 SWAP2 SWAP1 PUSH2 0x1F95 JUMP JUMPDEST PUSH2 0x8FC JUMP JUMPDEST STOP JUMPDEST PUSH2 0x13A PUSH1 0x4 DUP1 CALLDATASIZE SUB DUP2 ADD SWAP1 PUSH2 0x135 SWAP2 SWAP1 PUSH2 0x1F95 JUMP JUMPDEST PUSH2 0xB9F JUMP JUMPDEST STOP JUMPDEST PUSH2 0x156 PUSH1 0x4 DUP1 CALLDATASIZE SUB DUP2 ADD SWAP1 PUSH2 0x151 SWAP2 SWAP1 PUSH2 0x20FA JUMP JUMPDEST PUSH2 0xEEE JUMP JUMPDEST STOP JUMPDEST PUSH2 0x172 PUSH1 0x4 DUP1 CALLDATASIZE SUB DUP2 ADD SWAP1 PUSH2 0x16D SWAP2 SWAP1 PUSH2 0x1F95 JUMP JUMPDEST PUSH2 0x1379 JUMP JUMPDEST STOP JUMPDEST PUSH2 0x18E PUSH1 0x4 DUP1 CALLDATASIZE SUB DUP2 ADD SWAP1 PUSH2 0x189 SWAP2 SWAP1 PUSH2 0x20FA JUMP JUMPDEST PUSH2 0x1745 JUMP JUMPDEST PUSH1 0x40 MLOAD PUSH2 0x19D SWAP4 SWAP3 SWAP2 SWAP1 PUSH2 0x2149 JUMP JUMPDEST PUSH1 0x40 MLOAD DUP1 SWAP2 SUB SWAP1 RETURN JUMPDEST PUSH2 0x1C0 PUSH1 0x4 DUP1 CALLDATASIZE SUB DUP2 ADD SWAP1 PUSH2 0x1BB SWAP2 SWAP1 PUSH2 0x2180 JUMP JUMPDEST PUSH2 0x179C JUMP JUMPDEST STOP JUMPDEST PUSH2 0x1DC PUSH1 0x4 DUP1 CALLDATASIZE SUB DUP2 ADD SWAP1 PUSH2 0x1D7 SWAP2 SWAP1 PUSH2 0x20FA JUMP JUMPDEST PUSH2 0x1AA6 JUMP JUMPDEST PUSH1 0x40 MLOAD PUSH2 0x1E9 SWAP2 SWAP1 PUSH2 0x21C0 JUMP JUMPDEST PUSH1 0x40 MLOAD DUP1 SWAP2 SUB SWAP1 RETURN JUMPDEST PUSH2 0x20C PUSH1 0x4 DUP1 CALLDATASIZE SUB DUP2 ADD SWAP1 PUSH2 0x207 SWAP2 SWAP1 PUSH2 0x1F95 JUMP JUMPDEST PUSH2 0x1AF4 JUMP JUMPDEST PUSH1 0x40 MLOAD PUSH2 0x221 SWAP10 SWAP9 SWAP8 SWAP7 SWAP6 SWAP5 SWAP4 SWAP3 SWAP2 SWAP1 PUSH2 0x21EA JUMP JUMPDEST PUSH1 0x40 MLOAD DUP1 SWAP2 SUB SWAP1 RETURN JUMPDEST PUSH1 0x0 SLOAD DUP2 JUMP JUMPDEST DUP1 CALLER PUSH20 0xFFFFFFFFFFFFFFFFFFFFFFFFFFFFFFFFFFFFFFFF AND PUSH1 0x1 PUSH1 0x0 DUP4 DUP2 MSTORE PUSH1 0x20 ADD SWAP1 DUP2 MSTORE PUSH1 0x20 ADD PUSH1 0x0 KECCAK256 PUSH1 0x0 ADD PUSH1 0x0 SWAP1 SLOAD SWAP1 PUSH2 0x100 EXP SWAP1 DIV PUSH20 0xFFFFFFFFFFFFFFFFFFFFFFFFFFFFFFFFFFFFFFFF AND PUSH20 0xFFFFFFFFFFFFFFFFFFFFFFFFFFFFFFFFFFFFFFFF AND EQ PUSH2 0x2D5 JUMPI PUSH1 0x40 MLOAD PUSH32 0x8C379A000000000000000000000000000000000000000000000000000000000 DUP2 MSTORE PUSH1 0x4 ADD PUSH2 0x2CC SWAP1 PUSH2 0x22D4 JUMP JUMPDEST PUSH1 0x40 MLOAD DUP1 SWAP2 SUB SWAP1 REVERT JUMPDEST PUSH1 0x0 PUSH1 0x1 PUSH1 0x0 DUP5 DUP2 MSTORE PUSH1 0x20 ADD SWAP1 DUP2 MSTORE PUSH1 0x20 ADD PUSH1 0x0 KECCAK256 PUSH1 0x40 MLOAD DUP1 PUSH2 0x120 ADD PUSH1 0x40 MSTORE SWAP1 DUP2 PUSH1 0x0 DUP3 ADD PUSH1 0x0 SWAP1 SLOAD SWAP1 PUSH2 0x100 EXP SWAP1 DIV PUSH20 0xFFFFFFFFFFFFFFFFFFFFFFFFFFFFFFFFFFFFFFFF AND PUSH20 0xFFFFFFFFFFFFFFFFFFFFFFFFFFFFFFFFFFFFFFFF AND PUSH20 0xFFFFFFFFFFFFFFFFFFFFFFFFFFFFFFFFFFFFFFFF AND DUP2 MSTORE PUSH1 0x20 ADD PUSH1 0x1 DUP3 ADD PUSH1 0x0 SWAP1 SLOAD SWAP1 PUSH2 0x100 EXP SWAP1 DIV PUSH20 0xFFFFFFFFFFFFFFFFFFFFFFFFFFFFFFFFFFFFFFFF AND PUSH20 0xFFFFFFFFFFFFFFFFFFFFFFFFFFFFFFFFFFFFFFFF AND PUSH20 0xFFFFFFFFFFFFFFFFFFFFFFFFFFFFFFFFFFFFFFFF AND DUP2 MSTORE PUSH1 0x20 ADD PUSH1 0x2 DUP3 ADD PUSH1 0x0 SWAP1 SLOAD SWAP1 PUSH2 0x100 EXP SWAP1 DIV PUSH20 0xFFFFFFFFFFFFFFFFFFFFFFFFFFFFFFFFFFFFFFFF AND PUSH20 0xFFFFFFFFFFFFFFFFFFFFFFFFFFFFFFFFFFFFFFFF AND PUSH20 0xFFFFFFFFFFFFFFFFFFFFFFFFFFFFFFFFFFFFFFFF AND DUP2 MSTORE PUSH1 0x20 ADD PUSH1 0x3 DUP3 ADD SLOAD DUP2 MSTORE PUSH1 0x20 ADD PUSH1 0x4 DUP3 ADD SLOAD DUP2 MSTORE PUSH1 0x20 ADD PUSH1 0x5 DUP3 ADD SLOAD DUP2 MSTORE PUSH1 0x20 ADD PUSH1 0x6 DUP3 ADD SLOAD DUP2 MSTORE PUSH1 0x20 ADD PUSH1 0x7 DUP3 ADD SLOAD DUP2 MSTORE PUSH1 0x20 ADD PUSH1 0x8 DUP3 ADD PUSH1 0x0 SWAP1 SLOAD SWAP1 PUSH2 0x100 EXP SWAP1 DIV PUSH1 0xFF AND ISZERO ISZERO ISZERO ISZERO DUP2 MSTORE POP POP SWAP1 POP PUSH2 0x450 DUP4 PUSH2 0x1BAF JUMP JUMPDEST PUSH2 0x48F JUMPI PUSH1 0x40 MLOAD PUSH32 0x8C379A000000000000000000000000000000000000000000000000000000000 DUP2 MSTORE PUSH1 0x4 ADD PUSH2 0x486 SWAP1 PUSH2 0x2340 JUMP JUMPDEST PUSH1 0x40 MLOAD DUP1 SWAP2 SUB SWAP1 REVERT JUMPDEST PUSH1 0x0 PUSH1 0x2 PUSH1 0x0 DUP6 DUP2 MSTORE PUSH1 0x20 ADD SWAP1 DUP2 MSTORE PUSH1 0x20 ADD PUSH1 0x0 KECCAK256 PUSH1 0x0 DUP4 PUSH1 0xE0 ADD MLOAD DUP2 MSTORE PUSH1 0x20 ADD SWAP1 DUP2 MSTORE PUSH1 0x20 ADD PUSH1 0x0 KECCAK256 PUSH1 0x40 MLOAD DUP1 PUSH1 0x60 ADD PUSH1 0x40 MSTORE SWAP1 DUP2 PUSH1 0x0 DUP3 ADD SLOAD DUP2 MSTORE PUSH1 0x20 ADD PUSH1 0x1 DUP3 ADD SLOAD DUP2 MSTORE PUSH1 0x20 ADD PUSH1 0x2 DUP3 ADD PUSH1 0x0 SWAP1 SLOAD SWAP1 PUSH2 0x100 EXP SWAP1 DIV PUSH20 0xFFFFFFFFFFFFFFFFFFFFFFFFFFFFFFFFFFFFFFFF AND PUSH20 0xFFFFFFFFFFFFFFFFFFFFFFFFFFFFFFFFFFFFFFFF AND PUSH20 0xFFFFFFFFFFFFFFFFFFFFFFFFFFFFFFFFFFFFFFFF AND DUP2 MSTORE POP POP SWAP1 POP CALLER PUSH20 0xFFFFFFFFFFFFFFFFFFFFFFFFFFFFFFFFFFFFFFFF AND DUP2 PUSH1 0x40 ADD MLOAD PUSH20 0xFFFFFFFFFFFFFFFFFFFFFFFFFFFFFFFFFFFFFFFF AND EQ PUSH2 0x5A2 JUMPI PUSH1 0x40 MLOAD PUSH32 0x8C379A000000000000000000000000000000000000000000000000000000000 DUP2 MSTORE PUSH1 0x4 ADD PUSH2 0x599 SWAP1 PUSH2 0x23AC JUMP JUMPDEST PUSH1 0x40 MLOAD DUP1 SWAP2 SUB SWAP1 REVERT JUMPDEST PUSH1 0x0 DUP3 PUSH1 0x40 ADD MLOAD SWAP1 POP DUP1 PUSH20 0xFFFFFFFFFFFFFFFFFFFFFFFFFFFFFFFFFFFFFFFF AND PUSH4 0x42842E0E ADDRESS DUP5 PUSH1 0x40 ADD MLOAD DUP7 PUSH1 0x60 ADD MLOAD PUSH1 0x40 MLOAD DUP5 PUSH4 0xFFFFFFFF AND PUSH1 0xE0 SHL DUP2 MSTORE PUSH1 0x4 ADD PUSH2 0x5F0 SWAP4 SWAP3 SWAP2 SWAP1 PUSH2 0x23CC JUMP JUMPDEST PUSH1 0x0 PUSH1 0x40 MLOAD DUP1 DUP4 SUB DUP2 PUSH1 0x0 DUP8 DUP1 EXTCODESIZE ISZERO DUP1 ISZERO PUSH2 0x60A JUMPI PUSH1 0x0 DUP1 REVERT JUMPDEST POP GAS CALL ISZERO DUP1 ISZERO PUSH2 0x61E JUMPI RETURNDATASIZE PUSH1 0x0 DUP1 RETURNDATACOPY RETURNDATASIZE PUSH1 0x0 REVERT JUMPDEST POP POP POP POP POP POP POP POP POP JUMP JUMPDEST TIMESTAMP DUP5 LT ISZERO PUSH2 0x66C JUMPI PUSH1 0x40 MLOAD PUSH32 0x8C379A000000000000000000000000000000000000000000000000000000000 DUP2 MSTORE PUSH1 0x4 ADD PUSH2 0x663 SWAP1 PUSH2 0x244F JUMP JUMPDEST PUSH1 0x40 MLOAD DUP1 SWAP2 SUB SWAP1 REVERT JUMPDEST DUP4 DUP4 GT PUSH2 0x6AE JUMPI PUSH1 0x40 MLOAD PUSH32 0x8C379A000000000000000000000000000000000000000000000000000000000 DUP2 MSTORE PUSH1 0x4 ADD PUSH2 0x6A5 SWAP1 PUSH2 0x24BB JUMP JUMPDEST PUSH1 0x40 MLOAD DUP1 SWAP2 SUB SWAP1 REVERT JUMPDEST PUSH1 0x40 MLOAD DUP1 PUSH2 0x120 ADD PUSH1 0x40 MSTORE DUP1 CALLER PUSH20 0xFFFFFFFFFFFFFFFFFFFFFFFFFFFFFFFFFFFFFFFF AND DUP2 MSTORE PUSH1 0x20 ADD DUP9 PUSH20 0xFFFFFFFFFFFFFFFFFFFFFFFFFFFFFFFFFFFFFFFF AND DUP2 MSTORE PUSH1 0x20 ADD DUP8 PUSH20 0xFFFFFFFFFFFFFFFFFFFFFFFFFFFFFFFFFFFFFFFF AND DUP2 MSTORE PUSH1 0x20 ADD DUP7 DUP2 MSTORE PUSH1 0x20 ADD DUP6 DUP2 MSTORE PUSH1 0x20 ADD DUP5 DUP2 MSTORE PUSH1 0x20 ADD DUP4 DUP2 MSTORE PUSH1 0x20 ADD PUSH1 0x0 DUP2 MSTORE PUSH1 0x20 ADD PUSH1 0x0 ISZERO ISZERO DUP2 MSTORE POP PUSH1 0x1 PUSH1 0x0 DUP1 SLOAD DUP2 MSTORE PUSH1 0x20 ADD SWAP1 DUP2 MSTORE PUSH1 0x20 ADD PUSH1 0x0 KECCAK256 PUSH1 0x0 DUP3 ADD MLOAD DUP2 PUSH1 0x0 ADD PUSH1 0x0 PUSH2 0x100 EXP DUP2 SLOAD DUP2 PUSH20 0xFFFFFFFFFFFFFFFFFFFFFFFFFFFFFFFFFFFFFFFF MUL NOT AND SWAP1 DUP4 PUSH20 0xFFFFFFFFFFFFFFFFFFFFFFFFFFFFFFFFFFFFFFFF AND MUL OR SWAP1 SSTORE POP PUSH1 0x20 DUP3 ADD MLOAD DUP2 PUSH1 0x1 ADD PUSH1 0x0 PUSH2 0x100 EXP DUP2 SLOAD DUP2 PUSH20 0xFFFFFFFFFFFFFFFFFFFFFFFFFFFFFFFFFFFFFFFF MUL NOT AND SWAP1 DUP4 PUSH20 0xFFFFFFFFFFFFFFFFFFFFFFFFFFFFFFFFFFFFFFFF AND MUL OR SWAP1 SSTORE POP PUSH1 0x40 DUP3 ADD MLOAD DUP2 PUSH1 0x2 ADD PUSH1 0x0 PUSH2 0x100 EXP DUP2 SLOAD DUP2 PUSH20 0xFFFFFFFFFFFFFFFFFFFFFFFFFFFFFFFFFFFFFFFF MUL NOT AND SWAP1 DUP4 PUSH20 0xFFFFFFFFFFFFFFFFFFFFFFFFFFFFFFFFFFFFFFFF AND MUL OR SWAP1 SSTORE POP PUSH1 0x60 DUP3 ADD MLOAD DUP2 PUSH1 0x3 ADD SSTORE PUSH1 0x80 DUP3 ADD MLOAD DUP2 PUSH1 0x4 ADD SSTORE PUSH1 0xA0 DUP3 ADD MLOAD DUP2 PUSH1 0x5 ADD SSTORE PUSH1 0xC0 DUP3 ADD MLOAD DUP2 PUSH1 0x6 ADD SSTORE PUSH1 0xE0 DUP3 ADD MLOAD DUP2 PUSH1 0x7 ADD SSTORE PUSH2 0x100 DUP3 ADD MLOAD DUP2 PUSH1 0x8 ADD PUSH1 0x0 PUSH2 0x100 EXP DUP2 SLOAD DUP2 PUSH1 0xFF MUL NOT AND SWAP1 DUP4 ISZERO ISZERO MUL OR SWAP1 SSTORE POP SWAP1 POP POP TIMESTAMP PUSH1 0x2 PUSH1 0x0 DUP1 SLOAD DUP2 MSTORE PUSH1 0x20 ADD SWAP1 DUP2 MSTORE PUSH1 0x20 ADD PUSH1 0x0 KECCAK256 PUSH1 0x0 DUP1 DUP2 MSTORE PUSH1 0x20 ADD SWAP1 DUP2 MSTORE PUSH1 0x20 ADD PUSH1 0x0 KECCAK256 PUSH1 0x0 ADD DUP2 SWAP1 SSTORE POP PUSH1 0x0 SLOAD PUSH32 0xEF8B2952C43462575E82711D0CC91169720A4589A9FA533D173E022437F5405E DUP8 DUP8 PUSH1 0x40 MLOAD PUSH2 0x8D4 SWAP3 SWAP2 SWAP1 PUSH2 0x24DB JUMP JUMPDEST PUSH1 0x40 MLOAD DUP1 SWAP2 SUB SWAP1 LOG2 PUSH1 0x0 DUP1 DUP2 SLOAD DUP1 SWAP3 SWAP2 SWAP1 PUSH2 0x8EE SWAP1 PUSH2 0x2533 JUMP JUMPDEST SWAP2 SWAP1 POP SSTORE POP POP POP POP POP POP POP POP JUMP JUMPDEST DUP1 CALLER PUSH20 0xFFFFFFFFFFFFFFFFFFFFFFFFFFFFFFFFFFFFFFFF AND PUSH1 0x1 PUSH1 0x0 DUP4 DUP2 MSTORE PUSH1 0x20 ADD SWAP1 DUP2 MSTORE PUSH1 0x20 ADD PUSH1 0x0 KECCAK256 PUSH1 0x0 ADD PUSH1 0x0 SWAP1 SLOAD SWAP1 PUSH2 0x100 EXP SWAP1 DIV PUSH20 0xFFFFFFFFFFFFFFFFFFFFFFFFFFFFFFFFFFFFFFFF AND PUSH20 0xFFFFFFFFFFFFFFFFFFFFFFFFFFFFFFFFFFFFFFFF AND EQ PUSH2 0x9A1 JUMPI PUSH1 0x40 MLOAD PUSH32 0x8C379A000000000000000000000000000000000000000000000000000000000 DUP2 MSTORE PUSH1 0x4 ADD PUSH2 0x998 SWAP1 PUSH2 0x22D4 JUMP JUMPDEST PUSH1 0x40 MLOAD DUP1 SWAP2 SUB SWAP1 REVERT JUMPDEST PUSH1 0x0 PUSH1 0x1 PUSH1 0x0 DUP5 DUP2 MSTORE PUSH1 0x20 ADD SWAP1 DUP2 MSTORE PUSH1 0x20 ADD PUSH1 0x0 KECCAK256 PUSH1 0x40 MLOAD DUP1 PUSH2 0x120 ADD PUSH1 0x40 MSTORE SWAP1 DUP2 PUSH1 0x0 DUP3 ADD PUSH1 0x0 SWAP1 SLOAD SWAP1 PUSH2 0x100 EXP SWAP1 DIV PUSH20 0xFFFFFFFFFFFFFFFFFFFFFFFFFFFFFFFFFFFFFFFF AND PUSH20 0xFFFFFFFFFFFFFFFFFFFFFFFFFFFFFFFFFFFFFFFF AND PUSH20 0xFFFFFFFFFFFFFFFFFFFFFFFFFFFFFFFFFFFFFFFF AND DUP2 MSTORE PUSH1 0x20 ADD PUSH1 0x1 DUP3 ADD PUSH1 0x0 SWAP1 SLOAD SWAP1 PUSH2 0x100 EXP SWAP1 DIV PUSH20 0xFFFFFFFFFFFFFFFFFFFFFFFFFFFFFFFFFFFFFFFF AND PUSH20 0xFFFFFFFFFFFFFFFFFFFFFFFFFFFFFFFFFFFFFFFF AND PUSH20 0xFFFFFFFFFFFFFFFFFFFFFFFFFFFFFFFFFFFFFFFF AND DUP2 MSTORE PUSH1 0x20 ADD PUSH1 0x2 DUP3 ADD PUSH1 0x0 SWAP1 SLOAD SWAP1 PUSH2 0x100 EXP SWAP1 DIV PUSH20 0xFFFFFFFFFFFFFFFFFFFFFFFFFFFFFFFFFFFFFFFF AND PUSH20 0xFFFFFFFFFFFFFFFFFFFFFFFFFFFFFFFFFFFFFFFF AND PUSH20 0xFFFFFFFFFFFFFFFFFFFFFFFFFFFFFFFFFFFFFFFF AND DUP2 MSTORE PUSH1 0x20 ADD PUSH1 0x3 DUP3 ADD SLOAD DUP2 MSTORE PUSH1 0x20 ADD PUSH1 0x4 DUP3 ADD SLOAD DUP2 MSTORE PUSH1 0x20 ADD PUSH1 0x5 DUP3 ADD SLOAD DUP2 MSTORE PUSH1 0x20 ADD PUSH1 0x6 DUP3 ADD SLOAD DUP2 MSTORE PUSH1 0x20 ADD PUSH1 0x7 DUP3 ADD SLOAD DUP2 MSTORE PUSH1 0x20 ADD PUSH1 0x8 DUP3 ADD PUSH1 0x0 SWAP1 SLOAD SWAP1 PUSH2 0x100 EXP SWAP1 DIV PUSH1 0xFF AND ISZERO ISZERO ISZERO ISZERO DUP2 MSTORE POP POP SWAP1 POP TIMESTAMP DUP2 PUSH1 0x80 ADD MLOAD GT PUSH2 0xB59 JUMPI PUSH1 0x40 MLOAD PUSH32 0x8C379A000000000000000000000000000000000000000000000000000000000 DUP2 MSTORE PUSH1 0x4 ADD PUSH2 0xB50 SWAP1 PUSH2 0x25C7 JUMP JUMPDEST PUSH1 0x40 MLOAD DUP1 SWAP2 SUB SWAP1 REVERT JUMPDEST PUSH2 0xB61 PUSH2 0x1EA0 JUMP JUMPDEST SWAP1 POP PUSH32 0xFE785EF891129B084B1C5A30E4D88EB97C97822C024CC25D5F9D806B897512E0 DUP4 PUSH1 0x40 MLOAD PUSH2 0xB92 SWAP2 SWAP1 PUSH2 0x1F49 JUMP JUMPDEST PUSH1 0x40 MLOAD DUP1 SWAP2 SUB SWAP1 LOG1 POP POP POP JUMP JUMPDEST PUSH1 0x0 PUSH1 0x1 PUSH1 0x0 DUP4 DUP2 MSTORE PUSH1 0x20 ADD SWAP1 DUP2 MSTORE PUSH1 0x20 ADD PUSH1 0x0 KECCAK256 PUSH1 0x40 MLOAD DUP1 PUSH2 0x120 ADD PUSH1 0x40 MSTORE SWAP1 DUP2 PUSH1 0x0 DUP3 ADD PUSH1 0x0 SWAP1 SLOAD SWAP1 PUSH2 0x100 EXP SWAP1 DIV PUSH20 0xFFFFFFFFFFFFFFFFFFFFFFFFFFFFFFFFFFFFFFFF AND PUSH20 0xFFFFFFFFFFFFFFFFFFFFFFFFFFFFFFFFFFFFFFFF AND PUSH20 0xFFFFFFFFFFFFFFFFFFFFFFFFFFFFFFFFFFFFFFFF AND DUP2 MSTORE PUSH1 0x20 ADD PUSH1 0x1 DUP3 ADD PUSH1 0x0 SWAP1 SLOAD SWAP1 PUSH2 0x100 EXP SWAP1 DIV PUSH20 0xFFFFFFFFFFFFFFFFFFFFFFFFFFFFFFFFFFFFFFFF AND PUSH20 0xFFFFFFFFFFFFFFFFFFFFFFFFFFFFFFFFFFFFFFFF AND PUSH20 0xFFFFFFFFFFFFFFFFFFFFFFFFFFFFFFFFFFFFFFFF AND DUP2 MSTORE PUSH1 0x20 ADD PUSH1 0x2 DUP3 ADD PUSH1 0x0 SWAP1 SLOAD SWAP1 PUSH2 0x100 EXP SWAP1 DIV PUSH20 0xFFFFFFFFFFFFFFFFFFFFFFFFFFFFFFFFFFFFFFFF AND PUSH20 0xFFFFFFFFFFFFFFFFFFFFFFFFFFFFFFFFFFFFFFFF AND PUSH20 0xFFFFFFFFFFFFFFFFFFFFFFFFFFFFFFFFFFFFFFFF AND DUP2 MSTORE PUSH1 0x20 ADD PUSH1 0x3 DUP3 ADD SLOAD DUP2 MSTORE PUSH1 0x20 ADD PUSH1 0x4 DUP3 ADD SLOAD DUP2 MSTORE PUSH1 0x20 ADD PUSH1 0x5 DUP3 ADD SLOAD DUP2 MSTORE PUSH1 0x20 ADD PUSH1 0x6 DUP3 ADD SLOAD DUP2 MSTORE PUSH1 0x20 ADD PUSH1 0x7 DUP3 ADD SLOAD DUP2 MSTORE PUSH1 0x20 ADD PUSH1 0x8 DUP3 ADD PUSH1 0x0 SWAP1 SLOAD SWAP1 PUSH2 0x100 EXP SWAP1 DIV PUSH1 0xFF AND ISZERO ISZERO ISZERO ISZERO DUP2 MSTORE POP POP SWAP1 POP PUSH2 0xD1A DUP3 PUSH2 0x1BAF JUMP JUMPDEST PUSH2 0xD59 JUMPI PUSH1 0x40 MLOAD PUSH32 0x8C379A000000000000000000000000000000000000000000000000000000000 DUP2 MSTORE PUSH1 0x4 ADD PUSH2 0xD50 SWAP1 PUSH2 0x2340 JUMP JUMPDEST PUSH1 0x40 MLOAD DUP1 SWAP2 SUB SWAP1 REVERT JUMPDEST PUSH1 0x0 PUSH1 0x2 PUSH1 0x0 DUP5 DUP2 MSTORE PUSH1 0x20 ADD SWAP1 DUP2 MSTORE PUSH1 0x20 ADD PUSH1 0x0 KECCAK256 PUSH1 0x0 DUP4 PUSH1 0xE0 ADD MLOAD DUP2 MSTORE PUSH1 0x20 ADD SWAP1 DUP2 MSTORE PUSH1 0x20 ADD PUSH1 0x0 KECCAK256 PUSH1 0x40 MLOAD DUP1 PUSH1 0x60 ADD PUSH1 0x40 MSTORE SWAP1 DUP2 PUSH1 0x0 DUP3 ADD SLOAD DUP2 MSTORE PUSH1 0x20 ADD PUSH1 0x1 DUP3 ADD SLOAD DUP2 MSTORE PUSH1 0x20 ADD PUSH1 0x2 DUP3 ADD PUSH1 0x0 SWAP1 SLOAD SWAP1 PUSH2 0x100 EXP SWAP1 DIV PUSH20 0xFFFFFFFFFFFFFFFFFFFFFFFFFFFFFFFFFFFFFFFF AND PUSH20 0xFFFFFFFFFFFFFFFFFFFFFFFFFFFFFFFFFFFFFFFF AND PUSH20 0xFFFFFFFFFFFFFFFFFFFFFFFFFFFFFFFFFFFFFFFF AND DUP2 MSTORE POP POP SWAP1 POP CALLER PUSH20 0xFFFFFFFFFFFFFFFFFFFFFFFFFFFFFFFFFFFFFFFF AND DUP2 PUSH1 0x40 ADD MLOAD PUSH20 0xFFFFFFFFFFFFFFFFFFFFFFFFFFFFFFFFFFFFFFFF AND EQ PUSH2 0xE6C JUMPI PUSH1 0x40 MLOAD PUSH32 0x8C379A000000000000000000000000000000000000000000000000000000000 DUP2 MSTORE PUSH1 0x4 ADD PUSH2 0xE63 SWAP1 PUSH2 0x23AC JUMP JUMPDEST PUSH1 0x40 MLOAD DUP1 SWAP2 SUB SWAP1 REVERT JUMPDEST PUSH1 0x0 DUP3 PUSH1 0x40 ADD MLOAD SWAP1 POP DUP1 PUSH20 0xFFFFFFFFFFFFFFFFFFFFFFFFFFFFFFFFFFFFFFFF AND PUSH4 0x42842E0E ADDRESS CALLER DUP7 PUSH1 0x60 ADD MLOAD PUSH1 0x40 MLOAD DUP5 PUSH4 0xFFFFFFFF AND PUSH1 0xE0 SHL DUP2 MSTORE PUSH1 0x4 ADD PUSH2 0xEB6 SWAP4 SWAP3 SWAP2 SWAP1 PUSH2 0x23CC JUMP JUMPDEST PUSH1 0x0 PUSH1 0x40 MLOAD DUP1 DUP4 SUB DUP2 PUSH1 0x0 DUP8 DUP1 EXTCODESIZE ISZERO DUP1 ISZERO PUSH2 0xED0 JUMPI PUSH1 0x0 DUP1 REVERT JUMPDEST POP GAS CALL ISZERO DUP1 ISZERO PUSH2 0xEE4 JUMPI RETURNDATASIZE PUSH1 0x0 DUP1 RETURNDATACOPY RETURNDATASIZE PUSH1 0x0 REVERT JUMPDEST POP POP POP POP POP POP POP POP JUMP JUMPDEST PUSH2 0xEF7 DUP3 PUSH2 0x1BD2 JUMP JUMPDEST PUSH2 0xF36 JUMPI PUSH1 0x40 MLOAD PUSH32 0x8C379A000000000000000000000000000000000000000000000000000000000 DUP2 MSTORE PUSH1 0x4 ADD PUSH2 0xF2D SWAP1 PUSH2 0x2633 JUMP JUMPDEST PUSH1 0x40 MLOAD DUP1 SWAP2 SUB SWAP1 REVERT JUMPDEST PUSH2 0xF3F DUP3 PUSH2 0x1BAF JUMP JUMPDEST ISZERO PUSH2 0xF7F JUMPI PUSH1 0x40 MLOAD PUSH32 0x8C379A000000000000000000000000000000000000000000000000000000000 DUP2 MSTORE PUSH1 0x4 ADD PUSH2 0xF76 SWAP1 PUSH2 0x269F JUMP JUMPDEST PUSH1 0x40 MLOAD DUP1 SWAP2 SUB SWAP1 REVERT JUMPDEST PUSH1 0x0 PUSH1 0x1 PUSH1 0x0 DUP5 DUP2 MSTORE PUSH1 0x20 ADD SWAP1 DUP2 MSTORE PUSH1 0x20 ADD PUSH1 0x0 KECCAK256 PUSH1 0x40 MLOAD DUP1 PUSH2 0x120 ADD PUSH1 0x40 MSTORE SWAP1 DUP2 PUSH1 0x0 DUP3 ADD PUSH1 0x0 SWAP1 SLOAD SWAP1 PUSH2 0x100 EXP SWAP1 DIV PUSH20 0xFFFFFFFFFFFFFFFFFFFFFFFFFFFFFFFFFFFFFFFF AND PUSH20 0xFFFFFFFFFFFFFFFFFFFFFFFFFFFFFFFFFFFFFFFF AND PUSH20 0xFFFFFFFFFFFFFFFFFFFFFFFFFFFFFFFFFFFFFFFF AND DUP2 MSTORE PUSH1 0x20 ADD PUSH1 0x1 DUP3 ADD PUSH1 0x0 SWAP1 SLOAD SWAP1 PUSH2 0x100 EXP SWAP1 DIV PUSH20 0xFFFFFFFFFFFFFFFFFFFFFFFFFFFFFFFFFFFFFFFF AND PUSH20 0xFFFFFFFFFFFFFFFFFFFFFFFFFFFFFFFFFFFFFFFF AND PUSH20 0xFFFFFFFFFFFFFFFFFFFFFFFFFFFFFFFFFFFFFFFF AND DUP2 MSTORE PUSH1 0x20 ADD PUSH1 0x2 DUP3 ADD PUSH1 0x0 SWAP1 SLOAD SWAP1 PUSH2 0x100 EXP SWAP1 DIV PUSH20 0xFFFFFFFFFFFFFFFFFFFFFFFFFFFFFFFFFFFFFFFF AND PUSH20 0xFFFFFFFFFFFFFFFFFFFFFFFFFFFFFFFFFFFFFFFF AND PUSH20 0xFFFFFFFFFFFFFFFFFFFFFFFFFFFFFFFFFFFFFFFF AND DUP2 MSTORE PUSH1 0x20 ADD PUSH1 0x3 DUP3 ADD SLOAD DUP2 MSTORE PUSH1 0x20 ADD PUSH1 0x4 DUP3 ADD SLOAD DUP2 MSTORE PUSH1 0x20 ADD PUSH1 0x5 DUP3 ADD SLOAD DUP2 MSTORE PUSH1 0x20 ADD PUSH1 0x6 DUP3 ADD SLOAD DUP2 MSTORE PUSH1 0x20 ADD PUSH1 0x7 DUP3 ADD SLOAD DUP2 MSTORE PUSH1 0x20 ADD PUSH1 0x8 DUP3 ADD PUSH1 0x0 SWAP1 SLOAD SWAP1 PUSH2 0x100 EXP SWAP1 DIV PUSH1 0xFF AND ISZERO ISZERO ISZERO ISZERO DUP2 MSTORE POP POP SWAP1 POP PUSH1 0x0 PUSH1 0x1 DUP3 PUSH1 0xE0 ADD MLOAD PUSH2 0x1104 SWAP2 SWAP1 PUSH2 0x26BF JUMP JUMPDEST SWAP1 POP DUP1 DUP3 PUSH1 0xE0 ADD DUP2 DUP2 MSTORE POP POP PUSH1 0x0 PUSH2 0x111B DUP6 PUSH2 0x1BF4 JUMP JUMPDEST SWAP1 POP DUP1 DUP5 GT PUSH2 0x115F JUMPI PUSH1 0x40 MLOAD PUSH32 0x8C379A000000000000000000000000000000000000000000000000000000000 DUP2 MSTORE PUSH1 0x4 ADD PUSH2 0x1156 SWAP1 PUSH2 0x273F JUMP JUMPDEST PUSH1 0x40 MLOAD DUP1 SWAP2 SUB SWAP1 REVERT JUMPDEST DUP3 PUSH1 0x20 ADD MLOAD PUSH20 0xFFFFFFFFFFFFFFFFFFFFFFFFFFFFFFFFFFFFFFFF AND PUSH4 0x23B872DD CALLER PUSH1 0x2 PUSH1 0x0 DUP10 DUP2 MSTORE PUSH1 0x20 ADD SWAP1 DUP2 MSTORE PUSH1 0x20 ADD PUSH1 0x0 KECCAK256 PUSH1 0x0 DUP7 DUP2 MSTORE PUSH1 0x20 ADD SWAP1 DUP2 MSTORE PUSH1 0x20 ADD PUSH1 0x0 KECCAK256 PUSH1 0x2 ADD PUSH1 0x0 SWAP1 SLOAD SWAP1 PUSH2 0x100 EXP SWAP1 DIV PUSH20 0xFFFFFFFFFFFFFFFFFFFFFFFFFFFFFFFFFFFFFFFF AND DUP5 PUSH1 0x40 MLOAD DUP5 PUSH4 0xFFFFFFFF AND PUSH1 0xE0 SHL DUP2 MSTORE PUSH1 0x4 ADD PUSH2 0x11E7 SWAP4 SWAP3 SWAP2 SWAP1 PUSH2 0x23CC JUMP JUMPDEST PUSH1 0x20 PUSH1 0x40 MLOAD DUP1 DUP4 SUB DUP2 PUSH1 0x0 DUP8 GAS CALL ISZERO DUP1 ISZERO PUSH2 0x1206 JUMPI RETURNDATASIZE PUSH1 0x0 DUP1 RETURNDATACOPY RETURNDATASIZE PUSH1 0x0 REVERT JUMPDEST POP POP POP POP PUSH1 0x40 MLOAD RETURNDATASIZE PUSH1 0x1F NOT PUSH1 0x1F DUP3 ADD AND DUP3 ADD DUP1 PUSH1 0x40 MSTORE POP DUP2 ADD SWAP1 PUSH2 0x122A SWAP2 SWAP1 PUSH2 0x2774 JUMP JUMPDEST POP DUP3 PUSH1 0x20 ADD MLOAD PUSH20 0xFFFFFFFFFFFFFFFFFFFFFFFFFFFFFFFFFFFFFFFF AND PUSH4 0x23B872DD CALLER DUP6 PUSH1 0x0 ADD MLOAD DUP5 DUP9 PUSH2 0x125D SWAP2 SWAP1 PUSH2 0x27A1 JUMP JUMPDEST PUSH1 0x40 MLOAD DUP5 PUSH4 0xFFFFFFFF AND PUSH1 0xE0 SHL DUP2 MSTORE PUSH1 0x4 ADD PUSH2 0x127B SWAP4 SWAP3 SWAP2 SWAP1 PUSH2 0x23CC JUMP JUMPDEST PUSH1 0x20 PUSH1 0x40 MLOAD DUP1 DUP4 SUB DUP2 PUSH1 0x0 DUP8 GAS CALL ISZERO DUP1 ISZERO PUSH2 0x129A JUMPI RETURNDATASIZE PUSH1 0x0 DUP1 RETURNDATACOPY RETURNDATASIZE PUSH1 0x0 REVERT JUMPDEST POP POP POP POP PUSH1 0x40 MLOAD RETURNDATASIZE PUSH1 0x1F NOT PUSH1 0x1F DUP3 ADD AND DUP3 ADD DUP1 PUSH1 0x40 MSTORE POP DUP2 ADD SWAP1 PUSH2 0x12BE SWAP2 SWAP1 PUSH2 0x2774 JUMP JUMPDEST POP PUSH1 0x40 MLOAD DUP1 PUSH1 0x60 ADD PUSH1 0x40 MSTORE DUP1 TIMESTAMP DUP2 MSTORE PUSH1 0x20 ADD DUP6 DUP2 MSTORE PUSH1 0x20 ADD CALLER PUSH20 0xFFFFFFFFFFFFFFFFFFFFFFFFFFFFFFFFFFFFFFFF AND DUP2 MSTORE POP PUSH1 0x2 PUSH1 0x0 DUP8 DUP2 MSTORE PUSH1 0x20 ADD SWAP1 DUP2 MSTORE PUSH1 0x20 ADD PUSH1 0x0 KECCAK256 PUSH1 0x0 DUP5 DUP2 MSTORE PUSH1 0x20 ADD SWAP1 DUP2 MSTORE PUSH1 0x20 ADD PUSH1 0x0 KECCAK256 PUSH1 0x0 DUP3 ADD MLOAD DUP2 PUSH1 0x0 ADD SSTORE PUSH1 0x20 DUP3 ADD MLOAD DUP2 PUSH1 0x1 ADD SSTORE PUSH1 0x40 DUP3 ADD MLOAD DUP2 PUSH1 0x2 ADD PUSH1 0x0 PUSH2 0x100 EXP DUP2 SLOAD DUP2 PUSH20 0xFFFFFFFFFFFFFFFFFFFFFFFFFFFFFFFFFFFFFFFF MUL NOT AND SWAP1 DUP4 PUSH20 0xFFFFFFFFFFFFFFFFFFFFFFFFFFFFFFFFFFFFFFFF AND MUL OR SWAP1 SSTORE POP SWAP1 POP POP POP POP POP POP POP JUMP JUMPDEST DUP1 CALLER PUSH20 0xFFFFFFFFFFFFFFFFFFFFFFFFFFFFFFFFFFFFFFFF AND PUSH1 0x1 PUSH1 0x0 DUP4 DUP2 MSTORE PUSH1 0x20 ADD SWAP1 DUP2 MSTORE PUSH1 0x20 ADD PUSH1 0x0 KECCAK256 PUSH1 0x0 ADD PUSH1 0x0 SWAP1 SLOAD SWAP1 PUSH2 0x100 EXP SWAP1 DIV PUSH20 0xFFFFFFFFFFFFFFFFFFFFFFFFFFFFFFFFFFFFFFFF AND PUSH20 0xFFFFFFFFFFFFFFFFFFFFFFFFFFFFFFFFFFFFFFFF AND EQ PUSH2 0x141E JUMPI PUSH1 0x40 MLOAD PUSH32 0x8C379A000000000000000000000000000000000000000000000000000000000 DUP2 MSTORE PUSH1 0x4 ADD PUSH2 0x1415 SWAP1 PUSH2 0x22D4 JUMP JUMPDEST PUSH1 0x40 MLOAD DUP1 SWAP2 SUB SWAP1 REVERT JUMPDEST PUSH1 0x0 PUSH1 0x1 PUSH1 0x0 DUP5 DUP2 MSTORE PUSH1 0x20 ADD SWAP1 DUP2 MSTORE PUSH1 0x20 ADD PUSH1 0x0 KECCAK256 PUSH1 0x40 MLOAD DUP1 PUSH2 0x120 ADD PUSH1 0x40 MSTORE SWAP1 DUP2 PUSH1 0x0 DUP3 ADD PUSH1 0x0 SWAP1 SLOAD SWAP1 PUSH2 0x100 EXP SWAP1 DIV PUSH20 0xFFFFFFFFFFFFFFFFFFFFFFFFFFFFFFFFFFFFFFFF AND PUSH20 0xFFFFFFFFFFFFFFFFFFFFFFFFFFFFFFFFFFFFFFFF AND PUSH20 0xFFFFFFFFFFFFFFFFFFFFFFFFFFFFFFFFFFFFFFFF AND DUP2 MSTORE PUSH1 0x20 ADD PUSH1 0x1 DUP3 ADD PUSH1 0x0 SWAP1 SLOAD SWAP1 PUSH2 0x100 EXP SWAP1 DIV PUSH20 0xFFFFFFFFFFFFFFFFFFFFFFFFFFFFFFFFFFFFFFFF AND PUSH20 0xFFFFFFFFFFFFFFFFFFFFFFFFFFFFFFFFFFFFFFFF AND PUSH20 0xFFFFFFFFFFFFFFFFFFFFFFFFFFFFFFFFFFFFFFFF AND DUP2 MSTORE PUSH1 0x20 ADD PUSH1 0x2 DUP3 ADD PUSH1 0x0 SWAP1 SLOAD SWAP1 PUSH2 0x100 EXP SWAP1 DIV PUSH20 0xFFFFFFFFFFFFFFFFFFFFFFFFFFFFFFFFFFFFFFFF AND PUSH20 0xFFFFFFFFFFFFFFFFFFFFFFFFFFFFFFFFFFFFFFFF AND PUSH20 0xFFFFFFFFFFFFFFFFFFFFFFFFFFFFFFFFFFFFFFFF AND DUP2 MSTORE PUSH1 0x20 ADD PUSH1 0x3 DUP3 ADD SLOAD DUP2 MSTORE PUSH1 0x20 ADD PUSH1 0x4 DUP3 ADD SLOAD DUP2 MSTORE PUSH1 0x20 ADD PUSH1 0x5 DUP3 ADD SLOAD DUP2 MSTORE PUSH1 0x20 ADD PUSH1 0x6 DUP3 ADD SLOAD DUP2 MSTORE PUSH1 0x20 ADD PUSH1 0x7 DUP3 ADD SLOAD DUP2 MSTORE PUSH1 0x20 ADD PUSH1 0x8 DUP3 ADD PUSH1 0x0 SWAP1 SLOAD SWAP1 PUSH2 0x100 EXP SWAP1 DIV PUSH1 0xFF AND ISZERO ISZERO ISZERO ISZERO DUP2 MSTORE POP POP SWAP1 POP PUSH1 0x0 PUSH1 0x2 PUSH1 0x0 DUP6 DUP2 MSTORE PUSH1 0x20 ADD SWAP1 DUP2 MSTORE PUSH1 0x20 ADD PUSH1 0x0 KECCAK256 PUSH1 0x0 DUP4 PUSH1 0xE0 ADD MLOAD DUP2 MSTORE PUSH1 0x20 ADD SWAP1 DUP2 MSTORE PUSH1 0x20 ADD PUSH1 0x0 KECCAK256 PUSH1 0x40 MLOAD DUP1 PUSH1 0x60 ADD PUSH1 0x40 MSTORE SWAP1 DUP2 PUSH1 0x0 DUP3 ADD SLOAD DUP2 MSTORE PUSH1 0x20 ADD PUSH1 0x1 DUP3 ADD SLOAD DUP2 MSTORE PUSH1 0x20 ADD PUSH1 0x2 DUP3 ADD PUSH1 0x0 SWAP1 SLOAD SWAP1 PUSH2 0x100 EXP SWAP1 DIV PUSH20 0xFFFFFFFFFFFFFFFFFFFFFFFFFFFFFFFFFFFFFFFF AND PUSH20 0xFFFFFFFFFFFFFFFFFFFFFFFFFFFFFFFFFFFFFFFF AND PUSH20 0xFFFFFFFFFFFFFFFFFFFFFFFFFFFFFFFFFFFFFFFF AND DUP2 MSTORE POP POP SWAP1 POP DUP2 PUSH1 0x20 ADD MLOAD PUSH20 0xFFFFFFFFFFFFFFFFFFFFFFFFFFFFFFFFFFFFFFFF AND PUSH4 0x23B872DD CALLER DUP4 PUSH1 0x40 ADD MLOAD PUSH2 0x1660 DUP9 PUSH2 0x1BF4 JUMP JUMPDEST PUSH1 0x40 MLOAD DUP5 PUSH4 0xFFFFFFFF AND PUSH1 0xE0 SHL DUP2 MSTORE PUSH1 0x4 ADD PUSH2 0x167E SWAP4 SWAP3 SWAP2 SWAP1 PUSH2 0x23CC JUMP JUMPDEST PUSH1 0x20 PUSH1 0x40 MLOAD DUP1 DUP4 SUB DUP2 PUSH1 0x0 DUP8 GAS CALL ISZERO DUP1 ISZERO PUSH2 0x169D JUMPI RETURNDATASIZE PUSH1 0x0 DUP1 RETURNDATACOPY RETURNDATASIZE PUSH1 0x0 REVERT JUMPDEST POP POP POP POP PUSH1 0x40 MLOAD RETURNDATASIZE PUSH1 0x1F NOT PUSH1 0x1F DUP3 ADD AND DUP3 ADD DUP1 PUSH1 0x40 MSTORE POP DUP2 ADD SWAP1 PUSH2 0x16C1 SWAP2 SWAP1 PUSH2 0x2774 JUMP JUMPDEST POP PUSH1 0x0 DUP3 PUSH1 0x40 ADD MLOAD SWAP1 POP DUP1 PUSH20 0xFFFFFFFFFFFFFFFFFFFFFFFFFFFFFFFFFFFFFFFF AND PUSH4 0x42842E0E ADDRESS CALLER DUP7 PUSH1 0x60 ADD MLOAD PUSH1 0x40 MLOAD DUP5 PUSH4 0xFFFFFFFF AND PUSH1 0xE0 SHL DUP2 MSTORE PUSH1 0x4 ADD PUSH2 0x170C SWAP4 SWAP3 SWAP2 SWAP1 PUSH2 0x23CC JUMP JUMPDEST PUSH1 0x0 PUSH1 0x40 MLOAD DUP1 DUP4 SUB DUP2 PUSH1 0x0 DUP8 DUP1 EXTCODESIZE ISZERO DUP1 ISZERO PUSH2 0x1726 JUMPI PUSH1 0x0 DUP1 REVERT JUMPDEST POP GAS CALL ISZERO DUP1 ISZERO PUSH2 0x173A JUMPI RETURNDATASIZE PUSH1 0x0 DUP1 RETURNDATACOPY RETURNDATASIZE PUSH1 0x0 REVERT JUMPDEST POP POP POP POP POP POP POP POP POP JUMP JUMPDEST PUSH1 0x2 PUSH1 0x20 MSTORE DUP2 PUSH1 0x0 MSTORE PUSH1 0x40 PUSH1 0x0 KECCAK256 PUSH1 0x20 MSTORE DUP1 PUSH1 0x0 MSTORE PUSH1 0x40 PUSH1 0x0 KECCAK256 PUSH1 0x0 SWAP2 POP SWAP2 POP POP DUP1 PUSH1 0x0 ADD SLOAD SWAP1 DUP1 PUSH1 0x1 ADD SLOAD SWAP1 DUP1 PUSH1 0x2 ADD PUSH1 0x0 SWAP1 SLOAD SWAP1 PUSH2 0x100 EXP SWAP1 DIV PUSH20 0xFFFFFFFFFFFFFFFFFFFFFFFFFFFFFFFFFFFFFFFF AND SWAP1 POP DUP4 JUMP JUMPDEST PUSH2 0x17A5 DUP3 PUSH2 0x1BD2 JUMP JUMPDEST PUSH2 0x17E4 JUMPI PUSH1 0x40 MLOAD PUSH32 0x8C379A000000000000000000000000000000000000000000000000000000000 DUP2 MSTORE PUSH1 0x4 ADD PUSH2 0x17DB SWAP1 PUSH2 0x2633 JUMP JUMPDEST PUSH1 0x40 MLOAD DUP1 SWAP2 SUB SWAP1 REVERT JUMPDEST PUSH2 0x17ED DUP3 PUSH2 0x1BAF JUMP JUMPDEST ISZERO PUSH2 0x182D JUMPI PUSH1 0x40 MLOAD PUSH32 0x8C379A000000000000000000000000000000000000000000000000000000000 DUP2 MSTORE PUSH1 0x4 ADD PUSH2 0x1824 SWAP1 PUSH2 0x269F JUMP JUMPDEST PUSH1 0x40 MLOAD DUP1 SWAP2 SUB SWAP1 REVERT JUMPDEST PUSH1 0x0 PUSH1 0x1 PUSH1 0x0 DUP5 DUP2 MSTORE PUSH1 0x20 ADD SWAP1 DUP2 MSTORE PUSH1 0x20 ADD PUSH1 0x0 KECCAK256 PUSH1 0x40 MLOAD DUP1 PUSH2 0x120 ADD PUSH1 0x40 MSTORE SWAP1 DUP2 PUSH1 0x0 DUP3 ADD PUSH1 0x0 SWAP1 SLOAD SWAP1 PUSH2 0x100 EXP SWAP1 DIV PUSH20 0xFFFFFFFFFFFFFFFFFFFFFFFFFFFFFFFFFFFFFFFF AND PUSH20 0xFFFFFFFFFFFFFFFFFFFFFFFFFFFFFFFFFFFFFFFF AND PUSH20 0xFFFFFFFFFFFFFFFFFFFFFFFFFFFFFFFFFFFFFFFF AND DUP2 MSTORE PUSH1 0x20 ADD PUSH1 0x1 DUP3 ADD PUSH1 0x0 SWAP1 SLOAD SWAP1 PUSH2 0x100 EXP SWAP1 DIV PUSH20 0xFFFFFFFFFFFFFFFFFFFFFFFFFFFFFFFFFFFFFFFF AND PUSH20 0xFFFFFFFFFFFFFFFFFFFFFFFFFFFFFFFFFFFFFFFF AND PUSH20 0xFFFFFFFFFFFFFFFFFFFFFFFFFFFFFFFFFFFFFFFF AND DUP2 MSTORE PUSH1 0x20 ADD PUSH1 0x2 DUP3 ADD PUSH1 0x0 SWAP1 SLOAD SWAP1 PUSH2 0x100 EXP SWAP1 DIV PUSH20 0xFFFFFFFFFFFFFFFFFFFFFFFFFFFFFFFFFFFFFFFF AND PUSH20 0xFFFFFFFFFFFFFFFFFFFFFFFFFFFFFFFFFFFFFFFF AND PUSH20 0xFFFFFFFFFFFFFFFFFFFFFFFFFFFFFFFFFFFFFFFF AND DUP2 MSTORE PUSH1 0x20 ADD PUSH1 0x3 DUP3 ADD SLOAD DUP2 MSTORE PUSH1 0x20 ADD PUSH1 0x4 DUP3 ADD SLOAD DUP2 MSTORE PUSH1 0x20 ADD PUSH1 0x5 DUP3 ADD SLOAD DUP2 MSTORE PUSH1 0x20 ADD PUSH1 0x6 DUP3 ADD SLOAD DUP2 MSTORE PUSH1 0x20 ADD PUSH1 0x7 DUP3 ADD SLOAD DUP2 MSTORE PUSH1 0x20 ADD PUSH1 0x8 DUP3 ADD PUSH1 0x0 SWAP1 SLOAD SWAP1 PUSH2 0x100 EXP SWAP1 DIV PUSH1 0xFF AND ISZERO ISZERO ISZERO ISZERO DUP2 MSTORE POP POP SWAP1 POP PUSH1 0x0 PUSH1 0x2 PUSH1 0x0 DUP6 DUP2 MSTORE PUSH1 0x20 ADD SWAP1 DUP2 MSTORE PUSH1 0x20 ADD PUSH1 0x0 KECCAK256 PUSH1 0x0 DUP4 PUSH1 0xE0 ADD MLOAD DUP2 MSTORE PUSH1 0x20 ADD SWAP1 DUP2 MSTORE PUSH1 0x20 ADD PUSH1 0x0 KECCAK256 SWAP1 POP CALLER PUSH20 0xFFFFFFFFFFFFFFFFFFFFFFFFFFFFFFFFFFFFFFFF AND DUP2 PUSH1 0x2 ADD PUSH1 0x0 SWAP1 SLOAD SWAP1 PUSH2 0x100 EXP SWAP1 DIV PUSH20 0xFFFFFFFFFFFFFFFFFFFFFFFFFFFFFFFFFFFFFFFF AND PUSH20 0xFFFFFFFFFFFFFFFFFFFFFFFFFFFFFFFFFFFFFFFF AND EQ PUSH2 0x1A5D JUMPI PUSH1 0x40 MLOAD PUSH32 0x8C379A000000000000000000000000000000000000000000000000000000000 DUP2 MSTORE PUSH1 0x4 ADD PUSH2 0x1A54 SWAP1 PUSH2 0x2821 JUMP JUMPDEST PUSH1 0x40 MLOAD DUP1 SWAP2 SUB SWAP1 REVERT JUMPDEST DUP3 DUP2 PUSH1 0x2 ADD PUSH1 0x0 PUSH2 0x100 EXP DUP2 SLOAD DUP2 PUSH20 0xFFFFFFFFFFFFFFFFFFFFFFFFFFFFFFFFFFFFFFFF MUL NOT AND SWAP1 DUP4 PUSH20 0xFFFFFFFFFFFFFFFFFFFFFFFFFFFFFFFFFFFFFFFF AND MUL OR SWAP1 SSTORE POP POP POP POP POP JUMP JUMPDEST PUSH1 0x3 PUSH1 0x20 MSTORE DUP2 PUSH1 0x0 MSTORE PUSH1 0x40 PUSH1 0x0 KECCAK256 DUP2 DUP2 SLOAD DUP2 LT PUSH2 0x1AC2 JUMPI PUSH1 0x0 DUP1 REVERT JUMPDEST SWAP1 PUSH1 0x0 MSTORE PUSH1 0x20 PUSH1 0x0 KECCAK256 ADD PUSH1 0x0 SWAP2 POP SWAP2 POP SWAP1 SLOAD SWAP1 PUSH2 0x100 EXP SWAP1 DIV PUSH20 0xFFFFFFFFFFFFFFFFFFFFFFFFFFFFFFFFFFFFFFFF AND DUP2 JUMP JUMPDEST PUSH1 0x1 PUSH1 0x20 MSTORE DUP1 PUSH1 0x0 MSTORE PUSH1 0x40 PUSH1 0x0 KECCAK256 PUSH1 0x0 SWAP2 POP SWAP1 POP DUP1 PUSH1 0x0 ADD PUSH1 0x0 SWAP1 SLOAD SWAP1 PUSH2 0x100 EXP SWAP1 DIV PUSH20 0xFFFFFFFFFFFFFFFFFFFFFFFFFFFFFFFFFFFFFFFF AND SWAP1 DUP1 PUSH1 0x1 ADD PUSH1 0x0 SWAP1 SLOAD SWAP1 PUSH2 0x100 EXP SWAP1 DIV PUSH20 0xFFFFFFFFFFFFFFFFFFFFFFFFFFFFFFFFFFFFFFFF AND SWAP1 DUP1 PUSH1 0x2 ADD PUSH1 0x0 SWAP1 SLOAD SWAP1 PUSH2 0x100 EXP SWAP1 DIV PUSH20 0xFFFFFFFFFFFFFFFFFFFFFFFFFFFFFFFFFFFFFFFF AND SWAP1 DUP1 PUSH1 0x3 ADD SLOAD SWAP1 DUP1 PUSH1 0x4 ADD SLOAD SWAP1 DUP1 PUSH1 0x5 ADD SLOAD SWAP1 DUP1 PUSH1 0x6 ADD SLOAD SWAP1 DUP1 PUSH1 0x7 ADD SLOAD SWAP1 DUP1 PUSH1 0x8 ADD PUSH1 0x0 SWAP1 SLOAD SWAP1 PUSH2 0x100 EXP SWAP1 DIV PUSH1 0xFF AND SWAP1 POP DUP10 JUMP JUMPDEST PUSH1 0x0 TIMESTAMP PUSH1 0x1 PUSH1 0x0 DUP5 DUP2 MSTORE PUSH1 0x20 ADD SWAP1 DUP2 MSTORE PUSH1 0x20 ADD PUSH1 0x0 KECCAK256 PUSH1 0x5 ADD SLOAD GT ISZERO SWAP1 POP SWAP2 SWAP1 POP JUMP JUMPDEST PUSH1 0x0 TIMESTAMP PUSH1 0x1 PUSH1 0x0 DUP5 DUP2 MSTORE PUSH1 0x20 ADD SWAP1 DUP2 MSTORE PUSH1 0x20 ADD PUSH1 0x0 KECCAK256 PUSH1 0x4 ADD SLOAD LT SWAP1 POP SWAP2 SWAP1 POP JUMP JUMPDEST PUSH1 0x0 DUP1 PUSH1 0x1 PUSH1 0x0 DUP5 DUP2 MSTORE PUSH1 0x20 ADD SWAP1 DUP2 MSTORE PUSH1 0x20 ADD PUSH1 0x0 KECCAK256 PUSH1 0x40 MLOAD DUP1 PUSH2 0x120 ADD PUSH1 0x40 MSTORE SWAP1 DUP2 PUSH1 0x0 DUP3 ADD PUSH1 0x0 SWAP1 SLOAD SWAP1 PUSH2 0x100 EXP SWAP1 DIV PUSH20 0xFFFFFFFFFFFFFFFFFFFFFFFFFFFFFFFFFFFFFFFF AND PUSH20 0xFFFFFFFFFFFFFFFFFFFFFFFFFFFFFFFFFFFFFFFF AND PUSH20 0xFFFFFFFFFFFFFFFFFFFFFFFFFFFFFFFFFFFFFFFF AND DUP2 MSTORE PUSH1 0x20 ADD PUSH1 0x1 DUP3 ADD PUSH1 0x0 SWAP1 SLOAD SWAP1 PUSH2 0x100 EXP SWAP1 DIV PUSH20 0xFFFFFFFFFFFFFFFFFFFFFFFFFFFFFFFFFFFFFFFF AND PUSH20 0xFFFFFFFFFFFFFFFFFFFFFFFFFFFFFFFFFFFFFFFF AND PUSH20 0xFFFFFFFFFFFFFFFFFFFFFFFFFFFFFFFFFFFFFFFF AND DUP2 MSTORE PUSH1 0x20 ADD PUSH1 0x2 DUP3 ADD PUSH1 0x0 SWAP1 SLOAD SWAP1 PUSH2 0x100 EXP SWAP1 DIV PUSH20 0xFFFFFFFFFFFFFFFFFFFFFFFFFFFFFFFFFFFFFFFF AND PUSH20 0xFFFFFFFFFFFFFFFFFFFFFFFFFFFFFFFFFFFFFFFF AND PUSH20 0xFFFFFFFFFFFFFFFFFFFFFFFFFFFFFFFFFFFFFFFF AND DUP2 MSTORE PUSH1 0x20 ADD PUSH1 0x3 DUP3 ADD SLOAD DUP2 MSTORE PUSH1 0x20 ADD PUSH1 0x4 DUP3 ADD SLOAD DUP2 MSTORE PUSH1 0x20 ADD PUSH1 0x5 DUP3 ADD SLOAD DUP2 MSTORE PUSH1 0x20 ADD PUSH1 0x6 DUP3 ADD SLOAD DUP2 MSTORE PUSH1 0x20 ADD PUSH1 0x7 DUP3 ADD SLOAD DUP2 MSTORE PUSH1 0x20 ADD PUSH1 0x8 DUP3 ADD PUSH1 0x0 SWAP1 SLOAD SWAP1 PUSH2 0x100 EXP SWAP1 DIV PUSH1 0xFF AND ISZERO ISZERO ISZERO ISZERO DUP2 MSTORE POP POP SWAP1 POP PUSH1 0x0 PUSH1 0x2 PUSH1 0x0 DUP6 DUP2 MSTORE PUSH1 0x20 ADD SWAP1 DUP2 MSTORE PUSH1 0x20 ADD PUSH1 0x0 KECCAK256 PUSH1 0x0 DUP4 PUSH1 0xE0 ADD MLOAD DUP2 MSTORE PUSH1 0x20 ADD SWAP1 DUP2 MSTORE PUSH1 0x20 ADD PUSH1 0x0 KECCAK256 PUSH1 0x40 MLOAD DUP1 PUSH1 0x60 ADD PUSH1 0x40 MSTORE SWAP1 DUP2 PUSH1 0x0 DUP3 ADD SLOAD DUP2 MSTORE PUSH1 0x20 ADD PUSH1 0x1 DUP3 ADD SLOAD DUP2 MSTORE PUSH1 0x20 ADD PUSH1 0x2 DUP3 ADD PUSH1 0x0 SWAP1 SLOAD SWAP1 PUSH2 0x100 EXP SWAP1 DIV PUSH20 0xFFFFFFFFFFFFFFFFFFFFFFFFFFFFFFFFFFFFFFFF AND PUSH20 0xFFFFFFFFFFFFFFFFFFFFFFFFFFFFFFFFFFFFFFFF AND PUSH20 0xFFFFFFFFFFFFFFFFFFFFFFFFFFFFFFFFFFFFFFFF AND DUP2 MSTORE POP POP SWAP1 POP PUSH1 0x0 PUSH2 0x1E13 DUP6 PUSH2 0x1BAF JUMP JUMPDEST ISZERO PUSH2 0x1E33 JUMPI DUP3 PUSH1 0xA0 ADD MLOAD DUP3 PUSH1 0x0 ADD MLOAD PUSH2 0x1E2C SWAP2 SWAP1 PUSH2 0x27A1 JUMP JUMPDEST SWAP1 POP PUSH2 0x1E46 JUMP JUMPDEST TIMESTAMP DUP3 PUSH1 0x0 ADD MLOAD PUSH2 0x1E43 SWAP2 SWAP1 PUSH2 0x27A1 JUMP JUMPDEST SWAP1 POP JUMPDEST PUSH4 0x1E13380 DUP2 PUSH8 0xDE0B6B3A7640000 DUP6 PUSH1 0xC0 ADD MLOAD DUP6 PUSH1 0x20 ADD MLOAD PUSH2 0x1E69 SWAP2 SWAP1 PUSH2 0x2841 JUMP JUMPDEST PUSH2 0x1E73 SWAP2 SWAP1 PUSH2 0x28CA JUMP JUMPDEST PUSH2 0x1E7D SWAP2 SWAP1 PUSH2 0x2841 JUMP JUMPDEST PUSH2 0x1E87 SWAP2 SWAP1 PUSH2 0x28CA JUMP JUMPDEST DUP3 PUSH1 0x20 ADD MLOAD PUSH2 0x1E96 SWAP2 SWAP1 PUSH2 0x26BF JUMP JUMPDEST SWAP4 POP POP POP POP SWAP2 SWAP1 POP JUMP JUMPDEST PUSH1 0x40 MLOAD DUP1 PUSH2 0x120 ADD PUSH1 0x40 MSTORE DUP1 PUSH1 0x0 PUSH20 0xFFFFFFFFFFFFFFFFFFFFFFFFFFFFFFFFFFFFFFFF AND DUP2 MSTORE PUSH1 0x20 ADD PUSH1 0x0 PUSH20 0xFFFFFFFFFFFFFFFFFFFFFFFFFFFFFFFFFFFFFFFF AND DUP2 MSTORE PUSH1 0x20 ADD PUSH1 0x0 PUSH20 0xFFFFFFFFFFFFFFFFFFFFFFFFFFFFFFFFFFFFFFFF AND DUP2 MSTORE PUSH1 0x20 ADD PUSH1 0x0 DUP2 MSTORE PUSH1 0x20 ADD PUSH1 0x0 DUP2 MSTORE PUSH1 0x20 ADD PUSH1 0x0 DUP2 MSTORE PUSH1 0x20 ADD PUSH1 0x0 DUP2 MSTORE PUSH1 0x20 ADD PUSH1 0x0 DUP2 MSTORE PUSH1 0x20 ADD PUSH1 0x0 ISZERO ISZERO DUP2 MSTORE POP SWAP1 JUMP JUMPDEST PUSH1 0x0 DUP2 SWAP1 POP SWAP2 SWAP1 POP JUMP JUMPDEST PUSH2 0x1F43 DUP2 PUSH2 0x1F30 JUMP JUMPDEST DUP3 MSTORE POP POP JUMP JUMPDEST PUSH1 0x0 PUSH1 0x20 DUP3 ADD SWAP1 POP PUSH2 0x1F5E PUSH1 0x0 DUP4 ADD DUP5 PUSH2 0x1F3A JUMP JUMPDEST SWAP3 SWAP2 POP POP JUMP JUMPDEST PUSH1 0x0 DUP1 REVERT JUMPDEST PUSH2 0x1F72 DUP2 PUSH2 0x1F30 JUMP JUMPDEST DUP2 EQ PUSH2 0x1F7D JUMPI PUSH1 0x0 DUP1 REVERT JUMPDEST POP JUMP JUMPDEST PUSH1 0x0 DUP2 CALLDATALOAD SWAP1 POP PUSH2 0x1F8F DUP2 PUSH2 0x1F69 JUMP JUMPDEST SWAP3 SWAP2 POP POP JUMP JUMPDEST PUSH1 0x0 PUSH1 0x20 DUP3 DUP5 SUB SLT ISZERO PUSH2 0x1FAB JUMPI PUSH2 0x1FAA PUSH2 0x1F64 JUMP JUMPDEST JUMPDEST PUSH1 0x0 PUSH2 0x1FB9 DUP5 DUP3 DUP6 ADD PUSH2 0x1F80 JUMP JUMPDEST SWAP2 POP POP SWAP3 SWAP2 POP POP JUMP JUMPDEST PUSH1 0x0 PUSH20 0xFFFFFFFFFFFFFFFFFFFFFFFFFFFFFFFFFFFFFFFF DUP3 AND SWAP1 POP SWAP2 SWAP1 POP JUMP JUMPDEST PUSH1 0x0 PUSH2 0x1FED DUP3 PUSH2 0x1FC2 JUMP JUMPDEST SWAP1 POP SWAP2 SWAP1 POP JUMP JUMPDEST PUSH2 0x1FFD DUP2 PUSH2 0x1FE2 JUMP JUMPDEST DUP2 EQ PUSH2 0x2008 JUMPI PUSH1 0x0 DUP1 REVERT JUMPDEST POP JUMP JUMPDEST PUSH1 0x0 DUP2 CALLDATALOAD SWAP1 POP PUSH2 0x201A DUP2 PUSH2 0x1FF4 JUMP JUMPDEST SWAP3 SWAP2 POP POP JUMP JUMPDEST PUSH1 0x0 DUP2 ISZERO ISZERO SWAP1 POP SWAP2 SWAP1 POP JUMP JUMPDEST PUSH2 0x2035 DUP2 PUSH2 0x2020 JUMP JUMPDEST DUP2 EQ PUSH2 0x2040 JUMPI PUSH1 0x0 DUP1 REVERT JUMPDEST POP JUMP JUMPDEST PUSH1 0x0 DUP2 CALLDATALOAD SWAP1 POP PUSH2 0x2052 DUP2 PUSH2 0x202C JUMP JUMPDEST SWAP3 SWAP2 POP POP JUMP JUMPDEST PUSH1 0x0 DUP1 PUSH1 0x0 DUP1 PUSH1 0x0 DUP1 PUSH1 0x0 PUSH1 0xE0 DUP9 DUP11 SUB SLT ISZERO PUSH2 0x2077 JUMPI PUSH2 0x2076 PUSH2 0x1F64 JUMP JUMPDEST JUMPDEST PUSH1 0x0 PUSH2 0x2085 DUP11 DUP3 DUP12 ADD PUSH2 0x200B JUMP JUMPDEST SWAP8 POP POP PUSH1 0x20 PUSH2 0x2096 DUP11 DUP3 DUP12 ADD PUSH2 0x200B JUMP JUMPDEST SWAP7 POP POP PUSH1 0x40 PUSH2 0x20A7 DUP11 DUP3 DUP12 ADD PUSH2 0x1F80 JUMP JUMPDEST SWAP6 POP POP PUSH1 0x60 PUSH2 0x20B8 DUP11 DUP3 DUP12 ADD PUSH2 0x1F80 JUMP JUMPDEST SWAP5 POP POP PUSH1 0x80 PUSH2 0x20C9 DUP11 DUP3 DUP12 ADD PUSH2 0x1F80 JUMP JUMPDEST SWAP4 POP POP PUSH1 0xA0 PUSH2 0x20DA DUP11 DUP3 DUP12 ADD PUSH2 0x1F80 JUMP JUMPDEST SWAP3 POP POP PUSH1 0xC0 PUSH2 0x20EB DUP11 DUP3 DUP12 ADD PUSH2 0x2043 JUMP JUMPDEST SWAP2 POP POP SWAP3 SWAP6 SWAP9 SWAP2 SWAP5 SWAP8 POP SWAP3 SWAP6 POP JUMP JUMPDEST PUSH1 0x0 DUP1 PUSH1 0x40 DUP4 DUP6 SUB SLT ISZERO PUSH2 0x2111 JUMPI PUSH2 0x2110 PUSH2 0x1F64 JUMP JUMPDEST JUMPDEST PUSH1 0x0 PUSH2 0x211F DUP6 DUP3 DUP7 ADD PUSH2 0x1F80 JUMP JUMPDEST SWAP3 POP POP PUSH1 0x20 PUSH2 0x2130 DUP6 DUP3 DUP7 ADD PUSH2 0x1F80 JUMP JUMPDEST SWAP2 POP POP SWAP3 POP SWAP3 SWAP1 POP JUMP JUMPDEST PUSH2 0x2143 DUP2 PUSH2 0x1FE2 JUMP JUMPDEST DUP3 MSTORE POP POP JUMP JUMPDEST PUSH1 0x0 PUSH1 0x60 DUP3 ADD SWAP1 POP PUSH2 0x215E PUSH1 0x0 DUP4 ADD DUP7 PUSH2 0x1F3A JUMP JUMPDEST PUSH2 0x216B PUSH1 0x20 DUP4 ADD DUP6 PUSH2 0x1F3A JUMP JUMPDEST PUSH2 0x2178 PUSH1 0x40 DUP4 ADD DUP5 PUSH2 0x213A JUMP JUMPDEST SWAP5 SWAP4 POP POP POP POP JUMP JUMPDEST PUSH1 0x0 DUP1 PUSH1 0x40 DUP4 DUP6 SUB SLT ISZERO PUSH2 0x2197 JUMPI PUSH2 0x2196 PUSH2 0x1F64 JUMP JUMPDEST JUMPDEST PUSH1 0x0 PUSH2 0x21A5 DUP6 DUP3 DUP7 ADD PUSH2 0x1F80 JUMP JUMPDEST SWAP3 POP POP PUSH1 0x20 PUSH2 0x21B6 DUP6 DUP3 DUP7 ADD PUSH2 0x200B JUMP JUMPDEST SWAP2 POP POP SWAP3 POP SWAP3 SWAP1 POP JUMP JUMPDEST PUSH1 0x0 PUSH1 0x20 DUP3 ADD SWAP1 POP PUSH2 0x21D5 PUSH1 0x0 DUP4 ADD DUP5 PUSH2 0x213A JUMP JUMPDEST SWAP3 SWAP2 POP POP JUMP JUMPDEST PUSH2 0x21E4 DUP2 PUSH2 0x2020 JUMP JUMPDEST DUP3 MSTORE POP POP JUMP JUMPDEST PUSH1 0x0 PUSH2 0x120 DUP3 ADD SWAP1 POP PUSH2 0x2200 PUSH1 0x0 DUP4 ADD DUP13 PUSH2 0x213A JUMP JUMPDEST PUSH2 0x220D PUSH1 0x20 DUP4 ADD DUP12 PUSH2 0x213A JUMP JUMPDEST PUSH2 0x221A PUSH1 0x40 DUP4 ADD DUP11 PUSH2 0x213A JUMP JUMPDEST PUSH2 0x2227 PUSH1 0x60 DUP4 ADD DUP10 PUSH2 0x1F3A JUMP JUMPDEST PUSH2 0x2234 PUSH1 0x80 DUP4 ADD DUP9 PUSH2 0x1F3A JUMP JUMPDEST PUSH2 0x2241 PUSH1 0xA0 DUP4 ADD DUP8 PUSH2 0x1F3A JUMP JUMPDEST PUSH2 0x224E PUSH1 0xC0 DUP4 ADD DUP7 PUSH2 0x1F3A JUMP JUMPDEST PUSH2 0x225B PUSH1 0xE0 DUP4 ADD DUP6 PUSH2 0x1F3A JUMP JUMPDEST PUSH2 0x2269 PUSH2 0x100 DUP4 ADD DUP5 PUSH2 0x21DB JUMP JUMPDEST SWAP11 SWAP10 POP POP POP POP POP POP POP POP POP POP JUMP JUMPDEST PUSH1 0x0 DUP3 DUP3 MSTORE PUSH1 0x20 DUP3 ADD SWAP1 POP SWAP3 SWAP2 POP POP JUMP JUMPDEST PUSH32 0x4C414E3A206E6F74206F776E6572000000000000000000000000000000000000 PUSH1 0x0 DUP3 ADD MSTORE POP JUMP JUMPDEST PUSH1 0x0 PUSH2 0x22BE PUSH1 0xE DUP4 PUSH2 0x2277 JUMP JUMPDEST SWAP2 POP PUSH2 0x22C9 DUP3 PUSH2 0x2288 JUMP JUMPDEST PUSH1 0x20 DUP3 ADD SWAP1 POP SWAP2 SWAP1 POP JUMP JUMPDEST PUSH1 0x0 PUSH1 0x20 DUP3 ADD SWAP1 POP DUP2 DUP2 SUB PUSH1 0x0 DUP4 ADD MSTORE PUSH2 0x22ED DUP2 PUSH2 0x22B1 JUMP JUMPDEST SWAP1 POP SWAP2 SWAP1 POP JUMP JUMPDEST PUSH32 0x4C414E3A206C6F616E206E6F7420656E64656400000000000000000000000000 PUSH1 0x0 DUP3 ADD MSTORE POP JUMP JUMPDEST PUSH1 0x0 PUSH2 0x232A PUSH1 0x13 DUP4 PUSH2 0x2277 JUMP JUMPDEST SWAP2 POP PUSH2 0x2335 DUP3 PUSH2 0x22F4 JUMP JUMPDEST PUSH1 0x20 DUP3 ADD SWAP1 POP SWAP2 SWAP1 POP JUMP JUMPDEST PUSH1 0x0 PUSH1 0x20 DUP3 ADD SWAP1 POP DUP2 DUP2 SUB PUSH1 0x0 DUP4 ADD MSTORE PUSH2 0x2359 DUP2 PUSH2 0x231D JUMP JUMPDEST SWAP1 POP SWAP2 SWAP1 POP JUMP JUMPDEST PUSH32 0x4C414E3A206E6F74206C61746573742062696464657200000000000000000000 PUSH1 0x0 DUP3 ADD MSTORE POP JUMP JUMPDEST PUSH1 0x0 PUSH2 0x2396 PUSH1 0x16 DUP4 PUSH2 0x2277 JUMP JUMPDEST SWAP2 POP PUSH2 0x23A1 DUP3 PUSH2 0x2360 JUMP JUMPDEST PUSH1 0x20 DUP3 ADD SWAP1 POP SWAP2 SWAP1 POP JUMP JUMPDEST PUSH1 0x0 PUSH1 0x20 DUP3 ADD SWAP1 POP DUP2 DUP2 SUB PUSH1 0x0 DUP4 ADD MSTORE PUSH2 0x23C5 DUP2 PUSH2 0x2389 JUMP JUMPDEST SWAP1 POP SWAP2 SWAP1 POP JUMP JUMPDEST PUSH1 0x0 PUSH1 0x60 DUP3 ADD SWAP1 POP PUSH2 0x23E1 PUSH1 0x0 DUP4 ADD DUP7 PUSH2 0x213A JUMP JUMPDEST PUSH2 0x23EE PUSH1 0x20 DUP4 ADD DUP6 PUSH2 0x213A JUMP JUMPDEST PUSH2 0x23FB PUSH1 0x40 DUP4 ADD DUP5 PUSH2 0x1F3A JUMP JUMPDEST SWAP5 SWAP4 POP POP POP POP JUMP JUMPDEST PUSH32 0x4C414E3A2073746172742074696D6520696E2070617374000000000000000000 PUSH1 0x0 DUP3 ADD MSTORE POP JUMP JUMPDEST PUSH1 0x0 PUSH2 0x2439 PUSH1 0x17 DUP4 PUSH2 0x2277 JUMP JUMPDEST SWAP2 POP PUSH2 0x2444 DUP3 PUSH2 0x2403 JUMP JUMPDEST PUSH1 0x20 DUP3 ADD SWAP1 POP SWAP2 SWAP1 POP JUMP JUMPDEST PUSH1 0x0 PUSH1 0x20 DUP3 ADD SWAP1 POP DUP2 DUP2 SUB PUSH1 0x0 DUP4 ADD MSTORE PUSH2 0x2468 DUP2 PUSH2 0x242C JUMP JUMPDEST SWAP1 POP SWAP2 SWAP1 POP JUMP JUMPDEST PUSH32 0x4C414E3A20737461727420616674657220656E64000000000000000000000000 PUSH1 0x0 DUP3 ADD MSTORE POP JUMP JUMPDEST PUSH1 0x0 PUSH2 0x24A5 PUSH1 0x14 DUP4 PUSH2 0x2277 JUMP JUMPDEST SWAP2 POP PUSH2 0x24B0 DUP3 PUSH2 0x246F JUMP JUMPDEST PUSH1 0x20 DUP3 ADD SWAP1 POP SWAP2 SWAP1 POP JUMP JUMPDEST PUSH1 0x0 PUSH1 0x20 DUP3 ADD SWAP1 POP DUP2 DUP2 SUB PUSH1 0x0 DUP4 ADD MSTORE PUSH2 0x24D4 DUP2 PUSH2 0x2498 JUMP JUMPDEST SWAP1 POP SWAP2 SWAP1 POP JUMP JUMPDEST PUSH1 0x0 PUSH1 0x40 DUP3 ADD SWAP1 POP PUSH2 0x24F0 PUSH1 0x0 DUP4 ADD DUP6 PUSH2 0x213A JUMP JUMPDEST PUSH2 0x24FD PUSH1 0x20 DUP4 ADD DUP5 PUSH2 0x1F3A JUMP JUMPDEST SWAP4 SWAP3 POP POP POP JUMP JUMPDEST PUSH32 0x4E487B7100000000000000000000000000000000000000000000000000000000 PUSH1 0x0 MSTORE PUSH1 0x11 PUSH1 0x4 MSTORE PUSH1 0x24 PUSH1 0x0 REVERT JUMPDEST PUSH1 0x0 PUSH2 0x253E DUP3 PUSH2 0x1F30 JUMP JUMPDEST SWAP2 POP PUSH32 0xFFFFFFFFFFFFFFFFFFFFFFFFFFFFFFFFFFFFFFFFFFFFFFFFFFFFFFFFFFFFFFFF DUP3 SUB PUSH2 0x2570 JUMPI PUSH2 0x256F PUSH2 0x2504 JUMP JUMPDEST JUMPDEST PUSH1 0x1 DUP3 ADD SWAP1 POP SWAP2 SWAP1 POP JUMP JUMPDEST PUSH32 0x4C414E3A20616C72656164792073746172746564000000000000000000000000 PUSH1 0x0 DUP3 ADD MSTORE POP JUMP JUMPDEST PUSH1 0x0 PUSH2 0x25B1 PUSH1 0x14 DUP4 PUSH2 0x2277 JUMP JUMPDEST SWAP2 POP PUSH2 0x25BC DUP3 PUSH2 0x257B JUMP JUMPDEST PUSH1 0x20 DUP3 ADD SWAP1 POP SWAP2 SWAP1 POP JUMP JUMPDEST PUSH1 0x0 PUSH1 0x20 DUP3 ADD SWAP1 POP DUP2 DUP2 SUB PUSH1 0x0 DUP4 ADD MSTORE PUSH2 0x25E0 DUP2 PUSH2 0x25A4 JUMP JUMPDEST SWAP1 POP SWAP2 SWAP1 POP JUMP JUMPDEST PUSH32 0x4C414E3A206E6F74207374617274656400000000000000000000000000000000 PUSH1 0x0 DUP3 ADD MSTORE POP JUMP JUMPDEST PUSH1 0x0 PUSH2 0x261D PUSH1 0x10 DUP4 PUSH2 0x2277 JUMP JUMPDEST SWAP2 POP PUSH2 0x2628 DUP3 PUSH2 0x25E7 JUMP JUMPDEST PUSH1 0x20 DUP3 ADD SWAP1 POP SWAP2 SWAP1 POP JUMP JUMPDEST PUSH1 0x0 PUSH1 0x20 DUP3 ADD SWAP1 POP DUP2 DUP2 SUB PUSH1 0x0 DUP4 ADD MSTORE PUSH2 0x264C DUP2 PUSH2 0x2610 JUMP JUMPDEST SWAP1 POP SWAP2 SWAP1 POP JUMP JUMPDEST PUSH32 0x4C414E3A20616C726561647920656E6465640000000000000000000000000000 PUSH1 0x0 DUP3 ADD MSTORE POP JUMP JUMPDEST PUSH1 0x0 PUSH2 0x2689 PUSH1 0x12 DUP4 PUSH2 0x2277 JUMP JUMPDEST SWAP2 POP PUSH2 0x2694 DUP3 PUSH2 0x2653 JUMP JUMPDEST PUSH1 0x20 DUP3 ADD SWAP1 POP SWAP2 SWAP1 POP JUMP JUMPDEST PUSH1 0x0 PUSH1 0x20 DUP3 ADD SWAP1 POP DUP2 DUP2 SUB PUSH1 0x0 DUP4 ADD MSTORE PUSH2 0x26B8 DUP2 PUSH2 0x267C JUMP JUMPDEST SWAP1 POP SWAP2 SWAP1 POP JUMP JUMPDEST PUSH1 0x0 PUSH2 0x26CA DUP3 PUSH2 0x1F30 JUMP JUMPDEST SWAP2 POP PUSH2 0x26D5 DUP4 PUSH2 0x1F30 JUMP JUMPDEST SWAP3 POP DUP3 DUP3 ADD SWAP1 POP DUP1 DUP3 GT ISZERO PUSH2 0x26ED JUMPI PUSH2 0x26EC PUSH2 0x2504 JUMP JUMPDEST JUMPDEST SWAP3 SWAP2 POP POP JUMP JUMPDEST PUSH32 0x4C414E3A20626964206E6F742068696768657200000000000000000000000000 PUSH1 0x0 DUP3 ADD MSTORE POP JUMP JUMPDEST PUSH1 0x0 PUSH2 0x2729 PUSH1 0x13 DUP4 PUSH2 0x2277 JUMP JUMPDEST SWAP2 POP PUSH2 0x2734 DUP3 PUSH2 0x26F3 JUMP JUMPDEST PUSH1 0x20 DUP3 ADD SWAP1 POP SWAP2 SWAP1 POP JUMP JUMPDEST PUSH1 0x0 PUSH1 0x20 DUP3 ADD SWAP1 POP DUP2 DUP2 SUB PUSH1 0x0 DUP4 ADD MSTORE PUSH2 0x2758 DUP2 PUSH2 0x271C JUMP JUMPDEST SWAP1 POP SWAP2 SWAP1 POP JUMP JUMPDEST PUSH1 0x0 DUP2 MLOAD SWAP1 POP PUSH2 0x276E DUP2 PUSH2 0x202C JUMP JUMPDEST SWAP3 SWAP2 POP POP JUMP JUMPDEST PUSH1 0x0 PUSH1 0x20 DUP3 DUP5 SUB SLT ISZERO PUSH2 0x278A JUMPI PUSH2 0x2789 PUSH2 0x1F64 JUMP JUMPDEST JUMPDEST PUSH1 0x0 PUSH2 0x2798 DUP5 DUP3 DUP6 ADD PUSH2 0x275F JUMP JUMPDEST SWAP2 POP POP SWAP3 SWAP2 POP POP JUMP JUMPDEST PUSH1 0x0 PUSH2 0x27AC DUP3 PUSH2 0x1F30 JUMP JUMPDEST SWAP2 POP PUSH2 0x27B7 DUP4 PUSH2 0x1F30 JUMP JUMPDEST SWAP3 POP DUP3 DUP3 SUB SWAP1 POP DUP2 DUP2 GT ISZERO PUSH2 0x27CF JUMPI PUSH2 0x27CE PUSH2 0x2504 JUMP JUMPDEST JUMPDEST SWAP3 SWAP2 POP POP JUMP JUMPDEST PUSH32 0x4C414E3A204E6F7420746865206C617465737420626964646572000000000000 PUSH1 0x0 DUP3 ADD MSTORE POP JUMP JUMPDEST PUSH1 0x0 PUSH2 0x280B PUSH1 0x1A DUP4 PUSH2 0x2277 JUMP JUMPDEST SWAP2 POP PUSH2 0x2816 DUP3 PUSH2 0x27D5 JUMP JUMPDEST PUSH1 0x20 DUP3 ADD SWAP1 POP SWAP2 SWAP1 POP JUMP JUMPDEST PUSH1 0x0 PUSH1 0x20 DUP3 ADD SWAP1 POP DUP2 DUP2 SUB PUSH1 0x0 DUP4 ADD MSTORE PUSH2 0x283A DUP2 PUSH2 0x27FE JUMP JUMPDEST SWAP1 POP SWAP2 SWAP1 POP JUMP JUMPDEST PUSH1 0x0 PUSH2 0x284C DUP3 PUSH2 0x1F30 JUMP JUMPDEST SWAP2 POP PUSH2 0x2857 DUP4 PUSH2 0x1F30 JUMP JUMPDEST SWAP3 POP DUP2 PUSH32 0xFFFFFFFFFFFFFFFFFFFFFFFFFFFFFFFFFFFFFFFFFFFFFFFFFFFFFFFFFFFFFFFF DIV DUP4 GT DUP3 ISZERO ISZERO AND ISZERO PUSH2 0x2890 JUMPI PUSH2 0x288F PUSH2 0x2504 JUMP JUMPDEST JUMPDEST DUP3 DUP3 MUL SWAP1 POP SWAP3 SWAP2 POP POP JUMP JUMPDEST PUSH32 0x4E487B7100000000000000000000000000000000000000000000000000000000 PUSH1 0x0 MSTORE PUSH1 0x12 PUSH1 0x4 MSTORE PUSH1 0x24 PUSH1 0x0 REVERT JUMPDEST PUSH1 0x0 PUSH2 0x28D5 DUP3 PUSH2 0x1F30 JUMP JUMPDEST SWAP2 POP PUSH2 0x28E0 DUP4 PUSH2 0x1F30 JUMP JUMPDEST SWAP3 POP DUP3 PUSH2 0x28F0 JUMPI PUSH2 0x28EF PUSH2 0x289B JUMP JUMPDEST JUMPDEST DUP3 DUP3 DIV SWAP1 POP SWAP3 SWAP2 POP POP JUMP INVALID LOG2 PUSH5 0x6970667358 0x22 SLT KECCAK256 0xD8 POP NUMBER 0xAA PUSH1 0xBA MOD BLOCKHASH 0x25 PUSH32 0x9EDB68CCFAD11564A39653311C11231B9059112C055A64736F6C634300081000 CALLER "
				},
				"gasEstimates": {
					"creation": {
						"codeDepositCost": "2109000",
						"executionCost": "2243",
						"totalCost": "2111243"
					},
					"external": {
						"bid(uint256,uint256)": "infinite",
						"bids(uint256,uint256)": "infinite",
						"cancel(uint256)": "infinite",
						"count()": "2430",
						"endLoan(uint256)": "infinite",
						"launch(address,address,uint256,uint256,uint256,uint256,bool)": "infinite",
						"liquidate(uint256)": "infinite",
						"liquidateEarly(uint256)": "infinite",
						"loans(uint256)": "infinite",
						"setNewBidOwner(uint256,address)": "51252",
						"whitelistedAddresses(uint256,uint256)": "infinite"
					},
					"internal": {
						"_calculateLoanValue(uint256)": "infinite",
						"_ended(uint256)": "2226",
						"_started(uint256)": "2223"
					}
				},
				"methodIdentifiers": {
					"bid(uint256,uint256)": "598647f8",
					"bids(uint256,uint256)": "7b3c4baa",
					"cancel(uint256)": "40e58ee5",
					"count()": "06661abd",
					"endLoan(uint256)": "7870860b",
					"launch(address,address,uint256,uint256,uint256,uint256,bool)": "2613c5d6",
					"liquidate(uint256)": "415f1240",
					"liquidateEarly(uint256)": "18de4f9d",
					"loans(uint256)": "e1ec3c68",
					"setNewBidOwner(uint256,address)": "8f769f3a",
					"whitelistedAddresses(uint256,uint256)": "9bea77da"
				}
			},
			"storageLayout": {
				"storage": [
					{
						"astId": 223,
						"contract": "main.sol:LAN",
						"label": "count",
						"offset": 0,
						"slot": "0",
						"type": "t_uint256"
					},
					{
						"astId": 247,
						"contract": "main.sol:LAN",
						"label": "loans",
						"offset": 0,
						"slot": "1",
						"type": "t_mapping(t_uint256,t_struct(Loan)242_storage)"
					},
					{
						"astId": 261,
						"contract": "main.sol:LAN",
						"label": "bids",
						"offset": 0,
						"slot": "2",
						"type": "t_mapping(t_uint256,t_mapping(t_uint256,t_struct(Bid)254_storage))"
					},
					{
						"astId": 266,
						"contract": "main.sol:LAN",
						"label": "whitelistedAddresses",
						"offset": 0,
						"slot": "3",
						"type": "t_mapping(t_uint256,t_array(t_address)dyn_storage)"
					}
				],
				"types": {
					"t_address": {
						"encoding": "inplace",
						"label": "address",
						"numberOfBytes": "20"
					},
					"t_array(t_address)dyn_storage": {
						"base": "t_address",
						"encoding": "dynamic_array",
						"label": "address[]",
						"numberOfBytes": "32"
					},
					"t_bool": {
						"encoding": "inplace",
						"label": "bool",
						"numberOfBytes": "1"
					},
					"t_mapping(t_uint256,t_array(t_address)dyn_storage)": {
						"encoding": "mapping",
						"key": "t_uint256",
						"label": "mapping(uint256 => address[])",
						"numberOfBytes": "32",
						"value": "t_array(t_address)dyn_storage"
					},
					"t_mapping(t_uint256,t_mapping(t_uint256,t_struct(Bid)254_storage))": {
						"encoding": "mapping",
						"key": "t_uint256",
						"label": "mapping(uint256 => mapping(uint256 => struct LAN.Bid))",
						"numberOfBytes": "32",
						"value": "t_mapping(t_uint256,t_struct(Bid)254_storage)"
					},
					"t_mapping(t_uint256,t_struct(Bid)254_storage)": {
						"encoding": "mapping",
						"key": "t_uint256",
						"label": "mapping(uint256 => struct LAN.Bid)",
						"numberOfBytes": "32",
						"value": "t_struct(Bid)254_storage"
					},
					"t_mapping(t_uint256,t_struct(Loan)242_storage)": {
						"encoding": "mapping",
						"key": "t_uint256",
						"label": "mapping(uint256 => struct LAN.Loan)",
						"numberOfBytes": "32",
						"value": "t_struct(Loan)242_storage"
					},
					"t_struct(Bid)254_storage": {
						"encoding": "inplace",
						"label": "struct LAN.Bid",
						"members": [
							{
								"astId": 249,
								"contract": "main.sol:LAN",
								"label": "bidTime",
								"offset": 0,
								"slot": "0",
								"type": "t_uint256"
							},
							{
								"astId": 251,
								"contract": "main.sol:LAN",
								"label": "bidAmount",
								"offset": 0,
								"slot": "1",
								"type": "t_uint256"
							},
							{
								"astId": 253,
								"contract": "main.sol:LAN",
								"label": "user",
								"offset": 0,
								"slot": "2",
								"type": "t_address"
							}
						],
						"numberOfBytes": "96"
					},
					"t_struct(Loan)242_storage": {
						"encoding": "inplace",
						"label": "struct LAN.Loan",
						"members": [
							{
								"astId": 225,
								"contract": "main.sol:LAN",
								"label": "owner",
								"offset": 0,
								"slot": "0",
								"type": "t_address"
							},
							{
								"astId": 227,
								"contract": "main.sol:LAN",
								"label": "token",
								"offset": 0,
								"slot": "1",
								"type": "t_address"
							},
							{
								"astId": 229,
								"contract": "main.sol:LAN",
								"label": "collectionAddress",
								"offset": 0,
								"slot": "2",
								"type": "t_address"
							},
							{
								"astId": 231,
								"contract": "main.sol:LAN",
								"label": "nftId",
								"offset": 0,
								"slot": "3",
								"type": "t_uint256"
							},
							{
								"astId": 233,
								"contract": "main.sol:LAN",
								"label": "startTime",
								"offset": 0,
								"slot": "4",
								"type": "t_uint256"
							},
							{
								"astId": 235,
								"contract": "main.sol:LAN",
								"label": "endTime",
								"offset": 0,
								"slot": "5",
								"type": "t_uint256"
							},
							{
								"astId": 237,
								"contract": "main.sol:LAN",
								"label": "apr",
								"offset": 0,
								"slot": "6",
								"type": "t_uint256"
							},
							{
								"astId": 239,
								"contract": "main.sol:LAN",
								"label": "numBids",
								"offset": 0,
								"slot": "7",
								"type": "t_uint256"
							},
							{
								"astId": 241,
								"contract": "main.sol:LAN",
								"label": "whitelisted",
								"offset": 0,
								"slot": "8",
								"type": "t_bool"
							}
						],
						"numberOfBytes": "288"
					},
					"t_uint256": {
						"encoding": "inplace",
						"label": "uint256",
						"numberOfBytes": "32"
					}
				}
			},
			"userdoc": {
				"kind": "user",
				"methods": {},
				"version": 1
			}
		}
	}
}