{
	"main.sol": {
		"LAN": {
			"abi": [
				{
					"anonymous": false,
					"inputs": [
						{
							"indexed": false,
							"internalType": "uint256",
							"name": "Id",
							"type": "uint256"
						}
					],
					"name": "loanCancelled",
					"type": "event"
				},
				{
					"anonymous": false,
					"inputs": [
						{
							"indexed": true,
							"internalType": "uint256",
							"name": "poolId",
							"type": "uint256"
						},
						{
							"indexed": false,
							"internalType": "address",
							"name": "collectionAddress",
							"type": "address"
						},
						{
							"indexed": false,
							"internalType": "uint256",
							"name": "nftId",
							"type": "uint256"
						}
					],
					"name": "newPool",
					"type": "event"
				},
				{
					"inputs": [
						{
							"internalType": "uint256",
							"name": "_poolId",
							"type": "uint256"
						},
						{
							"internalType": "uint256",
							"name": "_amount",
							"type": "uint256"
						},
						{
							"internalType": "uint256",
							"name": "_apr",
							"type": "uint256"
						}
					],
					"name": "bid",
					"outputs": [],
					"stateMutability": "nonpayable",
					"type": "function"
				},
				{
					"inputs": [
						{
							"internalType": "uint256",
							"name": "",
							"type": "uint256"
						},
						{
							"internalType": "uint256",
							"name": "",
							"type": "uint256"
						}
					],
					"name": "bids",
					"outputs": [
						{
							"internalType": "uint256",
							"name": "bidTime",
							"type": "uint256"
						},
						{
							"internalType": "uint256",
							"name": "bidAmount",
							"type": "uint256"
						},
						{
							"internalType": "address",
							"name": "user",
							"type": "address"
						},
						{
							"internalType": "uint256",
							"name": "apr",
							"type": "uint256"
						}
					],
					"stateMutability": "view",
					"type": "function"
				},
				{
					"inputs": [
						{
							"internalType": "uint256",
							"name": "_poolId",
							"type": "uint256"
						}
					],
					"name": "cancel",
					"outputs": [],
					"stateMutability": "nonpayable",
					"type": "function"
				},
				{
					"inputs": [
						{
							"internalType": "uint256",
							"name": "_poolId",
							"type": "uint256"
						},
						{
							"internalType": "address",
							"name": "_newAddress",
							"type": "address"
						},
						{
							"internalType": "bool",
							"name": "_status",
							"type": "bool"
						}
					],
					"name": "changeWhitelist",
					"outputs": [],
					"stateMutability": "nonpayable",
					"type": "function"
				},
				{
					"inputs": [],
					"name": "count",
					"outputs": [
						{
							"internalType": "uint256",
							"name": "",
							"type": "uint256"
						}
					],
					"stateMutability": "view",
					"type": "function"
				},
				{
					"inputs": [
						{
							"internalType": "uint256",
							"name": "_poolId",
							"type": "uint256"
						}
					],
					"name": "endLoan",
					"outputs": [],
					"stateMutability": "nonpayable",
					"type": "function"
				},
				{
					"inputs": [
						{
							"internalType": "address",
							"name": "_operator",
							"type": "address"
						},
						{
							"internalType": "address",
							"name": "_token",
							"type": "address"
						},
						{
							"internalType": "address",
							"name": "_collectionAddress",
							"type": "address"
						},
						{
							"internalType": "uint256",
							"name": "_nftId",
							"type": "uint256"
						},
						{
							"internalType": "uint256",
							"name": "_startTime",
							"type": "uint256"
						},
						{
							"internalType": "uint256",
							"name": "_endTime",
							"type": "uint256"
						},
						{
							"internalType": "bool",
							"name": "_whitelisted",
							"type": "bool"
						}
					],
					"name": "launch",
					"outputs": [],
					"stateMutability": "nonpayable",
					"type": "function"
				},
				{
					"inputs": [
						{
							"internalType": "uint256",
							"name": "_poolId",
							"type": "uint256"
						}
					],
					"name": "liquidate",
					"outputs": [],
					"stateMutability": "nonpayable",
					"type": "function"
				},
				{
					"inputs": [
						{
							"internalType": "uint256",
							"name": "_poolId",
							"type": "uint256"
						}
					],
					"name": "liquidateEarly",
					"outputs": [],
					"stateMutability": "nonpayable",
					"type": "function"
				},
				{
					"inputs": [
						{
							"internalType": "uint256",
							"name": "",
							"type": "uint256"
						}
					],
					"name": "loans",
					"outputs": [
						{
							"internalType": "address",
							"name": "owner",
							"type": "address"
						},
						{
							"internalType": "address",
							"name": "token",
							"type": "address"
						},
						{
							"internalType": "address",
							"name": "operator",
							"type": "address"
						},
						{
							"internalType": "address",
							"name": "collectionAddress",
							"type": "address"
						},
						{
							"internalType": "uint256",
							"name": "nftId",
							"type": "uint256"
						},
						{
							"internalType": "uint256",
							"name": "startTime",
							"type": "uint256"
						},
						{
							"internalType": "uint256",
							"name": "endTime",
							"type": "uint256"
						},
						{
							"internalType": "uint256",
							"name": "apr",
							"type": "uint256"
						},
						{
							"internalType": "uint256",
							"name": "numBids",
							"type": "uint256"
						},
						{
							"internalType": "bool",
							"name": "whitelisted",
							"type": "bool"
						}
					],
					"stateMutability": "view",
					"type": "function"
				},
				{
					"inputs": [
						{
							"internalType": "uint256",
							"name": "_poolId",
							"type": "uint256"
						},
						{
							"internalType": "address",
							"name": "_newAddress",
							"type": "address"
						}
					],
					"name": "setNewBidOwner",
					"outputs": [],
					"stateMutability": "nonpayable",
					"type": "function"
				},
				{
					"inputs": [
						{
							"internalType": "uint256",
							"name": "",
							"type": "uint256"
						},
						{
							"internalType": "address",
							"name": "",
							"type": "address"
						}
					],
					"name": "whitelistedAddresses",
					"outputs": [
						{
							"internalType": "bool",
							"name": "",
							"type": "bool"
						}
					],
					"stateMutability": "view",
					"type": "function"
				}
			],
			"devdoc": {
				"kind": "dev",
				"methods": {},
				"version": 1
			},
			"evm": {
				"assembly": "    /* \"main.sol\":142:6788  contract LAN{... */\n  mstore(0x40, 0x80)\n  callvalue\n  dup1\n  iszero\n  tag_1\n  jumpi\n  0x00\n  dup1\n  revert\ntag_1:\n  pop\n  dataSize(sub_0)\n  dup1\n  dataOffset(sub_0)\n  0x00\n  codecopy\n  0x00\n  return\nstop\n\nsub_0: assembly {\n        /* \"main.sol\":142:6788  contract LAN{... */\n      mstore(0x40, 0x80)\n      callvalue\n      dup1\n      iszero\n      tag_1\n      jumpi\n      0x00\n      dup1\n      revert\n    tag_1:\n      pop\n      jumpi(tag_2, lt(calldatasize, 0x04))\n      shr(0xe0, calldataload(0x00))\n      dup1\n      0x7b3c4baa\n      gt\n      tag_15\n      jumpi\n      dup1\n      0x7b3c4baa\n      eq\n      tag_9\n      jumpi\n      dup1\n      0x8f769f3a\n      eq\n      tag_10\n      jumpi\n      dup1\n      0xa23b02bd\n      eq\n      tag_11\n      jumpi\n      dup1\n      0xe1267929\n      eq\n      tag_12\n      jumpi\n      dup1\n      0xe1ec3c68\n      eq\n      tag_13\n      jumpi\n      dup1\n      0xf724e48e\n      eq\n      tag_14\n      jumpi\n      jump(tag_2)\n    tag_15:\n      dup1\n      0x06661abd\n      eq\n      tag_3\n      jumpi\n      dup1\n      0x18de4f9d\n      eq\n      tag_4\n      jumpi\n      dup1\n      0x2ac9bf09\n      eq\n      tag_5\n      jumpi\n      dup1\n      0x40e58ee5\n      eq\n      tag_6\n      jumpi\n      dup1\n      0x415f1240\n      eq\n      tag_7\n      jumpi\n      dup1\n      0x7870860b\n      eq\n      tag_8\n      jumpi\n    tag_2:\n      0x00\n      dup1\n      revert\n        /* \"main.sol\":313:333  uint256 public count */\n    tag_3:\n      tag_16\n      tag_17\n      jump\t// in\n    tag_16:\n      mload(0x40)\n      tag_18\n      swap2\n      swap1\n      tag_19\n      jump\t// in\n    tag_18:\n      mload(0x40)\n      dup1\n      swap2\n      sub\n      swap1\n      return\n        /* \"main.sol\":5622:5953  function liquidateEarly(uint256 _poolId) external onlyOwner(_poolId) {... */\n    tag_4:\n      tag_20\n      0x04\n      dup1\n      calldatasize\n      sub\n      dup2\n      add\n      swap1\n      tag_21\n      swap2\n      swap1\n      tag_22\n      jump\t// in\n    tag_21:\n      tag_23\n      jump\t// in\n    tag_20:\n      stop\n        /* \"main.sol\":2251:3416  function bid(uint256 _poolId, uint256 _amount, uint256 _apr) external {... */\n    tag_5:\n      tag_24\n      0x04\n      dup1\n      calldatasize\n      sub\n      dup2\n      add\n      swap1\n      tag_25\n      swap2\n      swap1\n      tag_26\n      jump\t// in\n    tag_25:\n      tag_27\n      jump\t// in\n    tag_24:\n      stop\n        /* \"main.sol\":4204:4448  function cancel(uint256 _poolId) external onlyOwner(_poolId) {... */\n    tag_6:\n      tag_28\n      0x04\n      dup1\n      calldatasize\n      sub\n      dup2\n      add\n      swap1\n      tag_29\n      swap2\n      swap1\n      tag_22\n      jump\t// in\n    tag_29:\n      tag_30\n      jump\t// in\n    tag_28:\n      stop\n        /* \"main.sol\":5018:5451  function liquidate(uint256 _poolId) external {... */\n    tag_7:\n      tag_31\n      0x04\n      dup1\n      calldatasize\n      sub\n      dup2\n      add\n      swap1\n      tag_32\n      swap2\n      swap1\n      tag_22\n      jump\t// in\n    tag_32:\n      tag_33\n      jump\t// in\n    tag_31:\n      stop\n        /* \"main.sol\":4487:4964  function endLoan(uint256 _poolId) external onlyOwner(_poolId) {... */\n    tag_8:\n      tag_34\n      0x04\n      dup1\n      calldatasize\n      sub\n      dup2\n      add\n      swap1\n      tag_35\n      swap2\n      swap1\n      tag_22\n      jump\t// in\n    tag_35:\n      tag_36\n      jump\t// in\n    tag_34:\n      stop\n        /* \"main.sol\":865:920  mapping(uint256 => mapping(uint256 => Bid)) public bids */\n    tag_9:\n      tag_37\n      0x04\n      dup1\n      calldatasize\n      sub\n      dup2\n      add\n      swap1\n      tag_38\n      swap2\n      swap1\n      tag_39\n      jump\t// in\n    tag_38:\n      tag_40\n      jump\t// in\n    tag_37:\n      mload(0x40)\n      tag_41\n      swap5\n      swap4\n      swap3\n      swap2\n      swap1\n      tag_42\n      jump\t// in\n    tag_41:\n      mload(0x40)\n      dup1\n      swap2\n      sub\n      swap1\n      return\n        /* \"main.sol\":3557:3968  function setNewBidOwner(uint256 _poolId, address _newAddress) external {... */\n    tag_10:\n      tag_43\n      0x04\n      dup1\n      calldatasize\n      sub\n      dup2\n      add\n      swap1\n      tag_44\n      swap2\n      swap1\n      tag_45\n      jump\t// in\n    tag_44:\n      tag_46\n      jump\t// in\n    tag_43:\n      stop\n        /* \"main.sol\":1013:1085  mapping(uint256 => mapping(address => bool)) public whitelistedAddresses */\n    tag_11:\n      tag_47\n      0x04\n      dup1\n      calldatasize\n      sub\n      dup2\n      add\n      swap1\n      tag_48\n      swap2\n      swap1\n      tag_45\n      jump\t// in\n    tag_48:\n      tag_49\n      jump\t// in\n    tag_47:\n      mload(0x40)\n      tag_50\n      swap2\n      swap1\n      tag_51\n      jump\t// in\n    tag_50:\n      mload(0x40)\n      dup1\n      swap2\n      sub\n      swap1\n      return\n        /* \"main.sol\":1341:2245  function launch(address _operator, address _token, address _collectionAddress, uint256 _nftId, uint256 _startTime, uint256 _endTime, bool _whitelisted) public {... */\n    tag_12:\n      tag_52\n      0x04\n      dup1\n      calldatasize\n      sub\n      dup2\n      add\n      swap1\n      tag_53\n      swap2\n      swap1\n      tag_54\n      jump\t// in\n    tag_53:\n      tag_55\n      jump\t// in\n    tag_52:\n      stop\n        /* \"main.sol\":680:717  mapping(uint256 => Loan) public loans */\n    tag_13:\n      tag_56\n      0x04\n      dup1\n      calldatasize\n      sub\n      dup2\n      add\n      swap1\n      tag_57\n      swap2\n      swap1\n      tag_22\n      jump\t// in\n    tag_57:\n      tag_58\n      jump\t// in\n    tag_56:\n      mload(0x40)\n      tag_59\n      swap11\n      swap10\n      swap9\n      swap8\n      swap7\n      swap6\n      swap5\n      swap4\n      swap3\n      swap2\n      swap1\n      tag_60\n      jump\t// in\n    tag_59:\n      mload(0x40)\n      dup1\n      swap2\n      sub\n      swap1\n      return\n        /* \"main.sol\":4001:4156  function changeWhitelist(uint256 _poolId, address _newAddress, bool _status) external {... */\n    tag_14:\n      tag_61\n      0x04\n      dup1\n      calldatasize\n      sub\n      dup2\n      add\n      swap1\n      tag_62\n      swap2\n      swap1\n      tag_63\n      jump\t// in\n    tag_62:\n      tag_64\n      jump\t// in\n    tag_61:\n      stop\n        /* \"main.sol\":313:333  uint256 public count */\n    tag_17:\n      sload(0x00)\n      dup2\n      jump\t// out\n        /* \"main.sol\":5622:5953  function liquidateEarly(uint256 _poolId) external onlyOwner(_poolId) {... */\n    tag_23:\n        /* \"main.sol\":5682:5689  _poolId */\n      dup1\n        /* \"main.sol\":1236:1246  msg.sender */\n      caller\n        /* \"main.sol\":1212:1246  loans[_poolId].owner == msg.sender */\n      0xffffffffffffffffffffffffffffffffffffffff\n      and\n        /* \"main.sol\":1212:1217  loans */\n      0x01\n        /* \"main.sol\":1212:1226  loans[_poolId] */\n      0x00\n        /* \"main.sol\":1218:1225  _poolId */\n      dup4\n        /* \"main.sol\":1212:1226  loans[_poolId] */\n      dup2\n      mstore\n      0x20\n      add\n      swap1\n      dup2\n      mstore\n      0x20\n      add\n      0x00\n      keccak256\n        /* \"main.sol\":1212:1232  loans[_poolId].owner */\n      0x00\n      add\n      0x00\n      swap1\n      sload\n      swap1\n      0x0100\n      exp\n      swap1\n      div\n      0xffffffffffffffffffffffffffffffffffffffff\n      and\n        /* \"main.sol\":1212:1246  loans[_poolId].owner == msg.sender */\n      0xffffffffffffffffffffffffffffffffffffffff\n      and\n      eq\n        /* \"main.sol\":1211:1297  (loans[_poolId].owner == msg.sender)... */\n      dup1\n      tag_66\n      jumpi\n      pop\n        /* \"main.sol\":1286:1296  msg.sender */\n      caller\n        /* \"main.sol\":1259:1296  loans[_poolId].operator == msg.sender */\n      0xffffffffffffffffffffffffffffffffffffffff\n      and\n        /* \"main.sol\":1259:1264  loans */\n      0x01\n        /* \"main.sol\":1259:1273  loans[_poolId] */\n      0x00\n        /* \"main.sol\":1265:1272  _poolId */\n      dup4\n        /* \"main.sol\":1259:1273  loans[_poolId] */\n      dup2\n      mstore\n      0x20\n      add\n      swap1\n      dup2\n      mstore\n      0x20\n      add\n      0x00\n      keccak256\n        /* \"main.sol\":1259:1282  loans[_poolId].operator */\n      0x02\n      add\n      0x00\n      swap1\n      sload\n      swap1\n      0x0100\n      exp\n      swap1\n      div\n      0xffffffffffffffffffffffffffffffffffffffff\n      and\n        /* \"main.sol\":1259:1296  loans[_poolId].operator == msg.sender */\n      0xffffffffffffffffffffffffffffffffffffffff\n      and\n      eq\n        /* \"main.sol\":1211:1297  (loans[_poolId].owner == msg.sender)... */\n    tag_66:\n        /* \"main.sol\":1203:1316  require((loans[_poolId].owner == msg.sender)... */\n      tag_67\n      jumpi\n      mload(0x40)\n      0x08c379a000000000000000000000000000000000000000000000000000000000\n      dup2\n      mstore\n      0x04\n      add\n      tag_68\n      swap1\n      tag_69\n      jump\t// in\n    tag_68:\n      mload(0x40)\n      dup1\n      swap2\n      sub\n      swap1\n      revert\n    tag_67:\n        /* \"main.sol\":5701:5717  Loan memory loan */\n      0x00\n        /* \"main.sol\":5720:5725  loans */\n      0x01\n        /* \"main.sol\":5720:5734  loans[_poolId] */\n      0x00\n        /* \"main.sol\":5726:5733  _poolId */\n      dup5\n        /* \"main.sol\":5720:5734  loans[_poolId] */\n      dup2\n      mstore\n      0x20\n      add\n      swap1\n      dup2\n      mstore\n      0x20\n      add\n      0x00\n      keccak256\n        /* \"main.sol\":5701:5734  Loan memory loan = loans[_poolId] */\n      mload(0x40)\n      dup1\n      0x0140\n      add\n      0x40\n      mstore\n      swap1\n      dup2\n      0x00\n      dup3\n      add\n      0x00\n      swap1\n      sload\n      swap1\n      0x0100\n      exp\n      swap1\n      div\n      0xffffffffffffffffffffffffffffffffffffffff\n      and\n      0xffffffffffffffffffffffffffffffffffffffff\n      and\n      0xffffffffffffffffffffffffffffffffffffffff\n      and\n      dup2\n      mstore\n      0x20\n      add\n      0x01\n      dup3\n      add\n      0x00\n      swap1\n      sload\n      swap1\n      0x0100\n      exp\n      swap1\n      div\n      0xffffffffffffffffffffffffffffffffffffffff\n      and\n      0xffffffffffffffffffffffffffffffffffffffff\n      and\n      0xffffffffffffffffffffffffffffffffffffffff\n      and\n      dup2\n      mstore\n      0x20\n      add\n      0x02\n      dup3\n      add\n      0x00\n      swap1\n      sload\n      swap1\n      0x0100\n      exp\n      swap1\n      div\n      0xffffffffffffffffffffffffffffffffffffffff\n      and\n      0xffffffffffffffffffffffffffffffffffffffff\n      and\n      0xffffffffffffffffffffffffffffffffffffffff\n      and\n      dup2\n      mstore\n      0x20\n      add\n      0x03\n      dup3\n      add\n      0x00\n      swap1\n      sload\n      swap1\n      0x0100\n      exp\n      swap1\n      div\n      0xffffffffffffffffffffffffffffffffffffffff\n      and\n      0xffffffffffffffffffffffffffffffffffffffff\n      and\n      0xffffffffffffffffffffffffffffffffffffffff\n      and\n      dup2\n      mstore\n      0x20\n      add\n      0x04\n      dup3\n      add\n      sload\n      dup2\n      mstore\n      0x20\n      add\n      0x05\n      dup3\n      add\n      sload\n      dup2\n      mstore\n      0x20\n      add\n      0x06\n      dup3\n      add\n      sload\n      dup2\n      mstore\n      0x20\n      add\n      0x07\n      dup3\n      add\n      sload\n      dup2\n      mstore\n      0x20\n      add\n      0x08\n      dup3\n      add\n      sload\n      dup2\n      mstore\n      0x20\n      add\n      0x09\n      dup3\n      add\n      0x00\n      swap1\n      sload\n      swap1\n      0x0100\n      exp\n      swap1\n      div\n      0xff\n      and\n      iszero\n      iszero\n      iszero\n      iszero\n      dup2\n      mstore\n      pop\n      pop\n      swap1\n      pop\n        /* \"main.sol\":5744:5764  Bid memory latestBid */\n      0x00\n        /* \"main.sol\":5767:5771  bids */\n      0x02\n        /* \"main.sol\":5767:5780  bids[_poolId] */\n      0x00\n        /* \"main.sol\":5772:5779  _poolId */\n      dup6\n        /* \"main.sol\":5767:5780  bids[_poolId] */\n      dup2\n      mstore\n      0x20\n      add\n      swap1\n      dup2\n      mstore\n      0x20\n      add\n      0x00\n      keccak256\n        /* \"main.sol\":5767:5794  bids[_poolId][loan.numBids] */\n      0x00\n        /* \"main.sol\":5781:5785  loan */\n      dup4\n        /* \"main.sol\":5781:5793  loan.numBids */\n      0x0100\n      add\n      mload\n        /* \"main.sol\":5767:5794  bids[_poolId][loan.numBids] */\n      dup2\n      mstore\n      0x20\n      add\n      swap1\n      dup2\n      mstore\n      0x20\n      add\n      0x00\n      keccak256\n        /* \"main.sol\":5744:5794  Bid memory latestBid = bids[_poolId][loan.numBids] */\n      mload(0x40)\n      dup1\n      0x80\n      add\n      0x40\n      mstore\n      swap1\n      dup2\n      0x00\n      dup3\n      add\n      sload\n      dup2\n      mstore\n      0x20\n      add\n      0x01\n      dup3\n      add\n      sload\n      dup2\n      mstore\n      0x20\n      add\n      0x02\n      dup3\n      add\n      0x00\n      swap1\n      sload\n      swap1\n      0x0100\n      exp\n      swap1\n      div\n      0xffffffffffffffffffffffffffffffffffffffff\n      and\n      0xffffffffffffffffffffffffffffffffffffffff\n      and\n      0xffffffffffffffffffffffffffffffffffffffff\n      and\n      dup2\n      mstore\n      0x20\n      add\n      0x03\n      dup3\n      add\n      sload\n      dup2\n      mstore\n      pop\n      pop\n      swap1\n      pop\n        /* \"main.sol\":5828:5839  IERC721 NFT */\n      0x00\n        /* \"main.sol\":5850:5854  loan */\n      dup3\n        /* \"main.sol\":5850:5872  loan.collectionAddress */\n      0x60\n      add\n      mload\n        /* \"main.sol\":5828:5873  IERC721 NFT = IERC721(loan.collectionAddress) */\n      swap1\n      pop\n        /* \"main.sol\":5883:5886  NFT */\n      dup1\n        /* \"main.sol\":5883:5903  NFT.safeTransferFrom */\n      0xffffffffffffffffffffffffffffffffffffffff\n      and\n      0x42842e0e\n        /* \"main.sol\":5912:5916  this */\n      address\n        /* \"main.sol\":5919:5928  latestBid */\n      dup5\n        /* \"main.sol\":5919:5933  latestBid.user */\n      0x40\n      add\n      mload\n        /* \"main.sol\":5935:5939  loan */\n      dup7\n        /* \"main.sol\":5935:5945  loan.nftId */\n      0x80\n      add\n      mload\n        /* \"main.sol\":5883:5946  NFT.safeTransferFrom(address(this), latestBid.user, loan.nftId) */\n      mload(0x40)\n      dup5\n      0xffffffff\n      and\n      0xe0\n      shl\n      dup2\n      mstore\n      0x04\n      add\n      tag_71\n      swap4\n      swap3\n      swap2\n      swap1\n      tag_72\n      jump\t// in\n    tag_71:\n      0x00\n      mload(0x40)\n      dup1\n      dup4\n      sub\n      dup2\n      0x00\n      dup8\n      dup1\n      extcodesize\n      iszero\n      dup1\n      iszero\n      tag_73\n      jumpi\n      0x00\n      dup1\n      revert\n    tag_73:\n      pop\n      gas\n      call\n      iszero\n      dup1\n      iszero\n      tag_75\n      jumpi\n      returndatasize\n      0x00\n      dup1\n      returndatacopy\n      revert(0x00, returndatasize)\n    tag_75:\n      pop\n      pop\n      pop\n      pop\n        /* \"main.sol\":5691:5953  {... */\n      pop\n      pop\n      pop\n        /* \"main.sol\":5622:5953  function liquidateEarly(uint256 _poolId) external onlyOwner(_poolId) {... */\n      pop\n      pop\n      jump\t// out\n        /* \"main.sol\":2251:3416  function bid(uint256 _poolId, uint256 _amount, uint256 _apr) external {... */\n    tag_27:\n        /* \"main.sol\":2339:2356  _started(_poolId) */\n      tag_77\n        /* \"main.sol\":2348:2355  _poolId */\n      dup4\n        /* \"main.sol\":2339:2347  _started */\n      tag_78\n        /* \"main.sol\":2339:2356  _started(_poolId) */\n      jump\t// in\n    tag_77:\n        /* \"main.sol\":2331:2377  require(_started(_poolId), \"LAN: not started\") */\n      tag_79\n      jumpi\n      mload(0x40)\n      0x08c379a000000000000000000000000000000000000000000000000000000000\n      dup2\n      mstore\n      0x04\n      add\n      tag_80\n      swap1\n      tag_81\n      jump\t// in\n    tag_80:\n      mload(0x40)\n      dup1\n      swap2\n      sub\n      swap1\n      revert\n    tag_79:\n        /* \"main.sol\":2396:2411  _ended(_poolId) */\n      tag_82\n        /* \"main.sol\":2403:2410  _poolId */\n      dup4\n        /* \"main.sol\":2396:2402  _ended */\n      tag_83\n        /* \"main.sol\":2396:2411  _ended(_poolId) */\n      jump\t// in\n    tag_82:\n        /* \"main.sol\":2395:2411  !_ended(_poolId) */\n      iszero\n        /* \"main.sol\":2387:2434  require(!_ended(_poolId), \"LAN: already ended\") */\n      tag_84\n      jumpi\n      mload(0x40)\n      0x08c379a000000000000000000000000000000000000000000000000000000000\n      dup2\n      mstore\n      0x04\n      add\n      tag_85\n      swap1\n      tag_86\n      jump\t// in\n    tag_85:\n      mload(0x40)\n      dup1\n      swap2\n      sub\n      swap1\n      revert\n    tag_84:\n        /* \"main.sol\":2444:2461  Loan storage loan */\n      0x00\n        /* \"main.sol\":2464:2469  loans */\n      0x01\n        /* \"main.sol\":2464:2478  loans[_poolId] */\n      0x00\n        /* \"main.sol\":2470:2477  _poolId */\n      dup6\n        /* \"main.sol\":2464:2478  loans[_poolId] */\n      dup2\n      mstore\n      0x20\n      add\n      swap1\n      dup2\n      mstore\n      0x20\n      add\n      0x00\n      keccak256\n        /* \"main.sol\":2444:2478  Loan storage loan = loans[_poolId] */\n      swap1\n      pop\n        /* \"main.sol\":2497:2501  loan */\n      dup1\n        /* \"main.sol\":2497:2513  loan.whitelisted */\n      0x09\n      add\n      0x00\n      swap1\n      sload\n      swap1\n      0x0100\n      exp\n      swap1\n      div\n      0xff\n      and\n        /* \"main.sol\":2496:2561  (loan.whitelisted) && (whitelistedAddresses[_poolId][msg.sender]) */\n      dup1\n      iszero\n      tag_87\n      jumpi\n      pop\n        /* \"main.sol\":2519:2539  whitelistedAddresses */\n      0x03\n        /* \"main.sol\":2519:2548  whitelistedAddresses[_poolId] */\n      0x00\n        /* \"main.sol\":2540:2547  _poolId */\n      dup6\n        /* \"main.sol\":2519:2548  whitelistedAddresses[_poolId] */\n      dup2\n      mstore\n      0x20\n      add\n      swap1\n      dup2\n      mstore\n      0x20\n      add\n      0x00\n      keccak256\n        /* \"main.sol\":2519:2560  whitelistedAddresses[_poolId][msg.sender] */\n      0x00\n        /* \"main.sol\":2549:2559  msg.sender */\n      caller\n        /* \"main.sol\":2519:2560  whitelistedAddresses[_poolId][msg.sender] */\n      0xffffffffffffffffffffffffffffffffffffffff\n      and\n      0xffffffffffffffffffffffffffffffffffffffff\n      and\n      dup2\n      mstore\n      0x20\n      add\n      swap1\n      dup2\n      mstore\n      0x20\n      add\n      0x00\n      keccak256\n      0x00\n      swap1\n      sload\n      swap1\n      0x0100\n      exp\n      swap1\n      div\n      0xff\n      and\n        /* \"main.sol\":2496:2561  (loan.whitelisted) && (whitelistedAddresses[_poolId][msg.sender]) */\n    tag_87:\n        /* \"main.sol\":2496:2601  (loan.whitelisted) && (whitelistedAddresses[_poolId][msg.sender])... */\n      dup1\n      tag_88\n      jumpi\n      pop\n        /* \"main.sol\":2595:2600  false */\n      0x00\n        /* \"main.sol\":2575:2600  loan.whitelisted == false */\n      iszero\n      iszero\n        /* \"main.sol\":2575:2579  loan */\n      dup2\n        /* \"main.sol\":2575:2591  loan.whitelisted */\n      0x09\n      add\n      0x00\n      swap1\n      sload\n      swap1\n      0x0100\n      exp\n      swap1\n      div\n      0xff\n      and\n        /* \"main.sol\":2575:2600  loan.whitelisted == false */\n      iszero\n      iszero\n      eq\n        /* \"main.sol\":2496:2601  (loan.whitelisted) && (whitelistedAddresses[_poolId][msg.sender])... */\n    tag_88:\n        /* \"main.sol\":2488:2626  require((loan.whitelisted) && (whitelistedAddresses[_poolId][msg.sender])... */\n      tag_89\n      jumpi\n      mload(0x40)\n      0x08c379a000000000000000000000000000000000000000000000000000000000\n      dup2\n      mstore\n      0x04\n      add\n      tag_90\n      swap1\n      tag_91\n      jump\t// in\n    tag_90:\n      mload(0x40)\n      dup1\n      swap2\n      sub\n      swap1\n      revert\n    tag_89:\n        /* \"main.sol\":2667:2682  uint256 numBids */\n      0x00\n        /* \"main.sol\":2700:2701  1 */\n      0x01\n        /* \"main.sol\":2685:2689  loan */\n      dup3\n        /* \"main.sol\":2685:2697  loan.numBids */\n      0x08\n      add\n      sload\n        /* \"main.sol\":2685:2701  loan.numBids + 1 */\n      tag_92\n      swap2\n      swap1\n      tag_93\n      jump\t// in\n    tag_92:\n        /* \"main.sol\":2667:2701  uint256 numBids = loan.numBids + 1 */\n      swap1\n      pop\n        /* \"main.sol\":2727:2734  numBids */\n      dup1\n        /* \"main.sol\":2712:2716  loan */\n      dup3\n        /* \"main.sol\":2712:2724  loan.numBids */\n      0x08\n      add\n        /* \"main.sol\":2712:2734  loan.numBids = numBids */\n      dup2\n      swap1\n      sstore\n      pop\n        /* \"main.sol\":2744:2761  uint256 loanValue */\n      0x00\n        /* \"main.sol\":2764:2792  _calculateLoanValue(_poolId) */\n      tag_94\n        /* \"main.sol\":2784:2791  _poolId */\n      dup7\n        /* \"main.sol\":2764:2783  _calculateLoanValue */\n      tag_95\n        /* \"main.sol\":2764:2792  _calculateLoanValue(_poolId) */\n      jump\t// in\n    tag_94:\n        /* \"main.sol\":2744:2792  uint256 loanValue = _calculateLoanValue(_poolId) */\n      swap1\n      pop\n        /* \"main.sol\":2839:2848  loanValue */\n      dup1\n        /* \"main.sol\":2829:2836  _amount */\n      dup6\n        /* \"main.sol\":2829:2848  _amount > loanValue */\n      gt\n        /* \"main.sol\":2821:2872  require(_amount > loanValue, \"LAN: bid not higher\") */\n      tag_96\n      jumpi\n      mload(0x40)\n      0x08c379a000000000000000000000000000000000000000000000000000000000\n      dup2\n      mstore\n      0x04\n      add\n      tag_97\n      swap1\n      tag_98\n      jump\t// in\n    tag_97:\n      mload(0x40)\n      dup1\n      swap2\n      sub\n      swap1\n      revert\n    tag_96:\n        /* \"main.sol\":2931:2935  loan */\n      dup3\n        /* \"main.sol\":2931:2941  loan.token */\n      0x01\n      add\n      0x00\n      swap1\n      sload\n      swap1\n      0x0100\n      exp\n      swap1\n      div\n      0xffffffffffffffffffffffffffffffffffffffff\n      and\n        /* \"main.sol\":2924:2955  IERC20(loan.token).transferFrom */\n      0xffffffffffffffffffffffffffffffffffffffff\n      and\n      0x23b872dd\n        /* \"main.sol\":2956:2966  msg.sender */\n      caller\n        /* \"main.sol\":2968:2972  bids */\n      0x02\n        /* \"main.sol\":2968:2981  bids[_poolId] */\n      0x00\n        /* \"main.sol\":2973:2980  _poolId */\n      dup11\n        /* \"main.sol\":2968:2981  bids[_poolId] */\n      dup2\n      mstore\n      0x20\n      add\n      swap1\n      dup2\n      mstore\n      0x20\n      add\n      0x00\n      keccak256\n        /* \"main.sol\":2968:2990  bids[_poolId][numBids] */\n      0x00\n        /* \"main.sol\":2982:2989  numBids */\n      dup7\n        /* \"main.sol\":2968:2990  bids[_poolId][numBids] */\n      dup2\n      mstore\n      0x20\n      add\n      swap1\n      dup2\n      mstore\n      0x20\n      add\n      0x00\n      keccak256\n        /* \"main.sol\":2968:2995  bids[_poolId][numBids].user */\n      0x02\n      add\n      0x00\n      swap1\n      sload\n      swap1\n      0x0100\n      exp\n      swap1\n      div\n      0xffffffffffffffffffffffffffffffffffffffff\n      and\n        /* \"main.sol\":2997:3006  loanValue */\n      dup5\n        /* \"main.sol\":2924:3007  IERC20(loan.token).transferFrom(msg.sender, bids[_poolId][numBids].user, loanValue) */\n      mload(0x40)\n      dup5\n      0xffffffff\n      and\n      0xe0\n      shl\n      dup2\n      mstore\n      0x04\n      add\n      tag_99\n      swap4\n      swap3\n      swap2\n      swap1\n      tag_72\n      jump\t// in\n    tag_99:\n      0x20\n      mload(0x40)\n      dup1\n      dup4\n      sub\n      dup2\n      0x00\n      dup8\n      gas\n      call\n      iszero\n      dup1\n      iszero\n      tag_101\n      jumpi\n      returndatasize\n      0x00\n      dup1\n      returndatacopy\n      revert(0x00, returndatasize)\n    tag_101:\n      pop\n      pop\n      pop\n      pop\n      mload(0x40)\n      returndatasize\n      not(0x1f)\n      0x1f\n      dup3\n      add\n      and\n      dup3\n      add\n      dup1\n      0x40\n      mstore\n      pop\n      dup2\n      add\n      swap1\n      tag_102\n      swap2\n      swap1\n      tag_103\n      jump\t// in\n    tag_102:\n      pop\n        /* \"main.sol\":3056:3060  loan */\n      dup3\n        /* \"main.sol\":3056:3066  loan.token */\n      0x01\n      add\n      0x00\n      swap1\n      sload\n      swap1\n      0x0100\n      exp\n      swap1\n      div\n      0xffffffffffffffffffffffffffffffffffffffff\n      and\n        /* \"main.sol\":3049:3080  IERC20(loan.token).transferFrom */\n      0xffffffffffffffffffffffffffffffffffffffff\n      and\n      0x23b872dd\n        /* \"main.sol\":3081:3091  msg.sender */\n      caller\n        /* \"main.sol\":3093:3097  loan */\n      dup6\n        /* \"main.sol\":3093:3103  loan.owner */\n      0x00\n      add\n      0x00\n      swap1\n      sload\n      swap1\n      0x0100\n      exp\n      swap1\n      div\n      0xffffffffffffffffffffffffffffffffffffffff\n      and\n        /* \"main.sol\":3115:3124  loanValue */\n      dup5\n        /* \"main.sol\":3105:3112  _amount */\n      dup10\n        /* \"main.sol\":3105:3124  _amount - loanValue */\n      tag_104\n      swap2\n      swap1\n      tag_105\n      jump\t// in\n    tag_104:\n        /* \"main.sol\":3049:3125  IERC20(loan.token).transferFrom(msg.sender, loan.owner, _amount - loanValue) */\n      mload(0x40)\n      dup5\n      0xffffffff\n      and\n      0xe0\n      shl\n      dup2\n      mstore\n      0x04\n      add\n      tag_106\n      swap4\n      swap3\n      swap2\n      swap1\n      tag_72\n      jump\t// in\n    tag_106:\n      0x20\n      mload(0x40)\n      dup1\n      dup4\n      sub\n      dup2\n      0x00\n      dup8\n      gas\n      call\n      iszero\n      dup1\n      iszero\n      tag_108\n      jumpi\n      returndatasize\n      0x00\n      dup1\n      returndatacopy\n      revert(0x00, returndatasize)\n    tag_108:\n      pop\n      pop\n      pop\n      pop\n      mload(0x40)\n      returndatasize\n      not(0x1f)\n      0x1f\n      dup3\n      add\n      and\n      dup3\n      add\n      dup1\n      0x40\n      mstore\n      pop\n      dup2\n      add\n      swap1\n      tag_109\n      swap2\n      swap1\n      tag_103\n      jump\t// in\n    tag_109:\n      pop\n        /* \"main.sol\":3200:3204  _apr */\n      dup4\n        /* \"main.sol\":3189:3193  loan */\n      dup4\n        /* \"main.sol\":3189:3197  loan.apr */\n      0x07\n      add\n        /* \"main.sol\":3189:3204  loan.apr = _apr */\n      dup2\n      swap1\n      sstore\n      pop\n        /* \"main.sol\":3248:3409  Bid({... */\n      mload(0x40)\n      dup1\n      0x80\n      add\n      0x40\n      mstore\n      dup1\n        /* \"main.sol\":3275:3290  block.timestamp */\n      timestamp\n        /* \"main.sol\":3248:3409  Bid({... */\n      dup2\n      mstore\n      0x20\n      add\n        /* \"main.sol\":3315:3322  _amount */\n      dup7\n        /* \"main.sol\":3248:3409  Bid({... */\n      dup2\n      mstore\n      0x20\n      add\n        /* \"main.sol\":3342:3352  msg.sender */\n      caller\n        /* \"main.sol\":3248:3409  Bid({... */\n      0xffffffffffffffffffffffffffffffffffffffff\n      and\n      dup2\n      mstore\n      0x20\n      add\n        /* \"main.sol\":3371:3375  _apr */\n      dup6\n        /* \"main.sol\":3248:3409  Bid({... */\n      dup2\n      mstore\n      pop\n        /* \"main.sol\":3223:3227  bids */\n      0x02\n        /* \"main.sol\":3223:3236  bids[_poolId] */\n      0x00\n        /* \"main.sol\":3228:3235  _poolId */\n      dup9\n        /* \"main.sol\":3223:3236  bids[_poolId] */\n      dup2\n      mstore\n      0x20\n      add\n      swap1\n      dup2\n      mstore\n      0x20\n      add\n      0x00\n      keccak256\n        /* \"main.sol\":3223:3245  bids[_poolId][numBids] */\n      0x00\n        /* \"main.sol\":3237:3244  numBids */\n      dup5\n        /* \"main.sol\":3223:3245  bids[_poolId][numBids] */\n      dup2\n      mstore\n      0x20\n      add\n      swap1\n      dup2\n      mstore\n      0x20\n      add\n      0x00\n      keccak256\n        /* \"main.sol\":3223:3409  bids[_poolId][numBids] = Bid({... */\n      0x00\n      dup3\n      add\n      mload\n      dup2\n      0x00\n      add\n      sstore\n      0x20\n      dup3\n      add\n      mload\n      dup2\n      0x01\n      add\n      sstore\n      0x40\n      dup3\n      add\n      mload\n      dup2\n      0x02\n      add\n      exp(0x0100, 0x00)\n      dup2\n      sload\n      dup2\n      0xffffffffffffffffffffffffffffffffffffffff\n      mul\n      not\n      and\n      swap1\n      dup4\n      0xffffffffffffffffffffffffffffffffffffffff\n      and\n      mul\n      or\n      swap1\n      sstore\n      pop\n      0x60\n      dup3\n      add\n      mload\n      dup2\n      0x03\n      add\n      sstore\n      swap1\n      pop\n      pop\n        /* \"main.sol\":2321:3416  {... */\n      pop\n      pop\n      pop\n        /* \"main.sol\":2251:3416  function bid(uint256 _poolId, uint256 _amount, uint256 _apr) external {... */\n      pop\n      pop\n      pop\n      jump\t// out\n        /* \"main.sol\":4204:4448  function cancel(uint256 _poolId) external onlyOwner(_poolId) {... */\n    tag_30:\n        /* \"main.sol\":4256:4263  _poolId */\n      dup1\n        /* \"main.sol\":1236:1246  msg.sender */\n      caller\n        /* \"main.sol\":1212:1246  loans[_poolId].owner == msg.sender */\n      0xffffffffffffffffffffffffffffffffffffffff\n      and\n        /* \"main.sol\":1212:1217  loans */\n      0x01\n        /* \"main.sol\":1212:1226  loans[_poolId] */\n      0x00\n        /* \"main.sol\":1218:1225  _poolId */\n      dup4\n        /* \"main.sol\":1212:1226  loans[_poolId] */\n      dup2\n      mstore\n      0x20\n      add\n      swap1\n      dup2\n      mstore\n      0x20\n      add\n      0x00\n      keccak256\n        /* \"main.sol\":1212:1232  loans[_poolId].owner */\n      0x00\n      add\n      0x00\n      swap1\n      sload\n      swap1\n      0x0100\n      exp\n      swap1\n      div\n      0xffffffffffffffffffffffffffffffffffffffff\n      and\n        /* \"main.sol\":1212:1246  loans[_poolId].owner == msg.sender */\n      0xffffffffffffffffffffffffffffffffffffffff\n      and\n      eq\n        /* \"main.sol\":1211:1297  (loans[_poolId].owner == msg.sender)... */\n      dup1\n      tag_111\n      jumpi\n      pop\n        /* \"main.sol\":1286:1296  msg.sender */\n      caller\n        /* \"main.sol\":1259:1296  loans[_poolId].operator == msg.sender */\n      0xffffffffffffffffffffffffffffffffffffffff\n      and\n        /* \"main.sol\":1259:1264  loans */\n      0x01\n        /* \"main.sol\":1259:1273  loans[_poolId] */\n      0x00\n        /* \"main.sol\":1265:1272  _poolId */\n      dup4\n        /* \"main.sol\":1259:1273  loans[_poolId] */\n      dup2\n      mstore\n      0x20\n      add\n      swap1\n      dup2\n      mstore\n      0x20\n      add\n      0x00\n      keccak256\n        /* \"main.sol\":1259:1282  loans[_poolId].operator */\n      0x02\n      add\n      0x00\n      swap1\n      sload\n      swap1\n      0x0100\n      exp\n      swap1\n      div\n      0xffffffffffffffffffffffffffffffffffffffff\n      and\n        /* \"main.sol\":1259:1296  loans[_poolId].operator == msg.sender */\n      0xffffffffffffffffffffffffffffffffffffffff\n      and\n      eq\n        /* \"main.sol\":1211:1297  (loans[_poolId].owner == msg.sender)... */\n    tag_111:\n        /* \"main.sol\":1203:1316  require((loans[_poolId].owner == msg.sender)... */\n      tag_112\n      jumpi\n      mload(0x40)\n      0x08c379a000000000000000000000000000000000000000000000000000000000\n      dup2\n      mstore\n      0x04\n      add\n      tag_113\n      swap1\n      tag_69\n      jump\t// in\n    tag_113:\n      mload(0x40)\n      dup1\n      swap2\n      sub\n      swap1\n      revert\n    tag_112:\n        /* \"main.sol\":4275:4291  Loan memory loan */\n      0x00\n        /* \"main.sol\":4294:4299  loans */\n      0x01\n        /* \"main.sol\":4294:4308  loans[_poolId] */\n      0x00\n        /* \"main.sol\":4300:4307  _poolId */\n      dup5\n        /* \"main.sol\":4294:4308  loans[_poolId] */\n      dup2\n      mstore\n      0x20\n      add\n      swap1\n      dup2\n      mstore\n      0x20\n      add\n      0x00\n      keccak256\n        /* \"main.sol\":4275:4308  Loan memory loan = loans[_poolId] */\n      mload(0x40)\n      dup1\n      0x0140\n      add\n      0x40\n      mstore\n      swap1\n      dup2\n      0x00\n      dup3\n      add\n      0x00\n      swap1\n      sload\n      swap1\n      0x0100\n      exp\n      swap1\n      div\n      0xffffffffffffffffffffffffffffffffffffffff\n      and\n      0xffffffffffffffffffffffffffffffffffffffff\n      and\n      0xffffffffffffffffffffffffffffffffffffffff\n      and\n      dup2\n      mstore\n      0x20\n      add\n      0x01\n      dup3\n      add\n      0x00\n      swap1\n      sload\n      swap1\n      0x0100\n      exp\n      swap1\n      div\n      0xffffffffffffffffffffffffffffffffffffffff\n      and\n      0xffffffffffffffffffffffffffffffffffffffff\n      and\n      0xffffffffffffffffffffffffffffffffffffffff\n      and\n      dup2\n      mstore\n      0x20\n      add\n      0x02\n      dup3\n      add\n      0x00\n      swap1\n      sload\n      swap1\n      0x0100\n      exp\n      swap1\n      div\n      0xffffffffffffffffffffffffffffffffffffffff\n      and\n      0xffffffffffffffffffffffffffffffffffffffff\n      and\n      0xffffffffffffffffffffffffffffffffffffffff\n      and\n      dup2\n      mstore\n      0x20\n      add\n      0x03\n      dup3\n      add\n      0x00\n      swap1\n      sload\n      swap1\n      0x0100\n      exp\n      swap1\n      div\n      0xffffffffffffffffffffffffffffffffffffffff\n      and\n      0xffffffffffffffffffffffffffffffffffffffff\n      and\n      0xffffffffffffffffffffffffffffffffffffffff\n      and\n      dup2\n      mstore\n      0x20\n      add\n      0x04\n      dup3\n      add\n      sload\n      dup2\n      mstore\n      0x20\n      add\n      0x05\n      dup3\n      add\n      sload\n      dup2\n      mstore\n      0x20\n      add\n      0x06\n      dup3\n      add\n      sload\n      dup2\n      mstore\n      0x20\n      add\n      0x07\n      dup3\n      add\n      sload\n      dup2\n      mstore\n      0x20\n      add\n      0x08\n      dup3\n      add\n      sload\n      dup2\n      mstore\n      0x20\n      add\n      0x09\n      dup3\n      add\n      0x00\n      swap1\n      sload\n      swap1\n      0x0100\n      exp\n      swap1\n      div\n      0xff\n      and\n      iszero\n      iszero\n      iszero\n      iszero\n      dup2\n      mstore\n      pop\n      pop\n      swap1\n      pop\n        /* \"main.sol\":4343:4358  block.timestamp */\n      timestamp\n        /* \"main.sol\":4326:4330  loan */\n      dup2\n        /* \"main.sol\":4326:4340  loan.startTime */\n      0xa0\n      add\n      mload\n        /* \"main.sol\":4326:4358  loan.startTime > block.timestamp */\n      gt\n        /* \"main.sol\":4318:4383  require(loan.startTime > block.timestamp, \"LAN: already started\") */\n      tag_115\n      jumpi\n      mload(0x40)\n      0x08c379a000000000000000000000000000000000000000000000000000000000\n      dup2\n      mstore\n      0x04\n      add\n      tag_116\n      swap1\n      tag_117\n      jump\t// in\n    tag_116:\n      mload(0x40)\n      dup1\n      swap2\n      sub\n      swap1\n      revert\n    tag_115:\n        /* \"main.sol\":4393:4404  delete loan */\n      tag_118\n      tag_119\n      jump\t// in\n    tag_118:\n      swap1\n      pop\n        /* \"main.sol\":4419:4441  loanCancelled(_poolId) */\n      0xfe785ef891129b084b1c5a30e4d88eb97c97822c024cc25d5f9d806b897512e0\n        /* \"main.sol\":4433:4440  _poolId */\n      dup4\n        /* \"main.sol\":4419:4441  loanCancelled(_poolId) */\n      mload(0x40)\n      tag_120\n      swap2\n      swap1\n      tag_19\n      jump\t// in\n    tag_120:\n      mload(0x40)\n      dup1\n      swap2\n      sub\n      swap1\n      log1\n        /* \"main.sol\":4265:4448  {... */\n      pop\n        /* \"main.sol\":4204:4448  function cancel(uint256 _poolId) external onlyOwner(_poolId) {... */\n      pop\n      pop\n      jump\t// out\n        /* \"main.sol\":5018:5451  function liquidate(uint256 _poolId) external {... */\n    tag_33:\n        /* \"main.sol\":5073:5089  Loan memory loan */\n      0x00\n        /* \"main.sol\":5092:5097  loans */\n      0x01\n        /* \"main.sol\":5092:5106  loans[_poolId] */\n      0x00\n        /* \"main.sol\":5098:5105  _poolId */\n      dup4\n        /* \"main.sol\":5092:5106  loans[_poolId] */\n      dup2\n      mstore\n      0x20\n      add\n      swap1\n      dup2\n      mstore\n      0x20\n      add\n      0x00\n      keccak256\n        /* \"main.sol\":5073:5106  Loan memory loan = loans[_poolId] */\n      mload(0x40)\n      dup1\n      0x0140\n      add\n      0x40\n      mstore\n      swap1\n      dup2\n      0x00\n      dup3\n      add\n      0x00\n      swap1\n      sload\n      swap1\n      0x0100\n      exp\n      swap1\n      div\n      0xffffffffffffffffffffffffffffffffffffffff\n      and\n      0xffffffffffffffffffffffffffffffffffffffff\n      and\n      0xffffffffffffffffffffffffffffffffffffffff\n      and\n      dup2\n      mstore\n      0x20\n      add\n      0x01\n      dup3\n      add\n      0x00\n      swap1\n      sload\n      swap1\n      0x0100\n      exp\n      swap1\n      div\n      0xffffffffffffffffffffffffffffffffffffffff\n      and\n      0xffffffffffffffffffffffffffffffffffffffff\n      and\n      0xffffffffffffffffffffffffffffffffffffffff\n      and\n      dup2\n      mstore\n      0x20\n      add\n      0x02\n      dup3\n      add\n      0x00\n      swap1\n      sload\n      swap1\n      0x0100\n      exp\n      swap1\n      div\n      0xffffffffffffffffffffffffffffffffffffffff\n      and\n      0xffffffffffffffffffffffffffffffffffffffff\n      and\n      0xffffffffffffffffffffffffffffffffffffffff\n      and\n      dup2\n      mstore\n      0x20\n      add\n      0x03\n      dup3\n      add\n      0x00\n      swap1\n      sload\n      swap1\n      0x0100\n      exp\n      swap1\n      div\n      0xffffffffffffffffffffffffffffffffffffffff\n      and\n      0xffffffffffffffffffffffffffffffffffffffff\n      and\n      0xffffffffffffffffffffffffffffffffffffffff\n      and\n      dup2\n      mstore\n      0x20\n      add\n      0x04\n      dup3\n      add\n      sload\n      dup2\n      mstore\n      0x20\n      add\n      0x05\n      dup3\n      add\n      sload\n      dup2\n      mstore\n      0x20\n      add\n      0x06\n      dup3\n      add\n      sload\n      dup2\n      mstore\n      0x20\n      add\n      0x07\n      dup3\n      add\n      sload\n      dup2\n      mstore\n      0x20\n      add\n      0x08\n      dup3\n      add\n      sload\n      dup2\n      mstore\n      0x20\n      add\n      0x09\n      dup3\n      add\n      0x00\n      swap1\n      sload\n      swap1\n      0x0100\n      exp\n      swap1\n      div\n      0xff\n      and\n      iszero\n      iszero\n      iszero\n      iszero\n      dup2\n      mstore\n      pop\n      pop\n      swap1\n      pop\n        /* \"main.sol\":5124:5139  _ended(_poolId) */\n      tag_122\n        /* \"main.sol\":5131:5138  _poolId */\n      dup3\n        /* \"main.sol\":5124:5130  _ended */\n      tag_83\n        /* \"main.sol\":5124:5139  _ended(_poolId) */\n      jump\t// in\n    tag_122:\n        /* \"main.sol\":5116:5163  require(_ended(_poolId), \"LAN: loan not ended\") */\n      tag_123\n      jumpi\n      mload(0x40)\n      0x08c379a000000000000000000000000000000000000000000000000000000000\n      dup2\n      mstore\n      0x04\n      add\n      tag_124\n      swap1\n      tag_125\n      jump\t// in\n    tag_124:\n      mload(0x40)\n      dup1\n      swap2\n      sub\n      swap1\n      revert\n    tag_123:\n        /* \"main.sol\":5173:5193  Bid memory latestBid */\n      0x00\n        /* \"main.sol\":5196:5200  bids */\n      0x02\n        /* \"main.sol\":5196:5209  bids[_poolId] */\n      0x00\n        /* \"main.sol\":5201:5208  _poolId */\n      dup5\n        /* \"main.sol\":5196:5209  bids[_poolId] */\n      dup2\n      mstore\n      0x20\n      add\n      swap1\n      dup2\n      mstore\n      0x20\n      add\n      0x00\n      keccak256\n        /* \"main.sol\":5196:5223  bids[_poolId][loan.numBids] */\n      0x00\n        /* \"main.sol\":5210:5214  loan */\n      dup4\n        /* \"main.sol\":5210:5222  loan.numBids */\n      0x0100\n      add\n      mload\n        /* \"main.sol\":5196:5223  bids[_poolId][loan.numBids] */\n      dup2\n      mstore\n      0x20\n      add\n      swap1\n      dup2\n      mstore\n      0x20\n      add\n      0x00\n      keccak256\n        /* \"main.sol\":5173:5223  Bid memory latestBid = bids[_poolId][loan.numBids] */\n      mload(0x40)\n      dup1\n      0x80\n      add\n      0x40\n      mstore\n      swap1\n      dup2\n      0x00\n      dup3\n      add\n      sload\n      dup2\n      mstore\n      0x20\n      add\n      0x01\n      dup3\n      add\n      sload\n      dup2\n      mstore\n      0x20\n      add\n      0x02\n      dup3\n      add\n      0x00\n      swap1\n      sload\n      swap1\n      0x0100\n      exp\n      swap1\n      div\n      0xffffffffffffffffffffffffffffffffffffffff\n      and\n      0xffffffffffffffffffffffffffffffffffffffff\n      and\n      0xffffffffffffffffffffffffffffffffffffffff\n      and\n      dup2\n      mstore\n      0x20\n      add\n      0x03\n      dup3\n      add\n      sload\n      dup2\n      mstore\n      pop\n      pop\n      swap1\n      pop\n        /* \"main.sol\":5259:5269  msg.sender */\n      caller\n        /* \"main.sol\":5241:5269  latestBid.user == msg.sender */\n      0xffffffffffffffffffffffffffffffffffffffff\n      and\n        /* \"main.sol\":5241:5250  latestBid */\n      dup2\n        /* \"main.sol\":5241:5255  latestBid.user */\n      0x40\n      add\n      mload\n        /* \"main.sol\":5241:5269  latestBid.user == msg.sender */\n      0xffffffffffffffffffffffffffffffffffffffff\n      and\n      eq\n        /* \"main.sol\":5233:5296  require(latestBid.user == msg.sender, \"LAN: not latest bidder\") */\n      tag_126\n      jumpi\n      mload(0x40)\n      0x08c379a000000000000000000000000000000000000000000000000000000000\n      dup2\n      mstore\n      0x04\n      add\n      tag_127\n      swap1\n      tag_128\n      jump\t// in\n    tag_127:\n      mload(0x40)\n      dup1\n      swap2\n      sub\n      swap1\n      revert\n    tag_126:\n        /* \"main.sol\":5330:5341  IERC721 NFT */\n      0x00\n        /* \"main.sol\":5352:5356  loan */\n      dup3\n        /* \"main.sol\":5352:5374  loan.collectionAddress */\n      0x60\n      add\n      mload\n        /* \"main.sol\":5330:5375  IERC721 NFT = IERC721(loan.collectionAddress) */\n      swap1\n      pop\n        /* \"main.sol\":5385:5388  NFT */\n      dup1\n        /* \"main.sol\":5385:5405  NFT.safeTransferFrom */\n      0xffffffffffffffffffffffffffffffffffffffff\n      and\n      0x42842e0e\n        /* \"main.sol\":5414:5418  this */\n      address\n        /* \"main.sol\":5421:5431  msg.sender */\n      caller\n        /* \"main.sol\":5433:5437  loan */\n      dup7\n        /* \"main.sol\":5433:5443  loan.nftId */\n      0x80\n      add\n      mload\n        /* \"main.sol\":5385:5444  NFT.safeTransferFrom(address(this), msg.sender, loan.nftId) */\n      mload(0x40)\n      dup5\n      0xffffffff\n      and\n      0xe0\n      shl\n      dup2\n      mstore\n      0x04\n      add\n      tag_129\n      swap4\n      swap3\n      swap2\n      swap1\n      tag_72\n      jump\t// in\n    tag_129:\n      0x00\n      mload(0x40)\n      dup1\n      dup4\n      sub\n      dup2\n      0x00\n      dup8\n      dup1\n      extcodesize\n      iszero\n      dup1\n      iszero\n      tag_130\n      jumpi\n      0x00\n      dup1\n      revert\n    tag_130:\n      pop\n      gas\n      call\n      iszero\n      dup1\n      iszero\n      tag_132\n      jumpi\n      returndatasize\n      0x00\n      dup1\n      returndatacopy\n      revert(0x00, returndatasize)\n    tag_132:\n      pop\n      pop\n      pop\n      pop\n        /* \"main.sol\":5063:5451  {... */\n      pop\n      pop\n      pop\n        /* \"main.sol\":5018:5451  function liquidate(uint256 _poolId) external {... */\n      pop\n      jump\t// out\n        /* \"main.sol\":4487:4964  function endLoan(uint256 _poolId) external onlyOwner(_poolId) {... */\n    tag_36:\n        /* \"main.sol\":4540:4547  _poolId */\n      dup1\n        /* \"main.sol\":1236:1246  msg.sender */\n      caller\n        /* \"main.sol\":1212:1246  loans[_poolId].owner == msg.sender */\n      0xffffffffffffffffffffffffffffffffffffffff\n      and\n        /* \"main.sol\":1212:1217  loans */\n      0x01\n        /* \"main.sol\":1212:1226  loans[_poolId] */\n      0x00\n        /* \"main.sol\":1218:1225  _poolId */\n      dup4\n        /* \"main.sol\":1212:1226  loans[_poolId] */\n      dup2\n      mstore\n      0x20\n      add\n      swap1\n      dup2\n      mstore\n      0x20\n      add\n      0x00\n      keccak256\n        /* \"main.sol\":1212:1232  loans[_poolId].owner */\n      0x00\n      add\n      0x00\n      swap1\n      sload\n      swap1\n      0x0100\n      exp\n      swap1\n      div\n      0xffffffffffffffffffffffffffffffffffffffff\n      and\n        /* \"main.sol\":1212:1246  loans[_poolId].owner == msg.sender */\n      0xffffffffffffffffffffffffffffffffffffffff\n      and\n      eq\n        /* \"main.sol\":1211:1297  (loans[_poolId].owner == msg.sender)... */\n      dup1\n      tag_134\n      jumpi\n      pop\n        /* \"main.sol\":1286:1296  msg.sender */\n      caller\n        /* \"main.sol\":1259:1296  loans[_poolId].operator == msg.sender */\n      0xffffffffffffffffffffffffffffffffffffffff\n      and\n        /* \"main.sol\":1259:1264  loans */\n      0x01\n        /* \"main.sol\":1259:1273  loans[_poolId] */\n      0x00\n        /* \"main.sol\":1265:1272  _poolId */\n      dup4\n        /* \"main.sol\":1259:1273  loans[_poolId] */\n      dup2\n      mstore\n      0x20\n      add\n      swap1\n      dup2\n      mstore\n      0x20\n      add\n      0x00\n      keccak256\n        /* \"main.sol\":1259:1282  loans[_poolId].operator */\n      0x02\n      add\n      0x00\n      swap1\n      sload\n      swap1\n      0x0100\n      exp\n      swap1\n      div\n      0xffffffffffffffffffffffffffffffffffffffff\n      and\n        /* \"main.sol\":1259:1296  loans[_poolId].operator == msg.sender */\n      0xffffffffffffffffffffffffffffffffffffffff\n      and\n      eq\n        /* \"main.sol\":1211:1297  (loans[_poolId].owner == msg.sender)... */\n    tag_134:\n        /* \"main.sol\":1203:1316  require((loans[_poolId].owner == msg.sender)... */\n      tag_135\n      jumpi\n      mload(0x40)\n      0x08c379a000000000000000000000000000000000000000000000000000000000\n      dup2\n      mstore\n      0x04\n      add\n      tag_136\n      swap1\n      tag_69\n      jump\t// in\n    tag_136:\n      mload(0x40)\n      dup1\n      swap2\n      sub\n      swap1\n      revert\n    tag_135:\n        /* \"main.sol\":4559:4575  Loan memory loan */\n      0x00\n        /* \"main.sol\":4578:4583  loans */\n      0x01\n        /* \"main.sol\":4578:4592  loans[_poolId] */\n      0x00\n        /* \"main.sol\":4584:4591  _poolId */\n      dup5\n        /* \"main.sol\":4578:4592  loans[_poolId] */\n      dup2\n      mstore\n      0x20\n      add\n      swap1\n      dup2\n      mstore\n      0x20\n      add\n      0x00\n      keccak256\n        /* \"main.sol\":4559:4592  Loan memory loan = loans[_poolId] */\n      mload(0x40)\n      dup1\n      0x0140\n      add\n      0x40\n      mstore\n      swap1\n      dup2\n      0x00\n      dup3\n      add\n      0x00\n      swap1\n      sload\n      swap1\n      0x0100\n      exp\n      swap1\n      div\n      0xffffffffffffffffffffffffffffffffffffffff\n      and\n      0xffffffffffffffffffffffffffffffffffffffff\n      and\n      0xffffffffffffffffffffffffffffffffffffffff\n      and\n      dup2\n      mstore\n      0x20\n      add\n      0x01\n      dup3\n      add\n      0x00\n      swap1\n      sload\n      swap1\n      0x0100\n      exp\n      swap1\n      div\n      0xffffffffffffffffffffffffffffffffffffffff\n      and\n      0xffffffffffffffffffffffffffffffffffffffff\n      and\n      0xffffffffffffffffffffffffffffffffffffffff\n      and\n      dup2\n      mstore\n      0x20\n      add\n      0x02\n      dup3\n      add\n      0x00\n      swap1\n      sload\n      swap1\n      0x0100\n      exp\n      swap1\n      div\n      0xffffffffffffffffffffffffffffffffffffffff\n      and\n      0xffffffffffffffffffffffffffffffffffffffff\n      and\n      0xffffffffffffffffffffffffffffffffffffffff\n      and\n      dup2\n      mstore\n      0x20\n      add\n      0x03\n      dup3\n      add\n      0x00\n      swap1\n      sload\n      swap1\n      0x0100\n      exp\n      swap1\n      div\n      0xffffffffffffffffffffffffffffffffffffffff\n      and\n      0xffffffffffffffffffffffffffffffffffffffff\n      and\n      0xffffffffffffffffffffffffffffffffffffffff\n      and\n      dup2\n      mstore\n      0x20\n      add\n      0x04\n      dup3\n      add\n      sload\n      dup2\n      mstore\n      0x20\n      add\n      0x05\n      dup3\n      add\n      sload\n      dup2\n      mstore\n      0x20\n      add\n      0x06\n      dup3\n      add\n      sload\n      dup2\n      mstore\n      0x20\n      add\n      0x07\n      dup3\n      add\n      sload\n      dup2\n      mstore\n      0x20\n      add\n      0x08\n      dup3\n      add\n      sload\n      dup2\n      mstore\n      0x20\n      add\n      0x09\n      dup3\n      add\n      0x00\n      swap1\n      sload\n      swap1\n      0x0100\n      exp\n      swap1\n      div\n      0xff\n      and\n      iszero\n      iszero\n      iszero\n      iszero\n      dup2\n      mstore\n      pop\n      pop\n      swap1\n      pop\n        /* \"main.sol\":4602:4622  Bid memory latestBid */\n      0x00\n        /* \"main.sol\":4625:4629  bids */\n      0x02\n        /* \"main.sol\":4625:4638  bids[_poolId] */\n      0x00\n        /* \"main.sol\":4630:4637  _poolId */\n      dup6\n        /* \"main.sol\":4625:4638  bids[_poolId] */\n      dup2\n      mstore\n      0x20\n      add\n      swap1\n      dup2\n      mstore\n      0x20\n      add\n      0x00\n      keccak256\n        /* \"main.sol\":4625:4652  bids[_poolId][loan.numBids] */\n      0x00\n        /* \"main.sol\":4639:4643  loan */\n      dup4\n        /* \"main.sol\":4639:4651  loan.numBids */\n      0x0100\n      add\n      mload\n        /* \"main.sol\":4625:4652  bids[_poolId][loan.numBids] */\n      dup2\n      mstore\n      0x20\n      add\n      swap1\n      dup2\n      mstore\n      0x20\n      add\n      0x00\n      keccak256\n        /* \"main.sol\":4602:4652  Bid memory latestBid = bids[_poolId][loan.numBids] */\n      mload(0x40)\n      dup1\n      0x80\n      add\n      0x40\n      mstore\n      swap1\n      dup2\n      0x00\n      dup3\n      add\n      sload\n      dup2\n      mstore\n      0x20\n      add\n      0x01\n      dup3\n      add\n      sload\n      dup2\n      mstore\n      0x20\n      add\n      0x02\n      dup3\n      add\n      0x00\n      swap1\n      sload\n      swap1\n      0x0100\n      exp\n      swap1\n      div\n      0xffffffffffffffffffffffffffffffffffffffff\n      and\n      0xffffffffffffffffffffffffffffffffffffffff\n      and\n      0xffffffffffffffffffffffffffffffffffffffff\n      and\n      dup2\n      mstore\n      0x20\n      add\n      0x03\n      dup3\n      add\n      sload\n      dup2\n      mstore\n      pop\n      pop\n      swap1\n      pop\n        /* \"main.sol\":4713:4717  loan */\n      dup2\n        /* \"main.sol\":4713:4723  loan.token */\n      0x20\n      add\n      mload\n        /* \"main.sol\":4706:4737  IERC20(loan.token).transferFrom */\n      0xffffffffffffffffffffffffffffffffffffffff\n      and\n      0x23b872dd\n        /* \"main.sol\":4738:4748  msg.sender */\n      caller\n        /* \"main.sol\":4750:4759  latestBid */\n      dup4\n        /* \"main.sol\":4750:4764  latestBid.user */\n      0x40\n      add\n      mload\n        /* \"main.sol\":4766:4794  _calculateLoanValue(_poolId) */\n      tag_138\n        /* \"main.sol\":4786:4793  _poolId */\n      dup9\n        /* \"main.sol\":4766:4785  _calculateLoanValue */\n      tag_95\n        /* \"main.sol\":4766:4794  _calculateLoanValue(_poolId) */\n      jump\t// in\n    tag_138:\n        /* \"main.sol\":4706:4795  IERC20(loan.token).transferFrom(msg.sender, latestBid.user, _calculateLoanValue(_poolId)) */\n      mload(0x40)\n      dup5\n      0xffffffff\n      and\n      0xe0\n      shl\n      dup2\n      mstore\n      0x04\n      add\n      tag_139\n      swap4\n      swap3\n      swap2\n      swap1\n      tag_72\n      jump\t// in\n    tag_139:\n      0x20\n      mload(0x40)\n      dup1\n      dup4\n      sub\n      dup2\n      0x00\n      dup8\n      gas\n      call\n      iszero\n      dup1\n      iszero\n      tag_141\n      jumpi\n      returndatasize\n      0x00\n      dup1\n      returndatacopy\n      revert(0x00, returndatasize)\n    tag_141:\n      pop\n      pop\n      pop\n      pop\n      mload(0x40)\n      returndatasize\n      not(0x1f)\n      0x1f\n      dup3\n      add\n      and\n      dup3\n      add\n      dup1\n      0x40\n      mstore\n      pop\n      dup2\n      add\n      swap1\n      tag_142\n      swap2\n      swap1\n      tag_103\n      jump\t// in\n    tag_142:\n      pop\n        /* \"main.sol\":4843:4854  IERC721 NFT */\n      0x00\n        /* \"main.sol\":4865:4869  loan */\n      dup3\n        /* \"main.sol\":4865:4887  loan.collectionAddress */\n      0x60\n      add\n      mload\n        /* \"main.sol\":4843:4888  IERC721 NFT = IERC721(loan.collectionAddress) */\n      swap1\n      pop\n        /* \"main.sol\":4898:4901  NFT */\n      dup1\n        /* \"main.sol\":4898:4918  NFT.safeTransferFrom */\n      0xffffffffffffffffffffffffffffffffffffffff\n      and\n      0x42842e0e\n        /* \"main.sol\":4927:4931  this */\n      address\n        /* \"main.sol\":4934:4944  msg.sender */\n      caller\n        /* \"main.sol\":4946:4950  loan */\n      dup7\n        /* \"main.sol\":4946:4956  loan.nftId */\n      0x80\n      add\n      mload\n        /* \"main.sol\":4898:4957  NFT.safeTransferFrom(address(this), msg.sender, loan.nftId) */\n      mload(0x40)\n      dup5\n      0xffffffff\n      and\n      0xe0\n      shl\n      dup2\n      mstore\n      0x04\n      add\n      tag_143\n      swap4\n      swap3\n      swap2\n      swap1\n      tag_72\n      jump\t// in\n    tag_143:\n      0x00\n      mload(0x40)\n      dup1\n      dup4\n      sub\n      dup2\n      0x00\n      dup8\n      dup1\n      extcodesize\n      iszero\n      dup1\n      iszero\n      tag_144\n      jumpi\n      0x00\n      dup1\n      revert\n    tag_144:\n      pop\n      gas\n      call\n      iszero\n      dup1\n      iszero\n      tag_146\n      jumpi\n      returndatasize\n      0x00\n      dup1\n      returndatacopy\n      revert(0x00, returndatasize)\n    tag_146:\n      pop\n      pop\n      pop\n      pop\n        /* \"main.sol\":4549:4964  {... */\n      pop\n      pop\n      pop\n        /* \"main.sol\":4487:4964  function endLoan(uint256 _poolId) external onlyOwner(_poolId) {... */\n      pop\n      pop\n      jump\t// out\n        /* \"main.sol\":865:920  mapping(uint256 => mapping(uint256 => Bid)) public bids */\n    tag_40:\n      mstore(0x20, 0x02)\n      dup2\n      0x00\n      mstore\n      mstore(0x20, keccak256(0x00, 0x40))\n      dup1\n      0x00\n      mstore\n      keccak256(0x00, 0x40)\n      0x00\n      swap2\n      pop\n      swap2\n      pop\n      pop\n      dup1\n      0x00\n      add\n      sload\n      swap1\n      dup1\n      0x01\n      add\n      sload\n      swap1\n      dup1\n      0x02\n      add\n      0x00\n      swap1\n      sload\n      swap1\n      0x0100\n      exp\n      swap1\n      div\n      0xffffffffffffffffffffffffffffffffffffffff\n      and\n      swap1\n      dup1\n      0x03\n      add\n      sload\n      swap1\n      pop\n      dup5\n      jump\t// out\n        /* \"main.sol\":3557:3968  function setNewBidOwner(uint256 _poolId, address _newAddress) external {... */\n    tag_46:\n        /* \"main.sol\":3646:3663  _started(_poolId) */\n      tag_148\n        /* \"main.sol\":3655:3662  _poolId */\n      dup3\n        /* \"main.sol\":3646:3654  _started */\n      tag_78\n        /* \"main.sol\":3646:3663  _started(_poolId) */\n      jump\t// in\n    tag_148:\n        /* \"main.sol\":3638:3684  require(_started(_poolId), \"LAN: not started\") */\n      tag_149\n      jumpi\n      mload(0x40)\n      0x08c379a000000000000000000000000000000000000000000000000000000000\n      dup2\n      mstore\n      0x04\n      add\n      tag_150\n      swap1\n      tag_81\n      jump\t// in\n    tag_150:\n      mload(0x40)\n      dup1\n      swap2\n      sub\n      swap1\n      revert\n    tag_149:\n        /* \"main.sol\":3703:3718  _ended(_poolId) */\n      tag_151\n        /* \"main.sol\":3710:3717  _poolId */\n      dup3\n        /* \"main.sol\":3703:3709  _ended */\n      tag_83\n        /* \"main.sol\":3703:3718  _ended(_poolId) */\n      jump\t// in\n    tag_151:\n        /* \"main.sol\":3702:3718  !_ended(_poolId) */\n      iszero\n        /* \"main.sol\":3694:3741  require(!_ended(_poolId), \"LAN: already ended\") */\n      tag_152\n      jumpi\n      mload(0x40)\n      0x08c379a000000000000000000000000000000000000000000000000000000000\n      dup2\n      mstore\n      0x04\n      add\n      tag_153\n      swap1\n      tag_86\n      jump\t// in\n    tag_153:\n      mload(0x40)\n      dup1\n      swap2\n      sub\n      swap1\n      revert\n    tag_152:\n        /* \"main.sol\":3752:3768  Loan memory loan */\n      0x00\n        /* \"main.sol\":3771:3776  loans */\n      0x01\n        /* \"main.sol\":3771:3785  loans[_poolId] */\n      0x00\n        /* \"main.sol\":3777:3784  _poolId */\n      dup5\n        /* \"main.sol\":3771:3785  loans[_poolId] */\n      dup2\n      mstore\n      0x20\n      add\n      swap1\n      dup2\n      mstore\n      0x20\n      add\n      0x00\n      keccak256\n        /* \"main.sol\":3752:3785  Loan memory loan = loans[_poolId] */\n      mload(0x40)\n      dup1\n      0x0140\n      add\n      0x40\n      mstore\n      swap1\n      dup2\n      0x00\n      dup3\n      add\n      0x00\n      swap1\n      sload\n      swap1\n      0x0100\n      exp\n      swap1\n      div\n      0xffffffffffffffffffffffffffffffffffffffff\n      and\n      0xffffffffffffffffffffffffffffffffffffffff\n      and\n      0xffffffffffffffffffffffffffffffffffffffff\n      and\n      dup2\n      mstore\n      0x20\n      add\n      0x01\n      dup3\n      add\n      0x00\n      swap1\n      sload\n      swap1\n      0x0100\n      exp\n      swap1\n      div\n      0xffffffffffffffffffffffffffffffffffffffff\n      and\n      0xffffffffffffffffffffffffffffffffffffffff\n      and\n      0xffffffffffffffffffffffffffffffffffffffff\n      and\n      dup2\n      mstore\n      0x20\n      add\n      0x02\n      dup3\n      add\n      0x00\n      swap1\n      sload\n      swap1\n      0x0100\n      exp\n      swap1\n      div\n      0xffffffffffffffffffffffffffffffffffffffff\n      and\n      0xffffffffffffffffffffffffffffffffffffffff\n      and\n      0xffffffffffffffffffffffffffffffffffffffff\n      and\n      dup2\n      mstore\n      0x20\n      add\n      0x03\n      dup3\n      add\n      0x00\n      swap1\n      sload\n      swap1\n      0x0100\n      exp\n      swap1\n      div\n      0xffffffffffffffffffffffffffffffffffffffff\n      and\n      0xffffffffffffffffffffffffffffffffffffffff\n      and\n      0xffffffffffffffffffffffffffffffffffffffff\n      and\n      dup2\n      mstore\n      0x20\n      add\n      0x04\n      dup3\n      add\n      sload\n      dup2\n      mstore\n      0x20\n      add\n      0x05\n      dup3\n      add\n      sload\n      dup2\n      mstore\n      0x20\n      add\n      0x06\n      dup3\n      add\n      sload\n      dup2\n      mstore\n      0x20\n      add\n      0x07\n      dup3\n      add\n      sload\n      dup2\n      mstore\n      0x20\n      add\n      0x08\n      dup3\n      add\n      sload\n      dup2\n      mstore\n      0x20\n      add\n      0x09\n      dup3\n      add\n      0x00\n      swap1\n      sload\n      swap1\n      0x0100\n      exp\n      swap1\n      div\n      0xff\n      and\n      iszero\n      iszero\n      iszero\n      iszero\n      dup2\n      mstore\n      pop\n      pop\n      swap1\n      pop\n        /* \"main.sol\":3795:3816  Bid storage latestBid */\n      0x00\n        /* \"main.sol\":3819:3823  bids */\n      0x02\n        /* \"main.sol\":3819:3832  bids[_poolId] */\n      0x00\n        /* \"main.sol\":3824:3831  _poolId */\n      dup6\n        /* \"main.sol\":3819:3832  bids[_poolId] */\n      dup2\n      mstore\n      0x20\n      add\n      swap1\n      dup2\n      mstore\n      0x20\n      add\n      0x00\n      keccak256\n        /* \"main.sol\":3819:3846  bids[_poolId][loan.numBids] */\n      0x00\n        /* \"main.sol\":3833:3837  loan */\n      dup4\n        /* \"main.sol\":3833:3845  loan.numBids */\n      0x0100\n      add\n      mload\n        /* \"main.sol\":3819:3846  bids[_poolId][loan.numBids] */\n      dup2\n      mstore\n      0x20\n      add\n      swap1\n      dup2\n      mstore\n      0x20\n      add\n      0x00\n      keccak256\n        /* \"main.sol\":3795:3846  Bid storage latestBid = bids[_poolId][loan.numBids] */\n      swap1\n      pop\n        /* \"main.sol\":3882:3892  msg.sender */\n      caller\n        /* \"main.sol\":3864:3892  latestBid.user == msg.sender */\n      0xffffffffffffffffffffffffffffffffffffffff\n      and\n        /* \"main.sol\":3864:3873  latestBid */\n      dup2\n        /* \"main.sol\":3864:3878  latestBid.user */\n      0x02\n      add\n      0x00\n      swap1\n      sload\n      swap1\n      0x0100\n      exp\n      swap1\n      div\n      0xffffffffffffffffffffffffffffffffffffffff\n      and\n        /* \"main.sol\":3864:3892  latestBid.user == msg.sender */\n      0xffffffffffffffffffffffffffffffffffffffff\n      and\n      eq\n        /* \"main.sol\":3856:3923  require(latestBid.user == msg.sender, \"LAN: Not the latest bidder\") */\n      tag_154\n      jumpi\n      mload(0x40)\n      0x08c379a000000000000000000000000000000000000000000000000000000000\n      dup2\n      mstore\n      0x04\n      add\n      tag_155\n      swap1\n      tag_156\n      jump\t// in\n    tag_155:\n      mload(0x40)\n      dup1\n      swap2\n      sub\n      swap1\n      revert\n    tag_154:\n        /* \"main.sol\":3950:3961  _newAddress */\n      dup3\n        /* \"main.sol\":3933:3942  latestBid */\n      dup2\n        /* \"main.sol\":3933:3947  latestBid.user */\n      0x02\n      add\n      0x00\n        /* \"main.sol\":3933:3961  latestBid.user = _newAddress */\n      0x0100\n      exp\n      dup2\n      sload\n      dup2\n      0xffffffffffffffffffffffffffffffffffffffff\n      mul\n      not\n      and\n      swap1\n      dup4\n      0xffffffffffffffffffffffffffffffffffffffff\n      and\n      mul\n      or\n      swap1\n      sstore\n      pop\n        /* \"main.sol\":3628:3968  {... */\n      pop\n      pop\n        /* \"main.sol\":3557:3968  function setNewBidOwner(uint256 _poolId, address _newAddress) external {... */\n      pop\n      pop\n      jump\t// out\n        /* \"main.sol\":1013:1085  mapping(uint256 => mapping(address => bool)) public whitelistedAddresses */\n    tag_49:\n      mstore(0x20, 0x03)\n      dup2\n      0x00\n      mstore\n      mstore(0x20, keccak256(0x00, 0x40))\n      dup1\n      0x00\n      mstore\n      keccak256(0x00, 0x40)\n      0x00\n      swap2\n      pop\n      swap2\n      pop\n      swap1\n      sload\n      swap1\n      0x0100\n      exp\n      swap1\n      div\n      0xff\n      and\n      dup2\n      jump\t// out\n        /* \"main.sol\":1341:2245  function launch(address _operator, address _token, address _collectionAddress, uint256 _nftId, uint256 _startTime, uint256 _endTime, bool _whitelisted) public {... */\n    tag_55:\n        /* \"main.sol\":1532:1547  block.timestamp */\n      timestamp\n        /* \"main.sol\":1518:1528  _startTime */\n      dup4\n        /* \"main.sol\":1518:1547  _startTime >= block.timestamp */\n      lt\n      iszero\n        /* \"main.sol\":1510:1575  require(_startTime >= block.timestamp, \"LAN: start time in past\") */\n      tag_158\n      jumpi\n      mload(0x40)\n      0x08c379a000000000000000000000000000000000000000000000000000000000\n      dup2\n      mstore\n      0x04\n      add\n      tag_159\n      swap1\n      tag_160\n      jump\t// in\n    tag_159:\n      mload(0x40)\n      dup1\n      swap2\n      sub\n      swap1\n      revert\n    tag_158:\n        /* \"main.sol\":1604:1614  _startTime */\n      dup3\n        /* \"main.sol\":1593:1601  _endTime */\n      dup3\n        /* \"main.sol\":1593:1614  _endTime > _startTime */\n      gt\n        /* \"main.sol\":1585:1639  require(_endTime > _startTime, \"LAN: start after end\") */\n      tag_161\n      jumpi\n      mload(0x40)\n      0x08c379a000000000000000000000000000000000000000000000000000000000\n      dup2\n      mstore\n      0x04\n      add\n      tag_162\n      swap1\n      tag_163\n      jump\t// in\n    tag_162:\n      mload(0x40)\n      dup1\n      swap2\n      sub\n      swap1\n      revert\n    tag_161:\n        /* \"main.sol\":1664:2114  Loan({... */\n      mload(0x40)\n      dup1\n      0x0140\n      add\n      0x40\n      mstore\n      dup1\n        /* \"main.sol\":1698:1716  _collectionAddress */\n      dup7\n        /* \"main.sol\":1690:1725  IERC721(_collectionAddress).ownerOf */\n      0xffffffffffffffffffffffffffffffffffffffff\n      and\n      0x6352211e\n        /* \"main.sol\":1726:1732  _nftId */\n      dup8\n        /* \"main.sol\":1690:1733  IERC721(_collectionAddress).ownerOf(_nftId) */\n      mload(0x40)\n      dup3\n      0xffffffff\n      and\n      0xe0\n      shl\n      dup2\n      mstore\n      0x04\n      add\n      tag_164\n      swap2\n      swap1\n      tag_19\n      jump\t// in\n    tag_164:\n      0x20\n      mload(0x40)\n      dup1\n      dup4\n      sub\n      dup2\n      dup7\n      gas\n      staticcall\n      iszero\n      dup1\n      iszero\n      tag_166\n      jumpi\n      returndatasize\n      0x00\n      dup1\n      returndatacopy\n      revert(0x00, returndatasize)\n    tag_166:\n      pop\n      pop\n      pop\n      pop\n      mload(0x40)\n      returndatasize\n      not(0x1f)\n      0x1f\n      dup3\n      add\n      and\n      dup3\n      add\n      dup1\n      0x40\n      mstore\n      pop\n      dup2\n      add\n      swap1\n      tag_167\n      swap2\n      swap1\n      tag_168\n      jump\t// in\n    tag_167:\n        /* \"main.sol\":1664:2114  Loan({... */\n      0xffffffffffffffffffffffffffffffffffffffff\n      and\n      dup2\n      mstore\n      0x20\n      add\n        /* \"main.sol\":1870:1876  _token */\n      dup8\n        /* \"main.sol\":1664:2114  Loan({... */\n      0xffffffffffffffffffffffffffffffffffffffff\n      and\n      dup2\n      mstore\n      0x20\n      add\n        /* \"main.sol\":1757:1766  _operator */\n      dup9\n        /* \"main.sol\":1664:2114  Loan({... */\n      0xffffffffffffffffffffffffffffffffffffffff\n      and\n      dup2\n      mstore\n      0x20\n      add\n        /* \"main.sol\":1909:1927  _collectionAddress */\n      dup7\n        /* \"main.sol\":1664:2114  Loan({... */\n      0xffffffffffffffffffffffffffffffffffffffff\n      and\n      dup2\n      mstore\n      0x20\n      add\n        /* \"main.sol\":1948:1954  _nftId */\n      dup6\n        /* \"main.sol\":1664:2114  Loan({... */\n      dup2\n      mstore\n      0x20\n      add\n        /* \"main.sol\":1979:1989  _startTime */\n      dup5\n        /* \"main.sol\":1664:2114  Loan({... */\n      dup2\n      mstore\n      0x20\n      add\n        /* \"main.sol\":2012:2020  _endTime */\n      dup4\n        /* \"main.sol\":1664:2114  Loan({... */\n      dup2\n      mstore\n      0x20\n      add\n        /* \"main.sol\":2039:2040  0 */\n      0x00\n        /* \"main.sol\":1664:2114  Loan({... */\n      dup2\n      mstore\n      0x20\n      add\n        /* \"main.sol\":2063:2064  0 */\n      0x00\n        /* \"main.sol\":1664:2114  Loan({... */\n      dup2\n      mstore\n      0x20\n      add\n        /* \"main.sol\":2091:2103  _whitelisted */\n      dup3\n        /* \"main.sol\":1664:2114  Loan({... */\n      iszero\n      iszero\n      dup2\n      mstore\n      pop\n        /* \"main.sol\":1649:1654  loans */\n      0x01\n        /* \"main.sol\":1649:1661  loans[count] */\n      0x00\n        /* \"main.sol\":1655:1660  count */\n      dup1\n      sload\n        /* \"main.sol\":1649:1661  loans[count] */\n      dup2\n      mstore\n      0x20\n      add\n      swap1\n      dup2\n      mstore\n      0x20\n      add\n      0x00\n      keccak256\n        /* \"main.sol\":1649:2114  loans[count] = Loan({... */\n      0x00\n      dup3\n      add\n      mload\n      dup2\n      0x00\n      add\n      exp(0x0100, 0x00)\n      dup2\n      sload\n      dup2\n      0xffffffffffffffffffffffffffffffffffffffff\n      mul\n      not\n      and\n      swap1\n      dup4\n      0xffffffffffffffffffffffffffffffffffffffff\n      and\n      mul\n      or\n      swap1\n      sstore\n      pop\n      0x20\n      dup3\n      add\n      mload\n      dup2\n      0x01\n      add\n      exp(0x0100, 0x00)\n      dup2\n      sload\n      dup2\n      0xffffffffffffffffffffffffffffffffffffffff\n      mul\n      not\n      and\n      swap1\n      dup4\n      0xffffffffffffffffffffffffffffffffffffffff\n      and\n      mul\n      or\n      swap1\n      sstore\n      pop\n      0x40\n      dup3\n      add\n      mload\n      dup2\n      0x02\n      add\n      exp(0x0100, 0x00)\n      dup2\n      sload\n      dup2\n      0xffffffffffffffffffffffffffffffffffffffff\n      mul\n      not\n      and\n      swap1\n      dup4\n      0xffffffffffffffffffffffffffffffffffffffff\n      and\n      mul\n      or\n      swap1\n      sstore\n      pop\n      0x60\n      dup3\n      add\n      mload\n      dup2\n      0x03\n      add\n      exp(0x0100, 0x00)\n      dup2\n      sload\n      dup2\n      0xffffffffffffffffffffffffffffffffffffffff\n      mul\n      not\n      and\n      swap1\n      dup4\n      0xffffffffffffffffffffffffffffffffffffffff\n      and\n      mul\n      or\n      swap1\n      sstore\n      pop\n      0x80\n      dup3\n      add\n      mload\n      dup2\n      0x04\n      add\n      sstore\n      0xa0\n      dup3\n      add\n      mload\n      dup2\n      0x05\n      add\n      sstore\n      0xc0\n      dup3\n      add\n      mload\n      dup2\n      0x06\n      add\n      sstore\n      0xe0\n      dup3\n      add\n      mload\n      dup2\n      0x07\n      add\n      sstore\n      0x0100\n      dup3\n      add\n      mload\n      dup2\n      0x08\n      add\n      sstore\n      0x0120\n      dup3\n      add\n      mload\n      dup2\n      0x09\n      add\n      exp(0x0100, 0x00)\n      dup2\n      sload\n      dup2\n      0xff\n      mul\n      not\n      and\n      swap1\n      dup4\n      iszero\n      iszero\n      mul\n      or\n      swap1\n      sstore\n      pop\n      swap1\n      pop\n      pop\n        /* \"main.sol\":2149:2164  block.timestamp */\n      timestamp\n        /* \"main.sol\":2124:2128  bids */\n      0x02\n        /* \"main.sol\":2124:2135  bids[count] */\n      0x00\n        /* \"main.sol\":2129:2134  count */\n      dup1\n      sload\n        /* \"main.sol\":2124:2135  bids[count] */\n      dup2\n      mstore\n      0x20\n      add\n      swap1\n      dup2\n      mstore\n      0x20\n      add\n      0x00\n      keccak256\n        /* \"main.sol\":2124:2138  bids[count][0] */\n      0x00\n        /* \"main.sol\":2136:2137  0 */\n      dup1\n        /* \"main.sol\":2124:2138  bids[count][0] */\n      dup2\n      mstore\n      0x20\n      add\n      swap1\n      dup2\n      mstore\n      0x20\n      add\n      0x00\n      keccak256\n        /* \"main.sol\":2124:2146  bids[count][0].bidTime */\n      0x00\n      add\n        /* \"main.sol\":2124:2164  bids[count][0].bidTime = block.timestamp */\n      dup2\n      swap1\n      sstore\n      pop\n        /* \"main.sol\":2187:2192  count */\n      sload(0x00)\n        /* \"main.sol\":2179:2221  newPool(count, _collectionAddress, _nftId) */\n      0xef8b2952c43462575e82711d0cc91169720a4589a9fa533d173e022437f5405e\n        /* \"main.sol\":2194:2212  _collectionAddress */\n      dup7\n        /* \"main.sol\":2214:2220  _nftId */\n      dup7\n        /* \"main.sol\":2179:2221  newPool(count, _collectionAddress, _nftId) */\n      mload(0x40)\n      tag_169\n      swap3\n      swap2\n      swap1\n      tag_170\n      jump\t// in\n    tag_169:\n      mload(0x40)\n      dup1\n      swap2\n      sub\n      swap1\n      log2\n        /* \"main.sol\":2231:2236  count */\n      0x00\n      dup1\n        /* \"main.sol\":2231:2238  count++ */\n      dup2\n      sload\n      dup1\n      swap3\n      swap2\n      swap1\n      tag_171\n      swap1\n      tag_172\n      jump\t// in\n    tag_171:\n      swap2\n      swap1\n      pop\n      sstore\n      pop\n        /* \"main.sol\":1341:2245  function launch(address _operator, address _token, address _collectionAddress, uint256 _nftId, uint256 _startTime, uint256 _endTime, bool _whitelisted) public {... */\n      pop\n      pop\n      pop\n      pop\n      pop\n      pop\n      pop\n      jump\t// out\n        /* \"main.sol\":680:717  mapping(uint256 => Loan) public loans */\n    tag_58:\n      mstore(0x20, 0x01)\n      dup1\n      0x00\n      mstore\n      keccak256(0x00, 0x40)\n      0x00\n      swap2\n      pop\n      swap1\n      pop\n      dup1\n      0x00\n      add\n      0x00\n      swap1\n      sload\n      swap1\n      0x0100\n      exp\n      swap1\n      div\n      0xffffffffffffffffffffffffffffffffffffffff\n      and\n      swap1\n      dup1\n      0x01\n      add\n      0x00\n      swap1\n      sload\n      swap1\n      0x0100\n      exp\n      swap1\n      div\n      0xffffffffffffffffffffffffffffffffffffffff\n      and\n      swap1\n      dup1\n      0x02\n      add\n      0x00\n      swap1\n      sload\n      swap1\n      0x0100\n      exp\n      swap1\n      div\n      0xffffffffffffffffffffffffffffffffffffffff\n      and\n      swap1\n      dup1\n      0x03\n      add\n      0x00\n      swap1\n      sload\n      swap1\n      0x0100\n      exp\n      swap1\n      div\n      0xffffffffffffffffffffffffffffffffffffffff\n      and\n      swap1\n      dup1\n      0x04\n      add\n      sload\n      swap1\n      dup1\n      0x05\n      add\n      sload\n      swap1\n      dup1\n      0x06\n      add\n      sload\n      swap1\n      dup1\n      0x07\n      add\n      sload\n      swap1\n      dup1\n      0x08\n      add\n      sload\n      swap1\n      dup1\n      0x09\n      add\n      0x00\n      swap1\n      sload\n      swap1\n      0x0100\n      exp\n      swap1\n      div\n      0xff\n      and\n      swap1\n      pop\n      dup11\n      jump\t// out\n        /* \"main.sol\":4001:4156  function changeWhitelist(uint256 _poolId, address _newAddress, bool _status) external {... */\n    tag_64:\n        /* \"main.sol\":4142:4149  _status */\n      dup1\n        /* \"main.sol\":4097:4117  whitelistedAddresses */\n      0x03\n        /* \"main.sol\":4097:4126  whitelistedAddresses[_poolId] */\n      0x00\n        /* \"main.sol\":4118:4125  _poolId */\n      dup6\n        /* \"main.sol\":4097:4126  whitelistedAddresses[_poolId] */\n      dup2\n      mstore\n      0x20\n      add\n      swap1\n      dup2\n      mstore\n      0x20\n      add\n      0x00\n      keccak256\n        /* \"main.sol\":4097:4139  whitelistedAddresses[_poolId][_newAddress] */\n      0x00\n        /* \"main.sol\":4127:4138  _newAddress */\n      dup5\n        /* \"main.sol\":4097:4139  whitelistedAddresses[_poolId][_newAddress] */\n      0xffffffffffffffffffffffffffffffffffffffff\n      and\n      0xffffffffffffffffffffffffffffffffffffffff\n      and\n      dup2\n      mstore\n      0x20\n      add\n      swap1\n      dup2\n      mstore\n      0x20\n      add\n      0x00\n      keccak256\n      0x00\n        /* \"main.sol\":4097:4149  whitelistedAddresses[_poolId][_newAddress] = _status */\n      0x0100\n      exp\n      dup2\n      sload\n      dup2\n      0xff\n      mul\n      not\n      and\n      swap1\n      dup4\n      iszero\n      iszero\n      mul\n      or\n      swap1\n      sstore\n      pop\n        /* \"main.sol\":4001:4156  function changeWhitelist(uint256 _poolId, address _newAddress, bool _status) external {... */\n      pop\n      pop\n      pop\n      jump\t// out\n        /* \"main.sol\":6657:6786  function _started(uint256 _poolId) internal view returns (bool){... */\n    tag_78:\n        /* \"main.sol\":6715:6719  bool */\n      0x00\n        /* \"main.sol\":6764:6779  block.timestamp */\n      timestamp\n        /* \"main.sol\":6737:6742  loans */\n      0x01\n        /* \"main.sol\":6737:6751  loans[_poolId] */\n      0x00\n        /* \"main.sol\":6743:6750  _poolId */\n      dup5\n        /* \"main.sol\":6737:6751  loans[_poolId] */\n      dup2\n      mstore\n      0x20\n      add\n      swap1\n      dup2\n      mstore\n      0x20\n      add\n      0x00\n      keccak256\n        /* \"main.sol\":6737:6761  loans[_poolId].startTime */\n      0x05\n      add\n      sload\n        /* \"main.sol\":6737:6779  loans[_poolId].startTime < block.timestamp */\n      lt\n        /* \"main.sol\":6730:6779  return loans[_poolId].startTime < block.timestamp */\n      swap1\n      pop\n        /* \"main.sol\":6657:6786  function _started(uint256 _poolId) internal view returns (bool){... */\n      swap2\n      swap1\n      pop\n      jump\t// out\n        /* \"main.sol\":6526:6652  function _ended(uint256 _poolId) internal view returns (bool){... */\n    tag_83:\n        /* \"main.sol\":6582:6586  bool */\n      0x00\n        /* \"main.sol\":6630:6645  block.timestamp */\n      timestamp\n        /* \"main.sol\":6604:6609  loans */\n      0x01\n        /* \"main.sol\":6604:6618  loans[_poolId] */\n      0x00\n        /* \"main.sol\":6610:6617  _poolId */\n      dup5\n        /* \"main.sol\":6604:6618  loans[_poolId] */\n      dup2\n      mstore\n      0x20\n      add\n      swap1\n      dup2\n      mstore\n      0x20\n      add\n      0x00\n      keccak256\n        /* \"main.sol\":6604:6626  loans[_poolId].endTime */\n      0x06\n      add\n      sload\n        /* \"main.sol\":6604:6645  loans[_poolId].endTime <= block.timestamp */\n      gt\n      iszero\n        /* \"main.sol\":6597:6645  return loans[_poolId].endTime <= block.timestamp */\n      swap1\n      pop\n        /* \"main.sol\":6526:6652  function _ended(uint256 _poolId) internal view returns (bool){... */\n      swap2\n      swap1\n      pop\n      jump\t// out\n        /* \"main.sol\":6002:6515  function _calculateLoanValue(uint256 _poolId) internal view returns (uint256){... */\n    tag_95:\n        /* \"main.sol\":6071:6078  uint256 */\n      0x00\n        /* \"main.sol\":6089:6105  Loan memory loan */\n      dup1\n        /* \"main.sol\":6108:6113  loans */\n      0x01\n        /* \"main.sol\":6108:6122  loans[_poolId] */\n      0x00\n        /* \"main.sol\":6114:6121  _poolId */\n      dup5\n        /* \"main.sol\":6108:6122  loans[_poolId] */\n      dup2\n      mstore\n      0x20\n      add\n      swap1\n      dup2\n      mstore\n      0x20\n      add\n      0x00\n      keccak256\n        /* \"main.sol\":6089:6122  Loan memory loan = loans[_poolId] */\n      mload(0x40)\n      dup1\n      0x0140\n      add\n      0x40\n      mstore\n      swap1\n      dup2\n      0x00\n      dup3\n      add\n      0x00\n      swap1\n      sload\n      swap1\n      0x0100\n      exp\n      swap1\n      div\n      0xffffffffffffffffffffffffffffffffffffffff\n      and\n      0xffffffffffffffffffffffffffffffffffffffff\n      and\n      0xffffffffffffffffffffffffffffffffffffffff\n      and\n      dup2\n      mstore\n      0x20\n      add\n      0x01\n      dup3\n      add\n      0x00\n      swap1\n      sload\n      swap1\n      0x0100\n      exp\n      swap1\n      div\n      0xffffffffffffffffffffffffffffffffffffffff\n      and\n      0xffffffffffffffffffffffffffffffffffffffff\n      and\n      0xffffffffffffffffffffffffffffffffffffffff\n      and\n      dup2\n      mstore\n      0x20\n      add\n      0x02\n      dup3\n      add\n      0x00\n      swap1\n      sload\n      swap1\n      0x0100\n      exp\n      swap1\n      div\n      0xffffffffffffffffffffffffffffffffffffffff\n      and\n      0xffffffffffffffffffffffffffffffffffffffff\n      and\n      0xffffffffffffffffffffffffffffffffffffffff\n      and\n      dup2\n      mstore\n      0x20\n      add\n      0x03\n      dup3\n      add\n      0x00\n      swap1\n      sload\n      swap1\n      0x0100\n      exp\n      swap1\n      div\n      0xffffffffffffffffffffffffffffffffffffffff\n      and\n      0xffffffffffffffffffffffffffffffffffffffff\n      and\n      0xffffffffffffffffffffffffffffffffffffffff\n      and\n      dup2\n      mstore\n      0x20\n      add\n      0x04\n      dup3\n      add\n      sload\n      dup2\n      mstore\n      0x20\n      add\n      0x05\n      dup3\n      add\n      sload\n      dup2\n      mstore\n      0x20\n      add\n      0x06\n      dup3\n      add\n      sload\n      dup2\n      mstore\n      0x20\n      add\n      0x07\n      dup3\n      add\n      sload\n      dup2\n      mstore\n      0x20\n      add\n      0x08\n      dup3\n      add\n      sload\n      dup2\n      mstore\n      0x20\n      add\n      0x09\n      dup3\n      add\n      0x00\n      swap1\n      sload\n      swap1\n      0x0100\n      exp\n      swap1\n      div\n      0xff\n      and\n      iszero\n      iszero\n      iszero\n      iszero\n      dup2\n      mstore\n      pop\n      pop\n      swap1\n      pop\n        /* \"main.sol\":6132:6152  Bid memory latestBid */\n      0x00\n        /* \"main.sol\":6155:6159  bids */\n      0x02\n        /* \"main.sol\":6155:6168  bids[_poolId] */\n      0x00\n        /* \"main.sol\":6160:6167  _poolId */\n      dup6\n        /* \"main.sol\":6155:6168  bids[_poolId] */\n      dup2\n      mstore\n      0x20\n      add\n      swap1\n      dup2\n      mstore\n      0x20\n      add\n      0x00\n      keccak256\n        /* \"main.sol\":6155:6182  bids[_poolId][loan.numBids] */\n      0x00\n        /* \"main.sol\":6169:6173  loan */\n      dup4\n        /* \"main.sol\":6169:6181  loan.numBids */\n      0x0100\n      add\n      mload\n        /* \"main.sol\":6155:6182  bids[_poolId][loan.numBids] */\n      dup2\n      mstore\n      0x20\n      add\n      swap1\n      dup2\n      mstore\n      0x20\n      add\n      0x00\n      keccak256\n        /* \"main.sol\":6132:6182  Bid memory latestBid = bids[_poolId][loan.numBids] */\n      mload(0x40)\n      dup1\n      0x80\n      add\n      0x40\n      mstore\n      swap1\n      dup2\n      0x00\n      dup3\n      add\n      sload\n      dup2\n      mstore\n      0x20\n      add\n      0x01\n      dup3\n      add\n      sload\n      dup2\n      mstore\n      0x20\n      add\n      0x02\n      dup3\n      add\n      0x00\n      swap1\n      sload\n      swap1\n      0x0100\n      exp\n      swap1\n      div\n      0xffffffffffffffffffffffffffffffffffffffff\n      and\n      0xffffffffffffffffffffffffffffffffffffffff\n      and\n      0xffffffffffffffffffffffffffffffffffffffff\n      and\n      dup2\n      mstore\n      0x20\n      add\n      0x03\n      dup3\n      add\n      sload\n      dup2\n      mstore\n      pop\n      pop\n      swap1\n      pop\n        /* \"main.sol\":6192:6211  uint256 timeElapsed */\n      0x00\n        /* \"main.sol\":6224:6239  _ended(_poolId) */\n      tag_177\n        /* \"main.sol\":6231:6238  _poolId */\n      dup6\n        /* \"main.sol\":6224:6230  _ended */\n      tag_83\n        /* \"main.sol\":6224:6239  _ended(_poolId) */\n      jump\t// in\n    tag_177:\n        /* \"main.sol\":6221:6393  if(_ended(_poolId)){... */\n      iszero\n      tag_178\n      jumpi\n        /* \"main.sol\":6289:6293  loan */\n      dup3\n        /* \"main.sol\":6289:6301  loan.endTime */\n      0xc0\n      add\n      mload\n        /* \"main.sol\":6269:6278  latestBid */\n      dup3\n        /* \"main.sol\":6269:6286  latestBid.bidTime */\n      0x00\n      add\n      mload\n        /* \"main.sol\":6269:6301  latestBid.bidTime - loan.endTime */\n      tag_179\n      swap2\n      swap1\n      tag_105\n      jump\t// in\n    tag_179:\n        /* \"main.sol\":6254:6301  timeElapsed =  latestBid.bidTime - loan.endTime */\n      swap1\n      pop\n        /* \"main.sol\":6221:6393  if(_ended(_poolId)){... */\n      jump(tag_180)\n    tag_178:\n        /* \"main.sol\":6367:6382  block.timestamp */\n      timestamp\n        /* \"main.sol\":6347:6356  latestBid */\n      dup3\n        /* \"main.sol\":6347:6364  latestBid.bidTime */\n      0x00\n      add\n      mload\n        /* \"main.sol\":6347:6382  latestBid.bidTime - block.timestamp */\n      tag_181\n      swap2\n      swap1\n      tag_105\n      jump\t// in\n    tag_181:\n        /* \"main.sol\":6332:6382  timeElapsed =  latestBid.bidTime - block.timestamp */\n      swap1\n      pop\n        /* \"main.sol\":6221:6393  if(_ended(_poolId)){... */\n    tag_180:\n        /* \"main.sol\":1139:1151  60*60*24*365 */\n      0x01e13380\n        /* \"main.sol\":6475:6486  timeElapsed */\n      dup2\n        /* \"main.sol\":6464:6472  10 ** 18 */\n      0x0de0b6b3a7640000\n        /* \"main.sol\":6453:6457  loan */\n      dup6\n        /* \"main.sol\":6453:6461  loan.apr */\n      0xe0\n      add\n      mload\n        /* \"main.sol\":6431:6440  latestBid */\n      dup6\n        /* \"main.sol\":6431:6450  latestBid.bidAmount */\n      0x20\n      add\n      mload\n        /* \"main.sol\":6431:6461  latestBid.bidAmount * loan.apr */\n      tag_182\n      swap2\n      swap1\n      tag_183\n      jump\t// in\n    tag_182:\n        /* \"main.sol\":6431:6472  latestBid.bidAmount * loan.apr / 10 ** 18 */\n      tag_184\n      swap2\n      swap1\n      tag_185\n      jump\t// in\n    tag_184:\n        /* \"main.sol\":6431:6486  latestBid.bidAmount * loan.apr / 10 ** 18 * timeElapsed */\n      tag_186\n      swap2\n      swap1\n      tag_183\n      jump\t// in\n    tag_186:\n        /* \"main.sol\":6431:6508  latestBid.bidAmount * loan.apr / 10 ** 18 * timeElapsed / SECONDS_IN_ONE_YEAR */\n      tag_187\n      swap2\n      swap1\n      tag_185\n      jump\t// in\n    tag_187:\n        /* \"main.sol\":6409:6418  latestBid */\n      dup3\n        /* \"main.sol\":6409:6428  latestBid.bidAmount */\n      0x20\n      add\n      mload\n        /* \"main.sol\":6409:6508  latestBid.bidAmount + latestBid.bidAmount * loan.apr / 10 ** 18 * timeElapsed / SECONDS_IN_ONE_YEAR */\n      tag_188\n      swap2\n      swap1\n      tag_93\n      jump\t// in\n    tag_188:\n        /* \"main.sol\":6402:6508  return latestBid.bidAmount + latestBid.bidAmount * loan.apr / 10 ** 18 * timeElapsed / SECONDS_IN_ONE_YEAR */\n      swap4\n      pop\n      pop\n      pop\n      pop\n        /* \"main.sol\":6002:6515  function _calculateLoanValue(uint256 _poolId) internal view returns (uint256){... */\n      swap2\n      swap1\n      pop\n      jump\t// out\n    tag_119:\n      mload(0x40)\n      dup1\n      0x0140\n      add\n      0x40\n      mstore\n      dup1\n      and(0xffffffffffffffffffffffffffffffffffffffff, 0x00)\n      dup2\n      mstore\n      0x20\n      add\n      and(0xffffffffffffffffffffffffffffffffffffffff, 0x00)\n      dup2\n      mstore\n      0x20\n      add\n      and(0xffffffffffffffffffffffffffffffffffffffff, 0x00)\n      dup2\n      mstore\n      0x20\n      add\n      and(0xffffffffffffffffffffffffffffffffffffffff, 0x00)\n      dup2\n      mstore\n      0x20\n      add\n      0x00\n      dup2\n      mstore\n      0x20\n      add\n      0x00\n      dup2\n      mstore\n      0x20\n      add\n      0x00\n      dup2\n      mstore\n      0x20\n      add\n      0x00\n      dup2\n      mstore\n      0x20\n      add\n      0x00\n      dup2\n      mstore\n      0x20\n      add\n      iszero(iszero(0x00))\n      dup2\n      mstore\n      pop\n      swap1\n      jump\t// out\n        /* \"#utility.yul\":7:84   */\n    tag_189:\n        /* \"#utility.yul\":44:51   */\n      0x00\n        /* \"#utility.yul\":73:78   */\n      dup2\n        /* \"#utility.yul\":62:78   */\n      swap1\n      pop\n        /* \"#utility.yul\":7:84   */\n      swap2\n      swap1\n      pop\n      jump\t// out\n        /* \"#utility.yul\":90:208   */\n    tag_190:\n        /* \"#utility.yul\":177:201   */\n      tag_235\n        /* \"#utility.yul\":195:200   */\n      dup2\n        /* \"#utility.yul\":177:201   */\n      tag_189\n      jump\t// in\n    tag_235:\n        /* \"#utility.yul\":172:175   */\n      dup3\n        /* \"#utility.yul\":165:202   */\n      mstore\n        /* \"#utility.yul\":90:208   */\n      pop\n      pop\n      jump\t// out\n        /* \"#utility.yul\":214:436   */\n    tag_19:\n        /* \"#utility.yul\":307:311   */\n      0x00\n        /* \"#utility.yul\":345:347   */\n      0x20\n        /* \"#utility.yul\":334:343   */\n      dup3\n        /* \"#utility.yul\":330:348   */\n      add\n        /* \"#utility.yul\":322:348   */\n      swap1\n      pop\n        /* \"#utility.yul\":358:429   */\n      tag_237\n        /* \"#utility.yul\":426:427   */\n      0x00\n        /* \"#utility.yul\":415:424   */\n      dup4\n        /* \"#utility.yul\":411:428   */\n      add\n        /* \"#utility.yul\":402:408   */\n      dup5\n        /* \"#utility.yul\":358:429   */\n      tag_190\n      jump\t// in\n    tag_237:\n        /* \"#utility.yul\":214:436   */\n      swap3\n      swap2\n      pop\n      pop\n      jump\t// out\n        /* \"#utility.yul\":523:640   */\n    tag_192:\n        /* \"#utility.yul\":632:633   */\n      0x00\n        /* \"#utility.yul\":629:630   */\n      dup1\n        /* \"#utility.yul\":622:634   */\n      revert\n        /* \"#utility.yul\":769:891   */\n    tag_194:\n        /* \"#utility.yul\":842:866   */\n      tag_242\n        /* \"#utility.yul\":860:865   */\n      dup2\n        /* \"#utility.yul\":842:866   */\n      tag_189\n      jump\t// in\n    tag_242:\n        /* \"#utility.yul\":835:840   */\n      dup2\n        /* \"#utility.yul\":832:867   */\n      eq\n        /* \"#utility.yul\":822:885   */\n      tag_243\n      jumpi\n        /* \"#utility.yul\":881:882   */\n      0x00\n        /* \"#utility.yul\":878:879   */\n      dup1\n        /* \"#utility.yul\":871:883   */\n      revert\n        /* \"#utility.yul\":822:885   */\n    tag_243:\n        /* \"#utility.yul\":769:891   */\n      pop\n      jump\t// out\n        /* \"#utility.yul\":897:1036   */\n    tag_195:\n        /* \"#utility.yul\":943:948   */\n      0x00\n        /* \"#utility.yul\":981:987   */\n      dup2\n        /* \"#utility.yul\":968:988   */\n      calldataload\n        /* \"#utility.yul\":959:988   */\n      swap1\n      pop\n        /* \"#utility.yul\":997:1030   */\n      tag_245\n        /* \"#utility.yul\":1024:1029   */\n      dup2\n        /* \"#utility.yul\":997:1030   */\n      tag_194\n      jump\t// in\n    tag_245:\n        /* \"#utility.yul\":897:1036   */\n      swap3\n      swap2\n      pop\n      pop\n      jump\t// out\n        /* \"#utility.yul\":1042:1371   */\n    tag_22:\n        /* \"#utility.yul\":1101:1107   */\n      0x00\n        /* \"#utility.yul\":1150:1152   */\n      0x20\n        /* \"#utility.yul\":1138:1147   */\n      dup3\n        /* \"#utility.yul\":1129:1136   */\n      dup5\n        /* \"#utility.yul\":1125:1148   */\n      sub\n        /* \"#utility.yul\":1121:1153   */\n      slt\n        /* \"#utility.yul\":1118:1237   */\n      iszero\n      tag_247\n      jumpi\n        /* \"#utility.yul\":1156:1235   */\n      tag_248\n      tag_192\n      jump\t// in\n    tag_248:\n        /* \"#utility.yul\":1118:1237   */\n    tag_247:\n        /* \"#utility.yul\":1276:1277   */\n      0x00\n        /* \"#utility.yul\":1301:1354   */\n      tag_249\n        /* \"#utility.yul\":1346:1353   */\n      dup5\n        /* \"#utility.yul\":1337:1343   */\n      dup3\n        /* \"#utility.yul\":1326:1335   */\n      dup6\n        /* \"#utility.yul\":1322:1344   */\n      add\n        /* \"#utility.yul\":1301:1354   */\n      tag_195\n      jump\t// in\n    tag_249:\n        /* \"#utility.yul\":1291:1354   */\n      swap2\n      pop\n        /* \"#utility.yul\":1247:1364   */\n      pop\n        /* \"#utility.yul\":1042:1371   */\n      swap3\n      swap2\n      pop\n      pop\n      jump\t// out\n        /* \"#utility.yul\":1377:1996   */\n    tag_26:\n        /* \"#utility.yul\":1454:1460   */\n      0x00\n        /* \"#utility.yul\":1462:1468   */\n      dup1\n        /* \"#utility.yul\":1470:1476   */\n      0x00\n        /* \"#utility.yul\":1519:1521   */\n      0x60\n        /* \"#utility.yul\":1507:1516   */\n      dup5\n        /* \"#utility.yul\":1498:1505   */\n      dup7\n        /* \"#utility.yul\":1494:1517   */\n      sub\n        /* \"#utility.yul\":1490:1522   */\n      slt\n        /* \"#utility.yul\":1487:1606   */\n      iszero\n      tag_251\n      jumpi\n        /* \"#utility.yul\":1525:1604   */\n      tag_252\n      tag_192\n      jump\t// in\n    tag_252:\n        /* \"#utility.yul\":1487:1606   */\n    tag_251:\n        /* \"#utility.yul\":1645:1646   */\n      0x00\n        /* \"#utility.yul\":1670:1723   */\n      tag_253\n        /* \"#utility.yul\":1715:1722   */\n      dup7\n        /* \"#utility.yul\":1706:1712   */\n      dup3\n        /* \"#utility.yul\":1695:1704   */\n      dup8\n        /* \"#utility.yul\":1691:1713   */\n      add\n        /* \"#utility.yul\":1670:1723   */\n      tag_195\n      jump\t// in\n    tag_253:\n        /* \"#utility.yul\":1660:1723   */\n      swap4\n      pop\n        /* \"#utility.yul\":1616:1733   */\n      pop\n        /* \"#utility.yul\":1772:1774   */\n      0x20\n        /* \"#utility.yul\":1798:1851   */\n      tag_254\n        /* \"#utility.yul\":1843:1850   */\n      dup7\n        /* \"#utility.yul\":1834:1840   */\n      dup3\n        /* \"#utility.yul\":1823:1832   */\n      dup8\n        /* \"#utility.yul\":1819:1841   */\n      add\n        /* \"#utility.yul\":1798:1851   */\n      tag_195\n      jump\t// in\n    tag_254:\n        /* \"#utility.yul\":1788:1851   */\n      swap3\n      pop\n        /* \"#utility.yul\":1743:1861   */\n      pop\n        /* \"#utility.yul\":1900:1902   */\n      0x40\n        /* \"#utility.yul\":1926:1979   */\n      tag_255\n        /* \"#utility.yul\":1971:1978   */\n      dup7\n        /* \"#utility.yul\":1962:1968   */\n      dup3\n        /* \"#utility.yul\":1951:1960   */\n      dup8\n        /* \"#utility.yul\":1947:1969   */\n      add\n        /* \"#utility.yul\":1926:1979   */\n      tag_195\n      jump\t// in\n    tag_255:\n        /* \"#utility.yul\":1916:1979   */\n      swap2\n      pop\n        /* \"#utility.yul\":1871:1989   */\n      pop\n        /* \"#utility.yul\":1377:1996   */\n      swap3\n      pop\n      swap3\n      pop\n      swap3\n      jump\t// out\n        /* \"#utility.yul\":2002:2476   */\n    tag_39:\n        /* \"#utility.yul\":2070:2076   */\n      0x00\n        /* \"#utility.yul\":2078:2084   */\n      dup1\n        /* \"#utility.yul\":2127:2129   */\n      0x40\n        /* \"#utility.yul\":2115:2124   */\n      dup4\n        /* \"#utility.yul\":2106:2113   */\n      dup6\n        /* \"#utility.yul\":2102:2125   */\n      sub\n        /* \"#utility.yul\":2098:2130   */\n      slt\n        /* \"#utility.yul\":2095:2214   */\n      iszero\n      tag_257\n      jumpi\n        /* \"#utility.yul\":2133:2212   */\n      tag_258\n      tag_192\n      jump\t// in\n    tag_258:\n        /* \"#utility.yul\":2095:2214   */\n    tag_257:\n        /* \"#utility.yul\":2253:2254   */\n      0x00\n        /* \"#utility.yul\":2278:2331   */\n      tag_259\n        /* \"#utility.yul\":2323:2330   */\n      dup6\n        /* \"#utility.yul\":2314:2320   */\n      dup3\n        /* \"#utility.yul\":2303:2312   */\n      dup7\n        /* \"#utility.yul\":2299:2321   */\n      add\n        /* \"#utility.yul\":2278:2331   */\n      tag_195\n      jump\t// in\n    tag_259:\n        /* \"#utility.yul\":2268:2331   */\n      swap3\n      pop\n        /* \"#utility.yul\":2224:2341   */\n      pop\n        /* \"#utility.yul\":2380:2382   */\n      0x20\n        /* \"#utility.yul\":2406:2459   */\n      tag_260\n        /* \"#utility.yul\":2451:2458   */\n      dup6\n        /* \"#utility.yul\":2442:2448   */\n      dup3\n        /* \"#utility.yul\":2431:2440   */\n      dup7\n        /* \"#utility.yul\":2427:2449   */\n      add\n        /* \"#utility.yul\":2406:2459   */\n      tag_195\n      jump\t// in\n    tag_260:\n        /* \"#utility.yul\":2396:2459   */\n      swap2\n      pop\n        /* \"#utility.yul\":2351:2469   */\n      pop\n        /* \"#utility.yul\":2002:2476   */\n      swap3\n      pop\n      swap3\n      swap1\n      pop\n      jump\t// out\n        /* \"#utility.yul\":2482:2608   */\n    tag_196:\n        /* \"#utility.yul\":2519:2526   */\n      0x00\n        /* \"#utility.yul\":2559:2601   */\n      0xffffffffffffffffffffffffffffffffffffffff\n        /* \"#utility.yul\":2552:2557   */\n      dup3\n        /* \"#utility.yul\":2548:2602   */\n      and\n        /* \"#utility.yul\":2537:2602   */\n      swap1\n      pop\n        /* \"#utility.yul\":2482:2608   */\n      swap2\n      swap1\n      pop\n      jump\t// out\n        /* \"#utility.yul\":2614:2710   */\n    tag_197:\n        /* \"#utility.yul\":2651:2658   */\n      0x00\n        /* \"#utility.yul\":2680:2704   */\n      tag_263\n        /* \"#utility.yul\":2698:2703   */\n      dup3\n        /* \"#utility.yul\":2680:2704   */\n      tag_196\n      jump\t// in\n    tag_263:\n        /* \"#utility.yul\":2669:2704   */\n      swap1\n      pop\n        /* \"#utility.yul\":2614:2710   */\n      swap2\n      swap1\n      pop\n      jump\t// out\n        /* \"#utility.yul\":2716:2834   */\n    tag_198:\n        /* \"#utility.yul\":2803:2827   */\n      tag_265\n        /* \"#utility.yul\":2821:2826   */\n      dup2\n        /* \"#utility.yul\":2803:2827   */\n      tag_197\n      jump\t// in\n    tag_265:\n        /* \"#utility.yul\":2798:2801   */\n      dup3\n        /* \"#utility.yul\":2791:2828   */\n      mstore\n        /* \"#utility.yul\":2716:2834   */\n      pop\n      pop\n      jump\t// out\n        /* \"#utility.yul\":2840:3393   */\n    tag_42:\n        /* \"#utility.yul\":3017:3021   */\n      0x00\n        /* \"#utility.yul\":3055:3058   */\n      0x80\n        /* \"#utility.yul\":3044:3053   */\n      dup3\n        /* \"#utility.yul\":3040:3059   */\n      add\n        /* \"#utility.yul\":3032:3059   */\n      swap1\n      pop\n        /* \"#utility.yul\":3069:3140   */\n      tag_267\n        /* \"#utility.yul\":3137:3138   */\n      0x00\n        /* \"#utility.yul\":3126:3135   */\n      dup4\n        /* \"#utility.yul\":3122:3139   */\n      add\n        /* \"#utility.yul\":3113:3119   */\n      dup8\n        /* \"#utility.yul\":3069:3140   */\n      tag_190\n      jump\t// in\n    tag_267:\n        /* \"#utility.yul\":3150:3222   */\n      tag_268\n        /* \"#utility.yul\":3218:3220   */\n      0x20\n        /* \"#utility.yul\":3207:3216   */\n      dup4\n        /* \"#utility.yul\":3203:3221   */\n      add\n        /* \"#utility.yul\":3194:3200   */\n      dup7\n        /* \"#utility.yul\":3150:3222   */\n      tag_190\n      jump\t// in\n    tag_268:\n        /* \"#utility.yul\":3232:3304   */\n      tag_269\n        /* \"#utility.yul\":3300:3302   */\n      0x40\n        /* \"#utility.yul\":3289:3298   */\n      dup4\n        /* \"#utility.yul\":3285:3303   */\n      add\n        /* \"#utility.yul\":3276:3282   */\n      dup6\n        /* \"#utility.yul\":3232:3304   */\n      tag_198\n      jump\t// in\n    tag_269:\n        /* \"#utility.yul\":3314:3386   */\n      tag_270\n        /* \"#utility.yul\":3382:3384   */\n      0x60\n        /* \"#utility.yul\":3371:3380   */\n      dup4\n        /* \"#utility.yul\":3367:3385   */\n      add\n        /* \"#utility.yul\":3358:3364   */\n      dup5\n        /* \"#utility.yul\":3314:3386   */\n      tag_190\n      jump\t// in\n    tag_270:\n        /* \"#utility.yul\":2840:3393   */\n      swap6\n      swap5\n      pop\n      pop\n      pop\n      pop\n      pop\n      jump\t// out\n        /* \"#utility.yul\":3399:3521   */\n    tag_199:\n        /* \"#utility.yul\":3472:3496   */\n      tag_272\n        /* \"#utility.yul\":3490:3495   */\n      dup2\n        /* \"#utility.yul\":3472:3496   */\n      tag_197\n      jump\t// in\n    tag_272:\n        /* \"#utility.yul\":3465:3470   */\n      dup2\n        /* \"#utility.yul\":3462:3497   */\n      eq\n        /* \"#utility.yul\":3452:3515   */\n      tag_273\n      jumpi\n        /* \"#utility.yul\":3511:3512   */\n      0x00\n        /* \"#utility.yul\":3508:3509   */\n      dup1\n        /* \"#utility.yul\":3501:3513   */\n      revert\n        /* \"#utility.yul\":3452:3515   */\n    tag_273:\n        /* \"#utility.yul\":3399:3521   */\n      pop\n      jump\t// out\n        /* \"#utility.yul\":3527:3666   */\n    tag_200:\n        /* \"#utility.yul\":3573:3578   */\n      0x00\n        /* \"#utility.yul\":3611:3617   */\n      dup2\n        /* \"#utility.yul\":3598:3618   */\n      calldataload\n        /* \"#utility.yul\":3589:3618   */\n      swap1\n      pop\n        /* \"#utility.yul\":3627:3660   */\n      tag_275\n        /* \"#utility.yul\":3654:3659   */\n      dup2\n        /* \"#utility.yul\":3627:3660   */\n      tag_199\n      jump\t// in\n    tag_275:\n        /* \"#utility.yul\":3527:3666   */\n      swap3\n      swap2\n      pop\n      pop\n      jump\t// out\n        /* \"#utility.yul\":3672:4146   */\n    tag_45:\n        /* \"#utility.yul\":3740:3746   */\n      0x00\n        /* \"#utility.yul\":3748:3754   */\n      dup1\n        /* \"#utility.yul\":3797:3799   */\n      0x40\n        /* \"#utility.yul\":3785:3794   */\n      dup4\n        /* \"#utility.yul\":3776:3783   */\n      dup6\n        /* \"#utility.yul\":3772:3795   */\n      sub\n        /* \"#utility.yul\":3768:3800   */\n      slt\n        /* \"#utility.yul\":3765:3884   */\n      iszero\n      tag_277\n      jumpi\n        /* \"#utility.yul\":3803:3882   */\n      tag_278\n      tag_192\n      jump\t// in\n    tag_278:\n        /* \"#utility.yul\":3765:3884   */\n    tag_277:\n        /* \"#utility.yul\":3923:3924   */\n      0x00\n        /* \"#utility.yul\":3948:4001   */\n      tag_279\n        /* \"#utility.yul\":3993:4000   */\n      dup6\n        /* \"#utility.yul\":3984:3990   */\n      dup3\n        /* \"#utility.yul\":3973:3982   */\n      dup7\n        /* \"#utility.yul\":3969:3991   */\n      add\n        /* \"#utility.yul\":3948:4001   */\n      tag_195\n      jump\t// in\n    tag_279:\n        /* \"#utility.yul\":3938:4001   */\n      swap3\n      pop\n        /* \"#utility.yul\":3894:4011   */\n      pop\n        /* \"#utility.yul\":4050:4052   */\n      0x20\n        /* \"#utility.yul\":4076:4129   */\n      tag_280\n        /* \"#utility.yul\":4121:4128   */\n      dup6\n        /* \"#utility.yul\":4112:4118   */\n      dup3\n        /* \"#utility.yul\":4101:4110   */\n      dup7\n        /* \"#utility.yul\":4097:4119   */\n      add\n        /* \"#utility.yul\":4076:4129   */\n      tag_200\n      jump\t// in\n    tag_280:\n        /* \"#utility.yul\":4066:4129   */\n      swap2\n      pop\n        /* \"#utility.yul\":4021:4139   */\n      pop\n        /* \"#utility.yul\":3672:4146   */\n      swap3\n      pop\n      swap3\n      swap1\n      pop\n      jump\t// out\n        /* \"#utility.yul\":4152:4242   */\n    tag_201:\n        /* \"#utility.yul\":4186:4193   */\n      0x00\n        /* \"#utility.yul\":4229:4234   */\n      dup2\n        /* \"#utility.yul\":4222:4235   */\n      iszero\n        /* \"#utility.yul\":4215:4236   */\n      iszero\n        /* \"#utility.yul\":4204:4236   */\n      swap1\n      pop\n        /* \"#utility.yul\":4152:4242   */\n      swap2\n      swap1\n      pop\n      jump\t// out\n        /* \"#utility.yul\":4248:4357   */\n    tag_202:\n        /* \"#utility.yul\":4329:4350   */\n      tag_283\n        /* \"#utility.yul\":4344:4349   */\n      dup2\n        /* \"#utility.yul\":4329:4350   */\n      tag_201\n      jump\t// in\n    tag_283:\n        /* \"#utility.yul\":4324:4327   */\n      dup3\n        /* \"#utility.yul\":4317:4351   */\n      mstore\n        /* \"#utility.yul\":4248:4357   */\n      pop\n      pop\n      jump\t// out\n        /* \"#utility.yul\":4363:4573   */\n    tag_51:\n        /* \"#utility.yul\":4450:4454   */\n      0x00\n        /* \"#utility.yul\":4488:4490   */\n      0x20\n        /* \"#utility.yul\":4477:4486   */\n      dup3\n        /* \"#utility.yul\":4473:4491   */\n      add\n        /* \"#utility.yul\":4465:4491   */\n      swap1\n      pop\n        /* \"#utility.yul\":4501:4566   */\n      tag_285\n        /* \"#utility.yul\":4563:4564   */\n      0x00\n        /* \"#utility.yul\":4552:4561   */\n      dup4\n        /* \"#utility.yul\":4548:4565   */\n      add\n        /* \"#utility.yul\":4539:4545   */\n      dup5\n        /* \"#utility.yul\":4501:4566   */\n      tag_202\n      jump\t// in\n    tag_285:\n        /* \"#utility.yul\":4363:4573   */\n      swap3\n      swap2\n      pop\n      pop\n      jump\t// out\n        /* \"#utility.yul\":4579:4695   */\n    tag_203:\n        /* \"#utility.yul\":4649:4670   */\n      tag_287\n        /* \"#utility.yul\":4664:4669   */\n      dup2\n        /* \"#utility.yul\":4649:4670   */\n      tag_201\n      jump\t// in\n    tag_287:\n        /* \"#utility.yul\":4642:4647   */\n      dup2\n        /* \"#utility.yul\":4639:4671   */\n      eq\n        /* \"#utility.yul\":4629:4689   */\n      tag_288\n      jumpi\n        /* \"#utility.yul\":4685:4686   */\n      0x00\n        /* \"#utility.yul\":4682:4683   */\n      dup1\n        /* \"#utility.yul\":4675:4687   */\n      revert\n        /* \"#utility.yul\":4629:4689   */\n    tag_288:\n        /* \"#utility.yul\":4579:4695   */\n      pop\n      jump\t// out\n        /* \"#utility.yul\":4701:4834   */\n    tag_204:\n        /* \"#utility.yul\":4744:4749   */\n      0x00\n        /* \"#utility.yul\":4782:4788   */\n      dup2\n        /* \"#utility.yul\":4769:4789   */\n      calldataload\n        /* \"#utility.yul\":4760:4789   */\n      swap1\n      pop\n        /* \"#utility.yul\":4798:4828   */\n      tag_290\n        /* \"#utility.yul\":4822:4827   */\n      dup2\n        /* \"#utility.yul\":4798:4828   */\n      tag_203\n      jump\t// in\n    tag_290:\n        /* \"#utility.yul\":4701:4834   */\n      swap3\n      swap2\n      pop\n      pop\n      jump\t// out\n        /* \"#utility.yul\":4840:6037   */\n    tag_54:\n        /* \"#utility.yul\":4950:4956   */\n      0x00\n        /* \"#utility.yul\":4958:4964   */\n      dup1\n        /* \"#utility.yul\":4966:4972   */\n      0x00\n        /* \"#utility.yul\":4974:4980   */\n      dup1\n        /* \"#utility.yul\":4982:4988   */\n      0x00\n        /* \"#utility.yul\":4990:4996   */\n      dup1\n        /* \"#utility.yul\":4998:5004   */\n      0x00\n        /* \"#utility.yul\":5047:5050   */\n      0xe0\n        /* \"#utility.yul\":5035:5044   */\n      dup9\n        /* \"#utility.yul\":5026:5033   */\n      dup11\n        /* \"#utility.yul\":5022:5045   */\n      sub\n        /* \"#utility.yul\":5018:5051   */\n      slt\n        /* \"#utility.yul\":5015:5135   */\n      iszero\n      tag_292\n      jumpi\n        /* \"#utility.yul\":5054:5133   */\n      tag_293\n      tag_192\n      jump\t// in\n    tag_293:\n        /* \"#utility.yul\":5015:5135   */\n    tag_292:\n        /* \"#utility.yul\":5174:5175   */\n      0x00\n        /* \"#utility.yul\":5199:5252   */\n      tag_294\n        /* \"#utility.yul\":5244:5251   */\n      dup11\n        /* \"#utility.yul\":5235:5241   */\n      dup3\n        /* \"#utility.yul\":5224:5233   */\n      dup12\n        /* \"#utility.yul\":5220:5242   */\n      add\n        /* \"#utility.yul\":5199:5252   */\n      tag_200\n      jump\t// in\n    tag_294:\n        /* \"#utility.yul\":5189:5252   */\n      swap8\n      pop\n        /* \"#utility.yul\":5145:5262   */\n      pop\n        /* \"#utility.yul\":5301:5303   */\n      0x20\n        /* \"#utility.yul\":5327:5380   */\n      tag_295\n        /* \"#utility.yul\":5372:5379   */\n      dup11\n        /* \"#utility.yul\":5363:5369   */\n      dup3\n        /* \"#utility.yul\":5352:5361   */\n      dup12\n        /* \"#utility.yul\":5348:5370   */\n      add\n        /* \"#utility.yul\":5327:5380   */\n      tag_200\n      jump\t// in\n    tag_295:\n        /* \"#utility.yul\":5317:5380   */\n      swap7\n      pop\n        /* \"#utility.yul\":5272:5390   */\n      pop\n        /* \"#utility.yul\":5429:5431   */\n      0x40\n        /* \"#utility.yul\":5455:5508   */\n      tag_296\n        /* \"#utility.yul\":5500:5507   */\n      dup11\n        /* \"#utility.yul\":5491:5497   */\n      dup3\n        /* \"#utility.yul\":5480:5489   */\n      dup12\n        /* \"#utility.yul\":5476:5498   */\n      add\n        /* \"#utility.yul\":5455:5508   */\n      tag_200\n      jump\t// in\n    tag_296:\n        /* \"#utility.yul\":5445:5508   */\n      swap6\n      pop\n        /* \"#utility.yul\":5400:5518   */\n      pop\n        /* \"#utility.yul\":5557:5559   */\n      0x60\n        /* \"#utility.yul\":5583:5636   */\n      tag_297\n        /* \"#utility.yul\":5628:5635   */\n      dup11\n        /* \"#utility.yul\":5619:5625   */\n      dup3\n        /* \"#utility.yul\":5608:5617   */\n      dup12\n        /* \"#utility.yul\":5604:5626   */\n      add\n        /* \"#utility.yul\":5583:5636   */\n      tag_195\n      jump\t// in\n    tag_297:\n        /* \"#utility.yul\":5573:5636   */\n      swap5\n      pop\n        /* \"#utility.yul\":5528:5646   */\n      pop\n        /* \"#utility.yul\":5685:5688   */\n      0x80\n        /* \"#utility.yul\":5712:5765   */\n      tag_298\n        /* \"#utility.yul\":5757:5764   */\n      dup11\n        /* \"#utility.yul\":5748:5754   */\n      dup3\n        /* \"#utility.yul\":5737:5746   */\n      dup12\n        /* \"#utility.yul\":5733:5755   */\n      add\n        /* \"#utility.yul\":5712:5765   */\n      tag_195\n      jump\t// in\n    tag_298:\n        /* \"#utility.yul\":5702:5765   */\n      swap4\n      pop\n        /* \"#utility.yul\":5656:5775   */\n      pop\n        /* \"#utility.yul\":5814:5817   */\n      0xa0\n        /* \"#utility.yul\":5841:5894   */\n      tag_299\n        /* \"#utility.yul\":5886:5893   */\n      dup11\n        /* \"#utility.yul\":5877:5883   */\n      dup3\n        /* \"#utility.yul\":5866:5875   */\n      dup12\n        /* \"#utility.yul\":5862:5884   */\n      add\n        /* \"#utility.yul\":5841:5894   */\n      tag_195\n      jump\t// in\n    tag_299:\n        /* \"#utility.yul\":5831:5894   */\n      swap3\n      pop\n        /* \"#utility.yul\":5785:5904   */\n      pop\n        /* \"#utility.yul\":5943:5946   */\n      0xc0\n        /* \"#utility.yul\":5970:6020   */\n      tag_300\n        /* \"#utility.yul\":6012:6019   */\n      dup11\n        /* \"#utility.yul\":6003:6009   */\n      dup3\n        /* \"#utility.yul\":5992:6001   */\n      dup12\n        /* \"#utility.yul\":5988:6010   */\n      add\n        /* \"#utility.yul\":5970:6020   */\n      tag_204\n      jump\t// in\n    tag_300:\n        /* \"#utility.yul\":5960:6020   */\n      swap2\n      pop\n        /* \"#utility.yul\":5914:6030   */\n      pop\n        /* \"#utility.yul\":4840:6037   */\n      swap3\n      swap6\n      swap9\n      swap2\n      swap5\n      swap8\n      pop\n      swap3\n      swap6\n      pop\n      jump\t// out\n        /* \"#utility.yul\":6043:7250   */\n    tag_60:\n        /* \"#utility.yul\":6382:6386   */\n      0x00\n        /* \"#utility.yul\":6420:6423   */\n      0x0140\n        /* \"#utility.yul\":6409:6418   */\n      dup3\n        /* \"#utility.yul\":6405:6424   */\n      add\n        /* \"#utility.yul\":6397:6424   */\n      swap1\n      pop\n        /* \"#utility.yul\":6434:6505   */\n      tag_302\n        /* \"#utility.yul\":6502:6503   */\n      0x00\n        /* \"#utility.yul\":6491:6500   */\n      dup4\n        /* \"#utility.yul\":6487:6504   */\n      add\n        /* \"#utility.yul\":6478:6484   */\n      dup14\n        /* \"#utility.yul\":6434:6505   */\n      tag_198\n      jump\t// in\n    tag_302:\n        /* \"#utility.yul\":6515:6587   */\n      tag_303\n        /* \"#utility.yul\":6583:6585   */\n      0x20\n        /* \"#utility.yul\":6572:6581   */\n      dup4\n        /* \"#utility.yul\":6568:6586   */\n      add\n        /* \"#utility.yul\":6559:6565   */\n      dup13\n        /* \"#utility.yul\":6515:6587   */\n      tag_198\n      jump\t// in\n    tag_303:\n        /* \"#utility.yul\":6597:6669   */\n      tag_304\n        /* \"#utility.yul\":6665:6667   */\n      0x40\n        /* \"#utility.yul\":6654:6663   */\n      dup4\n        /* \"#utility.yul\":6650:6668   */\n      add\n        /* \"#utility.yul\":6641:6647   */\n      dup12\n        /* \"#utility.yul\":6597:6669   */\n      tag_198\n      jump\t// in\n    tag_304:\n        /* \"#utility.yul\":6679:6751   */\n      tag_305\n        /* \"#utility.yul\":6747:6749   */\n      0x60\n        /* \"#utility.yul\":6736:6745   */\n      dup4\n        /* \"#utility.yul\":6732:6750   */\n      add\n        /* \"#utility.yul\":6723:6729   */\n      dup11\n        /* \"#utility.yul\":6679:6751   */\n      tag_198\n      jump\t// in\n    tag_305:\n        /* \"#utility.yul\":6761:6834   */\n      tag_306\n        /* \"#utility.yul\":6829:6832   */\n      0x80\n        /* \"#utility.yul\":6818:6827   */\n      dup4\n        /* \"#utility.yul\":6814:6833   */\n      add\n        /* \"#utility.yul\":6805:6811   */\n      dup10\n        /* \"#utility.yul\":6761:6834   */\n      tag_190\n      jump\t// in\n    tag_306:\n        /* \"#utility.yul\":6844:6917   */\n      tag_307\n        /* \"#utility.yul\":6912:6915   */\n      0xa0\n        /* \"#utility.yul\":6901:6910   */\n      dup4\n        /* \"#utility.yul\":6897:6916   */\n      add\n        /* \"#utility.yul\":6888:6894   */\n      dup9\n        /* \"#utility.yul\":6844:6917   */\n      tag_190\n      jump\t// in\n    tag_307:\n        /* \"#utility.yul\":6927:7000   */\n      tag_308\n        /* \"#utility.yul\":6995:6998   */\n      0xc0\n        /* \"#utility.yul\":6984:6993   */\n      dup4\n        /* \"#utility.yul\":6980:6999   */\n      add\n        /* \"#utility.yul\":6971:6977   */\n      dup8\n        /* \"#utility.yul\":6927:7000   */\n      tag_190\n      jump\t// in\n    tag_308:\n        /* \"#utility.yul\":7010:7083   */\n      tag_309\n        /* \"#utility.yul\":7078:7081   */\n      0xe0\n        /* \"#utility.yul\":7067:7076   */\n      dup4\n        /* \"#utility.yul\":7063:7082   */\n      add\n        /* \"#utility.yul\":7054:7060   */\n      dup7\n        /* \"#utility.yul\":7010:7083   */\n      tag_190\n      jump\t// in\n    tag_309:\n        /* \"#utility.yul\":7093:7166   */\n      tag_310\n        /* \"#utility.yul\":7161:7164   */\n      0x0100\n        /* \"#utility.yul\":7150:7159   */\n      dup4\n        /* \"#utility.yul\":7146:7165   */\n      add\n        /* \"#utility.yul\":7137:7143   */\n      dup6\n        /* \"#utility.yul\":7093:7166   */\n      tag_190\n      jump\t// in\n    tag_310:\n        /* \"#utility.yul\":7176:7243   */\n      tag_311\n        /* \"#utility.yul\":7238:7241   */\n      0x0120\n        /* \"#utility.yul\":7227:7236   */\n      dup4\n        /* \"#utility.yul\":7223:7242   */\n      add\n        /* \"#utility.yul\":7214:7220   */\n      dup5\n        /* \"#utility.yul\":7176:7243   */\n      tag_202\n      jump\t// in\n    tag_311:\n        /* \"#utility.yul\":6043:7250   */\n      swap12\n      swap11\n      pop\n      pop\n      pop\n      pop\n      pop\n      pop\n      pop\n      pop\n      pop\n      pop\n      pop\n      jump\t// out\n        /* \"#utility.yul\":7256:7869   */\n    tag_63:\n        /* \"#utility.yul\":7330:7336   */\n      0x00\n        /* \"#utility.yul\":7338:7344   */\n      dup1\n        /* \"#utility.yul\":7346:7352   */\n      0x00\n        /* \"#utility.yul\":7395:7397   */\n      0x60\n        /* \"#utility.yul\":7383:7392   */\n      dup5\n        /* \"#utility.yul\":7374:7381   */\n      dup7\n        /* \"#utility.yul\":7370:7393   */\n      sub\n        /* \"#utility.yul\":7366:7398   */\n      slt\n        /* \"#utility.yul\":7363:7482   */\n      iszero\n      tag_313\n      jumpi\n        /* \"#utility.yul\":7401:7480   */\n      tag_314\n      tag_192\n      jump\t// in\n    tag_314:\n        /* \"#utility.yul\":7363:7482   */\n    tag_313:\n        /* \"#utility.yul\":7521:7522   */\n      0x00\n        /* \"#utility.yul\":7546:7599   */\n      tag_315\n        /* \"#utility.yul\":7591:7598   */\n      dup7\n        /* \"#utility.yul\":7582:7588   */\n      dup3\n        /* \"#utility.yul\":7571:7580   */\n      dup8\n        /* \"#utility.yul\":7567:7589   */\n      add\n        /* \"#utility.yul\":7546:7599   */\n      tag_195\n      jump\t// in\n    tag_315:\n        /* \"#utility.yul\":7536:7599   */\n      swap4\n      pop\n        /* \"#utility.yul\":7492:7609   */\n      pop\n        /* \"#utility.yul\":7648:7650   */\n      0x20\n        /* \"#utility.yul\":7674:7727   */\n      tag_316\n        /* \"#utility.yul\":7719:7726   */\n      dup7\n        /* \"#utility.yul\":7710:7716   */\n      dup3\n        /* \"#utility.yul\":7699:7708   */\n      dup8\n        /* \"#utility.yul\":7695:7717   */\n      add\n        /* \"#utility.yul\":7674:7727   */\n      tag_200\n      jump\t// in\n    tag_316:\n        /* \"#utility.yul\":7664:7727   */\n      swap3\n      pop\n        /* \"#utility.yul\":7619:7737   */\n      pop\n        /* \"#utility.yul\":7776:7778   */\n      0x40\n        /* \"#utility.yul\":7802:7852   */\n      tag_317\n        /* \"#utility.yul\":7844:7851   */\n      dup7\n        /* \"#utility.yul\":7835:7841   */\n      dup3\n        /* \"#utility.yul\":7824:7833   */\n      dup8\n        /* \"#utility.yul\":7820:7842   */\n      add\n        /* \"#utility.yul\":7802:7852   */\n      tag_204\n      jump\t// in\n    tag_317:\n        /* \"#utility.yul\":7792:7852   */\n      swap2\n      pop\n        /* \"#utility.yul\":7747:7862   */\n      pop\n        /* \"#utility.yul\":7256:7869   */\n      swap3\n      pop\n      swap3\n      pop\n      swap3\n      jump\t// out\n        /* \"#utility.yul\":7875:8044   */\n    tag_205:\n        /* \"#utility.yul\":7959:7970   */\n      0x00\n        /* \"#utility.yul\":7993:7999   */\n      dup3\n        /* \"#utility.yul\":7988:7991   */\n      dup3\n        /* \"#utility.yul\":7981:8000   */\n      mstore\n        /* \"#utility.yul\":8033:8037   */\n      0x20\n        /* \"#utility.yul\":8028:8031   */\n      dup3\n        /* \"#utility.yul\":8024:8038   */\n      add\n        /* \"#utility.yul\":8009:8038   */\n      swap1\n      pop\n        /* \"#utility.yul\":7875:8044   */\n      swap3\n      swap2\n      pop\n      pop\n      jump\t// out\n        /* \"#utility.yul\":8050:8214   */\n    tag_206:\n        /* \"#utility.yul\":8190:8206   */\n      0x4c414e3a206e6f74206f776e6572000000000000000000000000000000000000\n        /* \"#utility.yul\":8186:8187   */\n      0x00\n        /* \"#utility.yul\":8178:8184   */\n      dup3\n        /* \"#utility.yul\":8174:8188   */\n      add\n        /* \"#utility.yul\":8167:8207   */\n      mstore\n        /* \"#utility.yul\":8050:8214   */\n      pop\n      jump\t// out\n        /* \"#utility.yul\":8220:8586   */\n    tag_207:\n        /* \"#utility.yul\":8362:8365   */\n      0x00\n        /* \"#utility.yul\":8383:8450   */\n      tag_321\n        /* \"#utility.yul\":8447:8449   */\n      0x0e\n        /* \"#utility.yul\":8442:8445   */\n      dup4\n        /* \"#utility.yul\":8383:8450   */\n      tag_205\n      jump\t// in\n    tag_321:\n        /* \"#utility.yul\":8376:8450   */\n      swap2\n      pop\n        /* \"#utility.yul\":8459:8552   */\n      tag_322\n        /* \"#utility.yul\":8548:8551   */\n      dup3\n        /* \"#utility.yul\":8459:8552   */\n      tag_206\n      jump\t// in\n    tag_322:\n        /* \"#utility.yul\":8577:8579   */\n      0x20\n        /* \"#utility.yul\":8572:8575   */\n      dup3\n        /* \"#utility.yul\":8568:8580   */\n      add\n        /* \"#utility.yul\":8561:8580   */\n      swap1\n      pop\n        /* \"#utility.yul\":8220:8586   */\n      swap2\n      swap1\n      pop\n      jump\t// out\n        /* \"#utility.yul\":8592:9011   */\n    tag_69:\n        /* \"#utility.yul\":8758:8762   */\n      0x00\n        /* \"#utility.yul\":8796:8798   */\n      0x20\n        /* \"#utility.yul\":8785:8794   */\n      dup3\n        /* \"#utility.yul\":8781:8799   */\n      add\n        /* \"#utility.yul\":8773:8799   */\n      swap1\n      pop\n        /* \"#utility.yul\":8845:8854   */\n      dup2\n        /* \"#utility.yul\":8839:8843   */\n      dup2\n        /* \"#utility.yul\":8835:8855   */\n      sub\n        /* \"#utility.yul\":8831:8832   */\n      0x00\n        /* \"#utility.yul\":8820:8829   */\n      dup4\n        /* \"#utility.yul\":8816:8833   */\n      add\n        /* \"#utility.yul\":8809:8856   */\n      mstore\n        /* \"#utility.yul\":8873:9004   */\n      tag_324\n        /* \"#utility.yul\":8999:9003   */\n      dup2\n        /* \"#utility.yul\":8873:9004   */\n      tag_207\n      jump\t// in\n    tag_324:\n        /* \"#utility.yul\":8865:9004   */\n      swap1\n      pop\n        /* \"#utility.yul\":8592:9011   */\n      swap2\n      swap1\n      pop\n      jump\t// out\n        /* \"#utility.yul\":9017:9459   */\n    tag_72:\n        /* \"#utility.yul\":9166:9170   */\n      0x00\n        /* \"#utility.yul\":9204:9206   */\n      0x60\n        /* \"#utility.yul\":9193:9202   */\n      dup3\n        /* \"#utility.yul\":9189:9207   */\n      add\n        /* \"#utility.yul\":9181:9207   */\n      swap1\n      pop\n        /* \"#utility.yul\":9217:9288   */\n      tag_326\n        /* \"#utility.yul\":9285:9286   */\n      0x00\n        /* \"#utility.yul\":9274:9283   */\n      dup4\n        /* \"#utility.yul\":9270:9287   */\n      add\n        /* \"#utility.yul\":9261:9267   */\n      dup7\n        /* \"#utility.yul\":9217:9288   */\n      tag_198\n      jump\t// in\n    tag_326:\n        /* \"#utility.yul\":9298:9370   */\n      tag_327\n        /* \"#utility.yul\":9366:9368   */\n      0x20\n        /* \"#utility.yul\":9355:9364   */\n      dup4\n        /* \"#utility.yul\":9351:9369   */\n      add\n        /* \"#utility.yul\":9342:9348   */\n      dup6\n        /* \"#utility.yul\":9298:9370   */\n      tag_198\n      jump\t// in\n    tag_327:\n        /* \"#utility.yul\":9380:9452   */\n      tag_328\n        /* \"#utility.yul\":9448:9450   */\n      0x40\n        /* \"#utility.yul\":9437:9446   */\n      dup4\n        /* \"#utility.yul\":9433:9451   */\n      add\n        /* \"#utility.yul\":9424:9430   */\n      dup5\n        /* \"#utility.yul\":9380:9452   */\n      tag_190\n      jump\t// in\n    tag_328:\n        /* \"#utility.yul\":9017:9459   */\n      swap5\n      swap4\n      pop\n      pop\n      pop\n      pop\n      jump\t// out\n        /* \"#utility.yul\":9465:9631   */\n    tag_208:\n        /* \"#utility.yul\":9605:9623   */\n      0x4c414e3a206e6f74207374617274656400000000000000000000000000000000\n        /* \"#utility.yul\":9601:9602   */\n      0x00\n        /* \"#utility.yul\":9593:9599   */\n      dup3\n        /* \"#utility.yul\":9589:9603   */\n      add\n        /* \"#utility.yul\":9582:9624   */\n      mstore\n        /* \"#utility.yul\":9465:9631   */\n      pop\n      jump\t// out\n        /* \"#utility.yul\":9637:10003   */\n    tag_209:\n        /* \"#utility.yul\":9779:9782   */\n      0x00\n        /* \"#utility.yul\":9800:9867   */\n      tag_331\n        /* \"#utility.yul\":9864:9866   */\n      0x10\n        /* \"#utility.yul\":9859:9862   */\n      dup4\n        /* \"#utility.yul\":9800:9867   */\n      tag_205\n      jump\t// in\n    tag_331:\n        /* \"#utility.yul\":9793:9867   */\n      swap2\n      pop\n        /* \"#utility.yul\":9876:9969   */\n      tag_332\n        /* \"#utility.yul\":9965:9968   */\n      dup3\n        /* \"#utility.yul\":9876:9969   */\n      tag_208\n      jump\t// in\n    tag_332:\n        /* \"#utility.yul\":9994:9996   */\n      0x20\n        /* \"#utility.yul\":9989:9992   */\n      dup3\n        /* \"#utility.yul\":9985:9997   */\n      add\n        /* \"#utility.yul\":9978:9997   */\n      swap1\n      pop\n        /* \"#utility.yul\":9637:10003   */\n      swap2\n      swap1\n      pop\n      jump\t// out\n        /* \"#utility.yul\":10009:10428   */\n    tag_81:\n        /* \"#utility.yul\":10175:10179   */\n      0x00\n        /* \"#utility.yul\":10213:10215   */\n      0x20\n        /* \"#utility.yul\":10202:10211   */\n      dup3\n        /* \"#utility.yul\":10198:10216   */\n      add\n        /* \"#utility.yul\":10190:10216   */\n      swap1\n      pop\n        /* \"#utility.yul\":10262:10271   */\n      dup2\n        /* \"#utility.yul\":10256:10260   */\n      dup2\n        /* \"#utility.yul\":10252:10272   */\n      sub\n        /* \"#utility.yul\":10248:10249   */\n      0x00\n        /* \"#utility.yul\":10237:10246   */\n      dup4\n        /* \"#utility.yul\":10233:10250   */\n      add\n        /* \"#utility.yul\":10226:10273   */\n      mstore\n        /* \"#utility.yul\":10290:10421   */\n      tag_334\n        /* \"#utility.yul\":10416:10420   */\n      dup2\n        /* \"#utility.yul\":10290:10421   */\n      tag_209\n      jump\t// in\n    tag_334:\n        /* \"#utility.yul\":10282:10421   */\n      swap1\n      pop\n        /* \"#utility.yul\":10009:10428   */\n      swap2\n      swap1\n      pop\n      jump\t// out\n        /* \"#utility.yul\":10434:10602   */\n    tag_210:\n        /* \"#utility.yul\":10574:10594   */\n      0x4c414e3a20616c726561647920656e6465640000000000000000000000000000\n        /* \"#utility.yul\":10570:10571   */\n      0x00\n        /* \"#utility.yul\":10562:10568   */\n      dup3\n        /* \"#utility.yul\":10558:10572   */\n      add\n        /* \"#utility.yul\":10551:10595   */\n      mstore\n        /* \"#utility.yul\":10434:10602   */\n      pop\n      jump\t// out\n        /* \"#utility.yul\":10608:10974   */\n    tag_211:\n        /* \"#utility.yul\":10750:10753   */\n      0x00\n        /* \"#utility.yul\":10771:10838   */\n      tag_337\n        /* \"#utility.yul\":10835:10837   */\n      0x12\n        /* \"#utility.yul\":10830:10833   */\n      dup4\n        /* \"#utility.yul\":10771:10838   */\n      tag_205\n      jump\t// in\n    tag_337:\n        /* \"#utility.yul\":10764:10838   */\n      swap2\n      pop\n        /* \"#utility.yul\":10847:10940   */\n      tag_338\n        /* \"#utility.yul\":10936:10939   */\n      dup3\n        /* \"#utility.yul\":10847:10940   */\n      tag_210\n      jump\t// in\n    tag_338:\n        /* \"#utility.yul\":10965:10967   */\n      0x20\n        /* \"#utility.yul\":10960:10963   */\n      dup3\n        /* \"#utility.yul\":10956:10968   */\n      add\n        /* \"#utility.yul\":10949:10968   */\n      swap1\n      pop\n        /* \"#utility.yul\":10608:10974   */\n      swap2\n      swap1\n      pop\n      jump\t// out\n        /* \"#utility.yul\":10980:11399   */\n    tag_86:\n        /* \"#utility.yul\":11146:11150   */\n      0x00\n        /* \"#utility.yul\":11184:11186   */\n      0x20\n        /* \"#utility.yul\":11173:11182   */\n      dup3\n        /* \"#utility.yul\":11169:11187   */\n      add\n        /* \"#utility.yul\":11161:11187   */\n      swap1\n      pop\n        /* \"#utility.yul\":11233:11242   */\n      dup2\n        /* \"#utility.yul\":11227:11231   */\n      dup2\n        /* \"#utility.yul\":11223:11243   */\n      sub\n        /* \"#utility.yul\":11219:11220   */\n      0x00\n        /* \"#utility.yul\":11208:11217   */\n      dup4\n        /* \"#utility.yul\":11204:11221   */\n      add\n        /* \"#utility.yul\":11197:11244   */\n      mstore\n        /* \"#utility.yul\":11261:11392   */\n      tag_340\n        /* \"#utility.yul\":11387:11391   */\n      dup2\n        /* \"#utility.yul\":11261:11392   */\n      tag_211\n      jump\t// in\n    tag_340:\n        /* \"#utility.yul\":11253:11392   */\n      swap1\n      pop\n        /* \"#utility.yul\":10980:11399   */\n      swap2\n      swap1\n      pop\n      jump\t// out\n        /* \"#utility.yul\":11405:11575   */\n    tag_212:\n        /* \"#utility.yul\":11545:11567   */\n      0x4c414e3a204e6f742057686974656c6973746564000000000000000000000000\n        /* \"#utility.yul\":11541:11542   */\n      0x00\n        /* \"#utility.yul\":11533:11539   */\n      dup3\n        /* \"#utility.yul\":11529:11543   */\n      add\n        /* \"#utility.yul\":11522:11568   */\n      mstore\n        /* \"#utility.yul\":11405:11575   */\n      pop\n      jump\t// out\n        /* \"#utility.yul\":11581:11947   */\n    tag_213:\n        /* \"#utility.yul\":11723:11726   */\n      0x00\n        /* \"#utility.yul\":11744:11811   */\n      tag_343\n        /* \"#utility.yul\":11808:11810   */\n      0x14\n        /* \"#utility.yul\":11803:11806   */\n      dup4\n        /* \"#utility.yul\":11744:11811   */\n      tag_205\n      jump\t// in\n    tag_343:\n        /* \"#utility.yul\":11737:11811   */\n      swap2\n      pop\n        /* \"#utility.yul\":11820:11913   */\n      tag_344\n        /* \"#utility.yul\":11909:11912   */\n      dup3\n        /* \"#utility.yul\":11820:11913   */\n      tag_212\n      jump\t// in\n    tag_344:\n        /* \"#utility.yul\":11938:11940   */\n      0x20\n        /* \"#utility.yul\":11933:11936   */\n      dup3\n        /* \"#utility.yul\":11929:11941   */\n      add\n        /* \"#utility.yul\":11922:11941   */\n      swap1\n      pop\n        /* \"#utility.yul\":11581:11947   */\n      swap2\n      swap1\n      pop\n      jump\t// out\n        /* \"#utility.yul\":11953:12372   */\n    tag_91:\n        /* \"#utility.yul\":12119:12123   */\n      0x00\n        /* \"#utility.yul\":12157:12159   */\n      0x20\n        /* \"#utility.yul\":12146:12155   */\n      dup3\n        /* \"#utility.yul\":12142:12160   */\n      add\n        /* \"#utility.yul\":12134:12160   */\n      swap1\n      pop\n        /* \"#utility.yul\":12206:12215   */\n      dup2\n        /* \"#utility.yul\":12200:12204   */\n      dup2\n        /* \"#utility.yul\":12196:12216   */\n      sub\n        /* \"#utility.yul\":12192:12193   */\n      0x00\n        /* \"#utility.yul\":12181:12190   */\n      dup4\n        /* \"#utility.yul\":12177:12194   */\n      add\n        /* \"#utility.yul\":12170:12217   */\n      mstore\n        /* \"#utility.yul\":12234:12365   */\n      tag_346\n        /* \"#utility.yul\":12360:12364   */\n      dup2\n        /* \"#utility.yul\":12234:12365   */\n      tag_213\n      jump\t// in\n    tag_346:\n        /* \"#utility.yul\":12226:12365   */\n      swap1\n      pop\n        /* \"#utility.yul\":11953:12372   */\n      swap2\n      swap1\n      pop\n      jump\t// out\n        /* \"#utility.yul\":12378:12558   */\n    tag_214:\n        /* \"#utility.yul\":12426:12503   */\n      0x4e487b7100000000000000000000000000000000000000000000000000000000\n        /* \"#utility.yul\":12423:12424   */\n      0x00\n        /* \"#utility.yul\":12416:12504   */\n      mstore\n        /* \"#utility.yul\":12523:12527   */\n      0x11\n        /* \"#utility.yul\":12520:12521   */\n      0x04\n        /* \"#utility.yul\":12513:12528   */\n      mstore\n        /* \"#utility.yul\":12547:12551   */\n      0x24\n        /* \"#utility.yul\":12544:12545   */\n      0x00\n        /* \"#utility.yul\":12537:12552   */\n      revert\n        /* \"#utility.yul\":12564:12755   */\n    tag_93:\n        /* \"#utility.yul\":12604:12607   */\n      0x00\n        /* \"#utility.yul\":12623:12643   */\n      tag_349\n        /* \"#utility.yul\":12641:12642   */\n      dup3\n        /* \"#utility.yul\":12623:12643   */\n      tag_189\n      jump\t// in\n    tag_349:\n        /* \"#utility.yul\":12618:12643   */\n      swap2\n      pop\n        /* \"#utility.yul\":12657:12677   */\n      tag_350\n        /* \"#utility.yul\":12675:12676   */\n      dup4\n        /* \"#utility.yul\":12657:12677   */\n      tag_189\n      jump\t// in\n    tag_350:\n        /* \"#utility.yul\":12652:12677   */\n      swap3\n      pop\n        /* \"#utility.yul\":12700:12701   */\n      dup3\n        /* \"#utility.yul\":12697:12698   */\n      dup3\n        /* \"#utility.yul\":12693:12702   */\n      add\n        /* \"#utility.yul\":12686:12702   */\n      swap1\n      pop\n        /* \"#utility.yul\":12721:12724   */\n      dup1\n        /* \"#utility.yul\":12718:12719   */\n      dup3\n        /* \"#utility.yul\":12715:12725   */\n      gt\n        /* \"#utility.yul\":12712:12748   */\n      iszero\n      tag_351\n      jumpi\n        /* \"#utility.yul\":12728:12746   */\n      tag_352\n      tag_214\n      jump\t// in\n    tag_352:\n        /* \"#utility.yul\":12712:12748   */\n    tag_351:\n        /* \"#utility.yul\":12564:12755   */\n      swap3\n      swap2\n      pop\n      pop\n      jump\t// out\n        /* \"#utility.yul\":12761:12930   */\n    tag_215:\n        /* \"#utility.yul\":12901:12922   */\n      0x4c414e3a20626964206e6f742068696768657200000000000000000000000000\n        /* \"#utility.yul\":12897:12898   */\n      0x00\n        /* \"#utility.yul\":12889:12895   */\n      dup3\n        /* \"#utility.yul\":12885:12899   */\n      add\n        /* \"#utility.yul\":12878:12923   */\n      mstore\n        /* \"#utility.yul\":12761:12930   */\n      pop\n      jump\t// out\n        /* \"#utility.yul\":12936:13302   */\n    tag_216:\n        /* \"#utility.yul\":13078:13081   */\n      0x00\n        /* \"#utility.yul\":13099:13166   */\n      tag_355\n        /* \"#utility.yul\":13163:13165   */\n      0x13\n        /* \"#utility.yul\":13158:13161   */\n      dup4\n        /* \"#utility.yul\":13099:13166   */\n      tag_205\n      jump\t// in\n    tag_355:\n        /* \"#utility.yul\":13092:13166   */\n      swap2\n      pop\n        /* \"#utility.yul\":13175:13268   */\n      tag_356\n        /* \"#utility.yul\":13264:13267   */\n      dup3\n        /* \"#utility.yul\":13175:13268   */\n      tag_215\n      jump\t// in\n    tag_356:\n        /* \"#utility.yul\":13293:13295   */\n      0x20\n        /* \"#utility.yul\":13288:13291   */\n      dup3\n        /* \"#utility.yul\":13284:13296   */\n      add\n        /* \"#utility.yul\":13277:13296   */\n      swap1\n      pop\n        /* \"#utility.yul\":12936:13302   */\n      swap2\n      swap1\n      pop\n      jump\t// out\n        /* \"#utility.yul\":13308:13727   */\n    tag_98:\n        /* \"#utility.yul\":13474:13478   */\n      0x00\n        /* \"#utility.yul\":13512:13514   */\n      0x20\n        /* \"#utility.yul\":13501:13510   */\n      dup3\n        /* \"#utility.yul\":13497:13515   */\n      add\n        /* \"#utility.yul\":13489:13515   */\n      swap1\n      pop\n        /* \"#utility.yul\":13561:13570   */\n      dup2\n        /* \"#utility.yul\":13555:13559   */\n      dup2\n        /* \"#utility.yul\":13551:13571   */\n      sub\n        /* \"#utility.yul\":13547:13548   */\n      0x00\n        /* \"#utility.yul\":13536:13545   */\n      dup4\n        /* \"#utility.yul\":13532:13549   */\n      add\n        /* \"#utility.yul\":13525:13572   */\n      mstore\n        /* \"#utility.yul\":13589:13720   */\n      tag_358\n        /* \"#utility.yul\":13715:13719   */\n      dup2\n        /* \"#utility.yul\":13589:13720   */\n      tag_216\n      jump\t// in\n    tag_358:\n        /* \"#utility.yul\":13581:13720   */\n      swap1\n      pop\n        /* \"#utility.yul\":13308:13727   */\n      swap2\n      swap1\n      pop\n      jump\t// out\n        /* \"#utility.yul\":13733:13870   */\n    tag_217:\n        /* \"#utility.yul\":13787:13792   */\n      0x00\n        /* \"#utility.yul\":13818:13824   */\n      dup2\n        /* \"#utility.yul\":13812:13825   */\n      mload\n        /* \"#utility.yul\":13803:13825   */\n      swap1\n      pop\n        /* \"#utility.yul\":13834:13864   */\n      tag_360\n        /* \"#utility.yul\":13858:13863   */\n      dup2\n        /* \"#utility.yul\":13834:13864   */\n      tag_203\n      jump\t// in\n    tag_360:\n        /* \"#utility.yul\":13733:13870   */\n      swap3\n      swap2\n      pop\n      pop\n      jump\t// out\n        /* \"#utility.yul\":13876:14221   */\n    tag_103:\n        /* \"#utility.yul\":13943:13949   */\n      0x00\n        /* \"#utility.yul\":13992:13994   */\n      0x20\n        /* \"#utility.yul\":13980:13989   */\n      dup3\n        /* \"#utility.yul\":13971:13978   */\n      dup5\n        /* \"#utility.yul\":13967:13990   */\n      sub\n        /* \"#utility.yul\":13963:13995   */\n      slt\n        /* \"#utility.yul\":13960:14079   */\n      iszero\n      tag_362\n      jumpi\n        /* \"#utility.yul\":13998:14077   */\n      tag_363\n      tag_192\n      jump\t// in\n    tag_363:\n        /* \"#utility.yul\":13960:14079   */\n    tag_362:\n        /* \"#utility.yul\":14118:14119   */\n      0x00\n        /* \"#utility.yul\":14143:14204   */\n      tag_364\n        /* \"#utility.yul\":14196:14203   */\n      dup5\n        /* \"#utility.yul\":14187:14193   */\n      dup3\n        /* \"#utility.yul\":14176:14185   */\n      dup6\n        /* \"#utility.yul\":14172:14194   */\n      add\n        /* \"#utility.yul\":14143:14204   */\n      tag_217\n      jump\t// in\n    tag_364:\n        /* \"#utility.yul\":14133:14204   */\n      swap2\n      pop\n        /* \"#utility.yul\":14089:14214   */\n      pop\n        /* \"#utility.yul\":13876:14221   */\n      swap3\n      swap2\n      pop\n      pop\n      jump\t// out\n        /* \"#utility.yul\":14227:14421   */\n    tag_105:\n        /* \"#utility.yul\":14267:14271   */\n      0x00\n        /* \"#utility.yul\":14287:14307   */\n      tag_366\n        /* \"#utility.yul\":14305:14306   */\n      dup3\n        /* \"#utility.yul\":14287:14307   */\n      tag_189\n      jump\t// in\n    tag_366:\n        /* \"#utility.yul\":14282:14307   */\n      swap2\n      pop\n        /* \"#utility.yul\":14321:14341   */\n      tag_367\n        /* \"#utility.yul\":14339:14340   */\n      dup4\n        /* \"#utility.yul\":14321:14341   */\n      tag_189\n      jump\t// in\n    tag_367:\n        /* \"#utility.yul\":14316:14341   */\n      swap3\n      pop\n        /* \"#utility.yul\":14365:14366   */\n      dup3\n        /* \"#utility.yul\":14362:14363   */\n      dup3\n        /* \"#utility.yul\":14358:14367   */\n      sub\n        /* \"#utility.yul\":14350:14367   */\n      swap1\n      pop\n        /* \"#utility.yul\":14389:14390   */\n      dup2\n        /* \"#utility.yul\":14383:14387   */\n      dup2\n        /* \"#utility.yul\":14380:14391   */\n      gt\n        /* \"#utility.yul\":14377:14414   */\n      iszero\n      tag_368\n      jumpi\n        /* \"#utility.yul\":14394:14412   */\n      tag_369\n      tag_214\n      jump\t// in\n    tag_369:\n        /* \"#utility.yul\":14377:14414   */\n    tag_368:\n        /* \"#utility.yul\":14227:14421   */\n      swap3\n      swap2\n      pop\n      pop\n      jump\t// out\n        /* \"#utility.yul\":14427:14597   */\n    tag_218:\n        /* \"#utility.yul\":14567:14589   */\n      0x4c414e3a20616c72656164792073746172746564000000000000000000000000\n        /* \"#utility.yul\":14563:14564   */\n      0x00\n        /* \"#utility.yul\":14555:14561   */\n      dup3\n        /* \"#utility.yul\":14551:14565   */\n      add\n        /* \"#utility.yul\":14544:14590   */\n      mstore\n        /* \"#utility.yul\":14427:14597   */\n      pop\n      jump\t// out\n        /* \"#utility.yul\":14603:14969   */\n    tag_219:\n        /* \"#utility.yul\":14745:14748   */\n      0x00\n        /* \"#utility.yul\":14766:14833   */\n      tag_372\n        /* \"#utility.yul\":14830:14832   */\n      0x14\n        /* \"#utility.yul\":14825:14828   */\n      dup4\n        /* \"#utility.yul\":14766:14833   */\n      tag_205\n      jump\t// in\n    tag_372:\n        /* \"#utility.yul\":14759:14833   */\n      swap2\n      pop\n        /* \"#utility.yul\":14842:14935   */\n      tag_373\n        /* \"#utility.yul\":14931:14934   */\n      dup3\n        /* \"#utility.yul\":14842:14935   */\n      tag_218\n      jump\t// in\n    tag_373:\n        /* \"#utility.yul\":14960:14962   */\n      0x20\n        /* \"#utility.yul\":14955:14958   */\n      dup3\n        /* \"#utility.yul\":14951:14963   */\n      add\n        /* \"#utility.yul\":14944:14963   */\n      swap1\n      pop\n        /* \"#utility.yul\":14603:14969   */\n      swap2\n      swap1\n      pop\n      jump\t// out\n        /* \"#utility.yul\":14975:15394   */\n    tag_117:\n        /* \"#utility.yul\":15141:15145   */\n      0x00\n        /* \"#utility.yul\":15179:15181   */\n      0x20\n        /* \"#utility.yul\":15168:15177   */\n      dup3\n        /* \"#utility.yul\":15164:15182   */\n      add\n        /* \"#utility.yul\":15156:15182   */\n      swap1\n      pop\n        /* \"#utility.yul\":15228:15237   */\n      dup2\n        /* \"#utility.yul\":15222:15226   */\n      dup2\n        /* \"#utility.yul\":15218:15238   */\n      sub\n        /* \"#utility.yul\":15214:15215   */\n      0x00\n        /* \"#utility.yul\":15203:15212   */\n      dup4\n        /* \"#utility.yul\":15199:15216   */\n      add\n        /* \"#utility.yul\":15192:15239   */\n      mstore\n        /* \"#utility.yul\":15256:15387   */\n      tag_375\n        /* \"#utility.yul\":15382:15386   */\n      dup2\n        /* \"#utility.yul\":15256:15387   */\n      tag_219\n      jump\t// in\n    tag_375:\n        /* \"#utility.yul\":15248:15387   */\n      swap1\n      pop\n        /* \"#utility.yul\":14975:15394   */\n      swap2\n      swap1\n      pop\n      jump\t// out\n        /* \"#utility.yul\":15400:15569   */\n    tag_220:\n        /* \"#utility.yul\":15540:15561   */\n      0x4c414e3a206c6f616e206e6f7420656e64656400000000000000000000000000\n        /* \"#utility.yul\":15536:15537   */\n      0x00\n        /* \"#utility.yul\":15528:15534   */\n      dup3\n        /* \"#utility.yul\":15524:15538   */\n      add\n        /* \"#utility.yul\":15517:15562   */\n      mstore\n        /* \"#utility.yul\":15400:15569   */\n      pop\n      jump\t// out\n        /* \"#utility.yul\":15575:15941   */\n    tag_221:\n        /* \"#utility.yul\":15717:15720   */\n      0x00\n        /* \"#utility.yul\":15738:15805   */\n      tag_378\n        /* \"#utility.yul\":15802:15804   */\n      0x13\n        /* \"#utility.yul\":15797:15800   */\n      dup4\n        /* \"#utility.yul\":15738:15805   */\n      tag_205\n      jump\t// in\n    tag_378:\n        /* \"#utility.yul\":15731:15805   */\n      swap2\n      pop\n        /* \"#utility.yul\":15814:15907   */\n      tag_379\n        /* \"#utility.yul\":15903:15906   */\n      dup3\n        /* \"#utility.yul\":15814:15907   */\n      tag_220\n      jump\t// in\n    tag_379:\n        /* \"#utility.yul\":15932:15934   */\n      0x20\n        /* \"#utility.yul\":15927:15930   */\n      dup3\n        /* \"#utility.yul\":15923:15935   */\n      add\n        /* \"#utility.yul\":15916:15935   */\n      swap1\n      pop\n        /* \"#utility.yul\":15575:15941   */\n      swap2\n      swap1\n      pop\n      jump\t// out\n        /* \"#utility.yul\":15947:16366   */\n    tag_125:\n        /* \"#utility.yul\":16113:16117   */\n      0x00\n        /* \"#utility.yul\":16151:16153   */\n      0x20\n        /* \"#utility.yul\":16140:16149   */\n      dup3\n        /* \"#utility.yul\":16136:16154   */\n      add\n        /* \"#utility.yul\":16128:16154   */\n      swap1\n      pop\n        /* \"#utility.yul\":16200:16209   */\n      dup2\n        /* \"#utility.yul\":16194:16198   */\n      dup2\n        /* \"#utility.yul\":16190:16210   */\n      sub\n        /* \"#utility.yul\":16186:16187   */\n      0x00\n        /* \"#utility.yul\":16175:16184   */\n      dup4\n        /* \"#utility.yul\":16171:16188   */\n      add\n        /* \"#utility.yul\":16164:16211   */\n      mstore\n        /* \"#utility.yul\":16228:16359   */\n      tag_381\n        /* \"#utility.yul\":16354:16358   */\n      dup2\n        /* \"#utility.yul\":16228:16359   */\n      tag_221\n      jump\t// in\n    tag_381:\n        /* \"#utility.yul\":16220:16359   */\n      swap1\n      pop\n        /* \"#utility.yul\":15947:16366   */\n      swap2\n      swap1\n      pop\n      jump\t// out\n        /* \"#utility.yul\":16372:16544   */\n    tag_222:\n        /* \"#utility.yul\":16512:16536   */\n      0x4c414e3a206e6f74206c61746573742062696464657200000000000000000000\n        /* \"#utility.yul\":16508:16509   */\n      0x00\n        /* \"#utility.yul\":16500:16506   */\n      dup3\n        /* \"#utility.yul\":16496:16510   */\n      add\n        /* \"#utility.yul\":16489:16537   */\n      mstore\n        /* \"#utility.yul\":16372:16544   */\n      pop\n      jump\t// out\n        /* \"#utility.yul\":16550:16916   */\n    tag_223:\n        /* \"#utility.yul\":16692:16695   */\n      0x00\n        /* \"#utility.yul\":16713:16780   */\n      tag_384\n        /* \"#utility.yul\":16777:16779   */\n      0x16\n        /* \"#utility.yul\":16772:16775   */\n      dup4\n        /* \"#utility.yul\":16713:16780   */\n      tag_205\n      jump\t// in\n    tag_384:\n        /* \"#utility.yul\":16706:16780   */\n      swap2\n      pop\n        /* \"#utility.yul\":16789:16882   */\n      tag_385\n        /* \"#utility.yul\":16878:16881   */\n      dup3\n        /* \"#utility.yul\":16789:16882   */\n      tag_222\n      jump\t// in\n    tag_385:\n        /* \"#utility.yul\":16907:16909   */\n      0x20\n        /* \"#utility.yul\":16902:16905   */\n      dup3\n        /* \"#utility.yul\":16898:16910   */\n      add\n        /* \"#utility.yul\":16891:16910   */\n      swap1\n      pop\n        /* \"#utility.yul\":16550:16916   */\n      swap2\n      swap1\n      pop\n      jump\t// out\n        /* \"#utility.yul\":16922:17341   */\n    tag_128:\n        /* \"#utility.yul\":17088:17092   */\n      0x00\n        /* \"#utility.yul\":17126:17128   */\n      0x20\n        /* \"#utility.yul\":17115:17124   */\n      dup3\n        /* \"#utility.yul\":17111:17129   */\n      add\n        /* \"#utility.yul\":17103:17129   */\n      swap1\n      pop\n        /* \"#utility.yul\":17175:17184   */\n      dup2\n        /* \"#utility.yul\":17169:17173   */\n      dup2\n        /* \"#utility.yul\":17165:17185   */\n      sub\n        /* \"#utility.yul\":17161:17162   */\n      0x00\n        /* \"#utility.yul\":17150:17159   */\n      dup4\n        /* \"#utility.yul\":17146:17163   */\n      add\n        /* \"#utility.yul\":17139:17186   */\n      mstore\n        /* \"#utility.yul\":17203:17334   */\n      tag_387\n        /* \"#utility.yul\":17329:17333   */\n      dup2\n        /* \"#utility.yul\":17203:17334   */\n      tag_223\n      jump\t// in\n    tag_387:\n        /* \"#utility.yul\":17195:17334   */\n      swap1\n      pop\n        /* \"#utility.yul\":16922:17341   */\n      swap2\n      swap1\n      pop\n      jump\t// out\n        /* \"#utility.yul\":17347:17523   */\n    tag_224:\n        /* \"#utility.yul\":17487:17515   */\n      0x4c414e3a204e6f7420746865206c617465737420626964646572000000000000\n        /* \"#utility.yul\":17483:17484   */\n      0x00\n        /* \"#utility.yul\":17475:17481   */\n      dup3\n        /* \"#utility.yul\":17471:17485   */\n      add\n        /* \"#utility.yul\":17464:17516   */\n      mstore\n        /* \"#utility.yul\":17347:17523   */\n      pop\n      jump\t// out\n        /* \"#utility.yul\":17529:17895   */\n    tag_225:\n        /* \"#utility.yul\":17671:17674   */\n      0x00\n        /* \"#utility.yul\":17692:17759   */\n      tag_390\n        /* \"#utility.yul\":17756:17758   */\n      0x1a\n        /* \"#utility.yul\":17751:17754   */\n      dup4\n        /* \"#utility.yul\":17692:17759   */\n      tag_205\n      jump\t// in\n    tag_390:\n        /* \"#utility.yul\":17685:17759   */\n      swap2\n      pop\n        /* \"#utility.yul\":17768:17861   */\n      tag_391\n        /* \"#utility.yul\":17857:17860   */\n      dup3\n        /* \"#utility.yul\":17768:17861   */\n      tag_224\n      jump\t// in\n    tag_391:\n        /* \"#utility.yul\":17886:17888   */\n      0x20\n        /* \"#utility.yul\":17881:17884   */\n      dup3\n        /* \"#utility.yul\":17877:17889   */\n      add\n        /* \"#utility.yul\":17870:17889   */\n      swap1\n      pop\n        /* \"#utility.yul\":17529:17895   */\n      swap2\n      swap1\n      pop\n      jump\t// out\n        /* \"#utility.yul\":17901:18320   */\n    tag_156:\n        /* \"#utility.yul\":18067:18071   */\n      0x00\n        /* \"#utility.yul\":18105:18107   */\n      0x20\n        /* \"#utility.yul\":18094:18103   */\n      dup3\n        /* \"#utility.yul\":18090:18108   */\n      add\n        /* \"#utility.yul\":18082:18108   */\n      swap1\n      pop\n        /* \"#utility.yul\":18154:18163   */\n      dup2\n        /* \"#utility.yul\":18148:18152   */\n      dup2\n        /* \"#utility.yul\":18144:18164   */\n      sub\n        /* \"#utility.yul\":18140:18141   */\n      0x00\n        /* \"#utility.yul\":18129:18138   */\n      dup4\n        /* \"#utility.yul\":18125:18142   */\n      add\n        /* \"#utility.yul\":18118:18165   */\n      mstore\n        /* \"#utility.yul\":18182:18313   */\n      tag_393\n        /* \"#utility.yul\":18308:18312   */\n      dup2\n        /* \"#utility.yul\":18182:18313   */\n      tag_225\n      jump\t// in\n    tag_393:\n        /* \"#utility.yul\":18174:18313   */\n      swap1\n      pop\n        /* \"#utility.yul\":17901:18320   */\n      swap2\n      swap1\n      pop\n      jump\t// out\n        /* \"#utility.yul\":18326:18499   */\n    tag_226:\n        /* \"#utility.yul\":18466:18491   */\n      0x4c414e3a2073746172742074696d6520696e2070617374000000000000000000\n        /* \"#utility.yul\":18462:18463   */\n      0x00\n        /* \"#utility.yul\":18454:18460   */\n      dup3\n        /* \"#utility.yul\":18450:18464   */\n      add\n        /* \"#utility.yul\":18443:18492   */\n      mstore\n        /* \"#utility.yul\":18326:18499   */\n      pop\n      jump\t// out\n        /* \"#utility.yul\":18505:18871   */\n    tag_227:\n        /* \"#utility.yul\":18647:18650   */\n      0x00\n        /* \"#utility.yul\":18668:18735   */\n      tag_396\n        /* \"#utility.yul\":18732:18734   */\n      0x17\n        /* \"#utility.yul\":18727:18730   */\n      dup4\n        /* \"#utility.yul\":18668:18735   */\n      tag_205\n      jump\t// in\n    tag_396:\n        /* \"#utility.yul\":18661:18735   */\n      swap2\n      pop\n        /* \"#utility.yul\":18744:18837   */\n      tag_397\n        /* \"#utility.yul\":18833:18836   */\n      dup3\n        /* \"#utility.yul\":18744:18837   */\n      tag_226\n      jump\t// in\n    tag_397:\n        /* \"#utility.yul\":18862:18864   */\n      0x20\n        /* \"#utility.yul\":18857:18860   */\n      dup3\n        /* \"#utility.yul\":18853:18865   */\n      add\n        /* \"#utility.yul\":18846:18865   */\n      swap1\n      pop\n        /* \"#utility.yul\":18505:18871   */\n      swap2\n      swap1\n      pop\n      jump\t// out\n        /* \"#utility.yul\":18877:19296   */\n    tag_160:\n        /* \"#utility.yul\":19043:19047   */\n      0x00\n        /* \"#utility.yul\":19081:19083   */\n      0x20\n        /* \"#utility.yul\":19070:19079   */\n      dup3\n        /* \"#utility.yul\":19066:19084   */\n      add\n        /* \"#utility.yul\":19058:19084   */\n      swap1\n      pop\n        /* \"#utility.yul\":19130:19139   */\n      dup2\n        /* \"#utility.yul\":19124:19128   */\n      dup2\n        /* \"#utility.yul\":19120:19140   */\n      sub\n        /* \"#utility.yul\":19116:19117   */\n      0x00\n        /* \"#utility.yul\":19105:19114   */\n      dup4\n        /* \"#utility.yul\":19101:19118   */\n      add\n        /* \"#utility.yul\":19094:19141   */\n      mstore\n        /* \"#utility.yul\":19158:19289   */\n      tag_399\n        /* \"#utility.yul\":19284:19288   */\n      dup2\n        /* \"#utility.yul\":19158:19289   */\n      tag_227\n      jump\t// in\n    tag_399:\n        /* \"#utility.yul\":19150:19289   */\n      swap1\n      pop\n        /* \"#utility.yul\":18877:19296   */\n      swap2\n      swap1\n      pop\n      jump\t// out\n        /* \"#utility.yul\":19302:19472   */\n    tag_228:\n        /* \"#utility.yul\":19442:19464   */\n      0x4c414e3a20737461727420616674657220656e64000000000000000000000000\n        /* \"#utility.yul\":19438:19439   */\n      0x00\n        /* \"#utility.yul\":19430:19436   */\n      dup3\n        /* \"#utility.yul\":19426:19440   */\n      add\n        /* \"#utility.yul\":19419:19465   */\n      mstore\n        /* \"#utility.yul\":19302:19472   */\n      pop\n      jump\t// out\n        /* \"#utility.yul\":19478:19844   */\n    tag_229:\n        /* \"#utility.yul\":19620:19623   */\n      0x00\n        /* \"#utility.yul\":19641:19708   */\n      tag_402\n        /* \"#utility.yul\":19705:19707   */\n      0x14\n        /* \"#utility.yul\":19700:19703   */\n      dup4\n        /* \"#utility.yul\":19641:19708   */\n      tag_205\n      jump\t// in\n    tag_402:\n        /* \"#utility.yul\":19634:19708   */\n      swap2\n      pop\n        /* \"#utility.yul\":19717:19810   */\n      tag_403\n        /* \"#utility.yul\":19806:19809   */\n      dup3\n        /* \"#utility.yul\":19717:19810   */\n      tag_228\n      jump\t// in\n    tag_403:\n        /* \"#utility.yul\":19835:19837   */\n      0x20\n        /* \"#utility.yul\":19830:19833   */\n      dup3\n        /* \"#utility.yul\":19826:19838   */\n      add\n        /* \"#utility.yul\":19819:19838   */\n      swap1\n      pop\n        /* \"#utility.yul\":19478:19844   */\n      swap2\n      swap1\n      pop\n      jump\t// out\n        /* \"#utility.yul\":19850:20269   */\n    tag_163:\n        /* \"#utility.yul\":20016:20020   */\n      0x00\n        /* \"#utility.yul\":20054:20056   */\n      0x20\n        /* \"#utility.yul\":20043:20052   */\n      dup3\n        /* \"#utility.yul\":20039:20057   */\n      add\n        /* \"#utility.yul\":20031:20057   */\n      swap1\n      pop\n        /* \"#utility.yul\":20103:20112   */\n      dup2\n        /* \"#utility.yul\":20097:20101   */\n      dup2\n        /* \"#utility.yul\":20093:20113   */\n      sub\n        /* \"#utility.yul\":20089:20090   */\n      0x00\n        /* \"#utility.yul\":20078:20087   */\n      dup4\n        /* \"#utility.yul\":20074:20091   */\n      add\n        /* \"#utility.yul\":20067:20114   */\n      mstore\n        /* \"#utility.yul\":20131:20262   */\n      tag_405\n        /* \"#utility.yul\":20257:20261   */\n      dup2\n        /* \"#utility.yul\":20131:20262   */\n      tag_229\n      jump\t// in\n    tag_405:\n        /* \"#utility.yul\":20123:20262   */\n      swap1\n      pop\n        /* \"#utility.yul\":19850:20269   */\n      swap2\n      swap1\n      pop\n      jump\t// out\n        /* \"#utility.yul\":20275:20418   */\n    tag_230:\n        /* \"#utility.yul\":20332:20337   */\n      0x00\n        /* \"#utility.yul\":20363:20369   */\n      dup2\n        /* \"#utility.yul\":20357:20370   */\n      mload\n        /* \"#utility.yul\":20348:20370   */\n      swap1\n      pop\n        /* \"#utility.yul\":20379:20412   */\n      tag_407\n        /* \"#utility.yul\":20406:20411   */\n      dup2\n        /* \"#utility.yul\":20379:20412   */\n      tag_199\n      jump\t// in\n    tag_407:\n        /* \"#utility.yul\":20275:20418   */\n      swap3\n      swap2\n      pop\n      pop\n      jump\t// out\n        /* \"#utility.yul\":20424:20775   */\n    tag_168:\n        /* \"#utility.yul\":20494:20500   */\n      0x00\n        /* \"#utility.yul\":20543:20545   */\n      0x20\n        /* \"#utility.yul\":20531:20540   */\n      dup3\n        /* \"#utility.yul\":20522:20529   */\n      dup5\n        /* \"#utility.yul\":20518:20541   */\n      sub\n        /* \"#utility.yul\":20514:20546   */\n      slt\n        /* \"#utility.yul\":20511:20630   */\n      iszero\n      tag_409\n      jumpi\n        /* \"#utility.yul\":20549:20628   */\n      tag_410\n      tag_192\n      jump\t// in\n    tag_410:\n        /* \"#utility.yul\":20511:20630   */\n    tag_409:\n        /* \"#utility.yul\":20669:20670   */\n      0x00\n        /* \"#utility.yul\":20694:20758   */\n      tag_411\n        /* \"#utility.yul\":20750:20757   */\n      dup5\n        /* \"#utility.yul\":20741:20747   */\n      dup3\n        /* \"#utility.yul\":20730:20739   */\n      dup6\n        /* \"#utility.yul\":20726:20748   */\n      add\n        /* \"#utility.yul\":20694:20758   */\n      tag_230\n      jump\t// in\n    tag_411:\n        /* \"#utility.yul\":20684:20758   */\n      swap2\n      pop\n        /* \"#utility.yul\":20640:20768   */\n      pop\n        /* \"#utility.yul\":20424:20775   */\n      swap3\n      swap2\n      pop\n      pop\n      jump\t// out\n        /* \"#utility.yul\":20781:21113   */\n    tag_170:\n        /* \"#utility.yul\":20902:20906   */\n      0x00\n        /* \"#utility.yul\":20940:20942   */\n      0x40\n        /* \"#utility.yul\":20929:20938   */\n      dup3\n        /* \"#utility.yul\":20925:20943   */\n      add\n        /* \"#utility.yul\":20917:20943   */\n      swap1\n      pop\n        /* \"#utility.yul\":20953:21024   */\n      tag_413\n        /* \"#utility.yul\":21021:21022   */\n      0x00\n        /* \"#utility.yul\":21010:21019   */\n      dup4\n        /* \"#utility.yul\":21006:21023   */\n      add\n        /* \"#utility.yul\":20997:21003   */\n      dup6\n        /* \"#utility.yul\":20953:21024   */\n      tag_198\n      jump\t// in\n    tag_413:\n        /* \"#utility.yul\":21034:21106   */\n      tag_414\n        /* \"#utility.yul\":21102:21104   */\n      0x20\n        /* \"#utility.yul\":21091:21100   */\n      dup4\n        /* \"#utility.yul\":21087:21105   */\n      add\n        /* \"#utility.yul\":21078:21084   */\n      dup5\n        /* \"#utility.yul\":21034:21106   */\n      tag_190\n      jump\t// in\n    tag_414:\n        /* \"#utility.yul\":20781:21113   */\n      swap4\n      swap3\n      pop\n      pop\n      pop\n      jump\t// out\n        /* \"#utility.yul\":21119:21352   */\n    tag_172:\n        /* \"#utility.yul\":21158:21161   */\n      0x00\n        /* \"#utility.yul\":21181:21205   */\n      tag_416\n        /* \"#utility.yul\":21199:21204   */\n      dup3\n        /* \"#utility.yul\":21181:21205   */\n      tag_189\n      jump\t// in\n    tag_416:\n        /* \"#utility.yul\":21172:21205   */\n      swap2\n      pop\n        /* \"#utility.yul\":21227:21293   */\n      0xffffffffffffffffffffffffffffffffffffffffffffffffffffffffffffffff\n        /* \"#utility.yul\":21220:21225   */\n      dup3\n        /* \"#utility.yul\":21217:21294   */\n      sub\n        /* \"#utility.yul\":21214:21317   */\n      tag_417\n      jumpi\n        /* \"#utility.yul\":21297:21315   */\n      tag_418\n      tag_214\n      jump\t// in\n    tag_418:\n        /* \"#utility.yul\":21214:21317   */\n    tag_417:\n        /* \"#utility.yul\":21344:21345   */\n      0x01\n        /* \"#utility.yul\":21337:21342   */\n      dup3\n        /* \"#utility.yul\":21333:21346   */\n      add\n        /* \"#utility.yul\":21326:21346   */\n      swap1\n      pop\n        /* \"#utility.yul\":21119:21352   */\n      swap2\n      swap1\n      pop\n      jump\t// out\n        /* \"#utility.yul\":21358:21706   */\n    tag_183:\n        /* \"#utility.yul\":21398:21405   */\n      0x00\n        /* \"#utility.yul\":21421:21441   */\n      tag_420\n        /* \"#utility.yul\":21439:21440   */\n      dup3\n        /* \"#utility.yul\":21421:21441   */\n      tag_189\n      jump\t// in\n    tag_420:\n        /* \"#utility.yul\":21416:21441   */\n      swap2\n      pop\n        /* \"#utility.yul\":21455:21475   */\n      tag_421\n        /* \"#utility.yul\":21473:21474   */\n      dup4\n        /* \"#utility.yul\":21455:21475   */\n      tag_189\n      jump\t// in\n    tag_421:\n        /* \"#utility.yul\":21450:21475   */\n      swap3\n      pop\n        /* \"#utility.yul\":21643:21644   */\n      dup2\n        /* \"#utility.yul\":21575:21641   */\n      0xffffffffffffffffffffffffffffffffffffffffffffffffffffffffffffffff\n        /* \"#utility.yul\":21571:21645   */\n      div\n        /* \"#utility.yul\":21568:21569   */\n      dup4\n        /* \"#utility.yul\":21565:21646   */\n      gt\n        /* \"#utility.yul\":21560:21561   */\n      dup3\n        /* \"#utility.yul\":21553:21562   */\n      iszero\n        /* \"#utility.yul\":21546:21563   */\n      iszero\n        /* \"#utility.yul\":21542:21647   */\n      and\n        /* \"#utility.yul\":21539:21670   */\n      iszero\n      tag_422\n      jumpi\n        /* \"#utility.yul\":21650:21668   */\n      tag_423\n      tag_214\n      jump\t// in\n    tag_423:\n        /* \"#utility.yul\":21539:21670   */\n    tag_422:\n        /* \"#utility.yul\":21698:21699   */\n      dup3\n        /* \"#utility.yul\":21695:21696   */\n      dup3\n        /* \"#utility.yul\":21691:21700   */\n      mul\n        /* \"#utility.yul\":21680:21700   */\n      swap1\n      pop\n        /* \"#utility.yul\":21358:21706   */\n      swap3\n      swap2\n      pop\n      pop\n      jump\t// out\n        /* \"#utility.yul\":21712:21892   */\n    tag_231:\n        /* \"#utility.yul\":21760:21837   */\n      0x4e487b7100000000000000000000000000000000000000000000000000000000\n        /* \"#utility.yul\":21757:21758   */\n      0x00\n        /* \"#utility.yul\":21750:21838   */\n      mstore\n        /* \"#utility.yul\":21857:21861   */\n      0x12\n        /* \"#utility.yul\":21854:21855   */\n      0x04\n        /* \"#utility.yul\":21847:21862   */\n      mstore\n        /* \"#utility.yul\":21881:21885   */\n      0x24\n        /* \"#utility.yul\":21878:21879   */\n      0x00\n        /* \"#utility.yul\":21871:21886   */\n      revert\n        /* \"#utility.yul\":21898:22083   */\n    tag_185:\n        /* \"#utility.yul\":21938:21939   */\n      0x00\n        /* \"#utility.yul\":21955:21975   */\n      tag_426\n        /* \"#utility.yul\":21973:21974   */\n      dup3\n        /* \"#utility.yul\":21955:21975   */\n      tag_189\n      jump\t// in\n    tag_426:\n        /* \"#utility.yul\":21950:21975   */\n      swap2\n      pop\n        /* \"#utility.yul\":21989:22009   */\n      tag_427\n        /* \"#utility.yul\":22007:22008   */\n      dup4\n        /* \"#utility.yul\":21989:22009   */\n      tag_189\n      jump\t// in\n    tag_427:\n        /* \"#utility.yul\":21984:22009   */\n      swap3\n      pop\n        /* \"#utility.yul\":22028:22029   */\n      dup3\n        /* \"#utility.yul\":22018:22053   */\n      tag_428\n      jumpi\n        /* \"#utility.yul\":22033:22051   */\n      tag_429\n      tag_231\n      jump\t// in\n    tag_429:\n        /* \"#utility.yul\":22018:22053   */\n    tag_428:\n        /* \"#utility.yul\":22075:22076   */\n      dup3\n        /* \"#utility.yul\":22072:22073   */\n      dup3\n        /* \"#utility.yul\":22068:22077   */\n      div\n        /* \"#utility.yul\":22063:22077   */\n      swap1\n      pop\n        /* \"#utility.yul\":21898:22083   */\n      swap3\n      swap2\n      pop\n      pop\n      jump\t// out\n\n    auxdata: 0xa26469706673582212205ad199d3c50f3fdd1bccb5cd543b7b914e0672e24db69d5c4725e287025826bd64736f6c63430008100033\n}\n",
				"bytecode": {
					"linkReferences": {},
					"object": "608060405234801561001057600080fd5b50612eef806100206000396000f3fe608060405234801561001057600080fd5b50600436106100b45760003560e01c80637b3c4baa116100715780637b3c4baa146101635780638f769f3a14610196578063a23b02bd146101b2578063e1267929146101e2578063e1ec3c68146101fe578063f724e48e14610237576100b4565b806306661abd146100b957806318de4f9d146100d75780632ac9bf09146100f357806340e58ee51461010f578063415f12401461012b5780637870860b14610147575b600080fd5b6100c1610253565b6040516100ce9190612396565b60405180910390f35b6100f160048036038101906100ec91906123e2565b610259565b005b61010d6004803603810190610108919061240f565b610665565b005b610129600480360381019061012491906123e2565b610ae5565b005b610145600480360381019061014091906123e2565b610e4a565b005b610161600480360381019061015c91906123e2565b6111fa565b005b61017d60048036038101906101789190612462565b611693565b60405161018d94939291906124e3565b60405180910390f35b6101b060048036038101906101ab9190612554565b6116f0565b005b6101cc60048036038101906101c79190612554565b611a51565b6040516101d991906125af565b60405180910390f35b6101fc60048036038101906101f791906125f6565b611a80565b005b610218600480360381019061021391906123e2565b611e30565b60405161022e9a99989796959493929190612698565b60405180910390f35b610251600480360381019061024c9190612734565b611f11565b005b60005481565b803373ffffffffffffffffffffffffffffffffffffffff166001600083815260200190815260200160002060000160009054906101000a900473ffffffffffffffffffffffffffffffffffffffff1673ffffffffffffffffffffffffffffffffffffffff16148061032b57503373ffffffffffffffffffffffffffffffffffffffff166001600083815260200190815260200160002060020160009054906101000a900473ffffffffffffffffffffffffffffffffffffffff1673ffffffffffffffffffffffffffffffffffffffff16145b61036a576040517f08c379a0000000000000000000000000000000000000000000000000000000008152600401610361906127e4565b60405180910390fd5b600060016000848152602001908152602001600020604051806101400160405290816000820160009054906101000a900473ffffffffffffffffffffffffffffffffffffffff1673ffffffffffffffffffffffffffffffffffffffff1673ffffffffffffffffffffffffffffffffffffffff1681526020016001820160009054906101000a900473ffffffffffffffffffffffffffffffffffffffff1673ffffffffffffffffffffffffffffffffffffffff1673ffffffffffffffffffffffffffffffffffffffff1681526020016002820160009054906101000a900473ffffffffffffffffffffffffffffffffffffffff1673ffffffffffffffffffffffffffffffffffffffff1673ffffffffffffffffffffffffffffffffffffffff1681526020016003820160009054906101000a900473ffffffffffffffffffffffffffffffffffffffff1673ffffffffffffffffffffffffffffffffffffffff1673ffffffffffffffffffffffffffffffffffffffff16815260200160048201548152602001600582015481526020016006820154815260200160078201548152602001600882015481526020016009820160009054906101000a900460ff16151515158152505090506000600260008581526020019081526020016000206000836101000151815260200190815260200160002060405180608001604052908160008201548152602001600182015481526020016002820160009054906101000a900473ffffffffffffffffffffffffffffffffffffffff1673ffffffffffffffffffffffffffffffffffffffff1673ffffffffffffffffffffffffffffffffffffffff16815260200160038201548152505090506000826060015190508073ffffffffffffffffffffffffffffffffffffffff166342842e0e30846040015186608001516040518463ffffffff1660e01b815260040161062c93929190612804565b600060405180830381600087803b15801561064657600080fd5b505af115801561065a573d6000803e3d6000fd5b505050505050505050565b61066e83611f7e565b6106ad576040517f08c379a00000000000000000000000000000000000000000000000000000000081526004016106a490612887565b60405180910390fd5b6106b683611fa0565b156106f6576040517f08c379a00000000000000000000000000000000000000000000000000000000081526004016106ed906128f3565b60405180910390fd5b60006001600085815260200190815260200160002090508060090160009054906101000a900460ff16801561078557506003600085815260200190815260200160002060003373ffffffffffffffffffffffffffffffffffffffff1673ffffffffffffffffffffffffffffffffffffffff16815260200190815260200160002060009054906101000a900460ff165b806107a55750600015158160090160009054906101000a900460ff161515145b6107e4576040517f08c379a00000000000000000000000000000000000000000000000000000000081526004016107db9061295f565b60405180910390fd5b6000600182600801546107f791906129ae565b9050808260080181905550600061080d86611fc3565b9050808511610851576040517f08c379a000000000000000000000000000000000000000000000000000000000815260040161084890612a2e565b60405180910390fd5b8260010160009054906101000a900473ffffffffffffffffffffffffffffffffffffffff1673ffffffffffffffffffffffffffffffffffffffff166323b872dd33600260008a8152602001908152602001600020600086815260200190815260200160002060020160009054906101000a900473ffffffffffffffffffffffffffffffffffffffff16846040518463ffffffff1660e01b81526004016108f993929190612804565b6020604051808303816000875af1158015610918573d6000803e3d6000fd5b505050506040513d601f19601f8201168201806040525081019061093c9190612a63565b508260010160009054906101000a900473ffffffffffffffffffffffffffffffffffffffff1673ffffffffffffffffffffffffffffffffffffffff166323b872dd338560000160009054906101000a900473ffffffffffffffffffffffffffffffffffffffff1684896109af9190612a90565b6040518463ffffffff1660e01b81526004016109cd93929190612804565b6020604051808303816000875af11580156109ec573d6000803e3d6000fd5b505050506040513d601f19601f82011682018060405250810190610a109190612a63565b5083836007018190555060405180608001604052804281526020018681526020013373ffffffffffffffffffffffffffffffffffffffff16815260200185815250600260008881526020019081526020016000206000848152602001908152602001600020600082015181600001556020820151816001015560408201518160020160006101000a81548173ffffffffffffffffffffffffffffffffffffffff021916908373ffffffffffffffffffffffffffffffffffffffff16021790555060608201518160030155905050505050505050565b803373ffffffffffffffffffffffffffffffffffffffff166001600083815260200190815260200160002060000160009054906101000a900473ffffffffffffffffffffffffffffffffffffffff1673ffffffffffffffffffffffffffffffffffffffff161480610bb757503373ffffffffffffffffffffffffffffffffffffffff166001600083815260200190815260200160002060020160009054906101000a900473ffffffffffffffffffffffffffffffffffffffff1673ffffffffffffffffffffffffffffffffffffffff16145b610bf6576040517f08c379a0000000000000000000000000000000000000000000000000000000008152600401610bed906127e4565b60405180910390fd5b600060016000848152602001908152602001600020604051806101400160405290816000820160009054906101000a900473ffffffffffffffffffffffffffffffffffffffff1673ffffffffffffffffffffffffffffffffffffffff1673ffffffffffffffffffffffffffffffffffffffff1681526020016001820160009054906101000a900473ffffffffffffffffffffffffffffffffffffffff1673ffffffffffffffffffffffffffffffffffffffff1673ffffffffffffffffffffffffffffffffffffffff1681526020016002820160009054906101000a900473ffffffffffffffffffffffffffffffffffffffff1673ffffffffffffffffffffffffffffffffffffffff1673ffffffffffffffffffffffffffffffffffffffff1681526020016003820160009054906101000a900473ffffffffffffffffffffffffffffffffffffffff1673ffffffffffffffffffffffffffffffffffffffff1673ffffffffffffffffffffffffffffffffffffffff16815260200160048201548152602001600582015481526020016006820154815260200160078201548152602001600882015481526020016009820160009054906101000a900460ff1615151515815250509050428160a0015111610e04576040517f08c379a0000000000000000000000000000000000000000000000000000000008152600401610dfb90612b10565b60405180910390fd5b610e0c6122d0565b90507ffe785ef891129b084b1c5a30e4d88eb97c97822c024cc25d5f9d806b897512e083604051610e3d9190612396565b60405180910390a1505050565b600060016000838152602001908152602001600020604051806101400160405290816000820160009054906101000a900473ffffffffffffffffffffffffffffffffffffffff1673ffffffffffffffffffffffffffffffffffffffff1673ffffffffffffffffffffffffffffffffffffffff1681526020016001820160009054906101000a900473ffffffffffffffffffffffffffffffffffffffff1673ffffffffffffffffffffffffffffffffffffffff1673ffffffffffffffffffffffffffffffffffffffff1681526020016002820160009054906101000a900473ffffffffffffffffffffffffffffffffffffffff1673ffffffffffffffffffffffffffffffffffffffff1673ffffffffffffffffffffffffffffffffffffffff1681526020016003820160009054906101000a900473ffffffffffffffffffffffffffffffffffffffff1673ffffffffffffffffffffffffffffffffffffffff1673ffffffffffffffffffffffffffffffffffffffff16815260200160048201548152602001600582015481526020016006820154815260200160078201548152602001600882015481526020016009820160009054906101000a900460ff161515151581525050905061101b82611fa0565b61105a576040517f08c379a000000000000000000000000000000000000000000000000000000000815260040161105190612b7c565b60405180910390fd5b6000600260008481526020019081526020016000206000836101000151815260200190815260200160002060405180608001604052908160008201548152602001600182015481526020016002820160009054906101000a900473ffffffffffffffffffffffffffffffffffffffff1673ffffffffffffffffffffffffffffffffffffffff1673ffffffffffffffffffffffffffffffffffffffff16815260200160038201548152505090503373ffffffffffffffffffffffffffffffffffffffff16816040015173ffffffffffffffffffffffffffffffffffffffff1614611178576040517f08c379a000000000000000000000000000000000000000000000000000000000815260040161116f90612be8565b60405180910390fd5b6000826060015190508073ffffffffffffffffffffffffffffffffffffffff166342842e0e303386608001516040518463ffffffff1660e01b81526004016111c293929190612804565b600060405180830381600087803b1580156111dc57600080fd5b505af11580156111f0573d6000803e3d6000fd5b5050505050505050565b803373ffffffffffffffffffffffffffffffffffffffff166001600083815260200190815260200160002060000160009054906101000a900473ffffffffffffffffffffffffffffffffffffffff1673ffffffffffffffffffffffffffffffffffffffff1614806112cc57503373ffffffffffffffffffffffffffffffffffffffff166001600083815260200190815260200160002060020160009054906101000a900473ffffffffffffffffffffffffffffffffffffffff1673ffffffffffffffffffffffffffffffffffffffff16145b61130b576040517f08c379a0000000000000000000000000000000000000000000000000000000008152600401611302906127e4565b60405180910390fd5b600060016000848152602001908152602001600020604051806101400160405290816000820160009054906101000a900473ffffffffffffffffffffffffffffffffffffffff1673ffffffffffffffffffffffffffffffffffffffff1673ffffffffffffffffffffffffffffffffffffffff1681526020016001820160009054906101000a900473ffffffffffffffffffffffffffffffffffffffff1673ffffffffffffffffffffffffffffffffffffffff1673ffffffffffffffffffffffffffffffffffffffff1681526020016002820160009054906101000a900473ffffffffffffffffffffffffffffffffffffffff1673ffffffffffffffffffffffffffffffffffffffff1673ffffffffffffffffffffffffffffffffffffffff1681526020016003820160009054906101000a900473ffffffffffffffffffffffffffffffffffffffff1673ffffffffffffffffffffffffffffffffffffffff1673ffffffffffffffffffffffffffffffffffffffff16815260200160048201548152602001600582015481526020016006820154815260200160078201548152602001600882015481526020016009820160009054906101000a900460ff16151515158152505090506000600260008581526020019081526020016000206000836101000151815260200190815260200160002060405180608001604052908160008201548152602001600182015481526020016002820160009054906101000a900473ffffffffffffffffffffffffffffffffffffffff1673ffffffffffffffffffffffffffffffffffffffff1673ffffffffffffffffffffffffffffffffffffffff1681526020016003820154815250509050816020015173ffffffffffffffffffffffffffffffffffffffff166323b872dd3383604001516115ae88611fc3565b6040518463ffffffff1660e01b81526004016115cc93929190612804565b6020604051808303816000875af11580156115eb573d6000803e3d6000fd5b505050506040513d601f19601f8201168201806040525081019061160f9190612a63565b506000826060015190508073ffffffffffffffffffffffffffffffffffffffff166342842e0e303386608001516040518463ffffffff1660e01b815260040161165a93929190612804565b600060405180830381600087803b15801561167457600080fd5b505af1158015611688573d6000803e3d6000fd5b505050505050505050565b6002602052816000526040600020602052806000526040600020600091509150508060000154908060010154908060020160009054906101000a900473ffffffffffffffffffffffffffffffffffffffff16908060030154905084565b6116f982611f7e565b611738576040517f08c379a000000000000000000000000000000000000000000000000000000000815260040161172f90612887565b60405180910390fd5b61174182611fa0565b15611781576040517f08c379a0000000000000000000000000000000000000000000000000000000008152600401611778906128f3565b60405180910390fd5b600060016000848152602001908152602001600020604051806101400160405290816000820160009054906101000a900473ffffffffffffffffffffffffffffffffffffffff1673ffffffffffffffffffffffffffffffffffffffff1673ffffffffffffffffffffffffffffffffffffffff1681526020016001820160009054906101000a900473ffffffffffffffffffffffffffffffffffffffff1673ffffffffffffffffffffffffffffffffffffffff1673ffffffffffffffffffffffffffffffffffffffff1681526020016002820160009054906101000a900473ffffffffffffffffffffffffffffffffffffffff1673ffffffffffffffffffffffffffffffffffffffff1673ffffffffffffffffffffffffffffffffffffffff1681526020016003820160009054906101000a900473ffffffffffffffffffffffffffffffffffffffff1673ffffffffffffffffffffffffffffffffffffffff1673ffffffffffffffffffffffffffffffffffffffff16815260200160048201548152602001600582015481526020016006820154815260200160078201548152602001600882015481526020016009820160009054906101000a900460ff16151515158152505090506000600260008581526020019081526020016000206000836101000151815260200190815260200160002090503373ffffffffffffffffffffffffffffffffffffffff168160020160009054906101000a900473ffffffffffffffffffffffffffffffffffffffff1673ffffffffffffffffffffffffffffffffffffffff1614611a08576040517f08c379a00000000000000000000000000000000000000000000000000000000081526004016119ff90612c54565b60405180910390fd5b828160020160006101000a81548173ffffffffffffffffffffffffffffffffffffffff021916908373ffffffffffffffffffffffffffffffffffffffff16021790555050505050565b60036020528160005260406000206020528060005260406000206000915091509054906101000a900460ff1681565b42831015611ac3576040517f08c379a0000000000000000000000000000000000000000000000000000000008152600401611aba90612cc0565b60405180910390fd5b828211611b05576040517f08c379a0000000000000000000000000000000000000000000000000000000008152600401611afc90612d2c565b60405180910390fd5b6040518061014001604052808673ffffffffffffffffffffffffffffffffffffffff16636352211e876040518263ffffffff1660e01b8152600401611b4a9190612396565b602060405180830381865afa158015611b67573d6000803e3d6000fd5b505050506040513d601f19601f82011682018060405250810190611b8b9190612d61565b73ffffffffffffffffffffffffffffffffffffffff1681526020018773ffffffffffffffffffffffffffffffffffffffff1681526020018873ffffffffffffffffffffffffffffffffffffffff1681526020018673ffffffffffffffffffffffffffffffffffffffff1681526020018581526020018481526020018381526020016000815260200160008152602001821515815250600160008054815260200190815260200160002060008201518160000160006101000a81548173ffffffffffffffffffffffffffffffffffffffff021916908373ffffffffffffffffffffffffffffffffffffffff16021790555060208201518160010160006101000a81548173ffffffffffffffffffffffffffffffffffffffff021916908373ffffffffffffffffffffffffffffffffffffffff16021790555060408201518160020160006101000a81548173ffffffffffffffffffffffffffffffffffffffff021916908373ffffffffffffffffffffffffffffffffffffffff16021790555060608201518160030160006101000a81548173ffffffffffffffffffffffffffffffffffffffff021916908373ffffffffffffffffffffffffffffffffffffffff1602179055506080820151816004015560a0820151816005015560c0820151816006015560e0820151816007015561010082015181600801556101208201518160090160006101000a81548160ff0219169083151502179055509050504260026000805481526020019081526020016000206000808152602001908152602001600020600001819055506000547fef8b2952c43462575e82711d0cc91169720a4589a9fa533d173e022437f5405e8686604051611e08929190612d8e565b60405180910390a2600080815480929190611e2290612db7565b919050555050505050505050565b60016020528060005260406000206000915090508060000160009054906101000a900473ffffffffffffffffffffffffffffffffffffffff16908060010160009054906101000a900473ffffffffffffffffffffffffffffffffffffffff16908060020160009054906101000a900473ffffffffffffffffffffffffffffffffffffffff16908060030160009054906101000a900473ffffffffffffffffffffffffffffffffffffffff16908060040154908060050154908060060154908060070154908060080154908060090160009054906101000a900460ff1690508a565b806003600085815260200190815260200160002060008473ffffffffffffffffffffffffffffffffffffffff1673ffffffffffffffffffffffffffffffffffffffff16815260200190815260200160002060006101000a81548160ff021916908315150217905550505050565b6000426001600084815260200190815260200160002060050154109050919050565b600042600160008481526020019081526020016000206006015411159050919050565b60008060016000848152602001908152602001600020604051806101400160405290816000820160009054906101000a900473ffffffffffffffffffffffffffffffffffffffff1673ffffffffffffffffffffffffffffffffffffffff1673ffffffffffffffffffffffffffffffffffffffff1681526020016001820160009054906101000a900473ffffffffffffffffffffffffffffffffffffffff1673ffffffffffffffffffffffffffffffffffffffff1673ffffffffffffffffffffffffffffffffffffffff1681526020016002820160009054906101000a900473ffffffffffffffffffffffffffffffffffffffff1673ffffffffffffffffffffffffffffffffffffffff1673ffffffffffffffffffffffffffffffffffffffff1681526020016003820160009054906101000a900473ffffffffffffffffffffffffffffffffffffffff1673ffffffffffffffffffffffffffffffffffffffff1673ffffffffffffffffffffffffffffffffffffffff16815260200160048201548152602001600582015481526020016006820154815260200160078201548152602001600882015481526020016009820160009054906101000a900460ff16151515158152505090506000600260008581526020019081526020016000206000836101000151815260200190815260200160002060405180608001604052908160008201548152602001600182015481526020016002820160009054906101000a900473ffffffffffffffffffffffffffffffffffffffff1673ffffffffffffffffffffffffffffffffffffffff1673ffffffffffffffffffffffffffffffffffffffff1681526020016003820154815250509050600061224385611fa0565b15612263578260c00151826000015161225c9190612a90565b9050612276565b4282600001516122739190612a90565b90505b6301e1338081670de0b6b3a76400008560e0015185602001516122999190612dff565b6122a39190612e88565b6122ad9190612dff565b6122b79190612e88565b82602001516122c691906129ae565b9350505050919050565b604051806101400160405280600073ffffffffffffffffffffffffffffffffffffffff168152602001600073ffffffffffffffffffffffffffffffffffffffff168152602001600073ffffffffffffffffffffffffffffffffffffffff168152602001600073ffffffffffffffffffffffffffffffffffffffff16815260200160008152602001600081526020016000815260200160008152602001600081526020016000151581525090565b6000819050919050565b6123908161237d565b82525050565b60006020820190506123ab6000830184612387565b92915050565b600080fd5b6123bf8161237d565b81146123ca57600080fd5b50565b6000813590506123dc816123b6565b92915050565b6000602082840312156123f8576123f76123b1565b5b6000612406848285016123cd565b91505092915050565b600080600060608486031215612428576124276123b1565b5b6000612436868287016123cd565b9350506020612447868287016123cd565b9250506040612458868287016123cd565b9150509250925092565b60008060408385031215612479576124786123b1565b5b6000612487858286016123cd565b9250506020612498858286016123cd565b9150509250929050565b600073ffffffffffffffffffffffffffffffffffffffff82169050919050565b60006124cd826124a2565b9050919050565b6124dd816124c2565b82525050565b60006080820190506124f86000830187612387565b6125056020830186612387565b61251260408301856124d4565b61251f6060830184612387565b95945050505050565b612531816124c2565b811461253c57600080fd5b50565b60008135905061254e81612528565b92915050565b6000806040838503121561256b5761256a6123b1565b5b6000612579858286016123cd565b925050602061258a8582860161253f565b9150509250929050565b60008115159050919050565b6125a981612594565b82525050565b60006020820190506125c460008301846125a0565b92915050565b6125d381612594565b81146125de57600080fd5b50565b6000813590506125f0816125ca565b92915050565b600080600080600080600060e0888a031215612615576126146123b1565b5b60006126238a828b0161253f565b97505060206126348a828b0161253f565b96505060406126458a828b0161253f565b95505060606126568a828b016123cd565b94505060806126678a828b016123cd565b93505060a06126788a828b016123cd565b92505060c06126898a828b016125e1565b91505092959891949750929550565b6000610140820190506126ae600083018d6124d4565b6126bb602083018c6124d4565b6126c8604083018b6124d4565b6126d5606083018a6124d4565b6126e26080830189612387565b6126ef60a0830188612387565b6126fc60c0830187612387565b61270960e0830186612387565b612717610100830185612387565b6127256101208301846125a0565b9b9a5050505050505050505050565b60008060006060848603121561274d5761274c6123b1565b5b600061275b868287016123cd565b935050602061276c8682870161253f565b925050604061277d868287016125e1565b9150509250925092565b600082825260208201905092915050565b7f4c414e3a206e6f74206f776e6572000000000000000000000000000000000000600082015250565b60006127ce600e83612787565b91506127d982612798565b602082019050919050565b600060208201905081810360008301526127fd816127c1565b9050919050565b600060608201905061281960008301866124d4565b61282660208301856124d4565b6128336040830184612387565b949350505050565b7f4c414e3a206e6f74207374617274656400000000000000000000000000000000600082015250565b6000612871601083612787565b915061287c8261283b565b602082019050919050565b600060208201905081810360008301526128a081612864565b9050919050565b7f4c414e3a20616c726561647920656e6465640000000000000000000000000000600082015250565b60006128dd601283612787565b91506128e8826128a7565b602082019050919050565b6000602082019050818103600083015261290c816128d0565b9050919050565b7f4c414e3a204e6f742057686974656c6973746564000000000000000000000000600082015250565b6000612949601483612787565b915061295482612913565b602082019050919050565b600060208201905081810360008301526129788161293c565b9050919050565b7f4e487b7100000000000000000000000000000000000000000000000000000000600052601160045260246000fd5b60006129b98261237d565b91506129c48361237d565b92508282019050808211156129dc576129db61297f565b5b92915050565b7f4c414e3a20626964206e6f742068696768657200000000000000000000000000600082015250565b6000612a18601383612787565b9150612a23826129e2565b602082019050919050565b60006020820190508181036000830152612a4781612a0b565b9050919050565b600081519050612a5d816125ca565b92915050565b600060208284031215612a7957612a786123b1565b5b6000612a8784828501612a4e565b91505092915050565b6000612a9b8261237d565b9150612aa68361237d565b9250828203905081811115612abe57612abd61297f565b5b92915050565b7f4c414e3a20616c72656164792073746172746564000000000000000000000000600082015250565b6000612afa601483612787565b9150612b0582612ac4565b602082019050919050565b60006020820190508181036000830152612b2981612aed565b9050919050565b7f4c414e3a206c6f616e206e6f7420656e64656400000000000000000000000000600082015250565b6000612b66601383612787565b9150612b7182612b30565b602082019050919050565b60006020820190508181036000830152612b9581612b59565b9050919050565b7f4c414e3a206e6f74206c61746573742062696464657200000000000000000000600082015250565b6000612bd2601683612787565b9150612bdd82612b9c565b602082019050919050565b60006020820190508181036000830152612c0181612bc5565b9050919050565b7f4c414e3a204e6f7420746865206c617465737420626964646572000000000000600082015250565b6000612c3e601a83612787565b9150612c4982612c08565b602082019050919050565b60006020820190508181036000830152612c6d81612c31565b9050919050565b7f4c414e3a2073746172742074696d6520696e2070617374000000000000000000600082015250565b6000612caa601783612787565b9150612cb582612c74565b602082019050919050565b60006020820190508181036000830152612cd981612c9d565b9050919050565b7f4c414e3a20737461727420616674657220656e64000000000000000000000000600082015250565b6000612d16601483612787565b9150612d2182612ce0565b602082019050919050565b60006020820190508181036000830152612d4581612d09565b9050919050565b600081519050612d5b81612528565b92915050565b600060208284031215612d7757612d766123b1565b5b6000612d8584828501612d4c565b91505092915050565b6000604082019050612da360008301856124d4565b612db06020830184612387565b9392505050565b6000612dc28261237d565b91507fffffffffffffffffffffffffffffffffffffffffffffffffffffffffffffffff8203612df457612df361297f565b5b600182019050919050565b6000612e0a8261237d565b9150612e158361237d565b9250817fffffffffffffffffffffffffffffffffffffffffffffffffffffffffffffffff0483118215151615612e4e57612e4d61297f565b5b828202905092915050565b7f4e487b7100000000000000000000000000000000000000000000000000000000600052601260045260246000fd5b6000612e938261237d565b9150612e9e8361237d565b925082612eae57612ead612e59565b5b82820490509291505056fea26469706673582212205ad199d3c50f3fdd1bccb5cd543b7b914e0672e24db69d5c4725e287025826bd64736f6c63430008100033",
					"opcodes": "PUSH1 0x80 PUSH1 0x40 MSTORE CALLVALUE DUP1 ISZERO PUSH2 0x10 JUMPI PUSH1 0x0 DUP1 REVERT JUMPDEST POP PUSH2 0x2EEF DUP1 PUSH2 0x20 PUSH1 0x0 CODECOPY PUSH1 0x0 RETURN INVALID PUSH1 0x80 PUSH1 0x40 MSTORE CALLVALUE DUP1 ISZERO PUSH2 0x10 JUMPI PUSH1 0x0 DUP1 REVERT JUMPDEST POP PUSH1 0x4 CALLDATASIZE LT PUSH2 0xB4 JUMPI PUSH1 0x0 CALLDATALOAD PUSH1 0xE0 SHR DUP1 PUSH4 0x7B3C4BAA GT PUSH2 0x71 JUMPI DUP1 PUSH4 0x7B3C4BAA EQ PUSH2 0x163 JUMPI DUP1 PUSH4 0x8F769F3A EQ PUSH2 0x196 JUMPI DUP1 PUSH4 0xA23B02BD EQ PUSH2 0x1B2 JUMPI DUP1 PUSH4 0xE1267929 EQ PUSH2 0x1E2 JUMPI DUP1 PUSH4 0xE1EC3C68 EQ PUSH2 0x1FE JUMPI DUP1 PUSH4 0xF724E48E EQ PUSH2 0x237 JUMPI PUSH2 0xB4 JUMP JUMPDEST DUP1 PUSH4 0x6661ABD EQ PUSH2 0xB9 JUMPI DUP1 PUSH4 0x18DE4F9D EQ PUSH2 0xD7 JUMPI DUP1 PUSH4 0x2AC9BF09 EQ PUSH2 0xF3 JUMPI DUP1 PUSH4 0x40E58EE5 EQ PUSH2 0x10F JUMPI DUP1 PUSH4 0x415F1240 EQ PUSH2 0x12B JUMPI DUP1 PUSH4 0x7870860B EQ PUSH2 0x147 JUMPI JUMPDEST PUSH1 0x0 DUP1 REVERT JUMPDEST PUSH2 0xC1 PUSH2 0x253 JUMP JUMPDEST PUSH1 0x40 MLOAD PUSH2 0xCE SWAP2 SWAP1 PUSH2 0x2396 JUMP JUMPDEST PUSH1 0x40 MLOAD DUP1 SWAP2 SUB SWAP1 RETURN JUMPDEST PUSH2 0xF1 PUSH1 0x4 DUP1 CALLDATASIZE SUB DUP2 ADD SWAP1 PUSH2 0xEC SWAP2 SWAP1 PUSH2 0x23E2 JUMP JUMPDEST PUSH2 0x259 JUMP JUMPDEST STOP JUMPDEST PUSH2 0x10D PUSH1 0x4 DUP1 CALLDATASIZE SUB DUP2 ADD SWAP1 PUSH2 0x108 SWAP2 SWAP1 PUSH2 0x240F JUMP JUMPDEST PUSH2 0x665 JUMP JUMPDEST STOP JUMPDEST PUSH2 0x129 PUSH1 0x4 DUP1 CALLDATASIZE SUB DUP2 ADD SWAP1 PUSH2 0x124 SWAP2 SWAP1 PUSH2 0x23E2 JUMP JUMPDEST PUSH2 0xAE5 JUMP JUMPDEST STOP JUMPDEST PUSH2 0x145 PUSH1 0x4 DUP1 CALLDATASIZE SUB DUP2 ADD SWAP1 PUSH2 0x140 SWAP2 SWAP1 PUSH2 0x23E2 JUMP JUMPDEST PUSH2 0xE4A JUMP JUMPDEST STOP JUMPDEST PUSH2 0x161 PUSH1 0x4 DUP1 CALLDATASIZE SUB DUP2 ADD SWAP1 PUSH2 0x15C SWAP2 SWAP1 PUSH2 0x23E2 JUMP JUMPDEST PUSH2 0x11FA JUMP JUMPDEST STOP JUMPDEST PUSH2 0x17D PUSH1 0x4 DUP1 CALLDATASIZE SUB DUP2 ADD SWAP1 PUSH2 0x178 SWAP2 SWAP1 PUSH2 0x2462 JUMP JUMPDEST PUSH2 0x1693 JUMP JUMPDEST PUSH1 0x40 MLOAD PUSH2 0x18D SWAP5 SWAP4 SWAP3 SWAP2 SWAP1 PUSH2 0x24E3 JUMP JUMPDEST PUSH1 0x40 MLOAD DUP1 SWAP2 SUB SWAP1 RETURN JUMPDEST PUSH2 0x1B0 PUSH1 0x4 DUP1 CALLDATASIZE SUB DUP2 ADD SWAP1 PUSH2 0x1AB SWAP2 SWAP1 PUSH2 0x2554 JUMP JUMPDEST PUSH2 0x16F0 JUMP JUMPDEST STOP JUMPDEST PUSH2 0x1CC PUSH1 0x4 DUP1 CALLDATASIZE SUB DUP2 ADD SWAP1 PUSH2 0x1C7 SWAP2 SWAP1 PUSH2 0x2554 JUMP JUMPDEST PUSH2 0x1A51 JUMP JUMPDEST PUSH1 0x40 MLOAD PUSH2 0x1D9 SWAP2 SWAP1 PUSH2 0x25AF JUMP JUMPDEST PUSH1 0x40 MLOAD DUP1 SWAP2 SUB SWAP1 RETURN JUMPDEST PUSH2 0x1FC PUSH1 0x4 DUP1 CALLDATASIZE SUB DUP2 ADD SWAP1 PUSH2 0x1F7 SWAP2 SWAP1 PUSH2 0x25F6 JUMP JUMPDEST PUSH2 0x1A80 JUMP JUMPDEST STOP JUMPDEST PUSH2 0x218 PUSH1 0x4 DUP1 CALLDATASIZE SUB DUP2 ADD SWAP1 PUSH2 0x213 SWAP2 SWAP1 PUSH2 0x23E2 JUMP JUMPDEST PUSH2 0x1E30 JUMP JUMPDEST PUSH1 0x40 MLOAD PUSH2 0x22E SWAP11 SWAP10 SWAP9 SWAP8 SWAP7 SWAP6 SWAP5 SWAP4 SWAP3 SWAP2 SWAP1 PUSH2 0x2698 JUMP JUMPDEST PUSH1 0x40 MLOAD DUP1 SWAP2 SUB SWAP1 RETURN JUMPDEST PUSH2 0x251 PUSH1 0x4 DUP1 CALLDATASIZE SUB DUP2 ADD SWAP1 PUSH2 0x24C SWAP2 SWAP1 PUSH2 0x2734 JUMP JUMPDEST PUSH2 0x1F11 JUMP JUMPDEST STOP JUMPDEST PUSH1 0x0 SLOAD DUP2 JUMP JUMPDEST DUP1 CALLER PUSH20 0xFFFFFFFFFFFFFFFFFFFFFFFFFFFFFFFFFFFFFFFF AND PUSH1 0x1 PUSH1 0x0 DUP4 DUP2 MSTORE PUSH1 0x20 ADD SWAP1 DUP2 MSTORE PUSH1 0x20 ADD PUSH1 0x0 KECCAK256 PUSH1 0x0 ADD PUSH1 0x0 SWAP1 SLOAD SWAP1 PUSH2 0x100 EXP SWAP1 DIV PUSH20 0xFFFFFFFFFFFFFFFFFFFFFFFFFFFFFFFFFFFFFFFF AND PUSH20 0xFFFFFFFFFFFFFFFFFFFFFFFFFFFFFFFFFFFFFFFF AND EQ DUP1 PUSH2 0x32B JUMPI POP CALLER PUSH20 0xFFFFFFFFFFFFFFFFFFFFFFFFFFFFFFFFFFFFFFFF AND PUSH1 0x1 PUSH1 0x0 DUP4 DUP2 MSTORE PUSH1 0x20 ADD SWAP1 DUP2 MSTORE PUSH1 0x20 ADD PUSH1 0x0 KECCAK256 PUSH1 0x2 ADD PUSH1 0x0 SWAP1 SLOAD SWAP1 PUSH2 0x100 EXP SWAP1 DIV PUSH20 0xFFFFFFFFFFFFFFFFFFFFFFFFFFFFFFFFFFFFFFFF AND PUSH20 0xFFFFFFFFFFFFFFFFFFFFFFFFFFFFFFFFFFFFFFFF AND EQ JUMPDEST PUSH2 0x36A JUMPI PUSH1 0x40 MLOAD PUSH32 0x8C379A000000000000000000000000000000000000000000000000000000000 DUP2 MSTORE PUSH1 0x4 ADD PUSH2 0x361 SWAP1 PUSH2 0x27E4 JUMP JUMPDEST PUSH1 0x40 MLOAD DUP1 SWAP2 SUB SWAP1 REVERT JUMPDEST PUSH1 0x0 PUSH1 0x1 PUSH1 0x0 DUP5 DUP2 MSTORE PUSH1 0x20 ADD SWAP1 DUP2 MSTORE PUSH1 0x20 ADD PUSH1 0x0 KECCAK256 PUSH1 0x40 MLOAD DUP1 PUSH2 0x140 ADD PUSH1 0x40 MSTORE SWAP1 DUP2 PUSH1 0x0 DUP3 ADD PUSH1 0x0 SWAP1 SLOAD SWAP1 PUSH2 0x100 EXP SWAP1 DIV PUSH20 0xFFFFFFFFFFFFFFFFFFFFFFFFFFFFFFFFFFFFFFFF AND PUSH20 0xFFFFFFFFFFFFFFFFFFFFFFFFFFFFFFFFFFFFFFFF AND PUSH20 0xFFFFFFFFFFFFFFFFFFFFFFFFFFFFFFFFFFFFFFFF AND DUP2 MSTORE PUSH1 0x20 ADD PUSH1 0x1 DUP3 ADD PUSH1 0x0 SWAP1 SLOAD SWAP1 PUSH2 0x100 EXP SWAP1 DIV PUSH20 0xFFFFFFFFFFFFFFFFFFFFFFFFFFFFFFFFFFFFFFFF AND PUSH20 0xFFFFFFFFFFFFFFFFFFFFFFFFFFFFFFFFFFFFFFFF AND PUSH20 0xFFFFFFFFFFFFFFFFFFFFFFFFFFFFFFFFFFFFFFFF AND DUP2 MSTORE PUSH1 0x20 ADD PUSH1 0x2 DUP3 ADD PUSH1 0x0 SWAP1 SLOAD SWAP1 PUSH2 0x100 EXP SWAP1 DIV PUSH20 0xFFFFFFFFFFFFFFFFFFFFFFFFFFFFFFFFFFFFFFFF AND PUSH20 0xFFFFFFFFFFFFFFFFFFFFFFFFFFFFFFFFFFFFFFFF AND PUSH20 0xFFFFFFFFFFFFFFFFFFFFFFFFFFFFFFFFFFFFFFFF AND DUP2 MSTORE PUSH1 0x20 ADD PUSH1 0x3 DUP3 ADD PUSH1 0x0 SWAP1 SLOAD SWAP1 PUSH2 0x100 EXP SWAP1 DIV PUSH20 0xFFFFFFFFFFFFFFFFFFFFFFFFFFFFFFFFFFFFFFFF AND PUSH20 0xFFFFFFFFFFFFFFFFFFFFFFFFFFFFFFFFFFFFFFFF AND PUSH20 0xFFFFFFFFFFFFFFFFFFFFFFFFFFFFFFFFFFFFFFFF AND DUP2 MSTORE PUSH1 0x20 ADD PUSH1 0x4 DUP3 ADD SLOAD DUP2 MSTORE PUSH1 0x20 ADD PUSH1 0x5 DUP3 ADD SLOAD DUP2 MSTORE PUSH1 0x20 ADD PUSH1 0x6 DUP3 ADD SLOAD DUP2 MSTORE PUSH1 0x20 ADD PUSH1 0x7 DUP3 ADD SLOAD DUP2 MSTORE PUSH1 0x20 ADD PUSH1 0x8 DUP3 ADD SLOAD DUP2 MSTORE PUSH1 0x20 ADD PUSH1 0x9 DUP3 ADD PUSH1 0x0 SWAP1 SLOAD SWAP1 PUSH2 0x100 EXP SWAP1 DIV PUSH1 0xFF AND ISZERO ISZERO ISZERO ISZERO DUP2 MSTORE POP POP SWAP1 POP PUSH1 0x0 PUSH1 0x2 PUSH1 0x0 DUP6 DUP2 MSTORE PUSH1 0x20 ADD SWAP1 DUP2 MSTORE PUSH1 0x20 ADD PUSH1 0x0 KECCAK256 PUSH1 0x0 DUP4 PUSH2 0x100 ADD MLOAD DUP2 MSTORE PUSH1 0x20 ADD SWAP1 DUP2 MSTORE PUSH1 0x20 ADD PUSH1 0x0 KECCAK256 PUSH1 0x40 MLOAD DUP1 PUSH1 0x80 ADD PUSH1 0x40 MSTORE SWAP1 DUP2 PUSH1 0x0 DUP3 ADD SLOAD DUP2 MSTORE PUSH1 0x20 ADD PUSH1 0x1 DUP3 ADD SLOAD DUP2 MSTORE PUSH1 0x20 ADD PUSH1 0x2 DUP3 ADD PUSH1 0x0 SWAP1 SLOAD SWAP1 PUSH2 0x100 EXP SWAP1 DIV PUSH20 0xFFFFFFFFFFFFFFFFFFFFFFFFFFFFFFFFFFFFFFFF AND PUSH20 0xFFFFFFFFFFFFFFFFFFFFFFFFFFFFFFFFFFFFFFFF AND PUSH20 0xFFFFFFFFFFFFFFFFFFFFFFFFFFFFFFFFFFFFFFFF AND DUP2 MSTORE PUSH1 0x20 ADD PUSH1 0x3 DUP3 ADD SLOAD DUP2 MSTORE POP POP SWAP1 POP PUSH1 0x0 DUP3 PUSH1 0x60 ADD MLOAD SWAP1 POP DUP1 PUSH20 0xFFFFFFFFFFFFFFFFFFFFFFFFFFFFFFFFFFFFFFFF AND PUSH4 0x42842E0E ADDRESS DUP5 PUSH1 0x40 ADD MLOAD DUP7 PUSH1 0x80 ADD MLOAD PUSH1 0x40 MLOAD DUP5 PUSH4 0xFFFFFFFF AND PUSH1 0xE0 SHL DUP2 MSTORE PUSH1 0x4 ADD PUSH2 0x62C SWAP4 SWAP3 SWAP2 SWAP1 PUSH2 0x2804 JUMP JUMPDEST PUSH1 0x0 PUSH1 0x40 MLOAD DUP1 DUP4 SUB DUP2 PUSH1 0x0 DUP8 DUP1 EXTCODESIZE ISZERO DUP1 ISZERO PUSH2 0x646 JUMPI PUSH1 0x0 DUP1 REVERT JUMPDEST POP GAS CALL ISZERO DUP1 ISZERO PUSH2 0x65A JUMPI RETURNDATASIZE PUSH1 0x0 DUP1 RETURNDATACOPY RETURNDATASIZE PUSH1 0x0 REVERT JUMPDEST POP POP POP POP POP POP POP POP POP JUMP JUMPDEST PUSH2 0x66E DUP4 PUSH2 0x1F7E JUMP JUMPDEST PUSH2 0x6AD JUMPI PUSH1 0x40 MLOAD PUSH32 0x8C379A000000000000000000000000000000000000000000000000000000000 DUP2 MSTORE PUSH1 0x4 ADD PUSH2 0x6A4 SWAP1 PUSH2 0x2887 JUMP JUMPDEST PUSH1 0x40 MLOAD DUP1 SWAP2 SUB SWAP1 REVERT JUMPDEST PUSH2 0x6B6 DUP4 PUSH2 0x1FA0 JUMP JUMPDEST ISZERO PUSH2 0x6F6 JUMPI PUSH1 0x40 MLOAD PUSH32 0x8C379A000000000000000000000000000000000000000000000000000000000 DUP2 MSTORE PUSH1 0x4 ADD PUSH2 0x6ED SWAP1 PUSH2 0x28F3 JUMP JUMPDEST PUSH1 0x40 MLOAD DUP1 SWAP2 SUB SWAP1 REVERT JUMPDEST PUSH1 0x0 PUSH1 0x1 PUSH1 0x0 DUP6 DUP2 MSTORE PUSH1 0x20 ADD SWAP1 DUP2 MSTORE PUSH1 0x20 ADD PUSH1 0x0 KECCAK256 SWAP1 POP DUP1 PUSH1 0x9 ADD PUSH1 0x0 SWAP1 SLOAD SWAP1 PUSH2 0x100 EXP SWAP1 DIV PUSH1 0xFF AND DUP1 ISZERO PUSH2 0x785 JUMPI POP PUSH1 0x3 PUSH1 0x0 DUP6 DUP2 MSTORE PUSH1 0x20 ADD SWAP1 DUP2 MSTORE PUSH1 0x20 ADD PUSH1 0x0 KECCAK256 PUSH1 0x0 CALLER PUSH20 0xFFFFFFFFFFFFFFFFFFFFFFFFFFFFFFFFFFFFFFFF AND PUSH20 0xFFFFFFFFFFFFFFFFFFFFFFFFFFFFFFFFFFFFFFFF AND DUP2 MSTORE PUSH1 0x20 ADD SWAP1 DUP2 MSTORE PUSH1 0x20 ADD PUSH1 0x0 KECCAK256 PUSH1 0x0 SWAP1 SLOAD SWAP1 PUSH2 0x100 EXP SWAP1 DIV PUSH1 0xFF AND JUMPDEST DUP1 PUSH2 0x7A5 JUMPI POP PUSH1 0x0 ISZERO ISZERO DUP2 PUSH1 0x9 ADD PUSH1 0x0 SWAP1 SLOAD SWAP1 PUSH2 0x100 EXP SWAP1 DIV PUSH1 0xFF AND ISZERO ISZERO EQ JUMPDEST PUSH2 0x7E4 JUMPI PUSH1 0x40 MLOAD PUSH32 0x8C379A000000000000000000000000000000000000000000000000000000000 DUP2 MSTORE PUSH1 0x4 ADD PUSH2 0x7DB SWAP1 PUSH2 0x295F JUMP JUMPDEST PUSH1 0x40 MLOAD DUP1 SWAP2 SUB SWAP1 REVERT JUMPDEST PUSH1 0x0 PUSH1 0x1 DUP3 PUSH1 0x8 ADD SLOAD PUSH2 0x7F7 SWAP2 SWAP1 PUSH2 0x29AE JUMP JUMPDEST SWAP1 POP DUP1 DUP3 PUSH1 0x8 ADD DUP2 SWAP1 SSTORE POP PUSH1 0x0 PUSH2 0x80D DUP7 PUSH2 0x1FC3 JUMP JUMPDEST SWAP1 POP DUP1 DUP6 GT PUSH2 0x851 JUMPI PUSH1 0x40 MLOAD PUSH32 0x8C379A000000000000000000000000000000000000000000000000000000000 DUP2 MSTORE PUSH1 0x4 ADD PUSH2 0x848 SWAP1 PUSH2 0x2A2E JUMP JUMPDEST PUSH1 0x40 MLOAD DUP1 SWAP2 SUB SWAP1 REVERT JUMPDEST DUP3 PUSH1 0x1 ADD PUSH1 0x0 SWAP1 SLOAD SWAP1 PUSH2 0x100 EXP SWAP1 DIV PUSH20 0xFFFFFFFFFFFFFFFFFFFFFFFFFFFFFFFFFFFFFFFF AND PUSH20 0xFFFFFFFFFFFFFFFFFFFFFFFFFFFFFFFFFFFFFFFF AND PUSH4 0x23B872DD CALLER PUSH1 0x2 PUSH1 0x0 DUP11 DUP2 MSTORE PUSH1 0x20 ADD SWAP1 DUP2 MSTORE PUSH1 0x20 ADD PUSH1 0x0 KECCAK256 PUSH1 0x0 DUP7 DUP2 MSTORE PUSH1 0x20 ADD SWAP1 DUP2 MSTORE PUSH1 0x20 ADD PUSH1 0x0 KECCAK256 PUSH1 0x2 ADD PUSH1 0x0 SWAP1 SLOAD SWAP1 PUSH2 0x100 EXP SWAP1 DIV PUSH20 0xFFFFFFFFFFFFFFFFFFFFFFFFFFFFFFFFFFFFFFFF AND DUP5 PUSH1 0x40 MLOAD DUP5 PUSH4 0xFFFFFFFF AND PUSH1 0xE0 SHL DUP2 MSTORE PUSH1 0x4 ADD PUSH2 0x8F9 SWAP4 SWAP3 SWAP2 SWAP1 PUSH2 0x2804 JUMP JUMPDEST PUSH1 0x20 PUSH1 0x40 MLOAD DUP1 DUP4 SUB DUP2 PUSH1 0x0 DUP8 GAS CALL ISZERO DUP1 ISZERO PUSH2 0x918 JUMPI RETURNDATASIZE PUSH1 0x0 DUP1 RETURNDATACOPY RETURNDATASIZE PUSH1 0x0 REVERT JUMPDEST POP POP POP POP PUSH1 0x40 MLOAD RETURNDATASIZE PUSH1 0x1F NOT PUSH1 0x1F DUP3 ADD AND DUP3 ADD DUP1 PUSH1 0x40 MSTORE POP DUP2 ADD SWAP1 PUSH2 0x93C SWAP2 SWAP1 PUSH2 0x2A63 JUMP JUMPDEST POP DUP3 PUSH1 0x1 ADD PUSH1 0x0 SWAP1 SLOAD SWAP1 PUSH2 0x100 EXP SWAP1 DIV PUSH20 0xFFFFFFFFFFFFFFFFFFFFFFFFFFFFFFFFFFFFFFFF AND PUSH20 0xFFFFFFFFFFFFFFFFFFFFFFFFFFFFFFFFFFFFFFFF AND PUSH4 0x23B872DD CALLER DUP6 PUSH1 0x0 ADD PUSH1 0x0 SWAP1 SLOAD SWAP1 PUSH2 0x100 EXP SWAP1 DIV PUSH20 0xFFFFFFFFFFFFFFFFFFFFFFFFFFFFFFFFFFFFFFFF AND DUP5 DUP10 PUSH2 0x9AF SWAP2 SWAP1 PUSH2 0x2A90 JUMP JUMPDEST PUSH1 0x40 MLOAD DUP5 PUSH4 0xFFFFFFFF AND PUSH1 0xE0 SHL DUP2 MSTORE PUSH1 0x4 ADD PUSH2 0x9CD SWAP4 SWAP3 SWAP2 SWAP1 PUSH2 0x2804 JUMP JUMPDEST PUSH1 0x20 PUSH1 0x40 MLOAD DUP1 DUP4 SUB DUP2 PUSH1 0x0 DUP8 GAS CALL ISZERO DUP1 ISZERO PUSH2 0x9EC JUMPI RETURNDATASIZE PUSH1 0x0 DUP1 RETURNDATACOPY RETURNDATASIZE PUSH1 0x0 REVERT JUMPDEST POP POP POP POP PUSH1 0x40 MLOAD RETURNDATASIZE PUSH1 0x1F NOT PUSH1 0x1F DUP3 ADD AND DUP3 ADD DUP1 PUSH1 0x40 MSTORE POP DUP2 ADD SWAP1 PUSH2 0xA10 SWAP2 SWAP1 PUSH2 0x2A63 JUMP JUMPDEST POP DUP4 DUP4 PUSH1 0x7 ADD DUP2 SWAP1 SSTORE POP PUSH1 0x40 MLOAD DUP1 PUSH1 0x80 ADD PUSH1 0x40 MSTORE DUP1 TIMESTAMP DUP2 MSTORE PUSH1 0x20 ADD DUP7 DUP2 MSTORE PUSH1 0x20 ADD CALLER PUSH20 0xFFFFFFFFFFFFFFFFFFFFFFFFFFFFFFFFFFFFFFFF AND DUP2 MSTORE PUSH1 0x20 ADD DUP6 DUP2 MSTORE POP PUSH1 0x2 PUSH1 0x0 DUP9 DUP2 MSTORE PUSH1 0x20 ADD SWAP1 DUP2 MSTORE PUSH1 0x20 ADD PUSH1 0x0 KECCAK256 PUSH1 0x0 DUP5 DUP2 MSTORE PUSH1 0x20 ADD SWAP1 DUP2 MSTORE PUSH1 0x20 ADD PUSH1 0x0 KECCAK256 PUSH1 0x0 DUP3 ADD MLOAD DUP2 PUSH1 0x0 ADD SSTORE PUSH1 0x20 DUP3 ADD MLOAD DUP2 PUSH1 0x1 ADD SSTORE PUSH1 0x40 DUP3 ADD MLOAD DUP2 PUSH1 0x2 ADD PUSH1 0x0 PUSH2 0x100 EXP DUP2 SLOAD DUP2 PUSH20 0xFFFFFFFFFFFFFFFFFFFFFFFFFFFFFFFFFFFFFFFF MUL NOT AND SWAP1 DUP4 PUSH20 0xFFFFFFFFFFFFFFFFFFFFFFFFFFFFFFFFFFFFFFFF AND MUL OR SWAP1 SSTORE POP PUSH1 0x60 DUP3 ADD MLOAD DUP2 PUSH1 0x3 ADD SSTORE SWAP1 POP POP POP POP POP POP POP POP JUMP JUMPDEST DUP1 CALLER PUSH20 0xFFFFFFFFFFFFFFFFFFFFFFFFFFFFFFFFFFFFFFFF AND PUSH1 0x1 PUSH1 0x0 DUP4 DUP2 MSTORE PUSH1 0x20 ADD SWAP1 DUP2 MSTORE PUSH1 0x20 ADD PUSH1 0x0 KECCAK256 PUSH1 0x0 ADD PUSH1 0x0 SWAP1 SLOAD SWAP1 PUSH2 0x100 EXP SWAP1 DIV PUSH20 0xFFFFFFFFFFFFFFFFFFFFFFFFFFFFFFFFFFFFFFFF AND PUSH20 0xFFFFFFFFFFFFFFFFFFFFFFFFFFFFFFFFFFFFFFFF AND EQ DUP1 PUSH2 0xBB7 JUMPI POP CALLER PUSH20 0xFFFFFFFFFFFFFFFFFFFFFFFFFFFFFFFFFFFFFFFF AND PUSH1 0x1 PUSH1 0x0 DUP4 DUP2 MSTORE PUSH1 0x20 ADD SWAP1 DUP2 MSTORE PUSH1 0x20 ADD PUSH1 0x0 KECCAK256 PUSH1 0x2 ADD PUSH1 0x0 SWAP1 SLOAD SWAP1 PUSH2 0x100 EXP SWAP1 DIV PUSH20 0xFFFFFFFFFFFFFFFFFFFFFFFFFFFFFFFFFFFFFFFF AND PUSH20 0xFFFFFFFFFFFFFFFFFFFFFFFFFFFFFFFFFFFFFFFF AND EQ JUMPDEST PUSH2 0xBF6 JUMPI PUSH1 0x40 MLOAD PUSH32 0x8C379A000000000000000000000000000000000000000000000000000000000 DUP2 MSTORE PUSH1 0x4 ADD PUSH2 0xBED SWAP1 PUSH2 0x27E4 JUMP JUMPDEST PUSH1 0x40 MLOAD DUP1 SWAP2 SUB SWAP1 REVERT JUMPDEST PUSH1 0x0 PUSH1 0x1 PUSH1 0x0 DUP5 DUP2 MSTORE PUSH1 0x20 ADD SWAP1 DUP2 MSTORE PUSH1 0x20 ADD PUSH1 0x0 KECCAK256 PUSH1 0x40 MLOAD DUP1 PUSH2 0x140 ADD PUSH1 0x40 MSTORE SWAP1 DUP2 PUSH1 0x0 DUP3 ADD PUSH1 0x0 SWAP1 SLOAD SWAP1 PUSH2 0x100 EXP SWAP1 DIV PUSH20 0xFFFFFFFFFFFFFFFFFFFFFFFFFFFFFFFFFFFFFFFF AND PUSH20 0xFFFFFFFFFFFFFFFFFFFFFFFFFFFFFFFFFFFFFFFF AND PUSH20 0xFFFFFFFFFFFFFFFFFFFFFFFFFFFFFFFFFFFFFFFF AND DUP2 MSTORE PUSH1 0x20 ADD PUSH1 0x1 DUP3 ADD PUSH1 0x0 SWAP1 SLOAD SWAP1 PUSH2 0x100 EXP SWAP1 DIV PUSH20 0xFFFFFFFFFFFFFFFFFFFFFFFFFFFFFFFFFFFFFFFF AND PUSH20 0xFFFFFFFFFFFFFFFFFFFFFFFFFFFFFFFFFFFFFFFF AND PUSH20 0xFFFFFFFFFFFFFFFFFFFFFFFFFFFFFFFFFFFFFFFF AND DUP2 MSTORE PUSH1 0x20 ADD PUSH1 0x2 DUP3 ADD PUSH1 0x0 SWAP1 SLOAD SWAP1 PUSH2 0x100 EXP SWAP1 DIV PUSH20 0xFFFFFFFFFFFFFFFFFFFFFFFFFFFFFFFFFFFFFFFF AND PUSH20 0xFFFFFFFFFFFFFFFFFFFFFFFFFFFFFFFFFFFFFFFF AND PUSH20 0xFFFFFFFFFFFFFFFFFFFFFFFFFFFFFFFFFFFFFFFF AND DUP2 MSTORE PUSH1 0x20 ADD PUSH1 0x3 DUP3 ADD PUSH1 0x0 SWAP1 SLOAD SWAP1 PUSH2 0x100 EXP SWAP1 DIV PUSH20 0xFFFFFFFFFFFFFFFFFFFFFFFFFFFFFFFFFFFFFFFF AND PUSH20 0xFFFFFFFFFFFFFFFFFFFFFFFFFFFFFFFFFFFFFFFF AND PUSH20 0xFFFFFFFFFFFFFFFFFFFFFFFFFFFFFFFFFFFFFFFF AND DUP2 MSTORE PUSH1 0x20 ADD PUSH1 0x4 DUP3 ADD SLOAD DUP2 MSTORE PUSH1 0x20 ADD PUSH1 0x5 DUP3 ADD SLOAD DUP2 MSTORE PUSH1 0x20 ADD PUSH1 0x6 DUP3 ADD SLOAD DUP2 MSTORE PUSH1 0x20 ADD PUSH1 0x7 DUP3 ADD SLOAD DUP2 MSTORE PUSH1 0x20 ADD PUSH1 0x8 DUP3 ADD SLOAD DUP2 MSTORE PUSH1 0x20 ADD PUSH1 0x9 DUP3 ADD PUSH1 0x0 SWAP1 SLOAD SWAP1 PUSH2 0x100 EXP SWAP1 DIV PUSH1 0xFF AND ISZERO ISZERO ISZERO ISZERO DUP2 MSTORE POP POP SWAP1 POP TIMESTAMP DUP2 PUSH1 0xA0 ADD MLOAD GT PUSH2 0xE04 JUMPI PUSH1 0x40 MLOAD PUSH32 0x8C379A000000000000000000000000000000000000000000000000000000000 DUP2 MSTORE PUSH1 0x4 ADD PUSH2 0xDFB SWAP1 PUSH2 0x2B10 JUMP JUMPDEST PUSH1 0x40 MLOAD DUP1 SWAP2 SUB SWAP1 REVERT JUMPDEST PUSH2 0xE0C PUSH2 0x22D0 JUMP JUMPDEST SWAP1 POP PUSH32 0xFE785EF891129B084B1C5A30E4D88EB97C97822C024CC25D5F9D806B897512E0 DUP4 PUSH1 0x40 MLOAD PUSH2 0xE3D SWAP2 SWAP1 PUSH2 0x2396 JUMP JUMPDEST PUSH1 0x40 MLOAD DUP1 SWAP2 SUB SWAP1 LOG1 POP POP POP JUMP JUMPDEST PUSH1 0x0 PUSH1 0x1 PUSH1 0x0 DUP4 DUP2 MSTORE PUSH1 0x20 ADD SWAP1 DUP2 MSTORE PUSH1 0x20 ADD PUSH1 0x0 KECCAK256 PUSH1 0x40 MLOAD DUP1 PUSH2 0x140 ADD PUSH1 0x40 MSTORE SWAP1 DUP2 PUSH1 0x0 DUP3 ADD PUSH1 0x0 SWAP1 SLOAD SWAP1 PUSH2 0x100 EXP SWAP1 DIV PUSH20 0xFFFFFFFFFFFFFFFFFFFFFFFFFFFFFFFFFFFFFFFF AND PUSH20 0xFFFFFFFFFFFFFFFFFFFFFFFFFFFFFFFFFFFFFFFF AND PUSH20 0xFFFFFFFFFFFFFFFFFFFFFFFFFFFFFFFFFFFFFFFF AND DUP2 MSTORE PUSH1 0x20 ADD PUSH1 0x1 DUP3 ADD PUSH1 0x0 SWAP1 SLOAD SWAP1 PUSH2 0x100 EXP SWAP1 DIV PUSH20 0xFFFFFFFFFFFFFFFFFFFFFFFFFFFFFFFFFFFFFFFF AND PUSH20 0xFFFFFFFFFFFFFFFFFFFFFFFFFFFFFFFFFFFFFFFF AND PUSH20 0xFFFFFFFFFFFFFFFFFFFFFFFFFFFFFFFFFFFFFFFF AND DUP2 MSTORE PUSH1 0x20 ADD PUSH1 0x2 DUP3 ADD PUSH1 0x0 SWAP1 SLOAD SWAP1 PUSH2 0x100 EXP SWAP1 DIV PUSH20 0xFFFFFFFFFFFFFFFFFFFFFFFFFFFFFFFFFFFFFFFF AND PUSH20 0xFFFFFFFFFFFFFFFFFFFFFFFFFFFFFFFFFFFFFFFF AND PUSH20 0xFFFFFFFFFFFFFFFFFFFFFFFFFFFFFFFFFFFFFFFF AND DUP2 MSTORE PUSH1 0x20 ADD PUSH1 0x3 DUP3 ADD PUSH1 0x0 SWAP1 SLOAD SWAP1 PUSH2 0x100 EXP SWAP1 DIV PUSH20 0xFFFFFFFFFFFFFFFFFFFFFFFFFFFFFFFFFFFFFFFF AND PUSH20 0xFFFFFFFFFFFFFFFFFFFFFFFFFFFFFFFFFFFFFFFF AND PUSH20 0xFFFFFFFFFFFFFFFFFFFFFFFFFFFFFFFFFFFFFFFF AND DUP2 MSTORE PUSH1 0x20 ADD PUSH1 0x4 DUP3 ADD SLOAD DUP2 MSTORE PUSH1 0x20 ADD PUSH1 0x5 DUP3 ADD SLOAD DUP2 MSTORE PUSH1 0x20 ADD PUSH1 0x6 DUP3 ADD SLOAD DUP2 MSTORE PUSH1 0x20 ADD PUSH1 0x7 DUP3 ADD SLOAD DUP2 MSTORE PUSH1 0x20 ADD PUSH1 0x8 DUP3 ADD SLOAD DUP2 MSTORE PUSH1 0x20 ADD PUSH1 0x9 DUP3 ADD PUSH1 0x0 SWAP1 SLOAD SWAP1 PUSH2 0x100 EXP SWAP1 DIV PUSH1 0xFF AND ISZERO ISZERO ISZERO ISZERO DUP2 MSTORE POP POP SWAP1 POP PUSH2 0x101B DUP3 PUSH2 0x1FA0 JUMP JUMPDEST PUSH2 0x105A JUMPI PUSH1 0x40 MLOAD PUSH32 0x8C379A000000000000000000000000000000000000000000000000000000000 DUP2 MSTORE PUSH1 0x4 ADD PUSH2 0x1051 SWAP1 PUSH2 0x2B7C JUMP JUMPDEST PUSH1 0x40 MLOAD DUP1 SWAP2 SUB SWAP1 REVERT JUMPDEST PUSH1 0x0 PUSH1 0x2 PUSH1 0x0 DUP5 DUP2 MSTORE PUSH1 0x20 ADD SWAP1 DUP2 MSTORE PUSH1 0x20 ADD PUSH1 0x0 KECCAK256 PUSH1 0x0 DUP4 PUSH2 0x100 ADD MLOAD DUP2 MSTORE PUSH1 0x20 ADD SWAP1 DUP2 MSTORE PUSH1 0x20 ADD PUSH1 0x0 KECCAK256 PUSH1 0x40 MLOAD DUP1 PUSH1 0x80 ADD PUSH1 0x40 MSTORE SWAP1 DUP2 PUSH1 0x0 DUP3 ADD SLOAD DUP2 MSTORE PUSH1 0x20 ADD PUSH1 0x1 DUP3 ADD SLOAD DUP2 MSTORE PUSH1 0x20 ADD PUSH1 0x2 DUP3 ADD PUSH1 0x0 SWAP1 SLOAD SWAP1 PUSH2 0x100 EXP SWAP1 DIV PUSH20 0xFFFFFFFFFFFFFFFFFFFFFFFFFFFFFFFFFFFFFFFF AND PUSH20 0xFFFFFFFFFFFFFFFFFFFFFFFFFFFFFFFFFFFFFFFF AND PUSH20 0xFFFFFFFFFFFFFFFFFFFFFFFFFFFFFFFFFFFFFFFF AND DUP2 MSTORE PUSH1 0x20 ADD PUSH1 0x3 DUP3 ADD SLOAD DUP2 MSTORE POP POP SWAP1 POP CALLER PUSH20 0xFFFFFFFFFFFFFFFFFFFFFFFFFFFFFFFFFFFFFFFF AND DUP2 PUSH1 0x40 ADD MLOAD PUSH20 0xFFFFFFFFFFFFFFFFFFFFFFFFFFFFFFFFFFFFFFFF AND EQ PUSH2 0x1178 JUMPI PUSH1 0x40 MLOAD PUSH32 0x8C379A000000000000000000000000000000000000000000000000000000000 DUP2 MSTORE PUSH1 0x4 ADD PUSH2 0x116F SWAP1 PUSH2 0x2BE8 JUMP JUMPDEST PUSH1 0x40 MLOAD DUP1 SWAP2 SUB SWAP1 REVERT JUMPDEST PUSH1 0x0 DUP3 PUSH1 0x60 ADD MLOAD SWAP1 POP DUP1 PUSH20 0xFFFFFFFFFFFFFFFFFFFFFFFFFFFFFFFFFFFFFFFF AND PUSH4 0x42842E0E ADDRESS CALLER DUP7 PUSH1 0x80 ADD MLOAD PUSH1 0x40 MLOAD DUP5 PUSH4 0xFFFFFFFF AND PUSH1 0xE0 SHL DUP2 MSTORE PUSH1 0x4 ADD PUSH2 0x11C2 SWAP4 SWAP3 SWAP2 SWAP1 PUSH2 0x2804 JUMP JUMPDEST PUSH1 0x0 PUSH1 0x40 MLOAD DUP1 DUP4 SUB DUP2 PUSH1 0x0 DUP8 DUP1 EXTCODESIZE ISZERO DUP1 ISZERO PUSH2 0x11DC JUMPI PUSH1 0x0 DUP1 REVERT JUMPDEST POP GAS CALL ISZERO DUP1 ISZERO PUSH2 0x11F0 JUMPI RETURNDATASIZE PUSH1 0x0 DUP1 RETURNDATACOPY RETURNDATASIZE PUSH1 0x0 REVERT JUMPDEST POP POP POP POP POP POP POP POP JUMP JUMPDEST DUP1 CALLER PUSH20 0xFFFFFFFFFFFFFFFFFFFFFFFFFFFFFFFFFFFFFFFF AND PUSH1 0x1 PUSH1 0x0 DUP4 DUP2 MSTORE PUSH1 0x20 ADD SWAP1 DUP2 MSTORE PUSH1 0x20 ADD PUSH1 0x0 KECCAK256 PUSH1 0x0 ADD PUSH1 0x0 SWAP1 SLOAD SWAP1 PUSH2 0x100 EXP SWAP1 DIV PUSH20 0xFFFFFFFFFFFFFFFFFFFFFFFFFFFFFFFFFFFFFFFF AND PUSH20 0xFFFFFFFFFFFFFFFFFFFFFFFFFFFFFFFFFFFFFFFF AND EQ DUP1 PUSH2 0x12CC JUMPI POP CALLER PUSH20 0xFFFFFFFFFFFFFFFFFFFFFFFFFFFFFFFFFFFFFFFF AND PUSH1 0x1 PUSH1 0x0 DUP4 DUP2 MSTORE PUSH1 0x20 ADD SWAP1 DUP2 MSTORE PUSH1 0x20 ADD PUSH1 0x0 KECCAK256 PUSH1 0x2 ADD PUSH1 0x0 SWAP1 SLOAD SWAP1 PUSH2 0x100 EXP SWAP1 DIV PUSH20 0xFFFFFFFFFFFFFFFFFFFFFFFFFFFFFFFFFFFFFFFF AND PUSH20 0xFFFFFFFFFFFFFFFFFFFFFFFFFFFFFFFFFFFFFFFF AND EQ JUMPDEST PUSH2 0x130B JUMPI PUSH1 0x40 MLOAD PUSH32 0x8C379A000000000000000000000000000000000000000000000000000000000 DUP2 MSTORE PUSH1 0x4 ADD PUSH2 0x1302 SWAP1 PUSH2 0x27E4 JUMP JUMPDEST PUSH1 0x40 MLOAD DUP1 SWAP2 SUB SWAP1 REVERT JUMPDEST PUSH1 0x0 PUSH1 0x1 PUSH1 0x0 DUP5 DUP2 MSTORE PUSH1 0x20 ADD SWAP1 DUP2 MSTORE PUSH1 0x20 ADD PUSH1 0x0 KECCAK256 PUSH1 0x40 MLOAD DUP1 PUSH2 0x140 ADD PUSH1 0x40 MSTORE SWAP1 DUP2 PUSH1 0x0 DUP3 ADD PUSH1 0x0 SWAP1 SLOAD SWAP1 PUSH2 0x100 EXP SWAP1 DIV PUSH20 0xFFFFFFFFFFFFFFFFFFFFFFFFFFFFFFFFFFFFFFFF AND PUSH20 0xFFFFFFFFFFFFFFFFFFFFFFFFFFFFFFFFFFFFFFFF AND PUSH20 0xFFFFFFFFFFFFFFFFFFFFFFFFFFFFFFFFFFFFFFFF AND DUP2 MSTORE PUSH1 0x20 ADD PUSH1 0x1 DUP3 ADD PUSH1 0x0 SWAP1 SLOAD SWAP1 PUSH2 0x100 EXP SWAP1 DIV PUSH20 0xFFFFFFFFFFFFFFFFFFFFFFFFFFFFFFFFFFFFFFFF AND PUSH20 0xFFFFFFFFFFFFFFFFFFFFFFFFFFFFFFFFFFFFFFFF AND PUSH20 0xFFFFFFFFFFFFFFFFFFFFFFFFFFFFFFFFFFFFFFFF AND DUP2 MSTORE PUSH1 0x20 ADD PUSH1 0x2 DUP3 ADD PUSH1 0x0 SWAP1 SLOAD SWAP1 PUSH2 0x100 EXP SWAP1 DIV PUSH20 0xFFFFFFFFFFFFFFFFFFFFFFFFFFFFFFFFFFFFFFFF AND PUSH20 0xFFFFFFFFFFFFFFFFFFFFFFFFFFFFFFFFFFFFFFFF AND PUSH20 0xFFFFFFFFFFFFFFFFFFFFFFFFFFFFFFFFFFFFFFFF AND DUP2 MSTORE PUSH1 0x20 ADD PUSH1 0x3 DUP3 ADD PUSH1 0x0 SWAP1 SLOAD SWAP1 PUSH2 0x100 EXP SWAP1 DIV PUSH20 0xFFFFFFFFFFFFFFFFFFFFFFFFFFFFFFFFFFFFFFFF AND PUSH20 0xFFFFFFFFFFFFFFFFFFFFFFFFFFFFFFFFFFFFFFFF AND PUSH20 0xFFFFFFFFFFFFFFFFFFFFFFFFFFFFFFFFFFFFFFFF AND DUP2 MSTORE PUSH1 0x20 ADD PUSH1 0x4 DUP3 ADD SLOAD DUP2 MSTORE PUSH1 0x20 ADD PUSH1 0x5 DUP3 ADD SLOAD DUP2 MSTORE PUSH1 0x20 ADD PUSH1 0x6 DUP3 ADD SLOAD DUP2 MSTORE PUSH1 0x20 ADD PUSH1 0x7 DUP3 ADD SLOAD DUP2 MSTORE PUSH1 0x20 ADD PUSH1 0x8 DUP3 ADD SLOAD DUP2 MSTORE PUSH1 0x20 ADD PUSH1 0x9 DUP3 ADD PUSH1 0x0 SWAP1 SLOAD SWAP1 PUSH2 0x100 EXP SWAP1 DIV PUSH1 0xFF AND ISZERO ISZERO ISZERO ISZERO DUP2 MSTORE POP POP SWAP1 POP PUSH1 0x0 PUSH1 0x2 PUSH1 0x0 DUP6 DUP2 MSTORE PUSH1 0x20 ADD SWAP1 DUP2 MSTORE PUSH1 0x20 ADD PUSH1 0x0 KECCAK256 PUSH1 0x0 DUP4 PUSH2 0x100 ADD MLOAD DUP2 MSTORE PUSH1 0x20 ADD SWAP1 DUP2 MSTORE PUSH1 0x20 ADD PUSH1 0x0 KECCAK256 PUSH1 0x40 MLOAD DUP1 PUSH1 0x80 ADD PUSH1 0x40 MSTORE SWAP1 DUP2 PUSH1 0x0 DUP3 ADD SLOAD DUP2 MSTORE PUSH1 0x20 ADD PUSH1 0x1 DUP3 ADD SLOAD DUP2 MSTORE PUSH1 0x20 ADD PUSH1 0x2 DUP3 ADD PUSH1 0x0 SWAP1 SLOAD SWAP1 PUSH2 0x100 EXP SWAP1 DIV PUSH20 0xFFFFFFFFFFFFFFFFFFFFFFFFFFFFFFFFFFFFFFFF AND PUSH20 0xFFFFFFFFFFFFFFFFFFFFFFFFFFFFFFFFFFFFFFFF AND PUSH20 0xFFFFFFFFFFFFFFFFFFFFFFFFFFFFFFFFFFFFFFFF AND DUP2 MSTORE PUSH1 0x20 ADD PUSH1 0x3 DUP3 ADD SLOAD DUP2 MSTORE POP POP SWAP1 POP DUP2 PUSH1 0x20 ADD MLOAD PUSH20 0xFFFFFFFFFFFFFFFFFFFFFFFFFFFFFFFFFFFFFFFF AND PUSH4 0x23B872DD CALLER DUP4 PUSH1 0x40 ADD MLOAD PUSH2 0x15AE DUP9 PUSH2 0x1FC3 JUMP JUMPDEST PUSH1 0x40 MLOAD DUP5 PUSH4 0xFFFFFFFF AND PUSH1 0xE0 SHL DUP2 MSTORE PUSH1 0x4 ADD PUSH2 0x15CC SWAP4 SWAP3 SWAP2 SWAP1 PUSH2 0x2804 JUMP JUMPDEST PUSH1 0x20 PUSH1 0x40 MLOAD DUP1 DUP4 SUB DUP2 PUSH1 0x0 DUP8 GAS CALL ISZERO DUP1 ISZERO PUSH2 0x15EB JUMPI RETURNDATASIZE PUSH1 0x0 DUP1 RETURNDATACOPY RETURNDATASIZE PUSH1 0x0 REVERT JUMPDEST POP POP POP POP PUSH1 0x40 MLOAD RETURNDATASIZE PUSH1 0x1F NOT PUSH1 0x1F DUP3 ADD AND DUP3 ADD DUP1 PUSH1 0x40 MSTORE POP DUP2 ADD SWAP1 PUSH2 0x160F SWAP2 SWAP1 PUSH2 0x2A63 JUMP JUMPDEST POP PUSH1 0x0 DUP3 PUSH1 0x60 ADD MLOAD SWAP1 POP DUP1 PUSH20 0xFFFFFFFFFFFFFFFFFFFFFFFFFFFFFFFFFFFFFFFF AND PUSH4 0x42842E0E ADDRESS CALLER DUP7 PUSH1 0x80 ADD MLOAD PUSH1 0x40 MLOAD DUP5 PUSH4 0xFFFFFFFF AND PUSH1 0xE0 SHL DUP2 MSTORE PUSH1 0x4 ADD PUSH2 0x165A SWAP4 SWAP3 SWAP2 SWAP1 PUSH2 0x2804 JUMP JUMPDEST PUSH1 0x0 PUSH1 0x40 MLOAD DUP1 DUP4 SUB DUP2 PUSH1 0x0 DUP8 DUP1 EXTCODESIZE ISZERO DUP1 ISZERO PUSH2 0x1674 JUMPI PUSH1 0x0 DUP1 REVERT JUMPDEST POP GAS CALL ISZERO DUP1 ISZERO PUSH2 0x1688 JUMPI RETURNDATASIZE PUSH1 0x0 DUP1 RETURNDATACOPY RETURNDATASIZE PUSH1 0x0 REVERT JUMPDEST POP POP POP POP POP POP POP POP POP JUMP JUMPDEST PUSH1 0x2 PUSH1 0x20 MSTORE DUP2 PUSH1 0x0 MSTORE PUSH1 0x40 PUSH1 0x0 KECCAK256 PUSH1 0x20 MSTORE DUP1 PUSH1 0x0 MSTORE PUSH1 0x40 PUSH1 0x0 KECCAK256 PUSH1 0x0 SWAP2 POP SWAP2 POP POP DUP1 PUSH1 0x0 ADD SLOAD SWAP1 DUP1 PUSH1 0x1 ADD SLOAD SWAP1 DUP1 PUSH1 0x2 ADD PUSH1 0x0 SWAP1 SLOAD SWAP1 PUSH2 0x100 EXP SWAP1 DIV PUSH20 0xFFFFFFFFFFFFFFFFFFFFFFFFFFFFFFFFFFFFFFFF AND SWAP1 DUP1 PUSH1 0x3 ADD SLOAD SWAP1 POP DUP5 JUMP JUMPDEST PUSH2 0x16F9 DUP3 PUSH2 0x1F7E JUMP JUMPDEST PUSH2 0x1738 JUMPI PUSH1 0x40 MLOAD PUSH32 0x8C379A000000000000000000000000000000000000000000000000000000000 DUP2 MSTORE PUSH1 0x4 ADD PUSH2 0x172F SWAP1 PUSH2 0x2887 JUMP JUMPDEST PUSH1 0x40 MLOAD DUP1 SWAP2 SUB SWAP1 REVERT JUMPDEST PUSH2 0x1741 DUP3 PUSH2 0x1FA0 JUMP JUMPDEST ISZERO PUSH2 0x1781 JUMPI PUSH1 0x40 MLOAD PUSH32 0x8C379A000000000000000000000000000000000000000000000000000000000 DUP2 MSTORE PUSH1 0x4 ADD PUSH2 0x1778 SWAP1 PUSH2 0x28F3 JUMP JUMPDEST PUSH1 0x40 MLOAD DUP1 SWAP2 SUB SWAP1 REVERT JUMPDEST PUSH1 0x0 PUSH1 0x1 PUSH1 0x0 DUP5 DUP2 MSTORE PUSH1 0x20 ADD SWAP1 DUP2 MSTORE PUSH1 0x20 ADD PUSH1 0x0 KECCAK256 PUSH1 0x40 MLOAD DUP1 PUSH2 0x140 ADD PUSH1 0x40 MSTORE SWAP1 DUP2 PUSH1 0x0 DUP3 ADD PUSH1 0x0 SWAP1 SLOAD SWAP1 PUSH2 0x100 EXP SWAP1 DIV PUSH20 0xFFFFFFFFFFFFFFFFFFFFFFFFFFFFFFFFFFFFFFFF AND PUSH20 0xFFFFFFFFFFFFFFFFFFFFFFFFFFFFFFFFFFFFFFFF AND PUSH20 0xFFFFFFFFFFFFFFFFFFFFFFFFFFFFFFFFFFFFFFFF AND DUP2 MSTORE PUSH1 0x20 ADD PUSH1 0x1 DUP3 ADD PUSH1 0x0 SWAP1 SLOAD SWAP1 PUSH2 0x100 EXP SWAP1 DIV PUSH20 0xFFFFFFFFFFFFFFFFFFFFFFFFFFFFFFFFFFFFFFFF AND PUSH20 0xFFFFFFFFFFFFFFFFFFFFFFFFFFFFFFFFFFFFFFFF AND PUSH20 0xFFFFFFFFFFFFFFFFFFFFFFFFFFFFFFFFFFFFFFFF AND DUP2 MSTORE PUSH1 0x20 ADD PUSH1 0x2 DUP3 ADD PUSH1 0x0 SWAP1 SLOAD SWAP1 PUSH2 0x100 EXP SWAP1 DIV PUSH20 0xFFFFFFFFFFFFFFFFFFFFFFFFFFFFFFFFFFFFFFFF AND PUSH20 0xFFFFFFFFFFFFFFFFFFFFFFFFFFFFFFFFFFFFFFFF AND PUSH20 0xFFFFFFFFFFFFFFFFFFFFFFFFFFFFFFFFFFFFFFFF AND DUP2 MSTORE PUSH1 0x20 ADD PUSH1 0x3 DUP3 ADD PUSH1 0x0 SWAP1 SLOAD SWAP1 PUSH2 0x100 EXP SWAP1 DIV PUSH20 0xFFFFFFFFFFFFFFFFFFFFFFFFFFFFFFFFFFFFFFFF AND PUSH20 0xFFFFFFFFFFFFFFFFFFFFFFFFFFFFFFFFFFFFFFFF AND PUSH20 0xFFFFFFFFFFFFFFFFFFFFFFFFFFFFFFFFFFFFFFFF AND DUP2 MSTORE PUSH1 0x20 ADD PUSH1 0x4 DUP3 ADD SLOAD DUP2 MSTORE PUSH1 0x20 ADD PUSH1 0x5 DUP3 ADD SLOAD DUP2 MSTORE PUSH1 0x20 ADD PUSH1 0x6 DUP3 ADD SLOAD DUP2 MSTORE PUSH1 0x20 ADD PUSH1 0x7 DUP3 ADD SLOAD DUP2 MSTORE PUSH1 0x20 ADD PUSH1 0x8 DUP3 ADD SLOAD DUP2 MSTORE PUSH1 0x20 ADD PUSH1 0x9 DUP3 ADD PUSH1 0x0 SWAP1 SLOAD SWAP1 PUSH2 0x100 EXP SWAP1 DIV PUSH1 0xFF AND ISZERO ISZERO ISZERO ISZERO DUP2 MSTORE POP POP SWAP1 POP PUSH1 0x0 PUSH1 0x2 PUSH1 0x0 DUP6 DUP2 MSTORE PUSH1 0x20 ADD SWAP1 DUP2 MSTORE PUSH1 0x20 ADD PUSH1 0x0 KECCAK256 PUSH1 0x0 DUP4 PUSH2 0x100 ADD MLOAD DUP2 MSTORE PUSH1 0x20 ADD SWAP1 DUP2 MSTORE PUSH1 0x20 ADD PUSH1 0x0 KECCAK256 SWAP1 POP CALLER PUSH20 0xFFFFFFFFFFFFFFFFFFFFFFFFFFFFFFFFFFFFFFFF AND DUP2 PUSH1 0x2 ADD PUSH1 0x0 SWAP1 SLOAD SWAP1 PUSH2 0x100 EXP SWAP1 DIV PUSH20 0xFFFFFFFFFFFFFFFFFFFFFFFFFFFFFFFFFFFFFFFF AND PUSH20 0xFFFFFFFFFFFFFFFFFFFFFFFFFFFFFFFFFFFFFFFF AND EQ PUSH2 0x1A08 JUMPI PUSH1 0x40 MLOAD PUSH32 0x8C379A000000000000000000000000000000000000000000000000000000000 DUP2 MSTORE PUSH1 0x4 ADD PUSH2 0x19FF SWAP1 PUSH2 0x2C54 JUMP JUMPDEST PUSH1 0x40 MLOAD DUP1 SWAP2 SUB SWAP1 REVERT JUMPDEST DUP3 DUP2 PUSH1 0x2 ADD PUSH1 0x0 PUSH2 0x100 EXP DUP2 SLOAD DUP2 PUSH20 0xFFFFFFFFFFFFFFFFFFFFFFFFFFFFFFFFFFFFFFFF MUL NOT AND SWAP1 DUP4 PUSH20 0xFFFFFFFFFFFFFFFFFFFFFFFFFFFFFFFFFFFFFFFF AND MUL OR SWAP1 SSTORE POP POP POP POP POP JUMP JUMPDEST PUSH1 0x3 PUSH1 0x20 MSTORE DUP2 PUSH1 0x0 MSTORE PUSH1 0x40 PUSH1 0x0 KECCAK256 PUSH1 0x20 MSTORE DUP1 PUSH1 0x0 MSTORE PUSH1 0x40 PUSH1 0x0 KECCAK256 PUSH1 0x0 SWAP2 POP SWAP2 POP SWAP1 SLOAD SWAP1 PUSH2 0x100 EXP SWAP1 DIV PUSH1 0xFF AND DUP2 JUMP JUMPDEST TIMESTAMP DUP4 LT ISZERO PUSH2 0x1AC3 JUMPI PUSH1 0x40 MLOAD PUSH32 0x8C379A000000000000000000000000000000000000000000000000000000000 DUP2 MSTORE PUSH1 0x4 ADD PUSH2 0x1ABA SWAP1 PUSH2 0x2CC0 JUMP JUMPDEST PUSH1 0x40 MLOAD DUP1 SWAP2 SUB SWAP1 REVERT JUMPDEST DUP3 DUP3 GT PUSH2 0x1B05 JUMPI PUSH1 0x40 MLOAD PUSH32 0x8C379A000000000000000000000000000000000000000000000000000000000 DUP2 MSTORE PUSH1 0x4 ADD PUSH2 0x1AFC SWAP1 PUSH2 0x2D2C JUMP JUMPDEST PUSH1 0x40 MLOAD DUP1 SWAP2 SUB SWAP1 REVERT JUMPDEST PUSH1 0x40 MLOAD DUP1 PUSH2 0x140 ADD PUSH1 0x40 MSTORE DUP1 DUP7 PUSH20 0xFFFFFFFFFFFFFFFFFFFFFFFFFFFFFFFFFFFFFFFF AND PUSH4 0x6352211E DUP8 PUSH1 0x40 MLOAD DUP3 PUSH4 0xFFFFFFFF AND PUSH1 0xE0 SHL DUP2 MSTORE PUSH1 0x4 ADD PUSH2 0x1B4A SWAP2 SWAP1 PUSH2 0x2396 JUMP JUMPDEST PUSH1 0x20 PUSH1 0x40 MLOAD DUP1 DUP4 SUB DUP2 DUP7 GAS STATICCALL ISZERO DUP1 ISZERO PUSH2 0x1B67 JUMPI RETURNDATASIZE PUSH1 0x0 DUP1 RETURNDATACOPY RETURNDATASIZE PUSH1 0x0 REVERT JUMPDEST POP POP POP POP PUSH1 0x40 MLOAD RETURNDATASIZE PUSH1 0x1F NOT PUSH1 0x1F DUP3 ADD AND DUP3 ADD DUP1 PUSH1 0x40 MSTORE POP DUP2 ADD SWAP1 PUSH2 0x1B8B SWAP2 SWAP1 PUSH2 0x2D61 JUMP JUMPDEST PUSH20 0xFFFFFFFFFFFFFFFFFFFFFFFFFFFFFFFFFFFFFFFF AND DUP2 MSTORE PUSH1 0x20 ADD DUP8 PUSH20 0xFFFFFFFFFFFFFFFFFFFFFFFFFFFFFFFFFFFFFFFF AND DUP2 MSTORE PUSH1 0x20 ADD DUP9 PUSH20 0xFFFFFFFFFFFFFFFFFFFFFFFFFFFFFFFFFFFFFFFF AND DUP2 MSTORE PUSH1 0x20 ADD DUP7 PUSH20 0xFFFFFFFFFFFFFFFFFFFFFFFFFFFFFFFFFFFFFFFF AND DUP2 MSTORE PUSH1 0x20 ADD DUP6 DUP2 MSTORE PUSH1 0x20 ADD DUP5 DUP2 MSTORE PUSH1 0x20 ADD DUP4 DUP2 MSTORE PUSH1 0x20 ADD PUSH1 0x0 DUP2 MSTORE PUSH1 0x20 ADD PUSH1 0x0 DUP2 MSTORE PUSH1 0x20 ADD DUP3 ISZERO ISZERO DUP2 MSTORE POP PUSH1 0x1 PUSH1 0x0 DUP1 SLOAD DUP2 MSTORE PUSH1 0x20 ADD SWAP1 DUP2 MSTORE PUSH1 0x20 ADD PUSH1 0x0 KECCAK256 PUSH1 0x0 DUP3 ADD MLOAD DUP2 PUSH1 0x0 ADD PUSH1 0x0 PUSH2 0x100 EXP DUP2 SLOAD DUP2 PUSH20 0xFFFFFFFFFFFFFFFFFFFFFFFFFFFFFFFFFFFFFFFF MUL NOT AND SWAP1 DUP4 PUSH20 0xFFFFFFFFFFFFFFFFFFFFFFFFFFFFFFFFFFFFFFFF AND MUL OR SWAP1 SSTORE POP PUSH1 0x20 DUP3 ADD MLOAD DUP2 PUSH1 0x1 ADD PUSH1 0x0 PUSH2 0x100 EXP DUP2 SLOAD DUP2 PUSH20 0xFFFFFFFFFFFFFFFFFFFFFFFFFFFFFFFFFFFFFFFF MUL NOT AND SWAP1 DUP4 PUSH20 0xFFFFFFFFFFFFFFFFFFFFFFFFFFFFFFFFFFFFFFFF AND MUL OR SWAP1 SSTORE POP PUSH1 0x40 DUP3 ADD MLOAD DUP2 PUSH1 0x2 ADD PUSH1 0x0 PUSH2 0x100 EXP DUP2 SLOAD DUP2 PUSH20 0xFFFFFFFFFFFFFFFFFFFFFFFFFFFFFFFFFFFFFFFF MUL NOT AND SWAP1 DUP4 PUSH20 0xFFFFFFFFFFFFFFFFFFFFFFFFFFFFFFFFFFFFFFFF AND MUL OR SWAP1 SSTORE POP PUSH1 0x60 DUP3 ADD MLOAD DUP2 PUSH1 0x3 ADD PUSH1 0x0 PUSH2 0x100 EXP DUP2 SLOAD DUP2 PUSH20 0xFFFFFFFFFFFFFFFFFFFFFFFFFFFFFFFFFFFFFFFF MUL NOT AND SWAP1 DUP4 PUSH20 0xFFFFFFFFFFFFFFFFFFFFFFFFFFFFFFFFFFFFFFFF AND MUL OR SWAP1 SSTORE POP PUSH1 0x80 DUP3 ADD MLOAD DUP2 PUSH1 0x4 ADD SSTORE PUSH1 0xA0 DUP3 ADD MLOAD DUP2 PUSH1 0x5 ADD SSTORE PUSH1 0xC0 DUP3 ADD MLOAD DUP2 PUSH1 0x6 ADD SSTORE PUSH1 0xE0 DUP3 ADD MLOAD DUP2 PUSH1 0x7 ADD SSTORE PUSH2 0x100 DUP3 ADD MLOAD DUP2 PUSH1 0x8 ADD SSTORE PUSH2 0x120 DUP3 ADD MLOAD DUP2 PUSH1 0x9 ADD PUSH1 0x0 PUSH2 0x100 EXP DUP2 SLOAD DUP2 PUSH1 0xFF MUL NOT AND SWAP1 DUP4 ISZERO ISZERO MUL OR SWAP1 SSTORE POP SWAP1 POP POP TIMESTAMP PUSH1 0x2 PUSH1 0x0 DUP1 SLOAD DUP2 MSTORE PUSH1 0x20 ADD SWAP1 DUP2 MSTORE PUSH1 0x20 ADD PUSH1 0x0 KECCAK256 PUSH1 0x0 DUP1 DUP2 MSTORE PUSH1 0x20 ADD SWAP1 DUP2 MSTORE PUSH1 0x20 ADD PUSH1 0x0 KECCAK256 PUSH1 0x0 ADD DUP2 SWAP1 SSTORE POP PUSH1 0x0 SLOAD PUSH32 0xEF8B2952C43462575E82711D0CC91169720A4589A9FA533D173E022437F5405E DUP7 DUP7 PUSH1 0x40 MLOAD PUSH2 0x1E08 SWAP3 SWAP2 SWAP1 PUSH2 0x2D8E JUMP JUMPDEST PUSH1 0x40 MLOAD DUP1 SWAP2 SUB SWAP1 LOG2 PUSH1 0x0 DUP1 DUP2 SLOAD DUP1 SWAP3 SWAP2 SWAP1 PUSH2 0x1E22 SWAP1 PUSH2 0x2DB7 JUMP JUMPDEST SWAP2 SWAP1 POP SSTORE POP POP POP POP POP POP POP POP JUMP JUMPDEST PUSH1 0x1 PUSH1 0x20 MSTORE DUP1 PUSH1 0x0 MSTORE PUSH1 0x40 PUSH1 0x0 KECCAK256 PUSH1 0x0 SWAP2 POP SWAP1 POP DUP1 PUSH1 0x0 ADD PUSH1 0x0 SWAP1 SLOAD SWAP1 PUSH2 0x100 EXP SWAP1 DIV PUSH20 0xFFFFFFFFFFFFFFFFFFFFFFFFFFFFFFFFFFFFFFFF AND SWAP1 DUP1 PUSH1 0x1 ADD PUSH1 0x0 SWAP1 SLOAD SWAP1 PUSH2 0x100 EXP SWAP1 DIV PUSH20 0xFFFFFFFFFFFFFFFFFFFFFFFFFFFFFFFFFFFFFFFF AND SWAP1 DUP1 PUSH1 0x2 ADD PUSH1 0x0 SWAP1 SLOAD SWAP1 PUSH2 0x100 EXP SWAP1 DIV PUSH20 0xFFFFFFFFFFFFFFFFFFFFFFFFFFFFFFFFFFFFFFFF AND SWAP1 DUP1 PUSH1 0x3 ADD PUSH1 0x0 SWAP1 SLOAD SWAP1 PUSH2 0x100 EXP SWAP1 DIV PUSH20 0xFFFFFFFFFFFFFFFFFFFFFFFFFFFFFFFFFFFFFFFF AND SWAP1 DUP1 PUSH1 0x4 ADD SLOAD SWAP1 DUP1 PUSH1 0x5 ADD SLOAD SWAP1 DUP1 PUSH1 0x6 ADD SLOAD SWAP1 DUP1 PUSH1 0x7 ADD SLOAD SWAP1 DUP1 PUSH1 0x8 ADD SLOAD SWAP1 DUP1 PUSH1 0x9 ADD PUSH1 0x0 SWAP1 SLOAD SWAP1 PUSH2 0x100 EXP SWAP1 DIV PUSH1 0xFF AND SWAP1 POP DUP11 JUMP JUMPDEST DUP1 PUSH1 0x3 PUSH1 0x0 DUP6 DUP2 MSTORE PUSH1 0x20 ADD SWAP1 DUP2 MSTORE PUSH1 0x20 ADD PUSH1 0x0 KECCAK256 PUSH1 0x0 DUP5 PUSH20 0xFFFFFFFFFFFFFFFFFFFFFFFFFFFFFFFFFFFFFFFF AND PUSH20 0xFFFFFFFFFFFFFFFFFFFFFFFFFFFFFFFFFFFFFFFF AND DUP2 MSTORE PUSH1 0x20 ADD SWAP1 DUP2 MSTORE PUSH1 0x20 ADD PUSH1 0x0 KECCAK256 PUSH1 0x0 PUSH2 0x100 EXP DUP2 SLOAD DUP2 PUSH1 0xFF MUL NOT AND SWAP1 DUP4 ISZERO ISZERO MUL OR SWAP1 SSTORE POP POP POP POP JUMP JUMPDEST PUSH1 0x0 TIMESTAMP PUSH1 0x1 PUSH1 0x0 DUP5 DUP2 MSTORE PUSH1 0x20 ADD SWAP1 DUP2 MSTORE PUSH1 0x20 ADD PUSH1 0x0 KECCAK256 PUSH1 0x5 ADD SLOAD LT SWAP1 POP SWAP2 SWAP1 POP JUMP JUMPDEST PUSH1 0x0 TIMESTAMP PUSH1 0x1 PUSH1 0x0 DUP5 DUP2 MSTORE PUSH1 0x20 ADD SWAP1 DUP2 MSTORE PUSH1 0x20 ADD PUSH1 0x0 KECCAK256 PUSH1 0x6 ADD SLOAD GT ISZERO SWAP1 POP SWAP2 SWAP1 POP JUMP JUMPDEST PUSH1 0x0 DUP1 PUSH1 0x1 PUSH1 0x0 DUP5 DUP2 MSTORE PUSH1 0x20 ADD SWAP1 DUP2 MSTORE PUSH1 0x20 ADD PUSH1 0x0 KECCAK256 PUSH1 0x40 MLOAD DUP1 PUSH2 0x140 ADD PUSH1 0x40 MSTORE SWAP1 DUP2 PUSH1 0x0 DUP3 ADD PUSH1 0x0 SWAP1 SLOAD SWAP1 PUSH2 0x100 EXP SWAP1 DIV PUSH20 0xFFFFFFFFFFFFFFFFFFFFFFFFFFFFFFFFFFFFFFFF AND PUSH20 0xFFFFFFFFFFFFFFFFFFFFFFFFFFFFFFFFFFFFFFFF AND PUSH20 0xFFFFFFFFFFFFFFFFFFFFFFFFFFFFFFFFFFFFFFFF AND DUP2 MSTORE PUSH1 0x20 ADD PUSH1 0x1 DUP3 ADD PUSH1 0x0 SWAP1 SLOAD SWAP1 PUSH2 0x100 EXP SWAP1 DIV PUSH20 0xFFFFFFFFFFFFFFFFFFFFFFFFFFFFFFFFFFFFFFFF AND PUSH20 0xFFFFFFFFFFFFFFFFFFFFFFFFFFFFFFFFFFFFFFFF AND PUSH20 0xFFFFFFFFFFFFFFFFFFFFFFFFFFFFFFFFFFFFFFFF AND DUP2 MSTORE PUSH1 0x20 ADD PUSH1 0x2 DUP3 ADD PUSH1 0x0 SWAP1 SLOAD SWAP1 PUSH2 0x100 EXP SWAP1 DIV PUSH20 0xFFFFFFFFFFFFFFFFFFFFFFFFFFFFFFFFFFFFFFFF AND PUSH20 0xFFFFFFFFFFFFFFFFFFFFFFFFFFFFFFFFFFFFFFFF AND PUSH20 0xFFFFFFFFFFFFFFFFFFFFFFFFFFFFFFFFFFFFFFFF AND DUP2 MSTORE PUSH1 0x20 ADD PUSH1 0x3 DUP3 ADD PUSH1 0x0 SWAP1 SLOAD SWAP1 PUSH2 0x100 EXP SWAP1 DIV PUSH20 0xFFFFFFFFFFFFFFFFFFFFFFFFFFFFFFFFFFFFFFFF AND PUSH20 0xFFFFFFFFFFFFFFFFFFFFFFFFFFFFFFFFFFFFFFFF AND PUSH20 0xFFFFFFFFFFFFFFFFFFFFFFFFFFFFFFFFFFFFFFFF AND DUP2 MSTORE PUSH1 0x20 ADD PUSH1 0x4 DUP3 ADD SLOAD DUP2 MSTORE PUSH1 0x20 ADD PUSH1 0x5 DUP3 ADD SLOAD DUP2 MSTORE PUSH1 0x20 ADD PUSH1 0x6 DUP3 ADD SLOAD DUP2 MSTORE PUSH1 0x20 ADD PUSH1 0x7 DUP3 ADD SLOAD DUP2 MSTORE PUSH1 0x20 ADD PUSH1 0x8 DUP3 ADD SLOAD DUP2 MSTORE PUSH1 0x20 ADD PUSH1 0x9 DUP3 ADD PUSH1 0x0 SWAP1 SLOAD SWAP1 PUSH2 0x100 EXP SWAP1 DIV PUSH1 0xFF AND ISZERO ISZERO ISZERO ISZERO DUP2 MSTORE POP POP SWAP1 POP PUSH1 0x0 PUSH1 0x2 PUSH1 0x0 DUP6 DUP2 MSTORE PUSH1 0x20 ADD SWAP1 DUP2 MSTORE PUSH1 0x20 ADD PUSH1 0x0 KECCAK256 PUSH1 0x0 DUP4 PUSH2 0x100 ADD MLOAD DUP2 MSTORE PUSH1 0x20 ADD SWAP1 DUP2 MSTORE PUSH1 0x20 ADD PUSH1 0x0 KECCAK256 PUSH1 0x40 MLOAD DUP1 PUSH1 0x80 ADD PUSH1 0x40 MSTORE SWAP1 DUP2 PUSH1 0x0 DUP3 ADD SLOAD DUP2 MSTORE PUSH1 0x20 ADD PUSH1 0x1 DUP3 ADD SLOAD DUP2 MSTORE PUSH1 0x20 ADD PUSH1 0x2 DUP3 ADD PUSH1 0x0 SWAP1 SLOAD SWAP1 PUSH2 0x100 EXP SWAP1 DIV PUSH20 0xFFFFFFFFFFFFFFFFFFFFFFFFFFFFFFFFFFFFFFFF AND PUSH20 0xFFFFFFFFFFFFFFFFFFFFFFFFFFFFFFFFFFFFFFFF AND PUSH20 0xFFFFFFFFFFFFFFFFFFFFFFFFFFFFFFFFFFFFFFFF AND DUP2 MSTORE PUSH1 0x20 ADD PUSH1 0x3 DUP3 ADD SLOAD DUP2 MSTORE POP POP SWAP1 POP PUSH1 0x0 PUSH2 0x2243 DUP6 PUSH2 0x1FA0 JUMP JUMPDEST ISZERO PUSH2 0x2263 JUMPI DUP3 PUSH1 0xC0 ADD MLOAD DUP3 PUSH1 0x0 ADD MLOAD PUSH2 0x225C SWAP2 SWAP1 PUSH2 0x2A90 JUMP JUMPDEST SWAP1 POP PUSH2 0x2276 JUMP JUMPDEST TIMESTAMP DUP3 PUSH1 0x0 ADD MLOAD PUSH2 0x2273 SWAP2 SWAP1 PUSH2 0x2A90 JUMP JUMPDEST SWAP1 POP JUMPDEST PUSH4 0x1E13380 DUP2 PUSH8 0xDE0B6B3A7640000 DUP6 PUSH1 0xE0 ADD MLOAD DUP6 PUSH1 0x20 ADD MLOAD PUSH2 0x2299 SWAP2 SWAP1 PUSH2 0x2DFF JUMP JUMPDEST PUSH2 0x22A3 SWAP2 SWAP1 PUSH2 0x2E88 JUMP JUMPDEST PUSH2 0x22AD SWAP2 SWAP1 PUSH2 0x2DFF JUMP JUMPDEST PUSH2 0x22B7 SWAP2 SWAP1 PUSH2 0x2E88 JUMP JUMPDEST DUP3 PUSH1 0x20 ADD MLOAD PUSH2 0x22C6 SWAP2 SWAP1 PUSH2 0x29AE JUMP JUMPDEST SWAP4 POP POP POP POP SWAP2 SWAP1 POP JUMP JUMPDEST PUSH1 0x40 MLOAD DUP1 PUSH2 0x140 ADD PUSH1 0x40 MSTORE DUP1 PUSH1 0x0 PUSH20 0xFFFFFFFFFFFFFFFFFFFFFFFFFFFFFFFFFFFFFFFF AND DUP2 MSTORE PUSH1 0x20 ADD PUSH1 0x0 PUSH20 0xFFFFFFFFFFFFFFFFFFFFFFFFFFFFFFFFFFFFFFFF AND DUP2 MSTORE PUSH1 0x20 ADD PUSH1 0x0 PUSH20 0xFFFFFFFFFFFFFFFFFFFFFFFFFFFFFFFFFFFFFFFF AND DUP2 MSTORE PUSH1 0x20 ADD PUSH1 0x0 PUSH20 0xFFFFFFFFFFFFFFFFFFFFFFFFFFFFFFFFFFFFFFFF AND DUP2 MSTORE PUSH1 0x20 ADD PUSH1 0x0 DUP2 MSTORE PUSH1 0x20 ADD PUSH1 0x0 DUP2 MSTORE PUSH1 0x20 ADD PUSH1 0x0 DUP2 MSTORE PUSH1 0x20 ADD PUSH1 0x0 DUP2 MSTORE PUSH1 0x20 ADD PUSH1 0x0 DUP2 MSTORE PUSH1 0x20 ADD PUSH1 0x0 ISZERO ISZERO DUP2 MSTORE POP SWAP1 JUMP JUMPDEST PUSH1 0x0 DUP2 SWAP1 POP SWAP2 SWAP1 POP JUMP JUMPDEST PUSH2 0x2390 DUP2 PUSH2 0x237D JUMP JUMPDEST DUP3 MSTORE POP POP JUMP JUMPDEST PUSH1 0x0 PUSH1 0x20 DUP3 ADD SWAP1 POP PUSH2 0x23AB PUSH1 0x0 DUP4 ADD DUP5 PUSH2 0x2387 JUMP JUMPDEST SWAP3 SWAP2 POP POP JUMP JUMPDEST PUSH1 0x0 DUP1 REVERT JUMPDEST PUSH2 0x23BF DUP2 PUSH2 0x237D JUMP JUMPDEST DUP2 EQ PUSH2 0x23CA JUMPI PUSH1 0x0 DUP1 REVERT JUMPDEST POP JUMP JUMPDEST PUSH1 0x0 DUP2 CALLDATALOAD SWAP1 POP PUSH2 0x23DC DUP2 PUSH2 0x23B6 JUMP JUMPDEST SWAP3 SWAP2 POP POP JUMP JUMPDEST PUSH1 0x0 PUSH1 0x20 DUP3 DUP5 SUB SLT ISZERO PUSH2 0x23F8 JUMPI PUSH2 0x23F7 PUSH2 0x23B1 JUMP JUMPDEST JUMPDEST PUSH1 0x0 PUSH2 0x2406 DUP5 DUP3 DUP6 ADD PUSH2 0x23CD JUMP JUMPDEST SWAP2 POP POP SWAP3 SWAP2 POP POP JUMP JUMPDEST PUSH1 0x0 DUP1 PUSH1 0x0 PUSH1 0x60 DUP5 DUP7 SUB SLT ISZERO PUSH2 0x2428 JUMPI PUSH2 0x2427 PUSH2 0x23B1 JUMP JUMPDEST JUMPDEST PUSH1 0x0 PUSH2 0x2436 DUP7 DUP3 DUP8 ADD PUSH2 0x23CD JUMP JUMPDEST SWAP4 POP POP PUSH1 0x20 PUSH2 0x2447 DUP7 DUP3 DUP8 ADD PUSH2 0x23CD JUMP JUMPDEST SWAP3 POP POP PUSH1 0x40 PUSH2 0x2458 DUP7 DUP3 DUP8 ADD PUSH2 0x23CD JUMP JUMPDEST SWAP2 POP POP SWAP3 POP SWAP3 POP SWAP3 JUMP JUMPDEST PUSH1 0x0 DUP1 PUSH1 0x40 DUP4 DUP6 SUB SLT ISZERO PUSH2 0x2479 JUMPI PUSH2 0x2478 PUSH2 0x23B1 JUMP JUMPDEST JUMPDEST PUSH1 0x0 PUSH2 0x2487 DUP6 DUP3 DUP7 ADD PUSH2 0x23CD JUMP JUMPDEST SWAP3 POP POP PUSH1 0x20 PUSH2 0x2498 DUP6 DUP3 DUP7 ADD PUSH2 0x23CD JUMP JUMPDEST SWAP2 POP POP SWAP3 POP SWAP3 SWAP1 POP JUMP JUMPDEST PUSH1 0x0 PUSH20 0xFFFFFFFFFFFFFFFFFFFFFFFFFFFFFFFFFFFFFFFF DUP3 AND SWAP1 POP SWAP2 SWAP1 POP JUMP JUMPDEST PUSH1 0x0 PUSH2 0x24CD DUP3 PUSH2 0x24A2 JUMP JUMPDEST SWAP1 POP SWAP2 SWAP1 POP JUMP JUMPDEST PUSH2 0x24DD DUP2 PUSH2 0x24C2 JUMP JUMPDEST DUP3 MSTORE POP POP JUMP JUMPDEST PUSH1 0x0 PUSH1 0x80 DUP3 ADD SWAP1 POP PUSH2 0x24F8 PUSH1 0x0 DUP4 ADD DUP8 PUSH2 0x2387 JUMP JUMPDEST PUSH2 0x2505 PUSH1 0x20 DUP4 ADD DUP7 PUSH2 0x2387 JUMP JUMPDEST PUSH2 0x2512 PUSH1 0x40 DUP4 ADD DUP6 PUSH2 0x24D4 JUMP JUMPDEST PUSH2 0x251F PUSH1 0x60 DUP4 ADD DUP5 PUSH2 0x2387 JUMP JUMPDEST SWAP6 SWAP5 POP POP POP POP POP JUMP JUMPDEST PUSH2 0x2531 DUP2 PUSH2 0x24C2 JUMP JUMPDEST DUP2 EQ PUSH2 0x253C JUMPI PUSH1 0x0 DUP1 REVERT JUMPDEST POP JUMP JUMPDEST PUSH1 0x0 DUP2 CALLDATALOAD SWAP1 POP PUSH2 0x254E DUP2 PUSH2 0x2528 JUMP JUMPDEST SWAP3 SWAP2 POP POP JUMP JUMPDEST PUSH1 0x0 DUP1 PUSH1 0x40 DUP4 DUP6 SUB SLT ISZERO PUSH2 0x256B JUMPI PUSH2 0x256A PUSH2 0x23B1 JUMP JUMPDEST JUMPDEST PUSH1 0x0 PUSH2 0x2579 DUP6 DUP3 DUP7 ADD PUSH2 0x23CD JUMP JUMPDEST SWAP3 POP POP PUSH1 0x20 PUSH2 0x258A DUP6 DUP3 DUP7 ADD PUSH2 0x253F JUMP JUMPDEST SWAP2 POP POP SWAP3 POP SWAP3 SWAP1 POP JUMP JUMPDEST PUSH1 0x0 DUP2 ISZERO ISZERO SWAP1 POP SWAP2 SWAP1 POP JUMP JUMPDEST PUSH2 0x25A9 DUP2 PUSH2 0x2594 JUMP JUMPDEST DUP3 MSTORE POP POP JUMP JUMPDEST PUSH1 0x0 PUSH1 0x20 DUP3 ADD SWAP1 POP PUSH2 0x25C4 PUSH1 0x0 DUP4 ADD DUP5 PUSH2 0x25A0 JUMP JUMPDEST SWAP3 SWAP2 POP POP JUMP JUMPDEST PUSH2 0x25D3 DUP2 PUSH2 0x2594 JUMP JUMPDEST DUP2 EQ PUSH2 0x25DE JUMPI PUSH1 0x0 DUP1 REVERT JUMPDEST POP JUMP JUMPDEST PUSH1 0x0 DUP2 CALLDATALOAD SWAP1 POP PUSH2 0x25F0 DUP2 PUSH2 0x25CA JUMP JUMPDEST SWAP3 SWAP2 POP POP JUMP JUMPDEST PUSH1 0x0 DUP1 PUSH1 0x0 DUP1 PUSH1 0x0 DUP1 PUSH1 0x0 PUSH1 0xE0 DUP9 DUP11 SUB SLT ISZERO PUSH2 0x2615 JUMPI PUSH2 0x2614 PUSH2 0x23B1 JUMP JUMPDEST JUMPDEST PUSH1 0x0 PUSH2 0x2623 DUP11 DUP3 DUP12 ADD PUSH2 0x253F JUMP JUMPDEST SWAP8 POP POP PUSH1 0x20 PUSH2 0x2634 DUP11 DUP3 DUP12 ADD PUSH2 0x253F JUMP JUMPDEST SWAP7 POP POP PUSH1 0x40 PUSH2 0x2645 DUP11 DUP3 DUP12 ADD PUSH2 0x253F JUMP JUMPDEST SWAP6 POP POP PUSH1 0x60 PUSH2 0x2656 DUP11 DUP3 DUP12 ADD PUSH2 0x23CD JUMP JUMPDEST SWAP5 POP POP PUSH1 0x80 PUSH2 0x2667 DUP11 DUP3 DUP12 ADD PUSH2 0x23CD JUMP JUMPDEST SWAP4 POP POP PUSH1 0xA0 PUSH2 0x2678 DUP11 DUP3 DUP12 ADD PUSH2 0x23CD JUMP JUMPDEST SWAP3 POP POP PUSH1 0xC0 PUSH2 0x2689 DUP11 DUP3 DUP12 ADD PUSH2 0x25E1 JUMP JUMPDEST SWAP2 POP POP SWAP3 SWAP6 SWAP9 SWAP2 SWAP5 SWAP8 POP SWAP3 SWAP6 POP JUMP JUMPDEST PUSH1 0x0 PUSH2 0x140 DUP3 ADD SWAP1 POP PUSH2 0x26AE PUSH1 0x0 DUP4 ADD DUP14 PUSH2 0x24D4 JUMP JUMPDEST PUSH2 0x26BB PUSH1 0x20 DUP4 ADD DUP13 PUSH2 0x24D4 JUMP JUMPDEST PUSH2 0x26C8 PUSH1 0x40 DUP4 ADD DUP12 PUSH2 0x24D4 JUMP JUMPDEST PUSH2 0x26D5 PUSH1 0x60 DUP4 ADD DUP11 PUSH2 0x24D4 JUMP JUMPDEST PUSH2 0x26E2 PUSH1 0x80 DUP4 ADD DUP10 PUSH2 0x2387 JUMP JUMPDEST PUSH2 0x26EF PUSH1 0xA0 DUP4 ADD DUP9 PUSH2 0x2387 JUMP JUMPDEST PUSH2 0x26FC PUSH1 0xC0 DUP4 ADD DUP8 PUSH2 0x2387 JUMP JUMPDEST PUSH2 0x2709 PUSH1 0xE0 DUP4 ADD DUP7 PUSH2 0x2387 JUMP JUMPDEST PUSH2 0x2717 PUSH2 0x100 DUP4 ADD DUP6 PUSH2 0x2387 JUMP JUMPDEST PUSH2 0x2725 PUSH2 0x120 DUP4 ADD DUP5 PUSH2 0x25A0 JUMP JUMPDEST SWAP12 SWAP11 POP POP POP POP POP POP POP POP POP POP POP JUMP JUMPDEST PUSH1 0x0 DUP1 PUSH1 0x0 PUSH1 0x60 DUP5 DUP7 SUB SLT ISZERO PUSH2 0x274D JUMPI PUSH2 0x274C PUSH2 0x23B1 JUMP JUMPDEST JUMPDEST PUSH1 0x0 PUSH2 0x275B DUP7 DUP3 DUP8 ADD PUSH2 0x23CD JUMP JUMPDEST SWAP4 POP POP PUSH1 0x20 PUSH2 0x276C DUP7 DUP3 DUP8 ADD PUSH2 0x253F JUMP JUMPDEST SWAP3 POP POP PUSH1 0x40 PUSH2 0x277D DUP7 DUP3 DUP8 ADD PUSH2 0x25E1 JUMP JUMPDEST SWAP2 POP POP SWAP3 POP SWAP3 POP SWAP3 JUMP JUMPDEST PUSH1 0x0 DUP3 DUP3 MSTORE PUSH1 0x20 DUP3 ADD SWAP1 POP SWAP3 SWAP2 POP POP JUMP JUMPDEST PUSH32 0x4C414E3A206E6F74206F776E6572000000000000000000000000000000000000 PUSH1 0x0 DUP3 ADD MSTORE POP JUMP JUMPDEST PUSH1 0x0 PUSH2 0x27CE PUSH1 0xE DUP4 PUSH2 0x2787 JUMP JUMPDEST SWAP2 POP PUSH2 0x27D9 DUP3 PUSH2 0x2798 JUMP JUMPDEST PUSH1 0x20 DUP3 ADD SWAP1 POP SWAP2 SWAP1 POP JUMP JUMPDEST PUSH1 0x0 PUSH1 0x20 DUP3 ADD SWAP1 POP DUP2 DUP2 SUB PUSH1 0x0 DUP4 ADD MSTORE PUSH2 0x27FD DUP2 PUSH2 0x27C1 JUMP JUMPDEST SWAP1 POP SWAP2 SWAP1 POP JUMP JUMPDEST PUSH1 0x0 PUSH1 0x60 DUP3 ADD SWAP1 POP PUSH2 0x2819 PUSH1 0x0 DUP4 ADD DUP7 PUSH2 0x24D4 JUMP JUMPDEST PUSH2 0x2826 PUSH1 0x20 DUP4 ADD DUP6 PUSH2 0x24D4 JUMP JUMPDEST PUSH2 0x2833 PUSH1 0x40 DUP4 ADD DUP5 PUSH2 0x2387 JUMP JUMPDEST SWAP5 SWAP4 POP POP POP POP JUMP JUMPDEST PUSH32 0x4C414E3A206E6F74207374617274656400000000000000000000000000000000 PUSH1 0x0 DUP3 ADD MSTORE POP JUMP JUMPDEST PUSH1 0x0 PUSH2 0x2871 PUSH1 0x10 DUP4 PUSH2 0x2787 JUMP JUMPDEST SWAP2 POP PUSH2 0x287C DUP3 PUSH2 0x283B JUMP JUMPDEST PUSH1 0x20 DUP3 ADD SWAP1 POP SWAP2 SWAP1 POP JUMP JUMPDEST PUSH1 0x0 PUSH1 0x20 DUP3 ADD SWAP1 POP DUP2 DUP2 SUB PUSH1 0x0 DUP4 ADD MSTORE PUSH2 0x28A0 DUP2 PUSH2 0x2864 JUMP JUMPDEST SWAP1 POP SWAP2 SWAP1 POP JUMP JUMPDEST PUSH32 0x4C414E3A20616C726561647920656E6465640000000000000000000000000000 PUSH1 0x0 DUP3 ADD MSTORE POP JUMP JUMPDEST PUSH1 0x0 PUSH2 0x28DD PUSH1 0x12 DUP4 PUSH2 0x2787 JUMP JUMPDEST SWAP2 POP PUSH2 0x28E8 DUP3 PUSH2 0x28A7 JUMP JUMPDEST PUSH1 0x20 DUP3 ADD SWAP1 POP SWAP2 SWAP1 POP JUMP JUMPDEST PUSH1 0x0 PUSH1 0x20 DUP3 ADD SWAP1 POP DUP2 DUP2 SUB PUSH1 0x0 DUP4 ADD MSTORE PUSH2 0x290C DUP2 PUSH2 0x28D0 JUMP JUMPDEST SWAP1 POP SWAP2 SWAP1 POP JUMP JUMPDEST PUSH32 0x4C414E3A204E6F742057686974656C6973746564000000000000000000000000 PUSH1 0x0 DUP3 ADD MSTORE POP JUMP JUMPDEST PUSH1 0x0 PUSH2 0x2949 PUSH1 0x14 DUP4 PUSH2 0x2787 JUMP JUMPDEST SWAP2 POP PUSH2 0x2954 DUP3 PUSH2 0x2913 JUMP JUMPDEST PUSH1 0x20 DUP3 ADD SWAP1 POP SWAP2 SWAP1 POP JUMP JUMPDEST PUSH1 0x0 PUSH1 0x20 DUP3 ADD SWAP1 POP DUP2 DUP2 SUB PUSH1 0x0 DUP4 ADD MSTORE PUSH2 0x2978 DUP2 PUSH2 0x293C JUMP JUMPDEST SWAP1 POP SWAP2 SWAP1 POP JUMP JUMPDEST PUSH32 0x4E487B7100000000000000000000000000000000000000000000000000000000 PUSH1 0x0 MSTORE PUSH1 0x11 PUSH1 0x4 MSTORE PUSH1 0x24 PUSH1 0x0 REVERT JUMPDEST PUSH1 0x0 PUSH2 0x29B9 DUP3 PUSH2 0x237D JUMP JUMPDEST SWAP2 POP PUSH2 0x29C4 DUP4 PUSH2 0x237D JUMP JUMPDEST SWAP3 POP DUP3 DUP3 ADD SWAP1 POP DUP1 DUP3 GT ISZERO PUSH2 0x29DC JUMPI PUSH2 0x29DB PUSH2 0x297F JUMP JUMPDEST JUMPDEST SWAP3 SWAP2 POP POP JUMP JUMPDEST PUSH32 0x4C414E3A20626964206E6F742068696768657200000000000000000000000000 PUSH1 0x0 DUP3 ADD MSTORE POP JUMP JUMPDEST PUSH1 0x0 PUSH2 0x2A18 PUSH1 0x13 DUP4 PUSH2 0x2787 JUMP JUMPDEST SWAP2 POP PUSH2 0x2A23 DUP3 PUSH2 0x29E2 JUMP JUMPDEST PUSH1 0x20 DUP3 ADD SWAP1 POP SWAP2 SWAP1 POP JUMP JUMPDEST PUSH1 0x0 PUSH1 0x20 DUP3 ADD SWAP1 POP DUP2 DUP2 SUB PUSH1 0x0 DUP4 ADD MSTORE PUSH2 0x2A47 DUP2 PUSH2 0x2A0B JUMP JUMPDEST SWAP1 POP SWAP2 SWAP1 POP JUMP JUMPDEST PUSH1 0x0 DUP2 MLOAD SWAP1 POP PUSH2 0x2A5D DUP2 PUSH2 0x25CA JUMP JUMPDEST SWAP3 SWAP2 POP POP JUMP JUMPDEST PUSH1 0x0 PUSH1 0x20 DUP3 DUP5 SUB SLT ISZERO PUSH2 0x2A79 JUMPI PUSH2 0x2A78 PUSH2 0x23B1 JUMP JUMPDEST JUMPDEST PUSH1 0x0 PUSH2 0x2A87 DUP5 DUP3 DUP6 ADD PUSH2 0x2A4E JUMP JUMPDEST SWAP2 POP POP SWAP3 SWAP2 POP POP JUMP JUMPDEST PUSH1 0x0 PUSH2 0x2A9B DUP3 PUSH2 0x237D JUMP JUMPDEST SWAP2 POP PUSH2 0x2AA6 DUP4 PUSH2 0x237D JUMP JUMPDEST SWAP3 POP DUP3 DUP3 SUB SWAP1 POP DUP2 DUP2 GT ISZERO PUSH2 0x2ABE JUMPI PUSH2 0x2ABD PUSH2 0x297F JUMP JUMPDEST JUMPDEST SWAP3 SWAP2 POP POP JUMP JUMPDEST PUSH32 0x4C414E3A20616C72656164792073746172746564000000000000000000000000 PUSH1 0x0 DUP3 ADD MSTORE POP JUMP JUMPDEST PUSH1 0x0 PUSH2 0x2AFA PUSH1 0x14 DUP4 PUSH2 0x2787 JUMP JUMPDEST SWAP2 POP PUSH2 0x2B05 DUP3 PUSH2 0x2AC4 JUMP JUMPDEST PUSH1 0x20 DUP3 ADD SWAP1 POP SWAP2 SWAP1 POP JUMP JUMPDEST PUSH1 0x0 PUSH1 0x20 DUP3 ADD SWAP1 POP DUP2 DUP2 SUB PUSH1 0x0 DUP4 ADD MSTORE PUSH2 0x2B29 DUP2 PUSH2 0x2AED JUMP JUMPDEST SWAP1 POP SWAP2 SWAP1 POP JUMP JUMPDEST PUSH32 0x4C414E3A206C6F616E206E6F7420656E64656400000000000000000000000000 PUSH1 0x0 DUP3 ADD MSTORE POP JUMP JUMPDEST PUSH1 0x0 PUSH2 0x2B66 PUSH1 0x13 DUP4 PUSH2 0x2787 JUMP JUMPDEST SWAP2 POP PUSH2 0x2B71 DUP3 PUSH2 0x2B30 JUMP JUMPDEST PUSH1 0x20 DUP3 ADD SWAP1 POP SWAP2 SWAP1 POP JUMP JUMPDEST PUSH1 0x0 PUSH1 0x20 DUP3 ADD SWAP1 POP DUP2 DUP2 SUB PUSH1 0x0 DUP4 ADD MSTORE PUSH2 0x2B95 DUP2 PUSH2 0x2B59 JUMP JUMPDEST SWAP1 POP SWAP2 SWAP1 POP JUMP JUMPDEST PUSH32 0x4C414E3A206E6F74206C61746573742062696464657200000000000000000000 PUSH1 0x0 DUP3 ADD MSTORE POP JUMP JUMPDEST PUSH1 0x0 PUSH2 0x2BD2 PUSH1 0x16 DUP4 PUSH2 0x2787 JUMP JUMPDEST SWAP2 POP PUSH2 0x2BDD DUP3 PUSH2 0x2B9C JUMP JUMPDEST PUSH1 0x20 DUP3 ADD SWAP1 POP SWAP2 SWAP1 POP JUMP JUMPDEST PUSH1 0x0 PUSH1 0x20 DUP3 ADD SWAP1 POP DUP2 DUP2 SUB PUSH1 0x0 DUP4 ADD MSTORE PUSH2 0x2C01 DUP2 PUSH2 0x2BC5 JUMP JUMPDEST SWAP1 POP SWAP2 SWAP1 POP JUMP JUMPDEST PUSH32 0x4C414E3A204E6F7420746865206C617465737420626964646572000000000000 PUSH1 0x0 DUP3 ADD MSTORE POP JUMP JUMPDEST PUSH1 0x0 PUSH2 0x2C3E PUSH1 0x1A DUP4 PUSH2 0x2787 JUMP JUMPDEST SWAP2 POP PUSH2 0x2C49 DUP3 PUSH2 0x2C08 JUMP JUMPDEST PUSH1 0x20 DUP3 ADD SWAP1 POP SWAP2 SWAP1 POP JUMP JUMPDEST PUSH1 0x0 PUSH1 0x20 DUP3 ADD SWAP1 POP DUP2 DUP2 SUB PUSH1 0x0 DUP4 ADD MSTORE PUSH2 0x2C6D DUP2 PUSH2 0x2C31 JUMP JUMPDEST SWAP1 POP SWAP2 SWAP1 POP JUMP JUMPDEST PUSH32 0x4C414E3A2073746172742074696D6520696E2070617374000000000000000000 PUSH1 0x0 DUP3 ADD MSTORE POP JUMP JUMPDEST PUSH1 0x0 PUSH2 0x2CAA PUSH1 0x17 DUP4 PUSH2 0x2787 JUMP JUMPDEST SWAP2 POP PUSH2 0x2CB5 DUP3 PUSH2 0x2C74 JUMP JUMPDEST PUSH1 0x20 DUP3 ADD SWAP1 POP SWAP2 SWAP1 POP JUMP JUMPDEST PUSH1 0x0 PUSH1 0x20 DUP3 ADD SWAP1 POP DUP2 DUP2 SUB PUSH1 0x0 DUP4 ADD MSTORE PUSH2 0x2CD9 DUP2 PUSH2 0x2C9D JUMP JUMPDEST SWAP1 POP SWAP2 SWAP1 POP JUMP JUMPDEST PUSH32 0x4C414E3A20737461727420616674657220656E64000000000000000000000000 PUSH1 0x0 DUP3 ADD MSTORE POP JUMP JUMPDEST PUSH1 0x0 PUSH2 0x2D16 PUSH1 0x14 DUP4 PUSH2 0x2787 JUMP JUMPDEST SWAP2 POP PUSH2 0x2D21 DUP3 PUSH2 0x2CE0 JUMP JUMPDEST PUSH1 0x20 DUP3 ADD SWAP1 POP SWAP2 SWAP1 POP JUMP JUMPDEST PUSH1 0x0 PUSH1 0x20 DUP3 ADD SWAP1 POP DUP2 DUP2 SUB PUSH1 0x0 DUP4 ADD MSTORE PUSH2 0x2D45 DUP2 PUSH2 0x2D09 JUMP JUMPDEST SWAP1 POP SWAP2 SWAP1 POP JUMP JUMPDEST PUSH1 0x0 DUP2 MLOAD SWAP1 POP PUSH2 0x2D5B DUP2 PUSH2 0x2528 JUMP JUMPDEST SWAP3 SWAP2 POP POP JUMP JUMPDEST PUSH1 0x0 PUSH1 0x20 DUP3 DUP5 SUB SLT ISZERO PUSH2 0x2D77 JUMPI PUSH2 0x2D76 PUSH2 0x23B1 JUMP JUMPDEST JUMPDEST PUSH1 0x0 PUSH2 0x2D85 DUP5 DUP3 DUP6 ADD PUSH2 0x2D4C JUMP JUMPDEST SWAP2 POP POP SWAP3 SWAP2 POP POP JUMP JUMPDEST PUSH1 0x0 PUSH1 0x40 DUP3 ADD SWAP1 POP PUSH2 0x2DA3 PUSH1 0x0 DUP4 ADD DUP6 PUSH2 0x24D4 JUMP JUMPDEST PUSH2 0x2DB0 PUSH1 0x20 DUP4 ADD DUP5 PUSH2 0x2387 JUMP JUMPDEST SWAP4 SWAP3 POP POP POP JUMP JUMPDEST PUSH1 0x0 PUSH2 0x2DC2 DUP3 PUSH2 0x237D JUMP JUMPDEST SWAP2 POP PUSH32 0xFFFFFFFFFFFFFFFFFFFFFFFFFFFFFFFFFFFFFFFFFFFFFFFFFFFFFFFFFFFFFFFF DUP3 SUB PUSH2 0x2DF4 JUMPI PUSH2 0x2DF3 PUSH2 0x297F JUMP JUMPDEST JUMPDEST PUSH1 0x1 DUP3 ADD SWAP1 POP SWAP2 SWAP1 POP JUMP JUMPDEST PUSH1 0x0 PUSH2 0x2E0A DUP3 PUSH2 0x237D JUMP JUMPDEST SWAP2 POP PUSH2 0x2E15 DUP4 PUSH2 0x237D JUMP JUMPDEST SWAP3 POP DUP2 PUSH32 0xFFFFFFFFFFFFFFFFFFFFFFFFFFFFFFFFFFFFFFFFFFFFFFFFFFFFFFFFFFFFFFFF DIV DUP4 GT DUP3 ISZERO ISZERO AND ISZERO PUSH2 0x2E4E JUMPI PUSH2 0x2E4D PUSH2 0x297F JUMP JUMPDEST JUMPDEST DUP3 DUP3 MUL SWAP1 POP SWAP3 SWAP2 POP POP JUMP JUMPDEST PUSH32 0x4E487B7100000000000000000000000000000000000000000000000000000000 PUSH1 0x0 MSTORE PUSH1 0x12 PUSH1 0x4 MSTORE PUSH1 0x24 PUSH1 0x0 REVERT JUMPDEST PUSH1 0x0 PUSH2 0x2E93 DUP3 PUSH2 0x237D JUMP JUMPDEST SWAP2 POP PUSH2 0x2E9E DUP4 PUSH2 0x237D JUMP JUMPDEST SWAP3 POP DUP3 PUSH2 0x2EAE JUMPI PUSH2 0x2EAD PUSH2 0x2E59 JUMP JUMPDEST JUMPDEST DUP3 DUP3 DIV SWAP1 POP SWAP3 SWAP2 POP POP JUMP INVALID LOG2 PUSH5 0x6970667358 0x22 SLT KECCAK256 GAS 0xD1 SWAP10 0xD3 0xC5 0xF EXTCODEHASH 0xDD SHL 0xCC 0xB5 0xCD SLOAD EXTCODESIZE PUSH28 0x914E0672E24DB69D5C4725E287025826BD64736F6C63430008100033 "
				},
				"gasEstimates": {
					"creation": {
						"codeDepositCost": "2403000",
						"executionCost": "2583",
						"totalCost": "2405583"
					},
					"external": {
						"bid(uint256,uint256,uint256)": "infinite",
						"bids(uint256,uint256)": "infinite",
						"cancel(uint256)": "infinite",
						"changeWhitelist(uint256,address,bool)": "25349",
						"count()": "2430",
						"endLoan(uint256)": "infinite",
						"launch(address,address,address,uint256,uint256,uint256,bool)": "infinite",
						"liquidate(uint256)": "infinite",
						"liquidateEarly(uint256)": "infinite",
						"loans(uint256)": "infinite",
						"setNewBidOwner(uint256,address)": "53380",
						"whitelistedAddresses(uint256,address)": "3131"
					},
					"internal": {
						"_calculateLoanValue(uint256)": "infinite",
						"_ended(uint256)": "2226",
						"_started(uint256)": "2223"
					}
				},
				"methodIdentifiers": {
					"bid(uint256,uint256,uint256)": "2ac9bf09",
					"bids(uint256,uint256)": "7b3c4baa",
					"cancel(uint256)": "40e58ee5",
					"changeWhitelist(uint256,address,bool)": "f724e48e",
					"count()": "06661abd",
					"endLoan(uint256)": "7870860b",
					"launch(address,address,address,uint256,uint256,uint256,bool)": "e1267929",
					"liquidate(uint256)": "415f1240",
					"liquidateEarly(uint256)": "18de4f9d",
					"loans(uint256)": "e1ec3c68",
					"setNewBidOwner(uint256,address)": "8f769f3a",
					"whitelistedAddresses(uint256,address)": "a23b02bd"
				}
			},
			"storageLayout": {
				"storage": [
					{
						"astId": 223,
						"contract": "main.sol:LAN",
						"label": "count",
						"offset": 0,
						"slot": "0",
						"type": "t_uint256"
					},
					{
						"astId": 249,
						"contract": "main.sol:LAN",
						"label": "loans",
						"offset": 0,
						"slot": "1",
						"type": "t_mapping(t_uint256,t_struct(Loan)244_storage)"
					},
					{
						"astId": 265,
						"contract": "main.sol:LAN",
						"label": "bids",
						"offset": 0,
						"slot": "2",
						"type": "t_mapping(t_uint256,t_mapping(t_uint256,t_struct(Bid)258_storage))"
					},
					{
						"astId": 271,
						"contract": "main.sol:LAN",
						"label": "whitelistedAddresses",
						"offset": 0,
						"slot": "3",
						"type": "t_mapping(t_uint256,t_mapping(t_address,t_bool))"
					}
				],
				"types": {
					"t_address": {
						"encoding": "inplace",
						"label": "address",
						"numberOfBytes": "20"
					},
					"t_bool": {
						"encoding": "inplace",
						"label": "bool",
						"numberOfBytes": "1"
					},
					"t_mapping(t_address,t_bool)": {
						"encoding": "mapping",
						"key": "t_address",
						"label": "mapping(address => bool)",
						"numberOfBytes": "32",
						"value": "t_bool"
					},
					"t_mapping(t_uint256,t_mapping(t_address,t_bool))": {
						"encoding": "mapping",
						"key": "t_uint256",
						"label": "mapping(uint256 => mapping(address => bool))",
						"numberOfBytes": "32",
						"value": "t_mapping(t_address,t_bool)"
					},
					"t_mapping(t_uint256,t_mapping(t_uint256,t_struct(Bid)258_storage))": {
						"encoding": "mapping",
						"key": "t_uint256",
						"label": "mapping(uint256 => mapping(uint256 => struct LAN.Bid))",
						"numberOfBytes": "32",
						"value": "t_mapping(t_uint256,t_struct(Bid)258_storage)"
					},
					"t_mapping(t_uint256,t_struct(Bid)258_storage)": {
						"encoding": "mapping",
						"key": "t_uint256",
						"label": "mapping(uint256 => struct LAN.Bid)",
						"numberOfBytes": "32",
						"value": "t_struct(Bid)258_storage"
					},
					"t_mapping(t_uint256,t_struct(Loan)244_storage)": {
						"encoding": "mapping",
						"key": "t_uint256",
						"label": "mapping(uint256 => struct LAN.Loan)",
						"numberOfBytes": "32",
						"value": "t_struct(Loan)244_storage"
					},
					"t_struct(Bid)258_storage": {
						"encoding": "inplace",
						"label": "struct LAN.Bid",
						"members": [
							{
								"astId": 251,
								"contract": "main.sol:LAN",
								"label": "bidTime",
								"offset": 0,
								"slot": "0",
								"type": "t_uint256"
							},
							{
								"astId": 253,
								"contract": "main.sol:LAN",
								"label": "bidAmount",
								"offset": 0,
								"slot": "1",
								"type": "t_uint256"
							},
							{
								"astId": 255,
								"contract": "main.sol:LAN",
								"label": "user",
								"offset": 0,
								"slot": "2",
								"type": "t_address"
							},
							{
								"astId": 257,
								"contract": "main.sol:LAN",
								"label": "apr",
								"offset": 0,
								"slot": "3",
								"type": "t_uint256"
							}
						],
						"numberOfBytes": "128"
					},
					"t_struct(Loan)244_storage": {
						"encoding": "inplace",
						"label": "struct LAN.Loan",
						"members": [
							{
								"astId": 225,
								"contract": "main.sol:LAN",
								"label": "owner",
								"offset": 0,
								"slot": "0",
								"type": "t_address"
							},
							{
								"astId": 227,
								"contract": "main.sol:LAN",
								"label": "token",
								"offset": 0,
								"slot": "1",
								"type": "t_address"
							},
							{
								"astId": 229,
								"contract": "main.sol:LAN",
								"label": "operator",
								"offset": 0,
								"slot": "2",
								"type": "t_address"
							},
							{
								"astId": 231,
								"contract": "main.sol:LAN",
								"label": "collectionAddress",
								"offset": 0,
								"slot": "3",
								"type": "t_address"
							},
							{
								"astId": 233,
								"contract": "main.sol:LAN",
								"label": "nftId",
								"offset": 0,
								"slot": "4",
								"type": "t_uint256"
							},
							{
								"astId": 235,
								"contract": "main.sol:LAN",
								"label": "startTime",
								"offset": 0,
								"slot": "5",
								"type": "t_uint256"
							},
							{
								"astId": 237,
								"contract": "main.sol:LAN",
								"label": "endTime",
								"offset": 0,
								"slot": "6",
								"type": "t_uint256"
							},
							{
								"astId": 239,
								"contract": "main.sol:LAN",
								"label": "apr",
								"offset": 0,
								"slot": "7",
								"type": "t_uint256"
							},
							{
								"astId": 241,
								"contract": "main.sol:LAN",
								"label": "numBids",
								"offset": 0,
								"slot": "8",
								"type": "t_uint256"
							},
							{
								"astId": 243,
								"contract": "main.sol:LAN",
								"label": "whitelisted",
								"offset": 0,
								"slot": "9",
								"type": "t_bool"
							}
						],
						"numberOfBytes": "320"
					},
					"t_uint256": {
						"encoding": "inplace",
						"label": "uint256",
						"numberOfBytes": "32"
					}
				}
			},
			"userdoc": {
				"kind": "user",
				"methods": {},
				"version": 1
			}
		}
	}
}