{
	"main.sol": {
		"LAN": {
			"abi": [
				{
					"anonymous": false,
					"inputs": [
						{
							"indexed": false,
							"internalType": "uint256",
							"name": "Id",
							"type": "uint256"
						}
					],
					"name": "loanCancelled",
					"type": "event"
				},
				{
					"anonymous": false,
					"inputs": [
						{
							"indexed": true,
							"internalType": "uint256",
							"name": "poolId",
							"type": "uint256"
						},
						{
							"indexed": false,
							"internalType": "address",
							"name": "collectionAddress",
							"type": "address"
						},
						{
							"indexed": false,
							"internalType": "uint256",
							"name": "nftId",
							"type": "uint256"
						}
					],
					"name": "newPool",
					"type": "event"
				},
				{
					"inputs": [
						{
							"internalType": "uint256",
							"name": "_poolId",
							"type": "uint256"
						},
						{
							"internalType": "uint256",
							"name": "_amount",
							"type": "uint256"
						}
					],
					"name": "bid",
					"outputs": [],
					"stateMutability": "nonpayable",
					"type": "function"
				},
				{
					"inputs": [
						{
							"internalType": "uint256",
							"name": "",
							"type": "uint256"
						},
						{
							"internalType": "uint256",
							"name": "",
							"type": "uint256"
						}
					],
					"name": "bids",
					"outputs": [
						{
							"internalType": "uint256",
							"name": "bidTime",
							"type": "uint256"
						},
						{
							"internalType": "uint256",
							"name": "bidAmount",
							"type": "uint256"
						},
						{
							"internalType": "address",
							"name": "user",
							"type": "address"
						}
					],
					"stateMutability": "view",
					"type": "function"
				},
				{
					"inputs": [
						{
							"internalType": "uint256",
							"name": "_poolId",
							"type": "uint256"
						}
					],
					"name": "cancel",
					"outputs": [],
					"stateMutability": "nonpayable",
					"type": "function"
				},
				{
					"inputs": [],
					"name": "count",
					"outputs": [
						{
							"internalType": "uint256",
							"name": "",
							"type": "uint256"
						}
					],
					"stateMutability": "view",
					"type": "function"
				},
				{
					"inputs": [
						{
							"internalType": "uint256",
							"name": "_poolId",
							"type": "uint256"
						}
					],
					"name": "endLoan",
					"outputs": [],
					"stateMutability": "nonpayable",
					"type": "function"
				},
				{
					"inputs": [
						{
							"internalType": "address",
							"name": "_token",
							"type": "address"
						},
						{
							"internalType": "address",
							"name": "_collectionAddress",
							"type": "address"
						},
						{
							"internalType": "uint256",
							"name": "_nftId",
							"type": "uint256"
						},
						{
							"internalType": "uint256",
							"name": "_startTime",
							"type": "uint256"
						},
						{
							"internalType": "uint256",
							"name": "_endTime",
							"type": "uint256"
						},
						{
							"internalType": "uint256",
							"name": "_apr",
							"type": "uint256"
						}
					],
					"name": "launch",
					"outputs": [],
					"stateMutability": "nonpayable",
					"type": "function"
				},
				{
					"inputs": [
						{
							"internalType": "uint256",
							"name": "_poolId",
							"type": "uint256"
						}
					],
					"name": "liquidate",
					"outputs": [],
					"stateMutability": "nonpayable",
					"type": "function"
				},
				{
					"inputs": [
						{
							"internalType": "uint256",
							"name": "",
							"type": "uint256"
						}
					],
					"name": "loans",
					"outputs": [
						{
							"internalType": "address",
							"name": "owner",
							"type": "address"
						},
						{
							"internalType": "address",
							"name": "token",
							"type": "address"
						},
						{
							"internalType": "address",
							"name": "collectionAddress",
							"type": "address"
						},
						{
							"internalType": "uint256",
							"name": "nftId",
							"type": "uint256"
						},
						{
							"internalType": "uint256",
							"name": "startTime",
							"type": "uint256"
						},
						{
							"internalType": "uint256",
							"name": "endTime",
							"type": "uint256"
						},
						{
							"internalType": "uint256",
							"name": "apr",
							"type": "uint256"
						},
						{
							"internalType": "uint256",
							"name": "numBids",
							"type": "uint256"
						}
					],
					"stateMutability": "view",
					"type": "function"
				}
			],
			"devdoc": {
				"kind": "dev",
				"methods": {},
				"version": 1
			},
			"evm": {
				"assembly": "    /* \"main.sol\":142:4731  contract LAN{... */\n  mstore(0x40, 0x80)\n  callvalue\n  dup1\n  iszero\n  tag_1\n  jumpi\n  0x00\n  dup1\n  revert\ntag_1:\n  pop\n  dataSize(sub_0)\n  dup1\n  dataOffset(sub_0)\n  0x00\n  codecopy\n  0x00\n  return\nstop\n\nsub_0: assembly {\n        /* \"main.sol\":142:4731  contract LAN{... */\n      mstore(0x40, 0x80)\n      callvalue\n      dup1\n      iszero\n      tag_1\n      jumpi\n      0x00\n      dup1\n      revert\n    tag_1:\n      pop\n      jumpi(tag_2, lt(calldatasize, 0x04))\n      shr(0xe0, calldataload(0x00))\n      dup1\n      0x7870860b\n      gt\n      tag_11\n      jumpi\n      dup1\n      0x7870860b\n      eq\n      tag_7\n      jumpi\n      dup1\n      0x7b3c4baa\n      eq\n      tag_8\n      jumpi\n      dup1\n      0xe1ec3c68\n      eq\n      tag_9\n      jumpi\n      dup1\n      0xe7e4dfcd\n      eq\n      tag_10\n      jumpi\n      jump(tag_2)\n    tag_11:\n      dup1\n      0x06661abd\n      eq\n      tag_3\n      jumpi\n      dup1\n      0x40e58ee5\n      eq\n      tag_4\n      jumpi\n      dup1\n      0x415f1240\n      eq\n      tag_5\n      jumpi\n      dup1\n      0x598647f8\n      eq\n      tag_6\n      jumpi\n    tag_2:\n      0x00\n      dup1\n      revert\n        /* \"main.sol\":313:333  uint256 public count */\n    tag_3:\n      tag_12\n      tag_13\n      jump\t// in\n    tag_12:\n      mload(0x40)\n      tag_14\n      swap2\n      swap1\n      tag_15\n      jump\t// in\n    tag_14:\n      mload(0x40)\n      dup1\n      swap2\n      sub\n      swap1\n      return\n        /* \"main.sol\":2654:2898  function cancel(uint256 _poolId) external onlyOwner(_poolId) {... */\n    tag_4:\n      tag_16\n      0x04\n      dup1\n      calldatasize\n      sub\n      dup2\n      add\n      swap1\n      tag_17\n      swap2\n      swap1\n      tag_18\n      jump\t// in\n    tag_17:\n      tag_19\n      jump\t// in\n    tag_16:\n      stop\n        /* \"main.sol\":3468:3901  function liquidate(uint256 _poolId) external {... */\n    tag_5:\n      tag_20\n      0x04\n      dup1\n      calldatasize\n      sub\n      dup2\n      add\n      swap1\n      tag_21\n      swap2\n      swap1\n      tag_18\n      jump\t// in\n    tag_21:\n      tag_22\n      jump\t// in\n    tag_20:\n      stop\n        /* \"main.sol\":1734:2607  function bid(uint256 _poolId, uint256 _amount) external {... */\n    tag_6:\n      tag_23\n      0x04\n      dup1\n      calldatasize\n      sub\n      dup2\n      add\n      swap1\n      tag_24\n      swap2\n      swap1\n      tag_25\n      jump\t// in\n    tag_24:\n      tag_26\n      jump\t// in\n    tag_23:\n      stop\n        /* \"main.sol\":2937:3414  function endLoan(uint256 _poolId) external onlyOwner(_poolId) {... */\n    tag_7:\n      tag_27\n      0x04\n      dup1\n      calldatasize\n      sub\n      dup2\n      add\n      swap1\n      tag_28\n      swap2\n      swap1\n      tag_18\n      jump\t// in\n    tag_28:\n      tag_29\n      jump\t// in\n    tag_27:\n      stop\n        /* \"main.sol\":706:761  mapping(uint256 => mapping(uint256 => Bid)) public bids */\n    tag_8:\n      tag_30\n      0x04\n      dup1\n      calldatasize\n      sub\n      dup2\n      add\n      swap1\n      tag_31\n      swap2\n      swap1\n      tag_25\n      jump\t// in\n    tag_31:\n      tag_32\n      jump\t// in\n    tag_30:\n      mload(0x40)\n      tag_33\n      swap4\n      swap3\n      swap2\n      swap1\n      tag_34\n      jump\t// in\n    tag_33:\n      mload(0x40)\n      dup1\n      swap2\n      sub\n      swap1\n      return\n        /* \"main.sol\":565:602  mapping(uint256 => Loan) public loans */\n    tag_9:\n      tag_35\n      0x04\n      dup1\n      calldatasize\n      sub\n      dup2\n      add\n      swap1\n      tag_36\n      swap2\n      swap1\n      tag_18\n      jump\t// in\n    tag_36:\n      tag_37\n      jump\t// in\n    tag_35:\n      mload(0x40)\n      tag_38\n      swap9\n      swap8\n      swap7\n      swap6\n      swap5\n      swap4\n      swap3\n      swap2\n      swap1\n      tag_39\n      jump\t// in\n    tag_38:\n      mload(0x40)\n      dup1\n      swap2\n      sub\n      swap1\n      return\n        /* \"main.sol\":1033:1728  function launch(address _token, address _collectionAddress, uint256 _nftId, uint256 _startTime, uint256 _endTime, uint256 _apr) public {... */\n    tag_10:\n      tag_40\n      0x04\n      dup1\n      calldatasize\n      sub\n      dup2\n      add\n      swap1\n      tag_41\n      swap2\n      swap1\n      tag_42\n      jump\t// in\n    tag_41:\n      tag_43\n      jump\t// in\n    tag_40:\n      stop\n        /* \"main.sol\":313:333  uint256 public count */\n    tag_13:\n      sload(0x00)\n      dup2\n      jump\t// out\n        /* \"main.sol\":2654:2898  function cancel(uint256 _poolId) external onlyOwner(_poolId) {... */\n    tag_19:\n        /* \"main.sol\":2706:2713  _poolId */\n      dup1\n        /* \"main.sol\":980:990  msg.sender */\n      caller\n        /* \"main.sol\":956:990  loans[_poolId].owner == msg.sender */\n      0xffffffffffffffffffffffffffffffffffffffff\n      and\n        /* \"main.sol\":956:961  loans */\n      0x01\n        /* \"main.sol\":956:970  loans[_poolId] */\n      0x00\n        /* \"main.sol\":962:969  _poolId */\n      dup4\n        /* \"main.sol\":956:970  loans[_poolId] */\n      dup2\n      mstore\n      0x20\n      add\n      swap1\n      dup2\n      mstore\n      0x20\n      add\n      0x00\n      keccak256\n        /* \"main.sol\":956:976  loans[_poolId].owner */\n      0x00\n      add\n      0x00\n      swap1\n      sload\n      swap1\n      0x0100\n      exp\n      swap1\n      div\n      0xffffffffffffffffffffffffffffffffffffffff\n      and\n        /* \"main.sol\":956:990  loans[_poolId].owner == msg.sender */\n      0xffffffffffffffffffffffffffffffffffffffff\n      and\n      eq\n        /* \"main.sol\":948:1009  require(loans[_poolId].owner == msg.sender, \"LAN: not owner\") */\n      tag_45\n      jumpi\n      mload(0x40)\n      0x08c379a000000000000000000000000000000000000000000000000000000000\n      dup2\n      mstore\n      0x04\n      add\n      tag_46\n      swap1\n      tag_47\n      jump\t// in\n    tag_46:\n      mload(0x40)\n      dup1\n      swap2\n      sub\n      swap1\n      revert\n    tag_45:\n        /* \"main.sol\":2725:2741  Loan memory loan */\n      0x00\n        /* \"main.sol\":2744:2749  loans */\n      0x01\n        /* \"main.sol\":2744:2758  loans[_poolId] */\n      0x00\n        /* \"main.sol\":2750:2757  _poolId */\n      dup5\n        /* \"main.sol\":2744:2758  loans[_poolId] */\n      dup2\n      mstore\n      0x20\n      add\n      swap1\n      dup2\n      mstore\n      0x20\n      add\n      0x00\n      keccak256\n        /* \"main.sol\":2725:2758  Loan memory loan = loans[_poolId] */\n      mload(0x40)\n      dup1\n      0x0100\n      add\n      0x40\n      mstore\n      swap1\n      dup2\n      0x00\n      dup3\n      add\n      0x00\n      swap1\n      sload\n      swap1\n      0x0100\n      exp\n      swap1\n      div\n      0xffffffffffffffffffffffffffffffffffffffff\n      and\n      0xffffffffffffffffffffffffffffffffffffffff\n      and\n      0xffffffffffffffffffffffffffffffffffffffff\n      and\n      dup2\n      mstore\n      0x20\n      add\n      0x01\n      dup3\n      add\n      0x00\n      swap1\n      sload\n      swap1\n      0x0100\n      exp\n      swap1\n      div\n      0xffffffffffffffffffffffffffffffffffffffff\n      and\n      0xffffffffffffffffffffffffffffffffffffffff\n      and\n      0xffffffffffffffffffffffffffffffffffffffff\n      and\n      dup2\n      mstore\n      0x20\n      add\n      0x02\n      dup3\n      add\n      0x00\n      swap1\n      sload\n      swap1\n      0x0100\n      exp\n      swap1\n      div\n      0xffffffffffffffffffffffffffffffffffffffff\n      and\n      0xffffffffffffffffffffffffffffffffffffffff\n      and\n      0xffffffffffffffffffffffffffffffffffffffff\n      and\n      dup2\n      mstore\n      0x20\n      add\n      0x03\n      dup3\n      add\n      sload\n      dup2\n      mstore\n      0x20\n      add\n      0x04\n      dup3\n      add\n      sload\n      dup2\n      mstore\n      0x20\n      add\n      0x05\n      dup3\n      add\n      sload\n      dup2\n      mstore\n      0x20\n      add\n      0x06\n      dup3\n      add\n      sload\n      dup2\n      mstore\n      0x20\n      add\n      0x07\n      dup3\n      add\n      sload\n      dup2\n      mstore\n      pop\n      pop\n      swap1\n      pop\n        /* \"main.sol\":2793:2808  block.timestamp */\n      timestamp\n        /* \"main.sol\":2776:2780  loan */\n      dup2\n        /* \"main.sol\":2776:2790  loan.startTime */\n      0x80\n      add\n      mload\n        /* \"main.sol\":2776:2808  loan.startTime > block.timestamp */\n      gt\n        /* \"main.sol\":2768:2833  require(loan.startTime > block.timestamp, \"LAN: already started\") */\n      tag_49\n      jumpi\n      mload(0x40)\n      0x08c379a000000000000000000000000000000000000000000000000000000000\n      dup2\n      mstore\n      0x04\n      add\n      tag_50\n      swap1\n      tag_51\n      jump\t// in\n    tag_50:\n      mload(0x40)\n      dup1\n      swap2\n      sub\n      swap1\n      revert\n    tag_49:\n        /* \"main.sol\":2843:2854  delete loan */\n      tag_52\n      tag_53\n      jump\t// in\n    tag_52:\n      swap1\n      pop\n        /* \"main.sol\":2869:2891  loanCancelled(_poolId) */\n      0xfe785ef891129b084b1c5a30e4d88eb97c97822c024cc25d5f9d806b897512e0\n        /* \"main.sol\":2883:2890  _poolId */\n      dup4\n        /* \"main.sol\":2869:2891  loanCancelled(_poolId) */\n      mload(0x40)\n      tag_54\n      swap2\n      swap1\n      tag_15\n      jump\t// in\n    tag_54:\n      mload(0x40)\n      dup1\n      swap2\n      sub\n      swap1\n      log1\n        /* \"main.sol\":2715:2898  {... */\n      pop\n        /* \"main.sol\":2654:2898  function cancel(uint256 _poolId) external onlyOwner(_poolId) {... */\n      pop\n      pop\n      jump\t// out\n        /* \"main.sol\":3468:3901  function liquidate(uint256 _poolId) external {... */\n    tag_22:\n        /* \"main.sol\":3523:3539  Loan memory loan */\n      0x00\n        /* \"main.sol\":3542:3547  loans */\n      0x01\n        /* \"main.sol\":3542:3556  loans[_poolId] */\n      0x00\n        /* \"main.sol\":3548:3555  _poolId */\n      dup4\n        /* \"main.sol\":3542:3556  loans[_poolId] */\n      dup2\n      mstore\n      0x20\n      add\n      swap1\n      dup2\n      mstore\n      0x20\n      add\n      0x00\n      keccak256\n        /* \"main.sol\":3523:3556  Loan memory loan = loans[_poolId] */\n      mload(0x40)\n      dup1\n      0x0100\n      add\n      0x40\n      mstore\n      swap1\n      dup2\n      0x00\n      dup3\n      add\n      0x00\n      swap1\n      sload\n      swap1\n      0x0100\n      exp\n      swap1\n      div\n      0xffffffffffffffffffffffffffffffffffffffff\n      and\n      0xffffffffffffffffffffffffffffffffffffffff\n      and\n      0xffffffffffffffffffffffffffffffffffffffff\n      and\n      dup2\n      mstore\n      0x20\n      add\n      0x01\n      dup3\n      add\n      0x00\n      swap1\n      sload\n      swap1\n      0x0100\n      exp\n      swap1\n      div\n      0xffffffffffffffffffffffffffffffffffffffff\n      and\n      0xffffffffffffffffffffffffffffffffffffffff\n      and\n      0xffffffffffffffffffffffffffffffffffffffff\n      and\n      dup2\n      mstore\n      0x20\n      add\n      0x02\n      dup3\n      add\n      0x00\n      swap1\n      sload\n      swap1\n      0x0100\n      exp\n      swap1\n      div\n      0xffffffffffffffffffffffffffffffffffffffff\n      and\n      0xffffffffffffffffffffffffffffffffffffffff\n      and\n      0xffffffffffffffffffffffffffffffffffffffff\n      and\n      dup2\n      mstore\n      0x20\n      add\n      0x03\n      dup3\n      add\n      sload\n      dup2\n      mstore\n      0x20\n      add\n      0x04\n      dup3\n      add\n      sload\n      dup2\n      mstore\n      0x20\n      add\n      0x05\n      dup3\n      add\n      sload\n      dup2\n      mstore\n      0x20\n      add\n      0x06\n      dup3\n      add\n      sload\n      dup2\n      mstore\n      0x20\n      add\n      0x07\n      dup3\n      add\n      sload\n      dup2\n      mstore\n      pop\n      pop\n      swap1\n      pop\n        /* \"main.sol\":3574:3589  _ended(_poolId) */\n      tag_56\n        /* \"main.sol\":3581:3588  _poolId */\n      dup3\n        /* \"main.sol\":3574:3580  _ended */\n      tag_57\n        /* \"main.sol\":3574:3589  _ended(_poolId) */\n      jump\t// in\n    tag_56:\n        /* \"main.sol\":3566:3613  require(_ended(_poolId), \"LAN: loan not ended\") */\n      tag_58\n      jumpi\n      mload(0x40)\n      0x08c379a000000000000000000000000000000000000000000000000000000000\n      dup2\n      mstore\n      0x04\n      add\n      tag_59\n      swap1\n      tag_60\n      jump\t// in\n    tag_59:\n      mload(0x40)\n      dup1\n      swap2\n      sub\n      swap1\n      revert\n    tag_58:\n        /* \"main.sol\":3623:3643  Bid memory latestBid */\n      0x00\n        /* \"main.sol\":3646:3650  bids */\n      0x02\n        /* \"main.sol\":3646:3659  bids[_poolId] */\n      0x00\n        /* \"main.sol\":3651:3658  _poolId */\n      dup5\n        /* \"main.sol\":3646:3659  bids[_poolId] */\n      dup2\n      mstore\n      0x20\n      add\n      swap1\n      dup2\n      mstore\n      0x20\n      add\n      0x00\n      keccak256\n        /* \"main.sol\":3646:3673  bids[_poolId][loan.numBids] */\n      0x00\n        /* \"main.sol\":3660:3664  loan */\n      dup4\n        /* \"main.sol\":3660:3672  loan.numBids */\n      0xe0\n      add\n      mload\n        /* \"main.sol\":3646:3673  bids[_poolId][loan.numBids] */\n      dup2\n      mstore\n      0x20\n      add\n      swap1\n      dup2\n      mstore\n      0x20\n      add\n      0x00\n      keccak256\n        /* \"main.sol\":3623:3673  Bid memory latestBid = bids[_poolId][loan.numBids] */\n      mload(0x40)\n      dup1\n      0x60\n      add\n      0x40\n      mstore\n      swap1\n      dup2\n      0x00\n      dup3\n      add\n      sload\n      dup2\n      mstore\n      0x20\n      add\n      0x01\n      dup3\n      add\n      sload\n      dup2\n      mstore\n      0x20\n      add\n      0x02\n      dup3\n      add\n      0x00\n      swap1\n      sload\n      swap1\n      0x0100\n      exp\n      swap1\n      div\n      0xffffffffffffffffffffffffffffffffffffffff\n      and\n      0xffffffffffffffffffffffffffffffffffffffff\n      and\n      0xffffffffffffffffffffffffffffffffffffffff\n      and\n      dup2\n      mstore\n      pop\n      pop\n      swap1\n      pop\n        /* \"main.sol\":3709:3719  msg.sender */\n      caller\n        /* \"main.sol\":3691:3719  latestBid.user == msg.sender */\n      0xffffffffffffffffffffffffffffffffffffffff\n      and\n        /* \"main.sol\":3691:3700  latestBid */\n      dup2\n        /* \"main.sol\":3691:3705  latestBid.user */\n      0x40\n      add\n      mload\n        /* \"main.sol\":3691:3719  latestBid.user == msg.sender */\n      0xffffffffffffffffffffffffffffffffffffffff\n      and\n      eq\n        /* \"main.sol\":3683:3746  require(latestBid.user == msg.sender, \"LAN: not latest bidder\") */\n      tag_61\n      jumpi\n      mload(0x40)\n      0x08c379a000000000000000000000000000000000000000000000000000000000\n      dup2\n      mstore\n      0x04\n      add\n      tag_62\n      swap1\n      tag_63\n      jump\t// in\n    tag_62:\n      mload(0x40)\n      dup1\n      swap2\n      sub\n      swap1\n      revert\n    tag_61:\n        /* \"main.sol\":3780:3791  IERC721 NFT */\n      0x00\n        /* \"main.sol\":3802:3806  loan */\n      dup3\n        /* \"main.sol\":3802:3824  loan.collectionAddress */\n      0x40\n      add\n      mload\n        /* \"main.sol\":3780:3825  IERC721 NFT = IERC721(loan.collectionAddress) */\n      swap1\n      pop\n        /* \"main.sol\":3835:3838  NFT */\n      dup1\n        /* \"main.sol\":3835:3855  NFT.safeTransferFrom */\n      0xffffffffffffffffffffffffffffffffffffffff\n      and\n      0x42842e0e\n        /* \"main.sol\":3864:3868  this */\n      address\n        /* \"main.sol\":3871:3881  msg.sender */\n      caller\n        /* \"main.sol\":3883:3887  loan */\n      dup7\n        /* \"main.sol\":3883:3893  loan.nftId */\n      0x60\n      add\n      mload\n        /* \"main.sol\":3835:3894  NFT.safeTransferFrom(address(this), msg.sender, loan.nftId) */\n      mload(0x40)\n      dup5\n      0xffffffff\n      and\n      0xe0\n      shl\n      dup2\n      mstore\n      0x04\n      add\n      tag_64\n      swap4\n      swap3\n      swap2\n      swap1\n      tag_65\n      jump\t// in\n    tag_64:\n      0x00\n      mload(0x40)\n      dup1\n      dup4\n      sub\n      dup2\n      0x00\n      dup8\n      dup1\n      extcodesize\n      iszero\n      dup1\n      iszero\n      tag_66\n      jumpi\n      0x00\n      dup1\n      revert\n    tag_66:\n      pop\n      gas\n      call\n      iszero\n      dup1\n      iszero\n      tag_68\n      jumpi\n      returndatasize\n      0x00\n      dup1\n      returndatacopy\n      revert(0x00, returndatasize)\n    tag_68:\n      pop\n      pop\n      pop\n      pop\n        /* \"main.sol\":3513:3901  {... */\n      pop\n      pop\n      pop\n        /* \"main.sol\":3468:3901  function liquidate(uint256 _poolId) external {... */\n      pop\n      jump\t// out\n        /* \"main.sol\":1734:2607  function bid(uint256 _poolId, uint256 _amount) external {... */\n    tag_26:\n        /* \"main.sol\":1808:1825  _started(_poolId) */\n      tag_70\n        /* \"main.sol\":1817:1824  _poolId */\n      dup3\n        /* \"main.sol\":1808:1816  _started */\n      tag_71\n        /* \"main.sol\":1808:1825  _started(_poolId) */\n      jump\t// in\n    tag_70:\n        /* \"main.sol\":1800:1846  require(_started(_poolId), \"LAN: not started\") */\n      tag_72\n      jumpi\n      mload(0x40)\n      0x08c379a000000000000000000000000000000000000000000000000000000000\n      dup2\n      mstore\n      0x04\n      add\n      tag_73\n      swap1\n      tag_74\n      jump\t// in\n    tag_73:\n      mload(0x40)\n      dup1\n      swap2\n      sub\n      swap1\n      revert\n    tag_72:\n        /* \"main.sol\":1865:1880  _ended(_poolId) */\n      tag_75\n        /* \"main.sol\":1872:1879  _poolId */\n      dup3\n        /* \"main.sol\":1865:1871  _ended */\n      tag_57\n        /* \"main.sol\":1865:1880  _ended(_poolId) */\n      jump\t// in\n    tag_75:\n        /* \"main.sol\":1864:1880  !_ended(_poolId) */\n      iszero\n        /* \"main.sol\":1856:1903  require(!_ended(_poolId), \"LAN: already ended\") */\n      tag_76\n      jumpi\n      mload(0x40)\n      0x08c379a000000000000000000000000000000000000000000000000000000000\n      dup2\n      mstore\n      0x04\n      add\n      tag_77\n      swap1\n      tag_78\n      jump\t// in\n    tag_77:\n      mload(0x40)\n      dup1\n      swap2\n      sub\n      swap1\n      revert\n    tag_76:\n        /* \"main.sol\":1913:1929  Loan memory loan */\n      0x00\n        /* \"main.sol\":1932:1937  loans */\n      0x01\n        /* \"main.sol\":1932:1946  loans[_poolId] */\n      0x00\n        /* \"main.sol\":1938:1945  _poolId */\n      dup5\n        /* \"main.sol\":1932:1946  loans[_poolId] */\n      dup2\n      mstore\n      0x20\n      add\n      swap1\n      dup2\n      mstore\n      0x20\n      add\n      0x00\n      keccak256\n        /* \"main.sol\":1913:1946  Loan memory loan = loans[_poolId] */\n      mload(0x40)\n      dup1\n      0x0100\n      add\n      0x40\n      mstore\n      swap1\n      dup2\n      0x00\n      dup3\n      add\n      0x00\n      swap1\n      sload\n      swap1\n      0x0100\n      exp\n      swap1\n      div\n      0xffffffffffffffffffffffffffffffffffffffff\n      and\n      0xffffffffffffffffffffffffffffffffffffffff\n      and\n      0xffffffffffffffffffffffffffffffffffffffff\n      and\n      dup2\n      mstore\n      0x20\n      add\n      0x01\n      dup3\n      add\n      0x00\n      swap1\n      sload\n      swap1\n      0x0100\n      exp\n      swap1\n      div\n      0xffffffffffffffffffffffffffffffffffffffff\n      and\n      0xffffffffffffffffffffffffffffffffffffffff\n      and\n      0xffffffffffffffffffffffffffffffffffffffff\n      and\n      dup2\n      mstore\n      0x20\n      add\n      0x02\n      dup3\n      add\n      0x00\n      swap1\n      sload\n      swap1\n      0x0100\n      exp\n      swap1\n      div\n      0xffffffffffffffffffffffffffffffffffffffff\n      and\n      0xffffffffffffffffffffffffffffffffffffffff\n      and\n      0xffffffffffffffffffffffffffffffffffffffff\n      and\n      dup2\n      mstore\n      0x20\n      add\n      0x03\n      dup3\n      add\n      sload\n      dup2\n      mstore\n      0x20\n      add\n      0x04\n      dup3\n      add\n      sload\n      dup2\n      mstore\n      0x20\n      add\n      0x05\n      dup3\n      add\n      sload\n      dup2\n      mstore\n      0x20\n      add\n      0x06\n      dup3\n      add\n      sload\n      dup2\n      mstore\n      0x20\n      add\n      0x07\n      dup3\n      add\n      sload\n      dup2\n      mstore\n      pop\n      pop\n      swap1\n      pop\n        /* \"main.sol\":1988:2003  uint256 numBids */\n      0x00\n        /* \"main.sol\":2021:2022  1 */\n      0x01\n        /* \"main.sol\":2006:2010  loan */\n      dup3\n        /* \"main.sol\":2006:2018  loan.numBids */\n      0xe0\n      add\n      mload\n        /* \"main.sol\":2006:2022  loan.numBids + 1 */\n      tag_79\n      swap2\n      swap1\n      tag_80\n      jump\t// in\n    tag_79:\n        /* \"main.sol\":1988:2022  uint256 numBids = loan.numBids + 1 */\n      swap1\n      pop\n        /* \"main.sol\":2048:2055  numBids */\n      dup1\n        /* \"main.sol\":2033:2037  loan */\n      dup3\n        /* \"main.sol\":2033:2045  loan.numBids */\n      0xe0\n      add\n        /* \"main.sol\":2033:2055  loan.numBids = numBids */\n      dup2\n      dup2\n      mstore\n      pop\n      pop\n        /* \"main.sol\":2065:2082  uint256 loanValue */\n      0x00\n        /* \"main.sol\":2085:2113  _calculateLoanValue(_poolId) */\n      tag_81\n        /* \"main.sol\":2105:2112  _poolId */\n      dup6\n        /* \"main.sol\":2085:2104  _calculateLoanValue */\n      tag_82\n        /* \"main.sol\":2085:2113  _calculateLoanValue(_poolId) */\n      jump\t// in\n    tag_81:\n        /* \"main.sol\":2065:2113  uint256 loanValue = _calculateLoanValue(_poolId) */\n      swap1\n      pop\n        /* \"main.sol\":2141:2150  loanValue */\n      dup1\n        /* \"main.sol\":2131:2138  _amount */\n      dup5\n        /* \"main.sol\":2131:2150  _amount > loanValue */\n      gt\n        /* \"main.sol\":2123:2174  require(_amount > loanValue, \"LAN: bid not higher\") */\n      tag_83\n      jumpi\n      mload(0x40)\n      0x08c379a000000000000000000000000000000000000000000000000000000000\n      dup2\n      mstore\n      0x04\n      add\n      tag_84\n      swap1\n      tag_85\n      jump\t// in\n    tag_84:\n      mload(0x40)\n      dup1\n      swap2\n      sub\n      swap1\n      revert\n    tag_83:\n        /* \"main.sol\":2233:2237  loan */\n      dup3\n        /* \"main.sol\":2233:2243  loan.token */\n      0x20\n      add\n      mload\n        /* \"main.sol\":2226:2257  IERC20(loan.token).transferFrom */\n      0xffffffffffffffffffffffffffffffffffffffff\n      and\n      0x23b872dd\n        /* \"main.sol\":2258:2268  msg.sender */\n      caller\n        /* \"main.sol\":2270:2274  bids */\n      0x02\n        /* \"main.sol\":2270:2283  bids[_poolId] */\n      0x00\n        /* \"main.sol\":2275:2282  _poolId */\n      dup10\n        /* \"main.sol\":2270:2283  bids[_poolId] */\n      dup2\n      mstore\n      0x20\n      add\n      swap1\n      dup2\n      mstore\n      0x20\n      add\n      0x00\n      keccak256\n        /* \"main.sol\":2270:2292  bids[_poolId][numBids] */\n      0x00\n        /* \"main.sol\":2284:2291  numBids */\n      dup7\n        /* \"main.sol\":2270:2292  bids[_poolId][numBids] */\n      dup2\n      mstore\n      0x20\n      add\n      swap1\n      dup2\n      mstore\n      0x20\n      add\n      0x00\n      keccak256\n        /* \"main.sol\":2270:2297  bids[_poolId][numBids].user */\n      0x02\n      add\n      0x00\n      swap1\n      sload\n      swap1\n      0x0100\n      exp\n      swap1\n      div\n      0xffffffffffffffffffffffffffffffffffffffff\n      and\n        /* \"main.sol\":2299:2308  loanValue */\n      dup5\n        /* \"main.sol\":2226:2309  IERC20(loan.token).transferFrom(msg.sender, bids[_poolId][numBids].user, loanValue) */\n      mload(0x40)\n      dup5\n      0xffffffff\n      and\n      0xe0\n      shl\n      dup2\n      mstore\n      0x04\n      add\n      tag_86\n      swap4\n      swap3\n      swap2\n      swap1\n      tag_65\n      jump\t// in\n    tag_86:\n      0x20\n      mload(0x40)\n      dup1\n      dup4\n      sub\n      dup2\n      0x00\n      dup8\n      gas\n      call\n      iszero\n      dup1\n      iszero\n      tag_88\n      jumpi\n      returndatasize\n      0x00\n      dup1\n      returndatacopy\n      revert(0x00, returndatasize)\n    tag_88:\n      pop\n      pop\n      pop\n      pop\n      mload(0x40)\n      returndatasize\n      not(0x1f)\n      0x1f\n      dup3\n      add\n      and\n      dup3\n      add\n      dup1\n      0x40\n      mstore\n      pop\n      dup2\n      add\n      swap1\n      tag_89\n      swap2\n      swap1\n      tag_90\n      jump\t// in\n    tag_89:\n      pop\n        /* \"main.sol\":2358:2362  loan */\n      dup3\n        /* \"main.sol\":2358:2368  loan.token */\n      0x20\n      add\n      mload\n        /* \"main.sol\":2351:2382  IERC20(loan.token).transferFrom */\n      0xffffffffffffffffffffffffffffffffffffffff\n      and\n      0x23b872dd\n        /* \"main.sol\":2383:2393  msg.sender */\n      caller\n        /* \"main.sol\":2395:2399  loan */\n      dup6\n        /* \"main.sol\":2395:2405  loan.owner */\n      0x00\n      add\n      mload\n        /* \"main.sol\":2417:2426  loanValue */\n      dup5\n        /* \"main.sol\":2407:2414  _amount */\n      dup9\n        /* \"main.sol\":2407:2426  _amount - loanValue */\n      tag_91\n      swap2\n      swap1\n      tag_92\n      jump\t// in\n    tag_91:\n        /* \"main.sol\":2351:2427  IERC20(loan.token).transferFrom(msg.sender, loan.owner, _amount - loanValue) */\n      mload(0x40)\n      dup5\n      0xffffffff\n      and\n      0xe0\n      shl\n      dup2\n      mstore\n      0x04\n      add\n      tag_93\n      swap4\n      swap3\n      swap2\n      swap1\n      tag_65\n      jump\t// in\n    tag_93:\n      0x20\n      mload(0x40)\n      dup1\n      dup4\n      sub\n      dup2\n      0x00\n      dup8\n      gas\n      call\n      iszero\n      dup1\n      iszero\n      tag_95\n      jumpi\n      returndatasize\n      0x00\n      dup1\n      returndatacopy\n      revert(0x00, returndatasize)\n    tag_95:\n      pop\n      pop\n      pop\n      pop\n      mload(0x40)\n      returndatasize\n      not(0x1f)\n      0x1f\n      dup3\n      add\n      and\n      dup3\n      add\n      dup1\n      0x40\n      mstore\n      pop\n      dup2\n      add\n      swap1\n      tag_96\n      swap2\n      swap1\n      tag_90\n      jump\t// in\n    tag_96:\n      pop\n        /* \"main.sol\":2485:2600  Bid({... */\n      mload(0x40)\n      dup1\n      0x60\n      add\n      0x40\n      mstore\n      dup1\n        /* \"main.sol\":2512:2527  block.timestamp */\n      timestamp\n        /* \"main.sol\":2485:2600  Bid({... */\n      dup2\n      mstore\n      0x20\n      add\n        /* \"main.sol\":2552:2559  _amount */\n      dup6\n        /* \"main.sol\":2485:2600  Bid({... */\n      dup2\n      mstore\n      0x20\n      add\n        /* \"main.sol\":2579:2589  msg.sender */\n      caller\n        /* \"main.sol\":2485:2600  Bid({... */\n      0xffffffffffffffffffffffffffffffffffffffff\n      and\n      dup2\n      mstore\n      pop\n        /* \"main.sol\":2460:2464  bids */\n      0x02\n        /* \"main.sol\":2460:2473  bids[_poolId] */\n      0x00\n        /* \"main.sol\":2465:2472  _poolId */\n      dup8\n        /* \"main.sol\":2460:2473  bids[_poolId] */\n      dup2\n      mstore\n      0x20\n      add\n      swap1\n      dup2\n      mstore\n      0x20\n      add\n      0x00\n      keccak256\n        /* \"main.sol\":2460:2482  bids[_poolId][numBids] */\n      0x00\n        /* \"main.sol\":2474:2481  numBids */\n      dup5\n        /* \"main.sol\":2460:2482  bids[_poolId][numBids] */\n      dup2\n      mstore\n      0x20\n      add\n      swap1\n      dup2\n      mstore\n      0x20\n      add\n      0x00\n      keccak256\n        /* \"main.sol\":2460:2600  bids[_poolId][numBids] = Bid({... */\n      0x00\n      dup3\n      add\n      mload\n      dup2\n      0x00\n      add\n      sstore\n      0x20\n      dup3\n      add\n      mload\n      dup2\n      0x01\n      add\n      sstore\n      0x40\n      dup3\n      add\n      mload\n      dup2\n      0x02\n      add\n      exp(0x0100, 0x00)\n      dup2\n      sload\n      dup2\n      0xffffffffffffffffffffffffffffffffffffffff\n      mul\n      not\n      and\n      swap1\n      dup4\n      0xffffffffffffffffffffffffffffffffffffffff\n      and\n      mul\n      or\n      swap1\n      sstore\n      pop\n      swap1\n      pop\n      pop\n        /* \"main.sol\":1790:2607  {... */\n      pop\n      pop\n      pop\n        /* \"main.sol\":1734:2607  function bid(uint256 _poolId, uint256 _amount) external {... */\n      pop\n      pop\n      jump\t// out\n        /* \"main.sol\":2937:3414  function endLoan(uint256 _poolId) external onlyOwner(_poolId) {... */\n    tag_29:\n        /* \"main.sol\":2990:2997  _poolId */\n      dup1\n        /* \"main.sol\":980:990  msg.sender */\n      caller\n        /* \"main.sol\":956:990  loans[_poolId].owner == msg.sender */\n      0xffffffffffffffffffffffffffffffffffffffff\n      and\n        /* \"main.sol\":956:961  loans */\n      0x01\n        /* \"main.sol\":956:970  loans[_poolId] */\n      0x00\n        /* \"main.sol\":962:969  _poolId */\n      dup4\n        /* \"main.sol\":956:970  loans[_poolId] */\n      dup2\n      mstore\n      0x20\n      add\n      swap1\n      dup2\n      mstore\n      0x20\n      add\n      0x00\n      keccak256\n        /* \"main.sol\":956:976  loans[_poolId].owner */\n      0x00\n      add\n      0x00\n      swap1\n      sload\n      swap1\n      0x0100\n      exp\n      swap1\n      div\n      0xffffffffffffffffffffffffffffffffffffffff\n      and\n        /* \"main.sol\":956:990  loans[_poolId].owner == msg.sender */\n      0xffffffffffffffffffffffffffffffffffffffff\n      and\n      eq\n        /* \"main.sol\":948:1009  require(loans[_poolId].owner == msg.sender, \"LAN: not owner\") */\n      tag_98\n      jumpi\n      mload(0x40)\n      0x08c379a000000000000000000000000000000000000000000000000000000000\n      dup2\n      mstore\n      0x04\n      add\n      tag_99\n      swap1\n      tag_47\n      jump\t// in\n    tag_99:\n      mload(0x40)\n      dup1\n      swap2\n      sub\n      swap1\n      revert\n    tag_98:\n        /* \"main.sol\":3009:3025  Loan memory loan */\n      0x00\n        /* \"main.sol\":3028:3033  loans */\n      0x01\n        /* \"main.sol\":3028:3042  loans[_poolId] */\n      0x00\n        /* \"main.sol\":3034:3041  _poolId */\n      dup5\n        /* \"main.sol\":3028:3042  loans[_poolId] */\n      dup2\n      mstore\n      0x20\n      add\n      swap1\n      dup2\n      mstore\n      0x20\n      add\n      0x00\n      keccak256\n        /* \"main.sol\":3009:3042  Loan memory loan = loans[_poolId] */\n      mload(0x40)\n      dup1\n      0x0100\n      add\n      0x40\n      mstore\n      swap1\n      dup2\n      0x00\n      dup3\n      add\n      0x00\n      swap1\n      sload\n      swap1\n      0x0100\n      exp\n      swap1\n      div\n      0xffffffffffffffffffffffffffffffffffffffff\n      and\n      0xffffffffffffffffffffffffffffffffffffffff\n      and\n      0xffffffffffffffffffffffffffffffffffffffff\n      and\n      dup2\n      mstore\n      0x20\n      add\n      0x01\n      dup3\n      add\n      0x00\n      swap1\n      sload\n      swap1\n      0x0100\n      exp\n      swap1\n      div\n      0xffffffffffffffffffffffffffffffffffffffff\n      and\n      0xffffffffffffffffffffffffffffffffffffffff\n      and\n      0xffffffffffffffffffffffffffffffffffffffff\n      and\n      dup2\n      mstore\n      0x20\n      add\n      0x02\n      dup3\n      add\n      0x00\n      swap1\n      sload\n      swap1\n      0x0100\n      exp\n      swap1\n      div\n      0xffffffffffffffffffffffffffffffffffffffff\n      and\n      0xffffffffffffffffffffffffffffffffffffffff\n      and\n      0xffffffffffffffffffffffffffffffffffffffff\n      and\n      dup2\n      mstore\n      0x20\n      add\n      0x03\n      dup3\n      add\n      sload\n      dup2\n      mstore\n      0x20\n      add\n      0x04\n      dup3\n      add\n      sload\n      dup2\n      mstore\n      0x20\n      add\n      0x05\n      dup3\n      add\n      sload\n      dup2\n      mstore\n      0x20\n      add\n      0x06\n      dup3\n      add\n      sload\n      dup2\n      mstore\n      0x20\n      add\n      0x07\n      dup3\n      add\n      sload\n      dup2\n      mstore\n      pop\n      pop\n      swap1\n      pop\n        /* \"main.sol\":3052:3072  Bid memory latestBid */\n      0x00\n        /* \"main.sol\":3075:3079  bids */\n      0x02\n        /* \"main.sol\":3075:3088  bids[_poolId] */\n      0x00\n        /* \"main.sol\":3080:3087  _poolId */\n      dup6\n        /* \"main.sol\":3075:3088  bids[_poolId] */\n      dup2\n      mstore\n      0x20\n      add\n      swap1\n      dup2\n      mstore\n      0x20\n      add\n      0x00\n      keccak256\n        /* \"main.sol\":3075:3102  bids[_poolId][loan.numBids] */\n      0x00\n        /* \"main.sol\":3089:3093  loan */\n      dup4\n        /* \"main.sol\":3089:3101  loan.numBids */\n      0xe0\n      add\n      mload\n        /* \"main.sol\":3075:3102  bids[_poolId][loan.numBids] */\n      dup2\n      mstore\n      0x20\n      add\n      swap1\n      dup2\n      mstore\n      0x20\n      add\n      0x00\n      keccak256\n        /* \"main.sol\":3052:3102  Bid memory latestBid = bids[_poolId][loan.numBids] */\n      mload(0x40)\n      dup1\n      0x60\n      add\n      0x40\n      mstore\n      swap1\n      dup2\n      0x00\n      dup3\n      add\n      sload\n      dup2\n      mstore\n      0x20\n      add\n      0x01\n      dup3\n      add\n      sload\n      dup2\n      mstore\n      0x20\n      add\n      0x02\n      dup3\n      add\n      0x00\n      swap1\n      sload\n      swap1\n      0x0100\n      exp\n      swap1\n      div\n      0xffffffffffffffffffffffffffffffffffffffff\n      and\n      0xffffffffffffffffffffffffffffffffffffffff\n      and\n      0xffffffffffffffffffffffffffffffffffffffff\n      and\n      dup2\n      mstore\n      pop\n      pop\n      swap1\n      pop\n        /* \"main.sol\":3163:3167  loan */\n      dup2\n        /* \"main.sol\":3163:3173  loan.token */\n      0x20\n      add\n      mload\n        /* \"main.sol\":3156:3187  IERC20(loan.token).transferFrom */\n      0xffffffffffffffffffffffffffffffffffffffff\n      and\n      0x23b872dd\n        /* \"main.sol\":3188:3198  msg.sender */\n      caller\n        /* \"main.sol\":3200:3209  latestBid */\n      dup4\n        /* \"main.sol\":3200:3214  latestBid.user */\n      0x40\n      add\n      mload\n        /* \"main.sol\":3216:3244  _calculateLoanValue(_poolId) */\n      tag_101\n        /* \"main.sol\":3236:3243  _poolId */\n      dup9\n        /* \"main.sol\":3216:3235  _calculateLoanValue */\n      tag_82\n        /* \"main.sol\":3216:3244  _calculateLoanValue(_poolId) */\n      jump\t// in\n    tag_101:\n        /* \"main.sol\":3156:3245  IERC20(loan.token).transferFrom(msg.sender, latestBid.user, _calculateLoanValue(_poolId)) */\n      mload(0x40)\n      dup5\n      0xffffffff\n      and\n      0xe0\n      shl\n      dup2\n      mstore\n      0x04\n      add\n      tag_102\n      swap4\n      swap3\n      swap2\n      swap1\n      tag_65\n      jump\t// in\n    tag_102:\n      0x20\n      mload(0x40)\n      dup1\n      dup4\n      sub\n      dup2\n      0x00\n      dup8\n      gas\n      call\n      iszero\n      dup1\n      iszero\n      tag_104\n      jumpi\n      returndatasize\n      0x00\n      dup1\n      returndatacopy\n      revert(0x00, returndatasize)\n    tag_104:\n      pop\n      pop\n      pop\n      pop\n      mload(0x40)\n      returndatasize\n      not(0x1f)\n      0x1f\n      dup3\n      add\n      and\n      dup3\n      add\n      dup1\n      0x40\n      mstore\n      pop\n      dup2\n      add\n      swap1\n      tag_105\n      swap2\n      swap1\n      tag_90\n      jump\t// in\n    tag_105:\n      pop\n        /* \"main.sol\":3293:3304  IERC721 NFT */\n      0x00\n        /* \"main.sol\":3315:3319  loan */\n      dup3\n        /* \"main.sol\":3315:3337  loan.collectionAddress */\n      0x40\n      add\n      mload\n        /* \"main.sol\":3293:3338  IERC721 NFT = IERC721(loan.collectionAddress) */\n      swap1\n      pop\n        /* \"main.sol\":3348:3351  NFT */\n      dup1\n        /* \"main.sol\":3348:3368  NFT.safeTransferFrom */\n      0xffffffffffffffffffffffffffffffffffffffff\n      and\n      0x42842e0e\n        /* \"main.sol\":3377:3381  this */\n      address\n        /* \"main.sol\":3384:3394  msg.sender */\n      caller\n        /* \"main.sol\":3396:3400  loan */\n      dup7\n        /* \"main.sol\":3396:3406  loan.nftId */\n      0x60\n      add\n      mload\n        /* \"main.sol\":3348:3407  NFT.safeTransferFrom(address(this), msg.sender, loan.nftId) */\n      mload(0x40)\n      dup5\n      0xffffffff\n      and\n      0xe0\n      shl\n      dup2\n      mstore\n      0x04\n      add\n      tag_106\n      swap4\n      swap3\n      swap2\n      swap1\n      tag_65\n      jump\t// in\n    tag_106:\n      0x00\n      mload(0x40)\n      dup1\n      dup4\n      sub\n      dup2\n      0x00\n      dup8\n      dup1\n      extcodesize\n      iszero\n      dup1\n      iszero\n      tag_107\n      jumpi\n      0x00\n      dup1\n      revert\n    tag_107:\n      pop\n      gas\n      call\n      iszero\n      dup1\n      iszero\n      tag_109\n      jumpi\n      returndatasize\n      0x00\n      dup1\n      returndatacopy\n      revert(0x00, returndatasize)\n    tag_109:\n      pop\n      pop\n      pop\n      pop\n        /* \"main.sol\":2999:3414  {... */\n      pop\n      pop\n      pop\n        /* \"main.sol\":2937:3414  function endLoan(uint256 _poolId) external onlyOwner(_poolId) {... */\n      pop\n      pop\n      jump\t// out\n        /* \"main.sol\":706:761  mapping(uint256 => mapping(uint256 => Bid)) public bids */\n    tag_32:\n      mstore(0x20, 0x02)\n      dup2\n      0x00\n      mstore\n      mstore(0x20, keccak256(0x00, 0x40))\n      dup1\n      0x00\n      mstore\n      keccak256(0x00, 0x40)\n      0x00\n      swap2\n      pop\n      swap2\n      pop\n      pop\n      dup1\n      0x00\n      add\n      sload\n      swap1\n      dup1\n      0x01\n      add\n      sload\n      swap1\n      dup1\n      0x02\n      add\n      0x00\n      swap1\n      sload\n      swap1\n      0x0100\n      exp\n      swap1\n      div\n      0xffffffffffffffffffffffffffffffffffffffff\n      and\n      swap1\n      pop\n      dup4\n      jump\t// out\n        /* \"main.sol\":565:602  mapping(uint256 => Loan) public loans */\n    tag_37:\n      mstore(0x20, 0x01)\n      dup1\n      0x00\n      mstore\n      keccak256(0x00, 0x40)\n      0x00\n      swap2\n      pop\n      swap1\n      pop\n      dup1\n      0x00\n      add\n      0x00\n      swap1\n      sload\n      swap1\n      0x0100\n      exp\n      swap1\n      div\n      0xffffffffffffffffffffffffffffffffffffffff\n      and\n      swap1\n      dup1\n      0x01\n      add\n      0x00\n      swap1\n      sload\n      swap1\n      0x0100\n      exp\n      swap1\n      div\n      0xffffffffffffffffffffffffffffffffffffffff\n      and\n      swap1\n      dup1\n      0x02\n      add\n      0x00\n      swap1\n      sload\n      swap1\n      0x0100\n      exp\n      swap1\n      div\n      0xffffffffffffffffffffffffffffffffffffffff\n      and\n      swap1\n      dup1\n      0x03\n      add\n      sload\n      swap1\n      dup1\n      0x04\n      add\n      sload\n      swap1\n      dup1\n      0x05\n      add\n      sload\n      swap1\n      dup1\n      0x06\n      add\n      sload\n      swap1\n      dup1\n      0x07\n      add\n      sload\n      swap1\n      pop\n      dup9\n      jump\t// out\n        /* \"main.sol\":1033:1728  function launch(address _token, address _collectionAddress, uint256 _nftId, uint256 _startTime, uint256 _endTime, uint256 _apr) public {... */\n    tag_43:\n        /* \"main.sol\":1200:1215  block.timestamp */\n      timestamp\n        /* \"main.sol\":1186:1196  _startTime */\n      dup4\n        /* \"main.sol\":1186:1215  _startTime >= block.timestamp */\n      lt\n      iszero\n        /* \"main.sol\":1178:1243  require(_startTime >= block.timestamp, \"LAN: start time in past\") */\n      tag_111\n      jumpi\n      mload(0x40)\n      0x08c379a000000000000000000000000000000000000000000000000000000000\n      dup2\n      mstore\n      0x04\n      add\n      tag_112\n      swap1\n      tag_113\n      jump\t// in\n    tag_112:\n      mload(0x40)\n      dup1\n      swap2\n      sub\n      swap1\n      revert\n    tag_111:\n        /* \"main.sol\":1272:1282  _startTime */\n      dup3\n        /* \"main.sol\":1261:1269  _endTime */\n      dup3\n        /* \"main.sol\":1261:1282  _endTime > _startTime */\n      gt\n        /* \"main.sol\":1253:1307  require(_endTime > _startTime, \"LAN: start after end\") */\n      tag_114\n      jumpi\n      mload(0x40)\n      0x08c379a000000000000000000000000000000000000000000000000000000000\n      dup2\n      mstore\n      0x04\n      add\n      tag_115\n      swap1\n      tag_116\n      jump\t// in\n    tag_115:\n      mload(0x40)\n      dup1\n      swap2\n      sub\n      swap1\n      revert\n    tag_114:\n        /* \"main.sol\":1332:1597  Loan({... */\n      mload(0x40)\n      dup1\n      0x0100\n      add\n      0x40\n      mstore\n      dup1\n        /* \"main.sol\":1358:1368  msg.sender */\n      caller\n        /* \"main.sol\":1332:1597  Loan({... */\n      0xffffffffffffffffffffffffffffffffffffffff\n      and\n      dup2\n      mstore\n      0x20\n      add\n        /* \"main.sol\":1389:1395  _token */\n      dup8\n        /* \"main.sol\":1332:1597  Loan({... */\n      0xffffffffffffffffffffffffffffffffffffffff\n      and\n      dup2\n      mstore\n      0x20\n      add\n        /* \"main.sol\":1428:1446  _collectionAddress */\n      dup7\n        /* \"main.sol\":1332:1597  Loan({... */\n      0xffffffffffffffffffffffffffffffffffffffff\n      and\n      dup2\n      mstore\n      0x20\n      add\n        /* \"main.sol\":1467:1473  _nftId */\n      dup6\n        /* \"main.sol\":1332:1597  Loan({... */\n      dup2\n      mstore\n      0x20\n      add\n        /* \"main.sol\":1529:1539  _startTime */\n      dup5\n        /* \"main.sol\":1332:1597  Loan({... */\n      dup2\n      mstore\n      0x20\n      add\n        /* \"main.sol\":1496:1504  _endTime */\n      dup4\n        /* \"main.sol\":1332:1597  Loan({... */\n      dup2\n      mstore\n      0x20\n      add\n        /* \"main.sol\":1558:1562  _apr */\n      dup3\n        /* \"main.sol\":1332:1597  Loan({... */\n      dup2\n      mstore\n      0x20\n      add\n        /* \"main.sol\":1585:1586  0 */\n      0x00\n        /* \"main.sol\":1332:1597  Loan({... */\n      dup2\n      mstore\n      pop\n        /* \"main.sol\":1317:1322  loans */\n      0x01\n        /* \"main.sol\":1317:1329  loans[count] */\n      0x00\n        /* \"main.sol\":1323:1328  count */\n      dup1\n      sload\n        /* \"main.sol\":1317:1329  loans[count] */\n      dup2\n      mstore\n      0x20\n      add\n      swap1\n      dup2\n      mstore\n      0x20\n      add\n      0x00\n      keccak256\n        /* \"main.sol\":1317:1597  loans[count] = Loan({... */\n      0x00\n      dup3\n      add\n      mload\n      dup2\n      0x00\n      add\n      exp(0x0100, 0x00)\n      dup2\n      sload\n      dup2\n      0xffffffffffffffffffffffffffffffffffffffff\n      mul\n      not\n      and\n      swap1\n      dup4\n      0xffffffffffffffffffffffffffffffffffffffff\n      and\n      mul\n      or\n      swap1\n      sstore\n      pop\n      0x20\n      dup3\n      add\n      mload\n      dup2\n      0x01\n      add\n      exp(0x0100, 0x00)\n      dup2\n      sload\n      dup2\n      0xffffffffffffffffffffffffffffffffffffffff\n      mul\n      not\n      and\n      swap1\n      dup4\n      0xffffffffffffffffffffffffffffffffffffffff\n      and\n      mul\n      or\n      swap1\n      sstore\n      pop\n      0x40\n      dup3\n      add\n      mload\n      dup2\n      0x02\n      add\n      exp(0x0100, 0x00)\n      dup2\n      sload\n      dup2\n      0xffffffffffffffffffffffffffffffffffffffff\n      mul\n      not\n      and\n      swap1\n      dup4\n      0xffffffffffffffffffffffffffffffffffffffff\n      and\n      mul\n      or\n      swap1\n      sstore\n      pop\n      0x60\n      dup3\n      add\n      mload\n      dup2\n      0x03\n      add\n      sstore\n      0x80\n      dup3\n      add\n      mload\n      dup2\n      0x04\n      add\n      sstore\n      0xa0\n      dup3\n      add\n      mload\n      dup2\n      0x05\n      add\n      sstore\n      0xc0\n      dup3\n      add\n      mload\n      dup2\n      0x06\n      add\n      sstore\n      0xe0\n      dup3\n      add\n      mload\n      dup2\n      0x07\n      add\n      sstore\n      swap1\n      pop\n      pop\n        /* \"main.sol\":1632:1647  block.timestamp */\n      timestamp\n        /* \"main.sol\":1607:1611  bids */\n      0x02\n        /* \"main.sol\":1607:1618  bids[count] */\n      0x00\n        /* \"main.sol\":1612:1617  count */\n      dup1\n      sload\n        /* \"main.sol\":1607:1618  bids[count] */\n      dup2\n      mstore\n      0x20\n      add\n      swap1\n      dup2\n      mstore\n      0x20\n      add\n      0x00\n      keccak256\n        /* \"main.sol\":1607:1621  bids[count][0] */\n      0x00\n        /* \"main.sol\":1619:1620  0 */\n      dup1\n        /* \"main.sol\":1607:1621  bids[count][0] */\n      dup2\n      mstore\n      0x20\n      add\n      swap1\n      dup2\n      mstore\n      0x20\n      add\n      0x00\n      keccak256\n        /* \"main.sol\":1607:1629  bids[count][0].bidTime */\n      0x00\n      add\n        /* \"main.sol\":1607:1647  bids[count][0].bidTime = block.timestamp */\n      dup2\n      swap1\n      sstore\n      pop\n        /* \"main.sol\":1670:1675  count */\n      sload(0x00)\n        /* \"main.sol\":1662:1704  newPool(count, _collectionAddress, _nftId) */\n      0xef8b2952c43462575e82711d0cc91169720a4589a9fa533d173e022437f5405e\n        /* \"main.sol\":1677:1695  _collectionAddress */\n      dup7\n        /* \"main.sol\":1697:1703  _nftId */\n      dup7\n        /* \"main.sol\":1662:1704  newPool(count, _collectionAddress, _nftId) */\n      mload(0x40)\n      tag_117\n      swap3\n      swap2\n      swap1\n      tag_118\n      jump\t// in\n    tag_117:\n      mload(0x40)\n      dup1\n      swap2\n      sub\n      swap1\n      log2\n        /* \"main.sol\":1714:1719  count */\n      0x00\n      dup1\n        /* \"main.sol\":1714:1721  count++ */\n      dup2\n      sload\n      dup1\n      swap3\n      swap2\n      swap1\n      tag_119\n      swap1\n      tag_120\n      jump\t// in\n    tag_119:\n      swap2\n      swap1\n      pop\n      sstore\n      pop\n        /* \"main.sol\":1033:1728  function launch(address _token, address _collectionAddress, uint256 _nftId, uint256 _startTime, uint256 _endTime, uint256 _apr) public {... */\n      pop\n      pop\n      pop\n      pop\n      pop\n      pop\n      jump\t// out\n        /* \"main.sol\":4469:4595  function _ended(uint256 _poolId) internal view returns (bool){... */\n    tag_57:\n        /* \"main.sol\":4525:4529  bool */\n      0x00\n        /* \"main.sol\":4573:4588  block.timestamp */\n      timestamp\n        /* \"main.sol\":4547:4552  loans */\n      0x01\n        /* \"main.sol\":4547:4561  loans[_poolId] */\n      0x00\n        /* \"main.sol\":4553:4560  _poolId */\n      dup5\n        /* \"main.sol\":4547:4561  loans[_poolId] */\n      dup2\n      mstore\n      0x20\n      add\n      swap1\n      dup2\n      mstore\n      0x20\n      add\n      0x00\n      keccak256\n        /* \"main.sol\":4547:4569  loans[_poolId].endTime */\n      0x05\n      add\n      sload\n        /* \"main.sol\":4547:4588  loans[_poolId].endTime <= block.timestamp */\n      gt\n      iszero\n        /* \"main.sol\":4540:4588  return loans[_poolId].endTime <= block.timestamp */\n      swap1\n      pop\n        /* \"main.sol\":4469:4595  function _ended(uint256 _poolId) internal view returns (bool){... */\n      swap2\n      swap1\n      pop\n      jump\t// out\n        /* \"main.sol\":4600:4729  function _started(uint256 _poolId) internal view returns (bool){... */\n    tag_71:\n        /* \"main.sol\":4658:4662  bool */\n      0x00\n        /* \"main.sol\":4707:4722  block.timestamp */\n      timestamp\n        /* \"main.sol\":4680:4685  loans */\n      0x01\n        /* \"main.sol\":4680:4694  loans[_poolId] */\n      0x00\n        /* \"main.sol\":4686:4693  _poolId */\n      dup5\n        /* \"main.sol\":4680:4694  loans[_poolId] */\n      dup2\n      mstore\n      0x20\n      add\n      swap1\n      dup2\n      mstore\n      0x20\n      add\n      0x00\n      keccak256\n        /* \"main.sol\":4680:4704  loans[_poolId].startTime */\n      0x04\n      add\n      sload\n        /* \"main.sol\":4680:4722  loans[_poolId].startTime < block.timestamp */\n      lt\n        /* \"main.sol\":4673:4722  return loans[_poolId].startTime < block.timestamp */\n      swap1\n      pop\n        /* \"main.sol\":4600:4729  function _started(uint256 _poolId) internal view returns (bool){... */\n      swap2\n      swap1\n      pop\n      jump\t// out\n        /* \"main.sol\":3950:4463  function _calculateLoanValue(uint256 _poolId) internal view returns (uint256){... */\n    tag_82:\n        /* \"main.sol\":4019:4026  uint256 */\n      0x00\n        /* \"main.sol\":4037:4053  Loan memory loan */\n      dup1\n        /* \"main.sol\":4056:4061  loans */\n      0x01\n        /* \"main.sol\":4056:4070  loans[_poolId] */\n      0x00\n        /* \"main.sol\":4062:4069  _poolId */\n      dup5\n        /* \"main.sol\":4056:4070  loans[_poolId] */\n      dup2\n      mstore\n      0x20\n      add\n      swap1\n      dup2\n      mstore\n      0x20\n      add\n      0x00\n      keccak256\n        /* \"main.sol\":4037:4070  Loan memory loan = loans[_poolId] */\n      mload(0x40)\n      dup1\n      0x0100\n      add\n      0x40\n      mstore\n      swap1\n      dup2\n      0x00\n      dup3\n      add\n      0x00\n      swap1\n      sload\n      swap1\n      0x0100\n      exp\n      swap1\n      div\n      0xffffffffffffffffffffffffffffffffffffffff\n      and\n      0xffffffffffffffffffffffffffffffffffffffff\n      and\n      0xffffffffffffffffffffffffffffffffffffffff\n      and\n      dup2\n      mstore\n      0x20\n      add\n      0x01\n      dup3\n      add\n      0x00\n      swap1\n      sload\n      swap1\n      0x0100\n      exp\n      swap1\n      div\n      0xffffffffffffffffffffffffffffffffffffffff\n      and\n      0xffffffffffffffffffffffffffffffffffffffff\n      and\n      0xffffffffffffffffffffffffffffffffffffffff\n      and\n      dup2\n      mstore\n      0x20\n      add\n      0x02\n      dup3\n      add\n      0x00\n      swap1\n      sload\n      swap1\n      0x0100\n      exp\n      swap1\n      div\n      0xffffffffffffffffffffffffffffffffffffffff\n      and\n      0xffffffffffffffffffffffffffffffffffffffff\n      and\n      0xffffffffffffffffffffffffffffffffffffffff\n      and\n      dup2\n      mstore\n      0x20\n      add\n      0x03\n      dup3\n      add\n      sload\n      dup2\n      mstore\n      0x20\n      add\n      0x04\n      dup3\n      add\n      sload\n      dup2\n      mstore\n      0x20\n      add\n      0x05\n      dup3\n      add\n      sload\n      dup2\n      mstore\n      0x20\n      add\n      0x06\n      dup3\n      add\n      sload\n      dup2\n      mstore\n      0x20\n      add\n      0x07\n      dup3\n      add\n      sload\n      dup2\n      mstore\n      pop\n      pop\n      swap1\n      pop\n        /* \"main.sol\":4080:4100  Bid memory latestBid */\n      0x00\n        /* \"main.sol\":4103:4107  bids */\n      0x02\n        /* \"main.sol\":4103:4116  bids[_poolId] */\n      0x00\n        /* \"main.sol\":4108:4115  _poolId */\n      dup6\n        /* \"main.sol\":4103:4116  bids[_poolId] */\n      dup2\n      mstore\n      0x20\n      add\n      swap1\n      dup2\n      mstore\n      0x20\n      add\n      0x00\n      keccak256\n        /* \"main.sol\":4103:4130  bids[_poolId][loan.numBids] */\n      0x00\n        /* \"main.sol\":4117:4121  loan */\n      dup4\n        /* \"main.sol\":4117:4129  loan.numBids */\n      0xe0\n      add\n      mload\n        /* \"main.sol\":4103:4130  bids[_poolId][loan.numBids] */\n      dup2\n      mstore\n      0x20\n      add\n      swap1\n      dup2\n      mstore\n      0x20\n      add\n      0x00\n      keccak256\n        /* \"main.sol\":4080:4130  Bid memory latestBid = bids[_poolId][loan.numBids] */\n      mload(0x40)\n      dup1\n      0x60\n      add\n      0x40\n      mstore\n      swap1\n      dup2\n      0x00\n      dup3\n      add\n      sload\n      dup2\n      mstore\n      0x20\n      add\n      0x01\n      dup3\n      add\n      sload\n      dup2\n      mstore\n      0x20\n      add\n      0x02\n      dup3\n      add\n      0x00\n      swap1\n      sload\n      swap1\n      0x0100\n      exp\n      swap1\n      div\n      0xffffffffffffffffffffffffffffffffffffffff\n      and\n      0xffffffffffffffffffffffffffffffffffffffff\n      and\n      0xffffffffffffffffffffffffffffffffffffffff\n      and\n      dup2\n      mstore\n      pop\n      pop\n      swap1\n      pop\n        /* \"main.sol\":4140:4159  uint256 timeElapsed */\n      0x00\n        /* \"main.sol\":4172:4187  _ended(_poolId) */\n      tag_124\n        /* \"main.sol\":4179:4186  _poolId */\n      dup6\n        /* \"main.sol\":4172:4178  _ended */\n      tag_57\n        /* \"main.sol\":4172:4187  _ended(_poolId) */\n      jump\t// in\n    tag_124:\n        /* \"main.sol\":4169:4341  if(_ended(_poolId)){... */\n      iszero\n      tag_125\n      jumpi\n        /* \"main.sol\":4237:4241  loan */\n      dup3\n        /* \"main.sol\":4237:4249  loan.endTime */\n      0xa0\n      add\n      mload\n        /* \"main.sol\":4217:4226  latestBid */\n      dup3\n        /* \"main.sol\":4217:4234  latestBid.bidTime */\n      0x00\n      add\n      mload\n        /* \"main.sol\":4217:4249  latestBid.bidTime - loan.endTime */\n      tag_126\n      swap2\n      swap1\n      tag_92\n      jump\t// in\n    tag_126:\n        /* \"main.sol\":4202:4249  timeElapsed =  latestBid.bidTime - loan.endTime */\n      swap1\n      pop\n        /* \"main.sol\":4169:4341  if(_ended(_poolId)){... */\n      jump(tag_127)\n    tag_125:\n        /* \"main.sol\":4315:4330  block.timestamp */\n      timestamp\n        /* \"main.sol\":4295:4304  latestBid */\n      dup3\n        /* \"main.sol\":4295:4312  latestBid.bidTime */\n      0x00\n      add\n      mload\n        /* \"main.sol\":4295:4330  latestBid.bidTime - block.timestamp */\n      tag_128\n      swap2\n      swap1\n      tag_92\n      jump\t// in\n    tag_128:\n        /* \"main.sol\":4280:4330  timeElapsed =  latestBid.bidTime - block.timestamp */\n      swap1\n      pop\n        /* \"main.sol\":4169:4341  if(_ended(_poolId)){... */\n    tag_127:\n        /* \"main.sol\":884:896  60*60*24*365 */\n      0x01e13380\n        /* \"main.sol\":4423:4434  timeElapsed */\n      dup2\n        /* \"main.sol\":4412:4420  10 ** 18 */\n      0x0de0b6b3a7640000\n        /* \"main.sol\":4401:4405  loan */\n      dup6\n        /* \"main.sol\":4401:4409  loan.apr */\n      0xc0\n      add\n      mload\n        /* \"main.sol\":4379:4388  latestBid */\n      dup6\n        /* \"main.sol\":4379:4398  latestBid.bidAmount */\n      0x20\n      add\n      mload\n        /* \"main.sol\":4379:4409  latestBid.bidAmount * loan.apr */\n      tag_129\n      swap2\n      swap1\n      tag_130\n      jump\t// in\n    tag_129:\n        /* \"main.sol\":4379:4420  latestBid.bidAmount * loan.apr / 10 ** 18 */\n      tag_131\n      swap2\n      swap1\n      tag_132\n      jump\t// in\n    tag_131:\n        /* \"main.sol\":4379:4434  latestBid.bidAmount * loan.apr / 10 ** 18 * timeElapsed */\n      tag_133\n      swap2\n      swap1\n      tag_130\n      jump\t// in\n    tag_133:\n        /* \"main.sol\":4379:4456  latestBid.bidAmount * loan.apr / 10 ** 18 * timeElapsed / SECONDS_IN_ONE_YEAR */\n      tag_134\n      swap2\n      swap1\n      tag_132\n      jump\t// in\n    tag_134:\n        /* \"main.sol\":4357:4366  latestBid */\n      dup3\n        /* \"main.sol\":4357:4376  latestBid.bidAmount */\n      0x20\n      add\n      mload\n        /* \"main.sol\":4357:4456  latestBid.bidAmount + latestBid.bidAmount * loan.apr / 10 ** 18 * timeElapsed / SECONDS_IN_ONE_YEAR */\n      tag_135\n      swap2\n      swap1\n      tag_80\n      jump\t// in\n    tag_135:\n        /* \"main.sol\":4350:4456  return latestBid.bidAmount + latestBid.bidAmount * loan.apr / 10 ** 18 * timeElapsed / SECONDS_IN_ONE_YEAR */\n      swap4\n      pop\n      pop\n      pop\n      pop\n        /* \"main.sol\":3950:4463  function _calculateLoanValue(uint256 _poolId) internal view returns (uint256){... */\n      swap2\n      swap1\n      pop\n      jump\t// out\n    tag_53:\n      mload(0x40)\n      dup1\n      0x0100\n      add\n      0x40\n      mstore\n      dup1\n      and(0xffffffffffffffffffffffffffffffffffffffff, 0x00)\n      dup2\n      mstore\n      0x20\n      add\n      and(0xffffffffffffffffffffffffffffffffffffffff, 0x00)\n      dup2\n      mstore\n      0x20\n      add\n      and(0xffffffffffffffffffffffffffffffffffffffff, 0x00)\n      dup2\n      mstore\n      0x20\n      add\n      0x00\n      dup2\n      mstore\n      0x20\n      add\n      0x00\n      dup2\n      mstore\n      0x20\n      add\n      0x00\n      dup2\n      mstore\n      0x20\n      add\n      0x00\n      dup2\n      mstore\n      0x20\n      add\n      0x00\n      dup2\n      mstore\n      pop\n      swap1\n      jump\t// out\n        /* \"#utility.yul\":7:84   */\n    tag_136:\n        /* \"#utility.yul\":44:51   */\n      0x00\n        /* \"#utility.yul\":73:78   */\n      dup2\n        /* \"#utility.yul\":62:78   */\n      swap1\n      pop\n        /* \"#utility.yul\":7:84   */\n      swap2\n      swap1\n      pop\n      jump\t// out\n        /* \"#utility.yul\":90:208   */\n    tag_137:\n        /* \"#utility.yul\":177:201   */\n      tag_175\n        /* \"#utility.yul\":195:200   */\n      dup2\n        /* \"#utility.yul\":177:201   */\n      tag_136\n      jump\t// in\n    tag_175:\n        /* \"#utility.yul\":172:175   */\n      dup3\n        /* \"#utility.yul\":165:202   */\n      mstore\n        /* \"#utility.yul\":90:208   */\n      pop\n      pop\n      jump\t// out\n        /* \"#utility.yul\":214:436   */\n    tag_15:\n        /* \"#utility.yul\":307:311   */\n      0x00\n        /* \"#utility.yul\":345:347   */\n      0x20\n        /* \"#utility.yul\":334:343   */\n      dup3\n        /* \"#utility.yul\":330:348   */\n      add\n        /* \"#utility.yul\":322:348   */\n      swap1\n      pop\n        /* \"#utility.yul\":358:429   */\n      tag_177\n        /* \"#utility.yul\":426:427   */\n      0x00\n        /* \"#utility.yul\":415:424   */\n      dup4\n        /* \"#utility.yul\":411:428   */\n      add\n        /* \"#utility.yul\":402:408   */\n      dup5\n        /* \"#utility.yul\":358:429   */\n      tag_137\n      jump\t// in\n    tag_177:\n        /* \"#utility.yul\":214:436   */\n      swap3\n      swap2\n      pop\n      pop\n      jump\t// out\n        /* \"#utility.yul\":523:640   */\n    tag_139:\n        /* \"#utility.yul\":632:633   */\n      0x00\n        /* \"#utility.yul\":629:630   */\n      dup1\n        /* \"#utility.yul\":622:634   */\n      revert\n        /* \"#utility.yul\":769:891   */\n    tag_141:\n        /* \"#utility.yul\":842:866   */\n      tag_182\n        /* \"#utility.yul\":860:865   */\n      dup2\n        /* \"#utility.yul\":842:866   */\n      tag_136\n      jump\t// in\n    tag_182:\n        /* \"#utility.yul\":835:840   */\n      dup2\n        /* \"#utility.yul\":832:867   */\n      eq\n        /* \"#utility.yul\":822:885   */\n      tag_183\n      jumpi\n        /* \"#utility.yul\":881:882   */\n      0x00\n        /* \"#utility.yul\":878:879   */\n      dup1\n        /* \"#utility.yul\":871:883   */\n      revert\n        /* \"#utility.yul\":822:885   */\n    tag_183:\n        /* \"#utility.yul\":769:891   */\n      pop\n      jump\t// out\n        /* \"#utility.yul\":897:1036   */\n    tag_142:\n        /* \"#utility.yul\":943:948   */\n      0x00\n        /* \"#utility.yul\":981:987   */\n      dup2\n        /* \"#utility.yul\":968:988   */\n      calldataload\n        /* \"#utility.yul\":959:988   */\n      swap1\n      pop\n        /* \"#utility.yul\":997:1030   */\n      tag_185\n        /* \"#utility.yul\":1024:1029   */\n      dup2\n        /* \"#utility.yul\":997:1030   */\n      tag_141\n      jump\t// in\n    tag_185:\n        /* \"#utility.yul\":897:1036   */\n      swap3\n      swap2\n      pop\n      pop\n      jump\t// out\n        /* \"#utility.yul\":1042:1371   */\n    tag_18:\n        /* \"#utility.yul\":1101:1107   */\n      0x00\n        /* \"#utility.yul\":1150:1152   */\n      0x20\n        /* \"#utility.yul\":1138:1147   */\n      dup3\n        /* \"#utility.yul\":1129:1136   */\n      dup5\n        /* \"#utility.yul\":1125:1148   */\n      sub\n        /* \"#utility.yul\":1121:1153   */\n      slt\n        /* \"#utility.yul\":1118:1237   */\n      iszero\n      tag_187\n      jumpi\n        /* \"#utility.yul\":1156:1235   */\n      tag_188\n      tag_139\n      jump\t// in\n    tag_188:\n        /* \"#utility.yul\":1118:1237   */\n    tag_187:\n        /* \"#utility.yul\":1276:1277   */\n      0x00\n        /* \"#utility.yul\":1301:1354   */\n      tag_189\n        /* \"#utility.yul\":1346:1353   */\n      dup5\n        /* \"#utility.yul\":1337:1343   */\n      dup3\n        /* \"#utility.yul\":1326:1335   */\n      dup6\n        /* \"#utility.yul\":1322:1344   */\n      add\n        /* \"#utility.yul\":1301:1354   */\n      tag_142\n      jump\t// in\n    tag_189:\n        /* \"#utility.yul\":1291:1354   */\n      swap2\n      pop\n        /* \"#utility.yul\":1247:1364   */\n      pop\n        /* \"#utility.yul\":1042:1371   */\n      swap3\n      swap2\n      pop\n      pop\n      jump\t// out\n        /* \"#utility.yul\":1377:1851   */\n    tag_25:\n        /* \"#utility.yul\":1445:1451   */\n      0x00\n        /* \"#utility.yul\":1453:1459   */\n      dup1\n        /* \"#utility.yul\":1502:1504   */\n      0x40\n        /* \"#utility.yul\":1490:1499   */\n      dup4\n        /* \"#utility.yul\":1481:1488   */\n      dup6\n        /* \"#utility.yul\":1477:1500   */\n      sub\n        /* \"#utility.yul\":1473:1505   */\n      slt\n        /* \"#utility.yul\":1470:1589   */\n      iszero\n      tag_191\n      jumpi\n        /* \"#utility.yul\":1508:1587   */\n      tag_192\n      tag_139\n      jump\t// in\n    tag_192:\n        /* \"#utility.yul\":1470:1589   */\n    tag_191:\n        /* \"#utility.yul\":1628:1629   */\n      0x00\n        /* \"#utility.yul\":1653:1706   */\n      tag_193\n        /* \"#utility.yul\":1698:1705   */\n      dup6\n        /* \"#utility.yul\":1689:1695   */\n      dup3\n        /* \"#utility.yul\":1678:1687   */\n      dup7\n        /* \"#utility.yul\":1674:1696   */\n      add\n        /* \"#utility.yul\":1653:1706   */\n      tag_142\n      jump\t// in\n    tag_193:\n        /* \"#utility.yul\":1643:1706   */\n      swap3\n      pop\n        /* \"#utility.yul\":1599:1716   */\n      pop\n        /* \"#utility.yul\":1755:1757   */\n      0x20\n        /* \"#utility.yul\":1781:1834   */\n      tag_194\n        /* \"#utility.yul\":1826:1833   */\n      dup6\n        /* \"#utility.yul\":1817:1823   */\n      dup3\n        /* \"#utility.yul\":1806:1815   */\n      dup7\n        /* \"#utility.yul\":1802:1824   */\n      add\n        /* \"#utility.yul\":1781:1834   */\n      tag_142\n      jump\t// in\n    tag_194:\n        /* \"#utility.yul\":1771:1834   */\n      swap2\n      pop\n        /* \"#utility.yul\":1726:1844   */\n      pop\n        /* \"#utility.yul\":1377:1851   */\n      swap3\n      pop\n      swap3\n      swap1\n      pop\n      jump\t// out\n        /* \"#utility.yul\":1857:1983   */\n    tag_143:\n        /* \"#utility.yul\":1894:1901   */\n      0x00\n        /* \"#utility.yul\":1934:1976   */\n      0xffffffffffffffffffffffffffffffffffffffff\n        /* \"#utility.yul\":1927:1932   */\n      dup3\n        /* \"#utility.yul\":1923:1977   */\n      and\n        /* \"#utility.yul\":1912:1977   */\n      swap1\n      pop\n        /* \"#utility.yul\":1857:1983   */\n      swap2\n      swap1\n      pop\n      jump\t// out\n        /* \"#utility.yul\":1989:2085   */\n    tag_144:\n        /* \"#utility.yul\":2026:2033   */\n      0x00\n        /* \"#utility.yul\":2055:2079   */\n      tag_197\n        /* \"#utility.yul\":2073:2078   */\n      dup3\n        /* \"#utility.yul\":2055:2079   */\n      tag_143\n      jump\t// in\n    tag_197:\n        /* \"#utility.yul\":2044:2079   */\n      swap1\n      pop\n        /* \"#utility.yul\":1989:2085   */\n      swap2\n      swap1\n      pop\n      jump\t// out\n        /* \"#utility.yul\":2091:2209   */\n    tag_145:\n        /* \"#utility.yul\":2178:2202   */\n      tag_199\n        /* \"#utility.yul\":2196:2201   */\n      dup2\n        /* \"#utility.yul\":2178:2202   */\n      tag_144\n      jump\t// in\n    tag_199:\n        /* \"#utility.yul\":2173:2176   */\n      dup3\n        /* \"#utility.yul\":2166:2203   */\n      mstore\n        /* \"#utility.yul\":2091:2209   */\n      pop\n      pop\n      jump\t// out\n        /* \"#utility.yul\":2215:2657   */\n    tag_34:\n        /* \"#utility.yul\":2364:2368   */\n      0x00\n        /* \"#utility.yul\":2402:2404   */\n      0x60\n        /* \"#utility.yul\":2391:2400   */\n      dup3\n        /* \"#utility.yul\":2387:2405   */\n      add\n        /* \"#utility.yul\":2379:2405   */\n      swap1\n      pop\n        /* \"#utility.yul\":2415:2486   */\n      tag_201\n        /* \"#utility.yul\":2483:2484   */\n      0x00\n        /* \"#utility.yul\":2472:2481   */\n      dup4\n        /* \"#utility.yul\":2468:2485   */\n      add\n        /* \"#utility.yul\":2459:2465   */\n      dup7\n        /* \"#utility.yul\":2415:2486   */\n      tag_137\n      jump\t// in\n    tag_201:\n        /* \"#utility.yul\":2496:2568   */\n      tag_202\n        /* \"#utility.yul\":2564:2566   */\n      0x20\n        /* \"#utility.yul\":2553:2562   */\n      dup4\n        /* \"#utility.yul\":2549:2567   */\n      add\n        /* \"#utility.yul\":2540:2546   */\n      dup6\n        /* \"#utility.yul\":2496:2568   */\n      tag_137\n      jump\t// in\n    tag_202:\n        /* \"#utility.yul\":2578:2650   */\n      tag_203\n        /* \"#utility.yul\":2646:2648   */\n      0x40\n        /* \"#utility.yul\":2635:2644   */\n      dup4\n        /* \"#utility.yul\":2631:2649   */\n      add\n        /* \"#utility.yul\":2622:2628   */\n      dup5\n        /* \"#utility.yul\":2578:2650   */\n      tag_145\n      jump\t// in\n    tag_203:\n        /* \"#utility.yul\":2215:2657   */\n      swap5\n      swap4\n      pop\n      pop\n      pop\n      pop\n      jump\t// out\n        /* \"#utility.yul\":2663:3660   */\n    tag_39:\n        /* \"#utility.yul\":2952:2956   */\n      0x00\n        /* \"#utility.yul\":2990:2993   */\n      0x0100\n        /* \"#utility.yul\":2979:2988   */\n      dup3\n        /* \"#utility.yul\":2975:2994   */\n      add\n        /* \"#utility.yul\":2967:2994   */\n      swap1\n      pop\n        /* \"#utility.yul\":3004:3075   */\n      tag_205\n        /* \"#utility.yul\":3072:3073   */\n      0x00\n        /* \"#utility.yul\":3061:3070   */\n      dup4\n        /* \"#utility.yul\":3057:3074   */\n      add\n        /* \"#utility.yul\":3048:3054   */\n      dup12\n        /* \"#utility.yul\":3004:3075   */\n      tag_145\n      jump\t// in\n    tag_205:\n        /* \"#utility.yul\":3085:3157   */\n      tag_206\n        /* \"#utility.yul\":3153:3155   */\n      0x20\n        /* \"#utility.yul\":3142:3151   */\n      dup4\n        /* \"#utility.yul\":3138:3156   */\n      add\n        /* \"#utility.yul\":3129:3135   */\n      dup11\n        /* \"#utility.yul\":3085:3157   */\n      tag_145\n      jump\t// in\n    tag_206:\n        /* \"#utility.yul\":3167:3239   */\n      tag_207\n        /* \"#utility.yul\":3235:3237   */\n      0x40\n        /* \"#utility.yul\":3224:3233   */\n      dup4\n        /* \"#utility.yul\":3220:3238   */\n      add\n        /* \"#utility.yul\":3211:3217   */\n      dup10\n        /* \"#utility.yul\":3167:3239   */\n      tag_145\n      jump\t// in\n    tag_207:\n        /* \"#utility.yul\":3249:3321   */\n      tag_208\n        /* \"#utility.yul\":3317:3319   */\n      0x60\n        /* \"#utility.yul\":3306:3315   */\n      dup4\n        /* \"#utility.yul\":3302:3320   */\n      add\n        /* \"#utility.yul\":3293:3299   */\n      dup9\n        /* \"#utility.yul\":3249:3321   */\n      tag_137\n      jump\t// in\n    tag_208:\n        /* \"#utility.yul\":3331:3404   */\n      tag_209\n        /* \"#utility.yul\":3399:3402   */\n      0x80\n        /* \"#utility.yul\":3388:3397   */\n      dup4\n        /* \"#utility.yul\":3384:3403   */\n      add\n        /* \"#utility.yul\":3375:3381   */\n      dup8\n        /* \"#utility.yul\":3331:3404   */\n      tag_137\n      jump\t// in\n    tag_209:\n        /* \"#utility.yul\":3414:3487   */\n      tag_210\n        /* \"#utility.yul\":3482:3485   */\n      0xa0\n        /* \"#utility.yul\":3471:3480   */\n      dup4\n        /* \"#utility.yul\":3467:3486   */\n      add\n        /* \"#utility.yul\":3458:3464   */\n      dup7\n        /* \"#utility.yul\":3414:3487   */\n      tag_137\n      jump\t// in\n    tag_210:\n        /* \"#utility.yul\":3497:3570   */\n      tag_211\n        /* \"#utility.yul\":3565:3568   */\n      0xc0\n        /* \"#utility.yul\":3554:3563   */\n      dup4\n        /* \"#utility.yul\":3550:3569   */\n      add\n        /* \"#utility.yul\":3541:3547   */\n      dup6\n        /* \"#utility.yul\":3497:3570   */\n      tag_137\n      jump\t// in\n    tag_211:\n        /* \"#utility.yul\":3580:3653   */\n      tag_212\n        /* \"#utility.yul\":3648:3651   */\n      0xe0\n        /* \"#utility.yul\":3637:3646   */\n      dup4\n        /* \"#utility.yul\":3633:3652   */\n      add\n        /* \"#utility.yul\":3624:3630   */\n      dup5\n        /* \"#utility.yul\":3580:3653   */\n      tag_137\n      jump\t// in\n    tag_212:\n        /* \"#utility.yul\":2663:3660   */\n      swap10\n      swap9\n      pop\n      pop\n      pop\n      pop\n      pop\n      pop\n      pop\n      pop\n      pop\n      jump\t// out\n        /* \"#utility.yul\":3666:3788   */\n    tag_146:\n        /* \"#utility.yul\":3739:3763   */\n      tag_214\n        /* \"#utility.yul\":3757:3762   */\n      dup2\n        /* \"#utility.yul\":3739:3763   */\n      tag_144\n      jump\t// in\n    tag_214:\n        /* \"#utility.yul\":3732:3737   */\n      dup2\n        /* \"#utility.yul\":3729:3764   */\n      eq\n        /* \"#utility.yul\":3719:3782   */\n      tag_215\n      jumpi\n        /* \"#utility.yul\":3778:3779   */\n      0x00\n        /* \"#utility.yul\":3775:3776   */\n      dup1\n        /* \"#utility.yul\":3768:3780   */\n      revert\n        /* \"#utility.yul\":3719:3782   */\n    tag_215:\n        /* \"#utility.yul\":3666:3788   */\n      pop\n      jump\t// out\n        /* \"#utility.yul\":3794:3933   */\n    tag_147:\n        /* \"#utility.yul\":3840:3845   */\n      0x00\n        /* \"#utility.yul\":3878:3884   */\n      dup2\n        /* \"#utility.yul\":3865:3885   */\n      calldataload\n        /* \"#utility.yul\":3856:3885   */\n      swap1\n      pop\n        /* \"#utility.yul\":3894:3927   */\n      tag_217\n        /* \"#utility.yul\":3921:3926   */\n      dup2\n        /* \"#utility.yul\":3894:3927   */\n      tag_146\n      jump\t// in\n    tag_217:\n        /* \"#utility.yul\":3794:3933   */\n      swap3\n      swap2\n      pop\n      pop\n      jump\t// out\n        /* \"#utility.yul\":3939:4996   */\n    tag_42:\n        /* \"#utility.yul\":4043:4049   */\n      0x00\n        /* \"#utility.yul\":4051:4057   */\n      dup1\n        /* \"#utility.yul\":4059:4065   */\n      0x00\n        /* \"#utility.yul\":4067:4073   */\n      dup1\n        /* \"#utility.yul\":4075:4081   */\n      0x00\n        /* \"#utility.yul\":4083:4089   */\n      dup1\n        /* \"#utility.yul\":4132:4135   */\n      0xc0\n        /* \"#utility.yul\":4120:4129   */\n      dup8\n        /* \"#utility.yul\":4111:4118   */\n      dup10\n        /* \"#utility.yul\":4107:4130   */\n      sub\n        /* \"#utility.yul\":4103:4136   */\n      slt\n        /* \"#utility.yul\":4100:4220   */\n      iszero\n      tag_219\n      jumpi\n        /* \"#utility.yul\":4139:4218   */\n      tag_220\n      tag_139\n      jump\t// in\n    tag_220:\n        /* \"#utility.yul\":4100:4220   */\n    tag_219:\n        /* \"#utility.yul\":4259:4260   */\n      0x00\n        /* \"#utility.yul\":4284:4337   */\n      tag_221\n        /* \"#utility.yul\":4329:4336   */\n      dup10\n        /* \"#utility.yul\":4320:4326   */\n      dup3\n        /* \"#utility.yul\":4309:4318   */\n      dup11\n        /* \"#utility.yul\":4305:4327   */\n      add\n        /* \"#utility.yul\":4284:4337   */\n      tag_147\n      jump\t// in\n    tag_221:\n        /* \"#utility.yul\":4274:4337   */\n      swap7\n      pop\n        /* \"#utility.yul\":4230:4347   */\n      pop\n        /* \"#utility.yul\":4386:4388   */\n      0x20\n        /* \"#utility.yul\":4412:4465   */\n      tag_222\n        /* \"#utility.yul\":4457:4464   */\n      dup10\n        /* \"#utility.yul\":4448:4454   */\n      dup3\n        /* \"#utility.yul\":4437:4446   */\n      dup11\n        /* \"#utility.yul\":4433:4455   */\n      add\n        /* \"#utility.yul\":4412:4465   */\n      tag_147\n      jump\t// in\n    tag_222:\n        /* \"#utility.yul\":4402:4465   */\n      swap6\n      pop\n        /* \"#utility.yul\":4357:4475   */\n      pop\n        /* \"#utility.yul\":4514:4516   */\n      0x40\n        /* \"#utility.yul\":4540:4593   */\n      tag_223\n        /* \"#utility.yul\":4585:4592   */\n      dup10\n        /* \"#utility.yul\":4576:4582   */\n      dup3\n        /* \"#utility.yul\":4565:4574   */\n      dup11\n        /* \"#utility.yul\":4561:4583   */\n      add\n        /* \"#utility.yul\":4540:4593   */\n      tag_142\n      jump\t// in\n    tag_223:\n        /* \"#utility.yul\":4530:4593   */\n      swap5\n      pop\n        /* \"#utility.yul\":4485:4603   */\n      pop\n        /* \"#utility.yul\":4642:4644   */\n      0x60\n        /* \"#utility.yul\":4668:4721   */\n      tag_224\n        /* \"#utility.yul\":4713:4720   */\n      dup10\n        /* \"#utility.yul\":4704:4710   */\n      dup3\n        /* \"#utility.yul\":4693:4702   */\n      dup11\n        /* \"#utility.yul\":4689:4711   */\n      add\n        /* \"#utility.yul\":4668:4721   */\n      tag_142\n      jump\t// in\n    tag_224:\n        /* \"#utility.yul\":4658:4721   */\n      swap4\n      pop\n        /* \"#utility.yul\":4613:4731   */\n      pop\n        /* \"#utility.yul\":4770:4773   */\n      0x80\n        /* \"#utility.yul\":4797:4850   */\n      tag_225\n        /* \"#utility.yul\":4842:4849   */\n      dup10\n        /* \"#utility.yul\":4833:4839   */\n      dup3\n        /* \"#utility.yul\":4822:4831   */\n      dup11\n        /* \"#utility.yul\":4818:4840   */\n      add\n        /* \"#utility.yul\":4797:4850   */\n      tag_142\n      jump\t// in\n    tag_225:\n        /* \"#utility.yul\":4787:4850   */\n      swap3\n      pop\n        /* \"#utility.yul\":4741:4860   */\n      pop\n        /* \"#utility.yul\":4899:4902   */\n      0xa0\n        /* \"#utility.yul\":4926:4979   */\n      tag_226\n        /* \"#utility.yul\":4971:4978   */\n      dup10\n        /* \"#utility.yul\":4962:4968   */\n      dup3\n        /* \"#utility.yul\":4951:4960   */\n      dup11\n        /* \"#utility.yul\":4947:4969   */\n      add\n        /* \"#utility.yul\":4926:4979   */\n      tag_142\n      jump\t// in\n    tag_226:\n        /* \"#utility.yul\":4916:4979   */\n      swap2\n      pop\n        /* \"#utility.yul\":4870:4989   */\n      pop\n        /* \"#utility.yul\":3939:4996   */\n      swap3\n      swap6\n      pop\n      swap3\n      swap6\n      pop\n      swap3\n      swap6\n      jump\t// out\n        /* \"#utility.yul\":5002:5171   */\n    tag_148:\n        /* \"#utility.yul\":5086:5097   */\n      0x00\n        /* \"#utility.yul\":5120:5126   */\n      dup3\n        /* \"#utility.yul\":5115:5118   */\n      dup3\n        /* \"#utility.yul\":5108:5127   */\n      mstore\n        /* \"#utility.yul\":5160:5164   */\n      0x20\n        /* \"#utility.yul\":5155:5158   */\n      dup3\n        /* \"#utility.yul\":5151:5165   */\n      add\n        /* \"#utility.yul\":5136:5165   */\n      swap1\n      pop\n        /* \"#utility.yul\":5002:5171   */\n      swap3\n      swap2\n      pop\n      pop\n      jump\t// out\n        /* \"#utility.yul\":5177:5341   */\n    tag_149:\n        /* \"#utility.yul\":5317:5333   */\n      0x4c414e3a206e6f74206f776e6572000000000000000000000000000000000000\n        /* \"#utility.yul\":5313:5314   */\n      0x00\n        /* \"#utility.yul\":5305:5311   */\n      dup3\n        /* \"#utility.yul\":5301:5315   */\n      add\n        /* \"#utility.yul\":5294:5334   */\n      mstore\n        /* \"#utility.yul\":5177:5341   */\n      pop\n      jump\t// out\n        /* \"#utility.yul\":5347:5713   */\n    tag_150:\n        /* \"#utility.yul\":5489:5492   */\n      0x00\n        /* \"#utility.yul\":5510:5577   */\n      tag_230\n        /* \"#utility.yul\":5574:5576   */\n      0x0e\n        /* \"#utility.yul\":5569:5572   */\n      dup4\n        /* \"#utility.yul\":5510:5577   */\n      tag_148\n      jump\t// in\n    tag_230:\n        /* \"#utility.yul\":5503:5577   */\n      swap2\n      pop\n        /* \"#utility.yul\":5586:5679   */\n      tag_231\n        /* \"#utility.yul\":5675:5678   */\n      dup3\n        /* \"#utility.yul\":5586:5679   */\n      tag_149\n      jump\t// in\n    tag_231:\n        /* \"#utility.yul\":5704:5706   */\n      0x20\n        /* \"#utility.yul\":5699:5702   */\n      dup3\n        /* \"#utility.yul\":5695:5707   */\n      add\n        /* \"#utility.yul\":5688:5707   */\n      swap1\n      pop\n        /* \"#utility.yul\":5347:5713   */\n      swap2\n      swap1\n      pop\n      jump\t// out\n        /* \"#utility.yul\":5719:6138   */\n    tag_47:\n        /* \"#utility.yul\":5885:5889   */\n      0x00\n        /* \"#utility.yul\":5923:5925   */\n      0x20\n        /* \"#utility.yul\":5912:5921   */\n      dup3\n        /* \"#utility.yul\":5908:5926   */\n      add\n        /* \"#utility.yul\":5900:5926   */\n      swap1\n      pop\n        /* \"#utility.yul\":5972:5981   */\n      dup2\n        /* \"#utility.yul\":5966:5970   */\n      dup2\n        /* \"#utility.yul\":5962:5982   */\n      sub\n        /* \"#utility.yul\":5958:5959   */\n      0x00\n        /* \"#utility.yul\":5947:5956   */\n      dup4\n        /* \"#utility.yul\":5943:5960   */\n      add\n        /* \"#utility.yul\":5936:5983   */\n      mstore\n        /* \"#utility.yul\":6000:6131   */\n      tag_233\n        /* \"#utility.yul\":6126:6130   */\n      dup2\n        /* \"#utility.yul\":6000:6131   */\n      tag_150\n      jump\t// in\n    tag_233:\n        /* \"#utility.yul\":5992:6131   */\n      swap1\n      pop\n        /* \"#utility.yul\":5719:6138   */\n      swap2\n      swap1\n      pop\n      jump\t// out\n        /* \"#utility.yul\":6144:6314   */\n    tag_151:\n        /* \"#utility.yul\":6284:6306   */\n      0x4c414e3a20616c72656164792073746172746564000000000000000000000000\n        /* \"#utility.yul\":6280:6281   */\n      0x00\n        /* \"#utility.yul\":6272:6278   */\n      dup3\n        /* \"#utility.yul\":6268:6282   */\n      add\n        /* \"#utility.yul\":6261:6307   */\n      mstore\n        /* \"#utility.yul\":6144:6314   */\n      pop\n      jump\t// out\n        /* \"#utility.yul\":6320:6686   */\n    tag_152:\n        /* \"#utility.yul\":6462:6465   */\n      0x00\n        /* \"#utility.yul\":6483:6550   */\n      tag_236\n        /* \"#utility.yul\":6547:6549   */\n      0x14\n        /* \"#utility.yul\":6542:6545   */\n      dup4\n        /* \"#utility.yul\":6483:6550   */\n      tag_148\n      jump\t// in\n    tag_236:\n        /* \"#utility.yul\":6476:6550   */\n      swap2\n      pop\n        /* \"#utility.yul\":6559:6652   */\n      tag_237\n        /* \"#utility.yul\":6648:6651   */\n      dup3\n        /* \"#utility.yul\":6559:6652   */\n      tag_151\n      jump\t// in\n    tag_237:\n        /* \"#utility.yul\":6677:6679   */\n      0x20\n        /* \"#utility.yul\":6672:6675   */\n      dup3\n        /* \"#utility.yul\":6668:6680   */\n      add\n        /* \"#utility.yul\":6661:6680   */\n      swap1\n      pop\n        /* \"#utility.yul\":6320:6686   */\n      swap2\n      swap1\n      pop\n      jump\t// out\n        /* \"#utility.yul\":6692:7111   */\n    tag_51:\n        /* \"#utility.yul\":6858:6862   */\n      0x00\n        /* \"#utility.yul\":6896:6898   */\n      0x20\n        /* \"#utility.yul\":6885:6894   */\n      dup3\n        /* \"#utility.yul\":6881:6899   */\n      add\n        /* \"#utility.yul\":6873:6899   */\n      swap1\n      pop\n        /* \"#utility.yul\":6945:6954   */\n      dup2\n        /* \"#utility.yul\":6939:6943   */\n      dup2\n        /* \"#utility.yul\":6935:6955   */\n      sub\n        /* \"#utility.yul\":6931:6932   */\n      0x00\n        /* \"#utility.yul\":6920:6929   */\n      dup4\n        /* \"#utility.yul\":6916:6933   */\n      add\n        /* \"#utility.yul\":6909:6956   */\n      mstore\n        /* \"#utility.yul\":6973:7104   */\n      tag_239\n        /* \"#utility.yul\":7099:7103   */\n      dup2\n        /* \"#utility.yul\":6973:7104   */\n      tag_152\n      jump\t// in\n    tag_239:\n        /* \"#utility.yul\":6965:7104   */\n      swap1\n      pop\n        /* \"#utility.yul\":6692:7111   */\n      swap2\n      swap1\n      pop\n      jump\t// out\n        /* \"#utility.yul\":7117:7286   */\n    tag_153:\n        /* \"#utility.yul\":7257:7278   */\n      0x4c414e3a206c6f616e206e6f7420656e64656400000000000000000000000000\n        /* \"#utility.yul\":7253:7254   */\n      0x00\n        /* \"#utility.yul\":7245:7251   */\n      dup3\n        /* \"#utility.yul\":7241:7255   */\n      add\n        /* \"#utility.yul\":7234:7279   */\n      mstore\n        /* \"#utility.yul\":7117:7286   */\n      pop\n      jump\t// out\n        /* \"#utility.yul\":7292:7658   */\n    tag_154:\n        /* \"#utility.yul\":7434:7437   */\n      0x00\n        /* \"#utility.yul\":7455:7522   */\n      tag_242\n        /* \"#utility.yul\":7519:7521   */\n      0x13\n        /* \"#utility.yul\":7514:7517   */\n      dup4\n        /* \"#utility.yul\":7455:7522   */\n      tag_148\n      jump\t// in\n    tag_242:\n        /* \"#utility.yul\":7448:7522   */\n      swap2\n      pop\n        /* \"#utility.yul\":7531:7624   */\n      tag_243\n        /* \"#utility.yul\":7620:7623   */\n      dup3\n        /* \"#utility.yul\":7531:7624   */\n      tag_153\n      jump\t// in\n    tag_243:\n        /* \"#utility.yul\":7649:7651   */\n      0x20\n        /* \"#utility.yul\":7644:7647   */\n      dup3\n        /* \"#utility.yul\":7640:7652   */\n      add\n        /* \"#utility.yul\":7633:7652   */\n      swap1\n      pop\n        /* \"#utility.yul\":7292:7658   */\n      swap2\n      swap1\n      pop\n      jump\t// out\n        /* \"#utility.yul\":7664:8083   */\n    tag_60:\n        /* \"#utility.yul\":7830:7834   */\n      0x00\n        /* \"#utility.yul\":7868:7870   */\n      0x20\n        /* \"#utility.yul\":7857:7866   */\n      dup3\n        /* \"#utility.yul\":7853:7871   */\n      add\n        /* \"#utility.yul\":7845:7871   */\n      swap1\n      pop\n        /* \"#utility.yul\":7917:7926   */\n      dup2\n        /* \"#utility.yul\":7911:7915   */\n      dup2\n        /* \"#utility.yul\":7907:7927   */\n      sub\n        /* \"#utility.yul\":7903:7904   */\n      0x00\n        /* \"#utility.yul\":7892:7901   */\n      dup4\n        /* \"#utility.yul\":7888:7905   */\n      add\n        /* \"#utility.yul\":7881:7928   */\n      mstore\n        /* \"#utility.yul\":7945:8076   */\n      tag_245\n        /* \"#utility.yul\":8071:8075   */\n      dup2\n        /* \"#utility.yul\":7945:8076   */\n      tag_154\n      jump\t// in\n    tag_245:\n        /* \"#utility.yul\":7937:8076   */\n      swap1\n      pop\n        /* \"#utility.yul\":7664:8083   */\n      swap2\n      swap1\n      pop\n      jump\t// out\n        /* \"#utility.yul\":8089:8261   */\n    tag_155:\n        /* \"#utility.yul\":8229:8253   */\n      0x4c414e3a206e6f74206c61746573742062696464657200000000000000000000\n        /* \"#utility.yul\":8225:8226   */\n      0x00\n        /* \"#utility.yul\":8217:8223   */\n      dup3\n        /* \"#utility.yul\":8213:8227   */\n      add\n        /* \"#utility.yul\":8206:8254   */\n      mstore\n        /* \"#utility.yul\":8089:8261   */\n      pop\n      jump\t// out\n        /* \"#utility.yul\":8267:8633   */\n    tag_156:\n        /* \"#utility.yul\":8409:8412   */\n      0x00\n        /* \"#utility.yul\":8430:8497   */\n      tag_248\n        /* \"#utility.yul\":8494:8496   */\n      0x16\n        /* \"#utility.yul\":8489:8492   */\n      dup4\n        /* \"#utility.yul\":8430:8497   */\n      tag_148\n      jump\t// in\n    tag_248:\n        /* \"#utility.yul\":8423:8497   */\n      swap2\n      pop\n        /* \"#utility.yul\":8506:8599   */\n      tag_249\n        /* \"#utility.yul\":8595:8598   */\n      dup3\n        /* \"#utility.yul\":8506:8599   */\n      tag_155\n      jump\t// in\n    tag_249:\n        /* \"#utility.yul\":8624:8626   */\n      0x20\n        /* \"#utility.yul\":8619:8622   */\n      dup3\n        /* \"#utility.yul\":8615:8627   */\n      add\n        /* \"#utility.yul\":8608:8627   */\n      swap1\n      pop\n        /* \"#utility.yul\":8267:8633   */\n      swap2\n      swap1\n      pop\n      jump\t// out\n        /* \"#utility.yul\":8639:9058   */\n    tag_63:\n        /* \"#utility.yul\":8805:8809   */\n      0x00\n        /* \"#utility.yul\":8843:8845   */\n      0x20\n        /* \"#utility.yul\":8832:8841   */\n      dup3\n        /* \"#utility.yul\":8828:8846   */\n      add\n        /* \"#utility.yul\":8820:8846   */\n      swap1\n      pop\n        /* \"#utility.yul\":8892:8901   */\n      dup2\n        /* \"#utility.yul\":8886:8890   */\n      dup2\n        /* \"#utility.yul\":8882:8902   */\n      sub\n        /* \"#utility.yul\":8878:8879   */\n      0x00\n        /* \"#utility.yul\":8867:8876   */\n      dup4\n        /* \"#utility.yul\":8863:8880   */\n      add\n        /* \"#utility.yul\":8856:8903   */\n      mstore\n        /* \"#utility.yul\":8920:9051   */\n      tag_251\n        /* \"#utility.yul\":9046:9050   */\n      dup2\n        /* \"#utility.yul\":8920:9051   */\n      tag_156\n      jump\t// in\n    tag_251:\n        /* \"#utility.yul\":8912:9051   */\n      swap1\n      pop\n        /* \"#utility.yul\":8639:9058   */\n      swap2\n      swap1\n      pop\n      jump\t// out\n        /* \"#utility.yul\":9064:9506   */\n    tag_65:\n        /* \"#utility.yul\":9213:9217   */\n      0x00\n        /* \"#utility.yul\":9251:9253   */\n      0x60\n        /* \"#utility.yul\":9240:9249   */\n      dup3\n        /* \"#utility.yul\":9236:9254   */\n      add\n        /* \"#utility.yul\":9228:9254   */\n      swap1\n      pop\n        /* \"#utility.yul\":9264:9335   */\n      tag_253\n        /* \"#utility.yul\":9332:9333   */\n      0x00\n        /* \"#utility.yul\":9321:9330   */\n      dup4\n        /* \"#utility.yul\":9317:9334   */\n      add\n        /* \"#utility.yul\":9308:9314   */\n      dup7\n        /* \"#utility.yul\":9264:9335   */\n      tag_145\n      jump\t// in\n    tag_253:\n        /* \"#utility.yul\":9345:9417   */\n      tag_254\n        /* \"#utility.yul\":9413:9415   */\n      0x20\n        /* \"#utility.yul\":9402:9411   */\n      dup4\n        /* \"#utility.yul\":9398:9416   */\n      add\n        /* \"#utility.yul\":9389:9395   */\n      dup6\n        /* \"#utility.yul\":9345:9417   */\n      tag_145\n      jump\t// in\n    tag_254:\n        /* \"#utility.yul\":9427:9499   */\n      tag_255\n        /* \"#utility.yul\":9495:9497   */\n      0x40\n        /* \"#utility.yul\":9484:9493   */\n      dup4\n        /* \"#utility.yul\":9480:9498   */\n      add\n        /* \"#utility.yul\":9471:9477   */\n      dup5\n        /* \"#utility.yul\":9427:9499   */\n      tag_137\n      jump\t// in\n    tag_255:\n        /* \"#utility.yul\":9064:9506   */\n      swap5\n      swap4\n      pop\n      pop\n      pop\n      pop\n      jump\t// out\n        /* \"#utility.yul\":9512:9678   */\n    tag_157:\n        /* \"#utility.yul\":9652:9670   */\n      0x4c414e3a206e6f74207374617274656400000000000000000000000000000000\n        /* \"#utility.yul\":9648:9649   */\n      0x00\n        /* \"#utility.yul\":9640:9646   */\n      dup3\n        /* \"#utility.yul\":9636:9650   */\n      add\n        /* \"#utility.yul\":9629:9671   */\n      mstore\n        /* \"#utility.yul\":9512:9678   */\n      pop\n      jump\t// out\n        /* \"#utility.yul\":9684:10050   */\n    tag_158:\n        /* \"#utility.yul\":9826:9829   */\n      0x00\n        /* \"#utility.yul\":9847:9914   */\n      tag_258\n        /* \"#utility.yul\":9911:9913   */\n      0x10\n        /* \"#utility.yul\":9906:9909   */\n      dup4\n        /* \"#utility.yul\":9847:9914   */\n      tag_148\n      jump\t// in\n    tag_258:\n        /* \"#utility.yul\":9840:9914   */\n      swap2\n      pop\n        /* \"#utility.yul\":9923:10016   */\n      tag_259\n        /* \"#utility.yul\":10012:10015   */\n      dup3\n        /* \"#utility.yul\":9923:10016   */\n      tag_157\n      jump\t// in\n    tag_259:\n        /* \"#utility.yul\":10041:10043   */\n      0x20\n        /* \"#utility.yul\":10036:10039   */\n      dup3\n        /* \"#utility.yul\":10032:10044   */\n      add\n        /* \"#utility.yul\":10025:10044   */\n      swap1\n      pop\n        /* \"#utility.yul\":9684:10050   */\n      swap2\n      swap1\n      pop\n      jump\t// out\n        /* \"#utility.yul\":10056:10475   */\n    tag_74:\n        /* \"#utility.yul\":10222:10226   */\n      0x00\n        /* \"#utility.yul\":10260:10262   */\n      0x20\n        /* \"#utility.yul\":10249:10258   */\n      dup3\n        /* \"#utility.yul\":10245:10263   */\n      add\n        /* \"#utility.yul\":10237:10263   */\n      swap1\n      pop\n        /* \"#utility.yul\":10309:10318   */\n      dup2\n        /* \"#utility.yul\":10303:10307   */\n      dup2\n        /* \"#utility.yul\":10299:10319   */\n      sub\n        /* \"#utility.yul\":10295:10296   */\n      0x00\n        /* \"#utility.yul\":10284:10293   */\n      dup4\n        /* \"#utility.yul\":10280:10297   */\n      add\n        /* \"#utility.yul\":10273:10320   */\n      mstore\n        /* \"#utility.yul\":10337:10468   */\n      tag_261\n        /* \"#utility.yul\":10463:10467   */\n      dup2\n        /* \"#utility.yul\":10337:10468   */\n      tag_158\n      jump\t// in\n    tag_261:\n        /* \"#utility.yul\":10329:10468   */\n      swap1\n      pop\n        /* \"#utility.yul\":10056:10475   */\n      swap2\n      swap1\n      pop\n      jump\t// out\n        /* \"#utility.yul\":10481:10649   */\n    tag_159:\n        /* \"#utility.yul\":10621:10641   */\n      0x4c414e3a20616c726561647920656e6465640000000000000000000000000000\n        /* \"#utility.yul\":10617:10618   */\n      0x00\n        /* \"#utility.yul\":10609:10615   */\n      dup3\n        /* \"#utility.yul\":10605:10619   */\n      add\n        /* \"#utility.yul\":10598:10642   */\n      mstore\n        /* \"#utility.yul\":10481:10649   */\n      pop\n      jump\t// out\n        /* \"#utility.yul\":10655:11021   */\n    tag_160:\n        /* \"#utility.yul\":10797:10800   */\n      0x00\n        /* \"#utility.yul\":10818:10885   */\n      tag_264\n        /* \"#utility.yul\":10882:10884   */\n      0x12\n        /* \"#utility.yul\":10877:10880   */\n      dup4\n        /* \"#utility.yul\":10818:10885   */\n      tag_148\n      jump\t// in\n    tag_264:\n        /* \"#utility.yul\":10811:10885   */\n      swap2\n      pop\n        /* \"#utility.yul\":10894:10987   */\n      tag_265\n        /* \"#utility.yul\":10983:10986   */\n      dup3\n        /* \"#utility.yul\":10894:10987   */\n      tag_159\n      jump\t// in\n    tag_265:\n        /* \"#utility.yul\":11012:11014   */\n      0x20\n        /* \"#utility.yul\":11007:11010   */\n      dup3\n        /* \"#utility.yul\":11003:11015   */\n      add\n        /* \"#utility.yul\":10996:11015   */\n      swap1\n      pop\n        /* \"#utility.yul\":10655:11021   */\n      swap2\n      swap1\n      pop\n      jump\t// out\n        /* \"#utility.yul\":11027:11446   */\n    tag_78:\n        /* \"#utility.yul\":11193:11197   */\n      0x00\n        /* \"#utility.yul\":11231:11233   */\n      0x20\n        /* \"#utility.yul\":11220:11229   */\n      dup3\n        /* \"#utility.yul\":11216:11234   */\n      add\n        /* \"#utility.yul\":11208:11234   */\n      swap1\n      pop\n        /* \"#utility.yul\":11280:11289   */\n      dup2\n        /* \"#utility.yul\":11274:11278   */\n      dup2\n        /* \"#utility.yul\":11270:11290   */\n      sub\n        /* \"#utility.yul\":11266:11267   */\n      0x00\n        /* \"#utility.yul\":11255:11264   */\n      dup4\n        /* \"#utility.yul\":11251:11268   */\n      add\n        /* \"#utility.yul\":11244:11291   */\n      mstore\n        /* \"#utility.yul\":11308:11439   */\n      tag_267\n        /* \"#utility.yul\":11434:11438   */\n      dup2\n        /* \"#utility.yul\":11308:11439   */\n      tag_160\n      jump\t// in\n    tag_267:\n        /* \"#utility.yul\":11300:11439   */\n      swap1\n      pop\n        /* \"#utility.yul\":11027:11446   */\n      swap2\n      swap1\n      pop\n      jump\t// out\n        /* \"#utility.yul\":11452:11632   */\n    tag_161:\n        /* \"#utility.yul\":11500:11577   */\n      0x4e487b7100000000000000000000000000000000000000000000000000000000\n        /* \"#utility.yul\":11497:11498   */\n      0x00\n        /* \"#utility.yul\":11490:11578   */\n      mstore\n        /* \"#utility.yul\":11597:11601   */\n      0x11\n        /* \"#utility.yul\":11594:11595   */\n      0x04\n        /* \"#utility.yul\":11587:11602   */\n      mstore\n        /* \"#utility.yul\":11621:11625   */\n      0x24\n        /* \"#utility.yul\":11618:11619   */\n      0x00\n        /* \"#utility.yul\":11611:11626   */\n      revert\n        /* \"#utility.yul\":11638:11829   */\n    tag_80:\n        /* \"#utility.yul\":11678:11681   */\n      0x00\n        /* \"#utility.yul\":11697:11717   */\n      tag_270\n        /* \"#utility.yul\":11715:11716   */\n      dup3\n        /* \"#utility.yul\":11697:11717   */\n      tag_136\n      jump\t// in\n    tag_270:\n        /* \"#utility.yul\":11692:11717   */\n      swap2\n      pop\n        /* \"#utility.yul\":11731:11751   */\n      tag_271\n        /* \"#utility.yul\":11749:11750   */\n      dup4\n        /* \"#utility.yul\":11731:11751   */\n      tag_136\n      jump\t// in\n    tag_271:\n        /* \"#utility.yul\":11726:11751   */\n      swap3\n      pop\n        /* \"#utility.yul\":11774:11775   */\n      dup3\n        /* \"#utility.yul\":11771:11772   */\n      dup3\n        /* \"#utility.yul\":11767:11776   */\n      add\n        /* \"#utility.yul\":11760:11776   */\n      swap1\n      pop\n        /* \"#utility.yul\":11795:11798   */\n      dup1\n        /* \"#utility.yul\":11792:11793   */\n      dup3\n        /* \"#utility.yul\":11789:11799   */\n      gt\n        /* \"#utility.yul\":11786:11822   */\n      iszero\n      tag_272\n      jumpi\n        /* \"#utility.yul\":11802:11820   */\n      tag_273\n      tag_161\n      jump\t// in\n    tag_273:\n        /* \"#utility.yul\":11786:11822   */\n    tag_272:\n        /* \"#utility.yul\":11638:11829   */\n      swap3\n      swap2\n      pop\n      pop\n      jump\t// out\n        /* \"#utility.yul\":11835:12004   */\n    tag_162:\n        /* \"#utility.yul\":11975:11996   */\n      0x4c414e3a20626964206e6f742068696768657200000000000000000000000000\n        /* \"#utility.yul\":11971:11972   */\n      0x00\n        /* \"#utility.yul\":11963:11969   */\n      dup3\n        /* \"#utility.yul\":11959:11973   */\n      add\n        /* \"#utility.yul\":11952:11997   */\n      mstore\n        /* \"#utility.yul\":11835:12004   */\n      pop\n      jump\t// out\n        /* \"#utility.yul\":12010:12376   */\n    tag_163:\n        /* \"#utility.yul\":12152:12155   */\n      0x00\n        /* \"#utility.yul\":12173:12240   */\n      tag_276\n        /* \"#utility.yul\":12237:12239   */\n      0x13\n        /* \"#utility.yul\":12232:12235   */\n      dup4\n        /* \"#utility.yul\":12173:12240   */\n      tag_148\n      jump\t// in\n    tag_276:\n        /* \"#utility.yul\":12166:12240   */\n      swap2\n      pop\n        /* \"#utility.yul\":12249:12342   */\n      tag_277\n        /* \"#utility.yul\":12338:12341   */\n      dup3\n        /* \"#utility.yul\":12249:12342   */\n      tag_162\n      jump\t// in\n    tag_277:\n        /* \"#utility.yul\":12367:12369   */\n      0x20\n        /* \"#utility.yul\":12362:12365   */\n      dup3\n        /* \"#utility.yul\":12358:12370   */\n      add\n        /* \"#utility.yul\":12351:12370   */\n      swap1\n      pop\n        /* \"#utility.yul\":12010:12376   */\n      swap2\n      swap1\n      pop\n      jump\t// out\n        /* \"#utility.yul\":12382:12801   */\n    tag_85:\n        /* \"#utility.yul\":12548:12552   */\n      0x00\n        /* \"#utility.yul\":12586:12588   */\n      0x20\n        /* \"#utility.yul\":12575:12584   */\n      dup3\n        /* \"#utility.yul\":12571:12589   */\n      add\n        /* \"#utility.yul\":12563:12589   */\n      swap1\n      pop\n        /* \"#utility.yul\":12635:12644   */\n      dup2\n        /* \"#utility.yul\":12629:12633   */\n      dup2\n        /* \"#utility.yul\":12625:12645   */\n      sub\n        /* \"#utility.yul\":12621:12622   */\n      0x00\n        /* \"#utility.yul\":12610:12619   */\n      dup4\n        /* \"#utility.yul\":12606:12623   */\n      add\n        /* \"#utility.yul\":12599:12646   */\n      mstore\n        /* \"#utility.yul\":12663:12794   */\n      tag_279\n        /* \"#utility.yul\":12789:12793   */\n      dup2\n        /* \"#utility.yul\":12663:12794   */\n      tag_163\n      jump\t// in\n    tag_279:\n        /* \"#utility.yul\":12655:12794   */\n      swap1\n      pop\n        /* \"#utility.yul\":12382:12801   */\n      swap2\n      swap1\n      pop\n      jump\t// out\n        /* \"#utility.yul\":12807:12897   */\n    tag_164:\n        /* \"#utility.yul\":12841:12848   */\n      0x00\n        /* \"#utility.yul\":12884:12889   */\n      dup2\n        /* \"#utility.yul\":12877:12890   */\n      iszero\n        /* \"#utility.yul\":12870:12891   */\n      iszero\n        /* \"#utility.yul\":12859:12891   */\n      swap1\n      pop\n        /* \"#utility.yul\":12807:12897   */\n      swap2\n      swap1\n      pop\n      jump\t// out\n        /* \"#utility.yul\":12903:13019   */\n    tag_165:\n        /* \"#utility.yul\":12973:12994   */\n      tag_282\n        /* \"#utility.yul\":12988:12993   */\n      dup2\n        /* \"#utility.yul\":12973:12994   */\n      tag_164\n      jump\t// in\n    tag_282:\n        /* \"#utility.yul\":12966:12971   */\n      dup2\n        /* \"#utility.yul\":12963:12995   */\n      eq\n        /* \"#utility.yul\":12953:13013   */\n      tag_283\n      jumpi\n        /* \"#utility.yul\":13009:13010   */\n      0x00\n        /* \"#utility.yul\":13006:13007   */\n      dup1\n        /* \"#utility.yul\":12999:13011   */\n      revert\n        /* \"#utility.yul\":12953:13013   */\n    tag_283:\n        /* \"#utility.yul\":12903:13019   */\n      pop\n      jump\t// out\n        /* \"#utility.yul\":13025:13162   */\n    tag_166:\n        /* \"#utility.yul\":13079:13084   */\n      0x00\n        /* \"#utility.yul\":13110:13116   */\n      dup2\n        /* \"#utility.yul\":13104:13117   */\n      mload\n        /* \"#utility.yul\":13095:13117   */\n      swap1\n      pop\n        /* \"#utility.yul\":13126:13156   */\n      tag_285\n        /* \"#utility.yul\":13150:13155   */\n      dup2\n        /* \"#utility.yul\":13126:13156   */\n      tag_165\n      jump\t// in\n    tag_285:\n        /* \"#utility.yul\":13025:13162   */\n      swap3\n      swap2\n      pop\n      pop\n      jump\t// out\n        /* \"#utility.yul\":13168:13513   */\n    tag_90:\n        /* \"#utility.yul\":13235:13241   */\n      0x00\n        /* \"#utility.yul\":13284:13286   */\n      0x20\n        /* \"#utility.yul\":13272:13281   */\n      dup3\n        /* \"#utility.yul\":13263:13270   */\n      dup5\n        /* \"#utility.yul\":13259:13282   */\n      sub\n        /* \"#utility.yul\":13255:13287   */\n      slt\n        /* \"#utility.yul\":13252:13371   */\n      iszero\n      tag_287\n      jumpi\n        /* \"#utility.yul\":13290:13369   */\n      tag_288\n      tag_139\n      jump\t// in\n    tag_288:\n        /* \"#utility.yul\":13252:13371   */\n    tag_287:\n        /* \"#utility.yul\":13410:13411   */\n      0x00\n        /* \"#utility.yul\":13435:13496   */\n      tag_289\n        /* \"#utility.yul\":13488:13495   */\n      dup5\n        /* \"#utility.yul\":13479:13485   */\n      dup3\n        /* \"#utility.yul\":13468:13477   */\n      dup6\n        /* \"#utility.yul\":13464:13486   */\n      add\n        /* \"#utility.yul\":13435:13496   */\n      tag_166\n      jump\t// in\n    tag_289:\n        /* \"#utility.yul\":13425:13496   */\n      swap2\n      pop\n        /* \"#utility.yul\":13381:13506   */\n      pop\n        /* \"#utility.yul\":13168:13513   */\n      swap3\n      swap2\n      pop\n      pop\n      jump\t// out\n        /* \"#utility.yul\":13519:13713   */\n    tag_92:\n        /* \"#utility.yul\":13559:13563   */\n      0x00\n        /* \"#utility.yul\":13579:13599   */\n      tag_291\n        /* \"#utility.yul\":13597:13598   */\n      dup3\n        /* \"#utility.yul\":13579:13599   */\n      tag_136\n      jump\t// in\n    tag_291:\n        /* \"#utility.yul\":13574:13599   */\n      swap2\n      pop\n        /* \"#utility.yul\":13613:13633   */\n      tag_292\n        /* \"#utility.yul\":13631:13632   */\n      dup4\n        /* \"#utility.yul\":13613:13633   */\n      tag_136\n      jump\t// in\n    tag_292:\n        /* \"#utility.yul\":13608:13633   */\n      swap3\n      pop\n        /* \"#utility.yul\":13657:13658   */\n      dup3\n        /* \"#utility.yul\":13654:13655   */\n      dup3\n        /* \"#utility.yul\":13650:13659   */\n      sub\n        /* \"#utility.yul\":13642:13659   */\n      swap1\n      pop\n        /* \"#utility.yul\":13681:13682   */\n      dup2\n        /* \"#utility.yul\":13675:13679   */\n      dup2\n        /* \"#utility.yul\":13672:13683   */\n      gt\n        /* \"#utility.yul\":13669:13706   */\n      iszero\n      tag_293\n      jumpi\n        /* \"#utility.yul\":13686:13704   */\n      tag_294\n      tag_161\n      jump\t// in\n    tag_294:\n        /* \"#utility.yul\":13669:13706   */\n    tag_293:\n        /* \"#utility.yul\":13519:13713   */\n      swap3\n      swap2\n      pop\n      pop\n      jump\t// out\n        /* \"#utility.yul\":13719:13892   */\n    tag_167:\n        /* \"#utility.yul\":13859:13884   */\n      0x4c414e3a2073746172742074696d6520696e2070617374000000000000000000\n        /* \"#utility.yul\":13855:13856   */\n      0x00\n        /* \"#utility.yul\":13847:13853   */\n      dup3\n        /* \"#utility.yul\":13843:13857   */\n      add\n        /* \"#utility.yul\":13836:13885   */\n      mstore\n        /* \"#utility.yul\":13719:13892   */\n      pop\n      jump\t// out\n        /* \"#utility.yul\":13898:14264   */\n    tag_168:\n        /* \"#utility.yul\":14040:14043   */\n      0x00\n        /* \"#utility.yul\":14061:14128   */\n      tag_297\n        /* \"#utility.yul\":14125:14127   */\n      0x17\n        /* \"#utility.yul\":14120:14123   */\n      dup4\n        /* \"#utility.yul\":14061:14128   */\n      tag_148\n      jump\t// in\n    tag_297:\n        /* \"#utility.yul\":14054:14128   */\n      swap2\n      pop\n        /* \"#utility.yul\":14137:14230   */\n      tag_298\n        /* \"#utility.yul\":14226:14229   */\n      dup3\n        /* \"#utility.yul\":14137:14230   */\n      tag_167\n      jump\t// in\n    tag_298:\n        /* \"#utility.yul\":14255:14257   */\n      0x20\n        /* \"#utility.yul\":14250:14253   */\n      dup3\n        /* \"#utility.yul\":14246:14258   */\n      add\n        /* \"#utility.yul\":14239:14258   */\n      swap1\n      pop\n        /* \"#utility.yul\":13898:14264   */\n      swap2\n      swap1\n      pop\n      jump\t// out\n        /* \"#utility.yul\":14270:14689   */\n    tag_113:\n        /* \"#utility.yul\":14436:14440   */\n      0x00\n        /* \"#utility.yul\":14474:14476   */\n      0x20\n        /* \"#utility.yul\":14463:14472   */\n      dup3\n        /* \"#utility.yul\":14459:14477   */\n      add\n        /* \"#utility.yul\":14451:14477   */\n      swap1\n      pop\n        /* \"#utility.yul\":14523:14532   */\n      dup2\n        /* \"#utility.yul\":14517:14521   */\n      dup2\n        /* \"#utility.yul\":14513:14533   */\n      sub\n        /* \"#utility.yul\":14509:14510   */\n      0x00\n        /* \"#utility.yul\":14498:14507   */\n      dup4\n        /* \"#utility.yul\":14494:14511   */\n      add\n        /* \"#utility.yul\":14487:14534   */\n      mstore\n        /* \"#utility.yul\":14551:14682   */\n      tag_300\n        /* \"#utility.yul\":14677:14681   */\n      dup2\n        /* \"#utility.yul\":14551:14682   */\n      tag_168\n      jump\t// in\n    tag_300:\n        /* \"#utility.yul\":14543:14682   */\n      swap1\n      pop\n        /* \"#utility.yul\":14270:14689   */\n      swap2\n      swap1\n      pop\n      jump\t// out\n        /* \"#utility.yul\":14695:14865   */\n    tag_169:\n        /* \"#utility.yul\":14835:14857   */\n      0x4c414e3a20737461727420616674657220656e64000000000000000000000000\n        /* \"#utility.yul\":14831:14832   */\n      0x00\n        /* \"#utility.yul\":14823:14829   */\n      dup3\n        /* \"#utility.yul\":14819:14833   */\n      add\n        /* \"#utility.yul\":14812:14858   */\n      mstore\n        /* \"#utility.yul\":14695:14865   */\n      pop\n      jump\t// out\n        /* \"#utility.yul\":14871:15237   */\n    tag_170:\n        /* \"#utility.yul\":15013:15016   */\n      0x00\n        /* \"#utility.yul\":15034:15101   */\n      tag_303\n        /* \"#utility.yul\":15098:15100   */\n      0x14\n        /* \"#utility.yul\":15093:15096   */\n      dup4\n        /* \"#utility.yul\":15034:15101   */\n      tag_148\n      jump\t// in\n    tag_303:\n        /* \"#utility.yul\":15027:15101   */\n      swap2\n      pop\n        /* \"#utility.yul\":15110:15203   */\n      tag_304\n        /* \"#utility.yul\":15199:15202   */\n      dup3\n        /* \"#utility.yul\":15110:15203   */\n      tag_169\n      jump\t// in\n    tag_304:\n        /* \"#utility.yul\":15228:15230   */\n      0x20\n        /* \"#utility.yul\":15223:15226   */\n      dup3\n        /* \"#utility.yul\":15219:15231   */\n      add\n        /* \"#utility.yul\":15212:15231   */\n      swap1\n      pop\n        /* \"#utility.yul\":14871:15237   */\n      swap2\n      swap1\n      pop\n      jump\t// out\n        /* \"#utility.yul\":15243:15662   */\n    tag_116:\n        /* \"#utility.yul\":15409:15413   */\n      0x00\n        /* \"#utility.yul\":15447:15449   */\n      0x20\n        /* \"#utility.yul\":15436:15445   */\n      dup3\n        /* \"#utility.yul\":15432:15450   */\n      add\n        /* \"#utility.yul\":15424:15450   */\n      swap1\n      pop\n        /* \"#utility.yul\":15496:15505   */\n      dup2\n        /* \"#utility.yul\":15490:15494   */\n      dup2\n        /* \"#utility.yul\":15486:15506   */\n      sub\n        /* \"#utility.yul\":15482:15483   */\n      0x00\n        /* \"#utility.yul\":15471:15480   */\n      dup4\n        /* \"#utility.yul\":15467:15484   */\n      add\n        /* \"#utility.yul\":15460:15507   */\n      mstore\n        /* \"#utility.yul\":15524:15655   */\n      tag_306\n        /* \"#utility.yul\":15650:15654   */\n      dup2\n        /* \"#utility.yul\":15524:15655   */\n      tag_170\n      jump\t// in\n    tag_306:\n        /* \"#utility.yul\":15516:15655   */\n      swap1\n      pop\n        /* \"#utility.yul\":15243:15662   */\n      swap2\n      swap1\n      pop\n      jump\t// out\n        /* \"#utility.yul\":15668:16000   */\n    tag_118:\n        /* \"#utility.yul\":15789:15793   */\n      0x00\n        /* \"#utility.yul\":15827:15829   */\n      0x40\n        /* \"#utility.yul\":15816:15825   */\n      dup3\n        /* \"#utility.yul\":15812:15830   */\n      add\n        /* \"#utility.yul\":15804:15830   */\n      swap1\n      pop\n        /* \"#utility.yul\":15840:15911   */\n      tag_308\n        /* \"#utility.yul\":15908:15909   */\n      0x00\n        /* \"#utility.yul\":15897:15906   */\n      dup4\n        /* \"#utility.yul\":15893:15910   */\n      add\n        /* \"#utility.yul\":15884:15890   */\n      dup6\n        /* \"#utility.yul\":15840:15911   */\n      tag_145\n      jump\t// in\n    tag_308:\n        /* \"#utility.yul\":15921:15993   */\n      tag_309\n        /* \"#utility.yul\":15989:15991   */\n      0x20\n        /* \"#utility.yul\":15978:15987   */\n      dup4\n        /* \"#utility.yul\":15974:15992   */\n      add\n        /* \"#utility.yul\":15965:15971   */\n      dup5\n        /* \"#utility.yul\":15921:15993   */\n      tag_137\n      jump\t// in\n    tag_309:\n        /* \"#utility.yul\":15668:16000   */\n      swap4\n      swap3\n      pop\n      pop\n      pop\n      jump\t// out\n        /* \"#utility.yul\":16006:16239   */\n    tag_120:\n        /* \"#utility.yul\":16045:16048   */\n      0x00\n        /* \"#utility.yul\":16068:16092   */\n      tag_311\n        /* \"#utility.yul\":16086:16091   */\n      dup3\n        /* \"#utility.yul\":16068:16092   */\n      tag_136\n      jump\t// in\n    tag_311:\n        /* \"#utility.yul\":16059:16092   */\n      swap2\n      pop\n        /* \"#utility.yul\":16114:16180   */\n      0xffffffffffffffffffffffffffffffffffffffffffffffffffffffffffffffff\n        /* \"#utility.yul\":16107:16112   */\n      dup3\n        /* \"#utility.yul\":16104:16181   */\n      sub\n        /* \"#utility.yul\":16101:16204   */\n      tag_312\n      jumpi\n        /* \"#utility.yul\":16184:16202   */\n      tag_313\n      tag_161\n      jump\t// in\n    tag_313:\n        /* \"#utility.yul\":16101:16204   */\n    tag_312:\n        /* \"#utility.yul\":16231:16232   */\n      0x01\n        /* \"#utility.yul\":16224:16229   */\n      dup3\n        /* \"#utility.yul\":16220:16233   */\n      add\n        /* \"#utility.yul\":16213:16233   */\n      swap1\n      pop\n        /* \"#utility.yul\":16006:16239   */\n      swap2\n      swap1\n      pop\n      jump\t// out\n        /* \"#utility.yul\":16245:16593   */\n    tag_130:\n        /* \"#utility.yul\":16285:16292   */\n      0x00\n        /* \"#utility.yul\":16308:16328   */\n      tag_315\n        /* \"#utility.yul\":16326:16327   */\n      dup3\n        /* \"#utility.yul\":16308:16328   */\n      tag_136\n      jump\t// in\n    tag_315:\n        /* \"#utility.yul\":16303:16328   */\n      swap2\n      pop\n        /* \"#utility.yul\":16342:16362   */\n      tag_316\n        /* \"#utility.yul\":16360:16361   */\n      dup4\n        /* \"#utility.yul\":16342:16362   */\n      tag_136\n      jump\t// in\n    tag_316:\n        /* \"#utility.yul\":16337:16362   */\n      swap3\n      pop\n        /* \"#utility.yul\":16530:16531   */\n      dup2\n        /* \"#utility.yul\":16462:16528   */\n      0xffffffffffffffffffffffffffffffffffffffffffffffffffffffffffffffff\n        /* \"#utility.yul\":16458:16532   */\n      div\n        /* \"#utility.yul\":16455:16456   */\n      dup4\n        /* \"#utility.yul\":16452:16533   */\n      gt\n        /* \"#utility.yul\":16447:16448   */\n      dup3\n        /* \"#utility.yul\":16440:16449   */\n      iszero\n        /* \"#utility.yul\":16433:16450   */\n      iszero\n        /* \"#utility.yul\":16429:16534   */\n      and\n        /* \"#utility.yul\":16426:16557   */\n      iszero\n      tag_317\n      jumpi\n        /* \"#utility.yul\":16537:16555   */\n      tag_318\n      tag_161\n      jump\t// in\n    tag_318:\n        /* \"#utility.yul\":16426:16557   */\n    tag_317:\n        /* \"#utility.yul\":16585:16586   */\n      dup3\n        /* \"#utility.yul\":16582:16583   */\n      dup3\n        /* \"#utility.yul\":16578:16587   */\n      mul\n        /* \"#utility.yul\":16567:16587   */\n      swap1\n      pop\n        /* \"#utility.yul\":16245:16593   */\n      swap3\n      swap2\n      pop\n      pop\n      jump\t// out\n        /* \"#utility.yul\":16599:16779   */\n    tag_171:\n        /* \"#utility.yul\":16647:16724   */\n      0x4e487b7100000000000000000000000000000000000000000000000000000000\n        /* \"#utility.yul\":16644:16645   */\n      0x00\n        /* \"#utility.yul\":16637:16725   */\n      mstore\n        /* \"#utility.yul\":16744:16748   */\n      0x12\n        /* \"#utility.yul\":16741:16742   */\n      0x04\n        /* \"#utility.yul\":16734:16749   */\n      mstore\n        /* \"#utility.yul\":16768:16772   */\n      0x24\n        /* \"#utility.yul\":16765:16766   */\n      0x00\n        /* \"#utility.yul\":16758:16773   */\n      revert\n        /* \"#utility.yul\":16785:16970   */\n    tag_132:\n        /* \"#utility.yul\":16825:16826   */\n      0x00\n        /* \"#utility.yul\":16842:16862   */\n      tag_321\n        /* \"#utility.yul\":16860:16861   */\n      dup3\n        /* \"#utility.yul\":16842:16862   */\n      tag_136\n      jump\t// in\n    tag_321:\n        /* \"#utility.yul\":16837:16862   */\n      swap2\n      pop\n        /* \"#utility.yul\":16876:16896   */\n      tag_322\n        /* \"#utility.yul\":16894:16895   */\n      dup4\n        /* \"#utility.yul\":16876:16896   */\n      tag_136\n      jump\t// in\n    tag_322:\n        /* \"#utility.yul\":16871:16896   */\n      swap3\n      pop\n        /* \"#utility.yul\":16915:16916   */\n      dup3\n        /* \"#utility.yul\":16905:16940   */\n      tag_323\n      jumpi\n        /* \"#utility.yul\":16920:16938   */\n      tag_324\n      tag_171\n      jump\t// in\n    tag_324:\n        /* \"#utility.yul\":16905:16940   */\n    tag_323:\n        /* \"#utility.yul\":16962:16963   */\n      dup3\n        /* \"#utility.yul\":16959:16960   */\n      dup3\n        /* \"#utility.yul\":16955:16964   */\n      div\n        /* \"#utility.yul\":16950:16964   */\n      swap1\n      pop\n        /* \"#utility.yul\":16785:16970   */\n      swap3\n      swap2\n      pop\n      pop\n      jump\t// out\n\n    auxdata: 0xa264697066735822122093f276c13f9dce8708850aa056eb68aa02e5d9627d575e21810b9fcded815b2464736f6c63430008100033\n}\n",
				"bytecode": {
					"linkReferences": {},
					"object": "608060405234801561001057600080fd5b50611f79806100206000396000f3fe608060405234801561001057600080fd5b50600436106100885760003560e01c80637870860b1161005b5780637870860b146100ff5780637b3c4baa1461011b578063e1ec3c681461014d578063e7e4dfcd1461018457610088565b806306661abd1461008d57806340e58ee5146100ab578063415f1240146100c7578063598647f8146100e3575b600080fd5b6100956101a0565b6040516100a291906116a0565b60405180910390f35b6100c560048036038101906100c091906116ec565b6101a6565b005b6100e160048036038101906100dc91906116ec565b61042e565b005b6100fd60048036038101906100f89190611719565b610762565b005b610119600480360381019061011491906116ec565b610bd2565b005b61013560048036038101906101309190611719565b610f83565b6040516101449392919061179a565b60405180910390f35b610167600480360381019061016291906116ec565b610fda565b60405161017b9897969594939291906117d1565b60405180910390f35b61019e6004803603810190610199919061187b565b611082565b005b60005481565b803373ffffffffffffffffffffffffffffffffffffffff166001600083815260200190815260200160002060000160009054906101000a900473ffffffffffffffffffffffffffffffffffffffff1673ffffffffffffffffffffffffffffffffffffffff161461024b576040517f08c379a000000000000000000000000000000000000000000000000000000000815260040161024290611965565b60405180910390fd5b600060016000848152602001908152602001600020604051806101000160405290816000820160009054906101000a900473ffffffffffffffffffffffffffffffffffffffff1673ffffffffffffffffffffffffffffffffffffffff1673ffffffffffffffffffffffffffffffffffffffff1681526020016001820160009054906101000a900473ffffffffffffffffffffffffffffffffffffffff1673ffffffffffffffffffffffffffffffffffffffff1673ffffffffffffffffffffffffffffffffffffffff1681526020016002820160009054906101000a900473ffffffffffffffffffffffffffffffffffffffff1673ffffffffffffffffffffffffffffffffffffffff1673ffffffffffffffffffffffffffffffffffffffff168152602001600382015481526020016004820154815260200160058201548152602001600682015481526020016007820154815250509050428160800151116103e8576040517f08c379a00000000000000000000000000000000000000000000000000000000081526004016103df906119d1565b60405180910390fd5b6103f0611600565b90507ffe785ef891129b084b1c5a30e4d88eb97c97822c024cc25d5f9d806b897512e08360405161042191906116a0565b60405180910390a1505050565b600060016000838152602001908152602001600020604051806101000160405290816000820160009054906101000a900473ffffffffffffffffffffffffffffffffffffffff1673ffffffffffffffffffffffffffffffffffffffff1673ffffffffffffffffffffffffffffffffffffffff1681526020016001820160009054906101000a900473ffffffffffffffffffffffffffffffffffffffff1673ffffffffffffffffffffffffffffffffffffffff1673ffffffffffffffffffffffffffffffffffffffff1681526020016002820160009054906101000a900473ffffffffffffffffffffffffffffffffffffffff1673ffffffffffffffffffffffffffffffffffffffff1673ffffffffffffffffffffffffffffffffffffffff16815260200160038201548152602001600482015481526020016005820154815260200160068201548152602001600782015481525050905061058e8261132a565b6105cd576040517f08c379a00000000000000000000000000000000000000000000000000000000081526004016105c490611a3d565b60405180910390fd5b60006002600084815260200190815260200160002060008360e00151815260200190815260200160002060405180606001604052908160008201548152602001600182015481526020016002820160009054906101000a900473ffffffffffffffffffffffffffffffffffffffff1673ffffffffffffffffffffffffffffffffffffffff1673ffffffffffffffffffffffffffffffffffffffff168152505090503373ffffffffffffffffffffffffffffffffffffffff16816040015173ffffffffffffffffffffffffffffffffffffffff16146106e0576040517f08c379a00000000000000000000000000000000000000000000000000000000081526004016106d790611aa9565b60405180910390fd5b6000826040015190508073ffffffffffffffffffffffffffffffffffffffff166342842e0e303386606001516040518463ffffffff1660e01b815260040161072a93929190611ac9565b600060405180830381600087803b15801561074457600080fd5b505af1158015610758573d6000803e3d6000fd5b5050505050505050565b61076b8261134d565b6107aa576040517f08c379a00000000000000000000000000000000000000000000000000000000081526004016107a190611b4c565b60405180910390fd5b6107b38261132a565b156107f3576040517f08c379a00000000000000000000000000000000000000000000000000000000081526004016107ea90611bb8565b60405180910390fd5b600060016000848152602001908152602001600020604051806101000160405290816000820160009054906101000a900473ffffffffffffffffffffffffffffffffffffffff1673ffffffffffffffffffffffffffffffffffffffff1673ffffffffffffffffffffffffffffffffffffffff1681526020016001820160009054906101000a900473ffffffffffffffffffffffffffffffffffffffff1673ffffffffffffffffffffffffffffffffffffffff1673ffffffffffffffffffffffffffffffffffffffff1681526020016002820160009054906101000a900473ffffffffffffffffffffffffffffffffffffffff1673ffffffffffffffffffffffffffffffffffffffff1673ffffffffffffffffffffffffffffffffffffffff168152602001600382015481526020016004820154815260200160058201548152602001600682015481526020016007820154815250509050600060018260e0015161095d9190611c07565b9050808260e001818152505060006109748561136f565b90508084116109b8576040517f08c379a00000000000000000000000000000000000000000000000000000000081526004016109af90611c87565b60405180910390fd5b826020015173ffffffffffffffffffffffffffffffffffffffff166323b872dd3360026000898152602001908152602001600020600086815260200190815260200160002060020160009054906101000a900473ffffffffffffffffffffffffffffffffffffffff16846040518463ffffffff1660e01b8152600401610a4093929190611ac9565b6020604051808303816000875af1158015610a5f573d6000803e3d6000fd5b505050506040513d601f19601f82011682018060405250810190610a839190611cdf565b50826020015173ffffffffffffffffffffffffffffffffffffffff166323b872dd3385600001518488610ab69190611d0c565b6040518463ffffffff1660e01b8152600401610ad493929190611ac9565b6020604051808303816000875af1158015610af3573d6000803e3d6000fd5b505050506040513d601f19601f82011682018060405250810190610b179190611cdf565b5060405180606001604052804281526020018581526020013373ffffffffffffffffffffffffffffffffffffffff16815250600260008781526020019081526020016000206000848152602001908152602001600020600082015181600001556020820151816001015560408201518160020160006101000a81548173ffffffffffffffffffffffffffffffffffffffff021916908373ffffffffffffffffffffffffffffffffffffffff1602179055509050505050505050565b803373ffffffffffffffffffffffffffffffffffffffff166001600083815260200190815260200160002060000160009054906101000a900473ffffffffffffffffffffffffffffffffffffffff1673ffffffffffffffffffffffffffffffffffffffff1614610c77576040517f08c379a0000000000000000000000000000000000000000000000000000000008152600401610c6e90611965565b60405180910390fd5b600060016000848152602001908152602001600020604051806101000160405290816000820160009054906101000a900473ffffffffffffffffffffffffffffffffffffffff1673ffffffffffffffffffffffffffffffffffffffff1673ffffffffffffffffffffffffffffffffffffffff1681526020016001820160009054906101000a900473ffffffffffffffffffffffffffffffffffffffff1673ffffffffffffffffffffffffffffffffffffffff1673ffffffffffffffffffffffffffffffffffffffff1681526020016002820160009054906101000a900473ffffffffffffffffffffffffffffffffffffffff1673ffffffffffffffffffffffffffffffffffffffff1673ffffffffffffffffffffffffffffffffffffffff16815260200160038201548152602001600482015481526020016005820154815260200160068201548152602001600782015481525050905060006002600085815260200190815260200160002060008360e00151815260200190815260200160002060405180606001604052908160008201548152602001600182015481526020016002820160009054906101000a900473ffffffffffffffffffffffffffffffffffffffff1673ffffffffffffffffffffffffffffffffffffffff1673ffffffffffffffffffffffffffffffffffffffff16815250509050816020015173ffffffffffffffffffffffffffffffffffffffff166323b872dd338360400151610e9e8861136f565b6040518463ffffffff1660e01b8152600401610ebc93929190611ac9565b6020604051808303816000875af1158015610edb573d6000803e3d6000fd5b505050506040513d601f19601f82011682018060405250810190610eff9190611cdf565b506000826040015190508073ffffffffffffffffffffffffffffffffffffffff166342842e0e303386606001516040518463ffffffff1660e01b8152600401610f4a93929190611ac9565b600060405180830381600087803b158015610f6457600080fd5b505af1158015610f78573d6000803e3d6000fd5b505050505050505050565b6002602052816000526040600020602052806000526040600020600091509150508060000154908060010154908060020160009054906101000a900473ffffffffffffffffffffffffffffffffffffffff16905083565b60016020528060005260406000206000915090508060000160009054906101000a900473ffffffffffffffffffffffffffffffffffffffff16908060010160009054906101000a900473ffffffffffffffffffffffffffffffffffffffff16908060020160009054906101000a900473ffffffffffffffffffffffffffffffffffffffff16908060030154908060040154908060050154908060060154908060070154905088565b428310156110c5576040517f08c379a00000000000000000000000000000000000000000000000000000000081526004016110bc90611d8c565b60405180910390fd5b828211611107576040517f08c379a00000000000000000000000000000000000000000000000000000000081526004016110fe90611df8565b60405180910390fd5b6040518061010001604052803373ffffffffffffffffffffffffffffffffffffffff1681526020018773ffffffffffffffffffffffffffffffffffffffff1681526020018673ffffffffffffffffffffffffffffffffffffffff1681526020018581526020018481526020018381526020018281526020016000815250600160008054815260200190815260200160002060008201518160000160006101000a81548173ffffffffffffffffffffffffffffffffffffffff021916908373ffffffffffffffffffffffffffffffffffffffff16021790555060208201518160010160006101000a81548173ffffffffffffffffffffffffffffffffffffffff021916908373ffffffffffffffffffffffffffffffffffffffff16021790555060408201518160020160006101000a81548173ffffffffffffffffffffffffffffffffffffffff021916908373ffffffffffffffffffffffffffffffffffffffff160217905550606082015181600301556080820151816004015560a0820151816005015560c0820151816006015560e082015181600701559050504260026000805481526020019081526020016000206000808152602001908152602001600020600001819055506000547fef8b2952c43462575e82711d0cc91169720a4589a9fa533d173e022437f5405e8686604051611303929190611e18565b60405180910390a260008081548092919061131d90611e41565b9190505550505050505050565b600042600160008481526020019081526020016000206005015411159050919050565b6000426001600084815260200190815260200160002060040154109050919050565b60008060016000848152602001908152602001600020604051806101000160405290816000820160009054906101000a900473ffffffffffffffffffffffffffffffffffffffff1673ffffffffffffffffffffffffffffffffffffffff1673ffffffffffffffffffffffffffffffffffffffff1681526020016001820160009054906101000a900473ffffffffffffffffffffffffffffffffffffffff1673ffffffffffffffffffffffffffffffffffffffff1673ffffffffffffffffffffffffffffffffffffffff1681526020016002820160009054906101000a900473ffffffffffffffffffffffffffffffffffffffff1673ffffffffffffffffffffffffffffffffffffffff1673ffffffffffffffffffffffffffffffffffffffff16815260200160038201548152602001600482015481526020016005820154815260200160068201548152602001600782015481525050905060006002600085815260200190815260200160002060008360e00151815260200190815260200160002060405180606001604052908160008201548152602001600182015481526020016002820160009054906101000a900473ffffffffffffffffffffffffffffffffffffffff1673ffffffffffffffffffffffffffffffffffffffff1673ffffffffffffffffffffffffffffffffffffffff1681525050905060006115738561132a565b15611593578260a00151826000015161158c9190611d0c565b90506115a6565b4282600001516115a39190611d0c565b90505b6301e1338081670de0b6b3a76400008560c0015185602001516115c99190611e89565b6115d39190611f12565b6115dd9190611e89565b6115e79190611f12565b82602001516115f69190611c07565b9350505050919050565b604051806101000160405280600073ffffffffffffffffffffffffffffffffffffffff168152602001600073ffffffffffffffffffffffffffffffffffffffff168152602001600073ffffffffffffffffffffffffffffffffffffffff16815260200160008152602001600081526020016000815260200160008152602001600081525090565b6000819050919050565b61169a81611687565b82525050565b60006020820190506116b56000830184611691565b92915050565b600080fd5b6116c981611687565b81146116d457600080fd5b50565b6000813590506116e6816116c0565b92915050565b600060208284031215611702576117016116bb565b5b6000611710848285016116d7565b91505092915050565b600080604083850312156117305761172f6116bb565b5b600061173e858286016116d7565b925050602061174f858286016116d7565b9150509250929050565b600073ffffffffffffffffffffffffffffffffffffffff82169050919050565b600061178482611759565b9050919050565b61179481611779565b82525050565b60006060820190506117af6000830186611691565b6117bc6020830185611691565b6117c9604083018461178b565b949350505050565b6000610100820190506117e7600083018b61178b565b6117f4602083018a61178b565b611801604083018961178b565b61180e6060830188611691565b61181b6080830187611691565b61182860a0830186611691565b61183560c0830185611691565b61184260e0830184611691565b9998505050505050505050565b61185881611779565b811461186357600080fd5b50565b6000813590506118758161184f565b92915050565b60008060008060008060c08789031215611898576118976116bb565b5b60006118a689828a01611866565b96505060206118b789828a01611866565b95505060406118c889828a016116d7565b94505060606118d989828a016116d7565b93505060806118ea89828a016116d7565b92505060a06118fb89828a016116d7565b9150509295509295509295565b600082825260208201905092915050565b7f4c414e3a206e6f74206f776e6572000000000000000000000000000000000000600082015250565b600061194f600e83611908565b915061195a82611919565b602082019050919050565b6000602082019050818103600083015261197e81611942565b9050919050565b7f4c414e3a20616c72656164792073746172746564000000000000000000000000600082015250565b60006119bb601483611908565b91506119c682611985565b602082019050919050565b600060208201905081810360008301526119ea816119ae565b9050919050565b7f4c414e3a206c6f616e206e6f7420656e64656400000000000000000000000000600082015250565b6000611a27601383611908565b9150611a32826119f1565b602082019050919050565b60006020820190508181036000830152611a5681611a1a565b9050919050565b7f4c414e3a206e6f74206c61746573742062696464657200000000000000000000600082015250565b6000611a93601683611908565b9150611a9e82611a5d565b602082019050919050565b60006020820190508181036000830152611ac281611a86565b9050919050565b6000606082019050611ade600083018661178b565b611aeb602083018561178b565b611af86040830184611691565b949350505050565b7f4c414e3a206e6f74207374617274656400000000000000000000000000000000600082015250565b6000611b36601083611908565b9150611b4182611b00565b602082019050919050565b60006020820190508181036000830152611b6581611b29565b9050919050565b7f4c414e3a20616c726561647920656e6465640000000000000000000000000000600082015250565b6000611ba2601283611908565b9150611bad82611b6c565b602082019050919050565b60006020820190508181036000830152611bd181611b95565b9050919050565b7f4e487b7100000000000000000000000000000000000000000000000000000000600052601160045260246000fd5b6000611c1282611687565b9150611c1d83611687565b9250828201905080821115611c3557611c34611bd8565b5b92915050565b7f4c414e3a20626964206e6f742068696768657200000000000000000000000000600082015250565b6000611c71601383611908565b9150611c7c82611c3b565b602082019050919050565b60006020820190508181036000830152611ca081611c64565b9050919050565b60008115159050919050565b611cbc81611ca7565b8114611cc757600080fd5b50565b600081519050611cd981611cb3565b92915050565b600060208284031215611cf557611cf46116bb565b5b6000611d0384828501611cca565b91505092915050565b6000611d1782611687565b9150611d2283611687565b9250828203905081811115611d3a57611d39611bd8565b5b92915050565b7f4c414e3a2073746172742074696d6520696e2070617374000000000000000000600082015250565b6000611d76601783611908565b9150611d8182611d40565b602082019050919050565b60006020820190508181036000830152611da581611d69565b9050919050565b7f4c414e3a20737461727420616674657220656e64000000000000000000000000600082015250565b6000611de2601483611908565b9150611ded82611dac565b602082019050919050565b60006020820190508181036000830152611e1181611dd5565b9050919050565b6000604082019050611e2d600083018561178b565b611e3a6020830184611691565b9392505050565b6000611e4c82611687565b91507fffffffffffffffffffffffffffffffffffffffffffffffffffffffffffffffff8203611e7e57611e7d611bd8565b5b600182019050919050565b6000611e9482611687565b9150611e9f83611687565b9250817fffffffffffffffffffffffffffffffffffffffffffffffffffffffffffffffff0483118215151615611ed857611ed7611bd8565b5b828202905092915050565b7f4e487b7100000000000000000000000000000000000000000000000000000000600052601260045260246000fd5b6000611f1d82611687565b9150611f2883611687565b925082611f3857611f37611ee3565b5b82820490509291505056fea264697066735822122093f276c13f9dce8708850aa056eb68aa02e5d9627d575e21810b9fcded815b2464736f6c63430008100033",
					"opcodes": "PUSH1 0x80 PUSH1 0x40 MSTORE CALLVALUE DUP1 ISZERO PUSH2 0x10 JUMPI PUSH1 0x0 DUP1 REVERT JUMPDEST POP PUSH2 0x1F79 DUP1 PUSH2 0x20 PUSH1 0x0 CODECOPY PUSH1 0x0 RETURN INVALID PUSH1 0x80 PUSH1 0x40 MSTORE CALLVALUE DUP1 ISZERO PUSH2 0x10 JUMPI PUSH1 0x0 DUP1 REVERT JUMPDEST POP PUSH1 0x4 CALLDATASIZE LT PUSH2 0x88 JUMPI PUSH1 0x0 CALLDATALOAD PUSH1 0xE0 SHR DUP1 PUSH4 0x7870860B GT PUSH2 0x5B JUMPI DUP1 PUSH4 0x7870860B EQ PUSH2 0xFF JUMPI DUP1 PUSH4 0x7B3C4BAA EQ PUSH2 0x11B JUMPI DUP1 PUSH4 0xE1EC3C68 EQ PUSH2 0x14D JUMPI DUP1 PUSH4 0xE7E4DFCD EQ PUSH2 0x184 JUMPI PUSH2 0x88 JUMP JUMPDEST DUP1 PUSH4 0x6661ABD EQ PUSH2 0x8D JUMPI DUP1 PUSH4 0x40E58EE5 EQ PUSH2 0xAB JUMPI DUP1 PUSH4 0x415F1240 EQ PUSH2 0xC7 JUMPI DUP1 PUSH4 0x598647F8 EQ PUSH2 0xE3 JUMPI JUMPDEST PUSH1 0x0 DUP1 REVERT JUMPDEST PUSH2 0x95 PUSH2 0x1A0 JUMP JUMPDEST PUSH1 0x40 MLOAD PUSH2 0xA2 SWAP2 SWAP1 PUSH2 0x16A0 JUMP JUMPDEST PUSH1 0x40 MLOAD DUP1 SWAP2 SUB SWAP1 RETURN JUMPDEST PUSH2 0xC5 PUSH1 0x4 DUP1 CALLDATASIZE SUB DUP2 ADD SWAP1 PUSH2 0xC0 SWAP2 SWAP1 PUSH2 0x16EC JUMP JUMPDEST PUSH2 0x1A6 JUMP JUMPDEST STOP JUMPDEST PUSH2 0xE1 PUSH1 0x4 DUP1 CALLDATASIZE SUB DUP2 ADD SWAP1 PUSH2 0xDC SWAP2 SWAP1 PUSH2 0x16EC JUMP JUMPDEST PUSH2 0x42E JUMP JUMPDEST STOP JUMPDEST PUSH2 0xFD PUSH1 0x4 DUP1 CALLDATASIZE SUB DUP2 ADD SWAP1 PUSH2 0xF8 SWAP2 SWAP1 PUSH2 0x1719 JUMP JUMPDEST PUSH2 0x762 JUMP JUMPDEST STOP JUMPDEST PUSH2 0x119 PUSH1 0x4 DUP1 CALLDATASIZE SUB DUP2 ADD SWAP1 PUSH2 0x114 SWAP2 SWAP1 PUSH2 0x16EC JUMP JUMPDEST PUSH2 0xBD2 JUMP JUMPDEST STOP JUMPDEST PUSH2 0x135 PUSH1 0x4 DUP1 CALLDATASIZE SUB DUP2 ADD SWAP1 PUSH2 0x130 SWAP2 SWAP1 PUSH2 0x1719 JUMP JUMPDEST PUSH2 0xF83 JUMP JUMPDEST PUSH1 0x40 MLOAD PUSH2 0x144 SWAP4 SWAP3 SWAP2 SWAP1 PUSH2 0x179A JUMP JUMPDEST PUSH1 0x40 MLOAD DUP1 SWAP2 SUB SWAP1 RETURN JUMPDEST PUSH2 0x167 PUSH1 0x4 DUP1 CALLDATASIZE SUB DUP2 ADD SWAP1 PUSH2 0x162 SWAP2 SWAP1 PUSH2 0x16EC JUMP JUMPDEST PUSH2 0xFDA JUMP JUMPDEST PUSH1 0x40 MLOAD PUSH2 0x17B SWAP9 SWAP8 SWAP7 SWAP6 SWAP5 SWAP4 SWAP3 SWAP2 SWAP1 PUSH2 0x17D1 JUMP JUMPDEST PUSH1 0x40 MLOAD DUP1 SWAP2 SUB SWAP1 RETURN JUMPDEST PUSH2 0x19E PUSH1 0x4 DUP1 CALLDATASIZE SUB DUP2 ADD SWAP1 PUSH2 0x199 SWAP2 SWAP1 PUSH2 0x187B JUMP JUMPDEST PUSH2 0x1082 JUMP JUMPDEST STOP JUMPDEST PUSH1 0x0 SLOAD DUP2 JUMP JUMPDEST DUP1 CALLER PUSH20 0xFFFFFFFFFFFFFFFFFFFFFFFFFFFFFFFFFFFFFFFF AND PUSH1 0x1 PUSH1 0x0 DUP4 DUP2 MSTORE PUSH1 0x20 ADD SWAP1 DUP2 MSTORE PUSH1 0x20 ADD PUSH1 0x0 KECCAK256 PUSH1 0x0 ADD PUSH1 0x0 SWAP1 SLOAD SWAP1 PUSH2 0x100 EXP SWAP1 DIV PUSH20 0xFFFFFFFFFFFFFFFFFFFFFFFFFFFFFFFFFFFFFFFF AND PUSH20 0xFFFFFFFFFFFFFFFFFFFFFFFFFFFFFFFFFFFFFFFF AND EQ PUSH2 0x24B JUMPI PUSH1 0x40 MLOAD PUSH32 0x8C379A000000000000000000000000000000000000000000000000000000000 DUP2 MSTORE PUSH1 0x4 ADD PUSH2 0x242 SWAP1 PUSH2 0x1965 JUMP JUMPDEST PUSH1 0x40 MLOAD DUP1 SWAP2 SUB SWAP1 REVERT JUMPDEST PUSH1 0x0 PUSH1 0x1 PUSH1 0x0 DUP5 DUP2 MSTORE PUSH1 0x20 ADD SWAP1 DUP2 MSTORE PUSH1 0x20 ADD PUSH1 0x0 KECCAK256 PUSH1 0x40 MLOAD DUP1 PUSH2 0x100 ADD PUSH1 0x40 MSTORE SWAP1 DUP2 PUSH1 0x0 DUP3 ADD PUSH1 0x0 SWAP1 SLOAD SWAP1 PUSH2 0x100 EXP SWAP1 DIV PUSH20 0xFFFFFFFFFFFFFFFFFFFFFFFFFFFFFFFFFFFFFFFF AND PUSH20 0xFFFFFFFFFFFFFFFFFFFFFFFFFFFFFFFFFFFFFFFF AND PUSH20 0xFFFFFFFFFFFFFFFFFFFFFFFFFFFFFFFFFFFFFFFF AND DUP2 MSTORE PUSH1 0x20 ADD PUSH1 0x1 DUP3 ADD PUSH1 0x0 SWAP1 SLOAD SWAP1 PUSH2 0x100 EXP SWAP1 DIV PUSH20 0xFFFFFFFFFFFFFFFFFFFFFFFFFFFFFFFFFFFFFFFF AND PUSH20 0xFFFFFFFFFFFFFFFFFFFFFFFFFFFFFFFFFFFFFFFF AND PUSH20 0xFFFFFFFFFFFFFFFFFFFFFFFFFFFFFFFFFFFFFFFF AND DUP2 MSTORE PUSH1 0x20 ADD PUSH1 0x2 DUP3 ADD PUSH1 0x0 SWAP1 SLOAD SWAP1 PUSH2 0x100 EXP SWAP1 DIV PUSH20 0xFFFFFFFFFFFFFFFFFFFFFFFFFFFFFFFFFFFFFFFF AND PUSH20 0xFFFFFFFFFFFFFFFFFFFFFFFFFFFFFFFFFFFFFFFF AND PUSH20 0xFFFFFFFFFFFFFFFFFFFFFFFFFFFFFFFFFFFFFFFF AND DUP2 MSTORE PUSH1 0x20 ADD PUSH1 0x3 DUP3 ADD SLOAD DUP2 MSTORE PUSH1 0x20 ADD PUSH1 0x4 DUP3 ADD SLOAD DUP2 MSTORE PUSH1 0x20 ADD PUSH1 0x5 DUP3 ADD SLOAD DUP2 MSTORE PUSH1 0x20 ADD PUSH1 0x6 DUP3 ADD SLOAD DUP2 MSTORE PUSH1 0x20 ADD PUSH1 0x7 DUP3 ADD SLOAD DUP2 MSTORE POP POP SWAP1 POP TIMESTAMP DUP2 PUSH1 0x80 ADD MLOAD GT PUSH2 0x3E8 JUMPI PUSH1 0x40 MLOAD PUSH32 0x8C379A000000000000000000000000000000000000000000000000000000000 DUP2 MSTORE PUSH1 0x4 ADD PUSH2 0x3DF SWAP1 PUSH2 0x19D1 JUMP JUMPDEST PUSH1 0x40 MLOAD DUP1 SWAP2 SUB SWAP1 REVERT JUMPDEST PUSH2 0x3F0 PUSH2 0x1600 JUMP JUMPDEST SWAP1 POP PUSH32 0xFE785EF891129B084B1C5A30E4D88EB97C97822C024CC25D5F9D806B897512E0 DUP4 PUSH1 0x40 MLOAD PUSH2 0x421 SWAP2 SWAP1 PUSH2 0x16A0 JUMP JUMPDEST PUSH1 0x40 MLOAD DUP1 SWAP2 SUB SWAP1 LOG1 POP POP POP JUMP JUMPDEST PUSH1 0x0 PUSH1 0x1 PUSH1 0x0 DUP4 DUP2 MSTORE PUSH1 0x20 ADD SWAP1 DUP2 MSTORE PUSH1 0x20 ADD PUSH1 0x0 KECCAK256 PUSH1 0x40 MLOAD DUP1 PUSH2 0x100 ADD PUSH1 0x40 MSTORE SWAP1 DUP2 PUSH1 0x0 DUP3 ADD PUSH1 0x0 SWAP1 SLOAD SWAP1 PUSH2 0x100 EXP SWAP1 DIV PUSH20 0xFFFFFFFFFFFFFFFFFFFFFFFFFFFFFFFFFFFFFFFF AND PUSH20 0xFFFFFFFFFFFFFFFFFFFFFFFFFFFFFFFFFFFFFFFF AND PUSH20 0xFFFFFFFFFFFFFFFFFFFFFFFFFFFFFFFFFFFFFFFF AND DUP2 MSTORE PUSH1 0x20 ADD PUSH1 0x1 DUP3 ADD PUSH1 0x0 SWAP1 SLOAD SWAP1 PUSH2 0x100 EXP SWAP1 DIV PUSH20 0xFFFFFFFFFFFFFFFFFFFFFFFFFFFFFFFFFFFFFFFF AND PUSH20 0xFFFFFFFFFFFFFFFFFFFFFFFFFFFFFFFFFFFFFFFF AND PUSH20 0xFFFFFFFFFFFFFFFFFFFFFFFFFFFFFFFFFFFFFFFF AND DUP2 MSTORE PUSH1 0x20 ADD PUSH1 0x2 DUP3 ADD PUSH1 0x0 SWAP1 SLOAD SWAP1 PUSH2 0x100 EXP SWAP1 DIV PUSH20 0xFFFFFFFFFFFFFFFFFFFFFFFFFFFFFFFFFFFFFFFF AND PUSH20 0xFFFFFFFFFFFFFFFFFFFFFFFFFFFFFFFFFFFFFFFF AND PUSH20 0xFFFFFFFFFFFFFFFFFFFFFFFFFFFFFFFFFFFFFFFF AND DUP2 MSTORE PUSH1 0x20 ADD PUSH1 0x3 DUP3 ADD SLOAD DUP2 MSTORE PUSH1 0x20 ADD PUSH1 0x4 DUP3 ADD SLOAD DUP2 MSTORE PUSH1 0x20 ADD PUSH1 0x5 DUP3 ADD SLOAD DUP2 MSTORE PUSH1 0x20 ADD PUSH1 0x6 DUP3 ADD SLOAD DUP2 MSTORE PUSH1 0x20 ADD PUSH1 0x7 DUP3 ADD SLOAD DUP2 MSTORE POP POP SWAP1 POP PUSH2 0x58E DUP3 PUSH2 0x132A JUMP JUMPDEST PUSH2 0x5CD JUMPI PUSH1 0x40 MLOAD PUSH32 0x8C379A000000000000000000000000000000000000000000000000000000000 DUP2 MSTORE PUSH1 0x4 ADD PUSH2 0x5C4 SWAP1 PUSH2 0x1A3D JUMP JUMPDEST PUSH1 0x40 MLOAD DUP1 SWAP2 SUB SWAP1 REVERT JUMPDEST PUSH1 0x0 PUSH1 0x2 PUSH1 0x0 DUP5 DUP2 MSTORE PUSH1 0x20 ADD SWAP1 DUP2 MSTORE PUSH1 0x20 ADD PUSH1 0x0 KECCAK256 PUSH1 0x0 DUP4 PUSH1 0xE0 ADD MLOAD DUP2 MSTORE PUSH1 0x20 ADD SWAP1 DUP2 MSTORE PUSH1 0x20 ADD PUSH1 0x0 KECCAK256 PUSH1 0x40 MLOAD DUP1 PUSH1 0x60 ADD PUSH1 0x40 MSTORE SWAP1 DUP2 PUSH1 0x0 DUP3 ADD SLOAD DUP2 MSTORE PUSH1 0x20 ADD PUSH1 0x1 DUP3 ADD SLOAD DUP2 MSTORE PUSH1 0x20 ADD PUSH1 0x2 DUP3 ADD PUSH1 0x0 SWAP1 SLOAD SWAP1 PUSH2 0x100 EXP SWAP1 DIV PUSH20 0xFFFFFFFFFFFFFFFFFFFFFFFFFFFFFFFFFFFFFFFF AND PUSH20 0xFFFFFFFFFFFFFFFFFFFFFFFFFFFFFFFFFFFFFFFF AND PUSH20 0xFFFFFFFFFFFFFFFFFFFFFFFFFFFFFFFFFFFFFFFF AND DUP2 MSTORE POP POP SWAP1 POP CALLER PUSH20 0xFFFFFFFFFFFFFFFFFFFFFFFFFFFFFFFFFFFFFFFF AND DUP2 PUSH1 0x40 ADD MLOAD PUSH20 0xFFFFFFFFFFFFFFFFFFFFFFFFFFFFFFFFFFFFFFFF AND EQ PUSH2 0x6E0 JUMPI PUSH1 0x40 MLOAD PUSH32 0x8C379A000000000000000000000000000000000000000000000000000000000 DUP2 MSTORE PUSH1 0x4 ADD PUSH2 0x6D7 SWAP1 PUSH2 0x1AA9 JUMP JUMPDEST PUSH1 0x40 MLOAD DUP1 SWAP2 SUB SWAP1 REVERT JUMPDEST PUSH1 0x0 DUP3 PUSH1 0x40 ADD MLOAD SWAP1 POP DUP1 PUSH20 0xFFFFFFFFFFFFFFFFFFFFFFFFFFFFFFFFFFFFFFFF AND PUSH4 0x42842E0E ADDRESS CALLER DUP7 PUSH1 0x60 ADD MLOAD PUSH1 0x40 MLOAD DUP5 PUSH4 0xFFFFFFFF AND PUSH1 0xE0 SHL DUP2 MSTORE PUSH1 0x4 ADD PUSH2 0x72A SWAP4 SWAP3 SWAP2 SWAP1 PUSH2 0x1AC9 JUMP JUMPDEST PUSH1 0x0 PUSH1 0x40 MLOAD DUP1 DUP4 SUB DUP2 PUSH1 0x0 DUP8 DUP1 EXTCODESIZE ISZERO DUP1 ISZERO PUSH2 0x744 JUMPI PUSH1 0x0 DUP1 REVERT JUMPDEST POP GAS CALL ISZERO DUP1 ISZERO PUSH2 0x758 JUMPI RETURNDATASIZE PUSH1 0x0 DUP1 RETURNDATACOPY RETURNDATASIZE PUSH1 0x0 REVERT JUMPDEST POP POP POP POP POP POP POP POP JUMP JUMPDEST PUSH2 0x76B DUP3 PUSH2 0x134D JUMP JUMPDEST PUSH2 0x7AA JUMPI PUSH1 0x40 MLOAD PUSH32 0x8C379A000000000000000000000000000000000000000000000000000000000 DUP2 MSTORE PUSH1 0x4 ADD PUSH2 0x7A1 SWAP1 PUSH2 0x1B4C JUMP JUMPDEST PUSH1 0x40 MLOAD DUP1 SWAP2 SUB SWAP1 REVERT JUMPDEST PUSH2 0x7B3 DUP3 PUSH2 0x132A JUMP JUMPDEST ISZERO PUSH2 0x7F3 JUMPI PUSH1 0x40 MLOAD PUSH32 0x8C379A000000000000000000000000000000000000000000000000000000000 DUP2 MSTORE PUSH1 0x4 ADD PUSH2 0x7EA SWAP1 PUSH2 0x1BB8 JUMP JUMPDEST PUSH1 0x40 MLOAD DUP1 SWAP2 SUB SWAP1 REVERT JUMPDEST PUSH1 0x0 PUSH1 0x1 PUSH1 0x0 DUP5 DUP2 MSTORE PUSH1 0x20 ADD SWAP1 DUP2 MSTORE PUSH1 0x20 ADD PUSH1 0x0 KECCAK256 PUSH1 0x40 MLOAD DUP1 PUSH2 0x100 ADD PUSH1 0x40 MSTORE SWAP1 DUP2 PUSH1 0x0 DUP3 ADD PUSH1 0x0 SWAP1 SLOAD SWAP1 PUSH2 0x100 EXP SWAP1 DIV PUSH20 0xFFFFFFFFFFFFFFFFFFFFFFFFFFFFFFFFFFFFFFFF AND PUSH20 0xFFFFFFFFFFFFFFFFFFFFFFFFFFFFFFFFFFFFFFFF AND PUSH20 0xFFFFFFFFFFFFFFFFFFFFFFFFFFFFFFFFFFFFFFFF AND DUP2 MSTORE PUSH1 0x20 ADD PUSH1 0x1 DUP3 ADD PUSH1 0x0 SWAP1 SLOAD SWAP1 PUSH2 0x100 EXP SWAP1 DIV PUSH20 0xFFFFFFFFFFFFFFFFFFFFFFFFFFFFFFFFFFFFFFFF AND PUSH20 0xFFFFFFFFFFFFFFFFFFFFFFFFFFFFFFFFFFFFFFFF AND PUSH20 0xFFFFFFFFFFFFFFFFFFFFFFFFFFFFFFFFFFFFFFFF AND DUP2 MSTORE PUSH1 0x20 ADD PUSH1 0x2 DUP3 ADD PUSH1 0x0 SWAP1 SLOAD SWAP1 PUSH2 0x100 EXP SWAP1 DIV PUSH20 0xFFFFFFFFFFFFFFFFFFFFFFFFFFFFFFFFFFFFFFFF AND PUSH20 0xFFFFFFFFFFFFFFFFFFFFFFFFFFFFFFFFFFFFFFFF AND PUSH20 0xFFFFFFFFFFFFFFFFFFFFFFFFFFFFFFFFFFFFFFFF AND DUP2 MSTORE PUSH1 0x20 ADD PUSH1 0x3 DUP3 ADD SLOAD DUP2 MSTORE PUSH1 0x20 ADD PUSH1 0x4 DUP3 ADD SLOAD DUP2 MSTORE PUSH1 0x20 ADD PUSH1 0x5 DUP3 ADD SLOAD DUP2 MSTORE PUSH1 0x20 ADD PUSH1 0x6 DUP3 ADD SLOAD DUP2 MSTORE PUSH1 0x20 ADD PUSH1 0x7 DUP3 ADD SLOAD DUP2 MSTORE POP POP SWAP1 POP PUSH1 0x0 PUSH1 0x1 DUP3 PUSH1 0xE0 ADD MLOAD PUSH2 0x95D SWAP2 SWAP1 PUSH2 0x1C07 JUMP JUMPDEST SWAP1 POP DUP1 DUP3 PUSH1 0xE0 ADD DUP2 DUP2 MSTORE POP POP PUSH1 0x0 PUSH2 0x974 DUP6 PUSH2 0x136F JUMP JUMPDEST SWAP1 POP DUP1 DUP5 GT PUSH2 0x9B8 JUMPI PUSH1 0x40 MLOAD PUSH32 0x8C379A000000000000000000000000000000000000000000000000000000000 DUP2 MSTORE PUSH1 0x4 ADD PUSH2 0x9AF SWAP1 PUSH2 0x1C87 JUMP JUMPDEST PUSH1 0x40 MLOAD DUP1 SWAP2 SUB SWAP1 REVERT JUMPDEST DUP3 PUSH1 0x20 ADD MLOAD PUSH20 0xFFFFFFFFFFFFFFFFFFFFFFFFFFFFFFFFFFFFFFFF AND PUSH4 0x23B872DD CALLER PUSH1 0x2 PUSH1 0x0 DUP10 DUP2 MSTORE PUSH1 0x20 ADD SWAP1 DUP2 MSTORE PUSH1 0x20 ADD PUSH1 0x0 KECCAK256 PUSH1 0x0 DUP7 DUP2 MSTORE PUSH1 0x20 ADD SWAP1 DUP2 MSTORE PUSH1 0x20 ADD PUSH1 0x0 KECCAK256 PUSH1 0x2 ADD PUSH1 0x0 SWAP1 SLOAD SWAP1 PUSH2 0x100 EXP SWAP1 DIV PUSH20 0xFFFFFFFFFFFFFFFFFFFFFFFFFFFFFFFFFFFFFFFF AND DUP5 PUSH1 0x40 MLOAD DUP5 PUSH4 0xFFFFFFFF AND PUSH1 0xE0 SHL DUP2 MSTORE PUSH1 0x4 ADD PUSH2 0xA40 SWAP4 SWAP3 SWAP2 SWAP1 PUSH2 0x1AC9 JUMP JUMPDEST PUSH1 0x20 PUSH1 0x40 MLOAD DUP1 DUP4 SUB DUP2 PUSH1 0x0 DUP8 GAS CALL ISZERO DUP1 ISZERO PUSH2 0xA5F JUMPI RETURNDATASIZE PUSH1 0x0 DUP1 RETURNDATACOPY RETURNDATASIZE PUSH1 0x0 REVERT JUMPDEST POP POP POP POP PUSH1 0x40 MLOAD RETURNDATASIZE PUSH1 0x1F NOT PUSH1 0x1F DUP3 ADD AND DUP3 ADD DUP1 PUSH1 0x40 MSTORE POP DUP2 ADD SWAP1 PUSH2 0xA83 SWAP2 SWAP1 PUSH2 0x1CDF JUMP JUMPDEST POP DUP3 PUSH1 0x20 ADD MLOAD PUSH20 0xFFFFFFFFFFFFFFFFFFFFFFFFFFFFFFFFFFFFFFFF AND PUSH4 0x23B872DD CALLER DUP6 PUSH1 0x0 ADD MLOAD DUP5 DUP9 PUSH2 0xAB6 SWAP2 SWAP1 PUSH2 0x1D0C JUMP JUMPDEST PUSH1 0x40 MLOAD DUP5 PUSH4 0xFFFFFFFF AND PUSH1 0xE0 SHL DUP2 MSTORE PUSH1 0x4 ADD PUSH2 0xAD4 SWAP4 SWAP3 SWAP2 SWAP1 PUSH2 0x1AC9 JUMP JUMPDEST PUSH1 0x20 PUSH1 0x40 MLOAD DUP1 DUP4 SUB DUP2 PUSH1 0x0 DUP8 GAS CALL ISZERO DUP1 ISZERO PUSH2 0xAF3 JUMPI RETURNDATASIZE PUSH1 0x0 DUP1 RETURNDATACOPY RETURNDATASIZE PUSH1 0x0 REVERT JUMPDEST POP POP POP POP PUSH1 0x40 MLOAD RETURNDATASIZE PUSH1 0x1F NOT PUSH1 0x1F DUP3 ADD AND DUP3 ADD DUP1 PUSH1 0x40 MSTORE POP DUP2 ADD SWAP1 PUSH2 0xB17 SWAP2 SWAP1 PUSH2 0x1CDF JUMP JUMPDEST POP PUSH1 0x40 MLOAD DUP1 PUSH1 0x60 ADD PUSH1 0x40 MSTORE DUP1 TIMESTAMP DUP2 MSTORE PUSH1 0x20 ADD DUP6 DUP2 MSTORE PUSH1 0x20 ADD CALLER PUSH20 0xFFFFFFFFFFFFFFFFFFFFFFFFFFFFFFFFFFFFFFFF AND DUP2 MSTORE POP PUSH1 0x2 PUSH1 0x0 DUP8 DUP2 MSTORE PUSH1 0x20 ADD SWAP1 DUP2 MSTORE PUSH1 0x20 ADD PUSH1 0x0 KECCAK256 PUSH1 0x0 DUP5 DUP2 MSTORE PUSH1 0x20 ADD SWAP1 DUP2 MSTORE PUSH1 0x20 ADD PUSH1 0x0 KECCAK256 PUSH1 0x0 DUP3 ADD MLOAD DUP2 PUSH1 0x0 ADD SSTORE PUSH1 0x20 DUP3 ADD MLOAD DUP2 PUSH1 0x1 ADD SSTORE PUSH1 0x40 DUP3 ADD MLOAD DUP2 PUSH1 0x2 ADD PUSH1 0x0 PUSH2 0x100 EXP DUP2 SLOAD DUP2 PUSH20 0xFFFFFFFFFFFFFFFFFFFFFFFFFFFFFFFFFFFFFFFF MUL NOT AND SWAP1 DUP4 PUSH20 0xFFFFFFFFFFFFFFFFFFFFFFFFFFFFFFFFFFFFFFFF AND MUL OR SWAP1 SSTORE POP SWAP1 POP POP POP POP POP POP POP JUMP JUMPDEST DUP1 CALLER PUSH20 0xFFFFFFFFFFFFFFFFFFFFFFFFFFFFFFFFFFFFFFFF AND PUSH1 0x1 PUSH1 0x0 DUP4 DUP2 MSTORE PUSH1 0x20 ADD SWAP1 DUP2 MSTORE PUSH1 0x20 ADD PUSH1 0x0 KECCAK256 PUSH1 0x0 ADD PUSH1 0x0 SWAP1 SLOAD SWAP1 PUSH2 0x100 EXP SWAP1 DIV PUSH20 0xFFFFFFFFFFFFFFFFFFFFFFFFFFFFFFFFFFFFFFFF AND PUSH20 0xFFFFFFFFFFFFFFFFFFFFFFFFFFFFFFFFFFFFFFFF AND EQ PUSH2 0xC77 JUMPI PUSH1 0x40 MLOAD PUSH32 0x8C379A000000000000000000000000000000000000000000000000000000000 DUP2 MSTORE PUSH1 0x4 ADD PUSH2 0xC6E SWAP1 PUSH2 0x1965 JUMP JUMPDEST PUSH1 0x40 MLOAD DUP1 SWAP2 SUB SWAP1 REVERT JUMPDEST PUSH1 0x0 PUSH1 0x1 PUSH1 0x0 DUP5 DUP2 MSTORE PUSH1 0x20 ADD SWAP1 DUP2 MSTORE PUSH1 0x20 ADD PUSH1 0x0 KECCAK256 PUSH1 0x40 MLOAD DUP1 PUSH2 0x100 ADD PUSH1 0x40 MSTORE SWAP1 DUP2 PUSH1 0x0 DUP3 ADD PUSH1 0x0 SWAP1 SLOAD SWAP1 PUSH2 0x100 EXP SWAP1 DIV PUSH20 0xFFFFFFFFFFFFFFFFFFFFFFFFFFFFFFFFFFFFFFFF AND PUSH20 0xFFFFFFFFFFFFFFFFFFFFFFFFFFFFFFFFFFFFFFFF AND PUSH20 0xFFFFFFFFFFFFFFFFFFFFFFFFFFFFFFFFFFFFFFFF AND DUP2 MSTORE PUSH1 0x20 ADD PUSH1 0x1 DUP3 ADD PUSH1 0x0 SWAP1 SLOAD SWAP1 PUSH2 0x100 EXP SWAP1 DIV PUSH20 0xFFFFFFFFFFFFFFFFFFFFFFFFFFFFFFFFFFFFFFFF AND PUSH20 0xFFFFFFFFFFFFFFFFFFFFFFFFFFFFFFFFFFFFFFFF AND PUSH20 0xFFFFFFFFFFFFFFFFFFFFFFFFFFFFFFFFFFFFFFFF AND DUP2 MSTORE PUSH1 0x20 ADD PUSH1 0x2 DUP3 ADD PUSH1 0x0 SWAP1 SLOAD SWAP1 PUSH2 0x100 EXP SWAP1 DIV PUSH20 0xFFFFFFFFFFFFFFFFFFFFFFFFFFFFFFFFFFFFFFFF AND PUSH20 0xFFFFFFFFFFFFFFFFFFFFFFFFFFFFFFFFFFFFFFFF AND PUSH20 0xFFFFFFFFFFFFFFFFFFFFFFFFFFFFFFFFFFFFFFFF AND DUP2 MSTORE PUSH1 0x20 ADD PUSH1 0x3 DUP3 ADD SLOAD DUP2 MSTORE PUSH1 0x20 ADD PUSH1 0x4 DUP3 ADD SLOAD DUP2 MSTORE PUSH1 0x20 ADD PUSH1 0x5 DUP3 ADD SLOAD DUP2 MSTORE PUSH1 0x20 ADD PUSH1 0x6 DUP3 ADD SLOAD DUP2 MSTORE PUSH1 0x20 ADD PUSH1 0x7 DUP3 ADD SLOAD DUP2 MSTORE POP POP SWAP1 POP PUSH1 0x0 PUSH1 0x2 PUSH1 0x0 DUP6 DUP2 MSTORE PUSH1 0x20 ADD SWAP1 DUP2 MSTORE PUSH1 0x20 ADD PUSH1 0x0 KECCAK256 PUSH1 0x0 DUP4 PUSH1 0xE0 ADD MLOAD DUP2 MSTORE PUSH1 0x20 ADD SWAP1 DUP2 MSTORE PUSH1 0x20 ADD PUSH1 0x0 KECCAK256 PUSH1 0x40 MLOAD DUP1 PUSH1 0x60 ADD PUSH1 0x40 MSTORE SWAP1 DUP2 PUSH1 0x0 DUP3 ADD SLOAD DUP2 MSTORE PUSH1 0x20 ADD PUSH1 0x1 DUP3 ADD SLOAD DUP2 MSTORE PUSH1 0x20 ADD PUSH1 0x2 DUP3 ADD PUSH1 0x0 SWAP1 SLOAD SWAP1 PUSH2 0x100 EXP SWAP1 DIV PUSH20 0xFFFFFFFFFFFFFFFFFFFFFFFFFFFFFFFFFFFFFFFF AND PUSH20 0xFFFFFFFFFFFFFFFFFFFFFFFFFFFFFFFFFFFFFFFF AND PUSH20 0xFFFFFFFFFFFFFFFFFFFFFFFFFFFFFFFFFFFFFFFF AND DUP2 MSTORE POP POP SWAP1 POP DUP2 PUSH1 0x20 ADD MLOAD PUSH20 0xFFFFFFFFFFFFFFFFFFFFFFFFFFFFFFFFFFFFFFFF AND PUSH4 0x23B872DD CALLER DUP4 PUSH1 0x40 ADD MLOAD PUSH2 0xE9E DUP9 PUSH2 0x136F JUMP JUMPDEST PUSH1 0x40 MLOAD DUP5 PUSH4 0xFFFFFFFF AND PUSH1 0xE0 SHL DUP2 MSTORE PUSH1 0x4 ADD PUSH2 0xEBC SWAP4 SWAP3 SWAP2 SWAP1 PUSH2 0x1AC9 JUMP JUMPDEST PUSH1 0x20 PUSH1 0x40 MLOAD DUP1 DUP4 SUB DUP2 PUSH1 0x0 DUP8 GAS CALL ISZERO DUP1 ISZERO PUSH2 0xEDB JUMPI RETURNDATASIZE PUSH1 0x0 DUP1 RETURNDATACOPY RETURNDATASIZE PUSH1 0x0 REVERT JUMPDEST POP POP POP POP PUSH1 0x40 MLOAD RETURNDATASIZE PUSH1 0x1F NOT PUSH1 0x1F DUP3 ADD AND DUP3 ADD DUP1 PUSH1 0x40 MSTORE POP DUP2 ADD SWAP1 PUSH2 0xEFF SWAP2 SWAP1 PUSH2 0x1CDF JUMP JUMPDEST POP PUSH1 0x0 DUP3 PUSH1 0x40 ADD MLOAD SWAP1 POP DUP1 PUSH20 0xFFFFFFFFFFFFFFFFFFFFFFFFFFFFFFFFFFFFFFFF AND PUSH4 0x42842E0E ADDRESS CALLER DUP7 PUSH1 0x60 ADD MLOAD PUSH1 0x40 MLOAD DUP5 PUSH4 0xFFFFFFFF AND PUSH1 0xE0 SHL DUP2 MSTORE PUSH1 0x4 ADD PUSH2 0xF4A SWAP4 SWAP3 SWAP2 SWAP1 PUSH2 0x1AC9 JUMP JUMPDEST PUSH1 0x0 PUSH1 0x40 MLOAD DUP1 DUP4 SUB DUP2 PUSH1 0x0 DUP8 DUP1 EXTCODESIZE ISZERO DUP1 ISZERO PUSH2 0xF64 JUMPI PUSH1 0x0 DUP1 REVERT JUMPDEST POP GAS CALL ISZERO DUP1 ISZERO PUSH2 0xF78 JUMPI RETURNDATASIZE PUSH1 0x0 DUP1 RETURNDATACOPY RETURNDATASIZE PUSH1 0x0 REVERT JUMPDEST POP POP POP POP POP POP POP POP POP JUMP JUMPDEST PUSH1 0x2 PUSH1 0x20 MSTORE DUP2 PUSH1 0x0 MSTORE PUSH1 0x40 PUSH1 0x0 KECCAK256 PUSH1 0x20 MSTORE DUP1 PUSH1 0x0 MSTORE PUSH1 0x40 PUSH1 0x0 KECCAK256 PUSH1 0x0 SWAP2 POP SWAP2 POP POP DUP1 PUSH1 0x0 ADD SLOAD SWAP1 DUP1 PUSH1 0x1 ADD SLOAD SWAP1 DUP1 PUSH1 0x2 ADD PUSH1 0x0 SWAP1 SLOAD SWAP1 PUSH2 0x100 EXP SWAP1 DIV PUSH20 0xFFFFFFFFFFFFFFFFFFFFFFFFFFFFFFFFFFFFFFFF AND SWAP1 POP DUP4 JUMP JUMPDEST PUSH1 0x1 PUSH1 0x20 MSTORE DUP1 PUSH1 0x0 MSTORE PUSH1 0x40 PUSH1 0x0 KECCAK256 PUSH1 0x0 SWAP2 POP SWAP1 POP DUP1 PUSH1 0x0 ADD PUSH1 0x0 SWAP1 SLOAD SWAP1 PUSH2 0x100 EXP SWAP1 DIV PUSH20 0xFFFFFFFFFFFFFFFFFFFFFFFFFFFFFFFFFFFFFFFF AND SWAP1 DUP1 PUSH1 0x1 ADD PUSH1 0x0 SWAP1 SLOAD SWAP1 PUSH2 0x100 EXP SWAP1 DIV PUSH20 0xFFFFFFFFFFFFFFFFFFFFFFFFFFFFFFFFFFFFFFFF AND SWAP1 DUP1 PUSH1 0x2 ADD PUSH1 0x0 SWAP1 SLOAD SWAP1 PUSH2 0x100 EXP SWAP1 DIV PUSH20 0xFFFFFFFFFFFFFFFFFFFFFFFFFFFFFFFFFFFFFFFF AND SWAP1 DUP1 PUSH1 0x3 ADD SLOAD SWAP1 DUP1 PUSH1 0x4 ADD SLOAD SWAP1 DUP1 PUSH1 0x5 ADD SLOAD SWAP1 DUP1 PUSH1 0x6 ADD SLOAD SWAP1 DUP1 PUSH1 0x7 ADD SLOAD SWAP1 POP DUP9 JUMP JUMPDEST TIMESTAMP DUP4 LT ISZERO PUSH2 0x10C5 JUMPI PUSH1 0x40 MLOAD PUSH32 0x8C379A000000000000000000000000000000000000000000000000000000000 DUP2 MSTORE PUSH1 0x4 ADD PUSH2 0x10BC SWAP1 PUSH2 0x1D8C JUMP JUMPDEST PUSH1 0x40 MLOAD DUP1 SWAP2 SUB SWAP1 REVERT JUMPDEST DUP3 DUP3 GT PUSH2 0x1107 JUMPI PUSH1 0x40 MLOAD PUSH32 0x8C379A000000000000000000000000000000000000000000000000000000000 DUP2 MSTORE PUSH1 0x4 ADD PUSH2 0x10FE SWAP1 PUSH2 0x1DF8 JUMP JUMPDEST PUSH1 0x40 MLOAD DUP1 SWAP2 SUB SWAP1 REVERT JUMPDEST PUSH1 0x40 MLOAD DUP1 PUSH2 0x100 ADD PUSH1 0x40 MSTORE DUP1 CALLER PUSH20 0xFFFFFFFFFFFFFFFFFFFFFFFFFFFFFFFFFFFFFFFF AND DUP2 MSTORE PUSH1 0x20 ADD DUP8 PUSH20 0xFFFFFFFFFFFFFFFFFFFFFFFFFFFFFFFFFFFFFFFF AND DUP2 MSTORE PUSH1 0x20 ADD DUP7 PUSH20 0xFFFFFFFFFFFFFFFFFFFFFFFFFFFFFFFFFFFFFFFF AND DUP2 MSTORE PUSH1 0x20 ADD DUP6 DUP2 MSTORE PUSH1 0x20 ADD DUP5 DUP2 MSTORE PUSH1 0x20 ADD DUP4 DUP2 MSTORE PUSH1 0x20 ADD DUP3 DUP2 MSTORE PUSH1 0x20 ADD PUSH1 0x0 DUP2 MSTORE POP PUSH1 0x1 PUSH1 0x0 DUP1 SLOAD DUP2 MSTORE PUSH1 0x20 ADD SWAP1 DUP2 MSTORE PUSH1 0x20 ADD PUSH1 0x0 KECCAK256 PUSH1 0x0 DUP3 ADD MLOAD DUP2 PUSH1 0x0 ADD PUSH1 0x0 PUSH2 0x100 EXP DUP2 SLOAD DUP2 PUSH20 0xFFFFFFFFFFFFFFFFFFFFFFFFFFFFFFFFFFFFFFFF MUL NOT AND SWAP1 DUP4 PUSH20 0xFFFFFFFFFFFFFFFFFFFFFFFFFFFFFFFFFFFFFFFF AND MUL OR SWAP1 SSTORE POP PUSH1 0x20 DUP3 ADD MLOAD DUP2 PUSH1 0x1 ADD PUSH1 0x0 PUSH2 0x100 EXP DUP2 SLOAD DUP2 PUSH20 0xFFFFFFFFFFFFFFFFFFFFFFFFFFFFFFFFFFFFFFFF MUL NOT AND SWAP1 DUP4 PUSH20 0xFFFFFFFFFFFFFFFFFFFFFFFFFFFFFFFFFFFFFFFF AND MUL OR SWAP1 SSTORE POP PUSH1 0x40 DUP3 ADD MLOAD DUP2 PUSH1 0x2 ADD PUSH1 0x0 PUSH2 0x100 EXP DUP2 SLOAD DUP2 PUSH20 0xFFFFFFFFFFFFFFFFFFFFFFFFFFFFFFFFFFFFFFFF MUL NOT AND SWAP1 DUP4 PUSH20 0xFFFFFFFFFFFFFFFFFFFFFFFFFFFFFFFFFFFFFFFF AND MUL OR SWAP1 SSTORE POP PUSH1 0x60 DUP3 ADD MLOAD DUP2 PUSH1 0x3 ADD SSTORE PUSH1 0x80 DUP3 ADD MLOAD DUP2 PUSH1 0x4 ADD SSTORE PUSH1 0xA0 DUP3 ADD MLOAD DUP2 PUSH1 0x5 ADD SSTORE PUSH1 0xC0 DUP3 ADD MLOAD DUP2 PUSH1 0x6 ADD SSTORE PUSH1 0xE0 DUP3 ADD MLOAD DUP2 PUSH1 0x7 ADD SSTORE SWAP1 POP POP TIMESTAMP PUSH1 0x2 PUSH1 0x0 DUP1 SLOAD DUP2 MSTORE PUSH1 0x20 ADD SWAP1 DUP2 MSTORE PUSH1 0x20 ADD PUSH1 0x0 KECCAK256 PUSH1 0x0 DUP1 DUP2 MSTORE PUSH1 0x20 ADD SWAP1 DUP2 MSTORE PUSH1 0x20 ADD PUSH1 0x0 KECCAK256 PUSH1 0x0 ADD DUP2 SWAP1 SSTORE POP PUSH1 0x0 SLOAD PUSH32 0xEF8B2952C43462575E82711D0CC91169720A4589A9FA533D173E022437F5405E DUP7 DUP7 PUSH1 0x40 MLOAD PUSH2 0x1303 SWAP3 SWAP2 SWAP1 PUSH2 0x1E18 JUMP JUMPDEST PUSH1 0x40 MLOAD DUP1 SWAP2 SUB SWAP1 LOG2 PUSH1 0x0 DUP1 DUP2 SLOAD DUP1 SWAP3 SWAP2 SWAP1 PUSH2 0x131D SWAP1 PUSH2 0x1E41 JUMP JUMPDEST SWAP2 SWAP1 POP SSTORE POP POP POP POP POP POP POP JUMP JUMPDEST PUSH1 0x0 TIMESTAMP PUSH1 0x1 PUSH1 0x0 DUP5 DUP2 MSTORE PUSH1 0x20 ADD SWAP1 DUP2 MSTORE PUSH1 0x20 ADD PUSH1 0x0 KECCAK256 PUSH1 0x5 ADD SLOAD GT ISZERO SWAP1 POP SWAP2 SWAP1 POP JUMP JUMPDEST PUSH1 0x0 TIMESTAMP PUSH1 0x1 PUSH1 0x0 DUP5 DUP2 MSTORE PUSH1 0x20 ADD SWAP1 DUP2 MSTORE PUSH1 0x20 ADD PUSH1 0x0 KECCAK256 PUSH1 0x4 ADD SLOAD LT SWAP1 POP SWAP2 SWAP1 POP JUMP JUMPDEST PUSH1 0x0 DUP1 PUSH1 0x1 PUSH1 0x0 DUP5 DUP2 MSTORE PUSH1 0x20 ADD SWAP1 DUP2 MSTORE PUSH1 0x20 ADD PUSH1 0x0 KECCAK256 PUSH1 0x40 MLOAD DUP1 PUSH2 0x100 ADD PUSH1 0x40 MSTORE SWAP1 DUP2 PUSH1 0x0 DUP3 ADD PUSH1 0x0 SWAP1 SLOAD SWAP1 PUSH2 0x100 EXP SWAP1 DIV PUSH20 0xFFFFFFFFFFFFFFFFFFFFFFFFFFFFFFFFFFFFFFFF AND PUSH20 0xFFFFFFFFFFFFFFFFFFFFFFFFFFFFFFFFFFFFFFFF AND PUSH20 0xFFFFFFFFFFFFFFFFFFFFFFFFFFFFFFFFFFFFFFFF AND DUP2 MSTORE PUSH1 0x20 ADD PUSH1 0x1 DUP3 ADD PUSH1 0x0 SWAP1 SLOAD SWAP1 PUSH2 0x100 EXP SWAP1 DIV PUSH20 0xFFFFFFFFFFFFFFFFFFFFFFFFFFFFFFFFFFFFFFFF AND PUSH20 0xFFFFFFFFFFFFFFFFFFFFFFFFFFFFFFFFFFFFFFFF AND PUSH20 0xFFFFFFFFFFFFFFFFFFFFFFFFFFFFFFFFFFFFFFFF AND DUP2 MSTORE PUSH1 0x20 ADD PUSH1 0x2 DUP3 ADD PUSH1 0x0 SWAP1 SLOAD SWAP1 PUSH2 0x100 EXP SWAP1 DIV PUSH20 0xFFFFFFFFFFFFFFFFFFFFFFFFFFFFFFFFFFFFFFFF AND PUSH20 0xFFFFFFFFFFFFFFFFFFFFFFFFFFFFFFFFFFFFFFFF AND PUSH20 0xFFFFFFFFFFFFFFFFFFFFFFFFFFFFFFFFFFFFFFFF AND DUP2 MSTORE PUSH1 0x20 ADD PUSH1 0x3 DUP3 ADD SLOAD DUP2 MSTORE PUSH1 0x20 ADD PUSH1 0x4 DUP3 ADD SLOAD DUP2 MSTORE PUSH1 0x20 ADD PUSH1 0x5 DUP3 ADD SLOAD DUP2 MSTORE PUSH1 0x20 ADD PUSH1 0x6 DUP3 ADD SLOAD DUP2 MSTORE PUSH1 0x20 ADD PUSH1 0x7 DUP3 ADD SLOAD DUP2 MSTORE POP POP SWAP1 POP PUSH1 0x0 PUSH1 0x2 PUSH1 0x0 DUP6 DUP2 MSTORE PUSH1 0x20 ADD SWAP1 DUP2 MSTORE PUSH1 0x20 ADD PUSH1 0x0 KECCAK256 PUSH1 0x0 DUP4 PUSH1 0xE0 ADD MLOAD DUP2 MSTORE PUSH1 0x20 ADD SWAP1 DUP2 MSTORE PUSH1 0x20 ADD PUSH1 0x0 KECCAK256 PUSH1 0x40 MLOAD DUP1 PUSH1 0x60 ADD PUSH1 0x40 MSTORE SWAP1 DUP2 PUSH1 0x0 DUP3 ADD SLOAD DUP2 MSTORE PUSH1 0x20 ADD PUSH1 0x1 DUP3 ADD SLOAD DUP2 MSTORE PUSH1 0x20 ADD PUSH1 0x2 DUP3 ADD PUSH1 0x0 SWAP1 SLOAD SWAP1 PUSH2 0x100 EXP SWAP1 DIV PUSH20 0xFFFFFFFFFFFFFFFFFFFFFFFFFFFFFFFFFFFFFFFF AND PUSH20 0xFFFFFFFFFFFFFFFFFFFFFFFFFFFFFFFFFFFFFFFF AND PUSH20 0xFFFFFFFFFFFFFFFFFFFFFFFFFFFFFFFFFFFFFFFF AND DUP2 MSTORE POP POP SWAP1 POP PUSH1 0x0 PUSH2 0x1573 DUP6 PUSH2 0x132A JUMP JUMPDEST ISZERO PUSH2 0x1593 JUMPI DUP3 PUSH1 0xA0 ADD MLOAD DUP3 PUSH1 0x0 ADD MLOAD PUSH2 0x158C SWAP2 SWAP1 PUSH2 0x1D0C JUMP JUMPDEST SWAP1 POP PUSH2 0x15A6 JUMP JUMPDEST TIMESTAMP DUP3 PUSH1 0x0 ADD MLOAD PUSH2 0x15A3 SWAP2 SWAP1 PUSH2 0x1D0C JUMP JUMPDEST SWAP1 POP JUMPDEST PUSH4 0x1E13380 DUP2 PUSH8 0xDE0B6B3A7640000 DUP6 PUSH1 0xC0 ADD MLOAD DUP6 PUSH1 0x20 ADD MLOAD PUSH2 0x15C9 SWAP2 SWAP1 PUSH2 0x1E89 JUMP JUMPDEST PUSH2 0x15D3 SWAP2 SWAP1 PUSH2 0x1F12 JUMP JUMPDEST PUSH2 0x15DD SWAP2 SWAP1 PUSH2 0x1E89 JUMP JUMPDEST PUSH2 0x15E7 SWAP2 SWAP1 PUSH2 0x1F12 JUMP JUMPDEST DUP3 PUSH1 0x20 ADD MLOAD PUSH2 0x15F6 SWAP2 SWAP1 PUSH2 0x1C07 JUMP JUMPDEST SWAP4 POP POP POP POP SWAP2 SWAP1 POP JUMP JUMPDEST PUSH1 0x40 MLOAD DUP1 PUSH2 0x100 ADD PUSH1 0x40 MSTORE DUP1 PUSH1 0x0 PUSH20 0xFFFFFFFFFFFFFFFFFFFFFFFFFFFFFFFFFFFFFFFF AND DUP2 MSTORE PUSH1 0x20 ADD PUSH1 0x0 PUSH20 0xFFFFFFFFFFFFFFFFFFFFFFFFFFFFFFFFFFFFFFFF AND DUP2 MSTORE PUSH1 0x20 ADD PUSH1 0x0 PUSH20 0xFFFFFFFFFFFFFFFFFFFFFFFFFFFFFFFFFFFFFFFF AND DUP2 MSTORE PUSH1 0x20 ADD PUSH1 0x0 DUP2 MSTORE PUSH1 0x20 ADD PUSH1 0x0 DUP2 MSTORE PUSH1 0x20 ADD PUSH1 0x0 DUP2 MSTORE PUSH1 0x20 ADD PUSH1 0x0 DUP2 MSTORE PUSH1 0x20 ADD PUSH1 0x0 DUP2 MSTORE POP SWAP1 JUMP JUMPDEST PUSH1 0x0 DUP2 SWAP1 POP SWAP2 SWAP1 POP JUMP JUMPDEST PUSH2 0x169A DUP2 PUSH2 0x1687 JUMP JUMPDEST DUP3 MSTORE POP POP JUMP JUMPDEST PUSH1 0x0 PUSH1 0x20 DUP3 ADD SWAP1 POP PUSH2 0x16B5 PUSH1 0x0 DUP4 ADD DUP5 PUSH2 0x1691 JUMP JUMPDEST SWAP3 SWAP2 POP POP JUMP JUMPDEST PUSH1 0x0 DUP1 REVERT JUMPDEST PUSH2 0x16C9 DUP2 PUSH2 0x1687 JUMP JUMPDEST DUP2 EQ PUSH2 0x16D4 JUMPI PUSH1 0x0 DUP1 REVERT JUMPDEST POP JUMP JUMPDEST PUSH1 0x0 DUP2 CALLDATALOAD SWAP1 POP PUSH2 0x16E6 DUP2 PUSH2 0x16C0 JUMP JUMPDEST SWAP3 SWAP2 POP POP JUMP JUMPDEST PUSH1 0x0 PUSH1 0x20 DUP3 DUP5 SUB SLT ISZERO PUSH2 0x1702 JUMPI PUSH2 0x1701 PUSH2 0x16BB JUMP JUMPDEST JUMPDEST PUSH1 0x0 PUSH2 0x1710 DUP5 DUP3 DUP6 ADD PUSH2 0x16D7 JUMP JUMPDEST SWAP2 POP POP SWAP3 SWAP2 POP POP JUMP JUMPDEST PUSH1 0x0 DUP1 PUSH1 0x40 DUP4 DUP6 SUB SLT ISZERO PUSH2 0x1730 JUMPI PUSH2 0x172F PUSH2 0x16BB JUMP JUMPDEST JUMPDEST PUSH1 0x0 PUSH2 0x173E DUP6 DUP3 DUP7 ADD PUSH2 0x16D7 JUMP JUMPDEST SWAP3 POP POP PUSH1 0x20 PUSH2 0x174F DUP6 DUP3 DUP7 ADD PUSH2 0x16D7 JUMP JUMPDEST SWAP2 POP POP SWAP3 POP SWAP3 SWAP1 POP JUMP JUMPDEST PUSH1 0x0 PUSH20 0xFFFFFFFFFFFFFFFFFFFFFFFFFFFFFFFFFFFFFFFF DUP3 AND SWAP1 POP SWAP2 SWAP1 POP JUMP JUMPDEST PUSH1 0x0 PUSH2 0x1784 DUP3 PUSH2 0x1759 JUMP JUMPDEST SWAP1 POP SWAP2 SWAP1 POP JUMP JUMPDEST PUSH2 0x1794 DUP2 PUSH2 0x1779 JUMP JUMPDEST DUP3 MSTORE POP POP JUMP JUMPDEST PUSH1 0x0 PUSH1 0x60 DUP3 ADD SWAP1 POP PUSH2 0x17AF PUSH1 0x0 DUP4 ADD DUP7 PUSH2 0x1691 JUMP JUMPDEST PUSH2 0x17BC PUSH1 0x20 DUP4 ADD DUP6 PUSH2 0x1691 JUMP JUMPDEST PUSH2 0x17C9 PUSH1 0x40 DUP4 ADD DUP5 PUSH2 0x178B JUMP JUMPDEST SWAP5 SWAP4 POP POP POP POP JUMP JUMPDEST PUSH1 0x0 PUSH2 0x100 DUP3 ADD SWAP1 POP PUSH2 0x17E7 PUSH1 0x0 DUP4 ADD DUP12 PUSH2 0x178B JUMP JUMPDEST PUSH2 0x17F4 PUSH1 0x20 DUP4 ADD DUP11 PUSH2 0x178B JUMP JUMPDEST PUSH2 0x1801 PUSH1 0x40 DUP4 ADD DUP10 PUSH2 0x178B JUMP JUMPDEST PUSH2 0x180E PUSH1 0x60 DUP4 ADD DUP9 PUSH2 0x1691 JUMP JUMPDEST PUSH2 0x181B PUSH1 0x80 DUP4 ADD DUP8 PUSH2 0x1691 JUMP JUMPDEST PUSH2 0x1828 PUSH1 0xA0 DUP4 ADD DUP7 PUSH2 0x1691 JUMP JUMPDEST PUSH2 0x1835 PUSH1 0xC0 DUP4 ADD DUP6 PUSH2 0x1691 JUMP JUMPDEST PUSH2 0x1842 PUSH1 0xE0 DUP4 ADD DUP5 PUSH2 0x1691 JUMP JUMPDEST SWAP10 SWAP9 POP POP POP POP POP POP POP POP POP JUMP JUMPDEST PUSH2 0x1858 DUP2 PUSH2 0x1779 JUMP JUMPDEST DUP2 EQ PUSH2 0x1863 JUMPI PUSH1 0x0 DUP1 REVERT JUMPDEST POP JUMP JUMPDEST PUSH1 0x0 DUP2 CALLDATALOAD SWAP1 POP PUSH2 0x1875 DUP2 PUSH2 0x184F JUMP JUMPDEST SWAP3 SWAP2 POP POP JUMP JUMPDEST PUSH1 0x0 DUP1 PUSH1 0x0 DUP1 PUSH1 0x0 DUP1 PUSH1 0xC0 DUP8 DUP10 SUB SLT ISZERO PUSH2 0x1898 JUMPI PUSH2 0x1897 PUSH2 0x16BB JUMP JUMPDEST JUMPDEST PUSH1 0x0 PUSH2 0x18A6 DUP10 DUP3 DUP11 ADD PUSH2 0x1866 JUMP JUMPDEST SWAP7 POP POP PUSH1 0x20 PUSH2 0x18B7 DUP10 DUP3 DUP11 ADD PUSH2 0x1866 JUMP JUMPDEST SWAP6 POP POP PUSH1 0x40 PUSH2 0x18C8 DUP10 DUP3 DUP11 ADD PUSH2 0x16D7 JUMP JUMPDEST SWAP5 POP POP PUSH1 0x60 PUSH2 0x18D9 DUP10 DUP3 DUP11 ADD PUSH2 0x16D7 JUMP JUMPDEST SWAP4 POP POP PUSH1 0x80 PUSH2 0x18EA DUP10 DUP3 DUP11 ADD PUSH2 0x16D7 JUMP JUMPDEST SWAP3 POP POP PUSH1 0xA0 PUSH2 0x18FB DUP10 DUP3 DUP11 ADD PUSH2 0x16D7 JUMP JUMPDEST SWAP2 POP POP SWAP3 SWAP6 POP SWAP3 SWAP6 POP SWAP3 SWAP6 JUMP JUMPDEST PUSH1 0x0 DUP3 DUP3 MSTORE PUSH1 0x20 DUP3 ADD SWAP1 POP SWAP3 SWAP2 POP POP JUMP JUMPDEST PUSH32 0x4C414E3A206E6F74206F776E6572000000000000000000000000000000000000 PUSH1 0x0 DUP3 ADD MSTORE POP JUMP JUMPDEST PUSH1 0x0 PUSH2 0x194F PUSH1 0xE DUP4 PUSH2 0x1908 JUMP JUMPDEST SWAP2 POP PUSH2 0x195A DUP3 PUSH2 0x1919 JUMP JUMPDEST PUSH1 0x20 DUP3 ADD SWAP1 POP SWAP2 SWAP1 POP JUMP JUMPDEST PUSH1 0x0 PUSH1 0x20 DUP3 ADD SWAP1 POP DUP2 DUP2 SUB PUSH1 0x0 DUP4 ADD MSTORE PUSH2 0x197E DUP2 PUSH2 0x1942 JUMP JUMPDEST SWAP1 POP SWAP2 SWAP1 POP JUMP JUMPDEST PUSH32 0x4C414E3A20616C72656164792073746172746564000000000000000000000000 PUSH1 0x0 DUP3 ADD MSTORE POP JUMP JUMPDEST PUSH1 0x0 PUSH2 0x19BB PUSH1 0x14 DUP4 PUSH2 0x1908 JUMP JUMPDEST SWAP2 POP PUSH2 0x19C6 DUP3 PUSH2 0x1985 JUMP JUMPDEST PUSH1 0x20 DUP3 ADD SWAP1 POP SWAP2 SWAP1 POP JUMP JUMPDEST PUSH1 0x0 PUSH1 0x20 DUP3 ADD SWAP1 POP DUP2 DUP2 SUB PUSH1 0x0 DUP4 ADD MSTORE PUSH2 0x19EA DUP2 PUSH2 0x19AE JUMP JUMPDEST SWAP1 POP SWAP2 SWAP1 POP JUMP JUMPDEST PUSH32 0x4C414E3A206C6F616E206E6F7420656E64656400000000000000000000000000 PUSH1 0x0 DUP3 ADD MSTORE POP JUMP JUMPDEST PUSH1 0x0 PUSH2 0x1A27 PUSH1 0x13 DUP4 PUSH2 0x1908 JUMP JUMPDEST SWAP2 POP PUSH2 0x1A32 DUP3 PUSH2 0x19F1 JUMP JUMPDEST PUSH1 0x20 DUP3 ADD SWAP1 POP SWAP2 SWAP1 POP JUMP JUMPDEST PUSH1 0x0 PUSH1 0x20 DUP3 ADD SWAP1 POP DUP2 DUP2 SUB PUSH1 0x0 DUP4 ADD MSTORE PUSH2 0x1A56 DUP2 PUSH2 0x1A1A JUMP JUMPDEST SWAP1 POP SWAP2 SWAP1 POP JUMP JUMPDEST PUSH32 0x4C414E3A206E6F74206C61746573742062696464657200000000000000000000 PUSH1 0x0 DUP3 ADD MSTORE POP JUMP JUMPDEST PUSH1 0x0 PUSH2 0x1A93 PUSH1 0x16 DUP4 PUSH2 0x1908 JUMP JUMPDEST SWAP2 POP PUSH2 0x1A9E DUP3 PUSH2 0x1A5D JUMP JUMPDEST PUSH1 0x20 DUP3 ADD SWAP1 POP SWAP2 SWAP1 POP JUMP JUMPDEST PUSH1 0x0 PUSH1 0x20 DUP3 ADD SWAP1 POP DUP2 DUP2 SUB PUSH1 0x0 DUP4 ADD MSTORE PUSH2 0x1AC2 DUP2 PUSH2 0x1A86 JUMP JUMPDEST SWAP1 POP SWAP2 SWAP1 POP JUMP JUMPDEST PUSH1 0x0 PUSH1 0x60 DUP3 ADD SWAP1 POP PUSH2 0x1ADE PUSH1 0x0 DUP4 ADD DUP7 PUSH2 0x178B JUMP JUMPDEST PUSH2 0x1AEB PUSH1 0x20 DUP4 ADD DUP6 PUSH2 0x178B JUMP JUMPDEST PUSH2 0x1AF8 PUSH1 0x40 DUP4 ADD DUP5 PUSH2 0x1691 JUMP JUMPDEST SWAP5 SWAP4 POP POP POP POP JUMP JUMPDEST PUSH32 0x4C414E3A206E6F74207374617274656400000000000000000000000000000000 PUSH1 0x0 DUP3 ADD MSTORE POP JUMP JUMPDEST PUSH1 0x0 PUSH2 0x1B36 PUSH1 0x10 DUP4 PUSH2 0x1908 JUMP JUMPDEST SWAP2 POP PUSH2 0x1B41 DUP3 PUSH2 0x1B00 JUMP JUMPDEST PUSH1 0x20 DUP3 ADD SWAP1 POP SWAP2 SWAP1 POP JUMP JUMPDEST PUSH1 0x0 PUSH1 0x20 DUP3 ADD SWAP1 POP DUP2 DUP2 SUB PUSH1 0x0 DUP4 ADD MSTORE PUSH2 0x1B65 DUP2 PUSH2 0x1B29 JUMP JUMPDEST SWAP1 POP SWAP2 SWAP1 POP JUMP JUMPDEST PUSH32 0x4C414E3A20616C726561647920656E6465640000000000000000000000000000 PUSH1 0x0 DUP3 ADD MSTORE POP JUMP JUMPDEST PUSH1 0x0 PUSH2 0x1BA2 PUSH1 0x12 DUP4 PUSH2 0x1908 JUMP JUMPDEST SWAP2 POP PUSH2 0x1BAD DUP3 PUSH2 0x1B6C JUMP JUMPDEST PUSH1 0x20 DUP3 ADD SWAP1 POP SWAP2 SWAP1 POP JUMP JUMPDEST PUSH1 0x0 PUSH1 0x20 DUP3 ADD SWAP1 POP DUP2 DUP2 SUB PUSH1 0x0 DUP4 ADD MSTORE PUSH2 0x1BD1 DUP2 PUSH2 0x1B95 JUMP JUMPDEST SWAP1 POP SWAP2 SWAP1 POP JUMP JUMPDEST PUSH32 0x4E487B7100000000000000000000000000000000000000000000000000000000 PUSH1 0x0 MSTORE PUSH1 0x11 PUSH1 0x4 MSTORE PUSH1 0x24 PUSH1 0x0 REVERT JUMPDEST PUSH1 0x0 PUSH2 0x1C12 DUP3 PUSH2 0x1687 JUMP JUMPDEST SWAP2 POP PUSH2 0x1C1D DUP4 PUSH2 0x1687 JUMP JUMPDEST SWAP3 POP DUP3 DUP3 ADD SWAP1 POP DUP1 DUP3 GT ISZERO PUSH2 0x1C35 JUMPI PUSH2 0x1C34 PUSH2 0x1BD8 JUMP JUMPDEST JUMPDEST SWAP3 SWAP2 POP POP JUMP JUMPDEST PUSH32 0x4C414E3A20626964206E6F742068696768657200000000000000000000000000 PUSH1 0x0 DUP3 ADD MSTORE POP JUMP JUMPDEST PUSH1 0x0 PUSH2 0x1C71 PUSH1 0x13 DUP4 PUSH2 0x1908 JUMP JUMPDEST SWAP2 POP PUSH2 0x1C7C DUP3 PUSH2 0x1C3B JUMP JUMPDEST PUSH1 0x20 DUP3 ADD SWAP1 POP SWAP2 SWAP1 POP JUMP JUMPDEST PUSH1 0x0 PUSH1 0x20 DUP3 ADD SWAP1 POP DUP2 DUP2 SUB PUSH1 0x0 DUP4 ADD MSTORE PUSH2 0x1CA0 DUP2 PUSH2 0x1C64 JUMP JUMPDEST SWAP1 POP SWAP2 SWAP1 POP JUMP JUMPDEST PUSH1 0x0 DUP2 ISZERO ISZERO SWAP1 POP SWAP2 SWAP1 POP JUMP JUMPDEST PUSH2 0x1CBC DUP2 PUSH2 0x1CA7 JUMP JUMPDEST DUP2 EQ PUSH2 0x1CC7 JUMPI PUSH1 0x0 DUP1 REVERT JUMPDEST POP JUMP JUMPDEST PUSH1 0x0 DUP2 MLOAD SWAP1 POP PUSH2 0x1CD9 DUP2 PUSH2 0x1CB3 JUMP JUMPDEST SWAP3 SWAP2 POP POP JUMP JUMPDEST PUSH1 0x0 PUSH1 0x20 DUP3 DUP5 SUB SLT ISZERO PUSH2 0x1CF5 JUMPI PUSH2 0x1CF4 PUSH2 0x16BB JUMP JUMPDEST JUMPDEST PUSH1 0x0 PUSH2 0x1D03 DUP5 DUP3 DUP6 ADD PUSH2 0x1CCA JUMP JUMPDEST SWAP2 POP POP SWAP3 SWAP2 POP POP JUMP JUMPDEST PUSH1 0x0 PUSH2 0x1D17 DUP3 PUSH2 0x1687 JUMP JUMPDEST SWAP2 POP PUSH2 0x1D22 DUP4 PUSH2 0x1687 JUMP JUMPDEST SWAP3 POP DUP3 DUP3 SUB SWAP1 POP DUP2 DUP2 GT ISZERO PUSH2 0x1D3A JUMPI PUSH2 0x1D39 PUSH2 0x1BD8 JUMP JUMPDEST JUMPDEST SWAP3 SWAP2 POP POP JUMP JUMPDEST PUSH32 0x4C414E3A2073746172742074696D6520696E2070617374000000000000000000 PUSH1 0x0 DUP3 ADD MSTORE POP JUMP JUMPDEST PUSH1 0x0 PUSH2 0x1D76 PUSH1 0x17 DUP4 PUSH2 0x1908 JUMP JUMPDEST SWAP2 POP PUSH2 0x1D81 DUP3 PUSH2 0x1D40 JUMP JUMPDEST PUSH1 0x20 DUP3 ADD SWAP1 POP SWAP2 SWAP1 POP JUMP JUMPDEST PUSH1 0x0 PUSH1 0x20 DUP3 ADD SWAP1 POP DUP2 DUP2 SUB PUSH1 0x0 DUP4 ADD MSTORE PUSH2 0x1DA5 DUP2 PUSH2 0x1D69 JUMP JUMPDEST SWAP1 POP SWAP2 SWAP1 POP JUMP JUMPDEST PUSH32 0x4C414E3A20737461727420616674657220656E64000000000000000000000000 PUSH1 0x0 DUP3 ADD MSTORE POP JUMP JUMPDEST PUSH1 0x0 PUSH2 0x1DE2 PUSH1 0x14 DUP4 PUSH2 0x1908 JUMP JUMPDEST SWAP2 POP PUSH2 0x1DED DUP3 PUSH2 0x1DAC JUMP JUMPDEST PUSH1 0x20 DUP3 ADD SWAP1 POP SWAP2 SWAP1 POP JUMP JUMPDEST PUSH1 0x0 PUSH1 0x20 DUP3 ADD SWAP1 POP DUP2 DUP2 SUB PUSH1 0x0 DUP4 ADD MSTORE PUSH2 0x1E11 DUP2 PUSH2 0x1DD5 JUMP JUMPDEST SWAP1 POP SWAP2 SWAP1 POP JUMP JUMPDEST PUSH1 0x0 PUSH1 0x40 DUP3 ADD SWAP1 POP PUSH2 0x1E2D PUSH1 0x0 DUP4 ADD DUP6 PUSH2 0x178B JUMP JUMPDEST PUSH2 0x1E3A PUSH1 0x20 DUP4 ADD DUP5 PUSH2 0x1691 JUMP JUMPDEST SWAP4 SWAP3 POP POP POP JUMP JUMPDEST PUSH1 0x0 PUSH2 0x1E4C DUP3 PUSH2 0x1687 JUMP JUMPDEST SWAP2 POP PUSH32 0xFFFFFFFFFFFFFFFFFFFFFFFFFFFFFFFFFFFFFFFFFFFFFFFFFFFFFFFFFFFFFFFF DUP3 SUB PUSH2 0x1E7E JUMPI PUSH2 0x1E7D PUSH2 0x1BD8 JUMP JUMPDEST JUMPDEST PUSH1 0x1 DUP3 ADD SWAP1 POP SWAP2 SWAP1 POP JUMP JUMPDEST PUSH1 0x0 PUSH2 0x1E94 DUP3 PUSH2 0x1687 JUMP JUMPDEST SWAP2 POP PUSH2 0x1E9F DUP4 PUSH2 0x1687 JUMP JUMPDEST SWAP3 POP DUP2 PUSH32 0xFFFFFFFFFFFFFFFFFFFFFFFFFFFFFFFFFFFFFFFFFFFFFFFFFFFFFFFFFFFFFFFF DIV DUP4 GT DUP3 ISZERO ISZERO AND ISZERO PUSH2 0x1ED8 JUMPI PUSH2 0x1ED7 PUSH2 0x1BD8 JUMP JUMPDEST JUMPDEST DUP3 DUP3 MUL SWAP1 POP SWAP3 SWAP2 POP POP JUMP JUMPDEST PUSH32 0x4E487B7100000000000000000000000000000000000000000000000000000000 PUSH1 0x0 MSTORE PUSH1 0x12 PUSH1 0x4 MSTORE PUSH1 0x24 PUSH1 0x0 REVERT JUMPDEST PUSH1 0x0 PUSH2 0x1F1D DUP3 PUSH2 0x1687 JUMP JUMPDEST SWAP2 POP PUSH2 0x1F28 DUP4 PUSH2 0x1687 JUMP JUMPDEST SWAP3 POP DUP3 PUSH2 0x1F38 JUMPI PUSH2 0x1F37 PUSH2 0x1EE3 JUMP JUMPDEST JUMPDEST DUP3 DUP3 DIV SWAP1 POP SWAP3 SWAP2 POP POP JUMP INVALID LOG2 PUSH5 0x6970667358 0x22 SLT KECCAK256 SWAP4 CALLCODE PUSH23 0xC13F9DCE8708850AA056EB68AA02E5D9627D575E21810B SWAP16 0xCD 0xED DUP2 JUMPDEST 0x24 PUSH5 0x736F6C6343 STOP ADDMOD LT STOP CALLER "
				},
				"gasEstimates": {
					"creation": {
						"codeDepositCost": "1611400",
						"executionCost": "1687",
						"totalCost": "1613087"
					},
					"external": {
						"bid(uint256,uint256)": "infinite",
						"bids(uint256,uint256)": "infinite",
						"cancel(uint256)": "infinite",
						"count()": "2430",
						"endLoan(uint256)": "infinite",
						"launch(address,address,uint256,uint256,uint256,uint256)": "infinite",
						"liquidate(uint256)": "infinite",
						"loans(uint256)": "infinite"
					},
					"internal": {
						"_calculateLoanValue(uint256)": "infinite",
						"_ended(uint256)": "2226",
						"_started(uint256)": "2223"
					}
				},
				"methodIdentifiers": {
					"bid(uint256,uint256)": "598647f8",
					"bids(uint256,uint256)": "7b3c4baa",
					"cancel(uint256)": "40e58ee5",
					"count()": "06661abd",
					"endLoan(uint256)": "7870860b",
					"launch(address,address,uint256,uint256,uint256,uint256)": "e7e4dfcd",
					"liquidate(uint256)": "415f1240",
					"loans(uint256)": "e1ec3c68"
				}
			},
			"storageLayout": {
				"storage": [
					{
						"astId": 223,
						"contract": "main.sol:LAN",
						"label": "count",
						"offset": 0,
						"slot": "0",
						"type": "t_uint256"
					},
					{
						"astId": 245,
						"contract": "main.sol:LAN",
						"label": "loans",
						"offset": 0,
						"slot": "1",
						"type": "t_mapping(t_uint256,t_struct(Loan)240_storage)"
					},
					{
						"astId": 259,
						"contract": "main.sol:LAN",
						"label": "bids",
						"offset": 0,
						"slot": "2",
						"type": "t_mapping(t_uint256,t_mapping(t_uint256,t_struct(Bid)252_storage))"
					}
				],
				"types": {
					"t_address": {
						"encoding": "inplace",
						"label": "address",
						"numberOfBytes": "20"
					},
					"t_mapping(t_uint256,t_mapping(t_uint256,t_struct(Bid)252_storage))": {
						"encoding": "mapping",
						"key": "t_uint256",
						"label": "mapping(uint256 => mapping(uint256 => struct LAN.Bid))",
						"numberOfBytes": "32",
						"value": "t_mapping(t_uint256,t_struct(Bid)252_storage)"
					},
					"t_mapping(t_uint256,t_struct(Bid)252_storage)": {
						"encoding": "mapping",
						"key": "t_uint256",
						"label": "mapping(uint256 => struct LAN.Bid)",
						"numberOfBytes": "32",
						"value": "t_struct(Bid)252_storage"
					},
					"t_mapping(t_uint256,t_struct(Loan)240_storage)": {
						"encoding": "mapping",
						"key": "t_uint256",
						"label": "mapping(uint256 => struct LAN.Loan)",
						"numberOfBytes": "32",
						"value": "t_struct(Loan)240_storage"
					},
					"t_struct(Bid)252_storage": {
						"encoding": "inplace",
						"label": "struct LAN.Bid",
						"members": [
							{
								"astId": 247,
								"contract": "main.sol:LAN",
								"label": "bidTime",
								"offset": 0,
								"slot": "0",
								"type": "t_uint256"
							},
							{
								"astId": 249,
								"contract": "main.sol:LAN",
								"label": "bidAmount",
								"offset": 0,
								"slot": "1",
								"type": "t_uint256"
							},
							{
								"astId": 251,
								"contract": "main.sol:LAN",
								"label": "user",
								"offset": 0,
								"slot": "2",
								"type": "t_address"
							}
						],
						"numberOfBytes": "96"
					},
					"t_struct(Loan)240_storage": {
						"encoding": "inplace",
						"label": "struct LAN.Loan",
						"members": [
							{
								"astId": 225,
								"contract": "main.sol:LAN",
								"label": "owner",
								"offset": 0,
								"slot": "0",
								"type": "t_address"
							},
							{
								"astId": 227,
								"contract": "main.sol:LAN",
								"label": "token",
								"offset": 0,
								"slot": "1",
								"type": "t_address"
							},
							{
								"astId": 229,
								"contract": "main.sol:LAN",
								"label": "collectionAddress",
								"offset": 0,
								"slot": "2",
								"type": "t_address"
							},
							{
								"astId": 231,
								"contract": "main.sol:LAN",
								"label": "nftId",
								"offset": 0,
								"slot": "3",
								"type": "t_uint256"
							},
							{
								"astId": 233,
								"contract": "main.sol:LAN",
								"label": "startTime",
								"offset": 0,
								"slot": "4",
								"type": "t_uint256"
							},
							{
								"astId": 235,
								"contract": "main.sol:LAN",
								"label": "endTime",
								"offset": 0,
								"slot": "5",
								"type": "t_uint256"
							},
							{
								"astId": 237,
								"contract": "main.sol:LAN",
								"label": "apr",
								"offset": 0,
								"slot": "6",
								"type": "t_uint256"
							},
							{
								"astId": 239,
								"contract": "main.sol:LAN",
								"label": "numBids",
								"offset": 0,
								"slot": "7",
								"type": "t_uint256"
							}
						],
						"numberOfBytes": "256"
					},
					"t_uint256": {
						"encoding": "inplace",
						"label": "uint256",
						"numberOfBytes": "32"
					}
				}
			},
			"userdoc": {
				"kind": "user",
				"methods": {},
				"version": 1
			}
		}
	}
}