{
	"main.sol": {
		"LAN": {
			"abi": [
				{
					"anonymous": false,
					"inputs": [
						{
							"indexed": false,
							"internalType": "uint256",
							"name": "Id",
							"type": "uint256"
						}
					],
					"name": "loanCancelled",
					"type": "event"
				},
				{
					"anonymous": false,
					"inputs": [
						{
							"indexed": true,
							"internalType": "uint256",
							"name": "poolId",
							"type": "uint256"
						},
						{
							"indexed": false,
							"internalType": "address",
							"name": "collectionAddress",
							"type": "address"
						},
						{
							"indexed": false,
							"internalType": "uint256",
							"name": "nftId",
							"type": "uint256"
						}
					],
					"name": "newPool",
					"type": "event"
				},
				{
					"inputs": [
						{
							"internalType": "uint256",
							"name": "_poolId",
							"type": "uint256"
						},
						{
							"internalType": "uint256",
							"name": "_amount",
							"type": "uint256"
						}
					],
					"name": "bid",
					"outputs": [],
					"stateMutability": "nonpayable",
					"type": "function"
				},
				{
					"inputs": [
						{
							"internalType": "uint256",
							"name": "",
							"type": "uint256"
						},
						{
							"internalType": "uint256",
							"name": "",
							"type": "uint256"
						}
					],
					"name": "bids",
					"outputs": [
						{
							"internalType": "uint256",
							"name": "bidTime",
							"type": "uint256"
						},
						{
							"internalType": "uint256",
							"name": "bidAmount",
							"type": "uint256"
						},
						{
							"internalType": "address",
							"name": "user",
							"type": "address"
						}
					],
					"stateMutability": "view",
					"type": "function"
				},
				{
					"inputs": [
						{
							"internalType": "uint256",
							"name": "_poolId",
							"type": "uint256"
						}
					],
					"name": "cancel",
					"outputs": [],
					"stateMutability": "nonpayable",
					"type": "function"
				},
				{
					"inputs": [
						{
							"internalType": "uint256",
							"name": "_poolId",
							"type": "uint256"
						},
						{
							"internalType": "address",
							"name": "_newAddress",
							"type": "address"
						},
						{
							"internalType": "bool",
							"name": "_status",
							"type": "bool"
						}
					],
					"name": "changeWhitelist",
					"outputs": [],
					"stateMutability": "nonpayable",
					"type": "function"
				},
				{
					"inputs": [],
					"name": "count",
					"outputs": [
						{
							"internalType": "uint256",
							"name": "",
							"type": "uint256"
						}
					],
					"stateMutability": "view",
					"type": "function"
				},
				{
					"inputs": [
						{
							"internalType": "uint256",
							"name": "_poolId",
							"type": "uint256"
						}
					],
					"name": "endLoan",
					"outputs": [],
					"stateMutability": "nonpayable",
					"type": "function"
				},
				{
					"inputs": [
						{
							"internalType": "address",
							"name": "_token",
							"type": "address"
						},
						{
							"internalType": "address",
							"name": "_collectionAddress",
							"type": "address"
						},
						{
							"internalType": "uint256",
							"name": "_nftId",
							"type": "uint256"
						},
						{
							"internalType": "uint256",
							"name": "_startTime",
							"type": "uint256"
						},
						{
							"internalType": "uint256",
							"name": "_endTime",
							"type": "uint256"
						},
						{
							"internalType": "uint256",
							"name": "_apr",
							"type": "uint256"
						},
						{
							"internalType": "bool",
							"name": "_whitelisted",
							"type": "bool"
						}
					],
					"name": "launch",
					"outputs": [],
					"stateMutability": "nonpayable",
					"type": "function"
				},
				{
					"inputs": [
						{
							"internalType": "uint256",
							"name": "_poolId",
							"type": "uint256"
						}
					],
					"name": "liquidate",
					"outputs": [],
					"stateMutability": "nonpayable",
					"type": "function"
				},
				{
					"inputs": [
						{
							"internalType": "uint256",
							"name": "_poolId",
							"type": "uint256"
						}
					],
					"name": "liquidateEarly",
					"outputs": [],
					"stateMutability": "nonpayable",
					"type": "function"
				},
				{
					"inputs": [
						{
							"internalType": "uint256",
							"name": "",
							"type": "uint256"
						}
					],
					"name": "loans",
					"outputs": [
						{
							"internalType": "address",
							"name": "owner",
							"type": "address"
						},
						{
							"internalType": "address",
							"name": "token",
							"type": "address"
						},
						{
							"internalType": "address",
							"name": "collectionAddress",
							"type": "address"
						},
						{
							"internalType": "uint256",
							"name": "nftId",
							"type": "uint256"
						},
						{
							"internalType": "uint256",
							"name": "startTime",
							"type": "uint256"
						},
						{
							"internalType": "uint256",
							"name": "endTime",
							"type": "uint256"
						},
						{
							"internalType": "uint256",
							"name": "apr",
							"type": "uint256"
						},
						{
							"internalType": "uint256",
							"name": "numBids",
							"type": "uint256"
						},
						{
							"internalType": "bool",
							"name": "whitelisted",
							"type": "bool"
						}
					],
					"stateMutability": "view",
					"type": "function"
				},
				{
					"inputs": [
						{
							"internalType": "uint256",
							"name": "_poolId",
							"type": "uint256"
						},
						{
							"internalType": "address",
							"name": "_newAddress",
							"type": "address"
						}
					],
					"name": "setNewBidOwner",
					"outputs": [],
					"stateMutability": "nonpayable",
					"type": "function"
				},
				{
					"inputs": [
						{
							"internalType": "uint256",
							"name": "",
							"type": "uint256"
						},
						{
							"internalType": "address",
							"name": "",
							"type": "address"
						}
					],
					"name": "whitelistedAddresses",
					"outputs": [
						{
							"internalType": "bool",
							"name": "",
							"type": "bool"
						}
					],
					"stateMutability": "view",
					"type": "function"
				}
			],
			"devdoc": {
				"kind": "dev",
				"methods": {},
				"version": 1
			},
			"evm": {
				"assembly": "    /* \"main.sol\":142:6504  contract LAN{... */\n  mstore(0x40, 0x80)\n  callvalue\n  dup1\n  iszero\n  tag_1\n  jumpi\n  0x00\n  dup1\n  revert\ntag_1:\n  pop\n  dataSize(sub_0)\n  dup1\n  dataOffset(sub_0)\n  0x00\n  codecopy\n  0x00\n  return\nstop\n\nsub_0: assembly {\n        /* \"main.sol\":142:6504  contract LAN{... */\n      mstore(0x40, 0x80)\n      callvalue\n      dup1\n      iszero\n      tag_1\n      jumpi\n      0x00\n      dup1\n      revert\n    tag_1:\n      pop\n      jumpi(tag_2, lt(calldatasize, 0x04))\n      shr(0xe0, calldataload(0x00))\n      dup1\n      0x7870860b\n      gt\n      tag_15\n      jumpi\n      dup1\n      0x7870860b\n      eq\n      tag_9\n      jumpi\n      dup1\n      0x7b3c4baa\n      eq\n      tag_10\n      jumpi\n      dup1\n      0x8f769f3a\n      eq\n      tag_11\n      jumpi\n      dup1\n      0xa23b02bd\n      eq\n      tag_12\n      jumpi\n      dup1\n      0xe1ec3c68\n      eq\n      tag_13\n      jumpi\n      dup1\n      0xf724e48e\n      eq\n      tag_14\n      jumpi\n      jump(tag_2)\n    tag_15:\n      dup1\n      0x06661abd\n      eq\n      tag_3\n      jumpi\n      dup1\n      0x18de4f9d\n      eq\n      tag_4\n      jumpi\n      dup1\n      0x2613c5d6\n      eq\n      tag_5\n      jumpi\n      dup1\n      0x40e58ee5\n      eq\n      tag_6\n      jumpi\n      dup1\n      0x415f1240\n      eq\n      tag_7\n      jumpi\n      dup1\n      0x598647f8\n      eq\n      tag_8\n      jumpi\n    tag_2:\n      0x00\n      dup1\n      revert\n        /* \"main.sol\":313:333  uint256 public count */\n    tag_3:\n      tag_16\n      tag_17\n      jump\t// in\n    tag_16:\n      mload(0x40)\n      tag_18\n      swap2\n      swap1\n      tag_19\n      jump\t// in\n    tag_18:\n      mload(0x40)\n      dup1\n      swap2\n      sub\n      swap1\n      return\n        /* \"main.sol\":5264:5669  function liquidateEarly(uint256 _poolId) external onlyOwner(_poolId) {... */\n    tag_4:\n      tag_20\n      0x04\n      dup1\n      calldatasize\n      sub\n      dup2\n      add\n      swap1\n      tag_21\n      swap2\n      swap1\n      tag_22\n      jump\t// in\n    tag_21:\n      tag_23\n      jump\t// in\n    tag_20:\n      stop\n        /* \"main.sol\":1241:1994  function launch(address _token, address _collectionAddress, uint256 _nftId, uint256 _startTime, uint256 _endTime, uint256 _apr, bool _whitelisted) public {... */\n    tag_5:\n      tag_24\n      0x04\n      dup1\n      calldatasize\n      sub\n      dup2\n      add\n      swap1\n      tag_25\n      swap2\n      swap1\n      tag_26\n      jump\t// in\n    tag_25:\n      tag_27\n      jump\t// in\n    tag_24:\n      stop\n        /* \"main.sol\":3841:4085  function cancel(uint256 _poolId) external onlyOwner(_poolId) {... */\n    tag_6:\n      tag_28\n      0x04\n      dup1\n      calldatasize\n      sub\n      dup2\n      add\n      swap1\n      tag_29\n      swap2\n      swap1\n      tag_22\n      jump\t// in\n    tag_29:\n      tag_30\n      jump\t// in\n    tag_28:\n      stop\n        /* \"main.sol\":4655:5088  function liquidate(uint256 _poolId) external {... */\n    tag_7:\n      tag_31\n      0x04\n      dup1\n      calldatasize\n      sub\n      dup2\n      add\n      swap1\n      tag_32\n      swap2\n      swap1\n      tag_22\n      jump\t// in\n    tag_32:\n      tag_33\n      jump\t// in\n    tag_31:\n      stop\n        /* \"main.sol\":2000:3053  function bid(uint256 _poolId, uint256 _amount) external {... */\n    tag_8:\n      tag_34\n      0x04\n      dup1\n      calldatasize\n      sub\n      dup2\n      add\n      swap1\n      tag_35\n      swap2\n      swap1\n      tag_36\n      jump\t// in\n    tag_35:\n      tag_37\n      jump\t// in\n    tag_34:\n      stop\n        /* \"main.sol\":4124:4601  function endLoan(uint256 _poolId) external onlyOwner(_poolId) {... */\n    tag_9:\n      tag_38\n      0x04\n      dup1\n      calldatasize\n      sub\n      dup2\n      add\n      swap1\n      tag_39\n      swap2\n      swap1\n      tag_22\n      jump\t// in\n    tag_39:\n      tag_40\n      jump\t// in\n    tag_38:\n      stop\n        /* \"main.sol\":818:873  mapping(uint256 => mapping(uint256 => Bid)) public bids */\n    tag_10:\n      tag_41\n      0x04\n      dup1\n      calldatasize\n      sub\n      dup2\n      add\n      swap1\n      tag_42\n      swap2\n      swap1\n      tag_36\n      jump\t// in\n    tag_42:\n      tag_43\n      jump\t// in\n    tag_41:\n      mload(0x40)\n      tag_44\n      swap4\n      swap3\n      swap2\n      swap1\n      tag_45\n      jump\t// in\n    tag_44:\n      mload(0x40)\n      dup1\n      swap2\n      sub\n      swap1\n      return\n        /* \"main.sol\":3194:3605  function setNewBidOwner(uint256 _poolId, address _newAddress) external {... */\n    tag_11:\n      tag_46\n      0x04\n      dup1\n      calldatasize\n      sub\n      dup2\n      add\n      swap1\n      tag_47\n      swap2\n      swap1\n      tag_48\n      jump\t// in\n    tag_47:\n      tag_49\n      jump\t// in\n    tag_46:\n      stop\n        /* \"main.sol\":966:1038  mapping(uint256 => mapping(address => bool)) public whitelistedAddresses */\n    tag_12:\n      tag_50\n      0x04\n      dup1\n      calldatasize\n      sub\n      dup2\n      add\n      swap1\n      tag_51\n      swap2\n      swap1\n      tag_48\n      jump\t// in\n    tag_51:\n      tag_52\n      jump\t// in\n    tag_50:\n      mload(0x40)\n      tag_53\n      swap2\n      swap1\n      tag_54\n      jump\t// in\n    tag_53:\n      mload(0x40)\n      dup1\n      swap2\n      sub\n      swap1\n      return\n        /* \"main.sol\":654:691  mapping(uint256 => Loan) public loans */\n    tag_13:\n      tag_55\n      0x04\n      dup1\n      calldatasize\n      sub\n      dup2\n      add\n      swap1\n      tag_56\n      swap2\n      swap1\n      tag_22\n      jump\t// in\n    tag_56:\n      tag_57\n      jump\t// in\n    tag_55:\n      mload(0x40)\n      tag_58\n      swap10\n      swap9\n      swap8\n      swap7\n      swap6\n      swap5\n      swap4\n      swap3\n      swap2\n      swap1\n      tag_59\n      jump\t// in\n    tag_58:\n      mload(0x40)\n      dup1\n      swap2\n      sub\n      swap1\n      return\n        /* \"main.sol\":3638:3793  function changeWhitelist(uint256 _poolId, address _newAddress, bool _status) external {... */\n    tag_14:\n      tag_60\n      0x04\n      dup1\n      calldatasize\n      sub\n      dup2\n      add\n      swap1\n      tag_61\n      swap2\n      swap1\n      tag_62\n      jump\t// in\n    tag_61:\n      tag_63\n      jump\t// in\n    tag_60:\n      stop\n        /* \"main.sol\":313:333  uint256 public count */\n    tag_17:\n      sload(0x00)\n      dup2\n      jump\t// out\n        /* \"main.sol\":5264:5669  function liquidateEarly(uint256 _poolId) external onlyOwner(_poolId) {... */\n    tag_23:\n        /* \"main.sol\":5324:5331  _poolId */\n      dup1\n        /* \"main.sol\":1188:1198  msg.sender */\n      caller\n        /* \"main.sol\":1164:1198  loans[_poolId].owner == msg.sender */\n      0xffffffffffffffffffffffffffffffffffffffff\n      and\n        /* \"main.sol\":1164:1169  loans */\n      0x01\n        /* \"main.sol\":1164:1178  loans[_poolId] */\n      0x00\n        /* \"main.sol\":1170:1177  _poolId */\n      dup4\n        /* \"main.sol\":1164:1178  loans[_poolId] */\n      dup2\n      mstore\n      0x20\n      add\n      swap1\n      dup2\n      mstore\n      0x20\n      add\n      0x00\n      keccak256\n        /* \"main.sol\":1164:1184  loans[_poolId].owner */\n      0x00\n      add\n      0x00\n      swap1\n      sload\n      swap1\n      0x0100\n      exp\n      swap1\n      div\n      0xffffffffffffffffffffffffffffffffffffffff\n      and\n        /* \"main.sol\":1164:1198  loans[_poolId].owner == msg.sender */\n      0xffffffffffffffffffffffffffffffffffffffff\n      and\n      eq\n        /* \"main.sol\":1156:1217  require(loans[_poolId].owner == msg.sender, \"LAN: not owner\") */\n      tag_65\n      jumpi\n      mload(0x40)\n      0x08c379a000000000000000000000000000000000000000000000000000000000\n      dup2\n      mstore\n      0x04\n      add\n      tag_66\n      swap1\n      tag_67\n      jump\t// in\n    tag_66:\n      mload(0x40)\n      dup1\n      swap2\n      sub\n      swap1\n      revert\n    tag_65:\n        /* \"main.sol\":5343:5359  Loan memory loan */\n      0x00\n        /* \"main.sol\":5362:5367  loans */\n      0x01\n        /* \"main.sol\":5362:5376  loans[_poolId] */\n      0x00\n        /* \"main.sol\":5368:5375  _poolId */\n      dup5\n        /* \"main.sol\":5362:5376  loans[_poolId] */\n      dup2\n      mstore\n      0x20\n      add\n      swap1\n      dup2\n      mstore\n      0x20\n      add\n      0x00\n      keccak256\n        /* \"main.sol\":5343:5376  Loan memory loan = loans[_poolId] */\n      mload(0x40)\n      dup1\n      0x0120\n      add\n      0x40\n      mstore\n      swap1\n      dup2\n      0x00\n      dup3\n      add\n      0x00\n      swap1\n      sload\n      swap1\n      0x0100\n      exp\n      swap1\n      div\n      0xffffffffffffffffffffffffffffffffffffffff\n      and\n      0xffffffffffffffffffffffffffffffffffffffff\n      and\n      0xffffffffffffffffffffffffffffffffffffffff\n      and\n      dup2\n      mstore\n      0x20\n      add\n      0x01\n      dup3\n      add\n      0x00\n      swap1\n      sload\n      swap1\n      0x0100\n      exp\n      swap1\n      div\n      0xffffffffffffffffffffffffffffffffffffffff\n      and\n      0xffffffffffffffffffffffffffffffffffffffff\n      and\n      0xffffffffffffffffffffffffffffffffffffffff\n      and\n      dup2\n      mstore\n      0x20\n      add\n      0x02\n      dup3\n      add\n      0x00\n      swap1\n      sload\n      swap1\n      0x0100\n      exp\n      swap1\n      div\n      0xffffffffffffffffffffffffffffffffffffffff\n      and\n      0xffffffffffffffffffffffffffffffffffffffff\n      and\n      0xffffffffffffffffffffffffffffffffffffffff\n      and\n      dup2\n      mstore\n      0x20\n      add\n      0x03\n      dup3\n      add\n      sload\n      dup2\n      mstore\n      0x20\n      add\n      0x04\n      dup3\n      add\n      sload\n      dup2\n      mstore\n      0x20\n      add\n      0x05\n      dup3\n      add\n      sload\n      dup2\n      mstore\n      0x20\n      add\n      0x06\n      dup3\n      add\n      sload\n      dup2\n      mstore\n      0x20\n      add\n      0x07\n      dup3\n      add\n      sload\n      dup2\n      mstore\n      0x20\n      add\n      0x08\n      dup3\n      add\n      0x00\n      swap1\n      sload\n      swap1\n      0x0100\n      exp\n      swap1\n      div\n      0xff\n      and\n      iszero\n      iszero\n      iszero\n      iszero\n      dup2\n      mstore\n      pop\n      pop\n      swap1\n      pop\n        /* \"main.sol\":5387:5407  Bid memory latestBid */\n      0x00\n        /* \"main.sol\":5410:5414  bids */\n      0x02\n        /* \"main.sol\":5410:5423  bids[_poolId] */\n      0x00\n        /* \"main.sol\":5415:5422  _poolId */\n      dup6\n        /* \"main.sol\":5410:5423  bids[_poolId] */\n      dup2\n      mstore\n      0x20\n      add\n      swap1\n      dup2\n      mstore\n      0x20\n      add\n      0x00\n      keccak256\n        /* \"main.sol\":5410:5437  bids[_poolId][loan.numBids] */\n      0x00\n        /* \"main.sol\":5424:5428  loan */\n      dup4\n        /* \"main.sol\":5424:5436  loan.numBids */\n      0xe0\n      add\n      mload\n        /* \"main.sol\":5410:5437  bids[_poolId][loan.numBids] */\n      dup2\n      mstore\n      0x20\n      add\n      swap1\n      dup2\n      mstore\n      0x20\n      add\n      0x00\n      keccak256\n        /* \"main.sol\":5387:5437  Bid memory latestBid = bids[_poolId][loan.numBids] */\n      mload(0x40)\n      dup1\n      0x60\n      add\n      0x40\n      mstore\n      swap1\n      dup2\n      0x00\n      dup3\n      add\n      sload\n      dup2\n      mstore\n      0x20\n      add\n      0x01\n      dup3\n      add\n      sload\n      dup2\n      mstore\n      0x20\n      add\n      0x02\n      dup3\n      add\n      0x00\n      swap1\n      sload\n      swap1\n      0x0100\n      exp\n      swap1\n      div\n      0xffffffffffffffffffffffffffffffffffffffff\n      and\n      0xffffffffffffffffffffffffffffffffffffffff\n      and\n      0xffffffffffffffffffffffffffffffffffffffff\n      and\n      dup2\n      mstore\n      pop\n      pop\n      swap1\n      pop\n        /* \"main.sol\":5473:5483  msg.sender */\n      caller\n        /* \"main.sol\":5455:5483  latestBid.user == msg.sender */\n      0xffffffffffffffffffffffffffffffffffffffff\n      and\n        /* \"main.sol\":5455:5464  latestBid */\n      dup2\n        /* \"main.sol\":5455:5469  latestBid.user */\n      0x40\n      add\n      mload\n        /* \"main.sol\":5455:5483  latestBid.user == msg.sender */\n      0xffffffffffffffffffffffffffffffffffffffff\n      and\n      eq\n        /* \"main.sol\":5447:5510  require(latestBid.user == msg.sender, \"LAN: not latest bidder\") */\n      tag_69\n      jumpi\n      mload(0x40)\n      0x08c379a000000000000000000000000000000000000000000000000000000000\n      dup2\n      mstore\n      0x04\n      add\n      tag_70\n      swap1\n      tag_71\n      jump\t// in\n    tag_70:\n      mload(0x40)\n      dup1\n      swap2\n      sub\n      swap1\n      revert\n    tag_69:\n        /* \"main.sol\":5544:5555  IERC721 NFT */\n      0x00\n        /* \"main.sol\":5566:5570  loan */\n      dup3\n        /* \"main.sol\":5566:5588  loan.collectionAddress */\n      0x40\n      add\n      mload\n        /* \"main.sol\":5544:5589  IERC721 NFT = IERC721(loan.collectionAddress) */\n      swap1\n      pop\n        /* \"main.sol\":5599:5602  NFT */\n      dup1\n        /* \"main.sol\":5599:5619  NFT.safeTransferFrom */\n      0xffffffffffffffffffffffffffffffffffffffff\n      and\n      0x42842e0e\n        /* \"main.sol\":5628:5632  this */\n      address\n        /* \"main.sol\":5635:5644  latestBid */\n      dup5\n        /* \"main.sol\":5635:5649  latestBid.user */\n      0x40\n      add\n      mload\n        /* \"main.sol\":5651:5655  loan */\n      dup7\n        /* \"main.sol\":5651:5661  loan.nftId */\n      0x60\n      add\n      mload\n        /* \"main.sol\":5599:5662  NFT.safeTransferFrom(address(this), latestBid.user, loan.nftId) */\n      mload(0x40)\n      dup5\n      0xffffffff\n      and\n      0xe0\n      shl\n      dup2\n      mstore\n      0x04\n      add\n      tag_72\n      swap4\n      swap3\n      swap2\n      swap1\n      tag_73\n      jump\t// in\n    tag_72:\n      0x00\n      mload(0x40)\n      dup1\n      dup4\n      sub\n      dup2\n      0x00\n      dup8\n      dup1\n      extcodesize\n      iszero\n      dup1\n      iszero\n      tag_74\n      jumpi\n      0x00\n      dup1\n      revert\n    tag_74:\n      pop\n      gas\n      call\n      iszero\n      dup1\n      iszero\n      tag_76\n      jumpi\n      returndatasize\n      0x00\n      dup1\n      returndatacopy\n      revert(0x00, returndatasize)\n    tag_76:\n      pop\n      pop\n      pop\n      pop\n        /* \"main.sol\":5333:5669  {... */\n      pop\n      pop\n      pop\n        /* \"main.sol\":5264:5669  function liquidateEarly(uint256 _poolId) external onlyOwner(_poolId) {... */\n      pop\n      pop\n      jump\t// out\n        /* \"main.sol\":1241:1994  function launch(address _token, address _collectionAddress, uint256 _nftId, uint256 _startTime, uint256 _endTime, uint256 _apr, bool _whitelisted) public {... */\n    tag_27:\n        /* \"main.sol\":1427:1442  block.timestamp */\n      timestamp\n        /* \"main.sol\":1413:1423  _startTime */\n      dup5\n        /* \"main.sol\":1413:1442  _startTime >= block.timestamp */\n      lt\n      iszero\n        /* \"main.sol\":1405:1470  require(_startTime >= block.timestamp, \"LAN: start time in past\") */\n      tag_78\n      jumpi\n      mload(0x40)\n      0x08c379a000000000000000000000000000000000000000000000000000000000\n      dup2\n      mstore\n      0x04\n      add\n      tag_79\n      swap1\n      tag_80\n      jump\t// in\n    tag_79:\n      mload(0x40)\n      dup1\n      swap2\n      sub\n      swap1\n      revert\n    tag_78:\n        /* \"main.sol\":1499:1509  _startTime */\n      dup4\n        /* \"main.sol\":1488:1496  _endTime */\n      dup4\n        /* \"main.sol\":1488:1509  _endTime > _startTime */\n      gt\n        /* \"main.sol\":1480:1534  require(_endTime > _startTime, \"LAN: start after end\") */\n      tag_81\n      jumpi\n      mload(0x40)\n      0x08c379a000000000000000000000000000000000000000000000000000000000\n      dup2\n      mstore\n      0x04\n      add\n      tag_82\n      swap1\n      tag_83\n      jump\t// in\n    tag_82:\n      mload(0x40)\n      dup1\n      swap2\n      sub\n      swap1\n      revert\n    tag_81:\n        /* \"main.sol\":1559:1863  Loan({... */\n      mload(0x40)\n      dup1\n      0x0120\n      add\n      0x40\n      mstore\n      dup1\n        /* \"main.sol\":1585:1595  msg.sender */\n      caller\n        /* \"main.sol\":1559:1863  Loan({... */\n      0xffffffffffffffffffffffffffffffffffffffff\n      and\n      dup2\n      mstore\n      0x20\n      add\n        /* \"main.sol\":1616:1622  _token */\n      dup9\n        /* \"main.sol\":1559:1863  Loan({... */\n      0xffffffffffffffffffffffffffffffffffffffff\n      and\n      dup2\n      mstore\n      0x20\n      add\n        /* \"main.sol\":1655:1673  _collectionAddress */\n      dup8\n        /* \"main.sol\":1559:1863  Loan({... */\n      0xffffffffffffffffffffffffffffffffffffffff\n      and\n      dup2\n      mstore\n      0x20\n      add\n        /* \"main.sol\":1694:1700  _nftId */\n      dup7\n        /* \"main.sol\":1559:1863  Loan({... */\n      dup2\n      mstore\n      0x20\n      add\n        /* \"main.sol\":1756:1766  _startTime */\n      dup6\n        /* \"main.sol\":1559:1863  Loan({... */\n      dup2\n      mstore\n      0x20\n      add\n        /* \"main.sol\":1723:1731  _endTime */\n      dup5\n        /* \"main.sol\":1559:1863  Loan({... */\n      dup2\n      mstore\n      0x20\n      add\n        /* \"main.sol\":1785:1789  _apr */\n      dup4\n        /* \"main.sol\":1559:1863  Loan({... */\n      dup2\n      mstore\n      0x20\n      add\n        /* \"main.sol\":1812:1813  0 */\n      0x00\n        /* \"main.sol\":1559:1863  Loan({... */\n      dup2\n      mstore\n      0x20\n      add\n        /* \"main.sol\":1840:1852  _whitelisted */\n      dup3\n        /* \"main.sol\":1559:1863  Loan({... */\n      iszero\n      iszero\n      dup2\n      mstore\n      pop\n        /* \"main.sol\":1544:1549  loans */\n      0x01\n        /* \"main.sol\":1544:1556  loans[count] */\n      0x00\n        /* \"main.sol\":1550:1555  count */\n      dup1\n      sload\n        /* \"main.sol\":1544:1556  loans[count] */\n      dup2\n      mstore\n      0x20\n      add\n      swap1\n      dup2\n      mstore\n      0x20\n      add\n      0x00\n      keccak256\n        /* \"main.sol\":1544:1863  loans[count] = Loan({... */\n      0x00\n      dup3\n      add\n      mload\n      dup2\n      0x00\n      add\n      exp(0x0100, 0x00)\n      dup2\n      sload\n      dup2\n      0xffffffffffffffffffffffffffffffffffffffff\n      mul\n      not\n      and\n      swap1\n      dup4\n      0xffffffffffffffffffffffffffffffffffffffff\n      and\n      mul\n      or\n      swap1\n      sstore\n      pop\n      0x20\n      dup3\n      add\n      mload\n      dup2\n      0x01\n      add\n      exp(0x0100, 0x00)\n      dup2\n      sload\n      dup2\n      0xffffffffffffffffffffffffffffffffffffffff\n      mul\n      not\n      and\n      swap1\n      dup4\n      0xffffffffffffffffffffffffffffffffffffffff\n      and\n      mul\n      or\n      swap1\n      sstore\n      pop\n      0x40\n      dup3\n      add\n      mload\n      dup2\n      0x02\n      add\n      exp(0x0100, 0x00)\n      dup2\n      sload\n      dup2\n      0xffffffffffffffffffffffffffffffffffffffff\n      mul\n      not\n      and\n      swap1\n      dup4\n      0xffffffffffffffffffffffffffffffffffffffff\n      and\n      mul\n      or\n      swap1\n      sstore\n      pop\n      0x60\n      dup3\n      add\n      mload\n      dup2\n      0x03\n      add\n      sstore\n      0x80\n      dup3\n      add\n      mload\n      dup2\n      0x04\n      add\n      sstore\n      0xa0\n      dup3\n      add\n      mload\n      dup2\n      0x05\n      add\n      sstore\n      0xc0\n      dup3\n      add\n      mload\n      dup2\n      0x06\n      add\n      sstore\n      0xe0\n      dup3\n      add\n      mload\n      dup2\n      0x07\n      add\n      sstore\n      0x0100\n      dup3\n      add\n      mload\n      dup2\n      0x08\n      add\n      exp(0x0100, 0x00)\n      dup2\n      sload\n      dup2\n      0xff\n      mul\n      not\n      and\n      swap1\n      dup4\n      iszero\n      iszero\n      mul\n      or\n      swap1\n      sstore\n      pop\n      swap1\n      pop\n      pop\n        /* \"main.sol\":1898:1913  block.timestamp */\n      timestamp\n        /* \"main.sol\":1873:1877  bids */\n      0x02\n        /* \"main.sol\":1873:1884  bids[count] */\n      0x00\n        /* \"main.sol\":1878:1883  count */\n      dup1\n      sload\n        /* \"main.sol\":1873:1884  bids[count] */\n      dup2\n      mstore\n      0x20\n      add\n      swap1\n      dup2\n      mstore\n      0x20\n      add\n      0x00\n      keccak256\n        /* \"main.sol\":1873:1887  bids[count][0] */\n      0x00\n        /* \"main.sol\":1885:1886  0 */\n      dup1\n        /* \"main.sol\":1873:1887  bids[count][0] */\n      dup2\n      mstore\n      0x20\n      add\n      swap1\n      dup2\n      mstore\n      0x20\n      add\n      0x00\n      keccak256\n        /* \"main.sol\":1873:1895  bids[count][0].bidTime */\n      0x00\n      add\n        /* \"main.sol\":1873:1913  bids[count][0].bidTime = block.timestamp */\n      dup2\n      swap1\n      sstore\n      pop\n        /* \"main.sol\":1936:1941  count */\n      sload(0x00)\n        /* \"main.sol\":1928:1970  newPool(count, _collectionAddress, _nftId) */\n      0xef8b2952c43462575e82711d0cc91169720a4589a9fa533d173e022437f5405e\n        /* \"main.sol\":1943:1961  _collectionAddress */\n      dup8\n        /* \"main.sol\":1963:1969  _nftId */\n      dup8\n        /* \"main.sol\":1928:1970  newPool(count, _collectionAddress, _nftId) */\n      mload(0x40)\n      tag_84\n      swap3\n      swap2\n      swap1\n      tag_85\n      jump\t// in\n    tag_84:\n      mload(0x40)\n      dup1\n      swap2\n      sub\n      swap1\n      log2\n        /* \"main.sol\":1980:1985  count */\n      0x00\n      dup1\n        /* \"main.sol\":1980:1987  count++ */\n      dup2\n      sload\n      dup1\n      swap3\n      swap2\n      swap1\n      tag_86\n      swap1\n      tag_87\n      jump\t// in\n    tag_86:\n      swap2\n      swap1\n      pop\n      sstore\n      pop\n        /* \"main.sol\":1241:1994  function launch(address _token, address _collectionAddress, uint256 _nftId, uint256 _startTime, uint256 _endTime, uint256 _apr, bool _whitelisted) public {... */\n      pop\n      pop\n      pop\n      pop\n      pop\n      pop\n      pop\n      jump\t// out\n        /* \"main.sol\":3841:4085  function cancel(uint256 _poolId) external onlyOwner(_poolId) {... */\n    tag_30:\n        /* \"main.sol\":3893:3900  _poolId */\n      dup1\n        /* \"main.sol\":1188:1198  msg.sender */\n      caller\n        /* \"main.sol\":1164:1198  loans[_poolId].owner == msg.sender */\n      0xffffffffffffffffffffffffffffffffffffffff\n      and\n        /* \"main.sol\":1164:1169  loans */\n      0x01\n        /* \"main.sol\":1164:1178  loans[_poolId] */\n      0x00\n        /* \"main.sol\":1170:1177  _poolId */\n      dup4\n        /* \"main.sol\":1164:1178  loans[_poolId] */\n      dup2\n      mstore\n      0x20\n      add\n      swap1\n      dup2\n      mstore\n      0x20\n      add\n      0x00\n      keccak256\n        /* \"main.sol\":1164:1184  loans[_poolId].owner */\n      0x00\n      add\n      0x00\n      swap1\n      sload\n      swap1\n      0x0100\n      exp\n      swap1\n      div\n      0xffffffffffffffffffffffffffffffffffffffff\n      and\n        /* \"main.sol\":1164:1198  loans[_poolId].owner == msg.sender */\n      0xffffffffffffffffffffffffffffffffffffffff\n      and\n      eq\n        /* \"main.sol\":1156:1217  require(loans[_poolId].owner == msg.sender, \"LAN: not owner\") */\n      tag_89\n      jumpi\n      mload(0x40)\n      0x08c379a000000000000000000000000000000000000000000000000000000000\n      dup2\n      mstore\n      0x04\n      add\n      tag_90\n      swap1\n      tag_67\n      jump\t// in\n    tag_90:\n      mload(0x40)\n      dup1\n      swap2\n      sub\n      swap1\n      revert\n    tag_89:\n        /* \"main.sol\":3912:3928  Loan memory loan */\n      0x00\n        /* \"main.sol\":3931:3936  loans */\n      0x01\n        /* \"main.sol\":3931:3945  loans[_poolId] */\n      0x00\n        /* \"main.sol\":3937:3944  _poolId */\n      dup5\n        /* \"main.sol\":3931:3945  loans[_poolId] */\n      dup2\n      mstore\n      0x20\n      add\n      swap1\n      dup2\n      mstore\n      0x20\n      add\n      0x00\n      keccak256\n        /* \"main.sol\":3912:3945  Loan memory loan = loans[_poolId] */\n      mload(0x40)\n      dup1\n      0x0120\n      add\n      0x40\n      mstore\n      swap1\n      dup2\n      0x00\n      dup3\n      add\n      0x00\n      swap1\n      sload\n      swap1\n      0x0100\n      exp\n      swap1\n      div\n      0xffffffffffffffffffffffffffffffffffffffff\n      and\n      0xffffffffffffffffffffffffffffffffffffffff\n      and\n      0xffffffffffffffffffffffffffffffffffffffff\n      and\n      dup2\n      mstore\n      0x20\n      add\n      0x01\n      dup3\n      add\n      0x00\n      swap1\n      sload\n      swap1\n      0x0100\n      exp\n      swap1\n      div\n      0xffffffffffffffffffffffffffffffffffffffff\n      and\n      0xffffffffffffffffffffffffffffffffffffffff\n      and\n      0xffffffffffffffffffffffffffffffffffffffff\n      and\n      dup2\n      mstore\n      0x20\n      add\n      0x02\n      dup3\n      add\n      0x00\n      swap1\n      sload\n      swap1\n      0x0100\n      exp\n      swap1\n      div\n      0xffffffffffffffffffffffffffffffffffffffff\n      and\n      0xffffffffffffffffffffffffffffffffffffffff\n      and\n      0xffffffffffffffffffffffffffffffffffffffff\n      and\n      dup2\n      mstore\n      0x20\n      add\n      0x03\n      dup3\n      add\n      sload\n      dup2\n      mstore\n      0x20\n      add\n      0x04\n      dup3\n      add\n      sload\n      dup2\n      mstore\n      0x20\n      add\n      0x05\n      dup3\n      add\n      sload\n      dup2\n      mstore\n      0x20\n      add\n      0x06\n      dup3\n      add\n      sload\n      dup2\n      mstore\n      0x20\n      add\n      0x07\n      dup3\n      add\n      sload\n      dup2\n      mstore\n      0x20\n      add\n      0x08\n      dup3\n      add\n      0x00\n      swap1\n      sload\n      swap1\n      0x0100\n      exp\n      swap1\n      div\n      0xff\n      and\n      iszero\n      iszero\n      iszero\n      iszero\n      dup2\n      mstore\n      pop\n      pop\n      swap1\n      pop\n        /* \"main.sol\":3980:3995  block.timestamp */\n      timestamp\n        /* \"main.sol\":3963:3967  loan */\n      dup2\n        /* \"main.sol\":3963:3977  loan.startTime */\n      0x80\n      add\n      mload\n        /* \"main.sol\":3963:3995  loan.startTime > block.timestamp */\n      gt\n        /* \"main.sol\":3955:4020  require(loan.startTime > block.timestamp, \"LAN: already started\") */\n      tag_92\n      jumpi\n      mload(0x40)\n      0x08c379a000000000000000000000000000000000000000000000000000000000\n      dup2\n      mstore\n      0x04\n      add\n      tag_93\n      swap1\n      tag_94\n      jump\t// in\n    tag_93:\n      mload(0x40)\n      dup1\n      swap2\n      sub\n      swap1\n      revert\n    tag_92:\n        /* \"main.sol\":4030:4041  delete loan */\n      tag_95\n      tag_96\n      jump\t// in\n    tag_95:\n      swap1\n      pop\n        /* \"main.sol\":4056:4078  loanCancelled(_poolId) */\n      0xfe785ef891129b084b1c5a30e4d88eb97c97822c024cc25d5f9d806b897512e0\n        /* \"main.sol\":4070:4077  _poolId */\n      dup4\n        /* \"main.sol\":4056:4078  loanCancelled(_poolId) */\n      mload(0x40)\n      tag_97\n      swap2\n      swap1\n      tag_19\n      jump\t// in\n    tag_97:\n      mload(0x40)\n      dup1\n      swap2\n      sub\n      swap1\n      log1\n        /* \"main.sol\":3902:4085  {... */\n      pop\n        /* \"main.sol\":3841:4085  function cancel(uint256 _poolId) external onlyOwner(_poolId) {... */\n      pop\n      pop\n      jump\t// out\n        /* \"main.sol\":4655:5088  function liquidate(uint256 _poolId) external {... */\n    tag_33:\n        /* \"main.sol\":4710:4726  Loan memory loan */\n      0x00\n        /* \"main.sol\":4729:4734  loans */\n      0x01\n        /* \"main.sol\":4729:4743  loans[_poolId] */\n      0x00\n        /* \"main.sol\":4735:4742  _poolId */\n      dup4\n        /* \"main.sol\":4729:4743  loans[_poolId] */\n      dup2\n      mstore\n      0x20\n      add\n      swap1\n      dup2\n      mstore\n      0x20\n      add\n      0x00\n      keccak256\n        /* \"main.sol\":4710:4743  Loan memory loan = loans[_poolId] */\n      mload(0x40)\n      dup1\n      0x0120\n      add\n      0x40\n      mstore\n      swap1\n      dup2\n      0x00\n      dup3\n      add\n      0x00\n      swap1\n      sload\n      swap1\n      0x0100\n      exp\n      swap1\n      div\n      0xffffffffffffffffffffffffffffffffffffffff\n      and\n      0xffffffffffffffffffffffffffffffffffffffff\n      and\n      0xffffffffffffffffffffffffffffffffffffffff\n      and\n      dup2\n      mstore\n      0x20\n      add\n      0x01\n      dup3\n      add\n      0x00\n      swap1\n      sload\n      swap1\n      0x0100\n      exp\n      swap1\n      div\n      0xffffffffffffffffffffffffffffffffffffffff\n      and\n      0xffffffffffffffffffffffffffffffffffffffff\n      and\n      0xffffffffffffffffffffffffffffffffffffffff\n      and\n      dup2\n      mstore\n      0x20\n      add\n      0x02\n      dup3\n      add\n      0x00\n      swap1\n      sload\n      swap1\n      0x0100\n      exp\n      swap1\n      div\n      0xffffffffffffffffffffffffffffffffffffffff\n      and\n      0xffffffffffffffffffffffffffffffffffffffff\n      and\n      0xffffffffffffffffffffffffffffffffffffffff\n      and\n      dup2\n      mstore\n      0x20\n      add\n      0x03\n      dup3\n      add\n      sload\n      dup2\n      mstore\n      0x20\n      add\n      0x04\n      dup3\n      add\n      sload\n      dup2\n      mstore\n      0x20\n      add\n      0x05\n      dup3\n      add\n      sload\n      dup2\n      mstore\n      0x20\n      add\n      0x06\n      dup3\n      add\n      sload\n      dup2\n      mstore\n      0x20\n      add\n      0x07\n      dup3\n      add\n      sload\n      dup2\n      mstore\n      0x20\n      add\n      0x08\n      dup3\n      add\n      0x00\n      swap1\n      sload\n      swap1\n      0x0100\n      exp\n      swap1\n      div\n      0xff\n      and\n      iszero\n      iszero\n      iszero\n      iszero\n      dup2\n      mstore\n      pop\n      pop\n      swap1\n      pop\n        /* \"main.sol\":4761:4776  _ended(_poolId) */\n      tag_99\n        /* \"main.sol\":4768:4775  _poolId */\n      dup3\n        /* \"main.sol\":4761:4767  _ended */\n      tag_100\n        /* \"main.sol\":4761:4776  _ended(_poolId) */\n      jump\t// in\n    tag_99:\n        /* \"main.sol\":4753:4800  require(_ended(_poolId), \"LAN: loan not ended\") */\n      tag_101\n      jumpi\n      mload(0x40)\n      0x08c379a000000000000000000000000000000000000000000000000000000000\n      dup2\n      mstore\n      0x04\n      add\n      tag_102\n      swap1\n      tag_103\n      jump\t// in\n    tag_102:\n      mload(0x40)\n      dup1\n      swap2\n      sub\n      swap1\n      revert\n    tag_101:\n        /* \"main.sol\":4810:4830  Bid memory latestBid */\n      0x00\n        /* \"main.sol\":4833:4837  bids */\n      0x02\n        /* \"main.sol\":4833:4846  bids[_poolId] */\n      0x00\n        /* \"main.sol\":4838:4845  _poolId */\n      dup5\n        /* \"main.sol\":4833:4846  bids[_poolId] */\n      dup2\n      mstore\n      0x20\n      add\n      swap1\n      dup2\n      mstore\n      0x20\n      add\n      0x00\n      keccak256\n        /* \"main.sol\":4833:4860  bids[_poolId][loan.numBids] */\n      0x00\n        /* \"main.sol\":4847:4851  loan */\n      dup4\n        /* \"main.sol\":4847:4859  loan.numBids */\n      0xe0\n      add\n      mload\n        /* \"main.sol\":4833:4860  bids[_poolId][loan.numBids] */\n      dup2\n      mstore\n      0x20\n      add\n      swap1\n      dup2\n      mstore\n      0x20\n      add\n      0x00\n      keccak256\n        /* \"main.sol\":4810:4860  Bid memory latestBid = bids[_poolId][loan.numBids] */\n      mload(0x40)\n      dup1\n      0x60\n      add\n      0x40\n      mstore\n      swap1\n      dup2\n      0x00\n      dup3\n      add\n      sload\n      dup2\n      mstore\n      0x20\n      add\n      0x01\n      dup3\n      add\n      sload\n      dup2\n      mstore\n      0x20\n      add\n      0x02\n      dup3\n      add\n      0x00\n      swap1\n      sload\n      swap1\n      0x0100\n      exp\n      swap1\n      div\n      0xffffffffffffffffffffffffffffffffffffffff\n      and\n      0xffffffffffffffffffffffffffffffffffffffff\n      and\n      0xffffffffffffffffffffffffffffffffffffffff\n      and\n      dup2\n      mstore\n      pop\n      pop\n      swap1\n      pop\n        /* \"main.sol\":4896:4906  msg.sender */\n      caller\n        /* \"main.sol\":4878:4906  latestBid.user == msg.sender */\n      0xffffffffffffffffffffffffffffffffffffffff\n      and\n        /* \"main.sol\":4878:4887  latestBid */\n      dup2\n        /* \"main.sol\":4878:4892  latestBid.user */\n      0x40\n      add\n      mload\n        /* \"main.sol\":4878:4906  latestBid.user == msg.sender */\n      0xffffffffffffffffffffffffffffffffffffffff\n      and\n      eq\n        /* \"main.sol\":4870:4933  require(latestBid.user == msg.sender, \"LAN: not latest bidder\") */\n      tag_104\n      jumpi\n      mload(0x40)\n      0x08c379a000000000000000000000000000000000000000000000000000000000\n      dup2\n      mstore\n      0x04\n      add\n      tag_105\n      swap1\n      tag_71\n      jump\t// in\n    tag_105:\n      mload(0x40)\n      dup1\n      swap2\n      sub\n      swap1\n      revert\n    tag_104:\n        /* \"main.sol\":4967:4978  IERC721 NFT */\n      0x00\n        /* \"main.sol\":4989:4993  loan */\n      dup3\n        /* \"main.sol\":4989:5011  loan.collectionAddress */\n      0x40\n      add\n      mload\n        /* \"main.sol\":4967:5012  IERC721 NFT = IERC721(loan.collectionAddress) */\n      swap1\n      pop\n        /* \"main.sol\":5022:5025  NFT */\n      dup1\n        /* \"main.sol\":5022:5042  NFT.safeTransferFrom */\n      0xffffffffffffffffffffffffffffffffffffffff\n      and\n      0x42842e0e\n        /* \"main.sol\":5051:5055  this */\n      address\n        /* \"main.sol\":5058:5068  msg.sender */\n      caller\n        /* \"main.sol\":5070:5074  loan */\n      dup7\n        /* \"main.sol\":5070:5080  loan.nftId */\n      0x60\n      add\n      mload\n        /* \"main.sol\":5022:5081  NFT.safeTransferFrom(address(this), msg.sender, loan.nftId) */\n      mload(0x40)\n      dup5\n      0xffffffff\n      and\n      0xe0\n      shl\n      dup2\n      mstore\n      0x04\n      add\n      tag_106\n      swap4\n      swap3\n      swap2\n      swap1\n      tag_73\n      jump\t// in\n    tag_106:\n      0x00\n      mload(0x40)\n      dup1\n      dup4\n      sub\n      dup2\n      0x00\n      dup8\n      dup1\n      extcodesize\n      iszero\n      dup1\n      iszero\n      tag_107\n      jumpi\n      0x00\n      dup1\n      revert\n    tag_107:\n      pop\n      gas\n      call\n      iszero\n      dup1\n      iszero\n      tag_109\n      jumpi\n      returndatasize\n      0x00\n      dup1\n      returndatacopy\n      revert(0x00, returndatasize)\n    tag_109:\n      pop\n      pop\n      pop\n      pop\n        /* \"main.sol\":4700:5088  {... */\n      pop\n      pop\n      pop\n        /* \"main.sol\":4655:5088  function liquidate(uint256 _poolId) external {... */\n      pop\n      jump\t// out\n        /* \"main.sol\":2000:3053  function bid(uint256 _poolId, uint256 _amount) external {... */\n    tag_37:\n        /* \"main.sol\":2074:2091  _started(_poolId) */\n      tag_111\n        /* \"main.sol\":2083:2090  _poolId */\n      dup3\n        /* \"main.sol\":2074:2082  _started */\n      tag_112\n        /* \"main.sol\":2074:2091  _started(_poolId) */\n      jump\t// in\n    tag_111:\n        /* \"main.sol\":2066:2112  require(_started(_poolId), \"LAN: not started\") */\n      tag_113\n      jumpi\n      mload(0x40)\n      0x08c379a000000000000000000000000000000000000000000000000000000000\n      dup2\n      mstore\n      0x04\n      add\n      tag_114\n      swap1\n      tag_115\n      jump\t// in\n    tag_114:\n      mload(0x40)\n      dup1\n      swap2\n      sub\n      swap1\n      revert\n    tag_113:\n        /* \"main.sol\":2131:2146  _ended(_poolId) */\n      tag_116\n        /* \"main.sol\":2138:2145  _poolId */\n      dup3\n        /* \"main.sol\":2131:2137  _ended */\n      tag_100\n        /* \"main.sol\":2131:2146  _ended(_poolId) */\n      jump\t// in\n    tag_116:\n        /* \"main.sol\":2130:2146  !_ended(_poolId) */\n      iszero\n        /* \"main.sol\":2122:2169  require(!_ended(_poolId), \"LAN: already ended\") */\n      tag_117\n      jumpi\n      mload(0x40)\n      0x08c379a000000000000000000000000000000000000000000000000000000000\n      dup2\n      mstore\n      0x04\n      add\n      tag_118\n      swap1\n      tag_119\n      jump\t// in\n    tag_118:\n      mload(0x40)\n      dup1\n      swap2\n      sub\n      swap1\n      revert\n    tag_117:\n        /* \"main.sol\":2179:2195  Loan memory loan */\n      0x00\n        /* \"main.sol\":2198:2203  loans */\n      0x01\n        /* \"main.sol\":2198:2212  loans[_poolId] */\n      0x00\n        /* \"main.sol\":2204:2211  _poolId */\n      dup5\n        /* \"main.sol\":2198:2212  loans[_poolId] */\n      dup2\n      mstore\n      0x20\n      add\n      swap1\n      dup2\n      mstore\n      0x20\n      add\n      0x00\n      keccak256\n        /* \"main.sol\":2179:2212  Loan memory loan = loans[_poolId] */\n      mload(0x40)\n      dup1\n      0x0120\n      add\n      0x40\n      mstore\n      swap1\n      dup2\n      0x00\n      dup3\n      add\n      0x00\n      swap1\n      sload\n      swap1\n      0x0100\n      exp\n      swap1\n      div\n      0xffffffffffffffffffffffffffffffffffffffff\n      and\n      0xffffffffffffffffffffffffffffffffffffffff\n      and\n      0xffffffffffffffffffffffffffffffffffffffff\n      and\n      dup2\n      mstore\n      0x20\n      add\n      0x01\n      dup3\n      add\n      0x00\n      swap1\n      sload\n      swap1\n      0x0100\n      exp\n      swap1\n      div\n      0xffffffffffffffffffffffffffffffffffffffff\n      and\n      0xffffffffffffffffffffffffffffffffffffffff\n      and\n      0xffffffffffffffffffffffffffffffffffffffff\n      and\n      dup2\n      mstore\n      0x20\n      add\n      0x02\n      dup3\n      add\n      0x00\n      swap1\n      sload\n      swap1\n      0x0100\n      exp\n      swap1\n      div\n      0xffffffffffffffffffffffffffffffffffffffff\n      and\n      0xffffffffffffffffffffffffffffffffffffffff\n      and\n      0xffffffffffffffffffffffffffffffffffffffff\n      and\n      dup2\n      mstore\n      0x20\n      add\n      0x03\n      dup3\n      add\n      sload\n      dup2\n      mstore\n      0x20\n      add\n      0x04\n      dup3\n      add\n      sload\n      dup2\n      mstore\n      0x20\n      add\n      0x05\n      dup3\n      add\n      sload\n      dup2\n      mstore\n      0x20\n      add\n      0x06\n      dup3\n      add\n      sload\n      dup2\n      mstore\n      0x20\n      add\n      0x07\n      dup3\n      add\n      sload\n      dup2\n      mstore\n      0x20\n      add\n      0x08\n      dup3\n      add\n      0x00\n      swap1\n      sload\n      swap1\n      0x0100\n      exp\n      swap1\n      div\n      0xff\n      and\n      iszero\n      iszero\n      iszero\n      iszero\n      dup2\n      mstore\n      pop\n      pop\n      swap1\n      pop\n        /* \"main.sol\":2231:2235  loan */\n      dup1\n        /* \"main.sol\":2231:2247  loan.whitelisted */\n      0x0100\n      add\n      mload\n        /* \"main.sol\":2230:2295  (loan.whitelisted) && (whitelistedAddresses[_poolId][msg.sender]) */\n      dup1\n      iszero\n      tag_120\n      jumpi\n      pop\n        /* \"main.sol\":2253:2273  whitelistedAddresses */\n      0x03\n        /* \"main.sol\":2253:2282  whitelistedAddresses[_poolId] */\n      0x00\n        /* \"main.sol\":2274:2281  _poolId */\n      dup5\n        /* \"main.sol\":2253:2282  whitelistedAddresses[_poolId] */\n      dup2\n      mstore\n      0x20\n      add\n      swap1\n      dup2\n      mstore\n      0x20\n      add\n      0x00\n      keccak256\n        /* \"main.sol\":2253:2294  whitelistedAddresses[_poolId][msg.sender] */\n      0x00\n        /* \"main.sol\":2283:2293  msg.sender */\n      caller\n        /* \"main.sol\":2253:2294  whitelistedAddresses[_poolId][msg.sender] */\n      0xffffffffffffffffffffffffffffffffffffffff\n      and\n      0xffffffffffffffffffffffffffffffffffffffff\n      and\n      dup2\n      mstore\n      0x20\n      add\n      swap1\n      dup2\n      mstore\n      0x20\n      add\n      0x00\n      keccak256\n      0x00\n      swap1\n      sload\n      swap1\n      0x0100\n      exp\n      swap1\n      div\n      0xff\n      and\n        /* \"main.sol\":2230:2295  (loan.whitelisted) && (whitelistedAddresses[_poolId][msg.sender]) */\n    tag_120:\n        /* \"main.sol\":2230:2335  (loan.whitelisted) && (whitelistedAddresses[_poolId][msg.sender])... */\n      dup1\n      tag_121\n      jumpi\n      pop\n        /* \"main.sol\":2329:2334  false */\n      0x00\n        /* \"main.sol\":2309:2334  loan.whitelisted == false */\n      iszero\n      iszero\n        /* \"main.sol\":2309:2313  loan */\n      dup2\n        /* \"main.sol\":2309:2325  loan.whitelisted */\n      0x0100\n      add\n      mload\n        /* \"main.sol\":2309:2334  loan.whitelisted == false */\n      iszero\n      iszero\n      eq\n        /* \"main.sol\":2230:2335  (loan.whitelisted) && (whitelistedAddresses[_poolId][msg.sender])... */\n    tag_121:\n        /* \"main.sol\":2222:2360  require((loan.whitelisted) && (whitelistedAddresses[_poolId][msg.sender])... */\n      tag_122\n      jumpi\n      mload(0x40)\n      0x08c379a000000000000000000000000000000000000000000000000000000000\n      dup2\n      mstore\n      0x04\n      add\n      tag_123\n      swap1\n      tag_124\n      jump\t// in\n    tag_123:\n      mload(0x40)\n      dup1\n      swap2\n      sub\n      swap1\n      revert\n    tag_122:\n        /* \"main.sol\":2401:2416  uint256 numBids */\n      0x00\n        /* \"main.sol\":2434:2435  1 */\n      0x01\n        /* \"main.sol\":2419:2423  loan */\n      dup3\n        /* \"main.sol\":2419:2431  loan.numBids */\n      0xe0\n      add\n      mload\n        /* \"main.sol\":2419:2435  loan.numBids + 1 */\n      tag_125\n      swap2\n      swap1\n      tag_126\n      jump\t// in\n    tag_125:\n        /* \"main.sol\":2401:2435  uint256 numBids = loan.numBids + 1 */\n      swap1\n      pop\n        /* \"main.sol\":2461:2468  numBids */\n      dup1\n        /* \"main.sol\":2446:2450  loan */\n      dup3\n        /* \"main.sol\":2446:2458  loan.numBids */\n      0xe0\n      add\n        /* \"main.sol\":2446:2468  loan.numBids = numBids */\n      dup2\n      dup2\n      mstore\n      pop\n      pop\n        /* \"main.sol\":2478:2495  uint256 loanValue */\n      0x00\n        /* \"main.sol\":2498:2526  _calculateLoanValue(_poolId) */\n      tag_127\n        /* \"main.sol\":2518:2525  _poolId */\n      dup6\n        /* \"main.sol\":2498:2517  _calculateLoanValue */\n      tag_128\n        /* \"main.sol\":2498:2526  _calculateLoanValue(_poolId) */\n      jump\t// in\n    tag_127:\n        /* \"main.sol\":2478:2526  uint256 loanValue = _calculateLoanValue(_poolId) */\n      swap1\n      pop\n        /* \"main.sol\":2554:2563  loanValue */\n      dup1\n        /* \"main.sol\":2544:2551  _amount */\n      dup5\n        /* \"main.sol\":2544:2563  _amount > loanValue */\n      gt\n        /* \"main.sol\":2536:2587  require(_amount > loanValue, \"LAN: bid not higher\") */\n      tag_129\n      jumpi\n      mload(0x40)\n      0x08c379a000000000000000000000000000000000000000000000000000000000\n      dup2\n      mstore\n      0x04\n      add\n      tag_130\n      swap1\n      tag_131\n      jump\t// in\n    tag_130:\n      mload(0x40)\n      dup1\n      swap2\n      sub\n      swap1\n      revert\n    tag_129:\n        /* \"main.sol\":2646:2650  loan */\n      dup3\n        /* \"main.sol\":2646:2656  loan.token */\n      0x20\n      add\n      mload\n        /* \"main.sol\":2639:2670  IERC20(loan.token).transferFrom */\n      0xffffffffffffffffffffffffffffffffffffffff\n      and\n      0x23b872dd\n        /* \"main.sol\":2671:2681  msg.sender */\n      caller\n        /* \"main.sol\":2683:2687  bids */\n      0x02\n        /* \"main.sol\":2683:2696  bids[_poolId] */\n      0x00\n        /* \"main.sol\":2688:2695  _poolId */\n      dup10\n        /* \"main.sol\":2683:2696  bids[_poolId] */\n      dup2\n      mstore\n      0x20\n      add\n      swap1\n      dup2\n      mstore\n      0x20\n      add\n      0x00\n      keccak256\n        /* \"main.sol\":2683:2705  bids[_poolId][numBids] */\n      0x00\n        /* \"main.sol\":2697:2704  numBids */\n      dup7\n        /* \"main.sol\":2683:2705  bids[_poolId][numBids] */\n      dup2\n      mstore\n      0x20\n      add\n      swap1\n      dup2\n      mstore\n      0x20\n      add\n      0x00\n      keccak256\n        /* \"main.sol\":2683:2710  bids[_poolId][numBids].user */\n      0x02\n      add\n      0x00\n      swap1\n      sload\n      swap1\n      0x0100\n      exp\n      swap1\n      div\n      0xffffffffffffffffffffffffffffffffffffffff\n      and\n        /* \"main.sol\":2712:2721  loanValue */\n      dup5\n        /* \"main.sol\":2639:2722  IERC20(loan.token).transferFrom(msg.sender, bids[_poolId][numBids].user, loanValue) */\n      mload(0x40)\n      dup5\n      0xffffffff\n      and\n      0xe0\n      shl\n      dup2\n      mstore\n      0x04\n      add\n      tag_132\n      swap4\n      swap3\n      swap2\n      swap1\n      tag_73\n      jump\t// in\n    tag_132:\n      0x20\n      mload(0x40)\n      dup1\n      dup4\n      sub\n      dup2\n      0x00\n      dup8\n      gas\n      call\n      iszero\n      dup1\n      iszero\n      tag_134\n      jumpi\n      returndatasize\n      0x00\n      dup1\n      returndatacopy\n      revert(0x00, returndatasize)\n    tag_134:\n      pop\n      pop\n      pop\n      pop\n      mload(0x40)\n      returndatasize\n      not(0x1f)\n      0x1f\n      dup3\n      add\n      and\n      dup3\n      add\n      dup1\n      0x40\n      mstore\n      pop\n      dup2\n      add\n      swap1\n      tag_135\n      swap2\n      swap1\n      tag_136\n      jump\t// in\n    tag_135:\n      pop\n        /* \"main.sol\":2771:2775  loan */\n      dup3\n        /* \"main.sol\":2771:2781  loan.token */\n      0x20\n      add\n      mload\n        /* \"main.sol\":2764:2795  IERC20(loan.token).transferFrom */\n      0xffffffffffffffffffffffffffffffffffffffff\n      and\n      0x23b872dd\n        /* \"main.sol\":2796:2806  msg.sender */\n      caller\n        /* \"main.sol\":2808:2812  loan */\n      dup6\n        /* \"main.sol\":2808:2818  loan.owner */\n      0x00\n      add\n      mload\n        /* \"main.sol\":2830:2839  loanValue */\n      dup5\n        /* \"main.sol\":2820:2827  _amount */\n      dup9\n        /* \"main.sol\":2820:2839  _amount - loanValue */\n      tag_137\n      swap2\n      swap1\n      tag_138\n      jump\t// in\n    tag_137:\n        /* \"main.sol\":2764:2840  IERC20(loan.token).transferFrom(msg.sender, loan.owner, _amount - loanValue) */\n      mload(0x40)\n      dup5\n      0xffffffff\n      and\n      0xe0\n      shl\n      dup2\n      mstore\n      0x04\n      add\n      tag_139\n      swap4\n      swap3\n      swap2\n      swap1\n      tag_73\n      jump\t// in\n    tag_139:\n      0x20\n      mload(0x40)\n      dup1\n      dup4\n      sub\n      dup2\n      0x00\n      dup8\n      gas\n      call\n      iszero\n      dup1\n      iszero\n      tag_141\n      jumpi\n      returndatasize\n      0x00\n      dup1\n      returndatacopy\n      revert(0x00, returndatasize)\n    tag_141:\n      pop\n      pop\n      pop\n      pop\n      mload(0x40)\n      returndatasize\n      not(0x1f)\n      0x1f\n      dup3\n      add\n      and\n      dup3\n      add\n      dup1\n      0x40\n      mstore\n      pop\n      dup2\n      add\n      swap1\n      tag_142\n      swap2\n      swap1\n      tag_136\n      jump\t// in\n    tag_142:\n      pop\n        /* \"main.sol\":2908:3046  Bid({... */\n      mload(0x40)\n      dup1\n      0x60\n      add\n      0x40\n      mstore\n      dup1\n        /* \"main.sol\":2935:2950  block.timestamp */\n      timestamp\n        /* \"main.sol\":2908:3046  Bid({... */\n      dup2\n      mstore\n      0x20\n      add\n        /* \"main.sol\":2975:2982  _amount */\n      dup6\n        /* \"main.sol\":2908:3046  Bid({... */\n      dup2\n      mstore\n      0x20\n      add\n        /* \"main.sol\":3002:3012  msg.sender */\n      caller\n        /* \"main.sol\":2908:3046  Bid({... */\n      0xffffffffffffffffffffffffffffffffffffffff\n      and\n      dup2\n      mstore\n      pop\n        /* \"main.sol\":2883:2887  bids */\n      0x02\n        /* \"main.sol\":2883:2896  bids[_poolId] */\n      0x00\n        /* \"main.sol\":2888:2895  _poolId */\n      dup8\n        /* \"main.sol\":2883:2896  bids[_poolId] */\n      dup2\n      mstore\n      0x20\n      add\n      swap1\n      dup2\n      mstore\n      0x20\n      add\n      0x00\n      keccak256\n        /* \"main.sol\":2883:2905  bids[_poolId][numBids] */\n      0x00\n        /* \"main.sol\":2897:2904  numBids */\n      dup5\n        /* \"main.sol\":2883:2905  bids[_poolId][numBids] */\n      dup2\n      mstore\n      0x20\n      add\n      swap1\n      dup2\n      mstore\n      0x20\n      add\n      0x00\n      keccak256\n        /* \"main.sol\":2883:3046  bids[_poolId][numBids] = Bid({... */\n      0x00\n      dup3\n      add\n      mload\n      dup2\n      0x00\n      add\n      sstore\n      0x20\n      dup3\n      add\n      mload\n      dup2\n      0x01\n      add\n      sstore\n      0x40\n      dup3\n      add\n      mload\n      dup2\n      0x02\n      add\n      exp(0x0100, 0x00)\n      dup2\n      sload\n      dup2\n      0xffffffffffffffffffffffffffffffffffffffff\n      mul\n      not\n      and\n      swap1\n      dup4\n      0xffffffffffffffffffffffffffffffffffffffff\n      and\n      mul\n      or\n      swap1\n      sstore\n      pop\n      swap1\n      pop\n      pop\n        /* \"main.sol\":2056:3053  {... */\n      pop\n      pop\n      pop\n        /* \"main.sol\":2000:3053  function bid(uint256 _poolId, uint256 _amount) external {... */\n      pop\n      pop\n      jump\t// out\n        /* \"main.sol\":4124:4601  function endLoan(uint256 _poolId) external onlyOwner(_poolId) {... */\n    tag_40:\n        /* \"main.sol\":4177:4184  _poolId */\n      dup1\n        /* \"main.sol\":1188:1198  msg.sender */\n      caller\n        /* \"main.sol\":1164:1198  loans[_poolId].owner == msg.sender */\n      0xffffffffffffffffffffffffffffffffffffffff\n      and\n        /* \"main.sol\":1164:1169  loans */\n      0x01\n        /* \"main.sol\":1164:1178  loans[_poolId] */\n      0x00\n        /* \"main.sol\":1170:1177  _poolId */\n      dup4\n        /* \"main.sol\":1164:1178  loans[_poolId] */\n      dup2\n      mstore\n      0x20\n      add\n      swap1\n      dup2\n      mstore\n      0x20\n      add\n      0x00\n      keccak256\n        /* \"main.sol\":1164:1184  loans[_poolId].owner */\n      0x00\n      add\n      0x00\n      swap1\n      sload\n      swap1\n      0x0100\n      exp\n      swap1\n      div\n      0xffffffffffffffffffffffffffffffffffffffff\n      and\n        /* \"main.sol\":1164:1198  loans[_poolId].owner == msg.sender */\n      0xffffffffffffffffffffffffffffffffffffffff\n      and\n      eq\n        /* \"main.sol\":1156:1217  require(loans[_poolId].owner == msg.sender, \"LAN: not owner\") */\n      tag_144\n      jumpi\n      mload(0x40)\n      0x08c379a000000000000000000000000000000000000000000000000000000000\n      dup2\n      mstore\n      0x04\n      add\n      tag_145\n      swap1\n      tag_67\n      jump\t// in\n    tag_145:\n      mload(0x40)\n      dup1\n      swap2\n      sub\n      swap1\n      revert\n    tag_144:\n        /* \"main.sol\":4196:4212  Loan memory loan */\n      0x00\n        /* \"main.sol\":4215:4220  loans */\n      0x01\n        /* \"main.sol\":4215:4229  loans[_poolId] */\n      0x00\n        /* \"main.sol\":4221:4228  _poolId */\n      dup5\n        /* \"main.sol\":4215:4229  loans[_poolId] */\n      dup2\n      mstore\n      0x20\n      add\n      swap1\n      dup2\n      mstore\n      0x20\n      add\n      0x00\n      keccak256\n        /* \"main.sol\":4196:4229  Loan memory loan = loans[_poolId] */\n      mload(0x40)\n      dup1\n      0x0120\n      add\n      0x40\n      mstore\n      swap1\n      dup2\n      0x00\n      dup3\n      add\n      0x00\n      swap1\n      sload\n      swap1\n      0x0100\n      exp\n      swap1\n      div\n      0xffffffffffffffffffffffffffffffffffffffff\n      and\n      0xffffffffffffffffffffffffffffffffffffffff\n      and\n      0xffffffffffffffffffffffffffffffffffffffff\n      and\n      dup2\n      mstore\n      0x20\n      add\n      0x01\n      dup3\n      add\n      0x00\n      swap1\n      sload\n      swap1\n      0x0100\n      exp\n      swap1\n      div\n      0xffffffffffffffffffffffffffffffffffffffff\n      and\n      0xffffffffffffffffffffffffffffffffffffffff\n      and\n      0xffffffffffffffffffffffffffffffffffffffff\n      and\n      dup2\n      mstore\n      0x20\n      add\n      0x02\n      dup3\n      add\n      0x00\n      swap1\n      sload\n      swap1\n      0x0100\n      exp\n      swap1\n      div\n      0xffffffffffffffffffffffffffffffffffffffff\n      and\n      0xffffffffffffffffffffffffffffffffffffffff\n      and\n      0xffffffffffffffffffffffffffffffffffffffff\n      and\n      dup2\n      mstore\n      0x20\n      add\n      0x03\n      dup3\n      add\n      sload\n      dup2\n      mstore\n      0x20\n      add\n      0x04\n      dup3\n      add\n      sload\n      dup2\n      mstore\n      0x20\n      add\n      0x05\n      dup3\n      add\n      sload\n      dup2\n      mstore\n      0x20\n      add\n      0x06\n      dup3\n      add\n      sload\n      dup2\n      mstore\n      0x20\n      add\n      0x07\n      dup3\n      add\n      sload\n      dup2\n      mstore\n      0x20\n      add\n      0x08\n      dup3\n      add\n      0x00\n      swap1\n      sload\n      swap1\n      0x0100\n      exp\n      swap1\n      div\n      0xff\n      and\n      iszero\n      iszero\n      iszero\n      iszero\n      dup2\n      mstore\n      pop\n      pop\n      swap1\n      pop\n        /* \"main.sol\":4239:4259  Bid memory latestBid */\n      0x00\n        /* \"main.sol\":4262:4266  bids */\n      0x02\n        /* \"main.sol\":4262:4275  bids[_poolId] */\n      0x00\n        /* \"main.sol\":4267:4274  _poolId */\n      dup6\n        /* \"main.sol\":4262:4275  bids[_poolId] */\n      dup2\n      mstore\n      0x20\n      add\n      swap1\n      dup2\n      mstore\n      0x20\n      add\n      0x00\n      keccak256\n        /* \"main.sol\":4262:4289  bids[_poolId][loan.numBids] */\n      0x00\n        /* \"main.sol\":4276:4280  loan */\n      dup4\n        /* \"main.sol\":4276:4288  loan.numBids */\n      0xe0\n      add\n      mload\n        /* \"main.sol\":4262:4289  bids[_poolId][loan.numBids] */\n      dup2\n      mstore\n      0x20\n      add\n      swap1\n      dup2\n      mstore\n      0x20\n      add\n      0x00\n      keccak256\n        /* \"main.sol\":4239:4289  Bid memory latestBid = bids[_poolId][loan.numBids] */\n      mload(0x40)\n      dup1\n      0x60\n      add\n      0x40\n      mstore\n      swap1\n      dup2\n      0x00\n      dup3\n      add\n      sload\n      dup2\n      mstore\n      0x20\n      add\n      0x01\n      dup3\n      add\n      sload\n      dup2\n      mstore\n      0x20\n      add\n      0x02\n      dup3\n      add\n      0x00\n      swap1\n      sload\n      swap1\n      0x0100\n      exp\n      swap1\n      div\n      0xffffffffffffffffffffffffffffffffffffffff\n      and\n      0xffffffffffffffffffffffffffffffffffffffff\n      and\n      0xffffffffffffffffffffffffffffffffffffffff\n      and\n      dup2\n      mstore\n      pop\n      pop\n      swap1\n      pop\n        /* \"main.sol\":4350:4354  loan */\n      dup2\n        /* \"main.sol\":4350:4360  loan.token */\n      0x20\n      add\n      mload\n        /* \"main.sol\":4343:4374  IERC20(loan.token).transferFrom */\n      0xffffffffffffffffffffffffffffffffffffffff\n      and\n      0x23b872dd\n        /* \"main.sol\":4375:4385  msg.sender */\n      caller\n        /* \"main.sol\":4387:4396  latestBid */\n      dup4\n        /* \"main.sol\":4387:4401  latestBid.user */\n      0x40\n      add\n      mload\n        /* \"main.sol\":4403:4431  _calculateLoanValue(_poolId) */\n      tag_147\n        /* \"main.sol\":4423:4430  _poolId */\n      dup9\n        /* \"main.sol\":4403:4422  _calculateLoanValue */\n      tag_128\n        /* \"main.sol\":4403:4431  _calculateLoanValue(_poolId) */\n      jump\t// in\n    tag_147:\n        /* \"main.sol\":4343:4432  IERC20(loan.token).transferFrom(msg.sender, latestBid.user, _calculateLoanValue(_poolId)) */\n      mload(0x40)\n      dup5\n      0xffffffff\n      and\n      0xe0\n      shl\n      dup2\n      mstore\n      0x04\n      add\n      tag_148\n      swap4\n      swap3\n      swap2\n      swap1\n      tag_73\n      jump\t// in\n    tag_148:\n      0x20\n      mload(0x40)\n      dup1\n      dup4\n      sub\n      dup2\n      0x00\n      dup8\n      gas\n      call\n      iszero\n      dup1\n      iszero\n      tag_150\n      jumpi\n      returndatasize\n      0x00\n      dup1\n      returndatacopy\n      revert(0x00, returndatasize)\n    tag_150:\n      pop\n      pop\n      pop\n      pop\n      mload(0x40)\n      returndatasize\n      not(0x1f)\n      0x1f\n      dup3\n      add\n      and\n      dup3\n      add\n      dup1\n      0x40\n      mstore\n      pop\n      dup2\n      add\n      swap1\n      tag_151\n      swap2\n      swap1\n      tag_136\n      jump\t// in\n    tag_151:\n      pop\n        /* \"main.sol\":4480:4491  IERC721 NFT */\n      0x00\n        /* \"main.sol\":4502:4506  loan */\n      dup3\n        /* \"main.sol\":4502:4524  loan.collectionAddress */\n      0x40\n      add\n      mload\n        /* \"main.sol\":4480:4525  IERC721 NFT = IERC721(loan.collectionAddress) */\n      swap1\n      pop\n        /* \"main.sol\":4535:4538  NFT */\n      dup1\n        /* \"main.sol\":4535:4555  NFT.safeTransferFrom */\n      0xffffffffffffffffffffffffffffffffffffffff\n      and\n      0x42842e0e\n        /* \"main.sol\":4564:4568  this */\n      address\n        /* \"main.sol\":4571:4581  msg.sender */\n      caller\n        /* \"main.sol\":4583:4587  loan */\n      dup7\n        /* \"main.sol\":4583:4593  loan.nftId */\n      0x60\n      add\n      mload\n        /* \"main.sol\":4535:4594  NFT.safeTransferFrom(address(this), msg.sender, loan.nftId) */\n      mload(0x40)\n      dup5\n      0xffffffff\n      and\n      0xe0\n      shl\n      dup2\n      mstore\n      0x04\n      add\n      tag_152\n      swap4\n      swap3\n      swap2\n      swap1\n      tag_73\n      jump\t// in\n    tag_152:\n      0x00\n      mload(0x40)\n      dup1\n      dup4\n      sub\n      dup2\n      0x00\n      dup8\n      dup1\n      extcodesize\n      iszero\n      dup1\n      iszero\n      tag_153\n      jumpi\n      0x00\n      dup1\n      revert\n    tag_153:\n      pop\n      gas\n      call\n      iszero\n      dup1\n      iszero\n      tag_155\n      jumpi\n      returndatasize\n      0x00\n      dup1\n      returndatacopy\n      revert(0x00, returndatasize)\n    tag_155:\n      pop\n      pop\n      pop\n      pop\n        /* \"main.sol\":4186:4601  {... */\n      pop\n      pop\n      pop\n        /* \"main.sol\":4124:4601  function endLoan(uint256 _poolId) external onlyOwner(_poolId) {... */\n      pop\n      pop\n      jump\t// out\n        /* \"main.sol\":818:873  mapping(uint256 => mapping(uint256 => Bid)) public bids */\n    tag_43:\n      mstore(0x20, 0x02)\n      dup2\n      0x00\n      mstore\n      mstore(0x20, keccak256(0x00, 0x40))\n      dup1\n      0x00\n      mstore\n      keccak256(0x00, 0x40)\n      0x00\n      swap2\n      pop\n      swap2\n      pop\n      pop\n      dup1\n      0x00\n      add\n      sload\n      swap1\n      dup1\n      0x01\n      add\n      sload\n      swap1\n      dup1\n      0x02\n      add\n      0x00\n      swap1\n      sload\n      swap1\n      0x0100\n      exp\n      swap1\n      div\n      0xffffffffffffffffffffffffffffffffffffffff\n      and\n      swap1\n      pop\n      dup4\n      jump\t// out\n        /* \"main.sol\":3194:3605  function setNewBidOwner(uint256 _poolId, address _newAddress) external {... */\n    tag_49:\n        /* \"main.sol\":3283:3300  _started(_poolId) */\n      tag_157\n        /* \"main.sol\":3292:3299  _poolId */\n      dup3\n        /* \"main.sol\":3283:3291  _started */\n      tag_112\n        /* \"main.sol\":3283:3300  _started(_poolId) */\n      jump\t// in\n    tag_157:\n        /* \"main.sol\":3275:3321  require(_started(_poolId), \"LAN: not started\") */\n      tag_158\n      jumpi\n      mload(0x40)\n      0x08c379a000000000000000000000000000000000000000000000000000000000\n      dup2\n      mstore\n      0x04\n      add\n      tag_159\n      swap1\n      tag_115\n      jump\t// in\n    tag_159:\n      mload(0x40)\n      dup1\n      swap2\n      sub\n      swap1\n      revert\n    tag_158:\n        /* \"main.sol\":3340:3355  _ended(_poolId) */\n      tag_160\n        /* \"main.sol\":3347:3354  _poolId */\n      dup3\n        /* \"main.sol\":3340:3346  _ended */\n      tag_100\n        /* \"main.sol\":3340:3355  _ended(_poolId) */\n      jump\t// in\n    tag_160:\n        /* \"main.sol\":3339:3355  !_ended(_poolId) */\n      iszero\n        /* \"main.sol\":3331:3378  require(!_ended(_poolId), \"LAN: already ended\") */\n      tag_161\n      jumpi\n      mload(0x40)\n      0x08c379a000000000000000000000000000000000000000000000000000000000\n      dup2\n      mstore\n      0x04\n      add\n      tag_162\n      swap1\n      tag_119\n      jump\t// in\n    tag_162:\n      mload(0x40)\n      dup1\n      swap2\n      sub\n      swap1\n      revert\n    tag_161:\n        /* \"main.sol\":3389:3405  Loan memory loan */\n      0x00\n        /* \"main.sol\":3408:3413  loans */\n      0x01\n        /* \"main.sol\":3408:3422  loans[_poolId] */\n      0x00\n        /* \"main.sol\":3414:3421  _poolId */\n      dup5\n        /* \"main.sol\":3408:3422  loans[_poolId] */\n      dup2\n      mstore\n      0x20\n      add\n      swap1\n      dup2\n      mstore\n      0x20\n      add\n      0x00\n      keccak256\n        /* \"main.sol\":3389:3422  Loan memory loan = loans[_poolId] */\n      mload(0x40)\n      dup1\n      0x0120\n      add\n      0x40\n      mstore\n      swap1\n      dup2\n      0x00\n      dup3\n      add\n      0x00\n      swap1\n      sload\n      swap1\n      0x0100\n      exp\n      swap1\n      div\n      0xffffffffffffffffffffffffffffffffffffffff\n      and\n      0xffffffffffffffffffffffffffffffffffffffff\n      and\n      0xffffffffffffffffffffffffffffffffffffffff\n      and\n      dup2\n      mstore\n      0x20\n      add\n      0x01\n      dup3\n      add\n      0x00\n      swap1\n      sload\n      swap1\n      0x0100\n      exp\n      swap1\n      div\n      0xffffffffffffffffffffffffffffffffffffffff\n      and\n      0xffffffffffffffffffffffffffffffffffffffff\n      and\n      0xffffffffffffffffffffffffffffffffffffffff\n      and\n      dup2\n      mstore\n      0x20\n      add\n      0x02\n      dup3\n      add\n      0x00\n      swap1\n      sload\n      swap1\n      0x0100\n      exp\n      swap1\n      div\n      0xffffffffffffffffffffffffffffffffffffffff\n      and\n      0xffffffffffffffffffffffffffffffffffffffff\n      and\n      0xffffffffffffffffffffffffffffffffffffffff\n      and\n      dup2\n      mstore\n      0x20\n      add\n      0x03\n      dup3\n      add\n      sload\n      dup2\n      mstore\n      0x20\n      add\n      0x04\n      dup3\n      add\n      sload\n      dup2\n      mstore\n      0x20\n      add\n      0x05\n      dup3\n      add\n      sload\n      dup2\n      mstore\n      0x20\n      add\n      0x06\n      dup3\n      add\n      sload\n      dup2\n      mstore\n      0x20\n      add\n      0x07\n      dup3\n      add\n      sload\n      dup2\n      mstore\n      0x20\n      add\n      0x08\n      dup3\n      add\n      0x00\n      swap1\n      sload\n      swap1\n      0x0100\n      exp\n      swap1\n      div\n      0xff\n      and\n      iszero\n      iszero\n      iszero\n      iszero\n      dup2\n      mstore\n      pop\n      pop\n      swap1\n      pop\n        /* \"main.sol\":3432:3453  Bid storage latestBid */\n      0x00\n        /* \"main.sol\":3456:3460  bids */\n      0x02\n        /* \"main.sol\":3456:3469  bids[_poolId] */\n      0x00\n        /* \"main.sol\":3461:3468  _poolId */\n      dup6\n        /* \"main.sol\":3456:3469  bids[_poolId] */\n      dup2\n      mstore\n      0x20\n      add\n      swap1\n      dup2\n      mstore\n      0x20\n      add\n      0x00\n      keccak256\n        /* \"main.sol\":3456:3483  bids[_poolId][loan.numBids] */\n      0x00\n        /* \"main.sol\":3470:3474  loan */\n      dup4\n        /* \"main.sol\":3470:3482  loan.numBids */\n      0xe0\n      add\n      mload\n        /* \"main.sol\":3456:3483  bids[_poolId][loan.numBids] */\n      dup2\n      mstore\n      0x20\n      add\n      swap1\n      dup2\n      mstore\n      0x20\n      add\n      0x00\n      keccak256\n        /* \"main.sol\":3432:3483  Bid storage latestBid = bids[_poolId][loan.numBids] */\n      swap1\n      pop\n        /* \"main.sol\":3519:3529  msg.sender */\n      caller\n        /* \"main.sol\":3501:3529  latestBid.user == msg.sender */\n      0xffffffffffffffffffffffffffffffffffffffff\n      and\n        /* \"main.sol\":3501:3510  latestBid */\n      dup2\n        /* \"main.sol\":3501:3515  latestBid.user */\n      0x02\n      add\n      0x00\n      swap1\n      sload\n      swap1\n      0x0100\n      exp\n      swap1\n      div\n      0xffffffffffffffffffffffffffffffffffffffff\n      and\n        /* \"main.sol\":3501:3529  latestBid.user == msg.sender */\n      0xffffffffffffffffffffffffffffffffffffffff\n      and\n      eq\n        /* \"main.sol\":3493:3560  require(latestBid.user == msg.sender, \"LAN: Not the latest bidder\") */\n      tag_163\n      jumpi\n      mload(0x40)\n      0x08c379a000000000000000000000000000000000000000000000000000000000\n      dup2\n      mstore\n      0x04\n      add\n      tag_164\n      swap1\n      tag_165\n      jump\t// in\n    tag_164:\n      mload(0x40)\n      dup1\n      swap2\n      sub\n      swap1\n      revert\n    tag_163:\n        /* \"main.sol\":3587:3598  _newAddress */\n      dup3\n        /* \"main.sol\":3570:3579  latestBid */\n      dup2\n        /* \"main.sol\":3570:3584  latestBid.user */\n      0x02\n      add\n      0x00\n        /* \"main.sol\":3570:3598  latestBid.user = _newAddress */\n      0x0100\n      exp\n      dup2\n      sload\n      dup2\n      0xffffffffffffffffffffffffffffffffffffffff\n      mul\n      not\n      and\n      swap1\n      dup4\n      0xffffffffffffffffffffffffffffffffffffffff\n      and\n      mul\n      or\n      swap1\n      sstore\n      pop\n        /* \"main.sol\":3265:3605  {... */\n      pop\n      pop\n        /* \"main.sol\":3194:3605  function setNewBidOwner(uint256 _poolId, address _newAddress) external {... */\n      pop\n      pop\n      jump\t// out\n        /* \"main.sol\":966:1038  mapping(uint256 => mapping(address => bool)) public whitelistedAddresses */\n    tag_52:\n      mstore(0x20, 0x03)\n      dup2\n      0x00\n      mstore\n      mstore(0x20, keccak256(0x00, 0x40))\n      dup1\n      0x00\n      mstore\n      keccak256(0x00, 0x40)\n      0x00\n      swap2\n      pop\n      swap2\n      pop\n      swap1\n      sload\n      swap1\n      0x0100\n      exp\n      swap1\n      div\n      0xff\n      and\n      dup2\n      jump\t// out\n        /* \"main.sol\":654:691  mapping(uint256 => Loan) public loans */\n    tag_57:\n      mstore(0x20, 0x01)\n      dup1\n      0x00\n      mstore\n      keccak256(0x00, 0x40)\n      0x00\n      swap2\n      pop\n      swap1\n      pop\n      dup1\n      0x00\n      add\n      0x00\n      swap1\n      sload\n      swap1\n      0x0100\n      exp\n      swap1\n      div\n      0xffffffffffffffffffffffffffffffffffffffff\n      and\n      swap1\n      dup1\n      0x01\n      add\n      0x00\n      swap1\n      sload\n      swap1\n      0x0100\n      exp\n      swap1\n      div\n      0xffffffffffffffffffffffffffffffffffffffff\n      and\n      swap1\n      dup1\n      0x02\n      add\n      0x00\n      swap1\n      sload\n      swap1\n      0x0100\n      exp\n      swap1\n      div\n      0xffffffffffffffffffffffffffffffffffffffff\n      and\n      swap1\n      dup1\n      0x03\n      add\n      sload\n      swap1\n      dup1\n      0x04\n      add\n      sload\n      swap1\n      dup1\n      0x05\n      add\n      sload\n      swap1\n      dup1\n      0x06\n      add\n      sload\n      swap1\n      dup1\n      0x07\n      add\n      sload\n      swap1\n      dup1\n      0x08\n      add\n      0x00\n      swap1\n      sload\n      swap1\n      0x0100\n      exp\n      swap1\n      div\n      0xff\n      and\n      swap1\n      pop\n      dup10\n      jump\t// out\n        /* \"main.sol\":3638:3793  function changeWhitelist(uint256 _poolId, address _newAddress, bool _status) external {... */\n    tag_63:\n        /* \"main.sol\":3779:3786  _status */\n      dup1\n        /* \"main.sol\":3734:3754  whitelistedAddresses */\n      0x03\n        /* \"main.sol\":3734:3763  whitelistedAddresses[_poolId] */\n      0x00\n        /* \"main.sol\":3755:3762  _poolId */\n      dup6\n        /* \"main.sol\":3734:3763  whitelistedAddresses[_poolId] */\n      dup2\n      mstore\n      0x20\n      add\n      swap1\n      dup2\n      mstore\n      0x20\n      add\n      0x00\n      keccak256\n        /* \"main.sol\":3734:3776  whitelistedAddresses[_poolId][_newAddress] */\n      0x00\n        /* \"main.sol\":3764:3775  _newAddress */\n      dup5\n        /* \"main.sol\":3734:3776  whitelistedAddresses[_poolId][_newAddress] */\n      0xffffffffffffffffffffffffffffffffffffffff\n      and\n      0xffffffffffffffffffffffffffffffffffffffff\n      and\n      dup2\n      mstore\n      0x20\n      add\n      swap1\n      dup2\n      mstore\n      0x20\n      add\n      0x00\n      keccak256\n      0x00\n        /* \"main.sol\":3734:3786  whitelistedAddresses[_poolId][_newAddress] = _status */\n      0x0100\n      exp\n      dup2\n      sload\n      dup2\n      0xff\n      mul\n      not\n      and\n      swap1\n      dup4\n      iszero\n      iszero\n      mul\n      or\n      swap1\n      sstore\n      pop\n        /* \"main.sol\":3638:3793  function changeWhitelist(uint256 _poolId, address _newAddress, bool _status) external {... */\n      pop\n      pop\n      pop\n      jump\t// out\n        /* \"main.sol\":6242:6368  function _ended(uint256 _poolId) internal view returns (bool){... */\n    tag_100:\n        /* \"main.sol\":6298:6302  bool */\n      0x00\n        /* \"main.sol\":6346:6361  block.timestamp */\n      timestamp\n        /* \"main.sol\":6320:6325  loans */\n      0x01\n        /* \"main.sol\":6320:6334  loans[_poolId] */\n      0x00\n        /* \"main.sol\":6326:6333  _poolId */\n      dup5\n        /* \"main.sol\":6320:6334  loans[_poolId] */\n      dup2\n      mstore\n      0x20\n      add\n      swap1\n      dup2\n      mstore\n      0x20\n      add\n      0x00\n      keccak256\n        /* \"main.sol\":6320:6342  loans[_poolId].endTime */\n      0x05\n      add\n      sload\n        /* \"main.sol\":6320:6361  loans[_poolId].endTime <= block.timestamp */\n      gt\n      iszero\n        /* \"main.sol\":6313:6361  return loans[_poolId].endTime <= block.timestamp */\n      swap1\n      pop\n        /* \"main.sol\":6242:6368  function _ended(uint256 _poolId) internal view returns (bool){... */\n      swap2\n      swap1\n      pop\n      jump\t// out\n        /* \"main.sol\":6373:6502  function _started(uint256 _poolId) internal view returns (bool){... */\n    tag_112:\n        /* \"main.sol\":6431:6435  bool */\n      0x00\n        /* \"main.sol\":6480:6495  block.timestamp */\n      timestamp\n        /* \"main.sol\":6453:6458  loans */\n      0x01\n        /* \"main.sol\":6453:6467  loans[_poolId] */\n      0x00\n        /* \"main.sol\":6459:6466  _poolId */\n      dup5\n        /* \"main.sol\":6453:6467  loans[_poolId] */\n      dup2\n      mstore\n      0x20\n      add\n      swap1\n      dup2\n      mstore\n      0x20\n      add\n      0x00\n      keccak256\n        /* \"main.sol\":6453:6477  loans[_poolId].startTime */\n      0x04\n      add\n      sload\n        /* \"main.sol\":6453:6495  loans[_poolId].startTime < block.timestamp */\n      lt\n        /* \"main.sol\":6446:6495  return loans[_poolId].startTime < block.timestamp */\n      swap1\n      pop\n        /* \"main.sol\":6373:6502  function _started(uint256 _poolId) internal view returns (bool){... */\n      swap2\n      swap1\n      pop\n      jump\t// out\n        /* \"main.sol\":5718:6231  function _calculateLoanValue(uint256 _poolId) internal view returns (uint256){... */\n    tag_128:\n        /* \"main.sol\":5787:5794  uint256 */\n      0x00\n        /* \"main.sol\":5805:5821  Loan memory loan */\n      dup1\n        /* \"main.sol\":5824:5829  loans */\n      0x01\n        /* \"main.sol\":5824:5838  loans[_poolId] */\n      0x00\n        /* \"main.sol\":5830:5837  _poolId */\n      dup5\n        /* \"main.sol\":5824:5838  loans[_poolId] */\n      dup2\n      mstore\n      0x20\n      add\n      swap1\n      dup2\n      mstore\n      0x20\n      add\n      0x00\n      keccak256\n        /* \"main.sol\":5805:5838  Loan memory loan = loans[_poolId] */\n      mload(0x40)\n      dup1\n      0x0120\n      add\n      0x40\n      mstore\n      swap1\n      dup2\n      0x00\n      dup3\n      add\n      0x00\n      swap1\n      sload\n      swap1\n      0x0100\n      exp\n      swap1\n      div\n      0xffffffffffffffffffffffffffffffffffffffff\n      and\n      0xffffffffffffffffffffffffffffffffffffffff\n      and\n      0xffffffffffffffffffffffffffffffffffffffff\n      and\n      dup2\n      mstore\n      0x20\n      add\n      0x01\n      dup3\n      add\n      0x00\n      swap1\n      sload\n      swap1\n      0x0100\n      exp\n      swap1\n      div\n      0xffffffffffffffffffffffffffffffffffffffff\n      and\n      0xffffffffffffffffffffffffffffffffffffffff\n      and\n      0xffffffffffffffffffffffffffffffffffffffff\n      and\n      dup2\n      mstore\n      0x20\n      add\n      0x02\n      dup3\n      add\n      0x00\n      swap1\n      sload\n      swap1\n      0x0100\n      exp\n      swap1\n      div\n      0xffffffffffffffffffffffffffffffffffffffff\n      and\n      0xffffffffffffffffffffffffffffffffffffffff\n      and\n      0xffffffffffffffffffffffffffffffffffffffff\n      and\n      dup2\n      mstore\n      0x20\n      add\n      0x03\n      dup3\n      add\n      sload\n      dup2\n      mstore\n      0x20\n      add\n      0x04\n      dup3\n      add\n      sload\n      dup2\n      mstore\n      0x20\n      add\n      0x05\n      dup3\n      add\n      sload\n      dup2\n      mstore\n      0x20\n      add\n      0x06\n      dup3\n      add\n      sload\n      dup2\n      mstore\n      0x20\n      add\n      0x07\n      dup3\n      add\n      sload\n      dup2\n      mstore\n      0x20\n      add\n      0x08\n      dup3\n      add\n      0x00\n      swap1\n      sload\n      swap1\n      0x0100\n      exp\n      swap1\n      div\n      0xff\n      and\n      iszero\n      iszero\n      iszero\n      iszero\n      dup2\n      mstore\n      pop\n      pop\n      swap1\n      pop\n        /* \"main.sol\":5848:5868  Bid memory latestBid */\n      0x00\n        /* \"main.sol\":5871:5875  bids */\n      0x02\n        /* \"main.sol\":5871:5884  bids[_poolId] */\n      0x00\n        /* \"main.sol\":5876:5883  _poolId */\n      dup6\n        /* \"main.sol\":5871:5884  bids[_poolId] */\n      dup2\n      mstore\n      0x20\n      add\n      swap1\n      dup2\n      mstore\n      0x20\n      add\n      0x00\n      keccak256\n        /* \"main.sol\":5871:5898  bids[_poolId][loan.numBids] */\n      0x00\n        /* \"main.sol\":5885:5889  loan */\n      dup4\n        /* \"main.sol\":5885:5897  loan.numBids */\n      0xe0\n      add\n      mload\n        /* \"main.sol\":5871:5898  bids[_poolId][loan.numBids] */\n      dup2\n      mstore\n      0x20\n      add\n      swap1\n      dup2\n      mstore\n      0x20\n      add\n      0x00\n      keccak256\n        /* \"main.sol\":5848:5898  Bid memory latestBid = bids[_poolId][loan.numBids] */\n      mload(0x40)\n      dup1\n      0x60\n      add\n      0x40\n      mstore\n      swap1\n      dup2\n      0x00\n      dup3\n      add\n      sload\n      dup2\n      mstore\n      0x20\n      add\n      0x01\n      dup3\n      add\n      sload\n      dup2\n      mstore\n      0x20\n      add\n      0x02\n      dup3\n      add\n      0x00\n      swap1\n      sload\n      swap1\n      0x0100\n      exp\n      swap1\n      div\n      0xffffffffffffffffffffffffffffffffffffffff\n      and\n      0xffffffffffffffffffffffffffffffffffffffff\n      and\n      0xffffffffffffffffffffffffffffffffffffffff\n      and\n      dup2\n      mstore\n      pop\n      pop\n      swap1\n      pop\n        /* \"main.sol\":5908:5927  uint256 timeElapsed */\n      0x00\n        /* \"main.sol\":5940:5955  _ended(_poolId) */\n      tag_170\n        /* \"main.sol\":5947:5954  _poolId */\n      dup6\n        /* \"main.sol\":5940:5946  _ended */\n      tag_100\n        /* \"main.sol\":5940:5955  _ended(_poolId) */\n      jump\t// in\n    tag_170:\n        /* \"main.sol\":5937:6109  if(_ended(_poolId)){... */\n      iszero\n      tag_171\n      jumpi\n        /* \"main.sol\":6005:6009  loan */\n      dup3\n        /* \"main.sol\":6005:6017  loan.endTime */\n      0xa0\n      add\n      mload\n        /* \"main.sol\":5985:5994  latestBid */\n      dup3\n        /* \"main.sol\":5985:6002  latestBid.bidTime */\n      0x00\n      add\n      mload\n        /* \"main.sol\":5985:6017  latestBid.bidTime - loan.endTime */\n      tag_172\n      swap2\n      swap1\n      tag_138\n      jump\t// in\n    tag_172:\n        /* \"main.sol\":5970:6017  timeElapsed =  latestBid.bidTime - loan.endTime */\n      swap1\n      pop\n        /* \"main.sol\":5937:6109  if(_ended(_poolId)){... */\n      jump(tag_173)\n    tag_171:\n        /* \"main.sol\":6083:6098  block.timestamp */\n      timestamp\n        /* \"main.sol\":6063:6072  latestBid */\n      dup3\n        /* \"main.sol\":6063:6080  latestBid.bidTime */\n      0x00\n      add\n      mload\n        /* \"main.sol\":6063:6098  latestBid.bidTime - block.timestamp */\n      tag_174\n      swap2\n      swap1\n      tag_138\n      jump\t// in\n    tag_174:\n        /* \"main.sol\":6048:6098  timeElapsed =  latestBid.bidTime - block.timestamp */\n      swap1\n      pop\n        /* \"main.sol\":5937:6109  if(_ended(_poolId)){... */\n    tag_173:\n        /* \"main.sol\":1092:1104  60*60*24*365 */\n      0x01e13380\n        /* \"main.sol\":6191:6202  timeElapsed */\n      dup2\n        /* \"main.sol\":6180:6188  10 ** 18 */\n      0x0de0b6b3a7640000\n        /* \"main.sol\":6169:6173  loan */\n      dup6\n        /* \"main.sol\":6169:6177  loan.apr */\n      0xc0\n      add\n      mload\n        /* \"main.sol\":6147:6156  latestBid */\n      dup6\n        /* \"main.sol\":6147:6166  latestBid.bidAmount */\n      0x20\n      add\n      mload\n        /* \"main.sol\":6147:6177  latestBid.bidAmount * loan.apr */\n      tag_175\n      swap2\n      swap1\n      tag_176\n      jump\t// in\n    tag_175:\n        /* \"main.sol\":6147:6188  latestBid.bidAmount * loan.apr / 10 ** 18 */\n      tag_177\n      swap2\n      swap1\n      tag_178\n      jump\t// in\n    tag_177:\n        /* \"main.sol\":6147:6202  latestBid.bidAmount * loan.apr / 10 ** 18 * timeElapsed */\n      tag_179\n      swap2\n      swap1\n      tag_176\n      jump\t// in\n    tag_179:\n        /* \"main.sol\":6147:6224  latestBid.bidAmount * loan.apr / 10 ** 18 * timeElapsed / SECONDS_IN_ONE_YEAR */\n      tag_180\n      swap2\n      swap1\n      tag_178\n      jump\t// in\n    tag_180:\n        /* \"main.sol\":6125:6134  latestBid */\n      dup3\n        /* \"main.sol\":6125:6144  latestBid.bidAmount */\n      0x20\n      add\n      mload\n        /* \"main.sol\":6125:6224  latestBid.bidAmount + latestBid.bidAmount * loan.apr / 10 ** 18 * timeElapsed / SECONDS_IN_ONE_YEAR */\n      tag_181\n      swap2\n      swap1\n      tag_126\n      jump\t// in\n    tag_181:\n        /* \"main.sol\":6118:6224  return latestBid.bidAmount + latestBid.bidAmount * loan.apr / 10 ** 18 * timeElapsed / SECONDS_IN_ONE_YEAR */\n      swap4\n      pop\n      pop\n      pop\n      pop\n        /* \"main.sol\":5718:6231  function _calculateLoanValue(uint256 _poolId) internal view returns (uint256){... */\n      swap2\n      swap1\n      pop\n      jump\t// out\n    tag_96:\n      mload(0x40)\n      dup1\n      0x0120\n      add\n      0x40\n      mstore\n      dup1\n      and(0xffffffffffffffffffffffffffffffffffffffff, 0x00)\n      dup2\n      mstore\n      0x20\n      add\n      and(0xffffffffffffffffffffffffffffffffffffffff, 0x00)\n      dup2\n      mstore\n      0x20\n      add\n      and(0xffffffffffffffffffffffffffffffffffffffff, 0x00)\n      dup2\n      mstore\n      0x20\n      add\n      0x00\n      dup2\n      mstore\n      0x20\n      add\n      0x00\n      dup2\n      mstore\n      0x20\n      add\n      0x00\n      dup2\n      mstore\n      0x20\n      add\n      0x00\n      dup2\n      mstore\n      0x20\n      add\n      0x00\n      dup2\n      mstore\n      0x20\n      add\n      iszero(iszero(0x00))\n      dup2\n      mstore\n      pop\n      swap1\n      jump\t// out\n        /* \"#utility.yul\":7:84   */\n    tag_182:\n        /* \"#utility.yul\":44:51   */\n      0x00\n        /* \"#utility.yul\":73:78   */\n      dup2\n        /* \"#utility.yul\":62:78   */\n      swap1\n      pop\n        /* \"#utility.yul\":7:84   */\n      swap2\n      swap1\n      pop\n      jump\t// out\n        /* \"#utility.yul\":90:208   */\n    tag_183:\n        /* \"#utility.yul\":177:201   */\n      tag_227\n        /* \"#utility.yul\":195:200   */\n      dup2\n        /* \"#utility.yul\":177:201   */\n      tag_182\n      jump\t// in\n    tag_227:\n        /* \"#utility.yul\":172:175   */\n      dup3\n        /* \"#utility.yul\":165:202   */\n      mstore\n        /* \"#utility.yul\":90:208   */\n      pop\n      pop\n      jump\t// out\n        /* \"#utility.yul\":214:436   */\n    tag_19:\n        /* \"#utility.yul\":307:311   */\n      0x00\n        /* \"#utility.yul\":345:347   */\n      0x20\n        /* \"#utility.yul\":334:343   */\n      dup3\n        /* \"#utility.yul\":330:348   */\n      add\n        /* \"#utility.yul\":322:348   */\n      swap1\n      pop\n        /* \"#utility.yul\":358:429   */\n      tag_229\n        /* \"#utility.yul\":426:427   */\n      0x00\n        /* \"#utility.yul\":415:424   */\n      dup4\n        /* \"#utility.yul\":411:428   */\n      add\n        /* \"#utility.yul\":402:408   */\n      dup5\n        /* \"#utility.yul\":358:429   */\n      tag_183\n      jump\t// in\n    tag_229:\n        /* \"#utility.yul\":214:436   */\n      swap3\n      swap2\n      pop\n      pop\n      jump\t// out\n        /* \"#utility.yul\":523:640   */\n    tag_185:\n        /* \"#utility.yul\":632:633   */\n      0x00\n        /* \"#utility.yul\":629:630   */\n      dup1\n        /* \"#utility.yul\":622:634   */\n      revert\n        /* \"#utility.yul\":769:891   */\n    tag_187:\n        /* \"#utility.yul\":842:866   */\n      tag_234\n        /* \"#utility.yul\":860:865   */\n      dup2\n        /* \"#utility.yul\":842:866   */\n      tag_182\n      jump\t// in\n    tag_234:\n        /* \"#utility.yul\":835:840   */\n      dup2\n        /* \"#utility.yul\":832:867   */\n      eq\n        /* \"#utility.yul\":822:885   */\n      tag_235\n      jumpi\n        /* \"#utility.yul\":881:882   */\n      0x00\n        /* \"#utility.yul\":878:879   */\n      dup1\n        /* \"#utility.yul\":871:883   */\n      revert\n        /* \"#utility.yul\":822:885   */\n    tag_235:\n        /* \"#utility.yul\":769:891   */\n      pop\n      jump\t// out\n        /* \"#utility.yul\":897:1036   */\n    tag_188:\n        /* \"#utility.yul\":943:948   */\n      0x00\n        /* \"#utility.yul\":981:987   */\n      dup2\n        /* \"#utility.yul\":968:988   */\n      calldataload\n        /* \"#utility.yul\":959:988   */\n      swap1\n      pop\n        /* \"#utility.yul\":997:1030   */\n      tag_237\n        /* \"#utility.yul\":1024:1029   */\n      dup2\n        /* \"#utility.yul\":997:1030   */\n      tag_187\n      jump\t// in\n    tag_237:\n        /* \"#utility.yul\":897:1036   */\n      swap3\n      swap2\n      pop\n      pop\n      jump\t// out\n        /* \"#utility.yul\":1042:1371   */\n    tag_22:\n        /* \"#utility.yul\":1101:1107   */\n      0x00\n        /* \"#utility.yul\":1150:1152   */\n      0x20\n        /* \"#utility.yul\":1138:1147   */\n      dup3\n        /* \"#utility.yul\":1129:1136   */\n      dup5\n        /* \"#utility.yul\":1125:1148   */\n      sub\n        /* \"#utility.yul\":1121:1153   */\n      slt\n        /* \"#utility.yul\":1118:1237   */\n      iszero\n      tag_239\n      jumpi\n        /* \"#utility.yul\":1156:1235   */\n      tag_240\n      tag_185\n      jump\t// in\n    tag_240:\n        /* \"#utility.yul\":1118:1237   */\n    tag_239:\n        /* \"#utility.yul\":1276:1277   */\n      0x00\n        /* \"#utility.yul\":1301:1354   */\n      tag_241\n        /* \"#utility.yul\":1346:1353   */\n      dup5\n        /* \"#utility.yul\":1337:1343   */\n      dup3\n        /* \"#utility.yul\":1326:1335   */\n      dup6\n        /* \"#utility.yul\":1322:1344   */\n      add\n        /* \"#utility.yul\":1301:1354   */\n      tag_188\n      jump\t// in\n    tag_241:\n        /* \"#utility.yul\":1291:1354   */\n      swap2\n      pop\n        /* \"#utility.yul\":1247:1364   */\n      pop\n        /* \"#utility.yul\":1042:1371   */\n      swap3\n      swap2\n      pop\n      pop\n      jump\t// out\n        /* \"#utility.yul\":1377:1503   */\n    tag_189:\n        /* \"#utility.yul\":1414:1421   */\n      0x00\n        /* \"#utility.yul\":1454:1496   */\n      0xffffffffffffffffffffffffffffffffffffffff\n        /* \"#utility.yul\":1447:1452   */\n      dup3\n        /* \"#utility.yul\":1443:1497   */\n      and\n        /* \"#utility.yul\":1432:1497   */\n      swap1\n      pop\n        /* \"#utility.yul\":1377:1503   */\n      swap2\n      swap1\n      pop\n      jump\t// out\n        /* \"#utility.yul\":1509:1605   */\n    tag_190:\n        /* \"#utility.yul\":1546:1553   */\n      0x00\n        /* \"#utility.yul\":1575:1599   */\n      tag_244\n        /* \"#utility.yul\":1593:1598   */\n      dup3\n        /* \"#utility.yul\":1575:1599   */\n      tag_189\n      jump\t// in\n    tag_244:\n        /* \"#utility.yul\":1564:1599   */\n      swap1\n      pop\n        /* \"#utility.yul\":1509:1605   */\n      swap2\n      swap1\n      pop\n      jump\t// out\n        /* \"#utility.yul\":1611:1733   */\n    tag_191:\n        /* \"#utility.yul\":1684:1708   */\n      tag_246\n        /* \"#utility.yul\":1702:1707   */\n      dup2\n        /* \"#utility.yul\":1684:1708   */\n      tag_190\n      jump\t// in\n    tag_246:\n        /* \"#utility.yul\":1677:1682   */\n      dup2\n        /* \"#utility.yul\":1674:1709   */\n      eq\n        /* \"#utility.yul\":1664:1727   */\n      tag_247\n      jumpi\n        /* \"#utility.yul\":1723:1724   */\n      0x00\n        /* \"#utility.yul\":1720:1721   */\n      dup1\n        /* \"#utility.yul\":1713:1725   */\n      revert\n        /* \"#utility.yul\":1664:1727   */\n    tag_247:\n        /* \"#utility.yul\":1611:1733   */\n      pop\n      jump\t// out\n        /* \"#utility.yul\":1739:1878   */\n    tag_192:\n        /* \"#utility.yul\":1785:1790   */\n      0x00\n        /* \"#utility.yul\":1823:1829   */\n      dup2\n        /* \"#utility.yul\":1810:1830   */\n      calldataload\n        /* \"#utility.yul\":1801:1830   */\n      swap1\n      pop\n        /* \"#utility.yul\":1839:1872   */\n      tag_249\n        /* \"#utility.yul\":1866:1871   */\n      dup2\n        /* \"#utility.yul\":1839:1872   */\n      tag_191\n      jump\t// in\n    tag_249:\n        /* \"#utility.yul\":1739:1878   */\n      swap3\n      swap2\n      pop\n      pop\n      jump\t// out\n        /* \"#utility.yul\":1884:1974   */\n    tag_193:\n        /* \"#utility.yul\":1918:1925   */\n      0x00\n        /* \"#utility.yul\":1961:1966   */\n      dup2\n        /* \"#utility.yul\":1954:1967   */\n      iszero\n        /* \"#utility.yul\":1947:1968   */\n      iszero\n        /* \"#utility.yul\":1936:1968   */\n      swap1\n      pop\n        /* \"#utility.yul\":1884:1974   */\n      swap2\n      swap1\n      pop\n      jump\t// out\n        /* \"#utility.yul\":1980:2096   */\n    tag_194:\n        /* \"#utility.yul\":2050:2071   */\n      tag_252\n        /* \"#utility.yul\":2065:2070   */\n      dup2\n        /* \"#utility.yul\":2050:2071   */\n      tag_193\n      jump\t// in\n    tag_252:\n        /* \"#utility.yul\":2043:2048   */\n      dup2\n        /* \"#utility.yul\":2040:2072   */\n      eq\n        /* \"#utility.yul\":2030:2090   */\n      tag_253\n      jumpi\n        /* \"#utility.yul\":2086:2087   */\n      0x00\n        /* \"#utility.yul\":2083:2084   */\n      dup1\n        /* \"#utility.yul\":2076:2088   */\n      revert\n        /* \"#utility.yul\":2030:2090   */\n    tag_253:\n        /* \"#utility.yul\":1980:2096   */\n      pop\n      jump\t// out\n        /* \"#utility.yul\":2102:2235   */\n    tag_195:\n        /* \"#utility.yul\":2145:2150   */\n      0x00\n        /* \"#utility.yul\":2183:2189   */\n      dup2\n        /* \"#utility.yul\":2170:2190   */\n      calldataload\n        /* \"#utility.yul\":2161:2190   */\n      swap1\n      pop\n        /* \"#utility.yul\":2199:2229   */\n      tag_255\n        /* \"#utility.yul\":2223:2228   */\n      dup2\n        /* \"#utility.yul\":2199:2229   */\n      tag_194\n      jump\t// in\n    tag_255:\n        /* \"#utility.yul\":2102:2235   */\n      swap3\n      swap2\n      pop\n      pop\n      jump\t// out\n        /* \"#utility.yul\":2241:3438   */\n    tag_26:\n        /* \"#utility.yul\":2351:2357   */\n      0x00\n        /* \"#utility.yul\":2359:2365   */\n      dup1\n        /* \"#utility.yul\":2367:2373   */\n      0x00\n        /* \"#utility.yul\":2375:2381   */\n      dup1\n        /* \"#utility.yul\":2383:2389   */\n      0x00\n        /* \"#utility.yul\":2391:2397   */\n      dup1\n        /* \"#utility.yul\":2399:2405   */\n      0x00\n        /* \"#utility.yul\":2448:2451   */\n      0xe0\n        /* \"#utility.yul\":2436:2445   */\n      dup9\n        /* \"#utility.yul\":2427:2434   */\n      dup11\n        /* \"#utility.yul\":2423:2446   */\n      sub\n        /* \"#utility.yul\":2419:2452   */\n      slt\n        /* \"#utility.yul\":2416:2536   */\n      iszero\n      tag_257\n      jumpi\n        /* \"#utility.yul\":2455:2534   */\n      tag_258\n      tag_185\n      jump\t// in\n    tag_258:\n        /* \"#utility.yul\":2416:2536   */\n    tag_257:\n        /* \"#utility.yul\":2575:2576   */\n      0x00\n        /* \"#utility.yul\":2600:2653   */\n      tag_259\n        /* \"#utility.yul\":2645:2652   */\n      dup11\n        /* \"#utility.yul\":2636:2642   */\n      dup3\n        /* \"#utility.yul\":2625:2634   */\n      dup12\n        /* \"#utility.yul\":2621:2643   */\n      add\n        /* \"#utility.yul\":2600:2653   */\n      tag_192\n      jump\t// in\n    tag_259:\n        /* \"#utility.yul\":2590:2653   */\n      swap8\n      pop\n        /* \"#utility.yul\":2546:2663   */\n      pop\n        /* \"#utility.yul\":2702:2704   */\n      0x20\n        /* \"#utility.yul\":2728:2781   */\n      tag_260\n        /* \"#utility.yul\":2773:2780   */\n      dup11\n        /* \"#utility.yul\":2764:2770   */\n      dup3\n        /* \"#utility.yul\":2753:2762   */\n      dup12\n        /* \"#utility.yul\":2749:2771   */\n      add\n        /* \"#utility.yul\":2728:2781   */\n      tag_192\n      jump\t// in\n    tag_260:\n        /* \"#utility.yul\":2718:2781   */\n      swap7\n      pop\n        /* \"#utility.yul\":2673:2791   */\n      pop\n        /* \"#utility.yul\":2830:2832   */\n      0x40\n        /* \"#utility.yul\":2856:2909   */\n      tag_261\n        /* \"#utility.yul\":2901:2908   */\n      dup11\n        /* \"#utility.yul\":2892:2898   */\n      dup3\n        /* \"#utility.yul\":2881:2890   */\n      dup12\n        /* \"#utility.yul\":2877:2899   */\n      add\n        /* \"#utility.yul\":2856:2909   */\n      tag_188\n      jump\t// in\n    tag_261:\n        /* \"#utility.yul\":2846:2909   */\n      swap6\n      pop\n        /* \"#utility.yul\":2801:2919   */\n      pop\n        /* \"#utility.yul\":2958:2960   */\n      0x60\n        /* \"#utility.yul\":2984:3037   */\n      tag_262\n        /* \"#utility.yul\":3029:3036   */\n      dup11\n        /* \"#utility.yul\":3020:3026   */\n      dup3\n        /* \"#utility.yul\":3009:3018   */\n      dup12\n        /* \"#utility.yul\":3005:3027   */\n      add\n        /* \"#utility.yul\":2984:3037   */\n      tag_188\n      jump\t// in\n    tag_262:\n        /* \"#utility.yul\":2974:3037   */\n      swap5\n      pop\n        /* \"#utility.yul\":2929:3047   */\n      pop\n        /* \"#utility.yul\":3086:3089   */\n      0x80\n        /* \"#utility.yul\":3113:3166   */\n      tag_263\n        /* \"#utility.yul\":3158:3165   */\n      dup11\n        /* \"#utility.yul\":3149:3155   */\n      dup3\n        /* \"#utility.yul\":3138:3147   */\n      dup12\n        /* \"#utility.yul\":3134:3156   */\n      add\n        /* \"#utility.yul\":3113:3166   */\n      tag_188\n      jump\t// in\n    tag_263:\n        /* \"#utility.yul\":3103:3166   */\n      swap4\n      pop\n        /* \"#utility.yul\":3057:3176   */\n      pop\n        /* \"#utility.yul\":3215:3218   */\n      0xa0\n        /* \"#utility.yul\":3242:3295   */\n      tag_264\n        /* \"#utility.yul\":3287:3294   */\n      dup11\n        /* \"#utility.yul\":3278:3284   */\n      dup3\n        /* \"#utility.yul\":3267:3276   */\n      dup12\n        /* \"#utility.yul\":3263:3285   */\n      add\n        /* \"#utility.yul\":3242:3295   */\n      tag_188\n      jump\t// in\n    tag_264:\n        /* \"#utility.yul\":3232:3295   */\n      swap3\n      pop\n        /* \"#utility.yul\":3186:3305   */\n      pop\n        /* \"#utility.yul\":3344:3347   */\n      0xc0\n        /* \"#utility.yul\":3371:3421   */\n      tag_265\n        /* \"#utility.yul\":3413:3420   */\n      dup11\n        /* \"#utility.yul\":3404:3410   */\n      dup3\n        /* \"#utility.yul\":3393:3402   */\n      dup12\n        /* \"#utility.yul\":3389:3411   */\n      add\n        /* \"#utility.yul\":3371:3421   */\n      tag_195\n      jump\t// in\n    tag_265:\n        /* \"#utility.yul\":3361:3421   */\n      swap2\n      pop\n        /* \"#utility.yul\":3315:3431   */\n      pop\n        /* \"#utility.yul\":2241:3438   */\n      swap3\n      swap6\n      swap9\n      swap2\n      swap5\n      swap8\n      pop\n      swap3\n      swap6\n      pop\n      jump\t// out\n        /* \"#utility.yul\":3444:3918   */\n    tag_36:\n        /* \"#utility.yul\":3512:3518   */\n      0x00\n        /* \"#utility.yul\":3520:3526   */\n      dup1\n        /* \"#utility.yul\":3569:3571   */\n      0x40\n        /* \"#utility.yul\":3557:3566   */\n      dup4\n        /* \"#utility.yul\":3548:3555   */\n      dup6\n        /* \"#utility.yul\":3544:3567   */\n      sub\n        /* \"#utility.yul\":3540:3572   */\n      slt\n        /* \"#utility.yul\":3537:3656   */\n      iszero\n      tag_267\n      jumpi\n        /* \"#utility.yul\":3575:3654   */\n      tag_268\n      tag_185\n      jump\t// in\n    tag_268:\n        /* \"#utility.yul\":3537:3656   */\n    tag_267:\n        /* \"#utility.yul\":3695:3696   */\n      0x00\n        /* \"#utility.yul\":3720:3773   */\n      tag_269\n        /* \"#utility.yul\":3765:3772   */\n      dup6\n        /* \"#utility.yul\":3756:3762   */\n      dup3\n        /* \"#utility.yul\":3745:3754   */\n      dup7\n        /* \"#utility.yul\":3741:3763   */\n      add\n        /* \"#utility.yul\":3720:3773   */\n      tag_188\n      jump\t// in\n    tag_269:\n        /* \"#utility.yul\":3710:3773   */\n      swap3\n      pop\n        /* \"#utility.yul\":3666:3783   */\n      pop\n        /* \"#utility.yul\":3822:3824   */\n      0x20\n        /* \"#utility.yul\":3848:3901   */\n      tag_270\n        /* \"#utility.yul\":3893:3900   */\n      dup6\n        /* \"#utility.yul\":3884:3890   */\n      dup3\n        /* \"#utility.yul\":3873:3882   */\n      dup7\n        /* \"#utility.yul\":3869:3891   */\n      add\n        /* \"#utility.yul\":3848:3901   */\n      tag_188\n      jump\t// in\n    tag_270:\n        /* \"#utility.yul\":3838:3901   */\n      swap2\n      pop\n        /* \"#utility.yul\":3793:3911   */\n      pop\n        /* \"#utility.yul\":3444:3918   */\n      swap3\n      pop\n      swap3\n      swap1\n      pop\n      jump\t// out\n        /* \"#utility.yul\":3924:4042   */\n    tag_196:\n        /* \"#utility.yul\":4011:4035   */\n      tag_272\n        /* \"#utility.yul\":4029:4034   */\n      dup2\n        /* \"#utility.yul\":4011:4035   */\n      tag_190\n      jump\t// in\n    tag_272:\n        /* \"#utility.yul\":4006:4009   */\n      dup3\n        /* \"#utility.yul\":3999:4036   */\n      mstore\n        /* \"#utility.yul\":3924:4042   */\n      pop\n      pop\n      jump\t// out\n        /* \"#utility.yul\":4048:4490   */\n    tag_45:\n        /* \"#utility.yul\":4197:4201   */\n      0x00\n        /* \"#utility.yul\":4235:4237   */\n      0x60\n        /* \"#utility.yul\":4224:4233   */\n      dup3\n        /* \"#utility.yul\":4220:4238   */\n      add\n        /* \"#utility.yul\":4212:4238   */\n      swap1\n      pop\n        /* \"#utility.yul\":4248:4319   */\n      tag_274\n        /* \"#utility.yul\":4316:4317   */\n      0x00\n        /* \"#utility.yul\":4305:4314   */\n      dup4\n        /* \"#utility.yul\":4301:4318   */\n      add\n        /* \"#utility.yul\":4292:4298   */\n      dup7\n        /* \"#utility.yul\":4248:4319   */\n      tag_183\n      jump\t// in\n    tag_274:\n        /* \"#utility.yul\":4329:4401   */\n      tag_275\n        /* \"#utility.yul\":4397:4399   */\n      0x20\n        /* \"#utility.yul\":4386:4395   */\n      dup4\n        /* \"#utility.yul\":4382:4400   */\n      add\n        /* \"#utility.yul\":4373:4379   */\n      dup6\n        /* \"#utility.yul\":4329:4401   */\n      tag_183\n      jump\t// in\n    tag_275:\n        /* \"#utility.yul\":4411:4483   */\n      tag_276\n        /* \"#utility.yul\":4479:4481   */\n      0x40\n        /* \"#utility.yul\":4468:4477   */\n      dup4\n        /* \"#utility.yul\":4464:4482   */\n      add\n        /* \"#utility.yul\":4455:4461   */\n      dup5\n        /* \"#utility.yul\":4411:4483   */\n      tag_196\n      jump\t// in\n    tag_276:\n        /* \"#utility.yul\":4048:4490   */\n      swap5\n      swap4\n      pop\n      pop\n      pop\n      pop\n      jump\t// out\n        /* \"#utility.yul\":4496:4970   */\n    tag_48:\n        /* \"#utility.yul\":4564:4570   */\n      0x00\n        /* \"#utility.yul\":4572:4578   */\n      dup1\n        /* \"#utility.yul\":4621:4623   */\n      0x40\n        /* \"#utility.yul\":4609:4618   */\n      dup4\n        /* \"#utility.yul\":4600:4607   */\n      dup6\n        /* \"#utility.yul\":4596:4619   */\n      sub\n        /* \"#utility.yul\":4592:4624   */\n      slt\n        /* \"#utility.yul\":4589:4708   */\n      iszero\n      tag_278\n      jumpi\n        /* \"#utility.yul\":4627:4706   */\n      tag_279\n      tag_185\n      jump\t// in\n    tag_279:\n        /* \"#utility.yul\":4589:4708   */\n    tag_278:\n        /* \"#utility.yul\":4747:4748   */\n      0x00\n        /* \"#utility.yul\":4772:4825   */\n      tag_280\n        /* \"#utility.yul\":4817:4824   */\n      dup6\n        /* \"#utility.yul\":4808:4814   */\n      dup3\n        /* \"#utility.yul\":4797:4806   */\n      dup7\n        /* \"#utility.yul\":4793:4815   */\n      add\n        /* \"#utility.yul\":4772:4825   */\n      tag_188\n      jump\t// in\n    tag_280:\n        /* \"#utility.yul\":4762:4825   */\n      swap3\n      pop\n        /* \"#utility.yul\":4718:4835   */\n      pop\n        /* \"#utility.yul\":4874:4876   */\n      0x20\n        /* \"#utility.yul\":4900:4953   */\n      tag_281\n        /* \"#utility.yul\":4945:4952   */\n      dup6\n        /* \"#utility.yul\":4936:4942   */\n      dup3\n        /* \"#utility.yul\":4925:4934   */\n      dup7\n        /* \"#utility.yul\":4921:4943   */\n      add\n        /* \"#utility.yul\":4900:4953   */\n      tag_192\n      jump\t// in\n    tag_281:\n        /* \"#utility.yul\":4890:4953   */\n      swap2\n      pop\n        /* \"#utility.yul\":4845:4963   */\n      pop\n        /* \"#utility.yul\":4496:4970   */\n      swap3\n      pop\n      swap3\n      swap1\n      pop\n      jump\t// out\n        /* \"#utility.yul\":4976:5085   */\n    tag_197:\n        /* \"#utility.yul\":5057:5078   */\n      tag_283\n        /* \"#utility.yul\":5072:5077   */\n      dup2\n        /* \"#utility.yul\":5057:5078   */\n      tag_193\n      jump\t// in\n    tag_283:\n        /* \"#utility.yul\":5052:5055   */\n      dup3\n        /* \"#utility.yul\":5045:5079   */\n      mstore\n        /* \"#utility.yul\":4976:5085   */\n      pop\n      pop\n      jump\t// out\n        /* \"#utility.yul\":5091:5301   */\n    tag_54:\n        /* \"#utility.yul\":5178:5182   */\n      0x00\n        /* \"#utility.yul\":5216:5218   */\n      0x20\n        /* \"#utility.yul\":5205:5214   */\n      dup3\n        /* \"#utility.yul\":5201:5219   */\n      add\n        /* \"#utility.yul\":5193:5219   */\n      swap1\n      pop\n        /* \"#utility.yul\":5229:5294   */\n      tag_285\n        /* \"#utility.yul\":5291:5292   */\n      0x00\n        /* \"#utility.yul\":5280:5289   */\n      dup4\n        /* \"#utility.yul\":5276:5293   */\n      add\n        /* \"#utility.yul\":5267:5273   */\n      dup5\n        /* \"#utility.yul\":5229:5294   */\n      tag_197\n      jump\t// in\n    tag_285:\n        /* \"#utility.yul\":5091:5301   */\n      swap3\n      swap2\n      pop\n      pop\n      jump\t// out\n        /* \"#utility.yul\":5307:6403   */\n    tag_59:\n        /* \"#utility.yul\":5618:5622   */\n      0x00\n        /* \"#utility.yul\":5656:5659   */\n      0x0120\n        /* \"#utility.yul\":5645:5654   */\n      dup3\n        /* \"#utility.yul\":5641:5660   */\n      add\n        /* \"#utility.yul\":5633:5660   */\n      swap1\n      pop\n        /* \"#utility.yul\":5670:5741   */\n      tag_287\n        /* \"#utility.yul\":5738:5739   */\n      0x00\n        /* \"#utility.yul\":5727:5736   */\n      dup4\n        /* \"#utility.yul\":5723:5740   */\n      add\n        /* \"#utility.yul\":5714:5720   */\n      dup13\n        /* \"#utility.yul\":5670:5741   */\n      tag_196\n      jump\t// in\n    tag_287:\n        /* \"#utility.yul\":5751:5823   */\n      tag_288\n        /* \"#utility.yul\":5819:5821   */\n      0x20\n        /* \"#utility.yul\":5808:5817   */\n      dup4\n        /* \"#utility.yul\":5804:5822   */\n      add\n        /* \"#utility.yul\":5795:5801   */\n      dup12\n        /* \"#utility.yul\":5751:5823   */\n      tag_196\n      jump\t// in\n    tag_288:\n        /* \"#utility.yul\":5833:5905   */\n      tag_289\n        /* \"#utility.yul\":5901:5903   */\n      0x40\n        /* \"#utility.yul\":5890:5899   */\n      dup4\n        /* \"#utility.yul\":5886:5904   */\n      add\n        /* \"#utility.yul\":5877:5883   */\n      dup11\n        /* \"#utility.yul\":5833:5905   */\n      tag_196\n      jump\t// in\n    tag_289:\n        /* \"#utility.yul\":5915:5987   */\n      tag_290\n        /* \"#utility.yul\":5983:5985   */\n      0x60\n        /* \"#utility.yul\":5972:5981   */\n      dup4\n        /* \"#utility.yul\":5968:5986   */\n      add\n        /* \"#utility.yul\":5959:5965   */\n      dup10\n        /* \"#utility.yul\":5915:5987   */\n      tag_183\n      jump\t// in\n    tag_290:\n        /* \"#utility.yul\":5997:6070   */\n      tag_291\n        /* \"#utility.yul\":6065:6068   */\n      0x80\n        /* \"#utility.yul\":6054:6063   */\n      dup4\n        /* \"#utility.yul\":6050:6069   */\n      add\n        /* \"#utility.yul\":6041:6047   */\n      dup9\n        /* \"#utility.yul\":5997:6070   */\n      tag_183\n      jump\t// in\n    tag_291:\n        /* \"#utility.yul\":6080:6153   */\n      tag_292\n        /* \"#utility.yul\":6148:6151   */\n      0xa0\n        /* \"#utility.yul\":6137:6146   */\n      dup4\n        /* \"#utility.yul\":6133:6152   */\n      add\n        /* \"#utility.yul\":6124:6130   */\n      dup8\n        /* \"#utility.yul\":6080:6153   */\n      tag_183\n      jump\t// in\n    tag_292:\n        /* \"#utility.yul\":6163:6236   */\n      tag_293\n        /* \"#utility.yul\":6231:6234   */\n      0xc0\n        /* \"#utility.yul\":6220:6229   */\n      dup4\n        /* \"#utility.yul\":6216:6235   */\n      add\n        /* \"#utility.yul\":6207:6213   */\n      dup7\n        /* \"#utility.yul\":6163:6236   */\n      tag_183\n      jump\t// in\n    tag_293:\n        /* \"#utility.yul\":6246:6319   */\n      tag_294\n        /* \"#utility.yul\":6314:6317   */\n      0xe0\n        /* \"#utility.yul\":6303:6312   */\n      dup4\n        /* \"#utility.yul\":6299:6318   */\n      add\n        /* \"#utility.yul\":6290:6296   */\n      dup6\n        /* \"#utility.yul\":6246:6319   */\n      tag_183\n      jump\t// in\n    tag_294:\n        /* \"#utility.yul\":6329:6396   */\n      tag_295\n        /* \"#utility.yul\":6391:6394   */\n      0x0100\n        /* \"#utility.yul\":6380:6389   */\n      dup4\n        /* \"#utility.yul\":6376:6395   */\n      add\n        /* \"#utility.yul\":6367:6373   */\n      dup5\n        /* \"#utility.yul\":6329:6396   */\n      tag_197\n      jump\t// in\n    tag_295:\n        /* \"#utility.yul\":5307:6403   */\n      swap11\n      swap10\n      pop\n      pop\n      pop\n      pop\n      pop\n      pop\n      pop\n      pop\n      pop\n      pop\n      jump\t// out\n        /* \"#utility.yul\":6409:7022   */\n    tag_62:\n        /* \"#utility.yul\":6483:6489   */\n      0x00\n        /* \"#utility.yul\":6491:6497   */\n      dup1\n        /* \"#utility.yul\":6499:6505   */\n      0x00\n        /* \"#utility.yul\":6548:6550   */\n      0x60\n        /* \"#utility.yul\":6536:6545   */\n      dup5\n        /* \"#utility.yul\":6527:6534   */\n      dup7\n        /* \"#utility.yul\":6523:6546   */\n      sub\n        /* \"#utility.yul\":6519:6551   */\n      slt\n        /* \"#utility.yul\":6516:6635   */\n      iszero\n      tag_297\n      jumpi\n        /* \"#utility.yul\":6554:6633   */\n      tag_298\n      tag_185\n      jump\t// in\n    tag_298:\n        /* \"#utility.yul\":6516:6635   */\n    tag_297:\n        /* \"#utility.yul\":6674:6675   */\n      0x00\n        /* \"#utility.yul\":6699:6752   */\n      tag_299\n        /* \"#utility.yul\":6744:6751   */\n      dup7\n        /* \"#utility.yul\":6735:6741   */\n      dup3\n        /* \"#utility.yul\":6724:6733   */\n      dup8\n        /* \"#utility.yul\":6720:6742   */\n      add\n        /* \"#utility.yul\":6699:6752   */\n      tag_188\n      jump\t// in\n    tag_299:\n        /* \"#utility.yul\":6689:6752   */\n      swap4\n      pop\n        /* \"#utility.yul\":6645:6762   */\n      pop\n        /* \"#utility.yul\":6801:6803   */\n      0x20\n        /* \"#utility.yul\":6827:6880   */\n      tag_300\n        /* \"#utility.yul\":6872:6879   */\n      dup7\n        /* \"#utility.yul\":6863:6869   */\n      dup3\n        /* \"#utility.yul\":6852:6861   */\n      dup8\n        /* \"#utility.yul\":6848:6870   */\n      add\n        /* \"#utility.yul\":6827:6880   */\n      tag_192\n      jump\t// in\n    tag_300:\n        /* \"#utility.yul\":6817:6880   */\n      swap3\n      pop\n        /* \"#utility.yul\":6772:6890   */\n      pop\n        /* \"#utility.yul\":6929:6931   */\n      0x40\n        /* \"#utility.yul\":6955:7005   */\n      tag_301\n        /* \"#utility.yul\":6997:7004   */\n      dup7\n        /* \"#utility.yul\":6988:6994   */\n      dup3\n        /* \"#utility.yul\":6977:6986   */\n      dup8\n        /* \"#utility.yul\":6973:6995   */\n      add\n        /* \"#utility.yul\":6955:7005   */\n      tag_195\n      jump\t// in\n    tag_301:\n        /* \"#utility.yul\":6945:7005   */\n      swap2\n      pop\n        /* \"#utility.yul\":6900:7015   */\n      pop\n        /* \"#utility.yul\":6409:7022   */\n      swap3\n      pop\n      swap3\n      pop\n      swap3\n      jump\t// out\n        /* \"#utility.yul\":7028:7197   */\n    tag_198:\n        /* \"#utility.yul\":7112:7123   */\n      0x00\n        /* \"#utility.yul\":7146:7152   */\n      dup3\n        /* \"#utility.yul\":7141:7144   */\n      dup3\n        /* \"#utility.yul\":7134:7153   */\n      mstore\n        /* \"#utility.yul\":7186:7190   */\n      0x20\n        /* \"#utility.yul\":7181:7184   */\n      dup3\n        /* \"#utility.yul\":7177:7191   */\n      add\n        /* \"#utility.yul\":7162:7191   */\n      swap1\n      pop\n        /* \"#utility.yul\":7028:7197   */\n      swap3\n      swap2\n      pop\n      pop\n      jump\t// out\n        /* \"#utility.yul\":7203:7367   */\n    tag_199:\n        /* \"#utility.yul\":7343:7359   */\n      0x4c414e3a206e6f74206f776e6572000000000000000000000000000000000000\n        /* \"#utility.yul\":7339:7340   */\n      0x00\n        /* \"#utility.yul\":7331:7337   */\n      dup3\n        /* \"#utility.yul\":7327:7341   */\n      add\n        /* \"#utility.yul\":7320:7360   */\n      mstore\n        /* \"#utility.yul\":7203:7367   */\n      pop\n      jump\t// out\n        /* \"#utility.yul\":7373:7739   */\n    tag_200:\n        /* \"#utility.yul\":7515:7518   */\n      0x00\n        /* \"#utility.yul\":7536:7603   */\n      tag_305\n        /* \"#utility.yul\":7600:7602   */\n      0x0e\n        /* \"#utility.yul\":7595:7598   */\n      dup4\n        /* \"#utility.yul\":7536:7603   */\n      tag_198\n      jump\t// in\n    tag_305:\n        /* \"#utility.yul\":7529:7603   */\n      swap2\n      pop\n        /* \"#utility.yul\":7612:7705   */\n      tag_306\n        /* \"#utility.yul\":7701:7704   */\n      dup3\n        /* \"#utility.yul\":7612:7705   */\n      tag_199\n      jump\t// in\n    tag_306:\n        /* \"#utility.yul\":7730:7732   */\n      0x20\n        /* \"#utility.yul\":7725:7728   */\n      dup3\n        /* \"#utility.yul\":7721:7733   */\n      add\n        /* \"#utility.yul\":7714:7733   */\n      swap1\n      pop\n        /* \"#utility.yul\":7373:7739   */\n      swap2\n      swap1\n      pop\n      jump\t// out\n        /* \"#utility.yul\":7745:8164   */\n    tag_67:\n        /* \"#utility.yul\":7911:7915   */\n      0x00\n        /* \"#utility.yul\":7949:7951   */\n      0x20\n        /* \"#utility.yul\":7938:7947   */\n      dup3\n        /* \"#utility.yul\":7934:7952   */\n      add\n        /* \"#utility.yul\":7926:7952   */\n      swap1\n      pop\n        /* \"#utility.yul\":7998:8007   */\n      dup2\n        /* \"#utility.yul\":7992:7996   */\n      dup2\n        /* \"#utility.yul\":7988:8008   */\n      sub\n        /* \"#utility.yul\":7984:7985   */\n      0x00\n        /* \"#utility.yul\":7973:7982   */\n      dup4\n        /* \"#utility.yul\":7969:7986   */\n      add\n        /* \"#utility.yul\":7962:8009   */\n      mstore\n        /* \"#utility.yul\":8026:8157   */\n      tag_308\n        /* \"#utility.yul\":8152:8156   */\n      dup2\n        /* \"#utility.yul\":8026:8157   */\n      tag_200\n      jump\t// in\n    tag_308:\n        /* \"#utility.yul\":8018:8157   */\n      swap1\n      pop\n        /* \"#utility.yul\":7745:8164   */\n      swap2\n      swap1\n      pop\n      jump\t// out\n        /* \"#utility.yul\":8170:8342   */\n    tag_201:\n        /* \"#utility.yul\":8310:8334   */\n      0x4c414e3a206e6f74206c61746573742062696464657200000000000000000000\n        /* \"#utility.yul\":8306:8307   */\n      0x00\n        /* \"#utility.yul\":8298:8304   */\n      dup3\n        /* \"#utility.yul\":8294:8308   */\n      add\n        /* \"#utility.yul\":8287:8335   */\n      mstore\n        /* \"#utility.yul\":8170:8342   */\n      pop\n      jump\t// out\n        /* \"#utility.yul\":8348:8714   */\n    tag_202:\n        /* \"#utility.yul\":8490:8493   */\n      0x00\n        /* \"#utility.yul\":8511:8578   */\n      tag_311\n        /* \"#utility.yul\":8575:8577   */\n      0x16\n        /* \"#utility.yul\":8570:8573   */\n      dup4\n        /* \"#utility.yul\":8511:8578   */\n      tag_198\n      jump\t// in\n    tag_311:\n        /* \"#utility.yul\":8504:8578   */\n      swap2\n      pop\n        /* \"#utility.yul\":8587:8680   */\n      tag_312\n        /* \"#utility.yul\":8676:8679   */\n      dup3\n        /* \"#utility.yul\":8587:8680   */\n      tag_201\n      jump\t// in\n    tag_312:\n        /* \"#utility.yul\":8705:8707   */\n      0x20\n        /* \"#utility.yul\":8700:8703   */\n      dup3\n        /* \"#utility.yul\":8696:8708   */\n      add\n        /* \"#utility.yul\":8689:8708   */\n      swap1\n      pop\n        /* \"#utility.yul\":8348:8714   */\n      swap2\n      swap1\n      pop\n      jump\t// out\n        /* \"#utility.yul\":8720:9139   */\n    tag_71:\n        /* \"#utility.yul\":8886:8890   */\n      0x00\n        /* \"#utility.yul\":8924:8926   */\n      0x20\n        /* \"#utility.yul\":8913:8922   */\n      dup3\n        /* \"#utility.yul\":8909:8927   */\n      add\n        /* \"#utility.yul\":8901:8927   */\n      swap1\n      pop\n        /* \"#utility.yul\":8973:8982   */\n      dup2\n        /* \"#utility.yul\":8967:8971   */\n      dup2\n        /* \"#utility.yul\":8963:8983   */\n      sub\n        /* \"#utility.yul\":8959:8960   */\n      0x00\n        /* \"#utility.yul\":8948:8957   */\n      dup4\n        /* \"#utility.yul\":8944:8961   */\n      add\n        /* \"#utility.yul\":8937:8984   */\n      mstore\n        /* \"#utility.yul\":9001:9132   */\n      tag_314\n        /* \"#utility.yul\":9127:9131   */\n      dup2\n        /* \"#utility.yul\":9001:9132   */\n      tag_202\n      jump\t// in\n    tag_314:\n        /* \"#utility.yul\":8993:9132   */\n      swap1\n      pop\n        /* \"#utility.yul\":8720:9139   */\n      swap2\n      swap1\n      pop\n      jump\t// out\n        /* \"#utility.yul\":9145:9587   */\n    tag_73:\n        /* \"#utility.yul\":9294:9298   */\n      0x00\n        /* \"#utility.yul\":9332:9334   */\n      0x60\n        /* \"#utility.yul\":9321:9330   */\n      dup3\n        /* \"#utility.yul\":9317:9335   */\n      add\n        /* \"#utility.yul\":9309:9335   */\n      swap1\n      pop\n        /* \"#utility.yul\":9345:9416   */\n      tag_316\n        /* \"#utility.yul\":9413:9414   */\n      0x00\n        /* \"#utility.yul\":9402:9411   */\n      dup4\n        /* \"#utility.yul\":9398:9415   */\n      add\n        /* \"#utility.yul\":9389:9395   */\n      dup7\n        /* \"#utility.yul\":9345:9416   */\n      tag_196\n      jump\t// in\n    tag_316:\n        /* \"#utility.yul\":9426:9498   */\n      tag_317\n        /* \"#utility.yul\":9494:9496   */\n      0x20\n        /* \"#utility.yul\":9483:9492   */\n      dup4\n        /* \"#utility.yul\":9479:9497   */\n      add\n        /* \"#utility.yul\":9470:9476   */\n      dup6\n        /* \"#utility.yul\":9426:9498   */\n      tag_196\n      jump\t// in\n    tag_317:\n        /* \"#utility.yul\":9508:9580   */\n      tag_318\n        /* \"#utility.yul\":9576:9578   */\n      0x40\n        /* \"#utility.yul\":9565:9574   */\n      dup4\n        /* \"#utility.yul\":9561:9579   */\n      add\n        /* \"#utility.yul\":9552:9558   */\n      dup5\n        /* \"#utility.yul\":9508:9580   */\n      tag_183\n      jump\t// in\n    tag_318:\n        /* \"#utility.yul\":9145:9587   */\n      swap5\n      swap4\n      pop\n      pop\n      pop\n      pop\n      jump\t// out\n        /* \"#utility.yul\":9593:9766   */\n    tag_203:\n        /* \"#utility.yul\":9733:9758   */\n      0x4c414e3a2073746172742074696d6520696e2070617374000000000000000000\n        /* \"#utility.yul\":9729:9730   */\n      0x00\n        /* \"#utility.yul\":9721:9727   */\n      dup3\n        /* \"#utility.yul\":9717:9731   */\n      add\n        /* \"#utility.yul\":9710:9759   */\n      mstore\n        /* \"#utility.yul\":9593:9766   */\n      pop\n      jump\t// out\n        /* \"#utility.yul\":9772:10138   */\n    tag_204:\n        /* \"#utility.yul\":9914:9917   */\n      0x00\n        /* \"#utility.yul\":9935:10002   */\n      tag_321\n        /* \"#utility.yul\":9999:10001   */\n      0x17\n        /* \"#utility.yul\":9994:9997   */\n      dup4\n        /* \"#utility.yul\":9935:10002   */\n      tag_198\n      jump\t// in\n    tag_321:\n        /* \"#utility.yul\":9928:10002   */\n      swap2\n      pop\n        /* \"#utility.yul\":10011:10104   */\n      tag_322\n        /* \"#utility.yul\":10100:10103   */\n      dup3\n        /* \"#utility.yul\":10011:10104   */\n      tag_203\n      jump\t// in\n    tag_322:\n        /* \"#utility.yul\":10129:10131   */\n      0x20\n        /* \"#utility.yul\":10124:10127   */\n      dup3\n        /* \"#utility.yul\":10120:10132   */\n      add\n        /* \"#utility.yul\":10113:10132   */\n      swap1\n      pop\n        /* \"#utility.yul\":9772:10138   */\n      swap2\n      swap1\n      pop\n      jump\t// out\n        /* \"#utility.yul\":10144:10563   */\n    tag_80:\n        /* \"#utility.yul\":10310:10314   */\n      0x00\n        /* \"#utility.yul\":10348:10350   */\n      0x20\n        /* \"#utility.yul\":10337:10346   */\n      dup3\n        /* \"#utility.yul\":10333:10351   */\n      add\n        /* \"#utility.yul\":10325:10351   */\n      swap1\n      pop\n        /* \"#utility.yul\":10397:10406   */\n      dup2\n        /* \"#utility.yul\":10391:10395   */\n      dup2\n        /* \"#utility.yul\":10387:10407   */\n      sub\n        /* \"#utility.yul\":10383:10384   */\n      0x00\n        /* \"#utility.yul\":10372:10381   */\n      dup4\n        /* \"#utility.yul\":10368:10385   */\n      add\n        /* \"#utility.yul\":10361:10408   */\n      mstore\n        /* \"#utility.yul\":10425:10556   */\n      tag_324\n        /* \"#utility.yul\":10551:10555   */\n      dup2\n        /* \"#utility.yul\":10425:10556   */\n      tag_204\n      jump\t// in\n    tag_324:\n        /* \"#utility.yul\":10417:10556   */\n      swap1\n      pop\n        /* \"#utility.yul\":10144:10563   */\n      swap2\n      swap1\n      pop\n      jump\t// out\n        /* \"#utility.yul\":10569:10739   */\n    tag_205:\n        /* \"#utility.yul\":10709:10731   */\n      0x4c414e3a20737461727420616674657220656e64000000000000000000000000\n        /* \"#utility.yul\":10705:10706   */\n      0x00\n        /* \"#utility.yul\":10697:10703   */\n      dup3\n        /* \"#utility.yul\":10693:10707   */\n      add\n        /* \"#utility.yul\":10686:10732   */\n      mstore\n        /* \"#utility.yul\":10569:10739   */\n      pop\n      jump\t// out\n        /* \"#utility.yul\":10745:11111   */\n    tag_206:\n        /* \"#utility.yul\":10887:10890   */\n      0x00\n        /* \"#utility.yul\":10908:10975   */\n      tag_327\n        /* \"#utility.yul\":10972:10974   */\n      0x14\n        /* \"#utility.yul\":10967:10970   */\n      dup4\n        /* \"#utility.yul\":10908:10975   */\n      tag_198\n      jump\t// in\n    tag_327:\n        /* \"#utility.yul\":10901:10975   */\n      swap2\n      pop\n        /* \"#utility.yul\":10984:11077   */\n      tag_328\n        /* \"#utility.yul\":11073:11076   */\n      dup3\n        /* \"#utility.yul\":10984:11077   */\n      tag_205\n      jump\t// in\n    tag_328:\n        /* \"#utility.yul\":11102:11104   */\n      0x20\n        /* \"#utility.yul\":11097:11100   */\n      dup3\n        /* \"#utility.yul\":11093:11105   */\n      add\n        /* \"#utility.yul\":11086:11105   */\n      swap1\n      pop\n        /* \"#utility.yul\":10745:11111   */\n      swap2\n      swap1\n      pop\n      jump\t// out\n        /* \"#utility.yul\":11117:11536   */\n    tag_83:\n        /* \"#utility.yul\":11283:11287   */\n      0x00\n        /* \"#utility.yul\":11321:11323   */\n      0x20\n        /* \"#utility.yul\":11310:11319   */\n      dup3\n        /* \"#utility.yul\":11306:11324   */\n      add\n        /* \"#utility.yul\":11298:11324   */\n      swap1\n      pop\n        /* \"#utility.yul\":11370:11379   */\n      dup2\n        /* \"#utility.yul\":11364:11368   */\n      dup2\n        /* \"#utility.yul\":11360:11380   */\n      sub\n        /* \"#utility.yul\":11356:11357   */\n      0x00\n        /* \"#utility.yul\":11345:11354   */\n      dup4\n        /* \"#utility.yul\":11341:11358   */\n      add\n        /* \"#utility.yul\":11334:11381   */\n      mstore\n        /* \"#utility.yul\":11398:11529   */\n      tag_330\n        /* \"#utility.yul\":11524:11528   */\n      dup2\n        /* \"#utility.yul\":11398:11529   */\n      tag_206\n      jump\t// in\n    tag_330:\n        /* \"#utility.yul\":11390:11529   */\n      swap1\n      pop\n        /* \"#utility.yul\":11117:11536   */\n      swap2\n      swap1\n      pop\n      jump\t// out\n        /* \"#utility.yul\":11542:11874   */\n    tag_85:\n        /* \"#utility.yul\":11663:11667   */\n      0x00\n        /* \"#utility.yul\":11701:11703   */\n      0x40\n        /* \"#utility.yul\":11690:11699   */\n      dup3\n        /* \"#utility.yul\":11686:11704   */\n      add\n        /* \"#utility.yul\":11678:11704   */\n      swap1\n      pop\n        /* \"#utility.yul\":11714:11785   */\n      tag_332\n        /* \"#utility.yul\":11782:11783   */\n      0x00\n        /* \"#utility.yul\":11771:11780   */\n      dup4\n        /* \"#utility.yul\":11767:11784   */\n      add\n        /* \"#utility.yul\":11758:11764   */\n      dup6\n        /* \"#utility.yul\":11714:11785   */\n      tag_196\n      jump\t// in\n    tag_332:\n        /* \"#utility.yul\":11795:11867   */\n      tag_333\n        /* \"#utility.yul\":11863:11865   */\n      0x20\n        /* \"#utility.yul\":11852:11861   */\n      dup4\n        /* \"#utility.yul\":11848:11866   */\n      add\n        /* \"#utility.yul\":11839:11845   */\n      dup5\n        /* \"#utility.yul\":11795:11867   */\n      tag_183\n      jump\t// in\n    tag_333:\n        /* \"#utility.yul\":11542:11874   */\n      swap4\n      swap3\n      pop\n      pop\n      pop\n      jump\t// out\n        /* \"#utility.yul\":11880:12060   */\n    tag_207:\n        /* \"#utility.yul\":11928:12005   */\n      0x4e487b7100000000000000000000000000000000000000000000000000000000\n        /* \"#utility.yul\":11925:11926   */\n      0x00\n        /* \"#utility.yul\":11918:12006   */\n      mstore\n        /* \"#utility.yul\":12025:12029   */\n      0x11\n        /* \"#utility.yul\":12022:12023   */\n      0x04\n        /* \"#utility.yul\":12015:12030   */\n      mstore\n        /* \"#utility.yul\":12049:12053   */\n      0x24\n        /* \"#utility.yul\":12046:12047   */\n      0x00\n        /* \"#utility.yul\":12039:12054   */\n      revert\n        /* \"#utility.yul\":12066:12299   */\n    tag_87:\n        /* \"#utility.yul\":12105:12108   */\n      0x00\n        /* \"#utility.yul\":12128:12152   */\n      tag_336\n        /* \"#utility.yul\":12146:12151   */\n      dup3\n        /* \"#utility.yul\":12128:12152   */\n      tag_182\n      jump\t// in\n    tag_336:\n        /* \"#utility.yul\":12119:12152   */\n      swap2\n      pop\n        /* \"#utility.yul\":12174:12240   */\n      0xffffffffffffffffffffffffffffffffffffffffffffffffffffffffffffffff\n        /* \"#utility.yul\":12167:12172   */\n      dup3\n        /* \"#utility.yul\":12164:12241   */\n      sub\n        /* \"#utility.yul\":12161:12264   */\n      tag_337\n      jumpi\n        /* \"#utility.yul\":12244:12262   */\n      tag_338\n      tag_207\n      jump\t// in\n    tag_338:\n        /* \"#utility.yul\":12161:12264   */\n    tag_337:\n        /* \"#utility.yul\":12291:12292   */\n      0x01\n        /* \"#utility.yul\":12284:12289   */\n      dup3\n        /* \"#utility.yul\":12280:12293   */\n      add\n        /* \"#utility.yul\":12273:12293   */\n      swap1\n      pop\n        /* \"#utility.yul\":12066:12299   */\n      swap2\n      swap1\n      pop\n      jump\t// out\n        /* \"#utility.yul\":12305:12475   */\n    tag_208:\n        /* \"#utility.yul\":12445:12467   */\n      0x4c414e3a20616c72656164792073746172746564000000000000000000000000\n        /* \"#utility.yul\":12441:12442   */\n      0x00\n        /* \"#utility.yul\":12433:12439   */\n      dup3\n        /* \"#utility.yul\":12429:12443   */\n      add\n        /* \"#utility.yul\":12422:12468   */\n      mstore\n        /* \"#utility.yul\":12305:12475   */\n      pop\n      jump\t// out\n        /* \"#utility.yul\":12481:12847   */\n    tag_209:\n        /* \"#utility.yul\":12623:12626   */\n      0x00\n        /* \"#utility.yul\":12644:12711   */\n      tag_341\n        /* \"#utility.yul\":12708:12710   */\n      0x14\n        /* \"#utility.yul\":12703:12706   */\n      dup4\n        /* \"#utility.yul\":12644:12711   */\n      tag_198\n      jump\t// in\n    tag_341:\n        /* \"#utility.yul\":12637:12711   */\n      swap2\n      pop\n        /* \"#utility.yul\":12720:12813   */\n      tag_342\n        /* \"#utility.yul\":12809:12812   */\n      dup3\n        /* \"#utility.yul\":12720:12813   */\n      tag_208\n      jump\t// in\n    tag_342:\n        /* \"#utility.yul\":12838:12840   */\n      0x20\n        /* \"#utility.yul\":12833:12836   */\n      dup3\n        /* \"#utility.yul\":12829:12841   */\n      add\n        /* \"#utility.yul\":12822:12841   */\n      swap1\n      pop\n        /* \"#utility.yul\":12481:12847   */\n      swap2\n      swap1\n      pop\n      jump\t// out\n        /* \"#utility.yul\":12853:13272   */\n    tag_94:\n        /* \"#utility.yul\":13019:13023   */\n      0x00\n        /* \"#utility.yul\":13057:13059   */\n      0x20\n        /* \"#utility.yul\":13046:13055   */\n      dup3\n        /* \"#utility.yul\":13042:13060   */\n      add\n        /* \"#utility.yul\":13034:13060   */\n      swap1\n      pop\n        /* \"#utility.yul\":13106:13115   */\n      dup2\n        /* \"#utility.yul\":13100:13104   */\n      dup2\n        /* \"#utility.yul\":13096:13116   */\n      sub\n        /* \"#utility.yul\":13092:13093   */\n      0x00\n        /* \"#utility.yul\":13081:13090   */\n      dup4\n        /* \"#utility.yul\":13077:13094   */\n      add\n        /* \"#utility.yul\":13070:13117   */\n      mstore\n        /* \"#utility.yul\":13134:13265   */\n      tag_344\n        /* \"#utility.yul\":13260:13264   */\n      dup2\n        /* \"#utility.yul\":13134:13265   */\n      tag_209\n      jump\t// in\n    tag_344:\n        /* \"#utility.yul\":13126:13265   */\n      swap1\n      pop\n        /* \"#utility.yul\":12853:13272   */\n      swap2\n      swap1\n      pop\n      jump\t// out\n        /* \"#utility.yul\":13278:13447   */\n    tag_210:\n        /* \"#utility.yul\":13418:13439   */\n      0x4c414e3a206c6f616e206e6f7420656e64656400000000000000000000000000\n        /* \"#utility.yul\":13414:13415   */\n      0x00\n        /* \"#utility.yul\":13406:13412   */\n      dup3\n        /* \"#utility.yul\":13402:13416   */\n      add\n        /* \"#utility.yul\":13395:13440   */\n      mstore\n        /* \"#utility.yul\":13278:13447   */\n      pop\n      jump\t// out\n        /* \"#utility.yul\":13453:13819   */\n    tag_211:\n        /* \"#utility.yul\":13595:13598   */\n      0x00\n        /* \"#utility.yul\":13616:13683   */\n      tag_347\n        /* \"#utility.yul\":13680:13682   */\n      0x13\n        /* \"#utility.yul\":13675:13678   */\n      dup4\n        /* \"#utility.yul\":13616:13683   */\n      tag_198\n      jump\t// in\n    tag_347:\n        /* \"#utility.yul\":13609:13683   */\n      swap2\n      pop\n        /* \"#utility.yul\":13692:13785   */\n      tag_348\n        /* \"#utility.yul\":13781:13784   */\n      dup3\n        /* \"#utility.yul\":13692:13785   */\n      tag_210\n      jump\t// in\n    tag_348:\n        /* \"#utility.yul\":13810:13812   */\n      0x20\n        /* \"#utility.yul\":13805:13808   */\n      dup3\n        /* \"#utility.yul\":13801:13813   */\n      add\n        /* \"#utility.yul\":13794:13813   */\n      swap1\n      pop\n        /* \"#utility.yul\":13453:13819   */\n      swap2\n      swap1\n      pop\n      jump\t// out\n        /* \"#utility.yul\":13825:14244   */\n    tag_103:\n        /* \"#utility.yul\":13991:13995   */\n      0x00\n        /* \"#utility.yul\":14029:14031   */\n      0x20\n        /* \"#utility.yul\":14018:14027   */\n      dup3\n        /* \"#utility.yul\":14014:14032   */\n      add\n        /* \"#utility.yul\":14006:14032   */\n      swap1\n      pop\n        /* \"#utility.yul\":14078:14087   */\n      dup2\n        /* \"#utility.yul\":14072:14076   */\n      dup2\n        /* \"#utility.yul\":14068:14088   */\n      sub\n        /* \"#utility.yul\":14064:14065   */\n      0x00\n        /* \"#utility.yul\":14053:14062   */\n      dup4\n        /* \"#utility.yul\":14049:14066   */\n      add\n        /* \"#utility.yul\":14042:14089   */\n      mstore\n        /* \"#utility.yul\":14106:14237   */\n      tag_350\n        /* \"#utility.yul\":14232:14236   */\n      dup2\n        /* \"#utility.yul\":14106:14237   */\n      tag_211\n      jump\t// in\n    tag_350:\n        /* \"#utility.yul\":14098:14237   */\n      swap1\n      pop\n        /* \"#utility.yul\":13825:14244   */\n      swap2\n      swap1\n      pop\n      jump\t// out\n        /* \"#utility.yul\":14250:14416   */\n    tag_212:\n        /* \"#utility.yul\":14390:14408   */\n      0x4c414e3a206e6f74207374617274656400000000000000000000000000000000\n        /* \"#utility.yul\":14386:14387   */\n      0x00\n        /* \"#utility.yul\":14378:14384   */\n      dup3\n        /* \"#utility.yul\":14374:14388   */\n      add\n        /* \"#utility.yul\":14367:14409   */\n      mstore\n        /* \"#utility.yul\":14250:14416   */\n      pop\n      jump\t// out\n        /* \"#utility.yul\":14422:14788   */\n    tag_213:\n        /* \"#utility.yul\":14564:14567   */\n      0x00\n        /* \"#utility.yul\":14585:14652   */\n      tag_353\n        /* \"#utility.yul\":14649:14651   */\n      0x10\n        /* \"#utility.yul\":14644:14647   */\n      dup4\n        /* \"#utility.yul\":14585:14652   */\n      tag_198\n      jump\t// in\n    tag_353:\n        /* \"#utility.yul\":14578:14652   */\n      swap2\n      pop\n        /* \"#utility.yul\":14661:14754   */\n      tag_354\n        /* \"#utility.yul\":14750:14753   */\n      dup3\n        /* \"#utility.yul\":14661:14754   */\n      tag_212\n      jump\t// in\n    tag_354:\n        /* \"#utility.yul\":14779:14781   */\n      0x20\n        /* \"#utility.yul\":14774:14777   */\n      dup3\n        /* \"#utility.yul\":14770:14782   */\n      add\n        /* \"#utility.yul\":14763:14782   */\n      swap1\n      pop\n        /* \"#utility.yul\":14422:14788   */\n      swap2\n      swap1\n      pop\n      jump\t// out\n        /* \"#utility.yul\":14794:15213   */\n    tag_115:\n        /* \"#utility.yul\":14960:14964   */\n      0x00\n        /* \"#utility.yul\":14998:15000   */\n      0x20\n        /* \"#utility.yul\":14987:14996   */\n      dup3\n        /* \"#utility.yul\":14983:15001   */\n      add\n        /* \"#utility.yul\":14975:15001   */\n      swap1\n      pop\n        /* \"#utility.yul\":15047:15056   */\n      dup2\n        /* \"#utility.yul\":15041:15045   */\n      dup2\n        /* \"#utility.yul\":15037:15057   */\n      sub\n        /* \"#utility.yul\":15033:15034   */\n      0x00\n        /* \"#utility.yul\":15022:15031   */\n      dup4\n        /* \"#utility.yul\":15018:15035   */\n      add\n        /* \"#utility.yul\":15011:15058   */\n      mstore\n        /* \"#utility.yul\":15075:15206   */\n      tag_356\n        /* \"#utility.yul\":15201:15205   */\n      dup2\n        /* \"#utility.yul\":15075:15206   */\n      tag_213\n      jump\t// in\n    tag_356:\n        /* \"#utility.yul\":15067:15206   */\n      swap1\n      pop\n        /* \"#utility.yul\":14794:15213   */\n      swap2\n      swap1\n      pop\n      jump\t// out\n        /* \"#utility.yul\":15219:15387   */\n    tag_214:\n        /* \"#utility.yul\":15359:15379   */\n      0x4c414e3a20616c726561647920656e6465640000000000000000000000000000\n        /* \"#utility.yul\":15355:15356   */\n      0x00\n        /* \"#utility.yul\":15347:15353   */\n      dup3\n        /* \"#utility.yul\":15343:15357   */\n      add\n        /* \"#utility.yul\":15336:15380   */\n      mstore\n        /* \"#utility.yul\":15219:15387   */\n      pop\n      jump\t// out\n        /* \"#utility.yul\":15393:15759   */\n    tag_215:\n        /* \"#utility.yul\":15535:15538   */\n      0x00\n        /* \"#utility.yul\":15556:15623   */\n      tag_359\n        /* \"#utility.yul\":15620:15622   */\n      0x12\n        /* \"#utility.yul\":15615:15618   */\n      dup4\n        /* \"#utility.yul\":15556:15623   */\n      tag_198\n      jump\t// in\n    tag_359:\n        /* \"#utility.yul\":15549:15623   */\n      swap2\n      pop\n        /* \"#utility.yul\":15632:15725   */\n      tag_360\n        /* \"#utility.yul\":15721:15724   */\n      dup3\n        /* \"#utility.yul\":15632:15725   */\n      tag_214\n      jump\t// in\n    tag_360:\n        /* \"#utility.yul\":15750:15752   */\n      0x20\n        /* \"#utility.yul\":15745:15748   */\n      dup3\n        /* \"#utility.yul\":15741:15753   */\n      add\n        /* \"#utility.yul\":15734:15753   */\n      swap1\n      pop\n        /* \"#utility.yul\":15393:15759   */\n      swap2\n      swap1\n      pop\n      jump\t// out\n        /* \"#utility.yul\":15765:16184   */\n    tag_119:\n        /* \"#utility.yul\":15931:15935   */\n      0x00\n        /* \"#utility.yul\":15969:15971   */\n      0x20\n        /* \"#utility.yul\":15958:15967   */\n      dup3\n        /* \"#utility.yul\":15954:15972   */\n      add\n        /* \"#utility.yul\":15946:15972   */\n      swap1\n      pop\n        /* \"#utility.yul\":16018:16027   */\n      dup2\n        /* \"#utility.yul\":16012:16016   */\n      dup2\n        /* \"#utility.yul\":16008:16028   */\n      sub\n        /* \"#utility.yul\":16004:16005   */\n      0x00\n        /* \"#utility.yul\":15993:16002   */\n      dup4\n        /* \"#utility.yul\":15989:16006   */\n      add\n        /* \"#utility.yul\":15982:16029   */\n      mstore\n        /* \"#utility.yul\":16046:16177   */\n      tag_362\n        /* \"#utility.yul\":16172:16176   */\n      dup2\n        /* \"#utility.yul\":16046:16177   */\n      tag_215\n      jump\t// in\n    tag_362:\n        /* \"#utility.yul\":16038:16177   */\n      swap1\n      pop\n        /* \"#utility.yul\":15765:16184   */\n      swap2\n      swap1\n      pop\n      jump\t// out\n        /* \"#utility.yul\":16190:16360   */\n    tag_216:\n        /* \"#utility.yul\":16330:16352   */\n      0x4c414e3a204e6f742057686974656c6973746564000000000000000000000000\n        /* \"#utility.yul\":16326:16327   */\n      0x00\n        /* \"#utility.yul\":16318:16324   */\n      dup3\n        /* \"#utility.yul\":16314:16328   */\n      add\n        /* \"#utility.yul\":16307:16353   */\n      mstore\n        /* \"#utility.yul\":16190:16360   */\n      pop\n      jump\t// out\n        /* \"#utility.yul\":16366:16732   */\n    tag_217:\n        /* \"#utility.yul\":16508:16511   */\n      0x00\n        /* \"#utility.yul\":16529:16596   */\n      tag_365\n        /* \"#utility.yul\":16593:16595   */\n      0x14\n        /* \"#utility.yul\":16588:16591   */\n      dup4\n        /* \"#utility.yul\":16529:16596   */\n      tag_198\n      jump\t// in\n    tag_365:\n        /* \"#utility.yul\":16522:16596   */\n      swap2\n      pop\n        /* \"#utility.yul\":16605:16698   */\n      tag_366\n        /* \"#utility.yul\":16694:16697   */\n      dup3\n        /* \"#utility.yul\":16605:16698   */\n      tag_216\n      jump\t// in\n    tag_366:\n        /* \"#utility.yul\":16723:16725   */\n      0x20\n        /* \"#utility.yul\":16718:16721   */\n      dup3\n        /* \"#utility.yul\":16714:16726   */\n      add\n        /* \"#utility.yul\":16707:16726   */\n      swap1\n      pop\n        /* \"#utility.yul\":16366:16732   */\n      swap2\n      swap1\n      pop\n      jump\t// out\n        /* \"#utility.yul\":16738:17157   */\n    tag_124:\n        /* \"#utility.yul\":16904:16908   */\n      0x00\n        /* \"#utility.yul\":16942:16944   */\n      0x20\n        /* \"#utility.yul\":16931:16940   */\n      dup3\n        /* \"#utility.yul\":16927:16945   */\n      add\n        /* \"#utility.yul\":16919:16945   */\n      swap1\n      pop\n        /* \"#utility.yul\":16991:17000   */\n      dup2\n        /* \"#utility.yul\":16985:16989   */\n      dup2\n        /* \"#utility.yul\":16981:17001   */\n      sub\n        /* \"#utility.yul\":16977:16978   */\n      0x00\n        /* \"#utility.yul\":16966:16975   */\n      dup4\n        /* \"#utility.yul\":16962:16979   */\n      add\n        /* \"#utility.yul\":16955:17002   */\n      mstore\n        /* \"#utility.yul\":17019:17150   */\n      tag_368\n        /* \"#utility.yul\":17145:17149   */\n      dup2\n        /* \"#utility.yul\":17019:17150   */\n      tag_217\n      jump\t// in\n    tag_368:\n        /* \"#utility.yul\":17011:17150   */\n      swap1\n      pop\n        /* \"#utility.yul\":16738:17157   */\n      swap2\n      swap1\n      pop\n      jump\t// out\n        /* \"#utility.yul\":17163:17354   */\n    tag_126:\n        /* \"#utility.yul\":17203:17206   */\n      0x00\n        /* \"#utility.yul\":17222:17242   */\n      tag_370\n        /* \"#utility.yul\":17240:17241   */\n      dup3\n        /* \"#utility.yul\":17222:17242   */\n      tag_182\n      jump\t// in\n    tag_370:\n        /* \"#utility.yul\":17217:17242   */\n      swap2\n      pop\n        /* \"#utility.yul\":17256:17276   */\n      tag_371\n        /* \"#utility.yul\":17274:17275   */\n      dup4\n        /* \"#utility.yul\":17256:17276   */\n      tag_182\n      jump\t// in\n    tag_371:\n        /* \"#utility.yul\":17251:17276   */\n      swap3\n      pop\n        /* \"#utility.yul\":17299:17300   */\n      dup3\n        /* \"#utility.yul\":17296:17297   */\n      dup3\n        /* \"#utility.yul\":17292:17301   */\n      add\n        /* \"#utility.yul\":17285:17301   */\n      swap1\n      pop\n        /* \"#utility.yul\":17320:17323   */\n      dup1\n        /* \"#utility.yul\":17317:17318   */\n      dup3\n        /* \"#utility.yul\":17314:17324   */\n      gt\n        /* \"#utility.yul\":17311:17347   */\n      iszero\n      tag_372\n      jumpi\n        /* \"#utility.yul\":17327:17345   */\n      tag_373\n      tag_207\n      jump\t// in\n    tag_373:\n        /* \"#utility.yul\":17311:17347   */\n    tag_372:\n        /* \"#utility.yul\":17163:17354   */\n      swap3\n      swap2\n      pop\n      pop\n      jump\t// out\n        /* \"#utility.yul\":17360:17529   */\n    tag_218:\n        /* \"#utility.yul\":17500:17521   */\n      0x4c414e3a20626964206e6f742068696768657200000000000000000000000000\n        /* \"#utility.yul\":17496:17497   */\n      0x00\n        /* \"#utility.yul\":17488:17494   */\n      dup3\n        /* \"#utility.yul\":17484:17498   */\n      add\n        /* \"#utility.yul\":17477:17522   */\n      mstore\n        /* \"#utility.yul\":17360:17529   */\n      pop\n      jump\t// out\n        /* \"#utility.yul\":17535:17901   */\n    tag_219:\n        /* \"#utility.yul\":17677:17680   */\n      0x00\n        /* \"#utility.yul\":17698:17765   */\n      tag_376\n        /* \"#utility.yul\":17762:17764   */\n      0x13\n        /* \"#utility.yul\":17757:17760   */\n      dup4\n        /* \"#utility.yul\":17698:17765   */\n      tag_198\n      jump\t// in\n    tag_376:\n        /* \"#utility.yul\":17691:17765   */\n      swap2\n      pop\n        /* \"#utility.yul\":17774:17867   */\n      tag_377\n        /* \"#utility.yul\":17863:17866   */\n      dup3\n        /* \"#utility.yul\":17774:17867   */\n      tag_218\n      jump\t// in\n    tag_377:\n        /* \"#utility.yul\":17892:17894   */\n      0x20\n        /* \"#utility.yul\":17887:17890   */\n      dup3\n        /* \"#utility.yul\":17883:17895   */\n      add\n        /* \"#utility.yul\":17876:17895   */\n      swap1\n      pop\n        /* \"#utility.yul\":17535:17901   */\n      swap2\n      swap1\n      pop\n      jump\t// out\n        /* \"#utility.yul\":17907:18326   */\n    tag_131:\n        /* \"#utility.yul\":18073:18077   */\n      0x00\n        /* \"#utility.yul\":18111:18113   */\n      0x20\n        /* \"#utility.yul\":18100:18109   */\n      dup3\n        /* \"#utility.yul\":18096:18114   */\n      add\n        /* \"#utility.yul\":18088:18114   */\n      swap1\n      pop\n        /* \"#utility.yul\":18160:18169   */\n      dup2\n        /* \"#utility.yul\":18154:18158   */\n      dup2\n        /* \"#utility.yul\":18150:18170   */\n      sub\n        /* \"#utility.yul\":18146:18147   */\n      0x00\n        /* \"#utility.yul\":18135:18144   */\n      dup4\n        /* \"#utility.yul\":18131:18148   */\n      add\n        /* \"#utility.yul\":18124:18171   */\n      mstore\n        /* \"#utility.yul\":18188:18319   */\n      tag_379\n        /* \"#utility.yul\":18314:18318   */\n      dup2\n        /* \"#utility.yul\":18188:18319   */\n      tag_219\n      jump\t// in\n    tag_379:\n        /* \"#utility.yul\":18180:18319   */\n      swap1\n      pop\n        /* \"#utility.yul\":17907:18326   */\n      swap2\n      swap1\n      pop\n      jump\t// out\n        /* \"#utility.yul\":18332:18469   */\n    tag_220:\n        /* \"#utility.yul\":18386:18391   */\n      0x00\n        /* \"#utility.yul\":18417:18423   */\n      dup2\n        /* \"#utility.yul\":18411:18424   */\n      mload\n        /* \"#utility.yul\":18402:18424   */\n      swap1\n      pop\n        /* \"#utility.yul\":18433:18463   */\n      tag_381\n        /* \"#utility.yul\":18457:18462   */\n      dup2\n        /* \"#utility.yul\":18433:18463   */\n      tag_194\n      jump\t// in\n    tag_381:\n        /* \"#utility.yul\":18332:18469   */\n      swap3\n      swap2\n      pop\n      pop\n      jump\t// out\n        /* \"#utility.yul\":18475:18820   */\n    tag_136:\n        /* \"#utility.yul\":18542:18548   */\n      0x00\n        /* \"#utility.yul\":18591:18593   */\n      0x20\n        /* \"#utility.yul\":18579:18588   */\n      dup3\n        /* \"#utility.yul\":18570:18577   */\n      dup5\n        /* \"#utility.yul\":18566:18589   */\n      sub\n        /* \"#utility.yul\":18562:18594   */\n      slt\n        /* \"#utility.yul\":18559:18678   */\n      iszero\n      tag_383\n      jumpi\n        /* \"#utility.yul\":18597:18676   */\n      tag_384\n      tag_185\n      jump\t// in\n    tag_384:\n        /* \"#utility.yul\":18559:18678   */\n    tag_383:\n        /* \"#utility.yul\":18717:18718   */\n      0x00\n        /* \"#utility.yul\":18742:18803   */\n      tag_385\n        /* \"#utility.yul\":18795:18802   */\n      dup5\n        /* \"#utility.yul\":18786:18792   */\n      dup3\n        /* \"#utility.yul\":18775:18784   */\n      dup6\n        /* \"#utility.yul\":18771:18793   */\n      add\n        /* \"#utility.yul\":18742:18803   */\n      tag_220\n      jump\t// in\n    tag_385:\n        /* \"#utility.yul\":18732:18803   */\n      swap2\n      pop\n        /* \"#utility.yul\":18688:18813   */\n      pop\n        /* \"#utility.yul\":18475:18820   */\n      swap3\n      swap2\n      pop\n      pop\n      jump\t// out\n        /* \"#utility.yul\":18826:19020   */\n    tag_138:\n        /* \"#utility.yul\":18866:18870   */\n      0x00\n        /* \"#utility.yul\":18886:18906   */\n      tag_387\n        /* \"#utility.yul\":18904:18905   */\n      dup3\n        /* \"#utility.yul\":18886:18906   */\n      tag_182\n      jump\t// in\n    tag_387:\n        /* \"#utility.yul\":18881:18906   */\n      swap2\n      pop\n        /* \"#utility.yul\":18920:18940   */\n      tag_388\n        /* \"#utility.yul\":18938:18939   */\n      dup4\n        /* \"#utility.yul\":18920:18940   */\n      tag_182\n      jump\t// in\n    tag_388:\n        /* \"#utility.yul\":18915:18940   */\n      swap3\n      pop\n        /* \"#utility.yul\":18964:18965   */\n      dup3\n        /* \"#utility.yul\":18961:18962   */\n      dup3\n        /* \"#utility.yul\":18957:18966   */\n      sub\n        /* \"#utility.yul\":18949:18966   */\n      swap1\n      pop\n        /* \"#utility.yul\":18988:18989   */\n      dup2\n        /* \"#utility.yul\":18982:18986   */\n      dup2\n        /* \"#utility.yul\":18979:18990   */\n      gt\n        /* \"#utility.yul\":18976:19013   */\n      iszero\n      tag_389\n      jumpi\n        /* \"#utility.yul\":18993:19011   */\n      tag_390\n      tag_207\n      jump\t// in\n    tag_390:\n        /* \"#utility.yul\":18976:19013   */\n    tag_389:\n        /* \"#utility.yul\":18826:19020   */\n      swap3\n      swap2\n      pop\n      pop\n      jump\t// out\n        /* \"#utility.yul\":19026:19202   */\n    tag_221:\n        /* \"#utility.yul\":19166:19194   */\n      0x4c414e3a204e6f7420746865206c617465737420626964646572000000000000\n        /* \"#utility.yul\":19162:19163   */\n      0x00\n        /* \"#utility.yul\":19154:19160   */\n      dup3\n        /* \"#utility.yul\":19150:19164   */\n      add\n        /* \"#utility.yul\":19143:19195   */\n      mstore\n        /* \"#utility.yul\":19026:19202   */\n      pop\n      jump\t// out\n        /* \"#utility.yul\":19208:19574   */\n    tag_222:\n        /* \"#utility.yul\":19350:19353   */\n      0x00\n        /* \"#utility.yul\":19371:19438   */\n      tag_393\n        /* \"#utility.yul\":19435:19437   */\n      0x1a\n        /* \"#utility.yul\":19430:19433   */\n      dup4\n        /* \"#utility.yul\":19371:19438   */\n      tag_198\n      jump\t// in\n    tag_393:\n        /* \"#utility.yul\":19364:19438   */\n      swap2\n      pop\n        /* \"#utility.yul\":19447:19540   */\n      tag_394\n        /* \"#utility.yul\":19536:19539   */\n      dup3\n        /* \"#utility.yul\":19447:19540   */\n      tag_221\n      jump\t// in\n    tag_394:\n        /* \"#utility.yul\":19565:19567   */\n      0x20\n        /* \"#utility.yul\":19560:19563   */\n      dup3\n        /* \"#utility.yul\":19556:19568   */\n      add\n        /* \"#utility.yul\":19549:19568   */\n      swap1\n      pop\n        /* \"#utility.yul\":19208:19574   */\n      swap2\n      swap1\n      pop\n      jump\t// out\n        /* \"#utility.yul\":19580:19999   */\n    tag_165:\n        /* \"#utility.yul\":19746:19750   */\n      0x00\n        /* \"#utility.yul\":19784:19786   */\n      0x20\n        /* \"#utility.yul\":19773:19782   */\n      dup3\n        /* \"#utility.yul\":19769:19787   */\n      add\n        /* \"#utility.yul\":19761:19787   */\n      swap1\n      pop\n        /* \"#utility.yul\":19833:19842   */\n      dup2\n        /* \"#utility.yul\":19827:19831   */\n      dup2\n        /* \"#utility.yul\":19823:19843   */\n      sub\n        /* \"#utility.yul\":19819:19820   */\n      0x00\n        /* \"#utility.yul\":19808:19817   */\n      dup4\n        /* \"#utility.yul\":19804:19821   */\n      add\n        /* \"#utility.yul\":19797:19844   */\n      mstore\n        /* \"#utility.yul\":19861:19992   */\n      tag_396\n        /* \"#utility.yul\":19987:19991   */\n      dup2\n        /* \"#utility.yul\":19861:19992   */\n      tag_222\n      jump\t// in\n    tag_396:\n        /* \"#utility.yul\":19853:19992   */\n      swap1\n      pop\n        /* \"#utility.yul\":19580:19999   */\n      swap2\n      swap1\n      pop\n      jump\t// out\n        /* \"#utility.yul\":20005:20353   */\n    tag_176:\n        /* \"#utility.yul\":20045:20052   */\n      0x00\n        /* \"#utility.yul\":20068:20088   */\n      tag_398\n        /* \"#utility.yul\":20086:20087   */\n      dup3\n        /* \"#utility.yul\":20068:20088   */\n      tag_182\n      jump\t// in\n    tag_398:\n        /* \"#utility.yul\":20063:20088   */\n      swap2\n      pop\n        /* \"#utility.yul\":20102:20122   */\n      tag_399\n        /* \"#utility.yul\":20120:20121   */\n      dup4\n        /* \"#utility.yul\":20102:20122   */\n      tag_182\n      jump\t// in\n    tag_399:\n        /* \"#utility.yul\":20097:20122   */\n      swap3\n      pop\n        /* \"#utility.yul\":20290:20291   */\n      dup2\n        /* \"#utility.yul\":20222:20288   */\n      0xffffffffffffffffffffffffffffffffffffffffffffffffffffffffffffffff\n        /* \"#utility.yul\":20218:20292   */\n      div\n        /* \"#utility.yul\":20215:20216   */\n      dup4\n        /* \"#utility.yul\":20212:20293   */\n      gt\n        /* \"#utility.yul\":20207:20208   */\n      dup3\n        /* \"#utility.yul\":20200:20209   */\n      iszero\n        /* \"#utility.yul\":20193:20210   */\n      iszero\n        /* \"#utility.yul\":20189:20294   */\n      and\n        /* \"#utility.yul\":20186:20317   */\n      iszero\n      tag_400\n      jumpi\n        /* \"#utility.yul\":20297:20315   */\n      tag_401\n      tag_207\n      jump\t// in\n    tag_401:\n        /* \"#utility.yul\":20186:20317   */\n    tag_400:\n        /* \"#utility.yul\":20345:20346   */\n      dup3\n        /* \"#utility.yul\":20342:20343   */\n      dup3\n        /* \"#utility.yul\":20338:20347   */\n      mul\n        /* \"#utility.yul\":20327:20347   */\n      swap1\n      pop\n        /* \"#utility.yul\":20005:20353   */\n      swap3\n      swap2\n      pop\n      pop\n      jump\t// out\n        /* \"#utility.yul\":20359:20539   */\n    tag_223:\n        /* \"#utility.yul\":20407:20484   */\n      0x4e487b7100000000000000000000000000000000000000000000000000000000\n        /* \"#utility.yul\":20404:20405   */\n      0x00\n        /* \"#utility.yul\":20397:20485   */\n      mstore\n        /* \"#utility.yul\":20504:20508   */\n      0x12\n        /* \"#utility.yul\":20501:20502   */\n      0x04\n        /* \"#utility.yul\":20494:20509   */\n      mstore\n        /* \"#utility.yul\":20528:20532   */\n      0x24\n        /* \"#utility.yul\":20525:20526   */\n      0x00\n        /* \"#utility.yul\":20518:20533   */\n      revert\n        /* \"#utility.yul\":20545:20730   */\n    tag_178:\n        /* \"#utility.yul\":20585:20586   */\n      0x00\n        /* \"#utility.yul\":20602:20622   */\n      tag_404\n        /* \"#utility.yul\":20620:20621   */\n      dup3\n        /* \"#utility.yul\":20602:20622   */\n      tag_182\n      jump\t// in\n    tag_404:\n        /* \"#utility.yul\":20597:20622   */\n      swap2\n      pop\n        /* \"#utility.yul\":20636:20656   */\n      tag_405\n        /* \"#utility.yul\":20654:20655   */\n      dup4\n        /* \"#utility.yul\":20636:20656   */\n      tag_182\n      jump\t// in\n    tag_405:\n        /* \"#utility.yul\":20631:20656   */\n      swap3\n      pop\n        /* \"#utility.yul\":20675:20676   */\n      dup3\n        /* \"#utility.yul\":20665:20700   */\n      tag_406\n      jumpi\n        /* \"#utility.yul\":20680:20698   */\n      tag_407\n      tag_223\n      jump\t// in\n    tag_407:\n        /* \"#utility.yul\":20665:20700   */\n    tag_406:\n        /* \"#utility.yul\":20722:20723   */\n      dup3\n        /* \"#utility.yul\":20719:20720   */\n      dup3\n        /* \"#utility.yul\":20715:20724   */\n      div\n        /* \"#utility.yul\":20710:20724   */\n      swap1\n      pop\n        /* \"#utility.yul\":20545:20730   */\n      swap3\n      swap2\n      pop\n      pop\n      jump\t// out\n\n    auxdata: 0xa2646970667358221220bfdabfc798b8ea4ff138507ea267839b4979708fac856a88e75c13eecdffda4764736f6c63430008100033\n}\n",
				"bytecode": {
					"linkReferences": {},
					"object": "608060405234801561001057600080fd5b50612adb806100206000396000f3fe608060405234801561001057600080fd5b50600436106100b45760003560e01c80637870860b116100715780637870860b146101635780637b3c4baa1461017f5780638f769f3a146101b1578063a23b02bd146101cd578063e1ec3c68146101fd578063f724e48e14610235576100b4565b806306661abd146100b957806318de4f9d146100d75780632613c5d6146100f357806340e58ee51461010f578063415f12401461012b578063598647f814610147575b600080fd5b6100c1610251565b6040516100ce9190612034565b60405180910390f35b6100f160048036038101906100ec9190612080565b610257565b005b61010d60048036038101906101089190612143565b610608565b005b61012960048036038101906101249190612080565b6108da565b005b61014560048036038101906101409190612080565b610b7d565b005b610161600480360381019061015c91906121e5565b610ecc565b005b61017d60048036038101906101789190612080565b611416565b005b610199600480360381019061019491906121e5565b6117e2565b6040516101a893929190612234565b60405180910390f35b6101cb60048036038101906101c6919061226b565b611839565b005b6101e760048036038101906101e2919061226b565b611b43565b6040516101f491906122ba565b60405180910390f35b61021760048036038101906102129190612080565b611b72565b60405161022c999897969594939291906122d5565b60405180910390f35b61024f600480360381019061024a9190612362565b611c2d565b005b60005481565b803373ffffffffffffffffffffffffffffffffffffffff166001600083815260200190815260200160002060000160009054906101000a900473ffffffffffffffffffffffffffffffffffffffff1673ffffffffffffffffffffffffffffffffffffffff16146102fc576040517f08c379a00000000000000000000000000000000000000000000000000000000081526004016102f390612412565b60405180910390fd5b600060016000848152602001908152602001600020604051806101200160405290816000820160009054906101000a900473ffffffffffffffffffffffffffffffffffffffff1673ffffffffffffffffffffffffffffffffffffffff1673ffffffffffffffffffffffffffffffffffffffff1681526020016001820160009054906101000a900473ffffffffffffffffffffffffffffffffffffffff1673ffffffffffffffffffffffffffffffffffffffff1673ffffffffffffffffffffffffffffffffffffffff1681526020016002820160009054906101000a900473ffffffffffffffffffffffffffffffffffffffff1673ffffffffffffffffffffffffffffffffffffffff1673ffffffffffffffffffffffffffffffffffffffff16815260200160038201548152602001600482015481526020016005820154815260200160068201548152602001600782015481526020016008820160009054906101000a900460ff161515151581525050905060006002600085815260200190815260200160002060008360e00151815260200190815260200160002060405180606001604052908160008201548152602001600182015481526020016002820160009054906101000a900473ffffffffffffffffffffffffffffffffffffffff1673ffffffffffffffffffffffffffffffffffffffff1673ffffffffffffffffffffffffffffffffffffffff168152505090503373ffffffffffffffffffffffffffffffffffffffff16816040015173ffffffffffffffffffffffffffffffffffffffff1614610581576040517f08c379a00000000000000000000000000000000000000000000000000000000081526004016105789061247e565b60405180910390fd5b6000826040015190508073ffffffffffffffffffffffffffffffffffffffff166342842e0e30846040015186606001516040518463ffffffff1660e01b81526004016105cf9392919061249e565b600060405180830381600087803b1580156105e957600080fd5b505af11580156105fd573d6000803e3d6000fd5b505050505050505050565b4284101561064b576040517f08c379a000000000000000000000000000000000000000000000000000000000815260040161064290612521565b60405180910390fd5b83831161068d576040517f08c379a00000000000000000000000000000000000000000000000000000000081526004016106849061258d565b60405180910390fd5b6040518061012001604052803373ffffffffffffffffffffffffffffffffffffffff1681526020018873ffffffffffffffffffffffffffffffffffffffff1681526020018773ffffffffffffffffffffffffffffffffffffffff16815260200186815260200185815260200184815260200183815260200160008152602001821515815250600160008054815260200190815260200160002060008201518160000160006101000a81548173ffffffffffffffffffffffffffffffffffffffff021916908373ffffffffffffffffffffffffffffffffffffffff16021790555060208201518160010160006101000a81548173ffffffffffffffffffffffffffffffffffffffff021916908373ffffffffffffffffffffffffffffffffffffffff16021790555060408201518160020160006101000a81548173ffffffffffffffffffffffffffffffffffffffff021916908373ffffffffffffffffffffffffffffffffffffffff160217905550606082015181600301556080820151816004015560a0820151816005015560c0820151816006015560e082015181600701556101008201518160080160006101000a81548160ff0219169083151502179055509050504260026000805481526020019081526020016000206000808152602001908152602001600020600001819055506000547fef8b2952c43462575e82711d0cc91169720a4589a9fa533d173e022437f5405e87876040516108b29291906125ad565b60405180910390a26000808154809291906108cc90612605565b919050555050505050505050565b803373ffffffffffffffffffffffffffffffffffffffff166001600083815260200190815260200160002060000160009054906101000a900473ffffffffffffffffffffffffffffffffffffffff1673ffffffffffffffffffffffffffffffffffffffff161461097f576040517f08c379a000000000000000000000000000000000000000000000000000000000815260040161097690612412565b60405180910390fd5b600060016000848152602001908152602001600020604051806101200160405290816000820160009054906101000a900473ffffffffffffffffffffffffffffffffffffffff1673ffffffffffffffffffffffffffffffffffffffff1673ffffffffffffffffffffffffffffffffffffffff1681526020016001820160009054906101000a900473ffffffffffffffffffffffffffffffffffffffff1673ffffffffffffffffffffffffffffffffffffffff1673ffffffffffffffffffffffffffffffffffffffff1681526020016002820160009054906101000a900473ffffffffffffffffffffffffffffffffffffffff1673ffffffffffffffffffffffffffffffffffffffff1673ffffffffffffffffffffffffffffffffffffffff16815260200160038201548152602001600482015481526020016005820154815260200160068201548152602001600782015481526020016008820160009054906101000a900460ff161515151581525050905042816080015111610b37576040517f08c379a0000000000000000000000000000000000000000000000000000000008152600401610b2e90612699565b60405180910390fd5b610b3f611f8b565b90507ffe785ef891129b084b1c5a30e4d88eb97c97822c024cc25d5f9d806b897512e083604051610b709190612034565b60405180910390a1505050565b600060016000838152602001908152602001600020604051806101200160405290816000820160009054906101000a900473ffffffffffffffffffffffffffffffffffffffff1673ffffffffffffffffffffffffffffffffffffffff1673ffffffffffffffffffffffffffffffffffffffff1681526020016001820160009054906101000a900473ffffffffffffffffffffffffffffffffffffffff1673ffffffffffffffffffffffffffffffffffffffff1673ffffffffffffffffffffffffffffffffffffffff1681526020016002820160009054906101000a900473ffffffffffffffffffffffffffffffffffffffff1673ffffffffffffffffffffffffffffffffffffffff1673ffffffffffffffffffffffffffffffffffffffff16815260200160038201548152602001600482015481526020016005820154815260200160068201548152602001600782015481526020016008820160009054906101000a900460ff1615151515815250509050610cf882611c9a565b610d37576040517f08c379a0000000000000000000000000000000000000000000000000000000008152600401610d2e90612705565b60405180910390fd5b60006002600084815260200190815260200160002060008360e00151815260200190815260200160002060405180606001604052908160008201548152602001600182015481526020016002820160009054906101000a900473ffffffffffffffffffffffffffffffffffffffff1673ffffffffffffffffffffffffffffffffffffffff1673ffffffffffffffffffffffffffffffffffffffff168152505090503373ffffffffffffffffffffffffffffffffffffffff16816040015173ffffffffffffffffffffffffffffffffffffffff1614610e4a576040517f08c379a0000000000000000000000000000000000000000000000000000000008152600401610e419061247e565b60405180910390fd5b6000826040015190508073ffffffffffffffffffffffffffffffffffffffff166342842e0e303386606001516040518463ffffffff1660e01b8152600401610e949392919061249e565b600060405180830381600087803b158015610eae57600080fd5b505af1158015610ec2573d6000803e3d6000fd5b5050505050505050565b610ed582611cbd565b610f14576040517f08c379a0000000000000000000000000000000000000000000000000000000008152600401610f0b90612771565b60405180910390fd5b610f1d82611c9a565b15610f5d576040517f08c379a0000000000000000000000000000000000000000000000000000000008152600401610f54906127dd565b60405180910390fd5b600060016000848152602001908152602001600020604051806101200160405290816000820160009054906101000a900473ffffffffffffffffffffffffffffffffffffffff1673ffffffffffffffffffffffffffffffffffffffff1673ffffffffffffffffffffffffffffffffffffffff1681526020016001820160009054906101000a900473ffffffffffffffffffffffffffffffffffffffff1673ffffffffffffffffffffffffffffffffffffffff1673ffffffffffffffffffffffffffffffffffffffff1681526020016002820160009054906101000a900473ffffffffffffffffffffffffffffffffffffffff1673ffffffffffffffffffffffffffffffffffffffff1673ffffffffffffffffffffffffffffffffffffffff16815260200160038201548152602001600482015481526020016005820154815260200160068201548152602001600782015481526020016008820160009054906101000a900460ff1615151515815250509050806101000151801561113b57506003600084815260200190815260200160002060003373ffffffffffffffffffffffffffffffffffffffff1673ffffffffffffffffffffffffffffffffffffffff16815260200190815260200160002060009054906101000a900460ff165b8061114f5750600015158161010001511515145b61118e576040517f08c379a000000000000000000000000000000000000000000000000000000000815260040161118590612849565b60405180910390fd5b600060018260e001516111a19190612869565b9050808260e001818152505060006111b885611cdf565b90508084116111fc576040517f08c379a00000000000000000000000000000000000000000000000000000000081526004016111f3906128e9565b60405180910390fd5b826020015173ffffffffffffffffffffffffffffffffffffffff166323b872dd3360026000898152602001908152602001600020600086815260200190815260200160002060020160009054906101000a900473ffffffffffffffffffffffffffffffffffffffff16846040518463ffffffff1660e01b81526004016112849392919061249e565b6020604051808303816000875af11580156112a3573d6000803e3d6000fd5b505050506040513d601f19601f820116820180604052508101906112c7919061291e565b50826020015173ffffffffffffffffffffffffffffffffffffffff166323b872dd33856000015184886112fa919061294b565b6040518463ffffffff1660e01b81526004016113189392919061249e565b6020604051808303816000875af1158015611337573d6000803e3d6000fd5b505050506040513d601f19601f8201168201806040525081019061135b919061291e565b5060405180606001604052804281526020018581526020013373ffffffffffffffffffffffffffffffffffffffff16815250600260008781526020019081526020016000206000848152602001908152602001600020600082015181600001556020820151816001015560408201518160020160006101000a81548173ffffffffffffffffffffffffffffffffffffffff021916908373ffffffffffffffffffffffffffffffffffffffff1602179055509050505050505050565b803373ffffffffffffffffffffffffffffffffffffffff166001600083815260200190815260200160002060000160009054906101000a900473ffffffffffffffffffffffffffffffffffffffff1673ffffffffffffffffffffffffffffffffffffffff16146114bb576040517f08c379a00000000000000000000000000000000000000000000000000000000081526004016114b290612412565b60405180910390fd5b600060016000848152602001908152602001600020604051806101200160405290816000820160009054906101000a900473ffffffffffffffffffffffffffffffffffffffff1673ffffffffffffffffffffffffffffffffffffffff1673ffffffffffffffffffffffffffffffffffffffff1681526020016001820160009054906101000a900473ffffffffffffffffffffffffffffffffffffffff1673ffffffffffffffffffffffffffffffffffffffff1673ffffffffffffffffffffffffffffffffffffffff1681526020016002820160009054906101000a900473ffffffffffffffffffffffffffffffffffffffff1673ffffffffffffffffffffffffffffffffffffffff1673ffffffffffffffffffffffffffffffffffffffff16815260200160038201548152602001600482015481526020016005820154815260200160068201548152602001600782015481526020016008820160009054906101000a900460ff161515151581525050905060006002600085815260200190815260200160002060008360e00151815260200190815260200160002060405180606001604052908160008201548152602001600182015481526020016002820160009054906101000a900473ffffffffffffffffffffffffffffffffffffffff1673ffffffffffffffffffffffffffffffffffffffff1673ffffffffffffffffffffffffffffffffffffffff16815250509050816020015173ffffffffffffffffffffffffffffffffffffffff166323b872dd3383604001516116fd88611cdf565b6040518463ffffffff1660e01b815260040161171b9392919061249e565b6020604051808303816000875af115801561173a573d6000803e3d6000fd5b505050506040513d601f19601f8201168201806040525081019061175e919061291e565b506000826040015190508073ffffffffffffffffffffffffffffffffffffffff166342842e0e303386606001516040518463ffffffff1660e01b81526004016117a99392919061249e565b600060405180830381600087803b1580156117c357600080fd5b505af11580156117d7573d6000803e3d6000fd5b505050505050505050565b6002602052816000526040600020602052806000526040600020600091509150508060000154908060010154908060020160009054906101000a900473ffffffffffffffffffffffffffffffffffffffff16905083565b61184282611cbd565b611881576040517f08c379a000000000000000000000000000000000000000000000000000000000815260040161187890612771565b60405180910390fd5b61188a82611c9a565b156118ca576040517f08c379a00000000000000000000000000000000000000000000000000000000081526004016118c1906127dd565b60405180910390fd5b600060016000848152602001908152602001600020604051806101200160405290816000820160009054906101000a900473ffffffffffffffffffffffffffffffffffffffff1673ffffffffffffffffffffffffffffffffffffffff1673ffffffffffffffffffffffffffffffffffffffff1681526020016001820160009054906101000a900473ffffffffffffffffffffffffffffffffffffffff1673ffffffffffffffffffffffffffffffffffffffff1673ffffffffffffffffffffffffffffffffffffffff1681526020016002820160009054906101000a900473ffffffffffffffffffffffffffffffffffffffff1673ffffffffffffffffffffffffffffffffffffffff1673ffffffffffffffffffffffffffffffffffffffff16815260200160038201548152602001600482015481526020016005820154815260200160068201548152602001600782015481526020016008820160009054906101000a900460ff161515151581525050905060006002600085815260200190815260200160002060008360e00151815260200190815260200160002090503373ffffffffffffffffffffffffffffffffffffffff168160020160009054906101000a900473ffffffffffffffffffffffffffffffffffffffff1673ffffffffffffffffffffffffffffffffffffffff1614611afa576040517f08c379a0000000000000000000000000000000000000000000000000000000008152600401611af1906129cb565b60405180910390fd5b828160020160006101000a81548173ffffffffffffffffffffffffffffffffffffffff021916908373ffffffffffffffffffffffffffffffffffffffff16021790555050505050565b60036020528160005260406000206020528060005260406000206000915091509054906101000a900460ff1681565b60016020528060005260406000206000915090508060000160009054906101000a900473ffffffffffffffffffffffffffffffffffffffff16908060010160009054906101000a900473ffffffffffffffffffffffffffffffffffffffff16908060020160009054906101000a900473ffffffffffffffffffffffffffffffffffffffff16908060030154908060040154908060050154908060060154908060070154908060080160009054906101000a900460ff16905089565b806003600085815260200190815260200160002060008473ffffffffffffffffffffffffffffffffffffffff1673ffffffffffffffffffffffffffffffffffffffff16815260200190815260200160002060006101000a81548160ff021916908315150217905550505050565b600042600160008481526020019081526020016000206005015411159050919050565b6000426001600084815260200190815260200160002060040154109050919050565b60008060016000848152602001908152602001600020604051806101200160405290816000820160009054906101000a900473ffffffffffffffffffffffffffffffffffffffff1673ffffffffffffffffffffffffffffffffffffffff1673ffffffffffffffffffffffffffffffffffffffff1681526020016001820160009054906101000a900473ffffffffffffffffffffffffffffffffffffffff1673ffffffffffffffffffffffffffffffffffffffff1673ffffffffffffffffffffffffffffffffffffffff1681526020016002820160009054906101000a900473ffffffffffffffffffffffffffffffffffffffff1673ffffffffffffffffffffffffffffffffffffffff1673ffffffffffffffffffffffffffffffffffffffff16815260200160038201548152602001600482015481526020016005820154815260200160068201548152602001600782015481526020016008820160009054906101000a900460ff161515151581525050905060006002600085815260200190815260200160002060008360e00151815260200190815260200160002060405180606001604052908160008201548152602001600182015481526020016002820160009054906101000a900473ffffffffffffffffffffffffffffffffffffffff1673ffffffffffffffffffffffffffffffffffffffff1673ffffffffffffffffffffffffffffffffffffffff168152505090506000611efe85611c9a565b15611f1e578260a001518260000151611f17919061294b565b9050611f31565b428260000151611f2e919061294b565b90505b6301e1338081670de0b6b3a76400008560c001518560200151611f5491906129eb565b611f5e9190612a74565b611f6891906129eb565b611f729190612a74565b8260200151611f819190612869565b9350505050919050565b604051806101200160405280600073ffffffffffffffffffffffffffffffffffffffff168152602001600073ffffffffffffffffffffffffffffffffffffffff168152602001600073ffffffffffffffffffffffffffffffffffffffff16815260200160008152602001600081526020016000815260200160008152602001600081526020016000151581525090565b6000819050919050565b61202e8161201b565b82525050565b60006020820190506120496000830184612025565b92915050565b600080fd5b61205d8161201b565b811461206857600080fd5b50565b60008135905061207a81612054565b92915050565b6000602082840312156120965761209561204f565b5b60006120a48482850161206b565b91505092915050565b600073ffffffffffffffffffffffffffffffffffffffff82169050919050565b60006120d8826120ad565b9050919050565b6120e8816120cd565b81146120f357600080fd5b50565b600081359050612105816120df565b92915050565b60008115159050919050565b6121208161210b565b811461212b57600080fd5b50565b60008135905061213d81612117565b92915050565b600080600080600080600060e0888a0312156121625761216161204f565b5b60006121708a828b016120f6565b97505060206121818a828b016120f6565b96505060406121928a828b0161206b565b95505060606121a38a828b0161206b565b94505060806121b48a828b0161206b565b93505060a06121c58a828b0161206b565b92505060c06121d68a828b0161212e565b91505092959891949750929550565b600080604083850312156121fc576121fb61204f565b5b600061220a8582860161206b565b925050602061221b8582860161206b565b9150509250929050565b61222e816120cd565b82525050565b60006060820190506122496000830186612025565b6122566020830185612025565b6122636040830184612225565b949350505050565b600080604083850312156122825761228161204f565b5b60006122908582860161206b565b92505060206122a1858286016120f6565b9150509250929050565b6122b48161210b565b82525050565b60006020820190506122cf60008301846122ab565b92915050565b6000610120820190506122eb600083018c612225565b6122f8602083018b612225565b612305604083018a612225565b6123126060830189612025565b61231f6080830188612025565b61232c60a0830187612025565b61233960c0830186612025565b61234660e0830185612025565b6123546101008301846122ab565b9a9950505050505050505050565b60008060006060848603121561237b5761237a61204f565b5b60006123898682870161206b565b935050602061239a868287016120f6565b92505060406123ab8682870161212e565b9150509250925092565b600082825260208201905092915050565b7f4c414e3a206e6f74206f776e6572000000000000000000000000000000000000600082015250565b60006123fc600e836123b5565b9150612407826123c6565b602082019050919050565b6000602082019050818103600083015261242b816123ef565b9050919050565b7f4c414e3a206e6f74206c61746573742062696464657200000000000000000000600082015250565b60006124686016836123b5565b915061247382612432565b602082019050919050565b600060208201905081810360008301526124978161245b565b9050919050565b60006060820190506124b36000830186612225565b6124c06020830185612225565b6124cd6040830184612025565b949350505050565b7f4c414e3a2073746172742074696d6520696e2070617374000000000000000000600082015250565b600061250b6017836123b5565b9150612516826124d5565b602082019050919050565b6000602082019050818103600083015261253a816124fe565b9050919050565b7f4c414e3a20737461727420616674657220656e64000000000000000000000000600082015250565b60006125776014836123b5565b915061258282612541565b602082019050919050565b600060208201905081810360008301526125a68161256a565b9050919050565b60006040820190506125c26000830185612225565b6125cf6020830184612025565b9392505050565b7f4e487b7100000000000000000000000000000000000000000000000000000000600052601160045260246000fd5b60006126108261201b565b91507fffffffffffffffffffffffffffffffffffffffffffffffffffffffffffffffff8203612642576126416125d6565b5b600182019050919050565b7f4c414e3a20616c72656164792073746172746564000000000000000000000000600082015250565b60006126836014836123b5565b915061268e8261264d565b602082019050919050565b600060208201905081810360008301526126b281612676565b9050919050565b7f4c414e3a206c6f616e206e6f7420656e64656400000000000000000000000000600082015250565b60006126ef6013836123b5565b91506126fa826126b9565b602082019050919050565b6000602082019050818103600083015261271e816126e2565b9050919050565b7f4c414e3a206e6f74207374617274656400000000000000000000000000000000600082015250565b600061275b6010836123b5565b915061276682612725565b602082019050919050565b6000602082019050818103600083015261278a8161274e565b9050919050565b7f4c414e3a20616c726561647920656e6465640000000000000000000000000000600082015250565b60006127c76012836123b5565b91506127d282612791565b602082019050919050565b600060208201905081810360008301526127f6816127ba565b9050919050565b7f4c414e3a204e6f742057686974656c6973746564000000000000000000000000600082015250565b60006128336014836123b5565b915061283e826127fd565b602082019050919050565b6000602082019050818103600083015261286281612826565b9050919050565b60006128748261201b565b915061287f8361201b565b9250828201905080821115612897576128966125d6565b5b92915050565b7f4c414e3a20626964206e6f742068696768657200000000000000000000000000600082015250565b60006128d36013836123b5565b91506128de8261289d565b602082019050919050565b60006020820190508181036000830152612902816128c6565b9050919050565b60008151905061291881612117565b92915050565b6000602082840312156129345761293361204f565b5b600061294284828501612909565b91505092915050565b60006129568261201b565b91506129618361201b565b9250828203905081811115612979576129786125d6565b5b92915050565b7f4c414e3a204e6f7420746865206c617465737420626964646572000000000000600082015250565b60006129b5601a836123b5565b91506129c08261297f565b602082019050919050565b600060208201905081810360008301526129e4816129a8565b9050919050565b60006129f68261201b565b9150612a018361201b565b9250817fffffffffffffffffffffffffffffffffffffffffffffffffffffffffffffffff0483118215151615612a3a57612a396125d6565b5b828202905092915050565b7f4e487b7100000000000000000000000000000000000000000000000000000000600052601260045260246000fd5b6000612a7f8261201b565b9150612a8a8361201b565b925082612a9a57612a99612a45565b5b82820490509291505056fea2646970667358221220bfdabfc798b8ea4ff138507ea267839b4979708fac856a88e75c13eecdffda4764736f6c63430008100033",
					"opcodes": "PUSH1 0x80 PUSH1 0x40 MSTORE CALLVALUE DUP1 ISZERO PUSH2 0x10 JUMPI PUSH1 0x0 DUP1 REVERT JUMPDEST POP PUSH2 0x2ADB DUP1 PUSH2 0x20 PUSH1 0x0 CODECOPY PUSH1 0x0 RETURN INVALID PUSH1 0x80 PUSH1 0x40 MSTORE CALLVALUE DUP1 ISZERO PUSH2 0x10 JUMPI PUSH1 0x0 DUP1 REVERT JUMPDEST POP PUSH1 0x4 CALLDATASIZE LT PUSH2 0xB4 JUMPI PUSH1 0x0 CALLDATALOAD PUSH1 0xE0 SHR DUP1 PUSH4 0x7870860B GT PUSH2 0x71 JUMPI DUP1 PUSH4 0x7870860B EQ PUSH2 0x163 JUMPI DUP1 PUSH4 0x7B3C4BAA EQ PUSH2 0x17F JUMPI DUP1 PUSH4 0x8F769F3A EQ PUSH2 0x1B1 JUMPI DUP1 PUSH4 0xA23B02BD EQ PUSH2 0x1CD JUMPI DUP1 PUSH4 0xE1EC3C68 EQ PUSH2 0x1FD JUMPI DUP1 PUSH4 0xF724E48E EQ PUSH2 0x235 JUMPI PUSH2 0xB4 JUMP JUMPDEST DUP1 PUSH4 0x6661ABD EQ PUSH2 0xB9 JUMPI DUP1 PUSH4 0x18DE4F9D EQ PUSH2 0xD7 JUMPI DUP1 PUSH4 0x2613C5D6 EQ PUSH2 0xF3 JUMPI DUP1 PUSH4 0x40E58EE5 EQ PUSH2 0x10F JUMPI DUP1 PUSH4 0x415F1240 EQ PUSH2 0x12B JUMPI DUP1 PUSH4 0x598647F8 EQ PUSH2 0x147 JUMPI JUMPDEST PUSH1 0x0 DUP1 REVERT JUMPDEST PUSH2 0xC1 PUSH2 0x251 JUMP JUMPDEST PUSH1 0x40 MLOAD PUSH2 0xCE SWAP2 SWAP1 PUSH2 0x2034 JUMP JUMPDEST PUSH1 0x40 MLOAD DUP1 SWAP2 SUB SWAP1 RETURN JUMPDEST PUSH2 0xF1 PUSH1 0x4 DUP1 CALLDATASIZE SUB DUP2 ADD SWAP1 PUSH2 0xEC SWAP2 SWAP1 PUSH2 0x2080 JUMP JUMPDEST PUSH2 0x257 JUMP JUMPDEST STOP JUMPDEST PUSH2 0x10D PUSH1 0x4 DUP1 CALLDATASIZE SUB DUP2 ADD SWAP1 PUSH2 0x108 SWAP2 SWAP1 PUSH2 0x2143 JUMP JUMPDEST PUSH2 0x608 JUMP JUMPDEST STOP JUMPDEST PUSH2 0x129 PUSH1 0x4 DUP1 CALLDATASIZE SUB DUP2 ADD SWAP1 PUSH2 0x124 SWAP2 SWAP1 PUSH2 0x2080 JUMP JUMPDEST PUSH2 0x8DA JUMP JUMPDEST STOP JUMPDEST PUSH2 0x145 PUSH1 0x4 DUP1 CALLDATASIZE SUB DUP2 ADD SWAP1 PUSH2 0x140 SWAP2 SWAP1 PUSH2 0x2080 JUMP JUMPDEST PUSH2 0xB7D JUMP JUMPDEST STOP JUMPDEST PUSH2 0x161 PUSH1 0x4 DUP1 CALLDATASIZE SUB DUP2 ADD SWAP1 PUSH2 0x15C SWAP2 SWAP1 PUSH2 0x21E5 JUMP JUMPDEST PUSH2 0xECC JUMP JUMPDEST STOP JUMPDEST PUSH2 0x17D PUSH1 0x4 DUP1 CALLDATASIZE SUB DUP2 ADD SWAP1 PUSH2 0x178 SWAP2 SWAP1 PUSH2 0x2080 JUMP JUMPDEST PUSH2 0x1416 JUMP JUMPDEST STOP JUMPDEST PUSH2 0x199 PUSH1 0x4 DUP1 CALLDATASIZE SUB DUP2 ADD SWAP1 PUSH2 0x194 SWAP2 SWAP1 PUSH2 0x21E5 JUMP JUMPDEST PUSH2 0x17E2 JUMP JUMPDEST PUSH1 0x40 MLOAD PUSH2 0x1A8 SWAP4 SWAP3 SWAP2 SWAP1 PUSH2 0x2234 JUMP JUMPDEST PUSH1 0x40 MLOAD DUP1 SWAP2 SUB SWAP1 RETURN JUMPDEST PUSH2 0x1CB PUSH1 0x4 DUP1 CALLDATASIZE SUB DUP2 ADD SWAP1 PUSH2 0x1C6 SWAP2 SWAP1 PUSH2 0x226B JUMP JUMPDEST PUSH2 0x1839 JUMP JUMPDEST STOP JUMPDEST PUSH2 0x1E7 PUSH1 0x4 DUP1 CALLDATASIZE SUB DUP2 ADD SWAP1 PUSH2 0x1E2 SWAP2 SWAP1 PUSH2 0x226B JUMP JUMPDEST PUSH2 0x1B43 JUMP JUMPDEST PUSH1 0x40 MLOAD PUSH2 0x1F4 SWAP2 SWAP1 PUSH2 0x22BA JUMP JUMPDEST PUSH1 0x40 MLOAD DUP1 SWAP2 SUB SWAP1 RETURN JUMPDEST PUSH2 0x217 PUSH1 0x4 DUP1 CALLDATASIZE SUB DUP2 ADD SWAP1 PUSH2 0x212 SWAP2 SWAP1 PUSH2 0x2080 JUMP JUMPDEST PUSH2 0x1B72 JUMP JUMPDEST PUSH1 0x40 MLOAD PUSH2 0x22C SWAP10 SWAP9 SWAP8 SWAP7 SWAP6 SWAP5 SWAP4 SWAP3 SWAP2 SWAP1 PUSH2 0x22D5 JUMP JUMPDEST PUSH1 0x40 MLOAD DUP1 SWAP2 SUB SWAP1 RETURN JUMPDEST PUSH2 0x24F PUSH1 0x4 DUP1 CALLDATASIZE SUB DUP2 ADD SWAP1 PUSH2 0x24A SWAP2 SWAP1 PUSH2 0x2362 JUMP JUMPDEST PUSH2 0x1C2D JUMP JUMPDEST STOP JUMPDEST PUSH1 0x0 SLOAD DUP2 JUMP JUMPDEST DUP1 CALLER PUSH20 0xFFFFFFFFFFFFFFFFFFFFFFFFFFFFFFFFFFFFFFFF AND PUSH1 0x1 PUSH1 0x0 DUP4 DUP2 MSTORE PUSH1 0x20 ADD SWAP1 DUP2 MSTORE PUSH1 0x20 ADD PUSH1 0x0 KECCAK256 PUSH1 0x0 ADD PUSH1 0x0 SWAP1 SLOAD SWAP1 PUSH2 0x100 EXP SWAP1 DIV PUSH20 0xFFFFFFFFFFFFFFFFFFFFFFFFFFFFFFFFFFFFFFFF AND PUSH20 0xFFFFFFFFFFFFFFFFFFFFFFFFFFFFFFFFFFFFFFFF AND EQ PUSH2 0x2FC JUMPI PUSH1 0x40 MLOAD PUSH32 0x8C379A000000000000000000000000000000000000000000000000000000000 DUP2 MSTORE PUSH1 0x4 ADD PUSH2 0x2F3 SWAP1 PUSH2 0x2412 JUMP JUMPDEST PUSH1 0x40 MLOAD DUP1 SWAP2 SUB SWAP1 REVERT JUMPDEST PUSH1 0x0 PUSH1 0x1 PUSH1 0x0 DUP5 DUP2 MSTORE PUSH1 0x20 ADD SWAP1 DUP2 MSTORE PUSH1 0x20 ADD PUSH1 0x0 KECCAK256 PUSH1 0x40 MLOAD DUP1 PUSH2 0x120 ADD PUSH1 0x40 MSTORE SWAP1 DUP2 PUSH1 0x0 DUP3 ADD PUSH1 0x0 SWAP1 SLOAD SWAP1 PUSH2 0x100 EXP SWAP1 DIV PUSH20 0xFFFFFFFFFFFFFFFFFFFFFFFFFFFFFFFFFFFFFFFF AND PUSH20 0xFFFFFFFFFFFFFFFFFFFFFFFFFFFFFFFFFFFFFFFF AND PUSH20 0xFFFFFFFFFFFFFFFFFFFFFFFFFFFFFFFFFFFFFFFF AND DUP2 MSTORE PUSH1 0x20 ADD PUSH1 0x1 DUP3 ADD PUSH1 0x0 SWAP1 SLOAD SWAP1 PUSH2 0x100 EXP SWAP1 DIV PUSH20 0xFFFFFFFFFFFFFFFFFFFFFFFFFFFFFFFFFFFFFFFF AND PUSH20 0xFFFFFFFFFFFFFFFFFFFFFFFFFFFFFFFFFFFFFFFF AND PUSH20 0xFFFFFFFFFFFFFFFFFFFFFFFFFFFFFFFFFFFFFFFF AND DUP2 MSTORE PUSH1 0x20 ADD PUSH1 0x2 DUP3 ADD PUSH1 0x0 SWAP1 SLOAD SWAP1 PUSH2 0x100 EXP SWAP1 DIV PUSH20 0xFFFFFFFFFFFFFFFFFFFFFFFFFFFFFFFFFFFFFFFF AND PUSH20 0xFFFFFFFFFFFFFFFFFFFFFFFFFFFFFFFFFFFFFFFF AND PUSH20 0xFFFFFFFFFFFFFFFFFFFFFFFFFFFFFFFFFFFFFFFF AND DUP2 MSTORE PUSH1 0x20 ADD PUSH1 0x3 DUP3 ADD SLOAD DUP2 MSTORE PUSH1 0x20 ADD PUSH1 0x4 DUP3 ADD SLOAD DUP2 MSTORE PUSH1 0x20 ADD PUSH1 0x5 DUP3 ADD SLOAD DUP2 MSTORE PUSH1 0x20 ADD PUSH1 0x6 DUP3 ADD SLOAD DUP2 MSTORE PUSH1 0x20 ADD PUSH1 0x7 DUP3 ADD SLOAD DUP2 MSTORE PUSH1 0x20 ADD PUSH1 0x8 DUP3 ADD PUSH1 0x0 SWAP1 SLOAD SWAP1 PUSH2 0x100 EXP SWAP1 DIV PUSH1 0xFF AND ISZERO ISZERO ISZERO ISZERO DUP2 MSTORE POP POP SWAP1 POP PUSH1 0x0 PUSH1 0x2 PUSH1 0x0 DUP6 DUP2 MSTORE PUSH1 0x20 ADD SWAP1 DUP2 MSTORE PUSH1 0x20 ADD PUSH1 0x0 KECCAK256 PUSH1 0x0 DUP4 PUSH1 0xE0 ADD MLOAD DUP2 MSTORE PUSH1 0x20 ADD SWAP1 DUP2 MSTORE PUSH1 0x20 ADD PUSH1 0x0 KECCAK256 PUSH1 0x40 MLOAD DUP1 PUSH1 0x60 ADD PUSH1 0x40 MSTORE SWAP1 DUP2 PUSH1 0x0 DUP3 ADD SLOAD DUP2 MSTORE PUSH1 0x20 ADD PUSH1 0x1 DUP3 ADD SLOAD DUP2 MSTORE PUSH1 0x20 ADD PUSH1 0x2 DUP3 ADD PUSH1 0x0 SWAP1 SLOAD SWAP1 PUSH2 0x100 EXP SWAP1 DIV PUSH20 0xFFFFFFFFFFFFFFFFFFFFFFFFFFFFFFFFFFFFFFFF AND PUSH20 0xFFFFFFFFFFFFFFFFFFFFFFFFFFFFFFFFFFFFFFFF AND PUSH20 0xFFFFFFFFFFFFFFFFFFFFFFFFFFFFFFFFFFFFFFFF AND DUP2 MSTORE POP POP SWAP1 POP CALLER PUSH20 0xFFFFFFFFFFFFFFFFFFFFFFFFFFFFFFFFFFFFFFFF AND DUP2 PUSH1 0x40 ADD MLOAD PUSH20 0xFFFFFFFFFFFFFFFFFFFFFFFFFFFFFFFFFFFFFFFF AND EQ PUSH2 0x581 JUMPI PUSH1 0x40 MLOAD PUSH32 0x8C379A000000000000000000000000000000000000000000000000000000000 DUP2 MSTORE PUSH1 0x4 ADD PUSH2 0x578 SWAP1 PUSH2 0x247E JUMP JUMPDEST PUSH1 0x40 MLOAD DUP1 SWAP2 SUB SWAP1 REVERT JUMPDEST PUSH1 0x0 DUP3 PUSH1 0x40 ADD MLOAD SWAP1 POP DUP1 PUSH20 0xFFFFFFFFFFFFFFFFFFFFFFFFFFFFFFFFFFFFFFFF AND PUSH4 0x42842E0E ADDRESS DUP5 PUSH1 0x40 ADD MLOAD DUP7 PUSH1 0x60 ADD MLOAD PUSH1 0x40 MLOAD DUP5 PUSH4 0xFFFFFFFF AND PUSH1 0xE0 SHL DUP2 MSTORE PUSH1 0x4 ADD PUSH2 0x5CF SWAP4 SWAP3 SWAP2 SWAP1 PUSH2 0x249E JUMP JUMPDEST PUSH1 0x0 PUSH1 0x40 MLOAD DUP1 DUP4 SUB DUP2 PUSH1 0x0 DUP8 DUP1 EXTCODESIZE ISZERO DUP1 ISZERO PUSH2 0x5E9 JUMPI PUSH1 0x0 DUP1 REVERT JUMPDEST POP GAS CALL ISZERO DUP1 ISZERO PUSH2 0x5FD JUMPI RETURNDATASIZE PUSH1 0x0 DUP1 RETURNDATACOPY RETURNDATASIZE PUSH1 0x0 REVERT JUMPDEST POP POP POP POP POP POP POP POP POP JUMP JUMPDEST TIMESTAMP DUP5 LT ISZERO PUSH2 0x64B JUMPI PUSH1 0x40 MLOAD PUSH32 0x8C379A000000000000000000000000000000000000000000000000000000000 DUP2 MSTORE PUSH1 0x4 ADD PUSH2 0x642 SWAP1 PUSH2 0x2521 JUMP JUMPDEST PUSH1 0x40 MLOAD DUP1 SWAP2 SUB SWAP1 REVERT JUMPDEST DUP4 DUP4 GT PUSH2 0x68D JUMPI PUSH1 0x40 MLOAD PUSH32 0x8C379A000000000000000000000000000000000000000000000000000000000 DUP2 MSTORE PUSH1 0x4 ADD PUSH2 0x684 SWAP1 PUSH2 0x258D JUMP JUMPDEST PUSH1 0x40 MLOAD DUP1 SWAP2 SUB SWAP1 REVERT JUMPDEST PUSH1 0x40 MLOAD DUP1 PUSH2 0x120 ADD PUSH1 0x40 MSTORE DUP1 CALLER PUSH20 0xFFFFFFFFFFFFFFFFFFFFFFFFFFFFFFFFFFFFFFFF AND DUP2 MSTORE PUSH1 0x20 ADD DUP9 PUSH20 0xFFFFFFFFFFFFFFFFFFFFFFFFFFFFFFFFFFFFFFFF AND DUP2 MSTORE PUSH1 0x20 ADD DUP8 PUSH20 0xFFFFFFFFFFFFFFFFFFFFFFFFFFFFFFFFFFFFFFFF AND DUP2 MSTORE PUSH1 0x20 ADD DUP7 DUP2 MSTORE PUSH1 0x20 ADD DUP6 DUP2 MSTORE PUSH1 0x20 ADD DUP5 DUP2 MSTORE PUSH1 0x20 ADD DUP4 DUP2 MSTORE PUSH1 0x20 ADD PUSH1 0x0 DUP2 MSTORE PUSH1 0x20 ADD DUP3 ISZERO ISZERO DUP2 MSTORE POP PUSH1 0x1 PUSH1 0x0 DUP1 SLOAD DUP2 MSTORE PUSH1 0x20 ADD SWAP1 DUP2 MSTORE PUSH1 0x20 ADD PUSH1 0x0 KECCAK256 PUSH1 0x0 DUP3 ADD MLOAD DUP2 PUSH1 0x0 ADD PUSH1 0x0 PUSH2 0x100 EXP DUP2 SLOAD DUP2 PUSH20 0xFFFFFFFFFFFFFFFFFFFFFFFFFFFFFFFFFFFFFFFF MUL NOT AND SWAP1 DUP4 PUSH20 0xFFFFFFFFFFFFFFFFFFFFFFFFFFFFFFFFFFFFFFFF AND MUL OR SWAP1 SSTORE POP PUSH1 0x20 DUP3 ADD MLOAD DUP2 PUSH1 0x1 ADD PUSH1 0x0 PUSH2 0x100 EXP DUP2 SLOAD DUP2 PUSH20 0xFFFFFFFFFFFFFFFFFFFFFFFFFFFFFFFFFFFFFFFF MUL NOT AND SWAP1 DUP4 PUSH20 0xFFFFFFFFFFFFFFFFFFFFFFFFFFFFFFFFFFFFFFFF AND MUL OR SWAP1 SSTORE POP PUSH1 0x40 DUP3 ADD MLOAD DUP2 PUSH1 0x2 ADD PUSH1 0x0 PUSH2 0x100 EXP DUP2 SLOAD DUP2 PUSH20 0xFFFFFFFFFFFFFFFFFFFFFFFFFFFFFFFFFFFFFFFF MUL NOT AND SWAP1 DUP4 PUSH20 0xFFFFFFFFFFFFFFFFFFFFFFFFFFFFFFFFFFFFFFFF AND MUL OR SWAP1 SSTORE POP PUSH1 0x60 DUP3 ADD MLOAD DUP2 PUSH1 0x3 ADD SSTORE PUSH1 0x80 DUP3 ADD MLOAD DUP2 PUSH1 0x4 ADD SSTORE PUSH1 0xA0 DUP3 ADD MLOAD DUP2 PUSH1 0x5 ADD SSTORE PUSH1 0xC0 DUP3 ADD MLOAD DUP2 PUSH1 0x6 ADD SSTORE PUSH1 0xE0 DUP3 ADD MLOAD DUP2 PUSH1 0x7 ADD SSTORE PUSH2 0x100 DUP3 ADD MLOAD DUP2 PUSH1 0x8 ADD PUSH1 0x0 PUSH2 0x100 EXP DUP2 SLOAD DUP2 PUSH1 0xFF MUL NOT AND SWAP1 DUP4 ISZERO ISZERO MUL OR SWAP1 SSTORE POP SWAP1 POP POP TIMESTAMP PUSH1 0x2 PUSH1 0x0 DUP1 SLOAD DUP2 MSTORE PUSH1 0x20 ADD SWAP1 DUP2 MSTORE PUSH1 0x20 ADD PUSH1 0x0 KECCAK256 PUSH1 0x0 DUP1 DUP2 MSTORE PUSH1 0x20 ADD SWAP1 DUP2 MSTORE PUSH1 0x20 ADD PUSH1 0x0 KECCAK256 PUSH1 0x0 ADD DUP2 SWAP1 SSTORE POP PUSH1 0x0 SLOAD PUSH32 0xEF8B2952C43462575E82711D0CC91169720A4589A9FA533D173E022437F5405E DUP8 DUP8 PUSH1 0x40 MLOAD PUSH2 0x8B2 SWAP3 SWAP2 SWAP1 PUSH2 0x25AD JUMP JUMPDEST PUSH1 0x40 MLOAD DUP1 SWAP2 SUB SWAP1 LOG2 PUSH1 0x0 DUP1 DUP2 SLOAD DUP1 SWAP3 SWAP2 SWAP1 PUSH2 0x8CC SWAP1 PUSH2 0x2605 JUMP JUMPDEST SWAP2 SWAP1 POP SSTORE POP POP POP POP POP POP POP POP JUMP JUMPDEST DUP1 CALLER PUSH20 0xFFFFFFFFFFFFFFFFFFFFFFFFFFFFFFFFFFFFFFFF AND PUSH1 0x1 PUSH1 0x0 DUP4 DUP2 MSTORE PUSH1 0x20 ADD SWAP1 DUP2 MSTORE PUSH1 0x20 ADD PUSH1 0x0 KECCAK256 PUSH1 0x0 ADD PUSH1 0x0 SWAP1 SLOAD SWAP1 PUSH2 0x100 EXP SWAP1 DIV PUSH20 0xFFFFFFFFFFFFFFFFFFFFFFFFFFFFFFFFFFFFFFFF AND PUSH20 0xFFFFFFFFFFFFFFFFFFFFFFFFFFFFFFFFFFFFFFFF AND EQ PUSH2 0x97F JUMPI PUSH1 0x40 MLOAD PUSH32 0x8C379A000000000000000000000000000000000000000000000000000000000 DUP2 MSTORE PUSH1 0x4 ADD PUSH2 0x976 SWAP1 PUSH2 0x2412 JUMP JUMPDEST PUSH1 0x40 MLOAD DUP1 SWAP2 SUB SWAP1 REVERT JUMPDEST PUSH1 0x0 PUSH1 0x1 PUSH1 0x0 DUP5 DUP2 MSTORE PUSH1 0x20 ADD SWAP1 DUP2 MSTORE PUSH1 0x20 ADD PUSH1 0x0 KECCAK256 PUSH1 0x40 MLOAD DUP1 PUSH2 0x120 ADD PUSH1 0x40 MSTORE SWAP1 DUP2 PUSH1 0x0 DUP3 ADD PUSH1 0x0 SWAP1 SLOAD SWAP1 PUSH2 0x100 EXP SWAP1 DIV PUSH20 0xFFFFFFFFFFFFFFFFFFFFFFFFFFFFFFFFFFFFFFFF AND PUSH20 0xFFFFFFFFFFFFFFFFFFFFFFFFFFFFFFFFFFFFFFFF AND PUSH20 0xFFFFFFFFFFFFFFFFFFFFFFFFFFFFFFFFFFFFFFFF AND DUP2 MSTORE PUSH1 0x20 ADD PUSH1 0x1 DUP3 ADD PUSH1 0x0 SWAP1 SLOAD SWAP1 PUSH2 0x100 EXP SWAP1 DIV PUSH20 0xFFFFFFFFFFFFFFFFFFFFFFFFFFFFFFFFFFFFFFFF AND PUSH20 0xFFFFFFFFFFFFFFFFFFFFFFFFFFFFFFFFFFFFFFFF AND PUSH20 0xFFFFFFFFFFFFFFFFFFFFFFFFFFFFFFFFFFFFFFFF AND DUP2 MSTORE PUSH1 0x20 ADD PUSH1 0x2 DUP3 ADD PUSH1 0x0 SWAP1 SLOAD SWAP1 PUSH2 0x100 EXP SWAP1 DIV PUSH20 0xFFFFFFFFFFFFFFFFFFFFFFFFFFFFFFFFFFFFFFFF AND PUSH20 0xFFFFFFFFFFFFFFFFFFFFFFFFFFFFFFFFFFFFFFFF AND PUSH20 0xFFFFFFFFFFFFFFFFFFFFFFFFFFFFFFFFFFFFFFFF AND DUP2 MSTORE PUSH1 0x20 ADD PUSH1 0x3 DUP3 ADD SLOAD DUP2 MSTORE PUSH1 0x20 ADD PUSH1 0x4 DUP3 ADD SLOAD DUP2 MSTORE PUSH1 0x20 ADD PUSH1 0x5 DUP3 ADD SLOAD DUP2 MSTORE PUSH1 0x20 ADD PUSH1 0x6 DUP3 ADD SLOAD DUP2 MSTORE PUSH1 0x20 ADD PUSH1 0x7 DUP3 ADD SLOAD DUP2 MSTORE PUSH1 0x20 ADD PUSH1 0x8 DUP3 ADD PUSH1 0x0 SWAP1 SLOAD SWAP1 PUSH2 0x100 EXP SWAP1 DIV PUSH1 0xFF AND ISZERO ISZERO ISZERO ISZERO DUP2 MSTORE POP POP SWAP1 POP TIMESTAMP DUP2 PUSH1 0x80 ADD MLOAD GT PUSH2 0xB37 JUMPI PUSH1 0x40 MLOAD PUSH32 0x8C379A000000000000000000000000000000000000000000000000000000000 DUP2 MSTORE PUSH1 0x4 ADD PUSH2 0xB2E SWAP1 PUSH2 0x2699 JUMP JUMPDEST PUSH1 0x40 MLOAD DUP1 SWAP2 SUB SWAP1 REVERT JUMPDEST PUSH2 0xB3F PUSH2 0x1F8B JUMP JUMPDEST SWAP1 POP PUSH32 0xFE785EF891129B084B1C5A30E4D88EB97C97822C024CC25D5F9D806B897512E0 DUP4 PUSH1 0x40 MLOAD PUSH2 0xB70 SWAP2 SWAP1 PUSH2 0x2034 JUMP JUMPDEST PUSH1 0x40 MLOAD DUP1 SWAP2 SUB SWAP1 LOG1 POP POP POP JUMP JUMPDEST PUSH1 0x0 PUSH1 0x1 PUSH1 0x0 DUP4 DUP2 MSTORE PUSH1 0x20 ADD SWAP1 DUP2 MSTORE PUSH1 0x20 ADD PUSH1 0x0 KECCAK256 PUSH1 0x40 MLOAD DUP1 PUSH2 0x120 ADD PUSH1 0x40 MSTORE SWAP1 DUP2 PUSH1 0x0 DUP3 ADD PUSH1 0x0 SWAP1 SLOAD SWAP1 PUSH2 0x100 EXP SWAP1 DIV PUSH20 0xFFFFFFFFFFFFFFFFFFFFFFFFFFFFFFFFFFFFFFFF AND PUSH20 0xFFFFFFFFFFFFFFFFFFFFFFFFFFFFFFFFFFFFFFFF AND PUSH20 0xFFFFFFFFFFFFFFFFFFFFFFFFFFFFFFFFFFFFFFFF AND DUP2 MSTORE PUSH1 0x20 ADD PUSH1 0x1 DUP3 ADD PUSH1 0x0 SWAP1 SLOAD SWAP1 PUSH2 0x100 EXP SWAP1 DIV PUSH20 0xFFFFFFFFFFFFFFFFFFFFFFFFFFFFFFFFFFFFFFFF AND PUSH20 0xFFFFFFFFFFFFFFFFFFFFFFFFFFFFFFFFFFFFFFFF AND PUSH20 0xFFFFFFFFFFFFFFFFFFFFFFFFFFFFFFFFFFFFFFFF AND DUP2 MSTORE PUSH1 0x20 ADD PUSH1 0x2 DUP3 ADD PUSH1 0x0 SWAP1 SLOAD SWAP1 PUSH2 0x100 EXP SWAP1 DIV PUSH20 0xFFFFFFFFFFFFFFFFFFFFFFFFFFFFFFFFFFFFFFFF AND PUSH20 0xFFFFFFFFFFFFFFFFFFFFFFFFFFFFFFFFFFFFFFFF AND PUSH20 0xFFFFFFFFFFFFFFFFFFFFFFFFFFFFFFFFFFFFFFFF AND DUP2 MSTORE PUSH1 0x20 ADD PUSH1 0x3 DUP3 ADD SLOAD DUP2 MSTORE PUSH1 0x20 ADD PUSH1 0x4 DUP3 ADD SLOAD DUP2 MSTORE PUSH1 0x20 ADD PUSH1 0x5 DUP3 ADD SLOAD DUP2 MSTORE PUSH1 0x20 ADD PUSH1 0x6 DUP3 ADD SLOAD DUP2 MSTORE PUSH1 0x20 ADD PUSH1 0x7 DUP3 ADD SLOAD DUP2 MSTORE PUSH1 0x20 ADD PUSH1 0x8 DUP3 ADD PUSH1 0x0 SWAP1 SLOAD SWAP1 PUSH2 0x100 EXP SWAP1 DIV PUSH1 0xFF AND ISZERO ISZERO ISZERO ISZERO DUP2 MSTORE POP POP SWAP1 POP PUSH2 0xCF8 DUP3 PUSH2 0x1C9A JUMP JUMPDEST PUSH2 0xD37 JUMPI PUSH1 0x40 MLOAD PUSH32 0x8C379A000000000000000000000000000000000000000000000000000000000 DUP2 MSTORE PUSH1 0x4 ADD PUSH2 0xD2E SWAP1 PUSH2 0x2705 JUMP JUMPDEST PUSH1 0x40 MLOAD DUP1 SWAP2 SUB SWAP1 REVERT JUMPDEST PUSH1 0x0 PUSH1 0x2 PUSH1 0x0 DUP5 DUP2 MSTORE PUSH1 0x20 ADD SWAP1 DUP2 MSTORE PUSH1 0x20 ADD PUSH1 0x0 KECCAK256 PUSH1 0x0 DUP4 PUSH1 0xE0 ADD MLOAD DUP2 MSTORE PUSH1 0x20 ADD SWAP1 DUP2 MSTORE PUSH1 0x20 ADD PUSH1 0x0 KECCAK256 PUSH1 0x40 MLOAD DUP1 PUSH1 0x60 ADD PUSH1 0x40 MSTORE SWAP1 DUP2 PUSH1 0x0 DUP3 ADD SLOAD DUP2 MSTORE PUSH1 0x20 ADD PUSH1 0x1 DUP3 ADD SLOAD DUP2 MSTORE PUSH1 0x20 ADD PUSH1 0x2 DUP3 ADD PUSH1 0x0 SWAP1 SLOAD SWAP1 PUSH2 0x100 EXP SWAP1 DIV PUSH20 0xFFFFFFFFFFFFFFFFFFFFFFFFFFFFFFFFFFFFFFFF AND PUSH20 0xFFFFFFFFFFFFFFFFFFFFFFFFFFFFFFFFFFFFFFFF AND PUSH20 0xFFFFFFFFFFFFFFFFFFFFFFFFFFFFFFFFFFFFFFFF AND DUP2 MSTORE POP POP SWAP1 POP CALLER PUSH20 0xFFFFFFFFFFFFFFFFFFFFFFFFFFFFFFFFFFFFFFFF AND DUP2 PUSH1 0x40 ADD MLOAD PUSH20 0xFFFFFFFFFFFFFFFFFFFFFFFFFFFFFFFFFFFFFFFF AND EQ PUSH2 0xE4A JUMPI PUSH1 0x40 MLOAD PUSH32 0x8C379A000000000000000000000000000000000000000000000000000000000 DUP2 MSTORE PUSH1 0x4 ADD PUSH2 0xE41 SWAP1 PUSH2 0x247E JUMP JUMPDEST PUSH1 0x40 MLOAD DUP1 SWAP2 SUB SWAP1 REVERT JUMPDEST PUSH1 0x0 DUP3 PUSH1 0x40 ADD MLOAD SWAP1 POP DUP1 PUSH20 0xFFFFFFFFFFFFFFFFFFFFFFFFFFFFFFFFFFFFFFFF AND PUSH4 0x42842E0E ADDRESS CALLER DUP7 PUSH1 0x60 ADD MLOAD PUSH1 0x40 MLOAD DUP5 PUSH4 0xFFFFFFFF AND PUSH1 0xE0 SHL DUP2 MSTORE PUSH1 0x4 ADD PUSH2 0xE94 SWAP4 SWAP3 SWAP2 SWAP1 PUSH2 0x249E JUMP JUMPDEST PUSH1 0x0 PUSH1 0x40 MLOAD DUP1 DUP4 SUB DUP2 PUSH1 0x0 DUP8 DUP1 EXTCODESIZE ISZERO DUP1 ISZERO PUSH2 0xEAE JUMPI PUSH1 0x0 DUP1 REVERT JUMPDEST POP GAS CALL ISZERO DUP1 ISZERO PUSH2 0xEC2 JUMPI RETURNDATASIZE PUSH1 0x0 DUP1 RETURNDATACOPY RETURNDATASIZE PUSH1 0x0 REVERT JUMPDEST POP POP POP POP POP POP POP POP JUMP JUMPDEST PUSH2 0xED5 DUP3 PUSH2 0x1CBD JUMP JUMPDEST PUSH2 0xF14 JUMPI PUSH1 0x40 MLOAD PUSH32 0x8C379A000000000000000000000000000000000000000000000000000000000 DUP2 MSTORE PUSH1 0x4 ADD PUSH2 0xF0B SWAP1 PUSH2 0x2771 JUMP JUMPDEST PUSH1 0x40 MLOAD DUP1 SWAP2 SUB SWAP1 REVERT JUMPDEST PUSH2 0xF1D DUP3 PUSH2 0x1C9A JUMP JUMPDEST ISZERO PUSH2 0xF5D JUMPI PUSH1 0x40 MLOAD PUSH32 0x8C379A000000000000000000000000000000000000000000000000000000000 DUP2 MSTORE PUSH1 0x4 ADD PUSH2 0xF54 SWAP1 PUSH2 0x27DD JUMP JUMPDEST PUSH1 0x40 MLOAD DUP1 SWAP2 SUB SWAP1 REVERT JUMPDEST PUSH1 0x0 PUSH1 0x1 PUSH1 0x0 DUP5 DUP2 MSTORE PUSH1 0x20 ADD SWAP1 DUP2 MSTORE PUSH1 0x20 ADD PUSH1 0x0 KECCAK256 PUSH1 0x40 MLOAD DUP1 PUSH2 0x120 ADD PUSH1 0x40 MSTORE SWAP1 DUP2 PUSH1 0x0 DUP3 ADD PUSH1 0x0 SWAP1 SLOAD SWAP1 PUSH2 0x100 EXP SWAP1 DIV PUSH20 0xFFFFFFFFFFFFFFFFFFFFFFFFFFFFFFFFFFFFFFFF AND PUSH20 0xFFFFFFFFFFFFFFFFFFFFFFFFFFFFFFFFFFFFFFFF AND PUSH20 0xFFFFFFFFFFFFFFFFFFFFFFFFFFFFFFFFFFFFFFFF AND DUP2 MSTORE PUSH1 0x20 ADD PUSH1 0x1 DUP3 ADD PUSH1 0x0 SWAP1 SLOAD SWAP1 PUSH2 0x100 EXP SWAP1 DIV PUSH20 0xFFFFFFFFFFFFFFFFFFFFFFFFFFFFFFFFFFFFFFFF AND PUSH20 0xFFFFFFFFFFFFFFFFFFFFFFFFFFFFFFFFFFFFFFFF AND PUSH20 0xFFFFFFFFFFFFFFFFFFFFFFFFFFFFFFFFFFFFFFFF AND DUP2 MSTORE PUSH1 0x20 ADD PUSH1 0x2 DUP3 ADD PUSH1 0x0 SWAP1 SLOAD SWAP1 PUSH2 0x100 EXP SWAP1 DIV PUSH20 0xFFFFFFFFFFFFFFFFFFFFFFFFFFFFFFFFFFFFFFFF AND PUSH20 0xFFFFFFFFFFFFFFFFFFFFFFFFFFFFFFFFFFFFFFFF AND PUSH20 0xFFFFFFFFFFFFFFFFFFFFFFFFFFFFFFFFFFFFFFFF AND DUP2 MSTORE PUSH1 0x20 ADD PUSH1 0x3 DUP3 ADD SLOAD DUP2 MSTORE PUSH1 0x20 ADD PUSH1 0x4 DUP3 ADD SLOAD DUP2 MSTORE PUSH1 0x20 ADD PUSH1 0x5 DUP3 ADD SLOAD DUP2 MSTORE PUSH1 0x20 ADD PUSH1 0x6 DUP3 ADD SLOAD DUP2 MSTORE PUSH1 0x20 ADD PUSH1 0x7 DUP3 ADD SLOAD DUP2 MSTORE PUSH1 0x20 ADD PUSH1 0x8 DUP3 ADD PUSH1 0x0 SWAP1 SLOAD SWAP1 PUSH2 0x100 EXP SWAP1 DIV PUSH1 0xFF AND ISZERO ISZERO ISZERO ISZERO DUP2 MSTORE POP POP SWAP1 POP DUP1 PUSH2 0x100 ADD MLOAD DUP1 ISZERO PUSH2 0x113B JUMPI POP PUSH1 0x3 PUSH1 0x0 DUP5 DUP2 MSTORE PUSH1 0x20 ADD SWAP1 DUP2 MSTORE PUSH1 0x20 ADD PUSH1 0x0 KECCAK256 PUSH1 0x0 CALLER PUSH20 0xFFFFFFFFFFFFFFFFFFFFFFFFFFFFFFFFFFFFFFFF AND PUSH20 0xFFFFFFFFFFFFFFFFFFFFFFFFFFFFFFFFFFFFFFFF AND DUP2 MSTORE PUSH1 0x20 ADD SWAP1 DUP2 MSTORE PUSH1 0x20 ADD PUSH1 0x0 KECCAK256 PUSH1 0x0 SWAP1 SLOAD SWAP1 PUSH2 0x100 EXP SWAP1 DIV PUSH1 0xFF AND JUMPDEST DUP1 PUSH2 0x114F JUMPI POP PUSH1 0x0 ISZERO ISZERO DUP2 PUSH2 0x100 ADD MLOAD ISZERO ISZERO EQ JUMPDEST PUSH2 0x118E JUMPI PUSH1 0x40 MLOAD PUSH32 0x8C379A000000000000000000000000000000000000000000000000000000000 DUP2 MSTORE PUSH1 0x4 ADD PUSH2 0x1185 SWAP1 PUSH2 0x2849 JUMP JUMPDEST PUSH1 0x40 MLOAD DUP1 SWAP2 SUB SWAP1 REVERT JUMPDEST PUSH1 0x0 PUSH1 0x1 DUP3 PUSH1 0xE0 ADD MLOAD PUSH2 0x11A1 SWAP2 SWAP1 PUSH2 0x2869 JUMP JUMPDEST SWAP1 POP DUP1 DUP3 PUSH1 0xE0 ADD DUP2 DUP2 MSTORE POP POP PUSH1 0x0 PUSH2 0x11B8 DUP6 PUSH2 0x1CDF JUMP JUMPDEST SWAP1 POP DUP1 DUP5 GT PUSH2 0x11FC JUMPI PUSH1 0x40 MLOAD PUSH32 0x8C379A000000000000000000000000000000000000000000000000000000000 DUP2 MSTORE PUSH1 0x4 ADD PUSH2 0x11F3 SWAP1 PUSH2 0x28E9 JUMP JUMPDEST PUSH1 0x40 MLOAD DUP1 SWAP2 SUB SWAP1 REVERT JUMPDEST DUP3 PUSH1 0x20 ADD MLOAD PUSH20 0xFFFFFFFFFFFFFFFFFFFFFFFFFFFFFFFFFFFFFFFF AND PUSH4 0x23B872DD CALLER PUSH1 0x2 PUSH1 0x0 DUP10 DUP2 MSTORE PUSH1 0x20 ADD SWAP1 DUP2 MSTORE PUSH1 0x20 ADD PUSH1 0x0 KECCAK256 PUSH1 0x0 DUP7 DUP2 MSTORE PUSH1 0x20 ADD SWAP1 DUP2 MSTORE PUSH1 0x20 ADD PUSH1 0x0 KECCAK256 PUSH1 0x2 ADD PUSH1 0x0 SWAP1 SLOAD SWAP1 PUSH2 0x100 EXP SWAP1 DIV PUSH20 0xFFFFFFFFFFFFFFFFFFFFFFFFFFFFFFFFFFFFFFFF AND DUP5 PUSH1 0x40 MLOAD DUP5 PUSH4 0xFFFFFFFF AND PUSH1 0xE0 SHL DUP2 MSTORE PUSH1 0x4 ADD PUSH2 0x1284 SWAP4 SWAP3 SWAP2 SWAP1 PUSH2 0x249E JUMP JUMPDEST PUSH1 0x20 PUSH1 0x40 MLOAD DUP1 DUP4 SUB DUP2 PUSH1 0x0 DUP8 GAS CALL ISZERO DUP1 ISZERO PUSH2 0x12A3 JUMPI RETURNDATASIZE PUSH1 0x0 DUP1 RETURNDATACOPY RETURNDATASIZE PUSH1 0x0 REVERT JUMPDEST POP POP POP POP PUSH1 0x40 MLOAD RETURNDATASIZE PUSH1 0x1F NOT PUSH1 0x1F DUP3 ADD AND DUP3 ADD DUP1 PUSH1 0x40 MSTORE POP DUP2 ADD SWAP1 PUSH2 0x12C7 SWAP2 SWAP1 PUSH2 0x291E JUMP JUMPDEST POP DUP3 PUSH1 0x20 ADD MLOAD PUSH20 0xFFFFFFFFFFFFFFFFFFFFFFFFFFFFFFFFFFFFFFFF AND PUSH4 0x23B872DD CALLER DUP6 PUSH1 0x0 ADD MLOAD DUP5 DUP9 PUSH2 0x12FA SWAP2 SWAP1 PUSH2 0x294B JUMP JUMPDEST PUSH1 0x40 MLOAD DUP5 PUSH4 0xFFFFFFFF AND PUSH1 0xE0 SHL DUP2 MSTORE PUSH1 0x4 ADD PUSH2 0x1318 SWAP4 SWAP3 SWAP2 SWAP1 PUSH2 0x249E JUMP JUMPDEST PUSH1 0x20 PUSH1 0x40 MLOAD DUP1 DUP4 SUB DUP2 PUSH1 0x0 DUP8 GAS CALL ISZERO DUP1 ISZERO PUSH2 0x1337 JUMPI RETURNDATASIZE PUSH1 0x0 DUP1 RETURNDATACOPY RETURNDATASIZE PUSH1 0x0 REVERT JUMPDEST POP POP POP POP PUSH1 0x40 MLOAD RETURNDATASIZE PUSH1 0x1F NOT PUSH1 0x1F DUP3 ADD AND DUP3 ADD DUP1 PUSH1 0x40 MSTORE POP DUP2 ADD SWAP1 PUSH2 0x135B SWAP2 SWAP1 PUSH2 0x291E JUMP JUMPDEST POP PUSH1 0x40 MLOAD DUP1 PUSH1 0x60 ADD PUSH1 0x40 MSTORE DUP1 TIMESTAMP DUP2 MSTORE PUSH1 0x20 ADD DUP6 DUP2 MSTORE PUSH1 0x20 ADD CALLER PUSH20 0xFFFFFFFFFFFFFFFFFFFFFFFFFFFFFFFFFFFFFFFF AND DUP2 MSTORE POP PUSH1 0x2 PUSH1 0x0 DUP8 DUP2 MSTORE PUSH1 0x20 ADD SWAP1 DUP2 MSTORE PUSH1 0x20 ADD PUSH1 0x0 KECCAK256 PUSH1 0x0 DUP5 DUP2 MSTORE PUSH1 0x20 ADD SWAP1 DUP2 MSTORE PUSH1 0x20 ADD PUSH1 0x0 KECCAK256 PUSH1 0x0 DUP3 ADD MLOAD DUP2 PUSH1 0x0 ADD SSTORE PUSH1 0x20 DUP3 ADD MLOAD DUP2 PUSH1 0x1 ADD SSTORE PUSH1 0x40 DUP3 ADD MLOAD DUP2 PUSH1 0x2 ADD PUSH1 0x0 PUSH2 0x100 EXP DUP2 SLOAD DUP2 PUSH20 0xFFFFFFFFFFFFFFFFFFFFFFFFFFFFFFFFFFFFFFFF MUL NOT AND SWAP1 DUP4 PUSH20 0xFFFFFFFFFFFFFFFFFFFFFFFFFFFFFFFFFFFFFFFF AND MUL OR SWAP1 SSTORE POP SWAP1 POP POP POP POP POP POP POP JUMP JUMPDEST DUP1 CALLER PUSH20 0xFFFFFFFFFFFFFFFFFFFFFFFFFFFFFFFFFFFFFFFF AND PUSH1 0x1 PUSH1 0x0 DUP4 DUP2 MSTORE PUSH1 0x20 ADD SWAP1 DUP2 MSTORE PUSH1 0x20 ADD PUSH1 0x0 KECCAK256 PUSH1 0x0 ADD PUSH1 0x0 SWAP1 SLOAD SWAP1 PUSH2 0x100 EXP SWAP1 DIV PUSH20 0xFFFFFFFFFFFFFFFFFFFFFFFFFFFFFFFFFFFFFFFF AND PUSH20 0xFFFFFFFFFFFFFFFFFFFFFFFFFFFFFFFFFFFFFFFF AND EQ PUSH2 0x14BB JUMPI PUSH1 0x40 MLOAD PUSH32 0x8C379A000000000000000000000000000000000000000000000000000000000 DUP2 MSTORE PUSH1 0x4 ADD PUSH2 0x14B2 SWAP1 PUSH2 0x2412 JUMP JUMPDEST PUSH1 0x40 MLOAD DUP1 SWAP2 SUB SWAP1 REVERT JUMPDEST PUSH1 0x0 PUSH1 0x1 PUSH1 0x0 DUP5 DUP2 MSTORE PUSH1 0x20 ADD SWAP1 DUP2 MSTORE PUSH1 0x20 ADD PUSH1 0x0 KECCAK256 PUSH1 0x40 MLOAD DUP1 PUSH2 0x120 ADD PUSH1 0x40 MSTORE SWAP1 DUP2 PUSH1 0x0 DUP3 ADD PUSH1 0x0 SWAP1 SLOAD SWAP1 PUSH2 0x100 EXP SWAP1 DIV PUSH20 0xFFFFFFFFFFFFFFFFFFFFFFFFFFFFFFFFFFFFFFFF AND PUSH20 0xFFFFFFFFFFFFFFFFFFFFFFFFFFFFFFFFFFFFFFFF AND PUSH20 0xFFFFFFFFFFFFFFFFFFFFFFFFFFFFFFFFFFFFFFFF AND DUP2 MSTORE PUSH1 0x20 ADD PUSH1 0x1 DUP3 ADD PUSH1 0x0 SWAP1 SLOAD SWAP1 PUSH2 0x100 EXP SWAP1 DIV PUSH20 0xFFFFFFFFFFFFFFFFFFFFFFFFFFFFFFFFFFFFFFFF AND PUSH20 0xFFFFFFFFFFFFFFFFFFFFFFFFFFFFFFFFFFFFFFFF AND PUSH20 0xFFFFFFFFFFFFFFFFFFFFFFFFFFFFFFFFFFFFFFFF AND DUP2 MSTORE PUSH1 0x20 ADD PUSH1 0x2 DUP3 ADD PUSH1 0x0 SWAP1 SLOAD SWAP1 PUSH2 0x100 EXP SWAP1 DIV PUSH20 0xFFFFFFFFFFFFFFFFFFFFFFFFFFFFFFFFFFFFFFFF AND PUSH20 0xFFFFFFFFFFFFFFFFFFFFFFFFFFFFFFFFFFFFFFFF AND PUSH20 0xFFFFFFFFFFFFFFFFFFFFFFFFFFFFFFFFFFFFFFFF AND DUP2 MSTORE PUSH1 0x20 ADD PUSH1 0x3 DUP3 ADD SLOAD DUP2 MSTORE PUSH1 0x20 ADD PUSH1 0x4 DUP3 ADD SLOAD DUP2 MSTORE PUSH1 0x20 ADD PUSH1 0x5 DUP3 ADD SLOAD DUP2 MSTORE PUSH1 0x20 ADD PUSH1 0x6 DUP3 ADD SLOAD DUP2 MSTORE PUSH1 0x20 ADD PUSH1 0x7 DUP3 ADD SLOAD DUP2 MSTORE PUSH1 0x20 ADD PUSH1 0x8 DUP3 ADD PUSH1 0x0 SWAP1 SLOAD SWAP1 PUSH2 0x100 EXP SWAP1 DIV PUSH1 0xFF AND ISZERO ISZERO ISZERO ISZERO DUP2 MSTORE POP POP SWAP1 POP PUSH1 0x0 PUSH1 0x2 PUSH1 0x0 DUP6 DUP2 MSTORE PUSH1 0x20 ADD SWAP1 DUP2 MSTORE PUSH1 0x20 ADD PUSH1 0x0 KECCAK256 PUSH1 0x0 DUP4 PUSH1 0xE0 ADD MLOAD DUP2 MSTORE PUSH1 0x20 ADD SWAP1 DUP2 MSTORE PUSH1 0x20 ADD PUSH1 0x0 KECCAK256 PUSH1 0x40 MLOAD DUP1 PUSH1 0x60 ADD PUSH1 0x40 MSTORE SWAP1 DUP2 PUSH1 0x0 DUP3 ADD SLOAD DUP2 MSTORE PUSH1 0x20 ADD PUSH1 0x1 DUP3 ADD SLOAD DUP2 MSTORE PUSH1 0x20 ADD PUSH1 0x2 DUP3 ADD PUSH1 0x0 SWAP1 SLOAD SWAP1 PUSH2 0x100 EXP SWAP1 DIV PUSH20 0xFFFFFFFFFFFFFFFFFFFFFFFFFFFFFFFFFFFFFFFF AND PUSH20 0xFFFFFFFFFFFFFFFFFFFFFFFFFFFFFFFFFFFFFFFF AND PUSH20 0xFFFFFFFFFFFFFFFFFFFFFFFFFFFFFFFFFFFFFFFF AND DUP2 MSTORE POP POP SWAP1 POP DUP2 PUSH1 0x20 ADD MLOAD PUSH20 0xFFFFFFFFFFFFFFFFFFFFFFFFFFFFFFFFFFFFFFFF AND PUSH4 0x23B872DD CALLER DUP4 PUSH1 0x40 ADD MLOAD PUSH2 0x16FD DUP9 PUSH2 0x1CDF JUMP JUMPDEST PUSH1 0x40 MLOAD DUP5 PUSH4 0xFFFFFFFF AND PUSH1 0xE0 SHL DUP2 MSTORE PUSH1 0x4 ADD PUSH2 0x171B SWAP4 SWAP3 SWAP2 SWAP1 PUSH2 0x249E JUMP JUMPDEST PUSH1 0x20 PUSH1 0x40 MLOAD DUP1 DUP4 SUB DUP2 PUSH1 0x0 DUP8 GAS CALL ISZERO DUP1 ISZERO PUSH2 0x173A JUMPI RETURNDATASIZE PUSH1 0x0 DUP1 RETURNDATACOPY RETURNDATASIZE PUSH1 0x0 REVERT JUMPDEST POP POP POP POP PUSH1 0x40 MLOAD RETURNDATASIZE PUSH1 0x1F NOT PUSH1 0x1F DUP3 ADD AND DUP3 ADD DUP1 PUSH1 0x40 MSTORE POP DUP2 ADD SWAP1 PUSH2 0x175E SWAP2 SWAP1 PUSH2 0x291E JUMP JUMPDEST POP PUSH1 0x0 DUP3 PUSH1 0x40 ADD MLOAD SWAP1 POP DUP1 PUSH20 0xFFFFFFFFFFFFFFFFFFFFFFFFFFFFFFFFFFFFFFFF AND PUSH4 0x42842E0E ADDRESS CALLER DUP7 PUSH1 0x60 ADD MLOAD PUSH1 0x40 MLOAD DUP5 PUSH4 0xFFFFFFFF AND PUSH1 0xE0 SHL DUP2 MSTORE PUSH1 0x4 ADD PUSH2 0x17A9 SWAP4 SWAP3 SWAP2 SWAP1 PUSH2 0x249E JUMP JUMPDEST PUSH1 0x0 PUSH1 0x40 MLOAD DUP1 DUP4 SUB DUP2 PUSH1 0x0 DUP8 DUP1 EXTCODESIZE ISZERO DUP1 ISZERO PUSH2 0x17C3 JUMPI PUSH1 0x0 DUP1 REVERT JUMPDEST POP GAS CALL ISZERO DUP1 ISZERO PUSH2 0x17D7 JUMPI RETURNDATASIZE PUSH1 0x0 DUP1 RETURNDATACOPY RETURNDATASIZE PUSH1 0x0 REVERT JUMPDEST POP POP POP POP POP POP POP POP POP JUMP JUMPDEST PUSH1 0x2 PUSH1 0x20 MSTORE DUP2 PUSH1 0x0 MSTORE PUSH1 0x40 PUSH1 0x0 KECCAK256 PUSH1 0x20 MSTORE DUP1 PUSH1 0x0 MSTORE PUSH1 0x40 PUSH1 0x0 KECCAK256 PUSH1 0x0 SWAP2 POP SWAP2 POP POP DUP1 PUSH1 0x0 ADD SLOAD SWAP1 DUP1 PUSH1 0x1 ADD SLOAD SWAP1 DUP1 PUSH1 0x2 ADD PUSH1 0x0 SWAP1 SLOAD SWAP1 PUSH2 0x100 EXP SWAP1 DIV PUSH20 0xFFFFFFFFFFFFFFFFFFFFFFFFFFFFFFFFFFFFFFFF AND SWAP1 POP DUP4 JUMP JUMPDEST PUSH2 0x1842 DUP3 PUSH2 0x1CBD JUMP JUMPDEST PUSH2 0x1881 JUMPI PUSH1 0x40 MLOAD PUSH32 0x8C379A000000000000000000000000000000000000000000000000000000000 DUP2 MSTORE PUSH1 0x4 ADD PUSH2 0x1878 SWAP1 PUSH2 0x2771 JUMP JUMPDEST PUSH1 0x40 MLOAD DUP1 SWAP2 SUB SWAP1 REVERT JUMPDEST PUSH2 0x188A DUP3 PUSH2 0x1C9A JUMP JUMPDEST ISZERO PUSH2 0x18CA JUMPI PUSH1 0x40 MLOAD PUSH32 0x8C379A000000000000000000000000000000000000000000000000000000000 DUP2 MSTORE PUSH1 0x4 ADD PUSH2 0x18C1 SWAP1 PUSH2 0x27DD JUMP JUMPDEST PUSH1 0x40 MLOAD DUP1 SWAP2 SUB SWAP1 REVERT JUMPDEST PUSH1 0x0 PUSH1 0x1 PUSH1 0x0 DUP5 DUP2 MSTORE PUSH1 0x20 ADD SWAP1 DUP2 MSTORE PUSH1 0x20 ADD PUSH1 0x0 KECCAK256 PUSH1 0x40 MLOAD DUP1 PUSH2 0x120 ADD PUSH1 0x40 MSTORE SWAP1 DUP2 PUSH1 0x0 DUP3 ADD PUSH1 0x0 SWAP1 SLOAD SWAP1 PUSH2 0x100 EXP SWAP1 DIV PUSH20 0xFFFFFFFFFFFFFFFFFFFFFFFFFFFFFFFFFFFFFFFF AND PUSH20 0xFFFFFFFFFFFFFFFFFFFFFFFFFFFFFFFFFFFFFFFF AND PUSH20 0xFFFFFFFFFFFFFFFFFFFFFFFFFFFFFFFFFFFFFFFF AND DUP2 MSTORE PUSH1 0x20 ADD PUSH1 0x1 DUP3 ADD PUSH1 0x0 SWAP1 SLOAD SWAP1 PUSH2 0x100 EXP SWAP1 DIV PUSH20 0xFFFFFFFFFFFFFFFFFFFFFFFFFFFFFFFFFFFFFFFF AND PUSH20 0xFFFFFFFFFFFFFFFFFFFFFFFFFFFFFFFFFFFFFFFF AND PUSH20 0xFFFFFFFFFFFFFFFFFFFFFFFFFFFFFFFFFFFFFFFF AND DUP2 MSTORE PUSH1 0x20 ADD PUSH1 0x2 DUP3 ADD PUSH1 0x0 SWAP1 SLOAD SWAP1 PUSH2 0x100 EXP SWAP1 DIV PUSH20 0xFFFFFFFFFFFFFFFFFFFFFFFFFFFFFFFFFFFFFFFF AND PUSH20 0xFFFFFFFFFFFFFFFFFFFFFFFFFFFFFFFFFFFFFFFF AND PUSH20 0xFFFFFFFFFFFFFFFFFFFFFFFFFFFFFFFFFFFFFFFF AND DUP2 MSTORE PUSH1 0x20 ADD PUSH1 0x3 DUP3 ADD SLOAD DUP2 MSTORE PUSH1 0x20 ADD PUSH1 0x4 DUP3 ADD SLOAD DUP2 MSTORE PUSH1 0x20 ADD PUSH1 0x5 DUP3 ADD SLOAD DUP2 MSTORE PUSH1 0x20 ADD PUSH1 0x6 DUP3 ADD SLOAD DUP2 MSTORE PUSH1 0x20 ADD PUSH1 0x7 DUP3 ADD SLOAD DUP2 MSTORE PUSH1 0x20 ADD PUSH1 0x8 DUP3 ADD PUSH1 0x0 SWAP1 SLOAD SWAP1 PUSH2 0x100 EXP SWAP1 DIV PUSH1 0xFF AND ISZERO ISZERO ISZERO ISZERO DUP2 MSTORE POP POP SWAP1 POP PUSH1 0x0 PUSH1 0x2 PUSH1 0x0 DUP6 DUP2 MSTORE PUSH1 0x20 ADD SWAP1 DUP2 MSTORE PUSH1 0x20 ADD PUSH1 0x0 KECCAK256 PUSH1 0x0 DUP4 PUSH1 0xE0 ADD MLOAD DUP2 MSTORE PUSH1 0x20 ADD SWAP1 DUP2 MSTORE PUSH1 0x20 ADD PUSH1 0x0 KECCAK256 SWAP1 POP CALLER PUSH20 0xFFFFFFFFFFFFFFFFFFFFFFFFFFFFFFFFFFFFFFFF AND DUP2 PUSH1 0x2 ADD PUSH1 0x0 SWAP1 SLOAD SWAP1 PUSH2 0x100 EXP SWAP1 DIV PUSH20 0xFFFFFFFFFFFFFFFFFFFFFFFFFFFFFFFFFFFFFFFF AND PUSH20 0xFFFFFFFFFFFFFFFFFFFFFFFFFFFFFFFFFFFFFFFF AND EQ PUSH2 0x1AFA JUMPI PUSH1 0x40 MLOAD PUSH32 0x8C379A000000000000000000000000000000000000000000000000000000000 DUP2 MSTORE PUSH1 0x4 ADD PUSH2 0x1AF1 SWAP1 PUSH2 0x29CB JUMP JUMPDEST PUSH1 0x40 MLOAD DUP1 SWAP2 SUB SWAP1 REVERT JUMPDEST DUP3 DUP2 PUSH1 0x2 ADD PUSH1 0x0 PUSH2 0x100 EXP DUP2 SLOAD DUP2 PUSH20 0xFFFFFFFFFFFFFFFFFFFFFFFFFFFFFFFFFFFFFFFF MUL NOT AND SWAP1 DUP4 PUSH20 0xFFFFFFFFFFFFFFFFFFFFFFFFFFFFFFFFFFFFFFFF AND MUL OR SWAP1 SSTORE POP POP POP POP POP JUMP JUMPDEST PUSH1 0x3 PUSH1 0x20 MSTORE DUP2 PUSH1 0x0 MSTORE PUSH1 0x40 PUSH1 0x0 KECCAK256 PUSH1 0x20 MSTORE DUP1 PUSH1 0x0 MSTORE PUSH1 0x40 PUSH1 0x0 KECCAK256 PUSH1 0x0 SWAP2 POP SWAP2 POP SWAP1 SLOAD SWAP1 PUSH2 0x100 EXP SWAP1 DIV PUSH1 0xFF AND DUP2 JUMP JUMPDEST PUSH1 0x1 PUSH1 0x20 MSTORE DUP1 PUSH1 0x0 MSTORE PUSH1 0x40 PUSH1 0x0 KECCAK256 PUSH1 0x0 SWAP2 POP SWAP1 POP DUP1 PUSH1 0x0 ADD PUSH1 0x0 SWAP1 SLOAD SWAP1 PUSH2 0x100 EXP SWAP1 DIV PUSH20 0xFFFFFFFFFFFFFFFFFFFFFFFFFFFFFFFFFFFFFFFF AND SWAP1 DUP1 PUSH1 0x1 ADD PUSH1 0x0 SWAP1 SLOAD SWAP1 PUSH2 0x100 EXP SWAP1 DIV PUSH20 0xFFFFFFFFFFFFFFFFFFFFFFFFFFFFFFFFFFFFFFFF AND SWAP1 DUP1 PUSH1 0x2 ADD PUSH1 0x0 SWAP1 SLOAD SWAP1 PUSH2 0x100 EXP SWAP1 DIV PUSH20 0xFFFFFFFFFFFFFFFFFFFFFFFFFFFFFFFFFFFFFFFF AND SWAP1 DUP1 PUSH1 0x3 ADD SLOAD SWAP1 DUP1 PUSH1 0x4 ADD SLOAD SWAP1 DUP1 PUSH1 0x5 ADD SLOAD SWAP1 DUP1 PUSH1 0x6 ADD SLOAD SWAP1 DUP1 PUSH1 0x7 ADD SLOAD SWAP1 DUP1 PUSH1 0x8 ADD PUSH1 0x0 SWAP1 SLOAD SWAP1 PUSH2 0x100 EXP SWAP1 DIV PUSH1 0xFF AND SWAP1 POP DUP10 JUMP JUMPDEST DUP1 PUSH1 0x3 PUSH1 0x0 DUP6 DUP2 MSTORE PUSH1 0x20 ADD SWAP1 DUP2 MSTORE PUSH1 0x20 ADD PUSH1 0x0 KECCAK256 PUSH1 0x0 DUP5 PUSH20 0xFFFFFFFFFFFFFFFFFFFFFFFFFFFFFFFFFFFFFFFF AND PUSH20 0xFFFFFFFFFFFFFFFFFFFFFFFFFFFFFFFFFFFFFFFF AND DUP2 MSTORE PUSH1 0x20 ADD SWAP1 DUP2 MSTORE PUSH1 0x20 ADD PUSH1 0x0 KECCAK256 PUSH1 0x0 PUSH2 0x100 EXP DUP2 SLOAD DUP2 PUSH1 0xFF MUL NOT AND SWAP1 DUP4 ISZERO ISZERO MUL OR SWAP1 SSTORE POP POP POP POP JUMP JUMPDEST PUSH1 0x0 TIMESTAMP PUSH1 0x1 PUSH1 0x0 DUP5 DUP2 MSTORE PUSH1 0x20 ADD SWAP1 DUP2 MSTORE PUSH1 0x20 ADD PUSH1 0x0 KECCAK256 PUSH1 0x5 ADD SLOAD GT ISZERO SWAP1 POP SWAP2 SWAP1 POP JUMP JUMPDEST PUSH1 0x0 TIMESTAMP PUSH1 0x1 PUSH1 0x0 DUP5 DUP2 MSTORE PUSH1 0x20 ADD SWAP1 DUP2 MSTORE PUSH1 0x20 ADD PUSH1 0x0 KECCAK256 PUSH1 0x4 ADD SLOAD LT SWAP1 POP SWAP2 SWAP1 POP JUMP JUMPDEST PUSH1 0x0 DUP1 PUSH1 0x1 PUSH1 0x0 DUP5 DUP2 MSTORE PUSH1 0x20 ADD SWAP1 DUP2 MSTORE PUSH1 0x20 ADD PUSH1 0x0 KECCAK256 PUSH1 0x40 MLOAD DUP1 PUSH2 0x120 ADD PUSH1 0x40 MSTORE SWAP1 DUP2 PUSH1 0x0 DUP3 ADD PUSH1 0x0 SWAP1 SLOAD SWAP1 PUSH2 0x100 EXP SWAP1 DIV PUSH20 0xFFFFFFFFFFFFFFFFFFFFFFFFFFFFFFFFFFFFFFFF AND PUSH20 0xFFFFFFFFFFFFFFFFFFFFFFFFFFFFFFFFFFFFFFFF AND PUSH20 0xFFFFFFFFFFFFFFFFFFFFFFFFFFFFFFFFFFFFFFFF AND DUP2 MSTORE PUSH1 0x20 ADD PUSH1 0x1 DUP3 ADD PUSH1 0x0 SWAP1 SLOAD SWAP1 PUSH2 0x100 EXP SWAP1 DIV PUSH20 0xFFFFFFFFFFFFFFFFFFFFFFFFFFFFFFFFFFFFFFFF AND PUSH20 0xFFFFFFFFFFFFFFFFFFFFFFFFFFFFFFFFFFFFFFFF AND PUSH20 0xFFFFFFFFFFFFFFFFFFFFFFFFFFFFFFFFFFFFFFFF AND DUP2 MSTORE PUSH1 0x20 ADD PUSH1 0x2 DUP3 ADD PUSH1 0x0 SWAP1 SLOAD SWAP1 PUSH2 0x100 EXP SWAP1 DIV PUSH20 0xFFFFFFFFFFFFFFFFFFFFFFFFFFFFFFFFFFFFFFFF AND PUSH20 0xFFFFFFFFFFFFFFFFFFFFFFFFFFFFFFFFFFFFFFFF AND PUSH20 0xFFFFFFFFFFFFFFFFFFFFFFFFFFFFFFFFFFFFFFFF AND DUP2 MSTORE PUSH1 0x20 ADD PUSH1 0x3 DUP3 ADD SLOAD DUP2 MSTORE PUSH1 0x20 ADD PUSH1 0x4 DUP3 ADD SLOAD DUP2 MSTORE PUSH1 0x20 ADD PUSH1 0x5 DUP3 ADD SLOAD DUP2 MSTORE PUSH1 0x20 ADD PUSH1 0x6 DUP3 ADD SLOAD DUP2 MSTORE PUSH1 0x20 ADD PUSH1 0x7 DUP3 ADD SLOAD DUP2 MSTORE PUSH1 0x20 ADD PUSH1 0x8 DUP3 ADD PUSH1 0x0 SWAP1 SLOAD SWAP1 PUSH2 0x100 EXP SWAP1 DIV PUSH1 0xFF AND ISZERO ISZERO ISZERO ISZERO DUP2 MSTORE POP POP SWAP1 POP PUSH1 0x0 PUSH1 0x2 PUSH1 0x0 DUP6 DUP2 MSTORE PUSH1 0x20 ADD SWAP1 DUP2 MSTORE PUSH1 0x20 ADD PUSH1 0x0 KECCAK256 PUSH1 0x0 DUP4 PUSH1 0xE0 ADD MLOAD DUP2 MSTORE PUSH1 0x20 ADD SWAP1 DUP2 MSTORE PUSH1 0x20 ADD PUSH1 0x0 KECCAK256 PUSH1 0x40 MLOAD DUP1 PUSH1 0x60 ADD PUSH1 0x40 MSTORE SWAP1 DUP2 PUSH1 0x0 DUP3 ADD SLOAD DUP2 MSTORE PUSH1 0x20 ADD PUSH1 0x1 DUP3 ADD SLOAD DUP2 MSTORE PUSH1 0x20 ADD PUSH1 0x2 DUP3 ADD PUSH1 0x0 SWAP1 SLOAD SWAP1 PUSH2 0x100 EXP SWAP1 DIV PUSH20 0xFFFFFFFFFFFFFFFFFFFFFFFFFFFFFFFFFFFFFFFF AND PUSH20 0xFFFFFFFFFFFFFFFFFFFFFFFFFFFFFFFFFFFFFFFF AND PUSH20 0xFFFFFFFFFFFFFFFFFFFFFFFFFFFFFFFFFFFFFFFF AND DUP2 MSTORE POP POP SWAP1 POP PUSH1 0x0 PUSH2 0x1EFE DUP6 PUSH2 0x1C9A JUMP JUMPDEST ISZERO PUSH2 0x1F1E JUMPI DUP3 PUSH1 0xA0 ADD MLOAD DUP3 PUSH1 0x0 ADD MLOAD PUSH2 0x1F17 SWAP2 SWAP1 PUSH2 0x294B JUMP JUMPDEST SWAP1 POP PUSH2 0x1F31 JUMP JUMPDEST TIMESTAMP DUP3 PUSH1 0x0 ADD MLOAD PUSH2 0x1F2E SWAP2 SWAP1 PUSH2 0x294B JUMP JUMPDEST SWAP1 POP JUMPDEST PUSH4 0x1E13380 DUP2 PUSH8 0xDE0B6B3A7640000 DUP6 PUSH1 0xC0 ADD MLOAD DUP6 PUSH1 0x20 ADD MLOAD PUSH2 0x1F54 SWAP2 SWAP1 PUSH2 0x29EB JUMP JUMPDEST PUSH2 0x1F5E SWAP2 SWAP1 PUSH2 0x2A74 JUMP JUMPDEST PUSH2 0x1F68 SWAP2 SWAP1 PUSH2 0x29EB JUMP JUMPDEST PUSH2 0x1F72 SWAP2 SWAP1 PUSH2 0x2A74 JUMP JUMPDEST DUP3 PUSH1 0x20 ADD MLOAD PUSH2 0x1F81 SWAP2 SWAP1 PUSH2 0x2869 JUMP JUMPDEST SWAP4 POP POP POP POP SWAP2 SWAP1 POP JUMP JUMPDEST PUSH1 0x40 MLOAD DUP1 PUSH2 0x120 ADD PUSH1 0x40 MSTORE DUP1 PUSH1 0x0 PUSH20 0xFFFFFFFFFFFFFFFFFFFFFFFFFFFFFFFFFFFFFFFF AND DUP2 MSTORE PUSH1 0x20 ADD PUSH1 0x0 PUSH20 0xFFFFFFFFFFFFFFFFFFFFFFFFFFFFFFFFFFFFFFFF AND DUP2 MSTORE PUSH1 0x20 ADD PUSH1 0x0 PUSH20 0xFFFFFFFFFFFFFFFFFFFFFFFFFFFFFFFFFFFFFFFF AND DUP2 MSTORE PUSH1 0x20 ADD PUSH1 0x0 DUP2 MSTORE PUSH1 0x20 ADD PUSH1 0x0 DUP2 MSTORE PUSH1 0x20 ADD PUSH1 0x0 DUP2 MSTORE PUSH1 0x20 ADD PUSH1 0x0 DUP2 MSTORE PUSH1 0x20 ADD PUSH1 0x0 DUP2 MSTORE PUSH1 0x20 ADD PUSH1 0x0 ISZERO ISZERO DUP2 MSTORE POP SWAP1 JUMP JUMPDEST PUSH1 0x0 DUP2 SWAP1 POP SWAP2 SWAP1 POP JUMP JUMPDEST PUSH2 0x202E DUP2 PUSH2 0x201B JUMP JUMPDEST DUP3 MSTORE POP POP JUMP JUMPDEST PUSH1 0x0 PUSH1 0x20 DUP3 ADD SWAP1 POP PUSH2 0x2049 PUSH1 0x0 DUP4 ADD DUP5 PUSH2 0x2025 JUMP JUMPDEST SWAP3 SWAP2 POP POP JUMP JUMPDEST PUSH1 0x0 DUP1 REVERT JUMPDEST PUSH2 0x205D DUP2 PUSH2 0x201B JUMP JUMPDEST DUP2 EQ PUSH2 0x2068 JUMPI PUSH1 0x0 DUP1 REVERT JUMPDEST POP JUMP JUMPDEST PUSH1 0x0 DUP2 CALLDATALOAD SWAP1 POP PUSH2 0x207A DUP2 PUSH2 0x2054 JUMP JUMPDEST SWAP3 SWAP2 POP POP JUMP JUMPDEST PUSH1 0x0 PUSH1 0x20 DUP3 DUP5 SUB SLT ISZERO PUSH2 0x2096 JUMPI PUSH2 0x2095 PUSH2 0x204F JUMP JUMPDEST JUMPDEST PUSH1 0x0 PUSH2 0x20A4 DUP5 DUP3 DUP6 ADD PUSH2 0x206B JUMP JUMPDEST SWAP2 POP POP SWAP3 SWAP2 POP POP JUMP JUMPDEST PUSH1 0x0 PUSH20 0xFFFFFFFFFFFFFFFFFFFFFFFFFFFFFFFFFFFFFFFF DUP3 AND SWAP1 POP SWAP2 SWAP1 POP JUMP JUMPDEST PUSH1 0x0 PUSH2 0x20D8 DUP3 PUSH2 0x20AD JUMP JUMPDEST SWAP1 POP SWAP2 SWAP1 POP JUMP JUMPDEST PUSH2 0x20E8 DUP2 PUSH2 0x20CD JUMP JUMPDEST DUP2 EQ PUSH2 0x20F3 JUMPI PUSH1 0x0 DUP1 REVERT JUMPDEST POP JUMP JUMPDEST PUSH1 0x0 DUP2 CALLDATALOAD SWAP1 POP PUSH2 0x2105 DUP2 PUSH2 0x20DF JUMP JUMPDEST SWAP3 SWAP2 POP POP JUMP JUMPDEST PUSH1 0x0 DUP2 ISZERO ISZERO SWAP1 POP SWAP2 SWAP1 POP JUMP JUMPDEST PUSH2 0x2120 DUP2 PUSH2 0x210B JUMP JUMPDEST DUP2 EQ PUSH2 0x212B JUMPI PUSH1 0x0 DUP1 REVERT JUMPDEST POP JUMP JUMPDEST PUSH1 0x0 DUP2 CALLDATALOAD SWAP1 POP PUSH2 0x213D DUP2 PUSH2 0x2117 JUMP JUMPDEST SWAP3 SWAP2 POP POP JUMP JUMPDEST PUSH1 0x0 DUP1 PUSH1 0x0 DUP1 PUSH1 0x0 DUP1 PUSH1 0x0 PUSH1 0xE0 DUP9 DUP11 SUB SLT ISZERO PUSH2 0x2162 JUMPI PUSH2 0x2161 PUSH2 0x204F JUMP JUMPDEST JUMPDEST PUSH1 0x0 PUSH2 0x2170 DUP11 DUP3 DUP12 ADD PUSH2 0x20F6 JUMP JUMPDEST SWAP8 POP POP PUSH1 0x20 PUSH2 0x2181 DUP11 DUP3 DUP12 ADD PUSH2 0x20F6 JUMP JUMPDEST SWAP7 POP POP PUSH1 0x40 PUSH2 0x2192 DUP11 DUP3 DUP12 ADD PUSH2 0x206B JUMP JUMPDEST SWAP6 POP POP PUSH1 0x60 PUSH2 0x21A3 DUP11 DUP3 DUP12 ADD PUSH2 0x206B JUMP JUMPDEST SWAP5 POP POP PUSH1 0x80 PUSH2 0x21B4 DUP11 DUP3 DUP12 ADD PUSH2 0x206B JUMP JUMPDEST SWAP4 POP POP PUSH1 0xA0 PUSH2 0x21C5 DUP11 DUP3 DUP12 ADD PUSH2 0x206B JUMP JUMPDEST SWAP3 POP POP PUSH1 0xC0 PUSH2 0x21D6 DUP11 DUP3 DUP12 ADD PUSH2 0x212E JUMP JUMPDEST SWAP2 POP POP SWAP3 SWAP6 SWAP9 SWAP2 SWAP5 SWAP8 POP SWAP3 SWAP6 POP JUMP JUMPDEST PUSH1 0x0 DUP1 PUSH1 0x40 DUP4 DUP6 SUB SLT ISZERO PUSH2 0x21FC JUMPI PUSH2 0x21FB PUSH2 0x204F JUMP JUMPDEST JUMPDEST PUSH1 0x0 PUSH2 0x220A DUP6 DUP3 DUP7 ADD PUSH2 0x206B JUMP JUMPDEST SWAP3 POP POP PUSH1 0x20 PUSH2 0x221B DUP6 DUP3 DUP7 ADD PUSH2 0x206B JUMP JUMPDEST SWAP2 POP POP SWAP3 POP SWAP3 SWAP1 POP JUMP JUMPDEST PUSH2 0x222E DUP2 PUSH2 0x20CD JUMP JUMPDEST DUP3 MSTORE POP POP JUMP JUMPDEST PUSH1 0x0 PUSH1 0x60 DUP3 ADD SWAP1 POP PUSH2 0x2249 PUSH1 0x0 DUP4 ADD DUP7 PUSH2 0x2025 JUMP JUMPDEST PUSH2 0x2256 PUSH1 0x20 DUP4 ADD DUP6 PUSH2 0x2025 JUMP JUMPDEST PUSH2 0x2263 PUSH1 0x40 DUP4 ADD DUP5 PUSH2 0x2225 JUMP JUMPDEST SWAP5 SWAP4 POP POP POP POP JUMP JUMPDEST PUSH1 0x0 DUP1 PUSH1 0x40 DUP4 DUP6 SUB SLT ISZERO PUSH2 0x2282 JUMPI PUSH2 0x2281 PUSH2 0x204F JUMP JUMPDEST JUMPDEST PUSH1 0x0 PUSH2 0x2290 DUP6 DUP3 DUP7 ADD PUSH2 0x206B JUMP JUMPDEST SWAP3 POP POP PUSH1 0x20 PUSH2 0x22A1 DUP6 DUP3 DUP7 ADD PUSH2 0x20F6 JUMP JUMPDEST SWAP2 POP POP SWAP3 POP SWAP3 SWAP1 POP JUMP JUMPDEST PUSH2 0x22B4 DUP2 PUSH2 0x210B JUMP JUMPDEST DUP3 MSTORE POP POP JUMP JUMPDEST PUSH1 0x0 PUSH1 0x20 DUP3 ADD SWAP1 POP PUSH2 0x22CF PUSH1 0x0 DUP4 ADD DUP5 PUSH2 0x22AB JUMP JUMPDEST SWAP3 SWAP2 POP POP JUMP JUMPDEST PUSH1 0x0 PUSH2 0x120 DUP3 ADD SWAP1 POP PUSH2 0x22EB PUSH1 0x0 DUP4 ADD DUP13 PUSH2 0x2225 JUMP JUMPDEST PUSH2 0x22F8 PUSH1 0x20 DUP4 ADD DUP12 PUSH2 0x2225 JUMP JUMPDEST PUSH2 0x2305 PUSH1 0x40 DUP4 ADD DUP11 PUSH2 0x2225 JUMP JUMPDEST PUSH2 0x2312 PUSH1 0x60 DUP4 ADD DUP10 PUSH2 0x2025 JUMP JUMPDEST PUSH2 0x231F PUSH1 0x80 DUP4 ADD DUP9 PUSH2 0x2025 JUMP JUMPDEST PUSH2 0x232C PUSH1 0xA0 DUP4 ADD DUP8 PUSH2 0x2025 JUMP JUMPDEST PUSH2 0x2339 PUSH1 0xC0 DUP4 ADD DUP7 PUSH2 0x2025 JUMP JUMPDEST PUSH2 0x2346 PUSH1 0xE0 DUP4 ADD DUP6 PUSH2 0x2025 JUMP JUMPDEST PUSH2 0x2354 PUSH2 0x100 DUP4 ADD DUP5 PUSH2 0x22AB JUMP JUMPDEST SWAP11 SWAP10 POP POP POP POP POP POP POP POP POP POP JUMP JUMPDEST PUSH1 0x0 DUP1 PUSH1 0x0 PUSH1 0x60 DUP5 DUP7 SUB SLT ISZERO PUSH2 0x237B JUMPI PUSH2 0x237A PUSH2 0x204F JUMP JUMPDEST JUMPDEST PUSH1 0x0 PUSH2 0x2389 DUP7 DUP3 DUP8 ADD PUSH2 0x206B JUMP JUMPDEST SWAP4 POP POP PUSH1 0x20 PUSH2 0x239A DUP7 DUP3 DUP8 ADD PUSH2 0x20F6 JUMP JUMPDEST SWAP3 POP POP PUSH1 0x40 PUSH2 0x23AB DUP7 DUP3 DUP8 ADD PUSH2 0x212E JUMP JUMPDEST SWAP2 POP POP SWAP3 POP SWAP3 POP SWAP3 JUMP JUMPDEST PUSH1 0x0 DUP3 DUP3 MSTORE PUSH1 0x20 DUP3 ADD SWAP1 POP SWAP3 SWAP2 POP POP JUMP JUMPDEST PUSH32 0x4C414E3A206E6F74206F776E6572000000000000000000000000000000000000 PUSH1 0x0 DUP3 ADD MSTORE POP JUMP JUMPDEST PUSH1 0x0 PUSH2 0x23FC PUSH1 0xE DUP4 PUSH2 0x23B5 JUMP JUMPDEST SWAP2 POP PUSH2 0x2407 DUP3 PUSH2 0x23C6 JUMP JUMPDEST PUSH1 0x20 DUP3 ADD SWAP1 POP SWAP2 SWAP1 POP JUMP JUMPDEST PUSH1 0x0 PUSH1 0x20 DUP3 ADD SWAP1 POP DUP2 DUP2 SUB PUSH1 0x0 DUP4 ADD MSTORE PUSH2 0x242B DUP2 PUSH2 0x23EF JUMP JUMPDEST SWAP1 POP SWAP2 SWAP1 POP JUMP JUMPDEST PUSH32 0x4C414E3A206E6F74206C61746573742062696464657200000000000000000000 PUSH1 0x0 DUP3 ADD MSTORE POP JUMP JUMPDEST PUSH1 0x0 PUSH2 0x2468 PUSH1 0x16 DUP4 PUSH2 0x23B5 JUMP JUMPDEST SWAP2 POP PUSH2 0x2473 DUP3 PUSH2 0x2432 JUMP JUMPDEST PUSH1 0x20 DUP3 ADD SWAP1 POP SWAP2 SWAP1 POP JUMP JUMPDEST PUSH1 0x0 PUSH1 0x20 DUP3 ADD SWAP1 POP DUP2 DUP2 SUB PUSH1 0x0 DUP4 ADD MSTORE PUSH2 0x2497 DUP2 PUSH2 0x245B JUMP JUMPDEST SWAP1 POP SWAP2 SWAP1 POP JUMP JUMPDEST PUSH1 0x0 PUSH1 0x60 DUP3 ADD SWAP1 POP PUSH2 0x24B3 PUSH1 0x0 DUP4 ADD DUP7 PUSH2 0x2225 JUMP JUMPDEST PUSH2 0x24C0 PUSH1 0x20 DUP4 ADD DUP6 PUSH2 0x2225 JUMP JUMPDEST PUSH2 0x24CD PUSH1 0x40 DUP4 ADD DUP5 PUSH2 0x2025 JUMP JUMPDEST SWAP5 SWAP4 POP POP POP POP JUMP JUMPDEST PUSH32 0x4C414E3A2073746172742074696D6520696E2070617374000000000000000000 PUSH1 0x0 DUP3 ADD MSTORE POP JUMP JUMPDEST PUSH1 0x0 PUSH2 0x250B PUSH1 0x17 DUP4 PUSH2 0x23B5 JUMP JUMPDEST SWAP2 POP PUSH2 0x2516 DUP3 PUSH2 0x24D5 JUMP JUMPDEST PUSH1 0x20 DUP3 ADD SWAP1 POP SWAP2 SWAP1 POP JUMP JUMPDEST PUSH1 0x0 PUSH1 0x20 DUP3 ADD SWAP1 POP DUP2 DUP2 SUB PUSH1 0x0 DUP4 ADD MSTORE PUSH2 0x253A DUP2 PUSH2 0x24FE JUMP JUMPDEST SWAP1 POP SWAP2 SWAP1 POP JUMP JUMPDEST PUSH32 0x4C414E3A20737461727420616674657220656E64000000000000000000000000 PUSH1 0x0 DUP3 ADD MSTORE POP JUMP JUMPDEST PUSH1 0x0 PUSH2 0x2577 PUSH1 0x14 DUP4 PUSH2 0x23B5 JUMP JUMPDEST SWAP2 POP PUSH2 0x2582 DUP3 PUSH2 0x2541 JUMP JUMPDEST PUSH1 0x20 DUP3 ADD SWAP1 POP SWAP2 SWAP1 POP JUMP JUMPDEST PUSH1 0x0 PUSH1 0x20 DUP3 ADD SWAP1 POP DUP2 DUP2 SUB PUSH1 0x0 DUP4 ADD MSTORE PUSH2 0x25A6 DUP2 PUSH2 0x256A JUMP JUMPDEST SWAP1 POP SWAP2 SWAP1 POP JUMP JUMPDEST PUSH1 0x0 PUSH1 0x40 DUP3 ADD SWAP1 POP PUSH2 0x25C2 PUSH1 0x0 DUP4 ADD DUP6 PUSH2 0x2225 JUMP JUMPDEST PUSH2 0x25CF PUSH1 0x20 DUP4 ADD DUP5 PUSH2 0x2025 JUMP JUMPDEST SWAP4 SWAP3 POP POP POP JUMP JUMPDEST PUSH32 0x4E487B7100000000000000000000000000000000000000000000000000000000 PUSH1 0x0 MSTORE PUSH1 0x11 PUSH1 0x4 MSTORE PUSH1 0x24 PUSH1 0x0 REVERT JUMPDEST PUSH1 0x0 PUSH2 0x2610 DUP3 PUSH2 0x201B JUMP JUMPDEST SWAP2 POP PUSH32 0xFFFFFFFFFFFFFFFFFFFFFFFFFFFFFFFFFFFFFFFFFFFFFFFFFFFFFFFFFFFFFFFF DUP3 SUB PUSH2 0x2642 JUMPI PUSH2 0x2641 PUSH2 0x25D6 JUMP JUMPDEST JUMPDEST PUSH1 0x1 DUP3 ADD SWAP1 POP SWAP2 SWAP1 POP JUMP JUMPDEST PUSH32 0x4C414E3A20616C72656164792073746172746564000000000000000000000000 PUSH1 0x0 DUP3 ADD MSTORE POP JUMP JUMPDEST PUSH1 0x0 PUSH2 0x2683 PUSH1 0x14 DUP4 PUSH2 0x23B5 JUMP JUMPDEST SWAP2 POP PUSH2 0x268E DUP3 PUSH2 0x264D JUMP JUMPDEST PUSH1 0x20 DUP3 ADD SWAP1 POP SWAP2 SWAP1 POP JUMP JUMPDEST PUSH1 0x0 PUSH1 0x20 DUP3 ADD SWAP1 POP DUP2 DUP2 SUB PUSH1 0x0 DUP4 ADD MSTORE PUSH2 0x26B2 DUP2 PUSH2 0x2676 JUMP JUMPDEST SWAP1 POP SWAP2 SWAP1 POP JUMP JUMPDEST PUSH32 0x4C414E3A206C6F616E206E6F7420656E64656400000000000000000000000000 PUSH1 0x0 DUP3 ADD MSTORE POP JUMP JUMPDEST PUSH1 0x0 PUSH2 0x26EF PUSH1 0x13 DUP4 PUSH2 0x23B5 JUMP JUMPDEST SWAP2 POP PUSH2 0x26FA DUP3 PUSH2 0x26B9 JUMP JUMPDEST PUSH1 0x20 DUP3 ADD SWAP1 POP SWAP2 SWAP1 POP JUMP JUMPDEST PUSH1 0x0 PUSH1 0x20 DUP3 ADD SWAP1 POP DUP2 DUP2 SUB PUSH1 0x0 DUP4 ADD MSTORE PUSH2 0x271E DUP2 PUSH2 0x26E2 JUMP JUMPDEST SWAP1 POP SWAP2 SWAP1 POP JUMP JUMPDEST PUSH32 0x4C414E3A206E6F74207374617274656400000000000000000000000000000000 PUSH1 0x0 DUP3 ADD MSTORE POP JUMP JUMPDEST PUSH1 0x0 PUSH2 0x275B PUSH1 0x10 DUP4 PUSH2 0x23B5 JUMP JUMPDEST SWAP2 POP PUSH2 0x2766 DUP3 PUSH2 0x2725 JUMP JUMPDEST PUSH1 0x20 DUP3 ADD SWAP1 POP SWAP2 SWAP1 POP JUMP JUMPDEST PUSH1 0x0 PUSH1 0x20 DUP3 ADD SWAP1 POP DUP2 DUP2 SUB PUSH1 0x0 DUP4 ADD MSTORE PUSH2 0x278A DUP2 PUSH2 0x274E JUMP JUMPDEST SWAP1 POP SWAP2 SWAP1 POP JUMP JUMPDEST PUSH32 0x4C414E3A20616C726561647920656E6465640000000000000000000000000000 PUSH1 0x0 DUP3 ADD MSTORE POP JUMP JUMPDEST PUSH1 0x0 PUSH2 0x27C7 PUSH1 0x12 DUP4 PUSH2 0x23B5 JUMP JUMPDEST SWAP2 POP PUSH2 0x27D2 DUP3 PUSH2 0x2791 JUMP JUMPDEST PUSH1 0x20 DUP3 ADD SWAP1 POP SWAP2 SWAP1 POP JUMP JUMPDEST PUSH1 0x0 PUSH1 0x20 DUP3 ADD SWAP1 POP DUP2 DUP2 SUB PUSH1 0x0 DUP4 ADD MSTORE PUSH2 0x27F6 DUP2 PUSH2 0x27BA JUMP JUMPDEST SWAP1 POP SWAP2 SWAP1 POP JUMP JUMPDEST PUSH32 0x4C414E3A204E6F742057686974656C6973746564000000000000000000000000 PUSH1 0x0 DUP3 ADD MSTORE POP JUMP JUMPDEST PUSH1 0x0 PUSH2 0x2833 PUSH1 0x14 DUP4 PUSH2 0x23B5 JUMP JUMPDEST SWAP2 POP PUSH2 0x283E DUP3 PUSH2 0x27FD JUMP JUMPDEST PUSH1 0x20 DUP3 ADD SWAP1 POP SWAP2 SWAP1 POP JUMP JUMPDEST PUSH1 0x0 PUSH1 0x20 DUP3 ADD SWAP1 POP DUP2 DUP2 SUB PUSH1 0x0 DUP4 ADD MSTORE PUSH2 0x2862 DUP2 PUSH2 0x2826 JUMP JUMPDEST SWAP1 POP SWAP2 SWAP1 POP JUMP JUMPDEST PUSH1 0x0 PUSH2 0x2874 DUP3 PUSH2 0x201B JUMP JUMPDEST SWAP2 POP PUSH2 0x287F DUP4 PUSH2 0x201B JUMP JUMPDEST SWAP3 POP DUP3 DUP3 ADD SWAP1 POP DUP1 DUP3 GT ISZERO PUSH2 0x2897 JUMPI PUSH2 0x2896 PUSH2 0x25D6 JUMP JUMPDEST JUMPDEST SWAP3 SWAP2 POP POP JUMP JUMPDEST PUSH32 0x4C414E3A20626964206E6F742068696768657200000000000000000000000000 PUSH1 0x0 DUP3 ADD MSTORE POP JUMP JUMPDEST PUSH1 0x0 PUSH2 0x28D3 PUSH1 0x13 DUP4 PUSH2 0x23B5 JUMP JUMPDEST SWAP2 POP PUSH2 0x28DE DUP3 PUSH2 0x289D JUMP JUMPDEST PUSH1 0x20 DUP3 ADD SWAP1 POP SWAP2 SWAP1 POP JUMP JUMPDEST PUSH1 0x0 PUSH1 0x20 DUP3 ADD SWAP1 POP DUP2 DUP2 SUB PUSH1 0x0 DUP4 ADD MSTORE PUSH2 0x2902 DUP2 PUSH2 0x28C6 JUMP JUMPDEST SWAP1 POP SWAP2 SWAP1 POP JUMP JUMPDEST PUSH1 0x0 DUP2 MLOAD SWAP1 POP PUSH2 0x2918 DUP2 PUSH2 0x2117 JUMP JUMPDEST SWAP3 SWAP2 POP POP JUMP JUMPDEST PUSH1 0x0 PUSH1 0x20 DUP3 DUP5 SUB SLT ISZERO PUSH2 0x2934 JUMPI PUSH2 0x2933 PUSH2 0x204F JUMP JUMPDEST JUMPDEST PUSH1 0x0 PUSH2 0x2942 DUP5 DUP3 DUP6 ADD PUSH2 0x2909 JUMP JUMPDEST SWAP2 POP POP SWAP3 SWAP2 POP POP JUMP JUMPDEST PUSH1 0x0 PUSH2 0x2956 DUP3 PUSH2 0x201B JUMP JUMPDEST SWAP2 POP PUSH2 0x2961 DUP4 PUSH2 0x201B JUMP JUMPDEST SWAP3 POP DUP3 DUP3 SUB SWAP1 POP DUP2 DUP2 GT ISZERO PUSH2 0x2979 JUMPI PUSH2 0x2978 PUSH2 0x25D6 JUMP JUMPDEST JUMPDEST SWAP3 SWAP2 POP POP JUMP JUMPDEST PUSH32 0x4C414E3A204E6F7420746865206C617465737420626964646572000000000000 PUSH1 0x0 DUP3 ADD MSTORE POP JUMP JUMPDEST PUSH1 0x0 PUSH2 0x29B5 PUSH1 0x1A DUP4 PUSH2 0x23B5 JUMP JUMPDEST SWAP2 POP PUSH2 0x29C0 DUP3 PUSH2 0x297F JUMP JUMPDEST PUSH1 0x20 DUP3 ADD SWAP1 POP SWAP2 SWAP1 POP JUMP JUMPDEST PUSH1 0x0 PUSH1 0x20 DUP3 ADD SWAP1 POP DUP2 DUP2 SUB PUSH1 0x0 DUP4 ADD MSTORE PUSH2 0x29E4 DUP2 PUSH2 0x29A8 JUMP JUMPDEST SWAP1 POP SWAP2 SWAP1 POP JUMP JUMPDEST PUSH1 0x0 PUSH2 0x29F6 DUP3 PUSH2 0x201B JUMP JUMPDEST SWAP2 POP PUSH2 0x2A01 DUP4 PUSH2 0x201B JUMP JUMPDEST SWAP3 POP DUP2 PUSH32 0xFFFFFFFFFFFFFFFFFFFFFFFFFFFFFFFFFFFFFFFFFFFFFFFFFFFFFFFFFFFFFFFF DIV DUP4 GT DUP3 ISZERO ISZERO AND ISZERO PUSH2 0x2A3A JUMPI PUSH2 0x2A39 PUSH2 0x25D6 JUMP JUMPDEST JUMPDEST DUP3 DUP3 MUL SWAP1 POP SWAP3 SWAP2 POP POP JUMP JUMPDEST PUSH32 0x4E487B7100000000000000000000000000000000000000000000000000000000 PUSH1 0x0 MSTORE PUSH1 0x12 PUSH1 0x4 MSTORE PUSH1 0x24 PUSH1 0x0 REVERT JUMPDEST PUSH1 0x0 PUSH2 0x2A7F DUP3 PUSH2 0x201B JUMP JUMPDEST SWAP2 POP PUSH2 0x2A8A DUP4 PUSH2 0x201B JUMP JUMPDEST SWAP3 POP DUP3 PUSH2 0x2A9A JUMPI PUSH2 0x2A99 PUSH2 0x2A45 JUMP JUMPDEST JUMPDEST DUP3 DUP3 DIV SWAP1 POP SWAP3 SWAP2 POP POP JUMP INVALID LOG2 PUSH5 0x6970667358 0x22 SLT KECCAK256 0xBF 0xDA 0xBF 0xC7 SWAP9 0xB8 0xEA 0x4F CALL CODESIZE POP PUSH31 0xA267839B4979708FAC856A88E75C13EECDFFDA4764736F6C63430008100033 "
				},
				"gasEstimates": {
					"creation": {
						"codeDepositCost": "2194200",
						"executionCost": "2338",
						"totalCost": "2196538"
					},
					"external": {
						"bid(uint256,uint256)": "infinite",
						"bids(uint256,uint256)": "infinite",
						"cancel(uint256)": "infinite",
						"changeWhitelist(uint256,address,bool)": "25349",
						"count()": "2430",
						"endLoan(uint256)": "infinite",
						"launch(address,address,uint256,uint256,uint256,uint256,bool)": "infinite",
						"liquidate(uint256)": "infinite",
						"liquidateEarly(uint256)": "infinite",
						"loans(uint256)": "infinite",
						"setNewBidOwner(uint256,address)": "51230",
						"whitelistedAddresses(uint256,address)": "3153"
					},
					"internal": {
						"_calculateLoanValue(uint256)": "infinite",
						"_ended(uint256)": "2226",
						"_started(uint256)": "2223"
					}
				},
				"methodIdentifiers": {
					"bid(uint256,uint256)": "598647f8",
					"bids(uint256,uint256)": "7b3c4baa",
					"cancel(uint256)": "40e58ee5",
					"changeWhitelist(uint256,address,bool)": "f724e48e",
					"count()": "06661abd",
					"endLoan(uint256)": "7870860b",
					"launch(address,address,uint256,uint256,uint256,uint256,bool)": "2613c5d6",
					"liquidate(uint256)": "415f1240",
					"liquidateEarly(uint256)": "18de4f9d",
					"loans(uint256)": "e1ec3c68",
					"setNewBidOwner(uint256,address)": "8f769f3a",
					"whitelistedAddresses(uint256,address)": "a23b02bd"
				}
			},
			"storageLayout": {
				"storage": [
					{
						"astId": 223,
						"contract": "main.sol:LAN",
						"label": "count",
						"offset": 0,
						"slot": "0",
						"type": "t_uint256"
					},
					{
						"astId": 247,
						"contract": "main.sol:LAN",
						"label": "loans",
						"offset": 0,
						"slot": "1",
						"type": "t_mapping(t_uint256,t_struct(Loan)242_storage)"
					},
					{
						"astId": 261,
						"contract": "main.sol:LAN",
						"label": "bids",
						"offset": 0,
						"slot": "2",
						"type": "t_mapping(t_uint256,t_mapping(t_uint256,t_struct(Bid)254_storage))"
					},
					{
						"astId": 267,
						"contract": "main.sol:LAN",
						"label": "whitelistedAddresses",
						"offset": 0,
						"slot": "3",
						"type": "t_mapping(t_uint256,t_mapping(t_address,t_bool))"
					}
				],
				"types": {
					"t_address": {
						"encoding": "inplace",
						"label": "address",
						"numberOfBytes": "20"
					},
					"t_bool": {
						"encoding": "inplace",
						"label": "bool",
						"numberOfBytes": "1"
					},
					"t_mapping(t_address,t_bool)": {
						"encoding": "mapping",
						"key": "t_address",
						"label": "mapping(address => bool)",
						"numberOfBytes": "32",
						"value": "t_bool"
					},
					"t_mapping(t_uint256,t_mapping(t_address,t_bool))": {
						"encoding": "mapping",
						"key": "t_uint256",
						"label": "mapping(uint256 => mapping(address => bool))",
						"numberOfBytes": "32",
						"value": "t_mapping(t_address,t_bool)"
					},
					"t_mapping(t_uint256,t_mapping(t_uint256,t_struct(Bid)254_storage))": {
						"encoding": "mapping",
						"key": "t_uint256",
						"label": "mapping(uint256 => mapping(uint256 => struct LAN.Bid))",
						"numberOfBytes": "32",
						"value": "t_mapping(t_uint256,t_struct(Bid)254_storage)"
					},
					"t_mapping(t_uint256,t_struct(Bid)254_storage)": {
						"encoding": "mapping",
						"key": "t_uint256",
						"label": "mapping(uint256 => struct LAN.Bid)",
						"numberOfBytes": "32",
						"value": "t_struct(Bid)254_storage"
					},
					"t_mapping(t_uint256,t_struct(Loan)242_storage)": {
						"encoding": "mapping",
						"key": "t_uint256",
						"label": "mapping(uint256 => struct LAN.Loan)",
						"numberOfBytes": "32",
						"value": "t_struct(Loan)242_storage"
					},
					"t_struct(Bid)254_storage": {
						"encoding": "inplace",
						"label": "struct LAN.Bid",
						"members": [
							{
								"astId": 249,
								"contract": "main.sol:LAN",
								"label": "bidTime",
								"offset": 0,
								"slot": "0",
								"type": "t_uint256"
							},
							{
								"astId": 251,
								"contract": "main.sol:LAN",
								"label": "bidAmount",
								"offset": 0,
								"slot": "1",
								"type": "t_uint256"
							},
							{
								"astId": 253,
								"contract": "main.sol:LAN",
								"label": "user",
								"offset": 0,
								"slot": "2",
								"type": "t_address"
							}
						],
						"numberOfBytes": "96"
					},
					"t_struct(Loan)242_storage": {
						"encoding": "inplace",
						"label": "struct LAN.Loan",
						"members": [
							{
								"astId": 225,
								"contract": "main.sol:LAN",
								"label": "owner",
								"offset": 0,
								"slot": "0",
								"type": "t_address"
							},
							{
								"astId": 227,
								"contract": "main.sol:LAN",
								"label": "token",
								"offset": 0,
								"slot": "1",
								"type": "t_address"
							},
							{
								"astId": 229,
								"contract": "main.sol:LAN",
								"label": "collectionAddress",
								"offset": 0,
								"slot": "2",
								"type": "t_address"
							},
							{
								"astId": 231,
								"contract": "main.sol:LAN",
								"label": "nftId",
								"offset": 0,
								"slot": "3",
								"type": "t_uint256"
							},
							{
								"astId": 233,
								"contract": "main.sol:LAN",
								"label": "startTime",
								"offset": 0,
								"slot": "4",
								"type": "t_uint256"
							},
							{
								"astId": 235,
								"contract": "main.sol:LAN",
								"label": "endTime",
								"offset": 0,
								"slot": "5",
								"type": "t_uint256"
							},
							{
								"astId": 237,
								"contract": "main.sol:LAN",
								"label": "apr",
								"offset": 0,
								"slot": "6",
								"type": "t_uint256"
							},
							{
								"astId": 239,
								"contract": "main.sol:LAN",
								"label": "numBids",
								"offset": 0,
								"slot": "7",
								"type": "t_uint256"
							},
							{
								"astId": 241,
								"contract": "main.sol:LAN",
								"label": "whitelisted",
								"offset": 0,
								"slot": "8",
								"type": "t_bool"
							}
						],
						"numberOfBytes": "288"
					},
					"t_uint256": {
						"encoding": "inplace",
						"label": "uint256",
						"numberOfBytes": "32"
					}
				}
			},
			"userdoc": {
				"kind": "user",
				"methods": {},
				"version": 1
			}
		}
	}
}