{
	"main.sol": {
		"LAN": {
			"abi": [
				{
					"anonymous": false,
					"inputs": [
						{
							"indexed": false,
							"internalType": "uint256",
							"name": "Id",
							"type": "uint256"
						}
					],
					"name": "loanCancelled",
					"type": "event"
				},
				{
					"anonymous": false,
					"inputs": [
						{
							"indexed": true,
							"internalType": "uint256",
							"name": "poolId",
							"type": "uint256"
						},
						{
							"indexed": false,
							"internalType": "address",
							"name": "collectionAddress",
							"type": "address"
						},
						{
							"indexed": false,
							"internalType": "uint256",
							"name": "nftId",
							"type": "uint256"
						}
					],
					"name": "newPool",
					"type": "event"
				},
				{
					"inputs": [
						{
							"internalType": "uint256",
							"name": "_poolId",
							"type": "uint256"
						},
						{
							"internalType": "address[]",
							"name": "_addys",
							"type": "address[]"
						}
					],
					"name": "addNewWhitelist",
					"outputs": [],
					"stateMutability": "nonpayable",
					"type": "function"
				},
				{
					"inputs": [
						{
							"internalType": "uint256",
							"name": "_poolId",
							"type": "uint256"
						},
						{
							"internalType": "uint256",
							"name": "_amount",
							"type": "uint256"
						}
					],
					"name": "bid",
					"outputs": [],
					"stateMutability": "nonpayable",
					"type": "function"
				},
				{
					"inputs": [
						{
							"internalType": "uint256",
							"name": "",
							"type": "uint256"
						},
						{
							"internalType": "uint256",
							"name": "",
							"type": "uint256"
						}
					],
					"name": "bids",
					"outputs": [
						{
							"internalType": "uint256",
							"name": "bidTime",
							"type": "uint256"
						},
						{
							"internalType": "uint256",
							"name": "bidAmount",
							"type": "uint256"
						},
						{
							"internalType": "address",
							"name": "user",
							"type": "address"
						}
					],
					"stateMutability": "view",
					"type": "function"
				},
				{
					"inputs": [
						{
							"internalType": "uint256",
							"name": "_poolId",
							"type": "uint256"
						}
					],
					"name": "cancel",
					"outputs": [],
					"stateMutability": "nonpayable",
					"type": "function"
				},
				{
					"inputs": [],
					"name": "count",
					"outputs": [
						{
							"internalType": "uint256",
							"name": "",
							"type": "uint256"
						}
					],
					"stateMutability": "view",
					"type": "function"
				},
				{
					"inputs": [
						{
							"internalType": "uint256",
							"name": "_poolId",
							"type": "uint256"
						}
					],
					"name": "endLoan",
					"outputs": [],
					"stateMutability": "nonpayable",
					"type": "function"
				},
				{
					"inputs": [
						{
							"internalType": "address",
							"name": "_token",
							"type": "address"
						},
						{
							"internalType": "address",
							"name": "_collectionAddress",
							"type": "address"
						},
						{
							"internalType": "uint256",
							"name": "_nftId",
							"type": "uint256"
						},
						{
							"internalType": "uint256",
							"name": "_startTime",
							"type": "uint256"
						},
						{
							"internalType": "uint256",
							"name": "_endTime",
							"type": "uint256"
						},
						{
							"internalType": "uint256",
							"name": "_apr",
							"type": "uint256"
						},
						{
							"internalType": "bool",
							"name": "_whitelisted",
							"type": "bool"
						}
					],
					"name": "launch",
					"outputs": [],
					"stateMutability": "nonpayable",
					"type": "function"
				},
				{
					"inputs": [
						{
							"internalType": "uint256",
							"name": "_poolId",
							"type": "uint256"
						}
					],
					"name": "liquidate",
					"outputs": [],
					"stateMutability": "nonpayable",
					"type": "function"
				},
				{
					"inputs": [
						{
							"internalType": "uint256",
							"name": "_poolId",
							"type": "uint256"
						}
					],
					"name": "liquidateEarly",
					"outputs": [],
					"stateMutability": "nonpayable",
					"type": "function"
				},
				{
					"inputs": [
						{
							"internalType": "uint256",
							"name": "",
							"type": "uint256"
						}
					],
					"name": "loans",
					"outputs": [
						{
							"internalType": "address",
							"name": "owner",
							"type": "address"
						},
						{
							"internalType": "address",
							"name": "token",
							"type": "address"
						},
						{
							"internalType": "address",
							"name": "collectionAddress",
							"type": "address"
						},
						{
							"internalType": "uint256",
							"name": "nftId",
							"type": "uint256"
						},
						{
							"internalType": "uint256",
							"name": "startTime",
							"type": "uint256"
						},
						{
							"internalType": "uint256",
							"name": "endTime",
							"type": "uint256"
						},
						{
							"internalType": "uint256",
							"name": "apr",
							"type": "uint256"
						},
						{
							"internalType": "uint256",
							"name": "numBids",
							"type": "uint256"
						},
						{
							"internalType": "bool",
							"name": "whitelisted",
							"type": "bool"
						}
					],
					"stateMutability": "view",
					"type": "function"
				},
				{
					"inputs": [
						{
							"internalType": "uint256",
							"name": "_poolId",
							"type": "uint256"
						},
						{
							"internalType": "address",
							"name": "_newAddress",
							"type": "address"
						}
					],
					"name": "setNewBidOwner",
					"outputs": [],
					"stateMutability": "nonpayable",
					"type": "function"
				},
				{
					"inputs": [
						{
							"internalType": "uint256",
							"name": "",
							"type": "uint256"
						},
						{
							"internalType": "uint256",
							"name": "",
							"type": "uint256"
						}
					],
					"name": "whitelistedAddresses",
					"outputs": [
						{
							"internalType": "address",
							"name": "",
							"type": "address"
						}
					],
					"stateMutability": "view",
					"type": "function"
				}
			],
			"devdoc": {
				"kind": "dev",
				"methods": {},
				"version": 1
			},
			"evm": {
				"assembly": "    /* \"main.sol\":142:6344  contract LAN{... */\n  mstore(0x40, 0x80)\n  callvalue\n  dup1\n  iszero\n  tag_1\n  jumpi\n  0x00\n  dup1\n  revert\ntag_1:\n  pop\n  dataSize(sub_0)\n  dup1\n  dataOffset(sub_0)\n  0x00\n  codecopy\n  0x00\n  return\nstop\n\nsub_0: assembly {\n        /* \"main.sol\":142:6344  contract LAN{... */\n      mstore(0x40, 0x80)\n      callvalue\n      dup1\n      iszero\n      tag_1\n      jumpi\n      0x00\n      dup1\n      revert\n    tag_1:\n      pop\n      jumpi(tag_2, lt(calldatasize, 0x04))\n      shr(0xe0, calldataload(0x00))\n      dup1\n      0x7870860b\n      gt\n      tag_15\n      jumpi\n      dup1\n      0x7870860b\n      eq\n      tag_9\n      jumpi\n      dup1\n      0x7b3c4baa\n      eq\n      tag_10\n      jumpi\n      dup1\n      0x8f17aa2d\n      eq\n      tag_11\n      jumpi\n      dup1\n      0x8f769f3a\n      eq\n      tag_12\n      jumpi\n      dup1\n      0x9bea77da\n      eq\n      tag_13\n      jumpi\n      dup1\n      0xe1ec3c68\n      eq\n      tag_14\n      jumpi\n      jump(tag_2)\n    tag_15:\n      dup1\n      0x06661abd\n      eq\n      tag_3\n      jumpi\n      dup1\n      0x18de4f9d\n      eq\n      tag_4\n      jumpi\n      dup1\n      0x2613c5d6\n      eq\n      tag_5\n      jumpi\n      dup1\n      0x40e58ee5\n      eq\n      tag_6\n      jumpi\n      dup1\n      0x415f1240\n      eq\n      tag_7\n      jumpi\n      dup1\n      0x598647f8\n      eq\n      tag_8\n      jumpi\n    tag_2:\n      0x00\n      dup1\n      revert\n        /* \"main.sol\":313:333  uint256 public count */\n    tag_3:\n      tag_16\n      tag_17\n      jump\t// in\n    tag_16:\n      mload(0x40)\n      tag_18\n      swap2\n      swap1\n      tag_19\n      jump\t// in\n    tag_18:\n      mload(0x40)\n      dup1\n      swap2\n      sub\n      swap1\n      return\n        /* \"main.sol\":5048:5509  function liquidateEarly(uint256 _poolId) external onlyOwner(_poolId) {... */\n    tag_4:\n      tag_20\n      0x04\n      dup1\n      calldatasize\n      sub\n      dup2\n      add\n      swap1\n      tag_21\n      swap2\n      swap1\n      tag_22\n      jump\t// in\n    tag_21:\n      tag_23\n      jump\t// in\n    tag_20:\n      stop\n        /* \"main.sol\":1269:2022  function launch(address _token, address _collectionAddress, uint256 _nftId, uint256 _startTime, uint256 _endTime, uint256 _apr, bool _whitelisted) public {... */\n    tag_5:\n      tag_24\n      0x04\n      dup1\n      calldatasize\n      sub\n      dup2\n      add\n      swap1\n      tag_25\n      swap2\n      swap1\n      tag_26\n      jump\t// in\n    tag_25:\n      tag_27\n      jump\t// in\n    tag_24:\n      stop\n        /* \"main.sol\":3625:3869  function cancel(uint256 _poolId) external onlyOwner(_poolId) {... */\n    tag_6:\n      tag_28\n      0x04\n      dup1\n      calldatasize\n      sub\n      dup2\n      add\n      swap1\n      tag_29\n      swap2\n      swap1\n      tag_22\n      jump\t// in\n    tag_29:\n      tag_30\n      jump\t// in\n    tag_28:\n      stop\n        /* \"main.sol\":4439:4872  function liquidate(uint256 _poolId) external {... */\n    tag_7:\n      tag_31\n      0x04\n      dup1\n      calldatasize\n      sub\n      dup2\n      add\n      swap1\n      tag_32\n      swap2\n      swap1\n      tag_22\n      jump\t// in\n    tag_32:\n      tag_33\n      jump\t// in\n    tag_31:\n      stop\n        /* \"main.sol\":2028:2934  function bid(uint256 _poolId, uint256 _amount) external {... */\n    tag_8:\n      tag_34\n      0x04\n      dup1\n      calldatasize\n      sub\n      dup2\n      add\n      swap1\n      tag_35\n      swap2\n      swap1\n      tag_36\n      jump\t// in\n    tag_35:\n      tag_37\n      jump\t// in\n    tag_34:\n      stop\n        /* \"main.sol\":3908:4385  function endLoan(uint256 _poolId) external onlyOwner(_poolId) {... */\n    tag_9:\n      tag_38\n      0x04\n      dup1\n      calldatasize\n      sub\n      dup2\n      add\n      swap1\n      tag_39\n      swap2\n      swap1\n      tag_22\n      jump\t// in\n    tag_39:\n      tag_40\n      jump\t// in\n    tag_38:\n      stop\n        /* \"main.sol\":872:927  mapping(uint256 => mapping(uint256 => Bid)) public bids */\n    tag_10:\n      tag_41\n      0x04\n      dup1\n      calldatasize\n      sub\n      dup2\n      add\n      swap1\n      tag_42\n      swap2\n      swap1\n      tag_36\n      jump\t// in\n    tag_42:\n      tag_43\n      jump\t// in\n    tag_41:\n      mload(0x40)\n      tag_44\n      swap4\n      swap3\n      swap2\n      swap1\n      tag_45\n      jump\t// in\n    tag_44:\n      mload(0x40)\n      dup1\n      swap2\n      sub\n      swap1\n      return\n        /* \"main.sol\":3492:3578  function addNewWhitelist(uint256 _poolId, address[] calldata _addys) external {... */\n    tag_11:\n      tag_46\n      0x04\n      dup1\n      calldatasize\n      sub\n      dup2\n      add\n      swap1\n      tag_47\n      swap2\n      swap1\n      tag_48\n      jump\t// in\n    tag_47:\n      tag_49\n      jump\t// in\n    tag_46:\n      stop\n        /* \"main.sol\":3075:3486  function setNewBidOwner(uint256 _poolId, address _newAddress) external {... */\n    tag_12:\n      tag_50\n      0x04\n      dup1\n      calldatasize\n      sub\n      dup2\n      add\n      swap1\n      tag_51\n      swap2\n      swap1\n      tag_52\n      jump\t// in\n    tag_51:\n      tag_53\n      jump\t// in\n    tag_50:\n      stop\n        /* \"main.sol\":1009:1066  mapping(uint256 => address[]) public whitelistedAddresses */\n    tag_13:\n      tag_54\n      0x04\n      dup1\n      calldatasize\n      sub\n      dup2\n      add\n      swap1\n      tag_55\n      swap2\n      swap1\n      tag_36\n      jump\t// in\n    tag_55:\n      tag_56\n      jump\t// in\n    tag_54:\n      mload(0x40)\n      tag_57\n      swap2\n      swap1\n      tag_58\n      jump\t// in\n    tag_57:\n      mload(0x40)\n      dup1\n      swap2\n      sub\n      swap1\n      return\n        /* \"main.sol\":708:745  mapping(uint256 => Loan) public loans */\n    tag_14:\n      tag_59\n      0x04\n      dup1\n      calldatasize\n      sub\n      dup2\n      add\n      swap1\n      tag_60\n      swap2\n      swap1\n      tag_22\n      jump\t// in\n    tag_60:\n      tag_61\n      jump\t// in\n    tag_59:\n      mload(0x40)\n      tag_62\n      swap10\n      swap9\n      swap8\n      swap7\n      swap6\n      swap5\n      swap4\n      swap3\n      swap2\n      swap1\n      tag_63\n      jump\t// in\n    tag_62:\n      mload(0x40)\n      dup1\n      swap2\n      sub\n      swap1\n      return\n        /* \"main.sol\":313:333  uint256 public count */\n    tag_17:\n      sload(0x00)\n      dup2\n      jump\t// out\n        /* \"main.sol\":5048:5509  function liquidateEarly(uint256 _poolId) external onlyOwner(_poolId) {... */\n    tag_23:\n        /* \"main.sol\":5108:5115  _poolId */\n      dup1\n        /* \"main.sol\":1216:1226  msg.sender */\n      caller\n        /* \"main.sol\":1192:1226  loans[_poolId].owner == msg.sender */\n      0xffffffffffffffffffffffffffffffffffffffff\n      and\n        /* \"main.sol\":1192:1197  loans */\n      0x01\n        /* \"main.sol\":1192:1206  loans[_poolId] */\n      0x00\n        /* \"main.sol\":1198:1205  _poolId */\n      dup4\n        /* \"main.sol\":1192:1206  loans[_poolId] */\n      dup2\n      mstore\n      0x20\n      add\n      swap1\n      dup2\n      mstore\n      0x20\n      add\n      0x00\n      keccak256\n        /* \"main.sol\":1192:1212  loans[_poolId].owner */\n      0x00\n      add\n      0x00\n      swap1\n      sload\n      swap1\n      0x0100\n      exp\n      swap1\n      div\n      0xffffffffffffffffffffffffffffffffffffffff\n      and\n        /* \"main.sol\":1192:1226  loans[_poolId].owner == msg.sender */\n      0xffffffffffffffffffffffffffffffffffffffff\n      and\n      eq\n        /* \"main.sol\":1184:1245  require(loans[_poolId].owner == msg.sender, \"LAN: not owner\") */\n      tag_65\n      jumpi\n      mload(0x40)\n      0x08c379a000000000000000000000000000000000000000000000000000000000\n      dup2\n      mstore\n      0x04\n      add\n      tag_66\n      swap1\n      tag_67\n      jump\t// in\n    tag_66:\n      mload(0x40)\n      dup1\n      swap2\n      sub\n      swap1\n      revert\n    tag_65:\n        /* \"main.sol\":5127:5143  Loan memory loan */\n      0x00\n        /* \"main.sol\":5146:5151  loans */\n      0x01\n        /* \"main.sol\":5146:5160  loans[_poolId] */\n      0x00\n        /* \"main.sol\":5152:5159  _poolId */\n      dup5\n        /* \"main.sol\":5146:5160  loans[_poolId] */\n      dup2\n      mstore\n      0x20\n      add\n      swap1\n      dup2\n      mstore\n      0x20\n      add\n      0x00\n      keccak256\n        /* \"main.sol\":5127:5160  Loan memory loan = loans[_poolId] */\n      mload(0x40)\n      dup1\n      0x0120\n      add\n      0x40\n      mstore\n      swap1\n      dup2\n      0x00\n      dup3\n      add\n      0x00\n      swap1\n      sload\n      swap1\n      0x0100\n      exp\n      swap1\n      div\n      0xffffffffffffffffffffffffffffffffffffffff\n      and\n      0xffffffffffffffffffffffffffffffffffffffff\n      and\n      0xffffffffffffffffffffffffffffffffffffffff\n      and\n      dup2\n      mstore\n      0x20\n      add\n      0x01\n      dup3\n      add\n      0x00\n      swap1\n      sload\n      swap1\n      0x0100\n      exp\n      swap1\n      div\n      0xffffffffffffffffffffffffffffffffffffffff\n      and\n      0xffffffffffffffffffffffffffffffffffffffff\n      and\n      0xffffffffffffffffffffffffffffffffffffffff\n      and\n      dup2\n      mstore\n      0x20\n      add\n      0x02\n      dup3\n      add\n      0x00\n      swap1\n      sload\n      swap1\n      0x0100\n      exp\n      swap1\n      div\n      0xffffffffffffffffffffffffffffffffffffffff\n      and\n      0xffffffffffffffffffffffffffffffffffffffff\n      and\n      0xffffffffffffffffffffffffffffffffffffffff\n      and\n      dup2\n      mstore\n      0x20\n      add\n      0x03\n      dup3\n      add\n      sload\n      dup2\n      mstore\n      0x20\n      add\n      0x04\n      dup3\n      add\n      sload\n      dup2\n      mstore\n      0x20\n      add\n      0x05\n      dup3\n      add\n      sload\n      dup2\n      mstore\n      0x20\n      add\n      0x06\n      dup3\n      add\n      sload\n      dup2\n      mstore\n      0x20\n      add\n      0x07\n      dup3\n      add\n      sload\n      dup2\n      mstore\n      0x20\n      add\n      0x08\n      dup3\n      add\n      0x00\n      swap1\n      sload\n      swap1\n      0x0100\n      exp\n      swap1\n      div\n      0xff\n      and\n      iszero\n      iszero\n      iszero\n      iszero\n      dup2\n      mstore\n      pop\n      pop\n      swap1\n      pop\n        /* \"main.sol\":5178:5193  _ended(_poolId) */\n      tag_69\n        /* \"main.sol\":5185:5192  _poolId */\n      dup4\n        /* \"main.sol\":5178:5184  _ended */\n      tag_70\n        /* \"main.sol\":5178:5193  _ended(_poolId) */\n      jump\t// in\n    tag_69:\n        /* \"main.sol\":5170:5217  require(_ended(_poolId), \"LAN: loan not ended\") */\n      tag_71\n      jumpi\n      mload(0x40)\n      0x08c379a000000000000000000000000000000000000000000000000000000000\n      dup2\n      mstore\n      0x04\n      add\n      tag_72\n      swap1\n      tag_73\n      jump\t// in\n    tag_72:\n      mload(0x40)\n      dup1\n      swap2\n      sub\n      swap1\n      revert\n    tag_71:\n        /* \"main.sol\":5227:5247  Bid memory latestBid */\n      0x00\n        /* \"main.sol\":5250:5254  bids */\n      0x02\n        /* \"main.sol\":5250:5263  bids[_poolId] */\n      0x00\n        /* \"main.sol\":5255:5262  _poolId */\n      dup6\n        /* \"main.sol\":5250:5263  bids[_poolId] */\n      dup2\n      mstore\n      0x20\n      add\n      swap1\n      dup2\n      mstore\n      0x20\n      add\n      0x00\n      keccak256\n        /* \"main.sol\":5250:5277  bids[_poolId][loan.numBids] */\n      0x00\n        /* \"main.sol\":5264:5268  loan */\n      dup4\n        /* \"main.sol\":5264:5276  loan.numBids */\n      0xe0\n      add\n      mload\n        /* \"main.sol\":5250:5277  bids[_poolId][loan.numBids] */\n      dup2\n      mstore\n      0x20\n      add\n      swap1\n      dup2\n      mstore\n      0x20\n      add\n      0x00\n      keccak256\n        /* \"main.sol\":5227:5277  Bid memory latestBid = bids[_poolId][loan.numBids] */\n      mload(0x40)\n      dup1\n      0x60\n      add\n      0x40\n      mstore\n      swap1\n      dup2\n      0x00\n      dup3\n      add\n      sload\n      dup2\n      mstore\n      0x20\n      add\n      0x01\n      dup3\n      add\n      sload\n      dup2\n      mstore\n      0x20\n      add\n      0x02\n      dup3\n      add\n      0x00\n      swap1\n      sload\n      swap1\n      0x0100\n      exp\n      swap1\n      div\n      0xffffffffffffffffffffffffffffffffffffffff\n      and\n      0xffffffffffffffffffffffffffffffffffffffff\n      and\n      0xffffffffffffffffffffffffffffffffffffffff\n      and\n      dup2\n      mstore\n      pop\n      pop\n      swap1\n      pop\n        /* \"main.sol\":5313:5323  msg.sender */\n      caller\n        /* \"main.sol\":5295:5323  latestBid.user == msg.sender */\n      0xffffffffffffffffffffffffffffffffffffffff\n      and\n        /* \"main.sol\":5295:5304  latestBid */\n      dup2\n        /* \"main.sol\":5295:5309  latestBid.user */\n      0x40\n      add\n      mload\n        /* \"main.sol\":5295:5323  latestBid.user == msg.sender */\n      0xffffffffffffffffffffffffffffffffffffffff\n      and\n      eq\n        /* \"main.sol\":5287:5350  require(latestBid.user == msg.sender, \"LAN: not latest bidder\") */\n      tag_74\n      jumpi\n      mload(0x40)\n      0x08c379a000000000000000000000000000000000000000000000000000000000\n      dup2\n      mstore\n      0x04\n      add\n      tag_75\n      swap1\n      tag_76\n      jump\t// in\n    tag_75:\n      mload(0x40)\n      dup1\n      swap2\n      sub\n      swap1\n      revert\n    tag_74:\n        /* \"main.sol\":5384:5395  IERC721 NFT */\n      0x00\n        /* \"main.sol\":5406:5410  loan */\n      dup3\n        /* \"main.sol\":5406:5428  loan.collectionAddress */\n      0x40\n      add\n      mload\n        /* \"main.sol\":5384:5429  IERC721 NFT = IERC721(loan.collectionAddress) */\n      swap1\n      pop\n        /* \"main.sol\":5439:5442  NFT */\n      dup1\n        /* \"main.sol\":5439:5459  NFT.safeTransferFrom */\n      0xffffffffffffffffffffffffffffffffffffffff\n      and\n      0x42842e0e\n        /* \"main.sol\":5468:5472  this */\n      address\n        /* \"main.sol\":5475:5484  latestBid */\n      dup5\n        /* \"main.sol\":5475:5489  latestBid.user */\n      0x40\n      add\n      mload\n        /* \"main.sol\":5491:5495  loan */\n      dup7\n        /* \"main.sol\":5491:5501  loan.nftId */\n      0x60\n      add\n      mload\n        /* \"main.sol\":5439:5502  NFT.safeTransferFrom(address(this), latestBid.user, loan.nftId) */\n      mload(0x40)\n      dup5\n      0xffffffff\n      and\n      0xe0\n      shl\n      dup2\n      mstore\n      0x04\n      add\n      tag_77\n      swap4\n      swap3\n      swap2\n      swap1\n      tag_78\n      jump\t// in\n    tag_77:\n      0x00\n      mload(0x40)\n      dup1\n      dup4\n      sub\n      dup2\n      0x00\n      dup8\n      dup1\n      extcodesize\n      iszero\n      dup1\n      iszero\n      tag_79\n      jumpi\n      0x00\n      dup1\n      revert\n    tag_79:\n      pop\n      gas\n      call\n      iszero\n      dup1\n      iszero\n      tag_81\n      jumpi\n      returndatasize\n      0x00\n      dup1\n      returndatacopy\n      revert(0x00, returndatasize)\n    tag_81:\n      pop\n      pop\n      pop\n      pop\n        /* \"main.sol\":5117:5509  {... */\n      pop\n      pop\n      pop\n        /* \"main.sol\":5048:5509  function liquidateEarly(uint256 _poolId) external onlyOwner(_poolId) {... */\n      pop\n      pop\n      jump\t// out\n        /* \"main.sol\":1269:2022  function launch(address _token, address _collectionAddress, uint256 _nftId, uint256 _startTime, uint256 _endTime, uint256 _apr, bool _whitelisted) public {... */\n    tag_27:\n        /* \"main.sol\":1455:1470  block.timestamp */\n      timestamp\n        /* \"main.sol\":1441:1451  _startTime */\n      dup5\n        /* \"main.sol\":1441:1470  _startTime >= block.timestamp */\n      lt\n      iszero\n        /* \"main.sol\":1433:1498  require(_startTime >= block.timestamp, \"LAN: start time in past\") */\n      tag_83\n      jumpi\n      mload(0x40)\n      0x08c379a000000000000000000000000000000000000000000000000000000000\n      dup2\n      mstore\n      0x04\n      add\n      tag_84\n      swap1\n      tag_85\n      jump\t// in\n    tag_84:\n      mload(0x40)\n      dup1\n      swap2\n      sub\n      swap1\n      revert\n    tag_83:\n        /* \"main.sol\":1527:1537  _startTime */\n      dup4\n        /* \"main.sol\":1516:1524  _endTime */\n      dup4\n        /* \"main.sol\":1516:1537  _endTime > _startTime */\n      gt\n        /* \"main.sol\":1508:1562  require(_endTime > _startTime, \"LAN: start after end\") */\n      tag_86\n      jumpi\n      mload(0x40)\n      0x08c379a000000000000000000000000000000000000000000000000000000000\n      dup2\n      mstore\n      0x04\n      add\n      tag_87\n      swap1\n      tag_88\n      jump\t// in\n    tag_87:\n      mload(0x40)\n      dup1\n      swap2\n      sub\n      swap1\n      revert\n    tag_86:\n        /* \"main.sol\":1587:1891  Loan({... */\n      mload(0x40)\n      dup1\n      0x0120\n      add\n      0x40\n      mstore\n      dup1\n        /* \"main.sol\":1613:1623  msg.sender */\n      caller\n        /* \"main.sol\":1587:1891  Loan({... */\n      0xffffffffffffffffffffffffffffffffffffffff\n      and\n      dup2\n      mstore\n      0x20\n      add\n        /* \"main.sol\":1644:1650  _token */\n      dup9\n        /* \"main.sol\":1587:1891  Loan({... */\n      0xffffffffffffffffffffffffffffffffffffffff\n      and\n      dup2\n      mstore\n      0x20\n      add\n        /* \"main.sol\":1683:1701  _collectionAddress */\n      dup8\n        /* \"main.sol\":1587:1891  Loan({... */\n      0xffffffffffffffffffffffffffffffffffffffff\n      and\n      dup2\n      mstore\n      0x20\n      add\n        /* \"main.sol\":1722:1728  _nftId */\n      dup7\n        /* \"main.sol\":1587:1891  Loan({... */\n      dup2\n      mstore\n      0x20\n      add\n        /* \"main.sol\":1784:1794  _startTime */\n      dup6\n        /* \"main.sol\":1587:1891  Loan({... */\n      dup2\n      mstore\n      0x20\n      add\n        /* \"main.sol\":1751:1759  _endTime */\n      dup5\n        /* \"main.sol\":1587:1891  Loan({... */\n      dup2\n      mstore\n      0x20\n      add\n        /* \"main.sol\":1813:1817  _apr */\n      dup4\n        /* \"main.sol\":1587:1891  Loan({... */\n      dup2\n      mstore\n      0x20\n      add\n        /* \"main.sol\":1840:1841  0 */\n      0x00\n        /* \"main.sol\":1587:1891  Loan({... */\n      dup2\n      mstore\n      0x20\n      add\n        /* \"main.sol\":1868:1880  _whitelisted */\n      dup3\n        /* \"main.sol\":1587:1891  Loan({... */\n      iszero\n      iszero\n      dup2\n      mstore\n      pop\n        /* \"main.sol\":1572:1577  loans */\n      0x01\n        /* \"main.sol\":1572:1584  loans[count] */\n      0x00\n        /* \"main.sol\":1578:1583  count */\n      dup1\n      sload\n        /* \"main.sol\":1572:1584  loans[count] */\n      dup2\n      mstore\n      0x20\n      add\n      swap1\n      dup2\n      mstore\n      0x20\n      add\n      0x00\n      keccak256\n        /* \"main.sol\":1572:1891  loans[count] = Loan({... */\n      0x00\n      dup3\n      add\n      mload\n      dup2\n      0x00\n      add\n      exp(0x0100, 0x00)\n      dup2\n      sload\n      dup2\n      0xffffffffffffffffffffffffffffffffffffffff\n      mul\n      not\n      and\n      swap1\n      dup4\n      0xffffffffffffffffffffffffffffffffffffffff\n      and\n      mul\n      or\n      swap1\n      sstore\n      pop\n      0x20\n      dup3\n      add\n      mload\n      dup2\n      0x01\n      add\n      exp(0x0100, 0x00)\n      dup2\n      sload\n      dup2\n      0xffffffffffffffffffffffffffffffffffffffff\n      mul\n      not\n      and\n      swap1\n      dup4\n      0xffffffffffffffffffffffffffffffffffffffff\n      and\n      mul\n      or\n      swap1\n      sstore\n      pop\n      0x40\n      dup3\n      add\n      mload\n      dup2\n      0x02\n      add\n      exp(0x0100, 0x00)\n      dup2\n      sload\n      dup2\n      0xffffffffffffffffffffffffffffffffffffffff\n      mul\n      not\n      and\n      swap1\n      dup4\n      0xffffffffffffffffffffffffffffffffffffffff\n      and\n      mul\n      or\n      swap1\n      sstore\n      pop\n      0x60\n      dup3\n      add\n      mload\n      dup2\n      0x03\n      add\n      sstore\n      0x80\n      dup3\n      add\n      mload\n      dup2\n      0x04\n      add\n      sstore\n      0xa0\n      dup3\n      add\n      mload\n      dup2\n      0x05\n      add\n      sstore\n      0xc0\n      dup3\n      add\n      mload\n      dup2\n      0x06\n      add\n      sstore\n      0xe0\n      dup3\n      add\n      mload\n      dup2\n      0x07\n      add\n      sstore\n      0x0100\n      dup3\n      add\n      mload\n      dup2\n      0x08\n      add\n      exp(0x0100, 0x00)\n      dup2\n      sload\n      dup2\n      0xff\n      mul\n      not\n      and\n      swap1\n      dup4\n      iszero\n      iszero\n      mul\n      or\n      swap1\n      sstore\n      pop\n      swap1\n      pop\n      pop\n        /* \"main.sol\":1926:1941  block.timestamp */\n      timestamp\n        /* \"main.sol\":1901:1905  bids */\n      0x02\n        /* \"main.sol\":1901:1912  bids[count] */\n      0x00\n        /* \"main.sol\":1906:1911  count */\n      dup1\n      sload\n        /* \"main.sol\":1901:1912  bids[count] */\n      dup2\n      mstore\n      0x20\n      add\n      swap1\n      dup2\n      mstore\n      0x20\n      add\n      0x00\n      keccak256\n        /* \"main.sol\":1901:1915  bids[count][0] */\n      0x00\n        /* \"main.sol\":1913:1914  0 */\n      dup1\n        /* \"main.sol\":1901:1915  bids[count][0] */\n      dup2\n      mstore\n      0x20\n      add\n      swap1\n      dup2\n      mstore\n      0x20\n      add\n      0x00\n      keccak256\n        /* \"main.sol\":1901:1923  bids[count][0].bidTime */\n      0x00\n      add\n        /* \"main.sol\":1901:1941  bids[count][0].bidTime = block.timestamp */\n      dup2\n      swap1\n      sstore\n      pop\n        /* \"main.sol\":1964:1969  count */\n      sload(0x00)\n        /* \"main.sol\":1956:1998  newPool(count, _collectionAddress, _nftId) */\n      0xef8b2952c43462575e82711d0cc91169720a4589a9fa533d173e022437f5405e\n        /* \"main.sol\":1971:1989  _collectionAddress */\n      dup8\n        /* \"main.sol\":1991:1997  _nftId */\n      dup8\n        /* \"main.sol\":1956:1998  newPool(count, _collectionAddress, _nftId) */\n      mload(0x40)\n      tag_89\n      swap3\n      swap2\n      swap1\n      tag_90\n      jump\t// in\n    tag_89:\n      mload(0x40)\n      dup1\n      swap2\n      sub\n      swap1\n      log2\n        /* \"main.sol\":2008:2013  count */\n      0x00\n      dup1\n        /* \"main.sol\":2008:2015  count++ */\n      dup2\n      sload\n      dup1\n      swap3\n      swap2\n      swap1\n      tag_91\n      swap1\n      tag_92\n      jump\t// in\n    tag_91:\n      swap2\n      swap1\n      pop\n      sstore\n      pop\n        /* \"main.sol\":1269:2022  function launch(address _token, address _collectionAddress, uint256 _nftId, uint256 _startTime, uint256 _endTime, uint256 _apr, bool _whitelisted) public {... */\n      pop\n      pop\n      pop\n      pop\n      pop\n      pop\n      pop\n      jump\t// out\n        /* \"main.sol\":3625:3869  function cancel(uint256 _poolId) external onlyOwner(_poolId) {... */\n    tag_30:\n        /* \"main.sol\":3677:3684  _poolId */\n      dup1\n        /* \"main.sol\":1216:1226  msg.sender */\n      caller\n        /* \"main.sol\":1192:1226  loans[_poolId].owner == msg.sender */\n      0xffffffffffffffffffffffffffffffffffffffff\n      and\n        /* \"main.sol\":1192:1197  loans */\n      0x01\n        /* \"main.sol\":1192:1206  loans[_poolId] */\n      0x00\n        /* \"main.sol\":1198:1205  _poolId */\n      dup4\n        /* \"main.sol\":1192:1206  loans[_poolId] */\n      dup2\n      mstore\n      0x20\n      add\n      swap1\n      dup2\n      mstore\n      0x20\n      add\n      0x00\n      keccak256\n        /* \"main.sol\":1192:1212  loans[_poolId].owner */\n      0x00\n      add\n      0x00\n      swap1\n      sload\n      swap1\n      0x0100\n      exp\n      swap1\n      div\n      0xffffffffffffffffffffffffffffffffffffffff\n      and\n        /* \"main.sol\":1192:1226  loans[_poolId].owner == msg.sender */\n      0xffffffffffffffffffffffffffffffffffffffff\n      and\n      eq\n        /* \"main.sol\":1184:1245  require(loans[_poolId].owner == msg.sender, \"LAN: not owner\") */\n      tag_94\n      jumpi\n      mload(0x40)\n      0x08c379a000000000000000000000000000000000000000000000000000000000\n      dup2\n      mstore\n      0x04\n      add\n      tag_95\n      swap1\n      tag_67\n      jump\t// in\n    tag_95:\n      mload(0x40)\n      dup1\n      swap2\n      sub\n      swap1\n      revert\n    tag_94:\n        /* \"main.sol\":3696:3712  Loan memory loan */\n      0x00\n        /* \"main.sol\":3715:3720  loans */\n      0x01\n        /* \"main.sol\":3715:3729  loans[_poolId] */\n      0x00\n        /* \"main.sol\":3721:3728  _poolId */\n      dup5\n        /* \"main.sol\":3715:3729  loans[_poolId] */\n      dup2\n      mstore\n      0x20\n      add\n      swap1\n      dup2\n      mstore\n      0x20\n      add\n      0x00\n      keccak256\n        /* \"main.sol\":3696:3729  Loan memory loan = loans[_poolId] */\n      mload(0x40)\n      dup1\n      0x0120\n      add\n      0x40\n      mstore\n      swap1\n      dup2\n      0x00\n      dup3\n      add\n      0x00\n      swap1\n      sload\n      swap1\n      0x0100\n      exp\n      swap1\n      div\n      0xffffffffffffffffffffffffffffffffffffffff\n      and\n      0xffffffffffffffffffffffffffffffffffffffff\n      and\n      0xffffffffffffffffffffffffffffffffffffffff\n      and\n      dup2\n      mstore\n      0x20\n      add\n      0x01\n      dup3\n      add\n      0x00\n      swap1\n      sload\n      swap1\n      0x0100\n      exp\n      swap1\n      div\n      0xffffffffffffffffffffffffffffffffffffffff\n      and\n      0xffffffffffffffffffffffffffffffffffffffff\n      and\n      0xffffffffffffffffffffffffffffffffffffffff\n      and\n      dup2\n      mstore\n      0x20\n      add\n      0x02\n      dup3\n      add\n      0x00\n      swap1\n      sload\n      swap1\n      0x0100\n      exp\n      swap1\n      div\n      0xffffffffffffffffffffffffffffffffffffffff\n      and\n      0xffffffffffffffffffffffffffffffffffffffff\n      and\n      0xffffffffffffffffffffffffffffffffffffffff\n      and\n      dup2\n      mstore\n      0x20\n      add\n      0x03\n      dup3\n      add\n      sload\n      dup2\n      mstore\n      0x20\n      add\n      0x04\n      dup3\n      add\n      sload\n      dup2\n      mstore\n      0x20\n      add\n      0x05\n      dup3\n      add\n      sload\n      dup2\n      mstore\n      0x20\n      add\n      0x06\n      dup3\n      add\n      sload\n      dup2\n      mstore\n      0x20\n      add\n      0x07\n      dup3\n      add\n      sload\n      dup2\n      mstore\n      0x20\n      add\n      0x08\n      dup3\n      add\n      0x00\n      swap1\n      sload\n      swap1\n      0x0100\n      exp\n      swap1\n      div\n      0xff\n      and\n      iszero\n      iszero\n      iszero\n      iszero\n      dup2\n      mstore\n      pop\n      pop\n      swap1\n      pop\n        /* \"main.sol\":3764:3779  block.timestamp */\n      timestamp\n        /* \"main.sol\":3747:3751  loan */\n      dup2\n        /* \"main.sol\":3747:3761  loan.startTime */\n      0x80\n      add\n      mload\n        /* \"main.sol\":3747:3779  loan.startTime > block.timestamp */\n      gt\n        /* \"main.sol\":3739:3804  require(loan.startTime > block.timestamp, \"LAN: already started\") */\n      tag_97\n      jumpi\n      mload(0x40)\n      0x08c379a000000000000000000000000000000000000000000000000000000000\n      dup2\n      mstore\n      0x04\n      add\n      tag_98\n      swap1\n      tag_99\n      jump\t// in\n    tag_98:\n      mload(0x40)\n      dup1\n      swap2\n      sub\n      swap1\n      revert\n    tag_97:\n        /* \"main.sol\":3814:3825  delete loan */\n      tag_100\n      tag_101\n      jump\t// in\n    tag_100:\n      swap1\n      pop\n        /* \"main.sol\":3840:3862  loanCancelled(_poolId) */\n      0xfe785ef891129b084b1c5a30e4d88eb97c97822c024cc25d5f9d806b897512e0\n        /* \"main.sol\":3854:3861  _poolId */\n      dup4\n        /* \"main.sol\":3840:3862  loanCancelled(_poolId) */\n      mload(0x40)\n      tag_102\n      swap2\n      swap1\n      tag_19\n      jump\t// in\n    tag_102:\n      mload(0x40)\n      dup1\n      swap2\n      sub\n      swap1\n      log1\n        /* \"main.sol\":3686:3869  {... */\n      pop\n        /* \"main.sol\":3625:3869  function cancel(uint256 _poolId) external onlyOwner(_poolId) {... */\n      pop\n      pop\n      jump\t// out\n        /* \"main.sol\":4439:4872  function liquidate(uint256 _poolId) external {... */\n    tag_33:\n        /* \"main.sol\":4494:4510  Loan memory loan */\n      0x00\n        /* \"main.sol\":4513:4518  loans */\n      0x01\n        /* \"main.sol\":4513:4527  loans[_poolId] */\n      0x00\n        /* \"main.sol\":4519:4526  _poolId */\n      dup4\n        /* \"main.sol\":4513:4527  loans[_poolId] */\n      dup2\n      mstore\n      0x20\n      add\n      swap1\n      dup2\n      mstore\n      0x20\n      add\n      0x00\n      keccak256\n        /* \"main.sol\":4494:4527  Loan memory loan = loans[_poolId] */\n      mload(0x40)\n      dup1\n      0x0120\n      add\n      0x40\n      mstore\n      swap1\n      dup2\n      0x00\n      dup3\n      add\n      0x00\n      swap1\n      sload\n      swap1\n      0x0100\n      exp\n      swap1\n      div\n      0xffffffffffffffffffffffffffffffffffffffff\n      and\n      0xffffffffffffffffffffffffffffffffffffffff\n      and\n      0xffffffffffffffffffffffffffffffffffffffff\n      and\n      dup2\n      mstore\n      0x20\n      add\n      0x01\n      dup3\n      add\n      0x00\n      swap1\n      sload\n      swap1\n      0x0100\n      exp\n      swap1\n      div\n      0xffffffffffffffffffffffffffffffffffffffff\n      and\n      0xffffffffffffffffffffffffffffffffffffffff\n      and\n      0xffffffffffffffffffffffffffffffffffffffff\n      and\n      dup2\n      mstore\n      0x20\n      add\n      0x02\n      dup3\n      add\n      0x00\n      swap1\n      sload\n      swap1\n      0x0100\n      exp\n      swap1\n      div\n      0xffffffffffffffffffffffffffffffffffffffff\n      and\n      0xffffffffffffffffffffffffffffffffffffffff\n      and\n      0xffffffffffffffffffffffffffffffffffffffff\n      and\n      dup2\n      mstore\n      0x20\n      add\n      0x03\n      dup3\n      add\n      sload\n      dup2\n      mstore\n      0x20\n      add\n      0x04\n      dup3\n      add\n      sload\n      dup2\n      mstore\n      0x20\n      add\n      0x05\n      dup3\n      add\n      sload\n      dup2\n      mstore\n      0x20\n      add\n      0x06\n      dup3\n      add\n      sload\n      dup2\n      mstore\n      0x20\n      add\n      0x07\n      dup3\n      add\n      sload\n      dup2\n      mstore\n      0x20\n      add\n      0x08\n      dup3\n      add\n      0x00\n      swap1\n      sload\n      swap1\n      0x0100\n      exp\n      swap1\n      div\n      0xff\n      and\n      iszero\n      iszero\n      iszero\n      iszero\n      dup2\n      mstore\n      pop\n      pop\n      swap1\n      pop\n        /* \"main.sol\":4545:4560  _ended(_poolId) */\n      tag_104\n        /* \"main.sol\":4552:4559  _poolId */\n      dup3\n        /* \"main.sol\":4545:4551  _ended */\n      tag_70\n        /* \"main.sol\":4545:4560  _ended(_poolId) */\n      jump\t// in\n    tag_104:\n        /* \"main.sol\":4537:4584  require(_ended(_poolId), \"LAN: loan not ended\") */\n      tag_105\n      jumpi\n      mload(0x40)\n      0x08c379a000000000000000000000000000000000000000000000000000000000\n      dup2\n      mstore\n      0x04\n      add\n      tag_106\n      swap1\n      tag_73\n      jump\t// in\n    tag_106:\n      mload(0x40)\n      dup1\n      swap2\n      sub\n      swap1\n      revert\n    tag_105:\n        /* \"main.sol\":4594:4614  Bid memory latestBid */\n      0x00\n        /* \"main.sol\":4617:4621  bids */\n      0x02\n        /* \"main.sol\":4617:4630  bids[_poolId] */\n      0x00\n        /* \"main.sol\":4622:4629  _poolId */\n      dup5\n        /* \"main.sol\":4617:4630  bids[_poolId] */\n      dup2\n      mstore\n      0x20\n      add\n      swap1\n      dup2\n      mstore\n      0x20\n      add\n      0x00\n      keccak256\n        /* \"main.sol\":4617:4644  bids[_poolId][loan.numBids] */\n      0x00\n        /* \"main.sol\":4631:4635  loan */\n      dup4\n        /* \"main.sol\":4631:4643  loan.numBids */\n      0xe0\n      add\n      mload\n        /* \"main.sol\":4617:4644  bids[_poolId][loan.numBids] */\n      dup2\n      mstore\n      0x20\n      add\n      swap1\n      dup2\n      mstore\n      0x20\n      add\n      0x00\n      keccak256\n        /* \"main.sol\":4594:4644  Bid memory latestBid = bids[_poolId][loan.numBids] */\n      mload(0x40)\n      dup1\n      0x60\n      add\n      0x40\n      mstore\n      swap1\n      dup2\n      0x00\n      dup3\n      add\n      sload\n      dup2\n      mstore\n      0x20\n      add\n      0x01\n      dup3\n      add\n      sload\n      dup2\n      mstore\n      0x20\n      add\n      0x02\n      dup3\n      add\n      0x00\n      swap1\n      sload\n      swap1\n      0x0100\n      exp\n      swap1\n      div\n      0xffffffffffffffffffffffffffffffffffffffff\n      and\n      0xffffffffffffffffffffffffffffffffffffffff\n      and\n      0xffffffffffffffffffffffffffffffffffffffff\n      and\n      dup2\n      mstore\n      pop\n      pop\n      swap1\n      pop\n        /* \"main.sol\":4680:4690  msg.sender */\n      caller\n        /* \"main.sol\":4662:4690  latestBid.user == msg.sender */\n      0xffffffffffffffffffffffffffffffffffffffff\n      and\n        /* \"main.sol\":4662:4671  latestBid */\n      dup2\n        /* \"main.sol\":4662:4676  latestBid.user */\n      0x40\n      add\n      mload\n        /* \"main.sol\":4662:4690  latestBid.user == msg.sender */\n      0xffffffffffffffffffffffffffffffffffffffff\n      and\n      eq\n        /* \"main.sol\":4654:4717  require(latestBid.user == msg.sender, \"LAN: not latest bidder\") */\n      tag_107\n      jumpi\n      mload(0x40)\n      0x08c379a000000000000000000000000000000000000000000000000000000000\n      dup2\n      mstore\n      0x04\n      add\n      tag_108\n      swap1\n      tag_76\n      jump\t// in\n    tag_108:\n      mload(0x40)\n      dup1\n      swap2\n      sub\n      swap1\n      revert\n    tag_107:\n        /* \"main.sol\":4751:4762  IERC721 NFT */\n      0x00\n        /* \"main.sol\":4773:4777  loan */\n      dup3\n        /* \"main.sol\":4773:4795  loan.collectionAddress */\n      0x40\n      add\n      mload\n        /* \"main.sol\":4751:4796  IERC721 NFT = IERC721(loan.collectionAddress) */\n      swap1\n      pop\n        /* \"main.sol\":4806:4809  NFT */\n      dup1\n        /* \"main.sol\":4806:4826  NFT.safeTransferFrom */\n      0xffffffffffffffffffffffffffffffffffffffff\n      and\n      0x42842e0e\n        /* \"main.sol\":4835:4839  this */\n      address\n        /* \"main.sol\":4842:4852  msg.sender */\n      caller\n        /* \"main.sol\":4854:4858  loan */\n      dup7\n        /* \"main.sol\":4854:4864  loan.nftId */\n      0x60\n      add\n      mload\n        /* \"main.sol\":4806:4865  NFT.safeTransferFrom(address(this), msg.sender, loan.nftId) */\n      mload(0x40)\n      dup5\n      0xffffffff\n      and\n      0xe0\n      shl\n      dup2\n      mstore\n      0x04\n      add\n      tag_109\n      swap4\n      swap3\n      swap2\n      swap1\n      tag_78\n      jump\t// in\n    tag_109:\n      0x00\n      mload(0x40)\n      dup1\n      dup4\n      sub\n      dup2\n      0x00\n      dup8\n      dup1\n      extcodesize\n      iszero\n      dup1\n      iszero\n      tag_110\n      jumpi\n      0x00\n      dup1\n      revert\n    tag_110:\n      pop\n      gas\n      call\n      iszero\n      dup1\n      iszero\n      tag_112\n      jumpi\n      returndatasize\n      0x00\n      dup1\n      returndatacopy\n      revert(0x00, returndatasize)\n    tag_112:\n      pop\n      pop\n      pop\n      pop\n        /* \"main.sol\":4484:4872  {... */\n      pop\n      pop\n      pop\n        /* \"main.sol\":4439:4872  function liquidate(uint256 _poolId) external {... */\n      pop\n      jump\t// out\n        /* \"main.sol\":2028:2934  function bid(uint256 _poolId, uint256 _amount) external {... */\n    tag_37:\n        /* \"main.sol\":2102:2119  _started(_poolId) */\n      tag_114\n        /* \"main.sol\":2111:2118  _poolId */\n      dup3\n        /* \"main.sol\":2102:2110  _started */\n      tag_115\n        /* \"main.sol\":2102:2119  _started(_poolId) */\n      jump\t// in\n    tag_114:\n        /* \"main.sol\":2094:2140  require(_started(_poolId), \"LAN: not started\") */\n      tag_116\n      jumpi\n      mload(0x40)\n      0x08c379a000000000000000000000000000000000000000000000000000000000\n      dup2\n      mstore\n      0x04\n      add\n      tag_117\n      swap1\n      tag_118\n      jump\t// in\n    tag_117:\n      mload(0x40)\n      dup1\n      swap2\n      sub\n      swap1\n      revert\n    tag_116:\n        /* \"main.sol\":2159:2174  _ended(_poolId) */\n      tag_119\n        /* \"main.sol\":2166:2173  _poolId */\n      dup3\n        /* \"main.sol\":2159:2165  _ended */\n      tag_70\n        /* \"main.sol\":2159:2174  _ended(_poolId) */\n      jump\t// in\n    tag_119:\n        /* \"main.sol\":2158:2174  !_ended(_poolId) */\n      iszero\n        /* \"main.sol\":2150:2197  require(!_ended(_poolId), \"LAN: already ended\") */\n      tag_120\n      jumpi\n      mload(0x40)\n      0x08c379a000000000000000000000000000000000000000000000000000000000\n      dup2\n      mstore\n      0x04\n      add\n      tag_121\n      swap1\n      tag_122\n      jump\t// in\n    tag_121:\n      mload(0x40)\n      dup1\n      swap2\n      sub\n      swap1\n      revert\n    tag_120:\n        /* \"main.sol\":2207:2223  Loan memory loan */\n      0x00\n        /* \"main.sol\":2226:2231  loans */\n      0x01\n        /* \"main.sol\":2226:2240  loans[_poolId] */\n      0x00\n        /* \"main.sol\":2232:2239  _poolId */\n      dup5\n        /* \"main.sol\":2226:2240  loans[_poolId] */\n      dup2\n      mstore\n      0x20\n      add\n      swap1\n      dup2\n      mstore\n      0x20\n      add\n      0x00\n      keccak256\n        /* \"main.sol\":2207:2240  Loan memory loan = loans[_poolId] */\n      mload(0x40)\n      dup1\n      0x0120\n      add\n      0x40\n      mstore\n      swap1\n      dup2\n      0x00\n      dup3\n      add\n      0x00\n      swap1\n      sload\n      swap1\n      0x0100\n      exp\n      swap1\n      div\n      0xffffffffffffffffffffffffffffffffffffffff\n      and\n      0xffffffffffffffffffffffffffffffffffffffff\n      and\n      0xffffffffffffffffffffffffffffffffffffffff\n      and\n      dup2\n      mstore\n      0x20\n      add\n      0x01\n      dup3\n      add\n      0x00\n      swap1\n      sload\n      swap1\n      0x0100\n      exp\n      swap1\n      div\n      0xffffffffffffffffffffffffffffffffffffffff\n      and\n      0xffffffffffffffffffffffffffffffffffffffff\n      and\n      0xffffffffffffffffffffffffffffffffffffffff\n      and\n      dup2\n      mstore\n      0x20\n      add\n      0x02\n      dup3\n      add\n      0x00\n      swap1\n      sload\n      swap1\n      0x0100\n      exp\n      swap1\n      div\n      0xffffffffffffffffffffffffffffffffffffffff\n      and\n      0xffffffffffffffffffffffffffffffffffffffff\n      and\n      0xffffffffffffffffffffffffffffffffffffffff\n      and\n      dup2\n      mstore\n      0x20\n      add\n      0x03\n      dup3\n      add\n      sload\n      dup2\n      mstore\n      0x20\n      add\n      0x04\n      dup3\n      add\n      sload\n      dup2\n      mstore\n      0x20\n      add\n      0x05\n      dup3\n      add\n      sload\n      dup2\n      mstore\n      0x20\n      add\n      0x06\n      dup3\n      add\n      sload\n      dup2\n      mstore\n      0x20\n      add\n      0x07\n      dup3\n      add\n      sload\n      dup2\n      mstore\n      0x20\n      add\n      0x08\n      dup3\n      add\n      0x00\n      swap1\n      sload\n      swap1\n      0x0100\n      exp\n      swap1\n      div\n      0xff\n      and\n      iszero\n      iszero\n      iszero\n      iszero\n      dup2\n      mstore\n      pop\n      pop\n      swap1\n      pop\n        /* \"main.sol\":2282:2297  uint256 numBids */\n      0x00\n        /* \"main.sol\":2315:2316  1 */\n      0x01\n        /* \"main.sol\":2300:2304  loan */\n      dup3\n        /* \"main.sol\":2300:2312  loan.numBids */\n      0xe0\n      add\n      mload\n        /* \"main.sol\":2300:2316  loan.numBids + 1 */\n      tag_123\n      swap2\n      swap1\n      tag_124\n      jump\t// in\n    tag_123:\n        /* \"main.sol\":2282:2316  uint256 numBids = loan.numBids + 1 */\n      swap1\n      pop\n        /* \"main.sol\":2342:2349  numBids */\n      dup1\n        /* \"main.sol\":2327:2331  loan */\n      dup3\n        /* \"main.sol\":2327:2339  loan.numBids */\n      0xe0\n      add\n        /* \"main.sol\":2327:2349  loan.numBids = numBids */\n      dup2\n      dup2\n      mstore\n      pop\n      pop\n        /* \"main.sol\":2359:2376  uint256 loanValue */\n      0x00\n        /* \"main.sol\":2379:2407  _calculateLoanValue(_poolId) */\n      tag_125\n        /* \"main.sol\":2399:2406  _poolId */\n      dup6\n        /* \"main.sol\":2379:2398  _calculateLoanValue */\n      tag_126\n        /* \"main.sol\":2379:2407  _calculateLoanValue(_poolId) */\n      jump\t// in\n    tag_125:\n        /* \"main.sol\":2359:2407  uint256 loanValue = _calculateLoanValue(_poolId) */\n      swap1\n      pop\n        /* \"main.sol\":2435:2444  loanValue */\n      dup1\n        /* \"main.sol\":2425:2432  _amount */\n      dup5\n        /* \"main.sol\":2425:2444  _amount > loanValue */\n      gt\n        /* \"main.sol\":2417:2468  require(_amount > loanValue, \"LAN: bid not higher\") */\n      tag_127\n      jumpi\n      mload(0x40)\n      0x08c379a000000000000000000000000000000000000000000000000000000000\n      dup2\n      mstore\n      0x04\n      add\n      tag_128\n      swap1\n      tag_129\n      jump\t// in\n    tag_128:\n      mload(0x40)\n      dup1\n      swap2\n      sub\n      swap1\n      revert\n    tag_127:\n        /* \"main.sol\":2527:2531  loan */\n      dup3\n        /* \"main.sol\":2527:2537  loan.token */\n      0x20\n      add\n      mload\n        /* \"main.sol\":2520:2551  IERC20(loan.token).transferFrom */\n      0xffffffffffffffffffffffffffffffffffffffff\n      and\n      0x23b872dd\n        /* \"main.sol\":2552:2562  msg.sender */\n      caller\n        /* \"main.sol\":2564:2568  bids */\n      0x02\n        /* \"main.sol\":2564:2577  bids[_poolId] */\n      0x00\n        /* \"main.sol\":2569:2576  _poolId */\n      dup10\n        /* \"main.sol\":2564:2577  bids[_poolId] */\n      dup2\n      mstore\n      0x20\n      add\n      swap1\n      dup2\n      mstore\n      0x20\n      add\n      0x00\n      keccak256\n        /* \"main.sol\":2564:2586  bids[_poolId][numBids] */\n      0x00\n        /* \"main.sol\":2578:2585  numBids */\n      dup7\n        /* \"main.sol\":2564:2586  bids[_poolId][numBids] */\n      dup2\n      mstore\n      0x20\n      add\n      swap1\n      dup2\n      mstore\n      0x20\n      add\n      0x00\n      keccak256\n        /* \"main.sol\":2564:2591  bids[_poolId][numBids].user */\n      0x02\n      add\n      0x00\n      swap1\n      sload\n      swap1\n      0x0100\n      exp\n      swap1\n      div\n      0xffffffffffffffffffffffffffffffffffffffff\n      and\n        /* \"main.sol\":2593:2602  loanValue */\n      dup5\n        /* \"main.sol\":2520:2603  IERC20(loan.token).transferFrom(msg.sender, bids[_poolId][numBids].user, loanValue) */\n      mload(0x40)\n      dup5\n      0xffffffff\n      and\n      0xe0\n      shl\n      dup2\n      mstore\n      0x04\n      add\n      tag_130\n      swap4\n      swap3\n      swap2\n      swap1\n      tag_78\n      jump\t// in\n    tag_130:\n      0x20\n      mload(0x40)\n      dup1\n      dup4\n      sub\n      dup2\n      0x00\n      dup8\n      gas\n      call\n      iszero\n      dup1\n      iszero\n      tag_132\n      jumpi\n      returndatasize\n      0x00\n      dup1\n      returndatacopy\n      revert(0x00, returndatasize)\n    tag_132:\n      pop\n      pop\n      pop\n      pop\n      mload(0x40)\n      returndatasize\n      not(0x1f)\n      0x1f\n      dup3\n      add\n      and\n      dup3\n      add\n      dup1\n      0x40\n      mstore\n      pop\n      dup2\n      add\n      swap1\n      tag_133\n      swap2\n      swap1\n      tag_134\n      jump\t// in\n    tag_133:\n      pop\n        /* \"main.sol\":2652:2656  loan */\n      dup3\n        /* \"main.sol\":2652:2662  loan.token */\n      0x20\n      add\n      mload\n        /* \"main.sol\":2645:2676  IERC20(loan.token).transferFrom */\n      0xffffffffffffffffffffffffffffffffffffffff\n      and\n      0x23b872dd\n        /* \"main.sol\":2677:2687  msg.sender */\n      caller\n        /* \"main.sol\":2689:2693  loan */\n      dup6\n        /* \"main.sol\":2689:2699  loan.owner */\n      0x00\n      add\n      mload\n        /* \"main.sol\":2711:2720  loanValue */\n      dup5\n        /* \"main.sol\":2701:2708  _amount */\n      dup9\n        /* \"main.sol\":2701:2720  _amount - loanValue */\n      tag_135\n      swap2\n      swap1\n      tag_136\n      jump\t// in\n    tag_135:\n        /* \"main.sol\":2645:2721  IERC20(loan.token).transferFrom(msg.sender, loan.owner, _amount - loanValue) */\n      mload(0x40)\n      dup5\n      0xffffffff\n      and\n      0xe0\n      shl\n      dup2\n      mstore\n      0x04\n      add\n      tag_137\n      swap4\n      swap3\n      swap2\n      swap1\n      tag_78\n      jump\t// in\n    tag_137:\n      0x20\n      mload(0x40)\n      dup1\n      dup4\n      sub\n      dup2\n      0x00\n      dup8\n      gas\n      call\n      iszero\n      dup1\n      iszero\n      tag_139\n      jumpi\n      returndatasize\n      0x00\n      dup1\n      returndatacopy\n      revert(0x00, returndatasize)\n    tag_139:\n      pop\n      pop\n      pop\n      pop\n      mload(0x40)\n      returndatasize\n      not(0x1f)\n      0x1f\n      dup3\n      add\n      and\n      dup3\n      add\n      dup1\n      0x40\n      mstore\n      pop\n      dup2\n      add\n      swap1\n      tag_140\n      swap2\n      swap1\n      tag_134\n      jump\t// in\n    tag_140:\n      pop\n        /* \"main.sol\":2789:2927  Bid({... */\n      mload(0x40)\n      dup1\n      0x60\n      add\n      0x40\n      mstore\n      dup1\n        /* \"main.sol\":2816:2831  block.timestamp */\n      timestamp\n        /* \"main.sol\":2789:2927  Bid({... */\n      dup2\n      mstore\n      0x20\n      add\n        /* \"main.sol\":2856:2863  _amount */\n      dup6\n        /* \"main.sol\":2789:2927  Bid({... */\n      dup2\n      mstore\n      0x20\n      add\n        /* \"main.sol\":2883:2893  msg.sender */\n      caller\n        /* \"main.sol\":2789:2927  Bid({... */\n      0xffffffffffffffffffffffffffffffffffffffff\n      and\n      dup2\n      mstore\n      pop\n        /* \"main.sol\":2764:2768  bids */\n      0x02\n        /* \"main.sol\":2764:2777  bids[_poolId] */\n      0x00\n        /* \"main.sol\":2769:2776  _poolId */\n      dup8\n        /* \"main.sol\":2764:2777  bids[_poolId] */\n      dup2\n      mstore\n      0x20\n      add\n      swap1\n      dup2\n      mstore\n      0x20\n      add\n      0x00\n      keccak256\n        /* \"main.sol\":2764:2786  bids[_poolId][numBids] */\n      0x00\n        /* \"main.sol\":2778:2785  numBids */\n      dup5\n        /* \"main.sol\":2764:2786  bids[_poolId][numBids] */\n      dup2\n      mstore\n      0x20\n      add\n      swap1\n      dup2\n      mstore\n      0x20\n      add\n      0x00\n      keccak256\n        /* \"main.sol\":2764:2927  bids[_poolId][numBids] = Bid({... */\n      0x00\n      dup3\n      add\n      mload\n      dup2\n      0x00\n      add\n      sstore\n      0x20\n      dup3\n      add\n      mload\n      dup2\n      0x01\n      add\n      sstore\n      0x40\n      dup3\n      add\n      mload\n      dup2\n      0x02\n      add\n      exp(0x0100, 0x00)\n      dup2\n      sload\n      dup2\n      0xffffffffffffffffffffffffffffffffffffffff\n      mul\n      not\n      and\n      swap1\n      dup4\n      0xffffffffffffffffffffffffffffffffffffffff\n      and\n      mul\n      or\n      swap1\n      sstore\n      pop\n      swap1\n      pop\n      pop\n        /* \"main.sol\":2084:2934  {... */\n      pop\n      pop\n      pop\n        /* \"main.sol\":2028:2934  function bid(uint256 _poolId, uint256 _amount) external {... */\n      pop\n      pop\n      jump\t// out\n        /* \"main.sol\":3908:4385  function endLoan(uint256 _poolId) external onlyOwner(_poolId) {... */\n    tag_40:\n        /* \"main.sol\":3961:3968  _poolId */\n      dup1\n        /* \"main.sol\":1216:1226  msg.sender */\n      caller\n        /* \"main.sol\":1192:1226  loans[_poolId].owner == msg.sender */\n      0xffffffffffffffffffffffffffffffffffffffff\n      and\n        /* \"main.sol\":1192:1197  loans */\n      0x01\n        /* \"main.sol\":1192:1206  loans[_poolId] */\n      0x00\n        /* \"main.sol\":1198:1205  _poolId */\n      dup4\n        /* \"main.sol\":1192:1206  loans[_poolId] */\n      dup2\n      mstore\n      0x20\n      add\n      swap1\n      dup2\n      mstore\n      0x20\n      add\n      0x00\n      keccak256\n        /* \"main.sol\":1192:1212  loans[_poolId].owner */\n      0x00\n      add\n      0x00\n      swap1\n      sload\n      swap1\n      0x0100\n      exp\n      swap1\n      div\n      0xffffffffffffffffffffffffffffffffffffffff\n      and\n        /* \"main.sol\":1192:1226  loans[_poolId].owner == msg.sender */\n      0xffffffffffffffffffffffffffffffffffffffff\n      and\n      eq\n        /* \"main.sol\":1184:1245  require(loans[_poolId].owner == msg.sender, \"LAN: not owner\") */\n      tag_142\n      jumpi\n      mload(0x40)\n      0x08c379a000000000000000000000000000000000000000000000000000000000\n      dup2\n      mstore\n      0x04\n      add\n      tag_143\n      swap1\n      tag_67\n      jump\t// in\n    tag_143:\n      mload(0x40)\n      dup1\n      swap2\n      sub\n      swap1\n      revert\n    tag_142:\n        /* \"main.sol\":3980:3996  Loan memory loan */\n      0x00\n        /* \"main.sol\":3999:4004  loans */\n      0x01\n        /* \"main.sol\":3999:4013  loans[_poolId] */\n      0x00\n        /* \"main.sol\":4005:4012  _poolId */\n      dup5\n        /* \"main.sol\":3999:4013  loans[_poolId] */\n      dup2\n      mstore\n      0x20\n      add\n      swap1\n      dup2\n      mstore\n      0x20\n      add\n      0x00\n      keccak256\n        /* \"main.sol\":3980:4013  Loan memory loan = loans[_poolId] */\n      mload(0x40)\n      dup1\n      0x0120\n      add\n      0x40\n      mstore\n      swap1\n      dup2\n      0x00\n      dup3\n      add\n      0x00\n      swap1\n      sload\n      swap1\n      0x0100\n      exp\n      swap1\n      div\n      0xffffffffffffffffffffffffffffffffffffffff\n      and\n      0xffffffffffffffffffffffffffffffffffffffff\n      and\n      0xffffffffffffffffffffffffffffffffffffffff\n      and\n      dup2\n      mstore\n      0x20\n      add\n      0x01\n      dup3\n      add\n      0x00\n      swap1\n      sload\n      swap1\n      0x0100\n      exp\n      swap1\n      div\n      0xffffffffffffffffffffffffffffffffffffffff\n      and\n      0xffffffffffffffffffffffffffffffffffffffff\n      and\n      0xffffffffffffffffffffffffffffffffffffffff\n      and\n      dup2\n      mstore\n      0x20\n      add\n      0x02\n      dup3\n      add\n      0x00\n      swap1\n      sload\n      swap1\n      0x0100\n      exp\n      swap1\n      div\n      0xffffffffffffffffffffffffffffffffffffffff\n      and\n      0xffffffffffffffffffffffffffffffffffffffff\n      and\n      0xffffffffffffffffffffffffffffffffffffffff\n      and\n      dup2\n      mstore\n      0x20\n      add\n      0x03\n      dup3\n      add\n      sload\n      dup2\n      mstore\n      0x20\n      add\n      0x04\n      dup3\n      add\n      sload\n      dup2\n      mstore\n      0x20\n      add\n      0x05\n      dup3\n      add\n      sload\n      dup2\n      mstore\n      0x20\n      add\n      0x06\n      dup3\n      add\n      sload\n      dup2\n      mstore\n      0x20\n      add\n      0x07\n      dup3\n      add\n      sload\n      dup2\n      mstore\n      0x20\n      add\n      0x08\n      dup3\n      add\n      0x00\n      swap1\n      sload\n      swap1\n      0x0100\n      exp\n      swap1\n      div\n      0xff\n      and\n      iszero\n      iszero\n      iszero\n      iszero\n      dup2\n      mstore\n      pop\n      pop\n      swap1\n      pop\n        /* \"main.sol\":4023:4043  Bid memory latestBid */\n      0x00\n        /* \"main.sol\":4046:4050  bids */\n      0x02\n        /* \"main.sol\":4046:4059  bids[_poolId] */\n      0x00\n        /* \"main.sol\":4051:4058  _poolId */\n      dup6\n        /* \"main.sol\":4046:4059  bids[_poolId] */\n      dup2\n      mstore\n      0x20\n      add\n      swap1\n      dup2\n      mstore\n      0x20\n      add\n      0x00\n      keccak256\n        /* \"main.sol\":4046:4073  bids[_poolId][loan.numBids] */\n      0x00\n        /* \"main.sol\":4060:4064  loan */\n      dup4\n        /* \"main.sol\":4060:4072  loan.numBids */\n      0xe0\n      add\n      mload\n        /* \"main.sol\":4046:4073  bids[_poolId][loan.numBids] */\n      dup2\n      mstore\n      0x20\n      add\n      swap1\n      dup2\n      mstore\n      0x20\n      add\n      0x00\n      keccak256\n        /* \"main.sol\":4023:4073  Bid memory latestBid = bids[_poolId][loan.numBids] */\n      mload(0x40)\n      dup1\n      0x60\n      add\n      0x40\n      mstore\n      swap1\n      dup2\n      0x00\n      dup3\n      add\n      sload\n      dup2\n      mstore\n      0x20\n      add\n      0x01\n      dup3\n      add\n      sload\n      dup2\n      mstore\n      0x20\n      add\n      0x02\n      dup3\n      add\n      0x00\n      swap1\n      sload\n      swap1\n      0x0100\n      exp\n      swap1\n      div\n      0xffffffffffffffffffffffffffffffffffffffff\n      and\n      0xffffffffffffffffffffffffffffffffffffffff\n      and\n      0xffffffffffffffffffffffffffffffffffffffff\n      and\n      dup2\n      mstore\n      pop\n      pop\n      swap1\n      pop\n        /* \"main.sol\":4134:4138  loan */\n      dup2\n        /* \"main.sol\":4134:4144  loan.token */\n      0x20\n      add\n      mload\n        /* \"main.sol\":4127:4158  IERC20(loan.token).transferFrom */\n      0xffffffffffffffffffffffffffffffffffffffff\n      and\n      0x23b872dd\n        /* \"main.sol\":4159:4169  msg.sender */\n      caller\n        /* \"main.sol\":4171:4180  latestBid */\n      dup4\n        /* \"main.sol\":4171:4185  latestBid.user */\n      0x40\n      add\n      mload\n        /* \"main.sol\":4187:4215  _calculateLoanValue(_poolId) */\n      tag_145\n        /* \"main.sol\":4207:4214  _poolId */\n      dup9\n        /* \"main.sol\":4187:4206  _calculateLoanValue */\n      tag_126\n        /* \"main.sol\":4187:4215  _calculateLoanValue(_poolId) */\n      jump\t// in\n    tag_145:\n        /* \"main.sol\":4127:4216  IERC20(loan.token).transferFrom(msg.sender, latestBid.user, _calculateLoanValue(_poolId)) */\n      mload(0x40)\n      dup5\n      0xffffffff\n      and\n      0xe0\n      shl\n      dup2\n      mstore\n      0x04\n      add\n      tag_146\n      swap4\n      swap3\n      swap2\n      swap1\n      tag_78\n      jump\t// in\n    tag_146:\n      0x20\n      mload(0x40)\n      dup1\n      dup4\n      sub\n      dup2\n      0x00\n      dup8\n      gas\n      call\n      iszero\n      dup1\n      iszero\n      tag_148\n      jumpi\n      returndatasize\n      0x00\n      dup1\n      returndatacopy\n      revert(0x00, returndatasize)\n    tag_148:\n      pop\n      pop\n      pop\n      pop\n      mload(0x40)\n      returndatasize\n      not(0x1f)\n      0x1f\n      dup3\n      add\n      and\n      dup3\n      add\n      dup1\n      0x40\n      mstore\n      pop\n      dup2\n      add\n      swap1\n      tag_149\n      swap2\n      swap1\n      tag_134\n      jump\t// in\n    tag_149:\n      pop\n        /* \"main.sol\":4264:4275  IERC721 NFT */\n      0x00\n        /* \"main.sol\":4286:4290  loan */\n      dup3\n        /* \"main.sol\":4286:4308  loan.collectionAddress */\n      0x40\n      add\n      mload\n        /* \"main.sol\":4264:4309  IERC721 NFT = IERC721(loan.collectionAddress) */\n      swap1\n      pop\n        /* \"main.sol\":4319:4322  NFT */\n      dup1\n        /* \"main.sol\":4319:4339  NFT.safeTransferFrom */\n      0xffffffffffffffffffffffffffffffffffffffff\n      and\n      0x42842e0e\n        /* \"main.sol\":4348:4352  this */\n      address\n        /* \"main.sol\":4355:4365  msg.sender */\n      caller\n        /* \"main.sol\":4367:4371  loan */\n      dup7\n        /* \"main.sol\":4367:4377  loan.nftId */\n      0x60\n      add\n      mload\n        /* \"main.sol\":4319:4378  NFT.safeTransferFrom(address(this), msg.sender, loan.nftId) */\n      mload(0x40)\n      dup5\n      0xffffffff\n      and\n      0xe0\n      shl\n      dup2\n      mstore\n      0x04\n      add\n      tag_150\n      swap4\n      swap3\n      swap2\n      swap1\n      tag_78\n      jump\t// in\n    tag_150:\n      0x00\n      mload(0x40)\n      dup1\n      dup4\n      sub\n      dup2\n      0x00\n      dup8\n      dup1\n      extcodesize\n      iszero\n      dup1\n      iszero\n      tag_151\n      jumpi\n      0x00\n      dup1\n      revert\n    tag_151:\n      pop\n      gas\n      call\n      iszero\n      dup1\n      iszero\n      tag_153\n      jumpi\n      returndatasize\n      0x00\n      dup1\n      returndatacopy\n      revert(0x00, returndatasize)\n    tag_153:\n      pop\n      pop\n      pop\n      pop\n        /* \"main.sol\":3970:4385  {... */\n      pop\n      pop\n      pop\n        /* \"main.sol\":3908:4385  function endLoan(uint256 _poolId) external onlyOwner(_poolId) {... */\n      pop\n      pop\n      jump\t// out\n        /* \"main.sol\":872:927  mapping(uint256 => mapping(uint256 => Bid)) public bids */\n    tag_43:\n      mstore(0x20, 0x02)\n      dup2\n      0x00\n      mstore\n      mstore(0x20, keccak256(0x00, 0x40))\n      dup1\n      0x00\n      mstore\n      keccak256(0x00, 0x40)\n      0x00\n      swap2\n      pop\n      swap2\n      pop\n      pop\n      dup1\n      0x00\n      add\n      sload\n      swap1\n      dup1\n      0x01\n      add\n      sload\n      swap1\n      dup1\n      0x02\n      add\n      0x00\n      swap1\n      sload\n      swap1\n      0x0100\n      exp\n      swap1\n      div\n      0xffffffffffffffffffffffffffffffffffffffff\n      and\n      swap1\n      pop\n      dup4\n      jump\t// out\n        /* \"main.sol\":3492:3578  function addNewWhitelist(uint256 _poolId, address[] calldata _addys) external {... */\n    tag_49:\n      pop\n      pop\n      pop\n      jump\t// out\n        /* \"main.sol\":3075:3486  function setNewBidOwner(uint256 _poolId, address _newAddress) external {... */\n    tag_53:\n        /* \"main.sol\":3164:3181  _started(_poolId) */\n      tag_156\n        /* \"main.sol\":3173:3180  _poolId */\n      dup3\n        /* \"main.sol\":3164:3172  _started */\n      tag_115\n        /* \"main.sol\":3164:3181  _started(_poolId) */\n      jump\t// in\n    tag_156:\n        /* \"main.sol\":3156:3202  require(_started(_poolId), \"LAN: not started\") */\n      tag_157\n      jumpi\n      mload(0x40)\n      0x08c379a000000000000000000000000000000000000000000000000000000000\n      dup2\n      mstore\n      0x04\n      add\n      tag_158\n      swap1\n      tag_118\n      jump\t// in\n    tag_158:\n      mload(0x40)\n      dup1\n      swap2\n      sub\n      swap1\n      revert\n    tag_157:\n        /* \"main.sol\":3221:3236  _ended(_poolId) */\n      tag_159\n        /* \"main.sol\":3228:3235  _poolId */\n      dup3\n        /* \"main.sol\":3221:3227  _ended */\n      tag_70\n        /* \"main.sol\":3221:3236  _ended(_poolId) */\n      jump\t// in\n    tag_159:\n        /* \"main.sol\":3220:3236  !_ended(_poolId) */\n      iszero\n        /* \"main.sol\":3212:3259  require(!_ended(_poolId), \"LAN: already ended\") */\n      tag_160\n      jumpi\n      mload(0x40)\n      0x08c379a000000000000000000000000000000000000000000000000000000000\n      dup2\n      mstore\n      0x04\n      add\n      tag_161\n      swap1\n      tag_122\n      jump\t// in\n    tag_161:\n      mload(0x40)\n      dup1\n      swap2\n      sub\n      swap1\n      revert\n    tag_160:\n        /* \"main.sol\":3270:3286  Loan memory loan */\n      0x00\n        /* \"main.sol\":3289:3294  loans */\n      0x01\n        /* \"main.sol\":3289:3303  loans[_poolId] */\n      0x00\n        /* \"main.sol\":3295:3302  _poolId */\n      dup5\n        /* \"main.sol\":3289:3303  loans[_poolId] */\n      dup2\n      mstore\n      0x20\n      add\n      swap1\n      dup2\n      mstore\n      0x20\n      add\n      0x00\n      keccak256\n        /* \"main.sol\":3270:3303  Loan memory loan = loans[_poolId] */\n      mload(0x40)\n      dup1\n      0x0120\n      add\n      0x40\n      mstore\n      swap1\n      dup2\n      0x00\n      dup3\n      add\n      0x00\n      swap1\n      sload\n      swap1\n      0x0100\n      exp\n      swap1\n      div\n      0xffffffffffffffffffffffffffffffffffffffff\n      and\n      0xffffffffffffffffffffffffffffffffffffffff\n      and\n      0xffffffffffffffffffffffffffffffffffffffff\n      and\n      dup2\n      mstore\n      0x20\n      add\n      0x01\n      dup3\n      add\n      0x00\n      swap1\n      sload\n      swap1\n      0x0100\n      exp\n      swap1\n      div\n      0xffffffffffffffffffffffffffffffffffffffff\n      and\n      0xffffffffffffffffffffffffffffffffffffffff\n      and\n      0xffffffffffffffffffffffffffffffffffffffff\n      and\n      dup2\n      mstore\n      0x20\n      add\n      0x02\n      dup3\n      add\n      0x00\n      swap1\n      sload\n      swap1\n      0x0100\n      exp\n      swap1\n      div\n      0xffffffffffffffffffffffffffffffffffffffff\n      and\n      0xffffffffffffffffffffffffffffffffffffffff\n      and\n      0xffffffffffffffffffffffffffffffffffffffff\n      and\n      dup2\n      mstore\n      0x20\n      add\n      0x03\n      dup3\n      add\n      sload\n      dup2\n      mstore\n      0x20\n      add\n      0x04\n      dup3\n      add\n      sload\n      dup2\n      mstore\n      0x20\n      add\n      0x05\n      dup3\n      add\n      sload\n      dup2\n      mstore\n      0x20\n      add\n      0x06\n      dup3\n      add\n      sload\n      dup2\n      mstore\n      0x20\n      add\n      0x07\n      dup3\n      add\n      sload\n      dup2\n      mstore\n      0x20\n      add\n      0x08\n      dup3\n      add\n      0x00\n      swap1\n      sload\n      swap1\n      0x0100\n      exp\n      swap1\n      div\n      0xff\n      and\n      iszero\n      iszero\n      iszero\n      iszero\n      dup2\n      mstore\n      pop\n      pop\n      swap1\n      pop\n        /* \"main.sol\":3313:3334  Bid storage latestBid */\n      0x00\n        /* \"main.sol\":3337:3341  bids */\n      0x02\n        /* \"main.sol\":3337:3350  bids[_poolId] */\n      0x00\n        /* \"main.sol\":3342:3349  _poolId */\n      dup6\n        /* \"main.sol\":3337:3350  bids[_poolId] */\n      dup2\n      mstore\n      0x20\n      add\n      swap1\n      dup2\n      mstore\n      0x20\n      add\n      0x00\n      keccak256\n        /* \"main.sol\":3337:3364  bids[_poolId][loan.numBids] */\n      0x00\n        /* \"main.sol\":3351:3355  loan */\n      dup4\n        /* \"main.sol\":3351:3363  loan.numBids */\n      0xe0\n      add\n      mload\n        /* \"main.sol\":3337:3364  bids[_poolId][loan.numBids] */\n      dup2\n      mstore\n      0x20\n      add\n      swap1\n      dup2\n      mstore\n      0x20\n      add\n      0x00\n      keccak256\n        /* \"main.sol\":3313:3364  Bid storage latestBid = bids[_poolId][loan.numBids] */\n      swap1\n      pop\n        /* \"main.sol\":3400:3410  msg.sender */\n      caller\n        /* \"main.sol\":3382:3410  latestBid.user == msg.sender */\n      0xffffffffffffffffffffffffffffffffffffffff\n      and\n        /* \"main.sol\":3382:3391  latestBid */\n      dup2\n        /* \"main.sol\":3382:3396  latestBid.user */\n      0x02\n      add\n      0x00\n      swap1\n      sload\n      swap1\n      0x0100\n      exp\n      swap1\n      div\n      0xffffffffffffffffffffffffffffffffffffffff\n      and\n        /* \"main.sol\":3382:3410  latestBid.user == msg.sender */\n      0xffffffffffffffffffffffffffffffffffffffff\n      and\n      eq\n        /* \"main.sol\":3374:3441  require(latestBid.user == msg.sender, \"LAN: Not the latest bidder\") */\n      tag_162\n      jumpi\n      mload(0x40)\n      0x08c379a000000000000000000000000000000000000000000000000000000000\n      dup2\n      mstore\n      0x04\n      add\n      tag_163\n      swap1\n      tag_164\n      jump\t// in\n    tag_163:\n      mload(0x40)\n      dup1\n      swap2\n      sub\n      swap1\n      revert\n    tag_162:\n        /* \"main.sol\":3468:3479  _newAddress */\n      dup3\n        /* \"main.sol\":3451:3460  latestBid */\n      dup2\n        /* \"main.sol\":3451:3465  latestBid.user */\n      0x02\n      add\n      0x00\n        /* \"main.sol\":3451:3479  latestBid.user = _newAddress */\n      0x0100\n      exp\n      dup2\n      sload\n      dup2\n      0xffffffffffffffffffffffffffffffffffffffff\n      mul\n      not\n      and\n      swap1\n      dup4\n      0xffffffffffffffffffffffffffffffffffffffff\n      and\n      mul\n      or\n      swap1\n      sstore\n      pop\n        /* \"main.sol\":3146:3486  {... */\n      pop\n      pop\n        /* \"main.sol\":3075:3486  function setNewBidOwner(uint256 _poolId, address _newAddress) external {... */\n      pop\n      pop\n      jump\t// out\n        /* \"main.sol\":1009:1066  mapping(uint256 => address[]) public whitelistedAddresses */\n    tag_56:\n      mstore(0x20, 0x03)\n      dup2\n      0x00\n      mstore\n      keccak256(0x00, 0x40)\n      dup2\n      dup2\n      sload\n      dup2\n      lt\n      tag_165\n      jumpi\n      0x00\n      dup1\n      revert\n    tag_165:\n      swap1\n      0x00\n      mstore\n      keccak256(0x00, 0x20)\n      add\n      0x00\n      swap2\n      pop\n      swap2\n      pop\n      swap1\n      sload\n      swap1\n      0x0100\n      exp\n      swap1\n      div\n      0xffffffffffffffffffffffffffffffffffffffff\n      and\n      dup2\n      jump\t// out\n        /* \"main.sol\":708:745  mapping(uint256 => Loan) public loans */\n    tag_61:\n      mstore(0x20, 0x01)\n      dup1\n      0x00\n      mstore\n      keccak256(0x00, 0x40)\n      0x00\n      swap2\n      pop\n      swap1\n      pop\n      dup1\n      0x00\n      add\n      0x00\n      swap1\n      sload\n      swap1\n      0x0100\n      exp\n      swap1\n      div\n      0xffffffffffffffffffffffffffffffffffffffff\n      and\n      swap1\n      dup1\n      0x01\n      add\n      0x00\n      swap1\n      sload\n      swap1\n      0x0100\n      exp\n      swap1\n      div\n      0xffffffffffffffffffffffffffffffffffffffff\n      and\n      swap1\n      dup1\n      0x02\n      add\n      0x00\n      swap1\n      sload\n      swap1\n      0x0100\n      exp\n      swap1\n      div\n      0xffffffffffffffffffffffffffffffffffffffff\n      and\n      swap1\n      dup1\n      0x03\n      add\n      sload\n      swap1\n      dup1\n      0x04\n      add\n      sload\n      swap1\n      dup1\n      0x05\n      add\n      sload\n      swap1\n      dup1\n      0x06\n      add\n      sload\n      swap1\n      dup1\n      0x07\n      add\n      sload\n      swap1\n      dup1\n      0x08\n      add\n      0x00\n      swap1\n      sload\n      swap1\n      0x0100\n      exp\n      swap1\n      div\n      0xff\n      and\n      swap1\n      pop\n      dup10\n      jump\t// out\n        /* \"main.sol\":6082:6208  function _ended(uint256 _poolId) internal view returns (bool){... */\n    tag_70:\n        /* \"main.sol\":6138:6142  bool */\n      0x00\n        /* \"main.sol\":6186:6201  block.timestamp */\n      timestamp\n        /* \"main.sol\":6160:6165  loans */\n      0x01\n        /* \"main.sol\":6160:6174  loans[_poolId] */\n      0x00\n        /* \"main.sol\":6166:6173  _poolId */\n      dup5\n        /* \"main.sol\":6160:6174  loans[_poolId] */\n      dup2\n      mstore\n      0x20\n      add\n      swap1\n      dup2\n      mstore\n      0x20\n      add\n      0x00\n      keccak256\n        /* \"main.sol\":6160:6182  loans[_poolId].endTime */\n      0x05\n      add\n      sload\n        /* \"main.sol\":6160:6201  loans[_poolId].endTime <= block.timestamp */\n      gt\n      iszero\n        /* \"main.sol\":6153:6201  return loans[_poolId].endTime <= block.timestamp */\n      swap1\n      pop\n        /* \"main.sol\":6082:6208  function _ended(uint256 _poolId) internal view returns (bool){... */\n      swap2\n      swap1\n      pop\n      jump\t// out\n        /* \"main.sol\":6213:6342  function _started(uint256 _poolId) internal view returns (bool){... */\n    tag_115:\n        /* \"main.sol\":6271:6275  bool */\n      0x00\n        /* \"main.sol\":6320:6335  block.timestamp */\n      timestamp\n        /* \"main.sol\":6293:6298  loans */\n      0x01\n        /* \"main.sol\":6293:6307  loans[_poolId] */\n      0x00\n        /* \"main.sol\":6299:6306  _poolId */\n      dup5\n        /* \"main.sol\":6293:6307  loans[_poolId] */\n      dup2\n      mstore\n      0x20\n      add\n      swap1\n      dup2\n      mstore\n      0x20\n      add\n      0x00\n      keccak256\n        /* \"main.sol\":6293:6317  loans[_poolId].startTime */\n      0x04\n      add\n      sload\n        /* \"main.sol\":6293:6335  loans[_poolId].startTime < block.timestamp */\n      lt\n        /* \"main.sol\":6286:6335  return loans[_poolId].startTime < block.timestamp */\n      swap1\n      pop\n        /* \"main.sol\":6213:6342  function _started(uint256 _poolId) internal view returns (bool){... */\n      swap2\n      swap1\n      pop\n      jump\t// out\n        /* \"main.sol\":5558:6071  function _calculateLoanValue(uint256 _poolId) internal view returns (uint256){... */\n    tag_126:\n        /* \"main.sol\":5627:5634  uint256 */\n      0x00\n        /* \"main.sol\":5645:5661  Loan memory loan */\n      dup1\n        /* \"main.sol\":5664:5669  loans */\n      0x01\n        /* \"main.sol\":5664:5678  loans[_poolId] */\n      0x00\n        /* \"main.sol\":5670:5677  _poolId */\n      dup5\n        /* \"main.sol\":5664:5678  loans[_poolId] */\n      dup2\n      mstore\n      0x20\n      add\n      swap1\n      dup2\n      mstore\n      0x20\n      add\n      0x00\n      keccak256\n        /* \"main.sol\":5645:5678  Loan memory loan = loans[_poolId] */\n      mload(0x40)\n      dup1\n      0x0120\n      add\n      0x40\n      mstore\n      swap1\n      dup2\n      0x00\n      dup3\n      add\n      0x00\n      swap1\n      sload\n      swap1\n      0x0100\n      exp\n      swap1\n      div\n      0xffffffffffffffffffffffffffffffffffffffff\n      and\n      0xffffffffffffffffffffffffffffffffffffffff\n      and\n      0xffffffffffffffffffffffffffffffffffffffff\n      and\n      dup2\n      mstore\n      0x20\n      add\n      0x01\n      dup3\n      add\n      0x00\n      swap1\n      sload\n      swap1\n      0x0100\n      exp\n      swap1\n      div\n      0xffffffffffffffffffffffffffffffffffffffff\n      and\n      0xffffffffffffffffffffffffffffffffffffffff\n      and\n      0xffffffffffffffffffffffffffffffffffffffff\n      and\n      dup2\n      mstore\n      0x20\n      add\n      0x02\n      dup3\n      add\n      0x00\n      swap1\n      sload\n      swap1\n      0x0100\n      exp\n      swap1\n      div\n      0xffffffffffffffffffffffffffffffffffffffff\n      and\n      0xffffffffffffffffffffffffffffffffffffffff\n      and\n      0xffffffffffffffffffffffffffffffffffffffff\n      and\n      dup2\n      mstore\n      0x20\n      add\n      0x03\n      dup3\n      add\n      sload\n      dup2\n      mstore\n      0x20\n      add\n      0x04\n      dup3\n      add\n      sload\n      dup2\n      mstore\n      0x20\n      add\n      0x05\n      dup3\n      add\n      sload\n      dup2\n      mstore\n      0x20\n      add\n      0x06\n      dup3\n      add\n      sload\n      dup2\n      mstore\n      0x20\n      add\n      0x07\n      dup3\n      add\n      sload\n      dup2\n      mstore\n      0x20\n      add\n      0x08\n      dup3\n      add\n      0x00\n      swap1\n      sload\n      swap1\n      0x0100\n      exp\n      swap1\n      div\n      0xff\n      and\n      iszero\n      iszero\n      iszero\n      iszero\n      dup2\n      mstore\n      pop\n      pop\n      swap1\n      pop\n        /* \"main.sol\":5688:5708  Bid memory latestBid */\n      0x00\n        /* \"main.sol\":5711:5715  bids */\n      0x02\n        /* \"main.sol\":5711:5724  bids[_poolId] */\n      0x00\n        /* \"main.sol\":5716:5723  _poolId */\n      dup6\n        /* \"main.sol\":5711:5724  bids[_poolId] */\n      dup2\n      mstore\n      0x20\n      add\n      swap1\n      dup2\n      mstore\n      0x20\n      add\n      0x00\n      keccak256\n        /* \"main.sol\":5711:5738  bids[_poolId][loan.numBids] */\n      0x00\n        /* \"main.sol\":5725:5729  loan */\n      dup4\n        /* \"main.sol\":5725:5737  loan.numBids */\n      0xe0\n      add\n      mload\n        /* \"main.sol\":5711:5738  bids[_poolId][loan.numBids] */\n      dup2\n      mstore\n      0x20\n      add\n      swap1\n      dup2\n      mstore\n      0x20\n      add\n      0x00\n      keccak256\n        /* \"main.sol\":5688:5738  Bid memory latestBid = bids[_poolId][loan.numBids] */\n      mload(0x40)\n      dup1\n      0x60\n      add\n      0x40\n      mstore\n      swap1\n      dup2\n      0x00\n      dup3\n      add\n      sload\n      dup2\n      mstore\n      0x20\n      add\n      0x01\n      dup3\n      add\n      sload\n      dup2\n      mstore\n      0x20\n      add\n      0x02\n      dup3\n      add\n      0x00\n      swap1\n      sload\n      swap1\n      0x0100\n      exp\n      swap1\n      div\n      0xffffffffffffffffffffffffffffffffffffffff\n      and\n      0xffffffffffffffffffffffffffffffffffffffff\n      and\n      0xffffffffffffffffffffffffffffffffffffffff\n      and\n      dup2\n      mstore\n      pop\n      pop\n      swap1\n      pop\n        /* \"main.sol\":5748:5767  uint256 timeElapsed */\n      0x00\n        /* \"main.sol\":5780:5795  _ended(_poolId) */\n      tag_170\n        /* \"main.sol\":5787:5794  _poolId */\n      dup6\n        /* \"main.sol\":5780:5786  _ended */\n      tag_70\n        /* \"main.sol\":5780:5795  _ended(_poolId) */\n      jump\t// in\n    tag_170:\n        /* \"main.sol\":5777:5949  if(_ended(_poolId)){... */\n      iszero\n      tag_171\n      jumpi\n        /* \"main.sol\":5845:5849  loan */\n      dup3\n        /* \"main.sol\":5845:5857  loan.endTime */\n      0xa0\n      add\n      mload\n        /* \"main.sol\":5825:5834  latestBid */\n      dup3\n        /* \"main.sol\":5825:5842  latestBid.bidTime */\n      0x00\n      add\n      mload\n        /* \"main.sol\":5825:5857  latestBid.bidTime - loan.endTime */\n      tag_172\n      swap2\n      swap1\n      tag_136\n      jump\t// in\n    tag_172:\n        /* \"main.sol\":5810:5857  timeElapsed =  latestBid.bidTime - loan.endTime */\n      swap1\n      pop\n        /* \"main.sol\":5777:5949  if(_ended(_poolId)){... */\n      jump(tag_173)\n    tag_171:\n        /* \"main.sol\":5923:5938  block.timestamp */\n      timestamp\n        /* \"main.sol\":5903:5912  latestBid */\n      dup3\n        /* \"main.sol\":5903:5920  latestBid.bidTime */\n      0x00\n      add\n      mload\n        /* \"main.sol\":5903:5938  latestBid.bidTime - block.timestamp */\n      tag_174\n      swap2\n      swap1\n      tag_136\n      jump\t// in\n    tag_174:\n        /* \"main.sol\":5888:5938  timeElapsed =  latestBid.bidTime - block.timestamp */\n      swap1\n      pop\n        /* \"main.sol\":5777:5949  if(_ended(_poolId)){... */\n    tag_173:\n        /* \"main.sol\":1120:1132  60*60*24*365 */\n      0x01e13380\n        /* \"main.sol\":6031:6042  timeElapsed */\n      dup2\n        /* \"main.sol\":6020:6028  10 ** 18 */\n      0x0de0b6b3a7640000\n        /* \"main.sol\":6009:6013  loan */\n      dup6\n        /* \"main.sol\":6009:6017  loan.apr */\n      0xc0\n      add\n      mload\n        /* \"main.sol\":5987:5996  latestBid */\n      dup6\n        /* \"main.sol\":5987:6006  latestBid.bidAmount */\n      0x20\n      add\n      mload\n        /* \"main.sol\":5987:6017  latestBid.bidAmount * loan.apr */\n      tag_175\n      swap2\n      swap1\n      tag_176\n      jump\t// in\n    tag_175:\n        /* \"main.sol\":5987:6028  latestBid.bidAmount * loan.apr / 10 ** 18 */\n      tag_177\n      swap2\n      swap1\n      tag_178\n      jump\t// in\n    tag_177:\n        /* \"main.sol\":5987:6042  latestBid.bidAmount * loan.apr / 10 ** 18 * timeElapsed */\n      tag_179\n      swap2\n      swap1\n      tag_176\n      jump\t// in\n    tag_179:\n        /* \"main.sol\":5987:6064  latestBid.bidAmount * loan.apr / 10 ** 18 * timeElapsed / SECONDS_IN_ONE_YEAR */\n      tag_180\n      swap2\n      swap1\n      tag_178\n      jump\t// in\n    tag_180:\n        /* \"main.sol\":5965:5974  latestBid */\n      dup3\n        /* \"main.sol\":5965:5984  latestBid.bidAmount */\n      0x20\n      add\n      mload\n        /* \"main.sol\":5965:6064  latestBid.bidAmount + latestBid.bidAmount * loan.apr / 10 ** 18 * timeElapsed / SECONDS_IN_ONE_YEAR */\n      tag_181\n      swap2\n      swap1\n      tag_124\n      jump\t// in\n    tag_181:\n        /* \"main.sol\":5958:6064  return latestBid.bidAmount + latestBid.bidAmount * loan.apr / 10 ** 18 * timeElapsed / SECONDS_IN_ONE_YEAR */\n      swap4\n      pop\n      pop\n      pop\n      pop\n        /* \"main.sol\":5558:6071  function _calculateLoanValue(uint256 _poolId) internal view returns (uint256){... */\n      swap2\n      swap1\n      pop\n      jump\t// out\n    tag_101:\n      mload(0x40)\n      dup1\n      0x0120\n      add\n      0x40\n      mstore\n      dup1\n      and(0xffffffffffffffffffffffffffffffffffffffff, 0x00)\n      dup2\n      mstore\n      0x20\n      add\n      and(0xffffffffffffffffffffffffffffffffffffffff, 0x00)\n      dup2\n      mstore\n      0x20\n      add\n      and(0xffffffffffffffffffffffffffffffffffffffff, 0x00)\n      dup2\n      mstore\n      0x20\n      add\n      0x00\n      dup2\n      mstore\n      0x20\n      add\n      0x00\n      dup2\n      mstore\n      0x20\n      add\n      0x00\n      dup2\n      mstore\n      0x20\n      add\n      0x00\n      dup2\n      mstore\n      0x20\n      add\n      0x00\n      dup2\n      mstore\n      0x20\n      add\n      iszero(iszero(0x00))\n      dup2\n      mstore\n      pop\n      swap1\n      jump\t// out\n        /* \"#utility.yul\":7:84   */\n    tag_182:\n        /* \"#utility.yul\":44:51   */\n      0x00\n        /* \"#utility.yul\":73:78   */\n      dup2\n        /* \"#utility.yul\":62:78   */\n      swap1\n      pop\n        /* \"#utility.yul\":7:84   */\n      swap2\n      swap1\n      pop\n      jump\t// out\n        /* \"#utility.yul\":90:208   */\n    tag_183:\n        /* \"#utility.yul\":177:201   */\n      tag_229\n        /* \"#utility.yul\":195:200   */\n      dup2\n        /* \"#utility.yul\":177:201   */\n      tag_182\n      jump\t// in\n    tag_229:\n        /* \"#utility.yul\":172:175   */\n      dup3\n        /* \"#utility.yul\":165:202   */\n      mstore\n        /* \"#utility.yul\":90:208   */\n      pop\n      pop\n      jump\t// out\n        /* \"#utility.yul\":214:436   */\n    tag_19:\n        /* \"#utility.yul\":307:311   */\n      0x00\n        /* \"#utility.yul\":345:347   */\n      0x20\n        /* \"#utility.yul\":334:343   */\n      dup3\n        /* \"#utility.yul\":330:348   */\n      add\n        /* \"#utility.yul\":322:348   */\n      swap1\n      pop\n        /* \"#utility.yul\":358:429   */\n      tag_231\n        /* \"#utility.yul\":426:427   */\n      0x00\n        /* \"#utility.yul\":415:424   */\n      dup4\n        /* \"#utility.yul\":411:428   */\n      add\n        /* \"#utility.yul\":402:408   */\n      dup5\n        /* \"#utility.yul\":358:429   */\n      tag_183\n      jump\t// in\n    tag_231:\n        /* \"#utility.yul\":214:436   */\n      swap3\n      swap2\n      pop\n      pop\n      jump\t// out\n        /* \"#utility.yul\":523:640   */\n    tag_185:\n        /* \"#utility.yul\":632:633   */\n      0x00\n        /* \"#utility.yul\":629:630   */\n      dup1\n        /* \"#utility.yul\":622:634   */\n      revert\n        /* \"#utility.yul\":646:763   */\n    tag_186:\n        /* \"#utility.yul\":755:756   */\n      0x00\n        /* \"#utility.yul\":752:753   */\n      dup1\n        /* \"#utility.yul\":745:757   */\n      revert\n        /* \"#utility.yul\":769:891   */\n    tag_187:\n        /* \"#utility.yul\":842:866   */\n      tag_236\n        /* \"#utility.yul\":860:865   */\n      dup2\n        /* \"#utility.yul\":842:866   */\n      tag_182\n      jump\t// in\n    tag_236:\n        /* \"#utility.yul\":835:840   */\n      dup2\n        /* \"#utility.yul\":832:867   */\n      eq\n        /* \"#utility.yul\":822:885   */\n      tag_237\n      jumpi\n        /* \"#utility.yul\":881:882   */\n      0x00\n        /* \"#utility.yul\":878:879   */\n      dup1\n        /* \"#utility.yul\":871:883   */\n      revert\n        /* \"#utility.yul\":822:885   */\n    tag_237:\n        /* \"#utility.yul\":769:891   */\n      pop\n      jump\t// out\n        /* \"#utility.yul\":897:1036   */\n    tag_188:\n        /* \"#utility.yul\":943:948   */\n      0x00\n        /* \"#utility.yul\":981:987   */\n      dup2\n        /* \"#utility.yul\":968:988   */\n      calldataload\n        /* \"#utility.yul\":959:988   */\n      swap1\n      pop\n        /* \"#utility.yul\":997:1030   */\n      tag_239\n        /* \"#utility.yul\":1024:1029   */\n      dup2\n        /* \"#utility.yul\":997:1030   */\n      tag_187\n      jump\t// in\n    tag_239:\n        /* \"#utility.yul\":897:1036   */\n      swap3\n      swap2\n      pop\n      pop\n      jump\t// out\n        /* \"#utility.yul\":1042:1371   */\n    tag_22:\n        /* \"#utility.yul\":1101:1107   */\n      0x00\n        /* \"#utility.yul\":1150:1152   */\n      0x20\n        /* \"#utility.yul\":1138:1147   */\n      dup3\n        /* \"#utility.yul\":1129:1136   */\n      dup5\n        /* \"#utility.yul\":1125:1148   */\n      sub\n        /* \"#utility.yul\":1121:1153   */\n      slt\n        /* \"#utility.yul\":1118:1237   */\n      iszero\n      tag_241\n      jumpi\n        /* \"#utility.yul\":1156:1235   */\n      tag_242\n      tag_185\n      jump\t// in\n    tag_242:\n        /* \"#utility.yul\":1118:1237   */\n    tag_241:\n        /* \"#utility.yul\":1276:1277   */\n      0x00\n        /* \"#utility.yul\":1301:1354   */\n      tag_243\n        /* \"#utility.yul\":1346:1353   */\n      dup5\n        /* \"#utility.yul\":1337:1343   */\n      dup3\n        /* \"#utility.yul\":1326:1335   */\n      dup6\n        /* \"#utility.yul\":1322:1344   */\n      add\n        /* \"#utility.yul\":1301:1354   */\n      tag_188\n      jump\t// in\n    tag_243:\n        /* \"#utility.yul\":1291:1354   */\n      swap2\n      pop\n        /* \"#utility.yul\":1247:1364   */\n      pop\n        /* \"#utility.yul\":1042:1371   */\n      swap3\n      swap2\n      pop\n      pop\n      jump\t// out\n        /* \"#utility.yul\":1377:1503   */\n    tag_189:\n        /* \"#utility.yul\":1414:1421   */\n      0x00\n        /* \"#utility.yul\":1454:1496   */\n      0xffffffffffffffffffffffffffffffffffffffff\n        /* \"#utility.yul\":1447:1452   */\n      dup3\n        /* \"#utility.yul\":1443:1497   */\n      and\n        /* \"#utility.yul\":1432:1497   */\n      swap1\n      pop\n        /* \"#utility.yul\":1377:1503   */\n      swap2\n      swap1\n      pop\n      jump\t// out\n        /* \"#utility.yul\":1509:1605   */\n    tag_190:\n        /* \"#utility.yul\":1546:1553   */\n      0x00\n        /* \"#utility.yul\":1575:1599   */\n      tag_246\n        /* \"#utility.yul\":1593:1598   */\n      dup3\n        /* \"#utility.yul\":1575:1599   */\n      tag_189\n      jump\t// in\n    tag_246:\n        /* \"#utility.yul\":1564:1599   */\n      swap1\n      pop\n        /* \"#utility.yul\":1509:1605   */\n      swap2\n      swap1\n      pop\n      jump\t// out\n        /* \"#utility.yul\":1611:1733   */\n    tag_191:\n        /* \"#utility.yul\":1684:1708   */\n      tag_248\n        /* \"#utility.yul\":1702:1707   */\n      dup2\n        /* \"#utility.yul\":1684:1708   */\n      tag_190\n      jump\t// in\n    tag_248:\n        /* \"#utility.yul\":1677:1682   */\n      dup2\n        /* \"#utility.yul\":1674:1709   */\n      eq\n        /* \"#utility.yul\":1664:1727   */\n      tag_249\n      jumpi\n        /* \"#utility.yul\":1723:1724   */\n      0x00\n        /* \"#utility.yul\":1720:1721   */\n      dup1\n        /* \"#utility.yul\":1713:1725   */\n      revert\n        /* \"#utility.yul\":1664:1727   */\n    tag_249:\n        /* \"#utility.yul\":1611:1733   */\n      pop\n      jump\t// out\n        /* \"#utility.yul\":1739:1878   */\n    tag_192:\n        /* \"#utility.yul\":1785:1790   */\n      0x00\n        /* \"#utility.yul\":1823:1829   */\n      dup2\n        /* \"#utility.yul\":1810:1830   */\n      calldataload\n        /* \"#utility.yul\":1801:1830   */\n      swap1\n      pop\n        /* \"#utility.yul\":1839:1872   */\n      tag_251\n        /* \"#utility.yul\":1866:1871   */\n      dup2\n        /* \"#utility.yul\":1839:1872   */\n      tag_191\n      jump\t// in\n    tag_251:\n        /* \"#utility.yul\":1739:1878   */\n      swap3\n      swap2\n      pop\n      pop\n      jump\t// out\n        /* \"#utility.yul\":1884:1974   */\n    tag_193:\n        /* \"#utility.yul\":1918:1925   */\n      0x00\n        /* \"#utility.yul\":1961:1966   */\n      dup2\n        /* \"#utility.yul\":1954:1967   */\n      iszero\n        /* \"#utility.yul\":1947:1968   */\n      iszero\n        /* \"#utility.yul\":1936:1968   */\n      swap1\n      pop\n        /* \"#utility.yul\":1884:1974   */\n      swap2\n      swap1\n      pop\n      jump\t// out\n        /* \"#utility.yul\":1980:2096   */\n    tag_194:\n        /* \"#utility.yul\":2050:2071   */\n      tag_254\n        /* \"#utility.yul\":2065:2070   */\n      dup2\n        /* \"#utility.yul\":2050:2071   */\n      tag_193\n      jump\t// in\n    tag_254:\n        /* \"#utility.yul\":2043:2048   */\n      dup2\n        /* \"#utility.yul\":2040:2072   */\n      eq\n        /* \"#utility.yul\":2030:2090   */\n      tag_255\n      jumpi\n        /* \"#utility.yul\":2086:2087   */\n      0x00\n        /* \"#utility.yul\":2083:2084   */\n      dup1\n        /* \"#utility.yul\":2076:2088   */\n      revert\n        /* \"#utility.yul\":2030:2090   */\n    tag_255:\n        /* \"#utility.yul\":1980:2096   */\n      pop\n      jump\t// out\n        /* \"#utility.yul\":2102:2235   */\n    tag_195:\n        /* \"#utility.yul\":2145:2150   */\n      0x00\n        /* \"#utility.yul\":2183:2189   */\n      dup2\n        /* \"#utility.yul\":2170:2190   */\n      calldataload\n        /* \"#utility.yul\":2161:2190   */\n      swap1\n      pop\n        /* \"#utility.yul\":2199:2229   */\n      tag_257\n        /* \"#utility.yul\":2223:2228   */\n      dup2\n        /* \"#utility.yul\":2199:2229   */\n      tag_194\n      jump\t// in\n    tag_257:\n        /* \"#utility.yul\":2102:2235   */\n      swap3\n      swap2\n      pop\n      pop\n      jump\t// out\n        /* \"#utility.yul\":2241:3438   */\n    tag_26:\n        /* \"#utility.yul\":2351:2357   */\n      0x00\n        /* \"#utility.yul\":2359:2365   */\n      dup1\n        /* \"#utility.yul\":2367:2373   */\n      0x00\n        /* \"#utility.yul\":2375:2381   */\n      dup1\n        /* \"#utility.yul\":2383:2389   */\n      0x00\n        /* \"#utility.yul\":2391:2397   */\n      dup1\n        /* \"#utility.yul\":2399:2405   */\n      0x00\n        /* \"#utility.yul\":2448:2451   */\n      0xe0\n        /* \"#utility.yul\":2436:2445   */\n      dup9\n        /* \"#utility.yul\":2427:2434   */\n      dup11\n        /* \"#utility.yul\":2423:2446   */\n      sub\n        /* \"#utility.yul\":2419:2452   */\n      slt\n        /* \"#utility.yul\":2416:2536   */\n      iszero\n      tag_259\n      jumpi\n        /* \"#utility.yul\":2455:2534   */\n      tag_260\n      tag_185\n      jump\t// in\n    tag_260:\n        /* \"#utility.yul\":2416:2536   */\n    tag_259:\n        /* \"#utility.yul\":2575:2576   */\n      0x00\n        /* \"#utility.yul\":2600:2653   */\n      tag_261\n        /* \"#utility.yul\":2645:2652   */\n      dup11\n        /* \"#utility.yul\":2636:2642   */\n      dup3\n        /* \"#utility.yul\":2625:2634   */\n      dup12\n        /* \"#utility.yul\":2621:2643   */\n      add\n        /* \"#utility.yul\":2600:2653   */\n      tag_192\n      jump\t// in\n    tag_261:\n        /* \"#utility.yul\":2590:2653   */\n      swap8\n      pop\n        /* \"#utility.yul\":2546:2663   */\n      pop\n        /* \"#utility.yul\":2702:2704   */\n      0x20\n        /* \"#utility.yul\":2728:2781   */\n      tag_262\n        /* \"#utility.yul\":2773:2780   */\n      dup11\n        /* \"#utility.yul\":2764:2770   */\n      dup3\n        /* \"#utility.yul\":2753:2762   */\n      dup12\n        /* \"#utility.yul\":2749:2771   */\n      add\n        /* \"#utility.yul\":2728:2781   */\n      tag_192\n      jump\t// in\n    tag_262:\n        /* \"#utility.yul\":2718:2781   */\n      swap7\n      pop\n        /* \"#utility.yul\":2673:2791   */\n      pop\n        /* \"#utility.yul\":2830:2832   */\n      0x40\n        /* \"#utility.yul\":2856:2909   */\n      tag_263\n        /* \"#utility.yul\":2901:2908   */\n      dup11\n        /* \"#utility.yul\":2892:2898   */\n      dup3\n        /* \"#utility.yul\":2881:2890   */\n      dup12\n        /* \"#utility.yul\":2877:2899   */\n      add\n        /* \"#utility.yul\":2856:2909   */\n      tag_188\n      jump\t// in\n    tag_263:\n        /* \"#utility.yul\":2846:2909   */\n      swap6\n      pop\n        /* \"#utility.yul\":2801:2919   */\n      pop\n        /* \"#utility.yul\":2958:2960   */\n      0x60\n        /* \"#utility.yul\":2984:3037   */\n      tag_264\n        /* \"#utility.yul\":3029:3036   */\n      dup11\n        /* \"#utility.yul\":3020:3026   */\n      dup3\n        /* \"#utility.yul\":3009:3018   */\n      dup12\n        /* \"#utility.yul\":3005:3027   */\n      add\n        /* \"#utility.yul\":2984:3037   */\n      tag_188\n      jump\t// in\n    tag_264:\n        /* \"#utility.yul\":2974:3037   */\n      swap5\n      pop\n        /* \"#utility.yul\":2929:3047   */\n      pop\n        /* \"#utility.yul\":3086:3089   */\n      0x80\n        /* \"#utility.yul\":3113:3166   */\n      tag_265\n        /* \"#utility.yul\":3158:3165   */\n      dup11\n        /* \"#utility.yul\":3149:3155   */\n      dup3\n        /* \"#utility.yul\":3138:3147   */\n      dup12\n        /* \"#utility.yul\":3134:3156   */\n      add\n        /* \"#utility.yul\":3113:3166   */\n      tag_188\n      jump\t// in\n    tag_265:\n        /* \"#utility.yul\":3103:3166   */\n      swap4\n      pop\n        /* \"#utility.yul\":3057:3176   */\n      pop\n        /* \"#utility.yul\":3215:3218   */\n      0xa0\n        /* \"#utility.yul\":3242:3295   */\n      tag_266\n        /* \"#utility.yul\":3287:3294   */\n      dup11\n        /* \"#utility.yul\":3278:3284   */\n      dup3\n        /* \"#utility.yul\":3267:3276   */\n      dup12\n        /* \"#utility.yul\":3263:3285   */\n      add\n        /* \"#utility.yul\":3242:3295   */\n      tag_188\n      jump\t// in\n    tag_266:\n        /* \"#utility.yul\":3232:3295   */\n      swap3\n      pop\n        /* \"#utility.yul\":3186:3305   */\n      pop\n        /* \"#utility.yul\":3344:3347   */\n      0xc0\n        /* \"#utility.yul\":3371:3421   */\n      tag_267\n        /* \"#utility.yul\":3413:3420   */\n      dup11\n        /* \"#utility.yul\":3404:3410   */\n      dup3\n        /* \"#utility.yul\":3393:3402   */\n      dup12\n        /* \"#utility.yul\":3389:3411   */\n      add\n        /* \"#utility.yul\":3371:3421   */\n      tag_195\n      jump\t// in\n    tag_267:\n        /* \"#utility.yul\":3361:3421   */\n      swap2\n      pop\n        /* \"#utility.yul\":3315:3431   */\n      pop\n        /* \"#utility.yul\":2241:3438   */\n      swap3\n      swap6\n      swap9\n      swap2\n      swap5\n      swap8\n      pop\n      swap3\n      swap6\n      pop\n      jump\t// out\n        /* \"#utility.yul\":3444:3918   */\n    tag_36:\n        /* \"#utility.yul\":3512:3518   */\n      0x00\n        /* \"#utility.yul\":3520:3526   */\n      dup1\n        /* \"#utility.yul\":3569:3571   */\n      0x40\n        /* \"#utility.yul\":3557:3566   */\n      dup4\n        /* \"#utility.yul\":3548:3555   */\n      dup6\n        /* \"#utility.yul\":3544:3567   */\n      sub\n        /* \"#utility.yul\":3540:3572   */\n      slt\n        /* \"#utility.yul\":3537:3656   */\n      iszero\n      tag_269\n      jumpi\n        /* \"#utility.yul\":3575:3654   */\n      tag_270\n      tag_185\n      jump\t// in\n    tag_270:\n        /* \"#utility.yul\":3537:3656   */\n    tag_269:\n        /* \"#utility.yul\":3695:3696   */\n      0x00\n        /* \"#utility.yul\":3720:3773   */\n      tag_271\n        /* \"#utility.yul\":3765:3772   */\n      dup6\n        /* \"#utility.yul\":3756:3762   */\n      dup3\n        /* \"#utility.yul\":3745:3754   */\n      dup7\n        /* \"#utility.yul\":3741:3763   */\n      add\n        /* \"#utility.yul\":3720:3773   */\n      tag_188\n      jump\t// in\n    tag_271:\n        /* \"#utility.yul\":3710:3773   */\n      swap3\n      pop\n        /* \"#utility.yul\":3666:3783   */\n      pop\n        /* \"#utility.yul\":3822:3824   */\n      0x20\n        /* \"#utility.yul\":3848:3901   */\n      tag_272\n        /* \"#utility.yul\":3893:3900   */\n      dup6\n        /* \"#utility.yul\":3884:3890   */\n      dup3\n        /* \"#utility.yul\":3873:3882   */\n      dup7\n        /* \"#utility.yul\":3869:3891   */\n      add\n        /* \"#utility.yul\":3848:3901   */\n      tag_188\n      jump\t// in\n    tag_272:\n        /* \"#utility.yul\":3838:3901   */\n      swap2\n      pop\n        /* \"#utility.yul\":3793:3911   */\n      pop\n        /* \"#utility.yul\":3444:3918   */\n      swap3\n      pop\n      swap3\n      swap1\n      pop\n      jump\t// out\n        /* \"#utility.yul\":3924:4042   */\n    tag_196:\n        /* \"#utility.yul\":4011:4035   */\n      tag_274\n        /* \"#utility.yul\":4029:4034   */\n      dup2\n        /* \"#utility.yul\":4011:4035   */\n      tag_190\n      jump\t// in\n    tag_274:\n        /* \"#utility.yul\":4006:4009   */\n      dup3\n        /* \"#utility.yul\":3999:4036   */\n      mstore\n        /* \"#utility.yul\":3924:4042   */\n      pop\n      pop\n      jump\t// out\n        /* \"#utility.yul\":4048:4490   */\n    tag_45:\n        /* \"#utility.yul\":4197:4201   */\n      0x00\n        /* \"#utility.yul\":4235:4237   */\n      0x60\n        /* \"#utility.yul\":4224:4233   */\n      dup3\n        /* \"#utility.yul\":4220:4238   */\n      add\n        /* \"#utility.yul\":4212:4238   */\n      swap1\n      pop\n        /* \"#utility.yul\":4248:4319   */\n      tag_276\n        /* \"#utility.yul\":4316:4317   */\n      0x00\n        /* \"#utility.yul\":4305:4314   */\n      dup4\n        /* \"#utility.yul\":4301:4318   */\n      add\n        /* \"#utility.yul\":4292:4298   */\n      dup7\n        /* \"#utility.yul\":4248:4319   */\n      tag_183\n      jump\t// in\n    tag_276:\n        /* \"#utility.yul\":4329:4401   */\n      tag_277\n        /* \"#utility.yul\":4397:4399   */\n      0x20\n        /* \"#utility.yul\":4386:4395   */\n      dup4\n        /* \"#utility.yul\":4382:4400   */\n      add\n        /* \"#utility.yul\":4373:4379   */\n      dup6\n        /* \"#utility.yul\":4329:4401   */\n      tag_183\n      jump\t// in\n    tag_277:\n        /* \"#utility.yul\":4411:4483   */\n      tag_278\n        /* \"#utility.yul\":4479:4481   */\n      0x40\n        /* \"#utility.yul\":4468:4477   */\n      dup4\n        /* \"#utility.yul\":4464:4482   */\n      add\n        /* \"#utility.yul\":4455:4461   */\n      dup5\n        /* \"#utility.yul\":4411:4483   */\n      tag_196\n      jump\t// in\n    tag_278:\n        /* \"#utility.yul\":4048:4490   */\n      swap5\n      swap4\n      pop\n      pop\n      pop\n      pop\n      jump\t// out\n        /* \"#utility.yul\":4496:4613   */\n    tag_197:\n        /* \"#utility.yul\":4605:4606   */\n      0x00\n        /* \"#utility.yul\":4602:4603   */\n      dup1\n        /* \"#utility.yul\":4595:4607   */\n      revert\n        /* \"#utility.yul\":4619:4736   */\n    tag_198:\n        /* \"#utility.yul\":4728:4729   */\n      0x00\n        /* \"#utility.yul\":4725:4726   */\n      dup1\n        /* \"#utility.yul\":4718:4730   */\n      revert\n        /* \"#utility.yul\":4742:4859   */\n    tag_199:\n        /* \"#utility.yul\":4851:4852   */\n      0x00\n        /* \"#utility.yul\":4848:4849   */\n      dup1\n        /* \"#utility.yul\":4841:4853   */\n      revert\n        /* \"#utility.yul\":4882:5450   */\n    tag_200:\n        /* \"#utility.yul\":4955:4963   */\n      0x00\n        /* \"#utility.yul\":4965:4971   */\n      dup1\n        /* \"#utility.yul\":5015:5018   */\n      dup4\n        /* \"#utility.yul\":5008:5012   */\n      0x1f\n        /* \"#utility.yul\":5000:5006   */\n      dup5\n        /* \"#utility.yul\":4996:5013   */\n      add\n        /* \"#utility.yul\":4992:5019   */\n      slt\n        /* \"#utility.yul\":4982:5104   */\n      tag_283\n      jumpi\n        /* \"#utility.yul\":5023:5102   */\n      tag_284\n      tag_197\n      jump\t// in\n    tag_284:\n        /* \"#utility.yul\":4982:5104   */\n    tag_283:\n        /* \"#utility.yul\":5136:5142   */\n      dup3\n        /* \"#utility.yul\":5123:5143   */\n      calldataload\n        /* \"#utility.yul\":5113:5143   */\n      swap1\n      pop\n        /* \"#utility.yul\":5166:5184   */\n      0xffffffffffffffff\n        /* \"#utility.yul\":5158:5164   */\n      dup2\n        /* \"#utility.yul\":5155:5185   */\n      gt\n        /* \"#utility.yul\":5152:5269   */\n      iszero\n      tag_285\n      jumpi\n        /* \"#utility.yul\":5188:5267   */\n      tag_286\n      tag_198\n      jump\t// in\n    tag_286:\n        /* \"#utility.yul\":5152:5269   */\n    tag_285:\n        /* \"#utility.yul\":5302:5306   */\n      0x20\n        /* \"#utility.yul\":5294:5300   */\n      dup4\n        /* \"#utility.yul\":5290:5307   */\n      add\n        /* \"#utility.yul\":5278:5307   */\n      swap2\n      pop\n        /* \"#utility.yul\":5356:5359   */\n      dup4\n        /* \"#utility.yul\":5348:5352   */\n      0x20\n        /* \"#utility.yul\":5340:5346   */\n      dup3\n        /* \"#utility.yul\":5336:5353   */\n      mul\n        /* \"#utility.yul\":5326:5334   */\n      dup4\n        /* \"#utility.yul\":5322:5354   */\n      add\n        /* \"#utility.yul\":5319:5360   */\n      gt\n        /* \"#utility.yul\":5316:5444   */\n      iszero\n      tag_287\n      jumpi\n        /* \"#utility.yul\":5363:5442   */\n      tag_288\n      tag_199\n      jump\t// in\n    tag_288:\n        /* \"#utility.yul\":5316:5444   */\n    tag_287:\n        /* \"#utility.yul\":4882:5450   */\n      swap3\n      pop\n      swap3\n      swap1\n      pop\n      jump\t// out\n        /* \"#utility.yul\":5456:6160   */\n    tag_48:\n        /* \"#utility.yul\":5551:5557   */\n      0x00\n        /* \"#utility.yul\":5559:5565   */\n      dup1\n        /* \"#utility.yul\":5567:5573   */\n      0x00\n        /* \"#utility.yul\":5616:5618   */\n      0x40\n        /* \"#utility.yul\":5604:5613   */\n      dup5\n        /* \"#utility.yul\":5595:5602   */\n      dup7\n        /* \"#utility.yul\":5591:5614   */\n      sub\n        /* \"#utility.yul\":5587:5619   */\n      slt\n        /* \"#utility.yul\":5584:5703   */\n      iszero\n      tag_290\n      jumpi\n        /* \"#utility.yul\":5622:5701   */\n      tag_291\n      tag_185\n      jump\t// in\n    tag_291:\n        /* \"#utility.yul\":5584:5703   */\n    tag_290:\n        /* \"#utility.yul\":5742:5743   */\n      0x00\n        /* \"#utility.yul\":5767:5820   */\n      tag_292\n        /* \"#utility.yul\":5812:5819   */\n      dup7\n        /* \"#utility.yul\":5803:5809   */\n      dup3\n        /* \"#utility.yul\":5792:5801   */\n      dup8\n        /* \"#utility.yul\":5788:5810   */\n      add\n        /* \"#utility.yul\":5767:5820   */\n      tag_188\n      jump\t// in\n    tag_292:\n        /* \"#utility.yul\":5757:5820   */\n      swap4\n      pop\n        /* \"#utility.yul\":5713:5830   */\n      pop\n        /* \"#utility.yul\":5897:5899   */\n      0x20\n        /* \"#utility.yul\":5886:5895   */\n      dup5\n        /* \"#utility.yul\":5882:5900   */\n      add\n        /* \"#utility.yul\":5869:5901   */\n      calldataload\n        /* \"#utility.yul\":5928:5946   */\n      0xffffffffffffffff\n        /* \"#utility.yul\":5920:5926   */\n      dup2\n        /* \"#utility.yul\":5917:5947   */\n      gt\n        /* \"#utility.yul\":5914:6031   */\n      iszero\n      tag_293\n      jumpi\n        /* \"#utility.yul\":5950:6029   */\n      tag_294\n      tag_186\n      jump\t// in\n    tag_294:\n        /* \"#utility.yul\":5914:6031   */\n    tag_293:\n        /* \"#utility.yul\":6063:6143   */\n      tag_295\n        /* \"#utility.yul\":6135:6142   */\n      dup7\n        /* \"#utility.yul\":6126:6132   */\n      dup3\n        /* \"#utility.yul\":6115:6124   */\n      dup8\n        /* \"#utility.yul\":6111:6133   */\n      add\n        /* \"#utility.yul\":6063:6143   */\n      tag_200\n      jump\t// in\n    tag_295:\n        /* \"#utility.yul\":6045:6143   */\n      swap3\n      pop\n      swap3\n      pop\n        /* \"#utility.yul\":5840:6153   */\n      pop\n        /* \"#utility.yul\":5456:6160   */\n      swap3\n      pop\n      swap3\n      pop\n      swap3\n      jump\t// out\n        /* \"#utility.yul\":6166:6640   */\n    tag_52:\n        /* \"#utility.yul\":6234:6240   */\n      0x00\n        /* \"#utility.yul\":6242:6248   */\n      dup1\n        /* \"#utility.yul\":6291:6293   */\n      0x40\n        /* \"#utility.yul\":6279:6288   */\n      dup4\n        /* \"#utility.yul\":6270:6277   */\n      dup6\n        /* \"#utility.yul\":6266:6289   */\n      sub\n        /* \"#utility.yul\":6262:6294   */\n      slt\n        /* \"#utility.yul\":6259:6378   */\n      iszero\n      tag_297\n      jumpi\n        /* \"#utility.yul\":6297:6376   */\n      tag_298\n      tag_185\n      jump\t// in\n    tag_298:\n        /* \"#utility.yul\":6259:6378   */\n    tag_297:\n        /* \"#utility.yul\":6417:6418   */\n      0x00\n        /* \"#utility.yul\":6442:6495   */\n      tag_299\n        /* \"#utility.yul\":6487:6494   */\n      dup6\n        /* \"#utility.yul\":6478:6484   */\n      dup3\n        /* \"#utility.yul\":6467:6476   */\n      dup7\n        /* \"#utility.yul\":6463:6485   */\n      add\n        /* \"#utility.yul\":6442:6495   */\n      tag_188\n      jump\t// in\n    tag_299:\n        /* \"#utility.yul\":6432:6495   */\n      swap3\n      pop\n        /* \"#utility.yul\":6388:6505   */\n      pop\n        /* \"#utility.yul\":6544:6546   */\n      0x20\n        /* \"#utility.yul\":6570:6623   */\n      tag_300\n        /* \"#utility.yul\":6615:6622   */\n      dup6\n        /* \"#utility.yul\":6606:6612   */\n      dup3\n        /* \"#utility.yul\":6595:6604   */\n      dup7\n        /* \"#utility.yul\":6591:6613   */\n      add\n        /* \"#utility.yul\":6570:6623   */\n      tag_192\n      jump\t// in\n    tag_300:\n        /* \"#utility.yul\":6560:6623   */\n      swap2\n      pop\n        /* \"#utility.yul\":6515:6633   */\n      pop\n        /* \"#utility.yul\":6166:6640   */\n      swap3\n      pop\n      swap3\n      swap1\n      pop\n      jump\t// out\n        /* \"#utility.yul\":6646:6868   */\n    tag_58:\n        /* \"#utility.yul\":6739:6743   */\n      0x00\n        /* \"#utility.yul\":6777:6779   */\n      0x20\n        /* \"#utility.yul\":6766:6775   */\n      dup3\n        /* \"#utility.yul\":6762:6780   */\n      add\n        /* \"#utility.yul\":6754:6780   */\n      swap1\n      pop\n        /* \"#utility.yul\":6790:6861   */\n      tag_302\n        /* \"#utility.yul\":6858:6859   */\n      0x00\n        /* \"#utility.yul\":6847:6856   */\n      dup4\n        /* \"#utility.yul\":6843:6860   */\n      add\n        /* \"#utility.yul\":6834:6840   */\n      dup5\n        /* \"#utility.yul\":6790:6861   */\n      tag_196\n      jump\t// in\n    tag_302:\n        /* \"#utility.yul\":6646:6868   */\n      swap3\n      swap2\n      pop\n      pop\n      jump\t// out\n        /* \"#utility.yul\":6874:6983   */\n    tag_201:\n        /* \"#utility.yul\":6955:6976   */\n      tag_304\n        /* \"#utility.yul\":6970:6975   */\n      dup2\n        /* \"#utility.yul\":6955:6976   */\n      tag_193\n      jump\t// in\n    tag_304:\n        /* \"#utility.yul\":6950:6953   */\n      dup3\n        /* \"#utility.yul\":6943:6977   */\n      mstore\n        /* \"#utility.yul\":6874:6983   */\n      pop\n      pop\n      jump\t// out\n        /* \"#utility.yul\":6989:8085   */\n    tag_63:\n        /* \"#utility.yul\":7300:7304   */\n      0x00\n        /* \"#utility.yul\":7338:7341   */\n      0x0120\n        /* \"#utility.yul\":7327:7336   */\n      dup3\n        /* \"#utility.yul\":7323:7342   */\n      add\n        /* \"#utility.yul\":7315:7342   */\n      swap1\n      pop\n        /* \"#utility.yul\":7352:7423   */\n      tag_306\n        /* \"#utility.yul\":7420:7421   */\n      0x00\n        /* \"#utility.yul\":7409:7418   */\n      dup4\n        /* \"#utility.yul\":7405:7422   */\n      add\n        /* \"#utility.yul\":7396:7402   */\n      dup13\n        /* \"#utility.yul\":7352:7423   */\n      tag_196\n      jump\t// in\n    tag_306:\n        /* \"#utility.yul\":7433:7505   */\n      tag_307\n        /* \"#utility.yul\":7501:7503   */\n      0x20\n        /* \"#utility.yul\":7490:7499   */\n      dup4\n        /* \"#utility.yul\":7486:7504   */\n      add\n        /* \"#utility.yul\":7477:7483   */\n      dup12\n        /* \"#utility.yul\":7433:7505   */\n      tag_196\n      jump\t// in\n    tag_307:\n        /* \"#utility.yul\":7515:7587   */\n      tag_308\n        /* \"#utility.yul\":7583:7585   */\n      0x40\n        /* \"#utility.yul\":7572:7581   */\n      dup4\n        /* \"#utility.yul\":7568:7586   */\n      add\n        /* \"#utility.yul\":7559:7565   */\n      dup11\n        /* \"#utility.yul\":7515:7587   */\n      tag_196\n      jump\t// in\n    tag_308:\n        /* \"#utility.yul\":7597:7669   */\n      tag_309\n        /* \"#utility.yul\":7665:7667   */\n      0x60\n        /* \"#utility.yul\":7654:7663   */\n      dup4\n        /* \"#utility.yul\":7650:7668   */\n      add\n        /* \"#utility.yul\":7641:7647   */\n      dup10\n        /* \"#utility.yul\":7597:7669   */\n      tag_183\n      jump\t// in\n    tag_309:\n        /* \"#utility.yul\":7679:7752   */\n      tag_310\n        /* \"#utility.yul\":7747:7750   */\n      0x80\n        /* \"#utility.yul\":7736:7745   */\n      dup4\n        /* \"#utility.yul\":7732:7751   */\n      add\n        /* \"#utility.yul\":7723:7729   */\n      dup9\n        /* \"#utility.yul\":7679:7752   */\n      tag_183\n      jump\t// in\n    tag_310:\n        /* \"#utility.yul\":7762:7835   */\n      tag_311\n        /* \"#utility.yul\":7830:7833   */\n      0xa0\n        /* \"#utility.yul\":7819:7828   */\n      dup4\n        /* \"#utility.yul\":7815:7834   */\n      add\n        /* \"#utility.yul\":7806:7812   */\n      dup8\n        /* \"#utility.yul\":7762:7835   */\n      tag_183\n      jump\t// in\n    tag_311:\n        /* \"#utility.yul\":7845:7918   */\n      tag_312\n        /* \"#utility.yul\":7913:7916   */\n      0xc0\n        /* \"#utility.yul\":7902:7911   */\n      dup4\n        /* \"#utility.yul\":7898:7917   */\n      add\n        /* \"#utility.yul\":7889:7895   */\n      dup7\n        /* \"#utility.yul\":7845:7918   */\n      tag_183\n      jump\t// in\n    tag_312:\n        /* \"#utility.yul\":7928:8001   */\n      tag_313\n        /* \"#utility.yul\":7996:7999   */\n      0xe0\n        /* \"#utility.yul\":7985:7994   */\n      dup4\n        /* \"#utility.yul\":7981:8000   */\n      add\n        /* \"#utility.yul\":7972:7978   */\n      dup6\n        /* \"#utility.yul\":7928:8001   */\n      tag_183\n      jump\t// in\n    tag_313:\n        /* \"#utility.yul\":8011:8078   */\n      tag_314\n        /* \"#utility.yul\":8073:8076   */\n      0x0100\n        /* \"#utility.yul\":8062:8071   */\n      dup4\n        /* \"#utility.yul\":8058:8077   */\n      add\n        /* \"#utility.yul\":8049:8055   */\n      dup5\n        /* \"#utility.yul\":8011:8078   */\n      tag_201\n      jump\t// in\n    tag_314:\n        /* \"#utility.yul\":6989:8085   */\n      swap11\n      swap10\n      pop\n      pop\n      pop\n      pop\n      pop\n      pop\n      pop\n      pop\n      pop\n      pop\n      jump\t// out\n        /* \"#utility.yul\":8091:8260   */\n    tag_202:\n        /* \"#utility.yul\":8175:8186   */\n      0x00\n        /* \"#utility.yul\":8209:8215   */\n      dup3\n        /* \"#utility.yul\":8204:8207   */\n      dup3\n        /* \"#utility.yul\":8197:8216   */\n      mstore\n        /* \"#utility.yul\":8249:8253   */\n      0x20\n        /* \"#utility.yul\":8244:8247   */\n      dup3\n        /* \"#utility.yul\":8240:8254   */\n      add\n        /* \"#utility.yul\":8225:8254   */\n      swap1\n      pop\n        /* \"#utility.yul\":8091:8260   */\n      swap3\n      swap2\n      pop\n      pop\n      jump\t// out\n        /* \"#utility.yul\":8266:8430   */\n    tag_203:\n        /* \"#utility.yul\":8406:8422   */\n      0x4c414e3a206e6f74206f776e6572000000000000000000000000000000000000\n        /* \"#utility.yul\":8402:8403   */\n      0x00\n        /* \"#utility.yul\":8394:8400   */\n      dup3\n        /* \"#utility.yul\":8390:8404   */\n      add\n        /* \"#utility.yul\":8383:8423   */\n      mstore\n        /* \"#utility.yul\":8266:8430   */\n      pop\n      jump\t// out\n        /* \"#utility.yul\":8436:8802   */\n    tag_204:\n        /* \"#utility.yul\":8578:8581   */\n      0x00\n        /* \"#utility.yul\":8599:8666   */\n      tag_318\n        /* \"#utility.yul\":8663:8665   */\n      0x0e\n        /* \"#utility.yul\":8658:8661   */\n      dup4\n        /* \"#utility.yul\":8599:8666   */\n      tag_202\n      jump\t// in\n    tag_318:\n        /* \"#utility.yul\":8592:8666   */\n      swap2\n      pop\n        /* \"#utility.yul\":8675:8768   */\n      tag_319\n        /* \"#utility.yul\":8764:8767   */\n      dup3\n        /* \"#utility.yul\":8675:8768   */\n      tag_203\n      jump\t// in\n    tag_319:\n        /* \"#utility.yul\":8793:8795   */\n      0x20\n        /* \"#utility.yul\":8788:8791   */\n      dup3\n        /* \"#utility.yul\":8784:8796   */\n      add\n        /* \"#utility.yul\":8777:8796   */\n      swap1\n      pop\n        /* \"#utility.yul\":8436:8802   */\n      swap2\n      swap1\n      pop\n      jump\t// out\n        /* \"#utility.yul\":8808:9227   */\n    tag_67:\n        /* \"#utility.yul\":8974:8978   */\n      0x00\n        /* \"#utility.yul\":9012:9014   */\n      0x20\n        /* \"#utility.yul\":9001:9010   */\n      dup3\n        /* \"#utility.yul\":8997:9015   */\n      add\n        /* \"#utility.yul\":8989:9015   */\n      swap1\n      pop\n        /* \"#utility.yul\":9061:9070   */\n      dup2\n        /* \"#utility.yul\":9055:9059   */\n      dup2\n        /* \"#utility.yul\":9051:9071   */\n      sub\n        /* \"#utility.yul\":9047:9048   */\n      0x00\n        /* \"#utility.yul\":9036:9045   */\n      dup4\n        /* \"#utility.yul\":9032:9049   */\n      add\n        /* \"#utility.yul\":9025:9072   */\n      mstore\n        /* \"#utility.yul\":9089:9220   */\n      tag_321\n        /* \"#utility.yul\":9215:9219   */\n      dup2\n        /* \"#utility.yul\":9089:9220   */\n      tag_204\n      jump\t// in\n    tag_321:\n        /* \"#utility.yul\":9081:9220   */\n      swap1\n      pop\n        /* \"#utility.yul\":8808:9227   */\n      swap2\n      swap1\n      pop\n      jump\t// out\n        /* \"#utility.yul\":9233:9402   */\n    tag_205:\n        /* \"#utility.yul\":9373:9394   */\n      0x4c414e3a206c6f616e206e6f7420656e64656400000000000000000000000000\n        /* \"#utility.yul\":9369:9370   */\n      0x00\n        /* \"#utility.yul\":9361:9367   */\n      dup3\n        /* \"#utility.yul\":9357:9371   */\n      add\n        /* \"#utility.yul\":9350:9395   */\n      mstore\n        /* \"#utility.yul\":9233:9402   */\n      pop\n      jump\t// out\n        /* \"#utility.yul\":9408:9774   */\n    tag_206:\n        /* \"#utility.yul\":9550:9553   */\n      0x00\n        /* \"#utility.yul\":9571:9638   */\n      tag_324\n        /* \"#utility.yul\":9635:9637   */\n      0x13\n        /* \"#utility.yul\":9630:9633   */\n      dup4\n        /* \"#utility.yul\":9571:9638   */\n      tag_202\n      jump\t// in\n    tag_324:\n        /* \"#utility.yul\":9564:9638   */\n      swap2\n      pop\n        /* \"#utility.yul\":9647:9740   */\n      tag_325\n        /* \"#utility.yul\":9736:9739   */\n      dup3\n        /* \"#utility.yul\":9647:9740   */\n      tag_205\n      jump\t// in\n    tag_325:\n        /* \"#utility.yul\":9765:9767   */\n      0x20\n        /* \"#utility.yul\":9760:9763   */\n      dup3\n        /* \"#utility.yul\":9756:9768   */\n      add\n        /* \"#utility.yul\":9749:9768   */\n      swap1\n      pop\n        /* \"#utility.yul\":9408:9774   */\n      swap2\n      swap1\n      pop\n      jump\t// out\n        /* \"#utility.yul\":9780:10199   */\n    tag_73:\n        /* \"#utility.yul\":9946:9950   */\n      0x00\n        /* \"#utility.yul\":9984:9986   */\n      0x20\n        /* \"#utility.yul\":9973:9982   */\n      dup3\n        /* \"#utility.yul\":9969:9987   */\n      add\n        /* \"#utility.yul\":9961:9987   */\n      swap1\n      pop\n        /* \"#utility.yul\":10033:10042   */\n      dup2\n        /* \"#utility.yul\":10027:10031   */\n      dup2\n        /* \"#utility.yul\":10023:10043   */\n      sub\n        /* \"#utility.yul\":10019:10020   */\n      0x00\n        /* \"#utility.yul\":10008:10017   */\n      dup4\n        /* \"#utility.yul\":10004:10021   */\n      add\n        /* \"#utility.yul\":9997:10044   */\n      mstore\n        /* \"#utility.yul\":10061:10192   */\n      tag_327\n        /* \"#utility.yul\":10187:10191   */\n      dup2\n        /* \"#utility.yul\":10061:10192   */\n      tag_206\n      jump\t// in\n    tag_327:\n        /* \"#utility.yul\":10053:10192   */\n      swap1\n      pop\n        /* \"#utility.yul\":9780:10199   */\n      swap2\n      swap1\n      pop\n      jump\t// out\n        /* \"#utility.yul\":10205:10377   */\n    tag_207:\n        /* \"#utility.yul\":10345:10369   */\n      0x4c414e3a206e6f74206c61746573742062696464657200000000000000000000\n        /* \"#utility.yul\":10341:10342   */\n      0x00\n        /* \"#utility.yul\":10333:10339   */\n      dup3\n        /* \"#utility.yul\":10329:10343   */\n      add\n        /* \"#utility.yul\":10322:10370   */\n      mstore\n        /* \"#utility.yul\":10205:10377   */\n      pop\n      jump\t// out\n        /* \"#utility.yul\":10383:10749   */\n    tag_208:\n        /* \"#utility.yul\":10525:10528   */\n      0x00\n        /* \"#utility.yul\":10546:10613   */\n      tag_330\n        /* \"#utility.yul\":10610:10612   */\n      0x16\n        /* \"#utility.yul\":10605:10608   */\n      dup4\n        /* \"#utility.yul\":10546:10613   */\n      tag_202\n      jump\t// in\n    tag_330:\n        /* \"#utility.yul\":10539:10613   */\n      swap2\n      pop\n        /* \"#utility.yul\":10622:10715   */\n      tag_331\n        /* \"#utility.yul\":10711:10714   */\n      dup3\n        /* \"#utility.yul\":10622:10715   */\n      tag_207\n      jump\t// in\n    tag_331:\n        /* \"#utility.yul\":10740:10742   */\n      0x20\n        /* \"#utility.yul\":10735:10738   */\n      dup3\n        /* \"#utility.yul\":10731:10743   */\n      add\n        /* \"#utility.yul\":10724:10743   */\n      swap1\n      pop\n        /* \"#utility.yul\":10383:10749   */\n      swap2\n      swap1\n      pop\n      jump\t// out\n        /* \"#utility.yul\":10755:11174   */\n    tag_76:\n        /* \"#utility.yul\":10921:10925   */\n      0x00\n        /* \"#utility.yul\":10959:10961   */\n      0x20\n        /* \"#utility.yul\":10948:10957   */\n      dup3\n        /* \"#utility.yul\":10944:10962   */\n      add\n        /* \"#utility.yul\":10936:10962   */\n      swap1\n      pop\n        /* \"#utility.yul\":11008:11017   */\n      dup2\n        /* \"#utility.yul\":11002:11006   */\n      dup2\n        /* \"#utility.yul\":10998:11018   */\n      sub\n        /* \"#utility.yul\":10994:10995   */\n      0x00\n        /* \"#utility.yul\":10983:10992   */\n      dup4\n        /* \"#utility.yul\":10979:10996   */\n      add\n        /* \"#utility.yul\":10972:11019   */\n      mstore\n        /* \"#utility.yul\":11036:11167   */\n      tag_333\n        /* \"#utility.yul\":11162:11166   */\n      dup2\n        /* \"#utility.yul\":11036:11167   */\n      tag_208\n      jump\t// in\n    tag_333:\n        /* \"#utility.yul\":11028:11167   */\n      swap1\n      pop\n        /* \"#utility.yul\":10755:11174   */\n      swap2\n      swap1\n      pop\n      jump\t// out\n        /* \"#utility.yul\":11180:11622   */\n    tag_78:\n        /* \"#utility.yul\":11329:11333   */\n      0x00\n        /* \"#utility.yul\":11367:11369   */\n      0x60\n        /* \"#utility.yul\":11356:11365   */\n      dup3\n        /* \"#utility.yul\":11352:11370   */\n      add\n        /* \"#utility.yul\":11344:11370   */\n      swap1\n      pop\n        /* \"#utility.yul\":11380:11451   */\n      tag_335\n        /* \"#utility.yul\":11448:11449   */\n      0x00\n        /* \"#utility.yul\":11437:11446   */\n      dup4\n        /* \"#utility.yul\":11433:11450   */\n      add\n        /* \"#utility.yul\":11424:11430   */\n      dup7\n        /* \"#utility.yul\":11380:11451   */\n      tag_196\n      jump\t// in\n    tag_335:\n        /* \"#utility.yul\":11461:11533   */\n      tag_336\n        /* \"#utility.yul\":11529:11531   */\n      0x20\n        /* \"#utility.yul\":11518:11527   */\n      dup4\n        /* \"#utility.yul\":11514:11532   */\n      add\n        /* \"#utility.yul\":11505:11511   */\n      dup6\n        /* \"#utility.yul\":11461:11533   */\n      tag_196\n      jump\t// in\n    tag_336:\n        /* \"#utility.yul\":11543:11615   */\n      tag_337\n        /* \"#utility.yul\":11611:11613   */\n      0x40\n        /* \"#utility.yul\":11600:11609   */\n      dup4\n        /* \"#utility.yul\":11596:11614   */\n      add\n        /* \"#utility.yul\":11587:11593   */\n      dup5\n        /* \"#utility.yul\":11543:11615   */\n      tag_183\n      jump\t// in\n    tag_337:\n        /* \"#utility.yul\":11180:11622   */\n      swap5\n      swap4\n      pop\n      pop\n      pop\n      pop\n      jump\t// out\n        /* \"#utility.yul\":11628:11801   */\n    tag_209:\n        /* \"#utility.yul\":11768:11793   */\n      0x4c414e3a2073746172742074696d6520696e2070617374000000000000000000\n        /* \"#utility.yul\":11764:11765   */\n      0x00\n        /* \"#utility.yul\":11756:11762   */\n      dup3\n        /* \"#utility.yul\":11752:11766   */\n      add\n        /* \"#utility.yul\":11745:11794   */\n      mstore\n        /* \"#utility.yul\":11628:11801   */\n      pop\n      jump\t// out\n        /* \"#utility.yul\":11807:12173   */\n    tag_210:\n        /* \"#utility.yul\":11949:11952   */\n      0x00\n        /* \"#utility.yul\":11970:12037   */\n      tag_340\n        /* \"#utility.yul\":12034:12036   */\n      0x17\n        /* \"#utility.yul\":12029:12032   */\n      dup4\n        /* \"#utility.yul\":11970:12037   */\n      tag_202\n      jump\t// in\n    tag_340:\n        /* \"#utility.yul\":11963:12037   */\n      swap2\n      pop\n        /* \"#utility.yul\":12046:12139   */\n      tag_341\n        /* \"#utility.yul\":12135:12138   */\n      dup3\n        /* \"#utility.yul\":12046:12139   */\n      tag_209\n      jump\t// in\n    tag_341:\n        /* \"#utility.yul\":12164:12166   */\n      0x20\n        /* \"#utility.yul\":12159:12162   */\n      dup3\n        /* \"#utility.yul\":12155:12167   */\n      add\n        /* \"#utility.yul\":12148:12167   */\n      swap1\n      pop\n        /* \"#utility.yul\":11807:12173   */\n      swap2\n      swap1\n      pop\n      jump\t// out\n        /* \"#utility.yul\":12179:12598   */\n    tag_85:\n        /* \"#utility.yul\":12345:12349   */\n      0x00\n        /* \"#utility.yul\":12383:12385   */\n      0x20\n        /* \"#utility.yul\":12372:12381   */\n      dup3\n        /* \"#utility.yul\":12368:12386   */\n      add\n        /* \"#utility.yul\":12360:12386   */\n      swap1\n      pop\n        /* \"#utility.yul\":12432:12441   */\n      dup2\n        /* \"#utility.yul\":12426:12430   */\n      dup2\n        /* \"#utility.yul\":12422:12442   */\n      sub\n        /* \"#utility.yul\":12418:12419   */\n      0x00\n        /* \"#utility.yul\":12407:12416   */\n      dup4\n        /* \"#utility.yul\":12403:12420   */\n      add\n        /* \"#utility.yul\":12396:12443   */\n      mstore\n        /* \"#utility.yul\":12460:12591   */\n      tag_343\n        /* \"#utility.yul\":12586:12590   */\n      dup2\n        /* \"#utility.yul\":12460:12591   */\n      tag_210\n      jump\t// in\n    tag_343:\n        /* \"#utility.yul\":12452:12591   */\n      swap1\n      pop\n        /* \"#utility.yul\":12179:12598   */\n      swap2\n      swap1\n      pop\n      jump\t// out\n        /* \"#utility.yul\":12604:12774   */\n    tag_211:\n        /* \"#utility.yul\":12744:12766   */\n      0x4c414e3a20737461727420616674657220656e64000000000000000000000000\n        /* \"#utility.yul\":12740:12741   */\n      0x00\n        /* \"#utility.yul\":12732:12738   */\n      dup3\n        /* \"#utility.yul\":12728:12742   */\n      add\n        /* \"#utility.yul\":12721:12767   */\n      mstore\n        /* \"#utility.yul\":12604:12774   */\n      pop\n      jump\t// out\n        /* \"#utility.yul\":12780:13146   */\n    tag_212:\n        /* \"#utility.yul\":12922:12925   */\n      0x00\n        /* \"#utility.yul\":12943:13010   */\n      tag_346\n        /* \"#utility.yul\":13007:13009   */\n      0x14\n        /* \"#utility.yul\":13002:13005   */\n      dup4\n        /* \"#utility.yul\":12943:13010   */\n      tag_202\n      jump\t// in\n    tag_346:\n        /* \"#utility.yul\":12936:13010   */\n      swap2\n      pop\n        /* \"#utility.yul\":13019:13112   */\n      tag_347\n        /* \"#utility.yul\":13108:13111   */\n      dup3\n        /* \"#utility.yul\":13019:13112   */\n      tag_211\n      jump\t// in\n    tag_347:\n        /* \"#utility.yul\":13137:13139   */\n      0x20\n        /* \"#utility.yul\":13132:13135   */\n      dup3\n        /* \"#utility.yul\":13128:13140   */\n      add\n        /* \"#utility.yul\":13121:13140   */\n      swap1\n      pop\n        /* \"#utility.yul\":12780:13146   */\n      swap2\n      swap1\n      pop\n      jump\t// out\n        /* \"#utility.yul\":13152:13571   */\n    tag_88:\n        /* \"#utility.yul\":13318:13322   */\n      0x00\n        /* \"#utility.yul\":13356:13358   */\n      0x20\n        /* \"#utility.yul\":13345:13354   */\n      dup3\n        /* \"#utility.yul\":13341:13359   */\n      add\n        /* \"#utility.yul\":13333:13359   */\n      swap1\n      pop\n        /* \"#utility.yul\":13405:13414   */\n      dup2\n        /* \"#utility.yul\":13399:13403   */\n      dup2\n        /* \"#utility.yul\":13395:13415   */\n      sub\n        /* \"#utility.yul\":13391:13392   */\n      0x00\n        /* \"#utility.yul\":13380:13389   */\n      dup4\n        /* \"#utility.yul\":13376:13393   */\n      add\n        /* \"#utility.yul\":13369:13416   */\n      mstore\n        /* \"#utility.yul\":13433:13564   */\n      tag_349\n        /* \"#utility.yul\":13559:13563   */\n      dup2\n        /* \"#utility.yul\":13433:13564   */\n      tag_212\n      jump\t// in\n    tag_349:\n        /* \"#utility.yul\":13425:13564   */\n      swap1\n      pop\n        /* \"#utility.yul\":13152:13571   */\n      swap2\n      swap1\n      pop\n      jump\t// out\n        /* \"#utility.yul\":13577:13909   */\n    tag_90:\n        /* \"#utility.yul\":13698:13702   */\n      0x00\n        /* \"#utility.yul\":13736:13738   */\n      0x40\n        /* \"#utility.yul\":13725:13734   */\n      dup3\n        /* \"#utility.yul\":13721:13739   */\n      add\n        /* \"#utility.yul\":13713:13739   */\n      swap1\n      pop\n        /* \"#utility.yul\":13749:13820   */\n      tag_351\n        /* \"#utility.yul\":13817:13818   */\n      0x00\n        /* \"#utility.yul\":13806:13815   */\n      dup4\n        /* \"#utility.yul\":13802:13819   */\n      add\n        /* \"#utility.yul\":13793:13799   */\n      dup6\n        /* \"#utility.yul\":13749:13820   */\n      tag_196\n      jump\t// in\n    tag_351:\n        /* \"#utility.yul\":13830:13902   */\n      tag_352\n        /* \"#utility.yul\":13898:13900   */\n      0x20\n        /* \"#utility.yul\":13887:13896   */\n      dup4\n        /* \"#utility.yul\":13883:13901   */\n      add\n        /* \"#utility.yul\":13874:13880   */\n      dup5\n        /* \"#utility.yul\":13830:13902   */\n      tag_183\n      jump\t// in\n    tag_352:\n        /* \"#utility.yul\":13577:13909   */\n      swap4\n      swap3\n      pop\n      pop\n      pop\n      jump\t// out\n        /* \"#utility.yul\":13915:14095   */\n    tag_213:\n        /* \"#utility.yul\":13963:14040   */\n      0x4e487b7100000000000000000000000000000000000000000000000000000000\n        /* \"#utility.yul\":13960:13961   */\n      0x00\n        /* \"#utility.yul\":13953:14041   */\n      mstore\n        /* \"#utility.yul\":14060:14064   */\n      0x11\n        /* \"#utility.yul\":14057:14058   */\n      0x04\n        /* \"#utility.yul\":14050:14065   */\n      mstore\n        /* \"#utility.yul\":14084:14088   */\n      0x24\n        /* \"#utility.yul\":14081:14082   */\n      0x00\n        /* \"#utility.yul\":14074:14089   */\n      revert\n        /* \"#utility.yul\":14101:14334   */\n    tag_92:\n        /* \"#utility.yul\":14140:14143   */\n      0x00\n        /* \"#utility.yul\":14163:14187   */\n      tag_355\n        /* \"#utility.yul\":14181:14186   */\n      dup3\n        /* \"#utility.yul\":14163:14187   */\n      tag_182\n      jump\t// in\n    tag_355:\n        /* \"#utility.yul\":14154:14187   */\n      swap2\n      pop\n        /* \"#utility.yul\":14209:14275   */\n      0xffffffffffffffffffffffffffffffffffffffffffffffffffffffffffffffff\n        /* \"#utility.yul\":14202:14207   */\n      dup3\n        /* \"#utility.yul\":14199:14276   */\n      sub\n        /* \"#utility.yul\":14196:14299   */\n      tag_356\n      jumpi\n        /* \"#utility.yul\":14279:14297   */\n      tag_357\n      tag_213\n      jump\t// in\n    tag_357:\n        /* \"#utility.yul\":14196:14299   */\n    tag_356:\n        /* \"#utility.yul\":14326:14327   */\n      0x01\n        /* \"#utility.yul\":14319:14324   */\n      dup3\n        /* \"#utility.yul\":14315:14328   */\n      add\n        /* \"#utility.yul\":14308:14328   */\n      swap1\n      pop\n        /* \"#utility.yul\":14101:14334   */\n      swap2\n      swap1\n      pop\n      jump\t// out\n        /* \"#utility.yul\":14340:14510   */\n    tag_214:\n        /* \"#utility.yul\":14480:14502   */\n      0x4c414e3a20616c72656164792073746172746564000000000000000000000000\n        /* \"#utility.yul\":14476:14477   */\n      0x00\n        /* \"#utility.yul\":14468:14474   */\n      dup3\n        /* \"#utility.yul\":14464:14478   */\n      add\n        /* \"#utility.yul\":14457:14503   */\n      mstore\n        /* \"#utility.yul\":14340:14510   */\n      pop\n      jump\t// out\n        /* \"#utility.yul\":14516:14882   */\n    tag_215:\n        /* \"#utility.yul\":14658:14661   */\n      0x00\n        /* \"#utility.yul\":14679:14746   */\n      tag_360\n        /* \"#utility.yul\":14743:14745   */\n      0x14\n        /* \"#utility.yul\":14738:14741   */\n      dup4\n        /* \"#utility.yul\":14679:14746   */\n      tag_202\n      jump\t// in\n    tag_360:\n        /* \"#utility.yul\":14672:14746   */\n      swap2\n      pop\n        /* \"#utility.yul\":14755:14848   */\n      tag_361\n        /* \"#utility.yul\":14844:14847   */\n      dup3\n        /* \"#utility.yul\":14755:14848   */\n      tag_214\n      jump\t// in\n    tag_361:\n        /* \"#utility.yul\":14873:14875   */\n      0x20\n        /* \"#utility.yul\":14868:14871   */\n      dup3\n        /* \"#utility.yul\":14864:14876   */\n      add\n        /* \"#utility.yul\":14857:14876   */\n      swap1\n      pop\n        /* \"#utility.yul\":14516:14882   */\n      swap2\n      swap1\n      pop\n      jump\t// out\n        /* \"#utility.yul\":14888:15307   */\n    tag_99:\n        /* \"#utility.yul\":15054:15058   */\n      0x00\n        /* \"#utility.yul\":15092:15094   */\n      0x20\n        /* \"#utility.yul\":15081:15090   */\n      dup3\n        /* \"#utility.yul\":15077:15095   */\n      add\n        /* \"#utility.yul\":15069:15095   */\n      swap1\n      pop\n        /* \"#utility.yul\":15141:15150   */\n      dup2\n        /* \"#utility.yul\":15135:15139   */\n      dup2\n        /* \"#utility.yul\":15131:15151   */\n      sub\n        /* \"#utility.yul\":15127:15128   */\n      0x00\n        /* \"#utility.yul\":15116:15125   */\n      dup4\n        /* \"#utility.yul\":15112:15129   */\n      add\n        /* \"#utility.yul\":15105:15152   */\n      mstore\n        /* \"#utility.yul\":15169:15300   */\n      tag_363\n        /* \"#utility.yul\":15295:15299   */\n      dup2\n        /* \"#utility.yul\":15169:15300   */\n      tag_215\n      jump\t// in\n    tag_363:\n        /* \"#utility.yul\":15161:15300   */\n      swap1\n      pop\n        /* \"#utility.yul\":14888:15307   */\n      swap2\n      swap1\n      pop\n      jump\t// out\n        /* \"#utility.yul\":15313:15479   */\n    tag_216:\n        /* \"#utility.yul\":15453:15471   */\n      0x4c414e3a206e6f74207374617274656400000000000000000000000000000000\n        /* \"#utility.yul\":15449:15450   */\n      0x00\n        /* \"#utility.yul\":15441:15447   */\n      dup3\n        /* \"#utility.yul\":15437:15451   */\n      add\n        /* \"#utility.yul\":15430:15472   */\n      mstore\n        /* \"#utility.yul\":15313:15479   */\n      pop\n      jump\t// out\n        /* \"#utility.yul\":15485:15851   */\n    tag_217:\n        /* \"#utility.yul\":15627:15630   */\n      0x00\n        /* \"#utility.yul\":15648:15715   */\n      tag_366\n        /* \"#utility.yul\":15712:15714   */\n      0x10\n        /* \"#utility.yul\":15707:15710   */\n      dup4\n        /* \"#utility.yul\":15648:15715   */\n      tag_202\n      jump\t// in\n    tag_366:\n        /* \"#utility.yul\":15641:15715   */\n      swap2\n      pop\n        /* \"#utility.yul\":15724:15817   */\n      tag_367\n        /* \"#utility.yul\":15813:15816   */\n      dup3\n        /* \"#utility.yul\":15724:15817   */\n      tag_216\n      jump\t// in\n    tag_367:\n        /* \"#utility.yul\":15842:15844   */\n      0x20\n        /* \"#utility.yul\":15837:15840   */\n      dup3\n        /* \"#utility.yul\":15833:15845   */\n      add\n        /* \"#utility.yul\":15826:15845   */\n      swap1\n      pop\n        /* \"#utility.yul\":15485:15851   */\n      swap2\n      swap1\n      pop\n      jump\t// out\n        /* \"#utility.yul\":15857:16276   */\n    tag_118:\n        /* \"#utility.yul\":16023:16027   */\n      0x00\n        /* \"#utility.yul\":16061:16063   */\n      0x20\n        /* \"#utility.yul\":16050:16059   */\n      dup3\n        /* \"#utility.yul\":16046:16064   */\n      add\n        /* \"#utility.yul\":16038:16064   */\n      swap1\n      pop\n        /* \"#utility.yul\":16110:16119   */\n      dup2\n        /* \"#utility.yul\":16104:16108   */\n      dup2\n        /* \"#utility.yul\":16100:16120   */\n      sub\n        /* \"#utility.yul\":16096:16097   */\n      0x00\n        /* \"#utility.yul\":16085:16094   */\n      dup4\n        /* \"#utility.yul\":16081:16098   */\n      add\n        /* \"#utility.yul\":16074:16121   */\n      mstore\n        /* \"#utility.yul\":16138:16269   */\n      tag_369\n        /* \"#utility.yul\":16264:16268   */\n      dup2\n        /* \"#utility.yul\":16138:16269   */\n      tag_217\n      jump\t// in\n    tag_369:\n        /* \"#utility.yul\":16130:16269   */\n      swap1\n      pop\n        /* \"#utility.yul\":15857:16276   */\n      swap2\n      swap1\n      pop\n      jump\t// out\n        /* \"#utility.yul\":16282:16450   */\n    tag_218:\n        /* \"#utility.yul\":16422:16442   */\n      0x4c414e3a20616c726561647920656e6465640000000000000000000000000000\n        /* \"#utility.yul\":16418:16419   */\n      0x00\n        /* \"#utility.yul\":16410:16416   */\n      dup3\n        /* \"#utility.yul\":16406:16420   */\n      add\n        /* \"#utility.yul\":16399:16443   */\n      mstore\n        /* \"#utility.yul\":16282:16450   */\n      pop\n      jump\t// out\n        /* \"#utility.yul\":16456:16822   */\n    tag_219:\n        /* \"#utility.yul\":16598:16601   */\n      0x00\n        /* \"#utility.yul\":16619:16686   */\n      tag_372\n        /* \"#utility.yul\":16683:16685   */\n      0x12\n        /* \"#utility.yul\":16678:16681   */\n      dup4\n        /* \"#utility.yul\":16619:16686   */\n      tag_202\n      jump\t// in\n    tag_372:\n        /* \"#utility.yul\":16612:16686   */\n      swap2\n      pop\n        /* \"#utility.yul\":16695:16788   */\n      tag_373\n        /* \"#utility.yul\":16784:16787   */\n      dup3\n        /* \"#utility.yul\":16695:16788   */\n      tag_218\n      jump\t// in\n    tag_373:\n        /* \"#utility.yul\":16813:16815   */\n      0x20\n        /* \"#utility.yul\":16808:16811   */\n      dup3\n        /* \"#utility.yul\":16804:16816   */\n      add\n        /* \"#utility.yul\":16797:16816   */\n      swap1\n      pop\n        /* \"#utility.yul\":16456:16822   */\n      swap2\n      swap1\n      pop\n      jump\t// out\n        /* \"#utility.yul\":16828:17247   */\n    tag_122:\n        /* \"#utility.yul\":16994:16998   */\n      0x00\n        /* \"#utility.yul\":17032:17034   */\n      0x20\n        /* \"#utility.yul\":17021:17030   */\n      dup3\n        /* \"#utility.yul\":17017:17035   */\n      add\n        /* \"#utility.yul\":17009:17035   */\n      swap1\n      pop\n        /* \"#utility.yul\":17081:17090   */\n      dup2\n        /* \"#utility.yul\":17075:17079   */\n      dup2\n        /* \"#utility.yul\":17071:17091   */\n      sub\n        /* \"#utility.yul\":17067:17068   */\n      0x00\n        /* \"#utility.yul\":17056:17065   */\n      dup4\n        /* \"#utility.yul\":17052:17069   */\n      add\n        /* \"#utility.yul\":17045:17092   */\n      mstore\n        /* \"#utility.yul\":17109:17240   */\n      tag_375\n        /* \"#utility.yul\":17235:17239   */\n      dup2\n        /* \"#utility.yul\":17109:17240   */\n      tag_219\n      jump\t// in\n    tag_375:\n        /* \"#utility.yul\":17101:17240   */\n      swap1\n      pop\n        /* \"#utility.yul\":16828:17247   */\n      swap2\n      swap1\n      pop\n      jump\t// out\n        /* \"#utility.yul\":17253:17444   */\n    tag_124:\n        /* \"#utility.yul\":17293:17296   */\n      0x00\n        /* \"#utility.yul\":17312:17332   */\n      tag_377\n        /* \"#utility.yul\":17330:17331   */\n      dup3\n        /* \"#utility.yul\":17312:17332   */\n      tag_182\n      jump\t// in\n    tag_377:\n        /* \"#utility.yul\":17307:17332   */\n      swap2\n      pop\n        /* \"#utility.yul\":17346:17366   */\n      tag_378\n        /* \"#utility.yul\":17364:17365   */\n      dup4\n        /* \"#utility.yul\":17346:17366   */\n      tag_182\n      jump\t// in\n    tag_378:\n        /* \"#utility.yul\":17341:17366   */\n      swap3\n      pop\n        /* \"#utility.yul\":17389:17390   */\n      dup3\n        /* \"#utility.yul\":17386:17387   */\n      dup3\n        /* \"#utility.yul\":17382:17391   */\n      add\n        /* \"#utility.yul\":17375:17391   */\n      swap1\n      pop\n        /* \"#utility.yul\":17410:17413   */\n      dup1\n        /* \"#utility.yul\":17407:17408   */\n      dup3\n        /* \"#utility.yul\":17404:17414   */\n      gt\n        /* \"#utility.yul\":17401:17437   */\n      iszero\n      tag_379\n      jumpi\n        /* \"#utility.yul\":17417:17435   */\n      tag_380\n      tag_213\n      jump\t// in\n    tag_380:\n        /* \"#utility.yul\":17401:17437   */\n    tag_379:\n        /* \"#utility.yul\":17253:17444   */\n      swap3\n      swap2\n      pop\n      pop\n      jump\t// out\n        /* \"#utility.yul\":17450:17619   */\n    tag_220:\n        /* \"#utility.yul\":17590:17611   */\n      0x4c414e3a20626964206e6f742068696768657200000000000000000000000000\n        /* \"#utility.yul\":17586:17587   */\n      0x00\n        /* \"#utility.yul\":17578:17584   */\n      dup3\n        /* \"#utility.yul\":17574:17588   */\n      add\n        /* \"#utility.yul\":17567:17612   */\n      mstore\n        /* \"#utility.yul\":17450:17619   */\n      pop\n      jump\t// out\n        /* \"#utility.yul\":17625:17991   */\n    tag_221:\n        /* \"#utility.yul\":17767:17770   */\n      0x00\n        /* \"#utility.yul\":17788:17855   */\n      tag_383\n        /* \"#utility.yul\":17852:17854   */\n      0x13\n        /* \"#utility.yul\":17847:17850   */\n      dup4\n        /* \"#utility.yul\":17788:17855   */\n      tag_202\n      jump\t// in\n    tag_383:\n        /* \"#utility.yul\":17781:17855   */\n      swap2\n      pop\n        /* \"#utility.yul\":17864:17957   */\n      tag_384\n        /* \"#utility.yul\":17953:17956   */\n      dup3\n        /* \"#utility.yul\":17864:17957   */\n      tag_220\n      jump\t// in\n    tag_384:\n        /* \"#utility.yul\":17982:17984   */\n      0x20\n        /* \"#utility.yul\":17977:17980   */\n      dup3\n        /* \"#utility.yul\":17973:17985   */\n      add\n        /* \"#utility.yul\":17966:17985   */\n      swap1\n      pop\n        /* \"#utility.yul\":17625:17991   */\n      swap2\n      swap1\n      pop\n      jump\t// out\n        /* \"#utility.yul\":17997:18416   */\n    tag_129:\n        /* \"#utility.yul\":18163:18167   */\n      0x00\n        /* \"#utility.yul\":18201:18203   */\n      0x20\n        /* \"#utility.yul\":18190:18199   */\n      dup3\n        /* \"#utility.yul\":18186:18204   */\n      add\n        /* \"#utility.yul\":18178:18204   */\n      swap1\n      pop\n        /* \"#utility.yul\":18250:18259   */\n      dup2\n        /* \"#utility.yul\":18244:18248   */\n      dup2\n        /* \"#utility.yul\":18240:18260   */\n      sub\n        /* \"#utility.yul\":18236:18237   */\n      0x00\n        /* \"#utility.yul\":18225:18234   */\n      dup4\n        /* \"#utility.yul\":18221:18238   */\n      add\n        /* \"#utility.yul\":18214:18261   */\n      mstore\n        /* \"#utility.yul\":18278:18409   */\n      tag_386\n        /* \"#utility.yul\":18404:18408   */\n      dup2\n        /* \"#utility.yul\":18278:18409   */\n      tag_221\n      jump\t// in\n    tag_386:\n        /* \"#utility.yul\":18270:18409   */\n      swap1\n      pop\n        /* \"#utility.yul\":17997:18416   */\n      swap2\n      swap1\n      pop\n      jump\t// out\n        /* \"#utility.yul\":18422:18559   */\n    tag_222:\n        /* \"#utility.yul\":18476:18481   */\n      0x00\n        /* \"#utility.yul\":18507:18513   */\n      dup2\n        /* \"#utility.yul\":18501:18514   */\n      mload\n        /* \"#utility.yul\":18492:18514   */\n      swap1\n      pop\n        /* \"#utility.yul\":18523:18553   */\n      tag_388\n        /* \"#utility.yul\":18547:18552   */\n      dup2\n        /* \"#utility.yul\":18523:18553   */\n      tag_194\n      jump\t// in\n    tag_388:\n        /* \"#utility.yul\":18422:18559   */\n      swap3\n      swap2\n      pop\n      pop\n      jump\t// out\n        /* \"#utility.yul\":18565:18910   */\n    tag_134:\n        /* \"#utility.yul\":18632:18638   */\n      0x00\n        /* \"#utility.yul\":18681:18683   */\n      0x20\n        /* \"#utility.yul\":18669:18678   */\n      dup3\n        /* \"#utility.yul\":18660:18667   */\n      dup5\n        /* \"#utility.yul\":18656:18679   */\n      sub\n        /* \"#utility.yul\":18652:18684   */\n      slt\n        /* \"#utility.yul\":18649:18768   */\n      iszero\n      tag_390\n      jumpi\n        /* \"#utility.yul\":18687:18766   */\n      tag_391\n      tag_185\n      jump\t// in\n    tag_391:\n        /* \"#utility.yul\":18649:18768   */\n    tag_390:\n        /* \"#utility.yul\":18807:18808   */\n      0x00\n        /* \"#utility.yul\":18832:18893   */\n      tag_392\n        /* \"#utility.yul\":18885:18892   */\n      dup5\n        /* \"#utility.yul\":18876:18882   */\n      dup3\n        /* \"#utility.yul\":18865:18874   */\n      dup6\n        /* \"#utility.yul\":18861:18883   */\n      add\n        /* \"#utility.yul\":18832:18893   */\n      tag_222\n      jump\t// in\n    tag_392:\n        /* \"#utility.yul\":18822:18893   */\n      swap2\n      pop\n        /* \"#utility.yul\":18778:18903   */\n      pop\n        /* \"#utility.yul\":18565:18910   */\n      swap3\n      swap2\n      pop\n      pop\n      jump\t// out\n        /* \"#utility.yul\":18916:19110   */\n    tag_136:\n        /* \"#utility.yul\":18956:18960   */\n      0x00\n        /* \"#utility.yul\":18976:18996   */\n      tag_394\n        /* \"#utility.yul\":18994:18995   */\n      dup3\n        /* \"#utility.yul\":18976:18996   */\n      tag_182\n      jump\t// in\n    tag_394:\n        /* \"#utility.yul\":18971:18996   */\n      swap2\n      pop\n        /* \"#utility.yul\":19010:19030   */\n      tag_395\n        /* \"#utility.yul\":19028:19029   */\n      dup4\n        /* \"#utility.yul\":19010:19030   */\n      tag_182\n      jump\t// in\n    tag_395:\n        /* \"#utility.yul\":19005:19030   */\n      swap3\n      pop\n        /* \"#utility.yul\":19054:19055   */\n      dup3\n        /* \"#utility.yul\":19051:19052   */\n      dup3\n        /* \"#utility.yul\":19047:19056   */\n      sub\n        /* \"#utility.yul\":19039:19056   */\n      swap1\n      pop\n        /* \"#utility.yul\":19078:19079   */\n      dup2\n        /* \"#utility.yul\":19072:19076   */\n      dup2\n        /* \"#utility.yul\":19069:19080   */\n      gt\n        /* \"#utility.yul\":19066:19103   */\n      iszero\n      tag_396\n      jumpi\n        /* \"#utility.yul\":19083:19101   */\n      tag_397\n      tag_213\n      jump\t// in\n    tag_397:\n        /* \"#utility.yul\":19066:19103   */\n    tag_396:\n        /* \"#utility.yul\":18916:19110   */\n      swap3\n      swap2\n      pop\n      pop\n      jump\t// out\n        /* \"#utility.yul\":19116:19292   */\n    tag_223:\n        /* \"#utility.yul\":19256:19284   */\n      0x4c414e3a204e6f7420746865206c617465737420626964646572000000000000\n        /* \"#utility.yul\":19252:19253   */\n      0x00\n        /* \"#utility.yul\":19244:19250   */\n      dup3\n        /* \"#utility.yul\":19240:19254   */\n      add\n        /* \"#utility.yul\":19233:19285   */\n      mstore\n        /* \"#utility.yul\":19116:19292   */\n      pop\n      jump\t// out\n        /* \"#utility.yul\":19298:19664   */\n    tag_224:\n        /* \"#utility.yul\":19440:19443   */\n      0x00\n        /* \"#utility.yul\":19461:19528   */\n      tag_400\n        /* \"#utility.yul\":19525:19527   */\n      0x1a\n        /* \"#utility.yul\":19520:19523   */\n      dup4\n        /* \"#utility.yul\":19461:19528   */\n      tag_202\n      jump\t// in\n    tag_400:\n        /* \"#utility.yul\":19454:19528   */\n      swap2\n      pop\n        /* \"#utility.yul\":19537:19630   */\n      tag_401\n        /* \"#utility.yul\":19626:19629   */\n      dup3\n        /* \"#utility.yul\":19537:19630   */\n      tag_223\n      jump\t// in\n    tag_401:\n        /* \"#utility.yul\":19655:19657   */\n      0x20\n        /* \"#utility.yul\":19650:19653   */\n      dup3\n        /* \"#utility.yul\":19646:19658   */\n      add\n        /* \"#utility.yul\":19639:19658   */\n      swap1\n      pop\n        /* \"#utility.yul\":19298:19664   */\n      swap2\n      swap1\n      pop\n      jump\t// out\n        /* \"#utility.yul\":19670:20089   */\n    tag_164:\n        /* \"#utility.yul\":19836:19840   */\n      0x00\n        /* \"#utility.yul\":19874:19876   */\n      0x20\n        /* \"#utility.yul\":19863:19872   */\n      dup3\n        /* \"#utility.yul\":19859:19877   */\n      add\n        /* \"#utility.yul\":19851:19877   */\n      swap1\n      pop\n        /* \"#utility.yul\":19923:19932   */\n      dup2\n        /* \"#utility.yul\":19917:19921   */\n      dup2\n        /* \"#utility.yul\":19913:19933   */\n      sub\n        /* \"#utility.yul\":19909:19910   */\n      0x00\n        /* \"#utility.yul\":19898:19907   */\n      dup4\n        /* \"#utility.yul\":19894:19911   */\n      add\n        /* \"#utility.yul\":19887:19934   */\n      mstore\n        /* \"#utility.yul\":19951:20082   */\n      tag_403\n        /* \"#utility.yul\":20077:20081   */\n      dup2\n        /* \"#utility.yul\":19951:20082   */\n      tag_224\n      jump\t// in\n    tag_403:\n        /* \"#utility.yul\":19943:20082   */\n      swap1\n      pop\n        /* \"#utility.yul\":19670:20089   */\n      swap2\n      swap1\n      pop\n      jump\t// out\n        /* \"#utility.yul\":20095:20443   */\n    tag_176:\n        /* \"#utility.yul\":20135:20142   */\n      0x00\n        /* \"#utility.yul\":20158:20178   */\n      tag_405\n        /* \"#utility.yul\":20176:20177   */\n      dup3\n        /* \"#utility.yul\":20158:20178   */\n      tag_182\n      jump\t// in\n    tag_405:\n        /* \"#utility.yul\":20153:20178   */\n      swap2\n      pop\n        /* \"#utility.yul\":20192:20212   */\n      tag_406\n        /* \"#utility.yul\":20210:20211   */\n      dup4\n        /* \"#utility.yul\":20192:20212   */\n      tag_182\n      jump\t// in\n    tag_406:\n        /* \"#utility.yul\":20187:20212   */\n      swap3\n      pop\n        /* \"#utility.yul\":20380:20381   */\n      dup2\n        /* \"#utility.yul\":20312:20378   */\n      0xffffffffffffffffffffffffffffffffffffffffffffffffffffffffffffffff\n        /* \"#utility.yul\":20308:20382   */\n      div\n        /* \"#utility.yul\":20305:20306   */\n      dup4\n        /* \"#utility.yul\":20302:20383   */\n      gt\n        /* \"#utility.yul\":20297:20298   */\n      dup3\n        /* \"#utility.yul\":20290:20299   */\n      iszero\n        /* \"#utility.yul\":20283:20300   */\n      iszero\n        /* \"#utility.yul\":20279:20384   */\n      and\n        /* \"#utility.yul\":20276:20407   */\n      iszero\n      tag_407\n      jumpi\n        /* \"#utility.yul\":20387:20405   */\n      tag_408\n      tag_213\n      jump\t// in\n    tag_408:\n        /* \"#utility.yul\":20276:20407   */\n    tag_407:\n        /* \"#utility.yul\":20435:20436   */\n      dup3\n        /* \"#utility.yul\":20432:20433   */\n      dup3\n        /* \"#utility.yul\":20428:20437   */\n      mul\n        /* \"#utility.yul\":20417:20437   */\n      swap1\n      pop\n        /* \"#utility.yul\":20095:20443   */\n      swap3\n      swap2\n      pop\n      pop\n      jump\t// out\n        /* \"#utility.yul\":20449:20629   */\n    tag_225:\n        /* \"#utility.yul\":20497:20574   */\n      0x4e487b7100000000000000000000000000000000000000000000000000000000\n        /* \"#utility.yul\":20494:20495   */\n      0x00\n        /* \"#utility.yul\":20487:20575   */\n      mstore\n        /* \"#utility.yul\":20594:20598   */\n      0x12\n        /* \"#utility.yul\":20591:20592   */\n      0x04\n        /* \"#utility.yul\":20584:20599   */\n      mstore\n        /* \"#utility.yul\":20618:20622   */\n      0x24\n        /* \"#utility.yul\":20615:20616   */\n      0x00\n        /* \"#utility.yul\":20608:20623   */\n      revert\n        /* \"#utility.yul\":20635:20820   */\n    tag_178:\n        /* \"#utility.yul\":20675:20676   */\n      0x00\n        /* \"#utility.yul\":20692:20712   */\n      tag_411\n        /* \"#utility.yul\":20710:20711   */\n      dup3\n        /* \"#utility.yul\":20692:20712   */\n      tag_182\n      jump\t// in\n    tag_411:\n        /* \"#utility.yul\":20687:20712   */\n      swap2\n      pop\n        /* \"#utility.yul\":20726:20746   */\n      tag_412\n        /* \"#utility.yul\":20744:20745   */\n      dup4\n        /* \"#utility.yul\":20726:20746   */\n      tag_182\n      jump\t// in\n    tag_412:\n        /* \"#utility.yul\":20721:20746   */\n      swap3\n      pop\n        /* \"#utility.yul\":20765:20766   */\n      dup3\n        /* \"#utility.yul\":20755:20790   */\n      tag_413\n      jumpi\n        /* \"#utility.yul\":20770:20788   */\n      tag_414\n      tag_225\n      jump\t// in\n    tag_414:\n        /* \"#utility.yul\":20755:20790   */\n    tag_413:\n        /* \"#utility.yul\":20812:20813   */\n      dup3\n        /* \"#utility.yul\":20809:20810   */\n      dup3\n        /* \"#utility.yul\":20805:20814   */\n      div\n        /* \"#utility.yul\":20800:20814   */\n      swap1\n      pop\n        /* \"#utility.yul\":20635:20820   */\n      swap3\n      swap2\n      pop\n      pop\n      jump\t// out\n\n    auxdata: 0xa264697066735822122077c660f4ffbcc173d9399b1ec9a912fca164d6fc08fbd208d15808903e531dfd64736f6c63430008100033\n}\n",
				"bytecode": {
					"linkReferences": {},
					"object": "608060405234801561001057600080fd5b50612a26806100206000396000f3fe608060405234801561001057600080fd5b50600436106100b45760003560e01c80637870860b116100715780637870860b146101635780637b3c4baa1461017f5780638f17aa2d146101b15780638f769f3a146101cd5780639bea77da146101e9578063e1ec3c6814610219576100b4565b806306661abd146100b957806318de4f9d146100d75780632613c5d6146100f357806340e58ee51461010f578063415f12401461012b578063598647f814610147575b600080fd5b6100c1610251565b6040516100ce9190611f74565b60405180910390f35b6100f160048036038101906100ec9190611fc5565b610257565b005b61010d60048036038101906101089190612088565b610650565b005b61012960048036038101906101249190611fc5565b610922565b005b61014560048036038101906101409190611fc5565b610bc5565b005b610161600480360381019061015c919061212a565b610f14565b005b61017d60048036038101906101789190611fc5565b61139f565b005b6101996004803603810190610194919061212a565b61176b565b6040516101a893929190612179565b60405180910390f35b6101cb60048036038101906101c69190612215565b6117c2565b005b6101e760048036038101906101e29190612275565b6117c7565b005b61020360048036038101906101fe919061212a565b611ad1565b60405161021091906122b5565b60405180910390f35b610233600480360381019061022e9190611fc5565b611b1f565b604051610248999897969594939291906122df565b60405180910390f35b60005481565b803373ffffffffffffffffffffffffffffffffffffffff166001600083815260200190815260200160002060000160009054906101000a900473ffffffffffffffffffffffffffffffffffffffff1673ffffffffffffffffffffffffffffffffffffffff16146102fc576040517f08c379a00000000000000000000000000000000000000000000000000000000081526004016102f3906123c9565b60405180910390fd5b600060016000848152602001908152602001600020604051806101200160405290816000820160009054906101000a900473ffffffffffffffffffffffffffffffffffffffff1673ffffffffffffffffffffffffffffffffffffffff1673ffffffffffffffffffffffffffffffffffffffff1681526020016001820160009054906101000a900473ffffffffffffffffffffffffffffffffffffffff1673ffffffffffffffffffffffffffffffffffffffff1673ffffffffffffffffffffffffffffffffffffffff1681526020016002820160009054906101000a900473ffffffffffffffffffffffffffffffffffffffff1673ffffffffffffffffffffffffffffffffffffffff1673ffffffffffffffffffffffffffffffffffffffff16815260200160038201548152602001600482015481526020016005820154815260200160068201548152602001600782015481526020016008820160009054906101000a900460ff161515151581525050905061047783611bda565b6104b6576040517f08c379a00000000000000000000000000000000000000000000000000000000081526004016104ad90612435565b60405180910390fd5b60006002600085815260200190815260200160002060008360e00151815260200190815260200160002060405180606001604052908160008201548152602001600182015481526020016002820160009054906101000a900473ffffffffffffffffffffffffffffffffffffffff1673ffffffffffffffffffffffffffffffffffffffff1673ffffffffffffffffffffffffffffffffffffffff168152505090503373ffffffffffffffffffffffffffffffffffffffff16816040015173ffffffffffffffffffffffffffffffffffffffff16146105c9576040517f08c379a00000000000000000000000000000000000000000000000000000000081526004016105c0906124a1565b60405180910390fd5b6000826040015190508073ffffffffffffffffffffffffffffffffffffffff166342842e0e30846040015186606001516040518463ffffffff1660e01b8152600401610617939291906124c1565b600060405180830381600087803b15801561063157600080fd5b505af1158015610645573d6000803e3d6000fd5b505050505050505050565b42841015610693576040517f08c379a000000000000000000000000000000000000000000000000000000000815260040161068a90612544565b60405180910390fd5b8383116106d5576040517f08c379a00000000000000000000000000000000000000000000000000000000081526004016106cc906125b0565b60405180910390fd5b6040518061012001604052803373ffffffffffffffffffffffffffffffffffffffff1681526020018873ffffffffffffffffffffffffffffffffffffffff1681526020018773ffffffffffffffffffffffffffffffffffffffff16815260200186815260200185815260200184815260200183815260200160008152602001821515815250600160008054815260200190815260200160002060008201518160000160006101000a81548173ffffffffffffffffffffffffffffffffffffffff021916908373ffffffffffffffffffffffffffffffffffffffff16021790555060208201518160010160006101000a81548173ffffffffffffffffffffffffffffffffffffffff021916908373ffffffffffffffffffffffffffffffffffffffff16021790555060408201518160020160006101000a81548173ffffffffffffffffffffffffffffffffffffffff021916908373ffffffffffffffffffffffffffffffffffffffff160217905550606082015181600301556080820151816004015560a0820151816005015560c0820151816006015560e082015181600701556101008201518160080160006101000a81548160ff0219169083151502179055509050504260026000805481526020019081526020016000206000808152602001908152602001600020600001819055506000547fef8b2952c43462575e82711d0cc91169720a4589a9fa533d173e022437f5405e87876040516108fa9291906125d0565b60405180910390a260008081548092919061091490612628565b919050555050505050505050565b803373ffffffffffffffffffffffffffffffffffffffff166001600083815260200190815260200160002060000160009054906101000a900473ffffffffffffffffffffffffffffffffffffffff1673ffffffffffffffffffffffffffffffffffffffff16146109c7576040517f08c379a00000000000000000000000000000000000000000000000000000000081526004016109be906123c9565b60405180910390fd5b600060016000848152602001908152602001600020604051806101200160405290816000820160009054906101000a900473ffffffffffffffffffffffffffffffffffffffff1673ffffffffffffffffffffffffffffffffffffffff1673ffffffffffffffffffffffffffffffffffffffff1681526020016001820160009054906101000a900473ffffffffffffffffffffffffffffffffffffffff1673ffffffffffffffffffffffffffffffffffffffff1673ffffffffffffffffffffffffffffffffffffffff1681526020016002820160009054906101000a900473ffffffffffffffffffffffffffffffffffffffff1673ffffffffffffffffffffffffffffffffffffffff1673ffffffffffffffffffffffffffffffffffffffff16815260200160038201548152602001600482015481526020016005820154815260200160068201548152602001600782015481526020016008820160009054906101000a900460ff161515151581525050905042816080015111610b7f576040517f08c379a0000000000000000000000000000000000000000000000000000000008152600401610b76906126bc565b60405180910390fd5b610b87611ecb565b90507ffe785ef891129b084b1c5a30e4d88eb97c97822c024cc25d5f9d806b897512e083604051610bb89190611f74565b60405180910390a1505050565b600060016000838152602001908152602001600020604051806101200160405290816000820160009054906101000a900473ffffffffffffffffffffffffffffffffffffffff1673ffffffffffffffffffffffffffffffffffffffff1673ffffffffffffffffffffffffffffffffffffffff1681526020016001820160009054906101000a900473ffffffffffffffffffffffffffffffffffffffff1673ffffffffffffffffffffffffffffffffffffffff1673ffffffffffffffffffffffffffffffffffffffff1681526020016002820160009054906101000a900473ffffffffffffffffffffffffffffffffffffffff1673ffffffffffffffffffffffffffffffffffffffff1673ffffffffffffffffffffffffffffffffffffffff16815260200160038201548152602001600482015481526020016005820154815260200160068201548152602001600782015481526020016008820160009054906101000a900460ff1615151515815250509050610d4082611bda565b610d7f576040517f08c379a0000000000000000000000000000000000000000000000000000000008152600401610d7690612435565b60405180910390fd5b60006002600084815260200190815260200160002060008360e00151815260200190815260200160002060405180606001604052908160008201548152602001600182015481526020016002820160009054906101000a900473ffffffffffffffffffffffffffffffffffffffff1673ffffffffffffffffffffffffffffffffffffffff1673ffffffffffffffffffffffffffffffffffffffff168152505090503373ffffffffffffffffffffffffffffffffffffffff16816040015173ffffffffffffffffffffffffffffffffffffffff1614610e92576040517f08c379a0000000000000000000000000000000000000000000000000000000008152600401610e89906124a1565b60405180910390fd5b6000826040015190508073ffffffffffffffffffffffffffffffffffffffff166342842e0e303386606001516040518463ffffffff1660e01b8152600401610edc939291906124c1565b600060405180830381600087803b158015610ef657600080fd5b505af1158015610f0a573d6000803e3d6000fd5b5050505050505050565b610f1d82611bfd565b610f5c576040517f08c379a0000000000000000000000000000000000000000000000000000000008152600401610f5390612728565b60405180910390fd5b610f6582611bda565b15610fa5576040517f08c379a0000000000000000000000000000000000000000000000000000000008152600401610f9c90612794565b60405180910390fd5b600060016000848152602001908152602001600020604051806101200160405290816000820160009054906101000a900473ffffffffffffffffffffffffffffffffffffffff1673ffffffffffffffffffffffffffffffffffffffff1673ffffffffffffffffffffffffffffffffffffffff1681526020016001820160009054906101000a900473ffffffffffffffffffffffffffffffffffffffff1673ffffffffffffffffffffffffffffffffffffffff1673ffffffffffffffffffffffffffffffffffffffff1681526020016002820160009054906101000a900473ffffffffffffffffffffffffffffffffffffffff1673ffffffffffffffffffffffffffffffffffffffff1673ffffffffffffffffffffffffffffffffffffffff16815260200160038201548152602001600482015481526020016005820154815260200160068201548152602001600782015481526020016008820160009054906101000a900460ff1615151515815250509050600060018260e0015161112a91906127b4565b9050808260e0018181525050600061114185611c1f565b9050808411611185576040517f08c379a000000000000000000000000000000000000000000000000000000000815260040161117c90612834565b60405180910390fd5b826020015173ffffffffffffffffffffffffffffffffffffffff166323b872dd3360026000898152602001908152602001600020600086815260200190815260200160002060020160009054906101000a900473ffffffffffffffffffffffffffffffffffffffff16846040518463ffffffff1660e01b815260040161120d939291906124c1565b6020604051808303816000875af115801561122c573d6000803e3d6000fd5b505050506040513d601f19601f820116820180604052508101906112509190612869565b50826020015173ffffffffffffffffffffffffffffffffffffffff166323b872dd33856000015184886112839190612896565b6040518463ffffffff1660e01b81526004016112a1939291906124c1565b6020604051808303816000875af11580156112c0573d6000803e3d6000fd5b505050506040513d601f19601f820116820180604052508101906112e49190612869565b5060405180606001604052804281526020018581526020013373ffffffffffffffffffffffffffffffffffffffff16815250600260008781526020019081526020016000206000848152602001908152602001600020600082015181600001556020820151816001015560408201518160020160006101000a81548173ffffffffffffffffffffffffffffffffffffffff021916908373ffffffffffffffffffffffffffffffffffffffff1602179055509050505050505050565b803373ffffffffffffffffffffffffffffffffffffffff166001600083815260200190815260200160002060000160009054906101000a900473ffffffffffffffffffffffffffffffffffffffff1673ffffffffffffffffffffffffffffffffffffffff1614611444576040517f08c379a000000000000000000000000000000000000000000000000000000000815260040161143b906123c9565b60405180910390fd5b600060016000848152602001908152602001600020604051806101200160405290816000820160009054906101000a900473ffffffffffffffffffffffffffffffffffffffff1673ffffffffffffffffffffffffffffffffffffffff1673ffffffffffffffffffffffffffffffffffffffff1681526020016001820160009054906101000a900473ffffffffffffffffffffffffffffffffffffffff1673ffffffffffffffffffffffffffffffffffffffff1673ffffffffffffffffffffffffffffffffffffffff1681526020016002820160009054906101000a900473ffffffffffffffffffffffffffffffffffffffff1673ffffffffffffffffffffffffffffffffffffffff1673ffffffffffffffffffffffffffffffffffffffff16815260200160038201548152602001600482015481526020016005820154815260200160068201548152602001600782015481526020016008820160009054906101000a900460ff161515151581525050905060006002600085815260200190815260200160002060008360e00151815260200190815260200160002060405180606001604052908160008201548152602001600182015481526020016002820160009054906101000a900473ffffffffffffffffffffffffffffffffffffffff1673ffffffffffffffffffffffffffffffffffffffff1673ffffffffffffffffffffffffffffffffffffffff16815250509050816020015173ffffffffffffffffffffffffffffffffffffffff166323b872dd33836040015161168688611c1f565b6040518463ffffffff1660e01b81526004016116a4939291906124c1565b6020604051808303816000875af11580156116c3573d6000803e3d6000fd5b505050506040513d601f19601f820116820180604052508101906116e79190612869565b506000826040015190508073ffffffffffffffffffffffffffffffffffffffff166342842e0e303386606001516040518463ffffffff1660e01b8152600401611732939291906124c1565b600060405180830381600087803b15801561174c57600080fd5b505af1158015611760573d6000803e3d6000fd5b505050505050505050565b6002602052816000526040600020602052806000526040600020600091509150508060000154908060010154908060020160009054906101000a900473ffffffffffffffffffffffffffffffffffffffff16905083565b505050565b6117d082611bfd565b61180f576040517f08c379a000000000000000000000000000000000000000000000000000000000815260040161180690612728565b60405180910390fd5b61181882611bda565b15611858576040517f08c379a000000000000000000000000000000000000000000000000000000000815260040161184f90612794565b60405180910390fd5b600060016000848152602001908152602001600020604051806101200160405290816000820160009054906101000a900473ffffffffffffffffffffffffffffffffffffffff1673ffffffffffffffffffffffffffffffffffffffff1673ffffffffffffffffffffffffffffffffffffffff1681526020016001820160009054906101000a900473ffffffffffffffffffffffffffffffffffffffff1673ffffffffffffffffffffffffffffffffffffffff1673ffffffffffffffffffffffffffffffffffffffff1681526020016002820160009054906101000a900473ffffffffffffffffffffffffffffffffffffffff1673ffffffffffffffffffffffffffffffffffffffff1673ffffffffffffffffffffffffffffffffffffffff16815260200160038201548152602001600482015481526020016005820154815260200160068201548152602001600782015481526020016008820160009054906101000a900460ff161515151581525050905060006002600085815260200190815260200160002060008360e00151815260200190815260200160002090503373ffffffffffffffffffffffffffffffffffffffff168160020160009054906101000a900473ffffffffffffffffffffffffffffffffffffffff1673ffffffffffffffffffffffffffffffffffffffff1614611a88576040517f08c379a0000000000000000000000000000000000000000000000000000000008152600401611a7f90612916565b60405180910390fd5b828160020160006101000a81548173ffffffffffffffffffffffffffffffffffffffff021916908373ffffffffffffffffffffffffffffffffffffffff16021790555050505050565b60036020528160005260406000208181548110611aed57600080fd5b906000526020600020016000915091509054906101000a900473ffffffffffffffffffffffffffffffffffffffff1681565b60016020528060005260406000206000915090508060000160009054906101000a900473ffffffffffffffffffffffffffffffffffffffff16908060010160009054906101000a900473ffffffffffffffffffffffffffffffffffffffff16908060020160009054906101000a900473ffffffffffffffffffffffffffffffffffffffff16908060030154908060040154908060050154908060060154908060070154908060080160009054906101000a900460ff16905089565b600042600160008481526020019081526020016000206005015411159050919050565b6000426001600084815260200190815260200160002060040154109050919050565b60008060016000848152602001908152602001600020604051806101200160405290816000820160009054906101000a900473ffffffffffffffffffffffffffffffffffffffff1673ffffffffffffffffffffffffffffffffffffffff1673ffffffffffffffffffffffffffffffffffffffff1681526020016001820160009054906101000a900473ffffffffffffffffffffffffffffffffffffffff1673ffffffffffffffffffffffffffffffffffffffff1673ffffffffffffffffffffffffffffffffffffffff1681526020016002820160009054906101000a900473ffffffffffffffffffffffffffffffffffffffff1673ffffffffffffffffffffffffffffffffffffffff1673ffffffffffffffffffffffffffffffffffffffff16815260200160038201548152602001600482015481526020016005820154815260200160068201548152602001600782015481526020016008820160009054906101000a900460ff161515151581525050905060006002600085815260200190815260200160002060008360e00151815260200190815260200160002060405180606001604052908160008201548152602001600182015481526020016002820160009054906101000a900473ffffffffffffffffffffffffffffffffffffffff1673ffffffffffffffffffffffffffffffffffffffff1673ffffffffffffffffffffffffffffffffffffffff168152505090506000611e3e85611bda565b15611e5e578260a001518260000151611e579190612896565b9050611e71565b428260000151611e6e9190612896565b90505b6301e1338081670de0b6b3a76400008560c001518560200151611e949190612936565b611e9e91906129bf565b611ea89190612936565b611eb291906129bf565b8260200151611ec191906127b4565b9350505050919050565b604051806101200160405280600073ffffffffffffffffffffffffffffffffffffffff168152602001600073ffffffffffffffffffffffffffffffffffffffff168152602001600073ffffffffffffffffffffffffffffffffffffffff16815260200160008152602001600081526020016000815260200160008152602001600081526020016000151581525090565b6000819050919050565b611f6e81611f5b565b82525050565b6000602082019050611f896000830184611f65565b92915050565b600080fd5b600080fd5b611fa281611f5b565b8114611fad57600080fd5b50565b600081359050611fbf81611f99565b92915050565b600060208284031215611fdb57611fda611f8f565b5b6000611fe984828501611fb0565b91505092915050565b600073ffffffffffffffffffffffffffffffffffffffff82169050919050565b600061201d82611ff2565b9050919050565b61202d81612012565b811461203857600080fd5b50565b60008135905061204a81612024565b92915050565b60008115159050919050565b61206581612050565b811461207057600080fd5b50565b6000813590506120828161205c565b92915050565b600080600080600080600060e0888a0312156120a7576120a6611f8f565b5b60006120b58a828b0161203b565b97505060206120c68a828b0161203b565b96505060406120d78a828b01611fb0565b95505060606120e88a828b01611fb0565b94505060806120f98a828b01611fb0565b93505060a061210a8a828b01611fb0565b92505060c061211b8a828b01612073565b91505092959891949750929550565b6000806040838503121561214157612140611f8f565b5b600061214f85828601611fb0565b925050602061216085828601611fb0565b9150509250929050565b61217381612012565b82525050565b600060608201905061218e6000830186611f65565b61219b6020830185611f65565b6121a8604083018461216a565b949350505050565b600080fd5b600080fd5b600080fd5b60008083601f8401126121d5576121d46121b0565b5b8235905067ffffffffffffffff8111156121f2576121f16121b5565b5b60208301915083602082028301111561220e5761220d6121ba565b5b9250929050565b60008060006040848603121561222e5761222d611f8f565b5b600061223c86828701611fb0565b935050602084013567ffffffffffffffff81111561225d5761225c611f94565b5b612269868287016121bf565b92509250509250925092565b6000806040838503121561228c5761228b611f8f565b5b600061229a85828601611fb0565b92505060206122ab8582860161203b565b9150509250929050565b60006020820190506122ca600083018461216a565b92915050565b6122d981612050565b82525050565b6000610120820190506122f5600083018c61216a565b612302602083018b61216a565b61230f604083018a61216a565b61231c6060830189611f65565b6123296080830188611f65565b61233660a0830187611f65565b61234360c0830186611f65565b61235060e0830185611f65565b61235e6101008301846122d0565b9a9950505050505050505050565b600082825260208201905092915050565b7f4c414e3a206e6f74206f776e6572000000000000000000000000000000000000600082015250565b60006123b3600e8361236c565b91506123be8261237d565b602082019050919050565b600060208201905081810360008301526123e2816123a6565b9050919050565b7f4c414e3a206c6f616e206e6f7420656e64656400000000000000000000000000600082015250565b600061241f60138361236c565b915061242a826123e9565b602082019050919050565b6000602082019050818103600083015261244e81612412565b9050919050565b7f4c414e3a206e6f74206c61746573742062696464657200000000000000000000600082015250565b600061248b60168361236c565b915061249682612455565b602082019050919050565b600060208201905081810360008301526124ba8161247e565b9050919050565b60006060820190506124d6600083018661216a565b6124e3602083018561216a565b6124f06040830184611f65565b949350505050565b7f4c414e3a2073746172742074696d6520696e2070617374000000000000000000600082015250565b600061252e60178361236c565b9150612539826124f8565b602082019050919050565b6000602082019050818103600083015261255d81612521565b9050919050565b7f4c414e3a20737461727420616674657220656e64000000000000000000000000600082015250565b600061259a60148361236c565b91506125a582612564565b602082019050919050565b600060208201905081810360008301526125c98161258d565b9050919050565b60006040820190506125e5600083018561216a565b6125f26020830184611f65565b9392505050565b7f4e487b7100000000000000000000000000000000000000000000000000000000600052601160045260246000fd5b600061263382611f5b565b91507fffffffffffffffffffffffffffffffffffffffffffffffffffffffffffffffff8203612665576126646125f9565b5b600182019050919050565b7f4c414e3a20616c72656164792073746172746564000000000000000000000000600082015250565b60006126a660148361236c565b91506126b182612670565b602082019050919050565b600060208201905081810360008301526126d581612699565b9050919050565b7f4c414e3a206e6f74207374617274656400000000000000000000000000000000600082015250565b600061271260108361236c565b915061271d826126dc565b602082019050919050565b6000602082019050818103600083015261274181612705565b9050919050565b7f4c414e3a20616c726561647920656e6465640000000000000000000000000000600082015250565b600061277e60128361236c565b915061278982612748565b602082019050919050565b600060208201905081810360008301526127ad81612771565b9050919050565b60006127bf82611f5b565b91506127ca83611f5b565b92508282019050808211156127e2576127e16125f9565b5b92915050565b7f4c414e3a20626964206e6f742068696768657200000000000000000000000000600082015250565b600061281e60138361236c565b9150612829826127e8565b602082019050919050565b6000602082019050818103600083015261284d81612811565b9050919050565b6000815190506128638161205c565b92915050565b60006020828403121561287f5761287e611f8f565b5b600061288d84828501612854565b91505092915050565b60006128a182611f5b565b91506128ac83611f5b565b92508282039050818111156128c4576128c36125f9565b5b92915050565b7f4c414e3a204e6f7420746865206c617465737420626964646572000000000000600082015250565b6000612900601a8361236c565b915061290b826128ca565b602082019050919050565b6000602082019050818103600083015261292f816128f3565b9050919050565b600061294182611f5b565b915061294c83611f5b565b9250817fffffffffffffffffffffffffffffffffffffffffffffffffffffffffffffffff0483118215151615612985576129846125f9565b5b828202905092915050565b7f4e487b7100000000000000000000000000000000000000000000000000000000600052601260045260246000fd5b60006129ca82611f5b565b91506129d583611f5b565b9250826129e5576129e4612990565b5b82820490509291505056fea264697066735822122077c660f4ffbcc173d9399b1ec9a912fca164d6fc08fbd208d15808903e531dfd64736f6c63430008100033",
					"opcodes": "PUSH1 0x80 PUSH1 0x40 MSTORE CALLVALUE DUP1 ISZERO PUSH2 0x10 JUMPI PUSH1 0x0 DUP1 REVERT JUMPDEST POP PUSH2 0x2A26 DUP1 PUSH2 0x20 PUSH1 0x0 CODECOPY PUSH1 0x0 RETURN INVALID PUSH1 0x80 PUSH1 0x40 MSTORE CALLVALUE DUP1 ISZERO PUSH2 0x10 JUMPI PUSH1 0x0 DUP1 REVERT JUMPDEST POP PUSH1 0x4 CALLDATASIZE LT PUSH2 0xB4 JUMPI PUSH1 0x0 CALLDATALOAD PUSH1 0xE0 SHR DUP1 PUSH4 0x7870860B GT PUSH2 0x71 JUMPI DUP1 PUSH4 0x7870860B EQ PUSH2 0x163 JUMPI DUP1 PUSH4 0x7B3C4BAA EQ PUSH2 0x17F JUMPI DUP1 PUSH4 0x8F17AA2D EQ PUSH2 0x1B1 JUMPI DUP1 PUSH4 0x8F769F3A EQ PUSH2 0x1CD JUMPI DUP1 PUSH4 0x9BEA77DA EQ PUSH2 0x1E9 JUMPI DUP1 PUSH4 0xE1EC3C68 EQ PUSH2 0x219 JUMPI PUSH2 0xB4 JUMP JUMPDEST DUP1 PUSH4 0x6661ABD EQ PUSH2 0xB9 JUMPI DUP1 PUSH4 0x18DE4F9D EQ PUSH2 0xD7 JUMPI DUP1 PUSH4 0x2613C5D6 EQ PUSH2 0xF3 JUMPI DUP1 PUSH4 0x40E58EE5 EQ PUSH2 0x10F JUMPI DUP1 PUSH4 0x415F1240 EQ PUSH2 0x12B JUMPI DUP1 PUSH4 0x598647F8 EQ PUSH2 0x147 JUMPI JUMPDEST PUSH1 0x0 DUP1 REVERT JUMPDEST PUSH2 0xC1 PUSH2 0x251 JUMP JUMPDEST PUSH1 0x40 MLOAD PUSH2 0xCE SWAP2 SWAP1 PUSH2 0x1F74 JUMP JUMPDEST PUSH1 0x40 MLOAD DUP1 SWAP2 SUB SWAP1 RETURN JUMPDEST PUSH2 0xF1 PUSH1 0x4 DUP1 CALLDATASIZE SUB DUP2 ADD SWAP1 PUSH2 0xEC SWAP2 SWAP1 PUSH2 0x1FC5 JUMP JUMPDEST PUSH2 0x257 JUMP JUMPDEST STOP JUMPDEST PUSH2 0x10D PUSH1 0x4 DUP1 CALLDATASIZE SUB DUP2 ADD SWAP1 PUSH2 0x108 SWAP2 SWAP1 PUSH2 0x2088 JUMP JUMPDEST PUSH2 0x650 JUMP JUMPDEST STOP JUMPDEST PUSH2 0x129 PUSH1 0x4 DUP1 CALLDATASIZE SUB DUP2 ADD SWAP1 PUSH2 0x124 SWAP2 SWAP1 PUSH2 0x1FC5 JUMP JUMPDEST PUSH2 0x922 JUMP JUMPDEST STOP JUMPDEST PUSH2 0x145 PUSH1 0x4 DUP1 CALLDATASIZE SUB DUP2 ADD SWAP1 PUSH2 0x140 SWAP2 SWAP1 PUSH2 0x1FC5 JUMP JUMPDEST PUSH2 0xBC5 JUMP JUMPDEST STOP JUMPDEST PUSH2 0x161 PUSH1 0x4 DUP1 CALLDATASIZE SUB DUP2 ADD SWAP1 PUSH2 0x15C SWAP2 SWAP1 PUSH2 0x212A JUMP JUMPDEST PUSH2 0xF14 JUMP JUMPDEST STOP JUMPDEST PUSH2 0x17D PUSH1 0x4 DUP1 CALLDATASIZE SUB DUP2 ADD SWAP1 PUSH2 0x178 SWAP2 SWAP1 PUSH2 0x1FC5 JUMP JUMPDEST PUSH2 0x139F JUMP JUMPDEST STOP JUMPDEST PUSH2 0x199 PUSH1 0x4 DUP1 CALLDATASIZE SUB DUP2 ADD SWAP1 PUSH2 0x194 SWAP2 SWAP1 PUSH2 0x212A JUMP JUMPDEST PUSH2 0x176B JUMP JUMPDEST PUSH1 0x40 MLOAD PUSH2 0x1A8 SWAP4 SWAP3 SWAP2 SWAP1 PUSH2 0x2179 JUMP JUMPDEST PUSH1 0x40 MLOAD DUP1 SWAP2 SUB SWAP1 RETURN JUMPDEST PUSH2 0x1CB PUSH1 0x4 DUP1 CALLDATASIZE SUB DUP2 ADD SWAP1 PUSH2 0x1C6 SWAP2 SWAP1 PUSH2 0x2215 JUMP JUMPDEST PUSH2 0x17C2 JUMP JUMPDEST STOP JUMPDEST PUSH2 0x1E7 PUSH1 0x4 DUP1 CALLDATASIZE SUB DUP2 ADD SWAP1 PUSH2 0x1E2 SWAP2 SWAP1 PUSH2 0x2275 JUMP JUMPDEST PUSH2 0x17C7 JUMP JUMPDEST STOP JUMPDEST PUSH2 0x203 PUSH1 0x4 DUP1 CALLDATASIZE SUB DUP2 ADD SWAP1 PUSH2 0x1FE SWAP2 SWAP1 PUSH2 0x212A JUMP JUMPDEST PUSH2 0x1AD1 JUMP JUMPDEST PUSH1 0x40 MLOAD PUSH2 0x210 SWAP2 SWAP1 PUSH2 0x22B5 JUMP JUMPDEST PUSH1 0x40 MLOAD DUP1 SWAP2 SUB SWAP1 RETURN JUMPDEST PUSH2 0x233 PUSH1 0x4 DUP1 CALLDATASIZE SUB DUP2 ADD SWAP1 PUSH2 0x22E SWAP2 SWAP1 PUSH2 0x1FC5 JUMP JUMPDEST PUSH2 0x1B1F JUMP JUMPDEST PUSH1 0x40 MLOAD PUSH2 0x248 SWAP10 SWAP9 SWAP8 SWAP7 SWAP6 SWAP5 SWAP4 SWAP3 SWAP2 SWAP1 PUSH2 0x22DF JUMP JUMPDEST PUSH1 0x40 MLOAD DUP1 SWAP2 SUB SWAP1 RETURN JUMPDEST PUSH1 0x0 SLOAD DUP2 JUMP JUMPDEST DUP1 CALLER PUSH20 0xFFFFFFFFFFFFFFFFFFFFFFFFFFFFFFFFFFFFFFFF AND PUSH1 0x1 PUSH1 0x0 DUP4 DUP2 MSTORE PUSH1 0x20 ADD SWAP1 DUP2 MSTORE PUSH1 0x20 ADD PUSH1 0x0 KECCAK256 PUSH1 0x0 ADD PUSH1 0x0 SWAP1 SLOAD SWAP1 PUSH2 0x100 EXP SWAP1 DIV PUSH20 0xFFFFFFFFFFFFFFFFFFFFFFFFFFFFFFFFFFFFFFFF AND PUSH20 0xFFFFFFFFFFFFFFFFFFFFFFFFFFFFFFFFFFFFFFFF AND EQ PUSH2 0x2FC JUMPI PUSH1 0x40 MLOAD PUSH32 0x8C379A000000000000000000000000000000000000000000000000000000000 DUP2 MSTORE PUSH1 0x4 ADD PUSH2 0x2F3 SWAP1 PUSH2 0x23C9 JUMP JUMPDEST PUSH1 0x40 MLOAD DUP1 SWAP2 SUB SWAP1 REVERT JUMPDEST PUSH1 0x0 PUSH1 0x1 PUSH1 0x0 DUP5 DUP2 MSTORE PUSH1 0x20 ADD SWAP1 DUP2 MSTORE PUSH1 0x20 ADD PUSH1 0x0 KECCAK256 PUSH1 0x40 MLOAD DUP1 PUSH2 0x120 ADD PUSH1 0x40 MSTORE SWAP1 DUP2 PUSH1 0x0 DUP3 ADD PUSH1 0x0 SWAP1 SLOAD SWAP1 PUSH2 0x100 EXP SWAP1 DIV PUSH20 0xFFFFFFFFFFFFFFFFFFFFFFFFFFFFFFFFFFFFFFFF AND PUSH20 0xFFFFFFFFFFFFFFFFFFFFFFFFFFFFFFFFFFFFFFFF AND PUSH20 0xFFFFFFFFFFFFFFFFFFFFFFFFFFFFFFFFFFFFFFFF AND DUP2 MSTORE PUSH1 0x20 ADD PUSH1 0x1 DUP3 ADD PUSH1 0x0 SWAP1 SLOAD SWAP1 PUSH2 0x100 EXP SWAP1 DIV PUSH20 0xFFFFFFFFFFFFFFFFFFFFFFFFFFFFFFFFFFFFFFFF AND PUSH20 0xFFFFFFFFFFFFFFFFFFFFFFFFFFFFFFFFFFFFFFFF AND PUSH20 0xFFFFFFFFFFFFFFFFFFFFFFFFFFFFFFFFFFFFFFFF AND DUP2 MSTORE PUSH1 0x20 ADD PUSH1 0x2 DUP3 ADD PUSH1 0x0 SWAP1 SLOAD SWAP1 PUSH2 0x100 EXP SWAP1 DIV PUSH20 0xFFFFFFFFFFFFFFFFFFFFFFFFFFFFFFFFFFFFFFFF AND PUSH20 0xFFFFFFFFFFFFFFFFFFFFFFFFFFFFFFFFFFFFFFFF AND PUSH20 0xFFFFFFFFFFFFFFFFFFFFFFFFFFFFFFFFFFFFFFFF AND DUP2 MSTORE PUSH1 0x20 ADD PUSH1 0x3 DUP3 ADD SLOAD DUP2 MSTORE PUSH1 0x20 ADD PUSH1 0x4 DUP3 ADD SLOAD DUP2 MSTORE PUSH1 0x20 ADD PUSH1 0x5 DUP3 ADD SLOAD DUP2 MSTORE PUSH1 0x20 ADD PUSH1 0x6 DUP3 ADD SLOAD DUP2 MSTORE PUSH1 0x20 ADD PUSH1 0x7 DUP3 ADD SLOAD DUP2 MSTORE PUSH1 0x20 ADD PUSH1 0x8 DUP3 ADD PUSH1 0x0 SWAP1 SLOAD SWAP1 PUSH2 0x100 EXP SWAP1 DIV PUSH1 0xFF AND ISZERO ISZERO ISZERO ISZERO DUP2 MSTORE POP POP SWAP1 POP PUSH2 0x477 DUP4 PUSH2 0x1BDA JUMP JUMPDEST PUSH2 0x4B6 JUMPI PUSH1 0x40 MLOAD PUSH32 0x8C379A000000000000000000000000000000000000000000000000000000000 DUP2 MSTORE PUSH1 0x4 ADD PUSH2 0x4AD SWAP1 PUSH2 0x2435 JUMP JUMPDEST PUSH1 0x40 MLOAD DUP1 SWAP2 SUB SWAP1 REVERT JUMPDEST PUSH1 0x0 PUSH1 0x2 PUSH1 0x0 DUP6 DUP2 MSTORE PUSH1 0x20 ADD SWAP1 DUP2 MSTORE PUSH1 0x20 ADD PUSH1 0x0 KECCAK256 PUSH1 0x0 DUP4 PUSH1 0xE0 ADD MLOAD DUP2 MSTORE PUSH1 0x20 ADD SWAP1 DUP2 MSTORE PUSH1 0x20 ADD PUSH1 0x0 KECCAK256 PUSH1 0x40 MLOAD DUP1 PUSH1 0x60 ADD PUSH1 0x40 MSTORE SWAP1 DUP2 PUSH1 0x0 DUP3 ADD SLOAD DUP2 MSTORE PUSH1 0x20 ADD PUSH1 0x1 DUP3 ADD SLOAD DUP2 MSTORE PUSH1 0x20 ADD PUSH1 0x2 DUP3 ADD PUSH1 0x0 SWAP1 SLOAD SWAP1 PUSH2 0x100 EXP SWAP1 DIV PUSH20 0xFFFFFFFFFFFFFFFFFFFFFFFFFFFFFFFFFFFFFFFF AND PUSH20 0xFFFFFFFFFFFFFFFFFFFFFFFFFFFFFFFFFFFFFFFF AND PUSH20 0xFFFFFFFFFFFFFFFFFFFFFFFFFFFFFFFFFFFFFFFF AND DUP2 MSTORE POP POP SWAP1 POP CALLER PUSH20 0xFFFFFFFFFFFFFFFFFFFFFFFFFFFFFFFFFFFFFFFF AND DUP2 PUSH1 0x40 ADD MLOAD PUSH20 0xFFFFFFFFFFFFFFFFFFFFFFFFFFFFFFFFFFFFFFFF AND EQ PUSH2 0x5C9 JUMPI PUSH1 0x40 MLOAD PUSH32 0x8C379A000000000000000000000000000000000000000000000000000000000 DUP2 MSTORE PUSH1 0x4 ADD PUSH2 0x5C0 SWAP1 PUSH2 0x24A1 JUMP JUMPDEST PUSH1 0x40 MLOAD DUP1 SWAP2 SUB SWAP1 REVERT JUMPDEST PUSH1 0x0 DUP3 PUSH1 0x40 ADD MLOAD SWAP1 POP DUP1 PUSH20 0xFFFFFFFFFFFFFFFFFFFFFFFFFFFFFFFFFFFFFFFF AND PUSH4 0x42842E0E ADDRESS DUP5 PUSH1 0x40 ADD MLOAD DUP7 PUSH1 0x60 ADD MLOAD PUSH1 0x40 MLOAD DUP5 PUSH4 0xFFFFFFFF AND PUSH1 0xE0 SHL DUP2 MSTORE PUSH1 0x4 ADD PUSH2 0x617 SWAP4 SWAP3 SWAP2 SWAP1 PUSH2 0x24C1 JUMP JUMPDEST PUSH1 0x0 PUSH1 0x40 MLOAD DUP1 DUP4 SUB DUP2 PUSH1 0x0 DUP8 DUP1 EXTCODESIZE ISZERO DUP1 ISZERO PUSH2 0x631 JUMPI PUSH1 0x0 DUP1 REVERT JUMPDEST POP GAS CALL ISZERO DUP1 ISZERO PUSH2 0x645 JUMPI RETURNDATASIZE PUSH1 0x0 DUP1 RETURNDATACOPY RETURNDATASIZE PUSH1 0x0 REVERT JUMPDEST POP POP POP POP POP POP POP POP POP JUMP JUMPDEST TIMESTAMP DUP5 LT ISZERO PUSH2 0x693 JUMPI PUSH1 0x40 MLOAD PUSH32 0x8C379A000000000000000000000000000000000000000000000000000000000 DUP2 MSTORE PUSH1 0x4 ADD PUSH2 0x68A SWAP1 PUSH2 0x2544 JUMP JUMPDEST PUSH1 0x40 MLOAD DUP1 SWAP2 SUB SWAP1 REVERT JUMPDEST DUP4 DUP4 GT PUSH2 0x6D5 JUMPI PUSH1 0x40 MLOAD PUSH32 0x8C379A000000000000000000000000000000000000000000000000000000000 DUP2 MSTORE PUSH1 0x4 ADD PUSH2 0x6CC SWAP1 PUSH2 0x25B0 JUMP JUMPDEST PUSH1 0x40 MLOAD DUP1 SWAP2 SUB SWAP1 REVERT JUMPDEST PUSH1 0x40 MLOAD DUP1 PUSH2 0x120 ADD PUSH1 0x40 MSTORE DUP1 CALLER PUSH20 0xFFFFFFFFFFFFFFFFFFFFFFFFFFFFFFFFFFFFFFFF AND DUP2 MSTORE PUSH1 0x20 ADD DUP9 PUSH20 0xFFFFFFFFFFFFFFFFFFFFFFFFFFFFFFFFFFFFFFFF AND DUP2 MSTORE PUSH1 0x20 ADD DUP8 PUSH20 0xFFFFFFFFFFFFFFFFFFFFFFFFFFFFFFFFFFFFFFFF AND DUP2 MSTORE PUSH1 0x20 ADD DUP7 DUP2 MSTORE PUSH1 0x20 ADD DUP6 DUP2 MSTORE PUSH1 0x20 ADD DUP5 DUP2 MSTORE PUSH1 0x20 ADD DUP4 DUP2 MSTORE PUSH1 0x20 ADD PUSH1 0x0 DUP2 MSTORE PUSH1 0x20 ADD DUP3 ISZERO ISZERO DUP2 MSTORE POP PUSH1 0x1 PUSH1 0x0 DUP1 SLOAD DUP2 MSTORE PUSH1 0x20 ADD SWAP1 DUP2 MSTORE PUSH1 0x20 ADD PUSH1 0x0 KECCAK256 PUSH1 0x0 DUP3 ADD MLOAD DUP2 PUSH1 0x0 ADD PUSH1 0x0 PUSH2 0x100 EXP DUP2 SLOAD DUP2 PUSH20 0xFFFFFFFFFFFFFFFFFFFFFFFFFFFFFFFFFFFFFFFF MUL NOT AND SWAP1 DUP4 PUSH20 0xFFFFFFFFFFFFFFFFFFFFFFFFFFFFFFFFFFFFFFFF AND MUL OR SWAP1 SSTORE POP PUSH1 0x20 DUP3 ADD MLOAD DUP2 PUSH1 0x1 ADD PUSH1 0x0 PUSH2 0x100 EXP DUP2 SLOAD DUP2 PUSH20 0xFFFFFFFFFFFFFFFFFFFFFFFFFFFFFFFFFFFFFFFF MUL NOT AND SWAP1 DUP4 PUSH20 0xFFFFFFFFFFFFFFFFFFFFFFFFFFFFFFFFFFFFFFFF AND MUL OR SWAP1 SSTORE POP PUSH1 0x40 DUP3 ADD MLOAD DUP2 PUSH1 0x2 ADD PUSH1 0x0 PUSH2 0x100 EXP DUP2 SLOAD DUP2 PUSH20 0xFFFFFFFFFFFFFFFFFFFFFFFFFFFFFFFFFFFFFFFF MUL NOT AND SWAP1 DUP4 PUSH20 0xFFFFFFFFFFFFFFFFFFFFFFFFFFFFFFFFFFFFFFFF AND MUL OR SWAP1 SSTORE POP PUSH1 0x60 DUP3 ADD MLOAD DUP2 PUSH1 0x3 ADD SSTORE PUSH1 0x80 DUP3 ADD MLOAD DUP2 PUSH1 0x4 ADD SSTORE PUSH1 0xA0 DUP3 ADD MLOAD DUP2 PUSH1 0x5 ADD SSTORE PUSH1 0xC0 DUP3 ADD MLOAD DUP2 PUSH1 0x6 ADD SSTORE PUSH1 0xE0 DUP3 ADD MLOAD DUP2 PUSH1 0x7 ADD SSTORE PUSH2 0x100 DUP3 ADD MLOAD DUP2 PUSH1 0x8 ADD PUSH1 0x0 PUSH2 0x100 EXP DUP2 SLOAD DUP2 PUSH1 0xFF MUL NOT AND SWAP1 DUP4 ISZERO ISZERO MUL OR SWAP1 SSTORE POP SWAP1 POP POP TIMESTAMP PUSH1 0x2 PUSH1 0x0 DUP1 SLOAD DUP2 MSTORE PUSH1 0x20 ADD SWAP1 DUP2 MSTORE PUSH1 0x20 ADD PUSH1 0x0 KECCAK256 PUSH1 0x0 DUP1 DUP2 MSTORE PUSH1 0x20 ADD SWAP1 DUP2 MSTORE PUSH1 0x20 ADD PUSH1 0x0 KECCAK256 PUSH1 0x0 ADD DUP2 SWAP1 SSTORE POP PUSH1 0x0 SLOAD PUSH32 0xEF8B2952C43462575E82711D0CC91169720A4589A9FA533D173E022437F5405E DUP8 DUP8 PUSH1 0x40 MLOAD PUSH2 0x8FA SWAP3 SWAP2 SWAP1 PUSH2 0x25D0 JUMP JUMPDEST PUSH1 0x40 MLOAD DUP1 SWAP2 SUB SWAP1 LOG2 PUSH1 0x0 DUP1 DUP2 SLOAD DUP1 SWAP3 SWAP2 SWAP1 PUSH2 0x914 SWAP1 PUSH2 0x2628 JUMP JUMPDEST SWAP2 SWAP1 POP SSTORE POP POP POP POP POP POP POP POP JUMP JUMPDEST DUP1 CALLER PUSH20 0xFFFFFFFFFFFFFFFFFFFFFFFFFFFFFFFFFFFFFFFF AND PUSH1 0x1 PUSH1 0x0 DUP4 DUP2 MSTORE PUSH1 0x20 ADD SWAP1 DUP2 MSTORE PUSH1 0x20 ADD PUSH1 0x0 KECCAK256 PUSH1 0x0 ADD PUSH1 0x0 SWAP1 SLOAD SWAP1 PUSH2 0x100 EXP SWAP1 DIV PUSH20 0xFFFFFFFFFFFFFFFFFFFFFFFFFFFFFFFFFFFFFFFF AND PUSH20 0xFFFFFFFFFFFFFFFFFFFFFFFFFFFFFFFFFFFFFFFF AND EQ PUSH2 0x9C7 JUMPI PUSH1 0x40 MLOAD PUSH32 0x8C379A000000000000000000000000000000000000000000000000000000000 DUP2 MSTORE PUSH1 0x4 ADD PUSH2 0x9BE SWAP1 PUSH2 0x23C9 JUMP JUMPDEST PUSH1 0x40 MLOAD DUP1 SWAP2 SUB SWAP1 REVERT JUMPDEST PUSH1 0x0 PUSH1 0x1 PUSH1 0x0 DUP5 DUP2 MSTORE PUSH1 0x20 ADD SWAP1 DUP2 MSTORE PUSH1 0x20 ADD PUSH1 0x0 KECCAK256 PUSH1 0x40 MLOAD DUP1 PUSH2 0x120 ADD PUSH1 0x40 MSTORE SWAP1 DUP2 PUSH1 0x0 DUP3 ADD PUSH1 0x0 SWAP1 SLOAD SWAP1 PUSH2 0x100 EXP SWAP1 DIV PUSH20 0xFFFFFFFFFFFFFFFFFFFFFFFFFFFFFFFFFFFFFFFF AND PUSH20 0xFFFFFFFFFFFFFFFFFFFFFFFFFFFFFFFFFFFFFFFF AND PUSH20 0xFFFFFFFFFFFFFFFFFFFFFFFFFFFFFFFFFFFFFFFF AND DUP2 MSTORE PUSH1 0x20 ADD PUSH1 0x1 DUP3 ADD PUSH1 0x0 SWAP1 SLOAD SWAP1 PUSH2 0x100 EXP SWAP1 DIV PUSH20 0xFFFFFFFFFFFFFFFFFFFFFFFFFFFFFFFFFFFFFFFF AND PUSH20 0xFFFFFFFFFFFFFFFFFFFFFFFFFFFFFFFFFFFFFFFF AND PUSH20 0xFFFFFFFFFFFFFFFFFFFFFFFFFFFFFFFFFFFFFFFF AND DUP2 MSTORE PUSH1 0x20 ADD PUSH1 0x2 DUP3 ADD PUSH1 0x0 SWAP1 SLOAD SWAP1 PUSH2 0x100 EXP SWAP1 DIV PUSH20 0xFFFFFFFFFFFFFFFFFFFFFFFFFFFFFFFFFFFFFFFF AND PUSH20 0xFFFFFFFFFFFFFFFFFFFFFFFFFFFFFFFFFFFFFFFF AND PUSH20 0xFFFFFFFFFFFFFFFFFFFFFFFFFFFFFFFFFFFFFFFF AND DUP2 MSTORE PUSH1 0x20 ADD PUSH1 0x3 DUP3 ADD SLOAD DUP2 MSTORE PUSH1 0x20 ADD PUSH1 0x4 DUP3 ADD SLOAD DUP2 MSTORE PUSH1 0x20 ADD PUSH1 0x5 DUP3 ADD SLOAD DUP2 MSTORE PUSH1 0x20 ADD PUSH1 0x6 DUP3 ADD SLOAD DUP2 MSTORE PUSH1 0x20 ADD PUSH1 0x7 DUP3 ADD SLOAD DUP2 MSTORE PUSH1 0x20 ADD PUSH1 0x8 DUP3 ADD PUSH1 0x0 SWAP1 SLOAD SWAP1 PUSH2 0x100 EXP SWAP1 DIV PUSH1 0xFF AND ISZERO ISZERO ISZERO ISZERO DUP2 MSTORE POP POP SWAP1 POP TIMESTAMP DUP2 PUSH1 0x80 ADD MLOAD GT PUSH2 0xB7F JUMPI PUSH1 0x40 MLOAD PUSH32 0x8C379A000000000000000000000000000000000000000000000000000000000 DUP2 MSTORE PUSH1 0x4 ADD PUSH2 0xB76 SWAP1 PUSH2 0x26BC JUMP JUMPDEST PUSH1 0x40 MLOAD DUP1 SWAP2 SUB SWAP1 REVERT JUMPDEST PUSH2 0xB87 PUSH2 0x1ECB JUMP JUMPDEST SWAP1 POP PUSH32 0xFE785EF891129B084B1C5A30E4D88EB97C97822C024CC25D5F9D806B897512E0 DUP4 PUSH1 0x40 MLOAD PUSH2 0xBB8 SWAP2 SWAP1 PUSH2 0x1F74 JUMP JUMPDEST PUSH1 0x40 MLOAD DUP1 SWAP2 SUB SWAP1 LOG1 POP POP POP JUMP JUMPDEST PUSH1 0x0 PUSH1 0x1 PUSH1 0x0 DUP4 DUP2 MSTORE PUSH1 0x20 ADD SWAP1 DUP2 MSTORE PUSH1 0x20 ADD PUSH1 0x0 KECCAK256 PUSH1 0x40 MLOAD DUP1 PUSH2 0x120 ADD PUSH1 0x40 MSTORE SWAP1 DUP2 PUSH1 0x0 DUP3 ADD PUSH1 0x0 SWAP1 SLOAD SWAP1 PUSH2 0x100 EXP SWAP1 DIV PUSH20 0xFFFFFFFFFFFFFFFFFFFFFFFFFFFFFFFFFFFFFFFF AND PUSH20 0xFFFFFFFFFFFFFFFFFFFFFFFFFFFFFFFFFFFFFFFF AND PUSH20 0xFFFFFFFFFFFFFFFFFFFFFFFFFFFFFFFFFFFFFFFF AND DUP2 MSTORE PUSH1 0x20 ADD PUSH1 0x1 DUP3 ADD PUSH1 0x0 SWAP1 SLOAD SWAP1 PUSH2 0x100 EXP SWAP1 DIV PUSH20 0xFFFFFFFFFFFFFFFFFFFFFFFFFFFFFFFFFFFFFFFF AND PUSH20 0xFFFFFFFFFFFFFFFFFFFFFFFFFFFFFFFFFFFFFFFF AND PUSH20 0xFFFFFFFFFFFFFFFFFFFFFFFFFFFFFFFFFFFFFFFF AND DUP2 MSTORE PUSH1 0x20 ADD PUSH1 0x2 DUP3 ADD PUSH1 0x0 SWAP1 SLOAD SWAP1 PUSH2 0x100 EXP SWAP1 DIV PUSH20 0xFFFFFFFFFFFFFFFFFFFFFFFFFFFFFFFFFFFFFFFF AND PUSH20 0xFFFFFFFFFFFFFFFFFFFFFFFFFFFFFFFFFFFFFFFF AND PUSH20 0xFFFFFFFFFFFFFFFFFFFFFFFFFFFFFFFFFFFFFFFF AND DUP2 MSTORE PUSH1 0x20 ADD PUSH1 0x3 DUP3 ADD SLOAD DUP2 MSTORE PUSH1 0x20 ADD PUSH1 0x4 DUP3 ADD SLOAD DUP2 MSTORE PUSH1 0x20 ADD PUSH1 0x5 DUP3 ADD SLOAD DUP2 MSTORE PUSH1 0x20 ADD PUSH1 0x6 DUP3 ADD SLOAD DUP2 MSTORE PUSH1 0x20 ADD PUSH1 0x7 DUP3 ADD SLOAD DUP2 MSTORE PUSH1 0x20 ADD PUSH1 0x8 DUP3 ADD PUSH1 0x0 SWAP1 SLOAD SWAP1 PUSH2 0x100 EXP SWAP1 DIV PUSH1 0xFF AND ISZERO ISZERO ISZERO ISZERO DUP2 MSTORE POP POP SWAP1 POP PUSH2 0xD40 DUP3 PUSH2 0x1BDA JUMP JUMPDEST PUSH2 0xD7F JUMPI PUSH1 0x40 MLOAD PUSH32 0x8C379A000000000000000000000000000000000000000000000000000000000 DUP2 MSTORE PUSH1 0x4 ADD PUSH2 0xD76 SWAP1 PUSH2 0x2435 JUMP JUMPDEST PUSH1 0x40 MLOAD DUP1 SWAP2 SUB SWAP1 REVERT JUMPDEST PUSH1 0x0 PUSH1 0x2 PUSH1 0x0 DUP5 DUP2 MSTORE PUSH1 0x20 ADD SWAP1 DUP2 MSTORE PUSH1 0x20 ADD PUSH1 0x0 KECCAK256 PUSH1 0x0 DUP4 PUSH1 0xE0 ADD MLOAD DUP2 MSTORE PUSH1 0x20 ADD SWAP1 DUP2 MSTORE PUSH1 0x20 ADD PUSH1 0x0 KECCAK256 PUSH1 0x40 MLOAD DUP1 PUSH1 0x60 ADD PUSH1 0x40 MSTORE SWAP1 DUP2 PUSH1 0x0 DUP3 ADD SLOAD DUP2 MSTORE PUSH1 0x20 ADD PUSH1 0x1 DUP3 ADD SLOAD DUP2 MSTORE PUSH1 0x20 ADD PUSH1 0x2 DUP3 ADD PUSH1 0x0 SWAP1 SLOAD SWAP1 PUSH2 0x100 EXP SWAP1 DIV PUSH20 0xFFFFFFFFFFFFFFFFFFFFFFFFFFFFFFFFFFFFFFFF AND PUSH20 0xFFFFFFFFFFFFFFFFFFFFFFFFFFFFFFFFFFFFFFFF AND PUSH20 0xFFFFFFFFFFFFFFFFFFFFFFFFFFFFFFFFFFFFFFFF AND DUP2 MSTORE POP POP SWAP1 POP CALLER PUSH20 0xFFFFFFFFFFFFFFFFFFFFFFFFFFFFFFFFFFFFFFFF AND DUP2 PUSH1 0x40 ADD MLOAD PUSH20 0xFFFFFFFFFFFFFFFFFFFFFFFFFFFFFFFFFFFFFFFF AND EQ PUSH2 0xE92 JUMPI PUSH1 0x40 MLOAD PUSH32 0x8C379A000000000000000000000000000000000000000000000000000000000 DUP2 MSTORE PUSH1 0x4 ADD PUSH2 0xE89 SWAP1 PUSH2 0x24A1 JUMP JUMPDEST PUSH1 0x40 MLOAD DUP1 SWAP2 SUB SWAP1 REVERT JUMPDEST PUSH1 0x0 DUP3 PUSH1 0x40 ADD MLOAD SWAP1 POP DUP1 PUSH20 0xFFFFFFFFFFFFFFFFFFFFFFFFFFFFFFFFFFFFFFFF AND PUSH4 0x42842E0E ADDRESS CALLER DUP7 PUSH1 0x60 ADD MLOAD PUSH1 0x40 MLOAD DUP5 PUSH4 0xFFFFFFFF AND PUSH1 0xE0 SHL DUP2 MSTORE PUSH1 0x4 ADD PUSH2 0xEDC SWAP4 SWAP3 SWAP2 SWAP1 PUSH2 0x24C1 JUMP JUMPDEST PUSH1 0x0 PUSH1 0x40 MLOAD DUP1 DUP4 SUB DUP2 PUSH1 0x0 DUP8 DUP1 EXTCODESIZE ISZERO DUP1 ISZERO PUSH2 0xEF6 JUMPI PUSH1 0x0 DUP1 REVERT JUMPDEST POP GAS CALL ISZERO DUP1 ISZERO PUSH2 0xF0A JUMPI RETURNDATASIZE PUSH1 0x0 DUP1 RETURNDATACOPY RETURNDATASIZE PUSH1 0x0 REVERT JUMPDEST POP POP POP POP POP POP POP POP JUMP JUMPDEST PUSH2 0xF1D DUP3 PUSH2 0x1BFD JUMP JUMPDEST PUSH2 0xF5C JUMPI PUSH1 0x40 MLOAD PUSH32 0x8C379A000000000000000000000000000000000000000000000000000000000 DUP2 MSTORE PUSH1 0x4 ADD PUSH2 0xF53 SWAP1 PUSH2 0x2728 JUMP JUMPDEST PUSH1 0x40 MLOAD DUP1 SWAP2 SUB SWAP1 REVERT JUMPDEST PUSH2 0xF65 DUP3 PUSH2 0x1BDA JUMP JUMPDEST ISZERO PUSH2 0xFA5 JUMPI PUSH1 0x40 MLOAD PUSH32 0x8C379A000000000000000000000000000000000000000000000000000000000 DUP2 MSTORE PUSH1 0x4 ADD PUSH2 0xF9C SWAP1 PUSH2 0x2794 JUMP JUMPDEST PUSH1 0x40 MLOAD DUP1 SWAP2 SUB SWAP1 REVERT JUMPDEST PUSH1 0x0 PUSH1 0x1 PUSH1 0x0 DUP5 DUP2 MSTORE PUSH1 0x20 ADD SWAP1 DUP2 MSTORE PUSH1 0x20 ADD PUSH1 0x0 KECCAK256 PUSH1 0x40 MLOAD DUP1 PUSH2 0x120 ADD PUSH1 0x40 MSTORE SWAP1 DUP2 PUSH1 0x0 DUP3 ADD PUSH1 0x0 SWAP1 SLOAD SWAP1 PUSH2 0x100 EXP SWAP1 DIV PUSH20 0xFFFFFFFFFFFFFFFFFFFFFFFFFFFFFFFFFFFFFFFF AND PUSH20 0xFFFFFFFFFFFFFFFFFFFFFFFFFFFFFFFFFFFFFFFF AND PUSH20 0xFFFFFFFFFFFFFFFFFFFFFFFFFFFFFFFFFFFFFFFF AND DUP2 MSTORE PUSH1 0x20 ADD PUSH1 0x1 DUP3 ADD PUSH1 0x0 SWAP1 SLOAD SWAP1 PUSH2 0x100 EXP SWAP1 DIV PUSH20 0xFFFFFFFFFFFFFFFFFFFFFFFFFFFFFFFFFFFFFFFF AND PUSH20 0xFFFFFFFFFFFFFFFFFFFFFFFFFFFFFFFFFFFFFFFF AND PUSH20 0xFFFFFFFFFFFFFFFFFFFFFFFFFFFFFFFFFFFFFFFF AND DUP2 MSTORE PUSH1 0x20 ADD PUSH1 0x2 DUP3 ADD PUSH1 0x0 SWAP1 SLOAD SWAP1 PUSH2 0x100 EXP SWAP1 DIV PUSH20 0xFFFFFFFFFFFFFFFFFFFFFFFFFFFFFFFFFFFFFFFF AND PUSH20 0xFFFFFFFFFFFFFFFFFFFFFFFFFFFFFFFFFFFFFFFF AND PUSH20 0xFFFFFFFFFFFFFFFFFFFFFFFFFFFFFFFFFFFFFFFF AND DUP2 MSTORE PUSH1 0x20 ADD PUSH1 0x3 DUP3 ADD SLOAD DUP2 MSTORE PUSH1 0x20 ADD PUSH1 0x4 DUP3 ADD SLOAD DUP2 MSTORE PUSH1 0x20 ADD PUSH1 0x5 DUP3 ADD SLOAD DUP2 MSTORE PUSH1 0x20 ADD PUSH1 0x6 DUP3 ADD SLOAD DUP2 MSTORE PUSH1 0x20 ADD PUSH1 0x7 DUP3 ADD SLOAD DUP2 MSTORE PUSH1 0x20 ADD PUSH1 0x8 DUP3 ADD PUSH1 0x0 SWAP1 SLOAD SWAP1 PUSH2 0x100 EXP SWAP1 DIV PUSH1 0xFF AND ISZERO ISZERO ISZERO ISZERO DUP2 MSTORE POP POP SWAP1 POP PUSH1 0x0 PUSH1 0x1 DUP3 PUSH1 0xE0 ADD MLOAD PUSH2 0x112A SWAP2 SWAP1 PUSH2 0x27B4 JUMP JUMPDEST SWAP1 POP DUP1 DUP3 PUSH1 0xE0 ADD DUP2 DUP2 MSTORE POP POP PUSH1 0x0 PUSH2 0x1141 DUP6 PUSH2 0x1C1F JUMP JUMPDEST SWAP1 POP DUP1 DUP5 GT PUSH2 0x1185 JUMPI PUSH1 0x40 MLOAD PUSH32 0x8C379A000000000000000000000000000000000000000000000000000000000 DUP2 MSTORE PUSH1 0x4 ADD PUSH2 0x117C SWAP1 PUSH2 0x2834 JUMP JUMPDEST PUSH1 0x40 MLOAD DUP1 SWAP2 SUB SWAP1 REVERT JUMPDEST DUP3 PUSH1 0x20 ADD MLOAD PUSH20 0xFFFFFFFFFFFFFFFFFFFFFFFFFFFFFFFFFFFFFFFF AND PUSH4 0x23B872DD CALLER PUSH1 0x2 PUSH1 0x0 DUP10 DUP2 MSTORE PUSH1 0x20 ADD SWAP1 DUP2 MSTORE PUSH1 0x20 ADD PUSH1 0x0 KECCAK256 PUSH1 0x0 DUP7 DUP2 MSTORE PUSH1 0x20 ADD SWAP1 DUP2 MSTORE PUSH1 0x20 ADD PUSH1 0x0 KECCAK256 PUSH1 0x2 ADD PUSH1 0x0 SWAP1 SLOAD SWAP1 PUSH2 0x100 EXP SWAP1 DIV PUSH20 0xFFFFFFFFFFFFFFFFFFFFFFFFFFFFFFFFFFFFFFFF AND DUP5 PUSH1 0x40 MLOAD DUP5 PUSH4 0xFFFFFFFF AND PUSH1 0xE0 SHL DUP2 MSTORE PUSH1 0x4 ADD PUSH2 0x120D SWAP4 SWAP3 SWAP2 SWAP1 PUSH2 0x24C1 JUMP JUMPDEST PUSH1 0x20 PUSH1 0x40 MLOAD DUP1 DUP4 SUB DUP2 PUSH1 0x0 DUP8 GAS CALL ISZERO DUP1 ISZERO PUSH2 0x122C JUMPI RETURNDATASIZE PUSH1 0x0 DUP1 RETURNDATACOPY RETURNDATASIZE PUSH1 0x0 REVERT JUMPDEST POP POP POP POP PUSH1 0x40 MLOAD RETURNDATASIZE PUSH1 0x1F NOT PUSH1 0x1F DUP3 ADD AND DUP3 ADD DUP1 PUSH1 0x40 MSTORE POP DUP2 ADD SWAP1 PUSH2 0x1250 SWAP2 SWAP1 PUSH2 0x2869 JUMP JUMPDEST POP DUP3 PUSH1 0x20 ADD MLOAD PUSH20 0xFFFFFFFFFFFFFFFFFFFFFFFFFFFFFFFFFFFFFFFF AND PUSH4 0x23B872DD CALLER DUP6 PUSH1 0x0 ADD MLOAD DUP5 DUP9 PUSH2 0x1283 SWAP2 SWAP1 PUSH2 0x2896 JUMP JUMPDEST PUSH1 0x40 MLOAD DUP5 PUSH4 0xFFFFFFFF AND PUSH1 0xE0 SHL DUP2 MSTORE PUSH1 0x4 ADD PUSH2 0x12A1 SWAP4 SWAP3 SWAP2 SWAP1 PUSH2 0x24C1 JUMP JUMPDEST PUSH1 0x20 PUSH1 0x40 MLOAD DUP1 DUP4 SUB DUP2 PUSH1 0x0 DUP8 GAS CALL ISZERO DUP1 ISZERO PUSH2 0x12C0 JUMPI RETURNDATASIZE PUSH1 0x0 DUP1 RETURNDATACOPY RETURNDATASIZE PUSH1 0x0 REVERT JUMPDEST POP POP POP POP PUSH1 0x40 MLOAD RETURNDATASIZE PUSH1 0x1F NOT PUSH1 0x1F DUP3 ADD AND DUP3 ADD DUP1 PUSH1 0x40 MSTORE POP DUP2 ADD SWAP1 PUSH2 0x12E4 SWAP2 SWAP1 PUSH2 0x2869 JUMP JUMPDEST POP PUSH1 0x40 MLOAD DUP1 PUSH1 0x60 ADD PUSH1 0x40 MSTORE DUP1 TIMESTAMP DUP2 MSTORE PUSH1 0x20 ADD DUP6 DUP2 MSTORE PUSH1 0x20 ADD CALLER PUSH20 0xFFFFFFFFFFFFFFFFFFFFFFFFFFFFFFFFFFFFFFFF AND DUP2 MSTORE POP PUSH1 0x2 PUSH1 0x0 DUP8 DUP2 MSTORE PUSH1 0x20 ADD SWAP1 DUP2 MSTORE PUSH1 0x20 ADD PUSH1 0x0 KECCAK256 PUSH1 0x0 DUP5 DUP2 MSTORE PUSH1 0x20 ADD SWAP1 DUP2 MSTORE PUSH1 0x20 ADD PUSH1 0x0 KECCAK256 PUSH1 0x0 DUP3 ADD MLOAD DUP2 PUSH1 0x0 ADD SSTORE PUSH1 0x20 DUP3 ADD MLOAD DUP2 PUSH1 0x1 ADD SSTORE PUSH1 0x40 DUP3 ADD MLOAD DUP2 PUSH1 0x2 ADD PUSH1 0x0 PUSH2 0x100 EXP DUP2 SLOAD DUP2 PUSH20 0xFFFFFFFFFFFFFFFFFFFFFFFFFFFFFFFFFFFFFFFF MUL NOT AND SWAP1 DUP4 PUSH20 0xFFFFFFFFFFFFFFFFFFFFFFFFFFFFFFFFFFFFFFFF AND MUL OR SWAP1 SSTORE POP SWAP1 POP POP POP POP POP POP POP JUMP JUMPDEST DUP1 CALLER PUSH20 0xFFFFFFFFFFFFFFFFFFFFFFFFFFFFFFFFFFFFFFFF AND PUSH1 0x1 PUSH1 0x0 DUP4 DUP2 MSTORE PUSH1 0x20 ADD SWAP1 DUP2 MSTORE PUSH1 0x20 ADD PUSH1 0x0 KECCAK256 PUSH1 0x0 ADD PUSH1 0x0 SWAP1 SLOAD SWAP1 PUSH2 0x100 EXP SWAP1 DIV PUSH20 0xFFFFFFFFFFFFFFFFFFFFFFFFFFFFFFFFFFFFFFFF AND PUSH20 0xFFFFFFFFFFFFFFFFFFFFFFFFFFFFFFFFFFFFFFFF AND EQ PUSH2 0x1444 JUMPI PUSH1 0x40 MLOAD PUSH32 0x8C379A000000000000000000000000000000000000000000000000000000000 DUP2 MSTORE PUSH1 0x4 ADD PUSH2 0x143B SWAP1 PUSH2 0x23C9 JUMP JUMPDEST PUSH1 0x40 MLOAD DUP1 SWAP2 SUB SWAP1 REVERT JUMPDEST PUSH1 0x0 PUSH1 0x1 PUSH1 0x0 DUP5 DUP2 MSTORE PUSH1 0x20 ADD SWAP1 DUP2 MSTORE PUSH1 0x20 ADD PUSH1 0x0 KECCAK256 PUSH1 0x40 MLOAD DUP1 PUSH2 0x120 ADD PUSH1 0x40 MSTORE SWAP1 DUP2 PUSH1 0x0 DUP3 ADD PUSH1 0x0 SWAP1 SLOAD SWAP1 PUSH2 0x100 EXP SWAP1 DIV PUSH20 0xFFFFFFFFFFFFFFFFFFFFFFFFFFFFFFFFFFFFFFFF AND PUSH20 0xFFFFFFFFFFFFFFFFFFFFFFFFFFFFFFFFFFFFFFFF AND PUSH20 0xFFFFFFFFFFFFFFFFFFFFFFFFFFFFFFFFFFFFFFFF AND DUP2 MSTORE PUSH1 0x20 ADD PUSH1 0x1 DUP3 ADD PUSH1 0x0 SWAP1 SLOAD SWAP1 PUSH2 0x100 EXP SWAP1 DIV PUSH20 0xFFFFFFFFFFFFFFFFFFFFFFFFFFFFFFFFFFFFFFFF AND PUSH20 0xFFFFFFFFFFFFFFFFFFFFFFFFFFFFFFFFFFFFFFFF AND PUSH20 0xFFFFFFFFFFFFFFFFFFFFFFFFFFFFFFFFFFFFFFFF AND DUP2 MSTORE PUSH1 0x20 ADD PUSH1 0x2 DUP3 ADD PUSH1 0x0 SWAP1 SLOAD SWAP1 PUSH2 0x100 EXP SWAP1 DIV PUSH20 0xFFFFFFFFFFFFFFFFFFFFFFFFFFFFFFFFFFFFFFFF AND PUSH20 0xFFFFFFFFFFFFFFFFFFFFFFFFFFFFFFFFFFFFFFFF AND PUSH20 0xFFFFFFFFFFFFFFFFFFFFFFFFFFFFFFFFFFFFFFFF AND DUP2 MSTORE PUSH1 0x20 ADD PUSH1 0x3 DUP3 ADD SLOAD DUP2 MSTORE PUSH1 0x20 ADD PUSH1 0x4 DUP3 ADD SLOAD DUP2 MSTORE PUSH1 0x20 ADD PUSH1 0x5 DUP3 ADD SLOAD DUP2 MSTORE PUSH1 0x20 ADD PUSH1 0x6 DUP3 ADD SLOAD DUP2 MSTORE PUSH1 0x20 ADD PUSH1 0x7 DUP3 ADD SLOAD DUP2 MSTORE PUSH1 0x20 ADD PUSH1 0x8 DUP3 ADD PUSH1 0x0 SWAP1 SLOAD SWAP1 PUSH2 0x100 EXP SWAP1 DIV PUSH1 0xFF AND ISZERO ISZERO ISZERO ISZERO DUP2 MSTORE POP POP SWAP1 POP PUSH1 0x0 PUSH1 0x2 PUSH1 0x0 DUP6 DUP2 MSTORE PUSH1 0x20 ADD SWAP1 DUP2 MSTORE PUSH1 0x20 ADD PUSH1 0x0 KECCAK256 PUSH1 0x0 DUP4 PUSH1 0xE0 ADD MLOAD DUP2 MSTORE PUSH1 0x20 ADD SWAP1 DUP2 MSTORE PUSH1 0x20 ADD PUSH1 0x0 KECCAK256 PUSH1 0x40 MLOAD DUP1 PUSH1 0x60 ADD PUSH1 0x40 MSTORE SWAP1 DUP2 PUSH1 0x0 DUP3 ADD SLOAD DUP2 MSTORE PUSH1 0x20 ADD PUSH1 0x1 DUP3 ADD SLOAD DUP2 MSTORE PUSH1 0x20 ADD PUSH1 0x2 DUP3 ADD PUSH1 0x0 SWAP1 SLOAD SWAP1 PUSH2 0x100 EXP SWAP1 DIV PUSH20 0xFFFFFFFFFFFFFFFFFFFFFFFFFFFFFFFFFFFFFFFF AND PUSH20 0xFFFFFFFFFFFFFFFFFFFFFFFFFFFFFFFFFFFFFFFF AND PUSH20 0xFFFFFFFFFFFFFFFFFFFFFFFFFFFFFFFFFFFFFFFF AND DUP2 MSTORE POP POP SWAP1 POP DUP2 PUSH1 0x20 ADD MLOAD PUSH20 0xFFFFFFFFFFFFFFFFFFFFFFFFFFFFFFFFFFFFFFFF AND PUSH4 0x23B872DD CALLER DUP4 PUSH1 0x40 ADD MLOAD PUSH2 0x1686 DUP9 PUSH2 0x1C1F JUMP JUMPDEST PUSH1 0x40 MLOAD DUP5 PUSH4 0xFFFFFFFF AND PUSH1 0xE0 SHL DUP2 MSTORE PUSH1 0x4 ADD PUSH2 0x16A4 SWAP4 SWAP3 SWAP2 SWAP1 PUSH2 0x24C1 JUMP JUMPDEST PUSH1 0x20 PUSH1 0x40 MLOAD DUP1 DUP4 SUB DUP2 PUSH1 0x0 DUP8 GAS CALL ISZERO DUP1 ISZERO PUSH2 0x16C3 JUMPI RETURNDATASIZE PUSH1 0x0 DUP1 RETURNDATACOPY RETURNDATASIZE PUSH1 0x0 REVERT JUMPDEST POP POP POP POP PUSH1 0x40 MLOAD RETURNDATASIZE PUSH1 0x1F NOT PUSH1 0x1F DUP3 ADD AND DUP3 ADD DUP1 PUSH1 0x40 MSTORE POP DUP2 ADD SWAP1 PUSH2 0x16E7 SWAP2 SWAP1 PUSH2 0x2869 JUMP JUMPDEST POP PUSH1 0x0 DUP3 PUSH1 0x40 ADD MLOAD SWAP1 POP DUP1 PUSH20 0xFFFFFFFFFFFFFFFFFFFFFFFFFFFFFFFFFFFFFFFF AND PUSH4 0x42842E0E ADDRESS CALLER DUP7 PUSH1 0x60 ADD MLOAD PUSH1 0x40 MLOAD DUP5 PUSH4 0xFFFFFFFF AND PUSH1 0xE0 SHL DUP2 MSTORE PUSH1 0x4 ADD PUSH2 0x1732 SWAP4 SWAP3 SWAP2 SWAP1 PUSH2 0x24C1 JUMP JUMPDEST PUSH1 0x0 PUSH1 0x40 MLOAD DUP1 DUP4 SUB DUP2 PUSH1 0x0 DUP8 DUP1 EXTCODESIZE ISZERO DUP1 ISZERO PUSH2 0x174C JUMPI PUSH1 0x0 DUP1 REVERT JUMPDEST POP GAS CALL ISZERO DUP1 ISZERO PUSH2 0x1760 JUMPI RETURNDATASIZE PUSH1 0x0 DUP1 RETURNDATACOPY RETURNDATASIZE PUSH1 0x0 REVERT JUMPDEST POP POP POP POP POP POP POP POP POP JUMP JUMPDEST PUSH1 0x2 PUSH1 0x20 MSTORE DUP2 PUSH1 0x0 MSTORE PUSH1 0x40 PUSH1 0x0 KECCAK256 PUSH1 0x20 MSTORE DUP1 PUSH1 0x0 MSTORE PUSH1 0x40 PUSH1 0x0 KECCAK256 PUSH1 0x0 SWAP2 POP SWAP2 POP POP DUP1 PUSH1 0x0 ADD SLOAD SWAP1 DUP1 PUSH1 0x1 ADD SLOAD SWAP1 DUP1 PUSH1 0x2 ADD PUSH1 0x0 SWAP1 SLOAD SWAP1 PUSH2 0x100 EXP SWAP1 DIV PUSH20 0xFFFFFFFFFFFFFFFFFFFFFFFFFFFFFFFFFFFFFFFF AND SWAP1 POP DUP4 JUMP JUMPDEST POP POP POP JUMP JUMPDEST PUSH2 0x17D0 DUP3 PUSH2 0x1BFD JUMP JUMPDEST PUSH2 0x180F JUMPI PUSH1 0x40 MLOAD PUSH32 0x8C379A000000000000000000000000000000000000000000000000000000000 DUP2 MSTORE PUSH1 0x4 ADD PUSH2 0x1806 SWAP1 PUSH2 0x2728 JUMP JUMPDEST PUSH1 0x40 MLOAD DUP1 SWAP2 SUB SWAP1 REVERT JUMPDEST PUSH2 0x1818 DUP3 PUSH2 0x1BDA JUMP JUMPDEST ISZERO PUSH2 0x1858 JUMPI PUSH1 0x40 MLOAD PUSH32 0x8C379A000000000000000000000000000000000000000000000000000000000 DUP2 MSTORE PUSH1 0x4 ADD PUSH2 0x184F SWAP1 PUSH2 0x2794 JUMP JUMPDEST PUSH1 0x40 MLOAD DUP1 SWAP2 SUB SWAP1 REVERT JUMPDEST PUSH1 0x0 PUSH1 0x1 PUSH1 0x0 DUP5 DUP2 MSTORE PUSH1 0x20 ADD SWAP1 DUP2 MSTORE PUSH1 0x20 ADD PUSH1 0x0 KECCAK256 PUSH1 0x40 MLOAD DUP1 PUSH2 0x120 ADD PUSH1 0x40 MSTORE SWAP1 DUP2 PUSH1 0x0 DUP3 ADD PUSH1 0x0 SWAP1 SLOAD SWAP1 PUSH2 0x100 EXP SWAP1 DIV PUSH20 0xFFFFFFFFFFFFFFFFFFFFFFFFFFFFFFFFFFFFFFFF AND PUSH20 0xFFFFFFFFFFFFFFFFFFFFFFFFFFFFFFFFFFFFFFFF AND PUSH20 0xFFFFFFFFFFFFFFFFFFFFFFFFFFFFFFFFFFFFFFFF AND DUP2 MSTORE PUSH1 0x20 ADD PUSH1 0x1 DUP3 ADD PUSH1 0x0 SWAP1 SLOAD SWAP1 PUSH2 0x100 EXP SWAP1 DIV PUSH20 0xFFFFFFFFFFFFFFFFFFFFFFFFFFFFFFFFFFFFFFFF AND PUSH20 0xFFFFFFFFFFFFFFFFFFFFFFFFFFFFFFFFFFFFFFFF AND PUSH20 0xFFFFFFFFFFFFFFFFFFFFFFFFFFFFFFFFFFFFFFFF AND DUP2 MSTORE PUSH1 0x20 ADD PUSH1 0x2 DUP3 ADD PUSH1 0x0 SWAP1 SLOAD SWAP1 PUSH2 0x100 EXP SWAP1 DIV PUSH20 0xFFFFFFFFFFFFFFFFFFFFFFFFFFFFFFFFFFFFFFFF AND PUSH20 0xFFFFFFFFFFFFFFFFFFFFFFFFFFFFFFFFFFFFFFFF AND PUSH20 0xFFFFFFFFFFFFFFFFFFFFFFFFFFFFFFFFFFFFFFFF AND DUP2 MSTORE PUSH1 0x20 ADD PUSH1 0x3 DUP3 ADD SLOAD DUP2 MSTORE PUSH1 0x20 ADD PUSH1 0x4 DUP3 ADD SLOAD DUP2 MSTORE PUSH1 0x20 ADD PUSH1 0x5 DUP3 ADD SLOAD DUP2 MSTORE PUSH1 0x20 ADD PUSH1 0x6 DUP3 ADD SLOAD DUP2 MSTORE PUSH1 0x20 ADD PUSH1 0x7 DUP3 ADD SLOAD DUP2 MSTORE PUSH1 0x20 ADD PUSH1 0x8 DUP3 ADD PUSH1 0x0 SWAP1 SLOAD SWAP1 PUSH2 0x100 EXP SWAP1 DIV PUSH1 0xFF AND ISZERO ISZERO ISZERO ISZERO DUP2 MSTORE POP POP SWAP1 POP PUSH1 0x0 PUSH1 0x2 PUSH1 0x0 DUP6 DUP2 MSTORE PUSH1 0x20 ADD SWAP1 DUP2 MSTORE PUSH1 0x20 ADD PUSH1 0x0 KECCAK256 PUSH1 0x0 DUP4 PUSH1 0xE0 ADD MLOAD DUP2 MSTORE PUSH1 0x20 ADD SWAP1 DUP2 MSTORE PUSH1 0x20 ADD PUSH1 0x0 KECCAK256 SWAP1 POP CALLER PUSH20 0xFFFFFFFFFFFFFFFFFFFFFFFFFFFFFFFFFFFFFFFF AND DUP2 PUSH1 0x2 ADD PUSH1 0x0 SWAP1 SLOAD SWAP1 PUSH2 0x100 EXP SWAP1 DIV PUSH20 0xFFFFFFFFFFFFFFFFFFFFFFFFFFFFFFFFFFFFFFFF AND PUSH20 0xFFFFFFFFFFFFFFFFFFFFFFFFFFFFFFFFFFFFFFFF AND EQ PUSH2 0x1A88 JUMPI PUSH1 0x40 MLOAD PUSH32 0x8C379A000000000000000000000000000000000000000000000000000000000 DUP2 MSTORE PUSH1 0x4 ADD PUSH2 0x1A7F SWAP1 PUSH2 0x2916 JUMP JUMPDEST PUSH1 0x40 MLOAD DUP1 SWAP2 SUB SWAP1 REVERT JUMPDEST DUP3 DUP2 PUSH1 0x2 ADD PUSH1 0x0 PUSH2 0x100 EXP DUP2 SLOAD DUP2 PUSH20 0xFFFFFFFFFFFFFFFFFFFFFFFFFFFFFFFFFFFFFFFF MUL NOT AND SWAP1 DUP4 PUSH20 0xFFFFFFFFFFFFFFFFFFFFFFFFFFFFFFFFFFFFFFFF AND MUL OR SWAP1 SSTORE POP POP POP POP POP JUMP JUMPDEST PUSH1 0x3 PUSH1 0x20 MSTORE DUP2 PUSH1 0x0 MSTORE PUSH1 0x40 PUSH1 0x0 KECCAK256 DUP2 DUP2 SLOAD DUP2 LT PUSH2 0x1AED JUMPI PUSH1 0x0 DUP1 REVERT JUMPDEST SWAP1 PUSH1 0x0 MSTORE PUSH1 0x20 PUSH1 0x0 KECCAK256 ADD PUSH1 0x0 SWAP2 POP SWAP2 POP SWAP1 SLOAD SWAP1 PUSH2 0x100 EXP SWAP1 DIV PUSH20 0xFFFFFFFFFFFFFFFFFFFFFFFFFFFFFFFFFFFFFFFF AND DUP2 JUMP JUMPDEST PUSH1 0x1 PUSH1 0x20 MSTORE DUP1 PUSH1 0x0 MSTORE PUSH1 0x40 PUSH1 0x0 KECCAK256 PUSH1 0x0 SWAP2 POP SWAP1 POP DUP1 PUSH1 0x0 ADD PUSH1 0x0 SWAP1 SLOAD SWAP1 PUSH2 0x100 EXP SWAP1 DIV PUSH20 0xFFFFFFFFFFFFFFFFFFFFFFFFFFFFFFFFFFFFFFFF AND SWAP1 DUP1 PUSH1 0x1 ADD PUSH1 0x0 SWAP1 SLOAD SWAP1 PUSH2 0x100 EXP SWAP1 DIV PUSH20 0xFFFFFFFFFFFFFFFFFFFFFFFFFFFFFFFFFFFFFFFF AND SWAP1 DUP1 PUSH1 0x2 ADD PUSH1 0x0 SWAP1 SLOAD SWAP1 PUSH2 0x100 EXP SWAP1 DIV PUSH20 0xFFFFFFFFFFFFFFFFFFFFFFFFFFFFFFFFFFFFFFFF AND SWAP1 DUP1 PUSH1 0x3 ADD SLOAD SWAP1 DUP1 PUSH1 0x4 ADD SLOAD SWAP1 DUP1 PUSH1 0x5 ADD SLOAD SWAP1 DUP1 PUSH1 0x6 ADD SLOAD SWAP1 DUP1 PUSH1 0x7 ADD SLOAD SWAP1 DUP1 PUSH1 0x8 ADD PUSH1 0x0 SWAP1 SLOAD SWAP1 PUSH2 0x100 EXP SWAP1 DIV PUSH1 0xFF AND SWAP1 POP DUP10 JUMP JUMPDEST PUSH1 0x0 TIMESTAMP PUSH1 0x1 PUSH1 0x0 DUP5 DUP2 MSTORE PUSH1 0x20 ADD SWAP1 DUP2 MSTORE PUSH1 0x20 ADD PUSH1 0x0 KECCAK256 PUSH1 0x5 ADD SLOAD GT ISZERO SWAP1 POP SWAP2 SWAP1 POP JUMP JUMPDEST PUSH1 0x0 TIMESTAMP PUSH1 0x1 PUSH1 0x0 DUP5 DUP2 MSTORE PUSH1 0x20 ADD SWAP1 DUP2 MSTORE PUSH1 0x20 ADD PUSH1 0x0 KECCAK256 PUSH1 0x4 ADD SLOAD LT SWAP1 POP SWAP2 SWAP1 POP JUMP JUMPDEST PUSH1 0x0 DUP1 PUSH1 0x1 PUSH1 0x0 DUP5 DUP2 MSTORE PUSH1 0x20 ADD SWAP1 DUP2 MSTORE PUSH1 0x20 ADD PUSH1 0x0 KECCAK256 PUSH1 0x40 MLOAD DUP1 PUSH2 0x120 ADD PUSH1 0x40 MSTORE SWAP1 DUP2 PUSH1 0x0 DUP3 ADD PUSH1 0x0 SWAP1 SLOAD SWAP1 PUSH2 0x100 EXP SWAP1 DIV PUSH20 0xFFFFFFFFFFFFFFFFFFFFFFFFFFFFFFFFFFFFFFFF AND PUSH20 0xFFFFFFFFFFFFFFFFFFFFFFFFFFFFFFFFFFFFFFFF AND PUSH20 0xFFFFFFFFFFFFFFFFFFFFFFFFFFFFFFFFFFFFFFFF AND DUP2 MSTORE PUSH1 0x20 ADD PUSH1 0x1 DUP3 ADD PUSH1 0x0 SWAP1 SLOAD SWAP1 PUSH2 0x100 EXP SWAP1 DIV PUSH20 0xFFFFFFFFFFFFFFFFFFFFFFFFFFFFFFFFFFFFFFFF AND PUSH20 0xFFFFFFFFFFFFFFFFFFFFFFFFFFFFFFFFFFFFFFFF AND PUSH20 0xFFFFFFFFFFFFFFFFFFFFFFFFFFFFFFFFFFFFFFFF AND DUP2 MSTORE PUSH1 0x20 ADD PUSH1 0x2 DUP3 ADD PUSH1 0x0 SWAP1 SLOAD SWAP1 PUSH2 0x100 EXP SWAP1 DIV PUSH20 0xFFFFFFFFFFFFFFFFFFFFFFFFFFFFFFFFFFFFFFFF AND PUSH20 0xFFFFFFFFFFFFFFFFFFFFFFFFFFFFFFFFFFFFFFFF AND PUSH20 0xFFFFFFFFFFFFFFFFFFFFFFFFFFFFFFFFFFFFFFFF AND DUP2 MSTORE PUSH1 0x20 ADD PUSH1 0x3 DUP3 ADD SLOAD DUP2 MSTORE PUSH1 0x20 ADD PUSH1 0x4 DUP3 ADD SLOAD DUP2 MSTORE PUSH1 0x20 ADD PUSH1 0x5 DUP3 ADD SLOAD DUP2 MSTORE PUSH1 0x20 ADD PUSH1 0x6 DUP3 ADD SLOAD DUP2 MSTORE PUSH1 0x20 ADD PUSH1 0x7 DUP3 ADD SLOAD DUP2 MSTORE PUSH1 0x20 ADD PUSH1 0x8 DUP3 ADD PUSH1 0x0 SWAP1 SLOAD SWAP1 PUSH2 0x100 EXP SWAP1 DIV PUSH1 0xFF AND ISZERO ISZERO ISZERO ISZERO DUP2 MSTORE POP POP SWAP1 POP PUSH1 0x0 PUSH1 0x2 PUSH1 0x0 DUP6 DUP2 MSTORE PUSH1 0x20 ADD SWAP1 DUP2 MSTORE PUSH1 0x20 ADD PUSH1 0x0 KECCAK256 PUSH1 0x0 DUP4 PUSH1 0xE0 ADD MLOAD DUP2 MSTORE PUSH1 0x20 ADD SWAP1 DUP2 MSTORE PUSH1 0x20 ADD PUSH1 0x0 KECCAK256 PUSH1 0x40 MLOAD DUP1 PUSH1 0x60 ADD PUSH1 0x40 MSTORE SWAP1 DUP2 PUSH1 0x0 DUP3 ADD SLOAD DUP2 MSTORE PUSH1 0x20 ADD PUSH1 0x1 DUP3 ADD SLOAD DUP2 MSTORE PUSH1 0x20 ADD PUSH1 0x2 DUP3 ADD PUSH1 0x0 SWAP1 SLOAD SWAP1 PUSH2 0x100 EXP SWAP1 DIV PUSH20 0xFFFFFFFFFFFFFFFFFFFFFFFFFFFFFFFFFFFFFFFF AND PUSH20 0xFFFFFFFFFFFFFFFFFFFFFFFFFFFFFFFFFFFFFFFF AND PUSH20 0xFFFFFFFFFFFFFFFFFFFFFFFFFFFFFFFFFFFFFFFF AND DUP2 MSTORE POP POP SWAP1 POP PUSH1 0x0 PUSH2 0x1E3E DUP6 PUSH2 0x1BDA JUMP JUMPDEST ISZERO PUSH2 0x1E5E JUMPI DUP3 PUSH1 0xA0 ADD MLOAD DUP3 PUSH1 0x0 ADD MLOAD PUSH2 0x1E57 SWAP2 SWAP1 PUSH2 0x2896 JUMP JUMPDEST SWAP1 POP PUSH2 0x1E71 JUMP JUMPDEST TIMESTAMP DUP3 PUSH1 0x0 ADD MLOAD PUSH2 0x1E6E SWAP2 SWAP1 PUSH2 0x2896 JUMP JUMPDEST SWAP1 POP JUMPDEST PUSH4 0x1E13380 DUP2 PUSH8 0xDE0B6B3A7640000 DUP6 PUSH1 0xC0 ADD MLOAD DUP6 PUSH1 0x20 ADD MLOAD PUSH2 0x1E94 SWAP2 SWAP1 PUSH2 0x2936 JUMP JUMPDEST PUSH2 0x1E9E SWAP2 SWAP1 PUSH2 0x29BF JUMP JUMPDEST PUSH2 0x1EA8 SWAP2 SWAP1 PUSH2 0x2936 JUMP JUMPDEST PUSH2 0x1EB2 SWAP2 SWAP1 PUSH2 0x29BF JUMP JUMPDEST DUP3 PUSH1 0x20 ADD MLOAD PUSH2 0x1EC1 SWAP2 SWAP1 PUSH2 0x27B4 JUMP JUMPDEST SWAP4 POP POP POP POP SWAP2 SWAP1 POP JUMP JUMPDEST PUSH1 0x40 MLOAD DUP1 PUSH2 0x120 ADD PUSH1 0x40 MSTORE DUP1 PUSH1 0x0 PUSH20 0xFFFFFFFFFFFFFFFFFFFFFFFFFFFFFFFFFFFFFFFF AND DUP2 MSTORE PUSH1 0x20 ADD PUSH1 0x0 PUSH20 0xFFFFFFFFFFFFFFFFFFFFFFFFFFFFFFFFFFFFFFFF AND DUP2 MSTORE PUSH1 0x20 ADD PUSH1 0x0 PUSH20 0xFFFFFFFFFFFFFFFFFFFFFFFFFFFFFFFFFFFFFFFF AND DUP2 MSTORE PUSH1 0x20 ADD PUSH1 0x0 DUP2 MSTORE PUSH1 0x20 ADD PUSH1 0x0 DUP2 MSTORE PUSH1 0x20 ADD PUSH1 0x0 DUP2 MSTORE PUSH1 0x20 ADD PUSH1 0x0 DUP2 MSTORE PUSH1 0x20 ADD PUSH1 0x0 DUP2 MSTORE PUSH1 0x20 ADD PUSH1 0x0 ISZERO ISZERO DUP2 MSTORE POP SWAP1 JUMP JUMPDEST PUSH1 0x0 DUP2 SWAP1 POP SWAP2 SWAP1 POP JUMP JUMPDEST PUSH2 0x1F6E DUP2 PUSH2 0x1F5B JUMP JUMPDEST DUP3 MSTORE POP POP JUMP JUMPDEST PUSH1 0x0 PUSH1 0x20 DUP3 ADD SWAP1 POP PUSH2 0x1F89 PUSH1 0x0 DUP4 ADD DUP5 PUSH2 0x1F65 JUMP JUMPDEST SWAP3 SWAP2 POP POP JUMP JUMPDEST PUSH1 0x0 DUP1 REVERT JUMPDEST PUSH1 0x0 DUP1 REVERT JUMPDEST PUSH2 0x1FA2 DUP2 PUSH2 0x1F5B JUMP JUMPDEST DUP2 EQ PUSH2 0x1FAD JUMPI PUSH1 0x0 DUP1 REVERT JUMPDEST POP JUMP JUMPDEST PUSH1 0x0 DUP2 CALLDATALOAD SWAP1 POP PUSH2 0x1FBF DUP2 PUSH2 0x1F99 JUMP JUMPDEST SWAP3 SWAP2 POP POP JUMP JUMPDEST PUSH1 0x0 PUSH1 0x20 DUP3 DUP5 SUB SLT ISZERO PUSH2 0x1FDB JUMPI PUSH2 0x1FDA PUSH2 0x1F8F JUMP JUMPDEST JUMPDEST PUSH1 0x0 PUSH2 0x1FE9 DUP5 DUP3 DUP6 ADD PUSH2 0x1FB0 JUMP JUMPDEST SWAP2 POP POP SWAP3 SWAP2 POP POP JUMP JUMPDEST PUSH1 0x0 PUSH20 0xFFFFFFFFFFFFFFFFFFFFFFFFFFFFFFFFFFFFFFFF DUP3 AND SWAP1 POP SWAP2 SWAP1 POP JUMP JUMPDEST PUSH1 0x0 PUSH2 0x201D DUP3 PUSH2 0x1FF2 JUMP JUMPDEST SWAP1 POP SWAP2 SWAP1 POP JUMP JUMPDEST PUSH2 0x202D DUP2 PUSH2 0x2012 JUMP JUMPDEST DUP2 EQ PUSH2 0x2038 JUMPI PUSH1 0x0 DUP1 REVERT JUMPDEST POP JUMP JUMPDEST PUSH1 0x0 DUP2 CALLDATALOAD SWAP1 POP PUSH2 0x204A DUP2 PUSH2 0x2024 JUMP JUMPDEST SWAP3 SWAP2 POP POP JUMP JUMPDEST PUSH1 0x0 DUP2 ISZERO ISZERO SWAP1 POP SWAP2 SWAP1 POP JUMP JUMPDEST PUSH2 0x2065 DUP2 PUSH2 0x2050 JUMP JUMPDEST DUP2 EQ PUSH2 0x2070 JUMPI PUSH1 0x0 DUP1 REVERT JUMPDEST POP JUMP JUMPDEST PUSH1 0x0 DUP2 CALLDATALOAD SWAP1 POP PUSH2 0x2082 DUP2 PUSH2 0x205C JUMP JUMPDEST SWAP3 SWAP2 POP POP JUMP JUMPDEST PUSH1 0x0 DUP1 PUSH1 0x0 DUP1 PUSH1 0x0 DUP1 PUSH1 0x0 PUSH1 0xE0 DUP9 DUP11 SUB SLT ISZERO PUSH2 0x20A7 JUMPI PUSH2 0x20A6 PUSH2 0x1F8F JUMP JUMPDEST JUMPDEST PUSH1 0x0 PUSH2 0x20B5 DUP11 DUP3 DUP12 ADD PUSH2 0x203B JUMP JUMPDEST SWAP8 POP POP PUSH1 0x20 PUSH2 0x20C6 DUP11 DUP3 DUP12 ADD PUSH2 0x203B JUMP JUMPDEST SWAP7 POP POP PUSH1 0x40 PUSH2 0x20D7 DUP11 DUP3 DUP12 ADD PUSH2 0x1FB0 JUMP JUMPDEST SWAP6 POP POP PUSH1 0x60 PUSH2 0x20E8 DUP11 DUP3 DUP12 ADD PUSH2 0x1FB0 JUMP JUMPDEST SWAP5 POP POP PUSH1 0x80 PUSH2 0x20F9 DUP11 DUP3 DUP12 ADD PUSH2 0x1FB0 JUMP JUMPDEST SWAP4 POP POP PUSH1 0xA0 PUSH2 0x210A DUP11 DUP3 DUP12 ADD PUSH2 0x1FB0 JUMP JUMPDEST SWAP3 POP POP PUSH1 0xC0 PUSH2 0x211B DUP11 DUP3 DUP12 ADD PUSH2 0x2073 JUMP JUMPDEST SWAP2 POP POP SWAP3 SWAP6 SWAP9 SWAP2 SWAP5 SWAP8 POP SWAP3 SWAP6 POP JUMP JUMPDEST PUSH1 0x0 DUP1 PUSH1 0x40 DUP4 DUP6 SUB SLT ISZERO PUSH2 0x2141 JUMPI PUSH2 0x2140 PUSH2 0x1F8F JUMP JUMPDEST JUMPDEST PUSH1 0x0 PUSH2 0x214F DUP6 DUP3 DUP7 ADD PUSH2 0x1FB0 JUMP JUMPDEST SWAP3 POP POP PUSH1 0x20 PUSH2 0x2160 DUP6 DUP3 DUP7 ADD PUSH2 0x1FB0 JUMP JUMPDEST SWAP2 POP POP SWAP3 POP SWAP3 SWAP1 POP JUMP JUMPDEST PUSH2 0x2173 DUP2 PUSH2 0x2012 JUMP JUMPDEST DUP3 MSTORE POP POP JUMP JUMPDEST PUSH1 0x0 PUSH1 0x60 DUP3 ADD SWAP1 POP PUSH2 0x218E PUSH1 0x0 DUP4 ADD DUP7 PUSH2 0x1F65 JUMP JUMPDEST PUSH2 0x219B PUSH1 0x20 DUP4 ADD DUP6 PUSH2 0x1F65 JUMP JUMPDEST PUSH2 0x21A8 PUSH1 0x40 DUP4 ADD DUP5 PUSH2 0x216A JUMP JUMPDEST SWAP5 SWAP4 POP POP POP POP JUMP JUMPDEST PUSH1 0x0 DUP1 REVERT JUMPDEST PUSH1 0x0 DUP1 REVERT JUMPDEST PUSH1 0x0 DUP1 REVERT JUMPDEST PUSH1 0x0 DUP1 DUP4 PUSH1 0x1F DUP5 ADD SLT PUSH2 0x21D5 JUMPI PUSH2 0x21D4 PUSH2 0x21B0 JUMP JUMPDEST JUMPDEST DUP3 CALLDATALOAD SWAP1 POP PUSH8 0xFFFFFFFFFFFFFFFF DUP2 GT ISZERO PUSH2 0x21F2 JUMPI PUSH2 0x21F1 PUSH2 0x21B5 JUMP JUMPDEST JUMPDEST PUSH1 0x20 DUP4 ADD SWAP2 POP DUP4 PUSH1 0x20 DUP3 MUL DUP4 ADD GT ISZERO PUSH2 0x220E JUMPI PUSH2 0x220D PUSH2 0x21BA JUMP JUMPDEST JUMPDEST SWAP3 POP SWAP3 SWAP1 POP JUMP JUMPDEST PUSH1 0x0 DUP1 PUSH1 0x0 PUSH1 0x40 DUP5 DUP7 SUB SLT ISZERO PUSH2 0x222E JUMPI PUSH2 0x222D PUSH2 0x1F8F JUMP JUMPDEST JUMPDEST PUSH1 0x0 PUSH2 0x223C DUP7 DUP3 DUP8 ADD PUSH2 0x1FB0 JUMP JUMPDEST SWAP4 POP POP PUSH1 0x20 DUP5 ADD CALLDATALOAD PUSH8 0xFFFFFFFFFFFFFFFF DUP2 GT ISZERO PUSH2 0x225D JUMPI PUSH2 0x225C PUSH2 0x1F94 JUMP JUMPDEST JUMPDEST PUSH2 0x2269 DUP7 DUP3 DUP8 ADD PUSH2 0x21BF JUMP JUMPDEST SWAP3 POP SWAP3 POP POP SWAP3 POP SWAP3 POP SWAP3 JUMP JUMPDEST PUSH1 0x0 DUP1 PUSH1 0x40 DUP4 DUP6 SUB SLT ISZERO PUSH2 0x228C JUMPI PUSH2 0x228B PUSH2 0x1F8F JUMP JUMPDEST JUMPDEST PUSH1 0x0 PUSH2 0x229A DUP6 DUP3 DUP7 ADD PUSH2 0x1FB0 JUMP JUMPDEST SWAP3 POP POP PUSH1 0x20 PUSH2 0x22AB DUP6 DUP3 DUP7 ADD PUSH2 0x203B JUMP JUMPDEST SWAP2 POP POP SWAP3 POP SWAP3 SWAP1 POP JUMP JUMPDEST PUSH1 0x0 PUSH1 0x20 DUP3 ADD SWAP1 POP PUSH2 0x22CA PUSH1 0x0 DUP4 ADD DUP5 PUSH2 0x216A JUMP JUMPDEST SWAP3 SWAP2 POP POP JUMP JUMPDEST PUSH2 0x22D9 DUP2 PUSH2 0x2050 JUMP JUMPDEST DUP3 MSTORE POP POP JUMP JUMPDEST PUSH1 0x0 PUSH2 0x120 DUP3 ADD SWAP1 POP PUSH2 0x22F5 PUSH1 0x0 DUP4 ADD DUP13 PUSH2 0x216A JUMP JUMPDEST PUSH2 0x2302 PUSH1 0x20 DUP4 ADD DUP12 PUSH2 0x216A JUMP JUMPDEST PUSH2 0x230F PUSH1 0x40 DUP4 ADD DUP11 PUSH2 0x216A JUMP JUMPDEST PUSH2 0x231C PUSH1 0x60 DUP4 ADD DUP10 PUSH2 0x1F65 JUMP JUMPDEST PUSH2 0x2329 PUSH1 0x80 DUP4 ADD DUP9 PUSH2 0x1F65 JUMP JUMPDEST PUSH2 0x2336 PUSH1 0xA0 DUP4 ADD DUP8 PUSH2 0x1F65 JUMP JUMPDEST PUSH2 0x2343 PUSH1 0xC0 DUP4 ADD DUP7 PUSH2 0x1F65 JUMP JUMPDEST PUSH2 0x2350 PUSH1 0xE0 DUP4 ADD DUP6 PUSH2 0x1F65 JUMP JUMPDEST PUSH2 0x235E PUSH2 0x100 DUP4 ADD DUP5 PUSH2 0x22D0 JUMP JUMPDEST SWAP11 SWAP10 POP POP POP POP POP POP POP POP POP POP JUMP JUMPDEST PUSH1 0x0 DUP3 DUP3 MSTORE PUSH1 0x20 DUP3 ADD SWAP1 POP SWAP3 SWAP2 POP POP JUMP JUMPDEST PUSH32 0x4C414E3A206E6F74206F776E6572000000000000000000000000000000000000 PUSH1 0x0 DUP3 ADD MSTORE POP JUMP JUMPDEST PUSH1 0x0 PUSH2 0x23B3 PUSH1 0xE DUP4 PUSH2 0x236C JUMP JUMPDEST SWAP2 POP PUSH2 0x23BE DUP3 PUSH2 0x237D JUMP JUMPDEST PUSH1 0x20 DUP3 ADD SWAP1 POP SWAP2 SWAP1 POP JUMP JUMPDEST PUSH1 0x0 PUSH1 0x20 DUP3 ADD SWAP1 POP DUP2 DUP2 SUB PUSH1 0x0 DUP4 ADD MSTORE PUSH2 0x23E2 DUP2 PUSH2 0x23A6 JUMP JUMPDEST SWAP1 POP SWAP2 SWAP1 POP JUMP JUMPDEST PUSH32 0x4C414E3A206C6F616E206E6F7420656E64656400000000000000000000000000 PUSH1 0x0 DUP3 ADD MSTORE POP JUMP JUMPDEST PUSH1 0x0 PUSH2 0x241F PUSH1 0x13 DUP4 PUSH2 0x236C JUMP JUMPDEST SWAP2 POP PUSH2 0x242A DUP3 PUSH2 0x23E9 JUMP JUMPDEST PUSH1 0x20 DUP3 ADD SWAP1 POP SWAP2 SWAP1 POP JUMP JUMPDEST PUSH1 0x0 PUSH1 0x20 DUP3 ADD SWAP1 POP DUP2 DUP2 SUB PUSH1 0x0 DUP4 ADD MSTORE PUSH2 0x244E DUP2 PUSH2 0x2412 JUMP JUMPDEST SWAP1 POP SWAP2 SWAP1 POP JUMP JUMPDEST PUSH32 0x4C414E3A206E6F74206C61746573742062696464657200000000000000000000 PUSH1 0x0 DUP3 ADD MSTORE POP JUMP JUMPDEST PUSH1 0x0 PUSH2 0x248B PUSH1 0x16 DUP4 PUSH2 0x236C JUMP JUMPDEST SWAP2 POP PUSH2 0x2496 DUP3 PUSH2 0x2455 JUMP JUMPDEST PUSH1 0x20 DUP3 ADD SWAP1 POP SWAP2 SWAP1 POP JUMP JUMPDEST PUSH1 0x0 PUSH1 0x20 DUP3 ADD SWAP1 POP DUP2 DUP2 SUB PUSH1 0x0 DUP4 ADD MSTORE PUSH2 0x24BA DUP2 PUSH2 0x247E JUMP JUMPDEST SWAP1 POP SWAP2 SWAP1 POP JUMP JUMPDEST PUSH1 0x0 PUSH1 0x60 DUP3 ADD SWAP1 POP PUSH2 0x24D6 PUSH1 0x0 DUP4 ADD DUP7 PUSH2 0x216A JUMP JUMPDEST PUSH2 0x24E3 PUSH1 0x20 DUP4 ADD DUP6 PUSH2 0x216A JUMP JUMPDEST PUSH2 0x24F0 PUSH1 0x40 DUP4 ADD DUP5 PUSH2 0x1F65 JUMP JUMPDEST SWAP5 SWAP4 POP POP POP POP JUMP JUMPDEST PUSH32 0x4C414E3A2073746172742074696D6520696E2070617374000000000000000000 PUSH1 0x0 DUP3 ADD MSTORE POP JUMP JUMPDEST PUSH1 0x0 PUSH2 0x252E PUSH1 0x17 DUP4 PUSH2 0x236C JUMP JUMPDEST SWAP2 POP PUSH2 0x2539 DUP3 PUSH2 0x24F8 JUMP JUMPDEST PUSH1 0x20 DUP3 ADD SWAP1 POP SWAP2 SWAP1 POP JUMP JUMPDEST PUSH1 0x0 PUSH1 0x20 DUP3 ADD SWAP1 POP DUP2 DUP2 SUB PUSH1 0x0 DUP4 ADD MSTORE PUSH2 0x255D DUP2 PUSH2 0x2521 JUMP JUMPDEST SWAP1 POP SWAP2 SWAP1 POP JUMP JUMPDEST PUSH32 0x4C414E3A20737461727420616674657220656E64000000000000000000000000 PUSH1 0x0 DUP3 ADD MSTORE POP JUMP JUMPDEST PUSH1 0x0 PUSH2 0x259A PUSH1 0x14 DUP4 PUSH2 0x236C JUMP JUMPDEST SWAP2 POP PUSH2 0x25A5 DUP3 PUSH2 0x2564 JUMP JUMPDEST PUSH1 0x20 DUP3 ADD SWAP1 POP SWAP2 SWAP1 POP JUMP JUMPDEST PUSH1 0x0 PUSH1 0x20 DUP3 ADD SWAP1 POP DUP2 DUP2 SUB PUSH1 0x0 DUP4 ADD MSTORE PUSH2 0x25C9 DUP2 PUSH2 0x258D JUMP JUMPDEST SWAP1 POP SWAP2 SWAP1 POP JUMP JUMPDEST PUSH1 0x0 PUSH1 0x40 DUP3 ADD SWAP1 POP PUSH2 0x25E5 PUSH1 0x0 DUP4 ADD DUP6 PUSH2 0x216A JUMP JUMPDEST PUSH2 0x25F2 PUSH1 0x20 DUP4 ADD DUP5 PUSH2 0x1F65 JUMP JUMPDEST SWAP4 SWAP3 POP POP POP JUMP JUMPDEST PUSH32 0x4E487B7100000000000000000000000000000000000000000000000000000000 PUSH1 0x0 MSTORE PUSH1 0x11 PUSH1 0x4 MSTORE PUSH1 0x24 PUSH1 0x0 REVERT JUMPDEST PUSH1 0x0 PUSH2 0x2633 DUP3 PUSH2 0x1F5B JUMP JUMPDEST SWAP2 POP PUSH32 0xFFFFFFFFFFFFFFFFFFFFFFFFFFFFFFFFFFFFFFFFFFFFFFFFFFFFFFFFFFFFFFFF DUP3 SUB PUSH2 0x2665 JUMPI PUSH2 0x2664 PUSH2 0x25F9 JUMP JUMPDEST JUMPDEST PUSH1 0x1 DUP3 ADD SWAP1 POP SWAP2 SWAP1 POP JUMP JUMPDEST PUSH32 0x4C414E3A20616C72656164792073746172746564000000000000000000000000 PUSH1 0x0 DUP3 ADD MSTORE POP JUMP JUMPDEST PUSH1 0x0 PUSH2 0x26A6 PUSH1 0x14 DUP4 PUSH2 0x236C JUMP JUMPDEST SWAP2 POP PUSH2 0x26B1 DUP3 PUSH2 0x2670 JUMP JUMPDEST PUSH1 0x20 DUP3 ADD SWAP1 POP SWAP2 SWAP1 POP JUMP JUMPDEST PUSH1 0x0 PUSH1 0x20 DUP3 ADD SWAP1 POP DUP2 DUP2 SUB PUSH1 0x0 DUP4 ADD MSTORE PUSH2 0x26D5 DUP2 PUSH2 0x2699 JUMP JUMPDEST SWAP1 POP SWAP2 SWAP1 POP JUMP JUMPDEST PUSH32 0x4C414E3A206E6F74207374617274656400000000000000000000000000000000 PUSH1 0x0 DUP3 ADD MSTORE POP JUMP JUMPDEST PUSH1 0x0 PUSH2 0x2712 PUSH1 0x10 DUP4 PUSH2 0x236C JUMP JUMPDEST SWAP2 POP PUSH2 0x271D DUP3 PUSH2 0x26DC JUMP JUMPDEST PUSH1 0x20 DUP3 ADD SWAP1 POP SWAP2 SWAP1 POP JUMP JUMPDEST PUSH1 0x0 PUSH1 0x20 DUP3 ADD SWAP1 POP DUP2 DUP2 SUB PUSH1 0x0 DUP4 ADD MSTORE PUSH2 0x2741 DUP2 PUSH2 0x2705 JUMP JUMPDEST SWAP1 POP SWAP2 SWAP1 POP JUMP JUMPDEST PUSH32 0x4C414E3A20616C726561647920656E6465640000000000000000000000000000 PUSH1 0x0 DUP3 ADD MSTORE POP JUMP JUMPDEST PUSH1 0x0 PUSH2 0x277E PUSH1 0x12 DUP4 PUSH2 0x236C JUMP JUMPDEST SWAP2 POP PUSH2 0x2789 DUP3 PUSH2 0x2748 JUMP JUMPDEST PUSH1 0x20 DUP3 ADD SWAP1 POP SWAP2 SWAP1 POP JUMP JUMPDEST PUSH1 0x0 PUSH1 0x20 DUP3 ADD SWAP1 POP DUP2 DUP2 SUB PUSH1 0x0 DUP4 ADD MSTORE PUSH2 0x27AD DUP2 PUSH2 0x2771 JUMP JUMPDEST SWAP1 POP SWAP2 SWAP1 POP JUMP JUMPDEST PUSH1 0x0 PUSH2 0x27BF DUP3 PUSH2 0x1F5B JUMP JUMPDEST SWAP2 POP PUSH2 0x27CA DUP4 PUSH2 0x1F5B JUMP JUMPDEST SWAP3 POP DUP3 DUP3 ADD SWAP1 POP DUP1 DUP3 GT ISZERO PUSH2 0x27E2 JUMPI PUSH2 0x27E1 PUSH2 0x25F9 JUMP JUMPDEST JUMPDEST SWAP3 SWAP2 POP POP JUMP JUMPDEST PUSH32 0x4C414E3A20626964206E6F742068696768657200000000000000000000000000 PUSH1 0x0 DUP3 ADD MSTORE POP JUMP JUMPDEST PUSH1 0x0 PUSH2 0x281E PUSH1 0x13 DUP4 PUSH2 0x236C JUMP JUMPDEST SWAP2 POP PUSH2 0x2829 DUP3 PUSH2 0x27E8 JUMP JUMPDEST PUSH1 0x20 DUP3 ADD SWAP1 POP SWAP2 SWAP1 POP JUMP JUMPDEST PUSH1 0x0 PUSH1 0x20 DUP3 ADD SWAP1 POP DUP2 DUP2 SUB PUSH1 0x0 DUP4 ADD MSTORE PUSH2 0x284D DUP2 PUSH2 0x2811 JUMP JUMPDEST SWAP1 POP SWAP2 SWAP1 POP JUMP JUMPDEST PUSH1 0x0 DUP2 MLOAD SWAP1 POP PUSH2 0x2863 DUP2 PUSH2 0x205C JUMP JUMPDEST SWAP3 SWAP2 POP POP JUMP JUMPDEST PUSH1 0x0 PUSH1 0x20 DUP3 DUP5 SUB SLT ISZERO PUSH2 0x287F JUMPI PUSH2 0x287E PUSH2 0x1F8F JUMP JUMPDEST JUMPDEST PUSH1 0x0 PUSH2 0x288D DUP5 DUP3 DUP6 ADD PUSH2 0x2854 JUMP JUMPDEST SWAP2 POP POP SWAP3 SWAP2 POP POP JUMP JUMPDEST PUSH1 0x0 PUSH2 0x28A1 DUP3 PUSH2 0x1F5B JUMP JUMPDEST SWAP2 POP PUSH2 0x28AC DUP4 PUSH2 0x1F5B JUMP JUMPDEST SWAP3 POP DUP3 DUP3 SUB SWAP1 POP DUP2 DUP2 GT ISZERO PUSH2 0x28C4 JUMPI PUSH2 0x28C3 PUSH2 0x25F9 JUMP JUMPDEST JUMPDEST SWAP3 SWAP2 POP POP JUMP JUMPDEST PUSH32 0x4C414E3A204E6F7420746865206C617465737420626964646572000000000000 PUSH1 0x0 DUP3 ADD MSTORE POP JUMP JUMPDEST PUSH1 0x0 PUSH2 0x2900 PUSH1 0x1A DUP4 PUSH2 0x236C JUMP JUMPDEST SWAP2 POP PUSH2 0x290B DUP3 PUSH2 0x28CA JUMP JUMPDEST PUSH1 0x20 DUP3 ADD SWAP1 POP SWAP2 SWAP1 POP JUMP JUMPDEST PUSH1 0x0 PUSH1 0x20 DUP3 ADD SWAP1 POP DUP2 DUP2 SUB PUSH1 0x0 DUP4 ADD MSTORE PUSH2 0x292F DUP2 PUSH2 0x28F3 JUMP JUMPDEST SWAP1 POP SWAP2 SWAP1 POP JUMP JUMPDEST PUSH1 0x0 PUSH2 0x2941 DUP3 PUSH2 0x1F5B JUMP JUMPDEST SWAP2 POP PUSH2 0x294C DUP4 PUSH2 0x1F5B JUMP JUMPDEST SWAP3 POP DUP2 PUSH32 0xFFFFFFFFFFFFFFFFFFFFFFFFFFFFFFFFFFFFFFFFFFFFFFFFFFFFFFFFFFFFFFFF DIV DUP4 GT DUP3 ISZERO ISZERO AND ISZERO PUSH2 0x2985 JUMPI PUSH2 0x2984 PUSH2 0x25F9 JUMP JUMPDEST JUMPDEST DUP3 DUP3 MUL SWAP1 POP SWAP3 SWAP2 POP POP JUMP JUMPDEST PUSH32 0x4E487B7100000000000000000000000000000000000000000000000000000000 PUSH1 0x0 MSTORE PUSH1 0x12 PUSH1 0x4 MSTORE PUSH1 0x24 PUSH1 0x0 REVERT JUMPDEST PUSH1 0x0 PUSH2 0x29CA DUP3 PUSH2 0x1F5B JUMP JUMPDEST SWAP2 POP PUSH2 0x29D5 DUP4 PUSH2 0x1F5B JUMP JUMPDEST SWAP3 POP DUP3 PUSH2 0x29E5 JUMPI PUSH2 0x29E4 PUSH2 0x2990 JUMP JUMPDEST JUMPDEST DUP3 DUP3 DIV SWAP1 POP SWAP3 SWAP2 POP POP JUMP INVALID LOG2 PUSH5 0x6970667358 0x22 SLT KECCAK256 PUSH24 0xC660F4FFBCC173D9399B1EC9A912FCA164D6FC08FBD208D1 PC ADDMOD SWAP1 RETURNDATACOPY MSTORE8 SAR REVERT PUSH5 0x736F6C6343 STOP ADDMOD LT STOP CALLER "
				},
				"gasEstimates": {
					"creation": {
						"codeDepositCost": "2158000",
						"executionCost": "2302",
						"totalCost": "2160302"
					},
					"external": {
						"addNewWhitelist(uint256,address[])": "688",
						"bid(uint256,uint256)": "infinite",
						"bids(uint256,uint256)": "infinite",
						"cancel(uint256)": "infinite",
						"count()": "2430",
						"endLoan(uint256)": "infinite",
						"launch(address,address,uint256,uint256,uint256,uint256,bool)": "infinite",
						"liquidate(uint256)": "infinite",
						"liquidateEarly(uint256)": "infinite",
						"loans(uint256)": "infinite",
						"setNewBidOwner(uint256,address)": "51252",
						"whitelistedAddresses(uint256,uint256)": "infinite"
					},
					"internal": {
						"_calculateLoanValue(uint256)": "infinite",
						"_ended(uint256)": "2226",
						"_started(uint256)": "2223"
					}
				},
				"methodIdentifiers": {
					"addNewWhitelist(uint256,address[])": "8f17aa2d",
					"bid(uint256,uint256)": "598647f8",
					"bids(uint256,uint256)": "7b3c4baa",
					"cancel(uint256)": "40e58ee5",
					"count()": "06661abd",
					"endLoan(uint256)": "7870860b",
					"launch(address,address,uint256,uint256,uint256,uint256,bool)": "2613c5d6",
					"liquidate(uint256)": "415f1240",
					"liquidateEarly(uint256)": "18de4f9d",
					"loans(uint256)": "e1ec3c68",
					"setNewBidOwner(uint256,address)": "8f769f3a",
					"whitelistedAddresses(uint256,uint256)": "9bea77da"
				}
			},
			"storageLayout": {
				"storage": [
					{
						"astId": 223,
						"contract": "main.sol:LAN",
						"label": "count",
						"offset": 0,
						"slot": "0",
						"type": "t_uint256"
					},
					{
						"astId": 247,
						"contract": "main.sol:LAN",
						"label": "loans",
						"offset": 0,
						"slot": "1",
						"type": "t_mapping(t_uint256,t_struct(Loan)242_storage)"
					},
					{
						"astId": 261,
						"contract": "main.sol:LAN",
						"label": "bids",
						"offset": 0,
						"slot": "2",
						"type": "t_mapping(t_uint256,t_mapping(t_uint256,t_struct(Bid)254_storage))"
					},
					{
						"astId": 266,
						"contract": "main.sol:LAN",
						"label": "whitelistedAddresses",
						"offset": 0,
						"slot": "3",
						"type": "t_mapping(t_uint256,t_array(t_address)dyn_storage)"
					}
				],
				"types": {
					"t_address": {
						"encoding": "inplace",
						"label": "address",
						"numberOfBytes": "20"
					},
					"t_array(t_address)dyn_storage": {
						"base": "t_address",
						"encoding": "dynamic_array",
						"label": "address[]",
						"numberOfBytes": "32"
					},
					"t_bool": {
						"encoding": "inplace",
						"label": "bool",
						"numberOfBytes": "1"
					},
					"t_mapping(t_uint256,t_array(t_address)dyn_storage)": {
						"encoding": "mapping",
						"key": "t_uint256",
						"label": "mapping(uint256 => address[])",
						"numberOfBytes": "32",
						"value": "t_array(t_address)dyn_storage"
					},
					"t_mapping(t_uint256,t_mapping(t_uint256,t_struct(Bid)254_storage))": {
						"encoding": "mapping",
						"key": "t_uint256",
						"label": "mapping(uint256 => mapping(uint256 => struct LAN.Bid))",
						"numberOfBytes": "32",
						"value": "t_mapping(t_uint256,t_struct(Bid)254_storage)"
					},
					"t_mapping(t_uint256,t_struct(Bid)254_storage)": {
						"encoding": "mapping",
						"key": "t_uint256",
						"label": "mapping(uint256 => struct LAN.Bid)",
						"numberOfBytes": "32",
						"value": "t_struct(Bid)254_storage"
					},
					"t_mapping(t_uint256,t_struct(Loan)242_storage)": {
						"encoding": "mapping",
						"key": "t_uint256",
						"label": "mapping(uint256 => struct LAN.Loan)",
						"numberOfBytes": "32",
						"value": "t_struct(Loan)242_storage"
					},
					"t_struct(Bid)254_storage": {
						"encoding": "inplace",
						"label": "struct LAN.Bid",
						"members": [
							{
								"astId": 249,
								"contract": "main.sol:LAN",
								"label": "bidTime",
								"offset": 0,
								"slot": "0",
								"type": "t_uint256"
							},
							{
								"astId": 251,
								"contract": "main.sol:LAN",
								"label": "bidAmount",
								"offset": 0,
								"slot": "1",
								"type": "t_uint256"
							},
							{
								"astId": 253,
								"contract": "main.sol:LAN",
								"label": "user",
								"offset": 0,
								"slot": "2",
								"type": "t_address"
							}
						],
						"numberOfBytes": "96"
					},
					"t_struct(Loan)242_storage": {
						"encoding": "inplace",
						"label": "struct LAN.Loan",
						"members": [
							{
								"astId": 225,
								"contract": "main.sol:LAN",
								"label": "owner",
								"offset": 0,
								"slot": "0",
								"type": "t_address"
							},
							{
								"astId": 227,
								"contract": "main.sol:LAN",
								"label": "token",
								"offset": 0,
								"slot": "1",
								"type": "t_address"
							},
							{
								"astId": 229,
								"contract": "main.sol:LAN",
								"label": "collectionAddress",
								"offset": 0,
								"slot": "2",
								"type": "t_address"
							},
							{
								"astId": 231,
								"contract": "main.sol:LAN",
								"label": "nftId",
								"offset": 0,
								"slot": "3",
								"type": "t_uint256"
							},
							{
								"astId": 233,
								"contract": "main.sol:LAN",
								"label": "startTime",
								"offset": 0,
								"slot": "4",
								"type": "t_uint256"
							},
							{
								"astId": 235,
								"contract": "main.sol:LAN",
								"label": "endTime",
								"offset": 0,
								"slot": "5",
								"type": "t_uint256"
							},
							{
								"astId": 237,
								"contract": "main.sol:LAN",
								"label": "apr",
								"offset": 0,
								"slot": "6",
								"type": "t_uint256"
							},
							{
								"astId": 239,
								"contract": "main.sol:LAN",
								"label": "numBids",
								"offset": 0,
								"slot": "7",
								"type": "t_uint256"
							},
							{
								"astId": 241,
								"contract": "main.sol:LAN",
								"label": "whitelisted",
								"offset": 0,
								"slot": "8",
								"type": "t_bool"
							}
						],
						"numberOfBytes": "288"
					},
					"t_uint256": {
						"encoding": "inplace",
						"label": "uint256",
						"numberOfBytes": "32"
					}
				}
			},
			"userdoc": {
				"kind": "user",
				"methods": {},
				"version": 1
			}
		}
	}
}