{
	"main.sol": {
		"LAN": {
			"abi": [
				{
					"anonymous": false,
					"inputs": [
						{
							"indexed": false,
							"internalType": "uint256",
							"name": "Id",
							"type": "uint256"
						}
					],
					"name": "loanCancelled",
					"type": "event"
				},
				{
					"anonymous": false,
					"inputs": [
						{
							"indexed": true,
							"internalType": "uint256",
							"name": "poolId",
							"type": "uint256"
						},
						{
							"indexed": false,
							"internalType": "address",
							"name": "collectionAddress",
							"type": "address"
						},
						{
							"indexed": false,
							"internalType": "uint256",
							"name": "nftId",
							"type": "uint256"
						}
					],
					"name": "newPool",
					"type": "event"
				},
				{
					"inputs": [
						{
							"internalType": "uint256",
							"name": "_poolId",
							"type": "uint256"
						},
						{
							"internalType": "uint256",
							"name": "_amount",
							"type": "uint256"
						}
					],
					"name": "bid",
					"outputs": [],
					"stateMutability": "nonpayable",
					"type": "function"
				},
				{
					"inputs": [
						{
							"internalType": "uint256",
							"name": "",
							"type": "uint256"
						},
						{
							"internalType": "uint256",
							"name": "",
							"type": "uint256"
						}
					],
					"name": "bids",
					"outputs": [
						{
							"internalType": "uint256",
							"name": "bidTime",
							"type": "uint256"
						},
						{
							"internalType": "uint256",
							"name": "bidAmount",
							"type": "uint256"
						},
						{
							"internalType": "address",
							"name": "user",
							"type": "address"
						}
					],
					"stateMutability": "view",
					"type": "function"
				},
				{
					"inputs": [
						{
							"internalType": "uint256",
							"name": "_poolId",
							"type": "uint256"
						}
					],
					"name": "cancel",
					"outputs": [],
					"stateMutability": "nonpayable",
					"type": "function"
				},
				{
					"inputs": [],
					"name": "count",
					"outputs": [
						{
							"internalType": "uint256",
							"name": "",
							"type": "uint256"
						}
					],
					"stateMutability": "view",
					"type": "function"
				},
				{
					"inputs": [
						{
							"internalType": "uint256",
							"name": "_poolId",
							"type": "uint256"
						}
					],
					"name": "endLoan",
					"outputs": [],
					"stateMutability": "nonpayable",
					"type": "function"
				},
				{
					"inputs": [
						{
							"internalType": "address",
							"name": "_token",
							"type": "address"
						},
						{
							"internalType": "address",
							"name": "_collectionAddress",
							"type": "address"
						},
						{
							"internalType": "uint256",
							"name": "_nftId",
							"type": "uint256"
						},
						{
							"internalType": "uint256",
							"name": "_startTime",
							"type": "uint256"
						},
						{
							"internalType": "uint256",
							"name": "_endTime",
							"type": "uint256"
						},
						{
							"internalType": "uint256",
							"name": "_apr",
							"type": "uint256"
						}
					],
					"name": "launch",
					"outputs": [],
					"stateMutability": "nonpayable",
					"type": "function"
				},
				{
					"inputs": [
						{
							"internalType": "uint256",
							"name": "_poolId",
							"type": "uint256"
						}
					],
					"name": "liquidate",
					"outputs": [],
					"stateMutability": "nonpayable",
					"type": "function"
				},
				{
					"inputs": [
						{
							"internalType": "uint256",
							"name": "_poolId",
							"type": "uint256"
						}
					],
					"name": "liquidateEarly",
					"outputs": [],
					"stateMutability": "nonpayable",
					"type": "function"
				},
				{
					"inputs": [
						{
							"internalType": "uint256",
							"name": "",
							"type": "uint256"
						}
					],
					"name": "loans",
					"outputs": [
						{
							"internalType": "address",
							"name": "owner",
							"type": "address"
						},
						{
							"internalType": "address",
							"name": "token",
							"type": "address"
						},
						{
							"internalType": "address",
							"name": "collectionAddress",
							"type": "address"
						},
						{
							"internalType": "uint256",
							"name": "nftId",
							"type": "uint256"
						},
						{
							"internalType": "uint256",
							"name": "startTime",
							"type": "uint256"
						},
						{
							"internalType": "uint256",
							"name": "endTime",
							"type": "uint256"
						},
						{
							"internalType": "uint256",
							"name": "apr",
							"type": "uint256"
						},
						{
							"internalType": "uint256",
							"name": "numBids",
							"type": "uint256"
						}
					],
					"stateMutability": "view",
					"type": "function"
				},
				{
					"inputs": [
						{
							"internalType": "uint256",
							"name": "",
							"type": "uint256"
						},
						{
							"internalType": "uint256",
							"name": "",
							"type": "uint256"
						}
					],
					"name": "whitelistedAddresses",
					"outputs": [
						{
							"internalType": "address",
							"name": "",
							"type": "address"
						}
					],
					"stateMutability": "view",
					"type": "function"
				}
			],
			"devdoc": {
				"kind": "dev",
				"methods": {},
				"version": 1
			},
			"evm": {
				"assembly": "    /* \"main.sol\":142:5299  contract LAN{... */\n  mstore(0x40, 0x80)\n  callvalue\n  dup1\n  iszero\n  tag_1\n  jumpi\n  0x00\n  dup1\n  revert\ntag_1:\n  pop\n  dataSize(sub_0)\n  dup1\n  dataOffset(sub_0)\n  0x00\n  codecopy\n  0x00\n  return\nstop\n\nsub_0: assembly {\n        /* \"main.sol\":142:5299  contract LAN{... */\n      mstore(0x40, 0x80)\n      callvalue\n      dup1\n      iszero\n      tag_1\n      jumpi\n      0x00\n      dup1\n      revert\n    tag_1:\n      pop\n      jumpi(tag_2, lt(calldatasize, 0x04))\n      shr(0xe0, calldataload(0x00))\n      dup1\n      0x7870860b\n      gt\n      tag_13\n      jumpi\n      dup1\n      0x7870860b\n      eq\n      tag_8\n      jumpi\n      dup1\n      0x7b3c4baa\n      eq\n      tag_9\n      jumpi\n      dup1\n      0x9bea77da\n      eq\n      tag_10\n      jumpi\n      dup1\n      0xe1ec3c68\n      eq\n      tag_11\n      jumpi\n      dup1\n      0xe7e4dfcd\n      eq\n      tag_12\n      jumpi\n      jump(tag_2)\n    tag_13:\n      dup1\n      0x06661abd\n      eq\n      tag_3\n      jumpi\n      dup1\n      0x18de4f9d\n      eq\n      tag_4\n      jumpi\n      dup1\n      0x40e58ee5\n      eq\n      tag_5\n      jumpi\n      dup1\n      0x415f1240\n      eq\n      tag_6\n      jumpi\n      dup1\n      0x598647f8\n      eq\n      tag_7\n      jumpi\n    tag_2:\n      0x00\n      dup1\n      revert\n        /* \"main.sol\":313:333  uint256 public count */\n    tag_3:\n      tag_14\n      tag_15\n      jump\t// in\n    tag_14:\n      mload(0x40)\n      tag_16\n      swap2\n      swap1\n      tag_17\n      jump\t// in\n    tag_16:\n      mload(0x40)\n      dup1\n      swap2\n      sub\n      swap1\n      return\n        /* \"main.sol\":4031:4469  function liquidateEarly(uint256 _poolId) external {... */\n    tag_4:\n      tag_18\n      0x04\n      dup1\n      calldatasize\n      sub\n      dup2\n      add\n      swap1\n      tag_19\n      swap2\n      swap1\n      tag_20\n      jump\t// in\n    tag_19:\n      tag_21\n      jump\t// in\n    tag_18:\n      stop\n        /* \"main.sol\":2730:2974  function cancel(uint256 _poolId) external onlyOwner(_poolId) {... */\n    tag_5:\n      tag_22\n      0x04\n      dup1\n      calldatasize\n      sub\n      dup2\n      add\n      swap1\n      tag_23\n      swap2\n      swap1\n      tag_20\n      jump\t// in\n    tag_23:\n      tag_24\n      jump\t// in\n    tag_22:\n      stop\n        /* \"main.sol\":3544:3977  function liquidate(uint256 _poolId) external {... */\n    tag_6:\n      tag_25\n      0x04\n      dup1\n      calldatasize\n      sub\n      dup2\n      add\n      swap1\n      tag_26\n      swap2\n      swap1\n      tag_20\n      jump\t// in\n    tag_26:\n      tag_27\n      jump\t// in\n    tag_25:\n      stop\n        /* \"main.sol\":1810:2683  function bid(uint256 _poolId, uint256 _amount) external {... */\n    tag_7:\n      tag_28\n      0x04\n      dup1\n      calldatasize\n      sub\n      dup2\n      add\n      swap1\n      tag_29\n      swap2\n      swap1\n      tag_30\n      jump\t// in\n    tag_29:\n      tag_31\n      jump\t// in\n    tag_28:\n      stop\n        /* \"main.sol\":3013:3490  function endLoan(uint256 _poolId) external onlyOwner(_poolId) {... */\n    tag_8:\n      tag_32\n      0x04\n      dup1\n      calldatasize\n      sub\n      dup2\n      add\n      swap1\n      tag_33\n      swap2\n      swap1\n      tag_20\n      jump\t// in\n    tag_33:\n      tag_34\n      jump\t// in\n    tag_32:\n      stop\n        /* \"main.sol\":706:761  mapping(uint256 => mapping(uint256 => Bid)) public bids */\n    tag_9:\n      tag_35\n      0x04\n      dup1\n      calldatasize\n      sub\n      dup2\n      add\n      swap1\n      tag_36\n      swap2\n      swap1\n      tag_30\n      jump\t// in\n    tag_36:\n      tag_37\n      jump\t// in\n    tag_35:\n      mload(0x40)\n      tag_38\n      swap4\n      swap3\n      swap2\n      swap1\n      tag_39\n      jump\t// in\n    tag_38:\n      mload(0x40)\n      dup1\n      swap2\n      sub\n      swap1\n      return\n        /* \"main.sol\":843:900  mapping(uint256 => address[]) public whitelistedAddresses */\n    tag_10:\n      tag_40\n      0x04\n      dup1\n      calldatasize\n      sub\n      dup2\n      add\n      swap1\n      tag_41\n      swap2\n      swap1\n      tag_30\n      jump\t// in\n    tag_41:\n      tag_42\n      jump\t// in\n    tag_40:\n      mload(0x40)\n      tag_43\n      swap2\n      swap1\n      tag_44\n      jump\t// in\n    tag_43:\n      mload(0x40)\n      dup1\n      swap2\n      sub\n      swap1\n      return\n        /* \"main.sol\":565:602  mapping(uint256 => Loan) public loans */\n    tag_11:\n      tag_45\n      0x04\n      dup1\n      calldatasize\n      sub\n      dup2\n      add\n      swap1\n      tag_46\n      swap2\n      swap1\n      tag_20\n      jump\t// in\n    tag_46:\n      tag_47\n      jump\t// in\n    tag_45:\n      mload(0x40)\n      tag_48\n      swap9\n      swap8\n      swap7\n      swap6\n      swap5\n      swap4\n      swap3\n      swap2\n      swap1\n      tag_49\n      jump\t// in\n    tag_48:\n      mload(0x40)\n      dup1\n      swap2\n      sub\n      swap1\n      return\n        /* \"main.sol\":1109:1804  function launch(address _token, address _collectionAddress, uint256 _nftId, uint256 _startTime, uint256 _endTime, uint256 _apr) public {... */\n    tag_12:\n      tag_50\n      0x04\n      dup1\n      calldatasize\n      sub\n      dup2\n      add\n      swap1\n      tag_51\n      swap2\n      swap1\n      tag_52\n      jump\t// in\n    tag_51:\n      tag_53\n      jump\t// in\n    tag_50:\n      stop\n        /* \"main.sol\":313:333  uint256 public count */\n    tag_15:\n      sload(0x00)\n      dup2\n      jump\t// out\n        /* \"main.sol\":4031:4469  function liquidateEarly(uint256 _poolId) external {... */\n    tag_21:\n        /* \"main.sol\":4091:4107  Loan memory loan */\n      0x00\n        /* \"main.sol\":4110:4115  loans */\n      0x01\n        /* \"main.sol\":4110:4124  loans[_poolId] */\n      0x00\n        /* \"main.sol\":4116:4123  _poolId */\n      dup4\n        /* \"main.sol\":4110:4124  loans[_poolId] */\n      dup2\n      mstore\n      0x20\n      add\n      swap1\n      dup2\n      mstore\n      0x20\n      add\n      0x00\n      keccak256\n        /* \"main.sol\":4091:4124  Loan memory loan = loans[_poolId] */\n      mload(0x40)\n      dup1\n      0x0100\n      add\n      0x40\n      mstore\n      swap1\n      dup2\n      0x00\n      dup3\n      add\n      0x00\n      swap1\n      sload\n      swap1\n      0x0100\n      exp\n      swap1\n      div\n      0xffffffffffffffffffffffffffffffffffffffff\n      and\n      0xffffffffffffffffffffffffffffffffffffffff\n      and\n      0xffffffffffffffffffffffffffffffffffffffff\n      and\n      dup2\n      mstore\n      0x20\n      add\n      0x01\n      dup3\n      add\n      0x00\n      swap1\n      sload\n      swap1\n      0x0100\n      exp\n      swap1\n      div\n      0xffffffffffffffffffffffffffffffffffffffff\n      and\n      0xffffffffffffffffffffffffffffffffffffffff\n      and\n      0xffffffffffffffffffffffffffffffffffffffff\n      and\n      dup2\n      mstore\n      0x20\n      add\n      0x02\n      dup3\n      add\n      0x00\n      swap1\n      sload\n      swap1\n      0x0100\n      exp\n      swap1\n      div\n      0xffffffffffffffffffffffffffffffffffffffff\n      and\n      0xffffffffffffffffffffffffffffffffffffffff\n      and\n      0xffffffffffffffffffffffffffffffffffffffff\n      and\n      dup2\n      mstore\n      0x20\n      add\n      0x03\n      dup3\n      add\n      sload\n      dup2\n      mstore\n      0x20\n      add\n      0x04\n      dup3\n      add\n      sload\n      dup2\n      mstore\n      0x20\n      add\n      0x05\n      dup3\n      add\n      sload\n      dup2\n      mstore\n      0x20\n      add\n      0x06\n      dup3\n      add\n      sload\n      dup2\n      mstore\n      0x20\n      add\n      0x07\n      dup3\n      add\n      sload\n      dup2\n      mstore\n      pop\n      pop\n      swap1\n      pop\n        /* \"main.sol\":4142:4157  _ended(_poolId) */\n      tag_55\n        /* \"main.sol\":4149:4156  _poolId */\n      dup3\n        /* \"main.sol\":4142:4148  _ended */\n      tag_56\n        /* \"main.sol\":4142:4157  _ended(_poolId) */\n      jump\t// in\n    tag_55:\n        /* \"main.sol\":4134:4181  require(_ended(_poolId), \"LAN: loan not ended\") */\n      tag_57\n      jumpi\n      mload(0x40)\n      0x08c379a000000000000000000000000000000000000000000000000000000000\n      dup2\n      mstore\n      0x04\n      add\n      tag_58\n      swap1\n      tag_59\n      jump\t// in\n    tag_58:\n      mload(0x40)\n      dup1\n      swap2\n      sub\n      swap1\n      revert\n    tag_57:\n        /* \"main.sol\":4191:4211  Bid memory latestBid */\n      0x00\n        /* \"main.sol\":4214:4218  bids */\n      0x02\n        /* \"main.sol\":4214:4227  bids[_poolId] */\n      0x00\n        /* \"main.sol\":4219:4226  _poolId */\n      dup5\n        /* \"main.sol\":4214:4227  bids[_poolId] */\n      dup2\n      mstore\n      0x20\n      add\n      swap1\n      dup2\n      mstore\n      0x20\n      add\n      0x00\n      keccak256\n        /* \"main.sol\":4214:4241  bids[_poolId][loan.numBids] */\n      0x00\n        /* \"main.sol\":4228:4232  loan */\n      dup4\n        /* \"main.sol\":4228:4240  loan.numBids */\n      0xe0\n      add\n      mload\n        /* \"main.sol\":4214:4241  bids[_poolId][loan.numBids] */\n      dup2\n      mstore\n      0x20\n      add\n      swap1\n      dup2\n      mstore\n      0x20\n      add\n      0x00\n      keccak256\n        /* \"main.sol\":4191:4241  Bid memory latestBid = bids[_poolId][loan.numBids] */\n      mload(0x40)\n      dup1\n      0x60\n      add\n      0x40\n      mstore\n      swap1\n      dup2\n      0x00\n      dup3\n      add\n      sload\n      dup2\n      mstore\n      0x20\n      add\n      0x01\n      dup3\n      add\n      sload\n      dup2\n      mstore\n      0x20\n      add\n      0x02\n      dup3\n      add\n      0x00\n      swap1\n      sload\n      swap1\n      0x0100\n      exp\n      swap1\n      div\n      0xffffffffffffffffffffffffffffffffffffffff\n      and\n      0xffffffffffffffffffffffffffffffffffffffff\n      and\n      0xffffffffffffffffffffffffffffffffffffffff\n      and\n      dup2\n      mstore\n      pop\n      pop\n      swap1\n      pop\n        /* \"main.sol\":4277:4287  msg.sender */\n      caller\n        /* \"main.sol\":4259:4287  latestBid.user == msg.sender */\n      0xffffffffffffffffffffffffffffffffffffffff\n      and\n        /* \"main.sol\":4259:4268  latestBid */\n      dup2\n        /* \"main.sol\":4259:4273  latestBid.user */\n      0x40\n      add\n      mload\n        /* \"main.sol\":4259:4287  latestBid.user == msg.sender */\n      0xffffffffffffffffffffffffffffffffffffffff\n      and\n      eq\n        /* \"main.sol\":4251:4314  require(latestBid.user == msg.sender, \"LAN: not latest bidder\") */\n      tag_60\n      jumpi\n      mload(0x40)\n      0x08c379a000000000000000000000000000000000000000000000000000000000\n      dup2\n      mstore\n      0x04\n      add\n      tag_61\n      swap1\n      tag_62\n      jump\t// in\n    tag_61:\n      mload(0x40)\n      dup1\n      swap2\n      sub\n      swap1\n      revert\n    tag_60:\n        /* \"main.sol\":4348:4359  IERC721 NFT */\n      0x00\n        /* \"main.sol\":4370:4374  loan */\n      dup3\n        /* \"main.sol\":4370:4392  loan.collectionAddress */\n      0x40\n      add\n      mload\n        /* \"main.sol\":4348:4393  IERC721 NFT = IERC721(loan.collectionAddress) */\n      swap1\n      pop\n        /* \"main.sol\":4403:4406  NFT */\n      dup1\n        /* \"main.sol\":4403:4423  NFT.safeTransferFrom */\n      0xffffffffffffffffffffffffffffffffffffffff\n      and\n      0x42842e0e\n        /* \"main.sol\":4432:4436  this */\n      address\n        /* \"main.sol\":4439:4449  msg.sender */\n      caller\n        /* \"main.sol\":4451:4455  loan */\n      dup7\n        /* \"main.sol\":4451:4461  loan.nftId */\n      0x60\n      add\n      mload\n        /* \"main.sol\":4403:4462  NFT.safeTransferFrom(address(this), msg.sender, loan.nftId) */\n      mload(0x40)\n      dup5\n      0xffffffff\n      and\n      0xe0\n      shl\n      dup2\n      mstore\n      0x04\n      add\n      tag_63\n      swap4\n      swap3\n      swap2\n      swap1\n      tag_64\n      jump\t// in\n    tag_63:\n      0x00\n      mload(0x40)\n      dup1\n      dup4\n      sub\n      dup2\n      0x00\n      dup8\n      dup1\n      extcodesize\n      iszero\n      dup1\n      iszero\n      tag_65\n      jumpi\n      0x00\n      dup1\n      revert\n    tag_65:\n      pop\n      gas\n      call\n      iszero\n      dup1\n      iszero\n      tag_67\n      jumpi\n      returndatasize\n      0x00\n      dup1\n      returndatacopy\n      revert(0x00, returndatasize)\n    tag_67:\n      pop\n      pop\n      pop\n      pop\n        /* \"main.sol\":4081:4469  {... */\n      pop\n      pop\n      pop\n        /* \"main.sol\":4031:4469  function liquidateEarly(uint256 _poolId) external {... */\n      pop\n      jump\t// out\n        /* \"main.sol\":2730:2974  function cancel(uint256 _poolId) external onlyOwner(_poolId) {... */\n    tag_24:\n        /* \"main.sol\":2782:2789  _poolId */\n      dup1\n        /* \"main.sol\":1056:1066  msg.sender */\n      caller\n        /* \"main.sol\":1032:1066  loans[_poolId].owner == msg.sender */\n      0xffffffffffffffffffffffffffffffffffffffff\n      and\n        /* \"main.sol\":1032:1037  loans */\n      0x01\n        /* \"main.sol\":1032:1046  loans[_poolId] */\n      0x00\n        /* \"main.sol\":1038:1045  _poolId */\n      dup4\n        /* \"main.sol\":1032:1046  loans[_poolId] */\n      dup2\n      mstore\n      0x20\n      add\n      swap1\n      dup2\n      mstore\n      0x20\n      add\n      0x00\n      keccak256\n        /* \"main.sol\":1032:1052  loans[_poolId].owner */\n      0x00\n      add\n      0x00\n      swap1\n      sload\n      swap1\n      0x0100\n      exp\n      swap1\n      div\n      0xffffffffffffffffffffffffffffffffffffffff\n      and\n        /* \"main.sol\":1032:1066  loans[_poolId].owner == msg.sender */\n      0xffffffffffffffffffffffffffffffffffffffff\n      and\n      eq\n        /* \"main.sol\":1024:1085  require(loans[_poolId].owner == msg.sender, \"LAN: not owner\") */\n      tag_69\n      jumpi\n      mload(0x40)\n      0x08c379a000000000000000000000000000000000000000000000000000000000\n      dup2\n      mstore\n      0x04\n      add\n      tag_70\n      swap1\n      tag_71\n      jump\t// in\n    tag_70:\n      mload(0x40)\n      dup1\n      swap2\n      sub\n      swap1\n      revert\n    tag_69:\n        /* \"main.sol\":2801:2817  Loan memory loan */\n      0x00\n        /* \"main.sol\":2820:2825  loans */\n      0x01\n        /* \"main.sol\":2820:2834  loans[_poolId] */\n      0x00\n        /* \"main.sol\":2826:2833  _poolId */\n      dup5\n        /* \"main.sol\":2820:2834  loans[_poolId] */\n      dup2\n      mstore\n      0x20\n      add\n      swap1\n      dup2\n      mstore\n      0x20\n      add\n      0x00\n      keccak256\n        /* \"main.sol\":2801:2834  Loan memory loan = loans[_poolId] */\n      mload(0x40)\n      dup1\n      0x0100\n      add\n      0x40\n      mstore\n      swap1\n      dup2\n      0x00\n      dup3\n      add\n      0x00\n      swap1\n      sload\n      swap1\n      0x0100\n      exp\n      swap1\n      div\n      0xffffffffffffffffffffffffffffffffffffffff\n      and\n      0xffffffffffffffffffffffffffffffffffffffff\n      and\n      0xffffffffffffffffffffffffffffffffffffffff\n      and\n      dup2\n      mstore\n      0x20\n      add\n      0x01\n      dup3\n      add\n      0x00\n      swap1\n      sload\n      swap1\n      0x0100\n      exp\n      swap1\n      div\n      0xffffffffffffffffffffffffffffffffffffffff\n      and\n      0xffffffffffffffffffffffffffffffffffffffff\n      and\n      0xffffffffffffffffffffffffffffffffffffffff\n      and\n      dup2\n      mstore\n      0x20\n      add\n      0x02\n      dup3\n      add\n      0x00\n      swap1\n      sload\n      swap1\n      0x0100\n      exp\n      swap1\n      div\n      0xffffffffffffffffffffffffffffffffffffffff\n      and\n      0xffffffffffffffffffffffffffffffffffffffff\n      and\n      0xffffffffffffffffffffffffffffffffffffffff\n      and\n      dup2\n      mstore\n      0x20\n      add\n      0x03\n      dup3\n      add\n      sload\n      dup2\n      mstore\n      0x20\n      add\n      0x04\n      dup3\n      add\n      sload\n      dup2\n      mstore\n      0x20\n      add\n      0x05\n      dup3\n      add\n      sload\n      dup2\n      mstore\n      0x20\n      add\n      0x06\n      dup3\n      add\n      sload\n      dup2\n      mstore\n      0x20\n      add\n      0x07\n      dup3\n      add\n      sload\n      dup2\n      mstore\n      pop\n      pop\n      swap1\n      pop\n        /* \"main.sol\":2869:2884  block.timestamp */\n      timestamp\n        /* \"main.sol\":2852:2856  loan */\n      dup2\n        /* \"main.sol\":2852:2866  loan.startTime */\n      0x80\n      add\n      mload\n        /* \"main.sol\":2852:2884  loan.startTime > block.timestamp */\n      gt\n        /* \"main.sol\":2844:2909  require(loan.startTime > block.timestamp, \"LAN: already started\") */\n      tag_73\n      jumpi\n      mload(0x40)\n      0x08c379a000000000000000000000000000000000000000000000000000000000\n      dup2\n      mstore\n      0x04\n      add\n      tag_74\n      swap1\n      tag_75\n      jump\t// in\n    tag_74:\n      mload(0x40)\n      dup1\n      swap2\n      sub\n      swap1\n      revert\n    tag_73:\n        /* \"main.sol\":2919:2930  delete loan */\n      tag_76\n      tag_77\n      jump\t// in\n    tag_76:\n      swap1\n      pop\n        /* \"main.sol\":2945:2967  loanCancelled(_poolId) */\n      0xfe785ef891129b084b1c5a30e4d88eb97c97822c024cc25d5f9d806b897512e0\n        /* \"main.sol\":2959:2966  _poolId */\n      dup4\n        /* \"main.sol\":2945:2967  loanCancelled(_poolId) */\n      mload(0x40)\n      tag_78\n      swap2\n      swap1\n      tag_17\n      jump\t// in\n    tag_78:\n      mload(0x40)\n      dup1\n      swap2\n      sub\n      swap1\n      log1\n        /* \"main.sol\":2791:2974  {... */\n      pop\n        /* \"main.sol\":2730:2974  function cancel(uint256 _poolId) external onlyOwner(_poolId) {... */\n      pop\n      pop\n      jump\t// out\n        /* \"main.sol\":3544:3977  function liquidate(uint256 _poolId) external {... */\n    tag_27:\n        /* \"main.sol\":3599:3615  Loan memory loan */\n      0x00\n        /* \"main.sol\":3618:3623  loans */\n      0x01\n        /* \"main.sol\":3618:3632  loans[_poolId] */\n      0x00\n        /* \"main.sol\":3624:3631  _poolId */\n      dup4\n        /* \"main.sol\":3618:3632  loans[_poolId] */\n      dup2\n      mstore\n      0x20\n      add\n      swap1\n      dup2\n      mstore\n      0x20\n      add\n      0x00\n      keccak256\n        /* \"main.sol\":3599:3632  Loan memory loan = loans[_poolId] */\n      mload(0x40)\n      dup1\n      0x0100\n      add\n      0x40\n      mstore\n      swap1\n      dup2\n      0x00\n      dup3\n      add\n      0x00\n      swap1\n      sload\n      swap1\n      0x0100\n      exp\n      swap1\n      div\n      0xffffffffffffffffffffffffffffffffffffffff\n      and\n      0xffffffffffffffffffffffffffffffffffffffff\n      and\n      0xffffffffffffffffffffffffffffffffffffffff\n      and\n      dup2\n      mstore\n      0x20\n      add\n      0x01\n      dup3\n      add\n      0x00\n      swap1\n      sload\n      swap1\n      0x0100\n      exp\n      swap1\n      div\n      0xffffffffffffffffffffffffffffffffffffffff\n      and\n      0xffffffffffffffffffffffffffffffffffffffff\n      and\n      0xffffffffffffffffffffffffffffffffffffffff\n      and\n      dup2\n      mstore\n      0x20\n      add\n      0x02\n      dup3\n      add\n      0x00\n      swap1\n      sload\n      swap1\n      0x0100\n      exp\n      swap1\n      div\n      0xffffffffffffffffffffffffffffffffffffffff\n      and\n      0xffffffffffffffffffffffffffffffffffffffff\n      and\n      0xffffffffffffffffffffffffffffffffffffffff\n      and\n      dup2\n      mstore\n      0x20\n      add\n      0x03\n      dup3\n      add\n      sload\n      dup2\n      mstore\n      0x20\n      add\n      0x04\n      dup3\n      add\n      sload\n      dup2\n      mstore\n      0x20\n      add\n      0x05\n      dup3\n      add\n      sload\n      dup2\n      mstore\n      0x20\n      add\n      0x06\n      dup3\n      add\n      sload\n      dup2\n      mstore\n      0x20\n      add\n      0x07\n      dup3\n      add\n      sload\n      dup2\n      mstore\n      pop\n      pop\n      swap1\n      pop\n        /* \"main.sol\":3650:3665  _ended(_poolId) */\n      tag_80\n        /* \"main.sol\":3657:3664  _poolId */\n      dup3\n        /* \"main.sol\":3650:3656  _ended */\n      tag_56\n        /* \"main.sol\":3650:3665  _ended(_poolId) */\n      jump\t// in\n    tag_80:\n        /* \"main.sol\":3642:3689  require(_ended(_poolId), \"LAN: loan not ended\") */\n      tag_81\n      jumpi\n      mload(0x40)\n      0x08c379a000000000000000000000000000000000000000000000000000000000\n      dup2\n      mstore\n      0x04\n      add\n      tag_82\n      swap1\n      tag_59\n      jump\t// in\n    tag_82:\n      mload(0x40)\n      dup1\n      swap2\n      sub\n      swap1\n      revert\n    tag_81:\n        /* \"main.sol\":3699:3719  Bid memory latestBid */\n      0x00\n        /* \"main.sol\":3722:3726  bids */\n      0x02\n        /* \"main.sol\":3722:3735  bids[_poolId] */\n      0x00\n        /* \"main.sol\":3727:3734  _poolId */\n      dup5\n        /* \"main.sol\":3722:3735  bids[_poolId] */\n      dup2\n      mstore\n      0x20\n      add\n      swap1\n      dup2\n      mstore\n      0x20\n      add\n      0x00\n      keccak256\n        /* \"main.sol\":3722:3749  bids[_poolId][loan.numBids] */\n      0x00\n        /* \"main.sol\":3736:3740  loan */\n      dup4\n        /* \"main.sol\":3736:3748  loan.numBids */\n      0xe0\n      add\n      mload\n        /* \"main.sol\":3722:3749  bids[_poolId][loan.numBids] */\n      dup2\n      mstore\n      0x20\n      add\n      swap1\n      dup2\n      mstore\n      0x20\n      add\n      0x00\n      keccak256\n        /* \"main.sol\":3699:3749  Bid memory latestBid = bids[_poolId][loan.numBids] */\n      mload(0x40)\n      dup1\n      0x60\n      add\n      0x40\n      mstore\n      swap1\n      dup2\n      0x00\n      dup3\n      add\n      sload\n      dup2\n      mstore\n      0x20\n      add\n      0x01\n      dup3\n      add\n      sload\n      dup2\n      mstore\n      0x20\n      add\n      0x02\n      dup3\n      add\n      0x00\n      swap1\n      sload\n      swap1\n      0x0100\n      exp\n      swap1\n      div\n      0xffffffffffffffffffffffffffffffffffffffff\n      and\n      0xffffffffffffffffffffffffffffffffffffffff\n      and\n      0xffffffffffffffffffffffffffffffffffffffff\n      and\n      dup2\n      mstore\n      pop\n      pop\n      swap1\n      pop\n        /* \"main.sol\":3785:3795  msg.sender */\n      caller\n        /* \"main.sol\":3767:3795  latestBid.user == msg.sender */\n      0xffffffffffffffffffffffffffffffffffffffff\n      and\n        /* \"main.sol\":3767:3776  latestBid */\n      dup2\n        /* \"main.sol\":3767:3781  latestBid.user */\n      0x40\n      add\n      mload\n        /* \"main.sol\":3767:3795  latestBid.user == msg.sender */\n      0xffffffffffffffffffffffffffffffffffffffff\n      and\n      eq\n        /* \"main.sol\":3759:3822  require(latestBid.user == msg.sender, \"LAN: not latest bidder\") */\n      tag_83\n      jumpi\n      mload(0x40)\n      0x08c379a000000000000000000000000000000000000000000000000000000000\n      dup2\n      mstore\n      0x04\n      add\n      tag_84\n      swap1\n      tag_62\n      jump\t// in\n    tag_84:\n      mload(0x40)\n      dup1\n      swap2\n      sub\n      swap1\n      revert\n    tag_83:\n        /* \"main.sol\":3856:3867  IERC721 NFT */\n      0x00\n        /* \"main.sol\":3878:3882  loan */\n      dup3\n        /* \"main.sol\":3878:3900  loan.collectionAddress */\n      0x40\n      add\n      mload\n        /* \"main.sol\":3856:3901  IERC721 NFT = IERC721(loan.collectionAddress) */\n      swap1\n      pop\n        /* \"main.sol\":3911:3914  NFT */\n      dup1\n        /* \"main.sol\":3911:3931  NFT.safeTransferFrom */\n      0xffffffffffffffffffffffffffffffffffffffff\n      and\n      0x42842e0e\n        /* \"main.sol\":3940:3944  this */\n      address\n        /* \"main.sol\":3947:3957  msg.sender */\n      caller\n        /* \"main.sol\":3959:3963  loan */\n      dup7\n        /* \"main.sol\":3959:3969  loan.nftId */\n      0x60\n      add\n      mload\n        /* \"main.sol\":3911:3970  NFT.safeTransferFrom(address(this), msg.sender, loan.nftId) */\n      mload(0x40)\n      dup5\n      0xffffffff\n      and\n      0xe0\n      shl\n      dup2\n      mstore\n      0x04\n      add\n      tag_85\n      swap4\n      swap3\n      swap2\n      swap1\n      tag_64\n      jump\t// in\n    tag_85:\n      0x00\n      mload(0x40)\n      dup1\n      dup4\n      sub\n      dup2\n      0x00\n      dup8\n      dup1\n      extcodesize\n      iszero\n      dup1\n      iszero\n      tag_86\n      jumpi\n      0x00\n      dup1\n      revert\n    tag_86:\n      pop\n      gas\n      call\n      iszero\n      dup1\n      iszero\n      tag_88\n      jumpi\n      returndatasize\n      0x00\n      dup1\n      returndatacopy\n      revert(0x00, returndatasize)\n    tag_88:\n      pop\n      pop\n      pop\n      pop\n        /* \"main.sol\":3589:3977  {... */\n      pop\n      pop\n      pop\n        /* \"main.sol\":3544:3977  function liquidate(uint256 _poolId) external {... */\n      pop\n      jump\t// out\n        /* \"main.sol\":1810:2683  function bid(uint256 _poolId, uint256 _amount) external {... */\n    tag_31:\n        /* \"main.sol\":1884:1901  _started(_poolId) */\n      tag_90\n        /* \"main.sol\":1893:1900  _poolId */\n      dup3\n        /* \"main.sol\":1884:1892  _started */\n      tag_91\n        /* \"main.sol\":1884:1901  _started(_poolId) */\n      jump\t// in\n    tag_90:\n        /* \"main.sol\":1876:1922  require(_started(_poolId), \"LAN: not started\") */\n      tag_92\n      jumpi\n      mload(0x40)\n      0x08c379a000000000000000000000000000000000000000000000000000000000\n      dup2\n      mstore\n      0x04\n      add\n      tag_93\n      swap1\n      tag_94\n      jump\t// in\n    tag_93:\n      mload(0x40)\n      dup1\n      swap2\n      sub\n      swap1\n      revert\n    tag_92:\n        /* \"main.sol\":1941:1956  _ended(_poolId) */\n      tag_95\n        /* \"main.sol\":1948:1955  _poolId */\n      dup3\n        /* \"main.sol\":1941:1947  _ended */\n      tag_56\n        /* \"main.sol\":1941:1956  _ended(_poolId) */\n      jump\t// in\n    tag_95:\n        /* \"main.sol\":1940:1956  !_ended(_poolId) */\n      iszero\n        /* \"main.sol\":1932:1979  require(!_ended(_poolId), \"LAN: already ended\") */\n      tag_96\n      jumpi\n      mload(0x40)\n      0x08c379a000000000000000000000000000000000000000000000000000000000\n      dup2\n      mstore\n      0x04\n      add\n      tag_97\n      swap1\n      tag_98\n      jump\t// in\n    tag_97:\n      mload(0x40)\n      dup1\n      swap2\n      sub\n      swap1\n      revert\n    tag_96:\n        /* \"main.sol\":1989:2005  Loan memory loan */\n      0x00\n        /* \"main.sol\":2008:2013  loans */\n      0x01\n        /* \"main.sol\":2008:2022  loans[_poolId] */\n      0x00\n        /* \"main.sol\":2014:2021  _poolId */\n      dup5\n        /* \"main.sol\":2008:2022  loans[_poolId] */\n      dup2\n      mstore\n      0x20\n      add\n      swap1\n      dup2\n      mstore\n      0x20\n      add\n      0x00\n      keccak256\n        /* \"main.sol\":1989:2022  Loan memory loan = loans[_poolId] */\n      mload(0x40)\n      dup1\n      0x0100\n      add\n      0x40\n      mstore\n      swap1\n      dup2\n      0x00\n      dup3\n      add\n      0x00\n      swap1\n      sload\n      swap1\n      0x0100\n      exp\n      swap1\n      div\n      0xffffffffffffffffffffffffffffffffffffffff\n      and\n      0xffffffffffffffffffffffffffffffffffffffff\n      and\n      0xffffffffffffffffffffffffffffffffffffffff\n      and\n      dup2\n      mstore\n      0x20\n      add\n      0x01\n      dup3\n      add\n      0x00\n      swap1\n      sload\n      swap1\n      0x0100\n      exp\n      swap1\n      div\n      0xffffffffffffffffffffffffffffffffffffffff\n      and\n      0xffffffffffffffffffffffffffffffffffffffff\n      and\n      0xffffffffffffffffffffffffffffffffffffffff\n      and\n      dup2\n      mstore\n      0x20\n      add\n      0x02\n      dup3\n      add\n      0x00\n      swap1\n      sload\n      swap1\n      0x0100\n      exp\n      swap1\n      div\n      0xffffffffffffffffffffffffffffffffffffffff\n      and\n      0xffffffffffffffffffffffffffffffffffffffff\n      and\n      0xffffffffffffffffffffffffffffffffffffffff\n      and\n      dup2\n      mstore\n      0x20\n      add\n      0x03\n      dup3\n      add\n      sload\n      dup2\n      mstore\n      0x20\n      add\n      0x04\n      dup3\n      add\n      sload\n      dup2\n      mstore\n      0x20\n      add\n      0x05\n      dup3\n      add\n      sload\n      dup2\n      mstore\n      0x20\n      add\n      0x06\n      dup3\n      add\n      sload\n      dup2\n      mstore\n      0x20\n      add\n      0x07\n      dup3\n      add\n      sload\n      dup2\n      mstore\n      pop\n      pop\n      swap1\n      pop\n        /* \"main.sol\":2064:2079  uint256 numBids */\n      0x00\n        /* \"main.sol\":2097:2098  1 */\n      0x01\n        /* \"main.sol\":2082:2086  loan */\n      dup3\n        /* \"main.sol\":2082:2094  loan.numBids */\n      0xe0\n      add\n      mload\n        /* \"main.sol\":2082:2098  loan.numBids + 1 */\n      tag_99\n      swap2\n      swap1\n      tag_100\n      jump\t// in\n    tag_99:\n        /* \"main.sol\":2064:2098  uint256 numBids = loan.numBids + 1 */\n      swap1\n      pop\n        /* \"main.sol\":2124:2131  numBids */\n      dup1\n        /* \"main.sol\":2109:2113  loan */\n      dup3\n        /* \"main.sol\":2109:2121  loan.numBids */\n      0xe0\n      add\n        /* \"main.sol\":2109:2131  loan.numBids = numBids */\n      dup2\n      dup2\n      mstore\n      pop\n      pop\n        /* \"main.sol\":2141:2158  uint256 loanValue */\n      0x00\n        /* \"main.sol\":2161:2189  _calculateLoanValue(_poolId) */\n      tag_101\n        /* \"main.sol\":2181:2188  _poolId */\n      dup6\n        /* \"main.sol\":2161:2180  _calculateLoanValue */\n      tag_102\n        /* \"main.sol\":2161:2189  _calculateLoanValue(_poolId) */\n      jump\t// in\n    tag_101:\n        /* \"main.sol\":2141:2189  uint256 loanValue = _calculateLoanValue(_poolId) */\n      swap1\n      pop\n        /* \"main.sol\":2217:2226  loanValue */\n      dup1\n        /* \"main.sol\":2207:2214  _amount */\n      dup5\n        /* \"main.sol\":2207:2226  _amount > loanValue */\n      gt\n        /* \"main.sol\":2199:2250  require(_amount > loanValue, \"LAN: bid not higher\") */\n      tag_103\n      jumpi\n      mload(0x40)\n      0x08c379a000000000000000000000000000000000000000000000000000000000\n      dup2\n      mstore\n      0x04\n      add\n      tag_104\n      swap1\n      tag_105\n      jump\t// in\n    tag_104:\n      mload(0x40)\n      dup1\n      swap2\n      sub\n      swap1\n      revert\n    tag_103:\n        /* \"main.sol\":2309:2313  loan */\n      dup3\n        /* \"main.sol\":2309:2319  loan.token */\n      0x20\n      add\n      mload\n        /* \"main.sol\":2302:2333  IERC20(loan.token).transferFrom */\n      0xffffffffffffffffffffffffffffffffffffffff\n      and\n      0x23b872dd\n        /* \"main.sol\":2334:2344  msg.sender */\n      caller\n        /* \"main.sol\":2346:2350  bids */\n      0x02\n        /* \"main.sol\":2346:2359  bids[_poolId] */\n      0x00\n        /* \"main.sol\":2351:2358  _poolId */\n      dup10\n        /* \"main.sol\":2346:2359  bids[_poolId] */\n      dup2\n      mstore\n      0x20\n      add\n      swap1\n      dup2\n      mstore\n      0x20\n      add\n      0x00\n      keccak256\n        /* \"main.sol\":2346:2368  bids[_poolId][numBids] */\n      0x00\n        /* \"main.sol\":2360:2367  numBids */\n      dup7\n        /* \"main.sol\":2346:2368  bids[_poolId][numBids] */\n      dup2\n      mstore\n      0x20\n      add\n      swap1\n      dup2\n      mstore\n      0x20\n      add\n      0x00\n      keccak256\n        /* \"main.sol\":2346:2373  bids[_poolId][numBids].user */\n      0x02\n      add\n      0x00\n      swap1\n      sload\n      swap1\n      0x0100\n      exp\n      swap1\n      div\n      0xffffffffffffffffffffffffffffffffffffffff\n      and\n        /* \"main.sol\":2375:2384  loanValue */\n      dup5\n        /* \"main.sol\":2302:2385  IERC20(loan.token).transferFrom(msg.sender, bids[_poolId][numBids].user, loanValue) */\n      mload(0x40)\n      dup5\n      0xffffffff\n      and\n      0xe0\n      shl\n      dup2\n      mstore\n      0x04\n      add\n      tag_106\n      swap4\n      swap3\n      swap2\n      swap1\n      tag_64\n      jump\t// in\n    tag_106:\n      0x20\n      mload(0x40)\n      dup1\n      dup4\n      sub\n      dup2\n      0x00\n      dup8\n      gas\n      call\n      iszero\n      dup1\n      iszero\n      tag_108\n      jumpi\n      returndatasize\n      0x00\n      dup1\n      returndatacopy\n      revert(0x00, returndatasize)\n    tag_108:\n      pop\n      pop\n      pop\n      pop\n      mload(0x40)\n      returndatasize\n      not(0x1f)\n      0x1f\n      dup3\n      add\n      and\n      dup3\n      add\n      dup1\n      0x40\n      mstore\n      pop\n      dup2\n      add\n      swap1\n      tag_109\n      swap2\n      swap1\n      tag_110\n      jump\t// in\n    tag_109:\n      pop\n        /* \"main.sol\":2434:2438  loan */\n      dup3\n        /* \"main.sol\":2434:2444  loan.token */\n      0x20\n      add\n      mload\n        /* \"main.sol\":2427:2458  IERC20(loan.token).transferFrom */\n      0xffffffffffffffffffffffffffffffffffffffff\n      and\n      0x23b872dd\n        /* \"main.sol\":2459:2469  msg.sender */\n      caller\n        /* \"main.sol\":2471:2475  loan */\n      dup6\n        /* \"main.sol\":2471:2481  loan.owner */\n      0x00\n      add\n      mload\n        /* \"main.sol\":2493:2502  loanValue */\n      dup5\n        /* \"main.sol\":2483:2490  _amount */\n      dup9\n        /* \"main.sol\":2483:2502  _amount - loanValue */\n      tag_111\n      swap2\n      swap1\n      tag_112\n      jump\t// in\n    tag_111:\n        /* \"main.sol\":2427:2503  IERC20(loan.token).transferFrom(msg.sender, loan.owner, _amount - loanValue) */\n      mload(0x40)\n      dup5\n      0xffffffff\n      and\n      0xe0\n      shl\n      dup2\n      mstore\n      0x04\n      add\n      tag_113\n      swap4\n      swap3\n      swap2\n      swap1\n      tag_64\n      jump\t// in\n    tag_113:\n      0x20\n      mload(0x40)\n      dup1\n      dup4\n      sub\n      dup2\n      0x00\n      dup8\n      gas\n      call\n      iszero\n      dup1\n      iszero\n      tag_115\n      jumpi\n      returndatasize\n      0x00\n      dup1\n      returndatacopy\n      revert(0x00, returndatasize)\n    tag_115:\n      pop\n      pop\n      pop\n      pop\n      mload(0x40)\n      returndatasize\n      not(0x1f)\n      0x1f\n      dup3\n      add\n      and\n      dup3\n      add\n      dup1\n      0x40\n      mstore\n      pop\n      dup2\n      add\n      swap1\n      tag_116\n      swap2\n      swap1\n      tag_110\n      jump\t// in\n    tag_116:\n      pop\n        /* \"main.sol\":2561:2676  Bid({... */\n      mload(0x40)\n      dup1\n      0x60\n      add\n      0x40\n      mstore\n      dup1\n        /* \"main.sol\":2588:2603  block.timestamp */\n      timestamp\n        /* \"main.sol\":2561:2676  Bid({... */\n      dup2\n      mstore\n      0x20\n      add\n        /* \"main.sol\":2628:2635  _amount */\n      dup6\n        /* \"main.sol\":2561:2676  Bid({... */\n      dup2\n      mstore\n      0x20\n      add\n        /* \"main.sol\":2655:2665  msg.sender */\n      caller\n        /* \"main.sol\":2561:2676  Bid({... */\n      0xffffffffffffffffffffffffffffffffffffffff\n      and\n      dup2\n      mstore\n      pop\n        /* \"main.sol\":2536:2540  bids */\n      0x02\n        /* \"main.sol\":2536:2549  bids[_poolId] */\n      0x00\n        /* \"main.sol\":2541:2548  _poolId */\n      dup8\n        /* \"main.sol\":2536:2549  bids[_poolId] */\n      dup2\n      mstore\n      0x20\n      add\n      swap1\n      dup2\n      mstore\n      0x20\n      add\n      0x00\n      keccak256\n        /* \"main.sol\":2536:2558  bids[_poolId][numBids] */\n      0x00\n        /* \"main.sol\":2550:2557  numBids */\n      dup5\n        /* \"main.sol\":2536:2558  bids[_poolId][numBids] */\n      dup2\n      mstore\n      0x20\n      add\n      swap1\n      dup2\n      mstore\n      0x20\n      add\n      0x00\n      keccak256\n        /* \"main.sol\":2536:2676  bids[_poolId][numBids] = Bid({... */\n      0x00\n      dup3\n      add\n      mload\n      dup2\n      0x00\n      add\n      sstore\n      0x20\n      dup3\n      add\n      mload\n      dup2\n      0x01\n      add\n      sstore\n      0x40\n      dup3\n      add\n      mload\n      dup2\n      0x02\n      add\n      exp(0x0100, 0x00)\n      dup2\n      sload\n      dup2\n      0xffffffffffffffffffffffffffffffffffffffff\n      mul\n      not\n      and\n      swap1\n      dup4\n      0xffffffffffffffffffffffffffffffffffffffff\n      and\n      mul\n      or\n      swap1\n      sstore\n      pop\n      swap1\n      pop\n      pop\n        /* \"main.sol\":1866:2683  {... */\n      pop\n      pop\n      pop\n        /* \"main.sol\":1810:2683  function bid(uint256 _poolId, uint256 _amount) external {... */\n      pop\n      pop\n      jump\t// out\n        /* \"main.sol\":3013:3490  function endLoan(uint256 _poolId) external onlyOwner(_poolId) {... */\n    tag_34:\n        /* \"main.sol\":3066:3073  _poolId */\n      dup1\n        /* \"main.sol\":1056:1066  msg.sender */\n      caller\n        /* \"main.sol\":1032:1066  loans[_poolId].owner == msg.sender */\n      0xffffffffffffffffffffffffffffffffffffffff\n      and\n        /* \"main.sol\":1032:1037  loans */\n      0x01\n        /* \"main.sol\":1032:1046  loans[_poolId] */\n      0x00\n        /* \"main.sol\":1038:1045  _poolId */\n      dup4\n        /* \"main.sol\":1032:1046  loans[_poolId] */\n      dup2\n      mstore\n      0x20\n      add\n      swap1\n      dup2\n      mstore\n      0x20\n      add\n      0x00\n      keccak256\n        /* \"main.sol\":1032:1052  loans[_poolId].owner */\n      0x00\n      add\n      0x00\n      swap1\n      sload\n      swap1\n      0x0100\n      exp\n      swap1\n      div\n      0xffffffffffffffffffffffffffffffffffffffff\n      and\n        /* \"main.sol\":1032:1066  loans[_poolId].owner == msg.sender */\n      0xffffffffffffffffffffffffffffffffffffffff\n      and\n      eq\n        /* \"main.sol\":1024:1085  require(loans[_poolId].owner == msg.sender, \"LAN: not owner\") */\n      tag_118\n      jumpi\n      mload(0x40)\n      0x08c379a000000000000000000000000000000000000000000000000000000000\n      dup2\n      mstore\n      0x04\n      add\n      tag_119\n      swap1\n      tag_71\n      jump\t// in\n    tag_119:\n      mload(0x40)\n      dup1\n      swap2\n      sub\n      swap1\n      revert\n    tag_118:\n        /* \"main.sol\":3085:3101  Loan memory loan */\n      0x00\n        /* \"main.sol\":3104:3109  loans */\n      0x01\n        /* \"main.sol\":3104:3118  loans[_poolId] */\n      0x00\n        /* \"main.sol\":3110:3117  _poolId */\n      dup5\n        /* \"main.sol\":3104:3118  loans[_poolId] */\n      dup2\n      mstore\n      0x20\n      add\n      swap1\n      dup2\n      mstore\n      0x20\n      add\n      0x00\n      keccak256\n        /* \"main.sol\":3085:3118  Loan memory loan = loans[_poolId] */\n      mload(0x40)\n      dup1\n      0x0100\n      add\n      0x40\n      mstore\n      swap1\n      dup2\n      0x00\n      dup3\n      add\n      0x00\n      swap1\n      sload\n      swap1\n      0x0100\n      exp\n      swap1\n      div\n      0xffffffffffffffffffffffffffffffffffffffff\n      and\n      0xffffffffffffffffffffffffffffffffffffffff\n      and\n      0xffffffffffffffffffffffffffffffffffffffff\n      and\n      dup2\n      mstore\n      0x20\n      add\n      0x01\n      dup3\n      add\n      0x00\n      swap1\n      sload\n      swap1\n      0x0100\n      exp\n      swap1\n      div\n      0xffffffffffffffffffffffffffffffffffffffff\n      and\n      0xffffffffffffffffffffffffffffffffffffffff\n      and\n      0xffffffffffffffffffffffffffffffffffffffff\n      and\n      dup2\n      mstore\n      0x20\n      add\n      0x02\n      dup3\n      add\n      0x00\n      swap1\n      sload\n      swap1\n      0x0100\n      exp\n      swap1\n      div\n      0xffffffffffffffffffffffffffffffffffffffff\n      and\n      0xffffffffffffffffffffffffffffffffffffffff\n      and\n      0xffffffffffffffffffffffffffffffffffffffff\n      and\n      dup2\n      mstore\n      0x20\n      add\n      0x03\n      dup3\n      add\n      sload\n      dup2\n      mstore\n      0x20\n      add\n      0x04\n      dup3\n      add\n      sload\n      dup2\n      mstore\n      0x20\n      add\n      0x05\n      dup3\n      add\n      sload\n      dup2\n      mstore\n      0x20\n      add\n      0x06\n      dup3\n      add\n      sload\n      dup2\n      mstore\n      0x20\n      add\n      0x07\n      dup3\n      add\n      sload\n      dup2\n      mstore\n      pop\n      pop\n      swap1\n      pop\n        /* \"main.sol\":3128:3148  Bid memory latestBid */\n      0x00\n        /* \"main.sol\":3151:3155  bids */\n      0x02\n        /* \"main.sol\":3151:3164  bids[_poolId] */\n      0x00\n        /* \"main.sol\":3156:3163  _poolId */\n      dup6\n        /* \"main.sol\":3151:3164  bids[_poolId] */\n      dup2\n      mstore\n      0x20\n      add\n      swap1\n      dup2\n      mstore\n      0x20\n      add\n      0x00\n      keccak256\n        /* \"main.sol\":3151:3178  bids[_poolId][loan.numBids] */\n      0x00\n        /* \"main.sol\":3165:3169  loan */\n      dup4\n        /* \"main.sol\":3165:3177  loan.numBids */\n      0xe0\n      add\n      mload\n        /* \"main.sol\":3151:3178  bids[_poolId][loan.numBids] */\n      dup2\n      mstore\n      0x20\n      add\n      swap1\n      dup2\n      mstore\n      0x20\n      add\n      0x00\n      keccak256\n        /* \"main.sol\":3128:3178  Bid memory latestBid = bids[_poolId][loan.numBids] */\n      mload(0x40)\n      dup1\n      0x60\n      add\n      0x40\n      mstore\n      swap1\n      dup2\n      0x00\n      dup3\n      add\n      sload\n      dup2\n      mstore\n      0x20\n      add\n      0x01\n      dup3\n      add\n      sload\n      dup2\n      mstore\n      0x20\n      add\n      0x02\n      dup3\n      add\n      0x00\n      swap1\n      sload\n      swap1\n      0x0100\n      exp\n      swap1\n      div\n      0xffffffffffffffffffffffffffffffffffffffff\n      and\n      0xffffffffffffffffffffffffffffffffffffffff\n      and\n      0xffffffffffffffffffffffffffffffffffffffff\n      and\n      dup2\n      mstore\n      pop\n      pop\n      swap1\n      pop\n        /* \"main.sol\":3239:3243  loan */\n      dup2\n        /* \"main.sol\":3239:3249  loan.token */\n      0x20\n      add\n      mload\n        /* \"main.sol\":3232:3263  IERC20(loan.token).transferFrom */\n      0xffffffffffffffffffffffffffffffffffffffff\n      and\n      0x23b872dd\n        /* \"main.sol\":3264:3274  msg.sender */\n      caller\n        /* \"main.sol\":3276:3285  latestBid */\n      dup4\n        /* \"main.sol\":3276:3290  latestBid.user */\n      0x40\n      add\n      mload\n        /* \"main.sol\":3292:3320  _calculateLoanValue(_poolId) */\n      tag_121\n        /* \"main.sol\":3312:3319  _poolId */\n      dup9\n        /* \"main.sol\":3292:3311  _calculateLoanValue */\n      tag_102\n        /* \"main.sol\":3292:3320  _calculateLoanValue(_poolId) */\n      jump\t// in\n    tag_121:\n        /* \"main.sol\":3232:3321  IERC20(loan.token).transferFrom(msg.sender, latestBid.user, _calculateLoanValue(_poolId)) */\n      mload(0x40)\n      dup5\n      0xffffffff\n      and\n      0xe0\n      shl\n      dup2\n      mstore\n      0x04\n      add\n      tag_122\n      swap4\n      swap3\n      swap2\n      swap1\n      tag_64\n      jump\t// in\n    tag_122:\n      0x20\n      mload(0x40)\n      dup1\n      dup4\n      sub\n      dup2\n      0x00\n      dup8\n      gas\n      call\n      iszero\n      dup1\n      iszero\n      tag_124\n      jumpi\n      returndatasize\n      0x00\n      dup1\n      returndatacopy\n      revert(0x00, returndatasize)\n    tag_124:\n      pop\n      pop\n      pop\n      pop\n      mload(0x40)\n      returndatasize\n      not(0x1f)\n      0x1f\n      dup3\n      add\n      and\n      dup3\n      add\n      dup1\n      0x40\n      mstore\n      pop\n      dup2\n      add\n      swap1\n      tag_125\n      swap2\n      swap1\n      tag_110\n      jump\t// in\n    tag_125:\n      pop\n        /* \"main.sol\":3369:3380  IERC721 NFT */\n      0x00\n        /* \"main.sol\":3391:3395  loan */\n      dup3\n        /* \"main.sol\":3391:3413  loan.collectionAddress */\n      0x40\n      add\n      mload\n        /* \"main.sol\":3369:3414  IERC721 NFT = IERC721(loan.collectionAddress) */\n      swap1\n      pop\n        /* \"main.sol\":3424:3427  NFT */\n      dup1\n        /* \"main.sol\":3424:3444  NFT.safeTransferFrom */\n      0xffffffffffffffffffffffffffffffffffffffff\n      and\n      0x42842e0e\n        /* \"main.sol\":3453:3457  this */\n      address\n        /* \"main.sol\":3460:3470  msg.sender */\n      caller\n        /* \"main.sol\":3472:3476  loan */\n      dup7\n        /* \"main.sol\":3472:3482  loan.nftId */\n      0x60\n      add\n      mload\n        /* \"main.sol\":3424:3483  NFT.safeTransferFrom(address(this), msg.sender, loan.nftId) */\n      mload(0x40)\n      dup5\n      0xffffffff\n      and\n      0xe0\n      shl\n      dup2\n      mstore\n      0x04\n      add\n      tag_126\n      swap4\n      swap3\n      swap2\n      swap1\n      tag_64\n      jump\t// in\n    tag_126:\n      0x00\n      mload(0x40)\n      dup1\n      dup4\n      sub\n      dup2\n      0x00\n      dup8\n      dup1\n      extcodesize\n      iszero\n      dup1\n      iszero\n      tag_127\n      jumpi\n      0x00\n      dup1\n      revert\n    tag_127:\n      pop\n      gas\n      call\n      iszero\n      dup1\n      iszero\n      tag_129\n      jumpi\n      returndatasize\n      0x00\n      dup1\n      returndatacopy\n      revert(0x00, returndatasize)\n    tag_129:\n      pop\n      pop\n      pop\n      pop\n        /* \"main.sol\":3075:3490  {... */\n      pop\n      pop\n      pop\n        /* \"main.sol\":3013:3490  function endLoan(uint256 _poolId) external onlyOwner(_poolId) {... */\n      pop\n      pop\n      jump\t// out\n        /* \"main.sol\":706:761  mapping(uint256 => mapping(uint256 => Bid)) public bids */\n    tag_37:\n      mstore(0x20, 0x02)\n      dup2\n      0x00\n      mstore\n      mstore(0x20, keccak256(0x00, 0x40))\n      dup1\n      0x00\n      mstore\n      keccak256(0x00, 0x40)\n      0x00\n      swap2\n      pop\n      swap2\n      pop\n      pop\n      dup1\n      0x00\n      add\n      sload\n      swap1\n      dup1\n      0x01\n      add\n      sload\n      swap1\n      dup1\n      0x02\n      add\n      0x00\n      swap1\n      sload\n      swap1\n      0x0100\n      exp\n      swap1\n      div\n      0xffffffffffffffffffffffffffffffffffffffff\n      and\n      swap1\n      pop\n      dup4\n      jump\t// out\n        /* \"main.sol\":843:900  mapping(uint256 => address[]) public whitelistedAddresses */\n    tag_42:\n      mstore(0x20, 0x03)\n      dup2\n      0x00\n      mstore\n      keccak256(0x00, 0x40)\n      dup2\n      dup2\n      sload\n      dup2\n      lt\n      tag_130\n      jumpi\n      0x00\n      dup1\n      revert\n    tag_130:\n      swap1\n      0x00\n      mstore\n      keccak256(0x00, 0x20)\n      add\n      0x00\n      swap2\n      pop\n      swap2\n      pop\n      swap1\n      sload\n      swap1\n      0x0100\n      exp\n      swap1\n      div\n      0xffffffffffffffffffffffffffffffffffffffff\n      and\n      dup2\n      jump\t// out\n        /* \"main.sol\":565:602  mapping(uint256 => Loan) public loans */\n    tag_47:\n      mstore(0x20, 0x01)\n      dup1\n      0x00\n      mstore\n      keccak256(0x00, 0x40)\n      0x00\n      swap2\n      pop\n      swap1\n      pop\n      dup1\n      0x00\n      add\n      0x00\n      swap1\n      sload\n      swap1\n      0x0100\n      exp\n      swap1\n      div\n      0xffffffffffffffffffffffffffffffffffffffff\n      and\n      swap1\n      dup1\n      0x01\n      add\n      0x00\n      swap1\n      sload\n      swap1\n      0x0100\n      exp\n      swap1\n      div\n      0xffffffffffffffffffffffffffffffffffffffff\n      and\n      swap1\n      dup1\n      0x02\n      add\n      0x00\n      swap1\n      sload\n      swap1\n      0x0100\n      exp\n      swap1\n      div\n      0xffffffffffffffffffffffffffffffffffffffff\n      and\n      swap1\n      dup1\n      0x03\n      add\n      sload\n      swap1\n      dup1\n      0x04\n      add\n      sload\n      swap1\n      dup1\n      0x05\n      add\n      sload\n      swap1\n      dup1\n      0x06\n      add\n      sload\n      swap1\n      dup1\n      0x07\n      add\n      sload\n      swap1\n      pop\n      dup9\n      jump\t// out\n        /* \"main.sol\":1109:1804  function launch(address _token, address _collectionAddress, uint256 _nftId, uint256 _startTime, uint256 _endTime, uint256 _apr) public {... */\n    tag_53:\n        /* \"main.sol\":1276:1291  block.timestamp */\n      timestamp\n        /* \"main.sol\":1262:1272  _startTime */\n      dup4\n        /* \"main.sol\":1262:1291  _startTime >= block.timestamp */\n      lt\n      iszero\n        /* \"main.sol\":1254:1319  require(_startTime >= block.timestamp, \"LAN: start time in past\") */\n      tag_133\n      jumpi\n      mload(0x40)\n      0x08c379a000000000000000000000000000000000000000000000000000000000\n      dup2\n      mstore\n      0x04\n      add\n      tag_134\n      swap1\n      tag_135\n      jump\t// in\n    tag_134:\n      mload(0x40)\n      dup1\n      swap2\n      sub\n      swap1\n      revert\n    tag_133:\n        /* \"main.sol\":1348:1358  _startTime */\n      dup3\n        /* \"main.sol\":1337:1345  _endTime */\n      dup3\n        /* \"main.sol\":1337:1358  _endTime > _startTime */\n      gt\n        /* \"main.sol\":1329:1383  require(_endTime > _startTime, \"LAN: start after end\") */\n      tag_136\n      jumpi\n      mload(0x40)\n      0x08c379a000000000000000000000000000000000000000000000000000000000\n      dup2\n      mstore\n      0x04\n      add\n      tag_137\n      swap1\n      tag_138\n      jump\t// in\n    tag_137:\n      mload(0x40)\n      dup1\n      swap2\n      sub\n      swap1\n      revert\n    tag_136:\n        /* \"main.sol\":1408:1673  Loan({... */\n      mload(0x40)\n      dup1\n      0x0100\n      add\n      0x40\n      mstore\n      dup1\n        /* \"main.sol\":1434:1444  msg.sender */\n      caller\n        /* \"main.sol\":1408:1673  Loan({... */\n      0xffffffffffffffffffffffffffffffffffffffff\n      and\n      dup2\n      mstore\n      0x20\n      add\n        /* \"main.sol\":1465:1471  _token */\n      dup8\n        /* \"main.sol\":1408:1673  Loan({... */\n      0xffffffffffffffffffffffffffffffffffffffff\n      and\n      dup2\n      mstore\n      0x20\n      add\n        /* \"main.sol\":1504:1522  _collectionAddress */\n      dup7\n        /* \"main.sol\":1408:1673  Loan({... */\n      0xffffffffffffffffffffffffffffffffffffffff\n      and\n      dup2\n      mstore\n      0x20\n      add\n        /* \"main.sol\":1543:1549  _nftId */\n      dup6\n        /* \"main.sol\":1408:1673  Loan({... */\n      dup2\n      mstore\n      0x20\n      add\n        /* \"main.sol\":1605:1615  _startTime */\n      dup5\n        /* \"main.sol\":1408:1673  Loan({... */\n      dup2\n      mstore\n      0x20\n      add\n        /* \"main.sol\":1572:1580  _endTime */\n      dup4\n        /* \"main.sol\":1408:1673  Loan({... */\n      dup2\n      mstore\n      0x20\n      add\n        /* \"main.sol\":1634:1638  _apr */\n      dup3\n        /* \"main.sol\":1408:1673  Loan({... */\n      dup2\n      mstore\n      0x20\n      add\n        /* \"main.sol\":1661:1662  0 */\n      0x00\n        /* \"main.sol\":1408:1673  Loan({... */\n      dup2\n      mstore\n      pop\n        /* \"main.sol\":1393:1398  loans */\n      0x01\n        /* \"main.sol\":1393:1405  loans[count] */\n      0x00\n        /* \"main.sol\":1399:1404  count */\n      dup1\n      sload\n        /* \"main.sol\":1393:1405  loans[count] */\n      dup2\n      mstore\n      0x20\n      add\n      swap1\n      dup2\n      mstore\n      0x20\n      add\n      0x00\n      keccak256\n        /* \"main.sol\":1393:1673  loans[count] = Loan({... */\n      0x00\n      dup3\n      add\n      mload\n      dup2\n      0x00\n      add\n      exp(0x0100, 0x00)\n      dup2\n      sload\n      dup2\n      0xffffffffffffffffffffffffffffffffffffffff\n      mul\n      not\n      and\n      swap1\n      dup4\n      0xffffffffffffffffffffffffffffffffffffffff\n      and\n      mul\n      or\n      swap1\n      sstore\n      pop\n      0x20\n      dup3\n      add\n      mload\n      dup2\n      0x01\n      add\n      exp(0x0100, 0x00)\n      dup2\n      sload\n      dup2\n      0xffffffffffffffffffffffffffffffffffffffff\n      mul\n      not\n      and\n      swap1\n      dup4\n      0xffffffffffffffffffffffffffffffffffffffff\n      and\n      mul\n      or\n      swap1\n      sstore\n      pop\n      0x40\n      dup3\n      add\n      mload\n      dup2\n      0x02\n      add\n      exp(0x0100, 0x00)\n      dup2\n      sload\n      dup2\n      0xffffffffffffffffffffffffffffffffffffffff\n      mul\n      not\n      and\n      swap1\n      dup4\n      0xffffffffffffffffffffffffffffffffffffffff\n      and\n      mul\n      or\n      swap1\n      sstore\n      pop\n      0x60\n      dup3\n      add\n      mload\n      dup2\n      0x03\n      add\n      sstore\n      0x80\n      dup3\n      add\n      mload\n      dup2\n      0x04\n      add\n      sstore\n      0xa0\n      dup3\n      add\n      mload\n      dup2\n      0x05\n      add\n      sstore\n      0xc0\n      dup3\n      add\n      mload\n      dup2\n      0x06\n      add\n      sstore\n      0xe0\n      dup3\n      add\n      mload\n      dup2\n      0x07\n      add\n      sstore\n      swap1\n      pop\n      pop\n        /* \"main.sol\":1708:1723  block.timestamp */\n      timestamp\n        /* \"main.sol\":1683:1687  bids */\n      0x02\n        /* \"main.sol\":1683:1694  bids[count] */\n      0x00\n        /* \"main.sol\":1688:1693  count */\n      dup1\n      sload\n        /* \"main.sol\":1683:1694  bids[count] */\n      dup2\n      mstore\n      0x20\n      add\n      swap1\n      dup2\n      mstore\n      0x20\n      add\n      0x00\n      keccak256\n        /* \"main.sol\":1683:1697  bids[count][0] */\n      0x00\n        /* \"main.sol\":1695:1696  0 */\n      dup1\n        /* \"main.sol\":1683:1697  bids[count][0] */\n      dup2\n      mstore\n      0x20\n      add\n      swap1\n      dup2\n      mstore\n      0x20\n      add\n      0x00\n      keccak256\n        /* \"main.sol\":1683:1705  bids[count][0].bidTime */\n      0x00\n      add\n        /* \"main.sol\":1683:1723  bids[count][0].bidTime = block.timestamp */\n      dup2\n      swap1\n      sstore\n      pop\n        /* \"main.sol\":1746:1751  count */\n      sload(0x00)\n        /* \"main.sol\":1738:1780  newPool(count, _collectionAddress, _nftId) */\n      0xef8b2952c43462575e82711d0cc91169720a4589a9fa533d173e022437f5405e\n        /* \"main.sol\":1753:1771  _collectionAddress */\n      dup7\n        /* \"main.sol\":1773:1779  _nftId */\n      dup7\n        /* \"main.sol\":1738:1780  newPool(count, _collectionAddress, _nftId) */\n      mload(0x40)\n      tag_139\n      swap3\n      swap2\n      swap1\n      tag_140\n      jump\t// in\n    tag_139:\n      mload(0x40)\n      dup1\n      swap2\n      sub\n      swap1\n      log2\n        /* \"main.sol\":1790:1795  count */\n      0x00\n      dup1\n        /* \"main.sol\":1790:1797  count++ */\n      dup2\n      sload\n      dup1\n      swap3\n      swap2\n      swap1\n      tag_141\n      swap1\n      tag_142\n      jump\t// in\n    tag_141:\n      swap2\n      swap1\n      pop\n      sstore\n      pop\n        /* \"main.sol\":1109:1804  function launch(address _token, address _collectionAddress, uint256 _nftId, uint256 _startTime, uint256 _endTime, uint256 _apr) public {... */\n      pop\n      pop\n      pop\n      pop\n      pop\n      pop\n      jump\t// out\n        /* \"main.sol\":5037:5163  function _ended(uint256 _poolId) internal view returns (bool){... */\n    tag_56:\n        /* \"main.sol\":5093:5097  bool */\n      0x00\n        /* \"main.sol\":5141:5156  block.timestamp */\n      timestamp\n        /* \"main.sol\":5115:5120  loans */\n      0x01\n        /* \"main.sol\":5115:5129  loans[_poolId] */\n      0x00\n        /* \"main.sol\":5121:5128  _poolId */\n      dup5\n        /* \"main.sol\":5115:5129  loans[_poolId] */\n      dup2\n      mstore\n      0x20\n      add\n      swap1\n      dup2\n      mstore\n      0x20\n      add\n      0x00\n      keccak256\n        /* \"main.sol\":5115:5137  loans[_poolId].endTime */\n      0x05\n      add\n      sload\n        /* \"main.sol\":5115:5156  loans[_poolId].endTime <= block.timestamp */\n      gt\n      iszero\n        /* \"main.sol\":5108:5156  return loans[_poolId].endTime <= block.timestamp */\n      swap1\n      pop\n        /* \"main.sol\":5037:5163  function _ended(uint256 _poolId) internal view returns (bool){... */\n      swap2\n      swap1\n      pop\n      jump\t// out\n        /* \"main.sol\":5168:5297  function _started(uint256 _poolId) internal view returns (bool){... */\n    tag_91:\n        /* \"main.sol\":5226:5230  bool */\n      0x00\n        /* \"main.sol\":5275:5290  block.timestamp */\n      timestamp\n        /* \"main.sol\":5248:5253  loans */\n      0x01\n        /* \"main.sol\":5248:5262  loans[_poolId] */\n      0x00\n        /* \"main.sol\":5254:5261  _poolId */\n      dup5\n        /* \"main.sol\":5248:5262  loans[_poolId] */\n      dup2\n      mstore\n      0x20\n      add\n      swap1\n      dup2\n      mstore\n      0x20\n      add\n      0x00\n      keccak256\n        /* \"main.sol\":5248:5272  loans[_poolId].startTime */\n      0x04\n      add\n      sload\n        /* \"main.sol\":5248:5290  loans[_poolId].startTime < block.timestamp */\n      lt\n        /* \"main.sol\":5241:5290  return loans[_poolId].startTime < block.timestamp */\n      swap1\n      pop\n        /* \"main.sol\":5168:5297  function _started(uint256 _poolId) internal view returns (bool){... */\n      swap2\n      swap1\n      pop\n      jump\t// out\n        /* \"main.sol\":4518:5031  function _calculateLoanValue(uint256 _poolId) internal view returns (uint256){... */\n    tag_102:\n        /* \"main.sol\":4587:4594  uint256 */\n      0x00\n        /* \"main.sol\":4605:4621  Loan memory loan */\n      dup1\n        /* \"main.sol\":4624:4629  loans */\n      0x01\n        /* \"main.sol\":4624:4638  loans[_poolId] */\n      0x00\n        /* \"main.sol\":4630:4637  _poolId */\n      dup5\n        /* \"main.sol\":4624:4638  loans[_poolId] */\n      dup2\n      mstore\n      0x20\n      add\n      swap1\n      dup2\n      mstore\n      0x20\n      add\n      0x00\n      keccak256\n        /* \"main.sol\":4605:4638  Loan memory loan = loans[_poolId] */\n      mload(0x40)\n      dup1\n      0x0100\n      add\n      0x40\n      mstore\n      swap1\n      dup2\n      0x00\n      dup3\n      add\n      0x00\n      swap1\n      sload\n      swap1\n      0x0100\n      exp\n      swap1\n      div\n      0xffffffffffffffffffffffffffffffffffffffff\n      and\n      0xffffffffffffffffffffffffffffffffffffffff\n      and\n      0xffffffffffffffffffffffffffffffffffffffff\n      and\n      dup2\n      mstore\n      0x20\n      add\n      0x01\n      dup3\n      add\n      0x00\n      swap1\n      sload\n      swap1\n      0x0100\n      exp\n      swap1\n      div\n      0xffffffffffffffffffffffffffffffffffffffff\n      and\n      0xffffffffffffffffffffffffffffffffffffffff\n      and\n      0xffffffffffffffffffffffffffffffffffffffff\n      and\n      dup2\n      mstore\n      0x20\n      add\n      0x02\n      dup3\n      add\n      0x00\n      swap1\n      sload\n      swap1\n      0x0100\n      exp\n      swap1\n      div\n      0xffffffffffffffffffffffffffffffffffffffff\n      and\n      0xffffffffffffffffffffffffffffffffffffffff\n      and\n      0xffffffffffffffffffffffffffffffffffffffff\n      and\n      dup2\n      mstore\n      0x20\n      add\n      0x03\n      dup3\n      add\n      sload\n      dup2\n      mstore\n      0x20\n      add\n      0x04\n      dup3\n      add\n      sload\n      dup2\n      mstore\n      0x20\n      add\n      0x05\n      dup3\n      add\n      sload\n      dup2\n      mstore\n      0x20\n      add\n      0x06\n      dup3\n      add\n      sload\n      dup2\n      mstore\n      0x20\n      add\n      0x07\n      dup3\n      add\n      sload\n      dup2\n      mstore\n      pop\n      pop\n      swap1\n      pop\n        /* \"main.sol\":4648:4668  Bid memory latestBid */\n      0x00\n        /* \"main.sol\":4671:4675  bids */\n      0x02\n        /* \"main.sol\":4671:4684  bids[_poolId] */\n      0x00\n        /* \"main.sol\":4676:4683  _poolId */\n      dup6\n        /* \"main.sol\":4671:4684  bids[_poolId] */\n      dup2\n      mstore\n      0x20\n      add\n      swap1\n      dup2\n      mstore\n      0x20\n      add\n      0x00\n      keccak256\n        /* \"main.sol\":4671:4698  bids[_poolId][loan.numBids] */\n      0x00\n        /* \"main.sol\":4685:4689  loan */\n      dup4\n        /* \"main.sol\":4685:4697  loan.numBids */\n      0xe0\n      add\n      mload\n        /* \"main.sol\":4671:4698  bids[_poolId][loan.numBids] */\n      dup2\n      mstore\n      0x20\n      add\n      swap1\n      dup2\n      mstore\n      0x20\n      add\n      0x00\n      keccak256\n        /* \"main.sol\":4648:4698  Bid memory latestBid = bids[_poolId][loan.numBids] */\n      mload(0x40)\n      dup1\n      0x60\n      add\n      0x40\n      mstore\n      swap1\n      dup2\n      0x00\n      dup3\n      add\n      sload\n      dup2\n      mstore\n      0x20\n      add\n      0x01\n      dup3\n      add\n      sload\n      dup2\n      mstore\n      0x20\n      add\n      0x02\n      dup3\n      add\n      0x00\n      swap1\n      sload\n      swap1\n      0x0100\n      exp\n      swap1\n      div\n      0xffffffffffffffffffffffffffffffffffffffff\n      and\n      0xffffffffffffffffffffffffffffffffffffffff\n      and\n      0xffffffffffffffffffffffffffffffffffffffff\n      and\n      dup2\n      mstore\n      pop\n      pop\n      swap1\n      pop\n        /* \"main.sol\":4708:4727  uint256 timeElapsed */\n      0x00\n        /* \"main.sol\":4740:4755  _ended(_poolId) */\n      tag_146\n        /* \"main.sol\":4747:4754  _poolId */\n      dup6\n        /* \"main.sol\":4740:4746  _ended */\n      tag_56\n        /* \"main.sol\":4740:4755  _ended(_poolId) */\n      jump\t// in\n    tag_146:\n        /* \"main.sol\":4737:4909  if(_ended(_poolId)){... */\n      iszero\n      tag_147\n      jumpi\n        /* \"main.sol\":4805:4809  loan */\n      dup3\n        /* \"main.sol\":4805:4817  loan.endTime */\n      0xa0\n      add\n      mload\n        /* \"main.sol\":4785:4794  latestBid */\n      dup3\n        /* \"main.sol\":4785:4802  latestBid.bidTime */\n      0x00\n      add\n      mload\n        /* \"main.sol\":4785:4817  latestBid.bidTime - loan.endTime */\n      tag_148\n      swap2\n      swap1\n      tag_112\n      jump\t// in\n    tag_148:\n        /* \"main.sol\":4770:4817  timeElapsed =  latestBid.bidTime - loan.endTime */\n      swap1\n      pop\n        /* \"main.sol\":4737:4909  if(_ended(_poolId)){... */\n      jump(tag_149)\n    tag_147:\n        /* \"main.sol\":4883:4898  block.timestamp */\n      timestamp\n        /* \"main.sol\":4863:4872  latestBid */\n      dup3\n        /* \"main.sol\":4863:4880  latestBid.bidTime */\n      0x00\n      add\n      mload\n        /* \"main.sol\":4863:4898  latestBid.bidTime - block.timestamp */\n      tag_150\n      swap2\n      swap1\n      tag_112\n      jump\t// in\n    tag_150:\n        /* \"main.sol\":4848:4898  timeElapsed =  latestBid.bidTime - block.timestamp */\n      swap1\n      pop\n        /* \"main.sol\":4737:4909  if(_ended(_poolId)){... */\n    tag_149:\n        /* \"main.sol\":960:972  60*60*24*365 */\n      0x01e13380\n        /* \"main.sol\":4991:5002  timeElapsed */\n      dup2\n        /* \"main.sol\":4980:4988  10 ** 18 */\n      0x0de0b6b3a7640000\n        /* \"main.sol\":4969:4973  loan */\n      dup6\n        /* \"main.sol\":4969:4977  loan.apr */\n      0xc0\n      add\n      mload\n        /* \"main.sol\":4947:4956  latestBid */\n      dup6\n        /* \"main.sol\":4947:4966  latestBid.bidAmount */\n      0x20\n      add\n      mload\n        /* \"main.sol\":4947:4977  latestBid.bidAmount * loan.apr */\n      tag_151\n      swap2\n      swap1\n      tag_152\n      jump\t// in\n    tag_151:\n        /* \"main.sol\":4947:4988  latestBid.bidAmount * loan.apr / 10 ** 18 */\n      tag_153\n      swap2\n      swap1\n      tag_154\n      jump\t// in\n    tag_153:\n        /* \"main.sol\":4947:5002  latestBid.bidAmount * loan.apr / 10 ** 18 * timeElapsed */\n      tag_155\n      swap2\n      swap1\n      tag_152\n      jump\t// in\n    tag_155:\n        /* \"main.sol\":4947:5024  latestBid.bidAmount * loan.apr / 10 ** 18 * timeElapsed / SECONDS_IN_ONE_YEAR */\n      tag_156\n      swap2\n      swap1\n      tag_154\n      jump\t// in\n    tag_156:\n        /* \"main.sol\":4925:4934  latestBid */\n      dup3\n        /* \"main.sol\":4925:4944  latestBid.bidAmount */\n      0x20\n      add\n      mload\n        /* \"main.sol\":4925:5024  latestBid.bidAmount + latestBid.bidAmount * loan.apr / 10 ** 18 * timeElapsed / SECONDS_IN_ONE_YEAR */\n      tag_157\n      swap2\n      swap1\n      tag_100\n      jump\t// in\n    tag_157:\n        /* \"main.sol\":4918:5024  return latestBid.bidAmount + latestBid.bidAmount * loan.apr / 10 ** 18 * timeElapsed / SECONDS_IN_ONE_YEAR */\n      swap4\n      pop\n      pop\n      pop\n      pop\n        /* \"main.sol\":4518:5031  function _calculateLoanValue(uint256 _poolId) internal view returns (uint256){... */\n      swap2\n      swap1\n      pop\n      jump\t// out\n    tag_77:\n      mload(0x40)\n      dup1\n      0x0100\n      add\n      0x40\n      mstore\n      dup1\n      and(0xffffffffffffffffffffffffffffffffffffffff, 0x00)\n      dup2\n      mstore\n      0x20\n      add\n      and(0xffffffffffffffffffffffffffffffffffffffff, 0x00)\n      dup2\n      mstore\n      0x20\n      add\n      and(0xffffffffffffffffffffffffffffffffffffffff, 0x00)\n      dup2\n      mstore\n      0x20\n      add\n      0x00\n      dup2\n      mstore\n      0x20\n      add\n      0x00\n      dup2\n      mstore\n      0x20\n      add\n      0x00\n      dup2\n      mstore\n      0x20\n      add\n      0x00\n      dup2\n      mstore\n      0x20\n      add\n      0x00\n      dup2\n      mstore\n      pop\n      swap1\n      jump\t// out\n        /* \"#utility.yul\":7:84   */\n    tag_158:\n        /* \"#utility.yul\":44:51   */\n      0x00\n        /* \"#utility.yul\":73:78   */\n      dup2\n        /* \"#utility.yul\":62:78   */\n      swap1\n      pop\n        /* \"#utility.yul\":7:84   */\n      swap2\n      swap1\n      pop\n      jump\t// out\n        /* \"#utility.yul\":90:208   */\n    tag_159:\n        /* \"#utility.yul\":177:201   */\n      tag_197\n        /* \"#utility.yul\":195:200   */\n      dup2\n        /* \"#utility.yul\":177:201   */\n      tag_158\n      jump\t// in\n    tag_197:\n        /* \"#utility.yul\":172:175   */\n      dup3\n        /* \"#utility.yul\":165:202   */\n      mstore\n        /* \"#utility.yul\":90:208   */\n      pop\n      pop\n      jump\t// out\n        /* \"#utility.yul\":214:436   */\n    tag_17:\n        /* \"#utility.yul\":307:311   */\n      0x00\n        /* \"#utility.yul\":345:347   */\n      0x20\n        /* \"#utility.yul\":334:343   */\n      dup3\n        /* \"#utility.yul\":330:348   */\n      add\n        /* \"#utility.yul\":322:348   */\n      swap1\n      pop\n        /* \"#utility.yul\":358:429   */\n      tag_199\n        /* \"#utility.yul\":426:427   */\n      0x00\n        /* \"#utility.yul\":415:424   */\n      dup4\n        /* \"#utility.yul\":411:428   */\n      add\n        /* \"#utility.yul\":402:408   */\n      dup5\n        /* \"#utility.yul\":358:429   */\n      tag_159\n      jump\t// in\n    tag_199:\n        /* \"#utility.yul\":214:436   */\n      swap3\n      swap2\n      pop\n      pop\n      jump\t// out\n        /* \"#utility.yul\":523:640   */\n    tag_161:\n        /* \"#utility.yul\":632:633   */\n      0x00\n        /* \"#utility.yul\":629:630   */\n      dup1\n        /* \"#utility.yul\":622:634   */\n      revert\n        /* \"#utility.yul\":769:891   */\n    tag_163:\n        /* \"#utility.yul\":842:866   */\n      tag_204\n        /* \"#utility.yul\":860:865   */\n      dup2\n        /* \"#utility.yul\":842:866   */\n      tag_158\n      jump\t// in\n    tag_204:\n        /* \"#utility.yul\":835:840   */\n      dup2\n        /* \"#utility.yul\":832:867   */\n      eq\n        /* \"#utility.yul\":822:885   */\n      tag_205\n      jumpi\n        /* \"#utility.yul\":881:882   */\n      0x00\n        /* \"#utility.yul\":878:879   */\n      dup1\n        /* \"#utility.yul\":871:883   */\n      revert\n        /* \"#utility.yul\":822:885   */\n    tag_205:\n        /* \"#utility.yul\":769:891   */\n      pop\n      jump\t// out\n        /* \"#utility.yul\":897:1036   */\n    tag_164:\n        /* \"#utility.yul\":943:948   */\n      0x00\n        /* \"#utility.yul\":981:987   */\n      dup2\n        /* \"#utility.yul\":968:988   */\n      calldataload\n        /* \"#utility.yul\":959:988   */\n      swap1\n      pop\n        /* \"#utility.yul\":997:1030   */\n      tag_207\n        /* \"#utility.yul\":1024:1029   */\n      dup2\n        /* \"#utility.yul\":997:1030   */\n      tag_163\n      jump\t// in\n    tag_207:\n        /* \"#utility.yul\":897:1036   */\n      swap3\n      swap2\n      pop\n      pop\n      jump\t// out\n        /* \"#utility.yul\":1042:1371   */\n    tag_20:\n        /* \"#utility.yul\":1101:1107   */\n      0x00\n        /* \"#utility.yul\":1150:1152   */\n      0x20\n        /* \"#utility.yul\":1138:1147   */\n      dup3\n        /* \"#utility.yul\":1129:1136   */\n      dup5\n        /* \"#utility.yul\":1125:1148   */\n      sub\n        /* \"#utility.yul\":1121:1153   */\n      slt\n        /* \"#utility.yul\":1118:1237   */\n      iszero\n      tag_209\n      jumpi\n        /* \"#utility.yul\":1156:1235   */\n      tag_210\n      tag_161\n      jump\t// in\n    tag_210:\n        /* \"#utility.yul\":1118:1237   */\n    tag_209:\n        /* \"#utility.yul\":1276:1277   */\n      0x00\n        /* \"#utility.yul\":1301:1354   */\n      tag_211\n        /* \"#utility.yul\":1346:1353   */\n      dup5\n        /* \"#utility.yul\":1337:1343   */\n      dup3\n        /* \"#utility.yul\":1326:1335   */\n      dup6\n        /* \"#utility.yul\":1322:1344   */\n      add\n        /* \"#utility.yul\":1301:1354   */\n      tag_164\n      jump\t// in\n    tag_211:\n        /* \"#utility.yul\":1291:1354   */\n      swap2\n      pop\n        /* \"#utility.yul\":1247:1364   */\n      pop\n        /* \"#utility.yul\":1042:1371   */\n      swap3\n      swap2\n      pop\n      pop\n      jump\t// out\n        /* \"#utility.yul\":1377:1851   */\n    tag_30:\n        /* \"#utility.yul\":1445:1451   */\n      0x00\n        /* \"#utility.yul\":1453:1459   */\n      dup1\n        /* \"#utility.yul\":1502:1504   */\n      0x40\n        /* \"#utility.yul\":1490:1499   */\n      dup4\n        /* \"#utility.yul\":1481:1488   */\n      dup6\n        /* \"#utility.yul\":1477:1500   */\n      sub\n        /* \"#utility.yul\":1473:1505   */\n      slt\n        /* \"#utility.yul\":1470:1589   */\n      iszero\n      tag_213\n      jumpi\n        /* \"#utility.yul\":1508:1587   */\n      tag_214\n      tag_161\n      jump\t// in\n    tag_214:\n        /* \"#utility.yul\":1470:1589   */\n    tag_213:\n        /* \"#utility.yul\":1628:1629   */\n      0x00\n        /* \"#utility.yul\":1653:1706   */\n      tag_215\n        /* \"#utility.yul\":1698:1705   */\n      dup6\n        /* \"#utility.yul\":1689:1695   */\n      dup3\n        /* \"#utility.yul\":1678:1687   */\n      dup7\n        /* \"#utility.yul\":1674:1696   */\n      add\n        /* \"#utility.yul\":1653:1706   */\n      tag_164\n      jump\t// in\n    tag_215:\n        /* \"#utility.yul\":1643:1706   */\n      swap3\n      pop\n        /* \"#utility.yul\":1599:1716   */\n      pop\n        /* \"#utility.yul\":1755:1757   */\n      0x20\n        /* \"#utility.yul\":1781:1834   */\n      tag_216\n        /* \"#utility.yul\":1826:1833   */\n      dup6\n        /* \"#utility.yul\":1817:1823   */\n      dup3\n        /* \"#utility.yul\":1806:1815   */\n      dup7\n        /* \"#utility.yul\":1802:1824   */\n      add\n        /* \"#utility.yul\":1781:1834   */\n      tag_164\n      jump\t// in\n    tag_216:\n        /* \"#utility.yul\":1771:1834   */\n      swap2\n      pop\n        /* \"#utility.yul\":1726:1844   */\n      pop\n        /* \"#utility.yul\":1377:1851   */\n      swap3\n      pop\n      swap3\n      swap1\n      pop\n      jump\t// out\n        /* \"#utility.yul\":1857:1983   */\n    tag_165:\n        /* \"#utility.yul\":1894:1901   */\n      0x00\n        /* \"#utility.yul\":1934:1976   */\n      0xffffffffffffffffffffffffffffffffffffffff\n        /* \"#utility.yul\":1927:1932   */\n      dup3\n        /* \"#utility.yul\":1923:1977   */\n      and\n        /* \"#utility.yul\":1912:1977   */\n      swap1\n      pop\n        /* \"#utility.yul\":1857:1983   */\n      swap2\n      swap1\n      pop\n      jump\t// out\n        /* \"#utility.yul\":1989:2085   */\n    tag_166:\n        /* \"#utility.yul\":2026:2033   */\n      0x00\n        /* \"#utility.yul\":2055:2079   */\n      tag_219\n        /* \"#utility.yul\":2073:2078   */\n      dup3\n        /* \"#utility.yul\":2055:2079   */\n      tag_165\n      jump\t// in\n    tag_219:\n        /* \"#utility.yul\":2044:2079   */\n      swap1\n      pop\n        /* \"#utility.yul\":1989:2085   */\n      swap2\n      swap1\n      pop\n      jump\t// out\n        /* \"#utility.yul\":2091:2209   */\n    tag_167:\n        /* \"#utility.yul\":2178:2202   */\n      tag_221\n        /* \"#utility.yul\":2196:2201   */\n      dup2\n        /* \"#utility.yul\":2178:2202   */\n      tag_166\n      jump\t// in\n    tag_221:\n        /* \"#utility.yul\":2173:2176   */\n      dup3\n        /* \"#utility.yul\":2166:2203   */\n      mstore\n        /* \"#utility.yul\":2091:2209   */\n      pop\n      pop\n      jump\t// out\n        /* \"#utility.yul\":2215:2657   */\n    tag_39:\n        /* \"#utility.yul\":2364:2368   */\n      0x00\n        /* \"#utility.yul\":2402:2404   */\n      0x60\n        /* \"#utility.yul\":2391:2400   */\n      dup3\n        /* \"#utility.yul\":2387:2405   */\n      add\n        /* \"#utility.yul\":2379:2405   */\n      swap1\n      pop\n        /* \"#utility.yul\":2415:2486   */\n      tag_223\n        /* \"#utility.yul\":2483:2484   */\n      0x00\n        /* \"#utility.yul\":2472:2481   */\n      dup4\n        /* \"#utility.yul\":2468:2485   */\n      add\n        /* \"#utility.yul\":2459:2465   */\n      dup7\n        /* \"#utility.yul\":2415:2486   */\n      tag_159\n      jump\t// in\n    tag_223:\n        /* \"#utility.yul\":2496:2568   */\n      tag_224\n        /* \"#utility.yul\":2564:2566   */\n      0x20\n        /* \"#utility.yul\":2553:2562   */\n      dup4\n        /* \"#utility.yul\":2549:2567   */\n      add\n        /* \"#utility.yul\":2540:2546   */\n      dup6\n        /* \"#utility.yul\":2496:2568   */\n      tag_159\n      jump\t// in\n    tag_224:\n        /* \"#utility.yul\":2578:2650   */\n      tag_225\n        /* \"#utility.yul\":2646:2648   */\n      0x40\n        /* \"#utility.yul\":2635:2644   */\n      dup4\n        /* \"#utility.yul\":2631:2649   */\n      add\n        /* \"#utility.yul\":2622:2628   */\n      dup5\n        /* \"#utility.yul\":2578:2650   */\n      tag_167\n      jump\t// in\n    tag_225:\n        /* \"#utility.yul\":2215:2657   */\n      swap5\n      swap4\n      pop\n      pop\n      pop\n      pop\n      jump\t// out\n        /* \"#utility.yul\":2663:2885   */\n    tag_44:\n        /* \"#utility.yul\":2756:2760   */\n      0x00\n        /* \"#utility.yul\":2794:2796   */\n      0x20\n        /* \"#utility.yul\":2783:2792   */\n      dup3\n        /* \"#utility.yul\":2779:2797   */\n      add\n        /* \"#utility.yul\":2771:2797   */\n      swap1\n      pop\n        /* \"#utility.yul\":2807:2878   */\n      tag_227\n        /* \"#utility.yul\":2875:2876   */\n      0x00\n        /* \"#utility.yul\":2864:2873   */\n      dup4\n        /* \"#utility.yul\":2860:2877   */\n      add\n        /* \"#utility.yul\":2851:2857   */\n      dup5\n        /* \"#utility.yul\":2807:2878   */\n      tag_167\n      jump\t// in\n    tag_227:\n        /* \"#utility.yul\":2663:2885   */\n      swap3\n      swap2\n      pop\n      pop\n      jump\t// out\n        /* \"#utility.yul\":2891:3888   */\n    tag_49:\n        /* \"#utility.yul\":3180:3184   */\n      0x00\n        /* \"#utility.yul\":3218:3221   */\n      0x0100\n        /* \"#utility.yul\":3207:3216   */\n      dup3\n        /* \"#utility.yul\":3203:3222   */\n      add\n        /* \"#utility.yul\":3195:3222   */\n      swap1\n      pop\n        /* \"#utility.yul\":3232:3303   */\n      tag_229\n        /* \"#utility.yul\":3300:3301   */\n      0x00\n        /* \"#utility.yul\":3289:3298   */\n      dup4\n        /* \"#utility.yul\":3285:3302   */\n      add\n        /* \"#utility.yul\":3276:3282   */\n      dup12\n        /* \"#utility.yul\":3232:3303   */\n      tag_167\n      jump\t// in\n    tag_229:\n        /* \"#utility.yul\":3313:3385   */\n      tag_230\n        /* \"#utility.yul\":3381:3383   */\n      0x20\n        /* \"#utility.yul\":3370:3379   */\n      dup4\n        /* \"#utility.yul\":3366:3384   */\n      add\n        /* \"#utility.yul\":3357:3363   */\n      dup11\n        /* \"#utility.yul\":3313:3385   */\n      tag_167\n      jump\t// in\n    tag_230:\n        /* \"#utility.yul\":3395:3467   */\n      tag_231\n        /* \"#utility.yul\":3463:3465   */\n      0x40\n        /* \"#utility.yul\":3452:3461   */\n      dup4\n        /* \"#utility.yul\":3448:3466   */\n      add\n        /* \"#utility.yul\":3439:3445   */\n      dup10\n        /* \"#utility.yul\":3395:3467   */\n      tag_167\n      jump\t// in\n    tag_231:\n        /* \"#utility.yul\":3477:3549   */\n      tag_232\n        /* \"#utility.yul\":3545:3547   */\n      0x60\n        /* \"#utility.yul\":3534:3543   */\n      dup4\n        /* \"#utility.yul\":3530:3548   */\n      add\n        /* \"#utility.yul\":3521:3527   */\n      dup9\n        /* \"#utility.yul\":3477:3549   */\n      tag_159\n      jump\t// in\n    tag_232:\n        /* \"#utility.yul\":3559:3632   */\n      tag_233\n        /* \"#utility.yul\":3627:3630   */\n      0x80\n        /* \"#utility.yul\":3616:3625   */\n      dup4\n        /* \"#utility.yul\":3612:3631   */\n      add\n        /* \"#utility.yul\":3603:3609   */\n      dup8\n        /* \"#utility.yul\":3559:3632   */\n      tag_159\n      jump\t// in\n    tag_233:\n        /* \"#utility.yul\":3642:3715   */\n      tag_234\n        /* \"#utility.yul\":3710:3713   */\n      0xa0\n        /* \"#utility.yul\":3699:3708   */\n      dup4\n        /* \"#utility.yul\":3695:3714   */\n      add\n        /* \"#utility.yul\":3686:3692   */\n      dup7\n        /* \"#utility.yul\":3642:3715   */\n      tag_159\n      jump\t// in\n    tag_234:\n        /* \"#utility.yul\":3725:3798   */\n      tag_235\n        /* \"#utility.yul\":3793:3796   */\n      0xc0\n        /* \"#utility.yul\":3782:3791   */\n      dup4\n        /* \"#utility.yul\":3778:3797   */\n      add\n        /* \"#utility.yul\":3769:3775   */\n      dup6\n        /* \"#utility.yul\":3725:3798   */\n      tag_159\n      jump\t// in\n    tag_235:\n        /* \"#utility.yul\":3808:3881   */\n      tag_236\n        /* \"#utility.yul\":3876:3879   */\n      0xe0\n        /* \"#utility.yul\":3865:3874   */\n      dup4\n        /* \"#utility.yul\":3861:3880   */\n      add\n        /* \"#utility.yul\":3852:3858   */\n      dup5\n        /* \"#utility.yul\":3808:3881   */\n      tag_159\n      jump\t// in\n    tag_236:\n        /* \"#utility.yul\":2891:3888   */\n      swap10\n      swap9\n      pop\n      pop\n      pop\n      pop\n      pop\n      pop\n      pop\n      pop\n      pop\n      jump\t// out\n        /* \"#utility.yul\":3894:4016   */\n    tag_168:\n        /* \"#utility.yul\":3967:3991   */\n      tag_238\n        /* \"#utility.yul\":3985:3990   */\n      dup2\n        /* \"#utility.yul\":3967:3991   */\n      tag_166\n      jump\t// in\n    tag_238:\n        /* \"#utility.yul\":3960:3965   */\n      dup2\n        /* \"#utility.yul\":3957:3992   */\n      eq\n        /* \"#utility.yul\":3947:4010   */\n      tag_239\n      jumpi\n        /* \"#utility.yul\":4006:4007   */\n      0x00\n        /* \"#utility.yul\":4003:4004   */\n      dup1\n        /* \"#utility.yul\":3996:4008   */\n      revert\n        /* \"#utility.yul\":3947:4010   */\n    tag_239:\n        /* \"#utility.yul\":3894:4016   */\n      pop\n      jump\t// out\n        /* \"#utility.yul\":4022:4161   */\n    tag_169:\n        /* \"#utility.yul\":4068:4073   */\n      0x00\n        /* \"#utility.yul\":4106:4112   */\n      dup2\n        /* \"#utility.yul\":4093:4113   */\n      calldataload\n        /* \"#utility.yul\":4084:4113   */\n      swap1\n      pop\n        /* \"#utility.yul\":4122:4155   */\n      tag_241\n        /* \"#utility.yul\":4149:4154   */\n      dup2\n        /* \"#utility.yul\":4122:4155   */\n      tag_168\n      jump\t// in\n    tag_241:\n        /* \"#utility.yul\":4022:4161   */\n      swap3\n      swap2\n      pop\n      pop\n      jump\t// out\n        /* \"#utility.yul\":4167:5224   */\n    tag_52:\n        /* \"#utility.yul\":4271:4277   */\n      0x00\n        /* \"#utility.yul\":4279:4285   */\n      dup1\n        /* \"#utility.yul\":4287:4293   */\n      0x00\n        /* \"#utility.yul\":4295:4301   */\n      dup1\n        /* \"#utility.yul\":4303:4309   */\n      0x00\n        /* \"#utility.yul\":4311:4317   */\n      dup1\n        /* \"#utility.yul\":4360:4363   */\n      0xc0\n        /* \"#utility.yul\":4348:4357   */\n      dup8\n        /* \"#utility.yul\":4339:4346   */\n      dup10\n        /* \"#utility.yul\":4335:4358   */\n      sub\n        /* \"#utility.yul\":4331:4364   */\n      slt\n        /* \"#utility.yul\":4328:4448   */\n      iszero\n      tag_243\n      jumpi\n        /* \"#utility.yul\":4367:4446   */\n      tag_244\n      tag_161\n      jump\t// in\n    tag_244:\n        /* \"#utility.yul\":4328:4448   */\n    tag_243:\n        /* \"#utility.yul\":4487:4488   */\n      0x00\n        /* \"#utility.yul\":4512:4565   */\n      tag_245\n        /* \"#utility.yul\":4557:4564   */\n      dup10\n        /* \"#utility.yul\":4548:4554   */\n      dup3\n        /* \"#utility.yul\":4537:4546   */\n      dup11\n        /* \"#utility.yul\":4533:4555   */\n      add\n        /* \"#utility.yul\":4512:4565   */\n      tag_169\n      jump\t// in\n    tag_245:\n        /* \"#utility.yul\":4502:4565   */\n      swap7\n      pop\n        /* \"#utility.yul\":4458:4575   */\n      pop\n        /* \"#utility.yul\":4614:4616   */\n      0x20\n        /* \"#utility.yul\":4640:4693   */\n      tag_246\n        /* \"#utility.yul\":4685:4692   */\n      dup10\n        /* \"#utility.yul\":4676:4682   */\n      dup3\n        /* \"#utility.yul\":4665:4674   */\n      dup11\n        /* \"#utility.yul\":4661:4683   */\n      add\n        /* \"#utility.yul\":4640:4693   */\n      tag_169\n      jump\t// in\n    tag_246:\n        /* \"#utility.yul\":4630:4693   */\n      swap6\n      pop\n        /* \"#utility.yul\":4585:4703   */\n      pop\n        /* \"#utility.yul\":4742:4744   */\n      0x40\n        /* \"#utility.yul\":4768:4821   */\n      tag_247\n        /* \"#utility.yul\":4813:4820   */\n      dup10\n        /* \"#utility.yul\":4804:4810   */\n      dup3\n        /* \"#utility.yul\":4793:4802   */\n      dup11\n        /* \"#utility.yul\":4789:4811   */\n      add\n        /* \"#utility.yul\":4768:4821   */\n      tag_164\n      jump\t// in\n    tag_247:\n        /* \"#utility.yul\":4758:4821   */\n      swap5\n      pop\n        /* \"#utility.yul\":4713:4831   */\n      pop\n        /* \"#utility.yul\":4870:4872   */\n      0x60\n        /* \"#utility.yul\":4896:4949   */\n      tag_248\n        /* \"#utility.yul\":4941:4948   */\n      dup10\n        /* \"#utility.yul\":4932:4938   */\n      dup3\n        /* \"#utility.yul\":4921:4930   */\n      dup11\n        /* \"#utility.yul\":4917:4939   */\n      add\n        /* \"#utility.yul\":4896:4949   */\n      tag_164\n      jump\t// in\n    tag_248:\n        /* \"#utility.yul\":4886:4949   */\n      swap4\n      pop\n        /* \"#utility.yul\":4841:4959   */\n      pop\n        /* \"#utility.yul\":4998:5001   */\n      0x80\n        /* \"#utility.yul\":5025:5078   */\n      tag_249\n        /* \"#utility.yul\":5070:5077   */\n      dup10\n        /* \"#utility.yul\":5061:5067   */\n      dup3\n        /* \"#utility.yul\":5050:5059   */\n      dup11\n        /* \"#utility.yul\":5046:5068   */\n      add\n        /* \"#utility.yul\":5025:5078   */\n      tag_164\n      jump\t// in\n    tag_249:\n        /* \"#utility.yul\":5015:5078   */\n      swap3\n      pop\n        /* \"#utility.yul\":4969:5088   */\n      pop\n        /* \"#utility.yul\":5127:5130   */\n      0xa0\n        /* \"#utility.yul\":5154:5207   */\n      tag_250\n        /* \"#utility.yul\":5199:5206   */\n      dup10\n        /* \"#utility.yul\":5190:5196   */\n      dup3\n        /* \"#utility.yul\":5179:5188   */\n      dup11\n        /* \"#utility.yul\":5175:5197   */\n      add\n        /* \"#utility.yul\":5154:5207   */\n      tag_164\n      jump\t// in\n    tag_250:\n        /* \"#utility.yul\":5144:5207   */\n      swap2\n      pop\n        /* \"#utility.yul\":5098:5217   */\n      pop\n        /* \"#utility.yul\":4167:5224   */\n      swap3\n      swap6\n      pop\n      swap3\n      swap6\n      pop\n      swap3\n      swap6\n      jump\t// out\n        /* \"#utility.yul\":5230:5399   */\n    tag_170:\n        /* \"#utility.yul\":5314:5325   */\n      0x00\n        /* \"#utility.yul\":5348:5354   */\n      dup3\n        /* \"#utility.yul\":5343:5346   */\n      dup3\n        /* \"#utility.yul\":5336:5355   */\n      mstore\n        /* \"#utility.yul\":5388:5392   */\n      0x20\n        /* \"#utility.yul\":5383:5386   */\n      dup3\n        /* \"#utility.yul\":5379:5393   */\n      add\n        /* \"#utility.yul\":5364:5393   */\n      swap1\n      pop\n        /* \"#utility.yul\":5230:5399   */\n      swap3\n      swap2\n      pop\n      pop\n      jump\t// out\n        /* \"#utility.yul\":5405:5574   */\n    tag_171:\n        /* \"#utility.yul\":5545:5566   */\n      0x4c414e3a206c6f616e206e6f7420656e64656400000000000000000000000000\n        /* \"#utility.yul\":5541:5542   */\n      0x00\n        /* \"#utility.yul\":5533:5539   */\n      dup3\n        /* \"#utility.yul\":5529:5543   */\n      add\n        /* \"#utility.yul\":5522:5567   */\n      mstore\n        /* \"#utility.yul\":5405:5574   */\n      pop\n      jump\t// out\n        /* \"#utility.yul\":5580:5946   */\n    tag_172:\n        /* \"#utility.yul\":5722:5725   */\n      0x00\n        /* \"#utility.yul\":5743:5810   */\n      tag_254\n        /* \"#utility.yul\":5807:5809   */\n      0x13\n        /* \"#utility.yul\":5802:5805   */\n      dup4\n        /* \"#utility.yul\":5743:5810   */\n      tag_170\n      jump\t// in\n    tag_254:\n        /* \"#utility.yul\":5736:5810   */\n      swap2\n      pop\n        /* \"#utility.yul\":5819:5912   */\n      tag_255\n        /* \"#utility.yul\":5908:5911   */\n      dup3\n        /* \"#utility.yul\":5819:5912   */\n      tag_171\n      jump\t// in\n    tag_255:\n        /* \"#utility.yul\":5937:5939   */\n      0x20\n        /* \"#utility.yul\":5932:5935   */\n      dup3\n        /* \"#utility.yul\":5928:5940   */\n      add\n        /* \"#utility.yul\":5921:5940   */\n      swap1\n      pop\n        /* \"#utility.yul\":5580:5946   */\n      swap2\n      swap1\n      pop\n      jump\t// out\n        /* \"#utility.yul\":5952:6371   */\n    tag_59:\n        /* \"#utility.yul\":6118:6122   */\n      0x00\n        /* \"#utility.yul\":6156:6158   */\n      0x20\n        /* \"#utility.yul\":6145:6154   */\n      dup3\n        /* \"#utility.yul\":6141:6159   */\n      add\n        /* \"#utility.yul\":6133:6159   */\n      swap1\n      pop\n        /* \"#utility.yul\":6205:6214   */\n      dup2\n        /* \"#utility.yul\":6199:6203   */\n      dup2\n        /* \"#utility.yul\":6195:6215   */\n      sub\n        /* \"#utility.yul\":6191:6192   */\n      0x00\n        /* \"#utility.yul\":6180:6189   */\n      dup4\n        /* \"#utility.yul\":6176:6193   */\n      add\n        /* \"#utility.yul\":6169:6216   */\n      mstore\n        /* \"#utility.yul\":6233:6364   */\n      tag_257\n        /* \"#utility.yul\":6359:6363   */\n      dup2\n        /* \"#utility.yul\":6233:6364   */\n      tag_172\n      jump\t// in\n    tag_257:\n        /* \"#utility.yul\":6225:6364   */\n      swap1\n      pop\n        /* \"#utility.yul\":5952:6371   */\n      swap2\n      swap1\n      pop\n      jump\t// out\n        /* \"#utility.yul\":6377:6549   */\n    tag_173:\n        /* \"#utility.yul\":6517:6541   */\n      0x4c414e3a206e6f74206c61746573742062696464657200000000000000000000\n        /* \"#utility.yul\":6513:6514   */\n      0x00\n        /* \"#utility.yul\":6505:6511   */\n      dup3\n        /* \"#utility.yul\":6501:6515   */\n      add\n        /* \"#utility.yul\":6494:6542   */\n      mstore\n        /* \"#utility.yul\":6377:6549   */\n      pop\n      jump\t// out\n        /* \"#utility.yul\":6555:6921   */\n    tag_174:\n        /* \"#utility.yul\":6697:6700   */\n      0x00\n        /* \"#utility.yul\":6718:6785   */\n      tag_260\n        /* \"#utility.yul\":6782:6784   */\n      0x16\n        /* \"#utility.yul\":6777:6780   */\n      dup4\n        /* \"#utility.yul\":6718:6785   */\n      tag_170\n      jump\t// in\n    tag_260:\n        /* \"#utility.yul\":6711:6785   */\n      swap2\n      pop\n        /* \"#utility.yul\":6794:6887   */\n      tag_261\n        /* \"#utility.yul\":6883:6886   */\n      dup3\n        /* \"#utility.yul\":6794:6887   */\n      tag_173\n      jump\t// in\n    tag_261:\n        /* \"#utility.yul\":6912:6914   */\n      0x20\n        /* \"#utility.yul\":6907:6910   */\n      dup3\n        /* \"#utility.yul\":6903:6915   */\n      add\n        /* \"#utility.yul\":6896:6915   */\n      swap1\n      pop\n        /* \"#utility.yul\":6555:6921   */\n      swap2\n      swap1\n      pop\n      jump\t// out\n        /* \"#utility.yul\":6927:7346   */\n    tag_62:\n        /* \"#utility.yul\":7093:7097   */\n      0x00\n        /* \"#utility.yul\":7131:7133   */\n      0x20\n        /* \"#utility.yul\":7120:7129   */\n      dup3\n        /* \"#utility.yul\":7116:7134   */\n      add\n        /* \"#utility.yul\":7108:7134   */\n      swap1\n      pop\n        /* \"#utility.yul\":7180:7189   */\n      dup2\n        /* \"#utility.yul\":7174:7178   */\n      dup2\n        /* \"#utility.yul\":7170:7190   */\n      sub\n        /* \"#utility.yul\":7166:7167   */\n      0x00\n        /* \"#utility.yul\":7155:7164   */\n      dup4\n        /* \"#utility.yul\":7151:7168   */\n      add\n        /* \"#utility.yul\":7144:7191   */\n      mstore\n        /* \"#utility.yul\":7208:7339   */\n      tag_263\n        /* \"#utility.yul\":7334:7338   */\n      dup2\n        /* \"#utility.yul\":7208:7339   */\n      tag_174\n      jump\t// in\n    tag_263:\n        /* \"#utility.yul\":7200:7339   */\n      swap1\n      pop\n        /* \"#utility.yul\":6927:7346   */\n      swap2\n      swap1\n      pop\n      jump\t// out\n        /* \"#utility.yul\":7352:7794   */\n    tag_64:\n        /* \"#utility.yul\":7501:7505   */\n      0x00\n        /* \"#utility.yul\":7539:7541   */\n      0x60\n        /* \"#utility.yul\":7528:7537   */\n      dup3\n        /* \"#utility.yul\":7524:7542   */\n      add\n        /* \"#utility.yul\":7516:7542   */\n      swap1\n      pop\n        /* \"#utility.yul\":7552:7623   */\n      tag_265\n        /* \"#utility.yul\":7620:7621   */\n      0x00\n        /* \"#utility.yul\":7609:7618   */\n      dup4\n        /* \"#utility.yul\":7605:7622   */\n      add\n        /* \"#utility.yul\":7596:7602   */\n      dup7\n        /* \"#utility.yul\":7552:7623   */\n      tag_167\n      jump\t// in\n    tag_265:\n        /* \"#utility.yul\":7633:7705   */\n      tag_266\n        /* \"#utility.yul\":7701:7703   */\n      0x20\n        /* \"#utility.yul\":7690:7699   */\n      dup4\n        /* \"#utility.yul\":7686:7704   */\n      add\n        /* \"#utility.yul\":7677:7683   */\n      dup6\n        /* \"#utility.yul\":7633:7705   */\n      tag_167\n      jump\t// in\n    tag_266:\n        /* \"#utility.yul\":7715:7787   */\n      tag_267\n        /* \"#utility.yul\":7783:7785   */\n      0x40\n        /* \"#utility.yul\":7772:7781   */\n      dup4\n        /* \"#utility.yul\":7768:7786   */\n      add\n        /* \"#utility.yul\":7759:7765   */\n      dup5\n        /* \"#utility.yul\":7715:7787   */\n      tag_159\n      jump\t// in\n    tag_267:\n        /* \"#utility.yul\":7352:7794   */\n      swap5\n      swap4\n      pop\n      pop\n      pop\n      pop\n      jump\t// out\n        /* \"#utility.yul\":7800:7964   */\n    tag_175:\n        /* \"#utility.yul\":7940:7956   */\n      0x4c414e3a206e6f74206f776e6572000000000000000000000000000000000000\n        /* \"#utility.yul\":7936:7937   */\n      0x00\n        /* \"#utility.yul\":7928:7934   */\n      dup3\n        /* \"#utility.yul\":7924:7938   */\n      add\n        /* \"#utility.yul\":7917:7957   */\n      mstore\n        /* \"#utility.yul\":7800:7964   */\n      pop\n      jump\t// out\n        /* \"#utility.yul\":7970:8336   */\n    tag_176:\n        /* \"#utility.yul\":8112:8115   */\n      0x00\n        /* \"#utility.yul\":8133:8200   */\n      tag_270\n        /* \"#utility.yul\":8197:8199   */\n      0x0e\n        /* \"#utility.yul\":8192:8195   */\n      dup4\n        /* \"#utility.yul\":8133:8200   */\n      tag_170\n      jump\t// in\n    tag_270:\n        /* \"#utility.yul\":8126:8200   */\n      swap2\n      pop\n        /* \"#utility.yul\":8209:8302   */\n      tag_271\n        /* \"#utility.yul\":8298:8301   */\n      dup3\n        /* \"#utility.yul\":8209:8302   */\n      tag_175\n      jump\t// in\n    tag_271:\n        /* \"#utility.yul\":8327:8329   */\n      0x20\n        /* \"#utility.yul\":8322:8325   */\n      dup3\n        /* \"#utility.yul\":8318:8330   */\n      add\n        /* \"#utility.yul\":8311:8330   */\n      swap1\n      pop\n        /* \"#utility.yul\":7970:8336   */\n      swap2\n      swap1\n      pop\n      jump\t// out\n        /* \"#utility.yul\":8342:8761   */\n    tag_71:\n        /* \"#utility.yul\":8508:8512   */\n      0x00\n        /* \"#utility.yul\":8546:8548   */\n      0x20\n        /* \"#utility.yul\":8535:8544   */\n      dup3\n        /* \"#utility.yul\":8531:8549   */\n      add\n        /* \"#utility.yul\":8523:8549   */\n      swap1\n      pop\n        /* \"#utility.yul\":8595:8604   */\n      dup2\n        /* \"#utility.yul\":8589:8593   */\n      dup2\n        /* \"#utility.yul\":8585:8605   */\n      sub\n        /* \"#utility.yul\":8581:8582   */\n      0x00\n        /* \"#utility.yul\":8570:8579   */\n      dup4\n        /* \"#utility.yul\":8566:8583   */\n      add\n        /* \"#utility.yul\":8559:8606   */\n      mstore\n        /* \"#utility.yul\":8623:8754   */\n      tag_273\n        /* \"#utility.yul\":8749:8753   */\n      dup2\n        /* \"#utility.yul\":8623:8754   */\n      tag_176\n      jump\t// in\n    tag_273:\n        /* \"#utility.yul\":8615:8754   */\n      swap1\n      pop\n        /* \"#utility.yul\":8342:8761   */\n      swap2\n      swap1\n      pop\n      jump\t// out\n        /* \"#utility.yul\":8767:8937   */\n    tag_177:\n        /* \"#utility.yul\":8907:8929   */\n      0x4c414e3a20616c72656164792073746172746564000000000000000000000000\n        /* \"#utility.yul\":8903:8904   */\n      0x00\n        /* \"#utility.yul\":8895:8901   */\n      dup3\n        /* \"#utility.yul\":8891:8905   */\n      add\n        /* \"#utility.yul\":8884:8930   */\n      mstore\n        /* \"#utility.yul\":8767:8937   */\n      pop\n      jump\t// out\n        /* \"#utility.yul\":8943:9309   */\n    tag_178:\n        /* \"#utility.yul\":9085:9088   */\n      0x00\n        /* \"#utility.yul\":9106:9173   */\n      tag_276\n        /* \"#utility.yul\":9170:9172   */\n      0x14\n        /* \"#utility.yul\":9165:9168   */\n      dup4\n        /* \"#utility.yul\":9106:9173   */\n      tag_170\n      jump\t// in\n    tag_276:\n        /* \"#utility.yul\":9099:9173   */\n      swap2\n      pop\n        /* \"#utility.yul\":9182:9275   */\n      tag_277\n        /* \"#utility.yul\":9271:9274   */\n      dup3\n        /* \"#utility.yul\":9182:9275   */\n      tag_177\n      jump\t// in\n    tag_277:\n        /* \"#utility.yul\":9300:9302   */\n      0x20\n        /* \"#utility.yul\":9295:9298   */\n      dup3\n        /* \"#utility.yul\":9291:9303   */\n      add\n        /* \"#utility.yul\":9284:9303   */\n      swap1\n      pop\n        /* \"#utility.yul\":8943:9309   */\n      swap2\n      swap1\n      pop\n      jump\t// out\n        /* \"#utility.yul\":9315:9734   */\n    tag_75:\n        /* \"#utility.yul\":9481:9485   */\n      0x00\n        /* \"#utility.yul\":9519:9521   */\n      0x20\n        /* \"#utility.yul\":9508:9517   */\n      dup3\n        /* \"#utility.yul\":9504:9522   */\n      add\n        /* \"#utility.yul\":9496:9522   */\n      swap1\n      pop\n        /* \"#utility.yul\":9568:9577   */\n      dup2\n        /* \"#utility.yul\":9562:9566   */\n      dup2\n        /* \"#utility.yul\":9558:9578   */\n      sub\n        /* \"#utility.yul\":9554:9555   */\n      0x00\n        /* \"#utility.yul\":9543:9552   */\n      dup4\n        /* \"#utility.yul\":9539:9556   */\n      add\n        /* \"#utility.yul\":9532:9579   */\n      mstore\n        /* \"#utility.yul\":9596:9727   */\n      tag_279\n        /* \"#utility.yul\":9722:9726   */\n      dup2\n        /* \"#utility.yul\":9596:9727   */\n      tag_178\n      jump\t// in\n    tag_279:\n        /* \"#utility.yul\":9588:9727   */\n      swap1\n      pop\n        /* \"#utility.yul\":9315:9734   */\n      swap2\n      swap1\n      pop\n      jump\t// out\n        /* \"#utility.yul\":9740:9906   */\n    tag_179:\n        /* \"#utility.yul\":9880:9898   */\n      0x4c414e3a206e6f74207374617274656400000000000000000000000000000000\n        /* \"#utility.yul\":9876:9877   */\n      0x00\n        /* \"#utility.yul\":9868:9874   */\n      dup3\n        /* \"#utility.yul\":9864:9878   */\n      add\n        /* \"#utility.yul\":9857:9899   */\n      mstore\n        /* \"#utility.yul\":9740:9906   */\n      pop\n      jump\t// out\n        /* \"#utility.yul\":9912:10278   */\n    tag_180:\n        /* \"#utility.yul\":10054:10057   */\n      0x00\n        /* \"#utility.yul\":10075:10142   */\n      tag_282\n        /* \"#utility.yul\":10139:10141   */\n      0x10\n        /* \"#utility.yul\":10134:10137   */\n      dup4\n        /* \"#utility.yul\":10075:10142   */\n      tag_170\n      jump\t// in\n    tag_282:\n        /* \"#utility.yul\":10068:10142   */\n      swap2\n      pop\n        /* \"#utility.yul\":10151:10244   */\n      tag_283\n        /* \"#utility.yul\":10240:10243   */\n      dup3\n        /* \"#utility.yul\":10151:10244   */\n      tag_179\n      jump\t// in\n    tag_283:\n        /* \"#utility.yul\":10269:10271   */\n      0x20\n        /* \"#utility.yul\":10264:10267   */\n      dup3\n        /* \"#utility.yul\":10260:10272   */\n      add\n        /* \"#utility.yul\":10253:10272   */\n      swap1\n      pop\n        /* \"#utility.yul\":9912:10278   */\n      swap2\n      swap1\n      pop\n      jump\t// out\n        /* \"#utility.yul\":10284:10703   */\n    tag_94:\n        /* \"#utility.yul\":10450:10454   */\n      0x00\n        /* \"#utility.yul\":10488:10490   */\n      0x20\n        /* \"#utility.yul\":10477:10486   */\n      dup3\n        /* \"#utility.yul\":10473:10491   */\n      add\n        /* \"#utility.yul\":10465:10491   */\n      swap1\n      pop\n        /* \"#utility.yul\":10537:10546   */\n      dup2\n        /* \"#utility.yul\":10531:10535   */\n      dup2\n        /* \"#utility.yul\":10527:10547   */\n      sub\n        /* \"#utility.yul\":10523:10524   */\n      0x00\n        /* \"#utility.yul\":10512:10521   */\n      dup4\n        /* \"#utility.yul\":10508:10525   */\n      add\n        /* \"#utility.yul\":10501:10548   */\n      mstore\n        /* \"#utility.yul\":10565:10696   */\n      tag_285\n        /* \"#utility.yul\":10691:10695   */\n      dup2\n        /* \"#utility.yul\":10565:10696   */\n      tag_180\n      jump\t// in\n    tag_285:\n        /* \"#utility.yul\":10557:10696   */\n      swap1\n      pop\n        /* \"#utility.yul\":10284:10703   */\n      swap2\n      swap1\n      pop\n      jump\t// out\n        /* \"#utility.yul\":10709:10877   */\n    tag_181:\n        /* \"#utility.yul\":10849:10869   */\n      0x4c414e3a20616c726561647920656e6465640000000000000000000000000000\n        /* \"#utility.yul\":10845:10846   */\n      0x00\n        /* \"#utility.yul\":10837:10843   */\n      dup3\n        /* \"#utility.yul\":10833:10847   */\n      add\n        /* \"#utility.yul\":10826:10870   */\n      mstore\n        /* \"#utility.yul\":10709:10877   */\n      pop\n      jump\t// out\n        /* \"#utility.yul\":10883:11249   */\n    tag_182:\n        /* \"#utility.yul\":11025:11028   */\n      0x00\n        /* \"#utility.yul\":11046:11113   */\n      tag_288\n        /* \"#utility.yul\":11110:11112   */\n      0x12\n        /* \"#utility.yul\":11105:11108   */\n      dup4\n        /* \"#utility.yul\":11046:11113   */\n      tag_170\n      jump\t// in\n    tag_288:\n        /* \"#utility.yul\":11039:11113   */\n      swap2\n      pop\n        /* \"#utility.yul\":11122:11215   */\n      tag_289\n        /* \"#utility.yul\":11211:11214   */\n      dup3\n        /* \"#utility.yul\":11122:11215   */\n      tag_181\n      jump\t// in\n    tag_289:\n        /* \"#utility.yul\":11240:11242   */\n      0x20\n        /* \"#utility.yul\":11235:11238   */\n      dup3\n        /* \"#utility.yul\":11231:11243   */\n      add\n        /* \"#utility.yul\":11224:11243   */\n      swap1\n      pop\n        /* \"#utility.yul\":10883:11249   */\n      swap2\n      swap1\n      pop\n      jump\t// out\n        /* \"#utility.yul\":11255:11674   */\n    tag_98:\n        /* \"#utility.yul\":11421:11425   */\n      0x00\n        /* \"#utility.yul\":11459:11461   */\n      0x20\n        /* \"#utility.yul\":11448:11457   */\n      dup3\n        /* \"#utility.yul\":11444:11462   */\n      add\n        /* \"#utility.yul\":11436:11462   */\n      swap1\n      pop\n        /* \"#utility.yul\":11508:11517   */\n      dup2\n        /* \"#utility.yul\":11502:11506   */\n      dup2\n        /* \"#utility.yul\":11498:11518   */\n      sub\n        /* \"#utility.yul\":11494:11495   */\n      0x00\n        /* \"#utility.yul\":11483:11492   */\n      dup4\n        /* \"#utility.yul\":11479:11496   */\n      add\n        /* \"#utility.yul\":11472:11519   */\n      mstore\n        /* \"#utility.yul\":11536:11667   */\n      tag_291\n        /* \"#utility.yul\":11662:11666   */\n      dup2\n        /* \"#utility.yul\":11536:11667   */\n      tag_182\n      jump\t// in\n    tag_291:\n        /* \"#utility.yul\":11528:11667   */\n      swap1\n      pop\n        /* \"#utility.yul\":11255:11674   */\n      swap2\n      swap1\n      pop\n      jump\t// out\n        /* \"#utility.yul\":11680:11860   */\n    tag_183:\n        /* \"#utility.yul\":11728:11805   */\n      0x4e487b7100000000000000000000000000000000000000000000000000000000\n        /* \"#utility.yul\":11725:11726   */\n      0x00\n        /* \"#utility.yul\":11718:11806   */\n      mstore\n        /* \"#utility.yul\":11825:11829   */\n      0x11\n        /* \"#utility.yul\":11822:11823   */\n      0x04\n        /* \"#utility.yul\":11815:11830   */\n      mstore\n        /* \"#utility.yul\":11849:11853   */\n      0x24\n        /* \"#utility.yul\":11846:11847   */\n      0x00\n        /* \"#utility.yul\":11839:11854   */\n      revert\n        /* \"#utility.yul\":11866:12057   */\n    tag_100:\n        /* \"#utility.yul\":11906:11909   */\n      0x00\n        /* \"#utility.yul\":11925:11945   */\n      tag_294\n        /* \"#utility.yul\":11943:11944   */\n      dup3\n        /* \"#utility.yul\":11925:11945   */\n      tag_158\n      jump\t// in\n    tag_294:\n        /* \"#utility.yul\":11920:11945   */\n      swap2\n      pop\n        /* \"#utility.yul\":11959:11979   */\n      tag_295\n        /* \"#utility.yul\":11977:11978   */\n      dup4\n        /* \"#utility.yul\":11959:11979   */\n      tag_158\n      jump\t// in\n    tag_295:\n        /* \"#utility.yul\":11954:11979   */\n      swap3\n      pop\n        /* \"#utility.yul\":12002:12003   */\n      dup3\n        /* \"#utility.yul\":11999:12000   */\n      dup3\n        /* \"#utility.yul\":11995:12004   */\n      add\n        /* \"#utility.yul\":11988:12004   */\n      swap1\n      pop\n        /* \"#utility.yul\":12023:12026   */\n      dup1\n        /* \"#utility.yul\":12020:12021   */\n      dup3\n        /* \"#utility.yul\":12017:12027   */\n      gt\n        /* \"#utility.yul\":12014:12050   */\n      iszero\n      tag_296\n      jumpi\n        /* \"#utility.yul\":12030:12048   */\n      tag_297\n      tag_183\n      jump\t// in\n    tag_297:\n        /* \"#utility.yul\":12014:12050   */\n    tag_296:\n        /* \"#utility.yul\":11866:12057   */\n      swap3\n      swap2\n      pop\n      pop\n      jump\t// out\n        /* \"#utility.yul\":12063:12232   */\n    tag_184:\n        /* \"#utility.yul\":12203:12224   */\n      0x4c414e3a20626964206e6f742068696768657200000000000000000000000000\n        /* \"#utility.yul\":12199:12200   */\n      0x00\n        /* \"#utility.yul\":12191:12197   */\n      dup3\n        /* \"#utility.yul\":12187:12201   */\n      add\n        /* \"#utility.yul\":12180:12225   */\n      mstore\n        /* \"#utility.yul\":12063:12232   */\n      pop\n      jump\t// out\n        /* \"#utility.yul\":12238:12604   */\n    tag_185:\n        /* \"#utility.yul\":12380:12383   */\n      0x00\n        /* \"#utility.yul\":12401:12468   */\n      tag_300\n        /* \"#utility.yul\":12465:12467   */\n      0x13\n        /* \"#utility.yul\":12460:12463   */\n      dup4\n        /* \"#utility.yul\":12401:12468   */\n      tag_170\n      jump\t// in\n    tag_300:\n        /* \"#utility.yul\":12394:12468   */\n      swap2\n      pop\n        /* \"#utility.yul\":12477:12570   */\n      tag_301\n        /* \"#utility.yul\":12566:12569   */\n      dup3\n        /* \"#utility.yul\":12477:12570   */\n      tag_184\n      jump\t// in\n    tag_301:\n        /* \"#utility.yul\":12595:12597   */\n      0x20\n        /* \"#utility.yul\":12590:12593   */\n      dup3\n        /* \"#utility.yul\":12586:12598   */\n      add\n        /* \"#utility.yul\":12579:12598   */\n      swap1\n      pop\n        /* \"#utility.yul\":12238:12604   */\n      swap2\n      swap1\n      pop\n      jump\t// out\n        /* \"#utility.yul\":12610:13029   */\n    tag_105:\n        /* \"#utility.yul\":12776:12780   */\n      0x00\n        /* \"#utility.yul\":12814:12816   */\n      0x20\n        /* \"#utility.yul\":12803:12812   */\n      dup3\n        /* \"#utility.yul\":12799:12817   */\n      add\n        /* \"#utility.yul\":12791:12817   */\n      swap1\n      pop\n        /* \"#utility.yul\":12863:12872   */\n      dup2\n        /* \"#utility.yul\":12857:12861   */\n      dup2\n        /* \"#utility.yul\":12853:12873   */\n      sub\n        /* \"#utility.yul\":12849:12850   */\n      0x00\n        /* \"#utility.yul\":12838:12847   */\n      dup4\n        /* \"#utility.yul\":12834:12851   */\n      add\n        /* \"#utility.yul\":12827:12874   */\n      mstore\n        /* \"#utility.yul\":12891:13022   */\n      tag_303\n        /* \"#utility.yul\":13017:13021   */\n      dup2\n        /* \"#utility.yul\":12891:13022   */\n      tag_185\n      jump\t// in\n    tag_303:\n        /* \"#utility.yul\":12883:13022   */\n      swap1\n      pop\n        /* \"#utility.yul\":12610:13029   */\n      swap2\n      swap1\n      pop\n      jump\t// out\n        /* \"#utility.yul\":13035:13125   */\n    tag_186:\n        /* \"#utility.yul\":13069:13076   */\n      0x00\n        /* \"#utility.yul\":13112:13117   */\n      dup2\n        /* \"#utility.yul\":13105:13118   */\n      iszero\n        /* \"#utility.yul\":13098:13119   */\n      iszero\n        /* \"#utility.yul\":13087:13119   */\n      swap1\n      pop\n        /* \"#utility.yul\":13035:13125   */\n      swap2\n      swap1\n      pop\n      jump\t// out\n        /* \"#utility.yul\":13131:13247   */\n    tag_187:\n        /* \"#utility.yul\":13201:13222   */\n      tag_306\n        /* \"#utility.yul\":13216:13221   */\n      dup2\n        /* \"#utility.yul\":13201:13222   */\n      tag_186\n      jump\t// in\n    tag_306:\n        /* \"#utility.yul\":13194:13199   */\n      dup2\n        /* \"#utility.yul\":13191:13223   */\n      eq\n        /* \"#utility.yul\":13181:13241   */\n      tag_307\n      jumpi\n        /* \"#utility.yul\":13237:13238   */\n      0x00\n        /* \"#utility.yul\":13234:13235   */\n      dup1\n        /* \"#utility.yul\":13227:13239   */\n      revert\n        /* \"#utility.yul\":13181:13241   */\n    tag_307:\n        /* \"#utility.yul\":13131:13247   */\n      pop\n      jump\t// out\n        /* \"#utility.yul\":13253:13390   */\n    tag_188:\n        /* \"#utility.yul\":13307:13312   */\n      0x00\n        /* \"#utility.yul\":13338:13344   */\n      dup2\n        /* \"#utility.yul\":13332:13345   */\n      mload\n        /* \"#utility.yul\":13323:13345   */\n      swap1\n      pop\n        /* \"#utility.yul\":13354:13384   */\n      tag_309\n        /* \"#utility.yul\":13378:13383   */\n      dup2\n        /* \"#utility.yul\":13354:13384   */\n      tag_187\n      jump\t// in\n    tag_309:\n        /* \"#utility.yul\":13253:13390   */\n      swap3\n      swap2\n      pop\n      pop\n      jump\t// out\n        /* \"#utility.yul\":13396:13741   */\n    tag_110:\n        /* \"#utility.yul\":13463:13469   */\n      0x00\n        /* \"#utility.yul\":13512:13514   */\n      0x20\n        /* \"#utility.yul\":13500:13509   */\n      dup3\n        /* \"#utility.yul\":13491:13498   */\n      dup5\n        /* \"#utility.yul\":13487:13510   */\n      sub\n        /* \"#utility.yul\":13483:13515   */\n      slt\n        /* \"#utility.yul\":13480:13599   */\n      iszero\n      tag_311\n      jumpi\n        /* \"#utility.yul\":13518:13597   */\n      tag_312\n      tag_161\n      jump\t// in\n    tag_312:\n        /* \"#utility.yul\":13480:13599   */\n    tag_311:\n        /* \"#utility.yul\":13638:13639   */\n      0x00\n        /* \"#utility.yul\":13663:13724   */\n      tag_313\n        /* \"#utility.yul\":13716:13723   */\n      dup5\n        /* \"#utility.yul\":13707:13713   */\n      dup3\n        /* \"#utility.yul\":13696:13705   */\n      dup6\n        /* \"#utility.yul\":13692:13714   */\n      add\n        /* \"#utility.yul\":13663:13724   */\n      tag_188\n      jump\t// in\n    tag_313:\n        /* \"#utility.yul\":13653:13724   */\n      swap2\n      pop\n        /* \"#utility.yul\":13609:13734   */\n      pop\n        /* \"#utility.yul\":13396:13741   */\n      swap3\n      swap2\n      pop\n      pop\n      jump\t// out\n        /* \"#utility.yul\":13747:13941   */\n    tag_112:\n        /* \"#utility.yul\":13787:13791   */\n      0x00\n        /* \"#utility.yul\":13807:13827   */\n      tag_315\n        /* \"#utility.yul\":13825:13826   */\n      dup3\n        /* \"#utility.yul\":13807:13827   */\n      tag_158\n      jump\t// in\n    tag_315:\n        /* \"#utility.yul\":13802:13827   */\n      swap2\n      pop\n        /* \"#utility.yul\":13841:13861   */\n      tag_316\n        /* \"#utility.yul\":13859:13860   */\n      dup4\n        /* \"#utility.yul\":13841:13861   */\n      tag_158\n      jump\t// in\n    tag_316:\n        /* \"#utility.yul\":13836:13861   */\n      swap3\n      pop\n        /* \"#utility.yul\":13885:13886   */\n      dup3\n        /* \"#utility.yul\":13882:13883   */\n      dup3\n        /* \"#utility.yul\":13878:13887   */\n      sub\n        /* \"#utility.yul\":13870:13887   */\n      swap1\n      pop\n        /* \"#utility.yul\":13909:13910   */\n      dup2\n        /* \"#utility.yul\":13903:13907   */\n      dup2\n        /* \"#utility.yul\":13900:13911   */\n      gt\n        /* \"#utility.yul\":13897:13934   */\n      iszero\n      tag_317\n      jumpi\n        /* \"#utility.yul\":13914:13932   */\n      tag_318\n      tag_183\n      jump\t// in\n    tag_318:\n        /* \"#utility.yul\":13897:13934   */\n    tag_317:\n        /* \"#utility.yul\":13747:13941   */\n      swap3\n      swap2\n      pop\n      pop\n      jump\t// out\n        /* \"#utility.yul\":13947:14120   */\n    tag_189:\n        /* \"#utility.yul\":14087:14112   */\n      0x4c414e3a2073746172742074696d6520696e2070617374000000000000000000\n        /* \"#utility.yul\":14083:14084   */\n      0x00\n        /* \"#utility.yul\":14075:14081   */\n      dup3\n        /* \"#utility.yul\":14071:14085   */\n      add\n        /* \"#utility.yul\":14064:14113   */\n      mstore\n        /* \"#utility.yul\":13947:14120   */\n      pop\n      jump\t// out\n        /* \"#utility.yul\":14126:14492   */\n    tag_190:\n        /* \"#utility.yul\":14268:14271   */\n      0x00\n        /* \"#utility.yul\":14289:14356   */\n      tag_321\n        /* \"#utility.yul\":14353:14355   */\n      0x17\n        /* \"#utility.yul\":14348:14351   */\n      dup4\n        /* \"#utility.yul\":14289:14356   */\n      tag_170\n      jump\t// in\n    tag_321:\n        /* \"#utility.yul\":14282:14356   */\n      swap2\n      pop\n        /* \"#utility.yul\":14365:14458   */\n      tag_322\n        /* \"#utility.yul\":14454:14457   */\n      dup3\n        /* \"#utility.yul\":14365:14458   */\n      tag_189\n      jump\t// in\n    tag_322:\n        /* \"#utility.yul\":14483:14485   */\n      0x20\n        /* \"#utility.yul\":14478:14481   */\n      dup3\n        /* \"#utility.yul\":14474:14486   */\n      add\n        /* \"#utility.yul\":14467:14486   */\n      swap1\n      pop\n        /* \"#utility.yul\":14126:14492   */\n      swap2\n      swap1\n      pop\n      jump\t// out\n        /* \"#utility.yul\":14498:14917   */\n    tag_135:\n        /* \"#utility.yul\":14664:14668   */\n      0x00\n        /* \"#utility.yul\":14702:14704   */\n      0x20\n        /* \"#utility.yul\":14691:14700   */\n      dup3\n        /* \"#utility.yul\":14687:14705   */\n      add\n        /* \"#utility.yul\":14679:14705   */\n      swap1\n      pop\n        /* \"#utility.yul\":14751:14760   */\n      dup2\n        /* \"#utility.yul\":14745:14749   */\n      dup2\n        /* \"#utility.yul\":14741:14761   */\n      sub\n        /* \"#utility.yul\":14737:14738   */\n      0x00\n        /* \"#utility.yul\":14726:14735   */\n      dup4\n        /* \"#utility.yul\":14722:14739   */\n      add\n        /* \"#utility.yul\":14715:14762   */\n      mstore\n        /* \"#utility.yul\":14779:14910   */\n      tag_324\n        /* \"#utility.yul\":14905:14909   */\n      dup2\n        /* \"#utility.yul\":14779:14910   */\n      tag_190\n      jump\t// in\n    tag_324:\n        /* \"#utility.yul\":14771:14910   */\n      swap1\n      pop\n        /* \"#utility.yul\":14498:14917   */\n      swap2\n      swap1\n      pop\n      jump\t// out\n        /* \"#utility.yul\":14923:15093   */\n    tag_191:\n        /* \"#utility.yul\":15063:15085   */\n      0x4c414e3a20737461727420616674657220656e64000000000000000000000000\n        /* \"#utility.yul\":15059:15060   */\n      0x00\n        /* \"#utility.yul\":15051:15057   */\n      dup3\n        /* \"#utility.yul\":15047:15061   */\n      add\n        /* \"#utility.yul\":15040:15086   */\n      mstore\n        /* \"#utility.yul\":14923:15093   */\n      pop\n      jump\t// out\n        /* \"#utility.yul\":15099:15465   */\n    tag_192:\n        /* \"#utility.yul\":15241:15244   */\n      0x00\n        /* \"#utility.yul\":15262:15329   */\n      tag_327\n        /* \"#utility.yul\":15326:15328   */\n      0x14\n        /* \"#utility.yul\":15321:15324   */\n      dup4\n        /* \"#utility.yul\":15262:15329   */\n      tag_170\n      jump\t// in\n    tag_327:\n        /* \"#utility.yul\":15255:15329   */\n      swap2\n      pop\n        /* \"#utility.yul\":15338:15431   */\n      tag_328\n        /* \"#utility.yul\":15427:15430   */\n      dup3\n        /* \"#utility.yul\":15338:15431   */\n      tag_191\n      jump\t// in\n    tag_328:\n        /* \"#utility.yul\":15456:15458   */\n      0x20\n        /* \"#utility.yul\":15451:15454   */\n      dup3\n        /* \"#utility.yul\":15447:15459   */\n      add\n        /* \"#utility.yul\":15440:15459   */\n      swap1\n      pop\n        /* \"#utility.yul\":15099:15465   */\n      swap2\n      swap1\n      pop\n      jump\t// out\n        /* \"#utility.yul\":15471:15890   */\n    tag_138:\n        /* \"#utility.yul\":15637:15641   */\n      0x00\n        /* \"#utility.yul\":15675:15677   */\n      0x20\n        /* \"#utility.yul\":15664:15673   */\n      dup3\n        /* \"#utility.yul\":15660:15678   */\n      add\n        /* \"#utility.yul\":15652:15678   */\n      swap1\n      pop\n        /* \"#utility.yul\":15724:15733   */\n      dup2\n        /* \"#utility.yul\":15718:15722   */\n      dup2\n        /* \"#utility.yul\":15714:15734   */\n      sub\n        /* \"#utility.yul\":15710:15711   */\n      0x00\n        /* \"#utility.yul\":15699:15708   */\n      dup4\n        /* \"#utility.yul\":15695:15712   */\n      add\n        /* \"#utility.yul\":15688:15735   */\n      mstore\n        /* \"#utility.yul\":15752:15883   */\n      tag_330\n        /* \"#utility.yul\":15878:15882   */\n      dup2\n        /* \"#utility.yul\":15752:15883   */\n      tag_192\n      jump\t// in\n    tag_330:\n        /* \"#utility.yul\":15744:15883   */\n      swap1\n      pop\n        /* \"#utility.yul\":15471:15890   */\n      swap2\n      swap1\n      pop\n      jump\t// out\n        /* \"#utility.yul\":15896:16228   */\n    tag_140:\n        /* \"#utility.yul\":16017:16021   */\n      0x00\n        /* \"#utility.yul\":16055:16057   */\n      0x40\n        /* \"#utility.yul\":16044:16053   */\n      dup3\n        /* \"#utility.yul\":16040:16058   */\n      add\n        /* \"#utility.yul\":16032:16058   */\n      swap1\n      pop\n        /* \"#utility.yul\":16068:16139   */\n      tag_332\n        /* \"#utility.yul\":16136:16137   */\n      0x00\n        /* \"#utility.yul\":16125:16134   */\n      dup4\n        /* \"#utility.yul\":16121:16138   */\n      add\n        /* \"#utility.yul\":16112:16118   */\n      dup6\n        /* \"#utility.yul\":16068:16139   */\n      tag_167\n      jump\t// in\n    tag_332:\n        /* \"#utility.yul\":16149:16221   */\n      tag_333\n        /* \"#utility.yul\":16217:16219   */\n      0x20\n        /* \"#utility.yul\":16206:16215   */\n      dup4\n        /* \"#utility.yul\":16202:16220   */\n      add\n        /* \"#utility.yul\":16193:16199   */\n      dup5\n        /* \"#utility.yul\":16149:16221   */\n      tag_159\n      jump\t// in\n    tag_333:\n        /* \"#utility.yul\":15896:16228   */\n      swap4\n      swap3\n      pop\n      pop\n      pop\n      jump\t// out\n        /* \"#utility.yul\":16234:16467   */\n    tag_142:\n        /* \"#utility.yul\":16273:16276   */\n      0x00\n        /* \"#utility.yul\":16296:16320   */\n      tag_335\n        /* \"#utility.yul\":16314:16319   */\n      dup3\n        /* \"#utility.yul\":16296:16320   */\n      tag_158\n      jump\t// in\n    tag_335:\n        /* \"#utility.yul\":16287:16320   */\n      swap2\n      pop\n        /* \"#utility.yul\":16342:16408   */\n      0xffffffffffffffffffffffffffffffffffffffffffffffffffffffffffffffff\n        /* \"#utility.yul\":16335:16340   */\n      dup3\n        /* \"#utility.yul\":16332:16409   */\n      sub\n        /* \"#utility.yul\":16329:16432   */\n      tag_336\n      jumpi\n        /* \"#utility.yul\":16412:16430   */\n      tag_337\n      tag_183\n      jump\t// in\n    tag_337:\n        /* \"#utility.yul\":16329:16432   */\n    tag_336:\n        /* \"#utility.yul\":16459:16460   */\n      0x01\n        /* \"#utility.yul\":16452:16457   */\n      dup3\n        /* \"#utility.yul\":16448:16461   */\n      add\n        /* \"#utility.yul\":16441:16461   */\n      swap1\n      pop\n        /* \"#utility.yul\":16234:16467   */\n      swap2\n      swap1\n      pop\n      jump\t// out\n        /* \"#utility.yul\":16473:16821   */\n    tag_152:\n        /* \"#utility.yul\":16513:16520   */\n      0x00\n        /* \"#utility.yul\":16536:16556   */\n      tag_339\n        /* \"#utility.yul\":16554:16555   */\n      dup3\n        /* \"#utility.yul\":16536:16556   */\n      tag_158\n      jump\t// in\n    tag_339:\n        /* \"#utility.yul\":16531:16556   */\n      swap2\n      pop\n        /* \"#utility.yul\":16570:16590   */\n      tag_340\n        /* \"#utility.yul\":16588:16589   */\n      dup4\n        /* \"#utility.yul\":16570:16590   */\n      tag_158\n      jump\t// in\n    tag_340:\n        /* \"#utility.yul\":16565:16590   */\n      swap3\n      pop\n        /* \"#utility.yul\":16758:16759   */\n      dup2\n        /* \"#utility.yul\":16690:16756   */\n      0xffffffffffffffffffffffffffffffffffffffffffffffffffffffffffffffff\n        /* \"#utility.yul\":16686:16760   */\n      div\n        /* \"#utility.yul\":16683:16684   */\n      dup4\n        /* \"#utility.yul\":16680:16761   */\n      gt\n        /* \"#utility.yul\":16675:16676   */\n      dup3\n        /* \"#utility.yul\":16668:16677   */\n      iszero\n        /* \"#utility.yul\":16661:16678   */\n      iszero\n        /* \"#utility.yul\":16657:16762   */\n      and\n        /* \"#utility.yul\":16654:16785   */\n      iszero\n      tag_341\n      jumpi\n        /* \"#utility.yul\":16765:16783   */\n      tag_342\n      tag_183\n      jump\t// in\n    tag_342:\n        /* \"#utility.yul\":16654:16785   */\n    tag_341:\n        /* \"#utility.yul\":16813:16814   */\n      dup3\n        /* \"#utility.yul\":16810:16811   */\n      dup3\n        /* \"#utility.yul\":16806:16815   */\n      mul\n        /* \"#utility.yul\":16795:16815   */\n      swap1\n      pop\n        /* \"#utility.yul\":16473:16821   */\n      swap3\n      swap2\n      pop\n      pop\n      jump\t// out\n        /* \"#utility.yul\":16827:17007   */\n    tag_193:\n        /* \"#utility.yul\":16875:16952   */\n      0x4e487b7100000000000000000000000000000000000000000000000000000000\n        /* \"#utility.yul\":16872:16873   */\n      0x00\n        /* \"#utility.yul\":16865:16953   */\n      mstore\n        /* \"#utility.yul\":16972:16976   */\n      0x12\n        /* \"#utility.yul\":16969:16970   */\n      0x04\n        /* \"#utility.yul\":16962:16977   */\n      mstore\n        /* \"#utility.yul\":16996:17000   */\n      0x24\n        /* \"#utility.yul\":16993:16994   */\n      0x00\n        /* \"#utility.yul\":16986:17001   */\n      revert\n        /* \"#utility.yul\":17013:17198   */\n    tag_154:\n        /* \"#utility.yul\":17053:17054   */\n      0x00\n        /* \"#utility.yul\":17070:17090   */\n      tag_345\n        /* \"#utility.yul\":17088:17089   */\n      dup3\n        /* \"#utility.yul\":17070:17090   */\n      tag_158\n      jump\t// in\n    tag_345:\n        /* \"#utility.yul\":17065:17090   */\n      swap2\n      pop\n        /* \"#utility.yul\":17104:17124   */\n      tag_346\n        /* \"#utility.yul\":17122:17123   */\n      dup4\n        /* \"#utility.yul\":17104:17124   */\n      tag_158\n      jump\t// in\n    tag_346:\n        /* \"#utility.yul\":17099:17124   */\n      swap3\n      pop\n        /* \"#utility.yul\":17143:17144   */\n      dup3\n        /* \"#utility.yul\":17133:17168   */\n      tag_347\n      jumpi\n        /* \"#utility.yul\":17148:17166   */\n      tag_348\n      tag_193\n      jump\t// in\n    tag_348:\n        /* \"#utility.yul\":17133:17168   */\n    tag_347:\n        /* \"#utility.yul\":17190:17191   */\n      dup3\n        /* \"#utility.yul\":17187:17188   */\n      dup3\n        /* \"#utility.yul\":17183:17192   */\n      div\n        /* \"#utility.yul\":17178:17192   */\n      swap1\n      pop\n        /* \"#utility.yul\":17013:17198   */\n      swap3\n      swap2\n      pop\n      pop\n      jump\t// out\n\n    auxdata: 0xa26469706673582212201102a99bd70ec443fa51f8938b65fd1a5e21961f76cca0faebc93ba6f921357864736f6c63430008100033\n}\n",
				"bytecode": {
					"linkReferences": {},
					"object": "608060405234801561001057600080fd5b50612378806100206000396000f3fe608060405234801561001057600080fd5b506004361061009e5760003560e01c80637870860b116100665780637870860b146101315780637b3c4baa1461014d5780639bea77da1461017f578063e1ec3c68146101af578063e7e4dfcd146101e65761009e565b806306661abd146100a357806318de4f9d146100c157806340e58ee5146100dd578063415f1240146100f9578063598647f814610115575b600080fd5b6100ab610202565b6040516100b89190611a84565b60405180910390f35b6100db60048036038101906100d69190611ad0565b610208565b005b6100f760048036038101906100f29190611ad0565b61053c565b005b610113600480360381019061010e9190611ad0565b6107c4565b005b61012f600480360381019061012a9190611afd565b610af8565b005b61014b60048036038101906101469190611ad0565b610f68565b005b61016760048036038101906101629190611afd565b611319565b60405161017693929190611b7e565b60405180910390f35b61019960048036038101906101949190611afd565b611370565b6040516101a69190611bb5565b60405180910390f35b6101c960048036038101906101c49190611ad0565b6113be565b6040516101dd989796959493929190611bd0565b60405180910390f35b61020060048036038101906101fb9190611c7a565b611466565b005b60005481565b600060016000838152602001908152602001600020604051806101000160405290816000820160009054906101000a900473ffffffffffffffffffffffffffffffffffffffff1673ffffffffffffffffffffffffffffffffffffffff1673ffffffffffffffffffffffffffffffffffffffff1681526020016001820160009054906101000a900473ffffffffffffffffffffffffffffffffffffffff1673ffffffffffffffffffffffffffffffffffffffff1673ffffffffffffffffffffffffffffffffffffffff1681526020016002820160009054906101000a900473ffffffffffffffffffffffffffffffffffffffff1673ffffffffffffffffffffffffffffffffffffffff1673ffffffffffffffffffffffffffffffffffffffff1681526020016003820154815260200160048201548152602001600582015481526020016006820154815260200160078201548152505090506103688261170e565b6103a7576040517f08c379a000000000000000000000000000000000000000000000000000000000815260040161039e90611d64565b60405180910390fd5b60006002600084815260200190815260200160002060008360e00151815260200190815260200160002060405180606001604052908160008201548152602001600182015481526020016002820160009054906101000a900473ffffffffffffffffffffffffffffffffffffffff1673ffffffffffffffffffffffffffffffffffffffff1673ffffffffffffffffffffffffffffffffffffffff168152505090503373ffffffffffffffffffffffffffffffffffffffff16816040015173ffffffffffffffffffffffffffffffffffffffff16146104ba576040517f08c379a00000000000000000000000000000000000000000000000000000000081526004016104b190611dd0565b60405180910390fd5b6000826040015190508073ffffffffffffffffffffffffffffffffffffffff166342842e0e303386606001516040518463ffffffff1660e01b815260040161050493929190611df0565b600060405180830381600087803b15801561051e57600080fd5b505af1158015610532573d6000803e3d6000fd5b5050505050505050565b803373ffffffffffffffffffffffffffffffffffffffff166001600083815260200190815260200160002060000160009054906101000a900473ffffffffffffffffffffffffffffffffffffffff1673ffffffffffffffffffffffffffffffffffffffff16146105e1576040517f08c379a00000000000000000000000000000000000000000000000000000000081526004016105d890611e73565b60405180910390fd5b600060016000848152602001908152602001600020604051806101000160405290816000820160009054906101000a900473ffffffffffffffffffffffffffffffffffffffff1673ffffffffffffffffffffffffffffffffffffffff1673ffffffffffffffffffffffffffffffffffffffff1681526020016001820160009054906101000a900473ffffffffffffffffffffffffffffffffffffffff1673ffffffffffffffffffffffffffffffffffffffff1673ffffffffffffffffffffffffffffffffffffffff1681526020016002820160009054906101000a900473ffffffffffffffffffffffffffffffffffffffff1673ffffffffffffffffffffffffffffffffffffffff1673ffffffffffffffffffffffffffffffffffffffff1681526020016003820154815260200160048201548152602001600582015481526020016006820154815260200160078201548152505090504281608001511161077e576040517f08c379a000000000000000000000000000000000000000000000000000000000815260040161077590611edf565b60405180910390fd5b6107866119e4565b90507ffe785ef891129b084b1c5a30e4d88eb97c97822c024cc25d5f9d806b897512e0836040516107b79190611a84565b60405180910390a1505050565b600060016000838152602001908152602001600020604051806101000160405290816000820160009054906101000a900473ffffffffffffffffffffffffffffffffffffffff1673ffffffffffffffffffffffffffffffffffffffff1673ffffffffffffffffffffffffffffffffffffffff1681526020016001820160009054906101000a900473ffffffffffffffffffffffffffffffffffffffff1673ffffffffffffffffffffffffffffffffffffffff1673ffffffffffffffffffffffffffffffffffffffff1681526020016002820160009054906101000a900473ffffffffffffffffffffffffffffffffffffffff1673ffffffffffffffffffffffffffffffffffffffff1673ffffffffffffffffffffffffffffffffffffffff1681526020016003820154815260200160048201548152602001600582015481526020016006820154815260200160078201548152505090506109248261170e565b610963576040517f08c379a000000000000000000000000000000000000000000000000000000000815260040161095a90611d64565b60405180910390fd5b60006002600084815260200190815260200160002060008360e00151815260200190815260200160002060405180606001604052908160008201548152602001600182015481526020016002820160009054906101000a900473ffffffffffffffffffffffffffffffffffffffff1673ffffffffffffffffffffffffffffffffffffffff1673ffffffffffffffffffffffffffffffffffffffff168152505090503373ffffffffffffffffffffffffffffffffffffffff16816040015173ffffffffffffffffffffffffffffffffffffffff1614610a76576040517f08c379a0000000000000000000000000000000000000000000000000000000008152600401610a6d90611dd0565b60405180910390fd5b6000826040015190508073ffffffffffffffffffffffffffffffffffffffff166342842e0e303386606001516040518463ffffffff1660e01b8152600401610ac093929190611df0565b600060405180830381600087803b158015610ada57600080fd5b505af1158015610aee573d6000803e3d6000fd5b5050505050505050565b610b0182611731565b610b40576040517f08c379a0000000000000000000000000000000000000000000000000000000008152600401610b3790611f4b565b60405180910390fd5b610b498261170e565b15610b89576040517f08c379a0000000000000000000000000000000000000000000000000000000008152600401610b8090611fb7565b60405180910390fd5b600060016000848152602001908152602001600020604051806101000160405290816000820160009054906101000a900473ffffffffffffffffffffffffffffffffffffffff1673ffffffffffffffffffffffffffffffffffffffff1673ffffffffffffffffffffffffffffffffffffffff1681526020016001820160009054906101000a900473ffffffffffffffffffffffffffffffffffffffff1673ffffffffffffffffffffffffffffffffffffffff1673ffffffffffffffffffffffffffffffffffffffff1681526020016002820160009054906101000a900473ffffffffffffffffffffffffffffffffffffffff1673ffffffffffffffffffffffffffffffffffffffff1673ffffffffffffffffffffffffffffffffffffffff168152602001600382015481526020016004820154815260200160058201548152602001600682015481526020016007820154815250509050600060018260e00151610cf39190612006565b9050808260e00181815250506000610d0a85611753565b9050808411610d4e576040517f08c379a0000000000000000000000000000000000000000000000000000000008152600401610d4590612086565b60405180910390fd5b826020015173ffffffffffffffffffffffffffffffffffffffff166323b872dd3360026000898152602001908152602001600020600086815260200190815260200160002060020160009054906101000a900473ffffffffffffffffffffffffffffffffffffffff16846040518463ffffffff1660e01b8152600401610dd693929190611df0565b6020604051808303816000875af1158015610df5573d6000803e3d6000fd5b505050506040513d601f19601f82011682018060405250810190610e1991906120de565b50826020015173ffffffffffffffffffffffffffffffffffffffff166323b872dd3385600001518488610e4c919061210b565b6040518463ffffffff1660e01b8152600401610e6a93929190611df0565b6020604051808303816000875af1158015610e89573d6000803e3d6000fd5b505050506040513d601f19601f82011682018060405250810190610ead91906120de565b5060405180606001604052804281526020018581526020013373ffffffffffffffffffffffffffffffffffffffff16815250600260008781526020019081526020016000206000848152602001908152602001600020600082015181600001556020820151816001015560408201518160020160006101000a81548173ffffffffffffffffffffffffffffffffffffffff021916908373ffffffffffffffffffffffffffffffffffffffff1602179055509050505050505050565b803373ffffffffffffffffffffffffffffffffffffffff166001600083815260200190815260200160002060000160009054906101000a900473ffffffffffffffffffffffffffffffffffffffff1673ffffffffffffffffffffffffffffffffffffffff161461100d576040517f08c379a000000000000000000000000000000000000000000000000000000000815260040161100490611e73565b60405180910390fd5b600060016000848152602001908152602001600020604051806101000160405290816000820160009054906101000a900473ffffffffffffffffffffffffffffffffffffffff1673ffffffffffffffffffffffffffffffffffffffff1673ffffffffffffffffffffffffffffffffffffffff1681526020016001820160009054906101000a900473ffffffffffffffffffffffffffffffffffffffff1673ffffffffffffffffffffffffffffffffffffffff1673ffffffffffffffffffffffffffffffffffffffff1681526020016002820160009054906101000a900473ffffffffffffffffffffffffffffffffffffffff1673ffffffffffffffffffffffffffffffffffffffff1673ffffffffffffffffffffffffffffffffffffffff16815260200160038201548152602001600482015481526020016005820154815260200160068201548152602001600782015481525050905060006002600085815260200190815260200160002060008360e00151815260200190815260200160002060405180606001604052908160008201548152602001600182015481526020016002820160009054906101000a900473ffffffffffffffffffffffffffffffffffffffff1673ffffffffffffffffffffffffffffffffffffffff1673ffffffffffffffffffffffffffffffffffffffff16815250509050816020015173ffffffffffffffffffffffffffffffffffffffff166323b872dd33836040015161123488611753565b6040518463ffffffff1660e01b815260040161125293929190611df0565b6020604051808303816000875af1158015611271573d6000803e3d6000fd5b505050506040513d601f19601f8201168201806040525081019061129591906120de565b506000826040015190508073ffffffffffffffffffffffffffffffffffffffff166342842e0e303386606001516040518463ffffffff1660e01b81526004016112e093929190611df0565b600060405180830381600087803b1580156112fa57600080fd5b505af115801561130e573d6000803e3d6000fd5b505050505050505050565b6002602052816000526040600020602052806000526040600020600091509150508060000154908060010154908060020160009054906101000a900473ffffffffffffffffffffffffffffffffffffffff16905083565b6003602052816000526040600020818154811061138c57600080fd5b906000526020600020016000915091509054906101000a900473ffffffffffffffffffffffffffffffffffffffff1681565b60016020528060005260406000206000915090508060000160009054906101000a900473ffffffffffffffffffffffffffffffffffffffff16908060010160009054906101000a900473ffffffffffffffffffffffffffffffffffffffff16908060020160009054906101000a900473ffffffffffffffffffffffffffffffffffffffff16908060030154908060040154908060050154908060060154908060070154905088565b428310156114a9576040517f08c379a00000000000000000000000000000000000000000000000000000000081526004016114a09061218b565b60405180910390fd5b8282116114eb576040517f08c379a00000000000000000000000000000000000000000000000000000000081526004016114e2906121f7565b60405180910390fd5b6040518061010001604052803373ffffffffffffffffffffffffffffffffffffffff1681526020018773ffffffffffffffffffffffffffffffffffffffff1681526020018673ffffffffffffffffffffffffffffffffffffffff1681526020018581526020018481526020018381526020018281526020016000815250600160008054815260200190815260200160002060008201518160000160006101000a81548173ffffffffffffffffffffffffffffffffffffffff021916908373ffffffffffffffffffffffffffffffffffffffff16021790555060208201518160010160006101000a81548173ffffffffffffffffffffffffffffffffffffffff021916908373ffffffffffffffffffffffffffffffffffffffff16021790555060408201518160020160006101000a81548173ffffffffffffffffffffffffffffffffffffffff021916908373ffffffffffffffffffffffffffffffffffffffff160217905550606082015181600301556080820151816004015560a0820151816005015560c0820151816006015560e082015181600701559050504260026000805481526020019081526020016000206000808152602001908152602001600020600001819055506000547fef8b2952c43462575e82711d0cc91169720a4589a9fa533d173e022437f5405e86866040516116e7929190612217565b60405180910390a260008081548092919061170190612240565b9190505550505050505050565b600042600160008481526020019081526020016000206005015411159050919050565b6000426001600084815260200190815260200160002060040154109050919050565b60008060016000848152602001908152602001600020604051806101000160405290816000820160009054906101000a900473ffffffffffffffffffffffffffffffffffffffff1673ffffffffffffffffffffffffffffffffffffffff1673ffffffffffffffffffffffffffffffffffffffff1681526020016001820160009054906101000a900473ffffffffffffffffffffffffffffffffffffffff1673ffffffffffffffffffffffffffffffffffffffff1673ffffffffffffffffffffffffffffffffffffffff1681526020016002820160009054906101000a900473ffffffffffffffffffffffffffffffffffffffff1673ffffffffffffffffffffffffffffffffffffffff1673ffffffffffffffffffffffffffffffffffffffff16815260200160038201548152602001600482015481526020016005820154815260200160068201548152602001600782015481525050905060006002600085815260200190815260200160002060008360e00151815260200190815260200160002060405180606001604052908160008201548152602001600182015481526020016002820160009054906101000a900473ffffffffffffffffffffffffffffffffffffffff1673ffffffffffffffffffffffffffffffffffffffff1673ffffffffffffffffffffffffffffffffffffffff1681525050905060006119578561170e565b15611977578260a001518260000151611970919061210b565b905061198a565b428260000151611987919061210b565b90505b6301e1338081670de0b6b3a76400008560c0015185602001516119ad9190612288565b6119b79190612311565b6119c19190612288565b6119cb9190612311565b82602001516119da9190612006565b9350505050919050565b604051806101000160405280600073ffffffffffffffffffffffffffffffffffffffff168152602001600073ffffffffffffffffffffffffffffffffffffffff168152602001600073ffffffffffffffffffffffffffffffffffffffff16815260200160008152602001600081526020016000815260200160008152602001600081525090565b6000819050919050565b611a7e81611a6b565b82525050565b6000602082019050611a996000830184611a75565b92915050565b600080fd5b611aad81611a6b565b8114611ab857600080fd5b50565b600081359050611aca81611aa4565b92915050565b600060208284031215611ae657611ae5611a9f565b5b6000611af484828501611abb565b91505092915050565b60008060408385031215611b1457611b13611a9f565b5b6000611b2285828601611abb565b9250506020611b3385828601611abb565b9150509250929050565b600073ffffffffffffffffffffffffffffffffffffffff82169050919050565b6000611b6882611b3d565b9050919050565b611b7881611b5d565b82525050565b6000606082019050611b936000830186611a75565b611ba06020830185611a75565b611bad6040830184611b6f565b949350505050565b6000602082019050611bca6000830184611b6f565b92915050565b600061010082019050611be6600083018b611b6f565b611bf3602083018a611b6f565b611c006040830189611b6f565b611c0d6060830188611a75565b611c1a6080830187611a75565b611c2760a0830186611a75565b611c3460c0830185611a75565b611c4160e0830184611a75565b9998505050505050505050565b611c5781611b5d565b8114611c6257600080fd5b50565b600081359050611c7481611c4e565b92915050565b60008060008060008060c08789031215611c9757611c96611a9f565b5b6000611ca589828a01611c65565b9650506020611cb689828a01611c65565b9550506040611cc789828a01611abb565b9450506060611cd889828a01611abb565b9350506080611ce989828a01611abb565b92505060a0611cfa89828a01611abb565b9150509295509295509295565b600082825260208201905092915050565b7f4c414e3a206c6f616e206e6f7420656e64656400000000000000000000000000600082015250565b6000611d4e601383611d07565b9150611d5982611d18565b602082019050919050565b60006020820190508181036000830152611d7d81611d41565b9050919050565b7f4c414e3a206e6f74206c61746573742062696464657200000000000000000000600082015250565b6000611dba601683611d07565b9150611dc582611d84565b602082019050919050565b60006020820190508181036000830152611de981611dad565b9050919050565b6000606082019050611e056000830186611b6f565b611e126020830185611b6f565b611e1f6040830184611a75565b949350505050565b7f4c414e3a206e6f74206f776e6572000000000000000000000000000000000000600082015250565b6000611e5d600e83611d07565b9150611e6882611e27565b602082019050919050565b60006020820190508181036000830152611e8c81611e50565b9050919050565b7f4c414e3a20616c72656164792073746172746564000000000000000000000000600082015250565b6000611ec9601483611d07565b9150611ed482611e93565b602082019050919050565b60006020820190508181036000830152611ef881611ebc565b9050919050565b7f4c414e3a206e6f74207374617274656400000000000000000000000000000000600082015250565b6000611f35601083611d07565b9150611f4082611eff565b602082019050919050565b60006020820190508181036000830152611f6481611f28565b9050919050565b7f4c414e3a20616c726561647920656e6465640000000000000000000000000000600082015250565b6000611fa1601283611d07565b9150611fac82611f6b565b602082019050919050565b60006020820190508181036000830152611fd081611f94565b9050919050565b7f4e487b7100000000000000000000000000000000000000000000000000000000600052601160045260246000fd5b600061201182611a6b565b915061201c83611a6b565b925082820190508082111561203457612033611fd7565b5b92915050565b7f4c414e3a20626964206e6f742068696768657200000000000000000000000000600082015250565b6000612070601383611d07565b915061207b8261203a565b602082019050919050565b6000602082019050818103600083015261209f81612063565b9050919050565b60008115159050919050565b6120bb816120a6565b81146120c657600080fd5b50565b6000815190506120d8816120b2565b92915050565b6000602082840312156120f4576120f3611a9f565b5b6000612102848285016120c9565b91505092915050565b600061211682611a6b565b915061212183611a6b565b925082820390508181111561213957612138611fd7565b5b92915050565b7f4c414e3a2073746172742074696d6520696e2070617374000000000000000000600082015250565b6000612175601783611d07565b91506121808261213f565b602082019050919050565b600060208201905081810360008301526121a481612168565b9050919050565b7f4c414e3a20737461727420616674657220656e64000000000000000000000000600082015250565b60006121e1601483611d07565b91506121ec826121ab565b602082019050919050565b60006020820190508181036000830152612210816121d4565b9050919050565b600060408201905061222c6000830185611b6f565b6122396020830184611a75565b9392505050565b600061224b82611a6b565b91507fffffffffffffffffffffffffffffffffffffffffffffffffffffffffffffffff820361227d5761227c611fd7565b5b600182019050919050565b600061229382611a6b565b915061229e83611a6b565b9250817fffffffffffffffffffffffffffffffffffffffffffffffffffffffffffffffff04831182151516156122d7576122d6611fd7565b5b828202905092915050565b7f4e487b7100000000000000000000000000000000000000000000000000000000600052601260045260246000fd5b600061231c82611a6b565b915061232783611a6b565b925082612337576123366122e2565b5b82820490509291505056fea26469706673582212201102a99bd70ec443fa51f8938b65fd1a5e21961f76cca0faebc93ba6f921357864736f6c63430008100033",
					"opcodes": "PUSH1 0x80 PUSH1 0x40 MSTORE CALLVALUE DUP1 ISZERO PUSH2 0x10 JUMPI PUSH1 0x0 DUP1 REVERT JUMPDEST POP PUSH2 0x2378 DUP1 PUSH2 0x20 PUSH1 0x0 CODECOPY PUSH1 0x0 RETURN INVALID PUSH1 0x80 PUSH1 0x40 MSTORE CALLVALUE DUP1 ISZERO PUSH2 0x10 JUMPI PUSH1 0x0 DUP1 REVERT JUMPDEST POP PUSH1 0x4 CALLDATASIZE LT PUSH2 0x9E JUMPI PUSH1 0x0 CALLDATALOAD PUSH1 0xE0 SHR DUP1 PUSH4 0x7870860B GT PUSH2 0x66 JUMPI DUP1 PUSH4 0x7870860B EQ PUSH2 0x131 JUMPI DUP1 PUSH4 0x7B3C4BAA EQ PUSH2 0x14D JUMPI DUP1 PUSH4 0x9BEA77DA EQ PUSH2 0x17F JUMPI DUP1 PUSH4 0xE1EC3C68 EQ PUSH2 0x1AF JUMPI DUP1 PUSH4 0xE7E4DFCD EQ PUSH2 0x1E6 JUMPI PUSH2 0x9E JUMP JUMPDEST DUP1 PUSH4 0x6661ABD EQ PUSH2 0xA3 JUMPI DUP1 PUSH4 0x18DE4F9D EQ PUSH2 0xC1 JUMPI DUP1 PUSH4 0x40E58EE5 EQ PUSH2 0xDD JUMPI DUP1 PUSH4 0x415F1240 EQ PUSH2 0xF9 JUMPI DUP1 PUSH4 0x598647F8 EQ PUSH2 0x115 JUMPI JUMPDEST PUSH1 0x0 DUP1 REVERT JUMPDEST PUSH2 0xAB PUSH2 0x202 JUMP JUMPDEST PUSH1 0x40 MLOAD PUSH2 0xB8 SWAP2 SWAP1 PUSH2 0x1A84 JUMP JUMPDEST PUSH1 0x40 MLOAD DUP1 SWAP2 SUB SWAP1 RETURN JUMPDEST PUSH2 0xDB PUSH1 0x4 DUP1 CALLDATASIZE SUB DUP2 ADD SWAP1 PUSH2 0xD6 SWAP2 SWAP1 PUSH2 0x1AD0 JUMP JUMPDEST PUSH2 0x208 JUMP JUMPDEST STOP JUMPDEST PUSH2 0xF7 PUSH1 0x4 DUP1 CALLDATASIZE SUB DUP2 ADD SWAP1 PUSH2 0xF2 SWAP2 SWAP1 PUSH2 0x1AD0 JUMP JUMPDEST PUSH2 0x53C JUMP JUMPDEST STOP JUMPDEST PUSH2 0x113 PUSH1 0x4 DUP1 CALLDATASIZE SUB DUP2 ADD SWAP1 PUSH2 0x10E SWAP2 SWAP1 PUSH2 0x1AD0 JUMP JUMPDEST PUSH2 0x7C4 JUMP JUMPDEST STOP JUMPDEST PUSH2 0x12F PUSH1 0x4 DUP1 CALLDATASIZE SUB DUP2 ADD SWAP1 PUSH2 0x12A SWAP2 SWAP1 PUSH2 0x1AFD JUMP JUMPDEST PUSH2 0xAF8 JUMP JUMPDEST STOP JUMPDEST PUSH2 0x14B PUSH1 0x4 DUP1 CALLDATASIZE SUB DUP2 ADD SWAP1 PUSH2 0x146 SWAP2 SWAP1 PUSH2 0x1AD0 JUMP JUMPDEST PUSH2 0xF68 JUMP JUMPDEST STOP JUMPDEST PUSH2 0x167 PUSH1 0x4 DUP1 CALLDATASIZE SUB DUP2 ADD SWAP1 PUSH2 0x162 SWAP2 SWAP1 PUSH2 0x1AFD JUMP JUMPDEST PUSH2 0x1319 JUMP JUMPDEST PUSH1 0x40 MLOAD PUSH2 0x176 SWAP4 SWAP3 SWAP2 SWAP1 PUSH2 0x1B7E JUMP JUMPDEST PUSH1 0x40 MLOAD DUP1 SWAP2 SUB SWAP1 RETURN JUMPDEST PUSH2 0x199 PUSH1 0x4 DUP1 CALLDATASIZE SUB DUP2 ADD SWAP1 PUSH2 0x194 SWAP2 SWAP1 PUSH2 0x1AFD JUMP JUMPDEST PUSH2 0x1370 JUMP JUMPDEST PUSH1 0x40 MLOAD PUSH2 0x1A6 SWAP2 SWAP1 PUSH2 0x1BB5 JUMP JUMPDEST PUSH1 0x40 MLOAD DUP1 SWAP2 SUB SWAP1 RETURN JUMPDEST PUSH2 0x1C9 PUSH1 0x4 DUP1 CALLDATASIZE SUB DUP2 ADD SWAP1 PUSH2 0x1C4 SWAP2 SWAP1 PUSH2 0x1AD0 JUMP JUMPDEST PUSH2 0x13BE JUMP JUMPDEST PUSH1 0x40 MLOAD PUSH2 0x1DD SWAP9 SWAP8 SWAP7 SWAP6 SWAP5 SWAP4 SWAP3 SWAP2 SWAP1 PUSH2 0x1BD0 JUMP JUMPDEST PUSH1 0x40 MLOAD DUP1 SWAP2 SUB SWAP1 RETURN JUMPDEST PUSH2 0x200 PUSH1 0x4 DUP1 CALLDATASIZE SUB DUP2 ADD SWAP1 PUSH2 0x1FB SWAP2 SWAP1 PUSH2 0x1C7A JUMP JUMPDEST PUSH2 0x1466 JUMP JUMPDEST STOP JUMPDEST PUSH1 0x0 SLOAD DUP2 JUMP JUMPDEST PUSH1 0x0 PUSH1 0x1 PUSH1 0x0 DUP4 DUP2 MSTORE PUSH1 0x20 ADD SWAP1 DUP2 MSTORE PUSH1 0x20 ADD PUSH1 0x0 KECCAK256 PUSH1 0x40 MLOAD DUP1 PUSH2 0x100 ADD PUSH1 0x40 MSTORE SWAP1 DUP2 PUSH1 0x0 DUP3 ADD PUSH1 0x0 SWAP1 SLOAD SWAP1 PUSH2 0x100 EXP SWAP1 DIV PUSH20 0xFFFFFFFFFFFFFFFFFFFFFFFFFFFFFFFFFFFFFFFF AND PUSH20 0xFFFFFFFFFFFFFFFFFFFFFFFFFFFFFFFFFFFFFFFF AND PUSH20 0xFFFFFFFFFFFFFFFFFFFFFFFFFFFFFFFFFFFFFFFF AND DUP2 MSTORE PUSH1 0x20 ADD PUSH1 0x1 DUP3 ADD PUSH1 0x0 SWAP1 SLOAD SWAP1 PUSH2 0x100 EXP SWAP1 DIV PUSH20 0xFFFFFFFFFFFFFFFFFFFFFFFFFFFFFFFFFFFFFFFF AND PUSH20 0xFFFFFFFFFFFFFFFFFFFFFFFFFFFFFFFFFFFFFFFF AND PUSH20 0xFFFFFFFFFFFFFFFFFFFFFFFFFFFFFFFFFFFFFFFF AND DUP2 MSTORE PUSH1 0x20 ADD PUSH1 0x2 DUP3 ADD PUSH1 0x0 SWAP1 SLOAD SWAP1 PUSH2 0x100 EXP SWAP1 DIV PUSH20 0xFFFFFFFFFFFFFFFFFFFFFFFFFFFFFFFFFFFFFFFF AND PUSH20 0xFFFFFFFFFFFFFFFFFFFFFFFFFFFFFFFFFFFFFFFF AND PUSH20 0xFFFFFFFFFFFFFFFFFFFFFFFFFFFFFFFFFFFFFFFF AND DUP2 MSTORE PUSH1 0x20 ADD PUSH1 0x3 DUP3 ADD SLOAD DUP2 MSTORE PUSH1 0x20 ADD PUSH1 0x4 DUP3 ADD SLOAD DUP2 MSTORE PUSH1 0x20 ADD PUSH1 0x5 DUP3 ADD SLOAD DUP2 MSTORE PUSH1 0x20 ADD PUSH1 0x6 DUP3 ADD SLOAD DUP2 MSTORE PUSH1 0x20 ADD PUSH1 0x7 DUP3 ADD SLOAD DUP2 MSTORE POP POP SWAP1 POP PUSH2 0x368 DUP3 PUSH2 0x170E JUMP JUMPDEST PUSH2 0x3A7 JUMPI PUSH1 0x40 MLOAD PUSH32 0x8C379A000000000000000000000000000000000000000000000000000000000 DUP2 MSTORE PUSH1 0x4 ADD PUSH2 0x39E SWAP1 PUSH2 0x1D64 JUMP JUMPDEST PUSH1 0x40 MLOAD DUP1 SWAP2 SUB SWAP1 REVERT JUMPDEST PUSH1 0x0 PUSH1 0x2 PUSH1 0x0 DUP5 DUP2 MSTORE PUSH1 0x20 ADD SWAP1 DUP2 MSTORE PUSH1 0x20 ADD PUSH1 0x0 KECCAK256 PUSH1 0x0 DUP4 PUSH1 0xE0 ADD MLOAD DUP2 MSTORE PUSH1 0x20 ADD SWAP1 DUP2 MSTORE PUSH1 0x20 ADD PUSH1 0x0 KECCAK256 PUSH1 0x40 MLOAD DUP1 PUSH1 0x60 ADD PUSH1 0x40 MSTORE SWAP1 DUP2 PUSH1 0x0 DUP3 ADD SLOAD DUP2 MSTORE PUSH1 0x20 ADD PUSH1 0x1 DUP3 ADD SLOAD DUP2 MSTORE PUSH1 0x20 ADD PUSH1 0x2 DUP3 ADD PUSH1 0x0 SWAP1 SLOAD SWAP1 PUSH2 0x100 EXP SWAP1 DIV PUSH20 0xFFFFFFFFFFFFFFFFFFFFFFFFFFFFFFFFFFFFFFFF AND PUSH20 0xFFFFFFFFFFFFFFFFFFFFFFFFFFFFFFFFFFFFFFFF AND PUSH20 0xFFFFFFFFFFFFFFFFFFFFFFFFFFFFFFFFFFFFFFFF AND DUP2 MSTORE POP POP SWAP1 POP CALLER PUSH20 0xFFFFFFFFFFFFFFFFFFFFFFFFFFFFFFFFFFFFFFFF AND DUP2 PUSH1 0x40 ADD MLOAD PUSH20 0xFFFFFFFFFFFFFFFFFFFFFFFFFFFFFFFFFFFFFFFF AND EQ PUSH2 0x4BA JUMPI PUSH1 0x40 MLOAD PUSH32 0x8C379A000000000000000000000000000000000000000000000000000000000 DUP2 MSTORE PUSH1 0x4 ADD PUSH2 0x4B1 SWAP1 PUSH2 0x1DD0 JUMP JUMPDEST PUSH1 0x40 MLOAD DUP1 SWAP2 SUB SWAP1 REVERT JUMPDEST PUSH1 0x0 DUP3 PUSH1 0x40 ADD MLOAD SWAP1 POP DUP1 PUSH20 0xFFFFFFFFFFFFFFFFFFFFFFFFFFFFFFFFFFFFFFFF AND PUSH4 0x42842E0E ADDRESS CALLER DUP7 PUSH1 0x60 ADD MLOAD PUSH1 0x40 MLOAD DUP5 PUSH4 0xFFFFFFFF AND PUSH1 0xE0 SHL DUP2 MSTORE PUSH1 0x4 ADD PUSH2 0x504 SWAP4 SWAP3 SWAP2 SWAP1 PUSH2 0x1DF0 JUMP JUMPDEST PUSH1 0x0 PUSH1 0x40 MLOAD DUP1 DUP4 SUB DUP2 PUSH1 0x0 DUP8 DUP1 EXTCODESIZE ISZERO DUP1 ISZERO PUSH2 0x51E JUMPI PUSH1 0x0 DUP1 REVERT JUMPDEST POP GAS CALL ISZERO DUP1 ISZERO PUSH2 0x532 JUMPI RETURNDATASIZE PUSH1 0x0 DUP1 RETURNDATACOPY RETURNDATASIZE PUSH1 0x0 REVERT JUMPDEST POP POP POP POP POP POP POP POP JUMP JUMPDEST DUP1 CALLER PUSH20 0xFFFFFFFFFFFFFFFFFFFFFFFFFFFFFFFFFFFFFFFF AND PUSH1 0x1 PUSH1 0x0 DUP4 DUP2 MSTORE PUSH1 0x20 ADD SWAP1 DUP2 MSTORE PUSH1 0x20 ADD PUSH1 0x0 KECCAK256 PUSH1 0x0 ADD PUSH1 0x0 SWAP1 SLOAD SWAP1 PUSH2 0x100 EXP SWAP1 DIV PUSH20 0xFFFFFFFFFFFFFFFFFFFFFFFFFFFFFFFFFFFFFFFF AND PUSH20 0xFFFFFFFFFFFFFFFFFFFFFFFFFFFFFFFFFFFFFFFF AND EQ PUSH2 0x5E1 JUMPI PUSH1 0x40 MLOAD PUSH32 0x8C379A000000000000000000000000000000000000000000000000000000000 DUP2 MSTORE PUSH1 0x4 ADD PUSH2 0x5D8 SWAP1 PUSH2 0x1E73 JUMP JUMPDEST PUSH1 0x40 MLOAD DUP1 SWAP2 SUB SWAP1 REVERT JUMPDEST PUSH1 0x0 PUSH1 0x1 PUSH1 0x0 DUP5 DUP2 MSTORE PUSH1 0x20 ADD SWAP1 DUP2 MSTORE PUSH1 0x20 ADD PUSH1 0x0 KECCAK256 PUSH1 0x40 MLOAD DUP1 PUSH2 0x100 ADD PUSH1 0x40 MSTORE SWAP1 DUP2 PUSH1 0x0 DUP3 ADD PUSH1 0x0 SWAP1 SLOAD SWAP1 PUSH2 0x100 EXP SWAP1 DIV PUSH20 0xFFFFFFFFFFFFFFFFFFFFFFFFFFFFFFFFFFFFFFFF AND PUSH20 0xFFFFFFFFFFFFFFFFFFFFFFFFFFFFFFFFFFFFFFFF AND PUSH20 0xFFFFFFFFFFFFFFFFFFFFFFFFFFFFFFFFFFFFFFFF AND DUP2 MSTORE PUSH1 0x20 ADD PUSH1 0x1 DUP3 ADD PUSH1 0x0 SWAP1 SLOAD SWAP1 PUSH2 0x100 EXP SWAP1 DIV PUSH20 0xFFFFFFFFFFFFFFFFFFFFFFFFFFFFFFFFFFFFFFFF AND PUSH20 0xFFFFFFFFFFFFFFFFFFFFFFFFFFFFFFFFFFFFFFFF AND PUSH20 0xFFFFFFFFFFFFFFFFFFFFFFFFFFFFFFFFFFFFFFFF AND DUP2 MSTORE PUSH1 0x20 ADD PUSH1 0x2 DUP3 ADD PUSH1 0x0 SWAP1 SLOAD SWAP1 PUSH2 0x100 EXP SWAP1 DIV PUSH20 0xFFFFFFFFFFFFFFFFFFFFFFFFFFFFFFFFFFFFFFFF AND PUSH20 0xFFFFFFFFFFFFFFFFFFFFFFFFFFFFFFFFFFFFFFFF AND PUSH20 0xFFFFFFFFFFFFFFFFFFFFFFFFFFFFFFFFFFFFFFFF AND DUP2 MSTORE PUSH1 0x20 ADD PUSH1 0x3 DUP3 ADD SLOAD DUP2 MSTORE PUSH1 0x20 ADD PUSH1 0x4 DUP3 ADD SLOAD DUP2 MSTORE PUSH1 0x20 ADD PUSH1 0x5 DUP3 ADD SLOAD DUP2 MSTORE PUSH1 0x20 ADD PUSH1 0x6 DUP3 ADD SLOAD DUP2 MSTORE PUSH1 0x20 ADD PUSH1 0x7 DUP3 ADD SLOAD DUP2 MSTORE POP POP SWAP1 POP TIMESTAMP DUP2 PUSH1 0x80 ADD MLOAD GT PUSH2 0x77E JUMPI PUSH1 0x40 MLOAD PUSH32 0x8C379A000000000000000000000000000000000000000000000000000000000 DUP2 MSTORE PUSH1 0x4 ADD PUSH2 0x775 SWAP1 PUSH2 0x1EDF JUMP JUMPDEST PUSH1 0x40 MLOAD DUP1 SWAP2 SUB SWAP1 REVERT JUMPDEST PUSH2 0x786 PUSH2 0x19E4 JUMP JUMPDEST SWAP1 POP PUSH32 0xFE785EF891129B084B1C5A30E4D88EB97C97822C024CC25D5F9D806B897512E0 DUP4 PUSH1 0x40 MLOAD PUSH2 0x7B7 SWAP2 SWAP1 PUSH2 0x1A84 JUMP JUMPDEST PUSH1 0x40 MLOAD DUP1 SWAP2 SUB SWAP1 LOG1 POP POP POP JUMP JUMPDEST PUSH1 0x0 PUSH1 0x1 PUSH1 0x0 DUP4 DUP2 MSTORE PUSH1 0x20 ADD SWAP1 DUP2 MSTORE PUSH1 0x20 ADD PUSH1 0x0 KECCAK256 PUSH1 0x40 MLOAD DUP1 PUSH2 0x100 ADD PUSH1 0x40 MSTORE SWAP1 DUP2 PUSH1 0x0 DUP3 ADD PUSH1 0x0 SWAP1 SLOAD SWAP1 PUSH2 0x100 EXP SWAP1 DIV PUSH20 0xFFFFFFFFFFFFFFFFFFFFFFFFFFFFFFFFFFFFFFFF AND PUSH20 0xFFFFFFFFFFFFFFFFFFFFFFFFFFFFFFFFFFFFFFFF AND PUSH20 0xFFFFFFFFFFFFFFFFFFFFFFFFFFFFFFFFFFFFFFFF AND DUP2 MSTORE PUSH1 0x20 ADD PUSH1 0x1 DUP3 ADD PUSH1 0x0 SWAP1 SLOAD SWAP1 PUSH2 0x100 EXP SWAP1 DIV PUSH20 0xFFFFFFFFFFFFFFFFFFFFFFFFFFFFFFFFFFFFFFFF AND PUSH20 0xFFFFFFFFFFFFFFFFFFFFFFFFFFFFFFFFFFFFFFFF AND PUSH20 0xFFFFFFFFFFFFFFFFFFFFFFFFFFFFFFFFFFFFFFFF AND DUP2 MSTORE PUSH1 0x20 ADD PUSH1 0x2 DUP3 ADD PUSH1 0x0 SWAP1 SLOAD SWAP1 PUSH2 0x100 EXP SWAP1 DIV PUSH20 0xFFFFFFFFFFFFFFFFFFFFFFFFFFFFFFFFFFFFFFFF AND PUSH20 0xFFFFFFFFFFFFFFFFFFFFFFFFFFFFFFFFFFFFFFFF AND PUSH20 0xFFFFFFFFFFFFFFFFFFFFFFFFFFFFFFFFFFFFFFFF AND DUP2 MSTORE PUSH1 0x20 ADD PUSH1 0x3 DUP3 ADD SLOAD DUP2 MSTORE PUSH1 0x20 ADD PUSH1 0x4 DUP3 ADD SLOAD DUP2 MSTORE PUSH1 0x20 ADD PUSH1 0x5 DUP3 ADD SLOAD DUP2 MSTORE PUSH1 0x20 ADD PUSH1 0x6 DUP3 ADD SLOAD DUP2 MSTORE PUSH1 0x20 ADD PUSH1 0x7 DUP3 ADD SLOAD DUP2 MSTORE POP POP SWAP1 POP PUSH2 0x924 DUP3 PUSH2 0x170E JUMP JUMPDEST PUSH2 0x963 JUMPI PUSH1 0x40 MLOAD PUSH32 0x8C379A000000000000000000000000000000000000000000000000000000000 DUP2 MSTORE PUSH1 0x4 ADD PUSH2 0x95A SWAP1 PUSH2 0x1D64 JUMP JUMPDEST PUSH1 0x40 MLOAD DUP1 SWAP2 SUB SWAP1 REVERT JUMPDEST PUSH1 0x0 PUSH1 0x2 PUSH1 0x0 DUP5 DUP2 MSTORE PUSH1 0x20 ADD SWAP1 DUP2 MSTORE PUSH1 0x20 ADD PUSH1 0x0 KECCAK256 PUSH1 0x0 DUP4 PUSH1 0xE0 ADD MLOAD DUP2 MSTORE PUSH1 0x20 ADD SWAP1 DUP2 MSTORE PUSH1 0x20 ADD PUSH1 0x0 KECCAK256 PUSH1 0x40 MLOAD DUP1 PUSH1 0x60 ADD PUSH1 0x40 MSTORE SWAP1 DUP2 PUSH1 0x0 DUP3 ADD SLOAD DUP2 MSTORE PUSH1 0x20 ADD PUSH1 0x1 DUP3 ADD SLOAD DUP2 MSTORE PUSH1 0x20 ADD PUSH1 0x2 DUP3 ADD PUSH1 0x0 SWAP1 SLOAD SWAP1 PUSH2 0x100 EXP SWAP1 DIV PUSH20 0xFFFFFFFFFFFFFFFFFFFFFFFFFFFFFFFFFFFFFFFF AND PUSH20 0xFFFFFFFFFFFFFFFFFFFFFFFFFFFFFFFFFFFFFFFF AND PUSH20 0xFFFFFFFFFFFFFFFFFFFFFFFFFFFFFFFFFFFFFFFF AND DUP2 MSTORE POP POP SWAP1 POP CALLER PUSH20 0xFFFFFFFFFFFFFFFFFFFFFFFFFFFFFFFFFFFFFFFF AND DUP2 PUSH1 0x40 ADD MLOAD PUSH20 0xFFFFFFFFFFFFFFFFFFFFFFFFFFFFFFFFFFFFFFFF AND EQ PUSH2 0xA76 JUMPI PUSH1 0x40 MLOAD PUSH32 0x8C379A000000000000000000000000000000000000000000000000000000000 DUP2 MSTORE PUSH1 0x4 ADD PUSH2 0xA6D SWAP1 PUSH2 0x1DD0 JUMP JUMPDEST PUSH1 0x40 MLOAD DUP1 SWAP2 SUB SWAP1 REVERT JUMPDEST PUSH1 0x0 DUP3 PUSH1 0x40 ADD MLOAD SWAP1 POP DUP1 PUSH20 0xFFFFFFFFFFFFFFFFFFFFFFFFFFFFFFFFFFFFFFFF AND PUSH4 0x42842E0E ADDRESS CALLER DUP7 PUSH1 0x60 ADD MLOAD PUSH1 0x40 MLOAD DUP5 PUSH4 0xFFFFFFFF AND PUSH1 0xE0 SHL DUP2 MSTORE PUSH1 0x4 ADD PUSH2 0xAC0 SWAP4 SWAP3 SWAP2 SWAP1 PUSH2 0x1DF0 JUMP JUMPDEST PUSH1 0x0 PUSH1 0x40 MLOAD DUP1 DUP4 SUB DUP2 PUSH1 0x0 DUP8 DUP1 EXTCODESIZE ISZERO DUP1 ISZERO PUSH2 0xADA JUMPI PUSH1 0x0 DUP1 REVERT JUMPDEST POP GAS CALL ISZERO DUP1 ISZERO PUSH2 0xAEE JUMPI RETURNDATASIZE PUSH1 0x0 DUP1 RETURNDATACOPY RETURNDATASIZE PUSH1 0x0 REVERT JUMPDEST POP POP POP POP POP POP POP POP JUMP JUMPDEST PUSH2 0xB01 DUP3 PUSH2 0x1731 JUMP JUMPDEST PUSH2 0xB40 JUMPI PUSH1 0x40 MLOAD PUSH32 0x8C379A000000000000000000000000000000000000000000000000000000000 DUP2 MSTORE PUSH1 0x4 ADD PUSH2 0xB37 SWAP1 PUSH2 0x1F4B JUMP JUMPDEST PUSH1 0x40 MLOAD DUP1 SWAP2 SUB SWAP1 REVERT JUMPDEST PUSH2 0xB49 DUP3 PUSH2 0x170E JUMP JUMPDEST ISZERO PUSH2 0xB89 JUMPI PUSH1 0x40 MLOAD PUSH32 0x8C379A000000000000000000000000000000000000000000000000000000000 DUP2 MSTORE PUSH1 0x4 ADD PUSH2 0xB80 SWAP1 PUSH2 0x1FB7 JUMP JUMPDEST PUSH1 0x40 MLOAD DUP1 SWAP2 SUB SWAP1 REVERT JUMPDEST PUSH1 0x0 PUSH1 0x1 PUSH1 0x0 DUP5 DUP2 MSTORE PUSH1 0x20 ADD SWAP1 DUP2 MSTORE PUSH1 0x20 ADD PUSH1 0x0 KECCAK256 PUSH1 0x40 MLOAD DUP1 PUSH2 0x100 ADD PUSH1 0x40 MSTORE SWAP1 DUP2 PUSH1 0x0 DUP3 ADD PUSH1 0x0 SWAP1 SLOAD SWAP1 PUSH2 0x100 EXP SWAP1 DIV PUSH20 0xFFFFFFFFFFFFFFFFFFFFFFFFFFFFFFFFFFFFFFFF AND PUSH20 0xFFFFFFFFFFFFFFFFFFFFFFFFFFFFFFFFFFFFFFFF AND PUSH20 0xFFFFFFFFFFFFFFFFFFFFFFFFFFFFFFFFFFFFFFFF AND DUP2 MSTORE PUSH1 0x20 ADD PUSH1 0x1 DUP3 ADD PUSH1 0x0 SWAP1 SLOAD SWAP1 PUSH2 0x100 EXP SWAP1 DIV PUSH20 0xFFFFFFFFFFFFFFFFFFFFFFFFFFFFFFFFFFFFFFFF AND PUSH20 0xFFFFFFFFFFFFFFFFFFFFFFFFFFFFFFFFFFFFFFFF AND PUSH20 0xFFFFFFFFFFFFFFFFFFFFFFFFFFFFFFFFFFFFFFFF AND DUP2 MSTORE PUSH1 0x20 ADD PUSH1 0x2 DUP3 ADD PUSH1 0x0 SWAP1 SLOAD SWAP1 PUSH2 0x100 EXP SWAP1 DIV PUSH20 0xFFFFFFFFFFFFFFFFFFFFFFFFFFFFFFFFFFFFFFFF AND PUSH20 0xFFFFFFFFFFFFFFFFFFFFFFFFFFFFFFFFFFFFFFFF AND PUSH20 0xFFFFFFFFFFFFFFFFFFFFFFFFFFFFFFFFFFFFFFFF AND DUP2 MSTORE PUSH1 0x20 ADD PUSH1 0x3 DUP3 ADD SLOAD DUP2 MSTORE PUSH1 0x20 ADD PUSH1 0x4 DUP3 ADD SLOAD DUP2 MSTORE PUSH1 0x20 ADD PUSH1 0x5 DUP3 ADD SLOAD DUP2 MSTORE PUSH1 0x20 ADD PUSH1 0x6 DUP3 ADD SLOAD DUP2 MSTORE PUSH1 0x20 ADD PUSH1 0x7 DUP3 ADD SLOAD DUP2 MSTORE POP POP SWAP1 POP PUSH1 0x0 PUSH1 0x1 DUP3 PUSH1 0xE0 ADD MLOAD PUSH2 0xCF3 SWAP2 SWAP1 PUSH2 0x2006 JUMP JUMPDEST SWAP1 POP DUP1 DUP3 PUSH1 0xE0 ADD DUP2 DUP2 MSTORE POP POP PUSH1 0x0 PUSH2 0xD0A DUP6 PUSH2 0x1753 JUMP JUMPDEST SWAP1 POP DUP1 DUP5 GT PUSH2 0xD4E JUMPI PUSH1 0x40 MLOAD PUSH32 0x8C379A000000000000000000000000000000000000000000000000000000000 DUP2 MSTORE PUSH1 0x4 ADD PUSH2 0xD45 SWAP1 PUSH2 0x2086 JUMP JUMPDEST PUSH1 0x40 MLOAD DUP1 SWAP2 SUB SWAP1 REVERT JUMPDEST DUP3 PUSH1 0x20 ADD MLOAD PUSH20 0xFFFFFFFFFFFFFFFFFFFFFFFFFFFFFFFFFFFFFFFF AND PUSH4 0x23B872DD CALLER PUSH1 0x2 PUSH1 0x0 DUP10 DUP2 MSTORE PUSH1 0x20 ADD SWAP1 DUP2 MSTORE PUSH1 0x20 ADD PUSH1 0x0 KECCAK256 PUSH1 0x0 DUP7 DUP2 MSTORE PUSH1 0x20 ADD SWAP1 DUP2 MSTORE PUSH1 0x20 ADD PUSH1 0x0 KECCAK256 PUSH1 0x2 ADD PUSH1 0x0 SWAP1 SLOAD SWAP1 PUSH2 0x100 EXP SWAP1 DIV PUSH20 0xFFFFFFFFFFFFFFFFFFFFFFFFFFFFFFFFFFFFFFFF AND DUP5 PUSH1 0x40 MLOAD DUP5 PUSH4 0xFFFFFFFF AND PUSH1 0xE0 SHL DUP2 MSTORE PUSH1 0x4 ADD PUSH2 0xDD6 SWAP4 SWAP3 SWAP2 SWAP1 PUSH2 0x1DF0 JUMP JUMPDEST PUSH1 0x20 PUSH1 0x40 MLOAD DUP1 DUP4 SUB DUP2 PUSH1 0x0 DUP8 GAS CALL ISZERO DUP1 ISZERO PUSH2 0xDF5 JUMPI RETURNDATASIZE PUSH1 0x0 DUP1 RETURNDATACOPY RETURNDATASIZE PUSH1 0x0 REVERT JUMPDEST POP POP POP POP PUSH1 0x40 MLOAD RETURNDATASIZE PUSH1 0x1F NOT PUSH1 0x1F DUP3 ADD AND DUP3 ADD DUP1 PUSH1 0x40 MSTORE POP DUP2 ADD SWAP1 PUSH2 0xE19 SWAP2 SWAP1 PUSH2 0x20DE JUMP JUMPDEST POP DUP3 PUSH1 0x20 ADD MLOAD PUSH20 0xFFFFFFFFFFFFFFFFFFFFFFFFFFFFFFFFFFFFFFFF AND PUSH4 0x23B872DD CALLER DUP6 PUSH1 0x0 ADD MLOAD DUP5 DUP9 PUSH2 0xE4C SWAP2 SWAP1 PUSH2 0x210B JUMP JUMPDEST PUSH1 0x40 MLOAD DUP5 PUSH4 0xFFFFFFFF AND PUSH1 0xE0 SHL DUP2 MSTORE PUSH1 0x4 ADD PUSH2 0xE6A SWAP4 SWAP3 SWAP2 SWAP1 PUSH2 0x1DF0 JUMP JUMPDEST PUSH1 0x20 PUSH1 0x40 MLOAD DUP1 DUP4 SUB DUP2 PUSH1 0x0 DUP8 GAS CALL ISZERO DUP1 ISZERO PUSH2 0xE89 JUMPI RETURNDATASIZE PUSH1 0x0 DUP1 RETURNDATACOPY RETURNDATASIZE PUSH1 0x0 REVERT JUMPDEST POP POP POP POP PUSH1 0x40 MLOAD RETURNDATASIZE PUSH1 0x1F NOT PUSH1 0x1F DUP3 ADD AND DUP3 ADD DUP1 PUSH1 0x40 MSTORE POP DUP2 ADD SWAP1 PUSH2 0xEAD SWAP2 SWAP1 PUSH2 0x20DE JUMP JUMPDEST POP PUSH1 0x40 MLOAD DUP1 PUSH1 0x60 ADD PUSH1 0x40 MSTORE DUP1 TIMESTAMP DUP2 MSTORE PUSH1 0x20 ADD DUP6 DUP2 MSTORE PUSH1 0x20 ADD CALLER PUSH20 0xFFFFFFFFFFFFFFFFFFFFFFFFFFFFFFFFFFFFFFFF AND DUP2 MSTORE POP PUSH1 0x2 PUSH1 0x0 DUP8 DUP2 MSTORE PUSH1 0x20 ADD SWAP1 DUP2 MSTORE PUSH1 0x20 ADD PUSH1 0x0 KECCAK256 PUSH1 0x0 DUP5 DUP2 MSTORE PUSH1 0x20 ADD SWAP1 DUP2 MSTORE PUSH1 0x20 ADD PUSH1 0x0 KECCAK256 PUSH1 0x0 DUP3 ADD MLOAD DUP2 PUSH1 0x0 ADD SSTORE PUSH1 0x20 DUP3 ADD MLOAD DUP2 PUSH1 0x1 ADD SSTORE PUSH1 0x40 DUP3 ADD MLOAD DUP2 PUSH1 0x2 ADD PUSH1 0x0 PUSH2 0x100 EXP DUP2 SLOAD DUP2 PUSH20 0xFFFFFFFFFFFFFFFFFFFFFFFFFFFFFFFFFFFFFFFF MUL NOT AND SWAP1 DUP4 PUSH20 0xFFFFFFFFFFFFFFFFFFFFFFFFFFFFFFFFFFFFFFFF AND MUL OR SWAP1 SSTORE POP SWAP1 POP POP POP POP POP POP POP JUMP JUMPDEST DUP1 CALLER PUSH20 0xFFFFFFFFFFFFFFFFFFFFFFFFFFFFFFFFFFFFFFFF AND PUSH1 0x1 PUSH1 0x0 DUP4 DUP2 MSTORE PUSH1 0x20 ADD SWAP1 DUP2 MSTORE PUSH1 0x20 ADD PUSH1 0x0 KECCAK256 PUSH1 0x0 ADD PUSH1 0x0 SWAP1 SLOAD SWAP1 PUSH2 0x100 EXP SWAP1 DIV PUSH20 0xFFFFFFFFFFFFFFFFFFFFFFFFFFFFFFFFFFFFFFFF AND PUSH20 0xFFFFFFFFFFFFFFFFFFFFFFFFFFFFFFFFFFFFFFFF AND EQ PUSH2 0x100D JUMPI PUSH1 0x40 MLOAD PUSH32 0x8C379A000000000000000000000000000000000000000000000000000000000 DUP2 MSTORE PUSH1 0x4 ADD PUSH2 0x1004 SWAP1 PUSH2 0x1E73 JUMP JUMPDEST PUSH1 0x40 MLOAD DUP1 SWAP2 SUB SWAP1 REVERT JUMPDEST PUSH1 0x0 PUSH1 0x1 PUSH1 0x0 DUP5 DUP2 MSTORE PUSH1 0x20 ADD SWAP1 DUP2 MSTORE PUSH1 0x20 ADD PUSH1 0x0 KECCAK256 PUSH1 0x40 MLOAD DUP1 PUSH2 0x100 ADD PUSH1 0x40 MSTORE SWAP1 DUP2 PUSH1 0x0 DUP3 ADD PUSH1 0x0 SWAP1 SLOAD SWAP1 PUSH2 0x100 EXP SWAP1 DIV PUSH20 0xFFFFFFFFFFFFFFFFFFFFFFFFFFFFFFFFFFFFFFFF AND PUSH20 0xFFFFFFFFFFFFFFFFFFFFFFFFFFFFFFFFFFFFFFFF AND PUSH20 0xFFFFFFFFFFFFFFFFFFFFFFFFFFFFFFFFFFFFFFFF AND DUP2 MSTORE PUSH1 0x20 ADD PUSH1 0x1 DUP3 ADD PUSH1 0x0 SWAP1 SLOAD SWAP1 PUSH2 0x100 EXP SWAP1 DIV PUSH20 0xFFFFFFFFFFFFFFFFFFFFFFFFFFFFFFFFFFFFFFFF AND PUSH20 0xFFFFFFFFFFFFFFFFFFFFFFFFFFFFFFFFFFFFFFFF AND PUSH20 0xFFFFFFFFFFFFFFFFFFFFFFFFFFFFFFFFFFFFFFFF AND DUP2 MSTORE PUSH1 0x20 ADD PUSH1 0x2 DUP3 ADD PUSH1 0x0 SWAP1 SLOAD SWAP1 PUSH2 0x100 EXP SWAP1 DIV PUSH20 0xFFFFFFFFFFFFFFFFFFFFFFFFFFFFFFFFFFFFFFFF AND PUSH20 0xFFFFFFFFFFFFFFFFFFFFFFFFFFFFFFFFFFFFFFFF AND PUSH20 0xFFFFFFFFFFFFFFFFFFFFFFFFFFFFFFFFFFFFFFFF AND DUP2 MSTORE PUSH1 0x20 ADD PUSH1 0x3 DUP3 ADD SLOAD DUP2 MSTORE PUSH1 0x20 ADD PUSH1 0x4 DUP3 ADD SLOAD DUP2 MSTORE PUSH1 0x20 ADD PUSH1 0x5 DUP3 ADD SLOAD DUP2 MSTORE PUSH1 0x20 ADD PUSH1 0x6 DUP3 ADD SLOAD DUP2 MSTORE PUSH1 0x20 ADD PUSH1 0x7 DUP3 ADD SLOAD DUP2 MSTORE POP POP SWAP1 POP PUSH1 0x0 PUSH1 0x2 PUSH1 0x0 DUP6 DUP2 MSTORE PUSH1 0x20 ADD SWAP1 DUP2 MSTORE PUSH1 0x20 ADD PUSH1 0x0 KECCAK256 PUSH1 0x0 DUP4 PUSH1 0xE0 ADD MLOAD DUP2 MSTORE PUSH1 0x20 ADD SWAP1 DUP2 MSTORE PUSH1 0x20 ADD PUSH1 0x0 KECCAK256 PUSH1 0x40 MLOAD DUP1 PUSH1 0x60 ADD PUSH1 0x40 MSTORE SWAP1 DUP2 PUSH1 0x0 DUP3 ADD SLOAD DUP2 MSTORE PUSH1 0x20 ADD PUSH1 0x1 DUP3 ADD SLOAD DUP2 MSTORE PUSH1 0x20 ADD PUSH1 0x2 DUP3 ADD PUSH1 0x0 SWAP1 SLOAD SWAP1 PUSH2 0x100 EXP SWAP1 DIV PUSH20 0xFFFFFFFFFFFFFFFFFFFFFFFFFFFFFFFFFFFFFFFF AND PUSH20 0xFFFFFFFFFFFFFFFFFFFFFFFFFFFFFFFFFFFFFFFF AND PUSH20 0xFFFFFFFFFFFFFFFFFFFFFFFFFFFFFFFFFFFFFFFF AND DUP2 MSTORE POP POP SWAP1 POP DUP2 PUSH1 0x20 ADD MLOAD PUSH20 0xFFFFFFFFFFFFFFFFFFFFFFFFFFFFFFFFFFFFFFFF AND PUSH4 0x23B872DD CALLER DUP4 PUSH1 0x40 ADD MLOAD PUSH2 0x1234 DUP9 PUSH2 0x1753 JUMP JUMPDEST PUSH1 0x40 MLOAD DUP5 PUSH4 0xFFFFFFFF AND PUSH1 0xE0 SHL DUP2 MSTORE PUSH1 0x4 ADD PUSH2 0x1252 SWAP4 SWAP3 SWAP2 SWAP1 PUSH2 0x1DF0 JUMP JUMPDEST PUSH1 0x20 PUSH1 0x40 MLOAD DUP1 DUP4 SUB DUP2 PUSH1 0x0 DUP8 GAS CALL ISZERO DUP1 ISZERO PUSH2 0x1271 JUMPI RETURNDATASIZE PUSH1 0x0 DUP1 RETURNDATACOPY RETURNDATASIZE PUSH1 0x0 REVERT JUMPDEST POP POP POP POP PUSH1 0x40 MLOAD RETURNDATASIZE PUSH1 0x1F NOT PUSH1 0x1F DUP3 ADD AND DUP3 ADD DUP1 PUSH1 0x40 MSTORE POP DUP2 ADD SWAP1 PUSH2 0x1295 SWAP2 SWAP1 PUSH2 0x20DE JUMP JUMPDEST POP PUSH1 0x0 DUP3 PUSH1 0x40 ADD MLOAD SWAP1 POP DUP1 PUSH20 0xFFFFFFFFFFFFFFFFFFFFFFFFFFFFFFFFFFFFFFFF AND PUSH4 0x42842E0E ADDRESS CALLER DUP7 PUSH1 0x60 ADD MLOAD PUSH1 0x40 MLOAD DUP5 PUSH4 0xFFFFFFFF AND PUSH1 0xE0 SHL DUP2 MSTORE PUSH1 0x4 ADD PUSH2 0x12E0 SWAP4 SWAP3 SWAP2 SWAP1 PUSH2 0x1DF0 JUMP JUMPDEST PUSH1 0x0 PUSH1 0x40 MLOAD DUP1 DUP4 SUB DUP2 PUSH1 0x0 DUP8 DUP1 EXTCODESIZE ISZERO DUP1 ISZERO PUSH2 0x12FA JUMPI PUSH1 0x0 DUP1 REVERT JUMPDEST POP GAS CALL ISZERO DUP1 ISZERO PUSH2 0x130E JUMPI RETURNDATASIZE PUSH1 0x0 DUP1 RETURNDATACOPY RETURNDATASIZE PUSH1 0x0 REVERT JUMPDEST POP POP POP POP POP POP POP POP POP JUMP JUMPDEST PUSH1 0x2 PUSH1 0x20 MSTORE DUP2 PUSH1 0x0 MSTORE PUSH1 0x40 PUSH1 0x0 KECCAK256 PUSH1 0x20 MSTORE DUP1 PUSH1 0x0 MSTORE PUSH1 0x40 PUSH1 0x0 KECCAK256 PUSH1 0x0 SWAP2 POP SWAP2 POP POP DUP1 PUSH1 0x0 ADD SLOAD SWAP1 DUP1 PUSH1 0x1 ADD SLOAD SWAP1 DUP1 PUSH1 0x2 ADD PUSH1 0x0 SWAP1 SLOAD SWAP1 PUSH2 0x100 EXP SWAP1 DIV PUSH20 0xFFFFFFFFFFFFFFFFFFFFFFFFFFFFFFFFFFFFFFFF AND SWAP1 POP DUP4 JUMP JUMPDEST PUSH1 0x3 PUSH1 0x20 MSTORE DUP2 PUSH1 0x0 MSTORE PUSH1 0x40 PUSH1 0x0 KECCAK256 DUP2 DUP2 SLOAD DUP2 LT PUSH2 0x138C JUMPI PUSH1 0x0 DUP1 REVERT JUMPDEST SWAP1 PUSH1 0x0 MSTORE PUSH1 0x20 PUSH1 0x0 KECCAK256 ADD PUSH1 0x0 SWAP2 POP SWAP2 POP SWAP1 SLOAD SWAP1 PUSH2 0x100 EXP SWAP1 DIV PUSH20 0xFFFFFFFFFFFFFFFFFFFFFFFFFFFFFFFFFFFFFFFF AND DUP2 JUMP JUMPDEST PUSH1 0x1 PUSH1 0x20 MSTORE DUP1 PUSH1 0x0 MSTORE PUSH1 0x40 PUSH1 0x0 KECCAK256 PUSH1 0x0 SWAP2 POP SWAP1 POP DUP1 PUSH1 0x0 ADD PUSH1 0x0 SWAP1 SLOAD SWAP1 PUSH2 0x100 EXP SWAP1 DIV PUSH20 0xFFFFFFFFFFFFFFFFFFFFFFFFFFFFFFFFFFFFFFFF AND SWAP1 DUP1 PUSH1 0x1 ADD PUSH1 0x0 SWAP1 SLOAD SWAP1 PUSH2 0x100 EXP SWAP1 DIV PUSH20 0xFFFFFFFFFFFFFFFFFFFFFFFFFFFFFFFFFFFFFFFF AND SWAP1 DUP1 PUSH1 0x2 ADD PUSH1 0x0 SWAP1 SLOAD SWAP1 PUSH2 0x100 EXP SWAP1 DIV PUSH20 0xFFFFFFFFFFFFFFFFFFFFFFFFFFFFFFFFFFFFFFFF AND SWAP1 DUP1 PUSH1 0x3 ADD SLOAD SWAP1 DUP1 PUSH1 0x4 ADD SLOAD SWAP1 DUP1 PUSH1 0x5 ADD SLOAD SWAP1 DUP1 PUSH1 0x6 ADD SLOAD SWAP1 DUP1 PUSH1 0x7 ADD SLOAD SWAP1 POP DUP9 JUMP JUMPDEST TIMESTAMP DUP4 LT ISZERO PUSH2 0x14A9 JUMPI PUSH1 0x40 MLOAD PUSH32 0x8C379A000000000000000000000000000000000000000000000000000000000 DUP2 MSTORE PUSH1 0x4 ADD PUSH2 0x14A0 SWAP1 PUSH2 0x218B JUMP JUMPDEST PUSH1 0x40 MLOAD DUP1 SWAP2 SUB SWAP1 REVERT JUMPDEST DUP3 DUP3 GT PUSH2 0x14EB JUMPI PUSH1 0x40 MLOAD PUSH32 0x8C379A000000000000000000000000000000000000000000000000000000000 DUP2 MSTORE PUSH1 0x4 ADD PUSH2 0x14E2 SWAP1 PUSH2 0x21F7 JUMP JUMPDEST PUSH1 0x40 MLOAD DUP1 SWAP2 SUB SWAP1 REVERT JUMPDEST PUSH1 0x40 MLOAD DUP1 PUSH2 0x100 ADD PUSH1 0x40 MSTORE DUP1 CALLER PUSH20 0xFFFFFFFFFFFFFFFFFFFFFFFFFFFFFFFFFFFFFFFF AND DUP2 MSTORE PUSH1 0x20 ADD DUP8 PUSH20 0xFFFFFFFFFFFFFFFFFFFFFFFFFFFFFFFFFFFFFFFF AND DUP2 MSTORE PUSH1 0x20 ADD DUP7 PUSH20 0xFFFFFFFFFFFFFFFFFFFFFFFFFFFFFFFFFFFFFFFF AND DUP2 MSTORE PUSH1 0x20 ADD DUP6 DUP2 MSTORE PUSH1 0x20 ADD DUP5 DUP2 MSTORE PUSH1 0x20 ADD DUP4 DUP2 MSTORE PUSH1 0x20 ADD DUP3 DUP2 MSTORE PUSH1 0x20 ADD PUSH1 0x0 DUP2 MSTORE POP PUSH1 0x1 PUSH1 0x0 DUP1 SLOAD DUP2 MSTORE PUSH1 0x20 ADD SWAP1 DUP2 MSTORE PUSH1 0x20 ADD PUSH1 0x0 KECCAK256 PUSH1 0x0 DUP3 ADD MLOAD DUP2 PUSH1 0x0 ADD PUSH1 0x0 PUSH2 0x100 EXP DUP2 SLOAD DUP2 PUSH20 0xFFFFFFFFFFFFFFFFFFFFFFFFFFFFFFFFFFFFFFFF MUL NOT AND SWAP1 DUP4 PUSH20 0xFFFFFFFFFFFFFFFFFFFFFFFFFFFFFFFFFFFFFFFF AND MUL OR SWAP1 SSTORE POP PUSH1 0x20 DUP3 ADD MLOAD DUP2 PUSH1 0x1 ADD PUSH1 0x0 PUSH2 0x100 EXP DUP2 SLOAD DUP2 PUSH20 0xFFFFFFFFFFFFFFFFFFFFFFFFFFFFFFFFFFFFFFFF MUL NOT AND SWAP1 DUP4 PUSH20 0xFFFFFFFFFFFFFFFFFFFFFFFFFFFFFFFFFFFFFFFF AND MUL OR SWAP1 SSTORE POP PUSH1 0x40 DUP3 ADD MLOAD DUP2 PUSH1 0x2 ADD PUSH1 0x0 PUSH2 0x100 EXP DUP2 SLOAD DUP2 PUSH20 0xFFFFFFFFFFFFFFFFFFFFFFFFFFFFFFFFFFFFFFFF MUL NOT AND SWAP1 DUP4 PUSH20 0xFFFFFFFFFFFFFFFFFFFFFFFFFFFFFFFFFFFFFFFF AND MUL OR SWAP1 SSTORE POP PUSH1 0x60 DUP3 ADD MLOAD DUP2 PUSH1 0x3 ADD SSTORE PUSH1 0x80 DUP3 ADD MLOAD DUP2 PUSH1 0x4 ADD SSTORE PUSH1 0xA0 DUP3 ADD MLOAD DUP2 PUSH1 0x5 ADD SSTORE PUSH1 0xC0 DUP3 ADD MLOAD DUP2 PUSH1 0x6 ADD SSTORE PUSH1 0xE0 DUP3 ADD MLOAD DUP2 PUSH1 0x7 ADD SSTORE SWAP1 POP POP TIMESTAMP PUSH1 0x2 PUSH1 0x0 DUP1 SLOAD DUP2 MSTORE PUSH1 0x20 ADD SWAP1 DUP2 MSTORE PUSH1 0x20 ADD PUSH1 0x0 KECCAK256 PUSH1 0x0 DUP1 DUP2 MSTORE PUSH1 0x20 ADD SWAP1 DUP2 MSTORE PUSH1 0x20 ADD PUSH1 0x0 KECCAK256 PUSH1 0x0 ADD DUP2 SWAP1 SSTORE POP PUSH1 0x0 SLOAD PUSH32 0xEF8B2952C43462575E82711D0CC91169720A4589A9FA533D173E022437F5405E DUP7 DUP7 PUSH1 0x40 MLOAD PUSH2 0x16E7 SWAP3 SWAP2 SWAP1 PUSH2 0x2217 JUMP JUMPDEST PUSH1 0x40 MLOAD DUP1 SWAP2 SUB SWAP1 LOG2 PUSH1 0x0 DUP1 DUP2 SLOAD DUP1 SWAP3 SWAP2 SWAP1 PUSH2 0x1701 SWAP1 PUSH2 0x2240 JUMP JUMPDEST SWAP2 SWAP1 POP SSTORE POP POP POP POP POP POP POP JUMP JUMPDEST PUSH1 0x0 TIMESTAMP PUSH1 0x1 PUSH1 0x0 DUP5 DUP2 MSTORE PUSH1 0x20 ADD SWAP1 DUP2 MSTORE PUSH1 0x20 ADD PUSH1 0x0 KECCAK256 PUSH1 0x5 ADD SLOAD GT ISZERO SWAP1 POP SWAP2 SWAP1 POP JUMP JUMPDEST PUSH1 0x0 TIMESTAMP PUSH1 0x1 PUSH1 0x0 DUP5 DUP2 MSTORE PUSH1 0x20 ADD SWAP1 DUP2 MSTORE PUSH1 0x20 ADD PUSH1 0x0 KECCAK256 PUSH1 0x4 ADD SLOAD LT SWAP1 POP SWAP2 SWAP1 POP JUMP JUMPDEST PUSH1 0x0 DUP1 PUSH1 0x1 PUSH1 0x0 DUP5 DUP2 MSTORE PUSH1 0x20 ADD SWAP1 DUP2 MSTORE PUSH1 0x20 ADD PUSH1 0x0 KECCAK256 PUSH1 0x40 MLOAD DUP1 PUSH2 0x100 ADD PUSH1 0x40 MSTORE SWAP1 DUP2 PUSH1 0x0 DUP3 ADD PUSH1 0x0 SWAP1 SLOAD SWAP1 PUSH2 0x100 EXP SWAP1 DIV PUSH20 0xFFFFFFFFFFFFFFFFFFFFFFFFFFFFFFFFFFFFFFFF AND PUSH20 0xFFFFFFFFFFFFFFFFFFFFFFFFFFFFFFFFFFFFFFFF AND PUSH20 0xFFFFFFFFFFFFFFFFFFFFFFFFFFFFFFFFFFFFFFFF AND DUP2 MSTORE PUSH1 0x20 ADD PUSH1 0x1 DUP3 ADD PUSH1 0x0 SWAP1 SLOAD SWAP1 PUSH2 0x100 EXP SWAP1 DIV PUSH20 0xFFFFFFFFFFFFFFFFFFFFFFFFFFFFFFFFFFFFFFFF AND PUSH20 0xFFFFFFFFFFFFFFFFFFFFFFFFFFFFFFFFFFFFFFFF AND PUSH20 0xFFFFFFFFFFFFFFFFFFFFFFFFFFFFFFFFFFFFFFFF AND DUP2 MSTORE PUSH1 0x20 ADD PUSH1 0x2 DUP3 ADD PUSH1 0x0 SWAP1 SLOAD SWAP1 PUSH2 0x100 EXP SWAP1 DIV PUSH20 0xFFFFFFFFFFFFFFFFFFFFFFFFFFFFFFFFFFFFFFFF AND PUSH20 0xFFFFFFFFFFFFFFFFFFFFFFFFFFFFFFFFFFFFFFFF AND PUSH20 0xFFFFFFFFFFFFFFFFFFFFFFFFFFFFFFFFFFFFFFFF AND DUP2 MSTORE PUSH1 0x20 ADD PUSH1 0x3 DUP3 ADD SLOAD DUP2 MSTORE PUSH1 0x20 ADD PUSH1 0x4 DUP3 ADD SLOAD DUP2 MSTORE PUSH1 0x20 ADD PUSH1 0x5 DUP3 ADD SLOAD DUP2 MSTORE PUSH1 0x20 ADD PUSH1 0x6 DUP3 ADD SLOAD DUP2 MSTORE PUSH1 0x20 ADD PUSH1 0x7 DUP3 ADD SLOAD DUP2 MSTORE POP POP SWAP1 POP PUSH1 0x0 PUSH1 0x2 PUSH1 0x0 DUP6 DUP2 MSTORE PUSH1 0x20 ADD SWAP1 DUP2 MSTORE PUSH1 0x20 ADD PUSH1 0x0 KECCAK256 PUSH1 0x0 DUP4 PUSH1 0xE0 ADD MLOAD DUP2 MSTORE PUSH1 0x20 ADD SWAP1 DUP2 MSTORE PUSH1 0x20 ADD PUSH1 0x0 KECCAK256 PUSH1 0x40 MLOAD DUP1 PUSH1 0x60 ADD PUSH1 0x40 MSTORE SWAP1 DUP2 PUSH1 0x0 DUP3 ADD SLOAD DUP2 MSTORE PUSH1 0x20 ADD PUSH1 0x1 DUP3 ADD SLOAD DUP2 MSTORE PUSH1 0x20 ADD PUSH1 0x2 DUP3 ADD PUSH1 0x0 SWAP1 SLOAD SWAP1 PUSH2 0x100 EXP SWAP1 DIV PUSH20 0xFFFFFFFFFFFFFFFFFFFFFFFFFFFFFFFFFFFFFFFF AND PUSH20 0xFFFFFFFFFFFFFFFFFFFFFFFFFFFFFFFFFFFFFFFF AND PUSH20 0xFFFFFFFFFFFFFFFFFFFFFFFFFFFFFFFFFFFFFFFF AND DUP2 MSTORE POP POP SWAP1 POP PUSH1 0x0 PUSH2 0x1957 DUP6 PUSH2 0x170E JUMP JUMPDEST ISZERO PUSH2 0x1977 JUMPI DUP3 PUSH1 0xA0 ADD MLOAD DUP3 PUSH1 0x0 ADD MLOAD PUSH2 0x1970 SWAP2 SWAP1 PUSH2 0x210B JUMP JUMPDEST SWAP1 POP PUSH2 0x198A JUMP JUMPDEST TIMESTAMP DUP3 PUSH1 0x0 ADD MLOAD PUSH2 0x1987 SWAP2 SWAP1 PUSH2 0x210B JUMP JUMPDEST SWAP1 POP JUMPDEST PUSH4 0x1E13380 DUP2 PUSH8 0xDE0B6B3A7640000 DUP6 PUSH1 0xC0 ADD MLOAD DUP6 PUSH1 0x20 ADD MLOAD PUSH2 0x19AD SWAP2 SWAP1 PUSH2 0x2288 JUMP JUMPDEST PUSH2 0x19B7 SWAP2 SWAP1 PUSH2 0x2311 JUMP JUMPDEST PUSH2 0x19C1 SWAP2 SWAP1 PUSH2 0x2288 JUMP JUMPDEST PUSH2 0x19CB SWAP2 SWAP1 PUSH2 0x2311 JUMP JUMPDEST DUP3 PUSH1 0x20 ADD MLOAD PUSH2 0x19DA SWAP2 SWAP1 PUSH2 0x2006 JUMP JUMPDEST SWAP4 POP POP POP POP SWAP2 SWAP1 POP JUMP JUMPDEST PUSH1 0x40 MLOAD DUP1 PUSH2 0x100 ADD PUSH1 0x40 MSTORE DUP1 PUSH1 0x0 PUSH20 0xFFFFFFFFFFFFFFFFFFFFFFFFFFFFFFFFFFFFFFFF AND DUP2 MSTORE PUSH1 0x20 ADD PUSH1 0x0 PUSH20 0xFFFFFFFFFFFFFFFFFFFFFFFFFFFFFFFFFFFFFFFF AND DUP2 MSTORE PUSH1 0x20 ADD PUSH1 0x0 PUSH20 0xFFFFFFFFFFFFFFFFFFFFFFFFFFFFFFFFFFFFFFFF AND DUP2 MSTORE PUSH1 0x20 ADD PUSH1 0x0 DUP2 MSTORE PUSH1 0x20 ADD PUSH1 0x0 DUP2 MSTORE PUSH1 0x20 ADD PUSH1 0x0 DUP2 MSTORE PUSH1 0x20 ADD PUSH1 0x0 DUP2 MSTORE PUSH1 0x20 ADD PUSH1 0x0 DUP2 MSTORE POP SWAP1 JUMP JUMPDEST PUSH1 0x0 DUP2 SWAP1 POP SWAP2 SWAP1 POP JUMP JUMPDEST PUSH2 0x1A7E DUP2 PUSH2 0x1A6B JUMP JUMPDEST DUP3 MSTORE POP POP JUMP JUMPDEST PUSH1 0x0 PUSH1 0x20 DUP3 ADD SWAP1 POP PUSH2 0x1A99 PUSH1 0x0 DUP4 ADD DUP5 PUSH2 0x1A75 JUMP JUMPDEST SWAP3 SWAP2 POP POP JUMP JUMPDEST PUSH1 0x0 DUP1 REVERT JUMPDEST PUSH2 0x1AAD DUP2 PUSH2 0x1A6B JUMP JUMPDEST DUP2 EQ PUSH2 0x1AB8 JUMPI PUSH1 0x0 DUP1 REVERT JUMPDEST POP JUMP JUMPDEST PUSH1 0x0 DUP2 CALLDATALOAD SWAP1 POP PUSH2 0x1ACA DUP2 PUSH2 0x1AA4 JUMP JUMPDEST SWAP3 SWAP2 POP POP JUMP JUMPDEST PUSH1 0x0 PUSH1 0x20 DUP3 DUP5 SUB SLT ISZERO PUSH2 0x1AE6 JUMPI PUSH2 0x1AE5 PUSH2 0x1A9F JUMP JUMPDEST JUMPDEST PUSH1 0x0 PUSH2 0x1AF4 DUP5 DUP3 DUP6 ADD PUSH2 0x1ABB JUMP JUMPDEST SWAP2 POP POP SWAP3 SWAP2 POP POP JUMP JUMPDEST PUSH1 0x0 DUP1 PUSH1 0x40 DUP4 DUP6 SUB SLT ISZERO PUSH2 0x1B14 JUMPI PUSH2 0x1B13 PUSH2 0x1A9F JUMP JUMPDEST JUMPDEST PUSH1 0x0 PUSH2 0x1B22 DUP6 DUP3 DUP7 ADD PUSH2 0x1ABB JUMP JUMPDEST SWAP3 POP POP PUSH1 0x20 PUSH2 0x1B33 DUP6 DUP3 DUP7 ADD PUSH2 0x1ABB JUMP JUMPDEST SWAP2 POP POP SWAP3 POP SWAP3 SWAP1 POP JUMP JUMPDEST PUSH1 0x0 PUSH20 0xFFFFFFFFFFFFFFFFFFFFFFFFFFFFFFFFFFFFFFFF DUP3 AND SWAP1 POP SWAP2 SWAP1 POP JUMP JUMPDEST PUSH1 0x0 PUSH2 0x1B68 DUP3 PUSH2 0x1B3D JUMP JUMPDEST SWAP1 POP SWAP2 SWAP1 POP JUMP JUMPDEST PUSH2 0x1B78 DUP2 PUSH2 0x1B5D JUMP JUMPDEST DUP3 MSTORE POP POP JUMP JUMPDEST PUSH1 0x0 PUSH1 0x60 DUP3 ADD SWAP1 POP PUSH2 0x1B93 PUSH1 0x0 DUP4 ADD DUP7 PUSH2 0x1A75 JUMP JUMPDEST PUSH2 0x1BA0 PUSH1 0x20 DUP4 ADD DUP6 PUSH2 0x1A75 JUMP JUMPDEST PUSH2 0x1BAD PUSH1 0x40 DUP4 ADD DUP5 PUSH2 0x1B6F JUMP JUMPDEST SWAP5 SWAP4 POP POP POP POP JUMP JUMPDEST PUSH1 0x0 PUSH1 0x20 DUP3 ADD SWAP1 POP PUSH2 0x1BCA PUSH1 0x0 DUP4 ADD DUP5 PUSH2 0x1B6F JUMP JUMPDEST SWAP3 SWAP2 POP POP JUMP JUMPDEST PUSH1 0x0 PUSH2 0x100 DUP3 ADD SWAP1 POP PUSH2 0x1BE6 PUSH1 0x0 DUP4 ADD DUP12 PUSH2 0x1B6F JUMP JUMPDEST PUSH2 0x1BF3 PUSH1 0x20 DUP4 ADD DUP11 PUSH2 0x1B6F JUMP JUMPDEST PUSH2 0x1C00 PUSH1 0x40 DUP4 ADD DUP10 PUSH2 0x1B6F JUMP JUMPDEST PUSH2 0x1C0D PUSH1 0x60 DUP4 ADD DUP9 PUSH2 0x1A75 JUMP JUMPDEST PUSH2 0x1C1A PUSH1 0x80 DUP4 ADD DUP8 PUSH2 0x1A75 JUMP JUMPDEST PUSH2 0x1C27 PUSH1 0xA0 DUP4 ADD DUP7 PUSH2 0x1A75 JUMP JUMPDEST PUSH2 0x1C34 PUSH1 0xC0 DUP4 ADD DUP6 PUSH2 0x1A75 JUMP JUMPDEST PUSH2 0x1C41 PUSH1 0xE0 DUP4 ADD DUP5 PUSH2 0x1A75 JUMP JUMPDEST SWAP10 SWAP9 POP POP POP POP POP POP POP POP POP JUMP JUMPDEST PUSH2 0x1C57 DUP2 PUSH2 0x1B5D JUMP JUMPDEST DUP2 EQ PUSH2 0x1C62 JUMPI PUSH1 0x0 DUP1 REVERT JUMPDEST POP JUMP JUMPDEST PUSH1 0x0 DUP2 CALLDATALOAD SWAP1 POP PUSH2 0x1C74 DUP2 PUSH2 0x1C4E JUMP JUMPDEST SWAP3 SWAP2 POP POP JUMP JUMPDEST PUSH1 0x0 DUP1 PUSH1 0x0 DUP1 PUSH1 0x0 DUP1 PUSH1 0xC0 DUP8 DUP10 SUB SLT ISZERO PUSH2 0x1C97 JUMPI PUSH2 0x1C96 PUSH2 0x1A9F JUMP JUMPDEST JUMPDEST PUSH1 0x0 PUSH2 0x1CA5 DUP10 DUP3 DUP11 ADD PUSH2 0x1C65 JUMP JUMPDEST SWAP7 POP POP PUSH1 0x20 PUSH2 0x1CB6 DUP10 DUP3 DUP11 ADD PUSH2 0x1C65 JUMP JUMPDEST SWAP6 POP POP PUSH1 0x40 PUSH2 0x1CC7 DUP10 DUP3 DUP11 ADD PUSH2 0x1ABB JUMP JUMPDEST SWAP5 POP POP PUSH1 0x60 PUSH2 0x1CD8 DUP10 DUP3 DUP11 ADD PUSH2 0x1ABB JUMP JUMPDEST SWAP4 POP POP PUSH1 0x80 PUSH2 0x1CE9 DUP10 DUP3 DUP11 ADD PUSH2 0x1ABB JUMP JUMPDEST SWAP3 POP POP PUSH1 0xA0 PUSH2 0x1CFA DUP10 DUP3 DUP11 ADD PUSH2 0x1ABB JUMP JUMPDEST SWAP2 POP POP SWAP3 SWAP6 POP SWAP3 SWAP6 POP SWAP3 SWAP6 JUMP JUMPDEST PUSH1 0x0 DUP3 DUP3 MSTORE PUSH1 0x20 DUP3 ADD SWAP1 POP SWAP3 SWAP2 POP POP JUMP JUMPDEST PUSH32 0x4C414E3A206C6F616E206E6F7420656E64656400000000000000000000000000 PUSH1 0x0 DUP3 ADD MSTORE POP JUMP JUMPDEST PUSH1 0x0 PUSH2 0x1D4E PUSH1 0x13 DUP4 PUSH2 0x1D07 JUMP JUMPDEST SWAP2 POP PUSH2 0x1D59 DUP3 PUSH2 0x1D18 JUMP JUMPDEST PUSH1 0x20 DUP3 ADD SWAP1 POP SWAP2 SWAP1 POP JUMP JUMPDEST PUSH1 0x0 PUSH1 0x20 DUP3 ADD SWAP1 POP DUP2 DUP2 SUB PUSH1 0x0 DUP4 ADD MSTORE PUSH2 0x1D7D DUP2 PUSH2 0x1D41 JUMP JUMPDEST SWAP1 POP SWAP2 SWAP1 POP JUMP JUMPDEST PUSH32 0x4C414E3A206E6F74206C61746573742062696464657200000000000000000000 PUSH1 0x0 DUP3 ADD MSTORE POP JUMP JUMPDEST PUSH1 0x0 PUSH2 0x1DBA PUSH1 0x16 DUP4 PUSH2 0x1D07 JUMP JUMPDEST SWAP2 POP PUSH2 0x1DC5 DUP3 PUSH2 0x1D84 JUMP JUMPDEST PUSH1 0x20 DUP3 ADD SWAP1 POP SWAP2 SWAP1 POP JUMP JUMPDEST PUSH1 0x0 PUSH1 0x20 DUP3 ADD SWAP1 POP DUP2 DUP2 SUB PUSH1 0x0 DUP4 ADD MSTORE PUSH2 0x1DE9 DUP2 PUSH2 0x1DAD JUMP JUMPDEST SWAP1 POP SWAP2 SWAP1 POP JUMP JUMPDEST PUSH1 0x0 PUSH1 0x60 DUP3 ADD SWAP1 POP PUSH2 0x1E05 PUSH1 0x0 DUP4 ADD DUP7 PUSH2 0x1B6F JUMP JUMPDEST PUSH2 0x1E12 PUSH1 0x20 DUP4 ADD DUP6 PUSH2 0x1B6F JUMP JUMPDEST PUSH2 0x1E1F PUSH1 0x40 DUP4 ADD DUP5 PUSH2 0x1A75 JUMP JUMPDEST SWAP5 SWAP4 POP POP POP POP JUMP JUMPDEST PUSH32 0x4C414E3A206E6F74206F776E6572000000000000000000000000000000000000 PUSH1 0x0 DUP3 ADD MSTORE POP JUMP JUMPDEST PUSH1 0x0 PUSH2 0x1E5D PUSH1 0xE DUP4 PUSH2 0x1D07 JUMP JUMPDEST SWAP2 POP PUSH2 0x1E68 DUP3 PUSH2 0x1E27 JUMP JUMPDEST PUSH1 0x20 DUP3 ADD SWAP1 POP SWAP2 SWAP1 POP JUMP JUMPDEST PUSH1 0x0 PUSH1 0x20 DUP3 ADD SWAP1 POP DUP2 DUP2 SUB PUSH1 0x0 DUP4 ADD MSTORE PUSH2 0x1E8C DUP2 PUSH2 0x1E50 JUMP JUMPDEST SWAP1 POP SWAP2 SWAP1 POP JUMP JUMPDEST PUSH32 0x4C414E3A20616C72656164792073746172746564000000000000000000000000 PUSH1 0x0 DUP3 ADD MSTORE POP JUMP JUMPDEST PUSH1 0x0 PUSH2 0x1EC9 PUSH1 0x14 DUP4 PUSH2 0x1D07 JUMP JUMPDEST SWAP2 POP PUSH2 0x1ED4 DUP3 PUSH2 0x1E93 JUMP JUMPDEST PUSH1 0x20 DUP3 ADD SWAP1 POP SWAP2 SWAP1 POP JUMP JUMPDEST PUSH1 0x0 PUSH1 0x20 DUP3 ADD SWAP1 POP DUP2 DUP2 SUB PUSH1 0x0 DUP4 ADD MSTORE PUSH2 0x1EF8 DUP2 PUSH2 0x1EBC JUMP JUMPDEST SWAP1 POP SWAP2 SWAP1 POP JUMP JUMPDEST PUSH32 0x4C414E3A206E6F74207374617274656400000000000000000000000000000000 PUSH1 0x0 DUP3 ADD MSTORE POP JUMP JUMPDEST PUSH1 0x0 PUSH2 0x1F35 PUSH1 0x10 DUP4 PUSH2 0x1D07 JUMP JUMPDEST SWAP2 POP PUSH2 0x1F40 DUP3 PUSH2 0x1EFF JUMP JUMPDEST PUSH1 0x20 DUP3 ADD SWAP1 POP SWAP2 SWAP1 POP JUMP JUMPDEST PUSH1 0x0 PUSH1 0x20 DUP3 ADD SWAP1 POP DUP2 DUP2 SUB PUSH1 0x0 DUP4 ADD MSTORE PUSH2 0x1F64 DUP2 PUSH2 0x1F28 JUMP JUMPDEST SWAP1 POP SWAP2 SWAP1 POP JUMP JUMPDEST PUSH32 0x4C414E3A20616C726561647920656E6465640000000000000000000000000000 PUSH1 0x0 DUP3 ADD MSTORE POP JUMP JUMPDEST PUSH1 0x0 PUSH2 0x1FA1 PUSH1 0x12 DUP4 PUSH2 0x1D07 JUMP JUMPDEST SWAP2 POP PUSH2 0x1FAC DUP3 PUSH2 0x1F6B JUMP JUMPDEST PUSH1 0x20 DUP3 ADD SWAP1 POP SWAP2 SWAP1 POP JUMP JUMPDEST PUSH1 0x0 PUSH1 0x20 DUP3 ADD SWAP1 POP DUP2 DUP2 SUB PUSH1 0x0 DUP4 ADD MSTORE PUSH2 0x1FD0 DUP2 PUSH2 0x1F94 JUMP JUMPDEST SWAP1 POP SWAP2 SWAP1 POP JUMP JUMPDEST PUSH32 0x4E487B7100000000000000000000000000000000000000000000000000000000 PUSH1 0x0 MSTORE PUSH1 0x11 PUSH1 0x4 MSTORE PUSH1 0x24 PUSH1 0x0 REVERT JUMPDEST PUSH1 0x0 PUSH2 0x2011 DUP3 PUSH2 0x1A6B JUMP JUMPDEST SWAP2 POP PUSH2 0x201C DUP4 PUSH2 0x1A6B JUMP JUMPDEST SWAP3 POP DUP3 DUP3 ADD SWAP1 POP DUP1 DUP3 GT ISZERO PUSH2 0x2034 JUMPI PUSH2 0x2033 PUSH2 0x1FD7 JUMP JUMPDEST JUMPDEST SWAP3 SWAP2 POP POP JUMP JUMPDEST PUSH32 0x4C414E3A20626964206E6F742068696768657200000000000000000000000000 PUSH1 0x0 DUP3 ADD MSTORE POP JUMP JUMPDEST PUSH1 0x0 PUSH2 0x2070 PUSH1 0x13 DUP4 PUSH2 0x1D07 JUMP JUMPDEST SWAP2 POP PUSH2 0x207B DUP3 PUSH2 0x203A JUMP JUMPDEST PUSH1 0x20 DUP3 ADD SWAP1 POP SWAP2 SWAP1 POP JUMP JUMPDEST PUSH1 0x0 PUSH1 0x20 DUP3 ADD SWAP1 POP DUP2 DUP2 SUB PUSH1 0x0 DUP4 ADD MSTORE PUSH2 0x209F DUP2 PUSH2 0x2063 JUMP JUMPDEST SWAP1 POP SWAP2 SWAP1 POP JUMP JUMPDEST PUSH1 0x0 DUP2 ISZERO ISZERO SWAP1 POP SWAP2 SWAP1 POP JUMP JUMPDEST PUSH2 0x20BB DUP2 PUSH2 0x20A6 JUMP JUMPDEST DUP2 EQ PUSH2 0x20C6 JUMPI PUSH1 0x0 DUP1 REVERT JUMPDEST POP JUMP JUMPDEST PUSH1 0x0 DUP2 MLOAD SWAP1 POP PUSH2 0x20D8 DUP2 PUSH2 0x20B2 JUMP JUMPDEST SWAP3 SWAP2 POP POP JUMP JUMPDEST PUSH1 0x0 PUSH1 0x20 DUP3 DUP5 SUB SLT ISZERO PUSH2 0x20F4 JUMPI PUSH2 0x20F3 PUSH2 0x1A9F JUMP JUMPDEST JUMPDEST PUSH1 0x0 PUSH2 0x2102 DUP5 DUP3 DUP6 ADD PUSH2 0x20C9 JUMP JUMPDEST SWAP2 POP POP SWAP3 SWAP2 POP POP JUMP JUMPDEST PUSH1 0x0 PUSH2 0x2116 DUP3 PUSH2 0x1A6B JUMP JUMPDEST SWAP2 POP PUSH2 0x2121 DUP4 PUSH2 0x1A6B JUMP JUMPDEST SWAP3 POP DUP3 DUP3 SUB SWAP1 POP DUP2 DUP2 GT ISZERO PUSH2 0x2139 JUMPI PUSH2 0x2138 PUSH2 0x1FD7 JUMP JUMPDEST JUMPDEST SWAP3 SWAP2 POP POP JUMP JUMPDEST PUSH32 0x4C414E3A2073746172742074696D6520696E2070617374000000000000000000 PUSH1 0x0 DUP3 ADD MSTORE POP JUMP JUMPDEST PUSH1 0x0 PUSH2 0x2175 PUSH1 0x17 DUP4 PUSH2 0x1D07 JUMP JUMPDEST SWAP2 POP PUSH2 0x2180 DUP3 PUSH2 0x213F JUMP JUMPDEST PUSH1 0x20 DUP3 ADD SWAP1 POP SWAP2 SWAP1 POP JUMP JUMPDEST PUSH1 0x0 PUSH1 0x20 DUP3 ADD SWAP1 POP DUP2 DUP2 SUB PUSH1 0x0 DUP4 ADD MSTORE PUSH2 0x21A4 DUP2 PUSH2 0x2168 JUMP JUMPDEST SWAP1 POP SWAP2 SWAP1 POP JUMP JUMPDEST PUSH32 0x4C414E3A20737461727420616674657220656E64000000000000000000000000 PUSH1 0x0 DUP3 ADD MSTORE POP JUMP JUMPDEST PUSH1 0x0 PUSH2 0x21E1 PUSH1 0x14 DUP4 PUSH2 0x1D07 JUMP JUMPDEST SWAP2 POP PUSH2 0x21EC DUP3 PUSH2 0x21AB JUMP JUMPDEST PUSH1 0x20 DUP3 ADD SWAP1 POP SWAP2 SWAP1 POP JUMP JUMPDEST PUSH1 0x0 PUSH1 0x20 DUP3 ADD SWAP1 POP DUP2 DUP2 SUB PUSH1 0x0 DUP4 ADD MSTORE PUSH2 0x2210 DUP2 PUSH2 0x21D4 JUMP JUMPDEST SWAP1 POP SWAP2 SWAP1 POP JUMP JUMPDEST PUSH1 0x0 PUSH1 0x40 DUP3 ADD SWAP1 POP PUSH2 0x222C PUSH1 0x0 DUP4 ADD DUP6 PUSH2 0x1B6F JUMP JUMPDEST PUSH2 0x2239 PUSH1 0x20 DUP4 ADD DUP5 PUSH2 0x1A75 JUMP JUMPDEST SWAP4 SWAP3 POP POP POP JUMP JUMPDEST PUSH1 0x0 PUSH2 0x224B DUP3 PUSH2 0x1A6B JUMP JUMPDEST SWAP2 POP PUSH32 0xFFFFFFFFFFFFFFFFFFFFFFFFFFFFFFFFFFFFFFFFFFFFFFFFFFFFFFFFFFFFFFFF DUP3 SUB PUSH2 0x227D JUMPI PUSH2 0x227C PUSH2 0x1FD7 JUMP JUMPDEST JUMPDEST PUSH1 0x1 DUP3 ADD SWAP1 POP SWAP2 SWAP1 POP JUMP JUMPDEST PUSH1 0x0 PUSH2 0x2293 DUP3 PUSH2 0x1A6B JUMP JUMPDEST SWAP2 POP PUSH2 0x229E DUP4 PUSH2 0x1A6B JUMP JUMPDEST SWAP3 POP DUP2 PUSH32 0xFFFFFFFFFFFFFFFFFFFFFFFFFFFFFFFFFFFFFFFFFFFFFFFFFFFFFFFFFFFFFFFF DIV DUP4 GT DUP3 ISZERO ISZERO AND ISZERO PUSH2 0x22D7 JUMPI PUSH2 0x22D6 PUSH2 0x1FD7 JUMP JUMPDEST JUMPDEST DUP3 DUP3 MUL SWAP1 POP SWAP3 SWAP2 POP POP JUMP JUMPDEST PUSH32 0x4E487B7100000000000000000000000000000000000000000000000000000000 PUSH1 0x0 MSTORE PUSH1 0x12 PUSH1 0x4 MSTORE PUSH1 0x24 PUSH1 0x0 REVERT JUMPDEST PUSH1 0x0 PUSH2 0x231C DUP3 PUSH2 0x1A6B JUMP JUMPDEST SWAP2 POP PUSH2 0x2327 DUP4 PUSH2 0x1A6B JUMP JUMPDEST SWAP3 POP DUP3 PUSH2 0x2337 JUMPI PUSH2 0x2336 PUSH2 0x22E2 JUMP JUMPDEST JUMPDEST DUP3 DUP3 DIV SWAP1 POP SWAP3 SWAP2 POP POP JUMP INVALID LOG2 PUSH5 0x6970667358 0x22 SLT KECCAK256 GT MUL 0xA9 SWAP12 0xD7 0xE 0xC4 NUMBER STATICCALL MLOAD 0xF8 SWAP4 DUP12 PUSH6 0xFD1A5E21961F PUSH23 0xCCA0FAEBC93BA6F921357864736F6C6343000810003300 "
				},
				"gasEstimates": {
					"creation": {
						"codeDepositCost": "1816000",
						"executionCost": "1912",
						"totalCost": "1817912"
					},
					"external": {
						"bid(uint256,uint256)": "infinite",
						"bids(uint256,uint256)": "infinite",
						"cancel(uint256)": "infinite",
						"count()": "2430",
						"endLoan(uint256)": "infinite",
						"launch(address,address,uint256,uint256,uint256,uint256)": "infinite",
						"liquidate(uint256)": "infinite",
						"liquidateEarly(uint256)": "infinite",
						"loans(uint256)": "infinite",
						"whitelistedAddresses(uint256,uint256)": "infinite"
					},
					"internal": {
						"_calculateLoanValue(uint256)": "infinite",
						"_ended(uint256)": "2226",
						"_started(uint256)": "2223"
					}
				},
				"methodIdentifiers": {
					"bid(uint256,uint256)": "598647f8",
					"bids(uint256,uint256)": "7b3c4baa",
					"cancel(uint256)": "40e58ee5",
					"count()": "06661abd",
					"endLoan(uint256)": "7870860b",
					"launch(address,address,uint256,uint256,uint256,uint256)": "e7e4dfcd",
					"liquidate(uint256)": "415f1240",
					"liquidateEarly(uint256)": "18de4f9d",
					"loans(uint256)": "e1ec3c68",
					"whitelistedAddresses(uint256,uint256)": "9bea77da"
				}
			},
			"storageLayout": {
				"storage": [
					{
						"astId": 223,
						"contract": "main.sol:LAN",
						"label": "count",
						"offset": 0,
						"slot": "0",
						"type": "t_uint256"
					},
					{
						"astId": 245,
						"contract": "main.sol:LAN",
						"label": "loans",
						"offset": 0,
						"slot": "1",
						"type": "t_mapping(t_uint256,t_struct(Loan)240_storage)"
					},
					{
						"astId": 259,
						"contract": "main.sol:LAN",
						"label": "bids",
						"offset": 0,
						"slot": "2",
						"type": "t_mapping(t_uint256,t_mapping(t_uint256,t_struct(Bid)252_storage))"
					},
					{
						"astId": 264,
						"contract": "main.sol:LAN",
						"label": "whitelistedAddresses",
						"offset": 0,
						"slot": "3",
						"type": "t_mapping(t_uint256,t_array(t_address)dyn_storage)"
					}
				],
				"types": {
					"t_address": {
						"encoding": "inplace",
						"label": "address",
						"numberOfBytes": "20"
					},
					"t_array(t_address)dyn_storage": {
						"base": "t_address",
						"encoding": "dynamic_array",
						"label": "address[]",
						"numberOfBytes": "32"
					},
					"t_mapping(t_uint256,t_array(t_address)dyn_storage)": {
						"encoding": "mapping",
						"key": "t_uint256",
						"label": "mapping(uint256 => address[])",
						"numberOfBytes": "32",
						"value": "t_array(t_address)dyn_storage"
					},
					"t_mapping(t_uint256,t_mapping(t_uint256,t_struct(Bid)252_storage))": {
						"encoding": "mapping",
						"key": "t_uint256",
						"label": "mapping(uint256 => mapping(uint256 => struct LAN.Bid))",
						"numberOfBytes": "32",
						"value": "t_mapping(t_uint256,t_struct(Bid)252_storage)"
					},
					"t_mapping(t_uint256,t_struct(Bid)252_storage)": {
						"encoding": "mapping",
						"key": "t_uint256",
						"label": "mapping(uint256 => struct LAN.Bid)",
						"numberOfBytes": "32",
						"value": "t_struct(Bid)252_storage"
					},
					"t_mapping(t_uint256,t_struct(Loan)240_storage)": {
						"encoding": "mapping",
						"key": "t_uint256",
						"label": "mapping(uint256 => struct LAN.Loan)",
						"numberOfBytes": "32",
						"value": "t_struct(Loan)240_storage"
					},
					"t_struct(Bid)252_storage": {
						"encoding": "inplace",
						"label": "struct LAN.Bid",
						"members": [
							{
								"astId": 247,
								"contract": "main.sol:LAN",
								"label": "bidTime",
								"offset": 0,
								"slot": "0",
								"type": "t_uint256"
							},
							{
								"astId": 249,
								"contract": "main.sol:LAN",
								"label": "bidAmount",
								"offset": 0,
								"slot": "1",
								"type": "t_uint256"
							},
							{
								"astId": 251,
								"contract": "main.sol:LAN",
								"label": "user",
								"offset": 0,
								"slot": "2",
								"type": "t_address"
							}
						],
						"numberOfBytes": "96"
					},
					"t_struct(Loan)240_storage": {
						"encoding": "inplace",
						"label": "struct LAN.Loan",
						"members": [
							{
								"astId": 225,
								"contract": "main.sol:LAN",
								"label": "owner",
								"offset": 0,
								"slot": "0",
								"type": "t_address"
							},
							{
								"astId": 227,
								"contract": "main.sol:LAN",
								"label": "token",
								"offset": 0,
								"slot": "1",
								"type": "t_address"
							},
							{
								"astId": 229,
								"contract": "main.sol:LAN",
								"label": "collectionAddress",
								"offset": 0,
								"slot": "2",
								"type": "t_address"
							},
							{
								"astId": 231,
								"contract": "main.sol:LAN",
								"label": "nftId",
								"offset": 0,
								"slot": "3",
								"type": "t_uint256"
							},
							{
								"astId": 233,
								"contract": "main.sol:LAN",
								"label": "startTime",
								"offset": 0,
								"slot": "4",
								"type": "t_uint256"
							},
							{
								"astId": 235,
								"contract": "main.sol:LAN",
								"label": "endTime",
								"offset": 0,
								"slot": "5",
								"type": "t_uint256"
							},
							{
								"astId": 237,
								"contract": "main.sol:LAN",
								"label": "apr",
								"offset": 0,
								"slot": "6",
								"type": "t_uint256"
							},
							{
								"astId": 239,
								"contract": "main.sol:LAN",
								"label": "numBids",
								"offset": 0,
								"slot": "7",
								"type": "t_uint256"
							}
						],
						"numberOfBytes": "256"
					},
					"t_uint256": {
						"encoding": "inplace",
						"label": "uint256",
						"numberOfBytes": "32"
					}
				}
			},
			"userdoc": {
				"kind": "user",
				"methods": {},
				"version": 1
			}
		}
	}
}