{
	"main.sol": {
		"LAN": {
			"abi": [
				{
					"anonymous": false,
					"inputs": [
						{
							"indexed": false,
							"internalType": "uint256",
							"name": "Id",
							"type": "uint256"
						}
					],
					"name": "loanCancelled",
					"type": "event"
				},
				{
					"anonymous": false,
					"inputs": [
						{
							"indexed": true,
							"internalType": "uint256",
							"name": "poolId",
							"type": "uint256"
						},
						{
							"indexed": false,
							"internalType": "address",
							"name": "collectionAddress",
							"type": "address"
						},
						{
							"indexed": false,
							"internalType": "uint256",
							"name": "nftId",
							"type": "uint256"
						}
					],
					"name": "newPool",
					"type": "event"
				},
				{
					"inputs": [
						{
							"internalType": "uint256",
							"name": "_poolId",
							"type": "uint256"
						},
						{
							"internalType": "address[]",
							"name": "_addys",
							"type": "address[]"
						}
					],
					"name": "addNewWhitelist",
					"outputs": [],
					"stateMutability": "nonpayable",
					"type": "function"
				},
				{
					"inputs": [
						{
							"internalType": "uint256",
							"name": "_poolId",
							"type": "uint256"
						},
						{
							"internalType": "uint256",
							"name": "_amount",
							"type": "uint256"
						}
					],
					"name": "bid",
					"outputs": [],
					"stateMutability": "nonpayable",
					"type": "function"
				},
				{
					"inputs": [
						{
							"internalType": "uint256",
							"name": "",
							"type": "uint256"
						},
						{
							"internalType": "uint256",
							"name": "",
							"type": "uint256"
						}
					],
					"name": "bids",
					"outputs": [
						{
							"internalType": "uint256",
							"name": "bidTime",
							"type": "uint256"
						},
						{
							"internalType": "uint256",
							"name": "bidAmount",
							"type": "uint256"
						},
						{
							"internalType": "address",
							"name": "user",
							"type": "address"
						}
					],
					"stateMutability": "view",
					"type": "function"
				},
				{
					"inputs": [
						{
							"internalType": "uint256",
							"name": "_poolId",
							"type": "uint256"
						}
					],
					"name": "cancel",
					"outputs": [],
					"stateMutability": "nonpayable",
					"type": "function"
				},
				{
					"inputs": [],
					"name": "count",
					"outputs": [
						{
							"internalType": "uint256",
							"name": "",
							"type": "uint256"
						}
					],
					"stateMutability": "view",
					"type": "function"
				},
				{
					"inputs": [
						{
							"internalType": "uint256",
							"name": "_poolId",
							"type": "uint256"
						}
					],
					"name": "endLoan",
					"outputs": [],
					"stateMutability": "nonpayable",
					"type": "function"
				},
				{
					"inputs": [
						{
							"internalType": "address",
							"name": "_token",
							"type": "address"
						},
						{
							"internalType": "address",
							"name": "_collectionAddress",
							"type": "address"
						},
						{
							"internalType": "uint256",
							"name": "_nftId",
							"type": "uint256"
						},
						{
							"internalType": "uint256",
							"name": "_startTime",
							"type": "uint256"
						},
						{
							"internalType": "uint256",
							"name": "_endTime",
							"type": "uint256"
						},
						{
							"internalType": "uint256",
							"name": "_apr",
							"type": "uint256"
						},
						{
							"internalType": "bool",
							"name": "_whitelisted",
							"type": "bool"
						}
					],
					"name": "launch",
					"outputs": [],
					"stateMutability": "nonpayable",
					"type": "function"
				},
				{
					"inputs": [
						{
							"internalType": "uint256",
							"name": "_poolId",
							"type": "uint256"
						}
					],
					"name": "liquidate",
					"outputs": [],
					"stateMutability": "nonpayable",
					"type": "function"
				},
				{
					"inputs": [
						{
							"internalType": "uint256",
							"name": "_poolId",
							"type": "uint256"
						}
					],
					"name": "liquidateEarly",
					"outputs": [],
					"stateMutability": "nonpayable",
					"type": "function"
				},
				{
					"inputs": [
						{
							"internalType": "uint256",
							"name": "",
							"type": "uint256"
						}
					],
					"name": "loans",
					"outputs": [
						{
							"internalType": "address",
							"name": "owner",
							"type": "address"
						},
						{
							"internalType": "address",
							"name": "token",
							"type": "address"
						},
						{
							"internalType": "address",
							"name": "collectionAddress",
							"type": "address"
						},
						{
							"internalType": "uint256",
							"name": "nftId",
							"type": "uint256"
						},
						{
							"internalType": "uint256",
							"name": "startTime",
							"type": "uint256"
						},
						{
							"internalType": "uint256",
							"name": "endTime",
							"type": "uint256"
						},
						{
							"internalType": "uint256",
							"name": "apr",
							"type": "uint256"
						},
						{
							"internalType": "uint256",
							"name": "numBids",
							"type": "uint256"
						},
						{
							"internalType": "bool",
							"name": "whitelisted",
							"type": "bool"
						}
					],
					"stateMutability": "view",
					"type": "function"
				},
				{
					"inputs": [
						{
							"internalType": "uint256",
							"name": "_poolId",
							"type": "uint256"
						},
						{
							"internalType": "address",
							"name": "_newAddress",
							"type": "address"
						}
					],
					"name": "setNewBidOwner",
					"outputs": [],
					"stateMutability": "nonpayable",
					"type": "function"
				},
				{
					"inputs": [
						{
							"internalType": "uint256",
							"name": "",
							"type": "uint256"
						},
						{
							"internalType": "uint256",
							"name": "",
							"type": "uint256"
						}
					],
					"name": "whitelistedAddresses",
					"outputs": [
						{
							"internalType": "address",
							"name": "",
							"type": "address"
						}
					],
					"stateMutability": "view",
					"type": "function"
				}
			],
			"devdoc": {
				"kind": "dev",
				"methods": {},
				"version": 1
			},
			"evm": {
				"assembly": "    /* \"main.sol\":142:6342  contract LAN{... */\n  mstore(0x40, 0x80)\n  callvalue\n  dup1\n  iszero\n  tag_1\n  jumpi\n  0x00\n  dup1\n  revert\ntag_1:\n  pop\n  dataSize(sub_0)\n  dup1\n  dataOffset(sub_0)\n  0x00\n  codecopy\n  0x00\n  return\nstop\n\nsub_0: assembly {\n        /* \"main.sol\":142:6342  contract LAN{... */\n      mstore(0x40, 0x80)\n      callvalue\n      dup1\n      iszero\n      tag_1\n      jumpi\n      0x00\n      dup1\n      revert\n    tag_1:\n      pop\n      jumpi(tag_2, lt(calldatasize, 0x04))\n      shr(0xe0, calldataload(0x00))\n      dup1\n      0x7870860b\n      gt\n      tag_15\n      jumpi\n      dup1\n      0x7870860b\n      eq\n      tag_9\n      jumpi\n      dup1\n      0x7b3c4baa\n      eq\n      tag_10\n      jumpi\n      dup1\n      0x8f17aa2d\n      eq\n      tag_11\n      jumpi\n      dup1\n      0x8f769f3a\n      eq\n      tag_12\n      jumpi\n      dup1\n      0x9bea77da\n      eq\n      tag_13\n      jumpi\n      dup1\n      0xe1ec3c68\n      eq\n      tag_14\n      jumpi\n      jump(tag_2)\n    tag_15:\n      dup1\n      0x06661abd\n      eq\n      tag_3\n      jumpi\n      dup1\n      0x18de4f9d\n      eq\n      tag_4\n      jumpi\n      dup1\n      0x2613c5d6\n      eq\n      tag_5\n      jumpi\n      dup1\n      0x40e58ee5\n      eq\n      tag_6\n      jumpi\n      dup1\n      0x415f1240\n      eq\n      tag_7\n      jumpi\n      dup1\n      0x598647f8\n      eq\n      tag_8\n      jumpi\n    tag_2:\n      0x00\n      dup1\n      revert\n        /* \"main.sol\":313:333  uint256 public count */\n    tag_3:\n      tag_16\n      tag_17\n      jump\t// in\n    tag_16:\n      mload(0x40)\n      tag_18\n      swap2\n      swap1\n      tag_19\n      jump\t// in\n    tag_18:\n      mload(0x40)\n      dup1\n      swap2\n      sub\n      swap1\n      return\n        /* \"main.sol\":5046:5507  function liquidateEarly(uint256 _poolId) external onlyOwner(_poolId) {... */\n    tag_4:\n      tag_20\n      0x04\n      dup1\n      calldatasize\n      sub\n      dup2\n      add\n      swap1\n      tag_21\n      swap2\n      swap1\n      tag_22\n      jump\t// in\n    tag_21:\n      tag_23\n      jump\t// in\n    tag_20:\n      stop\n        /* \"main.sol\":1269:2022  function launch(address _token, address _collectionAddress, uint256 _nftId, uint256 _startTime, uint256 _endTime, uint256 _apr, bool _whitelisted) public {... */\n    tag_5:\n      tag_24\n      0x04\n      dup1\n      calldatasize\n      sub\n      dup2\n      add\n      swap1\n      tag_25\n      swap2\n      swap1\n      tag_26\n      jump\t// in\n    tag_25:\n      tag_27\n      jump\t// in\n    tag_24:\n      stop\n        /* \"main.sol\":3623:3867  function cancel(uint256 _poolId) external onlyOwner(_poolId) {... */\n    tag_6:\n      tag_28\n      0x04\n      dup1\n      calldatasize\n      sub\n      dup2\n      add\n      swap1\n      tag_29\n      swap2\n      swap1\n      tag_22\n      jump\t// in\n    tag_29:\n      tag_30\n      jump\t// in\n    tag_28:\n      stop\n        /* \"main.sol\":4437:4870  function liquidate(uint256 _poolId) external {... */\n    tag_7:\n      tag_31\n      0x04\n      dup1\n      calldatasize\n      sub\n      dup2\n      add\n      swap1\n      tag_32\n      swap2\n      swap1\n      tag_22\n      jump\t// in\n    tag_32:\n      tag_33\n      jump\t// in\n    tag_31:\n      stop\n        /* \"main.sol\":2028:2934  function bid(uint256 _poolId, uint256 _amount) external {... */\n    tag_8:\n      tag_34\n      0x04\n      dup1\n      calldatasize\n      sub\n      dup2\n      add\n      swap1\n      tag_35\n      swap2\n      swap1\n      tag_36\n      jump\t// in\n    tag_35:\n      tag_37\n      jump\t// in\n    tag_34:\n      stop\n        /* \"main.sol\":3906:4383  function endLoan(uint256 _poolId) external onlyOwner(_poolId) {... */\n    tag_9:\n      tag_38\n      0x04\n      dup1\n      calldatasize\n      sub\n      dup2\n      add\n      swap1\n      tag_39\n      swap2\n      swap1\n      tag_22\n      jump\t// in\n    tag_39:\n      tag_40\n      jump\t// in\n    tag_38:\n      stop\n        /* \"main.sol\":872:927  mapping(uint256 => mapping(uint256 => Bid)) public bids */\n    tag_10:\n      tag_41\n      0x04\n      dup1\n      calldatasize\n      sub\n      dup2\n      add\n      swap1\n      tag_42\n      swap2\n      swap1\n      tag_36\n      jump\t// in\n    tag_42:\n      tag_43\n      jump\t// in\n    tag_41:\n      mload(0x40)\n      tag_44\n      swap4\n      swap3\n      swap2\n      swap1\n      tag_45\n      jump\t// in\n    tag_44:\n      mload(0x40)\n      dup1\n      swap2\n      sub\n      swap1\n      return\n        /* \"main.sol\":3492:3576  function addNewWhitelist(uint256 _poolId, address[] memory _addys) external {... */\n    tag_11:\n      tag_46\n      0x04\n      dup1\n      calldatasize\n      sub\n      dup2\n      add\n      swap1\n      tag_47\n      swap2\n      swap1\n      tag_48\n      jump\t// in\n    tag_47:\n      tag_49\n      jump\t// in\n    tag_46:\n      stop\n        /* \"main.sol\":3075:3486  function setNewBidOwner(uint256 _poolId, address _newAddress) external {... */\n    tag_12:\n      tag_50\n      0x04\n      dup1\n      calldatasize\n      sub\n      dup2\n      add\n      swap1\n      tag_51\n      swap2\n      swap1\n      tag_52\n      jump\t// in\n    tag_51:\n      tag_53\n      jump\t// in\n    tag_50:\n      stop\n        /* \"main.sol\":1009:1066  mapping(uint256 => address[]) public whitelistedAddresses */\n    tag_13:\n      tag_54\n      0x04\n      dup1\n      calldatasize\n      sub\n      dup2\n      add\n      swap1\n      tag_55\n      swap2\n      swap1\n      tag_36\n      jump\t// in\n    tag_55:\n      tag_56\n      jump\t// in\n    tag_54:\n      mload(0x40)\n      tag_57\n      swap2\n      swap1\n      tag_58\n      jump\t// in\n    tag_57:\n      mload(0x40)\n      dup1\n      swap2\n      sub\n      swap1\n      return\n        /* \"main.sol\":708:745  mapping(uint256 => Loan) public loans */\n    tag_14:\n      tag_59\n      0x04\n      dup1\n      calldatasize\n      sub\n      dup2\n      add\n      swap1\n      tag_60\n      swap2\n      swap1\n      tag_22\n      jump\t// in\n    tag_60:\n      tag_61\n      jump\t// in\n    tag_59:\n      mload(0x40)\n      tag_62\n      swap10\n      swap9\n      swap8\n      swap7\n      swap6\n      swap5\n      swap4\n      swap3\n      swap2\n      swap1\n      tag_63\n      jump\t// in\n    tag_62:\n      mload(0x40)\n      dup1\n      swap2\n      sub\n      swap1\n      return\n        /* \"main.sol\":313:333  uint256 public count */\n    tag_17:\n      sload(0x00)\n      dup2\n      jump\t// out\n        /* \"main.sol\":5046:5507  function liquidateEarly(uint256 _poolId) external onlyOwner(_poolId) {... */\n    tag_23:\n        /* \"main.sol\":5106:5113  _poolId */\n      dup1\n        /* \"main.sol\":1216:1226  msg.sender */\n      caller\n        /* \"main.sol\":1192:1226  loans[_poolId].owner == msg.sender */\n      0xffffffffffffffffffffffffffffffffffffffff\n      and\n        /* \"main.sol\":1192:1197  loans */\n      0x01\n        /* \"main.sol\":1192:1206  loans[_poolId] */\n      0x00\n        /* \"main.sol\":1198:1205  _poolId */\n      dup4\n        /* \"main.sol\":1192:1206  loans[_poolId] */\n      dup2\n      mstore\n      0x20\n      add\n      swap1\n      dup2\n      mstore\n      0x20\n      add\n      0x00\n      keccak256\n        /* \"main.sol\":1192:1212  loans[_poolId].owner */\n      0x00\n      add\n      0x00\n      swap1\n      sload\n      swap1\n      0x0100\n      exp\n      swap1\n      div\n      0xffffffffffffffffffffffffffffffffffffffff\n      and\n        /* \"main.sol\":1192:1226  loans[_poolId].owner == msg.sender */\n      0xffffffffffffffffffffffffffffffffffffffff\n      and\n      eq\n        /* \"main.sol\":1184:1245  require(loans[_poolId].owner == msg.sender, \"LAN: not owner\") */\n      tag_65\n      jumpi\n      mload(0x40)\n      0x08c379a000000000000000000000000000000000000000000000000000000000\n      dup2\n      mstore\n      0x04\n      add\n      tag_66\n      swap1\n      tag_67\n      jump\t// in\n    tag_66:\n      mload(0x40)\n      dup1\n      swap2\n      sub\n      swap1\n      revert\n    tag_65:\n        /* \"main.sol\":5125:5141  Loan memory loan */\n      0x00\n        /* \"main.sol\":5144:5149  loans */\n      0x01\n        /* \"main.sol\":5144:5158  loans[_poolId] */\n      0x00\n        /* \"main.sol\":5150:5157  _poolId */\n      dup5\n        /* \"main.sol\":5144:5158  loans[_poolId] */\n      dup2\n      mstore\n      0x20\n      add\n      swap1\n      dup2\n      mstore\n      0x20\n      add\n      0x00\n      keccak256\n        /* \"main.sol\":5125:5158  Loan memory loan = loans[_poolId] */\n      mload(0x40)\n      dup1\n      0x0120\n      add\n      0x40\n      mstore\n      swap1\n      dup2\n      0x00\n      dup3\n      add\n      0x00\n      swap1\n      sload\n      swap1\n      0x0100\n      exp\n      swap1\n      div\n      0xffffffffffffffffffffffffffffffffffffffff\n      and\n      0xffffffffffffffffffffffffffffffffffffffff\n      and\n      0xffffffffffffffffffffffffffffffffffffffff\n      and\n      dup2\n      mstore\n      0x20\n      add\n      0x01\n      dup3\n      add\n      0x00\n      swap1\n      sload\n      swap1\n      0x0100\n      exp\n      swap1\n      div\n      0xffffffffffffffffffffffffffffffffffffffff\n      and\n      0xffffffffffffffffffffffffffffffffffffffff\n      and\n      0xffffffffffffffffffffffffffffffffffffffff\n      and\n      dup2\n      mstore\n      0x20\n      add\n      0x02\n      dup3\n      add\n      0x00\n      swap1\n      sload\n      swap1\n      0x0100\n      exp\n      swap1\n      div\n      0xffffffffffffffffffffffffffffffffffffffff\n      and\n      0xffffffffffffffffffffffffffffffffffffffff\n      and\n      0xffffffffffffffffffffffffffffffffffffffff\n      and\n      dup2\n      mstore\n      0x20\n      add\n      0x03\n      dup3\n      add\n      sload\n      dup2\n      mstore\n      0x20\n      add\n      0x04\n      dup3\n      add\n      sload\n      dup2\n      mstore\n      0x20\n      add\n      0x05\n      dup3\n      add\n      sload\n      dup2\n      mstore\n      0x20\n      add\n      0x06\n      dup3\n      add\n      sload\n      dup2\n      mstore\n      0x20\n      add\n      0x07\n      dup3\n      add\n      sload\n      dup2\n      mstore\n      0x20\n      add\n      0x08\n      dup3\n      add\n      0x00\n      swap1\n      sload\n      swap1\n      0x0100\n      exp\n      swap1\n      div\n      0xff\n      and\n      iszero\n      iszero\n      iszero\n      iszero\n      dup2\n      mstore\n      pop\n      pop\n      swap1\n      pop\n        /* \"main.sol\":5176:5191  _ended(_poolId) */\n      tag_69\n        /* \"main.sol\":5183:5190  _poolId */\n      dup4\n        /* \"main.sol\":5176:5182  _ended */\n      tag_70\n        /* \"main.sol\":5176:5191  _ended(_poolId) */\n      jump\t// in\n    tag_69:\n        /* \"main.sol\":5168:5215  require(_ended(_poolId), \"LAN: loan not ended\") */\n      tag_71\n      jumpi\n      mload(0x40)\n      0x08c379a000000000000000000000000000000000000000000000000000000000\n      dup2\n      mstore\n      0x04\n      add\n      tag_72\n      swap1\n      tag_73\n      jump\t// in\n    tag_72:\n      mload(0x40)\n      dup1\n      swap2\n      sub\n      swap1\n      revert\n    tag_71:\n        /* \"main.sol\":5225:5245  Bid memory latestBid */\n      0x00\n        /* \"main.sol\":5248:5252  bids */\n      0x02\n        /* \"main.sol\":5248:5261  bids[_poolId] */\n      0x00\n        /* \"main.sol\":5253:5260  _poolId */\n      dup6\n        /* \"main.sol\":5248:5261  bids[_poolId] */\n      dup2\n      mstore\n      0x20\n      add\n      swap1\n      dup2\n      mstore\n      0x20\n      add\n      0x00\n      keccak256\n        /* \"main.sol\":5248:5275  bids[_poolId][loan.numBids] */\n      0x00\n        /* \"main.sol\":5262:5266  loan */\n      dup4\n        /* \"main.sol\":5262:5274  loan.numBids */\n      0xe0\n      add\n      mload\n        /* \"main.sol\":5248:5275  bids[_poolId][loan.numBids] */\n      dup2\n      mstore\n      0x20\n      add\n      swap1\n      dup2\n      mstore\n      0x20\n      add\n      0x00\n      keccak256\n        /* \"main.sol\":5225:5275  Bid memory latestBid = bids[_poolId][loan.numBids] */\n      mload(0x40)\n      dup1\n      0x60\n      add\n      0x40\n      mstore\n      swap1\n      dup2\n      0x00\n      dup3\n      add\n      sload\n      dup2\n      mstore\n      0x20\n      add\n      0x01\n      dup3\n      add\n      sload\n      dup2\n      mstore\n      0x20\n      add\n      0x02\n      dup3\n      add\n      0x00\n      swap1\n      sload\n      swap1\n      0x0100\n      exp\n      swap1\n      div\n      0xffffffffffffffffffffffffffffffffffffffff\n      and\n      0xffffffffffffffffffffffffffffffffffffffff\n      and\n      0xffffffffffffffffffffffffffffffffffffffff\n      and\n      dup2\n      mstore\n      pop\n      pop\n      swap1\n      pop\n        /* \"main.sol\":5311:5321  msg.sender */\n      caller\n        /* \"main.sol\":5293:5321  latestBid.user == msg.sender */\n      0xffffffffffffffffffffffffffffffffffffffff\n      and\n        /* \"main.sol\":5293:5302  latestBid */\n      dup2\n        /* \"main.sol\":5293:5307  latestBid.user */\n      0x40\n      add\n      mload\n        /* \"main.sol\":5293:5321  latestBid.user == msg.sender */\n      0xffffffffffffffffffffffffffffffffffffffff\n      and\n      eq\n        /* \"main.sol\":5285:5348  require(latestBid.user == msg.sender, \"LAN: not latest bidder\") */\n      tag_74\n      jumpi\n      mload(0x40)\n      0x08c379a000000000000000000000000000000000000000000000000000000000\n      dup2\n      mstore\n      0x04\n      add\n      tag_75\n      swap1\n      tag_76\n      jump\t// in\n    tag_75:\n      mload(0x40)\n      dup1\n      swap2\n      sub\n      swap1\n      revert\n    tag_74:\n        /* \"main.sol\":5382:5393  IERC721 NFT */\n      0x00\n        /* \"main.sol\":5404:5408  loan */\n      dup3\n        /* \"main.sol\":5404:5426  loan.collectionAddress */\n      0x40\n      add\n      mload\n        /* \"main.sol\":5382:5427  IERC721 NFT = IERC721(loan.collectionAddress) */\n      swap1\n      pop\n        /* \"main.sol\":5437:5440  NFT */\n      dup1\n        /* \"main.sol\":5437:5457  NFT.safeTransferFrom */\n      0xffffffffffffffffffffffffffffffffffffffff\n      and\n      0x42842e0e\n        /* \"main.sol\":5466:5470  this */\n      address\n        /* \"main.sol\":5473:5482  latestBid */\n      dup5\n        /* \"main.sol\":5473:5487  latestBid.user */\n      0x40\n      add\n      mload\n        /* \"main.sol\":5489:5493  loan */\n      dup7\n        /* \"main.sol\":5489:5499  loan.nftId */\n      0x60\n      add\n      mload\n        /* \"main.sol\":5437:5500  NFT.safeTransferFrom(address(this), latestBid.user, loan.nftId) */\n      mload(0x40)\n      dup5\n      0xffffffff\n      and\n      0xe0\n      shl\n      dup2\n      mstore\n      0x04\n      add\n      tag_77\n      swap4\n      swap3\n      swap2\n      swap1\n      tag_78\n      jump\t// in\n    tag_77:\n      0x00\n      mload(0x40)\n      dup1\n      dup4\n      sub\n      dup2\n      0x00\n      dup8\n      dup1\n      extcodesize\n      iszero\n      dup1\n      iszero\n      tag_79\n      jumpi\n      0x00\n      dup1\n      revert\n    tag_79:\n      pop\n      gas\n      call\n      iszero\n      dup1\n      iszero\n      tag_81\n      jumpi\n      returndatasize\n      0x00\n      dup1\n      returndatacopy\n      revert(0x00, returndatasize)\n    tag_81:\n      pop\n      pop\n      pop\n      pop\n        /* \"main.sol\":5115:5507  {... */\n      pop\n      pop\n      pop\n        /* \"main.sol\":5046:5507  function liquidateEarly(uint256 _poolId) external onlyOwner(_poolId) {... */\n      pop\n      pop\n      jump\t// out\n        /* \"main.sol\":1269:2022  function launch(address _token, address _collectionAddress, uint256 _nftId, uint256 _startTime, uint256 _endTime, uint256 _apr, bool _whitelisted) public {... */\n    tag_27:\n        /* \"main.sol\":1455:1470  block.timestamp */\n      timestamp\n        /* \"main.sol\":1441:1451  _startTime */\n      dup5\n        /* \"main.sol\":1441:1470  _startTime >= block.timestamp */\n      lt\n      iszero\n        /* \"main.sol\":1433:1498  require(_startTime >= block.timestamp, \"LAN: start time in past\") */\n      tag_83\n      jumpi\n      mload(0x40)\n      0x08c379a000000000000000000000000000000000000000000000000000000000\n      dup2\n      mstore\n      0x04\n      add\n      tag_84\n      swap1\n      tag_85\n      jump\t// in\n    tag_84:\n      mload(0x40)\n      dup1\n      swap2\n      sub\n      swap1\n      revert\n    tag_83:\n        /* \"main.sol\":1527:1537  _startTime */\n      dup4\n        /* \"main.sol\":1516:1524  _endTime */\n      dup4\n        /* \"main.sol\":1516:1537  _endTime > _startTime */\n      gt\n        /* \"main.sol\":1508:1562  require(_endTime > _startTime, \"LAN: start after end\") */\n      tag_86\n      jumpi\n      mload(0x40)\n      0x08c379a000000000000000000000000000000000000000000000000000000000\n      dup2\n      mstore\n      0x04\n      add\n      tag_87\n      swap1\n      tag_88\n      jump\t// in\n    tag_87:\n      mload(0x40)\n      dup1\n      swap2\n      sub\n      swap1\n      revert\n    tag_86:\n        /* \"main.sol\":1587:1891  Loan({... */\n      mload(0x40)\n      dup1\n      0x0120\n      add\n      0x40\n      mstore\n      dup1\n        /* \"main.sol\":1613:1623  msg.sender */\n      caller\n        /* \"main.sol\":1587:1891  Loan({... */\n      0xffffffffffffffffffffffffffffffffffffffff\n      and\n      dup2\n      mstore\n      0x20\n      add\n        /* \"main.sol\":1644:1650  _token */\n      dup9\n        /* \"main.sol\":1587:1891  Loan({... */\n      0xffffffffffffffffffffffffffffffffffffffff\n      and\n      dup2\n      mstore\n      0x20\n      add\n        /* \"main.sol\":1683:1701  _collectionAddress */\n      dup8\n        /* \"main.sol\":1587:1891  Loan({... */\n      0xffffffffffffffffffffffffffffffffffffffff\n      and\n      dup2\n      mstore\n      0x20\n      add\n        /* \"main.sol\":1722:1728  _nftId */\n      dup7\n        /* \"main.sol\":1587:1891  Loan({... */\n      dup2\n      mstore\n      0x20\n      add\n        /* \"main.sol\":1784:1794  _startTime */\n      dup6\n        /* \"main.sol\":1587:1891  Loan({... */\n      dup2\n      mstore\n      0x20\n      add\n        /* \"main.sol\":1751:1759  _endTime */\n      dup5\n        /* \"main.sol\":1587:1891  Loan({... */\n      dup2\n      mstore\n      0x20\n      add\n        /* \"main.sol\":1813:1817  _apr */\n      dup4\n        /* \"main.sol\":1587:1891  Loan({... */\n      dup2\n      mstore\n      0x20\n      add\n        /* \"main.sol\":1840:1841  0 */\n      0x00\n        /* \"main.sol\":1587:1891  Loan({... */\n      dup2\n      mstore\n      0x20\n      add\n        /* \"main.sol\":1868:1880  _whitelisted */\n      dup3\n        /* \"main.sol\":1587:1891  Loan({... */\n      iszero\n      iszero\n      dup2\n      mstore\n      pop\n        /* \"main.sol\":1572:1577  loans */\n      0x01\n        /* \"main.sol\":1572:1584  loans[count] */\n      0x00\n        /* \"main.sol\":1578:1583  count */\n      dup1\n      sload\n        /* \"main.sol\":1572:1584  loans[count] */\n      dup2\n      mstore\n      0x20\n      add\n      swap1\n      dup2\n      mstore\n      0x20\n      add\n      0x00\n      keccak256\n        /* \"main.sol\":1572:1891  loans[count] = Loan({... */\n      0x00\n      dup3\n      add\n      mload\n      dup2\n      0x00\n      add\n      exp(0x0100, 0x00)\n      dup2\n      sload\n      dup2\n      0xffffffffffffffffffffffffffffffffffffffff\n      mul\n      not\n      and\n      swap1\n      dup4\n      0xffffffffffffffffffffffffffffffffffffffff\n      and\n      mul\n      or\n      swap1\n      sstore\n      pop\n      0x20\n      dup3\n      add\n      mload\n      dup2\n      0x01\n      add\n      exp(0x0100, 0x00)\n      dup2\n      sload\n      dup2\n      0xffffffffffffffffffffffffffffffffffffffff\n      mul\n      not\n      and\n      swap1\n      dup4\n      0xffffffffffffffffffffffffffffffffffffffff\n      and\n      mul\n      or\n      swap1\n      sstore\n      pop\n      0x40\n      dup3\n      add\n      mload\n      dup2\n      0x02\n      add\n      exp(0x0100, 0x00)\n      dup2\n      sload\n      dup2\n      0xffffffffffffffffffffffffffffffffffffffff\n      mul\n      not\n      and\n      swap1\n      dup4\n      0xffffffffffffffffffffffffffffffffffffffff\n      and\n      mul\n      or\n      swap1\n      sstore\n      pop\n      0x60\n      dup3\n      add\n      mload\n      dup2\n      0x03\n      add\n      sstore\n      0x80\n      dup3\n      add\n      mload\n      dup2\n      0x04\n      add\n      sstore\n      0xa0\n      dup3\n      add\n      mload\n      dup2\n      0x05\n      add\n      sstore\n      0xc0\n      dup3\n      add\n      mload\n      dup2\n      0x06\n      add\n      sstore\n      0xe0\n      dup3\n      add\n      mload\n      dup2\n      0x07\n      add\n      sstore\n      0x0100\n      dup3\n      add\n      mload\n      dup2\n      0x08\n      add\n      exp(0x0100, 0x00)\n      dup2\n      sload\n      dup2\n      0xff\n      mul\n      not\n      and\n      swap1\n      dup4\n      iszero\n      iszero\n      mul\n      or\n      swap1\n      sstore\n      pop\n      swap1\n      pop\n      pop\n        /* \"main.sol\":1926:1941  block.timestamp */\n      timestamp\n        /* \"main.sol\":1901:1905  bids */\n      0x02\n        /* \"main.sol\":1901:1912  bids[count] */\n      0x00\n        /* \"main.sol\":1906:1911  count */\n      dup1\n      sload\n        /* \"main.sol\":1901:1912  bids[count] */\n      dup2\n      mstore\n      0x20\n      add\n      swap1\n      dup2\n      mstore\n      0x20\n      add\n      0x00\n      keccak256\n        /* \"main.sol\":1901:1915  bids[count][0] */\n      0x00\n        /* \"main.sol\":1913:1914  0 */\n      dup1\n        /* \"main.sol\":1901:1915  bids[count][0] */\n      dup2\n      mstore\n      0x20\n      add\n      swap1\n      dup2\n      mstore\n      0x20\n      add\n      0x00\n      keccak256\n        /* \"main.sol\":1901:1923  bids[count][0].bidTime */\n      0x00\n      add\n        /* \"main.sol\":1901:1941  bids[count][0].bidTime = block.timestamp */\n      dup2\n      swap1\n      sstore\n      pop\n        /* \"main.sol\":1964:1969  count */\n      sload(0x00)\n        /* \"main.sol\":1956:1998  newPool(count, _collectionAddress, _nftId) */\n      0xef8b2952c43462575e82711d0cc91169720a4589a9fa533d173e022437f5405e\n        /* \"main.sol\":1971:1989  _collectionAddress */\n      dup8\n        /* \"main.sol\":1991:1997  _nftId */\n      dup8\n        /* \"main.sol\":1956:1998  newPool(count, _collectionAddress, _nftId) */\n      mload(0x40)\n      tag_89\n      swap3\n      swap2\n      swap1\n      tag_90\n      jump\t// in\n    tag_89:\n      mload(0x40)\n      dup1\n      swap2\n      sub\n      swap1\n      log2\n        /* \"main.sol\":2008:2013  count */\n      0x00\n      dup1\n        /* \"main.sol\":2008:2015  count++ */\n      dup2\n      sload\n      dup1\n      swap3\n      swap2\n      swap1\n      tag_91\n      swap1\n      tag_92\n      jump\t// in\n    tag_91:\n      swap2\n      swap1\n      pop\n      sstore\n      pop\n        /* \"main.sol\":1269:2022  function launch(address _token, address _collectionAddress, uint256 _nftId, uint256 _startTime, uint256 _endTime, uint256 _apr, bool _whitelisted) public {... */\n      pop\n      pop\n      pop\n      pop\n      pop\n      pop\n      pop\n      jump\t// out\n        /* \"main.sol\":3623:3867  function cancel(uint256 _poolId) external onlyOwner(_poolId) {... */\n    tag_30:\n        /* \"main.sol\":3675:3682  _poolId */\n      dup1\n        /* \"main.sol\":1216:1226  msg.sender */\n      caller\n        /* \"main.sol\":1192:1226  loans[_poolId].owner == msg.sender */\n      0xffffffffffffffffffffffffffffffffffffffff\n      and\n        /* \"main.sol\":1192:1197  loans */\n      0x01\n        /* \"main.sol\":1192:1206  loans[_poolId] */\n      0x00\n        /* \"main.sol\":1198:1205  _poolId */\n      dup4\n        /* \"main.sol\":1192:1206  loans[_poolId] */\n      dup2\n      mstore\n      0x20\n      add\n      swap1\n      dup2\n      mstore\n      0x20\n      add\n      0x00\n      keccak256\n        /* \"main.sol\":1192:1212  loans[_poolId].owner */\n      0x00\n      add\n      0x00\n      swap1\n      sload\n      swap1\n      0x0100\n      exp\n      swap1\n      div\n      0xffffffffffffffffffffffffffffffffffffffff\n      and\n        /* \"main.sol\":1192:1226  loans[_poolId].owner == msg.sender */\n      0xffffffffffffffffffffffffffffffffffffffff\n      and\n      eq\n        /* \"main.sol\":1184:1245  require(loans[_poolId].owner == msg.sender, \"LAN: not owner\") */\n      tag_94\n      jumpi\n      mload(0x40)\n      0x08c379a000000000000000000000000000000000000000000000000000000000\n      dup2\n      mstore\n      0x04\n      add\n      tag_95\n      swap1\n      tag_67\n      jump\t// in\n    tag_95:\n      mload(0x40)\n      dup1\n      swap2\n      sub\n      swap1\n      revert\n    tag_94:\n        /* \"main.sol\":3694:3710  Loan memory loan */\n      0x00\n        /* \"main.sol\":3713:3718  loans */\n      0x01\n        /* \"main.sol\":3713:3727  loans[_poolId] */\n      0x00\n        /* \"main.sol\":3719:3726  _poolId */\n      dup5\n        /* \"main.sol\":3713:3727  loans[_poolId] */\n      dup2\n      mstore\n      0x20\n      add\n      swap1\n      dup2\n      mstore\n      0x20\n      add\n      0x00\n      keccak256\n        /* \"main.sol\":3694:3727  Loan memory loan = loans[_poolId] */\n      mload(0x40)\n      dup1\n      0x0120\n      add\n      0x40\n      mstore\n      swap1\n      dup2\n      0x00\n      dup3\n      add\n      0x00\n      swap1\n      sload\n      swap1\n      0x0100\n      exp\n      swap1\n      div\n      0xffffffffffffffffffffffffffffffffffffffff\n      and\n      0xffffffffffffffffffffffffffffffffffffffff\n      and\n      0xffffffffffffffffffffffffffffffffffffffff\n      and\n      dup2\n      mstore\n      0x20\n      add\n      0x01\n      dup3\n      add\n      0x00\n      swap1\n      sload\n      swap1\n      0x0100\n      exp\n      swap1\n      div\n      0xffffffffffffffffffffffffffffffffffffffff\n      and\n      0xffffffffffffffffffffffffffffffffffffffff\n      and\n      0xffffffffffffffffffffffffffffffffffffffff\n      and\n      dup2\n      mstore\n      0x20\n      add\n      0x02\n      dup3\n      add\n      0x00\n      swap1\n      sload\n      swap1\n      0x0100\n      exp\n      swap1\n      div\n      0xffffffffffffffffffffffffffffffffffffffff\n      and\n      0xffffffffffffffffffffffffffffffffffffffff\n      and\n      0xffffffffffffffffffffffffffffffffffffffff\n      and\n      dup2\n      mstore\n      0x20\n      add\n      0x03\n      dup3\n      add\n      sload\n      dup2\n      mstore\n      0x20\n      add\n      0x04\n      dup3\n      add\n      sload\n      dup2\n      mstore\n      0x20\n      add\n      0x05\n      dup3\n      add\n      sload\n      dup2\n      mstore\n      0x20\n      add\n      0x06\n      dup3\n      add\n      sload\n      dup2\n      mstore\n      0x20\n      add\n      0x07\n      dup3\n      add\n      sload\n      dup2\n      mstore\n      0x20\n      add\n      0x08\n      dup3\n      add\n      0x00\n      swap1\n      sload\n      swap1\n      0x0100\n      exp\n      swap1\n      div\n      0xff\n      and\n      iszero\n      iszero\n      iszero\n      iszero\n      dup2\n      mstore\n      pop\n      pop\n      swap1\n      pop\n        /* \"main.sol\":3762:3777  block.timestamp */\n      timestamp\n        /* \"main.sol\":3745:3749  loan */\n      dup2\n        /* \"main.sol\":3745:3759  loan.startTime */\n      0x80\n      add\n      mload\n        /* \"main.sol\":3745:3777  loan.startTime > block.timestamp */\n      gt\n        /* \"main.sol\":3737:3802  require(loan.startTime > block.timestamp, \"LAN: already started\") */\n      tag_97\n      jumpi\n      mload(0x40)\n      0x08c379a000000000000000000000000000000000000000000000000000000000\n      dup2\n      mstore\n      0x04\n      add\n      tag_98\n      swap1\n      tag_99\n      jump\t// in\n    tag_98:\n      mload(0x40)\n      dup1\n      swap2\n      sub\n      swap1\n      revert\n    tag_97:\n        /* \"main.sol\":3812:3823  delete loan */\n      tag_100\n      tag_101\n      jump\t// in\n    tag_100:\n      swap1\n      pop\n        /* \"main.sol\":3838:3860  loanCancelled(_poolId) */\n      0xfe785ef891129b084b1c5a30e4d88eb97c97822c024cc25d5f9d806b897512e0\n        /* \"main.sol\":3852:3859  _poolId */\n      dup4\n        /* \"main.sol\":3838:3860  loanCancelled(_poolId) */\n      mload(0x40)\n      tag_102\n      swap2\n      swap1\n      tag_19\n      jump\t// in\n    tag_102:\n      mload(0x40)\n      dup1\n      swap2\n      sub\n      swap1\n      log1\n        /* \"main.sol\":3684:3867  {... */\n      pop\n        /* \"main.sol\":3623:3867  function cancel(uint256 _poolId) external onlyOwner(_poolId) {... */\n      pop\n      pop\n      jump\t// out\n        /* \"main.sol\":4437:4870  function liquidate(uint256 _poolId) external {... */\n    tag_33:\n        /* \"main.sol\":4492:4508  Loan memory loan */\n      0x00\n        /* \"main.sol\":4511:4516  loans */\n      0x01\n        /* \"main.sol\":4511:4525  loans[_poolId] */\n      0x00\n        /* \"main.sol\":4517:4524  _poolId */\n      dup4\n        /* \"main.sol\":4511:4525  loans[_poolId] */\n      dup2\n      mstore\n      0x20\n      add\n      swap1\n      dup2\n      mstore\n      0x20\n      add\n      0x00\n      keccak256\n        /* \"main.sol\":4492:4525  Loan memory loan = loans[_poolId] */\n      mload(0x40)\n      dup1\n      0x0120\n      add\n      0x40\n      mstore\n      swap1\n      dup2\n      0x00\n      dup3\n      add\n      0x00\n      swap1\n      sload\n      swap1\n      0x0100\n      exp\n      swap1\n      div\n      0xffffffffffffffffffffffffffffffffffffffff\n      and\n      0xffffffffffffffffffffffffffffffffffffffff\n      and\n      0xffffffffffffffffffffffffffffffffffffffff\n      and\n      dup2\n      mstore\n      0x20\n      add\n      0x01\n      dup3\n      add\n      0x00\n      swap1\n      sload\n      swap1\n      0x0100\n      exp\n      swap1\n      div\n      0xffffffffffffffffffffffffffffffffffffffff\n      and\n      0xffffffffffffffffffffffffffffffffffffffff\n      and\n      0xffffffffffffffffffffffffffffffffffffffff\n      and\n      dup2\n      mstore\n      0x20\n      add\n      0x02\n      dup3\n      add\n      0x00\n      swap1\n      sload\n      swap1\n      0x0100\n      exp\n      swap1\n      div\n      0xffffffffffffffffffffffffffffffffffffffff\n      and\n      0xffffffffffffffffffffffffffffffffffffffff\n      and\n      0xffffffffffffffffffffffffffffffffffffffff\n      and\n      dup2\n      mstore\n      0x20\n      add\n      0x03\n      dup3\n      add\n      sload\n      dup2\n      mstore\n      0x20\n      add\n      0x04\n      dup3\n      add\n      sload\n      dup2\n      mstore\n      0x20\n      add\n      0x05\n      dup3\n      add\n      sload\n      dup2\n      mstore\n      0x20\n      add\n      0x06\n      dup3\n      add\n      sload\n      dup2\n      mstore\n      0x20\n      add\n      0x07\n      dup3\n      add\n      sload\n      dup2\n      mstore\n      0x20\n      add\n      0x08\n      dup3\n      add\n      0x00\n      swap1\n      sload\n      swap1\n      0x0100\n      exp\n      swap1\n      div\n      0xff\n      and\n      iszero\n      iszero\n      iszero\n      iszero\n      dup2\n      mstore\n      pop\n      pop\n      swap1\n      pop\n        /* \"main.sol\":4543:4558  _ended(_poolId) */\n      tag_104\n        /* \"main.sol\":4550:4557  _poolId */\n      dup3\n        /* \"main.sol\":4543:4549  _ended */\n      tag_70\n        /* \"main.sol\":4543:4558  _ended(_poolId) */\n      jump\t// in\n    tag_104:\n        /* \"main.sol\":4535:4582  require(_ended(_poolId), \"LAN: loan not ended\") */\n      tag_105\n      jumpi\n      mload(0x40)\n      0x08c379a000000000000000000000000000000000000000000000000000000000\n      dup2\n      mstore\n      0x04\n      add\n      tag_106\n      swap1\n      tag_73\n      jump\t// in\n    tag_106:\n      mload(0x40)\n      dup1\n      swap2\n      sub\n      swap1\n      revert\n    tag_105:\n        /* \"main.sol\":4592:4612  Bid memory latestBid */\n      0x00\n        /* \"main.sol\":4615:4619  bids */\n      0x02\n        /* \"main.sol\":4615:4628  bids[_poolId] */\n      0x00\n        /* \"main.sol\":4620:4627  _poolId */\n      dup5\n        /* \"main.sol\":4615:4628  bids[_poolId] */\n      dup2\n      mstore\n      0x20\n      add\n      swap1\n      dup2\n      mstore\n      0x20\n      add\n      0x00\n      keccak256\n        /* \"main.sol\":4615:4642  bids[_poolId][loan.numBids] */\n      0x00\n        /* \"main.sol\":4629:4633  loan */\n      dup4\n        /* \"main.sol\":4629:4641  loan.numBids */\n      0xe0\n      add\n      mload\n        /* \"main.sol\":4615:4642  bids[_poolId][loan.numBids] */\n      dup2\n      mstore\n      0x20\n      add\n      swap1\n      dup2\n      mstore\n      0x20\n      add\n      0x00\n      keccak256\n        /* \"main.sol\":4592:4642  Bid memory latestBid = bids[_poolId][loan.numBids] */\n      mload(0x40)\n      dup1\n      0x60\n      add\n      0x40\n      mstore\n      swap1\n      dup2\n      0x00\n      dup3\n      add\n      sload\n      dup2\n      mstore\n      0x20\n      add\n      0x01\n      dup3\n      add\n      sload\n      dup2\n      mstore\n      0x20\n      add\n      0x02\n      dup3\n      add\n      0x00\n      swap1\n      sload\n      swap1\n      0x0100\n      exp\n      swap1\n      div\n      0xffffffffffffffffffffffffffffffffffffffff\n      and\n      0xffffffffffffffffffffffffffffffffffffffff\n      and\n      0xffffffffffffffffffffffffffffffffffffffff\n      and\n      dup2\n      mstore\n      pop\n      pop\n      swap1\n      pop\n        /* \"main.sol\":4678:4688  msg.sender */\n      caller\n        /* \"main.sol\":4660:4688  latestBid.user == msg.sender */\n      0xffffffffffffffffffffffffffffffffffffffff\n      and\n        /* \"main.sol\":4660:4669  latestBid */\n      dup2\n        /* \"main.sol\":4660:4674  latestBid.user */\n      0x40\n      add\n      mload\n        /* \"main.sol\":4660:4688  latestBid.user == msg.sender */\n      0xffffffffffffffffffffffffffffffffffffffff\n      and\n      eq\n        /* \"main.sol\":4652:4715  require(latestBid.user == msg.sender, \"LAN: not latest bidder\") */\n      tag_107\n      jumpi\n      mload(0x40)\n      0x08c379a000000000000000000000000000000000000000000000000000000000\n      dup2\n      mstore\n      0x04\n      add\n      tag_108\n      swap1\n      tag_76\n      jump\t// in\n    tag_108:\n      mload(0x40)\n      dup1\n      swap2\n      sub\n      swap1\n      revert\n    tag_107:\n        /* \"main.sol\":4749:4760  IERC721 NFT */\n      0x00\n        /* \"main.sol\":4771:4775  loan */\n      dup3\n        /* \"main.sol\":4771:4793  loan.collectionAddress */\n      0x40\n      add\n      mload\n        /* \"main.sol\":4749:4794  IERC721 NFT = IERC721(loan.collectionAddress) */\n      swap1\n      pop\n        /* \"main.sol\":4804:4807  NFT */\n      dup1\n        /* \"main.sol\":4804:4824  NFT.safeTransferFrom */\n      0xffffffffffffffffffffffffffffffffffffffff\n      and\n      0x42842e0e\n        /* \"main.sol\":4833:4837  this */\n      address\n        /* \"main.sol\":4840:4850  msg.sender */\n      caller\n        /* \"main.sol\":4852:4856  loan */\n      dup7\n        /* \"main.sol\":4852:4862  loan.nftId */\n      0x60\n      add\n      mload\n        /* \"main.sol\":4804:4863  NFT.safeTransferFrom(address(this), msg.sender, loan.nftId) */\n      mload(0x40)\n      dup5\n      0xffffffff\n      and\n      0xe0\n      shl\n      dup2\n      mstore\n      0x04\n      add\n      tag_109\n      swap4\n      swap3\n      swap2\n      swap1\n      tag_78\n      jump\t// in\n    tag_109:\n      0x00\n      mload(0x40)\n      dup1\n      dup4\n      sub\n      dup2\n      0x00\n      dup8\n      dup1\n      extcodesize\n      iszero\n      dup1\n      iszero\n      tag_110\n      jumpi\n      0x00\n      dup1\n      revert\n    tag_110:\n      pop\n      gas\n      call\n      iszero\n      dup1\n      iszero\n      tag_112\n      jumpi\n      returndatasize\n      0x00\n      dup1\n      returndatacopy\n      revert(0x00, returndatasize)\n    tag_112:\n      pop\n      pop\n      pop\n      pop\n        /* \"main.sol\":4482:4870  {... */\n      pop\n      pop\n      pop\n        /* \"main.sol\":4437:4870  function liquidate(uint256 _poolId) external {... */\n      pop\n      jump\t// out\n        /* \"main.sol\":2028:2934  function bid(uint256 _poolId, uint256 _amount) external {... */\n    tag_37:\n        /* \"main.sol\":2102:2119  _started(_poolId) */\n      tag_114\n        /* \"main.sol\":2111:2118  _poolId */\n      dup3\n        /* \"main.sol\":2102:2110  _started */\n      tag_115\n        /* \"main.sol\":2102:2119  _started(_poolId) */\n      jump\t// in\n    tag_114:\n        /* \"main.sol\":2094:2140  require(_started(_poolId), \"LAN: not started\") */\n      tag_116\n      jumpi\n      mload(0x40)\n      0x08c379a000000000000000000000000000000000000000000000000000000000\n      dup2\n      mstore\n      0x04\n      add\n      tag_117\n      swap1\n      tag_118\n      jump\t// in\n    tag_117:\n      mload(0x40)\n      dup1\n      swap2\n      sub\n      swap1\n      revert\n    tag_116:\n        /* \"main.sol\":2159:2174  _ended(_poolId) */\n      tag_119\n        /* \"main.sol\":2166:2173  _poolId */\n      dup3\n        /* \"main.sol\":2159:2165  _ended */\n      tag_70\n        /* \"main.sol\":2159:2174  _ended(_poolId) */\n      jump\t// in\n    tag_119:\n        /* \"main.sol\":2158:2174  !_ended(_poolId) */\n      iszero\n        /* \"main.sol\":2150:2197  require(!_ended(_poolId), \"LAN: already ended\") */\n      tag_120\n      jumpi\n      mload(0x40)\n      0x08c379a000000000000000000000000000000000000000000000000000000000\n      dup2\n      mstore\n      0x04\n      add\n      tag_121\n      swap1\n      tag_122\n      jump\t// in\n    tag_121:\n      mload(0x40)\n      dup1\n      swap2\n      sub\n      swap1\n      revert\n    tag_120:\n        /* \"main.sol\":2207:2223  Loan memory loan */\n      0x00\n        /* \"main.sol\":2226:2231  loans */\n      0x01\n        /* \"main.sol\":2226:2240  loans[_poolId] */\n      0x00\n        /* \"main.sol\":2232:2239  _poolId */\n      dup5\n        /* \"main.sol\":2226:2240  loans[_poolId] */\n      dup2\n      mstore\n      0x20\n      add\n      swap1\n      dup2\n      mstore\n      0x20\n      add\n      0x00\n      keccak256\n        /* \"main.sol\":2207:2240  Loan memory loan = loans[_poolId] */\n      mload(0x40)\n      dup1\n      0x0120\n      add\n      0x40\n      mstore\n      swap1\n      dup2\n      0x00\n      dup3\n      add\n      0x00\n      swap1\n      sload\n      swap1\n      0x0100\n      exp\n      swap1\n      div\n      0xffffffffffffffffffffffffffffffffffffffff\n      and\n      0xffffffffffffffffffffffffffffffffffffffff\n      and\n      0xffffffffffffffffffffffffffffffffffffffff\n      and\n      dup2\n      mstore\n      0x20\n      add\n      0x01\n      dup3\n      add\n      0x00\n      swap1\n      sload\n      swap1\n      0x0100\n      exp\n      swap1\n      div\n      0xffffffffffffffffffffffffffffffffffffffff\n      and\n      0xffffffffffffffffffffffffffffffffffffffff\n      and\n      0xffffffffffffffffffffffffffffffffffffffff\n      and\n      dup2\n      mstore\n      0x20\n      add\n      0x02\n      dup3\n      add\n      0x00\n      swap1\n      sload\n      swap1\n      0x0100\n      exp\n      swap1\n      div\n      0xffffffffffffffffffffffffffffffffffffffff\n      and\n      0xffffffffffffffffffffffffffffffffffffffff\n      and\n      0xffffffffffffffffffffffffffffffffffffffff\n      and\n      dup2\n      mstore\n      0x20\n      add\n      0x03\n      dup3\n      add\n      sload\n      dup2\n      mstore\n      0x20\n      add\n      0x04\n      dup3\n      add\n      sload\n      dup2\n      mstore\n      0x20\n      add\n      0x05\n      dup3\n      add\n      sload\n      dup2\n      mstore\n      0x20\n      add\n      0x06\n      dup3\n      add\n      sload\n      dup2\n      mstore\n      0x20\n      add\n      0x07\n      dup3\n      add\n      sload\n      dup2\n      mstore\n      0x20\n      add\n      0x08\n      dup3\n      add\n      0x00\n      swap1\n      sload\n      swap1\n      0x0100\n      exp\n      swap1\n      div\n      0xff\n      and\n      iszero\n      iszero\n      iszero\n      iszero\n      dup2\n      mstore\n      pop\n      pop\n      swap1\n      pop\n        /* \"main.sol\":2282:2297  uint256 numBids */\n      0x00\n        /* \"main.sol\":2315:2316  1 */\n      0x01\n        /* \"main.sol\":2300:2304  loan */\n      dup3\n        /* \"main.sol\":2300:2312  loan.numBids */\n      0xe0\n      add\n      mload\n        /* \"main.sol\":2300:2316  loan.numBids + 1 */\n      tag_123\n      swap2\n      swap1\n      tag_124\n      jump\t// in\n    tag_123:\n        /* \"main.sol\":2282:2316  uint256 numBids = loan.numBids + 1 */\n      swap1\n      pop\n        /* \"main.sol\":2342:2349  numBids */\n      dup1\n        /* \"main.sol\":2327:2331  loan */\n      dup3\n        /* \"main.sol\":2327:2339  loan.numBids */\n      0xe0\n      add\n        /* \"main.sol\":2327:2349  loan.numBids = numBids */\n      dup2\n      dup2\n      mstore\n      pop\n      pop\n        /* \"main.sol\":2359:2376  uint256 loanValue */\n      0x00\n        /* \"main.sol\":2379:2407  _calculateLoanValue(_poolId) */\n      tag_125\n        /* \"main.sol\":2399:2406  _poolId */\n      dup6\n        /* \"main.sol\":2379:2398  _calculateLoanValue */\n      tag_126\n        /* \"main.sol\":2379:2407  _calculateLoanValue(_poolId) */\n      jump\t// in\n    tag_125:\n        /* \"main.sol\":2359:2407  uint256 loanValue = _calculateLoanValue(_poolId) */\n      swap1\n      pop\n        /* \"main.sol\":2435:2444  loanValue */\n      dup1\n        /* \"main.sol\":2425:2432  _amount */\n      dup5\n        /* \"main.sol\":2425:2444  _amount > loanValue */\n      gt\n        /* \"main.sol\":2417:2468  require(_amount > loanValue, \"LAN: bid not higher\") */\n      tag_127\n      jumpi\n      mload(0x40)\n      0x08c379a000000000000000000000000000000000000000000000000000000000\n      dup2\n      mstore\n      0x04\n      add\n      tag_128\n      swap1\n      tag_129\n      jump\t// in\n    tag_128:\n      mload(0x40)\n      dup1\n      swap2\n      sub\n      swap1\n      revert\n    tag_127:\n        /* \"main.sol\":2527:2531  loan */\n      dup3\n        /* \"main.sol\":2527:2537  loan.token */\n      0x20\n      add\n      mload\n        /* \"main.sol\":2520:2551  IERC20(loan.token).transferFrom */\n      0xffffffffffffffffffffffffffffffffffffffff\n      and\n      0x23b872dd\n        /* \"main.sol\":2552:2562  msg.sender */\n      caller\n        /* \"main.sol\":2564:2568  bids */\n      0x02\n        /* \"main.sol\":2564:2577  bids[_poolId] */\n      0x00\n        /* \"main.sol\":2569:2576  _poolId */\n      dup10\n        /* \"main.sol\":2564:2577  bids[_poolId] */\n      dup2\n      mstore\n      0x20\n      add\n      swap1\n      dup2\n      mstore\n      0x20\n      add\n      0x00\n      keccak256\n        /* \"main.sol\":2564:2586  bids[_poolId][numBids] */\n      0x00\n        /* \"main.sol\":2578:2585  numBids */\n      dup7\n        /* \"main.sol\":2564:2586  bids[_poolId][numBids] */\n      dup2\n      mstore\n      0x20\n      add\n      swap1\n      dup2\n      mstore\n      0x20\n      add\n      0x00\n      keccak256\n        /* \"main.sol\":2564:2591  bids[_poolId][numBids].user */\n      0x02\n      add\n      0x00\n      swap1\n      sload\n      swap1\n      0x0100\n      exp\n      swap1\n      div\n      0xffffffffffffffffffffffffffffffffffffffff\n      and\n        /* \"main.sol\":2593:2602  loanValue */\n      dup5\n        /* \"main.sol\":2520:2603  IERC20(loan.token).transferFrom(msg.sender, bids[_poolId][numBids].user, loanValue) */\n      mload(0x40)\n      dup5\n      0xffffffff\n      and\n      0xe0\n      shl\n      dup2\n      mstore\n      0x04\n      add\n      tag_130\n      swap4\n      swap3\n      swap2\n      swap1\n      tag_78\n      jump\t// in\n    tag_130:\n      0x20\n      mload(0x40)\n      dup1\n      dup4\n      sub\n      dup2\n      0x00\n      dup8\n      gas\n      call\n      iszero\n      dup1\n      iszero\n      tag_132\n      jumpi\n      returndatasize\n      0x00\n      dup1\n      returndatacopy\n      revert(0x00, returndatasize)\n    tag_132:\n      pop\n      pop\n      pop\n      pop\n      mload(0x40)\n      returndatasize\n      not(0x1f)\n      0x1f\n      dup3\n      add\n      and\n      dup3\n      add\n      dup1\n      0x40\n      mstore\n      pop\n      dup2\n      add\n      swap1\n      tag_133\n      swap2\n      swap1\n      tag_134\n      jump\t// in\n    tag_133:\n      pop\n        /* \"main.sol\":2652:2656  loan */\n      dup3\n        /* \"main.sol\":2652:2662  loan.token */\n      0x20\n      add\n      mload\n        /* \"main.sol\":2645:2676  IERC20(loan.token).transferFrom */\n      0xffffffffffffffffffffffffffffffffffffffff\n      and\n      0x23b872dd\n        /* \"main.sol\":2677:2687  msg.sender */\n      caller\n        /* \"main.sol\":2689:2693  loan */\n      dup6\n        /* \"main.sol\":2689:2699  loan.owner */\n      0x00\n      add\n      mload\n        /* \"main.sol\":2711:2720  loanValue */\n      dup5\n        /* \"main.sol\":2701:2708  _amount */\n      dup9\n        /* \"main.sol\":2701:2720  _amount - loanValue */\n      tag_135\n      swap2\n      swap1\n      tag_136\n      jump\t// in\n    tag_135:\n        /* \"main.sol\":2645:2721  IERC20(loan.token).transferFrom(msg.sender, loan.owner, _amount - loanValue) */\n      mload(0x40)\n      dup5\n      0xffffffff\n      and\n      0xe0\n      shl\n      dup2\n      mstore\n      0x04\n      add\n      tag_137\n      swap4\n      swap3\n      swap2\n      swap1\n      tag_78\n      jump\t// in\n    tag_137:\n      0x20\n      mload(0x40)\n      dup1\n      dup4\n      sub\n      dup2\n      0x00\n      dup8\n      gas\n      call\n      iszero\n      dup1\n      iszero\n      tag_139\n      jumpi\n      returndatasize\n      0x00\n      dup1\n      returndatacopy\n      revert(0x00, returndatasize)\n    tag_139:\n      pop\n      pop\n      pop\n      pop\n      mload(0x40)\n      returndatasize\n      not(0x1f)\n      0x1f\n      dup3\n      add\n      and\n      dup3\n      add\n      dup1\n      0x40\n      mstore\n      pop\n      dup2\n      add\n      swap1\n      tag_140\n      swap2\n      swap1\n      tag_134\n      jump\t// in\n    tag_140:\n      pop\n        /* \"main.sol\":2789:2927  Bid({... */\n      mload(0x40)\n      dup1\n      0x60\n      add\n      0x40\n      mstore\n      dup1\n        /* \"main.sol\":2816:2831  block.timestamp */\n      timestamp\n        /* \"main.sol\":2789:2927  Bid({... */\n      dup2\n      mstore\n      0x20\n      add\n        /* \"main.sol\":2856:2863  _amount */\n      dup6\n        /* \"main.sol\":2789:2927  Bid({... */\n      dup2\n      mstore\n      0x20\n      add\n        /* \"main.sol\":2883:2893  msg.sender */\n      caller\n        /* \"main.sol\":2789:2927  Bid({... */\n      0xffffffffffffffffffffffffffffffffffffffff\n      and\n      dup2\n      mstore\n      pop\n        /* \"main.sol\":2764:2768  bids */\n      0x02\n        /* \"main.sol\":2764:2777  bids[_poolId] */\n      0x00\n        /* \"main.sol\":2769:2776  _poolId */\n      dup8\n        /* \"main.sol\":2764:2777  bids[_poolId] */\n      dup2\n      mstore\n      0x20\n      add\n      swap1\n      dup2\n      mstore\n      0x20\n      add\n      0x00\n      keccak256\n        /* \"main.sol\":2764:2786  bids[_poolId][numBids] */\n      0x00\n        /* \"main.sol\":2778:2785  numBids */\n      dup5\n        /* \"main.sol\":2764:2786  bids[_poolId][numBids] */\n      dup2\n      mstore\n      0x20\n      add\n      swap1\n      dup2\n      mstore\n      0x20\n      add\n      0x00\n      keccak256\n        /* \"main.sol\":2764:2927  bids[_poolId][numBids] = Bid({... */\n      0x00\n      dup3\n      add\n      mload\n      dup2\n      0x00\n      add\n      sstore\n      0x20\n      dup3\n      add\n      mload\n      dup2\n      0x01\n      add\n      sstore\n      0x40\n      dup3\n      add\n      mload\n      dup2\n      0x02\n      add\n      exp(0x0100, 0x00)\n      dup2\n      sload\n      dup2\n      0xffffffffffffffffffffffffffffffffffffffff\n      mul\n      not\n      and\n      swap1\n      dup4\n      0xffffffffffffffffffffffffffffffffffffffff\n      and\n      mul\n      or\n      swap1\n      sstore\n      pop\n      swap1\n      pop\n      pop\n        /* \"main.sol\":2084:2934  {... */\n      pop\n      pop\n      pop\n        /* \"main.sol\":2028:2934  function bid(uint256 _poolId, uint256 _amount) external {... */\n      pop\n      pop\n      jump\t// out\n        /* \"main.sol\":3906:4383  function endLoan(uint256 _poolId) external onlyOwner(_poolId) {... */\n    tag_40:\n        /* \"main.sol\":3959:3966  _poolId */\n      dup1\n        /* \"main.sol\":1216:1226  msg.sender */\n      caller\n        /* \"main.sol\":1192:1226  loans[_poolId].owner == msg.sender */\n      0xffffffffffffffffffffffffffffffffffffffff\n      and\n        /* \"main.sol\":1192:1197  loans */\n      0x01\n        /* \"main.sol\":1192:1206  loans[_poolId] */\n      0x00\n        /* \"main.sol\":1198:1205  _poolId */\n      dup4\n        /* \"main.sol\":1192:1206  loans[_poolId] */\n      dup2\n      mstore\n      0x20\n      add\n      swap1\n      dup2\n      mstore\n      0x20\n      add\n      0x00\n      keccak256\n        /* \"main.sol\":1192:1212  loans[_poolId].owner */\n      0x00\n      add\n      0x00\n      swap1\n      sload\n      swap1\n      0x0100\n      exp\n      swap1\n      div\n      0xffffffffffffffffffffffffffffffffffffffff\n      and\n        /* \"main.sol\":1192:1226  loans[_poolId].owner == msg.sender */\n      0xffffffffffffffffffffffffffffffffffffffff\n      and\n      eq\n        /* \"main.sol\":1184:1245  require(loans[_poolId].owner == msg.sender, \"LAN: not owner\") */\n      tag_142\n      jumpi\n      mload(0x40)\n      0x08c379a000000000000000000000000000000000000000000000000000000000\n      dup2\n      mstore\n      0x04\n      add\n      tag_143\n      swap1\n      tag_67\n      jump\t// in\n    tag_143:\n      mload(0x40)\n      dup1\n      swap2\n      sub\n      swap1\n      revert\n    tag_142:\n        /* \"main.sol\":3978:3994  Loan memory loan */\n      0x00\n        /* \"main.sol\":3997:4002  loans */\n      0x01\n        /* \"main.sol\":3997:4011  loans[_poolId] */\n      0x00\n        /* \"main.sol\":4003:4010  _poolId */\n      dup5\n        /* \"main.sol\":3997:4011  loans[_poolId] */\n      dup2\n      mstore\n      0x20\n      add\n      swap1\n      dup2\n      mstore\n      0x20\n      add\n      0x00\n      keccak256\n        /* \"main.sol\":3978:4011  Loan memory loan = loans[_poolId] */\n      mload(0x40)\n      dup1\n      0x0120\n      add\n      0x40\n      mstore\n      swap1\n      dup2\n      0x00\n      dup3\n      add\n      0x00\n      swap1\n      sload\n      swap1\n      0x0100\n      exp\n      swap1\n      div\n      0xffffffffffffffffffffffffffffffffffffffff\n      and\n      0xffffffffffffffffffffffffffffffffffffffff\n      and\n      0xffffffffffffffffffffffffffffffffffffffff\n      and\n      dup2\n      mstore\n      0x20\n      add\n      0x01\n      dup3\n      add\n      0x00\n      swap1\n      sload\n      swap1\n      0x0100\n      exp\n      swap1\n      div\n      0xffffffffffffffffffffffffffffffffffffffff\n      and\n      0xffffffffffffffffffffffffffffffffffffffff\n      and\n      0xffffffffffffffffffffffffffffffffffffffff\n      and\n      dup2\n      mstore\n      0x20\n      add\n      0x02\n      dup3\n      add\n      0x00\n      swap1\n      sload\n      swap1\n      0x0100\n      exp\n      swap1\n      div\n      0xffffffffffffffffffffffffffffffffffffffff\n      and\n      0xffffffffffffffffffffffffffffffffffffffff\n      and\n      0xffffffffffffffffffffffffffffffffffffffff\n      and\n      dup2\n      mstore\n      0x20\n      add\n      0x03\n      dup3\n      add\n      sload\n      dup2\n      mstore\n      0x20\n      add\n      0x04\n      dup3\n      add\n      sload\n      dup2\n      mstore\n      0x20\n      add\n      0x05\n      dup3\n      add\n      sload\n      dup2\n      mstore\n      0x20\n      add\n      0x06\n      dup3\n      add\n      sload\n      dup2\n      mstore\n      0x20\n      add\n      0x07\n      dup3\n      add\n      sload\n      dup2\n      mstore\n      0x20\n      add\n      0x08\n      dup3\n      add\n      0x00\n      swap1\n      sload\n      swap1\n      0x0100\n      exp\n      swap1\n      div\n      0xff\n      and\n      iszero\n      iszero\n      iszero\n      iszero\n      dup2\n      mstore\n      pop\n      pop\n      swap1\n      pop\n        /* \"main.sol\":4021:4041  Bid memory latestBid */\n      0x00\n        /* \"main.sol\":4044:4048  bids */\n      0x02\n        /* \"main.sol\":4044:4057  bids[_poolId] */\n      0x00\n        /* \"main.sol\":4049:4056  _poolId */\n      dup6\n        /* \"main.sol\":4044:4057  bids[_poolId] */\n      dup2\n      mstore\n      0x20\n      add\n      swap1\n      dup2\n      mstore\n      0x20\n      add\n      0x00\n      keccak256\n        /* \"main.sol\":4044:4071  bids[_poolId][loan.numBids] */\n      0x00\n        /* \"main.sol\":4058:4062  loan */\n      dup4\n        /* \"main.sol\":4058:4070  loan.numBids */\n      0xe0\n      add\n      mload\n        /* \"main.sol\":4044:4071  bids[_poolId][loan.numBids] */\n      dup2\n      mstore\n      0x20\n      add\n      swap1\n      dup2\n      mstore\n      0x20\n      add\n      0x00\n      keccak256\n        /* \"main.sol\":4021:4071  Bid memory latestBid = bids[_poolId][loan.numBids] */\n      mload(0x40)\n      dup1\n      0x60\n      add\n      0x40\n      mstore\n      swap1\n      dup2\n      0x00\n      dup3\n      add\n      sload\n      dup2\n      mstore\n      0x20\n      add\n      0x01\n      dup3\n      add\n      sload\n      dup2\n      mstore\n      0x20\n      add\n      0x02\n      dup3\n      add\n      0x00\n      swap1\n      sload\n      swap1\n      0x0100\n      exp\n      swap1\n      div\n      0xffffffffffffffffffffffffffffffffffffffff\n      and\n      0xffffffffffffffffffffffffffffffffffffffff\n      and\n      0xffffffffffffffffffffffffffffffffffffffff\n      and\n      dup2\n      mstore\n      pop\n      pop\n      swap1\n      pop\n        /* \"main.sol\":4132:4136  loan */\n      dup2\n        /* \"main.sol\":4132:4142  loan.token */\n      0x20\n      add\n      mload\n        /* \"main.sol\":4125:4156  IERC20(loan.token).transferFrom */\n      0xffffffffffffffffffffffffffffffffffffffff\n      and\n      0x23b872dd\n        /* \"main.sol\":4157:4167  msg.sender */\n      caller\n        /* \"main.sol\":4169:4178  latestBid */\n      dup4\n        /* \"main.sol\":4169:4183  latestBid.user */\n      0x40\n      add\n      mload\n        /* \"main.sol\":4185:4213  _calculateLoanValue(_poolId) */\n      tag_145\n        /* \"main.sol\":4205:4212  _poolId */\n      dup9\n        /* \"main.sol\":4185:4204  _calculateLoanValue */\n      tag_126\n        /* \"main.sol\":4185:4213  _calculateLoanValue(_poolId) */\n      jump\t// in\n    tag_145:\n        /* \"main.sol\":4125:4214  IERC20(loan.token).transferFrom(msg.sender, latestBid.user, _calculateLoanValue(_poolId)) */\n      mload(0x40)\n      dup5\n      0xffffffff\n      and\n      0xe0\n      shl\n      dup2\n      mstore\n      0x04\n      add\n      tag_146\n      swap4\n      swap3\n      swap2\n      swap1\n      tag_78\n      jump\t// in\n    tag_146:\n      0x20\n      mload(0x40)\n      dup1\n      dup4\n      sub\n      dup2\n      0x00\n      dup8\n      gas\n      call\n      iszero\n      dup1\n      iszero\n      tag_148\n      jumpi\n      returndatasize\n      0x00\n      dup1\n      returndatacopy\n      revert(0x00, returndatasize)\n    tag_148:\n      pop\n      pop\n      pop\n      pop\n      mload(0x40)\n      returndatasize\n      not(0x1f)\n      0x1f\n      dup3\n      add\n      and\n      dup3\n      add\n      dup1\n      0x40\n      mstore\n      pop\n      dup2\n      add\n      swap1\n      tag_149\n      swap2\n      swap1\n      tag_134\n      jump\t// in\n    tag_149:\n      pop\n        /* \"main.sol\":4262:4273  IERC721 NFT */\n      0x00\n        /* \"main.sol\":4284:4288  loan */\n      dup3\n        /* \"main.sol\":4284:4306  loan.collectionAddress */\n      0x40\n      add\n      mload\n        /* \"main.sol\":4262:4307  IERC721 NFT = IERC721(loan.collectionAddress) */\n      swap1\n      pop\n        /* \"main.sol\":4317:4320  NFT */\n      dup1\n        /* \"main.sol\":4317:4337  NFT.safeTransferFrom */\n      0xffffffffffffffffffffffffffffffffffffffff\n      and\n      0x42842e0e\n        /* \"main.sol\":4346:4350  this */\n      address\n        /* \"main.sol\":4353:4363  msg.sender */\n      caller\n        /* \"main.sol\":4365:4369  loan */\n      dup7\n        /* \"main.sol\":4365:4375  loan.nftId */\n      0x60\n      add\n      mload\n        /* \"main.sol\":4317:4376  NFT.safeTransferFrom(address(this), msg.sender, loan.nftId) */\n      mload(0x40)\n      dup5\n      0xffffffff\n      and\n      0xe0\n      shl\n      dup2\n      mstore\n      0x04\n      add\n      tag_150\n      swap4\n      swap3\n      swap2\n      swap1\n      tag_78\n      jump\t// in\n    tag_150:\n      0x00\n      mload(0x40)\n      dup1\n      dup4\n      sub\n      dup2\n      0x00\n      dup8\n      dup1\n      extcodesize\n      iszero\n      dup1\n      iszero\n      tag_151\n      jumpi\n      0x00\n      dup1\n      revert\n    tag_151:\n      pop\n      gas\n      call\n      iszero\n      dup1\n      iszero\n      tag_153\n      jumpi\n      returndatasize\n      0x00\n      dup1\n      returndatacopy\n      revert(0x00, returndatasize)\n    tag_153:\n      pop\n      pop\n      pop\n      pop\n        /* \"main.sol\":3968:4383  {... */\n      pop\n      pop\n      pop\n        /* \"main.sol\":3906:4383  function endLoan(uint256 _poolId) external onlyOwner(_poolId) {... */\n      pop\n      pop\n      jump\t// out\n        /* \"main.sol\":872:927  mapping(uint256 => mapping(uint256 => Bid)) public bids */\n    tag_43:\n      mstore(0x20, 0x02)\n      dup2\n      0x00\n      mstore\n      mstore(0x20, keccak256(0x00, 0x40))\n      dup1\n      0x00\n      mstore\n      keccak256(0x00, 0x40)\n      0x00\n      swap2\n      pop\n      swap2\n      pop\n      pop\n      dup1\n      0x00\n      add\n      sload\n      swap1\n      dup1\n      0x01\n      add\n      sload\n      swap1\n      dup1\n      0x02\n      add\n      0x00\n      swap1\n      sload\n      swap1\n      0x0100\n      exp\n      swap1\n      div\n      0xffffffffffffffffffffffffffffffffffffffff\n      and\n      swap1\n      pop\n      dup4\n      jump\t// out\n        /* \"main.sol\":3492:3576  function addNewWhitelist(uint256 _poolId, address[] memory _addys) external {... */\n    tag_49:\n      pop\n      pop\n      jump\t// out\n        /* \"main.sol\":3075:3486  function setNewBidOwner(uint256 _poolId, address _newAddress) external {... */\n    tag_53:\n        /* \"main.sol\":3164:3181  _started(_poolId) */\n      tag_156\n        /* \"main.sol\":3173:3180  _poolId */\n      dup3\n        /* \"main.sol\":3164:3172  _started */\n      tag_115\n        /* \"main.sol\":3164:3181  _started(_poolId) */\n      jump\t// in\n    tag_156:\n        /* \"main.sol\":3156:3202  require(_started(_poolId), \"LAN: not started\") */\n      tag_157\n      jumpi\n      mload(0x40)\n      0x08c379a000000000000000000000000000000000000000000000000000000000\n      dup2\n      mstore\n      0x04\n      add\n      tag_158\n      swap1\n      tag_118\n      jump\t// in\n    tag_158:\n      mload(0x40)\n      dup1\n      swap2\n      sub\n      swap1\n      revert\n    tag_157:\n        /* \"main.sol\":3221:3236  _ended(_poolId) */\n      tag_159\n        /* \"main.sol\":3228:3235  _poolId */\n      dup3\n        /* \"main.sol\":3221:3227  _ended */\n      tag_70\n        /* \"main.sol\":3221:3236  _ended(_poolId) */\n      jump\t// in\n    tag_159:\n        /* \"main.sol\":3220:3236  !_ended(_poolId) */\n      iszero\n        /* \"main.sol\":3212:3259  require(!_ended(_poolId), \"LAN: already ended\") */\n      tag_160\n      jumpi\n      mload(0x40)\n      0x08c379a000000000000000000000000000000000000000000000000000000000\n      dup2\n      mstore\n      0x04\n      add\n      tag_161\n      swap1\n      tag_122\n      jump\t// in\n    tag_161:\n      mload(0x40)\n      dup1\n      swap2\n      sub\n      swap1\n      revert\n    tag_160:\n        /* \"main.sol\":3270:3286  Loan memory loan */\n      0x00\n        /* \"main.sol\":3289:3294  loans */\n      0x01\n        /* \"main.sol\":3289:3303  loans[_poolId] */\n      0x00\n        /* \"main.sol\":3295:3302  _poolId */\n      dup5\n        /* \"main.sol\":3289:3303  loans[_poolId] */\n      dup2\n      mstore\n      0x20\n      add\n      swap1\n      dup2\n      mstore\n      0x20\n      add\n      0x00\n      keccak256\n        /* \"main.sol\":3270:3303  Loan memory loan = loans[_poolId] */\n      mload(0x40)\n      dup1\n      0x0120\n      add\n      0x40\n      mstore\n      swap1\n      dup2\n      0x00\n      dup3\n      add\n      0x00\n      swap1\n      sload\n      swap1\n      0x0100\n      exp\n      swap1\n      div\n      0xffffffffffffffffffffffffffffffffffffffff\n      and\n      0xffffffffffffffffffffffffffffffffffffffff\n      and\n      0xffffffffffffffffffffffffffffffffffffffff\n      and\n      dup2\n      mstore\n      0x20\n      add\n      0x01\n      dup3\n      add\n      0x00\n      swap1\n      sload\n      swap1\n      0x0100\n      exp\n      swap1\n      div\n      0xffffffffffffffffffffffffffffffffffffffff\n      and\n      0xffffffffffffffffffffffffffffffffffffffff\n      and\n      0xffffffffffffffffffffffffffffffffffffffff\n      and\n      dup2\n      mstore\n      0x20\n      add\n      0x02\n      dup3\n      add\n      0x00\n      swap1\n      sload\n      swap1\n      0x0100\n      exp\n      swap1\n      div\n      0xffffffffffffffffffffffffffffffffffffffff\n      and\n      0xffffffffffffffffffffffffffffffffffffffff\n      and\n      0xffffffffffffffffffffffffffffffffffffffff\n      and\n      dup2\n      mstore\n      0x20\n      add\n      0x03\n      dup3\n      add\n      sload\n      dup2\n      mstore\n      0x20\n      add\n      0x04\n      dup3\n      add\n      sload\n      dup2\n      mstore\n      0x20\n      add\n      0x05\n      dup3\n      add\n      sload\n      dup2\n      mstore\n      0x20\n      add\n      0x06\n      dup3\n      add\n      sload\n      dup2\n      mstore\n      0x20\n      add\n      0x07\n      dup3\n      add\n      sload\n      dup2\n      mstore\n      0x20\n      add\n      0x08\n      dup3\n      add\n      0x00\n      swap1\n      sload\n      swap1\n      0x0100\n      exp\n      swap1\n      div\n      0xff\n      and\n      iszero\n      iszero\n      iszero\n      iszero\n      dup2\n      mstore\n      pop\n      pop\n      swap1\n      pop\n        /* \"main.sol\":3313:3334  Bid storage latestBid */\n      0x00\n        /* \"main.sol\":3337:3341  bids */\n      0x02\n        /* \"main.sol\":3337:3350  bids[_poolId] */\n      0x00\n        /* \"main.sol\":3342:3349  _poolId */\n      dup6\n        /* \"main.sol\":3337:3350  bids[_poolId] */\n      dup2\n      mstore\n      0x20\n      add\n      swap1\n      dup2\n      mstore\n      0x20\n      add\n      0x00\n      keccak256\n        /* \"main.sol\":3337:3364  bids[_poolId][loan.numBids] */\n      0x00\n        /* \"main.sol\":3351:3355  loan */\n      dup4\n        /* \"main.sol\":3351:3363  loan.numBids */\n      0xe0\n      add\n      mload\n        /* \"main.sol\":3337:3364  bids[_poolId][loan.numBids] */\n      dup2\n      mstore\n      0x20\n      add\n      swap1\n      dup2\n      mstore\n      0x20\n      add\n      0x00\n      keccak256\n        /* \"main.sol\":3313:3364  Bid storage latestBid = bids[_poolId][loan.numBids] */\n      swap1\n      pop\n        /* \"main.sol\":3400:3410  msg.sender */\n      caller\n        /* \"main.sol\":3382:3410  latestBid.user == msg.sender */\n      0xffffffffffffffffffffffffffffffffffffffff\n      and\n        /* \"main.sol\":3382:3391  latestBid */\n      dup2\n        /* \"main.sol\":3382:3396  latestBid.user */\n      0x02\n      add\n      0x00\n      swap1\n      sload\n      swap1\n      0x0100\n      exp\n      swap1\n      div\n      0xffffffffffffffffffffffffffffffffffffffff\n      and\n        /* \"main.sol\":3382:3410  latestBid.user == msg.sender */\n      0xffffffffffffffffffffffffffffffffffffffff\n      and\n      eq\n        /* \"main.sol\":3374:3441  require(latestBid.user == msg.sender, \"LAN: Not the latest bidder\") */\n      tag_162\n      jumpi\n      mload(0x40)\n      0x08c379a000000000000000000000000000000000000000000000000000000000\n      dup2\n      mstore\n      0x04\n      add\n      tag_163\n      swap1\n      tag_164\n      jump\t// in\n    tag_163:\n      mload(0x40)\n      dup1\n      swap2\n      sub\n      swap1\n      revert\n    tag_162:\n        /* \"main.sol\":3468:3479  _newAddress */\n      dup3\n        /* \"main.sol\":3451:3460  latestBid */\n      dup2\n        /* \"main.sol\":3451:3465  latestBid.user */\n      0x02\n      add\n      0x00\n        /* \"main.sol\":3451:3479  latestBid.user = _newAddress */\n      0x0100\n      exp\n      dup2\n      sload\n      dup2\n      0xffffffffffffffffffffffffffffffffffffffff\n      mul\n      not\n      and\n      swap1\n      dup4\n      0xffffffffffffffffffffffffffffffffffffffff\n      and\n      mul\n      or\n      swap1\n      sstore\n      pop\n        /* \"main.sol\":3146:3486  {... */\n      pop\n      pop\n        /* \"main.sol\":3075:3486  function setNewBidOwner(uint256 _poolId, address _newAddress) external {... */\n      pop\n      pop\n      jump\t// out\n        /* \"main.sol\":1009:1066  mapping(uint256 => address[]) public whitelistedAddresses */\n    tag_56:\n      mstore(0x20, 0x03)\n      dup2\n      0x00\n      mstore\n      keccak256(0x00, 0x40)\n      dup2\n      dup2\n      sload\n      dup2\n      lt\n      tag_165\n      jumpi\n      0x00\n      dup1\n      revert\n    tag_165:\n      swap1\n      0x00\n      mstore\n      keccak256(0x00, 0x20)\n      add\n      0x00\n      swap2\n      pop\n      swap2\n      pop\n      swap1\n      sload\n      swap1\n      0x0100\n      exp\n      swap1\n      div\n      0xffffffffffffffffffffffffffffffffffffffff\n      and\n      dup2\n      jump\t// out\n        /* \"main.sol\":708:745  mapping(uint256 => Loan) public loans */\n    tag_61:\n      mstore(0x20, 0x01)\n      dup1\n      0x00\n      mstore\n      keccak256(0x00, 0x40)\n      0x00\n      swap2\n      pop\n      swap1\n      pop\n      dup1\n      0x00\n      add\n      0x00\n      swap1\n      sload\n      swap1\n      0x0100\n      exp\n      swap1\n      div\n      0xffffffffffffffffffffffffffffffffffffffff\n      and\n      swap1\n      dup1\n      0x01\n      add\n      0x00\n      swap1\n      sload\n      swap1\n      0x0100\n      exp\n      swap1\n      div\n      0xffffffffffffffffffffffffffffffffffffffff\n      and\n      swap1\n      dup1\n      0x02\n      add\n      0x00\n      swap1\n      sload\n      swap1\n      0x0100\n      exp\n      swap1\n      div\n      0xffffffffffffffffffffffffffffffffffffffff\n      and\n      swap1\n      dup1\n      0x03\n      add\n      sload\n      swap1\n      dup1\n      0x04\n      add\n      sload\n      swap1\n      dup1\n      0x05\n      add\n      sload\n      swap1\n      dup1\n      0x06\n      add\n      sload\n      swap1\n      dup1\n      0x07\n      add\n      sload\n      swap1\n      dup1\n      0x08\n      add\n      0x00\n      swap1\n      sload\n      swap1\n      0x0100\n      exp\n      swap1\n      div\n      0xff\n      and\n      swap1\n      pop\n      dup10\n      jump\t// out\n        /* \"main.sol\":6080:6206  function _ended(uint256 _poolId) internal view returns (bool){... */\n    tag_70:\n        /* \"main.sol\":6136:6140  bool */\n      0x00\n        /* \"main.sol\":6184:6199  block.timestamp */\n      timestamp\n        /* \"main.sol\":6158:6163  loans */\n      0x01\n        /* \"main.sol\":6158:6172  loans[_poolId] */\n      0x00\n        /* \"main.sol\":6164:6171  _poolId */\n      dup5\n        /* \"main.sol\":6158:6172  loans[_poolId] */\n      dup2\n      mstore\n      0x20\n      add\n      swap1\n      dup2\n      mstore\n      0x20\n      add\n      0x00\n      keccak256\n        /* \"main.sol\":6158:6180  loans[_poolId].endTime */\n      0x05\n      add\n      sload\n        /* \"main.sol\":6158:6199  loans[_poolId].endTime <= block.timestamp */\n      gt\n      iszero\n        /* \"main.sol\":6151:6199  return loans[_poolId].endTime <= block.timestamp */\n      swap1\n      pop\n        /* \"main.sol\":6080:6206  function _ended(uint256 _poolId) internal view returns (bool){... */\n      swap2\n      swap1\n      pop\n      jump\t// out\n        /* \"main.sol\":6211:6340  function _started(uint256 _poolId) internal view returns (bool){... */\n    tag_115:\n        /* \"main.sol\":6269:6273  bool */\n      0x00\n        /* \"main.sol\":6318:6333  block.timestamp */\n      timestamp\n        /* \"main.sol\":6291:6296  loans */\n      0x01\n        /* \"main.sol\":6291:6305  loans[_poolId] */\n      0x00\n        /* \"main.sol\":6297:6304  _poolId */\n      dup5\n        /* \"main.sol\":6291:6305  loans[_poolId] */\n      dup2\n      mstore\n      0x20\n      add\n      swap1\n      dup2\n      mstore\n      0x20\n      add\n      0x00\n      keccak256\n        /* \"main.sol\":6291:6315  loans[_poolId].startTime */\n      0x04\n      add\n      sload\n        /* \"main.sol\":6291:6333  loans[_poolId].startTime < block.timestamp */\n      lt\n        /* \"main.sol\":6284:6333  return loans[_poolId].startTime < block.timestamp */\n      swap1\n      pop\n        /* \"main.sol\":6211:6340  function _started(uint256 _poolId) internal view returns (bool){... */\n      swap2\n      swap1\n      pop\n      jump\t// out\n        /* \"main.sol\":5556:6069  function _calculateLoanValue(uint256 _poolId) internal view returns (uint256){... */\n    tag_126:\n        /* \"main.sol\":5625:5632  uint256 */\n      0x00\n        /* \"main.sol\":5643:5659  Loan memory loan */\n      dup1\n        /* \"main.sol\":5662:5667  loans */\n      0x01\n        /* \"main.sol\":5662:5676  loans[_poolId] */\n      0x00\n        /* \"main.sol\":5668:5675  _poolId */\n      dup5\n        /* \"main.sol\":5662:5676  loans[_poolId] */\n      dup2\n      mstore\n      0x20\n      add\n      swap1\n      dup2\n      mstore\n      0x20\n      add\n      0x00\n      keccak256\n        /* \"main.sol\":5643:5676  Loan memory loan = loans[_poolId] */\n      mload(0x40)\n      dup1\n      0x0120\n      add\n      0x40\n      mstore\n      swap1\n      dup2\n      0x00\n      dup3\n      add\n      0x00\n      swap1\n      sload\n      swap1\n      0x0100\n      exp\n      swap1\n      div\n      0xffffffffffffffffffffffffffffffffffffffff\n      and\n      0xffffffffffffffffffffffffffffffffffffffff\n      and\n      0xffffffffffffffffffffffffffffffffffffffff\n      and\n      dup2\n      mstore\n      0x20\n      add\n      0x01\n      dup3\n      add\n      0x00\n      swap1\n      sload\n      swap1\n      0x0100\n      exp\n      swap1\n      div\n      0xffffffffffffffffffffffffffffffffffffffff\n      and\n      0xffffffffffffffffffffffffffffffffffffffff\n      and\n      0xffffffffffffffffffffffffffffffffffffffff\n      and\n      dup2\n      mstore\n      0x20\n      add\n      0x02\n      dup3\n      add\n      0x00\n      swap1\n      sload\n      swap1\n      0x0100\n      exp\n      swap1\n      div\n      0xffffffffffffffffffffffffffffffffffffffff\n      and\n      0xffffffffffffffffffffffffffffffffffffffff\n      and\n      0xffffffffffffffffffffffffffffffffffffffff\n      and\n      dup2\n      mstore\n      0x20\n      add\n      0x03\n      dup3\n      add\n      sload\n      dup2\n      mstore\n      0x20\n      add\n      0x04\n      dup3\n      add\n      sload\n      dup2\n      mstore\n      0x20\n      add\n      0x05\n      dup3\n      add\n      sload\n      dup2\n      mstore\n      0x20\n      add\n      0x06\n      dup3\n      add\n      sload\n      dup2\n      mstore\n      0x20\n      add\n      0x07\n      dup3\n      add\n      sload\n      dup2\n      mstore\n      0x20\n      add\n      0x08\n      dup3\n      add\n      0x00\n      swap1\n      sload\n      swap1\n      0x0100\n      exp\n      swap1\n      div\n      0xff\n      and\n      iszero\n      iszero\n      iszero\n      iszero\n      dup2\n      mstore\n      pop\n      pop\n      swap1\n      pop\n        /* \"main.sol\":5686:5706  Bid memory latestBid */\n      0x00\n        /* \"main.sol\":5709:5713  bids */\n      0x02\n        /* \"main.sol\":5709:5722  bids[_poolId] */\n      0x00\n        /* \"main.sol\":5714:5721  _poolId */\n      dup6\n        /* \"main.sol\":5709:5722  bids[_poolId] */\n      dup2\n      mstore\n      0x20\n      add\n      swap1\n      dup2\n      mstore\n      0x20\n      add\n      0x00\n      keccak256\n        /* \"main.sol\":5709:5736  bids[_poolId][loan.numBids] */\n      0x00\n        /* \"main.sol\":5723:5727  loan */\n      dup4\n        /* \"main.sol\":5723:5735  loan.numBids */\n      0xe0\n      add\n      mload\n        /* \"main.sol\":5709:5736  bids[_poolId][loan.numBids] */\n      dup2\n      mstore\n      0x20\n      add\n      swap1\n      dup2\n      mstore\n      0x20\n      add\n      0x00\n      keccak256\n        /* \"main.sol\":5686:5736  Bid memory latestBid = bids[_poolId][loan.numBids] */\n      mload(0x40)\n      dup1\n      0x60\n      add\n      0x40\n      mstore\n      swap1\n      dup2\n      0x00\n      dup3\n      add\n      sload\n      dup2\n      mstore\n      0x20\n      add\n      0x01\n      dup3\n      add\n      sload\n      dup2\n      mstore\n      0x20\n      add\n      0x02\n      dup3\n      add\n      0x00\n      swap1\n      sload\n      swap1\n      0x0100\n      exp\n      swap1\n      div\n      0xffffffffffffffffffffffffffffffffffffffff\n      and\n      0xffffffffffffffffffffffffffffffffffffffff\n      and\n      0xffffffffffffffffffffffffffffffffffffffff\n      and\n      dup2\n      mstore\n      pop\n      pop\n      swap1\n      pop\n        /* \"main.sol\":5746:5765  uint256 timeElapsed */\n      0x00\n        /* \"main.sol\":5778:5793  _ended(_poolId) */\n      tag_170\n        /* \"main.sol\":5785:5792  _poolId */\n      dup6\n        /* \"main.sol\":5778:5784  _ended */\n      tag_70\n        /* \"main.sol\":5778:5793  _ended(_poolId) */\n      jump\t// in\n    tag_170:\n        /* \"main.sol\":5775:5947  if(_ended(_poolId)){... */\n      iszero\n      tag_171\n      jumpi\n        /* \"main.sol\":5843:5847  loan */\n      dup3\n        /* \"main.sol\":5843:5855  loan.endTime */\n      0xa0\n      add\n      mload\n        /* \"main.sol\":5823:5832  latestBid */\n      dup3\n        /* \"main.sol\":5823:5840  latestBid.bidTime */\n      0x00\n      add\n      mload\n        /* \"main.sol\":5823:5855  latestBid.bidTime - loan.endTime */\n      tag_172\n      swap2\n      swap1\n      tag_136\n      jump\t// in\n    tag_172:\n        /* \"main.sol\":5808:5855  timeElapsed =  latestBid.bidTime - loan.endTime */\n      swap1\n      pop\n        /* \"main.sol\":5775:5947  if(_ended(_poolId)){... */\n      jump(tag_173)\n    tag_171:\n        /* \"main.sol\":5921:5936  block.timestamp */\n      timestamp\n        /* \"main.sol\":5901:5910  latestBid */\n      dup3\n        /* \"main.sol\":5901:5918  latestBid.bidTime */\n      0x00\n      add\n      mload\n        /* \"main.sol\":5901:5936  latestBid.bidTime - block.timestamp */\n      tag_174\n      swap2\n      swap1\n      tag_136\n      jump\t// in\n    tag_174:\n        /* \"main.sol\":5886:5936  timeElapsed =  latestBid.bidTime - block.timestamp */\n      swap1\n      pop\n        /* \"main.sol\":5775:5947  if(_ended(_poolId)){... */\n    tag_173:\n        /* \"main.sol\":1120:1132  60*60*24*365 */\n      0x01e13380\n        /* \"main.sol\":6029:6040  timeElapsed */\n      dup2\n        /* \"main.sol\":6018:6026  10 ** 18 */\n      0x0de0b6b3a7640000\n        /* \"main.sol\":6007:6011  loan */\n      dup6\n        /* \"main.sol\":6007:6015  loan.apr */\n      0xc0\n      add\n      mload\n        /* \"main.sol\":5985:5994  latestBid */\n      dup6\n        /* \"main.sol\":5985:6004  latestBid.bidAmount */\n      0x20\n      add\n      mload\n        /* \"main.sol\":5985:6015  latestBid.bidAmount * loan.apr */\n      tag_175\n      swap2\n      swap1\n      tag_176\n      jump\t// in\n    tag_175:\n        /* \"main.sol\":5985:6026  latestBid.bidAmount * loan.apr / 10 ** 18 */\n      tag_177\n      swap2\n      swap1\n      tag_178\n      jump\t// in\n    tag_177:\n        /* \"main.sol\":5985:6040  latestBid.bidAmount * loan.apr / 10 ** 18 * timeElapsed */\n      tag_179\n      swap2\n      swap1\n      tag_176\n      jump\t// in\n    tag_179:\n        /* \"main.sol\":5985:6062  latestBid.bidAmount * loan.apr / 10 ** 18 * timeElapsed / SECONDS_IN_ONE_YEAR */\n      tag_180\n      swap2\n      swap1\n      tag_178\n      jump\t// in\n    tag_180:\n        /* \"main.sol\":5963:5972  latestBid */\n      dup3\n        /* \"main.sol\":5963:5982  latestBid.bidAmount */\n      0x20\n      add\n      mload\n        /* \"main.sol\":5963:6062  latestBid.bidAmount + latestBid.bidAmount * loan.apr / 10 ** 18 * timeElapsed / SECONDS_IN_ONE_YEAR */\n      tag_181\n      swap2\n      swap1\n      tag_124\n      jump\t// in\n    tag_181:\n        /* \"main.sol\":5956:6062  return latestBid.bidAmount + latestBid.bidAmount * loan.apr / 10 ** 18 * timeElapsed / SECONDS_IN_ONE_YEAR */\n      swap4\n      pop\n      pop\n      pop\n      pop\n        /* \"main.sol\":5556:6069  function _calculateLoanValue(uint256 _poolId) internal view returns (uint256){... */\n      swap2\n      swap1\n      pop\n      jump\t// out\n    tag_101:\n      mload(0x40)\n      dup1\n      0x0120\n      add\n      0x40\n      mstore\n      dup1\n      and(0xffffffffffffffffffffffffffffffffffffffff, 0x00)\n      dup2\n      mstore\n      0x20\n      add\n      and(0xffffffffffffffffffffffffffffffffffffffff, 0x00)\n      dup2\n      mstore\n      0x20\n      add\n      and(0xffffffffffffffffffffffffffffffffffffffff, 0x00)\n      dup2\n      mstore\n      0x20\n      add\n      0x00\n      dup2\n      mstore\n      0x20\n      add\n      0x00\n      dup2\n      mstore\n      0x20\n      add\n      0x00\n      dup2\n      mstore\n      0x20\n      add\n      0x00\n      dup2\n      mstore\n      0x20\n      add\n      0x00\n      dup2\n      mstore\n      0x20\n      add\n      iszero(iszero(0x00))\n      dup2\n      mstore\n      pop\n      swap1\n      jump\t// out\n        /* \"#utility.yul\":7:84   */\n    tag_182:\n        /* \"#utility.yul\":44:51   */\n      0x00\n        /* \"#utility.yul\":73:78   */\n      dup2\n        /* \"#utility.yul\":62:78   */\n      swap1\n      pop\n        /* \"#utility.yul\":7:84   */\n      swap2\n      swap1\n      pop\n      jump\t// out\n        /* \"#utility.yul\":90:208   */\n    tag_183:\n        /* \"#utility.yul\":177:201   */\n      tag_234\n        /* \"#utility.yul\":195:200   */\n      dup2\n        /* \"#utility.yul\":177:201   */\n      tag_182\n      jump\t// in\n    tag_234:\n        /* \"#utility.yul\":172:175   */\n      dup3\n        /* \"#utility.yul\":165:202   */\n      mstore\n        /* \"#utility.yul\":90:208   */\n      pop\n      pop\n      jump\t// out\n        /* \"#utility.yul\":214:436   */\n    tag_19:\n        /* \"#utility.yul\":307:311   */\n      0x00\n        /* \"#utility.yul\":345:347   */\n      0x20\n        /* \"#utility.yul\":334:343   */\n      dup3\n        /* \"#utility.yul\":330:348   */\n      add\n        /* \"#utility.yul\":322:348   */\n      swap1\n      pop\n        /* \"#utility.yul\":358:429   */\n      tag_236\n        /* \"#utility.yul\":426:427   */\n      0x00\n        /* \"#utility.yul\":415:424   */\n      dup4\n        /* \"#utility.yul\":411:428   */\n      add\n        /* \"#utility.yul\":402:408   */\n      dup5\n        /* \"#utility.yul\":358:429   */\n      tag_183\n      jump\t// in\n    tag_236:\n        /* \"#utility.yul\":214:436   */\n      swap3\n      swap2\n      pop\n      pop\n      jump\t// out\n        /* \"#utility.yul\":442:517   */\n    tag_184:\n        /* \"#utility.yul\":475:481   */\n      0x00\n        /* \"#utility.yul\":508:510   */\n      0x40\n        /* \"#utility.yul\":502:511   */\n      mload\n        /* \"#utility.yul\":492:511   */\n      swap1\n      pop\n        /* \"#utility.yul\":442:517   */\n      swap1\n      jump\t// out\n        /* \"#utility.yul\":523:640   */\n    tag_185:\n        /* \"#utility.yul\":632:633   */\n      0x00\n        /* \"#utility.yul\":629:630   */\n      dup1\n        /* \"#utility.yul\":622:634   */\n      revert\n        /* \"#utility.yul\":646:763   */\n    tag_186:\n        /* \"#utility.yul\":755:756   */\n      0x00\n        /* \"#utility.yul\":752:753   */\n      dup1\n        /* \"#utility.yul\":745:757   */\n      revert\n        /* \"#utility.yul\":769:891   */\n    tag_187:\n        /* \"#utility.yul\":842:866   */\n      tag_241\n        /* \"#utility.yul\":860:865   */\n      dup2\n        /* \"#utility.yul\":842:866   */\n      tag_182\n      jump\t// in\n    tag_241:\n        /* \"#utility.yul\":835:840   */\n      dup2\n        /* \"#utility.yul\":832:867   */\n      eq\n        /* \"#utility.yul\":822:885   */\n      tag_242\n      jumpi\n        /* \"#utility.yul\":881:882   */\n      0x00\n        /* \"#utility.yul\":878:879   */\n      dup1\n        /* \"#utility.yul\":871:883   */\n      revert\n        /* \"#utility.yul\":822:885   */\n    tag_242:\n        /* \"#utility.yul\":769:891   */\n      pop\n      jump\t// out\n        /* \"#utility.yul\":897:1036   */\n    tag_188:\n        /* \"#utility.yul\":943:948   */\n      0x00\n        /* \"#utility.yul\":981:987   */\n      dup2\n        /* \"#utility.yul\":968:988   */\n      calldataload\n        /* \"#utility.yul\":959:988   */\n      swap1\n      pop\n        /* \"#utility.yul\":997:1030   */\n      tag_244\n        /* \"#utility.yul\":1024:1029   */\n      dup2\n        /* \"#utility.yul\":997:1030   */\n      tag_187\n      jump\t// in\n    tag_244:\n        /* \"#utility.yul\":897:1036   */\n      swap3\n      swap2\n      pop\n      pop\n      jump\t// out\n        /* \"#utility.yul\":1042:1371   */\n    tag_22:\n        /* \"#utility.yul\":1101:1107   */\n      0x00\n        /* \"#utility.yul\":1150:1152   */\n      0x20\n        /* \"#utility.yul\":1138:1147   */\n      dup3\n        /* \"#utility.yul\":1129:1136   */\n      dup5\n        /* \"#utility.yul\":1125:1148   */\n      sub\n        /* \"#utility.yul\":1121:1153   */\n      slt\n        /* \"#utility.yul\":1118:1237   */\n      iszero\n      tag_246\n      jumpi\n        /* \"#utility.yul\":1156:1235   */\n      tag_247\n      tag_185\n      jump\t// in\n    tag_247:\n        /* \"#utility.yul\":1118:1237   */\n    tag_246:\n        /* \"#utility.yul\":1276:1277   */\n      0x00\n        /* \"#utility.yul\":1301:1354   */\n      tag_248\n        /* \"#utility.yul\":1346:1353   */\n      dup5\n        /* \"#utility.yul\":1337:1343   */\n      dup3\n        /* \"#utility.yul\":1326:1335   */\n      dup6\n        /* \"#utility.yul\":1322:1344   */\n      add\n        /* \"#utility.yul\":1301:1354   */\n      tag_188\n      jump\t// in\n    tag_248:\n        /* \"#utility.yul\":1291:1354   */\n      swap2\n      pop\n        /* \"#utility.yul\":1247:1364   */\n      pop\n        /* \"#utility.yul\":1042:1371   */\n      swap3\n      swap2\n      pop\n      pop\n      jump\t// out\n        /* \"#utility.yul\":1377:1503   */\n    tag_189:\n        /* \"#utility.yul\":1414:1421   */\n      0x00\n        /* \"#utility.yul\":1454:1496   */\n      0xffffffffffffffffffffffffffffffffffffffff\n        /* \"#utility.yul\":1447:1452   */\n      dup3\n        /* \"#utility.yul\":1443:1497   */\n      and\n        /* \"#utility.yul\":1432:1497   */\n      swap1\n      pop\n        /* \"#utility.yul\":1377:1503   */\n      swap2\n      swap1\n      pop\n      jump\t// out\n        /* \"#utility.yul\":1509:1605   */\n    tag_190:\n        /* \"#utility.yul\":1546:1553   */\n      0x00\n        /* \"#utility.yul\":1575:1599   */\n      tag_251\n        /* \"#utility.yul\":1593:1598   */\n      dup3\n        /* \"#utility.yul\":1575:1599   */\n      tag_189\n      jump\t// in\n    tag_251:\n        /* \"#utility.yul\":1564:1599   */\n      swap1\n      pop\n        /* \"#utility.yul\":1509:1605   */\n      swap2\n      swap1\n      pop\n      jump\t// out\n        /* \"#utility.yul\":1611:1733   */\n    tag_191:\n        /* \"#utility.yul\":1684:1708   */\n      tag_253\n        /* \"#utility.yul\":1702:1707   */\n      dup2\n        /* \"#utility.yul\":1684:1708   */\n      tag_190\n      jump\t// in\n    tag_253:\n        /* \"#utility.yul\":1677:1682   */\n      dup2\n        /* \"#utility.yul\":1674:1709   */\n      eq\n        /* \"#utility.yul\":1664:1727   */\n      tag_254\n      jumpi\n        /* \"#utility.yul\":1723:1724   */\n      0x00\n        /* \"#utility.yul\":1720:1721   */\n      dup1\n        /* \"#utility.yul\":1713:1725   */\n      revert\n        /* \"#utility.yul\":1664:1727   */\n    tag_254:\n        /* \"#utility.yul\":1611:1733   */\n      pop\n      jump\t// out\n        /* \"#utility.yul\":1739:1878   */\n    tag_192:\n        /* \"#utility.yul\":1785:1790   */\n      0x00\n        /* \"#utility.yul\":1823:1829   */\n      dup2\n        /* \"#utility.yul\":1810:1830   */\n      calldataload\n        /* \"#utility.yul\":1801:1830   */\n      swap1\n      pop\n        /* \"#utility.yul\":1839:1872   */\n      tag_256\n        /* \"#utility.yul\":1866:1871   */\n      dup2\n        /* \"#utility.yul\":1839:1872   */\n      tag_191\n      jump\t// in\n    tag_256:\n        /* \"#utility.yul\":1739:1878   */\n      swap3\n      swap2\n      pop\n      pop\n      jump\t// out\n        /* \"#utility.yul\":1884:1974   */\n    tag_193:\n        /* \"#utility.yul\":1918:1925   */\n      0x00\n        /* \"#utility.yul\":1961:1966   */\n      dup2\n        /* \"#utility.yul\":1954:1967   */\n      iszero\n        /* \"#utility.yul\":1947:1968   */\n      iszero\n        /* \"#utility.yul\":1936:1968   */\n      swap1\n      pop\n        /* \"#utility.yul\":1884:1974   */\n      swap2\n      swap1\n      pop\n      jump\t// out\n        /* \"#utility.yul\":1980:2096   */\n    tag_194:\n        /* \"#utility.yul\":2050:2071   */\n      tag_259\n        /* \"#utility.yul\":2065:2070   */\n      dup2\n        /* \"#utility.yul\":2050:2071   */\n      tag_193\n      jump\t// in\n    tag_259:\n        /* \"#utility.yul\":2043:2048   */\n      dup2\n        /* \"#utility.yul\":2040:2072   */\n      eq\n        /* \"#utility.yul\":2030:2090   */\n      tag_260\n      jumpi\n        /* \"#utility.yul\":2086:2087   */\n      0x00\n        /* \"#utility.yul\":2083:2084   */\n      dup1\n        /* \"#utility.yul\":2076:2088   */\n      revert\n        /* \"#utility.yul\":2030:2090   */\n    tag_260:\n        /* \"#utility.yul\":1980:2096   */\n      pop\n      jump\t// out\n        /* \"#utility.yul\":2102:2235   */\n    tag_195:\n        /* \"#utility.yul\":2145:2150   */\n      0x00\n        /* \"#utility.yul\":2183:2189   */\n      dup2\n        /* \"#utility.yul\":2170:2190   */\n      calldataload\n        /* \"#utility.yul\":2161:2190   */\n      swap1\n      pop\n        /* \"#utility.yul\":2199:2229   */\n      tag_262\n        /* \"#utility.yul\":2223:2228   */\n      dup2\n        /* \"#utility.yul\":2199:2229   */\n      tag_194\n      jump\t// in\n    tag_262:\n        /* \"#utility.yul\":2102:2235   */\n      swap3\n      swap2\n      pop\n      pop\n      jump\t// out\n        /* \"#utility.yul\":2241:3438   */\n    tag_26:\n        /* \"#utility.yul\":2351:2357   */\n      0x00\n        /* \"#utility.yul\":2359:2365   */\n      dup1\n        /* \"#utility.yul\":2367:2373   */\n      0x00\n        /* \"#utility.yul\":2375:2381   */\n      dup1\n        /* \"#utility.yul\":2383:2389   */\n      0x00\n        /* \"#utility.yul\":2391:2397   */\n      dup1\n        /* \"#utility.yul\":2399:2405   */\n      0x00\n        /* \"#utility.yul\":2448:2451   */\n      0xe0\n        /* \"#utility.yul\":2436:2445   */\n      dup9\n        /* \"#utility.yul\":2427:2434   */\n      dup11\n        /* \"#utility.yul\":2423:2446   */\n      sub\n        /* \"#utility.yul\":2419:2452   */\n      slt\n        /* \"#utility.yul\":2416:2536   */\n      iszero\n      tag_264\n      jumpi\n        /* \"#utility.yul\":2455:2534   */\n      tag_265\n      tag_185\n      jump\t// in\n    tag_265:\n        /* \"#utility.yul\":2416:2536   */\n    tag_264:\n        /* \"#utility.yul\":2575:2576   */\n      0x00\n        /* \"#utility.yul\":2600:2653   */\n      tag_266\n        /* \"#utility.yul\":2645:2652   */\n      dup11\n        /* \"#utility.yul\":2636:2642   */\n      dup3\n        /* \"#utility.yul\":2625:2634   */\n      dup12\n        /* \"#utility.yul\":2621:2643   */\n      add\n        /* \"#utility.yul\":2600:2653   */\n      tag_192\n      jump\t// in\n    tag_266:\n        /* \"#utility.yul\":2590:2653   */\n      swap8\n      pop\n        /* \"#utility.yul\":2546:2663   */\n      pop\n        /* \"#utility.yul\":2702:2704   */\n      0x20\n        /* \"#utility.yul\":2728:2781   */\n      tag_267\n        /* \"#utility.yul\":2773:2780   */\n      dup11\n        /* \"#utility.yul\":2764:2770   */\n      dup3\n        /* \"#utility.yul\":2753:2762   */\n      dup12\n        /* \"#utility.yul\":2749:2771   */\n      add\n        /* \"#utility.yul\":2728:2781   */\n      tag_192\n      jump\t// in\n    tag_267:\n        /* \"#utility.yul\":2718:2781   */\n      swap7\n      pop\n        /* \"#utility.yul\":2673:2791   */\n      pop\n        /* \"#utility.yul\":2830:2832   */\n      0x40\n        /* \"#utility.yul\":2856:2909   */\n      tag_268\n        /* \"#utility.yul\":2901:2908   */\n      dup11\n        /* \"#utility.yul\":2892:2898   */\n      dup3\n        /* \"#utility.yul\":2881:2890   */\n      dup12\n        /* \"#utility.yul\":2877:2899   */\n      add\n        /* \"#utility.yul\":2856:2909   */\n      tag_188\n      jump\t// in\n    tag_268:\n        /* \"#utility.yul\":2846:2909   */\n      swap6\n      pop\n        /* \"#utility.yul\":2801:2919   */\n      pop\n        /* \"#utility.yul\":2958:2960   */\n      0x60\n        /* \"#utility.yul\":2984:3037   */\n      tag_269\n        /* \"#utility.yul\":3029:3036   */\n      dup11\n        /* \"#utility.yul\":3020:3026   */\n      dup3\n        /* \"#utility.yul\":3009:3018   */\n      dup12\n        /* \"#utility.yul\":3005:3027   */\n      add\n        /* \"#utility.yul\":2984:3037   */\n      tag_188\n      jump\t// in\n    tag_269:\n        /* \"#utility.yul\":2974:3037   */\n      swap5\n      pop\n        /* \"#utility.yul\":2929:3047   */\n      pop\n        /* \"#utility.yul\":3086:3089   */\n      0x80\n        /* \"#utility.yul\":3113:3166   */\n      tag_270\n        /* \"#utility.yul\":3158:3165   */\n      dup11\n        /* \"#utility.yul\":3149:3155   */\n      dup3\n        /* \"#utility.yul\":3138:3147   */\n      dup12\n        /* \"#utility.yul\":3134:3156   */\n      add\n        /* \"#utility.yul\":3113:3166   */\n      tag_188\n      jump\t// in\n    tag_270:\n        /* \"#utility.yul\":3103:3166   */\n      swap4\n      pop\n        /* \"#utility.yul\":3057:3176   */\n      pop\n        /* \"#utility.yul\":3215:3218   */\n      0xa0\n        /* \"#utility.yul\":3242:3295   */\n      tag_271\n        /* \"#utility.yul\":3287:3294   */\n      dup11\n        /* \"#utility.yul\":3278:3284   */\n      dup3\n        /* \"#utility.yul\":3267:3276   */\n      dup12\n        /* \"#utility.yul\":3263:3285   */\n      add\n        /* \"#utility.yul\":3242:3295   */\n      tag_188\n      jump\t// in\n    tag_271:\n        /* \"#utility.yul\":3232:3295   */\n      swap3\n      pop\n        /* \"#utility.yul\":3186:3305   */\n      pop\n        /* \"#utility.yul\":3344:3347   */\n      0xc0\n        /* \"#utility.yul\":3371:3421   */\n      tag_272\n        /* \"#utility.yul\":3413:3420   */\n      dup11\n        /* \"#utility.yul\":3404:3410   */\n      dup3\n        /* \"#utility.yul\":3393:3402   */\n      dup12\n        /* \"#utility.yul\":3389:3411   */\n      add\n        /* \"#utility.yul\":3371:3421   */\n      tag_195\n      jump\t// in\n    tag_272:\n        /* \"#utility.yul\":3361:3421   */\n      swap2\n      pop\n        /* \"#utility.yul\":3315:3431   */\n      pop\n        /* \"#utility.yul\":2241:3438   */\n      swap3\n      swap6\n      swap9\n      swap2\n      swap5\n      swap8\n      pop\n      swap3\n      swap6\n      pop\n      jump\t// out\n        /* \"#utility.yul\":3444:3918   */\n    tag_36:\n        /* \"#utility.yul\":3512:3518   */\n      0x00\n        /* \"#utility.yul\":3520:3526   */\n      dup1\n        /* \"#utility.yul\":3569:3571   */\n      0x40\n        /* \"#utility.yul\":3557:3566   */\n      dup4\n        /* \"#utility.yul\":3548:3555   */\n      dup6\n        /* \"#utility.yul\":3544:3567   */\n      sub\n        /* \"#utility.yul\":3540:3572   */\n      slt\n        /* \"#utility.yul\":3537:3656   */\n      iszero\n      tag_274\n      jumpi\n        /* \"#utility.yul\":3575:3654   */\n      tag_275\n      tag_185\n      jump\t// in\n    tag_275:\n        /* \"#utility.yul\":3537:3656   */\n    tag_274:\n        /* \"#utility.yul\":3695:3696   */\n      0x00\n        /* \"#utility.yul\":3720:3773   */\n      tag_276\n        /* \"#utility.yul\":3765:3772   */\n      dup6\n        /* \"#utility.yul\":3756:3762   */\n      dup3\n        /* \"#utility.yul\":3745:3754   */\n      dup7\n        /* \"#utility.yul\":3741:3763   */\n      add\n        /* \"#utility.yul\":3720:3773   */\n      tag_188\n      jump\t// in\n    tag_276:\n        /* \"#utility.yul\":3710:3773   */\n      swap3\n      pop\n        /* \"#utility.yul\":3666:3783   */\n      pop\n        /* \"#utility.yul\":3822:3824   */\n      0x20\n        /* \"#utility.yul\":3848:3901   */\n      tag_277\n        /* \"#utility.yul\":3893:3900   */\n      dup6\n        /* \"#utility.yul\":3884:3890   */\n      dup3\n        /* \"#utility.yul\":3873:3882   */\n      dup7\n        /* \"#utility.yul\":3869:3891   */\n      add\n        /* \"#utility.yul\":3848:3901   */\n      tag_188\n      jump\t// in\n    tag_277:\n        /* \"#utility.yul\":3838:3901   */\n      swap2\n      pop\n        /* \"#utility.yul\":3793:3911   */\n      pop\n        /* \"#utility.yul\":3444:3918   */\n      swap3\n      pop\n      swap3\n      swap1\n      pop\n      jump\t// out\n        /* \"#utility.yul\":3924:4042   */\n    tag_196:\n        /* \"#utility.yul\":4011:4035   */\n      tag_279\n        /* \"#utility.yul\":4029:4034   */\n      dup2\n        /* \"#utility.yul\":4011:4035   */\n      tag_190\n      jump\t// in\n    tag_279:\n        /* \"#utility.yul\":4006:4009   */\n      dup3\n        /* \"#utility.yul\":3999:4036   */\n      mstore\n        /* \"#utility.yul\":3924:4042   */\n      pop\n      pop\n      jump\t// out\n        /* \"#utility.yul\":4048:4490   */\n    tag_45:\n        /* \"#utility.yul\":4197:4201   */\n      0x00\n        /* \"#utility.yul\":4235:4237   */\n      0x60\n        /* \"#utility.yul\":4224:4233   */\n      dup3\n        /* \"#utility.yul\":4220:4238   */\n      add\n        /* \"#utility.yul\":4212:4238   */\n      swap1\n      pop\n        /* \"#utility.yul\":4248:4319   */\n      tag_281\n        /* \"#utility.yul\":4316:4317   */\n      0x00\n        /* \"#utility.yul\":4305:4314   */\n      dup4\n        /* \"#utility.yul\":4301:4318   */\n      add\n        /* \"#utility.yul\":4292:4298   */\n      dup7\n        /* \"#utility.yul\":4248:4319   */\n      tag_183\n      jump\t// in\n    tag_281:\n        /* \"#utility.yul\":4329:4401   */\n      tag_282\n        /* \"#utility.yul\":4397:4399   */\n      0x20\n        /* \"#utility.yul\":4386:4395   */\n      dup4\n        /* \"#utility.yul\":4382:4400   */\n      add\n        /* \"#utility.yul\":4373:4379   */\n      dup6\n        /* \"#utility.yul\":4329:4401   */\n      tag_183\n      jump\t// in\n    tag_282:\n        /* \"#utility.yul\":4411:4483   */\n      tag_283\n        /* \"#utility.yul\":4479:4481   */\n      0x40\n        /* \"#utility.yul\":4468:4477   */\n      dup4\n        /* \"#utility.yul\":4464:4482   */\n      add\n        /* \"#utility.yul\":4455:4461   */\n      dup5\n        /* \"#utility.yul\":4411:4483   */\n      tag_196\n      jump\t// in\n    tag_283:\n        /* \"#utility.yul\":4048:4490   */\n      swap5\n      swap4\n      pop\n      pop\n      pop\n      pop\n      jump\t// out\n        /* \"#utility.yul\":4496:4613   */\n    tag_197:\n        /* \"#utility.yul\":4605:4606   */\n      0x00\n        /* \"#utility.yul\":4602:4603   */\n      dup1\n        /* \"#utility.yul\":4595:4607   */\n      revert\n        /* \"#utility.yul\":4619:4721   */\n    tag_198:\n        /* \"#utility.yul\":4660:4666   */\n      0x00\n        /* \"#utility.yul\":4711:4713   */\n      0x1f\n        /* \"#utility.yul\":4707:4714   */\n      not\n        /* \"#utility.yul\":4702:4704   */\n      0x1f\n        /* \"#utility.yul\":4695:4700   */\n      dup4\n        /* \"#utility.yul\":4691:4705   */\n      add\n        /* \"#utility.yul\":4687:4715   */\n      and\n        /* \"#utility.yul\":4677:4715   */\n      swap1\n      pop\n        /* \"#utility.yul\":4619:4721   */\n      swap2\n      swap1\n      pop\n      jump\t// out\n        /* \"#utility.yul\":4727:4907   */\n    tag_199:\n        /* \"#utility.yul\":4775:4852   */\n      0x4e487b7100000000000000000000000000000000000000000000000000000000\n        /* \"#utility.yul\":4772:4773   */\n      0x00\n        /* \"#utility.yul\":4765:4853   */\n      mstore\n        /* \"#utility.yul\":4872:4876   */\n      0x41\n        /* \"#utility.yul\":4869:4870   */\n      0x04\n        /* \"#utility.yul\":4862:4877   */\n      mstore\n        /* \"#utility.yul\":4896:4900   */\n      0x24\n        /* \"#utility.yul\":4893:4894   */\n      0x00\n        /* \"#utility.yul\":4886:4901   */\n      revert\n        /* \"#utility.yul\":4913:5194   */\n    tag_200:\n        /* \"#utility.yul\":4996:5023   */\n      tag_288\n        /* \"#utility.yul\":5018:5022   */\n      dup3\n        /* \"#utility.yul\":4996:5023   */\n      tag_198\n      jump\t// in\n    tag_288:\n        /* \"#utility.yul\":4988:4994   */\n      dup2\n        /* \"#utility.yul\":4984:5024   */\n      add\n        /* \"#utility.yul\":5126:5132   */\n      dup2\n        /* \"#utility.yul\":5114:5124   */\n      dup2\n        /* \"#utility.yul\":5111:5133   */\n      lt\n        /* \"#utility.yul\":5090:5108   */\n      0xffffffffffffffff\n        /* \"#utility.yul\":5078:5088   */\n      dup3\n        /* \"#utility.yul\":5075:5109   */\n      gt\n        /* \"#utility.yul\":5072:5134   */\n      or\n        /* \"#utility.yul\":5069:5157   */\n      iszero\n      tag_289\n      jumpi\n        /* \"#utility.yul\":5137:5155   */\n      tag_290\n      tag_199\n      jump\t// in\n    tag_290:\n        /* \"#utility.yul\":5069:5157   */\n    tag_289:\n        /* \"#utility.yul\":5177:5187   */\n      dup1\n        /* \"#utility.yul\":5173:5175   */\n      0x40\n        /* \"#utility.yul\":5166:5188   */\n      mstore\n        /* \"#utility.yul\":4956:5194   */\n      pop\n        /* \"#utility.yul\":4913:5194   */\n      pop\n      pop\n      jump\t// out\n        /* \"#utility.yul\":5200:5329   */\n    tag_201:\n        /* \"#utility.yul\":5234:5240   */\n      0x00\n        /* \"#utility.yul\":5261:5281   */\n      tag_292\n      tag_184\n      jump\t// in\n    tag_292:\n        /* \"#utility.yul\":5251:5281   */\n      swap1\n      pop\n        /* \"#utility.yul\":5290:5323   */\n      tag_293\n        /* \"#utility.yul\":5318:5322   */\n      dup3\n        /* \"#utility.yul\":5310:5316   */\n      dup3\n        /* \"#utility.yul\":5290:5323   */\n      tag_200\n      jump\t// in\n    tag_293:\n        /* \"#utility.yul\":5200:5329   */\n      swap2\n      swap1\n      pop\n      jump\t// out\n        /* \"#utility.yul\":5335:5646   */\n    tag_202:\n        /* \"#utility.yul\":5412:5416   */\n      0x00\n        /* \"#utility.yul\":5502:5520   */\n      0xffffffffffffffff\n        /* \"#utility.yul\":5494:5500   */\n      dup3\n        /* \"#utility.yul\":5491:5521   */\n      gt\n        /* \"#utility.yul\":5488:5544   */\n      iszero\n      tag_295\n      jumpi\n        /* \"#utility.yul\":5524:5542   */\n      tag_296\n      tag_199\n      jump\t// in\n    tag_296:\n        /* \"#utility.yul\":5488:5544   */\n    tag_295:\n        /* \"#utility.yul\":5574:5578   */\n      0x20\n        /* \"#utility.yul\":5566:5572   */\n      dup3\n        /* \"#utility.yul\":5562:5579   */\n      mul\n        /* \"#utility.yul\":5554:5579   */\n      swap1\n      pop\n        /* \"#utility.yul\":5634:5638   */\n      0x20\n        /* \"#utility.yul\":5628:5632   */\n      dup2\n        /* \"#utility.yul\":5624:5639   */\n      add\n        /* \"#utility.yul\":5616:5639   */\n      swap1\n      pop\n        /* \"#utility.yul\":5335:5646   */\n      swap2\n      swap1\n      pop\n      jump\t// out\n        /* \"#utility.yul\":5652:5769   */\n    tag_203:\n        /* \"#utility.yul\":5761:5762   */\n      0x00\n        /* \"#utility.yul\":5758:5759   */\n      dup1\n        /* \"#utility.yul\":5751:5763   */\n      revert\n        /* \"#utility.yul\":5792:6502   */\n    tag_204:\n        /* \"#utility.yul\":5888:5893   */\n      0x00\n        /* \"#utility.yul\":5913:5994   */\n      tag_299\n        /* \"#utility.yul\":5929:5993   */\n      tag_300\n        /* \"#utility.yul\":5986:5992   */\n      dup5\n        /* \"#utility.yul\":5929:5993   */\n      tag_202\n      jump\t// in\n    tag_300:\n        /* \"#utility.yul\":5913:5994   */\n      tag_201\n      jump\t// in\n    tag_299:\n        /* \"#utility.yul\":5904:5994   */\n      swap1\n      pop\n        /* \"#utility.yul\":6014:6019   */\n      dup1\n        /* \"#utility.yul\":6043:6049   */\n      dup4\n        /* \"#utility.yul\":6036:6041   */\n      dup3\n        /* \"#utility.yul\":6029:6050   */\n      mstore\n        /* \"#utility.yul\":6077:6081   */\n      0x20\n        /* \"#utility.yul\":6070:6075   */\n      dup3\n        /* \"#utility.yul\":6066:6082   */\n      add\n        /* \"#utility.yul\":6059:6082   */\n      swap1\n      pop\n        /* \"#utility.yul\":6130:6134   */\n      0x20\n        /* \"#utility.yul\":6122:6128   */\n      dup5\n        /* \"#utility.yul\":6118:6135   */\n      mul\n        /* \"#utility.yul\":6110:6116   */\n      dup4\n        /* \"#utility.yul\":6106:6136   */\n      add\n        /* \"#utility.yul\":6159:6162   */\n      dup6\n        /* \"#utility.yul\":6151:6157   */\n      dup2\n        /* \"#utility.yul\":6148:6163   */\n      gt\n        /* \"#utility.yul\":6145:6267   */\n      iszero\n      tag_301\n      jumpi\n        /* \"#utility.yul\":6178:6257   */\n      tag_302\n      tag_203\n      jump\t// in\n    tag_302:\n        /* \"#utility.yul\":6145:6267   */\n    tag_301:\n        /* \"#utility.yul\":6293:6299   */\n      dup4\n        /* \"#utility.yul\":6276:6496   */\n    tag_303:\n        /* \"#utility.yul\":6310:6316   */\n      dup2\n        /* \"#utility.yul\":6305:6308   */\n      dup2\n        /* \"#utility.yul\":6302:6317   */\n      lt\n        /* \"#utility.yul\":6276:6496   */\n      iszero\n      tag_305\n      jumpi\n        /* \"#utility.yul\":6385:6388   */\n      dup1\n        /* \"#utility.yul\":6414:6451   */\n      tag_306\n        /* \"#utility.yul\":6447:6450   */\n      dup9\n        /* \"#utility.yul\":6435:6445   */\n      dup3\n        /* \"#utility.yul\":6414:6451   */\n      tag_192\n      jump\t// in\n    tag_306:\n        /* \"#utility.yul\":6409:6412   */\n      dup5\n        /* \"#utility.yul\":6402:6452   */\n      mstore\n        /* \"#utility.yul\":6481:6485   */\n      0x20\n        /* \"#utility.yul\":6476:6479   */\n      dup5\n        /* \"#utility.yul\":6472:6486   */\n      add\n        /* \"#utility.yul\":6465:6486   */\n      swap4\n      pop\n        /* \"#utility.yul\":6352:6496   */\n      pop\n        /* \"#utility.yul\":6336:6340   */\n      0x20\n        /* \"#utility.yul\":6331:6334   */\n      dup2\n        /* \"#utility.yul\":6327:6341   */\n      add\n        /* \"#utility.yul\":6320:6341   */\n      swap1\n      pop\n        /* \"#utility.yul\":6276:6496   */\n      jump(tag_303)\n    tag_305:\n        /* \"#utility.yul\":6280:6301   */\n      pop\n        /* \"#utility.yul\":5894:6502   */\n      pop\n      pop\n        /* \"#utility.yul\":5792:6502   */\n      swap4\n      swap3\n      pop\n      pop\n      pop\n      jump\t// out\n        /* \"#utility.yul\":6525:6895   */\n    tag_205:\n        /* \"#utility.yul\":6596:6601   */\n      0x00\n        /* \"#utility.yul\":6645:6648   */\n      dup3\n        /* \"#utility.yul\":6638:6642   */\n      0x1f\n        /* \"#utility.yul\":6630:6636   */\n      dup4\n        /* \"#utility.yul\":6626:6643   */\n      add\n        /* \"#utility.yul\":6622:6649   */\n      slt\n        /* \"#utility.yul\":6612:6734   */\n      tag_308\n      jumpi\n        /* \"#utility.yul\":6653:6732   */\n      tag_309\n      tag_197\n      jump\t// in\n    tag_309:\n        /* \"#utility.yul\":6612:6734   */\n    tag_308:\n        /* \"#utility.yul\":6770:6776   */\n      dup2\n        /* \"#utility.yul\":6757:6777   */\n      calldataload\n        /* \"#utility.yul\":6795:6889   */\n      tag_310\n        /* \"#utility.yul\":6885:6888   */\n      dup5\n        /* \"#utility.yul\":6877:6883   */\n      dup3\n        /* \"#utility.yul\":6870:6874   */\n      0x20\n        /* \"#utility.yul\":6862:6868   */\n      dup7\n        /* \"#utility.yul\":6858:6875   */\n      add\n        /* \"#utility.yul\":6795:6889   */\n      tag_204\n      jump\t// in\n    tag_310:\n        /* \"#utility.yul\":6786:6889   */\n      swap2\n      pop\n        /* \"#utility.yul\":6602:6895   */\n      pop\n        /* \"#utility.yul\":6525:6895   */\n      swap3\n      swap2\n      pop\n      pop\n      jump\t// out\n        /* \"#utility.yul\":6901:7585   */\n    tag_48:\n        /* \"#utility.yul\":6994:7000   */\n      0x00\n        /* \"#utility.yul\":7002:7008   */\n      dup1\n        /* \"#utility.yul\":7051:7053   */\n      0x40\n        /* \"#utility.yul\":7039:7048   */\n      dup4\n        /* \"#utility.yul\":7030:7037   */\n      dup6\n        /* \"#utility.yul\":7026:7049   */\n      sub\n        /* \"#utility.yul\":7022:7054   */\n      slt\n        /* \"#utility.yul\":7019:7138   */\n      iszero\n      tag_312\n      jumpi\n        /* \"#utility.yul\":7057:7136   */\n      tag_313\n      tag_185\n      jump\t// in\n    tag_313:\n        /* \"#utility.yul\":7019:7138   */\n    tag_312:\n        /* \"#utility.yul\":7177:7178   */\n      0x00\n        /* \"#utility.yul\":7202:7255   */\n      tag_314\n        /* \"#utility.yul\":7247:7254   */\n      dup6\n        /* \"#utility.yul\":7238:7244   */\n      dup3\n        /* \"#utility.yul\":7227:7236   */\n      dup7\n        /* \"#utility.yul\":7223:7245   */\n      add\n        /* \"#utility.yul\":7202:7255   */\n      tag_188\n      jump\t// in\n    tag_314:\n        /* \"#utility.yul\":7192:7255   */\n      swap3\n      pop\n        /* \"#utility.yul\":7148:7265   */\n      pop\n        /* \"#utility.yul\":7332:7334   */\n      0x20\n        /* \"#utility.yul\":7321:7330   */\n      dup4\n        /* \"#utility.yul\":7317:7335   */\n      add\n        /* \"#utility.yul\":7304:7336   */\n      calldataload\n        /* \"#utility.yul\":7363:7381   */\n      0xffffffffffffffff\n        /* \"#utility.yul\":7355:7361   */\n      dup2\n        /* \"#utility.yul\":7352:7382   */\n      gt\n        /* \"#utility.yul\":7349:7466   */\n      iszero\n      tag_315\n      jumpi\n        /* \"#utility.yul\":7385:7464   */\n      tag_316\n      tag_186\n      jump\t// in\n    tag_316:\n        /* \"#utility.yul\":7349:7466   */\n    tag_315:\n        /* \"#utility.yul\":7490:7568   */\n      tag_317\n        /* \"#utility.yul\":7560:7567   */\n      dup6\n        /* \"#utility.yul\":7551:7557   */\n      dup3\n        /* \"#utility.yul\":7540:7549   */\n      dup7\n        /* \"#utility.yul\":7536:7558   */\n      add\n        /* \"#utility.yul\":7490:7568   */\n      tag_205\n      jump\t// in\n    tag_317:\n        /* \"#utility.yul\":7480:7568   */\n      swap2\n      pop\n        /* \"#utility.yul\":7275:7578   */\n      pop\n        /* \"#utility.yul\":6901:7585   */\n      swap3\n      pop\n      swap3\n      swap1\n      pop\n      jump\t// out\n        /* \"#utility.yul\":7591:8065   */\n    tag_52:\n        /* \"#utility.yul\":7659:7665   */\n      0x00\n        /* \"#utility.yul\":7667:7673   */\n      dup1\n        /* \"#utility.yul\":7716:7718   */\n      0x40\n        /* \"#utility.yul\":7704:7713   */\n      dup4\n        /* \"#utility.yul\":7695:7702   */\n      dup6\n        /* \"#utility.yul\":7691:7714   */\n      sub\n        /* \"#utility.yul\":7687:7719   */\n      slt\n        /* \"#utility.yul\":7684:7803   */\n      iszero\n      tag_319\n      jumpi\n        /* \"#utility.yul\":7722:7801   */\n      tag_320\n      tag_185\n      jump\t// in\n    tag_320:\n        /* \"#utility.yul\":7684:7803   */\n    tag_319:\n        /* \"#utility.yul\":7842:7843   */\n      0x00\n        /* \"#utility.yul\":7867:7920   */\n      tag_321\n        /* \"#utility.yul\":7912:7919   */\n      dup6\n        /* \"#utility.yul\":7903:7909   */\n      dup3\n        /* \"#utility.yul\":7892:7901   */\n      dup7\n        /* \"#utility.yul\":7888:7910   */\n      add\n        /* \"#utility.yul\":7867:7920   */\n      tag_188\n      jump\t// in\n    tag_321:\n        /* \"#utility.yul\":7857:7920   */\n      swap3\n      pop\n        /* \"#utility.yul\":7813:7930   */\n      pop\n        /* \"#utility.yul\":7969:7971   */\n      0x20\n        /* \"#utility.yul\":7995:8048   */\n      tag_322\n        /* \"#utility.yul\":8040:8047   */\n      dup6\n        /* \"#utility.yul\":8031:8037   */\n      dup3\n        /* \"#utility.yul\":8020:8029   */\n      dup7\n        /* \"#utility.yul\":8016:8038   */\n      add\n        /* \"#utility.yul\":7995:8048   */\n      tag_192\n      jump\t// in\n    tag_322:\n        /* \"#utility.yul\":7985:8048   */\n      swap2\n      pop\n        /* \"#utility.yul\":7940:8058   */\n      pop\n        /* \"#utility.yul\":7591:8065   */\n      swap3\n      pop\n      swap3\n      swap1\n      pop\n      jump\t// out\n        /* \"#utility.yul\":8071:8293   */\n    tag_58:\n        /* \"#utility.yul\":8164:8168   */\n      0x00\n        /* \"#utility.yul\":8202:8204   */\n      0x20\n        /* \"#utility.yul\":8191:8200   */\n      dup3\n        /* \"#utility.yul\":8187:8205   */\n      add\n        /* \"#utility.yul\":8179:8205   */\n      swap1\n      pop\n        /* \"#utility.yul\":8215:8286   */\n      tag_324\n        /* \"#utility.yul\":8283:8284   */\n      0x00\n        /* \"#utility.yul\":8272:8281   */\n      dup4\n        /* \"#utility.yul\":8268:8285   */\n      add\n        /* \"#utility.yul\":8259:8265   */\n      dup5\n        /* \"#utility.yul\":8215:8286   */\n      tag_196\n      jump\t// in\n    tag_324:\n        /* \"#utility.yul\":8071:8293   */\n      swap3\n      swap2\n      pop\n      pop\n      jump\t// out\n        /* \"#utility.yul\":8299:8408   */\n    tag_206:\n        /* \"#utility.yul\":8380:8401   */\n      tag_326\n        /* \"#utility.yul\":8395:8400   */\n      dup2\n        /* \"#utility.yul\":8380:8401   */\n      tag_193\n      jump\t// in\n    tag_326:\n        /* \"#utility.yul\":8375:8378   */\n      dup3\n        /* \"#utility.yul\":8368:8402   */\n      mstore\n        /* \"#utility.yul\":8299:8408   */\n      pop\n      pop\n      jump\t// out\n        /* \"#utility.yul\":8414:9510   */\n    tag_63:\n        /* \"#utility.yul\":8725:8729   */\n      0x00\n        /* \"#utility.yul\":8763:8766   */\n      0x0120\n        /* \"#utility.yul\":8752:8761   */\n      dup3\n        /* \"#utility.yul\":8748:8767   */\n      add\n        /* \"#utility.yul\":8740:8767   */\n      swap1\n      pop\n        /* \"#utility.yul\":8777:8848   */\n      tag_328\n        /* \"#utility.yul\":8845:8846   */\n      0x00\n        /* \"#utility.yul\":8834:8843   */\n      dup4\n        /* \"#utility.yul\":8830:8847   */\n      add\n        /* \"#utility.yul\":8821:8827   */\n      dup13\n        /* \"#utility.yul\":8777:8848   */\n      tag_196\n      jump\t// in\n    tag_328:\n        /* \"#utility.yul\":8858:8930   */\n      tag_329\n        /* \"#utility.yul\":8926:8928   */\n      0x20\n        /* \"#utility.yul\":8915:8924   */\n      dup4\n        /* \"#utility.yul\":8911:8929   */\n      add\n        /* \"#utility.yul\":8902:8908   */\n      dup12\n        /* \"#utility.yul\":8858:8930   */\n      tag_196\n      jump\t// in\n    tag_329:\n        /* \"#utility.yul\":8940:9012   */\n      tag_330\n        /* \"#utility.yul\":9008:9010   */\n      0x40\n        /* \"#utility.yul\":8997:9006   */\n      dup4\n        /* \"#utility.yul\":8993:9011   */\n      add\n        /* \"#utility.yul\":8984:8990   */\n      dup11\n        /* \"#utility.yul\":8940:9012   */\n      tag_196\n      jump\t// in\n    tag_330:\n        /* \"#utility.yul\":9022:9094   */\n      tag_331\n        /* \"#utility.yul\":9090:9092   */\n      0x60\n        /* \"#utility.yul\":9079:9088   */\n      dup4\n        /* \"#utility.yul\":9075:9093   */\n      add\n        /* \"#utility.yul\":9066:9072   */\n      dup10\n        /* \"#utility.yul\":9022:9094   */\n      tag_183\n      jump\t// in\n    tag_331:\n        /* \"#utility.yul\":9104:9177   */\n      tag_332\n        /* \"#utility.yul\":9172:9175   */\n      0x80\n        /* \"#utility.yul\":9161:9170   */\n      dup4\n        /* \"#utility.yul\":9157:9176   */\n      add\n        /* \"#utility.yul\":9148:9154   */\n      dup9\n        /* \"#utility.yul\":9104:9177   */\n      tag_183\n      jump\t// in\n    tag_332:\n        /* \"#utility.yul\":9187:9260   */\n      tag_333\n        /* \"#utility.yul\":9255:9258   */\n      0xa0\n        /* \"#utility.yul\":9244:9253   */\n      dup4\n        /* \"#utility.yul\":9240:9259   */\n      add\n        /* \"#utility.yul\":9231:9237   */\n      dup8\n        /* \"#utility.yul\":9187:9260   */\n      tag_183\n      jump\t// in\n    tag_333:\n        /* \"#utility.yul\":9270:9343   */\n      tag_334\n        /* \"#utility.yul\":9338:9341   */\n      0xc0\n        /* \"#utility.yul\":9327:9336   */\n      dup4\n        /* \"#utility.yul\":9323:9342   */\n      add\n        /* \"#utility.yul\":9314:9320   */\n      dup7\n        /* \"#utility.yul\":9270:9343   */\n      tag_183\n      jump\t// in\n    tag_334:\n        /* \"#utility.yul\":9353:9426   */\n      tag_335\n        /* \"#utility.yul\":9421:9424   */\n      0xe0\n        /* \"#utility.yul\":9410:9419   */\n      dup4\n        /* \"#utility.yul\":9406:9425   */\n      add\n        /* \"#utility.yul\":9397:9403   */\n      dup6\n        /* \"#utility.yul\":9353:9426   */\n      tag_183\n      jump\t// in\n    tag_335:\n        /* \"#utility.yul\":9436:9503   */\n      tag_336\n        /* \"#utility.yul\":9498:9501   */\n      0x0100\n        /* \"#utility.yul\":9487:9496   */\n      dup4\n        /* \"#utility.yul\":9483:9502   */\n      add\n        /* \"#utility.yul\":9474:9480   */\n      dup5\n        /* \"#utility.yul\":9436:9503   */\n      tag_206\n      jump\t// in\n    tag_336:\n        /* \"#utility.yul\":8414:9510   */\n      swap11\n      swap10\n      pop\n      pop\n      pop\n      pop\n      pop\n      pop\n      pop\n      pop\n      pop\n      pop\n      jump\t// out\n        /* \"#utility.yul\":9516:9685   */\n    tag_207:\n        /* \"#utility.yul\":9600:9611   */\n      0x00\n        /* \"#utility.yul\":9634:9640   */\n      dup3\n        /* \"#utility.yul\":9629:9632   */\n      dup3\n        /* \"#utility.yul\":9622:9641   */\n      mstore\n        /* \"#utility.yul\":9674:9678   */\n      0x20\n        /* \"#utility.yul\":9669:9672   */\n      dup3\n        /* \"#utility.yul\":9665:9679   */\n      add\n        /* \"#utility.yul\":9650:9679   */\n      swap1\n      pop\n        /* \"#utility.yul\":9516:9685   */\n      swap3\n      swap2\n      pop\n      pop\n      jump\t// out\n        /* \"#utility.yul\":9691:9855   */\n    tag_208:\n        /* \"#utility.yul\":9831:9847   */\n      0x4c414e3a206e6f74206f776e6572000000000000000000000000000000000000\n        /* \"#utility.yul\":9827:9828   */\n      0x00\n        /* \"#utility.yul\":9819:9825   */\n      dup3\n        /* \"#utility.yul\":9815:9829   */\n      add\n        /* \"#utility.yul\":9808:9848   */\n      mstore\n        /* \"#utility.yul\":9691:9855   */\n      pop\n      jump\t// out\n        /* \"#utility.yul\":9861:10227   */\n    tag_209:\n        /* \"#utility.yul\":10003:10006   */\n      0x00\n        /* \"#utility.yul\":10024:10091   */\n      tag_340\n        /* \"#utility.yul\":10088:10090   */\n      0x0e\n        /* \"#utility.yul\":10083:10086   */\n      dup4\n        /* \"#utility.yul\":10024:10091   */\n      tag_207\n      jump\t// in\n    tag_340:\n        /* \"#utility.yul\":10017:10091   */\n      swap2\n      pop\n        /* \"#utility.yul\":10100:10193   */\n      tag_341\n        /* \"#utility.yul\":10189:10192   */\n      dup3\n        /* \"#utility.yul\":10100:10193   */\n      tag_208\n      jump\t// in\n    tag_341:\n        /* \"#utility.yul\":10218:10220   */\n      0x20\n        /* \"#utility.yul\":10213:10216   */\n      dup3\n        /* \"#utility.yul\":10209:10221   */\n      add\n        /* \"#utility.yul\":10202:10221   */\n      swap1\n      pop\n        /* \"#utility.yul\":9861:10227   */\n      swap2\n      swap1\n      pop\n      jump\t// out\n        /* \"#utility.yul\":10233:10652   */\n    tag_67:\n        /* \"#utility.yul\":10399:10403   */\n      0x00\n        /* \"#utility.yul\":10437:10439   */\n      0x20\n        /* \"#utility.yul\":10426:10435   */\n      dup3\n        /* \"#utility.yul\":10422:10440   */\n      add\n        /* \"#utility.yul\":10414:10440   */\n      swap1\n      pop\n        /* \"#utility.yul\":10486:10495   */\n      dup2\n        /* \"#utility.yul\":10480:10484   */\n      dup2\n        /* \"#utility.yul\":10476:10496   */\n      sub\n        /* \"#utility.yul\":10472:10473   */\n      0x00\n        /* \"#utility.yul\":10461:10470   */\n      dup4\n        /* \"#utility.yul\":10457:10474   */\n      add\n        /* \"#utility.yul\":10450:10497   */\n      mstore\n        /* \"#utility.yul\":10514:10645   */\n      tag_343\n        /* \"#utility.yul\":10640:10644   */\n      dup2\n        /* \"#utility.yul\":10514:10645   */\n      tag_209\n      jump\t// in\n    tag_343:\n        /* \"#utility.yul\":10506:10645   */\n      swap1\n      pop\n        /* \"#utility.yul\":10233:10652   */\n      swap2\n      swap1\n      pop\n      jump\t// out\n        /* \"#utility.yul\":10658:10827   */\n    tag_210:\n        /* \"#utility.yul\":10798:10819   */\n      0x4c414e3a206c6f616e206e6f7420656e64656400000000000000000000000000\n        /* \"#utility.yul\":10794:10795   */\n      0x00\n        /* \"#utility.yul\":10786:10792   */\n      dup3\n        /* \"#utility.yul\":10782:10796   */\n      add\n        /* \"#utility.yul\":10775:10820   */\n      mstore\n        /* \"#utility.yul\":10658:10827   */\n      pop\n      jump\t// out\n        /* \"#utility.yul\":10833:11199   */\n    tag_211:\n        /* \"#utility.yul\":10975:10978   */\n      0x00\n        /* \"#utility.yul\":10996:11063   */\n      tag_346\n        /* \"#utility.yul\":11060:11062   */\n      0x13\n        /* \"#utility.yul\":11055:11058   */\n      dup4\n        /* \"#utility.yul\":10996:11063   */\n      tag_207\n      jump\t// in\n    tag_346:\n        /* \"#utility.yul\":10989:11063   */\n      swap2\n      pop\n        /* \"#utility.yul\":11072:11165   */\n      tag_347\n        /* \"#utility.yul\":11161:11164   */\n      dup3\n        /* \"#utility.yul\":11072:11165   */\n      tag_210\n      jump\t// in\n    tag_347:\n        /* \"#utility.yul\":11190:11192   */\n      0x20\n        /* \"#utility.yul\":11185:11188   */\n      dup3\n        /* \"#utility.yul\":11181:11193   */\n      add\n        /* \"#utility.yul\":11174:11193   */\n      swap1\n      pop\n        /* \"#utility.yul\":10833:11199   */\n      swap2\n      swap1\n      pop\n      jump\t// out\n        /* \"#utility.yul\":11205:11624   */\n    tag_73:\n        /* \"#utility.yul\":11371:11375   */\n      0x00\n        /* \"#utility.yul\":11409:11411   */\n      0x20\n        /* \"#utility.yul\":11398:11407   */\n      dup3\n        /* \"#utility.yul\":11394:11412   */\n      add\n        /* \"#utility.yul\":11386:11412   */\n      swap1\n      pop\n        /* \"#utility.yul\":11458:11467   */\n      dup2\n        /* \"#utility.yul\":11452:11456   */\n      dup2\n        /* \"#utility.yul\":11448:11468   */\n      sub\n        /* \"#utility.yul\":11444:11445   */\n      0x00\n        /* \"#utility.yul\":11433:11442   */\n      dup4\n        /* \"#utility.yul\":11429:11446   */\n      add\n        /* \"#utility.yul\":11422:11469   */\n      mstore\n        /* \"#utility.yul\":11486:11617   */\n      tag_349\n        /* \"#utility.yul\":11612:11616   */\n      dup2\n        /* \"#utility.yul\":11486:11617   */\n      tag_211\n      jump\t// in\n    tag_349:\n        /* \"#utility.yul\":11478:11617   */\n      swap1\n      pop\n        /* \"#utility.yul\":11205:11624   */\n      swap2\n      swap1\n      pop\n      jump\t// out\n        /* \"#utility.yul\":11630:11802   */\n    tag_212:\n        /* \"#utility.yul\":11770:11794   */\n      0x4c414e3a206e6f74206c61746573742062696464657200000000000000000000\n        /* \"#utility.yul\":11766:11767   */\n      0x00\n        /* \"#utility.yul\":11758:11764   */\n      dup3\n        /* \"#utility.yul\":11754:11768   */\n      add\n        /* \"#utility.yul\":11747:11795   */\n      mstore\n        /* \"#utility.yul\":11630:11802   */\n      pop\n      jump\t// out\n        /* \"#utility.yul\":11808:12174   */\n    tag_213:\n        /* \"#utility.yul\":11950:11953   */\n      0x00\n        /* \"#utility.yul\":11971:12038   */\n      tag_352\n        /* \"#utility.yul\":12035:12037   */\n      0x16\n        /* \"#utility.yul\":12030:12033   */\n      dup4\n        /* \"#utility.yul\":11971:12038   */\n      tag_207\n      jump\t// in\n    tag_352:\n        /* \"#utility.yul\":11964:12038   */\n      swap2\n      pop\n        /* \"#utility.yul\":12047:12140   */\n      tag_353\n        /* \"#utility.yul\":12136:12139   */\n      dup3\n        /* \"#utility.yul\":12047:12140   */\n      tag_212\n      jump\t// in\n    tag_353:\n        /* \"#utility.yul\":12165:12167   */\n      0x20\n        /* \"#utility.yul\":12160:12163   */\n      dup3\n        /* \"#utility.yul\":12156:12168   */\n      add\n        /* \"#utility.yul\":12149:12168   */\n      swap1\n      pop\n        /* \"#utility.yul\":11808:12174   */\n      swap2\n      swap1\n      pop\n      jump\t// out\n        /* \"#utility.yul\":12180:12599   */\n    tag_76:\n        /* \"#utility.yul\":12346:12350   */\n      0x00\n        /* \"#utility.yul\":12384:12386   */\n      0x20\n        /* \"#utility.yul\":12373:12382   */\n      dup3\n        /* \"#utility.yul\":12369:12387   */\n      add\n        /* \"#utility.yul\":12361:12387   */\n      swap1\n      pop\n        /* \"#utility.yul\":12433:12442   */\n      dup2\n        /* \"#utility.yul\":12427:12431   */\n      dup2\n        /* \"#utility.yul\":12423:12443   */\n      sub\n        /* \"#utility.yul\":12419:12420   */\n      0x00\n        /* \"#utility.yul\":12408:12417   */\n      dup4\n        /* \"#utility.yul\":12404:12421   */\n      add\n        /* \"#utility.yul\":12397:12444   */\n      mstore\n        /* \"#utility.yul\":12461:12592   */\n      tag_355\n        /* \"#utility.yul\":12587:12591   */\n      dup2\n        /* \"#utility.yul\":12461:12592   */\n      tag_213\n      jump\t// in\n    tag_355:\n        /* \"#utility.yul\":12453:12592   */\n      swap1\n      pop\n        /* \"#utility.yul\":12180:12599   */\n      swap2\n      swap1\n      pop\n      jump\t// out\n        /* \"#utility.yul\":12605:13047   */\n    tag_78:\n        /* \"#utility.yul\":12754:12758   */\n      0x00\n        /* \"#utility.yul\":12792:12794   */\n      0x60\n        /* \"#utility.yul\":12781:12790   */\n      dup3\n        /* \"#utility.yul\":12777:12795   */\n      add\n        /* \"#utility.yul\":12769:12795   */\n      swap1\n      pop\n        /* \"#utility.yul\":12805:12876   */\n      tag_357\n        /* \"#utility.yul\":12873:12874   */\n      0x00\n        /* \"#utility.yul\":12862:12871   */\n      dup4\n        /* \"#utility.yul\":12858:12875   */\n      add\n        /* \"#utility.yul\":12849:12855   */\n      dup7\n        /* \"#utility.yul\":12805:12876   */\n      tag_196\n      jump\t// in\n    tag_357:\n        /* \"#utility.yul\":12886:12958   */\n      tag_358\n        /* \"#utility.yul\":12954:12956   */\n      0x20\n        /* \"#utility.yul\":12943:12952   */\n      dup4\n        /* \"#utility.yul\":12939:12957   */\n      add\n        /* \"#utility.yul\":12930:12936   */\n      dup6\n        /* \"#utility.yul\":12886:12958   */\n      tag_196\n      jump\t// in\n    tag_358:\n        /* \"#utility.yul\":12968:13040   */\n      tag_359\n        /* \"#utility.yul\":13036:13038   */\n      0x40\n        /* \"#utility.yul\":13025:13034   */\n      dup4\n        /* \"#utility.yul\":13021:13039   */\n      add\n        /* \"#utility.yul\":13012:13018   */\n      dup5\n        /* \"#utility.yul\":12968:13040   */\n      tag_183\n      jump\t// in\n    tag_359:\n        /* \"#utility.yul\":12605:13047   */\n      swap5\n      swap4\n      pop\n      pop\n      pop\n      pop\n      jump\t// out\n        /* \"#utility.yul\":13053:13226   */\n    tag_214:\n        /* \"#utility.yul\":13193:13218   */\n      0x4c414e3a2073746172742074696d6520696e2070617374000000000000000000\n        /* \"#utility.yul\":13189:13190   */\n      0x00\n        /* \"#utility.yul\":13181:13187   */\n      dup3\n        /* \"#utility.yul\":13177:13191   */\n      add\n        /* \"#utility.yul\":13170:13219   */\n      mstore\n        /* \"#utility.yul\":13053:13226   */\n      pop\n      jump\t// out\n        /* \"#utility.yul\":13232:13598   */\n    tag_215:\n        /* \"#utility.yul\":13374:13377   */\n      0x00\n        /* \"#utility.yul\":13395:13462   */\n      tag_362\n        /* \"#utility.yul\":13459:13461   */\n      0x17\n        /* \"#utility.yul\":13454:13457   */\n      dup4\n        /* \"#utility.yul\":13395:13462   */\n      tag_207\n      jump\t// in\n    tag_362:\n        /* \"#utility.yul\":13388:13462   */\n      swap2\n      pop\n        /* \"#utility.yul\":13471:13564   */\n      tag_363\n        /* \"#utility.yul\":13560:13563   */\n      dup3\n        /* \"#utility.yul\":13471:13564   */\n      tag_214\n      jump\t// in\n    tag_363:\n        /* \"#utility.yul\":13589:13591   */\n      0x20\n        /* \"#utility.yul\":13584:13587   */\n      dup3\n        /* \"#utility.yul\":13580:13592   */\n      add\n        /* \"#utility.yul\":13573:13592   */\n      swap1\n      pop\n        /* \"#utility.yul\":13232:13598   */\n      swap2\n      swap1\n      pop\n      jump\t// out\n        /* \"#utility.yul\":13604:14023   */\n    tag_85:\n        /* \"#utility.yul\":13770:13774   */\n      0x00\n        /* \"#utility.yul\":13808:13810   */\n      0x20\n        /* \"#utility.yul\":13797:13806   */\n      dup3\n        /* \"#utility.yul\":13793:13811   */\n      add\n        /* \"#utility.yul\":13785:13811   */\n      swap1\n      pop\n        /* \"#utility.yul\":13857:13866   */\n      dup2\n        /* \"#utility.yul\":13851:13855   */\n      dup2\n        /* \"#utility.yul\":13847:13867   */\n      sub\n        /* \"#utility.yul\":13843:13844   */\n      0x00\n        /* \"#utility.yul\":13832:13841   */\n      dup4\n        /* \"#utility.yul\":13828:13845   */\n      add\n        /* \"#utility.yul\":13821:13868   */\n      mstore\n        /* \"#utility.yul\":13885:14016   */\n      tag_365\n        /* \"#utility.yul\":14011:14015   */\n      dup2\n        /* \"#utility.yul\":13885:14016   */\n      tag_215\n      jump\t// in\n    tag_365:\n        /* \"#utility.yul\":13877:14016   */\n      swap1\n      pop\n        /* \"#utility.yul\":13604:14023   */\n      swap2\n      swap1\n      pop\n      jump\t// out\n        /* \"#utility.yul\":14029:14199   */\n    tag_216:\n        /* \"#utility.yul\":14169:14191   */\n      0x4c414e3a20737461727420616674657220656e64000000000000000000000000\n        /* \"#utility.yul\":14165:14166   */\n      0x00\n        /* \"#utility.yul\":14157:14163   */\n      dup3\n        /* \"#utility.yul\":14153:14167   */\n      add\n        /* \"#utility.yul\":14146:14192   */\n      mstore\n        /* \"#utility.yul\":14029:14199   */\n      pop\n      jump\t// out\n        /* \"#utility.yul\":14205:14571   */\n    tag_217:\n        /* \"#utility.yul\":14347:14350   */\n      0x00\n        /* \"#utility.yul\":14368:14435   */\n      tag_368\n        /* \"#utility.yul\":14432:14434   */\n      0x14\n        /* \"#utility.yul\":14427:14430   */\n      dup4\n        /* \"#utility.yul\":14368:14435   */\n      tag_207\n      jump\t// in\n    tag_368:\n        /* \"#utility.yul\":14361:14435   */\n      swap2\n      pop\n        /* \"#utility.yul\":14444:14537   */\n      tag_369\n        /* \"#utility.yul\":14533:14536   */\n      dup3\n        /* \"#utility.yul\":14444:14537   */\n      tag_216\n      jump\t// in\n    tag_369:\n        /* \"#utility.yul\":14562:14564   */\n      0x20\n        /* \"#utility.yul\":14557:14560   */\n      dup3\n        /* \"#utility.yul\":14553:14565   */\n      add\n        /* \"#utility.yul\":14546:14565   */\n      swap1\n      pop\n        /* \"#utility.yul\":14205:14571   */\n      swap2\n      swap1\n      pop\n      jump\t// out\n        /* \"#utility.yul\":14577:14996   */\n    tag_88:\n        /* \"#utility.yul\":14743:14747   */\n      0x00\n        /* \"#utility.yul\":14781:14783   */\n      0x20\n        /* \"#utility.yul\":14770:14779   */\n      dup3\n        /* \"#utility.yul\":14766:14784   */\n      add\n        /* \"#utility.yul\":14758:14784   */\n      swap1\n      pop\n        /* \"#utility.yul\":14830:14839   */\n      dup2\n        /* \"#utility.yul\":14824:14828   */\n      dup2\n        /* \"#utility.yul\":14820:14840   */\n      sub\n        /* \"#utility.yul\":14816:14817   */\n      0x00\n        /* \"#utility.yul\":14805:14814   */\n      dup4\n        /* \"#utility.yul\":14801:14818   */\n      add\n        /* \"#utility.yul\":14794:14841   */\n      mstore\n        /* \"#utility.yul\":14858:14989   */\n      tag_371\n        /* \"#utility.yul\":14984:14988   */\n      dup2\n        /* \"#utility.yul\":14858:14989   */\n      tag_217\n      jump\t// in\n    tag_371:\n        /* \"#utility.yul\":14850:14989   */\n      swap1\n      pop\n        /* \"#utility.yul\":14577:14996   */\n      swap2\n      swap1\n      pop\n      jump\t// out\n        /* \"#utility.yul\":15002:15334   */\n    tag_90:\n        /* \"#utility.yul\":15123:15127   */\n      0x00\n        /* \"#utility.yul\":15161:15163   */\n      0x40\n        /* \"#utility.yul\":15150:15159   */\n      dup3\n        /* \"#utility.yul\":15146:15164   */\n      add\n        /* \"#utility.yul\":15138:15164   */\n      swap1\n      pop\n        /* \"#utility.yul\":15174:15245   */\n      tag_373\n        /* \"#utility.yul\":15242:15243   */\n      0x00\n        /* \"#utility.yul\":15231:15240   */\n      dup4\n        /* \"#utility.yul\":15227:15244   */\n      add\n        /* \"#utility.yul\":15218:15224   */\n      dup6\n        /* \"#utility.yul\":15174:15245   */\n      tag_196\n      jump\t// in\n    tag_373:\n        /* \"#utility.yul\":15255:15327   */\n      tag_374\n        /* \"#utility.yul\":15323:15325   */\n      0x20\n        /* \"#utility.yul\":15312:15321   */\n      dup4\n        /* \"#utility.yul\":15308:15326   */\n      add\n        /* \"#utility.yul\":15299:15305   */\n      dup5\n        /* \"#utility.yul\":15255:15327   */\n      tag_183\n      jump\t// in\n    tag_374:\n        /* \"#utility.yul\":15002:15334   */\n      swap4\n      swap3\n      pop\n      pop\n      pop\n      jump\t// out\n        /* \"#utility.yul\":15340:15520   */\n    tag_218:\n        /* \"#utility.yul\":15388:15465   */\n      0x4e487b7100000000000000000000000000000000000000000000000000000000\n        /* \"#utility.yul\":15385:15386   */\n      0x00\n        /* \"#utility.yul\":15378:15466   */\n      mstore\n        /* \"#utility.yul\":15485:15489   */\n      0x11\n        /* \"#utility.yul\":15482:15483   */\n      0x04\n        /* \"#utility.yul\":15475:15490   */\n      mstore\n        /* \"#utility.yul\":15509:15513   */\n      0x24\n        /* \"#utility.yul\":15506:15507   */\n      0x00\n        /* \"#utility.yul\":15499:15514   */\n      revert\n        /* \"#utility.yul\":15526:15759   */\n    tag_92:\n        /* \"#utility.yul\":15565:15568   */\n      0x00\n        /* \"#utility.yul\":15588:15612   */\n      tag_377\n        /* \"#utility.yul\":15606:15611   */\n      dup3\n        /* \"#utility.yul\":15588:15612   */\n      tag_182\n      jump\t// in\n    tag_377:\n        /* \"#utility.yul\":15579:15612   */\n      swap2\n      pop\n        /* \"#utility.yul\":15634:15700   */\n      0xffffffffffffffffffffffffffffffffffffffffffffffffffffffffffffffff\n        /* \"#utility.yul\":15627:15632   */\n      dup3\n        /* \"#utility.yul\":15624:15701   */\n      sub\n        /* \"#utility.yul\":15621:15724   */\n      tag_378\n      jumpi\n        /* \"#utility.yul\":15704:15722   */\n      tag_379\n      tag_218\n      jump\t// in\n    tag_379:\n        /* \"#utility.yul\":15621:15724   */\n    tag_378:\n        /* \"#utility.yul\":15751:15752   */\n      0x01\n        /* \"#utility.yul\":15744:15749   */\n      dup3\n        /* \"#utility.yul\":15740:15753   */\n      add\n        /* \"#utility.yul\":15733:15753   */\n      swap1\n      pop\n        /* \"#utility.yul\":15526:15759   */\n      swap2\n      swap1\n      pop\n      jump\t// out\n        /* \"#utility.yul\":15765:15935   */\n    tag_219:\n        /* \"#utility.yul\":15905:15927   */\n      0x4c414e3a20616c72656164792073746172746564000000000000000000000000\n        /* \"#utility.yul\":15901:15902   */\n      0x00\n        /* \"#utility.yul\":15893:15899   */\n      dup3\n        /* \"#utility.yul\":15889:15903   */\n      add\n        /* \"#utility.yul\":15882:15928   */\n      mstore\n        /* \"#utility.yul\":15765:15935   */\n      pop\n      jump\t// out\n        /* \"#utility.yul\":15941:16307   */\n    tag_220:\n        /* \"#utility.yul\":16083:16086   */\n      0x00\n        /* \"#utility.yul\":16104:16171   */\n      tag_382\n        /* \"#utility.yul\":16168:16170   */\n      0x14\n        /* \"#utility.yul\":16163:16166   */\n      dup4\n        /* \"#utility.yul\":16104:16171   */\n      tag_207\n      jump\t// in\n    tag_382:\n        /* \"#utility.yul\":16097:16171   */\n      swap2\n      pop\n        /* \"#utility.yul\":16180:16273   */\n      tag_383\n        /* \"#utility.yul\":16269:16272   */\n      dup3\n        /* \"#utility.yul\":16180:16273   */\n      tag_219\n      jump\t// in\n    tag_383:\n        /* \"#utility.yul\":16298:16300   */\n      0x20\n        /* \"#utility.yul\":16293:16296   */\n      dup3\n        /* \"#utility.yul\":16289:16301   */\n      add\n        /* \"#utility.yul\":16282:16301   */\n      swap1\n      pop\n        /* \"#utility.yul\":15941:16307   */\n      swap2\n      swap1\n      pop\n      jump\t// out\n        /* \"#utility.yul\":16313:16732   */\n    tag_99:\n        /* \"#utility.yul\":16479:16483   */\n      0x00\n        /* \"#utility.yul\":16517:16519   */\n      0x20\n        /* \"#utility.yul\":16506:16515   */\n      dup3\n        /* \"#utility.yul\":16502:16520   */\n      add\n        /* \"#utility.yul\":16494:16520   */\n      swap1\n      pop\n        /* \"#utility.yul\":16566:16575   */\n      dup2\n        /* \"#utility.yul\":16560:16564   */\n      dup2\n        /* \"#utility.yul\":16556:16576   */\n      sub\n        /* \"#utility.yul\":16552:16553   */\n      0x00\n        /* \"#utility.yul\":16541:16550   */\n      dup4\n        /* \"#utility.yul\":16537:16554   */\n      add\n        /* \"#utility.yul\":16530:16577   */\n      mstore\n        /* \"#utility.yul\":16594:16725   */\n      tag_385\n        /* \"#utility.yul\":16720:16724   */\n      dup2\n        /* \"#utility.yul\":16594:16725   */\n      tag_220\n      jump\t// in\n    tag_385:\n        /* \"#utility.yul\":16586:16725   */\n      swap1\n      pop\n        /* \"#utility.yul\":16313:16732   */\n      swap2\n      swap1\n      pop\n      jump\t// out\n        /* \"#utility.yul\":16738:16904   */\n    tag_221:\n        /* \"#utility.yul\":16878:16896   */\n      0x4c414e3a206e6f74207374617274656400000000000000000000000000000000\n        /* \"#utility.yul\":16874:16875   */\n      0x00\n        /* \"#utility.yul\":16866:16872   */\n      dup3\n        /* \"#utility.yul\":16862:16876   */\n      add\n        /* \"#utility.yul\":16855:16897   */\n      mstore\n        /* \"#utility.yul\":16738:16904   */\n      pop\n      jump\t// out\n        /* \"#utility.yul\":16910:17276   */\n    tag_222:\n        /* \"#utility.yul\":17052:17055   */\n      0x00\n        /* \"#utility.yul\":17073:17140   */\n      tag_388\n        /* \"#utility.yul\":17137:17139   */\n      0x10\n        /* \"#utility.yul\":17132:17135   */\n      dup4\n        /* \"#utility.yul\":17073:17140   */\n      tag_207\n      jump\t// in\n    tag_388:\n        /* \"#utility.yul\":17066:17140   */\n      swap2\n      pop\n        /* \"#utility.yul\":17149:17242   */\n      tag_389\n        /* \"#utility.yul\":17238:17241   */\n      dup3\n        /* \"#utility.yul\":17149:17242   */\n      tag_221\n      jump\t// in\n    tag_389:\n        /* \"#utility.yul\":17267:17269   */\n      0x20\n        /* \"#utility.yul\":17262:17265   */\n      dup3\n        /* \"#utility.yul\":17258:17270   */\n      add\n        /* \"#utility.yul\":17251:17270   */\n      swap1\n      pop\n        /* \"#utility.yul\":16910:17276   */\n      swap2\n      swap1\n      pop\n      jump\t// out\n        /* \"#utility.yul\":17282:17701   */\n    tag_118:\n        /* \"#utility.yul\":17448:17452   */\n      0x00\n        /* \"#utility.yul\":17486:17488   */\n      0x20\n        /* \"#utility.yul\":17475:17484   */\n      dup3\n        /* \"#utility.yul\":17471:17489   */\n      add\n        /* \"#utility.yul\":17463:17489   */\n      swap1\n      pop\n        /* \"#utility.yul\":17535:17544   */\n      dup2\n        /* \"#utility.yul\":17529:17533   */\n      dup2\n        /* \"#utility.yul\":17525:17545   */\n      sub\n        /* \"#utility.yul\":17521:17522   */\n      0x00\n        /* \"#utility.yul\":17510:17519   */\n      dup4\n        /* \"#utility.yul\":17506:17523   */\n      add\n        /* \"#utility.yul\":17499:17546   */\n      mstore\n        /* \"#utility.yul\":17563:17694   */\n      tag_391\n        /* \"#utility.yul\":17689:17693   */\n      dup2\n        /* \"#utility.yul\":17563:17694   */\n      tag_222\n      jump\t// in\n    tag_391:\n        /* \"#utility.yul\":17555:17694   */\n      swap1\n      pop\n        /* \"#utility.yul\":17282:17701   */\n      swap2\n      swap1\n      pop\n      jump\t// out\n        /* \"#utility.yul\":17707:17875   */\n    tag_223:\n        /* \"#utility.yul\":17847:17867   */\n      0x4c414e3a20616c726561647920656e6465640000000000000000000000000000\n        /* \"#utility.yul\":17843:17844   */\n      0x00\n        /* \"#utility.yul\":17835:17841   */\n      dup3\n        /* \"#utility.yul\":17831:17845   */\n      add\n        /* \"#utility.yul\":17824:17868   */\n      mstore\n        /* \"#utility.yul\":17707:17875   */\n      pop\n      jump\t// out\n        /* \"#utility.yul\":17881:18247   */\n    tag_224:\n        /* \"#utility.yul\":18023:18026   */\n      0x00\n        /* \"#utility.yul\":18044:18111   */\n      tag_394\n        /* \"#utility.yul\":18108:18110   */\n      0x12\n        /* \"#utility.yul\":18103:18106   */\n      dup4\n        /* \"#utility.yul\":18044:18111   */\n      tag_207\n      jump\t// in\n    tag_394:\n        /* \"#utility.yul\":18037:18111   */\n      swap2\n      pop\n        /* \"#utility.yul\":18120:18213   */\n      tag_395\n        /* \"#utility.yul\":18209:18212   */\n      dup3\n        /* \"#utility.yul\":18120:18213   */\n      tag_223\n      jump\t// in\n    tag_395:\n        /* \"#utility.yul\":18238:18240   */\n      0x20\n        /* \"#utility.yul\":18233:18236   */\n      dup3\n        /* \"#utility.yul\":18229:18241   */\n      add\n        /* \"#utility.yul\":18222:18241   */\n      swap1\n      pop\n        /* \"#utility.yul\":17881:18247   */\n      swap2\n      swap1\n      pop\n      jump\t// out\n        /* \"#utility.yul\":18253:18672   */\n    tag_122:\n        /* \"#utility.yul\":18419:18423   */\n      0x00\n        /* \"#utility.yul\":18457:18459   */\n      0x20\n        /* \"#utility.yul\":18446:18455   */\n      dup3\n        /* \"#utility.yul\":18442:18460   */\n      add\n        /* \"#utility.yul\":18434:18460   */\n      swap1\n      pop\n        /* \"#utility.yul\":18506:18515   */\n      dup2\n        /* \"#utility.yul\":18500:18504   */\n      dup2\n        /* \"#utility.yul\":18496:18516   */\n      sub\n        /* \"#utility.yul\":18492:18493   */\n      0x00\n        /* \"#utility.yul\":18481:18490   */\n      dup4\n        /* \"#utility.yul\":18477:18494   */\n      add\n        /* \"#utility.yul\":18470:18517   */\n      mstore\n        /* \"#utility.yul\":18534:18665   */\n      tag_397\n        /* \"#utility.yul\":18660:18664   */\n      dup2\n        /* \"#utility.yul\":18534:18665   */\n      tag_224\n      jump\t// in\n    tag_397:\n        /* \"#utility.yul\":18526:18665   */\n      swap1\n      pop\n        /* \"#utility.yul\":18253:18672   */\n      swap2\n      swap1\n      pop\n      jump\t// out\n        /* \"#utility.yul\":18678:18869   */\n    tag_124:\n        /* \"#utility.yul\":18718:18721   */\n      0x00\n        /* \"#utility.yul\":18737:18757   */\n      tag_399\n        /* \"#utility.yul\":18755:18756   */\n      dup3\n        /* \"#utility.yul\":18737:18757   */\n      tag_182\n      jump\t// in\n    tag_399:\n        /* \"#utility.yul\":18732:18757   */\n      swap2\n      pop\n        /* \"#utility.yul\":18771:18791   */\n      tag_400\n        /* \"#utility.yul\":18789:18790   */\n      dup4\n        /* \"#utility.yul\":18771:18791   */\n      tag_182\n      jump\t// in\n    tag_400:\n        /* \"#utility.yul\":18766:18791   */\n      swap3\n      pop\n        /* \"#utility.yul\":18814:18815   */\n      dup3\n        /* \"#utility.yul\":18811:18812   */\n      dup3\n        /* \"#utility.yul\":18807:18816   */\n      add\n        /* \"#utility.yul\":18800:18816   */\n      swap1\n      pop\n        /* \"#utility.yul\":18835:18838   */\n      dup1\n        /* \"#utility.yul\":18832:18833   */\n      dup3\n        /* \"#utility.yul\":18829:18839   */\n      gt\n        /* \"#utility.yul\":18826:18862   */\n      iszero\n      tag_401\n      jumpi\n        /* \"#utility.yul\":18842:18860   */\n      tag_402\n      tag_218\n      jump\t// in\n    tag_402:\n        /* \"#utility.yul\":18826:18862   */\n    tag_401:\n        /* \"#utility.yul\":18678:18869   */\n      swap3\n      swap2\n      pop\n      pop\n      jump\t// out\n        /* \"#utility.yul\":18875:19044   */\n    tag_225:\n        /* \"#utility.yul\":19015:19036   */\n      0x4c414e3a20626964206e6f742068696768657200000000000000000000000000\n        /* \"#utility.yul\":19011:19012   */\n      0x00\n        /* \"#utility.yul\":19003:19009   */\n      dup3\n        /* \"#utility.yul\":18999:19013   */\n      add\n        /* \"#utility.yul\":18992:19037   */\n      mstore\n        /* \"#utility.yul\":18875:19044   */\n      pop\n      jump\t// out\n        /* \"#utility.yul\":19050:19416   */\n    tag_226:\n        /* \"#utility.yul\":19192:19195   */\n      0x00\n        /* \"#utility.yul\":19213:19280   */\n      tag_405\n        /* \"#utility.yul\":19277:19279   */\n      0x13\n        /* \"#utility.yul\":19272:19275   */\n      dup4\n        /* \"#utility.yul\":19213:19280   */\n      tag_207\n      jump\t// in\n    tag_405:\n        /* \"#utility.yul\":19206:19280   */\n      swap2\n      pop\n        /* \"#utility.yul\":19289:19382   */\n      tag_406\n        /* \"#utility.yul\":19378:19381   */\n      dup3\n        /* \"#utility.yul\":19289:19382   */\n      tag_225\n      jump\t// in\n    tag_406:\n        /* \"#utility.yul\":19407:19409   */\n      0x20\n        /* \"#utility.yul\":19402:19405   */\n      dup3\n        /* \"#utility.yul\":19398:19410   */\n      add\n        /* \"#utility.yul\":19391:19410   */\n      swap1\n      pop\n        /* \"#utility.yul\":19050:19416   */\n      swap2\n      swap1\n      pop\n      jump\t// out\n        /* \"#utility.yul\":19422:19841   */\n    tag_129:\n        /* \"#utility.yul\":19588:19592   */\n      0x00\n        /* \"#utility.yul\":19626:19628   */\n      0x20\n        /* \"#utility.yul\":19615:19624   */\n      dup3\n        /* \"#utility.yul\":19611:19629   */\n      add\n        /* \"#utility.yul\":19603:19629   */\n      swap1\n      pop\n        /* \"#utility.yul\":19675:19684   */\n      dup2\n        /* \"#utility.yul\":19669:19673   */\n      dup2\n        /* \"#utility.yul\":19665:19685   */\n      sub\n        /* \"#utility.yul\":19661:19662   */\n      0x00\n        /* \"#utility.yul\":19650:19659   */\n      dup4\n        /* \"#utility.yul\":19646:19663   */\n      add\n        /* \"#utility.yul\":19639:19686   */\n      mstore\n        /* \"#utility.yul\":19703:19834   */\n      tag_408\n        /* \"#utility.yul\":19829:19833   */\n      dup2\n        /* \"#utility.yul\":19703:19834   */\n      tag_226\n      jump\t// in\n    tag_408:\n        /* \"#utility.yul\":19695:19834   */\n      swap1\n      pop\n        /* \"#utility.yul\":19422:19841   */\n      swap2\n      swap1\n      pop\n      jump\t// out\n        /* \"#utility.yul\":19847:19984   */\n    tag_227:\n        /* \"#utility.yul\":19901:19906   */\n      0x00\n        /* \"#utility.yul\":19932:19938   */\n      dup2\n        /* \"#utility.yul\":19926:19939   */\n      mload\n        /* \"#utility.yul\":19917:19939   */\n      swap1\n      pop\n        /* \"#utility.yul\":19948:19978   */\n      tag_410\n        /* \"#utility.yul\":19972:19977   */\n      dup2\n        /* \"#utility.yul\":19948:19978   */\n      tag_194\n      jump\t// in\n    tag_410:\n        /* \"#utility.yul\":19847:19984   */\n      swap3\n      swap2\n      pop\n      pop\n      jump\t// out\n        /* \"#utility.yul\":19990:20335   */\n    tag_134:\n        /* \"#utility.yul\":20057:20063   */\n      0x00\n        /* \"#utility.yul\":20106:20108   */\n      0x20\n        /* \"#utility.yul\":20094:20103   */\n      dup3\n        /* \"#utility.yul\":20085:20092   */\n      dup5\n        /* \"#utility.yul\":20081:20104   */\n      sub\n        /* \"#utility.yul\":20077:20109   */\n      slt\n        /* \"#utility.yul\":20074:20193   */\n      iszero\n      tag_412\n      jumpi\n        /* \"#utility.yul\":20112:20191   */\n      tag_413\n      tag_185\n      jump\t// in\n    tag_413:\n        /* \"#utility.yul\":20074:20193   */\n    tag_412:\n        /* \"#utility.yul\":20232:20233   */\n      0x00\n        /* \"#utility.yul\":20257:20318   */\n      tag_414\n        /* \"#utility.yul\":20310:20317   */\n      dup5\n        /* \"#utility.yul\":20301:20307   */\n      dup3\n        /* \"#utility.yul\":20290:20299   */\n      dup6\n        /* \"#utility.yul\":20286:20308   */\n      add\n        /* \"#utility.yul\":20257:20318   */\n      tag_227\n      jump\t// in\n    tag_414:\n        /* \"#utility.yul\":20247:20318   */\n      swap2\n      pop\n        /* \"#utility.yul\":20203:20328   */\n      pop\n        /* \"#utility.yul\":19990:20335   */\n      swap3\n      swap2\n      pop\n      pop\n      jump\t// out\n        /* \"#utility.yul\":20341:20535   */\n    tag_136:\n        /* \"#utility.yul\":20381:20385   */\n      0x00\n        /* \"#utility.yul\":20401:20421   */\n      tag_416\n        /* \"#utility.yul\":20419:20420   */\n      dup3\n        /* \"#utility.yul\":20401:20421   */\n      tag_182\n      jump\t// in\n    tag_416:\n        /* \"#utility.yul\":20396:20421   */\n      swap2\n      pop\n        /* \"#utility.yul\":20435:20455   */\n      tag_417\n        /* \"#utility.yul\":20453:20454   */\n      dup4\n        /* \"#utility.yul\":20435:20455   */\n      tag_182\n      jump\t// in\n    tag_417:\n        /* \"#utility.yul\":20430:20455   */\n      swap3\n      pop\n        /* \"#utility.yul\":20479:20480   */\n      dup3\n        /* \"#utility.yul\":20476:20477   */\n      dup3\n        /* \"#utility.yul\":20472:20481   */\n      sub\n        /* \"#utility.yul\":20464:20481   */\n      swap1\n      pop\n        /* \"#utility.yul\":20503:20504   */\n      dup2\n        /* \"#utility.yul\":20497:20501   */\n      dup2\n        /* \"#utility.yul\":20494:20505   */\n      gt\n        /* \"#utility.yul\":20491:20528   */\n      iszero\n      tag_418\n      jumpi\n        /* \"#utility.yul\":20508:20526   */\n      tag_419\n      tag_218\n      jump\t// in\n    tag_419:\n        /* \"#utility.yul\":20491:20528   */\n    tag_418:\n        /* \"#utility.yul\":20341:20535   */\n      swap3\n      swap2\n      pop\n      pop\n      jump\t// out\n        /* \"#utility.yul\":20541:20717   */\n    tag_228:\n        /* \"#utility.yul\":20681:20709   */\n      0x4c414e3a204e6f7420746865206c617465737420626964646572000000000000\n        /* \"#utility.yul\":20677:20678   */\n      0x00\n        /* \"#utility.yul\":20669:20675   */\n      dup3\n        /* \"#utility.yul\":20665:20679   */\n      add\n        /* \"#utility.yul\":20658:20710   */\n      mstore\n        /* \"#utility.yul\":20541:20717   */\n      pop\n      jump\t// out\n        /* \"#utility.yul\":20723:21089   */\n    tag_229:\n        /* \"#utility.yul\":20865:20868   */\n      0x00\n        /* \"#utility.yul\":20886:20953   */\n      tag_422\n        /* \"#utility.yul\":20950:20952   */\n      0x1a\n        /* \"#utility.yul\":20945:20948   */\n      dup4\n        /* \"#utility.yul\":20886:20953   */\n      tag_207\n      jump\t// in\n    tag_422:\n        /* \"#utility.yul\":20879:20953   */\n      swap2\n      pop\n        /* \"#utility.yul\":20962:21055   */\n      tag_423\n        /* \"#utility.yul\":21051:21054   */\n      dup3\n        /* \"#utility.yul\":20962:21055   */\n      tag_228\n      jump\t// in\n    tag_423:\n        /* \"#utility.yul\":21080:21082   */\n      0x20\n        /* \"#utility.yul\":21075:21078   */\n      dup3\n        /* \"#utility.yul\":21071:21083   */\n      add\n        /* \"#utility.yul\":21064:21083   */\n      swap1\n      pop\n        /* \"#utility.yul\":20723:21089   */\n      swap2\n      swap1\n      pop\n      jump\t// out\n        /* \"#utility.yul\":21095:21514   */\n    tag_164:\n        /* \"#utility.yul\":21261:21265   */\n      0x00\n        /* \"#utility.yul\":21299:21301   */\n      0x20\n        /* \"#utility.yul\":21288:21297   */\n      dup3\n        /* \"#utility.yul\":21284:21302   */\n      add\n        /* \"#utility.yul\":21276:21302   */\n      swap1\n      pop\n        /* \"#utility.yul\":21348:21357   */\n      dup2\n        /* \"#utility.yul\":21342:21346   */\n      dup2\n        /* \"#utility.yul\":21338:21358   */\n      sub\n        /* \"#utility.yul\":21334:21335   */\n      0x00\n        /* \"#utility.yul\":21323:21332   */\n      dup4\n        /* \"#utility.yul\":21319:21336   */\n      add\n        /* \"#utility.yul\":21312:21359   */\n      mstore\n        /* \"#utility.yul\":21376:21507   */\n      tag_425\n        /* \"#utility.yul\":21502:21506   */\n      dup2\n        /* \"#utility.yul\":21376:21507   */\n      tag_229\n      jump\t// in\n    tag_425:\n        /* \"#utility.yul\":21368:21507   */\n      swap1\n      pop\n        /* \"#utility.yul\":21095:21514   */\n      swap2\n      swap1\n      pop\n      jump\t// out\n        /* \"#utility.yul\":21520:21868   */\n    tag_176:\n        /* \"#utility.yul\":21560:21567   */\n      0x00\n        /* \"#utility.yul\":21583:21603   */\n      tag_427\n        /* \"#utility.yul\":21601:21602   */\n      dup3\n        /* \"#utility.yul\":21583:21603   */\n      tag_182\n      jump\t// in\n    tag_427:\n        /* \"#utility.yul\":21578:21603   */\n      swap2\n      pop\n        /* \"#utility.yul\":21617:21637   */\n      tag_428\n        /* \"#utility.yul\":21635:21636   */\n      dup4\n        /* \"#utility.yul\":21617:21637   */\n      tag_182\n      jump\t// in\n    tag_428:\n        /* \"#utility.yul\":21612:21637   */\n      swap3\n      pop\n        /* \"#utility.yul\":21805:21806   */\n      dup2\n        /* \"#utility.yul\":21737:21803   */\n      0xffffffffffffffffffffffffffffffffffffffffffffffffffffffffffffffff\n        /* \"#utility.yul\":21733:21807   */\n      div\n        /* \"#utility.yul\":21730:21731   */\n      dup4\n        /* \"#utility.yul\":21727:21808   */\n      gt\n        /* \"#utility.yul\":21722:21723   */\n      dup3\n        /* \"#utility.yul\":21715:21724   */\n      iszero\n        /* \"#utility.yul\":21708:21725   */\n      iszero\n        /* \"#utility.yul\":21704:21809   */\n      and\n        /* \"#utility.yul\":21701:21832   */\n      iszero\n      tag_429\n      jumpi\n        /* \"#utility.yul\":21812:21830   */\n      tag_430\n      tag_218\n      jump\t// in\n    tag_430:\n        /* \"#utility.yul\":21701:21832   */\n    tag_429:\n        /* \"#utility.yul\":21860:21861   */\n      dup3\n        /* \"#utility.yul\":21857:21858   */\n      dup3\n        /* \"#utility.yul\":21853:21862   */\n      mul\n        /* \"#utility.yul\":21842:21862   */\n      swap1\n      pop\n        /* \"#utility.yul\":21520:21868   */\n      swap3\n      swap2\n      pop\n      pop\n      jump\t// out\n        /* \"#utility.yul\":21874:22054   */\n    tag_230:\n        /* \"#utility.yul\":21922:21999   */\n      0x4e487b7100000000000000000000000000000000000000000000000000000000\n        /* \"#utility.yul\":21919:21920   */\n      0x00\n        /* \"#utility.yul\":21912:22000   */\n      mstore\n        /* \"#utility.yul\":22019:22023   */\n      0x12\n        /* \"#utility.yul\":22016:22017   */\n      0x04\n        /* \"#utility.yul\":22009:22024   */\n      mstore\n        /* \"#utility.yul\":22043:22047   */\n      0x24\n        /* \"#utility.yul\":22040:22041   */\n      0x00\n        /* \"#utility.yul\":22033:22048   */\n      revert\n        /* \"#utility.yul\":22060:22245   */\n    tag_178:\n        /* \"#utility.yul\":22100:22101   */\n      0x00\n        /* \"#utility.yul\":22117:22137   */\n      tag_433\n        /* \"#utility.yul\":22135:22136   */\n      dup3\n        /* \"#utility.yul\":22117:22137   */\n      tag_182\n      jump\t// in\n    tag_433:\n        /* \"#utility.yul\":22112:22137   */\n      swap2\n      pop\n        /* \"#utility.yul\":22151:22171   */\n      tag_434\n        /* \"#utility.yul\":22169:22170   */\n      dup4\n        /* \"#utility.yul\":22151:22171   */\n      tag_182\n      jump\t// in\n    tag_434:\n        /* \"#utility.yul\":22146:22171   */\n      swap3\n      pop\n        /* \"#utility.yul\":22190:22191   */\n      dup3\n        /* \"#utility.yul\":22180:22215   */\n      tag_435\n      jumpi\n        /* \"#utility.yul\":22195:22213   */\n      tag_436\n      tag_230\n      jump\t// in\n    tag_436:\n        /* \"#utility.yul\":22180:22215   */\n    tag_435:\n        /* \"#utility.yul\":22237:22238   */\n      dup3\n        /* \"#utility.yul\":22234:22235   */\n      dup3\n        /* \"#utility.yul\":22230:22239   */\n      div\n        /* \"#utility.yul\":22225:22239   */\n      swap1\n      pop\n        /* \"#utility.yul\":22060:22245   */\n      swap3\n      swap2\n      pop\n      pop\n      jump\t// out\n\n    auxdata: 0xa26469706673582212208faaed17cbdff9132bc7e3731f37115a28dc9ceb8c4f6ba4456aac4785768b3364736f6c63430008100033\n}\n",
				"bytecode": {
					"linkReferences": {},
					"object": "608060405234801561001057600080fd5b50612b1f806100206000396000f3fe608060405234801561001057600080fd5b50600436106100b45760003560e01c80637870860b116100715780637870860b146101635780637b3c4baa1461017f5780638f17aa2d146101b15780638f769f3a146101cd5780639bea77da146101e9578063e1ec3c6814610219576100b4565b806306661abd146100b957806318de4f9d146100d75780632613c5d6146100f357806340e58ee51461010f578063415f12401461012b578063598647f814610147575b600080fd5b6100c1610251565b6040516100ce9190611f73565b60405180910390f35b6100f160048036038101906100ec9190611fce565b610257565b005b61010d60048036038101906101089190612091565b610650565b005b61012960048036038101906101249190611fce565b610922565b005b61014560048036038101906101409190611fce565b610bc5565b005b610161600480360381019061015c9190612133565b610f14565b005b61017d60048036038101906101789190611fce565b61139f565b005b61019960048036038101906101949190612133565b61176b565b6040516101a893929190612182565b60405180910390f35b6101cb60048036038101906101c69190612312565b6117c2565b005b6101e760048036038101906101e2919061236e565b6117c6565b005b61020360048036038101906101fe9190612133565b611ad0565b60405161021091906123ae565b60405180910390f35b610233600480360381019061022e9190611fce565b611b1e565b604051610248999897969594939291906123d8565b60405180910390f35b60005481565b803373ffffffffffffffffffffffffffffffffffffffff166001600083815260200190815260200160002060000160009054906101000a900473ffffffffffffffffffffffffffffffffffffffff1673ffffffffffffffffffffffffffffffffffffffff16146102fc576040517f08c379a00000000000000000000000000000000000000000000000000000000081526004016102f3906124c2565b60405180910390fd5b600060016000848152602001908152602001600020604051806101200160405290816000820160009054906101000a900473ffffffffffffffffffffffffffffffffffffffff1673ffffffffffffffffffffffffffffffffffffffff1673ffffffffffffffffffffffffffffffffffffffff1681526020016001820160009054906101000a900473ffffffffffffffffffffffffffffffffffffffff1673ffffffffffffffffffffffffffffffffffffffff1673ffffffffffffffffffffffffffffffffffffffff1681526020016002820160009054906101000a900473ffffffffffffffffffffffffffffffffffffffff1673ffffffffffffffffffffffffffffffffffffffff1673ffffffffffffffffffffffffffffffffffffffff16815260200160038201548152602001600482015481526020016005820154815260200160068201548152602001600782015481526020016008820160009054906101000a900460ff161515151581525050905061047783611bd9565b6104b6576040517f08c379a00000000000000000000000000000000000000000000000000000000081526004016104ad9061252e565b60405180910390fd5b60006002600085815260200190815260200160002060008360e00151815260200190815260200160002060405180606001604052908160008201548152602001600182015481526020016002820160009054906101000a900473ffffffffffffffffffffffffffffffffffffffff1673ffffffffffffffffffffffffffffffffffffffff1673ffffffffffffffffffffffffffffffffffffffff168152505090503373ffffffffffffffffffffffffffffffffffffffff16816040015173ffffffffffffffffffffffffffffffffffffffff16146105c9576040517f08c379a00000000000000000000000000000000000000000000000000000000081526004016105c09061259a565b60405180910390fd5b6000826040015190508073ffffffffffffffffffffffffffffffffffffffff166342842e0e30846040015186606001516040518463ffffffff1660e01b8152600401610617939291906125ba565b600060405180830381600087803b15801561063157600080fd5b505af1158015610645573d6000803e3d6000fd5b505050505050505050565b42841015610693576040517f08c379a000000000000000000000000000000000000000000000000000000000815260040161068a9061263d565b60405180910390fd5b8383116106d5576040517f08c379a00000000000000000000000000000000000000000000000000000000081526004016106cc906126a9565b60405180910390fd5b6040518061012001604052803373ffffffffffffffffffffffffffffffffffffffff1681526020018873ffffffffffffffffffffffffffffffffffffffff1681526020018773ffffffffffffffffffffffffffffffffffffffff16815260200186815260200185815260200184815260200183815260200160008152602001821515815250600160008054815260200190815260200160002060008201518160000160006101000a81548173ffffffffffffffffffffffffffffffffffffffff021916908373ffffffffffffffffffffffffffffffffffffffff16021790555060208201518160010160006101000a81548173ffffffffffffffffffffffffffffffffffffffff021916908373ffffffffffffffffffffffffffffffffffffffff16021790555060408201518160020160006101000a81548173ffffffffffffffffffffffffffffffffffffffff021916908373ffffffffffffffffffffffffffffffffffffffff160217905550606082015181600301556080820151816004015560a0820151816005015560c0820151816006015560e082015181600701556101008201518160080160006101000a81548160ff0219169083151502179055509050504260026000805481526020019081526020016000206000808152602001908152602001600020600001819055506000547fef8b2952c43462575e82711d0cc91169720a4589a9fa533d173e022437f5405e87876040516108fa9291906126c9565b60405180910390a260008081548092919061091490612721565b919050555050505050505050565b803373ffffffffffffffffffffffffffffffffffffffff166001600083815260200190815260200160002060000160009054906101000a900473ffffffffffffffffffffffffffffffffffffffff1673ffffffffffffffffffffffffffffffffffffffff16146109c7576040517f08c379a00000000000000000000000000000000000000000000000000000000081526004016109be906124c2565b60405180910390fd5b600060016000848152602001908152602001600020604051806101200160405290816000820160009054906101000a900473ffffffffffffffffffffffffffffffffffffffff1673ffffffffffffffffffffffffffffffffffffffff1673ffffffffffffffffffffffffffffffffffffffff1681526020016001820160009054906101000a900473ffffffffffffffffffffffffffffffffffffffff1673ffffffffffffffffffffffffffffffffffffffff1673ffffffffffffffffffffffffffffffffffffffff1681526020016002820160009054906101000a900473ffffffffffffffffffffffffffffffffffffffff1673ffffffffffffffffffffffffffffffffffffffff1673ffffffffffffffffffffffffffffffffffffffff16815260200160038201548152602001600482015481526020016005820154815260200160068201548152602001600782015481526020016008820160009054906101000a900460ff161515151581525050905042816080015111610b7f576040517f08c379a0000000000000000000000000000000000000000000000000000000008152600401610b76906127b5565b60405180910390fd5b610b87611eca565b90507ffe785ef891129b084b1c5a30e4d88eb97c97822c024cc25d5f9d806b897512e083604051610bb89190611f73565b60405180910390a1505050565b600060016000838152602001908152602001600020604051806101200160405290816000820160009054906101000a900473ffffffffffffffffffffffffffffffffffffffff1673ffffffffffffffffffffffffffffffffffffffff1673ffffffffffffffffffffffffffffffffffffffff1681526020016001820160009054906101000a900473ffffffffffffffffffffffffffffffffffffffff1673ffffffffffffffffffffffffffffffffffffffff1673ffffffffffffffffffffffffffffffffffffffff1681526020016002820160009054906101000a900473ffffffffffffffffffffffffffffffffffffffff1673ffffffffffffffffffffffffffffffffffffffff1673ffffffffffffffffffffffffffffffffffffffff16815260200160038201548152602001600482015481526020016005820154815260200160068201548152602001600782015481526020016008820160009054906101000a900460ff1615151515815250509050610d4082611bd9565b610d7f576040517f08c379a0000000000000000000000000000000000000000000000000000000008152600401610d769061252e565b60405180910390fd5b60006002600084815260200190815260200160002060008360e00151815260200190815260200160002060405180606001604052908160008201548152602001600182015481526020016002820160009054906101000a900473ffffffffffffffffffffffffffffffffffffffff1673ffffffffffffffffffffffffffffffffffffffff1673ffffffffffffffffffffffffffffffffffffffff168152505090503373ffffffffffffffffffffffffffffffffffffffff16816040015173ffffffffffffffffffffffffffffffffffffffff1614610e92576040517f08c379a0000000000000000000000000000000000000000000000000000000008152600401610e899061259a565b60405180910390fd5b6000826040015190508073ffffffffffffffffffffffffffffffffffffffff166342842e0e303386606001516040518463ffffffff1660e01b8152600401610edc939291906125ba565b600060405180830381600087803b158015610ef657600080fd5b505af1158015610f0a573d6000803e3d6000fd5b5050505050505050565b610f1d82611bfc565b610f5c576040517f08c379a0000000000000000000000000000000000000000000000000000000008152600401610f5390612821565b60405180910390fd5b610f6582611bd9565b15610fa5576040517f08c379a0000000000000000000000000000000000000000000000000000000008152600401610f9c9061288d565b60405180910390fd5b600060016000848152602001908152602001600020604051806101200160405290816000820160009054906101000a900473ffffffffffffffffffffffffffffffffffffffff1673ffffffffffffffffffffffffffffffffffffffff1673ffffffffffffffffffffffffffffffffffffffff1681526020016001820160009054906101000a900473ffffffffffffffffffffffffffffffffffffffff1673ffffffffffffffffffffffffffffffffffffffff1673ffffffffffffffffffffffffffffffffffffffff1681526020016002820160009054906101000a900473ffffffffffffffffffffffffffffffffffffffff1673ffffffffffffffffffffffffffffffffffffffff1673ffffffffffffffffffffffffffffffffffffffff16815260200160038201548152602001600482015481526020016005820154815260200160068201548152602001600782015481526020016008820160009054906101000a900460ff1615151515815250509050600060018260e0015161112a91906128ad565b9050808260e0018181525050600061114185611c1e565b9050808411611185576040517f08c379a000000000000000000000000000000000000000000000000000000000815260040161117c9061292d565b60405180910390fd5b826020015173ffffffffffffffffffffffffffffffffffffffff166323b872dd3360026000898152602001908152602001600020600086815260200190815260200160002060020160009054906101000a900473ffffffffffffffffffffffffffffffffffffffff16846040518463ffffffff1660e01b815260040161120d939291906125ba565b6020604051808303816000875af115801561122c573d6000803e3d6000fd5b505050506040513d601f19601f820116820180604052508101906112509190612962565b50826020015173ffffffffffffffffffffffffffffffffffffffff166323b872dd3385600001518488611283919061298f565b6040518463ffffffff1660e01b81526004016112a1939291906125ba565b6020604051808303816000875af11580156112c0573d6000803e3d6000fd5b505050506040513d601f19601f820116820180604052508101906112e49190612962565b5060405180606001604052804281526020018581526020013373ffffffffffffffffffffffffffffffffffffffff16815250600260008781526020019081526020016000206000848152602001908152602001600020600082015181600001556020820151816001015560408201518160020160006101000a81548173ffffffffffffffffffffffffffffffffffffffff021916908373ffffffffffffffffffffffffffffffffffffffff1602179055509050505050505050565b803373ffffffffffffffffffffffffffffffffffffffff166001600083815260200190815260200160002060000160009054906101000a900473ffffffffffffffffffffffffffffffffffffffff1673ffffffffffffffffffffffffffffffffffffffff1614611444576040517f08c379a000000000000000000000000000000000000000000000000000000000815260040161143b906124c2565b60405180910390fd5b600060016000848152602001908152602001600020604051806101200160405290816000820160009054906101000a900473ffffffffffffffffffffffffffffffffffffffff1673ffffffffffffffffffffffffffffffffffffffff1673ffffffffffffffffffffffffffffffffffffffff1681526020016001820160009054906101000a900473ffffffffffffffffffffffffffffffffffffffff1673ffffffffffffffffffffffffffffffffffffffff1673ffffffffffffffffffffffffffffffffffffffff1681526020016002820160009054906101000a900473ffffffffffffffffffffffffffffffffffffffff1673ffffffffffffffffffffffffffffffffffffffff1673ffffffffffffffffffffffffffffffffffffffff16815260200160038201548152602001600482015481526020016005820154815260200160068201548152602001600782015481526020016008820160009054906101000a900460ff161515151581525050905060006002600085815260200190815260200160002060008360e00151815260200190815260200160002060405180606001604052908160008201548152602001600182015481526020016002820160009054906101000a900473ffffffffffffffffffffffffffffffffffffffff1673ffffffffffffffffffffffffffffffffffffffff1673ffffffffffffffffffffffffffffffffffffffff16815250509050816020015173ffffffffffffffffffffffffffffffffffffffff166323b872dd33836040015161168688611c1e565b6040518463ffffffff1660e01b81526004016116a4939291906125ba565b6020604051808303816000875af11580156116c3573d6000803e3d6000fd5b505050506040513d601f19601f820116820180604052508101906116e79190612962565b506000826040015190508073ffffffffffffffffffffffffffffffffffffffff166342842e0e303386606001516040518463ffffffff1660e01b8152600401611732939291906125ba565b600060405180830381600087803b15801561174c57600080fd5b505af1158015611760573d6000803e3d6000fd5b505050505050505050565b6002602052816000526040600020602052806000526040600020600091509150508060000154908060010154908060020160009054906101000a900473ffffffffffffffffffffffffffffffffffffffff16905083565b5050565b6117cf82611bfc565b61180e576040517f08c379a000000000000000000000000000000000000000000000000000000000815260040161180590612821565b60405180910390fd5b61181782611bd9565b15611857576040517f08c379a000000000000000000000000000000000000000000000000000000000815260040161184e9061288d565b60405180910390fd5b600060016000848152602001908152602001600020604051806101200160405290816000820160009054906101000a900473ffffffffffffffffffffffffffffffffffffffff1673ffffffffffffffffffffffffffffffffffffffff1673ffffffffffffffffffffffffffffffffffffffff1681526020016001820160009054906101000a900473ffffffffffffffffffffffffffffffffffffffff1673ffffffffffffffffffffffffffffffffffffffff1673ffffffffffffffffffffffffffffffffffffffff1681526020016002820160009054906101000a900473ffffffffffffffffffffffffffffffffffffffff1673ffffffffffffffffffffffffffffffffffffffff1673ffffffffffffffffffffffffffffffffffffffff16815260200160038201548152602001600482015481526020016005820154815260200160068201548152602001600782015481526020016008820160009054906101000a900460ff161515151581525050905060006002600085815260200190815260200160002060008360e00151815260200190815260200160002090503373ffffffffffffffffffffffffffffffffffffffff168160020160009054906101000a900473ffffffffffffffffffffffffffffffffffffffff1673ffffffffffffffffffffffffffffffffffffffff1614611a87576040517f08c379a0000000000000000000000000000000000000000000000000000000008152600401611a7e90612a0f565b60405180910390fd5b828160020160006101000a81548173ffffffffffffffffffffffffffffffffffffffff021916908373ffffffffffffffffffffffffffffffffffffffff16021790555050505050565b60036020528160005260406000208181548110611aec57600080fd5b906000526020600020016000915091509054906101000a900473ffffffffffffffffffffffffffffffffffffffff1681565b60016020528060005260406000206000915090508060000160009054906101000a900473ffffffffffffffffffffffffffffffffffffffff16908060010160009054906101000a900473ffffffffffffffffffffffffffffffffffffffff16908060020160009054906101000a900473ffffffffffffffffffffffffffffffffffffffff16908060030154908060040154908060050154908060060154908060070154908060080160009054906101000a900460ff16905089565b600042600160008481526020019081526020016000206005015411159050919050565b6000426001600084815260200190815260200160002060040154109050919050565b60008060016000848152602001908152602001600020604051806101200160405290816000820160009054906101000a900473ffffffffffffffffffffffffffffffffffffffff1673ffffffffffffffffffffffffffffffffffffffff1673ffffffffffffffffffffffffffffffffffffffff1681526020016001820160009054906101000a900473ffffffffffffffffffffffffffffffffffffffff1673ffffffffffffffffffffffffffffffffffffffff1673ffffffffffffffffffffffffffffffffffffffff1681526020016002820160009054906101000a900473ffffffffffffffffffffffffffffffffffffffff1673ffffffffffffffffffffffffffffffffffffffff1673ffffffffffffffffffffffffffffffffffffffff16815260200160038201548152602001600482015481526020016005820154815260200160068201548152602001600782015481526020016008820160009054906101000a900460ff161515151581525050905060006002600085815260200190815260200160002060008360e00151815260200190815260200160002060405180606001604052908160008201548152602001600182015481526020016002820160009054906101000a900473ffffffffffffffffffffffffffffffffffffffff1673ffffffffffffffffffffffffffffffffffffffff1673ffffffffffffffffffffffffffffffffffffffff168152505090506000611e3d85611bd9565b15611e5d578260a001518260000151611e56919061298f565b9050611e70565b428260000151611e6d919061298f565b90505b6301e1338081670de0b6b3a76400008560c001518560200151611e939190612a2f565b611e9d9190612ab8565b611ea79190612a2f565b611eb19190612ab8565b8260200151611ec091906128ad565b9350505050919050565b604051806101200160405280600073ffffffffffffffffffffffffffffffffffffffff168152602001600073ffffffffffffffffffffffffffffffffffffffff168152602001600073ffffffffffffffffffffffffffffffffffffffff16815260200160008152602001600081526020016000815260200160008152602001600081526020016000151581525090565b6000819050919050565b611f6d81611f5a565b82525050565b6000602082019050611f886000830184611f64565b92915050565b6000604051905090565b600080fd5b600080fd5b611fab81611f5a565b8114611fb657600080fd5b50565b600081359050611fc881611fa2565b92915050565b600060208284031215611fe457611fe3611f98565b5b6000611ff284828501611fb9565b91505092915050565b600073ffffffffffffffffffffffffffffffffffffffff82169050919050565b600061202682611ffb565b9050919050565b6120368161201b565b811461204157600080fd5b50565b6000813590506120538161202d565b92915050565b60008115159050919050565b61206e81612059565b811461207957600080fd5b50565b60008135905061208b81612065565b92915050565b600080600080600080600060e0888a0312156120b0576120af611f98565b5b60006120be8a828b01612044565b97505060206120cf8a828b01612044565b96505060406120e08a828b01611fb9565b95505060606120f18a828b01611fb9565b94505060806121028a828b01611fb9565b93505060a06121138a828b01611fb9565b92505060c06121248a828b0161207c565b91505092959891949750929550565b6000806040838503121561214a57612149611f98565b5b600061215885828601611fb9565b925050602061216985828601611fb9565b9150509250929050565b61217c8161201b565b82525050565b60006060820190506121976000830186611f64565b6121a46020830185611f64565b6121b16040830184612173565b949350505050565b600080fd5b6000601f19601f8301169050919050565b7f4e487b7100000000000000000000000000000000000000000000000000000000600052604160045260246000fd5b612207826121be565b810181811067ffffffffffffffff82111715612226576122256121cf565b5b80604052505050565b6000612239611f8e565b905061224582826121fe565b919050565b600067ffffffffffffffff821115612265576122646121cf565b5b602082029050602081019050919050565b600080fd5b600061228e6122898461224a565b61222f565b905080838252602082019050602084028301858111156122b1576122b0612276565b5b835b818110156122da57806122c68882612044565b8452602084019350506020810190506122b3565b5050509392505050565b600082601f8301126122f9576122f86121b9565b5b813561230984826020860161227b565b91505092915050565b6000806040838503121561232957612328611f98565b5b600061233785828601611fb9565b925050602083013567ffffffffffffffff81111561235857612357611f9d565b5b612364858286016122e4565b9150509250929050565b6000806040838503121561238557612384611f98565b5b600061239385828601611fb9565b92505060206123a485828601612044565b9150509250929050565b60006020820190506123c36000830184612173565b92915050565b6123d281612059565b82525050565b6000610120820190506123ee600083018c612173565b6123fb602083018b612173565b612408604083018a612173565b6124156060830189611f64565b6124226080830188611f64565b61242f60a0830187611f64565b61243c60c0830186611f64565b61244960e0830185611f64565b6124576101008301846123c9565b9a9950505050505050505050565b600082825260208201905092915050565b7f4c414e3a206e6f74206f776e6572000000000000000000000000000000000000600082015250565b60006124ac600e83612465565b91506124b782612476565b602082019050919050565b600060208201905081810360008301526124db8161249f565b9050919050565b7f4c414e3a206c6f616e206e6f7420656e64656400000000000000000000000000600082015250565b6000612518601383612465565b9150612523826124e2565b602082019050919050565b600060208201905081810360008301526125478161250b565b9050919050565b7f4c414e3a206e6f74206c61746573742062696464657200000000000000000000600082015250565b6000612584601683612465565b915061258f8261254e565b602082019050919050565b600060208201905081810360008301526125b381612577565b9050919050565b60006060820190506125cf6000830186612173565b6125dc6020830185612173565b6125e96040830184611f64565b949350505050565b7f4c414e3a2073746172742074696d6520696e2070617374000000000000000000600082015250565b6000612627601783612465565b9150612632826125f1565b602082019050919050565b600060208201905081810360008301526126568161261a565b9050919050565b7f4c414e3a20737461727420616674657220656e64000000000000000000000000600082015250565b6000612693601483612465565b915061269e8261265d565b602082019050919050565b600060208201905081810360008301526126c281612686565b9050919050565b60006040820190506126de6000830185612173565b6126eb6020830184611f64565b9392505050565b7f4e487b7100000000000000000000000000000000000000000000000000000000600052601160045260246000fd5b600061272c82611f5a565b91507fffffffffffffffffffffffffffffffffffffffffffffffffffffffffffffffff820361275e5761275d6126f2565b5b600182019050919050565b7f4c414e3a20616c72656164792073746172746564000000000000000000000000600082015250565b600061279f601483612465565b91506127aa82612769565b602082019050919050565b600060208201905081810360008301526127ce81612792565b9050919050565b7f4c414e3a206e6f74207374617274656400000000000000000000000000000000600082015250565b600061280b601083612465565b9150612816826127d5565b602082019050919050565b6000602082019050818103600083015261283a816127fe565b9050919050565b7f4c414e3a20616c726561647920656e6465640000000000000000000000000000600082015250565b6000612877601283612465565b915061288282612841565b602082019050919050565b600060208201905081810360008301526128a68161286a565b9050919050565b60006128b882611f5a565b91506128c383611f5a565b92508282019050808211156128db576128da6126f2565b5b92915050565b7f4c414e3a20626964206e6f742068696768657200000000000000000000000000600082015250565b6000612917601383612465565b9150612922826128e1565b602082019050919050565b600060208201905081810360008301526129468161290a565b9050919050565b60008151905061295c81612065565b92915050565b60006020828403121561297857612977611f98565b5b60006129868482850161294d565b91505092915050565b600061299a82611f5a565b91506129a583611f5a565b92508282039050818111156129bd576129bc6126f2565b5b92915050565b7f4c414e3a204e6f7420746865206c617465737420626964646572000000000000600082015250565b60006129f9601a83612465565b9150612a04826129c3565b602082019050919050565b60006020820190508181036000830152612a28816129ec565b9050919050565b6000612a3a82611f5a565b9150612a4583611f5a565b9250817fffffffffffffffffffffffffffffffffffffffffffffffffffffffffffffffff0483118215151615612a7e57612a7d6126f2565b5b828202905092915050565b7f4e487b7100000000000000000000000000000000000000000000000000000000600052601260045260246000fd5b6000612ac382611f5a565b9150612ace83611f5a565b925082612ade57612add612a89565b5b82820490509291505056fea26469706673582212208faaed17cbdff9132bc7e3731f37115a28dc9ceb8c4f6ba4456aac4785768b3364736f6c63430008100033",
					"opcodes": "PUSH1 0x80 PUSH1 0x40 MSTORE CALLVALUE DUP1 ISZERO PUSH2 0x10 JUMPI PUSH1 0x0 DUP1 REVERT JUMPDEST POP PUSH2 0x2B1F DUP1 PUSH2 0x20 PUSH1 0x0 CODECOPY PUSH1 0x0 RETURN INVALID PUSH1 0x80 PUSH1 0x40 MSTORE CALLVALUE DUP1 ISZERO PUSH2 0x10 JUMPI PUSH1 0x0 DUP1 REVERT JUMPDEST POP PUSH1 0x4 CALLDATASIZE LT PUSH2 0xB4 JUMPI PUSH1 0x0 CALLDATALOAD PUSH1 0xE0 SHR DUP1 PUSH4 0x7870860B GT PUSH2 0x71 JUMPI DUP1 PUSH4 0x7870860B EQ PUSH2 0x163 JUMPI DUP1 PUSH4 0x7B3C4BAA EQ PUSH2 0x17F JUMPI DUP1 PUSH4 0x8F17AA2D EQ PUSH2 0x1B1 JUMPI DUP1 PUSH4 0x8F769F3A EQ PUSH2 0x1CD JUMPI DUP1 PUSH4 0x9BEA77DA EQ PUSH2 0x1E9 JUMPI DUP1 PUSH4 0xE1EC3C68 EQ PUSH2 0x219 JUMPI PUSH2 0xB4 JUMP JUMPDEST DUP1 PUSH4 0x6661ABD EQ PUSH2 0xB9 JUMPI DUP1 PUSH4 0x18DE4F9D EQ PUSH2 0xD7 JUMPI DUP1 PUSH4 0x2613C5D6 EQ PUSH2 0xF3 JUMPI DUP1 PUSH4 0x40E58EE5 EQ PUSH2 0x10F JUMPI DUP1 PUSH4 0x415F1240 EQ PUSH2 0x12B JUMPI DUP1 PUSH4 0x598647F8 EQ PUSH2 0x147 JUMPI JUMPDEST PUSH1 0x0 DUP1 REVERT JUMPDEST PUSH2 0xC1 PUSH2 0x251 JUMP JUMPDEST PUSH1 0x40 MLOAD PUSH2 0xCE SWAP2 SWAP1 PUSH2 0x1F73 JUMP JUMPDEST PUSH1 0x40 MLOAD DUP1 SWAP2 SUB SWAP1 RETURN JUMPDEST PUSH2 0xF1 PUSH1 0x4 DUP1 CALLDATASIZE SUB DUP2 ADD SWAP1 PUSH2 0xEC SWAP2 SWAP1 PUSH2 0x1FCE JUMP JUMPDEST PUSH2 0x257 JUMP JUMPDEST STOP JUMPDEST PUSH2 0x10D PUSH1 0x4 DUP1 CALLDATASIZE SUB DUP2 ADD SWAP1 PUSH2 0x108 SWAP2 SWAP1 PUSH2 0x2091 JUMP JUMPDEST PUSH2 0x650 JUMP JUMPDEST STOP JUMPDEST PUSH2 0x129 PUSH1 0x4 DUP1 CALLDATASIZE SUB DUP2 ADD SWAP1 PUSH2 0x124 SWAP2 SWAP1 PUSH2 0x1FCE JUMP JUMPDEST PUSH2 0x922 JUMP JUMPDEST STOP JUMPDEST PUSH2 0x145 PUSH1 0x4 DUP1 CALLDATASIZE SUB DUP2 ADD SWAP1 PUSH2 0x140 SWAP2 SWAP1 PUSH2 0x1FCE JUMP JUMPDEST PUSH2 0xBC5 JUMP JUMPDEST STOP JUMPDEST PUSH2 0x161 PUSH1 0x4 DUP1 CALLDATASIZE SUB DUP2 ADD SWAP1 PUSH2 0x15C SWAP2 SWAP1 PUSH2 0x2133 JUMP JUMPDEST PUSH2 0xF14 JUMP JUMPDEST STOP JUMPDEST PUSH2 0x17D PUSH1 0x4 DUP1 CALLDATASIZE SUB DUP2 ADD SWAP1 PUSH2 0x178 SWAP2 SWAP1 PUSH2 0x1FCE JUMP JUMPDEST PUSH2 0x139F JUMP JUMPDEST STOP JUMPDEST PUSH2 0x199 PUSH1 0x4 DUP1 CALLDATASIZE SUB DUP2 ADD SWAP1 PUSH2 0x194 SWAP2 SWAP1 PUSH2 0x2133 JUMP JUMPDEST PUSH2 0x176B JUMP JUMPDEST PUSH1 0x40 MLOAD PUSH2 0x1A8 SWAP4 SWAP3 SWAP2 SWAP1 PUSH2 0x2182 JUMP JUMPDEST PUSH1 0x40 MLOAD DUP1 SWAP2 SUB SWAP1 RETURN JUMPDEST PUSH2 0x1CB PUSH1 0x4 DUP1 CALLDATASIZE SUB DUP2 ADD SWAP1 PUSH2 0x1C6 SWAP2 SWAP1 PUSH2 0x2312 JUMP JUMPDEST PUSH2 0x17C2 JUMP JUMPDEST STOP JUMPDEST PUSH2 0x1E7 PUSH1 0x4 DUP1 CALLDATASIZE SUB DUP2 ADD SWAP1 PUSH2 0x1E2 SWAP2 SWAP1 PUSH2 0x236E JUMP JUMPDEST PUSH2 0x17C6 JUMP JUMPDEST STOP JUMPDEST PUSH2 0x203 PUSH1 0x4 DUP1 CALLDATASIZE SUB DUP2 ADD SWAP1 PUSH2 0x1FE SWAP2 SWAP1 PUSH2 0x2133 JUMP JUMPDEST PUSH2 0x1AD0 JUMP JUMPDEST PUSH1 0x40 MLOAD PUSH2 0x210 SWAP2 SWAP1 PUSH2 0x23AE JUMP JUMPDEST PUSH1 0x40 MLOAD DUP1 SWAP2 SUB SWAP1 RETURN JUMPDEST PUSH2 0x233 PUSH1 0x4 DUP1 CALLDATASIZE SUB DUP2 ADD SWAP1 PUSH2 0x22E SWAP2 SWAP1 PUSH2 0x1FCE JUMP JUMPDEST PUSH2 0x1B1E JUMP JUMPDEST PUSH1 0x40 MLOAD PUSH2 0x248 SWAP10 SWAP9 SWAP8 SWAP7 SWAP6 SWAP5 SWAP4 SWAP3 SWAP2 SWAP1 PUSH2 0x23D8 JUMP JUMPDEST PUSH1 0x40 MLOAD DUP1 SWAP2 SUB SWAP1 RETURN JUMPDEST PUSH1 0x0 SLOAD DUP2 JUMP JUMPDEST DUP1 CALLER PUSH20 0xFFFFFFFFFFFFFFFFFFFFFFFFFFFFFFFFFFFFFFFF AND PUSH1 0x1 PUSH1 0x0 DUP4 DUP2 MSTORE PUSH1 0x20 ADD SWAP1 DUP2 MSTORE PUSH1 0x20 ADD PUSH1 0x0 KECCAK256 PUSH1 0x0 ADD PUSH1 0x0 SWAP1 SLOAD SWAP1 PUSH2 0x100 EXP SWAP1 DIV PUSH20 0xFFFFFFFFFFFFFFFFFFFFFFFFFFFFFFFFFFFFFFFF AND PUSH20 0xFFFFFFFFFFFFFFFFFFFFFFFFFFFFFFFFFFFFFFFF AND EQ PUSH2 0x2FC JUMPI PUSH1 0x40 MLOAD PUSH32 0x8C379A000000000000000000000000000000000000000000000000000000000 DUP2 MSTORE PUSH1 0x4 ADD PUSH2 0x2F3 SWAP1 PUSH2 0x24C2 JUMP JUMPDEST PUSH1 0x40 MLOAD DUP1 SWAP2 SUB SWAP1 REVERT JUMPDEST PUSH1 0x0 PUSH1 0x1 PUSH1 0x0 DUP5 DUP2 MSTORE PUSH1 0x20 ADD SWAP1 DUP2 MSTORE PUSH1 0x20 ADD PUSH1 0x0 KECCAK256 PUSH1 0x40 MLOAD DUP1 PUSH2 0x120 ADD PUSH1 0x40 MSTORE SWAP1 DUP2 PUSH1 0x0 DUP3 ADD PUSH1 0x0 SWAP1 SLOAD SWAP1 PUSH2 0x100 EXP SWAP1 DIV PUSH20 0xFFFFFFFFFFFFFFFFFFFFFFFFFFFFFFFFFFFFFFFF AND PUSH20 0xFFFFFFFFFFFFFFFFFFFFFFFFFFFFFFFFFFFFFFFF AND PUSH20 0xFFFFFFFFFFFFFFFFFFFFFFFFFFFFFFFFFFFFFFFF AND DUP2 MSTORE PUSH1 0x20 ADD PUSH1 0x1 DUP3 ADD PUSH1 0x0 SWAP1 SLOAD SWAP1 PUSH2 0x100 EXP SWAP1 DIV PUSH20 0xFFFFFFFFFFFFFFFFFFFFFFFFFFFFFFFFFFFFFFFF AND PUSH20 0xFFFFFFFFFFFFFFFFFFFFFFFFFFFFFFFFFFFFFFFF AND PUSH20 0xFFFFFFFFFFFFFFFFFFFFFFFFFFFFFFFFFFFFFFFF AND DUP2 MSTORE PUSH1 0x20 ADD PUSH1 0x2 DUP3 ADD PUSH1 0x0 SWAP1 SLOAD SWAP1 PUSH2 0x100 EXP SWAP1 DIV PUSH20 0xFFFFFFFFFFFFFFFFFFFFFFFFFFFFFFFFFFFFFFFF AND PUSH20 0xFFFFFFFFFFFFFFFFFFFFFFFFFFFFFFFFFFFFFFFF AND PUSH20 0xFFFFFFFFFFFFFFFFFFFFFFFFFFFFFFFFFFFFFFFF AND DUP2 MSTORE PUSH1 0x20 ADD PUSH1 0x3 DUP3 ADD SLOAD DUP2 MSTORE PUSH1 0x20 ADD PUSH1 0x4 DUP3 ADD SLOAD DUP2 MSTORE PUSH1 0x20 ADD PUSH1 0x5 DUP3 ADD SLOAD DUP2 MSTORE PUSH1 0x20 ADD PUSH1 0x6 DUP3 ADD SLOAD DUP2 MSTORE PUSH1 0x20 ADD PUSH1 0x7 DUP3 ADD SLOAD DUP2 MSTORE PUSH1 0x20 ADD PUSH1 0x8 DUP3 ADD PUSH1 0x0 SWAP1 SLOAD SWAP1 PUSH2 0x100 EXP SWAP1 DIV PUSH1 0xFF AND ISZERO ISZERO ISZERO ISZERO DUP2 MSTORE POP POP SWAP1 POP PUSH2 0x477 DUP4 PUSH2 0x1BD9 JUMP JUMPDEST PUSH2 0x4B6 JUMPI PUSH1 0x40 MLOAD PUSH32 0x8C379A000000000000000000000000000000000000000000000000000000000 DUP2 MSTORE PUSH1 0x4 ADD PUSH2 0x4AD SWAP1 PUSH2 0x252E JUMP JUMPDEST PUSH1 0x40 MLOAD DUP1 SWAP2 SUB SWAP1 REVERT JUMPDEST PUSH1 0x0 PUSH1 0x2 PUSH1 0x0 DUP6 DUP2 MSTORE PUSH1 0x20 ADD SWAP1 DUP2 MSTORE PUSH1 0x20 ADD PUSH1 0x0 KECCAK256 PUSH1 0x0 DUP4 PUSH1 0xE0 ADD MLOAD DUP2 MSTORE PUSH1 0x20 ADD SWAP1 DUP2 MSTORE PUSH1 0x20 ADD PUSH1 0x0 KECCAK256 PUSH1 0x40 MLOAD DUP1 PUSH1 0x60 ADD PUSH1 0x40 MSTORE SWAP1 DUP2 PUSH1 0x0 DUP3 ADD SLOAD DUP2 MSTORE PUSH1 0x20 ADD PUSH1 0x1 DUP3 ADD SLOAD DUP2 MSTORE PUSH1 0x20 ADD PUSH1 0x2 DUP3 ADD PUSH1 0x0 SWAP1 SLOAD SWAP1 PUSH2 0x100 EXP SWAP1 DIV PUSH20 0xFFFFFFFFFFFFFFFFFFFFFFFFFFFFFFFFFFFFFFFF AND PUSH20 0xFFFFFFFFFFFFFFFFFFFFFFFFFFFFFFFFFFFFFFFF AND PUSH20 0xFFFFFFFFFFFFFFFFFFFFFFFFFFFFFFFFFFFFFFFF AND DUP2 MSTORE POP POP SWAP1 POP CALLER PUSH20 0xFFFFFFFFFFFFFFFFFFFFFFFFFFFFFFFFFFFFFFFF AND DUP2 PUSH1 0x40 ADD MLOAD PUSH20 0xFFFFFFFFFFFFFFFFFFFFFFFFFFFFFFFFFFFFFFFF AND EQ PUSH2 0x5C9 JUMPI PUSH1 0x40 MLOAD PUSH32 0x8C379A000000000000000000000000000000000000000000000000000000000 DUP2 MSTORE PUSH1 0x4 ADD PUSH2 0x5C0 SWAP1 PUSH2 0x259A JUMP JUMPDEST PUSH1 0x40 MLOAD DUP1 SWAP2 SUB SWAP1 REVERT JUMPDEST PUSH1 0x0 DUP3 PUSH1 0x40 ADD MLOAD SWAP1 POP DUP1 PUSH20 0xFFFFFFFFFFFFFFFFFFFFFFFFFFFFFFFFFFFFFFFF AND PUSH4 0x42842E0E ADDRESS DUP5 PUSH1 0x40 ADD MLOAD DUP7 PUSH1 0x60 ADD MLOAD PUSH1 0x40 MLOAD DUP5 PUSH4 0xFFFFFFFF AND PUSH1 0xE0 SHL DUP2 MSTORE PUSH1 0x4 ADD PUSH2 0x617 SWAP4 SWAP3 SWAP2 SWAP1 PUSH2 0x25BA JUMP JUMPDEST PUSH1 0x0 PUSH1 0x40 MLOAD DUP1 DUP4 SUB DUP2 PUSH1 0x0 DUP8 DUP1 EXTCODESIZE ISZERO DUP1 ISZERO PUSH2 0x631 JUMPI PUSH1 0x0 DUP1 REVERT JUMPDEST POP GAS CALL ISZERO DUP1 ISZERO PUSH2 0x645 JUMPI RETURNDATASIZE PUSH1 0x0 DUP1 RETURNDATACOPY RETURNDATASIZE PUSH1 0x0 REVERT JUMPDEST POP POP POP POP POP POP POP POP POP JUMP JUMPDEST TIMESTAMP DUP5 LT ISZERO PUSH2 0x693 JUMPI PUSH1 0x40 MLOAD PUSH32 0x8C379A000000000000000000000000000000000000000000000000000000000 DUP2 MSTORE PUSH1 0x4 ADD PUSH2 0x68A SWAP1 PUSH2 0x263D JUMP JUMPDEST PUSH1 0x40 MLOAD DUP1 SWAP2 SUB SWAP1 REVERT JUMPDEST DUP4 DUP4 GT PUSH2 0x6D5 JUMPI PUSH1 0x40 MLOAD PUSH32 0x8C379A000000000000000000000000000000000000000000000000000000000 DUP2 MSTORE PUSH1 0x4 ADD PUSH2 0x6CC SWAP1 PUSH2 0x26A9 JUMP JUMPDEST PUSH1 0x40 MLOAD DUP1 SWAP2 SUB SWAP1 REVERT JUMPDEST PUSH1 0x40 MLOAD DUP1 PUSH2 0x120 ADD PUSH1 0x40 MSTORE DUP1 CALLER PUSH20 0xFFFFFFFFFFFFFFFFFFFFFFFFFFFFFFFFFFFFFFFF AND DUP2 MSTORE PUSH1 0x20 ADD DUP9 PUSH20 0xFFFFFFFFFFFFFFFFFFFFFFFFFFFFFFFFFFFFFFFF AND DUP2 MSTORE PUSH1 0x20 ADD DUP8 PUSH20 0xFFFFFFFFFFFFFFFFFFFFFFFFFFFFFFFFFFFFFFFF AND DUP2 MSTORE PUSH1 0x20 ADD DUP7 DUP2 MSTORE PUSH1 0x20 ADD DUP6 DUP2 MSTORE PUSH1 0x20 ADD DUP5 DUP2 MSTORE PUSH1 0x20 ADD DUP4 DUP2 MSTORE PUSH1 0x20 ADD PUSH1 0x0 DUP2 MSTORE PUSH1 0x20 ADD DUP3 ISZERO ISZERO DUP2 MSTORE POP PUSH1 0x1 PUSH1 0x0 DUP1 SLOAD DUP2 MSTORE PUSH1 0x20 ADD SWAP1 DUP2 MSTORE PUSH1 0x20 ADD PUSH1 0x0 KECCAK256 PUSH1 0x0 DUP3 ADD MLOAD DUP2 PUSH1 0x0 ADD PUSH1 0x0 PUSH2 0x100 EXP DUP2 SLOAD DUP2 PUSH20 0xFFFFFFFFFFFFFFFFFFFFFFFFFFFFFFFFFFFFFFFF MUL NOT AND SWAP1 DUP4 PUSH20 0xFFFFFFFFFFFFFFFFFFFFFFFFFFFFFFFFFFFFFFFF AND MUL OR SWAP1 SSTORE POP PUSH1 0x20 DUP3 ADD MLOAD DUP2 PUSH1 0x1 ADD PUSH1 0x0 PUSH2 0x100 EXP DUP2 SLOAD DUP2 PUSH20 0xFFFFFFFFFFFFFFFFFFFFFFFFFFFFFFFFFFFFFFFF MUL NOT AND SWAP1 DUP4 PUSH20 0xFFFFFFFFFFFFFFFFFFFFFFFFFFFFFFFFFFFFFFFF AND MUL OR SWAP1 SSTORE POP PUSH1 0x40 DUP3 ADD MLOAD DUP2 PUSH1 0x2 ADD PUSH1 0x0 PUSH2 0x100 EXP DUP2 SLOAD DUP2 PUSH20 0xFFFFFFFFFFFFFFFFFFFFFFFFFFFFFFFFFFFFFFFF MUL NOT AND SWAP1 DUP4 PUSH20 0xFFFFFFFFFFFFFFFFFFFFFFFFFFFFFFFFFFFFFFFF AND MUL OR SWAP1 SSTORE POP PUSH1 0x60 DUP3 ADD MLOAD DUP2 PUSH1 0x3 ADD SSTORE PUSH1 0x80 DUP3 ADD MLOAD DUP2 PUSH1 0x4 ADD SSTORE PUSH1 0xA0 DUP3 ADD MLOAD DUP2 PUSH1 0x5 ADD SSTORE PUSH1 0xC0 DUP3 ADD MLOAD DUP2 PUSH1 0x6 ADD SSTORE PUSH1 0xE0 DUP3 ADD MLOAD DUP2 PUSH1 0x7 ADD SSTORE PUSH2 0x100 DUP3 ADD MLOAD DUP2 PUSH1 0x8 ADD PUSH1 0x0 PUSH2 0x100 EXP DUP2 SLOAD DUP2 PUSH1 0xFF MUL NOT AND SWAP1 DUP4 ISZERO ISZERO MUL OR SWAP1 SSTORE POP SWAP1 POP POP TIMESTAMP PUSH1 0x2 PUSH1 0x0 DUP1 SLOAD DUP2 MSTORE PUSH1 0x20 ADD SWAP1 DUP2 MSTORE PUSH1 0x20 ADD PUSH1 0x0 KECCAK256 PUSH1 0x0 DUP1 DUP2 MSTORE PUSH1 0x20 ADD SWAP1 DUP2 MSTORE PUSH1 0x20 ADD PUSH1 0x0 KECCAK256 PUSH1 0x0 ADD DUP2 SWAP1 SSTORE POP PUSH1 0x0 SLOAD PUSH32 0xEF8B2952C43462575E82711D0CC91169720A4589A9FA533D173E022437F5405E DUP8 DUP8 PUSH1 0x40 MLOAD PUSH2 0x8FA SWAP3 SWAP2 SWAP1 PUSH2 0x26C9 JUMP JUMPDEST PUSH1 0x40 MLOAD DUP1 SWAP2 SUB SWAP1 LOG2 PUSH1 0x0 DUP1 DUP2 SLOAD DUP1 SWAP3 SWAP2 SWAP1 PUSH2 0x914 SWAP1 PUSH2 0x2721 JUMP JUMPDEST SWAP2 SWAP1 POP SSTORE POP POP POP POP POP POP POP POP JUMP JUMPDEST DUP1 CALLER PUSH20 0xFFFFFFFFFFFFFFFFFFFFFFFFFFFFFFFFFFFFFFFF AND PUSH1 0x1 PUSH1 0x0 DUP4 DUP2 MSTORE PUSH1 0x20 ADD SWAP1 DUP2 MSTORE PUSH1 0x20 ADD PUSH1 0x0 KECCAK256 PUSH1 0x0 ADD PUSH1 0x0 SWAP1 SLOAD SWAP1 PUSH2 0x100 EXP SWAP1 DIV PUSH20 0xFFFFFFFFFFFFFFFFFFFFFFFFFFFFFFFFFFFFFFFF AND PUSH20 0xFFFFFFFFFFFFFFFFFFFFFFFFFFFFFFFFFFFFFFFF AND EQ PUSH2 0x9C7 JUMPI PUSH1 0x40 MLOAD PUSH32 0x8C379A000000000000000000000000000000000000000000000000000000000 DUP2 MSTORE PUSH1 0x4 ADD PUSH2 0x9BE SWAP1 PUSH2 0x24C2 JUMP JUMPDEST PUSH1 0x40 MLOAD DUP1 SWAP2 SUB SWAP1 REVERT JUMPDEST PUSH1 0x0 PUSH1 0x1 PUSH1 0x0 DUP5 DUP2 MSTORE PUSH1 0x20 ADD SWAP1 DUP2 MSTORE PUSH1 0x20 ADD PUSH1 0x0 KECCAK256 PUSH1 0x40 MLOAD DUP1 PUSH2 0x120 ADD PUSH1 0x40 MSTORE SWAP1 DUP2 PUSH1 0x0 DUP3 ADD PUSH1 0x0 SWAP1 SLOAD SWAP1 PUSH2 0x100 EXP SWAP1 DIV PUSH20 0xFFFFFFFFFFFFFFFFFFFFFFFFFFFFFFFFFFFFFFFF AND PUSH20 0xFFFFFFFFFFFFFFFFFFFFFFFFFFFFFFFFFFFFFFFF AND PUSH20 0xFFFFFFFFFFFFFFFFFFFFFFFFFFFFFFFFFFFFFFFF AND DUP2 MSTORE PUSH1 0x20 ADD PUSH1 0x1 DUP3 ADD PUSH1 0x0 SWAP1 SLOAD SWAP1 PUSH2 0x100 EXP SWAP1 DIV PUSH20 0xFFFFFFFFFFFFFFFFFFFFFFFFFFFFFFFFFFFFFFFF AND PUSH20 0xFFFFFFFFFFFFFFFFFFFFFFFFFFFFFFFFFFFFFFFF AND PUSH20 0xFFFFFFFFFFFFFFFFFFFFFFFFFFFFFFFFFFFFFFFF AND DUP2 MSTORE PUSH1 0x20 ADD PUSH1 0x2 DUP3 ADD PUSH1 0x0 SWAP1 SLOAD SWAP1 PUSH2 0x100 EXP SWAP1 DIV PUSH20 0xFFFFFFFFFFFFFFFFFFFFFFFFFFFFFFFFFFFFFFFF AND PUSH20 0xFFFFFFFFFFFFFFFFFFFFFFFFFFFFFFFFFFFFFFFF AND PUSH20 0xFFFFFFFFFFFFFFFFFFFFFFFFFFFFFFFFFFFFFFFF AND DUP2 MSTORE PUSH1 0x20 ADD PUSH1 0x3 DUP3 ADD SLOAD DUP2 MSTORE PUSH1 0x20 ADD PUSH1 0x4 DUP3 ADD SLOAD DUP2 MSTORE PUSH1 0x20 ADD PUSH1 0x5 DUP3 ADD SLOAD DUP2 MSTORE PUSH1 0x20 ADD PUSH1 0x6 DUP3 ADD SLOAD DUP2 MSTORE PUSH1 0x20 ADD PUSH1 0x7 DUP3 ADD SLOAD DUP2 MSTORE PUSH1 0x20 ADD PUSH1 0x8 DUP3 ADD PUSH1 0x0 SWAP1 SLOAD SWAP1 PUSH2 0x100 EXP SWAP1 DIV PUSH1 0xFF AND ISZERO ISZERO ISZERO ISZERO DUP2 MSTORE POP POP SWAP1 POP TIMESTAMP DUP2 PUSH1 0x80 ADD MLOAD GT PUSH2 0xB7F JUMPI PUSH1 0x40 MLOAD PUSH32 0x8C379A000000000000000000000000000000000000000000000000000000000 DUP2 MSTORE PUSH1 0x4 ADD PUSH2 0xB76 SWAP1 PUSH2 0x27B5 JUMP JUMPDEST PUSH1 0x40 MLOAD DUP1 SWAP2 SUB SWAP1 REVERT JUMPDEST PUSH2 0xB87 PUSH2 0x1ECA JUMP JUMPDEST SWAP1 POP PUSH32 0xFE785EF891129B084B1C5A30E4D88EB97C97822C024CC25D5F9D806B897512E0 DUP4 PUSH1 0x40 MLOAD PUSH2 0xBB8 SWAP2 SWAP1 PUSH2 0x1F73 JUMP JUMPDEST PUSH1 0x40 MLOAD DUP1 SWAP2 SUB SWAP1 LOG1 POP POP POP JUMP JUMPDEST PUSH1 0x0 PUSH1 0x1 PUSH1 0x0 DUP4 DUP2 MSTORE PUSH1 0x20 ADD SWAP1 DUP2 MSTORE PUSH1 0x20 ADD PUSH1 0x0 KECCAK256 PUSH1 0x40 MLOAD DUP1 PUSH2 0x120 ADD PUSH1 0x40 MSTORE SWAP1 DUP2 PUSH1 0x0 DUP3 ADD PUSH1 0x0 SWAP1 SLOAD SWAP1 PUSH2 0x100 EXP SWAP1 DIV PUSH20 0xFFFFFFFFFFFFFFFFFFFFFFFFFFFFFFFFFFFFFFFF AND PUSH20 0xFFFFFFFFFFFFFFFFFFFFFFFFFFFFFFFFFFFFFFFF AND PUSH20 0xFFFFFFFFFFFFFFFFFFFFFFFFFFFFFFFFFFFFFFFF AND DUP2 MSTORE PUSH1 0x20 ADD PUSH1 0x1 DUP3 ADD PUSH1 0x0 SWAP1 SLOAD SWAP1 PUSH2 0x100 EXP SWAP1 DIV PUSH20 0xFFFFFFFFFFFFFFFFFFFFFFFFFFFFFFFFFFFFFFFF AND PUSH20 0xFFFFFFFFFFFFFFFFFFFFFFFFFFFFFFFFFFFFFFFF AND PUSH20 0xFFFFFFFFFFFFFFFFFFFFFFFFFFFFFFFFFFFFFFFF AND DUP2 MSTORE PUSH1 0x20 ADD PUSH1 0x2 DUP3 ADD PUSH1 0x0 SWAP1 SLOAD SWAP1 PUSH2 0x100 EXP SWAP1 DIV PUSH20 0xFFFFFFFFFFFFFFFFFFFFFFFFFFFFFFFFFFFFFFFF AND PUSH20 0xFFFFFFFFFFFFFFFFFFFFFFFFFFFFFFFFFFFFFFFF AND PUSH20 0xFFFFFFFFFFFFFFFFFFFFFFFFFFFFFFFFFFFFFFFF AND DUP2 MSTORE PUSH1 0x20 ADD PUSH1 0x3 DUP3 ADD SLOAD DUP2 MSTORE PUSH1 0x20 ADD PUSH1 0x4 DUP3 ADD SLOAD DUP2 MSTORE PUSH1 0x20 ADD PUSH1 0x5 DUP3 ADD SLOAD DUP2 MSTORE PUSH1 0x20 ADD PUSH1 0x6 DUP3 ADD SLOAD DUP2 MSTORE PUSH1 0x20 ADD PUSH1 0x7 DUP3 ADD SLOAD DUP2 MSTORE PUSH1 0x20 ADD PUSH1 0x8 DUP3 ADD PUSH1 0x0 SWAP1 SLOAD SWAP1 PUSH2 0x100 EXP SWAP1 DIV PUSH1 0xFF AND ISZERO ISZERO ISZERO ISZERO DUP2 MSTORE POP POP SWAP1 POP PUSH2 0xD40 DUP3 PUSH2 0x1BD9 JUMP JUMPDEST PUSH2 0xD7F JUMPI PUSH1 0x40 MLOAD PUSH32 0x8C379A000000000000000000000000000000000000000000000000000000000 DUP2 MSTORE PUSH1 0x4 ADD PUSH2 0xD76 SWAP1 PUSH2 0x252E JUMP JUMPDEST PUSH1 0x40 MLOAD DUP1 SWAP2 SUB SWAP1 REVERT JUMPDEST PUSH1 0x0 PUSH1 0x2 PUSH1 0x0 DUP5 DUP2 MSTORE PUSH1 0x20 ADD SWAP1 DUP2 MSTORE PUSH1 0x20 ADD PUSH1 0x0 KECCAK256 PUSH1 0x0 DUP4 PUSH1 0xE0 ADD MLOAD DUP2 MSTORE PUSH1 0x20 ADD SWAP1 DUP2 MSTORE PUSH1 0x20 ADD PUSH1 0x0 KECCAK256 PUSH1 0x40 MLOAD DUP1 PUSH1 0x60 ADD PUSH1 0x40 MSTORE SWAP1 DUP2 PUSH1 0x0 DUP3 ADD SLOAD DUP2 MSTORE PUSH1 0x20 ADD PUSH1 0x1 DUP3 ADD SLOAD DUP2 MSTORE PUSH1 0x20 ADD PUSH1 0x2 DUP3 ADD PUSH1 0x0 SWAP1 SLOAD SWAP1 PUSH2 0x100 EXP SWAP1 DIV PUSH20 0xFFFFFFFFFFFFFFFFFFFFFFFFFFFFFFFFFFFFFFFF AND PUSH20 0xFFFFFFFFFFFFFFFFFFFFFFFFFFFFFFFFFFFFFFFF AND PUSH20 0xFFFFFFFFFFFFFFFFFFFFFFFFFFFFFFFFFFFFFFFF AND DUP2 MSTORE POP POP SWAP1 POP CALLER PUSH20 0xFFFFFFFFFFFFFFFFFFFFFFFFFFFFFFFFFFFFFFFF AND DUP2 PUSH1 0x40 ADD MLOAD PUSH20 0xFFFFFFFFFFFFFFFFFFFFFFFFFFFFFFFFFFFFFFFF AND EQ PUSH2 0xE92 JUMPI PUSH1 0x40 MLOAD PUSH32 0x8C379A000000000000000000000000000000000000000000000000000000000 DUP2 MSTORE PUSH1 0x4 ADD PUSH2 0xE89 SWAP1 PUSH2 0x259A JUMP JUMPDEST PUSH1 0x40 MLOAD DUP1 SWAP2 SUB SWAP1 REVERT JUMPDEST PUSH1 0x0 DUP3 PUSH1 0x40 ADD MLOAD SWAP1 POP DUP1 PUSH20 0xFFFFFFFFFFFFFFFFFFFFFFFFFFFFFFFFFFFFFFFF AND PUSH4 0x42842E0E ADDRESS CALLER DUP7 PUSH1 0x60 ADD MLOAD PUSH1 0x40 MLOAD DUP5 PUSH4 0xFFFFFFFF AND PUSH1 0xE0 SHL DUP2 MSTORE PUSH1 0x4 ADD PUSH2 0xEDC SWAP4 SWAP3 SWAP2 SWAP1 PUSH2 0x25BA JUMP JUMPDEST PUSH1 0x0 PUSH1 0x40 MLOAD DUP1 DUP4 SUB DUP2 PUSH1 0x0 DUP8 DUP1 EXTCODESIZE ISZERO DUP1 ISZERO PUSH2 0xEF6 JUMPI PUSH1 0x0 DUP1 REVERT JUMPDEST POP GAS CALL ISZERO DUP1 ISZERO PUSH2 0xF0A JUMPI RETURNDATASIZE PUSH1 0x0 DUP1 RETURNDATACOPY RETURNDATASIZE PUSH1 0x0 REVERT JUMPDEST POP POP POP POP POP POP POP POP JUMP JUMPDEST PUSH2 0xF1D DUP3 PUSH2 0x1BFC JUMP JUMPDEST PUSH2 0xF5C JUMPI PUSH1 0x40 MLOAD PUSH32 0x8C379A000000000000000000000000000000000000000000000000000000000 DUP2 MSTORE PUSH1 0x4 ADD PUSH2 0xF53 SWAP1 PUSH2 0x2821 JUMP JUMPDEST PUSH1 0x40 MLOAD DUP1 SWAP2 SUB SWAP1 REVERT JUMPDEST PUSH2 0xF65 DUP3 PUSH2 0x1BD9 JUMP JUMPDEST ISZERO PUSH2 0xFA5 JUMPI PUSH1 0x40 MLOAD PUSH32 0x8C379A000000000000000000000000000000000000000000000000000000000 DUP2 MSTORE PUSH1 0x4 ADD PUSH2 0xF9C SWAP1 PUSH2 0x288D JUMP JUMPDEST PUSH1 0x40 MLOAD DUP1 SWAP2 SUB SWAP1 REVERT JUMPDEST PUSH1 0x0 PUSH1 0x1 PUSH1 0x0 DUP5 DUP2 MSTORE PUSH1 0x20 ADD SWAP1 DUP2 MSTORE PUSH1 0x20 ADD PUSH1 0x0 KECCAK256 PUSH1 0x40 MLOAD DUP1 PUSH2 0x120 ADD PUSH1 0x40 MSTORE SWAP1 DUP2 PUSH1 0x0 DUP3 ADD PUSH1 0x0 SWAP1 SLOAD SWAP1 PUSH2 0x100 EXP SWAP1 DIV PUSH20 0xFFFFFFFFFFFFFFFFFFFFFFFFFFFFFFFFFFFFFFFF AND PUSH20 0xFFFFFFFFFFFFFFFFFFFFFFFFFFFFFFFFFFFFFFFF AND PUSH20 0xFFFFFFFFFFFFFFFFFFFFFFFFFFFFFFFFFFFFFFFF AND DUP2 MSTORE PUSH1 0x20 ADD PUSH1 0x1 DUP3 ADD PUSH1 0x0 SWAP1 SLOAD SWAP1 PUSH2 0x100 EXP SWAP1 DIV PUSH20 0xFFFFFFFFFFFFFFFFFFFFFFFFFFFFFFFFFFFFFFFF AND PUSH20 0xFFFFFFFFFFFFFFFFFFFFFFFFFFFFFFFFFFFFFFFF AND PUSH20 0xFFFFFFFFFFFFFFFFFFFFFFFFFFFFFFFFFFFFFFFF AND DUP2 MSTORE PUSH1 0x20 ADD PUSH1 0x2 DUP3 ADD PUSH1 0x0 SWAP1 SLOAD SWAP1 PUSH2 0x100 EXP SWAP1 DIV PUSH20 0xFFFFFFFFFFFFFFFFFFFFFFFFFFFFFFFFFFFFFFFF AND PUSH20 0xFFFFFFFFFFFFFFFFFFFFFFFFFFFFFFFFFFFFFFFF AND PUSH20 0xFFFFFFFFFFFFFFFFFFFFFFFFFFFFFFFFFFFFFFFF AND DUP2 MSTORE PUSH1 0x20 ADD PUSH1 0x3 DUP3 ADD SLOAD DUP2 MSTORE PUSH1 0x20 ADD PUSH1 0x4 DUP3 ADD SLOAD DUP2 MSTORE PUSH1 0x20 ADD PUSH1 0x5 DUP3 ADD SLOAD DUP2 MSTORE PUSH1 0x20 ADD PUSH1 0x6 DUP3 ADD SLOAD DUP2 MSTORE PUSH1 0x20 ADD PUSH1 0x7 DUP3 ADD SLOAD DUP2 MSTORE PUSH1 0x20 ADD PUSH1 0x8 DUP3 ADD PUSH1 0x0 SWAP1 SLOAD SWAP1 PUSH2 0x100 EXP SWAP1 DIV PUSH1 0xFF AND ISZERO ISZERO ISZERO ISZERO DUP2 MSTORE POP POP SWAP1 POP PUSH1 0x0 PUSH1 0x1 DUP3 PUSH1 0xE0 ADD MLOAD PUSH2 0x112A SWAP2 SWAP1 PUSH2 0x28AD JUMP JUMPDEST SWAP1 POP DUP1 DUP3 PUSH1 0xE0 ADD DUP2 DUP2 MSTORE POP POP PUSH1 0x0 PUSH2 0x1141 DUP6 PUSH2 0x1C1E JUMP JUMPDEST SWAP1 POP DUP1 DUP5 GT PUSH2 0x1185 JUMPI PUSH1 0x40 MLOAD PUSH32 0x8C379A000000000000000000000000000000000000000000000000000000000 DUP2 MSTORE PUSH1 0x4 ADD PUSH2 0x117C SWAP1 PUSH2 0x292D JUMP JUMPDEST PUSH1 0x40 MLOAD DUP1 SWAP2 SUB SWAP1 REVERT JUMPDEST DUP3 PUSH1 0x20 ADD MLOAD PUSH20 0xFFFFFFFFFFFFFFFFFFFFFFFFFFFFFFFFFFFFFFFF AND PUSH4 0x23B872DD CALLER PUSH1 0x2 PUSH1 0x0 DUP10 DUP2 MSTORE PUSH1 0x20 ADD SWAP1 DUP2 MSTORE PUSH1 0x20 ADD PUSH1 0x0 KECCAK256 PUSH1 0x0 DUP7 DUP2 MSTORE PUSH1 0x20 ADD SWAP1 DUP2 MSTORE PUSH1 0x20 ADD PUSH1 0x0 KECCAK256 PUSH1 0x2 ADD PUSH1 0x0 SWAP1 SLOAD SWAP1 PUSH2 0x100 EXP SWAP1 DIV PUSH20 0xFFFFFFFFFFFFFFFFFFFFFFFFFFFFFFFFFFFFFFFF AND DUP5 PUSH1 0x40 MLOAD DUP5 PUSH4 0xFFFFFFFF AND PUSH1 0xE0 SHL DUP2 MSTORE PUSH1 0x4 ADD PUSH2 0x120D SWAP4 SWAP3 SWAP2 SWAP1 PUSH2 0x25BA JUMP JUMPDEST PUSH1 0x20 PUSH1 0x40 MLOAD DUP1 DUP4 SUB DUP2 PUSH1 0x0 DUP8 GAS CALL ISZERO DUP1 ISZERO PUSH2 0x122C JUMPI RETURNDATASIZE PUSH1 0x0 DUP1 RETURNDATACOPY RETURNDATASIZE PUSH1 0x0 REVERT JUMPDEST POP POP POP POP PUSH1 0x40 MLOAD RETURNDATASIZE PUSH1 0x1F NOT PUSH1 0x1F DUP3 ADD AND DUP3 ADD DUP1 PUSH1 0x40 MSTORE POP DUP2 ADD SWAP1 PUSH2 0x1250 SWAP2 SWAP1 PUSH2 0x2962 JUMP JUMPDEST POP DUP3 PUSH1 0x20 ADD MLOAD PUSH20 0xFFFFFFFFFFFFFFFFFFFFFFFFFFFFFFFFFFFFFFFF AND PUSH4 0x23B872DD CALLER DUP6 PUSH1 0x0 ADD MLOAD DUP5 DUP9 PUSH2 0x1283 SWAP2 SWAP1 PUSH2 0x298F JUMP JUMPDEST PUSH1 0x40 MLOAD DUP5 PUSH4 0xFFFFFFFF AND PUSH1 0xE0 SHL DUP2 MSTORE PUSH1 0x4 ADD PUSH2 0x12A1 SWAP4 SWAP3 SWAP2 SWAP1 PUSH2 0x25BA JUMP JUMPDEST PUSH1 0x20 PUSH1 0x40 MLOAD DUP1 DUP4 SUB DUP2 PUSH1 0x0 DUP8 GAS CALL ISZERO DUP1 ISZERO PUSH2 0x12C0 JUMPI RETURNDATASIZE PUSH1 0x0 DUP1 RETURNDATACOPY RETURNDATASIZE PUSH1 0x0 REVERT JUMPDEST POP POP POP POP PUSH1 0x40 MLOAD RETURNDATASIZE PUSH1 0x1F NOT PUSH1 0x1F DUP3 ADD AND DUP3 ADD DUP1 PUSH1 0x40 MSTORE POP DUP2 ADD SWAP1 PUSH2 0x12E4 SWAP2 SWAP1 PUSH2 0x2962 JUMP JUMPDEST POP PUSH1 0x40 MLOAD DUP1 PUSH1 0x60 ADD PUSH1 0x40 MSTORE DUP1 TIMESTAMP DUP2 MSTORE PUSH1 0x20 ADD DUP6 DUP2 MSTORE PUSH1 0x20 ADD CALLER PUSH20 0xFFFFFFFFFFFFFFFFFFFFFFFFFFFFFFFFFFFFFFFF AND DUP2 MSTORE POP PUSH1 0x2 PUSH1 0x0 DUP8 DUP2 MSTORE PUSH1 0x20 ADD SWAP1 DUP2 MSTORE PUSH1 0x20 ADD PUSH1 0x0 KECCAK256 PUSH1 0x0 DUP5 DUP2 MSTORE PUSH1 0x20 ADD SWAP1 DUP2 MSTORE PUSH1 0x20 ADD PUSH1 0x0 KECCAK256 PUSH1 0x0 DUP3 ADD MLOAD DUP2 PUSH1 0x0 ADD SSTORE PUSH1 0x20 DUP3 ADD MLOAD DUP2 PUSH1 0x1 ADD SSTORE PUSH1 0x40 DUP3 ADD MLOAD DUP2 PUSH1 0x2 ADD PUSH1 0x0 PUSH2 0x100 EXP DUP2 SLOAD DUP2 PUSH20 0xFFFFFFFFFFFFFFFFFFFFFFFFFFFFFFFFFFFFFFFF MUL NOT AND SWAP1 DUP4 PUSH20 0xFFFFFFFFFFFFFFFFFFFFFFFFFFFFFFFFFFFFFFFF AND MUL OR SWAP1 SSTORE POP SWAP1 POP POP POP POP POP POP POP JUMP JUMPDEST DUP1 CALLER PUSH20 0xFFFFFFFFFFFFFFFFFFFFFFFFFFFFFFFFFFFFFFFF AND PUSH1 0x1 PUSH1 0x0 DUP4 DUP2 MSTORE PUSH1 0x20 ADD SWAP1 DUP2 MSTORE PUSH1 0x20 ADD PUSH1 0x0 KECCAK256 PUSH1 0x0 ADD PUSH1 0x0 SWAP1 SLOAD SWAP1 PUSH2 0x100 EXP SWAP1 DIV PUSH20 0xFFFFFFFFFFFFFFFFFFFFFFFFFFFFFFFFFFFFFFFF AND PUSH20 0xFFFFFFFFFFFFFFFFFFFFFFFFFFFFFFFFFFFFFFFF AND EQ PUSH2 0x1444 JUMPI PUSH1 0x40 MLOAD PUSH32 0x8C379A000000000000000000000000000000000000000000000000000000000 DUP2 MSTORE PUSH1 0x4 ADD PUSH2 0x143B SWAP1 PUSH2 0x24C2 JUMP JUMPDEST PUSH1 0x40 MLOAD DUP1 SWAP2 SUB SWAP1 REVERT JUMPDEST PUSH1 0x0 PUSH1 0x1 PUSH1 0x0 DUP5 DUP2 MSTORE PUSH1 0x20 ADD SWAP1 DUP2 MSTORE PUSH1 0x20 ADD PUSH1 0x0 KECCAK256 PUSH1 0x40 MLOAD DUP1 PUSH2 0x120 ADD PUSH1 0x40 MSTORE SWAP1 DUP2 PUSH1 0x0 DUP3 ADD PUSH1 0x0 SWAP1 SLOAD SWAP1 PUSH2 0x100 EXP SWAP1 DIV PUSH20 0xFFFFFFFFFFFFFFFFFFFFFFFFFFFFFFFFFFFFFFFF AND PUSH20 0xFFFFFFFFFFFFFFFFFFFFFFFFFFFFFFFFFFFFFFFF AND PUSH20 0xFFFFFFFFFFFFFFFFFFFFFFFFFFFFFFFFFFFFFFFF AND DUP2 MSTORE PUSH1 0x20 ADD PUSH1 0x1 DUP3 ADD PUSH1 0x0 SWAP1 SLOAD SWAP1 PUSH2 0x100 EXP SWAP1 DIV PUSH20 0xFFFFFFFFFFFFFFFFFFFFFFFFFFFFFFFFFFFFFFFF AND PUSH20 0xFFFFFFFFFFFFFFFFFFFFFFFFFFFFFFFFFFFFFFFF AND PUSH20 0xFFFFFFFFFFFFFFFFFFFFFFFFFFFFFFFFFFFFFFFF AND DUP2 MSTORE PUSH1 0x20 ADD PUSH1 0x2 DUP3 ADD PUSH1 0x0 SWAP1 SLOAD SWAP1 PUSH2 0x100 EXP SWAP1 DIV PUSH20 0xFFFFFFFFFFFFFFFFFFFFFFFFFFFFFFFFFFFFFFFF AND PUSH20 0xFFFFFFFFFFFFFFFFFFFFFFFFFFFFFFFFFFFFFFFF AND PUSH20 0xFFFFFFFFFFFFFFFFFFFFFFFFFFFFFFFFFFFFFFFF AND DUP2 MSTORE PUSH1 0x20 ADD PUSH1 0x3 DUP3 ADD SLOAD DUP2 MSTORE PUSH1 0x20 ADD PUSH1 0x4 DUP3 ADD SLOAD DUP2 MSTORE PUSH1 0x20 ADD PUSH1 0x5 DUP3 ADD SLOAD DUP2 MSTORE PUSH1 0x20 ADD PUSH1 0x6 DUP3 ADD SLOAD DUP2 MSTORE PUSH1 0x20 ADD PUSH1 0x7 DUP3 ADD SLOAD DUP2 MSTORE PUSH1 0x20 ADD PUSH1 0x8 DUP3 ADD PUSH1 0x0 SWAP1 SLOAD SWAP1 PUSH2 0x100 EXP SWAP1 DIV PUSH1 0xFF AND ISZERO ISZERO ISZERO ISZERO DUP2 MSTORE POP POP SWAP1 POP PUSH1 0x0 PUSH1 0x2 PUSH1 0x0 DUP6 DUP2 MSTORE PUSH1 0x20 ADD SWAP1 DUP2 MSTORE PUSH1 0x20 ADD PUSH1 0x0 KECCAK256 PUSH1 0x0 DUP4 PUSH1 0xE0 ADD MLOAD DUP2 MSTORE PUSH1 0x20 ADD SWAP1 DUP2 MSTORE PUSH1 0x20 ADD PUSH1 0x0 KECCAK256 PUSH1 0x40 MLOAD DUP1 PUSH1 0x60 ADD PUSH1 0x40 MSTORE SWAP1 DUP2 PUSH1 0x0 DUP3 ADD SLOAD DUP2 MSTORE PUSH1 0x20 ADD PUSH1 0x1 DUP3 ADD SLOAD DUP2 MSTORE PUSH1 0x20 ADD PUSH1 0x2 DUP3 ADD PUSH1 0x0 SWAP1 SLOAD SWAP1 PUSH2 0x100 EXP SWAP1 DIV PUSH20 0xFFFFFFFFFFFFFFFFFFFFFFFFFFFFFFFFFFFFFFFF AND PUSH20 0xFFFFFFFFFFFFFFFFFFFFFFFFFFFFFFFFFFFFFFFF AND PUSH20 0xFFFFFFFFFFFFFFFFFFFFFFFFFFFFFFFFFFFFFFFF AND DUP2 MSTORE POP POP SWAP1 POP DUP2 PUSH1 0x20 ADD MLOAD PUSH20 0xFFFFFFFFFFFFFFFFFFFFFFFFFFFFFFFFFFFFFFFF AND PUSH4 0x23B872DD CALLER DUP4 PUSH1 0x40 ADD MLOAD PUSH2 0x1686 DUP9 PUSH2 0x1C1E JUMP JUMPDEST PUSH1 0x40 MLOAD DUP5 PUSH4 0xFFFFFFFF AND PUSH1 0xE0 SHL DUP2 MSTORE PUSH1 0x4 ADD PUSH2 0x16A4 SWAP4 SWAP3 SWAP2 SWAP1 PUSH2 0x25BA JUMP JUMPDEST PUSH1 0x20 PUSH1 0x40 MLOAD DUP1 DUP4 SUB DUP2 PUSH1 0x0 DUP8 GAS CALL ISZERO DUP1 ISZERO PUSH2 0x16C3 JUMPI RETURNDATASIZE PUSH1 0x0 DUP1 RETURNDATACOPY RETURNDATASIZE PUSH1 0x0 REVERT JUMPDEST POP POP POP POP PUSH1 0x40 MLOAD RETURNDATASIZE PUSH1 0x1F NOT PUSH1 0x1F DUP3 ADD AND DUP3 ADD DUP1 PUSH1 0x40 MSTORE POP DUP2 ADD SWAP1 PUSH2 0x16E7 SWAP2 SWAP1 PUSH2 0x2962 JUMP JUMPDEST POP PUSH1 0x0 DUP3 PUSH1 0x40 ADD MLOAD SWAP1 POP DUP1 PUSH20 0xFFFFFFFFFFFFFFFFFFFFFFFFFFFFFFFFFFFFFFFF AND PUSH4 0x42842E0E ADDRESS CALLER DUP7 PUSH1 0x60 ADD MLOAD PUSH1 0x40 MLOAD DUP5 PUSH4 0xFFFFFFFF AND PUSH1 0xE0 SHL DUP2 MSTORE PUSH1 0x4 ADD PUSH2 0x1732 SWAP4 SWAP3 SWAP2 SWAP1 PUSH2 0x25BA JUMP JUMPDEST PUSH1 0x0 PUSH1 0x40 MLOAD DUP1 DUP4 SUB DUP2 PUSH1 0x0 DUP8 DUP1 EXTCODESIZE ISZERO DUP1 ISZERO PUSH2 0x174C JUMPI PUSH1 0x0 DUP1 REVERT JUMPDEST POP GAS CALL ISZERO DUP1 ISZERO PUSH2 0x1760 JUMPI RETURNDATASIZE PUSH1 0x0 DUP1 RETURNDATACOPY RETURNDATASIZE PUSH1 0x0 REVERT JUMPDEST POP POP POP POP POP POP POP POP POP JUMP JUMPDEST PUSH1 0x2 PUSH1 0x20 MSTORE DUP2 PUSH1 0x0 MSTORE PUSH1 0x40 PUSH1 0x0 KECCAK256 PUSH1 0x20 MSTORE DUP1 PUSH1 0x0 MSTORE PUSH1 0x40 PUSH1 0x0 KECCAK256 PUSH1 0x0 SWAP2 POP SWAP2 POP POP DUP1 PUSH1 0x0 ADD SLOAD SWAP1 DUP1 PUSH1 0x1 ADD SLOAD SWAP1 DUP1 PUSH1 0x2 ADD PUSH1 0x0 SWAP1 SLOAD SWAP1 PUSH2 0x100 EXP SWAP1 DIV PUSH20 0xFFFFFFFFFFFFFFFFFFFFFFFFFFFFFFFFFFFFFFFF AND SWAP1 POP DUP4 JUMP JUMPDEST POP POP JUMP JUMPDEST PUSH2 0x17CF DUP3 PUSH2 0x1BFC JUMP JUMPDEST PUSH2 0x180E JUMPI PUSH1 0x40 MLOAD PUSH32 0x8C379A000000000000000000000000000000000000000000000000000000000 DUP2 MSTORE PUSH1 0x4 ADD PUSH2 0x1805 SWAP1 PUSH2 0x2821 JUMP JUMPDEST PUSH1 0x40 MLOAD DUP1 SWAP2 SUB SWAP1 REVERT JUMPDEST PUSH2 0x1817 DUP3 PUSH2 0x1BD9 JUMP JUMPDEST ISZERO PUSH2 0x1857 JUMPI PUSH1 0x40 MLOAD PUSH32 0x8C379A000000000000000000000000000000000000000000000000000000000 DUP2 MSTORE PUSH1 0x4 ADD PUSH2 0x184E SWAP1 PUSH2 0x288D JUMP JUMPDEST PUSH1 0x40 MLOAD DUP1 SWAP2 SUB SWAP1 REVERT JUMPDEST PUSH1 0x0 PUSH1 0x1 PUSH1 0x0 DUP5 DUP2 MSTORE PUSH1 0x20 ADD SWAP1 DUP2 MSTORE PUSH1 0x20 ADD PUSH1 0x0 KECCAK256 PUSH1 0x40 MLOAD DUP1 PUSH2 0x120 ADD PUSH1 0x40 MSTORE SWAP1 DUP2 PUSH1 0x0 DUP3 ADD PUSH1 0x0 SWAP1 SLOAD SWAP1 PUSH2 0x100 EXP SWAP1 DIV PUSH20 0xFFFFFFFFFFFFFFFFFFFFFFFFFFFFFFFFFFFFFFFF AND PUSH20 0xFFFFFFFFFFFFFFFFFFFFFFFFFFFFFFFFFFFFFFFF AND PUSH20 0xFFFFFFFFFFFFFFFFFFFFFFFFFFFFFFFFFFFFFFFF AND DUP2 MSTORE PUSH1 0x20 ADD PUSH1 0x1 DUP3 ADD PUSH1 0x0 SWAP1 SLOAD SWAP1 PUSH2 0x100 EXP SWAP1 DIV PUSH20 0xFFFFFFFFFFFFFFFFFFFFFFFFFFFFFFFFFFFFFFFF AND PUSH20 0xFFFFFFFFFFFFFFFFFFFFFFFFFFFFFFFFFFFFFFFF AND PUSH20 0xFFFFFFFFFFFFFFFFFFFFFFFFFFFFFFFFFFFFFFFF AND DUP2 MSTORE PUSH1 0x20 ADD PUSH1 0x2 DUP3 ADD PUSH1 0x0 SWAP1 SLOAD SWAP1 PUSH2 0x100 EXP SWAP1 DIV PUSH20 0xFFFFFFFFFFFFFFFFFFFFFFFFFFFFFFFFFFFFFFFF AND PUSH20 0xFFFFFFFFFFFFFFFFFFFFFFFFFFFFFFFFFFFFFFFF AND PUSH20 0xFFFFFFFFFFFFFFFFFFFFFFFFFFFFFFFFFFFFFFFF AND DUP2 MSTORE PUSH1 0x20 ADD PUSH1 0x3 DUP3 ADD SLOAD DUP2 MSTORE PUSH1 0x20 ADD PUSH1 0x4 DUP3 ADD SLOAD DUP2 MSTORE PUSH1 0x20 ADD PUSH1 0x5 DUP3 ADD SLOAD DUP2 MSTORE PUSH1 0x20 ADD PUSH1 0x6 DUP3 ADD SLOAD DUP2 MSTORE PUSH1 0x20 ADD PUSH1 0x7 DUP3 ADD SLOAD DUP2 MSTORE PUSH1 0x20 ADD PUSH1 0x8 DUP3 ADD PUSH1 0x0 SWAP1 SLOAD SWAP1 PUSH2 0x100 EXP SWAP1 DIV PUSH1 0xFF AND ISZERO ISZERO ISZERO ISZERO DUP2 MSTORE POP POP SWAP1 POP PUSH1 0x0 PUSH1 0x2 PUSH1 0x0 DUP6 DUP2 MSTORE PUSH1 0x20 ADD SWAP1 DUP2 MSTORE PUSH1 0x20 ADD PUSH1 0x0 KECCAK256 PUSH1 0x0 DUP4 PUSH1 0xE0 ADD MLOAD DUP2 MSTORE PUSH1 0x20 ADD SWAP1 DUP2 MSTORE PUSH1 0x20 ADD PUSH1 0x0 KECCAK256 SWAP1 POP CALLER PUSH20 0xFFFFFFFFFFFFFFFFFFFFFFFFFFFFFFFFFFFFFFFF AND DUP2 PUSH1 0x2 ADD PUSH1 0x0 SWAP1 SLOAD SWAP1 PUSH2 0x100 EXP SWAP1 DIV PUSH20 0xFFFFFFFFFFFFFFFFFFFFFFFFFFFFFFFFFFFFFFFF AND PUSH20 0xFFFFFFFFFFFFFFFFFFFFFFFFFFFFFFFFFFFFFFFF AND EQ PUSH2 0x1A87 JUMPI PUSH1 0x40 MLOAD PUSH32 0x8C379A000000000000000000000000000000000000000000000000000000000 DUP2 MSTORE PUSH1 0x4 ADD PUSH2 0x1A7E SWAP1 PUSH2 0x2A0F JUMP JUMPDEST PUSH1 0x40 MLOAD DUP1 SWAP2 SUB SWAP1 REVERT JUMPDEST DUP3 DUP2 PUSH1 0x2 ADD PUSH1 0x0 PUSH2 0x100 EXP DUP2 SLOAD DUP2 PUSH20 0xFFFFFFFFFFFFFFFFFFFFFFFFFFFFFFFFFFFFFFFF MUL NOT AND SWAP1 DUP4 PUSH20 0xFFFFFFFFFFFFFFFFFFFFFFFFFFFFFFFFFFFFFFFF AND MUL OR SWAP1 SSTORE POP POP POP POP POP JUMP JUMPDEST PUSH1 0x3 PUSH1 0x20 MSTORE DUP2 PUSH1 0x0 MSTORE PUSH1 0x40 PUSH1 0x0 KECCAK256 DUP2 DUP2 SLOAD DUP2 LT PUSH2 0x1AEC JUMPI PUSH1 0x0 DUP1 REVERT JUMPDEST SWAP1 PUSH1 0x0 MSTORE PUSH1 0x20 PUSH1 0x0 KECCAK256 ADD PUSH1 0x0 SWAP2 POP SWAP2 POP SWAP1 SLOAD SWAP1 PUSH2 0x100 EXP SWAP1 DIV PUSH20 0xFFFFFFFFFFFFFFFFFFFFFFFFFFFFFFFFFFFFFFFF AND DUP2 JUMP JUMPDEST PUSH1 0x1 PUSH1 0x20 MSTORE DUP1 PUSH1 0x0 MSTORE PUSH1 0x40 PUSH1 0x0 KECCAK256 PUSH1 0x0 SWAP2 POP SWAP1 POP DUP1 PUSH1 0x0 ADD PUSH1 0x0 SWAP1 SLOAD SWAP1 PUSH2 0x100 EXP SWAP1 DIV PUSH20 0xFFFFFFFFFFFFFFFFFFFFFFFFFFFFFFFFFFFFFFFF AND SWAP1 DUP1 PUSH1 0x1 ADD PUSH1 0x0 SWAP1 SLOAD SWAP1 PUSH2 0x100 EXP SWAP1 DIV PUSH20 0xFFFFFFFFFFFFFFFFFFFFFFFFFFFFFFFFFFFFFFFF AND SWAP1 DUP1 PUSH1 0x2 ADD PUSH1 0x0 SWAP1 SLOAD SWAP1 PUSH2 0x100 EXP SWAP1 DIV PUSH20 0xFFFFFFFFFFFFFFFFFFFFFFFFFFFFFFFFFFFFFFFF AND SWAP1 DUP1 PUSH1 0x3 ADD SLOAD SWAP1 DUP1 PUSH1 0x4 ADD SLOAD SWAP1 DUP1 PUSH1 0x5 ADD SLOAD SWAP1 DUP1 PUSH1 0x6 ADD SLOAD SWAP1 DUP1 PUSH1 0x7 ADD SLOAD SWAP1 DUP1 PUSH1 0x8 ADD PUSH1 0x0 SWAP1 SLOAD SWAP1 PUSH2 0x100 EXP SWAP1 DIV PUSH1 0xFF AND SWAP1 POP DUP10 JUMP JUMPDEST PUSH1 0x0 TIMESTAMP PUSH1 0x1 PUSH1 0x0 DUP5 DUP2 MSTORE PUSH1 0x20 ADD SWAP1 DUP2 MSTORE PUSH1 0x20 ADD PUSH1 0x0 KECCAK256 PUSH1 0x5 ADD SLOAD GT ISZERO SWAP1 POP SWAP2 SWAP1 POP JUMP JUMPDEST PUSH1 0x0 TIMESTAMP PUSH1 0x1 PUSH1 0x0 DUP5 DUP2 MSTORE PUSH1 0x20 ADD SWAP1 DUP2 MSTORE PUSH1 0x20 ADD PUSH1 0x0 KECCAK256 PUSH1 0x4 ADD SLOAD LT SWAP1 POP SWAP2 SWAP1 POP JUMP JUMPDEST PUSH1 0x0 DUP1 PUSH1 0x1 PUSH1 0x0 DUP5 DUP2 MSTORE PUSH1 0x20 ADD SWAP1 DUP2 MSTORE PUSH1 0x20 ADD PUSH1 0x0 KECCAK256 PUSH1 0x40 MLOAD DUP1 PUSH2 0x120 ADD PUSH1 0x40 MSTORE SWAP1 DUP2 PUSH1 0x0 DUP3 ADD PUSH1 0x0 SWAP1 SLOAD SWAP1 PUSH2 0x100 EXP SWAP1 DIV PUSH20 0xFFFFFFFFFFFFFFFFFFFFFFFFFFFFFFFFFFFFFFFF AND PUSH20 0xFFFFFFFFFFFFFFFFFFFFFFFFFFFFFFFFFFFFFFFF AND PUSH20 0xFFFFFFFFFFFFFFFFFFFFFFFFFFFFFFFFFFFFFFFF AND DUP2 MSTORE PUSH1 0x20 ADD PUSH1 0x1 DUP3 ADD PUSH1 0x0 SWAP1 SLOAD SWAP1 PUSH2 0x100 EXP SWAP1 DIV PUSH20 0xFFFFFFFFFFFFFFFFFFFFFFFFFFFFFFFFFFFFFFFF AND PUSH20 0xFFFFFFFFFFFFFFFFFFFFFFFFFFFFFFFFFFFFFFFF AND PUSH20 0xFFFFFFFFFFFFFFFFFFFFFFFFFFFFFFFFFFFFFFFF AND DUP2 MSTORE PUSH1 0x20 ADD PUSH1 0x2 DUP3 ADD PUSH1 0x0 SWAP1 SLOAD SWAP1 PUSH2 0x100 EXP SWAP1 DIV PUSH20 0xFFFFFFFFFFFFFFFFFFFFFFFFFFFFFFFFFFFFFFFF AND PUSH20 0xFFFFFFFFFFFFFFFFFFFFFFFFFFFFFFFFFFFFFFFF AND PUSH20 0xFFFFFFFFFFFFFFFFFFFFFFFFFFFFFFFFFFFFFFFF AND DUP2 MSTORE PUSH1 0x20 ADD PUSH1 0x3 DUP3 ADD SLOAD DUP2 MSTORE PUSH1 0x20 ADD PUSH1 0x4 DUP3 ADD SLOAD DUP2 MSTORE PUSH1 0x20 ADD PUSH1 0x5 DUP3 ADD SLOAD DUP2 MSTORE PUSH1 0x20 ADD PUSH1 0x6 DUP3 ADD SLOAD DUP2 MSTORE PUSH1 0x20 ADD PUSH1 0x7 DUP3 ADD SLOAD DUP2 MSTORE PUSH1 0x20 ADD PUSH1 0x8 DUP3 ADD PUSH1 0x0 SWAP1 SLOAD SWAP1 PUSH2 0x100 EXP SWAP1 DIV PUSH1 0xFF AND ISZERO ISZERO ISZERO ISZERO DUP2 MSTORE POP POP SWAP1 POP PUSH1 0x0 PUSH1 0x2 PUSH1 0x0 DUP6 DUP2 MSTORE PUSH1 0x20 ADD SWAP1 DUP2 MSTORE PUSH1 0x20 ADD PUSH1 0x0 KECCAK256 PUSH1 0x0 DUP4 PUSH1 0xE0 ADD MLOAD DUP2 MSTORE PUSH1 0x20 ADD SWAP1 DUP2 MSTORE PUSH1 0x20 ADD PUSH1 0x0 KECCAK256 PUSH1 0x40 MLOAD DUP1 PUSH1 0x60 ADD PUSH1 0x40 MSTORE SWAP1 DUP2 PUSH1 0x0 DUP3 ADD SLOAD DUP2 MSTORE PUSH1 0x20 ADD PUSH1 0x1 DUP3 ADD SLOAD DUP2 MSTORE PUSH1 0x20 ADD PUSH1 0x2 DUP3 ADD PUSH1 0x0 SWAP1 SLOAD SWAP1 PUSH2 0x100 EXP SWAP1 DIV PUSH20 0xFFFFFFFFFFFFFFFFFFFFFFFFFFFFFFFFFFFFFFFF AND PUSH20 0xFFFFFFFFFFFFFFFFFFFFFFFFFFFFFFFFFFFFFFFF AND PUSH20 0xFFFFFFFFFFFFFFFFFFFFFFFFFFFFFFFFFFFFFFFF AND DUP2 MSTORE POP POP SWAP1 POP PUSH1 0x0 PUSH2 0x1E3D DUP6 PUSH2 0x1BD9 JUMP JUMPDEST ISZERO PUSH2 0x1E5D JUMPI DUP3 PUSH1 0xA0 ADD MLOAD DUP3 PUSH1 0x0 ADD MLOAD PUSH2 0x1E56 SWAP2 SWAP1 PUSH2 0x298F JUMP JUMPDEST SWAP1 POP PUSH2 0x1E70 JUMP JUMPDEST TIMESTAMP DUP3 PUSH1 0x0 ADD MLOAD PUSH2 0x1E6D SWAP2 SWAP1 PUSH2 0x298F JUMP JUMPDEST SWAP1 POP JUMPDEST PUSH4 0x1E13380 DUP2 PUSH8 0xDE0B6B3A7640000 DUP6 PUSH1 0xC0 ADD MLOAD DUP6 PUSH1 0x20 ADD MLOAD PUSH2 0x1E93 SWAP2 SWAP1 PUSH2 0x2A2F JUMP JUMPDEST PUSH2 0x1E9D SWAP2 SWAP1 PUSH2 0x2AB8 JUMP JUMPDEST PUSH2 0x1EA7 SWAP2 SWAP1 PUSH2 0x2A2F JUMP JUMPDEST PUSH2 0x1EB1 SWAP2 SWAP1 PUSH2 0x2AB8 JUMP JUMPDEST DUP3 PUSH1 0x20 ADD MLOAD PUSH2 0x1EC0 SWAP2 SWAP1 PUSH2 0x28AD JUMP JUMPDEST SWAP4 POP POP POP POP SWAP2 SWAP1 POP JUMP JUMPDEST PUSH1 0x40 MLOAD DUP1 PUSH2 0x120 ADD PUSH1 0x40 MSTORE DUP1 PUSH1 0x0 PUSH20 0xFFFFFFFFFFFFFFFFFFFFFFFFFFFFFFFFFFFFFFFF AND DUP2 MSTORE PUSH1 0x20 ADD PUSH1 0x0 PUSH20 0xFFFFFFFFFFFFFFFFFFFFFFFFFFFFFFFFFFFFFFFF AND DUP2 MSTORE PUSH1 0x20 ADD PUSH1 0x0 PUSH20 0xFFFFFFFFFFFFFFFFFFFFFFFFFFFFFFFFFFFFFFFF AND DUP2 MSTORE PUSH1 0x20 ADD PUSH1 0x0 DUP2 MSTORE PUSH1 0x20 ADD PUSH1 0x0 DUP2 MSTORE PUSH1 0x20 ADD PUSH1 0x0 DUP2 MSTORE PUSH1 0x20 ADD PUSH1 0x0 DUP2 MSTORE PUSH1 0x20 ADD PUSH1 0x0 DUP2 MSTORE PUSH1 0x20 ADD PUSH1 0x0 ISZERO ISZERO DUP2 MSTORE POP SWAP1 JUMP JUMPDEST PUSH1 0x0 DUP2 SWAP1 POP SWAP2 SWAP1 POP JUMP JUMPDEST PUSH2 0x1F6D DUP2 PUSH2 0x1F5A JUMP JUMPDEST DUP3 MSTORE POP POP JUMP JUMPDEST PUSH1 0x0 PUSH1 0x20 DUP3 ADD SWAP1 POP PUSH2 0x1F88 PUSH1 0x0 DUP4 ADD DUP5 PUSH2 0x1F64 JUMP JUMPDEST SWAP3 SWAP2 POP POP JUMP JUMPDEST PUSH1 0x0 PUSH1 0x40 MLOAD SWAP1 POP SWAP1 JUMP JUMPDEST PUSH1 0x0 DUP1 REVERT JUMPDEST PUSH1 0x0 DUP1 REVERT JUMPDEST PUSH2 0x1FAB DUP2 PUSH2 0x1F5A JUMP JUMPDEST DUP2 EQ PUSH2 0x1FB6 JUMPI PUSH1 0x0 DUP1 REVERT JUMPDEST POP JUMP JUMPDEST PUSH1 0x0 DUP2 CALLDATALOAD SWAP1 POP PUSH2 0x1FC8 DUP2 PUSH2 0x1FA2 JUMP JUMPDEST SWAP3 SWAP2 POP POP JUMP JUMPDEST PUSH1 0x0 PUSH1 0x20 DUP3 DUP5 SUB SLT ISZERO PUSH2 0x1FE4 JUMPI PUSH2 0x1FE3 PUSH2 0x1F98 JUMP JUMPDEST JUMPDEST PUSH1 0x0 PUSH2 0x1FF2 DUP5 DUP3 DUP6 ADD PUSH2 0x1FB9 JUMP JUMPDEST SWAP2 POP POP SWAP3 SWAP2 POP POP JUMP JUMPDEST PUSH1 0x0 PUSH20 0xFFFFFFFFFFFFFFFFFFFFFFFFFFFFFFFFFFFFFFFF DUP3 AND SWAP1 POP SWAP2 SWAP1 POP JUMP JUMPDEST PUSH1 0x0 PUSH2 0x2026 DUP3 PUSH2 0x1FFB JUMP JUMPDEST SWAP1 POP SWAP2 SWAP1 POP JUMP JUMPDEST PUSH2 0x2036 DUP2 PUSH2 0x201B JUMP JUMPDEST DUP2 EQ PUSH2 0x2041 JUMPI PUSH1 0x0 DUP1 REVERT JUMPDEST POP JUMP JUMPDEST PUSH1 0x0 DUP2 CALLDATALOAD SWAP1 POP PUSH2 0x2053 DUP2 PUSH2 0x202D JUMP JUMPDEST SWAP3 SWAP2 POP POP JUMP JUMPDEST PUSH1 0x0 DUP2 ISZERO ISZERO SWAP1 POP SWAP2 SWAP1 POP JUMP JUMPDEST PUSH2 0x206E DUP2 PUSH2 0x2059 JUMP JUMPDEST DUP2 EQ PUSH2 0x2079 JUMPI PUSH1 0x0 DUP1 REVERT JUMPDEST POP JUMP JUMPDEST PUSH1 0x0 DUP2 CALLDATALOAD SWAP1 POP PUSH2 0x208B DUP2 PUSH2 0x2065 JUMP JUMPDEST SWAP3 SWAP2 POP POP JUMP JUMPDEST PUSH1 0x0 DUP1 PUSH1 0x0 DUP1 PUSH1 0x0 DUP1 PUSH1 0x0 PUSH1 0xE0 DUP9 DUP11 SUB SLT ISZERO PUSH2 0x20B0 JUMPI PUSH2 0x20AF PUSH2 0x1F98 JUMP JUMPDEST JUMPDEST PUSH1 0x0 PUSH2 0x20BE DUP11 DUP3 DUP12 ADD PUSH2 0x2044 JUMP JUMPDEST SWAP8 POP POP PUSH1 0x20 PUSH2 0x20CF DUP11 DUP3 DUP12 ADD PUSH2 0x2044 JUMP JUMPDEST SWAP7 POP POP PUSH1 0x40 PUSH2 0x20E0 DUP11 DUP3 DUP12 ADD PUSH2 0x1FB9 JUMP JUMPDEST SWAP6 POP POP PUSH1 0x60 PUSH2 0x20F1 DUP11 DUP3 DUP12 ADD PUSH2 0x1FB9 JUMP JUMPDEST SWAP5 POP POP PUSH1 0x80 PUSH2 0x2102 DUP11 DUP3 DUP12 ADD PUSH2 0x1FB9 JUMP JUMPDEST SWAP4 POP POP PUSH1 0xA0 PUSH2 0x2113 DUP11 DUP3 DUP12 ADD PUSH2 0x1FB9 JUMP JUMPDEST SWAP3 POP POP PUSH1 0xC0 PUSH2 0x2124 DUP11 DUP3 DUP12 ADD PUSH2 0x207C JUMP JUMPDEST SWAP2 POP POP SWAP3 SWAP6 SWAP9 SWAP2 SWAP5 SWAP8 POP SWAP3 SWAP6 POP JUMP JUMPDEST PUSH1 0x0 DUP1 PUSH1 0x40 DUP4 DUP6 SUB SLT ISZERO PUSH2 0x214A JUMPI PUSH2 0x2149 PUSH2 0x1F98 JUMP JUMPDEST JUMPDEST PUSH1 0x0 PUSH2 0x2158 DUP6 DUP3 DUP7 ADD PUSH2 0x1FB9 JUMP JUMPDEST SWAP3 POP POP PUSH1 0x20 PUSH2 0x2169 DUP6 DUP3 DUP7 ADD PUSH2 0x1FB9 JUMP JUMPDEST SWAP2 POP POP SWAP3 POP SWAP3 SWAP1 POP JUMP JUMPDEST PUSH2 0x217C DUP2 PUSH2 0x201B JUMP JUMPDEST DUP3 MSTORE POP POP JUMP JUMPDEST PUSH1 0x0 PUSH1 0x60 DUP3 ADD SWAP1 POP PUSH2 0x2197 PUSH1 0x0 DUP4 ADD DUP7 PUSH2 0x1F64 JUMP JUMPDEST PUSH2 0x21A4 PUSH1 0x20 DUP4 ADD DUP6 PUSH2 0x1F64 JUMP JUMPDEST PUSH2 0x21B1 PUSH1 0x40 DUP4 ADD DUP5 PUSH2 0x2173 JUMP JUMPDEST SWAP5 SWAP4 POP POP POP POP JUMP JUMPDEST PUSH1 0x0 DUP1 REVERT JUMPDEST PUSH1 0x0 PUSH1 0x1F NOT PUSH1 0x1F DUP4 ADD AND SWAP1 POP SWAP2 SWAP1 POP JUMP JUMPDEST PUSH32 0x4E487B7100000000000000000000000000000000000000000000000000000000 PUSH1 0x0 MSTORE PUSH1 0x41 PUSH1 0x4 MSTORE PUSH1 0x24 PUSH1 0x0 REVERT JUMPDEST PUSH2 0x2207 DUP3 PUSH2 0x21BE JUMP JUMPDEST DUP2 ADD DUP2 DUP2 LT PUSH8 0xFFFFFFFFFFFFFFFF DUP3 GT OR ISZERO PUSH2 0x2226 JUMPI PUSH2 0x2225 PUSH2 0x21CF JUMP JUMPDEST JUMPDEST DUP1 PUSH1 0x40 MSTORE POP POP POP JUMP JUMPDEST PUSH1 0x0 PUSH2 0x2239 PUSH2 0x1F8E JUMP JUMPDEST SWAP1 POP PUSH2 0x2245 DUP3 DUP3 PUSH2 0x21FE JUMP JUMPDEST SWAP2 SWAP1 POP JUMP JUMPDEST PUSH1 0x0 PUSH8 0xFFFFFFFFFFFFFFFF DUP3 GT ISZERO PUSH2 0x2265 JUMPI PUSH2 0x2264 PUSH2 0x21CF JUMP JUMPDEST JUMPDEST PUSH1 0x20 DUP3 MUL SWAP1 POP PUSH1 0x20 DUP2 ADD SWAP1 POP SWAP2 SWAP1 POP JUMP JUMPDEST PUSH1 0x0 DUP1 REVERT JUMPDEST PUSH1 0x0 PUSH2 0x228E PUSH2 0x2289 DUP5 PUSH2 0x224A JUMP JUMPDEST PUSH2 0x222F JUMP JUMPDEST SWAP1 POP DUP1 DUP4 DUP3 MSTORE PUSH1 0x20 DUP3 ADD SWAP1 POP PUSH1 0x20 DUP5 MUL DUP4 ADD DUP6 DUP2 GT ISZERO PUSH2 0x22B1 JUMPI PUSH2 0x22B0 PUSH2 0x2276 JUMP JUMPDEST JUMPDEST DUP4 JUMPDEST DUP2 DUP2 LT ISZERO PUSH2 0x22DA JUMPI DUP1 PUSH2 0x22C6 DUP9 DUP3 PUSH2 0x2044 JUMP JUMPDEST DUP5 MSTORE PUSH1 0x20 DUP5 ADD SWAP4 POP POP PUSH1 0x20 DUP2 ADD SWAP1 POP PUSH2 0x22B3 JUMP JUMPDEST POP POP POP SWAP4 SWAP3 POP POP POP JUMP JUMPDEST PUSH1 0x0 DUP3 PUSH1 0x1F DUP4 ADD SLT PUSH2 0x22F9 JUMPI PUSH2 0x22F8 PUSH2 0x21B9 JUMP JUMPDEST JUMPDEST DUP2 CALLDATALOAD PUSH2 0x2309 DUP5 DUP3 PUSH1 0x20 DUP7 ADD PUSH2 0x227B JUMP JUMPDEST SWAP2 POP POP SWAP3 SWAP2 POP POP JUMP JUMPDEST PUSH1 0x0 DUP1 PUSH1 0x40 DUP4 DUP6 SUB SLT ISZERO PUSH2 0x2329 JUMPI PUSH2 0x2328 PUSH2 0x1F98 JUMP JUMPDEST JUMPDEST PUSH1 0x0 PUSH2 0x2337 DUP6 DUP3 DUP7 ADD PUSH2 0x1FB9 JUMP JUMPDEST SWAP3 POP POP PUSH1 0x20 DUP4 ADD CALLDATALOAD PUSH8 0xFFFFFFFFFFFFFFFF DUP2 GT ISZERO PUSH2 0x2358 JUMPI PUSH2 0x2357 PUSH2 0x1F9D JUMP JUMPDEST JUMPDEST PUSH2 0x2364 DUP6 DUP3 DUP7 ADD PUSH2 0x22E4 JUMP JUMPDEST SWAP2 POP POP SWAP3 POP SWAP3 SWAP1 POP JUMP JUMPDEST PUSH1 0x0 DUP1 PUSH1 0x40 DUP4 DUP6 SUB SLT ISZERO PUSH2 0x2385 JUMPI PUSH2 0x2384 PUSH2 0x1F98 JUMP JUMPDEST JUMPDEST PUSH1 0x0 PUSH2 0x2393 DUP6 DUP3 DUP7 ADD PUSH2 0x1FB9 JUMP JUMPDEST SWAP3 POP POP PUSH1 0x20 PUSH2 0x23A4 DUP6 DUP3 DUP7 ADD PUSH2 0x2044 JUMP JUMPDEST SWAP2 POP POP SWAP3 POP SWAP3 SWAP1 POP JUMP JUMPDEST PUSH1 0x0 PUSH1 0x20 DUP3 ADD SWAP1 POP PUSH2 0x23C3 PUSH1 0x0 DUP4 ADD DUP5 PUSH2 0x2173 JUMP JUMPDEST SWAP3 SWAP2 POP POP JUMP JUMPDEST PUSH2 0x23D2 DUP2 PUSH2 0x2059 JUMP JUMPDEST DUP3 MSTORE POP POP JUMP JUMPDEST PUSH1 0x0 PUSH2 0x120 DUP3 ADD SWAP1 POP PUSH2 0x23EE PUSH1 0x0 DUP4 ADD DUP13 PUSH2 0x2173 JUMP JUMPDEST PUSH2 0x23FB PUSH1 0x20 DUP4 ADD DUP12 PUSH2 0x2173 JUMP JUMPDEST PUSH2 0x2408 PUSH1 0x40 DUP4 ADD DUP11 PUSH2 0x2173 JUMP JUMPDEST PUSH2 0x2415 PUSH1 0x60 DUP4 ADD DUP10 PUSH2 0x1F64 JUMP JUMPDEST PUSH2 0x2422 PUSH1 0x80 DUP4 ADD DUP9 PUSH2 0x1F64 JUMP JUMPDEST PUSH2 0x242F PUSH1 0xA0 DUP4 ADD DUP8 PUSH2 0x1F64 JUMP JUMPDEST PUSH2 0x243C PUSH1 0xC0 DUP4 ADD DUP7 PUSH2 0x1F64 JUMP JUMPDEST PUSH2 0x2449 PUSH1 0xE0 DUP4 ADD DUP6 PUSH2 0x1F64 JUMP JUMPDEST PUSH2 0x2457 PUSH2 0x100 DUP4 ADD DUP5 PUSH2 0x23C9 JUMP JUMPDEST SWAP11 SWAP10 POP POP POP POP POP POP POP POP POP POP JUMP JUMPDEST PUSH1 0x0 DUP3 DUP3 MSTORE PUSH1 0x20 DUP3 ADD SWAP1 POP SWAP3 SWAP2 POP POP JUMP JUMPDEST PUSH32 0x4C414E3A206E6F74206F776E6572000000000000000000000000000000000000 PUSH1 0x0 DUP3 ADD MSTORE POP JUMP JUMPDEST PUSH1 0x0 PUSH2 0x24AC PUSH1 0xE DUP4 PUSH2 0x2465 JUMP JUMPDEST SWAP2 POP PUSH2 0x24B7 DUP3 PUSH2 0x2476 JUMP JUMPDEST PUSH1 0x20 DUP3 ADD SWAP1 POP SWAP2 SWAP1 POP JUMP JUMPDEST PUSH1 0x0 PUSH1 0x20 DUP3 ADD SWAP1 POP DUP2 DUP2 SUB PUSH1 0x0 DUP4 ADD MSTORE PUSH2 0x24DB DUP2 PUSH2 0x249F JUMP JUMPDEST SWAP1 POP SWAP2 SWAP1 POP JUMP JUMPDEST PUSH32 0x4C414E3A206C6F616E206E6F7420656E64656400000000000000000000000000 PUSH1 0x0 DUP3 ADD MSTORE POP JUMP JUMPDEST PUSH1 0x0 PUSH2 0x2518 PUSH1 0x13 DUP4 PUSH2 0x2465 JUMP JUMPDEST SWAP2 POP PUSH2 0x2523 DUP3 PUSH2 0x24E2 JUMP JUMPDEST PUSH1 0x20 DUP3 ADD SWAP1 POP SWAP2 SWAP1 POP JUMP JUMPDEST PUSH1 0x0 PUSH1 0x20 DUP3 ADD SWAP1 POP DUP2 DUP2 SUB PUSH1 0x0 DUP4 ADD MSTORE PUSH2 0x2547 DUP2 PUSH2 0x250B JUMP JUMPDEST SWAP1 POP SWAP2 SWAP1 POP JUMP JUMPDEST PUSH32 0x4C414E3A206E6F74206C61746573742062696464657200000000000000000000 PUSH1 0x0 DUP3 ADD MSTORE POP JUMP JUMPDEST PUSH1 0x0 PUSH2 0x2584 PUSH1 0x16 DUP4 PUSH2 0x2465 JUMP JUMPDEST SWAP2 POP PUSH2 0x258F DUP3 PUSH2 0x254E JUMP JUMPDEST PUSH1 0x20 DUP3 ADD SWAP1 POP SWAP2 SWAP1 POP JUMP JUMPDEST PUSH1 0x0 PUSH1 0x20 DUP3 ADD SWAP1 POP DUP2 DUP2 SUB PUSH1 0x0 DUP4 ADD MSTORE PUSH2 0x25B3 DUP2 PUSH2 0x2577 JUMP JUMPDEST SWAP1 POP SWAP2 SWAP1 POP JUMP JUMPDEST PUSH1 0x0 PUSH1 0x60 DUP3 ADD SWAP1 POP PUSH2 0x25CF PUSH1 0x0 DUP4 ADD DUP7 PUSH2 0x2173 JUMP JUMPDEST PUSH2 0x25DC PUSH1 0x20 DUP4 ADD DUP6 PUSH2 0x2173 JUMP JUMPDEST PUSH2 0x25E9 PUSH1 0x40 DUP4 ADD DUP5 PUSH2 0x1F64 JUMP JUMPDEST SWAP5 SWAP4 POP POP POP POP JUMP JUMPDEST PUSH32 0x4C414E3A2073746172742074696D6520696E2070617374000000000000000000 PUSH1 0x0 DUP3 ADD MSTORE POP JUMP JUMPDEST PUSH1 0x0 PUSH2 0x2627 PUSH1 0x17 DUP4 PUSH2 0x2465 JUMP JUMPDEST SWAP2 POP PUSH2 0x2632 DUP3 PUSH2 0x25F1 JUMP JUMPDEST PUSH1 0x20 DUP3 ADD SWAP1 POP SWAP2 SWAP1 POP JUMP JUMPDEST PUSH1 0x0 PUSH1 0x20 DUP3 ADD SWAP1 POP DUP2 DUP2 SUB PUSH1 0x0 DUP4 ADD MSTORE PUSH2 0x2656 DUP2 PUSH2 0x261A JUMP JUMPDEST SWAP1 POP SWAP2 SWAP1 POP JUMP JUMPDEST PUSH32 0x4C414E3A20737461727420616674657220656E64000000000000000000000000 PUSH1 0x0 DUP3 ADD MSTORE POP JUMP JUMPDEST PUSH1 0x0 PUSH2 0x2693 PUSH1 0x14 DUP4 PUSH2 0x2465 JUMP JUMPDEST SWAP2 POP PUSH2 0x269E DUP3 PUSH2 0x265D JUMP JUMPDEST PUSH1 0x20 DUP3 ADD SWAP1 POP SWAP2 SWAP1 POP JUMP JUMPDEST PUSH1 0x0 PUSH1 0x20 DUP3 ADD SWAP1 POP DUP2 DUP2 SUB PUSH1 0x0 DUP4 ADD MSTORE PUSH2 0x26C2 DUP2 PUSH2 0x2686 JUMP JUMPDEST SWAP1 POP SWAP2 SWAP1 POP JUMP JUMPDEST PUSH1 0x0 PUSH1 0x40 DUP3 ADD SWAP1 POP PUSH2 0x26DE PUSH1 0x0 DUP4 ADD DUP6 PUSH2 0x2173 JUMP JUMPDEST PUSH2 0x26EB PUSH1 0x20 DUP4 ADD DUP5 PUSH2 0x1F64 JUMP JUMPDEST SWAP4 SWAP3 POP POP POP JUMP JUMPDEST PUSH32 0x4E487B7100000000000000000000000000000000000000000000000000000000 PUSH1 0x0 MSTORE PUSH1 0x11 PUSH1 0x4 MSTORE PUSH1 0x24 PUSH1 0x0 REVERT JUMPDEST PUSH1 0x0 PUSH2 0x272C DUP3 PUSH2 0x1F5A JUMP JUMPDEST SWAP2 POP PUSH32 0xFFFFFFFFFFFFFFFFFFFFFFFFFFFFFFFFFFFFFFFFFFFFFFFFFFFFFFFFFFFFFFFF DUP3 SUB PUSH2 0x275E JUMPI PUSH2 0x275D PUSH2 0x26F2 JUMP JUMPDEST JUMPDEST PUSH1 0x1 DUP3 ADD SWAP1 POP SWAP2 SWAP1 POP JUMP JUMPDEST PUSH32 0x4C414E3A20616C72656164792073746172746564000000000000000000000000 PUSH1 0x0 DUP3 ADD MSTORE POP JUMP JUMPDEST PUSH1 0x0 PUSH2 0x279F PUSH1 0x14 DUP4 PUSH2 0x2465 JUMP JUMPDEST SWAP2 POP PUSH2 0x27AA DUP3 PUSH2 0x2769 JUMP JUMPDEST PUSH1 0x20 DUP3 ADD SWAP1 POP SWAP2 SWAP1 POP JUMP JUMPDEST PUSH1 0x0 PUSH1 0x20 DUP3 ADD SWAP1 POP DUP2 DUP2 SUB PUSH1 0x0 DUP4 ADD MSTORE PUSH2 0x27CE DUP2 PUSH2 0x2792 JUMP JUMPDEST SWAP1 POP SWAP2 SWAP1 POP JUMP JUMPDEST PUSH32 0x4C414E3A206E6F74207374617274656400000000000000000000000000000000 PUSH1 0x0 DUP3 ADD MSTORE POP JUMP JUMPDEST PUSH1 0x0 PUSH2 0x280B PUSH1 0x10 DUP4 PUSH2 0x2465 JUMP JUMPDEST SWAP2 POP PUSH2 0x2816 DUP3 PUSH2 0x27D5 JUMP JUMPDEST PUSH1 0x20 DUP3 ADD SWAP1 POP SWAP2 SWAP1 POP JUMP JUMPDEST PUSH1 0x0 PUSH1 0x20 DUP3 ADD SWAP1 POP DUP2 DUP2 SUB PUSH1 0x0 DUP4 ADD MSTORE PUSH2 0x283A DUP2 PUSH2 0x27FE JUMP JUMPDEST SWAP1 POP SWAP2 SWAP1 POP JUMP JUMPDEST PUSH32 0x4C414E3A20616C726561647920656E6465640000000000000000000000000000 PUSH1 0x0 DUP3 ADD MSTORE POP JUMP JUMPDEST PUSH1 0x0 PUSH2 0x2877 PUSH1 0x12 DUP4 PUSH2 0x2465 JUMP JUMPDEST SWAP2 POP PUSH2 0x2882 DUP3 PUSH2 0x2841 JUMP JUMPDEST PUSH1 0x20 DUP3 ADD SWAP1 POP SWAP2 SWAP1 POP JUMP JUMPDEST PUSH1 0x0 PUSH1 0x20 DUP3 ADD SWAP1 POP DUP2 DUP2 SUB PUSH1 0x0 DUP4 ADD MSTORE PUSH2 0x28A6 DUP2 PUSH2 0x286A JUMP JUMPDEST SWAP1 POP SWAP2 SWAP1 POP JUMP JUMPDEST PUSH1 0x0 PUSH2 0x28B8 DUP3 PUSH2 0x1F5A JUMP JUMPDEST SWAP2 POP PUSH2 0x28C3 DUP4 PUSH2 0x1F5A JUMP JUMPDEST SWAP3 POP DUP3 DUP3 ADD SWAP1 POP DUP1 DUP3 GT ISZERO PUSH2 0x28DB JUMPI PUSH2 0x28DA PUSH2 0x26F2 JUMP JUMPDEST JUMPDEST SWAP3 SWAP2 POP POP JUMP JUMPDEST PUSH32 0x4C414E3A20626964206E6F742068696768657200000000000000000000000000 PUSH1 0x0 DUP3 ADD MSTORE POP JUMP JUMPDEST PUSH1 0x0 PUSH2 0x2917 PUSH1 0x13 DUP4 PUSH2 0x2465 JUMP JUMPDEST SWAP2 POP PUSH2 0x2922 DUP3 PUSH2 0x28E1 JUMP JUMPDEST PUSH1 0x20 DUP3 ADD SWAP1 POP SWAP2 SWAP1 POP JUMP JUMPDEST PUSH1 0x0 PUSH1 0x20 DUP3 ADD SWAP1 POP DUP2 DUP2 SUB PUSH1 0x0 DUP4 ADD MSTORE PUSH2 0x2946 DUP2 PUSH2 0x290A JUMP JUMPDEST SWAP1 POP SWAP2 SWAP1 POP JUMP JUMPDEST PUSH1 0x0 DUP2 MLOAD SWAP1 POP PUSH2 0x295C DUP2 PUSH2 0x2065 JUMP JUMPDEST SWAP3 SWAP2 POP POP JUMP JUMPDEST PUSH1 0x0 PUSH1 0x20 DUP3 DUP5 SUB SLT ISZERO PUSH2 0x2978 JUMPI PUSH2 0x2977 PUSH2 0x1F98 JUMP JUMPDEST JUMPDEST PUSH1 0x0 PUSH2 0x2986 DUP5 DUP3 DUP6 ADD PUSH2 0x294D JUMP JUMPDEST SWAP2 POP POP SWAP3 SWAP2 POP POP JUMP JUMPDEST PUSH1 0x0 PUSH2 0x299A DUP3 PUSH2 0x1F5A JUMP JUMPDEST SWAP2 POP PUSH2 0x29A5 DUP4 PUSH2 0x1F5A JUMP JUMPDEST SWAP3 POP DUP3 DUP3 SUB SWAP1 POP DUP2 DUP2 GT ISZERO PUSH2 0x29BD JUMPI PUSH2 0x29BC PUSH2 0x26F2 JUMP JUMPDEST JUMPDEST SWAP3 SWAP2 POP POP JUMP JUMPDEST PUSH32 0x4C414E3A204E6F7420746865206C617465737420626964646572000000000000 PUSH1 0x0 DUP3 ADD MSTORE POP JUMP JUMPDEST PUSH1 0x0 PUSH2 0x29F9 PUSH1 0x1A DUP4 PUSH2 0x2465 JUMP JUMPDEST SWAP2 POP PUSH2 0x2A04 DUP3 PUSH2 0x29C3 JUMP JUMPDEST PUSH1 0x20 DUP3 ADD SWAP1 POP SWAP2 SWAP1 POP JUMP JUMPDEST PUSH1 0x0 PUSH1 0x20 DUP3 ADD SWAP1 POP DUP2 DUP2 SUB PUSH1 0x0 DUP4 ADD MSTORE PUSH2 0x2A28 DUP2 PUSH2 0x29EC JUMP JUMPDEST SWAP1 POP SWAP2 SWAP1 POP JUMP JUMPDEST PUSH1 0x0 PUSH2 0x2A3A DUP3 PUSH2 0x1F5A JUMP JUMPDEST SWAP2 POP PUSH2 0x2A45 DUP4 PUSH2 0x1F5A JUMP JUMPDEST SWAP3 POP DUP2 PUSH32 0xFFFFFFFFFFFFFFFFFFFFFFFFFFFFFFFFFFFFFFFFFFFFFFFFFFFFFFFFFFFFFFFF DIV DUP4 GT DUP3 ISZERO ISZERO AND ISZERO PUSH2 0x2A7E JUMPI PUSH2 0x2A7D PUSH2 0x26F2 JUMP JUMPDEST JUMPDEST DUP3 DUP3 MUL SWAP1 POP SWAP3 SWAP2 POP POP JUMP JUMPDEST PUSH32 0x4E487B7100000000000000000000000000000000000000000000000000000000 PUSH1 0x0 MSTORE PUSH1 0x12 PUSH1 0x4 MSTORE PUSH1 0x24 PUSH1 0x0 REVERT JUMPDEST PUSH1 0x0 PUSH2 0x2AC3 DUP3 PUSH2 0x1F5A JUMP JUMPDEST SWAP2 POP PUSH2 0x2ACE DUP4 PUSH2 0x1F5A JUMP JUMPDEST SWAP3 POP DUP3 PUSH2 0x2ADE JUMPI PUSH2 0x2ADD PUSH2 0x2A89 JUMP JUMPDEST JUMPDEST DUP3 DUP3 DIV SWAP1 POP SWAP3 SWAP2 POP POP JUMP INVALID LOG2 PUSH5 0x6970667358 0x22 SLT KECCAK256 DUP16 0xAA 0xED OR 0xCB 0xDF 0xF9 SGT 0x2B 0xC7 0xE3 PUSH20 0x1F37115A28DC9CEB8C4F6BA4456AAC4785768B33 PUSH5 0x736F6C6343 STOP ADDMOD LT STOP CALLER "
				},
				"gasEstimates": {
					"creation": {
						"codeDepositCost": "2207800",
						"executionCost": "2353",
						"totalCost": "2210153"
					},
					"external": {
						"addNewWhitelist(uint256,address[])": "infinite",
						"bid(uint256,uint256)": "infinite",
						"bids(uint256,uint256)": "infinite",
						"cancel(uint256)": "infinite",
						"count()": "2430",
						"endLoan(uint256)": "infinite",
						"launch(address,address,uint256,uint256,uint256,uint256,bool)": "infinite",
						"liquidate(uint256)": "infinite",
						"liquidateEarly(uint256)": "infinite",
						"loans(uint256)": "infinite",
						"setNewBidOwner(uint256,address)": "51252",
						"whitelistedAddresses(uint256,uint256)": "infinite"
					},
					"internal": {
						"_calculateLoanValue(uint256)": "infinite",
						"_ended(uint256)": "2226",
						"_started(uint256)": "2223"
					}
				},
				"methodIdentifiers": {
					"addNewWhitelist(uint256,address[])": "8f17aa2d",
					"bid(uint256,uint256)": "598647f8",
					"bids(uint256,uint256)": "7b3c4baa",
					"cancel(uint256)": "40e58ee5",
					"count()": "06661abd",
					"endLoan(uint256)": "7870860b",
					"launch(address,address,uint256,uint256,uint256,uint256,bool)": "2613c5d6",
					"liquidate(uint256)": "415f1240",
					"liquidateEarly(uint256)": "18de4f9d",
					"loans(uint256)": "e1ec3c68",
					"setNewBidOwner(uint256,address)": "8f769f3a",
					"whitelistedAddresses(uint256,uint256)": "9bea77da"
				}
			},
			"storageLayout": {
				"storage": [
					{
						"astId": 223,
						"contract": "main.sol:LAN",
						"label": "count",
						"offset": 0,
						"slot": "0",
						"type": "t_uint256"
					},
					{
						"astId": 247,
						"contract": "main.sol:LAN",
						"label": "loans",
						"offset": 0,
						"slot": "1",
						"type": "t_mapping(t_uint256,t_struct(Loan)242_storage)"
					},
					{
						"astId": 261,
						"contract": "main.sol:LAN",
						"label": "bids",
						"offset": 0,
						"slot": "2",
						"type": "t_mapping(t_uint256,t_mapping(t_uint256,t_struct(Bid)254_storage))"
					},
					{
						"astId": 266,
						"contract": "main.sol:LAN",
						"label": "whitelistedAddresses",
						"offset": 0,
						"slot": "3",
						"type": "t_mapping(t_uint256,t_array(t_address)dyn_storage)"
					}
				],
				"types": {
					"t_address": {
						"encoding": "inplace",
						"label": "address",
						"numberOfBytes": "20"
					},
					"t_array(t_address)dyn_storage": {
						"base": "t_address",
						"encoding": "dynamic_array",
						"label": "address[]",
						"numberOfBytes": "32"
					},
					"t_bool": {
						"encoding": "inplace",
						"label": "bool",
						"numberOfBytes": "1"
					},
					"t_mapping(t_uint256,t_array(t_address)dyn_storage)": {
						"encoding": "mapping",
						"key": "t_uint256",
						"label": "mapping(uint256 => address[])",
						"numberOfBytes": "32",
						"value": "t_array(t_address)dyn_storage"
					},
					"t_mapping(t_uint256,t_mapping(t_uint256,t_struct(Bid)254_storage))": {
						"encoding": "mapping",
						"key": "t_uint256",
						"label": "mapping(uint256 => mapping(uint256 => struct LAN.Bid))",
						"numberOfBytes": "32",
						"value": "t_mapping(t_uint256,t_struct(Bid)254_storage)"
					},
					"t_mapping(t_uint256,t_struct(Bid)254_storage)": {
						"encoding": "mapping",
						"key": "t_uint256",
						"label": "mapping(uint256 => struct LAN.Bid)",
						"numberOfBytes": "32",
						"value": "t_struct(Bid)254_storage"
					},
					"t_mapping(t_uint256,t_struct(Loan)242_storage)": {
						"encoding": "mapping",
						"key": "t_uint256",
						"label": "mapping(uint256 => struct LAN.Loan)",
						"numberOfBytes": "32",
						"value": "t_struct(Loan)242_storage"
					},
					"t_struct(Bid)254_storage": {
						"encoding": "inplace",
						"label": "struct LAN.Bid",
						"members": [
							{
								"astId": 249,
								"contract": "main.sol:LAN",
								"label": "bidTime",
								"offset": 0,
								"slot": "0",
								"type": "t_uint256"
							},
							{
								"astId": 251,
								"contract": "main.sol:LAN",
								"label": "bidAmount",
								"offset": 0,
								"slot": "1",
								"type": "t_uint256"
							},
							{
								"astId": 253,
								"contract": "main.sol:LAN",
								"label": "user",
								"offset": 0,
								"slot": "2",
								"type": "t_address"
							}
						],
						"numberOfBytes": "96"
					},
					"t_struct(Loan)242_storage": {
						"encoding": "inplace",
						"label": "struct LAN.Loan",
						"members": [
							{
								"astId": 225,
								"contract": "main.sol:LAN",
								"label": "owner",
								"offset": 0,
								"slot": "0",
								"type": "t_address"
							},
							{
								"astId": 227,
								"contract": "main.sol:LAN",
								"label": "token",
								"offset": 0,
								"slot": "1",
								"type": "t_address"
							},
							{
								"astId": 229,
								"contract": "main.sol:LAN",
								"label": "collectionAddress",
								"offset": 0,
								"slot": "2",
								"type": "t_address"
							},
							{
								"astId": 231,
								"contract": "main.sol:LAN",
								"label": "nftId",
								"offset": 0,
								"slot": "3",
								"type": "t_uint256"
							},
							{
								"astId": 233,
								"contract": "main.sol:LAN",
								"label": "startTime",
								"offset": 0,
								"slot": "4",
								"type": "t_uint256"
							},
							{
								"astId": 235,
								"contract": "main.sol:LAN",
								"label": "endTime",
								"offset": 0,
								"slot": "5",
								"type": "t_uint256"
							},
							{
								"astId": 237,
								"contract": "main.sol:LAN",
								"label": "apr",
								"offset": 0,
								"slot": "6",
								"type": "t_uint256"
							},
							{
								"astId": 239,
								"contract": "main.sol:LAN",
								"label": "numBids",
								"offset": 0,
								"slot": "7",
								"type": "t_uint256"
							},
							{
								"astId": 241,
								"contract": "main.sol:LAN",
								"label": "whitelisted",
								"offset": 0,
								"slot": "8",
								"type": "t_bool"
							}
						],
						"numberOfBytes": "288"
					},
					"t_uint256": {
						"encoding": "inplace",
						"label": "uint256",
						"numberOfBytes": "32"
					}
				}
			},
			"userdoc": {
				"kind": "user",
				"methods": {},
				"version": 1
			}
		}
	}
}