{
	"contracts/ChainlinkOracle.sol": {
		"ChainlinkOracle": {
			"abi": [
				{
					"inputs": [
						{
							"internalType": "address",
							"name": "_wrapper",
							"type": "address"
						}
					],
					"stateMutability": "nonpayable",
					"type": "constructor"
				},
				{
					"anonymous": false,
					"inputs": [
						{
							"indexed": false,
							"internalType": "string",
							"name": "message",
							"type": "string"
						}
					],
					"name": "Log",
					"type": "event"
				},
				{
					"inputs": [],
					"name": "Wrapper",
					"outputs": [
						{
							"internalType": "address",
							"name": "",
							"type": "address"
						}
					],
					"stateMutability": "view",
					"type": "function"
				},
				{
					"inputs": [
						{
							"internalType": "address",
							"name": "wrapper",
							"type": "address"
						},
						{
							"internalType": "uint256",
							"name": "nftId",
							"type": "uint256"
						}
					],
					"name": "getBundlePrice",
					"outputs": [
						{
							"internalType": "uint256",
							"name": "",
							"type": "uint256"
						}
					],
					"stateMutability": "view",
					"type": "function"
				},
				{
					"inputs": [
						{
							"internalType": "address",
							"name": "_underlying",
							"type": "address"
						}
					],
					"name": "getUnderlyingPrice",
					"outputs": [
						{
							"internalType": "uint256",
							"name": "",
							"type": "uint256"
						}
					],
					"stateMutability": "view",
					"type": "function"
				}
			],
			"devdoc": {
				"kind": "dev",
				"methods": {},
				"version": 1
			},
			"evm": {
				"assembly": "    /* \"contracts/ChainlinkOracle.sol\":936:3602  contract ChainlinkOracle is IPriceOracle {... */\n  mstore(0x40, 0xa0)\n    /* \"contracts/ChainlinkOracle.sol\":1256:1321  constructor(address _wrapper) {... */\n  callvalue\n  dup1\n  iszero\n  tag_1\n  jumpi\n  0x00\n  dup1\n  revert\ntag_1:\n  pop\n  mload(0x40)\n  sub(codesize, bytecodeSize)\n  dup1\n  bytecodeSize\n  dup4\n  codecopy\n  dup2\n  dup2\n  add\n  0x40\n  mstore\n  dup2\n  add\n  swap1\n  tag_2\n  swap2\n  swap1\n  tag_3\n  jump\t// in\ntag_2:\n    /* \"contracts/ChainlinkOracle.sol\":1306:1314  _wrapper */\n  dup1\n    /* \"contracts/ChainlinkOracle.sol\":1296:1314  Wrapper = _wrapper */\n  0xffffffffffffffffffffffffffffffffffffffff\n  and\n  0x80\n  dup2\n  0xffffffffffffffffffffffffffffffffffffffff\n  and\n  dup2\n  mstore\n  pop\n  pop\n    /* \"contracts/ChainlinkOracle.sol\":1256:1321  constructor(address _wrapper) {... */\n  pop\n    /* \"contracts/ChainlinkOracle.sol\":936:3602  contract ChainlinkOracle is IPriceOracle {... */\n  jump(tag_6)\n    /* \"#utility.yul\":88:205   */\ntag_8:\n    /* \"#utility.yul\":197:198   */\n  0x00\n    /* \"#utility.yul\":194:195   */\n  dup1\n    /* \"#utility.yul\":187:199   */\n  revert\n    /* \"#utility.yul\":334:460   */\ntag_10:\n    /* \"#utility.yul\":371:378   */\n  0x00\n    /* \"#utility.yul\":411:453   */\n  0xffffffffffffffffffffffffffffffffffffffff\n    /* \"#utility.yul\":404:409   */\n  dup3\n    /* \"#utility.yul\":400:454   */\n  and\n    /* \"#utility.yul\":389:454   */\n  swap1\n  pop\n    /* \"#utility.yul\":334:460   */\n  swap2\n  swap1\n  pop\n  jump\t// out\n    /* \"#utility.yul\":466:562   */\ntag_11:\n    /* \"#utility.yul\":503:510   */\n  0x00\n    /* \"#utility.yul\":532:556   */\n  tag_20\n    /* \"#utility.yul\":550:555   */\n  dup3\n    /* \"#utility.yul\":532:556   */\n  tag_10\n  jump\t// in\ntag_20:\n    /* \"#utility.yul\":521:556   */\n  swap1\n  pop\n    /* \"#utility.yul\":466:562   */\n  swap2\n  swap1\n  pop\n  jump\t// out\n    /* \"#utility.yul\":568:690   */\ntag_12:\n    /* \"#utility.yul\":641:665   */\n  tag_22\n    /* \"#utility.yul\":659:664   */\n  dup2\n    /* \"#utility.yul\":641:665   */\n  tag_11\n  jump\t// in\ntag_22:\n    /* \"#utility.yul\":634:639   */\n  dup2\n    /* \"#utility.yul\":631:666   */\n  eq\n    /* \"#utility.yul\":621:684   */\n  tag_23\n  jumpi\n    /* \"#utility.yul\":680:681   */\n  0x00\n    /* \"#utility.yul\":677:678   */\n  dup1\n    /* \"#utility.yul\":670:682   */\n  revert\n    /* \"#utility.yul\":621:684   */\ntag_23:\n    /* \"#utility.yul\":568:690   */\n  pop\n  jump\t// out\n    /* \"#utility.yul\":696:839   */\ntag_13:\n    /* \"#utility.yul\":753:758   */\n  0x00\n    /* \"#utility.yul\":784:790   */\n  dup2\n    /* \"#utility.yul\":778:791   */\n  mload\n    /* \"#utility.yul\":769:791   */\n  swap1\n  pop\n    /* \"#utility.yul\":800:833   */\n  tag_25\n    /* \"#utility.yul\":827:832   */\n  dup2\n    /* \"#utility.yul\":800:833   */\n  tag_12\n  jump\t// in\ntag_25:\n    /* \"#utility.yul\":696:839   */\n  swap3\n  swap2\n  pop\n  pop\n  jump\t// out\n    /* \"#utility.yul\":845:1196   */\ntag_3:\n    /* \"#utility.yul\":915:921   */\n  0x00\n    /* \"#utility.yul\":964:966   */\n  0x20\n    /* \"#utility.yul\":952:961   */\n  dup3\n    /* \"#utility.yul\":943:950   */\n  dup5\n    /* \"#utility.yul\":939:962   */\n  sub\n    /* \"#utility.yul\":935:967   */\n  slt\n    /* \"#utility.yul\":932:1051   */\n  iszero\n  tag_27\n  jumpi\n    /* \"#utility.yul\":970:1049   */\n  tag_28\n  tag_8\n  jump\t// in\ntag_28:\n    /* \"#utility.yul\":932:1051   */\ntag_27:\n    /* \"#utility.yul\":1090:1091   */\n  0x00\n    /* \"#utility.yul\":1115:1179   */\n  tag_29\n    /* \"#utility.yul\":1171:1178   */\n  dup5\n    /* \"#utility.yul\":1162:1168   */\n  dup3\n    /* \"#utility.yul\":1151:1160   */\n  dup6\n    /* \"#utility.yul\":1147:1169   */\n  add\n    /* \"#utility.yul\":1115:1179   */\n  tag_13\n  jump\t// in\ntag_29:\n    /* \"#utility.yul\":1105:1179   */\n  swap2\n  pop\n    /* \"#utility.yul\":1061:1189   */\n  pop\n    /* \"#utility.yul\":845:1196   */\n  swap3\n  swap2\n  pop\n  pop\n  jump\t// out\n    /* \"contracts/ChainlinkOracle.sol\":936:3602  contract ChainlinkOracle is IPriceOracle {... */\ntag_6:\n  mload(0x80)\n  codecopy(0x00, dataOffset(sub_0), dataSize(sub_0))\n  0x00\n  assignImmutable(\"0x673736316b95e559f74d3df3ec317a8befa2b1e479645eed67cb97503d5fbec1\")\n  return(0x00, dataSize(sub_0))\nstop\n\nsub_0: assembly {\n        /* \"contracts/ChainlinkOracle.sol\":936:3602  contract ChainlinkOracle is IPriceOracle {... */\n      mstore(0x40, 0x80)\n      callvalue\n      dup1\n      iszero\n      tag_1\n      jumpi\n      0x00\n      dup1\n      revert\n    tag_1:\n      pop\n      jumpi(tag_2, lt(calldatasize, 0x04))\n      shr(0xe0, calldataload(0x00))\n      dup1\n      0x06cd702c\n      eq\n      tag_3\n      jumpi\n      dup1\n      0x08a130ab\n      eq\n      tag_4\n      jumpi\n      dup1\n      0xfc57d4df\n      eq\n      tag_5\n      jumpi\n    tag_2:\n      0x00\n      dup1\n      revert\n        /* \"contracts/ChainlinkOracle.sol\":1327:2435  function getBundlePrice(address wrapper, uint256 nftId)... */\n    tag_3:\n      tag_6\n      0x04\n      dup1\n      calldatasize\n      sub\n      dup2\n      add\n      swap1\n      tag_7\n      swap2\n      swap1\n      tag_8\n      jump\t// in\n    tag_7:\n      tag_9\n      jump\t// in\n    tag_6:\n      mload(0x40)\n      tag_10\n      swap2\n      swap1\n      tag_11\n      jump\t// in\n    tag_10:\n      mload(0x40)\n      dup1\n      swap2\n      sub\n      swap1\n      return\n        /* \"contracts/ChainlinkOracle.sol\":1217:1249  address public immutable Wrapper */\n    tag_4:\n      tag_12\n      tag_13\n      jump\t// in\n    tag_12:\n      mload(0x40)\n      tag_14\n      swap2\n      swap1\n      tag_15\n      jump\t// in\n    tag_14:\n      mload(0x40)\n      dup1\n      swap2\n      sub\n      swap1\n      return\n        /* \"contracts/ChainlinkOracle.sol\":2441:2606  function getUnderlyingPrice(address _underlying)... */\n    tag_5:\n      tag_16\n      0x04\n      dup1\n      calldatasize\n      sub\n      dup2\n      add\n      swap1\n      tag_17\n      swap2\n      swap1\n      tag_18\n      jump\t// in\n    tag_17:\n      tag_19\n      jump\t// in\n    tag_16:\n      mload(0x40)\n      tag_20\n      swap2\n      swap1\n      tag_11\n      jump\t// in\n    tag_20:\n      mload(0x40)\n      dup1\n      swap2\n      sub\n      swap1\n      return\n        /* \"contracts/ChainlinkOracle.sol\":1327:2435  function getBundlePrice(address wrapper, uint256 nftId)... */\n    tag_9:\n        /* \"contracts/ChainlinkOracle.sol\":1422:1429  uint256 */\n      0x00\n        /* \"contracts/ChainlinkOracle.sol\":1537:1544  Wrapper */\n      immutable(\"0x673736316b95e559f74d3df3ec317a8befa2b1e479645eed67cb97503d5fbec1\")\n        /* \"contracts/ChainlinkOracle.sol\":1526:1544  wrapper != Wrapper */\n      0xffffffffffffffffffffffffffffffffffffffff\n      and\n        /* \"contracts/ChainlinkOracle.sol\":1526:1533  wrapper */\n      dup4\n        /* \"contracts/ChainlinkOracle.sol\":1526:1544  wrapper != Wrapper */\n      0xffffffffffffffffffffffffffffffffffffffff\n      and\n      eq\n        /* \"contracts/ChainlinkOracle.sol\":1522:1581  if (wrapper != Wrapper) return _getUnderlyingPrice(wrapper) */\n      tag_22\n      jumpi\n        /* \"contracts/ChainlinkOracle.sol\":1553:1581  _getUnderlyingPrice(wrapper) */\n      tag_23\n        /* \"contracts/ChainlinkOracle.sol\":1573:1580  wrapper */\n      dup4\n        /* \"contracts/ChainlinkOracle.sol\":1553:1572  _getUnderlyingPrice */\n      tag_24\n        /* \"contracts/ChainlinkOracle.sol\":1553:1581  _getUnderlyingPrice(wrapper) */\n      jump\t// in\n    tag_23:\n        /* \"contracts/ChainlinkOracle.sol\":1546:1581  return _getUnderlyingPrice(wrapper) */\n      swap1\n      pop\n      jump(tag_21)\n        /* \"contracts/ChainlinkOracle.sol\":1522:1581  if (wrapper != Wrapper) return _getUnderlyingPrice(wrapper) */\n    tag_22:\n        /* \"contracts/ChainlinkOracle.sol\":1592:1615  address[] memory tokens */\n      0x00\n        /* \"contracts/ChainlinkOracle.sol\":1627:1634  wrapper */\n      dup4\n        /* \"contracts/ChainlinkOracle.sol\":1618:1645  IWrapper(wrapper).getTokens */\n      0xffffffffffffffffffffffffffffffffffffffff\n      and\n      0xd3c9cc26\n        /* \"contracts/ChainlinkOracle.sol\":1646:1651  nftId */\n      dup5\n        /* \"contracts/ChainlinkOracle.sol\":1618:1652  IWrapper(wrapper).getTokens(nftId) */\n      mload(0x40)\n      dup3\n      0xffffffff\n      and\n      0xe0\n      shl\n      dup2\n      mstore\n      0x04\n      add\n      tag_25\n      swap2\n      swap1\n      tag_11\n      jump\t// in\n    tag_25:\n      0x00\n      mload(0x40)\n      dup1\n      dup4\n      sub\n      dup2\n      dup7\n      gas\n      staticcall\n      iszero\n      dup1\n      iszero\n      tag_27\n      jumpi\n      returndatasize\n      0x00\n      dup1\n      returndatacopy\n      revert(0x00, returndatasize)\n    tag_27:\n      pop\n      pop\n      pop\n      pop\n      mload(0x40)\n      returndatasize\n      0x00\n      dup3\n      returndatacopy\n      returndatasize\n      not(0x1f)\n      0x1f\n      dup3\n      add\n      and\n      dup3\n      add\n      dup1\n      0x40\n      mstore\n      pop\n      dup2\n      add\n      swap1\n      tag_28\n      swap2\n      swap1\n      tag_29\n      jump\t// in\n    tag_28:\n        /* \"contracts/ChainlinkOracle.sol\":1592:1652  address[] memory tokens = IWrapper(wrapper).getTokens(nftId) */\n      swap1\n      pop\n        /* \"contracts/ChainlinkOracle.sol\":1662:1686  uint256[] memory amounts */\n      0x00\n        /* \"contracts/ChainlinkOracle.sol\":1698:1705  wrapper */\n      dup5\n        /* \"contracts/ChainlinkOracle.sol\":1689:1717  IWrapper(wrapper).getAmounts */\n      0xffffffffffffffffffffffffffffffffffffffff\n      and\n      0x59f7cf50\n        /* \"contracts/ChainlinkOracle.sol\":1718:1723  nftId */\n      dup6\n        /* \"contracts/ChainlinkOracle.sol\":1689:1724  IWrapper(wrapper).getAmounts(nftId) */\n      mload(0x40)\n      dup3\n      0xffffffff\n      and\n      0xe0\n      shl\n      dup2\n      mstore\n      0x04\n      add\n      tag_30\n      swap2\n      swap1\n      tag_11\n      jump\t// in\n    tag_30:\n      0x00\n      mload(0x40)\n      dup1\n      dup4\n      sub\n      dup2\n      dup7\n      gas\n      staticcall\n      iszero\n      dup1\n      iszero\n      tag_32\n      jumpi\n      returndatasize\n      0x00\n      dup1\n      returndatacopy\n      revert(0x00, returndatasize)\n    tag_32:\n      pop\n      pop\n      pop\n      pop\n      mload(0x40)\n      returndatasize\n      0x00\n      dup3\n      returndatacopy\n      returndatasize\n      not(0x1f)\n      0x1f\n      dup3\n      add\n      and\n      dup3\n      add\n      dup1\n      0x40\n      mstore\n      pop\n      dup2\n      add\n      swap1\n      tag_33\n      swap2\n      swap1\n      tag_34\n      jump\t// in\n    tag_33:\n        /* \"contracts/ChainlinkOracle.sol\":1662:1724  uint256[] memory amounts = IWrapper(wrapper).getAmounts(nftId) */\n      swap1\n      pop\n        /* \"contracts/ChainlinkOracle.sol\":1798:1819  uint256 totalPriceUSD */\n      0x00\n        /* \"contracts/ChainlinkOracle.sol\":1850:1864  uint256 length */\n      dup1\n        /* \"contracts/ChainlinkOracle.sol\":1867:1873  tokens */\n      dup4\n        /* \"contracts/ChainlinkOracle.sol\":1867:1880  tokens.length */\n      mload\n        /* \"contracts/ChainlinkOracle.sol\":1850:1880  uint256 length = tokens.length */\n      swap1\n      pop\n        /* \"contracts/ChainlinkOracle.sol\":1896:1905  uint256 i */\n      0x00\n        /* \"contracts/ChainlinkOracle.sol\":1891:2399  for (uint256 i = 0; i < length; i++) {... */\n    tag_35:\n        /* \"contracts/ChainlinkOracle.sol\":1915:1921  length */\n      dup2\n        /* \"contracts/ChainlinkOracle.sol\":1911:1912  i */\n      dup2\n        /* \"contracts/ChainlinkOracle.sol\":1911:1921  i < length */\n      lt\n        /* \"contracts/ChainlinkOracle.sol\":1891:2399  for (uint256 i = 0; i < length; i++) {... */\n      iszero\n      tag_36\n      jumpi\n        /* \"contracts/ChainlinkOracle.sol\":2217:2240  uint256 underlyingPrice */\n      0x00\n        /* \"contracts/ChainlinkOracle.sol\":2243:2273  _getUnderlyingPrice(tokens[i]) */\n      tag_38\n        /* \"contracts/ChainlinkOracle.sol\":2263:2269  tokens */\n      dup7\n        /* \"contracts/ChainlinkOracle.sol\":2270:2271  i */\n      dup4\n        /* \"contracts/ChainlinkOracle.sol\":2263:2272  tokens[i] */\n      dup2\n      mload\n      dup2\n      lt\n      tag_39\n      jumpi\n      tag_40\n      tag_41\n      jump\t// in\n    tag_40:\n    tag_39:\n      0x20\n      mul\n      0x20\n      add\n      add\n      mload\n        /* \"contracts/ChainlinkOracle.sol\":2243:2262  _getUnderlyingPrice */\n      tag_24\n        /* \"contracts/ChainlinkOracle.sol\":2243:2273  _getUnderlyingPrice(tokens[i]) */\n      jump\t// in\n    tag_38:\n        /* \"contracts/ChainlinkOracle.sol\":2217:2273  uint256 underlyingPrice = _getUnderlyingPrice(tokens[i]) */\n      swap1\n      pop\n        /* \"contracts/ChainlinkOracle.sol\":2310:2311  0 */\n      0x00\n        /* \"contracts/ChainlinkOracle.sol\":2291:2306  underlyingPrice */\n      dup2\n        /* \"contracts/ChainlinkOracle.sol\":2291:2311  underlyingPrice != 0 */\n      eq\n        /* \"contracts/ChainlinkOracle.sol\":2287:2389  if (underlyingPrice != 0) {... */\n      tag_42\n      jumpi\n        /* \"contracts/ChainlinkOracle.sol\":2359:2374  underlyingPrice */\n      dup1\n        /* \"contracts/ChainlinkOracle.sol\":2348:2355  amounts */\n      dup6\n        /* \"contracts/ChainlinkOracle.sol\":2356:2357  i */\n      dup4\n        /* \"contracts/ChainlinkOracle.sol\":2348:2358  amounts[i] */\n      dup2\n      mload\n      dup2\n      lt\n      tag_43\n      jumpi\n      tag_44\n      tag_41\n      jump\t// in\n    tag_44:\n    tag_43:\n      0x20\n      mul\n      0x20\n      add\n      add\n      mload\n        /* \"contracts/ChainlinkOracle.sol\":2348:2374  amounts[i]*underlyingPrice */\n      tag_45\n      swap2\n      swap1\n      tag_46\n      jump\t// in\n    tag_45:\n        /* \"contracts/ChainlinkOracle.sol\":2331:2374  totalPriceUSD += amounts[i]*underlyingPrice */\n      dup5\n      tag_47\n      swap2\n      swap1\n      tag_48\n      jump\t// in\n    tag_47:\n      swap4\n      pop\n        /* \"contracts/ChainlinkOracle.sol\":2287:2389  if (underlyingPrice != 0) {... */\n    tag_42:\n        /* \"contracts/ChainlinkOracle.sol\":1928:2399  {... */\n      pop\n        /* \"contracts/ChainlinkOracle.sol\":1923:1926  i++ */\n      dup1\n      dup1\n      tag_49\n      swap1\n      tag_50\n      jump\t// in\n    tag_49:\n      swap2\n      pop\n      pop\n        /* \"contracts/ChainlinkOracle.sol\":1891:2399  for (uint256 i = 0; i < length; i++) {... */\n      jump(tag_35)\n    tag_36:\n      pop\n        /* \"contracts/ChainlinkOracle.sol\":2415:2428  totalPriceUSD */\n      dup2\n        /* \"contracts/ChainlinkOracle.sol\":2408:2428  return totalPriceUSD */\n      swap5\n      pop\n      pop\n      pop\n      pop\n      pop\n        /* \"contracts/ChainlinkOracle.sol\":1327:2435  function getBundlePrice(address wrapper, uint256 nftId)... */\n    tag_21:\n      swap3\n      swap2\n      pop\n      pop\n      jump\t// out\n        /* \"contracts/ChainlinkOracle.sol\":1217:1249  address public immutable Wrapper */\n    tag_13:\n      immutable(\"0x673736316b95e559f74d3df3ec317a8befa2b1e479645eed67cb97503d5fbec1\")\n      dup2\n      jump\t// out\n        /* \"contracts/ChainlinkOracle.sol\":2441:2606  function getUnderlyingPrice(address _underlying)... */\n    tag_19:\n        /* \"contracts/ChainlinkOracle.sol\":2537:2544  uint256 */\n      0x00\n        /* \"contracts/ChainlinkOracle.sol\":2567:2599  _getUnderlyingPrice(_underlying) */\n      tag_52\n        /* \"contracts/ChainlinkOracle.sol\":2587:2598  _underlying */\n      dup3\n        /* \"contracts/ChainlinkOracle.sol\":2567:2586  _getUnderlyingPrice */\n      tag_24\n        /* \"contracts/ChainlinkOracle.sol\":2567:2599  _getUnderlyingPrice(_underlying) */\n      jump\t// in\n    tag_52:\n        /* \"contracts/ChainlinkOracle.sol\":2560:2599  return _getUnderlyingPrice(_underlying) */\n      swap1\n      pop\n        /* \"contracts/ChainlinkOracle.sol\":2441:2606  function getUnderlyingPrice(address _underlying)... */\n      swap2\n      swap1\n      pop\n      jump\t// out\n        /* \"contracts/ChainlinkOracle.sol\":2751:3600  function _getUnderlyingPrice(address underlying)... */\n    tag_24:\n        /* \"contracts/ChainlinkOracle.sol\":2847:2854  uint256 */\n      0x00\n        /* \"contracts/ChainlinkOracle.sol\":3002:3015  address quote */\n      dup1\n        /* \"contracts/Denominations.sol\":350:353  840 */\n      0x0348\n        /* \"contracts/ChainlinkOracle.sol\":3002:3035  address quote = Denominations.USD */\n      swap1\n      pop\n        /* \"contracts/ChainlinkOracle.sol\":3269:3283  uint8 decimals */\n      0x00\n        /* \"contracts/ChainlinkOracle.sol\":1136:1178  0x47Fb2585D2C56Fe188D0E6ec628a38b74fCeeeDf */\n      0x47fb2585d2c56fe188d0e6ec628a38b74fceeedf\n        /* \"contracts/ChainlinkOracle.sol\":3286:3307  feedRegistry.decimals */\n      0xffffffffffffffffffffffffffffffffffffffff\n      and\n      0x313ce567\n        /* \"contracts/ChainlinkOracle.sol\":3286:3309  feedRegistry.decimals() */\n      mload(0x40)\n      dup2\n      0xffffffff\n      and\n      0xe0\n      shl\n      dup2\n      mstore\n      0x04\n      add\n      0x20\n      mload(0x40)\n      dup1\n      dup4\n      sub\n      dup2\n      dup7\n      gas\n      staticcall\n      iszero\n      dup1\n      iszero\n      tag_55\n      jumpi\n      returndatasize\n      0x00\n      dup1\n      returndatacopy\n      revert(0x00, returndatasize)\n    tag_55:\n      pop\n      pop\n      pop\n      pop\n      mload(0x40)\n      returndatasize\n      not(0x1f)\n      0x1f\n      dup3\n      add\n      and\n      dup3\n      add\n      dup1\n      0x40\n      mstore\n      pop\n      dup2\n      add\n      swap1\n      tag_56\n      swap2\n      swap1\n      tag_57\n      jump\t// in\n    tag_56:\n        /* \"contracts/ChainlinkOracle.sol\":3269:3309  uint8 decimals = feedRegistry.decimals() */\n      swap1\n      pop\n        /* \"contracts/ChainlinkOracle.sol\":3322:3344  int256 underlyingPrice */\n      0x00\n        /* \"contracts/ChainlinkOracle.sol\":1136:1178  0x47Fb2585D2C56Fe188D0E6ec628a38b74fCeeeDf */\n      0x47fb2585d2c56fe188d0e6ec628a38b74fceeedf\n        /* \"contracts/ChainlinkOracle.sol\":3354:3382  feedRegistry.latestRoundData */\n      0xffffffffffffffffffffffffffffffffffffffff\n      and\n      0xbcfd032d\n        /* \"contracts/ChainlinkOracle.sol\":3396:3406  underlying */\n      dup7\n        /* \"contracts/ChainlinkOracle.sol\":3420:3425  quote */\n      dup6\n        /* \"contracts/ChainlinkOracle.sol\":3354:3435  feedRegistry.latestRoundData(... */\n      mload(0x40)\n      dup4\n      0xffffffff\n      and\n      0xe0\n      shl\n      dup2\n      mstore\n      0x04\n      add\n      tag_58\n      swap3\n      swap2\n      swap1\n      tag_59\n      jump\t// in\n    tag_58:\n      0xa0\n      mload(0x40)\n      dup1\n      dup4\n      sub\n      dup2\n      dup7\n      gas\n      staticcall\n      iszero\n      dup1\n      iszero\n      tag_61\n      jumpi\n      returndatasize\n      0x00\n      dup1\n      returndatacopy\n      revert(0x00, returndatasize)\n    tag_61:\n      pop\n      pop\n      pop\n      pop\n      mload(0x40)\n      returndatasize\n      not(0x1f)\n      0x1f\n      dup3\n      add\n      and\n      dup3\n      add\n      dup1\n      0x40\n      mstore\n      pop\n      dup2\n      add\n      swap1\n      tag_62\n      swap2\n      swap1\n      tag_63\n      jump\t// in\n    tag_62:\n        /* \"contracts/ChainlinkOracle.sol\":3319:3435  (, int256 underlyingPrice, , , ) = feedRegistry.latestRoundData(... */\n      pop\n      pop\n      pop\n      swap2\n      pop\n      pop\n        /* \"contracts/ChainlinkOracle.sol\":3583:3591  decimals */\n      dup2\n        /* \"contracts/ChainlinkOracle.sol\":3575:3592  uint256(decimals) */\n      0xff\n      and\n        /* \"contracts/ChainlinkOracle.sol\":3571:3573  10 */\n      0x0a\n        /* \"contracts/ChainlinkOracle.sol\":3571:3592  10**uint256(decimals) */\n      tag_64\n      swap2\n      swap1\n      tag_65\n      jump\t// in\n    tag_64:\n        /* \"contracts/ChainlinkOracle.sol\":3561:3565  1e26 */\n      0x52b7d2dcc80cd2e4000000\n        /* \"contracts/ChainlinkOracle.sol\":3541:3556  underlyingPrice */\n      dup3\n        /* \"contracts/ChainlinkOracle.sol\":3540:3566  (underlyingPrice) * (1e26) */\n      tag_66\n      swap2\n      swap1\n      tag_67\n      jump\t// in\n    tag_66:\n        /* \"contracts/ChainlinkOracle.sol\":3532:3593  uint256((underlyingPrice) * (1e26)) / (10**uint256(decimals)) */\n      tag_68\n      swap2\n      swap1\n      tag_69\n      jump\t// in\n    tag_68:\n        /* \"contracts/ChainlinkOracle.sol\":3446:3593  return... */\n      swap4\n      pop\n      pop\n      pop\n      pop\n        /* \"contracts/ChainlinkOracle.sol\":2751:3600  function _getUnderlyingPrice(address underlying)... */\n      swap2\n      swap1\n      pop\n      jump\t// out\n        /* \"#utility.yul\":7:82   */\n    tag_70:\n        /* \"#utility.yul\":40:46   */\n      0x00\n        /* \"#utility.yul\":73:75   */\n      0x40\n        /* \"#utility.yul\":67:76   */\n      mload\n        /* \"#utility.yul\":57:76   */\n      swap1\n      pop\n        /* \"#utility.yul\":7:82   */\n      swap1\n      jump\t// out\n        /* \"#utility.yul\":88:205   */\n    tag_71:\n        /* \"#utility.yul\":197:198   */\n      0x00\n        /* \"#utility.yul\":194:195   */\n      dup1\n        /* \"#utility.yul\":187:199   */\n      revert\n        /* \"#utility.yul\":211:328   */\n    tag_72:\n        /* \"#utility.yul\":320:321   */\n      0x00\n        /* \"#utility.yul\":317:318   */\n      dup1\n        /* \"#utility.yul\":310:322   */\n      revert\n        /* \"#utility.yul\":334:460   */\n    tag_73:\n        /* \"#utility.yul\":371:378   */\n      0x00\n        /* \"#utility.yul\":411:453   */\n      0xffffffffffffffffffffffffffffffffffffffff\n        /* \"#utility.yul\":404:409   */\n      dup3\n        /* \"#utility.yul\":400:454   */\n      and\n        /* \"#utility.yul\":389:454   */\n      swap1\n      pop\n        /* \"#utility.yul\":334:460   */\n      swap2\n      swap1\n      pop\n      jump\t// out\n        /* \"#utility.yul\":466:562   */\n    tag_74:\n        /* \"#utility.yul\":503:510   */\n      0x00\n        /* \"#utility.yul\":532:556   */\n      tag_116\n        /* \"#utility.yul\":550:555   */\n      dup3\n        /* \"#utility.yul\":532:556   */\n      tag_73\n      jump\t// in\n    tag_116:\n        /* \"#utility.yul\":521:556   */\n      swap1\n      pop\n        /* \"#utility.yul\":466:562   */\n      swap2\n      swap1\n      pop\n      jump\t// out\n        /* \"#utility.yul\":568:690   */\n    tag_75:\n        /* \"#utility.yul\":641:665   */\n      tag_118\n        /* \"#utility.yul\":659:664   */\n      dup2\n        /* \"#utility.yul\":641:665   */\n      tag_74\n      jump\t// in\n    tag_118:\n        /* \"#utility.yul\":634:639   */\n      dup2\n        /* \"#utility.yul\":631:666   */\n      eq\n        /* \"#utility.yul\":621:684   */\n      tag_119\n      jumpi\n        /* \"#utility.yul\":680:681   */\n      0x00\n        /* \"#utility.yul\":677:678   */\n      dup1\n        /* \"#utility.yul\":670:682   */\n      revert\n        /* \"#utility.yul\":621:684   */\n    tag_119:\n        /* \"#utility.yul\":568:690   */\n      pop\n      jump\t// out\n        /* \"#utility.yul\":696:835   */\n    tag_76:\n        /* \"#utility.yul\":742:747   */\n      0x00\n        /* \"#utility.yul\":780:786   */\n      dup2\n        /* \"#utility.yul\":767:787   */\n      calldataload\n        /* \"#utility.yul\":758:787   */\n      swap1\n      pop\n        /* \"#utility.yul\":796:829   */\n      tag_121\n        /* \"#utility.yul\":823:828   */\n      dup2\n        /* \"#utility.yul\":796:829   */\n      tag_75\n      jump\t// in\n    tag_121:\n        /* \"#utility.yul\":696:835   */\n      swap3\n      swap2\n      pop\n      pop\n      jump\t// out\n        /* \"#utility.yul\":841:918   */\n    tag_77:\n        /* \"#utility.yul\":878:885   */\n      0x00\n        /* \"#utility.yul\":907:912   */\n      dup2\n        /* \"#utility.yul\":896:912   */\n      swap1\n      pop\n        /* \"#utility.yul\":841:918   */\n      swap2\n      swap1\n      pop\n      jump\t// out\n        /* \"#utility.yul\":924:1046   */\n    tag_78:\n        /* \"#utility.yul\":997:1021   */\n      tag_124\n        /* \"#utility.yul\":1015:1020   */\n      dup2\n        /* \"#utility.yul\":997:1021   */\n      tag_77\n      jump\t// in\n    tag_124:\n        /* \"#utility.yul\":990:995   */\n      dup2\n        /* \"#utility.yul\":987:1022   */\n      eq\n        /* \"#utility.yul\":977:1040   */\n      tag_125\n      jumpi\n        /* \"#utility.yul\":1036:1037   */\n      0x00\n        /* \"#utility.yul\":1033:1034   */\n      dup1\n        /* \"#utility.yul\":1026:1038   */\n      revert\n        /* \"#utility.yul\":977:1040   */\n    tag_125:\n        /* \"#utility.yul\":924:1046   */\n      pop\n      jump\t// out\n        /* \"#utility.yul\":1052:1191   */\n    tag_79:\n        /* \"#utility.yul\":1098:1103   */\n      0x00\n        /* \"#utility.yul\":1136:1142   */\n      dup2\n        /* \"#utility.yul\":1123:1143   */\n      calldataload\n        /* \"#utility.yul\":1114:1143   */\n      swap1\n      pop\n        /* \"#utility.yul\":1152:1185   */\n      tag_127\n        /* \"#utility.yul\":1179:1184   */\n      dup2\n        /* \"#utility.yul\":1152:1185   */\n      tag_78\n      jump\t// in\n    tag_127:\n        /* \"#utility.yul\":1052:1191   */\n      swap3\n      swap2\n      pop\n      pop\n      jump\t// out\n        /* \"#utility.yul\":1197:1671   */\n    tag_8:\n        /* \"#utility.yul\":1265:1271   */\n      0x00\n        /* \"#utility.yul\":1273:1279   */\n      dup1\n        /* \"#utility.yul\":1322:1324   */\n      0x40\n        /* \"#utility.yul\":1310:1319   */\n      dup4\n        /* \"#utility.yul\":1301:1308   */\n      dup6\n        /* \"#utility.yul\":1297:1320   */\n      sub\n        /* \"#utility.yul\":1293:1325   */\n      slt\n        /* \"#utility.yul\":1290:1409   */\n      iszero\n      tag_129\n      jumpi\n        /* \"#utility.yul\":1328:1407   */\n      tag_130\n      tag_71\n      jump\t// in\n    tag_130:\n        /* \"#utility.yul\":1290:1409   */\n    tag_129:\n        /* \"#utility.yul\":1448:1449   */\n      0x00\n        /* \"#utility.yul\":1473:1526   */\n      tag_131\n        /* \"#utility.yul\":1518:1525   */\n      dup6\n        /* \"#utility.yul\":1509:1515   */\n      dup3\n        /* \"#utility.yul\":1498:1507   */\n      dup7\n        /* \"#utility.yul\":1494:1516   */\n      add\n        /* \"#utility.yul\":1473:1526   */\n      tag_76\n      jump\t// in\n    tag_131:\n        /* \"#utility.yul\":1463:1526   */\n      swap3\n      pop\n        /* \"#utility.yul\":1419:1536   */\n      pop\n        /* \"#utility.yul\":1575:1577   */\n      0x20\n        /* \"#utility.yul\":1601:1654   */\n      tag_132\n        /* \"#utility.yul\":1646:1653   */\n      dup6\n        /* \"#utility.yul\":1637:1643   */\n      dup3\n        /* \"#utility.yul\":1626:1635   */\n      dup7\n        /* \"#utility.yul\":1622:1644   */\n      add\n        /* \"#utility.yul\":1601:1654   */\n      tag_79\n      jump\t// in\n    tag_132:\n        /* \"#utility.yul\":1591:1654   */\n      swap2\n      pop\n        /* \"#utility.yul\":1546:1664   */\n      pop\n        /* \"#utility.yul\":1197:1671   */\n      swap3\n      pop\n      swap3\n      swap1\n      pop\n      jump\t// out\n        /* \"#utility.yul\":1677:1795   */\n    tag_80:\n        /* \"#utility.yul\":1764:1788   */\n      tag_134\n        /* \"#utility.yul\":1782:1787   */\n      dup2\n        /* \"#utility.yul\":1764:1788   */\n      tag_77\n      jump\t// in\n    tag_134:\n        /* \"#utility.yul\":1759:1762   */\n      dup3\n        /* \"#utility.yul\":1752:1789   */\n      mstore\n        /* \"#utility.yul\":1677:1795   */\n      pop\n      pop\n      jump\t// out\n        /* \"#utility.yul\":1801:2023   */\n    tag_11:\n        /* \"#utility.yul\":1894:1898   */\n      0x00\n        /* \"#utility.yul\":1932:1934   */\n      0x20\n        /* \"#utility.yul\":1921:1930   */\n      dup3\n        /* \"#utility.yul\":1917:1935   */\n      add\n        /* \"#utility.yul\":1909:1935   */\n      swap1\n      pop\n        /* \"#utility.yul\":1945:2016   */\n      tag_136\n        /* \"#utility.yul\":2013:2014   */\n      0x00\n        /* \"#utility.yul\":2002:2011   */\n      dup4\n        /* \"#utility.yul\":1998:2015   */\n      add\n        /* \"#utility.yul\":1989:1995   */\n      dup5\n        /* \"#utility.yul\":1945:2016   */\n      tag_80\n      jump\t// in\n    tag_136:\n        /* \"#utility.yul\":1801:2023   */\n      swap3\n      swap2\n      pop\n      pop\n      jump\t// out\n        /* \"#utility.yul\":2029:2147   */\n    tag_81:\n        /* \"#utility.yul\":2116:2140   */\n      tag_138\n        /* \"#utility.yul\":2134:2139   */\n      dup2\n        /* \"#utility.yul\":2116:2140   */\n      tag_74\n      jump\t// in\n    tag_138:\n        /* \"#utility.yul\":2111:2114   */\n      dup3\n        /* \"#utility.yul\":2104:2141   */\n      mstore\n        /* \"#utility.yul\":2029:2147   */\n      pop\n      pop\n      jump\t// out\n        /* \"#utility.yul\":2153:2375   */\n    tag_15:\n        /* \"#utility.yul\":2246:2250   */\n      0x00\n        /* \"#utility.yul\":2284:2286   */\n      0x20\n        /* \"#utility.yul\":2273:2282   */\n      dup3\n        /* \"#utility.yul\":2269:2287   */\n      add\n        /* \"#utility.yul\":2261:2287   */\n      swap1\n      pop\n        /* \"#utility.yul\":2297:2368   */\n      tag_140\n        /* \"#utility.yul\":2365:2366   */\n      0x00\n        /* \"#utility.yul\":2354:2363   */\n      dup4\n        /* \"#utility.yul\":2350:2367   */\n      add\n        /* \"#utility.yul\":2341:2347   */\n      dup5\n        /* \"#utility.yul\":2297:2368   */\n      tag_81\n      jump\t// in\n    tag_140:\n        /* \"#utility.yul\":2153:2375   */\n      swap3\n      swap2\n      pop\n      pop\n      jump\t// out\n        /* \"#utility.yul\":2381:2710   */\n    tag_18:\n        /* \"#utility.yul\":2440:2446   */\n      0x00\n        /* \"#utility.yul\":2489:2491   */\n      0x20\n        /* \"#utility.yul\":2477:2486   */\n      dup3\n        /* \"#utility.yul\":2468:2475   */\n      dup5\n        /* \"#utility.yul\":2464:2487   */\n      sub\n        /* \"#utility.yul\":2460:2492   */\n      slt\n        /* \"#utility.yul\":2457:2576   */\n      iszero\n      tag_142\n      jumpi\n        /* \"#utility.yul\":2495:2574   */\n      tag_143\n      tag_71\n      jump\t// in\n    tag_143:\n        /* \"#utility.yul\":2457:2576   */\n    tag_142:\n        /* \"#utility.yul\":2615:2616   */\n      0x00\n        /* \"#utility.yul\":2640:2693   */\n      tag_144\n        /* \"#utility.yul\":2685:2692   */\n      dup5\n        /* \"#utility.yul\":2676:2682   */\n      dup3\n        /* \"#utility.yul\":2665:2674   */\n      dup6\n        /* \"#utility.yul\":2661:2683   */\n      add\n        /* \"#utility.yul\":2640:2693   */\n      tag_76\n      jump\t// in\n    tag_144:\n        /* \"#utility.yul\":2630:2693   */\n      swap2\n      pop\n        /* \"#utility.yul\":2586:2703   */\n      pop\n        /* \"#utility.yul\":2381:2710   */\n      swap3\n      swap2\n      pop\n      pop\n      jump\t// out\n        /* \"#utility.yul\":2716:2833   */\n    tag_82:\n        /* \"#utility.yul\":2825:2826   */\n      0x00\n        /* \"#utility.yul\":2822:2823   */\n      dup1\n        /* \"#utility.yul\":2815:2827   */\n      revert\n        /* \"#utility.yul\":2839:2941   */\n    tag_83:\n        /* \"#utility.yul\":2880:2886   */\n      0x00\n        /* \"#utility.yul\":2931:2933   */\n      0x1f\n        /* \"#utility.yul\":2927:2934   */\n      not\n        /* \"#utility.yul\":2922:2924   */\n      0x1f\n        /* \"#utility.yul\":2915:2920   */\n      dup4\n        /* \"#utility.yul\":2911:2925   */\n      add\n        /* \"#utility.yul\":2907:2935   */\n      and\n        /* \"#utility.yul\":2897:2935   */\n      swap1\n      pop\n        /* \"#utility.yul\":2839:2941   */\n      swap2\n      swap1\n      pop\n      jump\t// out\n        /* \"#utility.yul\":2947:3127   */\n    tag_84:\n        /* \"#utility.yul\":2995:3072   */\n      0x4e487b7100000000000000000000000000000000000000000000000000000000\n        /* \"#utility.yul\":2992:2993   */\n      0x00\n        /* \"#utility.yul\":2985:3073   */\n      mstore\n        /* \"#utility.yul\":3092:3096   */\n      0x41\n        /* \"#utility.yul\":3089:3090   */\n      0x04\n        /* \"#utility.yul\":3082:3097   */\n      mstore\n        /* \"#utility.yul\":3116:3120   */\n      0x24\n        /* \"#utility.yul\":3113:3114   */\n      0x00\n        /* \"#utility.yul\":3106:3121   */\n      revert\n        /* \"#utility.yul\":3133:3414   */\n    tag_85:\n        /* \"#utility.yul\":3216:3243   */\n      tag_149\n        /* \"#utility.yul\":3238:3242   */\n      dup3\n        /* \"#utility.yul\":3216:3243   */\n      tag_83\n      jump\t// in\n    tag_149:\n        /* \"#utility.yul\":3208:3214   */\n      dup2\n        /* \"#utility.yul\":3204:3244   */\n      add\n        /* \"#utility.yul\":3346:3352   */\n      dup2\n        /* \"#utility.yul\":3334:3344   */\n      dup2\n        /* \"#utility.yul\":3331:3353   */\n      lt\n        /* \"#utility.yul\":3310:3328   */\n      0xffffffffffffffff\n        /* \"#utility.yul\":3298:3308   */\n      dup3\n        /* \"#utility.yul\":3295:3329   */\n      gt\n        /* \"#utility.yul\":3292:3354   */\n      or\n        /* \"#utility.yul\":3289:3377   */\n      iszero\n      tag_150\n      jumpi\n        /* \"#utility.yul\":3357:3375   */\n      tag_151\n      tag_84\n      jump\t// in\n    tag_151:\n        /* \"#utility.yul\":3289:3377   */\n    tag_150:\n        /* \"#utility.yul\":3397:3407   */\n      dup1\n        /* \"#utility.yul\":3393:3395   */\n      0x40\n        /* \"#utility.yul\":3386:3408   */\n      mstore\n        /* \"#utility.yul\":3176:3414   */\n      pop\n        /* \"#utility.yul\":3133:3414   */\n      pop\n      pop\n      jump\t// out\n        /* \"#utility.yul\":3420:3549   */\n    tag_86:\n        /* \"#utility.yul\":3454:3460   */\n      0x00\n        /* \"#utility.yul\":3481:3501   */\n      tag_153\n      tag_70\n      jump\t// in\n    tag_153:\n        /* \"#utility.yul\":3471:3501   */\n      swap1\n      pop\n        /* \"#utility.yul\":3510:3543   */\n      tag_154\n        /* \"#utility.yul\":3538:3542   */\n      dup3\n        /* \"#utility.yul\":3530:3536   */\n      dup3\n        /* \"#utility.yul\":3510:3543   */\n      tag_85\n      jump\t// in\n    tag_154:\n        /* \"#utility.yul\":3420:3549   */\n      swap2\n      swap1\n      pop\n      jump\t// out\n        /* \"#utility.yul\":3555:3866   */\n    tag_87:\n        /* \"#utility.yul\":3632:3636   */\n      0x00\n        /* \"#utility.yul\":3722:3740   */\n      0xffffffffffffffff\n        /* \"#utility.yul\":3714:3720   */\n      dup3\n        /* \"#utility.yul\":3711:3741   */\n      gt\n        /* \"#utility.yul\":3708:3764   */\n      iszero\n      tag_156\n      jumpi\n        /* \"#utility.yul\":3744:3762   */\n      tag_157\n      tag_84\n      jump\t// in\n    tag_157:\n        /* \"#utility.yul\":3708:3764   */\n    tag_156:\n        /* \"#utility.yul\":3794:3798   */\n      0x20\n        /* \"#utility.yul\":3786:3792   */\n      dup3\n        /* \"#utility.yul\":3782:3799   */\n      mul\n        /* \"#utility.yul\":3774:3799   */\n      swap1\n      pop\n        /* \"#utility.yul\":3854:3858   */\n      0x20\n        /* \"#utility.yul\":3848:3852   */\n      dup2\n        /* \"#utility.yul\":3844:3859   */\n      add\n        /* \"#utility.yul\":3836:3859   */\n      swap1\n      pop\n        /* \"#utility.yul\":3555:3866   */\n      swap2\n      swap1\n      pop\n      jump\t// out\n        /* \"#utility.yul\":3872:3989   */\n    tag_88:\n        /* \"#utility.yul\":3981:3982   */\n      0x00\n        /* \"#utility.yul\":3978:3979   */\n      dup1\n        /* \"#utility.yul\":3971:3983   */\n      revert\n        /* \"#utility.yul\":3995:4138   */\n    tag_89:\n        /* \"#utility.yul\":4052:4057   */\n      0x00\n        /* \"#utility.yul\":4083:4089   */\n      dup2\n        /* \"#utility.yul\":4077:4090   */\n      mload\n        /* \"#utility.yul\":4068:4090   */\n      swap1\n      pop\n        /* \"#utility.yul\":4099:4132   */\n      tag_160\n        /* \"#utility.yul\":4126:4131   */\n      dup2\n        /* \"#utility.yul\":4099:4132   */\n      tag_75\n      jump\t// in\n    tag_160:\n        /* \"#utility.yul\":3995:4138   */\n      swap3\n      swap2\n      pop\n      pop\n      jump\t// out\n        /* \"#utility.yul\":4161:4893   */\n    tag_90:\n        /* \"#utility.yul\":4268:4273   */\n      0x00\n        /* \"#utility.yul\":4293:4374   */\n      tag_162\n        /* \"#utility.yul\":4309:4373   */\n      tag_163\n        /* \"#utility.yul\":4366:4372   */\n      dup5\n        /* \"#utility.yul\":4309:4373   */\n      tag_87\n      jump\t// in\n    tag_163:\n        /* \"#utility.yul\":4293:4374   */\n      tag_86\n      jump\t// in\n    tag_162:\n        /* \"#utility.yul\":4284:4374   */\n      swap1\n      pop\n        /* \"#utility.yul\":4394:4399   */\n      dup1\n        /* \"#utility.yul\":4423:4429   */\n      dup4\n        /* \"#utility.yul\":4416:4421   */\n      dup3\n        /* \"#utility.yul\":4409:4430   */\n      mstore\n        /* \"#utility.yul\":4457:4461   */\n      0x20\n        /* \"#utility.yul\":4450:4455   */\n      dup3\n        /* \"#utility.yul\":4446:4462   */\n      add\n        /* \"#utility.yul\":4439:4462   */\n      swap1\n      pop\n        /* \"#utility.yul\":4510:4514   */\n      0x20\n        /* \"#utility.yul\":4502:4508   */\n      dup5\n        /* \"#utility.yul\":4498:4515   */\n      mul\n        /* \"#utility.yul\":4490:4496   */\n      dup4\n        /* \"#utility.yul\":4486:4516   */\n      add\n        /* \"#utility.yul\":4539:4542   */\n      dup6\n        /* \"#utility.yul\":4531:4537   */\n      dup2\n        /* \"#utility.yul\":4528:4543   */\n      gt\n        /* \"#utility.yul\":4525:4647   */\n      iszero\n      tag_164\n      jumpi\n        /* \"#utility.yul\":4558:4637   */\n      tag_165\n      tag_88\n      jump\t// in\n    tag_165:\n        /* \"#utility.yul\":4525:4647   */\n    tag_164:\n        /* \"#utility.yul\":4673:4679   */\n      dup4\n        /* \"#utility.yul\":4656:4887   */\n    tag_166:\n        /* \"#utility.yul\":4690:4696   */\n      dup2\n        /* \"#utility.yul\":4685:4688   */\n      dup2\n        /* \"#utility.yul\":4682:4697   */\n      lt\n        /* \"#utility.yul\":4656:4887   */\n      iszero\n      tag_168\n      jumpi\n        /* \"#utility.yul\":4765:4768   */\n      dup1\n        /* \"#utility.yul\":4794:4842   */\n      tag_169\n        /* \"#utility.yul\":4838:4841   */\n      dup9\n        /* \"#utility.yul\":4826:4836   */\n      dup3\n        /* \"#utility.yul\":4794:4842   */\n      tag_89\n      jump\t// in\n    tag_169:\n        /* \"#utility.yul\":4789:4792   */\n      dup5\n        /* \"#utility.yul\":4782:4843   */\n      mstore\n        /* \"#utility.yul\":4872:4876   */\n      0x20\n        /* \"#utility.yul\":4867:4870   */\n      dup5\n        /* \"#utility.yul\":4863:4877   */\n      add\n        /* \"#utility.yul\":4856:4877   */\n      swap4\n      pop\n        /* \"#utility.yul\":4732:4887   */\n      pop\n        /* \"#utility.yul\":4716:4720   */\n      0x20\n        /* \"#utility.yul\":4711:4714   */\n      dup2\n        /* \"#utility.yul\":4707:4721   */\n      add\n        /* \"#utility.yul\":4700:4721   */\n      swap1\n      pop\n        /* \"#utility.yul\":4656:4887   */\n      jump(tag_166)\n    tag_168:\n        /* \"#utility.yul\":4660:4681   */\n      pop\n        /* \"#utility.yul\":4274:4893   */\n      pop\n      pop\n        /* \"#utility.yul\":4161:4893   */\n      swap4\n      swap3\n      pop\n      pop\n      pop\n      jump\t// out\n        /* \"#utility.yul\":4916:5301   */\n    tag_91:\n        /* \"#utility.yul\":4998:5003   */\n      0x00\n        /* \"#utility.yul\":5047:5050   */\n      dup3\n        /* \"#utility.yul\":5040:5044   */\n      0x1f\n        /* \"#utility.yul\":5032:5038   */\n      dup4\n        /* \"#utility.yul\":5028:5045   */\n      add\n        /* \"#utility.yul\":5024:5051   */\n      slt\n        /* \"#utility.yul\":5014:5136   */\n      tag_171\n      jumpi\n        /* \"#utility.yul\":5055:5134   */\n      tag_172\n      tag_82\n      jump\t// in\n    tag_172:\n        /* \"#utility.yul\":5014:5136   */\n    tag_171:\n        /* \"#utility.yul\":5165:5171   */\n      dup2\n        /* \"#utility.yul\":5159:5172   */\n      mload\n        /* \"#utility.yul\":5190:5295   */\n      tag_173\n        /* \"#utility.yul\":5291:5294   */\n      dup5\n        /* \"#utility.yul\":5283:5289   */\n      dup3\n        /* \"#utility.yul\":5276:5280   */\n      0x20\n        /* \"#utility.yul\":5268:5274   */\n      dup7\n        /* \"#utility.yul\":5264:5281   */\n      add\n        /* \"#utility.yul\":5190:5295   */\n      tag_90\n      jump\t// in\n    tag_173:\n        /* \"#utility.yul\":5181:5295   */\n      swap2\n      pop\n        /* \"#utility.yul\":5004:5301   */\n      pop\n        /* \"#utility.yul\":4916:5301   */\n      swap3\n      swap2\n      pop\n      pop\n      jump\t// out\n        /* \"#utility.yul\":5307:5861   */\n    tag_29:\n        /* \"#utility.yul\":5402:5408   */\n      0x00\n        /* \"#utility.yul\":5451:5453   */\n      0x20\n        /* \"#utility.yul\":5439:5448   */\n      dup3\n        /* \"#utility.yul\":5430:5437   */\n      dup5\n        /* \"#utility.yul\":5426:5449   */\n      sub\n        /* \"#utility.yul\":5422:5454   */\n      slt\n        /* \"#utility.yul\":5419:5538   */\n      iszero\n      tag_175\n      jumpi\n        /* \"#utility.yul\":5457:5536   */\n      tag_176\n      tag_71\n      jump\t// in\n    tag_176:\n        /* \"#utility.yul\":5419:5538   */\n    tag_175:\n        /* \"#utility.yul\":5598:5599   */\n      0x00\n        /* \"#utility.yul\":5587:5596   */\n      dup3\n        /* \"#utility.yul\":5583:5600   */\n      add\n        /* \"#utility.yul\":5577:5601   */\n      mload\n        /* \"#utility.yul\":5628:5646   */\n      0xffffffffffffffff\n        /* \"#utility.yul\":5620:5626   */\n      dup2\n        /* \"#utility.yul\":5617:5647   */\n      gt\n        /* \"#utility.yul\":5614:5731   */\n      iszero\n      tag_177\n      jumpi\n        /* \"#utility.yul\":5650:5729   */\n      tag_178\n      tag_72\n      jump\t// in\n    tag_178:\n        /* \"#utility.yul\":5614:5731   */\n    tag_177:\n        /* \"#utility.yul\":5755:5844   */\n      tag_179\n        /* \"#utility.yul\":5836:5843   */\n      dup5\n        /* \"#utility.yul\":5827:5833   */\n      dup3\n        /* \"#utility.yul\":5816:5825   */\n      dup6\n        /* \"#utility.yul\":5812:5834   */\n      add\n        /* \"#utility.yul\":5755:5844   */\n      tag_91\n      jump\t// in\n    tag_179:\n        /* \"#utility.yul\":5745:5844   */\n      swap2\n      pop\n        /* \"#utility.yul\":5548:5854   */\n      pop\n        /* \"#utility.yul\":5307:5861   */\n      swap3\n      swap2\n      pop\n      pop\n      jump\t// out\n        /* \"#utility.yul\":5867:6178   */\n    tag_92:\n        /* \"#utility.yul\":5944:5948   */\n      0x00\n        /* \"#utility.yul\":6034:6052   */\n      0xffffffffffffffff\n        /* \"#utility.yul\":6026:6032   */\n      dup3\n        /* \"#utility.yul\":6023:6053   */\n      gt\n        /* \"#utility.yul\":6020:6076   */\n      iszero\n      tag_181\n      jumpi\n        /* \"#utility.yul\":6056:6074   */\n      tag_182\n      tag_84\n      jump\t// in\n    tag_182:\n        /* \"#utility.yul\":6020:6076   */\n    tag_181:\n        /* \"#utility.yul\":6106:6110   */\n      0x20\n        /* \"#utility.yul\":6098:6104   */\n      dup3\n        /* \"#utility.yul\":6094:6111   */\n      mul\n        /* \"#utility.yul\":6086:6111   */\n      swap1\n      pop\n        /* \"#utility.yul\":6166:6170   */\n      0x20\n        /* \"#utility.yul\":6160:6164   */\n      dup2\n        /* \"#utility.yul\":6156:6171   */\n      add\n        /* \"#utility.yul\":6148:6171   */\n      swap1\n      pop\n        /* \"#utility.yul\":5867:6178   */\n      swap2\n      swap1\n      pop\n      jump\t// out\n        /* \"#utility.yul\":6184:6327   */\n    tag_93:\n        /* \"#utility.yul\":6241:6246   */\n      0x00\n        /* \"#utility.yul\":6272:6278   */\n      dup2\n        /* \"#utility.yul\":6266:6279   */\n      mload\n        /* \"#utility.yul\":6257:6279   */\n      swap1\n      pop\n        /* \"#utility.yul\":6288:6321   */\n      tag_184\n        /* \"#utility.yul\":6315:6320   */\n      dup2\n        /* \"#utility.yul\":6288:6321   */\n      tag_78\n      jump\t// in\n    tag_184:\n        /* \"#utility.yul\":6184:6327   */\n      swap3\n      swap2\n      pop\n      pop\n      jump\t// out\n        /* \"#utility.yul\":6350:7082   */\n    tag_94:\n        /* \"#utility.yul\":6457:6462   */\n      0x00\n        /* \"#utility.yul\":6482:6563   */\n      tag_186\n        /* \"#utility.yul\":6498:6562   */\n      tag_187\n        /* \"#utility.yul\":6555:6561   */\n      dup5\n        /* \"#utility.yul\":6498:6562   */\n      tag_92\n      jump\t// in\n    tag_187:\n        /* \"#utility.yul\":6482:6563   */\n      tag_86\n      jump\t// in\n    tag_186:\n        /* \"#utility.yul\":6473:6563   */\n      swap1\n      pop\n        /* \"#utility.yul\":6583:6588   */\n      dup1\n        /* \"#utility.yul\":6612:6618   */\n      dup4\n        /* \"#utility.yul\":6605:6610   */\n      dup3\n        /* \"#utility.yul\":6598:6619   */\n      mstore\n        /* \"#utility.yul\":6646:6650   */\n      0x20\n        /* \"#utility.yul\":6639:6644   */\n      dup3\n        /* \"#utility.yul\":6635:6651   */\n      add\n        /* \"#utility.yul\":6628:6651   */\n      swap1\n      pop\n        /* \"#utility.yul\":6699:6703   */\n      0x20\n        /* \"#utility.yul\":6691:6697   */\n      dup5\n        /* \"#utility.yul\":6687:6704   */\n      mul\n        /* \"#utility.yul\":6679:6685   */\n      dup4\n        /* \"#utility.yul\":6675:6705   */\n      add\n        /* \"#utility.yul\":6728:6731   */\n      dup6\n        /* \"#utility.yul\":6720:6726   */\n      dup2\n        /* \"#utility.yul\":6717:6732   */\n      gt\n        /* \"#utility.yul\":6714:6836   */\n      iszero\n      tag_188\n      jumpi\n        /* \"#utility.yul\":6747:6826   */\n      tag_189\n      tag_88\n      jump\t// in\n    tag_189:\n        /* \"#utility.yul\":6714:6836   */\n    tag_188:\n        /* \"#utility.yul\":6862:6868   */\n      dup4\n        /* \"#utility.yul\":6845:7076   */\n    tag_190:\n        /* \"#utility.yul\":6879:6885   */\n      dup2\n        /* \"#utility.yul\":6874:6877   */\n      dup2\n        /* \"#utility.yul\":6871:6886   */\n      lt\n        /* \"#utility.yul\":6845:7076   */\n      iszero\n      tag_192\n      jumpi\n        /* \"#utility.yul\":6954:6957   */\n      dup1\n        /* \"#utility.yul\":6983:7031   */\n      tag_193\n        /* \"#utility.yul\":7027:7030   */\n      dup9\n        /* \"#utility.yul\":7015:7025   */\n      dup3\n        /* \"#utility.yul\":6983:7031   */\n      tag_93\n      jump\t// in\n    tag_193:\n        /* \"#utility.yul\":6978:6981   */\n      dup5\n        /* \"#utility.yul\":6971:7032   */\n      mstore\n        /* \"#utility.yul\":7061:7065   */\n      0x20\n        /* \"#utility.yul\":7056:7059   */\n      dup5\n        /* \"#utility.yul\":7052:7066   */\n      add\n        /* \"#utility.yul\":7045:7066   */\n      swap4\n      pop\n        /* \"#utility.yul\":6921:7076   */\n      pop\n        /* \"#utility.yul\":6905:6909   */\n      0x20\n        /* \"#utility.yul\":6900:6903   */\n      dup2\n        /* \"#utility.yul\":6896:6910   */\n      add\n        /* \"#utility.yul\":6889:6910   */\n      swap1\n      pop\n        /* \"#utility.yul\":6845:7076   */\n      jump(tag_190)\n    tag_192:\n        /* \"#utility.yul\":6849:6870   */\n      pop\n        /* \"#utility.yul\":6463:7082   */\n      pop\n      pop\n        /* \"#utility.yul\":6350:7082   */\n      swap4\n      swap3\n      pop\n      pop\n      pop\n      jump\t// out\n        /* \"#utility.yul\":7105:7490   */\n    tag_95:\n        /* \"#utility.yul\":7187:7192   */\n      0x00\n        /* \"#utility.yul\":7236:7239   */\n      dup3\n        /* \"#utility.yul\":7229:7233   */\n      0x1f\n        /* \"#utility.yul\":7221:7227   */\n      dup4\n        /* \"#utility.yul\":7217:7234   */\n      add\n        /* \"#utility.yul\":7213:7240   */\n      slt\n        /* \"#utility.yul\":7203:7325   */\n      tag_195\n      jumpi\n        /* \"#utility.yul\":7244:7323   */\n      tag_196\n      tag_82\n      jump\t// in\n    tag_196:\n        /* \"#utility.yul\":7203:7325   */\n    tag_195:\n        /* \"#utility.yul\":7354:7360   */\n      dup2\n        /* \"#utility.yul\":7348:7361   */\n      mload\n        /* \"#utility.yul\":7379:7484   */\n      tag_197\n        /* \"#utility.yul\":7480:7483   */\n      dup5\n        /* \"#utility.yul\":7472:7478   */\n      dup3\n        /* \"#utility.yul\":7465:7469   */\n      0x20\n        /* \"#utility.yul\":7457:7463   */\n      dup7\n        /* \"#utility.yul\":7453:7470   */\n      add\n        /* \"#utility.yul\":7379:7484   */\n      tag_94\n      jump\t// in\n    tag_197:\n        /* \"#utility.yul\":7370:7484   */\n      swap2\n      pop\n        /* \"#utility.yul\":7193:7490   */\n      pop\n        /* \"#utility.yul\":7105:7490   */\n      swap3\n      swap2\n      pop\n      pop\n      jump\t// out\n        /* \"#utility.yul\":7496:8050   */\n    tag_34:\n        /* \"#utility.yul\":7591:7597   */\n      0x00\n        /* \"#utility.yul\":7640:7642   */\n      0x20\n        /* \"#utility.yul\":7628:7637   */\n      dup3\n        /* \"#utility.yul\":7619:7626   */\n      dup5\n        /* \"#utility.yul\":7615:7638   */\n      sub\n        /* \"#utility.yul\":7611:7643   */\n      slt\n        /* \"#utility.yul\":7608:7727   */\n      iszero\n      tag_199\n      jumpi\n        /* \"#utility.yul\":7646:7725   */\n      tag_200\n      tag_71\n      jump\t// in\n    tag_200:\n        /* \"#utility.yul\":7608:7727   */\n    tag_199:\n        /* \"#utility.yul\":7787:7788   */\n      0x00\n        /* \"#utility.yul\":7776:7785   */\n      dup3\n        /* \"#utility.yul\":7772:7789   */\n      add\n        /* \"#utility.yul\":7766:7790   */\n      mload\n        /* \"#utility.yul\":7817:7835   */\n      0xffffffffffffffff\n        /* \"#utility.yul\":7809:7815   */\n      dup2\n        /* \"#utility.yul\":7806:7836   */\n      gt\n        /* \"#utility.yul\":7803:7920   */\n      iszero\n      tag_201\n      jumpi\n        /* \"#utility.yul\":7839:7918   */\n      tag_202\n      tag_72\n      jump\t// in\n    tag_202:\n        /* \"#utility.yul\":7803:7920   */\n    tag_201:\n        /* \"#utility.yul\":7944:8033   */\n      tag_203\n        /* \"#utility.yul\":8025:8032   */\n      dup5\n        /* \"#utility.yul\":8016:8022   */\n      dup3\n        /* \"#utility.yul\":8005:8014   */\n      dup6\n        /* \"#utility.yul\":8001:8023   */\n      add\n        /* \"#utility.yul\":7944:8033   */\n      tag_95\n      jump\t// in\n    tag_203:\n        /* \"#utility.yul\":7934:8033   */\n      swap2\n      pop\n        /* \"#utility.yul\":7737:8043   */\n      pop\n        /* \"#utility.yul\":7496:8050   */\n      swap3\n      swap2\n      pop\n      pop\n      jump\t// out\n        /* \"#utility.yul\":8056:8236   */\n    tag_41:\n        /* \"#utility.yul\":8104:8181   */\n      0x4e487b7100000000000000000000000000000000000000000000000000000000\n        /* \"#utility.yul\":8101:8102   */\n      0x00\n        /* \"#utility.yul\":8094:8182   */\n      mstore\n        /* \"#utility.yul\":8201:8205   */\n      0x32\n        /* \"#utility.yul\":8198:8199   */\n      0x04\n        /* \"#utility.yul\":8191:8206   */\n      mstore\n        /* \"#utility.yul\":8225:8229   */\n      0x24\n        /* \"#utility.yul\":8222:8223   */\n      0x00\n        /* \"#utility.yul\":8215:8230   */\n      revert\n        /* \"#utility.yul\":8242:8422   */\n    tag_96:\n        /* \"#utility.yul\":8290:8367   */\n      0x4e487b7100000000000000000000000000000000000000000000000000000000\n        /* \"#utility.yul\":8287:8288   */\n      0x00\n        /* \"#utility.yul\":8280:8368   */\n      mstore\n        /* \"#utility.yul\":8387:8391   */\n      0x11\n        /* \"#utility.yul\":8384:8385   */\n      0x04\n        /* \"#utility.yul\":8377:8392   */\n      mstore\n        /* \"#utility.yul\":8411:8415   */\n      0x24\n        /* \"#utility.yul\":8408:8409   */\n      0x00\n        /* \"#utility.yul\":8401:8416   */\n      revert\n        /* \"#utility.yul\":8428:8838   */\n    tag_46:\n        /* \"#utility.yul\":8468:8475   */\n      0x00\n        /* \"#utility.yul\":8491:8511   */\n      tag_207\n        /* \"#utility.yul\":8509:8510   */\n      dup3\n        /* \"#utility.yul\":8491:8511   */\n      tag_77\n      jump\t// in\n    tag_207:\n        /* \"#utility.yul\":8486:8511   */\n      swap2\n      pop\n        /* \"#utility.yul\":8525:8545   */\n      tag_208\n        /* \"#utility.yul\":8543:8544   */\n      dup4\n        /* \"#utility.yul\":8525:8545   */\n      tag_77\n      jump\t// in\n    tag_208:\n        /* \"#utility.yul\":8520:8545   */\n      swap3\n      pop\n        /* \"#utility.yul\":8580:8581   */\n      dup3\n        /* \"#utility.yul\":8577:8578   */\n      dup3\n        /* \"#utility.yul\":8573:8582   */\n      mul\n        /* \"#utility.yul\":8602:8632   */\n      tag_209\n        /* \"#utility.yul\":8620:8631   */\n      dup2\n        /* \"#utility.yul\":8602:8632   */\n      tag_77\n      jump\t// in\n    tag_209:\n        /* \"#utility.yul\":8591:8632   */\n      swap2\n      pop\n        /* \"#utility.yul\":8781:8782   */\n      dup3\n        /* \"#utility.yul\":8772:8779   */\n      dup3\n        /* \"#utility.yul\":8768:8783   */\n      div\n        /* \"#utility.yul\":8765:8766   */\n      dup5\n        /* \"#utility.yul\":8762:8784   */\n      eq\n        /* \"#utility.yul\":8742:8743   */\n      dup4\n        /* \"#utility.yul\":8735:8744   */\n      iszero\n        /* \"#utility.yul\":8715:8798   */\n      or\n        /* \"#utility.yul\":8692:8831   */\n      tag_210\n      jumpi\n        /* \"#utility.yul\":8811:8829   */\n      tag_211\n      tag_96\n      jump\t// in\n    tag_211:\n        /* \"#utility.yul\":8692:8831   */\n    tag_210:\n        /* \"#utility.yul\":8476:8838   */\n      pop\n        /* \"#utility.yul\":8428:8838   */\n      swap3\n      swap2\n      pop\n      pop\n      jump\t// out\n        /* \"#utility.yul\":8844:9035   */\n    tag_48:\n        /* \"#utility.yul\":8884:8887   */\n      0x00\n        /* \"#utility.yul\":8903:8923   */\n      tag_213\n        /* \"#utility.yul\":8921:8922   */\n      dup3\n        /* \"#utility.yul\":8903:8923   */\n      tag_77\n      jump\t// in\n    tag_213:\n        /* \"#utility.yul\":8898:8923   */\n      swap2\n      pop\n        /* \"#utility.yul\":8937:8957   */\n      tag_214\n        /* \"#utility.yul\":8955:8956   */\n      dup4\n        /* \"#utility.yul\":8937:8957   */\n      tag_77\n      jump\t// in\n    tag_214:\n        /* \"#utility.yul\":8932:8957   */\n      swap3\n      pop\n        /* \"#utility.yul\":8980:8981   */\n      dup3\n        /* \"#utility.yul\":8977:8978   */\n      dup3\n        /* \"#utility.yul\":8973:8982   */\n      add\n        /* \"#utility.yul\":8966:8982   */\n      swap1\n      pop\n        /* \"#utility.yul\":9001:9004   */\n      dup1\n        /* \"#utility.yul\":8998:8999   */\n      dup3\n        /* \"#utility.yul\":8995:9005   */\n      gt\n        /* \"#utility.yul\":8992:9028   */\n      iszero\n      tag_215\n      jumpi\n        /* \"#utility.yul\":9008:9026   */\n      tag_216\n      tag_96\n      jump\t// in\n    tag_216:\n        /* \"#utility.yul\":8992:9028   */\n    tag_215:\n        /* \"#utility.yul\":8844:9035   */\n      swap3\n      swap2\n      pop\n      pop\n      jump\t// out\n        /* \"#utility.yul\":9041:9274   */\n    tag_50:\n        /* \"#utility.yul\":9080:9083   */\n      0x00\n        /* \"#utility.yul\":9103:9127   */\n      tag_218\n        /* \"#utility.yul\":9121:9126   */\n      dup3\n        /* \"#utility.yul\":9103:9127   */\n      tag_77\n      jump\t// in\n    tag_218:\n        /* \"#utility.yul\":9094:9127   */\n      swap2\n      pop\n        /* \"#utility.yul\":9149:9215   */\n      0xffffffffffffffffffffffffffffffffffffffffffffffffffffffffffffffff\n        /* \"#utility.yul\":9142:9147   */\n      dup3\n        /* \"#utility.yul\":9139:9216   */\n      sub\n        /* \"#utility.yul\":9136:9239   */\n      tag_219\n      jumpi\n        /* \"#utility.yul\":9219:9237   */\n      tag_220\n      tag_96\n      jump\t// in\n    tag_220:\n        /* \"#utility.yul\":9136:9239   */\n    tag_219:\n        /* \"#utility.yul\":9266:9267   */\n      0x01\n        /* \"#utility.yul\":9259:9264   */\n      dup3\n        /* \"#utility.yul\":9255:9268   */\n      add\n        /* \"#utility.yul\":9248:9268   */\n      swap1\n      pop\n        /* \"#utility.yul\":9041:9274   */\n      swap2\n      swap1\n      pop\n      jump\t// out\n        /* \"#utility.yul\":9280:9366   */\n    tag_97:\n        /* \"#utility.yul\":9315:9322   */\n      0x00\n        /* \"#utility.yul\":9355:9359   */\n      0xff\n        /* \"#utility.yul\":9348:9353   */\n      dup3\n        /* \"#utility.yul\":9344:9360   */\n      and\n        /* \"#utility.yul\":9333:9360   */\n      swap1\n      pop\n        /* \"#utility.yul\":9280:9366   */\n      swap2\n      swap1\n      pop\n      jump\t// out\n        /* \"#utility.yul\":9372:9490   */\n    tag_98:\n        /* \"#utility.yul\":9443:9465   */\n      tag_223\n        /* \"#utility.yul\":9459:9464   */\n      dup2\n        /* \"#utility.yul\":9443:9465   */\n      tag_97\n      jump\t// in\n    tag_223:\n        /* \"#utility.yul\":9436:9441   */\n      dup2\n        /* \"#utility.yul\":9433:9466   */\n      eq\n        /* \"#utility.yul\":9423:9484   */\n      tag_224\n      jumpi\n        /* \"#utility.yul\":9480:9481   */\n      0x00\n        /* \"#utility.yul\":9477:9478   */\n      dup1\n        /* \"#utility.yul\":9470:9482   */\n      revert\n        /* \"#utility.yul\":9423:9484   */\n    tag_224:\n        /* \"#utility.yul\":9372:9490   */\n      pop\n      jump\t// out\n        /* \"#utility.yul\":9496:9635   */\n    tag_99:\n        /* \"#utility.yul\":9551:9556   */\n      0x00\n        /* \"#utility.yul\":9582:9588   */\n      dup2\n        /* \"#utility.yul\":9576:9589   */\n      mload\n        /* \"#utility.yul\":9567:9589   */\n      swap1\n      pop\n        /* \"#utility.yul\":9598:9629   */\n      tag_226\n        /* \"#utility.yul\":9623:9628   */\n      dup2\n        /* \"#utility.yul\":9598:9629   */\n      tag_98\n      jump\t// in\n    tag_226:\n        /* \"#utility.yul\":9496:9635   */\n      swap3\n      swap2\n      pop\n      pop\n      jump\t// out\n        /* \"#utility.yul\":9641:9988   */\n    tag_57:\n        /* \"#utility.yul\":9709:9715   */\n      0x00\n        /* \"#utility.yul\":9758:9760   */\n      0x20\n        /* \"#utility.yul\":9746:9755   */\n      dup3\n        /* \"#utility.yul\":9737:9744   */\n      dup5\n        /* \"#utility.yul\":9733:9756   */\n      sub\n        /* \"#utility.yul\":9729:9761   */\n      slt\n        /* \"#utility.yul\":9726:9845   */\n      iszero\n      tag_228\n      jumpi\n        /* \"#utility.yul\":9764:9843   */\n      tag_229\n      tag_71\n      jump\t// in\n    tag_229:\n        /* \"#utility.yul\":9726:9845   */\n    tag_228:\n        /* \"#utility.yul\":9884:9885   */\n      0x00\n        /* \"#utility.yul\":9909:9971   */\n      tag_230\n        /* \"#utility.yul\":9963:9970   */\n      dup5\n        /* \"#utility.yul\":9954:9960   */\n      dup3\n        /* \"#utility.yul\":9943:9952   */\n      dup6\n        /* \"#utility.yul\":9939:9961   */\n      add\n        /* \"#utility.yul\":9909:9971   */\n      tag_99\n      jump\t// in\n    tag_230:\n        /* \"#utility.yul\":9899:9971   */\n      swap2\n      pop\n        /* \"#utility.yul\":9855:9981   */\n      pop\n        /* \"#utility.yul\":9641:9988   */\n      swap3\n      swap2\n      pop\n      pop\n      jump\t// out\n        /* \"#utility.yul\":9994:10326   */\n    tag_59:\n        /* \"#utility.yul\":10115:10119   */\n      0x00\n        /* \"#utility.yul\":10153:10155   */\n      0x40\n        /* \"#utility.yul\":10142:10151   */\n      dup3\n        /* \"#utility.yul\":10138:10156   */\n      add\n        /* \"#utility.yul\":10130:10156   */\n      swap1\n      pop\n        /* \"#utility.yul\":10166:10237   */\n      tag_232\n        /* \"#utility.yul\":10234:10235   */\n      0x00\n        /* \"#utility.yul\":10223:10232   */\n      dup4\n        /* \"#utility.yul\":10219:10236   */\n      add\n        /* \"#utility.yul\":10210:10216   */\n      dup6\n        /* \"#utility.yul\":10166:10237   */\n      tag_81\n      jump\t// in\n    tag_232:\n        /* \"#utility.yul\":10247:10319   */\n      tag_233\n        /* \"#utility.yul\":10315:10317   */\n      0x20\n        /* \"#utility.yul\":10304:10313   */\n      dup4\n        /* \"#utility.yul\":10300:10318   */\n      add\n        /* \"#utility.yul\":10291:10297   */\n      dup5\n        /* \"#utility.yul\":10247:10319   */\n      tag_81\n      jump\t// in\n    tag_233:\n        /* \"#utility.yul\":9994:10326   */\n      swap4\n      swap3\n      pop\n      pop\n      pop\n      jump\t// out\n        /* \"#utility.yul\":10332:10437   */\n    tag_100:\n        /* \"#utility.yul\":10368:10375   */\n      0x00\n        /* \"#utility.yul\":10408:10430   */\n      0xffffffffffffffffffff\n        /* \"#utility.yul\":10401:10406   */\n      dup3\n        /* \"#utility.yul\":10397:10431   */\n      and\n        /* \"#utility.yul\":10386:10431   */\n      swap1\n      pop\n        /* \"#utility.yul\":10332:10437   */\n      swap2\n      swap1\n      pop\n      jump\t// out\n        /* \"#utility.yul\":10443:10563   */\n    tag_101:\n        /* \"#utility.yul\":10515:10538   */\n      tag_236\n        /* \"#utility.yul\":10532:10537   */\n      dup2\n        /* \"#utility.yul\":10515:10538   */\n      tag_100\n      jump\t// in\n    tag_236:\n        /* \"#utility.yul\":10508:10513   */\n      dup2\n        /* \"#utility.yul\":10505:10539   */\n      eq\n        /* \"#utility.yul\":10495:10557   */\n      tag_237\n      jumpi\n        /* \"#utility.yul\":10553:10554   */\n      0x00\n        /* \"#utility.yul\":10550:10551   */\n      dup1\n        /* \"#utility.yul\":10543:10555   */\n      revert\n        /* \"#utility.yul\":10495:10557   */\n    tag_237:\n        /* \"#utility.yul\":10443:10563   */\n      pop\n      jump\t// out\n        /* \"#utility.yul\":10569:10710   */\n    tag_102:\n        /* \"#utility.yul\":10625:10630   */\n      0x00\n        /* \"#utility.yul\":10656:10662   */\n      dup2\n        /* \"#utility.yul\":10650:10663   */\n      mload\n        /* \"#utility.yul\":10641:10663   */\n      swap1\n      pop\n        /* \"#utility.yul\":10672:10704   */\n      tag_239\n        /* \"#utility.yul\":10698:10703   */\n      dup2\n        /* \"#utility.yul\":10672:10704   */\n      tag_101\n      jump\t// in\n    tag_239:\n        /* \"#utility.yul\":10569:10710   */\n      swap3\n      swap2\n      pop\n      pop\n      jump\t// out\n        /* \"#utility.yul\":10716:10792   */\n    tag_103:\n        /* \"#utility.yul\":10752:10759   */\n      0x00\n        /* \"#utility.yul\":10781:10786   */\n      dup2\n        /* \"#utility.yul\":10770:10786   */\n      swap1\n      pop\n        /* \"#utility.yul\":10716:10792   */\n      swap2\n      swap1\n      pop\n      jump\t// out\n        /* \"#utility.yul\":10798:10918   */\n    tag_104:\n        /* \"#utility.yul\":10870:10893   */\n      tag_242\n        /* \"#utility.yul\":10887:10892   */\n      dup2\n        /* \"#utility.yul\":10870:10893   */\n      tag_103\n      jump\t// in\n    tag_242:\n        /* \"#utility.yul\":10863:10868   */\n      dup2\n        /* \"#utility.yul\":10860:10894   */\n      eq\n        /* \"#utility.yul\":10850:10912   */\n      tag_243\n      jumpi\n        /* \"#utility.yul\":10908:10909   */\n      0x00\n        /* \"#utility.yul\":10905:10906   */\n      dup1\n        /* \"#utility.yul\":10898:10910   */\n      revert\n        /* \"#utility.yul\":10850:10912   */\n    tag_243:\n        /* \"#utility.yul\":10798:10918   */\n      pop\n      jump\t// out\n        /* \"#utility.yul\":10924:11065   */\n    tag_105:\n        /* \"#utility.yul\":10980:10985   */\n      0x00\n        /* \"#utility.yul\":11011:11017   */\n      dup2\n        /* \"#utility.yul\":11005:11018   */\n      mload\n        /* \"#utility.yul\":10996:11018   */\n      swap1\n      pop\n        /* \"#utility.yul\":11027:11059   */\n      tag_245\n        /* \"#utility.yul\":11053:11058   */\n      dup2\n        /* \"#utility.yul\":11027:11059   */\n      tag_104\n      jump\t// in\n    tag_245:\n        /* \"#utility.yul\":10924:11065   */\n      swap3\n      swap2\n      pop\n      pop\n      jump\t// out\n        /* \"#utility.yul\":11071:12042   */\n    tag_63:\n        /* \"#utility.yul\":11174:11180   */\n      0x00\n        /* \"#utility.yul\":11182:11188   */\n      dup1\n        /* \"#utility.yul\":11190:11196   */\n      0x00\n        /* \"#utility.yul\":11198:11204   */\n      dup1\n        /* \"#utility.yul\":11206:11212   */\n      0x00\n        /* \"#utility.yul\":11255:11258   */\n      0xa0\n        /* \"#utility.yul\":11243:11252   */\n      dup7\n        /* \"#utility.yul\":11234:11241   */\n      dup9\n        /* \"#utility.yul\":11230:11253   */\n      sub\n        /* \"#utility.yul\":11226:11259   */\n      slt\n        /* \"#utility.yul\":11223:11343   */\n      iszero\n      tag_247\n      jumpi\n        /* \"#utility.yul\":11262:11341   */\n      tag_248\n      tag_71\n      jump\t// in\n    tag_248:\n        /* \"#utility.yul\":11223:11343   */\n    tag_247:\n        /* \"#utility.yul\":11382:11383   */\n      0x00\n        /* \"#utility.yul\":11407:11470   */\n      tag_249\n        /* \"#utility.yul\":11462:11469   */\n      dup9\n        /* \"#utility.yul\":11453:11459   */\n      dup3\n        /* \"#utility.yul\":11442:11451   */\n      dup10\n        /* \"#utility.yul\":11438:11460   */\n      add\n        /* \"#utility.yul\":11407:11470   */\n      tag_102\n      jump\t// in\n    tag_249:\n        /* \"#utility.yul\":11397:11470   */\n      swap6\n      pop\n        /* \"#utility.yul\":11353:11480   */\n      pop\n        /* \"#utility.yul\":11519:11521   */\n      0x20\n        /* \"#utility.yul\":11545:11608   */\n      tag_250\n        /* \"#utility.yul\":11600:11607   */\n      dup9\n        /* \"#utility.yul\":11591:11597   */\n      dup3\n        /* \"#utility.yul\":11580:11589   */\n      dup10\n        /* \"#utility.yul\":11576:11598   */\n      add\n        /* \"#utility.yul\":11545:11608   */\n      tag_105\n      jump\t// in\n    tag_250:\n        /* \"#utility.yul\":11535:11608   */\n      swap5\n      pop\n        /* \"#utility.yul\":11490:11618   */\n      pop\n        /* \"#utility.yul\":11657:11659   */\n      0x40\n        /* \"#utility.yul\":11683:11747   */\n      tag_251\n        /* \"#utility.yul\":11739:11746   */\n      dup9\n        /* \"#utility.yul\":11730:11736   */\n      dup3\n        /* \"#utility.yul\":11719:11728   */\n      dup10\n        /* \"#utility.yul\":11715:11737   */\n      add\n        /* \"#utility.yul\":11683:11747   */\n      tag_93\n      jump\t// in\n    tag_251:\n        /* \"#utility.yul\":11673:11747   */\n      swap4\n      pop\n        /* \"#utility.yul\":11628:11757   */\n      pop\n        /* \"#utility.yul\":11796:11798   */\n      0x60\n        /* \"#utility.yul\":11822:11886   */\n      tag_252\n        /* \"#utility.yul\":11878:11885   */\n      dup9\n        /* \"#utility.yul\":11869:11875   */\n      dup3\n        /* \"#utility.yul\":11858:11867   */\n      dup10\n        /* \"#utility.yul\":11854:11876   */\n      add\n        /* \"#utility.yul\":11822:11886   */\n      tag_93\n      jump\t// in\n    tag_252:\n        /* \"#utility.yul\":11812:11886   */\n      swap3\n      pop\n        /* \"#utility.yul\":11767:11896   */\n      pop\n        /* \"#utility.yul\":11935:11938   */\n      0x80\n        /* \"#utility.yul\":11962:12025   */\n      tag_253\n        /* \"#utility.yul\":12017:12024   */\n      dup9\n        /* \"#utility.yul\":12008:12014   */\n      dup3\n        /* \"#utility.yul\":11997:12006   */\n      dup10\n        /* \"#utility.yul\":11993:12015   */\n      add\n        /* \"#utility.yul\":11962:12025   */\n      tag_102\n      jump\t// in\n    tag_253:\n        /* \"#utility.yul\":11952:12025   */\n      swap2\n      pop\n        /* \"#utility.yul\":11906:12035   */\n      pop\n        /* \"#utility.yul\":11071:12042   */\n      swap3\n      swap6\n      pop\n      swap3\n      swap6\n      swap1\n      swap4\n      pop\n      jump\t// out\n        /* \"#utility.yul\":12048:12150   */\n    tag_106:\n        /* \"#utility.yul\":12090:12098   */\n      0x00\n        /* \"#utility.yul\":12137:12142   */\n      dup2\n        /* \"#utility.yul\":12134:12135   */\n      0x01\n        /* \"#utility.yul\":12130:12143   */\n      shr\n        /* \"#utility.yul\":12109:12143   */\n      swap1\n      pop\n        /* \"#utility.yul\":12048:12150   */\n      swap2\n      swap1\n      pop\n      jump\t// out\n        /* \"#utility.yul\":12156:13004   */\n    tag_107:\n        /* \"#utility.yul\":12217:12222   */\n      0x00\n        /* \"#utility.yul\":12224:12228   */\n      dup1\n        /* \"#utility.yul\":12248:12254   */\n      dup3\n        /* \"#utility.yul\":12239:12254   */\n      swap2\n      pop\n        /* \"#utility.yul\":12272:12277   */\n      dup4\n        /* \"#utility.yul\":12263:12277   */\n      swap1\n      pop\n        /* \"#utility.yul\":12286:12998   */\n    tag_256:\n        /* \"#utility.yul\":12307:12308   */\n      0x01\n        /* \"#utility.yul\":12297:12305   */\n      dup6\n        /* \"#utility.yul\":12294:12309   */\n      gt\n        /* \"#utility.yul\":12286:12998   */\n      iszero\n      tag_258\n      jumpi\n        /* \"#utility.yul\":12402:12406   */\n      dup1\n        /* \"#utility.yul\":12397:12400   */\n      dup7\n        /* \"#utility.yul\":12393:12407   */\n      div\n        /* \"#utility.yul\":12387:12391   */\n      dup2\n        /* \"#utility.yul\":12384:12408   */\n      gt\n        /* \"#utility.yul\":12381:12431   */\n      iszero\n      tag_259\n      jumpi\n        /* \"#utility.yul\":12411:12429   */\n      tag_260\n      tag_96\n      jump\t// in\n    tag_260:\n        /* \"#utility.yul\":12381:12431   */\n    tag_259:\n        /* \"#utility.yul\":12461:12462   */\n      0x01\n        /* \"#utility.yul\":12451:12459   */\n      dup6\n        /* \"#utility.yul\":12447:12463   */\n      and\n        /* \"#utility.yul\":12444:12895   */\n      iszero\n      tag_261\n      jumpi\n        /* \"#utility.yul\":12876:12880   */\n      dup1\n        /* \"#utility.yul\":12869:12874   */\n      dup3\n        /* \"#utility.yul\":12865:12881   */\n      mul\n        /* \"#utility.yul\":12856:12881   */\n      swap2\n      pop\n        /* \"#utility.yul\":12444:12895   */\n    tag_261:\n        /* \"#utility.yul\":12926:12930   */\n      dup1\n        /* \"#utility.yul\":12920:12924   */\n      dup2\n        /* \"#utility.yul\":12916:12931   */\n      mul\n        /* \"#utility.yul\":12908:12931   */\n      swap1\n      pop\n        /* \"#utility.yul\":12956:12988   */\n      tag_262\n        /* \"#utility.yul\":12979:12987   */\n      dup6\n        /* \"#utility.yul\":12956:12988   */\n      tag_106\n      jump\t// in\n    tag_262:\n        /* \"#utility.yul\":12944:12988   */\n      swap5\n      pop\n        /* \"#utility.yul\":12286:12998   */\n      jump(tag_256)\n    tag_258:\n        /* \"#utility.yul\":12156:13004   */\n      swap5\n      pop\n      swap5\n      swap3\n      pop\n      pop\n      pop\n      jump\t// out\n        /* \"#utility.yul\":13010:14083   */\n    tag_108:\n        /* \"#utility.yul\":13064:13069   */\n      0x00\n        /* \"#utility.yul\":13255:13263   */\n      dup3\n        /* \"#utility.yul\":13245:13285   */\n      tag_264\n      jumpi\n        /* \"#utility.yul\":13276:13277   */\n      0x01\n        /* \"#utility.yul\":13267:13277   */\n      swap1\n      pop\n        /* \"#utility.yul\":13278:13283   */\n      jump(tag_263)\n        /* \"#utility.yul\":13245:13285   */\n    tag_264:\n        /* \"#utility.yul\":13304:13308   */\n      dup2\n        /* \"#utility.yul\":13294:13330   */\n      tag_265\n      jumpi\n        /* \"#utility.yul\":13321:13322   */\n      0x00\n        /* \"#utility.yul\":13312:13322   */\n      swap1\n      pop\n        /* \"#utility.yul\":13323:13328   */\n      jump(tag_263)\n        /* \"#utility.yul\":13294:13330   */\n    tag_265:\n        /* \"#utility.yul\":13390:13394   */\n      dup2\n        /* \"#utility.yul\":13438:13439   */\n      0x01\n        /* \"#utility.yul\":13433:13460   */\n      dup2\n      eq\n      tag_267\n      jumpi\n        /* \"#utility.yul\":13474:13475   */\n      0x02\n        /* \"#utility.yul\":13469:13660   */\n      dup2\n      eq\n      tag_268\n      jumpi\n        /* \"#utility.yul\":13383:13660   */\n      jump(tag_266)\n        /* \"#utility.yul\":13433:13460   */\n    tag_267:\n        /* \"#utility.yul\":13451:13452   */\n      0x01\n        /* \"#utility.yul\":13442:13452   */\n      swap2\n      pop\n        /* \"#utility.yul\":13453:13458   */\n      pop\n      jump(tag_263)\n        /* \"#utility.yul\":13469:13660   */\n    tag_268:\n        /* \"#utility.yul\":13514:13517   */\n      0xff\n        /* \"#utility.yul\":13504:13512   */\n      dup5\n        /* \"#utility.yul\":13501:13518   */\n      gt\n        /* \"#utility.yul\":13498:13541   */\n      iszero\n      tag_269\n      jumpi\n        /* \"#utility.yul\":13521:13539   */\n      tag_270\n      tag_96\n      jump\t// in\n    tag_270:\n        /* \"#utility.yul\":13498:13541   */\n    tag_269:\n        /* \"#utility.yul\":13570:13578   */\n      dup4\n        /* \"#utility.yul\":13567:13568   */\n      0x02\n        /* \"#utility.yul\":13563:13579   */\n      exp\n        /* \"#utility.yul\":13554:13579   */\n      swap2\n      pop\n        /* \"#utility.yul\":13605:13608   */\n      dup5\n        /* \"#utility.yul\":13598:13603   */\n      dup3\n        /* \"#utility.yul\":13595:13609   */\n      gt\n        /* \"#utility.yul\":13592:13632   */\n      iszero\n      tag_271\n      jumpi\n        /* \"#utility.yul\":13612:13630   */\n      tag_272\n      tag_96\n      jump\t// in\n    tag_272:\n        /* \"#utility.yul\":13592:13632   */\n    tag_271:\n        /* \"#utility.yul\":13645:13650   */\n      pop\n      jump(tag_263)\n        /* \"#utility.yul\":13383:13660   */\n    tag_266:\n      pop\n        /* \"#utility.yul\":13769:13771   */\n      0x20\n        /* \"#utility.yul\":13759:13767   */\n      dup4\n        /* \"#utility.yul\":13756:13772   */\n      lt\n        /* \"#utility.yul\":13750:13753   */\n      0x0133\n        /* \"#utility.yul\":13744:13748   */\n      dup4\n        /* \"#utility.yul\":13741:13754   */\n      lt\n        /* \"#utility.yul\":13737:13773   */\n      and\n        /* \"#utility.yul\":13719:13721   */\n      0x4e\n        /* \"#utility.yul\":13709:13717   */\n      dup5\n        /* \"#utility.yul\":13706:13722   */\n      lt\n        /* \"#utility.yul\":13701:13703   */\n      0x0b\n        /* \"#utility.yul\":13695:13699   */\n      dup5\n        /* \"#utility.yul\":13692:13704   */\n      lt\n        /* \"#utility.yul\":13688:13723   */\n      and\n        /* \"#utility.yul\":13672:13783   */\n      or\n        /* \"#utility.yul\":13669:13915   */\n      iszero\n      tag_273\n      jumpi\n        /* \"#utility.yul\":13825:13833   */\n      dup3\n        /* \"#utility.yul\":13819:13823   */\n      dup3\n        /* \"#utility.yul\":13815:13834   */\n      exp\n        /* \"#utility.yul\":13806:13834   */\n      swap1\n      pop\n        /* \"#utility.yul\":13860:13863   */\n      dup4\n        /* \"#utility.yul\":13853:13858   */\n      dup2\n        /* \"#utility.yul\":13850:13864   */\n      gt\n        /* \"#utility.yul\":13847:13887   */\n      iszero\n      tag_274\n      jumpi\n        /* \"#utility.yul\":13867:13885   */\n      tag_275\n      tag_96\n      jump\t// in\n    tag_275:\n        /* \"#utility.yul\":13847:13887   */\n    tag_274:\n        /* \"#utility.yul\":13900:13905   */\n      jump(tag_263)\n        /* \"#utility.yul\":13669:13915   */\n    tag_273:\n        /* \"#utility.yul\":13940:13982   */\n      tag_276\n        /* \"#utility.yul\":13978:13981   */\n      dup5\n        /* \"#utility.yul\":13968:13976   */\n      dup5\n        /* \"#utility.yul\":13962:13966   */\n      dup5\n        /* \"#utility.yul\":13959:13960   */\n      0x01\n        /* \"#utility.yul\":13940:13982   */\n      tag_107\n      jump\t// in\n    tag_276:\n        /* \"#utility.yul\":13925:13982   */\n      swap3\n      pop\n      swap1\n      pop\n        /* \"#utility.yul\":14014:14018   */\n      dup2\n        /* \"#utility.yul\":14009:14012   */\n      dup5\n        /* \"#utility.yul\":14005:14019   */\n      div\n        /* \"#utility.yul\":13998:14003   */\n      dup2\n        /* \"#utility.yul\":13995:14020   */\n      gt\n        /* \"#utility.yul\":13992:14043   */\n      iszero\n      tag_277\n      jumpi\n        /* \"#utility.yul\":14023:14041   */\n      tag_278\n      tag_96\n      jump\t// in\n    tag_278:\n        /* \"#utility.yul\":13992:14043   */\n    tag_277:\n        /* \"#utility.yul\":14072:14076   */\n      dup2\n        /* \"#utility.yul\":14065:14070   */\n      dup2\n        /* \"#utility.yul\":14061:14077   */\n      mul\n        /* \"#utility.yul\":14052:14077   */\n      swap1\n      pop\n        /* \"#utility.yul\":13010:14083   */\n    tag_263:\n      swap4\n      swap3\n      pop\n      pop\n      pop\n      jump\t// out\n        /* \"#utility.yul\":14089:14374   */\n    tag_65:\n        /* \"#utility.yul\":14149:14154   */\n      0x00\n        /* \"#utility.yul\":14173:14196   */\n      tag_280\n        /* \"#utility.yul\":14191:14195   */\n      dup3\n        /* \"#utility.yul\":14173:14196   */\n      tag_77\n      jump\t// in\n    tag_280:\n        /* \"#utility.yul\":14165:14196   */\n      swap2\n      pop\n        /* \"#utility.yul\":14217:14244   */\n      tag_281\n        /* \"#utility.yul\":14235:14243   */\n      dup4\n        /* \"#utility.yul\":14217:14244   */\n      tag_77\n      jump\t// in\n    tag_281:\n        /* \"#utility.yul\":14205:14244   */\n      swap3\n      pop\n        /* \"#utility.yul\":14263:14367   */\n      tag_282\n        /* \"#utility.yul\":14300:14366   */\n      0xffffffffffffffffffffffffffffffffffffffffffffffffffffffffffffffff\n        /* \"#utility.yul\":14290:14298   */\n      dup5\n        /* \"#utility.yul\":14284:14288   */\n      dup5\n        /* \"#utility.yul\":14263:14367   */\n      tag_108\n      jump\t// in\n    tag_282:\n        /* \"#utility.yul\":14254:14367   */\n      swap1\n      pop\n        /* \"#utility.yul\":14089:14374   */\n      swap3\n      swap2\n      pop\n      pop\n      jump\t// out\n        /* \"#utility.yul\":14380:14936   */\n    tag_67:\n        /* \"#utility.yul\":14419:14426   */\n      0x00\n        /* \"#utility.yul\":14442:14461   */\n      tag_284\n        /* \"#utility.yul\":14459:14460   */\n      dup3\n        /* \"#utility.yul\":14442:14461   */\n      tag_103\n      jump\t// in\n    tag_284:\n        /* \"#utility.yul\":14437:14461   */\n      swap2\n      pop\n        /* \"#utility.yul\":14475:14494   */\n      tag_285\n        /* \"#utility.yul\":14492:14493   */\n      dup4\n        /* \"#utility.yul\":14475:14494   */\n      tag_103\n      jump\t// in\n    tag_285:\n        /* \"#utility.yul\":14470:14494   */\n      swap3\n      pop\n        /* \"#utility.yul\":14529:14530   */\n      dup3\n        /* \"#utility.yul\":14526:14527   */\n      dup3\n        /* \"#utility.yul\":14522:14531   */\n      mul\n        /* \"#utility.yul\":14551:14580   */\n      tag_286\n        /* \"#utility.yul\":14568:14579   */\n      dup2\n        /* \"#utility.yul\":14551:14580   */\n      tag_103\n      jump\t// in\n    tag_286:\n        /* \"#utility.yul\":14540:14580   */\n      swap2\n      pop\n        /* \"#utility.yul\":14638:14704   */\n      0x8000000000000000000000000000000000000000000000000000000000000000\n        /* \"#utility.yul\":14635:14636   */\n      dup5\n        /* \"#utility.yul\":14632:14705   */\n      eq\n        /* \"#utility.yul\":14628:14629   */\n      0x00\n        /* \"#utility.yul\":14625:14626   */\n      dup5\n        /* \"#utility.yul\":14621:14630   */\n      slt\n        /* \"#utility.yul\":14617:14706   */\n      and\n        /* \"#utility.yul\":14614:14729   */\n      iszero\n      tag_287\n      jumpi\n        /* \"#utility.yul\":14709:14727   */\n      tag_288\n      tag_96\n      jump\t// in\n    tag_288:\n        /* \"#utility.yul\":14614:14729   */\n    tag_287:\n        /* \"#utility.yul\":14879:14880   */\n      dup3\n        /* \"#utility.yul\":14870:14877   */\n      dup3\n        /* \"#utility.yul\":14865:14881   */\n      sdiv\n        /* \"#utility.yul\":14862:14863   */\n      dup5\n        /* \"#utility.yul\":14859:14882   */\n      eq\n        /* \"#utility.yul\":14839:14840   */\n      dup4\n        /* \"#utility.yul\":14832:14841   */\n      iszero\n        /* \"#utility.yul\":14812:14896   */\n      or\n        /* \"#utility.yul\":14789:14929   */\n      tag_289\n      jumpi\n        /* \"#utility.yul\":14909:14927   */\n      tag_290\n      tag_96\n      jump\t// in\n    tag_290:\n        /* \"#utility.yul\":14789:14929   */\n    tag_289:\n        /* \"#utility.yul\":14427:14936   */\n      pop\n        /* \"#utility.yul\":14380:14936   */\n      swap3\n      swap2\n      pop\n      pop\n      jump\t// out\n        /* \"#utility.yul\":14942:15122   */\n    tag_109:\n        /* \"#utility.yul\":14990:15067   */\n      0x4e487b7100000000000000000000000000000000000000000000000000000000\n        /* \"#utility.yul\":14987:14988   */\n      0x00\n        /* \"#utility.yul\":14980:15068   */\n      mstore\n        /* \"#utility.yul\":15087:15091   */\n      0x12\n        /* \"#utility.yul\":15084:15085   */\n      0x04\n        /* \"#utility.yul\":15077:15092   */\n      mstore\n        /* \"#utility.yul\":15111:15115   */\n      0x24\n        /* \"#utility.yul\":15108:15109   */\n      0x00\n        /* \"#utility.yul\":15101:15116   */\n      revert\n        /* \"#utility.yul\":15128:15313   */\n    tag_69:\n        /* \"#utility.yul\":15168:15169   */\n      0x00\n        /* \"#utility.yul\":15185:15205   */\n      tag_293\n        /* \"#utility.yul\":15203:15204   */\n      dup3\n        /* \"#utility.yul\":15185:15205   */\n      tag_77\n      jump\t// in\n    tag_293:\n        /* \"#utility.yul\":15180:15205   */\n      swap2\n      pop\n        /* \"#utility.yul\":15219:15239   */\n      tag_294\n        /* \"#utility.yul\":15237:15238   */\n      dup4\n        /* \"#utility.yul\":15219:15239   */\n      tag_77\n      jump\t// in\n    tag_294:\n        /* \"#utility.yul\":15214:15239   */\n      swap3\n      pop\n        /* \"#utility.yul\":15258:15259   */\n      dup3\n        /* \"#utility.yul\":15248:15283   */\n      tag_295\n      jumpi\n        /* \"#utility.yul\":15263:15281   */\n      tag_296\n      tag_109\n      jump\t// in\n    tag_296:\n        /* \"#utility.yul\":15248:15283   */\n    tag_295:\n        /* \"#utility.yul\":15305:15306   */\n      dup3\n        /* \"#utility.yul\":15302:15303   */\n      dup3\n        /* \"#utility.yul\":15298:15307   */\n      div\n        /* \"#utility.yul\":15293:15307   */\n      swap1\n      pop\n        /* \"#utility.yul\":15128:15313   */\n      swap3\n      swap2\n      pop\n      pop\n      jump\t// out\n\n    auxdata: 0xa2646970667358221220c2ff41385d9966e8f962449e7a3d43a66746c523de1beaf30feac72a39c5ee1064736f6c63430008110033\n}\n",
				"bytecode": {
					"linkReferences": {},
					"object": "60a060405234801561001057600080fd5b50604051610ee7380380610ee7833981810160405281019061003291906100cf565b8073ffffffffffffffffffffffffffffffffffffffff1660808173ffffffffffffffffffffffffffffffffffffffff1681525050506100fc565b600080fd5b600073ffffffffffffffffffffffffffffffffffffffff82169050919050565b600061009c82610071565b9050919050565b6100ac81610091565b81146100b757600080fd5b50565b6000815190506100c9816100a3565b92915050565b6000602082840312156100e5576100e461006c565b5b60006100f3848285016100ba565b91505092915050565b608051610dca61011d6000396000818160c801526102c90152610dca6000f3fe608060405234801561001057600080fd5b50600436106100415760003560e01c806306cd702c1461004657806308a130ab14610076578063fc57d4df14610094575b600080fd5b610060600480360381019061005b9190610507565b6100c4565b60405161006d9190610556565b60405180910390f35b61007e6102c7565b60405161008b9190610580565b60405180910390f35b6100ae60048036038101906100a9919061059b565b6102eb565b6040516100bb9190610556565b60405180910390f35b60007f000000000000000000000000000000000000000000000000000000000000000073ffffffffffffffffffffffffffffffffffffffff168373ffffffffffffffffffffffffffffffffffffffff161461012957610122836102fd565b90506102c1565b60008373ffffffffffffffffffffffffffffffffffffffff1663d3c9cc26846040518263ffffffff1660e01b81526004016101649190610556565b600060405180830381865afa158015610181573d6000803e3d6000fd5b505050506040513d6000823e3d601f19601f820116820180604052508101906101aa9190610736565b905060008473ffffffffffffffffffffffffffffffffffffffff166359f7cf50856040518263ffffffff1660e01b81526004016101e79190610556565b600060405180830381865afa158015610204573d6000803e3d6000fd5b505050506040513d6000823e3d601f19601f8201168201806040525081019061022d9190610857565b90506000808351905060005b818110156102b8576000610266868381518110610259576102586108a0565b5b60200260200101516102fd565b9050600081146102a45780858381518110610284576102836108a0565b5b602002602001015161029691906108fe565b846102a19190610940565b93505b5080806102b090610974565b915050610239565b50819450505050505b92915050565b7f000000000000000000000000000000000000000000000000000000000000000081565b60006102f6826102fd565b9050919050565b600080610348905060007347fb2585d2c56fe188d0e6ec628a38b74fceeedf73ffffffffffffffffffffffffffffffffffffffff1663313ce5676040518163ffffffff1660e01b8152600401602060405180830381865afa158015610366573d6000803e3d6000fd5b505050506040513d601f19601f8201168201806040525081019061038a91906109f5565b905060007347fb2585d2c56fe188d0e6ec628a38b74fceeedf73ffffffffffffffffffffffffffffffffffffffff1663bcfd032d86856040518363ffffffff1660e01b81526004016103dd929190610a22565b60a060405180830381865afa1580156103fa573d6000803e3d6000fd5b505050506040513d601f19601f8201168201806040525081019061041e9190610ac3565b5050509150508160ff16600a6104349190610c71565b6a52b7d2dcc80cd2e40000008261044b9190610cbc565b6104559190610d63565b9350505050919050565b6000604051905090565b600080fd5b600080fd5b600073ffffffffffffffffffffffffffffffffffffffff82169050919050565b600061049e82610473565b9050919050565b6104ae81610493565b81146104b957600080fd5b50565b6000813590506104cb816104a5565b92915050565b6000819050919050565b6104e4816104d1565b81146104ef57600080fd5b50565b600081359050610501816104db565b92915050565b6000806040838503121561051e5761051d610469565b5b600061052c858286016104bc565b925050602061053d858286016104f2565b9150509250929050565b610550816104d1565b82525050565b600060208201905061056b6000830184610547565b92915050565b61057a81610493565b82525050565b60006020820190506105956000830184610571565b92915050565b6000602082840312156105b1576105b0610469565b5b60006105bf848285016104bc565b91505092915050565b600080fd5b6000601f19601f8301169050919050565b7f4e487b7100000000000000000000000000000000000000000000000000000000600052604160045260246000fd5b610616826105cd565b810181811067ffffffffffffffff82111715610635576106346105de565b5b80604052505050565b600061064861045f565b9050610654828261060d565b919050565b600067ffffffffffffffff821115610674576106736105de565b5b602082029050602081019050919050565b600080fd5b600081519050610699816104a5565b92915050565b60006106b26106ad84610659565b61063e565b905080838252602082019050602084028301858111156106d5576106d4610685565b5b835b818110156106fe57806106ea888261068a565b8452602084019350506020810190506106d7565b5050509392505050565b600082601f83011261071d5761071c6105c8565b5b815161072d84826020860161069f565b91505092915050565b60006020828403121561074c5761074b610469565b5b600082015167ffffffffffffffff81111561076a5761076961046e565b5b61077684828501610708565b91505092915050565b600067ffffffffffffffff82111561079a576107996105de565b5b602082029050602081019050919050565b6000815190506107ba816104db565b92915050565b60006107d36107ce8461077f565b61063e565b905080838252602082019050602084028301858111156107f6576107f5610685565b5b835b8181101561081f578061080b88826107ab565b8452602084019350506020810190506107f8565b5050509392505050565b600082601f83011261083e5761083d6105c8565b5b815161084e8482602086016107c0565b91505092915050565b60006020828403121561086d5761086c610469565b5b600082015167ffffffffffffffff81111561088b5761088a61046e565b5b61089784828501610829565b91505092915050565b7f4e487b7100000000000000000000000000000000000000000000000000000000600052603260045260246000fd5b7f4e487b7100000000000000000000000000000000000000000000000000000000600052601160045260246000fd5b6000610909826104d1565b9150610914836104d1565b9250828202610922816104d1565b91508282048414831517610939576109386108cf565b5b5092915050565b600061094b826104d1565b9150610956836104d1565b925082820190508082111561096e5761096d6108cf565b5b92915050565b600061097f826104d1565b91507fffffffffffffffffffffffffffffffffffffffffffffffffffffffffffffffff82036109b1576109b06108cf565b5b600182019050919050565b600060ff82169050919050565b6109d2816109bc565b81146109dd57600080fd5b50565b6000815190506109ef816109c9565b92915050565b600060208284031215610a0b57610a0a610469565b5b6000610a19848285016109e0565b91505092915050565b6000604082019050610a376000830185610571565b610a446020830184610571565b9392505050565b600069ffffffffffffffffffff82169050919050565b610a6a81610a4b565b8114610a7557600080fd5b50565b600081519050610a8781610a61565b92915050565b6000819050919050565b610aa081610a8d565b8114610aab57600080fd5b50565b600081519050610abd81610a97565b92915050565b600080600080600060a08688031215610adf57610ade610469565b5b6000610aed88828901610a78565b9550506020610afe88828901610aae565b9450506040610b0f888289016107ab565b9350506060610b20888289016107ab565b9250506080610b3188828901610a78565b9150509295509295909350565b60008160011c9050919050565b6000808291508390505b6001851115610b9557808604811115610b7157610b706108cf565b5b6001851615610b805780820291505b8081029050610b8e85610b3e565b9450610b55565b94509492505050565b600082610bae5760019050610c6a565b81610bbc5760009050610c6a565b8160018114610bd25760028114610bdc57610c0b565b6001915050610c6a565b60ff841115610bee57610bed6108cf565b5b8360020a915084821115610c0557610c046108cf565b5b50610c6a565b5060208310610133831016604e8410600b8410161715610c405782820a905083811115610c3b57610c3a6108cf565b5b610c6a565b610c4d8484846001610b4b565b92509050818404811115610c6457610c636108cf565b5b81810290505b9392505050565b6000610c7c826104d1565b9150610c87836104d1565b9250610cb47fffffffffffffffffffffffffffffffffffffffffffffffffffffffffffffffff8484610b9e565b905092915050565b6000610cc782610a8d565b9150610cd283610a8d565b9250828202610ce081610a8d565b91507f80000000000000000000000000000000000000000000000000000000000000008414600084121615610d1857610d176108cf565b5b8282058414831517610d2d57610d2c6108cf565b5b5092915050565b7f4e487b7100000000000000000000000000000000000000000000000000000000600052601260045260246000fd5b6000610d6e826104d1565b9150610d79836104d1565b925082610d8957610d88610d34565b5b82820490509291505056fea2646970667358221220c2ff41385d9966e8f962449e7a3d43a66746c523de1beaf30feac72a39c5ee1064736f6c63430008110033",
					"opcodes": "PUSH1 0xA0 PUSH1 0x40 MSTORE CALLVALUE DUP1 ISZERO PUSH2 0x10 JUMPI PUSH1 0x0 DUP1 REVERT JUMPDEST POP PUSH1 0x40 MLOAD PUSH2 0xEE7 CODESIZE SUB DUP1 PUSH2 0xEE7 DUP4 CODECOPY DUP2 DUP2 ADD PUSH1 0x40 MSTORE DUP2 ADD SWAP1 PUSH2 0x32 SWAP2 SWAP1 PUSH2 0xCF JUMP JUMPDEST DUP1 PUSH20 0xFFFFFFFFFFFFFFFFFFFFFFFFFFFFFFFFFFFFFFFF AND PUSH1 0x80 DUP2 PUSH20 0xFFFFFFFFFFFFFFFFFFFFFFFFFFFFFFFFFFFFFFFF AND DUP2 MSTORE POP POP POP PUSH2 0xFC JUMP JUMPDEST PUSH1 0x0 DUP1 REVERT JUMPDEST PUSH1 0x0 PUSH20 0xFFFFFFFFFFFFFFFFFFFFFFFFFFFFFFFFFFFFFFFF DUP3 AND SWAP1 POP SWAP2 SWAP1 POP JUMP JUMPDEST PUSH1 0x0 PUSH2 0x9C DUP3 PUSH2 0x71 JUMP JUMPDEST SWAP1 POP SWAP2 SWAP1 POP JUMP JUMPDEST PUSH2 0xAC DUP2 PUSH2 0x91 JUMP JUMPDEST DUP2 EQ PUSH2 0xB7 JUMPI PUSH1 0x0 DUP1 REVERT JUMPDEST POP JUMP JUMPDEST PUSH1 0x0 DUP2 MLOAD SWAP1 POP PUSH2 0xC9 DUP2 PUSH2 0xA3 JUMP JUMPDEST SWAP3 SWAP2 POP POP JUMP JUMPDEST PUSH1 0x0 PUSH1 0x20 DUP3 DUP5 SUB SLT ISZERO PUSH2 0xE5 JUMPI PUSH2 0xE4 PUSH2 0x6C JUMP JUMPDEST JUMPDEST PUSH1 0x0 PUSH2 0xF3 DUP5 DUP3 DUP6 ADD PUSH2 0xBA JUMP JUMPDEST SWAP2 POP POP SWAP3 SWAP2 POP POP JUMP JUMPDEST PUSH1 0x80 MLOAD PUSH2 0xDCA PUSH2 0x11D PUSH1 0x0 CODECOPY PUSH1 0x0 DUP2 DUP2 PUSH1 0xC8 ADD MSTORE PUSH2 0x2C9 ADD MSTORE PUSH2 0xDCA PUSH1 0x0 RETURN INVALID PUSH1 0x80 PUSH1 0x40 MSTORE CALLVALUE DUP1 ISZERO PUSH2 0x10 JUMPI PUSH1 0x0 DUP1 REVERT JUMPDEST POP PUSH1 0x4 CALLDATASIZE LT PUSH2 0x41 JUMPI PUSH1 0x0 CALLDATALOAD PUSH1 0xE0 SHR DUP1 PUSH4 0x6CD702C EQ PUSH2 0x46 JUMPI DUP1 PUSH4 0x8A130AB EQ PUSH2 0x76 JUMPI DUP1 PUSH4 0xFC57D4DF EQ PUSH2 0x94 JUMPI JUMPDEST PUSH1 0x0 DUP1 REVERT JUMPDEST PUSH2 0x60 PUSH1 0x4 DUP1 CALLDATASIZE SUB DUP2 ADD SWAP1 PUSH2 0x5B SWAP2 SWAP1 PUSH2 0x507 JUMP JUMPDEST PUSH2 0xC4 JUMP JUMPDEST PUSH1 0x40 MLOAD PUSH2 0x6D SWAP2 SWAP1 PUSH2 0x556 JUMP JUMPDEST PUSH1 0x40 MLOAD DUP1 SWAP2 SUB SWAP1 RETURN JUMPDEST PUSH2 0x7E PUSH2 0x2C7 JUMP JUMPDEST PUSH1 0x40 MLOAD PUSH2 0x8B SWAP2 SWAP1 PUSH2 0x580 JUMP JUMPDEST PUSH1 0x40 MLOAD DUP1 SWAP2 SUB SWAP1 RETURN JUMPDEST PUSH2 0xAE PUSH1 0x4 DUP1 CALLDATASIZE SUB DUP2 ADD SWAP1 PUSH2 0xA9 SWAP2 SWAP1 PUSH2 0x59B JUMP JUMPDEST PUSH2 0x2EB JUMP JUMPDEST PUSH1 0x40 MLOAD PUSH2 0xBB SWAP2 SWAP1 PUSH2 0x556 JUMP JUMPDEST PUSH1 0x40 MLOAD DUP1 SWAP2 SUB SWAP1 RETURN JUMPDEST PUSH1 0x0 PUSH32 0x0 PUSH20 0xFFFFFFFFFFFFFFFFFFFFFFFFFFFFFFFFFFFFFFFF AND DUP4 PUSH20 0xFFFFFFFFFFFFFFFFFFFFFFFFFFFFFFFFFFFFFFFF AND EQ PUSH2 0x129 JUMPI PUSH2 0x122 DUP4 PUSH2 0x2FD JUMP JUMPDEST SWAP1 POP PUSH2 0x2C1 JUMP JUMPDEST PUSH1 0x0 DUP4 PUSH20 0xFFFFFFFFFFFFFFFFFFFFFFFFFFFFFFFFFFFFFFFF AND PUSH4 0xD3C9CC26 DUP5 PUSH1 0x40 MLOAD DUP3 PUSH4 0xFFFFFFFF AND PUSH1 0xE0 SHL DUP2 MSTORE PUSH1 0x4 ADD PUSH2 0x164 SWAP2 SWAP1 PUSH2 0x556 JUMP JUMPDEST PUSH1 0x0 PUSH1 0x40 MLOAD DUP1 DUP4 SUB DUP2 DUP7 GAS STATICCALL ISZERO DUP1 ISZERO PUSH2 0x181 JUMPI RETURNDATASIZE PUSH1 0x0 DUP1 RETURNDATACOPY RETURNDATASIZE PUSH1 0x0 REVERT JUMPDEST POP POP POP POP PUSH1 0x40 MLOAD RETURNDATASIZE PUSH1 0x0 DUP3 RETURNDATACOPY RETURNDATASIZE PUSH1 0x1F NOT PUSH1 0x1F DUP3 ADD AND DUP3 ADD DUP1 PUSH1 0x40 MSTORE POP DUP2 ADD SWAP1 PUSH2 0x1AA SWAP2 SWAP1 PUSH2 0x736 JUMP JUMPDEST SWAP1 POP PUSH1 0x0 DUP5 PUSH20 0xFFFFFFFFFFFFFFFFFFFFFFFFFFFFFFFFFFFFFFFF AND PUSH4 0x59F7CF50 DUP6 PUSH1 0x40 MLOAD DUP3 PUSH4 0xFFFFFFFF AND PUSH1 0xE0 SHL DUP2 MSTORE PUSH1 0x4 ADD PUSH2 0x1E7 SWAP2 SWAP1 PUSH2 0x556 JUMP JUMPDEST PUSH1 0x0 PUSH1 0x40 MLOAD DUP1 DUP4 SUB DUP2 DUP7 GAS STATICCALL ISZERO DUP1 ISZERO PUSH2 0x204 JUMPI RETURNDATASIZE PUSH1 0x0 DUP1 RETURNDATACOPY RETURNDATASIZE PUSH1 0x0 REVERT JUMPDEST POP POP POP POP PUSH1 0x40 MLOAD RETURNDATASIZE PUSH1 0x0 DUP3 RETURNDATACOPY RETURNDATASIZE PUSH1 0x1F NOT PUSH1 0x1F DUP3 ADD AND DUP3 ADD DUP1 PUSH1 0x40 MSTORE POP DUP2 ADD SWAP1 PUSH2 0x22D SWAP2 SWAP1 PUSH2 0x857 JUMP JUMPDEST SWAP1 POP PUSH1 0x0 DUP1 DUP4 MLOAD SWAP1 POP PUSH1 0x0 JUMPDEST DUP2 DUP2 LT ISZERO PUSH2 0x2B8 JUMPI PUSH1 0x0 PUSH2 0x266 DUP7 DUP4 DUP2 MLOAD DUP2 LT PUSH2 0x259 JUMPI PUSH2 0x258 PUSH2 0x8A0 JUMP JUMPDEST JUMPDEST PUSH1 0x20 MUL PUSH1 0x20 ADD ADD MLOAD PUSH2 0x2FD JUMP JUMPDEST SWAP1 POP PUSH1 0x0 DUP2 EQ PUSH2 0x2A4 JUMPI DUP1 DUP6 DUP4 DUP2 MLOAD DUP2 LT PUSH2 0x284 JUMPI PUSH2 0x283 PUSH2 0x8A0 JUMP JUMPDEST JUMPDEST PUSH1 0x20 MUL PUSH1 0x20 ADD ADD MLOAD PUSH2 0x296 SWAP2 SWAP1 PUSH2 0x8FE JUMP JUMPDEST DUP5 PUSH2 0x2A1 SWAP2 SWAP1 PUSH2 0x940 JUMP JUMPDEST SWAP4 POP JUMPDEST POP DUP1 DUP1 PUSH2 0x2B0 SWAP1 PUSH2 0x974 JUMP JUMPDEST SWAP2 POP POP PUSH2 0x239 JUMP JUMPDEST POP DUP2 SWAP5 POP POP POP POP POP JUMPDEST SWAP3 SWAP2 POP POP JUMP JUMPDEST PUSH32 0x0 DUP2 JUMP JUMPDEST PUSH1 0x0 PUSH2 0x2F6 DUP3 PUSH2 0x2FD JUMP JUMPDEST SWAP1 POP SWAP2 SWAP1 POP JUMP JUMPDEST PUSH1 0x0 DUP1 PUSH2 0x348 SWAP1 POP PUSH1 0x0 PUSH20 0x47FB2585D2C56FE188D0E6EC628A38B74FCEEEDF PUSH20 0xFFFFFFFFFFFFFFFFFFFFFFFFFFFFFFFFFFFFFFFF AND PUSH4 0x313CE567 PUSH1 0x40 MLOAD DUP2 PUSH4 0xFFFFFFFF AND PUSH1 0xE0 SHL DUP2 MSTORE PUSH1 0x4 ADD PUSH1 0x20 PUSH1 0x40 MLOAD DUP1 DUP4 SUB DUP2 DUP7 GAS STATICCALL ISZERO DUP1 ISZERO PUSH2 0x366 JUMPI RETURNDATASIZE PUSH1 0x0 DUP1 RETURNDATACOPY RETURNDATASIZE PUSH1 0x0 REVERT JUMPDEST POP POP POP POP PUSH1 0x40 MLOAD RETURNDATASIZE PUSH1 0x1F NOT PUSH1 0x1F DUP3 ADD AND DUP3 ADD DUP1 PUSH1 0x40 MSTORE POP DUP2 ADD SWAP1 PUSH2 0x38A SWAP2 SWAP1 PUSH2 0x9F5 JUMP JUMPDEST SWAP1 POP PUSH1 0x0 PUSH20 0x47FB2585D2C56FE188D0E6EC628A38B74FCEEEDF PUSH20 0xFFFFFFFFFFFFFFFFFFFFFFFFFFFFFFFFFFFFFFFF AND PUSH4 0xBCFD032D DUP7 DUP6 PUSH1 0x40 MLOAD DUP4 PUSH4 0xFFFFFFFF AND PUSH1 0xE0 SHL DUP2 MSTORE PUSH1 0x4 ADD PUSH2 0x3DD SWAP3 SWAP2 SWAP1 PUSH2 0xA22 JUMP JUMPDEST PUSH1 0xA0 PUSH1 0x40 MLOAD DUP1 DUP4 SUB DUP2 DUP7 GAS STATICCALL ISZERO DUP1 ISZERO PUSH2 0x3FA JUMPI RETURNDATASIZE PUSH1 0x0 DUP1 RETURNDATACOPY RETURNDATASIZE PUSH1 0x0 REVERT JUMPDEST POP POP POP POP PUSH1 0x40 MLOAD RETURNDATASIZE PUSH1 0x1F NOT PUSH1 0x1F DUP3 ADD AND DUP3 ADD DUP1 PUSH1 0x40 MSTORE POP DUP2 ADD SWAP1 PUSH2 0x41E SWAP2 SWAP1 PUSH2 0xAC3 JUMP JUMPDEST POP POP POP SWAP2 POP POP DUP2 PUSH1 0xFF AND PUSH1 0xA PUSH2 0x434 SWAP2 SWAP1 PUSH2 0xC71 JUMP JUMPDEST PUSH11 0x52B7D2DCC80CD2E4000000 DUP3 PUSH2 0x44B SWAP2 SWAP1 PUSH2 0xCBC JUMP JUMPDEST PUSH2 0x455 SWAP2 SWAP1 PUSH2 0xD63 JUMP JUMPDEST SWAP4 POP POP POP POP SWAP2 SWAP1 POP JUMP JUMPDEST PUSH1 0x0 PUSH1 0x40 MLOAD SWAP1 POP SWAP1 JUMP JUMPDEST PUSH1 0x0 DUP1 REVERT JUMPDEST PUSH1 0x0 DUP1 REVERT JUMPDEST PUSH1 0x0 PUSH20 0xFFFFFFFFFFFFFFFFFFFFFFFFFFFFFFFFFFFFFFFF DUP3 AND SWAP1 POP SWAP2 SWAP1 POP JUMP JUMPDEST PUSH1 0x0 PUSH2 0x49E DUP3 PUSH2 0x473 JUMP JUMPDEST SWAP1 POP SWAP2 SWAP1 POP JUMP JUMPDEST PUSH2 0x4AE DUP2 PUSH2 0x493 JUMP JUMPDEST DUP2 EQ PUSH2 0x4B9 JUMPI PUSH1 0x0 DUP1 REVERT JUMPDEST POP JUMP JUMPDEST PUSH1 0x0 DUP2 CALLDATALOAD SWAP1 POP PUSH2 0x4CB DUP2 PUSH2 0x4A5 JUMP JUMPDEST SWAP3 SWAP2 POP POP JUMP JUMPDEST PUSH1 0x0 DUP2 SWAP1 POP SWAP2 SWAP1 POP JUMP JUMPDEST PUSH2 0x4E4 DUP2 PUSH2 0x4D1 JUMP JUMPDEST DUP2 EQ PUSH2 0x4EF JUMPI PUSH1 0x0 DUP1 REVERT JUMPDEST POP JUMP JUMPDEST PUSH1 0x0 DUP2 CALLDATALOAD SWAP1 POP PUSH2 0x501 DUP2 PUSH2 0x4DB JUMP JUMPDEST SWAP3 SWAP2 POP POP JUMP JUMPDEST PUSH1 0x0 DUP1 PUSH1 0x40 DUP4 DUP6 SUB SLT ISZERO PUSH2 0x51E JUMPI PUSH2 0x51D PUSH2 0x469 JUMP JUMPDEST JUMPDEST PUSH1 0x0 PUSH2 0x52C DUP6 DUP3 DUP7 ADD PUSH2 0x4BC JUMP JUMPDEST SWAP3 POP POP PUSH1 0x20 PUSH2 0x53D DUP6 DUP3 DUP7 ADD PUSH2 0x4F2 JUMP JUMPDEST SWAP2 POP POP SWAP3 POP SWAP3 SWAP1 POP JUMP JUMPDEST PUSH2 0x550 DUP2 PUSH2 0x4D1 JUMP JUMPDEST DUP3 MSTORE POP POP JUMP JUMPDEST PUSH1 0x0 PUSH1 0x20 DUP3 ADD SWAP1 POP PUSH2 0x56B PUSH1 0x0 DUP4 ADD DUP5 PUSH2 0x547 JUMP JUMPDEST SWAP3 SWAP2 POP POP JUMP JUMPDEST PUSH2 0x57A DUP2 PUSH2 0x493 JUMP JUMPDEST DUP3 MSTORE POP POP JUMP JUMPDEST PUSH1 0x0 PUSH1 0x20 DUP3 ADD SWAP1 POP PUSH2 0x595 PUSH1 0x0 DUP4 ADD DUP5 PUSH2 0x571 JUMP JUMPDEST SWAP3 SWAP2 POP POP JUMP JUMPDEST PUSH1 0x0 PUSH1 0x20 DUP3 DUP5 SUB SLT ISZERO PUSH2 0x5B1 JUMPI PUSH2 0x5B0 PUSH2 0x469 JUMP JUMPDEST JUMPDEST PUSH1 0x0 PUSH2 0x5BF DUP5 DUP3 DUP6 ADD PUSH2 0x4BC JUMP JUMPDEST SWAP2 POP POP SWAP3 SWAP2 POP POP JUMP JUMPDEST PUSH1 0x0 DUP1 REVERT JUMPDEST PUSH1 0x0 PUSH1 0x1F NOT PUSH1 0x1F DUP4 ADD AND SWAP1 POP SWAP2 SWAP1 POP JUMP JUMPDEST PUSH32 0x4E487B7100000000000000000000000000000000000000000000000000000000 PUSH1 0x0 MSTORE PUSH1 0x41 PUSH1 0x4 MSTORE PUSH1 0x24 PUSH1 0x0 REVERT JUMPDEST PUSH2 0x616 DUP3 PUSH2 0x5CD JUMP JUMPDEST DUP2 ADD DUP2 DUP2 LT PUSH8 0xFFFFFFFFFFFFFFFF DUP3 GT OR ISZERO PUSH2 0x635 JUMPI PUSH2 0x634 PUSH2 0x5DE JUMP JUMPDEST JUMPDEST DUP1 PUSH1 0x40 MSTORE POP POP POP JUMP JUMPDEST PUSH1 0x0 PUSH2 0x648 PUSH2 0x45F JUMP JUMPDEST SWAP1 POP PUSH2 0x654 DUP3 DUP3 PUSH2 0x60D JUMP JUMPDEST SWAP2 SWAP1 POP JUMP JUMPDEST PUSH1 0x0 PUSH8 0xFFFFFFFFFFFFFFFF DUP3 GT ISZERO PUSH2 0x674 JUMPI PUSH2 0x673 PUSH2 0x5DE JUMP JUMPDEST JUMPDEST PUSH1 0x20 DUP3 MUL SWAP1 POP PUSH1 0x20 DUP2 ADD SWAP1 POP SWAP2 SWAP1 POP JUMP JUMPDEST PUSH1 0x0 DUP1 REVERT JUMPDEST PUSH1 0x0 DUP2 MLOAD SWAP1 POP PUSH2 0x699 DUP2 PUSH2 0x4A5 JUMP JUMPDEST SWAP3 SWAP2 POP POP JUMP JUMPDEST PUSH1 0x0 PUSH2 0x6B2 PUSH2 0x6AD DUP5 PUSH2 0x659 JUMP JUMPDEST PUSH2 0x63E JUMP JUMPDEST SWAP1 POP DUP1 DUP4 DUP3 MSTORE PUSH1 0x20 DUP3 ADD SWAP1 POP PUSH1 0x20 DUP5 MUL DUP4 ADD DUP6 DUP2 GT ISZERO PUSH2 0x6D5 JUMPI PUSH2 0x6D4 PUSH2 0x685 JUMP JUMPDEST JUMPDEST DUP4 JUMPDEST DUP2 DUP2 LT ISZERO PUSH2 0x6FE JUMPI DUP1 PUSH2 0x6EA DUP9 DUP3 PUSH2 0x68A JUMP JUMPDEST DUP5 MSTORE PUSH1 0x20 DUP5 ADD SWAP4 POP POP PUSH1 0x20 DUP2 ADD SWAP1 POP PUSH2 0x6D7 JUMP JUMPDEST POP POP POP SWAP4 SWAP3 POP POP POP JUMP JUMPDEST PUSH1 0x0 DUP3 PUSH1 0x1F DUP4 ADD SLT PUSH2 0x71D JUMPI PUSH2 0x71C PUSH2 0x5C8 JUMP JUMPDEST JUMPDEST DUP2 MLOAD PUSH2 0x72D DUP5 DUP3 PUSH1 0x20 DUP7 ADD PUSH2 0x69F JUMP JUMPDEST SWAP2 POP POP SWAP3 SWAP2 POP POP JUMP JUMPDEST PUSH1 0x0 PUSH1 0x20 DUP3 DUP5 SUB SLT ISZERO PUSH2 0x74C JUMPI PUSH2 0x74B PUSH2 0x469 JUMP JUMPDEST JUMPDEST PUSH1 0x0 DUP3 ADD MLOAD PUSH8 0xFFFFFFFFFFFFFFFF DUP2 GT ISZERO PUSH2 0x76A JUMPI PUSH2 0x769 PUSH2 0x46E JUMP JUMPDEST JUMPDEST PUSH2 0x776 DUP5 DUP3 DUP6 ADD PUSH2 0x708 JUMP JUMPDEST SWAP2 POP POP SWAP3 SWAP2 POP POP JUMP JUMPDEST PUSH1 0x0 PUSH8 0xFFFFFFFFFFFFFFFF DUP3 GT ISZERO PUSH2 0x79A JUMPI PUSH2 0x799 PUSH2 0x5DE JUMP JUMPDEST JUMPDEST PUSH1 0x20 DUP3 MUL SWAP1 POP PUSH1 0x20 DUP2 ADD SWAP1 POP SWAP2 SWAP1 POP JUMP JUMPDEST PUSH1 0x0 DUP2 MLOAD SWAP1 POP PUSH2 0x7BA DUP2 PUSH2 0x4DB JUMP JUMPDEST SWAP3 SWAP2 POP POP JUMP JUMPDEST PUSH1 0x0 PUSH2 0x7D3 PUSH2 0x7CE DUP5 PUSH2 0x77F JUMP JUMPDEST PUSH2 0x63E JUMP JUMPDEST SWAP1 POP DUP1 DUP4 DUP3 MSTORE PUSH1 0x20 DUP3 ADD SWAP1 POP PUSH1 0x20 DUP5 MUL DUP4 ADD DUP6 DUP2 GT ISZERO PUSH2 0x7F6 JUMPI PUSH2 0x7F5 PUSH2 0x685 JUMP JUMPDEST JUMPDEST DUP4 JUMPDEST DUP2 DUP2 LT ISZERO PUSH2 0x81F JUMPI DUP1 PUSH2 0x80B DUP9 DUP3 PUSH2 0x7AB JUMP JUMPDEST DUP5 MSTORE PUSH1 0x20 DUP5 ADD SWAP4 POP POP PUSH1 0x20 DUP2 ADD SWAP1 POP PUSH2 0x7F8 JUMP JUMPDEST POP POP POP SWAP4 SWAP3 POP POP POP JUMP JUMPDEST PUSH1 0x0 DUP3 PUSH1 0x1F DUP4 ADD SLT PUSH2 0x83E JUMPI PUSH2 0x83D PUSH2 0x5C8 JUMP JUMPDEST JUMPDEST DUP2 MLOAD PUSH2 0x84E DUP5 DUP3 PUSH1 0x20 DUP7 ADD PUSH2 0x7C0 JUMP JUMPDEST SWAP2 POP POP SWAP3 SWAP2 POP POP JUMP JUMPDEST PUSH1 0x0 PUSH1 0x20 DUP3 DUP5 SUB SLT ISZERO PUSH2 0x86D JUMPI PUSH2 0x86C PUSH2 0x469 JUMP JUMPDEST JUMPDEST PUSH1 0x0 DUP3 ADD MLOAD PUSH8 0xFFFFFFFFFFFFFFFF DUP2 GT ISZERO PUSH2 0x88B JUMPI PUSH2 0x88A PUSH2 0x46E JUMP JUMPDEST JUMPDEST PUSH2 0x897 DUP5 DUP3 DUP6 ADD PUSH2 0x829 JUMP JUMPDEST SWAP2 POP POP SWAP3 SWAP2 POP POP JUMP JUMPDEST PUSH32 0x4E487B7100000000000000000000000000000000000000000000000000000000 PUSH1 0x0 MSTORE PUSH1 0x32 PUSH1 0x4 MSTORE PUSH1 0x24 PUSH1 0x0 REVERT JUMPDEST PUSH32 0x4E487B7100000000000000000000000000000000000000000000000000000000 PUSH1 0x0 MSTORE PUSH1 0x11 PUSH1 0x4 MSTORE PUSH1 0x24 PUSH1 0x0 REVERT JUMPDEST PUSH1 0x0 PUSH2 0x909 DUP3 PUSH2 0x4D1 JUMP JUMPDEST SWAP2 POP PUSH2 0x914 DUP4 PUSH2 0x4D1 JUMP JUMPDEST SWAP3 POP DUP3 DUP3 MUL PUSH2 0x922 DUP2 PUSH2 0x4D1 JUMP JUMPDEST SWAP2 POP DUP3 DUP3 DIV DUP5 EQ DUP4 ISZERO OR PUSH2 0x939 JUMPI PUSH2 0x938 PUSH2 0x8CF JUMP JUMPDEST JUMPDEST POP SWAP3 SWAP2 POP POP JUMP JUMPDEST PUSH1 0x0 PUSH2 0x94B DUP3 PUSH2 0x4D1 JUMP JUMPDEST SWAP2 POP PUSH2 0x956 DUP4 PUSH2 0x4D1 JUMP JUMPDEST SWAP3 POP DUP3 DUP3 ADD SWAP1 POP DUP1 DUP3 GT ISZERO PUSH2 0x96E JUMPI PUSH2 0x96D PUSH2 0x8CF JUMP JUMPDEST JUMPDEST SWAP3 SWAP2 POP POP JUMP JUMPDEST PUSH1 0x0 PUSH2 0x97F DUP3 PUSH2 0x4D1 JUMP JUMPDEST SWAP2 POP PUSH32 0xFFFFFFFFFFFFFFFFFFFFFFFFFFFFFFFFFFFFFFFFFFFFFFFFFFFFFFFFFFFFFFFF DUP3 SUB PUSH2 0x9B1 JUMPI PUSH2 0x9B0 PUSH2 0x8CF JUMP JUMPDEST JUMPDEST PUSH1 0x1 DUP3 ADD SWAP1 POP SWAP2 SWAP1 POP JUMP JUMPDEST PUSH1 0x0 PUSH1 0xFF DUP3 AND SWAP1 POP SWAP2 SWAP1 POP JUMP JUMPDEST PUSH2 0x9D2 DUP2 PUSH2 0x9BC JUMP JUMPDEST DUP2 EQ PUSH2 0x9DD JUMPI PUSH1 0x0 DUP1 REVERT JUMPDEST POP JUMP JUMPDEST PUSH1 0x0 DUP2 MLOAD SWAP1 POP PUSH2 0x9EF DUP2 PUSH2 0x9C9 JUMP JUMPDEST SWAP3 SWAP2 POP POP JUMP JUMPDEST PUSH1 0x0 PUSH1 0x20 DUP3 DUP5 SUB SLT ISZERO PUSH2 0xA0B JUMPI PUSH2 0xA0A PUSH2 0x469 JUMP JUMPDEST JUMPDEST PUSH1 0x0 PUSH2 0xA19 DUP5 DUP3 DUP6 ADD PUSH2 0x9E0 JUMP JUMPDEST SWAP2 POP POP SWAP3 SWAP2 POP POP JUMP JUMPDEST PUSH1 0x0 PUSH1 0x40 DUP3 ADD SWAP1 POP PUSH2 0xA37 PUSH1 0x0 DUP4 ADD DUP6 PUSH2 0x571 JUMP JUMPDEST PUSH2 0xA44 PUSH1 0x20 DUP4 ADD DUP5 PUSH2 0x571 JUMP JUMPDEST SWAP4 SWAP3 POP POP POP JUMP JUMPDEST PUSH1 0x0 PUSH10 0xFFFFFFFFFFFFFFFFFFFF DUP3 AND SWAP1 POP SWAP2 SWAP1 POP JUMP JUMPDEST PUSH2 0xA6A DUP2 PUSH2 0xA4B JUMP JUMPDEST DUP2 EQ PUSH2 0xA75 JUMPI PUSH1 0x0 DUP1 REVERT JUMPDEST POP JUMP JUMPDEST PUSH1 0x0 DUP2 MLOAD SWAP1 POP PUSH2 0xA87 DUP2 PUSH2 0xA61 JUMP JUMPDEST SWAP3 SWAP2 POP POP JUMP JUMPDEST PUSH1 0x0 DUP2 SWAP1 POP SWAP2 SWAP1 POP JUMP JUMPDEST PUSH2 0xAA0 DUP2 PUSH2 0xA8D JUMP JUMPDEST DUP2 EQ PUSH2 0xAAB JUMPI PUSH1 0x0 DUP1 REVERT JUMPDEST POP JUMP JUMPDEST PUSH1 0x0 DUP2 MLOAD SWAP1 POP PUSH2 0xABD DUP2 PUSH2 0xA97 JUMP JUMPDEST SWAP3 SWAP2 POP POP JUMP JUMPDEST PUSH1 0x0 DUP1 PUSH1 0x0 DUP1 PUSH1 0x0 PUSH1 0xA0 DUP7 DUP9 SUB SLT ISZERO PUSH2 0xADF JUMPI PUSH2 0xADE PUSH2 0x469 JUMP JUMPDEST JUMPDEST PUSH1 0x0 PUSH2 0xAED DUP9 DUP3 DUP10 ADD PUSH2 0xA78 JUMP JUMPDEST SWAP6 POP POP PUSH1 0x20 PUSH2 0xAFE DUP9 DUP3 DUP10 ADD PUSH2 0xAAE JUMP JUMPDEST SWAP5 POP POP PUSH1 0x40 PUSH2 0xB0F DUP9 DUP3 DUP10 ADD PUSH2 0x7AB JUMP JUMPDEST SWAP4 POP POP PUSH1 0x60 PUSH2 0xB20 DUP9 DUP3 DUP10 ADD PUSH2 0x7AB JUMP JUMPDEST SWAP3 POP POP PUSH1 0x80 PUSH2 0xB31 DUP9 DUP3 DUP10 ADD PUSH2 0xA78 JUMP JUMPDEST SWAP2 POP POP SWAP3 SWAP6 POP SWAP3 SWAP6 SWAP1 SWAP4 POP JUMP JUMPDEST PUSH1 0x0 DUP2 PUSH1 0x1 SHR SWAP1 POP SWAP2 SWAP1 POP JUMP JUMPDEST PUSH1 0x0 DUP1 DUP3 SWAP2 POP DUP4 SWAP1 POP JUMPDEST PUSH1 0x1 DUP6 GT ISZERO PUSH2 0xB95 JUMPI DUP1 DUP7 DIV DUP2 GT ISZERO PUSH2 0xB71 JUMPI PUSH2 0xB70 PUSH2 0x8CF JUMP JUMPDEST JUMPDEST PUSH1 0x1 DUP6 AND ISZERO PUSH2 0xB80 JUMPI DUP1 DUP3 MUL SWAP2 POP JUMPDEST DUP1 DUP2 MUL SWAP1 POP PUSH2 0xB8E DUP6 PUSH2 0xB3E JUMP JUMPDEST SWAP5 POP PUSH2 0xB55 JUMP JUMPDEST SWAP5 POP SWAP5 SWAP3 POP POP POP JUMP JUMPDEST PUSH1 0x0 DUP3 PUSH2 0xBAE JUMPI PUSH1 0x1 SWAP1 POP PUSH2 0xC6A JUMP JUMPDEST DUP2 PUSH2 0xBBC JUMPI PUSH1 0x0 SWAP1 POP PUSH2 0xC6A JUMP JUMPDEST DUP2 PUSH1 0x1 DUP2 EQ PUSH2 0xBD2 JUMPI PUSH1 0x2 DUP2 EQ PUSH2 0xBDC JUMPI PUSH2 0xC0B JUMP JUMPDEST PUSH1 0x1 SWAP2 POP POP PUSH2 0xC6A JUMP JUMPDEST PUSH1 0xFF DUP5 GT ISZERO PUSH2 0xBEE JUMPI PUSH2 0xBED PUSH2 0x8CF JUMP JUMPDEST JUMPDEST DUP4 PUSH1 0x2 EXP SWAP2 POP DUP5 DUP3 GT ISZERO PUSH2 0xC05 JUMPI PUSH2 0xC04 PUSH2 0x8CF JUMP JUMPDEST JUMPDEST POP PUSH2 0xC6A JUMP JUMPDEST POP PUSH1 0x20 DUP4 LT PUSH2 0x133 DUP4 LT AND PUSH1 0x4E DUP5 LT PUSH1 0xB DUP5 LT AND OR ISZERO PUSH2 0xC40 JUMPI DUP3 DUP3 EXP SWAP1 POP DUP4 DUP2 GT ISZERO PUSH2 0xC3B JUMPI PUSH2 0xC3A PUSH2 0x8CF JUMP JUMPDEST JUMPDEST PUSH2 0xC6A JUMP JUMPDEST PUSH2 0xC4D DUP5 DUP5 DUP5 PUSH1 0x1 PUSH2 0xB4B JUMP JUMPDEST SWAP3 POP SWAP1 POP DUP2 DUP5 DIV DUP2 GT ISZERO PUSH2 0xC64 JUMPI PUSH2 0xC63 PUSH2 0x8CF JUMP JUMPDEST JUMPDEST DUP2 DUP2 MUL SWAP1 POP JUMPDEST SWAP4 SWAP3 POP POP POP JUMP JUMPDEST PUSH1 0x0 PUSH2 0xC7C DUP3 PUSH2 0x4D1 JUMP JUMPDEST SWAP2 POP PUSH2 0xC87 DUP4 PUSH2 0x4D1 JUMP JUMPDEST SWAP3 POP PUSH2 0xCB4 PUSH32 0xFFFFFFFFFFFFFFFFFFFFFFFFFFFFFFFFFFFFFFFFFFFFFFFFFFFFFFFFFFFFFFFF DUP5 DUP5 PUSH2 0xB9E JUMP JUMPDEST SWAP1 POP SWAP3 SWAP2 POP POP JUMP JUMPDEST PUSH1 0x0 PUSH2 0xCC7 DUP3 PUSH2 0xA8D JUMP JUMPDEST SWAP2 POP PUSH2 0xCD2 DUP4 PUSH2 0xA8D JUMP JUMPDEST SWAP3 POP DUP3 DUP3 MUL PUSH2 0xCE0 DUP2 PUSH2 0xA8D JUMP JUMPDEST SWAP2 POP PUSH32 0x8000000000000000000000000000000000000000000000000000000000000000 DUP5 EQ PUSH1 0x0 DUP5 SLT AND ISZERO PUSH2 0xD18 JUMPI PUSH2 0xD17 PUSH2 0x8CF JUMP JUMPDEST JUMPDEST DUP3 DUP3 SDIV DUP5 EQ DUP4 ISZERO OR PUSH2 0xD2D JUMPI PUSH2 0xD2C PUSH2 0x8CF JUMP JUMPDEST JUMPDEST POP SWAP3 SWAP2 POP POP JUMP JUMPDEST PUSH32 0x4E487B7100000000000000000000000000000000000000000000000000000000 PUSH1 0x0 MSTORE PUSH1 0x12 PUSH1 0x4 MSTORE PUSH1 0x24 PUSH1 0x0 REVERT JUMPDEST PUSH1 0x0 PUSH2 0xD6E DUP3 PUSH2 0x4D1 JUMP JUMPDEST SWAP2 POP PUSH2 0xD79 DUP4 PUSH2 0x4D1 JUMP JUMPDEST SWAP3 POP DUP3 PUSH2 0xD89 JUMPI PUSH2 0xD88 PUSH2 0xD34 JUMP JUMPDEST JUMPDEST DUP3 DUP3 DIV SWAP1 POP SWAP3 SWAP2 POP POP JUMP INVALID LOG2 PUSH5 0x6970667358 0x22 SLT KECCAK256 0xC2 SELFDESTRUCT COINBASE CODESIZE 0x5D SWAP10 PUSH7 0xE8F962449E7A3D NUMBER 0xA6 PUSH8 0x46C523DE1BEAF30F 0xEA 0xC7 0x2A CODECOPY 0xC5 0xEE LT PUSH5 0x736F6C6343 STOP ADDMOD GT STOP CALLER "
				},
				"gasEstimates": {
					"creation": {
						"codeDepositCost": "706000",
						"executionCost": "infinite",
						"totalCost": "infinite"
					},
					"external": {
						"Wrapper()": "infinite",
						"getBundlePrice(address,uint256)": "infinite",
						"getUnderlyingPrice(address)": "infinite"
					},
					"internal": {
						"_getUnderlyingPrice(address)": "infinite"
					}
				},
				"methodIdentifiers": {
					"Wrapper()": "08a130ab",
					"getBundlePrice(address,uint256)": "06cd702c",
					"getUnderlyingPrice(address)": "fc57d4df"
				}
			},
			"storageLayout": {
				"storage": [],
				"types": null
			},
			"userdoc": {
				"kind": "user",
				"methods": {},
				"version": 1
			}
		}
	}
}