{
	"contracts/ChainlinkOracle.sol": {
		"ChainlinkOracle": {
			"abi": [
				{
					"inputs": [
						{
							"internalType": "address",
							"name": "_wrapper",
							"type": "address"
						}
					],
					"stateMutability": "nonpayable",
					"type": "constructor"
				},
				{
					"anonymous": false,
					"inputs": [
						{
							"indexed": false,
							"internalType": "string",
							"name": "message",
							"type": "string"
						}
					],
					"name": "Log",
					"type": "event"
				},
				{
					"inputs": [],
					"name": "Wrapper",
					"outputs": [
						{
							"internalType": "address",
							"name": "",
							"type": "address"
						}
					],
					"stateMutability": "view",
					"type": "function"
				},
				{
					"inputs": [
						{
							"internalType": "address",
							"name": "wrapper",
							"type": "address"
						},
						{
							"internalType": "uint256",
							"name": "nftId",
							"type": "uint256"
						}
					],
					"name": "getBundlePrice",
					"outputs": [
						{
							"internalType": "uint256",
							"name": "",
							"type": "uint256"
						}
					],
					"stateMutability": "view",
					"type": "function"
				},
				{
					"inputs": [
						{
							"internalType": "address",
							"name": "_underlying",
							"type": "address"
						}
					],
					"name": "getUnderlyingPrice",
					"outputs": [
						{
							"internalType": "uint256",
							"name": "",
							"type": "uint256"
						}
					],
					"stateMutability": "view",
					"type": "function"
				}
			],
			"devdoc": {
				"kind": "dev",
				"methods": {},
				"version": 1
			},
			"evm": {
				"assembly": "    /* \"contracts/ChainlinkOracle.sol\":882:3546  contract ChainlinkOracle is IPriceOracle {... */\n  mstore(0x40, 0xa0)\n    /* \"contracts/ChainlinkOracle.sol\":1202:1267  constructor(address _wrapper) {... */\n  callvalue\n  dup1\n  iszero\n  tag_1\n  jumpi\n  0x00\n  dup1\n  revert\ntag_1:\n  pop\n  mload(0x40)\n  sub(codesize, bytecodeSize)\n  dup1\n  bytecodeSize\n  dup4\n  codecopy\n  dup2\n  dup2\n  add\n  0x40\n  mstore\n  dup2\n  add\n  swap1\n  tag_2\n  swap2\n  swap1\n  tag_3\n  jump\t// in\ntag_2:\n    /* \"contracts/ChainlinkOracle.sol\":1252:1260  _wrapper */\n  dup1\n    /* \"contracts/ChainlinkOracle.sol\":1242:1260  Wrapper = _wrapper */\n  0xffffffffffffffffffffffffffffffffffffffff\n  and\n  0x80\n  dup2\n  0xffffffffffffffffffffffffffffffffffffffff\n  and\n  dup2\n  mstore\n  pop\n  pop\n    /* \"contracts/ChainlinkOracle.sol\":1202:1267  constructor(address _wrapper) {... */\n  pop\n    /* \"contracts/ChainlinkOracle.sol\":882:3546  contract ChainlinkOracle is IPriceOracle {... */\n  jump(tag_6)\n    /* \"#utility.yul\":88:205   */\ntag_8:\n    /* \"#utility.yul\":197:198   */\n  0x00\n    /* \"#utility.yul\":194:195   */\n  dup1\n    /* \"#utility.yul\":187:199   */\n  revert\n    /* \"#utility.yul\":334:460   */\ntag_10:\n    /* \"#utility.yul\":371:378   */\n  0x00\n    /* \"#utility.yul\":411:453   */\n  0xffffffffffffffffffffffffffffffffffffffff\n    /* \"#utility.yul\":404:409   */\n  dup3\n    /* \"#utility.yul\":400:454   */\n  and\n    /* \"#utility.yul\":389:454   */\n  swap1\n  pop\n    /* \"#utility.yul\":334:460   */\n  swap2\n  swap1\n  pop\n  jump\t// out\n    /* \"#utility.yul\":466:562   */\ntag_11:\n    /* \"#utility.yul\":503:510   */\n  0x00\n    /* \"#utility.yul\":532:556   */\n  tag_20\n    /* \"#utility.yul\":550:555   */\n  dup3\n    /* \"#utility.yul\":532:556   */\n  tag_10\n  jump\t// in\ntag_20:\n    /* \"#utility.yul\":521:556   */\n  swap1\n  pop\n    /* \"#utility.yul\":466:562   */\n  swap2\n  swap1\n  pop\n  jump\t// out\n    /* \"#utility.yul\":568:690   */\ntag_12:\n    /* \"#utility.yul\":641:665   */\n  tag_22\n    /* \"#utility.yul\":659:664   */\n  dup2\n    /* \"#utility.yul\":641:665   */\n  tag_11\n  jump\t// in\ntag_22:\n    /* \"#utility.yul\":634:639   */\n  dup2\n    /* \"#utility.yul\":631:666   */\n  eq\n    /* \"#utility.yul\":621:684   */\n  tag_23\n  jumpi\n    /* \"#utility.yul\":680:681   */\n  0x00\n    /* \"#utility.yul\":677:678   */\n  dup1\n    /* \"#utility.yul\":670:682   */\n  revert\n    /* \"#utility.yul\":621:684   */\ntag_23:\n    /* \"#utility.yul\":568:690   */\n  pop\n  jump\t// out\n    /* \"#utility.yul\":696:839   */\ntag_13:\n    /* \"#utility.yul\":753:758   */\n  0x00\n    /* \"#utility.yul\":784:790   */\n  dup2\n    /* \"#utility.yul\":778:791   */\n  mload\n    /* \"#utility.yul\":769:791   */\n  swap1\n  pop\n    /* \"#utility.yul\":800:833   */\n  tag_25\n    /* \"#utility.yul\":827:832   */\n  dup2\n    /* \"#utility.yul\":800:833   */\n  tag_12\n  jump\t// in\ntag_25:\n    /* \"#utility.yul\":696:839   */\n  swap3\n  swap2\n  pop\n  pop\n  jump\t// out\n    /* \"#utility.yul\":845:1196   */\ntag_3:\n    /* \"#utility.yul\":915:921   */\n  0x00\n    /* \"#utility.yul\":964:966   */\n  0x20\n    /* \"#utility.yul\":952:961   */\n  dup3\n    /* \"#utility.yul\":943:950   */\n  dup5\n    /* \"#utility.yul\":939:962   */\n  sub\n    /* \"#utility.yul\":935:967   */\n  slt\n    /* \"#utility.yul\":932:1051   */\n  iszero\n  tag_27\n  jumpi\n    /* \"#utility.yul\":970:1049   */\n  tag_28\n  tag_8\n  jump\t// in\ntag_28:\n    /* \"#utility.yul\":932:1051   */\ntag_27:\n    /* \"#utility.yul\":1090:1091   */\n  0x00\n    /* \"#utility.yul\":1115:1179   */\n  tag_29\n    /* \"#utility.yul\":1171:1178   */\n  dup5\n    /* \"#utility.yul\":1162:1168   */\n  dup3\n    /* \"#utility.yul\":1151:1160   */\n  dup6\n    /* \"#utility.yul\":1147:1169   */\n  add\n    /* \"#utility.yul\":1115:1179   */\n  tag_13\n  jump\t// in\ntag_29:\n    /* \"#utility.yul\":1105:1179   */\n  swap2\n  pop\n    /* \"#utility.yul\":1061:1189   */\n  pop\n    /* \"#utility.yul\":845:1196   */\n  swap3\n  swap2\n  pop\n  pop\n  jump\t// out\n    /* \"contracts/ChainlinkOracle.sol\":882:3546  contract ChainlinkOracle is IPriceOracle {... */\ntag_6:\n  mload(0x80)\n  codecopy(0x00, dataOffset(sub_0), dataSize(sub_0))\n  0x00\n  assignImmutable(\"0xe921da22f871c25c63f06c1365385cbb26397f64f79055cdbab32187a9377d16\")\n  return(0x00, dataSize(sub_0))\nstop\n\nsub_0: assembly {\n        /* \"contracts/ChainlinkOracle.sol\":882:3546  contract ChainlinkOracle is IPriceOracle {... */\n      mstore(0x40, 0x80)\n      callvalue\n      dup1\n      iszero\n      tag_1\n      jumpi\n      0x00\n      dup1\n      revert\n    tag_1:\n      pop\n      jumpi(tag_2, lt(calldatasize, 0x04))\n      shr(0xe0, calldataload(0x00))\n      dup1\n      0x06cd702c\n      eq\n      tag_3\n      jumpi\n      dup1\n      0x08a130ab\n      eq\n      tag_4\n      jumpi\n      dup1\n      0xfc57d4df\n      eq\n      tag_5\n      jumpi\n    tag_2:\n      0x00\n      dup1\n      revert\n        /* \"contracts/ChainlinkOracle.sol\":1273:2379  function getBundlePrice(address wrapper, uint256 nftId)... */\n    tag_3:\n      tag_6\n      0x04\n      dup1\n      calldatasize\n      sub\n      dup2\n      add\n      swap1\n      tag_7\n      swap2\n      swap1\n      tag_8\n      jump\t// in\n    tag_7:\n      tag_9\n      jump\t// in\n    tag_6:\n      mload(0x40)\n      tag_10\n      swap2\n      swap1\n      tag_11\n      jump\t// in\n    tag_10:\n      mload(0x40)\n      dup1\n      swap2\n      sub\n      swap1\n      return\n        /* \"contracts/ChainlinkOracle.sol\":1163:1195  address public immutable Wrapper */\n    tag_4:\n      tag_12\n      tag_13\n      jump\t// in\n    tag_12:\n      mload(0x40)\n      tag_14\n      swap2\n      swap1\n      tag_15\n      jump\t// in\n    tag_14:\n      mload(0x40)\n      dup1\n      swap2\n      sub\n      swap1\n      return\n        /* \"contracts/ChainlinkOracle.sol\":2385:2550  function getUnderlyingPrice(address _underlying)... */\n    tag_5:\n      tag_16\n      0x04\n      dup1\n      calldatasize\n      sub\n      dup2\n      add\n      swap1\n      tag_17\n      swap2\n      swap1\n      tag_18\n      jump\t// in\n    tag_17:\n      tag_19\n      jump\t// in\n    tag_16:\n      mload(0x40)\n      tag_20\n      swap2\n      swap1\n      tag_11\n      jump\t// in\n    tag_20:\n      mload(0x40)\n      dup1\n      swap2\n      sub\n      swap1\n      return\n        /* \"contracts/ChainlinkOracle.sol\":1273:2379  function getBundlePrice(address wrapper, uint256 nftId)... */\n    tag_9:\n        /* \"contracts/ChainlinkOracle.sol\":1368:1375  uint256 */\n      0x00\n        /* \"contracts/ChainlinkOracle.sol\":1483:1490  Wrapper */\n      immutable(\"0xe921da22f871c25c63f06c1365385cbb26397f64f79055cdbab32187a9377d16\")\n        /* \"contracts/ChainlinkOracle.sol\":1472:1490  wrapper != Wrapper */\n      0xffffffffffffffffffffffffffffffffffffffff\n      and\n        /* \"contracts/ChainlinkOracle.sol\":1472:1479  wrapper */\n      dup4\n        /* \"contracts/ChainlinkOracle.sol\":1472:1490  wrapper != Wrapper */\n      0xffffffffffffffffffffffffffffffffffffffff\n      and\n      eq\n        /* \"contracts/ChainlinkOracle.sol\":1468:1527  if (wrapper != Wrapper) return _getUnderlyingPrice(wrapper) */\n      tag_22\n      jumpi\n        /* \"contracts/ChainlinkOracle.sol\":1499:1527  _getUnderlyingPrice(wrapper) */\n      tag_23\n        /* \"contracts/ChainlinkOracle.sol\":1519:1526  wrapper */\n      dup4\n        /* \"contracts/ChainlinkOracle.sol\":1499:1518  _getUnderlyingPrice */\n      tag_24\n        /* \"contracts/ChainlinkOracle.sol\":1499:1527  _getUnderlyingPrice(wrapper) */\n      jump\t// in\n    tag_23:\n        /* \"contracts/ChainlinkOracle.sol\":1492:1527  return _getUnderlyingPrice(wrapper) */\n      swap1\n      pop\n      jump(tag_21)\n        /* \"contracts/ChainlinkOracle.sol\":1468:1527  if (wrapper != Wrapper) return _getUnderlyingPrice(wrapper) */\n    tag_22:\n        /* \"contracts/ChainlinkOracle.sol\":1538:1561  address[] memory tokens */\n      0x00\n        /* \"contracts/ChainlinkOracle.sol\":1573:1580  wrapper */\n      dup4\n        /* \"contracts/ChainlinkOracle.sol\":1564:1591  IWrapper(wrapper).getTokens */\n      0xffffffffffffffffffffffffffffffffffffffff\n      and\n      0xd3c9cc26\n        /* \"contracts/ChainlinkOracle.sol\":1592:1597  nftId */\n      dup5\n        /* \"contracts/ChainlinkOracle.sol\":1564:1598  IWrapper(wrapper).getTokens(nftId) */\n      mload(0x40)\n      dup3\n      0xffffffff\n      and\n      0xe0\n      shl\n      dup2\n      mstore\n      0x04\n      add\n      tag_25\n      swap2\n      swap1\n      tag_11\n      jump\t// in\n    tag_25:\n      0x00\n      mload(0x40)\n      dup1\n      dup4\n      sub\n      dup2\n      dup7\n      gas\n      staticcall\n      iszero\n      dup1\n      iszero\n      tag_27\n      jumpi\n      returndatasize\n      0x00\n      dup1\n      returndatacopy\n      revert(0x00, returndatasize)\n    tag_27:\n      pop\n      pop\n      pop\n      pop\n      mload(0x40)\n      returndatasize\n      0x00\n      dup3\n      returndatacopy\n      returndatasize\n      not(0x1f)\n      0x1f\n      dup3\n      add\n      and\n      dup3\n      add\n      dup1\n      0x40\n      mstore\n      pop\n      dup2\n      add\n      swap1\n      tag_28\n      swap2\n      swap1\n      tag_29\n      jump\t// in\n    tag_28:\n        /* \"contracts/ChainlinkOracle.sol\":1538:1598  address[] memory tokens = IWrapper(wrapper).getTokens(nftId) */\n      swap1\n      pop\n        /* \"contracts/ChainlinkOracle.sol\":1608:1632  uint256[] memory amounts */\n      0x00\n        /* \"contracts/ChainlinkOracle.sol\":1644:1651  wrapper */\n      dup5\n        /* \"contracts/ChainlinkOracle.sol\":1635:1663  IWrapper(wrapper).getAmounts */\n      0xffffffffffffffffffffffffffffffffffffffff\n      and\n      0x59f7cf50\n        /* \"contracts/ChainlinkOracle.sol\":1664:1669  nftId */\n      dup6\n        /* \"contracts/ChainlinkOracle.sol\":1635:1670  IWrapper(wrapper).getAmounts(nftId) */\n      mload(0x40)\n      dup3\n      0xffffffff\n      and\n      0xe0\n      shl\n      dup2\n      mstore\n      0x04\n      add\n      tag_30\n      swap2\n      swap1\n      tag_11\n      jump\t// in\n    tag_30:\n      0x00\n      mload(0x40)\n      dup1\n      dup4\n      sub\n      dup2\n      dup7\n      gas\n      staticcall\n      iszero\n      dup1\n      iszero\n      tag_32\n      jumpi\n      returndatasize\n      0x00\n      dup1\n      returndatacopy\n      revert(0x00, returndatasize)\n    tag_32:\n      pop\n      pop\n      pop\n      pop\n      mload(0x40)\n      returndatasize\n      0x00\n      dup3\n      returndatacopy\n      returndatasize\n      not(0x1f)\n      0x1f\n      dup3\n      add\n      and\n      dup3\n      add\n      dup1\n      0x40\n      mstore\n      pop\n      dup2\n      add\n      swap1\n      tag_33\n      swap2\n      swap1\n      tag_34\n      jump\t// in\n    tag_33:\n        /* \"contracts/ChainlinkOracle.sol\":1608:1670  uint256[] memory amounts = IWrapper(wrapper).getAmounts(nftId) */\n      swap1\n      pop\n        /* \"contracts/ChainlinkOracle.sol\":1744:1765  uint256 totalPriceUSD */\n      0x00\n        /* \"contracts/ChainlinkOracle.sol\":1796:1810  uint256 length */\n      dup1\n        /* \"contracts/ChainlinkOracle.sol\":1813:1819  tokens */\n      dup4\n        /* \"contracts/ChainlinkOracle.sol\":1813:1826  tokens.length */\n      mload\n        /* \"contracts/ChainlinkOracle.sol\":1796:1826  uint256 length = tokens.length */\n      swap1\n      pop\n        /* \"contracts/ChainlinkOracle.sol\":1842:1851  uint256 i */\n      0x00\n        /* \"contracts/ChainlinkOracle.sol\":1837:2343  for (uint256 i = 0; i < length;) {... */\n    tag_35:\n        /* \"contracts/ChainlinkOracle.sol\":1861:1867  length */\n      dup2\n        /* \"contracts/ChainlinkOracle.sol\":1857:1858  i */\n      dup2\n        /* \"contracts/ChainlinkOracle.sol\":1857:1867  i < length */\n      lt\n        /* \"contracts/ChainlinkOracle.sol\":1837:2343  for (uint256 i = 0; i < length;) {... */\n      iszero\n      tag_36\n      jumpi\n        /* \"contracts/ChainlinkOracle.sol\":2160:2183  uint256 underlyingPrice */\n      0x00\n        /* \"contracts/ChainlinkOracle.sol\":2186:2216  _getUnderlyingPrice(tokens[i]) */\n      tag_38\n        /* \"contracts/ChainlinkOracle.sol\":2206:2212  tokens */\n      dup7\n        /* \"contracts/ChainlinkOracle.sol\":2213:2214  i */\n      dup4\n        /* \"contracts/ChainlinkOracle.sol\":2206:2215  tokens[i] */\n      dup2\n      mload\n      dup2\n      lt\n      tag_39\n      jumpi\n      tag_40\n      tag_41\n      jump\t// in\n    tag_40:\n    tag_39:\n      0x20\n      mul\n      0x20\n      add\n      add\n      mload\n        /* \"contracts/ChainlinkOracle.sol\":2186:2205  _getUnderlyingPrice */\n      tag_24\n        /* \"contracts/ChainlinkOracle.sol\":2186:2216  _getUnderlyingPrice(tokens[i]) */\n      jump\t// in\n    tag_38:\n        /* \"contracts/ChainlinkOracle.sol\":2160:2216  uint256 underlyingPrice = _getUnderlyingPrice(tokens[i]) */\n      swap1\n      pop\n        /* \"contracts/ChainlinkOracle.sol\":2254:2255  0 */\n      0x00\n        /* \"contracts/ChainlinkOracle.sol\":2235:2250  underlyingPrice */\n      dup2\n        /* \"contracts/ChainlinkOracle.sol\":2235:2255  underlyingPrice != 0 */\n      eq\n        /* \"contracts/ChainlinkOracle.sol\":2231:2333  if (underlyingPrice != 0) {... */\n      tag_42\n      jumpi\n        /* \"contracts/ChainlinkOracle.sol\":2303:2318  underlyingPrice */\n      dup1\n        /* \"contracts/ChainlinkOracle.sol\":2292:2299  amounts */\n      dup6\n        /* \"contracts/ChainlinkOracle.sol\":2300:2301  i */\n      dup4\n        /* \"contracts/ChainlinkOracle.sol\":2292:2302  amounts[i] */\n      dup2\n      mload\n      dup2\n      lt\n      tag_43\n      jumpi\n      tag_44\n      tag_41\n      jump\t// in\n    tag_44:\n    tag_43:\n      0x20\n      mul\n      0x20\n      add\n      add\n      mload\n        /* \"contracts/ChainlinkOracle.sol\":2292:2318  amounts[i]*underlyingPrice */\n      tag_45\n      swap2\n      swap1\n      tag_46\n      jump\t// in\n    tag_45:\n        /* \"contracts/ChainlinkOracle.sol\":2275:2318  totalPriceUSD += amounts[i]*underlyingPrice */\n      dup5\n      tag_47\n      swap2\n      swap1\n      tag_48\n      jump\t// in\n    tag_47:\n      swap4\n      pop\n        /* \"contracts/ChainlinkOracle.sol\":2231:2333  if (underlyingPrice != 0) {... */\n    tag_42:\n        /* \"contracts/ChainlinkOracle.sol\":1870:2343  {... */\n      pop\n        /* \"contracts/ChainlinkOracle.sol\":1837:2343  for (uint256 i = 0; i < length;) {... */\n      jump(tag_35)\n    tag_36:\n      pop\n        /* \"contracts/ChainlinkOracle.sol\":2359:2372  totalPriceUSD */\n      dup2\n        /* \"contracts/ChainlinkOracle.sol\":2352:2372  return totalPriceUSD */\n      swap5\n      pop\n      pop\n      pop\n      pop\n      pop\n        /* \"contracts/ChainlinkOracle.sol\":1273:2379  function getBundlePrice(address wrapper, uint256 nftId)... */\n    tag_21:\n      swap3\n      swap2\n      pop\n      pop\n      jump\t// out\n        /* \"contracts/ChainlinkOracle.sol\":1163:1195  address public immutable Wrapper */\n    tag_13:\n      immutable(\"0xe921da22f871c25c63f06c1365385cbb26397f64f79055cdbab32187a9377d16\")\n      dup2\n      jump\t// out\n        /* \"contracts/ChainlinkOracle.sol\":2385:2550  function getUnderlyingPrice(address _underlying)... */\n    tag_19:\n        /* \"contracts/ChainlinkOracle.sol\":2481:2488  uint256 */\n      0x00\n        /* \"contracts/ChainlinkOracle.sol\":2511:2543  _getUnderlyingPrice(_underlying) */\n      tag_50\n        /* \"contracts/ChainlinkOracle.sol\":2531:2542  _underlying */\n      dup3\n        /* \"contracts/ChainlinkOracle.sol\":2511:2530  _getUnderlyingPrice */\n      tag_24\n        /* \"contracts/ChainlinkOracle.sol\":2511:2543  _getUnderlyingPrice(_underlying) */\n      jump\t// in\n    tag_50:\n        /* \"contracts/ChainlinkOracle.sol\":2504:2543  return _getUnderlyingPrice(_underlying) */\n      swap1\n      pop\n        /* \"contracts/ChainlinkOracle.sol\":2385:2550  function getUnderlyingPrice(address _underlying)... */\n      swap2\n      swap1\n      pop\n      jump\t// out\n        /* \"contracts/ChainlinkOracle.sol\":2695:3544  function _getUnderlyingPrice(address underlying)... */\n    tag_24:\n        /* \"contracts/ChainlinkOracle.sol\":2791:2798  uint256 */\n      0x00\n        /* \"contracts/ChainlinkOracle.sol\":2946:2959  address quote */\n      dup1\n        /* \"contracts/Denominations.sol\":350:353  840 */\n      0x0348\n        /* \"contracts/ChainlinkOracle.sol\":2946:2979  address quote = Denominations.USD */\n      swap1\n      pop\n        /* \"contracts/ChainlinkOracle.sol\":3213:3227  uint8 decimals */\n      0x00\n        /* \"contracts/ChainlinkOracle.sol\":1082:1124  0x47Fb2585D2C56Fe188D0E6ec628a38b74fCeeeDf */\n      0x47fb2585d2c56fe188d0e6ec628a38b74fceeedf\n        /* \"contracts/ChainlinkOracle.sol\":3230:3251  feedRegistry.decimals */\n      0xffffffffffffffffffffffffffffffffffffffff\n      and\n      0x313ce567\n        /* \"contracts/ChainlinkOracle.sol\":3230:3253  feedRegistry.decimals() */\n      mload(0x40)\n      dup2\n      0xffffffff\n      and\n      0xe0\n      shl\n      dup2\n      mstore\n      0x04\n      add\n      0x20\n      mload(0x40)\n      dup1\n      dup4\n      sub\n      dup2\n      dup7\n      gas\n      staticcall\n      iszero\n      dup1\n      iszero\n      tag_53\n      jumpi\n      returndatasize\n      0x00\n      dup1\n      returndatacopy\n      revert(0x00, returndatasize)\n    tag_53:\n      pop\n      pop\n      pop\n      pop\n      mload(0x40)\n      returndatasize\n      not(0x1f)\n      0x1f\n      dup3\n      add\n      and\n      dup3\n      add\n      dup1\n      0x40\n      mstore\n      pop\n      dup2\n      add\n      swap1\n      tag_54\n      swap2\n      swap1\n      tag_55\n      jump\t// in\n    tag_54:\n        /* \"contracts/ChainlinkOracle.sol\":3213:3253  uint8 decimals = feedRegistry.decimals() */\n      swap1\n      pop\n        /* \"contracts/ChainlinkOracle.sol\":3266:3288  int256 underlyingPrice */\n      0x00\n        /* \"contracts/ChainlinkOracle.sol\":1082:1124  0x47Fb2585D2C56Fe188D0E6ec628a38b74fCeeeDf */\n      0x47fb2585d2c56fe188d0e6ec628a38b74fceeedf\n        /* \"contracts/ChainlinkOracle.sol\":3298:3326  feedRegistry.latestRoundData */\n      0xffffffffffffffffffffffffffffffffffffffff\n      and\n      0xbcfd032d\n        /* \"contracts/ChainlinkOracle.sol\":3340:3350  underlying */\n      dup7\n        /* \"contracts/ChainlinkOracle.sol\":3364:3369  quote */\n      dup6\n        /* \"contracts/ChainlinkOracle.sol\":3298:3379  feedRegistry.latestRoundData(... */\n      mload(0x40)\n      dup4\n      0xffffffff\n      and\n      0xe0\n      shl\n      dup2\n      mstore\n      0x04\n      add\n      tag_56\n      swap3\n      swap2\n      swap1\n      tag_57\n      jump\t// in\n    tag_56:\n      0xa0\n      mload(0x40)\n      dup1\n      dup4\n      sub\n      dup2\n      dup7\n      gas\n      staticcall\n      iszero\n      dup1\n      iszero\n      tag_59\n      jumpi\n      returndatasize\n      0x00\n      dup1\n      returndatacopy\n      revert(0x00, returndatasize)\n    tag_59:\n      pop\n      pop\n      pop\n      pop\n      mload(0x40)\n      returndatasize\n      not(0x1f)\n      0x1f\n      dup3\n      add\n      and\n      dup3\n      add\n      dup1\n      0x40\n      mstore\n      pop\n      dup2\n      add\n      swap1\n      tag_60\n      swap2\n      swap1\n      tag_61\n      jump\t// in\n    tag_60:\n        /* \"contracts/ChainlinkOracle.sol\":3263:3379  (, int256 underlyingPrice, , , ) = feedRegistry.latestRoundData(... */\n      pop\n      pop\n      pop\n      swap2\n      pop\n      pop\n        /* \"contracts/ChainlinkOracle.sol\":3527:3535  decimals */\n      dup2\n        /* \"contracts/ChainlinkOracle.sol\":3519:3536  uint256(decimals) */\n      0xff\n      and\n        /* \"contracts/ChainlinkOracle.sol\":3515:3517  10 */\n      0x0a\n        /* \"contracts/ChainlinkOracle.sol\":3515:3536  10**uint256(decimals) */\n      tag_62\n      swap2\n      swap1\n      tag_63\n      jump\t// in\n    tag_62:\n        /* \"contracts/ChainlinkOracle.sol\":3505:3509  1e26 */\n      0x52b7d2dcc80cd2e4000000\n        /* \"contracts/ChainlinkOracle.sol\":3485:3500  underlyingPrice */\n      dup3\n        /* \"contracts/ChainlinkOracle.sol\":3484:3510  (underlyingPrice) * (1e26) */\n      tag_64\n      swap2\n      swap1\n      tag_65\n      jump\t// in\n    tag_64:\n        /* \"contracts/ChainlinkOracle.sol\":3476:3537  uint256((underlyingPrice) * (1e26)) / (10**uint256(decimals)) */\n      tag_66\n      swap2\n      swap1\n      tag_67\n      jump\t// in\n    tag_66:\n        /* \"contracts/ChainlinkOracle.sol\":3390:3537  return... */\n      swap4\n      pop\n      pop\n      pop\n      pop\n        /* \"contracts/ChainlinkOracle.sol\":2695:3544  function _getUnderlyingPrice(address underlying)... */\n      swap2\n      swap1\n      pop\n      jump\t// out\n        /* \"#utility.yul\":7:82   */\n    tag_68:\n        /* \"#utility.yul\":40:46   */\n      0x00\n        /* \"#utility.yul\":73:75   */\n      0x40\n        /* \"#utility.yul\":67:76   */\n      mload\n        /* \"#utility.yul\":57:76   */\n      swap1\n      pop\n        /* \"#utility.yul\":7:82   */\n      swap1\n      jump\t// out\n        /* \"#utility.yul\":88:205   */\n    tag_69:\n        /* \"#utility.yul\":197:198   */\n      0x00\n        /* \"#utility.yul\":194:195   */\n      dup1\n        /* \"#utility.yul\":187:199   */\n      revert\n        /* \"#utility.yul\":211:328   */\n    tag_70:\n        /* \"#utility.yul\":320:321   */\n      0x00\n        /* \"#utility.yul\":317:318   */\n      dup1\n        /* \"#utility.yul\":310:322   */\n      revert\n        /* \"#utility.yul\":334:460   */\n    tag_71:\n        /* \"#utility.yul\":371:378   */\n      0x00\n        /* \"#utility.yul\":411:453   */\n      0xffffffffffffffffffffffffffffffffffffffff\n        /* \"#utility.yul\":404:409   */\n      dup3\n        /* \"#utility.yul\":400:454   */\n      and\n        /* \"#utility.yul\":389:454   */\n      swap1\n      pop\n        /* \"#utility.yul\":334:460   */\n      swap2\n      swap1\n      pop\n      jump\t// out\n        /* \"#utility.yul\":466:562   */\n    tag_72:\n        /* \"#utility.yul\":503:510   */\n      0x00\n        /* \"#utility.yul\":532:556   */\n      tag_114\n        /* \"#utility.yul\":550:555   */\n      dup3\n        /* \"#utility.yul\":532:556   */\n      tag_71\n      jump\t// in\n    tag_114:\n        /* \"#utility.yul\":521:556   */\n      swap1\n      pop\n        /* \"#utility.yul\":466:562   */\n      swap2\n      swap1\n      pop\n      jump\t// out\n        /* \"#utility.yul\":568:690   */\n    tag_73:\n        /* \"#utility.yul\":641:665   */\n      tag_116\n        /* \"#utility.yul\":659:664   */\n      dup2\n        /* \"#utility.yul\":641:665   */\n      tag_72\n      jump\t// in\n    tag_116:\n        /* \"#utility.yul\":634:639   */\n      dup2\n        /* \"#utility.yul\":631:666   */\n      eq\n        /* \"#utility.yul\":621:684   */\n      tag_117\n      jumpi\n        /* \"#utility.yul\":680:681   */\n      0x00\n        /* \"#utility.yul\":677:678   */\n      dup1\n        /* \"#utility.yul\":670:682   */\n      revert\n        /* \"#utility.yul\":621:684   */\n    tag_117:\n        /* \"#utility.yul\":568:690   */\n      pop\n      jump\t// out\n        /* \"#utility.yul\":696:835   */\n    tag_74:\n        /* \"#utility.yul\":742:747   */\n      0x00\n        /* \"#utility.yul\":780:786   */\n      dup2\n        /* \"#utility.yul\":767:787   */\n      calldataload\n        /* \"#utility.yul\":758:787   */\n      swap1\n      pop\n        /* \"#utility.yul\":796:829   */\n      tag_119\n        /* \"#utility.yul\":823:828   */\n      dup2\n        /* \"#utility.yul\":796:829   */\n      tag_73\n      jump\t// in\n    tag_119:\n        /* \"#utility.yul\":696:835   */\n      swap3\n      swap2\n      pop\n      pop\n      jump\t// out\n        /* \"#utility.yul\":841:918   */\n    tag_75:\n        /* \"#utility.yul\":878:885   */\n      0x00\n        /* \"#utility.yul\":907:912   */\n      dup2\n        /* \"#utility.yul\":896:912   */\n      swap1\n      pop\n        /* \"#utility.yul\":841:918   */\n      swap2\n      swap1\n      pop\n      jump\t// out\n        /* \"#utility.yul\":924:1046   */\n    tag_76:\n        /* \"#utility.yul\":997:1021   */\n      tag_122\n        /* \"#utility.yul\":1015:1020   */\n      dup2\n        /* \"#utility.yul\":997:1021   */\n      tag_75\n      jump\t// in\n    tag_122:\n        /* \"#utility.yul\":990:995   */\n      dup2\n        /* \"#utility.yul\":987:1022   */\n      eq\n        /* \"#utility.yul\":977:1040   */\n      tag_123\n      jumpi\n        /* \"#utility.yul\":1036:1037   */\n      0x00\n        /* \"#utility.yul\":1033:1034   */\n      dup1\n        /* \"#utility.yul\":1026:1038   */\n      revert\n        /* \"#utility.yul\":977:1040   */\n    tag_123:\n        /* \"#utility.yul\":924:1046   */\n      pop\n      jump\t// out\n        /* \"#utility.yul\":1052:1191   */\n    tag_77:\n        /* \"#utility.yul\":1098:1103   */\n      0x00\n        /* \"#utility.yul\":1136:1142   */\n      dup2\n        /* \"#utility.yul\":1123:1143   */\n      calldataload\n        /* \"#utility.yul\":1114:1143   */\n      swap1\n      pop\n        /* \"#utility.yul\":1152:1185   */\n      tag_125\n        /* \"#utility.yul\":1179:1184   */\n      dup2\n        /* \"#utility.yul\":1152:1185   */\n      tag_76\n      jump\t// in\n    tag_125:\n        /* \"#utility.yul\":1052:1191   */\n      swap3\n      swap2\n      pop\n      pop\n      jump\t// out\n        /* \"#utility.yul\":1197:1671   */\n    tag_8:\n        /* \"#utility.yul\":1265:1271   */\n      0x00\n        /* \"#utility.yul\":1273:1279   */\n      dup1\n        /* \"#utility.yul\":1322:1324   */\n      0x40\n        /* \"#utility.yul\":1310:1319   */\n      dup4\n        /* \"#utility.yul\":1301:1308   */\n      dup6\n        /* \"#utility.yul\":1297:1320   */\n      sub\n        /* \"#utility.yul\":1293:1325   */\n      slt\n        /* \"#utility.yul\":1290:1409   */\n      iszero\n      tag_127\n      jumpi\n        /* \"#utility.yul\":1328:1407   */\n      tag_128\n      tag_69\n      jump\t// in\n    tag_128:\n        /* \"#utility.yul\":1290:1409   */\n    tag_127:\n        /* \"#utility.yul\":1448:1449   */\n      0x00\n        /* \"#utility.yul\":1473:1526   */\n      tag_129\n        /* \"#utility.yul\":1518:1525   */\n      dup6\n        /* \"#utility.yul\":1509:1515   */\n      dup3\n        /* \"#utility.yul\":1498:1507   */\n      dup7\n        /* \"#utility.yul\":1494:1516   */\n      add\n        /* \"#utility.yul\":1473:1526   */\n      tag_74\n      jump\t// in\n    tag_129:\n        /* \"#utility.yul\":1463:1526   */\n      swap3\n      pop\n        /* \"#utility.yul\":1419:1536   */\n      pop\n        /* \"#utility.yul\":1575:1577   */\n      0x20\n        /* \"#utility.yul\":1601:1654   */\n      tag_130\n        /* \"#utility.yul\":1646:1653   */\n      dup6\n        /* \"#utility.yul\":1637:1643   */\n      dup3\n        /* \"#utility.yul\":1626:1635   */\n      dup7\n        /* \"#utility.yul\":1622:1644   */\n      add\n        /* \"#utility.yul\":1601:1654   */\n      tag_77\n      jump\t// in\n    tag_130:\n        /* \"#utility.yul\":1591:1654   */\n      swap2\n      pop\n        /* \"#utility.yul\":1546:1664   */\n      pop\n        /* \"#utility.yul\":1197:1671   */\n      swap3\n      pop\n      swap3\n      swap1\n      pop\n      jump\t// out\n        /* \"#utility.yul\":1677:1795   */\n    tag_78:\n        /* \"#utility.yul\":1764:1788   */\n      tag_132\n        /* \"#utility.yul\":1782:1787   */\n      dup2\n        /* \"#utility.yul\":1764:1788   */\n      tag_75\n      jump\t// in\n    tag_132:\n        /* \"#utility.yul\":1759:1762   */\n      dup3\n        /* \"#utility.yul\":1752:1789   */\n      mstore\n        /* \"#utility.yul\":1677:1795   */\n      pop\n      pop\n      jump\t// out\n        /* \"#utility.yul\":1801:2023   */\n    tag_11:\n        /* \"#utility.yul\":1894:1898   */\n      0x00\n        /* \"#utility.yul\":1932:1934   */\n      0x20\n        /* \"#utility.yul\":1921:1930   */\n      dup3\n        /* \"#utility.yul\":1917:1935   */\n      add\n        /* \"#utility.yul\":1909:1935   */\n      swap1\n      pop\n        /* \"#utility.yul\":1945:2016   */\n      tag_134\n        /* \"#utility.yul\":2013:2014   */\n      0x00\n        /* \"#utility.yul\":2002:2011   */\n      dup4\n        /* \"#utility.yul\":1998:2015   */\n      add\n        /* \"#utility.yul\":1989:1995   */\n      dup5\n        /* \"#utility.yul\":1945:2016   */\n      tag_78\n      jump\t// in\n    tag_134:\n        /* \"#utility.yul\":1801:2023   */\n      swap3\n      swap2\n      pop\n      pop\n      jump\t// out\n        /* \"#utility.yul\":2029:2147   */\n    tag_79:\n        /* \"#utility.yul\":2116:2140   */\n      tag_136\n        /* \"#utility.yul\":2134:2139   */\n      dup2\n        /* \"#utility.yul\":2116:2140   */\n      tag_72\n      jump\t// in\n    tag_136:\n        /* \"#utility.yul\":2111:2114   */\n      dup3\n        /* \"#utility.yul\":2104:2141   */\n      mstore\n        /* \"#utility.yul\":2029:2147   */\n      pop\n      pop\n      jump\t// out\n        /* \"#utility.yul\":2153:2375   */\n    tag_15:\n        /* \"#utility.yul\":2246:2250   */\n      0x00\n        /* \"#utility.yul\":2284:2286   */\n      0x20\n        /* \"#utility.yul\":2273:2282   */\n      dup3\n        /* \"#utility.yul\":2269:2287   */\n      add\n        /* \"#utility.yul\":2261:2287   */\n      swap1\n      pop\n        /* \"#utility.yul\":2297:2368   */\n      tag_138\n        /* \"#utility.yul\":2365:2366   */\n      0x00\n        /* \"#utility.yul\":2354:2363   */\n      dup4\n        /* \"#utility.yul\":2350:2367   */\n      add\n        /* \"#utility.yul\":2341:2347   */\n      dup5\n        /* \"#utility.yul\":2297:2368   */\n      tag_79\n      jump\t// in\n    tag_138:\n        /* \"#utility.yul\":2153:2375   */\n      swap3\n      swap2\n      pop\n      pop\n      jump\t// out\n        /* \"#utility.yul\":2381:2710   */\n    tag_18:\n        /* \"#utility.yul\":2440:2446   */\n      0x00\n        /* \"#utility.yul\":2489:2491   */\n      0x20\n        /* \"#utility.yul\":2477:2486   */\n      dup3\n        /* \"#utility.yul\":2468:2475   */\n      dup5\n        /* \"#utility.yul\":2464:2487   */\n      sub\n        /* \"#utility.yul\":2460:2492   */\n      slt\n        /* \"#utility.yul\":2457:2576   */\n      iszero\n      tag_140\n      jumpi\n        /* \"#utility.yul\":2495:2574   */\n      tag_141\n      tag_69\n      jump\t// in\n    tag_141:\n        /* \"#utility.yul\":2457:2576   */\n    tag_140:\n        /* \"#utility.yul\":2615:2616   */\n      0x00\n        /* \"#utility.yul\":2640:2693   */\n      tag_142\n        /* \"#utility.yul\":2685:2692   */\n      dup5\n        /* \"#utility.yul\":2676:2682   */\n      dup3\n        /* \"#utility.yul\":2665:2674   */\n      dup6\n        /* \"#utility.yul\":2661:2683   */\n      add\n        /* \"#utility.yul\":2640:2693   */\n      tag_74\n      jump\t// in\n    tag_142:\n        /* \"#utility.yul\":2630:2693   */\n      swap2\n      pop\n        /* \"#utility.yul\":2586:2703   */\n      pop\n        /* \"#utility.yul\":2381:2710   */\n      swap3\n      swap2\n      pop\n      pop\n      jump\t// out\n        /* \"#utility.yul\":2716:2833   */\n    tag_80:\n        /* \"#utility.yul\":2825:2826   */\n      0x00\n        /* \"#utility.yul\":2822:2823   */\n      dup1\n        /* \"#utility.yul\":2815:2827   */\n      revert\n        /* \"#utility.yul\":2839:2941   */\n    tag_81:\n        /* \"#utility.yul\":2880:2886   */\n      0x00\n        /* \"#utility.yul\":2931:2933   */\n      0x1f\n        /* \"#utility.yul\":2927:2934   */\n      not\n        /* \"#utility.yul\":2922:2924   */\n      0x1f\n        /* \"#utility.yul\":2915:2920   */\n      dup4\n        /* \"#utility.yul\":2911:2925   */\n      add\n        /* \"#utility.yul\":2907:2935   */\n      and\n        /* \"#utility.yul\":2897:2935   */\n      swap1\n      pop\n        /* \"#utility.yul\":2839:2941   */\n      swap2\n      swap1\n      pop\n      jump\t// out\n        /* \"#utility.yul\":2947:3127   */\n    tag_82:\n        /* \"#utility.yul\":2995:3072   */\n      0x4e487b7100000000000000000000000000000000000000000000000000000000\n        /* \"#utility.yul\":2992:2993   */\n      0x00\n        /* \"#utility.yul\":2985:3073   */\n      mstore\n        /* \"#utility.yul\":3092:3096   */\n      0x41\n        /* \"#utility.yul\":3089:3090   */\n      0x04\n        /* \"#utility.yul\":3082:3097   */\n      mstore\n        /* \"#utility.yul\":3116:3120   */\n      0x24\n        /* \"#utility.yul\":3113:3114   */\n      0x00\n        /* \"#utility.yul\":3106:3121   */\n      revert\n        /* \"#utility.yul\":3133:3414   */\n    tag_83:\n        /* \"#utility.yul\":3216:3243   */\n      tag_147\n        /* \"#utility.yul\":3238:3242   */\n      dup3\n        /* \"#utility.yul\":3216:3243   */\n      tag_81\n      jump\t// in\n    tag_147:\n        /* \"#utility.yul\":3208:3214   */\n      dup2\n        /* \"#utility.yul\":3204:3244   */\n      add\n        /* \"#utility.yul\":3346:3352   */\n      dup2\n        /* \"#utility.yul\":3334:3344   */\n      dup2\n        /* \"#utility.yul\":3331:3353   */\n      lt\n        /* \"#utility.yul\":3310:3328   */\n      0xffffffffffffffff\n        /* \"#utility.yul\":3298:3308   */\n      dup3\n        /* \"#utility.yul\":3295:3329   */\n      gt\n        /* \"#utility.yul\":3292:3354   */\n      or\n        /* \"#utility.yul\":3289:3377   */\n      iszero\n      tag_148\n      jumpi\n        /* \"#utility.yul\":3357:3375   */\n      tag_149\n      tag_82\n      jump\t// in\n    tag_149:\n        /* \"#utility.yul\":3289:3377   */\n    tag_148:\n        /* \"#utility.yul\":3397:3407   */\n      dup1\n        /* \"#utility.yul\":3393:3395   */\n      0x40\n        /* \"#utility.yul\":3386:3408   */\n      mstore\n        /* \"#utility.yul\":3176:3414   */\n      pop\n        /* \"#utility.yul\":3133:3414   */\n      pop\n      pop\n      jump\t// out\n        /* \"#utility.yul\":3420:3549   */\n    tag_84:\n        /* \"#utility.yul\":3454:3460   */\n      0x00\n        /* \"#utility.yul\":3481:3501   */\n      tag_151\n      tag_68\n      jump\t// in\n    tag_151:\n        /* \"#utility.yul\":3471:3501   */\n      swap1\n      pop\n        /* \"#utility.yul\":3510:3543   */\n      tag_152\n        /* \"#utility.yul\":3538:3542   */\n      dup3\n        /* \"#utility.yul\":3530:3536   */\n      dup3\n        /* \"#utility.yul\":3510:3543   */\n      tag_83\n      jump\t// in\n    tag_152:\n        /* \"#utility.yul\":3420:3549   */\n      swap2\n      swap1\n      pop\n      jump\t// out\n        /* \"#utility.yul\":3555:3866   */\n    tag_85:\n        /* \"#utility.yul\":3632:3636   */\n      0x00\n        /* \"#utility.yul\":3722:3740   */\n      0xffffffffffffffff\n        /* \"#utility.yul\":3714:3720   */\n      dup3\n        /* \"#utility.yul\":3711:3741   */\n      gt\n        /* \"#utility.yul\":3708:3764   */\n      iszero\n      tag_154\n      jumpi\n        /* \"#utility.yul\":3744:3762   */\n      tag_155\n      tag_82\n      jump\t// in\n    tag_155:\n        /* \"#utility.yul\":3708:3764   */\n    tag_154:\n        /* \"#utility.yul\":3794:3798   */\n      0x20\n        /* \"#utility.yul\":3786:3792   */\n      dup3\n        /* \"#utility.yul\":3782:3799   */\n      mul\n        /* \"#utility.yul\":3774:3799   */\n      swap1\n      pop\n        /* \"#utility.yul\":3854:3858   */\n      0x20\n        /* \"#utility.yul\":3848:3852   */\n      dup2\n        /* \"#utility.yul\":3844:3859   */\n      add\n        /* \"#utility.yul\":3836:3859   */\n      swap1\n      pop\n        /* \"#utility.yul\":3555:3866   */\n      swap2\n      swap1\n      pop\n      jump\t// out\n        /* \"#utility.yul\":3872:3989   */\n    tag_86:\n        /* \"#utility.yul\":3981:3982   */\n      0x00\n        /* \"#utility.yul\":3978:3979   */\n      dup1\n        /* \"#utility.yul\":3971:3983   */\n      revert\n        /* \"#utility.yul\":3995:4138   */\n    tag_87:\n        /* \"#utility.yul\":4052:4057   */\n      0x00\n        /* \"#utility.yul\":4083:4089   */\n      dup2\n        /* \"#utility.yul\":4077:4090   */\n      mload\n        /* \"#utility.yul\":4068:4090   */\n      swap1\n      pop\n        /* \"#utility.yul\":4099:4132   */\n      tag_158\n        /* \"#utility.yul\":4126:4131   */\n      dup2\n        /* \"#utility.yul\":4099:4132   */\n      tag_73\n      jump\t// in\n    tag_158:\n        /* \"#utility.yul\":3995:4138   */\n      swap3\n      swap2\n      pop\n      pop\n      jump\t// out\n        /* \"#utility.yul\":4161:4893   */\n    tag_88:\n        /* \"#utility.yul\":4268:4273   */\n      0x00\n        /* \"#utility.yul\":4293:4374   */\n      tag_160\n        /* \"#utility.yul\":4309:4373   */\n      tag_161\n        /* \"#utility.yul\":4366:4372   */\n      dup5\n        /* \"#utility.yul\":4309:4373   */\n      tag_85\n      jump\t// in\n    tag_161:\n        /* \"#utility.yul\":4293:4374   */\n      tag_84\n      jump\t// in\n    tag_160:\n        /* \"#utility.yul\":4284:4374   */\n      swap1\n      pop\n        /* \"#utility.yul\":4394:4399   */\n      dup1\n        /* \"#utility.yul\":4423:4429   */\n      dup4\n        /* \"#utility.yul\":4416:4421   */\n      dup3\n        /* \"#utility.yul\":4409:4430   */\n      mstore\n        /* \"#utility.yul\":4457:4461   */\n      0x20\n        /* \"#utility.yul\":4450:4455   */\n      dup3\n        /* \"#utility.yul\":4446:4462   */\n      add\n        /* \"#utility.yul\":4439:4462   */\n      swap1\n      pop\n        /* \"#utility.yul\":4510:4514   */\n      0x20\n        /* \"#utility.yul\":4502:4508   */\n      dup5\n        /* \"#utility.yul\":4498:4515   */\n      mul\n        /* \"#utility.yul\":4490:4496   */\n      dup4\n        /* \"#utility.yul\":4486:4516   */\n      add\n        /* \"#utility.yul\":4539:4542   */\n      dup6\n        /* \"#utility.yul\":4531:4537   */\n      dup2\n        /* \"#utility.yul\":4528:4543   */\n      gt\n        /* \"#utility.yul\":4525:4647   */\n      iszero\n      tag_162\n      jumpi\n        /* \"#utility.yul\":4558:4637   */\n      tag_163\n      tag_86\n      jump\t// in\n    tag_163:\n        /* \"#utility.yul\":4525:4647   */\n    tag_162:\n        /* \"#utility.yul\":4673:4679   */\n      dup4\n        /* \"#utility.yul\":4656:4887   */\n    tag_164:\n        /* \"#utility.yul\":4690:4696   */\n      dup2\n        /* \"#utility.yul\":4685:4688   */\n      dup2\n        /* \"#utility.yul\":4682:4697   */\n      lt\n        /* \"#utility.yul\":4656:4887   */\n      iszero\n      tag_166\n      jumpi\n        /* \"#utility.yul\":4765:4768   */\n      dup1\n        /* \"#utility.yul\":4794:4842   */\n      tag_167\n        /* \"#utility.yul\":4838:4841   */\n      dup9\n        /* \"#utility.yul\":4826:4836   */\n      dup3\n        /* \"#utility.yul\":4794:4842   */\n      tag_87\n      jump\t// in\n    tag_167:\n        /* \"#utility.yul\":4789:4792   */\n      dup5\n        /* \"#utility.yul\":4782:4843   */\n      mstore\n        /* \"#utility.yul\":4872:4876   */\n      0x20\n        /* \"#utility.yul\":4867:4870   */\n      dup5\n        /* \"#utility.yul\":4863:4877   */\n      add\n        /* \"#utility.yul\":4856:4877   */\n      swap4\n      pop\n        /* \"#utility.yul\":4732:4887   */\n      pop\n        /* \"#utility.yul\":4716:4720   */\n      0x20\n        /* \"#utility.yul\":4711:4714   */\n      dup2\n        /* \"#utility.yul\":4707:4721   */\n      add\n        /* \"#utility.yul\":4700:4721   */\n      swap1\n      pop\n        /* \"#utility.yul\":4656:4887   */\n      jump(tag_164)\n    tag_166:\n        /* \"#utility.yul\":4660:4681   */\n      pop\n        /* \"#utility.yul\":4274:4893   */\n      pop\n      pop\n        /* \"#utility.yul\":4161:4893   */\n      swap4\n      swap3\n      pop\n      pop\n      pop\n      jump\t// out\n        /* \"#utility.yul\":4916:5301   */\n    tag_89:\n        /* \"#utility.yul\":4998:5003   */\n      0x00\n        /* \"#utility.yul\":5047:5050   */\n      dup3\n        /* \"#utility.yul\":5040:5044   */\n      0x1f\n        /* \"#utility.yul\":5032:5038   */\n      dup4\n        /* \"#utility.yul\":5028:5045   */\n      add\n        /* \"#utility.yul\":5024:5051   */\n      slt\n        /* \"#utility.yul\":5014:5136   */\n      tag_169\n      jumpi\n        /* \"#utility.yul\":5055:5134   */\n      tag_170\n      tag_80\n      jump\t// in\n    tag_170:\n        /* \"#utility.yul\":5014:5136   */\n    tag_169:\n        /* \"#utility.yul\":5165:5171   */\n      dup2\n        /* \"#utility.yul\":5159:5172   */\n      mload\n        /* \"#utility.yul\":5190:5295   */\n      tag_171\n        /* \"#utility.yul\":5291:5294   */\n      dup5\n        /* \"#utility.yul\":5283:5289   */\n      dup3\n        /* \"#utility.yul\":5276:5280   */\n      0x20\n        /* \"#utility.yul\":5268:5274   */\n      dup7\n        /* \"#utility.yul\":5264:5281   */\n      add\n        /* \"#utility.yul\":5190:5295   */\n      tag_88\n      jump\t// in\n    tag_171:\n        /* \"#utility.yul\":5181:5295   */\n      swap2\n      pop\n        /* \"#utility.yul\":5004:5301   */\n      pop\n        /* \"#utility.yul\":4916:5301   */\n      swap3\n      swap2\n      pop\n      pop\n      jump\t// out\n        /* \"#utility.yul\":5307:5861   */\n    tag_29:\n        /* \"#utility.yul\":5402:5408   */\n      0x00\n        /* \"#utility.yul\":5451:5453   */\n      0x20\n        /* \"#utility.yul\":5439:5448   */\n      dup3\n        /* \"#utility.yul\":5430:5437   */\n      dup5\n        /* \"#utility.yul\":5426:5449   */\n      sub\n        /* \"#utility.yul\":5422:5454   */\n      slt\n        /* \"#utility.yul\":5419:5538   */\n      iszero\n      tag_173\n      jumpi\n        /* \"#utility.yul\":5457:5536   */\n      tag_174\n      tag_69\n      jump\t// in\n    tag_174:\n        /* \"#utility.yul\":5419:5538   */\n    tag_173:\n        /* \"#utility.yul\":5598:5599   */\n      0x00\n        /* \"#utility.yul\":5587:5596   */\n      dup3\n        /* \"#utility.yul\":5583:5600   */\n      add\n        /* \"#utility.yul\":5577:5601   */\n      mload\n        /* \"#utility.yul\":5628:5646   */\n      0xffffffffffffffff\n        /* \"#utility.yul\":5620:5626   */\n      dup2\n        /* \"#utility.yul\":5617:5647   */\n      gt\n        /* \"#utility.yul\":5614:5731   */\n      iszero\n      tag_175\n      jumpi\n        /* \"#utility.yul\":5650:5729   */\n      tag_176\n      tag_70\n      jump\t// in\n    tag_176:\n        /* \"#utility.yul\":5614:5731   */\n    tag_175:\n        /* \"#utility.yul\":5755:5844   */\n      tag_177\n        /* \"#utility.yul\":5836:5843   */\n      dup5\n        /* \"#utility.yul\":5827:5833   */\n      dup3\n        /* \"#utility.yul\":5816:5825   */\n      dup6\n        /* \"#utility.yul\":5812:5834   */\n      add\n        /* \"#utility.yul\":5755:5844   */\n      tag_89\n      jump\t// in\n    tag_177:\n        /* \"#utility.yul\":5745:5844   */\n      swap2\n      pop\n        /* \"#utility.yul\":5548:5854   */\n      pop\n        /* \"#utility.yul\":5307:5861   */\n      swap3\n      swap2\n      pop\n      pop\n      jump\t// out\n        /* \"#utility.yul\":5867:6178   */\n    tag_90:\n        /* \"#utility.yul\":5944:5948   */\n      0x00\n        /* \"#utility.yul\":6034:6052   */\n      0xffffffffffffffff\n        /* \"#utility.yul\":6026:6032   */\n      dup3\n        /* \"#utility.yul\":6023:6053   */\n      gt\n        /* \"#utility.yul\":6020:6076   */\n      iszero\n      tag_179\n      jumpi\n        /* \"#utility.yul\":6056:6074   */\n      tag_180\n      tag_82\n      jump\t// in\n    tag_180:\n        /* \"#utility.yul\":6020:6076   */\n    tag_179:\n        /* \"#utility.yul\":6106:6110   */\n      0x20\n        /* \"#utility.yul\":6098:6104   */\n      dup3\n        /* \"#utility.yul\":6094:6111   */\n      mul\n        /* \"#utility.yul\":6086:6111   */\n      swap1\n      pop\n        /* \"#utility.yul\":6166:6170   */\n      0x20\n        /* \"#utility.yul\":6160:6164   */\n      dup2\n        /* \"#utility.yul\":6156:6171   */\n      add\n        /* \"#utility.yul\":6148:6171   */\n      swap1\n      pop\n        /* \"#utility.yul\":5867:6178   */\n      swap2\n      swap1\n      pop\n      jump\t// out\n        /* \"#utility.yul\":6184:6327   */\n    tag_91:\n        /* \"#utility.yul\":6241:6246   */\n      0x00\n        /* \"#utility.yul\":6272:6278   */\n      dup2\n        /* \"#utility.yul\":6266:6279   */\n      mload\n        /* \"#utility.yul\":6257:6279   */\n      swap1\n      pop\n        /* \"#utility.yul\":6288:6321   */\n      tag_182\n        /* \"#utility.yul\":6315:6320   */\n      dup2\n        /* \"#utility.yul\":6288:6321   */\n      tag_76\n      jump\t// in\n    tag_182:\n        /* \"#utility.yul\":6184:6327   */\n      swap3\n      swap2\n      pop\n      pop\n      jump\t// out\n        /* \"#utility.yul\":6350:7082   */\n    tag_92:\n        /* \"#utility.yul\":6457:6462   */\n      0x00\n        /* \"#utility.yul\":6482:6563   */\n      tag_184\n        /* \"#utility.yul\":6498:6562   */\n      tag_185\n        /* \"#utility.yul\":6555:6561   */\n      dup5\n        /* \"#utility.yul\":6498:6562   */\n      tag_90\n      jump\t// in\n    tag_185:\n        /* \"#utility.yul\":6482:6563   */\n      tag_84\n      jump\t// in\n    tag_184:\n        /* \"#utility.yul\":6473:6563   */\n      swap1\n      pop\n        /* \"#utility.yul\":6583:6588   */\n      dup1\n        /* \"#utility.yul\":6612:6618   */\n      dup4\n        /* \"#utility.yul\":6605:6610   */\n      dup3\n        /* \"#utility.yul\":6598:6619   */\n      mstore\n        /* \"#utility.yul\":6646:6650   */\n      0x20\n        /* \"#utility.yul\":6639:6644   */\n      dup3\n        /* \"#utility.yul\":6635:6651   */\n      add\n        /* \"#utility.yul\":6628:6651   */\n      swap1\n      pop\n        /* \"#utility.yul\":6699:6703   */\n      0x20\n        /* \"#utility.yul\":6691:6697   */\n      dup5\n        /* \"#utility.yul\":6687:6704   */\n      mul\n        /* \"#utility.yul\":6679:6685   */\n      dup4\n        /* \"#utility.yul\":6675:6705   */\n      add\n        /* \"#utility.yul\":6728:6731   */\n      dup6\n        /* \"#utility.yul\":6720:6726   */\n      dup2\n        /* \"#utility.yul\":6717:6732   */\n      gt\n        /* \"#utility.yul\":6714:6836   */\n      iszero\n      tag_186\n      jumpi\n        /* \"#utility.yul\":6747:6826   */\n      tag_187\n      tag_86\n      jump\t// in\n    tag_187:\n        /* \"#utility.yul\":6714:6836   */\n    tag_186:\n        /* \"#utility.yul\":6862:6868   */\n      dup4\n        /* \"#utility.yul\":6845:7076   */\n    tag_188:\n        /* \"#utility.yul\":6879:6885   */\n      dup2\n        /* \"#utility.yul\":6874:6877   */\n      dup2\n        /* \"#utility.yul\":6871:6886   */\n      lt\n        /* \"#utility.yul\":6845:7076   */\n      iszero\n      tag_190\n      jumpi\n        /* \"#utility.yul\":6954:6957   */\n      dup1\n        /* \"#utility.yul\":6983:7031   */\n      tag_191\n        /* \"#utility.yul\":7027:7030   */\n      dup9\n        /* \"#utility.yul\":7015:7025   */\n      dup3\n        /* \"#utility.yul\":6983:7031   */\n      tag_91\n      jump\t// in\n    tag_191:\n        /* \"#utility.yul\":6978:6981   */\n      dup5\n        /* \"#utility.yul\":6971:7032   */\n      mstore\n        /* \"#utility.yul\":7061:7065   */\n      0x20\n        /* \"#utility.yul\":7056:7059   */\n      dup5\n        /* \"#utility.yul\":7052:7066   */\n      add\n        /* \"#utility.yul\":7045:7066   */\n      swap4\n      pop\n        /* \"#utility.yul\":6921:7076   */\n      pop\n        /* \"#utility.yul\":6905:6909   */\n      0x20\n        /* \"#utility.yul\":6900:6903   */\n      dup2\n        /* \"#utility.yul\":6896:6910   */\n      add\n        /* \"#utility.yul\":6889:6910   */\n      swap1\n      pop\n        /* \"#utility.yul\":6845:7076   */\n      jump(tag_188)\n    tag_190:\n        /* \"#utility.yul\":6849:6870   */\n      pop\n        /* \"#utility.yul\":6463:7082   */\n      pop\n      pop\n        /* \"#utility.yul\":6350:7082   */\n      swap4\n      swap3\n      pop\n      pop\n      pop\n      jump\t// out\n        /* \"#utility.yul\":7105:7490   */\n    tag_93:\n        /* \"#utility.yul\":7187:7192   */\n      0x00\n        /* \"#utility.yul\":7236:7239   */\n      dup3\n        /* \"#utility.yul\":7229:7233   */\n      0x1f\n        /* \"#utility.yul\":7221:7227   */\n      dup4\n        /* \"#utility.yul\":7217:7234   */\n      add\n        /* \"#utility.yul\":7213:7240   */\n      slt\n        /* \"#utility.yul\":7203:7325   */\n      tag_193\n      jumpi\n        /* \"#utility.yul\":7244:7323   */\n      tag_194\n      tag_80\n      jump\t// in\n    tag_194:\n        /* \"#utility.yul\":7203:7325   */\n    tag_193:\n        /* \"#utility.yul\":7354:7360   */\n      dup2\n        /* \"#utility.yul\":7348:7361   */\n      mload\n        /* \"#utility.yul\":7379:7484   */\n      tag_195\n        /* \"#utility.yul\":7480:7483   */\n      dup5\n        /* \"#utility.yul\":7472:7478   */\n      dup3\n        /* \"#utility.yul\":7465:7469   */\n      0x20\n        /* \"#utility.yul\":7457:7463   */\n      dup7\n        /* \"#utility.yul\":7453:7470   */\n      add\n        /* \"#utility.yul\":7379:7484   */\n      tag_92\n      jump\t// in\n    tag_195:\n        /* \"#utility.yul\":7370:7484   */\n      swap2\n      pop\n        /* \"#utility.yul\":7193:7490   */\n      pop\n        /* \"#utility.yul\":7105:7490   */\n      swap3\n      swap2\n      pop\n      pop\n      jump\t// out\n        /* \"#utility.yul\":7496:8050   */\n    tag_34:\n        /* \"#utility.yul\":7591:7597   */\n      0x00\n        /* \"#utility.yul\":7640:7642   */\n      0x20\n        /* \"#utility.yul\":7628:7637   */\n      dup3\n        /* \"#utility.yul\":7619:7626   */\n      dup5\n        /* \"#utility.yul\":7615:7638   */\n      sub\n        /* \"#utility.yul\":7611:7643   */\n      slt\n        /* \"#utility.yul\":7608:7727   */\n      iszero\n      tag_197\n      jumpi\n        /* \"#utility.yul\":7646:7725   */\n      tag_198\n      tag_69\n      jump\t// in\n    tag_198:\n        /* \"#utility.yul\":7608:7727   */\n    tag_197:\n        /* \"#utility.yul\":7787:7788   */\n      0x00\n        /* \"#utility.yul\":7776:7785   */\n      dup3\n        /* \"#utility.yul\":7772:7789   */\n      add\n        /* \"#utility.yul\":7766:7790   */\n      mload\n        /* \"#utility.yul\":7817:7835   */\n      0xffffffffffffffff\n        /* \"#utility.yul\":7809:7815   */\n      dup2\n        /* \"#utility.yul\":7806:7836   */\n      gt\n        /* \"#utility.yul\":7803:7920   */\n      iszero\n      tag_199\n      jumpi\n        /* \"#utility.yul\":7839:7918   */\n      tag_200\n      tag_70\n      jump\t// in\n    tag_200:\n        /* \"#utility.yul\":7803:7920   */\n    tag_199:\n        /* \"#utility.yul\":7944:8033   */\n      tag_201\n        /* \"#utility.yul\":8025:8032   */\n      dup5\n        /* \"#utility.yul\":8016:8022   */\n      dup3\n        /* \"#utility.yul\":8005:8014   */\n      dup6\n        /* \"#utility.yul\":8001:8023   */\n      add\n        /* \"#utility.yul\":7944:8033   */\n      tag_93\n      jump\t// in\n    tag_201:\n        /* \"#utility.yul\":7934:8033   */\n      swap2\n      pop\n        /* \"#utility.yul\":7737:8043   */\n      pop\n        /* \"#utility.yul\":7496:8050   */\n      swap3\n      swap2\n      pop\n      pop\n      jump\t// out\n        /* \"#utility.yul\":8056:8236   */\n    tag_41:\n        /* \"#utility.yul\":8104:8181   */\n      0x4e487b7100000000000000000000000000000000000000000000000000000000\n        /* \"#utility.yul\":8101:8102   */\n      0x00\n        /* \"#utility.yul\":8094:8182   */\n      mstore\n        /* \"#utility.yul\":8201:8205   */\n      0x32\n        /* \"#utility.yul\":8198:8199   */\n      0x04\n        /* \"#utility.yul\":8191:8206   */\n      mstore\n        /* \"#utility.yul\":8225:8229   */\n      0x24\n        /* \"#utility.yul\":8222:8223   */\n      0x00\n        /* \"#utility.yul\":8215:8230   */\n      revert\n        /* \"#utility.yul\":8242:8422   */\n    tag_94:\n        /* \"#utility.yul\":8290:8367   */\n      0x4e487b7100000000000000000000000000000000000000000000000000000000\n        /* \"#utility.yul\":8287:8288   */\n      0x00\n        /* \"#utility.yul\":8280:8368   */\n      mstore\n        /* \"#utility.yul\":8387:8391   */\n      0x11\n        /* \"#utility.yul\":8384:8385   */\n      0x04\n        /* \"#utility.yul\":8377:8392   */\n      mstore\n        /* \"#utility.yul\":8411:8415   */\n      0x24\n        /* \"#utility.yul\":8408:8409   */\n      0x00\n        /* \"#utility.yul\":8401:8416   */\n      revert\n        /* \"#utility.yul\":8428:8838   */\n    tag_46:\n        /* \"#utility.yul\":8468:8475   */\n      0x00\n        /* \"#utility.yul\":8491:8511   */\n      tag_205\n        /* \"#utility.yul\":8509:8510   */\n      dup3\n        /* \"#utility.yul\":8491:8511   */\n      tag_75\n      jump\t// in\n    tag_205:\n        /* \"#utility.yul\":8486:8511   */\n      swap2\n      pop\n        /* \"#utility.yul\":8525:8545   */\n      tag_206\n        /* \"#utility.yul\":8543:8544   */\n      dup4\n        /* \"#utility.yul\":8525:8545   */\n      tag_75\n      jump\t// in\n    tag_206:\n        /* \"#utility.yul\":8520:8545   */\n      swap3\n      pop\n        /* \"#utility.yul\":8580:8581   */\n      dup3\n        /* \"#utility.yul\":8577:8578   */\n      dup3\n        /* \"#utility.yul\":8573:8582   */\n      mul\n        /* \"#utility.yul\":8602:8632   */\n      tag_207\n        /* \"#utility.yul\":8620:8631   */\n      dup2\n        /* \"#utility.yul\":8602:8632   */\n      tag_75\n      jump\t// in\n    tag_207:\n        /* \"#utility.yul\":8591:8632   */\n      swap2\n      pop\n        /* \"#utility.yul\":8781:8782   */\n      dup3\n        /* \"#utility.yul\":8772:8779   */\n      dup3\n        /* \"#utility.yul\":8768:8783   */\n      div\n        /* \"#utility.yul\":8765:8766   */\n      dup5\n        /* \"#utility.yul\":8762:8784   */\n      eq\n        /* \"#utility.yul\":8742:8743   */\n      dup4\n        /* \"#utility.yul\":8735:8744   */\n      iszero\n        /* \"#utility.yul\":8715:8798   */\n      or\n        /* \"#utility.yul\":8692:8831   */\n      tag_208\n      jumpi\n        /* \"#utility.yul\":8811:8829   */\n      tag_209\n      tag_94\n      jump\t// in\n    tag_209:\n        /* \"#utility.yul\":8692:8831   */\n    tag_208:\n        /* \"#utility.yul\":8476:8838   */\n      pop\n        /* \"#utility.yul\":8428:8838   */\n      swap3\n      swap2\n      pop\n      pop\n      jump\t// out\n        /* \"#utility.yul\":8844:9035   */\n    tag_48:\n        /* \"#utility.yul\":8884:8887   */\n      0x00\n        /* \"#utility.yul\":8903:8923   */\n      tag_211\n        /* \"#utility.yul\":8921:8922   */\n      dup3\n        /* \"#utility.yul\":8903:8923   */\n      tag_75\n      jump\t// in\n    tag_211:\n        /* \"#utility.yul\":8898:8923   */\n      swap2\n      pop\n        /* \"#utility.yul\":8937:8957   */\n      tag_212\n        /* \"#utility.yul\":8955:8956   */\n      dup4\n        /* \"#utility.yul\":8937:8957   */\n      tag_75\n      jump\t// in\n    tag_212:\n        /* \"#utility.yul\":8932:8957   */\n      swap3\n      pop\n        /* \"#utility.yul\":8980:8981   */\n      dup3\n        /* \"#utility.yul\":8977:8978   */\n      dup3\n        /* \"#utility.yul\":8973:8982   */\n      add\n        /* \"#utility.yul\":8966:8982   */\n      swap1\n      pop\n        /* \"#utility.yul\":9001:9004   */\n      dup1\n        /* \"#utility.yul\":8998:8999   */\n      dup3\n        /* \"#utility.yul\":8995:9005   */\n      gt\n        /* \"#utility.yul\":8992:9028   */\n      iszero\n      tag_213\n      jumpi\n        /* \"#utility.yul\":9008:9026   */\n      tag_214\n      tag_94\n      jump\t// in\n    tag_214:\n        /* \"#utility.yul\":8992:9028   */\n    tag_213:\n        /* \"#utility.yul\":8844:9035   */\n      swap3\n      swap2\n      pop\n      pop\n      jump\t// out\n        /* \"#utility.yul\":9041:9127   */\n    tag_95:\n        /* \"#utility.yul\":9076:9083   */\n      0x00\n        /* \"#utility.yul\":9116:9120   */\n      0xff\n        /* \"#utility.yul\":9109:9114   */\n      dup3\n        /* \"#utility.yul\":9105:9121   */\n      and\n        /* \"#utility.yul\":9094:9121   */\n      swap1\n      pop\n        /* \"#utility.yul\":9041:9127   */\n      swap2\n      swap1\n      pop\n      jump\t// out\n        /* \"#utility.yul\":9133:9251   */\n    tag_96:\n        /* \"#utility.yul\":9204:9226   */\n      tag_217\n        /* \"#utility.yul\":9220:9225   */\n      dup2\n        /* \"#utility.yul\":9204:9226   */\n      tag_95\n      jump\t// in\n    tag_217:\n        /* \"#utility.yul\":9197:9202   */\n      dup2\n        /* \"#utility.yul\":9194:9227   */\n      eq\n        /* \"#utility.yul\":9184:9245   */\n      tag_218\n      jumpi\n        /* \"#utility.yul\":9241:9242   */\n      0x00\n        /* \"#utility.yul\":9238:9239   */\n      dup1\n        /* \"#utility.yul\":9231:9243   */\n      revert\n        /* \"#utility.yul\":9184:9245   */\n    tag_218:\n        /* \"#utility.yul\":9133:9251   */\n      pop\n      jump\t// out\n        /* \"#utility.yul\":9257:9396   */\n    tag_97:\n        /* \"#utility.yul\":9312:9317   */\n      0x00\n        /* \"#utility.yul\":9343:9349   */\n      dup2\n        /* \"#utility.yul\":9337:9350   */\n      mload\n        /* \"#utility.yul\":9328:9350   */\n      swap1\n      pop\n        /* \"#utility.yul\":9359:9390   */\n      tag_220\n        /* \"#utility.yul\":9384:9389   */\n      dup2\n        /* \"#utility.yul\":9359:9390   */\n      tag_96\n      jump\t// in\n    tag_220:\n        /* \"#utility.yul\":9257:9396   */\n      swap3\n      swap2\n      pop\n      pop\n      jump\t// out\n        /* \"#utility.yul\":9402:9749   */\n    tag_55:\n        /* \"#utility.yul\":9470:9476   */\n      0x00\n        /* \"#utility.yul\":9519:9521   */\n      0x20\n        /* \"#utility.yul\":9507:9516   */\n      dup3\n        /* \"#utility.yul\":9498:9505   */\n      dup5\n        /* \"#utility.yul\":9494:9517   */\n      sub\n        /* \"#utility.yul\":9490:9522   */\n      slt\n        /* \"#utility.yul\":9487:9606   */\n      iszero\n      tag_222\n      jumpi\n        /* \"#utility.yul\":9525:9604   */\n      tag_223\n      tag_69\n      jump\t// in\n    tag_223:\n        /* \"#utility.yul\":9487:9606   */\n    tag_222:\n        /* \"#utility.yul\":9645:9646   */\n      0x00\n        /* \"#utility.yul\":9670:9732   */\n      tag_224\n        /* \"#utility.yul\":9724:9731   */\n      dup5\n        /* \"#utility.yul\":9715:9721   */\n      dup3\n        /* \"#utility.yul\":9704:9713   */\n      dup6\n        /* \"#utility.yul\":9700:9722   */\n      add\n        /* \"#utility.yul\":9670:9732   */\n      tag_97\n      jump\t// in\n    tag_224:\n        /* \"#utility.yul\":9660:9732   */\n      swap2\n      pop\n        /* \"#utility.yul\":9616:9742   */\n      pop\n        /* \"#utility.yul\":9402:9749   */\n      swap3\n      swap2\n      pop\n      pop\n      jump\t// out\n        /* \"#utility.yul\":9755:10087   */\n    tag_57:\n        /* \"#utility.yul\":9876:9880   */\n      0x00\n        /* \"#utility.yul\":9914:9916   */\n      0x40\n        /* \"#utility.yul\":9903:9912   */\n      dup3\n        /* \"#utility.yul\":9899:9917   */\n      add\n        /* \"#utility.yul\":9891:9917   */\n      swap1\n      pop\n        /* \"#utility.yul\":9927:9998   */\n      tag_226\n        /* \"#utility.yul\":9995:9996   */\n      0x00\n        /* \"#utility.yul\":9984:9993   */\n      dup4\n        /* \"#utility.yul\":9980:9997   */\n      add\n        /* \"#utility.yul\":9971:9977   */\n      dup6\n        /* \"#utility.yul\":9927:9998   */\n      tag_79\n      jump\t// in\n    tag_226:\n        /* \"#utility.yul\":10008:10080   */\n      tag_227\n        /* \"#utility.yul\":10076:10078   */\n      0x20\n        /* \"#utility.yul\":10065:10074   */\n      dup4\n        /* \"#utility.yul\":10061:10079   */\n      add\n        /* \"#utility.yul\":10052:10058   */\n      dup5\n        /* \"#utility.yul\":10008:10080   */\n      tag_79\n      jump\t// in\n    tag_227:\n        /* \"#utility.yul\":9755:10087   */\n      swap4\n      swap3\n      pop\n      pop\n      pop\n      jump\t// out\n        /* \"#utility.yul\":10093:10198   */\n    tag_98:\n        /* \"#utility.yul\":10129:10136   */\n      0x00\n        /* \"#utility.yul\":10169:10191   */\n      0xffffffffffffffffffff\n        /* \"#utility.yul\":10162:10167   */\n      dup3\n        /* \"#utility.yul\":10158:10192   */\n      and\n        /* \"#utility.yul\":10147:10192   */\n      swap1\n      pop\n        /* \"#utility.yul\":10093:10198   */\n      swap2\n      swap1\n      pop\n      jump\t// out\n        /* \"#utility.yul\":10204:10324   */\n    tag_99:\n        /* \"#utility.yul\":10276:10299   */\n      tag_230\n        /* \"#utility.yul\":10293:10298   */\n      dup2\n        /* \"#utility.yul\":10276:10299   */\n      tag_98\n      jump\t// in\n    tag_230:\n        /* \"#utility.yul\":10269:10274   */\n      dup2\n        /* \"#utility.yul\":10266:10300   */\n      eq\n        /* \"#utility.yul\":10256:10318   */\n      tag_231\n      jumpi\n        /* \"#utility.yul\":10314:10315   */\n      0x00\n        /* \"#utility.yul\":10311:10312   */\n      dup1\n        /* \"#utility.yul\":10304:10316   */\n      revert\n        /* \"#utility.yul\":10256:10318   */\n    tag_231:\n        /* \"#utility.yul\":10204:10324   */\n      pop\n      jump\t// out\n        /* \"#utility.yul\":10330:10471   */\n    tag_100:\n        /* \"#utility.yul\":10386:10391   */\n      0x00\n        /* \"#utility.yul\":10417:10423   */\n      dup2\n        /* \"#utility.yul\":10411:10424   */\n      mload\n        /* \"#utility.yul\":10402:10424   */\n      swap1\n      pop\n        /* \"#utility.yul\":10433:10465   */\n      tag_233\n        /* \"#utility.yul\":10459:10464   */\n      dup2\n        /* \"#utility.yul\":10433:10465   */\n      tag_99\n      jump\t// in\n    tag_233:\n        /* \"#utility.yul\":10330:10471   */\n      swap3\n      swap2\n      pop\n      pop\n      jump\t// out\n        /* \"#utility.yul\":10477:10553   */\n    tag_101:\n        /* \"#utility.yul\":10513:10520   */\n      0x00\n        /* \"#utility.yul\":10542:10547   */\n      dup2\n        /* \"#utility.yul\":10531:10547   */\n      swap1\n      pop\n        /* \"#utility.yul\":10477:10553   */\n      swap2\n      swap1\n      pop\n      jump\t// out\n        /* \"#utility.yul\":10559:10679   */\n    tag_102:\n        /* \"#utility.yul\":10631:10654   */\n      tag_236\n        /* \"#utility.yul\":10648:10653   */\n      dup2\n        /* \"#utility.yul\":10631:10654   */\n      tag_101\n      jump\t// in\n    tag_236:\n        /* \"#utility.yul\":10624:10629   */\n      dup2\n        /* \"#utility.yul\":10621:10655   */\n      eq\n        /* \"#utility.yul\":10611:10673   */\n      tag_237\n      jumpi\n        /* \"#utility.yul\":10669:10670   */\n      0x00\n        /* \"#utility.yul\":10666:10667   */\n      dup1\n        /* \"#utility.yul\":10659:10671   */\n      revert\n        /* \"#utility.yul\":10611:10673   */\n    tag_237:\n        /* \"#utility.yul\":10559:10679   */\n      pop\n      jump\t// out\n        /* \"#utility.yul\":10685:10826   */\n    tag_103:\n        /* \"#utility.yul\":10741:10746   */\n      0x00\n        /* \"#utility.yul\":10772:10778   */\n      dup2\n        /* \"#utility.yul\":10766:10779   */\n      mload\n        /* \"#utility.yul\":10757:10779   */\n      swap1\n      pop\n        /* \"#utility.yul\":10788:10820   */\n      tag_239\n        /* \"#utility.yul\":10814:10819   */\n      dup2\n        /* \"#utility.yul\":10788:10820   */\n      tag_102\n      jump\t// in\n    tag_239:\n        /* \"#utility.yul\":10685:10826   */\n      swap3\n      swap2\n      pop\n      pop\n      jump\t// out\n        /* \"#utility.yul\":10832:11803   */\n    tag_61:\n        /* \"#utility.yul\":10935:10941   */\n      0x00\n        /* \"#utility.yul\":10943:10949   */\n      dup1\n        /* \"#utility.yul\":10951:10957   */\n      0x00\n        /* \"#utility.yul\":10959:10965   */\n      dup1\n        /* \"#utility.yul\":10967:10973   */\n      0x00\n        /* \"#utility.yul\":11016:11019   */\n      0xa0\n        /* \"#utility.yul\":11004:11013   */\n      dup7\n        /* \"#utility.yul\":10995:11002   */\n      dup9\n        /* \"#utility.yul\":10991:11014   */\n      sub\n        /* \"#utility.yul\":10987:11020   */\n      slt\n        /* \"#utility.yul\":10984:11104   */\n      iszero\n      tag_241\n      jumpi\n        /* \"#utility.yul\":11023:11102   */\n      tag_242\n      tag_69\n      jump\t// in\n    tag_242:\n        /* \"#utility.yul\":10984:11104   */\n    tag_241:\n        /* \"#utility.yul\":11143:11144   */\n      0x00\n        /* \"#utility.yul\":11168:11231   */\n      tag_243\n        /* \"#utility.yul\":11223:11230   */\n      dup9\n        /* \"#utility.yul\":11214:11220   */\n      dup3\n        /* \"#utility.yul\":11203:11212   */\n      dup10\n        /* \"#utility.yul\":11199:11221   */\n      add\n        /* \"#utility.yul\":11168:11231   */\n      tag_100\n      jump\t// in\n    tag_243:\n        /* \"#utility.yul\":11158:11231   */\n      swap6\n      pop\n        /* \"#utility.yul\":11114:11241   */\n      pop\n        /* \"#utility.yul\":11280:11282   */\n      0x20\n        /* \"#utility.yul\":11306:11369   */\n      tag_244\n        /* \"#utility.yul\":11361:11368   */\n      dup9\n        /* \"#utility.yul\":11352:11358   */\n      dup3\n        /* \"#utility.yul\":11341:11350   */\n      dup10\n        /* \"#utility.yul\":11337:11359   */\n      add\n        /* \"#utility.yul\":11306:11369   */\n      tag_103\n      jump\t// in\n    tag_244:\n        /* \"#utility.yul\":11296:11369   */\n      swap5\n      pop\n        /* \"#utility.yul\":11251:11379   */\n      pop\n        /* \"#utility.yul\":11418:11420   */\n      0x40\n        /* \"#utility.yul\":11444:11508   */\n      tag_245\n        /* \"#utility.yul\":11500:11507   */\n      dup9\n        /* \"#utility.yul\":11491:11497   */\n      dup3\n        /* \"#utility.yul\":11480:11489   */\n      dup10\n        /* \"#utility.yul\":11476:11498   */\n      add\n        /* \"#utility.yul\":11444:11508   */\n      tag_91\n      jump\t// in\n    tag_245:\n        /* \"#utility.yul\":11434:11508   */\n      swap4\n      pop\n        /* \"#utility.yul\":11389:11518   */\n      pop\n        /* \"#utility.yul\":11557:11559   */\n      0x60\n        /* \"#utility.yul\":11583:11647   */\n      tag_246\n        /* \"#utility.yul\":11639:11646   */\n      dup9\n        /* \"#utility.yul\":11630:11636   */\n      dup3\n        /* \"#utility.yul\":11619:11628   */\n      dup10\n        /* \"#utility.yul\":11615:11637   */\n      add\n        /* \"#utility.yul\":11583:11647   */\n      tag_91\n      jump\t// in\n    tag_246:\n        /* \"#utility.yul\":11573:11647   */\n      swap3\n      pop\n        /* \"#utility.yul\":11528:11657   */\n      pop\n        /* \"#utility.yul\":11696:11699   */\n      0x80\n        /* \"#utility.yul\":11723:11786   */\n      tag_247\n        /* \"#utility.yul\":11778:11785   */\n      dup9\n        /* \"#utility.yul\":11769:11775   */\n      dup3\n        /* \"#utility.yul\":11758:11767   */\n      dup10\n        /* \"#utility.yul\":11754:11776   */\n      add\n        /* \"#utility.yul\":11723:11786   */\n      tag_100\n      jump\t// in\n    tag_247:\n        /* \"#utility.yul\":11713:11786   */\n      swap2\n      pop\n        /* \"#utility.yul\":11667:11796   */\n      pop\n        /* \"#utility.yul\":10832:11803   */\n      swap3\n      swap6\n      pop\n      swap3\n      swap6\n      swap1\n      swap4\n      pop\n      jump\t// out\n        /* \"#utility.yul\":11809:11911   */\n    tag_104:\n        /* \"#utility.yul\":11851:11859   */\n      0x00\n        /* \"#utility.yul\":11898:11903   */\n      dup2\n        /* \"#utility.yul\":11895:11896   */\n      0x01\n        /* \"#utility.yul\":11891:11904   */\n      shr\n        /* \"#utility.yul\":11870:11904   */\n      swap1\n      pop\n        /* \"#utility.yul\":11809:11911   */\n      swap2\n      swap1\n      pop\n      jump\t// out\n        /* \"#utility.yul\":11917:12765   */\n    tag_105:\n        /* \"#utility.yul\":11978:11983   */\n      0x00\n        /* \"#utility.yul\":11985:11989   */\n      dup1\n        /* \"#utility.yul\":12009:12015   */\n      dup3\n        /* \"#utility.yul\":12000:12015   */\n      swap2\n      pop\n        /* \"#utility.yul\":12033:12038   */\n      dup4\n        /* \"#utility.yul\":12024:12038   */\n      swap1\n      pop\n        /* \"#utility.yul\":12047:12759   */\n    tag_250:\n        /* \"#utility.yul\":12068:12069   */\n      0x01\n        /* \"#utility.yul\":12058:12066   */\n      dup6\n        /* \"#utility.yul\":12055:12070   */\n      gt\n        /* \"#utility.yul\":12047:12759   */\n      iszero\n      tag_252\n      jumpi\n        /* \"#utility.yul\":12163:12167   */\n      dup1\n        /* \"#utility.yul\":12158:12161   */\n      dup7\n        /* \"#utility.yul\":12154:12168   */\n      div\n        /* \"#utility.yul\":12148:12152   */\n      dup2\n        /* \"#utility.yul\":12145:12169   */\n      gt\n        /* \"#utility.yul\":12142:12192   */\n      iszero\n      tag_253\n      jumpi\n        /* \"#utility.yul\":12172:12190   */\n      tag_254\n      tag_94\n      jump\t// in\n    tag_254:\n        /* \"#utility.yul\":12142:12192   */\n    tag_253:\n        /* \"#utility.yul\":12222:12223   */\n      0x01\n        /* \"#utility.yul\":12212:12220   */\n      dup6\n        /* \"#utility.yul\":12208:12224   */\n      and\n        /* \"#utility.yul\":12205:12656   */\n      iszero\n      tag_255\n      jumpi\n        /* \"#utility.yul\":12637:12641   */\n      dup1\n        /* \"#utility.yul\":12630:12635   */\n      dup3\n        /* \"#utility.yul\":12626:12642   */\n      mul\n        /* \"#utility.yul\":12617:12642   */\n      swap2\n      pop\n        /* \"#utility.yul\":12205:12656   */\n    tag_255:\n        /* \"#utility.yul\":12687:12691   */\n      dup1\n        /* \"#utility.yul\":12681:12685   */\n      dup2\n        /* \"#utility.yul\":12677:12692   */\n      mul\n        /* \"#utility.yul\":12669:12692   */\n      swap1\n      pop\n        /* \"#utility.yul\":12717:12749   */\n      tag_256\n        /* \"#utility.yul\":12740:12748   */\n      dup6\n        /* \"#utility.yul\":12717:12749   */\n      tag_104\n      jump\t// in\n    tag_256:\n        /* \"#utility.yul\":12705:12749   */\n      swap5\n      pop\n        /* \"#utility.yul\":12047:12759   */\n      jump(tag_250)\n    tag_252:\n        /* \"#utility.yul\":11917:12765   */\n      swap5\n      pop\n      swap5\n      swap3\n      pop\n      pop\n      pop\n      jump\t// out\n        /* \"#utility.yul\":12771:13844   */\n    tag_106:\n        /* \"#utility.yul\":12825:12830   */\n      0x00\n        /* \"#utility.yul\":13016:13024   */\n      dup3\n        /* \"#utility.yul\":13006:13046   */\n      tag_258\n      jumpi\n        /* \"#utility.yul\":13037:13038   */\n      0x01\n        /* \"#utility.yul\":13028:13038   */\n      swap1\n      pop\n        /* \"#utility.yul\":13039:13044   */\n      jump(tag_257)\n        /* \"#utility.yul\":13006:13046   */\n    tag_258:\n        /* \"#utility.yul\":13065:13069   */\n      dup2\n        /* \"#utility.yul\":13055:13091   */\n      tag_259\n      jumpi\n        /* \"#utility.yul\":13082:13083   */\n      0x00\n        /* \"#utility.yul\":13073:13083   */\n      swap1\n      pop\n        /* \"#utility.yul\":13084:13089   */\n      jump(tag_257)\n        /* \"#utility.yul\":13055:13091   */\n    tag_259:\n        /* \"#utility.yul\":13151:13155   */\n      dup2\n        /* \"#utility.yul\":13199:13200   */\n      0x01\n        /* \"#utility.yul\":13194:13221   */\n      dup2\n      eq\n      tag_261\n      jumpi\n        /* \"#utility.yul\":13235:13236   */\n      0x02\n        /* \"#utility.yul\":13230:13421   */\n      dup2\n      eq\n      tag_262\n      jumpi\n        /* \"#utility.yul\":13144:13421   */\n      jump(tag_260)\n        /* \"#utility.yul\":13194:13221   */\n    tag_261:\n        /* \"#utility.yul\":13212:13213   */\n      0x01\n        /* \"#utility.yul\":13203:13213   */\n      swap2\n      pop\n        /* \"#utility.yul\":13214:13219   */\n      pop\n      jump(tag_257)\n        /* \"#utility.yul\":13230:13421   */\n    tag_262:\n        /* \"#utility.yul\":13275:13278   */\n      0xff\n        /* \"#utility.yul\":13265:13273   */\n      dup5\n        /* \"#utility.yul\":13262:13279   */\n      gt\n        /* \"#utility.yul\":13259:13302   */\n      iszero\n      tag_263\n      jumpi\n        /* \"#utility.yul\":13282:13300   */\n      tag_264\n      tag_94\n      jump\t// in\n    tag_264:\n        /* \"#utility.yul\":13259:13302   */\n    tag_263:\n        /* \"#utility.yul\":13331:13339   */\n      dup4\n        /* \"#utility.yul\":13328:13329   */\n      0x02\n        /* \"#utility.yul\":13324:13340   */\n      exp\n        /* \"#utility.yul\":13315:13340   */\n      swap2\n      pop\n        /* \"#utility.yul\":13366:13369   */\n      dup5\n        /* \"#utility.yul\":13359:13364   */\n      dup3\n        /* \"#utility.yul\":13356:13370   */\n      gt\n        /* \"#utility.yul\":13353:13393   */\n      iszero\n      tag_265\n      jumpi\n        /* \"#utility.yul\":13373:13391   */\n      tag_266\n      tag_94\n      jump\t// in\n    tag_266:\n        /* \"#utility.yul\":13353:13393   */\n    tag_265:\n        /* \"#utility.yul\":13406:13411   */\n      pop\n      jump(tag_257)\n        /* \"#utility.yul\":13144:13421   */\n    tag_260:\n      pop\n        /* \"#utility.yul\":13530:13532   */\n      0x20\n        /* \"#utility.yul\":13520:13528   */\n      dup4\n        /* \"#utility.yul\":13517:13533   */\n      lt\n        /* \"#utility.yul\":13511:13514   */\n      0x0133\n        /* \"#utility.yul\":13505:13509   */\n      dup4\n        /* \"#utility.yul\":13502:13515   */\n      lt\n        /* \"#utility.yul\":13498:13534   */\n      and\n        /* \"#utility.yul\":13480:13482   */\n      0x4e\n        /* \"#utility.yul\":13470:13478   */\n      dup5\n        /* \"#utility.yul\":13467:13483   */\n      lt\n        /* \"#utility.yul\":13462:13464   */\n      0x0b\n        /* \"#utility.yul\":13456:13460   */\n      dup5\n        /* \"#utility.yul\":13453:13465   */\n      lt\n        /* \"#utility.yul\":13449:13484   */\n      and\n        /* \"#utility.yul\":13433:13544   */\n      or\n        /* \"#utility.yul\":13430:13676   */\n      iszero\n      tag_267\n      jumpi\n        /* \"#utility.yul\":13586:13594   */\n      dup3\n        /* \"#utility.yul\":13580:13584   */\n      dup3\n        /* \"#utility.yul\":13576:13595   */\n      exp\n        /* \"#utility.yul\":13567:13595   */\n      swap1\n      pop\n        /* \"#utility.yul\":13621:13624   */\n      dup4\n        /* \"#utility.yul\":13614:13619   */\n      dup2\n        /* \"#utility.yul\":13611:13625   */\n      gt\n        /* \"#utility.yul\":13608:13648   */\n      iszero\n      tag_268\n      jumpi\n        /* \"#utility.yul\":13628:13646   */\n      tag_269\n      tag_94\n      jump\t// in\n    tag_269:\n        /* \"#utility.yul\":13608:13648   */\n    tag_268:\n        /* \"#utility.yul\":13661:13666   */\n      jump(tag_257)\n        /* \"#utility.yul\":13430:13676   */\n    tag_267:\n        /* \"#utility.yul\":13701:13743   */\n      tag_270\n        /* \"#utility.yul\":13739:13742   */\n      dup5\n        /* \"#utility.yul\":13729:13737   */\n      dup5\n        /* \"#utility.yul\":13723:13727   */\n      dup5\n        /* \"#utility.yul\":13720:13721   */\n      0x01\n        /* \"#utility.yul\":13701:13743   */\n      tag_105\n      jump\t// in\n    tag_270:\n        /* \"#utility.yul\":13686:13743   */\n      swap3\n      pop\n      swap1\n      pop\n        /* \"#utility.yul\":13775:13779   */\n      dup2\n        /* \"#utility.yul\":13770:13773   */\n      dup5\n        /* \"#utility.yul\":13766:13780   */\n      div\n        /* \"#utility.yul\":13759:13764   */\n      dup2\n        /* \"#utility.yul\":13756:13781   */\n      gt\n        /* \"#utility.yul\":13753:13804   */\n      iszero\n      tag_271\n      jumpi\n        /* \"#utility.yul\":13784:13802   */\n      tag_272\n      tag_94\n      jump\t// in\n    tag_272:\n        /* \"#utility.yul\":13753:13804   */\n    tag_271:\n        /* \"#utility.yul\":13833:13837   */\n      dup2\n        /* \"#utility.yul\":13826:13831   */\n      dup2\n        /* \"#utility.yul\":13822:13838   */\n      mul\n        /* \"#utility.yul\":13813:13838   */\n      swap1\n      pop\n        /* \"#utility.yul\":12771:13844   */\n    tag_257:\n      swap4\n      swap3\n      pop\n      pop\n      pop\n      jump\t// out\n        /* \"#utility.yul\":13850:14135   */\n    tag_63:\n        /* \"#utility.yul\":13910:13915   */\n      0x00\n        /* \"#utility.yul\":13934:13957   */\n      tag_274\n        /* \"#utility.yul\":13952:13956   */\n      dup3\n        /* \"#utility.yul\":13934:13957   */\n      tag_75\n      jump\t// in\n    tag_274:\n        /* \"#utility.yul\":13926:13957   */\n      swap2\n      pop\n        /* \"#utility.yul\":13978:14005   */\n      tag_275\n        /* \"#utility.yul\":13996:14004   */\n      dup4\n        /* \"#utility.yul\":13978:14005   */\n      tag_75\n      jump\t// in\n    tag_275:\n        /* \"#utility.yul\":13966:14005   */\n      swap3\n      pop\n        /* \"#utility.yul\":14024:14128   */\n      tag_276\n        /* \"#utility.yul\":14061:14127   */\n      0xffffffffffffffffffffffffffffffffffffffffffffffffffffffffffffffff\n        /* \"#utility.yul\":14051:14059   */\n      dup5\n        /* \"#utility.yul\":14045:14049   */\n      dup5\n        /* \"#utility.yul\":14024:14128   */\n      tag_106\n      jump\t// in\n    tag_276:\n        /* \"#utility.yul\":14015:14128   */\n      swap1\n      pop\n        /* \"#utility.yul\":13850:14135   */\n      swap3\n      swap2\n      pop\n      pop\n      jump\t// out\n        /* \"#utility.yul\":14141:14697   */\n    tag_65:\n        /* \"#utility.yul\":14180:14187   */\n      0x00\n        /* \"#utility.yul\":14203:14222   */\n      tag_278\n        /* \"#utility.yul\":14220:14221   */\n      dup3\n        /* \"#utility.yul\":14203:14222   */\n      tag_101\n      jump\t// in\n    tag_278:\n        /* \"#utility.yul\":14198:14222   */\n      swap2\n      pop\n        /* \"#utility.yul\":14236:14255   */\n      tag_279\n        /* \"#utility.yul\":14253:14254   */\n      dup4\n        /* \"#utility.yul\":14236:14255   */\n      tag_101\n      jump\t// in\n    tag_279:\n        /* \"#utility.yul\":14231:14255   */\n      swap3\n      pop\n        /* \"#utility.yul\":14290:14291   */\n      dup3\n        /* \"#utility.yul\":14287:14288   */\n      dup3\n        /* \"#utility.yul\":14283:14292   */\n      mul\n        /* \"#utility.yul\":14312:14341   */\n      tag_280\n        /* \"#utility.yul\":14329:14340   */\n      dup2\n        /* \"#utility.yul\":14312:14341   */\n      tag_101\n      jump\t// in\n    tag_280:\n        /* \"#utility.yul\":14301:14341   */\n      swap2\n      pop\n        /* \"#utility.yul\":14399:14465   */\n      0x8000000000000000000000000000000000000000000000000000000000000000\n        /* \"#utility.yul\":14396:14397   */\n      dup5\n        /* \"#utility.yul\":14393:14466   */\n      eq\n        /* \"#utility.yul\":14389:14390   */\n      0x00\n        /* \"#utility.yul\":14386:14387   */\n      dup5\n        /* \"#utility.yul\":14382:14391   */\n      slt\n        /* \"#utility.yul\":14378:14467   */\n      and\n        /* \"#utility.yul\":14375:14490   */\n      iszero\n      tag_281\n      jumpi\n        /* \"#utility.yul\":14470:14488   */\n      tag_282\n      tag_94\n      jump\t// in\n    tag_282:\n        /* \"#utility.yul\":14375:14490   */\n    tag_281:\n        /* \"#utility.yul\":14640:14641   */\n      dup3\n        /* \"#utility.yul\":14631:14638   */\n      dup3\n        /* \"#utility.yul\":14626:14642   */\n      sdiv\n        /* \"#utility.yul\":14623:14624   */\n      dup5\n        /* \"#utility.yul\":14620:14643   */\n      eq\n        /* \"#utility.yul\":14600:14601   */\n      dup4\n        /* \"#utility.yul\":14593:14602   */\n      iszero\n        /* \"#utility.yul\":14573:14657   */\n      or\n        /* \"#utility.yul\":14550:14690   */\n      tag_283\n      jumpi\n        /* \"#utility.yul\":14670:14688   */\n      tag_284\n      tag_94\n      jump\t// in\n    tag_284:\n        /* \"#utility.yul\":14550:14690   */\n    tag_283:\n        /* \"#utility.yul\":14188:14697   */\n      pop\n        /* \"#utility.yul\":14141:14697   */\n      swap3\n      swap2\n      pop\n      pop\n      jump\t// out\n        /* \"#utility.yul\":14703:14883   */\n    tag_107:\n        /* \"#utility.yul\":14751:14828   */\n      0x4e487b7100000000000000000000000000000000000000000000000000000000\n        /* \"#utility.yul\":14748:14749   */\n      0x00\n        /* \"#utility.yul\":14741:14829   */\n      mstore\n        /* \"#utility.yul\":14848:14852   */\n      0x12\n        /* \"#utility.yul\":14845:14846   */\n      0x04\n        /* \"#utility.yul\":14838:14853   */\n      mstore\n        /* \"#utility.yul\":14872:14876   */\n      0x24\n        /* \"#utility.yul\":14869:14870   */\n      0x00\n        /* \"#utility.yul\":14862:14877   */\n      revert\n        /* \"#utility.yul\":14889:15074   */\n    tag_67:\n        /* \"#utility.yul\":14929:14930   */\n      0x00\n        /* \"#utility.yul\":14946:14966   */\n      tag_287\n        /* \"#utility.yul\":14964:14965   */\n      dup3\n        /* \"#utility.yul\":14946:14966   */\n      tag_75\n      jump\t// in\n    tag_287:\n        /* \"#utility.yul\":14941:14966   */\n      swap2\n      pop\n        /* \"#utility.yul\":14980:15000   */\n      tag_288\n        /* \"#utility.yul\":14998:14999   */\n      dup4\n        /* \"#utility.yul\":14980:15000   */\n      tag_75\n      jump\t// in\n    tag_288:\n        /* \"#utility.yul\":14975:15000   */\n      swap3\n      pop\n        /* \"#utility.yul\":15019:15020   */\n      dup3\n        /* \"#utility.yul\":15009:15044   */\n      tag_289\n      jumpi\n        /* \"#utility.yul\":15024:15042   */\n      tag_290\n      tag_107\n      jump\t// in\n    tag_290:\n        /* \"#utility.yul\":15009:15044   */\n    tag_289:\n        /* \"#utility.yul\":15066:15067   */\n      dup3\n        /* \"#utility.yul\":15063:15064   */\n      dup3\n        /* \"#utility.yul\":15059:15068   */\n      div\n        /* \"#utility.yul\":15054:15068   */\n      swap1\n      pop\n        /* \"#utility.yul\":14889:15074   */\n      swap3\n      swap2\n      pop\n      pop\n      jump\t// out\n\n    auxdata: 0xa264697066735822122063209d69fe7e8234b0a705c2ea4aa01655a59cd625cea9dee64a534e76f0148364736f6c63430008110033\n}\n",
				"bytecode": {
					"linkReferences": {},
					"object": "60a060405234801561001057600080fd5b50604051610e91380380610e91833981810160405281019061003291906100cf565b8073ffffffffffffffffffffffffffffffffffffffff1660808173ffffffffffffffffffffffffffffffffffffffff1681525050506100fc565b600080fd5b600073ffffffffffffffffffffffffffffffffffffffff82169050919050565b600061009c82610071565b9050919050565b6100ac81610091565b81146100b757600080fd5b50565b6000815190506100c9816100a3565b92915050565b6000602082840312156100e5576100e461006c565b5b60006100f3848285016100ba565b91505092915050565b608051610d7461011d6000396000818160c801526102bb0152610d746000f3fe608060405234801561001057600080fd5b50600436106100415760003560e01c806306cd702c1461004657806308a130ab14610076578063fc57d4df14610094575b600080fd5b610060600480360381019061005b91906104f9565b6100c4565b60405161006d9190610548565b60405180910390f35b61007e6102b9565b60405161008b9190610572565b60405180910390f35b6100ae60048036038101906100a9919061058d565b6102dd565b6040516100bb9190610548565b60405180910390f35b60007f000000000000000000000000000000000000000000000000000000000000000073ffffffffffffffffffffffffffffffffffffffff168373ffffffffffffffffffffffffffffffffffffffff161461012957610122836102ef565b90506102b3565b60008373ffffffffffffffffffffffffffffffffffffffff1663d3c9cc26846040518263ffffffff1660e01b81526004016101649190610548565b600060405180830381865afa158015610181573d6000803e3d6000fd5b505050506040513d6000823e3d601f19601f820116820180604052508101906101aa9190610728565b905060008473ffffffffffffffffffffffffffffffffffffffff166359f7cf50856040518263ffffffff1660e01b81526004016101e79190610548565b600060405180830381865afa158015610204573d6000803e3d6000fd5b505050506040513d6000823e3d601f19601f8201168201806040525081019061022d9190610849565b90506000808351905060005b818110156102aa57600061026686838151811061025957610258610892565b5b60200260200101516102ef565b9050600081146102a4578085838151811061028457610283610892565b5b602002602001015161029691906108f0565b846102a19190610932565b93505b50610239565b50819450505050505b92915050565b7f000000000000000000000000000000000000000000000000000000000000000081565b60006102e8826102ef565b9050919050565b600080610348905060007347fb2585d2c56fe188d0e6ec628a38b74fceeedf73ffffffffffffffffffffffffffffffffffffffff1663313ce5676040518163ffffffff1660e01b8152600401602060405180830381865afa158015610358573d6000803e3d6000fd5b505050506040513d601f19601f8201168201806040525081019061037c919061099f565b905060007347fb2585d2c56fe188d0e6ec628a38b74fceeedf73ffffffffffffffffffffffffffffffffffffffff1663bcfd032d86856040518363ffffffff1660e01b81526004016103cf9291906109cc565b60a060405180830381865afa1580156103ec573d6000803e3d6000fd5b505050506040513d601f19601f820116820180604052508101906104109190610a6d565b5050509150508160ff16600a6104269190610c1b565b6a52b7d2dcc80cd2e40000008261043d9190610c66565b6104479190610d0d565b9350505050919050565b6000604051905090565b600080fd5b600080fd5b600073ffffffffffffffffffffffffffffffffffffffff82169050919050565b600061049082610465565b9050919050565b6104a081610485565b81146104ab57600080fd5b50565b6000813590506104bd81610497565b92915050565b6000819050919050565b6104d6816104c3565b81146104e157600080fd5b50565b6000813590506104f3816104cd565b92915050565b600080604083850312156105105761050f61045b565b5b600061051e858286016104ae565b925050602061052f858286016104e4565b9150509250929050565b610542816104c3565b82525050565b600060208201905061055d6000830184610539565b92915050565b61056c81610485565b82525050565b60006020820190506105876000830184610563565b92915050565b6000602082840312156105a3576105a261045b565b5b60006105b1848285016104ae565b91505092915050565b600080fd5b6000601f19601f8301169050919050565b7f4e487b7100000000000000000000000000000000000000000000000000000000600052604160045260246000fd5b610608826105bf565b810181811067ffffffffffffffff82111715610627576106266105d0565b5b80604052505050565b600061063a610451565b905061064682826105ff565b919050565b600067ffffffffffffffff821115610666576106656105d0565b5b602082029050602081019050919050565b600080fd5b60008151905061068b81610497565b92915050565b60006106a461069f8461064b565b610630565b905080838252602082019050602084028301858111156106c7576106c6610677565b5b835b818110156106f057806106dc888261067c565b8452602084019350506020810190506106c9565b5050509392505050565b600082601f83011261070f5761070e6105ba565b5b815161071f848260208601610691565b91505092915050565b60006020828403121561073e5761073d61045b565b5b600082015167ffffffffffffffff81111561075c5761075b610460565b5b610768848285016106fa565b91505092915050565b600067ffffffffffffffff82111561078c5761078b6105d0565b5b602082029050602081019050919050565b6000815190506107ac816104cd565b92915050565b60006107c56107c084610771565b610630565b905080838252602082019050602084028301858111156107e8576107e7610677565b5b835b8181101561081157806107fd888261079d565b8452602084019350506020810190506107ea565b5050509392505050565b600082601f8301126108305761082f6105ba565b5b81516108408482602086016107b2565b91505092915050565b60006020828403121561085f5761085e61045b565b5b600082015167ffffffffffffffff81111561087d5761087c610460565b5b6108898482850161081b565b91505092915050565b7f4e487b7100000000000000000000000000000000000000000000000000000000600052603260045260246000fd5b7f4e487b7100000000000000000000000000000000000000000000000000000000600052601160045260246000fd5b60006108fb826104c3565b9150610906836104c3565b9250828202610914816104c3565b9150828204841483151761092b5761092a6108c1565b5b5092915050565b600061093d826104c3565b9150610948836104c3565b92508282019050808211156109605761095f6108c1565b5b92915050565b600060ff82169050919050565b61097c81610966565b811461098757600080fd5b50565b60008151905061099981610973565b92915050565b6000602082840312156109b5576109b461045b565b5b60006109c38482850161098a565b91505092915050565b60006040820190506109e16000830185610563565b6109ee6020830184610563565b9392505050565b600069ffffffffffffffffffff82169050919050565b610a14816109f5565b8114610a1f57600080fd5b50565b600081519050610a3181610a0b565b92915050565b6000819050919050565b610a4a81610a37565b8114610a5557600080fd5b50565b600081519050610a6781610a41565b92915050565b600080600080600060a08688031215610a8957610a8861045b565b5b6000610a9788828901610a22565b9550506020610aa888828901610a58565b9450506040610ab98882890161079d565b9350506060610aca8882890161079d565b9250506080610adb88828901610a22565b9150509295509295909350565b60008160011c9050919050565b6000808291508390505b6001851115610b3f57808604811115610b1b57610b1a6108c1565b5b6001851615610b2a5780820291505b8081029050610b3885610ae8565b9450610aff565b94509492505050565b600082610b585760019050610c14565b81610b665760009050610c14565b8160018114610b7c5760028114610b8657610bb5565b6001915050610c14565b60ff841115610b9857610b976108c1565b5b8360020a915084821115610baf57610bae6108c1565b5b50610c14565b5060208310610133831016604e8410600b8410161715610bea5782820a905083811115610be557610be46108c1565b5b610c14565b610bf78484846001610af5565b92509050818404811115610c0e57610c0d6108c1565b5b81810290505b9392505050565b6000610c26826104c3565b9150610c31836104c3565b9250610c5e7fffffffffffffffffffffffffffffffffffffffffffffffffffffffffffffffff8484610b48565b905092915050565b6000610c7182610a37565b9150610c7c83610a37565b9250828202610c8a81610a37565b91507f80000000000000000000000000000000000000000000000000000000000000008414600084121615610cc257610cc16108c1565b5b8282058414831517610cd757610cd66108c1565b5b5092915050565b7f4e487b7100000000000000000000000000000000000000000000000000000000600052601260045260246000fd5b6000610d18826104c3565b9150610d23836104c3565b925082610d3357610d32610cde565b5b82820490509291505056fea264697066735822122063209d69fe7e8234b0a705c2ea4aa01655a59cd625cea9dee64a534e76f0148364736f6c63430008110033",
					"opcodes": "PUSH1 0xA0 PUSH1 0x40 MSTORE CALLVALUE DUP1 ISZERO PUSH2 0x10 JUMPI PUSH1 0x0 DUP1 REVERT JUMPDEST POP PUSH1 0x40 MLOAD PUSH2 0xE91 CODESIZE SUB DUP1 PUSH2 0xE91 DUP4 CODECOPY DUP2 DUP2 ADD PUSH1 0x40 MSTORE DUP2 ADD SWAP1 PUSH2 0x32 SWAP2 SWAP1 PUSH2 0xCF JUMP JUMPDEST DUP1 PUSH20 0xFFFFFFFFFFFFFFFFFFFFFFFFFFFFFFFFFFFFFFFF AND PUSH1 0x80 DUP2 PUSH20 0xFFFFFFFFFFFFFFFFFFFFFFFFFFFFFFFFFFFFFFFF AND DUP2 MSTORE POP POP POP PUSH2 0xFC JUMP JUMPDEST PUSH1 0x0 DUP1 REVERT JUMPDEST PUSH1 0x0 PUSH20 0xFFFFFFFFFFFFFFFFFFFFFFFFFFFFFFFFFFFFFFFF DUP3 AND SWAP1 POP SWAP2 SWAP1 POP JUMP JUMPDEST PUSH1 0x0 PUSH2 0x9C DUP3 PUSH2 0x71 JUMP JUMPDEST SWAP1 POP SWAP2 SWAP1 POP JUMP JUMPDEST PUSH2 0xAC DUP2 PUSH2 0x91 JUMP JUMPDEST DUP2 EQ PUSH2 0xB7 JUMPI PUSH1 0x0 DUP1 REVERT JUMPDEST POP JUMP JUMPDEST PUSH1 0x0 DUP2 MLOAD SWAP1 POP PUSH2 0xC9 DUP2 PUSH2 0xA3 JUMP JUMPDEST SWAP3 SWAP2 POP POP JUMP JUMPDEST PUSH1 0x0 PUSH1 0x20 DUP3 DUP5 SUB SLT ISZERO PUSH2 0xE5 JUMPI PUSH2 0xE4 PUSH2 0x6C JUMP JUMPDEST JUMPDEST PUSH1 0x0 PUSH2 0xF3 DUP5 DUP3 DUP6 ADD PUSH2 0xBA JUMP JUMPDEST SWAP2 POP POP SWAP3 SWAP2 POP POP JUMP JUMPDEST PUSH1 0x80 MLOAD PUSH2 0xD74 PUSH2 0x11D PUSH1 0x0 CODECOPY PUSH1 0x0 DUP2 DUP2 PUSH1 0xC8 ADD MSTORE PUSH2 0x2BB ADD MSTORE PUSH2 0xD74 PUSH1 0x0 RETURN INVALID PUSH1 0x80 PUSH1 0x40 MSTORE CALLVALUE DUP1 ISZERO PUSH2 0x10 JUMPI PUSH1 0x0 DUP1 REVERT JUMPDEST POP PUSH1 0x4 CALLDATASIZE LT PUSH2 0x41 JUMPI PUSH1 0x0 CALLDATALOAD PUSH1 0xE0 SHR DUP1 PUSH4 0x6CD702C EQ PUSH2 0x46 JUMPI DUP1 PUSH4 0x8A130AB EQ PUSH2 0x76 JUMPI DUP1 PUSH4 0xFC57D4DF EQ PUSH2 0x94 JUMPI JUMPDEST PUSH1 0x0 DUP1 REVERT JUMPDEST PUSH2 0x60 PUSH1 0x4 DUP1 CALLDATASIZE SUB DUP2 ADD SWAP1 PUSH2 0x5B SWAP2 SWAP1 PUSH2 0x4F9 JUMP JUMPDEST PUSH2 0xC4 JUMP JUMPDEST PUSH1 0x40 MLOAD PUSH2 0x6D SWAP2 SWAP1 PUSH2 0x548 JUMP JUMPDEST PUSH1 0x40 MLOAD DUP1 SWAP2 SUB SWAP1 RETURN JUMPDEST PUSH2 0x7E PUSH2 0x2B9 JUMP JUMPDEST PUSH1 0x40 MLOAD PUSH2 0x8B SWAP2 SWAP1 PUSH2 0x572 JUMP JUMPDEST PUSH1 0x40 MLOAD DUP1 SWAP2 SUB SWAP1 RETURN JUMPDEST PUSH2 0xAE PUSH1 0x4 DUP1 CALLDATASIZE SUB DUP2 ADD SWAP1 PUSH2 0xA9 SWAP2 SWAP1 PUSH2 0x58D JUMP JUMPDEST PUSH2 0x2DD JUMP JUMPDEST PUSH1 0x40 MLOAD PUSH2 0xBB SWAP2 SWAP1 PUSH2 0x548 JUMP JUMPDEST PUSH1 0x40 MLOAD DUP1 SWAP2 SUB SWAP1 RETURN JUMPDEST PUSH1 0x0 PUSH32 0x0 PUSH20 0xFFFFFFFFFFFFFFFFFFFFFFFFFFFFFFFFFFFFFFFF AND DUP4 PUSH20 0xFFFFFFFFFFFFFFFFFFFFFFFFFFFFFFFFFFFFFFFF AND EQ PUSH2 0x129 JUMPI PUSH2 0x122 DUP4 PUSH2 0x2EF JUMP JUMPDEST SWAP1 POP PUSH2 0x2B3 JUMP JUMPDEST PUSH1 0x0 DUP4 PUSH20 0xFFFFFFFFFFFFFFFFFFFFFFFFFFFFFFFFFFFFFFFF AND PUSH4 0xD3C9CC26 DUP5 PUSH1 0x40 MLOAD DUP3 PUSH4 0xFFFFFFFF AND PUSH1 0xE0 SHL DUP2 MSTORE PUSH1 0x4 ADD PUSH2 0x164 SWAP2 SWAP1 PUSH2 0x548 JUMP JUMPDEST PUSH1 0x0 PUSH1 0x40 MLOAD DUP1 DUP4 SUB DUP2 DUP7 GAS STATICCALL ISZERO DUP1 ISZERO PUSH2 0x181 JUMPI RETURNDATASIZE PUSH1 0x0 DUP1 RETURNDATACOPY RETURNDATASIZE PUSH1 0x0 REVERT JUMPDEST POP POP POP POP PUSH1 0x40 MLOAD RETURNDATASIZE PUSH1 0x0 DUP3 RETURNDATACOPY RETURNDATASIZE PUSH1 0x1F NOT PUSH1 0x1F DUP3 ADD AND DUP3 ADD DUP1 PUSH1 0x40 MSTORE POP DUP2 ADD SWAP1 PUSH2 0x1AA SWAP2 SWAP1 PUSH2 0x728 JUMP JUMPDEST SWAP1 POP PUSH1 0x0 DUP5 PUSH20 0xFFFFFFFFFFFFFFFFFFFFFFFFFFFFFFFFFFFFFFFF AND PUSH4 0x59F7CF50 DUP6 PUSH1 0x40 MLOAD DUP3 PUSH4 0xFFFFFFFF AND PUSH1 0xE0 SHL DUP2 MSTORE PUSH1 0x4 ADD PUSH2 0x1E7 SWAP2 SWAP1 PUSH2 0x548 JUMP JUMPDEST PUSH1 0x0 PUSH1 0x40 MLOAD DUP1 DUP4 SUB DUP2 DUP7 GAS STATICCALL ISZERO DUP1 ISZERO PUSH2 0x204 JUMPI RETURNDATASIZE PUSH1 0x0 DUP1 RETURNDATACOPY RETURNDATASIZE PUSH1 0x0 REVERT JUMPDEST POP POP POP POP PUSH1 0x40 MLOAD RETURNDATASIZE PUSH1 0x0 DUP3 RETURNDATACOPY RETURNDATASIZE PUSH1 0x1F NOT PUSH1 0x1F DUP3 ADD AND DUP3 ADD DUP1 PUSH1 0x40 MSTORE POP DUP2 ADD SWAP1 PUSH2 0x22D SWAP2 SWAP1 PUSH2 0x849 JUMP JUMPDEST SWAP1 POP PUSH1 0x0 DUP1 DUP4 MLOAD SWAP1 POP PUSH1 0x0 JUMPDEST DUP2 DUP2 LT ISZERO PUSH2 0x2AA JUMPI PUSH1 0x0 PUSH2 0x266 DUP7 DUP4 DUP2 MLOAD DUP2 LT PUSH2 0x259 JUMPI PUSH2 0x258 PUSH2 0x892 JUMP JUMPDEST JUMPDEST PUSH1 0x20 MUL PUSH1 0x20 ADD ADD MLOAD PUSH2 0x2EF JUMP JUMPDEST SWAP1 POP PUSH1 0x0 DUP2 EQ PUSH2 0x2A4 JUMPI DUP1 DUP6 DUP4 DUP2 MLOAD DUP2 LT PUSH2 0x284 JUMPI PUSH2 0x283 PUSH2 0x892 JUMP JUMPDEST JUMPDEST PUSH1 0x20 MUL PUSH1 0x20 ADD ADD MLOAD PUSH2 0x296 SWAP2 SWAP1 PUSH2 0x8F0 JUMP JUMPDEST DUP5 PUSH2 0x2A1 SWAP2 SWAP1 PUSH2 0x932 JUMP JUMPDEST SWAP4 POP JUMPDEST POP PUSH2 0x239 JUMP JUMPDEST POP DUP2 SWAP5 POP POP POP POP POP JUMPDEST SWAP3 SWAP2 POP POP JUMP JUMPDEST PUSH32 0x0 DUP2 JUMP JUMPDEST PUSH1 0x0 PUSH2 0x2E8 DUP3 PUSH2 0x2EF JUMP JUMPDEST SWAP1 POP SWAP2 SWAP1 POP JUMP JUMPDEST PUSH1 0x0 DUP1 PUSH2 0x348 SWAP1 POP PUSH1 0x0 PUSH20 0x47FB2585D2C56FE188D0E6EC628A38B74FCEEEDF PUSH20 0xFFFFFFFFFFFFFFFFFFFFFFFFFFFFFFFFFFFFFFFF AND PUSH4 0x313CE567 PUSH1 0x40 MLOAD DUP2 PUSH4 0xFFFFFFFF AND PUSH1 0xE0 SHL DUP2 MSTORE PUSH1 0x4 ADD PUSH1 0x20 PUSH1 0x40 MLOAD DUP1 DUP4 SUB DUP2 DUP7 GAS STATICCALL ISZERO DUP1 ISZERO PUSH2 0x358 JUMPI RETURNDATASIZE PUSH1 0x0 DUP1 RETURNDATACOPY RETURNDATASIZE PUSH1 0x0 REVERT JUMPDEST POP POP POP POP PUSH1 0x40 MLOAD RETURNDATASIZE PUSH1 0x1F NOT PUSH1 0x1F DUP3 ADD AND DUP3 ADD DUP1 PUSH1 0x40 MSTORE POP DUP2 ADD SWAP1 PUSH2 0x37C SWAP2 SWAP1 PUSH2 0x99F JUMP JUMPDEST SWAP1 POP PUSH1 0x0 PUSH20 0x47FB2585D2C56FE188D0E6EC628A38B74FCEEEDF PUSH20 0xFFFFFFFFFFFFFFFFFFFFFFFFFFFFFFFFFFFFFFFF AND PUSH4 0xBCFD032D DUP7 DUP6 PUSH1 0x40 MLOAD DUP4 PUSH4 0xFFFFFFFF AND PUSH1 0xE0 SHL DUP2 MSTORE PUSH1 0x4 ADD PUSH2 0x3CF SWAP3 SWAP2 SWAP1 PUSH2 0x9CC JUMP JUMPDEST PUSH1 0xA0 PUSH1 0x40 MLOAD DUP1 DUP4 SUB DUP2 DUP7 GAS STATICCALL ISZERO DUP1 ISZERO PUSH2 0x3EC JUMPI RETURNDATASIZE PUSH1 0x0 DUP1 RETURNDATACOPY RETURNDATASIZE PUSH1 0x0 REVERT JUMPDEST POP POP POP POP PUSH1 0x40 MLOAD RETURNDATASIZE PUSH1 0x1F NOT PUSH1 0x1F DUP3 ADD AND DUP3 ADD DUP1 PUSH1 0x40 MSTORE POP DUP2 ADD SWAP1 PUSH2 0x410 SWAP2 SWAP1 PUSH2 0xA6D JUMP JUMPDEST POP POP POP SWAP2 POP POP DUP2 PUSH1 0xFF AND PUSH1 0xA PUSH2 0x426 SWAP2 SWAP1 PUSH2 0xC1B JUMP JUMPDEST PUSH11 0x52B7D2DCC80CD2E4000000 DUP3 PUSH2 0x43D SWAP2 SWAP1 PUSH2 0xC66 JUMP JUMPDEST PUSH2 0x447 SWAP2 SWAP1 PUSH2 0xD0D JUMP JUMPDEST SWAP4 POP POP POP POP SWAP2 SWAP1 POP JUMP JUMPDEST PUSH1 0x0 PUSH1 0x40 MLOAD SWAP1 POP SWAP1 JUMP JUMPDEST PUSH1 0x0 DUP1 REVERT JUMPDEST PUSH1 0x0 DUP1 REVERT JUMPDEST PUSH1 0x0 PUSH20 0xFFFFFFFFFFFFFFFFFFFFFFFFFFFFFFFFFFFFFFFF DUP3 AND SWAP1 POP SWAP2 SWAP1 POP JUMP JUMPDEST PUSH1 0x0 PUSH2 0x490 DUP3 PUSH2 0x465 JUMP JUMPDEST SWAP1 POP SWAP2 SWAP1 POP JUMP JUMPDEST PUSH2 0x4A0 DUP2 PUSH2 0x485 JUMP JUMPDEST DUP2 EQ PUSH2 0x4AB JUMPI PUSH1 0x0 DUP1 REVERT JUMPDEST POP JUMP JUMPDEST PUSH1 0x0 DUP2 CALLDATALOAD SWAP1 POP PUSH2 0x4BD DUP2 PUSH2 0x497 JUMP JUMPDEST SWAP3 SWAP2 POP POP JUMP JUMPDEST PUSH1 0x0 DUP2 SWAP1 POP SWAP2 SWAP1 POP JUMP JUMPDEST PUSH2 0x4D6 DUP2 PUSH2 0x4C3 JUMP JUMPDEST DUP2 EQ PUSH2 0x4E1 JUMPI PUSH1 0x0 DUP1 REVERT JUMPDEST POP JUMP JUMPDEST PUSH1 0x0 DUP2 CALLDATALOAD SWAP1 POP PUSH2 0x4F3 DUP2 PUSH2 0x4CD JUMP JUMPDEST SWAP3 SWAP2 POP POP JUMP JUMPDEST PUSH1 0x0 DUP1 PUSH1 0x40 DUP4 DUP6 SUB SLT ISZERO PUSH2 0x510 JUMPI PUSH2 0x50F PUSH2 0x45B JUMP JUMPDEST JUMPDEST PUSH1 0x0 PUSH2 0x51E DUP6 DUP3 DUP7 ADD PUSH2 0x4AE JUMP JUMPDEST SWAP3 POP POP PUSH1 0x20 PUSH2 0x52F DUP6 DUP3 DUP7 ADD PUSH2 0x4E4 JUMP JUMPDEST SWAP2 POP POP SWAP3 POP SWAP3 SWAP1 POP JUMP JUMPDEST PUSH2 0x542 DUP2 PUSH2 0x4C3 JUMP JUMPDEST DUP3 MSTORE POP POP JUMP JUMPDEST PUSH1 0x0 PUSH1 0x20 DUP3 ADD SWAP1 POP PUSH2 0x55D PUSH1 0x0 DUP4 ADD DUP5 PUSH2 0x539 JUMP JUMPDEST SWAP3 SWAP2 POP POP JUMP JUMPDEST PUSH2 0x56C DUP2 PUSH2 0x485 JUMP JUMPDEST DUP3 MSTORE POP POP JUMP JUMPDEST PUSH1 0x0 PUSH1 0x20 DUP3 ADD SWAP1 POP PUSH2 0x587 PUSH1 0x0 DUP4 ADD DUP5 PUSH2 0x563 JUMP JUMPDEST SWAP3 SWAP2 POP POP JUMP JUMPDEST PUSH1 0x0 PUSH1 0x20 DUP3 DUP5 SUB SLT ISZERO PUSH2 0x5A3 JUMPI PUSH2 0x5A2 PUSH2 0x45B JUMP JUMPDEST JUMPDEST PUSH1 0x0 PUSH2 0x5B1 DUP5 DUP3 DUP6 ADD PUSH2 0x4AE JUMP JUMPDEST SWAP2 POP POP SWAP3 SWAP2 POP POP JUMP JUMPDEST PUSH1 0x0 DUP1 REVERT JUMPDEST PUSH1 0x0 PUSH1 0x1F NOT PUSH1 0x1F DUP4 ADD AND SWAP1 POP SWAP2 SWAP1 POP JUMP JUMPDEST PUSH32 0x4E487B7100000000000000000000000000000000000000000000000000000000 PUSH1 0x0 MSTORE PUSH1 0x41 PUSH1 0x4 MSTORE PUSH1 0x24 PUSH1 0x0 REVERT JUMPDEST PUSH2 0x608 DUP3 PUSH2 0x5BF JUMP JUMPDEST DUP2 ADD DUP2 DUP2 LT PUSH8 0xFFFFFFFFFFFFFFFF DUP3 GT OR ISZERO PUSH2 0x627 JUMPI PUSH2 0x626 PUSH2 0x5D0 JUMP JUMPDEST JUMPDEST DUP1 PUSH1 0x40 MSTORE POP POP POP JUMP JUMPDEST PUSH1 0x0 PUSH2 0x63A PUSH2 0x451 JUMP JUMPDEST SWAP1 POP PUSH2 0x646 DUP3 DUP3 PUSH2 0x5FF JUMP JUMPDEST SWAP2 SWAP1 POP JUMP JUMPDEST PUSH1 0x0 PUSH8 0xFFFFFFFFFFFFFFFF DUP3 GT ISZERO PUSH2 0x666 JUMPI PUSH2 0x665 PUSH2 0x5D0 JUMP JUMPDEST JUMPDEST PUSH1 0x20 DUP3 MUL SWAP1 POP PUSH1 0x20 DUP2 ADD SWAP1 POP SWAP2 SWAP1 POP JUMP JUMPDEST PUSH1 0x0 DUP1 REVERT JUMPDEST PUSH1 0x0 DUP2 MLOAD SWAP1 POP PUSH2 0x68B DUP2 PUSH2 0x497 JUMP JUMPDEST SWAP3 SWAP2 POP POP JUMP JUMPDEST PUSH1 0x0 PUSH2 0x6A4 PUSH2 0x69F DUP5 PUSH2 0x64B JUMP JUMPDEST PUSH2 0x630 JUMP JUMPDEST SWAP1 POP DUP1 DUP4 DUP3 MSTORE PUSH1 0x20 DUP3 ADD SWAP1 POP PUSH1 0x20 DUP5 MUL DUP4 ADD DUP6 DUP2 GT ISZERO PUSH2 0x6C7 JUMPI PUSH2 0x6C6 PUSH2 0x677 JUMP JUMPDEST JUMPDEST DUP4 JUMPDEST DUP2 DUP2 LT ISZERO PUSH2 0x6F0 JUMPI DUP1 PUSH2 0x6DC DUP9 DUP3 PUSH2 0x67C JUMP JUMPDEST DUP5 MSTORE PUSH1 0x20 DUP5 ADD SWAP4 POP POP PUSH1 0x20 DUP2 ADD SWAP1 POP PUSH2 0x6C9 JUMP JUMPDEST POP POP POP SWAP4 SWAP3 POP POP POP JUMP JUMPDEST PUSH1 0x0 DUP3 PUSH1 0x1F DUP4 ADD SLT PUSH2 0x70F JUMPI PUSH2 0x70E PUSH2 0x5BA JUMP JUMPDEST JUMPDEST DUP2 MLOAD PUSH2 0x71F DUP5 DUP3 PUSH1 0x20 DUP7 ADD PUSH2 0x691 JUMP JUMPDEST SWAP2 POP POP SWAP3 SWAP2 POP POP JUMP JUMPDEST PUSH1 0x0 PUSH1 0x20 DUP3 DUP5 SUB SLT ISZERO PUSH2 0x73E JUMPI PUSH2 0x73D PUSH2 0x45B JUMP JUMPDEST JUMPDEST PUSH1 0x0 DUP3 ADD MLOAD PUSH8 0xFFFFFFFFFFFFFFFF DUP2 GT ISZERO PUSH2 0x75C JUMPI PUSH2 0x75B PUSH2 0x460 JUMP JUMPDEST JUMPDEST PUSH2 0x768 DUP5 DUP3 DUP6 ADD PUSH2 0x6FA JUMP JUMPDEST SWAP2 POP POP SWAP3 SWAP2 POP POP JUMP JUMPDEST PUSH1 0x0 PUSH8 0xFFFFFFFFFFFFFFFF DUP3 GT ISZERO PUSH2 0x78C JUMPI PUSH2 0x78B PUSH2 0x5D0 JUMP JUMPDEST JUMPDEST PUSH1 0x20 DUP3 MUL SWAP1 POP PUSH1 0x20 DUP2 ADD SWAP1 POP SWAP2 SWAP1 POP JUMP JUMPDEST PUSH1 0x0 DUP2 MLOAD SWAP1 POP PUSH2 0x7AC DUP2 PUSH2 0x4CD JUMP JUMPDEST SWAP3 SWAP2 POP POP JUMP JUMPDEST PUSH1 0x0 PUSH2 0x7C5 PUSH2 0x7C0 DUP5 PUSH2 0x771 JUMP JUMPDEST PUSH2 0x630 JUMP JUMPDEST SWAP1 POP DUP1 DUP4 DUP3 MSTORE PUSH1 0x20 DUP3 ADD SWAP1 POP PUSH1 0x20 DUP5 MUL DUP4 ADD DUP6 DUP2 GT ISZERO PUSH2 0x7E8 JUMPI PUSH2 0x7E7 PUSH2 0x677 JUMP JUMPDEST JUMPDEST DUP4 JUMPDEST DUP2 DUP2 LT ISZERO PUSH2 0x811 JUMPI DUP1 PUSH2 0x7FD DUP9 DUP3 PUSH2 0x79D JUMP JUMPDEST DUP5 MSTORE PUSH1 0x20 DUP5 ADD SWAP4 POP POP PUSH1 0x20 DUP2 ADD SWAP1 POP PUSH2 0x7EA JUMP JUMPDEST POP POP POP SWAP4 SWAP3 POP POP POP JUMP JUMPDEST PUSH1 0x0 DUP3 PUSH1 0x1F DUP4 ADD SLT PUSH2 0x830 JUMPI PUSH2 0x82F PUSH2 0x5BA JUMP JUMPDEST JUMPDEST DUP2 MLOAD PUSH2 0x840 DUP5 DUP3 PUSH1 0x20 DUP7 ADD PUSH2 0x7B2 JUMP JUMPDEST SWAP2 POP POP SWAP3 SWAP2 POP POP JUMP JUMPDEST PUSH1 0x0 PUSH1 0x20 DUP3 DUP5 SUB SLT ISZERO PUSH2 0x85F JUMPI PUSH2 0x85E PUSH2 0x45B JUMP JUMPDEST JUMPDEST PUSH1 0x0 DUP3 ADD MLOAD PUSH8 0xFFFFFFFFFFFFFFFF DUP2 GT ISZERO PUSH2 0x87D JUMPI PUSH2 0x87C PUSH2 0x460 JUMP JUMPDEST JUMPDEST PUSH2 0x889 DUP5 DUP3 DUP6 ADD PUSH2 0x81B JUMP JUMPDEST SWAP2 POP POP SWAP3 SWAP2 POP POP JUMP JUMPDEST PUSH32 0x4E487B7100000000000000000000000000000000000000000000000000000000 PUSH1 0x0 MSTORE PUSH1 0x32 PUSH1 0x4 MSTORE PUSH1 0x24 PUSH1 0x0 REVERT JUMPDEST PUSH32 0x4E487B7100000000000000000000000000000000000000000000000000000000 PUSH1 0x0 MSTORE PUSH1 0x11 PUSH1 0x4 MSTORE PUSH1 0x24 PUSH1 0x0 REVERT JUMPDEST PUSH1 0x0 PUSH2 0x8FB DUP3 PUSH2 0x4C3 JUMP JUMPDEST SWAP2 POP PUSH2 0x906 DUP4 PUSH2 0x4C3 JUMP JUMPDEST SWAP3 POP DUP3 DUP3 MUL PUSH2 0x914 DUP2 PUSH2 0x4C3 JUMP JUMPDEST SWAP2 POP DUP3 DUP3 DIV DUP5 EQ DUP4 ISZERO OR PUSH2 0x92B JUMPI PUSH2 0x92A PUSH2 0x8C1 JUMP JUMPDEST JUMPDEST POP SWAP3 SWAP2 POP POP JUMP JUMPDEST PUSH1 0x0 PUSH2 0x93D DUP3 PUSH2 0x4C3 JUMP JUMPDEST SWAP2 POP PUSH2 0x948 DUP4 PUSH2 0x4C3 JUMP JUMPDEST SWAP3 POP DUP3 DUP3 ADD SWAP1 POP DUP1 DUP3 GT ISZERO PUSH2 0x960 JUMPI PUSH2 0x95F PUSH2 0x8C1 JUMP JUMPDEST JUMPDEST SWAP3 SWAP2 POP POP JUMP JUMPDEST PUSH1 0x0 PUSH1 0xFF DUP3 AND SWAP1 POP SWAP2 SWAP1 POP JUMP JUMPDEST PUSH2 0x97C DUP2 PUSH2 0x966 JUMP JUMPDEST DUP2 EQ PUSH2 0x987 JUMPI PUSH1 0x0 DUP1 REVERT JUMPDEST POP JUMP JUMPDEST PUSH1 0x0 DUP2 MLOAD SWAP1 POP PUSH2 0x999 DUP2 PUSH2 0x973 JUMP JUMPDEST SWAP3 SWAP2 POP POP JUMP JUMPDEST PUSH1 0x0 PUSH1 0x20 DUP3 DUP5 SUB SLT ISZERO PUSH2 0x9B5 JUMPI PUSH2 0x9B4 PUSH2 0x45B JUMP JUMPDEST JUMPDEST PUSH1 0x0 PUSH2 0x9C3 DUP5 DUP3 DUP6 ADD PUSH2 0x98A JUMP JUMPDEST SWAP2 POP POP SWAP3 SWAP2 POP POP JUMP JUMPDEST PUSH1 0x0 PUSH1 0x40 DUP3 ADD SWAP1 POP PUSH2 0x9E1 PUSH1 0x0 DUP4 ADD DUP6 PUSH2 0x563 JUMP JUMPDEST PUSH2 0x9EE PUSH1 0x20 DUP4 ADD DUP5 PUSH2 0x563 JUMP JUMPDEST SWAP4 SWAP3 POP POP POP JUMP JUMPDEST PUSH1 0x0 PUSH10 0xFFFFFFFFFFFFFFFFFFFF DUP3 AND SWAP1 POP SWAP2 SWAP1 POP JUMP JUMPDEST PUSH2 0xA14 DUP2 PUSH2 0x9F5 JUMP JUMPDEST DUP2 EQ PUSH2 0xA1F JUMPI PUSH1 0x0 DUP1 REVERT JUMPDEST POP JUMP JUMPDEST PUSH1 0x0 DUP2 MLOAD SWAP1 POP PUSH2 0xA31 DUP2 PUSH2 0xA0B JUMP JUMPDEST SWAP3 SWAP2 POP POP JUMP JUMPDEST PUSH1 0x0 DUP2 SWAP1 POP SWAP2 SWAP1 POP JUMP JUMPDEST PUSH2 0xA4A DUP2 PUSH2 0xA37 JUMP JUMPDEST DUP2 EQ PUSH2 0xA55 JUMPI PUSH1 0x0 DUP1 REVERT JUMPDEST POP JUMP JUMPDEST PUSH1 0x0 DUP2 MLOAD SWAP1 POP PUSH2 0xA67 DUP2 PUSH2 0xA41 JUMP JUMPDEST SWAP3 SWAP2 POP POP JUMP JUMPDEST PUSH1 0x0 DUP1 PUSH1 0x0 DUP1 PUSH1 0x0 PUSH1 0xA0 DUP7 DUP9 SUB SLT ISZERO PUSH2 0xA89 JUMPI PUSH2 0xA88 PUSH2 0x45B JUMP JUMPDEST JUMPDEST PUSH1 0x0 PUSH2 0xA97 DUP9 DUP3 DUP10 ADD PUSH2 0xA22 JUMP JUMPDEST SWAP6 POP POP PUSH1 0x20 PUSH2 0xAA8 DUP9 DUP3 DUP10 ADD PUSH2 0xA58 JUMP JUMPDEST SWAP5 POP POP PUSH1 0x40 PUSH2 0xAB9 DUP9 DUP3 DUP10 ADD PUSH2 0x79D JUMP JUMPDEST SWAP4 POP POP PUSH1 0x60 PUSH2 0xACA DUP9 DUP3 DUP10 ADD PUSH2 0x79D JUMP JUMPDEST SWAP3 POP POP PUSH1 0x80 PUSH2 0xADB DUP9 DUP3 DUP10 ADD PUSH2 0xA22 JUMP JUMPDEST SWAP2 POP POP SWAP3 SWAP6 POP SWAP3 SWAP6 SWAP1 SWAP4 POP JUMP JUMPDEST PUSH1 0x0 DUP2 PUSH1 0x1 SHR SWAP1 POP SWAP2 SWAP1 POP JUMP JUMPDEST PUSH1 0x0 DUP1 DUP3 SWAP2 POP DUP4 SWAP1 POP JUMPDEST PUSH1 0x1 DUP6 GT ISZERO PUSH2 0xB3F JUMPI DUP1 DUP7 DIV DUP2 GT ISZERO PUSH2 0xB1B JUMPI PUSH2 0xB1A PUSH2 0x8C1 JUMP JUMPDEST JUMPDEST PUSH1 0x1 DUP6 AND ISZERO PUSH2 0xB2A JUMPI DUP1 DUP3 MUL SWAP2 POP JUMPDEST DUP1 DUP2 MUL SWAP1 POP PUSH2 0xB38 DUP6 PUSH2 0xAE8 JUMP JUMPDEST SWAP5 POP PUSH2 0xAFF JUMP JUMPDEST SWAP5 POP SWAP5 SWAP3 POP POP POP JUMP JUMPDEST PUSH1 0x0 DUP3 PUSH2 0xB58 JUMPI PUSH1 0x1 SWAP1 POP PUSH2 0xC14 JUMP JUMPDEST DUP2 PUSH2 0xB66 JUMPI PUSH1 0x0 SWAP1 POP PUSH2 0xC14 JUMP JUMPDEST DUP2 PUSH1 0x1 DUP2 EQ PUSH2 0xB7C JUMPI PUSH1 0x2 DUP2 EQ PUSH2 0xB86 JUMPI PUSH2 0xBB5 JUMP JUMPDEST PUSH1 0x1 SWAP2 POP POP PUSH2 0xC14 JUMP JUMPDEST PUSH1 0xFF DUP5 GT ISZERO PUSH2 0xB98 JUMPI PUSH2 0xB97 PUSH2 0x8C1 JUMP JUMPDEST JUMPDEST DUP4 PUSH1 0x2 EXP SWAP2 POP DUP5 DUP3 GT ISZERO PUSH2 0xBAF JUMPI PUSH2 0xBAE PUSH2 0x8C1 JUMP JUMPDEST JUMPDEST POP PUSH2 0xC14 JUMP JUMPDEST POP PUSH1 0x20 DUP4 LT PUSH2 0x133 DUP4 LT AND PUSH1 0x4E DUP5 LT PUSH1 0xB DUP5 LT AND OR ISZERO PUSH2 0xBEA JUMPI DUP3 DUP3 EXP SWAP1 POP DUP4 DUP2 GT ISZERO PUSH2 0xBE5 JUMPI PUSH2 0xBE4 PUSH2 0x8C1 JUMP JUMPDEST JUMPDEST PUSH2 0xC14 JUMP JUMPDEST PUSH2 0xBF7 DUP5 DUP5 DUP5 PUSH1 0x1 PUSH2 0xAF5 JUMP JUMPDEST SWAP3 POP SWAP1 POP DUP2 DUP5 DIV DUP2 GT ISZERO PUSH2 0xC0E JUMPI PUSH2 0xC0D PUSH2 0x8C1 JUMP JUMPDEST JUMPDEST DUP2 DUP2 MUL SWAP1 POP JUMPDEST SWAP4 SWAP3 POP POP POP JUMP JUMPDEST PUSH1 0x0 PUSH2 0xC26 DUP3 PUSH2 0x4C3 JUMP JUMPDEST SWAP2 POP PUSH2 0xC31 DUP4 PUSH2 0x4C3 JUMP JUMPDEST SWAP3 POP PUSH2 0xC5E PUSH32 0xFFFFFFFFFFFFFFFFFFFFFFFFFFFFFFFFFFFFFFFFFFFFFFFFFFFFFFFFFFFFFFFF DUP5 DUP5 PUSH2 0xB48 JUMP JUMPDEST SWAP1 POP SWAP3 SWAP2 POP POP JUMP JUMPDEST PUSH1 0x0 PUSH2 0xC71 DUP3 PUSH2 0xA37 JUMP JUMPDEST SWAP2 POP PUSH2 0xC7C DUP4 PUSH2 0xA37 JUMP JUMPDEST SWAP3 POP DUP3 DUP3 MUL PUSH2 0xC8A DUP2 PUSH2 0xA37 JUMP JUMPDEST SWAP2 POP PUSH32 0x8000000000000000000000000000000000000000000000000000000000000000 DUP5 EQ PUSH1 0x0 DUP5 SLT AND ISZERO PUSH2 0xCC2 JUMPI PUSH2 0xCC1 PUSH2 0x8C1 JUMP JUMPDEST JUMPDEST DUP3 DUP3 SDIV DUP5 EQ DUP4 ISZERO OR PUSH2 0xCD7 JUMPI PUSH2 0xCD6 PUSH2 0x8C1 JUMP JUMPDEST JUMPDEST POP SWAP3 SWAP2 POP POP JUMP JUMPDEST PUSH32 0x4E487B7100000000000000000000000000000000000000000000000000000000 PUSH1 0x0 MSTORE PUSH1 0x12 PUSH1 0x4 MSTORE PUSH1 0x24 PUSH1 0x0 REVERT JUMPDEST PUSH1 0x0 PUSH2 0xD18 DUP3 PUSH2 0x4C3 JUMP JUMPDEST SWAP2 POP PUSH2 0xD23 DUP4 PUSH2 0x4C3 JUMP JUMPDEST SWAP3 POP DUP3 PUSH2 0xD33 JUMPI PUSH2 0xD32 PUSH2 0xCDE JUMP JUMPDEST JUMPDEST DUP3 DUP3 DIV SWAP1 POP SWAP3 SWAP2 POP POP JUMP INVALID LOG2 PUSH5 0x6970667358 0x22 SLT KECCAK256 PUSH4 0x209D69FE PUSH31 0x8234B0A705C2EA4AA01655A59CD625CEA9DEE64A534E76F0148364736F6C63 NUMBER STOP ADDMOD GT STOP CALLER "
				},
				"gasEstimates": {
					"creation": {
						"codeDepositCost": "688800",
						"executionCost": "infinite",
						"totalCost": "infinite"
					},
					"external": {
						"Wrapper()": "infinite",
						"getBundlePrice(address,uint256)": "infinite",
						"getUnderlyingPrice(address)": "infinite"
					},
					"internal": {
						"_getUnderlyingPrice(address)": "infinite"
					}
				},
				"methodIdentifiers": {
					"Wrapper()": "08a130ab",
					"getBundlePrice(address,uint256)": "06cd702c",
					"getUnderlyingPrice(address)": "fc57d4df"
				}
			},
			"storageLayout": {
				"storage": [],
				"types": null
			},
			"userdoc": {
				"kind": "user",
				"methods": {},
				"version": 1
			}
		}
	}
}