{
	"contracts/TellorOracle.sol": {
		"TellorOracle": {
			"abi": [
				{
					"inputs": [
						{
							"internalType": "address payable",
							"name": "_tellorAddress",
							"type": "address"
						},
						{
							"internalType": "address",
							"name": "_wrapper",
							"type": "address"
						}
					],
					"stateMutability": "nonpayable",
					"type": "constructor"
				},
				{
					"anonymous": false,
					"inputs": [
						{
							"indexed": false,
							"internalType": "string",
							"name": "message",
							"type": "string"
						}
					],
					"name": "Log",
					"type": "event"
				},
				{
					"inputs": [],
					"name": "Wrapper",
					"outputs": [
						{
							"internalType": "address",
							"name": "",
							"type": "address"
						}
					],
					"stateMutability": "view",
					"type": "function"
				},
				{
					"inputs": [
						{
							"internalType": "address",
							"name": "wrapper",
							"type": "address"
						},
						{
							"internalType": "uint256",
							"name": "nftId",
							"type": "uint256"
						}
					],
					"name": "getBundlePrice",
					"outputs": [
						{
							"internalType": "uint256",
							"name": "",
							"type": "uint256"
						}
					],
					"stateMutability": "view",
					"type": "function"
				},
				{
					"inputs": [
						{
							"internalType": "bytes32",
							"name": "_queryId",
							"type": "bytes32"
						}
					],
					"name": "getCurrentValue",
					"outputs": [
						{
							"internalType": "bool",
							"name": "_ifRetrieve",
							"type": "bool"
						},
						{
							"internalType": "bytes",
							"name": "_value",
							"type": "bytes"
						},
						{
							"internalType": "uint256",
							"name": "_timestampRetrieved",
							"type": "uint256"
						}
					],
					"stateMutability": "view",
					"type": "function"
				},
				{
					"inputs": [
						{
							"internalType": "bytes32",
							"name": "_queryId",
							"type": "bytes32"
						},
						{
							"internalType": "uint256",
							"name": "_timestamp",
							"type": "uint256"
						}
					],
					"name": "getDataBefore",
					"outputs": [
						{
							"internalType": "bool",
							"name": "_ifRetrieve",
							"type": "bool"
						},
						{
							"internalType": "bytes",
							"name": "_value",
							"type": "bytes"
						},
						{
							"internalType": "uint256",
							"name": "_timestampRetrieved",
							"type": "uint256"
						}
					],
					"stateMutability": "view",
					"type": "function"
				},
				{
					"inputs": [
						{
							"internalType": "bytes32",
							"name": "_queryId",
							"type": "bytes32"
						},
						{
							"internalType": "uint256",
							"name": "_timestamp",
							"type": "uint256"
						}
					],
					"name": "getIndexForDataBefore",
					"outputs": [
						{
							"internalType": "bool",
							"name": "_found",
							"type": "bool"
						},
						{
							"internalType": "uint256",
							"name": "_index",
							"type": "uint256"
						}
					],
					"stateMutability": "view",
					"type": "function"
				},
				{
					"inputs": [
						{
							"internalType": "bytes32",
							"name": "_queryId",
							"type": "bytes32"
						}
					],
					"name": "getNewValueCountbyQueryId",
					"outputs": [
						{
							"internalType": "uint256",
							"name": "",
							"type": "uint256"
						}
					],
					"stateMutability": "view",
					"type": "function"
				},
				{
					"inputs": [
						{
							"internalType": "bytes32",
							"name": "_queryId",
							"type": "bytes32"
						},
						{
							"internalType": "uint256",
							"name": "_index",
							"type": "uint256"
						}
					],
					"name": "getTimestampbyQueryIdandIndex",
					"outputs": [
						{
							"internalType": "uint256",
							"name": "",
							"type": "uint256"
						}
					],
					"stateMutability": "view",
					"type": "function"
				},
				{
					"inputs": [
						{
							"internalType": "address",
							"name": "_underlying",
							"type": "address"
						}
					],
					"name": "getUnderlyingPrice",
					"outputs": [
						{
							"internalType": "uint256",
							"name": "",
							"type": "uint256"
						}
					],
					"stateMutability": "view",
					"type": "function"
				},
				{
					"inputs": [
						{
							"internalType": "bytes32",
							"name": "_queryId",
							"type": "bytes32"
						},
						{
							"internalType": "uint256",
							"name": "_timestamp",
							"type": "uint256"
						}
					],
					"name": "isInDispute",
					"outputs": [
						{
							"internalType": "bool",
							"name": "",
							"type": "bool"
						}
					],
					"stateMutability": "view",
					"type": "function"
				},
				{
					"inputs": [
						{
							"internalType": "bytes32",
							"name": "_queryId",
							"type": "bytes32"
						},
						{
							"internalType": "uint256",
							"name": "_timestamp",
							"type": "uint256"
						}
					],
					"name": "retrieveData",
					"outputs": [
						{
							"internalType": "bytes",
							"name": "",
							"type": "bytes"
						}
					],
					"stateMutability": "view",
					"type": "function"
				},
				{
					"inputs": [
						{
							"internalType": "address",
							"name": "tokenAddress",
							"type": "address"
						},
						{
							"internalType": "string",
							"name": "assetName",
							"type": "string"
						}
					],
					"name": "setMapping",
					"outputs": [],
					"stateMutability": "nonpayable",
					"type": "function"
				},
				{
					"inputs": [],
					"name": "tellor",
					"outputs": [
						{
							"internalType": "contract ITellor",
							"name": "",
							"type": "address"
						}
					],
					"stateMutability": "view",
					"type": "function"
				}
			],
			"devdoc": {
				"kind": "dev",
				"methods": {
					"getCurrentValue(bytes32)": {
						"details": "Allows the user to get the latest value for the queryId specified",
						"params": {
							"_queryId": "is the id to look up the value for"
						},
						"returns": {
							"_ifRetrieve": "bool true if non-zero value successfully retrieved",
							"_timestampRetrieved": "the retrieved value's timestamp",
							"_value": "the value retrieved"
						}
					},
					"getDataBefore(bytes32,uint256)": {
						"details": "Retrieves the latest value for the queryId before the specified timestamp",
						"params": {
							"_queryId": "is the queryId to look up the value for",
							"_timestamp": "before which to search for latest value"
						},
						"returns": {
							"_ifRetrieve": "bool true if able to retrieve a non-zero value",
							"_timestampRetrieved": "the value's timestamp",
							"_value": "the value retrieved"
						}
					},
					"getIndexForDataBefore(bytes32,uint256)": {
						"details": "Retrieves latest array index of data before the specified timestamp for the queryId",
						"params": {
							"_queryId": "is the queryId to look up the index for",
							"_timestamp": "is the timestamp before which to search for the latest index"
						},
						"returns": {
							"_found": "whether the index was found",
							"_index": "the latest index found before the specified timestamp"
						}
					},
					"getNewValueCountbyQueryId(bytes32)": {
						"details": "Counts the number of values that have been submitted for the queryId",
						"params": {
							"_queryId": "the id to look up"
						},
						"returns": {
							"_0": "uint256 count of the number of values received for the queryId"
						}
					},
					"isInDispute(bytes32,uint256)": {
						"details": "Determines whether a value with a given queryId and timestamp has been disputed",
						"params": {
							"_queryId": "is the value id to look up",
							"_timestamp": "is the timestamp of the value to look up"
						},
						"returns": {
							"_0": "bool true if queryId/timestamp is under dispute"
						}
					},
					"retrieveData(bytes32,uint256)": {
						"details": "Retrieve value from oracle based on queryId/timestamp",
						"params": {
							"_queryId": "being requested",
							"_timestamp": "to retrieve data/value from"
						},
						"returns": {
							"_0": "bytes value for query/timestamp submitted"
						}
					}
				},
				"version": 1
			},
			"evm": {
				"assembly": "    /* \"contracts/TellorOracle.sol\":349:2967  contract TellorOracle is IPriceOracle, UsingTellor {... */\n  mstore(0x40, 0xa0)\n    /* \"contracts/TellorOracle.sol\":650:787  constructor(address payable _tellorAddress, address _wrapper)... */\n  callvalue\n  dup1\n  iszero\n  tag_1\n  jumpi\n  0x00\n  dup1\n  revert\ntag_1:\n  pop\n  mload(0x40)\n  sub(codesize, bytecodeSize)\n  dup1\n  bytecodeSize\n  dup4\n  codecopy\n  dup2\n  dup2\n  add\n  0x40\n  mstore\n  dup2\n  add\n  swap1\n  tag_2\n  swap2\n  swap1\n  tag_3\n  jump\t// in\ntag_2:\n    /* \"contracts/TellorOracle.sol\":732:746  _tellorAddress */\n  dup2\n    /* \"usingtellor/contracts/UsingTellor.sol\":515:522  _tellor */\n  dup1\n    /* \"usingtellor/contracts/UsingTellor.sol\":498:504  tellor */\n  0x00\n  dup1\n    /* \"usingtellor/contracts/UsingTellor.sol\":498:523  tellor = ITellor(_tellor) */\n  0x0100\n  exp\n  dup2\n  sload\n  dup2\n  0xffffffffffffffffffffffffffffffffffffffff\n  mul\n  not\n  and\n  swap1\n  dup4\n  0xffffffffffffffffffffffffffffffffffffffff\n  and\n  mul\n  or\n  swap1\n  sstore\n  pop\n    /* \"usingtellor/contracts/UsingTellor.sol\":451:530  constructor(address payable _tellor) {... */\n  pop\n    /* \"contracts/TellorOracle.sol\":772:780  _wrapper */\n  dup1\n    /* \"contracts/TellorOracle.sol\":762:780  Wrapper = _wrapper */\n  0xffffffffffffffffffffffffffffffffffffffff\n  and\n  0x80\n  dup2\n  0xffffffffffffffffffffffffffffffffffffffff\n  and\n  dup2\n  mstore\n  pop\n  pop\n    /* \"contracts/TellorOracle.sol\":650:787  constructor(address payable _tellorAddress, address _wrapper)... */\n  pop\n  pop\n    /* \"contracts/TellorOracle.sol\":349:2967  contract TellorOracle is IPriceOracle, UsingTellor {... */\n  jump(tag_8)\n    /* \"#utility.yul\":88:205   */\ntag_10:\n    /* \"#utility.yul\":197:198   */\n  0x00\n    /* \"#utility.yul\":194:195   */\n  dup1\n    /* \"#utility.yul\":187:199   */\n  revert\n    /* \"#utility.yul\":334:460   */\ntag_12:\n    /* \"#utility.yul\":371:378   */\n  0x00\n    /* \"#utility.yul\":411:453   */\n  0xffffffffffffffffffffffffffffffffffffffff\n    /* \"#utility.yul\":404:409   */\n  dup3\n    /* \"#utility.yul\":400:454   */\n  and\n    /* \"#utility.yul\":389:454   */\n  swap1\n  pop\n    /* \"#utility.yul\":334:460   */\n  swap2\n  swap1\n  pop\n  jump\t// out\n    /* \"#utility.yul\":466:570   */\ntag_13:\n    /* \"#utility.yul\":511:518   */\n  0x00\n    /* \"#utility.yul\":540:564   */\n  tag_25\n    /* \"#utility.yul\":558:563   */\n  dup3\n    /* \"#utility.yul\":540:564   */\n  tag_12\n  jump\t// in\ntag_25:\n    /* \"#utility.yul\":529:564   */\n  swap1\n  pop\n    /* \"#utility.yul\":466:570   */\n  swap2\n  swap1\n  pop\n  jump\t// out\n    /* \"#utility.yul\":576:714   */\ntag_14:\n    /* \"#utility.yul\":657:689   */\n  tag_27\n    /* \"#utility.yul\":683:688   */\n  dup2\n    /* \"#utility.yul\":657:689   */\n  tag_13\n  jump\t// in\ntag_27:\n    /* \"#utility.yul\":650:655   */\n  dup2\n    /* \"#utility.yul\":647:690   */\n  eq\n    /* \"#utility.yul\":637:708   */\n  tag_28\n  jumpi\n    /* \"#utility.yul\":704:705   */\n  0x00\n    /* \"#utility.yul\":701:702   */\n  dup1\n    /* \"#utility.yul\":694:706   */\n  revert\n    /* \"#utility.yul\":637:708   */\ntag_28:\n    /* \"#utility.yul\":576:714   */\n  pop\n  jump\t// out\n    /* \"#utility.yul\":720:879   */\ntag_15:\n    /* \"#utility.yul\":785:790   */\n  0x00\n    /* \"#utility.yul\":816:822   */\n  dup2\n    /* \"#utility.yul\":810:823   */\n  mload\n    /* \"#utility.yul\":801:823   */\n  swap1\n  pop\n    /* \"#utility.yul\":832:873   */\n  tag_30\n    /* \"#utility.yul\":867:872   */\n  dup2\n    /* \"#utility.yul\":832:873   */\n  tag_14\n  jump\t// in\ntag_30:\n    /* \"#utility.yul\":720:879   */\n  swap3\n  swap2\n  pop\n  pop\n  jump\t// out\n    /* \"#utility.yul\":885:981   */\ntag_16:\n    /* \"#utility.yul\":922:929   */\n  0x00\n    /* \"#utility.yul\":951:975   */\n  tag_32\n    /* \"#utility.yul\":969:974   */\n  dup3\n    /* \"#utility.yul\":951:975   */\n  tag_12\n  jump\t// in\ntag_32:\n    /* \"#utility.yul\":940:975   */\n  swap1\n  pop\n    /* \"#utility.yul\":885:981   */\n  swap2\n  swap1\n  pop\n  jump\t// out\n    /* \"#utility.yul\":987:1109   */\ntag_17:\n    /* \"#utility.yul\":1060:1084   */\n  tag_34\n    /* \"#utility.yul\":1078:1083   */\n  dup2\n    /* \"#utility.yul\":1060:1084   */\n  tag_16\n  jump\t// in\ntag_34:\n    /* \"#utility.yul\":1053:1058   */\n  dup2\n    /* \"#utility.yul\":1050:1085   */\n  eq\n    /* \"#utility.yul\":1040:1103   */\n  tag_35\n  jumpi\n    /* \"#utility.yul\":1099:1100   */\n  0x00\n    /* \"#utility.yul\":1096:1097   */\n  dup1\n    /* \"#utility.yul\":1089:1101   */\n  revert\n    /* \"#utility.yul\":1040:1103   */\ntag_35:\n    /* \"#utility.yul\":987:1109   */\n  pop\n  jump\t// out\n    /* \"#utility.yul\":1115:1258   */\ntag_18:\n    /* \"#utility.yul\":1172:1177   */\n  0x00\n    /* \"#utility.yul\":1203:1209   */\n  dup2\n    /* \"#utility.yul\":1197:1210   */\n  mload\n    /* \"#utility.yul\":1188:1210   */\n  swap1\n  pop\n    /* \"#utility.yul\":1219:1252   */\n  tag_37\n    /* \"#utility.yul\":1246:1251   */\n  dup2\n    /* \"#utility.yul\":1219:1252   */\n  tag_17\n  jump\t// in\ntag_37:\n    /* \"#utility.yul\":1115:1258   */\n  swap3\n  swap2\n  pop\n  pop\n  jump\t// out\n    /* \"#utility.yul\":1264:1787   */\ntag_3:\n    /* \"#utility.yul\":1351:1357   */\n  0x00\n    /* \"#utility.yul\":1359:1365   */\n  dup1\n    /* \"#utility.yul\":1408:1410   */\n  0x40\n    /* \"#utility.yul\":1396:1405   */\n  dup4\n    /* \"#utility.yul\":1387:1394   */\n  dup6\n    /* \"#utility.yul\":1383:1406   */\n  sub\n    /* \"#utility.yul\":1379:1411   */\n  slt\n    /* \"#utility.yul\":1376:1495   */\n  iszero\n  tag_39\n  jumpi\n    /* \"#utility.yul\":1414:1493   */\n  tag_40\n  tag_10\n  jump\t// in\ntag_40:\n    /* \"#utility.yul\":1376:1495   */\ntag_39:\n    /* \"#utility.yul\":1534:1535   */\n  0x00\n    /* \"#utility.yul\":1559:1631   */\n  tag_41\n    /* \"#utility.yul\":1623:1630   */\n  dup6\n    /* \"#utility.yul\":1614:1620   */\n  dup3\n    /* \"#utility.yul\":1603:1612   */\n  dup7\n    /* \"#utility.yul\":1599:1621   */\n  add\n    /* \"#utility.yul\":1559:1631   */\n  tag_15\n  jump\t// in\ntag_41:\n    /* \"#utility.yul\":1549:1631   */\n  swap3\n  pop\n    /* \"#utility.yul\":1505:1641   */\n  pop\n    /* \"#utility.yul\":1680:1682   */\n  0x20\n    /* \"#utility.yul\":1706:1770   */\n  tag_42\n    /* \"#utility.yul\":1762:1769   */\n  dup6\n    /* \"#utility.yul\":1753:1759   */\n  dup3\n    /* \"#utility.yul\":1742:1751   */\n  dup7\n    /* \"#utility.yul\":1738:1760   */\n  add\n    /* \"#utility.yul\":1706:1770   */\n  tag_18\n  jump\t// in\ntag_42:\n    /* \"#utility.yul\":1696:1770   */\n  swap2\n  pop\n    /* \"#utility.yul\":1651:1780   */\n  pop\n    /* \"#utility.yul\":1264:1787   */\n  swap3\n  pop\n  swap3\n  swap1\n  pop\n  jump\t// out\n    /* \"contracts/TellorOracle.sol\":349:2967  contract TellorOracle is IPriceOracle, UsingTellor {... */\ntag_8:\n  mload(0x80)\n  codecopy(0x00, dataOffset(sub_0), dataSize(sub_0))\n  0x00\n  assignImmutable(\"0x6b3e710f3089a74ecb6b0f5948e5ff07a3db6ba4da475d2be17624ba96b95b\")\n  return(0x00, dataSize(sub_0))\nstop\n\nsub_0: assembly {\n        /* \"contracts/TellorOracle.sol\":349:2967  contract TellorOracle is IPriceOracle, UsingTellor {... */\n      mstore(0x40, 0x80)\n      callvalue\n      dup1\n      iszero\n      tag_1\n      jumpi\n      0x00\n      dup1\n      revert\n    tag_1:\n      pop\n      jumpi(tag_2, lt(calldatasize, 0x04))\n      shr(0xe0, calldataload(0x00))\n      dup1\n      0x77b03e0d\n      gt\n      tag_15\n      jumpi\n      dup1\n      0x77b03e0d\n      eq\n      tag_9\n      jumpi\n      dup1\n      0xa792765f\n      eq\n      tag_10\n      jumpi\n      dup1\n      0xadf1639d\n      eq\n      tag_11\n      jumpi\n      dup1\n      0xc5958af9\n      eq\n      tag_12\n      jumpi\n      dup1\n      0xce5e11bf\n      eq\n      tag_13\n      jumpi\n      dup1\n      0xfc57d4df\n      eq\n      tag_14\n      jumpi\n      jump(tag_2)\n    tag_15:\n      dup1\n      0x06cd702c\n      eq\n      tag_3\n      jumpi\n      dup1\n      0x08a130ab\n      eq\n      tag_4\n      jumpi\n      dup1\n      0x1959ad5b\n      eq\n      tag_5\n      jumpi\n      dup1\n      0x29449085\n      eq\n      tag_6\n      jumpi\n      dup1\n      0x44e87f91\n      eq\n      tag_7\n      jumpi\n      dup1\n      0x4cdf47cc\n      eq\n      tag_8\n      jumpi\n    tag_2:\n      0x00\n      dup1\n      revert\n        /* \"contracts/TellorOracle.sol\":793:1892  function getBundlePrice(address wrapper, uint256 nftId)... */\n    tag_3:\n      tag_16\n      0x04\n      dup1\n      calldatasize\n      sub\n      dup2\n      add\n      swap1\n      tag_17\n      swap2\n      swap1\n      tag_18\n      jump\t// in\n    tag_17:\n      tag_19\n      jump\t// in\n    tag_16:\n      mload(0x40)\n      tag_20\n      swap2\n      swap1\n      tag_21\n      jump\t// in\n    tag_20:\n      mload(0x40)\n      dup1\n      swap2\n      sub\n      swap1\n      return\n        /* \"contracts/TellorOracle.sol\":553:585  address public immutable Wrapper */\n    tag_4:\n      tag_22\n      tag_23\n      jump\t// in\n    tag_22:\n      mload(0x40)\n      tag_24\n      swap2\n      swap1\n      tag_25\n      jump\t// in\n    tag_24:\n      mload(0x40)\n      dup1\n      swap2\n      sub\n      swap1\n      return\n        /* \"usingtellor/contracts/UsingTellor.sol\":274:295  ITellor public tellor */\n    tag_5:\n      tag_26\n      tag_27\n      jump\t// in\n    tag_26:\n      mload(0x40)\n      tag_28\n      swap2\n      swap1\n      tag_29\n      jump\t// in\n    tag_28:\n      mload(0x40)\n      dup1\n      swap2\n      sub\n      swap1\n      return\n        /* \"usingtellor/contracts/UsingTellor.sol\":3013:5168  function getIndexForDataBefore(bytes32 _queryId, uint256 _timestamp)... */\n    tag_6:\n      tag_30\n      0x04\n      dup1\n      calldatasize\n      sub\n      dup2\n      add\n      swap1\n      tag_31\n      swap2\n      swap1\n      tag_32\n      jump\t// in\n    tag_31:\n      tag_33\n      jump\t// in\n    tag_30:\n      mload(0x40)\n      tag_34\n      swap3\n      swap2\n      swap1\n      tag_35\n      jump\t// in\n    tag_34:\n      mload(0x40)\n      dup1\n      swap2\n      sub\n      swap1\n      return\n        /* \"usingtellor/contracts/UsingTellor.sol\":6929:7876  function isInDispute(bytes32 _queryId, uint256 _timestamp)... */\n    tag_7:\n      tag_36\n      0x04\n      dup1\n      calldatasize\n      sub\n      dup2\n      add\n      swap1\n      tag_37\n      swap2\n      swap1\n      tag_32\n      jump\t// in\n    tag_37:\n      tag_38\n      jump\t// in\n    tag_36:\n      mload(0x40)\n      tag_39\n      swap2\n      swap1\n      tag_40\n      jump\t// in\n    tag_39:\n      mload(0x40)\n      dup1\n      swap2\n      sub\n      swap1\n      return\n        /* \"contracts/TellorOracle.sol\":2170:2306  function setMapping(address tokenAddress, string calldata assetName) external {... */\n    tag_8:\n      tag_41\n      0x04\n      dup1\n      calldatasize\n      sub\n      dup2\n      add\n      swap1\n      tag_42\n      swap2\n      swap1\n      tag_43\n      jump\t// in\n    tag_42:\n      tag_44\n      jump\t// in\n    tag_41:\n      stop\n        /* \"usingtellor/contracts/UsingTellor.sol\":5390:5874  function getNewValueCountbyQueryId(bytes32 _queryId)... */\n    tag_9:\n      tag_45\n      0x04\n      dup1\n      calldatasize\n      sub\n      dup2\n      add\n      swap1\n      tag_46\n      swap2\n      swap1\n      tag_47\n      jump\t// in\n    tag_46:\n      tag_48\n      jump\t// in\n    tag_45:\n      mload(0x40)\n      tag_49\n      swap2\n      swap1\n      tag_21\n      jump\t// in\n    tag_49:\n      mload(0x40)\n      dup1\n      swap2\n      sub\n      swap1\n      return\n        /* \"usingtellor/contracts/UsingTellor.sol\":1919:2576  function getDataBefore(bytes32 _queryId, uint256 _timestamp)... */\n    tag_10:\n      tag_50\n      0x04\n      dup1\n      calldatasize\n      sub\n      dup2\n      add\n      swap1\n      tag_51\n      swap2\n      swap1\n      tag_32\n      jump\t// in\n    tag_51:\n      tag_52\n      jump\t// in\n    tag_50:\n      mload(0x40)\n      tag_53\n      swap4\n      swap3\n      swap2\n      swap1\n      tag_54\n      jump\t// in\n    tag_53:\n      mload(0x40)\n      dup1\n      swap2\n      sub\n      swap1\n      return\n        /* \"usingtellor/contracts/UsingTellor.sol\":891:1510  function getCurrentValue(bytes32 _queryId)... */\n    tag_11:\n      tag_55\n      0x04\n      dup1\n      calldatasize\n      sub\n      dup2\n      add\n      swap1\n      tag_56\n      swap2\n      swap1\n      tag_47\n      jump\t// in\n    tag_56:\n      tag_57\n      jump\t// in\n    tag_55:\n      mload(0x40)\n      tag_58\n      swap4\n      swap3\n      swap2\n      swap1\n      tag_54\n      jump\t// in\n    tag_58:\n      mload(0x40)\n      dup1\n      swap2\n      sub\n      swap1\n      return\n        /* \"usingtellor/contracts/UsingTellor.sol\":8113:8618  function retrieveData(bytes32 _queryId, uint256 _timestamp)... */\n    tag_12:\n      tag_59\n      0x04\n      dup1\n      calldatasize\n      sub\n      dup2\n      add\n      swap1\n      tag_60\n      swap2\n      swap1\n      tag_32\n      jump\t// in\n    tag_60:\n      tag_61\n      jump\t// in\n    tag_59:\n      mload(0x40)\n      tag_62\n      swap2\n      swap1\n      tag_63\n      jump\t// in\n    tag_62:\n      mload(0x40)\n      dup1\n      swap2\n      sub\n      swap1\n      return\n        /* \"usingtellor/contracts/UsingTellor.sol\":6108:6636  function getTimestampbyQueryIdandIndex(bytes32 _queryId, uint256 _index)... */\n    tag_13:\n      tag_64\n      0x04\n      dup1\n      calldatasize\n      sub\n      dup2\n      add\n      swap1\n      tag_65\n      swap2\n      swap1\n      tag_32\n      jump\t// in\n    tag_65:\n      tag_66\n      jump\t// in\n    tag_64:\n      mload(0x40)\n      tag_67\n      swap2\n      swap1\n      tag_21\n      jump\t// in\n    tag_67:\n      mload(0x40)\n      dup1\n      swap2\n      sub\n      swap1\n      return\n        /* \"contracts/TellorOracle.sol\":1898:2063  function getUnderlyingPrice(address _underlying)... */\n    tag_14:\n      tag_68\n      0x04\n      dup1\n      calldatasize\n      sub\n      dup2\n      add\n      swap1\n      tag_69\n      swap2\n      swap1\n      tag_70\n      jump\t// in\n    tag_69:\n      tag_71\n      jump\t// in\n    tag_68:\n      mload(0x40)\n      tag_72\n      swap2\n      swap1\n      tag_21\n      jump\t// in\n    tag_72:\n      mload(0x40)\n      dup1\n      swap2\n      sub\n      swap1\n      return\n        /* \"contracts/TellorOracle.sol\":793:1892  function getBundlePrice(address wrapper, uint256 nftId)... */\n    tag_19:\n        /* \"contracts/TellorOracle.sol\":888:895  uint256 */\n      0x00\n        /* \"contracts/TellorOracle.sol\":1003:1010  Wrapper */\n      immutable(\"0x6b3e710f3089a74ecb6b0f5948e5ff07a3db6ba4da475d2be17624ba96b95b\")\n        /* \"contracts/TellorOracle.sol\":992:1010  wrapper != Wrapper */\n      0xffffffffffffffffffffffffffffffffffffffff\n      and\n        /* \"contracts/TellorOracle.sol\":992:999  wrapper */\n      dup4\n        /* \"contracts/TellorOracle.sol\":992:1010  wrapper != Wrapper */\n      0xffffffffffffffffffffffffffffffffffffffff\n      and\n      eq\n        /* \"contracts/TellorOracle.sol\":988:1047  if (wrapper != Wrapper) return _getUnderlyingPrice(wrapper) */\n      tag_74\n      jumpi\n        /* \"contracts/TellorOracle.sol\":1019:1047  _getUnderlyingPrice(wrapper) */\n      tag_75\n        /* \"contracts/TellorOracle.sol\":1039:1046  wrapper */\n      dup4\n        /* \"contracts/TellorOracle.sol\":1019:1038  _getUnderlyingPrice */\n      tag_76\n        /* \"contracts/TellorOracle.sol\":1019:1047  _getUnderlyingPrice(wrapper) */\n      jump\t// in\n    tag_75:\n        /* \"contracts/TellorOracle.sol\":1012:1047  return _getUnderlyingPrice(wrapper) */\n      swap1\n      pop\n      jump(tag_73)\n        /* \"contracts/TellorOracle.sol\":988:1047  if (wrapper != Wrapper) return _getUnderlyingPrice(wrapper) */\n    tag_74:\n        /* \"contracts/TellorOracle.sol\":1057:1080  address[] memory tokens */\n      0x00\n        /* \"contracts/TellorOracle.sol\":1092:1099  wrapper */\n      dup4\n        /* \"contracts/TellorOracle.sol\":1083:1110  IWrapper(wrapper).getTokens */\n      0xffffffffffffffffffffffffffffffffffffffff\n      and\n      0xd3c9cc26\n        /* \"contracts/TellorOracle.sol\":1111:1116  nftId */\n      dup5\n        /* \"contracts/TellorOracle.sol\":1083:1117  IWrapper(wrapper).getTokens(nftId) */\n      mload(0x40)\n      dup3\n      0xffffffff\n      and\n      0xe0\n      shl\n      dup2\n      mstore\n      0x04\n      add\n      tag_77\n      swap2\n      swap1\n      tag_21\n      jump\t// in\n    tag_77:\n      0x00\n      mload(0x40)\n      dup1\n      dup4\n      sub\n      dup2\n      dup7\n      gas\n      staticcall\n      iszero\n      dup1\n      iszero\n      tag_79\n      jumpi\n      returndatasize\n      0x00\n      dup1\n      returndatacopy\n      revert(0x00, returndatasize)\n    tag_79:\n      pop\n      pop\n      pop\n      pop\n      mload(0x40)\n      returndatasize\n      0x00\n      dup3\n      returndatacopy\n      returndatasize\n      not(0x1f)\n      0x1f\n      dup3\n      add\n      and\n      dup3\n      add\n      dup1\n      0x40\n      mstore\n      pop\n      dup2\n      add\n      swap1\n      tag_80\n      swap2\n      swap1\n      tag_81\n      jump\t// in\n    tag_80:\n        /* \"contracts/TellorOracle.sol\":1057:1117  address[] memory tokens = IWrapper(wrapper).getTokens(nftId) */\n      swap1\n      pop\n        /* \"contracts/TellorOracle.sol\":1127:1151  uint256[] memory amounts */\n      0x00\n        /* \"contracts/TellorOracle.sol\":1163:1170  wrapper */\n      dup5\n        /* \"contracts/TellorOracle.sol\":1154:1182  IWrapper(wrapper).getAmounts */\n      0xffffffffffffffffffffffffffffffffffffffff\n      and\n      0x59f7cf50\n        /* \"contracts/TellorOracle.sol\":1183:1188  nftId */\n      dup6\n        /* \"contracts/TellorOracle.sol\":1154:1189  IWrapper(wrapper).getAmounts(nftId) */\n      mload(0x40)\n      dup3\n      0xffffffff\n      and\n      0xe0\n      shl\n      dup2\n      mstore\n      0x04\n      add\n      tag_82\n      swap2\n      swap1\n      tag_21\n      jump\t// in\n    tag_82:\n      0x00\n      mload(0x40)\n      dup1\n      dup4\n      sub\n      dup2\n      dup7\n      gas\n      staticcall\n      iszero\n      dup1\n      iszero\n      tag_84\n      jumpi\n      returndatasize\n      0x00\n      dup1\n      returndatacopy\n      revert(0x00, returndatasize)\n    tag_84:\n      pop\n      pop\n      pop\n      pop\n      mload(0x40)\n      returndatasize\n      0x00\n      dup3\n      returndatacopy\n      returndatasize\n      not(0x1f)\n      0x1f\n      dup3\n      add\n      and\n      dup3\n      add\n      dup1\n      0x40\n      mstore\n      pop\n      dup2\n      add\n      swap1\n      tag_85\n      swap2\n      swap1\n      tag_86\n      jump\t// in\n    tag_85:\n        /* \"contracts/TellorOracle.sol\":1127:1189  uint256[] memory amounts = IWrapper(wrapper).getAmounts(nftId) */\n      swap1\n      pop\n        /* \"contracts/TellorOracle.sol\":1263:1284  uint256 totalPriceUSD */\n      0x00\n        /* \"contracts/TellorOracle.sol\":1315:1329  uint256 length */\n      dup1\n        /* \"contracts/TellorOracle.sol\":1332:1338  tokens */\n      dup4\n        /* \"contracts/TellorOracle.sol\":1332:1345  tokens.length */\n      mload\n        /* \"contracts/TellorOracle.sol\":1315:1345  uint256 length = tokens.length */\n      swap1\n      pop\n        /* \"contracts/TellorOracle.sol\":1361:1370  uint256 i */\n      0x00\n        /* \"contracts/TellorOracle.sol\":1356:1856  for (uint256 i = 0; i < length; i++) {... */\n    tag_87:\n        /* \"contracts/TellorOracle.sol\":1380:1386  length */\n      dup2\n        /* \"contracts/TellorOracle.sol\":1376:1377  i */\n      dup2\n        /* \"contracts/TellorOracle.sol\":1376:1386  i < length */\n      lt\n        /* \"contracts/TellorOracle.sol\":1356:1856  for (uint256 i = 0; i < length; i++) {... */\n      iszero\n      tag_88\n      jumpi\n        /* \"contracts/TellorOracle.sol\":1683:1706  uint256 underlyingPrice */\n      0x00\n        /* \"contracts/TellorOracle.sol\":1709:1739  _getUnderlyingPrice(tokens[i]) */\n      tag_90\n        /* \"contracts/TellorOracle.sol\":1729:1735  tokens */\n      dup7\n        /* \"contracts/TellorOracle.sol\":1736:1737  i */\n      dup4\n        /* \"contracts/TellorOracle.sol\":1729:1738  tokens[i] */\n      dup2\n      mload\n      dup2\n      lt\n      tag_91\n      jumpi\n      tag_92\n      tag_93\n      jump\t// in\n    tag_92:\n    tag_91:\n      0x20\n      mul\n      0x20\n      add\n      add\n      mload\n        /* \"contracts/TellorOracle.sol\":1709:1728  _getUnderlyingPrice */\n      tag_76\n        /* \"contracts/TellorOracle.sol\":1709:1739  _getUnderlyingPrice(tokens[i]) */\n      jump\t// in\n    tag_90:\n        /* \"contracts/TellorOracle.sol\":1683:1739  uint256 underlyingPrice = _getUnderlyingPrice(tokens[i]) */\n      swap1\n      pop\n        /* \"contracts/TellorOracle.sol\":1777:1778  0 */\n      0x00\n        /* \"contracts/TellorOracle.sol\":1758:1773  underlyingPrice */\n      dup2\n        /* \"contracts/TellorOracle.sol\":1758:1778  underlyingPrice == 0 */\n      sub\n        /* \"contracts/TellorOracle.sol\":1754:1845  if (underlyingPrice == 0) {... */\n      tag_94\n      jumpi\n        /* \"contracts/TellorOracle.sol\":1815:1830  underlyingPrice */\n      dup1\n        /* \"contracts/TellorOracle.sol\":1798:1830  totalPriceUSD += underlyingPrice */\n      dup5\n      tag_95\n      swap2\n      swap1\n      tag_96\n      jump\t// in\n    tag_95:\n      swap4\n      pop\n        /* \"contracts/TellorOracle.sol\":1754:1845  if (underlyingPrice == 0) {... */\n    tag_94:\n        /* \"contracts/TellorOracle.sol\":1393:1856  {... */\n      pop\n        /* \"contracts/TellorOracle.sol\":1388:1391  i++ */\n      dup1\n      dup1\n      tag_97\n      swap1\n      tag_98\n      jump\t// in\n    tag_97:\n      swap2\n      pop\n      pop\n        /* \"contracts/TellorOracle.sol\":1356:1856  for (uint256 i = 0; i < length; i++) {... */\n      jump(tag_87)\n    tag_88:\n      pop\n        /* \"contracts/TellorOracle.sol\":1872:1885  totalPriceUSD */\n      dup2\n        /* \"contracts/TellorOracle.sol\":1865:1885  return totalPriceUSD */\n      swap5\n      pop\n      pop\n      pop\n      pop\n      pop\n        /* \"contracts/TellorOracle.sol\":793:1892  function getBundlePrice(address wrapper, uint256 nftId)... */\n    tag_73:\n      swap3\n      swap2\n      pop\n      pop\n      jump\t// out\n        /* \"contracts/TellorOracle.sol\":553:585  address public immutable Wrapper */\n    tag_23:\n      immutable(\"0x6b3e710f3089a74ecb6b0f5948e5ff07a3db6ba4da475d2be17624ba96b95b\")\n      dup2\n      jump\t// out\n        /* \"usingtellor/contracts/UsingTellor.sol\":274:295  ITellor public tellor */\n    tag_27:\n      0x00\n      dup1\n      sload\n      swap1\n      0x0100\n      exp\n      swap1\n      div\n      0xffffffffffffffffffffffffffffffffffffffff\n      and\n      dup2\n      jump\t// out\n        /* \"usingtellor/contracts/UsingTellor.sol\":3013:5168  function getIndexForDataBefore(bytes32 _queryId, uint256 _timestamp)... */\n    tag_33:\n        /* \"usingtellor/contracts/UsingTellor.sol\":3127:3138  bool _found */\n      0x00\n        /* \"usingtellor/contracts/UsingTellor.sol\":3140:3154  uint256 _index */\n      dup1\n        /* \"usingtellor/contracts/UsingTellor.sol\":3170:3184  uint256 _count */\n      0x00\n        /* \"usingtellor/contracts/UsingTellor.sol\":3187:3222  getNewValueCountbyQueryId(_queryId) */\n      tag_100\n        /* \"usingtellor/contracts/UsingTellor.sol\":3213:3221  _queryId */\n      dup6\n        /* \"usingtellor/contracts/UsingTellor.sol\":3187:3212  getNewValueCountbyQueryId */\n      tag_48\n        /* \"usingtellor/contracts/UsingTellor.sol\":3187:3222  getNewValueCountbyQueryId(_queryId) */\n      jump\t// in\n    tag_100:\n        /* \"usingtellor/contracts/UsingTellor.sol\":3170:3222  uint256 _count = getNewValueCountbyQueryId(_queryId) */\n      swap1\n      pop\n        /* \"usingtellor/contracts/UsingTellor.sol\":3246:3247  0 */\n      0x00\n        /* \"usingtellor/contracts/UsingTellor.sol\":3237:3243  _count */\n      dup2\n        /* \"usingtellor/contracts/UsingTellor.sol\":3237:3247  _count > 0 */\n      gt\n        /* \"usingtellor/contracts/UsingTellor.sol\":3233:5135  if (_count > 0) {... */\n      iszero\n      tag_101\n      jumpi\n        /* \"usingtellor/contracts/UsingTellor.sol\":3263:3277  uint256 middle */\n      0x00\n        /* \"usingtellor/contracts/UsingTellor.sol\":3291:3304  uint256 start */\n      dup1\n        /* \"usingtellor/contracts/UsingTellor.sol\":3307:3308  0 */\n      0x00\n        /* \"usingtellor/contracts/UsingTellor.sol\":3291:3308  uint256 start = 0 */\n      swap1\n      pop\n        /* \"usingtellor/contracts/UsingTellor.sol\":3322:3333  uint256 end */\n      0x00\n        /* \"usingtellor/contracts/UsingTellor.sol\":3345:3346  1 */\n      0x01\n        /* \"usingtellor/contracts/UsingTellor.sol\":3336:3342  _count */\n      dup5\n        /* \"usingtellor/contracts/UsingTellor.sol\":3336:3346  _count - 1 */\n      tag_102\n      swap2\n      swap1\n      tag_103\n      jump\t// in\n    tag_102:\n        /* \"usingtellor/contracts/UsingTellor.sol\":3322:3346  uint256 end = _count - 1 */\n      swap1\n      pop\n        /* \"usingtellor/contracts/UsingTellor.sol\":3360:3373  uint256 _time */\n      0x00\n        /* \"usingtellor/contracts/UsingTellor.sol\":3461:3507  getTimestampbyQueryIdandIndex(_queryId, start) */\n      tag_104\n        /* \"usingtellor/contracts/UsingTellor.sol\":3491:3499  _queryId */\n      dup10\n        /* \"usingtellor/contracts/UsingTellor.sol\":3501:3506  start */\n      dup5\n        /* \"usingtellor/contracts/UsingTellor.sol\":3461:3490  getTimestampbyQueryIdandIndex */\n      tag_66\n        /* \"usingtellor/contracts/UsingTellor.sol\":3461:3507  getTimestampbyQueryIdandIndex(_queryId, start) */\n      jump\t// in\n    tag_104:\n        /* \"usingtellor/contracts/UsingTellor.sol\":3453:3507  _time = getTimestampbyQueryIdandIndex(_queryId, start) */\n      swap1\n      pop\n        /* \"usingtellor/contracts/UsingTellor.sol\":3534:3544  _timestamp */\n      dup8\n        /* \"usingtellor/contracts/UsingTellor.sol\":3525:3530  _time */\n      dup2\n        /* \"usingtellor/contracts/UsingTellor.sol\":3525:3544  _time >= _timestamp */\n      lt\n        /* \"usingtellor/contracts/UsingTellor.sol\":3521:3563  if (_time >= _timestamp) return (false, 0) */\n      tag_105\n      jumpi\n        /* \"usingtellor/contracts/UsingTellor.sol\":3554:3559  false */\n      0x00\n        /* \"usingtellor/contracts/UsingTellor.sol\":3561:3562  0 */\n      dup1\n        /* \"usingtellor/contracts/UsingTellor.sol\":3546:3563  return (false, 0) */\n      swap7\n      pop\n      swap7\n      pop\n      pop\n      pop\n      pop\n      pop\n      pop\n      jump(tag_99)\n        /* \"usingtellor/contracts/UsingTellor.sol\":3521:3563  if (_time >= _timestamp) return (false, 0) */\n    tag_105:\n        /* \"usingtellor/contracts/UsingTellor.sol\":3585:3629  getTimestampbyQueryIdandIndex(_queryId, end) */\n      tag_106\n        /* \"usingtellor/contracts/UsingTellor.sol\":3615:3623  _queryId */\n      dup10\n        /* \"usingtellor/contracts/UsingTellor.sol\":3625:3628  end */\n      dup4\n        /* \"usingtellor/contracts/UsingTellor.sol\":3585:3614  getTimestampbyQueryIdandIndex */\n      tag_66\n        /* \"usingtellor/contracts/UsingTellor.sol\":3585:3629  getTimestampbyQueryIdandIndex(_queryId, end) */\n      jump\t// in\n    tag_106:\n        /* \"usingtellor/contracts/UsingTellor.sol\":3577:3629  _time = getTimestampbyQueryIdandIndex(_queryId, end) */\n      swap1\n      pop\n        /* \"usingtellor/contracts/UsingTellor.sol\":3655:3665  _timestamp */\n      dup8\n        /* \"usingtellor/contracts/UsingTellor.sol\":3647:3652  _time */\n      dup2\n        /* \"usingtellor/contracts/UsingTellor.sol\":3647:3665  _time < _timestamp */\n      lt\n        /* \"usingtellor/contracts/UsingTellor.sol\":3643:3685  if (_time < _timestamp) return (true, end) */\n      iszero\n      tag_107\n      jumpi\n        /* \"usingtellor/contracts/UsingTellor.sol\":3675:3679  true */\n      0x01\n        /* \"usingtellor/contracts/UsingTellor.sol\":3681:3684  end */\n      dup3\n        /* \"usingtellor/contracts/UsingTellor.sol\":3667:3685  return (true, end) */\n      swap7\n      pop\n      swap7\n      pop\n      pop\n      pop\n      pop\n      pop\n      pop\n      jump(tag_99)\n        /* \"usingtellor/contracts/UsingTellor.sol\":3643:3685  if (_time < _timestamp) return (true, end) */\n    tag_107:\n        /* \"usingtellor/contracts/UsingTellor.sol\":3775:5125  while (true) {... */\n    tag_108:\n        /* \"usingtellor/contracts/UsingTellor.sol\":3782:3786  true */\n      0x01\n        /* \"usingtellor/contracts/UsingTellor.sol\":3775:5125  while (true) {... */\n      iszero\n      tag_109\n      jumpi\n        /* \"usingtellor/contracts/UsingTellor.sol\":3839:3844  start */\n      dup3\n        /* \"usingtellor/contracts/UsingTellor.sol\":3835:3836  1 */\n      0x01\n        /* \"usingtellor/contracts/UsingTellor.sol\":3831:3832  2 */\n      0x02\n        /* \"usingtellor/contracts/UsingTellor.sol\":3822:3827  start */\n      dup6\n        /* \"usingtellor/contracts/UsingTellor.sol\":3816:3819  end */\n      dup6\n        /* \"usingtellor/contracts/UsingTellor.sol\":3816:3827  end - start */\n      tag_110\n      swap2\n      swap1\n      tag_103\n      jump\t// in\n    tag_110:\n        /* \"usingtellor/contracts/UsingTellor.sol\":3815:3832  (end - start) / 2 */\n      tag_111\n      swap2\n      swap1\n      tag_112\n      jump\t// in\n    tag_111:\n        /* \"usingtellor/contracts/UsingTellor.sol\":3815:3836  (end - start) / 2 + 1 */\n      tag_113\n      swap2\n      swap1\n      tag_96\n      jump\t// in\n    tag_113:\n        /* \"usingtellor/contracts/UsingTellor.sol\":3815:3844  (end - start) / 2 + 1 + start */\n      tag_114\n      swap2\n      swap1\n      tag_96\n      jump\t// in\n    tag_114:\n        /* \"usingtellor/contracts/UsingTellor.sol\":3806:3844  middle = (end - start) / 2 + 1 + start */\n      swap4\n      pop\n        /* \"usingtellor/contracts/UsingTellor.sol\":3870:3917  getTimestampbyQueryIdandIndex(_queryId, middle) */\n      tag_115\n        /* \"usingtellor/contracts/UsingTellor.sol\":3900:3908  _queryId */\n      dup10\n        /* \"usingtellor/contracts/UsingTellor.sol\":3910:3916  middle */\n      dup6\n        /* \"usingtellor/contracts/UsingTellor.sol\":3870:3899  getTimestampbyQueryIdandIndex */\n      tag_66\n        /* \"usingtellor/contracts/UsingTellor.sol\":3870:3917  getTimestampbyQueryIdandIndex(_queryId, middle) */\n      jump\t// in\n    tag_115:\n        /* \"usingtellor/contracts/UsingTellor.sol\":3862:3917  _time = getTimestampbyQueryIdandIndex(_queryId, middle) */\n      swap1\n      pop\n        /* \"usingtellor/contracts/UsingTellor.sol\":3947:3957  _timestamp */\n      dup8\n        /* \"usingtellor/contracts/UsingTellor.sol\":3939:3944  _time */\n      dup2\n        /* \"usingtellor/contracts/UsingTellor.sol\":3939:3957  _time < _timestamp */\n      lt\n        /* \"usingtellor/contracts/UsingTellor.sol\":3935:4987  if (_time < _timestamp) {... */\n      iszero\n      tag_116\n      jumpi\n        /* \"usingtellor/contracts/UsingTellor.sol\":4028:4045  uint256 _nextTime */\n      0x00\n        /* \"usingtellor/contracts/UsingTellor.sol\":4048:4169  getTimestampbyQueryIdandIndex(... */\n      tag_117\n        /* \"usingtellor/contracts/UsingTellor.sol\":4103:4111  _queryId */\n      dup11\n        /* \"usingtellor/contracts/UsingTellor.sol\":4146:4147  1 */\n      0x01\n        /* \"usingtellor/contracts/UsingTellor.sol\":4137:4143  middle */\n      dup8\n        /* \"usingtellor/contracts/UsingTellor.sol\":4137:4147  middle + 1 */\n      tag_118\n      swap2\n      swap1\n      tag_96\n      jump\t// in\n    tag_118:\n        /* \"usingtellor/contracts/UsingTellor.sol\":4048:4077  getTimestampbyQueryIdandIndex */\n      tag_66\n        /* \"usingtellor/contracts/UsingTellor.sol\":4048:4169  getTimestampbyQueryIdandIndex(... */\n      jump\t// in\n    tag_117:\n        /* \"usingtellor/contracts/UsingTellor.sol\":4028:4169  uint256 _nextTime = getTimestampbyQueryIdandIndex(... */\n      swap1\n      pop\n        /* \"usingtellor/contracts/UsingTellor.sol\":4208:4218  _timestamp */\n      dup9\n        /* \"usingtellor/contracts/UsingTellor.sol\":4195:4204  _nextTime */\n      dup2\n        /* \"usingtellor/contracts/UsingTellor.sol\":4195:4218  _nextTime >= _timestamp */\n      lt\n        /* \"usingtellor/contracts/UsingTellor.sol\":4191:4472  if (_nextTime >= _timestamp) {... */\n      tag_119\n      jumpi\n        /* \"usingtellor/contracts/UsingTellor.sol\":4297:4301  true */\n      0x01\n        /* \"usingtellor/contracts/UsingTellor.sol\":4303:4309  middle */\n      dup6\n        /* \"usingtellor/contracts/UsingTellor.sol\":4289:4310  return (true, middle) */\n      swap8\n      pop\n      swap8\n      pop\n      pop\n      pop\n      pop\n      pop\n      pop\n      pop\n      jump(tag_99)\n        /* \"usingtellor/contracts/UsingTellor.sol\":4191:4472  if (_nextTime >= _timestamp) {... */\n    tag_119:\n        /* \"usingtellor/contracts/UsingTellor.sol\":4448:4449  1 */\n      0x01\n        /* \"usingtellor/contracts/UsingTellor.sol\":4439:4445  middle */\n      dup6\n        /* \"usingtellor/contracts/UsingTellor.sol\":4439:4449  middle + 1 */\n      tag_121\n      swap2\n      swap1\n      tag_96\n      jump\t// in\n    tag_121:\n        /* \"usingtellor/contracts/UsingTellor.sol\":4431:4449  start = middle + 1 */\n      swap4\n      pop\n        /* \"usingtellor/contracts/UsingTellor.sol\":3959:4490  {... */\n      pop\n        /* \"usingtellor/contracts/UsingTellor.sol\":3935:4987  if (_time < _timestamp) {... */\n      jump(tag_122)\n    tag_116:\n        /* \"usingtellor/contracts/UsingTellor.sol\":4518:4535  uint256 _prevTime */\n      0x00\n        /* \"usingtellor/contracts/UsingTellor.sol\":4538:4659  getTimestampbyQueryIdandIndex(... */\n      tag_123\n        /* \"usingtellor/contracts/UsingTellor.sol\":4593:4601  _queryId */\n      dup11\n        /* \"usingtellor/contracts/UsingTellor.sol\":4636:4637  1 */\n      0x01\n        /* \"usingtellor/contracts/UsingTellor.sol\":4627:4633  middle */\n      dup8\n        /* \"usingtellor/contracts/UsingTellor.sol\":4627:4637  middle - 1 */\n      tag_124\n      swap2\n      swap1\n      tag_103\n      jump\t// in\n    tag_124:\n        /* \"usingtellor/contracts/UsingTellor.sol\":4538:4567  getTimestampbyQueryIdandIndex */\n      tag_66\n        /* \"usingtellor/contracts/UsingTellor.sol\":4538:4659  getTimestampbyQueryIdandIndex(... */\n      jump\t// in\n    tag_123:\n        /* \"usingtellor/contracts/UsingTellor.sol\":4518:4659  uint256 _prevTime = getTimestampbyQueryIdandIndex(... */\n      swap1\n      pop\n        /* \"usingtellor/contracts/UsingTellor.sol\":4697:4707  _timestamp */\n      dup9\n        /* \"usingtellor/contracts/UsingTellor.sol\":4685:4694  _prevTime */\n      dup2\n        /* \"usingtellor/contracts/UsingTellor.sol\":4685:4707  _prevTime < _timestamp */\n      lt\n        /* \"usingtellor/contracts/UsingTellor.sol\":4681:4969  if (_prevTime < _timestamp) {... */\n      iszero\n      tag_125\n      jumpi\n        /* \"usingtellor/contracts/UsingTellor.sol\":4791:4795  true */\n      0x01\n        /* \"usingtellor/contracts/UsingTellor.sol\":4806:4807  1 */\n      dup1\n        /* \"usingtellor/contracts/UsingTellor.sol\":4797:4803  middle */\n      dup7\n        /* \"usingtellor/contracts/UsingTellor.sol\":4797:4807  middle - 1 */\n      tag_126\n      swap2\n      swap1\n      tag_103\n      jump\t// in\n    tag_126:\n        /* \"usingtellor/contracts/UsingTellor.sol\":4783:4808  return (true, middle - 1) */\n      swap8\n      pop\n      swap8\n      pop\n      pop\n      pop\n      pop\n      pop\n      pop\n      pop\n      jump(tag_99)\n        /* \"usingtellor/contracts/UsingTellor.sol\":4681:4969  if (_prevTime < _timestamp) {... */\n    tag_125:\n        /* \"usingtellor/contracts/UsingTellor.sol\":4945:4946  1 */\n      0x01\n        /* \"usingtellor/contracts/UsingTellor.sol\":4936:4942  middle */\n      dup6\n        /* \"usingtellor/contracts/UsingTellor.sol\":4936:4946  middle - 1 */\n      tag_128\n      swap2\n      swap1\n      tag_103\n      jump\t// in\n    tag_128:\n        /* \"usingtellor/contracts/UsingTellor.sol\":4930:4946  end = middle - 1 */\n      swap3\n      pop\n        /* \"usingtellor/contracts/UsingTellor.sol\":4496:4987  {... */\n      pop\n        /* \"usingtellor/contracts/UsingTellor.sol\":3935:4987  if (_time < _timestamp) {... */\n    tag_122:\n        /* \"usingtellor/contracts/UsingTellor.sol\":3775:5125  while (true) {... */\n      jump(tag_108)\n    tag_109:\n        /* \"usingtellor/contracts/UsingTellor.sol\":3249:5135  {... */\n      pop\n      pop\n      pop\n      pop\n        /* \"usingtellor/contracts/UsingTellor.sol\":3233:5135  if (_count > 0) {... */\n    tag_101:\n        /* \"usingtellor/contracts/UsingTellor.sol\":5152:5157  false */\n      0x00\n        /* \"usingtellor/contracts/UsingTellor.sol\":5159:5160  0 */\n      dup1\n        /* \"usingtellor/contracts/UsingTellor.sol\":5144:5161  return (false, 0) */\n      swap3\n      pop\n      swap3\n      pop\n      pop\n        /* \"usingtellor/contracts/UsingTellor.sol\":3013:5168  function getIndexForDataBefore(bytes32 _queryId, uint256 _timestamp)... */\n    tag_99:\n      swap3\n      pop\n      swap3\n      swap1\n      pop\n      jump\t// out\n        /* \"usingtellor/contracts/UsingTellor.sol\":6929:7876  function isInDispute(bytes32 _queryId, uint256 _timestamp)... */\n    tag_38:\n        /* \"usingtellor/contracts/UsingTellor.sol\":7033:7037  bool */\n      0x00\n        /* \"usingtellor/contracts/UsingTellor.sol\":7053:7072  ITellor _governance */\n      dup1\n        /* \"usingtellor/contracts/UsingTellor.sol\":7158:7200  0x18431fd88adF138e8b979A7246eb58EA7126ea16 */\n      0x18431fd88adf138e8b979a7246eb58ea7126ea16\n        /* \"usingtellor/contracts/UsingTellor.sol\":7140:7201  tellor == ITellor(0x18431fd88adF138e8b979A7246eb58EA7126ea16) */\n      0xffffffffffffffffffffffffffffffffffffffff\n      and\n        /* \"usingtellor/contracts/UsingTellor.sol\":7140:7146  tellor */\n      0x00\n      dup1\n      sload\n      swap1\n      0x0100\n      exp\n      swap1\n      div\n      0xffffffffffffffffffffffffffffffffffffffff\n      and\n        /* \"usingtellor/contracts/UsingTellor.sol\":7140:7201  tellor == ITellor(0x18431fd88adF138e8b979A7246eb58EA7126ea16) */\n      0xffffffffffffffffffffffffffffffffffffffff\n      and\n      eq\n        /* \"usingtellor/contracts/UsingTellor.sol\":7140:7278  tellor == ITellor(0x18431fd88adF138e8b979A7246eb58EA7126ea16) ||... */\n      dup1\n      tag_130\n      jumpi\n      pop\n        /* \"usingtellor/contracts/UsingTellor.sol\":7235:7277  0xe8218cACb0a5421BC6409e498d9f8CC8869945ea */\n      0xe8218cacb0a5421bc6409e498d9f8cc8869945ea\n        /* \"usingtellor/contracts/UsingTellor.sol\":7217:7278  tellor == ITellor(0xe8218cACb0a5421BC6409e498d9f8CC8869945ea) */\n      0xffffffffffffffffffffffffffffffffffffffff\n      and\n        /* \"usingtellor/contracts/UsingTellor.sol\":7217:7223  tellor */\n      0x00\n      dup1\n      sload\n      swap1\n      0x0100\n      exp\n      swap1\n      div\n      0xffffffffffffffffffffffffffffffffffffffff\n      and\n        /* \"usingtellor/contracts/UsingTellor.sol\":7217:7278  tellor == ITellor(0xe8218cACb0a5421BC6409e498d9f8CC8869945ea) */\n      0xffffffffffffffffffffffffffffffffffffffff\n      and\n      eq\n        /* \"usingtellor/contracts/UsingTellor.sol\":7140:7278  tellor == ITellor(0x18431fd88adF138e8b979A7246eb58EA7126ea16) ||... */\n    tag_130:\n        /* \"usingtellor/contracts/UsingTellor.sol\":7123:7682  if (... */\n      iszero\n      tag_131\n      jumpi\n        /* \"usingtellor/contracts/UsingTellor.sol\":7303:7321  ITellor _newTellor */\n      0x00\n        /* \"usingtellor/contracts/UsingTellor.sol\":7349:7391  0x88dF592F8eb5D7Bd38bFeF7dEb0fBc02cf3778a0 */\n      0x88df592f8eb5d7bd38bfef7deb0fbc02cf3778a0\n        /* \"usingtellor/contracts/UsingTellor.sol\":7303:7405  ITellor _newTellor = ITellor(... */\n      swap1\n      pop\n        /* \"usingtellor/contracts/UsingTellor.sol\":7458:7468  _newTellor */\n      dup1\n        /* \"usingtellor/contracts/UsingTellor.sol\":7458:7478  _newTellor.addresses */\n      0xffffffffffffffffffffffffffffffffffffffff\n      and\n      0x699f200f\n        /* \"usingtellor/contracts/UsingTellor.sol\":7500:7566  0xefa19baa864049f50491093580c5433e97e8d5e41f8db1a61108b4fa44cacd93 */\n      0xefa19baa864049f50491093580c5433e97e8d5e41f8db1a61108b4fa44cacd93\n        /* \"usingtellor/contracts/UsingTellor.sol\":7458:7584  _newTellor.addresses(... */\n      mload(0x40)\n      dup3\n      0xffffffff\n      and\n      0xe0\n      shl\n      dup2\n      mstore\n      0x04\n      add\n      tag_132\n      swap2\n      swap1\n      tag_133\n      jump\t// in\n    tag_132:\n      0x20\n      mload(0x40)\n      dup1\n      dup4\n      sub\n      dup2\n      dup7\n      gas\n      staticcall\n      iszero\n      dup1\n      iszero\n      tag_135\n      jumpi\n      returndatasize\n      0x00\n      dup1\n      returndatacopy\n      revert(0x00, returndatasize)\n    tag_135:\n      pop\n      pop\n      pop\n      pop\n      mload(0x40)\n      returndatasize\n      not(0x1f)\n      0x1f\n      dup3\n      add\n      and\n      dup3\n      add\n      dup1\n      0x40\n      mstore\n      pop\n      dup2\n      add\n      swap1\n      tag_136\n      swap2\n      swap1\n      tag_137\n      jump\t// in\n    tag_136:\n        /* \"usingtellor/contracts/UsingTellor.sol\":7419:7598  _governance = ITellor(... */\n      swap2\n      pop\n        /* \"usingtellor/contracts/UsingTellor.sol\":7289:7609  {... */\n      pop\n        /* \"usingtellor/contracts/UsingTellor.sol\":7123:7682  if (... */\n      jump(tag_138)\n    tag_131:\n        /* \"usingtellor/contracts/UsingTellor.sol\":7651:7657  tellor */\n      0x00\n      dup1\n      sload\n      swap1\n      0x0100\n      exp\n      swap1\n      div\n      0xffffffffffffffffffffffffffffffffffffffff\n      and\n        /* \"usingtellor/contracts/UsingTellor.sol\":7651:7668  tellor.governance */\n      0xffffffffffffffffffffffffffffffffffffffff\n      and\n      0x5aa6e675\n        /* \"usingtellor/contracts/UsingTellor.sol\":7651:7670  tellor.governance() */\n      mload(0x40)\n      dup2\n      0xffffffff\n      and\n      0xe0\n      shl\n      dup2\n      mstore\n      0x04\n      add\n      0x20\n      mload(0x40)\n      dup1\n      dup4\n      sub\n      dup2\n      dup7\n      gas\n      staticcall\n      iszero\n      dup1\n      iszero\n      tag_140\n      jumpi\n      returndatasize\n      0x00\n      dup1\n      returndatacopy\n      revert(0x00, returndatasize)\n    tag_140:\n      pop\n      pop\n      pop\n      pop\n      mload(0x40)\n      returndatasize\n      not(0x1f)\n      0x1f\n      dup3\n      add\n      and\n      dup3\n      add\n      dup1\n      0x40\n      mstore\n      pop\n      dup2\n      add\n      swap1\n      tag_141\n      swap2\n      swap1\n      tag_137\n      jump\t// in\n    tag_141:\n        /* \"usingtellor/contracts/UsingTellor.sol\":7629:7671  _governance = ITellor(tellor.governance()) */\n      swap1\n      pop\n        /* \"usingtellor/contracts/UsingTellor.sol\":7123:7682  if (... */\n    tag_138:\n        /* \"usingtellor/contracts/UsingTellor.sol\":7868:7869  0 */\n      0x00\n        /* \"usingtellor/contracts/UsingTellor.sol\":7710:7721  _governance */\n      dup2\n        /* \"usingtellor/contracts/UsingTellor.sol\":7710:7752  _governance... */\n      0xffffffffffffffffffffffffffffffffffffffff\n      and\n      0x248638e5\n        /* \"usingtellor/contracts/UsingTellor.sol\":7801:7809  _queryId */\n      dup7\n        /* \"usingtellor/contracts/UsingTellor.sol\":7811:7821  _timestamp */\n      dup7\n        /* \"usingtellor/contracts/UsingTellor.sol\":7784:7822  abi.encodePacked(_queryId, _timestamp) */\n      add(0x20, mload(0x40))\n      tag_142\n      swap3\n      swap2\n      swap1\n      tag_143\n      jump\t// in\n    tag_142:\n      mload(0x40)\n      0x20\n      dup2\n      dup4\n      sub\n      sub\n      dup2\n      mstore\n      swap1\n      0x40\n      mstore\n        /* \"usingtellor/contracts/UsingTellor.sol\":7774:7823  keccak256(abi.encodePacked(_queryId, _timestamp)) */\n      dup1\n      mload\n      swap1\n      0x20\n      add\n      keccak256\n        /* \"usingtellor/contracts/UsingTellor.sol\":7710:7841  _governance... */\n      mload(0x40)\n      dup3\n      0xffffffff\n      and\n      0xe0\n      shl\n      dup2\n      mstore\n      0x04\n      add\n      tag_144\n      swap2\n      swap1\n      tag_145\n      jump\t// in\n    tag_144:\n      0x00\n      mload(0x40)\n      dup1\n      dup4\n      sub\n      dup2\n      dup7\n      gas\n      staticcall\n      iszero\n      dup1\n      iszero\n      tag_147\n      jumpi\n      returndatasize\n      0x00\n      dup1\n      returndatacopy\n      revert(0x00, returndatasize)\n    tag_147:\n      pop\n      pop\n      pop\n      pop\n      mload(0x40)\n      returndatasize\n      0x00\n      dup3\n      returndatacopy\n      returndatasize\n      not(0x1f)\n      0x1f\n      dup3\n      add\n      and\n      dup3\n      add\n      dup1\n      0x40\n      mstore\n      pop\n      dup2\n      add\n      swap1\n      tag_148\n      swap2\n      swap1\n      tag_86\n      jump\t// in\n    tag_148:\n        /* \"usingtellor/contracts/UsingTellor.sol\":7710:7865  _governance... */\n      mload\n        /* \"usingtellor/contracts/UsingTellor.sol\":7710:7869  _governance... */\n      gt\n        /* \"usingtellor/contracts/UsingTellor.sol\":7691:7869  return... */\n      swap2\n      pop\n      pop\n        /* \"usingtellor/contracts/UsingTellor.sol\":6929:7876  function isInDispute(bytes32 _queryId, uint256 _timestamp)... */\n      swap3\n      swap2\n      pop\n      pop\n      jump\t// out\n        /* \"contracts/TellorOracle.sol\":2170:2306  function setMapping(address tokenAddress, string calldata assetName) external {... */\n    tag_44:\n        /* \"contracts/TellorOracle.sol\":2290:2299  assetName */\n      dup2\n      dup2\n        /* \"contracts/TellorOracle.sol\":2258:2273  tAddressMapping */\n      0x01\n        /* \"contracts/TellorOracle.sol\":2258:2287  tAddressMapping[tokenAddress] */\n      0x00\n        /* \"contracts/TellorOracle.sol\":2274:2286  tokenAddress */\n      dup7\n        /* \"contracts/TellorOracle.sol\":2258:2287  tAddressMapping[tokenAddress] */\n      0xffffffffffffffffffffffffffffffffffffffff\n      and\n      0xffffffffffffffffffffffffffffffffffffffff\n      and\n      dup2\n      mstore\n      0x20\n      add\n      swap1\n      dup2\n      mstore\n      0x20\n      add\n      0x00\n      keccak256\n        /* \"contracts/TellorOracle.sol\":2258:2299  tAddressMapping[tokenAddress] = assetName */\n      swap2\n      dup3\n      tag_150\n      swap3\n      swap2\n      swap1\n      tag_151\n      jump\t// in\n    tag_150:\n      pop\n        /* \"contracts/TellorOracle.sol\":2170:2306  function setMapping(address tokenAddress, string calldata assetName) external {... */\n      pop\n      pop\n      pop\n      jump\t// out\n        /* \"usingtellor/contracts/UsingTellor.sol\":5390:5874  function getNewValueCountbyQueryId(bytes32 _queryId)... */\n    tag_48:\n        /* \"usingtellor/contracts/UsingTellor.sol\":5488:5495  uint256 */\n      0x00\n        /* \"usingtellor/contracts/UsingTellor.sol\":5587:5629  0x18431fd88adF138e8b979A7246eb58EA7126ea16 */\n      0x18431fd88adf138e8b979a7246eb58ea7126ea16\n        /* \"usingtellor/contracts/UsingTellor.sol\":5569:5630  tellor == ITellor(0x18431fd88adF138e8b979A7246eb58EA7126ea16) */\n      0xffffffffffffffffffffffffffffffffffffffff\n      and\n        /* \"usingtellor/contracts/UsingTellor.sol\":5569:5575  tellor */\n      0x00\n      dup1\n      sload\n      swap1\n      0x0100\n      exp\n      swap1\n      div\n      0xffffffffffffffffffffffffffffffffffffffff\n      and\n        /* \"usingtellor/contracts/UsingTellor.sol\":5569:5630  tellor == ITellor(0x18431fd88adF138e8b979A7246eb58EA7126ea16) */\n      0xffffffffffffffffffffffffffffffffffffffff\n      and\n      eq\n        /* \"usingtellor/contracts/UsingTellor.sol\":5569:5707  tellor == ITellor(0x18431fd88adF138e8b979A7246eb58EA7126ea16) ||... */\n      dup1\n      tag_153\n      jumpi\n      pop\n        /* \"usingtellor/contracts/UsingTellor.sol\":5664:5706  0xe8218cACb0a5421BC6409e498d9f8CC8869945ea */\n      0xe8218cacb0a5421bc6409e498d9f8cc8869945ea\n        /* \"usingtellor/contracts/UsingTellor.sol\":5646:5707  tellor == ITellor(0xe8218cACb0a5421BC6409e498d9f8CC8869945ea) */\n      0xffffffffffffffffffffffffffffffffffffffff\n      and\n        /* \"usingtellor/contracts/UsingTellor.sol\":5646:5652  tellor */\n      0x00\n      dup1\n      sload\n      swap1\n      0x0100\n      exp\n      swap1\n      div\n      0xffffffffffffffffffffffffffffffffffffffff\n      and\n        /* \"usingtellor/contracts/UsingTellor.sol\":5646:5707  tellor == ITellor(0xe8218cACb0a5421BC6409e498d9f8CC8869945ea) */\n      0xffffffffffffffffffffffffffffffffffffffff\n      and\n      eq\n        /* \"usingtellor/contracts/UsingTellor.sol\":5569:5707  tellor == ITellor(0x18431fd88adF138e8b979A7246eb58EA7126ea16) ||... */\n    tag_153:\n        /* \"usingtellor/contracts/UsingTellor.sol\":5552:5868  if (... */\n      iszero\n      tag_154\n      jumpi\n        /* \"usingtellor/contracts/UsingTellor.sol\":5739:5745  tellor */\n      0x00\n      dup1\n      sload\n      swap1\n      0x0100\n      exp\n      swap1\n      div\n      0xffffffffffffffffffffffffffffffffffffffff\n      and\n        /* \"usingtellor/contracts/UsingTellor.sol\":5739:5767  tellor.getTimestampCountById */\n      0xffffffffffffffffffffffffffffffffffffffff\n      and\n      0x35e72432\n        /* \"usingtellor/contracts/UsingTellor.sol\":5768:5776  _queryId */\n      dup4\n        /* \"usingtellor/contracts/UsingTellor.sol\":5739:5777  tellor.getTimestampCountById(_queryId) */\n      mload(0x40)\n      dup3\n      0xffffffff\n      and\n      0xe0\n      shl\n      dup2\n      mstore\n      0x04\n      add\n      tag_155\n      swap2\n      swap1\n      tag_145\n      jump\t// in\n    tag_155:\n      0x20\n      mload(0x40)\n      dup1\n      dup4\n      sub\n      dup2\n      dup7\n      gas\n      staticcall\n      iszero\n      dup1\n      iszero\n      tag_157\n      jumpi\n      returndatasize\n      0x00\n      dup1\n      returndatacopy\n      revert(0x00, returndatasize)\n    tag_157:\n      pop\n      pop\n      pop\n      pop\n      mload(0x40)\n      returndatasize\n      not(0x1f)\n      0x1f\n      dup3\n      add\n      and\n      dup3\n      add\n      dup1\n      0x40\n      mstore\n      pop\n      dup2\n      add\n      swap1\n      tag_158\n      swap2\n      swap1\n      tag_159\n      jump\t// in\n    tag_158:\n        /* \"usingtellor/contracts/UsingTellor.sol\":5732:5777  return tellor.getTimestampCountById(_queryId) */\n      swap1\n      pop\n      jump(tag_152)\n        /* \"usingtellor/contracts/UsingTellor.sol\":5552:5868  if (... */\n    tag_154:\n        /* \"usingtellor/contracts/UsingTellor.sol\":5815:5821  tellor */\n      0x00\n      dup1\n      sload\n      swap1\n      0x0100\n      exp\n      swap1\n      div\n      0xffffffffffffffffffffffffffffffffffffffff\n      and\n        /* \"usingtellor/contracts/UsingTellor.sol\":5815:5847  tellor.getNewValueCountbyQueryId */\n      0xffffffffffffffffffffffffffffffffffffffff\n      and\n      0x77b03e0d\n        /* \"usingtellor/contracts/UsingTellor.sol\":5848:5856  _queryId */\n      dup4\n        /* \"usingtellor/contracts/UsingTellor.sol\":5815:5857  tellor.getNewValueCountbyQueryId(_queryId) */\n      mload(0x40)\n      dup3\n      0xffffffff\n      and\n      0xe0\n      shl\n      dup2\n      mstore\n      0x04\n      add\n      tag_161\n      swap2\n      swap1\n      tag_145\n      jump\t// in\n    tag_161:\n      0x20\n      mload(0x40)\n      dup1\n      dup4\n      sub\n      dup2\n      dup7\n      gas\n      staticcall\n      iszero\n      dup1\n      iszero\n      tag_163\n      jumpi\n      returndatasize\n      0x00\n      dup1\n      returndatacopy\n      revert(0x00, returndatasize)\n    tag_163:\n      pop\n      pop\n      pop\n      pop\n      mload(0x40)\n      returndatasize\n      not(0x1f)\n      0x1f\n      dup3\n      add\n      and\n      dup3\n      add\n      dup1\n      0x40\n      mstore\n      pop\n      dup2\n      add\n      swap1\n      tag_164\n      swap2\n      swap1\n      tag_159\n      jump\t// in\n    tag_164:\n        /* \"usingtellor/contracts/UsingTellor.sol\":5808:5857  return tellor.getNewValueCountbyQueryId(_queryId) */\n      swap1\n      pop\n        /* \"usingtellor/contracts/UsingTellor.sol\":5390:5874  function getNewValueCountbyQueryId(bytes32 _queryId)... */\n    tag_152:\n      swap2\n      swap1\n      pop\n      jump\t// out\n        /* \"usingtellor/contracts/UsingTellor.sol\":1919:2576  function getDataBefore(bytes32 _queryId, uint256 _timestamp)... */\n    tag_52:\n        /* \"usingtellor/contracts/UsingTellor.sol\":2038:2054  bool _ifRetrieve */\n      0x00\n        /* \"usingtellor/contracts/UsingTellor.sol\":2068:2087  bytes memory _value */\n      0x60\n        /* \"usingtellor/contracts/UsingTellor.sol\":2101:2128  uint256 _timestampRetrieved */\n      0x00\n        /* \"usingtellor/contracts/UsingTellor.sol\":2154:2165  bool _found */\n      dup1\n        /* \"usingtellor/contracts/UsingTellor.sol\":2167:2181  uint256 _index */\n      0x00\n        /* \"usingtellor/contracts/UsingTellor.sol\":2185:2262  getIndexForDataBefore(... */\n      tag_166\n        /* \"usingtellor/contracts/UsingTellor.sol\":2220:2228  _queryId */\n      dup8\n        /* \"usingtellor/contracts/UsingTellor.sol\":2242:2252  _timestamp */\n      dup8\n        /* \"usingtellor/contracts/UsingTellor.sol\":2185:2206  getIndexForDataBefore */\n      tag_33\n        /* \"usingtellor/contracts/UsingTellor.sol\":2185:2262  getIndexForDataBefore(... */\n      jump\t// in\n    tag_166:\n        /* \"usingtellor/contracts/UsingTellor.sol\":2153:2262  (bool _found, uint256 _index) = getIndexForDataBefore(... */\n      swap2\n      pop\n      swap2\n      pop\n        /* \"usingtellor/contracts/UsingTellor.sol\":2277:2283  _found */\n      dup2\n        /* \"usingtellor/contracts/UsingTellor.sol\":2272:2313  if (!_found) return (false, bytes(\"\"), 0) */\n      tag_167\n      jumpi\n        /* \"usingtellor/contracts/UsingTellor.sol\":2293:2298  false */\n      0x00\n        /* \"usingtellor/contracts/UsingTellor.sol\":2300:2309  bytes(\"\") */\n      mload(0x40)\n      dup1\n      0x20\n      add\n      0x40\n      mstore\n      dup1\n      0x00\n      dup2\n      mstore\n      pop\n        /* \"usingtellor/contracts/UsingTellor.sol\":2311:2312  0 */\n      0x00\n        /* \"usingtellor/contracts/UsingTellor.sol\":2285:2313  return (false, bytes(\"\"), 0) */\n      swap5\n      pop\n      swap5\n      pop\n      swap5\n      pop\n      pop\n      pop\n      jump(tag_165)\n        /* \"usingtellor/contracts/UsingTellor.sol\":2272:2313  if (!_found) return (false, bytes(\"\"), 0) */\n    tag_167:\n        /* \"usingtellor/contracts/UsingTellor.sol\":2323:2336  uint256 _time */\n      0x00\n        /* \"usingtellor/contracts/UsingTellor.sol\":2339:2386  getTimestampbyQueryIdandIndex(_queryId, _index) */\n      tag_168\n        /* \"usingtellor/contracts/UsingTellor.sol\":2369:2377  _queryId */\n      dup9\n        /* \"usingtellor/contracts/UsingTellor.sol\":2379:2385  _index */\n      dup4\n        /* \"usingtellor/contracts/UsingTellor.sol\":2339:2368  getTimestampbyQueryIdandIndex */\n      tag_66\n        /* \"usingtellor/contracts/UsingTellor.sol\":2339:2386  getTimestampbyQueryIdandIndex(_queryId, _index) */\n      jump\t// in\n    tag_168:\n        /* \"usingtellor/contracts/UsingTellor.sol\":2323:2386  uint256 _time = getTimestampbyQueryIdandIndex(_queryId, _index) */\n      swap1\n      pop\n        /* \"usingtellor/contracts/UsingTellor.sol\":2405:2434  retrieveData(_queryId, _time) */\n      tag_169\n        /* \"usingtellor/contracts/UsingTellor.sol\":2418:2426  _queryId */\n      dup9\n        /* \"usingtellor/contracts/UsingTellor.sol\":2428:2433  _time */\n      dup3\n        /* \"usingtellor/contracts/UsingTellor.sol\":2405:2417  retrieveData */\n      tag_61\n        /* \"usingtellor/contracts/UsingTellor.sol\":2405:2434  retrieveData(_queryId, _time) */\n      jump\t// in\n    tag_169:\n        /* \"usingtellor/contracts/UsingTellor.sol\":2396:2434  _value = retrieveData(_queryId, _time) */\n      swap5\n      pop\n        /* \"usingtellor/contracts/UsingTellor.sol\":2479:2488  bytes(\"\") */\n      mload(0x40)\n      dup1\n      0x20\n      add\n      0x40\n      mstore\n      dup1\n      0x00\n      dup2\n      mstore\n      pop\n        /* \"usingtellor/contracts/UsingTellor.sol\":2469:2489  keccak256(bytes(\"\")) */\n      dup1\n      mload\n      swap1\n      0x20\n      add\n      keccak256\n        /* \"usingtellor/contracts/UsingTellor.sol\":2458:2464  _value */\n      dup6\n        /* \"usingtellor/contracts/UsingTellor.sol\":2448:2465  keccak256(_value) */\n      dup1\n      mload\n      swap1\n      0x20\n      add\n      keccak256\n        /* \"usingtellor/contracts/UsingTellor.sol\":2448:2489  keccak256(_value) != keccak256(bytes(\"\")) */\n      eq\n        /* \"usingtellor/contracts/UsingTellor.sol\":2444:2531  if (keccak256(_value) != keccak256(bytes(\"\")))... */\n      tag_170\n      jumpi\n        /* \"usingtellor/contracts/UsingTellor.sol\":2511:2515  true */\n      0x01\n        /* \"usingtellor/contracts/UsingTellor.sol\":2517:2523  _value */\n      dup6\n        /* \"usingtellor/contracts/UsingTellor.sol\":2525:2530  _time */\n      dup3\n        /* \"usingtellor/contracts/UsingTellor.sol\":2503:2531  return (true, _value, _time) */\n      swap6\n      pop\n      swap6\n      pop\n      swap6\n      pop\n      pop\n      pop\n      pop\n      jump(tag_165)\n        /* \"usingtellor/contracts/UsingTellor.sol\":2444:2531  if (keccak256(_value) != keccak256(bytes(\"\")))... */\n    tag_170:\n        /* \"usingtellor/contracts/UsingTellor.sol\":2549:2554  false */\n      0x00\n        /* \"usingtellor/contracts/UsingTellor.sol\":2556:2565  bytes(\"\") */\n      mload(0x40)\n      dup1\n      0x20\n      add\n      0x40\n      mstore\n      dup1\n      0x00\n      dup2\n      mstore\n      pop\n        /* \"usingtellor/contracts/UsingTellor.sol\":2567:2568  0 */\n      0x00\n        /* \"usingtellor/contracts/UsingTellor.sol\":2541:2569  return (false, bytes(\"\"), 0) */\n      swap6\n      pop\n      swap6\n      pop\n      swap6\n      pop\n      pop\n      pop\n      pop\n        /* \"usingtellor/contracts/UsingTellor.sol\":1919:2576  function getDataBefore(bytes32 _queryId, uint256 _timestamp)... */\n    tag_165:\n      swap3\n      pop\n      swap3\n      pop\n      swap3\n      jump\t// out\n        /* \"usingtellor/contracts/UsingTellor.sol\":891:1510  function getCurrentValue(bytes32 _queryId)... */\n    tag_57:\n        /* \"usingtellor/contracts/UsingTellor.sol\":992:1008  bool _ifRetrieve */\n      0x00\n        /* \"usingtellor/contracts/UsingTellor.sol\":1022:1041  bytes memory _value */\n      0x60\n        /* \"usingtellor/contracts/UsingTellor.sol\":1055:1082  uint256 _timestampRetrieved */\n      0x00\n        /* \"usingtellor/contracts/UsingTellor.sol\":1107:1121  uint256 _count */\n      dup1\n        /* \"usingtellor/contracts/UsingTellor.sol\":1124:1159  getNewValueCountbyQueryId(_queryId) */\n      tag_172\n        /* \"usingtellor/contracts/UsingTellor.sol\":1150:1158  _queryId */\n      dup6\n        /* \"usingtellor/contracts/UsingTellor.sol\":1124:1149  getNewValueCountbyQueryId */\n      tag_48\n        /* \"usingtellor/contracts/UsingTellor.sol\":1124:1159  getNewValueCountbyQueryId(_queryId) */\n      jump\t// in\n    tag_172:\n        /* \"usingtellor/contracts/UsingTellor.sol\":1107:1159  uint256 _count = getNewValueCountbyQueryId(_queryId) */\n      swap1\n      pop\n        /* \"usingtellor/contracts/UsingTellor.sol\":1184:1185  0 */\n      0x00\n        /* \"usingtellor/contracts/UsingTellor.sol\":1174:1180  _count */\n      dup2\n        /* \"usingtellor/contracts/UsingTellor.sol\":1174:1185  _count == 0 */\n      sub\n        /* \"usingtellor/contracts/UsingTellor.sol\":1170:1240  if (_count == 0) {... */\n      tag_173\n      jumpi\n        /* \"usingtellor/contracts/UsingTellor.sol\":1209:1214  false */\n      0x00\n        /* \"usingtellor/contracts/UsingTellor.sol\":1216:1225  bytes(\"\") */\n      mload(0x40)\n      dup1\n      0x20\n      add\n      0x40\n      mstore\n      dup1\n      0x00\n      dup2\n      mstore\n      pop\n        /* \"usingtellor/contracts/UsingTellor.sol\":1227:1228  0 */\n      0x00\n        /* \"usingtellor/contracts/UsingTellor.sol\":1201:1229  return (false, bytes(\"\"), 0) */\n      swap4\n      pop\n      swap4\n      pop\n      swap4\n      pop\n      pop\n      jump(tag_171)\n        /* \"usingtellor/contracts/UsingTellor.sol\":1170:1240  if (_count == 0) {... */\n    tag_173:\n        /* \"usingtellor/contracts/UsingTellor.sol\":1249:1262  uint256 _time */\n      0x00\n        /* \"usingtellor/contracts/UsingTellor.sol\":1265:1316  getTimestampbyQueryIdandIndex(_queryId, _count - 1) */\n      tag_174\n        /* \"usingtellor/contracts/UsingTellor.sol\":1295:1303  _queryId */\n      dup7\n        /* \"usingtellor/contracts/UsingTellor.sol\":1314:1315  1 */\n      0x01\n        /* \"usingtellor/contracts/UsingTellor.sol\":1305:1311  _count */\n      dup5\n        /* \"usingtellor/contracts/UsingTellor.sol\":1305:1315  _count - 1 */\n      tag_175\n      swap2\n      swap1\n      tag_103\n      jump\t// in\n    tag_175:\n        /* \"usingtellor/contracts/UsingTellor.sol\":1265:1294  getTimestampbyQueryIdandIndex */\n      tag_66\n        /* \"usingtellor/contracts/UsingTellor.sol\":1265:1316  getTimestampbyQueryIdandIndex(_queryId, _count - 1) */\n      jump\t// in\n    tag_174:\n        /* \"usingtellor/contracts/UsingTellor.sol\":1249:1316  uint256 _time = getTimestampbyQueryIdandIndex(_queryId, _count - 1) */\n      swap1\n      pop\n        /* \"usingtellor/contracts/UsingTellor.sol\":1335:1364  retrieveData(_queryId, _time) */\n      tag_176\n        /* \"usingtellor/contracts/UsingTellor.sol\":1348:1356  _queryId */\n      dup7\n        /* \"usingtellor/contracts/UsingTellor.sol\":1358:1363  _time */\n      dup3\n        /* \"usingtellor/contracts/UsingTellor.sol\":1335:1347  retrieveData */\n      tag_61\n        /* \"usingtellor/contracts/UsingTellor.sol\":1335:1364  retrieveData(_queryId, _time) */\n      jump\t// in\n    tag_176:\n        /* \"usingtellor/contracts/UsingTellor.sol\":1326:1364  _value = retrieveData(_queryId, _time) */\n      swap4\n      pop\n        /* \"usingtellor/contracts/UsingTellor.sol\":1409:1418  bytes(\"\") */\n      mload(0x40)\n      dup1\n      0x20\n      add\n      0x40\n      mstore\n      dup1\n      0x00\n      dup2\n      mstore\n      pop\n        /* \"usingtellor/contracts/UsingTellor.sol\":1399:1419  keccak256(bytes(\"\")) */\n      dup1\n      mload\n      swap1\n      0x20\n      add\n      keccak256\n        /* \"usingtellor/contracts/UsingTellor.sol\":1388:1394  _value */\n      dup5\n        /* \"usingtellor/contracts/UsingTellor.sol\":1378:1395  keccak256(_value) */\n      dup1\n      mload\n      swap1\n      0x20\n      add\n      keccak256\n        /* \"usingtellor/contracts/UsingTellor.sol\":1378:1419  keccak256(_value) != keccak256(bytes(\"\")) */\n      eq\n        /* \"usingtellor/contracts/UsingTellor.sol\":1374:1461  if (keccak256(_value) != keccak256(bytes(\"\")))... */\n      tag_177\n      jumpi\n        /* \"usingtellor/contracts/UsingTellor.sol\":1441:1445  true */\n      0x01\n        /* \"usingtellor/contracts/UsingTellor.sol\":1447:1453  _value */\n      dup5\n        /* \"usingtellor/contracts/UsingTellor.sol\":1455:1460  _time */\n      dup3\n        /* \"usingtellor/contracts/UsingTellor.sol\":1433:1461  return (true, _value, _time) */\n      swap5\n      pop\n      swap5\n      pop\n      swap5\n      pop\n      pop\n      pop\n      jump(tag_171)\n        /* \"usingtellor/contracts/UsingTellor.sol\":1374:1461  if (keccak256(_value) != keccak256(bytes(\"\")))... */\n    tag_177:\n        /* \"usingtellor/contracts/UsingTellor.sol\":1479:1484  false */\n      0x00\n        /* \"usingtellor/contracts/UsingTellor.sol\":1486:1495  bytes(\"\") */\n      mload(0x40)\n      dup1\n      0x20\n      add\n      0x40\n      mstore\n      dup1\n      0x00\n      dup2\n      mstore\n      pop\n        /* \"usingtellor/contracts/UsingTellor.sol\":1497:1502  _time */\n      dup3\n        /* \"usingtellor/contracts/UsingTellor.sol\":1471:1503  return (false, bytes(\"\"), _time) */\n      swap5\n      pop\n      swap5\n      pop\n      swap5\n      pop\n      pop\n      pop\n        /* \"usingtellor/contracts/UsingTellor.sol\":891:1510  function getCurrentValue(bytes32 _queryId)... */\n    tag_171:\n      swap2\n      swap4\n      swap1\n      swap3\n      pop\n      jump\t// out\n        /* \"usingtellor/contracts/UsingTellor.sol\":8113:8618  function retrieveData(bytes32 _queryId, uint256 _timestamp)... */\n    tag_61:\n        /* \"usingtellor/contracts/UsingTellor.sol\":8218:8230  bytes memory */\n      0x60\n        /* \"usingtellor/contracts/UsingTellor.sol\":8322:8364  0x18431fd88adF138e8b979A7246eb58EA7126ea16 */\n      0x18431fd88adf138e8b979a7246eb58ea7126ea16\n        /* \"usingtellor/contracts/UsingTellor.sol\":8304:8365  tellor == ITellor(0x18431fd88adF138e8b979A7246eb58EA7126ea16) */\n      0xffffffffffffffffffffffffffffffffffffffff\n      and\n        /* \"usingtellor/contracts/UsingTellor.sol\":8304:8310  tellor */\n      0x00\n      dup1\n      sload\n      swap1\n      0x0100\n      exp\n      swap1\n      div\n      0xffffffffffffffffffffffffffffffffffffffff\n      and\n        /* \"usingtellor/contracts/UsingTellor.sol\":8304:8365  tellor == ITellor(0x18431fd88adF138e8b979A7246eb58EA7126ea16) */\n      0xffffffffffffffffffffffffffffffffffffffff\n      and\n      eq\n        /* \"usingtellor/contracts/UsingTellor.sol\":8304:8442  tellor == ITellor(0x18431fd88adF138e8b979A7246eb58EA7126ea16) ||... */\n      dup1\n      tag_179\n      jumpi\n      pop\n        /* \"usingtellor/contracts/UsingTellor.sol\":8399:8441  0xe8218cACb0a5421BC6409e498d9f8CC8869945ea */\n      0xe8218cacb0a5421bc6409e498d9f8cc8869945ea\n        /* \"usingtellor/contracts/UsingTellor.sol\":8381:8442  tellor == ITellor(0xe8218cACb0a5421BC6409e498d9f8CC8869945ea) */\n      0xffffffffffffffffffffffffffffffffffffffff\n      and\n        /* \"usingtellor/contracts/UsingTellor.sol\":8381:8387  tellor */\n      0x00\n      dup1\n      sload\n      swap1\n      0x0100\n      exp\n      swap1\n      div\n      0xffffffffffffffffffffffffffffffffffffffff\n      and\n        /* \"usingtellor/contracts/UsingTellor.sol\":8381:8442  tellor == ITellor(0xe8218cACb0a5421BC6409e498d9f8CC8869945ea) */\n      0xffffffffffffffffffffffffffffffffffffffff\n      and\n      eq\n        /* \"usingtellor/contracts/UsingTellor.sol\":8304:8442  tellor == ITellor(0x18431fd88adF138e8b979A7246eb58EA7126ea16) ||... */\n    tag_179:\n        /* \"usingtellor/contracts/UsingTellor.sol\":8287:8612  if (... */\n      iszero\n      tag_180\n      jumpi\n        /* \"usingtellor/contracts/UsingTellor.sol\":8474:8480  tellor */\n      0x00\n      dup1\n      sload\n      swap1\n      0x0100\n      exp\n      swap1\n      div\n      0xffffffffffffffffffffffffffffffffffffffff\n      and\n        /* \"usingtellor/contracts/UsingTellor.sol\":8474:8500  tellor.getValueByTimestamp */\n      0xffffffffffffffffffffffffffffffffffffffff\n      and\n      0x0b2d2b0d\n        /* \"usingtellor/contracts/UsingTellor.sol\":8501:8509  _queryId */\n      dup5\n        /* \"usingtellor/contracts/UsingTellor.sol\":8511:8521  _timestamp */\n      dup5\n        /* \"usingtellor/contracts/UsingTellor.sol\":8474:8522  tellor.getValueByTimestamp(_queryId, _timestamp) */\n      mload(0x40)\n      dup4\n      0xffffffff\n      and\n      0xe0\n      shl\n      dup2\n      mstore\n      0x04\n      add\n      tag_181\n      swap3\n      swap2\n      swap1\n      tag_182\n      jump\t// in\n    tag_181:\n      0x00\n      mload(0x40)\n      dup1\n      dup4\n      sub\n      dup2\n      dup7\n      gas\n      staticcall\n      iszero\n      dup1\n      iszero\n      tag_184\n      jumpi\n      returndatasize\n      0x00\n      dup1\n      returndatacopy\n      revert(0x00, returndatasize)\n    tag_184:\n      pop\n      pop\n      pop\n      pop\n      mload(0x40)\n      returndatasize\n      0x00\n      dup3\n      returndatacopy\n      returndatasize\n      not(0x1f)\n      0x1f\n      dup3\n      add\n      and\n      dup3\n      add\n      dup1\n      0x40\n      mstore\n      pop\n      dup2\n      add\n      swap1\n      tag_185\n      swap2\n      swap1\n      tag_186\n      jump\t// in\n    tag_185:\n        /* \"usingtellor/contracts/UsingTellor.sol\":8467:8522  return tellor.getValueByTimestamp(_queryId, _timestamp) */\n      swap1\n      pop\n      jump(tag_178)\n        /* \"usingtellor/contracts/UsingTellor.sol\":8287:8612  if (... */\n    tag_180:\n        /* \"usingtellor/contracts/UsingTellor.sol\":8560:8566  tellor */\n      0x00\n      dup1\n      sload\n      swap1\n      0x0100\n      exp\n      swap1\n      div\n      0xffffffffffffffffffffffffffffffffffffffff\n      and\n        /* \"usingtellor/contracts/UsingTellor.sol\":8560:8579  tellor.retrieveData */\n      0xffffffffffffffffffffffffffffffffffffffff\n      and\n      0xc5958af9\n        /* \"usingtellor/contracts/UsingTellor.sol\":8580:8588  _queryId */\n      dup5\n        /* \"usingtellor/contracts/UsingTellor.sol\":8590:8600  _timestamp */\n      dup5\n        /* \"usingtellor/contracts/UsingTellor.sol\":8560:8601  tellor.retrieveData(_queryId, _timestamp) */\n      mload(0x40)\n      dup4\n      0xffffffff\n      and\n      0xe0\n      shl\n      dup2\n      mstore\n      0x04\n      add\n      tag_188\n      swap3\n      swap2\n      swap1\n      tag_182\n      jump\t// in\n    tag_188:\n      0x00\n      mload(0x40)\n      dup1\n      dup4\n      sub\n      dup2\n      dup7\n      gas\n      staticcall\n      iszero\n      dup1\n      iszero\n      tag_190\n      jumpi\n      returndatasize\n      0x00\n      dup1\n      returndatacopy\n      revert(0x00, returndatasize)\n    tag_190:\n      pop\n      pop\n      pop\n      pop\n      mload(0x40)\n      returndatasize\n      0x00\n      dup3\n      returndatacopy\n      returndatasize\n      not(0x1f)\n      0x1f\n      dup3\n      add\n      and\n      dup3\n      add\n      dup1\n      0x40\n      mstore\n      pop\n      dup2\n      add\n      swap1\n      tag_191\n      swap2\n      swap1\n      tag_186\n      jump\t// in\n    tag_191:\n        /* \"usingtellor/contracts/UsingTellor.sol\":8553:8601  return tellor.retrieveData(_queryId, _timestamp) */\n      swap1\n      pop\n        /* \"usingtellor/contracts/UsingTellor.sol\":8113:8618  function retrieveData(bytes32 _queryId, uint256 _timestamp)... */\n    tag_178:\n      swap3\n      swap2\n      pop\n      pop\n      jump\t// out\n        /* \"usingtellor/contracts/UsingTellor.sol\":6108:6636  function getTimestampbyQueryIdandIndex(bytes32 _queryId, uint256 _index)... */\n    tag_66:\n        /* \"usingtellor/contracts/UsingTellor.sol\":6226:6233  uint256 */\n      0x00\n        /* \"usingtellor/contracts/UsingTellor.sol\":6325:6367  0x18431fd88adF138e8b979A7246eb58EA7126ea16 */\n      0x18431fd88adf138e8b979a7246eb58ea7126ea16\n        /* \"usingtellor/contracts/UsingTellor.sol\":6307:6368  tellor == ITellor(0x18431fd88adF138e8b979A7246eb58EA7126ea16) */\n      0xffffffffffffffffffffffffffffffffffffffff\n      and\n        /* \"usingtellor/contracts/UsingTellor.sol\":6307:6313  tellor */\n      0x00\n      dup1\n      sload\n      swap1\n      0x0100\n      exp\n      swap1\n      div\n      0xffffffffffffffffffffffffffffffffffffffff\n      and\n        /* \"usingtellor/contracts/UsingTellor.sol\":6307:6368  tellor == ITellor(0x18431fd88adF138e8b979A7246eb58EA7126ea16) */\n      0xffffffffffffffffffffffffffffffffffffffff\n      and\n      eq\n        /* \"usingtellor/contracts/UsingTellor.sol\":6307:6445  tellor == ITellor(0x18431fd88adF138e8b979A7246eb58EA7126ea16) ||... */\n      dup1\n      tag_193\n      jumpi\n      pop\n        /* \"usingtellor/contracts/UsingTellor.sol\":6402:6444  0xe8218cACb0a5421BC6409e498d9f8CC8869945ea */\n      0xe8218cacb0a5421bc6409e498d9f8cc8869945ea\n        /* \"usingtellor/contracts/UsingTellor.sol\":6384:6445  tellor == ITellor(0xe8218cACb0a5421BC6409e498d9f8CC8869945ea) */\n      0xffffffffffffffffffffffffffffffffffffffff\n      and\n        /* \"usingtellor/contracts/UsingTellor.sol\":6384:6390  tellor */\n      0x00\n      dup1\n      sload\n      swap1\n      0x0100\n      exp\n      swap1\n      div\n      0xffffffffffffffffffffffffffffffffffffffff\n      and\n        /* \"usingtellor/contracts/UsingTellor.sol\":6384:6445  tellor == ITellor(0xe8218cACb0a5421BC6409e498d9f8CC8869945ea) */\n      0xffffffffffffffffffffffffffffffffffffffff\n      and\n      eq\n        /* \"usingtellor/contracts/UsingTellor.sol\":6307:6445  tellor == ITellor(0x18431fd88adF138e8b979A7246eb58EA7126ea16) ||... */\n    tag_193:\n        /* \"usingtellor/contracts/UsingTellor.sol\":6290:6630  if (... */\n      iszero\n      tag_194\n      jumpi\n        /* \"usingtellor/contracts/UsingTellor.sol\":6477:6483  tellor */\n      0x00\n      dup1\n      sload\n      swap1\n      0x0100\n      exp\n      swap1\n      div\n      0xffffffffffffffffffffffffffffffffffffffff\n      and\n        /* \"usingtellor/contracts/UsingTellor.sol\":6477:6509  tellor.getReportTimestampByIndex */\n      0xffffffffffffffffffffffffffffffffffffffff\n      and\n      0x7c37b8b4\n        /* \"usingtellor/contracts/UsingTellor.sol\":6510:6518  _queryId */\n      dup5\n        /* \"usingtellor/contracts/UsingTellor.sol\":6520:6526  _index */\n      dup5\n        /* \"usingtellor/contracts/UsingTellor.sol\":6477:6527  tellor.getReportTimestampByIndex(_queryId, _index) */\n      mload(0x40)\n      dup4\n      0xffffffff\n      and\n      0xe0\n      shl\n      dup2\n      mstore\n      0x04\n      add\n      tag_195\n      swap3\n      swap2\n      swap1\n      tag_182\n      jump\t// in\n    tag_195:\n      0x20\n      mload(0x40)\n      dup1\n      dup4\n      sub\n      dup2\n      dup7\n      gas\n      staticcall\n      iszero\n      dup1\n      iszero\n      tag_197\n      jumpi\n      returndatasize\n      0x00\n      dup1\n      returndatacopy\n      revert(0x00, returndatasize)\n    tag_197:\n      pop\n      pop\n      pop\n      pop\n      mload(0x40)\n      returndatasize\n      not(0x1f)\n      0x1f\n      dup3\n      add\n      and\n      dup3\n      add\n      dup1\n      0x40\n      mstore\n      pop\n      dup2\n      add\n      swap1\n      tag_198\n      swap2\n      swap1\n      tag_159\n      jump\t// in\n    tag_198:\n        /* \"usingtellor/contracts/UsingTellor.sol\":6470:6527  return tellor.getReportTimestampByIndex(_queryId, _index) */\n      swap1\n      pop\n      jump(tag_192)\n        /* \"usingtellor/contracts/UsingTellor.sol\":6290:6630  if (... */\n    tag_194:\n        /* \"usingtellor/contracts/UsingTellor.sol\":6565:6571  tellor */\n      0x00\n      dup1\n      sload\n      swap1\n      0x0100\n      exp\n      swap1\n      div\n      0xffffffffffffffffffffffffffffffffffffffff\n      and\n        /* \"usingtellor/contracts/UsingTellor.sol\":6565:6601  tellor.getTimestampbyQueryIdandIndex */\n      0xffffffffffffffffffffffffffffffffffffffff\n      and\n      0xce5e11bf\n        /* \"usingtellor/contracts/UsingTellor.sol\":6602:6610  _queryId */\n      dup5\n        /* \"usingtellor/contracts/UsingTellor.sol\":6612:6618  _index */\n      dup5\n        /* \"usingtellor/contracts/UsingTellor.sol\":6565:6619  tellor.getTimestampbyQueryIdandIndex(_queryId, _index) */\n      mload(0x40)\n      dup4\n      0xffffffff\n      and\n      0xe0\n      shl\n      dup2\n      mstore\n      0x04\n      add\n      tag_200\n      swap3\n      swap2\n      swap1\n      tag_182\n      jump\t// in\n    tag_200:\n      0x20\n      mload(0x40)\n      dup1\n      dup4\n      sub\n      dup2\n      dup7\n      gas\n      staticcall\n      iszero\n      dup1\n      iszero\n      tag_202\n      jumpi\n      returndatasize\n      0x00\n      dup1\n      returndatacopy\n      revert(0x00, returndatasize)\n    tag_202:\n      pop\n      pop\n      pop\n      pop\n      mload(0x40)\n      returndatasize\n      not(0x1f)\n      0x1f\n      dup3\n      add\n      and\n      dup3\n      add\n      dup1\n      0x40\n      mstore\n      pop\n      dup2\n      add\n      swap1\n      tag_203\n      swap2\n      swap1\n      tag_159\n      jump\t// in\n    tag_203:\n        /* \"usingtellor/contracts/UsingTellor.sol\":6558:6619  return tellor.getTimestampbyQueryIdandIndex(_queryId, _index) */\n      swap1\n      pop\n        /* \"usingtellor/contracts/UsingTellor.sol\":6108:6636  function getTimestampbyQueryIdandIndex(bytes32 _queryId, uint256 _index)... */\n    tag_192:\n      swap3\n      swap2\n      pop\n      pop\n      jump\t// out\n        /* \"contracts/TellorOracle.sol\":1898:2063  function getUnderlyingPrice(address _underlying)... */\n    tag_71:\n        /* \"contracts/TellorOracle.sol\":1994:2001  uint256 */\n      0x00\n        /* \"contracts/TellorOracle.sol\":2024:2056  _getUnderlyingPrice(_underlying) */\n      tag_205\n        /* \"contracts/TellorOracle.sol\":2044:2055  _underlying */\n      dup3\n        /* \"contracts/TellorOracle.sol\":2024:2043  _getUnderlyingPrice */\n      tag_76\n        /* \"contracts/TellorOracle.sol\":2024:2056  _getUnderlyingPrice(_underlying) */\n      jump\t// in\n    tag_205:\n        /* \"contracts/TellorOracle.sol\":2017:2056  return _getUnderlyingPrice(_underlying) */\n      swap1\n      pop\n        /* \"contracts/TellorOracle.sol\":1898:2063  function getUnderlyingPrice(address _underlying)... */\n      swap2\n      swap1\n      pop\n      jump\t// out\n        /* \"contracts/TellorOracle.sol\":2312:2807  function _getUnderlyingPrice(address _address)... */\n    tag_76:\n        /* \"contracts/TellorOracle.sol\":2406:2419  uint256 price */\n      0x00\n        /* \"contracts/TellorOracle.sol\":2435:2455  string memory _asset */\n      dup1\n        /* \"contracts/TellorOracle.sol\":2458:2473  tAddressMapping */\n      0x01\n        /* \"contracts/TellorOracle.sol\":2458:2483  tAddressMapping[_address] */\n      0x00\n        /* \"contracts/TellorOracle.sol\":2474:2482  _address */\n      dup5\n        /* \"contracts/TellorOracle.sol\":2458:2483  tAddressMapping[_address] */\n      0xffffffffffffffffffffffffffffffffffffffff\n      and\n      0xffffffffffffffffffffffffffffffffffffffff\n      and\n      dup2\n      mstore\n      0x20\n      add\n      swap1\n      dup2\n      mstore\n      0x20\n      add\n      0x00\n      keccak256\n        /* \"contracts/TellorOracle.sol\":2435:2483  string memory _asset = tAddressMapping[_address] */\n      dup1\n      sload\n      tag_207\n      swap1\n      tag_208\n      jump\t// in\n    tag_207:\n      dup1\n      0x1f\n      add\n      0x20\n      dup1\n      swap2\n      div\n      mul\n      0x20\n      add\n      mload(0x40)\n      swap1\n      dup2\n      add\n      0x40\n      mstore\n      dup1\n      swap3\n      swap2\n      swap1\n      dup2\n      dup2\n      mstore\n      0x20\n      add\n      dup3\n      dup1\n      sload\n      tag_209\n      swap1\n      tag_208\n      jump\t// in\n    tag_209:\n      dup1\n      iszero\n      tag_210\n      jumpi\n      dup1\n      0x1f\n      lt\n      tag_211\n      jumpi\n      0x0100\n      dup1\n      dup4\n      sload\n      div\n      mul\n      dup4\n      mstore\n      swap2\n      0x20\n      add\n      swap2\n      jump(tag_210)\n    tag_211:\n      dup3\n      add\n      swap2\n      swap1\n      0x00\n      mstore\n      keccak256(0x00, 0x20)\n      swap1\n    tag_212:\n      dup2\n      sload\n      dup2\n      mstore\n      swap1\n      0x01\n      add\n      swap1\n      0x20\n      add\n      dup1\n      dup4\n      gt\n      tag_212\n      jumpi\n      dup3\n      swap1\n      sub\n      0x1f\n      and\n      dup3\n      add\n      swap2\n    tag_210:\n      pop\n      pop\n      pop\n      pop\n      pop\n      swap1\n      pop\n        /* \"contracts/TellorOracle.sol\":2493:2516  bytes memory _queryData */\n      0x00\n        /* \"contracts/TellorOracle.sol\":2579:2585  _asset */\n      dup2\n        /* \"contracts/TellorOracle.sol\":2568:2593  abi.encode(_asset, \"usd\") */\n      add(0x20, mload(0x40))\n      tag_213\n      swap2\n      swap1\n      tag_214\n      jump\t// in\n    tag_213:\n      mload(0x40)\n      0x20\n      dup2\n      dup4\n      sub\n      sub\n      dup2\n      mstore\n      swap1\n      0x40\n      mstore\n        /* \"contracts/TellorOracle.sol\":2519:2603  abi.encode(... */\n      add(0x20, mload(0x40))\n      tag_215\n      swap2\n      swap1\n      tag_216\n      jump\t// in\n    tag_215:\n      mload(0x40)\n      0x20\n      dup2\n      dup4\n      sub\n      sub\n      dup2\n      mstore\n      swap1\n      0x40\n      mstore\n        /* \"contracts/TellorOracle.sol\":2493:2603  bytes memory _queryData = abi.encode(... */\n      swap1\n      pop\n        /* \"contracts/TellorOracle.sol\":2613:2629  bytes32 _queryId */\n      0x00\n        /* \"contracts/TellorOracle.sol\":2642:2652  _queryData */\n      dup2\n        /* \"contracts/TellorOracle.sol\":2632:2653  keccak256(_queryData) */\n      dup1\n      mload\n      swap1\n      0x20\n      add\n      keccak256\n        /* \"contracts/TellorOracle.sol\":2613:2653  bytes32 _queryId = keccak256(_queryData) */\n      swap1\n      pop\n        /* \"contracts/TellorOracle.sol\":2664:2679  bool ifRetrieve */\n      0x00\n        /* \"contracts/TellorOracle.sol\":2681:2700  bytes memory _value */\n      dup1\n        /* \"contracts/TellorOracle.sol\":2706:2731  getCurrentValue(_queryId) */\n      tag_217\n        /* \"contracts/TellorOracle.sol\":2722:2730  _queryId */\n      dup4\n        /* \"contracts/TellorOracle.sol\":2706:2721  getCurrentValue */\n      tag_57\n        /* \"contracts/TellorOracle.sol\":2706:2731  getCurrentValue(_queryId) */\n      jump\t// in\n    tag_217:\n        /* \"contracts/TellorOracle.sol\":2663:2731  (bool ifRetrieve, bytes memory _value, ) = getCurrentValue(_queryId) */\n      pop\n      swap2\n      pop\n      swap2\n      pop\n        /* \"contracts/TellorOracle.sol\":2746:2756  ifRetrieve */\n      dup2\n        /* \"contracts/TellorOracle.sol\":2741:2766  if (!ifRetrieve) return 0 */\n      tag_218\n      jumpi\n        /* \"contracts/TellorOracle.sol\":2765:2766  0 */\n      0x00\n        /* \"contracts/TellorOracle.sol\":2758:2766  return 0 */\n      swap6\n      pop\n      pop\n      pop\n      pop\n      pop\n      pop\n      jump(tag_206)\n        /* \"contracts/TellorOracle.sol\":2741:2766  if (!ifRetrieve) return 0 */\n    tag_218:\n        /* \"contracts/TellorOracle.sol\":2783:2800  toUint256(_value) */\n      tag_219\n        /* \"contracts/TellorOracle.sol\":2793:2799  _value */\n      dup2\n        /* \"contracts/TellorOracle.sol\":2783:2792  toUint256 */\n      tag_220\n        /* \"contracts/TellorOracle.sol\":2783:2800  toUint256(_value) */\n      jump\t// in\n    tag_219:\n        /* \"contracts/TellorOracle.sol\":2776:2800  return toUint256(_value) */\n      swap6\n      pop\n      pop\n      pop\n      pop\n      pop\n      pop\n        /* \"contracts/TellorOracle.sol\":2312:2807  function _getUnderlyingPrice(address _address)... */\n    tag_206:\n      swap2\n      swap1\n      pop\n      jump\t// out\n        /* \"contracts/TellorOracle.sol\":2813:2965  function toUint256(bytes memory _bytes)   ... */\n    tag_220:\n        /* \"contracts/TellorOracle.sol\":2885:2898  uint256 value */\n      0x00\n        /* \"contracts/TellorOracle.sol\":2951:2955  0x20 */\n      0x20\n        /* \"contracts/TellorOracle.sol\":2943:2949  _bytes */\n      dup3\n        /* \"contracts/TellorOracle.sol\":2939:2956  add(_bytes, 0x20) */\n      add\n        /* \"contracts/TellorOracle.sol\":2933:2957  mload(add(_bytes, 0x20)) */\n      mload\n        /* \"contracts/TellorOracle.sol\":2924:2957  value := mload(add(_bytes, 0x20)) */\n      swap1\n      pop\n        /* \"contracts/TellorOracle.sol\":2813:2965  function toUint256(bytes memory _bytes)   ... */\n      swap2\n      swap1\n      pop\n      jump\t// out\n        /* \"#utility.yul\":7:82   */\n    tag_222:\n        /* \"#utility.yul\":40:46   */\n      0x00\n        /* \"#utility.yul\":73:75   */\n      0x40\n        /* \"#utility.yul\":67:76   */\n      mload\n        /* \"#utility.yul\":57:76   */\n      swap1\n      pop\n        /* \"#utility.yul\":7:82   */\n      swap1\n      jump\t// out\n        /* \"#utility.yul\":88:205   */\n    tag_223:\n        /* \"#utility.yul\":197:198   */\n      0x00\n        /* \"#utility.yul\":194:195   */\n      dup1\n        /* \"#utility.yul\":187:199   */\n      revert\n        /* \"#utility.yul\":211:328   */\n    tag_224:\n        /* \"#utility.yul\":320:321   */\n      0x00\n        /* \"#utility.yul\":317:318   */\n      dup1\n        /* \"#utility.yul\":310:322   */\n      revert\n        /* \"#utility.yul\":334:460   */\n    tag_225:\n        /* \"#utility.yul\":371:378   */\n      0x00\n        /* \"#utility.yul\":411:453   */\n      0xffffffffffffffffffffffffffffffffffffffff\n        /* \"#utility.yul\":404:409   */\n      dup3\n        /* \"#utility.yul\":400:454   */\n      and\n        /* \"#utility.yul\":389:454   */\n      swap1\n      pop\n        /* \"#utility.yul\":334:460   */\n      swap2\n      swap1\n      pop\n      jump\t// out\n        /* \"#utility.yul\":466:562   */\n    tag_226:\n        /* \"#utility.yul\":503:510   */\n      0x00\n        /* \"#utility.yul\":532:556   */\n      tag_308\n        /* \"#utility.yul\":550:555   */\n      dup3\n        /* \"#utility.yul\":532:556   */\n      tag_225\n      jump\t// in\n    tag_308:\n        /* \"#utility.yul\":521:556   */\n      swap1\n      pop\n        /* \"#utility.yul\":466:562   */\n      swap2\n      swap1\n      pop\n      jump\t// out\n        /* \"#utility.yul\":568:690   */\n    tag_227:\n        /* \"#utility.yul\":641:665   */\n      tag_310\n        /* \"#utility.yul\":659:664   */\n      dup2\n        /* \"#utility.yul\":641:665   */\n      tag_226\n      jump\t// in\n    tag_310:\n        /* \"#utility.yul\":634:639   */\n      dup2\n        /* \"#utility.yul\":631:666   */\n      eq\n        /* \"#utility.yul\":621:684   */\n      tag_311\n      jumpi\n        /* \"#utility.yul\":680:681   */\n      0x00\n        /* \"#utility.yul\":677:678   */\n      dup1\n        /* \"#utility.yul\":670:682   */\n      revert\n        /* \"#utility.yul\":621:684   */\n    tag_311:\n        /* \"#utility.yul\":568:690   */\n      pop\n      jump\t// out\n        /* \"#utility.yul\":696:835   */\n    tag_228:\n        /* \"#utility.yul\":742:747   */\n      0x00\n        /* \"#utility.yul\":780:786   */\n      dup2\n        /* \"#utility.yul\":767:787   */\n      calldataload\n        /* \"#utility.yul\":758:787   */\n      swap1\n      pop\n        /* \"#utility.yul\":796:829   */\n      tag_313\n        /* \"#utility.yul\":823:828   */\n      dup2\n        /* \"#utility.yul\":796:829   */\n      tag_227\n      jump\t// in\n    tag_313:\n        /* \"#utility.yul\":696:835   */\n      swap3\n      swap2\n      pop\n      pop\n      jump\t// out\n        /* \"#utility.yul\":841:918   */\n    tag_229:\n        /* \"#utility.yul\":878:885   */\n      0x00\n        /* \"#utility.yul\":907:912   */\n      dup2\n        /* \"#utility.yul\":896:912   */\n      swap1\n      pop\n        /* \"#utility.yul\":841:918   */\n      swap2\n      swap1\n      pop\n      jump\t// out\n        /* \"#utility.yul\":924:1046   */\n    tag_230:\n        /* \"#utility.yul\":997:1021   */\n      tag_316\n        /* \"#utility.yul\":1015:1020   */\n      dup2\n        /* \"#utility.yul\":997:1021   */\n      tag_229\n      jump\t// in\n    tag_316:\n        /* \"#utility.yul\":990:995   */\n      dup2\n        /* \"#utility.yul\":987:1022   */\n      eq\n        /* \"#utility.yul\":977:1040   */\n      tag_317\n      jumpi\n        /* \"#utility.yul\":1036:1037   */\n      0x00\n        /* \"#utility.yul\":1033:1034   */\n      dup1\n        /* \"#utility.yul\":1026:1038   */\n      revert\n        /* \"#utility.yul\":977:1040   */\n    tag_317:\n        /* \"#utility.yul\":924:1046   */\n      pop\n      jump\t// out\n        /* \"#utility.yul\":1052:1191   */\n    tag_231:\n        /* \"#utility.yul\":1098:1103   */\n      0x00\n        /* \"#utility.yul\":1136:1142   */\n      dup2\n        /* \"#utility.yul\":1123:1143   */\n      calldataload\n        /* \"#utility.yul\":1114:1143   */\n      swap1\n      pop\n        /* \"#utility.yul\":1152:1185   */\n      tag_319\n        /* \"#utility.yul\":1179:1184   */\n      dup2\n        /* \"#utility.yul\":1152:1185   */\n      tag_230\n      jump\t// in\n    tag_319:\n        /* \"#utility.yul\":1052:1191   */\n      swap3\n      swap2\n      pop\n      pop\n      jump\t// out\n        /* \"#utility.yul\":1197:1671   */\n    tag_18:\n        /* \"#utility.yul\":1265:1271   */\n      0x00\n        /* \"#utility.yul\":1273:1279   */\n      dup1\n        /* \"#utility.yul\":1322:1324   */\n      0x40\n        /* \"#utility.yul\":1310:1319   */\n      dup4\n        /* \"#utility.yul\":1301:1308   */\n      dup6\n        /* \"#utility.yul\":1297:1320   */\n      sub\n        /* \"#utility.yul\":1293:1325   */\n      slt\n        /* \"#utility.yul\":1290:1409   */\n      iszero\n      tag_321\n      jumpi\n        /* \"#utility.yul\":1328:1407   */\n      tag_322\n      tag_223\n      jump\t// in\n    tag_322:\n        /* \"#utility.yul\":1290:1409   */\n    tag_321:\n        /* \"#utility.yul\":1448:1449   */\n      0x00\n        /* \"#utility.yul\":1473:1526   */\n      tag_323\n        /* \"#utility.yul\":1518:1525   */\n      dup6\n        /* \"#utility.yul\":1509:1515   */\n      dup3\n        /* \"#utility.yul\":1498:1507   */\n      dup7\n        /* \"#utility.yul\":1494:1516   */\n      add\n        /* \"#utility.yul\":1473:1526   */\n      tag_228\n      jump\t// in\n    tag_323:\n        /* \"#utility.yul\":1463:1526   */\n      swap3\n      pop\n        /* \"#utility.yul\":1419:1536   */\n      pop\n        /* \"#utility.yul\":1575:1577   */\n      0x20\n        /* \"#utility.yul\":1601:1654   */\n      tag_324\n        /* \"#utility.yul\":1646:1653   */\n      dup6\n        /* \"#utility.yul\":1637:1643   */\n      dup3\n        /* \"#utility.yul\":1626:1635   */\n      dup7\n        /* \"#utility.yul\":1622:1644   */\n      add\n        /* \"#utility.yul\":1601:1654   */\n      tag_231\n      jump\t// in\n    tag_324:\n        /* \"#utility.yul\":1591:1654   */\n      swap2\n      pop\n        /* \"#utility.yul\":1546:1664   */\n      pop\n        /* \"#utility.yul\":1197:1671   */\n      swap3\n      pop\n      swap3\n      swap1\n      pop\n      jump\t// out\n        /* \"#utility.yul\":1677:1795   */\n    tag_232:\n        /* \"#utility.yul\":1764:1788   */\n      tag_326\n        /* \"#utility.yul\":1782:1787   */\n      dup2\n        /* \"#utility.yul\":1764:1788   */\n      tag_229\n      jump\t// in\n    tag_326:\n        /* \"#utility.yul\":1759:1762   */\n      dup3\n        /* \"#utility.yul\":1752:1789   */\n      mstore\n        /* \"#utility.yul\":1677:1795   */\n      pop\n      pop\n      jump\t// out\n        /* \"#utility.yul\":1801:2023   */\n    tag_21:\n        /* \"#utility.yul\":1894:1898   */\n      0x00\n        /* \"#utility.yul\":1932:1934   */\n      0x20\n        /* \"#utility.yul\":1921:1930   */\n      dup3\n        /* \"#utility.yul\":1917:1935   */\n      add\n        /* \"#utility.yul\":1909:1935   */\n      swap1\n      pop\n        /* \"#utility.yul\":1945:2016   */\n      tag_328\n        /* \"#utility.yul\":2013:2014   */\n      0x00\n        /* \"#utility.yul\":2002:2011   */\n      dup4\n        /* \"#utility.yul\":1998:2015   */\n      add\n        /* \"#utility.yul\":1989:1995   */\n      dup5\n        /* \"#utility.yul\":1945:2016   */\n      tag_232\n      jump\t// in\n    tag_328:\n        /* \"#utility.yul\":1801:2023   */\n      swap3\n      swap2\n      pop\n      pop\n      jump\t// out\n        /* \"#utility.yul\":2029:2147   */\n    tag_233:\n        /* \"#utility.yul\":2116:2140   */\n      tag_330\n        /* \"#utility.yul\":2134:2139   */\n      dup2\n        /* \"#utility.yul\":2116:2140   */\n      tag_226\n      jump\t// in\n    tag_330:\n        /* \"#utility.yul\":2111:2114   */\n      dup3\n        /* \"#utility.yul\":2104:2141   */\n      mstore\n        /* \"#utility.yul\":2029:2147   */\n      pop\n      pop\n      jump\t// out\n        /* \"#utility.yul\":2153:2375   */\n    tag_25:\n        /* \"#utility.yul\":2246:2250   */\n      0x00\n        /* \"#utility.yul\":2284:2286   */\n      0x20\n        /* \"#utility.yul\":2273:2282   */\n      dup3\n        /* \"#utility.yul\":2269:2287   */\n      add\n        /* \"#utility.yul\":2261:2287   */\n      swap1\n      pop\n        /* \"#utility.yul\":2297:2368   */\n      tag_332\n        /* \"#utility.yul\":2365:2366   */\n      0x00\n        /* \"#utility.yul\":2354:2363   */\n      dup4\n        /* \"#utility.yul\":2350:2367   */\n      add\n        /* \"#utility.yul\":2341:2347   */\n      dup5\n        /* \"#utility.yul\":2297:2368   */\n      tag_233\n      jump\t// in\n    tag_332:\n        /* \"#utility.yul\":2153:2375   */\n      swap3\n      swap2\n      pop\n      pop\n      jump\t// out\n        /* \"#utility.yul\":2381:2441   */\n    tag_234:\n        /* \"#utility.yul\":2409:2412   */\n      0x00\n        /* \"#utility.yul\":2430:2435   */\n      dup2\n        /* \"#utility.yul\":2423:2435   */\n      swap1\n      pop\n        /* \"#utility.yul\":2381:2441   */\n      swap2\n      swap1\n      pop\n      jump\t// out\n        /* \"#utility.yul\":2447:2589   */\n    tag_235:\n        /* \"#utility.yul\":2497:2506   */\n      0x00\n        /* \"#utility.yul\":2530:2583   */\n      tag_335\n        /* \"#utility.yul\":2548:2582   */\n      tag_336\n        /* \"#utility.yul\":2557:2581   */\n      tag_337\n        /* \"#utility.yul\":2575:2580   */\n      dup5\n        /* \"#utility.yul\":2557:2581   */\n      tag_225\n      jump\t// in\n    tag_337:\n        /* \"#utility.yul\":2548:2582   */\n      tag_234\n      jump\t// in\n    tag_336:\n        /* \"#utility.yul\":2530:2583   */\n      tag_225\n      jump\t// in\n    tag_335:\n        /* \"#utility.yul\":2517:2583   */\n      swap1\n      pop\n        /* \"#utility.yul\":2447:2589   */\n      swap2\n      swap1\n      pop\n      jump\t// out\n        /* \"#utility.yul\":2595:2721   */\n    tag_236:\n        /* \"#utility.yul\":2645:2654   */\n      0x00\n        /* \"#utility.yul\":2678:2715   */\n      tag_339\n        /* \"#utility.yul\":2709:2714   */\n      dup3\n        /* \"#utility.yul\":2678:2715   */\n      tag_235\n      jump\t// in\n    tag_339:\n        /* \"#utility.yul\":2665:2715   */\n      swap1\n      pop\n        /* \"#utility.yul\":2595:2721   */\n      swap2\n      swap1\n      pop\n      jump\t// out\n        /* \"#utility.yul\":2727:2869   */\n    tag_237:\n        /* \"#utility.yul\":2793:2802   */\n      0x00\n        /* \"#utility.yul\":2826:2863   */\n      tag_341\n        /* \"#utility.yul\":2857:2862   */\n      dup3\n        /* \"#utility.yul\":2826:2863   */\n      tag_236\n      jump\t// in\n    tag_341:\n        /* \"#utility.yul\":2813:2863   */\n      swap1\n      pop\n        /* \"#utility.yul\":2727:2869   */\n      swap2\n      swap1\n      pop\n      jump\t// out\n        /* \"#utility.yul\":2875:3038   */\n    tag_238:\n        /* \"#utility.yul\":2978:3031   */\n      tag_343\n        /* \"#utility.yul\":3025:3030   */\n      dup2\n        /* \"#utility.yul\":2978:3031   */\n      tag_237\n      jump\t// in\n    tag_343:\n        /* \"#utility.yul\":2973:2976   */\n      dup3\n        /* \"#utility.yul\":2966:3032   */\n      mstore\n        /* \"#utility.yul\":2875:3038   */\n      pop\n      pop\n      jump\t// out\n        /* \"#utility.yul\":3044:3298   */\n    tag_29:\n        /* \"#utility.yul\":3153:3157   */\n      0x00\n        /* \"#utility.yul\":3191:3193   */\n      0x20\n        /* \"#utility.yul\":3180:3189   */\n      dup3\n        /* \"#utility.yul\":3176:3194   */\n      add\n        /* \"#utility.yul\":3168:3194   */\n      swap1\n      pop\n        /* \"#utility.yul\":3204:3291   */\n      tag_345\n        /* \"#utility.yul\":3288:3289   */\n      0x00\n        /* \"#utility.yul\":3277:3286   */\n      dup4\n        /* \"#utility.yul\":3273:3290   */\n      add\n        /* \"#utility.yul\":3264:3270   */\n      dup5\n        /* \"#utility.yul\":3204:3291   */\n      tag_238\n      jump\t// in\n    tag_345:\n        /* \"#utility.yul\":3044:3298   */\n      swap3\n      swap2\n      pop\n      pop\n      jump\t// out\n        /* \"#utility.yul\":3304:3381   */\n    tag_239:\n        /* \"#utility.yul\":3341:3348   */\n      0x00\n        /* \"#utility.yul\":3370:3375   */\n      dup2\n        /* \"#utility.yul\":3359:3375   */\n      swap1\n      pop\n        /* \"#utility.yul\":3304:3381   */\n      swap2\n      swap1\n      pop\n      jump\t// out\n        /* \"#utility.yul\":3387:3509   */\n    tag_240:\n        /* \"#utility.yul\":3460:3484   */\n      tag_348\n        /* \"#utility.yul\":3478:3483   */\n      dup2\n        /* \"#utility.yul\":3460:3484   */\n      tag_239\n      jump\t// in\n    tag_348:\n        /* \"#utility.yul\":3453:3458   */\n      dup2\n        /* \"#utility.yul\":3450:3485   */\n      eq\n        /* \"#utility.yul\":3440:3503   */\n      tag_349\n      jumpi\n        /* \"#utility.yul\":3499:3500   */\n      0x00\n        /* \"#utility.yul\":3496:3497   */\n      dup1\n        /* \"#utility.yul\":3489:3501   */\n      revert\n        /* \"#utility.yul\":3440:3503   */\n    tag_349:\n        /* \"#utility.yul\":3387:3509   */\n      pop\n      jump\t// out\n        /* \"#utility.yul\":3515:3654   */\n    tag_241:\n        /* \"#utility.yul\":3561:3566   */\n      0x00\n        /* \"#utility.yul\":3599:3605   */\n      dup2\n        /* \"#utility.yul\":3586:3606   */\n      calldataload\n        /* \"#utility.yul\":3577:3606   */\n      swap1\n      pop\n        /* \"#utility.yul\":3615:3648   */\n      tag_351\n        /* \"#utility.yul\":3642:3647   */\n      dup2\n        /* \"#utility.yul\":3615:3648   */\n      tag_240\n      jump\t// in\n    tag_351:\n        /* \"#utility.yul\":3515:3654   */\n      swap3\n      swap2\n      pop\n      pop\n      jump\t// out\n        /* \"#utility.yul\":3660:4134   */\n    tag_32:\n        /* \"#utility.yul\":3728:3734   */\n      0x00\n        /* \"#utility.yul\":3736:3742   */\n      dup1\n        /* \"#utility.yul\":3785:3787   */\n      0x40\n        /* \"#utility.yul\":3773:3782   */\n      dup4\n        /* \"#utility.yul\":3764:3771   */\n      dup6\n        /* \"#utility.yul\":3760:3783   */\n      sub\n        /* \"#utility.yul\":3756:3788   */\n      slt\n        /* \"#utility.yul\":3753:3872   */\n      iszero\n      tag_353\n      jumpi\n        /* \"#utility.yul\":3791:3870   */\n      tag_354\n      tag_223\n      jump\t// in\n    tag_354:\n        /* \"#utility.yul\":3753:3872   */\n    tag_353:\n        /* \"#utility.yul\":3911:3912   */\n      0x00\n        /* \"#utility.yul\":3936:3989   */\n      tag_355\n        /* \"#utility.yul\":3981:3988   */\n      dup6\n        /* \"#utility.yul\":3972:3978   */\n      dup3\n        /* \"#utility.yul\":3961:3970   */\n      dup7\n        /* \"#utility.yul\":3957:3979   */\n      add\n        /* \"#utility.yul\":3936:3989   */\n      tag_241\n      jump\t// in\n    tag_355:\n        /* \"#utility.yul\":3926:3989   */\n      swap3\n      pop\n        /* \"#utility.yul\":3882:3999   */\n      pop\n        /* \"#utility.yul\":4038:4040   */\n      0x20\n        /* \"#utility.yul\":4064:4117   */\n      tag_356\n        /* \"#utility.yul\":4109:4116   */\n      dup6\n        /* \"#utility.yul\":4100:4106   */\n      dup3\n        /* \"#utility.yul\":4089:4098   */\n      dup7\n        /* \"#utility.yul\":4085:4107   */\n      add\n        /* \"#utility.yul\":4064:4117   */\n      tag_231\n      jump\t// in\n    tag_356:\n        /* \"#utility.yul\":4054:4117   */\n      swap2\n      pop\n        /* \"#utility.yul\":4009:4127   */\n      pop\n        /* \"#utility.yul\":3660:4134   */\n      swap3\n      pop\n      swap3\n      swap1\n      pop\n      jump\t// out\n        /* \"#utility.yul\":4140:4230   */\n    tag_242:\n        /* \"#utility.yul\":4174:4181   */\n      0x00\n        /* \"#utility.yul\":4217:4222   */\n      dup2\n        /* \"#utility.yul\":4210:4223   */\n      iszero\n        /* \"#utility.yul\":4203:4224   */\n      iszero\n        /* \"#utility.yul\":4192:4224   */\n      swap1\n      pop\n        /* \"#utility.yul\":4140:4230   */\n      swap2\n      swap1\n      pop\n      jump\t// out\n        /* \"#utility.yul\":4236:4345   */\n    tag_243:\n        /* \"#utility.yul\":4317:4338   */\n      tag_359\n        /* \"#utility.yul\":4332:4337   */\n      dup2\n        /* \"#utility.yul\":4317:4338   */\n      tag_242\n      jump\t// in\n    tag_359:\n        /* \"#utility.yul\":4312:4315   */\n      dup3\n        /* \"#utility.yul\":4305:4339   */\n      mstore\n        /* \"#utility.yul\":4236:4345   */\n      pop\n      pop\n      jump\t// out\n        /* \"#utility.yul\":4351:4671   */\n    tag_35:\n        /* \"#utility.yul\":4466:4470   */\n      0x00\n        /* \"#utility.yul\":4504:4506   */\n      0x40\n        /* \"#utility.yul\":4493:4502   */\n      dup3\n        /* \"#utility.yul\":4489:4507   */\n      add\n        /* \"#utility.yul\":4481:4507   */\n      swap1\n      pop\n        /* \"#utility.yul\":4517:4582   */\n      tag_361\n        /* \"#utility.yul\":4579:4580   */\n      0x00\n        /* \"#utility.yul\":4568:4577   */\n      dup4\n        /* \"#utility.yul\":4564:4581   */\n      add\n        /* \"#utility.yul\":4555:4561   */\n      dup6\n        /* \"#utility.yul\":4517:4582   */\n      tag_243\n      jump\t// in\n    tag_361:\n        /* \"#utility.yul\":4592:4664   */\n      tag_362\n        /* \"#utility.yul\":4660:4662   */\n      0x20\n        /* \"#utility.yul\":4649:4658   */\n      dup4\n        /* \"#utility.yul\":4645:4663   */\n      add\n        /* \"#utility.yul\":4636:4642   */\n      dup5\n        /* \"#utility.yul\":4592:4664   */\n      tag_232\n      jump\t// in\n    tag_362:\n        /* \"#utility.yul\":4351:4671   */\n      swap4\n      swap3\n      pop\n      pop\n      pop\n      jump\t// out\n        /* \"#utility.yul\":4677:4887   */\n    tag_40:\n        /* \"#utility.yul\":4764:4768   */\n      0x00\n        /* \"#utility.yul\":4802:4804   */\n      0x20\n        /* \"#utility.yul\":4791:4800   */\n      dup3\n        /* \"#utility.yul\":4787:4805   */\n      add\n        /* \"#utility.yul\":4779:4805   */\n      swap1\n      pop\n        /* \"#utility.yul\":4815:4880   */\n      tag_364\n        /* \"#utility.yul\":4877:4878   */\n      0x00\n        /* \"#utility.yul\":4866:4875   */\n      dup4\n        /* \"#utility.yul\":4862:4879   */\n      add\n        /* \"#utility.yul\":4853:4859   */\n      dup5\n        /* \"#utility.yul\":4815:4880   */\n      tag_243\n      jump\t// in\n    tag_364:\n        /* \"#utility.yul\":4677:4887   */\n      swap3\n      swap2\n      pop\n      pop\n      jump\t// out\n        /* \"#utility.yul\":4893:5010   */\n    tag_244:\n        /* \"#utility.yul\":5002:5003   */\n      0x00\n        /* \"#utility.yul\":4999:5000   */\n      dup1\n        /* \"#utility.yul\":4992:5004   */\n      revert\n        /* \"#utility.yul\":5016:5133   */\n    tag_245:\n        /* \"#utility.yul\":5125:5126   */\n      0x00\n        /* \"#utility.yul\":5122:5123   */\n      dup1\n        /* \"#utility.yul\":5115:5127   */\n      revert\n        /* \"#utility.yul\":5139:5256   */\n    tag_246:\n        /* \"#utility.yul\":5248:5249   */\n      0x00\n        /* \"#utility.yul\":5245:5246   */\n      dup1\n        /* \"#utility.yul\":5238:5250   */\n      revert\n        /* \"#utility.yul\":5276:5829   */\n    tag_247:\n        /* \"#utility.yul\":5334:5342   */\n      0x00\n        /* \"#utility.yul\":5344:5350   */\n      dup1\n        /* \"#utility.yul\":5394:5397   */\n      dup4\n        /* \"#utility.yul\":5387:5391   */\n      0x1f\n        /* \"#utility.yul\":5379:5385   */\n      dup5\n        /* \"#utility.yul\":5375:5392   */\n      add\n        /* \"#utility.yul\":5371:5398   */\n      slt\n        /* \"#utility.yul\":5361:5483   */\n      tag_369\n      jumpi\n        /* \"#utility.yul\":5402:5481   */\n      tag_370\n      tag_244\n      jump\t// in\n    tag_370:\n        /* \"#utility.yul\":5361:5483   */\n    tag_369:\n        /* \"#utility.yul\":5515:5521   */\n      dup3\n        /* \"#utility.yul\":5502:5522   */\n      calldataload\n        /* \"#utility.yul\":5492:5522   */\n      swap1\n      pop\n        /* \"#utility.yul\":5545:5563   */\n      0xffffffffffffffff\n        /* \"#utility.yul\":5537:5543   */\n      dup2\n        /* \"#utility.yul\":5534:5564   */\n      gt\n        /* \"#utility.yul\":5531:5648   */\n      iszero\n      tag_371\n      jumpi\n        /* \"#utility.yul\":5567:5646   */\n      tag_372\n      tag_245\n      jump\t// in\n    tag_372:\n        /* \"#utility.yul\":5531:5648   */\n    tag_371:\n        /* \"#utility.yul\":5681:5685   */\n      0x20\n        /* \"#utility.yul\":5673:5679   */\n      dup4\n        /* \"#utility.yul\":5669:5686   */\n      add\n        /* \"#utility.yul\":5657:5686   */\n      swap2\n      pop\n        /* \"#utility.yul\":5735:5738   */\n      dup4\n        /* \"#utility.yul\":5727:5731   */\n      0x01\n        /* \"#utility.yul\":5719:5725   */\n      dup3\n        /* \"#utility.yul\":5715:5732   */\n      mul\n        /* \"#utility.yul\":5705:5713   */\n      dup4\n        /* \"#utility.yul\":5701:5733   */\n      add\n        /* \"#utility.yul\":5698:5739   */\n      gt\n        /* \"#utility.yul\":5695:5823   */\n      iszero\n      tag_373\n      jumpi\n        /* \"#utility.yul\":5742:5821   */\n      tag_374\n      tag_246\n      jump\t// in\n    tag_374:\n        /* \"#utility.yul\":5695:5823   */\n    tag_373:\n        /* \"#utility.yul\":5276:5829   */\n      swap3\n      pop\n      swap3\n      swap1\n      pop\n      jump\t// out\n        /* \"#utility.yul\":5835:6509   */\n    tag_43:\n        /* \"#utility.yul\":5915:5921   */\n      0x00\n        /* \"#utility.yul\":5923:5929   */\n      dup1\n        /* \"#utility.yul\":5931:5937   */\n      0x00\n        /* \"#utility.yul\":5980:5982   */\n      0x40\n        /* \"#utility.yul\":5968:5977   */\n      dup5\n        /* \"#utility.yul\":5959:5966   */\n      dup7\n        /* \"#utility.yul\":5955:5978   */\n      sub\n        /* \"#utility.yul\":5951:5983   */\n      slt\n        /* \"#utility.yul\":5948:6067   */\n      iszero\n      tag_376\n      jumpi\n        /* \"#utility.yul\":5986:6065   */\n      tag_377\n      tag_223\n      jump\t// in\n    tag_377:\n        /* \"#utility.yul\":5948:6067   */\n    tag_376:\n        /* \"#utility.yul\":6106:6107   */\n      0x00\n        /* \"#utility.yul\":6131:6184   */\n      tag_378\n        /* \"#utility.yul\":6176:6183   */\n      dup7\n        /* \"#utility.yul\":6167:6173   */\n      dup3\n        /* \"#utility.yul\":6156:6165   */\n      dup8\n        /* \"#utility.yul\":6152:6174   */\n      add\n        /* \"#utility.yul\":6131:6184   */\n      tag_228\n      jump\t// in\n    tag_378:\n        /* \"#utility.yul\":6121:6184   */\n      swap4\n      pop\n        /* \"#utility.yul\":6077:6194   */\n      pop\n        /* \"#utility.yul\":6261:6263   */\n      0x20\n        /* \"#utility.yul\":6250:6259   */\n      dup5\n        /* \"#utility.yul\":6246:6264   */\n      add\n        /* \"#utility.yul\":6233:6265   */\n      calldataload\n        /* \"#utility.yul\":6292:6310   */\n      0xffffffffffffffff\n        /* \"#utility.yul\":6284:6290   */\n      dup2\n        /* \"#utility.yul\":6281:6311   */\n      gt\n        /* \"#utility.yul\":6278:6395   */\n      iszero\n      tag_379\n      jumpi\n        /* \"#utility.yul\":6314:6393   */\n      tag_380\n      tag_224\n      jump\t// in\n    tag_380:\n        /* \"#utility.yul\":6278:6395   */\n    tag_379:\n        /* \"#utility.yul\":6427:6492   */\n      tag_381\n        /* \"#utility.yul\":6484:6491   */\n      dup7\n        /* \"#utility.yul\":6475:6481   */\n      dup3\n        /* \"#utility.yul\":6464:6473   */\n      dup8\n        /* \"#utility.yul\":6460:6482   */\n      add\n        /* \"#utility.yul\":6427:6492   */\n      tag_247\n      jump\t// in\n    tag_381:\n        /* \"#utility.yul\":6409:6492   */\n      swap3\n      pop\n      swap3\n      pop\n        /* \"#utility.yul\":6204:6502   */\n      pop\n        /* \"#utility.yul\":5835:6509   */\n      swap3\n      pop\n      swap3\n      pop\n      swap3\n      jump\t// out\n        /* \"#utility.yul\":6515:6844   */\n    tag_47:\n        /* \"#utility.yul\":6574:6580   */\n      0x00\n        /* \"#utility.yul\":6623:6625   */\n      0x20\n        /* \"#utility.yul\":6611:6620   */\n      dup3\n        /* \"#utility.yul\":6602:6609   */\n      dup5\n        /* \"#utility.yul\":6598:6621   */\n      sub\n        /* \"#utility.yul\":6594:6626   */\n      slt\n        /* \"#utility.yul\":6591:6710   */\n      iszero\n      tag_383\n      jumpi\n        /* \"#utility.yul\":6629:6708   */\n      tag_384\n      tag_223\n      jump\t// in\n    tag_384:\n        /* \"#utility.yul\":6591:6710   */\n    tag_383:\n        /* \"#utility.yul\":6749:6750   */\n      0x00\n        /* \"#utility.yul\":6774:6827   */\n      tag_385\n        /* \"#utility.yul\":6819:6826   */\n      dup5\n        /* \"#utility.yul\":6810:6816   */\n      dup3\n        /* \"#utility.yul\":6799:6808   */\n      dup6\n        /* \"#utility.yul\":6795:6817   */\n      add\n        /* \"#utility.yul\":6774:6827   */\n      tag_241\n      jump\t// in\n    tag_385:\n        /* \"#utility.yul\":6764:6827   */\n      swap2\n      pop\n        /* \"#utility.yul\":6720:6837   */\n      pop\n        /* \"#utility.yul\":6515:6844   */\n      swap3\n      swap2\n      pop\n      pop\n      jump\t// out\n        /* \"#utility.yul\":6850:6948   */\n    tag_248:\n        /* \"#utility.yul\":6901:6907   */\n      0x00\n        /* \"#utility.yul\":6935:6940   */\n      dup2\n        /* \"#utility.yul\":6929:6941   */\n      mload\n        /* \"#utility.yul\":6919:6941   */\n      swap1\n      pop\n        /* \"#utility.yul\":6850:6948   */\n      swap2\n      swap1\n      pop\n      jump\t// out\n        /* \"#utility.yul\":6954:7122   */\n    tag_249:\n        /* \"#utility.yul\":7037:7048   */\n      0x00\n        /* \"#utility.yul\":7071:7077   */\n      dup3\n        /* \"#utility.yul\":7066:7069   */\n      dup3\n        /* \"#utility.yul\":7059:7078   */\n      mstore\n        /* \"#utility.yul\":7111:7115   */\n      0x20\n        /* \"#utility.yul\":7106:7109   */\n      dup3\n        /* \"#utility.yul\":7102:7116   */\n      add\n        /* \"#utility.yul\":7087:7116   */\n      swap1\n      pop\n        /* \"#utility.yul\":6954:7122   */\n      swap3\n      swap2\n      pop\n      pop\n      jump\t// out\n        /* \"#utility.yul\":7128:7374   */\n    tag_250:\n        /* \"#utility.yul\":7209:7210   */\n      0x00\n        /* \"#utility.yul\":7219:7332   */\n    tag_389:\n        /* \"#utility.yul\":7233:7239   */\n      dup4\n        /* \"#utility.yul\":7230:7231   */\n      dup2\n        /* \"#utility.yul\":7227:7240   */\n      lt\n        /* \"#utility.yul\":7219:7332   */\n      iszero\n      tag_391\n      jumpi\n        /* \"#utility.yul\":7318:7319   */\n      dup1\n        /* \"#utility.yul\":7313:7316   */\n      dup3\n        /* \"#utility.yul\":7309:7320   */\n      add\n        /* \"#utility.yul\":7303:7321   */\n      mload\n        /* \"#utility.yul\":7299:7300   */\n      dup2\n        /* \"#utility.yul\":7294:7297   */\n      dup5\n        /* \"#utility.yul\":7290:7301   */\n      add\n        /* \"#utility.yul\":7283:7322   */\n      mstore\n        /* \"#utility.yul\":7255:7257   */\n      0x20\n        /* \"#utility.yul\":7252:7253   */\n      dup2\n        /* \"#utility.yul\":7248:7258   */\n      add\n        /* \"#utility.yul\":7243:7258   */\n      swap1\n      pop\n        /* \"#utility.yul\":7219:7332   */\n      jump(tag_389)\n    tag_391:\n        /* \"#utility.yul\":7366:7367   */\n      0x00\n        /* \"#utility.yul\":7357:7363   */\n      dup5\n        /* \"#utility.yul\":7352:7355   */\n      dup5\n        /* \"#utility.yul\":7348:7364   */\n      add\n        /* \"#utility.yul\":7341:7368   */\n      mstore\n        /* \"#utility.yul\":7190:7374   */\n      pop\n        /* \"#utility.yul\":7128:7374   */\n      pop\n      pop\n      pop\n      jump\t// out\n        /* \"#utility.yul\":7380:7482   */\n    tag_251:\n        /* \"#utility.yul\":7421:7427   */\n      0x00\n        /* \"#utility.yul\":7472:7474   */\n      0x1f\n        /* \"#utility.yul\":7468:7475   */\n      not\n        /* \"#utility.yul\":7463:7465   */\n      0x1f\n        /* \"#utility.yul\":7456:7461   */\n      dup4\n        /* \"#utility.yul\":7452:7466   */\n      add\n        /* \"#utility.yul\":7448:7476   */\n      and\n        /* \"#utility.yul\":7438:7476   */\n      swap1\n      pop\n        /* \"#utility.yul\":7380:7482   */\n      swap2\n      swap1\n      pop\n      jump\t// out\n        /* \"#utility.yul\":7488:7861   */\n    tag_252:\n        /* \"#utility.yul\":7574:7577   */\n      0x00\n        /* \"#utility.yul\":7602:7640   */\n      tag_394\n        /* \"#utility.yul\":7634:7639   */\n      dup3\n        /* \"#utility.yul\":7602:7640   */\n      tag_248\n      jump\t// in\n    tag_394:\n        /* \"#utility.yul\":7656:7726   */\n      tag_395\n        /* \"#utility.yul\":7719:7725   */\n      dup2\n        /* \"#utility.yul\":7714:7717   */\n      dup6\n        /* \"#utility.yul\":7656:7726   */\n      tag_249\n      jump\t// in\n    tag_395:\n        /* \"#utility.yul\":7649:7726   */\n      swap4\n      pop\n        /* \"#utility.yul\":7735:7800   */\n      tag_396\n        /* \"#utility.yul\":7793:7799   */\n      dup2\n        /* \"#utility.yul\":7788:7791   */\n      dup6\n        /* \"#utility.yul\":7781:7785   */\n      0x20\n        /* \"#utility.yul\":7774:7779   */\n      dup7\n        /* \"#utility.yul\":7770:7786   */\n      add\n        /* \"#utility.yul\":7735:7800   */\n      tag_250\n      jump\t// in\n    tag_396:\n        /* \"#utility.yul\":7825:7854   */\n      tag_397\n        /* \"#utility.yul\":7847:7853   */\n      dup2\n        /* \"#utility.yul\":7825:7854   */\n      tag_251\n      jump\t// in\n    tag_397:\n        /* \"#utility.yul\":7820:7823   */\n      dup5\n        /* \"#utility.yul\":7816:7855   */\n      add\n        /* \"#utility.yul\":7809:7855   */\n      swap2\n      pop\n        /* \"#utility.yul\":7578:7861   */\n      pop\n        /* \"#utility.yul\":7488:7861   */\n      swap3\n      swap2\n      pop\n      pop\n      jump\t// out\n        /* \"#utility.yul\":7867:8384   */\n    tag_54:\n        /* \"#utility.yul\":8028:8032   */\n      0x00\n        /* \"#utility.yul\":8066:8068   */\n      0x60\n        /* \"#utility.yul\":8055:8064   */\n      dup3\n        /* \"#utility.yul\":8051:8069   */\n      add\n        /* \"#utility.yul\":8043:8069   */\n      swap1\n      pop\n        /* \"#utility.yul\":8079:8144   */\n      tag_399\n        /* \"#utility.yul\":8141:8142   */\n      0x00\n        /* \"#utility.yul\":8130:8139   */\n      dup4\n        /* \"#utility.yul\":8126:8143   */\n      add\n        /* \"#utility.yul\":8117:8123   */\n      dup7\n        /* \"#utility.yul\":8079:8144   */\n      tag_243\n      jump\t// in\n    tag_399:\n        /* \"#utility.yul\":8191:8200   */\n      dup2\n        /* \"#utility.yul\":8185:8189   */\n      dup2\n        /* \"#utility.yul\":8181:8201   */\n      sub\n        /* \"#utility.yul\":8176:8178   */\n      0x20\n        /* \"#utility.yul\":8165:8174   */\n      dup4\n        /* \"#utility.yul\":8161:8179   */\n      add\n        /* \"#utility.yul\":8154:8202   */\n      mstore\n        /* \"#utility.yul\":8219:8295   */\n      tag_400\n        /* \"#utility.yul\":8290:8294   */\n      dup2\n        /* \"#utility.yul\":8281:8287   */\n      dup6\n        /* \"#utility.yul\":8219:8295   */\n      tag_252\n      jump\t// in\n    tag_400:\n        /* \"#utility.yul\":8211:8295   */\n      swap1\n      pop\n        /* \"#utility.yul\":8305:8377   */\n      tag_401\n        /* \"#utility.yul\":8373:8375   */\n      0x40\n        /* \"#utility.yul\":8362:8371   */\n      dup4\n        /* \"#utility.yul\":8358:8376   */\n      add\n        /* \"#utility.yul\":8349:8355   */\n      dup5\n        /* \"#utility.yul\":8305:8377   */\n      tag_232\n      jump\t// in\n    tag_401:\n        /* \"#utility.yul\":7867:8384   */\n      swap5\n      swap4\n      pop\n      pop\n      pop\n      pop\n      jump\t// out\n        /* \"#utility.yul\":8390:8699   */\n    tag_63:\n        /* \"#utility.yul\":8501:8505   */\n      0x00\n        /* \"#utility.yul\":8539:8541   */\n      0x20\n        /* \"#utility.yul\":8528:8537   */\n      dup3\n        /* \"#utility.yul\":8524:8542   */\n      add\n        /* \"#utility.yul\":8516:8542   */\n      swap1\n      pop\n        /* \"#utility.yul\":8588:8597   */\n      dup2\n        /* \"#utility.yul\":8582:8586   */\n      dup2\n        /* \"#utility.yul\":8578:8598   */\n      sub\n        /* \"#utility.yul\":8574:8575   */\n      0x00\n        /* \"#utility.yul\":8563:8572   */\n      dup4\n        /* \"#utility.yul\":8559:8576   */\n      add\n        /* \"#utility.yul\":8552:8599   */\n      mstore\n        /* \"#utility.yul\":8616:8692   */\n      tag_403\n        /* \"#utility.yul\":8687:8691   */\n      dup2\n        /* \"#utility.yul\":8678:8684   */\n      dup5\n        /* \"#utility.yul\":8616:8692   */\n      tag_252\n      jump\t// in\n    tag_403:\n        /* \"#utility.yul\":8608:8692   */\n      swap1\n      pop\n        /* \"#utility.yul\":8390:8699   */\n      swap3\n      swap2\n      pop\n      pop\n      jump\t// out\n        /* \"#utility.yul\":8705:9034   */\n    tag_70:\n        /* \"#utility.yul\":8764:8770   */\n      0x00\n        /* \"#utility.yul\":8813:8815   */\n      0x20\n        /* \"#utility.yul\":8801:8810   */\n      dup3\n        /* \"#utility.yul\":8792:8799   */\n      dup5\n        /* \"#utility.yul\":8788:8811   */\n      sub\n        /* \"#utility.yul\":8784:8816   */\n      slt\n        /* \"#utility.yul\":8781:8900   */\n      iszero\n      tag_405\n      jumpi\n        /* \"#utility.yul\":8819:8898   */\n      tag_406\n      tag_223\n      jump\t// in\n    tag_406:\n        /* \"#utility.yul\":8781:8900   */\n    tag_405:\n        /* \"#utility.yul\":8939:8940   */\n      0x00\n        /* \"#utility.yul\":8964:9017   */\n      tag_407\n        /* \"#utility.yul\":9009:9016   */\n      dup5\n        /* \"#utility.yul\":9000:9006   */\n      dup3\n        /* \"#utility.yul\":8989:8998   */\n      dup6\n        /* \"#utility.yul\":8985:9007   */\n      add\n        /* \"#utility.yul\":8964:9017   */\n      tag_228\n      jump\t// in\n    tag_407:\n        /* \"#utility.yul\":8954:9017   */\n      swap2\n      pop\n        /* \"#utility.yul\":8910:9027   */\n      pop\n        /* \"#utility.yul\":8705:9034   */\n      swap3\n      swap2\n      pop\n      pop\n      jump\t// out\n        /* \"#utility.yul\":9040:9220   */\n    tag_253:\n        /* \"#utility.yul\":9088:9165   */\n      0x4e487b7100000000000000000000000000000000000000000000000000000000\n        /* \"#utility.yul\":9085:9086   */\n      0x00\n        /* \"#utility.yul\":9078:9166   */\n      mstore\n        /* \"#utility.yul\":9185:9189   */\n      0x41\n        /* \"#utility.yul\":9182:9183   */\n      0x04\n        /* \"#utility.yul\":9175:9190   */\n      mstore\n        /* \"#utility.yul\":9209:9213   */\n      0x24\n        /* \"#utility.yul\":9206:9207   */\n      0x00\n        /* \"#utility.yul\":9199:9214   */\n      revert\n        /* \"#utility.yul\":9226:9507   */\n    tag_254:\n        /* \"#utility.yul\":9309:9336   */\n      tag_410\n        /* \"#utility.yul\":9331:9335   */\n      dup3\n        /* \"#utility.yul\":9309:9336   */\n      tag_251\n      jump\t// in\n    tag_410:\n        /* \"#utility.yul\":9301:9307   */\n      dup2\n        /* \"#utility.yul\":9297:9337   */\n      add\n        /* \"#utility.yul\":9439:9445   */\n      dup2\n        /* \"#utility.yul\":9427:9437   */\n      dup2\n        /* \"#utility.yul\":9424:9446   */\n      lt\n        /* \"#utility.yul\":9403:9421   */\n      0xffffffffffffffff\n        /* \"#utility.yul\":9391:9401   */\n      dup3\n        /* \"#utility.yul\":9388:9422   */\n      gt\n        /* \"#utility.yul\":9385:9447   */\n      or\n        /* \"#utility.yul\":9382:9470   */\n      iszero\n      tag_411\n      jumpi\n        /* \"#utility.yul\":9450:9468   */\n      tag_412\n      tag_253\n      jump\t// in\n    tag_412:\n        /* \"#utility.yul\":9382:9470   */\n    tag_411:\n        /* \"#utility.yul\":9490:9500   */\n      dup1\n        /* \"#utility.yul\":9486:9488   */\n      0x40\n        /* \"#utility.yul\":9479:9501   */\n      mstore\n        /* \"#utility.yul\":9269:9507   */\n      pop\n        /* \"#utility.yul\":9226:9507   */\n      pop\n      pop\n      jump\t// out\n        /* \"#utility.yul\":9513:9642   */\n    tag_255:\n        /* \"#utility.yul\":9547:9553   */\n      0x00\n        /* \"#utility.yul\":9574:9594   */\n      tag_414\n      tag_222\n      jump\t// in\n    tag_414:\n        /* \"#utility.yul\":9564:9594   */\n      swap1\n      pop\n        /* \"#utility.yul\":9603:9636   */\n      tag_415\n        /* \"#utility.yul\":9631:9635   */\n      dup3\n        /* \"#utility.yul\":9623:9629   */\n      dup3\n        /* \"#utility.yul\":9603:9636   */\n      tag_254\n      jump\t// in\n    tag_415:\n        /* \"#utility.yul\":9513:9642   */\n      swap2\n      swap1\n      pop\n      jump\t// out\n        /* \"#utility.yul\":9648:9959   */\n    tag_256:\n        /* \"#utility.yul\":9725:9729   */\n      0x00\n        /* \"#utility.yul\":9815:9833   */\n      0xffffffffffffffff\n        /* \"#utility.yul\":9807:9813   */\n      dup3\n        /* \"#utility.yul\":9804:9834   */\n      gt\n        /* \"#utility.yul\":9801:9857   */\n      iszero\n      tag_417\n      jumpi\n        /* \"#utility.yul\":9837:9855   */\n      tag_418\n      tag_253\n      jump\t// in\n    tag_418:\n        /* \"#utility.yul\":9801:9857   */\n    tag_417:\n        /* \"#utility.yul\":9887:9891   */\n      0x20\n        /* \"#utility.yul\":9879:9885   */\n      dup3\n        /* \"#utility.yul\":9875:9892   */\n      mul\n        /* \"#utility.yul\":9867:9892   */\n      swap1\n      pop\n        /* \"#utility.yul\":9947:9951   */\n      0x20\n        /* \"#utility.yul\":9941:9945   */\n      dup2\n        /* \"#utility.yul\":9937:9952   */\n      add\n        /* \"#utility.yul\":9929:9952   */\n      swap1\n      pop\n        /* \"#utility.yul\":9648:9959   */\n      swap2\n      swap1\n      pop\n      jump\t// out\n        /* \"#utility.yul\":9965:10108   */\n    tag_257:\n        /* \"#utility.yul\":10022:10027   */\n      0x00\n        /* \"#utility.yul\":10053:10059   */\n      dup2\n        /* \"#utility.yul\":10047:10060   */\n      mload\n        /* \"#utility.yul\":10038:10060   */\n      swap1\n      pop\n        /* \"#utility.yul\":10069:10102   */\n      tag_420\n        /* \"#utility.yul\":10096:10101   */\n      dup2\n        /* \"#utility.yul\":10069:10102   */\n      tag_227\n      jump\t// in\n    tag_420:\n        /* \"#utility.yul\":9965:10108   */\n      swap3\n      swap2\n      pop\n      pop\n      jump\t// out\n        /* \"#utility.yul\":10131:10863   */\n    tag_258:\n        /* \"#utility.yul\":10238:10243   */\n      0x00\n        /* \"#utility.yul\":10263:10344   */\n      tag_422\n        /* \"#utility.yul\":10279:10343   */\n      tag_423\n        /* \"#utility.yul\":10336:10342   */\n      dup5\n        /* \"#utility.yul\":10279:10343   */\n      tag_256\n      jump\t// in\n    tag_423:\n        /* \"#utility.yul\":10263:10344   */\n      tag_255\n      jump\t// in\n    tag_422:\n        /* \"#utility.yul\":10254:10344   */\n      swap1\n      pop\n        /* \"#utility.yul\":10364:10369   */\n      dup1\n        /* \"#utility.yul\":10393:10399   */\n      dup4\n        /* \"#utility.yul\":10386:10391   */\n      dup3\n        /* \"#utility.yul\":10379:10400   */\n      mstore\n        /* \"#utility.yul\":10427:10431   */\n      0x20\n        /* \"#utility.yul\":10420:10425   */\n      dup3\n        /* \"#utility.yul\":10416:10432   */\n      add\n        /* \"#utility.yul\":10409:10432   */\n      swap1\n      pop\n        /* \"#utility.yul\":10480:10484   */\n      0x20\n        /* \"#utility.yul\":10472:10478   */\n      dup5\n        /* \"#utility.yul\":10468:10485   */\n      mul\n        /* \"#utility.yul\":10460:10466   */\n      dup4\n        /* \"#utility.yul\":10456:10486   */\n      add\n        /* \"#utility.yul\":10509:10512   */\n      dup6\n        /* \"#utility.yul\":10501:10507   */\n      dup2\n        /* \"#utility.yul\":10498:10513   */\n      gt\n        /* \"#utility.yul\":10495:10617   */\n      iszero\n      tag_424\n      jumpi\n        /* \"#utility.yul\":10528:10607   */\n      tag_425\n      tag_246\n      jump\t// in\n    tag_425:\n        /* \"#utility.yul\":10495:10617   */\n    tag_424:\n        /* \"#utility.yul\":10643:10649   */\n      dup4\n        /* \"#utility.yul\":10626:10857   */\n    tag_426:\n        /* \"#utility.yul\":10660:10666   */\n      dup2\n        /* \"#utility.yul\":10655:10658   */\n      dup2\n        /* \"#utility.yul\":10652:10667   */\n      lt\n        /* \"#utility.yul\":10626:10857   */\n      iszero\n      tag_428\n      jumpi\n        /* \"#utility.yul\":10735:10738   */\n      dup1\n        /* \"#utility.yul\":10764:10812   */\n      tag_429\n        /* \"#utility.yul\":10808:10811   */\n      dup9\n        /* \"#utility.yul\":10796:10806   */\n      dup3\n        /* \"#utility.yul\":10764:10812   */\n      tag_257\n      jump\t// in\n    tag_429:\n        /* \"#utility.yul\":10759:10762   */\n      dup5\n        /* \"#utility.yul\":10752:10813   */\n      mstore\n        /* \"#utility.yul\":10842:10846   */\n      0x20\n        /* \"#utility.yul\":10837:10840   */\n      dup5\n        /* \"#utility.yul\":10833:10847   */\n      add\n        /* \"#utility.yul\":10826:10847   */\n      swap4\n      pop\n        /* \"#utility.yul\":10702:10857   */\n      pop\n        /* \"#utility.yul\":10686:10690   */\n      0x20\n        /* \"#utility.yul\":10681:10684   */\n      dup2\n        /* \"#utility.yul\":10677:10691   */\n      add\n        /* \"#utility.yul\":10670:10691   */\n      swap1\n      pop\n        /* \"#utility.yul\":10626:10857   */\n      jump(tag_426)\n    tag_428:\n        /* \"#utility.yul\":10630:10651   */\n      pop\n        /* \"#utility.yul\":10244:10863   */\n      pop\n      pop\n        /* \"#utility.yul\":10131:10863   */\n      swap4\n      swap3\n      pop\n      pop\n      pop\n      jump\t// out\n        /* \"#utility.yul\":10886:11271   */\n    tag_259:\n        /* \"#utility.yul\":10968:10973   */\n      0x00\n        /* \"#utility.yul\":11017:11020   */\n      dup3\n        /* \"#utility.yul\":11010:11014   */\n      0x1f\n        /* \"#utility.yul\":11002:11008   */\n      dup4\n        /* \"#utility.yul\":10998:11015   */\n      add\n        /* \"#utility.yul\":10994:11021   */\n      slt\n        /* \"#utility.yul\":10984:11106   */\n      tag_431\n      jumpi\n        /* \"#utility.yul\":11025:11104   */\n      tag_432\n      tag_244\n      jump\t// in\n    tag_432:\n        /* \"#utility.yul\":10984:11106   */\n    tag_431:\n        /* \"#utility.yul\":11135:11141   */\n      dup2\n        /* \"#utility.yul\":11129:11142   */\n      mload\n        /* \"#utility.yul\":11160:11265   */\n      tag_433\n        /* \"#utility.yul\":11261:11264   */\n      dup5\n        /* \"#utility.yul\":11253:11259   */\n      dup3\n        /* \"#utility.yul\":11246:11250   */\n      0x20\n        /* \"#utility.yul\":11238:11244   */\n      dup7\n        /* \"#utility.yul\":11234:11251   */\n      add\n        /* \"#utility.yul\":11160:11265   */\n      tag_258\n      jump\t// in\n    tag_433:\n        /* \"#utility.yul\":11151:11265   */\n      swap2\n      pop\n        /* \"#utility.yul\":10974:11271   */\n      pop\n        /* \"#utility.yul\":10886:11271   */\n      swap3\n      swap2\n      pop\n      pop\n      jump\t// out\n        /* \"#utility.yul\":11277:11831   */\n    tag_81:\n        /* \"#utility.yul\":11372:11378   */\n      0x00\n        /* \"#utility.yul\":11421:11423   */\n      0x20\n        /* \"#utility.yul\":11409:11418   */\n      dup3\n        /* \"#utility.yul\":11400:11407   */\n      dup5\n        /* \"#utility.yul\":11396:11419   */\n      sub\n        /* \"#utility.yul\":11392:11424   */\n      slt\n        /* \"#utility.yul\":11389:11508   */\n      iszero\n      tag_435\n      jumpi\n        /* \"#utility.yul\":11427:11506   */\n      tag_436\n      tag_223\n      jump\t// in\n    tag_436:\n        /* \"#utility.yul\":11389:11508   */\n    tag_435:\n        /* \"#utility.yul\":11568:11569   */\n      0x00\n        /* \"#utility.yul\":11557:11566   */\n      dup3\n        /* \"#utility.yul\":11553:11570   */\n      add\n        /* \"#utility.yul\":11547:11571   */\n      mload\n        /* \"#utility.yul\":11598:11616   */\n      0xffffffffffffffff\n        /* \"#utility.yul\":11590:11596   */\n      dup2\n        /* \"#utility.yul\":11587:11617   */\n      gt\n        /* \"#utility.yul\":11584:11701   */\n      iszero\n      tag_437\n      jumpi\n        /* \"#utility.yul\":11620:11699   */\n      tag_438\n      tag_224\n      jump\t// in\n    tag_438:\n        /* \"#utility.yul\":11584:11701   */\n    tag_437:\n        /* \"#utility.yul\":11725:11814   */\n      tag_439\n        /* \"#utility.yul\":11806:11813   */\n      dup5\n        /* \"#utility.yul\":11797:11803   */\n      dup3\n        /* \"#utility.yul\":11786:11795   */\n      dup6\n        /* \"#utility.yul\":11782:11804   */\n      add\n        /* \"#utility.yul\":11725:11814   */\n      tag_259\n      jump\t// in\n    tag_439:\n        /* \"#utility.yul\":11715:11814   */\n      swap2\n      pop\n        /* \"#utility.yul\":11518:11824   */\n      pop\n        /* \"#utility.yul\":11277:11831   */\n      swap3\n      swap2\n      pop\n      pop\n      jump\t// out\n        /* \"#utility.yul\":11837:12148   */\n    tag_260:\n        /* \"#utility.yul\":11914:11918   */\n      0x00\n        /* \"#utility.yul\":12004:12022   */\n      0xffffffffffffffff\n        /* \"#utility.yul\":11996:12002   */\n      dup3\n        /* \"#utility.yul\":11993:12023   */\n      gt\n        /* \"#utility.yul\":11990:12046   */\n      iszero\n      tag_441\n      jumpi\n        /* \"#utility.yul\":12026:12044   */\n      tag_442\n      tag_253\n      jump\t// in\n    tag_442:\n        /* \"#utility.yul\":11990:12046   */\n    tag_441:\n        /* \"#utility.yul\":12076:12080   */\n      0x20\n        /* \"#utility.yul\":12068:12074   */\n      dup3\n        /* \"#utility.yul\":12064:12081   */\n      mul\n        /* \"#utility.yul\":12056:12081   */\n      swap1\n      pop\n        /* \"#utility.yul\":12136:12140   */\n      0x20\n        /* \"#utility.yul\":12130:12134   */\n      dup2\n        /* \"#utility.yul\":12126:12141   */\n      add\n        /* \"#utility.yul\":12118:12141   */\n      swap1\n      pop\n        /* \"#utility.yul\":11837:12148   */\n      swap2\n      swap1\n      pop\n      jump\t// out\n        /* \"#utility.yul\":12154:12297   */\n    tag_261:\n        /* \"#utility.yul\":12211:12216   */\n      0x00\n        /* \"#utility.yul\":12242:12248   */\n      dup2\n        /* \"#utility.yul\":12236:12249   */\n      mload\n        /* \"#utility.yul\":12227:12249   */\n      swap1\n      pop\n        /* \"#utility.yul\":12258:12291   */\n      tag_444\n        /* \"#utility.yul\":12285:12290   */\n      dup2\n        /* \"#utility.yul\":12258:12291   */\n      tag_230\n      jump\t// in\n    tag_444:\n        /* \"#utility.yul\":12154:12297   */\n      swap3\n      swap2\n      pop\n      pop\n      jump\t// out\n        /* \"#utility.yul\":12320:13052   */\n    tag_262:\n        /* \"#utility.yul\":12427:12432   */\n      0x00\n        /* \"#utility.yul\":12452:12533   */\n      tag_446\n        /* \"#utility.yul\":12468:12532   */\n      tag_447\n        /* \"#utility.yul\":12525:12531   */\n      dup5\n        /* \"#utility.yul\":12468:12532   */\n      tag_260\n      jump\t// in\n    tag_447:\n        /* \"#utility.yul\":12452:12533   */\n      tag_255\n      jump\t// in\n    tag_446:\n        /* \"#utility.yul\":12443:12533   */\n      swap1\n      pop\n        /* \"#utility.yul\":12553:12558   */\n      dup1\n        /* \"#utility.yul\":12582:12588   */\n      dup4\n        /* \"#utility.yul\":12575:12580   */\n      dup3\n        /* \"#utility.yul\":12568:12589   */\n      mstore\n        /* \"#utility.yul\":12616:12620   */\n      0x20\n        /* \"#utility.yul\":12609:12614   */\n      dup3\n        /* \"#utility.yul\":12605:12621   */\n      add\n        /* \"#utility.yul\":12598:12621   */\n      swap1\n      pop\n        /* \"#utility.yul\":12669:12673   */\n      0x20\n        /* \"#utility.yul\":12661:12667   */\n      dup5\n        /* \"#utility.yul\":12657:12674   */\n      mul\n        /* \"#utility.yul\":12649:12655   */\n      dup4\n        /* \"#utility.yul\":12645:12675   */\n      add\n        /* \"#utility.yul\":12698:12701   */\n      dup6\n        /* \"#utility.yul\":12690:12696   */\n      dup2\n        /* \"#utility.yul\":12687:12702   */\n      gt\n        /* \"#utility.yul\":12684:12806   */\n      iszero\n      tag_448\n      jumpi\n        /* \"#utility.yul\":12717:12796   */\n      tag_449\n      tag_246\n      jump\t// in\n    tag_449:\n        /* \"#utility.yul\":12684:12806   */\n    tag_448:\n        /* \"#utility.yul\":12832:12838   */\n      dup4\n        /* \"#utility.yul\":12815:13046   */\n    tag_450:\n        /* \"#utility.yul\":12849:12855   */\n      dup2\n        /* \"#utility.yul\":12844:12847   */\n      dup2\n        /* \"#utility.yul\":12841:12856   */\n      lt\n        /* \"#utility.yul\":12815:13046   */\n      iszero\n      tag_452\n      jumpi\n        /* \"#utility.yul\":12924:12927   */\n      dup1\n        /* \"#utility.yul\":12953:13001   */\n      tag_453\n        /* \"#utility.yul\":12997:13000   */\n      dup9\n        /* \"#utility.yul\":12985:12995   */\n      dup3\n        /* \"#utility.yul\":12953:13001   */\n      tag_261\n      jump\t// in\n    tag_453:\n        /* \"#utility.yul\":12948:12951   */\n      dup5\n        /* \"#utility.yul\":12941:13002   */\n      mstore\n        /* \"#utility.yul\":13031:13035   */\n      0x20\n        /* \"#utility.yul\":13026:13029   */\n      dup5\n        /* \"#utility.yul\":13022:13036   */\n      add\n        /* \"#utility.yul\":13015:13036   */\n      swap4\n      pop\n        /* \"#utility.yul\":12891:13046   */\n      pop\n        /* \"#utility.yul\":12875:12879   */\n      0x20\n        /* \"#utility.yul\":12870:12873   */\n      dup2\n        /* \"#utility.yul\":12866:12880   */\n      add\n        /* \"#utility.yul\":12859:12880   */\n      swap1\n      pop\n        /* \"#utility.yul\":12815:13046   */\n      jump(tag_450)\n    tag_452:\n        /* \"#utility.yul\":12819:12840   */\n      pop\n        /* \"#utility.yul\":12433:13052   */\n      pop\n      pop\n        /* \"#utility.yul\":12320:13052   */\n      swap4\n      swap3\n      pop\n      pop\n      pop\n      jump\t// out\n        /* \"#utility.yul\":13075:13460   */\n    tag_263:\n        /* \"#utility.yul\":13157:13162   */\n      0x00\n        /* \"#utility.yul\":13206:13209   */\n      dup3\n        /* \"#utility.yul\":13199:13203   */\n      0x1f\n        /* \"#utility.yul\":13191:13197   */\n      dup4\n        /* \"#utility.yul\":13187:13204   */\n      add\n        /* \"#utility.yul\":13183:13210   */\n      slt\n        /* \"#utility.yul\":13173:13295   */\n      tag_455\n      jumpi\n        /* \"#utility.yul\":13214:13293   */\n      tag_456\n      tag_244\n      jump\t// in\n    tag_456:\n        /* \"#utility.yul\":13173:13295   */\n    tag_455:\n        /* \"#utility.yul\":13324:13330   */\n      dup2\n        /* \"#utility.yul\":13318:13331   */\n      mload\n        /* \"#utility.yul\":13349:13454   */\n      tag_457\n        /* \"#utility.yul\":13450:13453   */\n      dup5\n        /* \"#utility.yul\":13442:13448   */\n      dup3\n        /* \"#utility.yul\":13435:13439   */\n      0x20\n        /* \"#utility.yul\":13427:13433   */\n      dup7\n        /* \"#utility.yul\":13423:13440   */\n      add\n        /* \"#utility.yul\":13349:13454   */\n      tag_262\n      jump\t// in\n    tag_457:\n        /* \"#utility.yul\":13340:13454   */\n      swap2\n      pop\n        /* \"#utility.yul\":13163:13460   */\n      pop\n        /* \"#utility.yul\":13075:13460   */\n      swap3\n      swap2\n      pop\n      pop\n      jump\t// out\n        /* \"#utility.yul\":13466:14020   */\n    tag_86:\n        /* \"#utility.yul\":13561:13567   */\n      0x00\n        /* \"#utility.yul\":13610:13612   */\n      0x20\n        /* \"#utility.yul\":13598:13607   */\n      dup3\n        /* \"#utility.yul\":13589:13596   */\n      dup5\n        /* \"#utility.yul\":13585:13608   */\n      sub\n        /* \"#utility.yul\":13581:13613   */\n      slt\n        /* \"#utility.yul\":13578:13697   */\n      iszero\n      tag_459\n      jumpi\n        /* \"#utility.yul\":13616:13695   */\n      tag_460\n      tag_223\n      jump\t// in\n    tag_460:\n        /* \"#utility.yul\":13578:13697   */\n    tag_459:\n        /* \"#utility.yul\":13757:13758   */\n      0x00\n        /* \"#utility.yul\":13746:13755   */\n      dup3\n        /* \"#utility.yul\":13742:13759   */\n      add\n        /* \"#utility.yul\":13736:13760   */\n      mload\n        /* \"#utility.yul\":13787:13805   */\n      0xffffffffffffffff\n        /* \"#utility.yul\":13779:13785   */\n      dup2\n        /* \"#utility.yul\":13776:13806   */\n      gt\n        /* \"#utility.yul\":13773:13890   */\n      iszero\n      tag_461\n      jumpi\n        /* \"#utility.yul\":13809:13888   */\n      tag_462\n      tag_224\n      jump\t// in\n    tag_462:\n        /* \"#utility.yul\":13773:13890   */\n    tag_461:\n        /* \"#utility.yul\":13914:14003   */\n      tag_463\n        /* \"#utility.yul\":13995:14002   */\n      dup5\n        /* \"#utility.yul\":13986:13992   */\n      dup3\n        /* \"#utility.yul\":13975:13984   */\n      dup6\n        /* \"#utility.yul\":13971:13993   */\n      add\n        /* \"#utility.yul\":13914:14003   */\n      tag_263\n      jump\t// in\n    tag_463:\n        /* \"#utility.yul\":13904:14003   */\n      swap2\n      pop\n        /* \"#utility.yul\":13707:14013   */\n      pop\n        /* \"#utility.yul\":13466:14020   */\n      swap3\n      swap2\n      pop\n      pop\n      jump\t// out\n        /* \"#utility.yul\":14026:14206   */\n    tag_93:\n        /* \"#utility.yul\":14074:14151   */\n      0x4e487b7100000000000000000000000000000000000000000000000000000000\n        /* \"#utility.yul\":14071:14072   */\n      0x00\n        /* \"#utility.yul\":14064:14152   */\n      mstore\n        /* \"#utility.yul\":14171:14175   */\n      0x32\n        /* \"#utility.yul\":14168:14169   */\n      0x04\n        /* \"#utility.yul\":14161:14176   */\n      mstore\n        /* \"#utility.yul\":14195:14199   */\n      0x24\n        /* \"#utility.yul\":14192:14193   */\n      0x00\n        /* \"#utility.yul\":14185:14200   */\n      revert\n        /* \"#utility.yul\":14212:14392   */\n    tag_264:\n        /* \"#utility.yul\":14260:14337   */\n      0x4e487b7100000000000000000000000000000000000000000000000000000000\n        /* \"#utility.yul\":14257:14258   */\n      0x00\n        /* \"#utility.yul\":14250:14338   */\n      mstore\n        /* \"#utility.yul\":14357:14361   */\n      0x11\n        /* \"#utility.yul\":14354:14355   */\n      0x04\n        /* \"#utility.yul\":14347:14362   */\n      mstore\n        /* \"#utility.yul\":14381:14385   */\n      0x24\n        /* \"#utility.yul\":14378:14379   */\n      0x00\n        /* \"#utility.yul\":14371:14386   */\n      revert\n        /* \"#utility.yul\":14398:14589   */\n    tag_96:\n        /* \"#utility.yul\":14438:14441   */\n      0x00\n        /* \"#utility.yul\":14457:14477   */\n      tag_467\n        /* \"#utility.yul\":14475:14476   */\n      dup3\n        /* \"#utility.yul\":14457:14477   */\n      tag_229\n      jump\t// in\n    tag_467:\n        /* \"#utility.yul\":14452:14477   */\n      swap2\n      pop\n        /* \"#utility.yul\":14491:14511   */\n      tag_468\n        /* \"#utility.yul\":14509:14510   */\n      dup4\n        /* \"#utility.yul\":14491:14511   */\n      tag_229\n      jump\t// in\n    tag_468:\n        /* \"#utility.yul\":14486:14511   */\n      swap3\n      pop\n        /* \"#utility.yul\":14534:14535   */\n      dup3\n        /* \"#utility.yul\":14531:14532   */\n      dup3\n        /* \"#utility.yul\":14527:14536   */\n      add\n        /* \"#utility.yul\":14520:14536   */\n      swap1\n      pop\n        /* \"#utility.yul\":14555:14558   */\n      dup1\n        /* \"#utility.yul\":14552:14553   */\n      dup3\n        /* \"#utility.yul\":14549:14559   */\n      gt\n        /* \"#utility.yul\":14546:14582   */\n      iszero\n      tag_469\n      jumpi\n        /* \"#utility.yul\":14562:14580   */\n      tag_470\n      tag_264\n      jump\t// in\n    tag_470:\n        /* \"#utility.yul\":14546:14582   */\n    tag_469:\n        /* \"#utility.yul\":14398:14589   */\n      swap3\n      swap2\n      pop\n      pop\n      jump\t// out\n        /* \"#utility.yul\":14595:14828   */\n    tag_98:\n        /* \"#utility.yul\":14634:14637   */\n      0x00\n        /* \"#utility.yul\":14657:14681   */\n      tag_472\n        /* \"#utility.yul\":14675:14680   */\n      dup3\n        /* \"#utility.yul\":14657:14681   */\n      tag_229\n      jump\t// in\n    tag_472:\n        /* \"#utility.yul\":14648:14681   */\n      swap2\n      pop\n        /* \"#utility.yul\":14703:14769   */\n      0xffffffffffffffffffffffffffffffffffffffffffffffffffffffffffffffff\n        /* \"#utility.yul\":14696:14701   */\n      dup3\n        /* \"#utility.yul\":14693:14770   */\n      sub\n        /* \"#utility.yul\":14690:14793   */\n      tag_473\n      jumpi\n        /* \"#utility.yul\":14773:14791   */\n      tag_474\n      tag_264\n      jump\t// in\n    tag_474:\n        /* \"#utility.yul\":14690:14793   */\n    tag_473:\n        /* \"#utility.yul\":14820:14821   */\n      0x01\n        /* \"#utility.yul\":14813:14818   */\n      dup3\n        /* \"#utility.yul\":14809:14822   */\n      add\n        /* \"#utility.yul\":14802:14822   */\n      swap1\n      pop\n        /* \"#utility.yul\":14595:14828   */\n      swap2\n      swap1\n      pop\n      jump\t// out\n        /* \"#utility.yul\":14834:15028   */\n    tag_103:\n        /* \"#utility.yul\":14874:14878   */\n      0x00\n        /* \"#utility.yul\":14894:14914   */\n      tag_476\n        /* \"#utility.yul\":14912:14913   */\n      dup3\n        /* \"#utility.yul\":14894:14914   */\n      tag_229\n      jump\t// in\n    tag_476:\n        /* \"#utility.yul\":14889:14914   */\n      swap2\n      pop\n        /* \"#utility.yul\":14928:14948   */\n      tag_477\n        /* \"#utility.yul\":14946:14947   */\n      dup4\n        /* \"#utility.yul\":14928:14948   */\n      tag_229\n      jump\t// in\n    tag_477:\n        /* \"#utility.yul\":14923:14948   */\n      swap3\n      pop\n        /* \"#utility.yul\":14972:14973   */\n      dup3\n        /* \"#utility.yul\":14969:14970   */\n      dup3\n        /* \"#utility.yul\":14965:14974   */\n      sub\n        /* \"#utility.yul\":14957:14974   */\n      swap1\n      pop\n        /* \"#utility.yul\":14996:14997   */\n      dup2\n        /* \"#utility.yul\":14990:14994   */\n      dup2\n        /* \"#utility.yul\":14987:14998   */\n      gt\n        /* \"#utility.yul\":14984:15021   */\n      iszero\n      tag_478\n      jumpi\n        /* \"#utility.yul\":15001:15019   */\n      tag_479\n      tag_264\n      jump\t// in\n    tag_479:\n        /* \"#utility.yul\":14984:15021   */\n    tag_478:\n        /* \"#utility.yul\":14834:15028   */\n      swap3\n      swap2\n      pop\n      pop\n      jump\t// out\n        /* \"#utility.yul\":15034:15214   */\n    tag_265:\n        /* \"#utility.yul\":15082:15159   */\n      0x4e487b7100000000000000000000000000000000000000000000000000000000\n        /* \"#utility.yul\":15079:15080   */\n      0x00\n        /* \"#utility.yul\":15072:15160   */\n      mstore\n        /* \"#utility.yul\":15179:15183   */\n      0x12\n        /* \"#utility.yul\":15176:15177   */\n      0x04\n        /* \"#utility.yul\":15169:15184   */\n      mstore\n        /* \"#utility.yul\":15203:15207   */\n      0x24\n        /* \"#utility.yul\":15200:15201   */\n      0x00\n        /* \"#utility.yul\":15193:15208   */\n      revert\n        /* \"#utility.yul\":15220:15405   */\n    tag_112:\n        /* \"#utility.yul\":15260:15261   */\n      0x00\n        /* \"#utility.yul\":15277:15297   */\n      tag_482\n        /* \"#utility.yul\":15295:15296   */\n      dup3\n        /* \"#utility.yul\":15277:15297   */\n      tag_229\n      jump\t// in\n    tag_482:\n        /* \"#utility.yul\":15272:15297   */\n      swap2\n      pop\n        /* \"#utility.yul\":15311:15331   */\n      tag_483\n        /* \"#utility.yul\":15329:15330   */\n      dup4\n        /* \"#utility.yul\":15311:15331   */\n      tag_229\n      jump\t// in\n    tag_483:\n        /* \"#utility.yul\":15306:15331   */\n      swap3\n      pop\n        /* \"#utility.yul\":15350:15351   */\n      dup3\n        /* \"#utility.yul\":15340:15375   */\n      tag_484\n      jumpi\n        /* \"#utility.yul\":15355:15373   */\n      tag_485\n      tag_265\n      jump\t// in\n    tag_485:\n        /* \"#utility.yul\":15340:15375   */\n    tag_484:\n        /* \"#utility.yul\":15397:15398   */\n      dup3\n        /* \"#utility.yul\":15394:15395   */\n      dup3\n        /* \"#utility.yul\":15390:15399   */\n      div\n        /* \"#utility.yul\":15385:15399   */\n      swap1\n      pop\n        /* \"#utility.yul\":15220:15405   */\n      swap3\n      swap2\n      pop\n      pop\n      jump\t// out\n        /* \"#utility.yul\":15411:15573   */\n    tag_266:\n        /* \"#utility.yul\":15533:15540   */\n      0x00\n        /* \"#utility.yul\":15562:15567   */\n      dup2\n        /* \"#utility.yul\":15551:15567   */\n      swap1\n      pop\n        /* \"#utility.yul\":15411:15573   */\n      swap2\n      swap1\n      pop\n      jump\t// out\n        /* \"#utility.yul\":15579:15671   */\n    tag_267:\n        /* \"#utility.yul\":15611:15619   */\n      0x00\n        /* \"#utility.yul\":15658:15663   */\n      dup2\n        /* \"#utility.yul\":15655:15656   */\n      0x00\n        /* \"#utility.yul\":15651:15664   */\n      shl\n        /* \"#utility.yul\":15630:15664   */\n      swap1\n      pop\n        /* \"#utility.yul\":15579:15671   */\n      swap2\n      swap1\n      pop\n      jump\t// out\n        /* \"#utility.yul\":15677:15993   */\n    tag_268:\n        /* \"#utility.yul\":15812:15821   */\n      0x00\n        /* \"#utility.yul\":15845:15987   */\n      tag_489\n        /* \"#utility.yul\":15863:15986   */\n      tag_490\n        /* \"#utility.yul\":15876:15985   */\n      tag_491\n        /* \"#utility.yul\":15979:15984   */\n      dup5\n        /* \"#utility.yul\":15876:15985   */\n      tag_266\n      jump\t// in\n    tag_491:\n        /* \"#utility.yul\":15863:15986   */\n      tag_267\n      jump\t// in\n    tag_490:\n        /* \"#utility.yul\":15845:15987   */\n      tag_239\n      jump\t// in\n    tag_489:\n        /* \"#utility.yul\":15832:15987   */\n      swap1\n      pop\n        /* \"#utility.yul\":15677:15993   */\n      swap2\n      swap1\n      pop\n      jump\t// out\n        /* \"#utility.yul\":15999:16300   */\n    tag_269:\n        /* \"#utility.yul\":16171:16293   */\n      tag_493\n        /* \"#utility.yul\":16287:16292   */\n      dup2\n        /* \"#utility.yul\":16171:16293   */\n      tag_268\n      jump\t// in\n    tag_493:\n        /* \"#utility.yul\":16166:16169   */\n      dup3\n        /* \"#utility.yul\":16159:16294   */\n      mstore\n        /* \"#utility.yul\":15999:16300   */\n      pop\n      pop\n      jump\t// out\n        /* \"#utility.yul\":16306:16698   */\n    tag_133:\n        /* \"#utility.yul\":16484:16488   */\n      0x00\n        /* \"#utility.yul\":16522:16524   */\n      0x20\n        /* \"#utility.yul\":16511:16520   */\n      dup3\n        /* \"#utility.yul\":16507:16525   */\n      add\n        /* \"#utility.yul\":16499:16525   */\n      swap1\n      pop\n        /* \"#utility.yul\":16535:16691   */\n      tag_495\n        /* \"#utility.yul\":16688:16689   */\n      0x00\n        /* \"#utility.yul\":16677:16686   */\n      dup4\n        /* \"#utility.yul\":16673:16690   */\n      add\n        /* \"#utility.yul\":16664:16670   */\n      dup5\n        /* \"#utility.yul\":16535:16691   */\n      tag_269\n      jump\t// in\n    tag_495:\n        /* \"#utility.yul\":16306:16698   */\n      swap3\n      swap2\n      pop\n      pop\n      jump\t// out\n        /* \"#utility.yul\":16704:17055   */\n    tag_137:\n        /* \"#utility.yul\":16774:16780   */\n      0x00\n        /* \"#utility.yul\":16823:16825   */\n      0x20\n        /* \"#utility.yul\":16811:16820   */\n      dup3\n        /* \"#utility.yul\":16802:16809   */\n      dup5\n        /* \"#utility.yul\":16798:16821   */\n      sub\n        /* \"#utility.yul\":16794:16826   */\n      slt\n        /* \"#utility.yul\":16791:16910   */\n      iszero\n      tag_497\n      jumpi\n        /* \"#utility.yul\":16829:16908   */\n      tag_498\n      tag_223\n      jump\t// in\n    tag_498:\n        /* \"#utility.yul\":16791:16910   */\n    tag_497:\n        /* \"#utility.yul\":16949:16950   */\n      0x00\n        /* \"#utility.yul\":16974:17038   */\n      tag_499\n        /* \"#utility.yul\":17030:17037   */\n      dup5\n        /* \"#utility.yul\":17021:17027   */\n      dup3\n        /* \"#utility.yul\":17010:17019   */\n      dup6\n        /* \"#utility.yul\":17006:17028   */\n      add\n        /* \"#utility.yul\":16974:17038   */\n      tag_257\n      jump\t// in\n    tag_499:\n        /* \"#utility.yul\":16964:17038   */\n      swap2\n      pop\n        /* \"#utility.yul\":16920:17048   */\n      pop\n        /* \"#utility.yul\":16704:17055   */\n      swap3\n      swap2\n      pop\n      pop\n      jump\t// out\n        /* \"#utility.yul\":17061:17140   */\n    tag_270:\n        /* \"#utility.yul\":17100:17107   */\n      0x00\n        /* \"#utility.yul\":17129:17134   */\n      dup2\n        /* \"#utility.yul\":17118:17134   */\n      swap1\n      pop\n        /* \"#utility.yul\":17061:17140   */\n      swap2\n      swap1\n      pop\n      jump\t// out\n        /* \"#utility.yul\":17146:17303   */\n    tag_271:\n        /* \"#utility.yul\":17251:17296   */\n      tag_502\n        /* \"#utility.yul\":17271:17295   */\n      tag_503\n        /* \"#utility.yul\":17289:17294   */\n      dup3\n        /* \"#utility.yul\":17271:17295   */\n      tag_239\n      jump\t// in\n    tag_503:\n        /* \"#utility.yul\":17251:17296   */\n      tag_270\n      jump\t// in\n    tag_502:\n        /* \"#utility.yul\":17246:17249   */\n      dup3\n        /* \"#utility.yul\":17239:17297   */\n      mstore\n        /* \"#utility.yul\":17146:17303   */\n      pop\n      pop\n      jump\t// out\n        /* \"#utility.yul\":17309:17388   */\n    tag_272:\n        /* \"#utility.yul\":17348:17355   */\n      0x00\n        /* \"#utility.yul\":17377:17382   */\n      dup2\n        /* \"#utility.yul\":17366:17382   */\n      swap1\n      pop\n        /* \"#utility.yul\":17309:17388   */\n      swap2\n      swap1\n      pop\n      jump\t// out\n        /* \"#utility.yul\":17394:17551   */\n    tag_273:\n        /* \"#utility.yul\":17499:17544   */\n      tag_506\n        /* \"#utility.yul\":17519:17543   */\n      tag_507\n        /* \"#utility.yul\":17537:17542   */\n      dup3\n        /* \"#utility.yul\":17519:17543   */\n      tag_229\n      jump\t// in\n    tag_507:\n        /* \"#utility.yul\":17499:17544   */\n      tag_272\n      jump\t// in\n    tag_506:\n        /* \"#utility.yul\":17494:17497   */\n      dup3\n        /* \"#utility.yul\":17487:17545   */\n      mstore\n        /* \"#utility.yul\":17394:17551   */\n      pop\n      pop\n      jump\t// out\n        /* \"#utility.yul\":17557:17954   */\n    tag_143:\n        /* \"#utility.yul\":17697:17700   */\n      0x00\n        /* \"#utility.yul\":17712:17787   */\n      tag_509\n        /* \"#utility.yul\":17783:17786   */\n      dup3\n        /* \"#utility.yul\":17774:17780   */\n      dup6\n        /* \"#utility.yul\":17712:17787   */\n      tag_271\n      jump\t// in\n    tag_509:\n        /* \"#utility.yul\":17812:17814   */\n      0x20\n        /* \"#utility.yul\":17807:17810   */\n      dup3\n        /* \"#utility.yul\":17803:17815   */\n      add\n        /* \"#utility.yul\":17796:17815   */\n      swap2\n      pop\n        /* \"#utility.yul\":17825:17900   */\n      tag_510\n        /* \"#utility.yul\":17896:17899   */\n      dup3\n        /* \"#utility.yul\":17887:17893   */\n      dup5\n        /* \"#utility.yul\":17825:17900   */\n      tag_273\n      jump\t// in\n    tag_510:\n        /* \"#utility.yul\":17925:17927   */\n      0x20\n        /* \"#utility.yul\":17920:17923   */\n      dup3\n        /* \"#utility.yul\":17916:17928   */\n      add\n        /* \"#utility.yul\":17909:17928   */\n      swap2\n      pop\n        /* \"#utility.yul\":17945:17948   */\n      dup2\n        /* \"#utility.yul\":17938:17948   */\n      swap1\n      pop\n        /* \"#utility.yul\":17557:17954   */\n      swap4\n      swap3\n      pop\n      pop\n      pop\n      jump\t// out\n        /* \"#utility.yul\":17960:18078   */\n    tag_274:\n        /* \"#utility.yul\":18047:18071   */\n      tag_512\n        /* \"#utility.yul\":18065:18070   */\n      dup2\n        /* \"#utility.yul\":18047:18071   */\n      tag_239\n      jump\t// in\n    tag_512:\n        /* \"#utility.yul\":18042:18045   */\n      dup3\n        /* \"#utility.yul\":18035:18072   */\n      mstore\n        /* \"#utility.yul\":17960:18078   */\n      pop\n      pop\n      jump\t// out\n        /* \"#utility.yul\":18084:18306   */\n    tag_145:\n        /* \"#utility.yul\":18177:18181   */\n      0x00\n        /* \"#utility.yul\":18215:18217   */\n      0x20\n        /* \"#utility.yul\":18204:18213   */\n      dup3\n        /* \"#utility.yul\":18200:18218   */\n      add\n        /* \"#utility.yul\":18192:18218   */\n      swap1\n      pop\n        /* \"#utility.yul\":18228:18299   */\n      tag_514\n        /* \"#utility.yul\":18296:18297   */\n      0x00\n        /* \"#utility.yul\":18285:18294   */\n      dup4\n        /* \"#utility.yul\":18281:18298   */\n      add\n        /* \"#utility.yul\":18272:18278   */\n      dup5\n        /* \"#utility.yul\":18228:18299   */\n      tag_274\n      jump\t// in\n    tag_514:\n        /* \"#utility.yul\":18084:18306   */\n      swap3\n      swap2\n      pop\n      pop\n      jump\t// out\n        /* \"#utility.yul\":18312:18409   */\n    tag_275:\n        /* \"#utility.yul\":18371:18377   */\n      0x00\n        /* \"#utility.yul\":18399:18402   */\n      dup3\n        /* \"#utility.yul\":18389:18402   */\n      swap1\n      pop\n        /* \"#utility.yul\":18312:18409   */\n      swap3\n      swap2\n      pop\n      pop\n      jump\t// out\n        /* \"#utility.yul\":18415:18595   */\n    tag_276:\n        /* \"#utility.yul\":18463:18540   */\n      0x4e487b7100000000000000000000000000000000000000000000000000000000\n        /* \"#utility.yul\":18460:18461   */\n      0x00\n        /* \"#utility.yul\":18453:18541   */\n      mstore\n        /* \"#utility.yul\":18560:18564   */\n      0x22\n        /* \"#utility.yul\":18557:18558   */\n      0x04\n        /* \"#utility.yul\":18550:18565   */\n      mstore\n        /* \"#utility.yul\":18584:18588   */\n      0x24\n        /* \"#utility.yul\":18581:18582   */\n      0x00\n        /* \"#utility.yul\":18574:18589   */\n      revert\n        /* \"#utility.yul\":18601:18921   */\n    tag_208:\n        /* \"#utility.yul\":18645:18651   */\n      0x00\n        /* \"#utility.yul\":18682:18683   */\n      0x02\n        /* \"#utility.yul\":18676:18680   */\n      dup3\n        /* \"#utility.yul\":18672:18684   */\n      div\n        /* \"#utility.yul\":18662:18684   */\n      swap1\n      pop\n        /* \"#utility.yul\":18729:18730   */\n      0x01\n        /* \"#utility.yul\":18723:18727   */\n      dup3\n        /* \"#utility.yul\":18719:18731   */\n      and\n        /* \"#utility.yul\":18750:18768   */\n      dup1\n        /* \"#utility.yul\":18740:18821   */\n      tag_518\n      jumpi\n        /* \"#utility.yul\":18806:18810   */\n      0x7f\n        /* \"#utility.yul\":18798:18804   */\n      dup3\n        /* \"#utility.yul\":18794:18811   */\n      and\n        /* \"#utility.yul\":18784:18811   */\n      swap2\n      pop\n        /* \"#utility.yul\":18740:18821   */\n    tag_518:\n        /* \"#utility.yul\":18868:18870   */\n      0x20\n        /* \"#utility.yul\":18860:18866   */\n      dup3\n        /* \"#utility.yul\":18857:18871   */\n      lt\n        /* \"#utility.yul\":18837:18855   */\n      dup2\n        /* \"#utility.yul\":18834:18872   */\n      sub\n        /* \"#utility.yul\":18831:18915   */\n      tag_519\n      jumpi\n        /* \"#utility.yul\":18887:18905   */\n      tag_520\n      tag_276\n      jump\t// in\n    tag_520:\n        /* \"#utility.yul\":18831:18915   */\n    tag_519:\n        /* \"#utility.yul\":18652:18921   */\n      pop\n        /* \"#utility.yul\":18601:18921   */\n      swap2\n      swap1\n      pop\n      jump\t// out\n        /* \"#utility.yul\":18927:19068   */\n    tag_277:\n        /* \"#utility.yul\":18976:18980   */\n      0x00\n        /* \"#utility.yul\":18999:19002   */\n      dup2\n        /* \"#utility.yul\":18991:19002   */\n      swap1\n      pop\n        /* \"#utility.yul\":19022:19025   */\n      dup2\n        /* \"#utility.yul\":19019:19020   */\n      0x00\n        /* \"#utility.yul\":19012:19026   */\n      mstore\n        /* \"#utility.yul\":19056:19060   */\n      0x20\n        /* \"#utility.yul\":19053:19054   */\n      0x00\n        /* \"#utility.yul\":19043:19061   */\n      keccak256\n        /* \"#utility.yul\":19035:19061   */\n      swap1\n      pop\n        /* \"#utility.yul\":18927:19068   */\n      swap2\n      swap1\n      pop\n      jump\t// out\n        /* \"#utility.yul\":19074:19167   */\n    tag_278:\n        /* \"#utility.yul\":19111:19117   */\n      0x00\n        /* \"#utility.yul\":19158:19160   */\n      0x20\n        /* \"#utility.yul\":19153:19155   */\n      0x1f\n        /* \"#utility.yul\":19146:19151   */\n      dup4\n        /* \"#utility.yul\":19142:19156   */\n      add\n        /* \"#utility.yul\":19138:19161   */\n      div\n        /* \"#utility.yul\":19128:19161   */\n      swap1\n      pop\n        /* \"#utility.yul\":19074:19167   */\n      swap2\n      swap1\n      pop\n      jump\t// out\n        /* \"#utility.yul\":19173:19280   */\n    tag_279:\n        /* \"#utility.yul\":19217:19225   */\n      0x00\n        /* \"#utility.yul\":19267:19272   */\n      dup3\n        /* \"#utility.yul\":19261:19265   */\n      dup3\n        /* \"#utility.yul\":19257:19273   */\n      shl\n        /* \"#utility.yul\":19236:19273   */\n      swap1\n      pop\n        /* \"#utility.yul\":19173:19280   */\n      swap3\n      swap2\n      pop\n      pop\n      jump\t// out\n        /* \"#utility.yul\":19286:19679   */\n    tag_280:\n        /* \"#utility.yul\":19355:19361   */\n      0x00\n        /* \"#utility.yul\":19405:19406   */\n      0x08\n        /* \"#utility.yul\":19393:19403   */\n      dup4\n        /* \"#utility.yul\":19389:19407   */\n      mul\n        /* \"#utility.yul\":19428:19525   */\n      tag_525\n        /* \"#utility.yul\":19458:19524   */\n      0xffffffffffffffffffffffffffffffffffffffffffffffffffffffffffffffff\n        /* \"#utility.yul\":19447:19456   */\n      dup3\n        /* \"#utility.yul\":19428:19525   */\n      tag_279\n      jump\t// in\n    tag_525:\n        /* \"#utility.yul\":19546:19585   */\n      tag_526\n        /* \"#utility.yul\":19576:19584   */\n      dup7\n        /* \"#utility.yul\":19565:19574   */\n      dup4\n        /* \"#utility.yul\":19546:19585   */\n      tag_279\n      jump\t// in\n    tag_526:\n        /* \"#utility.yul\":19534:19585   */\n      swap6\n      pop\n        /* \"#utility.yul\":19618:19622   */\n      dup1\n        /* \"#utility.yul\":19614:19623   */\n      not\n        /* \"#utility.yul\":19607:19612   */\n      dup5\n        /* \"#utility.yul\":19603:19624   */\n      and\n        /* \"#utility.yul\":19594:19624   */\n      swap4\n      pop\n        /* \"#utility.yul\":19667:19671   */\n      dup1\n        /* \"#utility.yul\":19657:19665   */\n      dup7\n        /* \"#utility.yul\":19653:19672   */\n      and\n        /* \"#utility.yul\":19646:19651   */\n      dup5\n        /* \"#utility.yul\":19643:19673   */\n      or\n        /* \"#utility.yul\":19633:19673   */\n      swap3\n      pop\n        /* \"#utility.yul\":19362:19679   */\n      pop\n      pop\n        /* \"#utility.yul\":19286:19679   */\n      swap4\n      swap3\n      pop\n      pop\n      pop\n      jump\t// out\n        /* \"#utility.yul\":19685:19827   */\n    tag_281:\n        /* \"#utility.yul\":19735:19744   */\n      0x00\n        /* \"#utility.yul\":19768:19821   */\n      tag_528\n        /* \"#utility.yul\":19786:19820   */\n      tag_529\n        /* \"#utility.yul\":19795:19819   */\n      tag_530\n        /* \"#utility.yul\":19813:19818   */\n      dup5\n        /* \"#utility.yul\":19795:19819   */\n      tag_229\n      jump\t// in\n    tag_530:\n        /* \"#utility.yul\":19786:19820   */\n      tag_234\n      jump\t// in\n    tag_529:\n        /* \"#utility.yul\":19768:19821   */\n      tag_229\n      jump\t// in\n    tag_528:\n        /* \"#utility.yul\":19755:19821   */\n      swap1\n      pop\n        /* \"#utility.yul\":19685:19827   */\n      swap2\n      swap1\n      pop\n      jump\t// out\n        /* \"#utility.yul\":19833:19908   */\n    tag_282:\n        /* \"#utility.yul\":19876:19879   */\n      0x00\n        /* \"#utility.yul\":19897:19902   */\n      dup2\n        /* \"#utility.yul\":19890:19902   */\n      swap1\n      pop\n        /* \"#utility.yul\":19833:19908   */\n      swap2\n      swap1\n      pop\n      jump\t// out\n        /* \"#utility.yul\":19914:20183   */\n    tag_283:\n        /* \"#utility.yul\":20024:20063   */\n      tag_533\n        /* \"#utility.yul\":20055:20062   */\n      dup4\n        /* \"#utility.yul\":20024:20063   */\n      tag_281\n      jump\t// in\n    tag_533:\n        /* \"#utility.yul\":20085:20176   */\n      tag_534\n        /* \"#utility.yul\":20134:20175   */\n      tag_535\n        /* \"#utility.yul\":20158:20174   */\n      dup3\n        /* \"#utility.yul\":20134:20175   */\n      tag_282\n      jump\t// in\n    tag_535:\n        /* \"#utility.yul\":20126:20132   */\n      dup5\n        /* \"#utility.yul\":20119:20123   */\n      dup5\n        /* \"#utility.yul\":20113:20124   */\n      sload\n        /* \"#utility.yul\":20085:20176   */\n      tag_280\n      jump\t// in\n    tag_534:\n        /* \"#utility.yul\":20079:20083   */\n      dup3\n        /* \"#utility.yul\":20072:20177   */\n      sstore\n        /* \"#utility.yul\":19990:20183   */\n      pop\n        /* \"#utility.yul\":19914:20183   */\n      pop\n      pop\n      pop\n      jump\t// out\n        /* \"#utility.yul\":20189:20262   */\n    tag_284:\n        /* \"#utility.yul\":20234:20237   */\n      0x00\n        /* \"#utility.yul\":20189:20262   */\n      swap1\n      jump\t// out\n        /* \"#utility.yul\":20268:20457   */\n    tag_285:\n        /* \"#utility.yul\":20345:20377   */\n      tag_538\n      tag_284\n      jump\t// in\n    tag_538:\n        /* \"#utility.yul\":20386:20451   */\n      tag_539\n        /* \"#utility.yul\":20444:20450   */\n      dup2\n        /* \"#utility.yul\":20436:20442   */\n      dup5\n        /* \"#utility.yul\":20430:20434   */\n      dup5\n        /* \"#utility.yul\":20386:20451   */\n      tag_283\n      jump\t// in\n    tag_539:\n        /* \"#utility.yul\":20321:20457   */\n      pop\n        /* \"#utility.yul\":20268:20457   */\n      pop\n      pop\n      jump\t// out\n        /* \"#utility.yul\":20463:20649   */\n    tag_286:\n        /* \"#utility.yul\":20523:20643   */\n    tag_541:\n        /* \"#utility.yul\":20540:20543   */\n      dup2\n        /* \"#utility.yul\":20533:20538   */\n      dup2\n        /* \"#utility.yul\":20530:20544   */\n      lt\n        /* \"#utility.yul\":20523:20643   */\n      iszero\n      tag_543\n      jumpi\n        /* \"#utility.yul\":20594:20633   */\n      tag_544\n        /* \"#utility.yul\":20631:20632   */\n      0x00\n        /* \"#utility.yul\":20624:20629   */\n      dup3\n        /* \"#utility.yul\":20594:20633   */\n      tag_285\n      jump\t// in\n    tag_544:\n        /* \"#utility.yul\":20567:20568   */\n      0x01\n        /* \"#utility.yul\":20560:20565   */\n      dup2\n        /* \"#utility.yul\":20556:20569   */\n      add\n        /* \"#utility.yul\":20547:20569   */\n      swap1\n      pop\n        /* \"#utility.yul\":20523:20643   */\n      jump(tag_541)\n    tag_543:\n        /* \"#utility.yul\":20463:20649   */\n      pop\n      pop\n      jump\t// out\n        /* \"#utility.yul\":20655:21198   */\n    tag_287:\n        /* \"#utility.yul\":20756:20758   */\n      0x1f\n        /* \"#utility.yul\":20751:20754   */\n      dup3\n        /* \"#utility.yul\":20748:20759   */\n      gt\n        /* \"#utility.yul\":20745:21191   */\n      iszero\n      tag_546\n      jumpi\n        /* \"#utility.yul\":20790:20828   */\n      tag_547\n        /* \"#utility.yul\":20822:20827   */\n      dup2\n        /* \"#utility.yul\":20790:20828   */\n      tag_277\n      jump\t// in\n    tag_547:\n        /* \"#utility.yul\":20874:20903   */\n      tag_548\n        /* \"#utility.yul\":20892:20902   */\n      dup5\n        /* \"#utility.yul\":20874:20903   */\n      tag_278\n      jump\t// in\n    tag_548:\n        /* \"#utility.yul\":20864:20872   */\n      dup2\n        /* \"#utility.yul\":20860:20904   */\n      add\n        /* \"#utility.yul\":21057:21059   */\n      0x20\n        /* \"#utility.yul\":21045:21055   */\n      dup6\n        /* \"#utility.yul\":21042:21060   */\n      lt\n        /* \"#utility.yul\":21039:21088   */\n      iszero\n      tag_549\n      jumpi\n        /* \"#utility.yul\":21078:21086   */\n      dup2\n        /* \"#utility.yul\":21063:21086   */\n      swap1\n      pop\n        /* \"#utility.yul\":21039:21088   */\n    tag_549:\n        /* \"#utility.yul\":21101:21181   */\n      tag_550\n        /* \"#utility.yul\":21157:21179   */\n      tag_551\n        /* \"#utility.yul\":21175:21178   */\n      dup6\n        /* \"#utility.yul\":21157:21179   */\n      tag_278\n      jump\t// in\n    tag_551:\n        /* \"#utility.yul\":21147:21155   */\n      dup4\n        /* \"#utility.yul\":21143:21180   */\n      add\n        /* \"#utility.yul\":21130:21141   */\n      dup3\n        /* \"#utility.yul\":21101:21181   */\n      tag_286\n      jump\t// in\n    tag_550:\n        /* \"#utility.yul\":20760:21191   */\n      pop\n      pop\n        /* \"#utility.yul\":20745:21191   */\n    tag_546:\n        /* \"#utility.yul\":20655:21198   */\n      pop\n      pop\n      pop\n      jump\t// out\n        /* \"#utility.yul\":21204:21321   */\n    tag_288:\n        /* \"#utility.yul\":21258:21266   */\n      0x00\n        /* \"#utility.yul\":21308:21313   */\n      dup3\n        /* \"#utility.yul\":21302:21306   */\n      dup3\n        /* \"#utility.yul\":21298:21314   */\n      shr\n        /* \"#utility.yul\":21277:21314   */\n      swap1\n      pop\n        /* \"#utility.yul\":21204:21321   */\n      swap3\n      swap2\n      pop\n      pop\n      jump\t// out\n        /* \"#utility.yul\":21327:21496   */\n    tag_289:\n        /* \"#utility.yul\":21371:21377   */\n      0x00\n        /* \"#utility.yul\":21404:21455   */\n      tag_554\n        /* \"#utility.yul\":21452:21453   */\n      0x00\n        /* \"#utility.yul\":21448:21454   */\n      not\n        /* \"#utility.yul\":21440:21445   */\n      dup5\n        /* \"#utility.yul\":21437:21438   */\n      0x08\n        /* \"#utility.yul\":21433:21446   */\n      mul\n        /* \"#utility.yul\":21404:21455   */\n      tag_288\n      jump\t// in\n    tag_554:\n        /* \"#utility.yul\":21400:21456   */\n      not\n        /* \"#utility.yul\":21485:21489   */\n      dup1\n        /* \"#utility.yul\":21479:21483   */\n      dup4\n        /* \"#utility.yul\":21475:21490   */\n      and\n        /* \"#utility.yul\":21465:21490   */\n      swap2\n      pop\n        /* \"#utility.yul\":21378:21496   */\n      pop\n        /* \"#utility.yul\":21327:21496   */\n      swap3\n      swap2\n      pop\n      pop\n      jump\t// out\n        /* \"#utility.yul\":21501:21796   */\n    tag_290:\n        /* \"#utility.yul\":21577:21581   */\n      0x00\n        /* \"#utility.yul\":21723:21752   */\n      tag_556\n        /* \"#utility.yul\":21748:21751   */\n      dup4\n        /* \"#utility.yul\":21742:21746   */\n      dup4\n        /* \"#utility.yul\":21723:21752   */\n      tag_289\n      jump\t// in\n    tag_556:\n        /* \"#utility.yul\":21715:21752   */\n      swap2\n      pop\n        /* \"#utility.yul\":21785:21788   */\n      dup3\n        /* \"#utility.yul\":21782:21783   */\n      0x02\n        /* \"#utility.yul\":21778:21789   */\n      mul\n        /* \"#utility.yul\":21772:21776   */\n      dup3\n        /* \"#utility.yul\":21769:21790   */\n      or\n        /* \"#utility.yul\":21761:21790   */\n      swap1\n      pop\n        /* \"#utility.yul\":21501:21796   */\n      swap3\n      swap2\n      pop\n      pop\n      jump\t// out\n        /* \"#utility.yul\":21801:23204   */\n    tag_151:\n        /* \"#utility.yul\":21925:21969   */\n      tag_558\n        /* \"#utility.yul\":21965:21968   */\n      dup4\n        /* \"#utility.yul\":21960:21963   */\n      dup4\n        /* \"#utility.yul\":21925:21969   */\n      tag_275\n      jump\t// in\n    tag_558:\n        /* \"#utility.yul\":22034:22052   */\n      0xffffffffffffffff\n        /* \"#utility.yul\":22026:22032   */\n      dup2\n        /* \"#utility.yul\":22023:22053   */\n      gt\n        /* \"#utility.yul\":22020:22076   */\n      iszero\n      tag_559\n      jumpi\n        /* \"#utility.yul\":22056:22074   */\n      tag_560\n      tag_253\n      jump\t// in\n    tag_560:\n        /* \"#utility.yul\":22020:22076   */\n    tag_559:\n        /* \"#utility.yul\":22100:22138   */\n      tag_561\n        /* \"#utility.yul\":22132:22136   */\n      dup3\n        /* \"#utility.yul\":22126:22137   */\n      sload\n        /* \"#utility.yul\":22100:22138   */\n      tag_208\n      jump\t// in\n    tag_561:\n        /* \"#utility.yul\":22185:22252   */\n      tag_562\n        /* \"#utility.yul\":22245:22251   */\n      dup3\n        /* \"#utility.yul\":22237:22243   */\n      dup3\n        /* \"#utility.yul\":22231:22235   */\n      dup6\n        /* \"#utility.yul\":22185:22252   */\n      tag_287\n      jump\t// in\n    tag_562:\n        /* \"#utility.yul\":22279:22280   */\n      0x00\n        /* \"#utility.yul\":22308:22310   */\n      0x1f\n        /* \"#utility.yul\":22300:22306   */\n      dup4\n        /* \"#utility.yul\":22297:22311   */\n      gt\n        /* \"#utility.yul\":22325:22326   */\n      0x01\n        /* \"#utility.yul\":22320:22952   */\n      dup2\n      eq\n      tag_564\n      jumpi\n        /* \"#utility.yul\":22996:22997   */\n      0x00\n        /* \"#utility.yul\":23013:23019   */\n      dup5\n        /* \"#utility.yul\":23010:23094   */\n      iszero\n      tag_565\n      jumpi\n        /* \"#utility.yul\":23069:23078   */\n      dup3\n        /* \"#utility.yul\":23064:23067   */\n      dup8\n        /* \"#utility.yul\":23060:23079   */\n      add\n        /* \"#utility.yul\":23047:23080   */\n      calldataload\n        /* \"#utility.yul\":23038:23080   */\n      swap1\n      pop\n        /* \"#utility.yul\":23010:23094   */\n    tag_565:\n        /* \"#utility.yul\":23120:23187   */\n      tag_566\n        /* \"#utility.yul\":23180:23186   */\n      dup6\n        /* \"#utility.yul\":23173:23178   */\n      dup3\n        /* \"#utility.yul\":23120:23187   */\n      tag_290\n      jump\t// in\n    tag_566:\n        /* \"#utility.yul\":23114:23118   */\n      dup7\n        /* \"#utility.yul\":23107:23188   */\n      sstore\n        /* \"#utility.yul\":22969:23198   */\n      pop\n        /* \"#utility.yul\":22290:23198   */\n      jump(tag_563)\n        /* \"#utility.yul\":22320:22952   */\n    tag_564:\n        /* \"#utility.yul\":22372:22376   */\n      0x1f\n        /* \"#utility.yul\":22368:22377   */\n      not\n        /* \"#utility.yul\":22360:22366   */\n      dup5\n        /* \"#utility.yul\":22356:22378   */\n      and\n        /* \"#utility.yul\":22406:22443   */\n      tag_567\n        /* \"#utility.yul\":22438:22442   */\n      dup7\n        /* \"#utility.yul\":22406:22443   */\n      tag_277\n      jump\t// in\n    tag_567:\n        /* \"#utility.yul\":22465:22466   */\n      0x00\n        /* \"#utility.yul\":22479:22694   */\n    tag_568:\n        /* \"#utility.yul\":22493:22500   */\n      dup3\n        /* \"#utility.yul\":22490:22491   */\n      dup2\n        /* \"#utility.yul\":22487:22501   */\n      lt\n        /* \"#utility.yul\":22479:22694   */\n      iszero\n      tag_570\n      jumpi\n        /* \"#utility.yul\":22579:22588   */\n      dup5\n        /* \"#utility.yul\":22574:22577   */\n      dup10\n        /* \"#utility.yul\":22570:22589   */\n      add\n        /* \"#utility.yul\":22557:22590   */\n      calldataload\n        /* \"#utility.yul\":22549:22555   */\n      dup3\n        /* \"#utility.yul\":22542:22591   */\n      sstore\n        /* \"#utility.yul\":22630:22631   */\n      0x01\n        /* \"#utility.yul\":22622:22628   */\n      dup3\n        /* \"#utility.yul\":22618:22632   */\n      add\n        /* \"#utility.yul\":22608:22632   */\n      swap2\n      pop\n        /* \"#utility.yul\":22677:22679   */\n      0x20\n        /* \"#utility.yul\":22666:22675   */\n      dup6\n        /* \"#utility.yul\":22662:22680   */\n      add\n        /* \"#utility.yul\":22649:22680   */\n      swap5\n      pop\n        /* \"#utility.yul\":22516:22520   */\n      0x20\n        /* \"#utility.yul\":22513:22514   */\n      dup2\n        /* \"#utility.yul\":22509:22521   */\n      add\n        /* \"#utility.yul\":22504:22521   */\n      swap1\n      pop\n        /* \"#utility.yul\":22479:22694   */\n      jump(tag_568)\n    tag_570:\n        /* \"#utility.yul\":22722:22728   */\n      dup7\n        /* \"#utility.yul\":22713:22720   */\n      dup4\n        /* \"#utility.yul\":22710:22729   */\n      lt\n        /* \"#utility.yul\":22707:22893   */\n      iszero\n      tag_571\n      jumpi\n        /* \"#utility.yul\":22787:22796   */\n      dup5\n        /* \"#utility.yul\":22782:22785   */\n      dup10\n        /* \"#utility.yul\":22778:22797   */\n      add\n        /* \"#utility.yul\":22765:22798   */\n      calldataload\n        /* \"#utility.yul\":22830:22878   */\n      tag_572\n        /* \"#utility.yul\":22872:22876   */\n      0x1f\n        /* \"#utility.yul\":22864:22870   */\n      dup10\n        /* \"#utility.yul\":22860:22877   */\n      and\n        /* \"#utility.yul\":22849:22858   */\n      dup3\n        /* \"#utility.yul\":22830:22878   */\n      tag_289\n      jump\t// in\n    tag_572:\n        /* \"#utility.yul\":22822:22828   */\n      dup4\n        /* \"#utility.yul\":22815:22879   */\n      sstore\n        /* \"#utility.yul\":22730:22893   */\n      pop\n        /* \"#utility.yul\":22707:22893   */\n    tag_571:\n        /* \"#utility.yul\":22939:22940   */\n      0x01\n        /* \"#utility.yul\":22935:22936   */\n      0x02\n        /* \"#utility.yul\":22927:22933   */\n      dup9\n        /* \"#utility.yul\":22923:22937   */\n      mul\n        /* \"#utility.yul\":22919:22941   */\n      add\n        /* \"#utility.yul\":22913:22917   */\n      dup9\n        /* \"#utility.yul\":22906:22942   */\n      sstore\n        /* \"#utility.yul\":22327:22952   */\n      pop\n      pop\n      pop\n        /* \"#utility.yul\":22290:23198   */\n    tag_563:\n      pop\n        /* \"#utility.yul\":21900:23204   */\n      pop\n      pop\n      pop\n        /* \"#utility.yul\":21801:23204   */\n      pop\n      pop\n      pop\n      jump\t// out\n        /* \"#utility.yul\":23210:23561   */\n    tag_159:\n        /* \"#utility.yul\":23280:23286   */\n      0x00\n        /* \"#utility.yul\":23329:23331   */\n      0x20\n        /* \"#utility.yul\":23317:23326   */\n      dup3\n        /* \"#utility.yul\":23308:23315   */\n      dup5\n        /* \"#utility.yul\":23304:23327   */\n      sub\n        /* \"#utility.yul\":23300:23332   */\n      slt\n        /* \"#utility.yul\":23297:23416   */\n      iszero\n      tag_574\n      jumpi\n        /* \"#utility.yul\":23335:23414   */\n      tag_575\n      tag_223\n      jump\t// in\n    tag_575:\n        /* \"#utility.yul\":23297:23416   */\n    tag_574:\n        /* \"#utility.yul\":23455:23456   */\n      0x00\n        /* \"#utility.yul\":23480:23544   */\n      tag_576\n        /* \"#utility.yul\":23536:23543   */\n      dup5\n        /* \"#utility.yul\":23527:23533   */\n      dup3\n        /* \"#utility.yul\":23516:23525   */\n      dup6\n        /* \"#utility.yul\":23512:23534   */\n      add\n        /* \"#utility.yul\":23480:23544   */\n      tag_261\n      jump\t// in\n    tag_576:\n        /* \"#utility.yul\":23470:23544   */\n      swap2\n      pop\n        /* \"#utility.yul\":23426:23554   */\n      pop\n        /* \"#utility.yul\":23210:23561   */\n      swap3\n      swap2\n      pop\n      pop\n      jump\t// out\n        /* \"#utility.yul\":23567:23899   */\n    tag_182:\n        /* \"#utility.yul\":23688:23692   */\n      0x00\n        /* \"#utility.yul\":23726:23728   */\n      0x40\n        /* \"#utility.yul\":23715:23724   */\n      dup3\n        /* \"#utility.yul\":23711:23729   */\n      add\n        /* \"#utility.yul\":23703:23729   */\n      swap1\n      pop\n        /* \"#utility.yul\":23739:23810   */\n      tag_578\n        /* \"#utility.yul\":23807:23808   */\n      0x00\n        /* \"#utility.yul\":23796:23805   */\n      dup4\n        /* \"#utility.yul\":23792:23809   */\n      add\n        /* \"#utility.yul\":23783:23789   */\n      dup6\n        /* \"#utility.yul\":23739:23810   */\n      tag_274\n      jump\t// in\n    tag_578:\n        /* \"#utility.yul\":23820:23892   */\n      tag_579\n        /* \"#utility.yul\":23888:23890   */\n      0x20\n        /* \"#utility.yul\":23877:23886   */\n      dup4\n        /* \"#utility.yul\":23873:23891   */\n      add\n        /* \"#utility.yul\":23864:23870   */\n      dup5\n        /* \"#utility.yul\":23820:23892   */\n      tag_232\n      jump\t// in\n    tag_579:\n        /* \"#utility.yul\":23567:23899   */\n      swap4\n      swap3\n      pop\n      pop\n      pop\n      jump\t// out\n        /* \"#utility.yul\":23905:24022   */\n    tag_291:\n        /* \"#utility.yul\":24014:24015   */\n      0x00\n        /* \"#utility.yul\":24011:24012   */\n      dup1\n        /* \"#utility.yul\":24004:24016   */\n      revert\n        /* \"#utility.yul\":24028:24335   */\n    tag_292:\n        /* \"#utility.yul\":24089:24093   */\n      0x00\n        /* \"#utility.yul\":24179:24197   */\n      0xffffffffffffffff\n        /* \"#utility.yul\":24171:24177   */\n      dup3\n        /* \"#utility.yul\":24168:24198   */\n      gt\n        /* \"#utility.yul\":24165:24221   */\n      iszero\n      tag_582\n      jumpi\n        /* \"#utility.yul\":24201:24219   */\n      tag_583\n      tag_253\n      jump\t// in\n    tag_583:\n        /* \"#utility.yul\":24165:24221   */\n    tag_582:\n        /* \"#utility.yul\":24239:24268   */\n      tag_584\n        /* \"#utility.yul\":24261:24267   */\n      dup3\n        /* \"#utility.yul\":24239:24268   */\n      tag_251\n      jump\t// in\n    tag_584:\n        /* \"#utility.yul\":24231:24268   */\n      swap1\n      pop\n        /* \"#utility.yul\":24323:24327   */\n      0x20\n        /* \"#utility.yul\":24317:24321   */\n      dup2\n        /* \"#utility.yul\":24313:24328   */\n      add\n        /* \"#utility.yul\":24305:24328   */\n      swap1\n      pop\n        /* \"#utility.yul\":24028:24335   */\n      swap2\n      swap1\n      pop\n      jump\t// out\n        /* \"#utility.yul\":24341:24773   */\n    tag_293:\n        /* \"#utility.yul\":24429:24434   */\n      0x00\n        /* \"#utility.yul\":24454:24519   */\n      tag_586\n        /* \"#utility.yul\":24470:24518   */\n      tag_587\n        /* \"#utility.yul\":24511:24517   */\n      dup5\n        /* \"#utility.yul\":24470:24518   */\n      tag_292\n      jump\t// in\n    tag_587:\n        /* \"#utility.yul\":24454:24519   */\n      tag_255\n      jump\t// in\n    tag_586:\n        /* \"#utility.yul\":24445:24519   */\n      swap1\n      pop\n        /* \"#utility.yul\":24542:24548   */\n      dup3\n        /* \"#utility.yul\":24535:24540   */\n      dup2\n        /* \"#utility.yul\":24528:24549   */\n      mstore\n        /* \"#utility.yul\":24580:24584   */\n      0x20\n        /* \"#utility.yul\":24573:24578   */\n      dup2\n        /* \"#utility.yul\":24569:24585   */\n      add\n        /* \"#utility.yul\":24618:24621   */\n      dup5\n        /* \"#utility.yul\":24609:24615   */\n      dup5\n        /* \"#utility.yul\":24604:24607   */\n      dup5\n        /* \"#utility.yul\":24600:24616   */\n      add\n        /* \"#utility.yul\":24597:24622   */\n      gt\n        /* \"#utility.yul\":24594:24706   */\n      iszero\n      tag_588\n      jumpi\n        /* \"#utility.yul\":24625:24704   */\n      tag_589\n      tag_291\n      jump\t// in\n    tag_589:\n        /* \"#utility.yul\":24594:24706   */\n    tag_588:\n        /* \"#utility.yul\":24715:24767   */\n      tag_590\n        /* \"#utility.yul\":24760:24766   */\n      dup5\n        /* \"#utility.yul\":24755:24758   */\n      dup3\n        /* \"#utility.yul\":24750:24753   */\n      dup6\n        /* \"#utility.yul\":24715:24767   */\n      tag_250\n      jump\t// in\n    tag_590:\n        /* \"#utility.yul\":24435:24773   */\n      pop\n        /* \"#utility.yul\":24341:24773   */\n      swap4\n      swap3\n      pop\n      pop\n      pop\n      jump\t// out\n        /* \"#utility.yul\":24792:25145   */\n    tag_294:\n        /* \"#utility.yul\":24858:24863   */\n      0x00\n        /* \"#utility.yul\":24907:24910   */\n      dup3\n        /* \"#utility.yul\":24900:24904   */\n      0x1f\n        /* \"#utility.yul\":24892:24898   */\n      dup4\n        /* \"#utility.yul\":24888:24905   */\n      add\n        /* \"#utility.yul\":24884:24911   */\n      slt\n        /* \"#utility.yul\":24874:24996   */\n      tag_592\n      jumpi\n        /* \"#utility.yul\":24915:24994   */\n      tag_593\n      tag_244\n      jump\t// in\n    tag_593:\n        /* \"#utility.yul\":24874:24996   */\n    tag_592:\n        /* \"#utility.yul\":25025:25031   */\n      dup2\n        /* \"#utility.yul\":25019:25032   */\n      mload\n        /* \"#utility.yul\":25050:25139   */\n      tag_594\n        /* \"#utility.yul\":25135:25138   */\n      dup5\n        /* \"#utility.yul\":25127:25133   */\n      dup3\n        /* \"#utility.yul\":25120:25124   */\n      0x20\n        /* \"#utility.yul\":25112:25118   */\n      dup7\n        /* \"#utility.yul\":25108:25125   */\n      add\n        /* \"#utility.yul\":25050:25139   */\n      tag_293\n      jump\t// in\n    tag_594:\n        /* \"#utility.yul\":25041:25139   */\n      swap2\n      pop\n        /* \"#utility.yul\":24864:25145   */\n      pop\n        /* \"#utility.yul\":24792:25145   */\n      swap3\n      swap2\n      pop\n      pop\n      jump\t// out\n        /* \"#utility.yul\":25151:25673   */\n    tag_186:\n        /* \"#utility.yul\":25230:25236   */\n      0x00\n        /* \"#utility.yul\":25279:25281   */\n      0x20\n        /* \"#utility.yul\":25267:25276   */\n      dup3\n        /* \"#utility.yul\":25258:25265   */\n      dup5\n        /* \"#utility.yul\":25254:25277   */\n      sub\n        /* \"#utility.yul\":25250:25282   */\n      slt\n        /* \"#utility.yul\":25247:25366   */\n      iszero\n      tag_596\n      jumpi\n        /* \"#utility.yul\":25285:25364   */\n      tag_597\n      tag_223\n      jump\t// in\n    tag_597:\n        /* \"#utility.yul\":25247:25366   */\n    tag_596:\n        /* \"#utility.yul\":25426:25427   */\n      0x00\n        /* \"#utility.yul\":25415:25424   */\n      dup3\n        /* \"#utility.yul\":25411:25428   */\n      add\n        /* \"#utility.yul\":25405:25429   */\n      mload\n        /* \"#utility.yul\":25456:25474   */\n      0xffffffffffffffff\n        /* \"#utility.yul\":25448:25454   */\n      dup2\n        /* \"#utility.yul\":25445:25475   */\n      gt\n        /* \"#utility.yul\":25442:25559   */\n      iszero\n      tag_598\n      jumpi\n        /* \"#utility.yul\":25478:25557   */\n      tag_599\n      tag_224\n      jump\t// in\n    tag_599:\n        /* \"#utility.yul\":25442:25559   */\n    tag_598:\n        /* \"#utility.yul\":25583:25656   */\n      tag_600\n        /* \"#utility.yul\":25648:25655   */\n      dup5\n        /* \"#utility.yul\":25639:25645   */\n      dup3\n        /* \"#utility.yul\":25628:25637   */\n      dup6\n        /* \"#utility.yul\":25624:25646   */\n      add\n        /* \"#utility.yul\":25583:25656   */\n      tag_294\n      jump\t// in\n    tag_600:\n        /* \"#utility.yul\":25573:25656   */\n      swap2\n      pop\n        /* \"#utility.yul\":25376:25666   */\n      pop\n        /* \"#utility.yul\":25151:25673   */\n      swap3\n      swap2\n      pop\n      pop\n      jump\t// out\n        /* \"#utility.yul\":25679:25778   */\n    tag_295:\n        /* \"#utility.yul\":25731:25737   */\n      0x00\n        /* \"#utility.yul\":25765:25770   */\n      dup2\n        /* \"#utility.yul\":25759:25771   */\n      mload\n        /* \"#utility.yul\":25749:25771   */\n      swap1\n      pop\n        /* \"#utility.yul\":25679:25778   */\n      swap2\n      swap1\n      pop\n      jump\t// out\n        /* \"#utility.yul\":25784:25953   */\n    tag_296:\n        /* \"#utility.yul\":25868:25879   */\n      0x00\n        /* \"#utility.yul\":25902:25908   */\n      dup3\n        /* \"#utility.yul\":25897:25900   */\n      dup3\n        /* \"#utility.yul\":25890:25909   */\n      mstore\n        /* \"#utility.yul\":25942:25946   */\n      0x20\n        /* \"#utility.yul\":25937:25940   */\n      dup3\n        /* \"#utility.yul\":25933:25947   */\n      add\n        /* \"#utility.yul\":25918:25947   */\n      swap1\n      pop\n        /* \"#utility.yul\":25784:25953   */\n      swap3\n      swap2\n      pop\n      pop\n      jump\t// out\n        /* \"#utility.yul\":25959:26336   */\n    tag_297:\n        /* \"#utility.yul\":26047:26050   */\n      0x00\n        /* \"#utility.yul\":26075:26114   */\n      tag_604\n        /* \"#utility.yul\":26108:26113   */\n      dup3\n        /* \"#utility.yul\":26075:26114   */\n      tag_295\n      jump\t// in\n    tag_604:\n        /* \"#utility.yul\":26130:26201   */\n      tag_605\n        /* \"#utility.yul\":26194:26200   */\n      dup2\n        /* \"#utility.yul\":26189:26192   */\n      dup6\n        /* \"#utility.yul\":26130:26201   */\n      tag_296\n      jump\t// in\n    tag_605:\n        /* \"#utility.yul\":26123:26201   */\n      swap4\n      pop\n        /* \"#utility.yul\":26210:26275   */\n      tag_606\n        /* \"#utility.yul\":26268:26274   */\n      dup2\n        /* \"#utility.yul\":26263:26266   */\n      dup6\n        /* \"#utility.yul\":26256:26260   */\n      0x20\n        /* \"#utility.yul\":26249:26254   */\n      dup7\n        /* \"#utility.yul\":26245:26261   */\n      add\n        /* \"#utility.yul\":26210:26275   */\n      tag_250\n      jump\t// in\n    tag_606:\n        /* \"#utility.yul\":26300:26329   */\n      tag_607\n        /* \"#utility.yul\":26322:26328   */\n      dup2\n        /* \"#utility.yul\":26300:26329   */\n      tag_251\n      jump\t// in\n    tag_607:\n        /* \"#utility.yul\":26295:26298   */\n      dup5\n        /* \"#utility.yul\":26291:26330   */\n      add\n        /* \"#utility.yul\":26284:26330   */\n      swap2\n      pop\n        /* \"#utility.yul\":26051:26336   */\n      pop\n        /* \"#utility.yul\":25959:26336   */\n      swap3\n      swap2\n      pop\n      pop\n      jump\t// out\n        /* \"#utility.yul\":26342:26495   */\n    tag_298:\n        /* \"#utility.yul\":26482:26487   */\n      0x7573640000000000000000000000000000000000000000000000000000000000\n        /* \"#utility.yul\":26478:26479   */\n      0x00\n        /* \"#utility.yul\":26470:26476   */\n      dup3\n        /* \"#utility.yul\":26466:26480   */\n      add\n        /* \"#utility.yul\":26459:26488   */\n      mstore\n        /* \"#utility.yul\":26342:26495   */\n      pop\n      jump\t// out\n        /* \"#utility.yul\":26501:26866   */\n    tag_299:\n        /* \"#utility.yul\":26643:26646   */\n      0x00\n        /* \"#utility.yul\":26664:26730   */\n      tag_610\n        /* \"#utility.yul\":26728:26729   */\n      0x03\n        /* \"#utility.yul\":26723:26726   */\n      dup4\n        /* \"#utility.yul\":26664:26730   */\n      tag_296\n      jump\t// in\n    tag_610:\n        /* \"#utility.yul\":26657:26730   */\n      swap2\n      pop\n        /* \"#utility.yul\":26739:26832   */\n      tag_611\n        /* \"#utility.yul\":26828:26831   */\n      dup3\n        /* \"#utility.yul\":26739:26832   */\n      tag_298\n      jump\t// in\n    tag_611:\n        /* \"#utility.yul\":26857:26859   */\n      0x20\n        /* \"#utility.yul\":26852:26855   */\n      dup3\n        /* \"#utility.yul\":26848:26860   */\n      add\n        /* \"#utility.yul\":26841:26860   */\n      swap1\n      pop\n        /* \"#utility.yul\":26501:26866   */\n      swap2\n      swap1\n      pop\n      jump\t// out\n        /* \"#utility.yul\":26872:27492   */\n    tag_214:\n        /* \"#utility.yul\":27086:27090   */\n      0x00\n        /* \"#utility.yul\":27124:27126   */\n      0x40\n        /* \"#utility.yul\":27113:27122   */\n      dup3\n        /* \"#utility.yul\":27109:27127   */\n      add\n        /* \"#utility.yul\":27101:27127   */\n      swap1\n      pop\n        /* \"#utility.yul\":27173:27182   */\n      dup2\n        /* \"#utility.yul\":27167:27171   */\n      dup2\n        /* \"#utility.yul\":27163:27183   */\n      sub\n        /* \"#utility.yul\":27159:27160   */\n      0x00\n        /* \"#utility.yul\":27148:27157   */\n      dup4\n        /* \"#utility.yul\":27144:27161   */\n      add\n        /* \"#utility.yul\":27137:27184   */\n      mstore\n        /* \"#utility.yul\":27201:27279   */\n      tag_613\n        /* \"#utility.yul\":27274:27278   */\n      dup2\n        /* \"#utility.yul\":27265:27271   */\n      dup5\n        /* \"#utility.yul\":27201:27279   */\n      tag_297\n      jump\t// in\n    tag_613:\n        /* \"#utility.yul\":27193:27279   */\n      swap1\n      pop\n        /* \"#utility.yul\":27326:27335   */\n      dup2\n        /* \"#utility.yul\":27320:27324   */\n      dup2\n        /* \"#utility.yul\":27316:27336   */\n      sub\n        /* \"#utility.yul\":27311:27313   */\n      0x20\n        /* \"#utility.yul\":27300:27309   */\n      dup4\n        /* \"#utility.yul\":27296:27314   */\n      add\n        /* \"#utility.yul\":27289:27337   */\n      mstore\n        /* \"#utility.yul\":27354:27485   */\n      tag_614\n        /* \"#utility.yul\":27480:27484   */\n      dup2\n        /* \"#utility.yul\":27354:27485   */\n      tag_299\n      jump\t// in\n    tag_614:\n        /* \"#utility.yul\":27346:27485   */\n      swap1\n      pop\n        /* \"#utility.yul\":26872:27492   */\n      swap3\n      swap2\n      pop\n      pop\n      jump\t// out\n        /* \"#utility.yul\":27498:27657   */\n    tag_300:\n        /* \"#utility.yul\":27638:27649   */\n      0x53706f7450726963650000000000000000000000000000000000000000000000\n        /* \"#utility.yul\":27634:27635   */\n      0x00\n        /* \"#utility.yul\":27626:27632   */\n      dup3\n        /* \"#utility.yul\":27622:27636   */\n      add\n        /* \"#utility.yul\":27615:27650   */\n      mstore\n        /* \"#utility.yul\":27498:27657   */\n      pop\n      jump\t// out\n        /* \"#utility.yul\":27663:28028   */\n    tag_301:\n        /* \"#utility.yul\":27805:27808   */\n      0x00\n        /* \"#utility.yul\":27826:27892   */\n      tag_617\n        /* \"#utility.yul\":27890:27891   */\n      0x09\n        /* \"#utility.yul\":27885:27888   */\n      dup4\n        /* \"#utility.yul\":27826:27892   */\n      tag_296\n      jump\t// in\n    tag_617:\n        /* \"#utility.yul\":27819:27892   */\n      swap2\n      pop\n        /* \"#utility.yul\":27901:27994   */\n      tag_618\n        /* \"#utility.yul\":27990:27993   */\n      dup3\n        /* \"#utility.yul\":27901:27994   */\n      tag_300\n      jump\t// in\n    tag_618:\n        /* \"#utility.yul\":28019:28021   */\n      0x20\n        /* \"#utility.yul\":28014:28017   */\n      dup3\n        /* \"#utility.yul\":28010:28022   */\n      add\n        /* \"#utility.yul\":28003:28022   */\n      swap1\n      pop\n        /* \"#utility.yul\":27663:28028   */\n      swap2\n      swap1\n      pop\n      jump\t// out\n        /* \"#utility.yul\":28034:28650   */\n    tag_216:\n        /* \"#utility.yul\":28246:28250   */\n      0x00\n        /* \"#utility.yul\":28284:28286   */\n      0x40\n        /* \"#utility.yul\":28273:28282   */\n      dup3\n        /* \"#utility.yul\":28269:28287   */\n      add\n        /* \"#utility.yul\":28261:28287   */\n      swap1\n      pop\n        /* \"#utility.yul\":28333:28342   */\n      dup2\n        /* \"#utility.yul\":28327:28331   */\n      dup2\n        /* \"#utility.yul\":28323:28343   */\n      sub\n        /* \"#utility.yul\":28319:28320   */\n      0x00\n        /* \"#utility.yul\":28308:28317   */\n      dup4\n        /* \"#utility.yul\":28304:28321   */\n      add\n        /* \"#utility.yul\":28297:28344   */\n      mstore\n        /* \"#utility.yul\":28361:28492   */\n      tag_620\n        /* \"#utility.yul\":28487:28491   */\n      dup2\n        /* \"#utility.yul\":28361:28492   */\n      tag_301\n      jump\t// in\n    tag_620:\n        /* \"#utility.yul\":28353:28492   */\n      swap1\n      pop\n        /* \"#utility.yul\":28539:28548   */\n      dup2\n        /* \"#utility.yul\":28533:28537   */\n      dup2\n        /* \"#utility.yul\":28529:28549   */\n      sub\n        /* \"#utility.yul\":28524:28526   */\n      0x20\n        /* \"#utility.yul\":28513:28522   */\n      dup4\n        /* \"#utility.yul\":28509:28527   */\n      add\n        /* \"#utility.yul\":28502:28550   */\n      mstore\n        /* \"#utility.yul\":28567:28643   */\n      tag_621\n        /* \"#utility.yul\":28638:28642   */\n      dup2\n        /* \"#utility.yul\":28629:28635   */\n      dup5\n        /* \"#utility.yul\":28567:28643   */\n      tag_252\n      jump\t// in\n    tag_621:\n        /* \"#utility.yul\":28559:28643   */\n      swap1\n      pop\n        /* \"#utility.yul\":28034:28650   */\n      swap3\n      swap2\n      pop\n      pop\n      jump\t// out\n\n    auxdata: 0xa264697066735822122097d11e5919d0d9d3a8e86213941178e16c448b64d0a9f223aae611ac8a0b2bea64736f6c63430008110033\n}\n",
				"bytecode": {
					"linkReferences": {},
					"object": "60a06040523480156200001157600080fd5b506040516200243438038062002434833981810160405281019062000037919062000164565b81806000806101000a81548173ffffffffffffffffffffffffffffffffffffffff021916908373ffffffffffffffffffffffffffffffffffffffff160217905550508073ffffffffffffffffffffffffffffffffffffffff1660808173ffffffffffffffffffffffffffffffffffffffff16815250505050620001ab565b600080fd5b600073ffffffffffffffffffffffffffffffffffffffff82169050919050565b6000620000e782620000ba565b9050919050565b620000f981620000da565b81146200010557600080fd5b50565b6000815190506200011981620000ee565b92915050565b60006200012c82620000ba565b9050919050565b6200013e816200011f565b81146200014a57600080fd5b50565b6000815190506200015e8162000133565b92915050565b600080604083850312156200017e576200017d620000b5565b5b60006200018e8582860162000108565b9250506020620001a1858286016200014d565b9150509250929050565b608051612266620001ce600039600081816102ca01526104a601526122666000f3fe608060405234801561001057600080fd5b50600436106100b45760003560e01c806377b03e0d1161007157806377b03e0d146101a2578063a792765f146101d2578063adf1639d14610204578063c5958af914610236578063ce5e11bf14610266578063fc57d4df14610296576100b4565b806306cd702c146100b957806308a130ab146100e95780631959ad5b14610107578063294490851461012557806344e87f91146101565780634cdf47cc14610186575b600080fd5b6100d360048036038101906100ce9190611372565b6102c6565b6040516100e091906113c1565b60405180910390f35b6100f16104a4565b6040516100fe91906113eb565b60405180910390f35b61010f6104c8565b60405161011c9190611465565b60405180910390f35b61013f600480360381019061013a91906114b6565b6104ec565b60405161014d929190611511565b60405180910390f35b610170600480360381019061016b91906114b6565b610667565b60405161017d919061153a565b60405180910390f35b6101a0600480360381019061019b91906115ba565b61093d565b005b6101bc60048036038101906101b7919061161a565b610991565b6040516101c991906113c1565b60405180910390f35b6101ec60048036038101906101e791906114b6565b610ba8565b6040516101fb939291906116d7565b60405180910390f35b61021e6004803603810190610219919061161a565b610c5a565b60405161022d939291906116d7565b60405180910390f35b610250600480360381019061024b91906114b6565b610d12565b60405161025d9190611715565b60405180910390f35b610280600480360381019061027b91906114b6565b610f38565b60405161028d91906113c1565b60405180910390f35b6102b060048036038101906102ab9190611737565b611154565b6040516102bd91906113c1565b60405180910390f35b60007f000000000000000000000000000000000000000000000000000000000000000073ffffffffffffffffffffffffffffffffffffffff168373ffffffffffffffffffffffffffffffffffffffff161461032b5761032483611166565b905061049e565b60008373ffffffffffffffffffffffffffffffffffffffff1663d3c9cc26846040518263ffffffff1660e01b815260040161036691906113c1565b600060405180830381865afa158015610383573d6000803e3d6000fd5b505050506040513d6000823e3d601f19601f820116820180604052508101906103ac91906118b7565b905060008473ffffffffffffffffffffffffffffffffffffffff166359f7cf50856040518263ffffffff1660e01b81526004016103e991906113c1565b600060405180830381865afa158015610406573d6000803e3d6000fd5b505050506040513d6000823e3d601f19601f8201168201806040525081019061042f91906119d8565b90506000808351905060005b8181101561049557600061046886838151811061045b5761045a611a21565b5b6020026020010151611166565b90506000810361048157808461047e9190611a7f565b93505b50808061048d90611ab3565b91505061043b565b50819450505050505b92915050565b7f000000000000000000000000000000000000000000000000000000000000000081565b60008054906101000a900473ffffffffffffffffffffffffffffffffffffffff1681565b60008060006104fa85610991565b905060008111156106575760008060009050600060018461051b9190611afb565b905060006105298984610f38565b905087811061054357600080965096505050505050610660565b61054d8983610f38565b90508781101561056857600182965096505050505050610660565b5b60011561065257826001600285856105819190611afb565b61058b9190611b5e565b6105959190611a7f565b61059f9190611a7f565b93506105ab8985610f38565b9050878110156105fd5760006105cd8a6001876105c89190611a7f565b610f38565b90508881106105e85760018597509750505050505050610660565b6001856105f59190611a7f565b93505061064d565b60006106158a6001876106109190611afb565b610f38565b90508881101561063c576001808661062d9190611afb565b97509750505050505050610660565b6001856106499190611afb565b9250505b610569565b505050505b60008092509250505b9250929050565b6000807318431fd88adf138e8b979a7246eb58ea7126ea1673ffffffffffffffffffffffffffffffffffffffff1660008054906101000a900473ffffffffffffffffffffffffffffffffffffffff1673ffffffffffffffffffffffffffffffffffffffff161480610737575073e8218cacb0a5421bc6409e498d9f8cc8869945ea73ffffffffffffffffffffffffffffffffffffffff1660008054906101000a900473ffffffffffffffffffffffffffffffffffffffff1673ffffffffffffffffffffffffffffffffffffffff16145b156107f75760007388df592f8eb5d7bd38bfef7deb0fbc02cf3778a090508073ffffffffffffffffffffffffffffffffffffffff1663699f200f7fefa19baa864049f50491093580c5433e97e8d5e41f8db1a61108b4fa44cacd936040518263ffffffff1660e01b81526004016107ae9190611bd7565b602060405180830381865afa1580156107cb573d6000803e3d6000fd5b505050506040513d601f19601f820116820180604052508101906107ef9190611bf2565b915050610889565b60008054906101000a900473ffffffffffffffffffffffffffffffffffffffff1673ffffffffffffffffffffffffffffffffffffffff16635aa6e6756040518163ffffffff1660e01b8152600401602060405180830381865afa158015610862573d6000803e3d6000fd5b505050506040513d601f19601f820116820180604052508101906108869190611bf2565b90505b60008173ffffffffffffffffffffffffffffffffffffffff1663248638e586866040516020016108ba929190611c61565b604051602081830303815290604052805190602001206040518263ffffffff1660e01b81526004016108ec9190611c9c565b600060405180830381865afa158015610909573d6000803e3d6000fd5b505050506040513d6000823e3d601f19601f8201168201806040525081019061093291906119d8565b511191505092915050565b8181600160008673ffffffffffffffffffffffffffffffffffffffff1673ffffffffffffffffffffffffffffffffffffffff168152602001908152602001600020918261098b929190611ec4565b50505050565b60007318431fd88adf138e8b979a7246eb58ea7126ea1673ffffffffffffffffffffffffffffffffffffffff1660008054906101000a900473ffffffffffffffffffffffffffffffffffffffff1673ffffffffffffffffffffffffffffffffffffffff161480610a60575073e8218cacb0a5421bc6409e498d9f8cc8869945ea73ffffffffffffffffffffffffffffffffffffffff1660008054906101000a900473ffffffffffffffffffffffffffffffffffffffff1673ffffffffffffffffffffffffffffffffffffffff16145b15610b065760008054906101000a900473ffffffffffffffffffffffffffffffffffffffff1673ffffffffffffffffffffffffffffffffffffffff166335e72432836040518263ffffffff1660e01b8152600401610abe9190611c9c565b602060405180830381865afa158015610adb573d6000803e3d6000fd5b505050506040513d601f19601f82011682018060405250810190610aff9190611f94565b9050610ba3565b60008054906101000a900473ffffffffffffffffffffffffffffffffffffffff1673ffffffffffffffffffffffffffffffffffffffff166377b03e0d836040518263ffffffff1660e01b8152600401610b5f9190611c9c565b602060405180830381865afa158015610b7c573d6000803e3d6000fd5b505050506040513d601f19601f82011682018060405250810190610ba09190611f94565b90505b919050565b600060606000806000610bbb87876104ec565b9150915081610be55760006040518060200160405280600081525060009450945094505050610c53565b6000610bf18883610f38565b9050610bfd8882610d12565b94506040518060200160405280600081525080519060200120858051906020012014610c355760018582955095509550505050610c53565b60006040518060200160405280600081525060009550955095505050505b9250925092565b60006060600080610c6a85610991565b905060008103610c9457600060405180602001604052806000815250600093509350935050610d0b565b6000610cac86600184610ca79190611afb565b610f38565b9050610cb88682610d12565b93506040518060200160405280600081525080519060200120848051906020012014610cef57600184829450945094505050610d0b565b6000604051806020016040528060008152508294509450945050505b9193909250565b60607318431fd88adf138e8b979a7246eb58ea7126ea1673ffffffffffffffffffffffffffffffffffffffff1660008054906101000a900473ffffffffffffffffffffffffffffffffffffffff1673ffffffffffffffffffffffffffffffffffffffff161480610de1575073e8218cacb0a5421bc6409e498d9f8cc8869945ea73ffffffffffffffffffffffffffffffffffffffff1660008054906101000a900473ffffffffffffffffffffffffffffffffffffffff1673ffffffffffffffffffffffffffffffffffffffff16145b15610e8e5760008054906101000a900473ffffffffffffffffffffffffffffffffffffffff1673ffffffffffffffffffffffffffffffffffffffff16630b2d2b0d84846040518363ffffffff1660e01b8152600401610e41929190611fc1565b600060405180830381865afa158015610e5e573d6000803e3d6000fd5b505050506040513d6000823e3d601f19601f82011682018060405250810190610e879190612090565b9050610f32565b60008054906101000a900473ffffffffffffffffffffffffffffffffffffffff1673ffffffffffffffffffffffffffffffffffffffff1663c5958af984846040518363ffffffff1660e01b8152600401610ee9929190611fc1565b600060405180830381865afa158015610f06573d6000803e3d6000fd5b505050506040513d6000823e3d601f19601f82011682018060405250810190610f2f9190612090565b90505b92915050565b60007318431fd88adf138e8b979a7246eb58ea7126ea1673ffffffffffffffffffffffffffffffffffffffff1660008054906101000a900473ffffffffffffffffffffffffffffffffffffffff1673ffffffffffffffffffffffffffffffffffffffff161480611007575073e8218cacb0a5421bc6409e498d9f8cc8869945ea73ffffffffffffffffffffffffffffffffffffffff1660008054906101000a900473ffffffffffffffffffffffffffffffffffffffff1673ffffffffffffffffffffffffffffffffffffffff16145b156110af5760008054906101000a900473ffffffffffffffffffffffffffffffffffffffff1673ffffffffffffffffffffffffffffffffffffffff16637c37b8b484846040518363ffffffff1660e01b8152600401611067929190611fc1565b602060405180830381865afa158015611084573d6000803e3d6000fd5b505050506040513d601f19601f820116820180604052508101906110a89190611f94565b905061114e565b60008054906101000a900473ffffffffffffffffffffffffffffffffffffffff1673ffffffffffffffffffffffffffffffffffffffff1663ce5e11bf84846040518363ffffffff1660e01b815260040161110a929190611fc1565b602060405180830381865afa158015611127573d6000803e3d6000fd5b505050506040513d601f19601f8201168201806040525081019061114b9190611f94565b90505b92915050565b600061115f82611166565b9050919050565b600080600160008473ffffffffffffffffffffffffffffffffffffffff1673ffffffffffffffffffffffffffffffffffffffff16815260200190815260200160002080546111b390611cf1565b80601f01602080910402602001604051908101604052809291908181526020018280546111df90611cf1565b801561122c5780601f106112015761010080835404028352916020019161122c565b820191906000526020600020905b81548152906001019060200180831161120f57829003601f168201915b50505050509050600081604051602001611246919061217a565b60405160208183030381529060405260405160200161126591906121fb565b604051602081830303815290604052905060008180519060200120905060008061128e83610c5a565b5091509150816112a6576000955050505050506112b7565b6112af816112bc565b955050505050505b919050565b600060208201519050919050565b6000604051905090565b600080fd5b600080fd5b600073ffffffffffffffffffffffffffffffffffffffff82169050919050565b6000611309826112de565b9050919050565b611319816112fe565b811461132457600080fd5b50565b60008135905061133681611310565b92915050565b6000819050919050565b61134f8161133c565b811461135a57600080fd5b50565b60008135905061136c81611346565b92915050565b60008060408385031215611389576113886112d4565b5b600061139785828601611327565b92505060206113a88582860161135d565b9150509250929050565b6113bb8161133c565b82525050565b60006020820190506113d660008301846113b2565b92915050565b6113e5816112fe565b82525050565b600060208201905061140060008301846113dc565b92915050565b6000819050919050565b600061142b611426611421846112de565b611406565b6112de565b9050919050565b600061143d82611410565b9050919050565b600061144f82611432565b9050919050565b61145f81611444565b82525050565b600060208201905061147a6000830184611456565b92915050565b6000819050919050565b61149381611480565b811461149e57600080fd5b50565b6000813590506114b08161148a565b92915050565b600080604083850312156114cd576114cc6112d4565b5b60006114db858286016114a1565b92505060206114ec8582860161135d565b9150509250929050565b60008115159050919050565b61150b816114f6565b82525050565b60006040820190506115266000830185611502565b61153360208301846113b2565b9392505050565b600060208201905061154f6000830184611502565b92915050565b600080fd5b600080fd5b600080fd5b60008083601f84011261157a57611579611555565b5b8235905067ffffffffffffffff8111156115975761159661155a565b5b6020830191508360018202830111156115b3576115b261155f565b5b9250929050565b6000806000604084860312156115d3576115d26112d4565b5b60006115e186828701611327565b935050602084013567ffffffffffffffff811115611602576116016112d9565b5b61160e86828701611564565b92509250509250925092565b6000602082840312156116305761162f6112d4565b5b600061163e848285016114a1565b91505092915050565b600081519050919050565b600082825260208201905092915050565b60005b83811015611681578082015181840152602081019050611666565b60008484015250505050565b6000601f19601f8301169050919050565b60006116a982611647565b6116b38185611652565b93506116c3818560208601611663565b6116cc8161168d565b840191505092915050565b60006060820190506116ec6000830186611502565b81810360208301526116fe818561169e565b905061170d60408301846113b2565b949350505050565b6000602082019050818103600083015261172f818461169e565b905092915050565b60006020828403121561174d5761174c6112d4565b5b600061175b84828501611327565b91505092915050565b7f4e487b7100000000000000000000000000000000000000000000000000000000600052604160045260246000fd5b61179c8261168d565b810181811067ffffffffffffffff821117156117bb576117ba611764565b5b80604052505050565b60006117ce6112ca565b90506117da8282611793565b919050565b600067ffffffffffffffff8211156117fa576117f9611764565b5b602082029050602081019050919050565b60008151905061181a81611310565b92915050565b600061183361182e846117df565b6117c4565b905080838252602082019050602084028301858111156118565761185561155f565b5b835b8181101561187f578061186b888261180b565b845260208401935050602081019050611858565b5050509392505050565b600082601f83011261189e5761189d611555565b5b81516118ae848260208601611820565b91505092915050565b6000602082840312156118cd576118cc6112d4565b5b600082015167ffffffffffffffff8111156118eb576118ea6112d9565b5b6118f784828501611889565b91505092915050565b600067ffffffffffffffff82111561191b5761191a611764565b5b602082029050602081019050919050565b60008151905061193b81611346565b92915050565b600061195461194f84611900565b6117c4565b905080838252602082019050602084028301858111156119775761197661155f565b5b835b818110156119a0578061198c888261192c565b845260208401935050602081019050611979565b5050509392505050565b600082601f8301126119bf576119be611555565b5b81516119cf848260208601611941565b91505092915050565b6000602082840312156119ee576119ed6112d4565b5b600082015167ffffffffffffffff811115611a0c57611a0b6112d9565b5b611a18848285016119aa565b91505092915050565b7f4e487b7100000000000000000000000000000000000000000000000000000000600052603260045260246000fd5b7f4e487b7100000000000000000000000000000000000000000000000000000000600052601160045260246000fd5b6000611a8a8261133c565b9150611a958361133c565b9250828201905080821115611aad57611aac611a50565b5b92915050565b6000611abe8261133c565b91507fffffffffffffffffffffffffffffffffffffffffffffffffffffffffffffffff8203611af057611aef611a50565b5b600182019050919050565b6000611b068261133c565b9150611b118361133c565b9250828203905081811115611b2957611b28611a50565b5b92915050565b7f4e487b7100000000000000000000000000000000000000000000000000000000600052601260045260246000fd5b6000611b698261133c565b9150611b748361133c565b925082611b8457611b83611b2f565b5b828204905092915050565b6000819050919050565b60008160001b9050919050565b6000611bc1611bbc611bb784611b8f565b611b99565b611480565b9050919050565b611bd181611ba6565b82525050565b6000602082019050611bec6000830184611bc8565b92915050565b600060208284031215611c0857611c076112d4565b5b6000611c168482850161180b565b91505092915050565b6000819050919050565b611c3a611c3582611480565b611c1f565b82525050565b6000819050919050565b611c5b611c568261133c565b611c40565b82525050565b6000611c6d8285611c29565b602082019150611c7d8284611c4a565b6020820191508190509392505050565b611c9681611480565b82525050565b6000602082019050611cb16000830184611c8d565b92915050565b600082905092915050565b7f4e487b7100000000000000000000000000000000000000000000000000000000600052602260045260246000fd5b60006002820490506001821680611d0957607f821691505b602082108103611d1c57611d1b611cc2565b5b50919050565b60008190508160005260206000209050919050565b60006020601f8301049050919050565b600082821b905092915050565b600060088302611d847fffffffffffffffffffffffffffffffffffffffffffffffffffffffffffffffff82611d47565b611d8e8683611d47565b95508019841693508086168417925050509392505050565b6000611dc1611dbc611db78461133c565b611406565b61133c565b9050919050565b6000819050919050565b611ddb83611da6565b611def611de782611dc8565b848454611d54565b825550505050565b600090565b611e04611df7565b611e0f818484611dd2565b505050565b5b81811015611e3357611e28600082611dfc565b600181019050611e15565b5050565b601f821115611e7857611e4981611d22565b611e5284611d37565b81016020851015611e61578190505b611e75611e6d85611d37565b830182611e14565b50505b505050565b600082821c905092915050565b6000611e9b60001984600802611e7d565b1980831691505092915050565b6000611eb48383611e8a565b9150826002028217905092915050565b611ece8383611cb7565b67ffffffffffffffff811115611ee757611ee6611764565b5b611ef18254611cf1565b611efc828285611e37565b6000601f831160018114611f2b5760008415611f19578287013590505b611f238582611ea8565b865550611f8b565b601f198416611f3986611d22565b60005b82811015611f6157848901358255600182019150602085019450602081019050611f3c565b86831015611f7e5784890135611f7a601f891682611e8a565b8355505b6001600288020188555050505b50505050505050565b600060208284031215611faa57611fa96112d4565b5b6000611fb88482850161192c565b91505092915050565b6000604082019050611fd66000830185611c8d565b611fe360208301846113b2565b9392505050565b600080fd5b600067ffffffffffffffff82111561200a57612009611764565b5b6120138261168d565b9050602081019050919050565b600061203361202e84611fef565b6117c4565b90508281526020810184848401111561204f5761204e611fea565b5b61205a848285611663565b509392505050565b600082601f83011261207757612076611555565b5b8151612087848260208601612020565b91505092915050565b6000602082840312156120a6576120a56112d4565b5b600082015167ffffffffffffffff8111156120c4576120c36112d9565b5b6120d084828501612062565b91505092915050565b600081519050919050565b600082825260208201905092915050565b6000612100826120d9565b61210a81856120e4565b935061211a818560208601611663565b6121238161168d565b840191505092915050565b7f7573640000000000000000000000000000000000000000000000000000000000600082015250565b60006121646003836120e4565b915061216f8261212e565b602082019050919050565b6000604082019050818103600083015261219481846120f5565b905081810360208301526121a781612157565b905092915050565b7f53706f7450726963650000000000000000000000000000000000000000000000600082015250565b60006121e56009836120e4565b91506121f0826121af565b602082019050919050565b60006040820190508181036000830152612214816121d8565b90508181036020830152612228818461169e565b90509291505056fea264697066735822122097d11e5919d0d9d3a8e86213941178e16c448b64d0a9f223aae611ac8a0b2bea64736f6c63430008110033",
					"opcodes": "PUSH1 0xA0 PUSH1 0x40 MSTORE CALLVALUE DUP1 ISZERO PUSH3 0x11 JUMPI PUSH1 0x0 DUP1 REVERT JUMPDEST POP PUSH1 0x40 MLOAD PUSH3 0x2434 CODESIZE SUB DUP1 PUSH3 0x2434 DUP4 CODECOPY DUP2 DUP2 ADD PUSH1 0x40 MSTORE DUP2 ADD SWAP1 PUSH3 0x37 SWAP2 SWAP1 PUSH3 0x164 JUMP JUMPDEST DUP2 DUP1 PUSH1 0x0 DUP1 PUSH2 0x100 EXP DUP2 SLOAD DUP2 PUSH20 0xFFFFFFFFFFFFFFFFFFFFFFFFFFFFFFFFFFFFFFFF MUL NOT AND SWAP1 DUP4 PUSH20 0xFFFFFFFFFFFFFFFFFFFFFFFFFFFFFFFFFFFFFFFF AND MUL OR SWAP1 SSTORE POP POP DUP1 PUSH20 0xFFFFFFFFFFFFFFFFFFFFFFFFFFFFFFFFFFFFFFFF AND PUSH1 0x80 DUP2 PUSH20 0xFFFFFFFFFFFFFFFFFFFFFFFFFFFFFFFFFFFFFFFF AND DUP2 MSTORE POP POP POP POP PUSH3 0x1AB JUMP JUMPDEST PUSH1 0x0 DUP1 REVERT JUMPDEST PUSH1 0x0 PUSH20 0xFFFFFFFFFFFFFFFFFFFFFFFFFFFFFFFFFFFFFFFF DUP3 AND SWAP1 POP SWAP2 SWAP1 POP JUMP JUMPDEST PUSH1 0x0 PUSH3 0xE7 DUP3 PUSH3 0xBA JUMP JUMPDEST SWAP1 POP SWAP2 SWAP1 POP JUMP JUMPDEST PUSH3 0xF9 DUP2 PUSH3 0xDA JUMP JUMPDEST DUP2 EQ PUSH3 0x105 JUMPI PUSH1 0x0 DUP1 REVERT JUMPDEST POP JUMP JUMPDEST PUSH1 0x0 DUP2 MLOAD SWAP1 POP PUSH3 0x119 DUP2 PUSH3 0xEE JUMP JUMPDEST SWAP3 SWAP2 POP POP JUMP JUMPDEST PUSH1 0x0 PUSH3 0x12C DUP3 PUSH3 0xBA JUMP JUMPDEST SWAP1 POP SWAP2 SWAP1 POP JUMP JUMPDEST PUSH3 0x13E DUP2 PUSH3 0x11F JUMP JUMPDEST DUP2 EQ PUSH3 0x14A JUMPI PUSH1 0x0 DUP1 REVERT JUMPDEST POP JUMP JUMPDEST PUSH1 0x0 DUP2 MLOAD SWAP1 POP PUSH3 0x15E DUP2 PUSH3 0x133 JUMP JUMPDEST SWAP3 SWAP2 POP POP JUMP JUMPDEST PUSH1 0x0 DUP1 PUSH1 0x40 DUP4 DUP6 SUB SLT ISZERO PUSH3 0x17E JUMPI PUSH3 0x17D PUSH3 0xB5 JUMP JUMPDEST JUMPDEST PUSH1 0x0 PUSH3 0x18E DUP6 DUP3 DUP7 ADD PUSH3 0x108 JUMP JUMPDEST SWAP3 POP POP PUSH1 0x20 PUSH3 0x1A1 DUP6 DUP3 DUP7 ADD PUSH3 0x14D JUMP JUMPDEST SWAP2 POP POP SWAP3 POP SWAP3 SWAP1 POP JUMP JUMPDEST PUSH1 0x80 MLOAD PUSH2 0x2266 PUSH3 0x1CE PUSH1 0x0 CODECOPY PUSH1 0x0 DUP2 DUP2 PUSH2 0x2CA ADD MSTORE PUSH2 0x4A6 ADD MSTORE PUSH2 0x2266 PUSH1 0x0 RETURN INVALID PUSH1 0x80 PUSH1 0x40 MSTORE CALLVALUE DUP1 ISZERO PUSH2 0x10 JUMPI PUSH1 0x0 DUP1 REVERT JUMPDEST POP PUSH1 0x4 CALLDATASIZE LT PUSH2 0xB4 JUMPI PUSH1 0x0 CALLDATALOAD PUSH1 0xE0 SHR DUP1 PUSH4 0x77B03E0D GT PUSH2 0x71 JUMPI DUP1 PUSH4 0x77B03E0D EQ PUSH2 0x1A2 JUMPI DUP1 PUSH4 0xA792765F EQ PUSH2 0x1D2 JUMPI DUP1 PUSH4 0xADF1639D EQ PUSH2 0x204 JUMPI DUP1 PUSH4 0xC5958AF9 EQ PUSH2 0x236 JUMPI DUP1 PUSH4 0xCE5E11BF EQ PUSH2 0x266 JUMPI DUP1 PUSH4 0xFC57D4DF EQ PUSH2 0x296 JUMPI PUSH2 0xB4 JUMP JUMPDEST DUP1 PUSH4 0x6CD702C EQ PUSH2 0xB9 JUMPI DUP1 PUSH4 0x8A130AB EQ PUSH2 0xE9 JUMPI DUP1 PUSH4 0x1959AD5B EQ PUSH2 0x107 JUMPI DUP1 PUSH4 0x29449085 EQ PUSH2 0x125 JUMPI DUP1 PUSH4 0x44E87F91 EQ PUSH2 0x156 JUMPI DUP1 PUSH4 0x4CDF47CC EQ PUSH2 0x186 JUMPI JUMPDEST PUSH1 0x0 DUP1 REVERT JUMPDEST PUSH2 0xD3 PUSH1 0x4 DUP1 CALLDATASIZE SUB DUP2 ADD SWAP1 PUSH2 0xCE SWAP2 SWAP1 PUSH2 0x1372 JUMP JUMPDEST PUSH2 0x2C6 JUMP JUMPDEST PUSH1 0x40 MLOAD PUSH2 0xE0 SWAP2 SWAP1 PUSH2 0x13C1 JUMP JUMPDEST PUSH1 0x40 MLOAD DUP1 SWAP2 SUB SWAP1 RETURN JUMPDEST PUSH2 0xF1 PUSH2 0x4A4 JUMP JUMPDEST PUSH1 0x40 MLOAD PUSH2 0xFE SWAP2 SWAP1 PUSH2 0x13EB JUMP JUMPDEST PUSH1 0x40 MLOAD DUP1 SWAP2 SUB SWAP1 RETURN JUMPDEST PUSH2 0x10F PUSH2 0x4C8 JUMP JUMPDEST PUSH1 0x40 MLOAD PUSH2 0x11C SWAP2 SWAP1 PUSH2 0x1465 JUMP JUMPDEST PUSH1 0x40 MLOAD DUP1 SWAP2 SUB SWAP1 RETURN JUMPDEST PUSH2 0x13F PUSH1 0x4 DUP1 CALLDATASIZE SUB DUP2 ADD SWAP1 PUSH2 0x13A SWAP2 SWAP1 PUSH2 0x14B6 JUMP JUMPDEST PUSH2 0x4EC JUMP JUMPDEST PUSH1 0x40 MLOAD PUSH2 0x14D SWAP3 SWAP2 SWAP1 PUSH2 0x1511 JUMP JUMPDEST PUSH1 0x40 MLOAD DUP1 SWAP2 SUB SWAP1 RETURN JUMPDEST PUSH2 0x170 PUSH1 0x4 DUP1 CALLDATASIZE SUB DUP2 ADD SWAP1 PUSH2 0x16B SWAP2 SWAP1 PUSH2 0x14B6 JUMP JUMPDEST PUSH2 0x667 JUMP JUMPDEST PUSH1 0x40 MLOAD PUSH2 0x17D SWAP2 SWAP1 PUSH2 0x153A JUMP JUMPDEST PUSH1 0x40 MLOAD DUP1 SWAP2 SUB SWAP1 RETURN JUMPDEST PUSH2 0x1A0 PUSH1 0x4 DUP1 CALLDATASIZE SUB DUP2 ADD SWAP1 PUSH2 0x19B SWAP2 SWAP1 PUSH2 0x15BA JUMP JUMPDEST PUSH2 0x93D JUMP JUMPDEST STOP JUMPDEST PUSH2 0x1BC PUSH1 0x4 DUP1 CALLDATASIZE SUB DUP2 ADD SWAP1 PUSH2 0x1B7 SWAP2 SWAP1 PUSH2 0x161A JUMP JUMPDEST PUSH2 0x991 JUMP JUMPDEST PUSH1 0x40 MLOAD PUSH2 0x1C9 SWAP2 SWAP1 PUSH2 0x13C1 JUMP JUMPDEST PUSH1 0x40 MLOAD DUP1 SWAP2 SUB SWAP1 RETURN JUMPDEST PUSH2 0x1EC PUSH1 0x4 DUP1 CALLDATASIZE SUB DUP2 ADD SWAP1 PUSH2 0x1E7 SWAP2 SWAP1 PUSH2 0x14B6 JUMP JUMPDEST PUSH2 0xBA8 JUMP JUMPDEST PUSH1 0x40 MLOAD PUSH2 0x1FB SWAP4 SWAP3 SWAP2 SWAP1 PUSH2 0x16D7 JUMP JUMPDEST PUSH1 0x40 MLOAD DUP1 SWAP2 SUB SWAP1 RETURN JUMPDEST PUSH2 0x21E PUSH1 0x4 DUP1 CALLDATASIZE SUB DUP2 ADD SWAP1 PUSH2 0x219 SWAP2 SWAP1 PUSH2 0x161A JUMP JUMPDEST PUSH2 0xC5A JUMP JUMPDEST PUSH1 0x40 MLOAD PUSH2 0x22D SWAP4 SWAP3 SWAP2 SWAP1 PUSH2 0x16D7 JUMP JUMPDEST PUSH1 0x40 MLOAD DUP1 SWAP2 SUB SWAP1 RETURN JUMPDEST PUSH2 0x250 PUSH1 0x4 DUP1 CALLDATASIZE SUB DUP2 ADD SWAP1 PUSH2 0x24B SWAP2 SWAP1 PUSH2 0x14B6 JUMP JUMPDEST PUSH2 0xD12 JUMP JUMPDEST PUSH1 0x40 MLOAD PUSH2 0x25D SWAP2 SWAP1 PUSH2 0x1715 JUMP JUMPDEST PUSH1 0x40 MLOAD DUP1 SWAP2 SUB SWAP1 RETURN JUMPDEST PUSH2 0x280 PUSH1 0x4 DUP1 CALLDATASIZE SUB DUP2 ADD SWAP1 PUSH2 0x27B SWAP2 SWAP1 PUSH2 0x14B6 JUMP JUMPDEST PUSH2 0xF38 JUMP JUMPDEST PUSH1 0x40 MLOAD PUSH2 0x28D SWAP2 SWAP1 PUSH2 0x13C1 JUMP JUMPDEST PUSH1 0x40 MLOAD DUP1 SWAP2 SUB SWAP1 RETURN JUMPDEST PUSH2 0x2B0 PUSH1 0x4 DUP1 CALLDATASIZE SUB DUP2 ADD SWAP1 PUSH2 0x2AB SWAP2 SWAP1 PUSH2 0x1737 JUMP JUMPDEST PUSH2 0x1154 JUMP JUMPDEST PUSH1 0x40 MLOAD PUSH2 0x2BD SWAP2 SWAP1 PUSH2 0x13C1 JUMP JUMPDEST PUSH1 0x40 MLOAD DUP1 SWAP2 SUB SWAP1 RETURN JUMPDEST PUSH1 0x0 PUSH32 0x0 PUSH20 0xFFFFFFFFFFFFFFFFFFFFFFFFFFFFFFFFFFFFFFFF AND DUP4 PUSH20 0xFFFFFFFFFFFFFFFFFFFFFFFFFFFFFFFFFFFFFFFF AND EQ PUSH2 0x32B JUMPI PUSH2 0x324 DUP4 PUSH2 0x1166 JUMP JUMPDEST SWAP1 POP PUSH2 0x49E JUMP JUMPDEST PUSH1 0x0 DUP4 PUSH20 0xFFFFFFFFFFFFFFFFFFFFFFFFFFFFFFFFFFFFFFFF AND PUSH4 0xD3C9CC26 DUP5 PUSH1 0x40 MLOAD DUP3 PUSH4 0xFFFFFFFF AND PUSH1 0xE0 SHL DUP2 MSTORE PUSH1 0x4 ADD PUSH2 0x366 SWAP2 SWAP1 PUSH2 0x13C1 JUMP JUMPDEST PUSH1 0x0 PUSH1 0x40 MLOAD DUP1 DUP4 SUB DUP2 DUP7 GAS STATICCALL ISZERO DUP1 ISZERO PUSH2 0x383 JUMPI RETURNDATASIZE PUSH1 0x0 DUP1 RETURNDATACOPY RETURNDATASIZE PUSH1 0x0 REVERT JUMPDEST POP POP POP POP PUSH1 0x40 MLOAD RETURNDATASIZE PUSH1 0x0 DUP3 RETURNDATACOPY RETURNDATASIZE PUSH1 0x1F NOT PUSH1 0x1F DUP3 ADD AND DUP3 ADD DUP1 PUSH1 0x40 MSTORE POP DUP2 ADD SWAP1 PUSH2 0x3AC SWAP2 SWAP1 PUSH2 0x18B7 JUMP JUMPDEST SWAP1 POP PUSH1 0x0 DUP5 PUSH20 0xFFFFFFFFFFFFFFFFFFFFFFFFFFFFFFFFFFFFFFFF AND PUSH4 0x59F7CF50 DUP6 PUSH1 0x40 MLOAD DUP3 PUSH4 0xFFFFFFFF AND PUSH1 0xE0 SHL DUP2 MSTORE PUSH1 0x4 ADD PUSH2 0x3E9 SWAP2 SWAP1 PUSH2 0x13C1 JUMP JUMPDEST PUSH1 0x0 PUSH1 0x40 MLOAD DUP1 DUP4 SUB DUP2 DUP7 GAS STATICCALL ISZERO DUP1 ISZERO PUSH2 0x406 JUMPI RETURNDATASIZE PUSH1 0x0 DUP1 RETURNDATACOPY RETURNDATASIZE PUSH1 0x0 REVERT JUMPDEST POP POP POP POP PUSH1 0x40 MLOAD RETURNDATASIZE PUSH1 0x0 DUP3 RETURNDATACOPY RETURNDATASIZE PUSH1 0x1F NOT PUSH1 0x1F DUP3 ADD AND DUP3 ADD DUP1 PUSH1 0x40 MSTORE POP DUP2 ADD SWAP1 PUSH2 0x42F SWAP2 SWAP1 PUSH2 0x19D8 JUMP JUMPDEST SWAP1 POP PUSH1 0x0 DUP1 DUP4 MLOAD SWAP1 POP PUSH1 0x0 JUMPDEST DUP2 DUP2 LT ISZERO PUSH2 0x495 JUMPI PUSH1 0x0 PUSH2 0x468 DUP7 DUP4 DUP2 MLOAD DUP2 LT PUSH2 0x45B JUMPI PUSH2 0x45A PUSH2 0x1A21 JUMP JUMPDEST JUMPDEST PUSH1 0x20 MUL PUSH1 0x20 ADD ADD MLOAD PUSH2 0x1166 JUMP JUMPDEST SWAP1 POP PUSH1 0x0 DUP2 SUB PUSH2 0x481 JUMPI DUP1 DUP5 PUSH2 0x47E SWAP2 SWAP1 PUSH2 0x1A7F JUMP JUMPDEST SWAP4 POP JUMPDEST POP DUP1 DUP1 PUSH2 0x48D SWAP1 PUSH2 0x1AB3 JUMP JUMPDEST SWAP2 POP POP PUSH2 0x43B JUMP JUMPDEST POP DUP2 SWAP5 POP POP POP POP POP JUMPDEST SWAP3 SWAP2 POP POP JUMP JUMPDEST PUSH32 0x0 DUP2 JUMP JUMPDEST PUSH1 0x0 DUP1 SLOAD SWAP1 PUSH2 0x100 EXP SWAP1 DIV PUSH20 0xFFFFFFFFFFFFFFFFFFFFFFFFFFFFFFFFFFFFFFFF AND DUP2 JUMP JUMPDEST PUSH1 0x0 DUP1 PUSH1 0x0 PUSH2 0x4FA DUP6 PUSH2 0x991 JUMP JUMPDEST SWAP1 POP PUSH1 0x0 DUP2 GT ISZERO PUSH2 0x657 JUMPI PUSH1 0x0 DUP1 PUSH1 0x0 SWAP1 POP PUSH1 0x0 PUSH1 0x1 DUP5 PUSH2 0x51B SWAP2 SWAP1 PUSH2 0x1AFB JUMP JUMPDEST SWAP1 POP PUSH1 0x0 PUSH2 0x529 DUP10 DUP5 PUSH2 0xF38 JUMP JUMPDEST SWAP1 POP DUP8 DUP2 LT PUSH2 0x543 JUMPI PUSH1 0x0 DUP1 SWAP7 POP SWAP7 POP POP POP POP POP POP PUSH2 0x660 JUMP JUMPDEST PUSH2 0x54D DUP10 DUP4 PUSH2 0xF38 JUMP JUMPDEST SWAP1 POP DUP8 DUP2 LT ISZERO PUSH2 0x568 JUMPI PUSH1 0x1 DUP3 SWAP7 POP SWAP7 POP POP POP POP POP POP PUSH2 0x660 JUMP JUMPDEST JUMPDEST PUSH1 0x1 ISZERO PUSH2 0x652 JUMPI DUP3 PUSH1 0x1 PUSH1 0x2 DUP6 DUP6 PUSH2 0x581 SWAP2 SWAP1 PUSH2 0x1AFB JUMP JUMPDEST PUSH2 0x58B SWAP2 SWAP1 PUSH2 0x1B5E JUMP JUMPDEST PUSH2 0x595 SWAP2 SWAP1 PUSH2 0x1A7F JUMP JUMPDEST PUSH2 0x59F SWAP2 SWAP1 PUSH2 0x1A7F JUMP JUMPDEST SWAP4 POP PUSH2 0x5AB DUP10 DUP6 PUSH2 0xF38 JUMP JUMPDEST SWAP1 POP DUP8 DUP2 LT ISZERO PUSH2 0x5FD JUMPI PUSH1 0x0 PUSH2 0x5CD DUP11 PUSH1 0x1 DUP8 PUSH2 0x5C8 SWAP2 SWAP1 PUSH2 0x1A7F JUMP JUMPDEST PUSH2 0xF38 JUMP JUMPDEST SWAP1 POP DUP9 DUP2 LT PUSH2 0x5E8 JUMPI PUSH1 0x1 DUP6 SWAP8 POP SWAP8 POP POP POP POP POP POP POP PUSH2 0x660 JUMP JUMPDEST PUSH1 0x1 DUP6 PUSH2 0x5F5 SWAP2 SWAP1 PUSH2 0x1A7F JUMP JUMPDEST SWAP4 POP POP PUSH2 0x64D JUMP JUMPDEST PUSH1 0x0 PUSH2 0x615 DUP11 PUSH1 0x1 DUP8 PUSH2 0x610 SWAP2 SWAP1 PUSH2 0x1AFB JUMP JUMPDEST PUSH2 0xF38 JUMP JUMPDEST SWAP1 POP DUP9 DUP2 LT ISZERO PUSH2 0x63C JUMPI PUSH1 0x1 DUP1 DUP7 PUSH2 0x62D SWAP2 SWAP1 PUSH2 0x1AFB JUMP JUMPDEST SWAP8 POP SWAP8 POP POP POP POP POP POP POP PUSH2 0x660 JUMP JUMPDEST PUSH1 0x1 DUP6 PUSH2 0x649 SWAP2 SWAP1 PUSH2 0x1AFB JUMP JUMPDEST SWAP3 POP POP JUMPDEST PUSH2 0x569 JUMP JUMPDEST POP POP POP POP JUMPDEST PUSH1 0x0 DUP1 SWAP3 POP SWAP3 POP POP JUMPDEST SWAP3 POP SWAP3 SWAP1 POP JUMP JUMPDEST PUSH1 0x0 DUP1 PUSH20 0x18431FD88ADF138E8B979A7246EB58EA7126EA16 PUSH20 0xFFFFFFFFFFFFFFFFFFFFFFFFFFFFFFFFFFFFFFFF AND PUSH1 0x0 DUP1 SLOAD SWAP1 PUSH2 0x100 EXP SWAP1 DIV PUSH20 0xFFFFFFFFFFFFFFFFFFFFFFFFFFFFFFFFFFFFFFFF AND PUSH20 0xFFFFFFFFFFFFFFFFFFFFFFFFFFFFFFFFFFFFFFFF AND EQ DUP1 PUSH2 0x737 JUMPI POP PUSH20 0xE8218CACB0A5421BC6409E498D9F8CC8869945EA PUSH20 0xFFFFFFFFFFFFFFFFFFFFFFFFFFFFFFFFFFFFFFFF AND PUSH1 0x0 DUP1 SLOAD SWAP1 PUSH2 0x100 EXP SWAP1 DIV PUSH20 0xFFFFFFFFFFFFFFFFFFFFFFFFFFFFFFFFFFFFFFFF AND PUSH20 0xFFFFFFFFFFFFFFFFFFFFFFFFFFFFFFFFFFFFFFFF AND EQ JUMPDEST ISZERO PUSH2 0x7F7 JUMPI PUSH1 0x0 PUSH20 0x88DF592F8EB5D7BD38BFEF7DEB0FBC02CF3778A0 SWAP1 POP DUP1 PUSH20 0xFFFFFFFFFFFFFFFFFFFFFFFFFFFFFFFFFFFFFFFF AND PUSH4 0x699F200F PUSH32 0xEFA19BAA864049F50491093580C5433E97E8D5E41F8DB1A61108B4FA44CACD93 PUSH1 0x40 MLOAD DUP3 PUSH4 0xFFFFFFFF AND PUSH1 0xE0 SHL DUP2 MSTORE PUSH1 0x4 ADD PUSH2 0x7AE SWAP2 SWAP1 PUSH2 0x1BD7 JUMP JUMPDEST PUSH1 0x20 PUSH1 0x40 MLOAD DUP1 DUP4 SUB DUP2 DUP7 GAS STATICCALL ISZERO DUP1 ISZERO PUSH2 0x7CB JUMPI RETURNDATASIZE PUSH1 0x0 DUP1 RETURNDATACOPY RETURNDATASIZE PUSH1 0x0 REVERT JUMPDEST POP POP POP POP PUSH1 0x40 MLOAD RETURNDATASIZE PUSH1 0x1F NOT PUSH1 0x1F DUP3 ADD AND DUP3 ADD DUP1 PUSH1 0x40 MSTORE POP DUP2 ADD SWAP1 PUSH2 0x7EF SWAP2 SWAP1 PUSH2 0x1BF2 JUMP JUMPDEST SWAP2 POP POP PUSH2 0x889 JUMP JUMPDEST PUSH1 0x0 DUP1 SLOAD SWAP1 PUSH2 0x100 EXP SWAP1 DIV PUSH20 0xFFFFFFFFFFFFFFFFFFFFFFFFFFFFFFFFFFFFFFFF AND PUSH20 0xFFFFFFFFFFFFFFFFFFFFFFFFFFFFFFFFFFFFFFFF AND PUSH4 0x5AA6E675 PUSH1 0x40 MLOAD DUP2 PUSH4 0xFFFFFFFF AND PUSH1 0xE0 SHL DUP2 MSTORE PUSH1 0x4 ADD PUSH1 0x20 PUSH1 0x40 MLOAD DUP1 DUP4 SUB DUP2 DUP7 GAS STATICCALL ISZERO DUP1 ISZERO PUSH2 0x862 JUMPI RETURNDATASIZE PUSH1 0x0 DUP1 RETURNDATACOPY RETURNDATASIZE PUSH1 0x0 REVERT JUMPDEST POP POP POP POP PUSH1 0x40 MLOAD RETURNDATASIZE PUSH1 0x1F NOT PUSH1 0x1F DUP3 ADD AND DUP3 ADD DUP1 PUSH1 0x40 MSTORE POP DUP2 ADD SWAP1 PUSH2 0x886 SWAP2 SWAP1 PUSH2 0x1BF2 JUMP JUMPDEST SWAP1 POP JUMPDEST PUSH1 0x0 DUP2 PUSH20 0xFFFFFFFFFFFFFFFFFFFFFFFFFFFFFFFFFFFFFFFF AND PUSH4 0x248638E5 DUP7 DUP7 PUSH1 0x40 MLOAD PUSH1 0x20 ADD PUSH2 0x8BA SWAP3 SWAP2 SWAP1 PUSH2 0x1C61 JUMP JUMPDEST PUSH1 0x40 MLOAD PUSH1 0x20 DUP2 DUP4 SUB SUB DUP2 MSTORE SWAP1 PUSH1 0x40 MSTORE DUP1 MLOAD SWAP1 PUSH1 0x20 ADD KECCAK256 PUSH1 0x40 MLOAD DUP3 PUSH4 0xFFFFFFFF AND PUSH1 0xE0 SHL DUP2 MSTORE PUSH1 0x4 ADD PUSH2 0x8EC SWAP2 SWAP1 PUSH2 0x1C9C JUMP JUMPDEST PUSH1 0x0 PUSH1 0x40 MLOAD DUP1 DUP4 SUB DUP2 DUP7 GAS STATICCALL ISZERO DUP1 ISZERO PUSH2 0x909 JUMPI RETURNDATASIZE PUSH1 0x0 DUP1 RETURNDATACOPY RETURNDATASIZE PUSH1 0x0 REVERT JUMPDEST POP POP POP POP PUSH1 0x40 MLOAD RETURNDATASIZE PUSH1 0x0 DUP3 RETURNDATACOPY RETURNDATASIZE PUSH1 0x1F NOT PUSH1 0x1F DUP3 ADD AND DUP3 ADD DUP1 PUSH1 0x40 MSTORE POP DUP2 ADD SWAP1 PUSH2 0x932 SWAP2 SWAP1 PUSH2 0x19D8 JUMP JUMPDEST MLOAD GT SWAP2 POP POP SWAP3 SWAP2 POP POP JUMP JUMPDEST DUP2 DUP2 PUSH1 0x1 PUSH1 0x0 DUP7 PUSH20 0xFFFFFFFFFFFFFFFFFFFFFFFFFFFFFFFFFFFFFFFF AND PUSH20 0xFFFFFFFFFFFFFFFFFFFFFFFFFFFFFFFFFFFFFFFF AND DUP2 MSTORE PUSH1 0x20 ADD SWAP1 DUP2 MSTORE PUSH1 0x20 ADD PUSH1 0x0 KECCAK256 SWAP2 DUP3 PUSH2 0x98B SWAP3 SWAP2 SWAP1 PUSH2 0x1EC4 JUMP JUMPDEST POP POP POP POP JUMP JUMPDEST PUSH1 0x0 PUSH20 0x18431FD88ADF138E8B979A7246EB58EA7126EA16 PUSH20 0xFFFFFFFFFFFFFFFFFFFFFFFFFFFFFFFFFFFFFFFF AND PUSH1 0x0 DUP1 SLOAD SWAP1 PUSH2 0x100 EXP SWAP1 DIV PUSH20 0xFFFFFFFFFFFFFFFFFFFFFFFFFFFFFFFFFFFFFFFF AND PUSH20 0xFFFFFFFFFFFFFFFFFFFFFFFFFFFFFFFFFFFFFFFF AND EQ DUP1 PUSH2 0xA60 JUMPI POP PUSH20 0xE8218CACB0A5421BC6409E498D9F8CC8869945EA PUSH20 0xFFFFFFFFFFFFFFFFFFFFFFFFFFFFFFFFFFFFFFFF AND PUSH1 0x0 DUP1 SLOAD SWAP1 PUSH2 0x100 EXP SWAP1 DIV PUSH20 0xFFFFFFFFFFFFFFFFFFFFFFFFFFFFFFFFFFFFFFFF AND PUSH20 0xFFFFFFFFFFFFFFFFFFFFFFFFFFFFFFFFFFFFFFFF AND EQ JUMPDEST ISZERO PUSH2 0xB06 JUMPI PUSH1 0x0 DUP1 SLOAD SWAP1 PUSH2 0x100 EXP SWAP1 DIV PUSH20 0xFFFFFFFFFFFFFFFFFFFFFFFFFFFFFFFFFFFFFFFF AND PUSH20 0xFFFFFFFFFFFFFFFFFFFFFFFFFFFFFFFFFFFFFFFF AND PUSH4 0x35E72432 DUP4 PUSH1 0x40 MLOAD DUP3 PUSH4 0xFFFFFFFF AND PUSH1 0xE0 SHL DUP2 MSTORE PUSH1 0x4 ADD PUSH2 0xABE SWAP2 SWAP1 PUSH2 0x1C9C JUMP JUMPDEST PUSH1 0x20 PUSH1 0x40 MLOAD DUP1 DUP4 SUB DUP2 DUP7 GAS STATICCALL ISZERO DUP1 ISZERO PUSH2 0xADB JUMPI RETURNDATASIZE PUSH1 0x0 DUP1 RETURNDATACOPY RETURNDATASIZE PUSH1 0x0 REVERT JUMPDEST POP POP POP POP PUSH1 0x40 MLOAD RETURNDATASIZE PUSH1 0x1F NOT PUSH1 0x1F DUP3 ADD AND DUP3 ADD DUP1 PUSH1 0x40 MSTORE POP DUP2 ADD SWAP1 PUSH2 0xAFF SWAP2 SWAP1 PUSH2 0x1F94 JUMP JUMPDEST SWAP1 POP PUSH2 0xBA3 JUMP JUMPDEST PUSH1 0x0 DUP1 SLOAD SWAP1 PUSH2 0x100 EXP SWAP1 DIV PUSH20 0xFFFFFFFFFFFFFFFFFFFFFFFFFFFFFFFFFFFFFFFF AND PUSH20 0xFFFFFFFFFFFFFFFFFFFFFFFFFFFFFFFFFFFFFFFF AND PUSH4 0x77B03E0D DUP4 PUSH1 0x40 MLOAD DUP3 PUSH4 0xFFFFFFFF AND PUSH1 0xE0 SHL DUP2 MSTORE PUSH1 0x4 ADD PUSH2 0xB5F SWAP2 SWAP1 PUSH2 0x1C9C JUMP JUMPDEST PUSH1 0x20 PUSH1 0x40 MLOAD DUP1 DUP4 SUB DUP2 DUP7 GAS STATICCALL ISZERO DUP1 ISZERO PUSH2 0xB7C JUMPI RETURNDATASIZE PUSH1 0x0 DUP1 RETURNDATACOPY RETURNDATASIZE PUSH1 0x0 REVERT JUMPDEST POP POP POP POP PUSH1 0x40 MLOAD RETURNDATASIZE PUSH1 0x1F NOT PUSH1 0x1F DUP3 ADD AND DUP3 ADD DUP1 PUSH1 0x40 MSTORE POP DUP2 ADD SWAP1 PUSH2 0xBA0 SWAP2 SWAP1 PUSH2 0x1F94 JUMP JUMPDEST SWAP1 POP JUMPDEST SWAP2 SWAP1 POP JUMP JUMPDEST PUSH1 0x0 PUSH1 0x60 PUSH1 0x0 DUP1 PUSH1 0x0 PUSH2 0xBBB DUP8 DUP8 PUSH2 0x4EC JUMP JUMPDEST SWAP2 POP SWAP2 POP DUP2 PUSH2 0xBE5 JUMPI PUSH1 0x0 PUSH1 0x40 MLOAD DUP1 PUSH1 0x20 ADD PUSH1 0x40 MSTORE DUP1 PUSH1 0x0 DUP2 MSTORE POP PUSH1 0x0 SWAP5 POP SWAP5 POP SWAP5 POP POP POP PUSH2 0xC53 JUMP JUMPDEST PUSH1 0x0 PUSH2 0xBF1 DUP9 DUP4 PUSH2 0xF38 JUMP JUMPDEST SWAP1 POP PUSH2 0xBFD DUP9 DUP3 PUSH2 0xD12 JUMP JUMPDEST SWAP5 POP PUSH1 0x40 MLOAD DUP1 PUSH1 0x20 ADD PUSH1 0x40 MSTORE DUP1 PUSH1 0x0 DUP2 MSTORE POP DUP1 MLOAD SWAP1 PUSH1 0x20 ADD KECCAK256 DUP6 DUP1 MLOAD SWAP1 PUSH1 0x20 ADD KECCAK256 EQ PUSH2 0xC35 JUMPI PUSH1 0x1 DUP6 DUP3 SWAP6 POP SWAP6 POP SWAP6 POP POP POP POP PUSH2 0xC53 JUMP JUMPDEST PUSH1 0x0 PUSH1 0x40 MLOAD DUP1 PUSH1 0x20 ADD PUSH1 0x40 MSTORE DUP1 PUSH1 0x0 DUP2 MSTORE POP PUSH1 0x0 SWAP6 POP SWAP6 POP SWAP6 POP POP POP POP JUMPDEST SWAP3 POP SWAP3 POP SWAP3 JUMP JUMPDEST PUSH1 0x0 PUSH1 0x60 PUSH1 0x0 DUP1 PUSH2 0xC6A DUP6 PUSH2 0x991 JUMP JUMPDEST SWAP1 POP PUSH1 0x0 DUP2 SUB PUSH2 0xC94 JUMPI PUSH1 0x0 PUSH1 0x40 MLOAD DUP1 PUSH1 0x20 ADD PUSH1 0x40 MSTORE DUP1 PUSH1 0x0 DUP2 MSTORE POP PUSH1 0x0 SWAP4 POP SWAP4 POP SWAP4 POP POP PUSH2 0xD0B JUMP JUMPDEST PUSH1 0x0 PUSH2 0xCAC DUP7 PUSH1 0x1 DUP5 PUSH2 0xCA7 SWAP2 SWAP1 PUSH2 0x1AFB JUMP JUMPDEST PUSH2 0xF38 JUMP JUMPDEST SWAP1 POP PUSH2 0xCB8 DUP7 DUP3 PUSH2 0xD12 JUMP JUMPDEST SWAP4 POP PUSH1 0x40 MLOAD DUP1 PUSH1 0x20 ADD PUSH1 0x40 MSTORE DUP1 PUSH1 0x0 DUP2 MSTORE POP DUP1 MLOAD SWAP1 PUSH1 0x20 ADD KECCAK256 DUP5 DUP1 MLOAD SWAP1 PUSH1 0x20 ADD KECCAK256 EQ PUSH2 0xCEF JUMPI PUSH1 0x1 DUP5 DUP3 SWAP5 POP SWAP5 POP SWAP5 POP POP POP PUSH2 0xD0B JUMP JUMPDEST PUSH1 0x0 PUSH1 0x40 MLOAD DUP1 PUSH1 0x20 ADD PUSH1 0x40 MSTORE DUP1 PUSH1 0x0 DUP2 MSTORE POP DUP3 SWAP5 POP SWAP5 POP SWAP5 POP POP POP JUMPDEST SWAP2 SWAP4 SWAP1 SWAP3 POP JUMP JUMPDEST PUSH1 0x60 PUSH20 0x18431FD88ADF138E8B979A7246EB58EA7126EA16 PUSH20 0xFFFFFFFFFFFFFFFFFFFFFFFFFFFFFFFFFFFFFFFF AND PUSH1 0x0 DUP1 SLOAD SWAP1 PUSH2 0x100 EXP SWAP1 DIV PUSH20 0xFFFFFFFFFFFFFFFFFFFFFFFFFFFFFFFFFFFFFFFF AND PUSH20 0xFFFFFFFFFFFFFFFFFFFFFFFFFFFFFFFFFFFFFFFF AND EQ DUP1 PUSH2 0xDE1 JUMPI POP PUSH20 0xE8218CACB0A5421BC6409E498D9F8CC8869945EA PUSH20 0xFFFFFFFFFFFFFFFFFFFFFFFFFFFFFFFFFFFFFFFF AND PUSH1 0x0 DUP1 SLOAD SWAP1 PUSH2 0x100 EXP SWAP1 DIV PUSH20 0xFFFFFFFFFFFFFFFFFFFFFFFFFFFFFFFFFFFFFFFF AND PUSH20 0xFFFFFFFFFFFFFFFFFFFFFFFFFFFFFFFFFFFFFFFF AND EQ JUMPDEST ISZERO PUSH2 0xE8E JUMPI PUSH1 0x0 DUP1 SLOAD SWAP1 PUSH2 0x100 EXP SWAP1 DIV PUSH20 0xFFFFFFFFFFFFFFFFFFFFFFFFFFFFFFFFFFFFFFFF AND PUSH20 0xFFFFFFFFFFFFFFFFFFFFFFFFFFFFFFFFFFFFFFFF AND PUSH4 0xB2D2B0D DUP5 DUP5 PUSH1 0x40 MLOAD DUP4 PUSH4 0xFFFFFFFF AND PUSH1 0xE0 SHL DUP2 MSTORE PUSH1 0x4 ADD PUSH2 0xE41 SWAP3 SWAP2 SWAP1 PUSH2 0x1FC1 JUMP JUMPDEST PUSH1 0x0 PUSH1 0x40 MLOAD DUP1 DUP4 SUB DUP2 DUP7 GAS STATICCALL ISZERO DUP1 ISZERO PUSH2 0xE5E JUMPI RETURNDATASIZE PUSH1 0x0 DUP1 RETURNDATACOPY RETURNDATASIZE PUSH1 0x0 REVERT JUMPDEST POP POP POP POP PUSH1 0x40 MLOAD RETURNDATASIZE PUSH1 0x0 DUP3 RETURNDATACOPY RETURNDATASIZE PUSH1 0x1F NOT PUSH1 0x1F DUP3 ADD AND DUP3 ADD DUP1 PUSH1 0x40 MSTORE POP DUP2 ADD SWAP1 PUSH2 0xE87 SWAP2 SWAP1 PUSH2 0x2090 JUMP JUMPDEST SWAP1 POP PUSH2 0xF32 JUMP JUMPDEST PUSH1 0x0 DUP1 SLOAD SWAP1 PUSH2 0x100 EXP SWAP1 DIV PUSH20 0xFFFFFFFFFFFFFFFFFFFFFFFFFFFFFFFFFFFFFFFF AND PUSH20 0xFFFFFFFFFFFFFFFFFFFFFFFFFFFFFFFFFFFFFFFF AND PUSH4 0xC5958AF9 DUP5 DUP5 PUSH1 0x40 MLOAD DUP4 PUSH4 0xFFFFFFFF AND PUSH1 0xE0 SHL DUP2 MSTORE PUSH1 0x4 ADD PUSH2 0xEE9 SWAP3 SWAP2 SWAP1 PUSH2 0x1FC1 JUMP JUMPDEST PUSH1 0x0 PUSH1 0x40 MLOAD DUP1 DUP4 SUB DUP2 DUP7 GAS STATICCALL ISZERO DUP1 ISZERO PUSH2 0xF06 JUMPI RETURNDATASIZE PUSH1 0x0 DUP1 RETURNDATACOPY RETURNDATASIZE PUSH1 0x0 REVERT JUMPDEST POP POP POP POP PUSH1 0x40 MLOAD RETURNDATASIZE PUSH1 0x0 DUP3 RETURNDATACOPY RETURNDATASIZE PUSH1 0x1F NOT PUSH1 0x1F DUP3 ADD AND DUP3 ADD DUP1 PUSH1 0x40 MSTORE POP DUP2 ADD SWAP1 PUSH2 0xF2F SWAP2 SWAP1 PUSH2 0x2090 JUMP JUMPDEST SWAP1 POP JUMPDEST SWAP3 SWAP2 POP POP JUMP JUMPDEST PUSH1 0x0 PUSH20 0x18431FD88ADF138E8B979A7246EB58EA7126EA16 PUSH20 0xFFFFFFFFFFFFFFFFFFFFFFFFFFFFFFFFFFFFFFFF AND PUSH1 0x0 DUP1 SLOAD SWAP1 PUSH2 0x100 EXP SWAP1 DIV PUSH20 0xFFFFFFFFFFFFFFFFFFFFFFFFFFFFFFFFFFFFFFFF AND PUSH20 0xFFFFFFFFFFFFFFFFFFFFFFFFFFFFFFFFFFFFFFFF AND EQ DUP1 PUSH2 0x1007 JUMPI POP PUSH20 0xE8218CACB0A5421BC6409E498D9F8CC8869945EA PUSH20 0xFFFFFFFFFFFFFFFFFFFFFFFFFFFFFFFFFFFFFFFF AND PUSH1 0x0 DUP1 SLOAD SWAP1 PUSH2 0x100 EXP SWAP1 DIV PUSH20 0xFFFFFFFFFFFFFFFFFFFFFFFFFFFFFFFFFFFFFFFF AND PUSH20 0xFFFFFFFFFFFFFFFFFFFFFFFFFFFFFFFFFFFFFFFF AND EQ JUMPDEST ISZERO PUSH2 0x10AF JUMPI PUSH1 0x0 DUP1 SLOAD SWAP1 PUSH2 0x100 EXP SWAP1 DIV PUSH20 0xFFFFFFFFFFFFFFFFFFFFFFFFFFFFFFFFFFFFFFFF AND PUSH20 0xFFFFFFFFFFFFFFFFFFFFFFFFFFFFFFFFFFFFFFFF AND PUSH4 0x7C37B8B4 DUP5 DUP5 PUSH1 0x40 MLOAD DUP4 PUSH4 0xFFFFFFFF AND PUSH1 0xE0 SHL DUP2 MSTORE PUSH1 0x4 ADD PUSH2 0x1067 SWAP3 SWAP2 SWAP1 PUSH2 0x1FC1 JUMP JUMPDEST PUSH1 0x20 PUSH1 0x40 MLOAD DUP1 DUP4 SUB DUP2 DUP7 GAS STATICCALL ISZERO DUP1 ISZERO PUSH2 0x1084 JUMPI RETURNDATASIZE PUSH1 0x0 DUP1 RETURNDATACOPY RETURNDATASIZE PUSH1 0x0 REVERT JUMPDEST POP POP POP POP PUSH1 0x40 MLOAD RETURNDATASIZE PUSH1 0x1F NOT PUSH1 0x1F DUP3 ADD AND DUP3 ADD DUP1 PUSH1 0x40 MSTORE POP DUP2 ADD SWAP1 PUSH2 0x10A8 SWAP2 SWAP1 PUSH2 0x1F94 JUMP JUMPDEST SWAP1 POP PUSH2 0x114E JUMP JUMPDEST PUSH1 0x0 DUP1 SLOAD SWAP1 PUSH2 0x100 EXP SWAP1 DIV PUSH20 0xFFFFFFFFFFFFFFFFFFFFFFFFFFFFFFFFFFFFFFFF AND PUSH20 0xFFFFFFFFFFFFFFFFFFFFFFFFFFFFFFFFFFFFFFFF AND PUSH4 0xCE5E11BF DUP5 DUP5 PUSH1 0x40 MLOAD DUP4 PUSH4 0xFFFFFFFF AND PUSH1 0xE0 SHL DUP2 MSTORE PUSH1 0x4 ADD PUSH2 0x110A SWAP3 SWAP2 SWAP1 PUSH2 0x1FC1 JUMP JUMPDEST PUSH1 0x20 PUSH1 0x40 MLOAD DUP1 DUP4 SUB DUP2 DUP7 GAS STATICCALL ISZERO DUP1 ISZERO PUSH2 0x1127 JUMPI RETURNDATASIZE PUSH1 0x0 DUP1 RETURNDATACOPY RETURNDATASIZE PUSH1 0x0 REVERT JUMPDEST POP POP POP POP PUSH1 0x40 MLOAD RETURNDATASIZE PUSH1 0x1F NOT PUSH1 0x1F DUP3 ADD AND DUP3 ADD DUP1 PUSH1 0x40 MSTORE POP DUP2 ADD SWAP1 PUSH2 0x114B SWAP2 SWAP1 PUSH2 0x1F94 JUMP JUMPDEST SWAP1 POP JUMPDEST SWAP3 SWAP2 POP POP JUMP JUMPDEST PUSH1 0x0 PUSH2 0x115F DUP3 PUSH2 0x1166 JUMP JUMPDEST SWAP1 POP SWAP2 SWAP1 POP JUMP JUMPDEST PUSH1 0x0 DUP1 PUSH1 0x1 PUSH1 0x0 DUP5 PUSH20 0xFFFFFFFFFFFFFFFFFFFFFFFFFFFFFFFFFFFFFFFF AND PUSH20 0xFFFFFFFFFFFFFFFFFFFFFFFFFFFFFFFFFFFFFFFF AND DUP2 MSTORE PUSH1 0x20 ADD SWAP1 DUP2 MSTORE PUSH1 0x20 ADD PUSH1 0x0 KECCAK256 DUP1 SLOAD PUSH2 0x11B3 SWAP1 PUSH2 0x1CF1 JUMP JUMPDEST DUP1 PUSH1 0x1F ADD PUSH1 0x20 DUP1 SWAP2 DIV MUL PUSH1 0x20 ADD PUSH1 0x40 MLOAD SWAP1 DUP2 ADD PUSH1 0x40 MSTORE DUP1 SWAP3 SWAP2 SWAP1 DUP2 DUP2 MSTORE PUSH1 0x20 ADD DUP3 DUP1 SLOAD PUSH2 0x11DF SWAP1 PUSH2 0x1CF1 JUMP JUMPDEST DUP1 ISZERO PUSH2 0x122C JUMPI DUP1 PUSH1 0x1F LT PUSH2 0x1201 JUMPI PUSH2 0x100 DUP1 DUP4 SLOAD DIV MUL DUP4 MSTORE SWAP2 PUSH1 0x20 ADD SWAP2 PUSH2 0x122C JUMP JUMPDEST DUP3 ADD SWAP2 SWAP1 PUSH1 0x0 MSTORE PUSH1 0x20 PUSH1 0x0 KECCAK256 SWAP1 JUMPDEST DUP2 SLOAD DUP2 MSTORE SWAP1 PUSH1 0x1 ADD SWAP1 PUSH1 0x20 ADD DUP1 DUP4 GT PUSH2 0x120F JUMPI DUP3 SWAP1 SUB PUSH1 0x1F AND DUP3 ADD SWAP2 JUMPDEST POP POP POP POP POP SWAP1 POP PUSH1 0x0 DUP2 PUSH1 0x40 MLOAD PUSH1 0x20 ADD PUSH2 0x1246 SWAP2 SWAP1 PUSH2 0x217A JUMP JUMPDEST PUSH1 0x40 MLOAD PUSH1 0x20 DUP2 DUP4 SUB SUB DUP2 MSTORE SWAP1 PUSH1 0x40 MSTORE PUSH1 0x40 MLOAD PUSH1 0x20 ADD PUSH2 0x1265 SWAP2 SWAP1 PUSH2 0x21FB JUMP JUMPDEST PUSH1 0x40 MLOAD PUSH1 0x20 DUP2 DUP4 SUB SUB DUP2 MSTORE SWAP1 PUSH1 0x40 MSTORE SWAP1 POP PUSH1 0x0 DUP2 DUP1 MLOAD SWAP1 PUSH1 0x20 ADD KECCAK256 SWAP1 POP PUSH1 0x0 DUP1 PUSH2 0x128E DUP4 PUSH2 0xC5A JUMP JUMPDEST POP SWAP2 POP SWAP2 POP DUP2 PUSH2 0x12A6 JUMPI PUSH1 0x0 SWAP6 POP POP POP POP POP POP PUSH2 0x12B7 JUMP JUMPDEST PUSH2 0x12AF DUP2 PUSH2 0x12BC JUMP JUMPDEST SWAP6 POP POP POP POP POP POP JUMPDEST SWAP2 SWAP1 POP JUMP JUMPDEST PUSH1 0x0 PUSH1 0x20 DUP3 ADD MLOAD SWAP1 POP SWAP2 SWAP1 POP JUMP JUMPDEST PUSH1 0x0 PUSH1 0x40 MLOAD SWAP1 POP SWAP1 JUMP JUMPDEST PUSH1 0x0 DUP1 REVERT JUMPDEST PUSH1 0x0 DUP1 REVERT JUMPDEST PUSH1 0x0 PUSH20 0xFFFFFFFFFFFFFFFFFFFFFFFFFFFFFFFFFFFFFFFF DUP3 AND SWAP1 POP SWAP2 SWAP1 POP JUMP JUMPDEST PUSH1 0x0 PUSH2 0x1309 DUP3 PUSH2 0x12DE JUMP JUMPDEST SWAP1 POP SWAP2 SWAP1 POP JUMP JUMPDEST PUSH2 0x1319 DUP2 PUSH2 0x12FE JUMP JUMPDEST DUP2 EQ PUSH2 0x1324 JUMPI PUSH1 0x0 DUP1 REVERT JUMPDEST POP JUMP JUMPDEST PUSH1 0x0 DUP2 CALLDATALOAD SWAP1 POP PUSH2 0x1336 DUP2 PUSH2 0x1310 JUMP JUMPDEST SWAP3 SWAP2 POP POP JUMP JUMPDEST PUSH1 0x0 DUP2 SWAP1 POP SWAP2 SWAP1 POP JUMP JUMPDEST PUSH2 0x134F DUP2 PUSH2 0x133C JUMP JUMPDEST DUP2 EQ PUSH2 0x135A JUMPI PUSH1 0x0 DUP1 REVERT JUMPDEST POP JUMP JUMPDEST PUSH1 0x0 DUP2 CALLDATALOAD SWAP1 POP PUSH2 0x136C DUP2 PUSH2 0x1346 JUMP JUMPDEST SWAP3 SWAP2 POP POP JUMP JUMPDEST PUSH1 0x0 DUP1 PUSH1 0x40 DUP4 DUP6 SUB SLT ISZERO PUSH2 0x1389 JUMPI PUSH2 0x1388 PUSH2 0x12D4 JUMP JUMPDEST JUMPDEST PUSH1 0x0 PUSH2 0x1397 DUP6 DUP3 DUP7 ADD PUSH2 0x1327 JUMP JUMPDEST SWAP3 POP POP PUSH1 0x20 PUSH2 0x13A8 DUP6 DUP3 DUP7 ADD PUSH2 0x135D JUMP JUMPDEST SWAP2 POP POP SWAP3 POP SWAP3 SWAP1 POP JUMP JUMPDEST PUSH2 0x13BB DUP2 PUSH2 0x133C JUMP JUMPDEST DUP3 MSTORE POP POP JUMP JUMPDEST PUSH1 0x0 PUSH1 0x20 DUP3 ADD SWAP1 POP PUSH2 0x13D6 PUSH1 0x0 DUP4 ADD DUP5 PUSH2 0x13B2 JUMP JUMPDEST SWAP3 SWAP2 POP POP JUMP JUMPDEST PUSH2 0x13E5 DUP2 PUSH2 0x12FE JUMP JUMPDEST DUP3 MSTORE POP POP JUMP JUMPDEST PUSH1 0x0 PUSH1 0x20 DUP3 ADD SWAP1 POP PUSH2 0x1400 PUSH1 0x0 DUP4 ADD DUP5 PUSH2 0x13DC JUMP JUMPDEST SWAP3 SWAP2 POP POP JUMP JUMPDEST PUSH1 0x0 DUP2 SWAP1 POP SWAP2 SWAP1 POP JUMP JUMPDEST PUSH1 0x0 PUSH2 0x142B PUSH2 0x1426 PUSH2 0x1421 DUP5 PUSH2 0x12DE JUMP JUMPDEST PUSH2 0x1406 JUMP JUMPDEST PUSH2 0x12DE JUMP JUMPDEST SWAP1 POP SWAP2 SWAP1 POP JUMP JUMPDEST PUSH1 0x0 PUSH2 0x143D DUP3 PUSH2 0x1410 JUMP JUMPDEST SWAP1 POP SWAP2 SWAP1 POP JUMP JUMPDEST PUSH1 0x0 PUSH2 0x144F DUP3 PUSH2 0x1432 JUMP JUMPDEST SWAP1 POP SWAP2 SWAP1 POP JUMP JUMPDEST PUSH2 0x145F DUP2 PUSH2 0x1444 JUMP JUMPDEST DUP3 MSTORE POP POP JUMP JUMPDEST PUSH1 0x0 PUSH1 0x20 DUP3 ADD SWAP1 POP PUSH2 0x147A PUSH1 0x0 DUP4 ADD DUP5 PUSH2 0x1456 JUMP JUMPDEST SWAP3 SWAP2 POP POP JUMP JUMPDEST PUSH1 0x0 DUP2 SWAP1 POP SWAP2 SWAP1 POP JUMP JUMPDEST PUSH2 0x1493 DUP2 PUSH2 0x1480 JUMP JUMPDEST DUP2 EQ PUSH2 0x149E JUMPI PUSH1 0x0 DUP1 REVERT JUMPDEST POP JUMP JUMPDEST PUSH1 0x0 DUP2 CALLDATALOAD SWAP1 POP PUSH2 0x14B0 DUP2 PUSH2 0x148A JUMP JUMPDEST SWAP3 SWAP2 POP POP JUMP JUMPDEST PUSH1 0x0 DUP1 PUSH1 0x40 DUP4 DUP6 SUB SLT ISZERO PUSH2 0x14CD JUMPI PUSH2 0x14CC PUSH2 0x12D4 JUMP JUMPDEST JUMPDEST PUSH1 0x0 PUSH2 0x14DB DUP6 DUP3 DUP7 ADD PUSH2 0x14A1 JUMP JUMPDEST SWAP3 POP POP PUSH1 0x20 PUSH2 0x14EC DUP6 DUP3 DUP7 ADD PUSH2 0x135D JUMP JUMPDEST SWAP2 POP POP SWAP3 POP SWAP3 SWAP1 POP JUMP JUMPDEST PUSH1 0x0 DUP2 ISZERO ISZERO SWAP1 POP SWAP2 SWAP1 POP JUMP JUMPDEST PUSH2 0x150B DUP2 PUSH2 0x14F6 JUMP JUMPDEST DUP3 MSTORE POP POP JUMP JUMPDEST PUSH1 0x0 PUSH1 0x40 DUP3 ADD SWAP1 POP PUSH2 0x1526 PUSH1 0x0 DUP4 ADD DUP6 PUSH2 0x1502 JUMP JUMPDEST PUSH2 0x1533 PUSH1 0x20 DUP4 ADD DUP5 PUSH2 0x13B2 JUMP JUMPDEST SWAP4 SWAP3 POP POP POP JUMP JUMPDEST PUSH1 0x0 PUSH1 0x20 DUP3 ADD SWAP1 POP PUSH2 0x154F PUSH1 0x0 DUP4 ADD DUP5 PUSH2 0x1502 JUMP JUMPDEST SWAP3 SWAP2 POP POP JUMP JUMPDEST PUSH1 0x0 DUP1 REVERT JUMPDEST PUSH1 0x0 DUP1 REVERT JUMPDEST PUSH1 0x0 DUP1 REVERT JUMPDEST PUSH1 0x0 DUP1 DUP4 PUSH1 0x1F DUP5 ADD SLT PUSH2 0x157A JUMPI PUSH2 0x1579 PUSH2 0x1555 JUMP JUMPDEST JUMPDEST DUP3 CALLDATALOAD SWAP1 POP PUSH8 0xFFFFFFFFFFFFFFFF DUP2 GT ISZERO PUSH2 0x1597 JUMPI PUSH2 0x1596 PUSH2 0x155A JUMP JUMPDEST JUMPDEST PUSH1 0x20 DUP4 ADD SWAP2 POP DUP4 PUSH1 0x1 DUP3 MUL DUP4 ADD GT ISZERO PUSH2 0x15B3 JUMPI PUSH2 0x15B2 PUSH2 0x155F JUMP JUMPDEST JUMPDEST SWAP3 POP SWAP3 SWAP1 POP JUMP JUMPDEST PUSH1 0x0 DUP1 PUSH1 0x0 PUSH1 0x40 DUP5 DUP7 SUB SLT ISZERO PUSH2 0x15D3 JUMPI PUSH2 0x15D2 PUSH2 0x12D4 JUMP JUMPDEST JUMPDEST PUSH1 0x0 PUSH2 0x15E1 DUP7 DUP3 DUP8 ADD PUSH2 0x1327 JUMP JUMPDEST SWAP4 POP POP PUSH1 0x20 DUP5 ADD CALLDATALOAD PUSH8 0xFFFFFFFFFFFFFFFF DUP2 GT ISZERO PUSH2 0x1602 JUMPI PUSH2 0x1601 PUSH2 0x12D9 JUMP JUMPDEST JUMPDEST PUSH2 0x160E DUP7 DUP3 DUP8 ADD PUSH2 0x1564 JUMP JUMPDEST SWAP3 POP SWAP3 POP POP SWAP3 POP SWAP3 POP SWAP3 JUMP JUMPDEST PUSH1 0x0 PUSH1 0x20 DUP3 DUP5 SUB SLT ISZERO PUSH2 0x1630 JUMPI PUSH2 0x162F PUSH2 0x12D4 JUMP JUMPDEST JUMPDEST PUSH1 0x0 PUSH2 0x163E DUP5 DUP3 DUP6 ADD PUSH2 0x14A1 JUMP JUMPDEST SWAP2 POP POP SWAP3 SWAP2 POP POP JUMP JUMPDEST PUSH1 0x0 DUP2 MLOAD SWAP1 POP SWAP2 SWAP1 POP JUMP JUMPDEST PUSH1 0x0 DUP3 DUP3 MSTORE PUSH1 0x20 DUP3 ADD SWAP1 POP SWAP3 SWAP2 POP POP JUMP JUMPDEST PUSH1 0x0 JUMPDEST DUP4 DUP2 LT ISZERO PUSH2 0x1681 JUMPI DUP1 DUP3 ADD MLOAD DUP2 DUP5 ADD MSTORE PUSH1 0x20 DUP2 ADD SWAP1 POP PUSH2 0x1666 JUMP JUMPDEST PUSH1 0x0 DUP5 DUP5 ADD MSTORE POP POP POP POP JUMP JUMPDEST PUSH1 0x0 PUSH1 0x1F NOT PUSH1 0x1F DUP4 ADD AND SWAP1 POP SWAP2 SWAP1 POP JUMP JUMPDEST PUSH1 0x0 PUSH2 0x16A9 DUP3 PUSH2 0x1647 JUMP JUMPDEST PUSH2 0x16B3 DUP2 DUP6 PUSH2 0x1652 JUMP JUMPDEST SWAP4 POP PUSH2 0x16C3 DUP2 DUP6 PUSH1 0x20 DUP7 ADD PUSH2 0x1663 JUMP JUMPDEST PUSH2 0x16CC DUP2 PUSH2 0x168D JUMP JUMPDEST DUP5 ADD SWAP2 POP POP SWAP3 SWAP2 POP POP JUMP JUMPDEST PUSH1 0x0 PUSH1 0x60 DUP3 ADD SWAP1 POP PUSH2 0x16EC PUSH1 0x0 DUP4 ADD DUP7 PUSH2 0x1502 JUMP JUMPDEST DUP2 DUP2 SUB PUSH1 0x20 DUP4 ADD MSTORE PUSH2 0x16FE DUP2 DUP6 PUSH2 0x169E JUMP JUMPDEST SWAP1 POP PUSH2 0x170D PUSH1 0x40 DUP4 ADD DUP5 PUSH2 0x13B2 JUMP JUMPDEST SWAP5 SWAP4 POP POP POP POP JUMP JUMPDEST PUSH1 0x0 PUSH1 0x20 DUP3 ADD SWAP1 POP DUP2 DUP2 SUB PUSH1 0x0 DUP4 ADD MSTORE PUSH2 0x172F DUP2 DUP5 PUSH2 0x169E JUMP JUMPDEST SWAP1 POP SWAP3 SWAP2 POP POP JUMP JUMPDEST PUSH1 0x0 PUSH1 0x20 DUP3 DUP5 SUB SLT ISZERO PUSH2 0x174D JUMPI PUSH2 0x174C PUSH2 0x12D4 JUMP JUMPDEST JUMPDEST PUSH1 0x0 PUSH2 0x175B DUP5 DUP3 DUP6 ADD PUSH2 0x1327 JUMP JUMPDEST SWAP2 POP POP SWAP3 SWAP2 POP POP JUMP JUMPDEST PUSH32 0x4E487B7100000000000000000000000000000000000000000000000000000000 PUSH1 0x0 MSTORE PUSH1 0x41 PUSH1 0x4 MSTORE PUSH1 0x24 PUSH1 0x0 REVERT JUMPDEST PUSH2 0x179C DUP3 PUSH2 0x168D JUMP JUMPDEST DUP2 ADD DUP2 DUP2 LT PUSH8 0xFFFFFFFFFFFFFFFF DUP3 GT OR ISZERO PUSH2 0x17BB JUMPI PUSH2 0x17BA PUSH2 0x1764 JUMP JUMPDEST JUMPDEST DUP1 PUSH1 0x40 MSTORE POP POP POP JUMP JUMPDEST PUSH1 0x0 PUSH2 0x17CE PUSH2 0x12CA JUMP JUMPDEST SWAP1 POP PUSH2 0x17DA DUP3 DUP3 PUSH2 0x1793 JUMP JUMPDEST SWAP2 SWAP1 POP JUMP JUMPDEST PUSH1 0x0 PUSH8 0xFFFFFFFFFFFFFFFF DUP3 GT ISZERO PUSH2 0x17FA JUMPI PUSH2 0x17F9 PUSH2 0x1764 JUMP JUMPDEST JUMPDEST PUSH1 0x20 DUP3 MUL SWAP1 POP PUSH1 0x20 DUP2 ADD SWAP1 POP SWAP2 SWAP1 POP JUMP JUMPDEST PUSH1 0x0 DUP2 MLOAD SWAP1 POP PUSH2 0x181A DUP2 PUSH2 0x1310 JUMP JUMPDEST SWAP3 SWAP2 POP POP JUMP JUMPDEST PUSH1 0x0 PUSH2 0x1833 PUSH2 0x182E DUP5 PUSH2 0x17DF JUMP JUMPDEST PUSH2 0x17C4 JUMP JUMPDEST SWAP1 POP DUP1 DUP4 DUP3 MSTORE PUSH1 0x20 DUP3 ADD SWAP1 POP PUSH1 0x20 DUP5 MUL DUP4 ADD DUP6 DUP2 GT ISZERO PUSH2 0x1856 JUMPI PUSH2 0x1855 PUSH2 0x155F JUMP JUMPDEST JUMPDEST DUP4 JUMPDEST DUP2 DUP2 LT ISZERO PUSH2 0x187F JUMPI DUP1 PUSH2 0x186B DUP9 DUP3 PUSH2 0x180B JUMP JUMPDEST DUP5 MSTORE PUSH1 0x20 DUP5 ADD SWAP4 POP POP PUSH1 0x20 DUP2 ADD SWAP1 POP PUSH2 0x1858 JUMP JUMPDEST POP POP POP SWAP4 SWAP3 POP POP POP JUMP JUMPDEST PUSH1 0x0 DUP3 PUSH1 0x1F DUP4 ADD SLT PUSH2 0x189E JUMPI PUSH2 0x189D PUSH2 0x1555 JUMP JUMPDEST JUMPDEST DUP2 MLOAD PUSH2 0x18AE DUP5 DUP3 PUSH1 0x20 DUP7 ADD PUSH2 0x1820 JUMP JUMPDEST SWAP2 POP POP SWAP3 SWAP2 POP POP JUMP JUMPDEST PUSH1 0x0 PUSH1 0x20 DUP3 DUP5 SUB SLT ISZERO PUSH2 0x18CD JUMPI PUSH2 0x18CC PUSH2 0x12D4 JUMP JUMPDEST JUMPDEST PUSH1 0x0 DUP3 ADD MLOAD PUSH8 0xFFFFFFFFFFFFFFFF DUP2 GT ISZERO PUSH2 0x18EB JUMPI PUSH2 0x18EA PUSH2 0x12D9 JUMP JUMPDEST JUMPDEST PUSH2 0x18F7 DUP5 DUP3 DUP6 ADD PUSH2 0x1889 JUMP JUMPDEST SWAP2 POP POP SWAP3 SWAP2 POP POP JUMP JUMPDEST PUSH1 0x0 PUSH8 0xFFFFFFFFFFFFFFFF DUP3 GT ISZERO PUSH2 0x191B JUMPI PUSH2 0x191A PUSH2 0x1764 JUMP JUMPDEST JUMPDEST PUSH1 0x20 DUP3 MUL SWAP1 POP PUSH1 0x20 DUP2 ADD SWAP1 POP SWAP2 SWAP1 POP JUMP JUMPDEST PUSH1 0x0 DUP2 MLOAD SWAP1 POP PUSH2 0x193B DUP2 PUSH2 0x1346 JUMP JUMPDEST SWAP3 SWAP2 POP POP JUMP JUMPDEST PUSH1 0x0 PUSH2 0x1954 PUSH2 0x194F DUP5 PUSH2 0x1900 JUMP JUMPDEST PUSH2 0x17C4 JUMP JUMPDEST SWAP1 POP DUP1 DUP4 DUP3 MSTORE PUSH1 0x20 DUP3 ADD SWAP1 POP PUSH1 0x20 DUP5 MUL DUP4 ADD DUP6 DUP2 GT ISZERO PUSH2 0x1977 JUMPI PUSH2 0x1976 PUSH2 0x155F JUMP JUMPDEST JUMPDEST DUP4 JUMPDEST DUP2 DUP2 LT ISZERO PUSH2 0x19A0 JUMPI DUP1 PUSH2 0x198C DUP9 DUP3 PUSH2 0x192C JUMP JUMPDEST DUP5 MSTORE PUSH1 0x20 DUP5 ADD SWAP4 POP POP PUSH1 0x20 DUP2 ADD SWAP1 POP PUSH2 0x1979 JUMP JUMPDEST POP POP POP SWAP4 SWAP3 POP POP POP JUMP JUMPDEST PUSH1 0x0 DUP3 PUSH1 0x1F DUP4 ADD SLT PUSH2 0x19BF JUMPI PUSH2 0x19BE PUSH2 0x1555 JUMP JUMPDEST JUMPDEST DUP2 MLOAD PUSH2 0x19CF DUP5 DUP3 PUSH1 0x20 DUP7 ADD PUSH2 0x1941 JUMP JUMPDEST SWAP2 POP POP SWAP3 SWAP2 POP POP JUMP JUMPDEST PUSH1 0x0 PUSH1 0x20 DUP3 DUP5 SUB SLT ISZERO PUSH2 0x19EE JUMPI PUSH2 0x19ED PUSH2 0x12D4 JUMP JUMPDEST JUMPDEST PUSH1 0x0 DUP3 ADD MLOAD PUSH8 0xFFFFFFFFFFFFFFFF DUP2 GT ISZERO PUSH2 0x1A0C JUMPI PUSH2 0x1A0B PUSH2 0x12D9 JUMP JUMPDEST JUMPDEST PUSH2 0x1A18 DUP5 DUP3 DUP6 ADD PUSH2 0x19AA JUMP JUMPDEST SWAP2 POP POP SWAP3 SWAP2 POP POP JUMP JUMPDEST PUSH32 0x4E487B7100000000000000000000000000000000000000000000000000000000 PUSH1 0x0 MSTORE PUSH1 0x32 PUSH1 0x4 MSTORE PUSH1 0x24 PUSH1 0x0 REVERT JUMPDEST PUSH32 0x4E487B7100000000000000000000000000000000000000000000000000000000 PUSH1 0x0 MSTORE PUSH1 0x11 PUSH1 0x4 MSTORE PUSH1 0x24 PUSH1 0x0 REVERT JUMPDEST PUSH1 0x0 PUSH2 0x1A8A DUP3 PUSH2 0x133C JUMP JUMPDEST SWAP2 POP PUSH2 0x1A95 DUP4 PUSH2 0x133C JUMP JUMPDEST SWAP3 POP DUP3 DUP3 ADD SWAP1 POP DUP1 DUP3 GT ISZERO PUSH2 0x1AAD JUMPI PUSH2 0x1AAC PUSH2 0x1A50 JUMP JUMPDEST JUMPDEST SWAP3 SWAP2 POP POP JUMP JUMPDEST PUSH1 0x0 PUSH2 0x1ABE DUP3 PUSH2 0x133C JUMP JUMPDEST SWAP2 POP PUSH32 0xFFFFFFFFFFFFFFFFFFFFFFFFFFFFFFFFFFFFFFFFFFFFFFFFFFFFFFFFFFFFFFFF DUP3 SUB PUSH2 0x1AF0 JUMPI PUSH2 0x1AEF PUSH2 0x1A50 JUMP JUMPDEST JUMPDEST PUSH1 0x1 DUP3 ADD SWAP1 POP SWAP2 SWAP1 POP JUMP JUMPDEST PUSH1 0x0 PUSH2 0x1B06 DUP3 PUSH2 0x133C JUMP JUMPDEST SWAP2 POP PUSH2 0x1B11 DUP4 PUSH2 0x133C JUMP JUMPDEST SWAP3 POP DUP3 DUP3 SUB SWAP1 POP DUP2 DUP2 GT ISZERO PUSH2 0x1B29 JUMPI PUSH2 0x1B28 PUSH2 0x1A50 JUMP JUMPDEST JUMPDEST SWAP3 SWAP2 POP POP JUMP JUMPDEST PUSH32 0x4E487B7100000000000000000000000000000000000000000000000000000000 PUSH1 0x0 MSTORE PUSH1 0x12 PUSH1 0x4 MSTORE PUSH1 0x24 PUSH1 0x0 REVERT JUMPDEST PUSH1 0x0 PUSH2 0x1B69 DUP3 PUSH2 0x133C JUMP JUMPDEST SWAP2 POP PUSH2 0x1B74 DUP4 PUSH2 0x133C JUMP JUMPDEST SWAP3 POP DUP3 PUSH2 0x1B84 JUMPI PUSH2 0x1B83 PUSH2 0x1B2F JUMP JUMPDEST JUMPDEST DUP3 DUP3 DIV SWAP1 POP SWAP3 SWAP2 POP POP JUMP JUMPDEST PUSH1 0x0 DUP2 SWAP1 POP SWAP2 SWAP1 POP JUMP JUMPDEST PUSH1 0x0 DUP2 PUSH1 0x0 SHL SWAP1 POP SWAP2 SWAP1 POP JUMP JUMPDEST PUSH1 0x0 PUSH2 0x1BC1 PUSH2 0x1BBC PUSH2 0x1BB7 DUP5 PUSH2 0x1B8F JUMP JUMPDEST PUSH2 0x1B99 JUMP JUMPDEST PUSH2 0x1480 JUMP JUMPDEST SWAP1 POP SWAP2 SWAP1 POP JUMP JUMPDEST PUSH2 0x1BD1 DUP2 PUSH2 0x1BA6 JUMP JUMPDEST DUP3 MSTORE POP POP JUMP JUMPDEST PUSH1 0x0 PUSH1 0x20 DUP3 ADD SWAP1 POP PUSH2 0x1BEC PUSH1 0x0 DUP4 ADD DUP5 PUSH2 0x1BC8 JUMP JUMPDEST SWAP3 SWAP2 POP POP JUMP JUMPDEST PUSH1 0x0 PUSH1 0x20 DUP3 DUP5 SUB SLT ISZERO PUSH2 0x1C08 JUMPI PUSH2 0x1C07 PUSH2 0x12D4 JUMP JUMPDEST JUMPDEST PUSH1 0x0 PUSH2 0x1C16 DUP5 DUP3 DUP6 ADD PUSH2 0x180B JUMP JUMPDEST SWAP2 POP POP SWAP3 SWAP2 POP POP JUMP JUMPDEST PUSH1 0x0 DUP2 SWAP1 POP SWAP2 SWAP1 POP JUMP JUMPDEST PUSH2 0x1C3A PUSH2 0x1C35 DUP3 PUSH2 0x1480 JUMP JUMPDEST PUSH2 0x1C1F JUMP JUMPDEST DUP3 MSTORE POP POP JUMP JUMPDEST PUSH1 0x0 DUP2 SWAP1 POP SWAP2 SWAP1 POP JUMP JUMPDEST PUSH2 0x1C5B PUSH2 0x1C56 DUP3 PUSH2 0x133C JUMP JUMPDEST PUSH2 0x1C40 JUMP JUMPDEST DUP3 MSTORE POP POP JUMP JUMPDEST PUSH1 0x0 PUSH2 0x1C6D DUP3 DUP6 PUSH2 0x1C29 JUMP JUMPDEST PUSH1 0x20 DUP3 ADD SWAP2 POP PUSH2 0x1C7D DUP3 DUP5 PUSH2 0x1C4A JUMP JUMPDEST PUSH1 0x20 DUP3 ADD SWAP2 POP DUP2 SWAP1 POP SWAP4 SWAP3 POP POP POP JUMP JUMPDEST PUSH2 0x1C96 DUP2 PUSH2 0x1480 JUMP JUMPDEST DUP3 MSTORE POP POP JUMP JUMPDEST PUSH1 0x0 PUSH1 0x20 DUP3 ADD SWAP1 POP PUSH2 0x1CB1 PUSH1 0x0 DUP4 ADD DUP5 PUSH2 0x1C8D JUMP JUMPDEST SWAP3 SWAP2 POP POP JUMP JUMPDEST PUSH1 0x0 DUP3 SWAP1 POP SWAP3 SWAP2 POP POP JUMP JUMPDEST PUSH32 0x4E487B7100000000000000000000000000000000000000000000000000000000 PUSH1 0x0 MSTORE PUSH1 0x22 PUSH1 0x4 MSTORE PUSH1 0x24 PUSH1 0x0 REVERT JUMPDEST PUSH1 0x0 PUSH1 0x2 DUP3 DIV SWAP1 POP PUSH1 0x1 DUP3 AND DUP1 PUSH2 0x1D09 JUMPI PUSH1 0x7F DUP3 AND SWAP2 POP JUMPDEST PUSH1 0x20 DUP3 LT DUP2 SUB PUSH2 0x1D1C JUMPI PUSH2 0x1D1B PUSH2 0x1CC2 JUMP JUMPDEST JUMPDEST POP SWAP2 SWAP1 POP JUMP JUMPDEST PUSH1 0x0 DUP2 SWAP1 POP DUP2 PUSH1 0x0 MSTORE PUSH1 0x20 PUSH1 0x0 KECCAK256 SWAP1 POP SWAP2 SWAP1 POP JUMP JUMPDEST PUSH1 0x0 PUSH1 0x20 PUSH1 0x1F DUP4 ADD DIV SWAP1 POP SWAP2 SWAP1 POP JUMP JUMPDEST PUSH1 0x0 DUP3 DUP3 SHL SWAP1 POP SWAP3 SWAP2 POP POP JUMP JUMPDEST PUSH1 0x0 PUSH1 0x8 DUP4 MUL PUSH2 0x1D84 PUSH32 0xFFFFFFFFFFFFFFFFFFFFFFFFFFFFFFFFFFFFFFFFFFFFFFFFFFFFFFFFFFFFFFFF DUP3 PUSH2 0x1D47 JUMP JUMPDEST PUSH2 0x1D8E DUP7 DUP4 PUSH2 0x1D47 JUMP JUMPDEST SWAP6 POP DUP1 NOT DUP5 AND SWAP4 POP DUP1 DUP7 AND DUP5 OR SWAP3 POP POP POP SWAP4 SWAP3 POP POP POP JUMP JUMPDEST PUSH1 0x0 PUSH2 0x1DC1 PUSH2 0x1DBC PUSH2 0x1DB7 DUP5 PUSH2 0x133C JUMP JUMPDEST PUSH2 0x1406 JUMP JUMPDEST PUSH2 0x133C JUMP JUMPDEST SWAP1 POP SWAP2 SWAP1 POP JUMP JUMPDEST PUSH1 0x0 DUP2 SWAP1 POP SWAP2 SWAP1 POP JUMP JUMPDEST PUSH2 0x1DDB DUP4 PUSH2 0x1DA6 JUMP JUMPDEST PUSH2 0x1DEF PUSH2 0x1DE7 DUP3 PUSH2 0x1DC8 JUMP JUMPDEST DUP5 DUP5 SLOAD PUSH2 0x1D54 JUMP JUMPDEST DUP3 SSTORE POP POP POP POP JUMP JUMPDEST PUSH1 0x0 SWAP1 JUMP JUMPDEST PUSH2 0x1E04 PUSH2 0x1DF7 JUMP JUMPDEST PUSH2 0x1E0F DUP2 DUP5 DUP5 PUSH2 0x1DD2 JUMP JUMPDEST POP POP POP JUMP JUMPDEST JUMPDEST DUP2 DUP2 LT ISZERO PUSH2 0x1E33 JUMPI PUSH2 0x1E28 PUSH1 0x0 DUP3 PUSH2 0x1DFC JUMP JUMPDEST PUSH1 0x1 DUP2 ADD SWAP1 POP PUSH2 0x1E15 JUMP JUMPDEST POP POP JUMP JUMPDEST PUSH1 0x1F DUP3 GT ISZERO PUSH2 0x1E78 JUMPI PUSH2 0x1E49 DUP2 PUSH2 0x1D22 JUMP JUMPDEST PUSH2 0x1E52 DUP5 PUSH2 0x1D37 JUMP JUMPDEST DUP2 ADD PUSH1 0x20 DUP6 LT ISZERO PUSH2 0x1E61 JUMPI DUP2 SWAP1 POP JUMPDEST PUSH2 0x1E75 PUSH2 0x1E6D DUP6 PUSH2 0x1D37 JUMP JUMPDEST DUP4 ADD DUP3 PUSH2 0x1E14 JUMP JUMPDEST POP POP JUMPDEST POP POP POP JUMP JUMPDEST PUSH1 0x0 DUP3 DUP3 SHR SWAP1 POP SWAP3 SWAP2 POP POP JUMP JUMPDEST PUSH1 0x0 PUSH2 0x1E9B PUSH1 0x0 NOT DUP5 PUSH1 0x8 MUL PUSH2 0x1E7D JUMP JUMPDEST NOT DUP1 DUP4 AND SWAP2 POP POP SWAP3 SWAP2 POP POP JUMP JUMPDEST PUSH1 0x0 PUSH2 0x1EB4 DUP4 DUP4 PUSH2 0x1E8A JUMP JUMPDEST SWAP2 POP DUP3 PUSH1 0x2 MUL DUP3 OR SWAP1 POP SWAP3 SWAP2 POP POP JUMP JUMPDEST PUSH2 0x1ECE DUP4 DUP4 PUSH2 0x1CB7 JUMP JUMPDEST PUSH8 0xFFFFFFFFFFFFFFFF DUP2 GT ISZERO PUSH2 0x1EE7 JUMPI PUSH2 0x1EE6 PUSH2 0x1764 JUMP JUMPDEST JUMPDEST PUSH2 0x1EF1 DUP3 SLOAD PUSH2 0x1CF1 JUMP JUMPDEST PUSH2 0x1EFC DUP3 DUP3 DUP6 PUSH2 0x1E37 JUMP JUMPDEST PUSH1 0x0 PUSH1 0x1F DUP4 GT PUSH1 0x1 DUP2 EQ PUSH2 0x1F2B JUMPI PUSH1 0x0 DUP5 ISZERO PUSH2 0x1F19 JUMPI DUP3 DUP8 ADD CALLDATALOAD SWAP1 POP JUMPDEST PUSH2 0x1F23 DUP6 DUP3 PUSH2 0x1EA8 JUMP JUMPDEST DUP7 SSTORE POP PUSH2 0x1F8B JUMP JUMPDEST PUSH1 0x1F NOT DUP5 AND PUSH2 0x1F39 DUP7 PUSH2 0x1D22 JUMP JUMPDEST PUSH1 0x0 JUMPDEST DUP3 DUP2 LT ISZERO PUSH2 0x1F61 JUMPI DUP5 DUP10 ADD CALLDATALOAD DUP3 SSTORE PUSH1 0x1 DUP3 ADD SWAP2 POP PUSH1 0x20 DUP6 ADD SWAP5 POP PUSH1 0x20 DUP2 ADD SWAP1 POP PUSH2 0x1F3C JUMP JUMPDEST DUP7 DUP4 LT ISZERO PUSH2 0x1F7E JUMPI DUP5 DUP10 ADD CALLDATALOAD PUSH2 0x1F7A PUSH1 0x1F DUP10 AND DUP3 PUSH2 0x1E8A JUMP JUMPDEST DUP4 SSTORE POP JUMPDEST PUSH1 0x1 PUSH1 0x2 DUP9 MUL ADD DUP9 SSTORE POP POP POP JUMPDEST POP POP POP POP POP POP POP JUMP JUMPDEST PUSH1 0x0 PUSH1 0x20 DUP3 DUP5 SUB SLT ISZERO PUSH2 0x1FAA JUMPI PUSH2 0x1FA9 PUSH2 0x12D4 JUMP JUMPDEST JUMPDEST PUSH1 0x0 PUSH2 0x1FB8 DUP5 DUP3 DUP6 ADD PUSH2 0x192C JUMP JUMPDEST SWAP2 POP POP SWAP3 SWAP2 POP POP JUMP JUMPDEST PUSH1 0x0 PUSH1 0x40 DUP3 ADD SWAP1 POP PUSH2 0x1FD6 PUSH1 0x0 DUP4 ADD DUP6 PUSH2 0x1C8D JUMP JUMPDEST PUSH2 0x1FE3 PUSH1 0x20 DUP4 ADD DUP5 PUSH2 0x13B2 JUMP JUMPDEST SWAP4 SWAP3 POP POP POP JUMP JUMPDEST PUSH1 0x0 DUP1 REVERT JUMPDEST PUSH1 0x0 PUSH8 0xFFFFFFFFFFFFFFFF DUP3 GT ISZERO PUSH2 0x200A JUMPI PUSH2 0x2009 PUSH2 0x1764 JUMP JUMPDEST JUMPDEST PUSH2 0x2013 DUP3 PUSH2 0x168D JUMP JUMPDEST SWAP1 POP PUSH1 0x20 DUP2 ADD SWAP1 POP SWAP2 SWAP1 POP JUMP JUMPDEST PUSH1 0x0 PUSH2 0x2033 PUSH2 0x202E DUP5 PUSH2 0x1FEF JUMP JUMPDEST PUSH2 0x17C4 JUMP JUMPDEST SWAP1 POP DUP3 DUP2 MSTORE PUSH1 0x20 DUP2 ADD DUP5 DUP5 DUP5 ADD GT ISZERO PUSH2 0x204F JUMPI PUSH2 0x204E PUSH2 0x1FEA JUMP JUMPDEST JUMPDEST PUSH2 0x205A DUP5 DUP3 DUP6 PUSH2 0x1663 JUMP JUMPDEST POP SWAP4 SWAP3 POP POP POP JUMP JUMPDEST PUSH1 0x0 DUP3 PUSH1 0x1F DUP4 ADD SLT PUSH2 0x2077 JUMPI PUSH2 0x2076 PUSH2 0x1555 JUMP JUMPDEST JUMPDEST DUP2 MLOAD PUSH2 0x2087 DUP5 DUP3 PUSH1 0x20 DUP7 ADD PUSH2 0x2020 JUMP JUMPDEST SWAP2 POP POP SWAP3 SWAP2 POP POP JUMP JUMPDEST PUSH1 0x0 PUSH1 0x20 DUP3 DUP5 SUB SLT ISZERO PUSH2 0x20A6 JUMPI PUSH2 0x20A5 PUSH2 0x12D4 JUMP JUMPDEST JUMPDEST PUSH1 0x0 DUP3 ADD MLOAD PUSH8 0xFFFFFFFFFFFFFFFF DUP2 GT ISZERO PUSH2 0x20C4 JUMPI PUSH2 0x20C3 PUSH2 0x12D9 JUMP JUMPDEST JUMPDEST PUSH2 0x20D0 DUP5 DUP3 DUP6 ADD PUSH2 0x2062 JUMP JUMPDEST SWAP2 POP POP SWAP3 SWAP2 POP POP JUMP JUMPDEST PUSH1 0x0 DUP2 MLOAD SWAP1 POP SWAP2 SWAP1 POP JUMP JUMPDEST PUSH1 0x0 DUP3 DUP3 MSTORE PUSH1 0x20 DUP3 ADD SWAP1 POP SWAP3 SWAP2 POP POP JUMP JUMPDEST PUSH1 0x0 PUSH2 0x2100 DUP3 PUSH2 0x20D9 JUMP JUMPDEST PUSH2 0x210A DUP2 DUP6 PUSH2 0x20E4 JUMP JUMPDEST SWAP4 POP PUSH2 0x211A DUP2 DUP6 PUSH1 0x20 DUP7 ADD PUSH2 0x1663 JUMP JUMPDEST PUSH2 0x2123 DUP2 PUSH2 0x168D JUMP JUMPDEST DUP5 ADD SWAP2 POP POP SWAP3 SWAP2 POP POP JUMP JUMPDEST PUSH32 0x7573640000000000000000000000000000000000000000000000000000000000 PUSH1 0x0 DUP3 ADD MSTORE POP JUMP JUMPDEST PUSH1 0x0 PUSH2 0x2164 PUSH1 0x3 DUP4 PUSH2 0x20E4 JUMP JUMPDEST SWAP2 POP PUSH2 0x216F DUP3 PUSH2 0x212E JUMP JUMPDEST PUSH1 0x20 DUP3 ADD SWAP1 POP SWAP2 SWAP1 POP JUMP JUMPDEST PUSH1 0x0 PUSH1 0x40 DUP3 ADD SWAP1 POP DUP2 DUP2 SUB PUSH1 0x0 DUP4 ADD MSTORE PUSH2 0x2194 DUP2 DUP5 PUSH2 0x20F5 JUMP JUMPDEST SWAP1 POP DUP2 DUP2 SUB PUSH1 0x20 DUP4 ADD MSTORE PUSH2 0x21A7 DUP2 PUSH2 0x2157 JUMP JUMPDEST SWAP1 POP SWAP3 SWAP2 POP POP JUMP JUMPDEST PUSH32 0x53706F7450726963650000000000000000000000000000000000000000000000 PUSH1 0x0 DUP3 ADD MSTORE POP JUMP JUMPDEST PUSH1 0x0 PUSH2 0x21E5 PUSH1 0x9 DUP4 PUSH2 0x20E4 JUMP JUMPDEST SWAP2 POP PUSH2 0x21F0 DUP3 PUSH2 0x21AF JUMP JUMPDEST PUSH1 0x20 DUP3 ADD SWAP1 POP SWAP2 SWAP1 POP JUMP JUMPDEST PUSH1 0x0 PUSH1 0x40 DUP3 ADD SWAP1 POP DUP2 DUP2 SUB PUSH1 0x0 DUP4 ADD MSTORE PUSH2 0x2214 DUP2 PUSH2 0x21D8 JUMP JUMPDEST SWAP1 POP DUP2 DUP2 SUB PUSH1 0x20 DUP4 ADD MSTORE PUSH2 0x2228 DUP2 DUP5 PUSH2 0x169E JUMP JUMPDEST SWAP1 POP SWAP3 SWAP2 POP POP JUMP INVALID LOG2 PUSH5 0x6970667358 0x22 SLT KECCAK256 SWAP8 0xD1 0x1E MSIZE NOT 0xD0 0xD9 0xD3 0xA8 0xE8 PUSH3 0x139411 PUSH25 0xE16C448B64D0A9F223AAE611AC8A0B2BEA64736F6C63430008 GT STOP CALLER "
				},
				"gasEstimates": {
					"creation": {
						"codeDepositCost": "1761200",
						"executionCost": "infinite",
						"totalCost": "infinite"
					},
					"external": {
						"Wrapper()": "infinite",
						"getBundlePrice(address,uint256)": "infinite",
						"getCurrentValue(bytes32)": "infinite",
						"getDataBefore(bytes32,uint256)": "infinite",
						"getIndexForDataBefore(bytes32,uint256)": "infinite",
						"getNewValueCountbyQueryId(bytes32)": "infinite",
						"getTimestampbyQueryIdandIndex(bytes32,uint256)": "infinite",
						"getUnderlyingPrice(address)": "infinite",
						"isInDispute(bytes32,uint256)": "infinite",
						"retrieveData(bytes32,uint256)": "infinite",
						"setMapping(address,string)": "infinite",
						"tellor()": "infinite"
					},
					"internal": {
						"_getUnderlyingPrice(address)": "infinite",
						"toUint256(bytes memory)": "infinite"
					}
				},
				"methodIdentifiers": {
					"Wrapper()": "08a130ab",
					"getBundlePrice(address,uint256)": "06cd702c",
					"getCurrentValue(bytes32)": "adf1639d",
					"getDataBefore(bytes32,uint256)": "a792765f",
					"getIndexForDataBefore(bytes32,uint256)": "29449085",
					"getNewValueCountbyQueryId(bytes32)": "77b03e0d",
					"getTimestampbyQueryIdandIndex(bytes32,uint256)": "ce5e11bf",
					"getUnderlyingPrice(address)": "fc57d4df",
					"isInDispute(bytes32,uint256)": "44e87f91",
					"retrieveData(bytes32,uint256)": "c5958af9",
					"setMapping(address,string)": "4cdf47cc",
					"tellor()": "1959ad5b"
				}
			},
			"storageLayout": {
				"storage": [
					{
						"astId": 242,
						"contract": "contracts/TellorOracle.sol:TellorOracle",
						"label": "tellor",
						"offset": 0,
						"slot": "0",
						"type": "t_contract(ITellor)1511"
					},
					{
						"astId": 48,
						"contract": "contracts/TellorOracle.sol:TellorOracle",
						"label": "tAddressMapping",
						"offset": 0,
						"slot": "1",
						"type": "t_mapping(t_address,t_string_storage)"
					}
				],
				"types": {
					"t_address": {
						"encoding": "inplace",
						"label": "address",
						"numberOfBytes": "20"
					},
					"t_contract(ITellor)1511": {
						"encoding": "inplace",
						"label": "contract ITellor",
						"numberOfBytes": "20"
					},
					"t_mapping(t_address,t_string_storage)": {
						"encoding": "mapping",
						"key": "t_address",
						"label": "mapping(address => string)",
						"numberOfBytes": "32",
						"value": "t_string_storage"
					},
					"t_string_storage": {
						"encoding": "bytes",
						"label": "string",
						"numberOfBytes": "32"
					}
				}
			},
			"userdoc": {
				"kind": "user",
				"methods": {},
				"version": 1
			}
		}
	}
}