{
	"usingtellor/contracts/UsingTellor.sol": {
		"UsingTellor": {
			"abi": [
				{
					"inputs": [
						{
							"internalType": "address payable",
							"name": "_tellor",
							"type": "address"
						}
					],
					"stateMutability": "nonpayable",
					"type": "constructor"
				},
				{
					"inputs": [
						{
							"internalType": "bytes32",
							"name": "_queryId",
							"type": "bytes32"
						}
					],
					"name": "getCurrentValue",
					"outputs": [
						{
							"internalType": "bool",
							"name": "_ifRetrieve",
							"type": "bool"
						},
						{
							"internalType": "bytes",
							"name": "_value",
							"type": "bytes"
						},
						{
							"internalType": "uint256",
							"name": "_timestampRetrieved",
							"type": "uint256"
						}
					],
					"stateMutability": "view",
					"type": "function"
				},
				{
					"inputs": [
						{
							"internalType": "bytes32",
							"name": "_queryId",
							"type": "bytes32"
						},
						{
							"internalType": "uint256",
							"name": "_timestamp",
							"type": "uint256"
						}
					],
					"name": "getDataBefore",
					"outputs": [
						{
							"internalType": "bool",
							"name": "_ifRetrieve",
							"type": "bool"
						},
						{
							"internalType": "bytes",
							"name": "_value",
							"type": "bytes"
						},
						{
							"internalType": "uint256",
							"name": "_timestampRetrieved",
							"type": "uint256"
						}
					],
					"stateMutability": "view",
					"type": "function"
				},
				{
					"inputs": [
						{
							"internalType": "bytes32",
							"name": "_queryId",
							"type": "bytes32"
						},
						{
							"internalType": "uint256",
							"name": "_timestamp",
							"type": "uint256"
						}
					],
					"name": "getIndexForDataBefore",
					"outputs": [
						{
							"internalType": "bool",
							"name": "_found",
							"type": "bool"
						},
						{
							"internalType": "uint256",
							"name": "_index",
							"type": "uint256"
						}
					],
					"stateMutability": "view",
					"type": "function"
				},
				{
					"inputs": [
						{
							"internalType": "bytes32",
							"name": "_queryId",
							"type": "bytes32"
						}
					],
					"name": "getNewValueCountbyQueryId",
					"outputs": [
						{
							"internalType": "uint256",
							"name": "",
							"type": "uint256"
						}
					],
					"stateMutability": "view",
					"type": "function"
				},
				{
					"inputs": [
						{
							"internalType": "bytes32",
							"name": "_queryId",
							"type": "bytes32"
						},
						{
							"internalType": "uint256",
							"name": "_index",
							"type": "uint256"
						}
					],
					"name": "getTimestampbyQueryIdandIndex",
					"outputs": [
						{
							"internalType": "uint256",
							"name": "",
							"type": "uint256"
						}
					],
					"stateMutability": "view",
					"type": "function"
				},
				{
					"inputs": [
						{
							"internalType": "bytes32",
							"name": "_queryId",
							"type": "bytes32"
						},
						{
							"internalType": "uint256",
							"name": "_timestamp",
							"type": "uint256"
						}
					],
					"name": "isInDispute",
					"outputs": [
						{
							"internalType": "bool",
							"name": "",
							"type": "bool"
						}
					],
					"stateMutability": "view",
					"type": "function"
				},
				{
					"inputs": [
						{
							"internalType": "bytes32",
							"name": "_queryId",
							"type": "bytes32"
						},
						{
							"internalType": "uint256",
							"name": "_timestamp",
							"type": "uint256"
						}
					],
					"name": "retrieveData",
					"outputs": [
						{
							"internalType": "bytes",
							"name": "",
							"type": "bytes"
						}
					],
					"stateMutability": "view",
					"type": "function"
				},
				{
					"inputs": [],
					"name": "tellor",
					"outputs": [
						{
							"internalType": "contract ITellor",
							"name": "",
							"type": "address"
						}
					],
					"stateMutability": "view",
					"type": "function"
				}
			],
			"devdoc": {
				"kind": "dev",
				"methods": {
					"constructor": {
						"details": "the constructor sets the tellor address in storage",
						"params": {
							"_tellor": "is the TellorMaster address"
						}
					},
					"getCurrentValue(bytes32)": {
						"details": "Allows the user to get the latest value for the queryId specified",
						"params": {
							"_queryId": "is the id to look up the value for"
						},
						"returns": {
							"_ifRetrieve": "bool true if non-zero value successfully retrieved",
							"_timestampRetrieved": "the retrieved value's timestamp",
							"_value": "the value retrieved"
						}
					},
					"getDataBefore(bytes32,uint256)": {
						"details": "Retrieves the latest value for the queryId before the specified timestamp",
						"params": {
							"_queryId": "is the queryId to look up the value for",
							"_timestamp": "before which to search for latest value"
						},
						"returns": {
							"_ifRetrieve": "bool true if able to retrieve a non-zero value",
							"_timestampRetrieved": "the value's timestamp",
							"_value": "the value retrieved"
						}
					},
					"getIndexForDataBefore(bytes32,uint256)": {
						"details": "Retrieves latest array index of data before the specified timestamp for the queryId",
						"params": {
							"_queryId": "is the queryId to look up the index for",
							"_timestamp": "is the timestamp before which to search for the latest index"
						},
						"returns": {
							"_found": "whether the index was found",
							"_index": "the latest index found before the specified timestamp"
						}
					},
					"getNewValueCountbyQueryId(bytes32)": {
						"details": "Counts the number of values that have been submitted for the queryId",
						"params": {
							"_queryId": "the id to look up"
						},
						"returns": {
							"_0": "uint256 count of the number of values received for the queryId"
						}
					},
					"isInDispute(bytes32,uint256)": {
						"details": "Determines whether a value with a given queryId and timestamp has been disputed",
						"params": {
							"_queryId": "is the value id to look up",
							"_timestamp": "is the timestamp of the value to look up"
						},
						"returns": {
							"_0": "bool true if queryId/timestamp is under dispute"
						}
					},
					"retrieveData(bytes32,uint256)": {
						"details": "Retrieve value from oracle based on queryId/timestamp",
						"params": {
							"_queryId": "being requested",
							"_timestamp": "to retrieve data/value from"
						},
						"returns": {
							"_0": "bytes value for query/timestamp submitted"
						}
					}
				},
				"title": "UserContract This contract allows for easy integration with the Tellor System by helping smart contracts to read data from Tellor",
				"version": 1
			},
			"evm": {
				"assembly": "    /* \"usingtellor/contracts/UsingTellor.sol\":247:8620  contract UsingTellor {... */\n  mstore(0x40, 0x80)\n    /* \"usingtellor/contracts/UsingTellor.sol\":451:530  constructor(address payable _tellor) {... */\n  callvalue\n  dup1\n  iszero\n  tag_1\n  jumpi\n  0x00\n  dup1\n  revert\ntag_1:\n  pop\n  mload(0x40)\n  sub(codesize, bytecodeSize)\n  dup1\n  bytecodeSize\n  dup4\n  codecopy\n  dup2\n  dup2\n  add\n  0x40\n  mstore\n  dup2\n  add\n  swap1\n  tag_2\n  swap2\n  swap1\n  tag_3\n  jump\t// in\ntag_2:\n    /* \"usingtellor/contracts/UsingTellor.sol\":515:522  _tellor */\n  dup1\n    /* \"usingtellor/contracts/UsingTellor.sol\":498:504  tellor */\n  0x00\n  dup1\n    /* \"usingtellor/contracts/UsingTellor.sol\":498:523  tellor = ITellor(_tellor) */\n  0x0100\n  exp\n  dup2\n  sload\n  dup2\n  0xffffffffffffffffffffffffffffffffffffffff\n  mul\n  not\n  and\n  swap1\n  dup4\n  0xffffffffffffffffffffffffffffffffffffffff\n  and\n  mul\n  or\n  swap1\n  sstore\n  pop\n    /* \"usingtellor/contracts/UsingTellor.sol\":451:530  constructor(address payable _tellor) {... */\n  pop\n    /* \"usingtellor/contracts/UsingTellor.sol\":247:8620  contract UsingTellor {... */\n  jump(tag_6)\n    /* \"#utility.yul\":88:205   */\ntag_8:\n    /* \"#utility.yul\":197:198   */\n  0x00\n    /* \"#utility.yul\":194:195   */\n  dup1\n    /* \"#utility.yul\":187:199   */\n  revert\n    /* \"#utility.yul\":334:460   */\ntag_10:\n    /* \"#utility.yul\":371:378   */\n  0x00\n    /* \"#utility.yul\":411:453   */\n  0xffffffffffffffffffffffffffffffffffffffff\n    /* \"#utility.yul\":404:409   */\n  dup3\n    /* \"#utility.yul\":400:454   */\n  and\n    /* \"#utility.yul\":389:454   */\n  swap1\n  pop\n    /* \"#utility.yul\":334:460   */\n  swap2\n  swap1\n  pop\n  jump\t// out\n    /* \"#utility.yul\":466:570   */\ntag_11:\n    /* \"#utility.yul\":511:518   */\n  0x00\n    /* \"#utility.yul\":540:564   */\n  tag_20\n    /* \"#utility.yul\":558:563   */\n  dup3\n    /* \"#utility.yul\":540:564   */\n  tag_10\n  jump\t// in\ntag_20:\n    /* \"#utility.yul\":529:564   */\n  swap1\n  pop\n    /* \"#utility.yul\":466:570   */\n  swap2\n  swap1\n  pop\n  jump\t// out\n    /* \"#utility.yul\":576:714   */\ntag_12:\n    /* \"#utility.yul\":657:689   */\n  tag_22\n    /* \"#utility.yul\":683:688   */\n  dup2\n    /* \"#utility.yul\":657:689   */\n  tag_11\n  jump\t// in\ntag_22:\n    /* \"#utility.yul\":650:655   */\n  dup2\n    /* \"#utility.yul\":647:690   */\n  eq\n    /* \"#utility.yul\":637:708   */\n  tag_23\n  jumpi\n    /* \"#utility.yul\":704:705   */\n  0x00\n    /* \"#utility.yul\":701:702   */\n  dup1\n    /* \"#utility.yul\":694:706   */\n  revert\n    /* \"#utility.yul\":637:708   */\ntag_23:\n    /* \"#utility.yul\":576:714   */\n  pop\n  jump\t// out\n    /* \"#utility.yul\":720:879   */\ntag_13:\n    /* \"#utility.yul\":785:790   */\n  0x00\n    /* \"#utility.yul\":816:822   */\n  dup2\n    /* \"#utility.yul\":810:823   */\n  mload\n    /* \"#utility.yul\":801:823   */\n  swap1\n  pop\n    /* \"#utility.yul\":832:873   */\n  tag_25\n    /* \"#utility.yul\":867:872   */\n  dup2\n    /* \"#utility.yul\":832:873   */\n  tag_12\n  jump\t// in\ntag_25:\n    /* \"#utility.yul\":720:879   */\n  swap3\n  swap2\n  pop\n  pop\n  jump\t// out\n    /* \"#utility.yul\":885:1252   */\ntag_3:\n    /* \"#utility.yul\":963:969   */\n  0x00\n    /* \"#utility.yul\":1012:1014   */\n  0x20\n    /* \"#utility.yul\":1000:1009   */\n  dup3\n    /* \"#utility.yul\":991:998   */\n  dup5\n    /* \"#utility.yul\":987:1010   */\n  sub\n    /* \"#utility.yul\":983:1015   */\n  slt\n    /* \"#utility.yul\":980:1099   */\n  iszero\n  tag_27\n  jumpi\n    /* \"#utility.yul\":1018:1097   */\n  tag_28\n  tag_8\n  jump\t// in\ntag_28:\n    /* \"#utility.yul\":980:1099   */\ntag_27:\n    /* \"#utility.yul\":1138:1139   */\n  0x00\n    /* \"#utility.yul\":1163:1235   */\n  tag_29\n    /* \"#utility.yul\":1227:1234   */\n  dup5\n    /* \"#utility.yul\":1218:1224   */\n  dup3\n    /* \"#utility.yul\":1207:1216   */\n  dup6\n    /* \"#utility.yul\":1203:1225   */\n  add\n    /* \"#utility.yul\":1163:1235   */\n  tag_13\n  jump\t// in\ntag_29:\n    /* \"#utility.yul\":1153:1235   */\n  swap2\n  pop\n    /* \"#utility.yul\":1109:1245   */\n  pop\n    /* \"#utility.yul\":885:1252   */\n  swap3\n  swap2\n  pop\n  pop\n  jump\t// out\n    /* \"usingtellor/contracts/UsingTellor.sol\":247:8620  contract UsingTellor {... */\ntag_6:\n  dataSize(sub_0)\n  dup1\n  dataOffset(sub_0)\n  0x00\n  codecopy\n  0x00\n  return\nstop\n\nsub_0: assembly {\n        /* \"usingtellor/contracts/UsingTellor.sol\":247:8620  contract UsingTellor {... */\n      mstore(0x40, 0x80)\n      callvalue\n      dup1\n      iszero\n      tag_1\n      jumpi\n      0x00\n      dup1\n      revert\n    tag_1:\n      pop\n      jumpi(tag_2, lt(calldatasize, 0x04))\n      shr(0xe0, calldataload(0x00))\n      dup1\n      0xa792765f\n      gt\n      tag_11\n      jumpi\n      dup1\n      0xa792765f\n      eq\n      tag_7\n      jumpi\n      dup1\n      0xadf1639d\n      eq\n      tag_8\n      jumpi\n      dup1\n      0xc5958af9\n      eq\n      tag_9\n      jumpi\n      dup1\n      0xce5e11bf\n      eq\n      tag_10\n      jumpi\n      jump(tag_2)\n    tag_11:\n      dup1\n      0x1959ad5b\n      eq\n      tag_3\n      jumpi\n      dup1\n      0x29449085\n      eq\n      tag_4\n      jumpi\n      dup1\n      0x44e87f91\n      eq\n      tag_5\n      jumpi\n      dup1\n      0x77b03e0d\n      eq\n      tag_6\n      jumpi\n    tag_2:\n      0x00\n      dup1\n      revert\n        /* \"usingtellor/contracts/UsingTellor.sol\":274:295  ITellor public tellor */\n    tag_3:\n      tag_12\n      tag_13\n      jump\t// in\n    tag_12:\n      mload(0x40)\n      tag_14\n      swap2\n      swap1\n      tag_15\n      jump\t// in\n    tag_14:\n      mload(0x40)\n      dup1\n      swap2\n      sub\n      swap1\n      return\n        /* \"usingtellor/contracts/UsingTellor.sol\":3013:5168  function getIndexForDataBefore(bytes32 _queryId, uint256 _timestamp)... */\n    tag_4:\n      tag_16\n      0x04\n      dup1\n      calldatasize\n      sub\n      dup2\n      add\n      swap1\n      tag_17\n      swap2\n      swap1\n      tag_18\n      jump\t// in\n    tag_17:\n      tag_19\n      jump\t// in\n    tag_16:\n      mload(0x40)\n      tag_20\n      swap3\n      swap2\n      swap1\n      tag_21\n      jump\t// in\n    tag_20:\n      mload(0x40)\n      dup1\n      swap2\n      sub\n      swap1\n      return\n        /* \"usingtellor/contracts/UsingTellor.sol\":6929:7876  function isInDispute(bytes32 _queryId, uint256 _timestamp)... */\n    tag_5:\n      tag_22\n      0x04\n      dup1\n      calldatasize\n      sub\n      dup2\n      add\n      swap1\n      tag_23\n      swap2\n      swap1\n      tag_18\n      jump\t// in\n    tag_23:\n      tag_24\n      jump\t// in\n    tag_22:\n      mload(0x40)\n      tag_25\n      swap2\n      swap1\n      tag_26\n      jump\t// in\n    tag_25:\n      mload(0x40)\n      dup1\n      swap2\n      sub\n      swap1\n      return\n        /* \"usingtellor/contracts/UsingTellor.sol\":5390:5874  function getNewValueCountbyQueryId(bytes32 _queryId)... */\n    tag_6:\n      tag_27\n      0x04\n      dup1\n      calldatasize\n      sub\n      dup2\n      add\n      swap1\n      tag_28\n      swap2\n      swap1\n      tag_29\n      jump\t// in\n    tag_28:\n      tag_30\n      jump\t// in\n    tag_27:\n      mload(0x40)\n      tag_31\n      swap2\n      swap1\n      tag_32\n      jump\t// in\n    tag_31:\n      mload(0x40)\n      dup1\n      swap2\n      sub\n      swap1\n      return\n        /* \"usingtellor/contracts/UsingTellor.sol\":1919:2576  function getDataBefore(bytes32 _queryId, uint256 _timestamp)... */\n    tag_7:\n      tag_33\n      0x04\n      dup1\n      calldatasize\n      sub\n      dup2\n      add\n      swap1\n      tag_34\n      swap2\n      swap1\n      tag_18\n      jump\t// in\n    tag_34:\n      tag_35\n      jump\t// in\n    tag_33:\n      mload(0x40)\n      tag_36\n      swap4\n      swap3\n      swap2\n      swap1\n      tag_37\n      jump\t// in\n    tag_36:\n      mload(0x40)\n      dup1\n      swap2\n      sub\n      swap1\n      return\n        /* \"usingtellor/contracts/UsingTellor.sol\":891:1510  function getCurrentValue(bytes32 _queryId)... */\n    tag_8:\n      tag_38\n      0x04\n      dup1\n      calldatasize\n      sub\n      dup2\n      add\n      swap1\n      tag_39\n      swap2\n      swap1\n      tag_29\n      jump\t// in\n    tag_39:\n      tag_40\n      jump\t// in\n    tag_38:\n      mload(0x40)\n      tag_41\n      swap4\n      swap3\n      swap2\n      swap1\n      tag_37\n      jump\t// in\n    tag_41:\n      mload(0x40)\n      dup1\n      swap2\n      sub\n      swap1\n      return\n        /* \"usingtellor/contracts/UsingTellor.sol\":8113:8618  function retrieveData(bytes32 _queryId, uint256 _timestamp)... */\n    tag_9:\n      tag_42\n      0x04\n      dup1\n      calldatasize\n      sub\n      dup2\n      add\n      swap1\n      tag_43\n      swap2\n      swap1\n      tag_18\n      jump\t// in\n    tag_43:\n      tag_44\n      jump\t// in\n    tag_42:\n      mload(0x40)\n      tag_45\n      swap2\n      swap1\n      tag_46\n      jump\t// in\n    tag_45:\n      mload(0x40)\n      dup1\n      swap2\n      sub\n      swap1\n      return\n        /* \"usingtellor/contracts/UsingTellor.sol\":6108:6636  function getTimestampbyQueryIdandIndex(bytes32 _queryId, uint256 _index)... */\n    tag_10:\n      tag_47\n      0x04\n      dup1\n      calldatasize\n      sub\n      dup2\n      add\n      swap1\n      tag_48\n      swap2\n      swap1\n      tag_18\n      jump\t// in\n    tag_48:\n      tag_49\n      jump\t// in\n    tag_47:\n      mload(0x40)\n      tag_50\n      swap2\n      swap1\n      tag_32\n      jump\t// in\n    tag_50:\n      mload(0x40)\n      dup1\n      swap2\n      sub\n      swap1\n      return\n        /* \"usingtellor/contracts/UsingTellor.sol\":274:295  ITellor public tellor */\n    tag_13:\n      0x00\n      dup1\n      sload\n      swap1\n      0x0100\n      exp\n      swap1\n      div\n      0xffffffffffffffffffffffffffffffffffffffff\n      and\n      dup2\n      jump\t// out\n        /* \"usingtellor/contracts/UsingTellor.sol\":3013:5168  function getIndexForDataBefore(bytes32 _queryId, uint256 _timestamp)... */\n    tag_19:\n        /* \"usingtellor/contracts/UsingTellor.sol\":3127:3138  bool _found */\n      0x00\n        /* \"usingtellor/contracts/UsingTellor.sol\":3140:3154  uint256 _index */\n      dup1\n        /* \"usingtellor/contracts/UsingTellor.sol\":3170:3184  uint256 _count */\n      0x00\n        /* \"usingtellor/contracts/UsingTellor.sol\":3187:3222  getNewValueCountbyQueryId(_queryId) */\n      tag_52\n        /* \"usingtellor/contracts/UsingTellor.sol\":3213:3221  _queryId */\n      dup6\n        /* \"usingtellor/contracts/UsingTellor.sol\":3187:3212  getNewValueCountbyQueryId */\n      tag_30\n        /* \"usingtellor/contracts/UsingTellor.sol\":3187:3222  getNewValueCountbyQueryId(_queryId) */\n      jump\t// in\n    tag_52:\n        /* \"usingtellor/contracts/UsingTellor.sol\":3170:3222  uint256 _count = getNewValueCountbyQueryId(_queryId) */\n      swap1\n      pop\n        /* \"usingtellor/contracts/UsingTellor.sol\":3246:3247  0 */\n      0x00\n        /* \"usingtellor/contracts/UsingTellor.sol\":3237:3243  _count */\n      dup2\n        /* \"usingtellor/contracts/UsingTellor.sol\":3237:3247  _count > 0 */\n      gt\n        /* \"usingtellor/contracts/UsingTellor.sol\":3233:5135  if (_count > 0) {... */\n      iszero\n      tag_53\n      jumpi\n        /* \"usingtellor/contracts/UsingTellor.sol\":3263:3277  uint256 middle */\n      0x00\n        /* \"usingtellor/contracts/UsingTellor.sol\":3291:3304  uint256 start */\n      dup1\n        /* \"usingtellor/contracts/UsingTellor.sol\":3307:3308  0 */\n      0x00\n        /* \"usingtellor/contracts/UsingTellor.sol\":3291:3308  uint256 start = 0 */\n      swap1\n      pop\n        /* \"usingtellor/contracts/UsingTellor.sol\":3322:3333  uint256 end */\n      0x00\n        /* \"usingtellor/contracts/UsingTellor.sol\":3345:3346  1 */\n      0x01\n        /* \"usingtellor/contracts/UsingTellor.sol\":3336:3342  _count */\n      dup5\n        /* \"usingtellor/contracts/UsingTellor.sol\":3336:3346  _count - 1 */\n      tag_54\n      swap2\n      swap1\n      tag_55\n      jump\t// in\n    tag_54:\n        /* \"usingtellor/contracts/UsingTellor.sol\":3322:3346  uint256 end = _count - 1 */\n      swap1\n      pop\n        /* \"usingtellor/contracts/UsingTellor.sol\":3360:3373  uint256 _time */\n      0x00\n        /* \"usingtellor/contracts/UsingTellor.sol\":3461:3507  getTimestampbyQueryIdandIndex(_queryId, start) */\n      tag_56\n        /* \"usingtellor/contracts/UsingTellor.sol\":3491:3499  _queryId */\n      dup10\n        /* \"usingtellor/contracts/UsingTellor.sol\":3501:3506  start */\n      dup5\n        /* \"usingtellor/contracts/UsingTellor.sol\":3461:3490  getTimestampbyQueryIdandIndex */\n      tag_49\n        /* \"usingtellor/contracts/UsingTellor.sol\":3461:3507  getTimestampbyQueryIdandIndex(_queryId, start) */\n      jump\t// in\n    tag_56:\n        /* \"usingtellor/contracts/UsingTellor.sol\":3453:3507  _time = getTimestampbyQueryIdandIndex(_queryId, start) */\n      swap1\n      pop\n        /* \"usingtellor/contracts/UsingTellor.sol\":3534:3544  _timestamp */\n      dup8\n        /* \"usingtellor/contracts/UsingTellor.sol\":3525:3530  _time */\n      dup2\n        /* \"usingtellor/contracts/UsingTellor.sol\":3525:3544  _time >= _timestamp */\n      lt\n        /* \"usingtellor/contracts/UsingTellor.sol\":3521:3563  if (_time >= _timestamp) return (false, 0) */\n      tag_57\n      jumpi\n        /* \"usingtellor/contracts/UsingTellor.sol\":3554:3559  false */\n      0x00\n        /* \"usingtellor/contracts/UsingTellor.sol\":3561:3562  0 */\n      dup1\n        /* \"usingtellor/contracts/UsingTellor.sol\":3546:3563  return (false, 0) */\n      swap7\n      pop\n      swap7\n      pop\n      pop\n      pop\n      pop\n      pop\n      pop\n      jump(tag_51)\n        /* \"usingtellor/contracts/UsingTellor.sol\":3521:3563  if (_time >= _timestamp) return (false, 0) */\n    tag_57:\n        /* \"usingtellor/contracts/UsingTellor.sol\":3585:3629  getTimestampbyQueryIdandIndex(_queryId, end) */\n      tag_58\n        /* \"usingtellor/contracts/UsingTellor.sol\":3615:3623  _queryId */\n      dup10\n        /* \"usingtellor/contracts/UsingTellor.sol\":3625:3628  end */\n      dup4\n        /* \"usingtellor/contracts/UsingTellor.sol\":3585:3614  getTimestampbyQueryIdandIndex */\n      tag_49\n        /* \"usingtellor/contracts/UsingTellor.sol\":3585:3629  getTimestampbyQueryIdandIndex(_queryId, end) */\n      jump\t// in\n    tag_58:\n        /* \"usingtellor/contracts/UsingTellor.sol\":3577:3629  _time = getTimestampbyQueryIdandIndex(_queryId, end) */\n      swap1\n      pop\n        /* \"usingtellor/contracts/UsingTellor.sol\":3655:3665  _timestamp */\n      dup8\n        /* \"usingtellor/contracts/UsingTellor.sol\":3647:3652  _time */\n      dup2\n        /* \"usingtellor/contracts/UsingTellor.sol\":3647:3665  _time < _timestamp */\n      lt\n        /* \"usingtellor/contracts/UsingTellor.sol\":3643:3685  if (_time < _timestamp) return (true, end) */\n      iszero\n      tag_59\n      jumpi\n        /* \"usingtellor/contracts/UsingTellor.sol\":3675:3679  true */\n      0x01\n        /* \"usingtellor/contracts/UsingTellor.sol\":3681:3684  end */\n      dup3\n        /* \"usingtellor/contracts/UsingTellor.sol\":3667:3685  return (true, end) */\n      swap7\n      pop\n      swap7\n      pop\n      pop\n      pop\n      pop\n      pop\n      pop\n      jump(tag_51)\n        /* \"usingtellor/contracts/UsingTellor.sol\":3643:3685  if (_time < _timestamp) return (true, end) */\n    tag_59:\n        /* \"usingtellor/contracts/UsingTellor.sol\":3775:5125  while (true) {... */\n    tag_60:\n        /* \"usingtellor/contracts/UsingTellor.sol\":3782:3786  true */\n      0x01\n        /* \"usingtellor/contracts/UsingTellor.sol\":3775:5125  while (true) {... */\n      iszero\n      tag_61\n      jumpi\n        /* \"usingtellor/contracts/UsingTellor.sol\":3839:3844  start */\n      dup3\n        /* \"usingtellor/contracts/UsingTellor.sol\":3835:3836  1 */\n      0x01\n        /* \"usingtellor/contracts/UsingTellor.sol\":3831:3832  2 */\n      0x02\n        /* \"usingtellor/contracts/UsingTellor.sol\":3822:3827  start */\n      dup6\n        /* \"usingtellor/contracts/UsingTellor.sol\":3816:3819  end */\n      dup6\n        /* \"usingtellor/contracts/UsingTellor.sol\":3816:3827  end - start */\n      tag_62\n      swap2\n      swap1\n      tag_55\n      jump\t// in\n    tag_62:\n        /* \"usingtellor/contracts/UsingTellor.sol\":3815:3832  (end - start) / 2 */\n      tag_63\n      swap2\n      swap1\n      tag_64\n      jump\t// in\n    tag_63:\n        /* \"usingtellor/contracts/UsingTellor.sol\":3815:3836  (end - start) / 2 + 1 */\n      tag_65\n      swap2\n      swap1\n      tag_66\n      jump\t// in\n    tag_65:\n        /* \"usingtellor/contracts/UsingTellor.sol\":3815:3844  (end - start) / 2 + 1 + start */\n      tag_67\n      swap2\n      swap1\n      tag_66\n      jump\t// in\n    tag_67:\n        /* \"usingtellor/contracts/UsingTellor.sol\":3806:3844  middle = (end - start) / 2 + 1 + start */\n      swap4\n      pop\n        /* \"usingtellor/contracts/UsingTellor.sol\":3870:3917  getTimestampbyQueryIdandIndex(_queryId, middle) */\n      tag_68\n        /* \"usingtellor/contracts/UsingTellor.sol\":3900:3908  _queryId */\n      dup10\n        /* \"usingtellor/contracts/UsingTellor.sol\":3910:3916  middle */\n      dup6\n        /* \"usingtellor/contracts/UsingTellor.sol\":3870:3899  getTimestampbyQueryIdandIndex */\n      tag_49\n        /* \"usingtellor/contracts/UsingTellor.sol\":3870:3917  getTimestampbyQueryIdandIndex(_queryId, middle) */\n      jump\t// in\n    tag_68:\n        /* \"usingtellor/contracts/UsingTellor.sol\":3862:3917  _time = getTimestampbyQueryIdandIndex(_queryId, middle) */\n      swap1\n      pop\n        /* \"usingtellor/contracts/UsingTellor.sol\":3947:3957  _timestamp */\n      dup8\n        /* \"usingtellor/contracts/UsingTellor.sol\":3939:3944  _time */\n      dup2\n        /* \"usingtellor/contracts/UsingTellor.sol\":3939:3957  _time < _timestamp */\n      lt\n        /* \"usingtellor/contracts/UsingTellor.sol\":3935:4987  if (_time < _timestamp) {... */\n      iszero\n      tag_69\n      jumpi\n        /* \"usingtellor/contracts/UsingTellor.sol\":4028:4045  uint256 _nextTime */\n      0x00\n        /* \"usingtellor/contracts/UsingTellor.sol\":4048:4169  getTimestampbyQueryIdandIndex(... */\n      tag_70\n        /* \"usingtellor/contracts/UsingTellor.sol\":4103:4111  _queryId */\n      dup11\n        /* \"usingtellor/contracts/UsingTellor.sol\":4146:4147  1 */\n      0x01\n        /* \"usingtellor/contracts/UsingTellor.sol\":4137:4143  middle */\n      dup8\n        /* \"usingtellor/contracts/UsingTellor.sol\":4137:4147  middle + 1 */\n      tag_71\n      swap2\n      swap1\n      tag_66\n      jump\t// in\n    tag_71:\n        /* \"usingtellor/contracts/UsingTellor.sol\":4048:4077  getTimestampbyQueryIdandIndex */\n      tag_49\n        /* \"usingtellor/contracts/UsingTellor.sol\":4048:4169  getTimestampbyQueryIdandIndex(... */\n      jump\t// in\n    tag_70:\n        /* \"usingtellor/contracts/UsingTellor.sol\":4028:4169  uint256 _nextTime = getTimestampbyQueryIdandIndex(... */\n      swap1\n      pop\n        /* \"usingtellor/contracts/UsingTellor.sol\":4208:4218  _timestamp */\n      dup9\n        /* \"usingtellor/contracts/UsingTellor.sol\":4195:4204  _nextTime */\n      dup2\n        /* \"usingtellor/contracts/UsingTellor.sol\":4195:4218  _nextTime >= _timestamp */\n      lt\n        /* \"usingtellor/contracts/UsingTellor.sol\":4191:4472  if (_nextTime >= _timestamp) {... */\n      tag_72\n      jumpi\n        /* \"usingtellor/contracts/UsingTellor.sol\":4297:4301  true */\n      0x01\n        /* \"usingtellor/contracts/UsingTellor.sol\":4303:4309  middle */\n      dup6\n        /* \"usingtellor/contracts/UsingTellor.sol\":4289:4310  return (true, middle) */\n      swap8\n      pop\n      swap8\n      pop\n      pop\n      pop\n      pop\n      pop\n      pop\n      pop\n      jump(tag_51)\n        /* \"usingtellor/contracts/UsingTellor.sol\":4191:4472  if (_nextTime >= _timestamp) {... */\n    tag_72:\n        /* \"usingtellor/contracts/UsingTellor.sol\":4448:4449  1 */\n      0x01\n        /* \"usingtellor/contracts/UsingTellor.sol\":4439:4445  middle */\n      dup6\n        /* \"usingtellor/contracts/UsingTellor.sol\":4439:4449  middle + 1 */\n      tag_74\n      swap2\n      swap1\n      tag_66\n      jump\t// in\n    tag_74:\n        /* \"usingtellor/contracts/UsingTellor.sol\":4431:4449  start = middle + 1 */\n      swap4\n      pop\n        /* \"usingtellor/contracts/UsingTellor.sol\":3959:4490  {... */\n      pop\n        /* \"usingtellor/contracts/UsingTellor.sol\":3935:4987  if (_time < _timestamp) {... */\n      jump(tag_75)\n    tag_69:\n        /* \"usingtellor/contracts/UsingTellor.sol\":4518:4535  uint256 _prevTime */\n      0x00\n        /* \"usingtellor/contracts/UsingTellor.sol\":4538:4659  getTimestampbyQueryIdandIndex(... */\n      tag_76\n        /* \"usingtellor/contracts/UsingTellor.sol\":4593:4601  _queryId */\n      dup11\n        /* \"usingtellor/contracts/UsingTellor.sol\":4636:4637  1 */\n      0x01\n        /* \"usingtellor/contracts/UsingTellor.sol\":4627:4633  middle */\n      dup8\n        /* \"usingtellor/contracts/UsingTellor.sol\":4627:4637  middle - 1 */\n      tag_77\n      swap2\n      swap1\n      tag_55\n      jump\t// in\n    tag_77:\n        /* \"usingtellor/contracts/UsingTellor.sol\":4538:4567  getTimestampbyQueryIdandIndex */\n      tag_49\n        /* \"usingtellor/contracts/UsingTellor.sol\":4538:4659  getTimestampbyQueryIdandIndex(... */\n      jump\t// in\n    tag_76:\n        /* \"usingtellor/contracts/UsingTellor.sol\":4518:4659  uint256 _prevTime = getTimestampbyQueryIdandIndex(... */\n      swap1\n      pop\n        /* \"usingtellor/contracts/UsingTellor.sol\":4697:4707  _timestamp */\n      dup9\n        /* \"usingtellor/contracts/UsingTellor.sol\":4685:4694  _prevTime */\n      dup2\n        /* \"usingtellor/contracts/UsingTellor.sol\":4685:4707  _prevTime < _timestamp */\n      lt\n        /* \"usingtellor/contracts/UsingTellor.sol\":4681:4969  if (_prevTime < _timestamp) {... */\n      iszero\n      tag_78\n      jumpi\n        /* \"usingtellor/contracts/UsingTellor.sol\":4791:4795  true */\n      0x01\n        /* \"usingtellor/contracts/UsingTellor.sol\":4806:4807  1 */\n      dup1\n        /* \"usingtellor/contracts/UsingTellor.sol\":4797:4803  middle */\n      dup7\n        /* \"usingtellor/contracts/UsingTellor.sol\":4797:4807  middle - 1 */\n      tag_79\n      swap2\n      swap1\n      tag_55\n      jump\t// in\n    tag_79:\n        /* \"usingtellor/contracts/UsingTellor.sol\":4783:4808  return (true, middle - 1) */\n      swap8\n      pop\n      swap8\n      pop\n      pop\n      pop\n      pop\n      pop\n      pop\n      pop\n      jump(tag_51)\n        /* \"usingtellor/contracts/UsingTellor.sol\":4681:4969  if (_prevTime < _timestamp) {... */\n    tag_78:\n        /* \"usingtellor/contracts/UsingTellor.sol\":4945:4946  1 */\n      0x01\n        /* \"usingtellor/contracts/UsingTellor.sol\":4936:4942  middle */\n      dup6\n        /* \"usingtellor/contracts/UsingTellor.sol\":4936:4946  middle - 1 */\n      tag_81\n      swap2\n      swap1\n      tag_55\n      jump\t// in\n    tag_81:\n        /* \"usingtellor/contracts/UsingTellor.sol\":4930:4946  end = middle - 1 */\n      swap3\n      pop\n        /* \"usingtellor/contracts/UsingTellor.sol\":4496:4987  {... */\n      pop\n        /* \"usingtellor/contracts/UsingTellor.sol\":3935:4987  if (_time < _timestamp) {... */\n    tag_75:\n        /* \"usingtellor/contracts/UsingTellor.sol\":3775:5125  while (true) {... */\n      jump(tag_60)\n    tag_61:\n        /* \"usingtellor/contracts/UsingTellor.sol\":3249:5135  {... */\n      pop\n      pop\n      pop\n      pop\n        /* \"usingtellor/contracts/UsingTellor.sol\":3233:5135  if (_count > 0) {... */\n    tag_53:\n        /* \"usingtellor/contracts/UsingTellor.sol\":5152:5157  false */\n      0x00\n        /* \"usingtellor/contracts/UsingTellor.sol\":5159:5160  0 */\n      dup1\n        /* \"usingtellor/contracts/UsingTellor.sol\":5144:5161  return (false, 0) */\n      swap3\n      pop\n      swap3\n      pop\n      pop\n        /* \"usingtellor/contracts/UsingTellor.sol\":3013:5168  function getIndexForDataBefore(bytes32 _queryId, uint256 _timestamp)... */\n    tag_51:\n      swap3\n      pop\n      swap3\n      swap1\n      pop\n      jump\t// out\n        /* \"usingtellor/contracts/UsingTellor.sol\":6929:7876  function isInDispute(bytes32 _queryId, uint256 _timestamp)... */\n    tag_24:\n        /* \"usingtellor/contracts/UsingTellor.sol\":7033:7037  bool */\n      0x00\n        /* \"usingtellor/contracts/UsingTellor.sol\":7053:7072  ITellor _governance */\n      dup1\n        /* \"usingtellor/contracts/UsingTellor.sol\":7158:7200  0x18431fd88adF138e8b979A7246eb58EA7126ea16 */\n      0x18431fd88adf138e8b979a7246eb58ea7126ea16\n        /* \"usingtellor/contracts/UsingTellor.sol\":7140:7201  tellor == ITellor(0x18431fd88adF138e8b979A7246eb58EA7126ea16) */\n      0xffffffffffffffffffffffffffffffffffffffff\n      and\n        /* \"usingtellor/contracts/UsingTellor.sol\":7140:7146  tellor */\n      0x00\n      dup1\n      sload\n      swap1\n      0x0100\n      exp\n      swap1\n      div\n      0xffffffffffffffffffffffffffffffffffffffff\n      and\n        /* \"usingtellor/contracts/UsingTellor.sol\":7140:7201  tellor == ITellor(0x18431fd88adF138e8b979A7246eb58EA7126ea16) */\n      0xffffffffffffffffffffffffffffffffffffffff\n      and\n      eq\n        /* \"usingtellor/contracts/UsingTellor.sol\":7140:7278  tellor == ITellor(0x18431fd88adF138e8b979A7246eb58EA7126ea16) ||... */\n      dup1\n      tag_83\n      jumpi\n      pop\n        /* \"usingtellor/contracts/UsingTellor.sol\":7235:7277  0xe8218cACb0a5421BC6409e498d9f8CC8869945ea */\n      0xe8218cacb0a5421bc6409e498d9f8cc8869945ea\n        /* \"usingtellor/contracts/UsingTellor.sol\":7217:7278  tellor == ITellor(0xe8218cACb0a5421BC6409e498d9f8CC8869945ea) */\n      0xffffffffffffffffffffffffffffffffffffffff\n      and\n        /* \"usingtellor/contracts/UsingTellor.sol\":7217:7223  tellor */\n      0x00\n      dup1\n      sload\n      swap1\n      0x0100\n      exp\n      swap1\n      div\n      0xffffffffffffffffffffffffffffffffffffffff\n      and\n        /* \"usingtellor/contracts/UsingTellor.sol\":7217:7278  tellor == ITellor(0xe8218cACb0a5421BC6409e498d9f8CC8869945ea) */\n      0xffffffffffffffffffffffffffffffffffffffff\n      and\n      eq\n        /* \"usingtellor/contracts/UsingTellor.sol\":7140:7278  tellor == ITellor(0x18431fd88adF138e8b979A7246eb58EA7126ea16) ||... */\n    tag_83:\n        /* \"usingtellor/contracts/UsingTellor.sol\":7123:7682  if (... */\n      iszero\n      tag_84\n      jumpi\n        /* \"usingtellor/contracts/UsingTellor.sol\":7303:7321  ITellor _newTellor */\n      0x00\n        /* \"usingtellor/contracts/UsingTellor.sol\":7349:7391  0x88dF592F8eb5D7Bd38bFeF7dEb0fBc02cf3778a0 */\n      0x88df592f8eb5d7bd38bfef7deb0fbc02cf3778a0\n        /* \"usingtellor/contracts/UsingTellor.sol\":7303:7405  ITellor _newTellor = ITellor(... */\n      swap1\n      pop\n        /* \"usingtellor/contracts/UsingTellor.sol\":7458:7468  _newTellor */\n      dup1\n        /* \"usingtellor/contracts/UsingTellor.sol\":7458:7478  _newTellor.addresses */\n      0xffffffffffffffffffffffffffffffffffffffff\n      and\n      0x699f200f\n        /* \"usingtellor/contracts/UsingTellor.sol\":7500:7566  0xefa19baa864049f50491093580c5433e97e8d5e41f8db1a61108b4fa44cacd93 */\n      0xefa19baa864049f50491093580c5433e97e8d5e41f8db1a61108b4fa44cacd93\n        /* \"usingtellor/contracts/UsingTellor.sol\":7458:7584  _newTellor.addresses(... */\n      mload(0x40)\n      dup3\n      0xffffffff\n      and\n      0xe0\n      shl\n      dup2\n      mstore\n      0x04\n      add\n      tag_85\n      swap2\n      swap1\n      tag_86\n      jump\t// in\n    tag_85:\n      0x20\n      mload(0x40)\n      dup1\n      dup4\n      sub\n      dup2\n      dup7\n      gas\n      staticcall\n      iszero\n      dup1\n      iszero\n      tag_88\n      jumpi\n      returndatasize\n      0x00\n      dup1\n      returndatacopy\n      revert(0x00, returndatasize)\n    tag_88:\n      pop\n      pop\n      pop\n      pop\n      mload(0x40)\n      returndatasize\n      not(0x1f)\n      0x1f\n      dup3\n      add\n      and\n      dup3\n      add\n      dup1\n      0x40\n      mstore\n      pop\n      dup2\n      add\n      swap1\n      tag_89\n      swap2\n      swap1\n      tag_90\n      jump\t// in\n    tag_89:\n        /* \"usingtellor/contracts/UsingTellor.sol\":7419:7598  _governance = ITellor(... */\n      swap2\n      pop\n        /* \"usingtellor/contracts/UsingTellor.sol\":7289:7609  {... */\n      pop\n        /* \"usingtellor/contracts/UsingTellor.sol\":7123:7682  if (... */\n      jump(tag_91)\n    tag_84:\n        /* \"usingtellor/contracts/UsingTellor.sol\":7651:7657  tellor */\n      0x00\n      dup1\n      sload\n      swap1\n      0x0100\n      exp\n      swap1\n      div\n      0xffffffffffffffffffffffffffffffffffffffff\n      and\n        /* \"usingtellor/contracts/UsingTellor.sol\":7651:7668  tellor.governance */\n      0xffffffffffffffffffffffffffffffffffffffff\n      and\n      0x5aa6e675\n        /* \"usingtellor/contracts/UsingTellor.sol\":7651:7670  tellor.governance() */\n      mload(0x40)\n      dup2\n      0xffffffff\n      and\n      0xe0\n      shl\n      dup2\n      mstore\n      0x04\n      add\n      0x20\n      mload(0x40)\n      dup1\n      dup4\n      sub\n      dup2\n      dup7\n      gas\n      staticcall\n      iszero\n      dup1\n      iszero\n      tag_93\n      jumpi\n      returndatasize\n      0x00\n      dup1\n      returndatacopy\n      revert(0x00, returndatasize)\n    tag_93:\n      pop\n      pop\n      pop\n      pop\n      mload(0x40)\n      returndatasize\n      not(0x1f)\n      0x1f\n      dup3\n      add\n      and\n      dup3\n      add\n      dup1\n      0x40\n      mstore\n      pop\n      dup2\n      add\n      swap1\n      tag_94\n      swap2\n      swap1\n      tag_90\n      jump\t// in\n    tag_94:\n        /* \"usingtellor/contracts/UsingTellor.sol\":7629:7671  _governance = ITellor(tellor.governance()) */\n      swap1\n      pop\n        /* \"usingtellor/contracts/UsingTellor.sol\":7123:7682  if (... */\n    tag_91:\n        /* \"usingtellor/contracts/UsingTellor.sol\":7868:7869  0 */\n      0x00\n        /* \"usingtellor/contracts/UsingTellor.sol\":7710:7721  _governance */\n      dup2\n        /* \"usingtellor/contracts/UsingTellor.sol\":7710:7752  _governance... */\n      0xffffffffffffffffffffffffffffffffffffffff\n      and\n      0x248638e5\n        /* \"usingtellor/contracts/UsingTellor.sol\":7801:7809  _queryId */\n      dup7\n        /* \"usingtellor/contracts/UsingTellor.sol\":7811:7821  _timestamp */\n      dup7\n        /* \"usingtellor/contracts/UsingTellor.sol\":7784:7822  abi.encodePacked(_queryId, _timestamp) */\n      add(0x20, mload(0x40))\n      tag_95\n      swap3\n      swap2\n      swap1\n      tag_96\n      jump\t// in\n    tag_95:\n      mload(0x40)\n      0x20\n      dup2\n      dup4\n      sub\n      sub\n      dup2\n      mstore\n      swap1\n      0x40\n      mstore\n        /* \"usingtellor/contracts/UsingTellor.sol\":7774:7823  keccak256(abi.encodePacked(_queryId, _timestamp)) */\n      dup1\n      mload\n      swap1\n      0x20\n      add\n      keccak256\n        /* \"usingtellor/contracts/UsingTellor.sol\":7710:7841  _governance... */\n      mload(0x40)\n      dup3\n      0xffffffff\n      and\n      0xe0\n      shl\n      dup2\n      mstore\n      0x04\n      add\n      tag_97\n      swap2\n      swap1\n      tag_98\n      jump\t// in\n    tag_97:\n      0x00\n      mload(0x40)\n      dup1\n      dup4\n      sub\n      dup2\n      dup7\n      gas\n      staticcall\n      iszero\n      dup1\n      iszero\n      tag_100\n      jumpi\n      returndatasize\n      0x00\n      dup1\n      returndatacopy\n      revert(0x00, returndatasize)\n    tag_100:\n      pop\n      pop\n      pop\n      pop\n      mload(0x40)\n      returndatasize\n      0x00\n      dup3\n      returndatacopy\n      returndatasize\n      not(0x1f)\n      0x1f\n      dup3\n      add\n      and\n      dup3\n      add\n      dup1\n      0x40\n      mstore\n      pop\n      dup2\n      add\n      swap1\n      tag_101\n      swap2\n      swap1\n      tag_102\n      jump\t// in\n    tag_101:\n        /* \"usingtellor/contracts/UsingTellor.sol\":7710:7865  _governance... */\n      mload\n        /* \"usingtellor/contracts/UsingTellor.sol\":7710:7869  _governance... */\n      gt\n        /* \"usingtellor/contracts/UsingTellor.sol\":7691:7869  return... */\n      swap2\n      pop\n      pop\n        /* \"usingtellor/contracts/UsingTellor.sol\":6929:7876  function isInDispute(bytes32 _queryId, uint256 _timestamp)... */\n      swap3\n      swap2\n      pop\n      pop\n      jump\t// out\n        /* \"usingtellor/contracts/UsingTellor.sol\":5390:5874  function getNewValueCountbyQueryId(bytes32 _queryId)... */\n    tag_30:\n        /* \"usingtellor/contracts/UsingTellor.sol\":5488:5495  uint256 */\n      0x00\n        /* \"usingtellor/contracts/UsingTellor.sol\":5587:5629  0x18431fd88adF138e8b979A7246eb58EA7126ea16 */\n      0x18431fd88adf138e8b979a7246eb58ea7126ea16\n        /* \"usingtellor/contracts/UsingTellor.sol\":5569:5630  tellor == ITellor(0x18431fd88adF138e8b979A7246eb58EA7126ea16) */\n      0xffffffffffffffffffffffffffffffffffffffff\n      and\n        /* \"usingtellor/contracts/UsingTellor.sol\":5569:5575  tellor */\n      0x00\n      dup1\n      sload\n      swap1\n      0x0100\n      exp\n      swap1\n      div\n      0xffffffffffffffffffffffffffffffffffffffff\n      and\n        /* \"usingtellor/contracts/UsingTellor.sol\":5569:5630  tellor == ITellor(0x18431fd88adF138e8b979A7246eb58EA7126ea16) */\n      0xffffffffffffffffffffffffffffffffffffffff\n      and\n      eq\n        /* \"usingtellor/contracts/UsingTellor.sol\":5569:5707  tellor == ITellor(0x18431fd88adF138e8b979A7246eb58EA7126ea16) ||... */\n      dup1\n      tag_104\n      jumpi\n      pop\n        /* \"usingtellor/contracts/UsingTellor.sol\":5664:5706  0xe8218cACb0a5421BC6409e498d9f8CC8869945ea */\n      0xe8218cacb0a5421bc6409e498d9f8cc8869945ea\n        /* \"usingtellor/contracts/UsingTellor.sol\":5646:5707  tellor == ITellor(0xe8218cACb0a5421BC6409e498d9f8CC8869945ea) */\n      0xffffffffffffffffffffffffffffffffffffffff\n      and\n        /* \"usingtellor/contracts/UsingTellor.sol\":5646:5652  tellor */\n      0x00\n      dup1\n      sload\n      swap1\n      0x0100\n      exp\n      swap1\n      div\n      0xffffffffffffffffffffffffffffffffffffffff\n      and\n        /* \"usingtellor/contracts/UsingTellor.sol\":5646:5707  tellor == ITellor(0xe8218cACb0a5421BC6409e498d9f8CC8869945ea) */\n      0xffffffffffffffffffffffffffffffffffffffff\n      and\n      eq\n        /* \"usingtellor/contracts/UsingTellor.sol\":5569:5707  tellor == ITellor(0x18431fd88adF138e8b979A7246eb58EA7126ea16) ||... */\n    tag_104:\n        /* \"usingtellor/contracts/UsingTellor.sol\":5552:5868  if (... */\n      iszero\n      tag_105\n      jumpi\n        /* \"usingtellor/contracts/UsingTellor.sol\":5739:5745  tellor */\n      0x00\n      dup1\n      sload\n      swap1\n      0x0100\n      exp\n      swap1\n      div\n      0xffffffffffffffffffffffffffffffffffffffff\n      and\n        /* \"usingtellor/contracts/UsingTellor.sol\":5739:5767  tellor.getTimestampCountById */\n      0xffffffffffffffffffffffffffffffffffffffff\n      and\n      0x35e72432\n        /* \"usingtellor/contracts/UsingTellor.sol\":5768:5776  _queryId */\n      dup4\n        /* \"usingtellor/contracts/UsingTellor.sol\":5739:5777  tellor.getTimestampCountById(_queryId) */\n      mload(0x40)\n      dup3\n      0xffffffff\n      and\n      0xe0\n      shl\n      dup2\n      mstore\n      0x04\n      add\n      tag_106\n      swap2\n      swap1\n      tag_98\n      jump\t// in\n    tag_106:\n      0x20\n      mload(0x40)\n      dup1\n      dup4\n      sub\n      dup2\n      dup7\n      gas\n      staticcall\n      iszero\n      dup1\n      iszero\n      tag_108\n      jumpi\n      returndatasize\n      0x00\n      dup1\n      returndatacopy\n      revert(0x00, returndatasize)\n    tag_108:\n      pop\n      pop\n      pop\n      pop\n      mload(0x40)\n      returndatasize\n      not(0x1f)\n      0x1f\n      dup3\n      add\n      and\n      dup3\n      add\n      dup1\n      0x40\n      mstore\n      pop\n      dup2\n      add\n      swap1\n      tag_109\n      swap2\n      swap1\n      tag_110\n      jump\t// in\n    tag_109:\n        /* \"usingtellor/contracts/UsingTellor.sol\":5732:5777  return tellor.getTimestampCountById(_queryId) */\n      swap1\n      pop\n      jump(tag_103)\n        /* \"usingtellor/contracts/UsingTellor.sol\":5552:5868  if (... */\n    tag_105:\n        /* \"usingtellor/contracts/UsingTellor.sol\":5815:5821  tellor */\n      0x00\n      dup1\n      sload\n      swap1\n      0x0100\n      exp\n      swap1\n      div\n      0xffffffffffffffffffffffffffffffffffffffff\n      and\n        /* \"usingtellor/contracts/UsingTellor.sol\":5815:5847  tellor.getNewValueCountbyQueryId */\n      0xffffffffffffffffffffffffffffffffffffffff\n      and\n      0x77b03e0d\n        /* \"usingtellor/contracts/UsingTellor.sol\":5848:5856  _queryId */\n      dup4\n        /* \"usingtellor/contracts/UsingTellor.sol\":5815:5857  tellor.getNewValueCountbyQueryId(_queryId) */\n      mload(0x40)\n      dup3\n      0xffffffff\n      and\n      0xe0\n      shl\n      dup2\n      mstore\n      0x04\n      add\n      tag_112\n      swap2\n      swap1\n      tag_98\n      jump\t// in\n    tag_112:\n      0x20\n      mload(0x40)\n      dup1\n      dup4\n      sub\n      dup2\n      dup7\n      gas\n      staticcall\n      iszero\n      dup1\n      iszero\n      tag_114\n      jumpi\n      returndatasize\n      0x00\n      dup1\n      returndatacopy\n      revert(0x00, returndatasize)\n    tag_114:\n      pop\n      pop\n      pop\n      pop\n      mload(0x40)\n      returndatasize\n      not(0x1f)\n      0x1f\n      dup3\n      add\n      and\n      dup3\n      add\n      dup1\n      0x40\n      mstore\n      pop\n      dup2\n      add\n      swap1\n      tag_115\n      swap2\n      swap1\n      tag_110\n      jump\t// in\n    tag_115:\n        /* \"usingtellor/contracts/UsingTellor.sol\":5808:5857  return tellor.getNewValueCountbyQueryId(_queryId) */\n      swap1\n      pop\n        /* \"usingtellor/contracts/UsingTellor.sol\":5390:5874  function getNewValueCountbyQueryId(bytes32 _queryId)... */\n    tag_103:\n      swap2\n      swap1\n      pop\n      jump\t// out\n        /* \"usingtellor/contracts/UsingTellor.sol\":1919:2576  function getDataBefore(bytes32 _queryId, uint256 _timestamp)... */\n    tag_35:\n        /* \"usingtellor/contracts/UsingTellor.sol\":2038:2054  bool _ifRetrieve */\n      0x00\n        /* \"usingtellor/contracts/UsingTellor.sol\":2068:2087  bytes memory _value */\n      0x60\n        /* \"usingtellor/contracts/UsingTellor.sol\":2101:2128  uint256 _timestampRetrieved */\n      0x00\n        /* \"usingtellor/contracts/UsingTellor.sol\":2154:2165  bool _found */\n      dup1\n        /* \"usingtellor/contracts/UsingTellor.sol\":2167:2181  uint256 _index */\n      0x00\n        /* \"usingtellor/contracts/UsingTellor.sol\":2185:2262  getIndexForDataBefore(... */\n      tag_117\n        /* \"usingtellor/contracts/UsingTellor.sol\":2220:2228  _queryId */\n      dup8\n        /* \"usingtellor/contracts/UsingTellor.sol\":2242:2252  _timestamp */\n      dup8\n        /* \"usingtellor/contracts/UsingTellor.sol\":2185:2206  getIndexForDataBefore */\n      tag_19\n        /* \"usingtellor/contracts/UsingTellor.sol\":2185:2262  getIndexForDataBefore(... */\n      jump\t// in\n    tag_117:\n        /* \"usingtellor/contracts/UsingTellor.sol\":2153:2262  (bool _found, uint256 _index) = getIndexForDataBefore(... */\n      swap2\n      pop\n      swap2\n      pop\n        /* \"usingtellor/contracts/UsingTellor.sol\":2277:2283  _found */\n      dup2\n        /* \"usingtellor/contracts/UsingTellor.sol\":2272:2313  if (!_found) return (false, bytes(\"\"), 0) */\n      tag_118\n      jumpi\n        /* \"usingtellor/contracts/UsingTellor.sol\":2293:2298  false */\n      0x00\n        /* \"usingtellor/contracts/UsingTellor.sol\":2300:2309  bytes(\"\") */\n      mload(0x40)\n      dup1\n      0x20\n      add\n      0x40\n      mstore\n      dup1\n      0x00\n      dup2\n      mstore\n      pop\n        /* \"usingtellor/contracts/UsingTellor.sol\":2311:2312  0 */\n      0x00\n        /* \"usingtellor/contracts/UsingTellor.sol\":2285:2313  return (false, bytes(\"\"), 0) */\n      swap5\n      pop\n      swap5\n      pop\n      swap5\n      pop\n      pop\n      pop\n      jump(tag_116)\n        /* \"usingtellor/contracts/UsingTellor.sol\":2272:2313  if (!_found) return (false, bytes(\"\"), 0) */\n    tag_118:\n        /* \"usingtellor/contracts/UsingTellor.sol\":2323:2336  uint256 _time */\n      0x00\n        /* \"usingtellor/contracts/UsingTellor.sol\":2339:2386  getTimestampbyQueryIdandIndex(_queryId, _index) */\n      tag_119\n        /* \"usingtellor/contracts/UsingTellor.sol\":2369:2377  _queryId */\n      dup9\n        /* \"usingtellor/contracts/UsingTellor.sol\":2379:2385  _index */\n      dup4\n        /* \"usingtellor/contracts/UsingTellor.sol\":2339:2368  getTimestampbyQueryIdandIndex */\n      tag_49\n        /* \"usingtellor/contracts/UsingTellor.sol\":2339:2386  getTimestampbyQueryIdandIndex(_queryId, _index) */\n      jump\t// in\n    tag_119:\n        /* \"usingtellor/contracts/UsingTellor.sol\":2323:2386  uint256 _time = getTimestampbyQueryIdandIndex(_queryId, _index) */\n      swap1\n      pop\n        /* \"usingtellor/contracts/UsingTellor.sol\":2405:2434  retrieveData(_queryId, _time) */\n      tag_120\n        /* \"usingtellor/contracts/UsingTellor.sol\":2418:2426  _queryId */\n      dup9\n        /* \"usingtellor/contracts/UsingTellor.sol\":2428:2433  _time */\n      dup3\n        /* \"usingtellor/contracts/UsingTellor.sol\":2405:2417  retrieveData */\n      tag_44\n        /* \"usingtellor/contracts/UsingTellor.sol\":2405:2434  retrieveData(_queryId, _time) */\n      jump\t// in\n    tag_120:\n        /* \"usingtellor/contracts/UsingTellor.sol\":2396:2434  _value = retrieveData(_queryId, _time) */\n      swap5\n      pop\n        /* \"usingtellor/contracts/UsingTellor.sol\":2479:2488  bytes(\"\") */\n      mload(0x40)\n      dup1\n      0x20\n      add\n      0x40\n      mstore\n      dup1\n      0x00\n      dup2\n      mstore\n      pop\n        /* \"usingtellor/contracts/UsingTellor.sol\":2469:2489  keccak256(bytes(\"\")) */\n      dup1\n      mload\n      swap1\n      0x20\n      add\n      keccak256\n        /* \"usingtellor/contracts/UsingTellor.sol\":2458:2464  _value */\n      dup6\n        /* \"usingtellor/contracts/UsingTellor.sol\":2448:2465  keccak256(_value) */\n      dup1\n      mload\n      swap1\n      0x20\n      add\n      keccak256\n        /* \"usingtellor/contracts/UsingTellor.sol\":2448:2489  keccak256(_value) != keccak256(bytes(\"\")) */\n      eq\n        /* \"usingtellor/contracts/UsingTellor.sol\":2444:2531  if (keccak256(_value) != keccak256(bytes(\"\")))... */\n      tag_121\n      jumpi\n        /* \"usingtellor/contracts/UsingTellor.sol\":2511:2515  true */\n      0x01\n        /* \"usingtellor/contracts/UsingTellor.sol\":2517:2523  _value */\n      dup6\n        /* \"usingtellor/contracts/UsingTellor.sol\":2525:2530  _time */\n      dup3\n        /* \"usingtellor/contracts/UsingTellor.sol\":2503:2531  return (true, _value, _time) */\n      swap6\n      pop\n      swap6\n      pop\n      swap6\n      pop\n      pop\n      pop\n      pop\n      jump(tag_116)\n        /* \"usingtellor/contracts/UsingTellor.sol\":2444:2531  if (keccak256(_value) != keccak256(bytes(\"\")))... */\n    tag_121:\n        /* \"usingtellor/contracts/UsingTellor.sol\":2549:2554  false */\n      0x00\n        /* \"usingtellor/contracts/UsingTellor.sol\":2556:2565  bytes(\"\") */\n      mload(0x40)\n      dup1\n      0x20\n      add\n      0x40\n      mstore\n      dup1\n      0x00\n      dup2\n      mstore\n      pop\n        /* \"usingtellor/contracts/UsingTellor.sol\":2567:2568  0 */\n      0x00\n        /* \"usingtellor/contracts/UsingTellor.sol\":2541:2569  return (false, bytes(\"\"), 0) */\n      swap6\n      pop\n      swap6\n      pop\n      swap6\n      pop\n      pop\n      pop\n      pop\n        /* \"usingtellor/contracts/UsingTellor.sol\":1919:2576  function getDataBefore(bytes32 _queryId, uint256 _timestamp)... */\n    tag_116:\n      swap3\n      pop\n      swap3\n      pop\n      swap3\n      jump\t// out\n        /* \"usingtellor/contracts/UsingTellor.sol\":891:1510  function getCurrentValue(bytes32 _queryId)... */\n    tag_40:\n        /* \"usingtellor/contracts/UsingTellor.sol\":992:1008  bool _ifRetrieve */\n      0x00\n        /* \"usingtellor/contracts/UsingTellor.sol\":1022:1041  bytes memory _value */\n      0x60\n        /* \"usingtellor/contracts/UsingTellor.sol\":1055:1082  uint256 _timestampRetrieved */\n      0x00\n        /* \"usingtellor/contracts/UsingTellor.sol\":1107:1121  uint256 _count */\n      dup1\n        /* \"usingtellor/contracts/UsingTellor.sol\":1124:1159  getNewValueCountbyQueryId(_queryId) */\n      tag_123\n        /* \"usingtellor/contracts/UsingTellor.sol\":1150:1158  _queryId */\n      dup6\n        /* \"usingtellor/contracts/UsingTellor.sol\":1124:1149  getNewValueCountbyQueryId */\n      tag_30\n        /* \"usingtellor/contracts/UsingTellor.sol\":1124:1159  getNewValueCountbyQueryId(_queryId) */\n      jump\t// in\n    tag_123:\n        /* \"usingtellor/contracts/UsingTellor.sol\":1107:1159  uint256 _count = getNewValueCountbyQueryId(_queryId) */\n      swap1\n      pop\n        /* \"usingtellor/contracts/UsingTellor.sol\":1184:1185  0 */\n      0x00\n        /* \"usingtellor/contracts/UsingTellor.sol\":1174:1180  _count */\n      dup2\n        /* \"usingtellor/contracts/UsingTellor.sol\":1174:1185  _count == 0 */\n      sub\n        /* \"usingtellor/contracts/UsingTellor.sol\":1170:1240  if (_count == 0) {... */\n      tag_124\n      jumpi\n        /* \"usingtellor/contracts/UsingTellor.sol\":1209:1214  false */\n      0x00\n        /* \"usingtellor/contracts/UsingTellor.sol\":1216:1225  bytes(\"\") */\n      mload(0x40)\n      dup1\n      0x20\n      add\n      0x40\n      mstore\n      dup1\n      0x00\n      dup2\n      mstore\n      pop\n        /* \"usingtellor/contracts/UsingTellor.sol\":1227:1228  0 */\n      0x00\n        /* \"usingtellor/contracts/UsingTellor.sol\":1201:1229  return (false, bytes(\"\"), 0) */\n      swap4\n      pop\n      swap4\n      pop\n      swap4\n      pop\n      pop\n      jump(tag_122)\n        /* \"usingtellor/contracts/UsingTellor.sol\":1170:1240  if (_count == 0) {... */\n    tag_124:\n        /* \"usingtellor/contracts/UsingTellor.sol\":1249:1262  uint256 _time */\n      0x00\n        /* \"usingtellor/contracts/UsingTellor.sol\":1265:1316  getTimestampbyQueryIdandIndex(_queryId, _count - 1) */\n      tag_125\n        /* \"usingtellor/contracts/UsingTellor.sol\":1295:1303  _queryId */\n      dup7\n        /* \"usingtellor/contracts/UsingTellor.sol\":1314:1315  1 */\n      0x01\n        /* \"usingtellor/contracts/UsingTellor.sol\":1305:1311  _count */\n      dup5\n        /* \"usingtellor/contracts/UsingTellor.sol\":1305:1315  _count - 1 */\n      tag_126\n      swap2\n      swap1\n      tag_55\n      jump\t// in\n    tag_126:\n        /* \"usingtellor/contracts/UsingTellor.sol\":1265:1294  getTimestampbyQueryIdandIndex */\n      tag_49\n        /* \"usingtellor/contracts/UsingTellor.sol\":1265:1316  getTimestampbyQueryIdandIndex(_queryId, _count - 1) */\n      jump\t// in\n    tag_125:\n        /* \"usingtellor/contracts/UsingTellor.sol\":1249:1316  uint256 _time = getTimestampbyQueryIdandIndex(_queryId, _count - 1) */\n      swap1\n      pop\n        /* \"usingtellor/contracts/UsingTellor.sol\":1335:1364  retrieveData(_queryId, _time) */\n      tag_127\n        /* \"usingtellor/contracts/UsingTellor.sol\":1348:1356  _queryId */\n      dup7\n        /* \"usingtellor/contracts/UsingTellor.sol\":1358:1363  _time */\n      dup3\n        /* \"usingtellor/contracts/UsingTellor.sol\":1335:1347  retrieveData */\n      tag_44\n        /* \"usingtellor/contracts/UsingTellor.sol\":1335:1364  retrieveData(_queryId, _time) */\n      jump\t// in\n    tag_127:\n        /* \"usingtellor/contracts/UsingTellor.sol\":1326:1364  _value = retrieveData(_queryId, _time) */\n      swap4\n      pop\n        /* \"usingtellor/contracts/UsingTellor.sol\":1409:1418  bytes(\"\") */\n      mload(0x40)\n      dup1\n      0x20\n      add\n      0x40\n      mstore\n      dup1\n      0x00\n      dup2\n      mstore\n      pop\n        /* \"usingtellor/contracts/UsingTellor.sol\":1399:1419  keccak256(bytes(\"\")) */\n      dup1\n      mload\n      swap1\n      0x20\n      add\n      keccak256\n        /* \"usingtellor/contracts/UsingTellor.sol\":1388:1394  _value */\n      dup5\n        /* \"usingtellor/contracts/UsingTellor.sol\":1378:1395  keccak256(_value) */\n      dup1\n      mload\n      swap1\n      0x20\n      add\n      keccak256\n        /* \"usingtellor/contracts/UsingTellor.sol\":1378:1419  keccak256(_value) != keccak256(bytes(\"\")) */\n      eq\n        /* \"usingtellor/contracts/UsingTellor.sol\":1374:1461  if (keccak256(_value) != keccak256(bytes(\"\")))... */\n      tag_128\n      jumpi\n        /* \"usingtellor/contracts/UsingTellor.sol\":1441:1445  true */\n      0x01\n        /* \"usingtellor/contracts/UsingTellor.sol\":1447:1453  _value */\n      dup5\n        /* \"usingtellor/contracts/UsingTellor.sol\":1455:1460  _time */\n      dup3\n        /* \"usingtellor/contracts/UsingTellor.sol\":1433:1461  return (true, _value, _time) */\n      swap5\n      pop\n      swap5\n      pop\n      swap5\n      pop\n      pop\n      pop\n      jump(tag_122)\n        /* \"usingtellor/contracts/UsingTellor.sol\":1374:1461  if (keccak256(_value) != keccak256(bytes(\"\")))... */\n    tag_128:\n        /* \"usingtellor/contracts/UsingTellor.sol\":1479:1484  false */\n      0x00\n        /* \"usingtellor/contracts/UsingTellor.sol\":1486:1495  bytes(\"\") */\n      mload(0x40)\n      dup1\n      0x20\n      add\n      0x40\n      mstore\n      dup1\n      0x00\n      dup2\n      mstore\n      pop\n        /* \"usingtellor/contracts/UsingTellor.sol\":1497:1502  _time */\n      dup3\n        /* \"usingtellor/contracts/UsingTellor.sol\":1471:1503  return (false, bytes(\"\"), _time) */\n      swap5\n      pop\n      swap5\n      pop\n      swap5\n      pop\n      pop\n      pop\n        /* \"usingtellor/contracts/UsingTellor.sol\":891:1510  function getCurrentValue(bytes32 _queryId)... */\n    tag_122:\n      swap2\n      swap4\n      swap1\n      swap3\n      pop\n      jump\t// out\n        /* \"usingtellor/contracts/UsingTellor.sol\":8113:8618  function retrieveData(bytes32 _queryId, uint256 _timestamp)... */\n    tag_44:\n        /* \"usingtellor/contracts/UsingTellor.sol\":8218:8230  bytes memory */\n      0x60\n        /* \"usingtellor/contracts/UsingTellor.sol\":8322:8364  0x18431fd88adF138e8b979A7246eb58EA7126ea16 */\n      0x18431fd88adf138e8b979a7246eb58ea7126ea16\n        /* \"usingtellor/contracts/UsingTellor.sol\":8304:8365  tellor == ITellor(0x18431fd88adF138e8b979A7246eb58EA7126ea16) */\n      0xffffffffffffffffffffffffffffffffffffffff\n      and\n        /* \"usingtellor/contracts/UsingTellor.sol\":8304:8310  tellor */\n      0x00\n      dup1\n      sload\n      swap1\n      0x0100\n      exp\n      swap1\n      div\n      0xffffffffffffffffffffffffffffffffffffffff\n      and\n        /* \"usingtellor/contracts/UsingTellor.sol\":8304:8365  tellor == ITellor(0x18431fd88adF138e8b979A7246eb58EA7126ea16) */\n      0xffffffffffffffffffffffffffffffffffffffff\n      and\n      eq\n        /* \"usingtellor/contracts/UsingTellor.sol\":8304:8442  tellor == ITellor(0x18431fd88adF138e8b979A7246eb58EA7126ea16) ||... */\n      dup1\n      tag_130\n      jumpi\n      pop\n        /* \"usingtellor/contracts/UsingTellor.sol\":8399:8441  0xe8218cACb0a5421BC6409e498d9f8CC8869945ea */\n      0xe8218cacb0a5421bc6409e498d9f8cc8869945ea\n        /* \"usingtellor/contracts/UsingTellor.sol\":8381:8442  tellor == ITellor(0xe8218cACb0a5421BC6409e498d9f8CC8869945ea) */\n      0xffffffffffffffffffffffffffffffffffffffff\n      and\n        /* \"usingtellor/contracts/UsingTellor.sol\":8381:8387  tellor */\n      0x00\n      dup1\n      sload\n      swap1\n      0x0100\n      exp\n      swap1\n      div\n      0xffffffffffffffffffffffffffffffffffffffff\n      and\n        /* \"usingtellor/contracts/UsingTellor.sol\":8381:8442  tellor == ITellor(0xe8218cACb0a5421BC6409e498d9f8CC8869945ea) */\n      0xffffffffffffffffffffffffffffffffffffffff\n      and\n      eq\n        /* \"usingtellor/contracts/UsingTellor.sol\":8304:8442  tellor == ITellor(0x18431fd88adF138e8b979A7246eb58EA7126ea16) ||... */\n    tag_130:\n        /* \"usingtellor/contracts/UsingTellor.sol\":8287:8612  if (... */\n      iszero\n      tag_131\n      jumpi\n        /* \"usingtellor/contracts/UsingTellor.sol\":8474:8480  tellor */\n      0x00\n      dup1\n      sload\n      swap1\n      0x0100\n      exp\n      swap1\n      div\n      0xffffffffffffffffffffffffffffffffffffffff\n      and\n        /* \"usingtellor/contracts/UsingTellor.sol\":8474:8500  tellor.getValueByTimestamp */\n      0xffffffffffffffffffffffffffffffffffffffff\n      and\n      0x0b2d2b0d\n        /* \"usingtellor/contracts/UsingTellor.sol\":8501:8509  _queryId */\n      dup5\n        /* \"usingtellor/contracts/UsingTellor.sol\":8511:8521  _timestamp */\n      dup5\n        /* \"usingtellor/contracts/UsingTellor.sol\":8474:8522  tellor.getValueByTimestamp(_queryId, _timestamp) */\n      mload(0x40)\n      dup4\n      0xffffffff\n      and\n      0xe0\n      shl\n      dup2\n      mstore\n      0x04\n      add\n      tag_132\n      swap3\n      swap2\n      swap1\n      tag_133\n      jump\t// in\n    tag_132:\n      0x00\n      mload(0x40)\n      dup1\n      dup4\n      sub\n      dup2\n      dup7\n      gas\n      staticcall\n      iszero\n      dup1\n      iszero\n      tag_135\n      jumpi\n      returndatasize\n      0x00\n      dup1\n      returndatacopy\n      revert(0x00, returndatasize)\n    tag_135:\n      pop\n      pop\n      pop\n      pop\n      mload(0x40)\n      returndatasize\n      0x00\n      dup3\n      returndatacopy\n      returndatasize\n      not(0x1f)\n      0x1f\n      dup3\n      add\n      and\n      dup3\n      add\n      dup1\n      0x40\n      mstore\n      pop\n      dup2\n      add\n      swap1\n      tag_136\n      swap2\n      swap1\n      tag_137\n      jump\t// in\n    tag_136:\n        /* \"usingtellor/contracts/UsingTellor.sol\":8467:8522  return tellor.getValueByTimestamp(_queryId, _timestamp) */\n      swap1\n      pop\n      jump(tag_129)\n        /* \"usingtellor/contracts/UsingTellor.sol\":8287:8612  if (... */\n    tag_131:\n        /* \"usingtellor/contracts/UsingTellor.sol\":8560:8566  tellor */\n      0x00\n      dup1\n      sload\n      swap1\n      0x0100\n      exp\n      swap1\n      div\n      0xffffffffffffffffffffffffffffffffffffffff\n      and\n        /* \"usingtellor/contracts/UsingTellor.sol\":8560:8579  tellor.retrieveData */\n      0xffffffffffffffffffffffffffffffffffffffff\n      and\n      0xc5958af9\n        /* \"usingtellor/contracts/UsingTellor.sol\":8580:8588  _queryId */\n      dup5\n        /* \"usingtellor/contracts/UsingTellor.sol\":8590:8600  _timestamp */\n      dup5\n        /* \"usingtellor/contracts/UsingTellor.sol\":8560:8601  tellor.retrieveData(_queryId, _timestamp) */\n      mload(0x40)\n      dup4\n      0xffffffff\n      and\n      0xe0\n      shl\n      dup2\n      mstore\n      0x04\n      add\n      tag_139\n      swap3\n      swap2\n      swap1\n      tag_133\n      jump\t// in\n    tag_139:\n      0x00\n      mload(0x40)\n      dup1\n      dup4\n      sub\n      dup2\n      dup7\n      gas\n      staticcall\n      iszero\n      dup1\n      iszero\n      tag_141\n      jumpi\n      returndatasize\n      0x00\n      dup1\n      returndatacopy\n      revert(0x00, returndatasize)\n    tag_141:\n      pop\n      pop\n      pop\n      pop\n      mload(0x40)\n      returndatasize\n      0x00\n      dup3\n      returndatacopy\n      returndatasize\n      not(0x1f)\n      0x1f\n      dup3\n      add\n      and\n      dup3\n      add\n      dup1\n      0x40\n      mstore\n      pop\n      dup2\n      add\n      swap1\n      tag_142\n      swap2\n      swap1\n      tag_137\n      jump\t// in\n    tag_142:\n        /* \"usingtellor/contracts/UsingTellor.sol\":8553:8601  return tellor.retrieveData(_queryId, _timestamp) */\n      swap1\n      pop\n        /* \"usingtellor/contracts/UsingTellor.sol\":8113:8618  function retrieveData(bytes32 _queryId, uint256 _timestamp)... */\n    tag_129:\n      swap3\n      swap2\n      pop\n      pop\n      jump\t// out\n        /* \"usingtellor/contracts/UsingTellor.sol\":6108:6636  function getTimestampbyQueryIdandIndex(bytes32 _queryId, uint256 _index)... */\n    tag_49:\n        /* \"usingtellor/contracts/UsingTellor.sol\":6226:6233  uint256 */\n      0x00\n        /* \"usingtellor/contracts/UsingTellor.sol\":6325:6367  0x18431fd88adF138e8b979A7246eb58EA7126ea16 */\n      0x18431fd88adf138e8b979a7246eb58ea7126ea16\n        /* \"usingtellor/contracts/UsingTellor.sol\":6307:6368  tellor == ITellor(0x18431fd88adF138e8b979A7246eb58EA7126ea16) */\n      0xffffffffffffffffffffffffffffffffffffffff\n      and\n        /* \"usingtellor/contracts/UsingTellor.sol\":6307:6313  tellor */\n      0x00\n      dup1\n      sload\n      swap1\n      0x0100\n      exp\n      swap1\n      div\n      0xffffffffffffffffffffffffffffffffffffffff\n      and\n        /* \"usingtellor/contracts/UsingTellor.sol\":6307:6368  tellor == ITellor(0x18431fd88adF138e8b979A7246eb58EA7126ea16) */\n      0xffffffffffffffffffffffffffffffffffffffff\n      and\n      eq\n        /* \"usingtellor/contracts/UsingTellor.sol\":6307:6445  tellor == ITellor(0x18431fd88adF138e8b979A7246eb58EA7126ea16) ||... */\n      dup1\n      tag_144\n      jumpi\n      pop\n        /* \"usingtellor/contracts/UsingTellor.sol\":6402:6444  0xe8218cACb0a5421BC6409e498d9f8CC8869945ea */\n      0xe8218cacb0a5421bc6409e498d9f8cc8869945ea\n        /* \"usingtellor/contracts/UsingTellor.sol\":6384:6445  tellor == ITellor(0xe8218cACb0a5421BC6409e498d9f8CC8869945ea) */\n      0xffffffffffffffffffffffffffffffffffffffff\n      and\n        /* \"usingtellor/contracts/UsingTellor.sol\":6384:6390  tellor */\n      0x00\n      dup1\n      sload\n      swap1\n      0x0100\n      exp\n      swap1\n      div\n      0xffffffffffffffffffffffffffffffffffffffff\n      and\n        /* \"usingtellor/contracts/UsingTellor.sol\":6384:6445  tellor == ITellor(0xe8218cACb0a5421BC6409e498d9f8CC8869945ea) */\n      0xffffffffffffffffffffffffffffffffffffffff\n      and\n      eq\n        /* \"usingtellor/contracts/UsingTellor.sol\":6307:6445  tellor == ITellor(0x18431fd88adF138e8b979A7246eb58EA7126ea16) ||... */\n    tag_144:\n        /* \"usingtellor/contracts/UsingTellor.sol\":6290:6630  if (... */\n      iszero\n      tag_145\n      jumpi\n        /* \"usingtellor/contracts/UsingTellor.sol\":6477:6483  tellor */\n      0x00\n      dup1\n      sload\n      swap1\n      0x0100\n      exp\n      swap1\n      div\n      0xffffffffffffffffffffffffffffffffffffffff\n      and\n        /* \"usingtellor/contracts/UsingTellor.sol\":6477:6509  tellor.getReportTimestampByIndex */\n      0xffffffffffffffffffffffffffffffffffffffff\n      and\n      0x7c37b8b4\n        /* \"usingtellor/contracts/UsingTellor.sol\":6510:6518  _queryId */\n      dup5\n        /* \"usingtellor/contracts/UsingTellor.sol\":6520:6526  _index */\n      dup5\n        /* \"usingtellor/contracts/UsingTellor.sol\":6477:6527  tellor.getReportTimestampByIndex(_queryId, _index) */\n      mload(0x40)\n      dup4\n      0xffffffff\n      and\n      0xe0\n      shl\n      dup2\n      mstore\n      0x04\n      add\n      tag_146\n      swap3\n      swap2\n      swap1\n      tag_133\n      jump\t// in\n    tag_146:\n      0x20\n      mload(0x40)\n      dup1\n      dup4\n      sub\n      dup2\n      dup7\n      gas\n      staticcall\n      iszero\n      dup1\n      iszero\n      tag_148\n      jumpi\n      returndatasize\n      0x00\n      dup1\n      returndatacopy\n      revert(0x00, returndatasize)\n    tag_148:\n      pop\n      pop\n      pop\n      pop\n      mload(0x40)\n      returndatasize\n      not(0x1f)\n      0x1f\n      dup3\n      add\n      and\n      dup3\n      add\n      dup1\n      0x40\n      mstore\n      pop\n      dup2\n      add\n      swap1\n      tag_149\n      swap2\n      swap1\n      tag_110\n      jump\t// in\n    tag_149:\n        /* \"usingtellor/contracts/UsingTellor.sol\":6470:6527  return tellor.getReportTimestampByIndex(_queryId, _index) */\n      swap1\n      pop\n      jump(tag_143)\n        /* \"usingtellor/contracts/UsingTellor.sol\":6290:6630  if (... */\n    tag_145:\n        /* \"usingtellor/contracts/UsingTellor.sol\":6565:6571  tellor */\n      0x00\n      dup1\n      sload\n      swap1\n      0x0100\n      exp\n      swap1\n      div\n      0xffffffffffffffffffffffffffffffffffffffff\n      and\n        /* \"usingtellor/contracts/UsingTellor.sol\":6565:6601  tellor.getTimestampbyQueryIdandIndex */\n      0xffffffffffffffffffffffffffffffffffffffff\n      and\n      0xce5e11bf\n        /* \"usingtellor/contracts/UsingTellor.sol\":6602:6610  _queryId */\n      dup5\n        /* \"usingtellor/contracts/UsingTellor.sol\":6612:6618  _index */\n      dup5\n        /* \"usingtellor/contracts/UsingTellor.sol\":6565:6619  tellor.getTimestampbyQueryIdandIndex(_queryId, _index) */\n      mload(0x40)\n      dup4\n      0xffffffff\n      and\n      0xe0\n      shl\n      dup2\n      mstore\n      0x04\n      add\n      tag_151\n      swap3\n      swap2\n      swap1\n      tag_133\n      jump\t// in\n    tag_151:\n      0x20\n      mload(0x40)\n      dup1\n      dup4\n      sub\n      dup2\n      dup7\n      gas\n      staticcall\n      iszero\n      dup1\n      iszero\n      tag_153\n      jumpi\n      returndatasize\n      0x00\n      dup1\n      returndatacopy\n      revert(0x00, returndatasize)\n    tag_153:\n      pop\n      pop\n      pop\n      pop\n      mload(0x40)\n      returndatasize\n      not(0x1f)\n      0x1f\n      dup3\n      add\n      and\n      dup3\n      add\n      dup1\n      0x40\n      mstore\n      pop\n      dup2\n      add\n      swap1\n      tag_154\n      swap2\n      swap1\n      tag_110\n      jump\t// in\n    tag_154:\n        /* \"usingtellor/contracts/UsingTellor.sol\":6558:6619  return tellor.getTimestampbyQueryIdandIndex(_queryId, _index) */\n      swap1\n      pop\n        /* \"usingtellor/contracts/UsingTellor.sol\":6108:6636  function getTimestampbyQueryIdandIndex(bytes32 _queryId, uint256 _index)... */\n    tag_143:\n      swap3\n      swap2\n      pop\n      pop\n      jump\t// out\n        /* \"#utility.yul\":7:133   */\n    tag_155:\n        /* \"#utility.yul\":44:51   */\n      0x00\n        /* \"#utility.yul\":84:126   */\n      0xffffffffffffffffffffffffffffffffffffffff\n        /* \"#utility.yul\":77:82   */\n      dup3\n        /* \"#utility.yul\":73:127   */\n      and\n        /* \"#utility.yul\":62:127   */\n      swap1\n      pop\n        /* \"#utility.yul\":7:133   */\n      swap2\n      swap1\n      pop\n      jump\t// out\n        /* \"#utility.yul\":139:199   */\n    tag_156:\n        /* \"#utility.yul\":167:170   */\n      0x00\n        /* \"#utility.yul\":188:193   */\n      dup2\n        /* \"#utility.yul\":181:193   */\n      swap1\n      pop\n        /* \"#utility.yul\":139:199   */\n      swap2\n      swap1\n      pop\n      jump\t// out\n        /* \"#utility.yul\":205:347   */\n    tag_157:\n        /* \"#utility.yul\":255:264   */\n      0x00\n        /* \"#utility.yul\":288:341   */\n      tag_209\n        /* \"#utility.yul\":306:340   */\n      tag_210\n        /* \"#utility.yul\":315:339   */\n      tag_211\n        /* \"#utility.yul\":333:338   */\n      dup5\n        /* \"#utility.yul\":315:339   */\n      tag_155\n      jump\t// in\n    tag_211:\n        /* \"#utility.yul\":306:340   */\n      tag_156\n      jump\t// in\n    tag_210:\n        /* \"#utility.yul\":288:341   */\n      tag_155\n      jump\t// in\n    tag_209:\n        /* \"#utility.yul\":275:341   */\n      swap1\n      pop\n        /* \"#utility.yul\":205:347   */\n      swap2\n      swap1\n      pop\n      jump\t// out\n        /* \"#utility.yul\":353:479   */\n    tag_158:\n        /* \"#utility.yul\":403:412   */\n      0x00\n        /* \"#utility.yul\":436:473   */\n      tag_213\n        /* \"#utility.yul\":467:472   */\n      dup3\n        /* \"#utility.yul\":436:473   */\n      tag_157\n      jump\t// in\n    tag_213:\n        /* \"#utility.yul\":423:473   */\n      swap1\n      pop\n        /* \"#utility.yul\":353:479   */\n      swap2\n      swap1\n      pop\n      jump\t// out\n        /* \"#utility.yul\":485:627   */\n    tag_159:\n        /* \"#utility.yul\":551:560   */\n      0x00\n        /* \"#utility.yul\":584:621   */\n      tag_215\n        /* \"#utility.yul\":615:620   */\n      dup3\n        /* \"#utility.yul\":584:621   */\n      tag_158\n      jump\t// in\n    tag_215:\n        /* \"#utility.yul\":571:621   */\n      swap1\n      pop\n        /* \"#utility.yul\":485:627   */\n      swap2\n      swap1\n      pop\n      jump\t// out\n        /* \"#utility.yul\":633:796   */\n    tag_160:\n        /* \"#utility.yul\":736:789   */\n      tag_217\n        /* \"#utility.yul\":783:788   */\n      dup2\n        /* \"#utility.yul\":736:789   */\n      tag_159\n      jump\t// in\n    tag_217:\n        /* \"#utility.yul\":731:734   */\n      dup3\n        /* \"#utility.yul\":724:790   */\n      mstore\n        /* \"#utility.yul\":633:796   */\n      pop\n      pop\n      jump\t// out\n        /* \"#utility.yul\":802:1056   */\n    tag_15:\n        /* \"#utility.yul\":911:915   */\n      0x00\n        /* \"#utility.yul\":949:951   */\n      0x20\n        /* \"#utility.yul\":938:947   */\n      dup3\n        /* \"#utility.yul\":934:952   */\n      add\n        /* \"#utility.yul\":926:952   */\n      swap1\n      pop\n        /* \"#utility.yul\":962:1049   */\n      tag_219\n        /* \"#utility.yul\":1046:1047   */\n      0x00\n        /* \"#utility.yul\":1035:1044   */\n      dup4\n        /* \"#utility.yul\":1031:1048   */\n      add\n        /* \"#utility.yul\":1022:1028   */\n      dup5\n        /* \"#utility.yul\":962:1049   */\n      tag_160\n      jump\t// in\n    tag_219:\n        /* \"#utility.yul\":802:1056   */\n      swap3\n      swap2\n      pop\n      pop\n      jump\t// out\n        /* \"#utility.yul\":1062:1137   */\n    tag_161:\n        /* \"#utility.yul\":1095:1101   */\n      0x00\n        /* \"#utility.yul\":1128:1130   */\n      0x40\n        /* \"#utility.yul\":1122:1131   */\n      mload\n        /* \"#utility.yul\":1112:1131   */\n      swap1\n      pop\n        /* \"#utility.yul\":1062:1137   */\n      swap1\n      jump\t// out\n        /* \"#utility.yul\":1143:1260   */\n    tag_162:\n        /* \"#utility.yul\":1252:1253   */\n      0x00\n        /* \"#utility.yul\":1249:1250   */\n      dup1\n        /* \"#utility.yul\":1242:1254   */\n      revert\n        /* \"#utility.yul\":1266:1383   */\n    tag_163:\n        /* \"#utility.yul\":1375:1376   */\n      0x00\n        /* \"#utility.yul\":1372:1373   */\n      dup1\n        /* \"#utility.yul\":1365:1377   */\n      revert\n        /* \"#utility.yul\":1389:1466   */\n    tag_164:\n        /* \"#utility.yul\":1426:1433   */\n      0x00\n        /* \"#utility.yul\":1455:1460   */\n      dup2\n        /* \"#utility.yul\":1444:1460   */\n      swap1\n      pop\n        /* \"#utility.yul\":1389:1466   */\n      swap2\n      swap1\n      pop\n      jump\t// out\n        /* \"#utility.yul\":1472:1594   */\n    tag_165:\n        /* \"#utility.yul\":1545:1569   */\n      tag_225\n        /* \"#utility.yul\":1563:1568   */\n      dup2\n        /* \"#utility.yul\":1545:1569   */\n      tag_164\n      jump\t// in\n    tag_225:\n        /* \"#utility.yul\":1538:1543   */\n      dup2\n        /* \"#utility.yul\":1535:1570   */\n      eq\n        /* \"#utility.yul\":1525:1588   */\n      tag_226\n      jumpi\n        /* \"#utility.yul\":1584:1585   */\n      0x00\n        /* \"#utility.yul\":1581:1582   */\n      dup1\n        /* \"#utility.yul\":1574:1586   */\n      revert\n        /* \"#utility.yul\":1525:1588   */\n    tag_226:\n        /* \"#utility.yul\":1472:1594   */\n      pop\n      jump\t// out\n        /* \"#utility.yul\":1600:1739   */\n    tag_166:\n        /* \"#utility.yul\":1646:1651   */\n      0x00\n        /* \"#utility.yul\":1684:1690   */\n      dup2\n        /* \"#utility.yul\":1671:1691   */\n      calldataload\n        /* \"#utility.yul\":1662:1691   */\n      swap1\n      pop\n        /* \"#utility.yul\":1700:1733   */\n      tag_228\n        /* \"#utility.yul\":1727:1732   */\n      dup2\n        /* \"#utility.yul\":1700:1733   */\n      tag_165\n      jump\t// in\n    tag_228:\n        /* \"#utility.yul\":1600:1739   */\n      swap3\n      swap2\n      pop\n      pop\n      jump\t// out\n        /* \"#utility.yul\":1745:1822   */\n    tag_167:\n        /* \"#utility.yul\":1782:1789   */\n      0x00\n        /* \"#utility.yul\":1811:1816   */\n      dup2\n        /* \"#utility.yul\":1800:1816   */\n      swap1\n      pop\n        /* \"#utility.yul\":1745:1822   */\n      swap2\n      swap1\n      pop\n      jump\t// out\n        /* \"#utility.yul\":1828:1950   */\n    tag_168:\n        /* \"#utility.yul\":1901:1925   */\n      tag_231\n        /* \"#utility.yul\":1919:1924   */\n      dup2\n        /* \"#utility.yul\":1901:1925   */\n      tag_167\n      jump\t// in\n    tag_231:\n        /* \"#utility.yul\":1894:1899   */\n      dup2\n        /* \"#utility.yul\":1891:1926   */\n      eq\n        /* \"#utility.yul\":1881:1944   */\n      tag_232\n      jumpi\n        /* \"#utility.yul\":1940:1941   */\n      0x00\n        /* \"#utility.yul\":1937:1938   */\n      dup1\n        /* \"#utility.yul\":1930:1942   */\n      revert\n        /* \"#utility.yul\":1881:1944   */\n    tag_232:\n        /* \"#utility.yul\":1828:1950   */\n      pop\n      jump\t// out\n        /* \"#utility.yul\":1956:2095   */\n    tag_169:\n        /* \"#utility.yul\":2002:2007   */\n      0x00\n        /* \"#utility.yul\":2040:2046   */\n      dup2\n        /* \"#utility.yul\":2027:2047   */\n      calldataload\n        /* \"#utility.yul\":2018:2047   */\n      swap1\n      pop\n        /* \"#utility.yul\":2056:2089   */\n      tag_234\n        /* \"#utility.yul\":2083:2088   */\n      dup2\n        /* \"#utility.yul\":2056:2089   */\n      tag_168\n      jump\t// in\n    tag_234:\n        /* \"#utility.yul\":1956:2095   */\n      swap3\n      swap2\n      pop\n      pop\n      jump\t// out\n        /* \"#utility.yul\":2101:2575   */\n    tag_18:\n        /* \"#utility.yul\":2169:2175   */\n      0x00\n        /* \"#utility.yul\":2177:2183   */\n      dup1\n        /* \"#utility.yul\":2226:2228   */\n      0x40\n        /* \"#utility.yul\":2214:2223   */\n      dup4\n        /* \"#utility.yul\":2205:2212   */\n      dup6\n        /* \"#utility.yul\":2201:2224   */\n      sub\n        /* \"#utility.yul\":2197:2229   */\n      slt\n        /* \"#utility.yul\":2194:2313   */\n      iszero\n      tag_236\n      jumpi\n        /* \"#utility.yul\":2232:2311   */\n      tag_237\n      tag_162\n      jump\t// in\n    tag_237:\n        /* \"#utility.yul\":2194:2313   */\n    tag_236:\n        /* \"#utility.yul\":2352:2353   */\n      0x00\n        /* \"#utility.yul\":2377:2430   */\n      tag_238\n        /* \"#utility.yul\":2422:2429   */\n      dup6\n        /* \"#utility.yul\":2413:2419   */\n      dup3\n        /* \"#utility.yul\":2402:2411   */\n      dup7\n        /* \"#utility.yul\":2398:2420   */\n      add\n        /* \"#utility.yul\":2377:2430   */\n      tag_166\n      jump\t// in\n    tag_238:\n        /* \"#utility.yul\":2367:2430   */\n      swap3\n      pop\n        /* \"#utility.yul\":2323:2440   */\n      pop\n        /* \"#utility.yul\":2479:2481   */\n      0x20\n        /* \"#utility.yul\":2505:2558   */\n      tag_239\n        /* \"#utility.yul\":2550:2557   */\n      dup6\n        /* \"#utility.yul\":2541:2547   */\n      dup3\n        /* \"#utility.yul\":2530:2539   */\n      dup7\n        /* \"#utility.yul\":2526:2548   */\n      add\n        /* \"#utility.yul\":2505:2558   */\n      tag_169\n      jump\t// in\n    tag_239:\n        /* \"#utility.yul\":2495:2558   */\n      swap2\n      pop\n        /* \"#utility.yul\":2450:2568   */\n      pop\n        /* \"#utility.yul\":2101:2575   */\n      swap3\n      pop\n      swap3\n      swap1\n      pop\n      jump\t// out\n        /* \"#utility.yul\":2581:2671   */\n    tag_170:\n        /* \"#utility.yul\":2615:2622   */\n      0x00\n        /* \"#utility.yul\":2658:2663   */\n      dup2\n        /* \"#utility.yul\":2651:2664   */\n      iszero\n        /* \"#utility.yul\":2644:2665   */\n      iszero\n        /* \"#utility.yul\":2633:2665   */\n      swap1\n      pop\n        /* \"#utility.yul\":2581:2671   */\n      swap2\n      swap1\n      pop\n      jump\t// out\n        /* \"#utility.yul\":2677:2786   */\n    tag_171:\n        /* \"#utility.yul\":2758:2779   */\n      tag_242\n        /* \"#utility.yul\":2773:2778   */\n      dup2\n        /* \"#utility.yul\":2758:2779   */\n      tag_170\n      jump\t// in\n    tag_242:\n        /* \"#utility.yul\":2753:2756   */\n      dup3\n        /* \"#utility.yul\":2746:2780   */\n      mstore\n        /* \"#utility.yul\":2677:2786   */\n      pop\n      pop\n      jump\t// out\n        /* \"#utility.yul\":2792:2910   */\n    tag_172:\n        /* \"#utility.yul\":2879:2903   */\n      tag_244\n        /* \"#utility.yul\":2897:2902   */\n      dup2\n        /* \"#utility.yul\":2879:2903   */\n      tag_167\n      jump\t// in\n    tag_244:\n        /* \"#utility.yul\":2874:2877   */\n      dup3\n        /* \"#utility.yul\":2867:2904   */\n      mstore\n        /* \"#utility.yul\":2792:2910   */\n      pop\n      pop\n      jump\t// out\n        /* \"#utility.yul\":2916:3236   */\n    tag_21:\n        /* \"#utility.yul\":3031:3035   */\n      0x00\n        /* \"#utility.yul\":3069:3071   */\n      0x40\n        /* \"#utility.yul\":3058:3067   */\n      dup3\n        /* \"#utility.yul\":3054:3072   */\n      add\n        /* \"#utility.yul\":3046:3072   */\n      swap1\n      pop\n        /* \"#utility.yul\":3082:3147   */\n      tag_246\n        /* \"#utility.yul\":3144:3145   */\n      0x00\n        /* \"#utility.yul\":3133:3142   */\n      dup4\n        /* \"#utility.yul\":3129:3146   */\n      add\n        /* \"#utility.yul\":3120:3126   */\n      dup6\n        /* \"#utility.yul\":3082:3147   */\n      tag_171\n      jump\t// in\n    tag_246:\n        /* \"#utility.yul\":3157:3229   */\n      tag_247\n        /* \"#utility.yul\":3225:3227   */\n      0x20\n        /* \"#utility.yul\":3214:3223   */\n      dup4\n        /* \"#utility.yul\":3210:3228   */\n      add\n        /* \"#utility.yul\":3201:3207   */\n      dup5\n        /* \"#utility.yul\":3157:3229   */\n      tag_172\n      jump\t// in\n    tag_247:\n        /* \"#utility.yul\":2916:3236   */\n      swap4\n      swap3\n      pop\n      pop\n      pop\n      jump\t// out\n        /* \"#utility.yul\":3242:3452   */\n    tag_26:\n        /* \"#utility.yul\":3329:3333   */\n      0x00\n        /* \"#utility.yul\":3367:3369   */\n      0x20\n        /* \"#utility.yul\":3356:3365   */\n      dup3\n        /* \"#utility.yul\":3352:3370   */\n      add\n        /* \"#utility.yul\":3344:3370   */\n      swap1\n      pop\n        /* \"#utility.yul\":3380:3445   */\n      tag_249\n        /* \"#utility.yul\":3442:3443   */\n      0x00\n        /* \"#utility.yul\":3431:3440   */\n      dup4\n        /* \"#utility.yul\":3427:3444   */\n      add\n        /* \"#utility.yul\":3418:3424   */\n      dup5\n        /* \"#utility.yul\":3380:3445   */\n      tag_171\n      jump\t// in\n    tag_249:\n        /* \"#utility.yul\":3242:3452   */\n      swap3\n      swap2\n      pop\n      pop\n      jump\t// out\n        /* \"#utility.yul\":3458:3787   */\n    tag_29:\n        /* \"#utility.yul\":3517:3523   */\n      0x00\n        /* \"#utility.yul\":3566:3568   */\n      0x20\n        /* \"#utility.yul\":3554:3563   */\n      dup3\n        /* \"#utility.yul\":3545:3552   */\n      dup5\n        /* \"#utility.yul\":3541:3564   */\n      sub\n        /* \"#utility.yul\":3537:3569   */\n      slt\n        /* \"#utility.yul\":3534:3653   */\n      iszero\n      tag_251\n      jumpi\n        /* \"#utility.yul\":3572:3651   */\n      tag_252\n      tag_162\n      jump\t// in\n    tag_252:\n        /* \"#utility.yul\":3534:3653   */\n    tag_251:\n        /* \"#utility.yul\":3692:3693   */\n      0x00\n        /* \"#utility.yul\":3717:3770   */\n      tag_253\n        /* \"#utility.yul\":3762:3769   */\n      dup5\n        /* \"#utility.yul\":3753:3759   */\n      dup3\n        /* \"#utility.yul\":3742:3751   */\n      dup6\n        /* \"#utility.yul\":3738:3760   */\n      add\n        /* \"#utility.yul\":3717:3770   */\n      tag_166\n      jump\t// in\n    tag_253:\n        /* \"#utility.yul\":3707:3770   */\n      swap2\n      pop\n        /* \"#utility.yul\":3663:3780   */\n      pop\n        /* \"#utility.yul\":3458:3787   */\n      swap3\n      swap2\n      pop\n      pop\n      jump\t// out\n        /* \"#utility.yul\":3793:4015   */\n    tag_32:\n        /* \"#utility.yul\":3886:3890   */\n      0x00\n        /* \"#utility.yul\":3924:3926   */\n      0x20\n        /* \"#utility.yul\":3913:3922   */\n      dup3\n        /* \"#utility.yul\":3909:3927   */\n      add\n        /* \"#utility.yul\":3901:3927   */\n      swap1\n      pop\n        /* \"#utility.yul\":3937:4008   */\n      tag_255\n        /* \"#utility.yul\":4005:4006   */\n      0x00\n        /* \"#utility.yul\":3994:4003   */\n      dup4\n        /* \"#utility.yul\":3990:4007   */\n      add\n        /* \"#utility.yul\":3981:3987   */\n      dup5\n        /* \"#utility.yul\":3937:4008   */\n      tag_172\n      jump\t// in\n    tag_255:\n        /* \"#utility.yul\":3793:4015   */\n      swap3\n      swap2\n      pop\n      pop\n      jump\t// out\n        /* \"#utility.yul\":4021:4119   */\n    tag_173:\n        /* \"#utility.yul\":4072:4078   */\n      0x00\n        /* \"#utility.yul\":4106:4111   */\n      dup2\n        /* \"#utility.yul\":4100:4112   */\n      mload\n        /* \"#utility.yul\":4090:4112   */\n      swap1\n      pop\n        /* \"#utility.yul\":4021:4119   */\n      swap2\n      swap1\n      pop\n      jump\t// out\n        /* \"#utility.yul\":4125:4293   */\n    tag_174:\n        /* \"#utility.yul\":4208:4219   */\n      0x00\n        /* \"#utility.yul\":4242:4248   */\n      dup3\n        /* \"#utility.yul\":4237:4240   */\n      dup3\n        /* \"#utility.yul\":4230:4249   */\n      mstore\n        /* \"#utility.yul\":4282:4286   */\n      0x20\n        /* \"#utility.yul\":4277:4280   */\n      dup3\n        /* \"#utility.yul\":4273:4287   */\n      add\n        /* \"#utility.yul\":4258:4287   */\n      swap1\n      pop\n        /* \"#utility.yul\":4125:4293   */\n      swap3\n      swap2\n      pop\n      pop\n      jump\t// out\n        /* \"#utility.yul\":4299:4545   */\n    tag_175:\n        /* \"#utility.yul\":4380:4381   */\n      0x00\n        /* \"#utility.yul\":4390:4503   */\n    tag_259:\n        /* \"#utility.yul\":4404:4410   */\n      dup4\n        /* \"#utility.yul\":4401:4402   */\n      dup2\n        /* \"#utility.yul\":4398:4411   */\n      lt\n        /* \"#utility.yul\":4390:4503   */\n      iszero\n      tag_261\n      jumpi\n        /* \"#utility.yul\":4489:4490   */\n      dup1\n        /* \"#utility.yul\":4484:4487   */\n      dup3\n        /* \"#utility.yul\":4480:4491   */\n      add\n        /* \"#utility.yul\":4474:4492   */\n      mload\n        /* \"#utility.yul\":4470:4471   */\n      dup2\n        /* \"#utility.yul\":4465:4468   */\n      dup5\n        /* \"#utility.yul\":4461:4472   */\n      add\n        /* \"#utility.yul\":4454:4493   */\n      mstore\n        /* \"#utility.yul\":4426:4428   */\n      0x20\n        /* \"#utility.yul\":4423:4424   */\n      dup2\n        /* \"#utility.yul\":4419:4429   */\n      add\n        /* \"#utility.yul\":4414:4429   */\n      swap1\n      pop\n        /* \"#utility.yul\":4390:4503   */\n      jump(tag_259)\n    tag_261:\n        /* \"#utility.yul\":4537:4538   */\n      0x00\n        /* \"#utility.yul\":4528:4534   */\n      dup5\n        /* \"#utility.yul\":4523:4526   */\n      dup5\n        /* \"#utility.yul\":4519:4535   */\n      add\n        /* \"#utility.yul\":4512:4539   */\n      mstore\n        /* \"#utility.yul\":4361:4545   */\n      pop\n        /* \"#utility.yul\":4299:4545   */\n      pop\n      pop\n      pop\n      jump\t// out\n        /* \"#utility.yul\":4551:4653   */\n    tag_176:\n        /* \"#utility.yul\":4592:4598   */\n      0x00\n        /* \"#utility.yul\":4643:4645   */\n      0x1f\n        /* \"#utility.yul\":4639:4646   */\n      not\n        /* \"#utility.yul\":4634:4636   */\n      0x1f\n        /* \"#utility.yul\":4627:4632   */\n      dup4\n        /* \"#utility.yul\":4623:4637   */\n      add\n        /* \"#utility.yul\":4619:4647   */\n      and\n        /* \"#utility.yul\":4609:4647   */\n      swap1\n      pop\n        /* \"#utility.yul\":4551:4653   */\n      swap2\n      swap1\n      pop\n      jump\t// out\n        /* \"#utility.yul\":4659:5032   */\n    tag_177:\n        /* \"#utility.yul\":4745:4748   */\n      0x00\n        /* \"#utility.yul\":4773:4811   */\n      tag_264\n        /* \"#utility.yul\":4805:4810   */\n      dup3\n        /* \"#utility.yul\":4773:4811   */\n      tag_173\n      jump\t// in\n    tag_264:\n        /* \"#utility.yul\":4827:4897   */\n      tag_265\n        /* \"#utility.yul\":4890:4896   */\n      dup2\n        /* \"#utility.yul\":4885:4888   */\n      dup6\n        /* \"#utility.yul\":4827:4897   */\n      tag_174\n      jump\t// in\n    tag_265:\n        /* \"#utility.yul\":4820:4897   */\n      swap4\n      pop\n        /* \"#utility.yul\":4906:4971   */\n      tag_266\n        /* \"#utility.yul\":4964:4970   */\n      dup2\n        /* \"#utility.yul\":4959:4962   */\n      dup6\n        /* \"#utility.yul\":4952:4956   */\n      0x20\n        /* \"#utility.yul\":4945:4950   */\n      dup7\n        /* \"#utility.yul\":4941:4957   */\n      add\n        /* \"#utility.yul\":4906:4971   */\n      tag_175\n      jump\t// in\n    tag_266:\n        /* \"#utility.yul\":4996:5025   */\n      tag_267\n        /* \"#utility.yul\":5018:5024   */\n      dup2\n        /* \"#utility.yul\":4996:5025   */\n      tag_176\n      jump\t// in\n    tag_267:\n        /* \"#utility.yul\":4991:4994   */\n      dup5\n        /* \"#utility.yul\":4987:5026   */\n      add\n        /* \"#utility.yul\":4980:5026   */\n      swap2\n      pop\n        /* \"#utility.yul\":4749:5032   */\n      pop\n        /* \"#utility.yul\":4659:5032   */\n      swap3\n      swap2\n      pop\n      pop\n      jump\t// out\n        /* \"#utility.yul\":5038:5555   */\n    tag_37:\n        /* \"#utility.yul\":5199:5203   */\n      0x00\n        /* \"#utility.yul\":5237:5239   */\n      0x60\n        /* \"#utility.yul\":5226:5235   */\n      dup3\n        /* \"#utility.yul\":5222:5240   */\n      add\n        /* \"#utility.yul\":5214:5240   */\n      swap1\n      pop\n        /* \"#utility.yul\":5250:5315   */\n      tag_269\n        /* \"#utility.yul\":5312:5313   */\n      0x00\n        /* \"#utility.yul\":5301:5310   */\n      dup4\n        /* \"#utility.yul\":5297:5314   */\n      add\n        /* \"#utility.yul\":5288:5294   */\n      dup7\n        /* \"#utility.yul\":5250:5315   */\n      tag_171\n      jump\t// in\n    tag_269:\n        /* \"#utility.yul\":5362:5371   */\n      dup2\n        /* \"#utility.yul\":5356:5360   */\n      dup2\n        /* \"#utility.yul\":5352:5372   */\n      sub\n        /* \"#utility.yul\":5347:5349   */\n      0x20\n        /* \"#utility.yul\":5336:5345   */\n      dup4\n        /* \"#utility.yul\":5332:5350   */\n      add\n        /* \"#utility.yul\":5325:5373   */\n      mstore\n        /* \"#utility.yul\":5390:5466   */\n      tag_270\n        /* \"#utility.yul\":5461:5465   */\n      dup2\n        /* \"#utility.yul\":5452:5458   */\n      dup6\n        /* \"#utility.yul\":5390:5466   */\n      tag_177\n      jump\t// in\n    tag_270:\n        /* \"#utility.yul\":5382:5466   */\n      swap1\n      pop\n        /* \"#utility.yul\":5476:5548   */\n      tag_271\n        /* \"#utility.yul\":5544:5546   */\n      0x40\n        /* \"#utility.yul\":5533:5542   */\n      dup4\n        /* \"#utility.yul\":5529:5547   */\n      add\n        /* \"#utility.yul\":5520:5526   */\n      dup5\n        /* \"#utility.yul\":5476:5548   */\n      tag_172\n      jump\t// in\n    tag_271:\n        /* \"#utility.yul\":5038:5555   */\n      swap5\n      swap4\n      pop\n      pop\n      pop\n      pop\n      jump\t// out\n        /* \"#utility.yul\":5561:5870   */\n    tag_46:\n        /* \"#utility.yul\":5672:5676   */\n      0x00\n        /* \"#utility.yul\":5710:5712   */\n      0x20\n        /* \"#utility.yul\":5699:5708   */\n      dup3\n        /* \"#utility.yul\":5695:5713   */\n      add\n        /* \"#utility.yul\":5687:5713   */\n      swap1\n      pop\n        /* \"#utility.yul\":5759:5768   */\n      dup2\n        /* \"#utility.yul\":5753:5757   */\n      dup2\n        /* \"#utility.yul\":5749:5769   */\n      sub\n        /* \"#utility.yul\":5745:5746   */\n      0x00\n        /* \"#utility.yul\":5734:5743   */\n      dup4\n        /* \"#utility.yul\":5730:5747   */\n      add\n        /* \"#utility.yul\":5723:5770   */\n      mstore\n        /* \"#utility.yul\":5787:5863   */\n      tag_273\n        /* \"#utility.yul\":5858:5862   */\n      dup2\n        /* \"#utility.yul\":5849:5855   */\n      dup5\n        /* \"#utility.yul\":5787:5863   */\n      tag_177\n      jump\t// in\n    tag_273:\n        /* \"#utility.yul\":5779:5863   */\n      swap1\n      pop\n        /* \"#utility.yul\":5561:5870   */\n      swap3\n      swap2\n      pop\n      pop\n      jump\t// out\n        /* \"#utility.yul\":5876:6056   */\n    tag_178:\n        /* \"#utility.yul\":5924:6001   */\n      0x4e487b7100000000000000000000000000000000000000000000000000000000\n        /* \"#utility.yul\":5921:5922   */\n      0x00\n        /* \"#utility.yul\":5914:6002   */\n      mstore\n        /* \"#utility.yul\":6021:6025   */\n      0x11\n        /* \"#utility.yul\":6018:6019   */\n      0x04\n        /* \"#utility.yul\":6011:6026   */\n      mstore\n        /* \"#utility.yul\":6045:6049   */\n      0x24\n        /* \"#utility.yul\":6042:6043   */\n      0x00\n        /* \"#utility.yul\":6035:6050   */\n      revert\n        /* \"#utility.yul\":6062:6256   */\n    tag_55:\n        /* \"#utility.yul\":6102:6106   */\n      0x00\n        /* \"#utility.yul\":6122:6142   */\n      tag_276\n        /* \"#utility.yul\":6140:6141   */\n      dup3\n        /* \"#utility.yul\":6122:6142   */\n      tag_167\n      jump\t// in\n    tag_276:\n        /* \"#utility.yul\":6117:6142   */\n      swap2\n      pop\n        /* \"#utility.yul\":6156:6176   */\n      tag_277\n        /* \"#utility.yul\":6174:6175   */\n      dup4\n        /* \"#utility.yul\":6156:6176   */\n      tag_167\n      jump\t// in\n    tag_277:\n        /* \"#utility.yul\":6151:6176   */\n      swap3\n      pop\n        /* \"#utility.yul\":6200:6201   */\n      dup3\n        /* \"#utility.yul\":6197:6198   */\n      dup3\n        /* \"#utility.yul\":6193:6202   */\n      sub\n        /* \"#utility.yul\":6185:6202   */\n      swap1\n      pop\n        /* \"#utility.yul\":6224:6225   */\n      dup2\n        /* \"#utility.yul\":6218:6222   */\n      dup2\n        /* \"#utility.yul\":6215:6226   */\n      gt\n        /* \"#utility.yul\":6212:6249   */\n      iszero\n      tag_278\n      jumpi\n        /* \"#utility.yul\":6229:6247   */\n      tag_279\n      tag_178\n      jump\t// in\n    tag_279:\n        /* \"#utility.yul\":6212:6249   */\n    tag_278:\n        /* \"#utility.yul\":6062:6256   */\n      swap3\n      swap2\n      pop\n      pop\n      jump\t// out\n        /* \"#utility.yul\":6262:6442   */\n    tag_179:\n        /* \"#utility.yul\":6310:6387   */\n      0x4e487b7100000000000000000000000000000000000000000000000000000000\n        /* \"#utility.yul\":6307:6308   */\n      0x00\n        /* \"#utility.yul\":6300:6388   */\n      mstore\n        /* \"#utility.yul\":6407:6411   */\n      0x12\n        /* \"#utility.yul\":6404:6405   */\n      0x04\n        /* \"#utility.yul\":6397:6412   */\n      mstore\n        /* \"#utility.yul\":6431:6435   */\n      0x24\n        /* \"#utility.yul\":6428:6429   */\n      0x00\n        /* \"#utility.yul\":6421:6436   */\n      revert\n        /* \"#utility.yul\":6448:6633   */\n    tag_64:\n        /* \"#utility.yul\":6488:6489   */\n      0x00\n        /* \"#utility.yul\":6505:6525   */\n      tag_282\n        /* \"#utility.yul\":6523:6524   */\n      dup3\n        /* \"#utility.yul\":6505:6525   */\n      tag_167\n      jump\t// in\n    tag_282:\n        /* \"#utility.yul\":6500:6525   */\n      swap2\n      pop\n        /* \"#utility.yul\":6539:6559   */\n      tag_283\n        /* \"#utility.yul\":6557:6558   */\n      dup4\n        /* \"#utility.yul\":6539:6559   */\n      tag_167\n      jump\t// in\n    tag_283:\n        /* \"#utility.yul\":6534:6559   */\n      swap3\n      pop\n        /* \"#utility.yul\":6578:6579   */\n      dup3\n        /* \"#utility.yul\":6568:6603   */\n      tag_284\n      jumpi\n        /* \"#utility.yul\":6583:6601   */\n      tag_285\n      tag_179\n      jump\t// in\n    tag_285:\n        /* \"#utility.yul\":6568:6603   */\n    tag_284:\n        /* \"#utility.yul\":6625:6626   */\n      dup3\n        /* \"#utility.yul\":6622:6623   */\n      dup3\n        /* \"#utility.yul\":6618:6627   */\n      div\n        /* \"#utility.yul\":6613:6627   */\n      swap1\n      pop\n        /* \"#utility.yul\":6448:6633   */\n      swap3\n      swap2\n      pop\n      pop\n      jump\t// out\n        /* \"#utility.yul\":6639:6830   */\n    tag_66:\n        /* \"#utility.yul\":6679:6682   */\n      0x00\n        /* \"#utility.yul\":6698:6718   */\n      tag_287\n        /* \"#utility.yul\":6716:6717   */\n      dup3\n        /* \"#utility.yul\":6698:6718   */\n      tag_167\n      jump\t// in\n    tag_287:\n        /* \"#utility.yul\":6693:6718   */\n      swap2\n      pop\n        /* \"#utility.yul\":6732:6752   */\n      tag_288\n        /* \"#utility.yul\":6750:6751   */\n      dup4\n        /* \"#utility.yul\":6732:6752   */\n      tag_167\n      jump\t// in\n    tag_288:\n        /* \"#utility.yul\":6727:6752   */\n      swap3\n      pop\n        /* \"#utility.yul\":6775:6776   */\n      dup3\n        /* \"#utility.yul\":6772:6773   */\n      dup3\n        /* \"#utility.yul\":6768:6777   */\n      add\n        /* \"#utility.yul\":6761:6777   */\n      swap1\n      pop\n        /* \"#utility.yul\":6796:6799   */\n      dup1\n        /* \"#utility.yul\":6793:6794   */\n      dup3\n        /* \"#utility.yul\":6790:6800   */\n      gt\n        /* \"#utility.yul\":6787:6823   */\n      iszero\n      tag_289\n      jumpi\n        /* \"#utility.yul\":6803:6821   */\n      tag_290\n      tag_178\n      jump\t// in\n    tag_290:\n        /* \"#utility.yul\":6787:6823   */\n    tag_289:\n        /* \"#utility.yul\":6639:6830   */\n      swap3\n      swap2\n      pop\n      pop\n      jump\t// out\n        /* \"#utility.yul\":6836:6998   */\n    tag_180:\n        /* \"#utility.yul\":6958:6965   */\n      0x00\n        /* \"#utility.yul\":6987:6992   */\n      dup2\n        /* \"#utility.yul\":6976:6992   */\n      swap1\n      pop\n        /* \"#utility.yul\":6836:6998   */\n      swap2\n      swap1\n      pop\n      jump\t// out\n        /* \"#utility.yul\":7004:7096   */\n    tag_181:\n        /* \"#utility.yul\":7036:7044   */\n      0x00\n        /* \"#utility.yul\":7083:7088   */\n      dup2\n        /* \"#utility.yul\":7080:7081   */\n      0x00\n        /* \"#utility.yul\":7076:7089   */\n      shl\n        /* \"#utility.yul\":7055:7089   */\n      swap1\n      pop\n        /* \"#utility.yul\":7004:7096   */\n      swap2\n      swap1\n      pop\n      jump\t// out\n        /* \"#utility.yul\":7102:7418   */\n    tag_182:\n        /* \"#utility.yul\":7237:7246   */\n      0x00\n        /* \"#utility.yul\":7270:7412   */\n      tag_294\n        /* \"#utility.yul\":7288:7411   */\n      tag_295\n        /* \"#utility.yul\":7301:7410   */\n      tag_296\n        /* \"#utility.yul\":7404:7409   */\n      dup5\n        /* \"#utility.yul\":7301:7410   */\n      tag_180\n      jump\t// in\n    tag_296:\n        /* \"#utility.yul\":7288:7411   */\n      tag_181\n      jump\t// in\n    tag_295:\n        /* \"#utility.yul\":7270:7412   */\n      tag_164\n      jump\t// in\n    tag_294:\n        /* \"#utility.yul\":7257:7412   */\n      swap1\n      pop\n        /* \"#utility.yul\":7102:7418   */\n      swap2\n      swap1\n      pop\n      jump\t// out\n        /* \"#utility.yul\":7424:7725   */\n    tag_183:\n        /* \"#utility.yul\":7596:7718   */\n      tag_298\n        /* \"#utility.yul\":7712:7717   */\n      dup2\n        /* \"#utility.yul\":7596:7718   */\n      tag_182\n      jump\t// in\n    tag_298:\n        /* \"#utility.yul\":7591:7594   */\n      dup3\n        /* \"#utility.yul\":7584:7719   */\n      mstore\n        /* \"#utility.yul\":7424:7725   */\n      pop\n      pop\n      jump\t// out\n        /* \"#utility.yul\":7731:8123   */\n    tag_86:\n        /* \"#utility.yul\":7909:7913   */\n      0x00\n        /* \"#utility.yul\":7947:7949   */\n      0x20\n        /* \"#utility.yul\":7936:7945   */\n      dup3\n        /* \"#utility.yul\":7932:7950   */\n      add\n        /* \"#utility.yul\":7924:7950   */\n      swap1\n      pop\n        /* \"#utility.yul\":7960:8116   */\n      tag_300\n        /* \"#utility.yul\":8113:8114   */\n      0x00\n        /* \"#utility.yul\":8102:8111   */\n      dup4\n        /* \"#utility.yul\":8098:8115   */\n      add\n        /* \"#utility.yul\":8089:8095   */\n      dup5\n        /* \"#utility.yul\":7960:8116   */\n      tag_183\n      jump\t// in\n    tag_300:\n        /* \"#utility.yul\":7731:8123   */\n      swap3\n      swap2\n      pop\n      pop\n      jump\t// out\n        /* \"#utility.yul\":8129:8225   */\n    tag_184:\n        /* \"#utility.yul\":8166:8173   */\n      0x00\n        /* \"#utility.yul\":8195:8219   */\n      tag_302\n        /* \"#utility.yul\":8213:8218   */\n      dup3\n        /* \"#utility.yul\":8195:8219   */\n      tag_155\n      jump\t// in\n    tag_302:\n        /* \"#utility.yul\":8184:8219   */\n      swap1\n      pop\n        /* \"#utility.yul\":8129:8225   */\n      swap2\n      swap1\n      pop\n      jump\t// out\n        /* \"#utility.yul\":8231:8353   */\n    tag_185:\n        /* \"#utility.yul\":8304:8328   */\n      tag_304\n        /* \"#utility.yul\":8322:8327   */\n      dup2\n        /* \"#utility.yul\":8304:8328   */\n      tag_184\n      jump\t// in\n    tag_304:\n        /* \"#utility.yul\":8297:8302   */\n      dup2\n        /* \"#utility.yul\":8294:8329   */\n      eq\n        /* \"#utility.yul\":8284:8347   */\n      tag_305\n      jumpi\n        /* \"#utility.yul\":8343:8344   */\n      0x00\n        /* \"#utility.yul\":8340:8341   */\n      dup1\n        /* \"#utility.yul\":8333:8345   */\n      revert\n        /* \"#utility.yul\":8284:8347   */\n    tag_305:\n        /* \"#utility.yul\":8231:8353   */\n      pop\n      jump\t// out\n        /* \"#utility.yul\":8359:8502   */\n    tag_186:\n        /* \"#utility.yul\":8416:8421   */\n      0x00\n        /* \"#utility.yul\":8447:8453   */\n      dup2\n        /* \"#utility.yul\":8441:8454   */\n      mload\n        /* \"#utility.yul\":8432:8454   */\n      swap1\n      pop\n        /* \"#utility.yul\":8463:8496   */\n      tag_307\n        /* \"#utility.yul\":8490:8495   */\n      dup2\n        /* \"#utility.yul\":8463:8496   */\n      tag_185\n      jump\t// in\n    tag_307:\n        /* \"#utility.yul\":8359:8502   */\n      swap3\n      swap2\n      pop\n      pop\n      jump\t// out\n        /* \"#utility.yul\":8508:8859   */\n    tag_90:\n        /* \"#utility.yul\":8578:8584   */\n      0x00\n        /* \"#utility.yul\":8627:8629   */\n      0x20\n        /* \"#utility.yul\":8615:8624   */\n      dup3\n        /* \"#utility.yul\":8606:8613   */\n      dup5\n        /* \"#utility.yul\":8602:8625   */\n      sub\n        /* \"#utility.yul\":8598:8630   */\n      slt\n        /* \"#utility.yul\":8595:8714   */\n      iszero\n      tag_309\n      jumpi\n        /* \"#utility.yul\":8633:8712   */\n      tag_310\n      tag_162\n      jump\t// in\n    tag_310:\n        /* \"#utility.yul\":8595:8714   */\n    tag_309:\n        /* \"#utility.yul\":8753:8754   */\n      0x00\n        /* \"#utility.yul\":8778:8842   */\n      tag_311\n        /* \"#utility.yul\":8834:8841   */\n      dup5\n        /* \"#utility.yul\":8825:8831   */\n      dup3\n        /* \"#utility.yul\":8814:8823   */\n      dup6\n        /* \"#utility.yul\":8810:8832   */\n      add\n        /* \"#utility.yul\":8778:8842   */\n      tag_186\n      jump\t// in\n    tag_311:\n        /* \"#utility.yul\":8768:8842   */\n      swap2\n      pop\n        /* \"#utility.yul\":8724:8852   */\n      pop\n        /* \"#utility.yul\":8508:8859   */\n      swap3\n      swap2\n      pop\n      pop\n      jump\t// out\n        /* \"#utility.yul\":8865:8944   */\n    tag_187:\n        /* \"#utility.yul\":8904:8911   */\n      0x00\n        /* \"#utility.yul\":8933:8938   */\n      dup2\n        /* \"#utility.yul\":8922:8938   */\n      swap1\n      pop\n        /* \"#utility.yul\":8865:8944   */\n      swap2\n      swap1\n      pop\n      jump\t// out\n        /* \"#utility.yul\":8950:9107   */\n    tag_188:\n        /* \"#utility.yul\":9055:9100   */\n      tag_314\n        /* \"#utility.yul\":9075:9099   */\n      tag_315\n        /* \"#utility.yul\":9093:9098   */\n      dup3\n        /* \"#utility.yul\":9075:9099   */\n      tag_164\n      jump\t// in\n    tag_315:\n        /* \"#utility.yul\":9055:9100   */\n      tag_187\n      jump\t// in\n    tag_314:\n        /* \"#utility.yul\":9050:9053   */\n      dup3\n        /* \"#utility.yul\":9043:9101   */\n      mstore\n        /* \"#utility.yul\":8950:9107   */\n      pop\n      pop\n      jump\t// out\n        /* \"#utility.yul\":9113:9192   */\n    tag_189:\n        /* \"#utility.yul\":9152:9159   */\n      0x00\n        /* \"#utility.yul\":9181:9186   */\n      dup2\n        /* \"#utility.yul\":9170:9186   */\n      swap1\n      pop\n        /* \"#utility.yul\":9113:9192   */\n      swap2\n      swap1\n      pop\n      jump\t// out\n        /* \"#utility.yul\":9198:9355   */\n    tag_190:\n        /* \"#utility.yul\":9303:9348   */\n      tag_318\n        /* \"#utility.yul\":9323:9347   */\n      tag_319\n        /* \"#utility.yul\":9341:9346   */\n      dup3\n        /* \"#utility.yul\":9323:9347   */\n      tag_167\n      jump\t// in\n    tag_319:\n        /* \"#utility.yul\":9303:9348   */\n      tag_189\n      jump\t// in\n    tag_318:\n        /* \"#utility.yul\":9298:9301   */\n      dup3\n        /* \"#utility.yul\":9291:9349   */\n      mstore\n        /* \"#utility.yul\":9198:9355   */\n      pop\n      pop\n      jump\t// out\n        /* \"#utility.yul\":9361:9758   */\n    tag_96:\n        /* \"#utility.yul\":9501:9504   */\n      0x00\n        /* \"#utility.yul\":9516:9591   */\n      tag_321\n        /* \"#utility.yul\":9587:9590   */\n      dup3\n        /* \"#utility.yul\":9578:9584   */\n      dup6\n        /* \"#utility.yul\":9516:9591   */\n      tag_188\n      jump\t// in\n    tag_321:\n        /* \"#utility.yul\":9616:9618   */\n      0x20\n        /* \"#utility.yul\":9611:9614   */\n      dup3\n        /* \"#utility.yul\":9607:9619   */\n      add\n        /* \"#utility.yul\":9600:9619   */\n      swap2\n      pop\n        /* \"#utility.yul\":9629:9704   */\n      tag_322\n        /* \"#utility.yul\":9700:9703   */\n      dup3\n        /* \"#utility.yul\":9691:9697   */\n      dup5\n        /* \"#utility.yul\":9629:9704   */\n      tag_190\n      jump\t// in\n    tag_322:\n        /* \"#utility.yul\":9729:9731   */\n      0x20\n        /* \"#utility.yul\":9724:9727   */\n      dup3\n        /* \"#utility.yul\":9720:9732   */\n      add\n        /* \"#utility.yul\":9713:9732   */\n      swap2\n      pop\n        /* \"#utility.yul\":9749:9752   */\n      dup2\n        /* \"#utility.yul\":9742:9752   */\n      swap1\n      pop\n        /* \"#utility.yul\":9361:9758   */\n      swap4\n      swap3\n      pop\n      pop\n      pop\n      jump\t// out\n        /* \"#utility.yul\":9764:9882   */\n    tag_191:\n        /* \"#utility.yul\":9851:9875   */\n      tag_324\n        /* \"#utility.yul\":9869:9874   */\n      dup2\n        /* \"#utility.yul\":9851:9875   */\n      tag_164\n      jump\t// in\n    tag_324:\n        /* \"#utility.yul\":9846:9849   */\n      dup3\n        /* \"#utility.yul\":9839:9876   */\n      mstore\n        /* \"#utility.yul\":9764:9882   */\n      pop\n      pop\n      jump\t// out\n        /* \"#utility.yul\":9888:10110   */\n    tag_98:\n        /* \"#utility.yul\":9981:9985   */\n      0x00\n        /* \"#utility.yul\":10019:10021   */\n      0x20\n        /* \"#utility.yul\":10008:10017   */\n      dup3\n        /* \"#utility.yul\":10004:10022   */\n      add\n        /* \"#utility.yul\":9996:10022   */\n      swap1\n      pop\n        /* \"#utility.yul\":10032:10103   */\n      tag_326\n        /* \"#utility.yul\":10100:10101   */\n      0x00\n        /* \"#utility.yul\":10089:10098   */\n      dup4\n        /* \"#utility.yul\":10085:10102   */\n      add\n        /* \"#utility.yul\":10076:10082   */\n      dup5\n        /* \"#utility.yul\":10032:10103   */\n      tag_191\n      jump\t// in\n    tag_326:\n        /* \"#utility.yul\":9888:10110   */\n      swap3\n      swap2\n      pop\n      pop\n      jump\t// out\n        /* \"#utility.yul\":10116:10233   */\n    tag_192:\n        /* \"#utility.yul\":10225:10226   */\n      0x00\n        /* \"#utility.yul\":10222:10223   */\n      dup1\n        /* \"#utility.yul\":10215:10227   */\n      revert\n        /* \"#utility.yul\":10239:10419   */\n    tag_193:\n        /* \"#utility.yul\":10287:10364   */\n      0x4e487b7100000000000000000000000000000000000000000000000000000000\n        /* \"#utility.yul\":10284:10285   */\n      0x00\n        /* \"#utility.yul\":10277:10365   */\n      mstore\n        /* \"#utility.yul\":10384:10388   */\n      0x41\n        /* \"#utility.yul\":10381:10382   */\n      0x04\n        /* \"#utility.yul\":10374:10389   */\n      mstore\n        /* \"#utility.yul\":10408:10412   */\n      0x24\n        /* \"#utility.yul\":10405:10406   */\n      0x00\n        /* \"#utility.yul\":10398:10413   */\n      revert\n        /* \"#utility.yul\":10425:10706   */\n    tag_194:\n        /* \"#utility.yul\":10508:10535   */\n      tag_330\n        /* \"#utility.yul\":10530:10534   */\n      dup3\n        /* \"#utility.yul\":10508:10535   */\n      tag_176\n      jump\t// in\n    tag_330:\n        /* \"#utility.yul\":10500:10506   */\n      dup2\n        /* \"#utility.yul\":10496:10536   */\n      add\n        /* \"#utility.yul\":10638:10644   */\n      dup2\n        /* \"#utility.yul\":10626:10636   */\n      dup2\n        /* \"#utility.yul\":10623:10645   */\n      lt\n        /* \"#utility.yul\":10602:10620   */\n      0xffffffffffffffff\n        /* \"#utility.yul\":10590:10600   */\n      dup3\n        /* \"#utility.yul\":10587:10621   */\n      gt\n        /* \"#utility.yul\":10584:10646   */\n      or\n        /* \"#utility.yul\":10581:10669   */\n      iszero\n      tag_331\n      jumpi\n        /* \"#utility.yul\":10649:10667   */\n      tag_332\n      tag_193\n      jump\t// in\n    tag_332:\n        /* \"#utility.yul\":10581:10669   */\n    tag_331:\n        /* \"#utility.yul\":10689:10699   */\n      dup1\n        /* \"#utility.yul\":10685:10687   */\n      0x40\n        /* \"#utility.yul\":10678:10700   */\n      mstore\n        /* \"#utility.yul\":10468:10706   */\n      pop\n        /* \"#utility.yul\":10425:10706   */\n      pop\n      pop\n      jump\t// out\n        /* \"#utility.yul\":10712:10841   */\n    tag_195:\n        /* \"#utility.yul\":10746:10752   */\n      0x00\n        /* \"#utility.yul\":10773:10793   */\n      tag_334\n      tag_161\n      jump\t// in\n    tag_334:\n        /* \"#utility.yul\":10763:10793   */\n      swap1\n      pop\n        /* \"#utility.yul\":10802:10835   */\n      tag_335\n        /* \"#utility.yul\":10830:10834   */\n      dup3\n        /* \"#utility.yul\":10822:10828   */\n      dup3\n        /* \"#utility.yul\":10802:10835   */\n      tag_194\n      jump\t// in\n    tag_335:\n        /* \"#utility.yul\":10712:10841   */\n      swap2\n      swap1\n      pop\n      jump\t// out\n        /* \"#utility.yul\":10847:11158   */\n    tag_196:\n        /* \"#utility.yul\":10924:10928   */\n      0x00\n        /* \"#utility.yul\":11014:11032   */\n      0xffffffffffffffff\n        /* \"#utility.yul\":11006:11012   */\n      dup3\n        /* \"#utility.yul\":11003:11033   */\n      gt\n        /* \"#utility.yul\":11000:11056   */\n      iszero\n      tag_337\n      jumpi\n        /* \"#utility.yul\":11036:11054   */\n      tag_338\n      tag_193\n      jump\t// in\n    tag_338:\n        /* \"#utility.yul\":11000:11056   */\n    tag_337:\n        /* \"#utility.yul\":11086:11090   */\n      0x20\n        /* \"#utility.yul\":11078:11084   */\n      dup3\n        /* \"#utility.yul\":11074:11091   */\n      mul\n        /* \"#utility.yul\":11066:11091   */\n      swap1\n      pop\n        /* \"#utility.yul\":11146:11150   */\n      0x20\n        /* \"#utility.yul\":11140:11144   */\n      dup2\n        /* \"#utility.yul\":11136:11151   */\n      add\n        /* \"#utility.yul\":11128:11151   */\n      swap1\n      pop\n        /* \"#utility.yul\":10847:11158   */\n      swap2\n      swap1\n      pop\n      jump\t// out\n        /* \"#utility.yul\":11164:11281   */\n    tag_197:\n        /* \"#utility.yul\":11273:11274   */\n      0x00\n        /* \"#utility.yul\":11270:11271   */\n      dup1\n        /* \"#utility.yul\":11263:11275   */\n      revert\n        /* \"#utility.yul\":11287:11430   */\n    tag_198:\n        /* \"#utility.yul\":11344:11349   */\n      0x00\n        /* \"#utility.yul\":11375:11381   */\n      dup2\n        /* \"#utility.yul\":11369:11382   */\n      mload\n        /* \"#utility.yul\":11360:11382   */\n      swap1\n      pop\n        /* \"#utility.yul\":11391:11424   */\n      tag_341\n        /* \"#utility.yul\":11418:11423   */\n      dup2\n        /* \"#utility.yul\":11391:11424   */\n      tag_168\n      jump\t// in\n    tag_341:\n        /* \"#utility.yul\":11287:11430   */\n      swap3\n      swap2\n      pop\n      pop\n      jump\t// out\n        /* \"#utility.yul\":11453:12185   */\n    tag_199:\n        /* \"#utility.yul\":11560:11565   */\n      0x00\n        /* \"#utility.yul\":11585:11666   */\n      tag_343\n        /* \"#utility.yul\":11601:11665   */\n      tag_344\n        /* \"#utility.yul\":11658:11664   */\n      dup5\n        /* \"#utility.yul\":11601:11665   */\n      tag_196\n      jump\t// in\n    tag_344:\n        /* \"#utility.yul\":11585:11666   */\n      tag_195\n      jump\t// in\n    tag_343:\n        /* \"#utility.yul\":11576:11666   */\n      swap1\n      pop\n        /* \"#utility.yul\":11686:11691   */\n      dup1\n        /* \"#utility.yul\":11715:11721   */\n      dup4\n        /* \"#utility.yul\":11708:11713   */\n      dup3\n        /* \"#utility.yul\":11701:11722   */\n      mstore\n        /* \"#utility.yul\":11749:11753   */\n      0x20\n        /* \"#utility.yul\":11742:11747   */\n      dup3\n        /* \"#utility.yul\":11738:11754   */\n      add\n        /* \"#utility.yul\":11731:11754   */\n      swap1\n      pop\n        /* \"#utility.yul\":11802:11806   */\n      0x20\n        /* \"#utility.yul\":11794:11800   */\n      dup5\n        /* \"#utility.yul\":11790:11807   */\n      mul\n        /* \"#utility.yul\":11782:11788   */\n      dup4\n        /* \"#utility.yul\":11778:11808   */\n      add\n        /* \"#utility.yul\":11831:11834   */\n      dup6\n        /* \"#utility.yul\":11823:11829   */\n      dup2\n        /* \"#utility.yul\":11820:11835   */\n      gt\n        /* \"#utility.yul\":11817:11939   */\n      iszero\n      tag_345\n      jumpi\n        /* \"#utility.yul\":11850:11929   */\n      tag_346\n      tag_197\n      jump\t// in\n    tag_346:\n        /* \"#utility.yul\":11817:11939   */\n    tag_345:\n        /* \"#utility.yul\":11965:11971   */\n      dup4\n        /* \"#utility.yul\":11948:12179   */\n    tag_347:\n        /* \"#utility.yul\":11982:11988   */\n      dup2\n        /* \"#utility.yul\":11977:11980   */\n      dup2\n        /* \"#utility.yul\":11974:11989   */\n      lt\n        /* \"#utility.yul\":11948:12179   */\n      iszero\n      tag_349\n      jumpi\n        /* \"#utility.yul\":12057:12060   */\n      dup1\n        /* \"#utility.yul\":12086:12134   */\n      tag_350\n        /* \"#utility.yul\":12130:12133   */\n      dup9\n        /* \"#utility.yul\":12118:12128   */\n      dup3\n        /* \"#utility.yul\":12086:12134   */\n      tag_198\n      jump\t// in\n    tag_350:\n        /* \"#utility.yul\":12081:12084   */\n      dup5\n        /* \"#utility.yul\":12074:12135   */\n      mstore\n        /* \"#utility.yul\":12164:12168   */\n      0x20\n        /* \"#utility.yul\":12159:12162   */\n      dup5\n        /* \"#utility.yul\":12155:12169   */\n      add\n        /* \"#utility.yul\":12148:12169   */\n      swap4\n      pop\n        /* \"#utility.yul\":12024:12179   */\n      pop\n        /* \"#utility.yul\":12008:12012   */\n      0x20\n        /* \"#utility.yul\":12003:12006   */\n      dup2\n        /* \"#utility.yul\":11999:12013   */\n      add\n        /* \"#utility.yul\":11992:12013   */\n      swap1\n      pop\n        /* \"#utility.yul\":11948:12179   */\n      jump(tag_347)\n    tag_349:\n        /* \"#utility.yul\":11952:11973   */\n      pop\n        /* \"#utility.yul\":11566:12185   */\n      pop\n      pop\n        /* \"#utility.yul\":11453:12185   */\n      swap4\n      swap3\n      pop\n      pop\n      pop\n      jump\t// out\n        /* \"#utility.yul\":12208:12593   */\n    tag_200:\n        /* \"#utility.yul\":12290:12295   */\n      0x00\n        /* \"#utility.yul\":12339:12342   */\n      dup3\n        /* \"#utility.yul\":12332:12336   */\n      0x1f\n        /* \"#utility.yul\":12324:12330   */\n      dup4\n        /* \"#utility.yul\":12320:12337   */\n      add\n        /* \"#utility.yul\":12316:12343   */\n      slt\n        /* \"#utility.yul\":12306:12428   */\n      tag_352\n      jumpi\n        /* \"#utility.yul\":12347:12426   */\n      tag_353\n      tag_192\n      jump\t// in\n    tag_353:\n        /* \"#utility.yul\":12306:12428   */\n    tag_352:\n        /* \"#utility.yul\":12457:12463   */\n      dup2\n        /* \"#utility.yul\":12451:12464   */\n      mload\n        /* \"#utility.yul\":12482:12587   */\n      tag_354\n        /* \"#utility.yul\":12583:12586   */\n      dup5\n        /* \"#utility.yul\":12575:12581   */\n      dup3\n        /* \"#utility.yul\":12568:12572   */\n      0x20\n        /* \"#utility.yul\":12560:12566   */\n      dup7\n        /* \"#utility.yul\":12556:12573   */\n      add\n        /* \"#utility.yul\":12482:12587   */\n      tag_199\n      jump\t// in\n    tag_354:\n        /* \"#utility.yul\":12473:12587   */\n      swap2\n      pop\n        /* \"#utility.yul\":12296:12593   */\n      pop\n        /* \"#utility.yul\":12208:12593   */\n      swap3\n      swap2\n      pop\n      pop\n      jump\t// out\n        /* \"#utility.yul\":12599:13153   */\n    tag_102:\n        /* \"#utility.yul\":12694:12700   */\n      0x00\n        /* \"#utility.yul\":12743:12745   */\n      0x20\n        /* \"#utility.yul\":12731:12740   */\n      dup3\n        /* \"#utility.yul\":12722:12729   */\n      dup5\n        /* \"#utility.yul\":12718:12741   */\n      sub\n        /* \"#utility.yul\":12714:12746   */\n      slt\n        /* \"#utility.yul\":12711:12830   */\n      iszero\n      tag_356\n      jumpi\n        /* \"#utility.yul\":12749:12828   */\n      tag_357\n      tag_162\n      jump\t// in\n    tag_357:\n        /* \"#utility.yul\":12711:12830   */\n    tag_356:\n        /* \"#utility.yul\":12890:12891   */\n      0x00\n        /* \"#utility.yul\":12879:12888   */\n      dup3\n        /* \"#utility.yul\":12875:12892   */\n      add\n        /* \"#utility.yul\":12869:12893   */\n      mload\n        /* \"#utility.yul\":12920:12938   */\n      0xffffffffffffffff\n        /* \"#utility.yul\":12912:12918   */\n      dup2\n        /* \"#utility.yul\":12909:12939   */\n      gt\n        /* \"#utility.yul\":12906:13023   */\n      iszero\n      tag_358\n      jumpi\n        /* \"#utility.yul\":12942:13021   */\n      tag_359\n      tag_163\n      jump\t// in\n    tag_359:\n        /* \"#utility.yul\":12906:13023   */\n    tag_358:\n        /* \"#utility.yul\":13047:13136   */\n      tag_360\n        /* \"#utility.yul\":13128:13135   */\n      dup5\n        /* \"#utility.yul\":13119:13125   */\n      dup3\n        /* \"#utility.yul\":13108:13117   */\n      dup6\n        /* \"#utility.yul\":13104:13126   */\n      add\n        /* \"#utility.yul\":13047:13136   */\n      tag_200\n      jump\t// in\n    tag_360:\n        /* \"#utility.yul\":13037:13136   */\n      swap2\n      pop\n        /* \"#utility.yul\":12840:13146   */\n      pop\n        /* \"#utility.yul\":12599:13153   */\n      swap3\n      swap2\n      pop\n      pop\n      jump\t// out\n        /* \"#utility.yul\":13159:13510   */\n    tag_110:\n        /* \"#utility.yul\":13229:13235   */\n      0x00\n        /* \"#utility.yul\":13278:13280   */\n      0x20\n        /* \"#utility.yul\":13266:13275   */\n      dup3\n        /* \"#utility.yul\":13257:13264   */\n      dup5\n        /* \"#utility.yul\":13253:13276   */\n      sub\n        /* \"#utility.yul\":13249:13281   */\n      slt\n        /* \"#utility.yul\":13246:13365   */\n      iszero\n      tag_362\n      jumpi\n        /* \"#utility.yul\":13284:13363   */\n      tag_363\n      tag_162\n      jump\t// in\n    tag_363:\n        /* \"#utility.yul\":13246:13365   */\n    tag_362:\n        /* \"#utility.yul\":13404:13405   */\n      0x00\n        /* \"#utility.yul\":13429:13493   */\n      tag_364\n        /* \"#utility.yul\":13485:13492   */\n      dup5\n        /* \"#utility.yul\":13476:13482   */\n      dup3\n        /* \"#utility.yul\":13465:13474   */\n      dup6\n        /* \"#utility.yul\":13461:13483   */\n      add\n        /* \"#utility.yul\":13429:13493   */\n      tag_198\n      jump\t// in\n    tag_364:\n        /* \"#utility.yul\":13419:13493   */\n      swap2\n      pop\n        /* \"#utility.yul\":13375:13503   */\n      pop\n        /* \"#utility.yul\":13159:13510   */\n      swap3\n      swap2\n      pop\n      pop\n      jump\t// out\n        /* \"#utility.yul\":13516:13848   */\n    tag_133:\n        /* \"#utility.yul\":13637:13641   */\n      0x00\n        /* \"#utility.yul\":13675:13677   */\n      0x40\n        /* \"#utility.yul\":13664:13673   */\n      dup3\n        /* \"#utility.yul\":13660:13678   */\n      add\n        /* \"#utility.yul\":13652:13678   */\n      swap1\n      pop\n        /* \"#utility.yul\":13688:13759   */\n      tag_366\n        /* \"#utility.yul\":13756:13757   */\n      0x00\n        /* \"#utility.yul\":13745:13754   */\n      dup4\n        /* \"#utility.yul\":13741:13758   */\n      add\n        /* \"#utility.yul\":13732:13738   */\n      dup6\n        /* \"#utility.yul\":13688:13759   */\n      tag_191\n      jump\t// in\n    tag_366:\n        /* \"#utility.yul\":13769:13841   */\n      tag_367\n        /* \"#utility.yul\":13837:13839   */\n      0x20\n        /* \"#utility.yul\":13826:13835   */\n      dup4\n        /* \"#utility.yul\":13822:13840   */\n      add\n        /* \"#utility.yul\":13813:13819   */\n      dup5\n        /* \"#utility.yul\":13769:13841   */\n      tag_172\n      jump\t// in\n    tag_367:\n        /* \"#utility.yul\":13516:13848   */\n      swap4\n      swap3\n      pop\n      pop\n      pop\n      jump\t// out\n        /* \"#utility.yul\":13854:13971   */\n    tag_201:\n        /* \"#utility.yul\":13963:13964   */\n      0x00\n        /* \"#utility.yul\":13960:13961   */\n      dup1\n        /* \"#utility.yul\":13953:13965   */\n      revert\n        /* \"#utility.yul\":13977:14284   */\n    tag_202:\n        /* \"#utility.yul\":14038:14042   */\n      0x00\n        /* \"#utility.yul\":14128:14146   */\n      0xffffffffffffffff\n        /* \"#utility.yul\":14120:14126   */\n      dup3\n        /* \"#utility.yul\":14117:14147   */\n      gt\n        /* \"#utility.yul\":14114:14170   */\n      iszero\n      tag_370\n      jumpi\n        /* \"#utility.yul\":14150:14168   */\n      tag_371\n      tag_193\n      jump\t// in\n    tag_371:\n        /* \"#utility.yul\":14114:14170   */\n    tag_370:\n        /* \"#utility.yul\":14188:14217   */\n      tag_372\n        /* \"#utility.yul\":14210:14216   */\n      dup3\n        /* \"#utility.yul\":14188:14217   */\n      tag_176\n      jump\t// in\n    tag_372:\n        /* \"#utility.yul\":14180:14217   */\n      swap1\n      pop\n        /* \"#utility.yul\":14272:14276   */\n      0x20\n        /* \"#utility.yul\":14266:14270   */\n      dup2\n        /* \"#utility.yul\":14262:14277   */\n      add\n        /* \"#utility.yul\":14254:14277   */\n      swap1\n      pop\n        /* \"#utility.yul\":13977:14284   */\n      swap2\n      swap1\n      pop\n      jump\t// out\n        /* \"#utility.yul\":14290:14722   */\n    tag_203:\n        /* \"#utility.yul\":14378:14383   */\n      0x00\n        /* \"#utility.yul\":14403:14468   */\n      tag_374\n        /* \"#utility.yul\":14419:14467   */\n      tag_375\n        /* \"#utility.yul\":14460:14466   */\n      dup5\n        /* \"#utility.yul\":14419:14467   */\n      tag_202\n      jump\t// in\n    tag_375:\n        /* \"#utility.yul\":14403:14468   */\n      tag_195\n      jump\t// in\n    tag_374:\n        /* \"#utility.yul\":14394:14468   */\n      swap1\n      pop\n        /* \"#utility.yul\":14491:14497   */\n      dup3\n        /* \"#utility.yul\":14484:14489   */\n      dup2\n        /* \"#utility.yul\":14477:14498   */\n      mstore\n        /* \"#utility.yul\":14529:14533   */\n      0x20\n        /* \"#utility.yul\":14522:14527   */\n      dup2\n        /* \"#utility.yul\":14518:14534   */\n      add\n        /* \"#utility.yul\":14567:14570   */\n      dup5\n        /* \"#utility.yul\":14558:14564   */\n      dup5\n        /* \"#utility.yul\":14553:14556   */\n      dup5\n        /* \"#utility.yul\":14549:14565   */\n      add\n        /* \"#utility.yul\":14546:14571   */\n      gt\n        /* \"#utility.yul\":14543:14655   */\n      iszero\n      tag_376\n      jumpi\n        /* \"#utility.yul\":14574:14653   */\n      tag_377\n      tag_201\n      jump\t// in\n    tag_377:\n        /* \"#utility.yul\":14543:14655   */\n    tag_376:\n        /* \"#utility.yul\":14664:14716   */\n      tag_378\n        /* \"#utility.yul\":14709:14715   */\n      dup5\n        /* \"#utility.yul\":14704:14707   */\n      dup3\n        /* \"#utility.yul\":14699:14702   */\n      dup6\n        /* \"#utility.yul\":14664:14716   */\n      tag_175\n      jump\t// in\n    tag_378:\n        /* \"#utility.yul\":14384:14722   */\n      pop\n        /* \"#utility.yul\":14290:14722   */\n      swap4\n      swap3\n      pop\n      pop\n      pop\n      jump\t// out\n        /* \"#utility.yul\":14741:15094   */\n    tag_204:\n        /* \"#utility.yul\":14807:14812   */\n      0x00\n        /* \"#utility.yul\":14856:14859   */\n      dup3\n        /* \"#utility.yul\":14849:14853   */\n      0x1f\n        /* \"#utility.yul\":14841:14847   */\n      dup4\n        /* \"#utility.yul\":14837:14854   */\n      add\n        /* \"#utility.yul\":14833:14860   */\n      slt\n        /* \"#utility.yul\":14823:14945   */\n      tag_380\n      jumpi\n        /* \"#utility.yul\":14864:14943   */\n      tag_381\n      tag_192\n      jump\t// in\n    tag_381:\n        /* \"#utility.yul\":14823:14945   */\n    tag_380:\n        /* \"#utility.yul\":14974:14980   */\n      dup2\n        /* \"#utility.yul\":14968:14981   */\n      mload\n        /* \"#utility.yul\":14999:15088   */\n      tag_382\n        /* \"#utility.yul\":15084:15087   */\n      dup5\n        /* \"#utility.yul\":15076:15082   */\n      dup3\n        /* \"#utility.yul\":15069:15073   */\n      0x20\n        /* \"#utility.yul\":15061:15067   */\n      dup7\n        /* \"#utility.yul\":15057:15074   */\n      add\n        /* \"#utility.yul\":14999:15088   */\n      tag_203\n      jump\t// in\n    tag_382:\n        /* \"#utility.yul\":14990:15088   */\n      swap2\n      pop\n        /* \"#utility.yul\":14813:15094   */\n      pop\n        /* \"#utility.yul\":14741:15094   */\n      swap3\n      swap2\n      pop\n      pop\n      jump\t// out\n        /* \"#utility.yul\":15100:15622   */\n    tag_137:\n        /* \"#utility.yul\":15179:15185   */\n      0x00\n        /* \"#utility.yul\":15228:15230   */\n      0x20\n        /* \"#utility.yul\":15216:15225   */\n      dup3\n        /* \"#utility.yul\":15207:15214   */\n      dup5\n        /* \"#utility.yul\":15203:15226   */\n      sub\n        /* \"#utility.yul\":15199:15231   */\n      slt\n        /* \"#utility.yul\":15196:15315   */\n      iszero\n      tag_384\n      jumpi\n        /* \"#utility.yul\":15234:15313   */\n      tag_385\n      tag_162\n      jump\t// in\n    tag_385:\n        /* \"#utility.yul\":15196:15315   */\n    tag_384:\n        /* \"#utility.yul\":15375:15376   */\n      0x00\n        /* \"#utility.yul\":15364:15373   */\n      dup3\n        /* \"#utility.yul\":15360:15377   */\n      add\n        /* \"#utility.yul\":15354:15378   */\n      mload\n        /* \"#utility.yul\":15405:15423   */\n      0xffffffffffffffff\n        /* \"#utility.yul\":15397:15403   */\n      dup2\n        /* \"#utility.yul\":15394:15424   */\n      gt\n        /* \"#utility.yul\":15391:15508   */\n      iszero\n      tag_386\n      jumpi\n        /* \"#utility.yul\":15427:15506   */\n      tag_387\n      tag_163\n      jump\t// in\n    tag_387:\n        /* \"#utility.yul\":15391:15508   */\n    tag_386:\n        /* \"#utility.yul\":15532:15605   */\n      tag_388\n        /* \"#utility.yul\":15597:15604   */\n      dup5\n        /* \"#utility.yul\":15588:15594   */\n      dup3\n        /* \"#utility.yul\":15577:15586   */\n      dup6\n        /* \"#utility.yul\":15573:15595   */\n      add\n        /* \"#utility.yul\":15532:15605   */\n      tag_204\n      jump\t// in\n    tag_388:\n        /* \"#utility.yul\":15522:15605   */\n      swap2\n      pop\n        /* \"#utility.yul\":15325:15615   */\n      pop\n        /* \"#utility.yul\":15100:15622   */\n      swap3\n      swap2\n      pop\n      pop\n      jump\t// out\n\n    auxdata: 0xa2646970667358221220935a276e008a0cf58288cb04ad1033a02a77c2b86a5dbbdf044bca8e977eb98964736f6c63430008110033\n}\n",
				"bytecode": {
					"linkReferences": {},
					"object": "60806040523480156200001157600080fd5b50604051620017e0380380620017e08339818101604052810190620000379190620000e8565b806000806101000a81548173ffffffffffffffffffffffffffffffffffffffff021916908373ffffffffffffffffffffffffffffffffffffffff160217905550506200011a565b600080fd5b600073ffffffffffffffffffffffffffffffffffffffff82169050919050565b6000620000b08262000083565b9050919050565b620000c281620000a3565b8114620000ce57600080fd5b50565b600081519050620000e281620000b7565b92915050565b6000602082840312156200010157620001006200007e565b5b60006200011184828501620000d1565b91505092915050565b6116b6806200012a6000396000f3fe608060405234801561001057600080fd5b50600436106100885760003560e01c8063a792765f1161005b578063a792765f1461013c578063adf1639d1461016e578063c5958af9146101a0578063ce5e11bf146101d057610088565b80631959ad5b1461008d57806329449085146100ab57806344e87f91146100dc57806377b03e0d1461010c575b600080fd5b610095610200565b6040516100a29190610eb7565b60405180910390f35b6100c560048036038101906100c09190610f52565b610224565b6040516100d3929190610fbc565b60405180910390f35b6100f660048036038101906100f19190610f52565b61039f565b6040516101039190610fe5565b60405180910390f35b61012660048036038101906101219190611000565b610675565b604051610133919061102d565b60405180910390f35b61015660048036038101906101519190610f52565b61088c565b604051610165939291906110d8565b60405180910390f35b61018860048036038101906101839190611000565b61093e565b604051610197939291906110d8565b60405180910390f35b6101ba60048036038101906101b59190610f52565b6109f6565b6040516101c79190611116565b60405180910390f35b6101ea60048036038101906101e59190610f52565b610c1c565b6040516101f7919061102d565b60405180910390f35b60008054906101000a900473ffffffffffffffffffffffffffffffffffffffff1681565b600080600061023285610675565b9050600081111561038f576000806000905060006001846102539190611167565b905060006102618984610c1c565b905087811061027b57600080965096505050505050610398565b6102858983610c1c565b9050878110156102a057600182965096505050505050610398565b5b60011561038a57826001600285856102b99190611167565b6102c391906111ca565b6102cd91906111fb565b6102d791906111fb565b93506102e38985610c1c565b9050878110156103355760006103058a60018761030091906111fb565b610c1c565b90508881106103205760018597509750505050505050610398565b60018561032d91906111fb565b935050610385565b600061034d8a6001876103489190611167565b610c1c565b90508881101561037457600180866103659190611167565b97509750505050505050610398565b6001856103819190611167565b9250505b6102a1565b505050505b60008092509250505b9250929050565b6000807318431fd88adf138e8b979a7246eb58ea7126ea1673ffffffffffffffffffffffffffffffffffffffff1660008054906101000a900473ffffffffffffffffffffffffffffffffffffffff1673ffffffffffffffffffffffffffffffffffffffff16148061046f575073e8218cacb0a5421bc6409e498d9f8cc8869945ea73ffffffffffffffffffffffffffffffffffffffff1660008054906101000a900473ffffffffffffffffffffffffffffffffffffffff1673ffffffffffffffffffffffffffffffffffffffff16145b1561052f5760007388df592f8eb5d7bd38bfef7deb0fbc02cf3778a090508073ffffffffffffffffffffffffffffffffffffffff1663699f200f7fefa19baa864049f50491093580c5433e97e8d5e41f8db1a61108b4fa44cacd936040518263ffffffff1660e01b81526004016104e69190611277565b602060405180830381865afa158015610503573d6000803e3d6000fd5b505050506040513d601f19601f8201168201806040525081019061052791906112d0565b9150506105c1565b60008054906101000a900473ffffffffffffffffffffffffffffffffffffffff1673ffffffffffffffffffffffffffffffffffffffff16635aa6e6756040518163ffffffff1660e01b8152600401602060405180830381865afa15801561059a573d6000803e3d6000fd5b505050506040513d601f19601f820116820180604052508101906105be91906112d0565b90505b60008173ffffffffffffffffffffffffffffffffffffffff1663248638e586866040516020016105f292919061133f565b604051602081830303815290604052805190602001206040518263ffffffff1660e01b8152600401610624919061137a565b600060405180830381865afa158015610641573d6000803e3d6000fd5b505050506040513d6000823e3d601f19601f8201168201806040525081019061066a91906114f2565b511191505092915050565b60007318431fd88adf138e8b979a7246eb58ea7126ea1673ffffffffffffffffffffffffffffffffffffffff1660008054906101000a900473ffffffffffffffffffffffffffffffffffffffff1673ffffffffffffffffffffffffffffffffffffffff161480610744575073e8218cacb0a5421bc6409e498d9f8cc8869945ea73ffffffffffffffffffffffffffffffffffffffff1660008054906101000a900473ffffffffffffffffffffffffffffffffffffffff1673ffffffffffffffffffffffffffffffffffffffff16145b156107ea5760008054906101000a900473ffffffffffffffffffffffffffffffffffffffff1673ffffffffffffffffffffffffffffffffffffffff166335e72432836040518263ffffffff1660e01b81526004016107a2919061137a565b602060405180830381865afa1580156107bf573d6000803e3d6000fd5b505050506040513d601f19601f820116820180604052508101906107e3919061153b565b9050610887565b60008054906101000a900473ffffffffffffffffffffffffffffffffffffffff1673ffffffffffffffffffffffffffffffffffffffff166377b03e0d836040518263ffffffff1660e01b8152600401610843919061137a565b602060405180830381865afa158015610860573d6000803e3d6000fd5b505050506040513d601f19601f82011682018060405250810190610884919061153b565b90505b919050565b60006060600080600061089f8787610224565b91509150816108c95760006040518060200160405280600081525060009450945094505050610937565b60006108d58883610c1c565b90506108e188826109f6565b945060405180602001604052806000815250805190602001208580519060200120146109195760018582955095509550505050610937565b60006040518060200160405280600081525060009550955095505050505b9250925092565b6000606060008061094e85610675565b905060008103610978576000604051806020016040528060008152506000935093509350506109ef565b60006109908660018461098b9190611167565b610c1c565b905061099c86826109f6565b935060405180602001604052806000815250805190602001208480519060200120146109d3576001848294509450945050506109ef565b6000604051806020016040528060008152508294509450945050505b9193909250565b60607318431fd88adf138e8b979a7246eb58ea7126ea1673ffffffffffffffffffffffffffffffffffffffff1660008054906101000a900473ffffffffffffffffffffffffffffffffffffffff1673ffffffffffffffffffffffffffffffffffffffff161480610ac5575073e8218cacb0a5421bc6409e498d9f8cc8869945ea73ffffffffffffffffffffffffffffffffffffffff1660008054906101000a900473ffffffffffffffffffffffffffffffffffffffff1673ffffffffffffffffffffffffffffffffffffffff16145b15610b725760008054906101000a900473ffffffffffffffffffffffffffffffffffffffff1673ffffffffffffffffffffffffffffffffffffffff16630b2d2b0d84846040518363ffffffff1660e01b8152600401610b25929190611568565b600060405180830381865afa158015610b42573d6000803e3d6000fd5b505050506040513d6000823e3d601f19601f82011682018060405250810190610b6b9190611637565b9050610c16565b60008054906101000a900473ffffffffffffffffffffffffffffffffffffffff1673ffffffffffffffffffffffffffffffffffffffff1663c5958af984846040518363ffffffff1660e01b8152600401610bcd929190611568565b600060405180830381865afa158015610bea573d6000803e3d6000fd5b505050506040513d6000823e3d601f19601f82011682018060405250810190610c139190611637565b90505b92915050565b60007318431fd88adf138e8b979a7246eb58ea7126ea1673ffffffffffffffffffffffffffffffffffffffff1660008054906101000a900473ffffffffffffffffffffffffffffffffffffffff1673ffffffffffffffffffffffffffffffffffffffff161480610ceb575073e8218cacb0a5421bc6409e498d9f8cc8869945ea73ffffffffffffffffffffffffffffffffffffffff1660008054906101000a900473ffffffffffffffffffffffffffffffffffffffff1673ffffffffffffffffffffffffffffffffffffffff16145b15610d935760008054906101000a900473ffffffffffffffffffffffffffffffffffffffff1673ffffffffffffffffffffffffffffffffffffffff16637c37b8b484846040518363ffffffff1660e01b8152600401610d4b929190611568565b602060405180830381865afa158015610d68573d6000803e3d6000fd5b505050506040513d601f19601f82011682018060405250810190610d8c919061153b565b9050610e32565b60008054906101000a900473ffffffffffffffffffffffffffffffffffffffff1673ffffffffffffffffffffffffffffffffffffffff1663ce5e11bf84846040518363ffffffff1660e01b8152600401610dee929190611568565b602060405180830381865afa158015610e0b573d6000803e3d6000fd5b505050506040513d601f19601f82011682018060405250810190610e2f919061153b565b90505b92915050565b600073ffffffffffffffffffffffffffffffffffffffff82169050919050565b6000819050919050565b6000610e7d610e78610e7384610e38565b610e58565b610e38565b9050919050565b6000610e8f82610e62565b9050919050565b6000610ea182610e84565b9050919050565b610eb181610e96565b82525050565b6000602082019050610ecc6000830184610ea8565b92915050565b6000604051905090565b600080fd5b600080fd5b6000819050919050565b610ef981610ee6565b8114610f0457600080fd5b50565b600081359050610f1681610ef0565b92915050565b6000819050919050565b610f2f81610f1c565b8114610f3a57600080fd5b50565b600081359050610f4c81610f26565b92915050565b60008060408385031215610f6957610f68610edc565b5b6000610f7785828601610f07565b9250506020610f8885828601610f3d565b9150509250929050565b60008115159050919050565b610fa781610f92565b82525050565b610fb681610f1c565b82525050565b6000604082019050610fd16000830185610f9e565b610fde6020830184610fad565b9392505050565b6000602082019050610ffa6000830184610f9e565b92915050565b60006020828403121561101657611015610edc565b5b600061102484828501610f07565b91505092915050565b60006020820190506110426000830184610fad565b92915050565b600081519050919050565b600082825260208201905092915050565b60005b83811015611082578082015181840152602081019050611067565b60008484015250505050565b6000601f19601f8301169050919050565b60006110aa82611048565b6110b48185611053565b93506110c4818560208601611064565b6110cd8161108e565b840191505092915050565b60006060820190506110ed6000830186610f9e565b81810360208301526110ff818561109f565b905061110e6040830184610fad565b949350505050565b60006020820190508181036000830152611130818461109f565b905092915050565b7f4e487b7100000000000000000000000000000000000000000000000000000000600052601160045260246000fd5b600061117282610f1c565b915061117d83610f1c565b925082820390508181111561119557611194611138565b5b92915050565b7f4e487b7100000000000000000000000000000000000000000000000000000000600052601260045260246000fd5b60006111d582610f1c565b91506111e083610f1c565b9250826111f0576111ef61119b565b5b828204905092915050565b600061120682610f1c565b915061121183610f1c565b925082820190508082111561122957611228611138565b5b92915050565b6000819050919050565b60008160001b9050919050565b600061126161125c6112578461122f565b611239565b610ee6565b9050919050565b61127181611246565b82525050565b600060208201905061128c6000830184611268565b92915050565b600061129d82610e38565b9050919050565b6112ad81611292565b81146112b857600080fd5b50565b6000815190506112ca816112a4565b92915050565b6000602082840312156112e6576112e5610edc565b5b60006112f4848285016112bb565b91505092915050565b6000819050919050565b61131861131382610ee6565b6112fd565b82525050565b6000819050919050565b61133961133482610f1c565b61131e565b82525050565b600061134b8285611307565b60208201915061135b8284611328565b6020820191508190509392505050565b61137481610ee6565b82525050565b600060208201905061138f600083018461136b565b92915050565b600080fd5b7f4e487b7100000000000000000000000000000000000000000000000000000000600052604160045260246000fd5b6113d28261108e565b810181811067ffffffffffffffff821117156113f1576113f061139a565b5b80604052505050565b6000611404610ed2565b905061141082826113c9565b919050565b600067ffffffffffffffff8211156114305761142f61139a565b5b602082029050602081019050919050565b600080fd5b60008151905061145581610f26565b92915050565b600061146e61146984611415565b6113fa565b9050808382526020820190506020840283018581111561149157611490611441565b5b835b818110156114ba57806114a68882611446565b845260208401935050602081019050611493565b5050509392505050565b600082601f8301126114d9576114d8611395565b5b81516114e984826020860161145b565b91505092915050565b60006020828403121561150857611507610edc565b5b600082015167ffffffffffffffff81111561152657611525610ee1565b5b611532848285016114c4565b91505092915050565b60006020828403121561155157611550610edc565b5b600061155f84828501611446565b91505092915050565b600060408201905061157d600083018561136b565b61158a6020830184610fad565b9392505050565b600080fd5b600067ffffffffffffffff8211156115b1576115b061139a565b5b6115ba8261108e565b9050602081019050919050565b60006115da6115d584611596565b6113fa565b9050828152602081018484840111156115f6576115f5611591565b5b611601848285611064565b509392505050565b600082601f83011261161e5761161d611395565b5b815161162e8482602086016115c7565b91505092915050565b60006020828403121561164d5761164c610edc565b5b600082015167ffffffffffffffff81111561166b5761166a610ee1565b5b61167784828501611609565b9150509291505056fea2646970667358221220935a276e008a0cf58288cb04ad1033a02a77c2b86a5dbbdf044bca8e977eb98964736f6c63430008110033",
					"opcodes": "PUSH1 0x80 PUSH1 0x40 MSTORE CALLVALUE DUP1 ISZERO PUSH3 0x11 JUMPI PUSH1 0x0 DUP1 REVERT JUMPDEST POP PUSH1 0x40 MLOAD PUSH3 0x17E0 CODESIZE SUB DUP1 PUSH3 0x17E0 DUP4 CODECOPY DUP2 DUP2 ADD PUSH1 0x40 MSTORE DUP2 ADD SWAP1 PUSH3 0x37 SWAP2 SWAP1 PUSH3 0xE8 JUMP JUMPDEST DUP1 PUSH1 0x0 DUP1 PUSH2 0x100 EXP DUP2 SLOAD DUP2 PUSH20 0xFFFFFFFFFFFFFFFFFFFFFFFFFFFFFFFFFFFFFFFF MUL NOT AND SWAP1 DUP4 PUSH20 0xFFFFFFFFFFFFFFFFFFFFFFFFFFFFFFFFFFFFFFFF AND MUL OR SWAP1 SSTORE POP POP PUSH3 0x11A JUMP JUMPDEST PUSH1 0x0 DUP1 REVERT JUMPDEST PUSH1 0x0 PUSH20 0xFFFFFFFFFFFFFFFFFFFFFFFFFFFFFFFFFFFFFFFF DUP3 AND SWAP1 POP SWAP2 SWAP1 POP JUMP JUMPDEST PUSH1 0x0 PUSH3 0xB0 DUP3 PUSH3 0x83 JUMP JUMPDEST SWAP1 POP SWAP2 SWAP1 POP JUMP JUMPDEST PUSH3 0xC2 DUP2 PUSH3 0xA3 JUMP JUMPDEST DUP2 EQ PUSH3 0xCE JUMPI PUSH1 0x0 DUP1 REVERT JUMPDEST POP JUMP JUMPDEST PUSH1 0x0 DUP2 MLOAD SWAP1 POP PUSH3 0xE2 DUP2 PUSH3 0xB7 JUMP JUMPDEST SWAP3 SWAP2 POP POP JUMP JUMPDEST PUSH1 0x0 PUSH1 0x20 DUP3 DUP5 SUB SLT ISZERO PUSH3 0x101 JUMPI PUSH3 0x100 PUSH3 0x7E JUMP JUMPDEST JUMPDEST PUSH1 0x0 PUSH3 0x111 DUP5 DUP3 DUP6 ADD PUSH3 0xD1 JUMP JUMPDEST SWAP2 POP POP SWAP3 SWAP2 POP POP JUMP JUMPDEST PUSH2 0x16B6 DUP1 PUSH3 0x12A PUSH1 0x0 CODECOPY PUSH1 0x0 RETURN INVALID PUSH1 0x80 PUSH1 0x40 MSTORE CALLVALUE DUP1 ISZERO PUSH2 0x10 JUMPI PUSH1 0x0 DUP1 REVERT JUMPDEST POP PUSH1 0x4 CALLDATASIZE LT PUSH2 0x88 JUMPI PUSH1 0x0 CALLDATALOAD PUSH1 0xE0 SHR DUP1 PUSH4 0xA792765F GT PUSH2 0x5B JUMPI DUP1 PUSH4 0xA792765F EQ PUSH2 0x13C JUMPI DUP1 PUSH4 0xADF1639D EQ PUSH2 0x16E JUMPI DUP1 PUSH4 0xC5958AF9 EQ PUSH2 0x1A0 JUMPI DUP1 PUSH4 0xCE5E11BF EQ PUSH2 0x1D0 JUMPI PUSH2 0x88 JUMP JUMPDEST DUP1 PUSH4 0x1959AD5B EQ PUSH2 0x8D JUMPI DUP1 PUSH4 0x29449085 EQ PUSH2 0xAB JUMPI DUP1 PUSH4 0x44E87F91 EQ PUSH2 0xDC JUMPI DUP1 PUSH4 0x77B03E0D EQ PUSH2 0x10C JUMPI JUMPDEST PUSH1 0x0 DUP1 REVERT JUMPDEST PUSH2 0x95 PUSH2 0x200 JUMP JUMPDEST PUSH1 0x40 MLOAD PUSH2 0xA2 SWAP2 SWAP1 PUSH2 0xEB7 JUMP JUMPDEST PUSH1 0x40 MLOAD DUP1 SWAP2 SUB SWAP1 RETURN JUMPDEST PUSH2 0xC5 PUSH1 0x4 DUP1 CALLDATASIZE SUB DUP2 ADD SWAP1 PUSH2 0xC0 SWAP2 SWAP1 PUSH2 0xF52 JUMP JUMPDEST PUSH2 0x224 JUMP JUMPDEST PUSH1 0x40 MLOAD PUSH2 0xD3 SWAP3 SWAP2 SWAP1 PUSH2 0xFBC JUMP JUMPDEST PUSH1 0x40 MLOAD DUP1 SWAP2 SUB SWAP1 RETURN JUMPDEST PUSH2 0xF6 PUSH1 0x4 DUP1 CALLDATASIZE SUB DUP2 ADD SWAP1 PUSH2 0xF1 SWAP2 SWAP1 PUSH2 0xF52 JUMP JUMPDEST PUSH2 0x39F JUMP JUMPDEST PUSH1 0x40 MLOAD PUSH2 0x103 SWAP2 SWAP1 PUSH2 0xFE5 JUMP JUMPDEST PUSH1 0x40 MLOAD DUP1 SWAP2 SUB SWAP1 RETURN JUMPDEST PUSH2 0x126 PUSH1 0x4 DUP1 CALLDATASIZE SUB DUP2 ADD SWAP1 PUSH2 0x121 SWAP2 SWAP1 PUSH2 0x1000 JUMP JUMPDEST PUSH2 0x675 JUMP JUMPDEST PUSH1 0x40 MLOAD PUSH2 0x133 SWAP2 SWAP1 PUSH2 0x102D JUMP JUMPDEST PUSH1 0x40 MLOAD DUP1 SWAP2 SUB SWAP1 RETURN JUMPDEST PUSH2 0x156 PUSH1 0x4 DUP1 CALLDATASIZE SUB DUP2 ADD SWAP1 PUSH2 0x151 SWAP2 SWAP1 PUSH2 0xF52 JUMP JUMPDEST PUSH2 0x88C JUMP JUMPDEST PUSH1 0x40 MLOAD PUSH2 0x165 SWAP4 SWAP3 SWAP2 SWAP1 PUSH2 0x10D8 JUMP JUMPDEST PUSH1 0x40 MLOAD DUP1 SWAP2 SUB SWAP1 RETURN JUMPDEST PUSH2 0x188 PUSH1 0x4 DUP1 CALLDATASIZE SUB DUP2 ADD SWAP1 PUSH2 0x183 SWAP2 SWAP1 PUSH2 0x1000 JUMP JUMPDEST PUSH2 0x93E JUMP JUMPDEST PUSH1 0x40 MLOAD PUSH2 0x197 SWAP4 SWAP3 SWAP2 SWAP1 PUSH2 0x10D8 JUMP JUMPDEST PUSH1 0x40 MLOAD DUP1 SWAP2 SUB SWAP1 RETURN JUMPDEST PUSH2 0x1BA PUSH1 0x4 DUP1 CALLDATASIZE SUB DUP2 ADD SWAP1 PUSH2 0x1B5 SWAP2 SWAP1 PUSH2 0xF52 JUMP JUMPDEST PUSH2 0x9F6 JUMP JUMPDEST PUSH1 0x40 MLOAD PUSH2 0x1C7 SWAP2 SWAP1 PUSH2 0x1116 JUMP JUMPDEST PUSH1 0x40 MLOAD DUP1 SWAP2 SUB SWAP1 RETURN JUMPDEST PUSH2 0x1EA PUSH1 0x4 DUP1 CALLDATASIZE SUB DUP2 ADD SWAP1 PUSH2 0x1E5 SWAP2 SWAP1 PUSH2 0xF52 JUMP JUMPDEST PUSH2 0xC1C JUMP JUMPDEST PUSH1 0x40 MLOAD PUSH2 0x1F7 SWAP2 SWAP1 PUSH2 0x102D JUMP JUMPDEST PUSH1 0x40 MLOAD DUP1 SWAP2 SUB SWAP1 RETURN JUMPDEST PUSH1 0x0 DUP1 SLOAD SWAP1 PUSH2 0x100 EXP SWAP1 DIV PUSH20 0xFFFFFFFFFFFFFFFFFFFFFFFFFFFFFFFFFFFFFFFF AND DUP2 JUMP JUMPDEST PUSH1 0x0 DUP1 PUSH1 0x0 PUSH2 0x232 DUP6 PUSH2 0x675 JUMP JUMPDEST SWAP1 POP PUSH1 0x0 DUP2 GT ISZERO PUSH2 0x38F JUMPI PUSH1 0x0 DUP1 PUSH1 0x0 SWAP1 POP PUSH1 0x0 PUSH1 0x1 DUP5 PUSH2 0x253 SWAP2 SWAP1 PUSH2 0x1167 JUMP JUMPDEST SWAP1 POP PUSH1 0x0 PUSH2 0x261 DUP10 DUP5 PUSH2 0xC1C JUMP JUMPDEST SWAP1 POP DUP8 DUP2 LT PUSH2 0x27B JUMPI PUSH1 0x0 DUP1 SWAP7 POP SWAP7 POP POP POP POP POP POP PUSH2 0x398 JUMP JUMPDEST PUSH2 0x285 DUP10 DUP4 PUSH2 0xC1C JUMP JUMPDEST SWAP1 POP DUP8 DUP2 LT ISZERO PUSH2 0x2A0 JUMPI PUSH1 0x1 DUP3 SWAP7 POP SWAP7 POP POP POP POP POP POP PUSH2 0x398 JUMP JUMPDEST JUMPDEST PUSH1 0x1 ISZERO PUSH2 0x38A JUMPI DUP3 PUSH1 0x1 PUSH1 0x2 DUP6 DUP6 PUSH2 0x2B9 SWAP2 SWAP1 PUSH2 0x1167 JUMP JUMPDEST PUSH2 0x2C3 SWAP2 SWAP1 PUSH2 0x11CA JUMP JUMPDEST PUSH2 0x2CD SWAP2 SWAP1 PUSH2 0x11FB JUMP JUMPDEST PUSH2 0x2D7 SWAP2 SWAP1 PUSH2 0x11FB JUMP JUMPDEST SWAP4 POP PUSH2 0x2E3 DUP10 DUP6 PUSH2 0xC1C JUMP JUMPDEST SWAP1 POP DUP8 DUP2 LT ISZERO PUSH2 0x335 JUMPI PUSH1 0x0 PUSH2 0x305 DUP11 PUSH1 0x1 DUP8 PUSH2 0x300 SWAP2 SWAP1 PUSH2 0x11FB JUMP JUMPDEST PUSH2 0xC1C JUMP JUMPDEST SWAP1 POP DUP9 DUP2 LT PUSH2 0x320 JUMPI PUSH1 0x1 DUP6 SWAP8 POP SWAP8 POP POP POP POP POP POP POP PUSH2 0x398 JUMP JUMPDEST PUSH1 0x1 DUP6 PUSH2 0x32D SWAP2 SWAP1 PUSH2 0x11FB JUMP JUMPDEST SWAP4 POP POP PUSH2 0x385 JUMP JUMPDEST PUSH1 0x0 PUSH2 0x34D DUP11 PUSH1 0x1 DUP8 PUSH2 0x348 SWAP2 SWAP1 PUSH2 0x1167 JUMP JUMPDEST PUSH2 0xC1C JUMP JUMPDEST SWAP1 POP DUP9 DUP2 LT ISZERO PUSH2 0x374 JUMPI PUSH1 0x1 DUP1 DUP7 PUSH2 0x365 SWAP2 SWAP1 PUSH2 0x1167 JUMP JUMPDEST SWAP8 POP SWAP8 POP POP POP POP POP POP POP PUSH2 0x398 JUMP JUMPDEST PUSH1 0x1 DUP6 PUSH2 0x381 SWAP2 SWAP1 PUSH2 0x1167 JUMP JUMPDEST SWAP3 POP POP JUMPDEST PUSH2 0x2A1 JUMP JUMPDEST POP POP POP POP JUMPDEST PUSH1 0x0 DUP1 SWAP3 POP SWAP3 POP POP JUMPDEST SWAP3 POP SWAP3 SWAP1 POP JUMP JUMPDEST PUSH1 0x0 DUP1 PUSH20 0x18431FD88ADF138E8B979A7246EB58EA7126EA16 PUSH20 0xFFFFFFFFFFFFFFFFFFFFFFFFFFFFFFFFFFFFFFFF AND PUSH1 0x0 DUP1 SLOAD SWAP1 PUSH2 0x100 EXP SWAP1 DIV PUSH20 0xFFFFFFFFFFFFFFFFFFFFFFFFFFFFFFFFFFFFFFFF AND PUSH20 0xFFFFFFFFFFFFFFFFFFFFFFFFFFFFFFFFFFFFFFFF AND EQ DUP1 PUSH2 0x46F JUMPI POP PUSH20 0xE8218CACB0A5421BC6409E498D9F8CC8869945EA PUSH20 0xFFFFFFFFFFFFFFFFFFFFFFFFFFFFFFFFFFFFFFFF AND PUSH1 0x0 DUP1 SLOAD SWAP1 PUSH2 0x100 EXP SWAP1 DIV PUSH20 0xFFFFFFFFFFFFFFFFFFFFFFFFFFFFFFFFFFFFFFFF AND PUSH20 0xFFFFFFFFFFFFFFFFFFFFFFFFFFFFFFFFFFFFFFFF AND EQ JUMPDEST ISZERO PUSH2 0x52F JUMPI PUSH1 0x0 PUSH20 0x88DF592F8EB5D7BD38BFEF7DEB0FBC02CF3778A0 SWAP1 POP DUP1 PUSH20 0xFFFFFFFFFFFFFFFFFFFFFFFFFFFFFFFFFFFFFFFF AND PUSH4 0x699F200F PUSH32 0xEFA19BAA864049F50491093580C5433E97E8D5E41F8DB1A61108B4FA44CACD93 PUSH1 0x40 MLOAD DUP3 PUSH4 0xFFFFFFFF AND PUSH1 0xE0 SHL DUP2 MSTORE PUSH1 0x4 ADD PUSH2 0x4E6 SWAP2 SWAP1 PUSH2 0x1277 JUMP JUMPDEST PUSH1 0x20 PUSH1 0x40 MLOAD DUP1 DUP4 SUB DUP2 DUP7 GAS STATICCALL ISZERO DUP1 ISZERO PUSH2 0x503 JUMPI RETURNDATASIZE PUSH1 0x0 DUP1 RETURNDATACOPY RETURNDATASIZE PUSH1 0x0 REVERT JUMPDEST POP POP POP POP PUSH1 0x40 MLOAD RETURNDATASIZE PUSH1 0x1F NOT PUSH1 0x1F DUP3 ADD AND DUP3 ADD DUP1 PUSH1 0x40 MSTORE POP DUP2 ADD SWAP1 PUSH2 0x527 SWAP2 SWAP1 PUSH2 0x12D0 JUMP JUMPDEST SWAP2 POP POP PUSH2 0x5C1 JUMP JUMPDEST PUSH1 0x0 DUP1 SLOAD SWAP1 PUSH2 0x100 EXP SWAP1 DIV PUSH20 0xFFFFFFFFFFFFFFFFFFFFFFFFFFFFFFFFFFFFFFFF AND PUSH20 0xFFFFFFFFFFFFFFFFFFFFFFFFFFFFFFFFFFFFFFFF AND PUSH4 0x5AA6E675 PUSH1 0x40 MLOAD DUP2 PUSH4 0xFFFFFFFF AND PUSH1 0xE0 SHL DUP2 MSTORE PUSH1 0x4 ADD PUSH1 0x20 PUSH1 0x40 MLOAD DUP1 DUP4 SUB DUP2 DUP7 GAS STATICCALL ISZERO DUP1 ISZERO PUSH2 0x59A JUMPI RETURNDATASIZE PUSH1 0x0 DUP1 RETURNDATACOPY RETURNDATASIZE PUSH1 0x0 REVERT JUMPDEST POP POP POP POP PUSH1 0x40 MLOAD RETURNDATASIZE PUSH1 0x1F NOT PUSH1 0x1F DUP3 ADD AND DUP3 ADD DUP1 PUSH1 0x40 MSTORE POP DUP2 ADD SWAP1 PUSH2 0x5BE SWAP2 SWAP1 PUSH2 0x12D0 JUMP JUMPDEST SWAP1 POP JUMPDEST PUSH1 0x0 DUP2 PUSH20 0xFFFFFFFFFFFFFFFFFFFFFFFFFFFFFFFFFFFFFFFF AND PUSH4 0x248638E5 DUP7 DUP7 PUSH1 0x40 MLOAD PUSH1 0x20 ADD PUSH2 0x5F2 SWAP3 SWAP2 SWAP1 PUSH2 0x133F JUMP JUMPDEST PUSH1 0x40 MLOAD PUSH1 0x20 DUP2 DUP4 SUB SUB DUP2 MSTORE SWAP1 PUSH1 0x40 MSTORE DUP1 MLOAD SWAP1 PUSH1 0x20 ADD KECCAK256 PUSH1 0x40 MLOAD DUP3 PUSH4 0xFFFFFFFF AND PUSH1 0xE0 SHL DUP2 MSTORE PUSH1 0x4 ADD PUSH2 0x624 SWAP2 SWAP1 PUSH2 0x137A JUMP JUMPDEST PUSH1 0x0 PUSH1 0x40 MLOAD DUP1 DUP4 SUB DUP2 DUP7 GAS STATICCALL ISZERO DUP1 ISZERO PUSH2 0x641 JUMPI RETURNDATASIZE PUSH1 0x0 DUP1 RETURNDATACOPY RETURNDATASIZE PUSH1 0x0 REVERT JUMPDEST POP POP POP POP PUSH1 0x40 MLOAD RETURNDATASIZE PUSH1 0x0 DUP3 RETURNDATACOPY RETURNDATASIZE PUSH1 0x1F NOT PUSH1 0x1F DUP3 ADD AND DUP3 ADD DUP1 PUSH1 0x40 MSTORE POP DUP2 ADD SWAP1 PUSH2 0x66A SWAP2 SWAP1 PUSH2 0x14F2 JUMP JUMPDEST MLOAD GT SWAP2 POP POP SWAP3 SWAP2 POP POP JUMP JUMPDEST PUSH1 0x0 PUSH20 0x18431FD88ADF138E8B979A7246EB58EA7126EA16 PUSH20 0xFFFFFFFFFFFFFFFFFFFFFFFFFFFFFFFFFFFFFFFF AND PUSH1 0x0 DUP1 SLOAD SWAP1 PUSH2 0x100 EXP SWAP1 DIV PUSH20 0xFFFFFFFFFFFFFFFFFFFFFFFFFFFFFFFFFFFFFFFF AND PUSH20 0xFFFFFFFFFFFFFFFFFFFFFFFFFFFFFFFFFFFFFFFF AND EQ DUP1 PUSH2 0x744 JUMPI POP PUSH20 0xE8218CACB0A5421BC6409E498D9F8CC8869945EA PUSH20 0xFFFFFFFFFFFFFFFFFFFFFFFFFFFFFFFFFFFFFFFF AND PUSH1 0x0 DUP1 SLOAD SWAP1 PUSH2 0x100 EXP SWAP1 DIV PUSH20 0xFFFFFFFFFFFFFFFFFFFFFFFFFFFFFFFFFFFFFFFF AND PUSH20 0xFFFFFFFFFFFFFFFFFFFFFFFFFFFFFFFFFFFFFFFF AND EQ JUMPDEST ISZERO PUSH2 0x7EA JUMPI PUSH1 0x0 DUP1 SLOAD SWAP1 PUSH2 0x100 EXP SWAP1 DIV PUSH20 0xFFFFFFFFFFFFFFFFFFFFFFFFFFFFFFFFFFFFFFFF AND PUSH20 0xFFFFFFFFFFFFFFFFFFFFFFFFFFFFFFFFFFFFFFFF AND PUSH4 0x35E72432 DUP4 PUSH1 0x40 MLOAD DUP3 PUSH4 0xFFFFFFFF AND PUSH1 0xE0 SHL DUP2 MSTORE PUSH1 0x4 ADD PUSH2 0x7A2 SWAP2 SWAP1 PUSH2 0x137A JUMP JUMPDEST PUSH1 0x20 PUSH1 0x40 MLOAD DUP1 DUP4 SUB DUP2 DUP7 GAS STATICCALL ISZERO DUP1 ISZERO PUSH2 0x7BF JUMPI RETURNDATASIZE PUSH1 0x0 DUP1 RETURNDATACOPY RETURNDATASIZE PUSH1 0x0 REVERT JUMPDEST POP POP POP POP PUSH1 0x40 MLOAD RETURNDATASIZE PUSH1 0x1F NOT PUSH1 0x1F DUP3 ADD AND DUP3 ADD DUP1 PUSH1 0x40 MSTORE POP DUP2 ADD SWAP1 PUSH2 0x7E3 SWAP2 SWAP1 PUSH2 0x153B JUMP JUMPDEST SWAP1 POP PUSH2 0x887 JUMP JUMPDEST PUSH1 0x0 DUP1 SLOAD SWAP1 PUSH2 0x100 EXP SWAP1 DIV PUSH20 0xFFFFFFFFFFFFFFFFFFFFFFFFFFFFFFFFFFFFFFFF AND PUSH20 0xFFFFFFFFFFFFFFFFFFFFFFFFFFFFFFFFFFFFFFFF AND PUSH4 0x77B03E0D DUP4 PUSH1 0x40 MLOAD DUP3 PUSH4 0xFFFFFFFF AND PUSH1 0xE0 SHL DUP2 MSTORE PUSH1 0x4 ADD PUSH2 0x843 SWAP2 SWAP1 PUSH2 0x137A JUMP JUMPDEST PUSH1 0x20 PUSH1 0x40 MLOAD DUP1 DUP4 SUB DUP2 DUP7 GAS STATICCALL ISZERO DUP1 ISZERO PUSH2 0x860 JUMPI RETURNDATASIZE PUSH1 0x0 DUP1 RETURNDATACOPY RETURNDATASIZE PUSH1 0x0 REVERT JUMPDEST POP POP POP POP PUSH1 0x40 MLOAD RETURNDATASIZE PUSH1 0x1F NOT PUSH1 0x1F DUP3 ADD AND DUP3 ADD DUP1 PUSH1 0x40 MSTORE POP DUP2 ADD SWAP1 PUSH2 0x884 SWAP2 SWAP1 PUSH2 0x153B JUMP JUMPDEST SWAP1 POP JUMPDEST SWAP2 SWAP1 POP JUMP JUMPDEST PUSH1 0x0 PUSH1 0x60 PUSH1 0x0 DUP1 PUSH1 0x0 PUSH2 0x89F DUP8 DUP8 PUSH2 0x224 JUMP JUMPDEST SWAP2 POP SWAP2 POP DUP2 PUSH2 0x8C9 JUMPI PUSH1 0x0 PUSH1 0x40 MLOAD DUP1 PUSH1 0x20 ADD PUSH1 0x40 MSTORE DUP1 PUSH1 0x0 DUP2 MSTORE POP PUSH1 0x0 SWAP5 POP SWAP5 POP SWAP5 POP POP POP PUSH2 0x937 JUMP JUMPDEST PUSH1 0x0 PUSH2 0x8D5 DUP9 DUP4 PUSH2 0xC1C JUMP JUMPDEST SWAP1 POP PUSH2 0x8E1 DUP9 DUP3 PUSH2 0x9F6 JUMP JUMPDEST SWAP5 POP PUSH1 0x40 MLOAD DUP1 PUSH1 0x20 ADD PUSH1 0x40 MSTORE DUP1 PUSH1 0x0 DUP2 MSTORE POP DUP1 MLOAD SWAP1 PUSH1 0x20 ADD KECCAK256 DUP6 DUP1 MLOAD SWAP1 PUSH1 0x20 ADD KECCAK256 EQ PUSH2 0x919 JUMPI PUSH1 0x1 DUP6 DUP3 SWAP6 POP SWAP6 POP SWAP6 POP POP POP POP PUSH2 0x937 JUMP JUMPDEST PUSH1 0x0 PUSH1 0x40 MLOAD DUP1 PUSH1 0x20 ADD PUSH1 0x40 MSTORE DUP1 PUSH1 0x0 DUP2 MSTORE POP PUSH1 0x0 SWAP6 POP SWAP6 POP SWAP6 POP POP POP POP JUMPDEST SWAP3 POP SWAP3 POP SWAP3 JUMP JUMPDEST PUSH1 0x0 PUSH1 0x60 PUSH1 0x0 DUP1 PUSH2 0x94E DUP6 PUSH2 0x675 JUMP JUMPDEST SWAP1 POP PUSH1 0x0 DUP2 SUB PUSH2 0x978 JUMPI PUSH1 0x0 PUSH1 0x40 MLOAD DUP1 PUSH1 0x20 ADD PUSH1 0x40 MSTORE DUP1 PUSH1 0x0 DUP2 MSTORE POP PUSH1 0x0 SWAP4 POP SWAP4 POP SWAP4 POP POP PUSH2 0x9EF JUMP JUMPDEST PUSH1 0x0 PUSH2 0x990 DUP7 PUSH1 0x1 DUP5 PUSH2 0x98B SWAP2 SWAP1 PUSH2 0x1167 JUMP JUMPDEST PUSH2 0xC1C JUMP JUMPDEST SWAP1 POP PUSH2 0x99C DUP7 DUP3 PUSH2 0x9F6 JUMP JUMPDEST SWAP4 POP PUSH1 0x40 MLOAD DUP1 PUSH1 0x20 ADD PUSH1 0x40 MSTORE DUP1 PUSH1 0x0 DUP2 MSTORE POP DUP1 MLOAD SWAP1 PUSH1 0x20 ADD KECCAK256 DUP5 DUP1 MLOAD SWAP1 PUSH1 0x20 ADD KECCAK256 EQ PUSH2 0x9D3 JUMPI PUSH1 0x1 DUP5 DUP3 SWAP5 POP SWAP5 POP SWAP5 POP POP POP PUSH2 0x9EF JUMP JUMPDEST PUSH1 0x0 PUSH1 0x40 MLOAD DUP1 PUSH1 0x20 ADD PUSH1 0x40 MSTORE DUP1 PUSH1 0x0 DUP2 MSTORE POP DUP3 SWAP5 POP SWAP5 POP SWAP5 POP POP POP JUMPDEST SWAP2 SWAP4 SWAP1 SWAP3 POP JUMP JUMPDEST PUSH1 0x60 PUSH20 0x18431FD88ADF138E8B979A7246EB58EA7126EA16 PUSH20 0xFFFFFFFFFFFFFFFFFFFFFFFFFFFFFFFFFFFFFFFF AND PUSH1 0x0 DUP1 SLOAD SWAP1 PUSH2 0x100 EXP SWAP1 DIV PUSH20 0xFFFFFFFFFFFFFFFFFFFFFFFFFFFFFFFFFFFFFFFF AND PUSH20 0xFFFFFFFFFFFFFFFFFFFFFFFFFFFFFFFFFFFFFFFF AND EQ DUP1 PUSH2 0xAC5 JUMPI POP PUSH20 0xE8218CACB0A5421BC6409E498D9F8CC8869945EA PUSH20 0xFFFFFFFFFFFFFFFFFFFFFFFFFFFFFFFFFFFFFFFF AND PUSH1 0x0 DUP1 SLOAD SWAP1 PUSH2 0x100 EXP SWAP1 DIV PUSH20 0xFFFFFFFFFFFFFFFFFFFFFFFFFFFFFFFFFFFFFFFF AND PUSH20 0xFFFFFFFFFFFFFFFFFFFFFFFFFFFFFFFFFFFFFFFF AND EQ JUMPDEST ISZERO PUSH2 0xB72 JUMPI PUSH1 0x0 DUP1 SLOAD SWAP1 PUSH2 0x100 EXP SWAP1 DIV PUSH20 0xFFFFFFFFFFFFFFFFFFFFFFFFFFFFFFFFFFFFFFFF AND PUSH20 0xFFFFFFFFFFFFFFFFFFFFFFFFFFFFFFFFFFFFFFFF AND PUSH4 0xB2D2B0D DUP5 DUP5 PUSH1 0x40 MLOAD DUP4 PUSH4 0xFFFFFFFF AND PUSH1 0xE0 SHL DUP2 MSTORE PUSH1 0x4 ADD PUSH2 0xB25 SWAP3 SWAP2 SWAP1 PUSH2 0x1568 JUMP JUMPDEST PUSH1 0x0 PUSH1 0x40 MLOAD DUP1 DUP4 SUB DUP2 DUP7 GAS STATICCALL ISZERO DUP1 ISZERO PUSH2 0xB42 JUMPI RETURNDATASIZE PUSH1 0x0 DUP1 RETURNDATACOPY RETURNDATASIZE PUSH1 0x0 REVERT JUMPDEST POP POP POP POP PUSH1 0x40 MLOAD RETURNDATASIZE PUSH1 0x0 DUP3 RETURNDATACOPY RETURNDATASIZE PUSH1 0x1F NOT PUSH1 0x1F DUP3 ADD AND DUP3 ADD DUP1 PUSH1 0x40 MSTORE POP DUP2 ADD SWAP1 PUSH2 0xB6B SWAP2 SWAP1 PUSH2 0x1637 JUMP JUMPDEST SWAP1 POP PUSH2 0xC16 JUMP JUMPDEST PUSH1 0x0 DUP1 SLOAD SWAP1 PUSH2 0x100 EXP SWAP1 DIV PUSH20 0xFFFFFFFFFFFFFFFFFFFFFFFFFFFFFFFFFFFFFFFF AND PUSH20 0xFFFFFFFFFFFFFFFFFFFFFFFFFFFFFFFFFFFFFFFF AND PUSH4 0xC5958AF9 DUP5 DUP5 PUSH1 0x40 MLOAD DUP4 PUSH4 0xFFFFFFFF AND PUSH1 0xE0 SHL DUP2 MSTORE PUSH1 0x4 ADD PUSH2 0xBCD SWAP3 SWAP2 SWAP1 PUSH2 0x1568 JUMP JUMPDEST PUSH1 0x0 PUSH1 0x40 MLOAD DUP1 DUP4 SUB DUP2 DUP7 GAS STATICCALL ISZERO DUP1 ISZERO PUSH2 0xBEA JUMPI RETURNDATASIZE PUSH1 0x0 DUP1 RETURNDATACOPY RETURNDATASIZE PUSH1 0x0 REVERT JUMPDEST POP POP POP POP PUSH1 0x40 MLOAD RETURNDATASIZE PUSH1 0x0 DUP3 RETURNDATACOPY RETURNDATASIZE PUSH1 0x1F NOT PUSH1 0x1F DUP3 ADD AND DUP3 ADD DUP1 PUSH1 0x40 MSTORE POP DUP2 ADD SWAP1 PUSH2 0xC13 SWAP2 SWAP1 PUSH2 0x1637 JUMP JUMPDEST SWAP1 POP JUMPDEST SWAP3 SWAP2 POP POP JUMP JUMPDEST PUSH1 0x0 PUSH20 0x18431FD88ADF138E8B979A7246EB58EA7126EA16 PUSH20 0xFFFFFFFFFFFFFFFFFFFFFFFFFFFFFFFFFFFFFFFF AND PUSH1 0x0 DUP1 SLOAD SWAP1 PUSH2 0x100 EXP SWAP1 DIV PUSH20 0xFFFFFFFFFFFFFFFFFFFFFFFFFFFFFFFFFFFFFFFF AND PUSH20 0xFFFFFFFFFFFFFFFFFFFFFFFFFFFFFFFFFFFFFFFF AND EQ DUP1 PUSH2 0xCEB JUMPI POP PUSH20 0xE8218CACB0A5421BC6409E498D9F8CC8869945EA PUSH20 0xFFFFFFFFFFFFFFFFFFFFFFFFFFFFFFFFFFFFFFFF AND PUSH1 0x0 DUP1 SLOAD SWAP1 PUSH2 0x100 EXP SWAP1 DIV PUSH20 0xFFFFFFFFFFFFFFFFFFFFFFFFFFFFFFFFFFFFFFFF AND PUSH20 0xFFFFFFFFFFFFFFFFFFFFFFFFFFFFFFFFFFFFFFFF AND EQ JUMPDEST ISZERO PUSH2 0xD93 JUMPI PUSH1 0x0 DUP1 SLOAD SWAP1 PUSH2 0x100 EXP SWAP1 DIV PUSH20 0xFFFFFFFFFFFFFFFFFFFFFFFFFFFFFFFFFFFFFFFF AND PUSH20 0xFFFFFFFFFFFFFFFFFFFFFFFFFFFFFFFFFFFFFFFF AND PUSH4 0x7C37B8B4 DUP5 DUP5 PUSH1 0x40 MLOAD DUP4 PUSH4 0xFFFFFFFF AND PUSH1 0xE0 SHL DUP2 MSTORE PUSH1 0x4 ADD PUSH2 0xD4B SWAP3 SWAP2 SWAP1 PUSH2 0x1568 JUMP JUMPDEST PUSH1 0x20 PUSH1 0x40 MLOAD DUP1 DUP4 SUB DUP2 DUP7 GAS STATICCALL ISZERO DUP1 ISZERO PUSH2 0xD68 JUMPI RETURNDATASIZE PUSH1 0x0 DUP1 RETURNDATACOPY RETURNDATASIZE PUSH1 0x0 REVERT JUMPDEST POP POP POP POP PUSH1 0x40 MLOAD RETURNDATASIZE PUSH1 0x1F NOT PUSH1 0x1F DUP3 ADD AND DUP3 ADD DUP1 PUSH1 0x40 MSTORE POP DUP2 ADD SWAP1 PUSH2 0xD8C SWAP2 SWAP1 PUSH2 0x153B JUMP JUMPDEST SWAP1 POP PUSH2 0xE32 JUMP JUMPDEST PUSH1 0x0 DUP1 SLOAD SWAP1 PUSH2 0x100 EXP SWAP1 DIV PUSH20 0xFFFFFFFFFFFFFFFFFFFFFFFFFFFFFFFFFFFFFFFF AND PUSH20 0xFFFFFFFFFFFFFFFFFFFFFFFFFFFFFFFFFFFFFFFF AND PUSH4 0xCE5E11BF DUP5 DUP5 PUSH1 0x40 MLOAD DUP4 PUSH4 0xFFFFFFFF AND PUSH1 0xE0 SHL DUP2 MSTORE PUSH1 0x4 ADD PUSH2 0xDEE SWAP3 SWAP2 SWAP1 PUSH2 0x1568 JUMP JUMPDEST PUSH1 0x20 PUSH1 0x40 MLOAD DUP1 DUP4 SUB DUP2 DUP7 GAS STATICCALL ISZERO DUP1 ISZERO PUSH2 0xE0B JUMPI RETURNDATASIZE PUSH1 0x0 DUP1 RETURNDATACOPY RETURNDATASIZE PUSH1 0x0 REVERT JUMPDEST POP POP POP POP PUSH1 0x40 MLOAD RETURNDATASIZE PUSH1 0x1F NOT PUSH1 0x1F DUP3 ADD AND DUP3 ADD DUP1 PUSH1 0x40 MSTORE POP DUP2 ADD SWAP1 PUSH2 0xE2F SWAP2 SWAP1 PUSH2 0x153B JUMP JUMPDEST SWAP1 POP JUMPDEST SWAP3 SWAP2 POP POP JUMP JUMPDEST PUSH1 0x0 PUSH20 0xFFFFFFFFFFFFFFFFFFFFFFFFFFFFFFFFFFFFFFFF DUP3 AND SWAP1 POP SWAP2 SWAP1 POP JUMP JUMPDEST PUSH1 0x0 DUP2 SWAP1 POP SWAP2 SWAP1 POP JUMP JUMPDEST PUSH1 0x0 PUSH2 0xE7D PUSH2 0xE78 PUSH2 0xE73 DUP5 PUSH2 0xE38 JUMP JUMPDEST PUSH2 0xE58 JUMP JUMPDEST PUSH2 0xE38 JUMP JUMPDEST SWAP1 POP SWAP2 SWAP1 POP JUMP JUMPDEST PUSH1 0x0 PUSH2 0xE8F DUP3 PUSH2 0xE62 JUMP JUMPDEST SWAP1 POP SWAP2 SWAP1 POP JUMP JUMPDEST PUSH1 0x0 PUSH2 0xEA1 DUP3 PUSH2 0xE84 JUMP JUMPDEST SWAP1 POP SWAP2 SWAP1 POP JUMP JUMPDEST PUSH2 0xEB1 DUP2 PUSH2 0xE96 JUMP JUMPDEST DUP3 MSTORE POP POP JUMP JUMPDEST PUSH1 0x0 PUSH1 0x20 DUP3 ADD SWAP1 POP PUSH2 0xECC PUSH1 0x0 DUP4 ADD DUP5 PUSH2 0xEA8 JUMP JUMPDEST SWAP3 SWAP2 POP POP JUMP JUMPDEST PUSH1 0x0 PUSH1 0x40 MLOAD SWAP1 POP SWAP1 JUMP JUMPDEST PUSH1 0x0 DUP1 REVERT JUMPDEST PUSH1 0x0 DUP1 REVERT JUMPDEST PUSH1 0x0 DUP2 SWAP1 POP SWAP2 SWAP1 POP JUMP JUMPDEST PUSH2 0xEF9 DUP2 PUSH2 0xEE6 JUMP JUMPDEST DUP2 EQ PUSH2 0xF04 JUMPI PUSH1 0x0 DUP1 REVERT JUMPDEST POP JUMP JUMPDEST PUSH1 0x0 DUP2 CALLDATALOAD SWAP1 POP PUSH2 0xF16 DUP2 PUSH2 0xEF0 JUMP JUMPDEST SWAP3 SWAP2 POP POP JUMP JUMPDEST PUSH1 0x0 DUP2 SWAP1 POP SWAP2 SWAP1 POP JUMP JUMPDEST PUSH2 0xF2F DUP2 PUSH2 0xF1C JUMP JUMPDEST DUP2 EQ PUSH2 0xF3A JUMPI PUSH1 0x0 DUP1 REVERT JUMPDEST POP JUMP JUMPDEST PUSH1 0x0 DUP2 CALLDATALOAD SWAP1 POP PUSH2 0xF4C DUP2 PUSH2 0xF26 JUMP JUMPDEST SWAP3 SWAP2 POP POP JUMP JUMPDEST PUSH1 0x0 DUP1 PUSH1 0x40 DUP4 DUP6 SUB SLT ISZERO PUSH2 0xF69 JUMPI PUSH2 0xF68 PUSH2 0xEDC JUMP JUMPDEST JUMPDEST PUSH1 0x0 PUSH2 0xF77 DUP6 DUP3 DUP7 ADD PUSH2 0xF07 JUMP JUMPDEST SWAP3 POP POP PUSH1 0x20 PUSH2 0xF88 DUP6 DUP3 DUP7 ADD PUSH2 0xF3D JUMP JUMPDEST SWAP2 POP POP SWAP3 POP SWAP3 SWAP1 POP JUMP JUMPDEST PUSH1 0x0 DUP2 ISZERO ISZERO SWAP1 POP SWAP2 SWAP1 POP JUMP JUMPDEST PUSH2 0xFA7 DUP2 PUSH2 0xF92 JUMP JUMPDEST DUP3 MSTORE POP POP JUMP JUMPDEST PUSH2 0xFB6 DUP2 PUSH2 0xF1C JUMP JUMPDEST DUP3 MSTORE POP POP JUMP JUMPDEST PUSH1 0x0 PUSH1 0x40 DUP3 ADD SWAP1 POP PUSH2 0xFD1 PUSH1 0x0 DUP4 ADD DUP6 PUSH2 0xF9E JUMP JUMPDEST PUSH2 0xFDE PUSH1 0x20 DUP4 ADD DUP5 PUSH2 0xFAD JUMP JUMPDEST SWAP4 SWAP3 POP POP POP JUMP JUMPDEST PUSH1 0x0 PUSH1 0x20 DUP3 ADD SWAP1 POP PUSH2 0xFFA PUSH1 0x0 DUP4 ADD DUP5 PUSH2 0xF9E JUMP JUMPDEST SWAP3 SWAP2 POP POP JUMP JUMPDEST PUSH1 0x0 PUSH1 0x20 DUP3 DUP5 SUB SLT ISZERO PUSH2 0x1016 JUMPI PUSH2 0x1015 PUSH2 0xEDC JUMP JUMPDEST JUMPDEST PUSH1 0x0 PUSH2 0x1024 DUP5 DUP3 DUP6 ADD PUSH2 0xF07 JUMP JUMPDEST SWAP2 POP POP SWAP3 SWAP2 POP POP JUMP JUMPDEST PUSH1 0x0 PUSH1 0x20 DUP3 ADD SWAP1 POP PUSH2 0x1042 PUSH1 0x0 DUP4 ADD DUP5 PUSH2 0xFAD JUMP JUMPDEST SWAP3 SWAP2 POP POP JUMP JUMPDEST PUSH1 0x0 DUP2 MLOAD SWAP1 POP SWAP2 SWAP1 POP JUMP JUMPDEST PUSH1 0x0 DUP3 DUP3 MSTORE PUSH1 0x20 DUP3 ADD SWAP1 POP SWAP3 SWAP2 POP POP JUMP JUMPDEST PUSH1 0x0 JUMPDEST DUP4 DUP2 LT ISZERO PUSH2 0x1082 JUMPI DUP1 DUP3 ADD MLOAD DUP2 DUP5 ADD MSTORE PUSH1 0x20 DUP2 ADD SWAP1 POP PUSH2 0x1067 JUMP JUMPDEST PUSH1 0x0 DUP5 DUP5 ADD MSTORE POP POP POP POP JUMP JUMPDEST PUSH1 0x0 PUSH1 0x1F NOT PUSH1 0x1F DUP4 ADD AND SWAP1 POP SWAP2 SWAP1 POP JUMP JUMPDEST PUSH1 0x0 PUSH2 0x10AA DUP3 PUSH2 0x1048 JUMP JUMPDEST PUSH2 0x10B4 DUP2 DUP6 PUSH2 0x1053 JUMP JUMPDEST SWAP4 POP PUSH2 0x10C4 DUP2 DUP6 PUSH1 0x20 DUP7 ADD PUSH2 0x1064 JUMP JUMPDEST PUSH2 0x10CD DUP2 PUSH2 0x108E JUMP JUMPDEST DUP5 ADD SWAP2 POP POP SWAP3 SWAP2 POP POP JUMP JUMPDEST PUSH1 0x0 PUSH1 0x60 DUP3 ADD SWAP1 POP PUSH2 0x10ED PUSH1 0x0 DUP4 ADD DUP7 PUSH2 0xF9E JUMP JUMPDEST DUP2 DUP2 SUB PUSH1 0x20 DUP4 ADD MSTORE PUSH2 0x10FF DUP2 DUP6 PUSH2 0x109F JUMP JUMPDEST SWAP1 POP PUSH2 0x110E PUSH1 0x40 DUP4 ADD DUP5 PUSH2 0xFAD JUMP JUMPDEST SWAP5 SWAP4 POP POP POP POP JUMP JUMPDEST PUSH1 0x0 PUSH1 0x20 DUP3 ADD SWAP1 POP DUP2 DUP2 SUB PUSH1 0x0 DUP4 ADD MSTORE PUSH2 0x1130 DUP2 DUP5 PUSH2 0x109F JUMP JUMPDEST SWAP1 POP SWAP3 SWAP2 POP POP JUMP JUMPDEST PUSH32 0x4E487B7100000000000000000000000000000000000000000000000000000000 PUSH1 0x0 MSTORE PUSH1 0x11 PUSH1 0x4 MSTORE PUSH1 0x24 PUSH1 0x0 REVERT JUMPDEST PUSH1 0x0 PUSH2 0x1172 DUP3 PUSH2 0xF1C JUMP JUMPDEST SWAP2 POP PUSH2 0x117D DUP4 PUSH2 0xF1C JUMP JUMPDEST SWAP3 POP DUP3 DUP3 SUB SWAP1 POP DUP2 DUP2 GT ISZERO PUSH2 0x1195 JUMPI PUSH2 0x1194 PUSH2 0x1138 JUMP JUMPDEST JUMPDEST SWAP3 SWAP2 POP POP JUMP JUMPDEST PUSH32 0x4E487B7100000000000000000000000000000000000000000000000000000000 PUSH1 0x0 MSTORE PUSH1 0x12 PUSH1 0x4 MSTORE PUSH1 0x24 PUSH1 0x0 REVERT JUMPDEST PUSH1 0x0 PUSH2 0x11D5 DUP3 PUSH2 0xF1C JUMP JUMPDEST SWAP2 POP PUSH2 0x11E0 DUP4 PUSH2 0xF1C JUMP JUMPDEST SWAP3 POP DUP3 PUSH2 0x11F0 JUMPI PUSH2 0x11EF PUSH2 0x119B JUMP JUMPDEST JUMPDEST DUP3 DUP3 DIV SWAP1 POP SWAP3 SWAP2 POP POP JUMP JUMPDEST PUSH1 0x0 PUSH2 0x1206 DUP3 PUSH2 0xF1C JUMP JUMPDEST SWAP2 POP PUSH2 0x1211 DUP4 PUSH2 0xF1C JUMP JUMPDEST SWAP3 POP DUP3 DUP3 ADD SWAP1 POP DUP1 DUP3 GT ISZERO PUSH2 0x1229 JUMPI PUSH2 0x1228 PUSH2 0x1138 JUMP JUMPDEST JUMPDEST SWAP3 SWAP2 POP POP JUMP JUMPDEST PUSH1 0x0 DUP2 SWAP1 POP SWAP2 SWAP1 POP JUMP JUMPDEST PUSH1 0x0 DUP2 PUSH1 0x0 SHL SWAP1 POP SWAP2 SWAP1 POP JUMP JUMPDEST PUSH1 0x0 PUSH2 0x1261 PUSH2 0x125C PUSH2 0x1257 DUP5 PUSH2 0x122F JUMP JUMPDEST PUSH2 0x1239 JUMP JUMPDEST PUSH2 0xEE6 JUMP JUMPDEST SWAP1 POP SWAP2 SWAP1 POP JUMP JUMPDEST PUSH2 0x1271 DUP2 PUSH2 0x1246 JUMP JUMPDEST DUP3 MSTORE POP POP JUMP JUMPDEST PUSH1 0x0 PUSH1 0x20 DUP3 ADD SWAP1 POP PUSH2 0x128C PUSH1 0x0 DUP4 ADD DUP5 PUSH2 0x1268 JUMP JUMPDEST SWAP3 SWAP2 POP POP JUMP JUMPDEST PUSH1 0x0 PUSH2 0x129D DUP3 PUSH2 0xE38 JUMP JUMPDEST SWAP1 POP SWAP2 SWAP1 POP JUMP JUMPDEST PUSH2 0x12AD DUP2 PUSH2 0x1292 JUMP JUMPDEST DUP2 EQ PUSH2 0x12B8 JUMPI PUSH1 0x0 DUP1 REVERT JUMPDEST POP JUMP JUMPDEST PUSH1 0x0 DUP2 MLOAD SWAP1 POP PUSH2 0x12CA DUP2 PUSH2 0x12A4 JUMP JUMPDEST SWAP3 SWAP2 POP POP JUMP JUMPDEST PUSH1 0x0 PUSH1 0x20 DUP3 DUP5 SUB SLT ISZERO PUSH2 0x12E6 JUMPI PUSH2 0x12E5 PUSH2 0xEDC JUMP JUMPDEST JUMPDEST PUSH1 0x0 PUSH2 0x12F4 DUP5 DUP3 DUP6 ADD PUSH2 0x12BB JUMP JUMPDEST SWAP2 POP POP SWAP3 SWAP2 POP POP JUMP JUMPDEST PUSH1 0x0 DUP2 SWAP1 POP SWAP2 SWAP1 POP JUMP JUMPDEST PUSH2 0x1318 PUSH2 0x1313 DUP3 PUSH2 0xEE6 JUMP JUMPDEST PUSH2 0x12FD JUMP JUMPDEST DUP3 MSTORE POP POP JUMP JUMPDEST PUSH1 0x0 DUP2 SWAP1 POP SWAP2 SWAP1 POP JUMP JUMPDEST PUSH2 0x1339 PUSH2 0x1334 DUP3 PUSH2 0xF1C JUMP JUMPDEST PUSH2 0x131E JUMP JUMPDEST DUP3 MSTORE POP POP JUMP JUMPDEST PUSH1 0x0 PUSH2 0x134B DUP3 DUP6 PUSH2 0x1307 JUMP JUMPDEST PUSH1 0x20 DUP3 ADD SWAP2 POP PUSH2 0x135B DUP3 DUP5 PUSH2 0x1328 JUMP JUMPDEST PUSH1 0x20 DUP3 ADD SWAP2 POP DUP2 SWAP1 POP SWAP4 SWAP3 POP POP POP JUMP JUMPDEST PUSH2 0x1374 DUP2 PUSH2 0xEE6 JUMP JUMPDEST DUP3 MSTORE POP POP JUMP JUMPDEST PUSH1 0x0 PUSH1 0x20 DUP3 ADD SWAP1 POP PUSH2 0x138F PUSH1 0x0 DUP4 ADD DUP5 PUSH2 0x136B JUMP JUMPDEST SWAP3 SWAP2 POP POP JUMP JUMPDEST PUSH1 0x0 DUP1 REVERT JUMPDEST PUSH32 0x4E487B7100000000000000000000000000000000000000000000000000000000 PUSH1 0x0 MSTORE PUSH1 0x41 PUSH1 0x4 MSTORE PUSH1 0x24 PUSH1 0x0 REVERT JUMPDEST PUSH2 0x13D2 DUP3 PUSH2 0x108E JUMP JUMPDEST DUP2 ADD DUP2 DUP2 LT PUSH8 0xFFFFFFFFFFFFFFFF DUP3 GT OR ISZERO PUSH2 0x13F1 JUMPI PUSH2 0x13F0 PUSH2 0x139A JUMP JUMPDEST JUMPDEST DUP1 PUSH1 0x40 MSTORE POP POP POP JUMP JUMPDEST PUSH1 0x0 PUSH2 0x1404 PUSH2 0xED2 JUMP JUMPDEST SWAP1 POP PUSH2 0x1410 DUP3 DUP3 PUSH2 0x13C9 JUMP JUMPDEST SWAP2 SWAP1 POP JUMP JUMPDEST PUSH1 0x0 PUSH8 0xFFFFFFFFFFFFFFFF DUP3 GT ISZERO PUSH2 0x1430 JUMPI PUSH2 0x142F PUSH2 0x139A JUMP JUMPDEST JUMPDEST PUSH1 0x20 DUP3 MUL SWAP1 POP PUSH1 0x20 DUP2 ADD SWAP1 POP SWAP2 SWAP1 POP JUMP JUMPDEST PUSH1 0x0 DUP1 REVERT JUMPDEST PUSH1 0x0 DUP2 MLOAD SWAP1 POP PUSH2 0x1455 DUP2 PUSH2 0xF26 JUMP JUMPDEST SWAP3 SWAP2 POP POP JUMP JUMPDEST PUSH1 0x0 PUSH2 0x146E PUSH2 0x1469 DUP5 PUSH2 0x1415 JUMP JUMPDEST PUSH2 0x13FA JUMP JUMPDEST SWAP1 POP DUP1 DUP4 DUP3 MSTORE PUSH1 0x20 DUP3 ADD SWAP1 POP PUSH1 0x20 DUP5 MUL DUP4 ADD DUP6 DUP2 GT ISZERO PUSH2 0x1491 JUMPI PUSH2 0x1490 PUSH2 0x1441 JUMP JUMPDEST JUMPDEST DUP4 JUMPDEST DUP2 DUP2 LT ISZERO PUSH2 0x14BA JUMPI DUP1 PUSH2 0x14A6 DUP9 DUP3 PUSH2 0x1446 JUMP JUMPDEST DUP5 MSTORE PUSH1 0x20 DUP5 ADD SWAP4 POP POP PUSH1 0x20 DUP2 ADD SWAP1 POP PUSH2 0x1493 JUMP JUMPDEST POP POP POP SWAP4 SWAP3 POP POP POP JUMP JUMPDEST PUSH1 0x0 DUP3 PUSH1 0x1F DUP4 ADD SLT PUSH2 0x14D9 JUMPI PUSH2 0x14D8 PUSH2 0x1395 JUMP JUMPDEST JUMPDEST DUP2 MLOAD PUSH2 0x14E9 DUP5 DUP3 PUSH1 0x20 DUP7 ADD PUSH2 0x145B JUMP JUMPDEST SWAP2 POP POP SWAP3 SWAP2 POP POP JUMP JUMPDEST PUSH1 0x0 PUSH1 0x20 DUP3 DUP5 SUB SLT ISZERO PUSH2 0x1508 JUMPI PUSH2 0x1507 PUSH2 0xEDC JUMP JUMPDEST JUMPDEST PUSH1 0x0 DUP3 ADD MLOAD PUSH8 0xFFFFFFFFFFFFFFFF DUP2 GT ISZERO PUSH2 0x1526 JUMPI PUSH2 0x1525 PUSH2 0xEE1 JUMP JUMPDEST JUMPDEST PUSH2 0x1532 DUP5 DUP3 DUP6 ADD PUSH2 0x14C4 JUMP JUMPDEST SWAP2 POP POP SWAP3 SWAP2 POP POP JUMP JUMPDEST PUSH1 0x0 PUSH1 0x20 DUP3 DUP5 SUB SLT ISZERO PUSH2 0x1551 JUMPI PUSH2 0x1550 PUSH2 0xEDC JUMP JUMPDEST JUMPDEST PUSH1 0x0 PUSH2 0x155F DUP5 DUP3 DUP6 ADD PUSH2 0x1446 JUMP JUMPDEST SWAP2 POP POP SWAP3 SWAP2 POP POP JUMP JUMPDEST PUSH1 0x0 PUSH1 0x40 DUP3 ADD SWAP1 POP PUSH2 0x157D PUSH1 0x0 DUP4 ADD DUP6 PUSH2 0x136B JUMP JUMPDEST PUSH2 0x158A PUSH1 0x20 DUP4 ADD DUP5 PUSH2 0xFAD JUMP JUMPDEST SWAP4 SWAP3 POP POP POP JUMP JUMPDEST PUSH1 0x0 DUP1 REVERT JUMPDEST PUSH1 0x0 PUSH8 0xFFFFFFFFFFFFFFFF DUP3 GT ISZERO PUSH2 0x15B1 JUMPI PUSH2 0x15B0 PUSH2 0x139A JUMP JUMPDEST JUMPDEST PUSH2 0x15BA DUP3 PUSH2 0x108E JUMP JUMPDEST SWAP1 POP PUSH1 0x20 DUP2 ADD SWAP1 POP SWAP2 SWAP1 POP JUMP JUMPDEST PUSH1 0x0 PUSH2 0x15DA PUSH2 0x15D5 DUP5 PUSH2 0x1596 JUMP JUMPDEST PUSH2 0x13FA JUMP JUMPDEST SWAP1 POP DUP3 DUP2 MSTORE PUSH1 0x20 DUP2 ADD DUP5 DUP5 DUP5 ADD GT ISZERO PUSH2 0x15F6 JUMPI PUSH2 0x15F5 PUSH2 0x1591 JUMP JUMPDEST JUMPDEST PUSH2 0x1601 DUP5 DUP3 DUP6 PUSH2 0x1064 JUMP JUMPDEST POP SWAP4 SWAP3 POP POP POP JUMP JUMPDEST PUSH1 0x0 DUP3 PUSH1 0x1F DUP4 ADD SLT PUSH2 0x161E JUMPI PUSH2 0x161D PUSH2 0x1395 JUMP JUMPDEST JUMPDEST DUP2 MLOAD PUSH2 0x162E DUP5 DUP3 PUSH1 0x20 DUP7 ADD PUSH2 0x15C7 JUMP JUMPDEST SWAP2 POP POP SWAP3 SWAP2 POP POP JUMP JUMPDEST PUSH1 0x0 PUSH1 0x20 DUP3 DUP5 SUB SLT ISZERO PUSH2 0x164D JUMPI PUSH2 0x164C PUSH2 0xEDC JUMP JUMPDEST JUMPDEST PUSH1 0x0 DUP3 ADD MLOAD PUSH8 0xFFFFFFFFFFFFFFFF DUP2 GT ISZERO PUSH2 0x166B JUMPI PUSH2 0x166A PUSH2 0xEE1 JUMP JUMPDEST JUMPDEST PUSH2 0x1677 DUP5 DUP3 DUP6 ADD PUSH2 0x1609 JUMP JUMPDEST SWAP2 POP POP SWAP3 SWAP2 POP POP JUMP INVALID LOG2 PUSH5 0x6970667358 0x22 SLT KECCAK256 SWAP4 GAS 0x27 PUSH15 0x8A0CF58288CB04AD1033A02A77C2 0xB8 PUSH11 0x5DBBDF044BCA8E977EB989 PUSH5 0x736F6C6343 STOP ADDMOD GT STOP CALLER "
				},
				"gasEstimates": {
					"creation": {
						"codeDepositCost": "1162800",
						"executionCost": "infinite",
						"totalCost": "infinite"
					},
					"external": {
						"getCurrentValue(bytes32)": "infinite",
						"getDataBefore(bytes32,uint256)": "infinite",
						"getIndexForDataBefore(bytes32,uint256)": "infinite",
						"getNewValueCountbyQueryId(bytes32)": "infinite",
						"getTimestampbyQueryIdandIndex(bytes32,uint256)": "infinite",
						"isInDispute(bytes32,uint256)": "infinite",
						"retrieveData(bytes32,uint256)": "infinite",
						"tellor()": "infinite"
					}
				},
				"methodIdentifiers": {
					"getCurrentValue(bytes32)": "adf1639d",
					"getDataBefore(bytes32,uint256)": "a792765f",
					"getIndexForDataBefore(bytes32,uint256)": "29449085",
					"getNewValueCountbyQueryId(bytes32)": "77b03e0d",
					"getTimestampbyQueryIdandIndex(bytes32,uint256)": "ce5e11bf",
					"isInDispute(bytes32,uint256)": "44e87f91",
					"retrieveData(bytes32,uint256)": "c5958af9",
					"tellor()": "1959ad5b"
				}
			},
			"storageLayout": {
				"storage": [
					{
						"astId": 242,
						"contract": "usingtellor/contracts/UsingTellor.sol:UsingTellor",
						"label": "tellor",
						"offset": 0,
						"slot": "0",
						"type": "t_contract(ITellor)1511"
					}
				],
				"types": {
					"t_contract(ITellor)1511": {
						"encoding": "inplace",
						"label": "contract ITellor",
						"numberOfBytes": "20"
					}
				}
			},
			"userdoc": {
				"kind": "user",
				"methods": {},
				"version": 1
			}
		}
	}
}