{
	"contracts/TellorOracle.sol": {
		"TellorOracle": {
			"abi": [
				{
					"inputs": [
						{
							"internalType": "address payable",
							"name": "_tellorAddress",
							"type": "address"
						},
						{
							"internalType": "address",
							"name": "_wrapper",
							"type": "address"
						}
					],
					"stateMutability": "nonpayable",
					"type": "constructor"
				},
				{
					"anonymous": false,
					"inputs": [
						{
							"indexed": false,
							"internalType": "string",
							"name": "message",
							"type": "string"
						}
					],
					"name": "Log",
					"type": "event"
				},
				{
					"inputs": [],
					"name": "Wrapper",
					"outputs": [
						{
							"internalType": "address",
							"name": "",
							"type": "address"
						}
					],
					"stateMutability": "view",
					"type": "function"
				},
				{
					"inputs": [
						{
							"internalType": "address",
							"name": "wrapper",
							"type": "address"
						},
						{
							"internalType": "uint256",
							"name": "nftId",
							"type": "uint256"
						}
					],
					"name": "getBundlePrice",
					"outputs": [
						{
							"internalType": "uint256",
							"name": "",
							"type": "uint256"
						}
					],
					"stateMutability": "view",
					"type": "function"
				},
				{
					"inputs": [
						{
							"internalType": "bytes32",
							"name": "_queryId",
							"type": "bytes32"
						}
					],
					"name": "getCurrentValue",
					"outputs": [
						{
							"internalType": "bool",
							"name": "_ifRetrieve",
							"type": "bool"
						},
						{
							"internalType": "bytes",
							"name": "_value",
							"type": "bytes"
						},
						{
							"internalType": "uint256",
							"name": "_timestampRetrieved",
							"type": "uint256"
						}
					],
					"stateMutability": "view",
					"type": "function"
				},
				{
					"inputs": [
						{
							"internalType": "bytes32",
							"name": "_queryId",
							"type": "bytes32"
						},
						{
							"internalType": "uint256",
							"name": "_timestamp",
							"type": "uint256"
						}
					],
					"name": "getDataBefore",
					"outputs": [
						{
							"internalType": "bool",
							"name": "_ifRetrieve",
							"type": "bool"
						},
						{
							"internalType": "bytes",
							"name": "_value",
							"type": "bytes"
						},
						{
							"internalType": "uint256",
							"name": "_timestampRetrieved",
							"type": "uint256"
						}
					],
					"stateMutability": "view",
					"type": "function"
				},
				{
					"inputs": [
						{
							"internalType": "bytes32",
							"name": "_queryId",
							"type": "bytes32"
						},
						{
							"internalType": "uint256",
							"name": "_timestamp",
							"type": "uint256"
						}
					],
					"name": "getIndexForDataBefore",
					"outputs": [
						{
							"internalType": "bool",
							"name": "_found",
							"type": "bool"
						},
						{
							"internalType": "uint256",
							"name": "_index",
							"type": "uint256"
						}
					],
					"stateMutability": "view",
					"type": "function"
				},
				{
					"inputs": [
						{
							"internalType": "bytes32",
							"name": "_queryId",
							"type": "bytes32"
						}
					],
					"name": "getNewValueCountbyQueryId",
					"outputs": [
						{
							"internalType": "uint256",
							"name": "",
							"type": "uint256"
						}
					],
					"stateMutability": "view",
					"type": "function"
				},
				{
					"inputs": [
						{
							"internalType": "bytes32",
							"name": "_queryId",
							"type": "bytes32"
						},
						{
							"internalType": "uint256",
							"name": "_index",
							"type": "uint256"
						}
					],
					"name": "getTimestampbyQueryIdandIndex",
					"outputs": [
						{
							"internalType": "uint256",
							"name": "",
							"type": "uint256"
						}
					],
					"stateMutability": "view",
					"type": "function"
				},
				{
					"inputs": [
						{
							"internalType": "address",
							"name": "_underlying",
							"type": "address"
						}
					],
					"name": "getUnderlyingPrice",
					"outputs": [
						{
							"internalType": "uint256",
							"name": "",
							"type": "uint256"
						}
					],
					"stateMutability": "view",
					"type": "function"
				},
				{
					"inputs": [
						{
							"internalType": "bytes32",
							"name": "_queryId",
							"type": "bytes32"
						},
						{
							"internalType": "uint256",
							"name": "_timestamp",
							"type": "uint256"
						}
					],
					"name": "isInDispute",
					"outputs": [
						{
							"internalType": "bool",
							"name": "",
							"type": "bool"
						}
					],
					"stateMutability": "view",
					"type": "function"
				},
				{
					"inputs": [
						{
							"internalType": "bytes32",
							"name": "_queryId",
							"type": "bytes32"
						},
						{
							"internalType": "uint256",
							"name": "_timestamp",
							"type": "uint256"
						}
					],
					"name": "retrieveData",
					"outputs": [
						{
							"internalType": "bytes",
							"name": "",
							"type": "bytes"
						}
					],
					"stateMutability": "view",
					"type": "function"
				},
				{
					"inputs": [
						{
							"internalType": "address",
							"name": "tokenAddress",
							"type": "address"
						},
						{
							"internalType": "string",
							"name": "assetName",
							"type": "string"
						}
					],
					"name": "setMapping",
					"outputs": [],
					"stateMutability": "nonpayable",
					"type": "function"
				},
				{
					"inputs": [],
					"name": "tellor",
					"outputs": [
						{
							"internalType": "contract ITellor",
							"name": "",
							"type": "address"
						}
					],
					"stateMutability": "view",
					"type": "function"
				}
			],
			"devdoc": {
				"kind": "dev",
				"methods": {
					"getCurrentValue(bytes32)": {
						"details": "Allows the user to get the latest value for the queryId specified",
						"params": {
							"_queryId": "is the id to look up the value for"
						},
						"returns": {
							"_ifRetrieve": "bool true if non-zero value successfully retrieved",
							"_timestampRetrieved": "the retrieved value's timestamp",
							"_value": "the value retrieved"
						}
					},
					"getDataBefore(bytes32,uint256)": {
						"details": "Retrieves the latest value for the queryId before the specified timestamp",
						"params": {
							"_queryId": "is the queryId to look up the value for",
							"_timestamp": "before which to search for latest value"
						},
						"returns": {
							"_ifRetrieve": "bool true if able to retrieve a non-zero value",
							"_timestampRetrieved": "the value's timestamp",
							"_value": "the value retrieved"
						}
					},
					"getIndexForDataBefore(bytes32,uint256)": {
						"details": "Retrieves latest array index of data before the specified timestamp for the queryId",
						"params": {
							"_queryId": "is the queryId to look up the index for",
							"_timestamp": "is the timestamp before which to search for the latest index"
						},
						"returns": {
							"_found": "whether the index was found",
							"_index": "the latest index found before the specified timestamp"
						}
					},
					"getNewValueCountbyQueryId(bytes32)": {
						"details": "Counts the number of values that have been submitted for the queryId",
						"params": {
							"_queryId": "the id to look up"
						},
						"returns": {
							"_0": "uint256 count of the number of values received for the queryId"
						}
					},
					"isInDispute(bytes32,uint256)": {
						"details": "Determines whether a value with a given queryId and timestamp has been disputed",
						"params": {
							"_queryId": "is the value id to look up",
							"_timestamp": "is the timestamp of the value to look up"
						},
						"returns": {
							"_0": "bool true if queryId/timestamp is under dispute"
						}
					},
					"retrieveData(bytes32,uint256)": {
						"details": "Retrieve value from oracle based on queryId/timestamp",
						"params": {
							"_queryId": "being requested",
							"_timestamp": "to retrieve data/value from"
						},
						"returns": {
							"_0": "bytes value for query/timestamp submitted"
						}
					}
				},
				"version": 1
			},
			"evm": {
				"assembly": "    /* \"contracts/TellorOracle.sol\":349:2983  contract TellorOracle is IPriceOracle, UsingTellor {... */\n  mstore(0x40, 0xa0)\n    /* \"contracts/TellorOracle.sol\":650:787  constructor(address payable _tellorAddress, address _wrapper)... */\n  callvalue\n  dup1\n  iszero\n  tag_1\n  jumpi\n  0x00\n  dup1\n  revert\ntag_1:\n  pop\n  mload(0x40)\n  sub(codesize, bytecodeSize)\n  dup1\n  bytecodeSize\n  dup4\n  codecopy\n  dup2\n  dup2\n  add\n  0x40\n  mstore\n  dup2\n  add\n  swap1\n  tag_2\n  swap2\n  swap1\n  tag_3\n  jump\t// in\ntag_2:\n    /* \"contracts/TellorOracle.sol\":732:746  _tellorAddress */\n  dup2\n    /* \"usingtellor/contracts/UsingTellor.sol\":515:522  _tellor */\n  dup1\n    /* \"usingtellor/contracts/UsingTellor.sol\":498:504  tellor */\n  0x00\n  dup1\n    /* \"usingtellor/contracts/UsingTellor.sol\":498:523  tellor = ITellor(_tellor) */\n  0x0100\n  exp\n  dup2\n  sload\n  dup2\n  0xffffffffffffffffffffffffffffffffffffffff\n  mul\n  not\n  and\n  swap1\n  dup4\n  0xffffffffffffffffffffffffffffffffffffffff\n  and\n  mul\n  or\n  swap1\n  sstore\n  pop\n    /* \"usingtellor/contracts/UsingTellor.sol\":451:530  constructor(address payable _tellor) {... */\n  pop\n    /* \"contracts/TellorOracle.sol\":772:780  _wrapper */\n  dup1\n    /* \"contracts/TellorOracle.sol\":762:780  Wrapper = _wrapper */\n  0xffffffffffffffffffffffffffffffffffffffff\n  and\n  0x80\n  dup2\n  0xffffffffffffffffffffffffffffffffffffffff\n  and\n  dup2\n  mstore\n  pop\n  pop\n    /* \"contracts/TellorOracle.sol\":650:787  constructor(address payable _tellorAddress, address _wrapper)... */\n  pop\n  pop\n    /* \"contracts/TellorOracle.sol\":349:2983  contract TellorOracle is IPriceOracle, UsingTellor {... */\n  jump(tag_8)\n    /* \"#utility.yul\":88:205   */\ntag_10:\n    /* \"#utility.yul\":197:198   */\n  0x00\n    /* \"#utility.yul\":194:195   */\n  dup1\n    /* \"#utility.yul\":187:199   */\n  revert\n    /* \"#utility.yul\":334:460   */\ntag_12:\n    /* \"#utility.yul\":371:378   */\n  0x00\n    /* \"#utility.yul\":411:453   */\n  0xffffffffffffffffffffffffffffffffffffffff\n    /* \"#utility.yul\":404:409   */\n  dup3\n    /* \"#utility.yul\":400:454   */\n  and\n    /* \"#utility.yul\":389:454   */\n  swap1\n  pop\n    /* \"#utility.yul\":334:460   */\n  swap2\n  swap1\n  pop\n  jump\t// out\n    /* \"#utility.yul\":466:570   */\ntag_13:\n    /* \"#utility.yul\":511:518   */\n  0x00\n    /* \"#utility.yul\":540:564   */\n  tag_25\n    /* \"#utility.yul\":558:563   */\n  dup3\n    /* \"#utility.yul\":540:564   */\n  tag_12\n  jump\t// in\ntag_25:\n    /* \"#utility.yul\":529:564   */\n  swap1\n  pop\n    /* \"#utility.yul\":466:570   */\n  swap2\n  swap1\n  pop\n  jump\t// out\n    /* \"#utility.yul\":576:714   */\ntag_14:\n    /* \"#utility.yul\":657:689   */\n  tag_27\n    /* \"#utility.yul\":683:688   */\n  dup2\n    /* \"#utility.yul\":657:689   */\n  tag_13\n  jump\t// in\ntag_27:\n    /* \"#utility.yul\":650:655   */\n  dup2\n    /* \"#utility.yul\":647:690   */\n  eq\n    /* \"#utility.yul\":637:708   */\n  tag_28\n  jumpi\n    /* \"#utility.yul\":704:705   */\n  0x00\n    /* \"#utility.yul\":701:702   */\n  dup1\n    /* \"#utility.yul\":694:706   */\n  revert\n    /* \"#utility.yul\":637:708   */\ntag_28:\n    /* \"#utility.yul\":576:714   */\n  pop\n  jump\t// out\n    /* \"#utility.yul\":720:879   */\ntag_15:\n    /* \"#utility.yul\":785:790   */\n  0x00\n    /* \"#utility.yul\":816:822   */\n  dup2\n    /* \"#utility.yul\":810:823   */\n  mload\n    /* \"#utility.yul\":801:823   */\n  swap1\n  pop\n    /* \"#utility.yul\":832:873   */\n  tag_30\n    /* \"#utility.yul\":867:872   */\n  dup2\n    /* \"#utility.yul\":832:873   */\n  tag_14\n  jump\t// in\ntag_30:\n    /* \"#utility.yul\":720:879   */\n  swap3\n  swap2\n  pop\n  pop\n  jump\t// out\n    /* \"#utility.yul\":885:981   */\ntag_16:\n    /* \"#utility.yul\":922:929   */\n  0x00\n    /* \"#utility.yul\":951:975   */\n  tag_32\n    /* \"#utility.yul\":969:974   */\n  dup3\n    /* \"#utility.yul\":951:975   */\n  tag_12\n  jump\t// in\ntag_32:\n    /* \"#utility.yul\":940:975   */\n  swap1\n  pop\n    /* \"#utility.yul\":885:981   */\n  swap2\n  swap1\n  pop\n  jump\t// out\n    /* \"#utility.yul\":987:1109   */\ntag_17:\n    /* \"#utility.yul\":1060:1084   */\n  tag_34\n    /* \"#utility.yul\":1078:1083   */\n  dup2\n    /* \"#utility.yul\":1060:1084   */\n  tag_16\n  jump\t// in\ntag_34:\n    /* \"#utility.yul\":1053:1058   */\n  dup2\n    /* \"#utility.yul\":1050:1085   */\n  eq\n    /* \"#utility.yul\":1040:1103   */\n  tag_35\n  jumpi\n    /* \"#utility.yul\":1099:1100   */\n  0x00\n    /* \"#utility.yul\":1096:1097   */\n  dup1\n    /* \"#utility.yul\":1089:1101   */\n  revert\n    /* \"#utility.yul\":1040:1103   */\ntag_35:\n    /* \"#utility.yul\":987:1109   */\n  pop\n  jump\t// out\n    /* \"#utility.yul\":1115:1258   */\ntag_18:\n    /* \"#utility.yul\":1172:1177   */\n  0x00\n    /* \"#utility.yul\":1203:1209   */\n  dup2\n    /* \"#utility.yul\":1197:1210   */\n  mload\n    /* \"#utility.yul\":1188:1210   */\n  swap1\n  pop\n    /* \"#utility.yul\":1219:1252   */\n  tag_37\n    /* \"#utility.yul\":1246:1251   */\n  dup2\n    /* \"#utility.yul\":1219:1252   */\n  tag_17\n  jump\t// in\ntag_37:\n    /* \"#utility.yul\":1115:1258   */\n  swap3\n  swap2\n  pop\n  pop\n  jump\t// out\n    /* \"#utility.yul\":1264:1787   */\ntag_3:\n    /* \"#utility.yul\":1351:1357   */\n  0x00\n    /* \"#utility.yul\":1359:1365   */\n  dup1\n    /* \"#utility.yul\":1408:1410   */\n  0x40\n    /* \"#utility.yul\":1396:1405   */\n  dup4\n    /* \"#utility.yul\":1387:1394   */\n  dup6\n    /* \"#utility.yul\":1383:1406   */\n  sub\n    /* \"#utility.yul\":1379:1411   */\n  slt\n    /* \"#utility.yul\":1376:1495   */\n  iszero\n  tag_39\n  jumpi\n    /* \"#utility.yul\":1414:1493   */\n  tag_40\n  tag_10\n  jump\t// in\ntag_40:\n    /* \"#utility.yul\":1376:1495   */\ntag_39:\n    /* \"#utility.yul\":1534:1535   */\n  0x00\n    /* \"#utility.yul\":1559:1631   */\n  tag_41\n    /* \"#utility.yul\":1623:1630   */\n  dup6\n    /* \"#utility.yul\":1614:1620   */\n  dup3\n    /* \"#utility.yul\":1603:1612   */\n  dup7\n    /* \"#utility.yul\":1599:1621   */\n  add\n    /* \"#utility.yul\":1559:1631   */\n  tag_15\n  jump\t// in\ntag_41:\n    /* \"#utility.yul\":1549:1631   */\n  swap3\n  pop\n    /* \"#utility.yul\":1505:1641   */\n  pop\n    /* \"#utility.yul\":1680:1682   */\n  0x20\n    /* \"#utility.yul\":1706:1770   */\n  tag_42\n    /* \"#utility.yul\":1762:1769   */\n  dup6\n    /* \"#utility.yul\":1753:1759   */\n  dup3\n    /* \"#utility.yul\":1742:1751   */\n  dup7\n    /* \"#utility.yul\":1738:1760   */\n  add\n    /* \"#utility.yul\":1706:1770   */\n  tag_18\n  jump\t// in\ntag_42:\n    /* \"#utility.yul\":1696:1770   */\n  swap2\n  pop\n    /* \"#utility.yul\":1651:1780   */\n  pop\n    /* \"#utility.yul\":1264:1787   */\n  swap3\n  pop\n  swap3\n  swap1\n  pop\n  jump\t// out\n    /* \"contracts/TellorOracle.sol\":349:2983  contract TellorOracle is IPriceOracle, UsingTellor {... */\ntag_8:\n  mload(0x80)\n  codecopy(0x00, dataOffset(sub_0), dataSize(sub_0))\n  0x00\n  assignImmutable(\"0x6b3e710f3089a74ecb6b0f5948e5ff07a3db6ba4da475d2be17624ba96b95b\")\n  return(0x00, dataSize(sub_0))\nstop\n\nsub_0: assembly {\n        /* \"contracts/TellorOracle.sol\":349:2983  contract TellorOracle is IPriceOracle, UsingTellor {... */\n      mstore(0x40, 0x80)\n      callvalue\n      dup1\n      iszero\n      tag_1\n      jumpi\n      0x00\n      dup1\n      revert\n    tag_1:\n      pop\n      jumpi(tag_2, lt(calldatasize, 0x04))\n      shr(0xe0, calldataload(0x00))\n      dup1\n      0x77b03e0d\n      gt\n      tag_15\n      jumpi\n      dup1\n      0x77b03e0d\n      eq\n      tag_9\n      jumpi\n      dup1\n      0xa792765f\n      eq\n      tag_10\n      jumpi\n      dup1\n      0xadf1639d\n      eq\n      tag_11\n      jumpi\n      dup1\n      0xc5958af9\n      eq\n      tag_12\n      jumpi\n      dup1\n      0xce5e11bf\n      eq\n      tag_13\n      jumpi\n      dup1\n      0xfc57d4df\n      eq\n      tag_14\n      jumpi\n      jump(tag_2)\n    tag_15:\n      dup1\n      0x06cd702c\n      eq\n      tag_3\n      jumpi\n      dup1\n      0x08a130ab\n      eq\n      tag_4\n      jumpi\n      dup1\n      0x1959ad5b\n      eq\n      tag_5\n      jumpi\n      dup1\n      0x29449085\n      eq\n      tag_6\n      jumpi\n      dup1\n      0x44e87f91\n      eq\n      tag_7\n      jumpi\n      dup1\n      0x4cdf47cc\n      eq\n      tag_8\n      jumpi\n    tag_2:\n      0x00\n      dup1\n      revert\n        /* \"contracts/TellorOracle.sol\":793:1908  function getBundlePrice(address wrapper, uint256 nftId)... */\n    tag_3:\n      tag_16\n      0x04\n      dup1\n      calldatasize\n      sub\n      dup2\n      add\n      swap1\n      tag_17\n      swap2\n      swap1\n      tag_18\n      jump\t// in\n    tag_17:\n      tag_19\n      jump\t// in\n    tag_16:\n      mload(0x40)\n      tag_20\n      swap2\n      swap1\n      tag_21\n      jump\t// in\n    tag_20:\n      mload(0x40)\n      dup1\n      swap2\n      sub\n      swap1\n      return\n        /* \"contracts/TellorOracle.sol\":553:585  address public immutable Wrapper */\n    tag_4:\n      tag_22\n      tag_23\n      jump\t// in\n    tag_22:\n      mload(0x40)\n      tag_24\n      swap2\n      swap1\n      tag_25\n      jump\t// in\n    tag_24:\n      mload(0x40)\n      dup1\n      swap2\n      sub\n      swap1\n      return\n        /* \"usingtellor/contracts/UsingTellor.sol\":274:295  ITellor public tellor */\n    tag_5:\n      tag_26\n      tag_27\n      jump\t// in\n    tag_26:\n      mload(0x40)\n      tag_28\n      swap2\n      swap1\n      tag_29\n      jump\t// in\n    tag_28:\n      mload(0x40)\n      dup1\n      swap2\n      sub\n      swap1\n      return\n        /* \"usingtellor/contracts/UsingTellor.sol\":3013:5168  function getIndexForDataBefore(bytes32 _queryId, uint256 _timestamp)... */\n    tag_6:\n      tag_30\n      0x04\n      dup1\n      calldatasize\n      sub\n      dup2\n      add\n      swap1\n      tag_31\n      swap2\n      swap1\n      tag_32\n      jump\t// in\n    tag_31:\n      tag_33\n      jump\t// in\n    tag_30:\n      mload(0x40)\n      tag_34\n      swap3\n      swap2\n      swap1\n      tag_35\n      jump\t// in\n    tag_34:\n      mload(0x40)\n      dup1\n      swap2\n      sub\n      swap1\n      return\n        /* \"usingtellor/contracts/UsingTellor.sol\":6929:7876  function isInDispute(bytes32 _queryId, uint256 _timestamp)... */\n    tag_7:\n      tag_36\n      0x04\n      dup1\n      calldatasize\n      sub\n      dup2\n      add\n      swap1\n      tag_37\n      swap2\n      swap1\n      tag_32\n      jump\t// in\n    tag_37:\n      tag_38\n      jump\t// in\n    tag_36:\n      mload(0x40)\n      tag_39\n      swap2\n      swap1\n      tag_40\n      jump\t// in\n    tag_39:\n      mload(0x40)\n      dup1\n      swap2\n      sub\n      swap1\n      return\n        /* \"contracts/TellorOracle.sol\":2186:2322  function setMapping(address tokenAddress, string calldata assetName) external {... */\n    tag_8:\n      tag_41\n      0x04\n      dup1\n      calldatasize\n      sub\n      dup2\n      add\n      swap1\n      tag_42\n      swap2\n      swap1\n      tag_43\n      jump\t// in\n    tag_42:\n      tag_44\n      jump\t// in\n    tag_41:\n      stop\n        /* \"usingtellor/contracts/UsingTellor.sol\":5390:5874  function getNewValueCountbyQueryId(bytes32 _queryId)... */\n    tag_9:\n      tag_45\n      0x04\n      dup1\n      calldatasize\n      sub\n      dup2\n      add\n      swap1\n      tag_46\n      swap2\n      swap1\n      tag_47\n      jump\t// in\n    tag_46:\n      tag_48\n      jump\t// in\n    tag_45:\n      mload(0x40)\n      tag_49\n      swap2\n      swap1\n      tag_21\n      jump\t// in\n    tag_49:\n      mload(0x40)\n      dup1\n      swap2\n      sub\n      swap1\n      return\n        /* \"usingtellor/contracts/UsingTellor.sol\":1919:2576  function getDataBefore(bytes32 _queryId, uint256 _timestamp)... */\n    tag_10:\n      tag_50\n      0x04\n      dup1\n      calldatasize\n      sub\n      dup2\n      add\n      swap1\n      tag_51\n      swap2\n      swap1\n      tag_32\n      jump\t// in\n    tag_51:\n      tag_52\n      jump\t// in\n    tag_50:\n      mload(0x40)\n      tag_53\n      swap4\n      swap3\n      swap2\n      swap1\n      tag_54\n      jump\t// in\n    tag_53:\n      mload(0x40)\n      dup1\n      swap2\n      sub\n      swap1\n      return\n        /* \"usingtellor/contracts/UsingTellor.sol\":891:1510  function getCurrentValue(bytes32 _queryId)... */\n    tag_11:\n      tag_55\n      0x04\n      dup1\n      calldatasize\n      sub\n      dup2\n      add\n      swap1\n      tag_56\n      swap2\n      swap1\n      tag_47\n      jump\t// in\n    tag_56:\n      tag_57\n      jump\t// in\n    tag_55:\n      mload(0x40)\n      tag_58\n      swap4\n      swap3\n      swap2\n      swap1\n      tag_54\n      jump\t// in\n    tag_58:\n      mload(0x40)\n      dup1\n      swap2\n      sub\n      swap1\n      return\n        /* \"usingtellor/contracts/UsingTellor.sol\":8113:8618  function retrieveData(bytes32 _queryId, uint256 _timestamp)... */\n    tag_12:\n      tag_59\n      0x04\n      dup1\n      calldatasize\n      sub\n      dup2\n      add\n      swap1\n      tag_60\n      swap2\n      swap1\n      tag_32\n      jump\t// in\n    tag_60:\n      tag_61\n      jump\t// in\n    tag_59:\n      mload(0x40)\n      tag_62\n      swap2\n      swap1\n      tag_63\n      jump\t// in\n    tag_62:\n      mload(0x40)\n      dup1\n      swap2\n      sub\n      swap1\n      return\n        /* \"usingtellor/contracts/UsingTellor.sol\":6108:6636  function getTimestampbyQueryIdandIndex(bytes32 _queryId, uint256 _index)... */\n    tag_13:\n      tag_64\n      0x04\n      dup1\n      calldatasize\n      sub\n      dup2\n      add\n      swap1\n      tag_65\n      swap2\n      swap1\n      tag_32\n      jump\t// in\n    tag_65:\n      tag_66\n      jump\t// in\n    tag_64:\n      mload(0x40)\n      tag_67\n      swap2\n      swap1\n      tag_21\n      jump\t// in\n    tag_67:\n      mload(0x40)\n      dup1\n      swap2\n      sub\n      swap1\n      return\n        /* \"contracts/TellorOracle.sol\":1914:2079  function getUnderlyingPrice(address _underlying)... */\n    tag_14:\n      tag_68\n      0x04\n      dup1\n      calldatasize\n      sub\n      dup2\n      add\n      swap1\n      tag_69\n      swap2\n      swap1\n      tag_70\n      jump\t// in\n    tag_69:\n      tag_71\n      jump\t// in\n    tag_68:\n      mload(0x40)\n      tag_72\n      swap2\n      swap1\n      tag_21\n      jump\t// in\n    tag_72:\n      mload(0x40)\n      dup1\n      swap2\n      sub\n      swap1\n      return\n        /* \"contracts/TellorOracle.sol\":793:1908  function getBundlePrice(address wrapper, uint256 nftId)... */\n    tag_19:\n        /* \"contracts/TellorOracle.sol\":888:895  uint256 */\n      0x00\n        /* \"contracts/TellorOracle.sol\":1003:1010  Wrapper */\n      immutable(\"0x6b3e710f3089a74ecb6b0f5948e5ff07a3db6ba4da475d2be17624ba96b95b\")\n        /* \"contracts/TellorOracle.sol\":992:1010  wrapper != Wrapper */\n      0xffffffffffffffffffffffffffffffffffffffff\n      and\n        /* \"contracts/TellorOracle.sol\":992:999  wrapper */\n      dup4\n        /* \"contracts/TellorOracle.sol\":992:1010  wrapper != Wrapper */\n      0xffffffffffffffffffffffffffffffffffffffff\n      and\n      eq\n        /* \"contracts/TellorOracle.sol\":988:1047  if (wrapper != Wrapper) return _getUnderlyingPrice(wrapper) */\n      tag_74\n      jumpi\n        /* \"contracts/TellorOracle.sol\":1019:1047  _getUnderlyingPrice(wrapper) */\n      tag_75\n        /* \"contracts/TellorOracle.sol\":1039:1046  wrapper */\n      dup4\n        /* \"contracts/TellorOracle.sol\":1019:1038  _getUnderlyingPrice */\n      tag_76\n        /* \"contracts/TellorOracle.sol\":1019:1047  _getUnderlyingPrice(wrapper) */\n      jump\t// in\n    tag_75:\n        /* \"contracts/TellorOracle.sol\":1012:1047  return _getUnderlyingPrice(wrapper) */\n      swap1\n      pop\n      jump(tag_73)\n        /* \"contracts/TellorOracle.sol\":988:1047  if (wrapper != Wrapper) return _getUnderlyingPrice(wrapper) */\n    tag_74:\n        /* \"contracts/TellorOracle.sol\":1057:1080  address[] memory tokens */\n      0x00\n        /* \"contracts/TellorOracle.sol\":1092:1099  wrapper */\n      dup4\n        /* \"contracts/TellorOracle.sol\":1083:1110  IWrapper(wrapper).getTokens */\n      0xffffffffffffffffffffffffffffffffffffffff\n      and\n      0xd3c9cc26\n        /* \"contracts/TellorOracle.sol\":1111:1116  nftId */\n      dup5\n        /* \"contracts/TellorOracle.sol\":1083:1117  IWrapper(wrapper).getTokens(nftId) */\n      mload(0x40)\n      dup3\n      0xffffffff\n      and\n      0xe0\n      shl\n      dup2\n      mstore\n      0x04\n      add\n      tag_77\n      swap2\n      swap1\n      tag_21\n      jump\t// in\n    tag_77:\n      0x00\n      mload(0x40)\n      dup1\n      dup4\n      sub\n      dup2\n      dup7\n      gas\n      staticcall\n      iszero\n      dup1\n      iszero\n      tag_79\n      jumpi\n      returndatasize\n      0x00\n      dup1\n      returndatacopy\n      revert(0x00, returndatasize)\n    tag_79:\n      pop\n      pop\n      pop\n      pop\n      mload(0x40)\n      returndatasize\n      0x00\n      dup3\n      returndatacopy\n      returndatasize\n      not(0x1f)\n      0x1f\n      dup3\n      add\n      and\n      dup3\n      add\n      dup1\n      0x40\n      mstore\n      pop\n      dup2\n      add\n      swap1\n      tag_80\n      swap2\n      swap1\n      tag_81\n      jump\t// in\n    tag_80:\n        /* \"contracts/TellorOracle.sol\":1057:1117  address[] memory tokens = IWrapper(wrapper).getTokens(nftId) */\n      swap1\n      pop\n        /* \"contracts/TellorOracle.sol\":1127:1151  uint256[] memory amounts */\n      0x00\n        /* \"contracts/TellorOracle.sol\":1163:1170  wrapper */\n      dup5\n        /* \"contracts/TellorOracle.sol\":1154:1182  IWrapper(wrapper).getAmounts */\n      0xffffffffffffffffffffffffffffffffffffffff\n      and\n      0x59f7cf50\n        /* \"contracts/TellorOracle.sol\":1183:1188  nftId */\n      dup6\n        /* \"contracts/TellorOracle.sol\":1154:1189  IWrapper(wrapper).getAmounts(nftId) */\n      mload(0x40)\n      dup3\n      0xffffffff\n      and\n      0xe0\n      shl\n      dup2\n      mstore\n      0x04\n      add\n      tag_82\n      swap2\n      swap1\n      tag_21\n      jump\t// in\n    tag_82:\n      0x00\n      mload(0x40)\n      dup1\n      dup4\n      sub\n      dup2\n      dup7\n      gas\n      staticcall\n      iszero\n      dup1\n      iszero\n      tag_84\n      jumpi\n      returndatasize\n      0x00\n      dup1\n      returndatacopy\n      revert(0x00, returndatasize)\n    tag_84:\n      pop\n      pop\n      pop\n      pop\n      mload(0x40)\n      returndatasize\n      0x00\n      dup3\n      returndatacopy\n      returndatasize\n      not(0x1f)\n      0x1f\n      dup3\n      add\n      and\n      dup3\n      add\n      dup1\n      0x40\n      mstore\n      pop\n      dup2\n      add\n      swap1\n      tag_85\n      swap2\n      swap1\n      tag_86\n      jump\t// in\n    tag_85:\n        /* \"contracts/TellorOracle.sol\":1127:1189  uint256[] memory amounts = IWrapper(wrapper).getAmounts(nftId) */\n      swap1\n      pop\n        /* \"contracts/TellorOracle.sol\":1263:1284  uint256 totalPriceUSD */\n      0x00\n        /* \"contracts/TellorOracle.sol\":1315:1329  uint256 length */\n      dup1\n        /* \"contracts/TellorOracle.sol\":1332:1338  tokens */\n      dup4\n        /* \"contracts/TellorOracle.sol\":1332:1345  tokens.length */\n      mload\n        /* \"contracts/TellorOracle.sol\":1315:1345  uint256 length = tokens.length */\n      swap1\n      pop\n        /* \"contracts/TellorOracle.sol\":1361:1370  uint256 i */\n      0x00\n        /* \"contracts/TellorOracle.sol\":1356:1872  for (uint256 i = 0; i < length; ) {... */\n    tag_87:\n        /* \"contracts/TellorOracle.sol\":1380:1386  length */\n      dup2\n        /* \"contracts/TellorOracle.sol\":1376:1377  i */\n      dup2\n        /* \"contracts/TellorOracle.sol\":1376:1386  i < length */\n      lt\n        /* \"contracts/TellorOracle.sol\":1356:1872  for (uint256 i = 0; i < length; ) {... */\n      iszero\n      tag_88\n      jumpi\n        /* \"contracts/TellorOracle.sol\":1680:1703  uint256 underlyingPrice */\n      0x00\n        /* \"contracts/TellorOracle.sol\":1706:1734  _getUnderlyingPrice(wrapper) */\n      tag_90\n        /* \"contracts/TellorOracle.sol\":1726:1733  wrapper */\n      dup10\n        /* \"contracts/TellorOracle.sol\":1706:1725  _getUnderlyingPrice */\n      tag_76\n        /* \"contracts/TellorOracle.sol\":1706:1734  _getUnderlyingPrice(wrapper) */\n      jump\t// in\n    tag_90:\n        /* \"contracts/TellorOracle.sol\":1680:1734  uint256 underlyingPrice = _getUnderlyingPrice(wrapper) */\n      swap1\n      pop\n        /* \"contracts/TellorOracle.sol\":1772:1773  0 */\n      0x00\n        /* \"contracts/TellorOracle.sol\":1753:1768  underlyingPrice */\n      dup2\n        /* \"contracts/TellorOracle.sol\":1753:1773  underlyingPrice == 0 */\n      sub\n        /* \"contracts/TellorOracle.sol\":1749:1861  if (underlyingPrice == 0) {... */\n      tag_91\n      jumpi\n        /* \"contracts/TellorOracle.sol\":1810:1825  underlyingPrice */\n      dup1\n        /* \"contracts/TellorOracle.sol\":1793:1825  totalPriceUSD += underlyingPrice */\n      dup5\n      tag_92\n      swap2\n      swap1\n      tag_93\n      jump\t// in\n    tag_92:\n      swap4\n      pop\n        /* \"contracts/TellorOracle.sol\":1843:1846  ++i */\n      dup2\n      tag_94\n      swap1\n      tag_95\n      jump\t// in\n    tag_94:\n      swap2\n      pop\n        /* \"contracts/TellorOracle.sol\":1749:1861  if (underlyingPrice == 0) {... */\n    tag_91:\n        /* \"contracts/TellorOracle.sol\":1390:1872  {... */\n      pop\n        /* \"contracts/TellorOracle.sol\":1356:1872  for (uint256 i = 0; i < length; ) {... */\n      jump(tag_87)\n    tag_88:\n      pop\n        /* \"contracts/TellorOracle.sol\":1888:1901  totalPriceUSD */\n      dup2\n        /* \"contracts/TellorOracle.sol\":1881:1901  return totalPriceUSD */\n      swap5\n      pop\n      pop\n      pop\n      pop\n      pop\n        /* \"contracts/TellorOracle.sol\":793:1908  function getBundlePrice(address wrapper, uint256 nftId)... */\n    tag_73:\n      swap3\n      swap2\n      pop\n      pop\n      jump\t// out\n        /* \"contracts/TellorOracle.sol\":553:585  address public immutable Wrapper */\n    tag_23:\n      immutable(\"0x6b3e710f3089a74ecb6b0f5948e5ff07a3db6ba4da475d2be17624ba96b95b\")\n      dup2\n      jump\t// out\n        /* \"usingtellor/contracts/UsingTellor.sol\":274:295  ITellor public tellor */\n    tag_27:\n      0x00\n      dup1\n      sload\n      swap1\n      0x0100\n      exp\n      swap1\n      div\n      0xffffffffffffffffffffffffffffffffffffffff\n      and\n      dup2\n      jump\t// out\n        /* \"usingtellor/contracts/UsingTellor.sol\":3013:5168  function getIndexForDataBefore(bytes32 _queryId, uint256 _timestamp)... */\n    tag_33:\n        /* \"usingtellor/contracts/UsingTellor.sol\":3127:3138  bool _found */\n      0x00\n        /* \"usingtellor/contracts/UsingTellor.sol\":3140:3154  uint256 _index */\n      dup1\n        /* \"usingtellor/contracts/UsingTellor.sol\":3170:3184  uint256 _count */\n      0x00\n        /* \"usingtellor/contracts/UsingTellor.sol\":3187:3222  getNewValueCountbyQueryId(_queryId) */\n      tag_97\n        /* \"usingtellor/contracts/UsingTellor.sol\":3213:3221  _queryId */\n      dup6\n        /* \"usingtellor/contracts/UsingTellor.sol\":3187:3212  getNewValueCountbyQueryId */\n      tag_48\n        /* \"usingtellor/contracts/UsingTellor.sol\":3187:3222  getNewValueCountbyQueryId(_queryId) */\n      jump\t// in\n    tag_97:\n        /* \"usingtellor/contracts/UsingTellor.sol\":3170:3222  uint256 _count = getNewValueCountbyQueryId(_queryId) */\n      swap1\n      pop\n        /* \"usingtellor/contracts/UsingTellor.sol\":3246:3247  0 */\n      0x00\n        /* \"usingtellor/contracts/UsingTellor.sol\":3237:3243  _count */\n      dup2\n        /* \"usingtellor/contracts/UsingTellor.sol\":3237:3247  _count > 0 */\n      gt\n        /* \"usingtellor/contracts/UsingTellor.sol\":3233:5135  if (_count > 0) {... */\n      iszero\n      tag_98\n      jumpi\n        /* \"usingtellor/contracts/UsingTellor.sol\":3263:3277  uint256 middle */\n      0x00\n        /* \"usingtellor/contracts/UsingTellor.sol\":3291:3304  uint256 start */\n      dup1\n        /* \"usingtellor/contracts/UsingTellor.sol\":3307:3308  0 */\n      0x00\n        /* \"usingtellor/contracts/UsingTellor.sol\":3291:3308  uint256 start = 0 */\n      swap1\n      pop\n        /* \"usingtellor/contracts/UsingTellor.sol\":3322:3333  uint256 end */\n      0x00\n        /* \"usingtellor/contracts/UsingTellor.sol\":3345:3346  1 */\n      0x01\n        /* \"usingtellor/contracts/UsingTellor.sol\":3336:3342  _count */\n      dup5\n        /* \"usingtellor/contracts/UsingTellor.sol\":3336:3346  _count - 1 */\n      tag_99\n      swap2\n      swap1\n      tag_100\n      jump\t// in\n    tag_99:\n        /* \"usingtellor/contracts/UsingTellor.sol\":3322:3346  uint256 end = _count - 1 */\n      swap1\n      pop\n        /* \"usingtellor/contracts/UsingTellor.sol\":3360:3373  uint256 _time */\n      0x00\n        /* \"usingtellor/contracts/UsingTellor.sol\":3461:3507  getTimestampbyQueryIdandIndex(_queryId, start) */\n      tag_101\n        /* \"usingtellor/contracts/UsingTellor.sol\":3491:3499  _queryId */\n      dup10\n        /* \"usingtellor/contracts/UsingTellor.sol\":3501:3506  start */\n      dup5\n        /* \"usingtellor/contracts/UsingTellor.sol\":3461:3490  getTimestampbyQueryIdandIndex */\n      tag_66\n        /* \"usingtellor/contracts/UsingTellor.sol\":3461:3507  getTimestampbyQueryIdandIndex(_queryId, start) */\n      jump\t// in\n    tag_101:\n        /* \"usingtellor/contracts/UsingTellor.sol\":3453:3507  _time = getTimestampbyQueryIdandIndex(_queryId, start) */\n      swap1\n      pop\n        /* \"usingtellor/contracts/UsingTellor.sol\":3534:3544  _timestamp */\n      dup8\n        /* \"usingtellor/contracts/UsingTellor.sol\":3525:3530  _time */\n      dup2\n        /* \"usingtellor/contracts/UsingTellor.sol\":3525:3544  _time >= _timestamp */\n      lt\n        /* \"usingtellor/contracts/UsingTellor.sol\":3521:3563  if (_time >= _timestamp) return (false, 0) */\n      tag_102\n      jumpi\n        /* \"usingtellor/contracts/UsingTellor.sol\":3554:3559  false */\n      0x00\n        /* \"usingtellor/contracts/UsingTellor.sol\":3561:3562  0 */\n      dup1\n        /* \"usingtellor/contracts/UsingTellor.sol\":3546:3563  return (false, 0) */\n      swap7\n      pop\n      swap7\n      pop\n      pop\n      pop\n      pop\n      pop\n      pop\n      jump(tag_96)\n        /* \"usingtellor/contracts/UsingTellor.sol\":3521:3563  if (_time >= _timestamp) return (false, 0) */\n    tag_102:\n        /* \"usingtellor/contracts/UsingTellor.sol\":3585:3629  getTimestampbyQueryIdandIndex(_queryId, end) */\n      tag_103\n        /* \"usingtellor/contracts/UsingTellor.sol\":3615:3623  _queryId */\n      dup10\n        /* \"usingtellor/contracts/UsingTellor.sol\":3625:3628  end */\n      dup4\n        /* \"usingtellor/contracts/UsingTellor.sol\":3585:3614  getTimestampbyQueryIdandIndex */\n      tag_66\n        /* \"usingtellor/contracts/UsingTellor.sol\":3585:3629  getTimestampbyQueryIdandIndex(_queryId, end) */\n      jump\t// in\n    tag_103:\n        /* \"usingtellor/contracts/UsingTellor.sol\":3577:3629  _time = getTimestampbyQueryIdandIndex(_queryId, end) */\n      swap1\n      pop\n        /* \"usingtellor/contracts/UsingTellor.sol\":3655:3665  _timestamp */\n      dup8\n        /* \"usingtellor/contracts/UsingTellor.sol\":3647:3652  _time */\n      dup2\n        /* \"usingtellor/contracts/UsingTellor.sol\":3647:3665  _time < _timestamp */\n      lt\n        /* \"usingtellor/contracts/UsingTellor.sol\":3643:3685  if (_time < _timestamp) return (true, end) */\n      iszero\n      tag_104\n      jumpi\n        /* \"usingtellor/contracts/UsingTellor.sol\":3675:3679  true */\n      0x01\n        /* \"usingtellor/contracts/UsingTellor.sol\":3681:3684  end */\n      dup3\n        /* \"usingtellor/contracts/UsingTellor.sol\":3667:3685  return (true, end) */\n      swap7\n      pop\n      swap7\n      pop\n      pop\n      pop\n      pop\n      pop\n      pop\n      jump(tag_96)\n        /* \"usingtellor/contracts/UsingTellor.sol\":3643:3685  if (_time < _timestamp) return (true, end) */\n    tag_104:\n        /* \"usingtellor/contracts/UsingTellor.sol\":3775:5125  while (true) {... */\n    tag_105:\n        /* \"usingtellor/contracts/UsingTellor.sol\":3782:3786  true */\n      0x01\n        /* \"usingtellor/contracts/UsingTellor.sol\":3775:5125  while (true) {... */\n      iszero\n      tag_106\n      jumpi\n        /* \"usingtellor/contracts/UsingTellor.sol\":3839:3844  start */\n      dup3\n        /* \"usingtellor/contracts/UsingTellor.sol\":3835:3836  1 */\n      0x01\n        /* \"usingtellor/contracts/UsingTellor.sol\":3831:3832  2 */\n      0x02\n        /* \"usingtellor/contracts/UsingTellor.sol\":3822:3827  start */\n      dup6\n        /* \"usingtellor/contracts/UsingTellor.sol\":3816:3819  end */\n      dup6\n        /* \"usingtellor/contracts/UsingTellor.sol\":3816:3827  end - start */\n      tag_107\n      swap2\n      swap1\n      tag_100\n      jump\t// in\n    tag_107:\n        /* \"usingtellor/contracts/UsingTellor.sol\":3815:3832  (end - start) / 2 */\n      tag_108\n      swap2\n      swap1\n      tag_109\n      jump\t// in\n    tag_108:\n        /* \"usingtellor/contracts/UsingTellor.sol\":3815:3836  (end - start) / 2 + 1 */\n      tag_110\n      swap2\n      swap1\n      tag_93\n      jump\t// in\n    tag_110:\n        /* \"usingtellor/contracts/UsingTellor.sol\":3815:3844  (end - start) / 2 + 1 + start */\n      tag_111\n      swap2\n      swap1\n      tag_93\n      jump\t// in\n    tag_111:\n        /* \"usingtellor/contracts/UsingTellor.sol\":3806:3844  middle = (end - start) / 2 + 1 + start */\n      swap4\n      pop\n        /* \"usingtellor/contracts/UsingTellor.sol\":3870:3917  getTimestampbyQueryIdandIndex(_queryId, middle) */\n      tag_112\n        /* \"usingtellor/contracts/UsingTellor.sol\":3900:3908  _queryId */\n      dup10\n        /* \"usingtellor/contracts/UsingTellor.sol\":3910:3916  middle */\n      dup6\n        /* \"usingtellor/contracts/UsingTellor.sol\":3870:3899  getTimestampbyQueryIdandIndex */\n      tag_66\n        /* \"usingtellor/contracts/UsingTellor.sol\":3870:3917  getTimestampbyQueryIdandIndex(_queryId, middle) */\n      jump\t// in\n    tag_112:\n        /* \"usingtellor/contracts/UsingTellor.sol\":3862:3917  _time = getTimestampbyQueryIdandIndex(_queryId, middle) */\n      swap1\n      pop\n        /* \"usingtellor/contracts/UsingTellor.sol\":3947:3957  _timestamp */\n      dup8\n        /* \"usingtellor/contracts/UsingTellor.sol\":3939:3944  _time */\n      dup2\n        /* \"usingtellor/contracts/UsingTellor.sol\":3939:3957  _time < _timestamp */\n      lt\n        /* \"usingtellor/contracts/UsingTellor.sol\":3935:4987  if (_time < _timestamp) {... */\n      iszero\n      tag_113\n      jumpi\n        /* \"usingtellor/contracts/UsingTellor.sol\":4028:4045  uint256 _nextTime */\n      0x00\n        /* \"usingtellor/contracts/UsingTellor.sol\":4048:4169  getTimestampbyQueryIdandIndex(... */\n      tag_114\n        /* \"usingtellor/contracts/UsingTellor.sol\":4103:4111  _queryId */\n      dup11\n        /* \"usingtellor/contracts/UsingTellor.sol\":4146:4147  1 */\n      0x01\n        /* \"usingtellor/contracts/UsingTellor.sol\":4137:4143  middle */\n      dup8\n        /* \"usingtellor/contracts/UsingTellor.sol\":4137:4147  middle + 1 */\n      tag_115\n      swap2\n      swap1\n      tag_93\n      jump\t// in\n    tag_115:\n        /* \"usingtellor/contracts/UsingTellor.sol\":4048:4077  getTimestampbyQueryIdandIndex */\n      tag_66\n        /* \"usingtellor/contracts/UsingTellor.sol\":4048:4169  getTimestampbyQueryIdandIndex(... */\n      jump\t// in\n    tag_114:\n        /* \"usingtellor/contracts/UsingTellor.sol\":4028:4169  uint256 _nextTime = getTimestampbyQueryIdandIndex(... */\n      swap1\n      pop\n        /* \"usingtellor/contracts/UsingTellor.sol\":4208:4218  _timestamp */\n      dup9\n        /* \"usingtellor/contracts/UsingTellor.sol\":4195:4204  _nextTime */\n      dup2\n        /* \"usingtellor/contracts/UsingTellor.sol\":4195:4218  _nextTime >= _timestamp */\n      lt\n        /* \"usingtellor/contracts/UsingTellor.sol\":4191:4472  if (_nextTime >= _timestamp) {... */\n      tag_116\n      jumpi\n        /* \"usingtellor/contracts/UsingTellor.sol\":4297:4301  true */\n      0x01\n        /* \"usingtellor/contracts/UsingTellor.sol\":4303:4309  middle */\n      dup6\n        /* \"usingtellor/contracts/UsingTellor.sol\":4289:4310  return (true, middle) */\n      swap8\n      pop\n      swap8\n      pop\n      pop\n      pop\n      pop\n      pop\n      pop\n      pop\n      jump(tag_96)\n        /* \"usingtellor/contracts/UsingTellor.sol\":4191:4472  if (_nextTime >= _timestamp) {... */\n    tag_116:\n        /* \"usingtellor/contracts/UsingTellor.sol\":4448:4449  1 */\n      0x01\n        /* \"usingtellor/contracts/UsingTellor.sol\":4439:4445  middle */\n      dup6\n        /* \"usingtellor/contracts/UsingTellor.sol\":4439:4449  middle + 1 */\n      tag_118\n      swap2\n      swap1\n      tag_93\n      jump\t// in\n    tag_118:\n        /* \"usingtellor/contracts/UsingTellor.sol\":4431:4449  start = middle + 1 */\n      swap4\n      pop\n        /* \"usingtellor/contracts/UsingTellor.sol\":3959:4490  {... */\n      pop\n        /* \"usingtellor/contracts/UsingTellor.sol\":3935:4987  if (_time < _timestamp) {... */\n      jump(tag_119)\n    tag_113:\n        /* \"usingtellor/contracts/UsingTellor.sol\":4518:4535  uint256 _prevTime */\n      0x00\n        /* \"usingtellor/contracts/UsingTellor.sol\":4538:4659  getTimestampbyQueryIdandIndex(... */\n      tag_120\n        /* \"usingtellor/contracts/UsingTellor.sol\":4593:4601  _queryId */\n      dup11\n        /* \"usingtellor/contracts/UsingTellor.sol\":4636:4637  1 */\n      0x01\n        /* \"usingtellor/contracts/UsingTellor.sol\":4627:4633  middle */\n      dup8\n        /* \"usingtellor/contracts/UsingTellor.sol\":4627:4637  middle - 1 */\n      tag_121\n      swap2\n      swap1\n      tag_100\n      jump\t// in\n    tag_121:\n        /* \"usingtellor/contracts/UsingTellor.sol\":4538:4567  getTimestampbyQueryIdandIndex */\n      tag_66\n        /* \"usingtellor/contracts/UsingTellor.sol\":4538:4659  getTimestampbyQueryIdandIndex(... */\n      jump\t// in\n    tag_120:\n        /* \"usingtellor/contracts/UsingTellor.sol\":4518:4659  uint256 _prevTime = getTimestampbyQueryIdandIndex(... */\n      swap1\n      pop\n        /* \"usingtellor/contracts/UsingTellor.sol\":4697:4707  _timestamp */\n      dup9\n        /* \"usingtellor/contracts/UsingTellor.sol\":4685:4694  _prevTime */\n      dup2\n        /* \"usingtellor/contracts/UsingTellor.sol\":4685:4707  _prevTime < _timestamp */\n      lt\n        /* \"usingtellor/contracts/UsingTellor.sol\":4681:4969  if (_prevTime < _timestamp) {... */\n      iszero\n      tag_122\n      jumpi\n        /* \"usingtellor/contracts/UsingTellor.sol\":4791:4795  true */\n      0x01\n        /* \"usingtellor/contracts/UsingTellor.sol\":4806:4807  1 */\n      dup1\n        /* \"usingtellor/contracts/UsingTellor.sol\":4797:4803  middle */\n      dup7\n        /* \"usingtellor/contracts/UsingTellor.sol\":4797:4807  middle - 1 */\n      tag_123\n      swap2\n      swap1\n      tag_100\n      jump\t// in\n    tag_123:\n        /* \"usingtellor/contracts/UsingTellor.sol\":4783:4808  return (true, middle - 1) */\n      swap8\n      pop\n      swap8\n      pop\n      pop\n      pop\n      pop\n      pop\n      pop\n      pop\n      jump(tag_96)\n        /* \"usingtellor/contracts/UsingTellor.sol\":4681:4969  if (_prevTime < _timestamp) {... */\n    tag_122:\n        /* \"usingtellor/contracts/UsingTellor.sol\":4945:4946  1 */\n      0x01\n        /* \"usingtellor/contracts/UsingTellor.sol\":4936:4942  middle */\n      dup6\n        /* \"usingtellor/contracts/UsingTellor.sol\":4936:4946  middle - 1 */\n      tag_125\n      swap2\n      swap1\n      tag_100\n      jump\t// in\n    tag_125:\n        /* \"usingtellor/contracts/UsingTellor.sol\":4930:4946  end = middle - 1 */\n      swap3\n      pop\n        /* \"usingtellor/contracts/UsingTellor.sol\":4496:4987  {... */\n      pop\n        /* \"usingtellor/contracts/UsingTellor.sol\":3935:4987  if (_time < _timestamp) {... */\n    tag_119:\n        /* \"usingtellor/contracts/UsingTellor.sol\":3775:5125  while (true) {... */\n      jump(tag_105)\n    tag_106:\n        /* \"usingtellor/contracts/UsingTellor.sol\":3249:5135  {... */\n      pop\n      pop\n      pop\n      pop\n        /* \"usingtellor/contracts/UsingTellor.sol\":3233:5135  if (_count > 0) {... */\n    tag_98:\n        /* \"usingtellor/contracts/UsingTellor.sol\":5152:5157  false */\n      0x00\n        /* \"usingtellor/contracts/UsingTellor.sol\":5159:5160  0 */\n      dup1\n        /* \"usingtellor/contracts/UsingTellor.sol\":5144:5161  return (false, 0) */\n      swap3\n      pop\n      swap3\n      pop\n      pop\n        /* \"usingtellor/contracts/UsingTellor.sol\":3013:5168  function getIndexForDataBefore(bytes32 _queryId, uint256 _timestamp)... */\n    tag_96:\n      swap3\n      pop\n      swap3\n      swap1\n      pop\n      jump\t// out\n        /* \"usingtellor/contracts/UsingTellor.sol\":6929:7876  function isInDispute(bytes32 _queryId, uint256 _timestamp)... */\n    tag_38:\n        /* \"usingtellor/contracts/UsingTellor.sol\":7033:7037  bool */\n      0x00\n        /* \"usingtellor/contracts/UsingTellor.sol\":7053:7072  ITellor _governance */\n      dup1\n        /* \"usingtellor/contracts/UsingTellor.sol\":7158:7200  0x18431fd88adF138e8b979A7246eb58EA7126ea16 */\n      0x18431fd88adf138e8b979a7246eb58ea7126ea16\n        /* \"usingtellor/contracts/UsingTellor.sol\":7140:7201  tellor == ITellor(0x18431fd88adF138e8b979A7246eb58EA7126ea16) */\n      0xffffffffffffffffffffffffffffffffffffffff\n      and\n        /* \"usingtellor/contracts/UsingTellor.sol\":7140:7146  tellor */\n      0x00\n      dup1\n      sload\n      swap1\n      0x0100\n      exp\n      swap1\n      div\n      0xffffffffffffffffffffffffffffffffffffffff\n      and\n        /* \"usingtellor/contracts/UsingTellor.sol\":7140:7201  tellor == ITellor(0x18431fd88adF138e8b979A7246eb58EA7126ea16) */\n      0xffffffffffffffffffffffffffffffffffffffff\n      and\n      eq\n        /* \"usingtellor/contracts/UsingTellor.sol\":7140:7278  tellor == ITellor(0x18431fd88adF138e8b979A7246eb58EA7126ea16) ||... */\n      dup1\n      tag_127\n      jumpi\n      pop\n        /* \"usingtellor/contracts/UsingTellor.sol\":7235:7277  0xe8218cACb0a5421BC6409e498d9f8CC8869945ea */\n      0xe8218cacb0a5421bc6409e498d9f8cc8869945ea\n        /* \"usingtellor/contracts/UsingTellor.sol\":7217:7278  tellor == ITellor(0xe8218cACb0a5421BC6409e498d9f8CC8869945ea) */\n      0xffffffffffffffffffffffffffffffffffffffff\n      and\n        /* \"usingtellor/contracts/UsingTellor.sol\":7217:7223  tellor */\n      0x00\n      dup1\n      sload\n      swap1\n      0x0100\n      exp\n      swap1\n      div\n      0xffffffffffffffffffffffffffffffffffffffff\n      and\n        /* \"usingtellor/contracts/UsingTellor.sol\":7217:7278  tellor == ITellor(0xe8218cACb0a5421BC6409e498d9f8CC8869945ea) */\n      0xffffffffffffffffffffffffffffffffffffffff\n      and\n      eq\n        /* \"usingtellor/contracts/UsingTellor.sol\":7140:7278  tellor == ITellor(0x18431fd88adF138e8b979A7246eb58EA7126ea16) ||... */\n    tag_127:\n        /* \"usingtellor/contracts/UsingTellor.sol\":7123:7682  if (... */\n      iszero\n      tag_128\n      jumpi\n        /* \"usingtellor/contracts/UsingTellor.sol\":7303:7321  ITellor _newTellor */\n      0x00\n        /* \"usingtellor/contracts/UsingTellor.sol\":7349:7391  0x88dF592F8eb5D7Bd38bFeF7dEb0fBc02cf3778a0 */\n      0x88df592f8eb5d7bd38bfef7deb0fbc02cf3778a0\n        /* \"usingtellor/contracts/UsingTellor.sol\":7303:7405  ITellor _newTellor = ITellor(... */\n      swap1\n      pop\n        /* \"usingtellor/contracts/UsingTellor.sol\":7458:7468  _newTellor */\n      dup1\n        /* \"usingtellor/contracts/UsingTellor.sol\":7458:7478  _newTellor.addresses */\n      0xffffffffffffffffffffffffffffffffffffffff\n      and\n      0x699f200f\n        /* \"usingtellor/contracts/UsingTellor.sol\":7500:7566  0xefa19baa864049f50491093580c5433e97e8d5e41f8db1a61108b4fa44cacd93 */\n      0xefa19baa864049f50491093580c5433e97e8d5e41f8db1a61108b4fa44cacd93\n        /* \"usingtellor/contracts/UsingTellor.sol\":7458:7584  _newTellor.addresses(... */\n      mload(0x40)\n      dup3\n      0xffffffff\n      and\n      0xe0\n      shl\n      dup2\n      mstore\n      0x04\n      add\n      tag_129\n      swap2\n      swap1\n      tag_130\n      jump\t// in\n    tag_129:\n      0x20\n      mload(0x40)\n      dup1\n      dup4\n      sub\n      dup2\n      dup7\n      gas\n      staticcall\n      iszero\n      dup1\n      iszero\n      tag_132\n      jumpi\n      returndatasize\n      0x00\n      dup1\n      returndatacopy\n      revert(0x00, returndatasize)\n    tag_132:\n      pop\n      pop\n      pop\n      pop\n      mload(0x40)\n      returndatasize\n      not(0x1f)\n      0x1f\n      dup3\n      add\n      and\n      dup3\n      add\n      dup1\n      0x40\n      mstore\n      pop\n      dup2\n      add\n      swap1\n      tag_133\n      swap2\n      swap1\n      tag_134\n      jump\t// in\n    tag_133:\n        /* \"usingtellor/contracts/UsingTellor.sol\":7419:7598  _governance = ITellor(... */\n      swap2\n      pop\n        /* \"usingtellor/contracts/UsingTellor.sol\":7289:7609  {... */\n      pop\n        /* \"usingtellor/contracts/UsingTellor.sol\":7123:7682  if (... */\n      jump(tag_135)\n    tag_128:\n        /* \"usingtellor/contracts/UsingTellor.sol\":7651:7657  tellor */\n      0x00\n      dup1\n      sload\n      swap1\n      0x0100\n      exp\n      swap1\n      div\n      0xffffffffffffffffffffffffffffffffffffffff\n      and\n        /* \"usingtellor/contracts/UsingTellor.sol\":7651:7668  tellor.governance */\n      0xffffffffffffffffffffffffffffffffffffffff\n      and\n      0x5aa6e675\n        /* \"usingtellor/contracts/UsingTellor.sol\":7651:7670  tellor.governance() */\n      mload(0x40)\n      dup2\n      0xffffffff\n      and\n      0xe0\n      shl\n      dup2\n      mstore\n      0x04\n      add\n      0x20\n      mload(0x40)\n      dup1\n      dup4\n      sub\n      dup2\n      dup7\n      gas\n      staticcall\n      iszero\n      dup1\n      iszero\n      tag_137\n      jumpi\n      returndatasize\n      0x00\n      dup1\n      returndatacopy\n      revert(0x00, returndatasize)\n    tag_137:\n      pop\n      pop\n      pop\n      pop\n      mload(0x40)\n      returndatasize\n      not(0x1f)\n      0x1f\n      dup3\n      add\n      and\n      dup3\n      add\n      dup1\n      0x40\n      mstore\n      pop\n      dup2\n      add\n      swap1\n      tag_138\n      swap2\n      swap1\n      tag_134\n      jump\t// in\n    tag_138:\n        /* \"usingtellor/contracts/UsingTellor.sol\":7629:7671  _governance = ITellor(tellor.governance()) */\n      swap1\n      pop\n        /* \"usingtellor/contracts/UsingTellor.sol\":7123:7682  if (... */\n    tag_135:\n        /* \"usingtellor/contracts/UsingTellor.sol\":7868:7869  0 */\n      0x00\n        /* \"usingtellor/contracts/UsingTellor.sol\":7710:7721  _governance */\n      dup2\n        /* \"usingtellor/contracts/UsingTellor.sol\":7710:7752  _governance... */\n      0xffffffffffffffffffffffffffffffffffffffff\n      and\n      0x248638e5\n        /* \"usingtellor/contracts/UsingTellor.sol\":7801:7809  _queryId */\n      dup7\n        /* \"usingtellor/contracts/UsingTellor.sol\":7811:7821  _timestamp */\n      dup7\n        /* \"usingtellor/contracts/UsingTellor.sol\":7784:7822  abi.encodePacked(_queryId, _timestamp) */\n      add(0x20, mload(0x40))\n      tag_139\n      swap3\n      swap2\n      swap1\n      tag_140\n      jump\t// in\n    tag_139:\n      mload(0x40)\n      0x20\n      dup2\n      dup4\n      sub\n      sub\n      dup2\n      mstore\n      swap1\n      0x40\n      mstore\n        /* \"usingtellor/contracts/UsingTellor.sol\":7774:7823  keccak256(abi.encodePacked(_queryId, _timestamp)) */\n      dup1\n      mload\n      swap1\n      0x20\n      add\n      keccak256\n        /* \"usingtellor/contracts/UsingTellor.sol\":7710:7841  _governance... */\n      mload(0x40)\n      dup3\n      0xffffffff\n      and\n      0xe0\n      shl\n      dup2\n      mstore\n      0x04\n      add\n      tag_141\n      swap2\n      swap1\n      tag_142\n      jump\t// in\n    tag_141:\n      0x00\n      mload(0x40)\n      dup1\n      dup4\n      sub\n      dup2\n      dup7\n      gas\n      staticcall\n      iszero\n      dup1\n      iszero\n      tag_144\n      jumpi\n      returndatasize\n      0x00\n      dup1\n      returndatacopy\n      revert(0x00, returndatasize)\n    tag_144:\n      pop\n      pop\n      pop\n      pop\n      mload(0x40)\n      returndatasize\n      0x00\n      dup3\n      returndatacopy\n      returndatasize\n      not(0x1f)\n      0x1f\n      dup3\n      add\n      and\n      dup3\n      add\n      dup1\n      0x40\n      mstore\n      pop\n      dup2\n      add\n      swap1\n      tag_145\n      swap2\n      swap1\n      tag_86\n      jump\t// in\n    tag_145:\n        /* \"usingtellor/contracts/UsingTellor.sol\":7710:7865  _governance... */\n      mload\n        /* \"usingtellor/contracts/UsingTellor.sol\":7710:7869  _governance... */\n      gt\n        /* \"usingtellor/contracts/UsingTellor.sol\":7691:7869  return... */\n      swap2\n      pop\n      pop\n        /* \"usingtellor/contracts/UsingTellor.sol\":6929:7876  function isInDispute(bytes32 _queryId, uint256 _timestamp)... */\n      swap3\n      swap2\n      pop\n      pop\n      jump\t// out\n        /* \"contracts/TellorOracle.sol\":2186:2322  function setMapping(address tokenAddress, string calldata assetName) external {... */\n    tag_44:\n        /* \"contracts/TellorOracle.sol\":2306:2315  assetName */\n      dup2\n      dup2\n        /* \"contracts/TellorOracle.sol\":2274:2289  tAddressMapping */\n      0x01\n        /* \"contracts/TellorOracle.sol\":2274:2303  tAddressMapping[tokenAddress] */\n      0x00\n        /* \"contracts/TellorOracle.sol\":2290:2302  tokenAddress */\n      dup7\n        /* \"contracts/TellorOracle.sol\":2274:2303  tAddressMapping[tokenAddress] */\n      0xffffffffffffffffffffffffffffffffffffffff\n      and\n      0xffffffffffffffffffffffffffffffffffffffff\n      and\n      dup2\n      mstore\n      0x20\n      add\n      swap1\n      dup2\n      mstore\n      0x20\n      add\n      0x00\n      keccak256\n        /* \"contracts/TellorOracle.sol\":2274:2315  tAddressMapping[tokenAddress] = assetName */\n      swap2\n      dup3\n      tag_147\n      swap3\n      swap2\n      swap1\n      tag_148\n      jump\t// in\n    tag_147:\n      pop\n        /* \"contracts/TellorOracle.sol\":2186:2322  function setMapping(address tokenAddress, string calldata assetName) external {... */\n      pop\n      pop\n      pop\n      jump\t// out\n        /* \"usingtellor/contracts/UsingTellor.sol\":5390:5874  function getNewValueCountbyQueryId(bytes32 _queryId)... */\n    tag_48:\n        /* \"usingtellor/contracts/UsingTellor.sol\":5488:5495  uint256 */\n      0x00\n        /* \"usingtellor/contracts/UsingTellor.sol\":5587:5629  0x18431fd88adF138e8b979A7246eb58EA7126ea16 */\n      0x18431fd88adf138e8b979a7246eb58ea7126ea16\n        /* \"usingtellor/contracts/UsingTellor.sol\":5569:5630  tellor == ITellor(0x18431fd88adF138e8b979A7246eb58EA7126ea16) */\n      0xffffffffffffffffffffffffffffffffffffffff\n      and\n        /* \"usingtellor/contracts/UsingTellor.sol\":5569:5575  tellor */\n      0x00\n      dup1\n      sload\n      swap1\n      0x0100\n      exp\n      swap1\n      div\n      0xffffffffffffffffffffffffffffffffffffffff\n      and\n        /* \"usingtellor/contracts/UsingTellor.sol\":5569:5630  tellor == ITellor(0x18431fd88adF138e8b979A7246eb58EA7126ea16) */\n      0xffffffffffffffffffffffffffffffffffffffff\n      and\n      eq\n        /* \"usingtellor/contracts/UsingTellor.sol\":5569:5707  tellor == ITellor(0x18431fd88adF138e8b979A7246eb58EA7126ea16) ||... */\n      dup1\n      tag_150\n      jumpi\n      pop\n        /* \"usingtellor/contracts/UsingTellor.sol\":5664:5706  0xe8218cACb0a5421BC6409e498d9f8CC8869945ea */\n      0xe8218cacb0a5421bc6409e498d9f8cc8869945ea\n        /* \"usingtellor/contracts/UsingTellor.sol\":5646:5707  tellor == ITellor(0xe8218cACb0a5421BC6409e498d9f8CC8869945ea) */\n      0xffffffffffffffffffffffffffffffffffffffff\n      and\n        /* \"usingtellor/contracts/UsingTellor.sol\":5646:5652  tellor */\n      0x00\n      dup1\n      sload\n      swap1\n      0x0100\n      exp\n      swap1\n      div\n      0xffffffffffffffffffffffffffffffffffffffff\n      and\n        /* \"usingtellor/contracts/UsingTellor.sol\":5646:5707  tellor == ITellor(0xe8218cACb0a5421BC6409e498d9f8CC8869945ea) */\n      0xffffffffffffffffffffffffffffffffffffffff\n      and\n      eq\n        /* \"usingtellor/contracts/UsingTellor.sol\":5569:5707  tellor == ITellor(0x18431fd88adF138e8b979A7246eb58EA7126ea16) ||... */\n    tag_150:\n        /* \"usingtellor/contracts/UsingTellor.sol\":5552:5868  if (... */\n      iszero\n      tag_151\n      jumpi\n        /* \"usingtellor/contracts/UsingTellor.sol\":5739:5745  tellor */\n      0x00\n      dup1\n      sload\n      swap1\n      0x0100\n      exp\n      swap1\n      div\n      0xffffffffffffffffffffffffffffffffffffffff\n      and\n        /* \"usingtellor/contracts/UsingTellor.sol\":5739:5767  tellor.getTimestampCountById */\n      0xffffffffffffffffffffffffffffffffffffffff\n      and\n      0x35e72432\n        /* \"usingtellor/contracts/UsingTellor.sol\":5768:5776  _queryId */\n      dup4\n        /* \"usingtellor/contracts/UsingTellor.sol\":5739:5777  tellor.getTimestampCountById(_queryId) */\n      mload(0x40)\n      dup3\n      0xffffffff\n      and\n      0xe0\n      shl\n      dup2\n      mstore\n      0x04\n      add\n      tag_152\n      swap2\n      swap1\n      tag_142\n      jump\t// in\n    tag_152:\n      0x20\n      mload(0x40)\n      dup1\n      dup4\n      sub\n      dup2\n      dup7\n      gas\n      staticcall\n      iszero\n      dup1\n      iszero\n      tag_154\n      jumpi\n      returndatasize\n      0x00\n      dup1\n      returndatacopy\n      revert(0x00, returndatasize)\n    tag_154:\n      pop\n      pop\n      pop\n      pop\n      mload(0x40)\n      returndatasize\n      not(0x1f)\n      0x1f\n      dup3\n      add\n      and\n      dup3\n      add\n      dup1\n      0x40\n      mstore\n      pop\n      dup2\n      add\n      swap1\n      tag_155\n      swap2\n      swap1\n      tag_156\n      jump\t// in\n    tag_155:\n        /* \"usingtellor/contracts/UsingTellor.sol\":5732:5777  return tellor.getTimestampCountById(_queryId) */\n      swap1\n      pop\n      jump(tag_149)\n        /* \"usingtellor/contracts/UsingTellor.sol\":5552:5868  if (... */\n    tag_151:\n        /* \"usingtellor/contracts/UsingTellor.sol\":5815:5821  tellor */\n      0x00\n      dup1\n      sload\n      swap1\n      0x0100\n      exp\n      swap1\n      div\n      0xffffffffffffffffffffffffffffffffffffffff\n      and\n        /* \"usingtellor/contracts/UsingTellor.sol\":5815:5847  tellor.getNewValueCountbyQueryId */\n      0xffffffffffffffffffffffffffffffffffffffff\n      and\n      0x77b03e0d\n        /* \"usingtellor/contracts/UsingTellor.sol\":5848:5856  _queryId */\n      dup4\n        /* \"usingtellor/contracts/UsingTellor.sol\":5815:5857  tellor.getNewValueCountbyQueryId(_queryId) */\n      mload(0x40)\n      dup3\n      0xffffffff\n      and\n      0xe0\n      shl\n      dup2\n      mstore\n      0x04\n      add\n      tag_158\n      swap2\n      swap1\n      tag_142\n      jump\t// in\n    tag_158:\n      0x20\n      mload(0x40)\n      dup1\n      dup4\n      sub\n      dup2\n      dup7\n      gas\n      staticcall\n      iszero\n      dup1\n      iszero\n      tag_160\n      jumpi\n      returndatasize\n      0x00\n      dup1\n      returndatacopy\n      revert(0x00, returndatasize)\n    tag_160:\n      pop\n      pop\n      pop\n      pop\n      mload(0x40)\n      returndatasize\n      not(0x1f)\n      0x1f\n      dup3\n      add\n      and\n      dup3\n      add\n      dup1\n      0x40\n      mstore\n      pop\n      dup2\n      add\n      swap1\n      tag_161\n      swap2\n      swap1\n      tag_156\n      jump\t// in\n    tag_161:\n        /* \"usingtellor/contracts/UsingTellor.sol\":5808:5857  return tellor.getNewValueCountbyQueryId(_queryId) */\n      swap1\n      pop\n        /* \"usingtellor/contracts/UsingTellor.sol\":5390:5874  function getNewValueCountbyQueryId(bytes32 _queryId)... */\n    tag_149:\n      swap2\n      swap1\n      pop\n      jump\t// out\n        /* \"usingtellor/contracts/UsingTellor.sol\":1919:2576  function getDataBefore(bytes32 _queryId, uint256 _timestamp)... */\n    tag_52:\n        /* \"usingtellor/contracts/UsingTellor.sol\":2038:2054  bool _ifRetrieve */\n      0x00\n        /* \"usingtellor/contracts/UsingTellor.sol\":2068:2087  bytes memory _value */\n      0x60\n        /* \"usingtellor/contracts/UsingTellor.sol\":2101:2128  uint256 _timestampRetrieved */\n      0x00\n        /* \"usingtellor/contracts/UsingTellor.sol\":2154:2165  bool _found */\n      dup1\n        /* \"usingtellor/contracts/UsingTellor.sol\":2167:2181  uint256 _index */\n      0x00\n        /* \"usingtellor/contracts/UsingTellor.sol\":2185:2262  getIndexForDataBefore(... */\n      tag_163\n        /* \"usingtellor/contracts/UsingTellor.sol\":2220:2228  _queryId */\n      dup8\n        /* \"usingtellor/contracts/UsingTellor.sol\":2242:2252  _timestamp */\n      dup8\n        /* \"usingtellor/contracts/UsingTellor.sol\":2185:2206  getIndexForDataBefore */\n      tag_33\n        /* \"usingtellor/contracts/UsingTellor.sol\":2185:2262  getIndexForDataBefore(... */\n      jump\t// in\n    tag_163:\n        /* \"usingtellor/contracts/UsingTellor.sol\":2153:2262  (bool _found, uint256 _index) = getIndexForDataBefore(... */\n      swap2\n      pop\n      swap2\n      pop\n        /* \"usingtellor/contracts/UsingTellor.sol\":2277:2283  _found */\n      dup2\n        /* \"usingtellor/contracts/UsingTellor.sol\":2272:2313  if (!_found) return (false, bytes(\"\"), 0) */\n      tag_164\n      jumpi\n        /* \"usingtellor/contracts/UsingTellor.sol\":2293:2298  false */\n      0x00\n        /* \"usingtellor/contracts/UsingTellor.sol\":2300:2309  bytes(\"\") */\n      mload(0x40)\n      dup1\n      0x20\n      add\n      0x40\n      mstore\n      dup1\n      0x00\n      dup2\n      mstore\n      pop\n        /* \"usingtellor/contracts/UsingTellor.sol\":2311:2312  0 */\n      0x00\n        /* \"usingtellor/contracts/UsingTellor.sol\":2285:2313  return (false, bytes(\"\"), 0) */\n      swap5\n      pop\n      swap5\n      pop\n      swap5\n      pop\n      pop\n      pop\n      jump(tag_162)\n        /* \"usingtellor/contracts/UsingTellor.sol\":2272:2313  if (!_found) return (false, bytes(\"\"), 0) */\n    tag_164:\n        /* \"usingtellor/contracts/UsingTellor.sol\":2323:2336  uint256 _time */\n      0x00\n        /* \"usingtellor/contracts/UsingTellor.sol\":2339:2386  getTimestampbyQueryIdandIndex(_queryId, _index) */\n      tag_165\n        /* \"usingtellor/contracts/UsingTellor.sol\":2369:2377  _queryId */\n      dup9\n        /* \"usingtellor/contracts/UsingTellor.sol\":2379:2385  _index */\n      dup4\n        /* \"usingtellor/contracts/UsingTellor.sol\":2339:2368  getTimestampbyQueryIdandIndex */\n      tag_66\n        /* \"usingtellor/contracts/UsingTellor.sol\":2339:2386  getTimestampbyQueryIdandIndex(_queryId, _index) */\n      jump\t// in\n    tag_165:\n        /* \"usingtellor/contracts/UsingTellor.sol\":2323:2386  uint256 _time = getTimestampbyQueryIdandIndex(_queryId, _index) */\n      swap1\n      pop\n        /* \"usingtellor/contracts/UsingTellor.sol\":2405:2434  retrieveData(_queryId, _time) */\n      tag_166\n        /* \"usingtellor/contracts/UsingTellor.sol\":2418:2426  _queryId */\n      dup9\n        /* \"usingtellor/contracts/UsingTellor.sol\":2428:2433  _time */\n      dup3\n        /* \"usingtellor/contracts/UsingTellor.sol\":2405:2417  retrieveData */\n      tag_61\n        /* \"usingtellor/contracts/UsingTellor.sol\":2405:2434  retrieveData(_queryId, _time) */\n      jump\t// in\n    tag_166:\n        /* \"usingtellor/contracts/UsingTellor.sol\":2396:2434  _value = retrieveData(_queryId, _time) */\n      swap5\n      pop\n        /* \"usingtellor/contracts/UsingTellor.sol\":2479:2488  bytes(\"\") */\n      mload(0x40)\n      dup1\n      0x20\n      add\n      0x40\n      mstore\n      dup1\n      0x00\n      dup2\n      mstore\n      pop\n        /* \"usingtellor/contracts/UsingTellor.sol\":2469:2489  keccak256(bytes(\"\")) */\n      dup1\n      mload\n      swap1\n      0x20\n      add\n      keccak256\n        /* \"usingtellor/contracts/UsingTellor.sol\":2458:2464  _value */\n      dup6\n        /* \"usingtellor/contracts/UsingTellor.sol\":2448:2465  keccak256(_value) */\n      dup1\n      mload\n      swap1\n      0x20\n      add\n      keccak256\n        /* \"usingtellor/contracts/UsingTellor.sol\":2448:2489  keccak256(_value) != keccak256(bytes(\"\")) */\n      eq\n        /* \"usingtellor/contracts/UsingTellor.sol\":2444:2531  if (keccak256(_value) != keccak256(bytes(\"\")))... */\n      tag_167\n      jumpi\n        /* \"usingtellor/contracts/UsingTellor.sol\":2511:2515  true */\n      0x01\n        /* \"usingtellor/contracts/UsingTellor.sol\":2517:2523  _value */\n      dup6\n        /* \"usingtellor/contracts/UsingTellor.sol\":2525:2530  _time */\n      dup3\n        /* \"usingtellor/contracts/UsingTellor.sol\":2503:2531  return (true, _value, _time) */\n      swap6\n      pop\n      swap6\n      pop\n      swap6\n      pop\n      pop\n      pop\n      pop\n      jump(tag_162)\n        /* \"usingtellor/contracts/UsingTellor.sol\":2444:2531  if (keccak256(_value) != keccak256(bytes(\"\")))... */\n    tag_167:\n        /* \"usingtellor/contracts/UsingTellor.sol\":2549:2554  false */\n      0x00\n        /* \"usingtellor/contracts/UsingTellor.sol\":2556:2565  bytes(\"\") */\n      mload(0x40)\n      dup1\n      0x20\n      add\n      0x40\n      mstore\n      dup1\n      0x00\n      dup2\n      mstore\n      pop\n        /* \"usingtellor/contracts/UsingTellor.sol\":2567:2568  0 */\n      0x00\n        /* \"usingtellor/contracts/UsingTellor.sol\":2541:2569  return (false, bytes(\"\"), 0) */\n      swap6\n      pop\n      swap6\n      pop\n      swap6\n      pop\n      pop\n      pop\n      pop\n        /* \"usingtellor/contracts/UsingTellor.sol\":1919:2576  function getDataBefore(bytes32 _queryId, uint256 _timestamp)... */\n    tag_162:\n      swap3\n      pop\n      swap3\n      pop\n      swap3\n      jump\t// out\n        /* \"usingtellor/contracts/UsingTellor.sol\":891:1510  function getCurrentValue(bytes32 _queryId)... */\n    tag_57:\n        /* \"usingtellor/contracts/UsingTellor.sol\":992:1008  bool _ifRetrieve */\n      0x00\n        /* \"usingtellor/contracts/UsingTellor.sol\":1022:1041  bytes memory _value */\n      0x60\n        /* \"usingtellor/contracts/UsingTellor.sol\":1055:1082  uint256 _timestampRetrieved */\n      0x00\n        /* \"usingtellor/contracts/UsingTellor.sol\":1107:1121  uint256 _count */\n      dup1\n        /* \"usingtellor/contracts/UsingTellor.sol\":1124:1159  getNewValueCountbyQueryId(_queryId) */\n      tag_169\n        /* \"usingtellor/contracts/UsingTellor.sol\":1150:1158  _queryId */\n      dup6\n        /* \"usingtellor/contracts/UsingTellor.sol\":1124:1149  getNewValueCountbyQueryId */\n      tag_48\n        /* \"usingtellor/contracts/UsingTellor.sol\":1124:1159  getNewValueCountbyQueryId(_queryId) */\n      jump\t// in\n    tag_169:\n        /* \"usingtellor/contracts/UsingTellor.sol\":1107:1159  uint256 _count = getNewValueCountbyQueryId(_queryId) */\n      swap1\n      pop\n        /* \"usingtellor/contracts/UsingTellor.sol\":1184:1185  0 */\n      0x00\n        /* \"usingtellor/contracts/UsingTellor.sol\":1174:1180  _count */\n      dup2\n        /* \"usingtellor/contracts/UsingTellor.sol\":1174:1185  _count == 0 */\n      sub\n        /* \"usingtellor/contracts/UsingTellor.sol\":1170:1240  if (_count == 0) {... */\n      tag_170\n      jumpi\n        /* \"usingtellor/contracts/UsingTellor.sol\":1209:1214  false */\n      0x00\n        /* \"usingtellor/contracts/UsingTellor.sol\":1216:1225  bytes(\"\") */\n      mload(0x40)\n      dup1\n      0x20\n      add\n      0x40\n      mstore\n      dup1\n      0x00\n      dup2\n      mstore\n      pop\n        /* \"usingtellor/contracts/UsingTellor.sol\":1227:1228  0 */\n      0x00\n        /* \"usingtellor/contracts/UsingTellor.sol\":1201:1229  return (false, bytes(\"\"), 0) */\n      swap4\n      pop\n      swap4\n      pop\n      swap4\n      pop\n      pop\n      jump(tag_168)\n        /* \"usingtellor/contracts/UsingTellor.sol\":1170:1240  if (_count == 0) {... */\n    tag_170:\n        /* \"usingtellor/contracts/UsingTellor.sol\":1249:1262  uint256 _time */\n      0x00\n        /* \"usingtellor/contracts/UsingTellor.sol\":1265:1316  getTimestampbyQueryIdandIndex(_queryId, _count - 1) */\n      tag_171\n        /* \"usingtellor/contracts/UsingTellor.sol\":1295:1303  _queryId */\n      dup7\n        /* \"usingtellor/contracts/UsingTellor.sol\":1314:1315  1 */\n      0x01\n        /* \"usingtellor/contracts/UsingTellor.sol\":1305:1311  _count */\n      dup5\n        /* \"usingtellor/contracts/UsingTellor.sol\":1305:1315  _count - 1 */\n      tag_172\n      swap2\n      swap1\n      tag_100\n      jump\t// in\n    tag_172:\n        /* \"usingtellor/contracts/UsingTellor.sol\":1265:1294  getTimestampbyQueryIdandIndex */\n      tag_66\n        /* \"usingtellor/contracts/UsingTellor.sol\":1265:1316  getTimestampbyQueryIdandIndex(_queryId, _count - 1) */\n      jump\t// in\n    tag_171:\n        /* \"usingtellor/contracts/UsingTellor.sol\":1249:1316  uint256 _time = getTimestampbyQueryIdandIndex(_queryId, _count - 1) */\n      swap1\n      pop\n        /* \"usingtellor/contracts/UsingTellor.sol\":1335:1364  retrieveData(_queryId, _time) */\n      tag_173\n        /* \"usingtellor/contracts/UsingTellor.sol\":1348:1356  _queryId */\n      dup7\n        /* \"usingtellor/contracts/UsingTellor.sol\":1358:1363  _time */\n      dup3\n        /* \"usingtellor/contracts/UsingTellor.sol\":1335:1347  retrieveData */\n      tag_61\n        /* \"usingtellor/contracts/UsingTellor.sol\":1335:1364  retrieveData(_queryId, _time) */\n      jump\t// in\n    tag_173:\n        /* \"usingtellor/contracts/UsingTellor.sol\":1326:1364  _value = retrieveData(_queryId, _time) */\n      swap4\n      pop\n        /* \"usingtellor/contracts/UsingTellor.sol\":1409:1418  bytes(\"\") */\n      mload(0x40)\n      dup1\n      0x20\n      add\n      0x40\n      mstore\n      dup1\n      0x00\n      dup2\n      mstore\n      pop\n        /* \"usingtellor/contracts/UsingTellor.sol\":1399:1419  keccak256(bytes(\"\")) */\n      dup1\n      mload\n      swap1\n      0x20\n      add\n      keccak256\n        /* \"usingtellor/contracts/UsingTellor.sol\":1388:1394  _value */\n      dup5\n        /* \"usingtellor/contracts/UsingTellor.sol\":1378:1395  keccak256(_value) */\n      dup1\n      mload\n      swap1\n      0x20\n      add\n      keccak256\n        /* \"usingtellor/contracts/UsingTellor.sol\":1378:1419  keccak256(_value) != keccak256(bytes(\"\")) */\n      eq\n        /* \"usingtellor/contracts/UsingTellor.sol\":1374:1461  if (keccak256(_value) != keccak256(bytes(\"\")))... */\n      tag_174\n      jumpi\n        /* \"usingtellor/contracts/UsingTellor.sol\":1441:1445  true */\n      0x01\n        /* \"usingtellor/contracts/UsingTellor.sol\":1447:1453  _value */\n      dup5\n        /* \"usingtellor/contracts/UsingTellor.sol\":1455:1460  _time */\n      dup3\n        /* \"usingtellor/contracts/UsingTellor.sol\":1433:1461  return (true, _value, _time) */\n      swap5\n      pop\n      swap5\n      pop\n      swap5\n      pop\n      pop\n      pop\n      jump(tag_168)\n        /* \"usingtellor/contracts/UsingTellor.sol\":1374:1461  if (keccak256(_value) != keccak256(bytes(\"\")))... */\n    tag_174:\n        /* \"usingtellor/contracts/UsingTellor.sol\":1479:1484  false */\n      0x00\n        /* \"usingtellor/contracts/UsingTellor.sol\":1486:1495  bytes(\"\") */\n      mload(0x40)\n      dup1\n      0x20\n      add\n      0x40\n      mstore\n      dup1\n      0x00\n      dup2\n      mstore\n      pop\n        /* \"usingtellor/contracts/UsingTellor.sol\":1497:1502  _time */\n      dup3\n        /* \"usingtellor/contracts/UsingTellor.sol\":1471:1503  return (false, bytes(\"\"), _time) */\n      swap5\n      pop\n      swap5\n      pop\n      swap5\n      pop\n      pop\n      pop\n        /* \"usingtellor/contracts/UsingTellor.sol\":891:1510  function getCurrentValue(bytes32 _queryId)... */\n    tag_168:\n      swap2\n      swap4\n      swap1\n      swap3\n      pop\n      jump\t// out\n        /* \"usingtellor/contracts/UsingTellor.sol\":8113:8618  function retrieveData(bytes32 _queryId, uint256 _timestamp)... */\n    tag_61:\n        /* \"usingtellor/contracts/UsingTellor.sol\":8218:8230  bytes memory */\n      0x60\n        /* \"usingtellor/contracts/UsingTellor.sol\":8322:8364  0x18431fd88adF138e8b979A7246eb58EA7126ea16 */\n      0x18431fd88adf138e8b979a7246eb58ea7126ea16\n        /* \"usingtellor/contracts/UsingTellor.sol\":8304:8365  tellor == ITellor(0x18431fd88adF138e8b979A7246eb58EA7126ea16) */\n      0xffffffffffffffffffffffffffffffffffffffff\n      and\n        /* \"usingtellor/contracts/UsingTellor.sol\":8304:8310  tellor */\n      0x00\n      dup1\n      sload\n      swap1\n      0x0100\n      exp\n      swap1\n      div\n      0xffffffffffffffffffffffffffffffffffffffff\n      and\n        /* \"usingtellor/contracts/UsingTellor.sol\":8304:8365  tellor == ITellor(0x18431fd88adF138e8b979A7246eb58EA7126ea16) */\n      0xffffffffffffffffffffffffffffffffffffffff\n      and\n      eq\n        /* \"usingtellor/contracts/UsingTellor.sol\":8304:8442  tellor == ITellor(0x18431fd88adF138e8b979A7246eb58EA7126ea16) ||... */\n      dup1\n      tag_176\n      jumpi\n      pop\n        /* \"usingtellor/contracts/UsingTellor.sol\":8399:8441  0xe8218cACb0a5421BC6409e498d9f8CC8869945ea */\n      0xe8218cacb0a5421bc6409e498d9f8cc8869945ea\n        /* \"usingtellor/contracts/UsingTellor.sol\":8381:8442  tellor == ITellor(0xe8218cACb0a5421BC6409e498d9f8CC8869945ea) */\n      0xffffffffffffffffffffffffffffffffffffffff\n      and\n        /* \"usingtellor/contracts/UsingTellor.sol\":8381:8387  tellor */\n      0x00\n      dup1\n      sload\n      swap1\n      0x0100\n      exp\n      swap1\n      div\n      0xffffffffffffffffffffffffffffffffffffffff\n      and\n        /* \"usingtellor/contracts/UsingTellor.sol\":8381:8442  tellor == ITellor(0xe8218cACb0a5421BC6409e498d9f8CC8869945ea) */\n      0xffffffffffffffffffffffffffffffffffffffff\n      and\n      eq\n        /* \"usingtellor/contracts/UsingTellor.sol\":8304:8442  tellor == ITellor(0x18431fd88adF138e8b979A7246eb58EA7126ea16) ||... */\n    tag_176:\n        /* \"usingtellor/contracts/UsingTellor.sol\":8287:8612  if (... */\n      iszero\n      tag_177\n      jumpi\n        /* \"usingtellor/contracts/UsingTellor.sol\":8474:8480  tellor */\n      0x00\n      dup1\n      sload\n      swap1\n      0x0100\n      exp\n      swap1\n      div\n      0xffffffffffffffffffffffffffffffffffffffff\n      and\n        /* \"usingtellor/contracts/UsingTellor.sol\":8474:8500  tellor.getValueByTimestamp */\n      0xffffffffffffffffffffffffffffffffffffffff\n      and\n      0x0b2d2b0d\n        /* \"usingtellor/contracts/UsingTellor.sol\":8501:8509  _queryId */\n      dup5\n        /* \"usingtellor/contracts/UsingTellor.sol\":8511:8521  _timestamp */\n      dup5\n        /* \"usingtellor/contracts/UsingTellor.sol\":8474:8522  tellor.getValueByTimestamp(_queryId, _timestamp) */\n      mload(0x40)\n      dup4\n      0xffffffff\n      and\n      0xe0\n      shl\n      dup2\n      mstore\n      0x04\n      add\n      tag_178\n      swap3\n      swap2\n      swap1\n      tag_179\n      jump\t// in\n    tag_178:\n      0x00\n      mload(0x40)\n      dup1\n      dup4\n      sub\n      dup2\n      dup7\n      gas\n      staticcall\n      iszero\n      dup1\n      iszero\n      tag_181\n      jumpi\n      returndatasize\n      0x00\n      dup1\n      returndatacopy\n      revert(0x00, returndatasize)\n    tag_181:\n      pop\n      pop\n      pop\n      pop\n      mload(0x40)\n      returndatasize\n      0x00\n      dup3\n      returndatacopy\n      returndatasize\n      not(0x1f)\n      0x1f\n      dup3\n      add\n      and\n      dup3\n      add\n      dup1\n      0x40\n      mstore\n      pop\n      dup2\n      add\n      swap1\n      tag_182\n      swap2\n      swap1\n      tag_183\n      jump\t// in\n    tag_182:\n        /* \"usingtellor/contracts/UsingTellor.sol\":8467:8522  return tellor.getValueByTimestamp(_queryId, _timestamp) */\n      swap1\n      pop\n      jump(tag_175)\n        /* \"usingtellor/contracts/UsingTellor.sol\":8287:8612  if (... */\n    tag_177:\n        /* \"usingtellor/contracts/UsingTellor.sol\":8560:8566  tellor */\n      0x00\n      dup1\n      sload\n      swap1\n      0x0100\n      exp\n      swap1\n      div\n      0xffffffffffffffffffffffffffffffffffffffff\n      and\n        /* \"usingtellor/contracts/UsingTellor.sol\":8560:8579  tellor.retrieveData */\n      0xffffffffffffffffffffffffffffffffffffffff\n      and\n      0xc5958af9\n        /* \"usingtellor/contracts/UsingTellor.sol\":8580:8588  _queryId */\n      dup5\n        /* \"usingtellor/contracts/UsingTellor.sol\":8590:8600  _timestamp */\n      dup5\n        /* \"usingtellor/contracts/UsingTellor.sol\":8560:8601  tellor.retrieveData(_queryId, _timestamp) */\n      mload(0x40)\n      dup4\n      0xffffffff\n      and\n      0xe0\n      shl\n      dup2\n      mstore\n      0x04\n      add\n      tag_185\n      swap3\n      swap2\n      swap1\n      tag_179\n      jump\t// in\n    tag_185:\n      0x00\n      mload(0x40)\n      dup1\n      dup4\n      sub\n      dup2\n      dup7\n      gas\n      staticcall\n      iszero\n      dup1\n      iszero\n      tag_187\n      jumpi\n      returndatasize\n      0x00\n      dup1\n      returndatacopy\n      revert(0x00, returndatasize)\n    tag_187:\n      pop\n      pop\n      pop\n      pop\n      mload(0x40)\n      returndatasize\n      0x00\n      dup3\n      returndatacopy\n      returndatasize\n      not(0x1f)\n      0x1f\n      dup3\n      add\n      and\n      dup3\n      add\n      dup1\n      0x40\n      mstore\n      pop\n      dup2\n      add\n      swap1\n      tag_188\n      swap2\n      swap1\n      tag_183\n      jump\t// in\n    tag_188:\n        /* \"usingtellor/contracts/UsingTellor.sol\":8553:8601  return tellor.retrieveData(_queryId, _timestamp) */\n      swap1\n      pop\n        /* \"usingtellor/contracts/UsingTellor.sol\":8113:8618  function retrieveData(bytes32 _queryId, uint256 _timestamp)... */\n    tag_175:\n      swap3\n      swap2\n      pop\n      pop\n      jump\t// out\n        /* \"usingtellor/contracts/UsingTellor.sol\":6108:6636  function getTimestampbyQueryIdandIndex(bytes32 _queryId, uint256 _index)... */\n    tag_66:\n        /* \"usingtellor/contracts/UsingTellor.sol\":6226:6233  uint256 */\n      0x00\n        /* \"usingtellor/contracts/UsingTellor.sol\":6325:6367  0x18431fd88adF138e8b979A7246eb58EA7126ea16 */\n      0x18431fd88adf138e8b979a7246eb58ea7126ea16\n        /* \"usingtellor/contracts/UsingTellor.sol\":6307:6368  tellor == ITellor(0x18431fd88adF138e8b979A7246eb58EA7126ea16) */\n      0xffffffffffffffffffffffffffffffffffffffff\n      and\n        /* \"usingtellor/contracts/UsingTellor.sol\":6307:6313  tellor */\n      0x00\n      dup1\n      sload\n      swap1\n      0x0100\n      exp\n      swap1\n      div\n      0xffffffffffffffffffffffffffffffffffffffff\n      and\n        /* \"usingtellor/contracts/UsingTellor.sol\":6307:6368  tellor == ITellor(0x18431fd88adF138e8b979A7246eb58EA7126ea16) */\n      0xffffffffffffffffffffffffffffffffffffffff\n      and\n      eq\n        /* \"usingtellor/contracts/UsingTellor.sol\":6307:6445  tellor == ITellor(0x18431fd88adF138e8b979A7246eb58EA7126ea16) ||... */\n      dup1\n      tag_190\n      jumpi\n      pop\n        /* \"usingtellor/contracts/UsingTellor.sol\":6402:6444  0xe8218cACb0a5421BC6409e498d9f8CC8869945ea */\n      0xe8218cacb0a5421bc6409e498d9f8cc8869945ea\n        /* \"usingtellor/contracts/UsingTellor.sol\":6384:6445  tellor == ITellor(0xe8218cACb0a5421BC6409e498d9f8CC8869945ea) */\n      0xffffffffffffffffffffffffffffffffffffffff\n      and\n        /* \"usingtellor/contracts/UsingTellor.sol\":6384:6390  tellor */\n      0x00\n      dup1\n      sload\n      swap1\n      0x0100\n      exp\n      swap1\n      div\n      0xffffffffffffffffffffffffffffffffffffffff\n      and\n        /* \"usingtellor/contracts/UsingTellor.sol\":6384:6445  tellor == ITellor(0xe8218cACb0a5421BC6409e498d9f8CC8869945ea) */\n      0xffffffffffffffffffffffffffffffffffffffff\n      and\n      eq\n        /* \"usingtellor/contracts/UsingTellor.sol\":6307:6445  tellor == ITellor(0x18431fd88adF138e8b979A7246eb58EA7126ea16) ||... */\n    tag_190:\n        /* \"usingtellor/contracts/UsingTellor.sol\":6290:6630  if (... */\n      iszero\n      tag_191\n      jumpi\n        /* \"usingtellor/contracts/UsingTellor.sol\":6477:6483  tellor */\n      0x00\n      dup1\n      sload\n      swap1\n      0x0100\n      exp\n      swap1\n      div\n      0xffffffffffffffffffffffffffffffffffffffff\n      and\n        /* \"usingtellor/contracts/UsingTellor.sol\":6477:6509  tellor.getReportTimestampByIndex */\n      0xffffffffffffffffffffffffffffffffffffffff\n      and\n      0x7c37b8b4\n        /* \"usingtellor/contracts/UsingTellor.sol\":6510:6518  _queryId */\n      dup5\n        /* \"usingtellor/contracts/UsingTellor.sol\":6520:6526  _index */\n      dup5\n        /* \"usingtellor/contracts/UsingTellor.sol\":6477:6527  tellor.getReportTimestampByIndex(_queryId, _index) */\n      mload(0x40)\n      dup4\n      0xffffffff\n      and\n      0xe0\n      shl\n      dup2\n      mstore\n      0x04\n      add\n      tag_192\n      swap3\n      swap2\n      swap1\n      tag_179\n      jump\t// in\n    tag_192:\n      0x20\n      mload(0x40)\n      dup1\n      dup4\n      sub\n      dup2\n      dup7\n      gas\n      staticcall\n      iszero\n      dup1\n      iszero\n      tag_194\n      jumpi\n      returndatasize\n      0x00\n      dup1\n      returndatacopy\n      revert(0x00, returndatasize)\n    tag_194:\n      pop\n      pop\n      pop\n      pop\n      mload(0x40)\n      returndatasize\n      not(0x1f)\n      0x1f\n      dup3\n      add\n      and\n      dup3\n      add\n      dup1\n      0x40\n      mstore\n      pop\n      dup2\n      add\n      swap1\n      tag_195\n      swap2\n      swap1\n      tag_156\n      jump\t// in\n    tag_195:\n        /* \"usingtellor/contracts/UsingTellor.sol\":6470:6527  return tellor.getReportTimestampByIndex(_queryId, _index) */\n      swap1\n      pop\n      jump(tag_189)\n        /* \"usingtellor/contracts/UsingTellor.sol\":6290:6630  if (... */\n    tag_191:\n        /* \"usingtellor/contracts/UsingTellor.sol\":6565:6571  tellor */\n      0x00\n      dup1\n      sload\n      swap1\n      0x0100\n      exp\n      swap1\n      div\n      0xffffffffffffffffffffffffffffffffffffffff\n      and\n        /* \"usingtellor/contracts/UsingTellor.sol\":6565:6601  tellor.getTimestampbyQueryIdandIndex */\n      0xffffffffffffffffffffffffffffffffffffffff\n      and\n      0xce5e11bf\n        /* \"usingtellor/contracts/UsingTellor.sol\":6602:6610  _queryId */\n      dup5\n        /* \"usingtellor/contracts/UsingTellor.sol\":6612:6618  _index */\n      dup5\n        /* \"usingtellor/contracts/UsingTellor.sol\":6565:6619  tellor.getTimestampbyQueryIdandIndex(_queryId, _index) */\n      mload(0x40)\n      dup4\n      0xffffffff\n      and\n      0xe0\n      shl\n      dup2\n      mstore\n      0x04\n      add\n      tag_197\n      swap3\n      swap2\n      swap1\n      tag_179\n      jump\t// in\n    tag_197:\n      0x20\n      mload(0x40)\n      dup1\n      dup4\n      sub\n      dup2\n      dup7\n      gas\n      staticcall\n      iszero\n      dup1\n      iszero\n      tag_199\n      jumpi\n      returndatasize\n      0x00\n      dup1\n      returndatacopy\n      revert(0x00, returndatasize)\n    tag_199:\n      pop\n      pop\n      pop\n      pop\n      mload(0x40)\n      returndatasize\n      not(0x1f)\n      0x1f\n      dup3\n      add\n      and\n      dup3\n      add\n      dup1\n      0x40\n      mstore\n      pop\n      dup2\n      add\n      swap1\n      tag_200\n      swap2\n      swap1\n      tag_156\n      jump\t// in\n    tag_200:\n        /* \"usingtellor/contracts/UsingTellor.sol\":6558:6619  return tellor.getTimestampbyQueryIdandIndex(_queryId, _index) */\n      swap1\n      pop\n        /* \"usingtellor/contracts/UsingTellor.sol\":6108:6636  function getTimestampbyQueryIdandIndex(bytes32 _queryId, uint256 _index)... */\n    tag_189:\n      swap3\n      swap2\n      pop\n      pop\n      jump\t// out\n        /* \"contracts/TellorOracle.sol\":1914:2079  function getUnderlyingPrice(address _underlying)... */\n    tag_71:\n        /* \"contracts/TellorOracle.sol\":2010:2017  uint256 */\n      0x00\n        /* \"contracts/TellorOracle.sol\":2040:2072  _getUnderlyingPrice(_underlying) */\n      tag_202\n        /* \"contracts/TellorOracle.sol\":2060:2071  _underlying */\n      dup3\n        /* \"contracts/TellorOracle.sol\":2040:2059  _getUnderlyingPrice */\n      tag_76\n        /* \"contracts/TellorOracle.sol\":2040:2072  _getUnderlyingPrice(_underlying) */\n      jump\t// in\n    tag_202:\n        /* \"contracts/TellorOracle.sol\":2033:2072  return _getUnderlyingPrice(_underlying) */\n      swap1\n      pop\n        /* \"contracts/TellorOracle.sol\":1914:2079  function getUnderlyingPrice(address _underlying)... */\n      swap2\n      swap1\n      pop\n      jump\t// out\n        /* \"contracts/TellorOracle.sol\":2328:2823  function _getUnderlyingPrice(address _address)... */\n    tag_76:\n        /* \"contracts/TellorOracle.sol\":2422:2435  uint256 price */\n      0x00\n        /* \"contracts/TellorOracle.sol\":2451:2471  string memory _asset */\n      dup1\n        /* \"contracts/TellorOracle.sol\":2474:2489  tAddressMapping */\n      0x01\n        /* \"contracts/TellorOracle.sol\":2474:2499  tAddressMapping[_address] */\n      0x00\n        /* \"contracts/TellorOracle.sol\":2490:2498  _address */\n      dup5\n        /* \"contracts/TellorOracle.sol\":2474:2499  tAddressMapping[_address] */\n      0xffffffffffffffffffffffffffffffffffffffff\n      and\n      0xffffffffffffffffffffffffffffffffffffffff\n      and\n      dup2\n      mstore\n      0x20\n      add\n      swap1\n      dup2\n      mstore\n      0x20\n      add\n      0x00\n      keccak256\n        /* \"contracts/TellorOracle.sol\":2451:2499  string memory _asset = tAddressMapping[_address] */\n      dup1\n      sload\n      tag_204\n      swap1\n      tag_205\n      jump\t// in\n    tag_204:\n      dup1\n      0x1f\n      add\n      0x20\n      dup1\n      swap2\n      div\n      mul\n      0x20\n      add\n      mload(0x40)\n      swap1\n      dup2\n      add\n      0x40\n      mstore\n      dup1\n      swap3\n      swap2\n      swap1\n      dup2\n      dup2\n      mstore\n      0x20\n      add\n      dup3\n      dup1\n      sload\n      tag_206\n      swap1\n      tag_205\n      jump\t// in\n    tag_206:\n      dup1\n      iszero\n      tag_207\n      jumpi\n      dup1\n      0x1f\n      lt\n      tag_208\n      jumpi\n      0x0100\n      dup1\n      dup4\n      sload\n      div\n      mul\n      dup4\n      mstore\n      swap2\n      0x20\n      add\n      swap2\n      jump(tag_207)\n    tag_208:\n      dup3\n      add\n      swap2\n      swap1\n      0x00\n      mstore\n      keccak256(0x00, 0x20)\n      swap1\n    tag_209:\n      dup2\n      sload\n      dup2\n      mstore\n      swap1\n      0x01\n      add\n      swap1\n      0x20\n      add\n      dup1\n      dup4\n      gt\n      tag_209\n      jumpi\n      dup3\n      swap1\n      sub\n      0x1f\n      and\n      dup3\n      add\n      swap2\n    tag_207:\n      pop\n      pop\n      pop\n      pop\n      pop\n      swap1\n      pop\n        /* \"contracts/TellorOracle.sol\":2509:2532  bytes memory _queryData */\n      0x00\n        /* \"contracts/TellorOracle.sol\":2595:2601  _asset */\n      dup2\n        /* \"contracts/TellorOracle.sol\":2584:2609  abi.encode(_asset, \"usd\") */\n      add(0x20, mload(0x40))\n      tag_210\n      swap2\n      swap1\n      tag_211\n      jump\t// in\n    tag_210:\n      mload(0x40)\n      0x20\n      dup2\n      dup4\n      sub\n      sub\n      dup2\n      mstore\n      swap1\n      0x40\n      mstore\n        /* \"contracts/TellorOracle.sol\":2535:2619  abi.encode(... */\n      add(0x20, mload(0x40))\n      tag_212\n      swap2\n      swap1\n      tag_213\n      jump\t// in\n    tag_212:\n      mload(0x40)\n      0x20\n      dup2\n      dup4\n      sub\n      sub\n      dup2\n      mstore\n      swap1\n      0x40\n      mstore\n        /* \"contracts/TellorOracle.sol\":2509:2619  bytes memory _queryData = abi.encode(... */\n      swap1\n      pop\n        /* \"contracts/TellorOracle.sol\":2629:2645  bytes32 _queryId */\n      0x00\n        /* \"contracts/TellorOracle.sol\":2658:2668  _queryData */\n      dup2\n        /* \"contracts/TellorOracle.sol\":2648:2669  keccak256(_queryData) */\n      dup1\n      mload\n      swap1\n      0x20\n      add\n      keccak256\n        /* \"contracts/TellorOracle.sol\":2629:2669  bytes32 _queryId = keccak256(_queryData) */\n      swap1\n      pop\n        /* \"contracts/TellorOracle.sol\":2680:2695  bool ifRetrieve */\n      0x00\n        /* \"contracts/TellorOracle.sol\":2697:2716  bytes memory _value */\n      dup1\n        /* \"contracts/TellorOracle.sol\":2722:2747  getCurrentValue(_queryId) */\n      tag_214\n        /* \"contracts/TellorOracle.sol\":2738:2746  _queryId */\n      dup4\n        /* \"contracts/TellorOracle.sol\":2722:2737  getCurrentValue */\n      tag_57\n        /* \"contracts/TellorOracle.sol\":2722:2747  getCurrentValue(_queryId) */\n      jump\t// in\n    tag_214:\n        /* \"contracts/TellorOracle.sol\":2679:2747  (bool ifRetrieve, bytes memory _value, ) = getCurrentValue(_queryId) */\n      pop\n      swap2\n      pop\n      swap2\n      pop\n        /* \"contracts/TellorOracle.sol\":2762:2772  ifRetrieve */\n      dup2\n        /* \"contracts/TellorOracle.sol\":2757:2782  if (!ifRetrieve) return 0 */\n      tag_215\n      jumpi\n        /* \"contracts/TellorOracle.sol\":2781:2782  0 */\n      0x00\n        /* \"contracts/TellorOracle.sol\":2774:2782  return 0 */\n      swap6\n      pop\n      pop\n      pop\n      pop\n      pop\n      pop\n      jump(tag_203)\n        /* \"contracts/TellorOracle.sol\":2757:2782  if (!ifRetrieve) return 0 */\n    tag_215:\n        /* \"contracts/TellorOracle.sol\":2799:2816  toUint256(_value) */\n      tag_216\n        /* \"contracts/TellorOracle.sol\":2809:2815  _value */\n      dup2\n        /* \"contracts/TellorOracle.sol\":2799:2808  toUint256 */\n      tag_217\n        /* \"contracts/TellorOracle.sol\":2799:2816  toUint256(_value) */\n      jump\t// in\n    tag_216:\n        /* \"contracts/TellorOracle.sol\":2792:2816  return toUint256(_value) */\n      swap6\n      pop\n      pop\n      pop\n      pop\n      pop\n      pop\n        /* \"contracts/TellorOracle.sol\":2328:2823  function _getUnderlyingPrice(address _address)... */\n    tag_203:\n      swap2\n      swap1\n      pop\n      jump\t// out\n        /* \"contracts/TellorOracle.sol\":2829:2981  function toUint256(bytes memory _bytes)   ... */\n    tag_217:\n        /* \"contracts/TellorOracle.sol\":2901:2914  uint256 value */\n      0x00\n        /* \"contracts/TellorOracle.sol\":2967:2971  0x20 */\n      0x20\n        /* \"contracts/TellorOracle.sol\":2959:2965  _bytes */\n      dup3\n        /* \"contracts/TellorOracle.sol\":2955:2972  add(_bytes, 0x20) */\n      add\n        /* \"contracts/TellorOracle.sol\":2949:2973  mload(add(_bytes, 0x20)) */\n      mload\n        /* \"contracts/TellorOracle.sol\":2940:2973  value := mload(add(_bytes, 0x20)) */\n      swap1\n      pop\n        /* \"contracts/TellorOracle.sol\":2829:2981  function toUint256(bytes memory _bytes)   ... */\n      swap2\n      swap1\n      pop\n      jump\t// out\n        /* \"#utility.yul\":7:82   */\n    tag_219:\n        /* \"#utility.yul\":40:46   */\n      0x00\n        /* \"#utility.yul\":73:75   */\n      0x40\n        /* \"#utility.yul\":67:76   */\n      mload\n        /* \"#utility.yul\":57:76   */\n      swap1\n      pop\n        /* \"#utility.yul\":7:82   */\n      swap1\n      jump\t// out\n        /* \"#utility.yul\":88:205   */\n    tag_220:\n        /* \"#utility.yul\":197:198   */\n      0x00\n        /* \"#utility.yul\":194:195   */\n      dup1\n        /* \"#utility.yul\":187:199   */\n      revert\n        /* \"#utility.yul\":211:328   */\n    tag_221:\n        /* \"#utility.yul\":320:321   */\n      0x00\n        /* \"#utility.yul\":317:318   */\n      dup1\n        /* \"#utility.yul\":310:322   */\n      revert\n        /* \"#utility.yul\":334:460   */\n    tag_222:\n        /* \"#utility.yul\":371:378   */\n      0x00\n        /* \"#utility.yul\":411:453   */\n      0xffffffffffffffffffffffffffffffffffffffff\n        /* \"#utility.yul\":404:409   */\n      dup3\n        /* \"#utility.yul\":400:454   */\n      and\n        /* \"#utility.yul\":389:454   */\n      swap1\n      pop\n        /* \"#utility.yul\":334:460   */\n      swap2\n      swap1\n      pop\n      jump\t// out\n        /* \"#utility.yul\":466:562   */\n    tag_223:\n        /* \"#utility.yul\":503:510   */\n      0x00\n        /* \"#utility.yul\":532:556   */\n      tag_305\n        /* \"#utility.yul\":550:555   */\n      dup3\n        /* \"#utility.yul\":532:556   */\n      tag_222\n      jump\t// in\n    tag_305:\n        /* \"#utility.yul\":521:556   */\n      swap1\n      pop\n        /* \"#utility.yul\":466:562   */\n      swap2\n      swap1\n      pop\n      jump\t// out\n        /* \"#utility.yul\":568:690   */\n    tag_224:\n        /* \"#utility.yul\":641:665   */\n      tag_307\n        /* \"#utility.yul\":659:664   */\n      dup2\n        /* \"#utility.yul\":641:665   */\n      tag_223\n      jump\t// in\n    tag_307:\n        /* \"#utility.yul\":634:639   */\n      dup2\n        /* \"#utility.yul\":631:666   */\n      eq\n        /* \"#utility.yul\":621:684   */\n      tag_308\n      jumpi\n        /* \"#utility.yul\":680:681   */\n      0x00\n        /* \"#utility.yul\":677:678   */\n      dup1\n        /* \"#utility.yul\":670:682   */\n      revert\n        /* \"#utility.yul\":621:684   */\n    tag_308:\n        /* \"#utility.yul\":568:690   */\n      pop\n      jump\t// out\n        /* \"#utility.yul\":696:835   */\n    tag_225:\n        /* \"#utility.yul\":742:747   */\n      0x00\n        /* \"#utility.yul\":780:786   */\n      dup2\n        /* \"#utility.yul\":767:787   */\n      calldataload\n        /* \"#utility.yul\":758:787   */\n      swap1\n      pop\n        /* \"#utility.yul\":796:829   */\n      tag_310\n        /* \"#utility.yul\":823:828   */\n      dup2\n        /* \"#utility.yul\":796:829   */\n      tag_224\n      jump\t// in\n    tag_310:\n        /* \"#utility.yul\":696:835   */\n      swap3\n      swap2\n      pop\n      pop\n      jump\t// out\n        /* \"#utility.yul\":841:918   */\n    tag_226:\n        /* \"#utility.yul\":878:885   */\n      0x00\n        /* \"#utility.yul\":907:912   */\n      dup2\n        /* \"#utility.yul\":896:912   */\n      swap1\n      pop\n        /* \"#utility.yul\":841:918   */\n      swap2\n      swap1\n      pop\n      jump\t// out\n        /* \"#utility.yul\":924:1046   */\n    tag_227:\n        /* \"#utility.yul\":997:1021   */\n      tag_313\n        /* \"#utility.yul\":1015:1020   */\n      dup2\n        /* \"#utility.yul\":997:1021   */\n      tag_226\n      jump\t// in\n    tag_313:\n        /* \"#utility.yul\":990:995   */\n      dup2\n        /* \"#utility.yul\":987:1022   */\n      eq\n        /* \"#utility.yul\":977:1040   */\n      tag_314\n      jumpi\n        /* \"#utility.yul\":1036:1037   */\n      0x00\n        /* \"#utility.yul\":1033:1034   */\n      dup1\n        /* \"#utility.yul\":1026:1038   */\n      revert\n        /* \"#utility.yul\":977:1040   */\n    tag_314:\n        /* \"#utility.yul\":924:1046   */\n      pop\n      jump\t// out\n        /* \"#utility.yul\":1052:1191   */\n    tag_228:\n        /* \"#utility.yul\":1098:1103   */\n      0x00\n        /* \"#utility.yul\":1136:1142   */\n      dup2\n        /* \"#utility.yul\":1123:1143   */\n      calldataload\n        /* \"#utility.yul\":1114:1143   */\n      swap1\n      pop\n        /* \"#utility.yul\":1152:1185   */\n      tag_316\n        /* \"#utility.yul\":1179:1184   */\n      dup2\n        /* \"#utility.yul\":1152:1185   */\n      tag_227\n      jump\t// in\n    tag_316:\n        /* \"#utility.yul\":1052:1191   */\n      swap3\n      swap2\n      pop\n      pop\n      jump\t// out\n        /* \"#utility.yul\":1197:1671   */\n    tag_18:\n        /* \"#utility.yul\":1265:1271   */\n      0x00\n        /* \"#utility.yul\":1273:1279   */\n      dup1\n        /* \"#utility.yul\":1322:1324   */\n      0x40\n        /* \"#utility.yul\":1310:1319   */\n      dup4\n        /* \"#utility.yul\":1301:1308   */\n      dup6\n        /* \"#utility.yul\":1297:1320   */\n      sub\n        /* \"#utility.yul\":1293:1325   */\n      slt\n        /* \"#utility.yul\":1290:1409   */\n      iszero\n      tag_318\n      jumpi\n        /* \"#utility.yul\":1328:1407   */\n      tag_319\n      tag_220\n      jump\t// in\n    tag_319:\n        /* \"#utility.yul\":1290:1409   */\n    tag_318:\n        /* \"#utility.yul\":1448:1449   */\n      0x00\n        /* \"#utility.yul\":1473:1526   */\n      tag_320\n        /* \"#utility.yul\":1518:1525   */\n      dup6\n        /* \"#utility.yul\":1509:1515   */\n      dup3\n        /* \"#utility.yul\":1498:1507   */\n      dup7\n        /* \"#utility.yul\":1494:1516   */\n      add\n        /* \"#utility.yul\":1473:1526   */\n      tag_225\n      jump\t// in\n    tag_320:\n        /* \"#utility.yul\":1463:1526   */\n      swap3\n      pop\n        /* \"#utility.yul\":1419:1536   */\n      pop\n        /* \"#utility.yul\":1575:1577   */\n      0x20\n        /* \"#utility.yul\":1601:1654   */\n      tag_321\n        /* \"#utility.yul\":1646:1653   */\n      dup6\n        /* \"#utility.yul\":1637:1643   */\n      dup3\n        /* \"#utility.yul\":1626:1635   */\n      dup7\n        /* \"#utility.yul\":1622:1644   */\n      add\n        /* \"#utility.yul\":1601:1654   */\n      tag_228\n      jump\t// in\n    tag_321:\n        /* \"#utility.yul\":1591:1654   */\n      swap2\n      pop\n        /* \"#utility.yul\":1546:1664   */\n      pop\n        /* \"#utility.yul\":1197:1671   */\n      swap3\n      pop\n      swap3\n      swap1\n      pop\n      jump\t// out\n        /* \"#utility.yul\":1677:1795   */\n    tag_229:\n        /* \"#utility.yul\":1764:1788   */\n      tag_323\n        /* \"#utility.yul\":1782:1787   */\n      dup2\n        /* \"#utility.yul\":1764:1788   */\n      tag_226\n      jump\t// in\n    tag_323:\n        /* \"#utility.yul\":1759:1762   */\n      dup3\n        /* \"#utility.yul\":1752:1789   */\n      mstore\n        /* \"#utility.yul\":1677:1795   */\n      pop\n      pop\n      jump\t// out\n        /* \"#utility.yul\":1801:2023   */\n    tag_21:\n        /* \"#utility.yul\":1894:1898   */\n      0x00\n        /* \"#utility.yul\":1932:1934   */\n      0x20\n        /* \"#utility.yul\":1921:1930   */\n      dup3\n        /* \"#utility.yul\":1917:1935   */\n      add\n        /* \"#utility.yul\":1909:1935   */\n      swap1\n      pop\n        /* \"#utility.yul\":1945:2016   */\n      tag_325\n        /* \"#utility.yul\":2013:2014   */\n      0x00\n        /* \"#utility.yul\":2002:2011   */\n      dup4\n        /* \"#utility.yul\":1998:2015   */\n      add\n        /* \"#utility.yul\":1989:1995   */\n      dup5\n        /* \"#utility.yul\":1945:2016   */\n      tag_229\n      jump\t// in\n    tag_325:\n        /* \"#utility.yul\":1801:2023   */\n      swap3\n      swap2\n      pop\n      pop\n      jump\t// out\n        /* \"#utility.yul\":2029:2147   */\n    tag_230:\n        /* \"#utility.yul\":2116:2140   */\n      tag_327\n        /* \"#utility.yul\":2134:2139   */\n      dup2\n        /* \"#utility.yul\":2116:2140   */\n      tag_223\n      jump\t// in\n    tag_327:\n        /* \"#utility.yul\":2111:2114   */\n      dup3\n        /* \"#utility.yul\":2104:2141   */\n      mstore\n        /* \"#utility.yul\":2029:2147   */\n      pop\n      pop\n      jump\t// out\n        /* \"#utility.yul\":2153:2375   */\n    tag_25:\n        /* \"#utility.yul\":2246:2250   */\n      0x00\n        /* \"#utility.yul\":2284:2286   */\n      0x20\n        /* \"#utility.yul\":2273:2282   */\n      dup3\n        /* \"#utility.yul\":2269:2287   */\n      add\n        /* \"#utility.yul\":2261:2287   */\n      swap1\n      pop\n        /* \"#utility.yul\":2297:2368   */\n      tag_329\n        /* \"#utility.yul\":2365:2366   */\n      0x00\n        /* \"#utility.yul\":2354:2363   */\n      dup4\n        /* \"#utility.yul\":2350:2367   */\n      add\n        /* \"#utility.yul\":2341:2347   */\n      dup5\n        /* \"#utility.yul\":2297:2368   */\n      tag_230\n      jump\t// in\n    tag_329:\n        /* \"#utility.yul\":2153:2375   */\n      swap3\n      swap2\n      pop\n      pop\n      jump\t// out\n        /* \"#utility.yul\":2381:2441   */\n    tag_231:\n        /* \"#utility.yul\":2409:2412   */\n      0x00\n        /* \"#utility.yul\":2430:2435   */\n      dup2\n        /* \"#utility.yul\":2423:2435   */\n      swap1\n      pop\n        /* \"#utility.yul\":2381:2441   */\n      swap2\n      swap1\n      pop\n      jump\t// out\n        /* \"#utility.yul\":2447:2589   */\n    tag_232:\n        /* \"#utility.yul\":2497:2506   */\n      0x00\n        /* \"#utility.yul\":2530:2583   */\n      tag_332\n        /* \"#utility.yul\":2548:2582   */\n      tag_333\n        /* \"#utility.yul\":2557:2581   */\n      tag_334\n        /* \"#utility.yul\":2575:2580   */\n      dup5\n        /* \"#utility.yul\":2557:2581   */\n      tag_222\n      jump\t// in\n    tag_334:\n        /* \"#utility.yul\":2548:2582   */\n      tag_231\n      jump\t// in\n    tag_333:\n        /* \"#utility.yul\":2530:2583   */\n      tag_222\n      jump\t// in\n    tag_332:\n        /* \"#utility.yul\":2517:2583   */\n      swap1\n      pop\n        /* \"#utility.yul\":2447:2589   */\n      swap2\n      swap1\n      pop\n      jump\t// out\n        /* \"#utility.yul\":2595:2721   */\n    tag_233:\n        /* \"#utility.yul\":2645:2654   */\n      0x00\n        /* \"#utility.yul\":2678:2715   */\n      tag_336\n        /* \"#utility.yul\":2709:2714   */\n      dup3\n        /* \"#utility.yul\":2678:2715   */\n      tag_232\n      jump\t// in\n    tag_336:\n        /* \"#utility.yul\":2665:2715   */\n      swap1\n      pop\n        /* \"#utility.yul\":2595:2721   */\n      swap2\n      swap1\n      pop\n      jump\t// out\n        /* \"#utility.yul\":2727:2869   */\n    tag_234:\n        /* \"#utility.yul\":2793:2802   */\n      0x00\n        /* \"#utility.yul\":2826:2863   */\n      tag_338\n        /* \"#utility.yul\":2857:2862   */\n      dup3\n        /* \"#utility.yul\":2826:2863   */\n      tag_233\n      jump\t// in\n    tag_338:\n        /* \"#utility.yul\":2813:2863   */\n      swap1\n      pop\n        /* \"#utility.yul\":2727:2869   */\n      swap2\n      swap1\n      pop\n      jump\t// out\n        /* \"#utility.yul\":2875:3038   */\n    tag_235:\n        /* \"#utility.yul\":2978:3031   */\n      tag_340\n        /* \"#utility.yul\":3025:3030   */\n      dup2\n        /* \"#utility.yul\":2978:3031   */\n      tag_234\n      jump\t// in\n    tag_340:\n        /* \"#utility.yul\":2973:2976   */\n      dup3\n        /* \"#utility.yul\":2966:3032   */\n      mstore\n        /* \"#utility.yul\":2875:3038   */\n      pop\n      pop\n      jump\t// out\n        /* \"#utility.yul\":3044:3298   */\n    tag_29:\n        /* \"#utility.yul\":3153:3157   */\n      0x00\n        /* \"#utility.yul\":3191:3193   */\n      0x20\n        /* \"#utility.yul\":3180:3189   */\n      dup3\n        /* \"#utility.yul\":3176:3194   */\n      add\n        /* \"#utility.yul\":3168:3194   */\n      swap1\n      pop\n        /* \"#utility.yul\":3204:3291   */\n      tag_342\n        /* \"#utility.yul\":3288:3289   */\n      0x00\n        /* \"#utility.yul\":3277:3286   */\n      dup4\n        /* \"#utility.yul\":3273:3290   */\n      add\n        /* \"#utility.yul\":3264:3270   */\n      dup5\n        /* \"#utility.yul\":3204:3291   */\n      tag_235\n      jump\t// in\n    tag_342:\n        /* \"#utility.yul\":3044:3298   */\n      swap3\n      swap2\n      pop\n      pop\n      jump\t// out\n        /* \"#utility.yul\":3304:3381   */\n    tag_236:\n        /* \"#utility.yul\":3341:3348   */\n      0x00\n        /* \"#utility.yul\":3370:3375   */\n      dup2\n        /* \"#utility.yul\":3359:3375   */\n      swap1\n      pop\n        /* \"#utility.yul\":3304:3381   */\n      swap2\n      swap1\n      pop\n      jump\t// out\n        /* \"#utility.yul\":3387:3509   */\n    tag_237:\n        /* \"#utility.yul\":3460:3484   */\n      tag_345\n        /* \"#utility.yul\":3478:3483   */\n      dup2\n        /* \"#utility.yul\":3460:3484   */\n      tag_236\n      jump\t// in\n    tag_345:\n        /* \"#utility.yul\":3453:3458   */\n      dup2\n        /* \"#utility.yul\":3450:3485   */\n      eq\n        /* \"#utility.yul\":3440:3503   */\n      tag_346\n      jumpi\n        /* \"#utility.yul\":3499:3500   */\n      0x00\n        /* \"#utility.yul\":3496:3497   */\n      dup1\n        /* \"#utility.yul\":3489:3501   */\n      revert\n        /* \"#utility.yul\":3440:3503   */\n    tag_346:\n        /* \"#utility.yul\":3387:3509   */\n      pop\n      jump\t// out\n        /* \"#utility.yul\":3515:3654   */\n    tag_238:\n        /* \"#utility.yul\":3561:3566   */\n      0x00\n        /* \"#utility.yul\":3599:3605   */\n      dup2\n        /* \"#utility.yul\":3586:3606   */\n      calldataload\n        /* \"#utility.yul\":3577:3606   */\n      swap1\n      pop\n        /* \"#utility.yul\":3615:3648   */\n      tag_348\n        /* \"#utility.yul\":3642:3647   */\n      dup2\n        /* \"#utility.yul\":3615:3648   */\n      tag_237\n      jump\t// in\n    tag_348:\n        /* \"#utility.yul\":3515:3654   */\n      swap3\n      swap2\n      pop\n      pop\n      jump\t// out\n        /* \"#utility.yul\":3660:4134   */\n    tag_32:\n        /* \"#utility.yul\":3728:3734   */\n      0x00\n        /* \"#utility.yul\":3736:3742   */\n      dup1\n        /* \"#utility.yul\":3785:3787   */\n      0x40\n        /* \"#utility.yul\":3773:3782   */\n      dup4\n        /* \"#utility.yul\":3764:3771   */\n      dup6\n        /* \"#utility.yul\":3760:3783   */\n      sub\n        /* \"#utility.yul\":3756:3788   */\n      slt\n        /* \"#utility.yul\":3753:3872   */\n      iszero\n      tag_350\n      jumpi\n        /* \"#utility.yul\":3791:3870   */\n      tag_351\n      tag_220\n      jump\t// in\n    tag_351:\n        /* \"#utility.yul\":3753:3872   */\n    tag_350:\n        /* \"#utility.yul\":3911:3912   */\n      0x00\n        /* \"#utility.yul\":3936:3989   */\n      tag_352\n        /* \"#utility.yul\":3981:3988   */\n      dup6\n        /* \"#utility.yul\":3972:3978   */\n      dup3\n        /* \"#utility.yul\":3961:3970   */\n      dup7\n        /* \"#utility.yul\":3957:3979   */\n      add\n        /* \"#utility.yul\":3936:3989   */\n      tag_238\n      jump\t// in\n    tag_352:\n        /* \"#utility.yul\":3926:3989   */\n      swap3\n      pop\n        /* \"#utility.yul\":3882:3999   */\n      pop\n        /* \"#utility.yul\":4038:4040   */\n      0x20\n        /* \"#utility.yul\":4064:4117   */\n      tag_353\n        /* \"#utility.yul\":4109:4116   */\n      dup6\n        /* \"#utility.yul\":4100:4106   */\n      dup3\n        /* \"#utility.yul\":4089:4098   */\n      dup7\n        /* \"#utility.yul\":4085:4107   */\n      add\n        /* \"#utility.yul\":4064:4117   */\n      tag_228\n      jump\t// in\n    tag_353:\n        /* \"#utility.yul\":4054:4117   */\n      swap2\n      pop\n        /* \"#utility.yul\":4009:4127   */\n      pop\n        /* \"#utility.yul\":3660:4134   */\n      swap3\n      pop\n      swap3\n      swap1\n      pop\n      jump\t// out\n        /* \"#utility.yul\":4140:4230   */\n    tag_239:\n        /* \"#utility.yul\":4174:4181   */\n      0x00\n        /* \"#utility.yul\":4217:4222   */\n      dup2\n        /* \"#utility.yul\":4210:4223   */\n      iszero\n        /* \"#utility.yul\":4203:4224   */\n      iszero\n        /* \"#utility.yul\":4192:4224   */\n      swap1\n      pop\n        /* \"#utility.yul\":4140:4230   */\n      swap2\n      swap1\n      pop\n      jump\t// out\n        /* \"#utility.yul\":4236:4345   */\n    tag_240:\n        /* \"#utility.yul\":4317:4338   */\n      tag_356\n        /* \"#utility.yul\":4332:4337   */\n      dup2\n        /* \"#utility.yul\":4317:4338   */\n      tag_239\n      jump\t// in\n    tag_356:\n        /* \"#utility.yul\":4312:4315   */\n      dup3\n        /* \"#utility.yul\":4305:4339   */\n      mstore\n        /* \"#utility.yul\":4236:4345   */\n      pop\n      pop\n      jump\t// out\n        /* \"#utility.yul\":4351:4671   */\n    tag_35:\n        /* \"#utility.yul\":4466:4470   */\n      0x00\n        /* \"#utility.yul\":4504:4506   */\n      0x40\n        /* \"#utility.yul\":4493:4502   */\n      dup3\n        /* \"#utility.yul\":4489:4507   */\n      add\n        /* \"#utility.yul\":4481:4507   */\n      swap1\n      pop\n        /* \"#utility.yul\":4517:4582   */\n      tag_358\n        /* \"#utility.yul\":4579:4580   */\n      0x00\n        /* \"#utility.yul\":4568:4577   */\n      dup4\n        /* \"#utility.yul\":4564:4581   */\n      add\n        /* \"#utility.yul\":4555:4561   */\n      dup6\n        /* \"#utility.yul\":4517:4582   */\n      tag_240\n      jump\t// in\n    tag_358:\n        /* \"#utility.yul\":4592:4664   */\n      tag_359\n        /* \"#utility.yul\":4660:4662   */\n      0x20\n        /* \"#utility.yul\":4649:4658   */\n      dup4\n        /* \"#utility.yul\":4645:4663   */\n      add\n        /* \"#utility.yul\":4636:4642   */\n      dup5\n        /* \"#utility.yul\":4592:4664   */\n      tag_229\n      jump\t// in\n    tag_359:\n        /* \"#utility.yul\":4351:4671   */\n      swap4\n      swap3\n      pop\n      pop\n      pop\n      jump\t// out\n        /* \"#utility.yul\":4677:4887   */\n    tag_40:\n        /* \"#utility.yul\":4764:4768   */\n      0x00\n        /* \"#utility.yul\":4802:4804   */\n      0x20\n        /* \"#utility.yul\":4791:4800   */\n      dup3\n        /* \"#utility.yul\":4787:4805   */\n      add\n        /* \"#utility.yul\":4779:4805   */\n      swap1\n      pop\n        /* \"#utility.yul\":4815:4880   */\n      tag_361\n        /* \"#utility.yul\":4877:4878   */\n      0x00\n        /* \"#utility.yul\":4866:4875   */\n      dup4\n        /* \"#utility.yul\":4862:4879   */\n      add\n        /* \"#utility.yul\":4853:4859   */\n      dup5\n        /* \"#utility.yul\":4815:4880   */\n      tag_240\n      jump\t// in\n    tag_361:\n        /* \"#utility.yul\":4677:4887   */\n      swap3\n      swap2\n      pop\n      pop\n      jump\t// out\n        /* \"#utility.yul\":4893:5010   */\n    tag_241:\n        /* \"#utility.yul\":5002:5003   */\n      0x00\n        /* \"#utility.yul\":4999:5000   */\n      dup1\n        /* \"#utility.yul\":4992:5004   */\n      revert\n        /* \"#utility.yul\":5016:5133   */\n    tag_242:\n        /* \"#utility.yul\":5125:5126   */\n      0x00\n        /* \"#utility.yul\":5122:5123   */\n      dup1\n        /* \"#utility.yul\":5115:5127   */\n      revert\n        /* \"#utility.yul\":5139:5256   */\n    tag_243:\n        /* \"#utility.yul\":5248:5249   */\n      0x00\n        /* \"#utility.yul\":5245:5246   */\n      dup1\n        /* \"#utility.yul\":5238:5250   */\n      revert\n        /* \"#utility.yul\":5276:5829   */\n    tag_244:\n        /* \"#utility.yul\":5334:5342   */\n      0x00\n        /* \"#utility.yul\":5344:5350   */\n      dup1\n        /* \"#utility.yul\":5394:5397   */\n      dup4\n        /* \"#utility.yul\":5387:5391   */\n      0x1f\n        /* \"#utility.yul\":5379:5385   */\n      dup5\n        /* \"#utility.yul\":5375:5392   */\n      add\n        /* \"#utility.yul\":5371:5398   */\n      slt\n        /* \"#utility.yul\":5361:5483   */\n      tag_366\n      jumpi\n        /* \"#utility.yul\":5402:5481   */\n      tag_367\n      tag_241\n      jump\t// in\n    tag_367:\n        /* \"#utility.yul\":5361:5483   */\n    tag_366:\n        /* \"#utility.yul\":5515:5521   */\n      dup3\n        /* \"#utility.yul\":5502:5522   */\n      calldataload\n        /* \"#utility.yul\":5492:5522   */\n      swap1\n      pop\n        /* \"#utility.yul\":5545:5563   */\n      0xffffffffffffffff\n        /* \"#utility.yul\":5537:5543   */\n      dup2\n        /* \"#utility.yul\":5534:5564   */\n      gt\n        /* \"#utility.yul\":5531:5648   */\n      iszero\n      tag_368\n      jumpi\n        /* \"#utility.yul\":5567:5646   */\n      tag_369\n      tag_242\n      jump\t// in\n    tag_369:\n        /* \"#utility.yul\":5531:5648   */\n    tag_368:\n        /* \"#utility.yul\":5681:5685   */\n      0x20\n        /* \"#utility.yul\":5673:5679   */\n      dup4\n        /* \"#utility.yul\":5669:5686   */\n      add\n        /* \"#utility.yul\":5657:5686   */\n      swap2\n      pop\n        /* \"#utility.yul\":5735:5738   */\n      dup4\n        /* \"#utility.yul\":5727:5731   */\n      0x01\n        /* \"#utility.yul\":5719:5725   */\n      dup3\n        /* \"#utility.yul\":5715:5732   */\n      mul\n        /* \"#utility.yul\":5705:5713   */\n      dup4\n        /* \"#utility.yul\":5701:5733   */\n      add\n        /* \"#utility.yul\":5698:5739   */\n      gt\n        /* \"#utility.yul\":5695:5823   */\n      iszero\n      tag_370\n      jumpi\n        /* \"#utility.yul\":5742:5821   */\n      tag_371\n      tag_243\n      jump\t// in\n    tag_371:\n        /* \"#utility.yul\":5695:5823   */\n    tag_370:\n        /* \"#utility.yul\":5276:5829   */\n      swap3\n      pop\n      swap3\n      swap1\n      pop\n      jump\t// out\n        /* \"#utility.yul\":5835:6509   */\n    tag_43:\n        /* \"#utility.yul\":5915:5921   */\n      0x00\n        /* \"#utility.yul\":5923:5929   */\n      dup1\n        /* \"#utility.yul\":5931:5937   */\n      0x00\n        /* \"#utility.yul\":5980:5982   */\n      0x40\n        /* \"#utility.yul\":5968:5977   */\n      dup5\n        /* \"#utility.yul\":5959:5966   */\n      dup7\n        /* \"#utility.yul\":5955:5978   */\n      sub\n        /* \"#utility.yul\":5951:5983   */\n      slt\n        /* \"#utility.yul\":5948:6067   */\n      iszero\n      tag_373\n      jumpi\n        /* \"#utility.yul\":5986:6065   */\n      tag_374\n      tag_220\n      jump\t// in\n    tag_374:\n        /* \"#utility.yul\":5948:6067   */\n    tag_373:\n        /* \"#utility.yul\":6106:6107   */\n      0x00\n        /* \"#utility.yul\":6131:6184   */\n      tag_375\n        /* \"#utility.yul\":6176:6183   */\n      dup7\n        /* \"#utility.yul\":6167:6173   */\n      dup3\n        /* \"#utility.yul\":6156:6165   */\n      dup8\n        /* \"#utility.yul\":6152:6174   */\n      add\n        /* \"#utility.yul\":6131:6184   */\n      tag_225\n      jump\t// in\n    tag_375:\n        /* \"#utility.yul\":6121:6184   */\n      swap4\n      pop\n        /* \"#utility.yul\":6077:6194   */\n      pop\n        /* \"#utility.yul\":6261:6263   */\n      0x20\n        /* \"#utility.yul\":6250:6259   */\n      dup5\n        /* \"#utility.yul\":6246:6264   */\n      add\n        /* \"#utility.yul\":6233:6265   */\n      calldataload\n        /* \"#utility.yul\":6292:6310   */\n      0xffffffffffffffff\n        /* \"#utility.yul\":6284:6290   */\n      dup2\n        /* \"#utility.yul\":6281:6311   */\n      gt\n        /* \"#utility.yul\":6278:6395   */\n      iszero\n      tag_376\n      jumpi\n        /* \"#utility.yul\":6314:6393   */\n      tag_377\n      tag_221\n      jump\t// in\n    tag_377:\n        /* \"#utility.yul\":6278:6395   */\n    tag_376:\n        /* \"#utility.yul\":6427:6492   */\n      tag_378\n        /* \"#utility.yul\":6484:6491   */\n      dup7\n        /* \"#utility.yul\":6475:6481   */\n      dup3\n        /* \"#utility.yul\":6464:6473   */\n      dup8\n        /* \"#utility.yul\":6460:6482   */\n      add\n        /* \"#utility.yul\":6427:6492   */\n      tag_244\n      jump\t// in\n    tag_378:\n        /* \"#utility.yul\":6409:6492   */\n      swap3\n      pop\n      swap3\n      pop\n        /* \"#utility.yul\":6204:6502   */\n      pop\n        /* \"#utility.yul\":5835:6509   */\n      swap3\n      pop\n      swap3\n      pop\n      swap3\n      jump\t// out\n        /* \"#utility.yul\":6515:6844   */\n    tag_47:\n        /* \"#utility.yul\":6574:6580   */\n      0x00\n        /* \"#utility.yul\":6623:6625   */\n      0x20\n        /* \"#utility.yul\":6611:6620   */\n      dup3\n        /* \"#utility.yul\":6602:6609   */\n      dup5\n        /* \"#utility.yul\":6598:6621   */\n      sub\n        /* \"#utility.yul\":6594:6626   */\n      slt\n        /* \"#utility.yul\":6591:6710   */\n      iszero\n      tag_380\n      jumpi\n        /* \"#utility.yul\":6629:6708   */\n      tag_381\n      tag_220\n      jump\t// in\n    tag_381:\n        /* \"#utility.yul\":6591:6710   */\n    tag_380:\n        /* \"#utility.yul\":6749:6750   */\n      0x00\n        /* \"#utility.yul\":6774:6827   */\n      tag_382\n        /* \"#utility.yul\":6819:6826   */\n      dup5\n        /* \"#utility.yul\":6810:6816   */\n      dup3\n        /* \"#utility.yul\":6799:6808   */\n      dup6\n        /* \"#utility.yul\":6795:6817   */\n      add\n        /* \"#utility.yul\":6774:6827   */\n      tag_238\n      jump\t// in\n    tag_382:\n        /* \"#utility.yul\":6764:6827   */\n      swap2\n      pop\n        /* \"#utility.yul\":6720:6837   */\n      pop\n        /* \"#utility.yul\":6515:6844   */\n      swap3\n      swap2\n      pop\n      pop\n      jump\t// out\n        /* \"#utility.yul\":6850:6948   */\n    tag_245:\n        /* \"#utility.yul\":6901:6907   */\n      0x00\n        /* \"#utility.yul\":6935:6940   */\n      dup2\n        /* \"#utility.yul\":6929:6941   */\n      mload\n        /* \"#utility.yul\":6919:6941   */\n      swap1\n      pop\n        /* \"#utility.yul\":6850:6948   */\n      swap2\n      swap1\n      pop\n      jump\t// out\n        /* \"#utility.yul\":6954:7122   */\n    tag_246:\n        /* \"#utility.yul\":7037:7048   */\n      0x00\n        /* \"#utility.yul\":7071:7077   */\n      dup3\n        /* \"#utility.yul\":7066:7069   */\n      dup3\n        /* \"#utility.yul\":7059:7078   */\n      mstore\n        /* \"#utility.yul\":7111:7115   */\n      0x20\n        /* \"#utility.yul\":7106:7109   */\n      dup3\n        /* \"#utility.yul\":7102:7116   */\n      add\n        /* \"#utility.yul\":7087:7116   */\n      swap1\n      pop\n        /* \"#utility.yul\":6954:7122   */\n      swap3\n      swap2\n      pop\n      pop\n      jump\t// out\n        /* \"#utility.yul\":7128:7374   */\n    tag_247:\n        /* \"#utility.yul\":7209:7210   */\n      0x00\n        /* \"#utility.yul\":7219:7332   */\n    tag_386:\n        /* \"#utility.yul\":7233:7239   */\n      dup4\n        /* \"#utility.yul\":7230:7231   */\n      dup2\n        /* \"#utility.yul\":7227:7240   */\n      lt\n        /* \"#utility.yul\":7219:7332   */\n      iszero\n      tag_388\n      jumpi\n        /* \"#utility.yul\":7318:7319   */\n      dup1\n        /* \"#utility.yul\":7313:7316   */\n      dup3\n        /* \"#utility.yul\":7309:7320   */\n      add\n        /* \"#utility.yul\":7303:7321   */\n      mload\n        /* \"#utility.yul\":7299:7300   */\n      dup2\n        /* \"#utility.yul\":7294:7297   */\n      dup5\n        /* \"#utility.yul\":7290:7301   */\n      add\n        /* \"#utility.yul\":7283:7322   */\n      mstore\n        /* \"#utility.yul\":7255:7257   */\n      0x20\n        /* \"#utility.yul\":7252:7253   */\n      dup2\n        /* \"#utility.yul\":7248:7258   */\n      add\n        /* \"#utility.yul\":7243:7258   */\n      swap1\n      pop\n        /* \"#utility.yul\":7219:7332   */\n      jump(tag_386)\n    tag_388:\n        /* \"#utility.yul\":7366:7367   */\n      0x00\n        /* \"#utility.yul\":7357:7363   */\n      dup5\n        /* \"#utility.yul\":7352:7355   */\n      dup5\n        /* \"#utility.yul\":7348:7364   */\n      add\n        /* \"#utility.yul\":7341:7368   */\n      mstore\n        /* \"#utility.yul\":7190:7374   */\n      pop\n        /* \"#utility.yul\":7128:7374   */\n      pop\n      pop\n      pop\n      jump\t// out\n        /* \"#utility.yul\":7380:7482   */\n    tag_248:\n        /* \"#utility.yul\":7421:7427   */\n      0x00\n        /* \"#utility.yul\":7472:7474   */\n      0x1f\n        /* \"#utility.yul\":7468:7475   */\n      not\n        /* \"#utility.yul\":7463:7465   */\n      0x1f\n        /* \"#utility.yul\":7456:7461   */\n      dup4\n        /* \"#utility.yul\":7452:7466   */\n      add\n        /* \"#utility.yul\":7448:7476   */\n      and\n        /* \"#utility.yul\":7438:7476   */\n      swap1\n      pop\n        /* \"#utility.yul\":7380:7482   */\n      swap2\n      swap1\n      pop\n      jump\t// out\n        /* \"#utility.yul\":7488:7861   */\n    tag_249:\n        /* \"#utility.yul\":7574:7577   */\n      0x00\n        /* \"#utility.yul\":7602:7640   */\n      tag_391\n        /* \"#utility.yul\":7634:7639   */\n      dup3\n        /* \"#utility.yul\":7602:7640   */\n      tag_245\n      jump\t// in\n    tag_391:\n        /* \"#utility.yul\":7656:7726   */\n      tag_392\n        /* \"#utility.yul\":7719:7725   */\n      dup2\n        /* \"#utility.yul\":7714:7717   */\n      dup6\n        /* \"#utility.yul\":7656:7726   */\n      tag_246\n      jump\t// in\n    tag_392:\n        /* \"#utility.yul\":7649:7726   */\n      swap4\n      pop\n        /* \"#utility.yul\":7735:7800   */\n      tag_393\n        /* \"#utility.yul\":7793:7799   */\n      dup2\n        /* \"#utility.yul\":7788:7791   */\n      dup6\n        /* \"#utility.yul\":7781:7785   */\n      0x20\n        /* \"#utility.yul\":7774:7779   */\n      dup7\n        /* \"#utility.yul\":7770:7786   */\n      add\n        /* \"#utility.yul\":7735:7800   */\n      tag_247\n      jump\t// in\n    tag_393:\n        /* \"#utility.yul\":7825:7854   */\n      tag_394\n        /* \"#utility.yul\":7847:7853   */\n      dup2\n        /* \"#utility.yul\":7825:7854   */\n      tag_248\n      jump\t// in\n    tag_394:\n        /* \"#utility.yul\":7820:7823   */\n      dup5\n        /* \"#utility.yul\":7816:7855   */\n      add\n        /* \"#utility.yul\":7809:7855   */\n      swap2\n      pop\n        /* \"#utility.yul\":7578:7861   */\n      pop\n        /* \"#utility.yul\":7488:7861   */\n      swap3\n      swap2\n      pop\n      pop\n      jump\t// out\n        /* \"#utility.yul\":7867:8384   */\n    tag_54:\n        /* \"#utility.yul\":8028:8032   */\n      0x00\n        /* \"#utility.yul\":8066:8068   */\n      0x60\n        /* \"#utility.yul\":8055:8064   */\n      dup3\n        /* \"#utility.yul\":8051:8069   */\n      add\n        /* \"#utility.yul\":8043:8069   */\n      swap1\n      pop\n        /* \"#utility.yul\":8079:8144   */\n      tag_396\n        /* \"#utility.yul\":8141:8142   */\n      0x00\n        /* \"#utility.yul\":8130:8139   */\n      dup4\n        /* \"#utility.yul\":8126:8143   */\n      add\n        /* \"#utility.yul\":8117:8123   */\n      dup7\n        /* \"#utility.yul\":8079:8144   */\n      tag_240\n      jump\t// in\n    tag_396:\n        /* \"#utility.yul\":8191:8200   */\n      dup2\n        /* \"#utility.yul\":8185:8189   */\n      dup2\n        /* \"#utility.yul\":8181:8201   */\n      sub\n        /* \"#utility.yul\":8176:8178   */\n      0x20\n        /* \"#utility.yul\":8165:8174   */\n      dup4\n        /* \"#utility.yul\":8161:8179   */\n      add\n        /* \"#utility.yul\":8154:8202   */\n      mstore\n        /* \"#utility.yul\":8219:8295   */\n      tag_397\n        /* \"#utility.yul\":8290:8294   */\n      dup2\n        /* \"#utility.yul\":8281:8287   */\n      dup6\n        /* \"#utility.yul\":8219:8295   */\n      tag_249\n      jump\t// in\n    tag_397:\n        /* \"#utility.yul\":8211:8295   */\n      swap1\n      pop\n        /* \"#utility.yul\":8305:8377   */\n      tag_398\n        /* \"#utility.yul\":8373:8375   */\n      0x40\n        /* \"#utility.yul\":8362:8371   */\n      dup4\n        /* \"#utility.yul\":8358:8376   */\n      add\n        /* \"#utility.yul\":8349:8355   */\n      dup5\n        /* \"#utility.yul\":8305:8377   */\n      tag_229\n      jump\t// in\n    tag_398:\n        /* \"#utility.yul\":7867:8384   */\n      swap5\n      swap4\n      pop\n      pop\n      pop\n      pop\n      jump\t// out\n        /* \"#utility.yul\":8390:8699   */\n    tag_63:\n        /* \"#utility.yul\":8501:8505   */\n      0x00\n        /* \"#utility.yul\":8539:8541   */\n      0x20\n        /* \"#utility.yul\":8528:8537   */\n      dup3\n        /* \"#utility.yul\":8524:8542   */\n      add\n        /* \"#utility.yul\":8516:8542   */\n      swap1\n      pop\n        /* \"#utility.yul\":8588:8597   */\n      dup2\n        /* \"#utility.yul\":8582:8586   */\n      dup2\n        /* \"#utility.yul\":8578:8598   */\n      sub\n        /* \"#utility.yul\":8574:8575   */\n      0x00\n        /* \"#utility.yul\":8563:8572   */\n      dup4\n        /* \"#utility.yul\":8559:8576   */\n      add\n        /* \"#utility.yul\":8552:8599   */\n      mstore\n        /* \"#utility.yul\":8616:8692   */\n      tag_400\n        /* \"#utility.yul\":8687:8691   */\n      dup2\n        /* \"#utility.yul\":8678:8684   */\n      dup5\n        /* \"#utility.yul\":8616:8692   */\n      tag_249\n      jump\t// in\n    tag_400:\n        /* \"#utility.yul\":8608:8692   */\n      swap1\n      pop\n        /* \"#utility.yul\":8390:8699   */\n      swap3\n      swap2\n      pop\n      pop\n      jump\t// out\n        /* \"#utility.yul\":8705:9034   */\n    tag_70:\n        /* \"#utility.yul\":8764:8770   */\n      0x00\n        /* \"#utility.yul\":8813:8815   */\n      0x20\n        /* \"#utility.yul\":8801:8810   */\n      dup3\n        /* \"#utility.yul\":8792:8799   */\n      dup5\n        /* \"#utility.yul\":8788:8811   */\n      sub\n        /* \"#utility.yul\":8784:8816   */\n      slt\n        /* \"#utility.yul\":8781:8900   */\n      iszero\n      tag_402\n      jumpi\n        /* \"#utility.yul\":8819:8898   */\n      tag_403\n      tag_220\n      jump\t// in\n    tag_403:\n        /* \"#utility.yul\":8781:8900   */\n    tag_402:\n        /* \"#utility.yul\":8939:8940   */\n      0x00\n        /* \"#utility.yul\":8964:9017   */\n      tag_404\n        /* \"#utility.yul\":9009:9016   */\n      dup5\n        /* \"#utility.yul\":9000:9006   */\n      dup3\n        /* \"#utility.yul\":8989:8998   */\n      dup6\n        /* \"#utility.yul\":8985:9007   */\n      add\n        /* \"#utility.yul\":8964:9017   */\n      tag_225\n      jump\t// in\n    tag_404:\n        /* \"#utility.yul\":8954:9017   */\n      swap2\n      pop\n        /* \"#utility.yul\":8910:9027   */\n      pop\n        /* \"#utility.yul\":8705:9034   */\n      swap3\n      swap2\n      pop\n      pop\n      jump\t// out\n        /* \"#utility.yul\":9040:9220   */\n    tag_250:\n        /* \"#utility.yul\":9088:9165   */\n      0x4e487b7100000000000000000000000000000000000000000000000000000000\n        /* \"#utility.yul\":9085:9086   */\n      0x00\n        /* \"#utility.yul\":9078:9166   */\n      mstore\n        /* \"#utility.yul\":9185:9189   */\n      0x41\n        /* \"#utility.yul\":9182:9183   */\n      0x04\n        /* \"#utility.yul\":9175:9190   */\n      mstore\n        /* \"#utility.yul\":9209:9213   */\n      0x24\n        /* \"#utility.yul\":9206:9207   */\n      0x00\n        /* \"#utility.yul\":9199:9214   */\n      revert\n        /* \"#utility.yul\":9226:9507   */\n    tag_251:\n        /* \"#utility.yul\":9309:9336   */\n      tag_407\n        /* \"#utility.yul\":9331:9335   */\n      dup3\n        /* \"#utility.yul\":9309:9336   */\n      tag_248\n      jump\t// in\n    tag_407:\n        /* \"#utility.yul\":9301:9307   */\n      dup2\n        /* \"#utility.yul\":9297:9337   */\n      add\n        /* \"#utility.yul\":9439:9445   */\n      dup2\n        /* \"#utility.yul\":9427:9437   */\n      dup2\n        /* \"#utility.yul\":9424:9446   */\n      lt\n        /* \"#utility.yul\":9403:9421   */\n      0xffffffffffffffff\n        /* \"#utility.yul\":9391:9401   */\n      dup3\n        /* \"#utility.yul\":9388:9422   */\n      gt\n        /* \"#utility.yul\":9385:9447   */\n      or\n        /* \"#utility.yul\":9382:9470   */\n      iszero\n      tag_408\n      jumpi\n        /* \"#utility.yul\":9450:9468   */\n      tag_409\n      tag_250\n      jump\t// in\n    tag_409:\n        /* \"#utility.yul\":9382:9470   */\n    tag_408:\n        /* \"#utility.yul\":9490:9500   */\n      dup1\n        /* \"#utility.yul\":9486:9488   */\n      0x40\n        /* \"#utility.yul\":9479:9501   */\n      mstore\n        /* \"#utility.yul\":9269:9507   */\n      pop\n        /* \"#utility.yul\":9226:9507   */\n      pop\n      pop\n      jump\t// out\n        /* \"#utility.yul\":9513:9642   */\n    tag_252:\n        /* \"#utility.yul\":9547:9553   */\n      0x00\n        /* \"#utility.yul\":9574:9594   */\n      tag_411\n      tag_219\n      jump\t// in\n    tag_411:\n        /* \"#utility.yul\":9564:9594   */\n      swap1\n      pop\n        /* \"#utility.yul\":9603:9636   */\n      tag_412\n        /* \"#utility.yul\":9631:9635   */\n      dup3\n        /* \"#utility.yul\":9623:9629   */\n      dup3\n        /* \"#utility.yul\":9603:9636   */\n      tag_251\n      jump\t// in\n    tag_412:\n        /* \"#utility.yul\":9513:9642   */\n      swap2\n      swap1\n      pop\n      jump\t// out\n        /* \"#utility.yul\":9648:9959   */\n    tag_253:\n        /* \"#utility.yul\":9725:9729   */\n      0x00\n        /* \"#utility.yul\":9815:9833   */\n      0xffffffffffffffff\n        /* \"#utility.yul\":9807:9813   */\n      dup3\n        /* \"#utility.yul\":9804:9834   */\n      gt\n        /* \"#utility.yul\":9801:9857   */\n      iszero\n      tag_414\n      jumpi\n        /* \"#utility.yul\":9837:9855   */\n      tag_415\n      tag_250\n      jump\t// in\n    tag_415:\n        /* \"#utility.yul\":9801:9857   */\n    tag_414:\n        /* \"#utility.yul\":9887:9891   */\n      0x20\n        /* \"#utility.yul\":9879:9885   */\n      dup3\n        /* \"#utility.yul\":9875:9892   */\n      mul\n        /* \"#utility.yul\":9867:9892   */\n      swap1\n      pop\n        /* \"#utility.yul\":9947:9951   */\n      0x20\n        /* \"#utility.yul\":9941:9945   */\n      dup2\n        /* \"#utility.yul\":9937:9952   */\n      add\n        /* \"#utility.yul\":9929:9952   */\n      swap1\n      pop\n        /* \"#utility.yul\":9648:9959   */\n      swap2\n      swap1\n      pop\n      jump\t// out\n        /* \"#utility.yul\":9965:10108   */\n    tag_254:\n        /* \"#utility.yul\":10022:10027   */\n      0x00\n        /* \"#utility.yul\":10053:10059   */\n      dup2\n        /* \"#utility.yul\":10047:10060   */\n      mload\n        /* \"#utility.yul\":10038:10060   */\n      swap1\n      pop\n        /* \"#utility.yul\":10069:10102   */\n      tag_417\n        /* \"#utility.yul\":10096:10101   */\n      dup2\n        /* \"#utility.yul\":10069:10102   */\n      tag_224\n      jump\t// in\n    tag_417:\n        /* \"#utility.yul\":9965:10108   */\n      swap3\n      swap2\n      pop\n      pop\n      jump\t// out\n        /* \"#utility.yul\":10131:10863   */\n    tag_255:\n        /* \"#utility.yul\":10238:10243   */\n      0x00\n        /* \"#utility.yul\":10263:10344   */\n      tag_419\n        /* \"#utility.yul\":10279:10343   */\n      tag_420\n        /* \"#utility.yul\":10336:10342   */\n      dup5\n        /* \"#utility.yul\":10279:10343   */\n      tag_253\n      jump\t// in\n    tag_420:\n        /* \"#utility.yul\":10263:10344   */\n      tag_252\n      jump\t// in\n    tag_419:\n        /* \"#utility.yul\":10254:10344   */\n      swap1\n      pop\n        /* \"#utility.yul\":10364:10369   */\n      dup1\n        /* \"#utility.yul\":10393:10399   */\n      dup4\n        /* \"#utility.yul\":10386:10391   */\n      dup3\n        /* \"#utility.yul\":10379:10400   */\n      mstore\n        /* \"#utility.yul\":10427:10431   */\n      0x20\n        /* \"#utility.yul\":10420:10425   */\n      dup3\n        /* \"#utility.yul\":10416:10432   */\n      add\n        /* \"#utility.yul\":10409:10432   */\n      swap1\n      pop\n        /* \"#utility.yul\":10480:10484   */\n      0x20\n        /* \"#utility.yul\":10472:10478   */\n      dup5\n        /* \"#utility.yul\":10468:10485   */\n      mul\n        /* \"#utility.yul\":10460:10466   */\n      dup4\n        /* \"#utility.yul\":10456:10486   */\n      add\n        /* \"#utility.yul\":10509:10512   */\n      dup6\n        /* \"#utility.yul\":10501:10507   */\n      dup2\n        /* \"#utility.yul\":10498:10513   */\n      gt\n        /* \"#utility.yul\":10495:10617   */\n      iszero\n      tag_421\n      jumpi\n        /* \"#utility.yul\":10528:10607   */\n      tag_422\n      tag_243\n      jump\t// in\n    tag_422:\n        /* \"#utility.yul\":10495:10617   */\n    tag_421:\n        /* \"#utility.yul\":10643:10649   */\n      dup4\n        /* \"#utility.yul\":10626:10857   */\n    tag_423:\n        /* \"#utility.yul\":10660:10666   */\n      dup2\n        /* \"#utility.yul\":10655:10658   */\n      dup2\n        /* \"#utility.yul\":10652:10667   */\n      lt\n        /* \"#utility.yul\":10626:10857   */\n      iszero\n      tag_425\n      jumpi\n        /* \"#utility.yul\":10735:10738   */\n      dup1\n        /* \"#utility.yul\":10764:10812   */\n      tag_426\n        /* \"#utility.yul\":10808:10811   */\n      dup9\n        /* \"#utility.yul\":10796:10806   */\n      dup3\n        /* \"#utility.yul\":10764:10812   */\n      tag_254\n      jump\t// in\n    tag_426:\n        /* \"#utility.yul\":10759:10762   */\n      dup5\n        /* \"#utility.yul\":10752:10813   */\n      mstore\n        /* \"#utility.yul\":10842:10846   */\n      0x20\n        /* \"#utility.yul\":10837:10840   */\n      dup5\n        /* \"#utility.yul\":10833:10847   */\n      add\n        /* \"#utility.yul\":10826:10847   */\n      swap4\n      pop\n        /* \"#utility.yul\":10702:10857   */\n      pop\n        /* \"#utility.yul\":10686:10690   */\n      0x20\n        /* \"#utility.yul\":10681:10684   */\n      dup2\n        /* \"#utility.yul\":10677:10691   */\n      add\n        /* \"#utility.yul\":10670:10691   */\n      swap1\n      pop\n        /* \"#utility.yul\":10626:10857   */\n      jump(tag_423)\n    tag_425:\n        /* \"#utility.yul\":10630:10651   */\n      pop\n        /* \"#utility.yul\":10244:10863   */\n      pop\n      pop\n        /* \"#utility.yul\":10131:10863   */\n      swap4\n      swap3\n      pop\n      pop\n      pop\n      jump\t// out\n        /* \"#utility.yul\":10886:11271   */\n    tag_256:\n        /* \"#utility.yul\":10968:10973   */\n      0x00\n        /* \"#utility.yul\":11017:11020   */\n      dup3\n        /* \"#utility.yul\":11010:11014   */\n      0x1f\n        /* \"#utility.yul\":11002:11008   */\n      dup4\n        /* \"#utility.yul\":10998:11015   */\n      add\n        /* \"#utility.yul\":10994:11021   */\n      slt\n        /* \"#utility.yul\":10984:11106   */\n      tag_428\n      jumpi\n        /* \"#utility.yul\":11025:11104   */\n      tag_429\n      tag_241\n      jump\t// in\n    tag_429:\n        /* \"#utility.yul\":10984:11106   */\n    tag_428:\n        /* \"#utility.yul\":11135:11141   */\n      dup2\n        /* \"#utility.yul\":11129:11142   */\n      mload\n        /* \"#utility.yul\":11160:11265   */\n      tag_430\n        /* \"#utility.yul\":11261:11264   */\n      dup5\n        /* \"#utility.yul\":11253:11259   */\n      dup3\n        /* \"#utility.yul\":11246:11250   */\n      0x20\n        /* \"#utility.yul\":11238:11244   */\n      dup7\n        /* \"#utility.yul\":11234:11251   */\n      add\n        /* \"#utility.yul\":11160:11265   */\n      tag_255\n      jump\t// in\n    tag_430:\n        /* \"#utility.yul\":11151:11265   */\n      swap2\n      pop\n        /* \"#utility.yul\":10974:11271   */\n      pop\n        /* \"#utility.yul\":10886:11271   */\n      swap3\n      swap2\n      pop\n      pop\n      jump\t// out\n        /* \"#utility.yul\":11277:11831   */\n    tag_81:\n        /* \"#utility.yul\":11372:11378   */\n      0x00\n        /* \"#utility.yul\":11421:11423   */\n      0x20\n        /* \"#utility.yul\":11409:11418   */\n      dup3\n        /* \"#utility.yul\":11400:11407   */\n      dup5\n        /* \"#utility.yul\":11396:11419   */\n      sub\n        /* \"#utility.yul\":11392:11424   */\n      slt\n        /* \"#utility.yul\":11389:11508   */\n      iszero\n      tag_432\n      jumpi\n        /* \"#utility.yul\":11427:11506   */\n      tag_433\n      tag_220\n      jump\t// in\n    tag_433:\n        /* \"#utility.yul\":11389:11508   */\n    tag_432:\n        /* \"#utility.yul\":11568:11569   */\n      0x00\n        /* \"#utility.yul\":11557:11566   */\n      dup3\n        /* \"#utility.yul\":11553:11570   */\n      add\n        /* \"#utility.yul\":11547:11571   */\n      mload\n        /* \"#utility.yul\":11598:11616   */\n      0xffffffffffffffff\n        /* \"#utility.yul\":11590:11596   */\n      dup2\n        /* \"#utility.yul\":11587:11617   */\n      gt\n        /* \"#utility.yul\":11584:11701   */\n      iszero\n      tag_434\n      jumpi\n        /* \"#utility.yul\":11620:11699   */\n      tag_435\n      tag_221\n      jump\t// in\n    tag_435:\n        /* \"#utility.yul\":11584:11701   */\n    tag_434:\n        /* \"#utility.yul\":11725:11814   */\n      tag_436\n        /* \"#utility.yul\":11806:11813   */\n      dup5\n        /* \"#utility.yul\":11797:11803   */\n      dup3\n        /* \"#utility.yul\":11786:11795   */\n      dup6\n        /* \"#utility.yul\":11782:11804   */\n      add\n        /* \"#utility.yul\":11725:11814   */\n      tag_256\n      jump\t// in\n    tag_436:\n        /* \"#utility.yul\":11715:11814   */\n      swap2\n      pop\n        /* \"#utility.yul\":11518:11824   */\n      pop\n        /* \"#utility.yul\":11277:11831   */\n      swap3\n      swap2\n      pop\n      pop\n      jump\t// out\n        /* \"#utility.yul\":11837:12148   */\n    tag_257:\n        /* \"#utility.yul\":11914:11918   */\n      0x00\n        /* \"#utility.yul\":12004:12022   */\n      0xffffffffffffffff\n        /* \"#utility.yul\":11996:12002   */\n      dup3\n        /* \"#utility.yul\":11993:12023   */\n      gt\n        /* \"#utility.yul\":11990:12046   */\n      iszero\n      tag_438\n      jumpi\n        /* \"#utility.yul\":12026:12044   */\n      tag_439\n      tag_250\n      jump\t// in\n    tag_439:\n        /* \"#utility.yul\":11990:12046   */\n    tag_438:\n        /* \"#utility.yul\":12076:12080   */\n      0x20\n        /* \"#utility.yul\":12068:12074   */\n      dup3\n        /* \"#utility.yul\":12064:12081   */\n      mul\n        /* \"#utility.yul\":12056:12081   */\n      swap1\n      pop\n        /* \"#utility.yul\":12136:12140   */\n      0x20\n        /* \"#utility.yul\":12130:12134   */\n      dup2\n        /* \"#utility.yul\":12126:12141   */\n      add\n        /* \"#utility.yul\":12118:12141   */\n      swap1\n      pop\n        /* \"#utility.yul\":11837:12148   */\n      swap2\n      swap1\n      pop\n      jump\t// out\n        /* \"#utility.yul\":12154:12297   */\n    tag_258:\n        /* \"#utility.yul\":12211:12216   */\n      0x00\n        /* \"#utility.yul\":12242:12248   */\n      dup2\n        /* \"#utility.yul\":12236:12249   */\n      mload\n        /* \"#utility.yul\":12227:12249   */\n      swap1\n      pop\n        /* \"#utility.yul\":12258:12291   */\n      tag_441\n        /* \"#utility.yul\":12285:12290   */\n      dup2\n        /* \"#utility.yul\":12258:12291   */\n      tag_227\n      jump\t// in\n    tag_441:\n        /* \"#utility.yul\":12154:12297   */\n      swap3\n      swap2\n      pop\n      pop\n      jump\t// out\n        /* \"#utility.yul\":12320:13052   */\n    tag_259:\n        /* \"#utility.yul\":12427:12432   */\n      0x00\n        /* \"#utility.yul\":12452:12533   */\n      tag_443\n        /* \"#utility.yul\":12468:12532   */\n      tag_444\n        /* \"#utility.yul\":12525:12531   */\n      dup5\n        /* \"#utility.yul\":12468:12532   */\n      tag_257\n      jump\t// in\n    tag_444:\n        /* \"#utility.yul\":12452:12533   */\n      tag_252\n      jump\t// in\n    tag_443:\n        /* \"#utility.yul\":12443:12533   */\n      swap1\n      pop\n        /* \"#utility.yul\":12553:12558   */\n      dup1\n        /* \"#utility.yul\":12582:12588   */\n      dup4\n        /* \"#utility.yul\":12575:12580   */\n      dup3\n        /* \"#utility.yul\":12568:12589   */\n      mstore\n        /* \"#utility.yul\":12616:12620   */\n      0x20\n        /* \"#utility.yul\":12609:12614   */\n      dup3\n        /* \"#utility.yul\":12605:12621   */\n      add\n        /* \"#utility.yul\":12598:12621   */\n      swap1\n      pop\n        /* \"#utility.yul\":12669:12673   */\n      0x20\n        /* \"#utility.yul\":12661:12667   */\n      dup5\n        /* \"#utility.yul\":12657:12674   */\n      mul\n        /* \"#utility.yul\":12649:12655   */\n      dup4\n        /* \"#utility.yul\":12645:12675   */\n      add\n        /* \"#utility.yul\":12698:12701   */\n      dup6\n        /* \"#utility.yul\":12690:12696   */\n      dup2\n        /* \"#utility.yul\":12687:12702   */\n      gt\n        /* \"#utility.yul\":12684:12806   */\n      iszero\n      tag_445\n      jumpi\n        /* \"#utility.yul\":12717:12796   */\n      tag_446\n      tag_243\n      jump\t// in\n    tag_446:\n        /* \"#utility.yul\":12684:12806   */\n    tag_445:\n        /* \"#utility.yul\":12832:12838   */\n      dup4\n        /* \"#utility.yul\":12815:13046   */\n    tag_447:\n        /* \"#utility.yul\":12849:12855   */\n      dup2\n        /* \"#utility.yul\":12844:12847   */\n      dup2\n        /* \"#utility.yul\":12841:12856   */\n      lt\n        /* \"#utility.yul\":12815:13046   */\n      iszero\n      tag_449\n      jumpi\n        /* \"#utility.yul\":12924:12927   */\n      dup1\n        /* \"#utility.yul\":12953:13001   */\n      tag_450\n        /* \"#utility.yul\":12997:13000   */\n      dup9\n        /* \"#utility.yul\":12985:12995   */\n      dup3\n        /* \"#utility.yul\":12953:13001   */\n      tag_258\n      jump\t// in\n    tag_450:\n        /* \"#utility.yul\":12948:12951   */\n      dup5\n        /* \"#utility.yul\":12941:13002   */\n      mstore\n        /* \"#utility.yul\":13031:13035   */\n      0x20\n        /* \"#utility.yul\":13026:13029   */\n      dup5\n        /* \"#utility.yul\":13022:13036   */\n      add\n        /* \"#utility.yul\":13015:13036   */\n      swap4\n      pop\n        /* \"#utility.yul\":12891:13046   */\n      pop\n        /* \"#utility.yul\":12875:12879   */\n      0x20\n        /* \"#utility.yul\":12870:12873   */\n      dup2\n        /* \"#utility.yul\":12866:12880   */\n      add\n        /* \"#utility.yul\":12859:12880   */\n      swap1\n      pop\n        /* \"#utility.yul\":12815:13046   */\n      jump(tag_447)\n    tag_449:\n        /* \"#utility.yul\":12819:12840   */\n      pop\n        /* \"#utility.yul\":12433:13052   */\n      pop\n      pop\n        /* \"#utility.yul\":12320:13052   */\n      swap4\n      swap3\n      pop\n      pop\n      pop\n      jump\t// out\n        /* \"#utility.yul\":13075:13460   */\n    tag_260:\n        /* \"#utility.yul\":13157:13162   */\n      0x00\n        /* \"#utility.yul\":13206:13209   */\n      dup3\n        /* \"#utility.yul\":13199:13203   */\n      0x1f\n        /* \"#utility.yul\":13191:13197   */\n      dup4\n        /* \"#utility.yul\":13187:13204   */\n      add\n        /* \"#utility.yul\":13183:13210   */\n      slt\n        /* \"#utility.yul\":13173:13295   */\n      tag_452\n      jumpi\n        /* \"#utility.yul\":13214:13293   */\n      tag_453\n      tag_241\n      jump\t// in\n    tag_453:\n        /* \"#utility.yul\":13173:13295   */\n    tag_452:\n        /* \"#utility.yul\":13324:13330   */\n      dup2\n        /* \"#utility.yul\":13318:13331   */\n      mload\n        /* \"#utility.yul\":13349:13454   */\n      tag_454\n        /* \"#utility.yul\":13450:13453   */\n      dup5\n        /* \"#utility.yul\":13442:13448   */\n      dup3\n        /* \"#utility.yul\":13435:13439   */\n      0x20\n        /* \"#utility.yul\":13427:13433   */\n      dup7\n        /* \"#utility.yul\":13423:13440   */\n      add\n        /* \"#utility.yul\":13349:13454   */\n      tag_259\n      jump\t// in\n    tag_454:\n        /* \"#utility.yul\":13340:13454   */\n      swap2\n      pop\n        /* \"#utility.yul\":13163:13460   */\n      pop\n        /* \"#utility.yul\":13075:13460   */\n      swap3\n      swap2\n      pop\n      pop\n      jump\t// out\n        /* \"#utility.yul\":13466:14020   */\n    tag_86:\n        /* \"#utility.yul\":13561:13567   */\n      0x00\n        /* \"#utility.yul\":13610:13612   */\n      0x20\n        /* \"#utility.yul\":13598:13607   */\n      dup3\n        /* \"#utility.yul\":13589:13596   */\n      dup5\n        /* \"#utility.yul\":13585:13608   */\n      sub\n        /* \"#utility.yul\":13581:13613   */\n      slt\n        /* \"#utility.yul\":13578:13697   */\n      iszero\n      tag_456\n      jumpi\n        /* \"#utility.yul\":13616:13695   */\n      tag_457\n      tag_220\n      jump\t// in\n    tag_457:\n        /* \"#utility.yul\":13578:13697   */\n    tag_456:\n        /* \"#utility.yul\":13757:13758   */\n      0x00\n        /* \"#utility.yul\":13746:13755   */\n      dup3\n        /* \"#utility.yul\":13742:13759   */\n      add\n        /* \"#utility.yul\":13736:13760   */\n      mload\n        /* \"#utility.yul\":13787:13805   */\n      0xffffffffffffffff\n        /* \"#utility.yul\":13779:13785   */\n      dup2\n        /* \"#utility.yul\":13776:13806   */\n      gt\n        /* \"#utility.yul\":13773:13890   */\n      iszero\n      tag_458\n      jumpi\n        /* \"#utility.yul\":13809:13888   */\n      tag_459\n      tag_221\n      jump\t// in\n    tag_459:\n        /* \"#utility.yul\":13773:13890   */\n    tag_458:\n        /* \"#utility.yul\":13914:14003   */\n      tag_460\n        /* \"#utility.yul\":13995:14002   */\n      dup5\n        /* \"#utility.yul\":13986:13992   */\n      dup3\n        /* \"#utility.yul\":13975:13984   */\n      dup6\n        /* \"#utility.yul\":13971:13993   */\n      add\n        /* \"#utility.yul\":13914:14003   */\n      tag_260\n      jump\t// in\n    tag_460:\n        /* \"#utility.yul\":13904:14003   */\n      swap2\n      pop\n        /* \"#utility.yul\":13707:14013   */\n      pop\n        /* \"#utility.yul\":13466:14020   */\n      swap3\n      swap2\n      pop\n      pop\n      jump\t// out\n        /* \"#utility.yul\":14026:14206   */\n    tag_261:\n        /* \"#utility.yul\":14074:14151   */\n      0x4e487b7100000000000000000000000000000000000000000000000000000000\n        /* \"#utility.yul\":14071:14072   */\n      0x00\n        /* \"#utility.yul\":14064:14152   */\n      mstore\n        /* \"#utility.yul\":14171:14175   */\n      0x11\n        /* \"#utility.yul\":14168:14169   */\n      0x04\n        /* \"#utility.yul\":14161:14176   */\n      mstore\n        /* \"#utility.yul\":14195:14199   */\n      0x24\n        /* \"#utility.yul\":14192:14193   */\n      0x00\n        /* \"#utility.yul\":14185:14200   */\n      revert\n        /* \"#utility.yul\":14212:14403   */\n    tag_93:\n        /* \"#utility.yul\":14252:14255   */\n      0x00\n        /* \"#utility.yul\":14271:14291   */\n      tag_463\n        /* \"#utility.yul\":14289:14290   */\n      dup3\n        /* \"#utility.yul\":14271:14291   */\n      tag_226\n      jump\t// in\n    tag_463:\n        /* \"#utility.yul\":14266:14291   */\n      swap2\n      pop\n        /* \"#utility.yul\":14305:14325   */\n      tag_464\n        /* \"#utility.yul\":14323:14324   */\n      dup4\n        /* \"#utility.yul\":14305:14325   */\n      tag_226\n      jump\t// in\n    tag_464:\n        /* \"#utility.yul\":14300:14325   */\n      swap3\n      pop\n        /* \"#utility.yul\":14348:14349   */\n      dup3\n        /* \"#utility.yul\":14345:14346   */\n      dup3\n        /* \"#utility.yul\":14341:14350   */\n      add\n        /* \"#utility.yul\":14334:14350   */\n      swap1\n      pop\n        /* \"#utility.yul\":14369:14372   */\n      dup1\n        /* \"#utility.yul\":14366:14367   */\n      dup3\n        /* \"#utility.yul\":14363:14373   */\n      gt\n        /* \"#utility.yul\":14360:14396   */\n      iszero\n      tag_465\n      jumpi\n        /* \"#utility.yul\":14376:14394   */\n      tag_466\n      tag_261\n      jump\t// in\n    tag_466:\n        /* \"#utility.yul\":14360:14396   */\n    tag_465:\n        /* \"#utility.yul\":14212:14403   */\n      swap3\n      swap2\n      pop\n      pop\n      jump\t// out\n        /* \"#utility.yul\":14409:14642   */\n    tag_95:\n        /* \"#utility.yul\":14448:14451   */\n      0x00\n        /* \"#utility.yul\":14471:14495   */\n      tag_468\n        /* \"#utility.yul\":14489:14494   */\n      dup3\n        /* \"#utility.yul\":14471:14495   */\n      tag_226\n      jump\t// in\n    tag_468:\n        /* \"#utility.yul\":14462:14495   */\n      swap2\n      pop\n        /* \"#utility.yul\":14517:14583   */\n      0xffffffffffffffffffffffffffffffffffffffffffffffffffffffffffffffff\n        /* \"#utility.yul\":14510:14515   */\n      dup3\n        /* \"#utility.yul\":14507:14584   */\n      sub\n        /* \"#utility.yul\":14504:14607   */\n      tag_469\n      jumpi\n        /* \"#utility.yul\":14587:14605   */\n      tag_470\n      tag_261\n      jump\t// in\n    tag_470:\n        /* \"#utility.yul\":14504:14607   */\n    tag_469:\n        /* \"#utility.yul\":14634:14635   */\n      0x01\n        /* \"#utility.yul\":14627:14632   */\n      dup3\n        /* \"#utility.yul\":14623:14636   */\n      add\n        /* \"#utility.yul\":14616:14636   */\n      swap1\n      pop\n        /* \"#utility.yul\":14409:14642   */\n      swap2\n      swap1\n      pop\n      jump\t// out\n        /* \"#utility.yul\":14648:14842   */\n    tag_100:\n        /* \"#utility.yul\":14688:14692   */\n      0x00\n        /* \"#utility.yul\":14708:14728   */\n      tag_472\n        /* \"#utility.yul\":14726:14727   */\n      dup3\n        /* \"#utility.yul\":14708:14728   */\n      tag_226\n      jump\t// in\n    tag_472:\n        /* \"#utility.yul\":14703:14728   */\n      swap2\n      pop\n        /* \"#utility.yul\":14742:14762   */\n      tag_473\n        /* \"#utility.yul\":14760:14761   */\n      dup4\n        /* \"#utility.yul\":14742:14762   */\n      tag_226\n      jump\t// in\n    tag_473:\n        /* \"#utility.yul\":14737:14762   */\n      swap3\n      pop\n        /* \"#utility.yul\":14786:14787   */\n      dup3\n        /* \"#utility.yul\":14783:14784   */\n      dup3\n        /* \"#utility.yul\":14779:14788   */\n      sub\n        /* \"#utility.yul\":14771:14788   */\n      swap1\n      pop\n        /* \"#utility.yul\":14810:14811   */\n      dup2\n        /* \"#utility.yul\":14804:14808   */\n      dup2\n        /* \"#utility.yul\":14801:14812   */\n      gt\n        /* \"#utility.yul\":14798:14835   */\n      iszero\n      tag_474\n      jumpi\n        /* \"#utility.yul\":14815:14833   */\n      tag_475\n      tag_261\n      jump\t// in\n    tag_475:\n        /* \"#utility.yul\":14798:14835   */\n    tag_474:\n        /* \"#utility.yul\":14648:14842   */\n      swap3\n      swap2\n      pop\n      pop\n      jump\t// out\n        /* \"#utility.yul\":14848:15028   */\n    tag_262:\n        /* \"#utility.yul\":14896:14973   */\n      0x4e487b7100000000000000000000000000000000000000000000000000000000\n        /* \"#utility.yul\":14893:14894   */\n      0x00\n        /* \"#utility.yul\":14886:14974   */\n      mstore\n        /* \"#utility.yul\":14993:14997   */\n      0x12\n        /* \"#utility.yul\":14990:14991   */\n      0x04\n        /* \"#utility.yul\":14983:14998   */\n      mstore\n        /* \"#utility.yul\":15017:15021   */\n      0x24\n        /* \"#utility.yul\":15014:15015   */\n      0x00\n        /* \"#utility.yul\":15007:15022   */\n      revert\n        /* \"#utility.yul\":15034:15219   */\n    tag_109:\n        /* \"#utility.yul\":15074:15075   */\n      0x00\n        /* \"#utility.yul\":15091:15111   */\n      tag_478\n        /* \"#utility.yul\":15109:15110   */\n      dup3\n        /* \"#utility.yul\":15091:15111   */\n      tag_226\n      jump\t// in\n    tag_478:\n        /* \"#utility.yul\":15086:15111   */\n      swap2\n      pop\n        /* \"#utility.yul\":15125:15145   */\n      tag_479\n        /* \"#utility.yul\":15143:15144   */\n      dup4\n        /* \"#utility.yul\":15125:15145   */\n      tag_226\n      jump\t// in\n    tag_479:\n        /* \"#utility.yul\":15120:15145   */\n      swap3\n      pop\n        /* \"#utility.yul\":15164:15165   */\n      dup3\n        /* \"#utility.yul\":15154:15189   */\n      tag_480\n      jumpi\n        /* \"#utility.yul\":15169:15187   */\n      tag_481\n      tag_262\n      jump\t// in\n    tag_481:\n        /* \"#utility.yul\":15154:15189   */\n    tag_480:\n        /* \"#utility.yul\":15211:15212   */\n      dup3\n        /* \"#utility.yul\":15208:15209   */\n      dup3\n        /* \"#utility.yul\":15204:15213   */\n      div\n        /* \"#utility.yul\":15199:15213   */\n      swap1\n      pop\n        /* \"#utility.yul\":15034:15219   */\n      swap3\n      swap2\n      pop\n      pop\n      jump\t// out\n        /* \"#utility.yul\":15225:15387   */\n    tag_263:\n        /* \"#utility.yul\":15347:15354   */\n      0x00\n        /* \"#utility.yul\":15376:15381   */\n      dup2\n        /* \"#utility.yul\":15365:15381   */\n      swap1\n      pop\n        /* \"#utility.yul\":15225:15387   */\n      swap2\n      swap1\n      pop\n      jump\t// out\n        /* \"#utility.yul\":15393:15485   */\n    tag_264:\n        /* \"#utility.yul\":15425:15433   */\n      0x00\n        /* \"#utility.yul\":15472:15477   */\n      dup2\n        /* \"#utility.yul\":15469:15470   */\n      0x00\n        /* \"#utility.yul\":15465:15478   */\n      shl\n        /* \"#utility.yul\":15444:15478   */\n      swap1\n      pop\n        /* \"#utility.yul\":15393:15485   */\n      swap2\n      swap1\n      pop\n      jump\t// out\n        /* \"#utility.yul\":15491:15807   */\n    tag_265:\n        /* \"#utility.yul\":15626:15635   */\n      0x00\n        /* \"#utility.yul\":15659:15801   */\n      tag_485\n        /* \"#utility.yul\":15677:15800   */\n      tag_486\n        /* \"#utility.yul\":15690:15799   */\n      tag_487\n        /* \"#utility.yul\":15793:15798   */\n      dup5\n        /* \"#utility.yul\":15690:15799   */\n      tag_263\n      jump\t// in\n    tag_487:\n        /* \"#utility.yul\":15677:15800   */\n      tag_264\n      jump\t// in\n    tag_486:\n        /* \"#utility.yul\":15659:15801   */\n      tag_236\n      jump\t// in\n    tag_485:\n        /* \"#utility.yul\":15646:15801   */\n      swap1\n      pop\n        /* \"#utility.yul\":15491:15807   */\n      swap2\n      swap1\n      pop\n      jump\t// out\n        /* \"#utility.yul\":15813:16114   */\n    tag_266:\n        /* \"#utility.yul\":15985:16107   */\n      tag_489\n        /* \"#utility.yul\":16101:16106   */\n      dup2\n        /* \"#utility.yul\":15985:16107   */\n      tag_265\n      jump\t// in\n    tag_489:\n        /* \"#utility.yul\":15980:15983   */\n      dup3\n        /* \"#utility.yul\":15973:16108   */\n      mstore\n        /* \"#utility.yul\":15813:16114   */\n      pop\n      pop\n      jump\t// out\n        /* \"#utility.yul\":16120:16512   */\n    tag_130:\n        /* \"#utility.yul\":16298:16302   */\n      0x00\n        /* \"#utility.yul\":16336:16338   */\n      0x20\n        /* \"#utility.yul\":16325:16334   */\n      dup3\n        /* \"#utility.yul\":16321:16339   */\n      add\n        /* \"#utility.yul\":16313:16339   */\n      swap1\n      pop\n        /* \"#utility.yul\":16349:16505   */\n      tag_491\n        /* \"#utility.yul\":16502:16503   */\n      0x00\n        /* \"#utility.yul\":16491:16500   */\n      dup4\n        /* \"#utility.yul\":16487:16504   */\n      add\n        /* \"#utility.yul\":16478:16484   */\n      dup5\n        /* \"#utility.yul\":16349:16505   */\n      tag_266\n      jump\t// in\n    tag_491:\n        /* \"#utility.yul\":16120:16512   */\n      swap3\n      swap2\n      pop\n      pop\n      jump\t// out\n        /* \"#utility.yul\":16518:16869   */\n    tag_134:\n        /* \"#utility.yul\":16588:16594   */\n      0x00\n        /* \"#utility.yul\":16637:16639   */\n      0x20\n        /* \"#utility.yul\":16625:16634   */\n      dup3\n        /* \"#utility.yul\":16616:16623   */\n      dup5\n        /* \"#utility.yul\":16612:16635   */\n      sub\n        /* \"#utility.yul\":16608:16640   */\n      slt\n        /* \"#utility.yul\":16605:16724   */\n      iszero\n      tag_493\n      jumpi\n        /* \"#utility.yul\":16643:16722   */\n      tag_494\n      tag_220\n      jump\t// in\n    tag_494:\n        /* \"#utility.yul\":16605:16724   */\n    tag_493:\n        /* \"#utility.yul\":16763:16764   */\n      0x00\n        /* \"#utility.yul\":16788:16852   */\n      tag_495\n        /* \"#utility.yul\":16844:16851   */\n      dup5\n        /* \"#utility.yul\":16835:16841   */\n      dup3\n        /* \"#utility.yul\":16824:16833   */\n      dup6\n        /* \"#utility.yul\":16820:16842   */\n      add\n        /* \"#utility.yul\":16788:16852   */\n      tag_254\n      jump\t// in\n    tag_495:\n        /* \"#utility.yul\":16778:16852   */\n      swap2\n      pop\n        /* \"#utility.yul\":16734:16862   */\n      pop\n        /* \"#utility.yul\":16518:16869   */\n      swap3\n      swap2\n      pop\n      pop\n      jump\t// out\n        /* \"#utility.yul\":16875:16954   */\n    tag_267:\n        /* \"#utility.yul\":16914:16921   */\n      0x00\n        /* \"#utility.yul\":16943:16948   */\n      dup2\n        /* \"#utility.yul\":16932:16948   */\n      swap1\n      pop\n        /* \"#utility.yul\":16875:16954   */\n      swap2\n      swap1\n      pop\n      jump\t// out\n        /* \"#utility.yul\":16960:17117   */\n    tag_268:\n        /* \"#utility.yul\":17065:17110   */\n      tag_498\n        /* \"#utility.yul\":17085:17109   */\n      tag_499\n        /* \"#utility.yul\":17103:17108   */\n      dup3\n        /* \"#utility.yul\":17085:17109   */\n      tag_236\n      jump\t// in\n    tag_499:\n        /* \"#utility.yul\":17065:17110   */\n      tag_267\n      jump\t// in\n    tag_498:\n        /* \"#utility.yul\":17060:17063   */\n      dup3\n        /* \"#utility.yul\":17053:17111   */\n      mstore\n        /* \"#utility.yul\":16960:17117   */\n      pop\n      pop\n      jump\t// out\n        /* \"#utility.yul\":17123:17202   */\n    tag_269:\n        /* \"#utility.yul\":17162:17169   */\n      0x00\n        /* \"#utility.yul\":17191:17196   */\n      dup2\n        /* \"#utility.yul\":17180:17196   */\n      swap1\n      pop\n        /* \"#utility.yul\":17123:17202   */\n      swap2\n      swap1\n      pop\n      jump\t// out\n        /* \"#utility.yul\":17208:17365   */\n    tag_270:\n        /* \"#utility.yul\":17313:17358   */\n      tag_502\n        /* \"#utility.yul\":17333:17357   */\n      tag_503\n        /* \"#utility.yul\":17351:17356   */\n      dup3\n        /* \"#utility.yul\":17333:17357   */\n      tag_226\n      jump\t// in\n    tag_503:\n        /* \"#utility.yul\":17313:17358   */\n      tag_269\n      jump\t// in\n    tag_502:\n        /* \"#utility.yul\":17308:17311   */\n      dup3\n        /* \"#utility.yul\":17301:17359   */\n      mstore\n        /* \"#utility.yul\":17208:17365   */\n      pop\n      pop\n      jump\t// out\n        /* \"#utility.yul\":17371:17768   */\n    tag_140:\n        /* \"#utility.yul\":17511:17514   */\n      0x00\n        /* \"#utility.yul\":17526:17601   */\n      tag_505\n        /* \"#utility.yul\":17597:17600   */\n      dup3\n        /* \"#utility.yul\":17588:17594   */\n      dup6\n        /* \"#utility.yul\":17526:17601   */\n      tag_268\n      jump\t// in\n    tag_505:\n        /* \"#utility.yul\":17626:17628   */\n      0x20\n        /* \"#utility.yul\":17621:17624   */\n      dup3\n        /* \"#utility.yul\":17617:17629   */\n      add\n        /* \"#utility.yul\":17610:17629   */\n      swap2\n      pop\n        /* \"#utility.yul\":17639:17714   */\n      tag_506\n        /* \"#utility.yul\":17710:17713   */\n      dup3\n        /* \"#utility.yul\":17701:17707   */\n      dup5\n        /* \"#utility.yul\":17639:17714   */\n      tag_270\n      jump\t// in\n    tag_506:\n        /* \"#utility.yul\":17739:17741   */\n      0x20\n        /* \"#utility.yul\":17734:17737   */\n      dup3\n        /* \"#utility.yul\":17730:17742   */\n      add\n        /* \"#utility.yul\":17723:17742   */\n      swap2\n      pop\n        /* \"#utility.yul\":17759:17762   */\n      dup2\n        /* \"#utility.yul\":17752:17762   */\n      swap1\n      pop\n        /* \"#utility.yul\":17371:17768   */\n      swap4\n      swap3\n      pop\n      pop\n      pop\n      jump\t// out\n        /* \"#utility.yul\":17774:17892   */\n    tag_271:\n        /* \"#utility.yul\":17861:17885   */\n      tag_508\n        /* \"#utility.yul\":17879:17884   */\n      dup2\n        /* \"#utility.yul\":17861:17885   */\n      tag_236\n      jump\t// in\n    tag_508:\n        /* \"#utility.yul\":17856:17859   */\n      dup3\n        /* \"#utility.yul\":17849:17886   */\n      mstore\n        /* \"#utility.yul\":17774:17892   */\n      pop\n      pop\n      jump\t// out\n        /* \"#utility.yul\":17898:18120   */\n    tag_142:\n        /* \"#utility.yul\":17991:17995   */\n      0x00\n        /* \"#utility.yul\":18029:18031   */\n      0x20\n        /* \"#utility.yul\":18018:18027   */\n      dup3\n        /* \"#utility.yul\":18014:18032   */\n      add\n        /* \"#utility.yul\":18006:18032   */\n      swap1\n      pop\n        /* \"#utility.yul\":18042:18113   */\n      tag_510\n        /* \"#utility.yul\":18110:18111   */\n      0x00\n        /* \"#utility.yul\":18099:18108   */\n      dup4\n        /* \"#utility.yul\":18095:18112   */\n      add\n        /* \"#utility.yul\":18086:18092   */\n      dup5\n        /* \"#utility.yul\":18042:18113   */\n      tag_271\n      jump\t// in\n    tag_510:\n        /* \"#utility.yul\":17898:18120   */\n      swap3\n      swap2\n      pop\n      pop\n      jump\t// out\n        /* \"#utility.yul\":18126:18223   */\n    tag_272:\n        /* \"#utility.yul\":18185:18191   */\n      0x00\n        /* \"#utility.yul\":18213:18216   */\n      dup3\n        /* \"#utility.yul\":18203:18216   */\n      swap1\n      pop\n        /* \"#utility.yul\":18126:18223   */\n      swap3\n      swap2\n      pop\n      pop\n      jump\t// out\n        /* \"#utility.yul\":18229:18409   */\n    tag_273:\n        /* \"#utility.yul\":18277:18354   */\n      0x4e487b7100000000000000000000000000000000000000000000000000000000\n        /* \"#utility.yul\":18274:18275   */\n      0x00\n        /* \"#utility.yul\":18267:18355   */\n      mstore\n        /* \"#utility.yul\":18374:18378   */\n      0x22\n        /* \"#utility.yul\":18371:18372   */\n      0x04\n        /* \"#utility.yul\":18364:18379   */\n      mstore\n        /* \"#utility.yul\":18398:18402   */\n      0x24\n        /* \"#utility.yul\":18395:18396   */\n      0x00\n        /* \"#utility.yul\":18388:18403   */\n      revert\n        /* \"#utility.yul\":18415:18735   */\n    tag_205:\n        /* \"#utility.yul\":18459:18465   */\n      0x00\n        /* \"#utility.yul\":18496:18497   */\n      0x02\n        /* \"#utility.yul\":18490:18494   */\n      dup3\n        /* \"#utility.yul\":18486:18498   */\n      div\n        /* \"#utility.yul\":18476:18498   */\n      swap1\n      pop\n        /* \"#utility.yul\":18543:18544   */\n      0x01\n        /* \"#utility.yul\":18537:18541   */\n      dup3\n        /* \"#utility.yul\":18533:18545   */\n      and\n        /* \"#utility.yul\":18564:18582   */\n      dup1\n        /* \"#utility.yul\":18554:18635   */\n      tag_514\n      jumpi\n        /* \"#utility.yul\":18620:18624   */\n      0x7f\n        /* \"#utility.yul\":18612:18618   */\n      dup3\n        /* \"#utility.yul\":18608:18625   */\n      and\n        /* \"#utility.yul\":18598:18625   */\n      swap2\n      pop\n        /* \"#utility.yul\":18554:18635   */\n    tag_514:\n        /* \"#utility.yul\":18682:18684   */\n      0x20\n        /* \"#utility.yul\":18674:18680   */\n      dup3\n        /* \"#utility.yul\":18671:18685   */\n      lt\n        /* \"#utility.yul\":18651:18669   */\n      dup2\n        /* \"#utility.yul\":18648:18686   */\n      sub\n        /* \"#utility.yul\":18645:18729   */\n      tag_515\n      jumpi\n        /* \"#utility.yul\":18701:18719   */\n      tag_516\n      tag_273\n      jump\t// in\n    tag_516:\n        /* \"#utility.yul\":18645:18729   */\n    tag_515:\n        /* \"#utility.yul\":18466:18735   */\n      pop\n        /* \"#utility.yul\":18415:18735   */\n      swap2\n      swap1\n      pop\n      jump\t// out\n        /* \"#utility.yul\":18741:18882   */\n    tag_274:\n        /* \"#utility.yul\":18790:18794   */\n      0x00\n        /* \"#utility.yul\":18813:18816   */\n      dup2\n        /* \"#utility.yul\":18805:18816   */\n      swap1\n      pop\n        /* \"#utility.yul\":18836:18839   */\n      dup2\n        /* \"#utility.yul\":18833:18834   */\n      0x00\n        /* \"#utility.yul\":18826:18840   */\n      mstore\n        /* \"#utility.yul\":18870:18874   */\n      0x20\n        /* \"#utility.yul\":18867:18868   */\n      0x00\n        /* \"#utility.yul\":18857:18875   */\n      keccak256\n        /* \"#utility.yul\":18849:18875   */\n      swap1\n      pop\n        /* \"#utility.yul\":18741:18882   */\n      swap2\n      swap1\n      pop\n      jump\t// out\n        /* \"#utility.yul\":18888:18981   */\n    tag_275:\n        /* \"#utility.yul\":18925:18931   */\n      0x00\n        /* \"#utility.yul\":18972:18974   */\n      0x20\n        /* \"#utility.yul\":18967:18969   */\n      0x1f\n        /* \"#utility.yul\":18960:18965   */\n      dup4\n        /* \"#utility.yul\":18956:18970   */\n      add\n        /* \"#utility.yul\":18952:18975   */\n      div\n        /* \"#utility.yul\":18942:18975   */\n      swap1\n      pop\n        /* \"#utility.yul\":18888:18981   */\n      swap2\n      swap1\n      pop\n      jump\t// out\n        /* \"#utility.yul\":18987:19094   */\n    tag_276:\n        /* \"#utility.yul\":19031:19039   */\n      0x00\n        /* \"#utility.yul\":19081:19086   */\n      dup3\n        /* \"#utility.yul\":19075:19079   */\n      dup3\n        /* \"#utility.yul\":19071:19087   */\n      shl\n        /* \"#utility.yul\":19050:19087   */\n      swap1\n      pop\n        /* \"#utility.yul\":18987:19094   */\n      swap3\n      swap2\n      pop\n      pop\n      jump\t// out\n        /* \"#utility.yul\":19100:19493   */\n    tag_277:\n        /* \"#utility.yul\":19169:19175   */\n      0x00\n        /* \"#utility.yul\":19219:19220   */\n      0x08\n        /* \"#utility.yul\":19207:19217   */\n      dup4\n        /* \"#utility.yul\":19203:19221   */\n      mul\n        /* \"#utility.yul\":19242:19339   */\n      tag_521\n        /* \"#utility.yul\":19272:19338   */\n      0xffffffffffffffffffffffffffffffffffffffffffffffffffffffffffffffff\n        /* \"#utility.yul\":19261:19270   */\n      dup3\n        /* \"#utility.yul\":19242:19339   */\n      tag_276\n      jump\t// in\n    tag_521:\n        /* \"#utility.yul\":19360:19399   */\n      tag_522\n        /* \"#utility.yul\":19390:19398   */\n      dup7\n        /* \"#utility.yul\":19379:19388   */\n      dup4\n        /* \"#utility.yul\":19360:19399   */\n      tag_276\n      jump\t// in\n    tag_522:\n        /* \"#utility.yul\":19348:19399   */\n      swap6\n      pop\n        /* \"#utility.yul\":19432:19436   */\n      dup1\n        /* \"#utility.yul\":19428:19437   */\n      not\n        /* \"#utility.yul\":19421:19426   */\n      dup5\n        /* \"#utility.yul\":19417:19438   */\n      and\n        /* \"#utility.yul\":19408:19438   */\n      swap4\n      pop\n        /* \"#utility.yul\":19481:19485   */\n      dup1\n        /* \"#utility.yul\":19471:19479   */\n      dup7\n        /* \"#utility.yul\":19467:19486   */\n      and\n        /* \"#utility.yul\":19460:19465   */\n      dup5\n        /* \"#utility.yul\":19457:19487   */\n      or\n        /* \"#utility.yul\":19447:19487   */\n      swap3\n      pop\n        /* \"#utility.yul\":19176:19493   */\n      pop\n      pop\n        /* \"#utility.yul\":19100:19493   */\n      swap4\n      swap3\n      pop\n      pop\n      pop\n      jump\t// out\n        /* \"#utility.yul\":19499:19641   */\n    tag_278:\n        /* \"#utility.yul\":19549:19558   */\n      0x00\n        /* \"#utility.yul\":19582:19635   */\n      tag_524\n        /* \"#utility.yul\":19600:19634   */\n      tag_525\n        /* \"#utility.yul\":19609:19633   */\n      tag_526\n        /* \"#utility.yul\":19627:19632   */\n      dup5\n        /* \"#utility.yul\":19609:19633   */\n      tag_226\n      jump\t// in\n    tag_526:\n        /* \"#utility.yul\":19600:19634   */\n      tag_231\n      jump\t// in\n    tag_525:\n        /* \"#utility.yul\":19582:19635   */\n      tag_226\n      jump\t// in\n    tag_524:\n        /* \"#utility.yul\":19569:19635   */\n      swap1\n      pop\n        /* \"#utility.yul\":19499:19641   */\n      swap2\n      swap1\n      pop\n      jump\t// out\n        /* \"#utility.yul\":19647:19722   */\n    tag_279:\n        /* \"#utility.yul\":19690:19693   */\n      0x00\n        /* \"#utility.yul\":19711:19716   */\n      dup2\n        /* \"#utility.yul\":19704:19716   */\n      swap1\n      pop\n        /* \"#utility.yul\":19647:19722   */\n      swap2\n      swap1\n      pop\n      jump\t// out\n        /* \"#utility.yul\":19728:19997   */\n    tag_280:\n        /* \"#utility.yul\":19838:19877   */\n      tag_529\n        /* \"#utility.yul\":19869:19876   */\n      dup4\n        /* \"#utility.yul\":19838:19877   */\n      tag_278\n      jump\t// in\n    tag_529:\n        /* \"#utility.yul\":19899:19990   */\n      tag_530\n        /* \"#utility.yul\":19948:19989   */\n      tag_531\n        /* \"#utility.yul\":19972:19988   */\n      dup3\n        /* \"#utility.yul\":19948:19989   */\n      tag_279\n      jump\t// in\n    tag_531:\n        /* \"#utility.yul\":19940:19946   */\n      dup5\n        /* \"#utility.yul\":19933:19937   */\n      dup5\n        /* \"#utility.yul\":19927:19938   */\n      sload\n        /* \"#utility.yul\":19899:19990   */\n      tag_277\n      jump\t// in\n    tag_530:\n        /* \"#utility.yul\":19893:19897   */\n      dup3\n        /* \"#utility.yul\":19886:19991   */\n      sstore\n        /* \"#utility.yul\":19804:19997   */\n      pop\n        /* \"#utility.yul\":19728:19997   */\n      pop\n      pop\n      pop\n      jump\t// out\n        /* \"#utility.yul\":20003:20076   */\n    tag_281:\n        /* \"#utility.yul\":20048:20051   */\n      0x00\n        /* \"#utility.yul\":20003:20076   */\n      swap1\n      jump\t// out\n        /* \"#utility.yul\":20082:20271   */\n    tag_282:\n        /* \"#utility.yul\":20159:20191   */\n      tag_534\n      tag_281\n      jump\t// in\n    tag_534:\n        /* \"#utility.yul\":20200:20265   */\n      tag_535\n        /* \"#utility.yul\":20258:20264   */\n      dup2\n        /* \"#utility.yul\":20250:20256   */\n      dup5\n        /* \"#utility.yul\":20244:20248   */\n      dup5\n        /* \"#utility.yul\":20200:20265   */\n      tag_280\n      jump\t// in\n    tag_535:\n        /* \"#utility.yul\":20135:20271   */\n      pop\n        /* \"#utility.yul\":20082:20271   */\n      pop\n      pop\n      jump\t// out\n        /* \"#utility.yul\":20277:20463   */\n    tag_283:\n        /* \"#utility.yul\":20337:20457   */\n    tag_537:\n        /* \"#utility.yul\":20354:20357   */\n      dup2\n        /* \"#utility.yul\":20347:20352   */\n      dup2\n        /* \"#utility.yul\":20344:20358   */\n      lt\n        /* \"#utility.yul\":20337:20457   */\n      iszero\n      tag_539\n      jumpi\n        /* \"#utility.yul\":20408:20447   */\n      tag_540\n        /* \"#utility.yul\":20445:20446   */\n      0x00\n        /* \"#utility.yul\":20438:20443   */\n      dup3\n        /* \"#utility.yul\":20408:20447   */\n      tag_282\n      jump\t// in\n    tag_540:\n        /* \"#utility.yul\":20381:20382   */\n      0x01\n        /* \"#utility.yul\":20374:20379   */\n      dup2\n        /* \"#utility.yul\":20370:20383   */\n      add\n        /* \"#utility.yul\":20361:20383   */\n      swap1\n      pop\n        /* \"#utility.yul\":20337:20457   */\n      jump(tag_537)\n    tag_539:\n        /* \"#utility.yul\":20277:20463   */\n      pop\n      pop\n      jump\t// out\n        /* \"#utility.yul\":20469:21012   */\n    tag_284:\n        /* \"#utility.yul\":20570:20572   */\n      0x1f\n        /* \"#utility.yul\":20565:20568   */\n      dup3\n        /* \"#utility.yul\":20562:20573   */\n      gt\n        /* \"#utility.yul\":20559:21005   */\n      iszero\n      tag_542\n      jumpi\n        /* \"#utility.yul\":20604:20642   */\n      tag_543\n        /* \"#utility.yul\":20636:20641   */\n      dup2\n        /* \"#utility.yul\":20604:20642   */\n      tag_274\n      jump\t// in\n    tag_543:\n        /* \"#utility.yul\":20688:20717   */\n      tag_544\n        /* \"#utility.yul\":20706:20716   */\n      dup5\n        /* \"#utility.yul\":20688:20717   */\n      tag_275\n      jump\t// in\n    tag_544:\n        /* \"#utility.yul\":20678:20686   */\n      dup2\n        /* \"#utility.yul\":20674:20718   */\n      add\n        /* \"#utility.yul\":20871:20873   */\n      0x20\n        /* \"#utility.yul\":20859:20869   */\n      dup6\n        /* \"#utility.yul\":20856:20874   */\n      lt\n        /* \"#utility.yul\":20853:20902   */\n      iszero\n      tag_545\n      jumpi\n        /* \"#utility.yul\":20892:20900   */\n      dup2\n        /* \"#utility.yul\":20877:20900   */\n      swap1\n      pop\n        /* \"#utility.yul\":20853:20902   */\n    tag_545:\n        /* \"#utility.yul\":20915:20995   */\n      tag_546\n        /* \"#utility.yul\":20971:20993   */\n      tag_547\n        /* \"#utility.yul\":20989:20992   */\n      dup6\n        /* \"#utility.yul\":20971:20993   */\n      tag_275\n      jump\t// in\n    tag_547:\n        /* \"#utility.yul\":20961:20969   */\n      dup4\n        /* \"#utility.yul\":20957:20994   */\n      add\n        /* \"#utility.yul\":20944:20955   */\n      dup3\n        /* \"#utility.yul\":20915:20995   */\n      tag_283\n      jump\t// in\n    tag_546:\n        /* \"#utility.yul\":20574:21005   */\n      pop\n      pop\n        /* \"#utility.yul\":20559:21005   */\n    tag_542:\n        /* \"#utility.yul\":20469:21012   */\n      pop\n      pop\n      pop\n      jump\t// out\n        /* \"#utility.yul\":21018:21135   */\n    tag_285:\n        /* \"#utility.yul\":21072:21080   */\n      0x00\n        /* \"#utility.yul\":21122:21127   */\n      dup3\n        /* \"#utility.yul\":21116:21120   */\n      dup3\n        /* \"#utility.yul\":21112:21128   */\n      shr\n        /* \"#utility.yul\":21091:21128   */\n      swap1\n      pop\n        /* \"#utility.yul\":21018:21135   */\n      swap3\n      swap2\n      pop\n      pop\n      jump\t// out\n        /* \"#utility.yul\":21141:21310   */\n    tag_286:\n        /* \"#utility.yul\":21185:21191   */\n      0x00\n        /* \"#utility.yul\":21218:21269   */\n      tag_550\n        /* \"#utility.yul\":21266:21267   */\n      0x00\n        /* \"#utility.yul\":21262:21268   */\n      not\n        /* \"#utility.yul\":21254:21259   */\n      dup5\n        /* \"#utility.yul\":21251:21252   */\n      0x08\n        /* \"#utility.yul\":21247:21260   */\n      mul\n        /* \"#utility.yul\":21218:21269   */\n      tag_285\n      jump\t// in\n    tag_550:\n        /* \"#utility.yul\":21214:21270   */\n      not\n        /* \"#utility.yul\":21299:21303   */\n      dup1\n        /* \"#utility.yul\":21293:21297   */\n      dup4\n        /* \"#utility.yul\":21289:21304   */\n      and\n        /* \"#utility.yul\":21279:21304   */\n      swap2\n      pop\n        /* \"#utility.yul\":21192:21310   */\n      pop\n        /* \"#utility.yul\":21141:21310   */\n      swap3\n      swap2\n      pop\n      pop\n      jump\t// out\n        /* \"#utility.yul\":21315:21610   */\n    tag_287:\n        /* \"#utility.yul\":21391:21395   */\n      0x00\n        /* \"#utility.yul\":21537:21566   */\n      tag_552\n        /* \"#utility.yul\":21562:21565   */\n      dup4\n        /* \"#utility.yul\":21556:21560   */\n      dup4\n        /* \"#utility.yul\":21537:21566   */\n      tag_286\n      jump\t// in\n    tag_552:\n        /* \"#utility.yul\":21529:21566   */\n      swap2\n      pop\n        /* \"#utility.yul\":21599:21602   */\n      dup3\n        /* \"#utility.yul\":21596:21597   */\n      0x02\n        /* \"#utility.yul\":21592:21603   */\n      mul\n        /* \"#utility.yul\":21586:21590   */\n      dup3\n        /* \"#utility.yul\":21583:21604   */\n      or\n        /* \"#utility.yul\":21575:21604   */\n      swap1\n      pop\n        /* \"#utility.yul\":21315:21610   */\n      swap3\n      swap2\n      pop\n      pop\n      jump\t// out\n        /* \"#utility.yul\":21615:23018   */\n    tag_148:\n        /* \"#utility.yul\":21739:21783   */\n      tag_554\n        /* \"#utility.yul\":21779:21782   */\n      dup4\n        /* \"#utility.yul\":21774:21777   */\n      dup4\n        /* \"#utility.yul\":21739:21783   */\n      tag_272\n      jump\t// in\n    tag_554:\n        /* \"#utility.yul\":21848:21866   */\n      0xffffffffffffffff\n        /* \"#utility.yul\":21840:21846   */\n      dup2\n        /* \"#utility.yul\":21837:21867   */\n      gt\n        /* \"#utility.yul\":21834:21890   */\n      iszero\n      tag_555\n      jumpi\n        /* \"#utility.yul\":21870:21888   */\n      tag_556\n      tag_250\n      jump\t// in\n    tag_556:\n        /* \"#utility.yul\":21834:21890   */\n    tag_555:\n        /* \"#utility.yul\":21914:21952   */\n      tag_557\n        /* \"#utility.yul\":21946:21950   */\n      dup3\n        /* \"#utility.yul\":21940:21951   */\n      sload\n        /* \"#utility.yul\":21914:21952   */\n      tag_205\n      jump\t// in\n    tag_557:\n        /* \"#utility.yul\":21999:22066   */\n      tag_558\n        /* \"#utility.yul\":22059:22065   */\n      dup3\n        /* \"#utility.yul\":22051:22057   */\n      dup3\n        /* \"#utility.yul\":22045:22049   */\n      dup6\n        /* \"#utility.yul\":21999:22066   */\n      tag_284\n      jump\t// in\n    tag_558:\n        /* \"#utility.yul\":22093:22094   */\n      0x00\n        /* \"#utility.yul\":22122:22124   */\n      0x1f\n        /* \"#utility.yul\":22114:22120   */\n      dup4\n        /* \"#utility.yul\":22111:22125   */\n      gt\n        /* \"#utility.yul\":22139:22140   */\n      0x01\n        /* \"#utility.yul\":22134:22766   */\n      dup2\n      eq\n      tag_560\n      jumpi\n        /* \"#utility.yul\":22810:22811   */\n      0x00\n        /* \"#utility.yul\":22827:22833   */\n      dup5\n        /* \"#utility.yul\":22824:22908   */\n      iszero\n      tag_561\n      jumpi\n        /* \"#utility.yul\":22883:22892   */\n      dup3\n        /* \"#utility.yul\":22878:22881   */\n      dup8\n        /* \"#utility.yul\":22874:22893   */\n      add\n        /* \"#utility.yul\":22861:22894   */\n      calldataload\n        /* \"#utility.yul\":22852:22894   */\n      swap1\n      pop\n        /* \"#utility.yul\":22824:22908   */\n    tag_561:\n        /* \"#utility.yul\":22934:23001   */\n      tag_562\n        /* \"#utility.yul\":22994:23000   */\n      dup6\n        /* \"#utility.yul\":22987:22992   */\n      dup3\n        /* \"#utility.yul\":22934:23001   */\n      tag_287\n      jump\t// in\n    tag_562:\n        /* \"#utility.yul\":22928:22932   */\n      dup7\n        /* \"#utility.yul\":22921:23002   */\n      sstore\n        /* \"#utility.yul\":22783:23012   */\n      pop\n        /* \"#utility.yul\":22104:23012   */\n      jump(tag_559)\n        /* \"#utility.yul\":22134:22766   */\n    tag_560:\n        /* \"#utility.yul\":22186:22190   */\n      0x1f\n        /* \"#utility.yul\":22182:22191   */\n      not\n        /* \"#utility.yul\":22174:22180   */\n      dup5\n        /* \"#utility.yul\":22170:22192   */\n      and\n        /* \"#utility.yul\":22220:22257   */\n      tag_563\n        /* \"#utility.yul\":22252:22256   */\n      dup7\n        /* \"#utility.yul\":22220:22257   */\n      tag_274\n      jump\t// in\n    tag_563:\n        /* \"#utility.yul\":22279:22280   */\n      0x00\n        /* \"#utility.yul\":22293:22508   */\n    tag_564:\n        /* \"#utility.yul\":22307:22314   */\n      dup3\n        /* \"#utility.yul\":22304:22305   */\n      dup2\n        /* \"#utility.yul\":22301:22315   */\n      lt\n        /* \"#utility.yul\":22293:22508   */\n      iszero\n      tag_566\n      jumpi\n        /* \"#utility.yul\":22393:22402   */\n      dup5\n        /* \"#utility.yul\":22388:22391   */\n      dup10\n        /* \"#utility.yul\":22384:22403   */\n      add\n        /* \"#utility.yul\":22371:22404   */\n      calldataload\n        /* \"#utility.yul\":22363:22369   */\n      dup3\n        /* \"#utility.yul\":22356:22405   */\n      sstore\n        /* \"#utility.yul\":22444:22445   */\n      0x01\n        /* \"#utility.yul\":22436:22442   */\n      dup3\n        /* \"#utility.yul\":22432:22446   */\n      add\n        /* \"#utility.yul\":22422:22446   */\n      swap2\n      pop\n        /* \"#utility.yul\":22491:22493   */\n      0x20\n        /* \"#utility.yul\":22480:22489   */\n      dup6\n        /* \"#utility.yul\":22476:22494   */\n      add\n        /* \"#utility.yul\":22463:22494   */\n      swap5\n      pop\n        /* \"#utility.yul\":22330:22334   */\n      0x20\n        /* \"#utility.yul\":22327:22328   */\n      dup2\n        /* \"#utility.yul\":22323:22335   */\n      add\n        /* \"#utility.yul\":22318:22335   */\n      swap1\n      pop\n        /* \"#utility.yul\":22293:22508   */\n      jump(tag_564)\n    tag_566:\n        /* \"#utility.yul\":22536:22542   */\n      dup7\n        /* \"#utility.yul\":22527:22534   */\n      dup4\n        /* \"#utility.yul\":22524:22543   */\n      lt\n        /* \"#utility.yul\":22521:22707   */\n      iszero\n      tag_567\n      jumpi\n        /* \"#utility.yul\":22601:22610   */\n      dup5\n        /* \"#utility.yul\":22596:22599   */\n      dup10\n        /* \"#utility.yul\":22592:22611   */\n      add\n        /* \"#utility.yul\":22579:22612   */\n      calldataload\n        /* \"#utility.yul\":22644:22692   */\n      tag_568\n        /* \"#utility.yul\":22686:22690   */\n      0x1f\n        /* \"#utility.yul\":22678:22684   */\n      dup10\n        /* \"#utility.yul\":22674:22691   */\n      and\n        /* \"#utility.yul\":22663:22672   */\n      dup3\n        /* \"#utility.yul\":22644:22692   */\n      tag_286\n      jump\t// in\n    tag_568:\n        /* \"#utility.yul\":22636:22642   */\n      dup4\n        /* \"#utility.yul\":22629:22693   */\n      sstore\n        /* \"#utility.yul\":22544:22707   */\n      pop\n        /* \"#utility.yul\":22521:22707   */\n    tag_567:\n        /* \"#utility.yul\":22753:22754   */\n      0x01\n        /* \"#utility.yul\":22749:22750   */\n      0x02\n        /* \"#utility.yul\":22741:22747   */\n      dup9\n        /* \"#utility.yul\":22737:22751   */\n      mul\n        /* \"#utility.yul\":22733:22755   */\n      add\n        /* \"#utility.yul\":22727:22731   */\n      dup9\n        /* \"#utility.yul\":22720:22756   */\n      sstore\n        /* \"#utility.yul\":22141:22766   */\n      pop\n      pop\n      pop\n        /* \"#utility.yul\":22104:23012   */\n    tag_559:\n      pop\n        /* \"#utility.yul\":21714:23018   */\n      pop\n      pop\n      pop\n        /* \"#utility.yul\":21615:23018   */\n      pop\n      pop\n      pop\n      jump\t// out\n        /* \"#utility.yul\":23024:23375   */\n    tag_156:\n        /* \"#utility.yul\":23094:23100   */\n      0x00\n        /* \"#utility.yul\":23143:23145   */\n      0x20\n        /* \"#utility.yul\":23131:23140   */\n      dup3\n        /* \"#utility.yul\":23122:23129   */\n      dup5\n        /* \"#utility.yul\":23118:23141   */\n      sub\n        /* \"#utility.yul\":23114:23146   */\n      slt\n        /* \"#utility.yul\":23111:23230   */\n      iszero\n      tag_570\n      jumpi\n        /* \"#utility.yul\":23149:23228   */\n      tag_571\n      tag_220\n      jump\t// in\n    tag_571:\n        /* \"#utility.yul\":23111:23230   */\n    tag_570:\n        /* \"#utility.yul\":23269:23270   */\n      0x00\n        /* \"#utility.yul\":23294:23358   */\n      tag_572\n        /* \"#utility.yul\":23350:23357   */\n      dup5\n        /* \"#utility.yul\":23341:23347   */\n      dup3\n        /* \"#utility.yul\":23330:23339   */\n      dup6\n        /* \"#utility.yul\":23326:23348   */\n      add\n        /* \"#utility.yul\":23294:23358   */\n      tag_258\n      jump\t// in\n    tag_572:\n        /* \"#utility.yul\":23284:23358   */\n      swap2\n      pop\n        /* \"#utility.yul\":23240:23368   */\n      pop\n        /* \"#utility.yul\":23024:23375   */\n      swap3\n      swap2\n      pop\n      pop\n      jump\t// out\n        /* \"#utility.yul\":23381:23713   */\n    tag_179:\n        /* \"#utility.yul\":23502:23506   */\n      0x00\n        /* \"#utility.yul\":23540:23542   */\n      0x40\n        /* \"#utility.yul\":23529:23538   */\n      dup3\n        /* \"#utility.yul\":23525:23543   */\n      add\n        /* \"#utility.yul\":23517:23543   */\n      swap1\n      pop\n        /* \"#utility.yul\":23553:23624   */\n      tag_574\n        /* \"#utility.yul\":23621:23622   */\n      0x00\n        /* \"#utility.yul\":23610:23619   */\n      dup4\n        /* \"#utility.yul\":23606:23623   */\n      add\n        /* \"#utility.yul\":23597:23603   */\n      dup6\n        /* \"#utility.yul\":23553:23624   */\n      tag_271\n      jump\t// in\n    tag_574:\n        /* \"#utility.yul\":23634:23706   */\n      tag_575\n        /* \"#utility.yul\":23702:23704   */\n      0x20\n        /* \"#utility.yul\":23691:23700   */\n      dup4\n        /* \"#utility.yul\":23687:23705   */\n      add\n        /* \"#utility.yul\":23678:23684   */\n      dup5\n        /* \"#utility.yul\":23634:23706   */\n      tag_229\n      jump\t// in\n    tag_575:\n        /* \"#utility.yul\":23381:23713   */\n      swap4\n      swap3\n      pop\n      pop\n      pop\n      jump\t// out\n        /* \"#utility.yul\":23719:23836   */\n    tag_288:\n        /* \"#utility.yul\":23828:23829   */\n      0x00\n        /* \"#utility.yul\":23825:23826   */\n      dup1\n        /* \"#utility.yul\":23818:23830   */\n      revert\n        /* \"#utility.yul\":23842:24149   */\n    tag_289:\n        /* \"#utility.yul\":23903:23907   */\n      0x00\n        /* \"#utility.yul\":23993:24011   */\n      0xffffffffffffffff\n        /* \"#utility.yul\":23985:23991   */\n      dup3\n        /* \"#utility.yul\":23982:24012   */\n      gt\n        /* \"#utility.yul\":23979:24035   */\n      iszero\n      tag_578\n      jumpi\n        /* \"#utility.yul\":24015:24033   */\n      tag_579\n      tag_250\n      jump\t// in\n    tag_579:\n        /* \"#utility.yul\":23979:24035   */\n    tag_578:\n        /* \"#utility.yul\":24053:24082   */\n      tag_580\n        /* \"#utility.yul\":24075:24081   */\n      dup3\n        /* \"#utility.yul\":24053:24082   */\n      tag_248\n      jump\t// in\n    tag_580:\n        /* \"#utility.yul\":24045:24082   */\n      swap1\n      pop\n        /* \"#utility.yul\":24137:24141   */\n      0x20\n        /* \"#utility.yul\":24131:24135   */\n      dup2\n        /* \"#utility.yul\":24127:24142   */\n      add\n        /* \"#utility.yul\":24119:24142   */\n      swap1\n      pop\n        /* \"#utility.yul\":23842:24149   */\n      swap2\n      swap1\n      pop\n      jump\t// out\n        /* \"#utility.yul\":24155:24587   */\n    tag_290:\n        /* \"#utility.yul\":24243:24248   */\n      0x00\n        /* \"#utility.yul\":24268:24333   */\n      tag_582\n        /* \"#utility.yul\":24284:24332   */\n      tag_583\n        /* \"#utility.yul\":24325:24331   */\n      dup5\n        /* \"#utility.yul\":24284:24332   */\n      tag_289\n      jump\t// in\n    tag_583:\n        /* \"#utility.yul\":24268:24333   */\n      tag_252\n      jump\t// in\n    tag_582:\n        /* \"#utility.yul\":24259:24333   */\n      swap1\n      pop\n        /* \"#utility.yul\":24356:24362   */\n      dup3\n        /* \"#utility.yul\":24349:24354   */\n      dup2\n        /* \"#utility.yul\":24342:24363   */\n      mstore\n        /* \"#utility.yul\":24394:24398   */\n      0x20\n        /* \"#utility.yul\":24387:24392   */\n      dup2\n        /* \"#utility.yul\":24383:24399   */\n      add\n        /* \"#utility.yul\":24432:24435   */\n      dup5\n        /* \"#utility.yul\":24423:24429   */\n      dup5\n        /* \"#utility.yul\":24418:24421   */\n      dup5\n        /* \"#utility.yul\":24414:24430   */\n      add\n        /* \"#utility.yul\":24411:24436   */\n      gt\n        /* \"#utility.yul\":24408:24520   */\n      iszero\n      tag_584\n      jumpi\n        /* \"#utility.yul\":24439:24518   */\n      tag_585\n      tag_288\n      jump\t// in\n    tag_585:\n        /* \"#utility.yul\":24408:24520   */\n    tag_584:\n        /* \"#utility.yul\":24529:24581   */\n      tag_586\n        /* \"#utility.yul\":24574:24580   */\n      dup5\n        /* \"#utility.yul\":24569:24572   */\n      dup3\n        /* \"#utility.yul\":24564:24567   */\n      dup6\n        /* \"#utility.yul\":24529:24581   */\n      tag_247\n      jump\t// in\n    tag_586:\n        /* \"#utility.yul\":24249:24587   */\n      pop\n        /* \"#utility.yul\":24155:24587   */\n      swap4\n      swap3\n      pop\n      pop\n      pop\n      jump\t// out\n        /* \"#utility.yul\":24606:24959   */\n    tag_291:\n        /* \"#utility.yul\":24672:24677   */\n      0x00\n        /* \"#utility.yul\":24721:24724   */\n      dup3\n        /* \"#utility.yul\":24714:24718   */\n      0x1f\n        /* \"#utility.yul\":24706:24712   */\n      dup4\n        /* \"#utility.yul\":24702:24719   */\n      add\n        /* \"#utility.yul\":24698:24725   */\n      slt\n        /* \"#utility.yul\":24688:24810   */\n      tag_588\n      jumpi\n        /* \"#utility.yul\":24729:24808   */\n      tag_589\n      tag_241\n      jump\t// in\n    tag_589:\n        /* \"#utility.yul\":24688:24810   */\n    tag_588:\n        /* \"#utility.yul\":24839:24845   */\n      dup2\n        /* \"#utility.yul\":24833:24846   */\n      mload\n        /* \"#utility.yul\":24864:24953   */\n      tag_590\n        /* \"#utility.yul\":24949:24952   */\n      dup5\n        /* \"#utility.yul\":24941:24947   */\n      dup3\n        /* \"#utility.yul\":24934:24938   */\n      0x20\n        /* \"#utility.yul\":24926:24932   */\n      dup7\n        /* \"#utility.yul\":24922:24939   */\n      add\n        /* \"#utility.yul\":24864:24953   */\n      tag_290\n      jump\t// in\n    tag_590:\n        /* \"#utility.yul\":24855:24953   */\n      swap2\n      pop\n        /* \"#utility.yul\":24678:24959   */\n      pop\n        /* \"#utility.yul\":24606:24959   */\n      swap3\n      swap2\n      pop\n      pop\n      jump\t// out\n        /* \"#utility.yul\":24965:25487   */\n    tag_183:\n        /* \"#utility.yul\":25044:25050   */\n      0x00\n        /* \"#utility.yul\":25093:25095   */\n      0x20\n        /* \"#utility.yul\":25081:25090   */\n      dup3\n        /* \"#utility.yul\":25072:25079   */\n      dup5\n        /* \"#utility.yul\":25068:25091   */\n      sub\n        /* \"#utility.yul\":25064:25096   */\n      slt\n        /* \"#utility.yul\":25061:25180   */\n      iszero\n      tag_592\n      jumpi\n        /* \"#utility.yul\":25099:25178   */\n      tag_593\n      tag_220\n      jump\t// in\n    tag_593:\n        /* \"#utility.yul\":25061:25180   */\n    tag_592:\n        /* \"#utility.yul\":25240:25241   */\n      0x00\n        /* \"#utility.yul\":25229:25238   */\n      dup3\n        /* \"#utility.yul\":25225:25242   */\n      add\n        /* \"#utility.yul\":25219:25243   */\n      mload\n        /* \"#utility.yul\":25270:25288   */\n      0xffffffffffffffff\n        /* \"#utility.yul\":25262:25268   */\n      dup2\n        /* \"#utility.yul\":25259:25289   */\n      gt\n        /* \"#utility.yul\":25256:25373   */\n      iszero\n      tag_594\n      jumpi\n        /* \"#utility.yul\":25292:25371   */\n      tag_595\n      tag_221\n      jump\t// in\n    tag_595:\n        /* \"#utility.yul\":25256:25373   */\n    tag_594:\n        /* \"#utility.yul\":25397:25470   */\n      tag_596\n        /* \"#utility.yul\":25462:25469   */\n      dup5\n        /* \"#utility.yul\":25453:25459   */\n      dup3\n        /* \"#utility.yul\":25442:25451   */\n      dup6\n        /* \"#utility.yul\":25438:25460   */\n      add\n        /* \"#utility.yul\":25397:25470   */\n      tag_291\n      jump\t// in\n    tag_596:\n        /* \"#utility.yul\":25387:25470   */\n      swap2\n      pop\n        /* \"#utility.yul\":25190:25480   */\n      pop\n        /* \"#utility.yul\":24965:25487   */\n      swap3\n      swap2\n      pop\n      pop\n      jump\t// out\n        /* \"#utility.yul\":25493:25592   */\n    tag_292:\n        /* \"#utility.yul\":25545:25551   */\n      0x00\n        /* \"#utility.yul\":25579:25584   */\n      dup2\n        /* \"#utility.yul\":25573:25585   */\n      mload\n        /* \"#utility.yul\":25563:25585   */\n      swap1\n      pop\n        /* \"#utility.yul\":25493:25592   */\n      swap2\n      swap1\n      pop\n      jump\t// out\n        /* \"#utility.yul\":25598:25767   */\n    tag_293:\n        /* \"#utility.yul\":25682:25693   */\n      0x00\n        /* \"#utility.yul\":25716:25722   */\n      dup3\n        /* \"#utility.yul\":25711:25714   */\n      dup3\n        /* \"#utility.yul\":25704:25723   */\n      mstore\n        /* \"#utility.yul\":25756:25760   */\n      0x20\n        /* \"#utility.yul\":25751:25754   */\n      dup3\n        /* \"#utility.yul\":25747:25761   */\n      add\n        /* \"#utility.yul\":25732:25761   */\n      swap1\n      pop\n        /* \"#utility.yul\":25598:25767   */\n      swap3\n      swap2\n      pop\n      pop\n      jump\t// out\n        /* \"#utility.yul\":25773:26150   */\n    tag_294:\n        /* \"#utility.yul\":25861:25864   */\n      0x00\n        /* \"#utility.yul\":25889:25928   */\n      tag_600\n        /* \"#utility.yul\":25922:25927   */\n      dup3\n        /* \"#utility.yul\":25889:25928   */\n      tag_292\n      jump\t// in\n    tag_600:\n        /* \"#utility.yul\":25944:26015   */\n      tag_601\n        /* \"#utility.yul\":26008:26014   */\n      dup2\n        /* \"#utility.yul\":26003:26006   */\n      dup6\n        /* \"#utility.yul\":25944:26015   */\n      tag_293\n      jump\t// in\n    tag_601:\n        /* \"#utility.yul\":25937:26015   */\n      swap4\n      pop\n        /* \"#utility.yul\":26024:26089   */\n      tag_602\n        /* \"#utility.yul\":26082:26088   */\n      dup2\n        /* \"#utility.yul\":26077:26080   */\n      dup6\n        /* \"#utility.yul\":26070:26074   */\n      0x20\n        /* \"#utility.yul\":26063:26068   */\n      dup7\n        /* \"#utility.yul\":26059:26075   */\n      add\n        /* \"#utility.yul\":26024:26089   */\n      tag_247\n      jump\t// in\n    tag_602:\n        /* \"#utility.yul\":26114:26143   */\n      tag_603\n        /* \"#utility.yul\":26136:26142   */\n      dup2\n        /* \"#utility.yul\":26114:26143   */\n      tag_248\n      jump\t// in\n    tag_603:\n        /* \"#utility.yul\":26109:26112   */\n      dup5\n        /* \"#utility.yul\":26105:26144   */\n      add\n        /* \"#utility.yul\":26098:26144   */\n      swap2\n      pop\n        /* \"#utility.yul\":25865:26150   */\n      pop\n        /* \"#utility.yul\":25773:26150   */\n      swap3\n      swap2\n      pop\n      pop\n      jump\t// out\n        /* \"#utility.yul\":26156:26309   */\n    tag_295:\n        /* \"#utility.yul\":26296:26301   */\n      0x7573640000000000000000000000000000000000000000000000000000000000\n        /* \"#utility.yul\":26292:26293   */\n      0x00\n        /* \"#utility.yul\":26284:26290   */\n      dup3\n        /* \"#utility.yul\":26280:26294   */\n      add\n        /* \"#utility.yul\":26273:26302   */\n      mstore\n        /* \"#utility.yul\":26156:26309   */\n      pop\n      jump\t// out\n        /* \"#utility.yul\":26315:26680   */\n    tag_296:\n        /* \"#utility.yul\":26457:26460   */\n      0x00\n        /* \"#utility.yul\":26478:26544   */\n      tag_606\n        /* \"#utility.yul\":26542:26543   */\n      0x03\n        /* \"#utility.yul\":26537:26540   */\n      dup4\n        /* \"#utility.yul\":26478:26544   */\n      tag_293\n      jump\t// in\n    tag_606:\n        /* \"#utility.yul\":26471:26544   */\n      swap2\n      pop\n        /* \"#utility.yul\":26553:26646   */\n      tag_607\n        /* \"#utility.yul\":26642:26645   */\n      dup3\n        /* \"#utility.yul\":26553:26646   */\n      tag_295\n      jump\t// in\n    tag_607:\n        /* \"#utility.yul\":26671:26673   */\n      0x20\n        /* \"#utility.yul\":26666:26669   */\n      dup3\n        /* \"#utility.yul\":26662:26674   */\n      add\n        /* \"#utility.yul\":26655:26674   */\n      swap1\n      pop\n        /* \"#utility.yul\":26315:26680   */\n      swap2\n      swap1\n      pop\n      jump\t// out\n        /* \"#utility.yul\":26686:27306   */\n    tag_211:\n        /* \"#utility.yul\":26900:26904   */\n      0x00\n        /* \"#utility.yul\":26938:26940   */\n      0x40\n        /* \"#utility.yul\":26927:26936   */\n      dup3\n        /* \"#utility.yul\":26923:26941   */\n      add\n        /* \"#utility.yul\":26915:26941   */\n      swap1\n      pop\n        /* \"#utility.yul\":26987:26996   */\n      dup2\n        /* \"#utility.yul\":26981:26985   */\n      dup2\n        /* \"#utility.yul\":26977:26997   */\n      sub\n        /* \"#utility.yul\":26973:26974   */\n      0x00\n        /* \"#utility.yul\":26962:26971   */\n      dup4\n        /* \"#utility.yul\":26958:26975   */\n      add\n        /* \"#utility.yul\":26951:26998   */\n      mstore\n        /* \"#utility.yul\":27015:27093   */\n      tag_609\n        /* \"#utility.yul\":27088:27092   */\n      dup2\n        /* \"#utility.yul\":27079:27085   */\n      dup5\n        /* \"#utility.yul\":27015:27093   */\n      tag_294\n      jump\t// in\n    tag_609:\n        /* \"#utility.yul\":27007:27093   */\n      swap1\n      pop\n        /* \"#utility.yul\":27140:27149   */\n      dup2\n        /* \"#utility.yul\":27134:27138   */\n      dup2\n        /* \"#utility.yul\":27130:27150   */\n      sub\n        /* \"#utility.yul\":27125:27127   */\n      0x20\n        /* \"#utility.yul\":27114:27123   */\n      dup4\n        /* \"#utility.yul\":27110:27128   */\n      add\n        /* \"#utility.yul\":27103:27151   */\n      mstore\n        /* \"#utility.yul\":27168:27299   */\n      tag_610\n        /* \"#utility.yul\":27294:27298   */\n      dup2\n        /* \"#utility.yul\":27168:27299   */\n      tag_296\n      jump\t// in\n    tag_610:\n        /* \"#utility.yul\":27160:27299   */\n      swap1\n      pop\n        /* \"#utility.yul\":26686:27306   */\n      swap3\n      swap2\n      pop\n      pop\n      jump\t// out\n        /* \"#utility.yul\":27312:27471   */\n    tag_297:\n        /* \"#utility.yul\":27452:27463   */\n      0x53706f7450726963650000000000000000000000000000000000000000000000\n        /* \"#utility.yul\":27448:27449   */\n      0x00\n        /* \"#utility.yul\":27440:27446   */\n      dup3\n        /* \"#utility.yul\":27436:27450   */\n      add\n        /* \"#utility.yul\":27429:27464   */\n      mstore\n        /* \"#utility.yul\":27312:27471   */\n      pop\n      jump\t// out\n        /* \"#utility.yul\":27477:27842   */\n    tag_298:\n        /* \"#utility.yul\":27619:27622   */\n      0x00\n        /* \"#utility.yul\":27640:27706   */\n      tag_613\n        /* \"#utility.yul\":27704:27705   */\n      0x09\n        /* \"#utility.yul\":27699:27702   */\n      dup4\n        /* \"#utility.yul\":27640:27706   */\n      tag_293\n      jump\t// in\n    tag_613:\n        /* \"#utility.yul\":27633:27706   */\n      swap2\n      pop\n        /* \"#utility.yul\":27715:27808   */\n      tag_614\n        /* \"#utility.yul\":27804:27807   */\n      dup3\n        /* \"#utility.yul\":27715:27808   */\n      tag_297\n      jump\t// in\n    tag_614:\n        /* \"#utility.yul\":27833:27835   */\n      0x20\n        /* \"#utility.yul\":27828:27831   */\n      dup3\n        /* \"#utility.yul\":27824:27836   */\n      add\n        /* \"#utility.yul\":27817:27836   */\n      swap1\n      pop\n        /* \"#utility.yul\":27477:27842   */\n      swap2\n      swap1\n      pop\n      jump\t// out\n        /* \"#utility.yul\":27848:28464   */\n    tag_213:\n        /* \"#utility.yul\":28060:28064   */\n      0x00\n        /* \"#utility.yul\":28098:28100   */\n      0x40\n        /* \"#utility.yul\":28087:28096   */\n      dup3\n        /* \"#utility.yul\":28083:28101   */\n      add\n        /* \"#utility.yul\":28075:28101   */\n      swap1\n      pop\n        /* \"#utility.yul\":28147:28156   */\n      dup2\n        /* \"#utility.yul\":28141:28145   */\n      dup2\n        /* \"#utility.yul\":28137:28157   */\n      sub\n        /* \"#utility.yul\":28133:28134   */\n      0x00\n        /* \"#utility.yul\":28122:28131   */\n      dup4\n        /* \"#utility.yul\":28118:28135   */\n      add\n        /* \"#utility.yul\":28111:28158   */\n      mstore\n        /* \"#utility.yul\":28175:28306   */\n      tag_616\n        /* \"#utility.yul\":28301:28305   */\n      dup2\n        /* \"#utility.yul\":28175:28306   */\n      tag_298\n      jump\t// in\n    tag_616:\n        /* \"#utility.yul\":28167:28306   */\n      swap1\n      pop\n        /* \"#utility.yul\":28353:28362   */\n      dup2\n        /* \"#utility.yul\":28347:28351   */\n      dup2\n        /* \"#utility.yul\":28343:28363   */\n      sub\n        /* \"#utility.yul\":28338:28340   */\n      0x20\n        /* \"#utility.yul\":28327:28336   */\n      dup4\n        /* \"#utility.yul\":28323:28341   */\n      add\n        /* \"#utility.yul\":28316:28364   */\n      mstore\n        /* \"#utility.yul\":28381:28457   */\n      tag_617\n        /* \"#utility.yul\":28452:28456   */\n      dup2\n        /* \"#utility.yul\":28443:28449   */\n      dup5\n        /* \"#utility.yul\":28381:28457   */\n      tag_249\n      jump\t// in\n    tag_617:\n        /* \"#utility.yul\":28373:28457   */\n      swap1\n      pop\n        /* \"#utility.yul\":27848:28464   */\n      swap3\n      swap2\n      pop\n      pop\n      jump\t// out\n\n    auxdata: 0xa26469706673582212204927ab82754e2bc613ac730e9f431657561799d566fe4bc4c9dd1730234563bc64736f6c63430008110033\n}\n",
				"bytecode": {
					"linkReferences": {},
					"object": "60a06040523480156200001157600080fd5b50604051620023e9380380620023e9833981810160405281019062000037919062000164565b81806000806101000a81548173ffffffffffffffffffffffffffffffffffffffff021916908373ffffffffffffffffffffffffffffffffffffffff160217905550508073ffffffffffffffffffffffffffffffffffffffff1660808173ffffffffffffffffffffffffffffffffffffffff16815250505050620001ab565b600080fd5b600073ffffffffffffffffffffffffffffffffffffffff82169050919050565b6000620000e782620000ba565b9050919050565b620000f981620000da565b81146200010557600080fd5b50565b6000815190506200011981620000ee565b92915050565b60006200012c82620000ba565b9050919050565b6200013e816200011f565b81146200014a57600080fd5b50565b6000815190506200015e8162000133565b92915050565b600080604083850312156200017e576200017d620000b5565b5b60006200018e8582860162000108565b9250506020620001a1858286016200014d565b9150509250929050565b60805161221b620001ce600039600081816102ca015261048a015261221b6000f3fe608060405234801561001057600080fd5b50600436106100b45760003560e01c806377b03e0d1161007157806377b03e0d146101a2578063a792765f146101d2578063adf1639d14610204578063c5958af914610236578063ce5e11bf14610266578063fc57d4df14610296576100b4565b806306cd702c146100b957806308a130ab146100e95780631959ad5b14610107578063294490851461012557806344e87f91146101565780634cdf47cc14610186575b600080fd5b6100d360048036038101906100ce9190611356565b6102c6565b6040516100e091906113a5565b60405180910390f35b6100f1610488565b6040516100fe91906113cf565b60405180910390f35b61010f6104ac565b60405161011c9190611449565b60405180910390f35b61013f600480360381019061013a919061149a565b6104d0565b60405161014d9291906114f5565b60405180910390f35b610170600480360381019061016b919061149a565b61064b565b60405161017d919061151e565b60405180910390f35b6101a0600480360381019061019b919061159e565b610921565b005b6101bc60048036038101906101b791906115fe565b610975565b6040516101c991906113a5565b60405180910390f35b6101ec60048036038101906101e7919061149a565b610b8c565b6040516101fb939291906116bb565b60405180910390f35b61021e600480360381019061021991906115fe565b610c3e565b60405161022d939291906116bb565b60405180910390f35b610250600480360381019061024b919061149a565b610cf6565b60405161025d91906116f9565b60405180910390f35b610280600480360381019061027b919061149a565b610f1c565b60405161028d91906113a5565b60405180910390f35b6102b060048036038101906102ab919061171b565b611138565b6040516102bd91906113a5565b60405180910390f35b60007f000000000000000000000000000000000000000000000000000000000000000073ffffffffffffffffffffffffffffffffffffffff168373ffffffffffffffffffffffffffffffffffffffff161461032b576103248361114a565b9050610482565b60008373ffffffffffffffffffffffffffffffffffffffff1663d3c9cc26846040518263ffffffff1660e01b815260040161036691906113a5565b600060405180830381865afa158015610383573d6000803e3d6000fd5b505050506040513d6000823e3d601f19601f820116820180604052508101906103ac919061189b565b905060008473ffffffffffffffffffffffffffffffffffffffff166359f7cf50856040518263ffffffff1660e01b81526004016103e991906113a5565b600060405180830381865afa158015610406573d6000803e3d6000fd5b505050506040513d6000823e3d601f19601f8201168201806040525081019061042f91906119bc565b90506000808351905060005b8181101561047957600061044e8961114a565b9050600081036104735780846104649190611a34565b93508161047090611a68565b91505b5061043b565b50819450505050505b92915050565b7f000000000000000000000000000000000000000000000000000000000000000081565b60008054906101000a900473ffffffffffffffffffffffffffffffffffffffff1681565b60008060006104de85610975565b9050600081111561063b576000806000905060006001846104ff9190611ab0565b9050600061050d8984610f1c565b905087811061052757600080965096505050505050610644565b6105318983610f1c565b90508781101561054c57600182965096505050505050610644565b5b60011561063657826001600285856105659190611ab0565b61056f9190611b13565b6105799190611a34565b6105839190611a34565b935061058f8985610f1c565b9050878110156105e15760006105b18a6001876105ac9190611a34565b610f1c565b90508881106105cc5760018597509750505050505050610644565b6001856105d99190611a34565b935050610631565b60006105f98a6001876105f49190611ab0565b610f1c565b90508881101561062057600180866106119190611ab0565b97509750505050505050610644565b60018561062d9190611ab0565b9250505b61054d565b505050505b60008092509250505b9250929050565b6000807318431fd88adf138e8b979a7246eb58ea7126ea1673ffffffffffffffffffffffffffffffffffffffff1660008054906101000a900473ffffffffffffffffffffffffffffffffffffffff1673ffffffffffffffffffffffffffffffffffffffff16148061071b575073e8218cacb0a5421bc6409e498d9f8cc8869945ea73ffffffffffffffffffffffffffffffffffffffff1660008054906101000a900473ffffffffffffffffffffffffffffffffffffffff1673ffffffffffffffffffffffffffffffffffffffff16145b156107db5760007388df592f8eb5d7bd38bfef7deb0fbc02cf3778a090508073ffffffffffffffffffffffffffffffffffffffff1663699f200f7fefa19baa864049f50491093580c5433e97e8d5e41f8db1a61108b4fa44cacd936040518263ffffffff1660e01b81526004016107929190611b8c565b602060405180830381865afa1580156107af573d6000803e3d6000fd5b505050506040513d601f19601f820116820180604052508101906107d39190611ba7565b91505061086d565b60008054906101000a900473ffffffffffffffffffffffffffffffffffffffff1673ffffffffffffffffffffffffffffffffffffffff16635aa6e6756040518163ffffffff1660e01b8152600401602060405180830381865afa158015610846573d6000803e3d6000fd5b505050506040513d601f19601f8201168201806040525081019061086a9190611ba7565b90505b60008173ffffffffffffffffffffffffffffffffffffffff1663248638e5868660405160200161089e929190611c16565b604051602081830303815290604052805190602001206040518263ffffffff1660e01b81526004016108d09190611c51565b600060405180830381865afa1580156108ed573d6000803e3d6000fd5b505050506040513d6000823e3d601f19601f8201168201806040525081019061091691906119bc565b511191505092915050565b8181600160008673ffffffffffffffffffffffffffffffffffffffff1673ffffffffffffffffffffffffffffffffffffffff168152602001908152602001600020918261096f929190611e79565b50505050565b60007318431fd88adf138e8b979a7246eb58ea7126ea1673ffffffffffffffffffffffffffffffffffffffff1660008054906101000a900473ffffffffffffffffffffffffffffffffffffffff1673ffffffffffffffffffffffffffffffffffffffff161480610a44575073e8218cacb0a5421bc6409e498d9f8cc8869945ea73ffffffffffffffffffffffffffffffffffffffff1660008054906101000a900473ffffffffffffffffffffffffffffffffffffffff1673ffffffffffffffffffffffffffffffffffffffff16145b15610aea5760008054906101000a900473ffffffffffffffffffffffffffffffffffffffff1673ffffffffffffffffffffffffffffffffffffffff166335e72432836040518263ffffffff1660e01b8152600401610aa29190611c51565b602060405180830381865afa158015610abf573d6000803e3d6000fd5b505050506040513d601f19601f82011682018060405250810190610ae39190611f49565b9050610b87565b60008054906101000a900473ffffffffffffffffffffffffffffffffffffffff1673ffffffffffffffffffffffffffffffffffffffff166377b03e0d836040518263ffffffff1660e01b8152600401610b439190611c51565b602060405180830381865afa158015610b60573d6000803e3d6000fd5b505050506040513d601f19601f82011682018060405250810190610b849190611f49565b90505b919050565b600060606000806000610b9f87876104d0565b9150915081610bc95760006040518060200160405280600081525060009450945094505050610c37565b6000610bd58883610f1c565b9050610be18882610cf6565b94506040518060200160405280600081525080519060200120858051906020012014610c195760018582955095509550505050610c37565b60006040518060200160405280600081525060009550955095505050505b9250925092565b60006060600080610c4e85610975565b905060008103610c7857600060405180602001604052806000815250600093509350935050610cef565b6000610c9086600184610c8b9190611ab0565b610f1c565b9050610c9c8682610cf6565b93506040518060200160405280600081525080519060200120848051906020012014610cd357600184829450945094505050610cef565b6000604051806020016040528060008152508294509450945050505b9193909250565b60607318431fd88adf138e8b979a7246eb58ea7126ea1673ffffffffffffffffffffffffffffffffffffffff1660008054906101000a900473ffffffffffffffffffffffffffffffffffffffff1673ffffffffffffffffffffffffffffffffffffffff161480610dc5575073e8218cacb0a5421bc6409e498d9f8cc8869945ea73ffffffffffffffffffffffffffffffffffffffff1660008054906101000a900473ffffffffffffffffffffffffffffffffffffffff1673ffffffffffffffffffffffffffffffffffffffff16145b15610e725760008054906101000a900473ffffffffffffffffffffffffffffffffffffffff1673ffffffffffffffffffffffffffffffffffffffff16630b2d2b0d84846040518363ffffffff1660e01b8152600401610e25929190611f76565b600060405180830381865afa158015610e42573d6000803e3d6000fd5b505050506040513d6000823e3d601f19601f82011682018060405250810190610e6b9190612045565b9050610f16565b60008054906101000a900473ffffffffffffffffffffffffffffffffffffffff1673ffffffffffffffffffffffffffffffffffffffff1663c5958af984846040518363ffffffff1660e01b8152600401610ecd929190611f76565b600060405180830381865afa158015610eea573d6000803e3d6000fd5b505050506040513d6000823e3d601f19601f82011682018060405250810190610f139190612045565b90505b92915050565b60007318431fd88adf138e8b979a7246eb58ea7126ea1673ffffffffffffffffffffffffffffffffffffffff1660008054906101000a900473ffffffffffffffffffffffffffffffffffffffff1673ffffffffffffffffffffffffffffffffffffffff161480610feb575073e8218cacb0a5421bc6409e498d9f8cc8869945ea73ffffffffffffffffffffffffffffffffffffffff1660008054906101000a900473ffffffffffffffffffffffffffffffffffffffff1673ffffffffffffffffffffffffffffffffffffffff16145b156110935760008054906101000a900473ffffffffffffffffffffffffffffffffffffffff1673ffffffffffffffffffffffffffffffffffffffff16637c37b8b484846040518363ffffffff1660e01b815260040161104b929190611f76565b602060405180830381865afa158015611068573d6000803e3d6000fd5b505050506040513d601f19601f8201168201806040525081019061108c9190611f49565b9050611132565b60008054906101000a900473ffffffffffffffffffffffffffffffffffffffff1673ffffffffffffffffffffffffffffffffffffffff1663ce5e11bf84846040518363ffffffff1660e01b81526004016110ee929190611f76565b602060405180830381865afa15801561110b573d6000803e3d6000fd5b505050506040513d601f19601f8201168201806040525081019061112f9190611f49565b90505b92915050565b60006111438261114a565b9050919050565b600080600160008473ffffffffffffffffffffffffffffffffffffffff1673ffffffffffffffffffffffffffffffffffffffff168152602001908152602001600020805461119790611ca6565b80601f01602080910402602001604051908101604052809291908181526020018280546111c390611ca6565b80156112105780601f106111e557610100808354040283529160200191611210565b820191906000526020600020905b8154815290600101906020018083116111f357829003601f168201915b5050505050905060008160405160200161122a919061212f565b60405160208183030381529060405260405160200161124991906121b0565b604051602081830303815290604052905060008180519060200120905060008061127283610c3e565b50915091508161128a5760009550505050505061129b565b611293816112a0565b955050505050505b919050565b600060208201519050919050565b6000604051905090565b600080fd5b600080fd5b600073ffffffffffffffffffffffffffffffffffffffff82169050919050565b60006112ed826112c2565b9050919050565b6112fd816112e2565b811461130857600080fd5b50565b60008135905061131a816112f4565b92915050565b6000819050919050565b61133381611320565b811461133e57600080fd5b50565b6000813590506113508161132a565b92915050565b6000806040838503121561136d5761136c6112b8565b5b600061137b8582860161130b565b925050602061138c85828601611341565b9150509250929050565b61139f81611320565b82525050565b60006020820190506113ba6000830184611396565b92915050565b6113c9816112e2565b82525050565b60006020820190506113e460008301846113c0565b92915050565b6000819050919050565b600061140f61140a611405846112c2565b6113ea565b6112c2565b9050919050565b6000611421826113f4565b9050919050565b600061143382611416565b9050919050565b61144381611428565b82525050565b600060208201905061145e600083018461143a565b92915050565b6000819050919050565b61147781611464565b811461148257600080fd5b50565b6000813590506114948161146e565b92915050565b600080604083850312156114b1576114b06112b8565b5b60006114bf85828601611485565b92505060206114d085828601611341565b9150509250929050565b60008115159050919050565b6114ef816114da565b82525050565b600060408201905061150a60008301856114e6565b6115176020830184611396565b9392505050565b600060208201905061153360008301846114e6565b92915050565b600080fd5b600080fd5b600080fd5b60008083601f84011261155e5761155d611539565b5b8235905067ffffffffffffffff81111561157b5761157a61153e565b5b60208301915083600182028301111561159757611596611543565b5b9250929050565b6000806000604084860312156115b7576115b66112b8565b5b60006115c58682870161130b565b935050602084013567ffffffffffffffff8111156115e6576115e56112bd565b5b6115f286828701611548565b92509250509250925092565b600060208284031215611614576116136112b8565b5b600061162284828501611485565b91505092915050565b600081519050919050565b600082825260208201905092915050565b60005b8381101561166557808201518184015260208101905061164a565b60008484015250505050565b6000601f19601f8301169050919050565b600061168d8261162b565b6116978185611636565b93506116a7818560208601611647565b6116b081611671565b840191505092915050565b60006060820190506116d060008301866114e6565b81810360208301526116e28185611682565b90506116f16040830184611396565b949350505050565b600060208201905081810360008301526117138184611682565b905092915050565b600060208284031215611731576117306112b8565b5b600061173f8482850161130b565b91505092915050565b7f4e487b7100000000000000000000000000000000000000000000000000000000600052604160045260246000fd5b61178082611671565b810181811067ffffffffffffffff8211171561179f5761179e611748565b5b80604052505050565b60006117b26112ae565b90506117be8282611777565b919050565b600067ffffffffffffffff8211156117de576117dd611748565b5b602082029050602081019050919050565b6000815190506117fe816112f4565b92915050565b6000611817611812846117c3565b6117a8565b9050808382526020820190506020840283018581111561183a57611839611543565b5b835b81811015611863578061184f88826117ef565b84526020840193505060208101905061183c565b5050509392505050565b600082601f83011261188257611881611539565b5b8151611892848260208601611804565b91505092915050565b6000602082840312156118b1576118b06112b8565b5b600082015167ffffffffffffffff8111156118cf576118ce6112bd565b5b6118db8482850161186d565b91505092915050565b600067ffffffffffffffff8211156118ff576118fe611748565b5b602082029050602081019050919050565b60008151905061191f8161132a565b92915050565b6000611938611933846118e4565b6117a8565b9050808382526020820190506020840283018581111561195b5761195a611543565b5b835b8181101561198457806119708882611910565b84526020840193505060208101905061195d565b5050509392505050565b600082601f8301126119a3576119a2611539565b5b81516119b3848260208601611925565b91505092915050565b6000602082840312156119d2576119d16112b8565b5b600082015167ffffffffffffffff8111156119f0576119ef6112bd565b5b6119fc8482850161198e565b91505092915050565b7f4e487b7100000000000000000000000000000000000000000000000000000000600052601160045260246000fd5b6000611a3f82611320565b9150611a4a83611320565b9250828201905080821115611a6257611a61611a05565b5b92915050565b6000611a7382611320565b91507fffffffffffffffffffffffffffffffffffffffffffffffffffffffffffffffff8203611aa557611aa4611a05565b5b600182019050919050565b6000611abb82611320565b9150611ac683611320565b9250828203905081811115611ade57611add611a05565b5b92915050565b7f4e487b7100000000000000000000000000000000000000000000000000000000600052601260045260246000fd5b6000611b1e82611320565b9150611b2983611320565b925082611b3957611b38611ae4565b5b828204905092915050565b6000819050919050565b60008160001b9050919050565b6000611b76611b71611b6c84611b44565b611b4e565b611464565b9050919050565b611b8681611b5b565b82525050565b6000602082019050611ba16000830184611b7d565b92915050565b600060208284031215611bbd57611bbc6112b8565b5b6000611bcb848285016117ef565b91505092915050565b6000819050919050565b611bef611bea82611464565b611bd4565b82525050565b6000819050919050565b611c10611c0b82611320565b611bf5565b82525050565b6000611c228285611bde565b602082019150611c328284611bff565b6020820191508190509392505050565b611c4b81611464565b82525050565b6000602082019050611c666000830184611c42565b92915050565b600082905092915050565b7f4e487b7100000000000000000000000000000000000000000000000000000000600052602260045260246000fd5b60006002820490506001821680611cbe57607f821691505b602082108103611cd157611cd0611c77565b5b50919050565b60008190508160005260206000209050919050565b60006020601f8301049050919050565b600082821b905092915050565b600060088302611d397fffffffffffffffffffffffffffffffffffffffffffffffffffffffffffffffff82611cfc565b611d438683611cfc565b95508019841693508086168417925050509392505050565b6000611d76611d71611d6c84611320565b6113ea565b611320565b9050919050565b6000819050919050565b611d9083611d5b565b611da4611d9c82611d7d565b848454611d09565b825550505050565b600090565b611db9611dac565b611dc4818484611d87565b505050565b5b81811015611de857611ddd600082611db1565b600181019050611dca565b5050565b601f821115611e2d57611dfe81611cd7565b611e0784611cec565b81016020851015611e16578190505b611e2a611e2285611cec565b830182611dc9565b50505b505050565b600082821c905092915050565b6000611e5060001984600802611e32565b1980831691505092915050565b6000611e698383611e3f565b9150826002028217905092915050565b611e838383611c6c565b67ffffffffffffffff811115611e9c57611e9b611748565b5b611ea68254611ca6565b611eb1828285611dec565b6000601f831160018114611ee05760008415611ece578287013590505b611ed88582611e5d565b865550611f40565b601f198416611eee86611cd7565b60005b82811015611f1657848901358255600182019150602085019450602081019050611ef1565b86831015611f335784890135611f2f601f891682611e3f565b8355505b6001600288020188555050505b50505050505050565b600060208284031215611f5f57611f5e6112b8565b5b6000611f6d84828501611910565b91505092915050565b6000604082019050611f8b6000830185611c42565b611f986020830184611396565b9392505050565b600080fd5b600067ffffffffffffffff821115611fbf57611fbe611748565b5b611fc882611671565b9050602081019050919050565b6000611fe8611fe384611fa4565b6117a8565b90508281526020810184848401111561200457612003611f9f565b5b61200f848285611647565b509392505050565b600082601f83011261202c5761202b611539565b5b815161203c848260208601611fd5565b91505092915050565b60006020828403121561205b5761205a6112b8565b5b600082015167ffffffffffffffff811115612079576120786112bd565b5b61208584828501612017565b91505092915050565b600081519050919050565b600082825260208201905092915050565b60006120b58261208e565b6120bf8185612099565b93506120cf818560208601611647565b6120d881611671565b840191505092915050565b7f7573640000000000000000000000000000000000000000000000000000000000600082015250565b6000612119600383612099565b9150612124826120e3565b602082019050919050565b6000604082019050818103600083015261214981846120aa565b9050818103602083015261215c8161210c565b905092915050565b7f53706f7450726963650000000000000000000000000000000000000000000000600082015250565b600061219a600983612099565b91506121a582612164565b602082019050919050565b600060408201905081810360008301526121c98161218d565b905081810360208301526121dd8184611682565b90509291505056fea26469706673582212204927ab82754e2bc613ac730e9f431657561799d566fe4bc4c9dd1730234563bc64736f6c63430008110033",
					"opcodes": "PUSH1 0xA0 PUSH1 0x40 MSTORE CALLVALUE DUP1 ISZERO PUSH3 0x11 JUMPI PUSH1 0x0 DUP1 REVERT JUMPDEST POP PUSH1 0x40 MLOAD PUSH3 0x23E9 CODESIZE SUB DUP1 PUSH3 0x23E9 DUP4 CODECOPY DUP2 DUP2 ADD PUSH1 0x40 MSTORE DUP2 ADD SWAP1 PUSH3 0x37 SWAP2 SWAP1 PUSH3 0x164 JUMP JUMPDEST DUP2 DUP1 PUSH1 0x0 DUP1 PUSH2 0x100 EXP DUP2 SLOAD DUP2 PUSH20 0xFFFFFFFFFFFFFFFFFFFFFFFFFFFFFFFFFFFFFFFF MUL NOT AND SWAP1 DUP4 PUSH20 0xFFFFFFFFFFFFFFFFFFFFFFFFFFFFFFFFFFFFFFFF AND MUL OR SWAP1 SSTORE POP POP DUP1 PUSH20 0xFFFFFFFFFFFFFFFFFFFFFFFFFFFFFFFFFFFFFFFF AND PUSH1 0x80 DUP2 PUSH20 0xFFFFFFFFFFFFFFFFFFFFFFFFFFFFFFFFFFFFFFFF AND DUP2 MSTORE POP POP POP POP PUSH3 0x1AB JUMP JUMPDEST PUSH1 0x0 DUP1 REVERT JUMPDEST PUSH1 0x0 PUSH20 0xFFFFFFFFFFFFFFFFFFFFFFFFFFFFFFFFFFFFFFFF DUP3 AND SWAP1 POP SWAP2 SWAP1 POP JUMP JUMPDEST PUSH1 0x0 PUSH3 0xE7 DUP3 PUSH3 0xBA JUMP JUMPDEST SWAP1 POP SWAP2 SWAP1 POP JUMP JUMPDEST PUSH3 0xF9 DUP2 PUSH3 0xDA JUMP JUMPDEST DUP2 EQ PUSH3 0x105 JUMPI PUSH1 0x0 DUP1 REVERT JUMPDEST POP JUMP JUMPDEST PUSH1 0x0 DUP2 MLOAD SWAP1 POP PUSH3 0x119 DUP2 PUSH3 0xEE JUMP JUMPDEST SWAP3 SWAP2 POP POP JUMP JUMPDEST PUSH1 0x0 PUSH3 0x12C DUP3 PUSH3 0xBA JUMP JUMPDEST SWAP1 POP SWAP2 SWAP1 POP JUMP JUMPDEST PUSH3 0x13E DUP2 PUSH3 0x11F JUMP JUMPDEST DUP2 EQ PUSH3 0x14A JUMPI PUSH1 0x0 DUP1 REVERT JUMPDEST POP JUMP JUMPDEST PUSH1 0x0 DUP2 MLOAD SWAP1 POP PUSH3 0x15E DUP2 PUSH3 0x133 JUMP JUMPDEST SWAP3 SWAP2 POP POP JUMP JUMPDEST PUSH1 0x0 DUP1 PUSH1 0x40 DUP4 DUP6 SUB SLT ISZERO PUSH3 0x17E JUMPI PUSH3 0x17D PUSH3 0xB5 JUMP JUMPDEST JUMPDEST PUSH1 0x0 PUSH3 0x18E DUP6 DUP3 DUP7 ADD PUSH3 0x108 JUMP JUMPDEST SWAP3 POP POP PUSH1 0x20 PUSH3 0x1A1 DUP6 DUP3 DUP7 ADD PUSH3 0x14D JUMP JUMPDEST SWAP2 POP POP SWAP3 POP SWAP3 SWAP1 POP JUMP JUMPDEST PUSH1 0x80 MLOAD PUSH2 0x221B PUSH3 0x1CE PUSH1 0x0 CODECOPY PUSH1 0x0 DUP2 DUP2 PUSH2 0x2CA ADD MSTORE PUSH2 0x48A ADD MSTORE PUSH2 0x221B PUSH1 0x0 RETURN INVALID PUSH1 0x80 PUSH1 0x40 MSTORE CALLVALUE DUP1 ISZERO PUSH2 0x10 JUMPI PUSH1 0x0 DUP1 REVERT JUMPDEST POP PUSH1 0x4 CALLDATASIZE LT PUSH2 0xB4 JUMPI PUSH1 0x0 CALLDATALOAD PUSH1 0xE0 SHR DUP1 PUSH4 0x77B03E0D GT PUSH2 0x71 JUMPI DUP1 PUSH4 0x77B03E0D EQ PUSH2 0x1A2 JUMPI DUP1 PUSH4 0xA792765F EQ PUSH2 0x1D2 JUMPI DUP1 PUSH4 0xADF1639D EQ PUSH2 0x204 JUMPI DUP1 PUSH4 0xC5958AF9 EQ PUSH2 0x236 JUMPI DUP1 PUSH4 0xCE5E11BF EQ PUSH2 0x266 JUMPI DUP1 PUSH4 0xFC57D4DF EQ PUSH2 0x296 JUMPI PUSH2 0xB4 JUMP JUMPDEST DUP1 PUSH4 0x6CD702C EQ PUSH2 0xB9 JUMPI DUP1 PUSH4 0x8A130AB EQ PUSH2 0xE9 JUMPI DUP1 PUSH4 0x1959AD5B EQ PUSH2 0x107 JUMPI DUP1 PUSH4 0x29449085 EQ PUSH2 0x125 JUMPI DUP1 PUSH4 0x44E87F91 EQ PUSH2 0x156 JUMPI DUP1 PUSH4 0x4CDF47CC EQ PUSH2 0x186 JUMPI JUMPDEST PUSH1 0x0 DUP1 REVERT JUMPDEST PUSH2 0xD3 PUSH1 0x4 DUP1 CALLDATASIZE SUB DUP2 ADD SWAP1 PUSH2 0xCE SWAP2 SWAP1 PUSH2 0x1356 JUMP JUMPDEST PUSH2 0x2C6 JUMP JUMPDEST PUSH1 0x40 MLOAD PUSH2 0xE0 SWAP2 SWAP1 PUSH2 0x13A5 JUMP JUMPDEST PUSH1 0x40 MLOAD DUP1 SWAP2 SUB SWAP1 RETURN JUMPDEST PUSH2 0xF1 PUSH2 0x488 JUMP JUMPDEST PUSH1 0x40 MLOAD PUSH2 0xFE SWAP2 SWAP1 PUSH2 0x13CF JUMP JUMPDEST PUSH1 0x40 MLOAD DUP1 SWAP2 SUB SWAP1 RETURN JUMPDEST PUSH2 0x10F PUSH2 0x4AC JUMP JUMPDEST PUSH1 0x40 MLOAD PUSH2 0x11C SWAP2 SWAP1 PUSH2 0x1449 JUMP JUMPDEST PUSH1 0x40 MLOAD DUP1 SWAP2 SUB SWAP1 RETURN JUMPDEST PUSH2 0x13F PUSH1 0x4 DUP1 CALLDATASIZE SUB DUP2 ADD SWAP1 PUSH2 0x13A SWAP2 SWAP1 PUSH2 0x149A JUMP JUMPDEST PUSH2 0x4D0 JUMP JUMPDEST PUSH1 0x40 MLOAD PUSH2 0x14D SWAP3 SWAP2 SWAP1 PUSH2 0x14F5 JUMP JUMPDEST PUSH1 0x40 MLOAD DUP1 SWAP2 SUB SWAP1 RETURN JUMPDEST PUSH2 0x170 PUSH1 0x4 DUP1 CALLDATASIZE SUB DUP2 ADD SWAP1 PUSH2 0x16B SWAP2 SWAP1 PUSH2 0x149A JUMP JUMPDEST PUSH2 0x64B JUMP JUMPDEST PUSH1 0x40 MLOAD PUSH2 0x17D SWAP2 SWAP1 PUSH2 0x151E JUMP JUMPDEST PUSH1 0x40 MLOAD DUP1 SWAP2 SUB SWAP1 RETURN JUMPDEST PUSH2 0x1A0 PUSH1 0x4 DUP1 CALLDATASIZE SUB DUP2 ADD SWAP1 PUSH2 0x19B SWAP2 SWAP1 PUSH2 0x159E JUMP JUMPDEST PUSH2 0x921 JUMP JUMPDEST STOP JUMPDEST PUSH2 0x1BC PUSH1 0x4 DUP1 CALLDATASIZE SUB DUP2 ADD SWAP1 PUSH2 0x1B7 SWAP2 SWAP1 PUSH2 0x15FE JUMP JUMPDEST PUSH2 0x975 JUMP JUMPDEST PUSH1 0x40 MLOAD PUSH2 0x1C9 SWAP2 SWAP1 PUSH2 0x13A5 JUMP JUMPDEST PUSH1 0x40 MLOAD DUP1 SWAP2 SUB SWAP1 RETURN JUMPDEST PUSH2 0x1EC PUSH1 0x4 DUP1 CALLDATASIZE SUB DUP2 ADD SWAP1 PUSH2 0x1E7 SWAP2 SWAP1 PUSH2 0x149A JUMP JUMPDEST PUSH2 0xB8C JUMP JUMPDEST PUSH1 0x40 MLOAD PUSH2 0x1FB SWAP4 SWAP3 SWAP2 SWAP1 PUSH2 0x16BB JUMP JUMPDEST PUSH1 0x40 MLOAD DUP1 SWAP2 SUB SWAP1 RETURN JUMPDEST PUSH2 0x21E PUSH1 0x4 DUP1 CALLDATASIZE SUB DUP2 ADD SWAP1 PUSH2 0x219 SWAP2 SWAP1 PUSH2 0x15FE JUMP JUMPDEST PUSH2 0xC3E JUMP JUMPDEST PUSH1 0x40 MLOAD PUSH2 0x22D SWAP4 SWAP3 SWAP2 SWAP1 PUSH2 0x16BB JUMP JUMPDEST PUSH1 0x40 MLOAD DUP1 SWAP2 SUB SWAP1 RETURN JUMPDEST PUSH2 0x250 PUSH1 0x4 DUP1 CALLDATASIZE SUB DUP2 ADD SWAP1 PUSH2 0x24B SWAP2 SWAP1 PUSH2 0x149A JUMP JUMPDEST PUSH2 0xCF6 JUMP JUMPDEST PUSH1 0x40 MLOAD PUSH2 0x25D SWAP2 SWAP1 PUSH2 0x16F9 JUMP JUMPDEST PUSH1 0x40 MLOAD DUP1 SWAP2 SUB SWAP1 RETURN JUMPDEST PUSH2 0x280 PUSH1 0x4 DUP1 CALLDATASIZE SUB DUP2 ADD SWAP1 PUSH2 0x27B SWAP2 SWAP1 PUSH2 0x149A JUMP JUMPDEST PUSH2 0xF1C JUMP JUMPDEST PUSH1 0x40 MLOAD PUSH2 0x28D SWAP2 SWAP1 PUSH2 0x13A5 JUMP JUMPDEST PUSH1 0x40 MLOAD DUP1 SWAP2 SUB SWAP1 RETURN JUMPDEST PUSH2 0x2B0 PUSH1 0x4 DUP1 CALLDATASIZE SUB DUP2 ADD SWAP1 PUSH2 0x2AB SWAP2 SWAP1 PUSH2 0x171B JUMP JUMPDEST PUSH2 0x1138 JUMP JUMPDEST PUSH1 0x40 MLOAD PUSH2 0x2BD SWAP2 SWAP1 PUSH2 0x13A5 JUMP JUMPDEST PUSH1 0x40 MLOAD DUP1 SWAP2 SUB SWAP1 RETURN JUMPDEST PUSH1 0x0 PUSH32 0x0 PUSH20 0xFFFFFFFFFFFFFFFFFFFFFFFFFFFFFFFFFFFFFFFF AND DUP4 PUSH20 0xFFFFFFFFFFFFFFFFFFFFFFFFFFFFFFFFFFFFFFFF AND EQ PUSH2 0x32B JUMPI PUSH2 0x324 DUP4 PUSH2 0x114A JUMP JUMPDEST SWAP1 POP PUSH2 0x482 JUMP JUMPDEST PUSH1 0x0 DUP4 PUSH20 0xFFFFFFFFFFFFFFFFFFFFFFFFFFFFFFFFFFFFFFFF AND PUSH4 0xD3C9CC26 DUP5 PUSH1 0x40 MLOAD DUP3 PUSH4 0xFFFFFFFF AND PUSH1 0xE0 SHL DUP2 MSTORE PUSH1 0x4 ADD PUSH2 0x366 SWAP2 SWAP1 PUSH2 0x13A5 JUMP JUMPDEST PUSH1 0x0 PUSH1 0x40 MLOAD DUP1 DUP4 SUB DUP2 DUP7 GAS STATICCALL ISZERO DUP1 ISZERO PUSH2 0x383 JUMPI RETURNDATASIZE PUSH1 0x0 DUP1 RETURNDATACOPY RETURNDATASIZE PUSH1 0x0 REVERT JUMPDEST POP POP POP POP PUSH1 0x40 MLOAD RETURNDATASIZE PUSH1 0x0 DUP3 RETURNDATACOPY RETURNDATASIZE PUSH1 0x1F NOT PUSH1 0x1F DUP3 ADD AND DUP3 ADD DUP1 PUSH1 0x40 MSTORE POP DUP2 ADD SWAP1 PUSH2 0x3AC SWAP2 SWAP1 PUSH2 0x189B JUMP JUMPDEST SWAP1 POP PUSH1 0x0 DUP5 PUSH20 0xFFFFFFFFFFFFFFFFFFFFFFFFFFFFFFFFFFFFFFFF AND PUSH4 0x59F7CF50 DUP6 PUSH1 0x40 MLOAD DUP3 PUSH4 0xFFFFFFFF AND PUSH1 0xE0 SHL DUP2 MSTORE PUSH1 0x4 ADD PUSH2 0x3E9 SWAP2 SWAP1 PUSH2 0x13A5 JUMP JUMPDEST PUSH1 0x0 PUSH1 0x40 MLOAD DUP1 DUP4 SUB DUP2 DUP7 GAS STATICCALL ISZERO DUP1 ISZERO PUSH2 0x406 JUMPI RETURNDATASIZE PUSH1 0x0 DUP1 RETURNDATACOPY RETURNDATASIZE PUSH1 0x0 REVERT JUMPDEST POP POP POP POP PUSH1 0x40 MLOAD RETURNDATASIZE PUSH1 0x0 DUP3 RETURNDATACOPY RETURNDATASIZE PUSH1 0x1F NOT PUSH1 0x1F DUP3 ADD AND DUP3 ADD DUP1 PUSH1 0x40 MSTORE POP DUP2 ADD SWAP1 PUSH2 0x42F SWAP2 SWAP1 PUSH2 0x19BC JUMP JUMPDEST SWAP1 POP PUSH1 0x0 DUP1 DUP4 MLOAD SWAP1 POP PUSH1 0x0 JUMPDEST DUP2 DUP2 LT ISZERO PUSH2 0x479 JUMPI PUSH1 0x0 PUSH2 0x44E DUP10 PUSH2 0x114A JUMP JUMPDEST SWAP1 POP PUSH1 0x0 DUP2 SUB PUSH2 0x473 JUMPI DUP1 DUP5 PUSH2 0x464 SWAP2 SWAP1 PUSH2 0x1A34 JUMP JUMPDEST SWAP4 POP DUP2 PUSH2 0x470 SWAP1 PUSH2 0x1A68 JUMP JUMPDEST SWAP2 POP JUMPDEST POP PUSH2 0x43B JUMP JUMPDEST POP DUP2 SWAP5 POP POP POP POP POP JUMPDEST SWAP3 SWAP2 POP POP JUMP JUMPDEST PUSH32 0x0 DUP2 JUMP JUMPDEST PUSH1 0x0 DUP1 SLOAD SWAP1 PUSH2 0x100 EXP SWAP1 DIV PUSH20 0xFFFFFFFFFFFFFFFFFFFFFFFFFFFFFFFFFFFFFFFF AND DUP2 JUMP JUMPDEST PUSH1 0x0 DUP1 PUSH1 0x0 PUSH2 0x4DE DUP6 PUSH2 0x975 JUMP JUMPDEST SWAP1 POP PUSH1 0x0 DUP2 GT ISZERO PUSH2 0x63B JUMPI PUSH1 0x0 DUP1 PUSH1 0x0 SWAP1 POP PUSH1 0x0 PUSH1 0x1 DUP5 PUSH2 0x4FF SWAP2 SWAP1 PUSH2 0x1AB0 JUMP JUMPDEST SWAP1 POP PUSH1 0x0 PUSH2 0x50D DUP10 DUP5 PUSH2 0xF1C JUMP JUMPDEST SWAP1 POP DUP8 DUP2 LT PUSH2 0x527 JUMPI PUSH1 0x0 DUP1 SWAP7 POP SWAP7 POP POP POP POP POP POP PUSH2 0x644 JUMP JUMPDEST PUSH2 0x531 DUP10 DUP4 PUSH2 0xF1C JUMP JUMPDEST SWAP1 POP DUP8 DUP2 LT ISZERO PUSH2 0x54C JUMPI PUSH1 0x1 DUP3 SWAP7 POP SWAP7 POP POP POP POP POP POP PUSH2 0x644 JUMP JUMPDEST JUMPDEST PUSH1 0x1 ISZERO PUSH2 0x636 JUMPI DUP3 PUSH1 0x1 PUSH1 0x2 DUP6 DUP6 PUSH2 0x565 SWAP2 SWAP1 PUSH2 0x1AB0 JUMP JUMPDEST PUSH2 0x56F SWAP2 SWAP1 PUSH2 0x1B13 JUMP JUMPDEST PUSH2 0x579 SWAP2 SWAP1 PUSH2 0x1A34 JUMP JUMPDEST PUSH2 0x583 SWAP2 SWAP1 PUSH2 0x1A34 JUMP JUMPDEST SWAP4 POP PUSH2 0x58F DUP10 DUP6 PUSH2 0xF1C JUMP JUMPDEST SWAP1 POP DUP8 DUP2 LT ISZERO PUSH2 0x5E1 JUMPI PUSH1 0x0 PUSH2 0x5B1 DUP11 PUSH1 0x1 DUP8 PUSH2 0x5AC SWAP2 SWAP1 PUSH2 0x1A34 JUMP JUMPDEST PUSH2 0xF1C JUMP JUMPDEST SWAP1 POP DUP9 DUP2 LT PUSH2 0x5CC JUMPI PUSH1 0x1 DUP6 SWAP8 POP SWAP8 POP POP POP POP POP POP POP PUSH2 0x644 JUMP JUMPDEST PUSH1 0x1 DUP6 PUSH2 0x5D9 SWAP2 SWAP1 PUSH2 0x1A34 JUMP JUMPDEST SWAP4 POP POP PUSH2 0x631 JUMP JUMPDEST PUSH1 0x0 PUSH2 0x5F9 DUP11 PUSH1 0x1 DUP8 PUSH2 0x5F4 SWAP2 SWAP1 PUSH2 0x1AB0 JUMP JUMPDEST PUSH2 0xF1C JUMP JUMPDEST SWAP1 POP DUP9 DUP2 LT ISZERO PUSH2 0x620 JUMPI PUSH1 0x1 DUP1 DUP7 PUSH2 0x611 SWAP2 SWAP1 PUSH2 0x1AB0 JUMP JUMPDEST SWAP8 POP SWAP8 POP POP POP POP POP POP POP PUSH2 0x644 JUMP JUMPDEST PUSH1 0x1 DUP6 PUSH2 0x62D SWAP2 SWAP1 PUSH2 0x1AB0 JUMP JUMPDEST SWAP3 POP POP JUMPDEST PUSH2 0x54D JUMP JUMPDEST POP POP POP POP JUMPDEST PUSH1 0x0 DUP1 SWAP3 POP SWAP3 POP POP JUMPDEST SWAP3 POP SWAP3 SWAP1 POP JUMP JUMPDEST PUSH1 0x0 DUP1 PUSH20 0x18431FD88ADF138E8B979A7246EB58EA7126EA16 PUSH20 0xFFFFFFFFFFFFFFFFFFFFFFFFFFFFFFFFFFFFFFFF AND PUSH1 0x0 DUP1 SLOAD SWAP1 PUSH2 0x100 EXP SWAP1 DIV PUSH20 0xFFFFFFFFFFFFFFFFFFFFFFFFFFFFFFFFFFFFFFFF AND PUSH20 0xFFFFFFFFFFFFFFFFFFFFFFFFFFFFFFFFFFFFFFFF AND EQ DUP1 PUSH2 0x71B JUMPI POP PUSH20 0xE8218CACB0A5421BC6409E498D9F8CC8869945EA PUSH20 0xFFFFFFFFFFFFFFFFFFFFFFFFFFFFFFFFFFFFFFFF AND PUSH1 0x0 DUP1 SLOAD SWAP1 PUSH2 0x100 EXP SWAP1 DIV PUSH20 0xFFFFFFFFFFFFFFFFFFFFFFFFFFFFFFFFFFFFFFFF AND PUSH20 0xFFFFFFFFFFFFFFFFFFFFFFFFFFFFFFFFFFFFFFFF AND EQ JUMPDEST ISZERO PUSH2 0x7DB JUMPI PUSH1 0x0 PUSH20 0x88DF592F8EB5D7BD38BFEF7DEB0FBC02CF3778A0 SWAP1 POP DUP1 PUSH20 0xFFFFFFFFFFFFFFFFFFFFFFFFFFFFFFFFFFFFFFFF AND PUSH4 0x699F200F PUSH32 0xEFA19BAA864049F50491093580C5433E97E8D5E41F8DB1A61108B4FA44CACD93 PUSH1 0x40 MLOAD DUP3 PUSH4 0xFFFFFFFF AND PUSH1 0xE0 SHL DUP2 MSTORE PUSH1 0x4 ADD PUSH2 0x792 SWAP2 SWAP1 PUSH2 0x1B8C JUMP JUMPDEST PUSH1 0x20 PUSH1 0x40 MLOAD DUP1 DUP4 SUB DUP2 DUP7 GAS STATICCALL ISZERO DUP1 ISZERO PUSH2 0x7AF JUMPI RETURNDATASIZE PUSH1 0x0 DUP1 RETURNDATACOPY RETURNDATASIZE PUSH1 0x0 REVERT JUMPDEST POP POP POP POP PUSH1 0x40 MLOAD RETURNDATASIZE PUSH1 0x1F NOT PUSH1 0x1F DUP3 ADD AND DUP3 ADD DUP1 PUSH1 0x40 MSTORE POP DUP2 ADD SWAP1 PUSH2 0x7D3 SWAP2 SWAP1 PUSH2 0x1BA7 JUMP JUMPDEST SWAP2 POP POP PUSH2 0x86D JUMP JUMPDEST PUSH1 0x0 DUP1 SLOAD SWAP1 PUSH2 0x100 EXP SWAP1 DIV PUSH20 0xFFFFFFFFFFFFFFFFFFFFFFFFFFFFFFFFFFFFFFFF AND PUSH20 0xFFFFFFFFFFFFFFFFFFFFFFFFFFFFFFFFFFFFFFFF AND PUSH4 0x5AA6E675 PUSH1 0x40 MLOAD DUP2 PUSH4 0xFFFFFFFF AND PUSH1 0xE0 SHL DUP2 MSTORE PUSH1 0x4 ADD PUSH1 0x20 PUSH1 0x40 MLOAD DUP1 DUP4 SUB DUP2 DUP7 GAS STATICCALL ISZERO DUP1 ISZERO PUSH2 0x846 JUMPI RETURNDATASIZE PUSH1 0x0 DUP1 RETURNDATACOPY RETURNDATASIZE PUSH1 0x0 REVERT JUMPDEST POP POP POP POP PUSH1 0x40 MLOAD RETURNDATASIZE PUSH1 0x1F NOT PUSH1 0x1F DUP3 ADD AND DUP3 ADD DUP1 PUSH1 0x40 MSTORE POP DUP2 ADD SWAP1 PUSH2 0x86A SWAP2 SWAP1 PUSH2 0x1BA7 JUMP JUMPDEST SWAP1 POP JUMPDEST PUSH1 0x0 DUP2 PUSH20 0xFFFFFFFFFFFFFFFFFFFFFFFFFFFFFFFFFFFFFFFF AND PUSH4 0x248638E5 DUP7 DUP7 PUSH1 0x40 MLOAD PUSH1 0x20 ADD PUSH2 0x89E SWAP3 SWAP2 SWAP1 PUSH2 0x1C16 JUMP JUMPDEST PUSH1 0x40 MLOAD PUSH1 0x20 DUP2 DUP4 SUB SUB DUP2 MSTORE SWAP1 PUSH1 0x40 MSTORE DUP1 MLOAD SWAP1 PUSH1 0x20 ADD KECCAK256 PUSH1 0x40 MLOAD DUP3 PUSH4 0xFFFFFFFF AND PUSH1 0xE0 SHL DUP2 MSTORE PUSH1 0x4 ADD PUSH2 0x8D0 SWAP2 SWAP1 PUSH2 0x1C51 JUMP JUMPDEST PUSH1 0x0 PUSH1 0x40 MLOAD DUP1 DUP4 SUB DUP2 DUP7 GAS STATICCALL ISZERO DUP1 ISZERO PUSH2 0x8ED JUMPI RETURNDATASIZE PUSH1 0x0 DUP1 RETURNDATACOPY RETURNDATASIZE PUSH1 0x0 REVERT JUMPDEST POP POP POP POP PUSH1 0x40 MLOAD RETURNDATASIZE PUSH1 0x0 DUP3 RETURNDATACOPY RETURNDATASIZE PUSH1 0x1F NOT PUSH1 0x1F DUP3 ADD AND DUP3 ADD DUP1 PUSH1 0x40 MSTORE POP DUP2 ADD SWAP1 PUSH2 0x916 SWAP2 SWAP1 PUSH2 0x19BC JUMP JUMPDEST MLOAD GT SWAP2 POP POP SWAP3 SWAP2 POP POP JUMP JUMPDEST DUP2 DUP2 PUSH1 0x1 PUSH1 0x0 DUP7 PUSH20 0xFFFFFFFFFFFFFFFFFFFFFFFFFFFFFFFFFFFFFFFF AND PUSH20 0xFFFFFFFFFFFFFFFFFFFFFFFFFFFFFFFFFFFFFFFF AND DUP2 MSTORE PUSH1 0x20 ADD SWAP1 DUP2 MSTORE PUSH1 0x20 ADD PUSH1 0x0 KECCAK256 SWAP2 DUP3 PUSH2 0x96F SWAP3 SWAP2 SWAP1 PUSH2 0x1E79 JUMP JUMPDEST POP POP POP POP JUMP JUMPDEST PUSH1 0x0 PUSH20 0x18431FD88ADF138E8B979A7246EB58EA7126EA16 PUSH20 0xFFFFFFFFFFFFFFFFFFFFFFFFFFFFFFFFFFFFFFFF AND PUSH1 0x0 DUP1 SLOAD SWAP1 PUSH2 0x100 EXP SWAP1 DIV PUSH20 0xFFFFFFFFFFFFFFFFFFFFFFFFFFFFFFFFFFFFFFFF AND PUSH20 0xFFFFFFFFFFFFFFFFFFFFFFFFFFFFFFFFFFFFFFFF AND EQ DUP1 PUSH2 0xA44 JUMPI POP PUSH20 0xE8218CACB0A5421BC6409E498D9F8CC8869945EA PUSH20 0xFFFFFFFFFFFFFFFFFFFFFFFFFFFFFFFFFFFFFFFF AND PUSH1 0x0 DUP1 SLOAD SWAP1 PUSH2 0x100 EXP SWAP1 DIV PUSH20 0xFFFFFFFFFFFFFFFFFFFFFFFFFFFFFFFFFFFFFFFF AND PUSH20 0xFFFFFFFFFFFFFFFFFFFFFFFFFFFFFFFFFFFFFFFF AND EQ JUMPDEST ISZERO PUSH2 0xAEA JUMPI PUSH1 0x0 DUP1 SLOAD SWAP1 PUSH2 0x100 EXP SWAP1 DIV PUSH20 0xFFFFFFFFFFFFFFFFFFFFFFFFFFFFFFFFFFFFFFFF AND PUSH20 0xFFFFFFFFFFFFFFFFFFFFFFFFFFFFFFFFFFFFFFFF AND PUSH4 0x35E72432 DUP4 PUSH1 0x40 MLOAD DUP3 PUSH4 0xFFFFFFFF AND PUSH1 0xE0 SHL DUP2 MSTORE PUSH1 0x4 ADD PUSH2 0xAA2 SWAP2 SWAP1 PUSH2 0x1C51 JUMP JUMPDEST PUSH1 0x20 PUSH1 0x40 MLOAD DUP1 DUP4 SUB DUP2 DUP7 GAS STATICCALL ISZERO DUP1 ISZERO PUSH2 0xABF JUMPI RETURNDATASIZE PUSH1 0x0 DUP1 RETURNDATACOPY RETURNDATASIZE PUSH1 0x0 REVERT JUMPDEST POP POP POP POP PUSH1 0x40 MLOAD RETURNDATASIZE PUSH1 0x1F NOT PUSH1 0x1F DUP3 ADD AND DUP3 ADD DUP1 PUSH1 0x40 MSTORE POP DUP2 ADD SWAP1 PUSH2 0xAE3 SWAP2 SWAP1 PUSH2 0x1F49 JUMP JUMPDEST SWAP1 POP PUSH2 0xB87 JUMP JUMPDEST PUSH1 0x0 DUP1 SLOAD SWAP1 PUSH2 0x100 EXP SWAP1 DIV PUSH20 0xFFFFFFFFFFFFFFFFFFFFFFFFFFFFFFFFFFFFFFFF AND PUSH20 0xFFFFFFFFFFFFFFFFFFFFFFFFFFFFFFFFFFFFFFFF AND PUSH4 0x77B03E0D DUP4 PUSH1 0x40 MLOAD DUP3 PUSH4 0xFFFFFFFF AND PUSH1 0xE0 SHL DUP2 MSTORE PUSH1 0x4 ADD PUSH2 0xB43 SWAP2 SWAP1 PUSH2 0x1C51 JUMP JUMPDEST PUSH1 0x20 PUSH1 0x40 MLOAD DUP1 DUP4 SUB DUP2 DUP7 GAS STATICCALL ISZERO DUP1 ISZERO PUSH2 0xB60 JUMPI RETURNDATASIZE PUSH1 0x0 DUP1 RETURNDATACOPY RETURNDATASIZE PUSH1 0x0 REVERT JUMPDEST POP POP POP POP PUSH1 0x40 MLOAD RETURNDATASIZE PUSH1 0x1F NOT PUSH1 0x1F DUP3 ADD AND DUP3 ADD DUP1 PUSH1 0x40 MSTORE POP DUP2 ADD SWAP1 PUSH2 0xB84 SWAP2 SWAP1 PUSH2 0x1F49 JUMP JUMPDEST SWAP1 POP JUMPDEST SWAP2 SWAP1 POP JUMP JUMPDEST PUSH1 0x0 PUSH1 0x60 PUSH1 0x0 DUP1 PUSH1 0x0 PUSH2 0xB9F DUP8 DUP8 PUSH2 0x4D0 JUMP JUMPDEST SWAP2 POP SWAP2 POP DUP2 PUSH2 0xBC9 JUMPI PUSH1 0x0 PUSH1 0x40 MLOAD DUP1 PUSH1 0x20 ADD PUSH1 0x40 MSTORE DUP1 PUSH1 0x0 DUP2 MSTORE POP PUSH1 0x0 SWAP5 POP SWAP5 POP SWAP5 POP POP POP PUSH2 0xC37 JUMP JUMPDEST PUSH1 0x0 PUSH2 0xBD5 DUP9 DUP4 PUSH2 0xF1C JUMP JUMPDEST SWAP1 POP PUSH2 0xBE1 DUP9 DUP3 PUSH2 0xCF6 JUMP JUMPDEST SWAP5 POP PUSH1 0x40 MLOAD DUP1 PUSH1 0x20 ADD PUSH1 0x40 MSTORE DUP1 PUSH1 0x0 DUP2 MSTORE POP DUP1 MLOAD SWAP1 PUSH1 0x20 ADD KECCAK256 DUP6 DUP1 MLOAD SWAP1 PUSH1 0x20 ADD KECCAK256 EQ PUSH2 0xC19 JUMPI PUSH1 0x1 DUP6 DUP3 SWAP6 POP SWAP6 POP SWAP6 POP POP POP POP PUSH2 0xC37 JUMP JUMPDEST PUSH1 0x0 PUSH1 0x40 MLOAD DUP1 PUSH1 0x20 ADD PUSH1 0x40 MSTORE DUP1 PUSH1 0x0 DUP2 MSTORE POP PUSH1 0x0 SWAP6 POP SWAP6 POP SWAP6 POP POP POP POP JUMPDEST SWAP3 POP SWAP3 POP SWAP3 JUMP JUMPDEST PUSH1 0x0 PUSH1 0x60 PUSH1 0x0 DUP1 PUSH2 0xC4E DUP6 PUSH2 0x975 JUMP JUMPDEST SWAP1 POP PUSH1 0x0 DUP2 SUB PUSH2 0xC78 JUMPI PUSH1 0x0 PUSH1 0x40 MLOAD DUP1 PUSH1 0x20 ADD PUSH1 0x40 MSTORE DUP1 PUSH1 0x0 DUP2 MSTORE POP PUSH1 0x0 SWAP4 POP SWAP4 POP SWAP4 POP POP PUSH2 0xCEF JUMP JUMPDEST PUSH1 0x0 PUSH2 0xC90 DUP7 PUSH1 0x1 DUP5 PUSH2 0xC8B SWAP2 SWAP1 PUSH2 0x1AB0 JUMP JUMPDEST PUSH2 0xF1C JUMP JUMPDEST SWAP1 POP PUSH2 0xC9C DUP7 DUP3 PUSH2 0xCF6 JUMP JUMPDEST SWAP4 POP PUSH1 0x40 MLOAD DUP1 PUSH1 0x20 ADD PUSH1 0x40 MSTORE DUP1 PUSH1 0x0 DUP2 MSTORE POP DUP1 MLOAD SWAP1 PUSH1 0x20 ADD KECCAK256 DUP5 DUP1 MLOAD SWAP1 PUSH1 0x20 ADD KECCAK256 EQ PUSH2 0xCD3 JUMPI PUSH1 0x1 DUP5 DUP3 SWAP5 POP SWAP5 POP SWAP5 POP POP POP PUSH2 0xCEF JUMP JUMPDEST PUSH1 0x0 PUSH1 0x40 MLOAD DUP1 PUSH1 0x20 ADD PUSH1 0x40 MSTORE DUP1 PUSH1 0x0 DUP2 MSTORE POP DUP3 SWAP5 POP SWAP5 POP SWAP5 POP POP POP JUMPDEST SWAP2 SWAP4 SWAP1 SWAP3 POP JUMP JUMPDEST PUSH1 0x60 PUSH20 0x18431FD88ADF138E8B979A7246EB58EA7126EA16 PUSH20 0xFFFFFFFFFFFFFFFFFFFFFFFFFFFFFFFFFFFFFFFF AND PUSH1 0x0 DUP1 SLOAD SWAP1 PUSH2 0x100 EXP SWAP1 DIV PUSH20 0xFFFFFFFFFFFFFFFFFFFFFFFFFFFFFFFFFFFFFFFF AND PUSH20 0xFFFFFFFFFFFFFFFFFFFFFFFFFFFFFFFFFFFFFFFF AND EQ DUP1 PUSH2 0xDC5 JUMPI POP PUSH20 0xE8218CACB0A5421BC6409E498D9F8CC8869945EA PUSH20 0xFFFFFFFFFFFFFFFFFFFFFFFFFFFFFFFFFFFFFFFF AND PUSH1 0x0 DUP1 SLOAD SWAP1 PUSH2 0x100 EXP SWAP1 DIV PUSH20 0xFFFFFFFFFFFFFFFFFFFFFFFFFFFFFFFFFFFFFFFF AND PUSH20 0xFFFFFFFFFFFFFFFFFFFFFFFFFFFFFFFFFFFFFFFF AND EQ JUMPDEST ISZERO PUSH2 0xE72 JUMPI PUSH1 0x0 DUP1 SLOAD SWAP1 PUSH2 0x100 EXP SWAP1 DIV PUSH20 0xFFFFFFFFFFFFFFFFFFFFFFFFFFFFFFFFFFFFFFFF AND PUSH20 0xFFFFFFFFFFFFFFFFFFFFFFFFFFFFFFFFFFFFFFFF AND PUSH4 0xB2D2B0D DUP5 DUP5 PUSH1 0x40 MLOAD DUP4 PUSH4 0xFFFFFFFF AND PUSH1 0xE0 SHL DUP2 MSTORE PUSH1 0x4 ADD PUSH2 0xE25 SWAP3 SWAP2 SWAP1 PUSH2 0x1F76 JUMP JUMPDEST PUSH1 0x0 PUSH1 0x40 MLOAD DUP1 DUP4 SUB DUP2 DUP7 GAS STATICCALL ISZERO DUP1 ISZERO PUSH2 0xE42 JUMPI RETURNDATASIZE PUSH1 0x0 DUP1 RETURNDATACOPY RETURNDATASIZE PUSH1 0x0 REVERT JUMPDEST POP POP POP POP PUSH1 0x40 MLOAD RETURNDATASIZE PUSH1 0x0 DUP3 RETURNDATACOPY RETURNDATASIZE PUSH1 0x1F NOT PUSH1 0x1F DUP3 ADD AND DUP3 ADD DUP1 PUSH1 0x40 MSTORE POP DUP2 ADD SWAP1 PUSH2 0xE6B SWAP2 SWAP1 PUSH2 0x2045 JUMP JUMPDEST SWAP1 POP PUSH2 0xF16 JUMP JUMPDEST PUSH1 0x0 DUP1 SLOAD SWAP1 PUSH2 0x100 EXP SWAP1 DIV PUSH20 0xFFFFFFFFFFFFFFFFFFFFFFFFFFFFFFFFFFFFFFFF AND PUSH20 0xFFFFFFFFFFFFFFFFFFFFFFFFFFFFFFFFFFFFFFFF AND PUSH4 0xC5958AF9 DUP5 DUP5 PUSH1 0x40 MLOAD DUP4 PUSH4 0xFFFFFFFF AND PUSH1 0xE0 SHL DUP2 MSTORE PUSH1 0x4 ADD PUSH2 0xECD SWAP3 SWAP2 SWAP1 PUSH2 0x1F76 JUMP JUMPDEST PUSH1 0x0 PUSH1 0x40 MLOAD DUP1 DUP4 SUB DUP2 DUP7 GAS STATICCALL ISZERO DUP1 ISZERO PUSH2 0xEEA JUMPI RETURNDATASIZE PUSH1 0x0 DUP1 RETURNDATACOPY RETURNDATASIZE PUSH1 0x0 REVERT JUMPDEST POP POP POP POP PUSH1 0x40 MLOAD RETURNDATASIZE PUSH1 0x0 DUP3 RETURNDATACOPY RETURNDATASIZE PUSH1 0x1F NOT PUSH1 0x1F DUP3 ADD AND DUP3 ADD DUP1 PUSH1 0x40 MSTORE POP DUP2 ADD SWAP1 PUSH2 0xF13 SWAP2 SWAP1 PUSH2 0x2045 JUMP JUMPDEST SWAP1 POP JUMPDEST SWAP3 SWAP2 POP POP JUMP JUMPDEST PUSH1 0x0 PUSH20 0x18431FD88ADF138E8B979A7246EB58EA7126EA16 PUSH20 0xFFFFFFFFFFFFFFFFFFFFFFFFFFFFFFFFFFFFFFFF AND PUSH1 0x0 DUP1 SLOAD SWAP1 PUSH2 0x100 EXP SWAP1 DIV PUSH20 0xFFFFFFFFFFFFFFFFFFFFFFFFFFFFFFFFFFFFFFFF AND PUSH20 0xFFFFFFFFFFFFFFFFFFFFFFFFFFFFFFFFFFFFFFFF AND EQ DUP1 PUSH2 0xFEB JUMPI POP PUSH20 0xE8218CACB0A5421BC6409E498D9F8CC8869945EA PUSH20 0xFFFFFFFFFFFFFFFFFFFFFFFFFFFFFFFFFFFFFFFF AND PUSH1 0x0 DUP1 SLOAD SWAP1 PUSH2 0x100 EXP SWAP1 DIV PUSH20 0xFFFFFFFFFFFFFFFFFFFFFFFFFFFFFFFFFFFFFFFF AND PUSH20 0xFFFFFFFFFFFFFFFFFFFFFFFFFFFFFFFFFFFFFFFF AND EQ JUMPDEST ISZERO PUSH2 0x1093 JUMPI PUSH1 0x0 DUP1 SLOAD SWAP1 PUSH2 0x100 EXP SWAP1 DIV PUSH20 0xFFFFFFFFFFFFFFFFFFFFFFFFFFFFFFFFFFFFFFFF AND PUSH20 0xFFFFFFFFFFFFFFFFFFFFFFFFFFFFFFFFFFFFFFFF AND PUSH4 0x7C37B8B4 DUP5 DUP5 PUSH1 0x40 MLOAD DUP4 PUSH4 0xFFFFFFFF AND PUSH1 0xE0 SHL DUP2 MSTORE PUSH1 0x4 ADD PUSH2 0x104B SWAP3 SWAP2 SWAP1 PUSH2 0x1F76 JUMP JUMPDEST PUSH1 0x20 PUSH1 0x40 MLOAD DUP1 DUP4 SUB DUP2 DUP7 GAS STATICCALL ISZERO DUP1 ISZERO PUSH2 0x1068 JUMPI RETURNDATASIZE PUSH1 0x0 DUP1 RETURNDATACOPY RETURNDATASIZE PUSH1 0x0 REVERT JUMPDEST POP POP POP POP PUSH1 0x40 MLOAD RETURNDATASIZE PUSH1 0x1F NOT PUSH1 0x1F DUP3 ADD AND DUP3 ADD DUP1 PUSH1 0x40 MSTORE POP DUP2 ADD SWAP1 PUSH2 0x108C SWAP2 SWAP1 PUSH2 0x1F49 JUMP JUMPDEST SWAP1 POP PUSH2 0x1132 JUMP JUMPDEST PUSH1 0x0 DUP1 SLOAD SWAP1 PUSH2 0x100 EXP SWAP1 DIV PUSH20 0xFFFFFFFFFFFFFFFFFFFFFFFFFFFFFFFFFFFFFFFF AND PUSH20 0xFFFFFFFFFFFFFFFFFFFFFFFFFFFFFFFFFFFFFFFF AND PUSH4 0xCE5E11BF DUP5 DUP5 PUSH1 0x40 MLOAD DUP4 PUSH4 0xFFFFFFFF AND PUSH1 0xE0 SHL DUP2 MSTORE PUSH1 0x4 ADD PUSH2 0x10EE SWAP3 SWAP2 SWAP1 PUSH2 0x1F76 JUMP JUMPDEST PUSH1 0x20 PUSH1 0x40 MLOAD DUP1 DUP4 SUB DUP2 DUP7 GAS STATICCALL ISZERO DUP1 ISZERO PUSH2 0x110B JUMPI RETURNDATASIZE PUSH1 0x0 DUP1 RETURNDATACOPY RETURNDATASIZE PUSH1 0x0 REVERT JUMPDEST POP POP POP POP PUSH1 0x40 MLOAD RETURNDATASIZE PUSH1 0x1F NOT PUSH1 0x1F DUP3 ADD AND DUP3 ADD DUP1 PUSH1 0x40 MSTORE POP DUP2 ADD SWAP1 PUSH2 0x112F SWAP2 SWAP1 PUSH2 0x1F49 JUMP JUMPDEST SWAP1 POP JUMPDEST SWAP3 SWAP2 POP POP JUMP JUMPDEST PUSH1 0x0 PUSH2 0x1143 DUP3 PUSH2 0x114A JUMP JUMPDEST SWAP1 POP SWAP2 SWAP1 POP JUMP JUMPDEST PUSH1 0x0 DUP1 PUSH1 0x1 PUSH1 0x0 DUP5 PUSH20 0xFFFFFFFFFFFFFFFFFFFFFFFFFFFFFFFFFFFFFFFF AND PUSH20 0xFFFFFFFFFFFFFFFFFFFFFFFFFFFFFFFFFFFFFFFF AND DUP2 MSTORE PUSH1 0x20 ADD SWAP1 DUP2 MSTORE PUSH1 0x20 ADD PUSH1 0x0 KECCAK256 DUP1 SLOAD PUSH2 0x1197 SWAP1 PUSH2 0x1CA6 JUMP JUMPDEST DUP1 PUSH1 0x1F ADD PUSH1 0x20 DUP1 SWAP2 DIV MUL PUSH1 0x20 ADD PUSH1 0x40 MLOAD SWAP1 DUP2 ADD PUSH1 0x40 MSTORE DUP1 SWAP3 SWAP2 SWAP1 DUP2 DUP2 MSTORE PUSH1 0x20 ADD DUP3 DUP1 SLOAD PUSH2 0x11C3 SWAP1 PUSH2 0x1CA6 JUMP JUMPDEST DUP1 ISZERO PUSH2 0x1210 JUMPI DUP1 PUSH1 0x1F LT PUSH2 0x11E5 JUMPI PUSH2 0x100 DUP1 DUP4 SLOAD DIV MUL DUP4 MSTORE SWAP2 PUSH1 0x20 ADD SWAP2 PUSH2 0x1210 JUMP JUMPDEST DUP3 ADD SWAP2 SWAP1 PUSH1 0x0 MSTORE PUSH1 0x20 PUSH1 0x0 KECCAK256 SWAP1 JUMPDEST DUP2 SLOAD DUP2 MSTORE SWAP1 PUSH1 0x1 ADD SWAP1 PUSH1 0x20 ADD DUP1 DUP4 GT PUSH2 0x11F3 JUMPI DUP3 SWAP1 SUB PUSH1 0x1F AND DUP3 ADD SWAP2 JUMPDEST POP POP POP POP POP SWAP1 POP PUSH1 0x0 DUP2 PUSH1 0x40 MLOAD PUSH1 0x20 ADD PUSH2 0x122A SWAP2 SWAP1 PUSH2 0x212F JUMP JUMPDEST PUSH1 0x40 MLOAD PUSH1 0x20 DUP2 DUP4 SUB SUB DUP2 MSTORE SWAP1 PUSH1 0x40 MSTORE PUSH1 0x40 MLOAD PUSH1 0x20 ADD PUSH2 0x1249 SWAP2 SWAP1 PUSH2 0x21B0 JUMP JUMPDEST PUSH1 0x40 MLOAD PUSH1 0x20 DUP2 DUP4 SUB SUB DUP2 MSTORE SWAP1 PUSH1 0x40 MSTORE SWAP1 POP PUSH1 0x0 DUP2 DUP1 MLOAD SWAP1 PUSH1 0x20 ADD KECCAK256 SWAP1 POP PUSH1 0x0 DUP1 PUSH2 0x1272 DUP4 PUSH2 0xC3E JUMP JUMPDEST POP SWAP2 POP SWAP2 POP DUP2 PUSH2 0x128A JUMPI PUSH1 0x0 SWAP6 POP POP POP POP POP POP PUSH2 0x129B JUMP JUMPDEST PUSH2 0x1293 DUP2 PUSH2 0x12A0 JUMP JUMPDEST SWAP6 POP POP POP POP POP POP JUMPDEST SWAP2 SWAP1 POP JUMP JUMPDEST PUSH1 0x0 PUSH1 0x20 DUP3 ADD MLOAD SWAP1 POP SWAP2 SWAP1 POP JUMP JUMPDEST PUSH1 0x0 PUSH1 0x40 MLOAD SWAP1 POP SWAP1 JUMP JUMPDEST PUSH1 0x0 DUP1 REVERT JUMPDEST PUSH1 0x0 DUP1 REVERT JUMPDEST PUSH1 0x0 PUSH20 0xFFFFFFFFFFFFFFFFFFFFFFFFFFFFFFFFFFFFFFFF DUP3 AND SWAP1 POP SWAP2 SWAP1 POP JUMP JUMPDEST PUSH1 0x0 PUSH2 0x12ED DUP3 PUSH2 0x12C2 JUMP JUMPDEST SWAP1 POP SWAP2 SWAP1 POP JUMP JUMPDEST PUSH2 0x12FD DUP2 PUSH2 0x12E2 JUMP JUMPDEST DUP2 EQ PUSH2 0x1308 JUMPI PUSH1 0x0 DUP1 REVERT JUMPDEST POP JUMP JUMPDEST PUSH1 0x0 DUP2 CALLDATALOAD SWAP1 POP PUSH2 0x131A DUP2 PUSH2 0x12F4 JUMP JUMPDEST SWAP3 SWAP2 POP POP JUMP JUMPDEST PUSH1 0x0 DUP2 SWAP1 POP SWAP2 SWAP1 POP JUMP JUMPDEST PUSH2 0x1333 DUP2 PUSH2 0x1320 JUMP JUMPDEST DUP2 EQ PUSH2 0x133E JUMPI PUSH1 0x0 DUP1 REVERT JUMPDEST POP JUMP JUMPDEST PUSH1 0x0 DUP2 CALLDATALOAD SWAP1 POP PUSH2 0x1350 DUP2 PUSH2 0x132A JUMP JUMPDEST SWAP3 SWAP2 POP POP JUMP JUMPDEST PUSH1 0x0 DUP1 PUSH1 0x40 DUP4 DUP6 SUB SLT ISZERO PUSH2 0x136D JUMPI PUSH2 0x136C PUSH2 0x12B8 JUMP JUMPDEST JUMPDEST PUSH1 0x0 PUSH2 0x137B DUP6 DUP3 DUP7 ADD PUSH2 0x130B JUMP JUMPDEST SWAP3 POP POP PUSH1 0x20 PUSH2 0x138C DUP6 DUP3 DUP7 ADD PUSH2 0x1341 JUMP JUMPDEST SWAP2 POP POP SWAP3 POP SWAP3 SWAP1 POP JUMP JUMPDEST PUSH2 0x139F DUP2 PUSH2 0x1320 JUMP JUMPDEST DUP3 MSTORE POP POP JUMP JUMPDEST PUSH1 0x0 PUSH1 0x20 DUP3 ADD SWAP1 POP PUSH2 0x13BA PUSH1 0x0 DUP4 ADD DUP5 PUSH2 0x1396 JUMP JUMPDEST SWAP3 SWAP2 POP POP JUMP JUMPDEST PUSH2 0x13C9 DUP2 PUSH2 0x12E2 JUMP JUMPDEST DUP3 MSTORE POP POP JUMP JUMPDEST PUSH1 0x0 PUSH1 0x20 DUP3 ADD SWAP1 POP PUSH2 0x13E4 PUSH1 0x0 DUP4 ADD DUP5 PUSH2 0x13C0 JUMP JUMPDEST SWAP3 SWAP2 POP POP JUMP JUMPDEST PUSH1 0x0 DUP2 SWAP1 POP SWAP2 SWAP1 POP JUMP JUMPDEST PUSH1 0x0 PUSH2 0x140F PUSH2 0x140A PUSH2 0x1405 DUP5 PUSH2 0x12C2 JUMP JUMPDEST PUSH2 0x13EA JUMP JUMPDEST PUSH2 0x12C2 JUMP JUMPDEST SWAP1 POP SWAP2 SWAP1 POP JUMP JUMPDEST PUSH1 0x0 PUSH2 0x1421 DUP3 PUSH2 0x13F4 JUMP JUMPDEST SWAP1 POP SWAP2 SWAP1 POP JUMP JUMPDEST PUSH1 0x0 PUSH2 0x1433 DUP3 PUSH2 0x1416 JUMP JUMPDEST SWAP1 POP SWAP2 SWAP1 POP JUMP JUMPDEST PUSH2 0x1443 DUP2 PUSH2 0x1428 JUMP JUMPDEST DUP3 MSTORE POP POP JUMP JUMPDEST PUSH1 0x0 PUSH1 0x20 DUP3 ADD SWAP1 POP PUSH2 0x145E PUSH1 0x0 DUP4 ADD DUP5 PUSH2 0x143A JUMP JUMPDEST SWAP3 SWAP2 POP POP JUMP JUMPDEST PUSH1 0x0 DUP2 SWAP1 POP SWAP2 SWAP1 POP JUMP JUMPDEST PUSH2 0x1477 DUP2 PUSH2 0x1464 JUMP JUMPDEST DUP2 EQ PUSH2 0x1482 JUMPI PUSH1 0x0 DUP1 REVERT JUMPDEST POP JUMP JUMPDEST PUSH1 0x0 DUP2 CALLDATALOAD SWAP1 POP PUSH2 0x1494 DUP2 PUSH2 0x146E JUMP JUMPDEST SWAP3 SWAP2 POP POP JUMP JUMPDEST PUSH1 0x0 DUP1 PUSH1 0x40 DUP4 DUP6 SUB SLT ISZERO PUSH2 0x14B1 JUMPI PUSH2 0x14B0 PUSH2 0x12B8 JUMP JUMPDEST JUMPDEST PUSH1 0x0 PUSH2 0x14BF DUP6 DUP3 DUP7 ADD PUSH2 0x1485 JUMP JUMPDEST SWAP3 POP POP PUSH1 0x20 PUSH2 0x14D0 DUP6 DUP3 DUP7 ADD PUSH2 0x1341 JUMP JUMPDEST SWAP2 POP POP SWAP3 POP SWAP3 SWAP1 POP JUMP JUMPDEST PUSH1 0x0 DUP2 ISZERO ISZERO SWAP1 POP SWAP2 SWAP1 POP JUMP JUMPDEST PUSH2 0x14EF DUP2 PUSH2 0x14DA JUMP JUMPDEST DUP3 MSTORE POP POP JUMP JUMPDEST PUSH1 0x0 PUSH1 0x40 DUP3 ADD SWAP1 POP PUSH2 0x150A PUSH1 0x0 DUP4 ADD DUP6 PUSH2 0x14E6 JUMP JUMPDEST PUSH2 0x1517 PUSH1 0x20 DUP4 ADD DUP5 PUSH2 0x1396 JUMP JUMPDEST SWAP4 SWAP3 POP POP POP JUMP JUMPDEST PUSH1 0x0 PUSH1 0x20 DUP3 ADD SWAP1 POP PUSH2 0x1533 PUSH1 0x0 DUP4 ADD DUP5 PUSH2 0x14E6 JUMP JUMPDEST SWAP3 SWAP2 POP POP JUMP JUMPDEST PUSH1 0x0 DUP1 REVERT JUMPDEST PUSH1 0x0 DUP1 REVERT JUMPDEST PUSH1 0x0 DUP1 REVERT JUMPDEST PUSH1 0x0 DUP1 DUP4 PUSH1 0x1F DUP5 ADD SLT PUSH2 0x155E JUMPI PUSH2 0x155D PUSH2 0x1539 JUMP JUMPDEST JUMPDEST DUP3 CALLDATALOAD SWAP1 POP PUSH8 0xFFFFFFFFFFFFFFFF DUP2 GT ISZERO PUSH2 0x157B JUMPI PUSH2 0x157A PUSH2 0x153E JUMP JUMPDEST JUMPDEST PUSH1 0x20 DUP4 ADD SWAP2 POP DUP4 PUSH1 0x1 DUP3 MUL DUP4 ADD GT ISZERO PUSH2 0x1597 JUMPI PUSH2 0x1596 PUSH2 0x1543 JUMP JUMPDEST JUMPDEST SWAP3 POP SWAP3 SWAP1 POP JUMP JUMPDEST PUSH1 0x0 DUP1 PUSH1 0x0 PUSH1 0x40 DUP5 DUP7 SUB SLT ISZERO PUSH2 0x15B7 JUMPI PUSH2 0x15B6 PUSH2 0x12B8 JUMP JUMPDEST JUMPDEST PUSH1 0x0 PUSH2 0x15C5 DUP7 DUP3 DUP8 ADD PUSH2 0x130B JUMP JUMPDEST SWAP4 POP POP PUSH1 0x20 DUP5 ADD CALLDATALOAD PUSH8 0xFFFFFFFFFFFFFFFF DUP2 GT ISZERO PUSH2 0x15E6 JUMPI PUSH2 0x15E5 PUSH2 0x12BD JUMP JUMPDEST JUMPDEST PUSH2 0x15F2 DUP7 DUP3 DUP8 ADD PUSH2 0x1548 JUMP JUMPDEST SWAP3 POP SWAP3 POP POP SWAP3 POP SWAP3 POP SWAP3 JUMP JUMPDEST PUSH1 0x0 PUSH1 0x20 DUP3 DUP5 SUB SLT ISZERO PUSH2 0x1614 JUMPI PUSH2 0x1613 PUSH2 0x12B8 JUMP JUMPDEST JUMPDEST PUSH1 0x0 PUSH2 0x1622 DUP5 DUP3 DUP6 ADD PUSH2 0x1485 JUMP JUMPDEST SWAP2 POP POP SWAP3 SWAP2 POP POP JUMP JUMPDEST PUSH1 0x0 DUP2 MLOAD SWAP1 POP SWAP2 SWAP1 POP JUMP JUMPDEST PUSH1 0x0 DUP3 DUP3 MSTORE PUSH1 0x20 DUP3 ADD SWAP1 POP SWAP3 SWAP2 POP POP JUMP JUMPDEST PUSH1 0x0 JUMPDEST DUP4 DUP2 LT ISZERO PUSH2 0x1665 JUMPI DUP1 DUP3 ADD MLOAD DUP2 DUP5 ADD MSTORE PUSH1 0x20 DUP2 ADD SWAP1 POP PUSH2 0x164A JUMP JUMPDEST PUSH1 0x0 DUP5 DUP5 ADD MSTORE POP POP POP POP JUMP JUMPDEST PUSH1 0x0 PUSH1 0x1F NOT PUSH1 0x1F DUP4 ADD AND SWAP1 POP SWAP2 SWAP1 POP JUMP JUMPDEST PUSH1 0x0 PUSH2 0x168D DUP3 PUSH2 0x162B JUMP JUMPDEST PUSH2 0x1697 DUP2 DUP6 PUSH2 0x1636 JUMP JUMPDEST SWAP4 POP PUSH2 0x16A7 DUP2 DUP6 PUSH1 0x20 DUP7 ADD PUSH2 0x1647 JUMP JUMPDEST PUSH2 0x16B0 DUP2 PUSH2 0x1671 JUMP JUMPDEST DUP5 ADD SWAP2 POP POP SWAP3 SWAP2 POP POP JUMP JUMPDEST PUSH1 0x0 PUSH1 0x60 DUP3 ADD SWAP1 POP PUSH2 0x16D0 PUSH1 0x0 DUP4 ADD DUP7 PUSH2 0x14E6 JUMP JUMPDEST DUP2 DUP2 SUB PUSH1 0x20 DUP4 ADD MSTORE PUSH2 0x16E2 DUP2 DUP6 PUSH2 0x1682 JUMP JUMPDEST SWAP1 POP PUSH2 0x16F1 PUSH1 0x40 DUP4 ADD DUP5 PUSH2 0x1396 JUMP JUMPDEST SWAP5 SWAP4 POP POP POP POP JUMP JUMPDEST PUSH1 0x0 PUSH1 0x20 DUP3 ADD SWAP1 POP DUP2 DUP2 SUB PUSH1 0x0 DUP4 ADD MSTORE PUSH2 0x1713 DUP2 DUP5 PUSH2 0x1682 JUMP JUMPDEST SWAP1 POP SWAP3 SWAP2 POP POP JUMP JUMPDEST PUSH1 0x0 PUSH1 0x20 DUP3 DUP5 SUB SLT ISZERO PUSH2 0x1731 JUMPI PUSH2 0x1730 PUSH2 0x12B8 JUMP JUMPDEST JUMPDEST PUSH1 0x0 PUSH2 0x173F DUP5 DUP3 DUP6 ADD PUSH2 0x130B JUMP JUMPDEST SWAP2 POP POP SWAP3 SWAP2 POP POP JUMP JUMPDEST PUSH32 0x4E487B7100000000000000000000000000000000000000000000000000000000 PUSH1 0x0 MSTORE PUSH1 0x41 PUSH1 0x4 MSTORE PUSH1 0x24 PUSH1 0x0 REVERT JUMPDEST PUSH2 0x1780 DUP3 PUSH2 0x1671 JUMP JUMPDEST DUP2 ADD DUP2 DUP2 LT PUSH8 0xFFFFFFFFFFFFFFFF DUP3 GT OR ISZERO PUSH2 0x179F JUMPI PUSH2 0x179E PUSH2 0x1748 JUMP JUMPDEST JUMPDEST DUP1 PUSH1 0x40 MSTORE POP POP POP JUMP JUMPDEST PUSH1 0x0 PUSH2 0x17B2 PUSH2 0x12AE JUMP JUMPDEST SWAP1 POP PUSH2 0x17BE DUP3 DUP3 PUSH2 0x1777 JUMP JUMPDEST SWAP2 SWAP1 POP JUMP JUMPDEST PUSH1 0x0 PUSH8 0xFFFFFFFFFFFFFFFF DUP3 GT ISZERO PUSH2 0x17DE JUMPI PUSH2 0x17DD PUSH2 0x1748 JUMP JUMPDEST JUMPDEST PUSH1 0x20 DUP3 MUL SWAP1 POP PUSH1 0x20 DUP2 ADD SWAP1 POP SWAP2 SWAP1 POP JUMP JUMPDEST PUSH1 0x0 DUP2 MLOAD SWAP1 POP PUSH2 0x17FE DUP2 PUSH2 0x12F4 JUMP JUMPDEST SWAP3 SWAP2 POP POP JUMP JUMPDEST PUSH1 0x0 PUSH2 0x1817 PUSH2 0x1812 DUP5 PUSH2 0x17C3 JUMP JUMPDEST PUSH2 0x17A8 JUMP JUMPDEST SWAP1 POP DUP1 DUP4 DUP3 MSTORE PUSH1 0x20 DUP3 ADD SWAP1 POP PUSH1 0x20 DUP5 MUL DUP4 ADD DUP6 DUP2 GT ISZERO PUSH2 0x183A JUMPI PUSH2 0x1839 PUSH2 0x1543 JUMP JUMPDEST JUMPDEST DUP4 JUMPDEST DUP2 DUP2 LT ISZERO PUSH2 0x1863 JUMPI DUP1 PUSH2 0x184F DUP9 DUP3 PUSH2 0x17EF JUMP JUMPDEST DUP5 MSTORE PUSH1 0x20 DUP5 ADD SWAP4 POP POP PUSH1 0x20 DUP2 ADD SWAP1 POP PUSH2 0x183C JUMP JUMPDEST POP POP POP SWAP4 SWAP3 POP POP POP JUMP JUMPDEST PUSH1 0x0 DUP3 PUSH1 0x1F DUP4 ADD SLT PUSH2 0x1882 JUMPI PUSH2 0x1881 PUSH2 0x1539 JUMP JUMPDEST JUMPDEST DUP2 MLOAD PUSH2 0x1892 DUP5 DUP3 PUSH1 0x20 DUP7 ADD PUSH2 0x1804 JUMP JUMPDEST SWAP2 POP POP SWAP3 SWAP2 POP POP JUMP JUMPDEST PUSH1 0x0 PUSH1 0x20 DUP3 DUP5 SUB SLT ISZERO PUSH2 0x18B1 JUMPI PUSH2 0x18B0 PUSH2 0x12B8 JUMP JUMPDEST JUMPDEST PUSH1 0x0 DUP3 ADD MLOAD PUSH8 0xFFFFFFFFFFFFFFFF DUP2 GT ISZERO PUSH2 0x18CF JUMPI PUSH2 0x18CE PUSH2 0x12BD JUMP JUMPDEST JUMPDEST PUSH2 0x18DB DUP5 DUP3 DUP6 ADD PUSH2 0x186D JUMP JUMPDEST SWAP2 POP POP SWAP3 SWAP2 POP POP JUMP JUMPDEST PUSH1 0x0 PUSH8 0xFFFFFFFFFFFFFFFF DUP3 GT ISZERO PUSH2 0x18FF JUMPI PUSH2 0x18FE PUSH2 0x1748 JUMP JUMPDEST JUMPDEST PUSH1 0x20 DUP3 MUL SWAP1 POP PUSH1 0x20 DUP2 ADD SWAP1 POP SWAP2 SWAP1 POP JUMP JUMPDEST PUSH1 0x0 DUP2 MLOAD SWAP1 POP PUSH2 0x191F DUP2 PUSH2 0x132A JUMP JUMPDEST SWAP3 SWAP2 POP POP JUMP JUMPDEST PUSH1 0x0 PUSH2 0x1938 PUSH2 0x1933 DUP5 PUSH2 0x18E4 JUMP JUMPDEST PUSH2 0x17A8 JUMP JUMPDEST SWAP1 POP DUP1 DUP4 DUP3 MSTORE PUSH1 0x20 DUP3 ADD SWAP1 POP PUSH1 0x20 DUP5 MUL DUP4 ADD DUP6 DUP2 GT ISZERO PUSH2 0x195B JUMPI PUSH2 0x195A PUSH2 0x1543 JUMP JUMPDEST JUMPDEST DUP4 JUMPDEST DUP2 DUP2 LT ISZERO PUSH2 0x1984 JUMPI DUP1 PUSH2 0x1970 DUP9 DUP3 PUSH2 0x1910 JUMP JUMPDEST DUP5 MSTORE PUSH1 0x20 DUP5 ADD SWAP4 POP POP PUSH1 0x20 DUP2 ADD SWAP1 POP PUSH2 0x195D JUMP JUMPDEST POP POP POP SWAP4 SWAP3 POP POP POP JUMP JUMPDEST PUSH1 0x0 DUP3 PUSH1 0x1F DUP4 ADD SLT PUSH2 0x19A3 JUMPI PUSH2 0x19A2 PUSH2 0x1539 JUMP JUMPDEST JUMPDEST DUP2 MLOAD PUSH2 0x19B3 DUP5 DUP3 PUSH1 0x20 DUP7 ADD PUSH2 0x1925 JUMP JUMPDEST SWAP2 POP POP SWAP3 SWAP2 POP POP JUMP JUMPDEST PUSH1 0x0 PUSH1 0x20 DUP3 DUP5 SUB SLT ISZERO PUSH2 0x19D2 JUMPI PUSH2 0x19D1 PUSH2 0x12B8 JUMP JUMPDEST JUMPDEST PUSH1 0x0 DUP3 ADD MLOAD PUSH8 0xFFFFFFFFFFFFFFFF DUP2 GT ISZERO PUSH2 0x19F0 JUMPI PUSH2 0x19EF PUSH2 0x12BD JUMP JUMPDEST JUMPDEST PUSH2 0x19FC DUP5 DUP3 DUP6 ADD PUSH2 0x198E JUMP JUMPDEST SWAP2 POP POP SWAP3 SWAP2 POP POP JUMP JUMPDEST PUSH32 0x4E487B7100000000000000000000000000000000000000000000000000000000 PUSH1 0x0 MSTORE PUSH1 0x11 PUSH1 0x4 MSTORE PUSH1 0x24 PUSH1 0x0 REVERT JUMPDEST PUSH1 0x0 PUSH2 0x1A3F DUP3 PUSH2 0x1320 JUMP JUMPDEST SWAP2 POP PUSH2 0x1A4A DUP4 PUSH2 0x1320 JUMP JUMPDEST SWAP3 POP DUP3 DUP3 ADD SWAP1 POP DUP1 DUP3 GT ISZERO PUSH2 0x1A62 JUMPI PUSH2 0x1A61 PUSH2 0x1A05 JUMP JUMPDEST JUMPDEST SWAP3 SWAP2 POP POP JUMP JUMPDEST PUSH1 0x0 PUSH2 0x1A73 DUP3 PUSH2 0x1320 JUMP JUMPDEST SWAP2 POP PUSH32 0xFFFFFFFFFFFFFFFFFFFFFFFFFFFFFFFFFFFFFFFFFFFFFFFFFFFFFFFFFFFFFFFF DUP3 SUB PUSH2 0x1AA5 JUMPI PUSH2 0x1AA4 PUSH2 0x1A05 JUMP JUMPDEST JUMPDEST PUSH1 0x1 DUP3 ADD SWAP1 POP SWAP2 SWAP1 POP JUMP JUMPDEST PUSH1 0x0 PUSH2 0x1ABB DUP3 PUSH2 0x1320 JUMP JUMPDEST SWAP2 POP PUSH2 0x1AC6 DUP4 PUSH2 0x1320 JUMP JUMPDEST SWAP3 POP DUP3 DUP3 SUB SWAP1 POP DUP2 DUP2 GT ISZERO PUSH2 0x1ADE JUMPI PUSH2 0x1ADD PUSH2 0x1A05 JUMP JUMPDEST JUMPDEST SWAP3 SWAP2 POP POP JUMP JUMPDEST PUSH32 0x4E487B7100000000000000000000000000000000000000000000000000000000 PUSH1 0x0 MSTORE PUSH1 0x12 PUSH1 0x4 MSTORE PUSH1 0x24 PUSH1 0x0 REVERT JUMPDEST PUSH1 0x0 PUSH2 0x1B1E DUP3 PUSH2 0x1320 JUMP JUMPDEST SWAP2 POP PUSH2 0x1B29 DUP4 PUSH2 0x1320 JUMP JUMPDEST SWAP3 POP DUP3 PUSH2 0x1B39 JUMPI PUSH2 0x1B38 PUSH2 0x1AE4 JUMP JUMPDEST JUMPDEST DUP3 DUP3 DIV SWAP1 POP SWAP3 SWAP2 POP POP JUMP JUMPDEST PUSH1 0x0 DUP2 SWAP1 POP SWAP2 SWAP1 POP JUMP JUMPDEST PUSH1 0x0 DUP2 PUSH1 0x0 SHL SWAP1 POP SWAP2 SWAP1 POP JUMP JUMPDEST PUSH1 0x0 PUSH2 0x1B76 PUSH2 0x1B71 PUSH2 0x1B6C DUP5 PUSH2 0x1B44 JUMP JUMPDEST PUSH2 0x1B4E JUMP JUMPDEST PUSH2 0x1464 JUMP JUMPDEST SWAP1 POP SWAP2 SWAP1 POP JUMP JUMPDEST PUSH2 0x1B86 DUP2 PUSH2 0x1B5B JUMP JUMPDEST DUP3 MSTORE POP POP JUMP JUMPDEST PUSH1 0x0 PUSH1 0x20 DUP3 ADD SWAP1 POP PUSH2 0x1BA1 PUSH1 0x0 DUP4 ADD DUP5 PUSH2 0x1B7D JUMP JUMPDEST SWAP3 SWAP2 POP POP JUMP JUMPDEST PUSH1 0x0 PUSH1 0x20 DUP3 DUP5 SUB SLT ISZERO PUSH2 0x1BBD JUMPI PUSH2 0x1BBC PUSH2 0x12B8 JUMP JUMPDEST JUMPDEST PUSH1 0x0 PUSH2 0x1BCB DUP5 DUP3 DUP6 ADD PUSH2 0x17EF JUMP JUMPDEST SWAP2 POP POP SWAP3 SWAP2 POP POP JUMP JUMPDEST PUSH1 0x0 DUP2 SWAP1 POP SWAP2 SWAP1 POP JUMP JUMPDEST PUSH2 0x1BEF PUSH2 0x1BEA DUP3 PUSH2 0x1464 JUMP JUMPDEST PUSH2 0x1BD4 JUMP JUMPDEST DUP3 MSTORE POP POP JUMP JUMPDEST PUSH1 0x0 DUP2 SWAP1 POP SWAP2 SWAP1 POP JUMP JUMPDEST PUSH2 0x1C10 PUSH2 0x1C0B DUP3 PUSH2 0x1320 JUMP JUMPDEST PUSH2 0x1BF5 JUMP JUMPDEST DUP3 MSTORE POP POP JUMP JUMPDEST PUSH1 0x0 PUSH2 0x1C22 DUP3 DUP6 PUSH2 0x1BDE JUMP JUMPDEST PUSH1 0x20 DUP3 ADD SWAP2 POP PUSH2 0x1C32 DUP3 DUP5 PUSH2 0x1BFF JUMP JUMPDEST PUSH1 0x20 DUP3 ADD SWAP2 POP DUP2 SWAP1 POP SWAP4 SWAP3 POP POP POP JUMP JUMPDEST PUSH2 0x1C4B DUP2 PUSH2 0x1464 JUMP JUMPDEST DUP3 MSTORE POP POP JUMP JUMPDEST PUSH1 0x0 PUSH1 0x20 DUP3 ADD SWAP1 POP PUSH2 0x1C66 PUSH1 0x0 DUP4 ADD DUP5 PUSH2 0x1C42 JUMP JUMPDEST SWAP3 SWAP2 POP POP JUMP JUMPDEST PUSH1 0x0 DUP3 SWAP1 POP SWAP3 SWAP2 POP POP JUMP JUMPDEST PUSH32 0x4E487B7100000000000000000000000000000000000000000000000000000000 PUSH1 0x0 MSTORE PUSH1 0x22 PUSH1 0x4 MSTORE PUSH1 0x24 PUSH1 0x0 REVERT JUMPDEST PUSH1 0x0 PUSH1 0x2 DUP3 DIV SWAP1 POP PUSH1 0x1 DUP3 AND DUP1 PUSH2 0x1CBE JUMPI PUSH1 0x7F DUP3 AND SWAP2 POP JUMPDEST PUSH1 0x20 DUP3 LT DUP2 SUB PUSH2 0x1CD1 JUMPI PUSH2 0x1CD0 PUSH2 0x1C77 JUMP JUMPDEST JUMPDEST POP SWAP2 SWAP1 POP JUMP JUMPDEST PUSH1 0x0 DUP2 SWAP1 POP DUP2 PUSH1 0x0 MSTORE PUSH1 0x20 PUSH1 0x0 KECCAK256 SWAP1 POP SWAP2 SWAP1 POP JUMP JUMPDEST PUSH1 0x0 PUSH1 0x20 PUSH1 0x1F DUP4 ADD DIV SWAP1 POP SWAP2 SWAP1 POP JUMP JUMPDEST PUSH1 0x0 DUP3 DUP3 SHL SWAP1 POP SWAP3 SWAP2 POP POP JUMP JUMPDEST PUSH1 0x0 PUSH1 0x8 DUP4 MUL PUSH2 0x1D39 PUSH32 0xFFFFFFFFFFFFFFFFFFFFFFFFFFFFFFFFFFFFFFFFFFFFFFFFFFFFFFFFFFFFFFFF DUP3 PUSH2 0x1CFC JUMP JUMPDEST PUSH2 0x1D43 DUP7 DUP4 PUSH2 0x1CFC JUMP JUMPDEST SWAP6 POP DUP1 NOT DUP5 AND SWAP4 POP DUP1 DUP7 AND DUP5 OR SWAP3 POP POP POP SWAP4 SWAP3 POP POP POP JUMP JUMPDEST PUSH1 0x0 PUSH2 0x1D76 PUSH2 0x1D71 PUSH2 0x1D6C DUP5 PUSH2 0x1320 JUMP JUMPDEST PUSH2 0x13EA JUMP JUMPDEST PUSH2 0x1320 JUMP JUMPDEST SWAP1 POP SWAP2 SWAP1 POP JUMP JUMPDEST PUSH1 0x0 DUP2 SWAP1 POP SWAP2 SWAP1 POP JUMP JUMPDEST PUSH2 0x1D90 DUP4 PUSH2 0x1D5B JUMP JUMPDEST PUSH2 0x1DA4 PUSH2 0x1D9C DUP3 PUSH2 0x1D7D JUMP JUMPDEST DUP5 DUP5 SLOAD PUSH2 0x1D09 JUMP JUMPDEST DUP3 SSTORE POP POP POP POP JUMP JUMPDEST PUSH1 0x0 SWAP1 JUMP JUMPDEST PUSH2 0x1DB9 PUSH2 0x1DAC JUMP JUMPDEST PUSH2 0x1DC4 DUP2 DUP5 DUP5 PUSH2 0x1D87 JUMP JUMPDEST POP POP POP JUMP JUMPDEST JUMPDEST DUP2 DUP2 LT ISZERO PUSH2 0x1DE8 JUMPI PUSH2 0x1DDD PUSH1 0x0 DUP3 PUSH2 0x1DB1 JUMP JUMPDEST PUSH1 0x1 DUP2 ADD SWAP1 POP PUSH2 0x1DCA JUMP JUMPDEST POP POP JUMP JUMPDEST PUSH1 0x1F DUP3 GT ISZERO PUSH2 0x1E2D JUMPI PUSH2 0x1DFE DUP2 PUSH2 0x1CD7 JUMP JUMPDEST PUSH2 0x1E07 DUP5 PUSH2 0x1CEC JUMP JUMPDEST DUP2 ADD PUSH1 0x20 DUP6 LT ISZERO PUSH2 0x1E16 JUMPI DUP2 SWAP1 POP JUMPDEST PUSH2 0x1E2A PUSH2 0x1E22 DUP6 PUSH2 0x1CEC JUMP JUMPDEST DUP4 ADD DUP3 PUSH2 0x1DC9 JUMP JUMPDEST POP POP JUMPDEST POP POP POP JUMP JUMPDEST PUSH1 0x0 DUP3 DUP3 SHR SWAP1 POP SWAP3 SWAP2 POP POP JUMP JUMPDEST PUSH1 0x0 PUSH2 0x1E50 PUSH1 0x0 NOT DUP5 PUSH1 0x8 MUL PUSH2 0x1E32 JUMP JUMPDEST NOT DUP1 DUP4 AND SWAP2 POP POP SWAP3 SWAP2 POP POP JUMP JUMPDEST PUSH1 0x0 PUSH2 0x1E69 DUP4 DUP4 PUSH2 0x1E3F JUMP JUMPDEST SWAP2 POP DUP3 PUSH1 0x2 MUL DUP3 OR SWAP1 POP SWAP3 SWAP2 POP POP JUMP JUMPDEST PUSH2 0x1E83 DUP4 DUP4 PUSH2 0x1C6C JUMP JUMPDEST PUSH8 0xFFFFFFFFFFFFFFFF DUP2 GT ISZERO PUSH2 0x1E9C JUMPI PUSH2 0x1E9B PUSH2 0x1748 JUMP JUMPDEST JUMPDEST PUSH2 0x1EA6 DUP3 SLOAD PUSH2 0x1CA6 JUMP JUMPDEST PUSH2 0x1EB1 DUP3 DUP3 DUP6 PUSH2 0x1DEC JUMP JUMPDEST PUSH1 0x0 PUSH1 0x1F DUP4 GT PUSH1 0x1 DUP2 EQ PUSH2 0x1EE0 JUMPI PUSH1 0x0 DUP5 ISZERO PUSH2 0x1ECE JUMPI DUP3 DUP8 ADD CALLDATALOAD SWAP1 POP JUMPDEST PUSH2 0x1ED8 DUP6 DUP3 PUSH2 0x1E5D JUMP JUMPDEST DUP7 SSTORE POP PUSH2 0x1F40 JUMP JUMPDEST PUSH1 0x1F NOT DUP5 AND PUSH2 0x1EEE DUP7 PUSH2 0x1CD7 JUMP JUMPDEST PUSH1 0x0 JUMPDEST DUP3 DUP2 LT ISZERO PUSH2 0x1F16 JUMPI DUP5 DUP10 ADD CALLDATALOAD DUP3 SSTORE PUSH1 0x1 DUP3 ADD SWAP2 POP PUSH1 0x20 DUP6 ADD SWAP5 POP PUSH1 0x20 DUP2 ADD SWAP1 POP PUSH2 0x1EF1 JUMP JUMPDEST DUP7 DUP4 LT ISZERO PUSH2 0x1F33 JUMPI DUP5 DUP10 ADD CALLDATALOAD PUSH2 0x1F2F PUSH1 0x1F DUP10 AND DUP3 PUSH2 0x1E3F JUMP JUMPDEST DUP4 SSTORE POP JUMPDEST PUSH1 0x1 PUSH1 0x2 DUP9 MUL ADD DUP9 SSTORE POP POP POP JUMPDEST POP POP POP POP POP POP POP JUMP JUMPDEST PUSH1 0x0 PUSH1 0x20 DUP3 DUP5 SUB SLT ISZERO PUSH2 0x1F5F JUMPI PUSH2 0x1F5E PUSH2 0x12B8 JUMP JUMPDEST JUMPDEST PUSH1 0x0 PUSH2 0x1F6D DUP5 DUP3 DUP6 ADD PUSH2 0x1910 JUMP JUMPDEST SWAP2 POP POP SWAP3 SWAP2 POP POP JUMP JUMPDEST PUSH1 0x0 PUSH1 0x40 DUP3 ADD SWAP1 POP PUSH2 0x1F8B PUSH1 0x0 DUP4 ADD DUP6 PUSH2 0x1C42 JUMP JUMPDEST PUSH2 0x1F98 PUSH1 0x20 DUP4 ADD DUP5 PUSH2 0x1396 JUMP JUMPDEST SWAP4 SWAP3 POP POP POP JUMP JUMPDEST PUSH1 0x0 DUP1 REVERT JUMPDEST PUSH1 0x0 PUSH8 0xFFFFFFFFFFFFFFFF DUP3 GT ISZERO PUSH2 0x1FBF JUMPI PUSH2 0x1FBE PUSH2 0x1748 JUMP JUMPDEST JUMPDEST PUSH2 0x1FC8 DUP3 PUSH2 0x1671 JUMP JUMPDEST SWAP1 POP PUSH1 0x20 DUP2 ADD SWAP1 POP SWAP2 SWAP1 POP JUMP JUMPDEST PUSH1 0x0 PUSH2 0x1FE8 PUSH2 0x1FE3 DUP5 PUSH2 0x1FA4 JUMP JUMPDEST PUSH2 0x17A8 JUMP JUMPDEST SWAP1 POP DUP3 DUP2 MSTORE PUSH1 0x20 DUP2 ADD DUP5 DUP5 DUP5 ADD GT ISZERO PUSH2 0x2004 JUMPI PUSH2 0x2003 PUSH2 0x1F9F JUMP JUMPDEST JUMPDEST PUSH2 0x200F DUP5 DUP3 DUP6 PUSH2 0x1647 JUMP JUMPDEST POP SWAP4 SWAP3 POP POP POP JUMP JUMPDEST PUSH1 0x0 DUP3 PUSH1 0x1F DUP4 ADD SLT PUSH2 0x202C JUMPI PUSH2 0x202B PUSH2 0x1539 JUMP JUMPDEST JUMPDEST DUP2 MLOAD PUSH2 0x203C DUP5 DUP3 PUSH1 0x20 DUP7 ADD PUSH2 0x1FD5 JUMP JUMPDEST SWAP2 POP POP SWAP3 SWAP2 POP POP JUMP JUMPDEST PUSH1 0x0 PUSH1 0x20 DUP3 DUP5 SUB SLT ISZERO PUSH2 0x205B JUMPI PUSH2 0x205A PUSH2 0x12B8 JUMP JUMPDEST JUMPDEST PUSH1 0x0 DUP3 ADD MLOAD PUSH8 0xFFFFFFFFFFFFFFFF DUP2 GT ISZERO PUSH2 0x2079 JUMPI PUSH2 0x2078 PUSH2 0x12BD JUMP JUMPDEST JUMPDEST PUSH2 0x2085 DUP5 DUP3 DUP6 ADD PUSH2 0x2017 JUMP JUMPDEST SWAP2 POP POP SWAP3 SWAP2 POP POP JUMP JUMPDEST PUSH1 0x0 DUP2 MLOAD SWAP1 POP SWAP2 SWAP1 POP JUMP JUMPDEST PUSH1 0x0 DUP3 DUP3 MSTORE PUSH1 0x20 DUP3 ADD SWAP1 POP SWAP3 SWAP2 POP POP JUMP JUMPDEST PUSH1 0x0 PUSH2 0x20B5 DUP3 PUSH2 0x208E JUMP JUMPDEST PUSH2 0x20BF DUP2 DUP6 PUSH2 0x2099 JUMP JUMPDEST SWAP4 POP PUSH2 0x20CF DUP2 DUP6 PUSH1 0x20 DUP7 ADD PUSH2 0x1647 JUMP JUMPDEST PUSH2 0x20D8 DUP2 PUSH2 0x1671 JUMP JUMPDEST DUP5 ADD SWAP2 POP POP SWAP3 SWAP2 POP POP JUMP JUMPDEST PUSH32 0x7573640000000000000000000000000000000000000000000000000000000000 PUSH1 0x0 DUP3 ADD MSTORE POP JUMP JUMPDEST PUSH1 0x0 PUSH2 0x2119 PUSH1 0x3 DUP4 PUSH2 0x2099 JUMP JUMPDEST SWAP2 POP PUSH2 0x2124 DUP3 PUSH2 0x20E3 JUMP JUMPDEST PUSH1 0x20 DUP3 ADD SWAP1 POP SWAP2 SWAP1 POP JUMP JUMPDEST PUSH1 0x0 PUSH1 0x40 DUP3 ADD SWAP1 POP DUP2 DUP2 SUB PUSH1 0x0 DUP4 ADD MSTORE PUSH2 0x2149 DUP2 DUP5 PUSH2 0x20AA JUMP JUMPDEST SWAP1 POP DUP2 DUP2 SUB PUSH1 0x20 DUP4 ADD MSTORE PUSH2 0x215C DUP2 PUSH2 0x210C JUMP JUMPDEST SWAP1 POP SWAP3 SWAP2 POP POP JUMP JUMPDEST PUSH32 0x53706F7450726963650000000000000000000000000000000000000000000000 PUSH1 0x0 DUP3 ADD MSTORE POP JUMP JUMPDEST PUSH1 0x0 PUSH2 0x219A PUSH1 0x9 DUP4 PUSH2 0x2099 JUMP JUMPDEST SWAP2 POP PUSH2 0x21A5 DUP3 PUSH2 0x2164 JUMP JUMPDEST PUSH1 0x20 DUP3 ADD SWAP1 POP SWAP2 SWAP1 POP JUMP JUMPDEST PUSH1 0x0 PUSH1 0x40 DUP3 ADD SWAP1 POP DUP2 DUP2 SUB PUSH1 0x0 DUP4 ADD MSTORE PUSH2 0x21C9 DUP2 PUSH2 0x218D JUMP JUMPDEST SWAP1 POP DUP2 DUP2 SUB PUSH1 0x20 DUP4 ADD MSTORE PUSH2 0x21DD DUP2 DUP5 PUSH2 0x1682 JUMP JUMPDEST SWAP1 POP SWAP3 SWAP2 POP POP JUMP INVALID LOG2 PUSH5 0x6970667358 0x22 SLT KECCAK256 0x49 0x27 0xAB DUP3 PUSH22 0x4E2BC613AC730E9F431657561799D566FE4BC4C9DD17 ADDRESS 0x23 GASLIMIT PUSH4 0xBC64736F PUSH13 0x63430008110033000000000000 "
				},
				"gasEstimates": {
					"creation": {
						"codeDepositCost": "1746200",
						"executionCost": "infinite",
						"totalCost": "infinite"
					},
					"external": {
						"Wrapper()": "infinite",
						"getBundlePrice(address,uint256)": "infinite",
						"getCurrentValue(bytes32)": "infinite",
						"getDataBefore(bytes32,uint256)": "infinite",
						"getIndexForDataBefore(bytes32,uint256)": "infinite",
						"getNewValueCountbyQueryId(bytes32)": "infinite",
						"getTimestampbyQueryIdandIndex(bytes32,uint256)": "infinite",
						"getUnderlyingPrice(address)": "infinite",
						"isInDispute(bytes32,uint256)": "infinite",
						"retrieveData(bytes32,uint256)": "infinite",
						"setMapping(address,string)": "infinite",
						"tellor()": "infinite"
					},
					"internal": {
						"_getUnderlyingPrice(address)": "infinite",
						"toUint256(bytes memory)": "infinite"
					}
				},
				"methodIdentifiers": {
					"Wrapper()": "08a130ab",
					"getBundlePrice(address,uint256)": "06cd702c",
					"getCurrentValue(bytes32)": "adf1639d",
					"getDataBefore(bytes32,uint256)": "a792765f",
					"getIndexForDataBefore(bytes32,uint256)": "29449085",
					"getNewValueCountbyQueryId(bytes32)": "77b03e0d",
					"getTimestampbyQueryIdandIndex(bytes32,uint256)": "ce5e11bf",
					"getUnderlyingPrice(address)": "fc57d4df",
					"isInDispute(bytes32,uint256)": "44e87f91",
					"retrieveData(bytes32,uint256)": "c5958af9",
					"setMapping(address,string)": "4cdf47cc",
					"tellor()": "1959ad5b"
				}
			},
			"storageLayout": {
				"storage": [
					{
						"astId": 240,
						"contract": "contracts/TellorOracle.sol:TellorOracle",
						"label": "tellor",
						"offset": 0,
						"slot": "0",
						"type": "t_contract(ITellor)1509"
					},
					{
						"astId": 48,
						"contract": "contracts/TellorOracle.sol:TellorOracle",
						"label": "tAddressMapping",
						"offset": 0,
						"slot": "1",
						"type": "t_mapping(t_address,t_string_storage)"
					}
				],
				"types": {
					"t_address": {
						"encoding": "inplace",
						"label": "address",
						"numberOfBytes": "20"
					},
					"t_contract(ITellor)1509": {
						"encoding": "inplace",
						"label": "contract ITellor",
						"numberOfBytes": "20"
					},
					"t_mapping(t_address,t_string_storage)": {
						"encoding": "mapping",
						"key": "t_address",
						"label": "mapping(address => string)",
						"numberOfBytes": "32",
						"value": "t_string_storage"
					},
					"t_string_storage": {
						"encoding": "bytes",
						"label": "string",
						"numberOfBytes": "32"
					}
				}
			},
			"userdoc": {
				"kind": "user",
				"methods": {},
				"version": 1
			}
		}
	}
}