{
	"contracts/mainliquidations.sol": {
		"LAN": {
			"abi": [
				{
					"anonymous": false,
					"inputs": [
						{
							"indexed": false,
							"internalType": "uint256",
							"name": "Id",
							"type": "uint256"
						}
					],
					"name": "loanCancelled",
					"type": "event"
				},
				{
					"anonymous": false,
					"inputs": [
						{
							"indexed": false,
							"internalType": "uint256",
							"name": "poolId",
							"type": "uint256"
						}
					],
					"name": "loanEnded",
					"type": "event"
				},
				{
					"anonymous": false,
					"inputs": [
						{
							"indexed": true,
							"internalType": "uint256",
							"name": "poolId",
							"type": "uint256"
						},
						{
							"indexed": false,
							"internalType": "address",
							"name": "collectionAddress",
							"type": "address"
						},
						{
							"indexed": false,
							"internalType": "uint256",
							"name": "nftId",
							"type": "uint256"
						}
					],
					"name": "newPool",
					"type": "event"
				},
				{
					"inputs": [
						{
							"internalType": "uint256",
							"name": "_poolId",
							"type": "uint256"
						},
						{
							"internalType": "uint256",
							"name": "_amount",
							"type": "uint256"
						},
						{
							"internalType": "uint256",
							"name": "_apr",
							"type": "uint256"
						},
						{
							"internalType": "uint16",
							"name": "_ltv",
							"type": "uint16"
						}
					],
					"name": "bid",
					"outputs": [],
					"stateMutability": "nonpayable",
					"type": "function"
				},
				{
					"inputs": [
						{
							"internalType": "uint256",
							"name": "",
							"type": "uint256"
						},
						{
							"internalType": "uint256",
							"name": "",
							"type": "uint256"
						}
					],
					"name": "bids",
					"outputs": [
						{
							"internalType": "uint256",
							"name": "bidTime",
							"type": "uint256"
						},
						{
							"internalType": "uint256",
							"name": "bidAmount",
							"type": "uint256"
						},
						{
							"internalType": "address",
							"name": "user",
							"type": "address"
						},
						{
							"internalType": "uint256",
							"name": "apr",
							"type": "uint256"
						},
						{
							"internalType": "uint16",
							"name": "ltv",
							"type": "uint16"
						}
					],
					"stateMutability": "view",
					"type": "function"
				},
				{
					"inputs": [
						{
							"internalType": "uint256",
							"name": "_poolId",
							"type": "uint256"
						}
					],
					"name": "cancel",
					"outputs": [],
					"stateMutability": "nonpayable",
					"type": "function"
				},
				{
					"inputs": [
						{
							"internalType": "uint256",
							"name": "_poolId",
							"type": "uint256"
						},
						{
							"internalType": "address",
							"name": "_newAddress",
							"type": "address"
						},
						{
							"internalType": "bool",
							"name": "_status",
							"type": "bool"
						}
					],
					"name": "changeWhitelist",
					"outputs": [],
					"stateMutability": "nonpayable",
					"type": "function"
				},
				{
					"inputs": [],
					"name": "count",
					"outputs": [
						{
							"internalType": "uint256",
							"name": "",
							"type": "uint256"
						}
					],
					"stateMutability": "view",
					"type": "function"
				},
				{
					"inputs": [
						{
							"internalType": "address",
							"name": "_operator",
							"type": "address"
						},
						{
							"internalType": "address",
							"name": "_token",
							"type": "address"
						},
						{
							"internalType": "address",
							"name": "_oracleAddress",
							"type": "address"
						},
						{
							"internalType": "address",
							"name": "_collectionAddress",
							"type": "address"
						},
						{
							"internalType": "uint256",
							"name": "_nftId",
							"type": "uint256"
						},
						{
							"internalType": "uint256",
							"name": "_startTime",
							"type": "uint256"
						},
						{
							"internalType": "uint256",
							"name": "_endTime",
							"type": "uint256"
						},
						{
							"internalType": "bool",
							"name": "_liquidatable",
							"type": "bool"
						},
						{
							"internalType": "bool",
							"name": "_whitelisted",
							"type": "bool"
						}
					],
					"name": "launch",
					"outputs": [],
					"stateMutability": "nonpayable",
					"type": "function"
				},
				{
					"inputs": [
						{
							"internalType": "uint256",
							"name": "_poolId",
							"type": "uint256"
						}
					],
					"name": "liquidate",
					"outputs": [],
					"stateMutability": "nonpayable",
					"type": "function"
				},
				{
					"inputs": [
						{
							"internalType": "uint256",
							"name": "_poolId",
							"type": "uint256"
						}
					],
					"name": "liquidateEarly",
					"outputs": [],
					"stateMutability": "nonpayable",
					"type": "function"
				},
				{
					"inputs": [
						{
							"internalType": "uint256",
							"name": "",
							"type": "uint256"
						}
					],
					"name": "loans",
					"outputs": [
						{
							"internalType": "address",
							"name": "owner",
							"type": "address"
						},
						{
							"internalType": "address",
							"name": "token",
							"type": "address"
						},
						{
							"internalType": "address",
							"name": "operator",
							"type": "address"
						},
						{
							"internalType": "address",
							"name": "oracleAddress",
							"type": "address"
						},
						{
							"internalType": "address",
							"name": "collectionAddress",
							"type": "address"
						},
						{
							"internalType": "uint256",
							"name": "apr",
							"type": "uint256"
						},
						{
							"internalType": "uint256",
							"name": "nftId",
							"type": "uint256"
						},
						{
							"internalType": "uint256",
							"name": "startTime",
							"type": "uint256"
						},
						{
							"internalType": "uint256",
							"name": "endTime",
							"type": "uint256"
						},
						{
							"internalType": "uint256",
							"name": "numBids",
							"type": "uint256"
						},
						{
							"internalType": "bool",
							"name": "liquidatable",
							"type": "bool"
						},
						{
							"internalType": "bool",
							"name": "whitelisted",
							"type": "bool"
						}
					],
					"stateMutability": "view",
					"type": "function"
				},
				{
					"inputs": [
						{
							"internalType": "uint256",
							"name": "_poolId",
							"type": "uint256"
						},
						{
							"internalType": "uint256",
							"name": "_amount",
							"type": "uint256"
						}
					],
					"name": "repay",
					"outputs": [],
					"stateMutability": "nonpayable",
					"type": "function"
				},
				{
					"inputs": [
						{
							"internalType": "uint256",
							"name": "_poolId",
							"type": "uint256"
						},
						{
							"internalType": "address",
							"name": "_newAddress",
							"type": "address"
						}
					],
					"name": "setNewBidOwner",
					"outputs": [],
					"stateMutability": "nonpayable",
					"type": "function"
				},
				{
					"inputs": [
						{
							"internalType": "uint256",
							"name": "",
							"type": "uint256"
						}
					],
					"name": "userPoolReserve",
					"outputs": [
						{
							"internalType": "uint256",
							"name": "",
							"type": "uint256"
						}
					],
					"stateMutability": "view",
					"type": "function"
				},
				{
					"inputs": [
						{
							"internalType": "uint256",
							"name": "_poolId",
							"type": "uint256"
						},
						{
							"internalType": "bool",
							"name": "_whitelist",
							"type": "bool"
						}
					],
					"name": "whitelistStatusUpdate",
					"outputs": [],
					"stateMutability": "nonpayable",
					"type": "function"
				},
				{
					"inputs": [
						{
							"internalType": "uint256",
							"name": "",
							"type": "uint256"
						},
						{
							"internalType": "address",
							"name": "",
							"type": "address"
						}
					],
					"name": "whitelistedAddresses",
					"outputs": [
						{
							"internalType": "bool",
							"name": "",
							"type": "bool"
						}
					],
					"stateMutability": "view",
					"type": "function"
				}
			],
			"devdoc": {
				"author": "William, Junion, Austin",
				"kind": "dev",
				"methods": {
					"bid(uint256,uint256,uint256,uint16)": {
						"params": {
							"_amount": "Present Value of the bid amount",
							"_apr": "APR of the bid",
							"_ltv": "LTV of the loan. Default is 0 if liquidatable isn't turned on.",
							"_poolId": "Pool ID"
						}
					},
					"cancel(uint256)": {
						"params": {
							"_poolId": "pool ID"
						}
					},
					"changeWhitelist(uint256,address,bool)": {
						"params": {
							"_newAddress": "Address",
							"_poolId": "pool ID",
							"_status": "status. True = WL'd, False = Not WL'd"
						}
					},
					"launch(address,address,address,address,uint256,uint256,uint256,bool,bool)": {
						"params": {
							"_collectionAddress": ", address for the Wrapper NFT, although this could be literally any NFT",
							"_endTime": ", the endTime of the loan in blocks",
							"_liquidatable": ", if the loan can be liquidatable",
							"_nftId": ", nftId",
							"_operator": ", EOA or normal Contract. Can act on behalf of owner to rollover a loan. Set address(0) if not used",
							"_oracleAddress": ", address for the collection address asset. Default is ChainlinkOracle.sol Requires liquidatable = true",
							"_startTime": ", the startTime of the loan in blocks",
							"_token": ", base borrowable asset, only one per loan.",
							"_whitelisted": ", if the loan is whitelisted to only approved bidders"
						}
					},
					"liquidate(uint256)": {
						"params": {
							"_poolId": "pool ID"
						}
					},
					"liquidateEarly(uint256)": {
						"params": {
							"_poolId": "pool Id"
						}
					},
					"repay(uint256,uint256)": {
						"params": {
							"_amount": "amount to pay back",
							"_poolId": "pool ID"
						}
					},
					"setNewBidOwner(uint256,address)": {
						"params": {
							"_newAddress": "New owner of debt position",
							"_poolId": "Pool ID"
						}
					},
					"whitelistStatusUpdate(uint256,bool)": {
						"params": {
							"_poolId": "pool ID",
							"_whitelist": "status. True = Whitelist, False = no Whitelist"
						}
					}
				},
				"title": "LAN: unopinianated lending infrastructure for literally any nft",
				"version": 1
			},
			"evm": {
				"assembly": "    /* \"contracts/mainliquidations.sol\":386:12248  contract LAN {... */\n  mstore(0x40, 0x80)\n  callvalue\n  dup1\n  iszero\n  tag_1\n  jumpi\n  0x00\n  dup1\n  revert\ntag_1:\n  pop\n  dataSize(sub_0)\n  dup1\n  dataOffset(sub_0)\n  0x00\n  codecopy\n  0x00\n  return\nstop\n\nsub_0: assembly {\n        /* \"contracts/mainliquidations.sol\":386:12248  contract LAN {... */\n      mstore(0x40, 0x80)\n      callvalue\n      dup1\n      iszero\n      tag_1\n      jumpi\n      0x00\n      dup1\n      revert\n    tag_1:\n      pop\n      jumpi(tag_2, lt(calldatasize, 0x04))\n      shr(0xe0, calldataload(0x00))\n      dup1\n      0x7b3c4baa\n      gt\n      tag_17\n      jumpi\n      dup1\n      0xa23b02bd\n      gt\n      tag_18\n      jumpi\n      dup1\n      0xa23b02bd\n      eq\n      tag_13\n      jumpi\n      dup1\n      0xd8aed145\n      eq\n      tag_14\n      jumpi\n      dup1\n      0xe1ec3c68\n      eq\n      tag_15\n      jumpi\n      dup1\n      0xf724e48e\n      eq\n      tag_16\n      jumpi\n      jump(tag_2)\n    tag_18:\n      dup1\n      0x7b3c4baa\n      eq\n      tag_10\n      jumpi\n      dup1\n      0x89e257a3\n      eq\n      tag_11\n      jumpi\n      dup1\n      0x8f769f3a\n      eq\n      tag_12\n      jumpi\n      jump(tag_2)\n    tag_17:\n      dup1\n      0x222fdf21\n      gt\n      tag_19\n      jumpi\n      dup1\n      0x222fdf21\n      eq\n      tag_6\n      jumpi\n      dup1\n      0x40e58ee5\n      eq\n      tag_7\n      jumpi\n      dup1\n      0x415f1240\n      eq\n      tag_8\n      jumpi\n      dup1\n      0x7a4656d6\n      eq\n      tag_9\n      jumpi\n      jump(tag_2)\n    tag_19:\n      dup1\n      0x06661abd\n      eq\n      tag_3\n      jumpi\n      dup1\n      0x18de4f9d\n      eq\n      tag_4\n      jumpi\n      dup1\n      0x2168ed30\n      eq\n      tag_5\n      jumpi\n    tag_2:\n      0x00\n      dup1\n      revert\n        /* \"contracts/mainliquidations.sol\":660:680  uint256 public count */\n    tag_3:\n      tag_20\n      tag_21\n      jump\t// in\n    tag_20:\n      mload(0x40)\n      tag_22\n      swap2\n      swap1\n      tag_23\n      jump\t// in\n    tag_22:\n      mload(0x40)\n      dup1\n      swap2\n      sub\n      swap1\n      return\n        /* \"contracts/mainliquidations.sol\":10886:11271  function liquidateEarly(uint256 _poolId) external onlyOwner(_poolId) {... */\n    tag_4:\n      tag_24\n      0x04\n      dup1\n      calldatasize\n      sub\n      dup2\n      add\n      swap1\n      tag_25\n      swap2\n      swap1\n      tag_26\n      jump\t// in\n    tag_25:\n      tag_27\n      jump\t// in\n    tag_24:\n      stop\n        /* \"contracts/mainliquidations.sol\":5227:6656  function bid(... */\n    tag_5:\n      tag_28\n      0x04\n      dup1\n      calldatasize\n      sub\n      dup2\n      add\n      swap1\n      tag_29\n      swap2\n      swap1\n      tag_30\n      jump\t// in\n    tag_29:\n      tag_31\n      jump\t// in\n    tag_28:\n      stop\n        /* \"contracts/mainliquidations.sol\":7435:7638  function whitelistStatusUpdate(uint256 _poolId, bool _whitelist)... */\n    tag_6:\n      tag_32\n      0x04\n      dup1\n      calldatasize\n      sub\n      dup2\n      add\n      swap1\n      tag_33\n      swap2\n      swap1\n      tag_34\n      jump\t// in\n    tag_33:\n      tag_35\n      jump\t// in\n    tag_32:\n      stop\n        /* \"contracts/mainliquidations.sol\":8155:8399  function cancel(uint256 _poolId) external onlyOwner(_poolId) {... */\n    tag_7:\n      tag_36\n      0x04\n      dup1\n      calldatasize\n      sub\n      dup2\n      add\n      swap1\n      tag_37\n      swap2\n      swap1\n      tag_26\n      jump\t// in\n    tag_37:\n      tag_38\n      jump\t// in\n    tag_36:\n      stop\n        /* \"contracts/mainliquidations.sol\":9445:10044  function liquidate(uint256 _poolId) external {... */\n    tag_8:\n      tag_39\n      0x04\n      dup1\n      calldatasize\n      sub\n      dup2\n      add\n      swap1\n      tag_40\n      swap2\n      swap1\n      tag_26\n      jump\t// in\n    tag_40:\n      tag_41\n      jump\t// in\n    tag_39:\n      stop\n        /* \"contracts/mainliquidations.sol\":2701:2751  mapping(uint256 => uint256) public userPoolReserve */\n    tag_9:\n      tag_42\n      0x04\n      dup1\n      calldatasize\n      sub\n      dup2\n      add\n      swap1\n      tag_43\n      swap2\n      swap1\n      tag_26\n      jump\t// in\n    tag_43:\n      tag_44\n      jump\t// in\n    tag_42:\n      mload(0x40)\n      tag_45\n      swap2\n      swap1\n      tag_23\n      jump\t// in\n    tag_45:\n      mload(0x40)\n      dup1\n      swap2\n      sub\n      swap1\n      return\n        /* \"contracts/mainliquidations.sol\":2324:2379  mapping(uint256 => mapping(uint256 => Bid)) public bids */\n    tag_10:\n      tag_46\n      0x04\n      dup1\n      calldatasize\n      sub\n      dup2\n      add\n      swap1\n      tag_47\n      swap2\n      swap1\n      tag_48\n      jump\t// in\n    tag_47:\n      tag_49\n      jump\t// in\n    tag_46:\n      mload(0x40)\n      tag_50\n      swap6\n      swap5\n      swap4\n      swap3\n      swap2\n      swap1\n      tag_51\n      jump\t// in\n    tag_50:\n      mload(0x40)\n      dup1\n      swap2\n      sub\n      swap1\n      return\n        /* \"contracts/mainliquidations.sol\":3933:4960  function launch(... */\n    tag_11:\n      tag_52\n      0x04\n      dup1\n      calldatasize\n      sub\n      dup2\n      add\n      swap1\n      tag_53\n      swap2\n      swap1\n      tag_54\n      jump\t// in\n    tag_53:\n      tag_55\n      jump\t// in\n    tag_52:\n      stop\n        /* \"contracts/mainliquidations.sol\":6874:7284  function setNewBidOwner(uint256 _poolId, address _newAddress) external {... */\n    tag_12:\n      tag_56\n      0x04\n      dup1\n      calldatasize\n      sub\n      dup2\n      add\n      swap1\n      tag_57\n      swap2\n      swap1\n      tag_58\n      jump\t// in\n    tag_57:\n      tag_59\n      jump\t// in\n    tag_56:\n      stop\n        /* \"contracts/mainliquidations.sol\":2485:2557  mapping(uint256 => mapping(address => bool)) public whitelistedAddresses */\n    tag_13:\n      tag_60\n      0x04\n      dup1\n      calldatasize\n      sub\n      dup2\n      add\n      swap1\n      tag_61\n      swap2\n      swap1\n      tag_58\n      jump\t// in\n    tag_61:\n      tag_62\n      jump\t// in\n    tag_60:\n      mload(0x40)\n      tag_63\n      swap2\n      swap1\n      tag_64\n      jump\t// in\n    tag_63:\n      mload(0x40)\n      dup1\n      swap2\n      sub\n      swap1\n      return\n        /* \"contracts/mainliquidations.sol\":8570:9280  function repay(uint256 _poolId, uint256 _amount)... */\n    tag_14:\n      tag_65\n      0x04\n      dup1\n      calldatasize\n      sub\n      dup2\n      add\n      swap1\n      tag_66\n      swap2\n      swap1\n      tag_48\n      jump\t// in\n    tag_66:\n      tag_67\n      jump\t// in\n    tag_65:\n      stop\n        /* \"contracts/mainliquidations.sol\":2064:2101  mapping(uint256 => Loan) public loans */\n    tag_15:\n      tag_68\n      0x04\n      dup1\n      calldatasize\n      sub\n      dup2\n      add\n      swap1\n      tag_69\n      swap2\n      swap1\n      tag_26\n      jump\t// in\n    tag_69:\n      tag_70\n      jump\t// in\n    tag_68:\n      mload(0x40)\n      tag_71\n      swap13\n      swap12\n      swap11\n      swap10\n      swap9\n      swap8\n      swap7\n      swap6\n      swap5\n      swap4\n      swap3\n      swap2\n      swap1\n      tag_72\n      jump\t// in\n    tag_71:\n      mload(0x40)\n      dup1\n      swap2\n      sub\n      swap1\n      return\n        /* \"contracts/mainliquidations.sol\":7881:8066  function changeWhitelist(... */\n    tag_16:\n      tag_73\n      0x04\n      dup1\n      calldatasize\n      sub\n      dup2\n      add\n      swap1\n      tag_74\n      swap2\n      swap1\n      tag_75\n      jump\t// in\n    tag_74:\n      tag_76\n      jump\t// in\n    tag_73:\n      stop\n        /* \"contracts/mainliquidations.sol\":660:680  uint256 public count */\n    tag_21:\n      sload(0x00)\n      dup2\n      jump\t// out\n        /* \"contracts/mainliquidations.sol\":10886:11271  function liquidateEarly(uint256 _poolId) external onlyOwner(_poolId) {... */\n    tag_27:\n        /* \"contracts/mainliquidations.sol\":10946:10953  _poolId */\n      dup1\n        /* \"contracts/mainliquidations.sol\":3040:3050  msg.sender */\n      caller\n        /* \"contracts/mainliquidations.sol\":3016:3050  loans[_poolId].owner == msg.sender */\n      0xffffffffffffffffffffffffffffffffffffffff\n      and\n        /* \"contracts/mainliquidations.sol\":3016:3021  loans */\n      0x01\n        /* \"contracts/mainliquidations.sol\":3016:3030  loans[_poolId] */\n      0x00\n        /* \"contracts/mainliquidations.sol\":3022:3029  _poolId */\n      dup4\n        /* \"contracts/mainliquidations.sol\":3016:3030  loans[_poolId] */\n      dup2\n      mstore\n      0x20\n      add\n      swap1\n      dup2\n      mstore\n      0x20\n      add\n      0x00\n      keccak256\n        /* \"contracts/mainliquidations.sol\":3016:3036  loans[_poolId].owner */\n      0x00\n      add\n      0x00\n      swap1\n      sload\n      swap1\n      0x0100\n      exp\n      swap1\n      div\n      0xffffffffffffffffffffffffffffffffffffffff\n      and\n        /* \"contracts/mainliquidations.sol\":3016:3050  loans[_poolId].owner == msg.sender */\n      0xffffffffffffffffffffffffffffffffffffffff\n      and\n      eq\n        /* \"contracts/mainliquidations.sol\":3015:3110  (loans[_poolId].owner == msg.sender) ||... */\n      dup1\n      tag_78\n      jumpi\n      pop\n        /* \"contracts/mainliquidations.sol\":3099:3109  msg.sender */\n      caller\n        /* \"contracts/mainliquidations.sol\":3072:3109  loans[_poolId].operator == msg.sender */\n      0xffffffffffffffffffffffffffffffffffffffff\n      and\n        /* \"contracts/mainliquidations.sol\":3072:3077  loans */\n      0x01\n        /* \"contracts/mainliquidations.sol\":3072:3086  loans[_poolId] */\n      0x00\n        /* \"contracts/mainliquidations.sol\":3078:3085  _poolId */\n      dup4\n        /* \"contracts/mainliquidations.sol\":3072:3086  loans[_poolId] */\n      dup2\n      mstore\n      0x20\n      add\n      swap1\n      dup2\n      mstore\n      0x20\n      add\n      0x00\n      keccak256\n        /* \"contracts/mainliquidations.sol\":3072:3095  loans[_poolId].operator */\n      0x02\n      add\n      0x00\n      swap1\n      sload\n      swap1\n      0x0100\n      exp\n      swap1\n      div\n      0xffffffffffffffffffffffffffffffffffffffff\n      and\n        /* \"contracts/mainliquidations.sol\":3072:3109  loans[_poolId].operator == msg.sender */\n      0xffffffffffffffffffffffffffffffffffffffff\n      and\n      eq\n        /* \"contracts/mainliquidations.sol\":3015:3110  (loans[_poolId].owner == msg.sender) ||... */\n    tag_78:\n        /* \"contracts/mainliquidations.sol\":2994:3150  require(... */\n      tag_79\n      jumpi\n      mload(0x40)\n      0x08c379a000000000000000000000000000000000000000000000000000000000\n      dup2\n      mstore\n      0x04\n      add\n      tag_80\n      swap1\n      tag_81\n      jump\t// in\n    tag_80:\n      mload(0x40)\n      dup1\n      swap2\n      sub\n      swap1\n      revert\n    tag_79:\n        /* \"contracts/mainliquidations.sol\":10965:10981  Loan memory loan */\n      0x00\n        /* \"contracts/mainliquidations.sol\":10984:10989  loans */\n      0x01\n        /* \"contracts/mainliquidations.sol\":10984:10998  loans[_poolId] */\n      0x00\n        /* \"contracts/mainliquidations.sol\":10990:10997  _poolId */\n      dup5\n        /* \"contracts/mainliquidations.sol\":10984:10998  loans[_poolId] */\n      dup2\n      mstore\n      0x20\n      add\n      swap1\n      dup2\n      mstore\n      0x20\n      add\n      0x00\n      keccak256\n        /* \"contracts/mainliquidations.sol\":10965:10998  Loan memory loan = loans[_poolId] */\n      mload(0x40)\n      dup1\n      0x0180\n      add\n      0x40\n      mstore\n      swap1\n      dup2\n      0x00\n      dup3\n      add\n      0x00\n      swap1\n      sload\n      swap1\n      0x0100\n      exp\n      swap1\n      div\n      0xffffffffffffffffffffffffffffffffffffffff\n      and\n      0xffffffffffffffffffffffffffffffffffffffff\n      and\n      0xffffffffffffffffffffffffffffffffffffffff\n      and\n      dup2\n      mstore\n      0x20\n      add\n      0x01\n      dup3\n      add\n      0x00\n      swap1\n      sload\n      swap1\n      0x0100\n      exp\n      swap1\n      div\n      0xffffffffffffffffffffffffffffffffffffffff\n      and\n      0xffffffffffffffffffffffffffffffffffffffff\n      and\n      0xffffffffffffffffffffffffffffffffffffffff\n      and\n      dup2\n      mstore\n      0x20\n      add\n      0x02\n      dup3\n      add\n      0x00\n      swap1\n      sload\n      swap1\n      0x0100\n      exp\n      swap1\n      div\n      0xffffffffffffffffffffffffffffffffffffffff\n      and\n      0xffffffffffffffffffffffffffffffffffffffff\n      and\n      0xffffffffffffffffffffffffffffffffffffffff\n      and\n      dup2\n      mstore\n      0x20\n      add\n      0x03\n      dup3\n      add\n      0x00\n      swap1\n      sload\n      swap1\n      0x0100\n      exp\n      swap1\n      div\n      0xffffffffffffffffffffffffffffffffffffffff\n      and\n      0xffffffffffffffffffffffffffffffffffffffff\n      and\n      0xffffffffffffffffffffffffffffffffffffffff\n      and\n      dup2\n      mstore\n      0x20\n      add\n      0x04\n      dup3\n      add\n      0x00\n      swap1\n      sload\n      swap1\n      0x0100\n      exp\n      swap1\n      div\n      0xffffffffffffffffffffffffffffffffffffffff\n      and\n      0xffffffffffffffffffffffffffffffffffffffff\n      and\n      0xffffffffffffffffffffffffffffffffffffffff\n      and\n      dup2\n      mstore\n      0x20\n      add\n      0x05\n      dup3\n      add\n      sload\n      dup2\n      mstore\n      0x20\n      add\n      0x06\n      dup3\n      add\n      sload\n      dup2\n      mstore\n      0x20\n      add\n      0x07\n      dup3\n      add\n      sload\n      dup2\n      mstore\n      0x20\n      add\n      0x08\n      dup3\n      add\n      sload\n      dup2\n      mstore\n      0x20\n      add\n      0x09\n      dup3\n      add\n      sload\n      dup2\n      mstore\n      0x20\n      add\n      0x0a\n      dup3\n      add\n      0x00\n      swap1\n      sload\n      swap1\n      0x0100\n      exp\n      swap1\n      div\n      0xff\n      and\n      iszero\n      iszero\n      iszero\n      iszero\n      dup2\n      mstore\n      0x20\n      add\n      0x0a\n      dup3\n      add\n      0x01\n      swap1\n      sload\n      swap1\n      0x0100\n      exp\n      swap1\n      div\n      0xff\n      and\n      iszero\n      iszero\n      iszero\n      iszero\n      dup2\n      mstore\n      pop\n      pop\n      swap1\n      pop\n        /* \"contracts/mainliquidations.sol\":11008:11028  Bid memory latestBid */\n      0x00\n        /* \"contracts/mainliquidations.sol\":11031:11035  bids */\n      0x02\n        /* \"contracts/mainliquidations.sol\":11031:11044  bids[_poolId] */\n      0x00\n        /* \"contracts/mainliquidations.sol\":11036:11043  _poolId */\n      dup6\n        /* \"contracts/mainliquidations.sol\":11031:11044  bids[_poolId] */\n      dup2\n      mstore\n      0x20\n      add\n      swap1\n      dup2\n      mstore\n      0x20\n      add\n      0x00\n      keccak256\n        /* \"contracts/mainliquidations.sol\":11031:11058  bids[_poolId][loan.numBids] */\n      0x00\n        /* \"contracts/mainliquidations.sol\":11045:11049  loan */\n      dup4\n        /* \"contracts/mainliquidations.sol\":11045:11057  loan.numBids */\n      0x0120\n      add\n      mload\n        /* \"contracts/mainliquidations.sol\":11031:11058  bids[_poolId][loan.numBids] */\n      dup2\n      mstore\n      0x20\n      add\n      swap1\n      dup2\n      mstore\n      0x20\n      add\n      0x00\n      keccak256\n        /* \"contracts/mainliquidations.sol\":11008:11058  Bid memory latestBid = bids[_poolId][loan.numBids] */\n      mload(0x40)\n      dup1\n      0xa0\n      add\n      0x40\n      mstore\n      swap1\n      dup2\n      0x00\n      dup3\n      add\n      sload\n      dup2\n      mstore\n      0x20\n      add\n      0x01\n      dup3\n      add\n      sload\n      dup2\n      mstore\n      0x20\n      add\n      0x02\n      dup3\n      add\n      0x00\n      swap1\n      sload\n      swap1\n      0x0100\n      exp\n      swap1\n      div\n      0xffffffffffffffffffffffffffffffffffffffff\n      and\n      0xffffffffffffffffffffffffffffffffffffffff\n      and\n      0xffffffffffffffffffffffffffffffffffffffff\n      and\n      dup2\n      mstore\n      0x20\n      add\n      0x03\n      dup3\n      add\n      sload\n      dup2\n      mstore\n      0x20\n      add\n      0x04\n      dup3\n      add\n      0x00\n      swap1\n      sload\n      swap1\n      0x0100\n      exp\n      swap1\n      div\n      0xffff\n      and\n      0xffff\n      and\n      0xffff\n      and\n      dup2\n      mstore\n      pop\n      pop\n      swap1\n      pop\n        /* \"contracts/mainliquidations.sol\":11092:11103  IERC721 NFT */\n      0x00\n        /* \"contracts/mainliquidations.sol\":11114:11118  loan */\n      dup3\n        /* \"contracts/mainliquidations.sol\":11114:11136  loan.collectionAddress */\n      0x80\n      add\n      mload\n        /* \"contracts/mainliquidations.sol\":11092:11137  IERC721 NFT = IERC721(loan.collectionAddress) */\n      swap1\n      pop\n        /* \"contracts/mainliquidations.sol\":11147:11150  NFT */\n      dup1\n        /* \"contracts/mainliquidations.sol\":11147:11167  NFT.safeTransferFrom */\n      0xffffffffffffffffffffffffffffffffffffffff\n      and\n      0x42842e0e\n        /* \"contracts/mainliquidations.sol\":11176:11180  this */\n      address\n        /* \"contracts/mainliquidations.sol\":11183:11192  latestBid */\n      dup5\n        /* \"contracts/mainliquidations.sol\":11183:11197  latestBid.user */\n      0x40\n      add\n      mload\n        /* \"contracts/mainliquidations.sol\":11199:11203  loan */\n      dup7\n        /* \"contracts/mainliquidations.sol\":11199:11209  loan.nftId */\n      0xc0\n      add\n      mload\n        /* \"contracts/mainliquidations.sol\":11147:11210  NFT.safeTransferFrom(address(this), latestBid.user, loan.nftId) */\n      mload(0x40)\n      dup5\n      0xffffffff\n      and\n      0xe0\n      shl\n      dup2\n      mstore\n      0x04\n      add\n      tag_83\n      swap4\n      swap3\n      swap2\n      swap1\n      tag_84\n      jump\t// in\n    tag_83:\n      0x00\n      mload(0x40)\n      dup1\n      dup4\n      sub\n      dup2\n      0x00\n      dup8\n      dup1\n      extcodesize\n      iszero\n      dup1\n      iszero\n      tag_85\n      jumpi\n      0x00\n      dup1\n      revert\n    tag_85:\n      pop\n      gas\n      call\n      iszero\n      dup1\n      iszero\n      tag_87\n      jumpi\n      returndatasize\n      0x00\n      dup1\n      returndatacopy\n      revert(0x00, returndatasize)\n    tag_87:\n      pop\n      pop\n      pop\n      pop\n        /* \"contracts/mainliquidations.sol\":11225:11243  loanEnded(_poolId) */\n      0xcf3eafc70e544bbb0b7b916314be01382e9819ef1dea730bd182222030ffe4a9\n        /* \"contracts/mainliquidations.sol\":11235:11242  _poolId */\n      dup6\n        /* \"contracts/mainliquidations.sol\":11225:11243  loanEnded(_poolId) */\n      mload(0x40)\n      tag_88\n      swap2\n      swap1\n      tag_23\n      jump\t// in\n    tag_88:\n      mload(0x40)\n      dup1\n      swap2\n      sub\n      swap1\n      log1\n        /* \"contracts/mainliquidations.sol\":11253:11264  delete loan */\n      tag_89\n      tag_90\n      jump\t// in\n    tag_89:\n      swap3\n      pop\n        /* \"contracts/mainliquidations.sol\":10955:11271  {... */\n      pop\n      pop\n      pop\n        /* \"contracts/mainliquidations.sol\":10886:11271  function liquidateEarly(uint256 _poolId) external onlyOwner(_poolId) {... */\n      pop\n      pop\n      jump\t// out\n        /* \"contracts/mainliquidations.sol\":5227:6656  function bid(... */\n    tag_31:\n        /* \"contracts/mainliquidations.sol\":5366:5383  _started(_poolId) */\n      tag_92\n        /* \"contracts/mainliquidations.sol\":5375:5382  _poolId */\n      dup5\n        /* \"contracts/mainliquidations.sol\":5366:5374  _started */\n      tag_93\n        /* \"contracts/mainliquidations.sol\":5366:5383  _started(_poolId) */\n      jump\t// in\n    tag_92:\n        /* \"contracts/mainliquidations.sol\":5358:5404  require(_started(_poolId), \"LAN: not started\") */\n      tag_94\n      jumpi\n      mload(0x40)\n      0x08c379a000000000000000000000000000000000000000000000000000000000\n      dup2\n      mstore\n      0x04\n      add\n      tag_95\n      swap1\n      tag_96\n      jump\t// in\n    tag_95:\n      mload(0x40)\n      dup1\n      swap2\n      sub\n      swap1\n      revert\n    tag_94:\n        /* \"contracts/mainliquidations.sol\":5423:5438  _ended(_poolId) */\n      tag_97\n        /* \"contracts/mainliquidations.sol\":5430:5437  _poolId */\n      dup5\n        /* \"contracts/mainliquidations.sol\":5423:5429  _ended */\n      tag_98\n        /* \"contracts/mainliquidations.sol\":5423:5438  _ended(_poolId) */\n      jump\t// in\n    tag_97:\n        /* \"contracts/mainliquidations.sol\":5422:5438  !_ended(_poolId) */\n      iszero\n        /* \"contracts/mainliquidations.sol\":5414:5461  require(!_ended(_poolId), \"LAN: already ended\") */\n      tag_99\n      jumpi\n      mload(0x40)\n      0x08c379a000000000000000000000000000000000000000000000000000000000\n      dup2\n      mstore\n      0x04\n      add\n      tag_100\n      swap1\n      tag_101\n      jump\t// in\n    tag_100:\n      mload(0x40)\n      dup1\n      swap2\n      sub\n      swap1\n      revert\n    tag_99:\n        /* \"contracts/mainliquidations.sol\":5471:5488  Loan storage loan */\n      0x00\n        /* \"contracts/mainliquidations.sol\":5491:5496  loans */\n      0x01\n        /* \"contracts/mainliquidations.sol\":5491:5505  loans[_poolId] */\n      0x00\n        /* \"contracts/mainliquidations.sol\":5497:5504  _poolId */\n      dup7\n        /* \"contracts/mainliquidations.sol\":5491:5505  loans[_poolId] */\n      dup2\n      mstore\n      0x20\n      add\n      swap1\n      dup2\n      mstore\n      0x20\n      add\n      0x00\n      keccak256\n        /* \"contracts/mainliquidations.sol\":5471:5505  Loan storage loan = loans[_poolId] */\n      swap1\n      pop\n        /* \"contracts/mainliquidations.sol\":5613:5617  loan */\n      dup1\n        /* \"contracts/mainliquidations.sol\":5613:5629  loan.whitelisted */\n      0x0a\n      add\n      0x01\n      swap1\n      sload\n      swap1\n      0x0100\n      exp\n      swap1\n      div\n      0xff\n      and\n        /* \"contracts/mainliquidations.sol\":5612:5693  (loan.whitelisted) &&... */\n      dup1\n      iszero\n      tag_102\n      jumpi\n      pop\n        /* \"contracts/mainliquidations.sol\":5651:5671  whitelistedAddresses */\n      0x03\n        /* \"contracts/mainliquidations.sol\":5651:5680  whitelistedAddresses[_poolId] */\n      0x00\n        /* \"contracts/mainliquidations.sol\":5672:5679  _poolId */\n      dup7\n        /* \"contracts/mainliquidations.sol\":5651:5680  whitelistedAddresses[_poolId] */\n      dup2\n      mstore\n      0x20\n      add\n      swap1\n      dup2\n      mstore\n      0x20\n      add\n      0x00\n      keccak256\n        /* \"contracts/mainliquidations.sol\":5651:5692  whitelistedAddresses[_poolId][msg.sender] */\n      0x00\n        /* \"contracts/mainliquidations.sol\":5681:5691  msg.sender */\n      caller\n        /* \"contracts/mainliquidations.sol\":5651:5692  whitelistedAddresses[_poolId][msg.sender] */\n      0xffffffffffffffffffffffffffffffffffffffff\n      and\n      0xffffffffffffffffffffffffffffffffffffffff\n      and\n      dup2\n      mstore\n      0x20\n      add\n      swap1\n      dup2\n      mstore\n      0x20\n      add\n      0x00\n      keccak256\n      0x00\n      swap1\n      sload\n      swap1\n      0x0100\n      exp\n      swap1\n      div\n      0xff\n      and\n        /* \"contracts/mainliquidations.sol\":5612:5693  (loan.whitelisted) &&... */\n    tag_102:\n        /* \"contracts/mainliquidations.sol\":5611:5741  ((loan.whitelisted) &&... */\n      dup1\n      tag_103\n      jumpi\n      pop\n        /* \"contracts/mainliquidations.sol\":5735:5740  false */\n      0x00\n        /* \"contracts/mainliquidations.sol\":5715:5740  loan.whitelisted == false */\n      iszero\n      iszero\n        /* \"contracts/mainliquidations.sol\":5715:5719  loan */\n      dup2\n        /* \"contracts/mainliquidations.sol\":5715:5731  loan.whitelisted */\n      0x0a\n      add\n      0x01\n      swap1\n      sload\n      swap1\n      0x0100\n      exp\n      swap1\n      div\n      0xff\n      and\n        /* \"contracts/mainliquidations.sol\":5715:5740  loan.whitelisted == false */\n      iszero\n      iszero\n      eq\n        /* \"contracts/mainliquidations.sol\":5611:5741  ((loan.whitelisted) &&... */\n    tag_103:\n        /* \"contracts/mainliquidations.sol\":5590:5787  require(... */\n      tag_104\n      jumpi\n      mload(0x40)\n      0x08c379a000000000000000000000000000000000000000000000000000000000\n      dup2\n      mstore\n      0x04\n      add\n      tag_105\n      swap1\n      tag_106\n      jump\t// in\n    tag_105:\n      mload(0x40)\n      dup1\n      swap2\n      sub\n      swap1\n      revert\n    tag_104:\n        /* \"contracts/mainliquidations.sol\":5875:5892  uint256 loanValue */\n      0x00\n        /* \"contracts/mainliquidations.sol\":5895:5923  _calculateLoanValue(_poolId) */\n      tag_107\n        /* \"contracts/mainliquidations.sol\":5915:5922  _poolId */\n      dup7\n        /* \"contracts/mainliquidations.sol\":5895:5914  _calculateLoanValue */\n      tag_108\n        /* \"contracts/mainliquidations.sol\":5895:5923  _calculateLoanValue(_poolId) */\n      jump\t// in\n    tag_107:\n        /* \"contracts/mainliquidations.sol\":5875:5923  uint256 loanValue = _calculateLoanValue(_poolId) */\n      swap1\n      pop\n        /* \"contracts/mainliquidations.sol\":5951:5960  loanValue */\n      dup1\n        /* \"contracts/mainliquidations.sol\":5941:5948  _amount */\n      dup6\n        /* \"contracts/mainliquidations.sol\":5941:5960  _amount > loanValue */\n      gt\n        /* \"contracts/mainliquidations.sol\":5933:5984  require(_amount > loanValue, \"LAN: bid not higher\") */\n      tag_109\n      jumpi\n      mload(0x40)\n      0x08c379a000000000000000000000000000000000000000000000000000000000\n      dup2\n      mstore\n      0x04\n      add\n      tag_110\n      swap1\n      tag_111\n      jump\t// in\n    tag_110:\n      mload(0x40)\n      dup1\n      swap2\n      sub\n      swap1\n      revert\n    tag_109:\n        /* \"contracts/mainliquidations.sol\":5994:6011  Bid memory newBid */\n      0x00\n        /* \"contracts/mainliquidations.sol\":6014:6175  Bid({... */\n      mload(0x40)\n      dup1\n      0xa0\n      add\n      0x40\n      mstore\n      dup1\n        /* \"contracts/mainliquidations.sol\":6041:6056  block.timestamp */\n      timestamp\n        /* \"contracts/mainliquidations.sol\":6014:6175  Bid({... */\n      dup2\n      mstore\n      0x20\n      add\n        /* \"contracts/mainliquidations.sol\":6081:6088  _amount */\n      dup8\n        /* \"contracts/mainliquidations.sol\":6014:6175  Bid({... */\n      dup2\n      mstore\n      0x20\n      add\n        /* \"contracts/mainliquidations.sol\":6108:6118  msg.sender */\n      caller\n        /* \"contracts/mainliquidations.sol\":6014:6175  Bid({... */\n      0xffffffffffffffffffffffffffffffffffffffff\n      and\n      dup2\n      mstore\n      0x20\n      add\n        /* \"contracts/mainliquidations.sol\":6137:6141  _apr */\n      dup7\n        /* \"contracts/mainliquidations.sol\":6014:6175  Bid({... */\n      dup2\n      mstore\n      0x20\n      add\n        /* \"contracts/mainliquidations.sol\":6160:6164  _ltv */\n      dup6\n        /* \"contracts/mainliquidations.sol\":6014:6175  Bid({... */\n      0xffff\n      and\n      dup2\n      mstore\n      pop\n        /* \"contracts/mainliquidations.sol\":5994:6175  Bid memory newBid = Bid({... */\n      swap1\n      pop\n        /* \"contracts/mainliquidations.sol\":6271:6277  newBid */\n      dup1\n        /* \"contracts/mainliquidations.sol\":6241:6245  bids */\n      0x02\n        /* \"contracts/mainliquidations.sol\":6241:6254  bids[_poolId] */\n      0x00\n        /* \"contracts/mainliquidations.sol\":6246:6253  _poolId */\n      dup10\n        /* \"contracts/mainliquidations.sol\":6241:6254  bids[_poolId] */\n      dup2\n      mstore\n      0x20\n      add\n      swap1\n      dup2\n      mstore\n      0x20\n      add\n      0x00\n      keccak256\n        /* \"contracts/mainliquidations.sol\":6241:6268  bids[_poolId][loan.numBids] */\n      0x00\n        /* \"contracts/mainliquidations.sol\":6255:6259  loan */\n      dup6\n        /* \"contracts/mainliquidations.sol\":6255:6267  loan.numBids */\n      0x09\n      add\n      sload\n        /* \"contracts/mainliquidations.sol\":6241:6268  bids[_poolId][loan.numBids] */\n      dup2\n      mstore\n      0x20\n      add\n      swap1\n      dup2\n      mstore\n      0x20\n      add\n      0x00\n      keccak256\n        /* \"contracts/mainliquidations.sol\":6241:6277  bids[_poolId][loan.numBids] = newBid */\n      0x00\n      dup3\n      add\n      mload\n      dup2\n      0x00\n      add\n      sstore\n      0x20\n      dup3\n      add\n      mload\n      dup2\n      0x01\n      add\n      sstore\n      0x40\n      dup3\n      add\n      mload\n      dup2\n      0x02\n      add\n      exp(0x0100, 0x00)\n      dup2\n      sload\n      dup2\n      0xffffffffffffffffffffffffffffffffffffffff\n      mul\n      not\n      and\n      swap1\n      dup4\n      0xffffffffffffffffffffffffffffffffffffffff\n      and\n      mul\n      or\n      swap1\n      sstore\n      pop\n      0x60\n      dup3\n      add\n      mload\n      dup2\n      0x03\n      add\n      sstore\n      0x80\n      dup3\n      add\n      mload\n      dup2\n      0x04\n      add\n      exp(0x0100, 0x00)\n      dup2\n      sload\n      dup2\n      0xffff\n      mul\n      not\n      and\n      swap1\n      dup4\n      0xffff\n      and\n      mul\n      or\n      swap1\n      sstore\n      pop\n      swap1\n      pop\n      pop\n        /* \"contracts/mainliquidations.sol\":6298:6302  _apr */\n      dup5\n        /* \"contracts/mainliquidations.sol\":6287:6291  loan */\n      dup4\n        /* \"contracts/mainliquidations.sol\":6287:6295  loan.apr */\n      0x05\n      add\n        /* \"contracts/mainliquidations.sol\":6287:6302  loan.apr = _apr */\n      dup2\n      swap1\n      sstore\n      pop\n        /* \"contracts/mainliquidations.sol\":6312:6327  uint256 numBids */\n      0x00\n        /* \"contracts/mainliquidations.sol\":6345:6346  1 */\n      0x01\n        /* \"contracts/mainliquidations.sol\":6330:6334  loan */\n      dup5\n        /* \"contracts/mainliquidations.sol\":6330:6342  loan.numBids */\n      0x09\n      add\n      sload\n        /* \"contracts/mainliquidations.sol\":6330:6346  loan.numBids + 1 */\n      tag_112\n      swap2\n      swap1\n      tag_113\n      jump\t// in\n    tag_112:\n        /* \"contracts/mainliquidations.sol\":6312:6346  uint256 numBids = loan.numBids + 1 */\n      swap1\n      pop\n        /* \"contracts/mainliquidations.sol\":6371:6378  numBids */\n      dup1\n        /* \"contracts/mainliquidations.sol\":6356:6360  loan */\n      dup5\n        /* \"contracts/mainliquidations.sol\":6356:6368  loan.numBids */\n      0x09\n      add\n        /* \"contracts/mainliquidations.sol\":6356:6378  loan.numBids = numBids */\n      dup2\n      swap1\n      sstore\n      pop\n        /* \"contracts/mainliquidations.sol\":6395:6399  loan */\n      dup4\n        /* \"contracts/mainliquidations.sol\":6395:6405  loan.token */\n      0x01\n      add\n      0x00\n      swap1\n      sload\n      swap1\n      0x0100\n      exp\n      swap1\n      div\n      0xffffffffffffffffffffffffffffffffffffffff\n      and\n        /* \"contracts/mainliquidations.sol\":6388:6419  IERC20(loan.token).transferFrom */\n      0xffffffffffffffffffffffffffffffffffffffff\n      and\n      0x23b872dd\n        /* \"contracts/mainliquidations.sol\":6433:6443  msg.sender */\n      caller\n        /* \"contracts/mainliquidations.sol\":6457:6461  bids */\n      0x02\n        /* \"contracts/mainliquidations.sol\":6457:6470  bids[_poolId] */\n      0x00\n        /* \"contracts/mainliquidations.sol\":6462:6469  _poolId */\n      dup13\n        /* \"contracts/mainliquidations.sol\":6457:6470  bids[_poolId] */\n      dup2\n      mstore\n      0x20\n      add\n      swap1\n      dup2\n      mstore\n      0x20\n      add\n      0x00\n      keccak256\n        /* \"contracts/mainliquidations.sol\":6457:6479  bids[_poolId][numBids] */\n      0x00\n        /* \"contracts/mainliquidations.sol\":6471:6478  numBids */\n      dup6\n        /* \"contracts/mainliquidations.sol\":6457:6479  bids[_poolId][numBids] */\n      dup2\n      mstore\n      0x20\n      add\n      swap1\n      dup2\n      mstore\n      0x20\n      add\n      0x00\n      keccak256\n        /* \"contracts/mainliquidations.sol\":6457:6484  bids[_poolId][numBids].user */\n      0x02\n      add\n      0x00\n      swap1\n      sload\n      swap1\n      0x0100\n      exp\n      swap1\n      div\n      0xffffffffffffffffffffffffffffffffffffffff\n      and\n        /* \"contracts/mainliquidations.sol\":6498:6507  loanValue */\n      dup7\n        /* \"contracts/mainliquidations.sol\":6388:6517  IERC20(loan.token).transferFrom(... */\n      mload(0x40)\n      dup5\n      0xffffffff\n      and\n      0xe0\n      shl\n      dup2\n      mstore\n      0x04\n      add\n      tag_114\n      swap4\n      swap3\n      swap2\n      swap1\n      tag_84\n      jump\t// in\n    tag_114:\n      0x20\n      mload(0x40)\n      dup1\n      dup4\n      sub\n      dup2\n      0x00\n      dup8\n      gas\n      call\n      iszero\n      dup1\n      iszero\n      tag_116\n      jumpi\n      returndatasize\n      0x00\n      dup1\n      returndatacopy\n      revert(0x00, returndatasize)\n    tag_116:\n      pop\n      pop\n      pop\n      pop\n      mload(0x40)\n      returndatasize\n      not(0x1f)\n      0x1f\n      dup3\n      add\n      and\n      dup3\n      add\n      dup1\n      0x40\n      mstore\n      pop\n      dup2\n      add\n      swap1\n      tag_117\n      swap2\n      swap1\n      tag_118\n      jump\t// in\n    tag_117:\n      pop\n        /* \"contracts/mainliquidations.sol\":6534:6538  loan */\n      dup4\n        /* \"contracts/mainliquidations.sol\":6534:6544  loan.token */\n      0x01\n      add\n      0x00\n      swap1\n      sload\n      swap1\n      0x0100\n      exp\n      swap1\n      div\n      0xffffffffffffffffffffffffffffffffffffffff\n      and\n        /* \"contracts/mainliquidations.sol\":6527:6558  IERC20(loan.token).transferFrom */\n      0xffffffffffffffffffffffffffffffffffffffff\n      and\n      0x23b872dd\n        /* \"contracts/mainliquidations.sol\":6572:6582  msg.sender */\n      caller\n        /* \"contracts/mainliquidations.sol\":6596:6600  loan */\n      dup7\n        /* \"contracts/mainliquidations.sol\":6596:6606  loan.owner */\n      0x00\n      add\n      0x00\n      swap1\n      sload\n      swap1\n      0x0100\n      exp\n      swap1\n      div\n      0xffffffffffffffffffffffffffffffffffffffff\n      and\n        /* \"contracts/mainliquidations.sol\":6630:6639  loanValue */\n      dup7\n        /* \"contracts/mainliquidations.sol\":6620:6627  _amount */\n      dup12\n        /* \"contracts/mainliquidations.sol\":6620:6639  _amount - loanValue */\n      tag_119\n      swap2\n      swap1\n      tag_120\n      jump\t// in\n    tag_119:\n        /* \"contracts/mainliquidations.sol\":6527:6649  IERC20(loan.token).transferFrom(... */\n      mload(0x40)\n      dup5\n      0xffffffff\n      and\n      0xe0\n      shl\n      dup2\n      mstore\n      0x04\n      add\n      tag_121\n      swap4\n      swap3\n      swap2\n      swap1\n      tag_84\n      jump\t// in\n    tag_121:\n      0x20\n      mload(0x40)\n      dup1\n      dup4\n      sub\n      dup2\n      0x00\n      dup8\n      gas\n      call\n      iszero\n      dup1\n      iszero\n      tag_123\n      jumpi\n      returndatasize\n      0x00\n      dup1\n      returndatacopy\n      revert(0x00, returndatasize)\n    tag_123:\n      pop\n      pop\n      pop\n      pop\n      mload(0x40)\n      returndatasize\n      not(0x1f)\n      0x1f\n      dup3\n      add\n      and\n      dup3\n      add\n      dup1\n      0x40\n      mstore\n      pop\n      dup2\n      add\n      swap1\n      tag_124\n      swap2\n      swap1\n      tag_118\n      jump\t// in\n    tag_124:\n      pop\n        /* \"contracts/mainliquidations.sol\":5348:6656  {... */\n      pop\n      pop\n      pop\n      pop\n        /* \"contracts/mainliquidations.sol\":5227:6656  function bid(... */\n      pop\n      pop\n      pop\n      pop\n      jump\t// out\n        /* \"contracts/mainliquidations.sol\":7435:7638  function whitelistStatusUpdate(uint256 _poolId, bool _whitelist)... */\n    tag_35:\n        /* \"contracts/mainliquidations.sol\":7535:7542  _poolId */\n      dup2\n        /* \"contracts/mainliquidations.sol\":3040:3050  msg.sender */\n      caller\n        /* \"contracts/mainliquidations.sol\":3016:3050  loans[_poolId].owner == msg.sender */\n      0xffffffffffffffffffffffffffffffffffffffff\n      and\n        /* \"contracts/mainliquidations.sol\":3016:3021  loans */\n      0x01\n        /* \"contracts/mainliquidations.sol\":3016:3030  loans[_poolId] */\n      0x00\n        /* \"contracts/mainliquidations.sol\":3022:3029  _poolId */\n      dup4\n        /* \"contracts/mainliquidations.sol\":3016:3030  loans[_poolId] */\n      dup2\n      mstore\n      0x20\n      add\n      swap1\n      dup2\n      mstore\n      0x20\n      add\n      0x00\n      keccak256\n        /* \"contracts/mainliquidations.sol\":3016:3036  loans[_poolId].owner */\n      0x00\n      add\n      0x00\n      swap1\n      sload\n      swap1\n      0x0100\n      exp\n      swap1\n      div\n      0xffffffffffffffffffffffffffffffffffffffff\n      and\n        /* \"contracts/mainliquidations.sol\":3016:3050  loans[_poolId].owner == msg.sender */\n      0xffffffffffffffffffffffffffffffffffffffff\n      and\n      eq\n        /* \"contracts/mainliquidations.sol\":3015:3110  (loans[_poolId].owner == msg.sender) ||... */\n      dup1\n      tag_126\n      jumpi\n      pop\n        /* \"contracts/mainliquidations.sol\":3099:3109  msg.sender */\n      caller\n        /* \"contracts/mainliquidations.sol\":3072:3109  loans[_poolId].operator == msg.sender */\n      0xffffffffffffffffffffffffffffffffffffffff\n      and\n        /* \"contracts/mainliquidations.sol\":3072:3077  loans */\n      0x01\n        /* \"contracts/mainliquidations.sol\":3072:3086  loans[_poolId] */\n      0x00\n        /* \"contracts/mainliquidations.sol\":3078:3085  _poolId */\n      dup4\n        /* \"contracts/mainliquidations.sol\":3072:3086  loans[_poolId] */\n      dup2\n      mstore\n      0x20\n      add\n      swap1\n      dup2\n      mstore\n      0x20\n      add\n      0x00\n      keccak256\n        /* \"contracts/mainliquidations.sol\":3072:3095  loans[_poolId].operator */\n      0x02\n      add\n      0x00\n      swap1\n      sload\n      swap1\n      0x0100\n      exp\n      swap1\n      div\n      0xffffffffffffffffffffffffffffffffffffffff\n      and\n        /* \"contracts/mainliquidations.sol\":3072:3109  loans[_poolId].operator == msg.sender */\n      0xffffffffffffffffffffffffffffffffffffffff\n      and\n      eq\n        /* \"contracts/mainliquidations.sol\":3015:3110  (loans[_poolId].owner == msg.sender) ||... */\n    tag_126:\n        /* \"contracts/mainliquidations.sol\":2994:3150  require(... */\n      tag_127\n      jumpi\n      mload(0x40)\n      0x08c379a000000000000000000000000000000000000000000000000000000000\n      dup2\n      mstore\n      0x04\n      add\n      tag_128\n      swap1\n      tag_81\n      jump\t// in\n    tag_128:\n      mload(0x40)\n      dup1\n      swap2\n      sub\n      swap1\n      revert\n    tag_127:\n        /* \"contracts/mainliquidations.sol\":7558:7575  Loan storage loan */\n      0x00\n        /* \"contracts/mainliquidations.sol\":7578:7583  loans */\n      0x01\n        /* \"contracts/mainliquidations.sol\":7578:7592  loans[_poolId] */\n      0x00\n        /* \"contracts/mainliquidations.sol\":7584:7591  _poolId */\n      dup6\n        /* \"contracts/mainliquidations.sol\":7578:7592  loans[_poolId] */\n      dup2\n      mstore\n      0x20\n      add\n      swap1\n      dup2\n      mstore\n      0x20\n      add\n      0x00\n      keccak256\n        /* \"contracts/mainliquidations.sol\":7558:7592  Loan storage loan = loans[_poolId] */\n      swap1\n      pop\n        /* \"contracts/mainliquidations.sol\":7621:7631  _whitelist */\n      dup3\n        /* \"contracts/mainliquidations.sol\":7602:7606  loan */\n      dup2\n        /* \"contracts/mainliquidations.sol\":7602:7618  loan.whitelisted */\n      0x0a\n      add\n      0x01\n        /* \"contracts/mainliquidations.sol\":7602:7631  loan.whitelisted = _whitelist */\n      0x0100\n      exp\n      dup2\n      sload\n      dup2\n      0xff\n      mul\n      not\n      and\n      swap1\n      dup4\n      iszero\n      iszero\n      mul\n      or\n      swap1\n      sstore\n      pop\n        /* \"contracts/mainliquidations.sol\":7548:7638  {... */\n      pop\n        /* \"contracts/mainliquidations.sol\":7435:7638  function whitelistStatusUpdate(uint256 _poolId, bool _whitelist)... */\n      pop\n      pop\n      pop\n      jump\t// out\n        /* \"contracts/mainliquidations.sol\":8155:8399  function cancel(uint256 _poolId) external onlyOwner(_poolId) {... */\n    tag_38:\n        /* \"contracts/mainliquidations.sol\":8207:8214  _poolId */\n      dup1\n        /* \"contracts/mainliquidations.sol\":3040:3050  msg.sender */\n      caller\n        /* \"contracts/mainliquidations.sol\":3016:3050  loans[_poolId].owner == msg.sender */\n      0xffffffffffffffffffffffffffffffffffffffff\n      and\n        /* \"contracts/mainliquidations.sol\":3016:3021  loans */\n      0x01\n        /* \"contracts/mainliquidations.sol\":3016:3030  loans[_poolId] */\n      0x00\n        /* \"contracts/mainliquidations.sol\":3022:3029  _poolId */\n      dup4\n        /* \"contracts/mainliquidations.sol\":3016:3030  loans[_poolId] */\n      dup2\n      mstore\n      0x20\n      add\n      swap1\n      dup2\n      mstore\n      0x20\n      add\n      0x00\n      keccak256\n        /* \"contracts/mainliquidations.sol\":3016:3036  loans[_poolId].owner */\n      0x00\n      add\n      0x00\n      swap1\n      sload\n      swap1\n      0x0100\n      exp\n      swap1\n      div\n      0xffffffffffffffffffffffffffffffffffffffff\n      and\n        /* \"contracts/mainliquidations.sol\":3016:3050  loans[_poolId].owner == msg.sender */\n      0xffffffffffffffffffffffffffffffffffffffff\n      and\n      eq\n        /* \"contracts/mainliquidations.sol\":3015:3110  (loans[_poolId].owner == msg.sender) ||... */\n      dup1\n      tag_131\n      jumpi\n      pop\n        /* \"contracts/mainliquidations.sol\":3099:3109  msg.sender */\n      caller\n        /* \"contracts/mainliquidations.sol\":3072:3109  loans[_poolId].operator == msg.sender */\n      0xffffffffffffffffffffffffffffffffffffffff\n      and\n        /* \"contracts/mainliquidations.sol\":3072:3077  loans */\n      0x01\n        /* \"contracts/mainliquidations.sol\":3072:3086  loans[_poolId] */\n      0x00\n        /* \"contracts/mainliquidations.sol\":3078:3085  _poolId */\n      dup4\n        /* \"contracts/mainliquidations.sol\":3072:3086  loans[_poolId] */\n      dup2\n      mstore\n      0x20\n      add\n      swap1\n      dup2\n      mstore\n      0x20\n      add\n      0x00\n      keccak256\n        /* \"contracts/mainliquidations.sol\":3072:3095  loans[_poolId].operator */\n      0x02\n      add\n      0x00\n      swap1\n      sload\n      swap1\n      0x0100\n      exp\n      swap1\n      div\n      0xffffffffffffffffffffffffffffffffffffffff\n      and\n        /* \"contracts/mainliquidations.sol\":3072:3109  loans[_poolId].operator == msg.sender */\n      0xffffffffffffffffffffffffffffffffffffffff\n      and\n      eq\n        /* \"contracts/mainliquidations.sol\":3015:3110  (loans[_poolId].owner == msg.sender) ||... */\n    tag_131:\n        /* \"contracts/mainliquidations.sol\":2994:3150  require(... */\n      tag_132\n      jumpi\n      mload(0x40)\n      0x08c379a000000000000000000000000000000000000000000000000000000000\n      dup2\n      mstore\n      0x04\n      add\n      tag_133\n      swap1\n      tag_81\n      jump\t// in\n    tag_133:\n      mload(0x40)\n      dup1\n      swap2\n      sub\n      swap1\n      revert\n    tag_132:\n        /* \"contracts/mainliquidations.sol\":8226:8242  Loan memory loan */\n      0x00\n        /* \"contracts/mainliquidations.sol\":8245:8250  loans */\n      0x01\n        /* \"contracts/mainliquidations.sol\":8245:8259  loans[_poolId] */\n      0x00\n        /* \"contracts/mainliquidations.sol\":8251:8258  _poolId */\n      dup5\n        /* \"contracts/mainliquidations.sol\":8245:8259  loans[_poolId] */\n      dup2\n      mstore\n      0x20\n      add\n      swap1\n      dup2\n      mstore\n      0x20\n      add\n      0x00\n      keccak256\n        /* \"contracts/mainliquidations.sol\":8226:8259  Loan memory loan = loans[_poolId] */\n      mload(0x40)\n      dup1\n      0x0180\n      add\n      0x40\n      mstore\n      swap1\n      dup2\n      0x00\n      dup3\n      add\n      0x00\n      swap1\n      sload\n      swap1\n      0x0100\n      exp\n      swap1\n      div\n      0xffffffffffffffffffffffffffffffffffffffff\n      and\n      0xffffffffffffffffffffffffffffffffffffffff\n      and\n      0xffffffffffffffffffffffffffffffffffffffff\n      and\n      dup2\n      mstore\n      0x20\n      add\n      0x01\n      dup3\n      add\n      0x00\n      swap1\n      sload\n      swap1\n      0x0100\n      exp\n      swap1\n      div\n      0xffffffffffffffffffffffffffffffffffffffff\n      and\n      0xffffffffffffffffffffffffffffffffffffffff\n      and\n      0xffffffffffffffffffffffffffffffffffffffff\n      and\n      dup2\n      mstore\n      0x20\n      add\n      0x02\n      dup3\n      add\n      0x00\n      swap1\n      sload\n      swap1\n      0x0100\n      exp\n      swap1\n      div\n      0xffffffffffffffffffffffffffffffffffffffff\n      and\n      0xffffffffffffffffffffffffffffffffffffffff\n      and\n      0xffffffffffffffffffffffffffffffffffffffff\n      and\n      dup2\n      mstore\n      0x20\n      add\n      0x03\n      dup3\n      add\n      0x00\n      swap1\n      sload\n      swap1\n      0x0100\n      exp\n      swap1\n      div\n      0xffffffffffffffffffffffffffffffffffffffff\n      and\n      0xffffffffffffffffffffffffffffffffffffffff\n      and\n      0xffffffffffffffffffffffffffffffffffffffff\n      and\n      dup2\n      mstore\n      0x20\n      add\n      0x04\n      dup3\n      add\n      0x00\n      swap1\n      sload\n      swap1\n      0x0100\n      exp\n      swap1\n      div\n      0xffffffffffffffffffffffffffffffffffffffff\n      and\n      0xffffffffffffffffffffffffffffffffffffffff\n      and\n      0xffffffffffffffffffffffffffffffffffffffff\n      and\n      dup2\n      mstore\n      0x20\n      add\n      0x05\n      dup3\n      add\n      sload\n      dup2\n      mstore\n      0x20\n      add\n      0x06\n      dup3\n      add\n      sload\n      dup2\n      mstore\n      0x20\n      add\n      0x07\n      dup3\n      add\n      sload\n      dup2\n      mstore\n      0x20\n      add\n      0x08\n      dup3\n      add\n      sload\n      dup2\n      mstore\n      0x20\n      add\n      0x09\n      dup3\n      add\n      sload\n      dup2\n      mstore\n      0x20\n      add\n      0x0a\n      dup3\n      add\n      0x00\n      swap1\n      sload\n      swap1\n      0x0100\n      exp\n      swap1\n      div\n      0xff\n      and\n      iszero\n      iszero\n      iszero\n      iszero\n      dup2\n      mstore\n      0x20\n      add\n      0x0a\n      dup3\n      add\n      0x01\n      swap1\n      sload\n      swap1\n      0x0100\n      exp\n      swap1\n      div\n      0xff\n      and\n      iszero\n      iszero\n      iszero\n      iszero\n      dup2\n      mstore\n      pop\n      pop\n      swap1\n      pop\n        /* \"contracts/mainliquidations.sol\":8294:8309  block.timestamp */\n      timestamp\n        /* \"contracts/mainliquidations.sol\":8277:8281  loan */\n      dup2\n        /* \"contracts/mainliquidations.sol\":8277:8291  loan.startTime */\n      0xe0\n      add\n      mload\n        /* \"contracts/mainliquidations.sol\":8277:8309  loan.startTime > block.timestamp */\n      gt\n        /* \"contracts/mainliquidations.sol\":8269:8334  require(loan.startTime > block.timestamp, \"LAN: already started\") */\n      tag_135\n      jumpi\n      mload(0x40)\n      0x08c379a000000000000000000000000000000000000000000000000000000000\n      dup2\n      mstore\n      0x04\n      add\n      tag_136\n      swap1\n      tag_137\n      jump\t// in\n    tag_136:\n      mload(0x40)\n      dup1\n      swap2\n      sub\n      swap1\n      revert\n    tag_135:\n        /* \"contracts/mainliquidations.sol\":8344:8355  delete loan */\n      tag_138\n      tag_90\n      jump\t// in\n    tag_138:\n      swap1\n      pop\n        /* \"contracts/mainliquidations.sol\":8370:8392  loanCancelled(_poolId) */\n      0xfe785ef891129b084b1c5a30e4d88eb97c97822c024cc25d5f9d806b897512e0\n        /* \"contracts/mainliquidations.sol\":8384:8391  _poolId */\n      dup4\n        /* \"contracts/mainliquidations.sol\":8370:8392  loanCancelled(_poolId) */\n      mload(0x40)\n      tag_139\n      swap2\n      swap1\n      tag_23\n      jump\t// in\n    tag_139:\n      mload(0x40)\n      dup1\n      swap2\n      sub\n      swap1\n      log1\n        /* \"contracts/mainliquidations.sol\":8216:8399  {... */\n      pop\n        /* \"contracts/mainliquidations.sol\":8155:8399  function cancel(uint256 _poolId) external onlyOwner(_poolId) {... */\n      pop\n      pop\n      jump\t// out\n        /* \"contracts/mainliquidations.sol\":9445:10044  function liquidate(uint256 _poolId) external {... */\n    tag_41:\n        /* \"contracts/mainliquidations.sol\":9500:9516  Loan memory loan */\n      0x00\n        /* \"contracts/mainliquidations.sol\":9519:9524  loans */\n      0x01\n        /* \"contracts/mainliquidations.sol\":9519:9533  loans[_poolId] */\n      0x00\n        /* \"contracts/mainliquidations.sol\":9525:9532  _poolId */\n      dup4\n        /* \"contracts/mainliquidations.sol\":9519:9533  loans[_poolId] */\n      dup2\n      mstore\n      0x20\n      add\n      swap1\n      dup2\n      mstore\n      0x20\n      add\n      0x00\n      keccak256\n        /* \"contracts/mainliquidations.sol\":9500:9533  Loan memory loan = loans[_poolId] */\n      mload(0x40)\n      dup1\n      0x0180\n      add\n      0x40\n      mstore\n      swap1\n      dup2\n      0x00\n      dup3\n      add\n      0x00\n      swap1\n      sload\n      swap1\n      0x0100\n      exp\n      swap1\n      div\n      0xffffffffffffffffffffffffffffffffffffffff\n      and\n      0xffffffffffffffffffffffffffffffffffffffff\n      and\n      0xffffffffffffffffffffffffffffffffffffffff\n      and\n      dup2\n      mstore\n      0x20\n      add\n      0x01\n      dup3\n      add\n      0x00\n      swap1\n      sload\n      swap1\n      0x0100\n      exp\n      swap1\n      div\n      0xffffffffffffffffffffffffffffffffffffffff\n      and\n      0xffffffffffffffffffffffffffffffffffffffff\n      and\n      0xffffffffffffffffffffffffffffffffffffffff\n      and\n      dup2\n      mstore\n      0x20\n      add\n      0x02\n      dup3\n      add\n      0x00\n      swap1\n      sload\n      swap1\n      0x0100\n      exp\n      swap1\n      div\n      0xffffffffffffffffffffffffffffffffffffffff\n      and\n      0xffffffffffffffffffffffffffffffffffffffff\n      and\n      0xffffffffffffffffffffffffffffffffffffffff\n      and\n      dup2\n      mstore\n      0x20\n      add\n      0x03\n      dup3\n      add\n      0x00\n      swap1\n      sload\n      swap1\n      0x0100\n      exp\n      swap1\n      div\n      0xffffffffffffffffffffffffffffffffffffffff\n      and\n      0xffffffffffffffffffffffffffffffffffffffff\n      and\n      0xffffffffffffffffffffffffffffffffffffffff\n      and\n      dup2\n      mstore\n      0x20\n      add\n      0x04\n      dup3\n      add\n      0x00\n      swap1\n      sload\n      swap1\n      0x0100\n      exp\n      swap1\n      div\n      0xffffffffffffffffffffffffffffffffffffffff\n      and\n      0xffffffffffffffffffffffffffffffffffffffff\n      and\n      0xffffffffffffffffffffffffffffffffffffffff\n      and\n      dup2\n      mstore\n      0x20\n      add\n      0x05\n      dup3\n      add\n      sload\n      dup2\n      mstore\n      0x20\n      add\n      0x06\n      dup3\n      add\n      sload\n      dup2\n      mstore\n      0x20\n      add\n      0x07\n      dup3\n      add\n      sload\n      dup2\n      mstore\n      0x20\n      add\n      0x08\n      dup3\n      add\n      sload\n      dup2\n      mstore\n      0x20\n      add\n      0x09\n      dup3\n      add\n      sload\n      dup2\n      mstore\n      0x20\n      add\n      0x0a\n      dup3\n      add\n      0x00\n      swap1\n      sload\n      swap1\n      0x0100\n      exp\n      swap1\n      div\n      0xff\n      and\n      iszero\n      iszero\n      iszero\n      iszero\n      dup2\n      mstore\n      0x20\n      add\n      0x0a\n      dup3\n      add\n      0x01\n      swap1\n      sload\n      swap1\n      0x0100\n      exp\n      swap1\n      div\n      0xff\n      and\n      iszero\n      iszero\n      iszero\n      iszero\n      dup2\n      mstore\n      pop\n      pop\n      swap1\n      pop\n        /* \"contracts/mainliquidations.sol\":9543:9563  Bid memory latestBid */\n      0x00\n        /* \"contracts/mainliquidations.sol\":9566:9570  bids */\n      0x02\n        /* \"contracts/mainliquidations.sol\":9566:9579  bids[_poolId] */\n      0x00\n        /* \"contracts/mainliquidations.sol\":9571:9578  _poolId */\n      dup5\n        /* \"contracts/mainliquidations.sol\":9566:9579  bids[_poolId] */\n      dup2\n      mstore\n      0x20\n      add\n      swap1\n      dup2\n      mstore\n      0x20\n      add\n      0x00\n      keccak256\n        /* \"contracts/mainliquidations.sol\":9566:9593  bids[_poolId][loan.numBids] */\n      0x00\n        /* \"contracts/mainliquidations.sol\":9580:9584  loan */\n      dup4\n        /* \"contracts/mainliquidations.sol\":9580:9592  loan.numBids */\n      0x0120\n      add\n      mload\n        /* \"contracts/mainliquidations.sol\":9566:9593  bids[_poolId][loan.numBids] */\n      dup2\n      mstore\n      0x20\n      add\n      swap1\n      dup2\n      mstore\n      0x20\n      add\n      0x00\n      keccak256\n        /* \"contracts/mainliquidations.sol\":9543:9593  Bid memory latestBid = bids[_poolId][loan.numBids] */\n      mload(0x40)\n      dup1\n      0xa0\n      add\n      0x40\n      mstore\n      swap1\n      dup2\n      0x00\n      dup3\n      add\n      sload\n      dup2\n      mstore\n      0x20\n      add\n      0x01\n      dup3\n      add\n      sload\n      dup2\n      mstore\n      0x20\n      add\n      0x02\n      dup3\n      add\n      0x00\n      swap1\n      sload\n      swap1\n      0x0100\n      exp\n      swap1\n      div\n      0xffffffffffffffffffffffffffffffffffffffff\n      and\n      0xffffffffffffffffffffffffffffffffffffffff\n      and\n      0xffffffffffffffffffffffffffffffffffffffff\n      and\n      dup2\n      mstore\n      0x20\n      add\n      0x03\n      dup3\n      add\n      sload\n      dup2\n      mstore\n      0x20\n      add\n      0x04\n      dup3\n      add\n      0x00\n      swap1\n      sload\n      swap1\n      0x0100\n      exp\n      swap1\n      div\n      0xffff\n      and\n      0xffff\n      and\n      0xffff\n      and\n      dup2\n      mstore\n      pop\n      pop\n      swap1\n      pop\n        /* \"contracts/mainliquidations.sol\":9644:9654  msg.sender */\n      caller\n        /* \"contracts/mainliquidations.sol\":9626:9654  latestBid.user == msg.sender */\n      0xffffffffffffffffffffffffffffffffffffffff\n      and\n        /* \"contracts/mainliquidations.sol\":9626:9635  latestBid */\n      dup2\n        /* \"contracts/mainliquidations.sol\":9626:9640  latestBid.user */\n      0x40\n      add\n      mload\n        /* \"contracts/mainliquidations.sol\":9626:9654  latestBid.user == msg.sender */\n      0xffffffffffffffffffffffffffffffffffffffff\n      and\n      eq\n        /* \"contracts/mainliquidations.sol\":9625:9674  (latestBid.user == msg.sender) && _ended(_poolId) */\n      dup1\n      iszero\n      tag_141\n      jumpi\n      pop\n        /* \"contracts/mainliquidations.sol\":9659:9674  _ended(_poolId) */\n      tag_142\n        /* \"contracts/mainliquidations.sol\":9666:9673  _poolId */\n      dup4\n        /* \"contracts/mainliquidations.sol\":9659:9665  _ended */\n      tag_98\n        /* \"contracts/mainliquidations.sol\":9659:9674  _ended(_poolId) */\n      jump\t// in\n    tag_142:\n        /* \"contracts/mainliquidations.sol\":9625:9674  (latestBid.user == msg.sender) && _ended(_poolId) */\n    tag_141:\n        /* \"contracts/mainliquidations.sol\":9624:9754  ((latestBid.user == msg.sender) && _ended(_poolId)) ||... */\n      dup1\n      tag_143\n      jumpi\n      pop\n        /* \"contracts/mainliquidations.sol\":9696:9700  loan */\n      dup2\n        /* \"contracts/mainliquidations.sol\":9696:9713  loan.liquidatable */\n      0x0140\n      add\n      mload\n        /* \"contracts/mainliquidations.sol\":9696:9753  loan.liquidatable && _liquidate(loan, latestBid, _poolId) */\n      dup1\n      iszero\n      tag_144\n      jumpi\n      pop\n        /* \"contracts/mainliquidations.sol\":9717:9753  _liquidate(loan, latestBid, _poolId) */\n      tag_145\n        /* \"contracts/mainliquidations.sol\":9728:9732  loan */\n      dup3\n        /* \"contracts/mainliquidations.sol\":9734:9743  latestBid */\n      dup3\n        /* \"contracts/mainliquidations.sol\":9745:9752  _poolId */\n      dup6\n        /* \"contracts/mainliquidations.sol\":9717:9727  _liquidate */\n      tag_146\n        /* \"contracts/mainliquidations.sol\":9717:9753  _liquidate(loan, latestBid, _poolId) */\n      jump\t// in\n    tag_145:\n        /* \"contracts/mainliquidations.sol\":9696:9753  loan.liquidatable && _liquidate(loan, latestBid, _poolId) */\n    tag_144:\n        /* \"contracts/mainliquidations.sol\":9624:9754  ((latestBid.user == msg.sender) && _ended(_poolId)) ||... */\n    tag_143:\n        /* \"contracts/mainliquidations.sol\":9603:9831  require(... */\n      tag_147\n      jumpi\n      mload(0x40)\n      0x08c379a000000000000000000000000000000000000000000000000000000000\n      dup2\n      mstore\n      0x04\n      add\n      tag_148\n      swap1\n      tag_149\n      jump\t// in\n    tag_148:\n      mload(0x40)\n      dup1\n      swap2\n      sub\n      swap1\n      revert\n    tag_147:\n        /* \"contracts/mainliquidations.sol\":9865:9876  IERC721 NFT */\n      0x00\n        /* \"contracts/mainliquidations.sol\":9887:9891  loan */\n      dup3\n        /* \"contracts/mainliquidations.sol\":9887:9909  loan.collectionAddress */\n      0x80\n      add\n      mload\n        /* \"contracts/mainliquidations.sol\":9865:9910  IERC721 NFT = IERC721(loan.collectionAddress) */\n      swap1\n      pop\n        /* \"contracts/mainliquidations.sol\":9920:9923  NFT */\n      dup1\n        /* \"contracts/mainliquidations.sol\":9920:9940  NFT.safeTransferFrom */\n      0xffffffffffffffffffffffffffffffffffffffff\n      and\n      0x42842e0e\n        /* \"contracts/mainliquidations.sol\":9949:9953  this */\n      address\n        /* \"contracts/mainliquidations.sol\":9956:9965  latestBid */\n      dup5\n        /* \"contracts/mainliquidations.sol\":9956:9970  latestBid.user */\n      0x40\n      add\n      mload\n        /* \"contracts/mainliquidations.sol\":9972:9976  loan */\n      dup7\n        /* \"contracts/mainliquidations.sol\":9972:9982  loan.nftId */\n      0xc0\n      add\n      mload\n        /* \"contracts/mainliquidations.sol\":9920:9983  NFT.safeTransferFrom(address(this), latestBid.user, loan.nftId) */\n      mload(0x40)\n      dup5\n      0xffffffff\n      and\n      0xe0\n      shl\n      dup2\n      mstore\n      0x04\n      add\n      tag_150\n      swap4\n      swap3\n      swap2\n      swap1\n      tag_84\n      jump\t// in\n    tag_150:\n      0x00\n      mload(0x40)\n      dup1\n      dup4\n      sub\n      dup2\n      0x00\n      dup8\n      dup1\n      extcodesize\n      iszero\n      dup1\n      iszero\n      tag_151\n      jumpi\n      0x00\n      dup1\n      revert\n    tag_151:\n      pop\n      gas\n      call\n      iszero\n      dup1\n      iszero\n      tag_153\n      jumpi\n      returndatasize\n      0x00\n      dup1\n      returndatacopy\n      revert(0x00, returndatasize)\n    tag_153:\n      pop\n      pop\n      pop\n      pop\n        /* \"contracts/mainliquidations.sol\":9998:10016  loanEnded(_poolId) */\n      0xcf3eafc70e544bbb0b7b916314be01382e9819ef1dea730bd182222030ffe4a9\n        /* \"contracts/mainliquidations.sol\":10008:10015  _poolId */\n      dup5\n        /* \"contracts/mainliquidations.sol\":9998:10016  loanEnded(_poolId) */\n      mload(0x40)\n      tag_154\n      swap2\n      swap1\n      tag_23\n      jump\t// in\n    tag_154:\n      mload(0x40)\n      dup1\n      swap2\n      sub\n      swap1\n      log1\n        /* \"contracts/mainliquidations.sol\":10026:10037  delete loan */\n      tag_155\n      tag_90\n      jump\t// in\n    tag_155:\n      swap3\n      pop\n        /* \"contracts/mainliquidations.sol\":9490:10044  {... */\n      pop\n      pop\n      pop\n        /* \"contracts/mainliquidations.sol\":9445:10044  function liquidate(uint256 _poolId) external {... */\n      pop\n      jump\t// out\n        /* \"contracts/mainliquidations.sol\":2701:2751  mapping(uint256 => uint256) public userPoolReserve */\n    tag_44:\n      mstore(0x20, 0x04)\n      dup1\n      0x00\n      mstore\n      keccak256(0x00, 0x40)\n      0x00\n      swap2\n      pop\n      swap1\n      pop\n      sload\n      dup2\n      jump\t// out\n        /* \"contracts/mainliquidations.sol\":2324:2379  mapping(uint256 => mapping(uint256 => Bid)) public bids */\n    tag_49:\n      mstore(0x20, 0x02)\n      dup2\n      0x00\n      mstore\n      mstore(0x20, keccak256(0x00, 0x40))\n      dup1\n      0x00\n      mstore\n      keccak256(0x00, 0x40)\n      0x00\n      swap2\n      pop\n      swap2\n      pop\n      pop\n      dup1\n      0x00\n      add\n      sload\n      swap1\n      dup1\n      0x01\n      add\n      sload\n      swap1\n      dup1\n      0x02\n      add\n      0x00\n      swap1\n      sload\n      swap1\n      0x0100\n      exp\n      swap1\n      div\n      0xffffffffffffffffffffffffffffffffffffffff\n      and\n      swap1\n      dup1\n      0x03\n      add\n      sload\n      swap1\n      dup1\n      0x04\n      add\n      0x00\n      swap1\n      sload\n      swap1\n      0x0100\n      exp\n      swap1\n      div\n      0xffff\n      and\n      swap1\n      pop\n      dup6\n      jump\t// out\n        /* \"contracts/mainliquidations.sol\":3933:4960  function launch(... */\n    tag_55:\n        /* \"contracts/mainliquidations.sol\":4246:4261  block.timestamp */\n      timestamp\n        /* \"contracts/mainliquidations.sol\":4232:4242  _startTime */\n      dup5\n        /* \"contracts/mainliquidations.sol\":4232:4261  _startTime >= block.timestamp */\n      lt\n      iszero\n        /* \"contracts/mainliquidations.sol\":4224:4289  require(_startTime >= block.timestamp, \"LAN: start time in past\") */\n      tag_157\n      jumpi\n      mload(0x40)\n      0x08c379a000000000000000000000000000000000000000000000000000000000\n      dup2\n      mstore\n      0x04\n      add\n      tag_158\n      swap1\n      tag_159\n      jump\t// in\n    tag_158:\n      mload(0x40)\n      dup1\n      swap2\n      sub\n      swap1\n      revert\n    tag_157:\n        /* \"contracts/mainliquidations.sol\":4318:4328  _startTime */\n      dup4\n        /* \"contracts/mainliquidations.sol\":4307:4315  _endTime */\n      dup4\n        /* \"contracts/mainliquidations.sol\":4307:4328  _endTime > _startTime */\n      gt\n        /* \"contracts/mainliquidations.sol\":4299:4353  require(_endTime > _startTime, \"LAN: start after end\") */\n      tag_160\n      jumpi\n      mload(0x40)\n      0x08c379a000000000000000000000000000000000000000000000000000000000\n      dup2\n      mstore\n      0x04\n      add\n      tag_161\n      swap1\n      tag_162\n      jump\t// in\n    tag_161:\n      mload(0x40)\n      dup1\n      swap2\n      sub\n      swap1\n      revert\n    tag_160:\n        /* \"contracts/mainliquidations.sol\":4378:4829  Loan({... */\n      mload(0x40)\n      dup1\n      0x0180\n      add\n      0x40\n      mstore\n      dup1\n        /* \"contracts/mainliquidations.sol\":4412:4430  _collectionAddress */\n      dup8\n        /* \"contracts/mainliquidations.sol\":4404:4439  IERC721(_collectionAddress).ownerOf */\n      0xffffffffffffffffffffffffffffffffffffffff\n      and\n      0x6352211e\n        /* \"contracts/mainliquidations.sol\":4440:4446  _nftId */\n      dup9\n        /* \"contracts/mainliquidations.sol\":4404:4447  IERC721(_collectionAddress).ownerOf(_nftId) */\n      mload(0x40)\n      dup3\n      0xffffffff\n      and\n      0xe0\n      shl\n      dup2\n      mstore\n      0x04\n      add\n      tag_163\n      swap2\n      swap1\n      tag_23\n      jump\t// in\n    tag_163:\n      0x20\n      mload(0x40)\n      dup1\n      dup4\n      sub\n      dup2\n      dup7\n      gas\n      staticcall\n      iszero\n      dup1\n      iszero\n      tag_165\n      jumpi\n      returndatasize\n      0x00\n      dup1\n      returndatacopy\n      revert(0x00, returndatasize)\n    tag_165:\n      pop\n      pop\n      pop\n      pop\n      mload(0x40)\n      returndatasize\n      not(0x1f)\n      0x1f\n      dup3\n      add\n      and\n      dup3\n      add\n      dup1\n      0x40\n      mstore\n      pop\n      dup2\n      add\n      swap1\n      tag_166\n      swap2\n      swap1\n      tag_167\n      jump\t// in\n    tag_166:\n        /* \"contracts/mainliquidations.sol\":4378:4829  Loan({... */\n      0xffffffffffffffffffffffffffffffffffffffff\n      and\n      dup2\n      mstore\n      0x20\n      add\n        /* \"contracts/mainliquidations.sol\":4501:4507  _token */\n      dup10\n        /* \"contracts/mainliquidations.sol\":4378:4829  Loan({... */\n      0xffffffffffffffffffffffffffffffffffffffff\n      and\n      dup2\n      mstore\n      0x20\n      add\n        /* \"contracts/mainliquidations.sol\":4471:4480  _operator */\n      dup11\n        /* \"contracts/mainliquidations.sol\":4378:4829  Loan({... */\n      0xffffffffffffffffffffffffffffffffffffffff\n      and\n      dup2\n      mstore\n      0x20\n      add\n        /* \"contracts/mainliquidations.sol\":4536:4550  _oracleAddress */\n      dup9\n        /* \"contracts/mainliquidations.sol\":4378:4829  Loan({... */\n      0xffffffffffffffffffffffffffffffffffffffff\n      and\n      dup2\n      mstore\n      0x20\n      add\n        /* \"contracts/mainliquidations.sol\":4583:4601  _collectionAddress */\n      dup8\n        /* \"contracts/mainliquidations.sol\":4378:4829  Loan({... */\n      0xffffffffffffffffffffffffffffffffffffffff\n      and\n      dup2\n      mstore\n      0x20\n      add\n        /* \"contracts/mainliquidations.sol\":4713:4714  0 */\n      0x00\n        /* \"contracts/mainliquidations.sol\":4378:4829  Loan({... */\n      dup2\n      mstore\n      0x20\n      add\n        /* \"contracts/mainliquidations.sol\":4622:4628  _nftId */\n      dup7\n        /* \"contracts/mainliquidations.sol\":4378:4829  Loan({... */\n      dup2\n      mstore\n      0x20\n      add\n        /* \"contracts/mainliquidations.sol\":4653:4663  _startTime */\n      dup6\n        /* \"contracts/mainliquidations.sol\":4378:4829  Loan({... */\n      dup2\n      mstore\n      0x20\n      add\n        /* \"contracts/mainliquidations.sol\":4686:4694  _endTime */\n      dup5\n        /* \"contracts/mainliquidations.sol\":4378:4829  Loan({... */\n      dup2\n      mstore\n      0x20\n      add\n        /* \"contracts/mainliquidations.sol\":4737:4738  0 */\n      0x00\n        /* \"contracts/mainliquidations.sol\":4378:4829  Loan({... */\n      dup2\n      mstore\n      0x20\n      add\n        /* \"contracts/mainliquidations.sol\":4766:4779  _liquidatable */\n      dup4\n        /* \"contracts/mainliquidations.sol\":4378:4829  Loan({... */\n      iszero\n      iszero\n      dup2\n      mstore\n      0x20\n      add\n        /* \"contracts/mainliquidations.sol\":4806:4818  _whitelisted */\n      dup3\n        /* \"contracts/mainliquidations.sol\":4378:4829  Loan({... */\n      iszero\n      iszero\n      dup2\n      mstore\n      pop\n        /* \"contracts/mainliquidations.sol\":4363:4368  loans */\n      0x01\n        /* \"contracts/mainliquidations.sol\":4363:4375  loans[count] */\n      0x00\n        /* \"contracts/mainliquidations.sol\":4369:4374  count */\n      dup1\n      sload\n        /* \"contracts/mainliquidations.sol\":4363:4375  loans[count] */\n      dup2\n      mstore\n      0x20\n      add\n      swap1\n      dup2\n      mstore\n      0x20\n      add\n      0x00\n      keccak256\n        /* \"contracts/mainliquidations.sol\":4363:4829  loans[count] = Loan({... */\n      0x00\n      dup3\n      add\n      mload\n      dup2\n      0x00\n      add\n      exp(0x0100, 0x00)\n      dup2\n      sload\n      dup2\n      0xffffffffffffffffffffffffffffffffffffffff\n      mul\n      not\n      and\n      swap1\n      dup4\n      0xffffffffffffffffffffffffffffffffffffffff\n      and\n      mul\n      or\n      swap1\n      sstore\n      pop\n      0x20\n      dup3\n      add\n      mload\n      dup2\n      0x01\n      add\n      exp(0x0100, 0x00)\n      dup2\n      sload\n      dup2\n      0xffffffffffffffffffffffffffffffffffffffff\n      mul\n      not\n      and\n      swap1\n      dup4\n      0xffffffffffffffffffffffffffffffffffffffff\n      and\n      mul\n      or\n      swap1\n      sstore\n      pop\n      0x40\n      dup3\n      add\n      mload\n      dup2\n      0x02\n      add\n      exp(0x0100, 0x00)\n      dup2\n      sload\n      dup2\n      0xffffffffffffffffffffffffffffffffffffffff\n      mul\n      not\n      and\n      swap1\n      dup4\n      0xffffffffffffffffffffffffffffffffffffffff\n      and\n      mul\n      or\n      swap1\n      sstore\n      pop\n      0x60\n      dup3\n      add\n      mload\n      dup2\n      0x03\n      add\n      exp(0x0100, 0x00)\n      dup2\n      sload\n      dup2\n      0xffffffffffffffffffffffffffffffffffffffff\n      mul\n      not\n      and\n      swap1\n      dup4\n      0xffffffffffffffffffffffffffffffffffffffff\n      and\n      mul\n      or\n      swap1\n      sstore\n      pop\n      0x80\n      dup3\n      add\n      mload\n      dup2\n      0x04\n      add\n      exp(0x0100, 0x00)\n      dup2\n      sload\n      dup2\n      0xffffffffffffffffffffffffffffffffffffffff\n      mul\n      not\n      and\n      swap1\n      dup4\n      0xffffffffffffffffffffffffffffffffffffffff\n      and\n      mul\n      or\n      swap1\n      sstore\n      pop\n      0xa0\n      dup3\n      add\n      mload\n      dup2\n      0x05\n      add\n      sstore\n      0xc0\n      dup3\n      add\n      mload\n      dup2\n      0x06\n      add\n      sstore\n      0xe0\n      dup3\n      add\n      mload\n      dup2\n      0x07\n      add\n      sstore\n      0x0100\n      dup3\n      add\n      mload\n      dup2\n      0x08\n      add\n      sstore\n      0x0120\n      dup3\n      add\n      mload\n      dup2\n      0x09\n      add\n      sstore\n      0x0140\n      dup3\n      add\n      mload\n      dup2\n      0x0a\n      add\n      exp(0x0100, 0x00)\n      dup2\n      sload\n      dup2\n      0xff\n      mul\n      not\n      and\n      swap1\n      dup4\n      iszero\n      iszero\n      mul\n      or\n      swap1\n      sstore\n      pop\n      0x0160\n      dup3\n      add\n      mload\n      dup2\n      0x0a\n      add\n      exp(0x0100, 0x01)\n      dup2\n      sload\n      dup2\n      0xff\n      mul\n      not\n      and\n      swap1\n      dup4\n      iszero\n      iszero\n      mul\n      or\n      swap1\n      sstore\n      pop\n      swap1\n      pop\n      pop\n        /* \"contracts/mainliquidations.sol\":4864:4879  block.timestamp */\n      timestamp\n        /* \"contracts/mainliquidations.sol\":4839:4843  bids */\n      0x02\n        /* \"contracts/mainliquidations.sol\":4839:4850  bids[count] */\n      0x00\n        /* \"contracts/mainliquidations.sol\":4844:4849  count */\n      dup1\n      sload\n        /* \"contracts/mainliquidations.sol\":4839:4850  bids[count] */\n      dup2\n      mstore\n      0x20\n      add\n      swap1\n      dup2\n      mstore\n      0x20\n      add\n      0x00\n      keccak256\n        /* \"contracts/mainliquidations.sol\":4839:4853  bids[count][0] */\n      0x00\n        /* \"contracts/mainliquidations.sol\":4851:4852  0 */\n      dup1\n        /* \"contracts/mainliquidations.sol\":4839:4853  bids[count][0] */\n      dup2\n      mstore\n      0x20\n      add\n      swap1\n      dup2\n      mstore\n      0x20\n      add\n      0x00\n      keccak256\n        /* \"contracts/mainliquidations.sol\":4839:4861  bids[count][0].bidTime */\n      0x00\n      add\n        /* \"contracts/mainliquidations.sol\":4839:4879  bids[count][0].bidTime = block.timestamp */\n      dup2\n      swap1\n      sstore\n      pop\n        /* \"contracts/mainliquidations.sol\":4902:4907  count */\n      sload(0x00)\n        /* \"contracts/mainliquidations.sol\":4894:4936  newPool(count, _collectionAddress, _nftId) */\n      0xef8b2952c43462575e82711d0cc91169720a4589a9fa533d173e022437f5405e\n        /* \"contracts/mainliquidations.sol\":4909:4927  _collectionAddress */\n      dup8\n        /* \"contracts/mainliquidations.sol\":4929:4935  _nftId */\n      dup8\n        /* \"contracts/mainliquidations.sol\":4894:4936  newPool(count, _collectionAddress, _nftId) */\n      mload(0x40)\n      tag_168\n      swap3\n      swap2\n      swap1\n      tag_169\n      jump\t// in\n    tag_168:\n      mload(0x40)\n      dup1\n      swap2\n      sub\n      swap1\n      log2\n        /* \"contracts/mainliquidations.sol\":4946:4951  count */\n      0x00\n      dup1\n        /* \"contracts/mainliquidations.sol\":4946:4953  count++ */\n      dup2\n      sload\n      dup1\n      swap3\n      swap2\n      swap1\n      tag_170\n      swap1\n      tag_171\n      jump\t// in\n    tag_170:\n      swap2\n      swap1\n      pop\n      sstore\n      pop\n        /* \"contracts/mainliquidations.sol\":3933:4960  function launch(... */\n      pop\n      pop\n      pop\n      pop\n      pop\n      pop\n      pop\n      pop\n      pop\n      jump\t// out\n        /* \"contracts/mainliquidations.sol\":6874:7284  function setNewBidOwner(uint256 _poolId, address _newAddress) external {... */\n    tag_59:\n        /* \"contracts/mainliquidations.sol\":6963:6980  _started(_poolId) */\n      tag_173\n        /* \"contracts/mainliquidations.sol\":6972:6979  _poolId */\n      dup3\n        /* \"contracts/mainliquidations.sol\":6963:6971  _started */\n      tag_93\n        /* \"contracts/mainliquidations.sol\":6963:6980  _started(_poolId) */\n      jump\t// in\n    tag_173:\n        /* \"contracts/mainliquidations.sol\":6955:7001  require(_started(_poolId), \"LAN: not started\") */\n      tag_174\n      jumpi\n      mload(0x40)\n      0x08c379a000000000000000000000000000000000000000000000000000000000\n      dup2\n      mstore\n      0x04\n      add\n      tag_175\n      swap1\n      tag_96\n      jump\t// in\n    tag_175:\n      mload(0x40)\n      dup1\n      swap2\n      sub\n      swap1\n      revert\n    tag_174:\n        /* \"contracts/mainliquidations.sol\":7020:7035  _ended(_poolId) */\n      tag_176\n        /* \"contracts/mainliquidations.sol\":7027:7034  _poolId */\n      dup3\n        /* \"contracts/mainliquidations.sol\":7020:7026  _ended */\n      tag_98\n        /* \"contracts/mainliquidations.sol\":7020:7035  _ended(_poolId) */\n      jump\t// in\n    tag_176:\n        /* \"contracts/mainliquidations.sol\":7019:7035  !_ended(_poolId) */\n      iszero\n        /* \"contracts/mainliquidations.sol\":7011:7058  require(!_ended(_poolId), \"LAN: already ended\") */\n      tag_177\n      jumpi\n      mload(0x40)\n      0x08c379a000000000000000000000000000000000000000000000000000000000\n      dup2\n      mstore\n      0x04\n      add\n      tag_178\n      swap1\n      tag_101\n      jump\t// in\n    tag_178:\n      mload(0x40)\n      dup1\n      swap2\n      sub\n      swap1\n      revert\n    tag_177:\n        /* \"contracts/mainliquidations.sol\":7068:7084  Loan memory loan */\n      0x00\n        /* \"contracts/mainliquidations.sol\":7087:7092  loans */\n      0x01\n        /* \"contracts/mainliquidations.sol\":7087:7101  loans[_poolId] */\n      0x00\n        /* \"contracts/mainliquidations.sol\":7093:7100  _poolId */\n      dup5\n        /* \"contracts/mainliquidations.sol\":7087:7101  loans[_poolId] */\n      dup2\n      mstore\n      0x20\n      add\n      swap1\n      dup2\n      mstore\n      0x20\n      add\n      0x00\n      keccak256\n        /* \"contracts/mainliquidations.sol\":7068:7101  Loan memory loan = loans[_poolId] */\n      mload(0x40)\n      dup1\n      0x0180\n      add\n      0x40\n      mstore\n      swap1\n      dup2\n      0x00\n      dup3\n      add\n      0x00\n      swap1\n      sload\n      swap1\n      0x0100\n      exp\n      swap1\n      div\n      0xffffffffffffffffffffffffffffffffffffffff\n      and\n      0xffffffffffffffffffffffffffffffffffffffff\n      and\n      0xffffffffffffffffffffffffffffffffffffffff\n      and\n      dup2\n      mstore\n      0x20\n      add\n      0x01\n      dup3\n      add\n      0x00\n      swap1\n      sload\n      swap1\n      0x0100\n      exp\n      swap1\n      div\n      0xffffffffffffffffffffffffffffffffffffffff\n      and\n      0xffffffffffffffffffffffffffffffffffffffff\n      and\n      0xffffffffffffffffffffffffffffffffffffffff\n      and\n      dup2\n      mstore\n      0x20\n      add\n      0x02\n      dup3\n      add\n      0x00\n      swap1\n      sload\n      swap1\n      0x0100\n      exp\n      swap1\n      div\n      0xffffffffffffffffffffffffffffffffffffffff\n      and\n      0xffffffffffffffffffffffffffffffffffffffff\n      and\n      0xffffffffffffffffffffffffffffffffffffffff\n      and\n      dup2\n      mstore\n      0x20\n      add\n      0x03\n      dup3\n      add\n      0x00\n      swap1\n      sload\n      swap1\n      0x0100\n      exp\n      swap1\n      div\n      0xffffffffffffffffffffffffffffffffffffffff\n      and\n      0xffffffffffffffffffffffffffffffffffffffff\n      and\n      0xffffffffffffffffffffffffffffffffffffffff\n      and\n      dup2\n      mstore\n      0x20\n      add\n      0x04\n      dup3\n      add\n      0x00\n      swap1\n      sload\n      swap1\n      0x0100\n      exp\n      swap1\n      div\n      0xffffffffffffffffffffffffffffffffffffffff\n      and\n      0xffffffffffffffffffffffffffffffffffffffff\n      and\n      0xffffffffffffffffffffffffffffffffffffffff\n      and\n      dup2\n      mstore\n      0x20\n      add\n      0x05\n      dup3\n      add\n      sload\n      dup2\n      mstore\n      0x20\n      add\n      0x06\n      dup3\n      add\n      sload\n      dup2\n      mstore\n      0x20\n      add\n      0x07\n      dup3\n      add\n      sload\n      dup2\n      mstore\n      0x20\n      add\n      0x08\n      dup3\n      add\n      sload\n      dup2\n      mstore\n      0x20\n      add\n      0x09\n      dup3\n      add\n      sload\n      dup2\n      mstore\n      0x20\n      add\n      0x0a\n      dup3\n      add\n      0x00\n      swap1\n      sload\n      swap1\n      0x0100\n      exp\n      swap1\n      div\n      0xff\n      and\n      iszero\n      iszero\n      iszero\n      iszero\n      dup2\n      mstore\n      0x20\n      add\n      0x0a\n      dup3\n      add\n      0x01\n      swap1\n      sload\n      swap1\n      0x0100\n      exp\n      swap1\n      div\n      0xff\n      and\n      iszero\n      iszero\n      iszero\n      iszero\n      dup2\n      mstore\n      pop\n      pop\n      swap1\n      pop\n        /* \"contracts/mainliquidations.sol\":7111:7132  Bid storage latestBid */\n      0x00\n        /* \"contracts/mainliquidations.sol\":7135:7139  bids */\n      0x02\n        /* \"contracts/mainliquidations.sol\":7135:7148  bids[_poolId] */\n      0x00\n        /* \"contracts/mainliquidations.sol\":7140:7147  _poolId */\n      dup6\n        /* \"contracts/mainliquidations.sol\":7135:7148  bids[_poolId] */\n      dup2\n      mstore\n      0x20\n      add\n      swap1\n      dup2\n      mstore\n      0x20\n      add\n      0x00\n      keccak256\n        /* \"contracts/mainliquidations.sol\":7135:7162  bids[_poolId][loan.numBids] */\n      0x00\n        /* \"contracts/mainliquidations.sol\":7149:7153  loan */\n      dup4\n        /* \"contracts/mainliquidations.sol\":7149:7161  loan.numBids */\n      0x0120\n      add\n      mload\n        /* \"contracts/mainliquidations.sol\":7135:7162  bids[_poolId][loan.numBids] */\n      dup2\n      mstore\n      0x20\n      add\n      swap1\n      dup2\n      mstore\n      0x20\n      add\n      0x00\n      keccak256\n        /* \"contracts/mainliquidations.sol\":7111:7162  Bid storage latestBid = bids[_poolId][loan.numBids] */\n      swap1\n      pop\n        /* \"contracts/mainliquidations.sol\":7198:7208  msg.sender */\n      caller\n        /* \"contracts/mainliquidations.sol\":7180:7208  latestBid.user == msg.sender */\n      0xffffffffffffffffffffffffffffffffffffffff\n      and\n        /* \"contracts/mainliquidations.sol\":7180:7189  latestBid */\n      dup2\n        /* \"contracts/mainliquidations.sol\":7180:7194  latestBid.user */\n      0x02\n      add\n      0x00\n      swap1\n      sload\n      swap1\n      0x0100\n      exp\n      swap1\n      div\n      0xffffffffffffffffffffffffffffffffffffffff\n      and\n        /* \"contracts/mainliquidations.sol\":7180:7208  latestBid.user == msg.sender */\n      0xffffffffffffffffffffffffffffffffffffffff\n      and\n      eq\n        /* \"contracts/mainliquidations.sol\":7172:7239  require(latestBid.user == msg.sender, \"LAN: Not the latest bidder\") */\n      tag_179\n      jumpi\n      mload(0x40)\n      0x08c379a000000000000000000000000000000000000000000000000000000000\n      dup2\n      mstore\n      0x04\n      add\n      tag_180\n      swap1\n      tag_181\n      jump\t// in\n    tag_180:\n      mload(0x40)\n      dup1\n      swap2\n      sub\n      swap1\n      revert\n    tag_179:\n        /* \"contracts/mainliquidations.sol\":7266:7277  _newAddress */\n      dup3\n        /* \"contracts/mainliquidations.sol\":7249:7258  latestBid */\n      dup2\n        /* \"contracts/mainliquidations.sol\":7249:7263  latestBid.user */\n      0x02\n      add\n      0x00\n        /* \"contracts/mainliquidations.sol\":7249:7277  latestBid.user = _newAddress */\n      0x0100\n      exp\n      dup2\n      sload\n      dup2\n      0xffffffffffffffffffffffffffffffffffffffff\n      mul\n      not\n      and\n      swap1\n      dup4\n      0xffffffffffffffffffffffffffffffffffffffff\n      and\n      mul\n      or\n      swap1\n      sstore\n      pop\n        /* \"contracts/mainliquidations.sol\":6945:7284  {... */\n      pop\n      pop\n        /* \"contracts/mainliquidations.sol\":6874:7284  function setNewBidOwner(uint256 _poolId, address _newAddress) external {... */\n      pop\n      pop\n      jump\t// out\n        /* \"contracts/mainliquidations.sol\":2485:2557  mapping(uint256 => mapping(address => bool)) public whitelistedAddresses */\n    tag_62:\n      mstore(0x20, 0x03)\n      dup2\n      0x00\n      mstore\n      mstore(0x20, keccak256(0x00, 0x40))\n      dup1\n      0x00\n      mstore\n      keccak256(0x00, 0x40)\n      0x00\n      swap2\n      pop\n      swap2\n      pop\n      swap1\n      sload\n      swap1\n      0x0100\n      exp\n      swap1\n      div\n      0xff\n      and\n      dup2\n      jump\t// out\n        /* \"contracts/mainliquidations.sol\":8570:9280  function repay(uint256 _poolId, uint256 _amount)... */\n    tag_67:\n        /* \"contracts/mainliquidations.sol\":8654:8661  _poolId */\n      dup2\n        /* \"contracts/mainliquidations.sol\":3040:3050  msg.sender */\n      caller\n        /* \"contracts/mainliquidations.sol\":3016:3050  loans[_poolId].owner == msg.sender */\n      0xffffffffffffffffffffffffffffffffffffffff\n      and\n        /* \"contracts/mainliquidations.sol\":3016:3021  loans */\n      0x01\n        /* \"contracts/mainliquidations.sol\":3016:3030  loans[_poolId] */\n      0x00\n        /* \"contracts/mainliquidations.sol\":3022:3029  _poolId */\n      dup4\n        /* \"contracts/mainliquidations.sol\":3016:3030  loans[_poolId] */\n      dup2\n      mstore\n      0x20\n      add\n      swap1\n      dup2\n      mstore\n      0x20\n      add\n      0x00\n      keccak256\n        /* \"contracts/mainliquidations.sol\":3016:3036  loans[_poolId].owner */\n      0x00\n      add\n      0x00\n      swap1\n      sload\n      swap1\n      0x0100\n      exp\n      swap1\n      div\n      0xffffffffffffffffffffffffffffffffffffffff\n      and\n        /* \"contracts/mainliquidations.sol\":3016:3050  loans[_poolId].owner == msg.sender */\n      0xffffffffffffffffffffffffffffffffffffffff\n      and\n      eq\n        /* \"contracts/mainliquidations.sol\":3015:3110  (loans[_poolId].owner == msg.sender) ||... */\n      dup1\n      tag_183\n      jumpi\n      pop\n        /* \"contracts/mainliquidations.sol\":3099:3109  msg.sender */\n      caller\n        /* \"contracts/mainliquidations.sol\":3072:3109  loans[_poolId].operator == msg.sender */\n      0xffffffffffffffffffffffffffffffffffffffff\n      and\n        /* \"contracts/mainliquidations.sol\":3072:3077  loans */\n      0x01\n        /* \"contracts/mainliquidations.sol\":3072:3086  loans[_poolId] */\n      0x00\n        /* \"contracts/mainliquidations.sol\":3078:3085  _poolId */\n      dup4\n        /* \"contracts/mainliquidations.sol\":3072:3086  loans[_poolId] */\n      dup2\n      mstore\n      0x20\n      add\n      swap1\n      dup2\n      mstore\n      0x20\n      add\n      0x00\n      keccak256\n        /* \"contracts/mainliquidations.sol\":3072:3095  loans[_poolId].operator */\n      0x02\n      add\n      0x00\n      swap1\n      sload\n      swap1\n      0x0100\n      exp\n      swap1\n      div\n      0xffffffffffffffffffffffffffffffffffffffff\n      and\n        /* \"contracts/mainliquidations.sol\":3072:3109  loans[_poolId].operator == msg.sender */\n      0xffffffffffffffffffffffffffffffffffffffff\n      and\n      eq\n        /* \"contracts/mainliquidations.sol\":3015:3110  (loans[_poolId].owner == msg.sender) ||... */\n    tag_183:\n        /* \"contracts/mainliquidations.sol\":2994:3150  require(... */\n      tag_184\n      jumpi\n      mload(0x40)\n      0x08c379a000000000000000000000000000000000000000000000000000000000\n      dup2\n      mstore\n      0x04\n      add\n      tag_185\n      swap1\n      tag_81\n      jump\t// in\n    tag_185:\n      mload(0x40)\n      dup1\n      swap2\n      sub\n      swap1\n      revert\n    tag_184:\n        /* \"contracts/mainliquidations.sol\":8721:8737  Loan memory loan */\n      0x00\n        /* \"contracts/mainliquidations.sol\":8740:8745  loans */\n      0x01\n        /* \"contracts/mainliquidations.sol\":8740:8754  loans[_poolId] */\n      0x00\n        /* \"contracts/mainliquidations.sol\":8746:8753  _poolId */\n      dup6\n        /* \"contracts/mainliquidations.sol\":8740:8754  loans[_poolId] */\n      dup2\n      mstore\n      0x20\n      add\n      swap1\n      dup2\n      mstore\n      0x20\n      add\n      0x00\n      keccak256\n        /* \"contracts/mainliquidations.sol\":8721:8754  Loan memory loan = loans[_poolId] */\n      mload(0x40)\n      dup1\n      0x0180\n      add\n      0x40\n      mstore\n      swap1\n      dup2\n      0x00\n      dup3\n      add\n      0x00\n      swap1\n      sload\n      swap1\n      0x0100\n      exp\n      swap1\n      div\n      0xffffffffffffffffffffffffffffffffffffffff\n      and\n      0xffffffffffffffffffffffffffffffffffffffff\n      and\n      0xffffffffffffffffffffffffffffffffffffffff\n      and\n      dup2\n      mstore\n      0x20\n      add\n      0x01\n      dup3\n      add\n      0x00\n      swap1\n      sload\n      swap1\n      0x0100\n      exp\n      swap1\n      div\n      0xffffffffffffffffffffffffffffffffffffffff\n      and\n      0xffffffffffffffffffffffffffffffffffffffff\n      and\n      0xffffffffffffffffffffffffffffffffffffffff\n      and\n      dup2\n      mstore\n      0x20\n      add\n      0x02\n      dup3\n      add\n      0x00\n      swap1\n      sload\n      swap1\n      0x0100\n      exp\n      swap1\n      div\n      0xffffffffffffffffffffffffffffffffffffffff\n      and\n      0xffffffffffffffffffffffffffffffffffffffff\n      and\n      0xffffffffffffffffffffffffffffffffffffffff\n      and\n      dup2\n      mstore\n      0x20\n      add\n      0x03\n      dup3\n      add\n      0x00\n      swap1\n      sload\n      swap1\n      0x0100\n      exp\n      swap1\n      div\n      0xffffffffffffffffffffffffffffffffffffffff\n      and\n      0xffffffffffffffffffffffffffffffffffffffff\n      and\n      0xffffffffffffffffffffffffffffffffffffffff\n      and\n      dup2\n      mstore\n      0x20\n      add\n      0x04\n      dup3\n      add\n      0x00\n      swap1\n      sload\n      swap1\n      0x0100\n      exp\n      swap1\n      div\n      0xffffffffffffffffffffffffffffffffffffffff\n      and\n      0xffffffffffffffffffffffffffffffffffffffff\n      and\n      0xffffffffffffffffffffffffffffffffffffffff\n      and\n      dup2\n      mstore\n      0x20\n      add\n      0x05\n      dup3\n      add\n      sload\n      dup2\n      mstore\n      0x20\n      add\n      0x06\n      dup3\n      add\n      sload\n      dup2\n      mstore\n      0x20\n      add\n      0x07\n      dup3\n      add\n      sload\n      dup2\n      mstore\n      0x20\n      add\n      0x08\n      dup3\n      add\n      sload\n      dup2\n      mstore\n      0x20\n      add\n      0x09\n      dup3\n      add\n      sload\n      dup2\n      mstore\n      0x20\n      add\n      0x0a\n      dup3\n      add\n      0x00\n      swap1\n      sload\n      swap1\n      0x0100\n      exp\n      swap1\n      div\n      0xff\n      and\n      iszero\n      iszero\n      iszero\n      iszero\n      dup2\n      mstore\n      0x20\n      add\n      0x0a\n      dup3\n      add\n      0x01\n      swap1\n      sload\n      swap1\n      0x0100\n      exp\n      swap1\n      div\n      0xff\n      and\n      iszero\n      iszero\n      iszero\n      iszero\n      dup2\n      mstore\n      pop\n      pop\n      swap1\n      pop\n        /* \"contracts/mainliquidations.sol\":8764:8784  Bid memory latestBid */\n      0x00\n        /* \"contracts/mainliquidations.sol\":8787:8791  bids */\n      0x02\n        /* \"contracts/mainliquidations.sol\":8787:8800  bids[_poolId] */\n      0x00\n        /* \"contracts/mainliquidations.sol\":8792:8799  _poolId */\n      dup7\n        /* \"contracts/mainliquidations.sol\":8787:8800  bids[_poolId] */\n      dup2\n      mstore\n      0x20\n      add\n      swap1\n      dup2\n      mstore\n      0x20\n      add\n      0x00\n      keccak256\n        /* \"contracts/mainliquidations.sol\":8787:8814  bids[_poolId][loan.numBids] */\n      0x00\n        /* \"contracts/mainliquidations.sol\":8801:8805  loan */\n      dup4\n        /* \"contracts/mainliquidations.sol\":8801:8813  loan.numBids */\n      0x0120\n      add\n      mload\n        /* \"contracts/mainliquidations.sol\":8787:8814  bids[_poolId][loan.numBids] */\n      dup2\n      mstore\n      0x20\n      add\n      swap1\n      dup2\n      mstore\n      0x20\n      add\n      0x00\n      keccak256\n        /* \"contracts/mainliquidations.sol\":8764:8814  Bid memory latestBid = bids[_poolId][loan.numBids] */\n      mload(0x40)\n      dup1\n      0xa0\n      add\n      0x40\n      mstore\n      swap1\n      dup2\n      0x00\n      dup3\n      add\n      sload\n      dup2\n      mstore\n      0x20\n      add\n      0x01\n      dup3\n      add\n      sload\n      dup2\n      mstore\n      0x20\n      add\n      0x02\n      dup3\n      add\n      0x00\n      swap1\n      sload\n      swap1\n      0x0100\n      exp\n      swap1\n      div\n      0xffffffffffffffffffffffffffffffffffffffff\n      and\n      0xffffffffffffffffffffffffffffffffffffffff\n      and\n      0xffffffffffffffffffffffffffffffffffffffff\n      and\n      dup2\n      mstore\n      0x20\n      add\n      0x03\n      dup3\n      add\n      sload\n      dup2\n      mstore\n      0x20\n      add\n      0x04\n      dup3\n      add\n      0x00\n      swap1\n      sload\n      swap1\n      0x0100\n      exp\n      swap1\n      div\n      0xffff\n      and\n      0xffff\n      and\n      0xffff\n      and\n      dup2\n      mstore\n      pop\n      pop\n      swap1\n      pop\n        /* \"contracts/mainliquidations.sol\":8832:8836  loan */\n      dup2\n        /* \"contracts/mainliquidations.sol\":8832:8842  loan.token */\n      0x20\n      add\n      mload\n        /* \"contracts/mainliquidations.sol\":8825:8856  IERC20(loan.token).transferFrom */\n      0xffffffffffffffffffffffffffffffffffffffff\n      and\n      0x23b872dd\n        /* \"contracts/mainliquidations.sol\":8857:8867  msg.sender */\n      caller\n        /* \"contracts/mainliquidations.sol\":8877:8881  this */\n      address\n        /* \"contracts/mainliquidations.sol\":8884:8891  _amount */\n      dup8\n        /* \"contracts/mainliquidations.sol\":8825:8892  IERC20(loan.token).transferFrom(msg.sender, address(this), _amount) */\n      mload(0x40)\n      dup5\n      0xffffffff\n      and\n      0xe0\n      shl\n      dup2\n      mstore\n      0x04\n      add\n      tag_187\n      swap4\n      swap3\n      swap2\n      swap1\n      tag_84\n      jump\t// in\n    tag_187:\n      0x20\n      mload(0x40)\n      dup1\n      dup4\n      sub\n      dup2\n      0x00\n      dup8\n      gas\n      call\n      iszero\n      dup1\n      iszero\n      tag_189\n      jumpi\n      returndatasize\n      0x00\n      dup1\n      returndatacopy\n      revert(0x00, returndatasize)\n    tag_189:\n      pop\n      pop\n      pop\n      pop\n      mload(0x40)\n      returndatasize\n      not(0x1f)\n      0x1f\n      dup3\n      add\n      and\n      dup3\n      add\n      dup1\n      0x40\n      mstore\n      pop\n      dup2\n      add\n      swap1\n      tag_190\n      swap2\n      swap1\n      tag_118\n      jump\t// in\n    tag_190:\n      pop\n        /* \"contracts/mainliquidations.sol\":8957:8985  _calculateLoanValue(_poolId) */\n      tag_191\n        /* \"contracts/mainliquidations.sol\":8977:8984  _poolId */\n      dup6\n        /* \"contracts/mainliquidations.sol\":8957:8976  _calculateLoanValue */\n      tag_108\n        /* \"contracts/mainliquidations.sol\":8957:8985  _calculateLoanValue(_poolId) */\n      jump\t// in\n    tag_191:\n        /* \"contracts/mainliquidations.sol\":8929:8944  userPoolReserve */\n      0x04\n        /* \"contracts/mainliquidations.sol\":8929:8953  userPoolReserve[_poolId] */\n      0x00\n        /* \"contracts/mainliquidations.sol\":8945:8952  _poolId */\n      dup8\n        /* \"contracts/mainliquidations.sol\":8929:8953  userPoolReserve[_poolId] */\n      dup2\n      mstore\n      0x20\n      add\n      swap1\n      dup2\n      mstore\n      0x20\n      add\n      0x00\n      keccak256\n      sload\n        /* \"contracts/mainliquidations.sol\":8919:8926  _amount */\n      dup6\n        /* \"contracts/mainliquidations.sol\":8919:8953  _amount + userPoolReserve[_poolId] */\n      tag_192\n      swap2\n      swap1\n      tag_113\n      jump\t// in\n    tag_192:\n        /* \"contracts/mainliquidations.sol\":8919:8985  _amount + userPoolReserve[_poolId] >= _calculateLoanValue(_poolId) */\n      lt\n        /* \"contracts/mainliquidations.sol\":8902:9229  if (... */\n      tag_193\n      jumpi\n        /* \"contracts/mainliquidations.sol\":9034:9045  IERC721 NFT */\n      0x00\n        /* \"contracts/mainliquidations.sol\":9056:9060  loan */\n      dup3\n        /* \"contracts/mainliquidations.sol\":9056:9078  loan.collectionAddress */\n      0x80\n      add\n      mload\n        /* \"contracts/mainliquidations.sol\":9034:9079  IERC721 NFT = IERC721(loan.collectionAddress) */\n      swap1\n      pop\n        /* \"contracts/mainliquidations.sol\":9093:9096  NFT */\n      dup1\n        /* \"contracts/mainliquidations.sol\":9093:9113  NFT.safeTransferFrom */\n      0xffffffffffffffffffffffffffffffffffffffff\n      and\n      0x42842e0e\n        /* \"contracts/mainliquidations.sol\":9122:9126  this */\n      address\n        /* \"contracts/mainliquidations.sol\":9129:9138  latestBid */\n      dup5\n        /* \"contracts/mainliquidations.sol\":9129:9143  latestBid.user */\n      0x40\n      add\n      mload\n        /* \"contracts/mainliquidations.sol\":9145:9149  loan */\n      dup7\n        /* \"contracts/mainliquidations.sol\":9145:9155  loan.nftId */\n      0xc0\n      add\n      mload\n        /* \"contracts/mainliquidations.sol\":9093:9156  NFT.safeTransferFrom(address(this), latestBid.user, loan.nftId) */\n      mload(0x40)\n      dup5\n      0xffffffff\n      and\n      0xe0\n      shl\n      dup2\n      mstore\n      0x04\n      add\n      tag_194\n      swap4\n      swap3\n      swap2\n      swap1\n      tag_84\n      jump\t// in\n    tag_194:\n      0x00\n      mload(0x40)\n      dup1\n      dup4\n      sub\n      dup2\n      0x00\n      dup8\n      dup1\n      extcodesize\n      iszero\n      dup1\n      iszero\n      tag_195\n      jumpi\n      0x00\n      dup1\n      revert\n    tag_195:\n      pop\n      gas\n      call\n      iszero\n      dup1\n      iszero\n      tag_197\n      jumpi\n      returndatasize\n      0x00\n      dup1\n      returndatacopy\n      revert(0x00, returndatasize)\n    tag_197:\n      pop\n      pop\n      pop\n      pop\n        /* \"contracts/mainliquidations.sol\":9175:9193  loanEnded(_poolId) */\n      0xcf3eafc70e544bbb0b7b916314be01382e9819ef1dea730bd182222030ffe4a9\n        /* \"contracts/mainliquidations.sol\":9185:9192  _poolId */\n      dup7\n        /* \"contracts/mainliquidations.sol\":9175:9193  loanEnded(_poolId) */\n      mload(0x40)\n      tag_198\n      swap2\n      swap1\n      tag_23\n      jump\t// in\n    tag_198:\n      mload(0x40)\n      dup1\n      swap2\n      sub\n      swap1\n      log1\n        /* \"contracts/mainliquidations.sol\":9207:9218  delete loan */\n      tag_199\n      tag_90\n      jump\t// in\n    tag_199:\n      swap3\n      pop\n        /* \"contracts/mainliquidations.sol\":8996:9229  {... */\n      pop\n        /* \"contracts/mainliquidations.sol\":8902:9229  if (... */\n    tag_193:\n        /* \"contracts/mainliquidations.sol\":9266:9273  _amount */\n      dup4\n        /* \"contracts/mainliquidations.sol\":9238:9253  userPoolReserve */\n      0x04\n        /* \"contracts/mainliquidations.sol\":9238:9262  userPoolReserve[_poolId] */\n      0x00\n        /* \"contracts/mainliquidations.sol\":9254:9261  _poolId */\n      dup8\n        /* \"contracts/mainliquidations.sol\":9238:9262  userPoolReserve[_poolId] */\n      dup2\n      mstore\n      0x20\n      add\n      swap1\n      dup2\n      mstore\n      0x20\n      add\n      0x00\n      keccak256\n      0x00\n        /* \"contracts/mainliquidations.sol\":9238:9273  userPoolReserve[_poolId] += _amount */\n      dup3\n      dup3\n      sload\n      tag_200\n      swap2\n      swap1\n      tag_113\n      jump\t// in\n    tag_200:\n      swap3\n      pop\n      pop\n      dup2\n      swap1\n      sstore\n      pop\n        /* \"contracts/mainliquidations.sol\":8667:9280  {... */\n      pop\n      pop\n        /* \"contracts/mainliquidations.sol\":8570:9280  function repay(uint256 _poolId, uint256 _amount)... */\n      pop\n      pop\n      pop\n      jump\t// out\n        /* \"contracts/mainliquidations.sol\":2064:2101  mapping(uint256 => Loan) public loans */\n    tag_70:\n      mstore(0x20, 0x01)\n      dup1\n      0x00\n      mstore\n      keccak256(0x00, 0x40)\n      0x00\n      swap2\n      pop\n      swap1\n      pop\n      dup1\n      0x00\n      add\n      0x00\n      swap1\n      sload\n      swap1\n      0x0100\n      exp\n      swap1\n      div\n      0xffffffffffffffffffffffffffffffffffffffff\n      and\n      swap1\n      dup1\n      0x01\n      add\n      0x00\n      swap1\n      sload\n      swap1\n      0x0100\n      exp\n      swap1\n      div\n      0xffffffffffffffffffffffffffffffffffffffff\n      and\n      swap1\n      dup1\n      0x02\n      add\n      0x00\n      swap1\n      sload\n      swap1\n      0x0100\n      exp\n      swap1\n      div\n      0xffffffffffffffffffffffffffffffffffffffff\n      and\n      swap1\n      dup1\n      0x03\n      add\n      0x00\n      swap1\n      sload\n      swap1\n      0x0100\n      exp\n      swap1\n      div\n      0xffffffffffffffffffffffffffffffffffffffff\n      and\n      swap1\n      dup1\n      0x04\n      add\n      0x00\n      swap1\n      sload\n      swap1\n      0x0100\n      exp\n      swap1\n      div\n      0xffffffffffffffffffffffffffffffffffffffff\n      and\n      swap1\n      dup1\n      0x05\n      add\n      sload\n      swap1\n      dup1\n      0x06\n      add\n      sload\n      swap1\n      dup1\n      0x07\n      add\n      sload\n      swap1\n      dup1\n      0x08\n      add\n      sload\n      swap1\n      dup1\n      0x09\n      add\n      sload\n      swap1\n      dup1\n      0x0a\n      add\n      0x00\n      swap1\n      sload\n      swap1\n      0x0100\n      exp\n      swap1\n      div\n      0xff\n      and\n      swap1\n      dup1\n      0x0a\n      add\n      0x01\n      swap1\n      sload\n      swap1\n      0x0100\n      exp\n      swap1\n      div\n      0xff\n      and\n      swap1\n      pop\n      dup13\n      jump\t// out\n        /* \"contracts/mainliquidations.sol\":7881:8066  function changeWhitelist(... */\n    tag_76:\n        /* \"contracts/mainliquidations.sol\":8052:8059  _status */\n      dup1\n        /* \"contracts/mainliquidations.sol\":8007:8027  whitelistedAddresses */\n      0x03\n        /* \"contracts/mainliquidations.sol\":8007:8036  whitelistedAddresses[_poolId] */\n      0x00\n        /* \"contracts/mainliquidations.sol\":8028:8035  _poolId */\n      dup6\n        /* \"contracts/mainliquidations.sol\":8007:8036  whitelistedAddresses[_poolId] */\n      dup2\n      mstore\n      0x20\n      add\n      swap1\n      dup2\n      mstore\n      0x20\n      add\n      0x00\n      keccak256\n        /* \"contracts/mainliquidations.sol\":8007:8049  whitelistedAddresses[_poolId][_newAddress] */\n      0x00\n        /* \"contracts/mainliquidations.sol\":8037:8048  _newAddress */\n      dup5\n        /* \"contracts/mainliquidations.sol\":8007:8049  whitelistedAddresses[_poolId][_newAddress] */\n      0xffffffffffffffffffffffffffffffffffffffff\n      and\n      0xffffffffffffffffffffffffffffffffffffffff\n      and\n      dup2\n      mstore\n      0x20\n      add\n      swap1\n      dup2\n      mstore\n      0x20\n      add\n      0x00\n      keccak256\n      0x00\n        /* \"contracts/mainliquidations.sol\":8007:8059  whitelistedAddresses[_poolId][_newAddress] = _status */\n      0x0100\n      exp\n      dup2\n      sload\n      dup2\n      0xff\n      mul\n      not\n      and\n      swap1\n      dup4\n      iszero\n      iszero\n      mul\n      or\n      swap1\n      sstore\n      pop\n        /* \"contracts/mainliquidations.sol\":7881:8066  function changeWhitelist(... */\n      pop\n      pop\n      pop\n      jump\t// out\n        /* \"contracts/mainliquidations.sol\":12116:12246  function _started(uint256 _poolId) internal view returns (bool) {... */\n    tag_93:\n        /* \"contracts/mainliquidations.sol\":12174:12178  bool */\n      0x00\n        /* \"contracts/mainliquidations.sol\":12224:12239  block.timestamp */\n      timestamp\n        /* \"contracts/mainliquidations.sol\":12197:12202  loans */\n      0x01\n        /* \"contracts/mainliquidations.sol\":12197:12211  loans[_poolId] */\n      0x00\n        /* \"contracts/mainliquidations.sol\":12203:12210  _poolId */\n      dup5\n        /* \"contracts/mainliquidations.sol\":12197:12211  loans[_poolId] */\n      dup2\n      mstore\n      0x20\n      add\n      swap1\n      dup2\n      mstore\n      0x20\n      add\n      0x00\n      keccak256\n        /* \"contracts/mainliquidations.sol\":12197:12221  loans[_poolId].startTime */\n      0x07\n      add\n      sload\n        /* \"contracts/mainliquidations.sol\":12197:12239  loans[_poolId].startTime < block.timestamp */\n      lt\n        /* \"contracts/mainliquidations.sol\":12190:12239  return loans[_poolId].startTime < block.timestamp */\n      swap1\n      pop\n        /* \"contracts/mainliquidations.sol\":12116:12246  function _started(uint256 _poolId) internal view returns (bool) {... */\n      swap2\n      swap1\n      pop\n      jump\t// out\n        /* \"contracts/mainliquidations.sol\":11983:12110  function _ended(uint256 _poolId) internal view returns (bool) {... */\n    tag_98:\n        /* \"contracts/mainliquidations.sol\":12039:12043  bool */\n      0x00\n        /* \"contracts/mainliquidations.sol\":12088:12103  block.timestamp */\n      timestamp\n        /* \"contracts/mainliquidations.sol\":12062:12067  loans */\n      0x01\n        /* \"contracts/mainliquidations.sol\":12062:12076  loans[_poolId] */\n      0x00\n        /* \"contracts/mainliquidations.sol\":12068:12075  _poolId */\n      dup5\n        /* \"contracts/mainliquidations.sol\":12062:12076  loans[_poolId] */\n      dup2\n      mstore\n      0x20\n      add\n      swap1\n      dup2\n      mstore\n      0x20\n      add\n      0x00\n      keccak256\n        /* \"contracts/mainliquidations.sol\":12062:12084  loans[_poolId].endTime */\n      0x08\n      add\n      sload\n        /* \"contracts/mainliquidations.sol\":12062:12103  loans[_poolId].endTime <= block.timestamp */\n      gt\n      iszero\n        /* \"contracts/mainliquidations.sol\":12055:12103  return loans[_poolId].endTime <= block.timestamp */\n      swap1\n      pop\n        /* \"contracts/mainliquidations.sol\":11983:12110  function _ended(uint256 _poolId) internal view returns (bool) {... */\n      swap2\n      swap1\n      pop\n      jump\t// out\n        /* \"contracts/mainliquidations.sol\":11395:11977  function _calculateLoanValue(uint256 _poolId)... */\n    tag_108:\n        /* \"contracts/mainliquidations.sol\":11488:11495  uint256 */\n      0x00\n        /* \"contracts/mainliquidations.sol\":11511:11527  Loan memory loan */\n      dup1\n        /* \"contracts/mainliquidations.sol\":11530:11535  loans */\n      0x01\n        /* \"contracts/mainliquidations.sol\":11530:11544  loans[_poolId] */\n      0x00\n        /* \"contracts/mainliquidations.sol\":11536:11543  _poolId */\n      dup5\n        /* \"contracts/mainliquidations.sol\":11530:11544  loans[_poolId] */\n      dup2\n      mstore\n      0x20\n      add\n      swap1\n      dup2\n      mstore\n      0x20\n      add\n      0x00\n      keccak256\n        /* \"contracts/mainliquidations.sol\":11511:11544  Loan memory loan = loans[_poolId] */\n      mload(0x40)\n      dup1\n      0x0180\n      add\n      0x40\n      mstore\n      swap1\n      dup2\n      0x00\n      dup3\n      add\n      0x00\n      swap1\n      sload\n      swap1\n      0x0100\n      exp\n      swap1\n      div\n      0xffffffffffffffffffffffffffffffffffffffff\n      and\n      0xffffffffffffffffffffffffffffffffffffffff\n      and\n      0xffffffffffffffffffffffffffffffffffffffff\n      and\n      dup2\n      mstore\n      0x20\n      add\n      0x01\n      dup3\n      add\n      0x00\n      swap1\n      sload\n      swap1\n      0x0100\n      exp\n      swap1\n      div\n      0xffffffffffffffffffffffffffffffffffffffff\n      and\n      0xffffffffffffffffffffffffffffffffffffffff\n      and\n      0xffffffffffffffffffffffffffffffffffffffff\n      and\n      dup2\n      mstore\n      0x20\n      add\n      0x02\n      dup3\n      add\n      0x00\n      swap1\n      sload\n      swap1\n      0x0100\n      exp\n      swap1\n      div\n      0xffffffffffffffffffffffffffffffffffffffff\n      and\n      0xffffffffffffffffffffffffffffffffffffffff\n      and\n      0xffffffffffffffffffffffffffffffffffffffff\n      and\n      dup2\n      mstore\n      0x20\n      add\n      0x03\n      dup3\n      add\n      0x00\n      swap1\n      sload\n      swap1\n      0x0100\n      exp\n      swap1\n      div\n      0xffffffffffffffffffffffffffffffffffffffff\n      and\n      0xffffffffffffffffffffffffffffffffffffffff\n      and\n      0xffffffffffffffffffffffffffffffffffffffff\n      and\n      dup2\n      mstore\n      0x20\n      add\n      0x04\n      dup3\n      add\n      0x00\n      swap1\n      sload\n      swap1\n      0x0100\n      exp\n      swap1\n      div\n      0xffffffffffffffffffffffffffffffffffffffff\n      and\n      0xffffffffffffffffffffffffffffffffffffffff\n      and\n      0xffffffffffffffffffffffffffffffffffffffff\n      and\n      dup2\n      mstore\n      0x20\n      add\n      0x05\n      dup3\n      add\n      sload\n      dup2\n      mstore\n      0x20\n      add\n      0x06\n      dup3\n      add\n      sload\n      dup2\n      mstore\n      0x20\n      add\n      0x07\n      dup3\n      add\n      sload\n      dup2\n      mstore\n      0x20\n      add\n      0x08\n      dup3\n      add\n      sload\n      dup2\n      mstore\n      0x20\n      add\n      0x09\n      dup3\n      add\n      sload\n      dup2\n      mstore\n      0x20\n      add\n      0x0a\n      dup3\n      add\n      0x00\n      swap1\n      sload\n      swap1\n      0x0100\n      exp\n      swap1\n      div\n      0xff\n      and\n      iszero\n      iszero\n      iszero\n      iszero\n      dup2\n      mstore\n      0x20\n      add\n      0x0a\n      dup3\n      add\n      0x01\n      swap1\n      sload\n      swap1\n      0x0100\n      exp\n      swap1\n      div\n      0xff\n      and\n      iszero\n      iszero\n      iszero\n      iszero\n      dup2\n      mstore\n      pop\n      pop\n      swap1\n      pop\n        /* \"contracts/mainliquidations.sol\":11554:11574  Bid memory latestBid */\n      0x00\n        /* \"contracts/mainliquidations.sol\":11577:11581  bids */\n      0x02\n        /* \"contracts/mainliquidations.sol\":11577:11590  bids[_poolId] */\n      0x00\n        /* \"contracts/mainliquidations.sol\":11582:11589  _poolId */\n      dup6\n        /* \"contracts/mainliquidations.sol\":11577:11590  bids[_poolId] */\n      dup2\n      mstore\n      0x20\n      add\n      swap1\n      dup2\n      mstore\n      0x20\n      add\n      0x00\n      keccak256\n        /* \"contracts/mainliquidations.sol\":11577:11604  bids[_poolId][loan.numBids] */\n      0x00\n        /* \"contracts/mainliquidations.sol\":11591:11595  loan */\n      dup4\n        /* \"contracts/mainliquidations.sol\":11591:11603  loan.numBids */\n      0x0120\n      add\n      mload\n        /* \"contracts/mainliquidations.sol\":11577:11604  bids[_poolId][loan.numBids] */\n      dup2\n      mstore\n      0x20\n      add\n      swap1\n      dup2\n      mstore\n      0x20\n      add\n      0x00\n      keccak256\n        /* \"contracts/mainliquidations.sol\":11554:11604  Bid memory latestBid = bids[_poolId][loan.numBids] */\n      mload(0x40)\n      dup1\n      0xa0\n      add\n      0x40\n      mstore\n      swap1\n      dup2\n      0x00\n      dup3\n      add\n      sload\n      dup2\n      mstore\n      0x20\n      add\n      0x01\n      dup3\n      add\n      sload\n      dup2\n      mstore\n      0x20\n      add\n      0x02\n      dup3\n      add\n      0x00\n      swap1\n      sload\n      swap1\n      0x0100\n      exp\n      swap1\n      div\n      0xffffffffffffffffffffffffffffffffffffffff\n      and\n      0xffffffffffffffffffffffffffffffffffffffff\n      and\n      0xffffffffffffffffffffffffffffffffffffffff\n      and\n      dup2\n      mstore\n      0x20\n      add\n      0x03\n      dup3\n      add\n      sload\n      dup2\n      mstore\n      0x20\n      add\n      0x04\n      dup3\n      add\n      0x00\n      swap1\n      sload\n      swap1\n      0x0100\n      exp\n      swap1\n      div\n      0xffff\n      and\n      0xffff\n      and\n      0xffff\n      and\n      dup2\n      mstore\n      pop\n      pop\n      swap1\n      pop\n        /* \"contracts/mainliquidations.sol\":11614:11633  uint256 timeElapsed */\n      0x00\n        /* \"contracts/mainliquidations.sol\":11647:11662  _ended(_poolId) */\n      tag_205\n        /* \"contracts/mainliquidations.sol\":11654:11661  _poolId */\n      dup6\n        /* \"contracts/mainliquidations.sol\":11647:11653  _ended */\n      tag_98\n        /* \"contracts/mainliquidations.sol\":11647:11662  _ended(_poolId) */\n      jump\t// in\n    tag_205:\n        /* \"contracts/mainliquidations.sol\":11643:11815  if (_ended(_poolId)) {... */\n      iszero\n      tag_206\n      jumpi\n        /* \"contracts/mainliquidations.sol\":11712:11716  loan */\n      dup3\n        /* \"contracts/mainliquidations.sol\":11712:11724  loan.endTime */\n      0x0100\n      add\n      mload\n        /* \"contracts/mainliquidations.sol\":11692:11701  latestBid */\n      dup3\n        /* \"contracts/mainliquidations.sol\":11692:11709  latestBid.bidTime */\n      0x00\n      add\n      mload\n        /* \"contracts/mainliquidations.sol\":11692:11724  latestBid.bidTime - loan.endTime */\n      tag_207\n      swap2\n      swap1\n      tag_120\n      jump\t// in\n    tag_207:\n        /* \"contracts/mainliquidations.sol\":11678:11724  timeElapsed = latestBid.bidTime - loan.endTime */\n      swap1\n      pop\n        /* \"contracts/mainliquidations.sol\":11643:11815  if (_ended(_poolId)) {... */\n      jump(tag_208)\n    tag_206:\n        /* \"contracts/mainliquidations.sol\":11789:11804  block.timestamp */\n      timestamp\n        /* \"contracts/mainliquidations.sol\":11769:11778  latestBid */\n      dup3\n        /* \"contracts/mainliquidations.sol\":11769:11786  latestBid.bidTime */\n      0x00\n      add\n      mload\n        /* \"contracts/mainliquidations.sol\":11769:11804  latestBid.bidTime - block.timestamp */\n      tag_209\n      swap2\n      swap1\n      tag_120\n      jump\t// in\n    tag_209:\n        /* \"contracts/mainliquidations.sol\":11755:11804  timeElapsed = latestBid.bidTime - block.timestamp */\n      swap1\n      pop\n        /* \"contracts/mainliquidations.sol\":11643:11815  if (_ended(_poolId)) {... */\n    tag_208:\n        /* \"contracts/mainliquidations.sol\":2805:2823  60 * 60 * 24 * 365 */\n      0x01e13380\n        /* \"contracts/mainliquidations.sol\":11924:11935  timeElapsed */\n      dup2\n        /* \"contracts/mainliquidations.sol\":11914:11920  10**18 */\n      0x0de0b6b3a7640000\n        /* \"contracts/mainliquidations.sol\":11902:11906  loan */\n      dup6\n        /* \"contracts/mainliquidations.sol\":11902:11910  loan.apr */\n      0xa0\n      add\n      mload\n        /* \"contracts/mainliquidations.sol\":11880:11889  latestBid */\n      dup6\n        /* \"contracts/mainliquidations.sol\":11880:11899  latestBid.bidAmount */\n      0x20\n      add\n      mload\n        /* \"contracts/mainliquidations.sol\":11880:11910  latestBid.bidAmount * loan.apr */\n      tag_210\n      swap2\n      swap1\n      tag_211\n      jump\t// in\n    tag_210:\n        /* \"contracts/mainliquidations.sol\":11879:11920  (latestBid.bidAmount * loan.apr) / 10**18 */\n      tag_212\n      swap2\n      swap1\n      tag_213\n      jump\t// in\n    tag_212:\n        /* \"contracts/mainliquidations.sol\":11878:11935  ((latestBid.bidAmount * loan.apr) / 10**18) * timeElapsed */\n      tag_214\n      swap2\n      swap1\n      tag_211\n      jump\t// in\n    tag_214:\n        /* \"contracts/mainliquidations.sol\":11877:11970  (((latestBid.bidAmount * loan.apr) / 10**18) * timeElapsed) /... */\n      tag_215\n      swap2\n      swap1\n      tag_213\n      jump\t// in\n    tag_215:\n        /* \"contracts/mainliquidations.sol\":11843:11852  latestBid */\n      dup3\n        /* \"contracts/mainliquidations.sol\":11843:11862  latestBid.bidAmount */\n      0x20\n      add\n      mload\n        /* \"contracts/mainliquidations.sol\":11843:11970  latestBid.bidAmount +... */\n      tag_216\n      swap2\n      swap1\n      tag_113\n      jump\t// in\n    tag_216:\n        /* \"contracts/mainliquidations.sol\":11824:11970  return... */\n      swap4\n      pop\n      pop\n      pop\n      pop\n        /* \"contracts/mainliquidations.sol\":11395:11977  function _calculateLoanValue(uint256 _poolId)... */\n      swap2\n      swap1\n      pop\n      jump\t// out\n        /* \"contracts/mainliquidations.sol\":10208:10789  function _liquidate(... */\n    tag_146:\n        /* \"contracts/mainliquidations.sol\":10338:10342  bool */\n      0x00\n        /* \"contracts/mainliquidations.sol\":10354:10374  uint256 currentPrice */\n      dup1\n        /* \"contracts/mainliquidations.sol\":10493:10497  loan */\n      dup5\n        /* \"contracts/mainliquidations.sol\":10493:10511  loan.oracleAddress */\n      0x60\n      add\n      mload\n        /* \"contracts/mainliquidations.sol\":10480:10531  IPriceOracle(loan.oracleAddress).getUnderlyingPrice */\n      0xffffffffffffffffffffffffffffffffffffffff\n      and\n      0xfc57d4df\n        /* \"contracts/mainliquidations.sol\":10549:10553  loan */\n      dup7\n        /* \"contracts/mainliquidations.sol\":10549:10559  loan.token */\n      0x20\n      add\n      mload\n        /* \"contracts/mainliquidations.sol\":10480:10573  IPriceOracle(loan.oracleAddress).getUnderlyingPrice(... */\n      mload(0x40)\n      dup3\n      0xffffffff\n      and\n      0xe0\n      shl\n      dup2\n      mstore\n      0x04\n      add\n      tag_218\n      swap2\n      swap1\n      tag_219\n      jump\t// in\n    tag_218:\n      0x20\n      mload(0x40)\n      dup1\n      dup4\n      sub\n      dup2\n      dup7\n      gas\n      staticcall\n      iszero\n      dup1\n      iszero\n      tag_221\n      jumpi\n      returndatasize\n      0x00\n      dup1\n      returndatacopy\n      revert(0x00, returndatasize)\n    tag_221:\n      pop\n      pop\n      pop\n      pop\n      mload(0x40)\n      returndatasize\n      not(0x1f)\n      0x1f\n      dup3\n      add\n      and\n      dup3\n      add\n      dup1\n      0x40\n      mstore\n      pop\n      dup2\n      add\n      swap1\n      tag_222\n      swap2\n      swap1\n      tag_223\n      jump\t// in\n    tag_222:\n        /* \"contracts/mainliquidations.sol\":10390:10394  loan */\n      dup6\n        /* \"contracts/mainliquidations.sol\":10390:10408  loan.oracleAddress */\n      0x60\n      add\n      mload\n        /* \"contracts/mainliquidations.sol\":10377:10441  IPriceOracle(loan.oracleAddress)... */\n      0xffffffffffffffffffffffffffffffffffffffff\n      and\n      0xfc57d4df\n        /* \"contracts/mainliquidations.sol\":10442:10446  loan */\n      dup8\n        /* \"contracts/mainliquidations.sol\":10442:10464  loan.collectionAddress */\n      0x80\n      add\n      mload\n        /* \"contracts/mainliquidations.sol\":10377:10465  IPriceOracle(loan.oracleAddress)... */\n      mload(0x40)\n      dup3\n      0xffffffff\n      and\n      0xe0\n      shl\n      dup2\n      mstore\n      0x04\n      add\n      tag_224\n      swap2\n      swap1\n      tag_219\n      jump\t// in\n    tag_224:\n      0x20\n      mload(0x40)\n      dup1\n      dup4\n      sub\n      dup2\n      dup7\n      gas\n      staticcall\n      iszero\n      dup1\n      iszero\n      tag_226\n      jumpi\n      returndatasize\n      0x00\n      dup1\n      returndatacopy\n      revert(0x00, returndatasize)\n    tag_226:\n      pop\n      pop\n      pop\n      pop\n      mload(0x40)\n      returndatasize\n      not(0x1f)\n      0x1f\n      dup3\n      add\n      and\n      dup3\n      add\n      dup1\n      0x40\n      mstore\n      pop\n      dup2\n      add\n      swap1\n      tag_227\n      swap2\n      swap1\n      tag_223\n      jump\t// in\n    tag_227:\n        /* \"contracts/mainliquidations.sol\":10377:10573  IPriceOracle(loan.oracleAddress)... */\n      tag_228\n      swap2\n      swap1\n      tag_213\n      jump\t// in\n    tag_228:\n        /* \"contracts/mainliquidations.sol\":10354:10573  uint256 currentPrice = IPriceOracle(loan.oracleAddress)... */\n      swap1\n      pop\n        /* \"contracts/mainliquidations.sol\":10713:10714  1 */\n      0x01\n        /* \"contracts/mainliquidations.sol\":10684:10696  currentPrice */\n      dup2\n        /* \"contracts/mainliquidations.sol\":10668:10677  latestBid */\n      dup6\n        /* \"contracts/mainliquidations.sol\":10668:10681  latestBid.ltv */\n      0x80\n      add\n      mload\n        /* \"contracts/mainliquidations.sol\":10668:10696  latestBid.ltv * currentPrice */\n      0xffff\n      and\n      tag_229\n      swap2\n      swap1\n      tag_211\n      jump\t// in\n    tag_229:\n        /* \"contracts/mainliquidations.sol\":10623:10638  userPoolReserve */\n      0x04\n        /* \"contracts/mainliquidations.sol\":10623:10647  userPoolReserve[_poolId] */\n      0x00\n        /* \"contracts/mainliquidations.sol\":10639:10646  _poolId */\n      dup7\n        /* \"contracts/mainliquidations.sol\":10623:10647  userPoolReserve[_poolId] */\n      dup2\n      mstore\n      0x20\n      add\n      swap1\n      dup2\n      mstore\n      0x20\n      add\n      0x00\n      keccak256\n      sload\n        /* \"contracts/mainliquidations.sol\":10601:10610  latestBid */\n      dup7\n        /* \"contracts/mainliquidations.sol\":10601:10620  latestBid.bidAmount */\n      0x20\n      add\n      mload\n        /* \"contracts/mainliquidations.sol\":10601:10647  latestBid.bidAmount - userPoolReserve[_poolId] */\n      tag_230\n      swap2\n      swap1\n      tag_120\n      jump\t// in\n    tag_230:\n        /* \"contracts/mainliquidations.sol\":10600:10697  (latestBid.bidAmount - userPoolReserve[_poolId]) /... */\n      tag_231\n      swap2\n      swap1\n      tag_213\n      jump\t// in\n    tag_231:\n        /* \"contracts/mainliquidations.sol\":10600:10714  (latestBid.bidAmount - userPoolReserve[_poolId]) /... */\n      lt\n        /* \"contracts/mainliquidations.sol\":10583:10762  if (... */\n      tag_232\n      jumpi\n        /* \"contracts/mainliquidations.sol\":10746:10751  false */\n      0x00\n        /* \"contracts/mainliquidations.sol\":10739:10751  return false */\n      swap2\n      pop\n      pop\n      jump(tag_217)\n        /* \"contracts/mainliquidations.sol\":10583:10762  if (... */\n    tag_232:\n        /* \"contracts/mainliquidations.sol\":10778:10782  true */\n      0x01\n        /* \"contracts/mainliquidations.sol\":10771:10782  return true */\n      swap2\n      pop\n      pop\n        /* \"contracts/mainliquidations.sol\":10208:10789  function _liquidate(... */\n    tag_217:\n      swap4\n      swap3\n      pop\n      pop\n      pop\n      jump\t// out\n    tag_90:\n      mload(0x40)\n      dup1\n      0x0180\n      add\n      0x40\n      mstore\n      dup1\n      and(0xffffffffffffffffffffffffffffffffffffffff, 0x00)\n      dup2\n      mstore\n      0x20\n      add\n      and(0xffffffffffffffffffffffffffffffffffffffff, 0x00)\n      dup2\n      mstore\n      0x20\n      add\n      and(0xffffffffffffffffffffffffffffffffffffffff, 0x00)\n      dup2\n      mstore\n      0x20\n      add\n      and(0xffffffffffffffffffffffffffffffffffffffff, 0x00)\n      dup2\n      mstore\n      0x20\n      add\n      and(0xffffffffffffffffffffffffffffffffffffffff, 0x00)\n      dup2\n      mstore\n      0x20\n      add\n      0x00\n      dup2\n      mstore\n      0x20\n      add\n      0x00\n      dup2\n      mstore\n      0x20\n      add\n      0x00\n      dup2\n      mstore\n      0x20\n      add\n      0x00\n      dup2\n      mstore\n      0x20\n      add\n      0x00\n      dup2\n      mstore\n      0x20\n      add\n      iszero(iszero(0x00))\n      dup2\n      mstore\n      0x20\n      add\n      iszero(iszero(0x00))\n      dup2\n      mstore\n      pop\n      swap1\n      jump\t// out\n        /* \"#utility.yul\":7:84   */\n    tag_233:\n        /* \"#utility.yul\":44:51   */\n      0x00\n        /* \"#utility.yul\":73:78   */\n      dup2\n        /* \"#utility.yul\":62:78   */\n      swap1\n      pop\n        /* \"#utility.yul\":7:84   */\n      swap2\n      swap1\n      pop\n      jump\t// out\n        /* \"#utility.yul\":90:208   */\n    tag_234:\n        /* \"#utility.yul\":177:201   */\n      tag_282\n        /* \"#utility.yul\":195:200   */\n      dup2\n        /* \"#utility.yul\":177:201   */\n      tag_233\n      jump\t// in\n    tag_282:\n        /* \"#utility.yul\":172:175   */\n      dup3\n        /* \"#utility.yul\":165:202   */\n      mstore\n        /* \"#utility.yul\":90:208   */\n      pop\n      pop\n      jump\t// out\n        /* \"#utility.yul\":214:436   */\n    tag_23:\n        /* \"#utility.yul\":307:311   */\n      0x00\n        /* \"#utility.yul\":345:347   */\n      0x20\n        /* \"#utility.yul\":334:343   */\n      dup3\n        /* \"#utility.yul\":330:348   */\n      add\n        /* \"#utility.yul\":322:348   */\n      swap1\n      pop\n        /* \"#utility.yul\":358:429   */\n      tag_284\n        /* \"#utility.yul\":426:427   */\n      0x00\n        /* \"#utility.yul\":415:424   */\n      dup4\n        /* \"#utility.yul\":411:428   */\n      add\n        /* \"#utility.yul\":402:408   */\n      dup5\n        /* \"#utility.yul\":358:429   */\n      tag_234\n      jump\t// in\n    tag_284:\n        /* \"#utility.yul\":214:436   */\n      swap3\n      swap2\n      pop\n      pop\n      jump\t// out\n        /* \"#utility.yul\":523:640   */\n    tag_236:\n        /* \"#utility.yul\":632:633   */\n      0x00\n        /* \"#utility.yul\":629:630   */\n      dup1\n        /* \"#utility.yul\":622:634   */\n      revert\n        /* \"#utility.yul\":769:891   */\n    tag_238:\n        /* \"#utility.yul\":842:866   */\n      tag_289\n        /* \"#utility.yul\":860:865   */\n      dup2\n        /* \"#utility.yul\":842:866   */\n      tag_233\n      jump\t// in\n    tag_289:\n        /* \"#utility.yul\":835:840   */\n      dup2\n        /* \"#utility.yul\":832:867   */\n      eq\n        /* \"#utility.yul\":822:885   */\n      tag_290\n      jumpi\n        /* \"#utility.yul\":881:882   */\n      0x00\n        /* \"#utility.yul\":878:879   */\n      dup1\n        /* \"#utility.yul\":871:883   */\n      revert\n        /* \"#utility.yul\":822:885   */\n    tag_290:\n        /* \"#utility.yul\":769:891   */\n      pop\n      jump\t// out\n        /* \"#utility.yul\":897:1036   */\n    tag_239:\n        /* \"#utility.yul\":943:948   */\n      0x00\n        /* \"#utility.yul\":981:987   */\n      dup2\n        /* \"#utility.yul\":968:988   */\n      calldataload\n        /* \"#utility.yul\":959:988   */\n      swap1\n      pop\n        /* \"#utility.yul\":997:1030   */\n      tag_292\n        /* \"#utility.yul\":1024:1029   */\n      dup2\n        /* \"#utility.yul\":997:1030   */\n      tag_238\n      jump\t// in\n    tag_292:\n        /* \"#utility.yul\":897:1036   */\n      swap3\n      swap2\n      pop\n      pop\n      jump\t// out\n        /* \"#utility.yul\":1042:1371   */\n    tag_26:\n        /* \"#utility.yul\":1101:1107   */\n      0x00\n        /* \"#utility.yul\":1150:1152   */\n      0x20\n        /* \"#utility.yul\":1138:1147   */\n      dup3\n        /* \"#utility.yul\":1129:1136   */\n      dup5\n        /* \"#utility.yul\":1125:1148   */\n      sub\n        /* \"#utility.yul\":1121:1153   */\n      slt\n        /* \"#utility.yul\":1118:1237   */\n      iszero\n      tag_294\n      jumpi\n        /* \"#utility.yul\":1156:1235   */\n      tag_295\n      tag_236\n      jump\t// in\n    tag_295:\n        /* \"#utility.yul\":1118:1237   */\n    tag_294:\n        /* \"#utility.yul\":1276:1277   */\n      0x00\n        /* \"#utility.yul\":1301:1354   */\n      tag_296\n        /* \"#utility.yul\":1346:1353   */\n      dup5\n        /* \"#utility.yul\":1337:1343   */\n      dup3\n        /* \"#utility.yul\":1326:1335   */\n      dup6\n        /* \"#utility.yul\":1322:1344   */\n      add\n        /* \"#utility.yul\":1301:1354   */\n      tag_239\n      jump\t// in\n    tag_296:\n        /* \"#utility.yul\":1291:1354   */\n      swap2\n      pop\n        /* \"#utility.yul\":1247:1364   */\n      pop\n        /* \"#utility.yul\":1042:1371   */\n      swap3\n      swap2\n      pop\n      pop\n      jump\t// out\n        /* \"#utility.yul\":1377:1466   */\n    tag_240:\n        /* \"#utility.yul\":1413:1420   */\n      0x00\n        /* \"#utility.yul\":1453:1459   */\n      0xffff\n        /* \"#utility.yul\":1446:1451   */\n      dup3\n        /* \"#utility.yul\":1442:1460   */\n      and\n        /* \"#utility.yul\":1431:1460   */\n      swap1\n      pop\n        /* \"#utility.yul\":1377:1466   */\n      swap2\n      swap1\n      pop\n      jump\t// out\n        /* \"#utility.yul\":1472:1592   */\n    tag_241:\n        /* \"#utility.yul\":1544:1567   */\n      tag_299\n        /* \"#utility.yul\":1561:1566   */\n      dup2\n        /* \"#utility.yul\":1544:1567   */\n      tag_240\n      jump\t// in\n    tag_299:\n        /* \"#utility.yul\":1537:1542   */\n      dup2\n        /* \"#utility.yul\":1534:1568   */\n      eq\n        /* \"#utility.yul\":1524:1586   */\n      tag_300\n      jumpi\n        /* \"#utility.yul\":1582:1583   */\n      0x00\n        /* \"#utility.yul\":1579:1580   */\n      dup1\n        /* \"#utility.yul\":1572:1584   */\n      revert\n        /* \"#utility.yul\":1524:1586   */\n    tag_300:\n        /* \"#utility.yul\":1472:1592   */\n      pop\n      jump\t// out\n        /* \"#utility.yul\":1598:1735   */\n    tag_242:\n        /* \"#utility.yul\":1643:1648   */\n      0x00\n        /* \"#utility.yul\":1681:1687   */\n      dup2\n        /* \"#utility.yul\":1668:1688   */\n      calldataload\n        /* \"#utility.yul\":1659:1688   */\n      swap1\n      pop\n        /* \"#utility.yul\":1697:1729   */\n      tag_302\n        /* \"#utility.yul\":1723:1728   */\n      dup2\n        /* \"#utility.yul\":1697:1729   */\n      tag_241\n      jump\t// in\n    tag_302:\n        /* \"#utility.yul\":1598:1735   */\n      swap3\n      swap2\n      pop\n      pop\n      jump\t// out\n        /* \"#utility.yul\":1741:2504   */\n    tag_30:\n        /* \"#utility.yul\":1826:1832   */\n      0x00\n        /* \"#utility.yul\":1834:1840   */\n      dup1\n        /* \"#utility.yul\":1842:1848   */\n      0x00\n        /* \"#utility.yul\":1850:1856   */\n      dup1\n        /* \"#utility.yul\":1899:1902   */\n      0x80\n        /* \"#utility.yul\":1887:1896   */\n      dup6\n        /* \"#utility.yul\":1878:1885   */\n      dup8\n        /* \"#utility.yul\":1874:1897   */\n      sub\n        /* \"#utility.yul\":1870:1903   */\n      slt\n        /* \"#utility.yul\":1867:1987   */\n      iszero\n      tag_304\n      jumpi\n        /* \"#utility.yul\":1906:1985   */\n      tag_305\n      tag_236\n      jump\t// in\n    tag_305:\n        /* \"#utility.yul\":1867:1987   */\n    tag_304:\n        /* \"#utility.yul\":2026:2027   */\n      0x00\n        /* \"#utility.yul\":2051:2104   */\n      tag_306\n        /* \"#utility.yul\":2096:2103   */\n      dup8\n        /* \"#utility.yul\":2087:2093   */\n      dup3\n        /* \"#utility.yul\":2076:2085   */\n      dup9\n        /* \"#utility.yul\":2072:2094   */\n      add\n        /* \"#utility.yul\":2051:2104   */\n      tag_239\n      jump\t// in\n    tag_306:\n        /* \"#utility.yul\":2041:2104   */\n      swap5\n      pop\n        /* \"#utility.yul\":1997:2114   */\n      pop\n        /* \"#utility.yul\":2153:2155   */\n      0x20\n        /* \"#utility.yul\":2179:2232   */\n      tag_307\n        /* \"#utility.yul\":2224:2231   */\n      dup8\n        /* \"#utility.yul\":2215:2221   */\n      dup3\n        /* \"#utility.yul\":2204:2213   */\n      dup9\n        /* \"#utility.yul\":2200:2222   */\n      add\n        /* \"#utility.yul\":2179:2232   */\n      tag_239\n      jump\t// in\n    tag_307:\n        /* \"#utility.yul\":2169:2232   */\n      swap4\n      pop\n        /* \"#utility.yul\":2124:2242   */\n      pop\n        /* \"#utility.yul\":2281:2283   */\n      0x40\n        /* \"#utility.yul\":2307:2360   */\n      tag_308\n        /* \"#utility.yul\":2352:2359   */\n      dup8\n        /* \"#utility.yul\":2343:2349   */\n      dup3\n        /* \"#utility.yul\":2332:2341   */\n      dup9\n        /* \"#utility.yul\":2328:2350   */\n      add\n        /* \"#utility.yul\":2307:2360   */\n      tag_239\n      jump\t// in\n    tag_308:\n        /* \"#utility.yul\":2297:2360   */\n      swap3\n      pop\n        /* \"#utility.yul\":2252:2370   */\n      pop\n        /* \"#utility.yul\":2409:2411   */\n      0x60\n        /* \"#utility.yul\":2435:2487   */\n      tag_309\n        /* \"#utility.yul\":2479:2486   */\n      dup8\n        /* \"#utility.yul\":2470:2476   */\n      dup3\n        /* \"#utility.yul\":2459:2468   */\n      dup9\n        /* \"#utility.yul\":2455:2477   */\n      add\n        /* \"#utility.yul\":2435:2487   */\n      tag_242\n      jump\t// in\n    tag_309:\n        /* \"#utility.yul\":2425:2487   */\n      swap2\n      pop\n        /* \"#utility.yul\":2380:2497   */\n      pop\n        /* \"#utility.yul\":1741:2504   */\n      swap3\n      swap6\n      swap2\n      swap5\n      pop\n      swap3\n      pop\n      jump\t// out\n        /* \"#utility.yul\":2510:2600   */\n    tag_243:\n        /* \"#utility.yul\":2544:2551   */\n      0x00\n        /* \"#utility.yul\":2587:2592   */\n      dup2\n        /* \"#utility.yul\":2580:2593   */\n      iszero\n        /* \"#utility.yul\":2573:2594   */\n      iszero\n        /* \"#utility.yul\":2562:2594   */\n      swap1\n      pop\n        /* \"#utility.yul\":2510:2600   */\n      swap2\n      swap1\n      pop\n      jump\t// out\n        /* \"#utility.yul\":2606:2722   */\n    tag_244:\n        /* \"#utility.yul\":2676:2697   */\n      tag_312\n        /* \"#utility.yul\":2691:2696   */\n      dup2\n        /* \"#utility.yul\":2676:2697   */\n      tag_243\n      jump\t// in\n    tag_312:\n        /* \"#utility.yul\":2669:2674   */\n      dup2\n        /* \"#utility.yul\":2666:2698   */\n      eq\n        /* \"#utility.yul\":2656:2716   */\n      tag_313\n      jumpi\n        /* \"#utility.yul\":2712:2713   */\n      0x00\n        /* \"#utility.yul\":2709:2710   */\n      dup1\n        /* \"#utility.yul\":2702:2714   */\n      revert\n        /* \"#utility.yul\":2656:2716   */\n    tag_313:\n        /* \"#utility.yul\":2606:2722   */\n      pop\n      jump\t// out\n        /* \"#utility.yul\":2728:2861   */\n    tag_245:\n        /* \"#utility.yul\":2771:2776   */\n      0x00\n        /* \"#utility.yul\":2809:2815   */\n      dup2\n        /* \"#utility.yul\":2796:2816   */\n      calldataload\n        /* \"#utility.yul\":2787:2816   */\n      swap1\n      pop\n        /* \"#utility.yul\":2825:2855   */\n      tag_315\n        /* \"#utility.yul\":2849:2854   */\n      dup2\n        /* \"#utility.yul\":2825:2855   */\n      tag_244\n      jump\t// in\n    tag_315:\n        /* \"#utility.yul\":2728:2861   */\n      swap3\n      swap2\n      pop\n      pop\n      jump\t// out\n        /* \"#utility.yul\":2867:3335   */\n    tag_34:\n        /* \"#utility.yul\":2932:2938   */\n      0x00\n        /* \"#utility.yul\":2940:2946   */\n      dup1\n        /* \"#utility.yul\":2989:2991   */\n      0x40\n        /* \"#utility.yul\":2977:2986   */\n      dup4\n        /* \"#utility.yul\":2968:2975   */\n      dup6\n        /* \"#utility.yul\":2964:2987   */\n      sub\n        /* \"#utility.yul\":2960:2992   */\n      slt\n        /* \"#utility.yul\":2957:3076   */\n      iszero\n      tag_317\n      jumpi\n        /* \"#utility.yul\":2995:3074   */\n      tag_318\n      tag_236\n      jump\t// in\n    tag_318:\n        /* \"#utility.yul\":2957:3076   */\n    tag_317:\n        /* \"#utility.yul\":3115:3116   */\n      0x00\n        /* \"#utility.yul\":3140:3193   */\n      tag_319\n        /* \"#utility.yul\":3185:3192   */\n      dup6\n        /* \"#utility.yul\":3176:3182   */\n      dup3\n        /* \"#utility.yul\":3165:3174   */\n      dup7\n        /* \"#utility.yul\":3161:3183   */\n      add\n        /* \"#utility.yul\":3140:3193   */\n      tag_239\n      jump\t// in\n    tag_319:\n        /* \"#utility.yul\":3130:3193   */\n      swap3\n      pop\n        /* \"#utility.yul\":3086:3203   */\n      pop\n        /* \"#utility.yul\":3242:3244   */\n      0x20\n        /* \"#utility.yul\":3268:3318   */\n      tag_320\n        /* \"#utility.yul\":3310:3317   */\n      dup6\n        /* \"#utility.yul\":3301:3307   */\n      dup3\n        /* \"#utility.yul\":3290:3299   */\n      dup7\n        /* \"#utility.yul\":3286:3308   */\n      add\n        /* \"#utility.yul\":3268:3318   */\n      tag_245\n      jump\t// in\n    tag_320:\n        /* \"#utility.yul\":3258:3318   */\n      swap2\n      pop\n        /* \"#utility.yul\":3213:3328   */\n      pop\n        /* \"#utility.yul\":2867:3335   */\n      swap3\n      pop\n      swap3\n      swap1\n      pop\n      jump\t// out\n        /* \"#utility.yul\":3341:3815   */\n    tag_48:\n        /* \"#utility.yul\":3409:3415   */\n      0x00\n        /* \"#utility.yul\":3417:3423   */\n      dup1\n        /* \"#utility.yul\":3466:3468   */\n      0x40\n        /* \"#utility.yul\":3454:3463   */\n      dup4\n        /* \"#utility.yul\":3445:3452   */\n      dup6\n        /* \"#utility.yul\":3441:3464   */\n      sub\n        /* \"#utility.yul\":3437:3469   */\n      slt\n        /* \"#utility.yul\":3434:3553   */\n      iszero\n      tag_322\n      jumpi\n        /* \"#utility.yul\":3472:3551   */\n      tag_323\n      tag_236\n      jump\t// in\n    tag_323:\n        /* \"#utility.yul\":3434:3553   */\n    tag_322:\n        /* \"#utility.yul\":3592:3593   */\n      0x00\n        /* \"#utility.yul\":3617:3670   */\n      tag_324\n        /* \"#utility.yul\":3662:3669   */\n      dup6\n        /* \"#utility.yul\":3653:3659   */\n      dup3\n        /* \"#utility.yul\":3642:3651   */\n      dup7\n        /* \"#utility.yul\":3638:3660   */\n      add\n        /* \"#utility.yul\":3617:3670   */\n      tag_239\n      jump\t// in\n    tag_324:\n        /* \"#utility.yul\":3607:3670   */\n      swap3\n      pop\n        /* \"#utility.yul\":3563:3680   */\n      pop\n        /* \"#utility.yul\":3719:3721   */\n      0x20\n        /* \"#utility.yul\":3745:3798   */\n      tag_325\n        /* \"#utility.yul\":3790:3797   */\n      dup6\n        /* \"#utility.yul\":3781:3787   */\n      dup3\n        /* \"#utility.yul\":3770:3779   */\n      dup7\n        /* \"#utility.yul\":3766:3788   */\n      add\n        /* \"#utility.yul\":3745:3798   */\n      tag_239\n      jump\t// in\n    tag_325:\n        /* \"#utility.yul\":3735:3798   */\n      swap2\n      pop\n        /* \"#utility.yul\":3690:3808   */\n      pop\n        /* \"#utility.yul\":3341:3815   */\n      swap3\n      pop\n      swap3\n      swap1\n      pop\n      jump\t// out\n        /* \"#utility.yul\":3821:3947   */\n    tag_246:\n        /* \"#utility.yul\":3858:3865   */\n      0x00\n        /* \"#utility.yul\":3898:3940   */\n      0xffffffffffffffffffffffffffffffffffffffff\n        /* \"#utility.yul\":3891:3896   */\n      dup3\n        /* \"#utility.yul\":3887:3941   */\n      and\n        /* \"#utility.yul\":3876:3941   */\n      swap1\n      pop\n        /* \"#utility.yul\":3821:3947   */\n      swap2\n      swap1\n      pop\n      jump\t// out\n        /* \"#utility.yul\":3953:4049   */\n    tag_247:\n        /* \"#utility.yul\":3990:3997   */\n      0x00\n        /* \"#utility.yul\":4019:4043   */\n      tag_328\n        /* \"#utility.yul\":4037:4042   */\n      dup3\n        /* \"#utility.yul\":4019:4043   */\n      tag_246\n      jump\t// in\n    tag_328:\n        /* \"#utility.yul\":4008:4043   */\n      swap1\n      pop\n        /* \"#utility.yul\":3953:4049   */\n      swap2\n      swap1\n      pop\n      jump\t// out\n        /* \"#utility.yul\":4055:4173   */\n    tag_248:\n        /* \"#utility.yul\":4142:4166   */\n      tag_330\n        /* \"#utility.yul\":4160:4165   */\n      dup2\n        /* \"#utility.yul\":4142:4166   */\n      tag_247\n      jump\t// in\n    tag_330:\n        /* \"#utility.yul\":4137:4140   */\n      dup3\n        /* \"#utility.yul\":4130:4167   */\n      mstore\n        /* \"#utility.yul\":4055:4173   */\n      pop\n      pop\n      jump\t// out\n        /* \"#utility.yul\":4179:4294   */\n    tag_249:\n        /* \"#utility.yul\":4264:4287   */\n      tag_332\n        /* \"#utility.yul\":4281:4286   */\n      dup2\n        /* \"#utility.yul\":4264:4287   */\n      tag_240\n      jump\t// in\n    tag_332:\n        /* \"#utility.yul\":4259:4262   */\n      dup3\n        /* \"#utility.yul\":4252:4288   */\n      mstore\n        /* \"#utility.yul\":4179:4294   */\n      pop\n      pop\n      jump\t// out\n        /* \"#utility.yul\":4300:4960   */\n    tag_51:\n        /* \"#utility.yul\":4503:4507   */\n      0x00\n        /* \"#utility.yul\":4541:4544   */\n      0xa0\n        /* \"#utility.yul\":4530:4539   */\n      dup3\n        /* \"#utility.yul\":4526:4545   */\n      add\n        /* \"#utility.yul\":4518:4545   */\n      swap1\n      pop\n        /* \"#utility.yul\":4555:4626   */\n      tag_334\n        /* \"#utility.yul\":4623:4624   */\n      0x00\n        /* \"#utility.yul\":4612:4621   */\n      dup4\n        /* \"#utility.yul\":4608:4625   */\n      add\n        /* \"#utility.yul\":4599:4605   */\n      dup9\n        /* \"#utility.yul\":4555:4626   */\n      tag_234\n      jump\t// in\n    tag_334:\n        /* \"#utility.yul\":4636:4708   */\n      tag_335\n        /* \"#utility.yul\":4704:4706   */\n      0x20\n        /* \"#utility.yul\":4693:4702   */\n      dup4\n        /* \"#utility.yul\":4689:4707   */\n      add\n        /* \"#utility.yul\":4680:4686   */\n      dup8\n        /* \"#utility.yul\":4636:4708   */\n      tag_234\n      jump\t// in\n    tag_335:\n        /* \"#utility.yul\":4718:4790   */\n      tag_336\n        /* \"#utility.yul\":4786:4788   */\n      0x40\n        /* \"#utility.yul\":4775:4784   */\n      dup4\n        /* \"#utility.yul\":4771:4789   */\n      add\n        /* \"#utility.yul\":4762:4768   */\n      dup7\n        /* \"#utility.yul\":4718:4790   */\n      tag_248\n      jump\t// in\n    tag_336:\n        /* \"#utility.yul\":4800:4872   */\n      tag_337\n        /* \"#utility.yul\":4868:4870   */\n      0x60\n        /* \"#utility.yul\":4857:4866   */\n      dup4\n        /* \"#utility.yul\":4853:4871   */\n      add\n        /* \"#utility.yul\":4844:4850   */\n      dup6\n        /* \"#utility.yul\":4800:4872   */\n      tag_234\n      jump\t// in\n    tag_337:\n        /* \"#utility.yul\":4882:4953   */\n      tag_338\n        /* \"#utility.yul\":4948:4951   */\n      0x80\n        /* \"#utility.yul\":4937:4946   */\n      dup4\n        /* \"#utility.yul\":4933:4952   */\n      add\n        /* \"#utility.yul\":4924:4930   */\n      dup5\n        /* \"#utility.yul\":4882:4953   */\n      tag_249\n      jump\t// in\n    tag_338:\n        /* \"#utility.yul\":4300:4960   */\n      swap7\n      swap6\n      pop\n      pop\n      pop\n      pop\n      pop\n      pop\n      jump\t// out\n        /* \"#utility.yul\":4966:5088   */\n    tag_250:\n        /* \"#utility.yul\":5039:5063   */\n      tag_340\n        /* \"#utility.yul\":5057:5062   */\n      dup2\n        /* \"#utility.yul\":5039:5063   */\n      tag_247\n      jump\t// in\n    tag_340:\n        /* \"#utility.yul\":5032:5037   */\n      dup2\n        /* \"#utility.yul\":5029:5064   */\n      eq\n        /* \"#utility.yul\":5019:5082   */\n      tag_341\n      jumpi\n        /* \"#utility.yul\":5078:5079   */\n      0x00\n        /* \"#utility.yul\":5075:5076   */\n      dup1\n        /* \"#utility.yul\":5068:5080   */\n      revert\n        /* \"#utility.yul\":5019:5082   */\n    tag_341:\n        /* \"#utility.yul\":4966:5088   */\n      pop\n      jump\t// out\n        /* \"#utility.yul\":5094:5233   */\n    tag_251:\n        /* \"#utility.yul\":5140:5145   */\n      0x00\n        /* \"#utility.yul\":5178:5184   */\n      dup2\n        /* \"#utility.yul\":5165:5185   */\n      calldataload\n        /* \"#utility.yul\":5156:5185   */\n      swap1\n      pop\n        /* \"#utility.yul\":5194:5227   */\n      tag_343\n        /* \"#utility.yul\":5221:5226   */\n      dup2\n        /* \"#utility.yul\":5194:5227   */\n      tag_250\n      jump\t// in\n    tag_343:\n        /* \"#utility.yul\":5094:5233   */\n      swap3\n      swap2\n      pop\n      pop\n      jump\t// out\n        /* \"#utility.yul\":5239:6722   */\n    tag_54:\n        /* \"#utility.yul\":5364:5370   */\n      0x00\n        /* \"#utility.yul\":5372:5378   */\n      dup1\n        /* \"#utility.yul\":5380:5386   */\n      0x00\n        /* \"#utility.yul\":5388:5394   */\n      dup1\n        /* \"#utility.yul\":5396:5402   */\n      0x00\n        /* \"#utility.yul\":5404:5410   */\n      dup1\n        /* \"#utility.yul\":5412:5418   */\n      0x00\n        /* \"#utility.yul\":5420:5426   */\n      dup1\n        /* \"#utility.yul\":5428:5434   */\n      0x00\n        /* \"#utility.yul\":5477:5480   */\n      0x0120\n        /* \"#utility.yul\":5465:5474   */\n      dup11\n        /* \"#utility.yul\":5456:5463   */\n      dup13\n        /* \"#utility.yul\":5452:5475   */\n      sub\n        /* \"#utility.yul\":5448:5481   */\n      slt\n        /* \"#utility.yul\":5445:5565   */\n      iszero\n      tag_345\n      jumpi\n        /* \"#utility.yul\":5484:5563   */\n      tag_346\n      tag_236\n      jump\t// in\n    tag_346:\n        /* \"#utility.yul\":5445:5565   */\n    tag_345:\n        /* \"#utility.yul\":5604:5605   */\n      0x00\n        /* \"#utility.yul\":5629:5682   */\n      tag_347\n        /* \"#utility.yul\":5674:5681   */\n      dup13\n        /* \"#utility.yul\":5665:5671   */\n      dup3\n        /* \"#utility.yul\":5654:5663   */\n      dup14\n        /* \"#utility.yul\":5650:5672   */\n      add\n        /* \"#utility.yul\":5629:5682   */\n      tag_251\n      jump\t// in\n    tag_347:\n        /* \"#utility.yul\":5619:5682   */\n      swap10\n      pop\n        /* \"#utility.yul\":5575:5692   */\n      pop\n        /* \"#utility.yul\":5731:5733   */\n      0x20\n        /* \"#utility.yul\":5757:5810   */\n      tag_348\n        /* \"#utility.yul\":5802:5809   */\n      dup13\n        /* \"#utility.yul\":5793:5799   */\n      dup3\n        /* \"#utility.yul\":5782:5791   */\n      dup14\n        /* \"#utility.yul\":5778:5800   */\n      add\n        /* \"#utility.yul\":5757:5810   */\n      tag_251\n      jump\t// in\n    tag_348:\n        /* \"#utility.yul\":5747:5810   */\n      swap9\n      pop\n        /* \"#utility.yul\":5702:5820   */\n      pop\n        /* \"#utility.yul\":5859:5861   */\n      0x40\n        /* \"#utility.yul\":5885:5938   */\n      tag_349\n        /* \"#utility.yul\":5930:5937   */\n      dup13\n        /* \"#utility.yul\":5921:5927   */\n      dup3\n        /* \"#utility.yul\":5910:5919   */\n      dup14\n        /* \"#utility.yul\":5906:5928   */\n      add\n        /* \"#utility.yul\":5885:5938   */\n      tag_251\n      jump\t// in\n    tag_349:\n        /* \"#utility.yul\":5875:5938   */\n      swap8\n      pop\n        /* \"#utility.yul\":5830:5948   */\n      pop\n        /* \"#utility.yul\":5987:5989   */\n      0x60\n        /* \"#utility.yul\":6013:6066   */\n      tag_350\n        /* \"#utility.yul\":6058:6065   */\n      dup13\n        /* \"#utility.yul\":6049:6055   */\n      dup3\n        /* \"#utility.yul\":6038:6047   */\n      dup14\n        /* \"#utility.yul\":6034:6056   */\n      add\n        /* \"#utility.yul\":6013:6066   */\n      tag_251\n      jump\t// in\n    tag_350:\n        /* \"#utility.yul\":6003:6066   */\n      swap7\n      pop\n        /* \"#utility.yul\":5958:6076   */\n      pop\n        /* \"#utility.yul\":6115:6118   */\n      0x80\n        /* \"#utility.yul\":6142:6195   */\n      tag_351\n        /* \"#utility.yul\":6187:6194   */\n      dup13\n        /* \"#utility.yul\":6178:6184   */\n      dup3\n        /* \"#utility.yul\":6167:6176   */\n      dup14\n        /* \"#utility.yul\":6163:6185   */\n      add\n        /* \"#utility.yul\":6142:6195   */\n      tag_239\n      jump\t// in\n    tag_351:\n        /* \"#utility.yul\":6132:6195   */\n      swap6\n      pop\n        /* \"#utility.yul\":6086:6205   */\n      pop\n        /* \"#utility.yul\":6244:6247   */\n      0xa0\n        /* \"#utility.yul\":6271:6324   */\n      tag_352\n        /* \"#utility.yul\":6316:6323   */\n      dup13\n        /* \"#utility.yul\":6307:6313   */\n      dup3\n        /* \"#utility.yul\":6296:6305   */\n      dup14\n        /* \"#utility.yul\":6292:6314   */\n      add\n        /* \"#utility.yul\":6271:6324   */\n      tag_239\n      jump\t// in\n    tag_352:\n        /* \"#utility.yul\":6261:6324   */\n      swap5\n      pop\n        /* \"#utility.yul\":6215:6334   */\n      pop\n        /* \"#utility.yul\":6373:6376   */\n      0xc0\n        /* \"#utility.yul\":6400:6453   */\n      tag_353\n        /* \"#utility.yul\":6445:6452   */\n      dup13\n        /* \"#utility.yul\":6436:6442   */\n      dup3\n        /* \"#utility.yul\":6425:6434   */\n      dup14\n        /* \"#utility.yul\":6421:6443   */\n      add\n        /* \"#utility.yul\":6400:6453   */\n      tag_239\n      jump\t// in\n    tag_353:\n        /* \"#utility.yul\":6390:6453   */\n      swap4\n      pop\n        /* \"#utility.yul\":6344:6463   */\n      pop\n        /* \"#utility.yul\":6502:6505   */\n      0xe0\n        /* \"#utility.yul\":6529:6579   */\n      tag_354\n        /* \"#utility.yul\":6571:6578   */\n      dup13\n        /* \"#utility.yul\":6562:6568   */\n      dup3\n        /* \"#utility.yul\":6551:6560   */\n      dup14\n        /* \"#utility.yul\":6547:6569   */\n      add\n        /* \"#utility.yul\":6529:6579   */\n      tag_245\n      jump\t// in\n    tag_354:\n        /* \"#utility.yul\":6519:6579   */\n      swap3\n      pop\n        /* \"#utility.yul\":6473:6589   */\n      pop\n        /* \"#utility.yul\":6628:6631   */\n      0x0100\n        /* \"#utility.yul\":6655:6705   */\n      tag_355\n        /* \"#utility.yul\":6697:6704   */\n      dup13\n        /* \"#utility.yul\":6688:6694   */\n      dup3\n        /* \"#utility.yul\":6677:6686   */\n      dup14\n        /* \"#utility.yul\":6673:6695   */\n      add\n        /* \"#utility.yul\":6655:6705   */\n      tag_245\n      jump\t// in\n    tag_355:\n        /* \"#utility.yul\":6645:6705   */\n      swap2\n      pop\n        /* \"#utility.yul\":6599:6715   */\n      pop\n        /* \"#utility.yul\":5239:6722   */\n      swap3\n      swap6\n      swap9\n      pop\n      swap3\n      swap6\n      swap9\n      pop\n      swap3\n      swap6\n      swap9\n      jump\t// out\n        /* \"#utility.yul\":6728:7202   */\n    tag_58:\n        /* \"#utility.yul\":6796:6802   */\n      0x00\n        /* \"#utility.yul\":6804:6810   */\n      dup1\n        /* \"#utility.yul\":6853:6855   */\n      0x40\n        /* \"#utility.yul\":6841:6850   */\n      dup4\n        /* \"#utility.yul\":6832:6839   */\n      dup6\n        /* \"#utility.yul\":6828:6851   */\n      sub\n        /* \"#utility.yul\":6824:6856   */\n      slt\n        /* \"#utility.yul\":6821:6940   */\n      iszero\n      tag_357\n      jumpi\n        /* \"#utility.yul\":6859:6938   */\n      tag_358\n      tag_236\n      jump\t// in\n    tag_358:\n        /* \"#utility.yul\":6821:6940   */\n    tag_357:\n        /* \"#utility.yul\":6979:6980   */\n      0x00\n        /* \"#utility.yul\":7004:7057   */\n      tag_359\n        /* \"#utility.yul\":7049:7056   */\n      dup6\n        /* \"#utility.yul\":7040:7046   */\n      dup3\n        /* \"#utility.yul\":7029:7038   */\n      dup7\n        /* \"#utility.yul\":7025:7047   */\n      add\n        /* \"#utility.yul\":7004:7057   */\n      tag_239\n      jump\t// in\n    tag_359:\n        /* \"#utility.yul\":6994:7057   */\n      swap3\n      pop\n        /* \"#utility.yul\":6950:7067   */\n      pop\n        /* \"#utility.yul\":7106:7108   */\n      0x20\n        /* \"#utility.yul\":7132:7185   */\n      tag_360\n        /* \"#utility.yul\":7177:7184   */\n      dup6\n        /* \"#utility.yul\":7168:7174   */\n      dup3\n        /* \"#utility.yul\":7157:7166   */\n      dup7\n        /* \"#utility.yul\":7153:7175   */\n      add\n        /* \"#utility.yul\":7132:7185   */\n      tag_251\n      jump\t// in\n    tag_360:\n        /* \"#utility.yul\":7122:7185   */\n      swap2\n      pop\n        /* \"#utility.yul\":7077:7195   */\n      pop\n        /* \"#utility.yul\":6728:7202   */\n      swap3\n      pop\n      swap3\n      swap1\n      pop\n      jump\t// out\n        /* \"#utility.yul\":7208:7317   */\n    tag_252:\n        /* \"#utility.yul\":7289:7310   */\n      tag_362\n        /* \"#utility.yul\":7304:7309   */\n      dup2\n        /* \"#utility.yul\":7289:7310   */\n      tag_243\n      jump\t// in\n    tag_362:\n        /* \"#utility.yul\":7284:7287   */\n      dup3\n        /* \"#utility.yul\":7277:7311   */\n      mstore\n        /* \"#utility.yul\":7208:7317   */\n      pop\n      pop\n      jump\t// out\n        /* \"#utility.yul\":7323:7533   */\n    tag_64:\n        /* \"#utility.yul\":7410:7414   */\n      0x00\n        /* \"#utility.yul\":7448:7450   */\n      0x20\n        /* \"#utility.yul\":7437:7446   */\n      dup3\n        /* \"#utility.yul\":7433:7451   */\n      add\n        /* \"#utility.yul\":7425:7451   */\n      swap1\n      pop\n        /* \"#utility.yul\":7461:7526   */\n      tag_364\n        /* \"#utility.yul\":7523:7524   */\n      0x00\n        /* \"#utility.yul\":7512:7521   */\n      dup4\n        /* \"#utility.yul\":7508:7525   */\n      add\n        /* \"#utility.yul\":7499:7505   */\n      dup5\n        /* \"#utility.yul\":7461:7526   */\n      tag_252\n      jump\t// in\n    tag_364:\n        /* \"#utility.yul\":7323:7533   */\n      swap3\n      swap2\n      pop\n      pop\n      jump\t// out\n        /* \"#utility.yul\":7539:8960   */\n    tag_72:\n        /* \"#utility.yul\":7930:7934   */\n      0x00\n        /* \"#utility.yul\":7968:7971   */\n      0x0180\n        /* \"#utility.yul\":7957:7966   */\n      dup3\n        /* \"#utility.yul\":7953:7972   */\n      add\n        /* \"#utility.yul\":7945:7972   */\n      swap1\n      pop\n        /* \"#utility.yul\":7982:8053   */\n      tag_366\n        /* \"#utility.yul\":8050:8051   */\n      0x00\n        /* \"#utility.yul\":8039:8048   */\n      dup4\n        /* \"#utility.yul\":8035:8052   */\n      add\n        /* \"#utility.yul\":8026:8032   */\n      dup16\n        /* \"#utility.yul\":7982:8053   */\n      tag_248\n      jump\t// in\n    tag_366:\n        /* \"#utility.yul\":8063:8135   */\n      tag_367\n        /* \"#utility.yul\":8131:8133   */\n      0x20\n        /* \"#utility.yul\":8120:8129   */\n      dup4\n        /* \"#utility.yul\":8116:8134   */\n      add\n        /* \"#utility.yul\":8107:8113   */\n      dup15\n        /* \"#utility.yul\":8063:8135   */\n      tag_248\n      jump\t// in\n    tag_367:\n        /* \"#utility.yul\":8145:8217   */\n      tag_368\n        /* \"#utility.yul\":8213:8215   */\n      0x40\n        /* \"#utility.yul\":8202:8211   */\n      dup4\n        /* \"#utility.yul\":8198:8216   */\n      add\n        /* \"#utility.yul\":8189:8195   */\n      dup14\n        /* \"#utility.yul\":8145:8217   */\n      tag_248\n      jump\t// in\n    tag_368:\n        /* \"#utility.yul\":8227:8299   */\n      tag_369\n        /* \"#utility.yul\":8295:8297   */\n      0x60\n        /* \"#utility.yul\":8284:8293   */\n      dup4\n        /* \"#utility.yul\":8280:8298   */\n      add\n        /* \"#utility.yul\":8271:8277   */\n      dup13\n        /* \"#utility.yul\":8227:8299   */\n      tag_248\n      jump\t// in\n    tag_369:\n        /* \"#utility.yul\":8309:8382   */\n      tag_370\n        /* \"#utility.yul\":8377:8380   */\n      0x80\n        /* \"#utility.yul\":8366:8375   */\n      dup4\n        /* \"#utility.yul\":8362:8381   */\n      add\n        /* \"#utility.yul\":8353:8359   */\n      dup12\n        /* \"#utility.yul\":8309:8382   */\n      tag_248\n      jump\t// in\n    tag_370:\n        /* \"#utility.yul\":8392:8465   */\n      tag_371\n        /* \"#utility.yul\":8460:8463   */\n      0xa0\n        /* \"#utility.yul\":8449:8458   */\n      dup4\n        /* \"#utility.yul\":8445:8464   */\n      add\n        /* \"#utility.yul\":8436:8442   */\n      dup11\n        /* \"#utility.yul\":8392:8465   */\n      tag_234\n      jump\t// in\n    tag_371:\n        /* \"#utility.yul\":8475:8548   */\n      tag_372\n        /* \"#utility.yul\":8543:8546   */\n      0xc0\n        /* \"#utility.yul\":8532:8541   */\n      dup4\n        /* \"#utility.yul\":8528:8547   */\n      add\n        /* \"#utility.yul\":8519:8525   */\n      dup10\n        /* \"#utility.yul\":8475:8548   */\n      tag_234\n      jump\t// in\n    tag_372:\n        /* \"#utility.yul\":8558:8631   */\n      tag_373\n        /* \"#utility.yul\":8626:8629   */\n      0xe0\n        /* \"#utility.yul\":8615:8624   */\n      dup4\n        /* \"#utility.yul\":8611:8630   */\n      add\n        /* \"#utility.yul\":8602:8608   */\n      dup9\n        /* \"#utility.yul\":8558:8631   */\n      tag_234\n      jump\t// in\n    tag_373:\n        /* \"#utility.yul\":8641:8714   */\n      tag_374\n        /* \"#utility.yul\":8709:8712   */\n      0x0100\n        /* \"#utility.yul\":8698:8707   */\n      dup4\n        /* \"#utility.yul\":8694:8713   */\n      add\n        /* \"#utility.yul\":8685:8691   */\n      dup8\n        /* \"#utility.yul\":8641:8714   */\n      tag_234\n      jump\t// in\n    tag_374:\n        /* \"#utility.yul\":8724:8797   */\n      tag_375\n        /* \"#utility.yul\":8792:8795   */\n      0x0120\n        /* \"#utility.yul\":8781:8790   */\n      dup4\n        /* \"#utility.yul\":8777:8796   */\n      add\n        /* \"#utility.yul\":8768:8774   */\n      dup7\n        /* \"#utility.yul\":8724:8797   */\n      tag_234\n      jump\t// in\n    tag_375:\n        /* \"#utility.yul\":8807:8875   */\n      tag_376\n        /* \"#utility.yul\":8870:8873   */\n      0x0140\n        /* \"#utility.yul\":8859:8868   */\n      dup4\n        /* \"#utility.yul\":8855:8874   */\n      add\n        /* \"#utility.yul\":8845:8852   */\n      dup6\n        /* \"#utility.yul\":8807:8875   */\n      tag_252\n      jump\t// in\n    tag_376:\n        /* \"#utility.yul\":8885:8953   */\n      tag_377\n        /* \"#utility.yul\":8948:8951   */\n      0x0160\n        /* \"#utility.yul\":8937:8946   */\n      dup4\n        /* \"#utility.yul\":8933:8952   */\n      add\n        /* \"#utility.yul\":8923:8930   */\n      dup5\n        /* \"#utility.yul\":8885:8953   */\n      tag_252\n      jump\t// in\n    tag_377:\n        /* \"#utility.yul\":7539:8960   */\n      swap14\n      swap13\n      pop\n      pop\n      pop\n      pop\n      pop\n      pop\n      pop\n      pop\n      pop\n      pop\n      pop\n      pop\n      pop\n      jump\t// out\n        /* \"#utility.yul\":8966:9579   */\n    tag_75:\n        /* \"#utility.yul\":9040:9046   */\n      0x00\n        /* \"#utility.yul\":9048:9054   */\n      dup1\n        /* \"#utility.yul\":9056:9062   */\n      0x00\n        /* \"#utility.yul\":9105:9107   */\n      0x60\n        /* \"#utility.yul\":9093:9102   */\n      dup5\n        /* \"#utility.yul\":9084:9091   */\n      dup7\n        /* \"#utility.yul\":9080:9103   */\n      sub\n        /* \"#utility.yul\":9076:9108   */\n      slt\n        /* \"#utility.yul\":9073:9192   */\n      iszero\n      tag_379\n      jumpi\n        /* \"#utility.yul\":9111:9190   */\n      tag_380\n      tag_236\n      jump\t// in\n    tag_380:\n        /* \"#utility.yul\":9073:9192   */\n    tag_379:\n        /* \"#utility.yul\":9231:9232   */\n      0x00\n        /* \"#utility.yul\":9256:9309   */\n      tag_381\n        /* \"#utility.yul\":9301:9308   */\n      dup7\n        /* \"#utility.yul\":9292:9298   */\n      dup3\n        /* \"#utility.yul\":9281:9290   */\n      dup8\n        /* \"#utility.yul\":9277:9299   */\n      add\n        /* \"#utility.yul\":9256:9309   */\n      tag_239\n      jump\t// in\n    tag_381:\n        /* \"#utility.yul\":9246:9309   */\n      swap4\n      pop\n        /* \"#utility.yul\":9202:9319   */\n      pop\n        /* \"#utility.yul\":9358:9360   */\n      0x20\n        /* \"#utility.yul\":9384:9437   */\n      tag_382\n        /* \"#utility.yul\":9429:9436   */\n      dup7\n        /* \"#utility.yul\":9420:9426   */\n      dup3\n        /* \"#utility.yul\":9409:9418   */\n      dup8\n        /* \"#utility.yul\":9405:9427   */\n      add\n        /* \"#utility.yul\":9384:9437   */\n      tag_251\n      jump\t// in\n    tag_382:\n        /* \"#utility.yul\":9374:9437   */\n      swap3\n      pop\n        /* \"#utility.yul\":9329:9447   */\n      pop\n        /* \"#utility.yul\":9486:9488   */\n      0x40\n        /* \"#utility.yul\":9512:9562   */\n      tag_383\n        /* \"#utility.yul\":9554:9561   */\n      dup7\n        /* \"#utility.yul\":9545:9551   */\n      dup3\n        /* \"#utility.yul\":9534:9543   */\n      dup8\n        /* \"#utility.yul\":9530:9552   */\n      add\n        /* \"#utility.yul\":9512:9562   */\n      tag_245\n      jump\t// in\n    tag_383:\n        /* \"#utility.yul\":9502:9562   */\n      swap2\n      pop\n        /* \"#utility.yul\":9457:9572   */\n      pop\n        /* \"#utility.yul\":8966:9579   */\n      swap3\n      pop\n      swap3\n      pop\n      swap3\n      jump\t// out\n        /* \"#utility.yul\":9585:9754   */\n    tag_253:\n        /* \"#utility.yul\":9669:9680   */\n      0x00\n        /* \"#utility.yul\":9703:9709   */\n      dup3\n        /* \"#utility.yul\":9698:9701   */\n      dup3\n        /* \"#utility.yul\":9691:9710   */\n      mstore\n        /* \"#utility.yul\":9743:9747   */\n      0x20\n        /* \"#utility.yul\":9738:9741   */\n      dup3\n        /* \"#utility.yul\":9734:9748   */\n      add\n        /* \"#utility.yul\":9719:9748   */\n      swap1\n      pop\n        /* \"#utility.yul\":9585:9754   */\n      swap3\n      swap2\n      pop\n      pop\n      jump\t// out\n        /* \"#utility.yul\":9760:9924   */\n    tag_254:\n        /* \"#utility.yul\":9900:9916   */\n      0x4c414e3a206e6f74206f776e6572000000000000000000000000000000000000\n        /* \"#utility.yul\":9896:9897   */\n      0x00\n        /* \"#utility.yul\":9888:9894   */\n      dup3\n        /* \"#utility.yul\":9884:9898   */\n      add\n        /* \"#utility.yul\":9877:9917   */\n      mstore\n        /* \"#utility.yul\":9760:9924   */\n      pop\n      jump\t// out\n        /* \"#utility.yul\":9930:10296   */\n    tag_255:\n        /* \"#utility.yul\":10072:10075   */\n      0x00\n        /* \"#utility.yul\":10093:10160   */\n      tag_387\n        /* \"#utility.yul\":10157:10159   */\n      0x0e\n        /* \"#utility.yul\":10152:10155   */\n      dup4\n        /* \"#utility.yul\":10093:10160   */\n      tag_253\n      jump\t// in\n    tag_387:\n        /* \"#utility.yul\":10086:10160   */\n      swap2\n      pop\n        /* \"#utility.yul\":10169:10262   */\n      tag_388\n        /* \"#utility.yul\":10258:10261   */\n      dup3\n        /* \"#utility.yul\":10169:10262   */\n      tag_254\n      jump\t// in\n    tag_388:\n        /* \"#utility.yul\":10287:10289   */\n      0x20\n        /* \"#utility.yul\":10282:10285   */\n      dup3\n        /* \"#utility.yul\":10278:10290   */\n      add\n        /* \"#utility.yul\":10271:10290   */\n      swap1\n      pop\n        /* \"#utility.yul\":9930:10296   */\n      swap2\n      swap1\n      pop\n      jump\t// out\n        /* \"#utility.yul\":10302:10721   */\n    tag_81:\n        /* \"#utility.yul\":10468:10472   */\n      0x00\n        /* \"#utility.yul\":10506:10508   */\n      0x20\n        /* \"#utility.yul\":10495:10504   */\n      dup3\n        /* \"#utility.yul\":10491:10509   */\n      add\n        /* \"#utility.yul\":10483:10509   */\n      swap1\n      pop\n        /* \"#utility.yul\":10555:10564   */\n      dup2\n        /* \"#utility.yul\":10549:10553   */\n      dup2\n        /* \"#utility.yul\":10545:10565   */\n      sub\n        /* \"#utility.yul\":10541:10542   */\n      0x00\n        /* \"#utility.yul\":10530:10539   */\n      dup4\n        /* \"#utility.yul\":10526:10543   */\n      add\n        /* \"#utility.yul\":10519:10566   */\n      mstore\n        /* \"#utility.yul\":10583:10714   */\n      tag_390\n        /* \"#utility.yul\":10709:10713   */\n      dup2\n        /* \"#utility.yul\":10583:10714   */\n      tag_255\n      jump\t// in\n    tag_390:\n        /* \"#utility.yul\":10575:10714   */\n      swap1\n      pop\n        /* \"#utility.yul\":10302:10721   */\n      swap2\n      swap1\n      pop\n      jump\t// out\n        /* \"#utility.yul\":10727:11169   */\n    tag_84:\n        /* \"#utility.yul\":10876:10880   */\n      0x00\n        /* \"#utility.yul\":10914:10916   */\n      0x60\n        /* \"#utility.yul\":10903:10912   */\n      dup3\n        /* \"#utility.yul\":10899:10917   */\n      add\n        /* \"#utility.yul\":10891:10917   */\n      swap1\n      pop\n        /* \"#utility.yul\":10927:10998   */\n      tag_392\n        /* \"#utility.yul\":10995:10996   */\n      0x00\n        /* \"#utility.yul\":10984:10993   */\n      dup4\n        /* \"#utility.yul\":10980:10997   */\n      add\n        /* \"#utility.yul\":10971:10977   */\n      dup7\n        /* \"#utility.yul\":10927:10998   */\n      tag_248\n      jump\t// in\n    tag_392:\n        /* \"#utility.yul\":11008:11080   */\n      tag_393\n        /* \"#utility.yul\":11076:11078   */\n      0x20\n        /* \"#utility.yul\":11065:11074   */\n      dup4\n        /* \"#utility.yul\":11061:11079   */\n      add\n        /* \"#utility.yul\":11052:11058   */\n      dup6\n        /* \"#utility.yul\":11008:11080   */\n      tag_248\n      jump\t// in\n    tag_393:\n        /* \"#utility.yul\":11090:11162   */\n      tag_394\n        /* \"#utility.yul\":11158:11160   */\n      0x40\n        /* \"#utility.yul\":11147:11156   */\n      dup4\n        /* \"#utility.yul\":11143:11161   */\n      add\n        /* \"#utility.yul\":11134:11140   */\n      dup5\n        /* \"#utility.yul\":11090:11162   */\n      tag_234\n      jump\t// in\n    tag_394:\n        /* \"#utility.yul\":10727:11169   */\n      swap5\n      swap4\n      pop\n      pop\n      pop\n      pop\n      jump\t// out\n        /* \"#utility.yul\":11175:11341   */\n    tag_256:\n        /* \"#utility.yul\":11315:11333   */\n      0x4c414e3a206e6f74207374617274656400000000000000000000000000000000\n        /* \"#utility.yul\":11311:11312   */\n      0x00\n        /* \"#utility.yul\":11303:11309   */\n      dup3\n        /* \"#utility.yul\":11299:11313   */\n      add\n        /* \"#utility.yul\":11292:11334   */\n      mstore\n        /* \"#utility.yul\":11175:11341   */\n      pop\n      jump\t// out\n        /* \"#utility.yul\":11347:11713   */\n    tag_257:\n        /* \"#utility.yul\":11489:11492   */\n      0x00\n        /* \"#utility.yul\":11510:11577   */\n      tag_397\n        /* \"#utility.yul\":11574:11576   */\n      0x10\n        /* \"#utility.yul\":11569:11572   */\n      dup4\n        /* \"#utility.yul\":11510:11577   */\n      tag_253\n      jump\t// in\n    tag_397:\n        /* \"#utility.yul\":11503:11577   */\n      swap2\n      pop\n        /* \"#utility.yul\":11586:11679   */\n      tag_398\n        /* \"#utility.yul\":11675:11678   */\n      dup3\n        /* \"#utility.yul\":11586:11679   */\n      tag_256\n      jump\t// in\n    tag_398:\n        /* \"#utility.yul\":11704:11706   */\n      0x20\n        /* \"#utility.yul\":11699:11702   */\n      dup3\n        /* \"#utility.yul\":11695:11707   */\n      add\n        /* \"#utility.yul\":11688:11707   */\n      swap1\n      pop\n        /* \"#utility.yul\":11347:11713   */\n      swap2\n      swap1\n      pop\n      jump\t// out\n        /* \"#utility.yul\":11719:12138   */\n    tag_96:\n        /* \"#utility.yul\":11885:11889   */\n      0x00\n        /* \"#utility.yul\":11923:11925   */\n      0x20\n        /* \"#utility.yul\":11912:11921   */\n      dup3\n        /* \"#utility.yul\":11908:11926   */\n      add\n        /* \"#utility.yul\":11900:11926   */\n      swap1\n      pop\n        /* \"#utility.yul\":11972:11981   */\n      dup2\n        /* \"#utility.yul\":11966:11970   */\n      dup2\n        /* \"#utility.yul\":11962:11982   */\n      sub\n        /* \"#utility.yul\":11958:11959   */\n      0x00\n        /* \"#utility.yul\":11947:11956   */\n      dup4\n        /* \"#utility.yul\":11943:11960   */\n      add\n        /* \"#utility.yul\":11936:11983   */\n      mstore\n        /* \"#utility.yul\":12000:12131   */\n      tag_400\n        /* \"#utility.yul\":12126:12130   */\n      dup2\n        /* \"#utility.yul\":12000:12131   */\n      tag_257\n      jump\t// in\n    tag_400:\n        /* \"#utility.yul\":11992:12131   */\n      swap1\n      pop\n        /* \"#utility.yul\":11719:12138   */\n      swap2\n      swap1\n      pop\n      jump\t// out\n        /* \"#utility.yul\":12144:12312   */\n    tag_258:\n        /* \"#utility.yul\":12284:12304   */\n      0x4c414e3a20616c726561647920656e6465640000000000000000000000000000\n        /* \"#utility.yul\":12280:12281   */\n      0x00\n        /* \"#utility.yul\":12272:12278   */\n      dup3\n        /* \"#utility.yul\":12268:12282   */\n      add\n        /* \"#utility.yul\":12261:12305   */\n      mstore\n        /* \"#utility.yul\":12144:12312   */\n      pop\n      jump\t// out\n        /* \"#utility.yul\":12318:12684   */\n    tag_259:\n        /* \"#utility.yul\":12460:12463   */\n      0x00\n        /* \"#utility.yul\":12481:12548   */\n      tag_403\n        /* \"#utility.yul\":12545:12547   */\n      0x12\n        /* \"#utility.yul\":12540:12543   */\n      dup4\n        /* \"#utility.yul\":12481:12548   */\n      tag_253\n      jump\t// in\n    tag_403:\n        /* \"#utility.yul\":12474:12548   */\n      swap2\n      pop\n        /* \"#utility.yul\":12557:12650   */\n      tag_404\n        /* \"#utility.yul\":12646:12649   */\n      dup3\n        /* \"#utility.yul\":12557:12650   */\n      tag_258\n      jump\t// in\n    tag_404:\n        /* \"#utility.yul\":12675:12677   */\n      0x20\n        /* \"#utility.yul\":12670:12673   */\n      dup3\n        /* \"#utility.yul\":12666:12678   */\n      add\n        /* \"#utility.yul\":12659:12678   */\n      swap1\n      pop\n        /* \"#utility.yul\":12318:12684   */\n      swap2\n      swap1\n      pop\n      jump\t// out\n        /* \"#utility.yul\":12690:13109   */\n    tag_101:\n        /* \"#utility.yul\":12856:12860   */\n      0x00\n        /* \"#utility.yul\":12894:12896   */\n      0x20\n        /* \"#utility.yul\":12883:12892   */\n      dup3\n        /* \"#utility.yul\":12879:12897   */\n      add\n        /* \"#utility.yul\":12871:12897   */\n      swap1\n      pop\n        /* \"#utility.yul\":12943:12952   */\n      dup2\n        /* \"#utility.yul\":12937:12941   */\n      dup2\n        /* \"#utility.yul\":12933:12953   */\n      sub\n        /* \"#utility.yul\":12929:12930   */\n      0x00\n        /* \"#utility.yul\":12918:12927   */\n      dup4\n        /* \"#utility.yul\":12914:12931   */\n      add\n        /* \"#utility.yul\":12907:12954   */\n      mstore\n        /* \"#utility.yul\":12971:13102   */\n      tag_406\n        /* \"#utility.yul\":13097:13101   */\n      dup2\n        /* \"#utility.yul\":12971:13102   */\n      tag_259\n      jump\t// in\n    tag_406:\n        /* \"#utility.yul\":12963:13102   */\n      swap1\n      pop\n        /* \"#utility.yul\":12690:13109   */\n      swap2\n      swap1\n      pop\n      jump\t// out\n        /* \"#utility.yul\":13115:13285   */\n    tag_260:\n        /* \"#utility.yul\":13255:13277   */\n      0x4c414e3a204e6f742057686974656c6973746564000000000000000000000000\n        /* \"#utility.yul\":13251:13252   */\n      0x00\n        /* \"#utility.yul\":13243:13249   */\n      dup3\n        /* \"#utility.yul\":13239:13253   */\n      add\n        /* \"#utility.yul\":13232:13278   */\n      mstore\n        /* \"#utility.yul\":13115:13285   */\n      pop\n      jump\t// out\n        /* \"#utility.yul\":13291:13657   */\n    tag_261:\n        /* \"#utility.yul\":13433:13436   */\n      0x00\n        /* \"#utility.yul\":13454:13521   */\n      tag_409\n        /* \"#utility.yul\":13518:13520   */\n      0x14\n        /* \"#utility.yul\":13513:13516   */\n      dup4\n        /* \"#utility.yul\":13454:13521   */\n      tag_253\n      jump\t// in\n    tag_409:\n        /* \"#utility.yul\":13447:13521   */\n      swap2\n      pop\n        /* \"#utility.yul\":13530:13623   */\n      tag_410\n        /* \"#utility.yul\":13619:13622   */\n      dup3\n        /* \"#utility.yul\":13530:13623   */\n      tag_260\n      jump\t// in\n    tag_410:\n        /* \"#utility.yul\":13648:13650   */\n      0x20\n        /* \"#utility.yul\":13643:13646   */\n      dup3\n        /* \"#utility.yul\":13639:13651   */\n      add\n        /* \"#utility.yul\":13632:13651   */\n      swap1\n      pop\n        /* \"#utility.yul\":13291:13657   */\n      swap2\n      swap1\n      pop\n      jump\t// out\n        /* \"#utility.yul\":13663:14082   */\n    tag_106:\n        /* \"#utility.yul\":13829:13833   */\n      0x00\n        /* \"#utility.yul\":13867:13869   */\n      0x20\n        /* \"#utility.yul\":13856:13865   */\n      dup3\n        /* \"#utility.yul\":13852:13870   */\n      add\n        /* \"#utility.yul\":13844:13870   */\n      swap1\n      pop\n        /* \"#utility.yul\":13916:13925   */\n      dup2\n        /* \"#utility.yul\":13910:13914   */\n      dup2\n        /* \"#utility.yul\":13906:13926   */\n      sub\n        /* \"#utility.yul\":13902:13903   */\n      0x00\n        /* \"#utility.yul\":13891:13900   */\n      dup4\n        /* \"#utility.yul\":13887:13904   */\n      add\n        /* \"#utility.yul\":13880:13927   */\n      mstore\n        /* \"#utility.yul\":13944:14075   */\n      tag_412\n        /* \"#utility.yul\":14070:14074   */\n      dup2\n        /* \"#utility.yul\":13944:14075   */\n      tag_261\n      jump\t// in\n    tag_412:\n        /* \"#utility.yul\":13936:14075   */\n      swap1\n      pop\n        /* \"#utility.yul\":13663:14082   */\n      swap2\n      swap1\n      pop\n      jump\t// out\n        /* \"#utility.yul\":14088:14257   */\n    tag_262:\n        /* \"#utility.yul\":14228:14249   */\n      0x4c414e3a20626964206e6f742068696768657200000000000000000000000000\n        /* \"#utility.yul\":14224:14225   */\n      0x00\n        /* \"#utility.yul\":14216:14222   */\n      dup3\n        /* \"#utility.yul\":14212:14226   */\n      add\n        /* \"#utility.yul\":14205:14250   */\n      mstore\n        /* \"#utility.yul\":14088:14257   */\n      pop\n      jump\t// out\n        /* \"#utility.yul\":14263:14629   */\n    tag_263:\n        /* \"#utility.yul\":14405:14408   */\n      0x00\n        /* \"#utility.yul\":14426:14493   */\n      tag_415\n        /* \"#utility.yul\":14490:14492   */\n      0x13\n        /* \"#utility.yul\":14485:14488   */\n      dup4\n        /* \"#utility.yul\":14426:14493   */\n      tag_253\n      jump\t// in\n    tag_415:\n        /* \"#utility.yul\":14419:14493   */\n      swap2\n      pop\n        /* \"#utility.yul\":14502:14595   */\n      tag_416\n        /* \"#utility.yul\":14591:14594   */\n      dup3\n        /* \"#utility.yul\":14502:14595   */\n      tag_262\n      jump\t// in\n    tag_416:\n        /* \"#utility.yul\":14620:14622   */\n      0x20\n        /* \"#utility.yul\":14615:14618   */\n      dup3\n        /* \"#utility.yul\":14611:14623   */\n      add\n        /* \"#utility.yul\":14604:14623   */\n      swap1\n      pop\n        /* \"#utility.yul\":14263:14629   */\n      swap2\n      swap1\n      pop\n      jump\t// out\n        /* \"#utility.yul\":14635:15054   */\n    tag_111:\n        /* \"#utility.yul\":14801:14805   */\n      0x00\n        /* \"#utility.yul\":14839:14841   */\n      0x20\n        /* \"#utility.yul\":14828:14837   */\n      dup3\n        /* \"#utility.yul\":14824:14842   */\n      add\n        /* \"#utility.yul\":14816:14842   */\n      swap1\n      pop\n        /* \"#utility.yul\":14888:14897   */\n      dup2\n        /* \"#utility.yul\":14882:14886   */\n      dup2\n        /* \"#utility.yul\":14878:14898   */\n      sub\n        /* \"#utility.yul\":14874:14875   */\n      0x00\n        /* \"#utility.yul\":14863:14872   */\n      dup4\n        /* \"#utility.yul\":14859:14876   */\n      add\n        /* \"#utility.yul\":14852:14899   */\n      mstore\n        /* \"#utility.yul\":14916:15047   */\n      tag_418\n        /* \"#utility.yul\":15042:15046   */\n      dup2\n        /* \"#utility.yul\":14916:15047   */\n      tag_263\n      jump\t// in\n    tag_418:\n        /* \"#utility.yul\":14908:15047   */\n      swap1\n      pop\n        /* \"#utility.yul\":14635:15054   */\n      swap2\n      swap1\n      pop\n      jump\t// out\n        /* \"#utility.yul\":15060:15240   */\n    tag_264:\n        /* \"#utility.yul\":15108:15185   */\n      0x4e487b7100000000000000000000000000000000000000000000000000000000\n        /* \"#utility.yul\":15105:15106   */\n      0x00\n        /* \"#utility.yul\":15098:15186   */\n      mstore\n        /* \"#utility.yul\":15205:15209   */\n      0x11\n        /* \"#utility.yul\":15202:15203   */\n      0x04\n        /* \"#utility.yul\":15195:15210   */\n      mstore\n        /* \"#utility.yul\":15229:15233   */\n      0x24\n        /* \"#utility.yul\":15226:15227   */\n      0x00\n        /* \"#utility.yul\":15219:15234   */\n      revert\n        /* \"#utility.yul\":15246:15437   */\n    tag_113:\n        /* \"#utility.yul\":15286:15289   */\n      0x00\n        /* \"#utility.yul\":15305:15325   */\n      tag_421\n        /* \"#utility.yul\":15323:15324   */\n      dup3\n        /* \"#utility.yul\":15305:15325   */\n      tag_233\n      jump\t// in\n    tag_421:\n        /* \"#utility.yul\":15300:15325   */\n      swap2\n      pop\n        /* \"#utility.yul\":15339:15359   */\n      tag_422\n        /* \"#utility.yul\":15357:15358   */\n      dup4\n        /* \"#utility.yul\":15339:15359   */\n      tag_233\n      jump\t// in\n    tag_422:\n        /* \"#utility.yul\":15334:15359   */\n      swap3\n      pop\n        /* \"#utility.yul\":15382:15383   */\n      dup3\n        /* \"#utility.yul\":15379:15380   */\n      dup3\n        /* \"#utility.yul\":15375:15384   */\n      add\n        /* \"#utility.yul\":15368:15384   */\n      swap1\n      pop\n        /* \"#utility.yul\":15403:15406   */\n      dup1\n        /* \"#utility.yul\":15400:15401   */\n      dup3\n        /* \"#utility.yul\":15397:15407   */\n      gt\n        /* \"#utility.yul\":15394:15430   */\n      iszero\n      tag_423\n      jumpi\n        /* \"#utility.yul\":15410:15428   */\n      tag_424\n      tag_264\n      jump\t// in\n    tag_424:\n        /* \"#utility.yul\":15394:15430   */\n    tag_423:\n        /* \"#utility.yul\":15246:15437   */\n      swap3\n      swap2\n      pop\n      pop\n      jump\t// out\n        /* \"#utility.yul\":15443:15580   */\n    tag_265:\n        /* \"#utility.yul\":15497:15502   */\n      0x00\n        /* \"#utility.yul\":15528:15534   */\n      dup2\n        /* \"#utility.yul\":15522:15535   */\n      mload\n        /* \"#utility.yul\":15513:15535   */\n      swap1\n      pop\n        /* \"#utility.yul\":15544:15574   */\n      tag_426\n        /* \"#utility.yul\":15568:15573   */\n      dup2\n        /* \"#utility.yul\":15544:15574   */\n      tag_244\n      jump\t// in\n    tag_426:\n        /* \"#utility.yul\":15443:15580   */\n      swap3\n      swap2\n      pop\n      pop\n      jump\t// out\n        /* \"#utility.yul\":15586:15931   */\n    tag_118:\n        /* \"#utility.yul\":15653:15659   */\n      0x00\n        /* \"#utility.yul\":15702:15704   */\n      0x20\n        /* \"#utility.yul\":15690:15699   */\n      dup3\n        /* \"#utility.yul\":15681:15688   */\n      dup5\n        /* \"#utility.yul\":15677:15700   */\n      sub\n        /* \"#utility.yul\":15673:15705   */\n      slt\n        /* \"#utility.yul\":15670:15789   */\n      iszero\n      tag_428\n      jumpi\n        /* \"#utility.yul\":15708:15787   */\n      tag_429\n      tag_236\n      jump\t// in\n    tag_429:\n        /* \"#utility.yul\":15670:15789   */\n    tag_428:\n        /* \"#utility.yul\":15828:15829   */\n      0x00\n        /* \"#utility.yul\":15853:15914   */\n      tag_430\n        /* \"#utility.yul\":15906:15913   */\n      dup5\n        /* \"#utility.yul\":15897:15903   */\n      dup3\n        /* \"#utility.yul\":15886:15895   */\n      dup6\n        /* \"#utility.yul\":15882:15904   */\n      add\n        /* \"#utility.yul\":15853:15914   */\n      tag_265\n      jump\t// in\n    tag_430:\n        /* \"#utility.yul\":15843:15914   */\n      swap2\n      pop\n        /* \"#utility.yul\":15799:15924   */\n      pop\n        /* \"#utility.yul\":15586:15931   */\n      swap3\n      swap2\n      pop\n      pop\n      jump\t// out\n        /* \"#utility.yul\":15937:16131   */\n    tag_120:\n        /* \"#utility.yul\":15977:15981   */\n      0x00\n        /* \"#utility.yul\":15997:16017   */\n      tag_432\n        /* \"#utility.yul\":16015:16016   */\n      dup3\n        /* \"#utility.yul\":15997:16017   */\n      tag_233\n      jump\t// in\n    tag_432:\n        /* \"#utility.yul\":15992:16017   */\n      swap2\n      pop\n        /* \"#utility.yul\":16031:16051   */\n      tag_433\n        /* \"#utility.yul\":16049:16050   */\n      dup4\n        /* \"#utility.yul\":16031:16051   */\n      tag_233\n      jump\t// in\n    tag_433:\n        /* \"#utility.yul\":16026:16051   */\n      swap3\n      pop\n        /* \"#utility.yul\":16075:16076   */\n      dup3\n        /* \"#utility.yul\":16072:16073   */\n      dup3\n        /* \"#utility.yul\":16068:16077   */\n      sub\n        /* \"#utility.yul\":16060:16077   */\n      swap1\n      pop\n        /* \"#utility.yul\":16099:16100   */\n      dup2\n        /* \"#utility.yul\":16093:16097   */\n      dup2\n        /* \"#utility.yul\":16090:16101   */\n      gt\n        /* \"#utility.yul\":16087:16124   */\n      iszero\n      tag_434\n      jumpi\n        /* \"#utility.yul\":16104:16122   */\n      tag_435\n      tag_264\n      jump\t// in\n    tag_435:\n        /* \"#utility.yul\":16087:16124   */\n    tag_434:\n        /* \"#utility.yul\":15937:16131   */\n      swap3\n      swap2\n      pop\n      pop\n      jump\t// out\n        /* \"#utility.yul\":16137:16307   */\n    tag_266:\n        /* \"#utility.yul\":16277:16299   */\n      0x4c414e3a20616c72656164792073746172746564000000000000000000000000\n        /* \"#utility.yul\":16273:16274   */\n      0x00\n        /* \"#utility.yul\":16265:16271   */\n      dup3\n        /* \"#utility.yul\":16261:16275   */\n      add\n        /* \"#utility.yul\":16254:16300   */\n      mstore\n        /* \"#utility.yul\":16137:16307   */\n      pop\n      jump\t// out\n        /* \"#utility.yul\":16313:16679   */\n    tag_267:\n        /* \"#utility.yul\":16455:16458   */\n      0x00\n        /* \"#utility.yul\":16476:16543   */\n      tag_438\n        /* \"#utility.yul\":16540:16542   */\n      0x14\n        /* \"#utility.yul\":16535:16538   */\n      dup4\n        /* \"#utility.yul\":16476:16543   */\n      tag_253\n      jump\t// in\n    tag_438:\n        /* \"#utility.yul\":16469:16543   */\n      swap2\n      pop\n        /* \"#utility.yul\":16552:16645   */\n      tag_439\n        /* \"#utility.yul\":16641:16644   */\n      dup3\n        /* \"#utility.yul\":16552:16645   */\n      tag_266\n      jump\t// in\n    tag_439:\n        /* \"#utility.yul\":16670:16672   */\n      0x20\n        /* \"#utility.yul\":16665:16668   */\n      dup3\n        /* \"#utility.yul\":16661:16673   */\n      add\n        /* \"#utility.yul\":16654:16673   */\n      swap1\n      pop\n        /* \"#utility.yul\":16313:16679   */\n      swap2\n      swap1\n      pop\n      jump\t// out\n        /* \"#utility.yul\":16685:17104   */\n    tag_137:\n        /* \"#utility.yul\":16851:16855   */\n      0x00\n        /* \"#utility.yul\":16889:16891   */\n      0x20\n        /* \"#utility.yul\":16878:16887   */\n      dup3\n        /* \"#utility.yul\":16874:16892   */\n      add\n        /* \"#utility.yul\":16866:16892   */\n      swap1\n      pop\n        /* \"#utility.yul\":16938:16947   */\n      dup2\n        /* \"#utility.yul\":16932:16936   */\n      dup2\n        /* \"#utility.yul\":16928:16948   */\n      sub\n        /* \"#utility.yul\":16924:16925   */\n      0x00\n        /* \"#utility.yul\":16913:16922   */\n      dup4\n        /* \"#utility.yul\":16909:16926   */\n      add\n        /* \"#utility.yul\":16902:16949   */\n      mstore\n        /* \"#utility.yul\":16966:17097   */\n      tag_441\n        /* \"#utility.yul\":17092:17096   */\n      dup2\n        /* \"#utility.yul\":16966:17097   */\n      tag_267\n      jump\t// in\n    tag_441:\n        /* \"#utility.yul\":16958:17097   */\n      swap1\n      pop\n        /* \"#utility.yul\":16685:17104   */\n      swap2\n      swap1\n      pop\n      jump\t// out\n        /* \"#utility.yul\":17110:17348   */\n    tag_268:\n        /* \"#utility.yul\":17250:17284   */\n      0x4c414e3a206e6f74206c6174657374206269646465722f6e6f746f7665722c20\n        /* \"#utility.yul\":17246:17247   */\n      0x00\n        /* \"#utility.yul\":17238:17244   */\n      dup3\n        /* \"#utility.yul\":17234:17248   */\n      add\n        /* \"#utility.yul\":17227:17285   */\n      mstore\n        /* \"#utility.yul\":17319:17340   */\n      0x6f72206e6f74206c6971756964617461626c6500000000000000000000000000\n        /* \"#utility.yul\":17314:17316   */\n      0x20\n        /* \"#utility.yul\":17306:17312   */\n      dup3\n        /* \"#utility.yul\":17302:17317   */\n      add\n        /* \"#utility.yul\":17295:17341   */\n      mstore\n        /* \"#utility.yul\":17110:17348   */\n      pop\n      jump\t// out\n        /* \"#utility.yul\":17354:17720   */\n    tag_269:\n        /* \"#utility.yul\":17496:17499   */\n      0x00\n        /* \"#utility.yul\":17517:17584   */\n      tag_444\n        /* \"#utility.yul\":17581:17583   */\n      0x33\n        /* \"#utility.yul\":17576:17579   */\n      dup4\n        /* \"#utility.yul\":17517:17584   */\n      tag_253\n      jump\t// in\n    tag_444:\n        /* \"#utility.yul\":17510:17584   */\n      swap2\n      pop\n        /* \"#utility.yul\":17593:17686   */\n      tag_445\n        /* \"#utility.yul\":17682:17685   */\n      dup3\n        /* \"#utility.yul\":17593:17686   */\n      tag_268\n      jump\t// in\n    tag_445:\n        /* \"#utility.yul\":17711:17713   */\n      0x40\n        /* \"#utility.yul\":17706:17709   */\n      dup3\n        /* \"#utility.yul\":17702:17714   */\n      add\n        /* \"#utility.yul\":17695:17714   */\n      swap1\n      pop\n        /* \"#utility.yul\":17354:17720   */\n      swap2\n      swap1\n      pop\n      jump\t// out\n        /* \"#utility.yul\":17726:18145   */\n    tag_149:\n        /* \"#utility.yul\":17892:17896   */\n      0x00\n        /* \"#utility.yul\":17930:17932   */\n      0x20\n        /* \"#utility.yul\":17919:17928   */\n      dup3\n        /* \"#utility.yul\":17915:17933   */\n      add\n        /* \"#utility.yul\":17907:17933   */\n      swap1\n      pop\n        /* \"#utility.yul\":17979:17988   */\n      dup2\n        /* \"#utility.yul\":17973:17977   */\n      dup2\n        /* \"#utility.yul\":17969:17989   */\n      sub\n        /* \"#utility.yul\":17965:17966   */\n      0x00\n        /* \"#utility.yul\":17954:17963   */\n      dup4\n        /* \"#utility.yul\":17950:17967   */\n      add\n        /* \"#utility.yul\":17943:17990   */\n      mstore\n        /* \"#utility.yul\":18007:18138   */\n      tag_447\n        /* \"#utility.yul\":18133:18137   */\n      dup2\n        /* \"#utility.yul\":18007:18138   */\n      tag_269\n      jump\t// in\n    tag_447:\n        /* \"#utility.yul\":17999:18138   */\n      swap1\n      pop\n        /* \"#utility.yul\":17726:18145   */\n      swap2\n      swap1\n      pop\n      jump\t// out\n        /* \"#utility.yul\":18151:18324   */\n    tag_270:\n        /* \"#utility.yul\":18291:18316   */\n      0x4c414e3a2073746172742074696d6520696e2070617374000000000000000000\n        /* \"#utility.yul\":18287:18288   */\n      0x00\n        /* \"#utility.yul\":18279:18285   */\n      dup3\n        /* \"#utility.yul\":18275:18289   */\n      add\n        /* \"#utility.yul\":18268:18317   */\n      mstore\n        /* \"#utility.yul\":18151:18324   */\n      pop\n      jump\t// out\n        /* \"#utility.yul\":18330:18696   */\n    tag_271:\n        /* \"#utility.yul\":18472:18475   */\n      0x00\n        /* \"#utility.yul\":18493:18560   */\n      tag_450\n        /* \"#utility.yul\":18557:18559   */\n      0x17\n        /* \"#utility.yul\":18552:18555   */\n      dup4\n        /* \"#utility.yul\":18493:18560   */\n      tag_253\n      jump\t// in\n    tag_450:\n        /* \"#utility.yul\":18486:18560   */\n      swap2\n      pop\n        /* \"#utility.yul\":18569:18662   */\n      tag_451\n        /* \"#utility.yul\":18658:18661   */\n      dup3\n        /* \"#utility.yul\":18569:18662   */\n      tag_270\n      jump\t// in\n    tag_451:\n        /* \"#utility.yul\":18687:18689   */\n      0x20\n        /* \"#utility.yul\":18682:18685   */\n      dup3\n        /* \"#utility.yul\":18678:18690   */\n      add\n        /* \"#utility.yul\":18671:18690   */\n      swap1\n      pop\n        /* \"#utility.yul\":18330:18696   */\n      swap2\n      swap1\n      pop\n      jump\t// out\n        /* \"#utility.yul\":18702:19121   */\n    tag_159:\n        /* \"#utility.yul\":18868:18872   */\n      0x00\n        /* \"#utility.yul\":18906:18908   */\n      0x20\n        /* \"#utility.yul\":18895:18904   */\n      dup3\n        /* \"#utility.yul\":18891:18909   */\n      add\n        /* \"#utility.yul\":18883:18909   */\n      swap1\n      pop\n        /* \"#utility.yul\":18955:18964   */\n      dup2\n        /* \"#utility.yul\":18949:18953   */\n      dup2\n        /* \"#utility.yul\":18945:18965   */\n      sub\n        /* \"#utility.yul\":18941:18942   */\n      0x00\n        /* \"#utility.yul\":18930:18939   */\n      dup4\n        /* \"#utility.yul\":18926:18943   */\n      add\n        /* \"#utility.yul\":18919:18966   */\n      mstore\n        /* \"#utility.yul\":18983:19114   */\n      tag_453\n        /* \"#utility.yul\":19109:19113   */\n      dup2\n        /* \"#utility.yul\":18983:19114   */\n      tag_271\n      jump\t// in\n    tag_453:\n        /* \"#utility.yul\":18975:19114   */\n      swap1\n      pop\n        /* \"#utility.yul\":18702:19121   */\n      swap2\n      swap1\n      pop\n      jump\t// out\n        /* \"#utility.yul\":19127:19297   */\n    tag_272:\n        /* \"#utility.yul\":19267:19289   */\n      0x4c414e3a20737461727420616674657220656e64000000000000000000000000\n        /* \"#utility.yul\":19263:19264   */\n      0x00\n        /* \"#utility.yul\":19255:19261   */\n      dup3\n        /* \"#utility.yul\":19251:19265   */\n      add\n        /* \"#utility.yul\":19244:19290   */\n      mstore\n        /* \"#utility.yul\":19127:19297   */\n      pop\n      jump\t// out\n        /* \"#utility.yul\":19303:19669   */\n    tag_273:\n        /* \"#utility.yul\":19445:19448   */\n      0x00\n        /* \"#utility.yul\":19466:19533   */\n      tag_456\n        /* \"#utility.yul\":19530:19532   */\n      0x14\n        /* \"#utility.yul\":19525:19528   */\n      dup4\n        /* \"#utility.yul\":19466:19533   */\n      tag_253\n      jump\t// in\n    tag_456:\n        /* \"#utility.yul\":19459:19533   */\n      swap2\n      pop\n        /* \"#utility.yul\":19542:19635   */\n      tag_457\n        /* \"#utility.yul\":19631:19634   */\n      dup3\n        /* \"#utility.yul\":19542:19635   */\n      tag_272\n      jump\t// in\n    tag_457:\n        /* \"#utility.yul\":19660:19662   */\n      0x20\n        /* \"#utility.yul\":19655:19658   */\n      dup3\n        /* \"#utility.yul\":19651:19663   */\n      add\n        /* \"#utility.yul\":19644:19663   */\n      swap1\n      pop\n        /* \"#utility.yul\":19303:19669   */\n      swap2\n      swap1\n      pop\n      jump\t// out\n        /* \"#utility.yul\":19675:20094   */\n    tag_162:\n        /* \"#utility.yul\":19841:19845   */\n      0x00\n        /* \"#utility.yul\":19879:19881   */\n      0x20\n        /* \"#utility.yul\":19868:19877   */\n      dup3\n        /* \"#utility.yul\":19864:19882   */\n      add\n        /* \"#utility.yul\":19856:19882   */\n      swap1\n      pop\n        /* \"#utility.yul\":19928:19937   */\n      dup2\n        /* \"#utility.yul\":19922:19926   */\n      dup2\n        /* \"#utility.yul\":19918:19938   */\n      sub\n        /* \"#utility.yul\":19914:19915   */\n      0x00\n        /* \"#utility.yul\":19903:19912   */\n      dup4\n        /* \"#utility.yul\":19899:19916   */\n      add\n        /* \"#utility.yul\":19892:19939   */\n      mstore\n        /* \"#utility.yul\":19956:20087   */\n      tag_459\n        /* \"#utility.yul\":20082:20086   */\n      dup2\n        /* \"#utility.yul\":19956:20087   */\n      tag_273\n      jump\t// in\n    tag_459:\n        /* \"#utility.yul\":19948:20087   */\n      swap1\n      pop\n        /* \"#utility.yul\":19675:20094   */\n      swap2\n      swap1\n      pop\n      jump\t// out\n        /* \"#utility.yul\":20100:20243   */\n    tag_274:\n        /* \"#utility.yul\":20157:20162   */\n      0x00\n        /* \"#utility.yul\":20188:20194   */\n      dup2\n        /* \"#utility.yul\":20182:20195   */\n      mload\n        /* \"#utility.yul\":20173:20195   */\n      swap1\n      pop\n        /* \"#utility.yul\":20204:20237   */\n      tag_461\n        /* \"#utility.yul\":20231:20236   */\n      dup2\n        /* \"#utility.yul\":20204:20237   */\n      tag_250\n      jump\t// in\n    tag_461:\n        /* \"#utility.yul\":20100:20243   */\n      swap3\n      swap2\n      pop\n      pop\n      jump\t// out\n        /* \"#utility.yul\":20249:20600   */\n    tag_167:\n        /* \"#utility.yul\":20319:20325   */\n      0x00\n        /* \"#utility.yul\":20368:20370   */\n      0x20\n        /* \"#utility.yul\":20356:20365   */\n      dup3\n        /* \"#utility.yul\":20347:20354   */\n      dup5\n        /* \"#utility.yul\":20343:20366   */\n      sub\n        /* \"#utility.yul\":20339:20371   */\n      slt\n        /* \"#utility.yul\":20336:20455   */\n      iszero\n      tag_463\n      jumpi\n        /* \"#utility.yul\":20374:20453   */\n      tag_464\n      tag_236\n      jump\t// in\n    tag_464:\n        /* \"#utility.yul\":20336:20455   */\n    tag_463:\n        /* \"#utility.yul\":20494:20495   */\n      0x00\n        /* \"#utility.yul\":20519:20583   */\n      tag_465\n        /* \"#utility.yul\":20575:20582   */\n      dup5\n        /* \"#utility.yul\":20566:20572   */\n      dup3\n        /* \"#utility.yul\":20555:20564   */\n      dup6\n        /* \"#utility.yul\":20551:20573   */\n      add\n        /* \"#utility.yul\":20519:20583   */\n      tag_274\n      jump\t// in\n    tag_465:\n        /* \"#utility.yul\":20509:20583   */\n      swap2\n      pop\n        /* \"#utility.yul\":20465:20593   */\n      pop\n        /* \"#utility.yul\":20249:20600   */\n      swap3\n      swap2\n      pop\n      pop\n      jump\t// out\n        /* \"#utility.yul\":20606:20938   */\n    tag_169:\n        /* \"#utility.yul\":20727:20731   */\n      0x00\n        /* \"#utility.yul\":20765:20767   */\n      0x40\n        /* \"#utility.yul\":20754:20763   */\n      dup3\n        /* \"#utility.yul\":20750:20768   */\n      add\n        /* \"#utility.yul\":20742:20768   */\n      swap1\n      pop\n        /* \"#utility.yul\":20778:20849   */\n      tag_467\n        /* \"#utility.yul\":20846:20847   */\n      0x00\n        /* \"#utility.yul\":20835:20844   */\n      dup4\n        /* \"#utility.yul\":20831:20848   */\n      add\n        /* \"#utility.yul\":20822:20828   */\n      dup6\n        /* \"#utility.yul\":20778:20849   */\n      tag_248\n      jump\t// in\n    tag_467:\n        /* \"#utility.yul\":20859:20931   */\n      tag_468\n        /* \"#utility.yul\":20927:20929   */\n      0x20\n        /* \"#utility.yul\":20916:20925   */\n      dup4\n        /* \"#utility.yul\":20912:20930   */\n      add\n        /* \"#utility.yul\":20903:20909   */\n      dup5\n        /* \"#utility.yul\":20859:20931   */\n      tag_234\n      jump\t// in\n    tag_468:\n        /* \"#utility.yul\":20606:20938   */\n      swap4\n      swap3\n      pop\n      pop\n      pop\n      jump\t// out\n        /* \"#utility.yul\":20944:21177   */\n    tag_171:\n        /* \"#utility.yul\":20983:20986   */\n      0x00\n        /* \"#utility.yul\":21006:21030   */\n      tag_470\n        /* \"#utility.yul\":21024:21029   */\n      dup3\n        /* \"#utility.yul\":21006:21030   */\n      tag_233\n      jump\t// in\n    tag_470:\n        /* \"#utility.yul\":20997:21030   */\n      swap2\n      pop\n        /* \"#utility.yul\":21052:21118   */\n      0xffffffffffffffffffffffffffffffffffffffffffffffffffffffffffffffff\n        /* \"#utility.yul\":21045:21050   */\n      dup3\n        /* \"#utility.yul\":21042:21119   */\n      sub\n        /* \"#utility.yul\":21039:21142   */\n      tag_471\n      jumpi\n        /* \"#utility.yul\":21122:21140   */\n      tag_472\n      tag_264\n      jump\t// in\n    tag_472:\n        /* \"#utility.yul\":21039:21142   */\n    tag_471:\n        /* \"#utility.yul\":21169:21170   */\n      0x01\n        /* \"#utility.yul\":21162:21167   */\n      dup3\n        /* \"#utility.yul\":21158:21171   */\n      add\n        /* \"#utility.yul\":21151:21171   */\n      swap1\n      pop\n        /* \"#utility.yul\":20944:21177   */\n      swap2\n      swap1\n      pop\n      jump\t// out\n        /* \"#utility.yul\":21183:21359   */\n    tag_275:\n        /* \"#utility.yul\":21323:21351   */\n      0x4c414e3a204e6f7420746865206c617465737420626964646572000000000000\n        /* \"#utility.yul\":21319:21320   */\n      0x00\n        /* \"#utility.yul\":21311:21317   */\n      dup3\n        /* \"#utility.yul\":21307:21321   */\n      add\n        /* \"#utility.yul\":21300:21352   */\n      mstore\n        /* \"#utility.yul\":21183:21359   */\n      pop\n      jump\t// out\n        /* \"#utility.yul\":21365:21731   */\n    tag_276:\n        /* \"#utility.yul\":21507:21510   */\n      0x00\n        /* \"#utility.yul\":21528:21595   */\n      tag_475\n        /* \"#utility.yul\":21592:21594   */\n      0x1a\n        /* \"#utility.yul\":21587:21590   */\n      dup4\n        /* \"#utility.yul\":21528:21595   */\n      tag_253\n      jump\t// in\n    tag_475:\n        /* \"#utility.yul\":21521:21595   */\n      swap2\n      pop\n        /* \"#utility.yul\":21604:21697   */\n      tag_476\n        /* \"#utility.yul\":21693:21696   */\n      dup3\n        /* \"#utility.yul\":21604:21697   */\n      tag_275\n      jump\t// in\n    tag_476:\n        /* \"#utility.yul\":21722:21724   */\n      0x20\n        /* \"#utility.yul\":21717:21720   */\n      dup3\n        /* \"#utility.yul\":21713:21725   */\n      add\n        /* \"#utility.yul\":21706:21725   */\n      swap1\n      pop\n        /* \"#utility.yul\":21365:21731   */\n      swap2\n      swap1\n      pop\n      jump\t// out\n        /* \"#utility.yul\":21737:22156   */\n    tag_181:\n        /* \"#utility.yul\":21903:21907   */\n      0x00\n        /* \"#utility.yul\":21941:21943   */\n      0x20\n        /* \"#utility.yul\":21930:21939   */\n      dup3\n        /* \"#utility.yul\":21926:21944   */\n      add\n        /* \"#utility.yul\":21918:21944   */\n      swap1\n      pop\n        /* \"#utility.yul\":21990:21999   */\n      dup2\n        /* \"#utility.yul\":21984:21988   */\n      dup2\n        /* \"#utility.yul\":21980:22000   */\n      sub\n        /* \"#utility.yul\":21976:21977   */\n      0x00\n        /* \"#utility.yul\":21965:21974   */\n      dup4\n        /* \"#utility.yul\":21961:21978   */\n      add\n        /* \"#utility.yul\":21954:22001   */\n      mstore\n        /* \"#utility.yul\":22018:22149   */\n      tag_478\n        /* \"#utility.yul\":22144:22148   */\n      dup2\n        /* \"#utility.yul\":22018:22149   */\n      tag_276\n      jump\t// in\n    tag_478:\n        /* \"#utility.yul\":22010:22149   */\n      swap1\n      pop\n        /* \"#utility.yul\":21737:22156   */\n      swap2\n      swap1\n      pop\n      jump\t// out\n        /* \"#utility.yul\":22162:22572   */\n    tag_211:\n        /* \"#utility.yul\":22202:22209   */\n      0x00\n        /* \"#utility.yul\":22225:22245   */\n      tag_480\n        /* \"#utility.yul\":22243:22244   */\n      dup3\n        /* \"#utility.yul\":22225:22245   */\n      tag_233\n      jump\t// in\n    tag_480:\n        /* \"#utility.yul\":22220:22245   */\n      swap2\n      pop\n        /* \"#utility.yul\":22259:22279   */\n      tag_481\n        /* \"#utility.yul\":22277:22278   */\n      dup4\n        /* \"#utility.yul\":22259:22279   */\n      tag_233\n      jump\t// in\n    tag_481:\n        /* \"#utility.yul\":22254:22279   */\n      swap3\n      pop\n        /* \"#utility.yul\":22314:22315   */\n      dup3\n        /* \"#utility.yul\":22311:22312   */\n      dup3\n        /* \"#utility.yul\":22307:22316   */\n      mul\n        /* \"#utility.yul\":22336:22366   */\n      tag_482\n        /* \"#utility.yul\":22354:22365   */\n      dup2\n        /* \"#utility.yul\":22336:22366   */\n      tag_233\n      jump\t// in\n    tag_482:\n        /* \"#utility.yul\":22325:22366   */\n      swap2\n      pop\n        /* \"#utility.yul\":22515:22516   */\n      dup3\n        /* \"#utility.yul\":22506:22513   */\n      dup3\n        /* \"#utility.yul\":22502:22517   */\n      div\n        /* \"#utility.yul\":22499:22500   */\n      dup5\n        /* \"#utility.yul\":22496:22518   */\n      eq\n        /* \"#utility.yul\":22476:22477   */\n      dup4\n        /* \"#utility.yul\":22469:22478   */\n      iszero\n        /* \"#utility.yul\":22449:22532   */\n      or\n        /* \"#utility.yul\":22426:22565   */\n      tag_483\n      jumpi\n        /* \"#utility.yul\":22545:22563   */\n      tag_484\n      tag_264\n      jump\t// in\n    tag_484:\n        /* \"#utility.yul\":22426:22565   */\n    tag_483:\n        /* \"#utility.yul\":22210:22572   */\n      pop\n        /* \"#utility.yul\":22162:22572   */\n      swap3\n      swap2\n      pop\n      pop\n      jump\t// out\n        /* \"#utility.yul\":22578:22758   */\n    tag_277:\n        /* \"#utility.yul\":22626:22703   */\n      0x4e487b7100000000000000000000000000000000000000000000000000000000\n        /* \"#utility.yul\":22623:22624   */\n      0x00\n        /* \"#utility.yul\":22616:22704   */\n      mstore\n        /* \"#utility.yul\":22723:22727   */\n      0x12\n        /* \"#utility.yul\":22720:22721   */\n      0x04\n        /* \"#utility.yul\":22713:22728   */\n      mstore\n        /* \"#utility.yul\":22747:22751   */\n      0x24\n        /* \"#utility.yul\":22744:22745   */\n      0x00\n        /* \"#utility.yul\":22737:22752   */\n      revert\n        /* \"#utility.yul\":22764:22949   */\n    tag_213:\n        /* \"#utility.yul\":22804:22805   */\n      0x00\n        /* \"#utility.yul\":22821:22841   */\n      tag_487\n        /* \"#utility.yul\":22839:22840   */\n      dup3\n        /* \"#utility.yul\":22821:22841   */\n      tag_233\n      jump\t// in\n    tag_487:\n        /* \"#utility.yul\":22816:22841   */\n      swap2\n      pop\n        /* \"#utility.yul\":22855:22875   */\n      tag_488\n        /* \"#utility.yul\":22873:22874   */\n      dup4\n        /* \"#utility.yul\":22855:22875   */\n      tag_233\n      jump\t// in\n    tag_488:\n        /* \"#utility.yul\":22850:22875   */\n      swap3\n      pop\n        /* \"#utility.yul\":22894:22895   */\n      dup3\n        /* \"#utility.yul\":22884:22919   */\n      tag_489\n      jumpi\n        /* \"#utility.yul\":22899:22917   */\n      tag_490\n      tag_277\n      jump\t// in\n    tag_490:\n        /* \"#utility.yul\":22884:22919   */\n    tag_489:\n        /* \"#utility.yul\":22941:22942   */\n      dup3\n        /* \"#utility.yul\":22938:22939   */\n      dup3\n        /* \"#utility.yul\":22934:22943   */\n      div\n        /* \"#utility.yul\":22929:22943   */\n      swap1\n      pop\n        /* \"#utility.yul\":22764:22949   */\n      swap3\n      swap2\n      pop\n      pop\n      jump\t// out\n        /* \"#utility.yul\":22955:23177   */\n    tag_219:\n        /* \"#utility.yul\":23048:23052   */\n      0x00\n        /* \"#utility.yul\":23086:23088   */\n      0x20\n        /* \"#utility.yul\":23075:23084   */\n      dup3\n        /* \"#utility.yul\":23071:23089   */\n      add\n        /* \"#utility.yul\":23063:23089   */\n      swap1\n      pop\n        /* \"#utility.yul\":23099:23170   */\n      tag_492\n        /* \"#utility.yul\":23167:23168   */\n      0x00\n        /* \"#utility.yul\":23156:23165   */\n      dup4\n        /* \"#utility.yul\":23152:23169   */\n      add\n        /* \"#utility.yul\":23143:23149   */\n      dup5\n        /* \"#utility.yul\":23099:23170   */\n      tag_248\n      jump\t// in\n    tag_492:\n        /* \"#utility.yul\":22955:23177   */\n      swap3\n      swap2\n      pop\n      pop\n      jump\t// out\n        /* \"#utility.yul\":23183:23326   */\n    tag_278:\n        /* \"#utility.yul\":23240:23245   */\n      0x00\n        /* \"#utility.yul\":23271:23277   */\n      dup2\n        /* \"#utility.yul\":23265:23278   */\n      mload\n        /* \"#utility.yul\":23256:23278   */\n      swap1\n      pop\n        /* \"#utility.yul\":23287:23320   */\n      tag_494\n        /* \"#utility.yul\":23314:23319   */\n      dup2\n        /* \"#utility.yul\":23287:23320   */\n      tag_238\n      jump\t// in\n    tag_494:\n        /* \"#utility.yul\":23183:23326   */\n      swap3\n      swap2\n      pop\n      pop\n      jump\t// out\n        /* \"#utility.yul\":23332:23683   */\n    tag_223:\n        /* \"#utility.yul\":23402:23408   */\n      0x00\n        /* \"#utility.yul\":23451:23453   */\n      0x20\n        /* \"#utility.yul\":23439:23448   */\n      dup3\n        /* \"#utility.yul\":23430:23437   */\n      dup5\n        /* \"#utility.yul\":23426:23449   */\n      sub\n        /* \"#utility.yul\":23422:23454   */\n      slt\n        /* \"#utility.yul\":23419:23538   */\n      iszero\n      tag_496\n      jumpi\n        /* \"#utility.yul\":23457:23536   */\n      tag_497\n      tag_236\n      jump\t// in\n    tag_497:\n        /* \"#utility.yul\":23419:23538   */\n    tag_496:\n        /* \"#utility.yul\":23577:23578   */\n      0x00\n        /* \"#utility.yul\":23602:23666   */\n      tag_498\n        /* \"#utility.yul\":23658:23665   */\n      dup5\n        /* \"#utility.yul\":23649:23655   */\n      dup3\n        /* \"#utility.yul\":23638:23647   */\n      dup6\n        /* \"#utility.yul\":23634:23656   */\n      add\n        /* \"#utility.yul\":23602:23666   */\n      tag_278\n      jump\t// in\n    tag_498:\n        /* \"#utility.yul\":23592:23666   */\n      swap2\n      pop\n        /* \"#utility.yul\":23548:23676   */\n      pop\n        /* \"#utility.yul\":23332:23683   */\n      swap3\n      swap2\n      pop\n      pop\n      jump\t// out\n\n    auxdata: 0xa264697066735822122079f45d36ba19ec2167fa85eca438f92bbbd813e0665edf02cae4398ec3b4181764736f6c63430008110033\n}\n",
				"bytecode": {
					"linkReferences": {},
					"object": "608060405234801561001057600080fd5b5061389a806100206000396000f3fe608060405234801561001057600080fd5b50600436106100ea5760003560e01c80637b3c4baa1161008c578063a23b02bd11610066578063a23b02bd14610235578063d8aed14514610265578063e1ec3c6814610281578063f724e48e146102bc576100ea565b80637b3c4baa146101c957806389e257a3146101fd5780638f769f3a14610219576100ea565b8063222fdf21116100c8578063222fdf211461014557806340e58ee514610161578063415f12401461017d5780637a4656d614610199576100ea565b806306661abd146100ef57806318de4f9d1461010d5780632168ed3014610129575b600080fd5b6100f76102d8565b6040516101049190612c51565b60405180910390f35b61012760048036038101906101229190612c9d565b6102de565b005b610143600480360381019061013e9190612d04565b6107bc565b005b61015f600480360381019061015a9190612da3565b610c74565b005b61017b60048036038101906101769190612c9d565b610dbe565b005b61019760048036038101906101929190612c9d565b611194565b005b6101b360048036038101906101ae9190612c9d565b611603565b6040516101c09190612c51565b60405180910390f35b6101e360048036038101906101de9190612de3565b61161b565b6040516101f4959493929190612e73565b60405180910390f35b61021760048036038101906102129190612ef2565b61168c565b005b610233600480360381019061022e9190612fbc565b611acb565b005b61024f600480360381019061024a9190612fbc565b611e9d565b60405161025c919061300b565b60405180910390f35b61027f600480360381019061027a9190612de3565b611ecc565b005b61029b60048036038101906102969190612c9d565b612488565b6040516102b39c9b9a99989796959493929190613026565b60405180910390f35b6102d660048036038101906102d191906130e0565b6125a2565b005b60005481565b803373ffffffffffffffffffffffffffffffffffffffff166001600083815260200190815260200160002060000160009054906101000a900473ffffffffffffffffffffffffffffffffffffffff1673ffffffffffffffffffffffffffffffffffffffff1614806103b057503373ffffffffffffffffffffffffffffffffffffffff166001600083815260200190815260200160002060020160009054906101000a900473ffffffffffffffffffffffffffffffffffffffff1673ffffffffffffffffffffffffffffffffffffffff16145b6103ef576040517f08c379a00000000000000000000000000000000000000000000000000000000081526004016103e690613190565b60405180910390fd5b600060016000848152602001908152602001600020604051806101800160405290816000820160009054906101000a900473ffffffffffffffffffffffffffffffffffffffff1673ffffffffffffffffffffffffffffffffffffffff1673ffffffffffffffffffffffffffffffffffffffff1681526020016001820160009054906101000a900473ffffffffffffffffffffffffffffffffffffffff1673ffffffffffffffffffffffffffffffffffffffff1673ffffffffffffffffffffffffffffffffffffffff1681526020016002820160009054906101000a900473ffffffffffffffffffffffffffffffffffffffff1673ffffffffffffffffffffffffffffffffffffffff1673ffffffffffffffffffffffffffffffffffffffff1681526020016003820160009054906101000a900473ffffffffffffffffffffffffffffffffffffffff1673ffffffffffffffffffffffffffffffffffffffff1673ffffffffffffffffffffffffffffffffffffffff1681526020016004820160009054906101000a900473ffffffffffffffffffffffffffffffffffffffff1673ffffffffffffffffffffffffffffffffffffffff1673ffffffffffffffffffffffffffffffffffffffff1681526020016005820154815260200160068201548152602001600782015481526020016008820154815260200160098201548152602001600a820160009054906101000a900460ff16151515158152602001600a820160019054906101000a900460ff1615151515815250509050600060026000858152602001908152602001600020600083610120015181526020019081526020016000206040518060a001604052908160008201548152602001600182015481526020016002820160009054906101000a900473ffffffffffffffffffffffffffffffffffffffff1673ffffffffffffffffffffffffffffffffffffffff1673ffffffffffffffffffffffffffffffffffffffff168152602001600382015481526020016004820160009054906101000a900461ffff1661ffff1661ffff168152505090506000826080015190508073ffffffffffffffffffffffffffffffffffffffff166342842e0e3084604001518660c001516040518463ffffffff1660e01b8152600401610742939291906131b0565b600060405180830381600087803b15801561075c57600080fd5b505af1158015610770573d6000803e3d6000fd5b505050507fcf3eafc70e544bbb0b7b916314be01382e9819ef1dea730bd182222030ffe4a9856040516107a39190612c51565b60405180910390a16107b3612b65565b92505050505050565b6107c58461260f565b610804576040517f08c379a00000000000000000000000000000000000000000000000000000000081526004016107fb90613233565b60405180910390fd5b61080d84612631565b1561084d576040517f08c379a00000000000000000000000000000000000000000000000000000000081526004016108449061329f565b60405180910390fd5b600060016000868152602001908152602001600020905080600a0160019054906101000a900460ff1680156108dc57506003600086815260200190815260200160002060003373ffffffffffffffffffffffffffffffffffffffff1673ffffffffffffffffffffffffffffffffffffffff16815260200190815260200160002060009054906101000a900460ff165b806108fc57506000151581600a0160019054906101000a900460ff161515145b61093b576040517f08c379a00000000000000000000000000000000000000000000000000000000081526004016109329061330b565b60405180910390fd5b600061094686612654565b905080851161098a576040517f08c379a000000000000000000000000000000000000000000000000000000000815260040161098190613377565b60405180910390fd5b60006040518060a001604052804281526020018781526020013373ffffffffffffffffffffffffffffffffffffffff1681526020018681526020018561ffff1681525090508060026000898152602001908152602001600020600085600901548152602001908152602001600020600082015181600001556020820151816001015560408201518160020160006101000a81548173ffffffffffffffffffffffffffffffffffffffff021916908373ffffffffffffffffffffffffffffffffffffffff1602179055506060820151816003015560808201518160040160006101000a81548161ffff021916908361ffff160217905550905050848360050181905550600060018460090154610a9f91906133c6565b90508084600901819055508360010160009054906101000a900473ffffffffffffffffffffffffffffffffffffffff1673ffffffffffffffffffffffffffffffffffffffff166323b872dd33600260008c8152602001908152602001600020600085815260200190815260200160002060020160009054906101000a900473ffffffffffffffffffffffffffffffffffffffff16866040518463ffffffff1660e01b8152600401610b52939291906131b0565b6020604051808303816000875af1158015610b71573d6000803e3d6000fd5b505050506040513d601f19601f82011682018060405250810190610b95919061340f565b508360010160009054906101000a900473ffffffffffffffffffffffffffffffffffffffff1673ffffffffffffffffffffffffffffffffffffffff166323b872dd338660000160009054906101000a900473ffffffffffffffffffffffffffffffffffffffff16868b610c08919061343c565b6040518463ffffffff1660e01b8152600401610c26939291906131b0565b6020604051808303816000875af1158015610c45573d6000803e3d6000fd5b505050506040513d601f19601f82011682018060405250810190610c69919061340f565b505050505050505050565b813373ffffffffffffffffffffffffffffffffffffffff166001600083815260200190815260200160002060000160009054906101000a900473ffffffffffffffffffffffffffffffffffffffff1673ffffffffffffffffffffffffffffffffffffffff161480610d4657503373ffffffffffffffffffffffffffffffffffffffff166001600083815260200190815260200160002060020160009054906101000a900473ffffffffffffffffffffffffffffffffffffffff1673ffffffffffffffffffffffffffffffffffffffff16145b610d85576040517f08c379a0000000000000000000000000000000000000000000000000000000008152600401610d7c90613190565b60405180910390fd5b60006001600085815260200190815260200160002090508281600a0160016101000a81548160ff02191690831515021790555050505050565b803373ffffffffffffffffffffffffffffffffffffffff166001600083815260200190815260200160002060000160009054906101000a900473ffffffffffffffffffffffffffffffffffffffff1673ffffffffffffffffffffffffffffffffffffffff161480610e9057503373ffffffffffffffffffffffffffffffffffffffff166001600083815260200190815260200160002060020160009054906101000a900473ffffffffffffffffffffffffffffffffffffffff1673ffffffffffffffffffffffffffffffffffffffff16145b610ecf576040517f08c379a0000000000000000000000000000000000000000000000000000000008152600401610ec690613190565b60405180910390fd5b600060016000848152602001908152602001600020604051806101800160405290816000820160009054906101000a900473ffffffffffffffffffffffffffffffffffffffff1673ffffffffffffffffffffffffffffffffffffffff1673ffffffffffffffffffffffffffffffffffffffff1681526020016001820160009054906101000a900473ffffffffffffffffffffffffffffffffffffffff1673ffffffffffffffffffffffffffffffffffffffff1673ffffffffffffffffffffffffffffffffffffffff1681526020016002820160009054906101000a900473ffffffffffffffffffffffffffffffffffffffff1673ffffffffffffffffffffffffffffffffffffffff1673ffffffffffffffffffffffffffffffffffffffff1681526020016003820160009054906101000a900473ffffffffffffffffffffffffffffffffffffffff1673ffffffffffffffffffffffffffffffffffffffff1673ffffffffffffffffffffffffffffffffffffffff1681526020016004820160009054906101000a900473ffffffffffffffffffffffffffffffffffffffff1673ffffffffffffffffffffffffffffffffffffffff1673ffffffffffffffffffffffffffffffffffffffff1681526020016005820154815260200160068201548152602001600782015481526020016008820154815260200160098201548152602001600a820160009054906101000a900460ff16151515158152602001600a820160019054906101000a900460ff1615151515815250509050428160e001511161114e576040517f08c379a0000000000000000000000000000000000000000000000000000000008152600401611145906134bc565b60405180910390fd5b611156612b65565b90507ffe785ef891129b084b1c5a30e4d88eb97c97822c024cc25d5f9d806b897512e0836040516111879190612c51565b60405180910390a1505050565b600060016000838152602001908152602001600020604051806101800160405290816000820160009054906101000a900473ffffffffffffffffffffffffffffffffffffffff1673ffffffffffffffffffffffffffffffffffffffff1673ffffffffffffffffffffffffffffffffffffffff1681526020016001820160009054906101000a900473ffffffffffffffffffffffffffffffffffffffff1673ffffffffffffffffffffffffffffffffffffffff1673ffffffffffffffffffffffffffffffffffffffff1681526020016002820160009054906101000a900473ffffffffffffffffffffffffffffffffffffffff1673ffffffffffffffffffffffffffffffffffffffff1673ffffffffffffffffffffffffffffffffffffffff1681526020016003820160009054906101000a900473ffffffffffffffffffffffffffffffffffffffff1673ffffffffffffffffffffffffffffffffffffffff1673ffffffffffffffffffffffffffffffffffffffff1681526020016004820160009054906101000a900473ffffffffffffffffffffffffffffffffffffffff1673ffffffffffffffffffffffffffffffffffffffff1673ffffffffffffffffffffffffffffffffffffffff1681526020016005820154815260200160068201548152602001600782015481526020016008820154815260200160098201548152602001600a820160009054906101000a900460ff16151515158152602001600a820160019054906101000a900460ff1615151515815250509050600060026000848152602001908152602001600020600083610120015181526020019081526020016000206040518060a001604052908160008201548152602001600182015481526020016002820160009054906101000a900473ffffffffffffffffffffffffffffffffffffffff1673ffffffffffffffffffffffffffffffffffffffff1673ffffffffffffffffffffffffffffffffffffffff168152602001600382015481526020016004820160009054906101000a900461ffff1661ffff1661ffff168152505090503373ffffffffffffffffffffffffffffffffffffffff16816040015173ffffffffffffffffffffffffffffffffffffffff161480156114dd57506114dc83612631565b5b806114fd575081610140015180156114fc57506114fb8282856129f3565b5b5b61153c576040517f08c379a00000000000000000000000000000000000000000000000000000000081526004016115339061354e565b60405180910390fd5b6000826080015190508073ffffffffffffffffffffffffffffffffffffffff166342842e0e3084604001518660c001516040518463ffffffff1660e01b815260040161158a939291906131b0565b600060405180830381600087803b1580156115a457600080fd5b505af11580156115b8573d6000803e3d6000fd5b505050507fcf3eafc70e544bbb0b7b916314be01382e9819ef1dea730bd182222030ffe4a9846040516115eb9190612c51565b60405180910390a16115fb612b65565b925050505050565b60046020528060005260406000206000915090505481565b6002602052816000526040600020602052806000526040600020600091509150508060000154908060010154908060020160009054906101000a900473ffffffffffffffffffffffffffffffffffffffff16908060030154908060040160009054906101000a900461ffff16905085565b428410156116cf576040517f08c379a00000000000000000000000000000000000000000000000000000000081526004016116c6906135ba565b60405180910390fd5b838311611711576040517f08c379a000000000000000000000000000000000000000000000000000000000815260040161170890613626565b60405180910390fd5b6040518061018001604052808773ffffffffffffffffffffffffffffffffffffffff16636352211e886040518263ffffffff1660e01b81526004016117569190612c51565b602060405180830381865afa158015611773573d6000803e3d6000fd5b505050506040513d601f19601f82011682018060405250810190611797919061365b565b73ffffffffffffffffffffffffffffffffffffffff1681526020018973ffffffffffffffffffffffffffffffffffffffff1681526020018a73ffffffffffffffffffffffffffffffffffffffff1681526020018873ffffffffffffffffffffffffffffffffffffffff1681526020018773ffffffffffffffffffffffffffffffffffffffff16815260200160008152602001868152602001858152602001848152602001600081526020018315158152602001821515815250600160008054815260200190815260200160002060008201518160000160006101000a81548173ffffffffffffffffffffffffffffffffffffffff021916908373ffffffffffffffffffffffffffffffffffffffff16021790555060208201518160010160006101000a81548173ffffffffffffffffffffffffffffffffffffffff021916908373ffffffffffffffffffffffffffffffffffffffff16021790555060408201518160020160006101000a81548173ffffffffffffffffffffffffffffffffffffffff021916908373ffffffffffffffffffffffffffffffffffffffff16021790555060608201518160030160006101000a81548173ffffffffffffffffffffffffffffffffffffffff021916908373ffffffffffffffffffffffffffffffffffffffff16021790555060808201518160040160006101000a81548173ffffffffffffffffffffffffffffffffffffffff021916908373ffffffffffffffffffffffffffffffffffffffff16021790555060a0820151816005015560c0820151816006015560e082015181600701556101008201518160080155610120820151816009015561014082015181600a0160006101000a81548160ff02191690831515021790555061016082015181600a0160016101000a81548160ff0219169083151502179055509050504260026000805481526020019081526020016000206000808152602001908152602001600020600001819055506000547fef8b2952c43462575e82711d0cc91169720a4589a9fa533d173e022437f5405e8787604051611aa1929190613688565b60405180910390a2600080815480929190611abb906136b1565b9190505550505050505050505050565b611ad48261260f565b611b13576040517f08c379a0000000000000000000000000000000000000000000000000000000008152600401611b0a90613233565b60405180910390fd5b611b1c82612631565b15611b5c576040517f08c379a0000000000000000000000000000000000000000000000000000000008152600401611b539061329f565b60405180910390fd5b600060016000848152602001908152602001600020604051806101800160405290816000820160009054906101000a900473ffffffffffffffffffffffffffffffffffffffff1673ffffffffffffffffffffffffffffffffffffffff1673ffffffffffffffffffffffffffffffffffffffff1681526020016001820160009054906101000a900473ffffffffffffffffffffffffffffffffffffffff1673ffffffffffffffffffffffffffffffffffffffff1673ffffffffffffffffffffffffffffffffffffffff1681526020016002820160009054906101000a900473ffffffffffffffffffffffffffffffffffffffff1673ffffffffffffffffffffffffffffffffffffffff1673ffffffffffffffffffffffffffffffffffffffff1681526020016003820160009054906101000a900473ffffffffffffffffffffffffffffffffffffffff1673ffffffffffffffffffffffffffffffffffffffff1673ffffffffffffffffffffffffffffffffffffffff1681526020016004820160009054906101000a900473ffffffffffffffffffffffffffffffffffffffff1673ffffffffffffffffffffffffffffffffffffffff1673ffffffffffffffffffffffffffffffffffffffff1681526020016005820154815260200160068201548152602001600782015481526020016008820154815260200160098201548152602001600a820160009054906101000a900460ff16151515158152602001600a820160019054906101000a900460ff16151515158152505090506000600260008581526020019081526020016000206000836101200151815260200190815260200160002090503373ffffffffffffffffffffffffffffffffffffffff168160020160009054906101000a900473ffffffffffffffffffffffffffffffffffffffff1673ffffffffffffffffffffffffffffffffffffffff1614611e54576040517f08c379a0000000000000000000000000000000000000000000000000000000008152600401611e4b90613745565b60405180910390fd5b828160020160006101000a81548173ffffffffffffffffffffffffffffffffffffffff021916908373ffffffffffffffffffffffffffffffffffffffff16021790555050505050565b60036020528160005260406000206020528060005260406000206000915091509054906101000a900460ff1681565b813373ffffffffffffffffffffffffffffffffffffffff166001600083815260200190815260200160002060000160009054906101000a900473ffffffffffffffffffffffffffffffffffffffff1673ffffffffffffffffffffffffffffffffffffffff161480611f9e57503373ffffffffffffffffffffffffffffffffffffffff166001600083815260200190815260200160002060020160009054906101000a900473ffffffffffffffffffffffffffffffffffffffff1673ffffffffffffffffffffffffffffffffffffffff16145b611fdd576040517f08c379a0000000000000000000000000000000000000000000000000000000008152600401611fd490613190565b60405180910390fd5b600060016000858152602001908152602001600020604051806101800160405290816000820160009054906101000a900473ffffffffffffffffffffffffffffffffffffffff1673ffffffffffffffffffffffffffffffffffffffff1673ffffffffffffffffffffffffffffffffffffffff1681526020016001820160009054906101000a900473ffffffffffffffffffffffffffffffffffffffff1673ffffffffffffffffffffffffffffffffffffffff1673ffffffffffffffffffffffffffffffffffffffff1681526020016002820160009054906101000a900473ffffffffffffffffffffffffffffffffffffffff1673ffffffffffffffffffffffffffffffffffffffff1673ffffffffffffffffffffffffffffffffffffffff1681526020016003820160009054906101000a900473ffffffffffffffffffffffffffffffffffffffff1673ffffffffffffffffffffffffffffffffffffffff1673ffffffffffffffffffffffffffffffffffffffff1681526020016004820160009054906101000a900473ffffffffffffffffffffffffffffffffffffffff1673ffffffffffffffffffffffffffffffffffffffff1673ffffffffffffffffffffffffffffffffffffffff1681526020016005820154815260200160068201548152602001600782015481526020016008820154815260200160098201548152602001600a820160009054906101000a900460ff16151515158152602001600a820160019054906101000a900460ff1615151515815250509050600060026000868152602001908152602001600020600083610120015181526020019081526020016000206040518060a001604052908160008201548152602001600182015481526020016002820160009054906101000a900473ffffffffffffffffffffffffffffffffffffffff1673ffffffffffffffffffffffffffffffffffffffff1673ffffffffffffffffffffffffffffffffffffffff168152602001600382015481526020016004820160009054906101000a900461ffff1661ffff1661ffff16815250509050816020015173ffffffffffffffffffffffffffffffffffffffff166323b872dd3330876040518463ffffffff1660e01b8152600401612323939291906131b0565b6020604051808303816000875af1158015612342573d6000803e3d6000fd5b505050506040513d601f19601f82011682018060405250810190612366919061340f565b5061237085612654565b60046000878152602001908152602001600020548561238f91906133c6565b10612457576000826080015190508073ffffffffffffffffffffffffffffffffffffffff166342842e0e3084604001518660c001516040518463ffffffff1660e01b81526004016123e2939291906131b0565b600060405180830381600087803b1580156123fc57600080fd5b505af1158015612410573d6000803e3d6000fd5b505050507fcf3eafc70e544bbb0b7b916314be01382e9819ef1dea730bd182222030ffe4a9866040516124439190612c51565b60405180910390a1612453612b65565b9250505b8360046000878152602001908152602001600020600082825461247a91906133c6565b925050819055505050505050565b60016020528060005260406000206000915090508060000160009054906101000a900473ffffffffffffffffffffffffffffffffffffffff16908060010160009054906101000a900473ffffffffffffffffffffffffffffffffffffffff16908060020160009054906101000a900473ffffffffffffffffffffffffffffffffffffffff16908060030160009054906101000a900473ffffffffffffffffffffffffffffffffffffffff16908060040160009054906101000a900473ffffffffffffffffffffffffffffffffffffffff169080600501549080600601549080600701549080600801549080600901549080600a0160009054906101000a900460ff169080600a0160019054906101000a900460ff1690508c565b806003600085815260200190815260200160002060008473ffffffffffffffffffffffffffffffffffffffff1673ffffffffffffffffffffffffffffffffffffffff16815260200190815260200160002060006101000a81548160ff021916908315150217905550505050565b6000426001600084815260200190815260200160002060070154109050919050565b600042600160008481526020019081526020016000206008015411159050919050565b60008060016000848152602001908152602001600020604051806101800160405290816000820160009054906101000a900473ffffffffffffffffffffffffffffffffffffffff1673ffffffffffffffffffffffffffffffffffffffff1673ffffffffffffffffffffffffffffffffffffffff1681526020016001820160009054906101000a900473ffffffffffffffffffffffffffffffffffffffff1673ffffffffffffffffffffffffffffffffffffffff1673ffffffffffffffffffffffffffffffffffffffff1681526020016002820160009054906101000a900473ffffffffffffffffffffffffffffffffffffffff1673ffffffffffffffffffffffffffffffffffffffff1673ffffffffffffffffffffffffffffffffffffffff1681526020016003820160009054906101000a900473ffffffffffffffffffffffffffffffffffffffff1673ffffffffffffffffffffffffffffffffffffffff1673ffffffffffffffffffffffffffffffffffffffff1681526020016004820160009054906101000a900473ffffffffffffffffffffffffffffffffffffffff1673ffffffffffffffffffffffffffffffffffffffff1673ffffffffffffffffffffffffffffffffffffffff1681526020016005820154815260200160068201548152602001600782015481526020016008820154815260200160098201548152602001600a820160009054906101000a900460ff16151515158152602001600a820160019054906101000a900460ff1615151515815250509050600060026000858152602001908152602001600020600083610120015181526020019081526020016000206040518060a001604052908160008201548152602001600182015481526020016002820160009054906101000a900473ffffffffffffffffffffffffffffffffffffffff1673ffffffffffffffffffffffffffffffffffffffff1673ffffffffffffffffffffffffffffffffffffffff168152602001600382015481526020016004820160009054906101000a900461ffff1661ffff1661ffff16815250509050600061296585612631565b1561298657826101000151826000015161297f919061343c565b9050612999565b428260000151612996919061343c565b90505b6301e1338081670de0b6b3a76400008560a0015185602001516129bc9190613765565b6129c691906137d6565b6129d09190613765565b6129da91906137d6565b82602001516129e991906133c6565b9350505050919050565b600080846060015173ffffffffffffffffffffffffffffffffffffffff1663fc57d4df86602001516040518263ffffffff1660e01b8152600401612a379190613807565b602060405180830381865afa158015612a54573d6000803e3d6000fd5b505050506040513d601f19601f82011682018060405250810190612a789190613837565b856060015173ffffffffffffffffffffffffffffffffffffffff1663fc57d4df87608001516040518263ffffffff1660e01b8152600401612ab99190613807565b602060405180830381865afa158015612ad6573d6000803e3d6000fd5b505050506040513d601f19601f82011682018060405250810190612afa9190613837565b612b0491906137d6565b9050600181856080015161ffff16612b1c9190613765565b60046000868152602001908152602001600020548660200151612b3f919061343c565b612b4991906137d6565b10612b58576000915050612b5e565b60019150505b9392505050565b604051806101800160405280600073ffffffffffffffffffffffffffffffffffffffff168152602001600073ffffffffffffffffffffffffffffffffffffffff168152602001600073ffffffffffffffffffffffffffffffffffffffff168152602001600073ffffffffffffffffffffffffffffffffffffffff168152602001600073ffffffffffffffffffffffffffffffffffffffff16815260200160008152602001600081526020016000815260200160008152602001600081526020016000151581526020016000151581525090565b6000819050919050565b612c4b81612c38565b82525050565b6000602082019050612c666000830184612c42565b92915050565b600080fd5b612c7a81612c38565b8114612c8557600080fd5b50565b600081359050612c9781612c71565b92915050565b600060208284031215612cb357612cb2612c6c565b5b6000612cc184828501612c88565b91505092915050565b600061ffff82169050919050565b612ce181612cca565b8114612cec57600080fd5b50565b600081359050612cfe81612cd8565b92915050565b60008060008060808587031215612d1e57612d1d612c6c565b5b6000612d2c87828801612c88565b9450506020612d3d87828801612c88565b9350506040612d4e87828801612c88565b9250506060612d5f87828801612cef565b91505092959194509250565b60008115159050919050565b612d8081612d6b565b8114612d8b57600080fd5b50565b600081359050612d9d81612d77565b92915050565b60008060408385031215612dba57612db9612c6c565b5b6000612dc885828601612c88565b9250506020612dd985828601612d8e565b9150509250929050565b60008060408385031215612dfa57612df9612c6c565b5b6000612e0885828601612c88565b9250506020612e1985828601612c88565b9150509250929050565b600073ffffffffffffffffffffffffffffffffffffffff82169050919050565b6000612e4e82612e23565b9050919050565b612e5e81612e43565b82525050565b612e6d81612cca565b82525050565b600060a082019050612e886000830188612c42565b612e956020830187612c42565b612ea26040830186612e55565b612eaf6060830185612c42565b612ebc6080830184612e64565b9695505050505050565b612ecf81612e43565b8114612eda57600080fd5b50565b600081359050612eec81612ec6565b92915050565b60008060008060008060008060006101208a8c031215612f1557612f14612c6c565b5b6000612f238c828d01612edd565b9950506020612f348c828d01612edd565b9850506040612f458c828d01612edd565b9750506060612f568c828d01612edd565b9650506080612f678c828d01612c88565b95505060a0612f788c828d01612c88565b94505060c0612f898c828d01612c88565b93505060e0612f9a8c828d01612d8e565b925050610100612fac8c828d01612d8e565b9150509295985092959850929598565b60008060408385031215612fd357612fd2612c6c565b5b6000612fe185828601612c88565b9250506020612ff285828601612edd565b9150509250929050565b61300581612d6b565b82525050565b60006020820190506130206000830184612ffc565b92915050565b60006101808201905061303c600083018f612e55565b613049602083018e612e55565b613056604083018d612e55565b613063606083018c612e55565b613070608083018b612e55565b61307d60a083018a612c42565b61308a60c0830189612c42565b61309760e0830188612c42565b6130a5610100830187612c42565b6130b3610120830186612c42565b6130c1610140830185612ffc565b6130cf610160830184612ffc565b9d9c50505050505050505050505050565b6000806000606084860312156130f9576130f8612c6c565b5b600061310786828701612c88565b935050602061311886828701612edd565b925050604061312986828701612d8e565b9150509250925092565b600082825260208201905092915050565b7f4c414e3a206e6f74206f776e6572000000000000000000000000000000000000600082015250565b600061317a600e83613133565b915061318582613144565b602082019050919050565b600060208201905081810360008301526131a98161316d565b9050919050565b60006060820190506131c56000830186612e55565b6131d26020830185612e55565b6131df6040830184612c42565b949350505050565b7f4c414e3a206e6f74207374617274656400000000000000000000000000000000600082015250565b600061321d601083613133565b9150613228826131e7565b602082019050919050565b6000602082019050818103600083015261324c81613210565b9050919050565b7f4c414e3a20616c726561647920656e6465640000000000000000000000000000600082015250565b6000613289601283613133565b915061329482613253565b602082019050919050565b600060208201905081810360008301526132b88161327c565b9050919050565b7f4c414e3a204e6f742057686974656c6973746564000000000000000000000000600082015250565b60006132f5601483613133565b9150613300826132bf565b602082019050919050565b60006020820190508181036000830152613324816132e8565b9050919050565b7f4c414e3a20626964206e6f742068696768657200000000000000000000000000600082015250565b6000613361601383613133565b915061336c8261332b565b602082019050919050565b6000602082019050818103600083015261339081613354565b9050919050565b7f4e487b7100000000000000000000000000000000000000000000000000000000600052601160045260246000fd5b60006133d182612c38565b91506133dc83612c38565b92508282019050808211156133f4576133f3613397565b5b92915050565b60008151905061340981612d77565b92915050565b60006020828403121561342557613424612c6c565b5b6000613433848285016133fa565b91505092915050565b600061344782612c38565b915061345283612c38565b925082820390508181111561346a57613469613397565b5b92915050565b7f4c414e3a20616c72656164792073746172746564000000000000000000000000600082015250565b60006134a6601483613133565b91506134b182613470565b602082019050919050565b600060208201905081810360008301526134d581613499565b9050919050565b7f4c414e3a206e6f74206c6174657374206269646465722f6e6f746f7665722c2060008201527f6f72206e6f74206c6971756964617461626c6500000000000000000000000000602082015250565b6000613538603383613133565b9150613543826134dc565b604082019050919050565b600060208201905081810360008301526135678161352b565b9050919050565b7f4c414e3a2073746172742074696d6520696e2070617374000000000000000000600082015250565b60006135a4601783613133565b91506135af8261356e565b602082019050919050565b600060208201905081810360008301526135d381613597565b9050919050565b7f4c414e3a20737461727420616674657220656e64000000000000000000000000600082015250565b6000613610601483613133565b915061361b826135da565b602082019050919050565b6000602082019050818103600083015261363f81613603565b9050919050565b60008151905061365581612ec6565b92915050565b60006020828403121561367157613670612c6c565b5b600061367f84828501613646565b91505092915050565b600060408201905061369d6000830185612e55565b6136aa6020830184612c42565b9392505050565b60006136bc82612c38565b91507fffffffffffffffffffffffffffffffffffffffffffffffffffffffffffffffff82036136ee576136ed613397565b5b600182019050919050565b7f4c414e3a204e6f7420746865206c617465737420626964646572000000000000600082015250565b600061372f601a83613133565b915061373a826136f9565b602082019050919050565b6000602082019050818103600083015261375e81613722565b9050919050565b600061377082612c38565b915061377b83612c38565b925082820261378981612c38565b915082820484148315176137a05761379f613397565b5b5092915050565b7f4e487b7100000000000000000000000000000000000000000000000000000000600052601260045260246000fd5b60006137e182612c38565b91506137ec83612c38565b9250826137fc576137fb6137a7565b5b828204905092915050565b600060208201905061381c6000830184612e55565b92915050565b60008151905061383181612c71565b92915050565b60006020828403121561384d5761384c612c6c565b5b600061385b84828501613822565b9150509291505056fea264697066735822122079f45d36ba19ec2167fa85eca438f92bbbd813e0665edf02cae4398ec3b4181764736f6c63430008110033",
					"opcodes": "PUSH1 0x80 PUSH1 0x40 MSTORE CALLVALUE DUP1 ISZERO PUSH2 0x10 JUMPI PUSH1 0x0 DUP1 REVERT JUMPDEST POP PUSH2 0x389A DUP1 PUSH2 0x20 PUSH1 0x0 CODECOPY PUSH1 0x0 RETURN INVALID PUSH1 0x80 PUSH1 0x40 MSTORE CALLVALUE DUP1 ISZERO PUSH2 0x10 JUMPI PUSH1 0x0 DUP1 REVERT JUMPDEST POP PUSH1 0x4 CALLDATASIZE LT PUSH2 0xEA JUMPI PUSH1 0x0 CALLDATALOAD PUSH1 0xE0 SHR DUP1 PUSH4 0x7B3C4BAA GT PUSH2 0x8C JUMPI DUP1 PUSH4 0xA23B02BD GT PUSH2 0x66 JUMPI DUP1 PUSH4 0xA23B02BD EQ PUSH2 0x235 JUMPI DUP1 PUSH4 0xD8AED145 EQ PUSH2 0x265 JUMPI DUP1 PUSH4 0xE1EC3C68 EQ PUSH2 0x281 JUMPI DUP1 PUSH4 0xF724E48E EQ PUSH2 0x2BC JUMPI PUSH2 0xEA JUMP JUMPDEST DUP1 PUSH4 0x7B3C4BAA EQ PUSH2 0x1C9 JUMPI DUP1 PUSH4 0x89E257A3 EQ PUSH2 0x1FD JUMPI DUP1 PUSH4 0x8F769F3A EQ PUSH2 0x219 JUMPI PUSH2 0xEA JUMP JUMPDEST DUP1 PUSH4 0x222FDF21 GT PUSH2 0xC8 JUMPI DUP1 PUSH4 0x222FDF21 EQ PUSH2 0x145 JUMPI DUP1 PUSH4 0x40E58EE5 EQ PUSH2 0x161 JUMPI DUP1 PUSH4 0x415F1240 EQ PUSH2 0x17D JUMPI DUP1 PUSH4 0x7A4656D6 EQ PUSH2 0x199 JUMPI PUSH2 0xEA JUMP JUMPDEST DUP1 PUSH4 0x6661ABD EQ PUSH2 0xEF JUMPI DUP1 PUSH4 0x18DE4F9D EQ PUSH2 0x10D JUMPI DUP1 PUSH4 0x2168ED30 EQ PUSH2 0x129 JUMPI JUMPDEST PUSH1 0x0 DUP1 REVERT JUMPDEST PUSH2 0xF7 PUSH2 0x2D8 JUMP JUMPDEST PUSH1 0x40 MLOAD PUSH2 0x104 SWAP2 SWAP1 PUSH2 0x2C51 JUMP JUMPDEST PUSH1 0x40 MLOAD DUP1 SWAP2 SUB SWAP1 RETURN JUMPDEST PUSH2 0x127 PUSH1 0x4 DUP1 CALLDATASIZE SUB DUP2 ADD SWAP1 PUSH2 0x122 SWAP2 SWAP1 PUSH2 0x2C9D JUMP JUMPDEST PUSH2 0x2DE JUMP JUMPDEST STOP JUMPDEST PUSH2 0x143 PUSH1 0x4 DUP1 CALLDATASIZE SUB DUP2 ADD SWAP1 PUSH2 0x13E SWAP2 SWAP1 PUSH2 0x2D04 JUMP JUMPDEST PUSH2 0x7BC JUMP JUMPDEST STOP JUMPDEST PUSH2 0x15F PUSH1 0x4 DUP1 CALLDATASIZE SUB DUP2 ADD SWAP1 PUSH2 0x15A SWAP2 SWAP1 PUSH2 0x2DA3 JUMP JUMPDEST PUSH2 0xC74 JUMP JUMPDEST STOP JUMPDEST PUSH2 0x17B PUSH1 0x4 DUP1 CALLDATASIZE SUB DUP2 ADD SWAP1 PUSH2 0x176 SWAP2 SWAP1 PUSH2 0x2C9D JUMP JUMPDEST PUSH2 0xDBE JUMP JUMPDEST STOP JUMPDEST PUSH2 0x197 PUSH1 0x4 DUP1 CALLDATASIZE SUB DUP2 ADD SWAP1 PUSH2 0x192 SWAP2 SWAP1 PUSH2 0x2C9D JUMP JUMPDEST PUSH2 0x1194 JUMP JUMPDEST STOP JUMPDEST PUSH2 0x1B3 PUSH1 0x4 DUP1 CALLDATASIZE SUB DUP2 ADD SWAP1 PUSH2 0x1AE SWAP2 SWAP1 PUSH2 0x2C9D JUMP JUMPDEST PUSH2 0x1603 JUMP JUMPDEST PUSH1 0x40 MLOAD PUSH2 0x1C0 SWAP2 SWAP1 PUSH2 0x2C51 JUMP JUMPDEST PUSH1 0x40 MLOAD DUP1 SWAP2 SUB SWAP1 RETURN JUMPDEST PUSH2 0x1E3 PUSH1 0x4 DUP1 CALLDATASIZE SUB DUP2 ADD SWAP1 PUSH2 0x1DE SWAP2 SWAP1 PUSH2 0x2DE3 JUMP JUMPDEST PUSH2 0x161B JUMP JUMPDEST PUSH1 0x40 MLOAD PUSH2 0x1F4 SWAP6 SWAP5 SWAP4 SWAP3 SWAP2 SWAP1 PUSH2 0x2E73 JUMP JUMPDEST PUSH1 0x40 MLOAD DUP1 SWAP2 SUB SWAP1 RETURN JUMPDEST PUSH2 0x217 PUSH1 0x4 DUP1 CALLDATASIZE SUB DUP2 ADD SWAP1 PUSH2 0x212 SWAP2 SWAP1 PUSH2 0x2EF2 JUMP JUMPDEST PUSH2 0x168C JUMP JUMPDEST STOP JUMPDEST PUSH2 0x233 PUSH1 0x4 DUP1 CALLDATASIZE SUB DUP2 ADD SWAP1 PUSH2 0x22E SWAP2 SWAP1 PUSH2 0x2FBC JUMP JUMPDEST PUSH2 0x1ACB JUMP JUMPDEST STOP JUMPDEST PUSH2 0x24F PUSH1 0x4 DUP1 CALLDATASIZE SUB DUP2 ADD SWAP1 PUSH2 0x24A SWAP2 SWAP1 PUSH2 0x2FBC JUMP JUMPDEST PUSH2 0x1E9D JUMP JUMPDEST PUSH1 0x40 MLOAD PUSH2 0x25C SWAP2 SWAP1 PUSH2 0x300B JUMP JUMPDEST PUSH1 0x40 MLOAD DUP1 SWAP2 SUB SWAP1 RETURN JUMPDEST PUSH2 0x27F PUSH1 0x4 DUP1 CALLDATASIZE SUB DUP2 ADD SWAP1 PUSH2 0x27A SWAP2 SWAP1 PUSH2 0x2DE3 JUMP JUMPDEST PUSH2 0x1ECC JUMP JUMPDEST STOP JUMPDEST PUSH2 0x29B PUSH1 0x4 DUP1 CALLDATASIZE SUB DUP2 ADD SWAP1 PUSH2 0x296 SWAP2 SWAP1 PUSH2 0x2C9D JUMP JUMPDEST PUSH2 0x2488 JUMP JUMPDEST PUSH1 0x40 MLOAD PUSH2 0x2B3 SWAP13 SWAP12 SWAP11 SWAP10 SWAP9 SWAP8 SWAP7 SWAP6 SWAP5 SWAP4 SWAP3 SWAP2 SWAP1 PUSH2 0x3026 JUMP JUMPDEST PUSH1 0x40 MLOAD DUP1 SWAP2 SUB SWAP1 RETURN JUMPDEST PUSH2 0x2D6 PUSH1 0x4 DUP1 CALLDATASIZE SUB DUP2 ADD SWAP1 PUSH2 0x2D1 SWAP2 SWAP1 PUSH2 0x30E0 JUMP JUMPDEST PUSH2 0x25A2 JUMP JUMPDEST STOP JUMPDEST PUSH1 0x0 SLOAD DUP2 JUMP JUMPDEST DUP1 CALLER PUSH20 0xFFFFFFFFFFFFFFFFFFFFFFFFFFFFFFFFFFFFFFFF AND PUSH1 0x1 PUSH1 0x0 DUP4 DUP2 MSTORE PUSH1 0x20 ADD SWAP1 DUP2 MSTORE PUSH1 0x20 ADD PUSH1 0x0 KECCAK256 PUSH1 0x0 ADD PUSH1 0x0 SWAP1 SLOAD SWAP1 PUSH2 0x100 EXP SWAP1 DIV PUSH20 0xFFFFFFFFFFFFFFFFFFFFFFFFFFFFFFFFFFFFFFFF AND PUSH20 0xFFFFFFFFFFFFFFFFFFFFFFFFFFFFFFFFFFFFFFFF AND EQ DUP1 PUSH2 0x3B0 JUMPI POP CALLER PUSH20 0xFFFFFFFFFFFFFFFFFFFFFFFFFFFFFFFFFFFFFFFF AND PUSH1 0x1 PUSH1 0x0 DUP4 DUP2 MSTORE PUSH1 0x20 ADD SWAP1 DUP2 MSTORE PUSH1 0x20 ADD PUSH1 0x0 KECCAK256 PUSH1 0x2 ADD PUSH1 0x0 SWAP1 SLOAD SWAP1 PUSH2 0x100 EXP SWAP1 DIV PUSH20 0xFFFFFFFFFFFFFFFFFFFFFFFFFFFFFFFFFFFFFFFF AND PUSH20 0xFFFFFFFFFFFFFFFFFFFFFFFFFFFFFFFFFFFFFFFF AND EQ JUMPDEST PUSH2 0x3EF JUMPI PUSH1 0x40 MLOAD PUSH32 0x8C379A000000000000000000000000000000000000000000000000000000000 DUP2 MSTORE PUSH1 0x4 ADD PUSH2 0x3E6 SWAP1 PUSH2 0x3190 JUMP JUMPDEST PUSH1 0x40 MLOAD DUP1 SWAP2 SUB SWAP1 REVERT JUMPDEST PUSH1 0x0 PUSH1 0x1 PUSH1 0x0 DUP5 DUP2 MSTORE PUSH1 0x20 ADD SWAP1 DUP2 MSTORE PUSH1 0x20 ADD PUSH1 0x0 KECCAK256 PUSH1 0x40 MLOAD DUP1 PUSH2 0x180 ADD PUSH1 0x40 MSTORE SWAP1 DUP2 PUSH1 0x0 DUP3 ADD PUSH1 0x0 SWAP1 SLOAD SWAP1 PUSH2 0x100 EXP SWAP1 DIV PUSH20 0xFFFFFFFFFFFFFFFFFFFFFFFFFFFFFFFFFFFFFFFF AND PUSH20 0xFFFFFFFFFFFFFFFFFFFFFFFFFFFFFFFFFFFFFFFF AND PUSH20 0xFFFFFFFFFFFFFFFFFFFFFFFFFFFFFFFFFFFFFFFF AND DUP2 MSTORE PUSH1 0x20 ADD PUSH1 0x1 DUP3 ADD PUSH1 0x0 SWAP1 SLOAD SWAP1 PUSH2 0x100 EXP SWAP1 DIV PUSH20 0xFFFFFFFFFFFFFFFFFFFFFFFFFFFFFFFFFFFFFFFF AND PUSH20 0xFFFFFFFFFFFFFFFFFFFFFFFFFFFFFFFFFFFFFFFF AND PUSH20 0xFFFFFFFFFFFFFFFFFFFFFFFFFFFFFFFFFFFFFFFF AND DUP2 MSTORE PUSH1 0x20 ADD PUSH1 0x2 DUP3 ADD PUSH1 0x0 SWAP1 SLOAD SWAP1 PUSH2 0x100 EXP SWAP1 DIV PUSH20 0xFFFFFFFFFFFFFFFFFFFFFFFFFFFFFFFFFFFFFFFF AND PUSH20 0xFFFFFFFFFFFFFFFFFFFFFFFFFFFFFFFFFFFFFFFF AND PUSH20 0xFFFFFFFFFFFFFFFFFFFFFFFFFFFFFFFFFFFFFFFF AND DUP2 MSTORE PUSH1 0x20 ADD PUSH1 0x3 DUP3 ADD PUSH1 0x0 SWAP1 SLOAD SWAP1 PUSH2 0x100 EXP SWAP1 DIV PUSH20 0xFFFFFFFFFFFFFFFFFFFFFFFFFFFFFFFFFFFFFFFF AND PUSH20 0xFFFFFFFFFFFFFFFFFFFFFFFFFFFFFFFFFFFFFFFF AND PUSH20 0xFFFFFFFFFFFFFFFFFFFFFFFFFFFFFFFFFFFFFFFF AND DUP2 MSTORE PUSH1 0x20 ADD PUSH1 0x4 DUP3 ADD PUSH1 0x0 SWAP1 SLOAD SWAP1 PUSH2 0x100 EXP SWAP1 DIV PUSH20 0xFFFFFFFFFFFFFFFFFFFFFFFFFFFFFFFFFFFFFFFF AND PUSH20 0xFFFFFFFFFFFFFFFFFFFFFFFFFFFFFFFFFFFFFFFF AND PUSH20 0xFFFFFFFFFFFFFFFFFFFFFFFFFFFFFFFFFFFFFFFF AND DUP2 MSTORE PUSH1 0x20 ADD PUSH1 0x5 DUP3 ADD SLOAD DUP2 MSTORE PUSH1 0x20 ADD PUSH1 0x6 DUP3 ADD SLOAD DUP2 MSTORE PUSH1 0x20 ADD PUSH1 0x7 DUP3 ADD SLOAD DUP2 MSTORE PUSH1 0x20 ADD PUSH1 0x8 DUP3 ADD SLOAD DUP2 MSTORE PUSH1 0x20 ADD PUSH1 0x9 DUP3 ADD SLOAD DUP2 MSTORE PUSH1 0x20 ADD PUSH1 0xA DUP3 ADD PUSH1 0x0 SWAP1 SLOAD SWAP1 PUSH2 0x100 EXP SWAP1 DIV PUSH1 0xFF AND ISZERO ISZERO ISZERO ISZERO DUP2 MSTORE PUSH1 0x20 ADD PUSH1 0xA DUP3 ADD PUSH1 0x1 SWAP1 SLOAD SWAP1 PUSH2 0x100 EXP SWAP1 DIV PUSH1 0xFF AND ISZERO ISZERO ISZERO ISZERO DUP2 MSTORE POP POP SWAP1 POP PUSH1 0x0 PUSH1 0x2 PUSH1 0x0 DUP6 DUP2 MSTORE PUSH1 0x20 ADD SWAP1 DUP2 MSTORE PUSH1 0x20 ADD PUSH1 0x0 KECCAK256 PUSH1 0x0 DUP4 PUSH2 0x120 ADD MLOAD DUP2 MSTORE PUSH1 0x20 ADD SWAP1 DUP2 MSTORE PUSH1 0x20 ADD PUSH1 0x0 KECCAK256 PUSH1 0x40 MLOAD DUP1 PUSH1 0xA0 ADD PUSH1 0x40 MSTORE SWAP1 DUP2 PUSH1 0x0 DUP3 ADD SLOAD DUP2 MSTORE PUSH1 0x20 ADD PUSH1 0x1 DUP3 ADD SLOAD DUP2 MSTORE PUSH1 0x20 ADD PUSH1 0x2 DUP3 ADD PUSH1 0x0 SWAP1 SLOAD SWAP1 PUSH2 0x100 EXP SWAP1 DIV PUSH20 0xFFFFFFFFFFFFFFFFFFFFFFFFFFFFFFFFFFFFFFFF AND PUSH20 0xFFFFFFFFFFFFFFFFFFFFFFFFFFFFFFFFFFFFFFFF AND PUSH20 0xFFFFFFFFFFFFFFFFFFFFFFFFFFFFFFFFFFFFFFFF AND DUP2 MSTORE PUSH1 0x20 ADD PUSH1 0x3 DUP3 ADD SLOAD DUP2 MSTORE PUSH1 0x20 ADD PUSH1 0x4 DUP3 ADD PUSH1 0x0 SWAP1 SLOAD SWAP1 PUSH2 0x100 EXP SWAP1 DIV PUSH2 0xFFFF AND PUSH2 0xFFFF AND PUSH2 0xFFFF AND DUP2 MSTORE POP POP SWAP1 POP PUSH1 0x0 DUP3 PUSH1 0x80 ADD MLOAD SWAP1 POP DUP1 PUSH20 0xFFFFFFFFFFFFFFFFFFFFFFFFFFFFFFFFFFFFFFFF AND PUSH4 0x42842E0E ADDRESS DUP5 PUSH1 0x40 ADD MLOAD DUP7 PUSH1 0xC0 ADD MLOAD PUSH1 0x40 MLOAD DUP5 PUSH4 0xFFFFFFFF AND PUSH1 0xE0 SHL DUP2 MSTORE PUSH1 0x4 ADD PUSH2 0x742 SWAP4 SWAP3 SWAP2 SWAP1 PUSH2 0x31B0 JUMP JUMPDEST PUSH1 0x0 PUSH1 0x40 MLOAD DUP1 DUP4 SUB DUP2 PUSH1 0x0 DUP8 DUP1 EXTCODESIZE ISZERO DUP1 ISZERO PUSH2 0x75C JUMPI PUSH1 0x0 DUP1 REVERT JUMPDEST POP GAS CALL ISZERO DUP1 ISZERO PUSH2 0x770 JUMPI RETURNDATASIZE PUSH1 0x0 DUP1 RETURNDATACOPY RETURNDATASIZE PUSH1 0x0 REVERT JUMPDEST POP POP POP POP PUSH32 0xCF3EAFC70E544BBB0B7B916314BE01382E9819EF1DEA730BD182222030FFE4A9 DUP6 PUSH1 0x40 MLOAD PUSH2 0x7A3 SWAP2 SWAP1 PUSH2 0x2C51 JUMP JUMPDEST PUSH1 0x40 MLOAD DUP1 SWAP2 SUB SWAP1 LOG1 PUSH2 0x7B3 PUSH2 0x2B65 JUMP JUMPDEST SWAP3 POP POP POP POP POP POP JUMP JUMPDEST PUSH2 0x7C5 DUP5 PUSH2 0x260F JUMP JUMPDEST PUSH2 0x804 JUMPI PUSH1 0x40 MLOAD PUSH32 0x8C379A000000000000000000000000000000000000000000000000000000000 DUP2 MSTORE PUSH1 0x4 ADD PUSH2 0x7FB SWAP1 PUSH2 0x3233 JUMP JUMPDEST PUSH1 0x40 MLOAD DUP1 SWAP2 SUB SWAP1 REVERT JUMPDEST PUSH2 0x80D DUP5 PUSH2 0x2631 JUMP JUMPDEST ISZERO PUSH2 0x84D JUMPI PUSH1 0x40 MLOAD PUSH32 0x8C379A000000000000000000000000000000000000000000000000000000000 DUP2 MSTORE PUSH1 0x4 ADD PUSH2 0x844 SWAP1 PUSH2 0x329F JUMP JUMPDEST PUSH1 0x40 MLOAD DUP1 SWAP2 SUB SWAP1 REVERT JUMPDEST PUSH1 0x0 PUSH1 0x1 PUSH1 0x0 DUP7 DUP2 MSTORE PUSH1 0x20 ADD SWAP1 DUP2 MSTORE PUSH1 0x20 ADD PUSH1 0x0 KECCAK256 SWAP1 POP DUP1 PUSH1 0xA ADD PUSH1 0x1 SWAP1 SLOAD SWAP1 PUSH2 0x100 EXP SWAP1 DIV PUSH1 0xFF AND DUP1 ISZERO PUSH2 0x8DC JUMPI POP PUSH1 0x3 PUSH1 0x0 DUP7 DUP2 MSTORE PUSH1 0x20 ADD SWAP1 DUP2 MSTORE PUSH1 0x20 ADD PUSH1 0x0 KECCAK256 PUSH1 0x0 CALLER PUSH20 0xFFFFFFFFFFFFFFFFFFFFFFFFFFFFFFFFFFFFFFFF AND PUSH20 0xFFFFFFFFFFFFFFFFFFFFFFFFFFFFFFFFFFFFFFFF AND DUP2 MSTORE PUSH1 0x20 ADD SWAP1 DUP2 MSTORE PUSH1 0x20 ADD PUSH1 0x0 KECCAK256 PUSH1 0x0 SWAP1 SLOAD SWAP1 PUSH2 0x100 EXP SWAP1 DIV PUSH1 0xFF AND JUMPDEST DUP1 PUSH2 0x8FC JUMPI POP PUSH1 0x0 ISZERO ISZERO DUP2 PUSH1 0xA ADD PUSH1 0x1 SWAP1 SLOAD SWAP1 PUSH2 0x100 EXP SWAP1 DIV PUSH1 0xFF AND ISZERO ISZERO EQ JUMPDEST PUSH2 0x93B JUMPI PUSH1 0x40 MLOAD PUSH32 0x8C379A000000000000000000000000000000000000000000000000000000000 DUP2 MSTORE PUSH1 0x4 ADD PUSH2 0x932 SWAP1 PUSH2 0x330B JUMP JUMPDEST PUSH1 0x40 MLOAD DUP1 SWAP2 SUB SWAP1 REVERT JUMPDEST PUSH1 0x0 PUSH2 0x946 DUP7 PUSH2 0x2654 JUMP JUMPDEST SWAP1 POP DUP1 DUP6 GT PUSH2 0x98A JUMPI PUSH1 0x40 MLOAD PUSH32 0x8C379A000000000000000000000000000000000000000000000000000000000 DUP2 MSTORE PUSH1 0x4 ADD PUSH2 0x981 SWAP1 PUSH2 0x3377 JUMP JUMPDEST PUSH1 0x40 MLOAD DUP1 SWAP2 SUB SWAP1 REVERT JUMPDEST PUSH1 0x0 PUSH1 0x40 MLOAD DUP1 PUSH1 0xA0 ADD PUSH1 0x40 MSTORE DUP1 TIMESTAMP DUP2 MSTORE PUSH1 0x20 ADD DUP8 DUP2 MSTORE PUSH1 0x20 ADD CALLER PUSH20 0xFFFFFFFFFFFFFFFFFFFFFFFFFFFFFFFFFFFFFFFF AND DUP2 MSTORE PUSH1 0x20 ADD DUP7 DUP2 MSTORE PUSH1 0x20 ADD DUP6 PUSH2 0xFFFF AND DUP2 MSTORE POP SWAP1 POP DUP1 PUSH1 0x2 PUSH1 0x0 DUP10 DUP2 MSTORE PUSH1 0x20 ADD SWAP1 DUP2 MSTORE PUSH1 0x20 ADD PUSH1 0x0 KECCAK256 PUSH1 0x0 DUP6 PUSH1 0x9 ADD SLOAD DUP2 MSTORE PUSH1 0x20 ADD SWAP1 DUP2 MSTORE PUSH1 0x20 ADD PUSH1 0x0 KECCAK256 PUSH1 0x0 DUP3 ADD MLOAD DUP2 PUSH1 0x0 ADD SSTORE PUSH1 0x20 DUP3 ADD MLOAD DUP2 PUSH1 0x1 ADD SSTORE PUSH1 0x40 DUP3 ADD MLOAD DUP2 PUSH1 0x2 ADD PUSH1 0x0 PUSH2 0x100 EXP DUP2 SLOAD DUP2 PUSH20 0xFFFFFFFFFFFFFFFFFFFFFFFFFFFFFFFFFFFFFFFF MUL NOT AND SWAP1 DUP4 PUSH20 0xFFFFFFFFFFFFFFFFFFFFFFFFFFFFFFFFFFFFFFFF AND MUL OR SWAP1 SSTORE POP PUSH1 0x60 DUP3 ADD MLOAD DUP2 PUSH1 0x3 ADD SSTORE PUSH1 0x80 DUP3 ADD MLOAD DUP2 PUSH1 0x4 ADD PUSH1 0x0 PUSH2 0x100 EXP DUP2 SLOAD DUP2 PUSH2 0xFFFF MUL NOT AND SWAP1 DUP4 PUSH2 0xFFFF AND MUL OR SWAP1 SSTORE POP SWAP1 POP POP DUP5 DUP4 PUSH1 0x5 ADD DUP2 SWAP1 SSTORE POP PUSH1 0x0 PUSH1 0x1 DUP5 PUSH1 0x9 ADD SLOAD PUSH2 0xA9F SWAP2 SWAP1 PUSH2 0x33C6 JUMP JUMPDEST SWAP1 POP DUP1 DUP5 PUSH1 0x9 ADD DUP2 SWAP1 SSTORE POP DUP4 PUSH1 0x1 ADD PUSH1 0x0 SWAP1 SLOAD SWAP1 PUSH2 0x100 EXP SWAP1 DIV PUSH20 0xFFFFFFFFFFFFFFFFFFFFFFFFFFFFFFFFFFFFFFFF AND PUSH20 0xFFFFFFFFFFFFFFFFFFFFFFFFFFFFFFFFFFFFFFFF AND PUSH4 0x23B872DD CALLER PUSH1 0x2 PUSH1 0x0 DUP13 DUP2 MSTORE PUSH1 0x20 ADD SWAP1 DUP2 MSTORE PUSH1 0x20 ADD PUSH1 0x0 KECCAK256 PUSH1 0x0 DUP6 DUP2 MSTORE PUSH1 0x20 ADD SWAP1 DUP2 MSTORE PUSH1 0x20 ADD PUSH1 0x0 KECCAK256 PUSH1 0x2 ADD PUSH1 0x0 SWAP1 SLOAD SWAP1 PUSH2 0x100 EXP SWAP1 DIV PUSH20 0xFFFFFFFFFFFFFFFFFFFFFFFFFFFFFFFFFFFFFFFF AND DUP7 PUSH1 0x40 MLOAD DUP5 PUSH4 0xFFFFFFFF AND PUSH1 0xE0 SHL DUP2 MSTORE PUSH1 0x4 ADD PUSH2 0xB52 SWAP4 SWAP3 SWAP2 SWAP1 PUSH2 0x31B0 JUMP JUMPDEST PUSH1 0x20 PUSH1 0x40 MLOAD DUP1 DUP4 SUB DUP2 PUSH1 0x0 DUP8 GAS CALL ISZERO DUP1 ISZERO PUSH2 0xB71 JUMPI RETURNDATASIZE PUSH1 0x0 DUP1 RETURNDATACOPY RETURNDATASIZE PUSH1 0x0 REVERT JUMPDEST POP POP POP POP PUSH1 0x40 MLOAD RETURNDATASIZE PUSH1 0x1F NOT PUSH1 0x1F DUP3 ADD AND DUP3 ADD DUP1 PUSH1 0x40 MSTORE POP DUP2 ADD SWAP1 PUSH2 0xB95 SWAP2 SWAP1 PUSH2 0x340F JUMP JUMPDEST POP DUP4 PUSH1 0x1 ADD PUSH1 0x0 SWAP1 SLOAD SWAP1 PUSH2 0x100 EXP SWAP1 DIV PUSH20 0xFFFFFFFFFFFFFFFFFFFFFFFFFFFFFFFFFFFFFFFF AND PUSH20 0xFFFFFFFFFFFFFFFFFFFFFFFFFFFFFFFFFFFFFFFF AND PUSH4 0x23B872DD CALLER DUP7 PUSH1 0x0 ADD PUSH1 0x0 SWAP1 SLOAD SWAP1 PUSH2 0x100 EXP SWAP1 DIV PUSH20 0xFFFFFFFFFFFFFFFFFFFFFFFFFFFFFFFFFFFFFFFF AND DUP7 DUP12 PUSH2 0xC08 SWAP2 SWAP1 PUSH2 0x343C JUMP JUMPDEST PUSH1 0x40 MLOAD DUP5 PUSH4 0xFFFFFFFF AND PUSH1 0xE0 SHL DUP2 MSTORE PUSH1 0x4 ADD PUSH2 0xC26 SWAP4 SWAP3 SWAP2 SWAP1 PUSH2 0x31B0 JUMP JUMPDEST PUSH1 0x20 PUSH1 0x40 MLOAD DUP1 DUP4 SUB DUP2 PUSH1 0x0 DUP8 GAS CALL ISZERO DUP1 ISZERO PUSH2 0xC45 JUMPI RETURNDATASIZE PUSH1 0x0 DUP1 RETURNDATACOPY RETURNDATASIZE PUSH1 0x0 REVERT JUMPDEST POP POP POP POP PUSH1 0x40 MLOAD RETURNDATASIZE PUSH1 0x1F NOT PUSH1 0x1F DUP3 ADD AND DUP3 ADD DUP1 PUSH1 0x40 MSTORE POP DUP2 ADD SWAP1 PUSH2 0xC69 SWAP2 SWAP1 PUSH2 0x340F JUMP JUMPDEST POP POP POP POP POP POP POP POP POP JUMP JUMPDEST DUP2 CALLER PUSH20 0xFFFFFFFFFFFFFFFFFFFFFFFFFFFFFFFFFFFFFFFF AND PUSH1 0x1 PUSH1 0x0 DUP4 DUP2 MSTORE PUSH1 0x20 ADD SWAP1 DUP2 MSTORE PUSH1 0x20 ADD PUSH1 0x0 KECCAK256 PUSH1 0x0 ADD PUSH1 0x0 SWAP1 SLOAD SWAP1 PUSH2 0x100 EXP SWAP1 DIV PUSH20 0xFFFFFFFFFFFFFFFFFFFFFFFFFFFFFFFFFFFFFFFF AND PUSH20 0xFFFFFFFFFFFFFFFFFFFFFFFFFFFFFFFFFFFFFFFF AND EQ DUP1 PUSH2 0xD46 JUMPI POP CALLER PUSH20 0xFFFFFFFFFFFFFFFFFFFFFFFFFFFFFFFFFFFFFFFF AND PUSH1 0x1 PUSH1 0x0 DUP4 DUP2 MSTORE PUSH1 0x20 ADD SWAP1 DUP2 MSTORE PUSH1 0x20 ADD PUSH1 0x0 KECCAK256 PUSH1 0x2 ADD PUSH1 0x0 SWAP1 SLOAD SWAP1 PUSH2 0x100 EXP SWAP1 DIV PUSH20 0xFFFFFFFFFFFFFFFFFFFFFFFFFFFFFFFFFFFFFFFF AND PUSH20 0xFFFFFFFFFFFFFFFFFFFFFFFFFFFFFFFFFFFFFFFF AND EQ JUMPDEST PUSH2 0xD85 JUMPI PUSH1 0x40 MLOAD PUSH32 0x8C379A000000000000000000000000000000000000000000000000000000000 DUP2 MSTORE PUSH1 0x4 ADD PUSH2 0xD7C SWAP1 PUSH2 0x3190 JUMP JUMPDEST PUSH1 0x40 MLOAD DUP1 SWAP2 SUB SWAP1 REVERT JUMPDEST PUSH1 0x0 PUSH1 0x1 PUSH1 0x0 DUP6 DUP2 MSTORE PUSH1 0x20 ADD SWAP1 DUP2 MSTORE PUSH1 0x20 ADD PUSH1 0x0 KECCAK256 SWAP1 POP DUP3 DUP2 PUSH1 0xA ADD PUSH1 0x1 PUSH2 0x100 EXP DUP2 SLOAD DUP2 PUSH1 0xFF MUL NOT AND SWAP1 DUP4 ISZERO ISZERO MUL OR SWAP1 SSTORE POP POP POP POP POP JUMP JUMPDEST DUP1 CALLER PUSH20 0xFFFFFFFFFFFFFFFFFFFFFFFFFFFFFFFFFFFFFFFF AND PUSH1 0x1 PUSH1 0x0 DUP4 DUP2 MSTORE PUSH1 0x20 ADD SWAP1 DUP2 MSTORE PUSH1 0x20 ADD PUSH1 0x0 KECCAK256 PUSH1 0x0 ADD PUSH1 0x0 SWAP1 SLOAD SWAP1 PUSH2 0x100 EXP SWAP1 DIV PUSH20 0xFFFFFFFFFFFFFFFFFFFFFFFFFFFFFFFFFFFFFFFF AND PUSH20 0xFFFFFFFFFFFFFFFFFFFFFFFFFFFFFFFFFFFFFFFF AND EQ DUP1 PUSH2 0xE90 JUMPI POP CALLER PUSH20 0xFFFFFFFFFFFFFFFFFFFFFFFFFFFFFFFFFFFFFFFF AND PUSH1 0x1 PUSH1 0x0 DUP4 DUP2 MSTORE PUSH1 0x20 ADD SWAP1 DUP2 MSTORE PUSH1 0x20 ADD PUSH1 0x0 KECCAK256 PUSH1 0x2 ADD PUSH1 0x0 SWAP1 SLOAD SWAP1 PUSH2 0x100 EXP SWAP1 DIV PUSH20 0xFFFFFFFFFFFFFFFFFFFFFFFFFFFFFFFFFFFFFFFF AND PUSH20 0xFFFFFFFFFFFFFFFFFFFFFFFFFFFFFFFFFFFFFFFF AND EQ JUMPDEST PUSH2 0xECF JUMPI PUSH1 0x40 MLOAD PUSH32 0x8C379A000000000000000000000000000000000000000000000000000000000 DUP2 MSTORE PUSH1 0x4 ADD PUSH2 0xEC6 SWAP1 PUSH2 0x3190 JUMP JUMPDEST PUSH1 0x40 MLOAD DUP1 SWAP2 SUB SWAP1 REVERT JUMPDEST PUSH1 0x0 PUSH1 0x1 PUSH1 0x0 DUP5 DUP2 MSTORE PUSH1 0x20 ADD SWAP1 DUP2 MSTORE PUSH1 0x20 ADD PUSH1 0x0 KECCAK256 PUSH1 0x40 MLOAD DUP1 PUSH2 0x180 ADD PUSH1 0x40 MSTORE SWAP1 DUP2 PUSH1 0x0 DUP3 ADD PUSH1 0x0 SWAP1 SLOAD SWAP1 PUSH2 0x100 EXP SWAP1 DIV PUSH20 0xFFFFFFFFFFFFFFFFFFFFFFFFFFFFFFFFFFFFFFFF AND PUSH20 0xFFFFFFFFFFFFFFFFFFFFFFFFFFFFFFFFFFFFFFFF AND PUSH20 0xFFFFFFFFFFFFFFFFFFFFFFFFFFFFFFFFFFFFFFFF AND DUP2 MSTORE PUSH1 0x20 ADD PUSH1 0x1 DUP3 ADD PUSH1 0x0 SWAP1 SLOAD SWAP1 PUSH2 0x100 EXP SWAP1 DIV PUSH20 0xFFFFFFFFFFFFFFFFFFFFFFFFFFFFFFFFFFFFFFFF AND PUSH20 0xFFFFFFFFFFFFFFFFFFFFFFFFFFFFFFFFFFFFFFFF AND PUSH20 0xFFFFFFFFFFFFFFFFFFFFFFFFFFFFFFFFFFFFFFFF AND DUP2 MSTORE PUSH1 0x20 ADD PUSH1 0x2 DUP3 ADD PUSH1 0x0 SWAP1 SLOAD SWAP1 PUSH2 0x100 EXP SWAP1 DIV PUSH20 0xFFFFFFFFFFFFFFFFFFFFFFFFFFFFFFFFFFFFFFFF AND PUSH20 0xFFFFFFFFFFFFFFFFFFFFFFFFFFFFFFFFFFFFFFFF AND PUSH20 0xFFFFFFFFFFFFFFFFFFFFFFFFFFFFFFFFFFFFFFFF AND DUP2 MSTORE PUSH1 0x20 ADD PUSH1 0x3 DUP3 ADD PUSH1 0x0 SWAP1 SLOAD SWAP1 PUSH2 0x100 EXP SWAP1 DIV PUSH20 0xFFFFFFFFFFFFFFFFFFFFFFFFFFFFFFFFFFFFFFFF AND PUSH20 0xFFFFFFFFFFFFFFFFFFFFFFFFFFFFFFFFFFFFFFFF AND PUSH20 0xFFFFFFFFFFFFFFFFFFFFFFFFFFFFFFFFFFFFFFFF AND DUP2 MSTORE PUSH1 0x20 ADD PUSH1 0x4 DUP3 ADD PUSH1 0x0 SWAP1 SLOAD SWAP1 PUSH2 0x100 EXP SWAP1 DIV PUSH20 0xFFFFFFFFFFFFFFFFFFFFFFFFFFFFFFFFFFFFFFFF AND PUSH20 0xFFFFFFFFFFFFFFFFFFFFFFFFFFFFFFFFFFFFFFFF AND PUSH20 0xFFFFFFFFFFFFFFFFFFFFFFFFFFFFFFFFFFFFFFFF AND DUP2 MSTORE PUSH1 0x20 ADD PUSH1 0x5 DUP3 ADD SLOAD DUP2 MSTORE PUSH1 0x20 ADD PUSH1 0x6 DUP3 ADD SLOAD DUP2 MSTORE PUSH1 0x20 ADD PUSH1 0x7 DUP3 ADD SLOAD DUP2 MSTORE PUSH1 0x20 ADD PUSH1 0x8 DUP3 ADD SLOAD DUP2 MSTORE PUSH1 0x20 ADD PUSH1 0x9 DUP3 ADD SLOAD DUP2 MSTORE PUSH1 0x20 ADD PUSH1 0xA DUP3 ADD PUSH1 0x0 SWAP1 SLOAD SWAP1 PUSH2 0x100 EXP SWAP1 DIV PUSH1 0xFF AND ISZERO ISZERO ISZERO ISZERO DUP2 MSTORE PUSH1 0x20 ADD PUSH1 0xA DUP3 ADD PUSH1 0x1 SWAP1 SLOAD SWAP1 PUSH2 0x100 EXP SWAP1 DIV PUSH1 0xFF AND ISZERO ISZERO ISZERO ISZERO DUP2 MSTORE POP POP SWAP1 POP TIMESTAMP DUP2 PUSH1 0xE0 ADD MLOAD GT PUSH2 0x114E JUMPI PUSH1 0x40 MLOAD PUSH32 0x8C379A000000000000000000000000000000000000000000000000000000000 DUP2 MSTORE PUSH1 0x4 ADD PUSH2 0x1145 SWAP1 PUSH2 0x34BC JUMP JUMPDEST PUSH1 0x40 MLOAD DUP1 SWAP2 SUB SWAP1 REVERT JUMPDEST PUSH2 0x1156 PUSH2 0x2B65 JUMP JUMPDEST SWAP1 POP PUSH32 0xFE785EF891129B084B1C5A30E4D88EB97C97822C024CC25D5F9D806B897512E0 DUP4 PUSH1 0x40 MLOAD PUSH2 0x1187 SWAP2 SWAP1 PUSH2 0x2C51 JUMP JUMPDEST PUSH1 0x40 MLOAD DUP1 SWAP2 SUB SWAP1 LOG1 POP POP POP JUMP JUMPDEST PUSH1 0x0 PUSH1 0x1 PUSH1 0x0 DUP4 DUP2 MSTORE PUSH1 0x20 ADD SWAP1 DUP2 MSTORE PUSH1 0x20 ADD PUSH1 0x0 KECCAK256 PUSH1 0x40 MLOAD DUP1 PUSH2 0x180 ADD PUSH1 0x40 MSTORE SWAP1 DUP2 PUSH1 0x0 DUP3 ADD PUSH1 0x0 SWAP1 SLOAD SWAP1 PUSH2 0x100 EXP SWAP1 DIV PUSH20 0xFFFFFFFFFFFFFFFFFFFFFFFFFFFFFFFFFFFFFFFF AND PUSH20 0xFFFFFFFFFFFFFFFFFFFFFFFFFFFFFFFFFFFFFFFF AND PUSH20 0xFFFFFFFFFFFFFFFFFFFFFFFFFFFFFFFFFFFFFFFF AND DUP2 MSTORE PUSH1 0x20 ADD PUSH1 0x1 DUP3 ADD PUSH1 0x0 SWAP1 SLOAD SWAP1 PUSH2 0x100 EXP SWAP1 DIV PUSH20 0xFFFFFFFFFFFFFFFFFFFFFFFFFFFFFFFFFFFFFFFF AND PUSH20 0xFFFFFFFFFFFFFFFFFFFFFFFFFFFFFFFFFFFFFFFF AND PUSH20 0xFFFFFFFFFFFFFFFFFFFFFFFFFFFFFFFFFFFFFFFF AND DUP2 MSTORE PUSH1 0x20 ADD PUSH1 0x2 DUP3 ADD PUSH1 0x0 SWAP1 SLOAD SWAP1 PUSH2 0x100 EXP SWAP1 DIV PUSH20 0xFFFFFFFFFFFFFFFFFFFFFFFFFFFFFFFFFFFFFFFF AND PUSH20 0xFFFFFFFFFFFFFFFFFFFFFFFFFFFFFFFFFFFFFFFF AND PUSH20 0xFFFFFFFFFFFFFFFFFFFFFFFFFFFFFFFFFFFFFFFF AND DUP2 MSTORE PUSH1 0x20 ADD PUSH1 0x3 DUP3 ADD PUSH1 0x0 SWAP1 SLOAD SWAP1 PUSH2 0x100 EXP SWAP1 DIV PUSH20 0xFFFFFFFFFFFFFFFFFFFFFFFFFFFFFFFFFFFFFFFF AND PUSH20 0xFFFFFFFFFFFFFFFFFFFFFFFFFFFFFFFFFFFFFFFF AND PUSH20 0xFFFFFFFFFFFFFFFFFFFFFFFFFFFFFFFFFFFFFFFF AND DUP2 MSTORE PUSH1 0x20 ADD PUSH1 0x4 DUP3 ADD PUSH1 0x0 SWAP1 SLOAD SWAP1 PUSH2 0x100 EXP SWAP1 DIV PUSH20 0xFFFFFFFFFFFFFFFFFFFFFFFFFFFFFFFFFFFFFFFF AND PUSH20 0xFFFFFFFFFFFFFFFFFFFFFFFFFFFFFFFFFFFFFFFF AND PUSH20 0xFFFFFFFFFFFFFFFFFFFFFFFFFFFFFFFFFFFFFFFF AND DUP2 MSTORE PUSH1 0x20 ADD PUSH1 0x5 DUP3 ADD SLOAD DUP2 MSTORE PUSH1 0x20 ADD PUSH1 0x6 DUP3 ADD SLOAD DUP2 MSTORE PUSH1 0x20 ADD PUSH1 0x7 DUP3 ADD SLOAD DUP2 MSTORE PUSH1 0x20 ADD PUSH1 0x8 DUP3 ADD SLOAD DUP2 MSTORE PUSH1 0x20 ADD PUSH1 0x9 DUP3 ADD SLOAD DUP2 MSTORE PUSH1 0x20 ADD PUSH1 0xA DUP3 ADD PUSH1 0x0 SWAP1 SLOAD SWAP1 PUSH2 0x100 EXP SWAP1 DIV PUSH1 0xFF AND ISZERO ISZERO ISZERO ISZERO DUP2 MSTORE PUSH1 0x20 ADD PUSH1 0xA DUP3 ADD PUSH1 0x1 SWAP1 SLOAD SWAP1 PUSH2 0x100 EXP SWAP1 DIV PUSH1 0xFF AND ISZERO ISZERO ISZERO ISZERO DUP2 MSTORE POP POP SWAP1 POP PUSH1 0x0 PUSH1 0x2 PUSH1 0x0 DUP5 DUP2 MSTORE PUSH1 0x20 ADD SWAP1 DUP2 MSTORE PUSH1 0x20 ADD PUSH1 0x0 KECCAK256 PUSH1 0x0 DUP4 PUSH2 0x120 ADD MLOAD DUP2 MSTORE PUSH1 0x20 ADD SWAP1 DUP2 MSTORE PUSH1 0x20 ADD PUSH1 0x0 KECCAK256 PUSH1 0x40 MLOAD DUP1 PUSH1 0xA0 ADD PUSH1 0x40 MSTORE SWAP1 DUP2 PUSH1 0x0 DUP3 ADD SLOAD DUP2 MSTORE PUSH1 0x20 ADD PUSH1 0x1 DUP3 ADD SLOAD DUP2 MSTORE PUSH1 0x20 ADD PUSH1 0x2 DUP3 ADD PUSH1 0x0 SWAP1 SLOAD SWAP1 PUSH2 0x100 EXP SWAP1 DIV PUSH20 0xFFFFFFFFFFFFFFFFFFFFFFFFFFFFFFFFFFFFFFFF AND PUSH20 0xFFFFFFFFFFFFFFFFFFFFFFFFFFFFFFFFFFFFFFFF AND PUSH20 0xFFFFFFFFFFFFFFFFFFFFFFFFFFFFFFFFFFFFFFFF AND DUP2 MSTORE PUSH1 0x20 ADD PUSH1 0x3 DUP3 ADD SLOAD DUP2 MSTORE PUSH1 0x20 ADD PUSH1 0x4 DUP3 ADD PUSH1 0x0 SWAP1 SLOAD SWAP1 PUSH2 0x100 EXP SWAP1 DIV PUSH2 0xFFFF AND PUSH2 0xFFFF AND PUSH2 0xFFFF AND DUP2 MSTORE POP POP SWAP1 POP CALLER PUSH20 0xFFFFFFFFFFFFFFFFFFFFFFFFFFFFFFFFFFFFFFFF AND DUP2 PUSH1 0x40 ADD MLOAD PUSH20 0xFFFFFFFFFFFFFFFFFFFFFFFFFFFFFFFFFFFFFFFF AND EQ DUP1 ISZERO PUSH2 0x14DD JUMPI POP PUSH2 0x14DC DUP4 PUSH2 0x2631 JUMP JUMPDEST JUMPDEST DUP1 PUSH2 0x14FD JUMPI POP DUP2 PUSH2 0x140 ADD MLOAD DUP1 ISZERO PUSH2 0x14FC JUMPI POP PUSH2 0x14FB DUP3 DUP3 DUP6 PUSH2 0x29F3 JUMP JUMPDEST JUMPDEST JUMPDEST PUSH2 0x153C JUMPI PUSH1 0x40 MLOAD PUSH32 0x8C379A000000000000000000000000000000000000000000000000000000000 DUP2 MSTORE PUSH1 0x4 ADD PUSH2 0x1533 SWAP1 PUSH2 0x354E JUMP JUMPDEST PUSH1 0x40 MLOAD DUP1 SWAP2 SUB SWAP1 REVERT JUMPDEST PUSH1 0x0 DUP3 PUSH1 0x80 ADD MLOAD SWAP1 POP DUP1 PUSH20 0xFFFFFFFFFFFFFFFFFFFFFFFFFFFFFFFFFFFFFFFF AND PUSH4 0x42842E0E ADDRESS DUP5 PUSH1 0x40 ADD MLOAD DUP7 PUSH1 0xC0 ADD MLOAD PUSH1 0x40 MLOAD DUP5 PUSH4 0xFFFFFFFF AND PUSH1 0xE0 SHL DUP2 MSTORE PUSH1 0x4 ADD PUSH2 0x158A SWAP4 SWAP3 SWAP2 SWAP1 PUSH2 0x31B0 JUMP JUMPDEST PUSH1 0x0 PUSH1 0x40 MLOAD DUP1 DUP4 SUB DUP2 PUSH1 0x0 DUP8 DUP1 EXTCODESIZE ISZERO DUP1 ISZERO PUSH2 0x15A4 JUMPI PUSH1 0x0 DUP1 REVERT JUMPDEST POP GAS CALL ISZERO DUP1 ISZERO PUSH2 0x15B8 JUMPI RETURNDATASIZE PUSH1 0x0 DUP1 RETURNDATACOPY RETURNDATASIZE PUSH1 0x0 REVERT JUMPDEST POP POP POP POP PUSH32 0xCF3EAFC70E544BBB0B7B916314BE01382E9819EF1DEA730BD182222030FFE4A9 DUP5 PUSH1 0x40 MLOAD PUSH2 0x15EB SWAP2 SWAP1 PUSH2 0x2C51 JUMP JUMPDEST PUSH1 0x40 MLOAD DUP1 SWAP2 SUB SWAP1 LOG1 PUSH2 0x15FB PUSH2 0x2B65 JUMP JUMPDEST SWAP3 POP POP POP POP POP JUMP JUMPDEST PUSH1 0x4 PUSH1 0x20 MSTORE DUP1 PUSH1 0x0 MSTORE PUSH1 0x40 PUSH1 0x0 KECCAK256 PUSH1 0x0 SWAP2 POP SWAP1 POP SLOAD DUP2 JUMP JUMPDEST PUSH1 0x2 PUSH1 0x20 MSTORE DUP2 PUSH1 0x0 MSTORE PUSH1 0x40 PUSH1 0x0 KECCAK256 PUSH1 0x20 MSTORE DUP1 PUSH1 0x0 MSTORE PUSH1 0x40 PUSH1 0x0 KECCAK256 PUSH1 0x0 SWAP2 POP SWAP2 POP POP DUP1 PUSH1 0x0 ADD SLOAD SWAP1 DUP1 PUSH1 0x1 ADD SLOAD SWAP1 DUP1 PUSH1 0x2 ADD PUSH1 0x0 SWAP1 SLOAD SWAP1 PUSH2 0x100 EXP SWAP1 DIV PUSH20 0xFFFFFFFFFFFFFFFFFFFFFFFFFFFFFFFFFFFFFFFF AND SWAP1 DUP1 PUSH1 0x3 ADD SLOAD SWAP1 DUP1 PUSH1 0x4 ADD PUSH1 0x0 SWAP1 SLOAD SWAP1 PUSH2 0x100 EXP SWAP1 DIV PUSH2 0xFFFF AND SWAP1 POP DUP6 JUMP JUMPDEST TIMESTAMP DUP5 LT ISZERO PUSH2 0x16CF JUMPI PUSH1 0x40 MLOAD PUSH32 0x8C379A000000000000000000000000000000000000000000000000000000000 DUP2 MSTORE PUSH1 0x4 ADD PUSH2 0x16C6 SWAP1 PUSH2 0x35BA JUMP JUMPDEST PUSH1 0x40 MLOAD DUP1 SWAP2 SUB SWAP1 REVERT JUMPDEST DUP4 DUP4 GT PUSH2 0x1711 JUMPI PUSH1 0x40 MLOAD PUSH32 0x8C379A000000000000000000000000000000000000000000000000000000000 DUP2 MSTORE PUSH1 0x4 ADD PUSH2 0x1708 SWAP1 PUSH2 0x3626 JUMP JUMPDEST PUSH1 0x40 MLOAD DUP1 SWAP2 SUB SWAP1 REVERT JUMPDEST PUSH1 0x40 MLOAD DUP1 PUSH2 0x180 ADD PUSH1 0x40 MSTORE DUP1 DUP8 PUSH20 0xFFFFFFFFFFFFFFFFFFFFFFFFFFFFFFFFFFFFFFFF AND PUSH4 0x6352211E DUP9 PUSH1 0x40 MLOAD DUP3 PUSH4 0xFFFFFFFF AND PUSH1 0xE0 SHL DUP2 MSTORE PUSH1 0x4 ADD PUSH2 0x1756 SWAP2 SWAP1 PUSH2 0x2C51 JUMP JUMPDEST PUSH1 0x20 PUSH1 0x40 MLOAD DUP1 DUP4 SUB DUP2 DUP7 GAS STATICCALL ISZERO DUP1 ISZERO PUSH2 0x1773 JUMPI RETURNDATASIZE PUSH1 0x0 DUP1 RETURNDATACOPY RETURNDATASIZE PUSH1 0x0 REVERT JUMPDEST POP POP POP POP PUSH1 0x40 MLOAD RETURNDATASIZE PUSH1 0x1F NOT PUSH1 0x1F DUP3 ADD AND DUP3 ADD DUP1 PUSH1 0x40 MSTORE POP DUP2 ADD SWAP1 PUSH2 0x1797 SWAP2 SWAP1 PUSH2 0x365B JUMP JUMPDEST PUSH20 0xFFFFFFFFFFFFFFFFFFFFFFFFFFFFFFFFFFFFFFFF AND DUP2 MSTORE PUSH1 0x20 ADD DUP10 PUSH20 0xFFFFFFFFFFFFFFFFFFFFFFFFFFFFFFFFFFFFFFFF AND DUP2 MSTORE PUSH1 0x20 ADD DUP11 PUSH20 0xFFFFFFFFFFFFFFFFFFFFFFFFFFFFFFFFFFFFFFFF AND DUP2 MSTORE PUSH1 0x20 ADD DUP9 PUSH20 0xFFFFFFFFFFFFFFFFFFFFFFFFFFFFFFFFFFFFFFFF AND DUP2 MSTORE PUSH1 0x20 ADD DUP8 PUSH20 0xFFFFFFFFFFFFFFFFFFFFFFFFFFFFFFFFFFFFFFFF AND DUP2 MSTORE PUSH1 0x20 ADD PUSH1 0x0 DUP2 MSTORE PUSH1 0x20 ADD DUP7 DUP2 MSTORE PUSH1 0x20 ADD DUP6 DUP2 MSTORE PUSH1 0x20 ADD DUP5 DUP2 MSTORE PUSH1 0x20 ADD PUSH1 0x0 DUP2 MSTORE PUSH1 0x20 ADD DUP4 ISZERO ISZERO DUP2 MSTORE PUSH1 0x20 ADD DUP3 ISZERO ISZERO DUP2 MSTORE POP PUSH1 0x1 PUSH1 0x0 DUP1 SLOAD DUP2 MSTORE PUSH1 0x20 ADD SWAP1 DUP2 MSTORE PUSH1 0x20 ADD PUSH1 0x0 KECCAK256 PUSH1 0x0 DUP3 ADD MLOAD DUP2 PUSH1 0x0 ADD PUSH1 0x0 PUSH2 0x100 EXP DUP2 SLOAD DUP2 PUSH20 0xFFFFFFFFFFFFFFFFFFFFFFFFFFFFFFFFFFFFFFFF MUL NOT AND SWAP1 DUP4 PUSH20 0xFFFFFFFFFFFFFFFFFFFFFFFFFFFFFFFFFFFFFFFF AND MUL OR SWAP1 SSTORE POP PUSH1 0x20 DUP3 ADD MLOAD DUP2 PUSH1 0x1 ADD PUSH1 0x0 PUSH2 0x100 EXP DUP2 SLOAD DUP2 PUSH20 0xFFFFFFFFFFFFFFFFFFFFFFFFFFFFFFFFFFFFFFFF MUL NOT AND SWAP1 DUP4 PUSH20 0xFFFFFFFFFFFFFFFFFFFFFFFFFFFFFFFFFFFFFFFF AND MUL OR SWAP1 SSTORE POP PUSH1 0x40 DUP3 ADD MLOAD DUP2 PUSH1 0x2 ADD PUSH1 0x0 PUSH2 0x100 EXP DUP2 SLOAD DUP2 PUSH20 0xFFFFFFFFFFFFFFFFFFFFFFFFFFFFFFFFFFFFFFFF MUL NOT AND SWAP1 DUP4 PUSH20 0xFFFFFFFFFFFFFFFFFFFFFFFFFFFFFFFFFFFFFFFF AND MUL OR SWAP1 SSTORE POP PUSH1 0x60 DUP3 ADD MLOAD DUP2 PUSH1 0x3 ADD PUSH1 0x0 PUSH2 0x100 EXP DUP2 SLOAD DUP2 PUSH20 0xFFFFFFFFFFFFFFFFFFFFFFFFFFFFFFFFFFFFFFFF MUL NOT AND SWAP1 DUP4 PUSH20 0xFFFFFFFFFFFFFFFFFFFFFFFFFFFFFFFFFFFFFFFF AND MUL OR SWAP1 SSTORE POP PUSH1 0x80 DUP3 ADD MLOAD DUP2 PUSH1 0x4 ADD PUSH1 0x0 PUSH2 0x100 EXP DUP2 SLOAD DUP2 PUSH20 0xFFFFFFFFFFFFFFFFFFFFFFFFFFFFFFFFFFFFFFFF MUL NOT AND SWAP1 DUP4 PUSH20 0xFFFFFFFFFFFFFFFFFFFFFFFFFFFFFFFFFFFFFFFF AND MUL OR SWAP1 SSTORE POP PUSH1 0xA0 DUP3 ADD MLOAD DUP2 PUSH1 0x5 ADD SSTORE PUSH1 0xC0 DUP3 ADD MLOAD DUP2 PUSH1 0x6 ADD SSTORE PUSH1 0xE0 DUP3 ADD MLOAD DUP2 PUSH1 0x7 ADD SSTORE PUSH2 0x100 DUP3 ADD MLOAD DUP2 PUSH1 0x8 ADD SSTORE PUSH2 0x120 DUP3 ADD MLOAD DUP2 PUSH1 0x9 ADD SSTORE PUSH2 0x140 DUP3 ADD MLOAD DUP2 PUSH1 0xA ADD PUSH1 0x0 PUSH2 0x100 EXP DUP2 SLOAD DUP2 PUSH1 0xFF MUL NOT AND SWAP1 DUP4 ISZERO ISZERO MUL OR SWAP1 SSTORE POP PUSH2 0x160 DUP3 ADD MLOAD DUP2 PUSH1 0xA ADD PUSH1 0x1 PUSH2 0x100 EXP DUP2 SLOAD DUP2 PUSH1 0xFF MUL NOT AND SWAP1 DUP4 ISZERO ISZERO MUL OR SWAP1 SSTORE POP SWAP1 POP POP TIMESTAMP PUSH1 0x2 PUSH1 0x0 DUP1 SLOAD DUP2 MSTORE PUSH1 0x20 ADD SWAP1 DUP2 MSTORE PUSH1 0x20 ADD PUSH1 0x0 KECCAK256 PUSH1 0x0 DUP1 DUP2 MSTORE PUSH1 0x20 ADD SWAP1 DUP2 MSTORE PUSH1 0x20 ADD PUSH1 0x0 KECCAK256 PUSH1 0x0 ADD DUP2 SWAP1 SSTORE POP PUSH1 0x0 SLOAD PUSH32 0xEF8B2952C43462575E82711D0CC91169720A4589A9FA533D173E022437F5405E DUP8 DUP8 PUSH1 0x40 MLOAD PUSH2 0x1AA1 SWAP3 SWAP2 SWAP1 PUSH2 0x3688 JUMP JUMPDEST PUSH1 0x40 MLOAD DUP1 SWAP2 SUB SWAP1 LOG2 PUSH1 0x0 DUP1 DUP2 SLOAD DUP1 SWAP3 SWAP2 SWAP1 PUSH2 0x1ABB SWAP1 PUSH2 0x36B1 JUMP JUMPDEST SWAP2 SWAP1 POP SSTORE POP POP POP POP POP POP POP POP POP POP JUMP JUMPDEST PUSH2 0x1AD4 DUP3 PUSH2 0x260F JUMP JUMPDEST PUSH2 0x1B13 JUMPI PUSH1 0x40 MLOAD PUSH32 0x8C379A000000000000000000000000000000000000000000000000000000000 DUP2 MSTORE PUSH1 0x4 ADD PUSH2 0x1B0A SWAP1 PUSH2 0x3233 JUMP JUMPDEST PUSH1 0x40 MLOAD DUP1 SWAP2 SUB SWAP1 REVERT JUMPDEST PUSH2 0x1B1C DUP3 PUSH2 0x2631 JUMP JUMPDEST ISZERO PUSH2 0x1B5C JUMPI PUSH1 0x40 MLOAD PUSH32 0x8C379A000000000000000000000000000000000000000000000000000000000 DUP2 MSTORE PUSH1 0x4 ADD PUSH2 0x1B53 SWAP1 PUSH2 0x329F JUMP JUMPDEST PUSH1 0x40 MLOAD DUP1 SWAP2 SUB SWAP1 REVERT JUMPDEST PUSH1 0x0 PUSH1 0x1 PUSH1 0x0 DUP5 DUP2 MSTORE PUSH1 0x20 ADD SWAP1 DUP2 MSTORE PUSH1 0x20 ADD PUSH1 0x0 KECCAK256 PUSH1 0x40 MLOAD DUP1 PUSH2 0x180 ADD PUSH1 0x40 MSTORE SWAP1 DUP2 PUSH1 0x0 DUP3 ADD PUSH1 0x0 SWAP1 SLOAD SWAP1 PUSH2 0x100 EXP SWAP1 DIV PUSH20 0xFFFFFFFFFFFFFFFFFFFFFFFFFFFFFFFFFFFFFFFF AND PUSH20 0xFFFFFFFFFFFFFFFFFFFFFFFFFFFFFFFFFFFFFFFF AND PUSH20 0xFFFFFFFFFFFFFFFFFFFFFFFFFFFFFFFFFFFFFFFF AND DUP2 MSTORE PUSH1 0x20 ADD PUSH1 0x1 DUP3 ADD PUSH1 0x0 SWAP1 SLOAD SWAP1 PUSH2 0x100 EXP SWAP1 DIV PUSH20 0xFFFFFFFFFFFFFFFFFFFFFFFFFFFFFFFFFFFFFFFF AND PUSH20 0xFFFFFFFFFFFFFFFFFFFFFFFFFFFFFFFFFFFFFFFF AND PUSH20 0xFFFFFFFFFFFFFFFFFFFFFFFFFFFFFFFFFFFFFFFF AND DUP2 MSTORE PUSH1 0x20 ADD PUSH1 0x2 DUP3 ADD PUSH1 0x0 SWAP1 SLOAD SWAP1 PUSH2 0x100 EXP SWAP1 DIV PUSH20 0xFFFFFFFFFFFFFFFFFFFFFFFFFFFFFFFFFFFFFFFF AND PUSH20 0xFFFFFFFFFFFFFFFFFFFFFFFFFFFFFFFFFFFFFFFF AND PUSH20 0xFFFFFFFFFFFFFFFFFFFFFFFFFFFFFFFFFFFFFFFF AND DUP2 MSTORE PUSH1 0x20 ADD PUSH1 0x3 DUP3 ADD PUSH1 0x0 SWAP1 SLOAD SWAP1 PUSH2 0x100 EXP SWAP1 DIV PUSH20 0xFFFFFFFFFFFFFFFFFFFFFFFFFFFFFFFFFFFFFFFF AND PUSH20 0xFFFFFFFFFFFFFFFFFFFFFFFFFFFFFFFFFFFFFFFF AND PUSH20 0xFFFFFFFFFFFFFFFFFFFFFFFFFFFFFFFFFFFFFFFF AND DUP2 MSTORE PUSH1 0x20 ADD PUSH1 0x4 DUP3 ADD PUSH1 0x0 SWAP1 SLOAD SWAP1 PUSH2 0x100 EXP SWAP1 DIV PUSH20 0xFFFFFFFFFFFFFFFFFFFFFFFFFFFFFFFFFFFFFFFF AND PUSH20 0xFFFFFFFFFFFFFFFFFFFFFFFFFFFFFFFFFFFFFFFF AND PUSH20 0xFFFFFFFFFFFFFFFFFFFFFFFFFFFFFFFFFFFFFFFF AND DUP2 MSTORE PUSH1 0x20 ADD PUSH1 0x5 DUP3 ADD SLOAD DUP2 MSTORE PUSH1 0x20 ADD PUSH1 0x6 DUP3 ADD SLOAD DUP2 MSTORE PUSH1 0x20 ADD PUSH1 0x7 DUP3 ADD SLOAD DUP2 MSTORE PUSH1 0x20 ADD PUSH1 0x8 DUP3 ADD SLOAD DUP2 MSTORE PUSH1 0x20 ADD PUSH1 0x9 DUP3 ADD SLOAD DUP2 MSTORE PUSH1 0x20 ADD PUSH1 0xA DUP3 ADD PUSH1 0x0 SWAP1 SLOAD SWAP1 PUSH2 0x100 EXP SWAP1 DIV PUSH1 0xFF AND ISZERO ISZERO ISZERO ISZERO DUP2 MSTORE PUSH1 0x20 ADD PUSH1 0xA DUP3 ADD PUSH1 0x1 SWAP1 SLOAD SWAP1 PUSH2 0x100 EXP SWAP1 DIV PUSH1 0xFF AND ISZERO ISZERO ISZERO ISZERO DUP2 MSTORE POP POP SWAP1 POP PUSH1 0x0 PUSH1 0x2 PUSH1 0x0 DUP6 DUP2 MSTORE PUSH1 0x20 ADD SWAP1 DUP2 MSTORE PUSH1 0x20 ADD PUSH1 0x0 KECCAK256 PUSH1 0x0 DUP4 PUSH2 0x120 ADD MLOAD DUP2 MSTORE PUSH1 0x20 ADD SWAP1 DUP2 MSTORE PUSH1 0x20 ADD PUSH1 0x0 KECCAK256 SWAP1 POP CALLER PUSH20 0xFFFFFFFFFFFFFFFFFFFFFFFFFFFFFFFFFFFFFFFF AND DUP2 PUSH1 0x2 ADD PUSH1 0x0 SWAP1 SLOAD SWAP1 PUSH2 0x100 EXP SWAP1 DIV PUSH20 0xFFFFFFFFFFFFFFFFFFFFFFFFFFFFFFFFFFFFFFFF AND PUSH20 0xFFFFFFFFFFFFFFFFFFFFFFFFFFFFFFFFFFFFFFFF AND EQ PUSH2 0x1E54 JUMPI PUSH1 0x40 MLOAD PUSH32 0x8C379A000000000000000000000000000000000000000000000000000000000 DUP2 MSTORE PUSH1 0x4 ADD PUSH2 0x1E4B SWAP1 PUSH2 0x3745 JUMP JUMPDEST PUSH1 0x40 MLOAD DUP1 SWAP2 SUB SWAP1 REVERT JUMPDEST DUP3 DUP2 PUSH1 0x2 ADD PUSH1 0x0 PUSH2 0x100 EXP DUP2 SLOAD DUP2 PUSH20 0xFFFFFFFFFFFFFFFFFFFFFFFFFFFFFFFFFFFFFFFF MUL NOT AND SWAP1 DUP4 PUSH20 0xFFFFFFFFFFFFFFFFFFFFFFFFFFFFFFFFFFFFFFFF AND MUL OR SWAP1 SSTORE POP POP POP POP POP JUMP JUMPDEST PUSH1 0x3 PUSH1 0x20 MSTORE DUP2 PUSH1 0x0 MSTORE PUSH1 0x40 PUSH1 0x0 KECCAK256 PUSH1 0x20 MSTORE DUP1 PUSH1 0x0 MSTORE PUSH1 0x40 PUSH1 0x0 KECCAK256 PUSH1 0x0 SWAP2 POP SWAP2 POP SWAP1 SLOAD SWAP1 PUSH2 0x100 EXP SWAP1 DIV PUSH1 0xFF AND DUP2 JUMP JUMPDEST DUP2 CALLER PUSH20 0xFFFFFFFFFFFFFFFFFFFFFFFFFFFFFFFFFFFFFFFF AND PUSH1 0x1 PUSH1 0x0 DUP4 DUP2 MSTORE PUSH1 0x20 ADD SWAP1 DUP2 MSTORE PUSH1 0x20 ADD PUSH1 0x0 KECCAK256 PUSH1 0x0 ADD PUSH1 0x0 SWAP1 SLOAD SWAP1 PUSH2 0x100 EXP SWAP1 DIV PUSH20 0xFFFFFFFFFFFFFFFFFFFFFFFFFFFFFFFFFFFFFFFF AND PUSH20 0xFFFFFFFFFFFFFFFFFFFFFFFFFFFFFFFFFFFFFFFF AND EQ DUP1 PUSH2 0x1F9E JUMPI POP CALLER PUSH20 0xFFFFFFFFFFFFFFFFFFFFFFFFFFFFFFFFFFFFFFFF AND PUSH1 0x1 PUSH1 0x0 DUP4 DUP2 MSTORE PUSH1 0x20 ADD SWAP1 DUP2 MSTORE PUSH1 0x20 ADD PUSH1 0x0 KECCAK256 PUSH1 0x2 ADD PUSH1 0x0 SWAP1 SLOAD SWAP1 PUSH2 0x100 EXP SWAP1 DIV PUSH20 0xFFFFFFFFFFFFFFFFFFFFFFFFFFFFFFFFFFFFFFFF AND PUSH20 0xFFFFFFFFFFFFFFFFFFFFFFFFFFFFFFFFFFFFFFFF AND EQ JUMPDEST PUSH2 0x1FDD JUMPI PUSH1 0x40 MLOAD PUSH32 0x8C379A000000000000000000000000000000000000000000000000000000000 DUP2 MSTORE PUSH1 0x4 ADD PUSH2 0x1FD4 SWAP1 PUSH2 0x3190 JUMP JUMPDEST PUSH1 0x40 MLOAD DUP1 SWAP2 SUB SWAP1 REVERT JUMPDEST PUSH1 0x0 PUSH1 0x1 PUSH1 0x0 DUP6 DUP2 MSTORE PUSH1 0x20 ADD SWAP1 DUP2 MSTORE PUSH1 0x20 ADD PUSH1 0x0 KECCAK256 PUSH1 0x40 MLOAD DUP1 PUSH2 0x180 ADD PUSH1 0x40 MSTORE SWAP1 DUP2 PUSH1 0x0 DUP3 ADD PUSH1 0x0 SWAP1 SLOAD SWAP1 PUSH2 0x100 EXP SWAP1 DIV PUSH20 0xFFFFFFFFFFFFFFFFFFFFFFFFFFFFFFFFFFFFFFFF AND PUSH20 0xFFFFFFFFFFFFFFFFFFFFFFFFFFFFFFFFFFFFFFFF AND PUSH20 0xFFFFFFFFFFFFFFFFFFFFFFFFFFFFFFFFFFFFFFFF AND DUP2 MSTORE PUSH1 0x20 ADD PUSH1 0x1 DUP3 ADD PUSH1 0x0 SWAP1 SLOAD SWAP1 PUSH2 0x100 EXP SWAP1 DIV PUSH20 0xFFFFFFFFFFFFFFFFFFFFFFFFFFFFFFFFFFFFFFFF AND PUSH20 0xFFFFFFFFFFFFFFFFFFFFFFFFFFFFFFFFFFFFFFFF AND PUSH20 0xFFFFFFFFFFFFFFFFFFFFFFFFFFFFFFFFFFFFFFFF AND DUP2 MSTORE PUSH1 0x20 ADD PUSH1 0x2 DUP3 ADD PUSH1 0x0 SWAP1 SLOAD SWAP1 PUSH2 0x100 EXP SWAP1 DIV PUSH20 0xFFFFFFFFFFFFFFFFFFFFFFFFFFFFFFFFFFFFFFFF AND PUSH20 0xFFFFFFFFFFFFFFFFFFFFFFFFFFFFFFFFFFFFFFFF AND PUSH20 0xFFFFFFFFFFFFFFFFFFFFFFFFFFFFFFFFFFFFFFFF AND DUP2 MSTORE PUSH1 0x20 ADD PUSH1 0x3 DUP3 ADD PUSH1 0x0 SWAP1 SLOAD SWAP1 PUSH2 0x100 EXP SWAP1 DIV PUSH20 0xFFFFFFFFFFFFFFFFFFFFFFFFFFFFFFFFFFFFFFFF AND PUSH20 0xFFFFFFFFFFFFFFFFFFFFFFFFFFFFFFFFFFFFFFFF AND PUSH20 0xFFFFFFFFFFFFFFFFFFFFFFFFFFFFFFFFFFFFFFFF AND DUP2 MSTORE PUSH1 0x20 ADD PUSH1 0x4 DUP3 ADD PUSH1 0x0 SWAP1 SLOAD SWAP1 PUSH2 0x100 EXP SWAP1 DIV PUSH20 0xFFFFFFFFFFFFFFFFFFFFFFFFFFFFFFFFFFFFFFFF AND PUSH20 0xFFFFFFFFFFFFFFFFFFFFFFFFFFFFFFFFFFFFFFFF AND PUSH20 0xFFFFFFFFFFFFFFFFFFFFFFFFFFFFFFFFFFFFFFFF AND DUP2 MSTORE PUSH1 0x20 ADD PUSH1 0x5 DUP3 ADD SLOAD DUP2 MSTORE PUSH1 0x20 ADD PUSH1 0x6 DUP3 ADD SLOAD DUP2 MSTORE PUSH1 0x20 ADD PUSH1 0x7 DUP3 ADD SLOAD DUP2 MSTORE PUSH1 0x20 ADD PUSH1 0x8 DUP3 ADD SLOAD DUP2 MSTORE PUSH1 0x20 ADD PUSH1 0x9 DUP3 ADD SLOAD DUP2 MSTORE PUSH1 0x20 ADD PUSH1 0xA DUP3 ADD PUSH1 0x0 SWAP1 SLOAD SWAP1 PUSH2 0x100 EXP SWAP1 DIV PUSH1 0xFF AND ISZERO ISZERO ISZERO ISZERO DUP2 MSTORE PUSH1 0x20 ADD PUSH1 0xA DUP3 ADD PUSH1 0x1 SWAP1 SLOAD SWAP1 PUSH2 0x100 EXP SWAP1 DIV PUSH1 0xFF AND ISZERO ISZERO ISZERO ISZERO DUP2 MSTORE POP POP SWAP1 POP PUSH1 0x0 PUSH1 0x2 PUSH1 0x0 DUP7 DUP2 MSTORE PUSH1 0x20 ADD SWAP1 DUP2 MSTORE PUSH1 0x20 ADD PUSH1 0x0 KECCAK256 PUSH1 0x0 DUP4 PUSH2 0x120 ADD MLOAD DUP2 MSTORE PUSH1 0x20 ADD SWAP1 DUP2 MSTORE PUSH1 0x20 ADD PUSH1 0x0 KECCAK256 PUSH1 0x40 MLOAD DUP1 PUSH1 0xA0 ADD PUSH1 0x40 MSTORE SWAP1 DUP2 PUSH1 0x0 DUP3 ADD SLOAD DUP2 MSTORE PUSH1 0x20 ADD PUSH1 0x1 DUP3 ADD SLOAD DUP2 MSTORE PUSH1 0x20 ADD PUSH1 0x2 DUP3 ADD PUSH1 0x0 SWAP1 SLOAD SWAP1 PUSH2 0x100 EXP SWAP1 DIV PUSH20 0xFFFFFFFFFFFFFFFFFFFFFFFFFFFFFFFFFFFFFFFF AND PUSH20 0xFFFFFFFFFFFFFFFFFFFFFFFFFFFFFFFFFFFFFFFF AND PUSH20 0xFFFFFFFFFFFFFFFFFFFFFFFFFFFFFFFFFFFFFFFF AND DUP2 MSTORE PUSH1 0x20 ADD PUSH1 0x3 DUP3 ADD SLOAD DUP2 MSTORE PUSH1 0x20 ADD PUSH1 0x4 DUP3 ADD PUSH1 0x0 SWAP1 SLOAD SWAP1 PUSH2 0x100 EXP SWAP1 DIV PUSH2 0xFFFF AND PUSH2 0xFFFF AND PUSH2 0xFFFF AND DUP2 MSTORE POP POP SWAP1 POP DUP2 PUSH1 0x20 ADD MLOAD PUSH20 0xFFFFFFFFFFFFFFFFFFFFFFFFFFFFFFFFFFFFFFFF AND PUSH4 0x23B872DD CALLER ADDRESS DUP8 PUSH1 0x40 MLOAD DUP5 PUSH4 0xFFFFFFFF AND PUSH1 0xE0 SHL DUP2 MSTORE PUSH1 0x4 ADD PUSH2 0x2323 SWAP4 SWAP3 SWAP2 SWAP1 PUSH2 0x31B0 JUMP JUMPDEST PUSH1 0x20 PUSH1 0x40 MLOAD DUP1 DUP4 SUB DUP2 PUSH1 0x0 DUP8 GAS CALL ISZERO DUP1 ISZERO PUSH2 0x2342 JUMPI RETURNDATASIZE PUSH1 0x0 DUP1 RETURNDATACOPY RETURNDATASIZE PUSH1 0x0 REVERT JUMPDEST POP POP POP POP PUSH1 0x40 MLOAD RETURNDATASIZE PUSH1 0x1F NOT PUSH1 0x1F DUP3 ADD AND DUP3 ADD DUP1 PUSH1 0x40 MSTORE POP DUP2 ADD SWAP1 PUSH2 0x2366 SWAP2 SWAP1 PUSH2 0x340F JUMP JUMPDEST POP PUSH2 0x2370 DUP6 PUSH2 0x2654 JUMP JUMPDEST PUSH1 0x4 PUSH1 0x0 DUP8 DUP2 MSTORE PUSH1 0x20 ADD SWAP1 DUP2 MSTORE PUSH1 0x20 ADD PUSH1 0x0 KECCAK256 SLOAD DUP6 PUSH2 0x238F SWAP2 SWAP1 PUSH2 0x33C6 JUMP JUMPDEST LT PUSH2 0x2457 JUMPI PUSH1 0x0 DUP3 PUSH1 0x80 ADD MLOAD SWAP1 POP DUP1 PUSH20 0xFFFFFFFFFFFFFFFFFFFFFFFFFFFFFFFFFFFFFFFF AND PUSH4 0x42842E0E ADDRESS DUP5 PUSH1 0x40 ADD MLOAD DUP7 PUSH1 0xC0 ADD MLOAD PUSH1 0x40 MLOAD DUP5 PUSH4 0xFFFFFFFF AND PUSH1 0xE0 SHL DUP2 MSTORE PUSH1 0x4 ADD PUSH2 0x23E2 SWAP4 SWAP3 SWAP2 SWAP1 PUSH2 0x31B0 JUMP JUMPDEST PUSH1 0x0 PUSH1 0x40 MLOAD DUP1 DUP4 SUB DUP2 PUSH1 0x0 DUP8 DUP1 EXTCODESIZE ISZERO DUP1 ISZERO PUSH2 0x23FC JUMPI PUSH1 0x0 DUP1 REVERT JUMPDEST POP GAS CALL ISZERO DUP1 ISZERO PUSH2 0x2410 JUMPI RETURNDATASIZE PUSH1 0x0 DUP1 RETURNDATACOPY RETURNDATASIZE PUSH1 0x0 REVERT JUMPDEST POP POP POP POP PUSH32 0xCF3EAFC70E544BBB0B7B916314BE01382E9819EF1DEA730BD182222030FFE4A9 DUP7 PUSH1 0x40 MLOAD PUSH2 0x2443 SWAP2 SWAP1 PUSH2 0x2C51 JUMP JUMPDEST PUSH1 0x40 MLOAD DUP1 SWAP2 SUB SWAP1 LOG1 PUSH2 0x2453 PUSH2 0x2B65 JUMP JUMPDEST SWAP3 POP POP JUMPDEST DUP4 PUSH1 0x4 PUSH1 0x0 DUP8 DUP2 MSTORE PUSH1 0x20 ADD SWAP1 DUP2 MSTORE PUSH1 0x20 ADD PUSH1 0x0 KECCAK256 PUSH1 0x0 DUP3 DUP3 SLOAD PUSH2 0x247A SWAP2 SWAP1 PUSH2 0x33C6 JUMP JUMPDEST SWAP3 POP POP DUP2 SWAP1 SSTORE POP POP POP POP POP POP JUMP JUMPDEST PUSH1 0x1 PUSH1 0x20 MSTORE DUP1 PUSH1 0x0 MSTORE PUSH1 0x40 PUSH1 0x0 KECCAK256 PUSH1 0x0 SWAP2 POP SWAP1 POP DUP1 PUSH1 0x0 ADD PUSH1 0x0 SWAP1 SLOAD SWAP1 PUSH2 0x100 EXP SWAP1 DIV PUSH20 0xFFFFFFFFFFFFFFFFFFFFFFFFFFFFFFFFFFFFFFFF AND SWAP1 DUP1 PUSH1 0x1 ADD PUSH1 0x0 SWAP1 SLOAD SWAP1 PUSH2 0x100 EXP SWAP1 DIV PUSH20 0xFFFFFFFFFFFFFFFFFFFFFFFFFFFFFFFFFFFFFFFF AND SWAP1 DUP1 PUSH1 0x2 ADD PUSH1 0x0 SWAP1 SLOAD SWAP1 PUSH2 0x100 EXP SWAP1 DIV PUSH20 0xFFFFFFFFFFFFFFFFFFFFFFFFFFFFFFFFFFFFFFFF AND SWAP1 DUP1 PUSH1 0x3 ADD PUSH1 0x0 SWAP1 SLOAD SWAP1 PUSH2 0x100 EXP SWAP1 DIV PUSH20 0xFFFFFFFFFFFFFFFFFFFFFFFFFFFFFFFFFFFFFFFF AND SWAP1 DUP1 PUSH1 0x4 ADD PUSH1 0x0 SWAP1 SLOAD SWAP1 PUSH2 0x100 EXP SWAP1 DIV PUSH20 0xFFFFFFFFFFFFFFFFFFFFFFFFFFFFFFFFFFFFFFFF AND SWAP1 DUP1 PUSH1 0x5 ADD SLOAD SWAP1 DUP1 PUSH1 0x6 ADD SLOAD SWAP1 DUP1 PUSH1 0x7 ADD SLOAD SWAP1 DUP1 PUSH1 0x8 ADD SLOAD SWAP1 DUP1 PUSH1 0x9 ADD SLOAD SWAP1 DUP1 PUSH1 0xA ADD PUSH1 0x0 SWAP1 SLOAD SWAP1 PUSH2 0x100 EXP SWAP1 DIV PUSH1 0xFF AND SWAP1 DUP1 PUSH1 0xA ADD PUSH1 0x1 SWAP1 SLOAD SWAP1 PUSH2 0x100 EXP SWAP1 DIV PUSH1 0xFF AND SWAP1 POP DUP13 JUMP JUMPDEST DUP1 PUSH1 0x3 PUSH1 0x0 DUP6 DUP2 MSTORE PUSH1 0x20 ADD SWAP1 DUP2 MSTORE PUSH1 0x20 ADD PUSH1 0x0 KECCAK256 PUSH1 0x0 DUP5 PUSH20 0xFFFFFFFFFFFFFFFFFFFFFFFFFFFFFFFFFFFFFFFF AND PUSH20 0xFFFFFFFFFFFFFFFFFFFFFFFFFFFFFFFFFFFFFFFF AND DUP2 MSTORE PUSH1 0x20 ADD SWAP1 DUP2 MSTORE PUSH1 0x20 ADD PUSH1 0x0 KECCAK256 PUSH1 0x0 PUSH2 0x100 EXP DUP2 SLOAD DUP2 PUSH1 0xFF MUL NOT AND SWAP1 DUP4 ISZERO ISZERO MUL OR SWAP1 SSTORE POP POP POP POP JUMP JUMPDEST PUSH1 0x0 TIMESTAMP PUSH1 0x1 PUSH1 0x0 DUP5 DUP2 MSTORE PUSH1 0x20 ADD SWAP1 DUP2 MSTORE PUSH1 0x20 ADD PUSH1 0x0 KECCAK256 PUSH1 0x7 ADD SLOAD LT SWAP1 POP SWAP2 SWAP1 POP JUMP JUMPDEST PUSH1 0x0 TIMESTAMP PUSH1 0x1 PUSH1 0x0 DUP5 DUP2 MSTORE PUSH1 0x20 ADD SWAP1 DUP2 MSTORE PUSH1 0x20 ADD PUSH1 0x0 KECCAK256 PUSH1 0x8 ADD SLOAD GT ISZERO SWAP1 POP SWAP2 SWAP1 POP JUMP JUMPDEST PUSH1 0x0 DUP1 PUSH1 0x1 PUSH1 0x0 DUP5 DUP2 MSTORE PUSH1 0x20 ADD SWAP1 DUP2 MSTORE PUSH1 0x20 ADD PUSH1 0x0 KECCAK256 PUSH1 0x40 MLOAD DUP1 PUSH2 0x180 ADD PUSH1 0x40 MSTORE SWAP1 DUP2 PUSH1 0x0 DUP3 ADD PUSH1 0x0 SWAP1 SLOAD SWAP1 PUSH2 0x100 EXP SWAP1 DIV PUSH20 0xFFFFFFFFFFFFFFFFFFFFFFFFFFFFFFFFFFFFFFFF AND PUSH20 0xFFFFFFFFFFFFFFFFFFFFFFFFFFFFFFFFFFFFFFFF AND PUSH20 0xFFFFFFFFFFFFFFFFFFFFFFFFFFFFFFFFFFFFFFFF AND DUP2 MSTORE PUSH1 0x20 ADD PUSH1 0x1 DUP3 ADD PUSH1 0x0 SWAP1 SLOAD SWAP1 PUSH2 0x100 EXP SWAP1 DIV PUSH20 0xFFFFFFFFFFFFFFFFFFFFFFFFFFFFFFFFFFFFFFFF AND PUSH20 0xFFFFFFFFFFFFFFFFFFFFFFFFFFFFFFFFFFFFFFFF AND PUSH20 0xFFFFFFFFFFFFFFFFFFFFFFFFFFFFFFFFFFFFFFFF AND DUP2 MSTORE PUSH1 0x20 ADD PUSH1 0x2 DUP3 ADD PUSH1 0x0 SWAP1 SLOAD SWAP1 PUSH2 0x100 EXP SWAP1 DIV PUSH20 0xFFFFFFFFFFFFFFFFFFFFFFFFFFFFFFFFFFFFFFFF AND PUSH20 0xFFFFFFFFFFFFFFFFFFFFFFFFFFFFFFFFFFFFFFFF AND PUSH20 0xFFFFFFFFFFFFFFFFFFFFFFFFFFFFFFFFFFFFFFFF AND DUP2 MSTORE PUSH1 0x20 ADD PUSH1 0x3 DUP3 ADD PUSH1 0x0 SWAP1 SLOAD SWAP1 PUSH2 0x100 EXP SWAP1 DIV PUSH20 0xFFFFFFFFFFFFFFFFFFFFFFFFFFFFFFFFFFFFFFFF AND PUSH20 0xFFFFFFFFFFFFFFFFFFFFFFFFFFFFFFFFFFFFFFFF AND PUSH20 0xFFFFFFFFFFFFFFFFFFFFFFFFFFFFFFFFFFFFFFFF AND DUP2 MSTORE PUSH1 0x20 ADD PUSH1 0x4 DUP3 ADD PUSH1 0x0 SWAP1 SLOAD SWAP1 PUSH2 0x100 EXP SWAP1 DIV PUSH20 0xFFFFFFFFFFFFFFFFFFFFFFFFFFFFFFFFFFFFFFFF AND PUSH20 0xFFFFFFFFFFFFFFFFFFFFFFFFFFFFFFFFFFFFFFFF AND PUSH20 0xFFFFFFFFFFFFFFFFFFFFFFFFFFFFFFFFFFFFFFFF AND DUP2 MSTORE PUSH1 0x20 ADD PUSH1 0x5 DUP3 ADD SLOAD DUP2 MSTORE PUSH1 0x20 ADD PUSH1 0x6 DUP3 ADD SLOAD DUP2 MSTORE PUSH1 0x20 ADD PUSH1 0x7 DUP3 ADD SLOAD DUP2 MSTORE PUSH1 0x20 ADD PUSH1 0x8 DUP3 ADD SLOAD DUP2 MSTORE PUSH1 0x20 ADD PUSH1 0x9 DUP3 ADD SLOAD DUP2 MSTORE PUSH1 0x20 ADD PUSH1 0xA DUP3 ADD PUSH1 0x0 SWAP1 SLOAD SWAP1 PUSH2 0x100 EXP SWAP1 DIV PUSH1 0xFF AND ISZERO ISZERO ISZERO ISZERO DUP2 MSTORE PUSH1 0x20 ADD PUSH1 0xA DUP3 ADD PUSH1 0x1 SWAP1 SLOAD SWAP1 PUSH2 0x100 EXP SWAP1 DIV PUSH1 0xFF AND ISZERO ISZERO ISZERO ISZERO DUP2 MSTORE POP POP SWAP1 POP PUSH1 0x0 PUSH1 0x2 PUSH1 0x0 DUP6 DUP2 MSTORE PUSH1 0x20 ADD SWAP1 DUP2 MSTORE PUSH1 0x20 ADD PUSH1 0x0 KECCAK256 PUSH1 0x0 DUP4 PUSH2 0x120 ADD MLOAD DUP2 MSTORE PUSH1 0x20 ADD SWAP1 DUP2 MSTORE PUSH1 0x20 ADD PUSH1 0x0 KECCAK256 PUSH1 0x40 MLOAD DUP1 PUSH1 0xA0 ADD PUSH1 0x40 MSTORE SWAP1 DUP2 PUSH1 0x0 DUP3 ADD SLOAD DUP2 MSTORE PUSH1 0x20 ADD PUSH1 0x1 DUP3 ADD SLOAD DUP2 MSTORE PUSH1 0x20 ADD PUSH1 0x2 DUP3 ADD PUSH1 0x0 SWAP1 SLOAD SWAP1 PUSH2 0x100 EXP SWAP1 DIV PUSH20 0xFFFFFFFFFFFFFFFFFFFFFFFFFFFFFFFFFFFFFFFF AND PUSH20 0xFFFFFFFFFFFFFFFFFFFFFFFFFFFFFFFFFFFFFFFF AND PUSH20 0xFFFFFFFFFFFFFFFFFFFFFFFFFFFFFFFFFFFFFFFF AND DUP2 MSTORE PUSH1 0x20 ADD PUSH1 0x3 DUP3 ADD SLOAD DUP2 MSTORE PUSH1 0x20 ADD PUSH1 0x4 DUP3 ADD PUSH1 0x0 SWAP1 SLOAD SWAP1 PUSH2 0x100 EXP SWAP1 DIV PUSH2 0xFFFF AND PUSH2 0xFFFF AND PUSH2 0xFFFF AND DUP2 MSTORE POP POP SWAP1 POP PUSH1 0x0 PUSH2 0x2965 DUP6 PUSH2 0x2631 JUMP JUMPDEST ISZERO PUSH2 0x2986 JUMPI DUP3 PUSH2 0x100 ADD MLOAD DUP3 PUSH1 0x0 ADD MLOAD PUSH2 0x297F SWAP2 SWAP1 PUSH2 0x343C JUMP JUMPDEST SWAP1 POP PUSH2 0x2999 JUMP JUMPDEST TIMESTAMP DUP3 PUSH1 0x0 ADD MLOAD PUSH2 0x2996 SWAP2 SWAP1 PUSH2 0x343C JUMP JUMPDEST SWAP1 POP JUMPDEST PUSH4 0x1E13380 DUP2 PUSH8 0xDE0B6B3A7640000 DUP6 PUSH1 0xA0 ADD MLOAD DUP6 PUSH1 0x20 ADD MLOAD PUSH2 0x29BC SWAP2 SWAP1 PUSH2 0x3765 JUMP JUMPDEST PUSH2 0x29C6 SWAP2 SWAP1 PUSH2 0x37D6 JUMP JUMPDEST PUSH2 0x29D0 SWAP2 SWAP1 PUSH2 0x3765 JUMP JUMPDEST PUSH2 0x29DA SWAP2 SWAP1 PUSH2 0x37D6 JUMP JUMPDEST DUP3 PUSH1 0x20 ADD MLOAD PUSH2 0x29E9 SWAP2 SWAP1 PUSH2 0x33C6 JUMP JUMPDEST SWAP4 POP POP POP POP SWAP2 SWAP1 POP JUMP JUMPDEST PUSH1 0x0 DUP1 DUP5 PUSH1 0x60 ADD MLOAD PUSH20 0xFFFFFFFFFFFFFFFFFFFFFFFFFFFFFFFFFFFFFFFF AND PUSH4 0xFC57D4DF DUP7 PUSH1 0x20 ADD MLOAD PUSH1 0x40 MLOAD DUP3 PUSH4 0xFFFFFFFF AND PUSH1 0xE0 SHL DUP2 MSTORE PUSH1 0x4 ADD PUSH2 0x2A37 SWAP2 SWAP1 PUSH2 0x3807 JUMP JUMPDEST PUSH1 0x20 PUSH1 0x40 MLOAD DUP1 DUP4 SUB DUP2 DUP7 GAS STATICCALL ISZERO DUP1 ISZERO PUSH2 0x2A54 JUMPI RETURNDATASIZE PUSH1 0x0 DUP1 RETURNDATACOPY RETURNDATASIZE PUSH1 0x0 REVERT JUMPDEST POP POP POP POP PUSH1 0x40 MLOAD RETURNDATASIZE PUSH1 0x1F NOT PUSH1 0x1F DUP3 ADD AND DUP3 ADD DUP1 PUSH1 0x40 MSTORE POP DUP2 ADD SWAP1 PUSH2 0x2A78 SWAP2 SWAP1 PUSH2 0x3837 JUMP JUMPDEST DUP6 PUSH1 0x60 ADD MLOAD PUSH20 0xFFFFFFFFFFFFFFFFFFFFFFFFFFFFFFFFFFFFFFFF AND PUSH4 0xFC57D4DF DUP8 PUSH1 0x80 ADD MLOAD PUSH1 0x40 MLOAD DUP3 PUSH4 0xFFFFFFFF AND PUSH1 0xE0 SHL DUP2 MSTORE PUSH1 0x4 ADD PUSH2 0x2AB9 SWAP2 SWAP1 PUSH2 0x3807 JUMP JUMPDEST PUSH1 0x20 PUSH1 0x40 MLOAD DUP1 DUP4 SUB DUP2 DUP7 GAS STATICCALL ISZERO DUP1 ISZERO PUSH2 0x2AD6 JUMPI RETURNDATASIZE PUSH1 0x0 DUP1 RETURNDATACOPY RETURNDATASIZE PUSH1 0x0 REVERT JUMPDEST POP POP POP POP PUSH1 0x40 MLOAD RETURNDATASIZE PUSH1 0x1F NOT PUSH1 0x1F DUP3 ADD AND DUP3 ADD DUP1 PUSH1 0x40 MSTORE POP DUP2 ADD SWAP1 PUSH2 0x2AFA SWAP2 SWAP1 PUSH2 0x3837 JUMP JUMPDEST PUSH2 0x2B04 SWAP2 SWAP1 PUSH2 0x37D6 JUMP JUMPDEST SWAP1 POP PUSH1 0x1 DUP2 DUP6 PUSH1 0x80 ADD MLOAD PUSH2 0xFFFF AND PUSH2 0x2B1C SWAP2 SWAP1 PUSH2 0x3765 JUMP JUMPDEST PUSH1 0x4 PUSH1 0x0 DUP7 DUP2 MSTORE PUSH1 0x20 ADD SWAP1 DUP2 MSTORE PUSH1 0x20 ADD PUSH1 0x0 KECCAK256 SLOAD DUP7 PUSH1 0x20 ADD MLOAD PUSH2 0x2B3F SWAP2 SWAP1 PUSH2 0x343C JUMP JUMPDEST PUSH2 0x2B49 SWAP2 SWAP1 PUSH2 0x37D6 JUMP JUMPDEST LT PUSH2 0x2B58 JUMPI PUSH1 0x0 SWAP2 POP POP PUSH2 0x2B5E JUMP JUMPDEST PUSH1 0x1 SWAP2 POP POP JUMPDEST SWAP4 SWAP3 POP POP POP JUMP JUMPDEST PUSH1 0x40 MLOAD DUP1 PUSH2 0x180 ADD PUSH1 0x40 MSTORE DUP1 PUSH1 0x0 PUSH20 0xFFFFFFFFFFFFFFFFFFFFFFFFFFFFFFFFFFFFFFFF AND DUP2 MSTORE PUSH1 0x20 ADD PUSH1 0x0 PUSH20 0xFFFFFFFFFFFFFFFFFFFFFFFFFFFFFFFFFFFFFFFF AND DUP2 MSTORE PUSH1 0x20 ADD PUSH1 0x0 PUSH20 0xFFFFFFFFFFFFFFFFFFFFFFFFFFFFFFFFFFFFFFFF AND DUP2 MSTORE PUSH1 0x20 ADD PUSH1 0x0 PUSH20 0xFFFFFFFFFFFFFFFFFFFFFFFFFFFFFFFFFFFFFFFF AND DUP2 MSTORE PUSH1 0x20 ADD PUSH1 0x0 PUSH20 0xFFFFFFFFFFFFFFFFFFFFFFFFFFFFFFFFFFFFFFFF AND DUP2 MSTORE PUSH1 0x20 ADD PUSH1 0x0 DUP2 MSTORE PUSH1 0x20 ADD PUSH1 0x0 DUP2 MSTORE PUSH1 0x20 ADD PUSH1 0x0 DUP2 MSTORE PUSH1 0x20 ADD PUSH1 0x0 DUP2 MSTORE PUSH1 0x20 ADD PUSH1 0x0 DUP2 MSTORE PUSH1 0x20 ADD PUSH1 0x0 ISZERO ISZERO DUP2 MSTORE PUSH1 0x20 ADD PUSH1 0x0 ISZERO ISZERO DUP2 MSTORE POP SWAP1 JUMP JUMPDEST PUSH1 0x0 DUP2 SWAP1 POP SWAP2 SWAP1 POP JUMP JUMPDEST PUSH2 0x2C4B DUP2 PUSH2 0x2C38 JUMP JUMPDEST DUP3 MSTORE POP POP JUMP JUMPDEST PUSH1 0x0 PUSH1 0x20 DUP3 ADD SWAP1 POP PUSH2 0x2C66 PUSH1 0x0 DUP4 ADD DUP5 PUSH2 0x2C42 JUMP JUMPDEST SWAP3 SWAP2 POP POP JUMP JUMPDEST PUSH1 0x0 DUP1 REVERT JUMPDEST PUSH2 0x2C7A DUP2 PUSH2 0x2C38 JUMP JUMPDEST DUP2 EQ PUSH2 0x2C85 JUMPI PUSH1 0x0 DUP1 REVERT JUMPDEST POP JUMP JUMPDEST PUSH1 0x0 DUP2 CALLDATALOAD SWAP1 POP PUSH2 0x2C97 DUP2 PUSH2 0x2C71 JUMP JUMPDEST SWAP3 SWAP2 POP POP JUMP JUMPDEST PUSH1 0x0 PUSH1 0x20 DUP3 DUP5 SUB SLT ISZERO PUSH2 0x2CB3 JUMPI PUSH2 0x2CB2 PUSH2 0x2C6C JUMP JUMPDEST JUMPDEST PUSH1 0x0 PUSH2 0x2CC1 DUP5 DUP3 DUP6 ADD PUSH2 0x2C88 JUMP JUMPDEST SWAP2 POP POP SWAP3 SWAP2 POP POP JUMP JUMPDEST PUSH1 0x0 PUSH2 0xFFFF DUP3 AND SWAP1 POP SWAP2 SWAP1 POP JUMP JUMPDEST PUSH2 0x2CE1 DUP2 PUSH2 0x2CCA JUMP JUMPDEST DUP2 EQ PUSH2 0x2CEC JUMPI PUSH1 0x0 DUP1 REVERT JUMPDEST POP JUMP JUMPDEST PUSH1 0x0 DUP2 CALLDATALOAD SWAP1 POP PUSH2 0x2CFE DUP2 PUSH2 0x2CD8 JUMP JUMPDEST SWAP3 SWAP2 POP POP JUMP JUMPDEST PUSH1 0x0 DUP1 PUSH1 0x0 DUP1 PUSH1 0x80 DUP6 DUP8 SUB SLT ISZERO PUSH2 0x2D1E JUMPI PUSH2 0x2D1D PUSH2 0x2C6C JUMP JUMPDEST JUMPDEST PUSH1 0x0 PUSH2 0x2D2C DUP8 DUP3 DUP9 ADD PUSH2 0x2C88 JUMP JUMPDEST SWAP5 POP POP PUSH1 0x20 PUSH2 0x2D3D DUP8 DUP3 DUP9 ADD PUSH2 0x2C88 JUMP JUMPDEST SWAP4 POP POP PUSH1 0x40 PUSH2 0x2D4E DUP8 DUP3 DUP9 ADD PUSH2 0x2C88 JUMP JUMPDEST SWAP3 POP POP PUSH1 0x60 PUSH2 0x2D5F DUP8 DUP3 DUP9 ADD PUSH2 0x2CEF JUMP JUMPDEST SWAP2 POP POP SWAP3 SWAP6 SWAP2 SWAP5 POP SWAP3 POP JUMP JUMPDEST PUSH1 0x0 DUP2 ISZERO ISZERO SWAP1 POP SWAP2 SWAP1 POP JUMP JUMPDEST PUSH2 0x2D80 DUP2 PUSH2 0x2D6B JUMP JUMPDEST DUP2 EQ PUSH2 0x2D8B JUMPI PUSH1 0x0 DUP1 REVERT JUMPDEST POP JUMP JUMPDEST PUSH1 0x0 DUP2 CALLDATALOAD SWAP1 POP PUSH2 0x2D9D DUP2 PUSH2 0x2D77 JUMP JUMPDEST SWAP3 SWAP2 POP POP JUMP JUMPDEST PUSH1 0x0 DUP1 PUSH1 0x40 DUP4 DUP6 SUB SLT ISZERO PUSH2 0x2DBA JUMPI PUSH2 0x2DB9 PUSH2 0x2C6C JUMP JUMPDEST JUMPDEST PUSH1 0x0 PUSH2 0x2DC8 DUP6 DUP3 DUP7 ADD PUSH2 0x2C88 JUMP JUMPDEST SWAP3 POP POP PUSH1 0x20 PUSH2 0x2DD9 DUP6 DUP3 DUP7 ADD PUSH2 0x2D8E JUMP JUMPDEST SWAP2 POP POP SWAP3 POP SWAP3 SWAP1 POP JUMP JUMPDEST PUSH1 0x0 DUP1 PUSH1 0x40 DUP4 DUP6 SUB SLT ISZERO PUSH2 0x2DFA JUMPI PUSH2 0x2DF9 PUSH2 0x2C6C JUMP JUMPDEST JUMPDEST PUSH1 0x0 PUSH2 0x2E08 DUP6 DUP3 DUP7 ADD PUSH2 0x2C88 JUMP JUMPDEST SWAP3 POP POP PUSH1 0x20 PUSH2 0x2E19 DUP6 DUP3 DUP7 ADD PUSH2 0x2C88 JUMP JUMPDEST SWAP2 POP POP SWAP3 POP SWAP3 SWAP1 POP JUMP JUMPDEST PUSH1 0x0 PUSH20 0xFFFFFFFFFFFFFFFFFFFFFFFFFFFFFFFFFFFFFFFF DUP3 AND SWAP1 POP SWAP2 SWAP1 POP JUMP JUMPDEST PUSH1 0x0 PUSH2 0x2E4E DUP3 PUSH2 0x2E23 JUMP JUMPDEST SWAP1 POP SWAP2 SWAP1 POP JUMP JUMPDEST PUSH2 0x2E5E DUP2 PUSH2 0x2E43 JUMP JUMPDEST DUP3 MSTORE POP POP JUMP JUMPDEST PUSH2 0x2E6D DUP2 PUSH2 0x2CCA JUMP JUMPDEST DUP3 MSTORE POP POP JUMP JUMPDEST PUSH1 0x0 PUSH1 0xA0 DUP3 ADD SWAP1 POP PUSH2 0x2E88 PUSH1 0x0 DUP4 ADD DUP9 PUSH2 0x2C42 JUMP JUMPDEST PUSH2 0x2E95 PUSH1 0x20 DUP4 ADD DUP8 PUSH2 0x2C42 JUMP JUMPDEST PUSH2 0x2EA2 PUSH1 0x40 DUP4 ADD DUP7 PUSH2 0x2E55 JUMP JUMPDEST PUSH2 0x2EAF PUSH1 0x60 DUP4 ADD DUP6 PUSH2 0x2C42 JUMP JUMPDEST PUSH2 0x2EBC PUSH1 0x80 DUP4 ADD DUP5 PUSH2 0x2E64 JUMP JUMPDEST SWAP7 SWAP6 POP POP POP POP POP POP JUMP JUMPDEST PUSH2 0x2ECF DUP2 PUSH2 0x2E43 JUMP JUMPDEST DUP2 EQ PUSH2 0x2EDA JUMPI PUSH1 0x0 DUP1 REVERT JUMPDEST POP JUMP JUMPDEST PUSH1 0x0 DUP2 CALLDATALOAD SWAP1 POP PUSH2 0x2EEC DUP2 PUSH2 0x2EC6 JUMP JUMPDEST SWAP3 SWAP2 POP POP JUMP JUMPDEST PUSH1 0x0 DUP1 PUSH1 0x0 DUP1 PUSH1 0x0 DUP1 PUSH1 0x0 DUP1 PUSH1 0x0 PUSH2 0x120 DUP11 DUP13 SUB SLT ISZERO PUSH2 0x2F15 JUMPI PUSH2 0x2F14 PUSH2 0x2C6C JUMP JUMPDEST JUMPDEST PUSH1 0x0 PUSH2 0x2F23 DUP13 DUP3 DUP14 ADD PUSH2 0x2EDD JUMP JUMPDEST SWAP10 POP POP PUSH1 0x20 PUSH2 0x2F34 DUP13 DUP3 DUP14 ADD PUSH2 0x2EDD JUMP JUMPDEST SWAP9 POP POP PUSH1 0x40 PUSH2 0x2F45 DUP13 DUP3 DUP14 ADD PUSH2 0x2EDD JUMP JUMPDEST SWAP8 POP POP PUSH1 0x60 PUSH2 0x2F56 DUP13 DUP3 DUP14 ADD PUSH2 0x2EDD JUMP JUMPDEST SWAP7 POP POP PUSH1 0x80 PUSH2 0x2F67 DUP13 DUP3 DUP14 ADD PUSH2 0x2C88 JUMP JUMPDEST SWAP6 POP POP PUSH1 0xA0 PUSH2 0x2F78 DUP13 DUP3 DUP14 ADD PUSH2 0x2C88 JUMP JUMPDEST SWAP5 POP POP PUSH1 0xC0 PUSH2 0x2F89 DUP13 DUP3 DUP14 ADD PUSH2 0x2C88 JUMP JUMPDEST SWAP4 POP POP PUSH1 0xE0 PUSH2 0x2F9A DUP13 DUP3 DUP14 ADD PUSH2 0x2D8E JUMP JUMPDEST SWAP3 POP POP PUSH2 0x100 PUSH2 0x2FAC DUP13 DUP3 DUP14 ADD PUSH2 0x2D8E JUMP JUMPDEST SWAP2 POP POP SWAP3 SWAP6 SWAP9 POP SWAP3 SWAP6 SWAP9 POP SWAP3 SWAP6 SWAP9 JUMP JUMPDEST PUSH1 0x0 DUP1 PUSH1 0x40 DUP4 DUP6 SUB SLT ISZERO PUSH2 0x2FD3 JUMPI PUSH2 0x2FD2 PUSH2 0x2C6C JUMP JUMPDEST JUMPDEST PUSH1 0x0 PUSH2 0x2FE1 DUP6 DUP3 DUP7 ADD PUSH2 0x2C88 JUMP JUMPDEST SWAP3 POP POP PUSH1 0x20 PUSH2 0x2FF2 DUP6 DUP3 DUP7 ADD PUSH2 0x2EDD JUMP JUMPDEST SWAP2 POP POP SWAP3 POP SWAP3 SWAP1 POP JUMP JUMPDEST PUSH2 0x3005 DUP2 PUSH2 0x2D6B JUMP JUMPDEST DUP3 MSTORE POP POP JUMP JUMPDEST PUSH1 0x0 PUSH1 0x20 DUP3 ADD SWAP1 POP PUSH2 0x3020 PUSH1 0x0 DUP4 ADD DUP5 PUSH2 0x2FFC JUMP JUMPDEST SWAP3 SWAP2 POP POP JUMP JUMPDEST PUSH1 0x0 PUSH2 0x180 DUP3 ADD SWAP1 POP PUSH2 0x303C PUSH1 0x0 DUP4 ADD DUP16 PUSH2 0x2E55 JUMP JUMPDEST PUSH2 0x3049 PUSH1 0x20 DUP4 ADD DUP15 PUSH2 0x2E55 JUMP JUMPDEST PUSH2 0x3056 PUSH1 0x40 DUP4 ADD DUP14 PUSH2 0x2E55 JUMP JUMPDEST PUSH2 0x3063 PUSH1 0x60 DUP4 ADD DUP13 PUSH2 0x2E55 JUMP JUMPDEST PUSH2 0x3070 PUSH1 0x80 DUP4 ADD DUP12 PUSH2 0x2E55 JUMP JUMPDEST PUSH2 0x307D PUSH1 0xA0 DUP4 ADD DUP11 PUSH2 0x2C42 JUMP JUMPDEST PUSH2 0x308A PUSH1 0xC0 DUP4 ADD DUP10 PUSH2 0x2C42 JUMP JUMPDEST PUSH2 0x3097 PUSH1 0xE0 DUP4 ADD DUP9 PUSH2 0x2C42 JUMP JUMPDEST PUSH2 0x30A5 PUSH2 0x100 DUP4 ADD DUP8 PUSH2 0x2C42 JUMP JUMPDEST PUSH2 0x30B3 PUSH2 0x120 DUP4 ADD DUP7 PUSH2 0x2C42 JUMP JUMPDEST PUSH2 0x30C1 PUSH2 0x140 DUP4 ADD DUP6 PUSH2 0x2FFC JUMP JUMPDEST PUSH2 0x30CF PUSH2 0x160 DUP4 ADD DUP5 PUSH2 0x2FFC JUMP JUMPDEST SWAP14 SWAP13 POP POP POP POP POP POP POP POP POP POP POP POP POP JUMP JUMPDEST PUSH1 0x0 DUP1 PUSH1 0x0 PUSH1 0x60 DUP5 DUP7 SUB SLT ISZERO PUSH2 0x30F9 JUMPI PUSH2 0x30F8 PUSH2 0x2C6C JUMP JUMPDEST JUMPDEST PUSH1 0x0 PUSH2 0x3107 DUP7 DUP3 DUP8 ADD PUSH2 0x2C88 JUMP JUMPDEST SWAP4 POP POP PUSH1 0x20 PUSH2 0x3118 DUP7 DUP3 DUP8 ADD PUSH2 0x2EDD JUMP JUMPDEST SWAP3 POP POP PUSH1 0x40 PUSH2 0x3129 DUP7 DUP3 DUP8 ADD PUSH2 0x2D8E JUMP JUMPDEST SWAP2 POP POP SWAP3 POP SWAP3 POP SWAP3 JUMP JUMPDEST PUSH1 0x0 DUP3 DUP3 MSTORE PUSH1 0x20 DUP3 ADD SWAP1 POP SWAP3 SWAP2 POP POP JUMP JUMPDEST PUSH32 0x4C414E3A206E6F74206F776E6572000000000000000000000000000000000000 PUSH1 0x0 DUP3 ADD MSTORE POP JUMP JUMPDEST PUSH1 0x0 PUSH2 0x317A PUSH1 0xE DUP4 PUSH2 0x3133 JUMP JUMPDEST SWAP2 POP PUSH2 0x3185 DUP3 PUSH2 0x3144 JUMP JUMPDEST PUSH1 0x20 DUP3 ADD SWAP1 POP SWAP2 SWAP1 POP JUMP JUMPDEST PUSH1 0x0 PUSH1 0x20 DUP3 ADD SWAP1 POP DUP2 DUP2 SUB PUSH1 0x0 DUP4 ADD MSTORE PUSH2 0x31A9 DUP2 PUSH2 0x316D JUMP JUMPDEST SWAP1 POP SWAP2 SWAP1 POP JUMP JUMPDEST PUSH1 0x0 PUSH1 0x60 DUP3 ADD SWAP1 POP PUSH2 0x31C5 PUSH1 0x0 DUP4 ADD DUP7 PUSH2 0x2E55 JUMP JUMPDEST PUSH2 0x31D2 PUSH1 0x20 DUP4 ADD DUP6 PUSH2 0x2E55 JUMP JUMPDEST PUSH2 0x31DF PUSH1 0x40 DUP4 ADD DUP5 PUSH2 0x2C42 JUMP JUMPDEST SWAP5 SWAP4 POP POP POP POP JUMP JUMPDEST PUSH32 0x4C414E3A206E6F74207374617274656400000000000000000000000000000000 PUSH1 0x0 DUP3 ADD MSTORE POP JUMP JUMPDEST PUSH1 0x0 PUSH2 0x321D PUSH1 0x10 DUP4 PUSH2 0x3133 JUMP JUMPDEST SWAP2 POP PUSH2 0x3228 DUP3 PUSH2 0x31E7 JUMP JUMPDEST PUSH1 0x20 DUP3 ADD SWAP1 POP SWAP2 SWAP1 POP JUMP JUMPDEST PUSH1 0x0 PUSH1 0x20 DUP3 ADD SWAP1 POP DUP2 DUP2 SUB PUSH1 0x0 DUP4 ADD MSTORE PUSH2 0x324C DUP2 PUSH2 0x3210 JUMP JUMPDEST SWAP1 POP SWAP2 SWAP1 POP JUMP JUMPDEST PUSH32 0x4C414E3A20616C726561647920656E6465640000000000000000000000000000 PUSH1 0x0 DUP3 ADD MSTORE POP JUMP JUMPDEST PUSH1 0x0 PUSH2 0x3289 PUSH1 0x12 DUP4 PUSH2 0x3133 JUMP JUMPDEST SWAP2 POP PUSH2 0x3294 DUP3 PUSH2 0x3253 JUMP JUMPDEST PUSH1 0x20 DUP3 ADD SWAP1 POP SWAP2 SWAP1 POP JUMP JUMPDEST PUSH1 0x0 PUSH1 0x20 DUP3 ADD SWAP1 POP DUP2 DUP2 SUB PUSH1 0x0 DUP4 ADD MSTORE PUSH2 0x32B8 DUP2 PUSH2 0x327C JUMP JUMPDEST SWAP1 POP SWAP2 SWAP1 POP JUMP JUMPDEST PUSH32 0x4C414E3A204E6F742057686974656C6973746564000000000000000000000000 PUSH1 0x0 DUP3 ADD MSTORE POP JUMP JUMPDEST PUSH1 0x0 PUSH2 0x32F5 PUSH1 0x14 DUP4 PUSH2 0x3133 JUMP JUMPDEST SWAP2 POP PUSH2 0x3300 DUP3 PUSH2 0x32BF JUMP JUMPDEST PUSH1 0x20 DUP3 ADD SWAP1 POP SWAP2 SWAP1 POP JUMP JUMPDEST PUSH1 0x0 PUSH1 0x20 DUP3 ADD SWAP1 POP DUP2 DUP2 SUB PUSH1 0x0 DUP4 ADD MSTORE PUSH2 0x3324 DUP2 PUSH2 0x32E8 JUMP JUMPDEST SWAP1 POP SWAP2 SWAP1 POP JUMP JUMPDEST PUSH32 0x4C414E3A20626964206E6F742068696768657200000000000000000000000000 PUSH1 0x0 DUP3 ADD MSTORE POP JUMP JUMPDEST PUSH1 0x0 PUSH2 0x3361 PUSH1 0x13 DUP4 PUSH2 0x3133 JUMP JUMPDEST SWAP2 POP PUSH2 0x336C DUP3 PUSH2 0x332B JUMP JUMPDEST PUSH1 0x20 DUP3 ADD SWAP1 POP SWAP2 SWAP1 POP JUMP JUMPDEST PUSH1 0x0 PUSH1 0x20 DUP3 ADD SWAP1 POP DUP2 DUP2 SUB PUSH1 0x0 DUP4 ADD MSTORE PUSH2 0x3390 DUP2 PUSH2 0x3354 JUMP JUMPDEST SWAP1 POP SWAP2 SWAP1 POP JUMP JUMPDEST PUSH32 0x4E487B7100000000000000000000000000000000000000000000000000000000 PUSH1 0x0 MSTORE PUSH1 0x11 PUSH1 0x4 MSTORE PUSH1 0x24 PUSH1 0x0 REVERT JUMPDEST PUSH1 0x0 PUSH2 0x33D1 DUP3 PUSH2 0x2C38 JUMP JUMPDEST SWAP2 POP PUSH2 0x33DC DUP4 PUSH2 0x2C38 JUMP JUMPDEST SWAP3 POP DUP3 DUP3 ADD SWAP1 POP DUP1 DUP3 GT ISZERO PUSH2 0x33F4 JUMPI PUSH2 0x33F3 PUSH2 0x3397 JUMP JUMPDEST JUMPDEST SWAP3 SWAP2 POP POP JUMP JUMPDEST PUSH1 0x0 DUP2 MLOAD SWAP1 POP PUSH2 0x3409 DUP2 PUSH2 0x2D77 JUMP JUMPDEST SWAP3 SWAP2 POP POP JUMP JUMPDEST PUSH1 0x0 PUSH1 0x20 DUP3 DUP5 SUB SLT ISZERO PUSH2 0x3425 JUMPI PUSH2 0x3424 PUSH2 0x2C6C JUMP JUMPDEST JUMPDEST PUSH1 0x0 PUSH2 0x3433 DUP5 DUP3 DUP6 ADD PUSH2 0x33FA JUMP JUMPDEST SWAP2 POP POP SWAP3 SWAP2 POP POP JUMP JUMPDEST PUSH1 0x0 PUSH2 0x3447 DUP3 PUSH2 0x2C38 JUMP JUMPDEST SWAP2 POP PUSH2 0x3452 DUP4 PUSH2 0x2C38 JUMP JUMPDEST SWAP3 POP DUP3 DUP3 SUB SWAP1 POP DUP2 DUP2 GT ISZERO PUSH2 0x346A JUMPI PUSH2 0x3469 PUSH2 0x3397 JUMP JUMPDEST JUMPDEST SWAP3 SWAP2 POP POP JUMP JUMPDEST PUSH32 0x4C414E3A20616C72656164792073746172746564000000000000000000000000 PUSH1 0x0 DUP3 ADD MSTORE POP JUMP JUMPDEST PUSH1 0x0 PUSH2 0x34A6 PUSH1 0x14 DUP4 PUSH2 0x3133 JUMP JUMPDEST SWAP2 POP PUSH2 0x34B1 DUP3 PUSH2 0x3470 JUMP JUMPDEST PUSH1 0x20 DUP3 ADD SWAP1 POP SWAP2 SWAP1 POP JUMP JUMPDEST PUSH1 0x0 PUSH1 0x20 DUP3 ADD SWAP1 POP DUP2 DUP2 SUB PUSH1 0x0 DUP4 ADD MSTORE PUSH2 0x34D5 DUP2 PUSH2 0x3499 JUMP JUMPDEST SWAP1 POP SWAP2 SWAP1 POP JUMP JUMPDEST PUSH32 0x4C414E3A206E6F74206C6174657374206269646465722F6E6F746F7665722C20 PUSH1 0x0 DUP3 ADD MSTORE PUSH32 0x6F72206E6F74206C6971756964617461626C6500000000000000000000000000 PUSH1 0x20 DUP3 ADD MSTORE POP JUMP JUMPDEST PUSH1 0x0 PUSH2 0x3538 PUSH1 0x33 DUP4 PUSH2 0x3133 JUMP JUMPDEST SWAP2 POP PUSH2 0x3543 DUP3 PUSH2 0x34DC JUMP JUMPDEST PUSH1 0x40 DUP3 ADD SWAP1 POP SWAP2 SWAP1 POP JUMP JUMPDEST PUSH1 0x0 PUSH1 0x20 DUP3 ADD SWAP1 POP DUP2 DUP2 SUB PUSH1 0x0 DUP4 ADD MSTORE PUSH2 0x3567 DUP2 PUSH2 0x352B JUMP JUMPDEST SWAP1 POP SWAP2 SWAP1 POP JUMP JUMPDEST PUSH32 0x4C414E3A2073746172742074696D6520696E2070617374000000000000000000 PUSH1 0x0 DUP3 ADD MSTORE POP JUMP JUMPDEST PUSH1 0x0 PUSH2 0x35A4 PUSH1 0x17 DUP4 PUSH2 0x3133 JUMP JUMPDEST SWAP2 POP PUSH2 0x35AF DUP3 PUSH2 0x356E JUMP JUMPDEST PUSH1 0x20 DUP3 ADD SWAP1 POP SWAP2 SWAP1 POP JUMP JUMPDEST PUSH1 0x0 PUSH1 0x20 DUP3 ADD SWAP1 POP DUP2 DUP2 SUB PUSH1 0x0 DUP4 ADD MSTORE PUSH2 0x35D3 DUP2 PUSH2 0x3597 JUMP JUMPDEST SWAP1 POP SWAP2 SWAP1 POP JUMP JUMPDEST PUSH32 0x4C414E3A20737461727420616674657220656E64000000000000000000000000 PUSH1 0x0 DUP3 ADD MSTORE POP JUMP JUMPDEST PUSH1 0x0 PUSH2 0x3610 PUSH1 0x14 DUP4 PUSH2 0x3133 JUMP JUMPDEST SWAP2 POP PUSH2 0x361B DUP3 PUSH2 0x35DA JUMP JUMPDEST PUSH1 0x20 DUP3 ADD SWAP1 POP SWAP2 SWAP1 POP JUMP JUMPDEST PUSH1 0x0 PUSH1 0x20 DUP3 ADD SWAP1 POP DUP2 DUP2 SUB PUSH1 0x0 DUP4 ADD MSTORE PUSH2 0x363F DUP2 PUSH2 0x3603 JUMP JUMPDEST SWAP1 POP SWAP2 SWAP1 POP JUMP JUMPDEST PUSH1 0x0 DUP2 MLOAD SWAP1 POP PUSH2 0x3655 DUP2 PUSH2 0x2EC6 JUMP JUMPDEST SWAP3 SWAP2 POP POP JUMP JUMPDEST PUSH1 0x0 PUSH1 0x20 DUP3 DUP5 SUB SLT ISZERO PUSH2 0x3671 JUMPI PUSH2 0x3670 PUSH2 0x2C6C JUMP JUMPDEST JUMPDEST PUSH1 0x0 PUSH2 0x367F DUP5 DUP3 DUP6 ADD PUSH2 0x3646 JUMP JUMPDEST SWAP2 POP POP SWAP3 SWAP2 POP POP JUMP JUMPDEST PUSH1 0x0 PUSH1 0x40 DUP3 ADD SWAP1 POP PUSH2 0x369D PUSH1 0x0 DUP4 ADD DUP6 PUSH2 0x2E55 JUMP JUMPDEST PUSH2 0x36AA PUSH1 0x20 DUP4 ADD DUP5 PUSH2 0x2C42 JUMP JUMPDEST SWAP4 SWAP3 POP POP POP JUMP JUMPDEST PUSH1 0x0 PUSH2 0x36BC DUP3 PUSH2 0x2C38 JUMP JUMPDEST SWAP2 POP PUSH32 0xFFFFFFFFFFFFFFFFFFFFFFFFFFFFFFFFFFFFFFFFFFFFFFFFFFFFFFFFFFFFFFFF DUP3 SUB PUSH2 0x36EE JUMPI PUSH2 0x36ED PUSH2 0x3397 JUMP JUMPDEST JUMPDEST PUSH1 0x1 DUP3 ADD SWAP1 POP SWAP2 SWAP1 POP JUMP JUMPDEST PUSH32 0x4C414E3A204E6F7420746865206C617465737420626964646572000000000000 PUSH1 0x0 DUP3 ADD MSTORE POP JUMP JUMPDEST PUSH1 0x0 PUSH2 0x372F PUSH1 0x1A DUP4 PUSH2 0x3133 JUMP JUMPDEST SWAP2 POP PUSH2 0x373A DUP3 PUSH2 0x36F9 JUMP JUMPDEST PUSH1 0x20 DUP3 ADD SWAP1 POP SWAP2 SWAP1 POP JUMP JUMPDEST PUSH1 0x0 PUSH1 0x20 DUP3 ADD SWAP1 POP DUP2 DUP2 SUB PUSH1 0x0 DUP4 ADD MSTORE PUSH2 0x375E DUP2 PUSH2 0x3722 JUMP JUMPDEST SWAP1 POP SWAP2 SWAP1 POP JUMP JUMPDEST PUSH1 0x0 PUSH2 0x3770 DUP3 PUSH2 0x2C38 JUMP JUMPDEST SWAP2 POP PUSH2 0x377B DUP4 PUSH2 0x2C38 JUMP JUMPDEST SWAP3 POP DUP3 DUP3 MUL PUSH2 0x3789 DUP2 PUSH2 0x2C38 JUMP JUMPDEST SWAP2 POP DUP3 DUP3 DIV DUP5 EQ DUP4 ISZERO OR PUSH2 0x37A0 JUMPI PUSH2 0x379F PUSH2 0x3397 JUMP JUMPDEST JUMPDEST POP SWAP3 SWAP2 POP POP JUMP JUMPDEST PUSH32 0x4E487B7100000000000000000000000000000000000000000000000000000000 PUSH1 0x0 MSTORE PUSH1 0x12 PUSH1 0x4 MSTORE PUSH1 0x24 PUSH1 0x0 REVERT JUMPDEST PUSH1 0x0 PUSH2 0x37E1 DUP3 PUSH2 0x2C38 JUMP JUMPDEST SWAP2 POP PUSH2 0x37EC DUP4 PUSH2 0x2C38 JUMP JUMPDEST SWAP3 POP DUP3 PUSH2 0x37FC JUMPI PUSH2 0x37FB PUSH2 0x37A7 JUMP JUMPDEST JUMPDEST DUP3 DUP3 DIV SWAP1 POP SWAP3 SWAP2 POP POP JUMP JUMPDEST PUSH1 0x0 PUSH1 0x20 DUP3 ADD SWAP1 POP PUSH2 0x381C PUSH1 0x0 DUP4 ADD DUP5 PUSH2 0x2E55 JUMP JUMPDEST SWAP3 SWAP2 POP POP JUMP JUMPDEST PUSH1 0x0 DUP2 MLOAD SWAP1 POP PUSH2 0x3831 DUP2 PUSH2 0x2C71 JUMP JUMPDEST SWAP3 SWAP2 POP POP JUMP JUMPDEST PUSH1 0x0 PUSH1 0x20 DUP3 DUP5 SUB SLT ISZERO PUSH2 0x384D JUMPI PUSH2 0x384C PUSH2 0x2C6C JUMP JUMPDEST JUMPDEST PUSH1 0x0 PUSH2 0x385B DUP5 DUP3 DUP6 ADD PUSH2 0x3822 JUMP JUMPDEST SWAP2 POP POP SWAP3 SWAP2 POP POP JUMP INVALID LOG2 PUSH5 0x6970667358 0x22 SLT KECCAK256 PUSH26 0xF45D36BA19EC2167FA85ECA438F92BBBD813E0665EDF02CAE439 DUP15 0xC3 0xB4 XOR OR PUSH5 0x736F6C6343 STOP ADDMOD GT STOP CALLER "
				},
				"gasEstimates": {
					"creation": {
						"codeDepositCost": "2898000",
						"executionCost": "3169",
						"totalCost": "2901169"
					},
					"external": {
						"bid(uint256,uint256,uint256,uint16)": "infinite",
						"bids(uint256,uint256)": "infinite",
						"cancel(uint256)": "infinite",
						"changeWhitelist(uint256,address,bool)": "25327",
						"count()": "2453",
						"launch(address,address,address,address,uint256,uint256,uint256,bool,bool)": "infinite",
						"liquidate(uint256)": "infinite",
						"liquidateEarly(uint256)": "infinite",
						"loans(uint256)": "infinite",
						"repay(uint256,uint256)": "infinite",
						"setNewBidOwner(uint256,address)": "57819",
						"userPoolReserve(uint256)": "infinite",
						"whitelistStatusUpdate(uint256,bool)": "29540",
						"whitelistedAddresses(uint256,address)": "3109"
					},
					"internal": {
						"_calculateLoanValue(uint256)": "infinite",
						"_ended(uint256)": "2226",
						"_liquidate(struct LAN.Loan memory,struct LAN.Bid memory,uint256)": "infinite",
						"_started(uint256)": "2223"
					}
				},
				"methodIdentifiers": {
					"bid(uint256,uint256,uint256,uint16)": "2168ed30",
					"bids(uint256,uint256)": "7b3c4baa",
					"cancel(uint256)": "40e58ee5",
					"changeWhitelist(uint256,address,bool)": "f724e48e",
					"count()": "06661abd",
					"launch(address,address,address,address,uint256,uint256,uint256,bool,bool)": "89e257a3",
					"liquidate(uint256)": "415f1240",
					"liquidateEarly(uint256)": "18de4f9d",
					"loans(uint256)": "e1ec3c68",
					"repay(uint256,uint256)": "d8aed145",
					"setNewBidOwner(uint256,address)": "8f769f3a",
					"userPoolReserve(uint256)": "7a4656d6",
					"whitelistStatusUpdate(uint256,bool)": "222fdf21",
					"whitelistedAddresses(uint256,address)": "a23b02bd"
				}
			},
			"storageLayout": {
				"storage": [
					{
						"astId": 240,
						"contract": "contracts/mainliquidations.sol:LAN",
						"label": "count",
						"offset": 0,
						"slot": "0",
						"type": "t_uint256"
					},
					{
						"astId": 271,
						"contract": "contracts/mainliquidations.sol:LAN",
						"label": "loans",
						"offset": 0,
						"slot": "1",
						"type": "t_mapping(t_uint256,t_struct(Loan)265_storage)"
					},
					{
						"astId": 290,
						"contract": "contracts/mainliquidations.sol:LAN",
						"label": "bids",
						"offset": 0,
						"slot": "2",
						"type": "t_mapping(t_uint256,t_mapping(t_uint256,t_struct(Bid)282_storage))"
					},
					{
						"astId": 297,
						"contract": "contracts/mainliquidations.sol:LAN",
						"label": "whitelistedAddresses",
						"offset": 0,
						"slot": "3",
						"type": "t_mapping(t_uint256,t_mapping(t_address,t_bool))"
					},
					{
						"astId": 302,
						"contract": "contracts/mainliquidations.sol:LAN",
						"label": "userPoolReserve",
						"offset": 0,
						"slot": "4",
						"type": "t_mapping(t_uint256,t_uint256)"
					}
				],
				"types": {
					"t_address": {
						"encoding": "inplace",
						"label": "address",
						"numberOfBytes": "20"
					},
					"t_bool": {
						"encoding": "inplace",
						"label": "bool",
						"numberOfBytes": "1"
					},
					"t_mapping(t_address,t_bool)": {
						"encoding": "mapping",
						"key": "t_address",
						"label": "mapping(address => bool)",
						"numberOfBytes": "32",
						"value": "t_bool"
					},
					"t_mapping(t_uint256,t_mapping(t_address,t_bool))": {
						"encoding": "mapping",
						"key": "t_uint256",
						"label": "mapping(uint256 => mapping(address => bool))",
						"numberOfBytes": "32",
						"value": "t_mapping(t_address,t_bool)"
					},
					"t_mapping(t_uint256,t_mapping(t_uint256,t_struct(Bid)282_storage))": {
						"encoding": "mapping",
						"key": "t_uint256",
						"label": "mapping(uint256 => mapping(uint256 => struct LAN.Bid))",
						"numberOfBytes": "32",
						"value": "t_mapping(t_uint256,t_struct(Bid)282_storage)"
					},
					"t_mapping(t_uint256,t_struct(Bid)282_storage)": {
						"encoding": "mapping",
						"key": "t_uint256",
						"label": "mapping(uint256 => struct LAN.Bid)",
						"numberOfBytes": "32",
						"value": "t_struct(Bid)282_storage"
					},
					"t_mapping(t_uint256,t_struct(Loan)265_storage)": {
						"encoding": "mapping",
						"key": "t_uint256",
						"label": "mapping(uint256 => struct LAN.Loan)",
						"numberOfBytes": "32",
						"value": "t_struct(Loan)265_storage"
					},
					"t_mapping(t_uint256,t_uint256)": {
						"encoding": "mapping",
						"key": "t_uint256",
						"label": "mapping(uint256 => uint256)",
						"numberOfBytes": "32",
						"value": "t_uint256"
					},
					"t_struct(Bid)282_storage": {
						"encoding": "inplace",
						"label": "struct LAN.Bid",
						"members": [
							{
								"astId": 273,
								"contract": "contracts/mainliquidations.sol:LAN",
								"label": "bidTime",
								"offset": 0,
								"slot": "0",
								"type": "t_uint256"
							},
							{
								"astId": 275,
								"contract": "contracts/mainliquidations.sol:LAN",
								"label": "bidAmount",
								"offset": 0,
								"slot": "1",
								"type": "t_uint256"
							},
							{
								"astId": 277,
								"contract": "contracts/mainliquidations.sol:LAN",
								"label": "user",
								"offset": 0,
								"slot": "2",
								"type": "t_address"
							},
							{
								"astId": 279,
								"contract": "contracts/mainliquidations.sol:LAN",
								"label": "apr",
								"offset": 0,
								"slot": "3",
								"type": "t_uint256"
							},
							{
								"astId": 281,
								"contract": "contracts/mainliquidations.sol:LAN",
								"label": "ltv",
								"offset": 0,
								"slot": "4",
								"type": "t_uint16"
							}
						],
						"numberOfBytes": "160"
					},
					"t_struct(Loan)265_storage": {
						"encoding": "inplace",
						"label": "struct LAN.Loan",
						"members": [
							{
								"astId": 242,
								"contract": "contracts/mainliquidations.sol:LAN",
								"label": "owner",
								"offset": 0,
								"slot": "0",
								"type": "t_address"
							},
							{
								"astId": 244,
								"contract": "contracts/mainliquidations.sol:LAN",
								"label": "token",
								"offset": 0,
								"slot": "1",
								"type": "t_address"
							},
							{
								"astId": 246,
								"contract": "contracts/mainliquidations.sol:LAN",
								"label": "operator",
								"offset": 0,
								"slot": "2",
								"type": "t_address"
							},
							{
								"astId": 248,
								"contract": "contracts/mainliquidations.sol:LAN",
								"label": "oracleAddress",
								"offset": 0,
								"slot": "3",
								"type": "t_address"
							},
							{
								"astId": 250,
								"contract": "contracts/mainliquidations.sol:LAN",
								"label": "collectionAddress",
								"offset": 0,
								"slot": "4",
								"type": "t_address"
							},
							{
								"astId": 252,
								"contract": "contracts/mainliquidations.sol:LAN",
								"label": "apr",
								"offset": 0,
								"slot": "5",
								"type": "t_uint256"
							},
							{
								"astId": 254,
								"contract": "contracts/mainliquidations.sol:LAN",
								"label": "nftId",
								"offset": 0,
								"slot": "6",
								"type": "t_uint256"
							},
							{
								"astId": 256,
								"contract": "contracts/mainliquidations.sol:LAN",
								"label": "startTime",
								"offset": 0,
								"slot": "7",
								"type": "t_uint256"
							},
							{
								"astId": 258,
								"contract": "contracts/mainliquidations.sol:LAN",
								"label": "endTime",
								"offset": 0,
								"slot": "8",
								"type": "t_uint256"
							},
							{
								"astId": 260,
								"contract": "contracts/mainliquidations.sol:LAN",
								"label": "numBids",
								"offset": 0,
								"slot": "9",
								"type": "t_uint256"
							},
							{
								"astId": 262,
								"contract": "contracts/mainliquidations.sol:LAN",
								"label": "liquidatable",
								"offset": 0,
								"slot": "10",
								"type": "t_bool"
							},
							{
								"astId": 264,
								"contract": "contracts/mainliquidations.sol:LAN",
								"label": "whitelisted",
								"offset": 1,
								"slot": "10",
								"type": "t_bool"
							}
						],
						"numberOfBytes": "352"
					},
					"t_uint16": {
						"encoding": "inplace",
						"label": "uint16",
						"numberOfBytes": "2"
					},
					"t_uint256": {
						"encoding": "inplace",
						"label": "uint256",
						"numberOfBytes": "32"
					}
				}
			},
			"userdoc": {
				"kind": "user",
				"methods": {
					"bid(uint256,uint256,uint256,uint16)": {
						"notice": "Setting and accepting bids for the asset"
					},
					"bids(uint256,uint256)": {
						"notice": "Mapping from PoolID => Bid Number => Bid. Keep track of bids"
					},
					"cancel(uint256)": {
						"notice": "Cancel Auction if it hasn't started"
					},
					"changeWhitelist(uint256,address,bool)": {
						"notice": "Update Whitelist members. Change Whitelist members. Requires Whitelist = True to take action."
					},
					"count()": {
						"notice": "Count number of loans, both expired and active"
					},
					"launch(address,address,address,address,uint256,uint256,uint256,bool,bool)": {
						"notice": "Launching the auction"
					},
					"liquidate(uint256)": {
						"notice": "Liquidate the NFT if the loan is over without a repayment, or if Liquidatable=True, and the loan is liquidated."
					},
					"liquidateEarly(uint256)": {
						"notice": "Liquidate early if the borrower so chooses."
					},
					"loans(uint256)": {
						"notice": "Keeping track of loans. PoolId => loans"
					},
					"repay(uint256,uint256)": {
						"notice": "Pay down the loan to restore the Health Factor, or end the loan prematurely"
					},
					"setNewBidOwner(uint256,address)": {
						"notice": "Transferring a bid to another address. Ignores whitelist if there is one. Similar to the NFTfi Promissory Note"
					},
					"userPoolReserve(uint256)": {
						"notice": "Mapping from PoolID => User Funds. Tracks repayments from users. Funds aren't transferred to the borrower, but are kept."
					},
					"whitelistStatusUpdate(uint256,bool)": {
						"notice": "Update Whitelist status."
					},
					"whitelistedAddresses(uint256,address)": {
						"notice": "Mapping from PoolID => Bidder Address => bool. True = Whitelisted, False = not. Wh"
					}
				},
				"notice": "Code is really rough and likely contains bugs :)",
				"version": 1
			}
		}
	}
}