{
	"contracts/mainliquidations.sol": {
		"LAN": {
			"abi": [
				{
					"anonymous": false,
					"inputs": [
						{
							"indexed": false,
							"internalType": "uint256",
							"name": "Id",
							"type": "uint256"
						}
					],
					"name": "loanCancelled",
					"type": "event"
				},
				{
					"anonymous": false,
					"inputs": [
						{
							"indexed": false,
							"internalType": "uint256",
							"name": "poolId",
							"type": "uint256"
						}
					],
					"name": "loanEnded",
					"type": "event"
				},
				{
					"anonymous": false,
					"inputs": [
						{
							"indexed": true,
							"internalType": "uint256",
							"name": "poolId",
							"type": "uint256"
						},
						{
							"indexed": false,
							"internalType": "address",
							"name": "collectionAddress",
							"type": "address"
						},
						{
							"indexed": false,
							"internalType": "uint256",
							"name": "nftId",
							"type": "uint256"
						}
					],
					"name": "newPool",
					"type": "event"
				},
				{
					"inputs": [
						{
							"internalType": "uint256",
							"name": "_poolId",
							"type": "uint256"
						},
						{
							"internalType": "uint256",
							"name": "_amount",
							"type": "uint256"
						},
						{
							"internalType": "uint256",
							"name": "_apr",
							"type": "uint256"
						},
						{
							"internalType": "uint16",
							"name": "_ltv",
							"type": "uint16"
						}
					],
					"name": "bid",
					"outputs": [],
					"stateMutability": "nonpayable",
					"type": "function"
				},
				{
					"inputs": [
						{
							"internalType": "uint256",
							"name": "",
							"type": "uint256"
						},
						{
							"internalType": "uint256",
							"name": "",
							"type": "uint256"
						}
					],
					"name": "bids",
					"outputs": [
						{
							"internalType": "uint256",
							"name": "bidTime",
							"type": "uint256"
						},
						{
							"internalType": "uint256",
							"name": "bidAmount",
							"type": "uint256"
						},
						{
							"internalType": "address",
							"name": "user",
							"type": "address"
						},
						{
							"internalType": "uint256",
							"name": "apr",
							"type": "uint256"
						},
						{
							"internalType": "uint16",
							"name": "ltv",
							"type": "uint16"
						}
					],
					"stateMutability": "view",
					"type": "function"
				},
				{
					"inputs": [
						{
							"internalType": "uint256",
							"name": "_poolId",
							"type": "uint256"
						}
					],
					"name": "cancel",
					"outputs": [],
					"stateMutability": "nonpayable",
					"type": "function"
				},
				{
					"inputs": [
						{
							"internalType": "uint256",
							"name": "_poolId",
							"type": "uint256"
						},
						{
							"internalType": "address",
							"name": "_newAddress",
							"type": "address"
						},
						{
							"internalType": "bool",
							"name": "_status",
							"type": "bool"
						}
					],
					"name": "changeWhitelist",
					"outputs": [],
					"stateMutability": "nonpayable",
					"type": "function"
				},
				{
					"inputs": [],
					"name": "count",
					"outputs": [
						{
							"internalType": "uint256",
							"name": "",
							"type": "uint256"
						}
					],
					"stateMutability": "view",
					"type": "function"
				},
				{
					"inputs": [
						{
							"internalType": "address",
							"name": "_operator",
							"type": "address"
						},
						{
							"internalType": "address",
							"name": "_token",
							"type": "address"
						},
						{
							"internalType": "address",
							"name": "_oracleAddress",
							"type": "address"
						},
						{
							"internalType": "address",
							"name": "_collectionAddress",
							"type": "address"
						},
						{
							"internalType": "uint256",
							"name": "_nftId",
							"type": "uint256"
						},
						{
							"internalType": "uint256",
							"name": "_startTime",
							"type": "uint256"
						},
						{
							"internalType": "uint256",
							"name": "_endTime",
							"type": "uint256"
						},
						{
							"internalType": "bool",
							"name": "_liquidatable",
							"type": "bool"
						},
						{
							"internalType": "bool",
							"name": "_whitelisted",
							"type": "bool"
						}
					],
					"name": "launch",
					"outputs": [],
					"stateMutability": "nonpayable",
					"type": "function"
				},
				{
					"inputs": [
						{
							"internalType": "uint256",
							"name": "_poolId",
							"type": "uint256"
						}
					],
					"name": "liquidate",
					"outputs": [],
					"stateMutability": "nonpayable",
					"type": "function"
				},
				{
					"inputs": [
						{
							"internalType": "uint256",
							"name": "_poolId",
							"type": "uint256"
						}
					],
					"name": "liquidateEarly",
					"outputs": [],
					"stateMutability": "nonpayable",
					"type": "function"
				},
				{
					"inputs": [
						{
							"internalType": "uint256",
							"name": "",
							"type": "uint256"
						}
					],
					"name": "loans",
					"outputs": [
						{
							"internalType": "address",
							"name": "owner",
							"type": "address"
						},
						{
							"internalType": "address",
							"name": "token",
							"type": "address"
						},
						{
							"internalType": "address",
							"name": "operator",
							"type": "address"
						},
						{
							"internalType": "address",
							"name": "oracleAddress",
							"type": "address"
						},
						{
							"internalType": "address",
							"name": "collectionAddress",
							"type": "address"
						},
						{
							"internalType": "uint256",
							"name": "apr",
							"type": "uint256"
						},
						{
							"internalType": "uint256",
							"name": "nftId",
							"type": "uint256"
						},
						{
							"internalType": "uint256",
							"name": "startTime",
							"type": "uint256"
						},
						{
							"internalType": "uint256",
							"name": "endTime",
							"type": "uint256"
						},
						{
							"internalType": "uint256",
							"name": "numBids",
							"type": "uint256"
						},
						{
							"internalType": "bool",
							"name": "liquidatable",
							"type": "bool"
						},
						{
							"internalType": "bool",
							"name": "whitelisted",
							"type": "bool"
						}
					],
					"stateMutability": "view",
					"type": "function"
				},
				{
					"inputs": [
						{
							"internalType": "uint256",
							"name": "_poolId",
							"type": "uint256"
						},
						{
							"internalType": "uint256",
							"name": "_amount",
							"type": "uint256"
						}
					],
					"name": "repay",
					"outputs": [],
					"stateMutability": "nonpayable",
					"type": "function"
				},
				{
					"inputs": [
						{
							"internalType": "uint256",
							"name": "_poolId",
							"type": "uint256"
						},
						{
							"internalType": "address",
							"name": "_newAddress",
							"type": "address"
						}
					],
					"name": "setNewBidOwner",
					"outputs": [],
					"stateMutability": "nonpayable",
					"type": "function"
				},
				{
					"inputs": [
						{
							"internalType": "uint256",
							"name": "",
							"type": "uint256"
						}
					],
					"name": "userPoolReserve",
					"outputs": [
						{
							"internalType": "uint256",
							"name": "",
							"type": "uint256"
						}
					],
					"stateMutability": "view",
					"type": "function"
				},
				{
					"inputs": [
						{
							"internalType": "uint256",
							"name": "_poolId",
							"type": "uint256"
						},
						{
							"internalType": "bool",
							"name": "_whitelist",
							"type": "bool"
						}
					],
					"name": "whitelistStatusUpdate",
					"outputs": [],
					"stateMutability": "nonpayable",
					"type": "function"
				},
				{
					"inputs": [
						{
							"internalType": "uint256",
							"name": "",
							"type": "uint256"
						},
						{
							"internalType": "address",
							"name": "",
							"type": "address"
						}
					],
					"name": "whitelistedAddresses",
					"outputs": [
						{
							"internalType": "bool",
							"name": "",
							"type": "bool"
						}
					],
					"stateMutability": "view",
					"type": "function"
				}
			],
			"devdoc": {
				"author": "William, Junion, Austin",
				"kind": "dev",
				"methods": {
					"bid(uint256,uint256,uint256,uint16)": {
						"params": {
							"_amount": "Present Value of the bid amount",
							"_apr": "APR of the bid",
							"_ltv": "LTV of the loan. Default is 0 if liquidatable isn't turned on.",
							"_poolId": "Pool ID"
						}
					},
					"cancel(uint256)": {
						"params": {
							"_poolId": "pool ID"
						}
					},
					"changeWhitelist(uint256,address,bool)": {
						"params": {
							"_newAddress": "Address",
							"_poolId": "pool ID",
							"_status": "status. True = WL'd, False = Not WL'd"
						}
					},
					"launch(address,address,address,address,uint256,uint256,uint256,bool,bool)": {
						"params": {
							"_collectionAddress": ", address for the Wrapper NFT, although this could be literally any NFT",
							"_endTime": ", the endTime of the loan in blocks",
							"_liquidatable": ", if the loan can be liquidatable",
							"_nftId": ", nftId",
							"_operator": ", EOA or normal Contract. Can act on behalf of owner to rollover a loan. Set address(0) if not used",
							"_oracleAddress": ", address for the collection address asset. Default is ChainlinkOracle.sol Requires liquidatable = true",
							"_startTime": ", the startTime of the loan in blocks",
							"_token": ", base borrowable asset, only one per loan.",
							"_whitelisted": ", if the loan is whitelisted to only approved bidders"
						}
					},
					"liquidate(uint256)": {
						"params": {
							"_poolId": "pool ID"
						}
					},
					"liquidateEarly(uint256)": {
						"params": {
							"_poolId": "pool Id"
						}
					},
					"repay(uint256,uint256)": {
						"params": {
							"_amount": "amount to pay back",
							"_poolId": "pool ID"
						}
					},
					"setNewBidOwner(uint256,address)": {
						"params": {
							"_newAddress": "New owner of debt position",
							"_poolId": "Pool ID"
						}
					},
					"whitelistStatusUpdate(uint256,bool)": {
						"params": {
							"_poolId": "pool ID",
							"_whitelist": "status. True = Whitelist, False = no Whitelist"
						}
					}
				},
				"title": "LAN: unopinianated lending infrastructure for literally any nft",
				"version": 1
			},
			"evm": {
				"assembly": "    /* \"contracts/mainliquidations.sol\":473:12397  contract LAN {... */\n  mstore(0x40, 0x80)\n  callvalue\n  dup1\n  iszero\n  tag_1\n  jumpi\n  0x00\n  dup1\n  revert\ntag_1:\n  pop\n  dataSize(sub_0)\n  dup1\n  dataOffset(sub_0)\n  0x00\n  codecopy\n  0x00\n  return\nstop\n\nsub_0: assembly {\n        /* \"contracts/mainliquidations.sol\":473:12397  contract LAN {... */\n      mstore(0x40, 0x80)\n      callvalue\n      dup1\n      iszero\n      tag_1\n      jumpi\n      0x00\n      dup1\n      revert\n    tag_1:\n      pop\n      jumpi(tag_2, lt(calldatasize, 0x04))\n      shr(0xe0, calldataload(0x00))\n      dup1\n      0x7b3c4baa\n      gt\n      tag_17\n      jumpi\n      dup1\n      0xa23b02bd\n      gt\n      tag_18\n      jumpi\n      dup1\n      0xa23b02bd\n      eq\n      tag_13\n      jumpi\n      dup1\n      0xd8aed145\n      eq\n      tag_14\n      jumpi\n      dup1\n      0xe1ec3c68\n      eq\n      tag_15\n      jumpi\n      dup1\n      0xf724e48e\n      eq\n      tag_16\n      jumpi\n      jump(tag_2)\n    tag_18:\n      dup1\n      0x7b3c4baa\n      eq\n      tag_10\n      jumpi\n      dup1\n      0x89e257a3\n      eq\n      tag_11\n      jumpi\n      dup1\n      0x8f769f3a\n      eq\n      tag_12\n      jumpi\n      jump(tag_2)\n    tag_17:\n      dup1\n      0x222fdf21\n      gt\n      tag_19\n      jumpi\n      dup1\n      0x222fdf21\n      eq\n      tag_6\n      jumpi\n      dup1\n      0x40e58ee5\n      eq\n      tag_7\n      jumpi\n      dup1\n      0x415f1240\n      eq\n      tag_8\n      jumpi\n      dup1\n      0x7a4656d6\n      eq\n      tag_9\n      jumpi\n      jump(tag_2)\n    tag_19:\n      dup1\n      0x06661abd\n      eq\n      tag_3\n      jumpi\n      dup1\n      0x18de4f9d\n      eq\n      tag_4\n      jumpi\n      dup1\n      0x2168ed30\n      eq\n      tag_5\n      jumpi\n    tag_2:\n      0x00\n      dup1\n      revert\n        /* \"contracts/mainliquidations.sol\":775:795  uint256 public count */\n    tag_3:\n      tag_20\n      tag_21\n      jump\t// in\n    tag_20:\n      mload(0x40)\n      tag_22\n      swap2\n      swap1\n      tag_23\n      jump\t// in\n    tag_22:\n      mload(0x40)\n      dup1\n      swap2\n      sub\n      swap1\n      return\n        /* \"contracts/mainliquidations.sol\":10988:11373  function liquidateEarly(uint256 _poolId) external onlyOwner(_poolId) {... */\n    tag_4:\n      tag_24\n      0x04\n      dup1\n      calldatasize\n      sub\n      dup2\n      add\n      swap1\n      tag_25\n      swap2\n      swap1\n      tag_26\n      jump\t// in\n    tag_25:\n      tag_27\n      jump\t// in\n    tag_24:\n      stop\n        /* \"contracts/mainliquidations.sol\":5342:6771  function bid(... */\n    tag_5:\n      tag_28\n      0x04\n      dup1\n      calldatasize\n      sub\n      dup2\n      add\n      swap1\n      tag_29\n      swap2\n      swap1\n      tag_30\n      jump\t// in\n    tag_29:\n      tag_31\n      jump\t// in\n    tag_28:\n      stop\n        /* \"contracts/mainliquidations.sol\":7550:7753  function whitelistStatusUpdate(uint256 _poolId, bool _whitelist)... */\n    tag_6:\n      tag_32\n      0x04\n      dup1\n      calldatasize\n      sub\n      dup2\n      add\n      swap1\n      tag_33\n      swap2\n      swap1\n      tag_34\n      jump\t// in\n    tag_33:\n      tag_35\n      jump\t// in\n    tag_32:\n      stop\n        /* \"contracts/mainliquidations.sol\":8270:8514  function cancel(uint256 _poolId) external onlyOwner(_poolId) {... */\n    tag_7:\n      tag_36\n      0x04\n      dup1\n      calldatasize\n      sub\n      dup2\n      add\n      swap1\n      tag_37\n      swap2\n      swap1\n      tag_26\n      jump\t// in\n    tag_37:\n      tag_38\n      jump\t// in\n    tag_36:\n      stop\n        /* \"contracts/mainliquidations.sol\":9560:10159  function liquidate(uint256 _poolId) external {... */\n    tag_8:\n      tag_39\n      0x04\n      dup1\n      calldatasize\n      sub\n      dup2\n      add\n      swap1\n      tag_40\n      swap2\n      swap1\n      tag_26\n      jump\t// in\n    tag_40:\n      tag_41\n      jump\t// in\n    tag_39:\n      stop\n        /* \"contracts/mainliquidations.sol\":2816:2866  mapping(uint256 => uint256) public userPoolReserve */\n    tag_9:\n      tag_42\n      0x04\n      dup1\n      calldatasize\n      sub\n      dup2\n      add\n      swap1\n      tag_43\n      swap2\n      swap1\n      tag_26\n      jump\t// in\n    tag_43:\n      tag_44\n      jump\t// in\n    tag_42:\n      mload(0x40)\n      tag_45\n      swap2\n      swap1\n      tag_23\n      jump\t// in\n    tag_45:\n      mload(0x40)\n      dup1\n      swap2\n      sub\n      swap1\n      return\n        /* \"contracts/mainliquidations.sol\":2439:2494  mapping(uint256 => mapping(uint256 => Bid)) public bids */\n    tag_10:\n      tag_46\n      0x04\n      dup1\n      calldatasize\n      sub\n      dup2\n      add\n      swap1\n      tag_47\n      swap2\n      swap1\n      tag_48\n      jump\t// in\n    tag_47:\n      tag_49\n      jump\t// in\n    tag_46:\n      mload(0x40)\n      tag_50\n      swap6\n      swap5\n      swap4\n      swap3\n      swap2\n      swap1\n      tag_51\n      jump\t// in\n    tag_50:\n      mload(0x40)\n      dup1\n      swap2\n      sub\n      swap1\n      return\n        /* \"contracts/mainliquidations.sol\":4048:5075  function launch(... */\n    tag_11:\n      tag_52\n      0x04\n      dup1\n      calldatasize\n      sub\n      dup2\n      add\n      swap1\n      tag_53\n      swap2\n      swap1\n      tag_54\n      jump\t// in\n    tag_53:\n      tag_55\n      jump\t// in\n    tag_52:\n      stop\n        /* \"contracts/mainliquidations.sol\":6989:7399  function setNewBidOwner(uint256 _poolId, address _newAddress) external {... */\n    tag_12:\n      tag_56\n      0x04\n      dup1\n      calldatasize\n      sub\n      dup2\n      add\n      swap1\n      tag_57\n      swap2\n      swap1\n      tag_58\n      jump\t// in\n    tag_57:\n      tag_59\n      jump\t// in\n    tag_56:\n      stop\n        /* \"contracts/mainliquidations.sol\":2600:2672  mapping(uint256 => mapping(address => bool)) public whitelistedAddresses */\n    tag_13:\n      tag_60\n      0x04\n      dup1\n      calldatasize\n      sub\n      dup2\n      add\n      swap1\n      tag_61\n      swap2\n      swap1\n      tag_58\n      jump\t// in\n    tag_61:\n      tag_62\n      jump\t// in\n    tag_60:\n      mload(0x40)\n      tag_63\n      swap2\n      swap1\n      tag_64\n      jump\t// in\n    tag_63:\n      mload(0x40)\n      dup1\n      swap2\n      sub\n      swap1\n      return\n        /* \"contracts/mainliquidations.sol\":8685:9395  function repay(uint256 _poolId, uint256 _amount)... */\n    tag_14:\n      tag_65\n      0x04\n      dup1\n      calldatasize\n      sub\n      dup2\n      add\n      swap1\n      tag_66\n      swap2\n      swap1\n      tag_48\n      jump\t// in\n    tag_66:\n      tag_67\n      jump\t// in\n    tag_65:\n      stop\n        /* \"contracts/mainliquidations.sol\":2179:2216  mapping(uint256 => Loan) public loans */\n    tag_15:\n      tag_68\n      0x04\n      dup1\n      calldatasize\n      sub\n      dup2\n      add\n      swap1\n      tag_69\n      swap2\n      swap1\n      tag_26\n      jump\t// in\n    tag_69:\n      tag_70\n      jump\t// in\n    tag_68:\n      mload(0x40)\n      tag_71\n      swap13\n      swap12\n      swap11\n      swap10\n      swap9\n      swap8\n      swap7\n      swap6\n      swap5\n      swap4\n      swap3\n      swap2\n      swap1\n      tag_72\n      jump\t// in\n    tag_71:\n      mload(0x40)\n      dup1\n      swap2\n      sub\n      swap1\n      return\n        /* \"contracts/mainliquidations.sol\":7996:8181  function changeWhitelist(... */\n    tag_16:\n      tag_73\n      0x04\n      dup1\n      calldatasize\n      sub\n      dup2\n      add\n      swap1\n      tag_74\n      swap2\n      swap1\n      tag_75\n      jump\t// in\n    tag_74:\n      tag_76\n      jump\t// in\n    tag_73:\n      stop\n        /* \"contracts/mainliquidations.sol\":775:795  uint256 public count */\n    tag_21:\n      sload(0x00)\n      dup2\n      jump\t// out\n        /* \"contracts/mainliquidations.sol\":10988:11373  function liquidateEarly(uint256 _poolId) external onlyOwner(_poolId) {... */\n    tag_27:\n        /* \"contracts/mainliquidations.sol\":11048:11055  _poolId */\n      dup1\n        /* \"contracts/mainliquidations.sol\":3155:3165  msg.sender */\n      caller\n        /* \"contracts/mainliquidations.sol\":3131:3165  loans[_poolId].owner == msg.sender */\n      0xffffffffffffffffffffffffffffffffffffffff\n      and\n        /* \"contracts/mainliquidations.sol\":3131:3136  loans */\n      0x01\n        /* \"contracts/mainliquidations.sol\":3131:3145  loans[_poolId] */\n      0x00\n        /* \"contracts/mainliquidations.sol\":3137:3144  _poolId */\n      dup4\n        /* \"contracts/mainliquidations.sol\":3131:3145  loans[_poolId] */\n      dup2\n      mstore\n      0x20\n      add\n      swap1\n      dup2\n      mstore\n      0x20\n      add\n      0x00\n      keccak256\n        /* \"contracts/mainliquidations.sol\":3131:3151  loans[_poolId].owner */\n      0x00\n      add\n      0x00\n      swap1\n      sload\n      swap1\n      0x0100\n      exp\n      swap1\n      div\n      0xffffffffffffffffffffffffffffffffffffffff\n      and\n        /* \"contracts/mainliquidations.sol\":3131:3165  loans[_poolId].owner == msg.sender */\n      0xffffffffffffffffffffffffffffffffffffffff\n      and\n      eq\n        /* \"contracts/mainliquidations.sol\":3130:3225  (loans[_poolId].owner == msg.sender) ||... */\n      dup1\n      tag_78\n      jumpi\n      pop\n        /* \"contracts/mainliquidations.sol\":3214:3224  msg.sender */\n      caller\n        /* \"contracts/mainliquidations.sol\":3187:3224  loans[_poolId].operator == msg.sender */\n      0xffffffffffffffffffffffffffffffffffffffff\n      and\n        /* \"contracts/mainliquidations.sol\":3187:3192  loans */\n      0x01\n        /* \"contracts/mainliquidations.sol\":3187:3201  loans[_poolId] */\n      0x00\n        /* \"contracts/mainliquidations.sol\":3193:3200  _poolId */\n      dup4\n        /* \"contracts/mainliquidations.sol\":3187:3201  loans[_poolId] */\n      dup2\n      mstore\n      0x20\n      add\n      swap1\n      dup2\n      mstore\n      0x20\n      add\n      0x00\n      keccak256\n        /* \"contracts/mainliquidations.sol\":3187:3210  loans[_poolId].operator */\n      0x02\n      add\n      0x00\n      swap1\n      sload\n      swap1\n      0x0100\n      exp\n      swap1\n      div\n      0xffffffffffffffffffffffffffffffffffffffff\n      and\n        /* \"contracts/mainliquidations.sol\":3187:3224  loans[_poolId].operator == msg.sender */\n      0xffffffffffffffffffffffffffffffffffffffff\n      and\n      eq\n        /* \"contracts/mainliquidations.sol\":3130:3225  (loans[_poolId].owner == msg.sender) ||... */\n    tag_78:\n        /* \"contracts/mainliquidations.sol\":3109:3265  require(... */\n      tag_79\n      jumpi\n      mload(0x40)\n      0x08c379a000000000000000000000000000000000000000000000000000000000\n      dup2\n      mstore\n      0x04\n      add\n      tag_80\n      swap1\n      tag_81\n      jump\t// in\n    tag_80:\n      mload(0x40)\n      dup1\n      swap2\n      sub\n      swap1\n      revert\n    tag_79:\n        /* \"contracts/mainliquidations.sol\":11067:11083  Loan memory loan */\n      0x00\n        /* \"contracts/mainliquidations.sol\":11086:11091  loans */\n      0x01\n        /* \"contracts/mainliquidations.sol\":11086:11100  loans[_poolId] */\n      0x00\n        /* \"contracts/mainliquidations.sol\":11092:11099  _poolId */\n      dup5\n        /* \"contracts/mainliquidations.sol\":11086:11100  loans[_poolId] */\n      dup2\n      mstore\n      0x20\n      add\n      swap1\n      dup2\n      mstore\n      0x20\n      add\n      0x00\n      keccak256\n        /* \"contracts/mainliquidations.sol\":11067:11100  Loan memory loan = loans[_poolId] */\n      mload(0x40)\n      dup1\n      0x0180\n      add\n      0x40\n      mstore\n      swap1\n      dup2\n      0x00\n      dup3\n      add\n      0x00\n      swap1\n      sload\n      swap1\n      0x0100\n      exp\n      swap1\n      div\n      0xffffffffffffffffffffffffffffffffffffffff\n      and\n      0xffffffffffffffffffffffffffffffffffffffff\n      and\n      0xffffffffffffffffffffffffffffffffffffffff\n      and\n      dup2\n      mstore\n      0x20\n      add\n      0x01\n      dup3\n      add\n      0x00\n      swap1\n      sload\n      swap1\n      0x0100\n      exp\n      swap1\n      div\n      0xffffffffffffffffffffffffffffffffffffffff\n      and\n      0xffffffffffffffffffffffffffffffffffffffff\n      and\n      0xffffffffffffffffffffffffffffffffffffffff\n      and\n      dup2\n      mstore\n      0x20\n      add\n      0x02\n      dup3\n      add\n      0x00\n      swap1\n      sload\n      swap1\n      0x0100\n      exp\n      swap1\n      div\n      0xffffffffffffffffffffffffffffffffffffffff\n      and\n      0xffffffffffffffffffffffffffffffffffffffff\n      and\n      0xffffffffffffffffffffffffffffffffffffffff\n      and\n      dup2\n      mstore\n      0x20\n      add\n      0x03\n      dup3\n      add\n      0x00\n      swap1\n      sload\n      swap1\n      0x0100\n      exp\n      swap1\n      div\n      0xffffffffffffffffffffffffffffffffffffffff\n      and\n      0xffffffffffffffffffffffffffffffffffffffff\n      and\n      0xffffffffffffffffffffffffffffffffffffffff\n      and\n      dup2\n      mstore\n      0x20\n      add\n      0x04\n      dup3\n      add\n      0x00\n      swap1\n      sload\n      swap1\n      0x0100\n      exp\n      swap1\n      div\n      0xffffffffffffffffffffffffffffffffffffffff\n      and\n      0xffffffffffffffffffffffffffffffffffffffff\n      and\n      0xffffffffffffffffffffffffffffffffffffffff\n      and\n      dup2\n      mstore\n      0x20\n      add\n      0x05\n      dup3\n      add\n      sload\n      dup2\n      mstore\n      0x20\n      add\n      0x06\n      dup3\n      add\n      sload\n      dup2\n      mstore\n      0x20\n      add\n      0x07\n      dup3\n      add\n      sload\n      dup2\n      mstore\n      0x20\n      add\n      0x08\n      dup3\n      add\n      sload\n      dup2\n      mstore\n      0x20\n      add\n      0x09\n      dup3\n      add\n      sload\n      dup2\n      mstore\n      0x20\n      add\n      0x0a\n      dup3\n      add\n      0x00\n      swap1\n      sload\n      swap1\n      0x0100\n      exp\n      swap1\n      div\n      0xff\n      and\n      iszero\n      iszero\n      iszero\n      iszero\n      dup2\n      mstore\n      0x20\n      add\n      0x0a\n      dup3\n      add\n      0x01\n      swap1\n      sload\n      swap1\n      0x0100\n      exp\n      swap1\n      div\n      0xff\n      and\n      iszero\n      iszero\n      iszero\n      iszero\n      dup2\n      mstore\n      pop\n      pop\n      swap1\n      pop\n        /* \"contracts/mainliquidations.sol\":11110:11130  Bid memory latestBid */\n      0x00\n        /* \"contracts/mainliquidations.sol\":11133:11137  bids */\n      0x02\n        /* \"contracts/mainliquidations.sol\":11133:11146  bids[_poolId] */\n      0x00\n        /* \"contracts/mainliquidations.sol\":11138:11145  _poolId */\n      dup6\n        /* \"contracts/mainliquidations.sol\":11133:11146  bids[_poolId] */\n      dup2\n      mstore\n      0x20\n      add\n      swap1\n      dup2\n      mstore\n      0x20\n      add\n      0x00\n      keccak256\n        /* \"contracts/mainliquidations.sol\":11133:11160  bids[_poolId][loan.numBids] */\n      0x00\n        /* \"contracts/mainliquidations.sol\":11147:11151  loan */\n      dup4\n        /* \"contracts/mainliquidations.sol\":11147:11159  loan.numBids */\n      0x0120\n      add\n      mload\n        /* \"contracts/mainliquidations.sol\":11133:11160  bids[_poolId][loan.numBids] */\n      dup2\n      mstore\n      0x20\n      add\n      swap1\n      dup2\n      mstore\n      0x20\n      add\n      0x00\n      keccak256\n        /* \"contracts/mainliquidations.sol\":11110:11160  Bid memory latestBid = bids[_poolId][loan.numBids] */\n      mload(0x40)\n      dup1\n      0xa0\n      add\n      0x40\n      mstore\n      swap1\n      dup2\n      0x00\n      dup3\n      add\n      sload\n      dup2\n      mstore\n      0x20\n      add\n      0x01\n      dup3\n      add\n      sload\n      dup2\n      mstore\n      0x20\n      add\n      0x02\n      dup3\n      add\n      0x00\n      swap1\n      sload\n      swap1\n      0x0100\n      exp\n      swap1\n      div\n      0xffffffffffffffffffffffffffffffffffffffff\n      and\n      0xffffffffffffffffffffffffffffffffffffffff\n      and\n      0xffffffffffffffffffffffffffffffffffffffff\n      and\n      dup2\n      mstore\n      0x20\n      add\n      0x03\n      dup3\n      add\n      sload\n      dup2\n      mstore\n      0x20\n      add\n      0x04\n      dup3\n      add\n      0x00\n      swap1\n      sload\n      swap1\n      0x0100\n      exp\n      swap1\n      div\n      0xffff\n      and\n      0xffff\n      and\n      0xffff\n      and\n      dup2\n      mstore\n      pop\n      pop\n      swap1\n      pop\n        /* \"contracts/mainliquidations.sol\":11194:11205  IERC721 NFT */\n      0x00\n        /* \"contracts/mainliquidations.sol\":11216:11220  loan */\n      dup3\n        /* \"contracts/mainliquidations.sol\":11216:11238  loan.collectionAddress */\n      0x80\n      add\n      mload\n        /* \"contracts/mainliquidations.sol\":11194:11239  IERC721 NFT = IERC721(loan.collectionAddress) */\n      swap1\n      pop\n        /* \"contracts/mainliquidations.sol\":11249:11252  NFT */\n      dup1\n        /* \"contracts/mainliquidations.sol\":11249:11269  NFT.safeTransferFrom */\n      0xffffffffffffffffffffffffffffffffffffffff\n      and\n      0x42842e0e\n        /* \"contracts/mainliquidations.sol\":11278:11282  this */\n      address\n        /* \"contracts/mainliquidations.sol\":11285:11294  latestBid */\n      dup5\n        /* \"contracts/mainliquidations.sol\":11285:11299  latestBid.user */\n      0x40\n      add\n      mload\n        /* \"contracts/mainliquidations.sol\":11301:11305  loan */\n      dup7\n        /* \"contracts/mainliquidations.sol\":11301:11311  loan.nftId */\n      0xc0\n      add\n      mload\n        /* \"contracts/mainliquidations.sol\":11249:11312  NFT.safeTransferFrom(address(this), latestBid.user, loan.nftId) */\n      mload(0x40)\n      dup5\n      0xffffffff\n      and\n      0xe0\n      shl\n      dup2\n      mstore\n      0x04\n      add\n      tag_83\n      swap4\n      swap3\n      swap2\n      swap1\n      tag_84\n      jump\t// in\n    tag_83:\n      0x00\n      mload(0x40)\n      dup1\n      dup4\n      sub\n      dup2\n      0x00\n      dup8\n      dup1\n      extcodesize\n      iszero\n      dup1\n      iszero\n      tag_85\n      jumpi\n      0x00\n      dup1\n      revert\n    tag_85:\n      pop\n      gas\n      call\n      iszero\n      dup1\n      iszero\n      tag_87\n      jumpi\n      returndatasize\n      0x00\n      dup1\n      returndatacopy\n      revert(0x00, returndatasize)\n    tag_87:\n      pop\n      pop\n      pop\n      pop\n        /* \"contracts/mainliquidations.sol\":11327:11345  loanEnded(_poolId) */\n      0xcf3eafc70e544bbb0b7b916314be01382e9819ef1dea730bd182222030ffe4a9\n        /* \"contracts/mainliquidations.sol\":11337:11344  _poolId */\n      dup6\n        /* \"contracts/mainliquidations.sol\":11327:11345  loanEnded(_poolId) */\n      mload(0x40)\n      tag_88\n      swap2\n      swap1\n      tag_23\n      jump\t// in\n    tag_88:\n      mload(0x40)\n      dup1\n      swap2\n      sub\n      swap1\n      log1\n        /* \"contracts/mainliquidations.sol\":11355:11366  delete loan */\n      tag_89\n      tag_90\n      jump\t// in\n    tag_89:\n      swap3\n      pop\n        /* \"contracts/mainliquidations.sol\":11057:11373  {... */\n      pop\n      pop\n      pop\n        /* \"contracts/mainliquidations.sol\":10988:11373  function liquidateEarly(uint256 _poolId) external onlyOwner(_poolId) {... */\n      pop\n      pop\n      jump\t// out\n        /* \"contracts/mainliquidations.sol\":5342:6771  function bid(... */\n    tag_31:\n        /* \"contracts/mainliquidations.sol\":5481:5498  _started(_poolId) */\n      tag_92\n        /* \"contracts/mainliquidations.sol\":5490:5497  _poolId */\n      dup5\n        /* \"contracts/mainliquidations.sol\":5481:5489  _started */\n      tag_93\n        /* \"contracts/mainliquidations.sol\":5481:5498  _started(_poolId) */\n      jump\t// in\n    tag_92:\n        /* \"contracts/mainliquidations.sol\":5473:5519  require(_started(_poolId), \"LAN: not started\") */\n      tag_94\n      jumpi\n      mload(0x40)\n      0x08c379a000000000000000000000000000000000000000000000000000000000\n      dup2\n      mstore\n      0x04\n      add\n      tag_95\n      swap1\n      tag_96\n      jump\t// in\n    tag_95:\n      mload(0x40)\n      dup1\n      swap2\n      sub\n      swap1\n      revert\n    tag_94:\n        /* \"contracts/mainliquidations.sol\":5538:5553  _ended(_poolId) */\n      tag_97\n        /* \"contracts/mainliquidations.sol\":5545:5552  _poolId */\n      dup5\n        /* \"contracts/mainliquidations.sol\":5538:5544  _ended */\n      tag_98\n        /* \"contracts/mainliquidations.sol\":5538:5553  _ended(_poolId) */\n      jump\t// in\n    tag_97:\n        /* \"contracts/mainliquidations.sol\":5537:5553  !_ended(_poolId) */\n      iszero\n        /* \"contracts/mainliquidations.sol\":5529:5576  require(!_ended(_poolId), \"LAN: already ended\") */\n      tag_99\n      jumpi\n      mload(0x40)\n      0x08c379a000000000000000000000000000000000000000000000000000000000\n      dup2\n      mstore\n      0x04\n      add\n      tag_100\n      swap1\n      tag_101\n      jump\t// in\n    tag_100:\n      mload(0x40)\n      dup1\n      swap2\n      sub\n      swap1\n      revert\n    tag_99:\n        /* \"contracts/mainliquidations.sol\":5586:5603  Loan storage loan */\n      0x00\n        /* \"contracts/mainliquidations.sol\":5606:5611  loans */\n      0x01\n        /* \"contracts/mainliquidations.sol\":5606:5620  loans[_poolId] */\n      0x00\n        /* \"contracts/mainliquidations.sol\":5612:5619  _poolId */\n      dup7\n        /* \"contracts/mainliquidations.sol\":5606:5620  loans[_poolId] */\n      dup2\n      mstore\n      0x20\n      add\n      swap1\n      dup2\n      mstore\n      0x20\n      add\n      0x00\n      keccak256\n        /* \"contracts/mainliquidations.sol\":5586:5620  Loan storage loan = loans[_poolId] */\n      swap1\n      pop\n        /* \"contracts/mainliquidations.sol\":5728:5732  loan */\n      dup1\n        /* \"contracts/mainliquidations.sol\":5728:5744  loan.whitelisted */\n      0x0a\n      add\n      0x01\n      swap1\n      sload\n      swap1\n      0x0100\n      exp\n      swap1\n      div\n      0xff\n      and\n        /* \"contracts/mainliquidations.sol\":5727:5808  (loan.whitelisted) &&... */\n      dup1\n      iszero\n      tag_102\n      jumpi\n      pop\n        /* \"contracts/mainliquidations.sol\":5766:5786  whitelistedAddresses */\n      0x03\n        /* \"contracts/mainliquidations.sol\":5766:5795  whitelistedAddresses[_poolId] */\n      0x00\n        /* \"contracts/mainliquidations.sol\":5787:5794  _poolId */\n      dup7\n        /* \"contracts/mainliquidations.sol\":5766:5795  whitelistedAddresses[_poolId] */\n      dup2\n      mstore\n      0x20\n      add\n      swap1\n      dup2\n      mstore\n      0x20\n      add\n      0x00\n      keccak256\n        /* \"contracts/mainliquidations.sol\":5766:5807  whitelistedAddresses[_poolId][msg.sender] */\n      0x00\n        /* \"contracts/mainliquidations.sol\":5796:5806  msg.sender */\n      caller\n        /* \"contracts/mainliquidations.sol\":5766:5807  whitelistedAddresses[_poolId][msg.sender] */\n      0xffffffffffffffffffffffffffffffffffffffff\n      and\n      0xffffffffffffffffffffffffffffffffffffffff\n      and\n      dup2\n      mstore\n      0x20\n      add\n      swap1\n      dup2\n      mstore\n      0x20\n      add\n      0x00\n      keccak256\n      0x00\n      swap1\n      sload\n      swap1\n      0x0100\n      exp\n      swap1\n      div\n      0xff\n      and\n        /* \"contracts/mainliquidations.sol\":5727:5808  (loan.whitelisted) &&... */\n    tag_102:\n        /* \"contracts/mainliquidations.sol\":5726:5856  ((loan.whitelisted) &&... */\n      dup1\n      tag_103\n      jumpi\n      pop\n        /* \"contracts/mainliquidations.sol\":5850:5855  false */\n      0x00\n        /* \"contracts/mainliquidations.sol\":5830:5855  loan.whitelisted == false */\n      iszero\n      iszero\n        /* \"contracts/mainliquidations.sol\":5830:5834  loan */\n      dup2\n        /* \"contracts/mainliquidations.sol\":5830:5846  loan.whitelisted */\n      0x0a\n      add\n      0x01\n      swap1\n      sload\n      swap1\n      0x0100\n      exp\n      swap1\n      div\n      0xff\n      and\n        /* \"contracts/mainliquidations.sol\":5830:5855  loan.whitelisted == false */\n      iszero\n      iszero\n      eq\n        /* \"contracts/mainliquidations.sol\":5726:5856  ((loan.whitelisted) &&... */\n    tag_103:\n        /* \"contracts/mainliquidations.sol\":5705:5902  require(... */\n      tag_104\n      jumpi\n      mload(0x40)\n      0x08c379a000000000000000000000000000000000000000000000000000000000\n      dup2\n      mstore\n      0x04\n      add\n      tag_105\n      swap1\n      tag_106\n      jump\t// in\n    tag_105:\n      mload(0x40)\n      dup1\n      swap2\n      sub\n      swap1\n      revert\n    tag_104:\n        /* \"contracts/mainliquidations.sol\":5990:6007  uint256 loanValue */\n      0x00\n        /* \"contracts/mainliquidations.sol\":6010:6038  _calculateLoanValue(_poolId) */\n      tag_107\n        /* \"contracts/mainliquidations.sol\":6030:6037  _poolId */\n      dup7\n        /* \"contracts/mainliquidations.sol\":6010:6029  _calculateLoanValue */\n      tag_108\n        /* \"contracts/mainliquidations.sol\":6010:6038  _calculateLoanValue(_poolId) */\n      jump\t// in\n    tag_107:\n        /* \"contracts/mainliquidations.sol\":5990:6038  uint256 loanValue = _calculateLoanValue(_poolId) */\n      swap1\n      pop\n        /* \"contracts/mainliquidations.sol\":6066:6075  loanValue */\n      dup1\n        /* \"contracts/mainliquidations.sol\":6056:6063  _amount */\n      dup6\n        /* \"contracts/mainliquidations.sol\":6056:6075  _amount > loanValue */\n      gt\n        /* \"contracts/mainliquidations.sol\":6048:6099  require(_amount > loanValue, \"LAN: bid not higher\") */\n      tag_109\n      jumpi\n      mload(0x40)\n      0x08c379a000000000000000000000000000000000000000000000000000000000\n      dup2\n      mstore\n      0x04\n      add\n      tag_110\n      swap1\n      tag_111\n      jump\t// in\n    tag_110:\n      mload(0x40)\n      dup1\n      swap2\n      sub\n      swap1\n      revert\n    tag_109:\n        /* \"contracts/mainliquidations.sol\":6109:6126  Bid memory newBid */\n      0x00\n        /* \"contracts/mainliquidations.sol\":6129:6290  Bid({... */\n      mload(0x40)\n      dup1\n      0xa0\n      add\n      0x40\n      mstore\n      dup1\n        /* \"contracts/mainliquidations.sol\":6156:6171  block.timestamp */\n      timestamp\n        /* \"contracts/mainliquidations.sol\":6129:6290  Bid({... */\n      dup2\n      mstore\n      0x20\n      add\n        /* \"contracts/mainliquidations.sol\":6196:6203  _amount */\n      dup8\n        /* \"contracts/mainliquidations.sol\":6129:6290  Bid({... */\n      dup2\n      mstore\n      0x20\n      add\n        /* \"contracts/mainliquidations.sol\":6223:6233  msg.sender */\n      caller\n        /* \"contracts/mainliquidations.sol\":6129:6290  Bid({... */\n      0xffffffffffffffffffffffffffffffffffffffff\n      and\n      dup2\n      mstore\n      0x20\n      add\n        /* \"contracts/mainliquidations.sol\":6252:6256  _apr */\n      dup7\n        /* \"contracts/mainliquidations.sol\":6129:6290  Bid({... */\n      dup2\n      mstore\n      0x20\n      add\n        /* \"contracts/mainliquidations.sol\":6275:6279  _ltv */\n      dup6\n        /* \"contracts/mainliquidations.sol\":6129:6290  Bid({... */\n      0xffff\n      and\n      dup2\n      mstore\n      pop\n        /* \"contracts/mainliquidations.sol\":6109:6290  Bid memory newBid = Bid({... */\n      swap1\n      pop\n        /* \"contracts/mainliquidations.sol\":6386:6392  newBid */\n      dup1\n        /* \"contracts/mainliquidations.sol\":6356:6360  bids */\n      0x02\n        /* \"contracts/mainliquidations.sol\":6356:6369  bids[_poolId] */\n      0x00\n        /* \"contracts/mainliquidations.sol\":6361:6368  _poolId */\n      dup10\n        /* \"contracts/mainliquidations.sol\":6356:6369  bids[_poolId] */\n      dup2\n      mstore\n      0x20\n      add\n      swap1\n      dup2\n      mstore\n      0x20\n      add\n      0x00\n      keccak256\n        /* \"contracts/mainliquidations.sol\":6356:6383  bids[_poolId][loan.numBids] */\n      0x00\n        /* \"contracts/mainliquidations.sol\":6370:6374  loan */\n      dup6\n        /* \"contracts/mainliquidations.sol\":6370:6382  loan.numBids */\n      0x09\n      add\n      sload\n        /* \"contracts/mainliquidations.sol\":6356:6383  bids[_poolId][loan.numBids] */\n      dup2\n      mstore\n      0x20\n      add\n      swap1\n      dup2\n      mstore\n      0x20\n      add\n      0x00\n      keccak256\n        /* \"contracts/mainliquidations.sol\":6356:6392  bids[_poolId][loan.numBids] = newBid */\n      0x00\n      dup3\n      add\n      mload\n      dup2\n      0x00\n      add\n      sstore\n      0x20\n      dup3\n      add\n      mload\n      dup2\n      0x01\n      add\n      sstore\n      0x40\n      dup3\n      add\n      mload\n      dup2\n      0x02\n      add\n      exp(0x0100, 0x00)\n      dup2\n      sload\n      dup2\n      0xffffffffffffffffffffffffffffffffffffffff\n      mul\n      not\n      and\n      swap1\n      dup4\n      0xffffffffffffffffffffffffffffffffffffffff\n      and\n      mul\n      or\n      swap1\n      sstore\n      pop\n      0x60\n      dup3\n      add\n      mload\n      dup2\n      0x03\n      add\n      sstore\n      0x80\n      dup3\n      add\n      mload\n      dup2\n      0x04\n      add\n      exp(0x0100, 0x00)\n      dup2\n      sload\n      dup2\n      0xffff\n      mul\n      not\n      and\n      swap1\n      dup4\n      0xffff\n      and\n      mul\n      or\n      swap1\n      sstore\n      pop\n      swap1\n      pop\n      pop\n        /* \"contracts/mainliquidations.sol\":6413:6417  _apr */\n      dup5\n        /* \"contracts/mainliquidations.sol\":6402:6406  loan */\n      dup4\n        /* \"contracts/mainliquidations.sol\":6402:6410  loan.apr */\n      0x05\n      add\n        /* \"contracts/mainliquidations.sol\":6402:6417  loan.apr = _apr */\n      dup2\n      swap1\n      sstore\n      pop\n        /* \"contracts/mainliquidations.sol\":6427:6442  uint256 numBids */\n      0x00\n        /* \"contracts/mainliquidations.sol\":6460:6461  1 */\n      0x01\n        /* \"contracts/mainliquidations.sol\":6445:6449  loan */\n      dup5\n        /* \"contracts/mainliquidations.sol\":6445:6457  loan.numBids */\n      0x09\n      add\n      sload\n        /* \"contracts/mainliquidations.sol\":6445:6461  loan.numBids + 1 */\n      tag_112\n      swap2\n      swap1\n      tag_113\n      jump\t// in\n    tag_112:\n        /* \"contracts/mainliquidations.sol\":6427:6461  uint256 numBids = loan.numBids + 1 */\n      swap1\n      pop\n        /* \"contracts/mainliquidations.sol\":6486:6493  numBids */\n      dup1\n        /* \"contracts/mainliquidations.sol\":6471:6475  loan */\n      dup5\n        /* \"contracts/mainliquidations.sol\":6471:6483  loan.numBids */\n      0x09\n      add\n        /* \"contracts/mainliquidations.sol\":6471:6493  loan.numBids = numBids */\n      dup2\n      swap1\n      sstore\n      pop\n        /* \"contracts/mainliquidations.sol\":6510:6514  loan */\n      dup4\n        /* \"contracts/mainliquidations.sol\":6510:6520  loan.token */\n      0x01\n      add\n      0x00\n      swap1\n      sload\n      swap1\n      0x0100\n      exp\n      swap1\n      div\n      0xffffffffffffffffffffffffffffffffffffffff\n      and\n        /* \"contracts/mainliquidations.sol\":6503:6534  IERC20(loan.token).transferFrom */\n      0xffffffffffffffffffffffffffffffffffffffff\n      and\n      0x23b872dd\n        /* \"contracts/mainliquidations.sol\":6548:6558  msg.sender */\n      caller\n        /* \"contracts/mainliquidations.sol\":6572:6576  bids */\n      0x02\n        /* \"contracts/mainliquidations.sol\":6572:6585  bids[_poolId] */\n      0x00\n        /* \"contracts/mainliquidations.sol\":6577:6584  _poolId */\n      dup13\n        /* \"contracts/mainliquidations.sol\":6572:6585  bids[_poolId] */\n      dup2\n      mstore\n      0x20\n      add\n      swap1\n      dup2\n      mstore\n      0x20\n      add\n      0x00\n      keccak256\n        /* \"contracts/mainliquidations.sol\":6572:6594  bids[_poolId][numBids] */\n      0x00\n        /* \"contracts/mainliquidations.sol\":6586:6593  numBids */\n      dup6\n        /* \"contracts/mainliquidations.sol\":6572:6594  bids[_poolId][numBids] */\n      dup2\n      mstore\n      0x20\n      add\n      swap1\n      dup2\n      mstore\n      0x20\n      add\n      0x00\n      keccak256\n        /* \"contracts/mainliquidations.sol\":6572:6599  bids[_poolId][numBids].user */\n      0x02\n      add\n      0x00\n      swap1\n      sload\n      swap1\n      0x0100\n      exp\n      swap1\n      div\n      0xffffffffffffffffffffffffffffffffffffffff\n      and\n        /* \"contracts/mainliquidations.sol\":6613:6622  loanValue */\n      dup7\n        /* \"contracts/mainliquidations.sol\":6503:6632  IERC20(loan.token).transferFrom(... */\n      mload(0x40)\n      dup5\n      0xffffffff\n      and\n      0xe0\n      shl\n      dup2\n      mstore\n      0x04\n      add\n      tag_114\n      swap4\n      swap3\n      swap2\n      swap1\n      tag_84\n      jump\t// in\n    tag_114:\n      0x20\n      mload(0x40)\n      dup1\n      dup4\n      sub\n      dup2\n      0x00\n      dup8\n      gas\n      call\n      iszero\n      dup1\n      iszero\n      tag_116\n      jumpi\n      returndatasize\n      0x00\n      dup1\n      returndatacopy\n      revert(0x00, returndatasize)\n    tag_116:\n      pop\n      pop\n      pop\n      pop\n      mload(0x40)\n      returndatasize\n      not(0x1f)\n      0x1f\n      dup3\n      add\n      and\n      dup3\n      add\n      dup1\n      0x40\n      mstore\n      pop\n      dup2\n      add\n      swap1\n      tag_117\n      swap2\n      swap1\n      tag_118\n      jump\t// in\n    tag_117:\n      pop\n        /* \"contracts/mainliquidations.sol\":6649:6653  loan */\n      dup4\n        /* \"contracts/mainliquidations.sol\":6649:6659  loan.token */\n      0x01\n      add\n      0x00\n      swap1\n      sload\n      swap1\n      0x0100\n      exp\n      swap1\n      div\n      0xffffffffffffffffffffffffffffffffffffffff\n      and\n        /* \"contracts/mainliquidations.sol\":6642:6673  IERC20(loan.token).transferFrom */\n      0xffffffffffffffffffffffffffffffffffffffff\n      and\n      0x23b872dd\n        /* \"contracts/mainliquidations.sol\":6687:6697  msg.sender */\n      caller\n        /* \"contracts/mainliquidations.sol\":6711:6715  loan */\n      dup7\n        /* \"contracts/mainliquidations.sol\":6711:6721  loan.owner */\n      0x00\n      add\n      0x00\n      swap1\n      sload\n      swap1\n      0x0100\n      exp\n      swap1\n      div\n      0xffffffffffffffffffffffffffffffffffffffff\n      and\n        /* \"contracts/mainliquidations.sol\":6745:6754  loanValue */\n      dup7\n        /* \"contracts/mainliquidations.sol\":6735:6742  _amount */\n      dup12\n        /* \"contracts/mainliquidations.sol\":6735:6754  _amount - loanValue */\n      tag_119\n      swap2\n      swap1\n      tag_120\n      jump\t// in\n    tag_119:\n        /* \"contracts/mainliquidations.sol\":6642:6764  IERC20(loan.token).transferFrom(... */\n      mload(0x40)\n      dup5\n      0xffffffff\n      and\n      0xe0\n      shl\n      dup2\n      mstore\n      0x04\n      add\n      tag_121\n      swap4\n      swap3\n      swap2\n      swap1\n      tag_84\n      jump\t// in\n    tag_121:\n      0x20\n      mload(0x40)\n      dup1\n      dup4\n      sub\n      dup2\n      0x00\n      dup8\n      gas\n      call\n      iszero\n      dup1\n      iszero\n      tag_123\n      jumpi\n      returndatasize\n      0x00\n      dup1\n      returndatacopy\n      revert(0x00, returndatasize)\n    tag_123:\n      pop\n      pop\n      pop\n      pop\n      mload(0x40)\n      returndatasize\n      not(0x1f)\n      0x1f\n      dup3\n      add\n      and\n      dup3\n      add\n      dup1\n      0x40\n      mstore\n      pop\n      dup2\n      add\n      swap1\n      tag_124\n      swap2\n      swap1\n      tag_118\n      jump\t// in\n    tag_124:\n      pop\n        /* \"contracts/mainliquidations.sol\":5463:6771  {... */\n      pop\n      pop\n      pop\n      pop\n        /* \"contracts/mainliquidations.sol\":5342:6771  function bid(... */\n      pop\n      pop\n      pop\n      pop\n      jump\t// out\n        /* \"contracts/mainliquidations.sol\":7550:7753  function whitelistStatusUpdate(uint256 _poolId, bool _whitelist)... */\n    tag_35:\n        /* \"contracts/mainliquidations.sol\":7650:7657  _poolId */\n      dup2\n        /* \"contracts/mainliquidations.sol\":3155:3165  msg.sender */\n      caller\n        /* \"contracts/mainliquidations.sol\":3131:3165  loans[_poolId].owner == msg.sender */\n      0xffffffffffffffffffffffffffffffffffffffff\n      and\n        /* \"contracts/mainliquidations.sol\":3131:3136  loans */\n      0x01\n        /* \"contracts/mainliquidations.sol\":3131:3145  loans[_poolId] */\n      0x00\n        /* \"contracts/mainliquidations.sol\":3137:3144  _poolId */\n      dup4\n        /* \"contracts/mainliquidations.sol\":3131:3145  loans[_poolId] */\n      dup2\n      mstore\n      0x20\n      add\n      swap1\n      dup2\n      mstore\n      0x20\n      add\n      0x00\n      keccak256\n        /* \"contracts/mainliquidations.sol\":3131:3151  loans[_poolId].owner */\n      0x00\n      add\n      0x00\n      swap1\n      sload\n      swap1\n      0x0100\n      exp\n      swap1\n      div\n      0xffffffffffffffffffffffffffffffffffffffff\n      and\n        /* \"contracts/mainliquidations.sol\":3131:3165  loans[_poolId].owner == msg.sender */\n      0xffffffffffffffffffffffffffffffffffffffff\n      and\n      eq\n        /* \"contracts/mainliquidations.sol\":3130:3225  (loans[_poolId].owner == msg.sender) ||... */\n      dup1\n      tag_126\n      jumpi\n      pop\n        /* \"contracts/mainliquidations.sol\":3214:3224  msg.sender */\n      caller\n        /* \"contracts/mainliquidations.sol\":3187:3224  loans[_poolId].operator == msg.sender */\n      0xffffffffffffffffffffffffffffffffffffffff\n      and\n        /* \"contracts/mainliquidations.sol\":3187:3192  loans */\n      0x01\n        /* \"contracts/mainliquidations.sol\":3187:3201  loans[_poolId] */\n      0x00\n        /* \"contracts/mainliquidations.sol\":3193:3200  _poolId */\n      dup4\n        /* \"contracts/mainliquidations.sol\":3187:3201  loans[_poolId] */\n      dup2\n      mstore\n      0x20\n      add\n      swap1\n      dup2\n      mstore\n      0x20\n      add\n      0x00\n      keccak256\n        /* \"contracts/mainliquidations.sol\":3187:3210  loans[_poolId].operator */\n      0x02\n      add\n      0x00\n      swap1\n      sload\n      swap1\n      0x0100\n      exp\n      swap1\n      div\n      0xffffffffffffffffffffffffffffffffffffffff\n      and\n        /* \"contracts/mainliquidations.sol\":3187:3224  loans[_poolId].operator == msg.sender */\n      0xffffffffffffffffffffffffffffffffffffffff\n      and\n      eq\n        /* \"contracts/mainliquidations.sol\":3130:3225  (loans[_poolId].owner == msg.sender) ||... */\n    tag_126:\n        /* \"contracts/mainliquidations.sol\":3109:3265  require(... */\n      tag_127\n      jumpi\n      mload(0x40)\n      0x08c379a000000000000000000000000000000000000000000000000000000000\n      dup2\n      mstore\n      0x04\n      add\n      tag_128\n      swap1\n      tag_81\n      jump\t// in\n    tag_128:\n      mload(0x40)\n      dup1\n      swap2\n      sub\n      swap1\n      revert\n    tag_127:\n        /* \"contracts/mainliquidations.sol\":7673:7690  Loan storage loan */\n      0x00\n        /* \"contracts/mainliquidations.sol\":7693:7698  loans */\n      0x01\n        /* \"contracts/mainliquidations.sol\":7693:7707  loans[_poolId] */\n      0x00\n        /* \"contracts/mainliquidations.sol\":7699:7706  _poolId */\n      dup6\n        /* \"contracts/mainliquidations.sol\":7693:7707  loans[_poolId] */\n      dup2\n      mstore\n      0x20\n      add\n      swap1\n      dup2\n      mstore\n      0x20\n      add\n      0x00\n      keccak256\n        /* \"contracts/mainliquidations.sol\":7673:7707  Loan storage loan = loans[_poolId] */\n      swap1\n      pop\n        /* \"contracts/mainliquidations.sol\":7736:7746  _whitelist */\n      dup3\n        /* \"contracts/mainliquidations.sol\":7717:7721  loan */\n      dup2\n        /* \"contracts/mainliquidations.sol\":7717:7733  loan.whitelisted */\n      0x0a\n      add\n      0x01\n        /* \"contracts/mainliquidations.sol\":7717:7746  loan.whitelisted = _whitelist */\n      0x0100\n      exp\n      dup2\n      sload\n      dup2\n      0xff\n      mul\n      not\n      and\n      swap1\n      dup4\n      iszero\n      iszero\n      mul\n      or\n      swap1\n      sstore\n      pop\n        /* \"contracts/mainliquidations.sol\":7663:7753  {... */\n      pop\n        /* \"contracts/mainliquidations.sol\":7550:7753  function whitelistStatusUpdate(uint256 _poolId, bool _whitelist)... */\n      pop\n      pop\n      pop\n      jump\t// out\n        /* \"contracts/mainliquidations.sol\":8270:8514  function cancel(uint256 _poolId) external onlyOwner(_poolId) {... */\n    tag_38:\n        /* \"contracts/mainliquidations.sol\":8322:8329  _poolId */\n      dup1\n        /* \"contracts/mainliquidations.sol\":3155:3165  msg.sender */\n      caller\n        /* \"contracts/mainliquidations.sol\":3131:3165  loans[_poolId].owner == msg.sender */\n      0xffffffffffffffffffffffffffffffffffffffff\n      and\n        /* \"contracts/mainliquidations.sol\":3131:3136  loans */\n      0x01\n        /* \"contracts/mainliquidations.sol\":3131:3145  loans[_poolId] */\n      0x00\n        /* \"contracts/mainliquidations.sol\":3137:3144  _poolId */\n      dup4\n        /* \"contracts/mainliquidations.sol\":3131:3145  loans[_poolId] */\n      dup2\n      mstore\n      0x20\n      add\n      swap1\n      dup2\n      mstore\n      0x20\n      add\n      0x00\n      keccak256\n        /* \"contracts/mainliquidations.sol\":3131:3151  loans[_poolId].owner */\n      0x00\n      add\n      0x00\n      swap1\n      sload\n      swap1\n      0x0100\n      exp\n      swap1\n      div\n      0xffffffffffffffffffffffffffffffffffffffff\n      and\n        /* \"contracts/mainliquidations.sol\":3131:3165  loans[_poolId].owner == msg.sender */\n      0xffffffffffffffffffffffffffffffffffffffff\n      and\n      eq\n        /* \"contracts/mainliquidations.sol\":3130:3225  (loans[_poolId].owner == msg.sender) ||... */\n      dup1\n      tag_131\n      jumpi\n      pop\n        /* \"contracts/mainliquidations.sol\":3214:3224  msg.sender */\n      caller\n        /* \"contracts/mainliquidations.sol\":3187:3224  loans[_poolId].operator == msg.sender */\n      0xffffffffffffffffffffffffffffffffffffffff\n      and\n        /* \"contracts/mainliquidations.sol\":3187:3192  loans */\n      0x01\n        /* \"contracts/mainliquidations.sol\":3187:3201  loans[_poolId] */\n      0x00\n        /* \"contracts/mainliquidations.sol\":3193:3200  _poolId */\n      dup4\n        /* \"contracts/mainliquidations.sol\":3187:3201  loans[_poolId] */\n      dup2\n      mstore\n      0x20\n      add\n      swap1\n      dup2\n      mstore\n      0x20\n      add\n      0x00\n      keccak256\n        /* \"contracts/mainliquidations.sol\":3187:3210  loans[_poolId].operator */\n      0x02\n      add\n      0x00\n      swap1\n      sload\n      swap1\n      0x0100\n      exp\n      swap1\n      div\n      0xffffffffffffffffffffffffffffffffffffffff\n      and\n        /* \"contracts/mainliquidations.sol\":3187:3224  loans[_poolId].operator == msg.sender */\n      0xffffffffffffffffffffffffffffffffffffffff\n      and\n      eq\n        /* \"contracts/mainliquidations.sol\":3130:3225  (loans[_poolId].owner == msg.sender) ||... */\n    tag_131:\n        /* \"contracts/mainliquidations.sol\":3109:3265  require(... */\n      tag_132\n      jumpi\n      mload(0x40)\n      0x08c379a000000000000000000000000000000000000000000000000000000000\n      dup2\n      mstore\n      0x04\n      add\n      tag_133\n      swap1\n      tag_81\n      jump\t// in\n    tag_133:\n      mload(0x40)\n      dup1\n      swap2\n      sub\n      swap1\n      revert\n    tag_132:\n        /* \"contracts/mainliquidations.sol\":8341:8357  Loan memory loan */\n      0x00\n        /* \"contracts/mainliquidations.sol\":8360:8365  loans */\n      0x01\n        /* \"contracts/mainliquidations.sol\":8360:8374  loans[_poolId] */\n      0x00\n        /* \"contracts/mainliquidations.sol\":8366:8373  _poolId */\n      dup5\n        /* \"contracts/mainliquidations.sol\":8360:8374  loans[_poolId] */\n      dup2\n      mstore\n      0x20\n      add\n      swap1\n      dup2\n      mstore\n      0x20\n      add\n      0x00\n      keccak256\n        /* \"contracts/mainliquidations.sol\":8341:8374  Loan memory loan = loans[_poolId] */\n      mload(0x40)\n      dup1\n      0x0180\n      add\n      0x40\n      mstore\n      swap1\n      dup2\n      0x00\n      dup3\n      add\n      0x00\n      swap1\n      sload\n      swap1\n      0x0100\n      exp\n      swap1\n      div\n      0xffffffffffffffffffffffffffffffffffffffff\n      and\n      0xffffffffffffffffffffffffffffffffffffffff\n      and\n      0xffffffffffffffffffffffffffffffffffffffff\n      and\n      dup2\n      mstore\n      0x20\n      add\n      0x01\n      dup3\n      add\n      0x00\n      swap1\n      sload\n      swap1\n      0x0100\n      exp\n      swap1\n      div\n      0xffffffffffffffffffffffffffffffffffffffff\n      and\n      0xffffffffffffffffffffffffffffffffffffffff\n      and\n      0xffffffffffffffffffffffffffffffffffffffff\n      and\n      dup2\n      mstore\n      0x20\n      add\n      0x02\n      dup3\n      add\n      0x00\n      swap1\n      sload\n      swap1\n      0x0100\n      exp\n      swap1\n      div\n      0xffffffffffffffffffffffffffffffffffffffff\n      and\n      0xffffffffffffffffffffffffffffffffffffffff\n      and\n      0xffffffffffffffffffffffffffffffffffffffff\n      and\n      dup2\n      mstore\n      0x20\n      add\n      0x03\n      dup3\n      add\n      0x00\n      swap1\n      sload\n      swap1\n      0x0100\n      exp\n      swap1\n      div\n      0xffffffffffffffffffffffffffffffffffffffff\n      and\n      0xffffffffffffffffffffffffffffffffffffffff\n      and\n      0xffffffffffffffffffffffffffffffffffffffff\n      and\n      dup2\n      mstore\n      0x20\n      add\n      0x04\n      dup3\n      add\n      0x00\n      swap1\n      sload\n      swap1\n      0x0100\n      exp\n      swap1\n      div\n      0xffffffffffffffffffffffffffffffffffffffff\n      and\n      0xffffffffffffffffffffffffffffffffffffffff\n      and\n      0xffffffffffffffffffffffffffffffffffffffff\n      and\n      dup2\n      mstore\n      0x20\n      add\n      0x05\n      dup3\n      add\n      sload\n      dup2\n      mstore\n      0x20\n      add\n      0x06\n      dup3\n      add\n      sload\n      dup2\n      mstore\n      0x20\n      add\n      0x07\n      dup3\n      add\n      sload\n      dup2\n      mstore\n      0x20\n      add\n      0x08\n      dup3\n      add\n      sload\n      dup2\n      mstore\n      0x20\n      add\n      0x09\n      dup3\n      add\n      sload\n      dup2\n      mstore\n      0x20\n      add\n      0x0a\n      dup3\n      add\n      0x00\n      swap1\n      sload\n      swap1\n      0x0100\n      exp\n      swap1\n      div\n      0xff\n      and\n      iszero\n      iszero\n      iszero\n      iszero\n      dup2\n      mstore\n      0x20\n      add\n      0x0a\n      dup3\n      add\n      0x01\n      swap1\n      sload\n      swap1\n      0x0100\n      exp\n      swap1\n      div\n      0xff\n      and\n      iszero\n      iszero\n      iszero\n      iszero\n      dup2\n      mstore\n      pop\n      pop\n      swap1\n      pop\n        /* \"contracts/mainliquidations.sol\":8409:8424  block.timestamp */\n      timestamp\n        /* \"contracts/mainliquidations.sol\":8392:8396  loan */\n      dup2\n        /* \"contracts/mainliquidations.sol\":8392:8406  loan.startTime */\n      0xe0\n      add\n      mload\n        /* \"contracts/mainliquidations.sol\":8392:8424  loan.startTime > block.timestamp */\n      gt\n        /* \"contracts/mainliquidations.sol\":8384:8449  require(loan.startTime > block.timestamp, \"LAN: already started\") */\n      tag_135\n      jumpi\n      mload(0x40)\n      0x08c379a000000000000000000000000000000000000000000000000000000000\n      dup2\n      mstore\n      0x04\n      add\n      tag_136\n      swap1\n      tag_137\n      jump\t// in\n    tag_136:\n      mload(0x40)\n      dup1\n      swap2\n      sub\n      swap1\n      revert\n    tag_135:\n        /* \"contracts/mainliquidations.sol\":8459:8470  delete loan */\n      tag_138\n      tag_90\n      jump\t// in\n    tag_138:\n      swap1\n      pop\n        /* \"contracts/mainliquidations.sol\":8485:8507  loanCancelled(_poolId) */\n      0xfe785ef891129b084b1c5a30e4d88eb97c97822c024cc25d5f9d806b897512e0\n        /* \"contracts/mainliquidations.sol\":8499:8506  _poolId */\n      dup4\n        /* \"contracts/mainliquidations.sol\":8485:8507  loanCancelled(_poolId) */\n      mload(0x40)\n      tag_139\n      swap2\n      swap1\n      tag_23\n      jump\t// in\n    tag_139:\n      mload(0x40)\n      dup1\n      swap2\n      sub\n      swap1\n      log1\n        /* \"contracts/mainliquidations.sol\":8331:8514  {... */\n      pop\n        /* \"contracts/mainliquidations.sol\":8270:8514  function cancel(uint256 _poolId) external onlyOwner(_poolId) {... */\n      pop\n      pop\n      jump\t// out\n        /* \"contracts/mainliquidations.sol\":9560:10159  function liquidate(uint256 _poolId) external {... */\n    tag_41:\n        /* \"contracts/mainliquidations.sol\":9615:9631  Loan memory loan */\n      0x00\n        /* \"contracts/mainliquidations.sol\":9634:9639  loans */\n      0x01\n        /* \"contracts/mainliquidations.sol\":9634:9648  loans[_poolId] */\n      0x00\n        /* \"contracts/mainliquidations.sol\":9640:9647  _poolId */\n      dup4\n        /* \"contracts/mainliquidations.sol\":9634:9648  loans[_poolId] */\n      dup2\n      mstore\n      0x20\n      add\n      swap1\n      dup2\n      mstore\n      0x20\n      add\n      0x00\n      keccak256\n        /* \"contracts/mainliquidations.sol\":9615:9648  Loan memory loan = loans[_poolId] */\n      mload(0x40)\n      dup1\n      0x0180\n      add\n      0x40\n      mstore\n      swap1\n      dup2\n      0x00\n      dup3\n      add\n      0x00\n      swap1\n      sload\n      swap1\n      0x0100\n      exp\n      swap1\n      div\n      0xffffffffffffffffffffffffffffffffffffffff\n      and\n      0xffffffffffffffffffffffffffffffffffffffff\n      and\n      0xffffffffffffffffffffffffffffffffffffffff\n      and\n      dup2\n      mstore\n      0x20\n      add\n      0x01\n      dup3\n      add\n      0x00\n      swap1\n      sload\n      swap1\n      0x0100\n      exp\n      swap1\n      div\n      0xffffffffffffffffffffffffffffffffffffffff\n      and\n      0xffffffffffffffffffffffffffffffffffffffff\n      and\n      0xffffffffffffffffffffffffffffffffffffffff\n      and\n      dup2\n      mstore\n      0x20\n      add\n      0x02\n      dup3\n      add\n      0x00\n      swap1\n      sload\n      swap1\n      0x0100\n      exp\n      swap1\n      div\n      0xffffffffffffffffffffffffffffffffffffffff\n      and\n      0xffffffffffffffffffffffffffffffffffffffff\n      and\n      0xffffffffffffffffffffffffffffffffffffffff\n      and\n      dup2\n      mstore\n      0x20\n      add\n      0x03\n      dup3\n      add\n      0x00\n      swap1\n      sload\n      swap1\n      0x0100\n      exp\n      swap1\n      div\n      0xffffffffffffffffffffffffffffffffffffffff\n      and\n      0xffffffffffffffffffffffffffffffffffffffff\n      and\n      0xffffffffffffffffffffffffffffffffffffffff\n      and\n      dup2\n      mstore\n      0x20\n      add\n      0x04\n      dup3\n      add\n      0x00\n      swap1\n      sload\n      swap1\n      0x0100\n      exp\n      swap1\n      div\n      0xffffffffffffffffffffffffffffffffffffffff\n      and\n      0xffffffffffffffffffffffffffffffffffffffff\n      and\n      0xffffffffffffffffffffffffffffffffffffffff\n      and\n      dup2\n      mstore\n      0x20\n      add\n      0x05\n      dup3\n      add\n      sload\n      dup2\n      mstore\n      0x20\n      add\n      0x06\n      dup3\n      add\n      sload\n      dup2\n      mstore\n      0x20\n      add\n      0x07\n      dup3\n      add\n      sload\n      dup2\n      mstore\n      0x20\n      add\n      0x08\n      dup3\n      add\n      sload\n      dup2\n      mstore\n      0x20\n      add\n      0x09\n      dup3\n      add\n      sload\n      dup2\n      mstore\n      0x20\n      add\n      0x0a\n      dup3\n      add\n      0x00\n      swap1\n      sload\n      swap1\n      0x0100\n      exp\n      swap1\n      div\n      0xff\n      and\n      iszero\n      iszero\n      iszero\n      iszero\n      dup2\n      mstore\n      0x20\n      add\n      0x0a\n      dup3\n      add\n      0x01\n      swap1\n      sload\n      swap1\n      0x0100\n      exp\n      swap1\n      div\n      0xff\n      and\n      iszero\n      iszero\n      iszero\n      iszero\n      dup2\n      mstore\n      pop\n      pop\n      swap1\n      pop\n        /* \"contracts/mainliquidations.sol\":9658:9678  Bid memory latestBid */\n      0x00\n        /* \"contracts/mainliquidations.sol\":9681:9685  bids */\n      0x02\n        /* \"contracts/mainliquidations.sol\":9681:9694  bids[_poolId] */\n      0x00\n        /* \"contracts/mainliquidations.sol\":9686:9693  _poolId */\n      dup5\n        /* \"contracts/mainliquidations.sol\":9681:9694  bids[_poolId] */\n      dup2\n      mstore\n      0x20\n      add\n      swap1\n      dup2\n      mstore\n      0x20\n      add\n      0x00\n      keccak256\n        /* \"contracts/mainliquidations.sol\":9681:9708  bids[_poolId][loan.numBids] */\n      0x00\n        /* \"contracts/mainliquidations.sol\":9695:9699  loan */\n      dup4\n        /* \"contracts/mainliquidations.sol\":9695:9707  loan.numBids */\n      0x0120\n      add\n      mload\n        /* \"contracts/mainliquidations.sol\":9681:9708  bids[_poolId][loan.numBids] */\n      dup2\n      mstore\n      0x20\n      add\n      swap1\n      dup2\n      mstore\n      0x20\n      add\n      0x00\n      keccak256\n        /* \"contracts/mainliquidations.sol\":9658:9708  Bid memory latestBid = bids[_poolId][loan.numBids] */\n      mload(0x40)\n      dup1\n      0xa0\n      add\n      0x40\n      mstore\n      swap1\n      dup2\n      0x00\n      dup3\n      add\n      sload\n      dup2\n      mstore\n      0x20\n      add\n      0x01\n      dup3\n      add\n      sload\n      dup2\n      mstore\n      0x20\n      add\n      0x02\n      dup3\n      add\n      0x00\n      swap1\n      sload\n      swap1\n      0x0100\n      exp\n      swap1\n      div\n      0xffffffffffffffffffffffffffffffffffffffff\n      and\n      0xffffffffffffffffffffffffffffffffffffffff\n      and\n      0xffffffffffffffffffffffffffffffffffffffff\n      and\n      dup2\n      mstore\n      0x20\n      add\n      0x03\n      dup3\n      add\n      sload\n      dup2\n      mstore\n      0x20\n      add\n      0x04\n      dup3\n      add\n      0x00\n      swap1\n      sload\n      swap1\n      0x0100\n      exp\n      swap1\n      div\n      0xffff\n      and\n      0xffff\n      and\n      0xffff\n      and\n      dup2\n      mstore\n      pop\n      pop\n      swap1\n      pop\n        /* \"contracts/mainliquidations.sol\":9759:9769  msg.sender */\n      caller\n        /* \"contracts/mainliquidations.sol\":9741:9769  latestBid.user == msg.sender */\n      0xffffffffffffffffffffffffffffffffffffffff\n      and\n        /* \"contracts/mainliquidations.sol\":9741:9750  latestBid */\n      dup2\n        /* \"contracts/mainliquidations.sol\":9741:9755  latestBid.user */\n      0x40\n      add\n      mload\n        /* \"contracts/mainliquidations.sol\":9741:9769  latestBid.user == msg.sender */\n      0xffffffffffffffffffffffffffffffffffffffff\n      and\n      eq\n        /* \"contracts/mainliquidations.sol\":9740:9789  (latestBid.user == msg.sender) && _ended(_poolId) */\n      dup1\n      iszero\n      tag_141\n      jumpi\n      pop\n        /* \"contracts/mainliquidations.sol\":9774:9789  _ended(_poolId) */\n      tag_142\n        /* \"contracts/mainliquidations.sol\":9781:9788  _poolId */\n      dup4\n        /* \"contracts/mainliquidations.sol\":9774:9780  _ended */\n      tag_98\n        /* \"contracts/mainliquidations.sol\":9774:9789  _ended(_poolId) */\n      jump\t// in\n    tag_142:\n        /* \"contracts/mainliquidations.sol\":9740:9789  (latestBid.user == msg.sender) && _ended(_poolId) */\n    tag_141:\n        /* \"contracts/mainliquidations.sol\":9739:9869  ((latestBid.user == msg.sender) && _ended(_poolId)) ||... */\n      dup1\n      tag_143\n      jumpi\n      pop\n        /* \"contracts/mainliquidations.sol\":9811:9815  loan */\n      dup2\n        /* \"contracts/mainliquidations.sol\":9811:9828  loan.liquidatable */\n      0x0140\n      add\n      mload\n        /* \"contracts/mainliquidations.sol\":9811:9868  loan.liquidatable && _liquidate(loan, latestBid, _poolId) */\n      dup1\n      iszero\n      tag_144\n      jumpi\n      pop\n        /* \"contracts/mainliquidations.sol\":9832:9868  _liquidate(loan, latestBid, _poolId) */\n      tag_145\n        /* \"contracts/mainliquidations.sol\":9843:9847  loan */\n      dup3\n        /* \"contracts/mainliquidations.sol\":9849:9858  latestBid */\n      dup3\n        /* \"contracts/mainliquidations.sol\":9860:9867  _poolId */\n      dup6\n        /* \"contracts/mainliquidations.sol\":9832:9842  _liquidate */\n      tag_146\n        /* \"contracts/mainliquidations.sol\":9832:9868  _liquidate(loan, latestBid, _poolId) */\n      jump\t// in\n    tag_145:\n        /* \"contracts/mainliquidations.sol\":9811:9868  loan.liquidatable && _liquidate(loan, latestBid, _poolId) */\n    tag_144:\n        /* \"contracts/mainliquidations.sol\":9739:9869  ((latestBid.user == msg.sender) && _ended(_poolId)) ||... */\n    tag_143:\n        /* \"contracts/mainliquidations.sol\":9718:9946  require(... */\n      tag_147\n      jumpi\n      mload(0x40)\n      0x08c379a000000000000000000000000000000000000000000000000000000000\n      dup2\n      mstore\n      0x04\n      add\n      tag_148\n      swap1\n      tag_149\n      jump\t// in\n    tag_148:\n      mload(0x40)\n      dup1\n      swap2\n      sub\n      swap1\n      revert\n    tag_147:\n        /* \"contracts/mainliquidations.sol\":9980:9991  IERC721 NFT */\n      0x00\n        /* \"contracts/mainliquidations.sol\":10002:10006  loan */\n      dup3\n        /* \"contracts/mainliquidations.sol\":10002:10024  loan.collectionAddress */\n      0x80\n      add\n      mload\n        /* \"contracts/mainliquidations.sol\":9980:10025  IERC721 NFT = IERC721(loan.collectionAddress) */\n      swap1\n      pop\n        /* \"contracts/mainliquidations.sol\":10035:10038  NFT */\n      dup1\n        /* \"contracts/mainliquidations.sol\":10035:10055  NFT.safeTransferFrom */\n      0xffffffffffffffffffffffffffffffffffffffff\n      and\n      0x42842e0e\n        /* \"contracts/mainliquidations.sol\":10064:10068  this */\n      address\n        /* \"contracts/mainliquidations.sol\":10071:10080  latestBid */\n      dup5\n        /* \"contracts/mainliquidations.sol\":10071:10085  latestBid.user */\n      0x40\n      add\n      mload\n        /* \"contracts/mainliquidations.sol\":10087:10091  loan */\n      dup7\n        /* \"contracts/mainliquidations.sol\":10087:10097  loan.nftId */\n      0xc0\n      add\n      mload\n        /* \"contracts/mainliquidations.sol\":10035:10098  NFT.safeTransferFrom(address(this), latestBid.user, loan.nftId) */\n      mload(0x40)\n      dup5\n      0xffffffff\n      and\n      0xe0\n      shl\n      dup2\n      mstore\n      0x04\n      add\n      tag_150\n      swap4\n      swap3\n      swap2\n      swap1\n      tag_84\n      jump\t// in\n    tag_150:\n      0x00\n      mload(0x40)\n      dup1\n      dup4\n      sub\n      dup2\n      0x00\n      dup8\n      dup1\n      extcodesize\n      iszero\n      dup1\n      iszero\n      tag_151\n      jumpi\n      0x00\n      dup1\n      revert\n    tag_151:\n      pop\n      gas\n      call\n      iszero\n      dup1\n      iszero\n      tag_153\n      jumpi\n      returndatasize\n      0x00\n      dup1\n      returndatacopy\n      revert(0x00, returndatasize)\n    tag_153:\n      pop\n      pop\n      pop\n      pop\n        /* \"contracts/mainliquidations.sol\":10113:10131  loanEnded(_poolId) */\n      0xcf3eafc70e544bbb0b7b916314be01382e9819ef1dea730bd182222030ffe4a9\n        /* \"contracts/mainliquidations.sol\":10123:10130  _poolId */\n      dup5\n        /* \"contracts/mainliquidations.sol\":10113:10131  loanEnded(_poolId) */\n      mload(0x40)\n      tag_154\n      swap2\n      swap1\n      tag_23\n      jump\t// in\n    tag_154:\n      mload(0x40)\n      dup1\n      swap2\n      sub\n      swap1\n      log1\n        /* \"contracts/mainliquidations.sol\":10141:10152  delete loan */\n      tag_155\n      tag_90\n      jump\t// in\n    tag_155:\n      swap3\n      pop\n        /* \"contracts/mainliquidations.sol\":9605:10159  {... */\n      pop\n      pop\n      pop\n        /* \"contracts/mainliquidations.sol\":9560:10159  function liquidate(uint256 _poolId) external {... */\n      pop\n      jump\t// out\n        /* \"contracts/mainliquidations.sol\":2816:2866  mapping(uint256 => uint256) public userPoolReserve */\n    tag_44:\n      mstore(0x20, 0x04)\n      dup1\n      0x00\n      mstore\n      keccak256(0x00, 0x40)\n      0x00\n      swap2\n      pop\n      swap1\n      pop\n      sload\n      dup2\n      jump\t// out\n        /* \"contracts/mainliquidations.sol\":2439:2494  mapping(uint256 => mapping(uint256 => Bid)) public bids */\n    tag_49:\n      mstore(0x20, 0x02)\n      dup2\n      0x00\n      mstore\n      mstore(0x20, keccak256(0x00, 0x40))\n      dup1\n      0x00\n      mstore\n      keccak256(0x00, 0x40)\n      0x00\n      swap2\n      pop\n      swap2\n      pop\n      pop\n      dup1\n      0x00\n      add\n      sload\n      swap1\n      dup1\n      0x01\n      add\n      sload\n      swap1\n      dup1\n      0x02\n      add\n      0x00\n      swap1\n      sload\n      swap1\n      0x0100\n      exp\n      swap1\n      div\n      0xffffffffffffffffffffffffffffffffffffffff\n      and\n      swap1\n      dup1\n      0x03\n      add\n      sload\n      swap1\n      dup1\n      0x04\n      add\n      0x00\n      swap1\n      sload\n      swap1\n      0x0100\n      exp\n      swap1\n      div\n      0xffff\n      and\n      swap1\n      pop\n      dup6\n      jump\t// out\n        /* \"contracts/mainliquidations.sol\":4048:5075  function launch(... */\n    tag_55:\n        /* \"contracts/mainliquidations.sol\":4361:4376  block.timestamp */\n      timestamp\n        /* \"contracts/mainliquidations.sol\":4347:4357  _startTime */\n      dup5\n        /* \"contracts/mainliquidations.sol\":4347:4376  _startTime >= block.timestamp */\n      lt\n      iszero\n        /* \"contracts/mainliquidations.sol\":4339:4404  require(_startTime >= block.timestamp, \"LAN: start time in past\") */\n      tag_157\n      jumpi\n      mload(0x40)\n      0x08c379a000000000000000000000000000000000000000000000000000000000\n      dup2\n      mstore\n      0x04\n      add\n      tag_158\n      swap1\n      tag_159\n      jump\t// in\n    tag_158:\n      mload(0x40)\n      dup1\n      swap2\n      sub\n      swap1\n      revert\n    tag_157:\n        /* \"contracts/mainliquidations.sol\":4433:4443  _startTime */\n      dup4\n        /* \"contracts/mainliquidations.sol\":4422:4430  _endTime */\n      dup4\n        /* \"contracts/mainliquidations.sol\":4422:4443  _endTime > _startTime */\n      gt\n        /* \"contracts/mainliquidations.sol\":4414:4468  require(_endTime > _startTime, \"LAN: start after end\") */\n      tag_160\n      jumpi\n      mload(0x40)\n      0x08c379a000000000000000000000000000000000000000000000000000000000\n      dup2\n      mstore\n      0x04\n      add\n      tag_161\n      swap1\n      tag_162\n      jump\t// in\n    tag_161:\n      mload(0x40)\n      dup1\n      swap2\n      sub\n      swap1\n      revert\n    tag_160:\n        /* \"contracts/mainliquidations.sol\":4493:4944  Loan({... */\n      mload(0x40)\n      dup1\n      0x0180\n      add\n      0x40\n      mstore\n      dup1\n        /* \"contracts/mainliquidations.sol\":4527:4545  _collectionAddress */\n      dup8\n        /* \"contracts/mainliquidations.sol\":4519:4554  IERC721(_collectionAddress).ownerOf */\n      0xffffffffffffffffffffffffffffffffffffffff\n      and\n      0x6352211e\n        /* \"contracts/mainliquidations.sol\":4555:4561  _nftId */\n      dup9\n        /* \"contracts/mainliquidations.sol\":4519:4562  IERC721(_collectionAddress).ownerOf(_nftId) */\n      mload(0x40)\n      dup3\n      0xffffffff\n      and\n      0xe0\n      shl\n      dup2\n      mstore\n      0x04\n      add\n      tag_163\n      swap2\n      swap1\n      tag_23\n      jump\t// in\n    tag_163:\n      0x20\n      mload(0x40)\n      dup1\n      dup4\n      sub\n      dup2\n      dup7\n      gas\n      staticcall\n      iszero\n      dup1\n      iszero\n      tag_165\n      jumpi\n      returndatasize\n      0x00\n      dup1\n      returndatacopy\n      revert(0x00, returndatasize)\n    tag_165:\n      pop\n      pop\n      pop\n      pop\n      mload(0x40)\n      returndatasize\n      not(0x1f)\n      0x1f\n      dup3\n      add\n      and\n      dup3\n      add\n      dup1\n      0x40\n      mstore\n      pop\n      dup2\n      add\n      swap1\n      tag_166\n      swap2\n      swap1\n      tag_167\n      jump\t// in\n    tag_166:\n        /* \"contracts/mainliquidations.sol\":4493:4944  Loan({... */\n      0xffffffffffffffffffffffffffffffffffffffff\n      and\n      dup2\n      mstore\n      0x20\n      add\n        /* \"contracts/mainliquidations.sol\":4616:4622  _token */\n      dup10\n        /* \"contracts/mainliquidations.sol\":4493:4944  Loan({... */\n      0xffffffffffffffffffffffffffffffffffffffff\n      and\n      dup2\n      mstore\n      0x20\n      add\n        /* \"contracts/mainliquidations.sol\":4586:4595  _operator */\n      dup11\n        /* \"contracts/mainliquidations.sol\":4493:4944  Loan({... */\n      0xffffffffffffffffffffffffffffffffffffffff\n      and\n      dup2\n      mstore\n      0x20\n      add\n        /* \"contracts/mainliquidations.sol\":4651:4665  _oracleAddress */\n      dup9\n        /* \"contracts/mainliquidations.sol\":4493:4944  Loan({... */\n      0xffffffffffffffffffffffffffffffffffffffff\n      and\n      dup2\n      mstore\n      0x20\n      add\n        /* \"contracts/mainliquidations.sol\":4698:4716  _collectionAddress */\n      dup8\n        /* \"contracts/mainliquidations.sol\":4493:4944  Loan({... */\n      0xffffffffffffffffffffffffffffffffffffffff\n      and\n      dup2\n      mstore\n      0x20\n      add\n        /* \"contracts/mainliquidations.sol\":4828:4829  0 */\n      0x00\n        /* \"contracts/mainliquidations.sol\":4493:4944  Loan({... */\n      dup2\n      mstore\n      0x20\n      add\n        /* \"contracts/mainliquidations.sol\":4737:4743  _nftId */\n      dup7\n        /* \"contracts/mainliquidations.sol\":4493:4944  Loan({... */\n      dup2\n      mstore\n      0x20\n      add\n        /* \"contracts/mainliquidations.sol\":4768:4778  _startTime */\n      dup6\n        /* \"contracts/mainliquidations.sol\":4493:4944  Loan({... */\n      dup2\n      mstore\n      0x20\n      add\n        /* \"contracts/mainliquidations.sol\":4801:4809  _endTime */\n      dup5\n        /* \"contracts/mainliquidations.sol\":4493:4944  Loan({... */\n      dup2\n      mstore\n      0x20\n      add\n        /* \"contracts/mainliquidations.sol\":4852:4853  0 */\n      0x00\n        /* \"contracts/mainliquidations.sol\":4493:4944  Loan({... */\n      dup2\n      mstore\n      0x20\n      add\n        /* \"contracts/mainliquidations.sol\":4881:4894  _liquidatable */\n      dup4\n        /* \"contracts/mainliquidations.sol\":4493:4944  Loan({... */\n      iszero\n      iszero\n      dup2\n      mstore\n      0x20\n      add\n        /* \"contracts/mainliquidations.sol\":4921:4933  _whitelisted */\n      dup3\n        /* \"contracts/mainliquidations.sol\":4493:4944  Loan({... */\n      iszero\n      iszero\n      dup2\n      mstore\n      pop\n        /* \"contracts/mainliquidations.sol\":4478:4483  loans */\n      0x01\n        /* \"contracts/mainliquidations.sol\":4478:4490  loans[count] */\n      0x00\n        /* \"contracts/mainliquidations.sol\":4484:4489  count */\n      dup1\n      sload\n        /* \"contracts/mainliquidations.sol\":4478:4490  loans[count] */\n      dup2\n      mstore\n      0x20\n      add\n      swap1\n      dup2\n      mstore\n      0x20\n      add\n      0x00\n      keccak256\n        /* \"contracts/mainliquidations.sol\":4478:4944  loans[count] = Loan({... */\n      0x00\n      dup3\n      add\n      mload\n      dup2\n      0x00\n      add\n      exp(0x0100, 0x00)\n      dup2\n      sload\n      dup2\n      0xffffffffffffffffffffffffffffffffffffffff\n      mul\n      not\n      and\n      swap1\n      dup4\n      0xffffffffffffffffffffffffffffffffffffffff\n      and\n      mul\n      or\n      swap1\n      sstore\n      pop\n      0x20\n      dup3\n      add\n      mload\n      dup2\n      0x01\n      add\n      exp(0x0100, 0x00)\n      dup2\n      sload\n      dup2\n      0xffffffffffffffffffffffffffffffffffffffff\n      mul\n      not\n      and\n      swap1\n      dup4\n      0xffffffffffffffffffffffffffffffffffffffff\n      and\n      mul\n      or\n      swap1\n      sstore\n      pop\n      0x40\n      dup3\n      add\n      mload\n      dup2\n      0x02\n      add\n      exp(0x0100, 0x00)\n      dup2\n      sload\n      dup2\n      0xffffffffffffffffffffffffffffffffffffffff\n      mul\n      not\n      and\n      swap1\n      dup4\n      0xffffffffffffffffffffffffffffffffffffffff\n      and\n      mul\n      or\n      swap1\n      sstore\n      pop\n      0x60\n      dup3\n      add\n      mload\n      dup2\n      0x03\n      add\n      exp(0x0100, 0x00)\n      dup2\n      sload\n      dup2\n      0xffffffffffffffffffffffffffffffffffffffff\n      mul\n      not\n      and\n      swap1\n      dup4\n      0xffffffffffffffffffffffffffffffffffffffff\n      and\n      mul\n      or\n      swap1\n      sstore\n      pop\n      0x80\n      dup3\n      add\n      mload\n      dup2\n      0x04\n      add\n      exp(0x0100, 0x00)\n      dup2\n      sload\n      dup2\n      0xffffffffffffffffffffffffffffffffffffffff\n      mul\n      not\n      and\n      swap1\n      dup4\n      0xffffffffffffffffffffffffffffffffffffffff\n      and\n      mul\n      or\n      swap1\n      sstore\n      pop\n      0xa0\n      dup3\n      add\n      mload\n      dup2\n      0x05\n      add\n      sstore\n      0xc0\n      dup3\n      add\n      mload\n      dup2\n      0x06\n      add\n      sstore\n      0xe0\n      dup3\n      add\n      mload\n      dup2\n      0x07\n      add\n      sstore\n      0x0100\n      dup3\n      add\n      mload\n      dup2\n      0x08\n      add\n      sstore\n      0x0120\n      dup3\n      add\n      mload\n      dup2\n      0x09\n      add\n      sstore\n      0x0140\n      dup3\n      add\n      mload\n      dup2\n      0x0a\n      add\n      exp(0x0100, 0x00)\n      dup2\n      sload\n      dup2\n      0xff\n      mul\n      not\n      and\n      swap1\n      dup4\n      iszero\n      iszero\n      mul\n      or\n      swap1\n      sstore\n      pop\n      0x0160\n      dup3\n      add\n      mload\n      dup2\n      0x0a\n      add\n      exp(0x0100, 0x01)\n      dup2\n      sload\n      dup2\n      0xff\n      mul\n      not\n      and\n      swap1\n      dup4\n      iszero\n      iszero\n      mul\n      or\n      swap1\n      sstore\n      pop\n      swap1\n      pop\n      pop\n        /* \"contracts/mainliquidations.sol\":4979:4994  block.timestamp */\n      timestamp\n        /* \"contracts/mainliquidations.sol\":4954:4958  bids */\n      0x02\n        /* \"contracts/mainliquidations.sol\":4954:4965  bids[count] */\n      0x00\n        /* \"contracts/mainliquidations.sol\":4959:4964  count */\n      dup1\n      sload\n        /* \"contracts/mainliquidations.sol\":4954:4965  bids[count] */\n      dup2\n      mstore\n      0x20\n      add\n      swap1\n      dup2\n      mstore\n      0x20\n      add\n      0x00\n      keccak256\n        /* \"contracts/mainliquidations.sol\":4954:4968  bids[count][0] */\n      0x00\n        /* \"contracts/mainliquidations.sol\":4966:4967  0 */\n      dup1\n        /* \"contracts/mainliquidations.sol\":4954:4968  bids[count][0] */\n      dup2\n      mstore\n      0x20\n      add\n      swap1\n      dup2\n      mstore\n      0x20\n      add\n      0x00\n      keccak256\n        /* \"contracts/mainliquidations.sol\":4954:4976  bids[count][0].bidTime */\n      0x00\n      add\n        /* \"contracts/mainliquidations.sol\":4954:4994  bids[count][0].bidTime = block.timestamp */\n      dup2\n      swap1\n      sstore\n      pop\n        /* \"contracts/mainliquidations.sol\":5017:5022  count */\n      sload(0x00)\n        /* \"contracts/mainliquidations.sol\":5009:5051  newPool(count, _collectionAddress, _nftId) */\n      0xef8b2952c43462575e82711d0cc91169720a4589a9fa533d173e022437f5405e\n        /* \"contracts/mainliquidations.sol\":5024:5042  _collectionAddress */\n      dup8\n        /* \"contracts/mainliquidations.sol\":5044:5050  _nftId */\n      dup8\n        /* \"contracts/mainliquidations.sol\":5009:5051  newPool(count, _collectionAddress, _nftId) */\n      mload(0x40)\n      tag_168\n      swap3\n      swap2\n      swap1\n      tag_169\n      jump\t// in\n    tag_168:\n      mload(0x40)\n      dup1\n      swap2\n      sub\n      swap1\n      log2\n        /* \"contracts/mainliquidations.sol\":5061:5066  count */\n      0x00\n      dup1\n        /* \"contracts/mainliquidations.sol\":5061:5068  count++ */\n      dup2\n      sload\n      dup1\n      swap3\n      swap2\n      swap1\n      tag_170\n      swap1\n      tag_171\n      jump\t// in\n    tag_170:\n      swap2\n      swap1\n      pop\n      sstore\n      pop\n        /* \"contracts/mainliquidations.sol\":4048:5075  function launch(... */\n      pop\n      pop\n      pop\n      pop\n      pop\n      pop\n      pop\n      pop\n      pop\n      jump\t// out\n        /* \"contracts/mainliquidations.sol\":6989:7399  function setNewBidOwner(uint256 _poolId, address _newAddress) external {... */\n    tag_59:\n        /* \"contracts/mainliquidations.sol\":7078:7095  _started(_poolId) */\n      tag_173\n        /* \"contracts/mainliquidations.sol\":7087:7094  _poolId */\n      dup3\n        /* \"contracts/mainliquidations.sol\":7078:7086  _started */\n      tag_93\n        /* \"contracts/mainliquidations.sol\":7078:7095  _started(_poolId) */\n      jump\t// in\n    tag_173:\n        /* \"contracts/mainliquidations.sol\":7070:7116  require(_started(_poolId), \"LAN: not started\") */\n      tag_174\n      jumpi\n      mload(0x40)\n      0x08c379a000000000000000000000000000000000000000000000000000000000\n      dup2\n      mstore\n      0x04\n      add\n      tag_175\n      swap1\n      tag_96\n      jump\t// in\n    tag_175:\n      mload(0x40)\n      dup1\n      swap2\n      sub\n      swap1\n      revert\n    tag_174:\n        /* \"contracts/mainliquidations.sol\":7135:7150  _ended(_poolId) */\n      tag_176\n        /* \"contracts/mainliquidations.sol\":7142:7149  _poolId */\n      dup3\n        /* \"contracts/mainliquidations.sol\":7135:7141  _ended */\n      tag_98\n        /* \"contracts/mainliquidations.sol\":7135:7150  _ended(_poolId) */\n      jump\t// in\n    tag_176:\n        /* \"contracts/mainliquidations.sol\":7134:7150  !_ended(_poolId) */\n      iszero\n        /* \"contracts/mainliquidations.sol\":7126:7173  require(!_ended(_poolId), \"LAN: already ended\") */\n      tag_177\n      jumpi\n      mload(0x40)\n      0x08c379a000000000000000000000000000000000000000000000000000000000\n      dup2\n      mstore\n      0x04\n      add\n      tag_178\n      swap1\n      tag_101\n      jump\t// in\n    tag_178:\n      mload(0x40)\n      dup1\n      swap2\n      sub\n      swap1\n      revert\n    tag_177:\n        /* \"contracts/mainliquidations.sol\":7183:7199  Loan memory loan */\n      0x00\n        /* \"contracts/mainliquidations.sol\":7202:7207  loans */\n      0x01\n        /* \"contracts/mainliquidations.sol\":7202:7216  loans[_poolId] */\n      0x00\n        /* \"contracts/mainliquidations.sol\":7208:7215  _poolId */\n      dup5\n        /* \"contracts/mainliquidations.sol\":7202:7216  loans[_poolId] */\n      dup2\n      mstore\n      0x20\n      add\n      swap1\n      dup2\n      mstore\n      0x20\n      add\n      0x00\n      keccak256\n        /* \"contracts/mainliquidations.sol\":7183:7216  Loan memory loan = loans[_poolId] */\n      mload(0x40)\n      dup1\n      0x0180\n      add\n      0x40\n      mstore\n      swap1\n      dup2\n      0x00\n      dup3\n      add\n      0x00\n      swap1\n      sload\n      swap1\n      0x0100\n      exp\n      swap1\n      div\n      0xffffffffffffffffffffffffffffffffffffffff\n      and\n      0xffffffffffffffffffffffffffffffffffffffff\n      and\n      0xffffffffffffffffffffffffffffffffffffffff\n      and\n      dup2\n      mstore\n      0x20\n      add\n      0x01\n      dup3\n      add\n      0x00\n      swap1\n      sload\n      swap1\n      0x0100\n      exp\n      swap1\n      div\n      0xffffffffffffffffffffffffffffffffffffffff\n      and\n      0xffffffffffffffffffffffffffffffffffffffff\n      and\n      0xffffffffffffffffffffffffffffffffffffffff\n      and\n      dup2\n      mstore\n      0x20\n      add\n      0x02\n      dup3\n      add\n      0x00\n      swap1\n      sload\n      swap1\n      0x0100\n      exp\n      swap1\n      div\n      0xffffffffffffffffffffffffffffffffffffffff\n      and\n      0xffffffffffffffffffffffffffffffffffffffff\n      and\n      0xffffffffffffffffffffffffffffffffffffffff\n      and\n      dup2\n      mstore\n      0x20\n      add\n      0x03\n      dup3\n      add\n      0x00\n      swap1\n      sload\n      swap1\n      0x0100\n      exp\n      swap1\n      div\n      0xffffffffffffffffffffffffffffffffffffffff\n      and\n      0xffffffffffffffffffffffffffffffffffffffff\n      and\n      0xffffffffffffffffffffffffffffffffffffffff\n      and\n      dup2\n      mstore\n      0x20\n      add\n      0x04\n      dup3\n      add\n      0x00\n      swap1\n      sload\n      swap1\n      0x0100\n      exp\n      swap1\n      div\n      0xffffffffffffffffffffffffffffffffffffffff\n      and\n      0xffffffffffffffffffffffffffffffffffffffff\n      and\n      0xffffffffffffffffffffffffffffffffffffffff\n      and\n      dup2\n      mstore\n      0x20\n      add\n      0x05\n      dup3\n      add\n      sload\n      dup2\n      mstore\n      0x20\n      add\n      0x06\n      dup3\n      add\n      sload\n      dup2\n      mstore\n      0x20\n      add\n      0x07\n      dup3\n      add\n      sload\n      dup2\n      mstore\n      0x20\n      add\n      0x08\n      dup3\n      add\n      sload\n      dup2\n      mstore\n      0x20\n      add\n      0x09\n      dup3\n      add\n      sload\n      dup2\n      mstore\n      0x20\n      add\n      0x0a\n      dup3\n      add\n      0x00\n      swap1\n      sload\n      swap1\n      0x0100\n      exp\n      swap1\n      div\n      0xff\n      and\n      iszero\n      iszero\n      iszero\n      iszero\n      dup2\n      mstore\n      0x20\n      add\n      0x0a\n      dup3\n      add\n      0x01\n      swap1\n      sload\n      swap1\n      0x0100\n      exp\n      swap1\n      div\n      0xff\n      and\n      iszero\n      iszero\n      iszero\n      iszero\n      dup2\n      mstore\n      pop\n      pop\n      swap1\n      pop\n        /* \"contracts/mainliquidations.sol\":7226:7247  Bid storage latestBid */\n      0x00\n        /* \"contracts/mainliquidations.sol\":7250:7254  bids */\n      0x02\n        /* \"contracts/mainliquidations.sol\":7250:7263  bids[_poolId] */\n      0x00\n        /* \"contracts/mainliquidations.sol\":7255:7262  _poolId */\n      dup6\n        /* \"contracts/mainliquidations.sol\":7250:7263  bids[_poolId] */\n      dup2\n      mstore\n      0x20\n      add\n      swap1\n      dup2\n      mstore\n      0x20\n      add\n      0x00\n      keccak256\n        /* \"contracts/mainliquidations.sol\":7250:7277  bids[_poolId][loan.numBids] */\n      0x00\n        /* \"contracts/mainliquidations.sol\":7264:7268  loan */\n      dup4\n        /* \"contracts/mainliquidations.sol\":7264:7276  loan.numBids */\n      0x0120\n      add\n      mload\n        /* \"contracts/mainliquidations.sol\":7250:7277  bids[_poolId][loan.numBids] */\n      dup2\n      mstore\n      0x20\n      add\n      swap1\n      dup2\n      mstore\n      0x20\n      add\n      0x00\n      keccak256\n        /* \"contracts/mainliquidations.sol\":7226:7277  Bid storage latestBid = bids[_poolId][loan.numBids] */\n      swap1\n      pop\n        /* \"contracts/mainliquidations.sol\":7313:7323  msg.sender */\n      caller\n        /* \"contracts/mainliquidations.sol\":7295:7323  latestBid.user == msg.sender */\n      0xffffffffffffffffffffffffffffffffffffffff\n      and\n        /* \"contracts/mainliquidations.sol\":7295:7304  latestBid */\n      dup2\n        /* \"contracts/mainliquidations.sol\":7295:7309  latestBid.user */\n      0x02\n      add\n      0x00\n      swap1\n      sload\n      swap1\n      0x0100\n      exp\n      swap1\n      div\n      0xffffffffffffffffffffffffffffffffffffffff\n      and\n        /* \"contracts/mainliquidations.sol\":7295:7323  latestBid.user == msg.sender */\n      0xffffffffffffffffffffffffffffffffffffffff\n      and\n      eq\n        /* \"contracts/mainliquidations.sol\":7287:7354  require(latestBid.user == msg.sender, \"LAN: Not the latest bidder\") */\n      tag_179\n      jumpi\n      mload(0x40)\n      0x08c379a000000000000000000000000000000000000000000000000000000000\n      dup2\n      mstore\n      0x04\n      add\n      tag_180\n      swap1\n      tag_181\n      jump\t// in\n    tag_180:\n      mload(0x40)\n      dup1\n      swap2\n      sub\n      swap1\n      revert\n    tag_179:\n        /* \"contracts/mainliquidations.sol\":7381:7392  _newAddress */\n      dup3\n        /* \"contracts/mainliquidations.sol\":7364:7373  latestBid */\n      dup2\n        /* \"contracts/mainliquidations.sol\":7364:7378  latestBid.user */\n      0x02\n      add\n      0x00\n        /* \"contracts/mainliquidations.sol\":7364:7392  latestBid.user = _newAddress */\n      0x0100\n      exp\n      dup2\n      sload\n      dup2\n      0xffffffffffffffffffffffffffffffffffffffff\n      mul\n      not\n      and\n      swap1\n      dup4\n      0xffffffffffffffffffffffffffffffffffffffff\n      and\n      mul\n      or\n      swap1\n      sstore\n      pop\n        /* \"contracts/mainliquidations.sol\":7060:7399  {... */\n      pop\n      pop\n        /* \"contracts/mainliquidations.sol\":6989:7399  function setNewBidOwner(uint256 _poolId, address _newAddress) external {... */\n      pop\n      pop\n      jump\t// out\n        /* \"contracts/mainliquidations.sol\":2600:2672  mapping(uint256 => mapping(address => bool)) public whitelistedAddresses */\n    tag_62:\n      mstore(0x20, 0x03)\n      dup2\n      0x00\n      mstore\n      mstore(0x20, keccak256(0x00, 0x40))\n      dup1\n      0x00\n      mstore\n      keccak256(0x00, 0x40)\n      0x00\n      swap2\n      pop\n      swap2\n      pop\n      swap1\n      sload\n      swap1\n      0x0100\n      exp\n      swap1\n      div\n      0xff\n      and\n      dup2\n      jump\t// out\n        /* \"contracts/mainliquidations.sol\":8685:9395  function repay(uint256 _poolId, uint256 _amount)... */\n    tag_67:\n        /* \"contracts/mainliquidations.sol\":8769:8776  _poolId */\n      dup2\n        /* \"contracts/mainliquidations.sol\":3155:3165  msg.sender */\n      caller\n        /* \"contracts/mainliquidations.sol\":3131:3165  loans[_poolId].owner == msg.sender */\n      0xffffffffffffffffffffffffffffffffffffffff\n      and\n        /* \"contracts/mainliquidations.sol\":3131:3136  loans */\n      0x01\n        /* \"contracts/mainliquidations.sol\":3131:3145  loans[_poolId] */\n      0x00\n        /* \"contracts/mainliquidations.sol\":3137:3144  _poolId */\n      dup4\n        /* \"contracts/mainliquidations.sol\":3131:3145  loans[_poolId] */\n      dup2\n      mstore\n      0x20\n      add\n      swap1\n      dup2\n      mstore\n      0x20\n      add\n      0x00\n      keccak256\n        /* \"contracts/mainliquidations.sol\":3131:3151  loans[_poolId].owner */\n      0x00\n      add\n      0x00\n      swap1\n      sload\n      swap1\n      0x0100\n      exp\n      swap1\n      div\n      0xffffffffffffffffffffffffffffffffffffffff\n      and\n        /* \"contracts/mainliquidations.sol\":3131:3165  loans[_poolId].owner == msg.sender */\n      0xffffffffffffffffffffffffffffffffffffffff\n      and\n      eq\n        /* \"contracts/mainliquidations.sol\":3130:3225  (loans[_poolId].owner == msg.sender) ||... */\n      dup1\n      tag_183\n      jumpi\n      pop\n        /* \"contracts/mainliquidations.sol\":3214:3224  msg.sender */\n      caller\n        /* \"contracts/mainliquidations.sol\":3187:3224  loans[_poolId].operator == msg.sender */\n      0xffffffffffffffffffffffffffffffffffffffff\n      and\n        /* \"contracts/mainliquidations.sol\":3187:3192  loans */\n      0x01\n        /* \"contracts/mainliquidations.sol\":3187:3201  loans[_poolId] */\n      0x00\n        /* \"contracts/mainliquidations.sol\":3193:3200  _poolId */\n      dup4\n        /* \"contracts/mainliquidations.sol\":3187:3201  loans[_poolId] */\n      dup2\n      mstore\n      0x20\n      add\n      swap1\n      dup2\n      mstore\n      0x20\n      add\n      0x00\n      keccak256\n        /* \"contracts/mainliquidations.sol\":3187:3210  loans[_poolId].operator */\n      0x02\n      add\n      0x00\n      swap1\n      sload\n      swap1\n      0x0100\n      exp\n      swap1\n      div\n      0xffffffffffffffffffffffffffffffffffffffff\n      and\n        /* \"contracts/mainliquidations.sol\":3187:3224  loans[_poolId].operator == msg.sender */\n      0xffffffffffffffffffffffffffffffffffffffff\n      and\n      eq\n        /* \"contracts/mainliquidations.sol\":3130:3225  (loans[_poolId].owner == msg.sender) ||... */\n    tag_183:\n        /* \"contracts/mainliquidations.sol\":3109:3265  require(... */\n      tag_184\n      jumpi\n      mload(0x40)\n      0x08c379a000000000000000000000000000000000000000000000000000000000\n      dup2\n      mstore\n      0x04\n      add\n      tag_185\n      swap1\n      tag_81\n      jump\t// in\n    tag_185:\n      mload(0x40)\n      dup1\n      swap2\n      sub\n      swap1\n      revert\n    tag_184:\n        /* \"contracts/mainliquidations.sol\":8836:8852  Loan memory loan */\n      0x00\n        /* \"contracts/mainliquidations.sol\":8855:8860  loans */\n      0x01\n        /* \"contracts/mainliquidations.sol\":8855:8869  loans[_poolId] */\n      0x00\n        /* \"contracts/mainliquidations.sol\":8861:8868  _poolId */\n      dup6\n        /* \"contracts/mainliquidations.sol\":8855:8869  loans[_poolId] */\n      dup2\n      mstore\n      0x20\n      add\n      swap1\n      dup2\n      mstore\n      0x20\n      add\n      0x00\n      keccak256\n        /* \"contracts/mainliquidations.sol\":8836:8869  Loan memory loan = loans[_poolId] */\n      mload(0x40)\n      dup1\n      0x0180\n      add\n      0x40\n      mstore\n      swap1\n      dup2\n      0x00\n      dup3\n      add\n      0x00\n      swap1\n      sload\n      swap1\n      0x0100\n      exp\n      swap1\n      div\n      0xffffffffffffffffffffffffffffffffffffffff\n      and\n      0xffffffffffffffffffffffffffffffffffffffff\n      and\n      0xffffffffffffffffffffffffffffffffffffffff\n      and\n      dup2\n      mstore\n      0x20\n      add\n      0x01\n      dup3\n      add\n      0x00\n      swap1\n      sload\n      swap1\n      0x0100\n      exp\n      swap1\n      div\n      0xffffffffffffffffffffffffffffffffffffffff\n      and\n      0xffffffffffffffffffffffffffffffffffffffff\n      and\n      0xffffffffffffffffffffffffffffffffffffffff\n      and\n      dup2\n      mstore\n      0x20\n      add\n      0x02\n      dup3\n      add\n      0x00\n      swap1\n      sload\n      swap1\n      0x0100\n      exp\n      swap1\n      div\n      0xffffffffffffffffffffffffffffffffffffffff\n      and\n      0xffffffffffffffffffffffffffffffffffffffff\n      and\n      0xffffffffffffffffffffffffffffffffffffffff\n      and\n      dup2\n      mstore\n      0x20\n      add\n      0x03\n      dup3\n      add\n      0x00\n      swap1\n      sload\n      swap1\n      0x0100\n      exp\n      swap1\n      div\n      0xffffffffffffffffffffffffffffffffffffffff\n      and\n      0xffffffffffffffffffffffffffffffffffffffff\n      and\n      0xffffffffffffffffffffffffffffffffffffffff\n      and\n      dup2\n      mstore\n      0x20\n      add\n      0x04\n      dup3\n      add\n      0x00\n      swap1\n      sload\n      swap1\n      0x0100\n      exp\n      swap1\n      div\n      0xffffffffffffffffffffffffffffffffffffffff\n      and\n      0xffffffffffffffffffffffffffffffffffffffff\n      and\n      0xffffffffffffffffffffffffffffffffffffffff\n      and\n      dup2\n      mstore\n      0x20\n      add\n      0x05\n      dup3\n      add\n      sload\n      dup2\n      mstore\n      0x20\n      add\n      0x06\n      dup3\n      add\n      sload\n      dup2\n      mstore\n      0x20\n      add\n      0x07\n      dup3\n      add\n      sload\n      dup2\n      mstore\n      0x20\n      add\n      0x08\n      dup3\n      add\n      sload\n      dup2\n      mstore\n      0x20\n      add\n      0x09\n      dup3\n      add\n      sload\n      dup2\n      mstore\n      0x20\n      add\n      0x0a\n      dup3\n      add\n      0x00\n      swap1\n      sload\n      swap1\n      0x0100\n      exp\n      swap1\n      div\n      0xff\n      and\n      iszero\n      iszero\n      iszero\n      iszero\n      dup2\n      mstore\n      0x20\n      add\n      0x0a\n      dup3\n      add\n      0x01\n      swap1\n      sload\n      swap1\n      0x0100\n      exp\n      swap1\n      div\n      0xff\n      and\n      iszero\n      iszero\n      iszero\n      iszero\n      dup2\n      mstore\n      pop\n      pop\n      swap1\n      pop\n        /* \"contracts/mainliquidations.sol\":8879:8899  Bid memory latestBid */\n      0x00\n        /* \"contracts/mainliquidations.sol\":8902:8906  bids */\n      0x02\n        /* \"contracts/mainliquidations.sol\":8902:8915  bids[_poolId] */\n      0x00\n        /* \"contracts/mainliquidations.sol\":8907:8914  _poolId */\n      dup7\n        /* \"contracts/mainliquidations.sol\":8902:8915  bids[_poolId] */\n      dup2\n      mstore\n      0x20\n      add\n      swap1\n      dup2\n      mstore\n      0x20\n      add\n      0x00\n      keccak256\n        /* \"contracts/mainliquidations.sol\":8902:8929  bids[_poolId][loan.numBids] */\n      0x00\n        /* \"contracts/mainliquidations.sol\":8916:8920  loan */\n      dup4\n        /* \"contracts/mainliquidations.sol\":8916:8928  loan.numBids */\n      0x0120\n      add\n      mload\n        /* \"contracts/mainliquidations.sol\":8902:8929  bids[_poolId][loan.numBids] */\n      dup2\n      mstore\n      0x20\n      add\n      swap1\n      dup2\n      mstore\n      0x20\n      add\n      0x00\n      keccak256\n        /* \"contracts/mainliquidations.sol\":8879:8929  Bid memory latestBid = bids[_poolId][loan.numBids] */\n      mload(0x40)\n      dup1\n      0xa0\n      add\n      0x40\n      mstore\n      swap1\n      dup2\n      0x00\n      dup3\n      add\n      sload\n      dup2\n      mstore\n      0x20\n      add\n      0x01\n      dup3\n      add\n      sload\n      dup2\n      mstore\n      0x20\n      add\n      0x02\n      dup3\n      add\n      0x00\n      swap1\n      sload\n      swap1\n      0x0100\n      exp\n      swap1\n      div\n      0xffffffffffffffffffffffffffffffffffffffff\n      and\n      0xffffffffffffffffffffffffffffffffffffffff\n      and\n      0xffffffffffffffffffffffffffffffffffffffff\n      and\n      dup2\n      mstore\n      0x20\n      add\n      0x03\n      dup3\n      add\n      sload\n      dup2\n      mstore\n      0x20\n      add\n      0x04\n      dup3\n      add\n      0x00\n      swap1\n      sload\n      swap1\n      0x0100\n      exp\n      swap1\n      div\n      0xffff\n      and\n      0xffff\n      and\n      0xffff\n      and\n      dup2\n      mstore\n      pop\n      pop\n      swap1\n      pop\n        /* \"contracts/mainliquidations.sol\":8947:8951  loan */\n      dup2\n        /* \"contracts/mainliquidations.sol\":8947:8957  loan.token */\n      0x20\n      add\n      mload\n        /* \"contracts/mainliquidations.sol\":8940:8971  IERC20(loan.token).transferFrom */\n      0xffffffffffffffffffffffffffffffffffffffff\n      and\n      0x23b872dd\n        /* \"contracts/mainliquidations.sol\":8972:8982  msg.sender */\n      caller\n        /* \"contracts/mainliquidations.sol\":8992:8996  this */\n      address\n        /* \"contracts/mainliquidations.sol\":8999:9006  _amount */\n      dup8\n        /* \"contracts/mainliquidations.sol\":8940:9007  IERC20(loan.token).transferFrom(msg.sender, address(this), _amount) */\n      mload(0x40)\n      dup5\n      0xffffffff\n      and\n      0xe0\n      shl\n      dup2\n      mstore\n      0x04\n      add\n      tag_187\n      swap4\n      swap3\n      swap2\n      swap1\n      tag_84\n      jump\t// in\n    tag_187:\n      0x20\n      mload(0x40)\n      dup1\n      dup4\n      sub\n      dup2\n      0x00\n      dup8\n      gas\n      call\n      iszero\n      dup1\n      iszero\n      tag_189\n      jumpi\n      returndatasize\n      0x00\n      dup1\n      returndatacopy\n      revert(0x00, returndatasize)\n    tag_189:\n      pop\n      pop\n      pop\n      pop\n      mload(0x40)\n      returndatasize\n      not(0x1f)\n      0x1f\n      dup3\n      add\n      and\n      dup3\n      add\n      dup1\n      0x40\n      mstore\n      pop\n      dup2\n      add\n      swap1\n      tag_190\n      swap2\n      swap1\n      tag_118\n      jump\t// in\n    tag_190:\n      pop\n        /* \"contracts/mainliquidations.sol\":9072:9100  _calculateLoanValue(_poolId) */\n      tag_191\n        /* \"contracts/mainliquidations.sol\":9092:9099  _poolId */\n      dup6\n        /* \"contracts/mainliquidations.sol\":9072:9091  _calculateLoanValue */\n      tag_108\n        /* \"contracts/mainliquidations.sol\":9072:9100  _calculateLoanValue(_poolId) */\n      jump\t// in\n    tag_191:\n        /* \"contracts/mainliquidations.sol\":9044:9059  userPoolReserve */\n      0x04\n        /* \"contracts/mainliquidations.sol\":9044:9068  userPoolReserve[_poolId] */\n      0x00\n        /* \"contracts/mainliquidations.sol\":9060:9067  _poolId */\n      dup8\n        /* \"contracts/mainliquidations.sol\":9044:9068  userPoolReserve[_poolId] */\n      dup2\n      mstore\n      0x20\n      add\n      swap1\n      dup2\n      mstore\n      0x20\n      add\n      0x00\n      keccak256\n      sload\n        /* \"contracts/mainliquidations.sol\":9034:9041  _amount */\n      dup6\n        /* \"contracts/mainliquidations.sol\":9034:9068  _amount + userPoolReserve[_poolId] */\n      tag_192\n      swap2\n      swap1\n      tag_113\n      jump\t// in\n    tag_192:\n        /* \"contracts/mainliquidations.sol\":9034:9100  _amount + userPoolReserve[_poolId] >= _calculateLoanValue(_poolId) */\n      lt\n        /* \"contracts/mainliquidations.sol\":9017:9344  if (... */\n      tag_193\n      jumpi\n        /* \"contracts/mainliquidations.sol\":9149:9160  IERC721 NFT */\n      0x00\n        /* \"contracts/mainliquidations.sol\":9171:9175  loan */\n      dup3\n        /* \"contracts/mainliquidations.sol\":9171:9193  loan.collectionAddress */\n      0x80\n      add\n      mload\n        /* \"contracts/mainliquidations.sol\":9149:9194  IERC721 NFT = IERC721(loan.collectionAddress) */\n      swap1\n      pop\n        /* \"contracts/mainliquidations.sol\":9208:9211  NFT */\n      dup1\n        /* \"contracts/mainliquidations.sol\":9208:9228  NFT.safeTransferFrom */\n      0xffffffffffffffffffffffffffffffffffffffff\n      and\n      0x42842e0e\n        /* \"contracts/mainliquidations.sol\":9237:9241  this */\n      address\n        /* \"contracts/mainliquidations.sol\":9244:9253  latestBid */\n      dup5\n        /* \"contracts/mainliquidations.sol\":9244:9258  latestBid.user */\n      0x40\n      add\n      mload\n        /* \"contracts/mainliquidations.sol\":9260:9264  loan */\n      dup7\n        /* \"contracts/mainliquidations.sol\":9260:9270  loan.nftId */\n      0xc0\n      add\n      mload\n        /* \"contracts/mainliquidations.sol\":9208:9271  NFT.safeTransferFrom(address(this), latestBid.user, loan.nftId) */\n      mload(0x40)\n      dup5\n      0xffffffff\n      and\n      0xe0\n      shl\n      dup2\n      mstore\n      0x04\n      add\n      tag_194\n      swap4\n      swap3\n      swap2\n      swap1\n      tag_84\n      jump\t// in\n    tag_194:\n      0x00\n      mload(0x40)\n      dup1\n      dup4\n      sub\n      dup2\n      0x00\n      dup8\n      dup1\n      extcodesize\n      iszero\n      dup1\n      iszero\n      tag_195\n      jumpi\n      0x00\n      dup1\n      revert\n    tag_195:\n      pop\n      gas\n      call\n      iszero\n      dup1\n      iszero\n      tag_197\n      jumpi\n      returndatasize\n      0x00\n      dup1\n      returndatacopy\n      revert(0x00, returndatasize)\n    tag_197:\n      pop\n      pop\n      pop\n      pop\n        /* \"contracts/mainliquidations.sol\":9290:9308  loanEnded(_poolId) */\n      0xcf3eafc70e544bbb0b7b916314be01382e9819ef1dea730bd182222030ffe4a9\n        /* \"contracts/mainliquidations.sol\":9300:9307  _poolId */\n      dup7\n        /* \"contracts/mainliquidations.sol\":9290:9308  loanEnded(_poolId) */\n      mload(0x40)\n      tag_198\n      swap2\n      swap1\n      tag_23\n      jump\t// in\n    tag_198:\n      mload(0x40)\n      dup1\n      swap2\n      sub\n      swap1\n      log1\n        /* \"contracts/mainliquidations.sol\":9322:9333  delete loan */\n      tag_199\n      tag_90\n      jump\t// in\n    tag_199:\n      swap3\n      pop\n        /* \"contracts/mainliquidations.sol\":9111:9344  {... */\n      pop\n        /* \"contracts/mainliquidations.sol\":9017:9344  if (... */\n    tag_193:\n        /* \"contracts/mainliquidations.sol\":9381:9388  _amount */\n      dup4\n        /* \"contracts/mainliquidations.sol\":9353:9368  userPoolReserve */\n      0x04\n        /* \"contracts/mainliquidations.sol\":9353:9377  userPoolReserve[_poolId] */\n      0x00\n        /* \"contracts/mainliquidations.sol\":9369:9376  _poolId */\n      dup8\n        /* \"contracts/mainliquidations.sol\":9353:9377  userPoolReserve[_poolId] */\n      dup2\n      mstore\n      0x20\n      add\n      swap1\n      dup2\n      mstore\n      0x20\n      add\n      0x00\n      keccak256\n      0x00\n        /* \"contracts/mainliquidations.sol\":9353:9388  userPoolReserve[_poolId] += _amount */\n      dup3\n      dup3\n      sload\n      tag_200\n      swap2\n      swap1\n      tag_113\n      jump\t// in\n    tag_200:\n      swap3\n      pop\n      pop\n      dup2\n      swap1\n      sstore\n      pop\n        /* \"contracts/mainliquidations.sol\":8782:9395  {... */\n      pop\n      pop\n        /* \"contracts/mainliquidations.sol\":8685:9395  function repay(uint256 _poolId, uint256 _amount)... */\n      pop\n      pop\n      pop\n      jump\t// out\n        /* \"contracts/mainliquidations.sol\":2179:2216  mapping(uint256 => Loan) public loans */\n    tag_70:\n      mstore(0x20, 0x01)\n      dup1\n      0x00\n      mstore\n      keccak256(0x00, 0x40)\n      0x00\n      swap2\n      pop\n      swap1\n      pop\n      dup1\n      0x00\n      add\n      0x00\n      swap1\n      sload\n      swap1\n      0x0100\n      exp\n      swap1\n      div\n      0xffffffffffffffffffffffffffffffffffffffff\n      and\n      swap1\n      dup1\n      0x01\n      add\n      0x00\n      swap1\n      sload\n      swap1\n      0x0100\n      exp\n      swap1\n      div\n      0xffffffffffffffffffffffffffffffffffffffff\n      and\n      swap1\n      dup1\n      0x02\n      add\n      0x00\n      swap1\n      sload\n      swap1\n      0x0100\n      exp\n      swap1\n      div\n      0xffffffffffffffffffffffffffffffffffffffff\n      and\n      swap1\n      dup1\n      0x03\n      add\n      0x00\n      swap1\n      sload\n      swap1\n      0x0100\n      exp\n      swap1\n      div\n      0xffffffffffffffffffffffffffffffffffffffff\n      and\n      swap1\n      dup1\n      0x04\n      add\n      0x00\n      swap1\n      sload\n      swap1\n      0x0100\n      exp\n      swap1\n      div\n      0xffffffffffffffffffffffffffffffffffffffff\n      and\n      swap1\n      dup1\n      0x05\n      add\n      sload\n      swap1\n      dup1\n      0x06\n      add\n      sload\n      swap1\n      dup1\n      0x07\n      add\n      sload\n      swap1\n      dup1\n      0x08\n      add\n      sload\n      swap1\n      dup1\n      0x09\n      add\n      sload\n      swap1\n      dup1\n      0x0a\n      add\n      0x00\n      swap1\n      sload\n      swap1\n      0x0100\n      exp\n      swap1\n      div\n      0xff\n      and\n      swap1\n      dup1\n      0x0a\n      add\n      0x01\n      swap1\n      sload\n      swap1\n      0x0100\n      exp\n      swap1\n      div\n      0xff\n      and\n      swap1\n      pop\n      dup13\n      jump\t// out\n        /* \"contracts/mainliquidations.sol\":7996:8181  function changeWhitelist(... */\n    tag_76:\n        /* \"contracts/mainliquidations.sol\":8167:8174  _status */\n      dup1\n        /* \"contracts/mainliquidations.sol\":8122:8142  whitelistedAddresses */\n      0x03\n        /* \"contracts/mainliquidations.sol\":8122:8151  whitelistedAddresses[_poolId] */\n      0x00\n        /* \"contracts/mainliquidations.sol\":8143:8150  _poolId */\n      dup6\n        /* \"contracts/mainliquidations.sol\":8122:8151  whitelistedAddresses[_poolId] */\n      dup2\n      mstore\n      0x20\n      add\n      swap1\n      dup2\n      mstore\n      0x20\n      add\n      0x00\n      keccak256\n        /* \"contracts/mainliquidations.sol\":8122:8164  whitelistedAddresses[_poolId][_newAddress] */\n      0x00\n        /* \"contracts/mainliquidations.sol\":8152:8163  _newAddress */\n      dup5\n        /* \"contracts/mainliquidations.sol\":8122:8164  whitelistedAddresses[_poolId][_newAddress] */\n      0xffffffffffffffffffffffffffffffffffffffff\n      and\n      0xffffffffffffffffffffffffffffffffffffffff\n      and\n      dup2\n      mstore\n      0x20\n      add\n      swap1\n      dup2\n      mstore\n      0x20\n      add\n      0x00\n      keccak256\n      0x00\n        /* \"contracts/mainliquidations.sol\":8122:8174  whitelistedAddresses[_poolId][_newAddress] = _status */\n      0x0100\n      exp\n      dup2\n      sload\n      dup2\n      0xff\n      mul\n      not\n      and\n      swap1\n      dup4\n      iszero\n      iszero\n      mul\n      or\n      swap1\n      sstore\n      pop\n        /* \"contracts/mainliquidations.sol\":7996:8181  function changeWhitelist(... */\n      pop\n      pop\n      pop\n      jump\t// out\n        /* \"contracts/mainliquidations.sol\":12265:12395  function _started(uint256 _poolId) internal view returns (bool) {... */\n    tag_93:\n        /* \"contracts/mainliquidations.sol\":12323:12327  bool */\n      0x00\n        /* \"contracts/mainliquidations.sol\":12373:12388  block.timestamp */\n      timestamp\n        /* \"contracts/mainliquidations.sol\":12346:12351  loans */\n      0x01\n        /* \"contracts/mainliquidations.sol\":12346:12360  loans[_poolId] */\n      0x00\n        /* \"contracts/mainliquidations.sol\":12352:12359  _poolId */\n      dup5\n        /* \"contracts/mainliquidations.sol\":12346:12360  loans[_poolId] */\n      dup2\n      mstore\n      0x20\n      add\n      swap1\n      dup2\n      mstore\n      0x20\n      add\n      0x00\n      keccak256\n        /* \"contracts/mainliquidations.sol\":12346:12370  loans[_poolId].startTime */\n      0x07\n      add\n      sload\n        /* \"contracts/mainliquidations.sol\":12346:12388  loans[_poolId].startTime < block.timestamp */\n      lt\n        /* \"contracts/mainliquidations.sol\":12339:12388  return loans[_poolId].startTime < block.timestamp */\n      swap1\n      pop\n        /* \"contracts/mainliquidations.sol\":12265:12395  function _started(uint256 _poolId) internal view returns (bool) {... */\n      swap2\n      swap1\n      pop\n      jump\t// out\n        /* \"contracts/mainliquidations.sol\":12132:12259  function _ended(uint256 _poolId) internal view returns (bool) {... */\n    tag_98:\n        /* \"contracts/mainliquidations.sol\":12188:12192  bool */\n      0x00\n        /* \"contracts/mainliquidations.sol\":12237:12252  block.timestamp */\n      timestamp\n        /* \"contracts/mainliquidations.sol\":12211:12216  loans */\n      0x01\n        /* \"contracts/mainliquidations.sol\":12211:12225  loans[_poolId] */\n      0x00\n        /* \"contracts/mainliquidations.sol\":12217:12224  _poolId */\n      dup5\n        /* \"contracts/mainliquidations.sol\":12211:12225  loans[_poolId] */\n      dup2\n      mstore\n      0x20\n      add\n      swap1\n      dup2\n      mstore\n      0x20\n      add\n      0x00\n      keccak256\n        /* \"contracts/mainliquidations.sol\":12211:12233  loans[_poolId].endTime */\n      0x08\n      add\n      sload\n        /* \"contracts/mainliquidations.sol\":12211:12252  loans[_poolId].endTime <= block.timestamp */\n      gt\n      iszero\n        /* \"contracts/mainliquidations.sol\":12204:12252  return loans[_poolId].endTime <= block.timestamp */\n      swap1\n      pop\n        /* \"contracts/mainliquidations.sol\":12132:12259  function _ended(uint256 _poolId) internal view returns (bool) {... */\n      swap2\n      swap1\n      pop\n      jump\t// out\n        /* \"contracts/mainliquidations.sol\":11497:12126  function _calculateLoanValue(uint256 _poolId)... */\n    tag_108:\n        /* \"contracts/mainliquidations.sol\":11590:11597  uint256 */\n      0x00\n        /* \"contracts/mainliquidations.sol\":11613:11629  Loan memory loan */\n      dup1\n        /* \"contracts/mainliquidations.sol\":11632:11637  loans */\n      0x01\n        /* \"contracts/mainliquidations.sol\":11632:11646  loans[_poolId] */\n      0x00\n        /* \"contracts/mainliquidations.sol\":11638:11645  _poolId */\n      dup5\n        /* \"contracts/mainliquidations.sol\":11632:11646  loans[_poolId] */\n      dup2\n      mstore\n      0x20\n      add\n      swap1\n      dup2\n      mstore\n      0x20\n      add\n      0x00\n      keccak256\n        /* \"contracts/mainliquidations.sol\":11613:11646  Loan memory loan = loans[_poolId] */\n      mload(0x40)\n      dup1\n      0x0180\n      add\n      0x40\n      mstore\n      swap1\n      dup2\n      0x00\n      dup3\n      add\n      0x00\n      swap1\n      sload\n      swap1\n      0x0100\n      exp\n      swap1\n      div\n      0xffffffffffffffffffffffffffffffffffffffff\n      and\n      0xffffffffffffffffffffffffffffffffffffffff\n      and\n      0xffffffffffffffffffffffffffffffffffffffff\n      and\n      dup2\n      mstore\n      0x20\n      add\n      0x01\n      dup3\n      add\n      0x00\n      swap1\n      sload\n      swap1\n      0x0100\n      exp\n      swap1\n      div\n      0xffffffffffffffffffffffffffffffffffffffff\n      and\n      0xffffffffffffffffffffffffffffffffffffffff\n      and\n      0xffffffffffffffffffffffffffffffffffffffff\n      and\n      dup2\n      mstore\n      0x20\n      add\n      0x02\n      dup3\n      add\n      0x00\n      swap1\n      sload\n      swap1\n      0x0100\n      exp\n      swap1\n      div\n      0xffffffffffffffffffffffffffffffffffffffff\n      and\n      0xffffffffffffffffffffffffffffffffffffffff\n      and\n      0xffffffffffffffffffffffffffffffffffffffff\n      and\n      dup2\n      mstore\n      0x20\n      add\n      0x03\n      dup3\n      add\n      0x00\n      swap1\n      sload\n      swap1\n      0x0100\n      exp\n      swap1\n      div\n      0xffffffffffffffffffffffffffffffffffffffff\n      and\n      0xffffffffffffffffffffffffffffffffffffffff\n      and\n      0xffffffffffffffffffffffffffffffffffffffff\n      and\n      dup2\n      mstore\n      0x20\n      add\n      0x04\n      dup3\n      add\n      0x00\n      swap1\n      sload\n      swap1\n      0x0100\n      exp\n      swap1\n      div\n      0xffffffffffffffffffffffffffffffffffffffff\n      and\n      0xffffffffffffffffffffffffffffffffffffffff\n      and\n      0xffffffffffffffffffffffffffffffffffffffff\n      and\n      dup2\n      mstore\n      0x20\n      add\n      0x05\n      dup3\n      add\n      sload\n      dup2\n      mstore\n      0x20\n      add\n      0x06\n      dup3\n      add\n      sload\n      dup2\n      mstore\n      0x20\n      add\n      0x07\n      dup3\n      add\n      sload\n      dup2\n      mstore\n      0x20\n      add\n      0x08\n      dup3\n      add\n      sload\n      dup2\n      mstore\n      0x20\n      add\n      0x09\n      dup3\n      add\n      sload\n      dup2\n      mstore\n      0x20\n      add\n      0x0a\n      dup3\n      add\n      0x00\n      swap1\n      sload\n      swap1\n      0x0100\n      exp\n      swap1\n      div\n      0xff\n      and\n      iszero\n      iszero\n      iszero\n      iszero\n      dup2\n      mstore\n      0x20\n      add\n      0x0a\n      dup3\n      add\n      0x01\n      swap1\n      sload\n      swap1\n      0x0100\n      exp\n      swap1\n      div\n      0xff\n      and\n      iszero\n      iszero\n      iszero\n      iszero\n      dup2\n      mstore\n      pop\n      pop\n      swap1\n      pop\n        /* \"contracts/mainliquidations.sol\":11656:11676  Bid memory latestBid */\n      0x00\n        /* \"contracts/mainliquidations.sol\":11679:11683  bids */\n      0x02\n        /* \"contracts/mainliquidations.sol\":11679:11692  bids[_poolId] */\n      0x00\n        /* \"contracts/mainliquidations.sol\":11684:11691  _poolId */\n      dup6\n        /* \"contracts/mainliquidations.sol\":11679:11692  bids[_poolId] */\n      dup2\n      mstore\n      0x20\n      add\n      swap1\n      dup2\n      mstore\n      0x20\n      add\n      0x00\n      keccak256\n        /* \"contracts/mainliquidations.sol\":11679:11706  bids[_poolId][loan.numBids] */\n      0x00\n        /* \"contracts/mainliquidations.sol\":11693:11697  loan */\n      dup4\n        /* \"contracts/mainliquidations.sol\":11693:11705  loan.numBids */\n      0x0120\n      add\n      mload\n        /* \"contracts/mainliquidations.sol\":11679:11706  bids[_poolId][loan.numBids] */\n      dup2\n      mstore\n      0x20\n      add\n      swap1\n      dup2\n      mstore\n      0x20\n      add\n      0x00\n      keccak256\n        /* \"contracts/mainliquidations.sol\":11656:11706  Bid memory latestBid = bids[_poolId][loan.numBids] */\n      mload(0x40)\n      dup1\n      0xa0\n      add\n      0x40\n      mstore\n      swap1\n      dup2\n      0x00\n      dup3\n      add\n      sload\n      dup2\n      mstore\n      0x20\n      add\n      0x01\n      dup3\n      add\n      sload\n      dup2\n      mstore\n      0x20\n      add\n      0x02\n      dup3\n      add\n      0x00\n      swap1\n      sload\n      swap1\n      0x0100\n      exp\n      swap1\n      div\n      0xffffffffffffffffffffffffffffffffffffffff\n      and\n      0xffffffffffffffffffffffffffffffffffffffff\n      and\n      0xffffffffffffffffffffffffffffffffffffffff\n      and\n      dup2\n      mstore\n      0x20\n      add\n      0x03\n      dup3\n      add\n      sload\n      dup2\n      mstore\n      0x20\n      add\n      0x04\n      dup3\n      add\n      0x00\n      swap1\n      sload\n      swap1\n      0x0100\n      exp\n      swap1\n      div\n      0xffff\n      and\n      0xffff\n      and\n      0xffff\n      and\n      dup2\n      mstore\n      pop\n      pop\n      swap1\n      pop\n        /* \"contracts/mainliquidations.sol\":11716:11735  uint256 timeElapsed */\n      0x00\n        /* \"contracts/mainliquidations.sol\":11749:11764  _ended(_poolId) */\n      tag_205\n        /* \"contracts/mainliquidations.sol\":11756:11763  _poolId */\n      dup6\n        /* \"contracts/mainliquidations.sol\":11749:11755  _ended */\n      tag_98\n        /* \"contracts/mainliquidations.sol\":11749:11764  _ended(_poolId) */\n      jump\t// in\n    tag_205:\n        /* \"contracts/mainliquidations.sol\":11745:11917  if (_ended(_poolId)) {... */\n      iszero\n      tag_206\n      jumpi\n        /* \"contracts/mainliquidations.sol\":11814:11818  loan */\n      dup3\n        /* \"contracts/mainliquidations.sol\":11814:11826  loan.endTime */\n      0x0100\n      add\n      mload\n        /* \"contracts/mainliquidations.sol\":11794:11803  latestBid */\n      dup3\n        /* \"contracts/mainliquidations.sol\":11794:11811  latestBid.bidTime */\n      0x00\n      add\n      mload\n        /* \"contracts/mainliquidations.sol\":11794:11826  latestBid.bidTime - loan.endTime */\n      tag_207\n      swap2\n      swap1\n      tag_120\n      jump\t// in\n    tag_207:\n        /* \"contracts/mainliquidations.sol\":11780:11826  timeElapsed = latestBid.bidTime - loan.endTime */\n      swap1\n      pop\n        /* \"contracts/mainliquidations.sol\":11745:11917  if (_ended(_poolId)) {... */\n      jump(tag_208)\n    tag_206:\n        /* \"contracts/mainliquidations.sol\":11891:11906  block.timestamp */\n      timestamp\n        /* \"contracts/mainliquidations.sol\":11871:11880  latestBid */\n      dup3\n        /* \"contracts/mainliquidations.sol\":11871:11888  latestBid.bidTime */\n      0x00\n      add\n      mload\n        /* \"contracts/mainliquidations.sol\":11871:11906  latestBid.bidTime - block.timestamp */\n      tag_209\n      swap2\n      swap1\n      tag_120\n      jump\t// in\n    tag_209:\n        /* \"contracts/mainliquidations.sol\":11857:11906  timeElapsed = latestBid.bidTime - block.timestamp */\n      swap1\n      pop\n        /* \"contracts/mainliquidations.sol\":11745:11917  if (_ended(_poolId)) {... */\n    tag_208:\n        /* \"contracts/mainliquidations.sol\":11949:11963  uint256 loanPI */\n      0x00\n        /* \"contracts/mainliquidations.sol\":11966:12009  latestBid.bidAmount.mulDiv(loan.apr, 10e18) */\n      tag_210\n        /* \"contracts/mainliquidations.sol\":11993:11997  loan */\n      dup5\n        /* \"contracts/mainliquidations.sol\":11993:12001  loan.apr */\n      0xa0\n      add\n      mload\n        /* \"contracts/mainliquidations.sol\":12003:12008  10e18 */\n      0x8ac7230489e80000\n        /* \"contracts/mainliquidations.sol\":11966:11975  latestBid */\n      dup6\n        /* \"contracts/mainliquidations.sol\":11966:11985  latestBid.bidAmount */\n      0x20\n      add\n      mload\n        /* \"contracts/mainliquidations.sol\":11966:11992  latestBid.bidAmount.mulDiv */\n      tag_211\n      swap1\n        /* \"contracts/mainliquidations.sol\":11966:12009  latestBid.bidAmount.mulDiv(loan.apr, 10e18) */\n      swap3\n      swap2\n      swap1\n      0xffffffff\n      and\n      jump\t// in\n    tag_210:\n        /* \"contracts/mainliquidations.sol\":11949:12009  uint256 loanPI = latestBid.bidAmount.mulDiv(loan.apr, 10e18) */\n      swap1\n      pop\n        /* \"contracts/mainliquidations.sol\":12072:12119  loanPI.mulDiv(timeElapsed, SECONDS_IN_ONE_YEAR) */\n      tag_212\n        /* \"contracts/mainliquidations.sol\":12086:12097  timeElapsed */\n      dup3\n        /* \"contracts/mainliquidations.sol\":2920:2938  60 * 60 * 24 * 365 */\n      0x01e13380\n        /* \"contracts/mainliquidations.sol\":12072:12078  loanPI */\n      dup4\n        /* \"contracts/mainliquidations.sol\":12072:12085  loanPI.mulDiv */\n      tag_211\n      swap1\n        /* \"contracts/mainliquidations.sol\":12072:12119  loanPI.mulDiv(timeElapsed, SECONDS_IN_ONE_YEAR) */\n      swap3\n      swap2\n      swap1\n      0xffffffff\n      and\n      jump\t// in\n    tag_212:\n        /* \"contracts/mainliquidations.sol\":12038:12047  latestBid */\n      dup4\n        /* \"contracts/mainliquidations.sol\":12038:12057  latestBid.bidAmount */\n      0x20\n      add\n      mload\n        /* \"contracts/mainliquidations.sol\":12038:12119  latestBid.bidAmount +... */\n      tag_213\n      swap2\n      swap1\n      tag_113\n      jump\t// in\n    tag_213:\n        /* \"contracts/mainliquidations.sol\":12019:12119  return... */\n      swap5\n      pop\n      pop\n      pop\n      pop\n      pop\n        /* \"contracts/mainliquidations.sol\":11497:12126  function _calculateLoanValue(uint256 _poolId)... */\n      swap2\n      swap1\n      pop\n      jump\t// out\n        /* \"contracts/mainliquidations.sol\":10323:10891  function _liquidate(... */\n    tag_146:\n        /* \"contracts/mainliquidations.sol\":10453:10457  bool */\n      0x00\n        /* \"contracts/mainliquidations.sol\":10469:10489  uint256 currentPrice */\n      dup1\n        /* \"contracts/mainliquidations.sol\":10625:10629  loan */\n      dup5\n        /* \"contracts/mainliquidations.sol\":10625:10643  loan.oracleAddress */\n      0x60\n      add\n      mload\n        /* \"contracts/mainliquidations.sol\":10612:10663  IPriceOracle(loan.oracleAddress).getUnderlyingPrice */\n      0xffffffffffffffffffffffffffffffffffffffff\n      and\n      0xfc57d4df\n        /* \"contracts/mainliquidations.sol\":10664:10668  loan */\n      dup7\n        /* \"contracts/mainliquidations.sol\":10664:10674  loan.token */\n      0x20\n      add\n      mload\n        /* \"contracts/mainliquidations.sol\":10612:10675  IPriceOracle(loan.oracleAddress).getUnderlyingPrice(loan.token) */\n      mload(0x40)\n      dup3\n      0xffffffff\n      and\n      0xe0\n      shl\n      dup2\n      mstore\n      0x04\n      add\n      tag_215\n      swap2\n      swap1\n      tag_216\n      jump\t// in\n    tag_215:\n      0x20\n      mload(0x40)\n      dup1\n      dup4\n      sub\n      dup2\n      dup7\n      gas\n      staticcall\n      iszero\n      dup1\n      iszero\n      tag_218\n      jumpi\n      returndatasize\n      0x00\n      dup1\n      returndatacopy\n      revert(0x00, returndatasize)\n    tag_218:\n      pop\n      pop\n      pop\n      pop\n      mload(0x40)\n      returndatasize\n      not(0x1f)\n      0x1f\n      dup3\n      add\n      and\n      dup3\n      add\n      dup1\n      0x40\n      mstore\n      pop\n      dup2\n      add\n      swap1\n      tag_219\n      swap2\n      swap1\n      tag_220\n      jump\t// in\n    tag_219:\n        /* \"contracts/mainliquidations.sol\":10505:10509  loan */\n      dup6\n        /* \"contracts/mainliquidations.sol\":10505:10523  loan.oracleAddress */\n      0x60\n      add\n      mload\n        /* \"contracts/mainliquidations.sol\":10492:10539  IPriceOracle(loan.oracleAddress).getBundlePrice */\n      0xffffffffffffffffffffffffffffffffffffffff\n      and\n      0x06cd702c\n        /* \"contracts/mainliquidations.sol\":10553:10557  loan */\n      dup8\n        /* \"contracts/mainliquidations.sol\":10553:10575  loan.collectionAddress */\n      0x80\n      add\n      mload\n        /* \"contracts/mainliquidations.sol\":10589:10593  loan */\n      dup9\n        /* \"contracts/mainliquidations.sol\":10589:10599  loan.nftId */\n      0xc0\n      add\n      mload\n        /* \"contracts/mainliquidations.sol\":10492:10609  IPriceOracle(loan.oracleAddress).getBundlePrice(... */\n      mload(0x40)\n      dup4\n      0xffffffff\n      and\n      0xe0\n      shl\n      dup2\n      mstore\n      0x04\n      add\n      tag_221\n      swap3\n      swap2\n      swap1\n      tag_169\n      jump\t// in\n    tag_221:\n      0x20\n      mload(0x40)\n      dup1\n      dup4\n      sub\n      dup2\n      dup7\n      gas\n      staticcall\n      iszero\n      dup1\n      iszero\n      tag_223\n      jumpi\n      returndatasize\n      0x00\n      dup1\n      returndatacopy\n      revert(0x00, returndatasize)\n    tag_223:\n      pop\n      pop\n      pop\n      pop\n      mload(0x40)\n      returndatasize\n      not(0x1f)\n      0x1f\n      dup3\n      add\n      and\n      dup3\n      add\n      dup1\n      0x40\n      mstore\n      pop\n      dup2\n      add\n      swap1\n      tag_224\n      swap2\n      swap1\n      tag_220\n      jump\t// in\n    tag_224:\n        /* \"contracts/mainliquidations.sol\":10492:10675  IPriceOracle(loan.oracleAddress).getBundlePrice(... */\n      tag_225\n      swap2\n      swap1\n      tag_226\n      jump\t// in\n    tag_225:\n        /* \"contracts/mainliquidations.sol\":10469:10675  uint256 currentPrice = IPriceOracle(loan.oracleAddress).getBundlePrice(... */\n      swap1\n      pop\n        /* \"contracts/mainliquidations.sol\":10815:10816  1 */\n      0x01\n        /* \"contracts/mainliquidations.sol\":10786:10798  currentPrice */\n      dup2\n        /* \"contracts/mainliquidations.sol\":10770:10779  latestBid */\n      dup6\n        /* \"contracts/mainliquidations.sol\":10770:10783  latestBid.ltv */\n      0x80\n      add\n      mload\n        /* \"contracts/mainliquidations.sol\":10770:10798  latestBid.ltv * currentPrice */\n      0xffff\n      and\n      tag_227\n      swap2\n      swap1\n      tag_228\n      jump\t// in\n    tag_227:\n        /* \"contracts/mainliquidations.sol\":10725:10740  userPoolReserve */\n      0x04\n        /* \"contracts/mainliquidations.sol\":10725:10749  userPoolReserve[_poolId] */\n      0x00\n        /* \"contracts/mainliquidations.sol\":10741:10748  _poolId */\n      dup7\n        /* \"contracts/mainliquidations.sol\":10725:10749  userPoolReserve[_poolId] */\n      dup2\n      mstore\n      0x20\n      add\n      swap1\n      dup2\n      mstore\n      0x20\n      add\n      0x00\n      keccak256\n      sload\n        /* \"contracts/mainliquidations.sol\":10703:10712  latestBid */\n      dup7\n        /* \"contracts/mainliquidations.sol\":10703:10722  latestBid.bidAmount */\n      0x20\n      add\n      mload\n        /* \"contracts/mainliquidations.sol\":10703:10749  latestBid.bidAmount - userPoolReserve[_poolId] */\n      tag_229\n      swap2\n      swap1\n      tag_120\n      jump\t// in\n    tag_229:\n        /* \"contracts/mainliquidations.sol\":10702:10799  (latestBid.bidAmount - userPoolReserve[_poolId]) /... */\n      tag_230\n      swap2\n      swap1\n      tag_226\n      jump\t// in\n    tag_230:\n        /* \"contracts/mainliquidations.sol\":10702:10816  (latestBid.bidAmount - userPoolReserve[_poolId]) /... */\n      lt\n        /* \"contracts/mainliquidations.sol\":10685:10864  if (... */\n      tag_231\n      jumpi\n        /* \"contracts/mainliquidations.sol\":10848:10853  false */\n      0x00\n        /* \"contracts/mainliquidations.sol\":10841:10853  return false */\n      swap2\n      pop\n      pop\n      jump(tag_214)\n        /* \"contracts/mainliquidations.sol\":10685:10864  if (... */\n    tag_231:\n        /* \"contracts/mainliquidations.sol\":10880:10884  true */\n      0x01\n        /* \"contracts/mainliquidations.sol\":10873:10884  return true */\n      swap2\n      pop\n      pop\n        /* \"contracts/mainliquidations.sol\":10323:10891  function _liquidate(... */\n    tag_214:\n      swap4\n      swap3\n      pop\n      pop\n      pop\n      jump\t// out\n        /* \"@openzeppelin/contracts/utils/math/Math.sol\":1668:5593  function mulDiv(... */\n    tag_211:\n        /* \"@openzeppelin/contracts/utils/math/Math.sol\":1780:1794  uint256 result */\n      0x00\n        /* \"@openzeppelin/contracts/utils/math/Math.sol\":2127:2140  uint256 prod0 */\n      dup1\n        /* \"@openzeppelin/contracts/utils/math/Math.sol\":2199:2212  uint256 prod1 */\n      0x00\n        /* \"@openzeppelin/contracts/utils/math/Math.sol\":2324:2325  0 */\n      dup1\n        /* \"@openzeppelin/contracts/utils/math/Math.sol\":2320:2326  not(0) */\n      not\n        /* \"@openzeppelin/contracts/utils/math/Math.sol\":2317:2318  y */\n      dup6\n        /* \"@openzeppelin/contracts/utils/math/Math.sol\":2314:2315  x */\n      dup8\n        /* \"@openzeppelin/contracts/utils/math/Math.sol\":2307:2327  mulmod(x, y, not(0)) */\n      mulmod\n        /* \"@openzeppelin/contracts/utils/math/Math.sol\":2360:2361  y */\n      dup6\n        /* \"@openzeppelin/contracts/utils/math/Math.sol\":2357:2358  x */\n      dup8\n        /* \"@openzeppelin/contracts/utils/math/Math.sol\":2353:2362  mul(x, y) */\n      mul\n        /* \"@openzeppelin/contracts/utils/math/Math.sol\":2344:2362  prod0 := mul(x, y) */\n      swap3\n      pop\n        /* \"@openzeppelin/contracts/utils/math/Math.sol\":2415:2420  prod0 */\n      dup3\n        /* \"@openzeppelin/contracts/utils/math/Math.sol\":2411:2413  mm */\n      dup2\n        /* \"@openzeppelin/contracts/utils/math/Math.sol\":2408:2421  lt(mm, prod0) */\n      lt\n        /* \"@openzeppelin/contracts/utils/math/Math.sol\":2400:2405  prod0 */\n      dup4\n        /* \"@openzeppelin/contracts/utils/math/Math.sol\":2396:2398  mm */\n      dup3\n        /* \"@openzeppelin/contracts/utils/math/Math.sol\":2392:2406  sub(mm, prod0) */\n      sub\n        /* \"@openzeppelin/contracts/utils/math/Math.sol\":2388:2422  sub(sub(mm, prod0), lt(mm, prod0)) */\n      sub\n        /* \"@openzeppelin/contracts/utils/math/Math.sol\":2379:2422  prod1 := sub(sub(mm, prod0), lt(mm, prod0)) */\n      swap2\n      pop\n        /* \"@openzeppelin/contracts/utils/math/Math.sol\":2279:2436  {... */\n      pop\n        /* \"@openzeppelin/contracts/utils/math/Math.sol\":2526:2527  0 */\n      0x00\n        /* \"@openzeppelin/contracts/utils/math/Math.sol\":2517:2522  prod1 */\n      dup2\n        /* \"@openzeppelin/contracts/utils/math/Math.sol\":2517:2527  prod1 == 0 */\n      sub\n        /* \"@openzeppelin/contracts/utils/math/Math.sol\":2513:2588  if (prod1 == 0) {... */\n      tag_233\n      jumpi\n        /* \"@openzeppelin/contracts/utils/math/Math.sol\":2562:2573  denominator */\n      dup4\n        /* \"@openzeppelin/contracts/utils/math/Math.sol\":2554:2559  prod0 */\n      dup3\n        /* \"@openzeppelin/contracts/utils/math/Math.sol\":2554:2573  prod0 / denominator */\n      dup2\n      tag_234\n      jumpi\n      tag_235\n      tag_236\n      jump\t// in\n    tag_235:\n    tag_234:\n      div\n        /* \"@openzeppelin/contracts/utils/math/Math.sol\":2547:2573  return prod0 / denominator */\n      swap3\n      pop\n      pop\n      pop\n      jump(tag_232)\n        /* \"@openzeppelin/contracts/utils/math/Math.sol\":2513:2588  if (prod1 == 0) {... */\n    tag_233:\n        /* \"@openzeppelin/contracts/utils/math/Math.sol\":2712:2717  prod1 */\n      dup1\n        /* \"@openzeppelin/contracts/utils/math/Math.sol\":2698:2709  denominator */\n      dup5\n        /* \"@openzeppelin/contracts/utils/math/Math.sol\":2698:2717  denominator > prod1 */\n      gt\n        /* \"@openzeppelin/contracts/utils/math/Math.sol\":2690:2718  require(denominator > prod1) */\n      tag_237\n      jumpi\n      0x00\n      dup1\n      revert\n    tag_237:\n        /* \"@openzeppelin/contracts/utils/math/Math.sol\":2974:2991  uint256 remainder */\n      0x00\n        /* \"@openzeppelin/contracts/utils/math/Math.sol\":3109:3120  denominator */\n      dup5\n        /* \"@openzeppelin/contracts/utils/math/Math.sol\":3106:3107  y */\n      dup7\n        /* \"@openzeppelin/contracts/utils/math/Math.sol\":3103:3104  x */\n      dup9\n        /* \"@openzeppelin/contracts/utils/math/Math.sol\":3096:3121  mulmod(x, y, denominator) */\n      mulmod\n        /* \"@openzeppelin/contracts/utils/math/Math.sol\":3083:3121  remainder := mulmod(x, y, denominator) */\n      swap1\n      pop\n        /* \"@openzeppelin/contracts/utils/math/Math.sol\":3237:3242  prod0 */\n      dup3\n        /* \"@openzeppelin/contracts/utils/math/Math.sol\":3226:3235  remainder */\n      dup2\n        /* \"@openzeppelin/contracts/utils/math/Math.sol\":3223:3243  gt(remainder, prod0) */\n      gt\n        /* \"@openzeppelin/contracts/utils/math/Math.sol\":3216:3221  prod1 */\n      dup3\n        /* \"@openzeppelin/contracts/utils/math/Math.sol\":3212:3244  sub(prod1, gt(remainder, prod0)) */\n      sub\n        /* \"@openzeppelin/contracts/utils/math/Math.sol\":3203:3244  prod1 := sub(prod1, gt(remainder, prod0)) */\n      swap2\n      pop\n        /* \"@openzeppelin/contracts/utils/math/Math.sol\":3281:3290  remainder */\n      dup1\n        /* \"@openzeppelin/contracts/utils/math/Math.sol\":3274:3279  prod0 */\n      dup4\n        /* \"@openzeppelin/contracts/utils/math/Math.sol\":3270:3291  sub(prod0, remainder) */\n      sub\n        /* \"@openzeppelin/contracts/utils/math/Math.sol\":3261:3291  prod0 := sub(prod0, remainder) */\n      swap3\n      pop\n        /* \"@openzeppelin/contracts/utils/math/Math.sol\":3612:3624  uint256 twos */\n      0x00\n        /* \"@openzeppelin/contracts/utils/math/Math.sol\":3657:3658  1 */\n      0x01\n        /* \"@openzeppelin/contracts/utils/math/Math.sol\":3643:3654  denominator */\n      dup7\n        /* \"@openzeppelin/contracts/utils/math/Math.sol\":3642:3654  ~denominator */\n      not\n        /* \"@openzeppelin/contracts/utils/math/Math.sol\":3642:3658  ~denominator + 1 */\n      add\n        /* \"@openzeppelin/contracts/utils/math/Math.sol\":3627:3638  denominator */\n      dup7\n        /* \"@openzeppelin/contracts/utils/math/Math.sol\":3627:3659  denominator & (~denominator + 1) */\n      and\n        /* \"@openzeppelin/contracts/utils/math/Math.sol\":3612:3659  uint256 twos = denominator & (~denominator + 1) */\n      swap1\n      pop\n        /* \"@openzeppelin/contracts/utils/math/Math.sol\":3779:3783  twos */\n      dup1\n        /* \"@openzeppelin/contracts/utils/math/Math.sol\":3766:3777  denominator */\n      dup7\n        /* \"@openzeppelin/contracts/utils/math/Math.sol\":3762:3784  div(denominator, twos) */\n      div\n        /* \"@openzeppelin/contracts/utils/math/Math.sol\":3747:3784  denominator := div(denominator, twos) */\n      swap6\n      pop\n        /* \"@openzeppelin/contracts/utils/math/Math.sol\":3871:3875  twos */\n      dup1\n        /* \"@openzeppelin/contracts/utils/math/Math.sol\":3864:3869  prod0 */\n      dup5\n        /* \"@openzeppelin/contracts/utils/math/Math.sol\":3860:3876  div(prod0, twos) */\n      div\n        /* \"@openzeppelin/contracts/utils/math/Math.sol\":3851:3876  prod0 := div(prod0, twos) */\n      swap4\n      pop\n        /* \"@openzeppelin/contracts/utils/math/Math.sol\":4028:4029  1 */\n      0x01\n        /* \"@openzeppelin/contracts/utils/math/Math.sol\":4021:4025  twos */\n      dup2\n        /* \"@openzeppelin/contracts/utils/math/Math.sol\":4014:4018  twos */\n      dup3\n        /* \"@openzeppelin/contracts/utils/math/Math.sol\":4011:4012  0 */\n      0x00\n        /* \"@openzeppelin/contracts/utils/math/Math.sol\":4007:4019  sub(0, twos) */\n      sub\n        /* \"@openzeppelin/contracts/utils/math/Math.sol\":4003:4026  div(sub(0, twos), twos) */\n      div\n        /* \"@openzeppelin/contracts/utils/math/Math.sol\":3999:4030  add(div(sub(0, twos), twos), 1) */\n      add\n        /* \"@openzeppelin/contracts/utils/math/Math.sol\":3991:4030  twos := add(div(sub(0, twos), twos), 1) */\n      swap1\n      pop\n        /* \"@openzeppelin/contracts/utils/math/Math.sol\":4127:4131  twos */\n      dup1\n        /* \"@openzeppelin/contracts/utils/math/Math.sol\":4119:4124  prod1 */\n      dup4\n        /* \"@openzeppelin/contracts/utils/math/Math.sol\":4119:4131  prod1 * twos */\n      mul\n        /* \"@openzeppelin/contracts/utils/math/Math.sol\":4110:4131  prod0 |= prod1 * twos */\n      dup5\n      or\n      swap4\n      pop\n        /* \"@openzeppelin/contracts/utils/math/Math.sol\":4449:4464  uint256 inverse */\n      0x00\n        /* \"@openzeppelin/contracts/utils/math/Math.sol\":4487:4488  2 */\n      0x02\n        /* \"@openzeppelin/contracts/utils/math/Math.sol\":4472:4483  denominator */\n      dup8\n        /* \"@openzeppelin/contracts/utils/math/Math.sol\":4468:4469  3 */\n      0x03\n        /* \"@openzeppelin/contracts/utils/math/Math.sol\":4468:4483  3 * denominator */\n      mul\n        /* \"@openzeppelin/contracts/utils/math/Math.sol\":4467:4488  (3 * denominator) ^ 2 */\n      xor\n        /* \"@openzeppelin/contracts/utils/math/Math.sol\":4449:4488  uint256 inverse = (3 * denominator) ^ 2 */\n      swap1\n      pop\n        /* \"@openzeppelin/contracts/utils/math/Math.sol\":4734:4741  inverse */\n      dup1\n        /* \"@openzeppelin/contracts/utils/math/Math.sol\":4720:4731  denominator */\n      dup8\n        /* \"@openzeppelin/contracts/utils/math/Math.sol\":4720:4741  denominator * inverse */\n      mul\n        /* \"@openzeppelin/contracts/utils/math/Math.sol\":4716:4717  2 */\n      0x02\n        /* \"@openzeppelin/contracts/utils/math/Math.sol\":4716:4741  2 - denominator * inverse */\n      sub\n        /* \"@openzeppelin/contracts/utils/math/Math.sol\":4705:4741  inverse *= 2 - denominator * inverse */\n      dup2\n      mul\n      swap1\n      pop\n        /* \"@openzeppelin/contracts/utils/math/Math.sol\":4803:4810  inverse */\n      dup1\n        /* \"@openzeppelin/contracts/utils/math/Math.sol\":4789:4800  denominator */\n      dup8\n        /* \"@openzeppelin/contracts/utils/math/Math.sol\":4789:4810  denominator * inverse */\n      mul\n        /* \"@openzeppelin/contracts/utils/math/Math.sol\":4785:4786  2 */\n      0x02\n        /* \"@openzeppelin/contracts/utils/math/Math.sol\":4785:4810  2 - denominator * inverse */\n      sub\n        /* \"@openzeppelin/contracts/utils/math/Math.sol\":4774:4810  inverse *= 2 - denominator * inverse */\n      dup2\n      mul\n      swap1\n      pop\n        /* \"@openzeppelin/contracts/utils/math/Math.sol\":4873:4880  inverse */\n      dup1\n        /* \"@openzeppelin/contracts/utils/math/Math.sol\":4859:4870  denominator */\n      dup8\n        /* \"@openzeppelin/contracts/utils/math/Math.sol\":4859:4880  denominator * inverse */\n      mul\n        /* \"@openzeppelin/contracts/utils/math/Math.sol\":4855:4856  2 */\n      0x02\n        /* \"@openzeppelin/contracts/utils/math/Math.sol\":4855:4880  2 - denominator * inverse */\n      sub\n        /* \"@openzeppelin/contracts/utils/math/Math.sol\":4844:4880  inverse *= 2 - denominator * inverse */\n      dup2\n      mul\n      swap1\n      pop\n        /* \"@openzeppelin/contracts/utils/math/Math.sol\":4943:4950  inverse */\n      dup1\n        /* \"@openzeppelin/contracts/utils/math/Math.sol\":4929:4940  denominator */\n      dup8\n        /* \"@openzeppelin/contracts/utils/math/Math.sol\":4929:4950  denominator * inverse */\n      mul\n        /* \"@openzeppelin/contracts/utils/math/Math.sol\":4925:4926  2 */\n      0x02\n        /* \"@openzeppelin/contracts/utils/math/Math.sol\":4925:4950  2 - denominator * inverse */\n      sub\n        /* \"@openzeppelin/contracts/utils/math/Math.sol\":4914:4950  inverse *= 2 - denominator * inverse */\n      dup2\n      mul\n      swap1\n      pop\n        /* \"@openzeppelin/contracts/utils/math/Math.sol\":5013:5020  inverse */\n      dup1\n        /* \"@openzeppelin/contracts/utils/math/Math.sol\":4999:5010  denominator */\n      dup8\n        /* \"@openzeppelin/contracts/utils/math/Math.sol\":4999:5020  denominator * inverse */\n      mul\n        /* \"@openzeppelin/contracts/utils/math/Math.sol\":4995:4996  2 */\n      0x02\n        /* \"@openzeppelin/contracts/utils/math/Math.sol\":4995:5020  2 - denominator * inverse */\n      sub\n        /* \"@openzeppelin/contracts/utils/math/Math.sol\":4984:5020  inverse *= 2 - denominator * inverse */\n      dup2\n      mul\n      swap1\n      pop\n        /* \"@openzeppelin/contracts/utils/math/Math.sol\":5084:5091  inverse */\n      dup1\n        /* \"@openzeppelin/contracts/utils/math/Math.sol\":5070:5081  denominator */\n      dup8\n        /* \"@openzeppelin/contracts/utils/math/Math.sol\":5070:5091  denominator * inverse */\n      mul\n        /* \"@openzeppelin/contracts/utils/math/Math.sol\":5066:5067  2 */\n      0x02\n        /* \"@openzeppelin/contracts/utils/math/Math.sol\":5066:5091  2 - denominator * inverse */\n      sub\n        /* \"@openzeppelin/contracts/utils/math/Math.sol\":5055:5091  inverse *= 2 - denominator * inverse */\n      dup2\n      mul\n      swap1\n      pop\n        /* \"@openzeppelin/contracts/utils/math/Math.sol\":5542:5549  inverse */\n      dup1\n        /* \"@openzeppelin/contracts/utils/math/Math.sol\":5534:5539  prod0 */\n      dup6\n        /* \"@openzeppelin/contracts/utils/math/Math.sol\":5534:5549  prod0 * inverse */\n      mul\n        /* \"@openzeppelin/contracts/utils/math/Math.sol\":5525:5549  result = prod0 * inverse */\n      swap6\n      pop\n        /* \"@openzeppelin/contracts/utils/math/Math.sol\":5563:5576  return result */\n      pop\n      pop\n      pop\n      pop\n      pop\n        /* \"@openzeppelin/contracts/utils/math/Math.sol\":1668:5593  function mulDiv(... */\n    tag_232:\n      swap4\n      swap3\n      pop\n      pop\n      pop\n      jump\t// out\n    tag_90:\n      mload(0x40)\n      dup1\n      0x0180\n      add\n      0x40\n      mstore\n      dup1\n      and(0xffffffffffffffffffffffffffffffffffffffff, 0x00)\n      dup2\n      mstore\n      0x20\n      add\n      and(0xffffffffffffffffffffffffffffffffffffffff, 0x00)\n      dup2\n      mstore\n      0x20\n      add\n      and(0xffffffffffffffffffffffffffffffffffffffff, 0x00)\n      dup2\n      mstore\n      0x20\n      add\n      and(0xffffffffffffffffffffffffffffffffffffffff, 0x00)\n      dup2\n      mstore\n      0x20\n      add\n      and(0xffffffffffffffffffffffffffffffffffffffff, 0x00)\n      dup2\n      mstore\n      0x20\n      add\n      0x00\n      dup2\n      mstore\n      0x20\n      add\n      0x00\n      dup2\n      mstore\n      0x20\n      add\n      0x00\n      dup2\n      mstore\n      0x20\n      add\n      0x00\n      dup2\n      mstore\n      0x20\n      add\n      0x00\n      dup2\n      mstore\n      0x20\n      add\n      iszero(iszero(0x00))\n      dup2\n      mstore\n      0x20\n      add\n      iszero(iszero(0x00))\n      dup2\n      mstore\n      pop\n      swap1\n      jump\t// out\n        /* \"#utility.yul\":7:84   */\n    tag_238:\n        /* \"#utility.yul\":44:51   */\n      0x00\n        /* \"#utility.yul\":73:78   */\n      dup2\n        /* \"#utility.yul\":62:78   */\n      swap1\n      pop\n        /* \"#utility.yul\":7:84   */\n      swap2\n      swap1\n      pop\n      jump\t// out\n        /* \"#utility.yul\":90:208   */\n    tag_239:\n        /* \"#utility.yul\":177:201   */\n      tag_286\n        /* \"#utility.yul\":195:200   */\n      dup2\n        /* \"#utility.yul\":177:201   */\n      tag_238\n      jump\t// in\n    tag_286:\n        /* \"#utility.yul\":172:175   */\n      dup3\n        /* \"#utility.yul\":165:202   */\n      mstore\n        /* \"#utility.yul\":90:208   */\n      pop\n      pop\n      jump\t// out\n        /* \"#utility.yul\":214:436   */\n    tag_23:\n        /* \"#utility.yul\":307:311   */\n      0x00\n        /* \"#utility.yul\":345:347   */\n      0x20\n        /* \"#utility.yul\":334:343   */\n      dup3\n        /* \"#utility.yul\":330:348   */\n      add\n        /* \"#utility.yul\":322:348   */\n      swap1\n      pop\n        /* \"#utility.yul\":358:429   */\n      tag_288\n        /* \"#utility.yul\":426:427   */\n      0x00\n        /* \"#utility.yul\":415:424   */\n      dup4\n        /* \"#utility.yul\":411:428   */\n      add\n        /* \"#utility.yul\":402:408   */\n      dup5\n        /* \"#utility.yul\":358:429   */\n      tag_239\n      jump\t// in\n    tag_288:\n        /* \"#utility.yul\":214:436   */\n      swap3\n      swap2\n      pop\n      pop\n      jump\t// out\n        /* \"#utility.yul\":523:640   */\n    tag_241:\n        /* \"#utility.yul\":632:633   */\n      0x00\n        /* \"#utility.yul\":629:630   */\n      dup1\n        /* \"#utility.yul\":622:634   */\n      revert\n        /* \"#utility.yul\":769:891   */\n    tag_243:\n        /* \"#utility.yul\":842:866   */\n      tag_293\n        /* \"#utility.yul\":860:865   */\n      dup2\n        /* \"#utility.yul\":842:866   */\n      tag_238\n      jump\t// in\n    tag_293:\n        /* \"#utility.yul\":835:840   */\n      dup2\n        /* \"#utility.yul\":832:867   */\n      eq\n        /* \"#utility.yul\":822:885   */\n      tag_294\n      jumpi\n        /* \"#utility.yul\":881:882   */\n      0x00\n        /* \"#utility.yul\":878:879   */\n      dup1\n        /* \"#utility.yul\":871:883   */\n      revert\n        /* \"#utility.yul\":822:885   */\n    tag_294:\n        /* \"#utility.yul\":769:891   */\n      pop\n      jump\t// out\n        /* \"#utility.yul\":897:1036   */\n    tag_244:\n        /* \"#utility.yul\":943:948   */\n      0x00\n        /* \"#utility.yul\":981:987   */\n      dup2\n        /* \"#utility.yul\":968:988   */\n      calldataload\n        /* \"#utility.yul\":959:988   */\n      swap1\n      pop\n        /* \"#utility.yul\":997:1030   */\n      tag_296\n        /* \"#utility.yul\":1024:1029   */\n      dup2\n        /* \"#utility.yul\":997:1030   */\n      tag_243\n      jump\t// in\n    tag_296:\n        /* \"#utility.yul\":897:1036   */\n      swap3\n      swap2\n      pop\n      pop\n      jump\t// out\n        /* \"#utility.yul\":1042:1371   */\n    tag_26:\n        /* \"#utility.yul\":1101:1107   */\n      0x00\n        /* \"#utility.yul\":1150:1152   */\n      0x20\n        /* \"#utility.yul\":1138:1147   */\n      dup3\n        /* \"#utility.yul\":1129:1136   */\n      dup5\n        /* \"#utility.yul\":1125:1148   */\n      sub\n        /* \"#utility.yul\":1121:1153   */\n      slt\n        /* \"#utility.yul\":1118:1237   */\n      iszero\n      tag_298\n      jumpi\n        /* \"#utility.yul\":1156:1235   */\n      tag_299\n      tag_241\n      jump\t// in\n    tag_299:\n        /* \"#utility.yul\":1118:1237   */\n    tag_298:\n        /* \"#utility.yul\":1276:1277   */\n      0x00\n        /* \"#utility.yul\":1301:1354   */\n      tag_300\n        /* \"#utility.yul\":1346:1353   */\n      dup5\n        /* \"#utility.yul\":1337:1343   */\n      dup3\n        /* \"#utility.yul\":1326:1335   */\n      dup6\n        /* \"#utility.yul\":1322:1344   */\n      add\n        /* \"#utility.yul\":1301:1354   */\n      tag_244\n      jump\t// in\n    tag_300:\n        /* \"#utility.yul\":1291:1354   */\n      swap2\n      pop\n        /* \"#utility.yul\":1247:1364   */\n      pop\n        /* \"#utility.yul\":1042:1371   */\n      swap3\n      swap2\n      pop\n      pop\n      jump\t// out\n        /* \"#utility.yul\":1377:1466   */\n    tag_245:\n        /* \"#utility.yul\":1413:1420   */\n      0x00\n        /* \"#utility.yul\":1453:1459   */\n      0xffff\n        /* \"#utility.yul\":1446:1451   */\n      dup3\n        /* \"#utility.yul\":1442:1460   */\n      and\n        /* \"#utility.yul\":1431:1460   */\n      swap1\n      pop\n        /* \"#utility.yul\":1377:1466   */\n      swap2\n      swap1\n      pop\n      jump\t// out\n        /* \"#utility.yul\":1472:1592   */\n    tag_246:\n        /* \"#utility.yul\":1544:1567   */\n      tag_303\n        /* \"#utility.yul\":1561:1566   */\n      dup2\n        /* \"#utility.yul\":1544:1567   */\n      tag_245\n      jump\t// in\n    tag_303:\n        /* \"#utility.yul\":1537:1542   */\n      dup2\n        /* \"#utility.yul\":1534:1568   */\n      eq\n        /* \"#utility.yul\":1524:1586   */\n      tag_304\n      jumpi\n        /* \"#utility.yul\":1582:1583   */\n      0x00\n        /* \"#utility.yul\":1579:1580   */\n      dup1\n        /* \"#utility.yul\":1572:1584   */\n      revert\n        /* \"#utility.yul\":1524:1586   */\n    tag_304:\n        /* \"#utility.yul\":1472:1592   */\n      pop\n      jump\t// out\n        /* \"#utility.yul\":1598:1735   */\n    tag_247:\n        /* \"#utility.yul\":1643:1648   */\n      0x00\n        /* \"#utility.yul\":1681:1687   */\n      dup2\n        /* \"#utility.yul\":1668:1688   */\n      calldataload\n        /* \"#utility.yul\":1659:1688   */\n      swap1\n      pop\n        /* \"#utility.yul\":1697:1729   */\n      tag_306\n        /* \"#utility.yul\":1723:1728   */\n      dup2\n        /* \"#utility.yul\":1697:1729   */\n      tag_246\n      jump\t// in\n    tag_306:\n        /* \"#utility.yul\":1598:1735   */\n      swap3\n      swap2\n      pop\n      pop\n      jump\t// out\n        /* \"#utility.yul\":1741:2504   */\n    tag_30:\n        /* \"#utility.yul\":1826:1832   */\n      0x00\n        /* \"#utility.yul\":1834:1840   */\n      dup1\n        /* \"#utility.yul\":1842:1848   */\n      0x00\n        /* \"#utility.yul\":1850:1856   */\n      dup1\n        /* \"#utility.yul\":1899:1902   */\n      0x80\n        /* \"#utility.yul\":1887:1896   */\n      dup6\n        /* \"#utility.yul\":1878:1885   */\n      dup8\n        /* \"#utility.yul\":1874:1897   */\n      sub\n        /* \"#utility.yul\":1870:1903   */\n      slt\n        /* \"#utility.yul\":1867:1987   */\n      iszero\n      tag_308\n      jumpi\n        /* \"#utility.yul\":1906:1985   */\n      tag_309\n      tag_241\n      jump\t// in\n    tag_309:\n        /* \"#utility.yul\":1867:1987   */\n    tag_308:\n        /* \"#utility.yul\":2026:2027   */\n      0x00\n        /* \"#utility.yul\":2051:2104   */\n      tag_310\n        /* \"#utility.yul\":2096:2103   */\n      dup8\n        /* \"#utility.yul\":2087:2093   */\n      dup3\n        /* \"#utility.yul\":2076:2085   */\n      dup9\n        /* \"#utility.yul\":2072:2094   */\n      add\n        /* \"#utility.yul\":2051:2104   */\n      tag_244\n      jump\t// in\n    tag_310:\n        /* \"#utility.yul\":2041:2104   */\n      swap5\n      pop\n        /* \"#utility.yul\":1997:2114   */\n      pop\n        /* \"#utility.yul\":2153:2155   */\n      0x20\n        /* \"#utility.yul\":2179:2232   */\n      tag_311\n        /* \"#utility.yul\":2224:2231   */\n      dup8\n        /* \"#utility.yul\":2215:2221   */\n      dup3\n        /* \"#utility.yul\":2204:2213   */\n      dup9\n        /* \"#utility.yul\":2200:2222   */\n      add\n        /* \"#utility.yul\":2179:2232   */\n      tag_244\n      jump\t// in\n    tag_311:\n        /* \"#utility.yul\":2169:2232   */\n      swap4\n      pop\n        /* \"#utility.yul\":2124:2242   */\n      pop\n        /* \"#utility.yul\":2281:2283   */\n      0x40\n        /* \"#utility.yul\":2307:2360   */\n      tag_312\n        /* \"#utility.yul\":2352:2359   */\n      dup8\n        /* \"#utility.yul\":2343:2349   */\n      dup3\n        /* \"#utility.yul\":2332:2341   */\n      dup9\n        /* \"#utility.yul\":2328:2350   */\n      add\n        /* \"#utility.yul\":2307:2360   */\n      tag_244\n      jump\t// in\n    tag_312:\n        /* \"#utility.yul\":2297:2360   */\n      swap3\n      pop\n        /* \"#utility.yul\":2252:2370   */\n      pop\n        /* \"#utility.yul\":2409:2411   */\n      0x60\n        /* \"#utility.yul\":2435:2487   */\n      tag_313\n        /* \"#utility.yul\":2479:2486   */\n      dup8\n        /* \"#utility.yul\":2470:2476   */\n      dup3\n        /* \"#utility.yul\":2459:2468   */\n      dup9\n        /* \"#utility.yul\":2455:2477   */\n      add\n        /* \"#utility.yul\":2435:2487   */\n      tag_247\n      jump\t// in\n    tag_313:\n        /* \"#utility.yul\":2425:2487   */\n      swap2\n      pop\n        /* \"#utility.yul\":2380:2497   */\n      pop\n        /* \"#utility.yul\":1741:2504   */\n      swap3\n      swap6\n      swap2\n      swap5\n      pop\n      swap3\n      pop\n      jump\t// out\n        /* \"#utility.yul\":2510:2600   */\n    tag_248:\n        /* \"#utility.yul\":2544:2551   */\n      0x00\n        /* \"#utility.yul\":2587:2592   */\n      dup2\n        /* \"#utility.yul\":2580:2593   */\n      iszero\n        /* \"#utility.yul\":2573:2594   */\n      iszero\n        /* \"#utility.yul\":2562:2594   */\n      swap1\n      pop\n        /* \"#utility.yul\":2510:2600   */\n      swap2\n      swap1\n      pop\n      jump\t// out\n        /* \"#utility.yul\":2606:2722   */\n    tag_249:\n        /* \"#utility.yul\":2676:2697   */\n      tag_316\n        /* \"#utility.yul\":2691:2696   */\n      dup2\n        /* \"#utility.yul\":2676:2697   */\n      tag_248\n      jump\t// in\n    tag_316:\n        /* \"#utility.yul\":2669:2674   */\n      dup2\n        /* \"#utility.yul\":2666:2698   */\n      eq\n        /* \"#utility.yul\":2656:2716   */\n      tag_317\n      jumpi\n        /* \"#utility.yul\":2712:2713   */\n      0x00\n        /* \"#utility.yul\":2709:2710   */\n      dup1\n        /* \"#utility.yul\":2702:2714   */\n      revert\n        /* \"#utility.yul\":2656:2716   */\n    tag_317:\n        /* \"#utility.yul\":2606:2722   */\n      pop\n      jump\t// out\n        /* \"#utility.yul\":2728:2861   */\n    tag_250:\n        /* \"#utility.yul\":2771:2776   */\n      0x00\n        /* \"#utility.yul\":2809:2815   */\n      dup2\n        /* \"#utility.yul\":2796:2816   */\n      calldataload\n        /* \"#utility.yul\":2787:2816   */\n      swap1\n      pop\n        /* \"#utility.yul\":2825:2855   */\n      tag_319\n        /* \"#utility.yul\":2849:2854   */\n      dup2\n        /* \"#utility.yul\":2825:2855   */\n      tag_249\n      jump\t// in\n    tag_319:\n        /* \"#utility.yul\":2728:2861   */\n      swap3\n      swap2\n      pop\n      pop\n      jump\t// out\n        /* \"#utility.yul\":2867:3335   */\n    tag_34:\n        /* \"#utility.yul\":2932:2938   */\n      0x00\n        /* \"#utility.yul\":2940:2946   */\n      dup1\n        /* \"#utility.yul\":2989:2991   */\n      0x40\n        /* \"#utility.yul\":2977:2986   */\n      dup4\n        /* \"#utility.yul\":2968:2975   */\n      dup6\n        /* \"#utility.yul\":2964:2987   */\n      sub\n        /* \"#utility.yul\":2960:2992   */\n      slt\n        /* \"#utility.yul\":2957:3076   */\n      iszero\n      tag_321\n      jumpi\n        /* \"#utility.yul\":2995:3074   */\n      tag_322\n      tag_241\n      jump\t// in\n    tag_322:\n        /* \"#utility.yul\":2957:3076   */\n    tag_321:\n        /* \"#utility.yul\":3115:3116   */\n      0x00\n        /* \"#utility.yul\":3140:3193   */\n      tag_323\n        /* \"#utility.yul\":3185:3192   */\n      dup6\n        /* \"#utility.yul\":3176:3182   */\n      dup3\n        /* \"#utility.yul\":3165:3174   */\n      dup7\n        /* \"#utility.yul\":3161:3183   */\n      add\n        /* \"#utility.yul\":3140:3193   */\n      tag_244\n      jump\t// in\n    tag_323:\n        /* \"#utility.yul\":3130:3193   */\n      swap3\n      pop\n        /* \"#utility.yul\":3086:3203   */\n      pop\n        /* \"#utility.yul\":3242:3244   */\n      0x20\n        /* \"#utility.yul\":3268:3318   */\n      tag_324\n        /* \"#utility.yul\":3310:3317   */\n      dup6\n        /* \"#utility.yul\":3301:3307   */\n      dup3\n        /* \"#utility.yul\":3290:3299   */\n      dup7\n        /* \"#utility.yul\":3286:3308   */\n      add\n        /* \"#utility.yul\":3268:3318   */\n      tag_250\n      jump\t// in\n    tag_324:\n        /* \"#utility.yul\":3258:3318   */\n      swap2\n      pop\n        /* \"#utility.yul\":3213:3328   */\n      pop\n        /* \"#utility.yul\":2867:3335   */\n      swap3\n      pop\n      swap3\n      swap1\n      pop\n      jump\t// out\n        /* \"#utility.yul\":3341:3815   */\n    tag_48:\n        /* \"#utility.yul\":3409:3415   */\n      0x00\n        /* \"#utility.yul\":3417:3423   */\n      dup1\n        /* \"#utility.yul\":3466:3468   */\n      0x40\n        /* \"#utility.yul\":3454:3463   */\n      dup4\n        /* \"#utility.yul\":3445:3452   */\n      dup6\n        /* \"#utility.yul\":3441:3464   */\n      sub\n        /* \"#utility.yul\":3437:3469   */\n      slt\n        /* \"#utility.yul\":3434:3553   */\n      iszero\n      tag_326\n      jumpi\n        /* \"#utility.yul\":3472:3551   */\n      tag_327\n      tag_241\n      jump\t// in\n    tag_327:\n        /* \"#utility.yul\":3434:3553   */\n    tag_326:\n        /* \"#utility.yul\":3592:3593   */\n      0x00\n        /* \"#utility.yul\":3617:3670   */\n      tag_328\n        /* \"#utility.yul\":3662:3669   */\n      dup6\n        /* \"#utility.yul\":3653:3659   */\n      dup3\n        /* \"#utility.yul\":3642:3651   */\n      dup7\n        /* \"#utility.yul\":3638:3660   */\n      add\n        /* \"#utility.yul\":3617:3670   */\n      tag_244\n      jump\t// in\n    tag_328:\n        /* \"#utility.yul\":3607:3670   */\n      swap3\n      pop\n        /* \"#utility.yul\":3563:3680   */\n      pop\n        /* \"#utility.yul\":3719:3721   */\n      0x20\n        /* \"#utility.yul\":3745:3798   */\n      tag_329\n        /* \"#utility.yul\":3790:3797   */\n      dup6\n        /* \"#utility.yul\":3781:3787   */\n      dup3\n        /* \"#utility.yul\":3770:3779   */\n      dup7\n        /* \"#utility.yul\":3766:3788   */\n      add\n        /* \"#utility.yul\":3745:3798   */\n      tag_244\n      jump\t// in\n    tag_329:\n        /* \"#utility.yul\":3735:3798   */\n      swap2\n      pop\n        /* \"#utility.yul\":3690:3808   */\n      pop\n        /* \"#utility.yul\":3341:3815   */\n      swap3\n      pop\n      swap3\n      swap1\n      pop\n      jump\t// out\n        /* \"#utility.yul\":3821:3947   */\n    tag_251:\n        /* \"#utility.yul\":3858:3865   */\n      0x00\n        /* \"#utility.yul\":3898:3940   */\n      0xffffffffffffffffffffffffffffffffffffffff\n        /* \"#utility.yul\":3891:3896   */\n      dup3\n        /* \"#utility.yul\":3887:3941   */\n      and\n        /* \"#utility.yul\":3876:3941   */\n      swap1\n      pop\n        /* \"#utility.yul\":3821:3947   */\n      swap2\n      swap1\n      pop\n      jump\t// out\n        /* \"#utility.yul\":3953:4049   */\n    tag_252:\n        /* \"#utility.yul\":3990:3997   */\n      0x00\n        /* \"#utility.yul\":4019:4043   */\n      tag_332\n        /* \"#utility.yul\":4037:4042   */\n      dup3\n        /* \"#utility.yul\":4019:4043   */\n      tag_251\n      jump\t// in\n    tag_332:\n        /* \"#utility.yul\":4008:4043   */\n      swap1\n      pop\n        /* \"#utility.yul\":3953:4049   */\n      swap2\n      swap1\n      pop\n      jump\t// out\n        /* \"#utility.yul\":4055:4173   */\n    tag_253:\n        /* \"#utility.yul\":4142:4166   */\n      tag_334\n        /* \"#utility.yul\":4160:4165   */\n      dup2\n        /* \"#utility.yul\":4142:4166   */\n      tag_252\n      jump\t// in\n    tag_334:\n        /* \"#utility.yul\":4137:4140   */\n      dup3\n        /* \"#utility.yul\":4130:4167   */\n      mstore\n        /* \"#utility.yul\":4055:4173   */\n      pop\n      pop\n      jump\t// out\n        /* \"#utility.yul\":4179:4294   */\n    tag_254:\n        /* \"#utility.yul\":4264:4287   */\n      tag_336\n        /* \"#utility.yul\":4281:4286   */\n      dup2\n        /* \"#utility.yul\":4264:4287   */\n      tag_245\n      jump\t// in\n    tag_336:\n        /* \"#utility.yul\":4259:4262   */\n      dup3\n        /* \"#utility.yul\":4252:4288   */\n      mstore\n        /* \"#utility.yul\":4179:4294   */\n      pop\n      pop\n      jump\t// out\n        /* \"#utility.yul\":4300:4960   */\n    tag_51:\n        /* \"#utility.yul\":4503:4507   */\n      0x00\n        /* \"#utility.yul\":4541:4544   */\n      0xa0\n        /* \"#utility.yul\":4530:4539   */\n      dup3\n        /* \"#utility.yul\":4526:4545   */\n      add\n        /* \"#utility.yul\":4518:4545   */\n      swap1\n      pop\n        /* \"#utility.yul\":4555:4626   */\n      tag_338\n        /* \"#utility.yul\":4623:4624   */\n      0x00\n        /* \"#utility.yul\":4612:4621   */\n      dup4\n        /* \"#utility.yul\":4608:4625   */\n      add\n        /* \"#utility.yul\":4599:4605   */\n      dup9\n        /* \"#utility.yul\":4555:4626   */\n      tag_239\n      jump\t// in\n    tag_338:\n        /* \"#utility.yul\":4636:4708   */\n      tag_339\n        /* \"#utility.yul\":4704:4706   */\n      0x20\n        /* \"#utility.yul\":4693:4702   */\n      dup4\n        /* \"#utility.yul\":4689:4707   */\n      add\n        /* \"#utility.yul\":4680:4686   */\n      dup8\n        /* \"#utility.yul\":4636:4708   */\n      tag_239\n      jump\t// in\n    tag_339:\n        /* \"#utility.yul\":4718:4790   */\n      tag_340\n        /* \"#utility.yul\":4786:4788   */\n      0x40\n        /* \"#utility.yul\":4775:4784   */\n      dup4\n        /* \"#utility.yul\":4771:4789   */\n      add\n        /* \"#utility.yul\":4762:4768   */\n      dup7\n        /* \"#utility.yul\":4718:4790   */\n      tag_253\n      jump\t// in\n    tag_340:\n        /* \"#utility.yul\":4800:4872   */\n      tag_341\n        /* \"#utility.yul\":4868:4870   */\n      0x60\n        /* \"#utility.yul\":4857:4866   */\n      dup4\n        /* \"#utility.yul\":4853:4871   */\n      add\n        /* \"#utility.yul\":4844:4850   */\n      dup6\n        /* \"#utility.yul\":4800:4872   */\n      tag_239\n      jump\t// in\n    tag_341:\n        /* \"#utility.yul\":4882:4953   */\n      tag_342\n        /* \"#utility.yul\":4948:4951   */\n      0x80\n        /* \"#utility.yul\":4937:4946   */\n      dup4\n        /* \"#utility.yul\":4933:4952   */\n      add\n        /* \"#utility.yul\":4924:4930   */\n      dup5\n        /* \"#utility.yul\":4882:4953   */\n      tag_254\n      jump\t// in\n    tag_342:\n        /* \"#utility.yul\":4300:4960   */\n      swap7\n      swap6\n      pop\n      pop\n      pop\n      pop\n      pop\n      pop\n      jump\t// out\n        /* \"#utility.yul\":4966:5088   */\n    tag_255:\n        /* \"#utility.yul\":5039:5063   */\n      tag_344\n        /* \"#utility.yul\":5057:5062   */\n      dup2\n        /* \"#utility.yul\":5039:5063   */\n      tag_252\n      jump\t// in\n    tag_344:\n        /* \"#utility.yul\":5032:5037   */\n      dup2\n        /* \"#utility.yul\":5029:5064   */\n      eq\n        /* \"#utility.yul\":5019:5082   */\n      tag_345\n      jumpi\n        /* \"#utility.yul\":5078:5079   */\n      0x00\n        /* \"#utility.yul\":5075:5076   */\n      dup1\n        /* \"#utility.yul\":5068:5080   */\n      revert\n        /* \"#utility.yul\":5019:5082   */\n    tag_345:\n        /* \"#utility.yul\":4966:5088   */\n      pop\n      jump\t// out\n        /* \"#utility.yul\":5094:5233   */\n    tag_256:\n        /* \"#utility.yul\":5140:5145   */\n      0x00\n        /* \"#utility.yul\":5178:5184   */\n      dup2\n        /* \"#utility.yul\":5165:5185   */\n      calldataload\n        /* \"#utility.yul\":5156:5185   */\n      swap1\n      pop\n        /* \"#utility.yul\":5194:5227   */\n      tag_347\n        /* \"#utility.yul\":5221:5226   */\n      dup2\n        /* \"#utility.yul\":5194:5227   */\n      tag_255\n      jump\t// in\n    tag_347:\n        /* \"#utility.yul\":5094:5233   */\n      swap3\n      swap2\n      pop\n      pop\n      jump\t// out\n        /* \"#utility.yul\":5239:6722   */\n    tag_54:\n        /* \"#utility.yul\":5364:5370   */\n      0x00\n        /* \"#utility.yul\":5372:5378   */\n      dup1\n        /* \"#utility.yul\":5380:5386   */\n      0x00\n        /* \"#utility.yul\":5388:5394   */\n      dup1\n        /* \"#utility.yul\":5396:5402   */\n      0x00\n        /* \"#utility.yul\":5404:5410   */\n      dup1\n        /* \"#utility.yul\":5412:5418   */\n      0x00\n        /* \"#utility.yul\":5420:5426   */\n      dup1\n        /* \"#utility.yul\":5428:5434   */\n      0x00\n        /* \"#utility.yul\":5477:5480   */\n      0x0120\n        /* \"#utility.yul\":5465:5474   */\n      dup11\n        /* \"#utility.yul\":5456:5463   */\n      dup13\n        /* \"#utility.yul\":5452:5475   */\n      sub\n        /* \"#utility.yul\":5448:5481   */\n      slt\n        /* \"#utility.yul\":5445:5565   */\n      iszero\n      tag_349\n      jumpi\n        /* \"#utility.yul\":5484:5563   */\n      tag_350\n      tag_241\n      jump\t// in\n    tag_350:\n        /* \"#utility.yul\":5445:5565   */\n    tag_349:\n        /* \"#utility.yul\":5604:5605   */\n      0x00\n        /* \"#utility.yul\":5629:5682   */\n      tag_351\n        /* \"#utility.yul\":5674:5681   */\n      dup13\n        /* \"#utility.yul\":5665:5671   */\n      dup3\n        /* \"#utility.yul\":5654:5663   */\n      dup14\n        /* \"#utility.yul\":5650:5672   */\n      add\n        /* \"#utility.yul\":5629:5682   */\n      tag_256\n      jump\t// in\n    tag_351:\n        /* \"#utility.yul\":5619:5682   */\n      swap10\n      pop\n        /* \"#utility.yul\":5575:5692   */\n      pop\n        /* \"#utility.yul\":5731:5733   */\n      0x20\n        /* \"#utility.yul\":5757:5810   */\n      tag_352\n        /* \"#utility.yul\":5802:5809   */\n      dup13\n        /* \"#utility.yul\":5793:5799   */\n      dup3\n        /* \"#utility.yul\":5782:5791   */\n      dup14\n        /* \"#utility.yul\":5778:5800   */\n      add\n        /* \"#utility.yul\":5757:5810   */\n      tag_256\n      jump\t// in\n    tag_352:\n        /* \"#utility.yul\":5747:5810   */\n      swap9\n      pop\n        /* \"#utility.yul\":5702:5820   */\n      pop\n        /* \"#utility.yul\":5859:5861   */\n      0x40\n        /* \"#utility.yul\":5885:5938   */\n      tag_353\n        /* \"#utility.yul\":5930:5937   */\n      dup13\n        /* \"#utility.yul\":5921:5927   */\n      dup3\n        /* \"#utility.yul\":5910:5919   */\n      dup14\n        /* \"#utility.yul\":5906:5928   */\n      add\n        /* \"#utility.yul\":5885:5938   */\n      tag_256\n      jump\t// in\n    tag_353:\n        /* \"#utility.yul\":5875:5938   */\n      swap8\n      pop\n        /* \"#utility.yul\":5830:5948   */\n      pop\n        /* \"#utility.yul\":5987:5989   */\n      0x60\n        /* \"#utility.yul\":6013:6066   */\n      tag_354\n        /* \"#utility.yul\":6058:6065   */\n      dup13\n        /* \"#utility.yul\":6049:6055   */\n      dup3\n        /* \"#utility.yul\":6038:6047   */\n      dup14\n        /* \"#utility.yul\":6034:6056   */\n      add\n        /* \"#utility.yul\":6013:6066   */\n      tag_256\n      jump\t// in\n    tag_354:\n        /* \"#utility.yul\":6003:6066   */\n      swap7\n      pop\n        /* \"#utility.yul\":5958:6076   */\n      pop\n        /* \"#utility.yul\":6115:6118   */\n      0x80\n        /* \"#utility.yul\":6142:6195   */\n      tag_355\n        /* \"#utility.yul\":6187:6194   */\n      dup13\n        /* \"#utility.yul\":6178:6184   */\n      dup3\n        /* \"#utility.yul\":6167:6176   */\n      dup14\n        /* \"#utility.yul\":6163:6185   */\n      add\n        /* \"#utility.yul\":6142:6195   */\n      tag_244\n      jump\t// in\n    tag_355:\n        /* \"#utility.yul\":6132:6195   */\n      swap6\n      pop\n        /* \"#utility.yul\":6086:6205   */\n      pop\n        /* \"#utility.yul\":6244:6247   */\n      0xa0\n        /* \"#utility.yul\":6271:6324   */\n      tag_356\n        /* \"#utility.yul\":6316:6323   */\n      dup13\n        /* \"#utility.yul\":6307:6313   */\n      dup3\n        /* \"#utility.yul\":6296:6305   */\n      dup14\n        /* \"#utility.yul\":6292:6314   */\n      add\n        /* \"#utility.yul\":6271:6324   */\n      tag_244\n      jump\t// in\n    tag_356:\n        /* \"#utility.yul\":6261:6324   */\n      swap5\n      pop\n        /* \"#utility.yul\":6215:6334   */\n      pop\n        /* \"#utility.yul\":6373:6376   */\n      0xc0\n        /* \"#utility.yul\":6400:6453   */\n      tag_357\n        /* \"#utility.yul\":6445:6452   */\n      dup13\n        /* \"#utility.yul\":6436:6442   */\n      dup3\n        /* \"#utility.yul\":6425:6434   */\n      dup14\n        /* \"#utility.yul\":6421:6443   */\n      add\n        /* \"#utility.yul\":6400:6453   */\n      tag_244\n      jump\t// in\n    tag_357:\n        /* \"#utility.yul\":6390:6453   */\n      swap4\n      pop\n        /* \"#utility.yul\":6344:6463   */\n      pop\n        /* \"#utility.yul\":6502:6505   */\n      0xe0\n        /* \"#utility.yul\":6529:6579   */\n      tag_358\n        /* \"#utility.yul\":6571:6578   */\n      dup13\n        /* \"#utility.yul\":6562:6568   */\n      dup3\n        /* \"#utility.yul\":6551:6560   */\n      dup14\n        /* \"#utility.yul\":6547:6569   */\n      add\n        /* \"#utility.yul\":6529:6579   */\n      tag_250\n      jump\t// in\n    tag_358:\n        /* \"#utility.yul\":6519:6579   */\n      swap3\n      pop\n        /* \"#utility.yul\":6473:6589   */\n      pop\n        /* \"#utility.yul\":6628:6631   */\n      0x0100\n        /* \"#utility.yul\":6655:6705   */\n      tag_359\n        /* \"#utility.yul\":6697:6704   */\n      dup13\n        /* \"#utility.yul\":6688:6694   */\n      dup3\n        /* \"#utility.yul\":6677:6686   */\n      dup14\n        /* \"#utility.yul\":6673:6695   */\n      add\n        /* \"#utility.yul\":6655:6705   */\n      tag_250\n      jump\t// in\n    tag_359:\n        /* \"#utility.yul\":6645:6705   */\n      swap2\n      pop\n        /* \"#utility.yul\":6599:6715   */\n      pop\n        /* \"#utility.yul\":5239:6722   */\n      swap3\n      swap6\n      swap9\n      pop\n      swap3\n      swap6\n      swap9\n      pop\n      swap3\n      swap6\n      swap9\n      jump\t// out\n        /* \"#utility.yul\":6728:7202   */\n    tag_58:\n        /* \"#utility.yul\":6796:6802   */\n      0x00\n        /* \"#utility.yul\":6804:6810   */\n      dup1\n        /* \"#utility.yul\":6853:6855   */\n      0x40\n        /* \"#utility.yul\":6841:6850   */\n      dup4\n        /* \"#utility.yul\":6832:6839   */\n      dup6\n        /* \"#utility.yul\":6828:6851   */\n      sub\n        /* \"#utility.yul\":6824:6856   */\n      slt\n        /* \"#utility.yul\":6821:6940   */\n      iszero\n      tag_361\n      jumpi\n        /* \"#utility.yul\":6859:6938   */\n      tag_362\n      tag_241\n      jump\t// in\n    tag_362:\n        /* \"#utility.yul\":6821:6940   */\n    tag_361:\n        /* \"#utility.yul\":6979:6980   */\n      0x00\n        /* \"#utility.yul\":7004:7057   */\n      tag_363\n        /* \"#utility.yul\":7049:7056   */\n      dup6\n        /* \"#utility.yul\":7040:7046   */\n      dup3\n        /* \"#utility.yul\":7029:7038   */\n      dup7\n        /* \"#utility.yul\":7025:7047   */\n      add\n        /* \"#utility.yul\":7004:7057   */\n      tag_244\n      jump\t// in\n    tag_363:\n        /* \"#utility.yul\":6994:7057   */\n      swap3\n      pop\n        /* \"#utility.yul\":6950:7067   */\n      pop\n        /* \"#utility.yul\":7106:7108   */\n      0x20\n        /* \"#utility.yul\":7132:7185   */\n      tag_364\n        /* \"#utility.yul\":7177:7184   */\n      dup6\n        /* \"#utility.yul\":7168:7174   */\n      dup3\n        /* \"#utility.yul\":7157:7166   */\n      dup7\n        /* \"#utility.yul\":7153:7175   */\n      add\n        /* \"#utility.yul\":7132:7185   */\n      tag_256\n      jump\t// in\n    tag_364:\n        /* \"#utility.yul\":7122:7185   */\n      swap2\n      pop\n        /* \"#utility.yul\":7077:7195   */\n      pop\n        /* \"#utility.yul\":6728:7202   */\n      swap3\n      pop\n      swap3\n      swap1\n      pop\n      jump\t// out\n        /* \"#utility.yul\":7208:7317   */\n    tag_257:\n        /* \"#utility.yul\":7289:7310   */\n      tag_366\n        /* \"#utility.yul\":7304:7309   */\n      dup2\n        /* \"#utility.yul\":7289:7310   */\n      tag_248\n      jump\t// in\n    tag_366:\n        /* \"#utility.yul\":7284:7287   */\n      dup3\n        /* \"#utility.yul\":7277:7311   */\n      mstore\n        /* \"#utility.yul\":7208:7317   */\n      pop\n      pop\n      jump\t// out\n        /* \"#utility.yul\":7323:7533   */\n    tag_64:\n        /* \"#utility.yul\":7410:7414   */\n      0x00\n        /* \"#utility.yul\":7448:7450   */\n      0x20\n        /* \"#utility.yul\":7437:7446   */\n      dup3\n        /* \"#utility.yul\":7433:7451   */\n      add\n        /* \"#utility.yul\":7425:7451   */\n      swap1\n      pop\n        /* \"#utility.yul\":7461:7526   */\n      tag_368\n        /* \"#utility.yul\":7523:7524   */\n      0x00\n        /* \"#utility.yul\":7512:7521   */\n      dup4\n        /* \"#utility.yul\":7508:7525   */\n      add\n        /* \"#utility.yul\":7499:7505   */\n      dup5\n        /* \"#utility.yul\":7461:7526   */\n      tag_257\n      jump\t// in\n    tag_368:\n        /* \"#utility.yul\":7323:7533   */\n      swap3\n      swap2\n      pop\n      pop\n      jump\t// out\n        /* \"#utility.yul\":7539:8960   */\n    tag_72:\n        /* \"#utility.yul\":7930:7934   */\n      0x00\n        /* \"#utility.yul\":7968:7971   */\n      0x0180\n        /* \"#utility.yul\":7957:7966   */\n      dup3\n        /* \"#utility.yul\":7953:7972   */\n      add\n        /* \"#utility.yul\":7945:7972   */\n      swap1\n      pop\n        /* \"#utility.yul\":7982:8053   */\n      tag_370\n        /* \"#utility.yul\":8050:8051   */\n      0x00\n        /* \"#utility.yul\":8039:8048   */\n      dup4\n        /* \"#utility.yul\":8035:8052   */\n      add\n        /* \"#utility.yul\":8026:8032   */\n      dup16\n        /* \"#utility.yul\":7982:8053   */\n      tag_253\n      jump\t// in\n    tag_370:\n        /* \"#utility.yul\":8063:8135   */\n      tag_371\n        /* \"#utility.yul\":8131:8133   */\n      0x20\n        /* \"#utility.yul\":8120:8129   */\n      dup4\n        /* \"#utility.yul\":8116:8134   */\n      add\n        /* \"#utility.yul\":8107:8113   */\n      dup15\n        /* \"#utility.yul\":8063:8135   */\n      tag_253\n      jump\t// in\n    tag_371:\n        /* \"#utility.yul\":8145:8217   */\n      tag_372\n        /* \"#utility.yul\":8213:8215   */\n      0x40\n        /* \"#utility.yul\":8202:8211   */\n      dup4\n        /* \"#utility.yul\":8198:8216   */\n      add\n        /* \"#utility.yul\":8189:8195   */\n      dup14\n        /* \"#utility.yul\":8145:8217   */\n      tag_253\n      jump\t// in\n    tag_372:\n        /* \"#utility.yul\":8227:8299   */\n      tag_373\n        /* \"#utility.yul\":8295:8297   */\n      0x60\n        /* \"#utility.yul\":8284:8293   */\n      dup4\n        /* \"#utility.yul\":8280:8298   */\n      add\n        /* \"#utility.yul\":8271:8277   */\n      dup13\n        /* \"#utility.yul\":8227:8299   */\n      tag_253\n      jump\t// in\n    tag_373:\n        /* \"#utility.yul\":8309:8382   */\n      tag_374\n        /* \"#utility.yul\":8377:8380   */\n      0x80\n        /* \"#utility.yul\":8366:8375   */\n      dup4\n        /* \"#utility.yul\":8362:8381   */\n      add\n        /* \"#utility.yul\":8353:8359   */\n      dup12\n        /* \"#utility.yul\":8309:8382   */\n      tag_253\n      jump\t// in\n    tag_374:\n        /* \"#utility.yul\":8392:8465   */\n      tag_375\n        /* \"#utility.yul\":8460:8463   */\n      0xa0\n        /* \"#utility.yul\":8449:8458   */\n      dup4\n        /* \"#utility.yul\":8445:8464   */\n      add\n        /* \"#utility.yul\":8436:8442   */\n      dup11\n        /* \"#utility.yul\":8392:8465   */\n      tag_239\n      jump\t// in\n    tag_375:\n        /* \"#utility.yul\":8475:8548   */\n      tag_376\n        /* \"#utility.yul\":8543:8546   */\n      0xc0\n        /* \"#utility.yul\":8532:8541   */\n      dup4\n        /* \"#utility.yul\":8528:8547   */\n      add\n        /* \"#utility.yul\":8519:8525   */\n      dup10\n        /* \"#utility.yul\":8475:8548   */\n      tag_239\n      jump\t// in\n    tag_376:\n        /* \"#utility.yul\":8558:8631   */\n      tag_377\n        /* \"#utility.yul\":8626:8629   */\n      0xe0\n        /* \"#utility.yul\":8615:8624   */\n      dup4\n        /* \"#utility.yul\":8611:8630   */\n      add\n        /* \"#utility.yul\":8602:8608   */\n      dup9\n        /* \"#utility.yul\":8558:8631   */\n      tag_239\n      jump\t// in\n    tag_377:\n        /* \"#utility.yul\":8641:8714   */\n      tag_378\n        /* \"#utility.yul\":8709:8712   */\n      0x0100\n        /* \"#utility.yul\":8698:8707   */\n      dup4\n        /* \"#utility.yul\":8694:8713   */\n      add\n        /* \"#utility.yul\":8685:8691   */\n      dup8\n        /* \"#utility.yul\":8641:8714   */\n      tag_239\n      jump\t// in\n    tag_378:\n        /* \"#utility.yul\":8724:8797   */\n      tag_379\n        /* \"#utility.yul\":8792:8795   */\n      0x0120\n        /* \"#utility.yul\":8781:8790   */\n      dup4\n        /* \"#utility.yul\":8777:8796   */\n      add\n        /* \"#utility.yul\":8768:8774   */\n      dup7\n        /* \"#utility.yul\":8724:8797   */\n      tag_239\n      jump\t// in\n    tag_379:\n        /* \"#utility.yul\":8807:8875   */\n      tag_380\n        /* \"#utility.yul\":8870:8873   */\n      0x0140\n        /* \"#utility.yul\":8859:8868   */\n      dup4\n        /* \"#utility.yul\":8855:8874   */\n      add\n        /* \"#utility.yul\":8845:8852   */\n      dup6\n        /* \"#utility.yul\":8807:8875   */\n      tag_257\n      jump\t// in\n    tag_380:\n        /* \"#utility.yul\":8885:8953   */\n      tag_381\n        /* \"#utility.yul\":8948:8951   */\n      0x0160\n        /* \"#utility.yul\":8937:8946   */\n      dup4\n        /* \"#utility.yul\":8933:8952   */\n      add\n        /* \"#utility.yul\":8923:8930   */\n      dup5\n        /* \"#utility.yul\":8885:8953   */\n      tag_257\n      jump\t// in\n    tag_381:\n        /* \"#utility.yul\":7539:8960   */\n      swap14\n      swap13\n      pop\n      pop\n      pop\n      pop\n      pop\n      pop\n      pop\n      pop\n      pop\n      pop\n      pop\n      pop\n      pop\n      jump\t// out\n        /* \"#utility.yul\":8966:9579   */\n    tag_75:\n        /* \"#utility.yul\":9040:9046   */\n      0x00\n        /* \"#utility.yul\":9048:9054   */\n      dup1\n        /* \"#utility.yul\":9056:9062   */\n      0x00\n        /* \"#utility.yul\":9105:9107   */\n      0x60\n        /* \"#utility.yul\":9093:9102   */\n      dup5\n        /* \"#utility.yul\":9084:9091   */\n      dup7\n        /* \"#utility.yul\":9080:9103   */\n      sub\n        /* \"#utility.yul\":9076:9108   */\n      slt\n        /* \"#utility.yul\":9073:9192   */\n      iszero\n      tag_383\n      jumpi\n        /* \"#utility.yul\":9111:9190   */\n      tag_384\n      tag_241\n      jump\t// in\n    tag_384:\n        /* \"#utility.yul\":9073:9192   */\n    tag_383:\n        /* \"#utility.yul\":9231:9232   */\n      0x00\n        /* \"#utility.yul\":9256:9309   */\n      tag_385\n        /* \"#utility.yul\":9301:9308   */\n      dup7\n        /* \"#utility.yul\":9292:9298   */\n      dup3\n        /* \"#utility.yul\":9281:9290   */\n      dup8\n        /* \"#utility.yul\":9277:9299   */\n      add\n        /* \"#utility.yul\":9256:9309   */\n      tag_244\n      jump\t// in\n    tag_385:\n        /* \"#utility.yul\":9246:9309   */\n      swap4\n      pop\n        /* \"#utility.yul\":9202:9319   */\n      pop\n        /* \"#utility.yul\":9358:9360   */\n      0x20\n        /* \"#utility.yul\":9384:9437   */\n      tag_386\n        /* \"#utility.yul\":9429:9436   */\n      dup7\n        /* \"#utility.yul\":9420:9426   */\n      dup3\n        /* \"#utility.yul\":9409:9418   */\n      dup8\n        /* \"#utility.yul\":9405:9427   */\n      add\n        /* \"#utility.yul\":9384:9437   */\n      tag_256\n      jump\t// in\n    tag_386:\n        /* \"#utility.yul\":9374:9437   */\n      swap3\n      pop\n        /* \"#utility.yul\":9329:9447   */\n      pop\n        /* \"#utility.yul\":9486:9488   */\n      0x40\n        /* \"#utility.yul\":9512:9562   */\n      tag_387\n        /* \"#utility.yul\":9554:9561   */\n      dup7\n        /* \"#utility.yul\":9545:9551   */\n      dup3\n        /* \"#utility.yul\":9534:9543   */\n      dup8\n        /* \"#utility.yul\":9530:9552   */\n      add\n        /* \"#utility.yul\":9512:9562   */\n      tag_250\n      jump\t// in\n    tag_387:\n        /* \"#utility.yul\":9502:9562   */\n      swap2\n      pop\n        /* \"#utility.yul\":9457:9572   */\n      pop\n        /* \"#utility.yul\":8966:9579   */\n      swap3\n      pop\n      swap3\n      pop\n      swap3\n      jump\t// out\n        /* \"#utility.yul\":9585:9754   */\n    tag_258:\n        /* \"#utility.yul\":9669:9680   */\n      0x00\n        /* \"#utility.yul\":9703:9709   */\n      dup3\n        /* \"#utility.yul\":9698:9701   */\n      dup3\n        /* \"#utility.yul\":9691:9710   */\n      mstore\n        /* \"#utility.yul\":9743:9747   */\n      0x20\n        /* \"#utility.yul\":9738:9741   */\n      dup3\n        /* \"#utility.yul\":9734:9748   */\n      add\n        /* \"#utility.yul\":9719:9748   */\n      swap1\n      pop\n        /* \"#utility.yul\":9585:9754   */\n      swap3\n      swap2\n      pop\n      pop\n      jump\t// out\n        /* \"#utility.yul\":9760:9924   */\n    tag_259:\n        /* \"#utility.yul\":9900:9916   */\n      0x4c414e3a206e6f74206f776e6572000000000000000000000000000000000000\n        /* \"#utility.yul\":9896:9897   */\n      0x00\n        /* \"#utility.yul\":9888:9894   */\n      dup3\n        /* \"#utility.yul\":9884:9898   */\n      add\n        /* \"#utility.yul\":9877:9917   */\n      mstore\n        /* \"#utility.yul\":9760:9924   */\n      pop\n      jump\t// out\n        /* \"#utility.yul\":9930:10296   */\n    tag_260:\n        /* \"#utility.yul\":10072:10075   */\n      0x00\n        /* \"#utility.yul\":10093:10160   */\n      tag_391\n        /* \"#utility.yul\":10157:10159   */\n      0x0e\n        /* \"#utility.yul\":10152:10155   */\n      dup4\n        /* \"#utility.yul\":10093:10160   */\n      tag_258\n      jump\t// in\n    tag_391:\n        /* \"#utility.yul\":10086:10160   */\n      swap2\n      pop\n        /* \"#utility.yul\":10169:10262   */\n      tag_392\n        /* \"#utility.yul\":10258:10261   */\n      dup3\n        /* \"#utility.yul\":10169:10262   */\n      tag_259\n      jump\t// in\n    tag_392:\n        /* \"#utility.yul\":10287:10289   */\n      0x20\n        /* \"#utility.yul\":10282:10285   */\n      dup3\n        /* \"#utility.yul\":10278:10290   */\n      add\n        /* \"#utility.yul\":10271:10290   */\n      swap1\n      pop\n        /* \"#utility.yul\":9930:10296   */\n      swap2\n      swap1\n      pop\n      jump\t// out\n        /* \"#utility.yul\":10302:10721   */\n    tag_81:\n        /* \"#utility.yul\":10468:10472   */\n      0x00\n        /* \"#utility.yul\":10506:10508   */\n      0x20\n        /* \"#utility.yul\":10495:10504   */\n      dup3\n        /* \"#utility.yul\":10491:10509   */\n      add\n        /* \"#utility.yul\":10483:10509   */\n      swap1\n      pop\n        /* \"#utility.yul\":10555:10564   */\n      dup2\n        /* \"#utility.yul\":10549:10553   */\n      dup2\n        /* \"#utility.yul\":10545:10565   */\n      sub\n        /* \"#utility.yul\":10541:10542   */\n      0x00\n        /* \"#utility.yul\":10530:10539   */\n      dup4\n        /* \"#utility.yul\":10526:10543   */\n      add\n        /* \"#utility.yul\":10519:10566   */\n      mstore\n        /* \"#utility.yul\":10583:10714   */\n      tag_394\n        /* \"#utility.yul\":10709:10713   */\n      dup2\n        /* \"#utility.yul\":10583:10714   */\n      tag_260\n      jump\t// in\n    tag_394:\n        /* \"#utility.yul\":10575:10714   */\n      swap1\n      pop\n        /* \"#utility.yul\":10302:10721   */\n      swap2\n      swap1\n      pop\n      jump\t// out\n        /* \"#utility.yul\":10727:11169   */\n    tag_84:\n        /* \"#utility.yul\":10876:10880   */\n      0x00\n        /* \"#utility.yul\":10914:10916   */\n      0x60\n        /* \"#utility.yul\":10903:10912   */\n      dup3\n        /* \"#utility.yul\":10899:10917   */\n      add\n        /* \"#utility.yul\":10891:10917   */\n      swap1\n      pop\n        /* \"#utility.yul\":10927:10998   */\n      tag_396\n        /* \"#utility.yul\":10995:10996   */\n      0x00\n        /* \"#utility.yul\":10984:10993   */\n      dup4\n        /* \"#utility.yul\":10980:10997   */\n      add\n        /* \"#utility.yul\":10971:10977   */\n      dup7\n        /* \"#utility.yul\":10927:10998   */\n      tag_253\n      jump\t// in\n    tag_396:\n        /* \"#utility.yul\":11008:11080   */\n      tag_397\n        /* \"#utility.yul\":11076:11078   */\n      0x20\n        /* \"#utility.yul\":11065:11074   */\n      dup4\n        /* \"#utility.yul\":11061:11079   */\n      add\n        /* \"#utility.yul\":11052:11058   */\n      dup6\n        /* \"#utility.yul\":11008:11080   */\n      tag_253\n      jump\t// in\n    tag_397:\n        /* \"#utility.yul\":11090:11162   */\n      tag_398\n        /* \"#utility.yul\":11158:11160   */\n      0x40\n        /* \"#utility.yul\":11147:11156   */\n      dup4\n        /* \"#utility.yul\":11143:11161   */\n      add\n        /* \"#utility.yul\":11134:11140   */\n      dup5\n        /* \"#utility.yul\":11090:11162   */\n      tag_239\n      jump\t// in\n    tag_398:\n        /* \"#utility.yul\":10727:11169   */\n      swap5\n      swap4\n      pop\n      pop\n      pop\n      pop\n      jump\t// out\n        /* \"#utility.yul\":11175:11341   */\n    tag_261:\n        /* \"#utility.yul\":11315:11333   */\n      0x4c414e3a206e6f74207374617274656400000000000000000000000000000000\n        /* \"#utility.yul\":11311:11312   */\n      0x00\n        /* \"#utility.yul\":11303:11309   */\n      dup3\n        /* \"#utility.yul\":11299:11313   */\n      add\n        /* \"#utility.yul\":11292:11334   */\n      mstore\n        /* \"#utility.yul\":11175:11341   */\n      pop\n      jump\t// out\n        /* \"#utility.yul\":11347:11713   */\n    tag_262:\n        /* \"#utility.yul\":11489:11492   */\n      0x00\n        /* \"#utility.yul\":11510:11577   */\n      tag_401\n        /* \"#utility.yul\":11574:11576   */\n      0x10\n        /* \"#utility.yul\":11569:11572   */\n      dup4\n        /* \"#utility.yul\":11510:11577   */\n      tag_258\n      jump\t// in\n    tag_401:\n        /* \"#utility.yul\":11503:11577   */\n      swap2\n      pop\n        /* \"#utility.yul\":11586:11679   */\n      tag_402\n        /* \"#utility.yul\":11675:11678   */\n      dup3\n        /* \"#utility.yul\":11586:11679   */\n      tag_261\n      jump\t// in\n    tag_402:\n        /* \"#utility.yul\":11704:11706   */\n      0x20\n        /* \"#utility.yul\":11699:11702   */\n      dup3\n        /* \"#utility.yul\":11695:11707   */\n      add\n        /* \"#utility.yul\":11688:11707   */\n      swap1\n      pop\n        /* \"#utility.yul\":11347:11713   */\n      swap2\n      swap1\n      pop\n      jump\t// out\n        /* \"#utility.yul\":11719:12138   */\n    tag_96:\n        /* \"#utility.yul\":11885:11889   */\n      0x00\n        /* \"#utility.yul\":11923:11925   */\n      0x20\n        /* \"#utility.yul\":11912:11921   */\n      dup3\n        /* \"#utility.yul\":11908:11926   */\n      add\n        /* \"#utility.yul\":11900:11926   */\n      swap1\n      pop\n        /* \"#utility.yul\":11972:11981   */\n      dup2\n        /* \"#utility.yul\":11966:11970   */\n      dup2\n        /* \"#utility.yul\":11962:11982   */\n      sub\n        /* \"#utility.yul\":11958:11959   */\n      0x00\n        /* \"#utility.yul\":11947:11956   */\n      dup4\n        /* \"#utility.yul\":11943:11960   */\n      add\n        /* \"#utility.yul\":11936:11983   */\n      mstore\n        /* \"#utility.yul\":12000:12131   */\n      tag_404\n        /* \"#utility.yul\":12126:12130   */\n      dup2\n        /* \"#utility.yul\":12000:12131   */\n      tag_262\n      jump\t// in\n    tag_404:\n        /* \"#utility.yul\":11992:12131   */\n      swap1\n      pop\n        /* \"#utility.yul\":11719:12138   */\n      swap2\n      swap1\n      pop\n      jump\t// out\n        /* \"#utility.yul\":12144:12312   */\n    tag_263:\n        /* \"#utility.yul\":12284:12304   */\n      0x4c414e3a20616c726561647920656e6465640000000000000000000000000000\n        /* \"#utility.yul\":12280:12281   */\n      0x00\n        /* \"#utility.yul\":12272:12278   */\n      dup3\n        /* \"#utility.yul\":12268:12282   */\n      add\n        /* \"#utility.yul\":12261:12305   */\n      mstore\n        /* \"#utility.yul\":12144:12312   */\n      pop\n      jump\t// out\n        /* \"#utility.yul\":12318:12684   */\n    tag_264:\n        /* \"#utility.yul\":12460:12463   */\n      0x00\n        /* \"#utility.yul\":12481:12548   */\n      tag_407\n        /* \"#utility.yul\":12545:12547   */\n      0x12\n        /* \"#utility.yul\":12540:12543   */\n      dup4\n        /* \"#utility.yul\":12481:12548   */\n      tag_258\n      jump\t// in\n    tag_407:\n        /* \"#utility.yul\":12474:12548   */\n      swap2\n      pop\n        /* \"#utility.yul\":12557:12650   */\n      tag_408\n        /* \"#utility.yul\":12646:12649   */\n      dup3\n        /* \"#utility.yul\":12557:12650   */\n      tag_263\n      jump\t// in\n    tag_408:\n        /* \"#utility.yul\":12675:12677   */\n      0x20\n        /* \"#utility.yul\":12670:12673   */\n      dup3\n        /* \"#utility.yul\":12666:12678   */\n      add\n        /* \"#utility.yul\":12659:12678   */\n      swap1\n      pop\n        /* \"#utility.yul\":12318:12684   */\n      swap2\n      swap1\n      pop\n      jump\t// out\n        /* \"#utility.yul\":12690:13109   */\n    tag_101:\n        /* \"#utility.yul\":12856:12860   */\n      0x00\n        /* \"#utility.yul\":12894:12896   */\n      0x20\n        /* \"#utility.yul\":12883:12892   */\n      dup3\n        /* \"#utility.yul\":12879:12897   */\n      add\n        /* \"#utility.yul\":12871:12897   */\n      swap1\n      pop\n        /* \"#utility.yul\":12943:12952   */\n      dup2\n        /* \"#utility.yul\":12937:12941   */\n      dup2\n        /* \"#utility.yul\":12933:12953   */\n      sub\n        /* \"#utility.yul\":12929:12930   */\n      0x00\n        /* \"#utility.yul\":12918:12927   */\n      dup4\n        /* \"#utility.yul\":12914:12931   */\n      add\n        /* \"#utility.yul\":12907:12954   */\n      mstore\n        /* \"#utility.yul\":12971:13102   */\n      tag_410\n        /* \"#utility.yul\":13097:13101   */\n      dup2\n        /* \"#utility.yul\":12971:13102   */\n      tag_264\n      jump\t// in\n    tag_410:\n        /* \"#utility.yul\":12963:13102   */\n      swap1\n      pop\n        /* \"#utility.yul\":12690:13109   */\n      swap2\n      swap1\n      pop\n      jump\t// out\n        /* \"#utility.yul\":13115:13285   */\n    tag_265:\n        /* \"#utility.yul\":13255:13277   */\n      0x4c414e3a204e6f742057686974656c6973746564000000000000000000000000\n        /* \"#utility.yul\":13251:13252   */\n      0x00\n        /* \"#utility.yul\":13243:13249   */\n      dup3\n        /* \"#utility.yul\":13239:13253   */\n      add\n        /* \"#utility.yul\":13232:13278   */\n      mstore\n        /* \"#utility.yul\":13115:13285   */\n      pop\n      jump\t// out\n        /* \"#utility.yul\":13291:13657   */\n    tag_266:\n        /* \"#utility.yul\":13433:13436   */\n      0x00\n        /* \"#utility.yul\":13454:13521   */\n      tag_413\n        /* \"#utility.yul\":13518:13520   */\n      0x14\n        /* \"#utility.yul\":13513:13516   */\n      dup4\n        /* \"#utility.yul\":13454:13521   */\n      tag_258\n      jump\t// in\n    tag_413:\n        /* \"#utility.yul\":13447:13521   */\n      swap2\n      pop\n        /* \"#utility.yul\":13530:13623   */\n      tag_414\n        /* \"#utility.yul\":13619:13622   */\n      dup3\n        /* \"#utility.yul\":13530:13623   */\n      tag_265\n      jump\t// in\n    tag_414:\n        /* \"#utility.yul\":13648:13650   */\n      0x20\n        /* \"#utility.yul\":13643:13646   */\n      dup3\n        /* \"#utility.yul\":13639:13651   */\n      add\n        /* \"#utility.yul\":13632:13651   */\n      swap1\n      pop\n        /* \"#utility.yul\":13291:13657   */\n      swap2\n      swap1\n      pop\n      jump\t// out\n        /* \"#utility.yul\":13663:14082   */\n    tag_106:\n        /* \"#utility.yul\":13829:13833   */\n      0x00\n        /* \"#utility.yul\":13867:13869   */\n      0x20\n        /* \"#utility.yul\":13856:13865   */\n      dup3\n        /* \"#utility.yul\":13852:13870   */\n      add\n        /* \"#utility.yul\":13844:13870   */\n      swap1\n      pop\n        /* \"#utility.yul\":13916:13925   */\n      dup2\n        /* \"#utility.yul\":13910:13914   */\n      dup2\n        /* \"#utility.yul\":13906:13926   */\n      sub\n        /* \"#utility.yul\":13902:13903   */\n      0x00\n        /* \"#utility.yul\":13891:13900   */\n      dup4\n        /* \"#utility.yul\":13887:13904   */\n      add\n        /* \"#utility.yul\":13880:13927   */\n      mstore\n        /* \"#utility.yul\":13944:14075   */\n      tag_416\n        /* \"#utility.yul\":14070:14074   */\n      dup2\n        /* \"#utility.yul\":13944:14075   */\n      tag_266\n      jump\t// in\n    tag_416:\n        /* \"#utility.yul\":13936:14075   */\n      swap1\n      pop\n        /* \"#utility.yul\":13663:14082   */\n      swap2\n      swap1\n      pop\n      jump\t// out\n        /* \"#utility.yul\":14088:14257   */\n    tag_267:\n        /* \"#utility.yul\":14228:14249   */\n      0x4c414e3a20626964206e6f742068696768657200000000000000000000000000\n        /* \"#utility.yul\":14224:14225   */\n      0x00\n        /* \"#utility.yul\":14216:14222   */\n      dup3\n        /* \"#utility.yul\":14212:14226   */\n      add\n        /* \"#utility.yul\":14205:14250   */\n      mstore\n        /* \"#utility.yul\":14088:14257   */\n      pop\n      jump\t// out\n        /* \"#utility.yul\":14263:14629   */\n    tag_268:\n        /* \"#utility.yul\":14405:14408   */\n      0x00\n        /* \"#utility.yul\":14426:14493   */\n      tag_419\n        /* \"#utility.yul\":14490:14492   */\n      0x13\n        /* \"#utility.yul\":14485:14488   */\n      dup4\n        /* \"#utility.yul\":14426:14493   */\n      tag_258\n      jump\t// in\n    tag_419:\n        /* \"#utility.yul\":14419:14493   */\n      swap2\n      pop\n        /* \"#utility.yul\":14502:14595   */\n      tag_420\n        /* \"#utility.yul\":14591:14594   */\n      dup3\n        /* \"#utility.yul\":14502:14595   */\n      tag_267\n      jump\t// in\n    tag_420:\n        /* \"#utility.yul\":14620:14622   */\n      0x20\n        /* \"#utility.yul\":14615:14618   */\n      dup3\n        /* \"#utility.yul\":14611:14623   */\n      add\n        /* \"#utility.yul\":14604:14623   */\n      swap1\n      pop\n        /* \"#utility.yul\":14263:14629   */\n      swap2\n      swap1\n      pop\n      jump\t// out\n        /* \"#utility.yul\":14635:15054   */\n    tag_111:\n        /* \"#utility.yul\":14801:14805   */\n      0x00\n        /* \"#utility.yul\":14839:14841   */\n      0x20\n        /* \"#utility.yul\":14828:14837   */\n      dup3\n        /* \"#utility.yul\":14824:14842   */\n      add\n        /* \"#utility.yul\":14816:14842   */\n      swap1\n      pop\n        /* \"#utility.yul\":14888:14897   */\n      dup2\n        /* \"#utility.yul\":14882:14886   */\n      dup2\n        /* \"#utility.yul\":14878:14898   */\n      sub\n        /* \"#utility.yul\":14874:14875   */\n      0x00\n        /* \"#utility.yul\":14863:14872   */\n      dup4\n        /* \"#utility.yul\":14859:14876   */\n      add\n        /* \"#utility.yul\":14852:14899   */\n      mstore\n        /* \"#utility.yul\":14916:15047   */\n      tag_422\n        /* \"#utility.yul\":15042:15046   */\n      dup2\n        /* \"#utility.yul\":14916:15047   */\n      tag_268\n      jump\t// in\n    tag_422:\n        /* \"#utility.yul\":14908:15047   */\n      swap1\n      pop\n        /* \"#utility.yul\":14635:15054   */\n      swap2\n      swap1\n      pop\n      jump\t// out\n        /* \"#utility.yul\":15060:15240   */\n    tag_269:\n        /* \"#utility.yul\":15108:15185   */\n      0x4e487b7100000000000000000000000000000000000000000000000000000000\n        /* \"#utility.yul\":15105:15106   */\n      0x00\n        /* \"#utility.yul\":15098:15186   */\n      mstore\n        /* \"#utility.yul\":15205:15209   */\n      0x11\n        /* \"#utility.yul\":15202:15203   */\n      0x04\n        /* \"#utility.yul\":15195:15210   */\n      mstore\n        /* \"#utility.yul\":15229:15233   */\n      0x24\n        /* \"#utility.yul\":15226:15227   */\n      0x00\n        /* \"#utility.yul\":15219:15234   */\n      revert\n        /* \"#utility.yul\":15246:15437   */\n    tag_113:\n        /* \"#utility.yul\":15286:15289   */\n      0x00\n        /* \"#utility.yul\":15305:15325   */\n      tag_425\n        /* \"#utility.yul\":15323:15324   */\n      dup3\n        /* \"#utility.yul\":15305:15325   */\n      tag_238\n      jump\t// in\n    tag_425:\n        /* \"#utility.yul\":15300:15325   */\n      swap2\n      pop\n        /* \"#utility.yul\":15339:15359   */\n      tag_426\n        /* \"#utility.yul\":15357:15358   */\n      dup4\n        /* \"#utility.yul\":15339:15359   */\n      tag_238\n      jump\t// in\n    tag_426:\n        /* \"#utility.yul\":15334:15359   */\n      swap3\n      pop\n        /* \"#utility.yul\":15382:15383   */\n      dup3\n        /* \"#utility.yul\":15379:15380   */\n      dup3\n        /* \"#utility.yul\":15375:15384   */\n      add\n        /* \"#utility.yul\":15368:15384   */\n      swap1\n      pop\n        /* \"#utility.yul\":15403:15406   */\n      dup1\n        /* \"#utility.yul\":15400:15401   */\n      dup3\n        /* \"#utility.yul\":15397:15407   */\n      gt\n        /* \"#utility.yul\":15394:15430   */\n      iszero\n      tag_427\n      jumpi\n        /* \"#utility.yul\":15410:15428   */\n      tag_428\n      tag_269\n      jump\t// in\n    tag_428:\n        /* \"#utility.yul\":15394:15430   */\n    tag_427:\n        /* \"#utility.yul\":15246:15437   */\n      swap3\n      swap2\n      pop\n      pop\n      jump\t// out\n        /* \"#utility.yul\":15443:15580   */\n    tag_270:\n        /* \"#utility.yul\":15497:15502   */\n      0x00\n        /* \"#utility.yul\":15528:15534   */\n      dup2\n        /* \"#utility.yul\":15522:15535   */\n      mload\n        /* \"#utility.yul\":15513:15535   */\n      swap1\n      pop\n        /* \"#utility.yul\":15544:15574   */\n      tag_430\n        /* \"#utility.yul\":15568:15573   */\n      dup2\n        /* \"#utility.yul\":15544:15574   */\n      tag_249\n      jump\t// in\n    tag_430:\n        /* \"#utility.yul\":15443:15580   */\n      swap3\n      swap2\n      pop\n      pop\n      jump\t// out\n        /* \"#utility.yul\":15586:15931   */\n    tag_118:\n        /* \"#utility.yul\":15653:15659   */\n      0x00\n        /* \"#utility.yul\":15702:15704   */\n      0x20\n        /* \"#utility.yul\":15690:15699   */\n      dup3\n        /* \"#utility.yul\":15681:15688   */\n      dup5\n        /* \"#utility.yul\":15677:15700   */\n      sub\n        /* \"#utility.yul\":15673:15705   */\n      slt\n        /* \"#utility.yul\":15670:15789   */\n      iszero\n      tag_432\n      jumpi\n        /* \"#utility.yul\":15708:15787   */\n      tag_433\n      tag_241\n      jump\t// in\n    tag_433:\n        /* \"#utility.yul\":15670:15789   */\n    tag_432:\n        /* \"#utility.yul\":15828:15829   */\n      0x00\n        /* \"#utility.yul\":15853:15914   */\n      tag_434\n        /* \"#utility.yul\":15906:15913   */\n      dup5\n        /* \"#utility.yul\":15897:15903   */\n      dup3\n        /* \"#utility.yul\":15886:15895   */\n      dup6\n        /* \"#utility.yul\":15882:15904   */\n      add\n        /* \"#utility.yul\":15853:15914   */\n      tag_270\n      jump\t// in\n    tag_434:\n        /* \"#utility.yul\":15843:15914   */\n      swap2\n      pop\n        /* \"#utility.yul\":15799:15924   */\n      pop\n        /* \"#utility.yul\":15586:15931   */\n      swap3\n      swap2\n      pop\n      pop\n      jump\t// out\n        /* \"#utility.yul\":15937:16131   */\n    tag_120:\n        /* \"#utility.yul\":15977:15981   */\n      0x00\n        /* \"#utility.yul\":15997:16017   */\n      tag_436\n        /* \"#utility.yul\":16015:16016   */\n      dup3\n        /* \"#utility.yul\":15997:16017   */\n      tag_238\n      jump\t// in\n    tag_436:\n        /* \"#utility.yul\":15992:16017   */\n      swap2\n      pop\n        /* \"#utility.yul\":16031:16051   */\n      tag_437\n        /* \"#utility.yul\":16049:16050   */\n      dup4\n        /* \"#utility.yul\":16031:16051   */\n      tag_238\n      jump\t// in\n    tag_437:\n        /* \"#utility.yul\":16026:16051   */\n      swap3\n      pop\n        /* \"#utility.yul\":16075:16076   */\n      dup3\n        /* \"#utility.yul\":16072:16073   */\n      dup3\n        /* \"#utility.yul\":16068:16077   */\n      sub\n        /* \"#utility.yul\":16060:16077   */\n      swap1\n      pop\n        /* \"#utility.yul\":16099:16100   */\n      dup2\n        /* \"#utility.yul\":16093:16097   */\n      dup2\n        /* \"#utility.yul\":16090:16101   */\n      gt\n        /* \"#utility.yul\":16087:16124   */\n      iszero\n      tag_438\n      jumpi\n        /* \"#utility.yul\":16104:16122   */\n      tag_439\n      tag_269\n      jump\t// in\n    tag_439:\n        /* \"#utility.yul\":16087:16124   */\n    tag_438:\n        /* \"#utility.yul\":15937:16131   */\n      swap3\n      swap2\n      pop\n      pop\n      jump\t// out\n        /* \"#utility.yul\":16137:16307   */\n    tag_271:\n        /* \"#utility.yul\":16277:16299   */\n      0x4c414e3a20616c72656164792073746172746564000000000000000000000000\n        /* \"#utility.yul\":16273:16274   */\n      0x00\n        /* \"#utility.yul\":16265:16271   */\n      dup3\n        /* \"#utility.yul\":16261:16275   */\n      add\n        /* \"#utility.yul\":16254:16300   */\n      mstore\n        /* \"#utility.yul\":16137:16307   */\n      pop\n      jump\t// out\n        /* \"#utility.yul\":16313:16679   */\n    tag_272:\n        /* \"#utility.yul\":16455:16458   */\n      0x00\n        /* \"#utility.yul\":16476:16543   */\n      tag_442\n        /* \"#utility.yul\":16540:16542   */\n      0x14\n        /* \"#utility.yul\":16535:16538   */\n      dup4\n        /* \"#utility.yul\":16476:16543   */\n      tag_258\n      jump\t// in\n    tag_442:\n        /* \"#utility.yul\":16469:16543   */\n      swap2\n      pop\n        /* \"#utility.yul\":16552:16645   */\n      tag_443\n        /* \"#utility.yul\":16641:16644   */\n      dup3\n        /* \"#utility.yul\":16552:16645   */\n      tag_271\n      jump\t// in\n    tag_443:\n        /* \"#utility.yul\":16670:16672   */\n      0x20\n        /* \"#utility.yul\":16665:16668   */\n      dup3\n        /* \"#utility.yul\":16661:16673   */\n      add\n        /* \"#utility.yul\":16654:16673   */\n      swap1\n      pop\n        /* \"#utility.yul\":16313:16679   */\n      swap2\n      swap1\n      pop\n      jump\t// out\n        /* \"#utility.yul\":16685:17104   */\n    tag_137:\n        /* \"#utility.yul\":16851:16855   */\n      0x00\n        /* \"#utility.yul\":16889:16891   */\n      0x20\n        /* \"#utility.yul\":16878:16887   */\n      dup3\n        /* \"#utility.yul\":16874:16892   */\n      add\n        /* \"#utility.yul\":16866:16892   */\n      swap1\n      pop\n        /* \"#utility.yul\":16938:16947   */\n      dup2\n        /* \"#utility.yul\":16932:16936   */\n      dup2\n        /* \"#utility.yul\":16928:16948   */\n      sub\n        /* \"#utility.yul\":16924:16925   */\n      0x00\n        /* \"#utility.yul\":16913:16922   */\n      dup4\n        /* \"#utility.yul\":16909:16926   */\n      add\n        /* \"#utility.yul\":16902:16949   */\n      mstore\n        /* \"#utility.yul\":16966:17097   */\n      tag_445\n        /* \"#utility.yul\":17092:17096   */\n      dup2\n        /* \"#utility.yul\":16966:17097   */\n      tag_272\n      jump\t// in\n    tag_445:\n        /* \"#utility.yul\":16958:17097   */\n      swap1\n      pop\n        /* \"#utility.yul\":16685:17104   */\n      swap2\n      swap1\n      pop\n      jump\t// out\n        /* \"#utility.yul\":17110:17348   */\n    tag_273:\n        /* \"#utility.yul\":17250:17284   */\n      0x4c414e3a206e6f74206c6174657374206269646465722f6e6f746f7665722c20\n        /* \"#utility.yul\":17246:17247   */\n      0x00\n        /* \"#utility.yul\":17238:17244   */\n      dup3\n        /* \"#utility.yul\":17234:17248   */\n      add\n        /* \"#utility.yul\":17227:17285   */\n      mstore\n        /* \"#utility.yul\":17319:17340   */\n      0x6f72206e6f74206c6971756964617461626c6500000000000000000000000000\n        /* \"#utility.yul\":17314:17316   */\n      0x20\n        /* \"#utility.yul\":17306:17312   */\n      dup3\n        /* \"#utility.yul\":17302:17317   */\n      add\n        /* \"#utility.yul\":17295:17341   */\n      mstore\n        /* \"#utility.yul\":17110:17348   */\n      pop\n      jump\t// out\n        /* \"#utility.yul\":17354:17720   */\n    tag_274:\n        /* \"#utility.yul\":17496:17499   */\n      0x00\n        /* \"#utility.yul\":17517:17584   */\n      tag_448\n        /* \"#utility.yul\":17581:17583   */\n      0x33\n        /* \"#utility.yul\":17576:17579   */\n      dup4\n        /* \"#utility.yul\":17517:17584   */\n      tag_258\n      jump\t// in\n    tag_448:\n        /* \"#utility.yul\":17510:17584   */\n      swap2\n      pop\n        /* \"#utility.yul\":17593:17686   */\n      tag_449\n        /* \"#utility.yul\":17682:17685   */\n      dup3\n        /* \"#utility.yul\":17593:17686   */\n      tag_273\n      jump\t// in\n    tag_449:\n        /* \"#utility.yul\":17711:17713   */\n      0x40\n        /* \"#utility.yul\":17706:17709   */\n      dup3\n        /* \"#utility.yul\":17702:17714   */\n      add\n        /* \"#utility.yul\":17695:17714   */\n      swap1\n      pop\n        /* \"#utility.yul\":17354:17720   */\n      swap2\n      swap1\n      pop\n      jump\t// out\n        /* \"#utility.yul\":17726:18145   */\n    tag_149:\n        /* \"#utility.yul\":17892:17896   */\n      0x00\n        /* \"#utility.yul\":17930:17932   */\n      0x20\n        /* \"#utility.yul\":17919:17928   */\n      dup3\n        /* \"#utility.yul\":17915:17933   */\n      add\n        /* \"#utility.yul\":17907:17933   */\n      swap1\n      pop\n        /* \"#utility.yul\":17979:17988   */\n      dup2\n        /* \"#utility.yul\":17973:17977   */\n      dup2\n        /* \"#utility.yul\":17969:17989   */\n      sub\n        /* \"#utility.yul\":17965:17966   */\n      0x00\n        /* \"#utility.yul\":17954:17963   */\n      dup4\n        /* \"#utility.yul\":17950:17967   */\n      add\n        /* \"#utility.yul\":17943:17990   */\n      mstore\n        /* \"#utility.yul\":18007:18138   */\n      tag_451\n        /* \"#utility.yul\":18133:18137   */\n      dup2\n        /* \"#utility.yul\":18007:18138   */\n      tag_274\n      jump\t// in\n    tag_451:\n        /* \"#utility.yul\":17999:18138   */\n      swap1\n      pop\n        /* \"#utility.yul\":17726:18145   */\n      swap2\n      swap1\n      pop\n      jump\t// out\n        /* \"#utility.yul\":18151:18324   */\n    tag_275:\n        /* \"#utility.yul\":18291:18316   */\n      0x4c414e3a2073746172742074696d6520696e2070617374000000000000000000\n        /* \"#utility.yul\":18287:18288   */\n      0x00\n        /* \"#utility.yul\":18279:18285   */\n      dup3\n        /* \"#utility.yul\":18275:18289   */\n      add\n        /* \"#utility.yul\":18268:18317   */\n      mstore\n        /* \"#utility.yul\":18151:18324   */\n      pop\n      jump\t// out\n        /* \"#utility.yul\":18330:18696   */\n    tag_276:\n        /* \"#utility.yul\":18472:18475   */\n      0x00\n        /* \"#utility.yul\":18493:18560   */\n      tag_454\n        /* \"#utility.yul\":18557:18559   */\n      0x17\n        /* \"#utility.yul\":18552:18555   */\n      dup4\n        /* \"#utility.yul\":18493:18560   */\n      tag_258\n      jump\t// in\n    tag_454:\n        /* \"#utility.yul\":18486:18560   */\n      swap2\n      pop\n        /* \"#utility.yul\":18569:18662   */\n      tag_455\n        /* \"#utility.yul\":18658:18661   */\n      dup3\n        /* \"#utility.yul\":18569:18662   */\n      tag_275\n      jump\t// in\n    tag_455:\n        /* \"#utility.yul\":18687:18689   */\n      0x20\n        /* \"#utility.yul\":18682:18685   */\n      dup3\n        /* \"#utility.yul\":18678:18690   */\n      add\n        /* \"#utility.yul\":18671:18690   */\n      swap1\n      pop\n        /* \"#utility.yul\":18330:18696   */\n      swap2\n      swap1\n      pop\n      jump\t// out\n        /* \"#utility.yul\":18702:19121   */\n    tag_159:\n        /* \"#utility.yul\":18868:18872   */\n      0x00\n        /* \"#utility.yul\":18906:18908   */\n      0x20\n        /* \"#utility.yul\":18895:18904   */\n      dup3\n        /* \"#utility.yul\":18891:18909   */\n      add\n        /* \"#utility.yul\":18883:18909   */\n      swap1\n      pop\n        /* \"#utility.yul\":18955:18964   */\n      dup2\n        /* \"#utility.yul\":18949:18953   */\n      dup2\n        /* \"#utility.yul\":18945:18965   */\n      sub\n        /* \"#utility.yul\":18941:18942   */\n      0x00\n        /* \"#utility.yul\":18930:18939   */\n      dup4\n        /* \"#utility.yul\":18926:18943   */\n      add\n        /* \"#utility.yul\":18919:18966   */\n      mstore\n        /* \"#utility.yul\":18983:19114   */\n      tag_457\n        /* \"#utility.yul\":19109:19113   */\n      dup2\n        /* \"#utility.yul\":18983:19114   */\n      tag_276\n      jump\t// in\n    tag_457:\n        /* \"#utility.yul\":18975:19114   */\n      swap1\n      pop\n        /* \"#utility.yul\":18702:19121   */\n      swap2\n      swap1\n      pop\n      jump\t// out\n        /* \"#utility.yul\":19127:19297   */\n    tag_277:\n        /* \"#utility.yul\":19267:19289   */\n      0x4c414e3a20737461727420616674657220656e64000000000000000000000000\n        /* \"#utility.yul\":19263:19264   */\n      0x00\n        /* \"#utility.yul\":19255:19261   */\n      dup3\n        /* \"#utility.yul\":19251:19265   */\n      add\n        /* \"#utility.yul\":19244:19290   */\n      mstore\n        /* \"#utility.yul\":19127:19297   */\n      pop\n      jump\t// out\n        /* \"#utility.yul\":19303:19669   */\n    tag_278:\n        /* \"#utility.yul\":19445:19448   */\n      0x00\n        /* \"#utility.yul\":19466:19533   */\n      tag_460\n        /* \"#utility.yul\":19530:19532   */\n      0x14\n        /* \"#utility.yul\":19525:19528   */\n      dup4\n        /* \"#utility.yul\":19466:19533   */\n      tag_258\n      jump\t// in\n    tag_460:\n        /* \"#utility.yul\":19459:19533   */\n      swap2\n      pop\n        /* \"#utility.yul\":19542:19635   */\n      tag_461\n        /* \"#utility.yul\":19631:19634   */\n      dup3\n        /* \"#utility.yul\":19542:19635   */\n      tag_277\n      jump\t// in\n    tag_461:\n        /* \"#utility.yul\":19660:19662   */\n      0x20\n        /* \"#utility.yul\":19655:19658   */\n      dup3\n        /* \"#utility.yul\":19651:19663   */\n      add\n        /* \"#utility.yul\":19644:19663   */\n      swap1\n      pop\n        /* \"#utility.yul\":19303:19669   */\n      swap2\n      swap1\n      pop\n      jump\t// out\n        /* \"#utility.yul\":19675:20094   */\n    tag_162:\n        /* \"#utility.yul\":19841:19845   */\n      0x00\n        /* \"#utility.yul\":19879:19881   */\n      0x20\n        /* \"#utility.yul\":19868:19877   */\n      dup3\n        /* \"#utility.yul\":19864:19882   */\n      add\n        /* \"#utility.yul\":19856:19882   */\n      swap1\n      pop\n        /* \"#utility.yul\":19928:19937   */\n      dup2\n        /* \"#utility.yul\":19922:19926   */\n      dup2\n        /* \"#utility.yul\":19918:19938   */\n      sub\n        /* \"#utility.yul\":19914:19915   */\n      0x00\n        /* \"#utility.yul\":19903:19912   */\n      dup4\n        /* \"#utility.yul\":19899:19916   */\n      add\n        /* \"#utility.yul\":19892:19939   */\n      mstore\n        /* \"#utility.yul\":19956:20087   */\n      tag_463\n        /* \"#utility.yul\":20082:20086   */\n      dup2\n        /* \"#utility.yul\":19956:20087   */\n      tag_278\n      jump\t// in\n    tag_463:\n        /* \"#utility.yul\":19948:20087   */\n      swap1\n      pop\n        /* \"#utility.yul\":19675:20094   */\n      swap2\n      swap1\n      pop\n      jump\t// out\n        /* \"#utility.yul\":20100:20243   */\n    tag_279:\n        /* \"#utility.yul\":20157:20162   */\n      0x00\n        /* \"#utility.yul\":20188:20194   */\n      dup2\n        /* \"#utility.yul\":20182:20195   */\n      mload\n        /* \"#utility.yul\":20173:20195   */\n      swap1\n      pop\n        /* \"#utility.yul\":20204:20237   */\n      tag_465\n        /* \"#utility.yul\":20231:20236   */\n      dup2\n        /* \"#utility.yul\":20204:20237   */\n      tag_255\n      jump\t// in\n    tag_465:\n        /* \"#utility.yul\":20100:20243   */\n      swap3\n      swap2\n      pop\n      pop\n      jump\t// out\n        /* \"#utility.yul\":20249:20600   */\n    tag_167:\n        /* \"#utility.yul\":20319:20325   */\n      0x00\n        /* \"#utility.yul\":20368:20370   */\n      0x20\n        /* \"#utility.yul\":20356:20365   */\n      dup3\n        /* \"#utility.yul\":20347:20354   */\n      dup5\n        /* \"#utility.yul\":20343:20366   */\n      sub\n        /* \"#utility.yul\":20339:20371   */\n      slt\n        /* \"#utility.yul\":20336:20455   */\n      iszero\n      tag_467\n      jumpi\n        /* \"#utility.yul\":20374:20453   */\n      tag_468\n      tag_241\n      jump\t// in\n    tag_468:\n        /* \"#utility.yul\":20336:20455   */\n    tag_467:\n        /* \"#utility.yul\":20494:20495   */\n      0x00\n        /* \"#utility.yul\":20519:20583   */\n      tag_469\n        /* \"#utility.yul\":20575:20582   */\n      dup5\n        /* \"#utility.yul\":20566:20572   */\n      dup3\n        /* \"#utility.yul\":20555:20564   */\n      dup6\n        /* \"#utility.yul\":20551:20573   */\n      add\n        /* \"#utility.yul\":20519:20583   */\n      tag_279\n      jump\t// in\n    tag_469:\n        /* \"#utility.yul\":20509:20583   */\n      swap2\n      pop\n        /* \"#utility.yul\":20465:20593   */\n      pop\n        /* \"#utility.yul\":20249:20600   */\n      swap3\n      swap2\n      pop\n      pop\n      jump\t// out\n        /* \"#utility.yul\":20606:20938   */\n    tag_169:\n        /* \"#utility.yul\":20727:20731   */\n      0x00\n        /* \"#utility.yul\":20765:20767   */\n      0x40\n        /* \"#utility.yul\":20754:20763   */\n      dup3\n        /* \"#utility.yul\":20750:20768   */\n      add\n        /* \"#utility.yul\":20742:20768   */\n      swap1\n      pop\n        /* \"#utility.yul\":20778:20849   */\n      tag_471\n        /* \"#utility.yul\":20846:20847   */\n      0x00\n        /* \"#utility.yul\":20835:20844   */\n      dup4\n        /* \"#utility.yul\":20831:20848   */\n      add\n        /* \"#utility.yul\":20822:20828   */\n      dup6\n        /* \"#utility.yul\":20778:20849   */\n      tag_253\n      jump\t// in\n    tag_471:\n        /* \"#utility.yul\":20859:20931   */\n      tag_472\n        /* \"#utility.yul\":20927:20929   */\n      0x20\n        /* \"#utility.yul\":20916:20925   */\n      dup4\n        /* \"#utility.yul\":20912:20930   */\n      add\n        /* \"#utility.yul\":20903:20909   */\n      dup5\n        /* \"#utility.yul\":20859:20931   */\n      tag_239\n      jump\t// in\n    tag_472:\n        /* \"#utility.yul\":20606:20938   */\n      swap4\n      swap3\n      pop\n      pop\n      pop\n      jump\t// out\n        /* \"#utility.yul\":20944:21177   */\n    tag_171:\n        /* \"#utility.yul\":20983:20986   */\n      0x00\n        /* \"#utility.yul\":21006:21030   */\n      tag_474\n        /* \"#utility.yul\":21024:21029   */\n      dup3\n        /* \"#utility.yul\":21006:21030   */\n      tag_238\n      jump\t// in\n    tag_474:\n        /* \"#utility.yul\":20997:21030   */\n      swap2\n      pop\n        /* \"#utility.yul\":21052:21118   */\n      0xffffffffffffffffffffffffffffffffffffffffffffffffffffffffffffffff\n        /* \"#utility.yul\":21045:21050   */\n      dup3\n        /* \"#utility.yul\":21042:21119   */\n      sub\n        /* \"#utility.yul\":21039:21142   */\n      tag_475\n      jumpi\n        /* \"#utility.yul\":21122:21140   */\n      tag_476\n      tag_269\n      jump\t// in\n    tag_476:\n        /* \"#utility.yul\":21039:21142   */\n    tag_475:\n        /* \"#utility.yul\":21169:21170   */\n      0x01\n        /* \"#utility.yul\":21162:21167   */\n      dup3\n        /* \"#utility.yul\":21158:21171   */\n      add\n        /* \"#utility.yul\":21151:21171   */\n      swap1\n      pop\n        /* \"#utility.yul\":20944:21177   */\n      swap2\n      swap1\n      pop\n      jump\t// out\n        /* \"#utility.yul\":21183:21359   */\n    tag_280:\n        /* \"#utility.yul\":21323:21351   */\n      0x4c414e3a204e6f7420746865206c617465737420626964646572000000000000\n        /* \"#utility.yul\":21319:21320   */\n      0x00\n        /* \"#utility.yul\":21311:21317   */\n      dup3\n        /* \"#utility.yul\":21307:21321   */\n      add\n        /* \"#utility.yul\":21300:21352   */\n      mstore\n        /* \"#utility.yul\":21183:21359   */\n      pop\n      jump\t// out\n        /* \"#utility.yul\":21365:21731   */\n    tag_281:\n        /* \"#utility.yul\":21507:21510   */\n      0x00\n        /* \"#utility.yul\":21528:21595   */\n      tag_479\n        /* \"#utility.yul\":21592:21594   */\n      0x1a\n        /* \"#utility.yul\":21587:21590   */\n      dup4\n        /* \"#utility.yul\":21528:21595   */\n      tag_258\n      jump\t// in\n    tag_479:\n        /* \"#utility.yul\":21521:21595   */\n      swap2\n      pop\n        /* \"#utility.yul\":21604:21697   */\n      tag_480\n        /* \"#utility.yul\":21693:21696   */\n      dup3\n        /* \"#utility.yul\":21604:21697   */\n      tag_280\n      jump\t// in\n    tag_480:\n        /* \"#utility.yul\":21722:21724   */\n      0x20\n        /* \"#utility.yul\":21717:21720   */\n      dup3\n        /* \"#utility.yul\":21713:21725   */\n      add\n        /* \"#utility.yul\":21706:21725   */\n      swap1\n      pop\n        /* \"#utility.yul\":21365:21731   */\n      swap2\n      swap1\n      pop\n      jump\t// out\n        /* \"#utility.yul\":21737:22156   */\n    tag_181:\n        /* \"#utility.yul\":21903:21907   */\n      0x00\n        /* \"#utility.yul\":21941:21943   */\n      0x20\n        /* \"#utility.yul\":21930:21939   */\n      dup3\n        /* \"#utility.yul\":21926:21944   */\n      add\n        /* \"#utility.yul\":21918:21944   */\n      swap1\n      pop\n        /* \"#utility.yul\":21990:21999   */\n      dup2\n        /* \"#utility.yul\":21984:21988   */\n      dup2\n        /* \"#utility.yul\":21980:22000   */\n      sub\n        /* \"#utility.yul\":21976:21977   */\n      0x00\n        /* \"#utility.yul\":21965:21974   */\n      dup4\n        /* \"#utility.yul\":21961:21978   */\n      add\n        /* \"#utility.yul\":21954:22001   */\n      mstore\n        /* \"#utility.yul\":22018:22149   */\n      tag_482\n        /* \"#utility.yul\":22144:22148   */\n      dup2\n        /* \"#utility.yul\":22018:22149   */\n      tag_281\n      jump\t// in\n    tag_482:\n        /* \"#utility.yul\":22010:22149   */\n      swap1\n      pop\n        /* \"#utility.yul\":21737:22156   */\n      swap2\n      swap1\n      pop\n      jump\t// out\n        /* \"#utility.yul\":22162:22384   */\n    tag_216:\n        /* \"#utility.yul\":22255:22259   */\n      0x00\n        /* \"#utility.yul\":22293:22295   */\n      0x20\n        /* \"#utility.yul\":22282:22291   */\n      dup3\n        /* \"#utility.yul\":22278:22296   */\n      add\n        /* \"#utility.yul\":22270:22296   */\n      swap1\n      pop\n        /* \"#utility.yul\":22306:22377   */\n      tag_484\n        /* \"#utility.yul\":22374:22375   */\n      0x00\n        /* \"#utility.yul\":22363:22372   */\n      dup4\n        /* \"#utility.yul\":22359:22376   */\n      add\n        /* \"#utility.yul\":22350:22356   */\n      dup5\n        /* \"#utility.yul\":22306:22377   */\n      tag_253\n      jump\t// in\n    tag_484:\n        /* \"#utility.yul\":22162:22384   */\n      swap3\n      swap2\n      pop\n      pop\n      jump\t// out\n        /* \"#utility.yul\":22390:22533   */\n    tag_282:\n        /* \"#utility.yul\":22447:22452   */\n      0x00\n        /* \"#utility.yul\":22478:22484   */\n      dup2\n        /* \"#utility.yul\":22472:22485   */\n      mload\n        /* \"#utility.yul\":22463:22485   */\n      swap1\n      pop\n        /* \"#utility.yul\":22494:22527   */\n      tag_486\n        /* \"#utility.yul\":22521:22526   */\n      dup2\n        /* \"#utility.yul\":22494:22527   */\n      tag_243\n      jump\t// in\n    tag_486:\n        /* \"#utility.yul\":22390:22533   */\n      swap3\n      swap2\n      pop\n      pop\n      jump\t// out\n        /* \"#utility.yul\":22539:22890   */\n    tag_220:\n        /* \"#utility.yul\":22609:22615   */\n      0x00\n        /* \"#utility.yul\":22658:22660   */\n      0x20\n        /* \"#utility.yul\":22646:22655   */\n      dup3\n        /* \"#utility.yul\":22637:22644   */\n      dup5\n        /* \"#utility.yul\":22633:22656   */\n      sub\n        /* \"#utility.yul\":22629:22661   */\n      slt\n        /* \"#utility.yul\":22626:22745   */\n      iszero\n      tag_488\n      jumpi\n        /* \"#utility.yul\":22664:22743   */\n      tag_489\n      tag_241\n      jump\t// in\n    tag_489:\n        /* \"#utility.yul\":22626:22745   */\n    tag_488:\n        /* \"#utility.yul\":22784:22785   */\n      0x00\n        /* \"#utility.yul\":22809:22873   */\n      tag_490\n        /* \"#utility.yul\":22865:22872   */\n      dup5\n        /* \"#utility.yul\":22856:22862   */\n      dup3\n        /* \"#utility.yul\":22845:22854   */\n      dup6\n        /* \"#utility.yul\":22841:22863   */\n      add\n        /* \"#utility.yul\":22809:22873   */\n      tag_282\n      jump\t// in\n    tag_490:\n        /* \"#utility.yul\":22799:22873   */\n      swap2\n      pop\n        /* \"#utility.yul\":22755:22883   */\n      pop\n        /* \"#utility.yul\":22539:22890   */\n      swap3\n      swap2\n      pop\n      pop\n      jump\t// out\n        /* \"#utility.yul\":22896:23076   */\n    tag_236:\n        /* \"#utility.yul\":22944:23021   */\n      0x4e487b7100000000000000000000000000000000000000000000000000000000\n        /* \"#utility.yul\":22941:22942   */\n      0x00\n        /* \"#utility.yul\":22934:23022   */\n      mstore\n        /* \"#utility.yul\":23041:23045   */\n      0x12\n        /* \"#utility.yul\":23038:23039   */\n      0x04\n        /* \"#utility.yul\":23031:23046   */\n      mstore\n        /* \"#utility.yul\":23065:23069   */\n      0x24\n        /* \"#utility.yul\":23062:23063   */\n      0x00\n        /* \"#utility.yul\":23055:23070   */\n      revert\n        /* \"#utility.yul\":23082:23267   */\n    tag_226:\n        /* \"#utility.yul\":23122:23123   */\n      0x00\n        /* \"#utility.yul\":23139:23159   */\n      tag_493\n        /* \"#utility.yul\":23157:23158   */\n      dup3\n        /* \"#utility.yul\":23139:23159   */\n      tag_238\n      jump\t// in\n    tag_493:\n        /* \"#utility.yul\":23134:23159   */\n      swap2\n      pop\n        /* \"#utility.yul\":23173:23193   */\n      tag_494\n        /* \"#utility.yul\":23191:23192   */\n      dup4\n        /* \"#utility.yul\":23173:23193   */\n      tag_238\n      jump\t// in\n    tag_494:\n        /* \"#utility.yul\":23168:23193   */\n      swap3\n      pop\n        /* \"#utility.yul\":23212:23213   */\n      dup3\n        /* \"#utility.yul\":23202:23237   */\n      tag_495\n      jumpi\n        /* \"#utility.yul\":23217:23235   */\n      tag_496\n      tag_236\n      jump\t// in\n    tag_496:\n        /* \"#utility.yul\":23202:23237   */\n    tag_495:\n        /* \"#utility.yul\":23259:23260   */\n      dup3\n        /* \"#utility.yul\":23256:23257   */\n      dup3\n        /* \"#utility.yul\":23252:23261   */\n      div\n        /* \"#utility.yul\":23247:23261   */\n      swap1\n      pop\n        /* \"#utility.yul\":23082:23267   */\n      swap3\n      swap2\n      pop\n      pop\n      jump\t// out\n        /* \"#utility.yul\":23273:23683   */\n    tag_228:\n        /* \"#utility.yul\":23313:23320   */\n      0x00\n        /* \"#utility.yul\":23336:23356   */\n      tag_498\n        /* \"#utility.yul\":23354:23355   */\n      dup3\n        /* \"#utility.yul\":23336:23356   */\n      tag_238\n      jump\t// in\n    tag_498:\n        /* \"#utility.yul\":23331:23356   */\n      swap2\n      pop\n        /* \"#utility.yul\":23370:23390   */\n      tag_499\n        /* \"#utility.yul\":23388:23389   */\n      dup4\n        /* \"#utility.yul\":23370:23390   */\n      tag_238\n      jump\t// in\n    tag_499:\n        /* \"#utility.yul\":23365:23390   */\n      swap3\n      pop\n        /* \"#utility.yul\":23425:23426   */\n      dup3\n        /* \"#utility.yul\":23422:23423   */\n      dup3\n        /* \"#utility.yul\":23418:23427   */\n      mul\n        /* \"#utility.yul\":23447:23477   */\n      tag_500\n        /* \"#utility.yul\":23465:23476   */\n      dup2\n        /* \"#utility.yul\":23447:23477   */\n      tag_238\n      jump\t// in\n    tag_500:\n        /* \"#utility.yul\":23436:23477   */\n      swap2\n      pop\n        /* \"#utility.yul\":23626:23627   */\n      dup3\n        /* \"#utility.yul\":23617:23624   */\n      dup3\n        /* \"#utility.yul\":23613:23628   */\n      div\n        /* \"#utility.yul\":23610:23611   */\n      dup5\n        /* \"#utility.yul\":23607:23629   */\n      eq\n        /* \"#utility.yul\":23587:23588   */\n      dup4\n        /* \"#utility.yul\":23580:23589   */\n      iszero\n        /* \"#utility.yul\":23560:23643   */\n      or\n        /* \"#utility.yul\":23537:23676   */\n      tag_501\n      jumpi\n        /* \"#utility.yul\":23656:23674   */\n      tag_502\n      tag_269\n      jump\t// in\n    tag_502:\n        /* \"#utility.yul\":23537:23676   */\n    tag_501:\n        /* \"#utility.yul\":23321:23683   */\n      pop\n        /* \"#utility.yul\":23273:23683   */\n      swap3\n      swap2\n      pop\n      pop\n      jump\t// out\n\n    auxdata: 0xa2646970667358221220006e3618bb72064553a3cb6eb344835c5e37da9c72913c21fe76b9d8195b7d6e64736f6c63430008110033\n}\n",
				"bytecode": {
					"linkReferences": {},
					"object": "608060405234801561001057600080fd5b5061397d806100206000396000f3fe608060405234801561001057600080fd5b50600436106100ea5760003560e01c80637b3c4baa1161008c578063a23b02bd11610066578063a23b02bd14610235578063d8aed14514610265578063e1ec3c6814610281578063f724e48e146102bc576100ea565b80637b3c4baa146101c957806389e257a3146101fd5780638f769f3a14610219576100ea565b8063222fdf21116100c8578063222fdf211461014557806340e58ee514610161578063415f12401461017d5780637a4656d614610199576100ea565b806306661abd146100ef57806318de4f9d1461010d5780632168ed3014610129575b600080fd5b6100f76102d8565b6040516101049190612d34565b60405180910390f35b61012760048036038101906101229190612d80565b6102de565b005b610143600480360381019061013e9190612de7565b6107bc565b005b61015f600480360381019061015a9190612e86565b610c74565b005b61017b60048036038101906101769190612d80565b610dbe565b005b61019760048036038101906101929190612d80565b611194565b005b6101b360048036038101906101ae9190612d80565b611603565b6040516101c09190612d34565b60405180910390f35b6101e360048036038101906101de9190612ec6565b61161b565b6040516101f4959493929190612f56565b60405180910390f35b61021760048036038101906102129190612fd5565b61168c565b005b610233600480360381019061022e919061309f565b611acb565b005b61024f600480360381019061024a919061309f565b611e9d565b60405161025c91906130ee565b60405180910390f35b61027f600480360381019061027a9190612ec6565b611ecc565b005b61029b60048036038101906102969190612d80565b612488565b6040516102b39c9b9a99989796959493929190613109565b60405180910390f35b6102d660048036038101906102d191906131c3565b6125a2565b005b60005481565b803373ffffffffffffffffffffffffffffffffffffffff166001600083815260200190815260200160002060000160009054906101000a900473ffffffffffffffffffffffffffffffffffffffff1673ffffffffffffffffffffffffffffffffffffffff1614806103b057503373ffffffffffffffffffffffffffffffffffffffff166001600083815260200190815260200160002060020160009054906101000a900473ffffffffffffffffffffffffffffffffffffffff1673ffffffffffffffffffffffffffffffffffffffff16145b6103ef576040517f08c379a00000000000000000000000000000000000000000000000000000000081526004016103e690613273565b60405180910390fd5b600060016000848152602001908152602001600020604051806101800160405290816000820160009054906101000a900473ffffffffffffffffffffffffffffffffffffffff1673ffffffffffffffffffffffffffffffffffffffff1673ffffffffffffffffffffffffffffffffffffffff1681526020016001820160009054906101000a900473ffffffffffffffffffffffffffffffffffffffff1673ffffffffffffffffffffffffffffffffffffffff1673ffffffffffffffffffffffffffffffffffffffff1681526020016002820160009054906101000a900473ffffffffffffffffffffffffffffffffffffffff1673ffffffffffffffffffffffffffffffffffffffff1673ffffffffffffffffffffffffffffffffffffffff1681526020016003820160009054906101000a900473ffffffffffffffffffffffffffffffffffffffff1673ffffffffffffffffffffffffffffffffffffffff1673ffffffffffffffffffffffffffffffffffffffff1681526020016004820160009054906101000a900473ffffffffffffffffffffffffffffffffffffffff1673ffffffffffffffffffffffffffffffffffffffff1673ffffffffffffffffffffffffffffffffffffffff1681526020016005820154815260200160068201548152602001600782015481526020016008820154815260200160098201548152602001600a820160009054906101000a900460ff16151515158152602001600a820160019054906101000a900460ff1615151515815250509050600060026000858152602001908152602001600020600083610120015181526020019081526020016000206040518060a001604052908160008201548152602001600182015481526020016002820160009054906101000a900473ffffffffffffffffffffffffffffffffffffffff1673ffffffffffffffffffffffffffffffffffffffff1673ffffffffffffffffffffffffffffffffffffffff168152602001600382015481526020016004820160009054906101000a900461ffff1661ffff1661ffff168152505090506000826080015190508073ffffffffffffffffffffffffffffffffffffffff166342842e0e3084604001518660c001516040518463ffffffff1660e01b815260040161074293929190613293565b600060405180830381600087803b15801561075c57600080fd5b505af1158015610770573d6000803e3d6000fd5b505050507fcf3eafc70e544bbb0b7b916314be01382e9819ef1dea730bd182222030ffe4a9856040516107a39190612d34565b60405180910390a16107b3612c48565b92505050505050565b6107c58461260f565b610804576040517f08c379a00000000000000000000000000000000000000000000000000000000081526004016107fb90613316565b60405180910390fd5b61080d84612631565b1561084d576040517f08c379a000000000000000000000000000000000000000000000000000000000815260040161084490613382565b60405180910390fd5b600060016000868152602001908152602001600020905080600a0160019054906101000a900460ff1680156108dc57506003600086815260200190815260200160002060003373ffffffffffffffffffffffffffffffffffffffff1673ffffffffffffffffffffffffffffffffffffffff16815260200190815260200160002060009054906101000a900460ff165b806108fc57506000151581600a0160019054906101000a900460ff161515145b61093b576040517f08c379a0000000000000000000000000000000000000000000000000000000008152600401610932906133ee565b60405180910390fd5b600061094686612654565b905080851161098a576040517f08c379a00000000000000000000000000000000000000000000000000000000081526004016109819061345a565b60405180910390fd5b60006040518060a001604052804281526020018781526020013373ffffffffffffffffffffffffffffffffffffffff1681526020018681526020018561ffff1681525090508060026000898152602001908152602001600020600085600901548152602001908152602001600020600082015181600001556020820151816001015560408201518160020160006101000a81548173ffffffffffffffffffffffffffffffffffffffff021916908373ffffffffffffffffffffffffffffffffffffffff1602179055506060820151816003015560808201518160040160006101000a81548161ffff021916908361ffff160217905550905050848360050181905550600060018460090154610a9f91906134a9565b90508084600901819055508360010160009054906101000a900473ffffffffffffffffffffffffffffffffffffffff1673ffffffffffffffffffffffffffffffffffffffff166323b872dd33600260008c8152602001908152602001600020600085815260200190815260200160002060020160009054906101000a900473ffffffffffffffffffffffffffffffffffffffff16866040518463ffffffff1660e01b8152600401610b5293929190613293565b6020604051808303816000875af1158015610b71573d6000803e3d6000fd5b505050506040513d601f19601f82011682018060405250810190610b9591906134f2565b508360010160009054906101000a900473ffffffffffffffffffffffffffffffffffffffff1673ffffffffffffffffffffffffffffffffffffffff166323b872dd338660000160009054906101000a900473ffffffffffffffffffffffffffffffffffffffff16868b610c08919061351f565b6040518463ffffffff1660e01b8152600401610c2693929190613293565b6020604051808303816000875af1158015610c45573d6000803e3d6000fd5b505050506040513d601f19601f82011682018060405250810190610c6991906134f2565b505050505050505050565b813373ffffffffffffffffffffffffffffffffffffffff166001600083815260200190815260200160002060000160009054906101000a900473ffffffffffffffffffffffffffffffffffffffff1673ffffffffffffffffffffffffffffffffffffffff161480610d4657503373ffffffffffffffffffffffffffffffffffffffff166001600083815260200190815260200160002060020160009054906101000a900473ffffffffffffffffffffffffffffffffffffffff1673ffffffffffffffffffffffffffffffffffffffff16145b610d85576040517f08c379a0000000000000000000000000000000000000000000000000000000008152600401610d7c90613273565b60405180910390fd5b60006001600085815260200190815260200160002090508281600a0160016101000a81548160ff02191690831515021790555050505050565b803373ffffffffffffffffffffffffffffffffffffffff166001600083815260200190815260200160002060000160009054906101000a900473ffffffffffffffffffffffffffffffffffffffff1673ffffffffffffffffffffffffffffffffffffffff161480610e9057503373ffffffffffffffffffffffffffffffffffffffff166001600083815260200190815260200160002060020160009054906101000a900473ffffffffffffffffffffffffffffffffffffffff1673ffffffffffffffffffffffffffffffffffffffff16145b610ecf576040517f08c379a0000000000000000000000000000000000000000000000000000000008152600401610ec690613273565b60405180910390fd5b600060016000848152602001908152602001600020604051806101800160405290816000820160009054906101000a900473ffffffffffffffffffffffffffffffffffffffff1673ffffffffffffffffffffffffffffffffffffffff1673ffffffffffffffffffffffffffffffffffffffff1681526020016001820160009054906101000a900473ffffffffffffffffffffffffffffffffffffffff1673ffffffffffffffffffffffffffffffffffffffff1673ffffffffffffffffffffffffffffffffffffffff1681526020016002820160009054906101000a900473ffffffffffffffffffffffffffffffffffffffff1673ffffffffffffffffffffffffffffffffffffffff1673ffffffffffffffffffffffffffffffffffffffff1681526020016003820160009054906101000a900473ffffffffffffffffffffffffffffffffffffffff1673ffffffffffffffffffffffffffffffffffffffff1673ffffffffffffffffffffffffffffffffffffffff1681526020016004820160009054906101000a900473ffffffffffffffffffffffffffffffffffffffff1673ffffffffffffffffffffffffffffffffffffffff1673ffffffffffffffffffffffffffffffffffffffff1681526020016005820154815260200160068201548152602001600782015481526020016008820154815260200160098201548152602001600a820160009054906101000a900460ff16151515158152602001600a820160019054906101000a900460ff1615151515815250509050428160e001511161114e576040517f08c379a00000000000000000000000000000000000000000000000000000000081526004016111459061359f565b60405180910390fd5b611156612c48565b90507ffe785ef891129b084b1c5a30e4d88eb97c97822c024cc25d5f9d806b897512e0836040516111879190612d34565b60405180910390a1505050565b600060016000838152602001908152602001600020604051806101800160405290816000820160009054906101000a900473ffffffffffffffffffffffffffffffffffffffff1673ffffffffffffffffffffffffffffffffffffffff1673ffffffffffffffffffffffffffffffffffffffff1681526020016001820160009054906101000a900473ffffffffffffffffffffffffffffffffffffffff1673ffffffffffffffffffffffffffffffffffffffff1673ffffffffffffffffffffffffffffffffffffffff1681526020016002820160009054906101000a900473ffffffffffffffffffffffffffffffffffffffff1673ffffffffffffffffffffffffffffffffffffffff1673ffffffffffffffffffffffffffffffffffffffff1681526020016003820160009054906101000a900473ffffffffffffffffffffffffffffffffffffffff1673ffffffffffffffffffffffffffffffffffffffff1673ffffffffffffffffffffffffffffffffffffffff1681526020016004820160009054906101000a900473ffffffffffffffffffffffffffffffffffffffff1673ffffffffffffffffffffffffffffffffffffffff1673ffffffffffffffffffffffffffffffffffffffff1681526020016005820154815260200160068201548152602001600782015481526020016008820154815260200160098201548152602001600a820160009054906101000a900460ff16151515158152602001600a820160019054906101000a900460ff1615151515815250509050600060026000848152602001908152602001600020600083610120015181526020019081526020016000206040518060a001604052908160008201548152602001600182015481526020016002820160009054906101000a900473ffffffffffffffffffffffffffffffffffffffff1673ffffffffffffffffffffffffffffffffffffffff1673ffffffffffffffffffffffffffffffffffffffff168152602001600382015481526020016004820160009054906101000a900461ffff1661ffff1661ffff168152505090503373ffffffffffffffffffffffffffffffffffffffff16816040015173ffffffffffffffffffffffffffffffffffffffff161480156114dd57506114dc83612631565b5b806114fd575081610140015180156114fc57506114fb8282856129f5565b5b5b61153c576040517f08c379a000000000000000000000000000000000000000000000000000000000815260040161153390613631565b60405180910390fd5b6000826080015190508073ffffffffffffffffffffffffffffffffffffffff166342842e0e3084604001518660c001516040518463ffffffff1660e01b815260040161158a93929190613293565b600060405180830381600087803b1580156115a457600080fd5b505af11580156115b8573d6000803e3d6000fd5b505050507fcf3eafc70e544bbb0b7b916314be01382e9819ef1dea730bd182222030ffe4a9846040516115eb9190612d34565b60405180910390a16115fb612c48565b925050505050565b60046020528060005260406000206000915090505481565b6002602052816000526040600020602052806000526040600020600091509150508060000154908060010154908060020160009054906101000a900473ffffffffffffffffffffffffffffffffffffffff16908060030154908060040160009054906101000a900461ffff16905085565b428410156116cf576040517f08c379a00000000000000000000000000000000000000000000000000000000081526004016116c69061369d565b60405180910390fd5b838311611711576040517f08c379a000000000000000000000000000000000000000000000000000000000815260040161170890613709565b60405180910390fd5b6040518061018001604052808773ffffffffffffffffffffffffffffffffffffffff16636352211e886040518263ffffffff1660e01b81526004016117569190612d34565b602060405180830381865afa158015611773573d6000803e3d6000fd5b505050506040513d601f19601f82011682018060405250810190611797919061373e565b73ffffffffffffffffffffffffffffffffffffffff1681526020018973ffffffffffffffffffffffffffffffffffffffff1681526020018a73ffffffffffffffffffffffffffffffffffffffff1681526020018873ffffffffffffffffffffffffffffffffffffffff1681526020018773ffffffffffffffffffffffffffffffffffffffff16815260200160008152602001868152602001858152602001848152602001600081526020018315158152602001821515815250600160008054815260200190815260200160002060008201518160000160006101000a81548173ffffffffffffffffffffffffffffffffffffffff021916908373ffffffffffffffffffffffffffffffffffffffff16021790555060208201518160010160006101000a81548173ffffffffffffffffffffffffffffffffffffffff021916908373ffffffffffffffffffffffffffffffffffffffff16021790555060408201518160020160006101000a81548173ffffffffffffffffffffffffffffffffffffffff021916908373ffffffffffffffffffffffffffffffffffffffff16021790555060608201518160030160006101000a81548173ffffffffffffffffffffffffffffffffffffffff021916908373ffffffffffffffffffffffffffffffffffffffff16021790555060808201518160040160006101000a81548173ffffffffffffffffffffffffffffffffffffffff021916908373ffffffffffffffffffffffffffffffffffffffff16021790555060a0820151816005015560c0820151816006015560e082015181600701556101008201518160080155610120820151816009015561014082015181600a0160006101000a81548160ff02191690831515021790555061016082015181600a0160016101000a81548160ff0219169083151502179055509050504260026000805481526020019081526020016000206000808152602001908152602001600020600001819055506000547fef8b2952c43462575e82711d0cc91169720a4589a9fa533d173e022437f5405e8787604051611aa192919061376b565b60405180910390a2600080815480929190611abb90613794565b9190505550505050505050505050565b611ad48261260f565b611b13576040517f08c379a0000000000000000000000000000000000000000000000000000000008152600401611b0a90613316565b60405180910390fd5b611b1c82612631565b15611b5c576040517f08c379a0000000000000000000000000000000000000000000000000000000008152600401611b5390613382565b60405180910390fd5b600060016000848152602001908152602001600020604051806101800160405290816000820160009054906101000a900473ffffffffffffffffffffffffffffffffffffffff1673ffffffffffffffffffffffffffffffffffffffff1673ffffffffffffffffffffffffffffffffffffffff1681526020016001820160009054906101000a900473ffffffffffffffffffffffffffffffffffffffff1673ffffffffffffffffffffffffffffffffffffffff1673ffffffffffffffffffffffffffffffffffffffff1681526020016002820160009054906101000a900473ffffffffffffffffffffffffffffffffffffffff1673ffffffffffffffffffffffffffffffffffffffff1673ffffffffffffffffffffffffffffffffffffffff1681526020016003820160009054906101000a900473ffffffffffffffffffffffffffffffffffffffff1673ffffffffffffffffffffffffffffffffffffffff1673ffffffffffffffffffffffffffffffffffffffff1681526020016004820160009054906101000a900473ffffffffffffffffffffffffffffffffffffffff1673ffffffffffffffffffffffffffffffffffffffff1673ffffffffffffffffffffffffffffffffffffffff1681526020016005820154815260200160068201548152602001600782015481526020016008820154815260200160098201548152602001600a820160009054906101000a900460ff16151515158152602001600a820160019054906101000a900460ff16151515158152505090506000600260008581526020019081526020016000206000836101200151815260200190815260200160002090503373ffffffffffffffffffffffffffffffffffffffff168160020160009054906101000a900473ffffffffffffffffffffffffffffffffffffffff1673ffffffffffffffffffffffffffffffffffffffff1614611e54576040517f08c379a0000000000000000000000000000000000000000000000000000000008152600401611e4b90613828565b60405180910390fd5b828160020160006101000a81548173ffffffffffffffffffffffffffffffffffffffff021916908373ffffffffffffffffffffffffffffffffffffffff16021790555050505050565b60036020528160005260406000206020528060005260406000206000915091509054906101000a900460ff1681565b813373ffffffffffffffffffffffffffffffffffffffff166001600083815260200190815260200160002060000160009054906101000a900473ffffffffffffffffffffffffffffffffffffffff1673ffffffffffffffffffffffffffffffffffffffff161480611f9e57503373ffffffffffffffffffffffffffffffffffffffff166001600083815260200190815260200160002060020160009054906101000a900473ffffffffffffffffffffffffffffffffffffffff1673ffffffffffffffffffffffffffffffffffffffff16145b611fdd576040517f08c379a0000000000000000000000000000000000000000000000000000000008152600401611fd490613273565b60405180910390fd5b600060016000858152602001908152602001600020604051806101800160405290816000820160009054906101000a900473ffffffffffffffffffffffffffffffffffffffff1673ffffffffffffffffffffffffffffffffffffffff1673ffffffffffffffffffffffffffffffffffffffff1681526020016001820160009054906101000a900473ffffffffffffffffffffffffffffffffffffffff1673ffffffffffffffffffffffffffffffffffffffff1673ffffffffffffffffffffffffffffffffffffffff1681526020016002820160009054906101000a900473ffffffffffffffffffffffffffffffffffffffff1673ffffffffffffffffffffffffffffffffffffffff1673ffffffffffffffffffffffffffffffffffffffff1681526020016003820160009054906101000a900473ffffffffffffffffffffffffffffffffffffffff1673ffffffffffffffffffffffffffffffffffffffff1673ffffffffffffffffffffffffffffffffffffffff1681526020016004820160009054906101000a900473ffffffffffffffffffffffffffffffffffffffff1673ffffffffffffffffffffffffffffffffffffffff1673ffffffffffffffffffffffffffffffffffffffff1681526020016005820154815260200160068201548152602001600782015481526020016008820154815260200160098201548152602001600a820160009054906101000a900460ff16151515158152602001600a820160019054906101000a900460ff1615151515815250509050600060026000868152602001908152602001600020600083610120015181526020019081526020016000206040518060a001604052908160008201548152602001600182015481526020016002820160009054906101000a900473ffffffffffffffffffffffffffffffffffffffff1673ffffffffffffffffffffffffffffffffffffffff1673ffffffffffffffffffffffffffffffffffffffff168152602001600382015481526020016004820160009054906101000a900461ffff1661ffff1661ffff16815250509050816020015173ffffffffffffffffffffffffffffffffffffffff166323b872dd3330876040518463ffffffff1660e01b815260040161232393929190613293565b6020604051808303816000875af1158015612342573d6000803e3d6000fd5b505050506040513d601f19601f8201168201806040525081019061236691906134f2565b5061237085612654565b60046000878152602001908152602001600020548561238f91906134a9565b10612457576000826080015190508073ffffffffffffffffffffffffffffffffffffffff166342842e0e3084604001518660c001516040518463ffffffff1660e01b81526004016123e293929190613293565b600060405180830381600087803b1580156123fc57600080fd5b505af1158015612410573d6000803e3d6000fd5b505050507fcf3eafc70e544bbb0b7b916314be01382e9819ef1dea730bd182222030ffe4a9866040516124439190612d34565b60405180910390a1612453612c48565b9250505b8360046000878152602001908152602001600020600082825461247a91906134a9565b925050819055505050505050565b60016020528060005260406000206000915090508060000160009054906101000a900473ffffffffffffffffffffffffffffffffffffffff16908060010160009054906101000a900473ffffffffffffffffffffffffffffffffffffffff16908060020160009054906101000a900473ffffffffffffffffffffffffffffffffffffffff16908060030160009054906101000a900473ffffffffffffffffffffffffffffffffffffffff16908060040160009054906101000a900473ffffffffffffffffffffffffffffffffffffffff169080600501549080600601549080600701549080600801549080600901549080600a0160009054906101000a900460ff169080600a0160019054906101000a900460ff1690508c565b806003600085815260200190815260200160002060008473ffffffffffffffffffffffffffffffffffffffff1673ffffffffffffffffffffffffffffffffffffffff16815260200190815260200160002060006101000a81548160ff021916908315150217905550505050565b6000426001600084815260200190815260200160002060070154109050919050565b600042600160008481526020019081526020016000206008015411159050919050565b60008060016000848152602001908152602001600020604051806101800160405290816000820160009054906101000a900473ffffffffffffffffffffffffffffffffffffffff1673ffffffffffffffffffffffffffffffffffffffff1673ffffffffffffffffffffffffffffffffffffffff1681526020016001820160009054906101000a900473ffffffffffffffffffffffffffffffffffffffff1673ffffffffffffffffffffffffffffffffffffffff1673ffffffffffffffffffffffffffffffffffffffff1681526020016002820160009054906101000a900473ffffffffffffffffffffffffffffffffffffffff1673ffffffffffffffffffffffffffffffffffffffff1673ffffffffffffffffffffffffffffffffffffffff1681526020016003820160009054906101000a900473ffffffffffffffffffffffffffffffffffffffff1673ffffffffffffffffffffffffffffffffffffffff1673ffffffffffffffffffffffffffffffffffffffff1681526020016004820160009054906101000a900473ffffffffffffffffffffffffffffffffffffffff1673ffffffffffffffffffffffffffffffffffffffff1673ffffffffffffffffffffffffffffffffffffffff1681526020016005820154815260200160068201548152602001600782015481526020016008820154815260200160098201548152602001600a820160009054906101000a900460ff16151515158152602001600a820160019054906101000a900460ff1615151515815250509050600060026000858152602001908152602001600020600083610120015181526020019081526020016000206040518060a001604052908160008201548152602001600182015481526020016002820160009054906101000a900473ffffffffffffffffffffffffffffffffffffffff1673ffffffffffffffffffffffffffffffffffffffff1673ffffffffffffffffffffffffffffffffffffffff168152602001600382015481526020016004820160009054906101000a900461ffff1661ffff1661ffff16815250509050600061296585612631565b1561298657826101000151826000015161297f919061351f565b9050612999565b428260000151612996919061351f565b90505b60006129c08460a00151678ac7230489e800008560200151612b6d9092919063ffffffff16565b90506129db826301e1338083612b6d9092919063ffffffff16565b83602001516129ea91906134a9565b945050505050919050565b600080846060015173ffffffffffffffffffffffffffffffffffffffff1663fc57d4df86602001516040518263ffffffff1660e01b8152600401612a399190613848565b602060405180830381865afa158015612a56573d6000803e3d6000fd5b505050506040513d601f19601f82011682018060405250810190612a7a9190613878565b856060015173ffffffffffffffffffffffffffffffffffffffff166306cd702c87608001518860c001516040518363ffffffff1660e01b8152600401612ac192919061376b565b602060405180830381865afa158015612ade573d6000803e3d6000fd5b505050506040513d601f19601f82011682018060405250810190612b029190613878565b612b0c91906138d4565b9050600181856080015161ffff16612b249190613905565b60046000868152602001908152602001600020548660200151612b47919061351f565b612b5191906138d4565b10612b60576000915050612b66565b60019150505b9392505050565b6000806000801985870985870292508281108382030391505060008103612ba857838281612b9e57612b9d6138a5565b5b0492505050612c41565b808411612bb457600080fd5b60008486880990508281118203915080830392506000600186190186169050808604955080840493506001818260000304019050808302841793506000600287600302189050808702600203810290508087026002038102905080870260020381029050808702600203810290508087026002038102905080870260020381029050808502955050505050505b9392505050565b604051806101800160405280600073ffffffffffffffffffffffffffffffffffffffff168152602001600073ffffffffffffffffffffffffffffffffffffffff168152602001600073ffffffffffffffffffffffffffffffffffffffff168152602001600073ffffffffffffffffffffffffffffffffffffffff168152602001600073ffffffffffffffffffffffffffffffffffffffff16815260200160008152602001600081526020016000815260200160008152602001600081526020016000151581526020016000151581525090565b6000819050919050565b612d2e81612d1b565b82525050565b6000602082019050612d496000830184612d25565b92915050565b600080fd5b612d5d81612d1b565b8114612d6857600080fd5b50565b600081359050612d7a81612d54565b92915050565b600060208284031215612d9657612d95612d4f565b5b6000612da484828501612d6b565b91505092915050565b600061ffff82169050919050565b612dc481612dad565b8114612dcf57600080fd5b50565b600081359050612de181612dbb565b92915050565b60008060008060808587031215612e0157612e00612d4f565b5b6000612e0f87828801612d6b565b9450506020612e2087828801612d6b565b9350506040612e3187828801612d6b565b9250506060612e4287828801612dd2565b91505092959194509250565b60008115159050919050565b612e6381612e4e565b8114612e6e57600080fd5b50565b600081359050612e8081612e5a565b92915050565b60008060408385031215612e9d57612e9c612d4f565b5b6000612eab85828601612d6b565b9250506020612ebc85828601612e71565b9150509250929050565b60008060408385031215612edd57612edc612d4f565b5b6000612eeb85828601612d6b565b9250506020612efc85828601612d6b565b9150509250929050565b600073ffffffffffffffffffffffffffffffffffffffff82169050919050565b6000612f3182612f06565b9050919050565b612f4181612f26565b82525050565b612f5081612dad565b82525050565b600060a082019050612f6b6000830188612d25565b612f786020830187612d25565b612f856040830186612f38565b612f926060830185612d25565b612f9f6080830184612f47565b9695505050505050565b612fb281612f26565b8114612fbd57600080fd5b50565b600081359050612fcf81612fa9565b92915050565b60008060008060008060008060006101208a8c031215612ff857612ff7612d4f565b5b60006130068c828d01612fc0565b99505060206130178c828d01612fc0565b98505060406130288c828d01612fc0565b97505060606130398c828d01612fc0565b965050608061304a8c828d01612d6b565b95505060a061305b8c828d01612d6b565b94505060c061306c8c828d01612d6b565b93505060e061307d8c828d01612e71565b92505061010061308f8c828d01612e71565b9150509295985092959850929598565b600080604083850312156130b6576130b5612d4f565b5b60006130c485828601612d6b565b92505060206130d585828601612fc0565b9150509250929050565b6130e881612e4e565b82525050565b600060208201905061310360008301846130df565b92915050565b60006101808201905061311f600083018f612f38565b61312c602083018e612f38565b613139604083018d612f38565b613146606083018c612f38565b613153608083018b612f38565b61316060a083018a612d25565b61316d60c0830189612d25565b61317a60e0830188612d25565b613188610100830187612d25565b613196610120830186612d25565b6131a46101408301856130df565b6131b26101608301846130df565b9d9c50505050505050505050505050565b6000806000606084860312156131dc576131db612d4f565b5b60006131ea86828701612d6b565b93505060206131fb86828701612fc0565b925050604061320c86828701612e71565b9150509250925092565b600082825260208201905092915050565b7f4c414e3a206e6f74206f776e6572000000000000000000000000000000000000600082015250565b600061325d600e83613216565b915061326882613227565b602082019050919050565b6000602082019050818103600083015261328c81613250565b9050919050565b60006060820190506132a86000830186612f38565b6132b56020830185612f38565b6132c26040830184612d25565b949350505050565b7f4c414e3a206e6f74207374617274656400000000000000000000000000000000600082015250565b6000613300601083613216565b915061330b826132ca565b602082019050919050565b6000602082019050818103600083015261332f816132f3565b9050919050565b7f4c414e3a20616c726561647920656e6465640000000000000000000000000000600082015250565b600061336c601283613216565b915061337782613336565b602082019050919050565b6000602082019050818103600083015261339b8161335f565b9050919050565b7f4c414e3a204e6f742057686974656c6973746564000000000000000000000000600082015250565b60006133d8601483613216565b91506133e3826133a2565b602082019050919050565b60006020820190508181036000830152613407816133cb565b9050919050565b7f4c414e3a20626964206e6f742068696768657200000000000000000000000000600082015250565b6000613444601383613216565b915061344f8261340e565b602082019050919050565b6000602082019050818103600083015261347381613437565b9050919050565b7f4e487b7100000000000000000000000000000000000000000000000000000000600052601160045260246000fd5b60006134b482612d1b565b91506134bf83612d1b565b92508282019050808211156134d7576134d661347a565b5b92915050565b6000815190506134ec81612e5a565b92915050565b60006020828403121561350857613507612d4f565b5b6000613516848285016134dd565b91505092915050565b600061352a82612d1b565b915061353583612d1b565b925082820390508181111561354d5761354c61347a565b5b92915050565b7f4c414e3a20616c72656164792073746172746564000000000000000000000000600082015250565b6000613589601483613216565b915061359482613553565b602082019050919050565b600060208201905081810360008301526135b88161357c565b9050919050565b7f4c414e3a206e6f74206c6174657374206269646465722f6e6f746f7665722c2060008201527f6f72206e6f74206c6971756964617461626c6500000000000000000000000000602082015250565b600061361b603383613216565b9150613626826135bf565b604082019050919050565b6000602082019050818103600083015261364a8161360e565b9050919050565b7f4c414e3a2073746172742074696d6520696e2070617374000000000000000000600082015250565b6000613687601783613216565b915061369282613651565b602082019050919050565b600060208201905081810360008301526136b68161367a565b9050919050565b7f4c414e3a20737461727420616674657220656e64000000000000000000000000600082015250565b60006136f3601483613216565b91506136fe826136bd565b602082019050919050565b60006020820190508181036000830152613722816136e6565b9050919050565b60008151905061373881612fa9565b92915050565b60006020828403121561375457613753612d4f565b5b600061376284828501613729565b91505092915050565b60006040820190506137806000830185612f38565b61378d6020830184612d25565b9392505050565b600061379f82612d1b565b91507fffffffffffffffffffffffffffffffffffffffffffffffffffffffffffffffff82036137d1576137d061347a565b5b600182019050919050565b7f4c414e3a204e6f7420746865206c617465737420626964646572000000000000600082015250565b6000613812601a83613216565b915061381d826137dc565b602082019050919050565b6000602082019050818103600083015261384181613805565b9050919050565b600060208201905061385d6000830184612f38565b92915050565b60008151905061387281612d54565b92915050565b60006020828403121561388e5761388d612d4f565b5b600061389c84828501613863565b91505092915050565b7f4e487b7100000000000000000000000000000000000000000000000000000000600052601260045260246000fd5b60006138df82612d1b565b91506138ea83612d1b565b9250826138fa576138f96138a5565b5b828204905092915050565b600061391082612d1b565b915061391b83612d1b565b925082820261392981612d1b565b915082820484148315176139405761393f61347a565b5b509291505056fea2646970667358221220006e3618bb72064553a3cb6eb344835c5e37da9c72913c21fe76b9d8195b7d6e64736f6c63430008110033",
					"opcodes": "PUSH1 0x80 PUSH1 0x40 MSTORE CALLVALUE DUP1 ISZERO PUSH2 0x10 JUMPI PUSH1 0x0 DUP1 REVERT JUMPDEST POP PUSH2 0x397D DUP1 PUSH2 0x20 PUSH1 0x0 CODECOPY PUSH1 0x0 RETURN INVALID PUSH1 0x80 PUSH1 0x40 MSTORE CALLVALUE DUP1 ISZERO PUSH2 0x10 JUMPI PUSH1 0x0 DUP1 REVERT JUMPDEST POP PUSH1 0x4 CALLDATASIZE LT PUSH2 0xEA JUMPI PUSH1 0x0 CALLDATALOAD PUSH1 0xE0 SHR DUP1 PUSH4 0x7B3C4BAA GT PUSH2 0x8C JUMPI DUP1 PUSH4 0xA23B02BD GT PUSH2 0x66 JUMPI DUP1 PUSH4 0xA23B02BD EQ PUSH2 0x235 JUMPI DUP1 PUSH4 0xD8AED145 EQ PUSH2 0x265 JUMPI DUP1 PUSH4 0xE1EC3C68 EQ PUSH2 0x281 JUMPI DUP1 PUSH4 0xF724E48E EQ PUSH2 0x2BC JUMPI PUSH2 0xEA JUMP JUMPDEST DUP1 PUSH4 0x7B3C4BAA EQ PUSH2 0x1C9 JUMPI DUP1 PUSH4 0x89E257A3 EQ PUSH2 0x1FD JUMPI DUP1 PUSH4 0x8F769F3A EQ PUSH2 0x219 JUMPI PUSH2 0xEA JUMP JUMPDEST DUP1 PUSH4 0x222FDF21 GT PUSH2 0xC8 JUMPI DUP1 PUSH4 0x222FDF21 EQ PUSH2 0x145 JUMPI DUP1 PUSH4 0x40E58EE5 EQ PUSH2 0x161 JUMPI DUP1 PUSH4 0x415F1240 EQ PUSH2 0x17D JUMPI DUP1 PUSH4 0x7A4656D6 EQ PUSH2 0x199 JUMPI PUSH2 0xEA JUMP JUMPDEST DUP1 PUSH4 0x6661ABD EQ PUSH2 0xEF JUMPI DUP1 PUSH4 0x18DE4F9D EQ PUSH2 0x10D JUMPI DUP1 PUSH4 0x2168ED30 EQ PUSH2 0x129 JUMPI JUMPDEST PUSH1 0x0 DUP1 REVERT JUMPDEST PUSH2 0xF7 PUSH2 0x2D8 JUMP JUMPDEST PUSH1 0x40 MLOAD PUSH2 0x104 SWAP2 SWAP1 PUSH2 0x2D34 JUMP JUMPDEST PUSH1 0x40 MLOAD DUP1 SWAP2 SUB SWAP1 RETURN JUMPDEST PUSH2 0x127 PUSH1 0x4 DUP1 CALLDATASIZE SUB DUP2 ADD SWAP1 PUSH2 0x122 SWAP2 SWAP1 PUSH2 0x2D80 JUMP JUMPDEST PUSH2 0x2DE JUMP JUMPDEST STOP JUMPDEST PUSH2 0x143 PUSH1 0x4 DUP1 CALLDATASIZE SUB DUP2 ADD SWAP1 PUSH2 0x13E SWAP2 SWAP1 PUSH2 0x2DE7 JUMP JUMPDEST PUSH2 0x7BC JUMP JUMPDEST STOP JUMPDEST PUSH2 0x15F PUSH1 0x4 DUP1 CALLDATASIZE SUB DUP2 ADD SWAP1 PUSH2 0x15A SWAP2 SWAP1 PUSH2 0x2E86 JUMP JUMPDEST PUSH2 0xC74 JUMP JUMPDEST STOP JUMPDEST PUSH2 0x17B PUSH1 0x4 DUP1 CALLDATASIZE SUB DUP2 ADD SWAP1 PUSH2 0x176 SWAP2 SWAP1 PUSH2 0x2D80 JUMP JUMPDEST PUSH2 0xDBE JUMP JUMPDEST STOP JUMPDEST PUSH2 0x197 PUSH1 0x4 DUP1 CALLDATASIZE SUB DUP2 ADD SWAP1 PUSH2 0x192 SWAP2 SWAP1 PUSH2 0x2D80 JUMP JUMPDEST PUSH2 0x1194 JUMP JUMPDEST STOP JUMPDEST PUSH2 0x1B3 PUSH1 0x4 DUP1 CALLDATASIZE SUB DUP2 ADD SWAP1 PUSH2 0x1AE SWAP2 SWAP1 PUSH2 0x2D80 JUMP JUMPDEST PUSH2 0x1603 JUMP JUMPDEST PUSH1 0x40 MLOAD PUSH2 0x1C0 SWAP2 SWAP1 PUSH2 0x2D34 JUMP JUMPDEST PUSH1 0x40 MLOAD DUP1 SWAP2 SUB SWAP1 RETURN JUMPDEST PUSH2 0x1E3 PUSH1 0x4 DUP1 CALLDATASIZE SUB DUP2 ADD SWAP1 PUSH2 0x1DE SWAP2 SWAP1 PUSH2 0x2EC6 JUMP JUMPDEST PUSH2 0x161B JUMP JUMPDEST PUSH1 0x40 MLOAD PUSH2 0x1F4 SWAP6 SWAP5 SWAP4 SWAP3 SWAP2 SWAP1 PUSH2 0x2F56 JUMP JUMPDEST PUSH1 0x40 MLOAD DUP1 SWAP2 SUB SWAP1 RETURN JUMPDEST PUSH2 0x217 PUSH1 0x4 DUP1 CALLDATASIZE SUB DUP2 ADD SWAP1 PUSH2 0x212 SWAP2 SWAP1 PUSH2 0x2FD5 JUMP JUMPDEST PUSH2 0x168C JUMP JUMPDEST STOP JUMPDEST PUSH2 0x233 PUSH1 0x4 DUP1 CALLDATASIZE SUB DUP2 ADD SWAP1 PUSH2 0x22E SWAP2 SWAP1 PUSH2 0x309F JUMP JUMPDEST PUSH2 0x1ACB JUMP JUMPDEST STOP JUMPDEST PUSH2 0x24F PUSH1 0x4 DUP1 CALLDATASIZE SUB DUP2 ADD SWAP1 PUSH2 0x24A SWAP2 SWAP1 PUSH2 0x309F JUMP JUMPDEST PUSH2 0x1E9D JUMP JUMPDEST PUSH1 0x40 MLOAD PUSH2 0x25C SWAP2 SWAP1 PUSH2 0x30EE JUMP JUMPDEST PUSH1 0x40 MLOAD DUP1 SWAP2 SUB SWAP1 RETURN JUMPDEST PUSH2 0x27F PUSH1 0x4 DUP1 CALLDATASIZE SUB DUP2 ADD SWAP1 PUSH2 0x27A SWAP2 SWAP1 PUSH2 0x2EC6 JUMP JUMPDEST PUSH2 0x1ECC JUMP JUMPDEST STOP JUMPDEST PUSH2 0x29B PUSH1 0x4 DUP1 CALLDATASIZE SUB DUP2 ADD SWAP1 PUSH2 0x296 SWAP2 SWAP1 PUSH2 0x2D80 JUMP JUMPDEST PUSH2 0x2488 JUMP JUMPDEST PUSH1 0x40 MLOAD PUSH2 0x2B3 SWAP13 SWAP12 SWAP11 SWAP10 SWAP9 SWAP8 SWAP7 SWAP6 SWAP5 SWAP4 SWAP3 SWAP2 SWAP1 PUSH2 0x3109 JUMP JUMPDEST PUSH1 0x40 MLOAD DUP1 SWAP2 SUB SWAP1 RETURN JUMPDEST PUSH2 0x2D6 PUSH1 0x4 DUP1 CALLDATASIZE SUB DUP2 ADD SWAP1 PUSH2 0x2D1 SWAP2 SWAP1 PUSH2 0x31C3 JUMP JUMPDEST PUSH2 0x25A2 JUMP JUMPDEST STOP JUMPDEST PUSH1 0x0 SLOAD DUP2 JUMP JUMPDEST DUP1 CALLER PUSH20 0xFFFFFFFFFFFFFFFFFFFFFFFFFFFFFFFFFFFFFFFF AND PUSH1 0x1 PUSH1 0x0 DUP4 DUP2 MSTORE PUSH1 0x20 ADD SWAP1 DUP2 MSTORE PUSH1 0x20 ADD PUSH1 0x0 KECCAK256 PUSH1 0x0 ADD PUSH1 0x0 SWAP1 SLOAD SWAP1 PUSH2 0x100 EXP SWAP1 DIV PUSH20 0xFFFFFFFFFFFFFFFFFFFFFFFFFFFFFFFFFFFFFFFF AND PUSH20 0xFFFFFFFFFFFFFFFFFFFFFFFFFFFFFFFFFFFFFFFF AND EQ DUP1 PUSH2 0x3B0 JUMPI POP CALLER PUSH20 0xFFFFFFFFFFFFFFFFFFFFFFFFFFFFFFFFFFFFFFFF AND PUSH1 0x1 PUSH1 0x0 DUP4 DUP2 MSTORE PUSH1 0x20 ADD SWAP1 DUP2 MSTORE PUSH1 0x20 ADD PUSH1 0x0 KECCAK256 PUSH1 0x2 ADD PUSH1 0x0 SWAP1 SLOAD SWAP1 PUSH2 0x100 EXP SWAP1 DIV PUSH20 0xFFFFFFFFFFFFFFFFFFFFFFFFFFFFFFFFFFFFFFFF AND PUSH20 0xFFFFFFFFFFFFFFFFFFFFFFFFFFFFFFFFFFFFFFFF AND EQ JUMPDEST PUSH2 0x3EF JUMPI PUSH1 0x40 MLOAD PUSH32 0x8C379A000000000000000000000000000000000000000000000000000000000 DUP2 MSTORE PUSH1 0x4 ADD PUSH2 0x3E6 SWAP1 PUSH2 0x3273 JUMP JUMPDEST PUSH1 0x40 MLOAD DUP1 SWAP2 SUB SWAP1 REVERT JUMPDEST PUSH1 0x0 PUSH1 0x1 PUSH1 0x0 DUP5 DUP2 MSTORE PUSH1 0x20 ADD SWAP1 DUP2 MSTORE PUSH1 0x20 ADD PUSH1 0x0 KECCAK256 PUSH1 0x40 MLOAD DUP1 PUSH2 0x180 ADD PUSH1 0x40 MSTORE SWAP1 DUP2 PUSH1 0x0 DUP3 ADD PUSH1 0x0 SWAP1 SLOAD SWAP1 PUSH2 0x100 EXP SWAP1 DIV PUSH20 0xFFFFFFFFFFFFFFFFFFFFFFFFFFFFFFFFFFFFFFFF AND PUSH20 0xFFFFFFFFFFFFFFFFFFFFFFFFFFFFFFFFFFFFFFFF AND PUSH20 0xFFFFFFFFFFFFFFFFFFFFFFFFFFFFFFFFFFFFFFFF AND DUP2 MSTORE PUSH1 0x20 ADD PUSH1 0x1 DUP3 ADD PUSH1 0x0 SWAP1 SLOAD SWAP1 PUSH2 0x100 EXP SWAP1 DIV PUSH20 0xFFFFFFFFFFFFFFFFFFFFFFFFFFFFFFFFFFFFFFFF AND PUSH20 0xFFFFFFFFFFFFFFFFFFFFFFFFFFFFFFFFFFFFFFFF AND PUSH20 0xFFFFFFFFFFFFFFFFFFFFFFFFFFFFFFFFFFFFFFFF AND DUP2 MSTORE PUSH1 0x20 ADD PUSH1 0x2 DUP3 ADD PUSH1 0x0 SWAP1 SLOAD SWAP1 PUSH2 0x100 EXP SWAP1 DIV PUSH20 0xFFFFFFFFFFFFFFFFFFFFFFFFFFFFFFFFFFFFFFFF AND PUSH20 0xFFFFFFFFFFFFFFFFFFFFFFFFFFFFFFFFFFFFFFFF AND PUSH20 0xFFFFFFFFFFFFFFFFFFFFFFFFFFFFFFFFFFFFFFFF AND DUP2 MSTORE PUSH1 0x20 ADD PUSH1 0x3 DUP3 ADD PUSH1 0x0 SWAP1 SLOAD SWAP1 PUSH2 0x100 EXP SWAP1 DIV PUSH20 0xFFFFFFFFFFFFFFFFFFFFFFFFFFFFFFFFFFFFFFFF AND PUSH20 0xFFFFFFFFFFFFFFFFFFFFFFFFFFFFFFFFFFFFFFFF AND PUSH20 0xFFFFFFFFFFFFFFFFFFFFFFFFFFFFFFFFFFFFFFFF AND DUP2 MSTORE PUSH1 0x20 ADD PUSH1 0x4 DUP3 ADD PUSH1 0x0 SWAP1 SLOAD SWAP1 PUSH2 0x100 EXP SWAP1 DIV PUSH20 0xFFFFFFFFFFFFFFFFFFFFFFFFFFFFFFFFFFFFFFFF AND PUSH20 0xFFFFFFFFFFFFFFFFFFFFFFFFFFFFFFFFFFFFFFFF AND PUSH20 0xFFFFFFFFFFFFFFFFFFFFFFFFFFFFFFFFFFFFFFFF AND DUP2 MSTORE PUSH1 0x20 ADD PUSH1 0x5 DUP3 ADD SLOAD DUP2 MSTORE PUSH1 0x20 ADD PUSH1 0x6 DUP3 ADD SLOAD DUP2 MSTORE PUSH1 0x20 ADD PUSH1 0x7 DUP3 ADD SLOAD DUP2 MSTORE PUSH1 0x20 ADD PUSH1 0x8 DUP3 ADD SLOAD DUP2 MSTORE PUSH1 0x20 ADD PUSH1 0x9 DUP3 ADD SLOAD DUP2 MSTORE PUSH1 0x20 ADD PUSH1 0xA DUP3 ADD PUSH1 0x0 SWAP1 SLOAD SWAP1 PUSH2 0x100 EXP SWAP1 DIV PUSH1 0xFF AND ISZERO ISZERO ISZERO ISZERO DUP2 MSTORE PUSH1 0x20 ADD PUSH1 0xA DUP3 ADD PUSH1 0x1 SWAP1 SLOAD SWAP1 PUSH2 0x100 EXP SWAP1 DIV PUSH1 0xFF AND ISZERO ISZERO ISZERO ISZERO DUP2 MSTORE POP POP SWAP1 POP PUSH1 0x0 PUSH1 0x2 PUSH1 0x0 DUP6 DUP2 MSTORE PUSH1 0x20 ADD SWAP1 DUP2 MSTORE PUSH1 0x20 ADD PUSH1 0x0 KECCAK256 PUSH1 0x0 DUP4 PUSH2 0x120 ADD MLOAD DUP2 MSTORE PUSH1 0x20 ADD SWAP1 DUP2 MSTORE PUSH1 0x20 ADD PUSH1 0x0 KECCAK256 PUSH1 0x40 MLOAD DUP1 PUSH1 0xA0 ADD PUSH1 0x40 MSTORE SWAP1 DUP2 PUSH1 0x0 DUP3 ADD SLOAD DUP2 MSTORE PUSH1 0x20 ADD PUSH1 0x1 DUP3 ADD SLOAD DUP2 MSTORE PUSH1 0x20 ADD PUSH1 0x2 DUP3 ADD PUSH1 0x0 SWAP1 SLOAD SWAP1 PUSH2 0x100 EXP SWAP1 DIV PUSH20 0xFFFFFFFFFFFFFFFFFFFFFFFFFFFFFFFFFFFFFFFF AND PUSH20 0xFFFFFFFFFFFFFFFFFFFFFFFFFFFFFFFFFFFFFFFF AND PUSH20 0xFFFFFFFFFFFFFFFFFFFFFFFFFFFFFFFFFFFFFFFF AND DUP2 MSTORE PUSH1 0x20 ADD PUSH1 0x3 DUP3 ADD SLOAD DUP2 MSTORE PUSH1 0x20 ADD PUSH1 0x4 DUP3 ADD PUSH1 0x0 SWAP1 SLOAD SWAP1 PUSH2 0x100 EXP SWAP1 DIV PUSH2 0xFFFF AND PUSH2 0xFFFF AND PUSH2 0xFFFF AND DUP2 MSTORE POP POP SWAP1 POP PUSH1 0x0 DUP3 PUSH1 0x80 ADD MLOAD SWAP1 POP DUP1 PUSH20 0xFFFFFFFFFFFFFFFFFFFFFFFFFFFFFFFFFFFFFFFF AND PUSH4 0x42842E0E ADDRESS DUP5 PUSH1 0x40 ADD MLOAD DUP7 PUSH1 0xC0 ADD MLOAD PUSH1 0x40 MLOAD DUP5 PUSH4 0xFFFFFFFF AND PUSH1 0xE0 SHL DUP2 MSTORE PUSH1 0x4 ADD PUSH2 0x742 SWAP4 SWAP3 SWAP2 SWAP1 PUSH2 0x3293 JUMP JUMPDEST PUSH1 0x0 PUSH1 0x40 MLOAD DUP1 DUP4 SUB DUP2 PUSH1 0x0 DUP8 DUP1 EXTCODESIZE ISZERO DUP1 ISZERO PUSH2 0x75C JUMPI PUSH1 0x0 DUP1 REVERT JUMPDEST POP GAS CALL ISZERO DUP1 ISZERO PUSH2 0x770 JUMPI RETURNDATASIZE PUSH1 0x0 DUP1 RETURNDATACOPY RETURNDATASIZE PUSH1 0x0 REVERT JUMPDEST POP POP POP POP PUSH32 0xCF3EAFC70E544BBB0B7B916314BE01382E9819EF1DEA730BD182222030FFE4A9 DUP6 PUSH1 0x40 MLOAD PUSH2 0x7A3 SWAP2 SWAP1 PUSH2 0x2D34 JUMP JUMPDEST PUSH1 0x40 MLOAD DUP1 SWAP2 SUB SWAP1 LOG1 PUSH2 0x7B3 PUSH2 0x2C48 JUMP JUMPDEST SWAP3 POP POP POP POP POP POP JUMP JUMPDEST PUSH2 0x7C5 DUP5 PUSH2 0x260F JUMP JUMPDEST PUSH2 0x804 JUMPI PUSH1 0x40 MLOAD PUSH32 0x8C379A000000000000000000000000000000000000000000000000000000000 DUP2 MSTORE PUSH1 0x4 ADD PUSH2 0x7FB SWAP1 PUSH2 0x3316 JUMP JUMPDEST PUSH1 0x40 MLOAD DUP1 SWAP2 SUB SWAP1 REVERT JUMPDEST PUSH2 0x80D DUP5 PUSH2 0x2631 JUMP JUMPDEST ISZERO PUSH2 0x84D JUMPI PUSH1 0x40 MLOAD PUSH32 0x8C379A000000000000000000000000000000000000000000000000000000000 DUP2 MSTORE PUSH1 0x4 ADD PUSH2 0x844 SWAP1 PUSH2 0x3382 JUMP JUMPDEST PUSH1 0x40 MLOAD DUP1 SWAP2 SUB SWAP1 REVERT JUMPDEST PUSH1 0x0 PUSH1 0x1 PUSH1 0x0 DUP7 DUP2 MSTORE PUSH1 0x20 ADD SWAP1 DUP2 MSTORE PUSH1 0x20 ADD PUSH1 0x0 KECCAK256 SWAP1 POP DUP1 PUSH1 0xA ADD PUSH1 0x1 SWAP1 SLOAD SWAP1 PUSH2 0x100 EXP SWAP1 DIV PUSH1 0xFF AND DUP1 ISZERO PUSH2 0x8DC JUMPI POP PUSH1 0x3 PUSH1 0x0 DUP7 DUP2 MSTORE PUSH1 0x20 ADD SWAP1 DUP2 MSTORE PUSH1 0x20 ADD PUSH1 0x0 KECCAK256 PUSH1 0x0 CALLER PUSH20 0xFFFFFFFFFFFFFFFFFFFFFFFFFFFFFFFFFFFFFFFF AND PUSH20 0xFFFFFFFFFFFFFFFFFFFFFFFFFFFFFFFFFFFFFFFF AND DUP2 MSTORE PUSH1 0x20 ADD SWAP1 DUP2 MSTORE PUSH1 0x20 ADD PUSH1 0x0 KECCAK256 PUSH1 0x0 SWAP1 SLOAD SWAP1 PUSH2 0x100 EXP SWAP1 DIV PUSH1 0xFF AND JUMPDEST DUP1 PUSH2 0x8FC JUMPI POP PUSH1 0x0 ISZERO ISZERO DUP2 PUSH1 0xA ADD PUSH1 0x1 SWAP1 SLOAD SWAP1 PUSH2 0x100 EXP SWAP1 DIV PUSH1 0xFF AND ISZERO ISZERO EQ JUMPDEST PUSH2 0x93B JUMPI PUSH1 0x40 MLOAD PUSH32 0x8C379A000000000000000000000000000000000000000000000000000000000 DUP2 MSTORE PUSH1 0x4 ADD PUSH2 0x932 SWAP1 PUSH2 0x33EE JUMP JUMPDEST PUSH1 0x40 MLOAD DUP1 SWAP2 SUB SWAP1 REVERT JUMPDEST PUSH1 0x0 PUSH2 0x946 DUP7 PUSH2 0x2654 JUMP JUMPDEST SWAP1 POP DUP1 DUP6 GT PUSH2 0x98A JUMPI PUSH1 0x40 MLOAD PUSH32 0x8C379A000000000000000000000000000000000000000000000000000000000 DUP2 MSTORE PUSH1 0x4 ADD PUSH2 0x981 SWAP1 PUSH2 0x345A JUMP JUMPDEST PUSH1 0x40 MLOAD DUP1 SWAP2 SUB SWAP1 REVERT JUMPDEST PUSH1 0x0 PUSH1 0x40 MLOAD DUP1 PUSH1 0xA0 ADD PUSH1 0x40 MSTORE DUP1 TIMESTAMP DUP2 MSTORE PUSH1 0x20 ADD DUP8 DUP2 MSTORE PUSH1 0x20 ADD CALLER PUSH20 0xFFFFFFFFFFFFFFFFFFFFFFFFFFFFFFFFFFFFFFFF AND DUP2 MSTORE PUSH1 0x20 ADD DUP7 DUP2 MSTORE PUSH1 0x20 ADD DUP6 PUSH2 0xFFFF AND DUP2 MSTORE POP SWAP1 POP DUP1 PUSH1 0x2 PUSH1 0x0 DUP10 DUP2 MSTORE PUSH1 0x20 ADD SWAP1 DUP2 MSTORE PUSH1 0x20 ADD PUSH1 0x0 KECCAK256 PUSH1 0x0 DUP6 PUSH1 0x9 ADD SLOAD DUP2 MSTORE PUSH1 0x20 ADD SWAP1 DUP2 MSTORE PUSH1 0x20 ADD PUSH1 0x0 KECCAK256 PUSH1 0x0 DUP3 ADD MLOAD DUP2 PUSH1 0x0 ADD SSTORE PUSH1 0x20 DUP3 ADD MLOAD DUP2 PUSH1 0x1 ADD SSTORE PUSH1 0x40 DUP3 ADD MLOAD DUP2 PUSH1 0x2 ADD PUSH1 0x0 PUSH2 0x100 EXP DUP2 SLOAD DUP2 PUSH20 0xFFFFFFFFFFFFFFFFFFFFFFFFFFFFFFFFFFFFFFFF MUL NOT AND SWAP1 DUP4 PUSH20 0xFFFFFFFFFFFFFFFFFFFFFFFFFFFFFFFFFFFFFFFF AND MUL OR SWAP1 SSTORE POP PUSH1 0x60 DUP3 ADD MLOAD DUP2 PUSH1 0x3 ADD SSTORE PUSH1 0x80 DUP3 ADD MLOAD DUP2 PUSH1 0x4 ADD PUSH1 0x0 PUSH2 0x100 EXP DUP2 SLOAD DUP2 PUSH2 0xFFFF MUL NOT AND SWAP1 DUP4 PUSH2 0xFFFF AND MUL OR SWAP1 SSTORE POP SWAP1 POP POP DUP5 DUP4 PUSH1 0x5 ADD DUP2 SWAP1 SSTORE POP PUSH1 0x0 PUSH1 0x1 DUP5 PUSH1 0x9 ADD SLOAD PUSH2 0xA9F SWAP2 SWAP1 PUSH2 0x34A9 JUMP JUMPDEST SWAP1 POP DUP1 DUP5 PUSH1 0x9 ADD DUP2 SWAP1 SSTORE POP DUP4 PUSH1 0x1 ADD PUSH1 0x0 SWAP1 SLOAD SWAP1 PUSH2 0x100 EXP SWAP1 DIV PUSH20 0xFFFFFFFFFFFFFFFFFFFFFFFFFFFFFFFFFFFFFFFF AND PUSH20 0xFFFFFFFFFFFFFFFFFFFFFFFFFFFFFFFFFFFFFFFF AND PUSH4 0x23B872DD CALLER PUSH1 0x2 PUSH1 0x0 DUP13 DUP2 MSTORE PUSH1 0x20 ADD SWAP1 DUP2 MSTORE PUSH1 0x20 ADD PUSH1 0x0 KECCAK256 PUSH1 0x0 DUP6 DUP2 MSTORE PUSH1 0x20 ADD SWAP1 DUP2 MSTORE PUSH1 0x20 ADD PUSH1 0x0 KECCAK256 PUSH1 0x2 ADD PUSH1 0x0 SWAP1 SLOAD SWAP1 PUSH2 0x100 EXP SWAP1 DIV PUSH20 0xFFFFFFFFFFFFFFFFFFFFFFFFFFFFFFFFFFFFFFFF AND DUP7 PUSH1 0x40 MLOAD DUP5 PUSH4 0xFFFFFFFF AND PUSH1 0xE0 SHL DUP2 MSTORE PUSH1 0x4 ADD PUSH2 0xB52 SWAP4 SWAP3 SWAP2 SWAP1 PUSH2 0x3293 JUMP JUMPDEST PUSH1 0x20 PUSH1 0x40 MLOAD DUP1 DUP4 SUB DUP2 PUSH1 0x0 DUP8 GAS CALL ISZERO DUP1 ISZERO PUSH2 0xB71 JUMPI RETURNDATASIZE PUSH1 0x0 DUP1 RETURNDATACOPY RETURNDATASIZE PUSH1 0x0 REVERT JUMPDEST POP POP POP POP PUSH1 0x40 MLOAD RETURNDATASIZE PUSH1 0x1F NOT PUSH1 0x1F DUP3 ADD AND DUP3 ADD DUP1 PUSH1 0x40 MSTORE POP DUP2 ADD SWAP1 PUSH2 0xB95 SWAP2 SWAP1 PUSH2 0x34F2 JUMP JUMPDEST POP DUP4 PUSH1 0x1 ADD PUSH1 0x0 SWAP1 SLOAD SWAP1 PUSH2 0x100 EXP SWAP1 DIV PUSH20 0xFFFFFFFFFFFFFFFFFFFFFFFFFFFFFFFFFFFFFFFF AND PUSH20 0xFFFFFFFFFFFFFFFFFFFFFFFFFFFFFFFFFFFFFFFF AND PUSH4 0x23B872DD CALLER DUP7 PUSH1 0x0 ADD PUSH1 0x0 SWAP1 SLOAD SWAP1 PUSH2 0x100 EXP SWAP1 DIV PUSH20 0xFFFFFFFFFFFFFFFFFFFFFFFFFFFFFFFFFFFFFFFF AND DUP7 DUP12 PUSH2 0xC08 SWAP2 SWAP1 PUSH2 0x351F JUMP JUMPDEST PUSH1 0x40 MLOAD DUP5 PUSH4 0xFFFFFFFF AND PUSH1 0xE0 SHL DUP2 MSTORE PUSH1 0x4 ADD PUSH2 0xC26 SWAP4 SWAP3 SWAP2 SWAP1 PUSH2 0x3293 JUMP JUMPDEST PUSH1 0x20 PUSH1 0x40 MLOAD DUP1 DUP4 SUB DUP2 PUSH1 0x0 DUP8 GAS CALL ISZERO DUP1 ISZERO PUSH2 0xC45 JUMPI RETURNDATASIZE PUSH1 0x0 DUP1 RETURNDATACOPY RETURNDATASIZE PUSH1 0x0 REVERT JUMPDEST POP POP POP POP PUSH1 0x40 MLOAD RETURNDATASIZE PUSH1 0x1F NOT PUSH1 0x1F DUP3 ADD AND DUP3 ADD DUP1 PUSH1 0x40 MSTORE POP DUP2 ADD SWAP1 PUSH2 0xC69 SWAP2 SWAP1 PUSH2 0x34F2 JUMP JUMPDEST POP POP POP POP POP POP POP POP POP JUMP JUMPDEST DUP2 CALLER PUSH20 0xFFFFFFFFFFFFFFFFFFFFFFFFFFFFFFFFFFFFFFFF AND PUSH1 0x1 PUSH1 0x0 DUP4 DUP2 MSTORE PUSH1 0x20 ADD SWAP1 DUP2 MSTORE PUSH1 0x20 ADD PUSH1 0x0 KECCAK256 PUSH1 0x0 ADD PUSH1 0x0 SWAP1 SLOAD SWAP1 PUSH2 0x100 EXP SWAP1 DIV PUSH20 0xFFFFFFFFFFFFFFFFFFFFFFFFFFFFFFFFFFFFFFFF AND PUSH20 0xFFFFFFFFFFFFFFFFFFFFFFFFFFFFFFFFFFFFFFFF AND EQ DUP1 PUSH2 0xD46 JUMPI POP CALLER PUSH20 0xFFFFFFFFFFFFFFFFFFFFFFFFFFFFFFFFFFFFFFFF AND PUSH1 0x1 PUSH1 0x0 DUP4 DUP2 MSTORE PUSH1 0x20 ADD SWAP1 DUP2 MSTORE PUSH1 0x20 ADD PUSH1 0x0 KECCAK256 PUSH1 0x2 ADD PUSH1 0x0 SWAP1 SLOAD SWAP1 PUSH2 0x100 EXP SWAP1 DIV PUSH20 0xFFFFFFFFFFFFFFFFFFFFFFFFFFFFFFFFFFFFFFFF AND PUSH20 0xFFFFFFFFFFFFFFFFFFFFFFFFFFFFFFFFFFFFFFFF AND EQ JUMPDEST PUSH2 0xD85 JUMPI PUSH1 0x40 MLOAD PUSH32 0x8C379A000000000000000000000000000000000000000000000000000000000 DUP2 MSTORE PUSH1 0x4 ADD PUSH2 0xD7C SWAP1 PUSH2 0x3273 JUMP JUMPDEST PUSH1 0x40 MLOAD DUP1 SWAP2 SUB SWAP1 REVERT JUMPDEST PUSH1 0x0 PUSH1 0x1 PUSH1 0x0 DUP6 DUP2 MSTORE PUSH1 0x20 ADD SWAP1 DUP2 MSTORE PUSH1 0x20 ADD PUSH1 0x0 KECCAK256 SWAP1 POP DUP3 DUP2 PUSH1 0xA ADD PUSH1 0x1 PUSH2 0x100 EXP DUP2 SLOAD DUP2 PUSH1 0xFF MUL NOT AND SWAP1 DUP4 ISZERO ISZERO MUL OR SWAP1 SSTORE POP POP POP POP POP JUMP JUMPDEST DUP1 CALLER PUSH20 0xFFFFFFFFFFFFFFFFFFFFFFFFFFFFFFFFFFFFFFFF AND PUSH1 0x1 PUSH1 0x0 DUP4 DUP2 MSTORE PUSH1 0x20 ADD SWAP1 DUP2 MSTORE PUSH1 0x20 ADD PUSH1 0x0 KECCAK256 PUSH1 0x0 ADD PUSH1 0x0 SWAP1 SLOAD SWAP1 PUSH2 0x100 EXP SWAP1 DIV PUSH20 0xFFFFFFFFFFFFFFFFFFFFFFFFFFFFFFFFFFFFFFFF AND PUSH20 0xFFFFFFFFFFFFFFFFFFFFFFFFFFFFFFFFFFFFFFFF AND EQ DUP1 PUSH2 0xE90 JUMPI POP CALLER PUSH20 0xFFFFFFFFFFFFFFFFFFFFFFFFFFFFFFFFFFFFFFFF AND PUSH1 0x1 PUSH1 0x0 DUP4 DUP2 MSTORE PUSH1 0x20 ADD SWAP1 DUP2 MSTORE PUSH1 0x20 ADD PUSH1 0x0 KECCAK256 PUSH1 0x2 ADD PUSH1 0x0 SWAP1 SLOAD SWAP1 PUSH2 0x100 EXP SWAP1 DIV PUSH20 0xFFFFFFFFFFFFFFFFFFFFFFFFFFFFFFFFFFFFFFFF AND PUSH20 0xFFFFFFFFFFFFFFFFFFFFFFFFFFFFFFFFFFFFFFFF AND EQ JUMPDEST PUSH2 0xECF JUMPI PUSH1 0x40 MLOAD PUSH32 0x8C379A000000000000000000000000000000000000000000000000000000000 DUP2 MSTORE PUSH1 0x4 ADD PUSH2 0xEC6 SWAP1 PUSH2 0x3273 JUMP JUMPDEST PUSH1 0x40 MLOAD DUP1 SWAP2 SUB SWAP1 REVERT JUMPDEST PUSH1 0x0 PUSH1 0x1 PUSH1 0x0 DUP5 DUP2 MSTORE PUSH1 0x20 ADD SWAP1 DUP2 MSTORE PUSH1 0x20 ADD PUSH1 0x0 KECCAK256 PUSH1 0x40 MLOAD DUP1 PUSH2 0x180 ADD PUSH1 0x40 MSTORE SWAP1 DUP2 PUSH1 0x0 DUP3 ADD PUSH1 0x0 SWAP1 SLOAD SWAP1 PUSH2 0x100 EXP SWAP1 DIV PUSH20 0xFFFFFFFFFFFFFFFFFFFFFFFFFFFFFFFFFFFFFFFF AND PUSH20 0xFFFFFFFFFFFFFFFFFFFFFFFFFFFFFFFFFFFFFFFF AND PUSH20 0xFFFFFFFFFFFFFFFFFFFFFFFFFFFFFFFFFFFFFFFF AND DUP2 MSTORE PUSH1 0x20 ADD PUSH1 0x1 DUP3 ADD PUSH1 0x0 SWAP1 SLOAD SWAP1 PUSH2 0x100 EXP SWAP1 DIV PUSH20 0xFFFFFFFFFFFFFFFFFFFFFFFFFFFFFFFFFFFFFFFF AND PUSH20 0xFFFFFFFFFFFFFFFFFFFFFFFFFFFFFFFFFFFFFFFF AND PUSH20 0xFFFFFFFFFFFFFFFFFFFFFFFFFFFFFFFFFFFFFFFF AND DUP2 MSTORE PUSH1 0x20 ADD PUSH1 0x2 DUP3 ADD PUSH1 0x0 SWAP1 SLOAD SWAP1 PUSH2 0x100 EXP SWAP1 DIV PUSH20 0xFFFFFFFFFFFFFFFFFFFFFFFFFFFFFFFFFFFFFFFF AND PUSH20 0xFFFFFFFFFFFFFFFFFFFFFFFFFFFFFFFFFFFFFFFF AND PUSH20 0xFFFFFFFFFFFFFFFFFFFFFFFFFFFFFFFFFFFFFFFF AND DUP2 MSTORE PUSH1 0x20 ADD PUSH1 0x3 DUP3 ADD PUSH1 0x0 SWAP1 SLOAD SWAP1 PUSH2 0x100 EXP SWAP1 DIV PUSH20 0xFFFFFFFFFFFFFFFFFFFFFFFFFFFFFFFFFFFFFFFF AND PUSH20 0xFFFFFFFFFFFFFFFFFFFFFFFFFFFFFFFFFFFFFFFF AND PUSH20 0xFFFFFFFFFFFFFFFFFFFFFFFFFFFFFFFFFFFFFFFF AND DUP2 MSTORE PUSH1 0x20 ADD PUSH1 0x4 DUP3 ADD PUSH1 0x0 SWAP1 SLOAD SWAP1 PUSH2 0x100 EXP SWAP1 DIV PUSH20 0xFFFFFFFFFFFFFFFFFFFFFFFFFFFFFFFFFFFFFFFF AND PUSH20 0xFFFFFFFFFFFFFFFFFFFFFFFFFFFFFFFFFFFFFFFF AND PUSH20 0xFFFFFFFFFFFFFFFFFFFFFFFFFFFFFFFFFFFFFFFF AND DUP2 MSTORE PUSH1 0x20 ADD PUSH1 0x5 DUP3 ADD SLOAD DUP2 MSTORE PUSH1 0x20 ADD PUSH1 0x6 DUP3 ADD SLOAD DUP2 MSTORE PUSH1 0x20 ADD PUSH1 0x7 DUP3 ADD SLOAD DUP2 MSTORE PUSH1 0x20 ADD PUSH1 0x8 DUP3 ADD SLOAD DUP2 MSTORE PUSH1 0x20 ADD PUSH1 0x9 DUP3 ADD SLOAD DUP2 MSTORE PUSH1 0x20 ADD PUSH1 0xA DUP3 ADD PUSH1 0x0 SWAP1 SLOAD SWAP1 PUSH2 0x100 EXP SWAP1 DIV PUSH1 0xFF AND ISZERO ISZERO ISZERO ISZERO DUP2 MSTORE PUSH1 0x20 ADD PUSH1 0xA DUP3 ADD PUSH1 0x1 SWAP1 SLOAD SWAP1 PUSH2 0x100 EXP SWAP1 DIV PUSH1 0xFF AND ISZERO ISZERO ISZERO ISZERO DUP2 MSTORE POP POP SWAP1 POP TIMESTAMP DUP2 PUSH1 0xE0 ADD MLOAD GT PUSH2 0x114E JUMPI PUSH1 0x40 MLOAD PUSH32 0x8C379A000000000000000000000000000000000000000000000000000000000 DUP2 MSTORE PUSH1 0x4 ADD PUSH2 0x1145 SWAP1 PUSH2 0x359F JUMP JUMPDEST PUSH1 0x40 MLOAD DUP1 SWAP2 SUB SWAP1 REVERT JUMPDEST PUSH2 0x1156 PUSH2 0x2C48 JUMP JUMPDEST SWAP1 POP PUSH32 0xFE785EF891129B084B1C5A30E4D88EB97C97822C024CC25D5F9D806B897512E0 DUP4 PUSH1 0x40 MLOAD PUSH2 0x1187 SWAP2 SWAP1 PUSH2 0x2D34 JUMP JUMPDEST PUSH1 0x40 MLOAD DUP1 SWAP2 SUB SWAP1 LOG1 POP POP POP JUMP JUMPDEST PUSH1 0x0 PUSH1 0x1 PUSH1 0x0 DUP4 DUP2 MSTORE PUSH1 0x20 ADD SWAP1 DUP2 MSTORE PUSH1 0x20 ADD PUSH1 0x0 KECCAK256 PUSH1 0x40 MLOAD DUP1 PUSH2 0x180 ADD PUSH1 0x40 MSTORE SWAP1 DUP2 PUSH1 0x0 DUP3 ADD PUSH1 0x0 SWAP1 SLOAD SWAP1 PUSH2 0x100 EXP SWAP1 DIV PUSH20 0xFFFFFFFFFFFFFFFFFFFFFFFFFFFFFFFFFFFFFFFF AND PUSH20 0xFFFFFFFFFFFFFFFFFFFFFFFFFFFFFFFFFFFFFFFF AND PUSH20 0xFFFFFFFFFFFFFFFFFFFFFFFFFFFFFFFFFFFFFFFF AND DUP2 MSTORE PUSH1 0x20 ADD PUSH1 0x1 DUP3 ADD PUSH1 0x0 SWAP1 SLOAD SWAP1 PUSH2 0x100 EXP SWAP1 DIV PUSH20 0xFFFFFFFFFFFFFFFFFFFFFFFFFFFFFFFFFFFFFFFF AND PUSH20 0xFFFFFFFFFFFFFFFFFFFFFFFFFFFFFFFFFFFFFFFF AND PUSH20 0xFFFFFFFFFFFFFFFFFFFFFFFFFFFFFFFFFFFFFFFF AND DUP2 MSTORE PUSH1 0x20 ADD PUSH1 0x2 DUP3 ADD PUSH1 0x0 SWAP1 SLOAD SWAP1 PUSH2 0x100 EXP SWAP1 DIV PUSH20 0xFFFFFFFFFFFFFFFFFFFFFFFFFFFFFFFFFFFFFFFF AND PUSH20 0xFFFFFFFFFFFFFFFFFFFFFFFFFFFFFFFFFFFFFFFF AND PUSH20 0xFFFFFFFFFFFFFFFFFFFFFFFFFFFFFFFFFFFFFFFF AND DUP2 MSTORE PUSH1 0x20 ADD PUSH1 0x3 DUP3 ADD PUSH1 0x0 SWAP1 SLOAD SWAP1 PUSH2 0x100 EXP SWAP1 DIV PUSH20 0xFFFFFFFFFFFFFFFFFFFFFFFFFFFFFFFFFFFFFFFF AND PUSH20 0xFFFFFFFFFFFFFFFFFFFFFFFFFFFFFFFFFFFFFFFF AND PUSH20 0xFFFFFFFFFFFFFFFFFFFFFFFFFFFFFFFFFFFFFFFF AND DUP2 MSTORE PUSH1 0x20 ADD PUSH1 0x4 DUP3 ADD PUSH1 0x0 SWAP1 SLOAD SWAP1 PUSH2 0x100 EXP SWAP1 DIV PUSH20 0xFFFFFFFFFFFFFFFFFFFFFFFFFFFFFFFFFFFFFFFF AND PUSH20 0xFFFFFFFFFFFFFFFFFFFFFFFFFFFFFFFFFFFFFFFF AND PUSH20 0xFFFFFFFFFFFFFFFFFFFFFFFFFFFFFFFFFFFFFFFF AND DUP2 MSTORE PUSH1 0x20 ADD PUSH1 0x5 DUP3 ADD SLOAD DUP2 MSTORE PUSH1 0x20 ADD PUSH1 0x6 DUP3 ADD SLOAD DUP2 MSTORE PUSH1 0x20 ADD PUSH1 0x7 DUP3 ADD SLOAD DUP2 MSTORE PUSH1 0x20 ADD PUSH1 0x8 DUP3 ADD SLOAD DUP2 MSTORE PUSH1 0x20 ADD PUSH1 0x9 DUP3 ADD SLOAD DUP2 MSTORE PUSH1 0x20 ADD PUSH1 0xA DUP3 ADD PUSH1 0x0 SWAP1 SLOAD SWAP1 PUSH2 0x100 EXP SWAP1 DIV PUSH1 0xFF AND ISZERO ISZERO ISZERO ISZERO DUP2 MSTORE PUSH1 0x20 ADD PUSH1 0xA DUP3 ADD PUSH1 0x1 SWAP1 SLOAD SWAP1 PUSH2 0x100 EXP SWAP1 DIV PUSH1 0xFF AND ISZERO ISZERO ISZERO ISZERO DUP2 MSTORE POP POP SWAP1 POP PUSH1 0x0 PUSH1 0x2 PUSH1 0x0 DUP5 DUP2 MSTORE PUSH1 0x20 ADD SWAP1 DUP2 MSTORE PUSH1 0x20 ADD PUSH1 0x0 KECCAK256 PUSH1 0x0 DUP4 PUSH2 0x120 ADD MLOAD DUP2 MSTORE PUSH1 0x20 ADD SWAP1 DUP2 MSTORE PUSH1 0x20 ADD PUSH1 0x0 KECCAK256 PUSH1 0x40 MLOAD DUP1 PUSH1 0xA0 ADD PUSH1 0x40 MSTORE SWAP1 DUP2 PUSH1 0x0 DUP3 ADD SLOAD DUP2 MSTORE PUSH1 0x20 ADD PUSH1 0x1 DUP3 ADD SLOAD DUP2 MSTORE PUSH1 0x20 ADD PUSH1 0x2 DUP3 ADD PUSH1 0x0 SWAP1 SLOAD SWAP1 PUSH2 0x100 EXP SWAP1 DIV PUSH20 0xFFFFFFFFFFFFFFFFFFFFFFFFFFFFFFFFFFFFFFFF AND PUSH20 0xFFFFFFFFFFFFFFFFFFFFFFFFFFFFFFFFFFFFFFFF AND PUSH20 0xFFFFFFFFFFFFFFFFFFFFFFFFFFFFFFFFFFFFFFFF AND DUP2 MSTORE PUSH1 0x20 ADD PUSH1 0x3 DUP3 ADD SLOAD DUP2 MSTORE PUSH1 0x20 ADD PUSH1 0x4 DUP3 ADD PUSH1 0x0 SWAP1 SLOAD SWAP1 PUSH2 0x100 EXP SWAP1 DIV PUSH2 0xFFFF AND PUSH2 0xFFFF AND PUSH2 0xFFFF AND DUP2 MSTORE POP POP SWAP1 POP CALLER PUSH20 0xFFFFFFFFFFFFFFFFFFFFFFFFFFFFFFFFFFFFFFFF AND DUP2 PUSH1 0x40 ADD MLOAD PUSH20 0xFFFFFFFFFFFFFFFFFFFFFFFFFFFFFFFFFFFFFFFF AND EQ DUP1 ISZERO PUSH2 0x14DD JUMPI POP PUSH2 0x14DC DUP4 PUSH2 0x2631 JUMP JUMPDEST JUMPDEST DUP1 PUSH2 0x14FD JUMPI POP DUP2 PUSH2 0x140 ADD MLOAD DUP1 ISZERO PUSH2 0x14FC JUMPI POP PUSH2 0x14FB DUP3 DUP3 DUP6 PUSH2 0x29F5 JUMP JUMPDEST JUMPDEST JUMPDEST PUSH2 0x153C JUMPI PUSH1 0x40 MLOAD PUSH32 0x8C379A000000000000000000000000000000000000000000000000000000000 DUP2 MSTORE PUSH1 0x4 ADD PUSH2 0x1533 SWAP1 PUSH2 0x3631 JUMP JUMPDEST PUSH1 0x40 MLOAD DUP1 SWAP2 SUB SWAP1 REVERT JUMPDEST PUSH1 0x0 DUP3 PUSH1 0x80 ADD MLOAD SWAP1 POP DUP1 PUSH20 0xFFFFFFFFFFFFFFFFFFFFFFFFFFFFFFFFFFFFFFFF AND PUSH4 0x42842E0E ADDRESS DUP5 PUSH1 0x40 ADD MLOAD DUP7 PUSH1 0xC0 ADD MLOAD PUSH1 0x40 MLOAD DUP5 PUSH4 0xFFFFFFFF AND PUSH1 0xE0 SHL DUP2 MSTORE PUSH1 0x4 ADD PUSH2 0x158A SWAP4 SWAP3 SWAP2 SWAP1 PUSH2 0x3293 JUMP JUMPDEST PUSH1 0x0 PUSH1 0x40 MLOAD DUP1 DUP4 SUB DUP2 PUSH1 0x0 DUP8 DUP1 EXTCODESIZE ISZERO DUP1 ISZERO PUSH2 0x15A4 JUMPI PUSH1 0x0 DUP1 REVERT JUMPDEST POP GAS CALL ISZERO DUP1 ISZERO PUSH2 0x15B8 JUMPI RETURNDATASIZE PUSH1 0x0 DUP1 RETURNDATACOPY RETURNDATASIZE PUSH1 0x0 REVERT JUMPDEST POP POP POP POP PUSH32 0xCF3EAFC70E544BBB0B7B916314BE01382E9819EF1DEA730BD182222030FFE4A9 DUP5 PUSH1 0x40 MLOAD PUSH2 0x15EB SWAP2 SWAP1 PUSH2 0x2D34 JUMP JUMPDEST PUSH1 0x40 MLOAD DUP1 SWAP2 SUB SWAP1 LOG1 PUSH2 0x15FB PUSH2 0x2C48 JUMP JUMPDEST SWAP3 POP POP POP POP POP JUMP JUMPDEST PUSH1 0x4 PUSH1 0x20 MSTORE DUP1 PUSH1 0x0 MSTORE PUSH1 0x40 PUSH1 0x0 KECCAK256 PUSH1 0x0 SWAP2 POP SWAP1 POP SLOAD DUP2 JUMP JUMPDEST PUSH1 0x2 PUSH1 0x20 MSTORE DUP2 PUSH1 0x0 MSTORE PUSH1 0x40 PUSH1 0x0 KECCAK256 PUSH1 0x20 MSTORE DUP1 PUSH1 0x0 MSTORE PUSH1 0x40 PUSH1 0x0 KECCAK256 PUSH1 0x0 SWAP2 POP SWAP2 POP POP DUP1 PUSH1 0x0 ADD SLOAD SWAP1 DUP1 PUSH1 0x1 ADD SLOAD SWAP1 DUP1 PUSH1 0x2 ADD PUSH1 0x0 SWAP1 SLOAD SWAP1 PUSH2 0x100 EXP SWAP1 DIV PUSH20 0xFFFFFFFFFFFFFFFFFFFFFFFFFFFFFFFFFFFFFFFF AND SWAP1 DUP1 PUSH1 0x3 ADD SLOAD SWAP1 DUP1 PUSH1 0x4 ADD PUSH1 0x0 SWAP1 SLOAD SWAP1 PUSH2 0x100 EXP SWAP1 DIV PUSH2 0xFFFF AND SWAP1 POP DUP6 JUMP JUMPDEST TIMESTAMP DUP5 LT ISZERO PUSH2 0x16CF JUMPI PUSH1 0x40 MLOAD PUSH32 0x8C379A000000000000000000000000000000000000000000000000000000000 DUP2 MSTORE PUSH1 0x4 ADD PUSH2 0x16C6 SWAP1 PUSH2 0x369D JUMP JUMPDEST PUSH1 0x40 MLOAD DUP1 SWAP2 SUB SWAP1 REVERT JUMPDEST DUP4 DUP4 GT PUSH2 0x1711 JUMPI PUSH1 0x40 MLOAD PUSH32 0x8C379A000000000000000000000000000000000000000000000000000000000 DUP2 MSTORE PUSH1 0x4 ADD PUSH2 0x1708 SWAP1 PUSH2 0x3709 JUMP JUMPDEST PUSH1 0x40 MLOAD DUP1 SWAP2 SUB SWAP1 REVERT JUMPDEST PUSH1 0x40 MLOAD DUP1 PUSH2 0x180 ADD PUSH1 0x40 MSTORE DUP1 DUP8 PUSH20 0xFFFFFFFFFFFFFFFFFFFFFFFFFFFFFFFFFFFFFFFF AND PUSH4 0x6352211E DUP9 PUSH1 0x40 MLOAD DUP3 PUSH4 0xFFFFFFFF AND PUSH1 0xE0 SHL DUP2 MSTORE PUSH1 0x4 ADD PUSH2 0x1756 SWAP2 SWAP1 PUSH2 0x2D34 JUMP JUMPDEST PUSH1 0x20 PUSH1 0x40 MLOAD DUP1 DUP4 SUB DUP2 DUP7 GAS STATICCALL ISZERO DUP1 ISZERO PUSH2 0x1773 JUMPI RETURNDATASIZE PUSH1 0x0 DUP1 RETURNDATACOPY RETURNDATASIZE PUSH1 0x0 REVERT JUMPDEST POP POP POP POP PUSH1 0x40 MLOAD RETURNDATASIZE PUSH1 0x1F NOT PUSH1 0x1F DUP3 ADD AND DUP3 ADD DUP1 PUSH1 0x40 MSTORE POP DUP2 ADD SWAP1 PUSH2 0x1797 SWAP2 SWAP1 PUSH2 0x373E JUMP JUMPDEST PUSH20 0xFFFFFFFFFFFFFFFFFFFFFFFFFFFFFFFFFFFFFFFF AND DUP2 MSTORE PUSH1 0x20 ADD DUP10 PUSH20 0xFFFFFFFFFFFFFFFFFFFFFFFFFFFFFFFFFFFFFFFF AND DUP2 MSTORE PUSH1 0x20 ADD DUP11 PUSH20 0xFFFFFFFFFFFFFFFFFFFFFFFFFFFFFFFFFFFFFFFF AND DUP2 MSTORE PUSH1 0x20 ADD DUP9 PUSH20 0xFFFFFFFFFFFFFFFFFFFFFFFFFFFFFFFFFFFFFFFF AND DUP2 MSTORE PUSH1 0x20 ADD DUP8 PUSH20 0xFFFFFFFFFFFFFFFFFFFFFFFFFFFFFFFFFFFFFFFF AND DUP2 MSTORE PUSH1 0x20 ADD PUSH1 0x0 DUP2 MSTORE PUSH1 0x20 ADD DUP7 DUP2 MSTORE PUSH1 0x20 ADD DUP6 DUP2 MSTORE PUSH1 0x20 ADD DUP5 DUP2 MSTORE PUSH1 0x20 ADD PUSH1 0x0 DUP2 MSTORE PUSH1 0x20 ADD DUP4 ISZERO ISZERO DUP2 MSTORE PUSH1 0x20 ADD DUP3 ISZERO ISZERO DUP2 MSTORE POP PUSH1 0x1 PUSH1 0x0 DUP1 SLOAD DUP2 MSTORE PUSH1 0x20 ADD SWAP1 DUP2 MSTORE PUSH1 0x20 ADD PUSH1 0x0 KECCAK256 PUSH1 0x0 DUP3 ADD MLOAD DUP2 PUSH1 0x0 ADD PUSH1 0x0 PUSH2 0x100 EXP DUP2 SLOAD DUP2 PUSH20 0xFFFFFFFFFFFFFFFFFFFFFFFFFFFFFFFFFFFFFFFF MUL NOT AND SWAP1 DUP4 PUSH20 0xFFFFFFFFFFFFFFFFFFFFFFFFFFFFFFFFFFFFFFFF AND MUL OR SWAP1 SSTORE POP PUSH1 0x20 DUP3 ADD MLOAD DUP2 PUSH1 0x1 ADD PUSH1 0x0 PUSH2 0x100 EXP DUP2 SLOAD DUP2 PUSH20 0xFFFFFFFFFFFFFFFFFFFFFFFFFFFFFFFFFFFFFFFF MUL NOT AND SWAP1 DUP4 PUSH20 0xFFFFFFFFFFFFFFFFFFFFFFFFFFFFFFFFFFFFFFFF AND MUL OR SWAP1 SSTORE POP PUSH1 0x40 DUP3 ADD MLOAD DUP2 PUSH1 0x2 ADD PUSH1 0x0 PUSH2 0x100 EXP DUP2 SLOAD DUP2 PUSH20 0xFFFFFFFFFFFFFFFFFFFFFFFFFFFFFFFFFFFFFFFF MUL NOT AND SWAP1 DUP4 PUSH20 0xFFFFFFFFFFFFFFFFFFFFFFFFFFFFFFFFFFFFFFFF AND MUL OR SWAP1 SSTORE POP PUSH1 0x60 DUP3 ADD MLOAD DUP2 PUSH1 0x3 ADD PUSH1 0x0 PUSH2 0x100 EXP DUP2 SLOAD DUP2 PUSH20 0xFFFFFFFFFFFFFFFFFFFFFFFFFFFFFFFFFFFFFFFF MUL NOT AND SWAP1 DUP4 PUSH20 0xFFFFFFFFFFFFFFFFFFFFFFFFFFFFFFFFFFFFFFFF AND MUL OR SWAP1 SSTORE POP PUSH1 0x80 DUP3 ADD MLOAD DUP2 PUSH1 0x4 ADD PUSH1 0x0 PUSH2 0x100 EXP DUP2 SLOAD DUP2 PUSH20 0xFFFFFFFFFFFFFFFFFFFFFFFFFFFFFFFFFFFFFFFF MUL NOT AND SWAP1 DUP4 PUSH20 0xFFFFFFFFFFFFFFFFFFFFFFFFFFFFFFFFFFFFFFFF AND MUL OR SWAP1 SSTORE POP PUSH1 0xA0 DUP3 ADD MLOAD DUP2 PUSH1 0x5 ADD SSTORE PUSH1 0xC0 DUP3 ADD MLOAD DUP2 PUSH1 0x6 ADD SSTORE PUSH1 0xE0 DUP3 ADD MLOAD DUP2 PUSH1 0x7 ADD SSTORE PUSH2 0x100 DUP3 ADD MLOAD DUP2 PUSH1 0x8 ADD SSTORE PUSH2 0x120 DUP3 ADD MLOAD DUP2 PUSH1 0x9 ADD SSTORE PUSH2 0x140 DUP3 ADD MLOAD DUP2 PUSH1 0xA ADD PUSH1 0x0 PUSH2 0x100 EXP DUP2 SLOAD DUP2 PUSH1 0xFF MUL NOT AND SWAP1 DUP4 ISZERO ISZERO MUL OR SWAP1 SSTORE POP PUSH2 0x160 DUP3 ADD MLOAD DUP2 PUSH1 0xA ADD PUSH1 0x1 PUSH2 0x100 EXP DUP2 SLOAD DUP2 PUSH1 0xFF MUL NOT AND SWAP1 DUP4 ISZERO ISZERO MUL OR SWAP1 SSTORE POP SWAP1 POP POP TIMESTAMP PUSH1 0x2 PUSH1 0x0 DUP1 SLOAD DUP2 MSTORE PUSH1 0x20 ADD SWAP1 DUP2 MSTORE PUSH1 0x20 ADD PUSH1 0x0 KECCAK256 PUSH1 0x0 DUP1 DUP2 MSTORE PUSH1 0x20 ADD SWAP1 DUP2 MSTORE PUSH1 0x20 ADD PUSH1 0x0 KECCAK256 PUSH1 0x0 ADD DUP2 SWAP1 SSTORE POP PUSH1 0x0 SLOAD PUSH32 0xEF8B2952C43462575E82711D0CC91169720A4589A9FA533D173E022437F5405E DUP8 DUP8 PUSH1 0x40 MLOAD PUSH2 0x1AA1 SWAP3 SWAP2 SWAP1 PUSH2 0x376B JUMP JUMPDEST PUSH1 0x40 MLOAD DUP1 SWAP2 SUB SWAP1 LOG2 PUSH1 0x0 DUP1 DUP2 SLOAD DUP1 SWAP3 SWAP2 SWAP1 PUSH2 0x1ABB SWAP1 PUSH2 0x3794 JUMP JUMPDEST SWAP2 SWAP1 POP SSTORE POP POP POP POP POP POP POP POP POP POP JUMP JUMPDEST PUSH2 0x1AD4 DUP3 PUSH2 0x260F JUMP JUMPDEST PUSH2 0x1B13 JUMPI PUSH1 0x40 MLOAD PUSH32 0x8C379A000000000000000000000000000000000000000000000000000000000 DUP2 MSTORE PUSH1 0x4 ADD PUSH2 0x1B0A SWAP1 PUSH2 0x3316 JUMP JUMPDEST PUSH1 0x40 MLOAD DUP1 SWAP2 SUB SWAP1 REVERT JUMPDEST PUSH2 0x1B1C DUP3 PUSH2 0x2631 JUMP JUMPDEST ISZERO PUSH2 0x1B5C JUMPI PUSH1 0x40 MLOAD PUSH32 0x8C379A000000000000000000000000000000000000000000000000000000000 DUP2 MSTORE PUSH1 0x4 ADD PUSH2 0x1B53 SWAP1 PUSH2 0x3382 JUMP JUMPDEST PUSH1 0x40 MLOAD DUP1 SWAP2 SUB SWAP1 REVERT JUMPDEST PUSH1 0x0 PUSH1 0x1 PUSH1 0x0 DUP5 DUP2 MSTORE PUSH1 0x20 ADD SWAP1 DUP2 MSTORE PUSH1 0x20 ADD PUSH1 0x0 KECCAK256 PUSH1 0x40 MLOAD DUP1 PUSH2 0x180 ADD PUSH1 0x40 MSTORE SWAP1 DUP2 PUSH1 0x0 DUP3 ADD PUSH1 0x0 SWAP1 SLOAD SWAP1 PUSH2 0x100 EXP SWAP1 DIV PUSH20 0xFFFFFFFFFFFFFFFFFFFFFFFFFFFFFFFFFFFFFFFF AND PUSH20 0xFFFFFFFFFFFFFFFFFFFFFFFFFFFFFFFFFFFFFFFF AND PUSH20 0xFFFFFFFFFFFFFFFFFFFFFFFFFFFFFFFFFFFFFFFF AND DUP2 MSTORE PUSH1 0x20 ADD PUSH1 0x1 DUP3 ADD PUSH1 0x0 SWAP1 SLOAD SWAP1 PUSH2 0x100 EXP SWAP1 DIV PUSH20 0xFFFFFFFFFFFFFFFFFFFFFFFFFFFFFFFFFFFFFFFF AND PUSH20 0xFFFFFFFFFFFFFFFFFFFFFFFFFFFFFFFFFFFFFFFF AND PUSH20 0xFFFFFFFFFFFFFFFFFFFFFFFFFFFFFFFFFFFFFFFF AND DUP2 MSTORE PUSH1 0x20 ADD PUSH1 0x2 DUP3 ADD PUSH1 0x0 SWAP1 SLOAD SWAP1 PUSH2 0x100 EXP SWAP1 DIV PUSH20 0xFFFFFFFFFFFFFFFFFFFFFFFFFFFFFFFFFFFFFFFF AND PUSH20 0xFFFFFFFFFFFFFFFFFFFFFFFFFFFFFFFFFFFFFFFF AND PUSH20 0xFFFFFFFFFFFFFFFFFFFFFFFFFFFFFFFFFFFFFFFF AND DUP2 MSTORE PUSH1 0x20 ADD PUSH1 0x3 DUP3 ADD PUSH1 0x0 SWAP1 SLOAD SWAP1 PUSH2 0x100 EXP SWAP1 DIV PUSH20 0xFFFFFFFFFFFFFFFFFFFFFFFFFFFFFFFFFFFFFFFF AND PUSH20 0xFFFFFFFFFFFFFFFFFFFFFFFFFFFFFFFFFFFFFFFF AND PUSH20 0xFFFFFFFFFFFFFFFFFFFFFFFFFFFFFFFFFFFFFFFF AND DUP2 MSTORE PUSH1 0x20 ADD PUSH1 0x4 DUP3 ADD PUSH1 0x0 SWAP1 SLOAD SWAP1 PUSH2 0x100 EXP SWAP1 DIV PUSH20 0xFFFFFFFFFFFFFFFFFFFFFFFFFFFFFFFFFFFFFFFF AND PUSH20 0xFFFFFFFFFFFFFFFFFFFFFFFFFFFFFFFFFFFFFFFF AND PUSH20 0xFFFFFFFFFFFFFFFFFFFFFFFFFFFFFFFFFFFFFFFF AND DUP2 MSTORE PUSH1 0x20 ADD PUSH1 0x5 DUP3 ADD SLOAD DUP2 MSTORE PUSH1 0x20 ADD PUSH1 0x6 DUP3 ADD SLOAD DUP2 MSTORE PUSH1 0x20 ADD PUSH1 0x7 DUP3 ADD SLOAD DUP2 MSTORE PUSH1 0x20 ADD PUSH1 0x8 DUP3 ADD SLOAD DUP2 MSTORE PUSH1 0x20 ADD PUSH1 0x9 DUP3 ADD SLOAD DUP2 MSTORE PUSH1 0x20 ADD PUSH1 0xA DUP3 ADD PUSH1 0x0 SWAP1 SLOAD SWAP1 PUSH2 0x100 EXP SWAP1 DIV PUSH1 0xFF AND ISZERO ISZERO ISZERO ISZERO DUP2 MSTORE PUSH1 0x20 ADD PUSH1 0xA DUP3 ADD PUSH1 0x1 SWAP1 SLOAD SWAP1 PUSH2 0x100 EXP SWAP1 DIV PUSH1 0xFF AND ISZERO ISZERO ISZERO ISZERO DUP2 MSTORE POP POP SWAP1 POP PUSH1 0x0 PUSH1 0x2 PUSH1 0x0 DUP6 DUP2 MSTORE PUSH1 0x20 ADD SWAP1 DUP2 MSTORE PUSH1 0x20 ADD PUSH1 0x0 KECCAK256 PUSH1 0x0 DUP4 PUSH2 0x120 ADD MLOAD DUP2 MSTORE PUSH1 0x20 ADD SWAP1 DUP2 MSTORE PUSH1 0x20 ADD PUSH1 0x0 KECCAK256 SWAP1 POP CALLER PUSH20 0xFFFFFFFFFFFFFFFFFFFFFFFFFFFFFFFFFFFFFFFF AND DUP2 PUSH1 0x2 ADD PUSH1 0x0 SWAP1 SLOAD SWAP1 PUSH2 0x100 EXP SWAP1 DIV PUSH20 0xFFFFFFFFFFFFFFFFFFFFFFFFFFFFFFFFFFFFFFFF AND PUSH20 0xFFFFFFFFFFFFFFFFFFFFFFFFFFFFFFFFFFFFFFFF AND EQ PUSH2 0x1E54 JUMPI PUSH1 0x40 MLOAD PUSH32 0x8C379A000000000000000000000000000000000000000000000000000000000 DUP2 MSTORE PUSH1 0x4 ADD PUSH2 0x1E4B SWAP1 PUSH2 0x3828 JUMP JUMPDEST PUSH1 0x40 MLOAD DUP1 SWAP2 SUB SWAP1 REVERT JUMPDEST DUP3 DUP2 PUSH1 0x2 ADD PUSH1 0x0 PUSH2 0x100 EXP DUP2 SLOAD DUP2 PUSH20 0xFFFFFFFFFFFFFFFFFFFFFFFFFFFFFFFFFFFFFFFF MUL NOT AND SWAP1 DUP4 PUSH20 0xFFFFFFFFFFFFFFFFFFFFFFFFFFFFFFFFFFFFFFFF AND MUL OR SWAP1 SSTORE POP POP POP POP POP JUMP JUMPDEST PUSH1 0x3 PUSH1 0x20 MSTORE DUP2 PUSH1 0x0 MSTORE PUSH1 0x40 PUSH1 0x0 KECCAK256 PUSH1 0x20 MSTORE DUP1 PUSH1 0x0 MSTORE PUSH1 0x40 PUSH1 0x0 KECCAK256 PUSH1 0x0 SWAP2 POP SWAP2 POP SWAP1 SLOAD SWAP1 PUSH2 0x100 EXP SWAP1 DIV PUSH1 0xFF AND DUP2 JUMP JUMPDEST DUP2 CALLER PUSH20 0xFFFFFFFFFFFFFFFFFFFFFFFFFFFFFFFFFFFFFFFF AND PUSH1 0x1 PUSH1 0x0 DUP4 DUP2 MSTORE PUSH1 0x20 ADD SWAP1 DUP2 MSTORE PUSH1 0x20 ADD PUSH1 0x0 KECCAK256 PUSH1 0x0 ADD PUSH1 0x0 SWAP1 SLOAD SWAP1 PUSH2 0x100 EXP SWAP1 DIV PUSH20 0xFFFFFFFFFFFFFFFFFFFFFFFFFFFFFFFFFFFFFFFF AND PUSH20 0xFFFFFFFFFFFFFFFFFFFFFFFFFFFFFFFFFFFFFFFF AND EQ DUP1 PUSH2 0x1F9E JUMPI POP CALLER PUSH20 0xFFFFFFFFFFFFFFFFFFFFFFFFFFFFFFFFFFFFFFFF AND PUSH1 0x1 PUSH1 0x0 DUP4 DUP2 MSTORE PUSH1 0x20 ADD SWAP1 DUP2 MSTORE PUSH1 0x20 ADD PUSH1 0x0 KECCAK256 PUSH1 0x2 ADD PUSH1 0x0 SWAP1 SLOAD SWAP1 PUSH2 0x100 EXP SWAP1 DIV PUSH20 0xFFFFFFFFFFFFFFFFFFFFFFFFFFFFFFFFFFFFFFFF AND PUSH20 0xFFFFFFFFFFFFFFFFFFFFFFFFFFFFFFFFFFFFFFFF AND EQ JUMPDEST PUSH2 0x1FDD JUMPI PUSH1 0x40 MLOAD PUSH32 0x8C379A000000000000000000000000000000000000000000000000000000000 DUP2 MSTORE PUSH1 0x4 ADD PUSH2 0x1FD4 SWAP1 PUSH2 0x3273 JUMP JUMPDEST PUSH1 0x40 MLOAD DUP1 SWAP2 SUB SWAP1 REVERT JUMPDEST PUSH1 0x0 PUSH1 0x1 PUSH1 0x0 DUP6 DUP2 MSTORE PUSH1 0x20 ADD SWAP1 DUP2 MSTORE PUSH1 0x20 ADD PUSH1 0x0 KECCAK256 PUSH1 0x40 MLOAD DUP1 PUSH2 0x180 ADD PUSH1 0x40 MSTORE SWAP1 DUP2 PUSH1 0x0 DUP3 ADD PUSH1 0x0 SWAP1 SLOAD SWAP1 PUSH2 0x100 EXP SWAP1 DIV PUSH20 0xFFFFFFFFFFFFFFFFFFFFFFFFFFFFFFFFFFFFFFFF AND PUSH20 0xFFFFFFFFFFFFFFFFFFFFFFFFFFFFFFFFFFFFFFFF AND PUSH20 0xFFFFFFFFFFFFFFFFFFFFFFFFFFFFFFFFFFFFFFFF AND DUP2 MSTORE PUSH1 0x20 ADD PUSH1 0x1 DUP3 ADD PUSH1 0x0 SWAP1 SLOAD SWAP1 PUSH2 0x100 EXP SWAP1 DIV PUSH20 0xFFFFFFFFFFFFFFFFFFFFFFFFFFFFFFFFFFFFFFFF AND PUSH20 0xFFFFFFFFFFFFFFFFFFFFFFFFFFFFFFFFFFFFFFFF AND PUSH20 0xFFFFFFFFFFFFFFFFFFFFFFFFFFFFFFFFFFFFFFFF AND DUP2 MSTORE PUSH1 0x20 ADD PUSH1 0x2 DUP3 ADD PUSH1 0x0 SWAP1 SLOAD SWAP1 PUSH2 0x100 EXP SWAP1 DIV PUSH20 0xFFFFFFFFFFFFFFFFFFFFFFFFFFFFFFFFFFFFFFFF AND PUSH20 0xFFFFFFFFFFFFFFFFFFFFFFFFFFFFFFFFFFFFFFFF AND PUSH20 0xFFFFFFFFFFFFFFFFFFFFFFFFFFFFFFFFFFFFFFFF AND DUP2 MSTORE PUSH1 0x20 ADD PUSH1 0x3 DUP3 ADD PUSH1 0x0 SWAP1 SLOAD SWAP1 PUSH2 0x100 EXP SWAP1 DIV PUSH20 0xFFFFFFFFFFFFFFFFFFFFFFFFFFFFFFFFFFFFFFFF AND PUSH20 0xFFFFFFFFFFFFFFFFFFFFFFFFFFFFFFFFFFFFFFFF AND PUSH20 0xFFFFFFFFFFFFFFFFFFFFFFFFFFFFFFFFFFFFFFFF AND DUP2 MSTORE PUSH1 0x20 ADD PUSH1 0x4 DUP3 ADD PUSH1 0x0 SWAP1 SLOAD SWAP1 PUSH2 0x100 EXP SWAP1 DIV PUSH20 0xFFFFFFFFFFFFFFFFFFFFFFFFFFFFFFFFFFFFFFFF AND PUSH20 0xFFFFFFFFFFFFFFFFFFFFFFFFFFFFFFFFFFFFFFFF AND PUSH20 0xFFFFFFFFFFFFFFFFFFFFFFFFFFFFFFFFFFFFFFFF AND DUP2 MSTORE PUSH1 0x20 ADD PUSH1 0x5 DUP3 ADD SLOAD DUP2 MSTORE PUSH1 0x20 ADD PUSH1 0x6 DUP3 ADD SLOAD DUP2 MSTORE PUSH1 0x20 ADD PUSH1 0x7 DUP3 ADD SLOAD DUP2 MSTORE PUSH1 0x20 ADD PUSH1 0x8 DUP3 ADD SLOAD DUP2 MSTORE PUSH1 0x20 ADD PUSH1 0x9 DUP3 ADD SLOAD DUP2 MSTORE PUSH1 0x20 ADD PUSH1 0xA DUP3 ADD PUSH1 0x0 SWAP1 SLOAD SWAP1 PUSH2 0x100 EXP SWAP1 DIV PUSH1 0xFF AND ISZERO ISZERO ISZERO ISZERO DUP2 MSTORE PUSH1 0x20 ADD PUSH1 0xA DUP3 ADD PUSH1 0x1 SWAP1 SLOAD SWAP1 PUSH2 0x100 EXP SWAP1 DIV PUSH1 0xFF AND ISZERO ISZERO ISZERO ISZERO DUP2 MSTORE POP POP SWAP1 POP PUSH1 0x0 PUSH1 0x2 PUSH1 0x0 DUP7 DUP2 MSTORE PUSH1 0x20 ADD SWAP1 DUP2 MSTORE PUSH1 0x20 ADD PUSH1 0x0 KECCAK256 PUSH1 0x0 DUP4 PUSH2 0x120 ADD MLOAD DUP2 MSTORE PUSH1 0x20 ADD SWAP1 DUP2 MSTORE PUSH1 0x20 ADD PUSH1 0x0 KECCAK256 PUSH1 0x40 MLOAD DUP1 PUSH1 0xA0 ADD PUSH1 0x40 MSTORE SWAP1 DUP2 PUSH1 0x0 DUP3 ADD SLOAD DUP2 MSTORE PUSH1 0x20 ADD PUSH1 0x1 DUP3 ADD SLOAD DUP2 MSTORE PUSH1 0x20 ADD PUSH1 0x2 DUP3 ADD PUSH1 0x0 SWAP1 SLOAD SWAP1 PUSH2 0x100 EXP SWAP1 DIV PUSH20 0xFFFFFFFFFFFFFFFFFFFFFFFFFFFFFFFFFFFFFFFF AND PUSH20 0xFFFFFFFFFFFFFFFFFFFFFFFFFFFFFFFFFFFFFFFF AND PUSH20 0xFFFFFFFFFFFFFFFFFFFFFFFFFFFFFFFFFFFFFFFF AND DUP2 MSTORE PUSH1 0x20 ADD PUSH1 0x3 DUP3 ADD SLOAD DUP2 MSTORE PUSH1 0x20 ADD PUSH1 0x4 DUP3 ADD PUSH1 0x0 SWAP1 SLOAD SWAP1 PUSH2 0x100 EXP SWAP1 DIV PUSH2 0xFFFF AND PUSH2 0xFFFF AND PUSH2 0xFFFF AND DUP2 MSTORE POP POP SWAP1 POP DUP2 PUSH1 0x20 ADD MLOAD PUSH20 0xFFFFFFFFFFFFFFFFFFFFFFFFFFFFFFFFFFFFFFFF AND PUSH4 0x23B872DD CALLER ADDRESS DUP8 PUSH1 0x40 MLOAD DUP5 PUSH4 0xFFFFFFFF AND PUSH1 0xE0 SHL DUP2 MSTORE PUSH1 0x4 ADD PUSH2 0x2323 SWAP4 SWAP3 SWAP2 SWAP1 PUSH2 0x3293 JUMP JUMPDEST PUSH1 0x20 PUSH1 0x40 MLOAD DUP1 DUP4 SUB DUP2 PUSH1 0x0 DUP8 GAS CALL ISZERO DUP1 ISZERO PUSH2 0x2342 JUMPI RETURNDATASIZE PUSH1 0x0 DUP1 RETURNDATACOPY RETURNDATASIZE PUSH1 0x0 REVERT JUMPDEST POP POP POP POP PUSH1 0x40 MLOAD RETURNDATASIZE PUSH1 0x1F NOT PUSH1 0x1F DUP3 ADD AND DUP3 ADD DUP1 PUSH1 0x40 MSTORE POP DUP2 ADD SWAP1 PUSH2 0x2366 SWAP2 SWAP1 PUSH2 0x34F2 JUMP JUMPDEST POP PUSH2 0x2370 DUP6 PUSH2 0x2654 JUMP JUMPDEST PUSH1 0x4 PUSH1 0x0 DUP8 DUP2 MSTORE PUSH1 0x20 ADD SWAP1 DUP2 MSTORE PUSH1 0x20 ADD PUSH1 0x0 KECCAK256 SLOAD DUP6 PUSH2 0x238F SWAP2 SWAP1 PUSH2 0x34A9 JUMP JUMPDEST LT PUSH2 0x2457 JUMPI PUSH1 0x0 DUP3 PUSH1 0x80 ADD MLOAD SWAP1 POP DUP1 PUSH20 0xFFFFFFFFFFFFFFFFFFFFFFFFFFFFFFFFFFFFFFFF AND PUSH4 0x42842E0E ADDRESS DUP5 PUSH1 0x40 ADD MLOAD DUP7 PUSH1 0xC0 ADD MLOAD PUSH1 0x40 MLOAD DUP5 PUSH4 0xFFFFFFFF AND PUSH1 0xE0 SHL DUP2 MSTORE PUSH1 0x4 ADD PUSH2 0x23E2 SWAP4 SWAP3 SWAP2 SWAP1 PUSH2 0x3293 JUMP JUMPDEST PUSH1 0x0 PUSH1 0x40 MLOAD DUP1 DUP4 SUB DUP2 PUSH1 0x0 DUP8 DUP1 EXTCODESIZE ISZERO DUP1 ISZERO PUSH2 0x23FC JUMPI PUSH1 0x0 DUP1 REVERT JUMPDEST POP GAS CALL ISZERO DUP1 ISZERO PUSH2 0x2410 JUMPI RETURNDATASIZE PUSH1 0x0 DUP1 RETURNDATACOPY RETURNDATASIZE PUSH1 0x0 REVERT JUMPDEST POP POP POP POP PUSH32 0xCF3EAFC70E544BBB0B7B916314BE01382E9819EF1DEA730BD182222030FFE4A9 DUP7 PUSH1 0x40 MLOAD PUSH2 0x2443 SWAP2 SWAP1 PUSH2 0x2D34 JUMP JUMPDEST PUSH1 0x40 MLOAD DUP1 SWAP2 SUB SWAP1 LOG1 PUSH2 0x2453 PUSH2 0x2C48 JUMP JUMPDEST SWAP3 POP POP JUMPDEST DUP4 PUSH1 0x4 PUSH1 0x0 DUP8 DUP2 MSTORE PUSH1 0x20 ADD SWAP1 DUP2 MSTORE PUSH1 0x20 ADD PUSH1 0x0 KECCAK256 PUSH1 0x0 DUP3 DUP3 SLOAD PUSH2 0x247A SWAP2 SWAP1 PUSH2 0x34A9 JUMP JUMPDEST SWAP3 POP POP DUP2 SWAP1 SSTORE POP POP POP POP POP POP JUMP JUMPDEST PUSH1 0x1 PUSH1 0x20 MSTORE DUP1 PUSH1 0x0 MSTORE PUSH1 0x40 PUSH1 0x0 KECCAK256 PUSH1 0x0 SWAP2 POP SWAP1 POP DUP1 PUSH1 0x0 ADD PUSH1 0x0 SWAP1 SLOAD SWAP1 PUSH2 0x100 EXP SWAP1 DIV PUSH20 0xFFFFFFFFFFFFFFFFFFFFFFFFFFFFFFFFFFFFFFFF AND SWAP1 DUP1 PUSH1 0x1 ADD PUSH1 0x0 SWAP1 SLOAD SWAP1 PUSH2 0x100 EXP SWAP1 DIV PUSH20 0xFFFFFFFFFFFFFFFFFFFFFFFFFFFFFFFFFFFFFFFF AND SWAP1 DUP1 PUSH1 0x2 ADD PUSH1 0x0 SWAP1 SLOAD SWAP1 PUSH2 0x100 EXP SWAP1 DIV PUSH20 0xFFFFFFFFFFFFFFFFFFFFFFFFFFFFFFFFFFFFFFFF AND SWAP1 DUP1 PUSH1 0x3 ADD PUSH1 0x0 SWAP1 SLOAD SWAP1 PUSH2 0x100 EXP SWAP1 DIV PUSH20 0xFFFFFFFFFFFFFFFFFFFFFFFFFFFFFFFFFFFFFFFF AND SWAP1 DUP1 PUSH1 0x4 ADD PUSH1 0x0 SWAP1 SLOAD SWAP1 PUSH2 0x100 EXP SWAP1 DIV PUSH20 0xFFFFFFFFFFFFFFFFFFFFFFFFFFFFFFFFFFFFFFFF AND SWAP1 DUP1 PUSH1 0x5 ADD SLOAD SWAP1 DUP1 PUSH1 0x6 ADD SLOAD SWAP1 DUP1 PUSH1 0x7 ADD SLOAD SWAP1 DUP1 PUSH1 0x8 ADD SLOAD SWAP1 DUP1 PUSH1 0x9 ADD SLOAD SWAP1 DUP1 PUSH1 0xA ADD PUSH1 0x0 SWAP1 SLOAD SWAP1 PUSH2 0x100 EXP SWAP1 DIV PUSH1 0xFF AND SWAP1 DUP1 PUSH1 0xA ADD PUSH1 0x1 SWAP1 SLOAD SWAP1 PUSH2 0x100 EXP SWAP1 DIV PUSH1 0xFF AND SWAP1 POP DUP13 JUMP JUMPDEST DUP1 PUSH1 0x3 PUSH1 0x0 DUP6 DUP2 MSTORE PUSH1 0x20 ADD SWAP1 DUP2 MSTORE PUSH1 0x20 ADD PUSH1 0x0 KECCAK256 PUSH1 0x0 DUP5 PUSH20 0xFFFFFFFFFFFFFFFFFFFFFFFFFFFFFFFFFFFFFFFF AND PUSH20 0xFFFFFFFFFFFFFFFFFFFFFFFFFFFFFFFFFFFFFFFF AND DUP2 MSTORE PUSH1 0x20 ADD SWAP1 DUP2 MSTORE PUSH1 0x20 ADD PUSH1 0x0 KECCAK256 PUSH1 0x0 PUSH2 0x100 EXP DUP2 SLOAD DUP2 PUSH1 0xFF MUL NOT AND SWAP1 DUP4 ISZERO ISZERO MUL OR SWAP1 SSTORE POP POP POP POP JUMP JUMPDEST PUSH1 0x0 TIMESTAMP PUSH1 0x1 PUSH1 0x0 DUP5 DUP2 MSTORE PUSH1 0x20 ADD SWAP1 DUP2 MSTORE PUSH1 0x20 ADD PUSH1 0x0 KECCAK256 PUSH1 0x7 ADD SLOAD LT SWAP1 POP SWAP2 SWAP1 POP JUMP JUMPDEST PUSH1 0x0 TIMESTAMP PUSH1 0x1 PUSH1 0x0 DUP5 DUP2 MSTORE PUSH1 0x20 ADD SWAP1 DUP2 MSTORE PUSH1 0x20 ADD PUSH1 0x0 KECCAK256 PUSH1 0x8 ADD SLOAD GT ISZERO SWAP1 POP SWAP2 SWAP1 POP JUMP JUMPDEST PUSH1 0x0 DUP1 PUSH1 0x1 PUSH1 0x0 DUP5 DUP2 MSTORE PUSH1 0x20 ADD SWAP1 DUP2 MSTORE PUSH1 0x20 ADD PUSH1 0x0 KECCAK256 PUSH1 0x40 MLOAD DUP1 PUSH2 0x180 ADD PUSH1 0x40 MSTORE SWAP1 DUP2 PUSH1 0x0 DUP3 ADD PUSH1 0x0 SWAP1 SLOAD SWAP1 PUSH2 0x100 EXP SWAP1 DIV PUSH20 0xFFFFFFFFFFFFFFFFFFFFFFFFFFFFFFFFFFFFFFFF AND PUSH20 0xFFFFFFFFFFFFFFFFFFFFFFFFFFFFFFFFFFFFFFFF AND PUSH20 0xFFFFFFFFFFFFFFFFFFFFFFFFFFFFFFFFFFFFFFFF AND DUP2 MSTORE PUSH1 0x20 ADD PUSH1 0x1 DUP3 ADD PUSH1 0x0 SWAP1 SLOAD SWAP1 PUSH2 0x100 EXP SWAP1 DIV PUSH20 0xFFFFFFFFFFFFFFFFFFFFFFFFFFFFFFFFFFFFFFFF AND PUSH20 0xFFFFFFFFFFFFFFFFFFFFFFFFFFFFFFFFFFFFFFFF AND PUSH20 0xFFFFFFFFFFFFFFFFFFFFFFFFFFFFFFFFFFFFFFFF AND DUP2 MSTORE PUSH1 0x20 ADD PUSH1 0x2 DUP3 ADD PUSH1 0x0 SWAP1 SLOAD SWAP1 PUSH2 0x100 EXP SWAP1 DIV PUSH20 0xFFFFFFFFFFFFFFFFFFFFFFFFFFFFFFFFFFFFFFFF AND PUSH20 0xFFFFFFFFFFFFFFFFFFFFFFFFFFFFFFFFFFFFFFFF AND PUSH20 0xFFFFFFFFFFFFFFFFFFFFFFFFFFFFFFFFFFFFFFFF AND DUP2 MSTORE PUSH1 0x20 ADD PUSH1 0x3 DUP3 ADD PUSH1 0x0 SWAP1 SLOAD SWAP1 PUSH2 0x100 EXP SWAP1 DIV PUSH20 0xFFFFFFFFFFFFFFFFFFFFFFFFFFFFFFFFFFFFFFFF AND PUSH20 0xFFFFFFFFFFFFFFFFFFFFFFFFFFFFFFFFFFFFFFFF AND PUSH20 0xFFFFFFFFFFFFFFFFFFFFFFFFFFFFFFFFFFFFFFFF AND DUP2 MSTORE PUSH1 0x20 ADD PUSH1 0x4 DUP3 ADD PUSH1 0x0 SWAP1 SLOAD SWAP1 PUSH2 0x100 EXP SWAP1 DIV PUSH20 0xFFFFFFFFFFFFFFFFFFFFFFFFFFFFFFFFFFFFFFFF AND PUSH20 0xFFFFFFFFFFFFFFFFFFFFFFFFFFFFFFFFFFFFFFFF AND PUSH20 0xFFFFFFFFFFFFFFFFFFFFFFFFFFFFFFFFFFFFFFFF AND DUP2 MSTORE PUSH1 0x20 ADD PUSH1 0x5 DUP3 ADD SLOAD DUP2 MSTORE PUSH1 0x20 ADD PUSH1 0x6 DUP3 ADD SLOAD DUP2 MSTORE PUSH1 0x20 ADD PUSH1 0x7 DUP3 ADD SLOAD DUP2 MSTORE PUSH1 0x20 ADD PUSH1 0x8 DUP3 ADD SLOAD DUP2 MSTORE PUSH1 0x20 ADD PUSH1 0x9 DUP3 ADD SLOAD DUP2 MSTORE PUSH1 0x20 ADD PUSH1 0xA DUP3 ADD PUSH1 0x0 SWAP1 SLOAD SWAP1 PUSH2 0x100 EXP SWAP1 DIV PUSH1 0xFF AND ISZERO ISZERO ISZERO ISZERO DUP2 MSTORE PUSH1 0x20 ADD PUSH1 0xA DUP3 ADD PUSH1 0x1 SWAP1 SLOAD SWAP1 PUSH2 0x100 EXP SWAP1 DIV PUSH1 0xFF AND ISZERO ISZERO ISZERO ISZERO DUP2 MSTORE POP POP SWAP1 POP PUSH1 0x0 PUSH1 0x2 PUSH1 0x0 DUP6 DUP2 MSTORE PUSH1 0x20 ADD SWAP1 DUP2 MSTORE PUSH1 0x20 ADD PUSH1 0x0 KECCAK256 PUSH1 0x0 DUP4 PUSH2 0x120 ADD MLOAD DUP2 MSTORE PUSH1 0x20 ADD SWAP1 DUP2 MSTORE PUSH1 0x20 ADD PUSH1 0x0 KECCAK256 PUSH1 0x40 MLOAD DUP1 PUSH1 0xA0 ADD PUSH1 0x40 MSTORE SWAP1 DUP2 PUSH1 0x0 DUP3 ADD SLOAD DUP2 MSTORE PUSH1 0x20 ADD PUSH1 0x1 DUP3 ADD SLOAD DUP2 MSTORE PUSH1 0x20 ADD PUSH1 0x2 DUP3 ADD PUSH1 0x0 SWAP1 SLOAD SWAP1 PUSH2 0x100 EXP SWAP1 DIV PUSH20 0xFFFFFFFFFFFFFFFFFFFFFFFFFFFFFFFFFFFFFFFF AND PUSH20 0xFFFFFFFFFFFFFFFFFFFFFFFFFFFFFFFFFFFFFFFF AND PUSH20 0xFFFFFFFFFFFFFFFFFFFFFFFFFFFFFFFFFFFFFFFF AND DUP2 MSTORE PUSH1 0x20 ADD PUSH1 0x3 DUP3 ADD SLOAD DUP2 MSTORE PUSH1 0x20 ADD PUSH1 0x4 DUP3 ADD PUSH1 0x0 SWAP1 SLOAD SWAP1 PUSH2 0x100 EXP SWAP1 DIV PUSH2 0xFFFF AND PUSH2 0xFFFF AND PUSH2 0xFFFF AND DUP2 MSTORE POP POP SWAP1 POP PUSH1 0x0 PUSH2 0x2965 DUP6 PUSH2 0x2631 JUMP JUMPDEST ISZERO PUSH2 0x2986 JUMPI DUP3 PUSH2 0x100 ADD MLOAD DUP3 PUSH1 0x0 ADD MLOAD PUSH2 0x297F SWAP2 SWAP1 PUSH2 0x351F JUMP JUMPDEST SWAP1 POP PUSH2 0x2999 JUMP JUMPDEST TIMESTAMP DUP3 PUSH1 0x0 ADD MLOAD PUSH2 0x2996 SWAP2 SWAP1 PUSH2 0x351F JUMP JUMPDEST SWAP1 POP JUMPDEST PUSH1 0x0 PUSH2 0x29C0 DUP5 PUSH1 0xA0 ADD MLOAD PUSH8 0x8AC7230489E80000 DUP6 PUSH1 0x20 ADD MLOAD PUSH2 0x2B6D SWAP1 SWAP3 SWAP2 SWAP1 PUSH4 0xFFFFFFFF AND JUMP JUMPDEST SWAP1 POP PUSH2 0x29DB DUP3 PUSH4 0x1E13380 DUP4 PUSH2 0x2B6D SWAP1 SWAP3 SWAP2 SWAP1 PUSH4 0xFFFFFFFF AND JUMP JUMPDEST DUP4 PUSH1 0x20 ADD MLOAD PUSH2 0x29EA SWAP2 SWAP1 PUSH2 0x34A9 JUMP JUMPDEST SWAP5 POP POP POP POP POP SWAP2 SWAP1 POP JUMP JUMPDEST PUSH1 0x0 DUP1 DUP5 PUSH1 0x60 ADD MLOAD PUSH20 0xFFFFFFFFFFFFFFFFFFFFFFFFFFFFFFFFFFFFFFFF AND PUSH4 0xFC57D4DF DUP7 PUSH1 0x20 ADD MLOAD PUSH1 0x40 MLOAD DUP3 PUSH4 0xFFFFFFFF AND PUSH1 0xE0 SHL DUP2 MSTORE PUSH1 0x4 ADD PUSH2 0x2A39 SWAP2 SWAP1 PUSH2 0x3848 JUMP JUMPDEST PUSH1 0x20 PUSH1 0x40 MLOAD DUP1 DUP4 SUB DUP2 DUP7 GAS STATICCALL ISZERO DUP1 ISZERO PUSH2 0x2A56 JUMPI RETURNDATASIZE PUSH1 0x0 DUP1 RETURNDATACOPY RETURNDATASIZE PUSH1 0x0 REVERT JUMPDEST POP POP POP POP PUSH1 0x40 MLOAD RETURNDATASIZE PUSH1 0x1F NOT PUSH1 0x1F DUP3 ADD AND DUP3 ADD DUP1 PUSH1 0x40 MSTORE POP DUP2 ADD SWAP1 PUSH2 0x2A7A SWAP2 SWAP1 PUSH2 0x3878 JUMP JUMPDEST DUP6 PUSH1 0x60 ADD MLOAD PUSH20 0xFFFFFFFFFFFFFFFFFFFFFFFFFFFFFFFFFFFFFFFF AND PUSH4 0x6CD702C DUP8 PUSH1 0x80 ADD MLOAD DUP9 PUSH1 0xC0 ADD MLOAD PUSH1 0x40 MLOAD DUP4 PUSH4 0xFFFFFFFF AND PUSH1 0xE0 SHL DUP2 MSTORE PUSH1 0x4 ADD PUSH2 0x2AC1 SWAP3 SWAP2 SWAP1 PUSH2 0x376B JUMP JUMPDEST PUSH1 0x20 PUSH1 0x40 MLOAD DUP1 DUP4 SUB DUP2 DUP7 GAS STATICCALL ISZERO DUP1 ISZERO PUSH2 0x2ADE JUMPI RETURNDATASIZE PUSH1 0x0 DUP1 RETURNDATACOPY RETURNDATASIZE PUSH1 0x0 REVERT JUMPDEST POP POP POP POP PUSH1 0x40 MLOAD RETURNDATASIZE PUSH1 0x1F NOT PUSH1 0x1F DUP3 ADD AND DUP3 ADD DUP1 PUSH1 0x40 MSTORE POP DUP2 ADD SWAP1 PUSH2 0x2B02 SWAP2 SWAP1 PUSH2 0x3878 JUMP JUMPDEST PUSH2 0x2B0C SWAP2 SWAP1 PUSH2 0x38D4 JUMP JUMPDEST SWAP1 POP PUSH1 0x1 DUP2 DUP6 PUSH1 0x80 ADD MLOAD PUSH2 0xFFFF AND PUSH2 0x2B24 SWAP2 SWAP1 PUSH2 0x3905 JUMP JUMPDEST PUSH1 0x4 PUSH1 0x0 DUP7 DUP2 MSTORE PUSH1 0x20 ADD SWAP1 DUP2 MSTORE PUSH1 0x20 ADD PUSH1 0x0 KECCAK256 SLOAD DUP7 PUSH1 0x20 ADD MLOAD PUSH2 0x2B47 SWAP2 SWAP1 PUSH2 0x351F JUMP JUMPDEST PUSH2 0x2B51 SWAP2 SWAP1 PUSH2 0x38D4 JUMP JUMPDEST LT PUSH2 0x2B60 JUMPI PUSH1 0x0 SWAP2 POP POP PUSH2 0x2B66 JUMP JUMPDEST PUSH1 0x1 SWAP2 POP POP JUMPDEST SWAP4 SWAP3 POP POP POP JUMP JUMPDEST PUSH1 0x0 DUP1 PUSH1 0x0 DUP1 NOT DUP6 DUP8 MULMOD DUP6 DUP8 MUL SWAP3 POP DUP3 DUP2 LT DUP4 DUP3 SUB SUB SWAP2 POP POP PUSH1 0x0 DUP2 SUB PUSH2 0x2BA8 JUMPI DUP4 DUP3 DUP2 PUSH2 0x2B9E JUMPI PUSH2 0x2B9D PUSH2 0x38A5 JUMP JUMPDEST JUMPDEST DIV SWAP3 POP POP POP PUSH2 0x2C41 JUMP JUMPDEST DUP1 DUP5 GT PUSH2 0x2BB4 JUMPI PUSH1 0x0 DUP1 REVERT JUMPDEST PUSH1 0x0 DUP5 DUP7 DUP9 MULMOD SWAP1 POP DUP3 DUP2 GT DUP3 SUB SWAP2 POP DUP1 DUP4 SUB SWAP3 POP PUSH1 0x0 PUSH1 0x1 DUP7 NOT ADD DUP7 AND SWAP1 POP DUP1 DUP7 DIV SWAP6 POP DUP1 DUP5 DIV SWAP4 POP PUSH1 0x1 DUP2 DUP3 PUSH1 0x0 SUB DIV ADD SWAP1 POP DUP1 DUP4 MUL DUP5 OR SWAP4 POP PUSH1 0x0 PUSH1 0x2 DUP8 PUSH1 0x3 MUL XOR SWAP1 POP DUP1 DUP8 MUL PUSH1 0x2 SUB DUP2 MUL SWAP1 POP DUP1 DUP8 MUL PUSH1 0x2 SUB DUP2 MUL SWAP1 POP DUP1 DUP8 MUL PUSH1 0x2 SUB DUP2 MUL SWAP1 POP DUP1 DUP8 MUL PUSH1 0x2 SUB DUP2 MUL SWAP1 POP DUP1 DUP8 MUL PUSH1 0x2 SUB DUP2 MUL SWAP1 POP DUP1 DUP8 MUL PUSH1 0x2 SUB DUP2 MUL SWAP1 POP DUP1 DUP6 MUL SWAP6 POP POP POP POP POP POP JUMPDEST SWAP4 SWAP3 POP POP POP JUMP JUMPDEST PUSH1 0x40 MLOAD DUP1 PUSH2 0x180 ADD PUSH1 0x40 MSTORE DUP1 PUSH1 0x0 PUSH20 0xFFFFFFFFFFFFFFFFFFFFFFFFFFFFFFFFFFFFFFFF AND DUP2 MSTORE PUSH1 0x20 ADD PUSH1 0x0 PUSH20 0xFFFFFFFFFFFFFFFFFFFFFFFFFFFFFFFFFFFFFFFF AND DUP2 MSTORE PUSH1 0x20 ADD PUSH1 0x0 PUSH20 0xFFFFFFFFFFFFFFFFFFFFFFFFFFFFFFFFFFFFFFFF AND DUP2 MSTORE PUSH1 0x20 ADD PUSH1 0x0 PUSH20 0xFFFFFFFFFFFFFFFFFFFFFFFFFFFFFFFFFFFFFFFF AND DUP2 MSTORE PUSH1 0x20 ADD PUSH1 0x0 PUSH20 0xFFFFFFFFFFFFFFFFFFFFFFFFFFFFFFFFFFFFFFFF AND DUP2 MSTORE PUSH1 0x20 ADD PUSH1 0x0 DUP2 MSTORE PUSH1 0x20 ADD PUSH1 0x0 DUP2 MSTORE PUSH1 0x20 ADD PUSH1 0x0 DUP2 MSTORE PUSH1 0x20 ADD PUSH1 0x0 DUP2 MSTORE PUSH1 0x20 ADD PUSH1 0x0 DUP2 MSTORE PUSH1 0x20 ADD PUSH1 0x0 ISZERO ISZERO DUP2 MSTORE PUSH1 0x20 ADD PUSH1 0x0 ISZERO ISZERO DUP2 MSTORE POP SWAP1 JUMP JUMPDEST PUSH1 0x0 DUP2 SWAP1 POP SWAP2 SWAP1 POP JUMP JUMPDEST PUSH2 0x2D2E DUP2 PUSH2 0x2D1B JUMP JUMPDEST DUP3 MSTORE POP POP JUMP JUMPDEST PUSH1 0x0 PUSH1 0x20 DUP3 ADD SWAP1 POP PUSH2 0x2D49 PUSH1 0x0 DUP4 ADD DUP5 PUSH2 0x2D25 JUMP JUMPDEST SWAP3 SWAP2 POP POP JUMP JUMPDEST PUSH1 0x0 DUP1 REVERT JUMPDEST PUSH2 0x2D5D DUP2 PUSH2 0x2D1B JUMP JUMPDEST DUP2 EQ PUSH2 0x2D68 JUMPI PUSH1 0x0 DUP1 REVERT JUMPDEST POP JUMP JUMPDEST PUSH1 0x0 DUP2 CALLDATALOAD SWAP1 POP PUSH2 0x2D7A DUP2 PUSH2 0x2D54 JUMP JUMPDEST SWAP3 SWAP2 POP POP JUMP JUMPDEST PUSH1 0x0 PUSH1 0x20 DUP3 DUP5 SUB SLT ISZERO PUSH2 0x2D96 JUMPI PUSH2 0x2D95 PUSH2 0x2D4F JUMP JUMPDEST JUMPDEST PUSH1 0x0 PUSH2 0x2DA4 DUP5 DUP3 DUP6 ADD PUSH2 0x2D6B JUMP JUMPDEST SWAP2 POP POP SWAP3 SWAP2 POP POP JUMP JUMPDEST PUSH1 0x0 PUSH2 0xFFFF DUP3 AND SWAP1 POP SWAP2 SWAP1 POP JUMP JUMPDEST PUSH2 0x2DC4 DUP2 PUSH2 0x2DAD JUMP JUMPDEST DUP2 EQ PUSH2 0x2DCF JUMPI PUSH1 0x0 DUP1 REVERT JUMPDEST POP JUMP JUMPDEST PUSH1 0x0 DUP2 CALLDATALOAD SWAP1 POP PUSH2 0x2DE1 DUP2 PUSH2 0x2DBB JUMP JUMPDEST SWAP3 SWAP2 POP POP JUMP JUMPDEST PUSH1 0x0 DUP1 PUSH1 0x0 DUP1 PUSH1 0x80 DUP6 DUP8 SUB SLT ISZERO PUSH2 0x2E01 JUMPI PUSH2 0x2E00 PUSH2 0x2D4F JUMP JUMPDEST JUMPDEST PUSH1 0x0 PUSH2 0x2E0F DUP8 DUP3 DUP9 ADD PUSH2 0x2D6B JUMP JUMPDEST SWAP5 POP POP PUSH1 0x20 PUSH2 0x2E20 DUP8 DUP3 DUP9 ADD PUSH2 0x2D6B JUMP JUMPDEST SWAP4 POP POP PUSH1 0x40 PUSH2 0x2E31 DUP8 DUP3 DUP9 ADD PUSH2 0x2D6B JUMP JUMPDEST SWAP3 POP POP PUSH1 0x60 PUSH2 0x2E42 DUP8 DUP3 DUP9 ADD PUSH2 0x2DD2 JUMP JUMPDEST SWAP2 POP POP SWAP3 SWAP6 SWAP2 SWAP5 POP SWAP3 POP JUMP JUMPDEST PUSH1 0x0 DUP2 ISZERO ISZERO SWAP1 POP SWAP2 SWAP1 POP JUMP JUMPDEST PUSH2 0x2E63 DUP2 PUSH2 0x2E4E JUMP JUMPDEST DUP2 EQ PUSH2 0x2E6E JUMPI PUSH1 0x0 DUP1 REVERT JUMPDEST POP JUMP JUMPDEST PUSH1 0x0 DUP2 CALLDATALOAD SWAP1 POP PUSH2 0x2E80 DUP2 PUSH2 0x2E5A JUMP JUMPDEST SWAP3 SWAP2 POP POP JUMP JUMPDEST PUSH1 0x0 DUP1 PUSH1 0x40 DUP4 DUP6 SUB SLT ISZERO PUSH2 0x2E9D JUMPI PUSH2 0x2E9C PUSH2 0x2D4F JUMP JUMPDEST JUMPDEST PUSH1 0x0 PUSH2 0x2EAB DUP6 DUP3 DUP7 ADD PUSH2 0x2D6B JUMP JUMPDEST SWAP3 POP POP PUSH1 0x20 PUSH2 0x2EBC DUP6 DUP3 DUP7 ADD PUSH2 0x2E71 JUMP JUMPDEST SWAP2 POP POP SWAP3 POP SWAP3 SWAP1 POP JUMP JUMPDEST PUSH1 0x0 DUP1 PUSH1 0x40 DUP4 DUP6 SUB SLT ISZERO PUSH2 0x2EDD JUMPI PUSH2 0x2EDC PUSH2 0x2D4F JUMP JUMPDEST JUMPDEST PUSH1 0x0 PUSH2 0x2EEB DUP6 DUP3 DUP7 ADD PUSH2 0x2D6B JUMP JUMPDEST SWAP3 POP POP PUSH1 0x20 PUSH2 0x2EFC DUP6 DUP3 DUP7 ADD PUSH2 0x2D6B JUMP JUMPDEST SWAP2 POP POP SWAP3 POP SWAP3 SWAP1 POP JUMP JUMPDEST PUSH1 0x0 PUSH20 0xFFFFFFFFFFFFFFFFFFFFFFFFFFFFFFFFFFFFFFFF DUP3 AND SWAP1 POP SWAP2 SWAP1 POP JUMP JUMPDEST PUSH1 0x0 PUSH2 0x2F31 DUP3 PUSH2 0x2F06 JUMP JUMPDEST SWAP1 POP SWAP2 SWAP1 POP JUMP JUMPDEST PUSH2 0x2F41 DUP2 PUSH2 0x2F26 JUMP JUMPDEST DUP3 MSTORE POP POP JUMP JUMPDEST PUSH2 0x2F50 DUP2 PUSH2 0x2DAD JUMP JUMPDEST DUP3 MSTORE POP POP JUMP JUMPDEST PUSH1 0x0 PUSH1 0xA0 DUP3 ADD SWAP1 POP PUSH2 0x2F6B PUSH1 0x0 DUP4 ADD DUP9 PUSH2 0x2D25 JUMP JUMPDEST PUSH2 0x2F78 PUSH1 0x20 DUP4 ADD DUP8 PUSH2 0x2D25 JUMP JUMPDEST PUSH2 0x2F85 PUSH1 0x40 DUP4 ADD DUP7 PUSH2 0x2F38 JUMP JUMPDEST PUSH2 0x2F92 PUSH1 0x60 DUP4 ADD DUP6 PUSH2 0x2D25 JUMP JUMPDEST PUSH2 0x2F9F PUSH1 0x80 DUP4 ADD DUP5 PUSH2 0x2F47 JUMP JUMPDEST SWAP7 SWAP6 POP POP POP POP POP POP JUMP JUMPDEST PUSH2 0x2FB2 DUP2 PUSH2 0x2F26 JUMP JUMPDEST DUP2 EQ PUSH2 0x2FBD JUMPI PUSH1 0x0 DUP1 REVERT JUMPDEST POP JUMP JUMPDEST PUSH1 0x0 DUP2 CALLDATALOAD SWAP1 POP PUSH2 0x2FCF DUP2 PUSH2 0x2FA9 JUMP JUMPDEST SWAP3 SWAP2 POP POP JUMP JUMPDEST PUSH1 0x0 DUP1 PUSH1 0x0 DUP1 PUSH1 0x0 DUP1 PUSH1 0x0 DUP1 PUSH1 0x0 PUSH2 0x120 DUP11 DUP13 SUB SLT ISZERO PUSH2 0x2FF8 JUMPI PUSH2 0x2FF7 PUSH2 0x2D4F JUMP JUMPDEST JUMPDEST PUSH1 0x0 PUSH2 0x3006 DUP13 DUP3 DUP14 ADD PUSH2 0x2FC0 JUMP JUMPDEST SWAP10 POP POP PUSH1 0x20 PUSH2 0x3017 DUP13 DUP3 DUP14 ADD PUSH2 0x2FC0 JUMP JUMPDEST SWAP9 POP POP PUSH1 0x40 PUSH2 0x3028 DUP13 DUP3 DUP14 ADD PUSH2 0x2FC0 JUMP JUMPDEST SWAP8 POP POP PUSH1 0x60 PUSH2 0x3039 DUP13 DUP3 DUP14 ADD PUSH2 0x2FC0 JUMP JUMPDEST SWAP7 POP POP PUSH1 0x80 PUSH2 0x304A DUP13 DUP3 DUP14 ADD PUSH2 0x2D6B JUMP JUMPDEST SWAP6 POP POP PUSH1 0xA0 PUSH2 0x305B DUP13 DUP3 DUP14 ADD PUSH2 0x2D6B JUMP JUMPDEST SWAP5 POP POP PUSH1 0xC0 PUSH2 0x306C DUP13 DUP3 DUP14 ADD PUSH2 0x2D6B JUMP JUMPDEST SWAP4 POP POP PUSH1 0xE0 PUSH2 0x307D DUP13 DUP3 DUP14 ADD PUSH2 0x2E71 JUMP JUMPDEST SWAP3 POP POP PUSH2 0x100 PUSH2 0x308F DUP13 DUP3 DUP14 ADD PUSH2 0x2E71 JUMP JUMPDEST SWAP2 POP POP SWAP3 SWAP6 SWAP9 POP SWAP3 SWAP6 SWAP9 POP SWAP3 SWAP6 SWAP9 JUMP JUMPDEST PUSH1 0x0 DUP1 PUSH1 0x40 DUP4 DUP6 SUB SLT ISZERO PUSH2 0x30B6 JUMPI PUSH2 0x30B5 PUSH2 0x2D4F JUMP JUMPDEST JUMPDEST PUSH1 0x0 PUSH2 0x30C4 DUP6 DUP3 DUP7 ADD PUSH2 0x2D6B JUMP JUMPDEST SWAP3 POP POP PUSH1 0x20 PUSH2 0x30D5 DUP6 DUP3 DUP7 ADD PUSH2 0x2FC0 JUMP JUMPDEST SWAP2 POP POP SWAP3 POP SWAP3 SWAP1 POP JUMP JUMPDEST PUSH2 0x30E8 DUP2 PUSH2 0x2E4E JUMP JUMPDEST DUP3 MSTORE POP POP JUMP JUMPDEST PUSH1 0x0 PUSH1 0x20 DUP3 ADD SWAP1 POP PUSH2 0x3103 PUSH1 0x0 DUP4 ADD DUP5 PUSH2 0x30DF JUMP JUMPDEST SWAP3 SWAP2 POP POP JUMP JUMPDEST PUSH1 0x0 PUSH2 0x180 DUP3 ADD SWAP1 POP PUSH2 0x311F PUSH1 0x0 DUP4 ADD DUP16 PUSH2 0x2F38 JUMP JUMPDEST PUSH2 0x312C PUSH1 0x20 DUP4 ADD DUP15 PUSH2 0x2F38 JUMP JUMPDEST PUSH2 0x3139 PUSH1 0x40 DUP4 ADD DUP14 PUSH2 0x2F38 JUMP JUMPDEST PUSH2 0x3146 PUSH1 0x60 DUP4 ADD DUP13 PUSH2 0x2F38 JUMP JUMPDEST PUSH2 0x3153 PUSH1 0x80 DUP4 ADD DUP12 PUSH2 0x2F38 JUMP JUMPDEST PUSH2 0x3160 PUSH1 0xA0 DUP4 ADD DUP11 PUSH2 0x2D25 JUMP JUMPDEST PUSH2 0x316D PUSH1 0xC0 DUP4 ADD DUP10 PUSH2 0x2D25 JUMP JUMPDEST PUSH2 0x317A PUSH1 0xE0 DUP4 ADD DUP9 PUSH2 0x2D25 JUMP JUMPDEST PUSH2 0x3188 PUSH2 0x100 DUP4 ADD DUP8 PUSH2 0x2D25 JUMP JUMPDEST PUSH2 0x3196 PUSH2 0x120 DUP4 ADD DUP7 PUSH2 0x2D25 JUMP JUMPDEST PUSH2 0x31A4 PUSH2 0x140 DUP4 ADD DUP6 PUSH2 0x30DF JUMP JUMPDEST PUSH2 0x31B2 PUSH2 0x160 DUP4 ADD DUP5 PUSH2 0x30DF JUMP JUMPDEST SWAP14 SWAP13 POP POP POP POP POP POP POP POP POP POP POP POP POP JUMP JUMPDEST PUSH1 0x0 DUP1 PUSH1 0x0 PUSH1 0x60 DUP5 DUP7 SUB SLT ISZERO PUSH2 0x31DC JUMPI PUSH2 0x31DB PUSH2 0x2D4F JUMP JUMPDEST JUMPDEST PUSH1 0x0 PUSH2 0x31EA DUP7 DUP3 DUP8 ADD PUSH2 0x2D6B JUMP JUMPDEST SWAP4 POP POP PUSH1 0x20 PUSH2 0x31FB DUP7 DUP3 DUP8 ADD PUSH2 0x2FC0 JUMP JUMPDEST SWAP3 POP POP PUSH1 0x40 PUSH2 0x320C DUP7 DUP3 DUP8 ADD PUSH2 0x2E71 JUMP JUMPDEST SWAP2 POP POP SWAP3 POP SWAP3 POP SWAP3 JUMP JUMPDEST PUSH1 0x0 DUP3 DUP3 MSTORE PUSH1 0x20 DUP3 ADD SWAP1 POP SWAP3 SWAP2 POP POP JUMP JUMPDEST PUSH32 0x4C414E3A206E6F74206F776E6572000000000000000000000000000000000000 PUSH1 0x0 DUP3 ADD MSTORE POP JUMP JUMPDEST PUSH1 0x0 PUSH2 0x325D PUSH1 0xE DUP4 PUSH2 0x3216 JUMP JUMPDEST SWAP2 POP PUSH2 0x3268 DUP3 PUSH2 0x3227 JUMP JUMPDEST PUSH1 0x20 DUP3 ADD SWAP1 POP SWAP2 SWAP1 POP JUMP JUMPDEST PUSH1 0x0 PUSH1 0x20 DUP3 ADD SWAP1 POP DUP2 DUP2 SUB PUSH1 0x0 DUP4 ADD MSTORE PUSH2 0x328C DUP2 PUSH2 0x3250 JUMP JUMPDEST SWAP1 POP SWAP2 SWAP1 POP JUMP JUMPDEST PUSH1 0x0 PUSH1 0x60 DUP3 ADD SWAP1 POP PUSH2 0x32A8 PUSH1 0x0 DUP4 ADD DUP7 PUSH2 0x2F38 JUMP JUMPDEST PUSH2 0x32B5 PUSH1 0x20 DUP4 ADD DUP6 PUSH2 0x2F38 JUMP JUMPDEST PUSH2 0x32C2 PUSH1 0x40 DUP4 ADD DUP5 PUSH2 0x2D25 JUMP JUMPDEST SWAP5 SWAP4 POP POP POP POP JUMP JUMPDEST PUSH32 0x4C414E3A206E6F74207374617274656400000000000000000000000000000000 PUSH1 0x0 DUP3 ADD MSTORE POP JUMP JUMPDEST PUSH1 0x0 PUSH2 0x3300 PUSH1 0x10 DUP4 PUSH2 0x3216 JUMP JUMPDEST SWAP2 POP PUSH2 0x330B DUP3 PUSH2 0x32CA JUMP JUMPDEST PUSH1 0x20 DUP3 ADD SWAP1 POP SWAP2 SWAP1 POP JUMP JUMPDEST PUSH1 0x0 PUSH1 0x20 DUP3 ADD SWAP1 POP DUP2 DUP2 SUB PUSH1 0x0 DUP4 ADD MSTORE PUSH2 0x332F DUP2 PUSH2 0x32F3 JUMP JUMPDEST SWAP1 POP SWAP2 SWAP1 POP JUMP JUMPDEST PUSH32 0x4C414E3A20616C726561647920656E6465640000000000000000000000000000 PUSH1 0x0 DUP3 ADD MSTORE POP JUMP JUMPDEST PUSH1 0x0 PUSH2 0x336C PUSH1 0x12 DUP4 PUSH2 0x3216 JUMP JUMPDEST SWAP2 POP PUSH2 0x3377 DUP3 PUSH2 0x3336 JUMP JUMPDEST PUSH1 0x20 DUP3 ADD SWAP1 POP SWAP2 SWAP1 POP JUMP JUMPDEST PUSH1 0x0 PUSH1 0x20 DUP3 ADD SWAP1 POP DUP2 DUP2 SUB PUSH1 0x0 DUP4 ADD MSTORE PUSH2 0x339B DUP2 PUSH2 0x335F JUMP JUMPDEST SWAP1 POP SWAP2 SWAP1 POP JUMP JUMPDEST PUSH32 0x4C414E3A204E6F742057686974656C6973746564000000000000000000000000 PUSH1 0x0 DUP3 ADD MSTORE POP JUMP JUMPDEST PUSH1 0x0 PUSH2 0x33D8 PUSH1 0x14 DUP4 PUSH2 0x3216 JUMP JUMPDEST SWAP2 POP PUSH2 0x33E3 DUP3 PUSH2 0x33A2 JUMP JUMPDEST PUSH1 0x20 DUP3 ADD SWAP1 POP SWAP2 SWAP1 POP JUMP JUMPDEST PUSH1 0x0 PUSH1 0x20 DUP3 ADD SWAP1 POP DUP2 DUP2 SUB PUSH1 0x0 DUP4 ADD MSTORE PUSH2 0x3407 DUP2 PUSH2 0x33CB JUMP JUMPDEST SWAP1 POP SWAP2 SWAP1 POP JUMP JUMPDEST PUSH32 0x4C414E3A20626964206E6F742068696768657200000000000000000000000000 PUSH1 0x0 DUP3 ADD MSTORE POP JUMP JUMPDEST PUSH1 0x0 PUSH2 0x3444 PUSH1 0x13 DUP4 PUSH2 0x3216 JUMP JUMPDEST SWAP2 POP PUSH2 0x344F DUP3 PUSH2 0x340E JUMP JUMPDEST PUSH1 0x20 DUP3 ADD SWAP1 POP SWAP2 SWAP1 POP JUMP JUMPDEST PUSH1 0x0 PUSH1 0x20 DUP3 ADD SWAP1 POP DUP2 DUP2 SUB PUSH1 0x0 DUP4 ADD MSTORE PUSH2 0x3473 DUP2 PUSH2 0x3437 JUMP JUMPDEST SWAP1 POP SWAP2 SWAP1 POP JUMP JUMPDEST PUSH32 0x4E487B7100000000000000000000000000000000000000000000000000000000 PUSH1 0x0 MSTORE PUSH1 0x11 PUSH1 0x4 MSTORE PUSH1 0x24 PUSH1 0x0 REVERT JUMPDEST PUSH1 0x0 PUSH2 0x34B4 DUP3 PUSH2 0x2D1B JUMP JUMPDEST SWAP2 POP PUSH2 0x34BF DUP4 PUSH2 0x2D1B JUMP JUMPDEST SWAP3 POP DUP3 DUP3 ADD SWAP1 POP DUP1 DUP3 GT ISZERO PUSH2 0x34D7 JUMPI PUSH2 0x34D6 PUSH2 0x347A JUMP JUMPDEST JUMPDEST SWAP3 SWAP2 POP POP JUMP JUMPDEST PUSH1 0x0 DUP2 MLOAD SWAP1 POP PUSH2 0x34EC DUP2 PUSH2 0x2E5A JUMP JUMPDEST SWAP3 SWAP2 POP POP JUMP JUMPDEST PUSH1 0x0 PUSH1 0x20 DUP3 DUP5 SUB SLT ISZERO PUSH2 0x3508 JUMPI PUSH2 0x3507 PUSH2 0x2D4F JUMP JUMPDEST JUMPDEST PUSH1 0x0 PUSH2 0x3516 DUP5 DUP3 DUP6 ADD PUSH2 0x34DD JUMP JUMPDEST SWAP2 POP POP SWAP3 SWAP2 POP POP JUMP JUMPDEST PUSH1 0x0 PUSH2 0x352A DUP3 PUSH2 0x2D1B JUMP JUMPDEST SWAP2 POP PUSH2 0x3535 DUP4 PUSH2 0x2D1B JUMP JUMPDEST SWAP3 POP DUP3 DUP3 SUB SWAP1 POP DUP2 DUP2 GT ISZERO PUSH2 0x354D JUMPI PUSH2 0x354C PUSH2 0x347A JUMP JUMPDEST JUMPDEST SWAP3 SWAP2 POP POP JUMP JUMPDEST PUSH32 0x4C414E3A20616C72656164792073746172746564000000000000000000000000 PUSH1 0x0 DUP3 ADD MSTORE POP JUMP JUMPDEST PUSH1 0x0 PUSH2 0x3589 PUSH1 0x14 DUP4 PUSH2 0x3216 JUMP JUMPDEST SWAP2 POP PUSH2 0x3594 DUP3 PUSH2 0x3553 JUMP JUMPDEST PUSH1 0x20 DUP3 ADD SWAP1 POP SWAP2 SWAP1 POP JUMP JUMPDEST PUSH1 0x0 PUSH1 0x20 DUP3 ADD SWAP1 POP DUP2 DUP2 SUB PUSH1 0x0 DUP4 ADD MSTORE PUSH2 0x35B8 DUP2 PUSH2 0x357C JUMP JUMPDEST SWAP1 POP SWAP2 SWAP1 POP JUMP JUMPDEST PUSH32 0x4C414E3A206E6F74206C6174657374206269646465722F6E6F746F7665722C20 PUSH1 0x0 DUP3 ADD MSTORE PUSH32 0x6F72206E6F74206C6971756964617461626C6500000000000000000000000000 PUSH1 0x20 DUP3 ADD MSTORE POP JUMP JUMPDEST PUSH1 0x0 PUSH2 0x361B PUSH1 0x33 DUP4 PUSH2 0x3216 JUMP JUMPDEST SWAP2 POP PUSH2 0x3626 DUP3 PUSH2 0x35BF JUMP JUMPDEST PUSH1 0x40 DUP3 ADD SWAP1 POP SWAP2 SWAP1 POP JUMP JUMPDEST PUSH1 0x0 PUSH1 0x20 DUP3 ADD SWAP1 POP DUP2 DUP2 SUB PUSH1 0x0 DUP4 ADD MSTORE PUSH2 0x364A DUP2 PUSH2 0x360E JUMP JUMPDEST SWAP1 POP SWAP2 SWAP1 POP JUMP JUMPDEST PUSH32 0x4C414E3A2073746172742074696D6520696E2070617374000000000000000000 PUSH1 0x0 DUP3 ADD MSTORE POP JUMP JUMPDEST PUSH1 0x0 PUSH2 0x3687 PUSH1 0x17 DUP4 PUSH2 0x3216 JUMP JUMPDEST SWAP2 POP PUSH2 0x3692 DUP3 PUSH2 0x3651 JUMP JUMPDEST PUSH1 0x20 DUP3 ADD SWAP1 POP SWAP2 SWAP1 POP JUMP JUMPDEST PUSH1 0x0 PUSH1 0x20 DUP3 ADD SWAP1 POP DUP2 DUP2 SUB PUSH1 0x0 DUP4 ADD MSTORE PUSH2 0x36B6 DUP2 PUSH2 0x367A JUMP JUMPDEST SWAP1 POP SWAP2 SWAP1 POP JUMP JUMPDEST PUSH32 0x4C414E3A20737461727420616674657220656E64000000000000000000000000 PUSH1 0x0 DUP3 ADD MSTORE POP JUMP JUMPDEST PUSH1 0x0 PUSH2 0x36F3 PUSH1 0x14 DUP4 PUSH2 0x3216 JUMP JUMPDEST SWAP2 POP PUSH2 0x36FE DUP3 PUSH2 0x36BD JUMP JUMPDEST PUSH1 0x20 DUP3 ADD SWAP1 POP SWAP2 SWAP1 POP JUMP JUMPDEST PUSH1 0x0 PUSH1 0x20 DUP3 ADD SWAP1 POP DUP2 DUP2 SUB PUSH1 0x0 DUP4 ADD MSTORE PUSH2 0x3722 DUP2 PUSH2 0x36E6 JUMP JUMPDEST SWAP1 POP SWAP2 SWAP1 POP JUMP JUMPDEST PUSH1 0x0 DUP2 MLOAD SWAP1 POP PUSH2 0x3738 DUP2 PUSH2 0x2FA9 JUMP JUMPDEST SWAP3 SWAP2 POP POP JUMP JUMPDEST PUSH1 0x0 PUSH1 0x20 DUP3 DUP5 SUB SLT ISZERO PUSH2 0x3754 JUMPI PUSH2 0x3753 PUSH2 0x2D4F JUMP JUMPDEST JUMPDEST PUSH1 0x0 PUSH2 0x3762 DUP5 DUP3 DUP6 ADD PUSH2 0x3729 JUMP JUMPDEST SWAP2 POP POP SWAP3 SWAP2 POP POP JUMP JUMPDEST PUSH1 0x0 PUSH1 0x40 DUP3 ADD SWAP1 POP PUSH2 0x3780 PUSH1 0x0 DUP4 ADD DUP6 PUSH2 0x2F38 JUMP JUMPDEST PUSH2 0x378D PUSH1 0x20 DUP4 ADD DUP5 PUSH2 0x2D25 JUMP JUMPDEST SWAP4 SWAP3 POP POP POP JUMP JUMPDEST PUSH1 0x0 PUSH2 0x379F DUP3 PUSH2 0x2D1B JUMP JUMPDEST SWAP2 POP PUSH32 0xFFFFFFFFFFFFFFFFFFFFFFFFFFFFFFFFFFFFFFFFFFFFFFFFFFFFFFFFFFFFFFFF DUP3 SUB PUSH2 0x37D1 JUMPI PUSH2 0x37D0 PUSH2 0x347A JUMP JUMPDEST JUMPDEST PUSH1 0x1 DUP3 ADD SWAP1 POP SWAP2 SWAP1 POP JUMP JUMPDEST PUSH32 0x4C414E3A204E6F7420746865206C617465737420626964646572000000000000 PUSH1 0x0 DUP3 ADD MSTORE POP JUMP JUMPDEST PUSH1 0x0 PUSH2 0x3812 PUSH1 0x1A DUP4 PUSH2 0x3216 JUMP JUMPDEST SWAP2 POP PUSH2 0x381D DUP3 PUSH2 0x37DC JUMP JUMPDEST PUSH1 0x20 DUP3 ADD SWAP1 POP SWAP2 SWAP1 POP JUMP JUMPDEST PUSH1 0x0 PUSH1 0x20 DUP3 ADD SWAP1 POP DUP2 DUP2 SUB PUSH1 0x0 DUP4 ADD MSTORE PUSH2 0x3841 DUP2 PUSH2 0x3805 JUMP JUMPDEST SWAP1 POP SWAP2 SWAP1 POP JUMP JUMPDEST PUSH1 0x0 PUSH1 0x20 DUP3 ADD SWAP1 POP PUSH2 0x385D PUSH1 0x0 DUP4 ADD DUP5 PUSH2 0x2F38 JUMP JUMPDEST SWAP3 SWAP2 POP POP JUMP JUMPDEST PUSH1 0x0 DUP2 MLOAD SWAP1 POP PUSH2 0x3872 DUP2 PUSH2 0x2D54 JUMP JUMPDEST SWAP3 SWAP2 POP POP JUMP JUMPDEST PUSH1 0x0 PUSH1 0x20 DUP3 DUP5 SUB SLT ISZERO PUSH2 0x388E JUMPI PUSH2 0x388D PUSH2 0x2D4F JUMP JUMPDEST JUMPDEST PUSH1 0x0 PUSH2 0x389C DUP5 DUP3 DUP6 ADD PUSH2 0x3863 JUMP JUMPDEST SWAP2 POP POP SWAP3 SWAP2 POP POP JUMP JUMPDEST PUSH32 0x4E487B7100000000000000000000000000000000000000000000000000000000 PUSH1 0x0 MSTORE PUSH1 0x12 PUSH1 0x4 MSTORE PUSH1 0x24 PUSH1 0x0 REVERT JUMPDEST PUSH1 0x0 PUSH2 0x38DF DUP3 PUSH2 0x2D1B JUMP JUMPDEST SWAP2 POP PUSH2 0x38EA DUP4 PUSH2 0x2D1B JUMP JUMPDEST SWAP3 POP DUP3 PUSH2 0x38FA JUMPI PUSH2 0x38F9 PUSH2 0x38A5 JUMP JUMPDEST JUMPDEST DUP3 DUP3 DIV SWAP1 POP SWAP3 SWAP2 POP POP JUMP JUMPDEST PUSH1 0x0 PUSH2 0x3910 DUP3 PUSH2 0x2D1B JUMP JUMPDEST SWAP2 POP PUSH2 0x391B DUP4 PUSH2 0x2D1B JUMP JUMPDEST SWAP3 POP DUP3 DUP3 MUL PUSH2 0x3929 DUP2 PUSH2 0x2D1B JUMP JUMPDEST SWAP2 POP DUP3 DUP3 DIV DUP5 EQ DUP4 ISZERO OR PUSH2 0x3940 JUMPI PUSH2 0x393F PUSH2 0x347A JUMP JUMPDEST JUMPDEST POP SWAP3 SWAP2 POP POP JUMP INVALID LOG2 PUSH5 0x6970667358 0x22 SLT KECCAK256 STOP PUSH15 0x3618BB72064553A3CB6EB344835C5E CALLDATACOPY 0xDA SWAP13 PUSH19 0x913C21FE76B9D8195B7D6E64736F6C63430008 GT STOP CALLER "
				},
				"gasEstimates": {
					"creation": {
						"codeDepositCost": "2943400",
						"executionCost": "3224",
						"totalCost": "2946624"
					},
					"external": {
						"bid(uint256,uint256,uint256,uint16)": "infinite",
						"bids(uint256,uint256)": "infinite",
						"cancel(uint256)": "infinite",
						"changeWhitelist(uint256,address,bool)": "25327",
						"count()": "2453",
						"launch(address,address,address,address,uint256,uint256,uint256,bool,bool)": "infinite",
						"liquidate(uint256)": "infinite",
						"liquidateEarly(uint256)": "infinite",
						"loans(uint256)": "infinite",
						"repay(uint256,uint256)": "infinite",
						"setNewBidOwner(uint256,address)": "57819",
						"userPoolReserve(uint256)": "infinite",
						"whitelistStatusUpdate(uint256,bool)": "29540",
						"whitelistedAddresses(uint256,address)": "3109"
					},
					"internal": {
						"_calculateLoanValue(uint256)": "infinite",
						"_ended(uint256)": "2226",
						"_liquidate(struct LAN.Loan memory,struct LAN.Bid memory,uint256)": "infinite",
						"_started(uint256)": "2223"
					}
				},
				"methodIdentifiers": {
					"bid(uint256,uint256,uint256,uint16)": "2168ed30",
					"bids(uint256,uint256)": "7b3c4baa",
					"cancel(uint256)": "40e58ee5",
					"changeWhitelist(uint256,address,bool)": "f724e48e",
					"count()": "06661abd",
					"launch(address,address,address,address,uint256,uint256,uint256,bool,bool)": "89e257a3",
					"liquidate(uint256)": "415f1240",
					"liquidateEarly(uint256)": "18de4f9d",
					"loans(uint256)": "e1ec3c68",
					"repay(uint256,uint256)": "d8aed145",
					"setNewBidOwner(uint256,address)": "8f769f3a",
					"userPoolReserve(uint256)": "7a4656d6",
					"whitelistStatusUpdate(uint256,bool)": "222fdf21",
					"whitelistedAddresses(uint256,address)": "a23b02bd"
				}
			},
			"storageLayout": {
				"storage": [
					{
						"astId": 757,
						"contract": "contracts/mainliquidations.sol:LAN",
						"label": "count",
						"offset": 0,
						"slot": "0",
						"type": "t_uint256"
					},
					{
						"astId": 788,
						"contract": "contracts/mainliquidations.sol:LAN",
						"label": "loans",
						"offset": 0,
						"slot": "1",
						"type": "t_mapping(t_uint256,t_struct(Loan)782_storage)"
					},
					{
						"astId": 807,
						"contract": "contracts/mainliquidations.sol:LAN",
						"label": "bids",
						"offset": 0,
						"slot": "2",
						"type": "t_mapping(t_uint256,t_mapping(t_uint256,t_struct(Bid)799_storage))"
					},
					{
						"astId": 814,
						"contract": "contracts/mainliquidations.sol:LAN",
						"label": "whitelistedAddresses",
						"offset": 0,
						"slot": "3",
						"type": "t_mapping(t_uint256,t_mapping(t_address,t_bool))"
					},
					{
						"astId": 819,
						"contract": "contracts/mainliquidations.sol:LAN",
						"label": "userPoolReserve",
						"offset": 0,
						"slot": "4",
						"type": "t_mapping(t_uint256,t_uint256)"
					}
				],
				"types": {
					"t_address": {
						"encoding": "inplace",
						"label": "address",
						"numberOfBytes": "20"
					},
					"t_bool": {
						"encoding": "inplace",
						"label": "bool",
						"numberOfBytes": "1"
					},
					"t_mapping(t_address,t_bool)": {
						"encoding": "mapping",
						"key": "t_address",
						"label": "mapping(address => bool)",
						"numberOfBytes": "32",
						"value": "t_bool"
					},
					"t_mapping(t_uint256,t_mapping(t_address,t_bool))": {
						"encoding": "mapping",
						"key": "t_uint256",
						"label": "mapping(uint256 => mapping(address => bool))",
						"numberOfBytes": "32",
						"value": "t_mapping(t_address,t_bool)"
					},
					"t_mapping(t_uint256,t_mapping(t_uint256,t_struct(Bid)799_storage))": {
						"encoding": "mapping",
						"key": "t_uint256",
						"label": "mapping(uint256 => mapping(uint256 => struct LAN.Bid))",
						"numberOfBytes": "32",
						"value": "t_mapping(t_uint256,t_struct(Bid)799_storage)"
					},
					"t_mapping(t_uint256,t_struct(Bid)799_storage)": {
						"encoding": "mapping",
						"key": "t_uint256",
						"label": "mapping(uint256 => struct LAN.Bid)",
						"numberOfBytes": "32",
						"value": "t_struct(Bid)799_storage"
					},
					"t_mapping(t_uint256,t_struct(Loan)782_storage)": {
						"encoding": "mapping",
						"key": "t_uint256",
						"label": "mapping(uint256 => struct LAN.Loan)",
						"numberOfBytes": "32",
						"value": "t_struct(Loan)782_storage"
					},
					"t_mapping(t_uint256,t_uint256)": {
						"encoding": "mapping",
						"key": "t_uint256",
						"label": "mapping(uint256 => uint256)",
						"numberOfBytes": "32",
						"value": "t_uint256"
					},
					"t_struct(Bid)799_storage": {
						"encoding": "inplace",
						"label": "struct LAN.Bid",
						"members": [
							{
								"astId": 790,
								"contract": "contracts/mainliquidations.sol:LAN",
								"label": "bidTime",
								"offset": 0,
								"slot": "0",
								"type": "t_uint256"
							},
							{
								"astId": 792,
								"contract": "contracts/mainliquidations.sol:LAN",
								"label": "bidAmount",
								"offset": 0,
								"slot": "1",
								"type": "t_uint256"
							},
							{
								"astId": 794,
								"contract": "contracts/mainliquidations.sol:LAN",
								"label": "user",
								"offset": 0,
								"slot": "2",
								"type": "t_address"
							},
							{
								"astId": 796,
								"contract": "contracts/mainliquidations.sol:LAN",
								"label": "apr",
								"offset": 0,
								"slot": "3",
								"type": "t_uint256"
							},
							{
								"astId": 798,
								"contract": "contracts/mainliquidations.sol:LAN",
								"label": "ltv",
								"offset": 0,
								"slot": "4",
								"type": "t_uint16"
							}
						],
						"numberOfBytes": "160"
					},
					"t_struct(Loan)782_storage": {
						"encoding": "inplace",
						"label": "struct LAN.Loan",
						"members": [
							{
								"astId": 759,
								"contract": "contracts/mainliquidations.sol:LAN",
								"label": "owner",
								"offset": 0,
								"slot": "0",
								"type": "t_address"
							},
							{
								"astId": 761,
								"contract": "contracts/mainliquidations.sol:LAN",
								"label": "token",
								"offset": 0,
								"slot": "1",
								"type": "t_address"
							},
							{
								"astId": 763,
								"contract": "contracts/mainliquidations.sol:LAN",
								"label": "operator",
								"offset": 0,
								"slot": "2",
								"type": "t_address"
							},
							{
								"astId": 765,
								"contract": "contracts/mainliquidations.sol:LAN",
								"label": "oracleAddress",
								"offset": 0,
								"slot": "3",
								"type": "t_address"
							},
							{
								"astId": 767,
								"contract": "contracts/mainliquidations.sol:LAN",
								"label": "collectionAddress",
								"offset": 0,
								"slot": "4",
								"type": "t_address"
							},
							{
								"astId": 769,
								"contract": "contracts/mainliquidations.sol:LAN",
								"label": "apr",
								"offset": 0,
								"slot": "5",
								"type": "t_uint256"
							},
							{
								"astId": 771,
								"contract": "contracts/mainliquidations.sol:LAN",
								"label": "nftId",
								"offset": 0,
								"slot": "6",
								"type": "t_uint256"
							},
							{
								"astId": 773,
								"contract": "contracts/mainliquidations.sol:LAN",
								"label": "startTime",
								"offset": 0,
								"slot": "7",
								"type": "t_uint256"
							},
							{
								"astId": 775,
								"contract": "contracts/mainliquidations.sol:LAN",
								"label": "endTime",
								"offset": 0,
								"slot": "8",
								"type": "t_uint256"
							},
							{
								"astId": 777,
								"contract": "contracts/mainliquidations.sol:LAN",
								"label": "numBids",
								"offset": 0,
								"slot": "9",
								"type": "t_uint256"
							},
							{
								"astId": 779,
								"contract": "contracts/mainliquidations.sol:LAN",
								"label": "liquidatable",
								"offset": 0,
								"slot": "10",
								"type": "t_bool"
							},
							{
								"astId": 781,
								"contract": "contracts/mainliquidations.sol:LAN",
								"label": "whitelisted",
								"offset": 1,
								"slot": "10",
								"type": "t_bool"
							}
						],
						"numberOfBytes": "352"
					},
					"t_uint16": {
						"encoding": "inplace",
						"label": "uint16",
						"numberOfBytes": "2"
					},
					"t_uint256": {
						"encoding": "inplace",
						"label": "uint256",
						"numberOfBytes": "32"
					}
				}
			},
			"userdoc": {
				"kind": "user",
				"methods": {
					"bid(uint256,uint256,uint256,uint16)": {
						"notice": "Setting and accepting bids for the asset"
					},
					"bids(uint256,uint256)": {
						"notice": "Mapping from PoolID => Bid Number => Bid. Keep track of bids"
					},
					"cancel(uint256)": {
						"notice": "Cancel Auction if it hasn't started"
					},
					"changeWhitelist(uint256,address,bool)": {
						"notice": "Update Whitelist members. Change Whitelist members. Requires Whitelist = True to take action."
					},
					"count()": {
						"notice": "Count number of loans, both expired and active"
					},
					"launch(address,address,address,address,uint256,uint256,uint256,bool,bool)": {
						"notice": "Launching the auction"
					},
					"liquidate(uint256)": {
						"notice": "Liquidate the NFT if the loan is over without a repayment, or if Liquidatable=True, and the loan is liquidated."
					},
					"liquidateEarly(uint256)": {
						"notice": "Liquidate early if the borrower so chooses."
					},
					"loans(uint256)": {
						"notice": "Keeping track of loans. PoolId => loans"
					},
					"repay(uint256,uint256)": {
						"notice": "Pay down the loan to restore the Health Factor, or end the loan prematurely"
					},
					"setNewBidOwner(uint256,address)": {
						"notice": "Transferring a bid to another address. Ignores whitelist if there is one. Similar to the NFTfi Promissory Note"
					},
					"userPoolReserve(uint256)": {
						"notice": "Mapping from PoolID => User Funds. Tracks repayments from users. Funds aren't transferred to the borrower, but are kept."
					},
					"whitelistStatusUpdate(uint256,bool)": {
						"notice": "Update Whitelist status."
					},
					"whitelistedAddresses(uint256,address)": {
						"notice": "Mapping from PoolID => Bidder Address => bool. True = Whitelisted, False = not. Wh"
					}
				},
				"notice": "Code is really rough and likely contains bugs :)",
				"version": 1
			}
		}
	}
}