{
	"data": {
		"bytecode": {
			"linkReferences": {},
			"object": "6104bd610053600b82828239805160001a607314610046577f4e487b7100000000000000000000000000000000000000000000000000000000600052600060045260246000fd5b30600052607381538281f3fe73000000000000000000000000000000000000000030146080604052600436106101365760003560e01c806356ef4514116100b7578063a4a235951161007b578063a4a23595146102fd578063ca9d1a721461031b578063e774928e14610339578063f37fcc4214610357578063fd760c491461037557610136565b806356ef4514146102675780636b09583c146102855780638322fff2146102a3578063976d5e77146102c15780639db2a472146102df57610136565b80632792949d116100fe5780632792949d146101d1578063294a2bf2146101ef5780632e79477f1461020d578063465bd0a31461022b57806353f7c3671461024957610136565b806301b8b3391461013b57806303d698f2146101595780630c0128341461017757806319342a64146101955780631bf6c21b146101b3575b600080fd5b610143610393565b604051610150919061046c565b60405180910390f35b610161610399565b60405161016e919061046c565b60405180910390f35b61017f61039f565b60405161018c919061046c565b60405180910390f35b61019d6103a4565b6040516101aa919061046c565b60405180910390f35b6101bb6103a9565b6040516101c8919061046c565b60405180910390f35b6101d96103af565b6040516101e6919061046c565b60405180910390f35b6101f76103c7565b604051610204919061046c565b60405180910390f35b6102156103cd565b604051610222919061046c565b60405180910390f35b6102336103d3565b604051610240919061046c565b60405180910390f35b6102516103d9565b60405161025e919061046c565b60405180910390f35b61026f6103df565b60405161027c919061046c565b60405180910390f35b61028d6103e5565b60405161029a919061046c565b60405180910390f35b6102ab6103eb565b6040516102b8919061046c565b60405180910390f35b6102c9610403565b6040516102d6919061046c565b60405180910390f35b6102e7610409565b6040516102f4919061046c565b60405180910390f35b61030561040f565b604051610312919061046c565b60405180910390f35b610323610414565b604051610330919061046c565b60405180910390f35b61034161041a565b60405161034e919061046c565b60405180910390f35b61035f610420565b60405161036c919061046c565b60405180910390f35b61037d610426565b60405161038a919061046c565b60405180910390f35b61033a81565b61023681565b602081565b607c81565b61034881565b73bbbbbbbbbbbbbbbbbbbbbbbbbbbbbbbbbbbbbbbb81565b6103d281565b6102be81565b61018881565b61026081565b61019a81565b6103da81565b73eeeeeeeeeeeeeeeeeeeeeeeeeeeeeeeeeeeeeeee81565b61028381565b6102c681565b609c81565b61022a81565b61016481565b6102f481565b602481565b600073ffffffffffffffffffffffffffffffffffffffff82169050919050565b60006104568261042b565b9050919050565b6104668161044b565b82525050565b6000602082019050610481600083018461045d565b9291505056fea26469706673582212209cd5662a3e7c68b3f7e90e01bb26038d708e11048be11ee857ccdd2343e4eeee64736f6c63430008110033",
			"opcodes": "PUSH2 0x4BD PUSH2 0x53 PUSH1 0xB DUP3 DUP3 DUP3 CODECOPY DUP1 MLOAD PUSH1 0x0 BYTE PUSH1 0x73 EQ PUSH2 0x46 JUMPI PUSH32 0x4E487B7100000000000000000000000000000000000000000000000000000000 PUSH1 0x0 MSTORE PUSH1 0x0 PUSH1 0x4 MSTORE PUSH1 0x24 PUSH1 0x0 REVERT JUMPDEST ADDRESS PUSH1 0x0 MSTORE PUSH1 0x73 DUP2 MSTORE8 DUP3 DUP2 RETURN INVALID PUSH20 0x0 ADDRESS EQ PUSH1 0x80 PUSH1 0x40 MSTORE PUSH1 0x4 CALLDATASIZE LT PUSH2 0x136 JUMPI PUSH1 0x0 CALLDATALOAD PUSH1 0xE0 SHR DUP1 PUSH4 0x56EF4514 GT PUSH2 0xB7 JUMPI DUP1 PUSH4 0xA4A23595 GT PUSH2 0x7B JUMPI DUP1 PUSH4 0xA4A23595 EQ PUSH2 0x2FD JUMPI DUP1 PUSH4 0xCA9D1A72 EQ PUSH2 0x31B JUMPI DUP1 PUSH4 0xE774928E EQ PUSH2 0x339 JUMPI DUP1 PUSH4 0xF37FCC42 EQ PUSH2 0x357 JUMPI DUP1 PUSH4 0xFD760C49 EQ PUSH2 0x375 JUMPI PUSH2 0x136 JUMP JUMPDEST DUP1 PUSH4 0x56EF4514 EQ PUSH2 0x267 JUMPI DUP1 PUSH4 0x6B09583C EQ PUSH2 0x285 JUMPI DUP1 PUSH4 0x8322FFF2 EQ PUSH2 0x2A3 JUMPI DUP1 PUSH4 0x976D5E77 EQ PUSH2 0x2C1 JUMPI DUP1 PUSH4 0x9DB2A472 EQ PUSH2 0x2DF JUMPI PUSH2 0x136 JUMP JUMPDEST DUP1 PUSH4 0x2792949D GT PUSH2 0xFE JUMPI DUP1 PUSH4 0x2792949D EQ PUSH2 0x1D1 JUMPI DUP1 PUSH4 0x294A2BF2 EQ PUSH2 0x1EF JUMPI DUP1 PUSH4 0x2E79477F EQ PUSH2 0x20D JUMPI DUP1 PUSH4 0x465BD0A3 EQ PUSH2 0x22B JUMPI DUP1 PUSH4 0x53F7C367 EQ PUSH2 0x249 JUMPI PUSH2 0x136 JUMP JUMPDEST DUP1 PUSH4 0x1B8B339 EQ PUSH2 0x13B JUMPI DUP1 PUSH4 0x3D698F2 EQ PUSH2 0x159 JUMPI DUP1 PUSH4 0xC012834 EQ PUSH2 0x177 JUMPI DUP1 PUSH4 0x19342A64 EQ PUSH2 0x195 JUMPI DUP1 PUSH4 0x1BF6C21B EQ PUSH2 0x1B3 JUMPI JUMPDEST PUSH1 0x0 DUP1 REVERT JUMPDEST PUSH2 0x143 PUSH2 0x393 JUMP JUMPDEST PUSH1 0x40 MLOAD PUSH2 0x150 SWAP2 SWAP1 PUSH2 0x46C JUMP JUMPDEST PUSH1 0x40 MLOAD DUP1 SWAP2 SUB SWAP1 RETURN JUMPDEST PUSH2 0x161 PUSH2 0x399 JUMP JUMPDEST PUSH1 0x40 MLOAD PUSH2 0x16E SWAP2 SWAP1 PUSH2 0x46C JUMP JUMPDEST PUSH1 0x40 MLOAD DUP1 SWAP2 SUB SWAP1 RETURN JUMPDEST PUSH2 0x17F PUSH2 0x39F JUMP JUMPDEST PUSH1 0x40 MLOAD PUSH2 0x18C SWAP2 SWAP1 PUSH2 0x46C JUMP JUMPDEST PUSH1 0x40 MLOAD DUP1 SWAP2 SUB SWAP1 RETURN JUMPDEST PUSH2 0x19D PUSH2 0x3A4 JUMP JUMPDEST PUSH1 0x40 MLOAD PUSH2 0x1AA SWAP2 SWAP1 PUSH2 0x46C JUMP JUMPDEST PUSH1 0x40 MLOAD DUP1 SWAP2 SUB SWAP1 RETURN JUMPDEST PUSH2 0x1BB PUSH2 0x3A9 JUMP JUMPDEST PUSH1 0x40 MLOAD PUSH2 0x1C8 SWAP2 SWAP1 PUSH2 0x46C JUMP JUMPDEST PUSH1 0x40 MLOAD DUP1 SWAP2 SUB SWAP1 RETURN JUMPDEST PUSH2 0x1D9 PUSH2 0x3AF JUMP JUMPDEST PUSH1 0x40 MLOAD PUSH2 0x1E6 SWAP2 SWAP1 PUSH2 0x46C JUMP JUMPDEST PUSH1 0x40 MLOAD DUP1 SWAP2 SUB SWAP1 RETURN JUMPDEST PUSH2 0x1F7 PUSH2 0x3C7 JUMP JUMPDEST PUSH1 0x40 MLOAD PUSH2 0x204 SWAP2 SWAP1 PUSH2 0x46C JUMP JUMPDEST PUSH1 0x40 MLOAD DUP1 SWAP2 SUB SWAP1 RETURN JUMPDEST PUSH2 0x215 PUSH2 0x3CD JUMP JUMPDEST PUSH1 0x40 MLOAD PUSH2 0x222 SWAP2 SWAP1 PUSH2 0x46C JUMP JUMPDEST PUSH1 0x40 MLOAD DUP1 SWAP2 SUB SWAP1 RETURN JUMPDEST PUSH2 0x233 PUSH2 0x3D3 JUMP JUMPDEST PUSH1 0x40 MLOAD PUSH2 0x240 SWAP2 SWAP1 PUSH2 0x46C JUMP JUMPDEST PUSH1 0x40 MLOAD DUP1 SWAP2 SUB SWAP1 RETURN JUMPDEST PUSH2 0x251 PUSH2 0x3D9 JUMP JUMPDEST PUSH1 0x40 MLOAD PUSH2 0x25E SWAP2 SWAP1 PUSH2 0x46C JUMP JUMPDEST PUSH1 0x40 MLOAD DUP1 SWAP2 SUB SWAP1 RETURN JUMPDEST PUSH2 0x26F PUSH2 0x3DF JUMP JUMPDEST PUSH1 0x40 MLOAD PUSH2 0x27C SWAP2 SWAP1 PUSH2 0x46C JUMP JUMPDEST PUSH1 0x40 MLOAD DUP1 SWAP2 SUB SWAP1 RETURN JUMPDEST PUSH2 0x28D PUSH2 0x3E5 JUMP JUMPDEST PUSH1 0x40 MLOAD PUSH2 0x29A SWAP2 SWAP1 PUSH2 0x46C JUMP JUMPDEST PUSH1 0x40 MLOAD DUP1 SWAP2 SUB SWAP1 RETURN JUMPDEST PUSH2 0x2AB PUSH2 0x3EB JUMP JUMPDEST PUSH1 0x40 MLOAD PUSH2 0x2B8 SWAP2 SWAP1 PUSH2 0x46C JUMP JUMPDEST PUSH1 0x40 MLOAD DUP1 SWAP2 SUB SWAP1 RETURN JUMPDEST PUSH2 0x2C9 PUSH2 0x403 JUMP JUMPDEST PUSH1 0x40 MLOAD PUSH2 0x2D6 SWAP2 SWAP1 PUSH2 0x46C JUMP JUMPDEST PUSH1 0x40 MLOAD DUP1 SWAP2 SUB SWAP1 RETURN JUMPDEST PUSH2 0x2E7 PUSH2 0x409 JUMP JUMPDEST PUSH1 0x40 MLOAD PUSH2 0x2F4 SWAP2 SWAP1 PUSH2 0x46C JUMP JUMPDEST PUSH1 0x40 MLOAD DUP1 SWAP2 SUB SWAP1 RETURN JUMPDEST PUSH2 0x305 PUSH2 0x40F JUMP JUMPDEST PUSH1 0x40 MLOAD PUSH2 0x312 SWAP2 SWAP1 PUSH2 0x46C JUMP JUMPDEST PUSH1 0x40 MLOAD DUP1 SWAP2 SUB SWAP1 RETURN JUMPDEST PUSH2 0x323 PUSH2 0x414 JUMP JUMPDEST PUSH1 0x40 MLOAD PUSH2 0x330 SWAP2 SWAP1 PUSH2 0x46C JUMP JUMPDEST PUSH1 0x40 MLOAD DUP1 SWAP2 SUB SWAP1 RETURN JUMPDEST PUSH2 0x341 PUSH2 0x41A JUMP JUMPDEST PUSH1 0x40 MLOAD PUSH2 0x34E SWAP2 SWAP1 PUSH2 0x46C JUMP JUMPDEST PUSH1 0x40 MLOAD DUP1 SWAP2 SUB SWAP1 RETURN JUMPDEST PUSH2 0x35F PUSH2 0x420 JUMP JUMPDEST PUSH1 0x40 MLOAD PUSH2 0x36C SWAP2 SWAP1 PUSH2 0x46C JUMP JUMPDEST PUSH1 0x40 MLOAD DUP1 SWAP2 SUB SWAP1 RETURN JUMPDEST PUSH2 0x37D PUSH2 0x426 JUMP JUMPDEST PUSH1 0x40 MLOAD PUSH2 0x38A SWAP2 SWAP1 PUSH2 0x46C JUMP JUMPDEST PUSH1 0x40 MLOAD DUP1 SWAP2 SUB SWAP1 RETURN JUMPDEST PUSH2 0x33A DUP2 JUMP JUMPDEST PUSH2 0x236 DUP2 JUMP JUMPDEST PUSH1 0x20 DUP2 JUMP JUMPDEST PUSH1 0x7C DUP2 JUMP JUMPDEST PUSH2 0x348 DUP2 JUMP JUMPDEST PUSH20 0xBBBBBBBBBBBBBBBBBBBBBBBBBBBBBBBBBBBBBBBB DUP2 JUMP JUMPDEST PUSH2 0x3D2 DUP2 JUMP JUMPDEST PUSH2 0x2BE DUP2 JUMP JUMPDEST PUSH2 0x188 DUP2 JUMP JUMPDEST PUSH2 0x260 DUP2 JUMP JUMPDEST PUSH2 0x19A DUP2 JUMP JUMPDEST PUSH2 0x3DA DUP2 JUMP JUMPDEST PUSH20 0xEEEEEEEEEEEEEEEEEEEEEEEEEEEEEEEEEEEEEEEE DUP2 JUMP JUMPDEST PUSH2 0x283 DUP2 JUMP JUMPDEST PUSH2 0x2C6 DUP2 JUMP JUMPDEST PUSH1 0x9C DUP2 JUMP JUMPDEST PUSH2 0x22A DUP2 JUMP JUMPDEST PUSH2 0x164 DUP2 JUMP JUMPDEST PUSH2 0x2F4 DUP2 JUMP JUMPDEST PUSH1 0x24 DUP2 JUMP JUMPDEST PUSH1 0x0 PUSH20 0xFFFFFFFFFFFFFFFFFFFFFFFFFFFFFFFFFFFFFFFF DUP3 AND SWAP1 POP SWAP2 SWAP1 POP JUMP JUMPDEST PUSH1 0x0 PUSH2 0x456 DUP3 PUSH2 0x42B JUMP JUMPDEST SWAP1 POP SWAP2 SWAP1 POP JUMP JUMPDEST PUSH2 0x466 DUP2 PUSH2 0x44B JUMP JUMPDEST DUP3 MSTORE POP POP JUMP JUMPDEST PUSH1 0x0 PUSH1 0x20 DUP3 ADD SWAP1 POP PUSH2 0x481 PUSH1 0x0 DUP4 ADD DUP5 PUSH2 0x45D JUMP JUMPDEST SWAP3 SWAP2 POP POP JUMP INVALID LOG2 PUSH5 0x6970667358 0x22 SLT KECCAK256 SWAP13 0xD5 PUSH7 0x2A3E7C68B3F7E9 0xE ADD 0xBB 0x26 SUB DUP14 PUSH17 0x8E11048BE11EE857CCDD2343E4EEEE6473 PUSH16 0x6C634300081100330000000000000000 "
		},
		"gasEstimates": {
			"creation": {
				"codeDepositCost": "242600",
				"executionCost": "309",
				"totalCost": "242909"
			},
			"external": {
				"ARS()": "430",
				"AUD()": "472",
				"BRL()": "407",
				"BTC()": "385",
				"CAD()": "452",
				"CHF()": "450",
				"CNY()": "384",
				"ETH()": "429",
				"EUR()": "407",
				"GBP()": "386",
				"INR()": "428",
				"JPY()": "451",
				"KRW()": "385",
				"NGN()": "408",
				"NZD()": "406",
				"PHP()": "473",
				"RUB()": "451",
				"SGD()": "429",
				"USD()": "474",
				"ZAR()": "473"
			}
		},
		"methodIdentifiers": {
			"ARS()": "0c012834",
			"AUD()": "fd760c49",
			"BRL()": "6b09583c",
			"BTC()": "2792949d",
			"CAD()": "19342a64",
			"CHF()": "f37fcc42",
			"CNY()": "a4a23595",
			"ETH()": "8322fff2",
			"EUR()": "294a2bf2",
			"GBP()": "01b8b339",
			"INR()": "e774928e",
			"JPY()": "465bd0a3",
			"KRW()": "56ef4514",
			"NGN()": "03d698f2",
			"NZD()": "ca9d1a72",
			"PHP()": "53f7c367",
			"RUB()": "976d5e77",
			"SGD()": "2e79477f",
			"USD()": "1bf6c21b",
			"ZAR()": "9db2a472"
		}
	},
	"abi": [
		{
			"inputs": [],
			"name": "ARS",
			"outputs": [
				{
					"internalType": "address",
					"name": "",
					"type": "address"
				}
			],
			"stateMutability": "view",
			"type": "function"
		},
		{
			"inputs": [],
			"name": "AUD",
			"outputs": [
				{
					"internalType": "address",
					"name": "",
					"type": "address"
				}
			],
			"stateMutability": "view",
			"type": "function"
		},
		{
			"inputs": [],
			"name": "BRL",
			"outputs": [
				{
					"internalType": "address",
					"name": "",
					"type": "address"
				}
			],
			"stateMutability": "view",
			"type": "function"
		},
		{
			"inputs": [],
			"name": "BTC",
			"outputs": [
				{
					"internalType": "address",
					"name": "",
					"type": "address"
				}
			],
			"stateMutability": "view",
			"type": "function"
		},
		{
			"inputs": [],
			"name": "CAD",
			"outputs": [
				{
					"internalType": "address",
					"name": "",
					"type": "address"
				}
			],
			"stateMutability": "view",
			"type": "function"
		},
		{
			"inputs": [],
			"name": "CHF",
			"outputs": [
				{
					"internalType": "address",
					"name": "",
					"type": "address"
				}
			],
			"stateMutability": "view",
			"type": "function"
		},
		{
			"inputs": [],
			"name": "CNY",
			"outputs": [
				{
					"internalType": "address",
					"name": "",
					"type": "address"
				}
			],
			"stateMutability": "view",
			"type": "function"
		},
		{
			"inputs": [],
			"name": "ETH",
			"outputs": [
				{
					"internalType": "address",
					"name": "",
					"type": "address"
				}
			],
			"stateMutability": "view",
			"type": "function"
		},
		{
			"inputs": [],
			"name": "EUR",
			"outputs": [
				{
					"internalType": "address",
					"name": "",
					"type": "address"
				}
			],
			"stateMutability": "view",
			"type": "function"
		},
		{
			"inputs": [],
			"name": "GBP",
			"outputs": [
				{
					"internalType": "address",
					"name": "",
					"type": "address"
				}
			],
			"stateMutability": "view",
			"type": "function"
		},
		{
			"inputs": [],
			"name": "INR",
			"outputs": [
				{
					"internalType": "address",
					"name": "",
					"type": "address"
				}
			],
			"stateMutability": "view",
			"type": "function"
		},
		{
			"inputs": [],
			"name": "JPY",
			"outputs": [
				{
					"internalType": "address",
					"name": "",
					"type": "address"
				}
			],
			"stateMutability": "view",
			"type": "function"
		},
		{
			"inputs": [],
			"name": "KRW",
			"outputs": [
				{
					"internalType": "address",
					"name": "",
					"type": "address"
				}
			],
			"stateMutability": "view",
			"type": "function"
		},
		{
			"inputs": [],
			"name": "NGN",
			"outputs": [
				{
					"internalType": "address",
					"name": "",
					"type": "address"
				}
			],
			"stateMutability": "view",
			"type": "function"
		},
		{
			"inputs": [],
			"name": "NZD",
			"outputs": [
				{
					"internalType": "address",
					"name": "",
					"type": "address"
				}
			],
			"stateMutability": "view",
			"type": "function"
		},
		{
			"inputs": [],
			"name": "PHP",
			"outputs": [
				{
					"internalType": "address",
					"name": "",
					"type": "address"
				}
			],
			"stateMutability": "view",
			"type": "function"
		},
		{
			"inputs": [],
			"name": "RUB",
			"outputs": [
				{
					"internalType": "address",
					"name": "",
					"type": "address"
				}
			],
			"stateMutability": "view",
			"type": "function"
		},
		{
			"inputs": [],
			"name": "SGD",
			"outputs": [
				{
					"internalType": "address",
					"name": "",
					"type": "address"
				}
			],
			"stateMutability": "view",
			"type": "function"
		},
		{
			"inputs": [],
			"name": "USD",
			"outputs": [
				{
					"internalType": "address",
					"name": "",
					"type": "address"
				}
			],
			"stateMutability": "view",
			"type": "function"
		},
		{
			"inputs": [],
			"name": "ZAR",
			"outputs": [
				{
					"internalType": "address",
					"name": "",
					"type": "address"
				}
			],
			"stateMutability": "view",
			"type": "function"
		}
	]
}